{"abi":[{"constant":true,"inputs":[],"name":"name","outputs":[{"name":"","type":"string"}],"payable":false,"stateMutability":"view","type":"function"},{"constant":false,"inputs":[{"name":"spender","type":"address"},{"name":"value","type":"uint256"}],"name":"approve","outputs":[{"name":"","type":"bool"}],"payable":false,"stateMutability":"nonpayable","type":"function"},{"constant":true,"inputs":[],"name":"totalSupply","outputs":[{"name":"","type":"uint256"}],"payable":false,"stateMutability":"view","type":"function"},{"constant":false,"inputs":[{"name":"from","type":"address"},{"name":"to","type":"address"},{"name":"value","type":"uint256"}],"name":"transferFrom","outputs":[{"name":"","type":"bool"}],"payable":false,"stateMutability":"nonpayable","type":"function"},{"constant":true,"inputs":[],"name":"decimals","outputs":[{"name":"","type":"uint8"}],"payable":false,"stateMutability":"view","type":"function"},{"constant":true,"inputs":[],"name":"cap","outputs":[{"name":"","type":"uint256"}],"payable":false,"stateMutability":"view","type":"function"},{"constant":false,"inputs":[{"name":"NRTManager","type":"address"}],"name":"AddNRTManager","outputs":[{"name":"","type":"bool"}],"payable":false,"stateMutability":"nonpayable","type":"function"},{"constant":false,"inputs":[{"name":"spender","type":"address"},{"name":"addedValue","type":"uint256"}],"name":"increaseAllowance","outputs":[{"name":"success","type":"bool"}],"payable":false,"stateMutability":"nonpayable","type":"function"},{"constant":false,"inputs":[],"name":"unpause","outputs":[],"payable":false,"stateMutability":"nonpayable","type":"function"},{"constant":false,"inputs":[{"name":"to","type":"address"},{"name":"value","type":"uint256"}],"name":"mint","outputs":[{"name":"","type":"bool"}],"payable":false,"stateMutability":"nonpayable","type":"function"},{"constant":false,"inputs":[{"name":"_seconds","type":"uint256"}],"name":"goToPast","outputs":[],"payable":false,"stateMutability":"nonpayable","type":"function"},{"constant":false,"inputs":[{"name":"value","type":"uint256"}],"name":"burn","outputs":[],"payable":false,"stateMutability":"nonpayable","type":"function"},{"constant":true,"inputs":[{"name":"account","type":"address"}],"name":"isPauser","outputs":[{"name":"","type":"bool"}],"payable":false,"stateMutability":"view","type":"function"},{"constant":true,"inputs":[],"name":"paused","outputs":[{"name":"","type":"bool"}],"payable":false,"stateMutability":"view","type":"function"},{"constant":false,"inputs":[{"name":"_seconds","type":"uint256"}],"name":"goToFuture","outputs":[],"payable":false,"stateMutability":"nonpayable","type":"function"},{"constant":false,"inputs":[],"name":"renouncePauser","outputs":[],"payable":false,"stateMutability":"nonpayable","type":"function"},{"constant":true,"inputs":[{"name":"owner","type":"address"}],"name":"balanceOf","outputs":[{"name":"","type":"uint256"}],"payable":false,"stateMutability":"view","type":"function"},{"constant":false,"inputs":[{"name":"from","type":"address"},{"name":"value","type":"uint256"}],"name":"burnFrom","outputs":[],"payable":false,"stateMutability":"nonpayable","type":"function"},{"constant":false,"inputs":[{"name":"account","type":"address"}],"name":"addPauser","outputs":[],"payable":false,"stateMutability":"nonpayable","type":"function"},{"constant":false,"inputs":[],"name":"pause","outputs":[],"payable":false,"stateMutability":"nonpayable","type":"function"},{"constant":true,"inputs":[],"name":"symbol","outputs":[{"name":"","type":"string"}],"payable":false,"stateMutability":"view","type":"function"},{"constant":false,"inputs":[{"name":"account","type":"address"}],"name":"addMinter","outputs":[],"payable":false,"stateMutability":"nonpayable","type":"function"},{"constant":false,"inputs":[],"name":"renounceMinter","outputs":[],"payable":false,"stateMutability":"nonpayable","type":"function"},{"constant":false,"inputs":[{"name":"spender","type":"address"},{"name":"subtractedValue","type":"uint256"}],"name":"decreaseAllowance","outputs":[{"name":"success","type":"bool"}],"payable":false,"stateMutability":"nonpayable","type":"function"},{"constant":false,"inputs":[{"name":"to","type":"address"},{"name":"value","type":"uint256"}],"name":"transfer","outputs":[{"name":"","type":"bool"}],"payable":false,"stateMutability":"nonpayable","type":"function"},{"constant":true,"inputs":[{"name":"account","type":"address"}],"name":"isMinter","outputs":[{"name":"","type":"bool"}],"payable":false,"stateMutability":"view","type":"function"},{"constant":false,"inputs":[{"name":"_timeMachineDepth","type":"int256"}],"name":"setTimeMachineDepth","outputs":[],"payable":false,"stateMutability":"nonpayable","type":"function"},{"constant":true,"inputs":[],"name":"mou","outputs":[{"name":"","type":"uint256"}],"payable":false,"stateMutability":"view","type":"function"},{"constant":true,"inputs":[{"name":"owner","type":"address"},{"name":"spender","type":"address"}],"name":"allowance","outputs":[{"name":"","type":"uint256"}],"payable":false,"stateMutability":"view","type":"function"},{"constant":true,"inputs":[],"name":"timeMachineDepth","outputs":[{"name":"","type":"int256"}],"payable":false,"stateMutability":"view","type":"function"},{"inputs":[],"payable":false,"stateMutability":"nonpayable","type":"constructor"},{"anonymous":false,"inputs":[{"indexed":false,"name":"NRTManager","type":"address"}],"name":"NRTManagerAdded","type":"event"},{"anonymous":false,"inputs":[{"indexed":false,"name":"account","type":"address"}],"name":"Paused","type":"event"},{"anonymous":false,"inputs":[{"indexed":false,"name":"account","type":"address"}],"name":"Unpaused","type":"event"},{"anonymous":false,"inputs":[{"indexed":true,"name":"account","type":"address"}],"name":"PauserAdded","type":"event"},{"anonymous":false,"inputs":[{"indexed":true,"name":"account","type":"address"}],"name":"PauserRemoved","type":"event"},{"anonymous":false,"inputs":[{"indexed":true,"name":"account","type":"address"}],"name":"MinterAdded","type":"event"},{"anonymous":false,"inputs":[{"indexed":true,"name":"account","type":"address"}],"name":"MinterRemoved","type":"event"},{"anonymous":false,"inputs":[{"indexed":true,"name":"from","type":"address"},{"indexed":true,"name":"to","type":"address"},{"indexed":false,"name":"value","type":"uint256"}],"name":"Transfer","type":"event"},{"anonymous":false,"inputs":[{"indexed":true,"name":"owner","type":"address"},{"indexed":true,"name":"spender","type":"address"},{"indexed":false,"name":"value","type":"uint256"}],"name":"Approval","type":"event"}],"devdoc":{"methods":{"AddNRTManager(address)":{"details":"Function to add NRT Manager to have minting rights It will transfer the minting rights to NRTManager and revokes it from existing minter","params":{"NRTManager":"Address of NRT Manager C ontract"}},"allowance(address,address)":{"details":"Function to check the amount of tokens that an owner allowed to a spender.","params":{"owner":"address The address which owns the funds.","spender":"address The address which will spend the funds."},"return":"A uint256 specifying the amount of tokens still available for the spender."},"balanceOf(address)":{"details":"Gets the balance of the specified address.","params":{"owner":"The address to query the balance of."},"return":"A uint256 representing the amount owned by the passed address."},"burn(uint256)":{"details":"Burns a specific amount of tokens.","params":{"value":"The amount of token to be burned."}},"burnFrom(address,uint256)":{"details":"Burns a specific amount of tokens from the target address and decrements allowance","params":{"from":"address The account whose tokens will be burned.","value":"uint256 The amount of token to be burned."}},"cap()":{"return":"the cap for the token minting."},"decimals()":{"return":"the number of decimals of the token."},"mint(address,uint256)":{"details":"Function to mint tokens","params":{"to":"The address that will receive the minted tokens.","value":"The amount of tokens to mint."},"return":"A boolean that indicates if the operation was successful."},"name()":{"return":"the name of the token."},"pause()":{"details":"called by the owner to pause, triggers stopped state"},"paused()":{"return":"true if the contract is paused, false otherwise."},"symbol()":{"return":"the symbol of the token."},"totalSupply()":{"details":"Total number of tokens in existence"},"unpause()":{"details":"called by the owner to unpause, returns to normal state"}}},"evm":{"assembly":"    /* \"Eraswap.sol\":146:1620  contract Eraswap is ERC20Detailed,ERC20Burnable,ERC20Capped,ERC20Pausable {... */\n  mstore(0x40, 0x80)\n    /* \"Eraswap.sol\":276:464  constructor()... */\n  callvalue\n    /* \"--CODEGEN--\":8:17   */\n  dup1\n    /* \"--CODEGEN--\":5:7   */\n  iszero\n  tag_1\n  jumpi\n    /* \"--CODEGEN--\":30:31   */\n  0x00\n    /* \"--CODEGEN--\":27:28   */\n  dup1\n    /* \"--CODEGEN--\":20:32   */\n  revert\n    /* \"--CODEGEN--\":5:7   */\ntag_1:\n    /* \"Eraswap.sol\":276:464  constructor()... */\n  pop\n    /* \"Eraswap.sol\":363:391  9100000000000000000000000000 */\n  0x1d6757f47b1c8ef70c000000\n    /* \"ERC20Detailed.sol\":405:568  constructor (string memory name, string memory symbol, uint8 decimals) public {... */\n  mload(0x40)\n  dup1\n  0x40\n  add\n  0x40\n  mstore\n  dup1\n  0x08\n  dup2\n  mstore\n  0x20\n  add\n  0x4572612053776170000000000000000000000000000000000000000000000000\n  dup2\n  mstore\n  pop\n  mload(0x40)\n  dup1\n  0x40\n  add\n  0x40\n  mstore\n  dup1\n  0x02\n  dup2\n  mstore\n  0x20\n  add\n  0x4553000000000000000000000000000000000000000000000000000000000000\n  dup2\n  mstore\n  pop\n    /* \"Eraswap.sol\":347:349  18 */\n  0x12\n    /* \"ERC20Detailed.sol\":501:505  name */\n  dup3\n    /* \"ERC20Detailed.sol\":493:498  _name */\n  0x00\n    /* \"ERC20Detailed.sol\":493:505  _name = name */\n  swap1\n  dup1\n  mload\n  swap1\n  0x20\n  add\n  swap1\n  tag_9\n  swap3\n  swap2\n  swap1\n  tag_10\n  jump\t// in\ntag_9:\n  pop\n    /* \"ERC20Detailed.sol\":525:531  symbol */\n  dup2\n    /* \"ERC20Detailed.sol\":515:522  _symbol */\n  0x01\n    /* \"ERC20Detailed.sol\":515:531  _symbol = symbol */\n  swap1\n  dup1\n  mload\n  swap1\n  0x20\n  add\n  swap1\n  tag_11\n  swap3\n  swap2\n  swap1\n  tag_10\n  jump\t// in\ntag_11:\n  pop\n    /* \"ERC20Detailed.sol\":553:561  decimals */\n  dup1\n    /* \"ERC20Detailed.sol\":541:550  _decimals */\n  0x02\n  0x00\n    /* \"ERC20Detailed.sol\":541:561  _decimals = decimals */\n  0x0100\n  exp\n  dup2\n  sload\n  dup2\n  0xff\n  mul\n  not\n  and\n  swap1\n  dup4\n  0xff\n  and\n  mul\n  or\n  swap1\n  sstore\n  pop\n    /* \"ERC20Detailed.sol\":405:568  constructor (string memory name, string memory symbol, uint8 decimals) public {... */\n  pop\n  pop\n  pop\n    /* \"MinterRole.sol\":274:296  _addMinter(msg.sender) */\n  tag_13\n    /* \"MinterRole.sol\":285:295  msg.sender */\n  caller\n    /* \"MinterRole.sol\":274:284  _addMinter */\n  shl(0x20, tag_14)\n    /* \"MinterRole.sol\":274:296  _addMinter(msg.sender) */\n  0x20\n  shr\n  jump\t// in\ntag_13:\n    /* \"ERC20Capped.sol\":256:257  0 */\n  0x00\n    /* \"ERC20Capped.sol\":250:253  cap */\n  dup2\n    /* \"ERC20Capped.sol\":250:257  cap > 0 */\n  gt\n    /* \"ERC20Capped.sol\":242:258  require(cap > 0) */\n  tag_16\n  jumpi\n  0x00\n  dup1\n  revert\ntag_16:\n    /* \"ERC20Capped.sol\":275:278  cap */\n  dup1\n    /* \"ERC20Capped.sol\":268:272  _cap */\n  0x07\n    /* \"ERC20Capped.sol\":268:278  _cap = cap */\n  dup2\n  swap1\n  sstore\n  pop\n    /* \"ERC20Capped.sol\":199:285  constructor (uint256 cap) public {... */\n  pop\n    /* \"PauserRole.sol\":274:296  _addPauser(msg.sender) */\n  tag_18\n    /* \"PauserRole.sol\":285:295  msg.sender */\n  caller\n    /* \"PauserRole.sol\":274:284  _addPauser */\n  shl(0x20, tag_19)\n    /* \"PauserRole.sol\":274:296  _addPauser(msg.sender) */\n  0x20\n  shr\n  jump\t// in\ntag_18:\n    /* \"Pausable.sol\":348:353  false */\n  0x00\n    /* \"Pausable.sol\":338:345  _paused */\n  0x09\n  0x00\n    /* \"Pausable.sol\":338:353  _paused = false */\n  0x0100\n  exp\n  dup2\n  sload\n  dup2\n  0xff\n  mul\n  not\n  and\n  swap1\n  dup4\n  iszero\n  iszero\n  mul\n  or\n  swap1\n  sstore\n  pop\n    /* \"Eraswap.sol\":408:453  mint(msg.sender, 910000000000000000000000000) */\n  tag_22\n    /* \"Eraswap.sol\":413:423  msg.sender */\n  caller\n    /* \"Eraswap.sol\":425:452  910000000000000000000000000 */\n  0x02f0bbfed91c74b24e000000\n    /* \"Eraswap.sol\":408:412  mint */\n  shl(0x20, tag_23)\n    /* \"Eraswap.sol\":408:453  mint(msg.sender, 910000000000000000000000000) */\n  0x20\n  shr\n  jump\t// in\ntag_22:\n  pop\n    /* \"Eraswap.sol\":146:1620  contract Eraswap is ERC20Detailed,ERC20Burnable,ERC20Capped,ERC20Pausable {... */\n  jump(tag_24)\n    /* \"MinterRole.sol\":684:803  function _addMinter(address account) internal {... */\ntag_14:\n    /* \"MinterRole.sol\":740:761  _minters.add(account) */\n  tag_26\n    /* \"MinterRole.sol\":753:760  account */\n  dup2\n    /* \"MinterRole.sol\":740:748  _minters */\n  0x06\n    /* \"MinterRole.sol\":740:752  _minters.add */\n  or(tag_0_260, shl(0x20, tag_27))\n  swap1\n    /* \"MinterRole.sol\":740:761  _minters.add(account) */\n  swap2\n  swap1\n  0x20\n  shr\n  jump\t// in\ntag_26:\n    /* \"MinterRole.sol\":788:795  account */\n  dup1\n    /* \"MinterRole.sol\":776:796  MinterAdded(account) */\n  0xffffffffffffffffffffffffffffffffffffffff\n  and\n  0x6ae172837ea30b801fbfcdd4108aa1d5bf8ff775444fd70256b44e6bf3dfc3f6\n  mload(0x40)\n  mload(0x40)\n  dup1\n  swap2\n  sub\n  swap1\n  log2\n    /* \"MinterRole.sol\":684:803  function _addMinter(address account) internal {... */\n  pop\n  jump\t// out\n    /* \"PauserRole.sol\":684:803  function _addPauser(address account) internal {... */\ntag_19:\n    /* \"PauserRole.sol\":740:761  _pausers.add(account) */\n  tag_29\n    /* \"PauserRole.sol\":753:760  account */\n  dup2\n    /* \"PauserRole.sol\":740:748  _pausers */\n  0x08\n    /* \"PauserRole.sol\":740:752  _pausers.add */\n  or(tag_0_260, shl(0x20, tag_27))\n  swap1\n    /* \"PauserRole.sol\":740:761  _pausers.add(account) */\n  swap2\n  swap1\n  0x20\n  shr\n  jump\t// in\ntag_29:\n    /* \"PauserRole.sol\":788:795  account */\n  dup1\n    /* \"PauserRole.sol\":776:796  PauserAdded(account) */\n  0xffffffffffffffffffffffffffffffffffffffff\n  and\n  0x6719d08c1888103bea251a4ed56406bd0c3e69723c8a1686e017e7bbe159b6f8\n  mload(0x40)\n  mload(0x40)\n  dup1\n  swap2\n  sub\n  swap1\n  log2\n    /* \"PauserRole.sol\":684:803  function _addPauser(address account) internal {... */\n  pop\n  jump\t// out\n    /* \"ERC20Mintable.sol\":426:554  function mint(address to, uint256 value) public onlyMinter returns (bool) {... */\ntag_23:\n    /* \"ERC20Mintable.sol\":494:498  bool */\n  0x00\n    /* \"MinterRole.sol\":349:369  isMinter(msg.sender) */\n  tag_31\n    /* \"MinterRole.sol\":358:368  msg.sender */\n  caller\n    /* \"MinterRole.sol\":349:357  isMinter */\n  shl(0x20, tag_32)\n    /* \"MinterRole.sol\":349:369  isMinter(msg.sender) */\n  0x20\n  shr\n  jump\t// in\ntag_31:\n    /* \"MinterRole.sol\":341:370  require(isMinter(msg.sender)) */\n  tag_33\n  jumpi\n  0x00\n  dup1\n  revert\ntag_33:\n    /* \"ERC20Mintable.sol\":510:526  _mint(to, value) */\n  tag_35\n    /* \"ERC20Mintable.sol\":516:518  to */\n  dup4\n    /* \"ERC20Mintable.sol\":520:525  value */\n  dup4\n    /* \"ERC20Mintable.sol\":510:515  _mint */\n  shl(0x20, tag_36)\n    /* \"ERC20Mintable.sol\":510:526  _mint(to, value) */\n  0x20\n  shr\n  jump\t// in\ntag_35:\n    /* \"ERC20Mintable.sol\":543:547  true */\n  0x01\n    /* \"ERC20Mintable.sol\":536:547  return true */\n  swap1\n  pop\n    /* \"ERC20Mintable.sol\":426:554  function mint(address to, uint256 value) public onlyMinter returns (bool) {... */\n  swap3\n  swap2\n  pop\n  pop\n  jump\t// out\n    /* \"Roles.sol\":259:440  function add(Role storage role, address account) internal {... */\ntag_27:\n    /* \"Roles.sol\":354:355  0 */\n  0x00\n    /* \"Roles.sol\":335:356  account != address(0) */\n  0xffffffffffffffffffffffffffffffffffffffff\n  and\n    /* \"Roles.sol\":335:342  account */\n  dup2\n    /* \"Roles.sol\":335:356  account != address(0) */\n  0xffffffffffffffffffffffffffffffffffffffff\n  and\n  eq\n  iszero\n    /* \"Roles.sol\":327:357  require(account != address(0)) */\n  tag_38\n  jumpi\n  0x00\n  dup1\n  revert\ntag_38:\n    /* \"Roles.sol\":376:394  has(role, account) */\n  tag_39\n    /* \"Roles.sol\":380:384  role */\n  dup3\n    /* \"Roles.sol\":386:393  account */\n  dup3\n    /* \"Roles.sol\":376:379  has */\n  shl(0x20, tag_40)\n    /* \"Roles.sol\":376:394  has(role, account) */\n  0x20\n  shr\n  jump\t// in\ntag_39:\n    /* \"Roles.sol\":375:394  !has(role, account) */\n  iszero\n    /* \"Roles.sol\":367:395  require(!has(role, account)) */\n  tag_41\n  jumpi\n  0x00\n  dup1\n  revert\ntag_41:\n    /* \"Roles.sol\":429:433  true */\n  0x01\n    /* \"Roles.sol\":406:410  role */\n  dup3\n    /* \"Roles.sol\":406:417  role.bearer */\n  0x00\n  add\n    /* \"Roles.sol\":406:426  role.bearer[account] */\n  0x00\n    /* \"Roles.sol\":418:425  account */\n  dup4\n    /* \"Roles.sol\":406:426  role.bearer[account] */\n  0xffffffffffffffffffffffffffffffffffffffff\n  and\n  0xffffffffffffffffffffffffffffffffffffffff\n  and\n  dup2\n  mstore\n  0x20\n  add\n  swap1\n  dup2\n  mstore\n  0x20\n  add\n  0x00\n  keccak256\n  0x00\n    /* \"Roles.sol\":406:433  role.bearer[account] = true */\n  0x0100\n  exp\n  dup2\n  sload\n  dup2\n  0xff\n  mul\n  not\n  and\n  swap1\n  dup4\n  iszero\n  iszero\n  mul\n  or\n  swap1\n  sstore\n  pop\n    /* \"Roles.sol\":259:440  function add(Role storage role, address account) internal {... */\n  pop\n  pop\n  jump\t// out\n    /* \"MinterRole.sol\":394:501  function isMinter(address account) public view returns (bool) {... */\ntag_32:\n    /* \"MinterRole.sol\":450:454  bool */\n  0x00\n    /* \"MinterRole.sol\":473:494  _minters.has(account) */\n  tag_43\n    /* \"MinterRole.sol\":486:493  account */\n  dup3\n    /* \"MinterRole.sol\":473:481  _minters */\n  0x06\n    /* \"MinterRole.sol\":473:485  _minters.has */\n  or(tag_0_174, shl(0x20, tag_40))\n  swap1\n    /* \"MinterRole.sol\":473:494  _minters.has(account) */\n  swap2\n  swap1\n  0x20\n  shr\n  jump\t// in\ntag_43:\n    /* \"MinterRole.sol\":466:494  return _minters.has(account) */\n  swap1\n  pop\n    /* \"MinterRole.sol\":394:501  function isMinter(address account) public view returns (bool) {... */\n  swap2\n  swap1\n  pop\n  jump\t// out\n    /* \"ERC20Capped.sol\":432:583  function _mint(address account, uint256 value) internal {... */\ntag_36:\n    /* \"ERC20Capped.sol\":534:538  _cap */\n  sload(0x07)\n    /* \"ERC20Capped.sol\":506:530  totalSupply().add(value) */\n  tag_45\n    /* \"ERC20Capped.sol\":524:529  value */\n  dup3\n    /* \"ERC20Capped.sol\":506:519  totalSupply() */\n  tag_46\n    /* \"ERC20Capped.sol\":506:517  totalSupply */\n  shl(0x20, tag_47)\n    /* \"ERC20Capped.sol\":506:519  totalSupply() */\n  0x20\n  shr\n  jump\t// in\ntag_46:\n    /* \"ERC20Capped.sol\":506:523  totalSupply().add */\n  or(tag_0_238, shl(0x20, tag_48))\n  swap1\n    /* \"ERC20Capped.sol\":506:530  totalSupply().add(value) */\n  swap2\n  swap1\n  0x20\n  shr\n  jump\t// in\ntag_45:\n    /* \"ERC20Capped.sol\":506:538  totalSupply().add(value) <= _cap */\n  gt\n  iszero\n    /* \"ERC20Capped.sol\":498:539  require(totalSupply().add(value) <= _cap) */\n  tag_49\n  jumpi\n  0x00\n  dup1\n  revert\ntag_49:\n    /* \"ERC20Capped.sol\":549:576  super._mint(account, value) */\n  tag_50\n    /* \"ERC20Capped.sol\":561:568  account */\n  dup3\n    /* \"ERC20Capped.sol\":570:575  value */\n  dup3\n    /* \"ERC20Capped.sol\":549:560  super._mint */\n  or(tag_0_244, shl(0x20, tag_51))\n    /* \"ERC20Capped.sol\":549:576  super._mint(account, value) */\n  0x20\n  shr\n  jump\t// in\ntag_50:\n    /* \"ERC20Capped.sol\":432:583  function _mint(address account, uint256 value) internal {... */\n  pop\n  pop\n  jump\t// out\n    /* \"Roles.sol\":786:948  function has(Role storage role, address account) internal view returns (bool) {... */\ntag_40:\n    /* \"Roles.sol\":858:862  bool */\n  0x00\n    /* \"Roles.sol\":901:902  0 */\n  dup1\n    /* \"Roles.sol\":882:903  account != address(0) */\n  0xffffffffffffffffffffffffffffffffffffffff\n  and\n    /* \"Roles.sol\":882:889  account */\n  dup3\n    /* \"Roles.sol\":882:903  account != address(0) */\n  0xffffffffffffffffffffffffffffffffffffffff\n  and\n  eq\n  iszero\n    /* \"Roles.sol\":874:904  require(account != address(0)) */\n  tag_53\n  jumpi\n  0x00\n  dup1\n  revert\ntag_53:\n    /* \"Roles.sol\":921:925  role */\n  dup3\n    /* \"Roles.sol\":921:932  role.bearer */\n  0x00\n  add\n    /* \"Roles.sol\":921:941  role.bearer[account] */\n  0x00\n    /* \"Roles.sol\":933:940  account */\n  dup4\n    /* \"Roles.sol\":921:941  role.bearer[account] */\n  0xffffffffffffffffffffffffffffffffffffffff\n  and\n  0xffffffffffffffffffffffffffffffffffffffff\n  and\n  dup2\n  mstore\n  0x20\n  add\n  swap1\n  dup2\n  mstore\n  0x20\n  add\n  0x00\n  keccak256\n  0x00\n  swap1\n  sload\n  swap1\n  0x0100\n  exp\n  swap1\n  div\n  0xff\n  and\n    /* \"Roles.sol\":914:941  return role.bearer[account] */\n  swap1\n  pop\n    /* \"Roles.sol\":786:948  function has(Role storage role, address account) internal view returns (bool) {... */\n  swap3\n  swap2\n  pop\n  pop\n  jump\t// out\n    /* \"ERC20.sol\":907:996  function totalSupply() public view returns (uint256) {... */\ntag_47:\n    /* \"ERC20.sol\":951:958  uint256 */\n  0x00\n    /* \"ERC20.sol\":977:989  _totalSupply */\n  sload(0x05)\n    /* \"ERC20.sol\":970:989  return _totalSupply */\n  swap1\n  pop\n    /* \"ERC20.sol\":907:996  function totalSupply() public view returns (uint256) {... */\n  swap1\n  jump\t// out\n    /* \"SafeMath.sol\":1439:1584  function add(uint256 a, uint256 b) internal pure returns (uint256) {... */\ntag_48:\n    /* \"SafeMath.sol\":1497:1504  uint256 */\n  0x00\n    /* \"SafeMath.sol\":1516:1525  uint256 c */\n  dup1\n    /* \"SafeMath.sol\":1532:1533  b */\n  dup3\n    /* \"SafeMath.sol\":1528:1529  a */\n  dup5\n    /* \"SafeMath.sol\":1528:1533  a + b */\n  add\n    /* \"SafeMath.sol\":1516:1533  uint256 c = a + b */\n  swap1\n  pop\n    /* \"SafeMath.sol\":1556:1557  a */\n  dup4\n    /* \"SafeMath.sol\":1551:1552  c */\n  dup2\n    /* \"SafeMath.sol\":1551:1557  c >= a */\n  lt\n  iszero\n    /* \"SafeMath.sol\":1543:1558  require(c >= a) */\n  tag_56\n  jumpi\n  0x00\n  dup1\n  revert\ntag_56:\n    /* \"SafeMath.sol\":1576:1577  c */\n  dup1\n    /* \"SafeMath.sol\":1569:1577  return c */\n  swap2\n  pop\n  pop\n    /* \"SafeMath.sol\":1439:1584  function add(uint256 a, uint256 b) internal pure returns (uint256) {... */\n  swap3\n  swap2\n  pop\n  pop\n  jump\t// out\n    /* \"ERC20.sol\":5805:6068  function _mint(address account, uint256 value) internal {... */\ntag_51:\n    /* \"ERC20.sol\":5898:5899  0 */\n  0x00\n    /* \"ERC20.sol\":5879:5900  account != address(0) */\n  0xffffffffffffffffffffffffffffffffffffffff\n  and\n    /* \"ERC20.sol\":5879:5886  account */\n  dup3\n    /* \"ERC20.sol\":5879:5900  account != address(0) */\n  0xffffffffffffffffffffffffffffffffffffffff\n  and\n  eq\n  iszero\n    /* \"ERC20.sol\":5871:5901  require(account != address(0)) */\n  tag_58\n  jumpi\n  0x00\n  dup1\n  revert\ntag_58:\n    /* \"ERC20.sol\":5927:5950  _totalSupply.add(value) */\n  tag_59\n    /* \"ERC20.sol\":5944:5949  value */\n  dup2\n    /* \"ERC20.sol\":5927:5939  _totalSupply */\n  sload(0x05)\n    /* \"ERC20.sol\":5927:5943  _totalSupply.add */\n  or(tag_0_238, shl(0x20, tag_48))\n  swap1\n    /* \"ERC20.sol\":5927:5950  _totalSupply.add(value) */\n  swap2\n  swap1\n  0x20\n  shr\n  jump\t// in\ntag_59:\n    /* \"ERC20.sol\":5912:5924  _totalSupply */\n  0x05\n    /* \"ERC20.sol\":5912:5950  _totalSupply = _totalSupply.add(value) */\n  dup2\n  swap1\n  sstore\n  pop\n    /* \"ERC20.sol\":5981:6010  _balances[account].add(value) */\n  tag_60\n    /* \"ERC20.sol\":6004:6009  value */\n  dup2\n    /* \"ERC20.sol\":5981:5990  _balances */\n  0x03\n    /* \"ERC20.sol\":5981:5999  _balances[account] */\n  0x00\n    /* \"ERC20.sol\":5991:5998  account */\n  dup6\n    /* \"ERC20.sol\":5981:5999  _balances[account] */\n  0xffffffffffffffffffffffffffffffffffffffff\n  and\n  0xffffffffffffffffffffffffffffffffffffffff\n  and\n  dup2\n  mstore\n  0x20\n  add\n  swap1\n  dup2\n  mstore\n  0x20\n  add\n  0x00\n  keccak256\n  sload\n    /* \"ERC20.sol\":5981:6003  _balances[account].add */\n  or(tag_0_238, shl(0x20, tag_48))\n  swap1\n    /* \"ERC20.sol\":5981:6010  _balances[account].add(value) */\n  swap2\n  swap1\n  0x20\n  shr\n  jump\t// in\ntag_60:\n    /* \"ERC20.sol\":5960:5969  _balances */\n  0x03\n    /* \"ERC20.sol\":5960:5978  _balances[account] */\n  0x00\n    /* \"ERC20.sol\":5970:5977  account */\n  dup5\n    /* \"ERC20.sol\":5960:5978  _balances[account] */\n  0xffffffffffffffffffffffffffffffffffffffff\n  and\n  0xffffffffffffffffffffffffffffffffffffffff\n  and\n  dup2\n  mstore\n  0x20\n  add\n  swap1\n  dup2\n  mstore\n  0x20\n  add\n  0x00\n  keccak256\n    /* \"ERC20.sol\":5960:6010  _balances[account] = _balances[account].add(value) */\n  dup2\n  swap1\n  sstore\n  pop\n    /* \"ERC20.sol\":6046:6053  account */\n  dup2\n    /* \"ERC20.sol\":6025:6061  Transfer(address(0), account, value) */\n  0xffffffffffffffffffffffffffffffffffffffff\n  and\n    /* \"ERC20.sol\":6042:6043  0 */\n  0x00\n    /* \"ERC20.sol\":6025:6061  Transfer(address(0), account, value) */\n  0xffffffffffffffffffffffffffffffffffffffff\n  and\n  0xddf252ad1be2c89b69c2b068fc378daa952ba7f163c4a11628f55a4df523b3ef\n    /* \"ERC20.sol\":6055:6060  value */\n  dup4\n    /* \"ERC20.sol\":6025:6061  Transfer(address(0), account, value) */\n  mload(0x40)\n  dup1\n  dup3\n  dup2\n  mstore\n  0x20\n  add\n  swap2\n  pop\n  pop\n  mload(0x40)\n  dup1\n  swap2\n  sub\n  swap1\n  log3\n    /* \"ERC20.sol\":5805:6068  function _mint(address account, uint256 value) internal {... */\n  pop\n  pop\n  jump\t// out\n    /* \"Eraswap.sol\":146:1620  contract Eraswap is ERC20Detailed,ERC20Burnable,ERC20Capped,ERC20Pausable {... */\ntag_10:\n  dup3\n  dup1\n  sload\n  0x01\n  dup2\n  0x01\n  and\n  iszero\n  0x0100\n  mul\n  sub\n  and\n  0x02\n  swap1\n  div\n  swap1\n  0x00\n  mstore\n  keccak256(0x00, 0x20)\n  swap1\n  0x1f\n  add\n  0x20\n  swap1\n  div\n  dup2\n  add\n  swap3\n  dup3\n  0x1f\n  lt\n  tag_62\n  jumpi\n  dup1\n  mload\n  not(0xff)\n  and\n  dup4\n  dup1\n  add\n  or\n  dup6\n  sstore\n  jump(tag_61)\ntag_62:\n  dup3\n  dup1\n  add\n  0x01\n  add\n  dup6\n  sstore\n  dup3\n  iszero\n  tag_61\n  jumpi\n  swap2\n  dup3\n  add\ntag_63:\n  dup3\n  dup2\n  gt\n  iszero\n  tag_64\n  jumpi\n  dup3\n  mload\n  dup3\n  sstore\n  swap2\n  0x20\n  add\n  swap2\n  swap1\n  0x01\n  add\n  swap1\n  jump(tag_63)\ntag_64:\ntag_61:\n  pop\n  swap1\n  pop\n  tag_65\n  swap2\n  swap1\n  tag_66\n  jump\t// in\ntag_65:\n  pop\n  swap1\n  jump\t// out\ntag_66:\n  tag_67\n  swap2\n  swap1\ntag_68:\n  dup1\n  dup3\n  gt\n  iszero\n  tag_69\n  jumpi\n  0x00\n  dup2\n  0x00\n  swap1\n  sstore\n  pop\n  0x01\n  add\n  jump(tag_68)\ntag_69:\n  pop\n  swap1\n  jump\ntag_67:\n  swap1\n  jump\t// out\ntag_24:\n  dataSize(sub_0)\n  dup1\n  dataOffset(sub_0)\n  0x00\n  codecopy\n  0x00\n  return\nstop\n\nsub_0: assembly {\n        /* \"Eraswap.sol\":146:1620  contract Eraswap is ERC20Detailed,ERC20Burnable,ERC20Capped,ERC20Pausable {... */\n      mstore(0x40, 0x80)\n      callvalue\n        /* \"--CODEGEN--\":8:17   */\n      dup1\n        /* \"--CODEGEN--\":5:7   */\n      iszero\n      tag_1\n      jumpi\n        /* \"--CODEGEN--\":30:31   */\n      0x00\n        /* \"--CODEGEN--\":27:28   */\n      dup1\n        /* \"--CODEGEN--\":20:32   */\n      revert\n        /* \"--CODEGEN--\":5:7   */\n    tag_1:\n        /* \"Eraswap.sol\":146:1620  contract Eraswap is ERC20Detailed,ERC20Burnable,ERC20Capped,ERC20Pausable {... */\n      pop\n      jumpi(tag_2, lt(calldatasize, 0x04))\n      shr(0xe0, calldataload(0x00))\n      dup1\n      0x6ef8d66d\n      gt\n      tag_33\n      jumpi\n      dup1\n      0x98650275\n      gt\n      tag_34\n      jumpi\n      dup1\n      0xb015fbb2\n      gt\n      tag_35\n      jumpi\n      dup1\n      0xb015fbb2\n      eq\n      tag_29\n      jumpi\n      dup1\n      0xb81f90f3\n      eq\n      tag_30\n      jumpi\n      dup1\n      0xdd62ed3e\n      eq\n      tag_31\n      jumpi\n      dup1\n      0xe91c3c10\n      eq\n      tag_32\n      jumpi\n      jump(tag_2)\n    tag_35:\n      dup1\n      0x98650275\n      eq\n      tag_25\n      jumpi\n      dup1\n      0xa457c2d7\n      eq\n      tag_26\n      jumpi\n      dup1\n      0xa9059cbb\n      eq\n      tag_27\n      jumpi\n      dup1\n      0xaa271e1a\n      eq\n      tag_28\n      jumpi\n      jump(tag_2)\n    tag_34:\n      dup1\n      0x82dc1ec4\n      gt\n      tag_36\n      jumpi\n      dup1\n      0x82dc1ec4\n      eq\n      tag_21\n      jumpi\n      dup1\n      0x8456cb59\n      eq\n      tag_22\n      jumpi\n      dup1\n      0x95d89b41\n      eq\n      tag_23\n      jumpi\n      dup1\n      0x983b2d56\n      eq\n      tag_24\n      jumpi\n      jump(tag_2)\n    tag_36:\n      dup1\n      0x6ef8d66d\n      eq\n      tag_18\n      jumpi\n      dup1\n      0x70a08231\n      eq\n      tag_19\n      jumpi\n      dup1\n      0x79cc6790\n      eq\n      tag_20\n      jumpi\n      jump(tag_2)\n    tag_33:\n      dup1\n      0x39509351\n      gt\n      tag_37\n      jumpi\n      dup1\n      0x42966c68\n      gt\n      tag_38\n      jumpi\n      dup1\n      0x42966c68\n      eq\n      tag_14\n      jumpi\n      dup1\n      0x46fbf68e\n      eq\n      tag_15\n      jumpi\n      dup1\n      0x5c975abb\n      eq\n      tag_16\n      jumpi\n      dup1\n      0x6316467e\n      eq\n      tag_17\n      jumpi\n      jump(tag_2)\n    tag_38:\n      dup1\n      0x39509351\n      eq\n      tag_10\n      jumpi\n      dup1\n      0x3f4ba83a\n      eq\n      tag_11\n      jumpi\n      dup1\n      0x40c10f19\n      eq\n      tag_12\n      jumpi\n      dup1\n      0x415f4c1b\n      eq\n      tag_13\n      jumpi\n      jump(tag_2)\n    tag_37:\n      dup1\n      0x23b872dd\n      gt\n      tag_39\n      jumpi\n      dup1\n      0x23b872dd\n      eq\n      tag_6\n      jumpi\n      dup1\n      0x313ce567\n      eq\n      tag_7\n      jumpi\n      dup1\n      0x355274ea\n      eq\n      tag_8\n      jumpi\n      dup1\n      0x382b5e45\n      eq\n      tag_9\n      jumpi\n      jump(tag_2)\n    tag_39:\n      dup1\n      0x06fdde03\n      eq\n      tag_3\n      jumpi\n      dup1\n      0x095ea7b3\n      eq\n      tag_4\n      jumpi\n      dup1\n      0x18160ddd\n      eq\n      tag_5\n      jumpi\n    tag_2:\n      0x00\n      dup1\n      revert\n        /* \"ERC20Detailed.sol\":628:709  function name() public view returns (string memory) {... */\n    tag_3:\n      tag_40\n      tag_41\n      jump\t// in\n    tag_40:\n      mload(0x40)\n      dup1\n      dup1\n      0x20\n      add\n      dup3\n      dup2\n      sub\n      dup3\n      mstore\n      dup4\n      dup2\n      dup2\n      mload\n      dup2\n      mstore\n      0x20\n      add\n      swap2\n      pop\n      dup1\n      mload\n      swap1\n      0x20\n      add\n      swap1\n      dup1\n      dup4\n      dup4\n        /* \"--CODEGEN--\":23:24   */\n      0x00\n        /* \"--CODEGEN--\":8:108   */\n    tag_42:\n        /* \"--CODEGEN--\":33:36   */\n      dup4\n        /* \"--CODEGEN--\":30:31   */\n      dup2\n        /* \"--CODEGEN--\":27:37   */\n      lt\n        /* \"--CODEGEN--\":8:108   */\n      iszero\n      tag_44\n      jumpi\n        /* \"--CODEGEN--\":99:100   */\n      dup1\n        /* \"--CODEGEN--\":94:97   */\n      dup3\n        /* \"--CODEGEN--\":90:101   */\n      add\n        /* \"--CODEGEN--\":84:102   */\n      mload\n        /* \"--CODEGEN--\":80:81   */\n      dup2\n        /* \"--CODEGEN--\":75:78   */\n      dup5\n        /* \"--CODEGEN--\":71:82   */\n      add\n        /* \"--CODEGEN--\":64:103   */\n      mstore\n        /* \"--CODEGEN--\":52:54   */\n      0x20\n        /* \"--CODEGEN--\":49:50   */\n      dup2\n        /* \"--CODEGEN--\":45:55   */\n      add\n        /* \"--CODEGEN--\":40:55   */\n      swap1\n      pop\n        /* \"--CODEGEN--\":8:108   */\n      jump(tag_42)\n    tag_44:\n        /* \"--CODEGEN--\":12:26   */\n      pop\n        /* \"ERC20Detailed.sol\":628:709  function name() public view returns (string memory) {... */\n      pop\n      pop\n      pop\n      swap1\n      pop\n      swap1\n      dup2\n      add\n      swap1\n      0x1f\n      and\n      dup1\n      iszero\n      tag_45\n      jumpi\n      dup1\n      dup3\n      sub\n      dup1\n      mload\n      0x01\n      dup4\n      0x20\n      sub\n      0x0100\n      exp\n      sub\n      not\n      and\n      dup2\n      mstore\n      0x20\n      add\n      swap2\n      pop\n    tag_45:\n      pop\n      swap3\n      pop\n      pop\n      pop\n      mload(0x40)\n      dup1\n      swap2\n      sub\n      swap1\n      return\n        /* \"ERC20Pausable.sol\":502:640  function approve(address spender, uint256 value) public whenNotPaused returns (bool) {... */\n    tag_4:\n      tag_46\n      0x04\n      dup1\n      calldatasize\n      sub\n        /* \"--CODEGEN--\":13:15   */\n      0x40\n        /* \"--CODEGEN--\":8:11   */\n      dup2\n        /* \"--CODEGEN--\":5:16   */\n      lt\n        /* \"--CODEGEN--\":2:4   */\n      iszero\n      tag_47\n      jumpi\n        /* \"--CODEGEN--\":29:30   */\n      0x00\n        /* \"--CODEGEN--\":26:27   */\n      dup1\n        /* \"--CODEGEN--\":19:31   */\n      revert\n        /* \"--CODEGEN--\":2:4   */\n    tag_47:\n        /* \"ERC20Pausable.sol\":502:640  function approve(address spender, uint256 value) public whenNotPaused returns (bool) {... */\n      dup2\n      add\n      swap1\n      dup1\n      dup1\n      calldataload\n      0xffffffffffffffffffffffffffffffffffffffff\n      and\n      swap1\n      0x20\n      add\n      swap1\n      swap3\n      swap2\n      swap1\n      dup1\n      calldataload\n      swap1\n      0x20\n      add\n      swap1\n      swap3\n      swap2\n      swap1\n      pop\n      pop\n      pop\n      tag_48\n      jump\t// in\n    tag_46:\n      mload(0x40)\n      dup1\n      dup3\n      iszero\n      iszero\n      iszero\n      iszero\n      dup2\n      mstore\n      0x20\n      add\n      swap2\n      pop\n      pop\n      mload(0x40)\n      dup1\n      swap2\n      sub\n      swap1\n      return\n        /* \"ERC20.sol\":907:996  function totalSupply() public view returns (uint256) {... */\n    tag_5:\n      tag_49\n      tag_50\n      jump\t// in\n    tag_49:\n      mload(0x40)\n      dup1\n      dup3\n      dup2\n      mstore\n      0x20\n      add\n      swap2\n      pop\n      pop\n      mload(0x40)\n      dup1\n      swap2\n      sub\n      swap1\n      return\n        /* \"ERC20Pausable.sol\":338:496  function transferFrom(address from, address to, uint256 value) public whenNotPaused returns (bool) {... */\n    tag_6:\n      tag_51\n      0x04\n      dup1\n      calldatasize\n      sub\n        /* \"--CODEGEN--\":13:15   */\n      0x60\n        /* \"--CODEGEN--\":8:11   */\n      dup2\n        /* \"--CODEGEN--\":5:16   */\n      lt\n        /* \"--CODEGEN--\":2:4   */\n      iszero\n      tag_52\n      jumpi\n        /* \"--CODEGEN--\":29:30   */\n      0x00\n        /* \"--CODEGEN--\":26:27   */\n      dup1\n        /* \"--CODEGEN--\":19:31   */\n      revert\n        /* \"--CODEGEN--\":2:4   */\n    tag_52:\n        /* \"ERC20Pausable.sol\":338:496  function transferFrom(address from, address to, uint256 value) public whenNotPaused returns (bool) {... */\n      dup2\n      add\n      swap1\n      dup1\n      dup1\n      calldataload\n      0xffffffffffffffffffffffffffffffffffffffff\n      and\n      swap1\n      0x20\n      add\n      swap1\n      swap3\n      swap2\n      swap1\n      dup1\n      calldataload\n      0xffffffffffffffffffffffffffffffffffffffff\n      and\n      swap1\n      0x20\n      add\n      swap1\n      swap3\n      swap2\n      swap1\n      dup1\n      calldataload\n      swap1\n      0x20\n      add\n      swap1\n      swap3\n      swap2\n      swap1\n      pop\n      pop\n      pop\n      tag_53\n      jump\t// in\n    tag_51:\n      mload(0x40)\n      dup1\n      dup3\n      iszero\n      iszero\n      iszero\n      iszero\n      dup2\n      mstore\n      0x20\n      add\n      swap2\n      pop\n      pop\n      mload(0x40)\n      dup1\n      swap2\n      sub\n      swap1\n      return\n        /* \"ERC20Detailed.sol\":930:1011  function decimals() public view returns (uint8) {... */\n    tag_7:\n      tag_54\n      tag_55\n      jump\t// in\n    tag_54:\n      mload(0x40)\n      dup1\n      dup3\n      0xff\n      and\n      0xff\n      and\n      dup2\n      mstore\n      0x20\n      add\n      swap2\n      pop\n      pop\n      mload(0x40)\n      dup1\n      swap2\n      sub\n      swap1\n      return\n        /* \"ERC20Capped.sol\":353:426  function cap() public view returns (uint256) {... */\n    tag_8:\n      tag_56\n      tag_57\n      jump\t// in\n    tag_56:\n      mload(0x40)\n      dup1\n      dup3\n      dup2\n      mstore\n      0x20\n      add\n      swap2\n      pop\n      pop\n      mload(0x40)\n      dup1\n      swap2\n      sub\n      swap1\n      return\n        /* \"Eraswap.sol\":1355:1617  function AddNRTManager(address NRTManager) public onlyMinter returns (bool) {... */\n    tag_9:\n      tag_58\n      0x04\n      dup1\n      calldatasize\n      sub\n        /* \"--CODEGEN--\":13:15   */\n      0x20\n        /* \"--CODEGEN--\":8:11   */\n      dup2\n        /* \"--CODEGEN--\":5:16   */\n      lt\n        /* \"--CODEGEN--\":2:4   */\n      iszero\n      tag_59\n      jumpi\n        /* \"--CODEGEN--\":29:30   */\n      0x00\n        /* \"--CODEGEN--\":26:27   */\n      dup1\n        /* \"--CODEGEN--\":19:31   */\n      revert\n        /* \"--CODEGEN--\":2:4   */\n    tag_59:\n        /* \"Eraswap.sol\":1355:1617  function AddNRTManager(address NRTManager) public onlyMinter returns (bool) {... */\n      dup2\n      add\n      swap1\n      dup1\n      dup1\n      calldataload\n      0xffffffffffffffffffffffffffffffffffffffff\n      and\n      swap1\n      0x20\n      add\n      swap1\n      swap3\n      swap2\n      swap1\n      pop\n      pop\n      pop\n      tag_60\n      jump\t// in\n    tag_58:\n      mload(0x40)\n      dup1\n      dup3\n      iszero\n      iszero\n      iszero\n      iszero\n      dup2\n      mstore\n      0x20\n      add\n      swap2\n      pop\n      pop\n      mload(0x40)\n      dup1\n      swap2\n      sub\n      swap1\n      return\n        /* \"ERC20Pausable.sol\":646:819  function increaseAllowance(address spender, uint addedValue) public whenNotPaused returns (bool success) {... */\n    tag_10:\n      tag_61\n      0x04\n      dup1\n      calldatasize\n      sub\n        /* \"--CODEGEN--\":13:15   */\n      0x40\n        /* \"--CODEGEN--\":8:11   */\n      dup2\n        /* \"--CODEGEN--\":5:16   */\n      lt\n        /* \"--CODEGEN--\":2:4   */\n      iszero\n      tag_62\n      jumpi\n        /* \"--CODEGEN--\":29:30   */\n      0x00\n        /* \"--CODEGEN--\":26:27   */\n      dup1\n        /* \"--CODEGEN--\":19:31   */\n      revert\n        /* \"--CODEGEN--\":2:4   */\n    tag_62:\n        /* \"ERC20Pausable.sol\":646:819  function increaseAllowance(address spender, uint addedValue) public whenNotPaused returns (bool success) {... */\n      dup2\n      add\n      swap1\n      dup1\n      dup1\n      calldataload\n      0xffffffffffffffffffffffffffffffffffffffff\n      and\n      swap1\n      0x20\n      add\n      swap1\n      swap3\n      swap2\n      swap1\n      dup1\n      calldataload\n      swap1\n      0x20\n      add\n      swap1\n      swap3\n      swap2\n      swap1\n      pop\n      pop\n      pop\n      tag_63\n      jump\t// in\n    tag_61:\n      mload(0x40)\n      dup1\n      dup3\n      iszero\n      iszero\n      iszero\n      iszero\n      dup2\n      mstore\n      0x20\n      add\n      swap2\n      pop\n      pop\n      mload(0x40)\n      dup1\n      swap2\n      sub\n      swap1\n      return\n        /* \"Pausable.sol\":1162:1277  function unpause() public onlyPauser whenPaused {... */\n    tag_11:\n      tag_64\n      tag_65\n      jump\t// in\n    tag_64:\n      stop\n        /* \"ERC20Mintable.sol\":426:554  function mint(address to, uint256 value) public onlyMinter returns (bool) {... */\n    tag_12:\n      tag_66\n      0x04\n      dup1\n      calldatasize\n      sub\n        /* \"--CODEGEN--\":13:15   */\n      0x40\n        /* \"--CODEGEN--\":8:11   */\n      dup2\n        /* \"--CODEGEN--\":5:16   */\n      lt\n        /* \"--CODEGEN--\":2:4   */\n      iszero\n      tag_67\n      jumpi\n        /* \"--CODEGEN--\":29:30   */\n      0x00\n        /* \"--CODEGEN--\":26:27   */\n      dup1\n        /* \"--CODEGEN--\":19:31   */\n      revert\n        /* \"--CODEGEN--\":2:4   */\n    tag_67:\n        /* \"ERC20Mintable.sol\":426:554  function mint(address to, uint256 value) public onlyMinter returns (bool) {... */\n      dup2\n      add\n      swap1\n      dup1\n      dup1\n      calldataload\n      0xffffffffffffffffffffffffffffffffffffffff\n      and\n      swap1\n      0x20\n      add\n      swap1\n      swap3\n      swap2\n      swap1\n      dup1\n      calldataload\n      swap1\n      0x20\n      add\n      swap1\n      swap3\n      swap2\n      swap1\n      pop\n      pop\n      pop\n      tag_68\n      jump\t// in\n    tag_66:\n      mload(0x40)\n      dup1\n      dup3\n      iszero\n      iszero\n      iszero\n      iszero\n      dup2\n      mstore\n      0x20\n      add\n      swap2\n      pop\n      pop\n      mload(0x40)\n      dup1\n      swap2\n      sub\n      swap1\n      return\n        /* \"Eraswap.sol\":1026:1122  function goToPast(uint256 _seconds) public {... */\n    tag_13:\n      tag_69\n      0x04\n      dup1\n      calldatasize\n      sub\n        /* \"--CODEGEN--\":13:15   */\n      0x20\n        /* \"--CODEGEN--\":8:11   */\n      dup2\n        /* \"--CODEGEN--\":5:16   */\n      lt\n        /* \"--CODEGEN--\":2:4   */\n      iszero\n      tag_70\n      jumpi\n        /* \"--CODEGEN--\":29:30   */\n      0x00\n        /* \"--CODEGEN--\":26:27   */\n      dup1\n        /* \"--CODEGEN--\":19:31   */\n      revert\n        /* \"--CODEGEN--\":2:4   */\n    tag_70:\n        /* \"Eraswap.sol\":1026:1122  function goToPast(uint256 _seconds) public {... */\n      dup2\n      add\n      swap1\n      dup1\n      dup1\n      calldataload\n      swap1\n      0x20\n      add\n      swap1\n      swap3\n      swap2\n      swap1\n      pop\n      pop\n      pop\n      tag_71\n      jump\t// in\n    tag_69:\n      stop\n        /* \"ERC20Burnable.sol\":295:372  function burn(uint256 value) public {... */\n    tag_14:\n      tag_72\n      0x04\n      dup1\n      calldatasize\n      sub\n        /* \"--CODEGEN--\":13:15   */\n      0x20\n        /* \"--CODEGEN--\":8:11   */\n      dup2\n        /* \"--CODEGEN--\":5:16   */\n      lt\n        /* \"--CODEGEN--\":2:4   */\n      iszero\n      tag_73\n      jumpi\n        /* \"--CODEGEN--\":29:30   */\n      0x00\n        /* \"--CODEGEN--\":26:27   */\n      dup1\n        /* \"--CODEGEN--\":19:31   */\n      revert\n        /* \"--CODEGEN--\":2:4   */\n    tag_73:\n        /* \"ERC20Burnable.sol\":295:372  function burn(uint256 value) public {... */\n      dup2\n      add\n      swap1\n      dup1\n      dup1\n      calldataload\n      swap1\n      0x20\n      add\n      swap1\n      swap3\n      swap2\n      swap1\n      pop\n      pop\n      pop\n      tag_74\n      jump\t// in\n    tag_72:\n      stop\n        /* \"PauserRole.sol\":394:501  function isPauser(address account) public view returns (bool) {... */\n    tag_15:\n      tag_75\n      0x04\n      dup1\n      calldatasize\n      sub\n        /* \"--CODEGEN--\":13:15   */\n      0x20\n        /* \"--CODEGEN--\":8:11   */\n      dup2\n        /* \"--CODEGEN--\":5:16   */\n      lt\n        /* \"--CODEGEN--\":2:4   */\n      iszero\n      tag_76\n      jumpi\n        /* \"--CODEGEN--\":29:30   */\n      0x00\n        /* \"--CODEGEN--\":26:27   */\n      dup1\n        /* \"--CODEGEN--\":19:31   */\n      revert\n        /* \"--CODEGEN--\":2:4   */\n    tag_76:\n        /* \"PauserRole.sol\":394:501  function isPauser(address account) public view returns (bool) {... */\n      dup2\n      add\n      swap1\n      dup1\n      dup1\n      calldataload\n      0xffffffffffffffffffffffffffffffffffffffff\n      and\n      swap1\n      0x20\n      add\n      swap1\n      swap3\n      swap2\n      swap1\n      pop\n      pop\n      pop\n      tag_77\n      jump\t// in\n    tag_75:\n      mload(0x40)\n      dup1\n      dup3\n      iszero\n      iszero\n      iszero\n      iszero\n      dup2\n      mstore\n      0x20\n      add\n      swap2\n      pop\n      pop\n      mload(0x40)\n      dup1\n      swap2\n      sub\n      swap1\n      return\n        /* \"Pausable.sol\":446:522  function paused() public view returns (bool) {... */\n    tag_16:\n      tag_78\n      tag_79\n      jump\t// in\n    tag_78:\n      mload(0x40)\n      dup1\n      dup3\n      iszero\n      iszero\n      iszero\n      iszero\n      dup2\n      mstore\n      0x20\n      add\n      swap2\n      pop\n      pop\n      mload(0x40)\n      dup1\n      swap2\n      sub\n      swap1\n      return\n        /* \"Eraswap.sol\":922:1020  function goToFuture(uint256 _seconds) public {... */\n    tag_17:\n      tag_80\n      0x04\n      dup1\n      calldatasize\n      sub\n        /* \"--CODEGEN--\":13:15   */\n      0x20\n        /* \"--CODEGEN--\":8:11   */\n      dup2\n        /* \"--CODEGEN--\":5:16   */\n      lt\n        /* \"--CODEGEN--\":2:4   */\n      iszero\n      tag_81\n      jumpi\n        /* \"--CODEGEN--\":29:30   */\n      0x00\n        /* \"--CODEGEN--\":26:27   */\n      dup1\n        /* \"--CODEGEN--\":19:31   */\n      revert\n        /* \"--CODEGEN--\":2:4   */\n    tag_81:\n        /* \"Eraswap.sol\":922:1020  function goToFuture(uint256 _seconds) public {... */\n      dup2\n      add\n      swap1\n      dup1\n      dup1\n      calldataload\n      swap1\n      0x20\n      add\n      swap1\n      swap3\n      swap2\n      swap1\n      pop\n      pop\n      pop\n      tag_82\n      jump\t// in\n    tag_80:\n      stop\n        /* \"PauserRole.sol\":603:678  function renouncePauser() public {... */\n    tag_18:\n      tag_83\n      tag_84\n      jump\t// in\n    tag_83:\n      stop\n        /* \"ERC20.sol\":1208:1312  function balanceOf(address owner) public view returns (uint256) {... */\n    tag_19:\n      tag_85\n      0x04\n      dup1\n      calldatasize\n      sub\n        /* \"--CODEGEN--\":13:15   */\n      0x20\n        /* \"--CODEGEN--\":8:11   */\n      dup2\n        /* \"--CODEGEN--\":5:16   */\n      lt\n        /* \"--CODEGEN--\":2:4   */\n      iszero\n      tag_86\n      jumpi\n        /* \"--CODEGEN--\":29:30   */\n      0x00\n        /* \"--CODEGEN--\":26:27   */\n      dup1\n        /* \"--CODEGEN--\":19:31   */\n      revert\n        /* \"--CODEGEN--\":2:4   */\n    tag_86:\n        /* \"ERC20.sol\":1208:1312  function balanceOf(address owner) public view returns (uint256) {... */\n      dup2\n      add\n      swap1\n      dup1\n      dup1\n      calldataload\n      0xffffffffffffffffffffffffffffffffffffffff\n      and\n      swap1\n      0x20\n      add\n      swap1\n      swap3\n      swap2\n      swap1\n      pop\n      pop\n      pop\n      tag_87\n      jump\t// in\n    tag_85:\n      mload(0x40)\n      dup1\n      dup3\n      dup2\n      mstore\n      0x20\n      add\n      swap2\n      pop\n      pop\n      mload(0x40)\n      dup1\n      swap2\n      sub\n      swap1\n      return\n        /* \"ERC20Burnable.sol\":619:712  function burnFrom(address from, uint256 value) public {... */\n    tag_20:\n      tag_88\n      0x04\n      dup1\n      calldatasize\n      sub\n        /* \"--CODEGEN--\":13:15   */\n      0x40\n        /* \"--CODEGEN--\":8:11   */\n      dup2\n        /* \"--CODEGEN--\":5:16   */\n      lt\n        /* \"--CODEGEN--\":2:4   */\n      iszero\n      tag_89\n      jumpi\n        /* \"--CODEGEN--\":29:30   */\n      0x00\n        /* \"--CODEGEN--\":26:27   */\n      dup1\n        /* \"--CODEGEN--\":19:31   */\n      revert\n        /* \"--CODEGEN--\":2:4   */\n    tag_89:\n        /* \"ERC20Burnable.sol\":619:712  function burnFrom(address from, uint256 value) public {... */\n      dup2\n      add\n      swap1\n      dup1\n      dup1\n      calldataload\n      0xffffffffffffffffffffffffffffffffffffffff\n      and\n      swap1\n      0x20\n      add\n      swap1\n      swap3\n      swap2\n      swap1\n      dup1\n      calldataload\n      swap1\n      0x20\n      add\n      swap1\n      swap3\n      swap2\n      swap1\n      pop\n      pop\n      pop\n      tag_90\n      jump\t// in\n    tag_88:\n      stop\n        /* \"PauserRole.sol\":507:597  function addPauser(address account) public onlyPauser {... */\n    tag_21:\n      tag_91\n      0x04\n      dup1\n      calldatasize\n      sub\n        /* \"--CODEGEN--\":13:15   */\n      0x20\n        /* \"--CODEGEN--\":8:11   */\n      dup2\n        /* \"--CODEGEN--\":5:16   */\n      lt\n        /* \"--CODEGEN--\":2:4   */\n      iszero\n      tag_92\n      jumpi\n        /* \"--CODEGEN--\":29:30   */\n      0x00\n        /* \"--CODEGEN--\":26:27   */\n      dup1\n        /* \"--CODEGEN--\":19:31   */\n      revert\n        /* \"--CODEGEN--\":2:4   */\n    tag_92:\n        /* \"PauserRole.sol\":507:597  function addPauser(address account) public onlyPauser {... */\n      dup2\n      add\n      swap1\n      dup1\n      dup1\n      calldataload\n      0xffffffffffffffffffffffffffffffffffffffff\n      and\n      swap1\n      0x20\n      add\n      swap1\n      swap3\n      swap2\n      swap1\n      pop\n      pop\n      pop\n      tag_93\n      jump\t// in\n    tag_91:\n      stop\n        /* \"Pausable.sol\":959:1072  function pause() public onlyPauser whenNotPaused {... */\n    tag_22:\n      tag_94\n      tag_95\n      jump\t// in\n    tag_94:\n      stop\n        /* \"ERC20Detailed.sol\":771:856  function symbol() public view returns (string memory) {... */\n    tag_23:\n      tag_96\n      tag_97\n      jump\t// in\n    tag_96:\n      mload(0x40)\n      dup1\n      dup1\n      0x20\n      add\n      dup3\n      dup2\n      sub\n      dup3\n      mstore\n      dup4\n      dup2\n      dup2\n      mload\n      dup2\n      mstore\n      0x20\n      add\n      swap2\n      pop\n      dup1\n      mload\n      swap1\n      0x20\n      add\n      swap1\n      dup1\n      dup4\n      dup4\n        /* \"--CODEGEN--\":23:24   */\n      0x00\n        /* \"--CODEGEN--\":8:108   */\n    tag_98:\n        /* \"--CODEGEN--\":33:36   */\n      dup4\n        /* \"--CODEGEN--\":30:31   */\n      dup2\n        /* \"--CODEGEN--\":27:37   */\n      lt\n        /* \"--CODEGEN--\":8:108   */\n      iszero\n      tag_100\n      jumpi\n        /* \"--CODEGEN--\":99:100   */\n      dup1\n        /* \"--CODEGEN--\":94:97   */\n      dup3\n        /* \"--CODEGEN--\":90:101   */\n      add\n        /* \"--CODEGEN--\":84:102   */\n      mload\n        /* \"--CODEGEN--\":80:81   */\n      dup2\n        /* \"--CODEGEN--\":75:78   */\n      dup5\n        /* \"--CODEGEN--\":71:82   */\n      add\n        /* \"--CODEGEN--\":64:103   */\n      mstore\n        /* \"--CODEGEN--\":52:54   */\n      0x20\n        /* \"--CODEGEN--\":49:50   */\n      dup2\n        /* \"--CODEGEN--\":45:55   */\n      add\n        /* \"--CODEGEN--\":40:55   */\n      swap1\n      pop\n        /* \"--CODEGEN--\":8:108   */\n      jump(tag_98)\n    tag_100:\n        /* \"--CODEGEN--\":12:26   */\n      pop\n        /* \"ERC20Detailed.sol\":771:856  function symbol() public view returns (string memory) {... */\n      pop\n      pop\n      pop\n      swap1\n      pop\n      swap1\n      dup2\n      add\n      swap1\n      0x1f\n      and\n      dup1\n      iszero\n      tag_101\n      jumpi\n      dup1\n      dup3\n      sub\n      dup1\n      mload\n      0x01\n      dup4\n      0x20\n      sub\n      0x0100\n      exp\n      sub\n      not\n      and\n      dup2\n      mstore\n      0x20\n      add\n      swap2\n      pop\n    tag_101:\n      pop\n      swap3\n      pop\n      pop\n      pop\n      mload(0x40)\n      dup1\n      swap2\n      sub\n      swap1\n      return\n        /* \"MinterRole.sol\":507:597  function addMinter(address account) public onlyMinter {... */\n    tag_24:\n      tag_102\n      0x04\n      dup1\n      calldatasize\n      sub\n        /* \"--CODEGEN--\":13:15   */\n      0x20\n        /* \"--CODEGEN--\":8:11   */\n      dup2\n        /* \"--CODEGEN--\":5:16   */\n      lt\n        /* \"--CODEGEN--\":2:4   */\n      iszero\n      tag_103\n      jumpi\n        /* \"--CODEGEN--\":29:30   */\n      0x00\n        /* \"--CODEGEN--\":26:27   */\n      dup1\n        /* \"--CODEGEN--\":19:31   */\n      revert\n        /* \"--CODEGEN--\":2:4   */\n    tag_103:\n        /* \"MinterRole.sol\":507:597  function addMinter(address account) public onlyMinter {... */\n      dup2\n      add\n      swap1\n      dup1\n      dup1\n      calldataload\n      0xffffffffffffffffffffffffffffffffffffffff\n      and\n      swap1\n      0x20\n      add\n      swap1\n      swap3\n      swap2\n      swap1\n      pop\n      pop\n      pop\n      tag_104\n      jump\t// in\n    tag_102:\n      stop\n        /* \"MinterRole.sol\":603:678  function renounceMinter() public {... */\n    tag_25:\n      tag_105\n      tag_106\n      jump\t// in\n    tag_105:\n      stop\n        /* \"ERC20Pausable.sol\":825:1008  function decreaseAllowance(address spender, uint subtractedValue) public whenNotPaused returns (bool success) {... */\n    tag_26:\n      tag_107\n      0x04\n      dup1\n      calldatasize\n      sub\n        /* \"--CODEGEN--\":13:15   */\n      0x40\n        /* \"--CODEGEN--\":8:11   */\n      dup2\n        /* \"--CODEGEN--\":5:16   */\n      lt\n        /* \"--CODEGEN--\":2:4   */\n      iszero\n      tag_108\n      jumpi\n        /* \"--CODEGEN--\":29:30   */\n      0x00\n        /* \"--CODEGEN--\":26:27   */\n      dup1\n        /* \"--CODEGEN--\":19:31   */\n      revert\n        /* \"--CODEGEN--\":2:4   */\n    tag_108:\n        /* \"ERC20Pausable.sol\":825:1008  function decreaseAllowance(address spender, uint subtractedValue) public whenNotPaused returns (bool success) {... */\n      dup2\n      add\n      swap1\n      dup1\n      dup1\n      calldataload\n      0xffffffffffffffffffffffffffffffffffffffff\n      and\n      swap1\n      0x20\n      add\n      swap1\n      swap3\n      swap2\n      swap1\n      dup1\n      calldataload\n      swap1\n      0x20\n      add\n      swap1\n      swap3\n      swap2\n      swap1\n      pop\n      pop\n      pop\n      tag_109\n      jump\t// in\n    tag_107:\n      mload(0x40)\n      dup1\n      dup3\n      iszero\n      iszero\n      iszero\n      iszero\n      dup2\n      mstore\n      0x20\n      add\n      swap2\n      pop\n      pop\n      mload(0x40)\n      dup1\n      swap2\n      sub\n      swap1\n      return\n        /* \"ERC20Pausable.sol\":202:332  function transfer(address to, uint256 value) public whenNotPaused returns (bool) {... */\n    tag_27:\n      tag_110\n      0x04\n      dup1\n      calldatasize\n      sub\n        /* \"--CODEGEN--\":13:15   */\n      0x40\n        /* \"--CODEGEN--\":8:11   */\n      dup2\n        /* \"--CODEGEN--\":5:16   */\n      lt\n        /* \"--CODEGEN--\":2:4   */\n      iszero\n      tag_111\n      jumpi\n        /* \"--CODEGEN--\":29:30   */\n      0x00\n        /* \"--CODEGEN--\":26:27   */\n      dup1\n        /* \"--CODEGEN--\":19:31   */\n      revert\n        /* \"--CODEGEN--\":2:4   */\n    tag_111:\n        /* \"ERC20Pausable.sol\":202:332  function transfer(address to, uint256 value) public whenNotPaused returns (bool) {... */\n      dup2\n      add\n      swap1\n      dup1\n      dup1\n      calldataload\n      0xffffffffffffffffffffffffffffffffffffffff\n      and\n      swap1\n      0x20\n      add\n      swap1\n      swap3\n      swap2\n      swap1\n      dup1\n      calldataload\n      swap1\n      0x20\n      add\n      swap1\n      swap3\n      swap2\n      swap1\n      pop\n      pop\n      pop\n      tag_112\n      jump\t// in\n    tag_110:\n      mload(0x40)\n      dup1\n      dup3\n      iszero\n      iszero\n      iszero\n      iszero\n      dup2\n      mstore\n      0x20\n      add\n      swap2\n      pop\n      pop\n      mload(0x40)\n      dup1\n      swap2\n      sub\n      swap1\n      return\n        /* \"MinterRole.sol\":394:501  function isMinter(address account) public view returns (bool) {... */\n    tag_28:\n      tag_113\n      0x04\n      dup1\n      calldatasize\n      sub\n        /* \"--CODEGEN--\":13:15   */\n      0x20\n        /* \"--CODEGEN--\":8:11   */\n      dup2\n        /* \"--CODEGEN--\":5:16   */\n      lt\n        /* \"--CODEGEN--\":2:4   */\n      iszero\n      tag_114\n      jumpi\n        /* \"--CODEGEN--\":29:30   */\n      0x00\n        /* \"--CODEGEN--\":26:27   */\n      dup1\n        /* \"--CODEGEN--\":19:31   */\n      revert\n        /* \"--CODEGEN--\":2:4   */\n    tag_114:\n        /* \"MinterRole.sol\":394:501  function isMinter(address account) public view returns (bool) {... */\n      dup2\n      add\n      swap1\n      dup1\n      dup1\n      calldataload\n      0xffffffffffffffffffffffffffffffffffffffff\n      and\n      swap1\n      0x20\n      add\n      swap1\n      swap3\n      swap2\n      swap1\n      pop\n      pop\n      pop\n      tag_115\n      jump\t// in\n    tag_113:\n      mload(0x40)\n      dup1\n      dup3\n      iszero\n      iszero\n      iszero\n      iszero\n      dup2\n      mstore\n      0x20\n      add\n      swap2\n      pop\n      pop\n      mload(0x40)\n      dup1\n      swap2\n      sub\n      swap1\n      return\n        /* \"Eraswap.sol\":801:916  function setTimeMachineDepth(int256 _timeMachineDepth) public {... */\n    tag_29:\n      tag_116\n      0x04\n      dup1\n      calldatasize\n      sub\n        /* \"--CODEGEN--\":13:15   */\n      0x20\n        /* \"--CODEGEN--\":8:11   */\n      dup2\n        /* \"--CODEGEN--\":5:16   */\n      lt\n        /* \"--CODEGEN--\":2:4   */\n      iszero\n      tag_117\n      jumpi\n        /* \"--CODEGEN--\":29:30   */\n      0x00\n        /* \"--CODEGEN--\":26:27   */\n      dup1\n        /* \"--CODEGEN--\":19:31   */\n      revert\n        /* \"--CODEGEN--\":2:4   */\n    tag_117:\n        /* \"Eraswap.sol\":801:916  function setTimeMachineDepth(int256 _timeMachineDepth) public {... */\n      dup2\n      add\n      swap1\n      dup1\n      dup1\n      calldataload\n      swap1\n      0x20\n      add\n      swap1\n      swap3\n      swap2\n      swap1\n      pop\n      pop\n      pop\n      tag_118\n      jump\t// in\n    tag_116:\n      stop\n        /* \"Eraswap.sol\":543:760  function mou() public view returns(uint256) {... */\n    tag_30:\n      tag_119\n      tag_120\n      jump\t// in\n    tag_119:\n      mload(0x40)\n      dup1\n      dup3\n      dup2\n      mstore\n      0x20\n      add\n      swap2\n      pop\n      pop\n      mload(0x40)\n      dup1\n      swap2\n      sub\n      swap1\n      return\n        /* \"ERC20.sol\":1643:1772  function allowance(address owner, address spender) public view returns (uint256) {... */\n    tag_31:\n      tag_121\n      0x04\n      dup1\n      calldatasize\n      sub\n        /* \"--CODEGEN--\":13:15   */\n      0x40\n        /* \"--CODEGEN--\":8:11   */\n      dup2\n        /* \"--CODEGEN--\":5:16   */\n      lt\n        /* \"--CODEGEN--\":2:4   */\n      iszero\n      tag_122\n      jumpi\n        /* \"--CODEGEN--\":29:30   */\n      0x00\n        /* \"--CODEGEN--\":26:27   */\n      dup1\n        /* \"--CODEGEN--\":19:31   */\n      revert\n        /* \"--CODEGEN--\":2:4   */\n    tag_122:\n        /* \"ERC20.sol\":1643:1772  function allowance(address owner, address spender) public view returns (uint256) {... */\n      dup2\n      add\n      swap1\n      dup1\n      dup1\n      calldataload\n      0xffffffffffffffffffffffffffffffffffffffff\n      and\n      swap1\n      0x20\n      add\n      swap1\n      swap3\n      swap2\n      swap1\n      dup1\n      calldataload\n      0xffffffffffffffffffffffffffffffffffffffff\n      and\n      swap1\n      0x20\n      add\n      swap1\n      swap3\n      swap2\n      swap1\n      pop\n      pop\n      pop\n      tag_123\n      jump\t// in\n    tag_121:\n      mload(0x40)\n      dup1\n      dup3\n      dup2\n      mstore\n      0x20\n      add\n      swap2\n      pop\n      pop\n      mload(0x40)\n      dup1\n      swap2\n      sub\n      swap1\n      return\n        /* \"Eraswap.sol\":470:500  int256 public timeMachineDepth */\n    tag_32:\n      tag_124\n      tag_125\n      jump\t// in\n    tag_124:\n      mload(0x40)\n      dup1\n      dup3\n      dup2\n      mstore\n      0x20\n      add\n      swap2\n      pop\n      pop\n      mload(0x40)\n      dup1\n      swap2\n      sub\n      swap1\n      return\n        /* \"ERC20Detailed.sol\":628:709  function name() public view returns (string memory) {... */\n    tag_41:\n        /* \"ERC20Detailed.sol\":665:678  string memory */\n      0x60\n        /* \"ERC20Detailed.sol\":697:702  _name */\n      0x00\n        /* \"ERC20Detailed.sol\":690:702  return _name */\n      dup1\n      sload\n      0x01\n      dup2\n      0x01\n      and\n      iszero\n      0x0100\n      mul\n      sub\n      and\n      0x02\n      swap1\n      div\n      dup1\n      0x1f\n      add\n      0x20\n      dup1\n      swap2\n      div\n      mul\n      0x20\n      add\n      mload(0x40)\n      swap1\n      dup2\n      add\n      0x40\n      mstore\n      dup1\n      swap3\n      swap2\n      swap1\n      dup2\n      dup2\n      mstore\n      0x20\n      add\n      dup3\n      dup1\n      sload\n      0x01\n      dup2\n      0x01\n      and\n      iszero\n      0x0100\n      mul\n      sub\n      and\n      0x02\n      swap1\n      div\n      dup1\n      iszero\n      tag_127\n      jumpi\n      dup1\n      0x1f\n      lt\n      tag_128\n      jumpi\n      0x0100\n      dup1\n      dup4\n      sload\n      div\n      mul\n      dup4\n      mstore\n      swap2\n      0x20\n      add\n      swap2\n      jump(tag_127)\n    tag_128:\n      dup3\n      add\n      swap2\n      swap1\n      0x00\n      mstore\n      keccak256(0x00, 0x20)\n      swap1\n    tag_129:\n      dup2\n      sload\n      dup2\n      mstore\n      swap1\n      0x01\n      add\n      swap1\n      0x20\n      add\n      dup1\n      dup4\n      gt\n      tag_129\n      jumpi\n      dup3\n      swap1\n      sub\n      0x1f\n      and\n      dup3\n      add\n      swap2\n    tag_127:\n      pop\n      pop\n      pop\n      pop\n      pop\n      swap1\n      pop\n        /* \"ERC20Detailed.sol\":628:709  function name() public view returns (string memory) {... */\n      swap1\n      jump\t// out\n        /* \"ERC20Pausable.sol\":502:640  function approve(address spender, uint256 value) public whenNotPaused returns (bool) {... */\n    tag_48:\n        /* \"ERC20Pausable.sol\":581:585  bool */\n      0x00\n        /* \"Pausable.sol\":675:682  _paused */\n      0x09\n      0x00\n      swap1\n      sload\n      swap1\n      0x0100\n      exp\n      swap1\n      div\n      0xff\n      and\n        /* \"Pausable.sol\":674:682  !_paused */\n      iszero\n        /* \"Pausable.sol\":666:683  require(!_paused) */\n      tag_131\n      jumpi\n      0x00\n      dup1\n      revert\n    tag_131:\n        /* \"ERC20Pausable.sol\":604:633  super.approve(spender, value) */\n      tag_133\n        /* \"ERC20Pausable.sol\":618:625  spender */\n      dup4\n        /* \"ERC20Pausable.sol\":627:632  value */\n      dup4\n        /* \"ERC20Pausable.sol\":604:617  super.approve */\n      tag_134\n        /* \"ERC20Pausable.sol\":604:633  super.approve(spender, value) */\n      jump\t// in\n    tag_133:\n        /* \"ERC20Pausable.sol\":597:633  return super.approve(spender, value) */\n      swap1\n      pop\n        /* \"ERC20Pausable.sol\":502:640  function approve(address spender, uint256 value) public whenNotPaused returns (bool) {... */\n      swap3\n      swap2\n      pop\n      pop\n      jump\t// out\n        /* \"ERC20.sol\":907:996  function totalSupply() public view returns (uint256) {... */\n    tag_50:\n        /* \"ERC20.sol\":951:958  uint256 */\n      0x00\n        /* \"ERC20.sol\":977:989  _totalSupply */\n      sload(0x05)\n        /* \"ERC20.sol\":970:989  return _totalSupply */\n      swap1\n      pop\n        /* \"ERC20.sol\":907:996  function totalSupply() public view returns (uint256) {... */\n      swap1\n      jump\t// out\n        /* \"ERC20Pausable.sol\":338:496  function transferFrom(address from, address to, uint256 value) public whenNotPaused returns (bool) {... */\n    tag_53:\n        /* \"ERC20Pausable.sol\":431:435  bool */\n      0x00\n        /* \"Pausable.sol\":675:682  _paused */\n      0x09\n      0x00\n      swap1\n      sload\n      swap1\n      0x0100\n      exp\n      swap1\n      div\n      0xff\n      and\n        /* \"Pausable.sol\":674:682  !_paused */\n      iszero\n        /* \"Pausable.sol\":666:683  require(!_paused) */\n      tag_137\n      jumpi\n      0x00\n      dup1\n      revert\n    tag_137:\n        /* \"ERC20Pausable.sol\":454:489  super.transferFrom(from, to, value) */\n      tag_139\n        /* \"ERC20Pausable.sol\":473:477  from */\n      dup5\n        /* \"ERC20Pausable.sol\":479:481  to */\n      dup5\n        /* \"ERC20Pausable.sol\":483:488  value */\n      dup5\n        /* \"ERC20Pausable.sol\":454:472  super.transferFrom */\n      tag_140\n        /* \"ERC20Pausable.sol\":454:489  super.transferFrom(from, to, value) */\n      jump\t// in\n    tag_139:\n        /* \"ERC20Pausable.sol\":447:489  return super.transferFrom(from, to, value) */\n      swap1\n      pop\n        /* \"ERC20Pausable.sol\":338:496  function transferFrom(address from, address to, uint256 value) public whenNotPaused returns (bool) {... */\n      swap4\n      swap3\n      pop\n      pop\n      pop\n      jump\t// out\n        /* \"ERC20Detailed.sol\":930:1011  function decimals() public view returns (uint8) {... */\n    tag_55:\n        /* \"ERC20Detailed.sol\":971:976  uint8 */\n      0x00\n        /* \"ERC20Detailed.sol\":995:1004  _decimals */\n      0x02\n      0x00\n      swap1\n      sload\n      swap1\n      0x0100\n      exp\n      swap1\n      div\n      0xff\n      and\n        /* \"ERC20Detailed.sol\":988:1004  return _decimals */\n      swap1\n      pop\n        /* \"ERC20Detailed.sol\":930:1011  function decimals() public view returns (uint8) {... */\n      swap1\n      jump\t// out\n        /* \"ERC20Capped.sol\":353:426  function cap() public view returns (uint256) {... */\n    tag_57:\n        /* \"ERC20Capped.sol\":389:396  uint256 */\n      0x00\n        /* \"ERC20Capped.sol\":415:419  _cap */\n      sload(0x07)\n        /* \"ERC20Capped.sol\":408:419  return _cap */\n      swap1\n      pop\n        /* \"ERC20Capped.sol\":353:426  function cap() public view returns (uint256) {... */\n      swap1\n      jump\t// out\n        /* \"Eraswap.sol\":1355:1617  function AddNRTManager(address NRTManager) public onlyMinter returns (bool) {... */\n    tag_60:\n        /* \"Eraswap.sol\":1425:1429  bool */\n      0x00\n        /* \"MinterRole.sol\":349:369  isMinter(msg.sender) */\n      tag_144\n        /* \"MinterRole.sol\":358:368  msg.sender */\n      caller\n        /* \"MinterRole.sol\":349:357  isMinter */\n      tag_115\n        /* \"MinterRole.sol\":349:369  isMinter(msg.sender) */\n      jump\t// in\n    tag_144:\n        /* \"MinterRole.sol\":341:370  require(isMinter(msg.sender)) */\n      tag_145\n      jumpi\n      0x00\n      dup1\n      revert\n    tag_145:\n        /* \"Eraswap.sol\":1441:1462  addMinter(NRTManager) */\n      tag_147\n        /* \"Eraswap.sol\":1451:1461  NRTManager */\n      dup3\n        /* \"Eraswap.sol\":1441:1450  addMinter */\n      tag_104\n        /* \"Eraswap.sol\":1441:1462  addMinter(NRTManager) */\n      jump\t// in\n    tag_147:\n        /* \"Eraswap.sol\":1472:1493  addPauser(NRTManager) */\n      tag_148\n        /* \"Eraswap.sol\":1482:1492  NRTManager */\n      dup3\n        /* \"Eraswap.sol\":1472:1481  addPauser */\n      tag_93\n        /* \"Eraswap.sol\":1472:1493  addPauser(NRTManager) */\n      jump\t// in\n    tag_148:\n        /* \"Eraswap.sol\":1503:1519  renounceMinter() */\n      tag_149\n        /* \"Eraswap.sol\":1503:1517  renounceMinter */\n      tag_106\n        /* \"Eraswap.sol\":1503:1519  renounceMinter() */\n      jump\t// in\n    tag_149:\n        /* \"Eraswap.sol\":1529:1545  renouncePauser() */\n      tag_150\n        /* \"Eraswap.sol\":1529:1543  renouncePauser */\n      tag_84\n        /* \"Eraswap.sol\":1529:1545  renouncePauser() */\n      jump\t// in\n    tag_150:\n        /* \"Eraswap.sol\":1560:1587  NRTManagerAdded(NRTManager) */\n      0x73ccc9776a38bbcf5eedad6b771d6c1ab0827eac87365a1059505d044c2475b4\n        /* \"Eraswap.sol\":1576:1586  NRTManager */\n      dup3\n        /* \"Eraswap.sol\":1560:1587  NRTManagerAdded(NRTManager) */\n      mload(0x40)\n      dup1\n      dup3\n      0xffffffffffffffffffffffffffffffffffffffff\n      and\n      0xffffffffffffffffffffffffffffffffffffffff\n      and\n      dup2\n      mstore\n      0x20\n      add\n      swap2\n      pop\n      pop\n      mload(0x40)\n      dup1\n      swap2\n      sub\n      swap1\n      log1\n        /* \"Eraswap.sol\":1604:1608  true */\n      0x01\n        /* \"Eraswap.sol\":1597:1608  return true */\n      swap1\n      pop\n        /* \"Eraswap.sol\":1355:1617  function AddNRTManager(address NRTManager) public onlyMinter returns (bool) {... */\n      swap2\n      swap1\n      pop\n      jump\t// out\n        /* \"ERC20Pausable.sol\":646:819  function increaseAllowance(address spender, uint addedValue) public whenNotPaused returns (bool success) {... */\n    tag_63:\n        /* \"ERC20Pausable.sol\":737:749  bool success */\n      0x00\n        /* \"Pausable.sol\":675:682  _paused */\n      0x09\n      0x00\n      swap1\n      sload\n      swap1\n      0x0100\n      exp\n      swap1\n      div\n      0xff\n      and\n        /* \"Pausable.sol\":674:682  !_paused */\n      iszero\n        /* \"Pausable.sol\":666:683  require(!_paused) */\n      tag_152\n      jumpi\n      0x00\n      dup1\n      revert\n    tag_152:\n        /* \"ERC20Pausable.sol\":768:812  super.increaseAllowance(spender, addedValue) */\n      tag_154\n        /* \"ERC20Pausable.sol\":792:799  spender */\n      dup4\n        /* \"ERC20Pausable.sol\":801:811  addedValue */\n      dup4\n        /* \"ERC20Pausable.sol\":768:791  super.increaseAllowance */\n      tag_155\n        /* \"ERC20Pausable.sol\":768:812  super.increaseAllowance(spender, addedValue) */\n      jump\t// in\n    tag_154:\n        /* \"ERC20Pausable.sol\":761:812  return super.increaseAllowance(spender, addedValue) */\n      swap1\n      pop\n        /* \"ERC20Pausable.sol\":646:819  function increaseAllowance(address spender, uint addedValue) public whenNotPaused returns (bool success) {... */\n      swap3\n      swap2\n      pop\n      pop\n      jump\t// out\n        /* \"Pausable.sol\":1162:1277  function unpause() public onlyPauser whenPaused {... */\n    tag_65:\n        /* \"PauserRole.sol\":349:369  isPauser(msg.sender) */\n      tag_157\n        /* \"PauserRole.sol\":358:368  msg.sender */\n      caller\n        /* \"PauserRole.sol\":349:357  isPauser */\n      tag_77\n        /* \"PauserRole.sol\":349:369  isPauser(msg.sender) */\n      jump\t// in\n    tag_157:\n        /* \"PauserRole.sol\":341:370  require(isPauser(msg.sender)) */\n      tag_158\n      jumpi\n      0x00\n      dup1\n      revert\n    tag_158:\n        /* \"Pausable.sol\":846:853  _paused */\n      0x09\n      0x00\n      swap1\n      sload\n      swap1\n      0x0100\n      exp\n      swap1\n      div\n      0xff\n      and\n        /* \"Pausable.sol\":838:854  require(_paused) */\n      tag_160\n      jumpi\n      0x00\n      dup1\n      revert\n    tag_160:\n        /* \"Pausable.sol\":1230:1235  false */\n      0x00\n        /* \"Pausable.sol\":1220:1227  _paused */\n      0x09\n      0x00\n        /* \"Pausable.sol\":1220:1235  _paused = false */\n      0x0100\n      exp\n      dup2\n      sload\n      dup2\n      0xff\n      mul\n      not\n      and\n      swap1\n      dup4\n      iszero\n      iszero\n      mul\n      or\n      swap1\n      sstore\n      pop\n        /* \"Pausable.sol\":1250:1270  Unpaused(msg.sender) */\n      0x5db9ee0a495bf2e6ff9c91a7834c1ba4fdd244a5e8aa4e537bd38aeae4b073aa\n        /* \"Pausable.sol\":1259:1269  msg.sender */\n      caller\n        /* \"Pausable.sol\":1250:1270  Unpaused(msg.sender) */\n      mload(0x40)\n      dup1\n      dup3\n      0xffffffffffffffffffffffffffffffffffffffff\n      and\n      0xffffffffffffffffffffffffffffffffffffffff\n      and\n      dup2\n      mstore\n      0x20\n      add\n      swap2\n      pop\n      pop\n      mload(0x40)\n      dup1\n      swap2\n      sub\n      swap1\n      log1\n        /* \"Pausable.sol\":1162:1277  function unpause() public onlyPauser whenPaused {... */\n      jump\t// out\n        /* \"ERC20Mintable.sol\":426:554  function mint(address to, uint256 value) public onlyMinter returns (bool) {... */\n    tag_68:\n        /* \"ERC20Mintable.sol\":494:498  bool */\n      0x00\n        /* \"MinterRole.sol\":349:369  isMinter(msg.sender) */\n      tag_163\n        /* \"MinterRole.sol\":358:368  msg.sender */\n      caller\n        /* \"MinterRole.sol\":349:357  isMinter */\n      tag_115\n        /* \"MinterRole.sol\":349:369  isMinter(msg.sender) */\n      jump\t// in\n    tag_163:\n        /* \"MinterRole.sol\":341:370  require(isMinter(msg.sender)) */\n      tag_164\n      jumpi\n      0x00\n      dup1\n      revert\n    tag_164:\n        /* \"ERC20Mintable.sol\":510:526  _mint(to, value) */\n      tag_166\n        /* \"ERC20Mintable.sol\":516:518  to */\n      dup4\n        /* \"ERC20Mintable.sol\":520:525  value */\n      dup4\n        /* \"ERC20Mintable.sol\":510:515  _mint */\n      tag_167\n        /* \"ERC20Mintable.sol\":510:526  _mint(to, value) */\n      jump\t// in\n    tag_166:\n        /* \"ERC20Mintable.sol\":543:547  true */\n      0x01\n        /* \"ERC20Mintable.sol\":536:547  return true */\n      swap1\n      pop\n        /* \"ERC20Mintable.sol\":426:554  function mint(address to, uint256 value) public onlyMinter returns (bool) {... */\n      swap3\n      swap2\n      pop\n      pop\n      jump\t// out\n        /* \"Eraswap.sol\":1026:1122  function goToPast(uint256 _seconds) public {... */\n    tag_71:\n        /* \"Eraswap.sol\":1106:1114  _seconds */\n      dup1\n        /* \"Eraswap.sol\":1079:1095  timeMachineDepth */\n      0x0a\n      0x00\n        /* \"Eraswap.sol\":1079:1115  timeMachineDepth -= int256(_seconds) */\n      dup3\n      dup3\n      sload\n      sub\n      swap3\n      pop\n      pop\n      dup2\n      swap1\n      sstore\n      pop\n        /* \"Eraswap.sol\":1026:1122  function goToPast(uint256 _seconds) public {... */\n      pop\n      jump\t// out\n        /* \"ERC20Burnable.sol\":295:372  function burn(uint256 value) public {... */\n    tag_74:\n        /* \"ERC20Burnable.sol\":341:365  _burn(msg.sender, value) */\n      tag_170\n        /* \"ERC20Burnable.sol\":347:357  msg.sender */\n      caller\n        /* \"ERC20Burnable.sol\":359:364  value */\n      dup3\n        /* \"ERC20Burnable.sol\":341:346  _burn */\n      tag_171\n        /* \"ERC20Burnable.sol\":341:365  _burn(msg.sender, value) */\n      jump\t// in\n    tag_170:\n        /* \"ERC20Burnable.sol\":295:372  function burn(uint256 value) public {... */\n      pop\n      jump\t// out\n        /* \"PauserRole.sol\":394:501  function isPauser(address account) public view returns (bool) {... */\n    tag_77:\n        /* \"PauserRole.sol\":450:454  bool */\n      0x00\n        /* \"PauserRole.sol\":473:494  _pausers.has(account) */\n      tag_173\n        /* \"PauserRole.sol\":486:493  account */\n      dup3\n        /* \"PauserRole.sol\":473:481  _pausers */\n      0x08\n        /* \"PauserRole.sol\":473:485  _pausers.has */\n      tag_174\n      swap1\n        /* \"PauserRole.sol\":473:494  _pausers.has(account) */\n      swap2\n      swap1\n      0xffffffff\n      and\n      jump\t// in\n    tag_173:\n        /* \"PauserRole.sol\":466:494  return _pausers.has(account) */\n      swap1\n      pop\n        /* \"PauserRole.sol\":394:501  function isPauser(address account) public view returns (bool) {... */\n      swap2\n      swap1\n      pop\n      jump\t// out\n        /* \"Pausable.sol\":446:522  function paused() public view returns (bool) {... */\n    tag_79:\n        /* \"Pausable.sol\":485:489  bool */\n      0x00\n        /* \"Pausable.sol\":508:515  _paused */\n      0x09\n      0x00\n      swap1\n      sload\n      swap1\n      0x0100\n      exp\n      swap1\n      div\n      0xff\n      and\n        /* \"Pausable.sol\":501:515  return _paused */\n      swap1\n      pop\n        /* \"Pausable.sol\":446:522  function paused() public view returns (bool) {... */\n      swap1\n      jump\t// out\n        /* \"Eraswap.sol\":922:1020  function goToFuture(uint256 _seconds) public {... */\n    tag_82:\n        /* \"Eraswap.sol\":1004:1012  _seconds */\n      dup1\n        /* \"Eraswap.sol\":977:993  timeMachineDepth */\n      0x0a\n      0x00\n        /* \"Eraswap.sol\":977:1013  timeMachineDepth += int256(_seconds) */\n      dup3\n      dup3\n      sload\n      add\n      swap3\n      pop\n      pop\n      dup2\n      swap1\n      sstore\n      pop\n        /* \"Eraswap.sol\":922:1020  function goToFuture(uint256 _seconds) public {... */\n      pop\n      jump\t// out\n        /* \"PauserRole.sol\":603:678  function renouncePauser() public {... */\n    tag_84:\n        /* \"PauserRole.sol\":646:671  _removePauser(msg.sender) */\n      tag_178\n        /* \"PauserRole.sol\":660:670  msg.sender */\n      caller\n        /* \"PauserRole.sol\":646:659  _removePauser */\n      tag_179\n        /* \"PauserRole.sol\":646:671  _removePauser(msg.sender) */\n      jump\t// in\n    tag_178:\n        /* \"PauserRole.sol\":603:678  function renouncePauser() public {... */\n      jump\t// out\n        /* \"ERC20.sol\":1208:1312  function balanceOf(address owner) public view returns (uint256) {... */\n    tag_87:\n        /* \"ERC20.sol\":1263:1270  uint256 */\n      0x00\n        /* \"ERC20.sol\":1289:1298  _balances */\n      0x03\n        /* \"ERC20.sol\":1289:1305  _balances[owner] */\n      0x00\n        /* \"ERC20.sol\":1299:1304  owner */\n      dup4\n        /* \"ERC20.sol\":1289:1305  _balances[owner] */\n      0xffffffffffffffffffffffffffffffffffffffff\n      and\n      0xffffffffffffffffffffffffffffffffffffffff\n      and\n      dup2\n      mstore\n      0x20\n      add\n      swap1\n      dup2\n      mstore\n      0x20\n      add\n      0x00\n      keccak256\n      sload\n        /* \"ERC20.sol\":1282:1305  return _balances[owner] */\n      swap1\n      pop\n        /* \"ERC20.sol\":1208:1312  function balanceOf(address owner) public view returns (uint256) {... */\n      swap2\n      swap1\n      pop\n      jump\t// out\n        /* \"ERC20Burnable.sol\":619:712  function burnFrom(address from, uint256 value) public {... */\n    tag_90:\n        /* \"ERC20Burnable.sol\":683:705  _burnFrom(from, value) */\n      tag_182\n        /* \"ERC20Burnable.sol\":693:697  from */\n      dup3\n        /* \"ERC20Burnable.sol\":699:704  value */\n      dup3\n        /* \"ERC20Burnable.sol\":683:692  _burnFrom */\n      tag_183\n        /* \"ERC20Burnable.sol\":683:705  _burnFrom(from, value) */\n      jump\t// in\n    tag_182:\n        /* \"ERC20Burnable.sol\":619:712  function burnFrom(address from, uint256 value) public {... */\n      pop\n      pop\n      jump\t// out\n        /* \"PauserRole.sol\":507:597  function addPauser(address account) public onlyPauser {... */\n    tag_93:\n        /* \"PauserRole.sol\":349:369  isPauser(msg.sender) */\n      tag_185\n        /* \"PauserRole.sol\":358:368  msg.sender */\n      caller\n        /* \"PauserRole.sol\":349:357  isPauser */\n      tag_77\n        /* \"PauserRole.sol\":349:369  isPauser(msg.sender) */\n      jump\t// in\n    tag_185:\n        /* \"PauserRole.sol\":341:370  require(isPauser(msg.sender)) */\n      tag_186\n      jumpi\n      0x00\n      dup1\n      revert\n    tag_186:\n        /* \"PauserRole.sol\":571:590  _addPauser(account) */\n      tag_188\n        /* \"PauserRole.sol\":582:589  account */\n      dup2\n        /* \"PauserRole.sol\":571:581  _addPauser */\n      tag_189\n        /* \"PauserRole.sol\":571:590  _addPauser(account) */\n      jump\t// in\n    tag_188:\n        /* \"PauserRole.sol\":507:597  function addPauser(address account) public onlyPauser {... */\n      pop\n      jump\t// out\n        /* \"Pausable.sol\":959:1072  function pause() public onlyPauser whenNotPaused {... */\n    tag_95:\n        /* \"PauserRole.sol\":349:369  isPauser(msg.sender) */\n      tag_191\n        /* \"PauserRole.sol\":358:368  msg.sender */\n      caller\n        /* \"PauserRole.sol\":349:357  isPauser */\n      tag_77\n        /* \"PauserRole.sol\":349:369  isPauser(msg.sender) */\n      jump\t// in\n    tag_191:\n        /* \"PauserRole.sol\":341:370  require(isPauser(msg.sender)) */\n      tag_192\n      jumpi\n      0x00\n      dup1\n      revert\n    tag_192:\n        /* \"Pausable.sol\":675:682  _paused */\n      0x09\n      0x00\n      swap1\n      sload\n      swap1\n      0x0100\n      exp\n      swap1\n      div\n      0xff\n      and\n        /* \"Pausable.sol\":674:682  !_paused */\n      iszero\n        /* \"Pausable.sol\":666:683  require(!_paused) */\n      tag_194\n      jumpi\n      0x00\n      dup1\n      revert\n    tag_194:\n        /* \"Pausable.sol\":1028:1032  true */\n      0x01\n        /* \"Pausable.sol\":1018:1025  _paused */\n      0x09\n      0x00\n        /* \"Pausable.sol\":1018:1032  _paused = true */\n      0x0100\n      exp\n      dup2\n      sload\n      dup2\n      0xff\n      mul\n      not\n      and\n      swap1\n      dup4\n      iszero\n      iszero\n      mul\n      or\n      swap1\n      sstore\n      pop\n        /* \"Pausable.sol\":1047:1065  Paused(msg.sender) */\n      0x62e78cea01bee320cd4e420270b5ea74000d11b0c9f74754ebdbfc544b05a258\n        /* \"Pausable.sol\":1054:1064  msg.sender */\n      caller\n        /* \"Pausable.sol\":1047:1065  Paused(msg.sender) */\n      mload(0x40)\n      dup1\n      dup3\n      0xffffffffffffffffffffffffffffffffffffffff\n      and\n      0xffffffffffffffffffffffffffffffffffffffff\n      and\n      dup2\n      mstore\n      0x20\n      add\n      swap2\n      pop\n      pop\n      mload(0x40)\n      dup1\n      swap2\n      sub\n      swap1\n      log1\n        /* \"Pausable.sol\":959:1072  function pause() public onlyPauser whenNotPaused {... */\n      jump\t// out\n        /* \"ERC20Detailed.sol\":771:856  function symbol() public view returns (string memory) {... */\n    tag_97:\n        /* \"ERC20Detailed.sol\":810:823  string memory */\n      0x60\n        /* \"ERC20Detailed.sol\":842:849  _symbol */\n      0x01\n        /* \"ERC20Detailed.sol\":835:849  return _symbol */\n      dup1\n      sload\n      0x01\n      dup2\n      0x01\n      and\n      iszero\n      0x0100\n      mul\n      sub\n      and\n      0x02\n      swap1\n      div\n      dup1\n      0x1f\n      add\n      0x20\n      dup1\n      swap2\n      div\n      mul\n      0x20\n      add\n      mload(0x40)\n      swap1\n      dup2\n      add\n      0x40\n      mstore\n      dup1\n      swap3\n      swap2\n      swap1\n      dup2\n      dup2\n      mstore\n      0x20\n      add\n      dup3\n      dup1\n      sload\n      0x01\n      dup2\n      0x01\n      and\n      iszero\n      0x0100\n      mul\n      sub\n      and\n      0x02\n      swap1\n      div\n      dup1\n      iszero\n      tag_197\n      jumpi\n      dup1\n      0x1f\n      lt\n      tag_198\n      jumpi\n      0x0100\n      dup1\n      dup4\n      sload\n      div\n      mul\n      dup4\n      mstore\n      swap2\n      0x20\n      add\n      swap2\n      jump(tag_197)\n    tag_198:\n      dup3\n      add\n      swap2\n      swap1\n      0x00\n      mstore\n      keccak256(0x00, 0x20)\n      swap1\n    tag_199:\n      dup2\n      sload\n      dup2\n      mstore\n      swap1\n      0x01\n      add\n      swap1\n      0x20\n      add\n      dup1\n      dup4\n      gt\n      tag_199\n      jumpi\n      dup3\n      swap1\n      sub\n      0x1f\n      and\n      dup3\n      add\n      swap2\n    tag_197:\n      pop\n      pop\n      pop\n      pop\n      pop\n      swap1\n      pop\n        /* \"ERC20Detailed.sol\":771:856  function symbol() public view returns (string memory) {... */\n      swap1\n      jump\t// out\n        /* \"MinterRole.sol\":507:597  function addMinter(address account) public onlyMinter {... */\n    tag_104:\n        /* \"MinterRole.sol\":349:369  isMinter(msg.sender) */\n      tag_201\n        /* \"MinterRole.sol\":358:368  msg.sender */\n      caller\n        /* \"MinterRole.sol\":349:357  isMinter */\n      tag_115\n        /* \"MinterRole.sol\":349:369  isMinter(msg.sender) */\n      jump\t// in\n    tag_201:\n        /* \"MinterRole.sol\":341:370  require(isMinter(msg.sender)) */\n      tag_202\n      jumpi\n      0x00\n      dup1\n      revert\n    tag_202:\n        /* \"MinterRole.sol\":571:590  _addMinter(account) */\n      tag_204\n        /* \"MinterRole.sol\":582:589  account */\n      dup2\n        /* \"MinterRole.sol\":571:581  _addMinter */\n      tag_205\n        /* \"MinterRole.sol\":571:590  _addMinter(account) */\n      jump\t// in\n    tag_204:\n        /* \"MinterRole.sol\":507:597  function addMinter(address account) public onlyMinter {... */\n      pop\n      jump\t// out\n        /* \"MinterRole.sol\":603:678  function renounceMinter() public {... */\n    tag_106:\n        /* \"MinterRole.sol\":646:671  _removeMinter(msg.sender) */\n      tag_207\n        /* \"MinterRole.sol\":660:670  msg.sender */\n      caller\n        /* \"MinterRole.sol\":646:659  _removeMinter */\n      tag_208\n        /* \"MinterRole.sol\":646:671  _removeMinter(msg.sender) */\n      jump\t// in\n    tag_207:\n        /* \"MinterRole.sol\":603:678  function renounceMinter() public {... */\n      jump\t// out\n        /* \"ERC20Pausable.sol\":825:1008  function decreaseAllowance(address spender, uint subtractedValue) public whenNotPaused returns (bool success) {... */\n    tag_109:\n        /* \"ERC20Pausable.sol\":921:933  bool success */\n      0x00\n        /* \"Pausable.sol\":675:682  _paused */\n      0x09\n      0x00\n      swap1\n      sload\n      swap1\n      0x0100\n      exp\n      swap1\n      div\n      0xff\n      and\n        /* \"Pausable.sol\":674:682  !_paused */\n      iszero\n        /* \"Pausable.sol\":666:683  require(!_paused) */\n      tag_210\n      jumpi\n      0x00\n      dup1\n      revert\n    tag_210:\n        /* \"ERC20Pausable.sol\":952:1001  super.decreaseAllowance(spender, subtractedValue) */\n      tag_212\n        /* \"ERC20Pausable.sol\":976:983  spender */\n      dup4\n        /* \"ERC20Pausable.sol\":985:1000  subtractedValue */\n      dup4\n        /* \"ERC20Pausable.sol\":952:975  super.decreaseAllowance */\n      tag_213\n        /* \"ERC20Pausable.sol\":952:1001  super.decreaseAllowance(spender, subtractedValue) */\n      jump\t// in\n    tag_212:\n        /* \"ERC20Pausable.sol\":945:1001  return super.decreaseAllowance(spender, subtractedValue) */\n      swap1\n      pop\n        /* \"ERC20Pausable.sol\":825:1008  function decreaseAllowance(address spender, uint subtractedValue) public whenNotPaused returns (bool success) {... */\n      swap3\n      swap2\n      pop\n      pop\n      jump\t// out\n        /* \"ERC20Pausable.sol\":202:332  function transfer(address to, uint256 value) public whenNotPaused returns (bool) {... */\n    tag_112:\n        /* \"ERC20Pausable.sol\":277:281  bool */\n      0x00\n        /* \"Pausable.sol\":675:682  _paused */\n      0x09\n      0x00\n      swap1\n      sload\n      swap1\n      0x0100\n      exp\n      swap1\n      div\n      0xff\n      and\n        /* \"Pausable.sol\":674:682  !_paused */\n      iszero\n        /* \"Pausable.sol\":666:683  require(!_paused) */\n      tag_215\n      jumpi\n      0x00\n      dup1\n      revert\n    tag_215:\n        /* \"ERC20Pausable.sol\":300:325  super.transfer(to, value) */\n      tag_217\n        /* \"ERC20Pausable.sol\":315:317  to */\n      dup4\n        /* \"ERC20Pausable.sol\":319:324  value */\n      dup4\n        /* \"ERC20Pausable.sol\":300:314  super.transfer */\n      tag_218\n        /* \"ERC20Pausable.sol\":300:325  super.transfer(to, value) */\n      jump\t// in\n    tag_217:\n        /* \"ERC20Pausable.sol\":293:325  return super.transfer(to, value) */\n      swap1\n      pop\n        /* \"ERC20Pausable.sol\":202:332  function transfer(address to, uint256 value) public whenNotPaused returns (bool) {... */\n      swap3\n      swap2\n      pop\n      pop\n      jump\t// out\n        /* \"MinterRole.sol\":394:501  function isMinter(address account) public view returns (bool) {... */\n    tag_115:\n        /* \"MinterRole.sol\":450:454  bool */\n      0x00\n        /* \"MinterRole.sol\":473:494  _minters.has(account) */\n      tag_220\n        /* \"MinterRole.sol\":486:493  account */\n      dup3\n        /* \"MinterRole.sol\":473:481  _minters */\n      0x06\n        /* \"MinterRole.sol\":473:485  _minters.has */\n      tag_174\n      swap1\n        /* \"MinterRole.sol\":473:494  _minters.has(account) */\n      swap2\n      swap1\n      0xffffffff\n      and\n      jump\t// in\n    tag_220:\n        /* \"MinterRole.sol\":466:494  return _minters.has(account) */\n      swap1\n      pop\n        /* \"MinterRole.sol\":394:501  function isMinter(address account) public view returns (bool) {... */\n      swap2\n      swap1\n      pop\n      jump\t// out\n        /* \"Eraswap.sol\":801:916  function setTimeMachineDepth(int256 _timeMachineDepth) public {... */\n    tag_118:\n        /* \"Eraswap.sol\":892:909  _timeMachineDepth */\n      dup1\n        /* \"Eraswap.sol\":873:889  timeMachineDepth */\n      0x0a\n        /* \"Eraswap.sol\":873:909  timeMachineDepth = _timeMachineDepth */\n      dup2\n      swap1\n      sstore\n      pop\n        /* \"Eraswap.sol\":801:916  function setTimeMachineDepth(int256 _timeMachineDepth) public {... */\n      pop\n      jump\t// out\n        /* \"Eraswap.sol\":543:760  function mou() public view returns(uint256) {... */\n    tag_120:\n        /* \"Eraswap.sol\":578:585  uint256 */\n      0x00\n        /* \"Eraswap.sol\":619:620  0 */\n      dup1\n        /* \"Eraswap.sol\":600:616  timeMachineDepth */\n      sload(0x0a)\n        /* \"Eraswap.sol\":600:620  timeMachineDepth < 0 */\n      slt\n        /* \"Eraswap.sol\":597:754  if(timeMachineDepth < 0) {... */\n      iszero\n      tag_223\n      jumpi\n        /* \"Eraswap.sol\":657:673  timeMachineDepth */\n      sload(0x0a)\n        /* \"Eraswap.sol\":643:646  now */\n      timestamp\n        /* \"Eraswap.sol\":643:674  now - uint256(timeMachineDepth) */\n      sub\n        /* \"Eraswap.sol\":636:674  return now - uint256(timeMachineDepth) */\n      swap1\n      pop\n      jump(tag_222)\n        /* \"Eraswap.sol\":597:754  if(timeMachineDepth < 0) {... */\n    tag_223:\n        /* \"Eraswap.sol\":726:742  timeMachineDepth */\n      sload(0x0a)\n        /* \"Eraswap.sol\":712:715  now */\n      timestamp\n        /* \"Eraswap.sol\":712:743  now + uint256(timeMachineDepth) */\n      add\n        /* \"Eraswap.sol\":705:743  return now + uint256(timeMachineDepth) */\n      swap1\n      pop\n        /* \"Eraswap.sol\":543:760  function mou() public view returns(uint256) {... */\n    tag_222:\n      swap1\n      jump\t// out\n        /* \"ERC20.sol\":1643:1772  function allowance(address owner, address spender) public view returns (uint256) {... */\n    tag_123:\n        /* \"ERC20.sol\":1715:1722  uint256 */\n      0x00\n        /* \"ERC20.sol\":1741:1749  _allowed */\n      0x04\n        /* \"ERC20.sol\":1741:1756  _allowed[owner] */\n      0x00\n        /* \"ERC20.sol\":1750:1755  owner */\n      dup5\n        /* \"ERC20.sol\":1741:1756  _allowed[owner] */\n      0xffffffffffffffffffffffffffffffffffffffff\n      and\n      0xffffffffffffffffffffffffffffffffffffffff\n      and\n      dup2\n      mstore\n      0x20\n      add\n      swap1\n      dup2\n      mstore\n      0x20\n      add\n      0x00\n      keccak256\n        /* \"ERC20.sol\":1741:1765  _allowed[owner][spender] */\n      0x00\n        /* \"ERC20.sol\":1757:1764  spender */\n      dup4\n        /* \"ERC20.sol\":1741:1765  _allowed[owner][spender] */\n      0xffffffffffffffffffffffffffffffffffffffff\n      and\n      0xffffffffffffffffffffffffffffffffffffffff\n      and\n      dup2\n      mstore\n      0x20\n      add\n      swap1\n      dup2\n      mstore\n      0x20\n      add\n      0x00\n      keccak256\n      sload\n        /* \"ERC20.sol\":1734:1765  return _allowed[owner][spender] */\n      swap1\n      pop\n        /* \"ERC20.sol\":1643:1772  function allowance(address owner, address spender) public view returns (uint256) {... */\n      swap3\n      swap2\n      pop\n      pop\n      jump\t// out\n        /* \"Eraswap.sol\":470:500  int256 public timeMachineDepth */\n    tag_125:\n      sload(0x0a)\n      dup2\n      jump\t// out\n        /* \"ERC20.sol\":2712:2857  function approve(address spender, uint256 value) public returns (bool) {... */\n    tag_134:\n        /* \"ERC20.sol\":2777:2781  bool */\n      0x00\n        /* \"ERC20.sol\":2793:2829  _approve(msg.sender, spender, value) */\n      tag_227\n        /* \"ERC20.sol\":2802:2812  msg.sender */\n      caller\n        /* \"ERC20.sol\":2814:2821  spender */\n      dup5\n        /* \"ERC20.sol\":2823:2828  value */\n      dup5\n        /* \"ERC20.sol\":2793:2801  _approve */\n      tag_228\n        /* \"ERC20.sol\":2793:2829  _approve(msg.sender, spender, value) */\n      jump\t// in\n    tag_227:\n        /* \"ERC20.sol\":2846:2850  true */\n      0x01\n        /* \"ERC20.sol\":2839:2850  return true */\n      swap1\n      pop\n        /* \"ERC20.sol\":2712:2857  function approve(address spender, uint256 value) public returns (bool) {... */\n      swap3\n      swap2\n      pop\n      pop\n      jump\t// out\n        /* \"ERC20.sol\":3320:3544  function transferFrom(address from, address to, uint256 value) public returns (bool) {... */\n    tag_140:\n        /* \"ERC20.sol\":3399:3403  bool */\n      0x00\n        /* \"ERC20.sol\":3415:3441  _transfer(from, to, value) */\n      tag_230\n        /* \"ERC20.sol\":3425:3429  from */\n      dup5\n        /* \"ERC20.sol\":3431:3433  to */\n      dup5\n        /* \"ERC20.sol\":3435:3440  value */\n      dup5\n        /* \"ERC20.sol\":3415:3424  _transfer */\n      tag_231\n        /* \"ERC20.sol\":3415:3441  _transfer(from, to, value) */\n      jump\t// in\n    tag_230:\n        /* \"ERC20.sol\":3451:3516  _approve(from, msg.sender, _allowed[from][msg.sender].sub(value)) */\n      tag_232\n        /* \"ERC20.sol\":3460:3464  from */\n      dup5\n        /* \"ERC20.sol\":3466:3476  msg.sender */\n      caller\n        /* \"ERC20.sol\":3478:3515  _allowed[from][msg.sender].sub(value) */\n      tag_233\n        /* \"ERC20.sol\":3509:3514  value */\n      dup6\n        /* \"ERC20.sol\":3478:3486  _allowed */\n      0x04\n        /* \"ERC20.sol\":3478:3492  _allowed[from] */\n      0x00\n        /* \"ERC20.sol\":3487:3491  from */\n      dup11\n        /* \"ERC20.sol\":3478:3492  _allowed[from] */\n      0xffffffffffffffffffffffffffffffffffffffff\n      and\n      0xffffffffffffffffffffffffffffffffffffffff\n      and\n      dup2\n      mstore\n      0x20\n      add\n      swap1\n      dup2\n      mstore\n      0x20\n      add\n      0x00\n      keccak256\n        /* \"ERC20.sol\":3478:3504  _allowed[from][msg.sender] */\n      0x00\n        /* \"ERC20.sol\":3493:3503  msg.sender */\n      caller\n        /* \"ERC20.sol\":3478:3504  _allowed[from][msg.sender] */\n      0xffffffffffffffffffffffffffffffffffffffff\n      and\n      0xffffffffffffffffffffffffffffffffffffffff\n      and\n      dup2\n      mstore\n      0x20\n      add\n      swap1\n      dup2\n      mstore\n      0x20\n      add\n      0x00\n      keccak256\n      sload\n        /* \"ERC20.sol\":3478:3508  _allowed[from][msg.sender].sub */\n      tag_234\n      swap1\n        /* \"ERC20.sol\":3478:3515  _allowed[from][msg.sender].sub(value) */\n      swap2\n      swap1\n      0xffffffff\n      and\n      jump\t// in\n    tag_233:\n        /* \"ERC20.sol\":3451:3459  _approve */\n      tag_228\n        /* \"ERC20.sol\":3451:3516  _approve(from, msg.sender, _allowed[from][msg.sender].sub(value)) */\n      jump\t// in\n    tag_232:\n        /* \"ERC20.sol\":3533:3537  true */\n      0x01\n        /* \"ERC20.sol\":3526:3537  return true */\n      swap1\n      pop\n        /* \"ERC20.sol\":3320:3544  function transferFrom(address from, address to, uint256 value) public returns (bool) {... */\n      swap4\n      swap3\n      pop\n      pop\n      pop\n      jump\t// out\n        /* \"ERC20.sol\":4058:4258  function increaseAllowance(address spender, uint256 addedValue) public returns (bool) {... */\n    tag_155:\n        /* \"ERC20.sol\":4138:4142  bool */\n      0x00\n        /* \"ERC20.sol\":4154:4230  _approve(msg.sender, spender, _allowed[msg.sender][spender].add(addedValue)) */\n      tag_236\n        /* \"ERC20.sol\":4163:4173  msg.sender */\n      caller\n        /* \"ERC20.sol\":4175:4182  spender */\n      dup5\n        /* \"ERC20.sol\":4184:4229  _allowed[msg.sender][spender].add(addedValue) */\n      tag_237\n        /* \"ERC20.sol\":4218:4228  addedValue */\n      dup6\n        /* \"ERC20.sol\":4184:4192  _allowed */\n      0x04\n        /* \"ERC20.sol\":4184:4204  _allowed[msg.sender] */\n      0x00\n        /* \"ERC20.sol\":4193:4203  msg.sender */\n      caller\n        /* \"ERC20.sol\":4184:4204  _allowed[msg.sender] */\n      0xffffffffffffffffffffffffffffffffffffffff\n      and\n      0xffffffffffffffffffffffffffffffffffffffff\n      and\n      dup2\n      mstore\n      0x20\n      add\n      swap1\n      dup2\n      mstore\n      0x20\n      add\n      0x00\n      keccak256\n        /* \"ERC20.sol\":4184:4213  _allowed[msg.sender][spender] */\n      0x00\n        /* \"ERC20.sol\":4205:4212  spender */\n      dup10\n        /* \"ERC20.sol\":4184:4213  _allowed[msg.sender][spender] */\n      0xffffffffffffffffffffffffffffffffffffffff\n      and\n      0xffffffffffffffffffffffffffffffffffffffff\n      and\n      dup2\n      mstore\n      0x20\n      add\n      swap1\n      dup2\n      mstore\n      0x20\n      add\n      0x00\n      keccak256\n      sload\n        /* \"ERC20.sol\":4184:4217  _allowed[msg.sender][spender].add */\n      tag_238\n      swap1\n        /* \"ERC20.sol\":4184:4229  _allowed[msg.sender][spender].add(addedValue) */\n      swap2\n      swap1\n      0xffffffff\n      and\n      jump\t// in\n    tag_237:\n        /* \"ERC20.sol\":4154:4162  _approve */\n      tag_228\n        /* \"ERC20.sol\":4154:4230  _approve(msg.sender, spender, _allowed[msg.sender][spender].add(addedValue)) */\n      jump\t// in\n    tag_236:\n        /* \"ERC20.sol\":4247:4251  true */\n      0x01\n        /* \"ERC20.sol\":4240:4251  return true */\n      swap1\n      pop\n        /* \"ERC20.sol\":4058:4258  function increaseAllowance(address spender, uint256 addedValue) public returns (bool) {... */\n      swap3\n      swap2\n      pop\n      pop\n      jump\t// out\n        /* \"ERC20Capped.sol\":432:583  function _mint(address account, uint256 value) internal {... */\n    tag_167:\n        /* \"ERC20Capped.sol\":534:538  _cap */\n      sload(0x07)\n        /* \"ERC20Capped.sol\":506:530  totalSupply().add(value) */\n      tag_240\n        /* \"ERC20Capped.sol\":524:529  value */\n      dup3\n        /* \"ERC20Capped.sol\":506:519  totalSupply() */\n      tag_241\n        /* \"ERC20Capped.sol\":506:517  totalSupply */\n      tag_50\n        /* \"ERC20Capped.sol\":506:519  totalSupply() */\n      jump\t// in\n    tag_241:\n        /* \"ERC20Capped.sol\":506:523  totalSupply().add */\n      tag_238\n      swap1\n        /* \"ERC20Capped.sol\":506:530  totalSupply().add(value) */\n      swap2\n      swap1\n      0xffffffff\n      and\n      jump\t// in\n    tag_240:\n        /* \"ERC20Capped.sol\":506:538  totalSupply().add(value) <= _cap */\n      gt\n      iszero\n        /* \"ERC20Capped.sol\":498:539  require(totalSupply().add(value) <= _cap) */\n      tag_242\n      jumpi\n      0x00\n      dup1\n      revert\n    tag_242:\n        /* \"ERC20Capped.sol\":549:576  super._mint(account, value) */\n      tag_243\n        /* \"ERC20Capped.sol\":561:568  account */\n      dup3\n        /* \"ERC20Capped.sol\":570:575  value */\n      dup3\n        /* \"ERC20Capped.sol\":549:560  super._mint */\n      tag_244\n        /* \"ERC20Capped.sol\":549:576  super._mint(account, value) */\n      jump\t// in\n    tag_243:\n        /* \"ERC20Capped.sol\":432:583  function _mint(address account, uint256 value) internal {... */\n      pop\n      pop\n      jump\t// out\n        /* \"ERC20.sol\":6294:6557  function _burn(address account, uint256 value) internal {... */\n    tag_171:\n        /* \"ERC20.sol\":6387:6388  0 */\n      0x00\n        /* \"ERC20.sol\":6368:6389  account != address(0) */\n      0xffffffffffffffffffffffffffffffffffffffff\n      and\n        /* \"ERC20.sol\":6368:6375  account */\n      dup3\n        /* \"ERC20.sol\":6368:6389  account != address(0) */\n      0xffffffffffffffffffffffffffffffffffffffff\n      and\n      eq\n      iszero\n        /* \"ERC20.sol\":6360:6390  require(account != address(0)) */\n      tag_246\n      jumpi\n      0x00\n      dup1\n      revert\n    tag_246:\n        /* \"ERC20.sol\":6416:6439  _totalSupply.sub(value) */\n      tag_247\n        /* \"ERC20.sol\":6433:6438  value */\n      dup2\n        /* \"ERC20.sol\":6416:6428  _totalSupply */\n      sload(0x05)\n        /* \"ERC20.sol\":6416:6432  _totalSupply.sub */\n      tag_234\n      swap1\n        /* \"ERC20.sol\":6416:6439  _totalSupply.sub(value) */\n      swap2\n      swap1\n      0xffffffff\n      and\n      jump\t// in\n    tag_247:\n        /* \"ERC20.sol\":6401:6413  _totalSupply */\n      0x05\n        /* \"ERC20.sol\":6401:6439  _totalSupply = _totalSupply.sub(value) */\n      dup2\n      swap1\n      sstore\n      pop\n        /* \"ERC20.sol\":6470:6499  _balances[account].sub(value) */\n      tag_248\n        /* \"ERC20.sol\":6493:6498  value */\n      dup2\n        /* \"ERC20.sol\":6470:6479  _balances */\n      0x03\n        /* \"ERC20.sol\":6470:6488  _balances[account] */\n      0x00\n        /* \"ERC20.sol\":6480:6487  account */\n      dup6\n        /* \"ERC20.sol\":6470:6488  _balances[account] */\n      0xffffffffffffffffffffffffffffffffffffffff\n      and\n      0xffffffffffffffffffffffffffffffffffffffff\n      and\n      dup2\n      mstore\n      0x20\n      add\n      swap1\n      dup2\n      mstore\n      0x20\n      add\n      0x00\n      keccak256\n      sload\n        /* \"ERC20.sol\":6470:6492  _balances[account].sub */\n      tag_234\n      swap1\n        /* \"ERC20.sol\":6470:6499  _balances[account].sub(value) */\n      swap2\n      swap1\n      0xffffffff\n      and\n      jump\t// in\n    tag_248:\n        /* \"ERC20.sol\":6449:6458  _balances */\n      0x03\n        /* \"ERC20.sol\":6449:6467  _balances[account] */\n      0x00\n        /* \"ERC20.sol\":6459:6466  account */\n      dup5\n        /* \"ERC20.sol\":6449:6467  _balances[account] */\n      0xffffffffffffffffffffffffffffffffffffffff\n      and\n      0xffffffffffffffffffffffffffffffffffffffff\n      and\n      dup2\n      mstore\n      0x20\n      add\n      swap1\n      dup2\n      mstore\n      0x20\n      add\n      0x00\n      keccak256\n        /* \"ERC20.sol\":6449:6499  _balances[account] = _balances[account].sub(value) */\n      dup2\n      swap1\n      sstore\n      pop\n        /* \"ERC20.sol\":6540:6541  0 */\n      0x00\n        /* \"ERC20.sol\":6514:6550  Transfer(account, address(0), value) */\n      0xffffffffffffffffffffffffffffffffffffffff\n      and\n        /* \"ERC20.sol\":6523:6530  account */\n      dup3\n        /* \"ERC20.sol\":6514:6550  Transfer(account, address(0), value) */\n      0xffffffffffffffffffffffffffffffffffffffff\n      and\n      0xddf252ad1be2c89b69c2b068fc378daa952ba7f163c4a11628f55a4df523b3ef\n        /* \"ERC20.sol\":6544:6549  value */\n      dup4\n        /* \"ERC20.sol\":6514:6550  Transfer(account, address(0), value) */\n      mload(0x40)\n      dup1\n      dup3\n      dup2\n      mstore\n      0x20\n      add\n      swap2\n      pop\n      pop\n      mload(0x40)\n      dup1\n      swap2\n      sub\n      swap1\n      log3\n        /* \"ERC20.sol\":6294:6557  function _burn(address account, uint256 value) internal {... */\n      pop\n      pop\n      jump\t// out\n        /* \"Roles.sol\":786:948  function has(Role storage role, address account) internal view returns (bool) {... */\n    tag_174:\n        /* \"Roles.sol\":858:862  bool */\n      0x00\n        /* \"Roles.sol\":901:902  0 */\n      dup1\n        /* \"Roles.sol\":882:903  account != address(0) */\n      0xffffffffffffffffffffffffffffffffffffffff\n      and\n        /* \"Roles.sol\":882:889  account */\n      dup3\n        /* \"Roles.sol\":882:903  account != address(0) */\n      0xffffffffffffffffffffffffffffffffffffffff\n      and\n      eq\n      iszero\n        /* \"Roles.sol\":874:904  require(account != address(0)) */\n      tag_250\n      jumpi\n      0x00\n      dup1\n      revert\n    tag_250:\n        /* \"Roles.sol\":921:925  role */\n      dup3\n        /* \"Roles.sol\":921:932  role.bearer */\n      0x00\n      add\n        /* \"Roles.sol\":921:941  role.bearer[account] */\n      0x00\n        /* \"Roles.sol\":933:940  account */\n      dup4\n        /* \"Roles.sol\":921:941  role.bearer[account] */\n      0xffffffffffffffffffffffffffffffffffffffff\n      and\n      0xffffffffffffffffffffffffffffffffffffffff\n      and\n      dup2\n      mstore\n      0x20\n      add\n      swap1\n      dup2\n      mstore\n      0x20\n      add\n      0x00\n      keccak256\n      0x00\n      swap1\n      sload\n      swap1\n      0x0100\n      exp\n      swap1\n      div\n      0xff\n      and\n        /* \"Roles.sol\":914:941  return role.bearer[account] */\n      swap1\n      pop\n        /* \"Roles.sol\":786:948  function has(Role storage role, address account) internal view returns (bool) {... */\n      swap3\n      swap2\n      pop\n      pop\n      jump\t// out\n        /* \"PauserRole.sol\":809:936  function _removePauser(address account) internal {... */\n    tag_179:\n        /* \"PauserRole.sol\":868:892  _pausers.remove(account) */\n      tag_252\n        /* \"PauserRole.sol\":884:891  account */\n      dup2\n        /* \"PauserRole.sol\":868:876  _pausers */\n      0x08\n        /* \"PauserRole.sol\":868:883  _pausers.remove */\n      tag_253\n      swap1\n        /* \"PauserRole.sol\":868:892  _pausers.remove(account) */\n      swap2\n      swap1\n      0xffffffff\n      and\n      jump\t// in\n    tag_252:\n        /* \"PauserRole.sol\":921:928  account */\n      dup1\n        /* \"PauserRole.sol\":907:929  PauserRemoved(account) */\n      0xffffffffffffffffffffffffffffffffffffffff\n      and\n      0xcd265ebaf09df2871cc7bd4133404a235ba12eff2041bb89d9c714a2621c7c7e\n      mload(0x40)\n      mload(0x40)\n      dup1\n      swap2\n      sub\n      swap1\n      log2\n        /* \"PauserRole.sol\":809:936  function _removePauser(address account) internal {... */\n      pop\n      jump\t// out\n        /* \"ERC20.sol\":7459:7638  function _burnFrom(address account, uint256 value) internal {... */\n    tag_183:\n        /* \"ERC20.sol\":7529:7550  _burn(account, value) */\n      tag_255\n        /* \"ERC20.sol\":7535:7542  account */\n      dup3\n        /* \"ERC20.sol\":7544:7549  value */\n      dup3\n        /* \"ERC20.sol\":7529:7534  _burn */\n      tag_171\n        /* \"ERC20.sol\":7529:7550  _burn(account, value) */\n      jump\t// in\n    tag_255:\n        /* \"ERC20.sol\":7560:7631  _approve(account, msg.sender, _allowed[account][msg.sender].sub(value)) */\n      tag_256\n        /* \"ERC20.sol\":7569:7576  account */\n      dup3\n        /* \"ERC20.sol\":7578:7588  msg.sender */\n      caller\n        /* \"ERC20.sol\":7590:7630  _allowed[account][msg.sender].sub(value) */\n      tag_257\n        /* \"ERC20.sol\":7624:7629  value */\n      dup5\n        /* \"ERC20.sol\":7590:7598  _allowed */\n      0x04\n        /* \"ERC20.sol\":7590:7607  _allowed[account] */\n      0x00\n        /* \"ERC20.sol\":7599:7606  account */\n      dup9\n        /* \"ERC20.sol\":7590:7607  _allowed[account] */\n      0xffffffffffffffffffffffffffffffffffffffff\n      and\n      0xffffffffffffffffffffffffffffffffffffffff\n      and\n      dup2\n      mstore\n      0x20\n      add\n      swap1\n      dup2\n      mstore\n      0x20\n      add\n      0x00\n      keccak256\n        /* \"ERC20.sol\":7590:7619  _allowed[account][msg.sender] */\n      0x00\n        /* \"ERC20.sol\":7608:7618  msg.sender */\n      caller\n        /* \"ERC20.sol\":7590:7619  _allowed[account][msg.sender] */\n      0xffffffffffffffffffffffffffffffffffffffff\n      and\n      0xffffffffffffffffffffffffffffffffffffffff\n      and\n      dup2\n      mstore\n      0x20\n      add\n      swap1\n      dup2\n      mstore\n      0x20\n      add\n      0x00\n      keccak256\n      sload\n        /* \"ERC20.sol\":7590:7623  _allowed[account][msg.sender].sub */\n      tag_234\n      swap1\n        /* \"ERC20.sol\":7590:7630  _allowed[account][msg.sender].sub(value) */\n      swap2\n      swap1\n      0xffffffff\n      and\n      jump\t// in\n    tag_257:\n        /* \"ERC20.sol\":7560:7568  _approve */\n      tag_228\n        /* \"ERC20.sol\":7560:7631  _approve(account, msg.sender, _allowed[account][msg.sender].sub(value)) */\n      jump\t// in\n    tag_256:\n        /* \"ERC20.sol\":7459:7638  function _burnFrom(address account, uint256 value) internal {... */\n      pop\n      pop\n      jump\t// out\n        /* \"PauserRole.sol\":684:803  function _addPauser(address account) internal {... */\n    tag_189:\n        /* \"PauserRole.sol\":740:761  _pausers.add(account) */\n      tag_259\n        /* \"PauserRole.sol\":753:760  account */\n      dup2\n        /* \"PauserRole.sol\":740:748  _pausers */\n      0x08\n        /* \"PauserRole.sol\":740:752  _pausers.add */\n      tag_260\n      swap1\n        /* \"PauserRole.sol\":740:761  _pausers.add(account) */\n      swap2\n      swap1\n      0xffffffff\n      and\n      jump\t// in\n    tag_259:\n        /* \"PauserRole.sol\":788:795  account */\n      dup1\n        /* \"PauserRole.sol\":776:796  PauserAdded(account) */\n      0xffffffffffffffffffffffffffffffffffffffff\n      and\n      0x6719d08c1888103bea251a4ed56406bd0c3e69723c8a1686e017e7bbe159b6f8\n      mload(0x40)\n      mload(0x40)\n      dup1\n      swap2\n      sub\n      swap1\n      log2\n        /* \"PauserRole.sol\":684:803  function _addPauser(address account) internal {... */\n      pop\n      jump\t// out\n        /* \"MinterRole.sol\":684:803  function _addMinter(address account) internal {... */\n    tag_205:\n        /* \"MinterRole.sol\":740:761  _minters.add(account) */\n      tag_262\n        /* \"MinterRole.sol\":753:760  account */\n      dup2\n        /* \"MinterRole.sol\":740:748  _minters */\n      0x06\n        /* \"MinterRole.sol\":740:752  _minters.add */\n      tag_260\n      swap1\n        /* \"MinterRole.sol\":740:761  _minters.add(account) */\n      swap2\n      swap1\n      0xffffffff\n      and\n      jump\t// in\n    tag_262:\n        /* \"MinterRole.sol\":788:795  account */\n      dup1\n        /* \"MinterRole.sol\":776:796  MinterAdded(account) */\n      0xffffffffffffffffffffffffffffffffffffffff\n      and\n      0x6ae172837ea30b801fbfcdd4108aa1d5bf8ff775444fd70256b44e6bf3dfc3f6\n      mload(0x40)\n      mload(0x40)\n      dup1\n      swap2\n      sub\n      swap1\n      log2\n        /* \"MinterRole.sol\":684:803  function _addMinter(address account) internal {... */\n      pop\n      jump\t// out\n        /* \"MinterRole.sol\":809:936  function _removeMinter(address account) internal {... */\n    tag_208:\n        /* \"MinterRole.sol\":868:892  _minters.remove(account) */\n      tag_264\n        /* \"MinterRole.sol\":884:891  account */\n      dup2\n        /* \"MinterRole.sol\":868:876  _minters */\n      0x06\n        /* \"MinterRole.sol\":868:883  _minters.remove */\n      tag_253\n      swap1\n        /* \"MinterRole.sol\":868:892  _minters.remove(account) */\n      swap2\n      swap1\n      0xffffffff\n      and\n      jump\t// in\n    tag_264:\n        /* \"MinterRole.sol\":921:928  account */\n      dup1\n        /* \"MinterRole.sol\":907:929  MinterRemoved(account) */\n      0xffffffffffffffffffffffffffffffffffffffff\n      and\n      0xe94479a9f7e1952cc78f2d6baab678adc1b772d936c6583def489e524cb66692\n      mload(0x40)\n      mload(0x40)\n      dup1\n      swap2\n      sub\n      swap1\n      log2\n        /* \"MinterRole.sol\":809:936  function _removeMinter(address account) internal {... */\n      pop\n      jump\t// out\n        /* \"ERC20.sol\":4777:4987  function decreaseAllowance(address spender, uint256 subtractedValue) public returns (bool) {... */\n    tag_213:\n        /* \"ERC20.sol\":4862:4866  bool */\n      0x00\n        /* \"ERC20.sol\":4878:4959  _approve(msg.sender, spender, _allowed[msg.sender][spender].sub(subtractedValue)) */\n      tag_266\n        /* \"ERC20.sol\":4887:4897  msg.sender */\n      caller\n        /* \"ERC20.sol\":4899:4906  spender */\n      dup5\n        /* \"ERC20.sol\":4908:4958  _allowed[msg.sender][spender].sub(subtractedValue) */\n      tag_267\n        /* \"ERC20.sol\":4942:4957  subtractedValue */\n      dup6\n        /* \"ERC20.sol\":4908:4916  _allowed */\n      0x04\n        /* \"ERC20.sol\":4908:4928  _allowed[msg.sender] */\n      0x00\n        /* \"ERC20.sol\":4917:4927  msg.sender */\n      caller\n        /* \"ERC20.sol\":4908:4928  _allowed[msg.sender] */\n      0xffffffffffffffffffffffffffffffffffffffff\n      and\n      0xffffffffffffffffffffffffffffffffffffffff\n      and\n      dup2\n      mstore\n      0x20\n      add\n      swap1\n      dup2\n      mstore\n      0x20\n      add\n      0x00\n      keccak256\n        /* \"ERC20.sol\":4908:4937  _allowed[msg.sender][spender] */\n      0x00\n        /* \"ERC20.sol\":4929:4936  spender */\n      dup10\n        /* \"ERC20.sol\":4908:4937  _allowed[msg.sender][spender] */\n      0xffffffffffffffffffffffffffffffffffffffff\n      and\n      0xffffffffffffffffffffffffffffffffffffffff\n      and\n      dup2\n      mstore\n      0x20\n      add\n      swap1\n      dup2\n      mstore\n      0x20\n      add\n      0x00\n      keccak256\n      sload\n        /* \"ERC20.sol\":4908:4941  _allowed[msg.sender][spender].sub */\n      tag_234\n      swap1\n        /* \"ERC20.sol\":4908:4958  _allowed[msg.sender][spender].sub(subtractedValue) */\n      swap2\n      swap1\n      0xffffffff\n      and\n      jump\t// in\n    tag_267:\n        /* \"ERC20.sol\":4878:4886  _approve */\n      tag_228\n        /* \"ERC20.sol\":4878:4959  _approve(msg.sender, spender, _allowed[msg.sender][spender].sub(subtractedValue)) */\n      jump\t// in\n    tag_266:\n        /* \"ERC20.sol\":4976:4980  true */\n      0x01\n        /* \"ERC20.sol\":4969:4980  return true */\n      swap1\n      pop\n        /* \"ERC20.sol\":4777:4987  function decreaseAllowance(address spender, uint256 subtractedValue) public returns (bool) {... */\n      swap3\n      swap2\n      pop\n      pop\n      jump\t// out\n        /* \"ERC20.sol\":1939:2076  function transfer(address to, uint256 value) public returns (bool) {... */\n    tag_218:\n        /* \"ERC20.sol\":2000:2004  bool */\n      0x00\n        /* \"ERC20.sol\":2016:2048  _transfer(msg.sender, to, value) */\n      tag_269\n        /* \"ERC20.sol\":2026:2036  msg.sender */\n      caller\n        /* \"ERC20.sol\":2038:2040  to */\n      dup5\n        /* \"ERC20.sol\":2042:2047  value */\n      dup5\n        /* \"ERC20.sol\":2016:2025  _transfer */\n      tag_231\n        /* \"ERC20.sol\":2016:2048  _transfer(msg.sender, to, value) */\n      jump\t// in\n    tag_269:\n        /* \"ERC20.sol\":2065:2069  true */\n      0x01\n        /* \"ERC20.sol\":2058:2069  return true */\n      swap1\n      pop\n        /* \"ERC20.sol\":1939:2076  function transfer(address to, uint256 value) public returns (bool) {... */\n      swap3\n      swap2\n      pop\n      pop\n      jump\t// out\n        /* \"ERC20.sol\":6822:7070  function _approve(address owner, address spender, uint256 value) internal {... */\n    tag_228:\n        /* \"ERC20.sol\":6933:6934  0 */\n      0x00\n        /* \"ERC20.sol\":6914:6935  spender != address(0) */\n      0xffffffffffffffffffffffffffffffffffffffff\n      and\n        /* \"ERC20.sol\":6914:6921  spender */\n      dup3\n        /* \"ERC20.sol\":6914:6935  spender != address(0) */\n      0xffffffffffffffffffffffffffffffffffffffff\n      and\n      eq\n      iszero\n        /* \"ERC20.sol\":6906:6936  require(spender != address(0)) */\n      tag_271\n      jumpi\n      0x00\n      dup1\n      revert\n    tag_271:\n        /* \"ERC20.sol\":6971:6972  0 */\n      0x00\n        /* \"ERC20.sol\":6954:6973  owner != address(0) */\n      0xffffffffffffffffffffffffffffffffffffffff\n      and\n        /* \"ERC20.sol\":6954:6959  owner */\n      dup4\n        /* \"ERC20.sol\":6954:6973  owner != address(0) */\n      0xffffffffffffffffffffffffffffffffffffffff\n      and\n      eq\n      iszero\n        /* \"ERC20.sol\":6946:6974  require(owner != address(0)) */\n      tag_272\n      jumpi\n      0x00\n      dup1\n      revert\n    tag_272:\n        /* \"ERC20.sol\":7012:7017  value */\n      dup1\n        /* \"ERC20.sol\":6985:6993  _allowed */\n      0x04\n        /* \"ERC20.sol\":6985:7000  _allowed[owner] */\n      0x00\n        /* \"ERC20.sol\":6994:6999  owner */\n      dup6\n        /* \"ERC20.sol\":6985:7000  _allowed[owner] */\n      0xffffffffffffffffffffffffffffffffffffffff\n      and\n      0xffffffffffffffffffffffffffffffffffffffff\n      and\n      dup2\n      mstore\n      0x20\n      add\n      swap1\n      dup2\n      mstore\n      0x20\n      add\n      0x00\n      keccak256\n        /* \"ERC20.sol\":6985:7009  _allowed[owner][spender] */\n      0x00\n        /* \"ERC20.sol\":7001:7008  spender */\n      dup5\n        /* \"ERC20.sol\":6985:7009  _allowed[owner][spender] */\n      0xffffffffffffffffffffffffffffffffffffffff\n      and\n      0xffffffffffffffffffffffffffffffffffffffff\n      and\n      dup2\n      mstore\n      0x20\n      add\n      swap1\n      dup2\n      mstore\n      0x20\n      add\n      0x00\n      keccak256\n        /* \"ERC20.sol\":6985:7017  _allowed[owner][spender] = value */\n      dup2\n      swap1\n      sstore\n      pop\n        /* \"ERC20.sol\":7048:7055  spender */\n      dup2\n        /* \"ERC20.sol\":7032:7063  Approval(owner, spender, value) */\n      0xffffffffffffffffffffffffffffffffffffffff\n      and\n        /* \"ERC20.sol\":7041:7046  owner */\n      dup4\n        /* \"ERC20.sol\":7032:7063  Approval(owner, spender, value) */\n      0xffffffffffffffffffffffffffffffffffffffff\n      and\n      0x8c5be1e5ebec7d5bd14f71427d1e84f3dd0314c0f7b2291e5b200ac8c7c3b925\n        /* \"ERC20.sol\":7057:7062  value */\n      dup4\n        /* \"ERC20.sol\":7032:7063  Approval(owner, spender, value) */\n      mload(0x40)\n      dup1\n      dup3\n      dup2\n      mstore\n      0x20\n      add\n      swap2\n      pop\n      pop\n      mload(0x40)\n      dup1\n      swap2\n      sub\n      swap1\n      log3\n        /* \"ERC20.sol\":6822:7070  function _approve(address owner, address spender, uint256 value) internal {... */\n      pop\n      pop\n      pop\n      jump\t// out\n        /* \"ERC20.sol\":5206:5462  function _transfer(address from, address to, uint256 value) internal {... */\n    tag_231:\n        /* \"ERC20.sol\":5307:5308  0 */\n      0x00\n        /* \"ERC20.sol\":5293:5309  to != address(0) */\n      0xffffffffffffffffffffffffffffffffffffffff\n      and\n        /* \"ERC20.sol\":5293:5295  to */\n      dup3\n        /* \"ERC20.sol\":5293:5309  to != address(0) */\n      0xffffffffffffffffffffffffffffffffffffffff\n      and\n      eq\n      iszero\n        /* \"ERC20.sol\":5285:5310  require(to != address(0)) */\n      tag_274\n      jumpi\n      0x00\n      dup1\n      revert\n    tag_274:\n        /* \"ERC20.sol\":5339:5365  _balances[from].sub(value) */\n      tag_275\n        /* \"ERC20.sol\":5359:5364  value */\n      dup2\n        /* \"ERC20.sol\":5339:5348  _balances */\n      0x03\n        /* \"ERC20.sol\":5339:5354  _balances[from] */\n      0x00\n        /* \"ERC20.sol\":5349:5353  from */\n      dup7\n        /* \"ERC20.sol\":5339:5354  _balances[from] */\n      0xffffffffffffffffffffffffffffffffffffffff\n      and\n      0xffffffffffffffffffffffffffffffffffffffff\n      and\n      dup2\n      mstore\n      0x20\n      add\n      swap1\n      dup2\n      mstore\n      0x20\n      add\n      0x00\n      keccak256\n      sload\n        /* \"ERC20.sol\":5339:5358  _balances[from].sub */\n      tag_234\n      swap1\n        /* \"ERC20.sol\":5339:5365  _balances[from].sub(value) */\n      swap2\n      swap1\n      0xffffffff\n      and\n      jump\t// in\n    tag_275:\n        /* \"ERC20.sol\":5321:5330  _balances */\n      0x03\n        /* \"ERC20.sol\":5321:5336  _balances[from] */\n      0x00\n        /* \"ERC20.sol\":5331:5335  from */\n      dup6\n        /* \"ERC20.sol\":5321:5336  _balances[from] */\n      0xffffffffffffffffffffffffffffffffffffffff\n      and\n      0xffffffffffffffffffffffffffffffffffffffff\n      and\n      dup2\n      mstore\n      0x20\n      add\n      swap1\n      dup2\n      mstore\n      0x20\n      add\n      0x00\n      keccak256\n        /* \"ERC20.sol\":5321:5365  _balances[from] = _balances[from].sub(value) */\n      dup2\n      swap1\n      sstore\n      pop\n        /* \"ERC20.sol\":5391:5415  _balances[to].add(value) */\n      tag_276\n        /* \"ERC20.sol\":5409:5414  value */\n      dup2\n        /* \"ERC20.sol\":5391:5400  _balances */\n      0x03\n        /* \"ERC20.sol\":5391:5404  _balances[to] */\n      0x00\n        /* \"ERC20.sol\":5401:5403  to */\n      dup6\n        /* \"ERC20.sol\":5391:5404  _balances[to] */\n      0xffffffffffffffffffffffffffffffffffffffff\n      and\n      0xffffffffffffffffffffffffffffffffffffffff\n      and\n      dup2\n      mstore\n      0x20\n      add\n      swap1\n      dup2\n      mstore\n      0x20\n      add\n      0x00\n      keccak256\n      sload\n        /* \"ERC20.sol\":5391:5408  _balances[to].add */\n      tag_238\n      swap1\n        /* \"ERC20.sol\":5391:5415  _balances[to].add(value) */\n      swap2\n      swap1\n      0xffffffff\n      and\n      jump\t// in\n    tag_276:\n        /* \"ERC20.sol\":5375:5384  _balances */\n      0x03\n        /* \"ERC20.sol\":5375:5388  _balances[to] */\n      0x00\n        /* \"ERC20.sol\":5385:5387  to */\n      dup5\n        /* \"ERC20.sol\":5375:5388  _balances[to] */\n      0xffffffffffffffffffffffffffffffffffffffff\n      and\n      0xffffffffffffffffffffffffffffffffffffffff\n      and\n      dup2\n      mstore\n      0x20\n      add\n      swap1\n      dup2\n      mstore\n      0x20\n      add\n      0x00\n      keccak256\n        /* \"ERC20.sol\":5375:5415  _balances[to] = _balances[to].add(value) */\n      dup2\n      swap1\n      sstore\n      pop\n        /* \"ERC20.sol\":5445:5447  to */\n      dup2\n        /* \"ERC20.sol\":5430:5455  Transfer(from, to, value) */\n      0xffffffffffffffffffffffffffffffffffffffff\n      and\n        /* \"ERC20.sol\":5439:5443  from */\n      dup4\n        /* \"ERC20.sol\":5430:5455  Transfer(from, to, value) */\n      0xffffffffffffffffffffffffffffffffffffffff\n      and\n      0xddf252ad1be2c89b69c2b068fc378daa952ba7f163c4a11628f55a4df523b3ef\n        /* \"ERC20.sol\":5449:5454  value */\n      dup4\n        /* \"ERC20.sol\":5430:5455  Transfer(from, to, value) */\n      mload(0x40)\n      dup1\n      dup3\n      dup2\n      mstore\n      0x20\n      add\n      swap2\n      pop\n      pop\n      mload(0x40)\n      dup1\n      swap2\n      sub\n      swap1\n      log3\n        /* \"ERC20.sol\":5206:5462  function _transfer(address from, address to, uint256 value) internal {... */\n      pop\n      pop\n      pop\n      jump\t// out\n        /* \"SafeMath.sol\":1211:1356  function sub(uint256 a, uint256 b) internal pure returns (uint256) {... */\n    tag_234:\n        /* \"SafeMath.sol\":1269:1276  uint256 */\n      0x00\n        /* \"SafeMath.sol\":1301:1302  a */\n      dup3\n        /* \"SafeMath.sol\":1296:1297  b */\n      dup3\n        /* \"SafeMath.sol\":1296:1302  b <= a */\n      gt\n      iszero\n        /* \"SafeMath.sol\":1288:1303  require(b <= a) */\n      tag_278\n      jumpi\n      0x00\n      dup1\n      revert\n    tag_278:\n        /* \"SafeMath.sol\":1313:1322  uint256 c */\n      0x00\n        /* \"SafeMath.sol\":1329:1330  b */\n      dup3\n        /* \"SafeMath.sol\":1325:1326  a */\n      dup5\n        /* \"SafeMath.sol\":1325:1330  a - b */\n      sub\n        /* \"SafeMath.sol\":1313:1330  uint256 c = a - b */\n      swap1\n      pop\n        /* \"SafeMath.sol\":1348:1349  c */\n      dup1\n        /* \"SafeMath.sol\":1341:1349  return c */\n      swap2\n      pop\n      pop\n        /* \"SafeMath.sol\":1211:1356  function sub(uint256 a, uint256 b) internal pure returns (uint256) {... */\n      swap3\n      swap2\n      pop\n      pop\n      jump\t// out\n        /* \"SafeMath.sol\":1439:1584  function add(uint256 a, uint256 b) internal pure returns (uint256) {... */\n    tag_238:\n        /* \"SafeMath.sol\":1497:1504  uint256 */\n      0x00\n        /* \"SafeMath.sol\":1516:1525  uint256 c */\n      dup1\n        /* \"SafeMath.sol\":1532:1533  b */\n      dup3\n        /* \"SafeMath.sol\":1528:1529  a */\n      dup5\n        /* \"SafeMath.sol\":1528:1533  a + b */\n      add\n        /* \"SafeMath.sol\":1516:1533  uint256 c = a + b */\n      swap1\n      pop\n        /* \"SafeMath.sol\":1556:1557  a */\n      dup4\n        /* \"SafeMath.sol\":1551:1552  c */\n      dup2\n        /* \"SafeMath.sol\":1551:1557  c >= a */\n      lt\n      iszero\n        /* \"SafeMath.sol\":1543:1558  require(c >= a) */\n      tag_280\n      jumpi\n      0x00\n      dup1\n      revert\n    tag_280:\n        /* \"SafeMath.sol\":1576:1577  c */\n      dup1\n        /* \"SafeMath.sol\":1569:1577  return c */\n      swap2\n      pop\n      pop\n        /* \"SafeMath.sol\":1439:1584  function add(uint256 a, uint256 b) internal pure returns (uint256) {... */\n      swap3\n      swap2\n      pop\n      pop\n      jump\t// out\n        /* \"ERC20.sol\":5805:6068  function _mint(address account, uint256 value) internal {... */\n    tag_244:\n        /* \"ERC20.sol\":5898:5899  0 */\n      0x00\n        /* \"ERC20.sol\":5879:5900  account != address(0) */\n      0xffffffffffffffffffffffffffffffffffffffff\n      and\n        /* \"ERC20.sol\":5879:5886  account */\n      dup3\n        /* \"ERC20.sol\":5879:5900  account != address(0) */\n      0xffffffffffffffffffffffffffffffffffffffff\n      and\n      eq\n      iszero\n        /* \"ERC20.sol\":5871:5901  require(account != address(0)) */\n      tag_282\n      jumpi\n      0x00\n      dup1\n      revert\n    tag_282:\n        /* \"ERC20.sol\":5927:5950  _totalSupply.add(value) */\n      tag_283\n        /* \"ERC20.sol\":5944:5949  value */\n      dup2\n        /* \"ERC20.sol\":5927:5939  _totalSupply */\n      sload(0x05)\n        /* \"ERC20.sol\":5927:5943  _totalSupply.add */\n      tag_238\n      swap1\n        /* \"ERC20.sol\":5927:5950  _totalSupply.add(value) */\n      swap2\n      swap1\n      0xffffffff\n      and\n      jump\t// in\n    tag_283:\n        /* \"ERC20.sol\":5912:5924  _totalSupply */\n      0x05\n        /* \"ERC20.sol\":5912:5950  _totalSupply = _totalSupply.add(value) */\n      dup2\n      swap1\n      sstore\n      pop\n        /* \"ERC20.sol\":5981:6010  _balances[account].add(value) */\n      tag_284\n        /* \"ERC20.sol\":6004:6009  value */\n      dup2\n        /* \"ERC20.sol\":5981:5990  _balances */\n      0x03\n        /* \"ERC20.sol\":5981:5999  _balances[account] */\n      0x00\n        /* \"ERC20.sol\":5991:5998  account */\n      dup6\n        /* \"ERC20.sol\":5981:5999  _balances[account] */\n      0xffffffffffffffffffffffffffffffffffffffff\n      and\n      0xffffffffffffffffffffffffffffffffffffffff\n      and\n      dup2\n      mstore\n      0x20\n      add\n      swap1\n      dup2\n      mstore\n      0x20\n      add\n      0x00\n      keccak256\n      sload\n        /* \"ERC20.sol\":5981:6003  _balances[account].add */\n      tag_238\n      swap1\n        /* \"ERC20.sol\":5981:6010  _balances[account].add(value) */\n      swap2\n      swap1\n      0xffffffff\n      and\n      jump\t// in\n    tag_284:\n        /* \"ERC20.sol\":5960:5969  _balances */\n      0x03\n        /* \"ERC20.sol\":5960:5978  _balances[account] */\n      0x00\n        /* \"ERC20.sol\":5970:5977  account */\n      dup5\n        /* \"ERC20.sol\":5960:5978  _balances[account] */\n      0xffffffffffffffffffffffffffffffffffffffff\n      and\n      0xffffffffffffffffffffffffffffffffffffffff\n      and\n      dup2\n      mstore\n      0x20\n      add\n      swap1\n      dup2\n      mstore\n      0x20\n      add\n      0x00\n      keccak256\n        /* \"ERC20.sol\":5960:6010  _balances[account] = _balances[account].add(value) */\n      dup2\n      swap1\n      sstore\n      pop\n        /* \"ERC20.sol\":6046:6053  account */\n      dup2\n        /* \"ERC20.sol\":6025:6061  Transfer(address(0), account, value) */\n      0xffffffffffffffffffffffffffffffffffffffff\n      and\n        /* \"ERC20.sol\":6042:6043  0 */\n      0x00\n        /* \"ERC20.sol\":6025:6061  Transfer(address(0), account, value) */\n      0xffffffffffffffffffffffffffffffffffffffff\n      and\n      0xddf252ad1be2c89b69c2b068fc378daa952ba7f163c4a11628f55a4df523b3ef\n        /* \"ERC20.sol\":6055:6060  value */\n      dup4\n        /* \"ERC20.sol\":6025:6061  Transfer(address(0), account, value) */\n      mload(0x40)\n      dup1\n      dup3\n      dup2\n      mstore\n      0x20\n      add\n      swap2\n      pop\n      pop\n      mload(0x40)\n      dup1\n      swap2\n      sub\n      swap1\n      log3\n        /* \"ERC20.sol\":5805:6068  function _mint(address account, uint256 value) internal {... */\n      pop\n      pop\n      jump\t// out\n        /* \"Roles.sol\":514:698  function remove(Role storage role, address account) internal {... */\n    tag_253:\n        /* \"Roles.sol\":612:613  0 */\n      0x00\n        /* \"Roles.sol\":593:614  account != address(0) */\n      0xffffffffffffffffffffffffffffffffffffffff\n      and\n        /* \"Roles.sol\":593:600  account */\n      dup2\n        /* \"Roles.sol\":593:614  account != address(0) */\n      0xffffffffffffffffffffffffffffffffffffffff\n      and\n      eq\n      iszero\n        /* \"Roles.sol\":585:615  require(account != address(0)) */\n      tag_286\n      jumpi\n      0x00\n      dup1\n      revert\n    tag_286:\n        /* \"Roles.sol\":633:651  has(role, account) */\n      tag_287\n        /* \"Roles.sol\":637:641  role */\n      dup3\n        /* \"Roles.sol\":643:650  account */\n      dup3\n        /* \"Roles.sol\":633:636  has */\n      tag_174\n        /* \"Roles.sol\":633:651  has(role, account) */\n      jump\t// in\n    tag_287:\n        /* \"Roles.sol\":625:652  require(has(role, account)) */\n      tag_288\n      jumpi\n      0x00\n      dup1\n      revert\n    tag_288:\n        /* \"Roles.sol\":686:691  false */\n      0x00\n        /* \"Roles.sol\":663:667  role */\n      dup3\n        /* \"Roles.sol\":663:674  role.bearer */\n      0x00\n      add\n        /* \"Roles.sol\":663:683  role.bearer[account] */\n      0x00\n        /* \"Roles.sol\":675:682  account */\n      dup4\n        /* \"Roles.sol\":663:683  role.bearer[account] */\n      0xffffffffffffffffffffffffffffffffffffffff\n      and\n      0xffffffffffffffffffffffffffffffffffffffff\n      and\n      dup2\n      mstore\n      0x20\n      add\n      swap1\n      dup2\n      mstore\n      0x20\n      add\n      0x00\n      keccak256\n      0x00\n        /* \"Roles.sol\":663:691  role.bearer[account] = false */\n      0x0100\n      exp\n      dup2\n      sload\n      dup2\n      0xff\n      mul\n      not\n      and\n      swap1\n      dup4\n      iszero\n      iszero\n      mul\n      or\n      swap1\n      sstore\n      pop\n        /* \"Roles.sol\":514:698  function remove(Role storage role, address account) internal {... */\n      pop\n      pop\n      jump\t// out\n        /* \"Roles.sol\":259:440  function add(Role storage role, address account) internal {... */\n    tag_260:\n        /* \"Roles.sol\":354:355  0 */\n      0x00\n        /* \"Roles.sol\":335:356  account != address(0) */\n      0xffffffffffffffffffffffffffffffffffffffff\n      and\n        /* \"Roles.sol\":335:342  account */\n      dup2\n        /* \"Roles.sol\":335:356  account != address(0) */\n      0xffffffffffffffffffffffffffffffffffffffff\n      and\n      eq\n      iszero\n        /* \"Roles.sol\":327:357  require(account != address(0)) */\n      tag_290\n      jumpi\n      0x00\n      dup1\n      revert\n    tag_290:\n        /* \"Roles.sol\":376:394  has(role, account) */\n      tag_291\n        /* \"Roles.sol\":380:384  role */\n      dup3\n        /* \"Roles.sol\":386:393  account */\n      dup3\n        /* \"Roles.sol\":376:379  has */\n      tag_174\n        /* \"Roles.sol\":376:394  has(role, account) */\n      jump\t// in\n    tag_291:\n        /* \"Roles.sol\":375:394  !has(role, account) */\n      iszero\n        /* \"Roles.sol\":367:395  require(!has(role, account)) */\n      tag_292\n      jumpi\n      0x00\n      dup1\n      revert\n    tag_292:\n        /* \"Roles.sol\":429:433  true */\n      0x01\n        /* \"Roles.sol\":406:410  role */\n      dup3\n        /* \"Roles.sol\":406:417  role.bearer */\n      0x00\n      add\n        /* \"Roles.sol\":406:426  role.bearer[account] */\n      0x00\n        /* \"Roles.sol\":418:425  account */\n      dup4\n        /* \"Roles.sol\":406:426  role.bearer[account] */\n      0xffffffffffffffffffffffffffffffffffffffff\n      and\n      0xffffffffffffffffffffffffffffffffffffffff\n      and\n      dup2\n      mstore\n      0x20\n      add\n      swap1\n      dup2\n      mstore\n      0x20\n      add\n      0x00\n      keccak256\n      0x00\n        /* \"Roles.sol\":406:433  role.bearer[account] = true */\n      0x0100\n      exp\n      dup2\n      sload\n      dup2\n      0xff\n      mul\n      not\n      and\n      swap1\n      dup4\n      iszero\n      iszero\n      mul\n      or\n      swap1\n      sstore\n      pop\n        /* \"Roles.sol\":259:440  function add(Role storage role, address account) internal {... */\n      pop\n      pop\n      jump\t// out\n\n    auxdata: 0xa265627a7a72305820e4ca08a6fb2569a4f3f6293cb87eceb64bd7ba167bf58637a81d55463bf7027764736f6c634300050a0032\n}\n","bytecode":{"linkReferences":{},"object":"60806040523480156200001157600080fd5b506b1d6757f47b1c8ef70c0000006040518060400160405280600881526020017f45726120537761700000000000000000000000000000000000000000000000008152506040518060400160405280600281526020017f455300000000000000000000000000000000000000000000000000000000000081525060128260009080519060200190620000a59291906200059d565b508160019080519060200190620000be9291906200059d565b5080600260006101000a81548160ff021916908360ff160217905550505050620000ee336200015560201b60201c565b60008111620000fc57600080fd5b80600781905550506200011533620001b660201b60201c565b6000600960006101000a81548160ff0219169083151502179055506200014e336b02f0bbfed91c74b24e0000006200021760201b60201c565b506200064c565b620001708160066200025060201b62001bdf1790919060201c565b8073ffffffffffffffffffffffffffffffffffffffff167f6ae172837ea30b801fbfcdd4108aa1d5bf8ff775444fd70256b44e6bf3dfc3f660405160405180910390a250565b620001d18160086200025060201b62001bdf1790919060201c565b8073ffffffffffffffffffffffffffffffffffffffff167f6719d08c1888103bea251a4ed56406bd0c3e69723c8a1686e017e7bbe159b6f860405160405180910390a250565b60006200022a336200030660201b60201c565b6200023457600080fd5b6200024683836200032a60201b60201c565b6001905092915050565b600073ffffffffffffffffffffffffffffffffffffffff168173ffffffffffffffffffffffffffffffffffffffff1614156200028b57600080fd5b6200029d82826200037d60201b60201c565b15620002a857600080fd5b60018260000160008373ffffffffffffffffffffffffffffffffffffffff1673ffffffffffffffffffffffffffffffffffffffff16815260200190815260200160002060006101000a81548160ff0219169083151502179055505050565b6000620003238260066200037d60201b620013171790919060201c565b9050919050565b6007546200035682620003426200041060201b60201c565b6200041a60201b620019c11790919060201c565b11156200036257600080fd5b6200037982826200043a60201b620019e01760201c565b5050565b60008073ffffffffffffffffffffffffffffffffffffffff168273ffffffffffffffffffffffffffffffffffffffff161415620003b957600080fd5b8260000160008373ffffffffffffffffffffffffffffffffffffffff1673ffffffffffffffffffffffffffffffffffffffff16815260200190815260200160002060009054906101000a900460ff16905092915050565b6000600554905090565b6000808284019050838110156200043057600080fd5b8091505092915050565b600073ffffffffffffffffffffffffffffffffffffffff168273ffffffffffffffffffffffffffffffffffffffff1614156200047557600080fd5b62000491816005546200041a60201b620019c11790919060201c565b600581905550620004f081600360008573ffffffffffffffffffffffffffffffffffffffff1673ffffffffffffffffffffffffffffffffffffffff168152602001908152602001600020546200041a60201b620019c11790919060201c565b600360008473ffffffffffffffffffffffffffffffffffffffff1673ffffffffffffffffffffffffffffffffffffffff168152602001908152602001600020819055508173ffffffffffffffffffffffffffffffffffffffff16600073ffffffffffffffffffffffffffffffffffffffff167fddf252ad1be2c89b69c2b068fc378daa952ba7f163c4a11628f55a4df523b3ef836040518082815260200191505060405180910390a35050565b828054600181600116156101000203166002900490600052602060002090601f016020900481019282601f10620005e057805160ff191683800117855562000611565b8280016001018555821562000611579182015b8281111562000610578251825591602001919060010190620005f3565b5b50905062000620919062000624565b5090565b6200064991905b80821115620006455760008160009055506001016200062b565b5090565b90565b611cc0806200065c6000396000f3fe608060405234801561001057600080fd5b50600436106101da5760003560e01c80636ef8d66d1161010457806398650275116100a2578063b015fbb211610071578063b015fbb2146108df578063b81f90f31461090d578063dd62ed3e1461092b578063e91c3c10146109a3576101da565b806398650275146107ad578063a457c2d7146107b7578063a9059cbb1461081d578063aa271e1a14610883576101da565b806382dc1ec4116100de57806382dc1ec4146106985780638456cb59146106dc57806395d89b41146106e6578063983b2d5614610769576101da565b80636ef8d66d146105e857806370a08231146105f257806379cc67901461064a576101da565b8063395093511161017c57806342966c681161014b57806342966c681461050e57806346fbf68e1461053c5780635c975abb146105985780636316467e146105ba576101da565b8063395093511461040a5780633f4ba83a1461047057806340c10f191461047a578063415f4c1b146104e0576101da565b806323b872dd116101b857806323b872dd146102e6578063313ce5671461036c578063355274ea14610390578063382b5e45146103ae576101da565b806306fdde03146101df578063095ea7b31461026257806318160ddd146102c8575b600080fd5b6101e76109c1565b6040518080602001828103825283818151815260200191508051906020019080838360005b8381101561022757808201518184015260208101905061020c565b50505050905090810190601f1680156102545780820380516001836020036101000a031916815260200191505b509250505060405180910390f35b6102ae6004803603604081101561027857600080fd5b81019080803573ffffffffffffffffffffffffffffffffffffffff16906020019092919080359060200190929190505050610a63565b604051808215151515815260200191505060405180910390f35b6102d0610a91565b6040518082815260200191505060405180910390f35b610352600480360360608110156102fc57600080fd5b81019080803573ffffffffffffffffffffffffffffffffffffffff169060200190929190803573ffffffffffffffffffffffffffffffffffffffff16906020019092919080359060200190929190505050610a9b565b604051808215151515815260200191505060405180910390f35b610374610acb565b604051808260ff1660ff16815260200191505060405180910390f35b610398610ae2565b6040518082815260200191505060405180910390f35b6103f0600480360360208110156103c457600080fd5b81019080803573ffffffffffffffffffffffffffffffffffffffff169060200190929190505050610aec565b604051808215151515815260200191505060405180910390f35b6104566004803603604081101561042057600080fd5b81019080803573ffffffffffffffffffffffffffffffffffffffff16906020019092919080359060200190929190505050610b8e565b604051808215151515815260200191505060405180910390f35b610478610bbc565b005b6104c66004803603604081101561049057600080fd5b81019080803573ffffffffffffffffffffffffffffffffffffffff16906020019092919080359060200190929190505050610c67565b604051808215151515815260200191505060405180910390f35b61050c600480360360208110156104f657600080fd5b8101908080359060200190929190505050610c8f565b005b61053a6004803603602081101561052457600080fd5b8101908080359060200190929190505050610ca2565b005b61057e6004803603602081101561055257600080fd5b81019080803573ffffffffffffffffffffffffffffffffffffffff169060200190929190505050610caf565b604051808215151515815260200191505060405180910390f35b6105a0610ccc565b604051808215151515815260200191505060405180910390f35b6105e6600480360360208110156105d057600080fd5b8101908080359060200190929190505050610ce3565b005b6105f0610cf6565b005b6106346004803603602081101561060857600080fd5b81019080803573ffffffffffffffffffffffffffffffffffffffff169060200190929190505050610d01565b6040518082815260200191505060405180910390f35b6106966004803603604081101561066057600080fd5b81019080803573ffffffffffffffffffffffffffffffffffffffff16906020019092919080359060200190929190505050610d4a565b005b6106da600480360360208110156106ae57600080fd5b81019080803573ffffffffffffffffffffffffffffffffffffffff169060200190929190505050610d58565b005b6106e4610d76565b005b6106ee610e22565b6040518080602001828103825283818151815260200191508051906020019080838360005b8381101561072e578082015181840152602081019050610713565b50505050905090810190601f16801561075b5780820380516001836020036101000a031916815260200191505b509250505060405180910390f35b6107ab6004803603602081101561077f57600080fd5b81019080803573ffffffffffffffffffffffffffffffffffffffff169060200190929190505050610ec4565b005b6107b5610ee2565b005b610803600480360360408110156107cd57600080fd5b81019080803573ffffffffffffffffffffffffffffffffffffffff16906020019092919080359060200190929190505050610eed565b604051808215151515815260200191505060405180910390f35b6108696004803603604081101561083357600080fd5b81019080803573ffffffffffffffffffffffffffffffffffffffff16906020019092919080359060200190929190505050610f1b565b604051808215151515815260200191505060405180910390f35b6108c56004803603602081101561089957600080fd5b81019080803573ffffffffffffffffffffffffffffffffffffffff169060200190929190505050610f49565b604051808215151515815260200191505060405180910390f35b61090b600480360360208110156108f557600080fd5b8101908080359060200190929190505050610f66565b005b610915610f70565b6040518082815260200191505060405180910390f35b61098d6004803603604081101561094157600080fd5b81019080803573ffffffffffffffffffffffffffffffffffffffff169060200190929190803573ffffffffffffffffffffffffffffffffffffffff169060200190929190505050610f93565b6040518082815260200191505060405180910390f35b6109ab61101a565b6040518082815260200191505060405180910390f35b606060008054600181600116156101000203166002900480601f016020809104026020016040519081016040528092919081815260200182805460018160011615610100020316600290048015610a595780601f10610a2e57610100808354040283529160200191610a59565b820191906000526020600020905b815481529060010190602001808311610a3c57829003601f168201915b5050505050905090565b6000600960009054906101000a900460ff1615610a7f57600080fd5b610a898383611020565b905092915050565b6000600554905090565b6000600960009054906101000a900460ff1615610ab757600080fd5b610ac2848484611037565b90509392505050565b6000600260009054906101000a900460ff16905090565b6000600754905090565b6000610af733610f49565b610b0057600080fd5b610b0982610ec4565b610b1282610d58565b610b1a610ee2565b610b22610cf6565b7f73ccc9776a38bbcf5eedad6b771d6c1ab0827eac87365a1059505d044c2475b482604051808273ffffffffffffffffffffffffffffffffffffffff1673ffffffffffffffffffffffffffffffffffffffff16815260200191505060405180910390a160019050919050565b6000600960009054906101000a900460ff1615610baa57600080fd5b610bb483836110e8565b905092915050565b610bc533610caf565b610bce57600080fd5b600960009054906101000a900460ff16610be757600080fd5b6000600960006101000a81548160ff0219169083151502179055507f5db9ee0a495bf2e6ff9c91a7834c1ba4fdd244a5e8aa4e537bd38aeae4b073aa33604051808273ffffffffffffffffffffffffffffffffffffffff1673ffffffffffffffffffffffffffffffffffffffff16815260200191505060405180910390a1565b6000610c7233610f49565b610c7b57600080fd5b610c85838361118d565b6001905092915050565b80600a6000828254039250508190555050565b610cac33826111c3565b50565b6000610cc582600861131790919063ffffffff16565b9050919050565b6000600960009054906101000a900460ff16905090565b80600a6000828254019250508190555050565b610cff336113a9565b565b6000600360008373ffffffffffffffffffffffffffffffffffffffff1673ffffffffffffffffffffffffffffffffffffffff168152602001908152602001600020549050919050565b610d548282611403565b5050565b610d6133610caf565b610d6a57600080fd5b610d73816114aa565b50565b610d7f33610caf565b610d8857600080fd5b600960009054906101000a900460ff1615610da257600080fd5b6001600960006101000a81548160ff0219169083151502179055507f62e78cea01bee320cd4e420270b5ea74000d11b0c9f74754ebdbfc544b05a25833604051808273ffffffffffffffffffffffffffffffffffffffff1673ffffffffffffffffffffffffffffffffffffffff16815260200191505060405180910390a1565b606060018054600181600116156101000203166002900480601f016020809104026020016040519081016040528092919081815260200182805460018160011615610100020316600290048015610eba5780601f10610e8f57610100808354040283529160200191610eba565b820191906000526020600020905b815481529060010190602001808311610e9d57829003601f168201915b5050505050905090565b610ecd33610f49565b610ed657600080fd5b610edf81611504565b50565b610eeb3361155e565b565b6000600960009054906101000a900460ff1615610f0957600080fd5b610f1383836115b8565b905092915050565b6000600960009054906101000a900460ff1615610f3757600080fd5b610f41838361165d565b905092915050565b6000610f5f82600661131790919063ffffffff16565b9050919050565b80600a8190555050565b600080600a541215610f8857600a5442039050610f90565b600a54420190505b90565b6000600460008473ffffffffffffffffffffffffffffffffffffffff1673ffffffffffffffffffffffffffffffffffffffff16815260200190815260200160002060008373ffffffffffffffffffffffffffffffffffffffff1673ffffffffffffffffffffffffffffffffffffffff16815260200190815260200160002054905092915050565b600a5481565b600061102d338484611674565b6001905092915050565b60006110448484846117d3565b6110dd84336110d885600460008a73ffffffffffffffffffffffffffffffffffffffff1673ffffffffffffffffffffffffffffffffffffffff16815260200190815260200160002060003373ffffffffffffffffffffffffffffffffffffffff1673ffffffffffffffffffffffffffffffffffffffff168152602001908152602001600020546119a190919063ffffffff16565b611674565b600190509392505050565b6000611183338461117e85600460003373ffffffffffffffffffffffffffffffffffffffff1673ffffffffffffffffffffffffffffffffffffffff16815260200190815260200160002060008973ffffffffffffffffffffffffffffffffffffffff1673ffffffffffffffffffffffffffffffffffffffff168152602001908152602001600020546119c190919063ffffffff16565b611674565b6001905092915050565b6007546111aa8261119c610a91565b6119c190919063ffffffff16565b11156111b557600080fd5b6111bf82826119e0565b5050565b600073ffffffffffffffffffffffffffffffffffffffff168273ffffffffffffffffffffffffffffffffffffffff1614156111fd57600080fd5b611212816005546119a190919063ffffffff16565b60058190555061126a81600360008573ffffffffffffffffffffffffffffffffffffffff1673ffffffffffffffffffffffffffffffffffffffff168152602001908152602001600020546119a190919063ffffffff16565b600360008473ffffffffffffffffffffffffffffffffffffffff1673ffffffffffffffffffffffffffffffffffffffff16815260200190815260200160002081905550600073ffffffffffffffffffffffffffffffffffffffff168273ffffffffffffffffffffffffffffffffffffffff167fddf252ad1be2c89b69c2b068fc378daa952ba7f163c4a11628f55a4df523b3ef836040518082815260200191505060405180910390a35050565b60008073ffffffffffffffffffffffffffffffffffffffff168273ffffffffffffffffffffffffffffffffffffffff16141561135257600080fd5b8260000160008373ffffffffffffffffffffffffffffffffffffffff1673ffffffffffffffffffffffffffffffffffffffff16815260200190815260200160002060009054906101000a900460ff16905092915050565b6113bd816008611b3490919063ffffffff16565b8073ffffffffffffffffffffffffffffffffffffffff167fcd265ebaf09df2871cc7bd4133404a235ba12eff2041bb89d9c714a2621c7c7e60405160405180910390a250565b61140d82826111c3565b6114a682336114a184600460008873ffffffffffffffffffffffffffffffffffffffff1673ffffffffffffffffffffffffffffffffffffffff16815260200190815260200160002060003373ffffffffffffffffffffffffffffffffffffffff1673ffffffffffffffffffffffffffffffffffffffff168152602001908152602001600020546119a190919063ffffffff16565b611674565b5050565b6114be816008611bdf90919063ffffffff16565b8073ffffffffffffffffffffffffffffffffffffffff167f6719d08c1888103bea251a4ed56406bd0c3e69723c8a1686e017e7bbe159b6f860405160405180910390a250565b611518816006611bdf90919063ffffffff16565b8073ffffffffffffffffffffffffffffffffffffffff167f6ae172837ea30b801fbfcdd4108aa1d5bf8ff775444fd70256b44e6bf3dfc3f660405160405180910390a250565b611572816006611b3490919063ffffffff16565b8073ffffffffffffffffffffffffffffffffffffffff167fe94479a9f7e1952cc78f2d6baab678adc1b772d936c6583def489e524cb6669260405160405180910390a250565b6000611653338461164e85600460003373ffffffffffffffffffffffffffffffffffffffff1673ffffffffffffffffffffffffffffffffffffffff16815260200190815260200160002060008973ffffffffffffffffffffffffffffffffffffffff1673ffffffffffffffffffffffffffffffffffffffff168152602001908152602001600020546119a190919063ffffffff16565b611674565b6001905092915050565b600061166a3384846117d3565b6001905092915050565b600073ffffffffffffffffffffffffffffffffffffffff168273ffffffffffffffffffffffffffffffffffffffff1614156116ae57600080fd5b600073ffffffffffffffffffffffffffffffffffffffff168373ffffffffffffffffffffffffffffffffffffffff1614156116e857600080fd5b80600460008573ffffffffffffffffffffffffffffffffffffffff1673ffffffffffffffffffffffffffffffffffffffff16815260200190815260200160002060008473ffffffffffffffffffffffffffffffffffffffff1673ffffffffffffffffffffffffffffffffffffffff168152602001908152602001600020819055508173ffffffffffffffffffffffffffffffffffffffff168373ffffffffffffffffffffffffffffffffffffffff167f8c5be1e5ebec7d5bd14f71427d1e84f3dd0314c0f7b2291e5b200ac8c7c3b925836040518082815260200191505060405180910390a3505050565b600073ffffffffffffffffffffffffffffffffffffffff168273ffffffffffffffffffffffffffffffffffffffff16141561180d57600080fd5b61185f81600360008673ffffffffffffffffffffffffffffffffffffffff1673ffffffffffffffffffffffffffffffffffffffff168152602001908152602001600020546119a190919063ffffffff16565b600360008573ffffffffffffffffffffffffffffffffffffffff1673ffffffffffffffffffffffffffffffffffffffff168152602001908152602001600020819055506118f481600360008573ffffffffffffffffffffffffffffffffffffffff1673ffffffffffffffffffffffffffffffffffffffff168152602001908152602001600020546119c190919063ffffffff16565b600360008473ffffffffffffffffffffffffffffffffffffffff1673ffffffffffffffffffffffffffffffffffffffff168152602001908152602001600020819055508173ffffffffffffffffffffffffffffffffffffffff168373ffffffffffffffffffffffffffffffffffffffff167fddf252ad1be2c89b69c2b068fc378daa952ba7f163c4a11628f55a4df523b3ef836040518082815260200191505060405180910390a3505050565b6000828211156119b057600080fd5b600082840390508091505092915050565b6000808284019050838110156119d657600080fd5b8091505092915050565b600073ffffffffffffffffffffffffffffffffffffffff168273ffffffffffffffffffffffffffffffffffffffff161415611a1a57600080fd5b611a2f816005546119c190919063ffffffff16565b600581905550611a8781600360008573ffffffffffffffffffffffffffffffffffffffff1673ffffffffffffffffffffffffffffffffffffffff168152602001908152602001600020546119c190919063ffffffff16565b600360008473ffffffffffffffffffffffffffffffffffffffff1673ffffffffffffffffffffffffffffffffffffffff168152602001908152602001600020819055508173ffffffffffffffffffffffffffffffffffffffff16600073ffffffffffffffffffffffffffffffffffffffff167fddf252ad1be2c89b69c2b068fc378daa952ba7f163c4a11628f55a4df523b3ef836040518082815260200191505060405180910390a35050565b600073ffffffffffffffffffffffffffffffffffffffff168173ffffffffffffffffffffffffffffffffffffffff161415611b6e57600080fd5b611b788282611317565b611b8157600080fd5b60008260000160008373ffffffffffffffffffffffffffffffffffffffff1673ffffffffffffffffffffffffffffffffffffffff16815260200190815260200160002060006101000a81548160ff0219169083151502179055505050565b600073ffffffffffffffffffffffffffffffffffffffff168173ffffffffffffffffffffffffffffffffffffffff161415611c1957600080fd5b611c238282611317565b15611c2d57600080fd5b60018260000160008373ffffffffffffffffffffffffffffffffffffffff1673ffffffffffffffffffffffffffffffffffffffff16815260200190815260200160002060006101000a81548160ff021916908315150217905550505056fea265627a7a72305820e4ca08a6fb2569a4f3f6293cb87eceb64bd7ba167bf58637a81d55463bf7027764736f6c634300050a0032","opcodes":"PUSH1 0x80 PUSH1 0x40 MSTORE CALLVALUE DUP1 ISZERO PUSH3 0x11 JUMPI PUSH1 0x0 DUP1 REVERT JUMPDEST POP PUSH12 0x1D6757F47B1C8EF70C000000 PUSH1 0x40 MLOAD DUP1 PUSH1 0x40 ADD PUSH1 0x40 MSTORE DUP1 PUSH1 0x8 DUP2 MSTORE PUSH1 0x20 ADD PUSH32 0x4572612053776170000000000000000000000000000000000000000000000000 DUP2 MSTORE POP PUSH1 0x40 MLOAD DUP1 PUSH1 0x40 ADD PUSH1 0x40 MSTORE DUP1 PUSH1 0x2 DUP2 MSTORE PUSH1 0x20 ADD PUSH32 0x4553000000000000000000000000000000000000000000000000000000000000 DUP2 MSTORE POP PUSH1 0x12 DUP3 PUSH1 0x0 SWAP1 DUP1 MLOAD SWAP1 PUSH1 0x20 ADD SWAP1 PUSH3 0xA5 SWAP3 SWAP2 SWAP1 PUSH3 0x59D JUMP JUMPDEST POP DUP2 PUSH1 0x1 SWAP1 DUP1 MLOAD SWAP1 PUSH1 0x20 ADD SWAP1 PUSH3 0xBE SWAP3 SWAP2 SWAP1 PUSH3 0x59D JUMP JUMPDEST POP DUP1 PUSH1 0x2 PUSH1 0x0 PUSH2 0x100 EXP DUP2 SLOAD DUP2 PUSH1 0xFF MUL NOT AND SWAP1 DUP4 PUSH1 0xFF AND MUL OR SWAP1 SSTORE POP POP POP POP PUSH3 0xEE CALLER PUSH3 0x155 PUSH1 0x20 SHL PUSH1 0x20 SHR JUMP JUMPDEST PUSH1 0x0 DUP2 GT PUSH3 0xFC JUMPI PUSH1 0x0 DUP1 REVERT JUMPDEST DUP1 PUSH1 0x7 DUP2 SWAP1 SSTORE POP POP PUSH3 0x115 CALLER PUSH3 0x1B6 PUSH1 0x20 SHL PUSH1 0x20 SHR JUMP JUMPDEST PUSH1 0x0 PUSH1 0x9 PUSH1 0x0 PUSH2 0x100 EXP DUP2 SLOAD DUP2 PUSH1 0xFF MUL NOT AND SWAP1 DUP4 ISZERO ISZERO MUL OR SWAP1 SSTORE POP PUSH3 0x14E CALLER PUSH12 0x2F0BBFED91C74B24E000000 PUSH3 0x217 PUSH1 0x20 SHL PUSH1 0x20 SHR JUMP JUMPDEST POP PUSH3 0x64C JUMP JUMPDEST PUSH3 0x170 DUP2 PUSH1 0x6 PUSH3 0x250 PUSH1 0x20 SHL PUSH3 0x1BDF OR SWAP1 SWAP2 SWAP1 PUSH1 0x20 SHR JUMP JUMPDEST DUP1 PUSH20 0xFFFFFFFFFFFFFFFFFFFFFFFFFFFFFFFFFFFFFFFF AND PUSH32 0x6AE172837EA30B801FBFCDD4108AA1D5BF8FF775444FD70256B44E6BF3DFC3F6 PUSH1 0x40 MLOAD PUSH1 0x40 MLOAD DUP1 SWAP2 SUB SWAP1 LOG2 POP JUMP JUMPDEST PUSH3 0x1D1 DUP2 PUSH1 0x8 PUSH3 0x250 PUSH1 0x20 SHL PUSH3 0x1BDF OR SWAP1 SWAP2 SWAP1 PUSH1 0x20 SHR JUMP JUMPDEST DUP1 PUSH20 0xFFFFFFFFFFFFFFFFFFFFFFFFFFFFFFFFFFFFFFFF AND PUSH32 0x6719D08C1888103BEA251A4ED56406BD0C3E69723C8A1686E017E7BBE159B6F8 PUSH1 0x40 MLOAD PUSH1 0x40 MLOAD DUP1 SWAP2 SUB SWAP1 LOG2 POP JUMP JUMPDEST PUSH1 0x0 PUSH3 0x22A CALLER PUSH3 0x306 PUSH1 0x20 SHL PUSH1 0x20 SHR JUMP JUMPDEST PUSH3 0x234 JUMPI PUSH1 0x0 DUP1 REVERT JUMPDEST PUSH3 0x246 DUP4 DUP4 PUSH3 0x32A PUSH1 0x20 SHL PUSH1 0x20 SHR JUMP JUMPDEST PUSH1 0x1 SWAP1 POP SWAP3 SWAP2 POP POP JUMP JUMPDEST PUSH1 0x0 PUSH20 0xFFFFFFFFFFFFFFFFFFFFFFFFFFFFFFFFFFFFFFFF AND DUP2 PUSH20 0xFFFFFFFFFFFFFFFFFFFFFFFFFFFFFFFFFFFFFFFF AND EQ ISZERO PUSH3 0x28B JUMPI PUSH1 0x0 DUP1 REVERT JUMPDEST PUSH3 0x29D DUP3 DUP3 PUSH3 0x37D PUSH1 0x20 SHL PUSH1 0x20 SHR JUMP JUMPDEST ISZERO PUSH3 0x2A8 JUMPI PUSH1 0x0 DUP1 REVERT JUMPDEST PUSH1 0x1 DUP3 PUSH1 0x0 ADD PUSH1 0x0 DUP4 PUSH20 0xFFFFFFFFFFFFFFFFFFFFFFFFFFFFFFFFFFFFFFFF AND PUSH20 0xFFFFFFFFFFFFFFFFFFFFFFFFFFFFFFFFFFFFFFFF AND DUP2 MSTORE PUSH1 0x20 ADD SWAP1 DUP2 MSTORE PUSH1 0x20 ADD PUSH1 0x0 KECCAK256 PUSH1 0x0 PUSH2 0x100 EXP DUP2 SLOAD DUP2 PUSH1 0xFF MUL NOT AND SWAP1 DUP4 ISZERO ISZERO MUL OR SWAP1 SSTORE POP POP POP JUMP JUMPDEST PUSH1 0x0 PUSH3 0x323 DUP3 PUSH1 0x6 PUSH3 0x37D PUSH1 0x20 SHL PUSH3 0x1317 OR SWAP1 SWAP2 SWAP1 PUSH1 0x20 SHR JUMP JUMPDEST SWAP1 POP SWAP2 SWAP1 POP JUMP JUMPDEST PUSH1 0x7 SLOAD PUSH3 0x356 DUP3 PUSH3 0x342 PUSH3 0x410 PUSH1 0x20 SHL PUSH1 0x20 SHR JUMP JUMPDEST PUSH3 0x41A PUSH1 0x20 SHL PUSH3 0x19C1 OR SWAP1 SWAP2 SWAP1 PUSH1 0x20 SHR JUMP JUMPDEST GT ISZERO PUSH3 0x362 JUMPI PUSH1 0x0 DUP1 REVERT JUMPDEST PUSH3 0x379 DUP3 DUP3 PUSH3 0x43A PUSH1 0x20 SHL PUSH3 0x19E0 OR PUSH1 0x20 SHR JUMP JUMPDEST POP POP JUMP JUMPDEST PUSH1 0x0 DUP1 PUSH20 0xFFFFFFFFFFFFFFFFFFFFFFFFFFFFFFFFFFFFFFFF AND DUP3 PUSH20 0xFFFFFFFFFFFFFFFFFFFFFFFFFFFFFFFFFFFFFFFF AND EQ ISZERO PUSH3 0x3B9 JUMPI PUSH1 0x0 DUP1 REVERT JUMPDEST DUP3 PUSH1 0x0 ADD PUSH1 0x0 DUP4 PUSH20 0xFFFFFFFFFFFFFFFFFFFFFFFFFFFFFFFFFFFFFFFF AND PUSH20 0xFFFFFFFFFFFFFFFFFFFFFFFFFFFFFFFFFFFFFFFF AND DUP2 MSTORE PUSH1 0x20 ADD SWAP1 DUP2 MSTORE PUSH1 0x20 ADD PUSH1 0x0 KECCAK256 PUSH1 0x0 SWAP1 SLOAD SWAP1 PUSH2 0x100 EXP SWAP1 DIV PUSH1 0xFF AND SWAP1 POP SWAP3 SWAP2 POP POP JUMP JUMPDEST PUSH1 0x0 PUSH1 0x5 SLOAD SWAP1 POP SWAP1 JUMP JUMPDEST PUSH1 0x0 DUP1 DUP3 DUP5 ADD SWAP1 POP DUP4 DUP2 LT ISZERO PUSH3 0x430 JUMPI PUSH1 0x0 DUP1 REVERT JUMPDEST DUP1 SWAP2 POP POP SWAP3 SWAP2 POP POP JUMP JUMPDEST PUSH1 0x0 PUSH20 0xFFFFFFFFFFFFFFFFFFFFFFFFFFFFFFFFFFFFFFFF AND DUP3 PUSH20 0xFFFFFFFFFFFFFFFFFFFFFFFFFFFFFFFFFFFFFFFF AND EQ ISZERO PUSH3 0x475 JUMPI PUSH1 0x0 DUP1 REVERT JUMPDEST PUSH3 0x491 DUP2 PUSH1 0x5 SLOAD PUSH3 0x41A PUSH1 0x20 SHL PUSH3 0x19C1 OR SWAP1 SWAP2 SWAP1 PUSH1 0x20 SHR JUMP JUMPDEST PUSH1 0x5 DUP2 SWAP1 SSTORE POP PUSH3 0x4F0 DUP2 PUSH1 0x3 PUSH1 0x0 DUP6 PUSH20 0xFFFFFFFFFFFFFFFFFFFFFFFFFFFFFFFFFFFFFFFF AND PUSH20 0xFFFFFFFFFFFFFFFFFFFFFFFFFFFFFFFFFFFFFFFF AND DUP2 MSTORE PUSH1 0x20 ADD SWAP1 DUP2 MSTORE PUSH1 0x20 ADD PUSH1 0x0 KECCAK256 SLOAD PUSH3 0x41A PUSH1 0x20 SHL PUSH3 0x19C1 OR SWAP1 SWAP2 SWAP1 PUSH1 0x20 SHR JUMP JUMPDEST PUSH1 0x3 PUSH1 0x0 DUP5 PUSH20 0xFFFFFFFFFFFFFFFFFFFFFFFFFFFFFFFFFFFFFFFF AND PUSH20 0xFFFFFFFFFFFFFFFFFFFFFFFFFFFFFFFFFFFFFFFF AND DUP2 MSTORE PUSH1 0x20 ADD SWAP1 DUP2 MSTORE PUSH1 0x20 ADD PUSH1 0x0 KECCAK256 DUP2 SWAP1 SSTORE POP DUP2 PUSH20 0xFFFFFFFFFFFFFFFFFFFFFFFFFFFFFFFFFFFFFFFF AND PUSH1 0x0 PUSH20 0xFFFFFFFFFFFFFFFFFFFFFFFFFFFFFFFFFFFFFFFF AND PUSH32 0xDDF252AD1BE2C89B69C2B068FC378DAA952BA7F163C4A11628F55A4DF523B3EF DUP4 PUSH1 0x40 MLOAD DUP1 DUP3 DUP2 MSTORE PUSH1 0x20 ADD SWAP2 POP POP PUSH1 0x40 MLOAD DUP1 SWAP2 SUB SWAP1 LOG3 POP POP JUMP JUMPDEST DUP3 DUP1 SLOAD PUSH1 0x1 DUP2 PUSH1 0x1 AND ISZERO PUSH2 0x100 MUL SUB AND PUSH1 0x2 SWAP1 DIV SWAP1 PUSH1 0x0 MSTORE PUSH1 0x20 PUSH1 0x0 KECCAK256 SWAP1 PUSH1 0x1F ADD PUSH1 0x20 SWAP1 DIV DUP2 ADD SWAP3 DUP3 PUSH1 0x1F LT PUSH3 0x5E0 JUMPI DUP1 MLOAD PUSH1 0xFF NOT AND DUP4 DUP1 ADD OR DUP6 SSTORE PUSH3 0x611 JUMP JUMPDEST DUP3 DUP1 ADD PUSH1 0x1 ADD DUP6 SSTORE DUP3 ISZERO PUSH3 0x611 JUMPI SWAP2 DUP3 ADD JUMPDEST DUP3 DUP2 GT ISZERO PUSH3 0x610 JUMPI DUP3 MLOAD DUP3 SSTORE SWAP2 PUSH1 0x20 ADD SWAP2 SWAP1 PUSH1 0x1 ADD SWAP1 PUSH3 0x5F3 JUMP JUMPDEST JUMPDEST POP SWAP1 POP PUSH3 0x620 SWAP2 SWAP1 PUSH3 0x624 JUMP JUMPDEST POP SWAP1 JUMP JUMPDEST PUSH3 0x649 SWAP2 SWAP1 JUMPDEST DUP1 DUP3 GT ISZERO PUSH3 0x645 JUMPI PUSH1 0x0 DUP2 PUSH1 0x0 SWAP1 SSTORE POP PUSH1 0x1 ADD PUSH3 0x62B JUMP JUMPDEST POP SWAP1 JUMP JUMPDEST SWAP1 JUMP JUMPDEST PUSH2 0x1CC0 DUP1 PUSH3 0x65C PUSH1 0x0 CODECOPY PUSH1 0x0 RETURN INVALID PUSH1 0x80 PUSH1 0x40 MSTORE CALLVALUE DUP1 ISZERO PUSH2 0x10 JUMPI PUSH1 0x0 DUP1 REVERT JUMPDEST POP PUSH1 0x4 CALLDATASIZE LT PUSH2 0x1DA JUMPI PUSH1 0x0 CALLDATALOAD PUSH1 0xE0 SHR DUP1 PUSH4 0x6EF8D66D GT PUSH2 0x104 JUMPI DUP1 PUSH4 0x98650275 GT PUSH2 0xA2 JUMPI DUP1 PUSH4 0xB015FBB2 GT PUSH2 0x71 JUMPI DUP1 PUSH4 0xB015FBB2 EQ PUSH2 0x8DF JUMPI DUP1 PUSH4 0xB81F90F3 EQ PUSH2 0x90D JUMPI DUP1 PUSH4 0xDD62ED3E EQ PUSH2 0x92B JUMPI DUP1 PUSH4 0xE91C3C10 EQ PUSH2 0x9A3 JUMPI PUSH2 0x1DA JUMP JUMPDEST DUP1 PUSH4 0x98650275 EQ PUSH2 0x7AD JUMPI DUP1 PUSH4 0xA457C2D7 EQ PUSH2 0x7B7 JUMPI DUP1 PUSH4 0xA9059CBB EQ PUSH2 0x81D JUMPI DUP1 PUSH4 0xAA271E1A EQ PUSH2 0x883 JUMPI PUSH2 0x1DA JUMP JUMPDEST DUP1 PUSH4 0x82DC1EC4 GT PUSH2 0xDE JUMPI DUP1 PUSH4 0x82DC1EC4 EQ PUSH2 0x698 JUMPI DUP1 PUSH4 0x8456CB59 EQ PUSH2 0x6DC JUMPI DUP1 PUSH4 0x95D89B41 EQ PUSH2 0x6E6 JUMPI DUP1 PUSH4 0x983B2D56 EQ PUSH2 0x769 JUMPI PUSH2 0x1DA JUMP JUMPDEST DUP1 PUSH4 0x6EF8D66D EQ PUSH2 0x5E8 JUMPI DUP1 PUSH4 0x70A08231 EQ PUSH2 0x5F2 JUMPI DUP1 PUSH4 0x79CC6790 EQ PUSH2 0x64A JUMPI PUSH2 0x1DA JUMP JUMPDEST DUP1 PUSH4 0x39509351 GT PUSH2 0x17C JUMPI DUP1 PUSH4 0x42966C68 GT PUSH2 0x14B JUMPI DUP1 PUSH4 0x42966C68 EQ PUSH2 0x50E JUMPI DUP1 PUSH4 0x46FBF68E EQ PUSH2 0x53C JUMPI DUP1 PUSH4 0x5C975ABB EQ PUSH2 0x598 JUMPI DUP1 PUSH4 0x6316467E EQ PUSH2 0x5BA JUMPI PUSH2 0x1DA JUMP JUMPDEST DUP1 PUSH4 0x39509351 EQ PUSH2 0x40A JUMPI DUP1 PUSH4 0x3F4BA83A EQ PUSH2 0x470 JUMPI DUP1 PUSH4 0x40C10F19 EQ PUSH2 0x47A JUMPI DUP1 PUSH4 0x415F4C1B EQ PUSH2 0x4E0 JUMPI PUSH2 0x1DA JUMP JUMPDEST DUP1 PUSH4 0x23B872DD GT PUSH2 0x1B8 JUMPI DUP1 PUSH4 0x23B872DD EQ PUSH2 0x2E6 JUMPI DUP1 PUSH4 0x313CE567 EQ PUSH2 0x36C JUMPI DUP1 PUSH4 0x355274EA EQ PUSH2 0x390 JUMPI DUP1 PUSH4 0x382B5E45 EQ PUSH2 0x3AE JUMPI PUSH2 0x1DA JUMP JUMPDEST DUP1 PUSH4 0x6FDDE03 EQ PUSH2 0x1DF JUMPI DUP1 PUSH4 0x95EA7B3 EQ PUSH2 0x262 JUMPI DUP1 PUSH4 0x18160DDD EQ PUSH2 0x2C8 JUMPI JUMPDEST PUSH1 0x0 DUP1 REVERT JUMPDEST PUSH2 0x1E7 PUSH2 0x9C1 JUMP JUMPDEST PUSH1 0x40 MLOAD DUP1 DUP1 PUSH1 0x20 ADD DUP3 DUP2 SUB DUP3 MSTORE DUP4 DUP2 DUP2 MLOAD DUP2 MSTORE PUSH1 0x20 ADD SWAP2 POP DUP1 MLOAD SWAP1 PUSH1 0x20 ADD SWAP1 DUP1 DUP4 DUP4 PUSH1 0x0 JUMPDEST DUP4 DUP2 LT ISZERO PUSH2 0x227 JUMPI DUP1 DUP3 ADD MLOAD DUP2 DUP5 ADD MSTORE PUSH1 0x20 DUP2 ADD SWAP1 POP PUSH2 0x20C JUMP JUMPDEST POP POP POP POP SWAP1 POP SWAP1 DUP2 ADD SWAP1 PUSH1 0x1F AND DUP1 ISZERO PUSH2 0x254 JUMPI DUP1 DUP3 SUB DUP1 MLOAD PUSH1 0x1 DUP4 PUSH1 0x20 SUB PUSH2 0x100 EXP SUB NOT AND DUP2 MSTORE PUSH1 0x20 ADD SWAP2 POP JUMPDEST POP SWAP3 POP POP POP PUSH1 0x40 MLOAD DUP1 SWAP2 SUB SWAP1 RETURN JUMPDEST PUSH2 0x2AE PUSH1 0x4 DUP1 CALLDATASIZE SUB PUSH1 0x40 DUP2 LT ISZERO PUSH2 0x278 JUMPI PUSH1 0x0 DUP1 REVERT JUMPDEST DUP2 ADD SWAP1 DUP1 DUP1 CALLDATALOAD PUSH20 0xFFFFFFFFFFFFFFFFFFFFFFFFFFFFFFFFFFFFFFFF AND SWAP1 PUSH1 0x20 ADD SWAP1 SWAP3 SWAP2 SWAP1 DUP1 CALLDATALOAD SWAP1 PUSH1 0x20 ADD SWAP1 SWAP3 SWAP2 SWAP1 POP POP POP PUSH2 0xA63 JUMP JUMPDEST PUSH1 0x40 MLOAD DUP1 DUP3 ISZERO ISZERO ISZERO ISZERO DUP2 MSTORE PUSH1 0x20 ADD SWAP2 POP POP PUSH1 0x40 MLOAD DUP1 SWAP2 SUB SWAP1 RETURN JUMPDEST PUSH2 0x2D0 PUSH2 0xA91 JUMP JUMPDEST PUSH1 0x40 MLOAD DUP1 DUP3 DUP2 MSTORE PUSH1 0x20 ADD SWAP2 POP POP PUSH1 0x40 MLOAD DUP1 SWAP2 SUB SWAP1 RETURN JUMPDEST PUSH2 0x352 PUSH1 0x4 DUP1 CALLDATASIZE SUB PUSH1 0x60 DUP2 LT ISZERO PUSH2 0x2FC JUMPI PUSH1 0x0 DUP1 REVERT JUMPDEST DUP2 ADD SWAP1 DUP1 DUP1 CALLDATALOAD PUSH20 0xFFFFFFFFFFFFFFFFFFFFFFFFFFFFFFFFFFFFFFFF AND SWAP1 PUSH1 0x20 ADD SWAP1 SWAP3 SWAP2 SWAP1 DUP1 CALLDATALOAD PUSH20 0xFFFFFFFFFFFFFFFFFFFFFFFFFFFFFFFFFFFFFFFF AND SWAP1 PUSH1 0x20 ADD SWAP1 SWAP3 SWAP2 SWAP1 DUP1 CALLDATALOAD SWAP1 PUSH1 0x20 ADD SWAP1 SWAP3 SWAP2 SWAP1 POP POP POP PUSH2 0xA9B JUMP JUMPDEST PUSH1 0x40 MLOAD DUP1 DUP3 ISZERO ISZERO ISZERO ISZERO DUP2 MSTORE PUSH1 0x20 ADD SWAP2 POP POP PUSH1 0x40 MLOAD DUP1 SWAP2 SUB SWAP1 RETURN JUMPDEST PUSH2 0x374 PUSH2 0xACB JUMP JUMPDEST PUSH1 0x40 MLOAD DUP1 DUP3 PUSH1 0xFF AND PUSH1 0xFF AND DUP2 MSTORE PUSH1 0x20 ADD SWAP2 POP POP PUSH1 0x40 MLOAD DUP1 SWAP2 SUB SWAP1 RETURN JUMPDEST PUSH2 0x398 PUSH2 0xAE2 JUMP JUMPDEST PUSH1 0x40 MLOAD DUP1 DUP3 DUP2 MSTORE PUSH1 0x20 ADD SWAP2 POP POP PUSH1 0x40 MLOAD DUP1 SWAP2 SUB SWAP1 RETURN JUMPDEST PUSH2 0x3F0 PUSH1 0x4 DUP1 CALLDATASIZE SUB PUSH1 0x20 DUP2 LT ISZERO PUSH2 0x3C4 JUMPI PUSH1 0x0 DUP1 REVERT JUMPDEST DUP2 ADD SWAP1 DUP1 DUP1 CALLDATALOAD PUSH20 0xFFFFFFFFFFFFFFFFFFFFFFFFFFFFFFFFFFFFFFFF AND SWAP1 PUSH1 0x20 ADD SWAP1 SWAP3 SWAP2 SWAP1 POP POP POP PUSH2 0xAEC JUMP JUMPDEST PUSH1 0x40 MLOAD DUP1 DUP3 ISZERO ISZERO ISZERO ISZERO DUP2 MSTORE PUSH1 0x20 ADD SWAP2 POP POP PUSH1 0x40 MLOAD DUP1 SWAP2 SUB SWAP1 RETURN JUMPDEST PUSH2 0x456 PUSH1 0x4 DUP1 CALLDATASIZE SUB PUSH1 0x40 DUP2 LT ISZERO PUSH2 0x420 JUMPI PUSH1 0x0 DUP1 REVERT JUMPDEST DUP2 ADD SWAP1 DUP1 DUP1 CALLDATALOAD PUSH20 0xFFFFFFFFFFFFFFFFFFFFFFFFFFFFFFFFFFFFFFFF AND SWAP1 PUSH1 0x20 ADD SWAP1 SWAP3 SWAP2 SWAP1 DUP1 CALLDATALOAD SWAP1 PUSH1 0x20 ADD SWAP1 SWAP3 SWAP2 SWAP1 POP POP POP PUSH2 0xB8E JUMP JUMPDEST PUSH1 0x40 MLOAD DUP1 DUP3 ISZERO ISZERO ISZERO ISZERO DUP2 MSTORE PUSH1 0x20 ADD SWAP2 POP POP PUSH1 0x40 MLOAD DUP1 SWAP2 SUB SWAP1 RETURN JUMPDEST PUSH2 0x478 PUSH2 0xBBC JUMP JUMPDEST STOP JUMPDEST PUSH2 0x4C6 PUSH1 0x4 DUP1 CALLDATASIZE SUB PUSH1 0x40 DUP2 LT ISZERO PUSH2 0x490 JUMPI PUSH1 0x0 DUP1 REVERT JUMPDEST DUP2 ADD SWAP1 DUP1 DUP1 CALLDATALOAD PUSH20 0xFFFFFFFFFFFFFFFFFFFFFFFFFFFFFFFFFFFFFFFF AND SWAP1 PUSH1 0x20 ADD SWAP1 SWAP3 SWAP2 SWAP1 DUP1 CALLDATALOAD SWAP1 PUSH1 0x20 ADD SWAP1 SWAP3 SWAP2 SWAP1 POP POP POP PUSH2 0xC67 JUMP JUMPDEST PUSH1 0x40 MLOAD DUP1 DUP3 ISZERO ISZERO ISZERO ISZERO DUP2 MSTORE PUSH1 0x20 ADD SWAP2 POP POP PUSH1 0x40 MLOAD DUP1 SWAP2 SUB SWAP1 RETURN JUMPDEST PUSH2 0x50C PUSH1 0x4 DUP1 CALLDATASIZE SUB PUSH1 0x20 DUP2 LT ISZERO PUSH2 0x4F6 JUMPI PUSH1 0x0 DUP1 REVERT JUMPDEST DUP2 ADD SWAP1 DUP1 DUP1 CALLDATALOAD SWAP1 PUSH1 0x20 ADD SWAP1 SWAP3 SWAP2 SWAP1 POP POP POP PUSH2 0xC8F JUMP JUMPDEST STOP JUMPDEST PUSH2 0x53A PUSH1 0x4 DUP1 CALLDATASIZE SUB PUSH1 0x20 DUP2 LT ISZERO PUSH2 0x524 JUMPI PUSH1 0x0 DUP1 REVERT JUMPDEST DUP2 ADD SWAP1 DUP1 DUP1 CALLDATALOAD SWAP1 PUSH1 0x20 ADD SWAP1 SWAP3 SWAP2 SWAP1 POP POP POP PUSH2 0xCA2 JUMP JUMPDEST STOP JUMPDEST PUSH2 0x57E PUSH1 0x4 DUP1 CALLDATASIZE SUB PUSH1 0x20 DUP2 LT ISZERO PUSH2 0x552 JUMPI PUSH1 0x0 DUP1 REVERT JUMPDEST DUP2 ADD SWAP1 DUP1 DUP1 CALLDATALOAD PUSH20 0xFFFFFFFFFFFFFFFFFFFFFFFFFFFFFFFFFFFFFFFF AND SWAP1 PUSH1 0x20 ADD SWAP1 SWAP3 SWAP2 SWAP1 POP POP POP PUSH2 0xCAF JUMP JUMPDEST PUSH1 0x40 MLOAD DUP1 DUP3 ISZERO ISZERO ISZERO ISZERO DUP2 MSTORE PUSH1 0x20 ADD SWAP2 POP POP PUSH1 0x40 MLOAD DUP1 SWAP2 SUB SWAP1 RETURN JUMPDEST PUSH2 0x5A0 PUSH2 0xCCC JUMP JUMPDEST PUSH1 0x40 MLOAD DUP1 DUP3 ISZERO ISZERO ISZERO ISZERO DUP2 MSTORE PUSH1 0x20 ADD SWAP2 POP POP PUSH1 0x40 MLOAD DUP1 SWAP2 SUB SWAP1 RETURN JUMPDEST PUSH2 0x5E6 PUSH1 0x4 DUP1 CALLDATASIZE SUB PUSH1 0x20 DUP2 LT ISZERO PUSH2 0x5D0 JUMPI PUSH1 0x0 DUP1 REVERT JUMPDEST DUP2 ADD SWAP1 DUP1 DUP1 CALLDATALOAD SWAP1 PUSH1 0x20 ADD SWAP1 SWAP3 SWAP2 SWAP1 POP POP POP PUSH2 0xCE3 JUMP JUMPDEST STOP JUMPDEST PUSH2 0x5F0 PUSH2 0xCF6 JUMP JUMPDEST STOP JUMPDEST PUSH2 0x634 PUSH1 0x4 DUP1 CALLDATASIZE SUB PUSH1 0x20 DUP2 LT ISZERO PUSH2 0x608 JUMPI PUSH1 0x0 DUP1 REVERT JUMPDEST DUP2 ADD SWAP1 DUP1 DUP1 CALLDATALOAD PUSH20 0xFFFFFFFFFFFFFFFFFFFFFFFFFFFFFFFFFFFFFFFF AND SWAP1 PUSH1 0x20 ADD SWAP1 SWAP3 SWAP2 SWAP1 POP POP POP PUSH2 0xD01 JUMP JUMPDEST PUSH1 0x40 MLOAD DUP1 DUP3 DUP2 MSTORE PUSH1 0x20 ADD SWAP2 POP POP PUSH1 0x40 MLOAD DUP1 SWAP2 SUB SWAP1 RETURN JUMPDEST PUSH2 0x696 PUSH1 0x4 DUP1 CALLDATASIZE SUB PUSH1 0x40 DUP2 LT ISZERO PUSH2 0x660 JUMPI PUSH1 0x0 DUP1 REVERT JUMPDEST DUP2 ADD SWAP1 DUP1 DUP1 CALLDATALOAD PUSH20 0xFFFFFFFFFFFFFFFFFFFFFFFFFFFFFFFFFFFFFFFF AND SWAP1 PUSH1 0x20 ADD SWAP1 SWAP3 SWAP2 SWAP1 DUP1 CALLDATALOAD SWAP1 PUSH1 0x20 ADD SWAP1 SWAP3 SWAP2 SWAP1 POP POP POP PUSH2 0xD4A JUMP JUMPDEST STOP JUMPDEST PUSH2 0x6DA PUSH1 0x4 DUP1 CALLDATASIZE SUB PUSH1 0x20 DUP2 LT ISZERO PUSH2 0x6AE JUMPI PUSH1 0x0 DUP1 REVERT JUMPDEST DUP2 ADD SWAP1 DUP1 DUP1 CALLDATALOAD PUSH20 0xFFFFFFFFFFFFFFFFFFFFFFFFFFFFFFFFFFFFFFFF AND SWAP1 PUSH1 0x20 ADD SWAP1 SWAP3 SWAP2 SWAP1 POP POP POP PUSH2 0xD58 JUMP JUMPDEST STOP JUMPDEST PUSH2 0x6E4 PUSH2 0xD76 JUMP JUMPDEST STOP JUMPDEST PUSH2 0x6EE PUSH2 0xE22 JUMP JUMPDEST PUSH1 0x40 MLOAD DUP1 DUP1 PUSH1 0x20 ADD DUP3 DUP2 SUB DUP3 MSTORE DUP4 DUP2 DUP2 MLOAD DUP2 MSTORE PUSH1 0x20 ADD SWAP2 POP DUP1 MLOAD SWAP1 PUSH1 0x20 ADD SWAP1 DUP1 DUP4 DUP4 PUSH1 0x0 JUMPDEST DUP4 DUP2 LT ISZERO PUSH2 0x72E JUMPI DUP1 DUP3 ADD MLOAD DUP2 DUP5 ADD MSTORE PUSH1 0x20 DUP2 ADD SWAP1 POP PUSH2 0x713 JUMP JUMPDEST POP POP POP POP SWAP1 POP SWAP1 DUP2 ADD SWAP1 PUSH1 0x1F AND DUP1 ISZERO PUSH2 0x75B JUMPI DUP1 DUP3 SUB DUP1 MLOAD PUSH1 0x1 DUP4 PUSH1 0x20 SUB PUSH2 0x100 EXP SUB NOT AND DUP2 MSTORE PUSH1 0x20 ADD SWAP2 POP JUMPDEST POP SWAP3 POP POP POP PUSH1 0x40 MLOAD DUP1 SWAP2 SUB SWAP1 RETURN JUMPDEST PUSH2 0x7AB PUSH1 0x4 DUP1 CALLDATASIZE SUB PUSH1 0x20 DUP2 LT ISZERO PUSH2 0x77F JUMPI PUSH1 0x0 DUP1 REVERT JUMPDEST DUP2 ADD SWAP1 DUP1 DUP1 CALLDATALOAD PUSH20 0xFFFFFFFFFFFFFFFFFFFFFFFFFFFFFFFFFFFFFFFF AND SWAP1 PUSH1 0x20 ADD SWAP1 SWAP3 SWAP2 SWAP1 POP POP POP PUSH2 0xEC4 JUMP JUMPDEST STOP JUMPDEST PUSH2 0x7B5 PUSH2 0xEE2 JUMP JUMPDEST STOP JUMPDEST PUSH2 0x803 PUSH1 0x4 DUP1 CALLDATASIZE SUB PUSH1 0x40 DUP2 LT ISZERO PUSH2 0x7CD JUMPI PUSH1 0x0 DUP1 REVERT JUMPDEST DUP2 ADD SWAP1 DUP1 DUP1 CALLDATALOAD PUSH20 0xFFFFFFFFFFFFFFFFFFFFFFFFFFFFFFFFFFFFFFFF AND SWAP1 PUSH1 0x20 ADD SWAP1 SWAP3 SWAP2 SWAP1 DUP1 CALLDATALOAD SWAP1 PUSH1 0x20 ADD SWAP1 SWAP3 SWAP2 SWAP1 POP POP POP PUSH2 0xEED JUMP JUMPDEST PUSH1 0x40 MLOAD DUP1 DUP3 ISZERO ISZERO ISZERO ISZERO DUP2 MSTORE PUSH1 0x20 ADD SWAP2 POP POP PUSH1 0x40 MLOAD DUP1 SWAP2 SUB SWAP1 RETURN JUMPDEST PUSH2 0x869 PUSH1 0x4 DUP1 CALLDATASIZE SUB PUSH1 0x40 DUP2 LT ISZERO PUSH2 0x833 JUMPI PUSH1 0x0 DUP1 REVERT JUMPDEST DUP2 ADD SWAP1 DUP1 DUP1 CALLDATALOAD PUSH20 0xFFFFFFFFFFFFFFFFFFFFFFFFFFFFFFFFFFFFFFFF AND SWAP1 PUSH1 0x20 ADD SWAP1 SWAP3 SWAP2 SWAP1 DUP1 CALLDATALOAD SWAP1 PUSH1 0x20 ADD SWAP1 SWAP3 SWAP2 SWAP1 POP POP POP PUSH2 0xF1B JUMP JUMPDEST PUSH1 0x40 MLOAD DUP1 DUP3 ISZERO ISZERO ISZERO ISZERO DUP2 MSTORE PUSH1 0x20 ADD SWAP2 POP POP PUSH1 0x40 MLOAD DUP1 SWAP2 SUB SWAP1 RETURN JUMPDEST PUSH2 0x8C5 PUSH1 0x4 DUP1 CALLDATASIZE SUB PUSH1 0x20 DUP2 LT ISZERO PUSH2 0x899 JUMPI PUSH1 0x0 DUP1 REVERT JUMPDEST DUP2 ADD SWAP1 DUP1 DUP1 CALLDATALOAD PUSH20 0xFFFFFFFFFFFFFFFFFFFFFFFFFFFFFFFFFFFFFFFF AND SWAP1 PUSH1 0x20 ADD SWAP1 SWAP3 SWAP2 SWAP1 POP POP POP PUSH2 0xF49 JUMP JUMPDEST PUSH1 0x40 MLOAD DUP1 DUP3 ISZERO ISZERO ISZERO ISZERO DUP2 MSTORE PUSH1 0x20 ADD SWAP2 POP POP PUSH1 0x40 MLOAD DUP1 SWAP2 SUB SWAP1 RETURN JUMPDEST PUSH2 0x90B PUSH1 0x4 DUP1 CALLDATASIZE SUB PUSH1 0x20 DUP2 LT ISZERO PUSH2 0x8F5 JUMPI PUSH1 0x0 DUP1 REVERT JUMPDEST DUP2 ADD SWAP1 DUP1 DUP1 CALLDATALOAD SWAP1 PUSH1 0x20 ADD SWAP1 SWAP3 SWAP2 SWAP1 POP POP POP PUSH2 0xF66 JUMP JUMPDEST STOP JUMPDEST PUSH2 0x915 PUSH2 0xF70 JUMP JUMPDEST PUSH1 0x40 MLOAD DUP1 DUP3 DUP2 MSTORE PUSH1 0x20 ADD SWAP2 POP POP PUSH1 0x40 MLOAD DUP1 SWAP2 SUB SWAP1 RETURN JUMPDEST PUSH2 0x98D PUSH1 0x4 DUP1 CALLDATASIZE SUB PUSH1 0x40 DUP2 LT ISZERO PUSH2 0x941 JUMPI PUSH1 0x0 DUP1 REVERT JUMPDEST DUP2 ADD SWAP1 DUP1 DUP1 CALLDATALOAD PUSH20 0xFFFFFFFFFFFFFFFFFFFFFFFFFFFFFFFFFFFFFFFF AND SWAP1 PUSH1 0x20 ADD SWAP1 SWAP3 SWAP2 SWAP1 DUP1 CALLDATALOAD PUSH20 0xFFFFFFFFFFFFFFFFFFFFFFFFFFFFFFFFFFFFFFFF AND SWAP1 PUSH1 0x20 ADD SWAP1 SWAP3 SWAP2 SWAP1 POP POP POP PUSH2 0xF93 JUMP JUMPDEST PUSH1 0x40 MLOAD DUP1 DUP3 DUP2 MSTORE PUSH1 0x20 ADD SWAP2 POP POP PUSH1 0x40 MLOAD DUP1 SWAP2 SUB SWAP1 RETURN JUMPDEST PUSH2 0x9AB PUSH2 0x101A JUMP JUMPDEST PUSH1 0x40 MLOAD DUP1 DUP3 DUP2 MSTORE PUSH1 0x20 ADD SWAP2 POP POP PUSH1 0x40 MLOAD DUP1 SWAP2 SUB SWAP1 RETURN JUMPDEST PUSH1 0x60 PUSH1 0x0 DUP1 SLOAD PUSH1 0x1 DUP2 PUSH1 0x1 AND ISZERO PUSH2 0x100 MUL SUB AND PUSH1 0x2 SWAP1 DIV DUP1 PUSH1 0x1F ADD PUSH1 0x20 DUP1 SWAP2 DIV MUL PUSH1 0x20 ADD PUSH1 0x40 MLOAD SWAP1 DUP2 ADD PUSH1 0x40 MSTORE DUP1 SWAP3 SWAP2 SWAP1 DUP2 DUP2 MSTORE PUSH1 0x20 ADD DUP3 DUP1 SLOAD PUSH1 0x1 DUP2 PUSH1 0x1 AND ISZERO PUSH2 0x100 MUL SUB AND PUSH1 0x2 SWAP1 DIV DUP1 ISZERO PUSH2 0xA59 JUMPI DUP1 PUSH1 0x1F LT PUSH2 0xA2E JUMPI PUSH2 0x100 DUP1 DUP4 SLOAD DIV MUL DUP4 MSTORE SWAP2 PUSH1 0x20 ADD SWAP2 PUSH2 0xA59 JUMP JUMPDEST DUP3 ADD SWAP2 SWAP1 PUSH1 0x0 MSTORE PUSH1 0x20 PUSH1 0x0 KECCAK256 SWAP1 JUMPDEST DUP2 SLOAD DUP2 MSTORE SWAP1 PUSH1 0x1 ADD SWAP1 PUSH1 0x20 ADD DUP1 DUP4 GT PUSH2 0xA3C JUMPI DUP3 SWAP1 SUB PUSH1 0x1F AND DUP3 ADD SWAP2 JUMPDEST POP POP POP POP POP SWAP1 POP SWAP1 JUMP JUMPDEST PUSH1 0x0 PUSH1 0x9 PUSH1 0x0 SWAP1 SLOAD SWAP1 PUSH2 0x100 EXP SWAP1 DIV PUSH1 0xFF AND ISZERO PUSH2 0xA7F JUMPI PUSH1 0x0 DUP1 REVERT JUMPDEST PUSH2 0xA89 DUP4 DUP4 PUSH2 0x1020 JUMP JUMPDEST SWAP1 POP SWAP3 SWAP2 POP POP JUMP JUMPDEST PUSH1 0x0 PUSH1 0x5 SLOAD SWAP1 POP SWAP1 JUMP JUMPDEST PUSH1 0x0 PUSH1 0x9 PUSH1 0x0 SWAP1 SLOAD SWAP1 PUSH2 0x100 EXP SWAP1 DIV PUSH1 0xFF AND ISZERO PUSH2 0xAB7 JUMPI PUSH1 0x0 DUP1 REVERT JUMPDEST PUSH2 0xAC2 DUP5 DUP5 DUP5 PUSH2 0x1037 JUMP JUMPDEST SWAP1 POP SWAP4 SWAP3 POP POP POP JUMP JUMPDEST PUSH1 0x0 PUSH1 0x2 PUSH1 0x0 SWAP1 SLOAD SWAP1 PUSH2 0x100 EXP SWAP1 DIV PUSH1 0xFF AND SWAP1 POP SWAP1 JUMP JUMPDEST PUSH1 0x0 PUSH1 0x7 SLOAD SWAP1 POP SWAP1 JUMP JUMPDEST PUSH1 0x0 PUSH2 0xAF7 CALLER PUSH2 0xF49 JUMP JUMPDEST PUSH2 0xB00 JUMPI PUSH1 0x0 DUP1 REVERT JUMPDEST PUSH2 0xB09 DUP3 PUSH2 0xEC4 JUMP JUMPDEST PUSH2 0xB12 DUP3 PUSH2 0xD58 JUMP JUMPDEST PUSH2 0xB1A PUSH2 0xEE2 JUMP JUMPDEST PUSH2 0xB22 PUSH2 0xCF6 JUMP JUMPDEST PUSH32 0x73CCC9776A38BBCF5EEDAD6B771D6C1AB0827EAC87365A1059505D044C2475B4 DUP3 PUSH1 0x40 MLOAD DUP1 DUP3 PUSH20 0xFFFFFFFFFFFFFFFFFFFFFFFFFFFFFFFFFFFFFFFF AND PUSH20 0xFFFFFFFFFFFFFFFFFFFFFFFFFFFFFFFFFFFFFFFF AND DUP2 MSTORE PUSH1 0x20 ADD SWAP2 POP POP PUSH1 0x40 MLOAD DUP1 SWAP2 SUB SWAP1 LOG1 PUSH1 0x1 SWAP1 POP SWAP2 SWAP1 POP JUMP JUMPDEST PUSH1 0x0 PUSH1 0x9 PUSH1 0x0 SWAP1 SLOAD SWAP1 PUSH2 0x100 EXP SWAP1 DIV PUSH1 0xFF AND ISZERO PUSH2 0xBAA JUMPI PUSH1 0x0 DUP1 REVERT JUMPDEST PUSH2 0xBB4 DUP4 DUP4 PUSH2 0x10E8 JUMP JUMPDEST SWAP1 POP SWAP3 SWAP2 POP POP JUMP JUMPDEST PUSH2 0xBC5 CALLER PUSH2 0xCAF JUMP JUMPDEST PUSH2 0xBCE JUMPI PUSH1 0x0 DUP1 REVERT JUMPDEST PUSH1 0x9 PUSH1 0x0 SWAP1 SLOAD SWAP1 PUSH2 0x100 EXP SWAP1 DIV PUSH1 0xFF AND PUSH2 0xBE7 JUMPI PUSH1 0x0 DUP1 REVERT JUMPDEST PUSH1 0x0 PUSH1 0x9 PUSH1 0x0 PUSH2 0x100 EXP DUP2 SLOAD DUP2 PUSH1 0xFF MUL NOT AND SWAP1 DUP4 ISZERO ISZERO MUL OR SWAP1 SSTORE POP PUSH32 0x5DB9EE0A495BF2E6FF9C91A7834C1BA4FDD244A5E8AA4E537BD38AEAE4B073AA CALLER PUSH1 0x40 MLOAD DUP1 DUP3 PUSH20 0xFFFFFFFFFFFFFFFFFFFFFFFFFFFFFFFFFFFFFFFF AND PUSH20 0xFFFFFFFFFFFFFFFFFFFFFFFFFFFFFFFFFFFFFFFF AND DUP2 MSTORE PUSH1 0x20 ADD SWAP2 POP POP PUSH1 0x40 MLOAD DUP1 SWAP2 SUB SWAP1 LOG1 JUMP JUMPDEST PUSH1 0x0 PUSH2 0xC72 CALLER PUSH2 0xF49 JUMP JUMPDEST PUSH2 0xC7B JUMPI PUSH1 0x0 DUP1 REVERT JUMPDEST PUSH2 0xC85 DUP4 DUP4 PUSH2 0x118D JUMP JUMPDEST PUSH1 0x1 SWAP1 POP SWAP3 SWAP2 POP POP JUMP JUMPDEST DUP1 PUSH1 0xA PUSH1 0x0 DUP3 DUP3 SLOAD SUB SWAP3 POP POP DUP2 SWAP1 SSTORE POP POP JUMP JUMPDEST PUSH2 0xCAC CALLER DUP3 PUSH2 0x11C3 JUMP JUMPDEST POP JUMP JUMPDEST PUSH1 0x0 PUSH2 0xCC5 DUP3 PUSH1 0x8 PUSH2 0x1317 SWAP1 SWAP2 SWAP1 PUSH4 0xFFFFFFFF AND JUMP JUMPDEST SWAP1 POP SWAP2 SWAP1 POP JUMP JUMPDEST PUSH1 0x0 PUSH1 0x9 PUSH1 0x0 SWAP1 SLOAD SWAP1 PUSH2 0x100 EXP SWAP1 DIV PUSH1 0xFF AND SWAP1 POP SWAP1 JUMP JUMPDEST DUP1 PUSH1 0xA PUSH1 0x0 DUP3 DUP3 SLOAD ADD SWAP3 POP POP DUP2 SWAP1 SSTORE POP POP JUMP JUMPDEST PUSH2 0xCFF CALLER PUSH2 0x13A9 JUMP JUMPDEST JUMP JUMPDEST PUSH1 0x0 PUSH1 0x3 PUSH1 0x0 DUP4 PUSH20 0xFFFFFFFFFFFFFFFFFFFFFFFFFFFFFFFFFFFFFFFF AND PUSH20 0xFFFFFFFFFFFFFFFFFFFFFFFFFFFFFFFFFFFFFFFF AND DUP2 MSTORE PUSH1 0x20 ADD SWAP1 DUP2 MSTORE PUSH1 0x20 ADD PUSH1 0x0 KECCAK256 SLOAD SWAP1 POP SWAP2 SWAP1 POP JUMP JUMPDEST PUSH2 0xD54 DUP3 DUP3 PUSH2 0x1403 JUMP JUMPDEST POP POP JUMP JUMPDEST PUSH2 0xD61 CALLER PUSH2 0xCAF JUMP JUMPDEST PUSH2 0xD6A JUMPI PUSH1 0x0 DUP1 REVERT JUMPDEST PUSH2 0xD73 DUP2 PUSH2 0x14AA JUMP JUMPDEST POP JUMP JUMPDEST PUSH2 0xD7F CALLER PUSH2 0xCAF JUMP JUMPDEST PUSH2 0xD88 JUMPI PUSH1 0x0 DUP1 REVERT JUMPDEST PUSH1 0x9 PUSH1 0x0 SWAP1 SLOAD SWAP1 PUSH2 0x100 EXP SWAP1 DIV PUSH1 0xFF AND ISZERO PUSH2 0xDA2 JUMPI PUSH1 0x0 DUP1 REVERT JUMPDEST PUSH1 0x1 PUSH1 0x9 PUSH1 0x0 PUSH2 0x100 EXP DUP2 SLOAD DUP2 PUSH1 0xFF MUL NOT AND SWAP1 DUP4 ISZERO ISZERO MUL OR SWAP1 SSTORE POP PUSH32 0x62E78CEA01BEE320CD4E420270B5EA74000D11B0C9F74754EBDBFC544B05A258 CALLER PUSH1 0x40 MLOAD DUP1 DUP3 PUSH20 0xFFFFFFFFFFFFFFFFFFFFFFFFFFFFFFFFFFFFFFFF AND PUSH20 0xFFFFFFFFFFFFFFFFFFFFFFFFFFFFFFFFFFFFFFFF AND DUP2 MSTORE PUSH1 0x20 ADD SWAP2 POP POP PUSH1 0x40 MLOAD DUP1 SWAP2 SUB SWAP1 LOG1 JUMP JUMPDEST PUSH1 0x60 PUSH1 0x1 DUP1 SLOAD PUSH1 0x1 DUP2 PUSH1 0x1 AND ISZERO PUSH2 0x100 MUL SUB AND PUSH1 0x2 SWAP1 DIV DUP1 PUSH1 0x1F ADD PUSH1 0x20 DUP1 SWAP2 DIV MUL PUSH1 0x20 ADD PUSH1 0x40 MLOAD SWAP1 DUP2 ADD PUSH1 0x40 MSTORE DUP1 SWAP3 SWAP2 SWAP1 DUP2 DUP2 MSTORE PUSH1 0x20 ADD DUP3 DUP1 SLOAD PUSH1 0x1 DUP2 PUSH1 0x1 AND ISZERO PUSH2 0x100 MUL SUB AND PUSH1 0x2 SWAP1 DIV DUP1 ISZERO PUSH2 0xEBA JUMPI DUP1 PUSH1 0x1F LT PUSH2 0xE8F JUMPI PUSH2 0x100 DUP1 DUP4 SLOAD DIV MUL DUP4 MSTORE SWAP2 PUSH1 0x20 ADD SWAP2 PUSH2 0xEBA JUMP JUMPDEST DUP3 ADD SWAP2 SWAP1 PUSH1 0x0 MSTORE PUSH1 0x20 PUSH1 0x0 KECCAK256 SWAP1 JUMPDEST DUP2 SLOAD DUP2 MSTORE SWAP1 PUSH1 0x1 ADD SWAP1 PUSH1 0x20 ADD DUP1 DUP4 GT PUSH2 0xE9D JUMPI DUP3 SWAP1 SUB PUSH1 0x1F AND DUP3 ADD SWAP2 JUMPDEST POP POP POP POP POP SWAP1 POP SWAP1 JUMP JUMPDEST PUSH2 0xECD CALLER PUSH2 0xF49 JUMP JUMPDEST PUSH2 0xED6 JUMPI PUSH1 0x0 DUP1 REVERT JUMPDEST PUSH2 0xEDF DUP2 PUSH2 0x1504 JUMP JUMPDEST POP JUMP JUMPDEST PUSH2 0xEEB CALLER PUSH2 0x155E JUMP JUMPDEST JUMP JUMPDEST PUSH1 0x0 PUSH1 0x9 PUSH1 0x0 SWAP1 SLOAD SWAP1 PUSH2 0x100 EXP SWAP1 DIV PUSH1 0xFF AND ISZERO PUSH2 0xF09 JUMPI PUSH1 0x0 DUP1 REVERT JUMPDEST PUSH2 0xF13 DUP4 DUP4 PUSH2 0x15B8 JUMP JUMPDEST SWAP1 POP SWAP3 SWAP2 POP POP JUMP JUMPDEST PUSH1 0x0 PUSH1 0x9 PUSH1 0x0 SWAP1 SLOAD SWAP1 PUSH2 0x100 EXP SWAP1 DIV PUSH1 0xFF AND ISZERO PUSH2 0xF37 JUMPI PUSH1 0x0 DUP1 REVERT JUMPDEST PUSH2 0xF41 DUP4 DUP4 PUSH2 0x165D JUMP JUMPDEST SWAP1 POP SWAP3 SWAP2 POP POP JUMP JUMPDEST PUSH1 0x0 PUSH2 0xF5F DUP3 PUSH1 0x6 PUSH2 0x1317 SWAP1 SWAP2 SWAP1 PUSH4 0xFFFFFFFF AND JUMP JUMPDEST SWAP1 POP SWAP2 SWAP1 POP JUMP JUMPDEST DUP1 PUSH1 0xA DUP2 SWAP1 SSTORE POP POP JUMP JUMPDEST PUSH1 0x0 DUP1 PUSH1 0xA SLOAD SLT ISZERO PUSH2 0xF88 JUMPI PUSH1 0xA SLOAD TIMESTAMP SUB SWAP1 POP PUSH2 0xF90 JUMP JUMPDEST PUSH1 0xA SLOAD TIMESTAMP ADD SWAP1 POP JUMPDEST SWAP1 JUMP JUMPDEST PUSH1 0x0 PUSH1 0x4 PUSH1 0x0 DUP5 PUSH20 0xFFFFFFFFFFFFFFFFFFFFFFFFFFFFFFFFFFFFFFFF AND PUSH20 0xFFFFFFFFFFFFFFFFFFFFFFFFFFFFFFFFFFFFFFFF AND DUP2 MSTORE PUSH1 0x20 ADD SWAP1 DUP2 MSTORE PUSH1 0x20 ADD PUSH1 0x0 KECCAK256 PUSH1 0x0 DUP4 PUSH20 0xFFFFFFFFFFFFFFFFFFFFFFFFFFFFFFFFFFFFFFFF AND PUSH20 0xFFFFFFFFFFFFFFFFFFFFFFFFFFFFFFFFFFFFFFFF AND DUP2 MSTORE PUSH1 0x20 ADD SWAP1 DUP2 MSTORE PUSH1 0x20 ADD PUSH1 0x0 KECCAK256 SLOAD SWAP1 POP SWAP3 SWAP2 POP POP JUMP JUMPDEST PUSH1 0xA SLOAD DUP2 JUMP JUMPDEST PUSH1 0x0 PUSH2 0x102D CALLER DUP5 DUP5 PUSH2 0x1674 JUMP JUMPDEST PUSH1 0x1 SWAP1 POP SWAP3 SWAP2 POP POP JUMP JUMPDEST PUSH1 0x0 PUSH2 0x1044 DUP5 DUP5 DUP5 PUSH2 0x17D3 JUMP JUMPDEST PUSH2 0x10DD DUP5 CALLER PUSH2 0x10D8 DUP6 PUSH1 0x4 PUSH1 0x0 DUP11 PUSH20 0xFFFFFFFFFFFFFFFFFFFFFFFFFFFFFFFFFFFFFFFF AND PUSH20 0xFFFFFFFFFFFFFFFFFFFFFFFFFFFFFFFFFFFFFFFF AND DUP2 MSTORE PUSH1 0x20 ADD SWAP1 DUP2 MSTORE PUSH1 0x20 ADD PUSH1 0x0 KECCAK256 PUSH1 0x0 CALLER PUSH20 0xFFFFFFFFFFFFFFFFFFFFFFFFFFFFFFFFFFFFFFFF AND PUSH20 0xFFFFFFFFFFFFFFFFFFFFFFFFFFFFFFFFFFFFFFFF AND DUP2 MSTORE PUSH1 0x20 ADD SWAP1 DUP2 MSTORE PUSH1 0x20 ADD PUSH1 0x0 KECCAK256 SLOAD PUSH2 0x19A1 SWAP1 SWAP2 SWAP1 PUSH4 0xFFFFFFFF AND JUMP JUMPDEST PUSH2 0x1674 JUMP JUMPDEST PUSH1 0x1 SWAP1 POP SWAP4 SWAP3 POP POP POP JUMP JUMPDEST PUSH1 0x0 PUSH2 0x1183 CALLER DUP5 PUSH2 0x117E DUP6 PUSH1 0x4 PUSH1 0x0 CALLER PUSH20 0xFFFFFFFFFFFFFFFFFFFFFFFFFFFFFFFFFFFFFFFF AND PUSH20 0xFFFFFFFFFFFFFFFFFFFFFFFFFFFFFFFFFFFFFFFF AND DUP2 MSTORE PUSH1 0x20 ADD SWAP1 DUP2 MSTORE PUSH1 0x20 ADD PUSH1 0x0 KECCAK256 PUSH1 0x0 DUP10 PUSH20 0xFFFFFFFFFFFFFFFFFFFFFFFFFFFFFFFFFFFFFFFF AND PUSH20 0xFFFFFFFFFFFFFFFFFFFFFFFFFFFFFFFFFFFFFFFF AND DUP2 MSTORE PUSH1 0x20 ADD SWAP1 DUP2 MSTORE PUSH1 0x20 ADD PUSH1 0x0 KECCAK256 SLOAD PUSH2 0x19C1 SWAP1 SWAP2 SWAP1 PUSH4 0xFFFFFFFF AND JUMP JUMPDEST PUSH2 0x1674 JUMP JUMPDEST PUSH1 0x1 SWAP1 POP SWAP3 SWAP2 POP POP JUMP JUMPDEST PUSH1 0x7 SLOAD PUSH2 0x11AA DUP3 PUSH2 0x119C PUSH2 0xA91 JUMP JUMPDEST PUSH2 0x19C1 SWAP1 SWAP2 SWAP1 PUSH4 0xFFFFFFFF AND JUMP JUMPDEST GT ISZERO PUSH2 0x11B5 JUMPI PUSH1 0x0 DUP1 REVERT JUMPDEST PUSH2 0x11BF DUP3 DUP3 PUSH2 0x19E0 JUMP JUMPDEST POP POP JUMP JUMPDEST PUSH1 0x0 PUSH20 0xFFFFFFFFFFFFFFFFFFFFFFFFFFFFFFFFFFFFFFFF AND DUP3 PUSH20 0xFFFFFFFFFFFFFFFFFFFFFFFFFFFFFFFFFFFFFFFF AND EQ ISZERO PUSH2 0x11FD JUMPI PUSH1 0x0 DUP1 REVERT JUMPDEST PUSH2 0x1212 DUP2 PUSH1 0x5 SLOAD PUSH2 0x19A1 SWAP1 SWAP2 SWAP1 PUSH4 0xFFFFFFFF AND JUMP JUMPDEST PUSH1 0x5 DUP2 SWAP1 SSTORE POP PUSH2 0x126A DUP2 PUSH1 0x3 PUSH1 0x0 DUP6 PUSH20 0xFFFFFFFFFFFFFFFFFFFFFFFFFFFFFFFFFFFFFFFF AND PUSH20 0xFFFFFFFFFFFFFFFFFFFFFFFFFFFFFFFFFFFFFFFF AND DUP2 MSTORE PUSH1 0x20 ADD SWAP1 DUP2 MSTORE PUSH1 0x20 ADD PUSH1 0x0 KECCAK256 SLOAD PUSH2 0x19A1 SWAP1 SWAP2 SWAP1 PUSH4 0xFFFFFFFF AND JUMP JUMPDEST PUSH1 0x3 PUSH1 0x0 DUP5 PUSH20 0xFFFFFFFFFFFFFFFFFFFFFFFFFFFFFFFFFFFFFFFF AND PUSH20 0xFFFFFFFFFFFFFFFFFFFFFFFFFFFFFFFFFFFFFFFF AND DUP2 MSTORE PUSH1 0x20 ADD SWAP1 DUP2 MSTORE PUSH1 0x20 ADD PUSH1 0x0 KECCAK256 DUP2 SWAP1 SSTORE POP PUSH1 0x0 PUSH20 0xFFFFFFFFFFFFFFFFFFFFFFFFFFFFFFFFFFFFFFFF AND DUP3 PUSH20 0xFFFFFFFFFFFFFFFFFFFFFFFFFFFFFFFFFFFFFFFF AND PUSH32 0xDDF252AD1BE2C89B69C2B068FC378DAA952BA7F163C4A11628F55A4DF523B3EF DUP4 PUSH1 0x40 MLOAD DUP1 DUP3 DUP2 MSTORE PUSH1 0x20 ADD SWAP2 POP POP PUSH1 0x40 MLOAD DUP1 SWAP2 SUB SWAP1 LOG3 POP POP JUMP JUMPDEST PUSH1 0x0 DUP1 PUSH20 0xFFFFFFFFFFFFFFFFFFFFFFFFFFFFFFFFFFFFFFFF AND DUP3 PUSH20 0xFFFFFFFFFFFFFFFFFFFFFFFFFFFFFFFFFFFFFFFF AND EQ ISZERO PUSH2 0x1352 JUMPI PUSH1 0x0 DUP1 REVERT JUMPDEST DUP3 PUSH1 0x0 ADD PUSH1 0x0 DUP4 PUSH20 0xFFFFFFFFFFFFFFFFFFFFFFFFFFFFFFFFFFFFFFFF AND PUSH20 0xFFFFFFFFFFFFFFFFFFFFFFFFFFFFFFFFFFFFFFFF AND DUP2 MSTORE PUSH1 0x20 ADD SWAP1 DUP2 MSTORE PUSH1 0x20 ADD PUSH1 0x0 KECCAK256 PUSH1 0x0 SWAP1 SLOAD SWAP1 PUSH2 0x100 EXP SWAP1 DIV PUSH1 0xFF AND SWAP1 POP SWAP3 SWAP2 POP POP JUMP JUMPDEST PUSH2 0x13BD DUP2 PUSH1 0x8 PUSH2 0x1B34 SWAP1 SWAP2 SWAP1 PUSH4 0xFFFFFFFF AND JUMP JUMPDEST DUP1 PUSH20 0xFFFFFFFFFFFFFFFFFFFFFFFFFFFFFFFFFFFFFFFF AND PUSH32 0xCD265EBAF09DF2871CC7BD4133404A235BA12EFF2041BB89D9C714A2621C7C7E PUSH1 0x40 MLOAD PUSH1 0x40 MLOAD DUP1 SWAP2 SUB SWAP1 LOG2 POP JUMP JUMPDEST PUSH2 0x140D DUP3 DUP3 PUSH2 0x11C3 JUMP JUMPDEST PUSH2 0x14A6 DUP3 CALLER PUSH2 0x14A1 DUP5 PUSH1 0x4 PUSH1 0x0 DUP9 PUSH20 0xFFFFFFFFFFFFFFFFFFFFFFFFFFFFFFFFFFFFFFFF AND PUSH20 0xFFFFFFFFFFFFFFFFFFFFFFFFFFFFFFFFFFFFFFFF AND DUP2 MSTORE PUSH1 0x20 ADD SWAP1 DUP2 MSTORE PUSH1 0x20 ADD PUSH1 0x0 KECCAK256 PUSH1 0x0 CALLER PUSH20 0xFFFFFFFFFFFFFFFFFFFFFFFFFFFFFFFFFFFFFFFF AND PUSH20 0xFFFFFFFFFFFFFFFFFFFFFFFFFFFFFFFFFFFFFFFF AND DUP2 MSTORE PUSH1 0x20 ADD SWAP1 DUP2 MSTORE PUSH1 0x20 ADD PUSH1 0x0 KECCAK256 SLOAD PUSH2 0x19A1 SWAP1 SWAP2 SWAP1 PUSH4 0xFFFFFFFF AND JUMP JUMPDEST PUSH2 0x1674 JUMP JUMPDEST POP POP JUMP JUMPDEST PUSH2 0x14BE DUP2 PUSH1 0x8 PUSH2 0x1BDF SWAP1 SWAP2 SWAP1 PUSH4 0xFFFFFFFF AND JUMP JUMPDEST DUP1 PUSH20 0xFFFFFFFFFFFFFFFFFFFFFFFFFFFFFFFFFFFFFFFF AND PUSH32 0x6719D08C1888103BEA251A4ED56406BD0C3E69723C8A1686E017E7BBE159B6F8 PUSH1 0x40 MLOAD PUSH1 0x40 MLOAD DUP1 SWAP2 SUB SWAP1 LOG2 POP JUMP JUMPDEST PUSH2 0x1518 DUP2 PUSH1 0x6 PUSH2 0x1BDF SWAP1 SWAP2 SWAP1 PUSH4 0xFFFFFFFF AND JUMP JUMPDEST DUP1 PUSH20 0xFFFFFFFFFFFFFFFFFFFFFFFFFFFFFFFFFFFFFFFF AND PUSH32 0x6AE172837EA30B801FBFCDD4108AA1D5BF8FF775444FD70256B44E6BF3DFC3F6 PUSH1 0x40 MLOAD PUSH1 0x40 MLOAD DUP1 SWAP2 SUB SWAP1 LOG2 POP JUMP JUMPDEST PUSH2 0x1572 DUP2 PUSH1 0x6 PUSH2 0x1B34 SWAP1 SWAP2 SWAP1 PUSH4 0xFFFFFFFF AND JUMP JUMPDEST DUP1 PUSH20 0xFFFFFFFFFFFFFFFFFFFFFFFFFFFFFFFFFFFFFFFF AND PUSH32 0xE94479A9F7E1952CC78F2D6BAAB678ADC1B772D936C6583DEF489E524CB66692 PUSH1 0x40 MLOAD PUSH1 0x40 MLOAD DUP1 SWAP2 SUB SWAP1 LOG2 POP JUMP JUMPDEST PUSH1 0x0 PUSH2 0x1653 CALLER DUP5 PUSH2 0x164E DUP6 PUSH1 0x4 PUSH1 0x0 CALLER PUSH20 0xFFFFFFFFFFFFFFFFFFFFFFFFFFFFFFFFFFFFFFFF AND PUSH20 0xFFFFFFFFFFFFFFFFFFFFFFFFFFFFFFFFFFFFFFFF AND DUP2 MSTORE PUSH1 0x20 ADD SWAP1 DUP2 MSTORE PUSH1 0x20 ADD PUSH1 0x0 KECCAK256 PUSH1 0x0 DUP10 PUSH20 0xFFFFFFFFFFFFFFFFFFFFFFFFFFFFFFFFFFFFFFFF AND PUSH20 0xFFFFFFFFFFFFFFFFFFFFFFFFFFFFFFFFFFFFFFFF AND DUP2 MSTORE PUSH1 0x20 ADD SWAP1 DUP2 MSTORE PUSH1 0x20 ADD PUSH1 0x0 KECCAK256 SLOAD PUSH2 0x19A1 SWAP1 SWAP2 SWAP1 PUSH4 0xFFFFFFFF AND JUMP JUMPDEST PUSH2 0x1674 JUMP JUMPDEST PUSH1 0x1 SWAP1 POP SWAP3 SWAP2 POP POP JUMP JUMPDEST PUSH1 0x0 PUSH2 0x166A CALLER DUP5 DUP5 PUSH2 0x17D3 JUMP JUMPDEST PUSH1 0x1 SWAP1 POP SWAP3 SWAP2 POP POP JUMP JUMPDEST PUSH1 0x0 PUSH20 0xFFFFFFFFFFFFFFFFFFFFFFFFFFFFFFFFFFFFFFFF AND DUP3 PUSH20 0xFFFFFFFFFFFFFFFFFFFFFFFFFFFFFFFFFFFFFFFF AND EQ ISZERO PUSH2 0x16AE JUMPI PUSH1 0x0 DUP1 REVERT JUMPDEST PUSH1 0x0 PUSH20 0xFFFFFFFFFFFFFFFFFFFFFFFFFFFFFFFFFFFFFFFF AND DUP4 PUSH20 0xFFFFFFFFFFFFFFFFFFFFFFFFFFFFFFFFFFFFFFFF AND EQ ISZERO PUSH2 0x16E8 JUMPI PUSH1 0x0 DUP1 REVERT JUMPDEST DUP1 PUSH1 0x4 PUSH1 0x0 DUP6 PUSH20 0xFFFFFFFFFFFFFFFFFFFFFFFFFFFFFFFFFFFFFFFF AND PUSH20 0xFFFFFFFFFFFFFFFFFFFFFFFFFFFFFFFFFFFFFFFF AND DUP2 MSTORE PUSH1 0x20 ADD SWAP1 DUP2 MSTORE PUSH1 0x20 ADD PUSH1 0x0 KECCAK256 PUSH1 0x0 DUP5 PUSH20 0xFFFFFFFFFFFFFFFFFFFFFFFFFFFFFFFFFFFFFFFF AND PUSH20 0xFFFFFFFFFFFFFFFFFFFFFFFFFFFFFFFFFFFFFFFF AND DUP2 MSTORE PUSH1 0x20 ADD SWAP1 DUP2 MSTORE PUSH1 0x20 ADD PUSH1 0x0 KECCAK256 DUP2 SWAP1 SSTORE POP DUP2 PUSH20 0xFFFFFFFFFFFFFFFFFFFFFFFFFFFFFFFFFFFFFFFF AND DUP4 PUSH20 0xFFFFFFFFFFFFFFFFFFFFFFFFFFFFFFFFFFFFFFFF AND PUSH32 0x8C5BE1E5EBEC7D5BD14F71427D1E84F3DD0314C0F7B2291E5B200AC8C7C3B925 DUP4 PUSH1 0x40 MLOAD DUP1 DUP3 DUP2 MSTORE PUSH1 0x20 ADD SWAP2 POP POP PUSH1 0x40 MLOAD DUP1 SWAP2 SUB SWAP1 LOG3 POP POP POP JUMP JUMPDEST PUSH1 0x0 PUSH20 0xFFFFFFFFFFFFFFFFFFFFFFFFFFFFFFFFFFFFFFFF AND DUP3 PUSH20 0xFFFFFFFFFFFFFFFFFFFFFFFFFFFFFFFFFFFFFFFF AND EQ ISZERO PUSH2 0x180D JUMPI PUSH1 0x0 DUP1 REVERT JUMPDEST PUSH2 0x185F DUP2 PUSH1 0x3 PUSH1 0x0 DUP7 PUSH20 0xFFFFFFFFFFFFFFFFFFFFFFFFFFFFFFFFFFFFFFFF AND PUSH20 0xFFFFFFFFFFFFFFFFFFFFFFFFFFFFFFFFFFFFFFFF AND DUP2 MSTORE PUSH1 0x20 ADD SWAP1 DUP2 MSTORE PUSH1 0x20 ADD PUSH1 0x0 KECCAK256 SLOAD PUSH2 0x19A1 SWAP1 SWAP2 SWAP1 PUSH4 0xFFFFFFFF AND JUMP JUMPDEST PUSH1 0x3 PUSH1 0x0 DUP6 PUSH20 0xFFFFFFFFFFFFFFFFFFFFFFFFFFFFFFFFFFFFFFFF AND PUSH20 0xFFFFFFFFFFFFFFFFFFFFFFFFFFFFFFFFFFFFFFFF AND DUP2 MSTORE PUSH1 0x20 ADD SWAP1 DUP2 MSTORE PUSH1 0x20 ADD PUSH1 0x0 KECCAK256 DUP2 SWAP1 SSTORE POP PUSH2 0x18F4 DUP2 PUSH1 0x3 PUSH1 0x0 DUP6 PUSH20 0xFFFFFFFFFFFFFFFFFFFFFFFFFFFFFFFFFFFFFFFF AND PUSH20 0xFFFFFFFFFFFFFFFFFFFFFFFFFFFFFFFFFFFFFFFF AND DUP2 MSTORE PUSH1 0x20 ADD SWAP1 DUP2 MSTORE PUSH1 0x20 ADD PUSH1 0x0 KECCAK256 SLOAD PUSH2 0x19C1 SWAP1 SWAP2 SWAP1 PUSH4 0xFFFFFFFF AND JUMP JUMPDEST PUSH1 0x3 PUSH1 0x0 DUP5 PUSH20 0xFFFFFFFFFFFFFFFFFFFFFFFFFFFFFFFFFFFFFFFF AND PUSH20 0xFFFFFFFFFFFFFFFFFFFFFFFFFFFFFFFFFFFFFFFF AND DUP2 MSTORE PUSH1 0x20 ADD SWAP1 DUP2 MSTORE PUSH1 0x20 ADD PUSH1 0x0 KECCAK256 DUP2 SWAP1 SSTORE POP DUP2 PUSH20 0xFFFFFFFFFFFFFFFFFFFFFFFFFFFFFFFFFFFFFFFF AND DUP4 PUSH20 0xFFFFFFFFFFFFFFFFFFFFFFFFFFFFFFFFFFFFFFFF AND PUSH32 0xDDF252AD1BE2C89B69C2B068FC378DAA952BA7F163C4A11628F55A4DF523B3EF DUP4 PUSH1 0x40 MLOAD DUP1 DUP3 DUP2 MSTORE PUSH1 0x20 ADD SWAP2 POP POP PUSH1 0x40 MLOAD DUP1 SWAP2 SUB SWAP1 LOG3 POP POP POP JUMP JUMPDEST PUSH1 0x0 DUP3 DUP3 GT ISZERO PUSH2 0x19B0 JUMPI PUSH1 0x0 DUP1 REVERT JUMPDEST PUSH1 0x0 DUP3 DUP5 SUB SWAP1 POP DUP1 SWAP2 POP POP SWAP3 SWAP2 POP POP JUMP JUMPDEST PUSH1 0x0 DUP1 DUP3 DUP5 ADD SWAP1 POP DUP4 DUP2 LT ISZERO PUSH2 0x19D6 JUMPI PUSH1 0x0 DUP1 REVERT JUMPDEST DUP1 SWAP2 POP POP SWAP3 SWAP2 POP POP JUMP JUMPDEST PUSH1 0x0 PUSH20 0xFFFFFFFFFFFFFFFFFFFFFFFFFFFFFFFFFFFFFFFF AND DUP3 PUSH20 0xFFFFFFFFFFFFFFFFFFFFFFFFFFFFFFFFFFFFFFFF AND EQ ISZERO PUSH2 0x1A1A JUMPI PUSH1 0x0 DUP1 REVERT JUMPDEST PUSH2 0x1A2F DUP2 PUSH1 0x5 SLOAD PUSH2 0x19C1 SWAP1 SWAP2 SWAP1 PUSH4 0xFFFFFFFF AND JUMP JUMPDEST PUSH1 0x5 DUP2 SWAP1 SSTORE POP PUSH2 0x1A87 DUP2 PUSH1 0x3 PUSH1 0x0 DUP6 PUSH20 0xFFFFFFFFFFFFFFFFFFFFFFFFFFFFFFFFFFFFFFFF AND PUSH20 0xFFFFFFFFFFFFFFFFFFFFFFFFFFFFFFFFFFFFFFFF AND DUP2 MSTORE PUSH1 0x20 ADD SWAP1 DUP2 MSTORE PUSH1 0x20 ADD PUSH1 0x0 KECCAK256 SLOAD PUSH2 0x19C1 SWAP1 SWAP2 SWAP1 PUSH4 0xFFFFFFFF AND JUMP JUMPDEST PUSH1 0x3 PUSH1 0x0 DUP5 PUSH20 0xFFFFFFFFFFFFFFFFFFFFFFFFFFFFFFFFFFFFFFFF AND PUSH20 0xFFFFFFFFFFFFFFFFFFFFFFFFFFFFFFFFFFFFFFFF AND DUP2 MSTORE PUSH1 0x20 ADD SWAP1 DUP2 MSTORE PUSH1 0x20 ADD PUSH1 0x0 KECCAK256 DUP2 SWAP1 SSTORE POP DUP2 PUSH20 0xFFFFFFFFFFFFFFFFFFFFFFFFFFFFFFFFFFFFFFFF AND PUSH1 0x0 PUSH20 0xFFFFFFFFFFFFFFFFFFFFFFFFFFFFFFFFFFFFFFFF AND PUSH32 0xDDF252AD1BE2C89B69C2B068FC378DAA952BA7F163C4A11628F55A4DF523B3EF DUP4 PUSH1 0x40 MLOAD DUP1 DUP3 DUP2 MSTORE PUSH1 0x20 ADD SWAP2 POP POP PUSH1 0x40 MLOAD DUP1 SWAP2 SUB SWAP1 LOG3 POP POP JUMP JUMPDEST PUSH1 0x0 PUSH20 0xFFFFFFFFFFFFFFFFFFFFFFFFFFFFFFFFFFFFFFFF AND DUP2 PUSH20 0xFFFFFFFFFFFFFFFFFFFFFFFFFFFFFFFFFFFFFFFF AND EQ ISZERO PUSH2 0x1B6E JUMPI PUSH1 0x0 DUP1 REVERT JUMPDEST PUSH2 0x1B78 DUP3 DUP3 PUSH2 0x1317 JUMP JUMPDEST PUSH2 0x1B81 JUMPI PUSH1 0x0 DUP1 REVERT JUMPDEST PUSH1 0x0 DUP3 PUSH1 0x0 ADD PUSH1 0x0 DUP4 PUSH20 0xFFFFFFFFFFFFFFFFFFFFFFFFFFFFFFFFFFFFFFFF AND PUSH20 0xFFFFFFFFFFFFFFFFFFFFFFFFFFFFFFFFFFFFFFFF AND DUP2 MSTORE PUSH1 0x20 ADD SWAP1 DUP2 MSTORE PUSH1 0x20 ADD PUSH1 0x0 KECCAK256 PUSH1 0x0 PUSH2 0x100 EXP DUP2 SLOAD DUP2 PUSH1 0xFF MUL NOT AND SWAP1 DUP4 ISZERO ISZERO MUL OR SWAP1 SSTORE POP POP POP JUMP JUMPDEST PUSH1 0x0 PUSH20 0xFFFFFFFFFFFFFFFFFFFFFFFFFFFFFFFFFFFFFFFF AND DUP2 PUSH20 0xFFFFFFFFFFFFFFFFFFFFFFFFFFFFFFFFFFFFFFFF AND EQ ISZERO PUSH2 0x1C19 JUMPI PUSH1 0x0 DUP1 REVERT JUMPDEST PUSH2 0x1C23 DUP3 DUP3 PUSH2 0x1317 JUMP JUMPDEST ISZERO PUSH2 0x1C2D JUMPI PUSH1 0x0 DUP1 REVERT JUMPDEST PUSH1 0x1 DUP3 PUSH1 0x0 ADD PUSH1 0x0 DUP4 PUSH20 0xFFFFFFFFFFFFFFFFFFFFFFFFFFFFFFFFFFFFFFFF AND PUSH20 0xFFFFFFFFFFFFFFFFFFFFFFFFFFFFFFFFFFFFFFFF AND DUP2 MSTORE PUSH1 0x20 ADD SWAP1 DUP2 MSTORE PUSH1 0x20 ADD PUSH1 0x0 KECCAK256 PUSH1 0x0 PUSH2 0x100 EXP DUP2 SLOAD DUP2 PUSH1 0xFF MUL NOT AND SWAP1 DUP4 ISZERO ISZERO MUL OR SWAP1 SSTORE POP POP POP JUMP INVALID LOG2 PUSH6 0x627A7A723058 KECCAK256 0xe4 0xca ADDMOD 0xa6 0xfb 0x25 PUSH10 0xA4F3F6293CB87ECEB64B 0xd7 0xba AND PUSH28 0xF58637A81D55463BF7027764736F6C634300050A0032000000000000 "},"gasEstimates":{"creation":{"codeDepositCost":"1472000","executionCost":"infinite","totalCost":"infinite"},"external":{"AddNRTManager(address)":"infinite","addMinter(address)":"infinite","addPauser(address)":"infinite","allowance(address,address)":"809","approve(address,uint256)":"22857","balanceOf(address)":"664","burn(uint256)":"infinite","burnFrom(address,uint256)":"infinite","cap()":"503","decimals()":"529","decreaseAllowance(address,uint256)":"infinite","goToFuture(uint256)":"20572","goToPast(uint256)":"20573","increaseAllowance(address,uint256)":"infinite","isMinter(address)":"infinite","isPauser(address)":"infinite","mint(address,uint256)":"infinite","mou()":"721","name()":"infinite","pause()":"infinite","paused()":"550","renounceMinter()":"infinite","renouncePauser()":"infinite","setTimeMachineDepth(int256)":"20286","symbol()":"infinite","timeMachineDepth()":"515","totalSupply()":"504","transfer(address,uint256)":"infinite","transferFrom(address,address,uint256)":"infinite","unpause()":"infinite"}},"methodIdentifiers":{"AddNRTManager(address)":"382b5e45","addMinter(address)":"983b2d56","addPauser(address)":"82dc1ec4","allowance(address,address)":"dd62ed3e","approve(address,uint256)":"095ea7b3","balanceOf(address)":"70a08231","burn(uint256)":"42966c68","burnFrom(address,uint256)":"79cc6790","cap()":"355274ea","decimals()":"313ce567","decreaseAllowance(address,uint256)":"a457c2d7","goToFuture(uint256)":"6316467e","goToPast(uint256)":"415f4c1b","increaseAllowance(address,uint256)":"39509351","isMinter(address)":"aa271e1a","isPauser(address)":"46fbf68e","mint(address,uint256)":"40c10f19","mou()":"b81f90f3","name()":"06fdde03","pause()":"8456cb59","paused()":"5c975abb","renounceMinter()":"98650275","renouncePauser()":"6ef8d66d","setTimeMachineDepth(int256)":"b015fbb2","symbol()":"95d89b41","timeMachineDepth()":"e91c3c10","totalSupply()":"18160ddd","transfer(address,uint256)":"a9059cbb","transferFrom(address,address,uint256)":"23b872dd","unpause()":"3f4ba83a"}},"userdoc":{"methods":{}}}