{"abi":[{"constant":true,"inputs":[],"name":"contingencyFunds","outputs":[{"name":"","type":"address"}],"payable":false,"stateMutability":"view","type":"function"},{"constant":true,"inputs":[],"name":"monthCount","outputs":[{"name":"","type":"uint256"}],"payable":false,"stateMutability":"view","type":"function"},{"constant":true,"inputs":[],"name":"newTalentsAndPartnerships","outputs":[{"name":"","type":"address"}],"payable":false,"stateMutability":"view","type":"function"},{"constant":true,"inputs":[],"name":"kmPardsBal","outputs":[{"name":"","type":"uint256"}],"payable":false,"stateMutability":"view","type":"function"},{"constant":false,"inputs":[{"name":"amount","type":"uint256"}],"name":"UpdateLuckpool","outputs":[{"name":"","type":"bool"}],"payable":false,"stateMutability":"nonpayable","type":"function"},{"constant":true,"inputs":[],"name":"platformMaintenance","outputs":[{"name":"","type":"address"}],"payable":false,"stateMutability":"view","type":"function"},{"constant":true,"inputs":[],"name":"timeAllyNRT","outputs":[{"name":"","type":"uint256"}],"payable":false,"stateMutability":"view","type":"function"},{"constant":false,"inputs":[{"name":"amount","type":"uint256"}],"name":"UpdateBurnBal","outputs":[{"name":"","type":"bool"}],"payable":false,"stateMutability":"nonpayable","type":"function"},{"constant":true,"inputs":[],"name":"burnTokenBal","outputs":[{"name":"","type":"uint256"}],"payable":false,"stateMutability":"view","type":"function"},{"constant":true,"inputs":[],"name":"marketingAndRNR","outputs":[{"name":"","type":"address"}],"payable":false,"stateMutability":"view","type":"function"},{"constant":true,"inputs":[],"name":"researchAndDevelopment","outputs":[{"name":"","type":"address"}],"payable":false,"stateMutability":"view","type":"function"},{"constant":true,"inputs":[],"name":"contingencyFundsBal","outputs":[{"name":"","type":"uint256"}],"payable":false,"stateMutability":"view","type":"function"},{"constant":true,"inputs":[],"name":"monthlyNRTAmount","outputs":[{"name":"","type":"uint256"}],"payable":false,"stateMutability":"view","type":"function"},{"constant":true,"inputs":[],"name":"kmPards","outputs":[{"name":"","type":"address"}],"payable":false,"stateMutability":"view","type":"function"},{"constant":true,"inputs":[],"name":"timeAlly","outputs":[{"name":"","type":"address"}],"payable":false,"stateMutability":"view","type":"function"},{"constant":true,"inputs":[],"name":"powerTokenNRT","outputs":[{"name":"","type":"uint256"}],"payable":false,"stateMutability":"view","type":"function"},{"constant":true,"inputs":[],"name":"lastNRTRelease","outputs":[{"name":"","type":"uint256"}],"payable":false,"stateMutability":"view","type":"function"},{"constant":true,"inputs":[],"name":"annualNRTAmount","outputs":[{"name":"","type":"uint256"}],"payable":false,"stateMutability":"view","type":"function"},{"constant":true,"inputs":[],"name":"researchAndDevelopmentBal","outputs":[{"name":"","type":"uint256"}],"payable":false,"stateMutability":"view","type":"function"},{"constant":true,"inputs":[],"name":"powerToken","outputs":[{"name":"","type":"address"}],"payable":false,"stateMutability":"view","type":"function"},{"constant":true,"inputs":[],"name":"timeSwappers","outputs":[{"name":"","type":"address"}],"payable":false,"stateMutability":"view","type":"function"},{"constant":false,"inputs":[],"name":"MonthlyNRTRelease","outputs":[{"name":"","type":"bool"}],"payable":false,"stateMutability":"nonpayable","type":"function"},{"constant":true,"inputs":[],"name":"platformMaintenanceBal","outputs":[{"name":"","type":"uint256"}],"payable":false,"stateMutability":"view","type":"function"},{"constant":true,"inputs":[],"name":"timeSwappersNRT","outputs":[{"name":"","type":"uint256"}],"payable":false,"stateMutability":"view","type":"function"},{"constant":true,"inputs":[],"name":"luckPoolBal","outputs":[{"name":"","type":"uint256"}],"payable":false,"stateMutability":"view","type":"function"},{"constant":false,"inputs":[{"name":"pool","type":"address[9]"}],"name":"UpdateAddresses","outputs":[{"name":"","type":"bool"}],"payable":false,"stateMutability":"nonpayable","type":"function"},{"constant":true,"inputs":[],"name":"marketingAndRNRBal","outputs":[{"name":"","type":"uint256"}],"payable":false,"stateMutability":"view","type":"function"},{"constant":true,"inputs":[],"name":"newTalentsAndPartnershipsBal","outputs":[{"name":"","type":"uint256"}],"payable":false,"stateMutability":"view","type":"function"},{"inputs":[{"name":"eraswaptoken","type":"address"}],"payable":false,"stateMutability":"nonpayable","type":"constructor"},{"anonymous":false,"inputs":[{"indexed":false,"name":"NRTReleased","type":"uint256"}],"name":"NRTDistributed","type":"event"},{"anonymous":false,"inputs":[{"indexed":false,"name":"pool","type":"string"},{"indexed":false,"name":"sendAddress","type":"address"},{"indexed":false,"name":"value","type":"uint256"}],"name":"NRTTransfer","type":"event"},{"anonymous":false,"inputs":[{"indexed":false,"name":"amount","type":"uint256"}],"name":"TokensBurned","type":"event"},{"anonymous":false,"inputs":[{"indexed":false,"name":"pool","type":"string"},{"indexed":false,"name":"sendAddress","type":"address"}],"name":"PoolAddressAdded","type":"event"},{"anonymous":false,"inputs":[{"indexed":false,"name":"luckPoolBal","type":"uint256"}],"name":"LuckPoolUpdated","type":"event"},{"anonymous":false,"inputs":[{"indexed":false,"name":"burnTokenBal","type":"uint256"}],"name":"BurnTokenBalUpdated","type":"event"}],"devdoc":{"methods":{"MonthlyNRTRelease()":{"details":"To invoke monthly release","return":"true if success"},"UpdateAddresses(address[9])":{"details":"To update pool addresses","params":{"pool":"- A List of pool addresses Updates if pool address is not already set and if given address is not zero"},"return":"true if success"},"UpdateBurnBal(uint256)":{"details":"Function to trigger to update  for burning of tokens","params":{"amount":"Amount to be updated"}},"UpdateLuckpool(uint256)":{"details":"Function to update luckpool balance","params":{"amount":"Amount to be updated"}},"constructor":{"details":"Constructor"}}},"evm":{"assembly":"    /* \"NRTManager.sol\":76:10279  contract NRTManager {... */\n  mstore(0x40, 0x80)\n    /* \"NRTManager.sol\":10004:10276  constructor(address eraswaptoken) public{... */\n  callvalue\n    /* \"--CODEGEN--\":8:17   */\n  dup1\n    /* \"--CODEGEN--\":5:7   */\n  iszero\n  tag_1\n  jumpi\n    /* \"--CODEGEN--\":30:31   */\n  0x00\n    /* \"--CODEGEN--\":27:28   */\n  dup1\n    /* \"--CODEGEN--\":20:32   */\n  revert\n    /* \"--CODEGEN--\":5:7   */\ntag_1:\n    /* \"NRTManager.sol\":10004:10276  constructor(address eraswaptoken) public{... */\n  pop\n  mload(0x40)\n  sub(codesize, bytecodeSize)\n  dup1\n  bytecodeSize\n  dup4\n  codecopy\n  dup2\n  dup2\n  add\n  0x40\n  mstore\n    /* \"--CODEGEN--\":13:15   */\n  0x20\n    /* \"--CODEGEN--\":8:11   */\n  dup2\n    /* \"--CODEGEN--\":5:16   */\n  lt\n    /* \"--CODEGEN--\":2:4   */\n  iszero\n  tag_2\n  jumpi\n    /* \"--CODEGEN--\":29:30   */\n  0x00\n    /* \"--CODEGEN--\":26:27   */\n  dup1\n    /* \"--CODEGEN--\":19:31   */\n  revert\n    /* \"--CODEGEN--\":2:4   */\ntag_2:\n    /* \"NRTManager.sol\":10004:10276  constructor(address eraswaptoken) public{... */\n  dup2\n  add\n  swap1\n  dup1\n  dup1\n  mload\n  swap1\n  0x20\n  add\n  swap1\n  swap3\n  swap2\n  swap1\n  pop\n  pop\n  pop\n    /* \"NRTManager.sol\":10068:10080  eraswaptoken */\n  dup1\n    /* \"NRTManager.sol\":10052:10057  token */\n  0x06\n  0x00\n    /* \"NRTManager.sol\":10052:10081  token = Eraswap(eraswaptoken) */\n  0x0100\n  exp\n  dup2\n  sload\n  dup2\n  0xffffffffffffffffffffffffffffffffffffffff\n  mul\n  not\n  and\n  swap1\n  dup4\n  0xffffffffffffffffffffffffffffffffffffffff\n  and\n  mul\n  or\n  swap1\n  sstore\n  pop\n    /* \"NRTManager.sol\":10106:10109  now */\n  timestamp\n    /* \"NRTManager.sol\":10089:10103  lastNRTRelease */\n  0x00\n    /* \"NRTManager.sol\":10089:10109  lastNRTRelease = now */\n  dup2\n  swap1\n  sstore\n  pop\n    /* \"NRTManager.sol\":10135:10162  819000000000000000000000000 */\n  0x02a575fef6999c3a13000000\n    /* \"NRTManager.sol\":10117:10132  annualNRTAmount */\n  0x02\n    /* \"NRTManager.sol\":10117:10162  annualNRTAmount = 819000000000000000000000000 */\n  dup2\n  swap1\n  sstore\n  pop\n    /* \"NRTManager.sol\":10189:10221  annualNRTAmount.div(uint256(12)) */\n  tag_5\n    /* \"NRTManager.sol\":10217:10219  12 */\n  0x0c\n    /* \"NRTManager.sol\":10189:10204  annualNRTAmount */\n  sload(0x02)\n    /* \"NRTManager.sol\":10189:10208  annualNRTAmount.div */\n  or(tag_0_119, shl(0x20, tag_6))\n  swap1\n    /* \"NRTManager.sol\":10189:10221  annualNRTAmount.div(uint256(12)) */\n  swap2\n  swap1\n  0x20\n  shr\n  jump\t// in\ntag_5:\n    /* \"NRTManager.sol\":10170:10186  monthlyNRTAmount */\n  0x01\n    /* \"NRTManager.sol\":10170:10221  monthlyNRTAmount = annualNRTAmount.div(uint256(12)) */\n  dup2\n  swap1\n  sstore\n  pop\n    /* \"NRTManager.sol\":10242:10243  0 */\n  0x00\n    /* \"NRTManager.sol\":10229:10239  monthCount */\n  0x03\n    /* \"NRTManager.sol\":10229:10243  monthCount = 0 */\n  dup2\n  swap1\n  sstore\n  pop\n    /* \"NRTManager.sol\":10259:10269  msg.sender */\n  caller\n    /* \"NRTManager.sol\":10251:10256  Owner */\n  0x07\n  0x00\n    /* \"NRTManager.sol\":10251:10269  Owner = msg.sender */\n  0x0100\n  exp\n  dup2\n  sload\n  dup2\n  0xffffffffffffffffffffffffffffffffffffffff\n  mul\n  not\n  and\n  swap1\n  dup4\n  0xffffffffffffffffffffffffffffffffffffffff\n  and\n  mul\n  or\n  swap1\n  sstore\n  pop\n    /* \"NRTManager.sol\":10004:10276  constructor(address eraswaptoken) public{... */\n  pop\n    /* \"NRTManager.sol\":76:10279  contract NRTManager {... */\n  jump(tag_7)\n    /* \"SafeMath.sol\":782:1078  function div(uint256 a, uint256 b) internal pure returns (uint256) {... */\ntag_6:\n    /* \"SafeMath.sol\":840:847  uint256 */\n  0x00\n    /* \"SafeMath.sol\":937:938  0 */\n  dup1\n    /* \"SafeMath.sol\":933:934  b */\n  dup3\n    /* \"SafeMath.sol\":933:938  b > 0 */\n  gt\n    /* \"SafeMath.sol\":925:939  require(b > 0) */\n  tag_9\n  jumpi\n  0x00\n  dup1\n  revert\ntag_9:\n    /* \"SafeMath.sol\":949:958  uint256 c */\n  0x00\n    /* \"SafeMath.sol\":965:966  b */\n  dup3\n    /* \"SafeMath.sol\":961:962  a */\n  dup5\n    /* \"SafeMath.sol\":961:966  a / b */\n  dup2\n  tag_10\n  jumpi\n  invalid\ntag_10:\n  div\n    /* \"SafeMath.sol\":949:966  uint256 c = a / b */\n  swap1\n  pop\n    /* \"SafeMath.sol\":1070:1071  c */\n  dup1\n    /* \"SafeMath.sol\":1063:1071  return c */\n  swap2\n  pop\n  pop\n    /* \"SafeMath.sol\":782:1078  function div(uint256 a, uint256 b) internal pure returns (uint256) {... */\n  swap3\n  swap2\n  pop\n  pop\n  jump\t// out\n    /* \"NRTManager.sol\":76:10279  contract NRTManager {... */\ntag_7:\n  dataSize(sub_0)\n  dup1\n  dataOffset(sub_0)\n  0x00\n  codecopy\n  0x00\n  return\nstop\n\nsub_0: assembly {\n        /* \"NRTManager.sol\":76:10279  contract NRTManager {... */\n      mstore(0x40, 0x80)\n      callvalue\n        /* \"--CODEGEN--\":8:17   */\n      dup1\n        /* \"--CODEGEN--\":5:7   */\n      iszero\n      tag_1\n      jumpi\n        /* \"--CODEGEN--\":30:31   */\n      0x00\n        /* \"--CODEGEN--\":27:28   */\n      dup1\n        /* \"--CODEGEN--\":20:32   */\n      revert\n        /* \"--CODEGEN--\":5:7   */\n    tag_1:\n        /* \"NRTManager.sol\":76:10279  contract NRTManager {... */\n      pop\n      jumpi(tag_2, lt(calldatasize, 0x04))\n      shr(0xe0, calldataload(0x00))\n      dup1\n      0x682667a9\n      gt\n      tag_31\n      jumpi\n      dup1\n      0xb018abbd\n      gt\n      tag_32\n      jumpi\n      dup1\n      0xc3348a8b\n      gt\n      tag_33\n      jumpi\n      dup1\n      0xc3348a8b\n      eq\n      tag_27\n      jumpi\n      dup1\n      0xcb358efa\n      eq\n      tag_28\n      jumpi\n      dup1\n      0xd37eb950\n      eq\n      tag_29\n      jumpi\n      dup1\n      0xe71a3bfd\n      eq\n      tag_30\n      jumpi\n      jump(tag_2)\n    tag_33:\n      dup1\n      0xb018abbd\n      eq\n      tag_24\n      jumpi\n      dup1\n      0xbd27d361\n      eq\n      tag_25\n      jumpi\n      dup1\n      0xbfb3d6c8\n      eq\n      tag_26\n      jumpi\n      jump(tag_2)\n    tag_32:\n      dup1\n      0x7b8c0b79\n      gt\n      tag_34\n      jumpi\n      dup1\n      0x7b8c0b79\n      eq\n      tag_20\n      jumpi\n      dup1\n      0x7d53257a\n      eq\n      tag_21\n      jumpi\n      dup1\n      0x9662ac58\n      eq\n      tag_22\n      jumpi\n      dup1\n      0x9cd417de\n      eq\n      tag_23\n      jumpi\n      jump(tag_2)\n    tag_34:\n      dup1\n      0x682667a9\n      eq\n      tag_17\n      jumpi\n      dup1\n      0x6db42ca5\n      eq\n      tag_18\n      jumpi\n      dup1\n      0x797d123c\n      eq\n      tag_19\n      jumpi\n      jump(tag_2)\n    tag_31:\n      dup1\n      0x41aaa9b6\n      gt\n      tag_35\n      jumpi\n      dup1\n      0x5c12278d\n      gt\n      tag_36\n      jumpi\n      dup1\n      0x5c12278d\n      eq\n      tag_13\n      jumpi\n      dup1\n      0x5f7ce89f\n      eq\n      tag_14\n      jumpi\n      dup1\n      0x6037d2a3\n      eq\n      tag_15\n      jumpi\n      dup1\n      0x65c00470\n      eq\n      tag_16\n      jumpi\n      jump(tag_2)\n    tag_36:\n      dup1\n      0x41aaa9b6\n      eq\n      tag_10\n      jumpi\n      dup1\n      0x4a4581aa\n      eq\n      tag_11\n      jumpi\n      dup1\n      0x51bd70b1\n      eq\n      tag_12\n      jumpi\n      jump(tag_2)\n    tag_35:\n      dup1\n      0x2cfceb07\n      gt\n      tag_37\n      jumpi\n      dup1\n      0x2cfceb07\n      eq\n      tag_6\n      jumpi\n      dup1\n      0x382e2aab\n      eq\n      tag_7\n      jumpi\n      dup1\n      0x3a18a9fd\n      eq\n      tag_8\n      jumpi\n      dup1\n      0x3e04f4f9\n      eq\n      tag_9\n      jumpi\n      jump(tag_2)\n    tag_37:\n      dup1\n      0x0b3e29b8\n      eq\n      tag_3\n      jumpi\n      dup1\n      0x0d4e57a4\n      eq\n      tag_4\n      jumpi\n      dup1\n      0x26b3bf2f\n      eq\n      tag_5\n      jumpi\n    tag_2:\n      0x00\n      dup1\n      revert\n        /* \"NRTManager.sol\":931:962  address public contingencyFunds */\n    tag_3:\n      tag_38\n      tag_39\n      jump\t// in\n    tag_38:\n      mload(0x40)\n      dup1\n      dup3\n      0xffffffffffffffffffffffffffffffffffffffff\n      and\n      0xffffffffffffffffffffffffffffffffffffffff\n      and\n      dup2\n      mstore\n      0x20\n      add\n      swap2\n      pop\n      pop\n      mload(0x40)\n      dup1\n      swap2\n      sub\n      swap1\n      return\n        /* \"NRTManager.sol\":428:453  uint256 public monthCount */\n    tag_4:\n      tag_40\n      tag_41\n      jump\t// in\n    tag_40:\n      mload(0x40)\n      dup1\n      dup3\n      dup2\n      mstore\n      0x20\n      add\n      swap2\n      pop\n      pop\n      mload(0x40)\n      dup1\n      swap2\n      sub\n      swap1\n      return\n        /* \"NRTManager.sol\":781:821  address public newTalentsAndPartnerships */\n    tag_5:\n      tag_42\n      tag_43\n      jump\t// in\n    tag_42:\n      mload(0x40)\n      dup1\n      dup3\n      0xffffffffffffffffffffffffffffffffffffffff\n      and\n      0xffffffffffffffffffffffffffffffffffffffff\n      and\n      dup2\n      mstore\n      0x20\n      add\n      swap2\n      pop\n      pop\n      mload(0x40)\n      dup1\n      swap2\n      sub\n      swap1\n      return\n        /* \"NRTManager.sol\":1551:1576  uint256 public kmPardsBal */\n    tag_6:\n      tag_44\n      tag_45\n      jump\t// in\n    tag_44:\n      mload(0x40)\n      dup1\n      dup3\n      dup2\n      mstore\n      0x20\n      add\n      swap2\n      pop\n      pop\n      mload(0x40)\n      dup1\n      swap2\n      sub\n      swap1\n      return\n        /* \"NRTManager.sol\":6494:6694  function UpdateLuckpool(uint256 amount) external OnlyAllowed returns(bool){... */\n    tag_7:\n      tag_46\n      0x04\n      dup1\n      calldatasize\n      sub\n        /* \"--CODEGEN--\":13:15   */\n      0x20\n        /* \"--CODEGEN--\":8:11   */\n      dup2\n        /* \"--CODEGEN--\":5:16   */\n      lt\n        /* \"--CODEGEN--\":2:4   */\n      iszero\n      tag_47\n      jumpi\n        /* \"--CODEGEN--\":29:30   */\n      0x00\n        /* \"--CODEGEN--\":26:27   */\n      dup1\n        /* \"--CODEGEN--\":19:31   */\n      revert\n        /* \"--CODEGEN--\":2:4   */\n    tag_47:\n        /* \"NRTManager.sol\":6494:6694  function UpdateLuckpool(uint256 amount) external OnlyAllowed returns(bool){... */\n      dup2\n      add\n      swap1\n      dup1\n      dup1\n      calldataload\n      swap1\n      0x20\n      add\n      swap1\n      swap3\n      swap2\n      swap1\n      pop\n      pop\n      pop\n      tag_48\n      jump\t// in\n    tag_46:\n      mload(0x40)\n      dup1\n      dup3\n      iszero\n      iszero\n      iszero\n      iszero\n      dup2\n      mstore\n      0x20\n      add\n      swap2\n      pop\n      pop\n      mload(0x40)\n      dup1\n      swap2\n      sub\n      swap1\n      return\n        /* \"NRTManager.sol\":827:861  address public platformMaintenance */\n    tag_8:\n      tag_49\n      tag_50\n      jump\t// in\n    tag_49:\n      mload(0x40)\n      dup1\n      dup3\n      0xffffffffffffffffffffffffffffffffffffffff\n      and\n      0xffffffffffffffffffffffffffffffffffffffff\n      and\n      dup2\n      mstore\n      0x20\n      add\n      swap2\n      pop\n      pop\n      mload(0x40)\n      dup1\n      swap2\n      sub\n      swap1\n      return\n        /* \"NRTManager.sol\":1969:1995  uint256 public timeAllyNRT */\n    tag_9:\n      tag_51\n      tag_52\n      jump\t// in\n    tag_51:\n      mload(0x40)\n      dup1\n      dup3\n      dup2\n      mstore\n      0x20\n      add\n      swap2\n      pop\n      pop\n      mload(0x40)\n      dup1\n      swap2\n      sub\n      swap1\n      return\n        /* \"NRTManager.sol\":6830:7035  function UpdateBurnBal(uint256 amount) external OnlyAllowed returns(bool){... */\n    tag_10:\n      tag_53\n      0x04\n      dup1\n      calldatasize\n      sub\n        /* \"--CODEGEN--\":13:15   */\n      0x20\n        /* \"--CODEGEN--\":8:11   */\n      dup2\n        /* \"--CODEGEN--\":5:16   */\n      lt\n        /* \"--CODEGEN--\":2:4   */\n      iszero\n      tag_54\n      jumpi\n        /* \"--CODEGEN--\":29:30   */\n      0x00\n        /* \"--CODEGEN--\":26:27   */\n      dup1\n        /* \"--CODEGEN--\":19:31   */\n      revert\n        /* \"--CODEGEN--\":2:4   */\n    tag_54:\n        /* \"NRTManager.sol\":6830:7035  function UpdateBurnBal(uint256 amount) external OnlyAllowed returns(bool){... */\n      dup2\n      add\n      swap1\n      dup1\n      dup1\n      calldataload\n      swap1\n      0x20\n      add\n      swap1\n      swap3\n      swap2\n      swap1\n      pop\n      pop\n      pop\n      tag_55\n      jump\t// in\n    tag_53:\n      mload(0x40)\n      dup1\n      dup3\n      iszero\n      iszero\n      iszero\n      iszero\n      dup2\n      mstore\n      0x20\n      add\n      swap2\n      pop\n      pop\n      mload(0x40)\n      dup1\n      swap2\n      sub\n      swap1\n      return\n        /* \"NRTManager.sol\":606:633  uint256 public burnTokenBal */\n    tag_11:\n      tag_56\n      tag_57\n      jump\t// in\n    tag_56:\n      mload(0x40)\n      dup1\n      dup3\n      dup2\n      mstore\n      0x20\n      add\n      swap2\n      pop\n      pop\n      mload(0x40)\n      dup1\n      swap2\n      sub\n      swap1\n      return\n        /* \"NRTManager.sol\":867:897  address public marketingAndRNR */\n    tag_12:\n      tag_58\n      tag_59\n      jump\t// in\n    tag_58:\n      mload(0x40)\n      dup1\n      dup3\n      0xffffffffffffffffffffffffffffffffffffffff\n      and\n      0xffffffffffffffffffffffffffffffffffffffff\n      and\n      dup2\n      mstore\n      0x20\n      add\n      swap2\n      pop\n      pop\n      mload(0x40)\n      dup1\n      swap2\n      sub\n      swap1\n      return\n        /* \"NRTManager.sol\":968:1005  address public researchAndDevelopment */\n    tag_13:\n      tag_60\n      tag_61\n      jump\t// in\n    tag_60:\n      mload(0x40)\n      dup1\n      dup3\n      0xffffffffffffffffffffffffffffffffffffffff\n      and\n      0xffffffffffffffffffffffffffffffffffffffff\n      and\n      dup2\n      mstore\n      0x20\n      add\n      swap2\n      pop\n      pop\n      mload(0x40)\n      dup1\n      swap2\n      sub\n      swap1\n      return\n        /* \"NRTManager.sol\":1655:1689  uint256 public contingencyFundsBal */\n    tag_14:\n      tag_62\n      tag_63\n      jump\t// in\n    tag_62:\n      mload(0x40)\n      dup1\n      dup3\n      dup2\n      mstore\n      0x20\n      add\n      swap2\n      pop\n      pop\n      mload(0x40)\n      dup1\n      swap2\n      sub\n      swap1\n      return\n        /* \"NRTManager.sol\":223:254  uint256 public monthlyNRTAmount */\n    tag_15:\n      tag_64\n      tag_65\n      jump\t// in\n    tag_64:\n      mload(0x40)\n      dup1\n      dup3\n      dup2\n      mstore\n      0x20\n      add\n      swap2\n      pop\n      pop\n      mload(0x40)\n      dup1\n      swap2\n      sub\n      swap1\n      return\n        /* \"NRTManager.sol\":903:925  address public kmPards */\n    tag_16:\n      tag_66\n      tag_67\n      jump\t// in\n    tag_66:\n      mload(0x40)\n      dup1\n      dup3\n      0xffffffffffffffffffffffffffffffffffffffff\n      and\n      0xffffffffffffffffffffffffffffffffffffffff\n      and\n      dup2\n      mstore\n      0x20\n      add\n      swap2\n      pop\n      pop\n      mload(0x40)\n      dup1\n      swap2\n      sub\n      swap1\n      return\n        /* \"NRTManager.sol\":1157:1180  address public timeAlly */\n    tag_17:\n      tag_68\n      tag_69\n      jump\t// in\n    tag_68:\n      mload(0x40)\n      dup1\n      dup3\n      0xffffffffffffffffffffffffffffffffffffffff\n      and\n      0xffffffffffffffffffffffffffffffffffffffff\n      and\n      dup2\n      mstore\n      0x20\n      add\n      swap2\n      pop\n      pop\n      mload(0x40)\n      dup1\n      swap2\n      sub\n      swap1\n      return\n        /* \"NRTManager.sol\":1863:1891  uint256 public powerTokenNRT */\n    tag_18:\n      tag_70\n      tag_71\n      jump\t// in\n    tag_70:\n      mload(0x40)\n      dup1\n      dup3\n      dup2\n      mstore\n      0x20\n      add\n      swap2\n      pop\n      pop\n      mload(0x40)\n      dup1\n      swap2\n      sub\n      swap1\n      return\n        /* \"NRTManager.sol\":136:165  uint256 public lastNRTRelease */\n    tag_19:\n      tag_72\n      tag_73\n      jump\t// in\n    tag_72:\n      mload(0x40)\n      dup1\n      dup3\n      dup2\n      mstore\n      0x20\n      add\n      swap2\n      pop\n      pop\n      mload(0x40)\n      dup1\n      swap2\n      sub\n      swap1\n      return\n        /* \"NRTManager.sol\":326:356  uint256 public annualNRTAmount */\n    tag_20:\n      tag_74\n      tag_75\n      jump\t// in\n    tag_74:\n      mload(0x40)\n      dup1\n      dup3\n      dup2\n      mstore\n      0x20\n      add\n      swap2\n      pop\n      pop\n      mload(0x40)\n      dup1\n      swap2\n      sub\n      swap1\n      return\n        /* \"NRTManager.sol\":1759:1799  uint256 public researchAndDevelopmentBal */\n    tag_21:\n      tag_76\n      tag_77\n      jump\t// in\n    tag_76:\n      mload(0x40)\n      dup1\n      dup3\n      dup2\n      mstore\n      0x20\n      add\n      swap2\n      pop\n      pop\n      mload(0x40)\n      dup1\n      swap2\n      sub\n      swap1\n      return\n        /* \"NRTManager.sol\":1011:1036  address public powerToken */\n    tag_22:\n      tag_78\n      tag_79\n      jump\t// in\n    tag_78:\n      mload(0x40)\n      dup1\n      dup3\n      0xffffffffffffffffffffffffffffffffffffffff\n      and\n      0xffffffffffffffffffffffffffffffffffffffff\n      and\n      dup2\n      mstore\n      0x20\n      add\n      swap2\n      pop\n      pop\n      mload(0x40)\n      dup1\n      swap2\n      sub\n      swap1\n      return\n        /* \"NRTManager.sol\":1042:1069  address public timeSwappers */\n    tag_23:\n      tag_80\n      tag_81\n      jump\t// in\n    tag_80:\n      mload(0x40)\n      dup1\n      dup3\n      0xffffffffffffffffffffffffffffffffffffffff\n      and\n      0xffffffffffffffffffffffffffffffffffffffff\n      and\n      dup2\n      mstore\n      0x20\n      add\n      swap2\n      pop\n      pop\n      mload(0x40)\n      dup1\n      swap2\n      sub\n      swap1\n      return\n        /* \"NRTManager.sol\":7134:9958  function MonthlyNRTRelease() external returns (bool) {... */\n    tag_24:\n      tag_82\n      tag_83\n      jump\t// in\n    tag_82:\n      mload(0x40)\n      dup1\n      dup3\n      iszero\n      iszero\n      iszero\n      iszero\n      dup2\n      mstore\n      0x20\n      add\n      swap2\n      pop\n      pop\n      mload(0x40)\n      dup1\n      swap2\n      sub\n      swap1\n      return\n        /* \"NRTManager.sol\":1343:1380  uint256 public platformMaintenanceBal */\n    tag_25:\n      tag_84\n      tag_85\n      jump\t// in\n    tag_84:\n      mload(0x40)\n      dup1\n      dup3\n      dup2\n      mstore\n      0x20\n      add\n      swap2\n      pop\n      pop\n      mload(0x40)\n      dup1\n      swap2\n      sub\n      swap1\n      return\n        /* \"NRTManager.sol\":2074:2104  uint256 public timeSwappersNRT */\n    tag_26:\n      tag_86\n      tag_87\n      jump\t// in\n    tag_86:\n      mload(0x40)\n      dup1\n      dup3\n      dup2\n      mstore\n      0x20\n      add\n      swap2\n      pop\n      pop\n      mload(0x40)\n      dup1\n      swap2\n      sub\n      swap1\n      return\n        /* \"NRTManager.sol\":538:564  uint256 public luckPoolBal */\n    tag_27:\n      tag_88\n      tag_89\n      jump\t// in\n    tag_88:\n      mload(0x40)\n      dup1\n      dup3\n      dup2\n      mstore\n      0x20\n      add\n      swap2\n      pop\n      pop\n      mload(0x40)\n      dup1\n      swap2\n      sub\n      swap1\n      return\n        /* \"NRTManager.sol\":4561:6374  function UpdateAddresses (address[9] calldata pool) external OnlyOwner  returns(bool){... */\n    tag_28:\n      tag_90\n      0x04\n      dup1\n      calldatasize\n      sub\n        /* \"--CODEGEN--\":13:16   */\n      0x0120\n        /* \"--CODEGEN--\":8:11   */\n      dup2\n        /* \"--CODEGEN--\":5:17   */\n      lt\n        /* \"--CODEGEN--\":2:4   */\n      iszero\n      tag_91\n      jumpi\n        /* \"--CODEGEN--\":30:31   */\n      0x00\n        /* \"--CODEGEN--\":27:28   */\n      dup1\n        /* \"--CODEGEN--\":20:32   */\n      revert\n        /* \"--CODEGEN--\":2:4   */\n    tag_91:\n        /* \"NRTManager.sol\":4561:6374  function UpdateAddresses (address[9] calldata pool) external OnlyOwner  returns(bool){... */\n      dup2\n      add\n      swap1\n      dup1\n      dup1\n      0x0120\n      add\n      swap1\n      swap2\n      swap3\n      swap2\n      swap3\n      swap1\n      pop\n      pop\n      pop\n      tag_92\n      jump\t// in\n    tag_90:\n      mload(0x40)\n      dup1\n      dup3\n      iszero\n      iszero\n      iszero\n      iszero\n      dup2\n      mstore\n      0x20\n      add\n      swap2\n      pop\n      pop\n      mload(0x40)\n      dup1\n      swap2\n      sub\n      swap1\n      return\n        /* \"NRTManager.sol\":1447:1480  uint256 public marketingAndRNRBal */\n    tag_29:\n      tag_93\n      tag_94\n      jump\t// in\n    tag_93:\n      mload(0x40)\n      dup1\n      dup3\n      dup2\n      mstore\n      0x20\n      add\n      swap2\n      pop\n      pop\n      mload(0x40)\n      dup1\n      swap2\n      sub\n      swap1\n      return\n        /* \"NRTManager.sol\":1239:1282  uint256 public newTalentsAndPartnershipsBal */\n    tag_30:\n      tag_95\n      tag_96\n      jump\t// in\n    tag_95:\n      mload(0x40)\n      dup1\n      dup3\n      dup2\n      mstore\n      0x20\n      add\n      swap2\n      pop\n      pop\n      mload(0x40)\n      dup1\n      swap2\n      sub\n      swap1\n      return\n        /* \"NRTManager.sol\":931:962  address public contingencyFunds */\n    tag_39:\n      0x0c\n      0x00\n      swap1\n      sload\n      swap1\n      0x0100\n      exp\n      swap1\n      div\n      0xffffffffffffffffffffffffffffffffffffffff\n      and\n      dup2\n      jump\t// out\n        /* \"NRTManager.sol\":428:453  uint256 public monthCount */\n    tag_41:\n      sload(0x03)\n      dup2\n      jump\t// out\n        /* \"NRTManager.sol\":781:821  address public newTalentsAndPartnerships */\n    tag_43:\n      0x08\n      0x00\n      swap1\n      sload\n      swap1\n      0x0100\n      exp\n      swap1\n      div\n      0xffffffffffffffffffffffffffffffffffffffff\n      and\n      dup2\n      jump\t// out\n        /* \"NRTManager.sol\":1551:1576  uint256 public kmPardsBal */\n    tag_45:\n      sload(0x14)\n      dup2\n      jump\t// out\n        /* \"NRTManager.sol\":6494:6694  function UpdateLuckpool(uint256 amount) external OnlyAllowed returns(bool){... */\n    tag_48:\n        /* \"NRTManager.sol\":6563:6567  bool */\n      0x00\n        /* \"NRTManager.sol\":3394:3402  timeAlly */\n      0x10\n      0x00\n      swap1\n      sload\n      swap1\n      0x0100\n      exp\n      swap1\n      div\n      0xffffffffffffffffffffffffffffffffffffffff\n      and\n        /* \"NRTManager.sol\":3380:3402  msg.sender == timeAlly */\n      0xffffffffffffffffffffffffffffffffffffffff\n      and\n        /* \"NRTManager.sol\":3380:3390  msg.sender */\n      caller\n        /* \"NRTManager.sol\":3380:3402  msg.sender == timeAlly */\n      0xffffffffffffffffffffffffffffffffffffffff\n      and\n      eq\n        /* \"NRTManager.sol\":3380:3432  msg.sender == timeAlly || msg.sender == timeSwappers */\n      dup1\n      tag_98\n      jumpi\n      pop\n        /* \"NRTManager.sol\":3420:3432  timeSwappers */\n      0x0f\n      0x00\n      swap1\n      sload\n      swap1\n      0x0100\n      exp\n      swap1\n      div\n      0xffffffffffffffffffffffffffffffffffffffff\n      and\n        /* \"NRTManager.sol\":3406:3432  msg.sender == timeSwappers */\n      0xffffffffffffffffffffffffffffffffffffffff\n      and\n        /* \"NRTManager.sol\":3406:3416  msg.sender */\n      caller\n        /* \"NRTManager.sol\":3406:3432  msg.sender == timeSwappers */\n      0xffffffffffffffffffffffffffffffffffffffff\n      and\n      eq\n        /* \"NRTManager.sol\":3380:3432  msg.sender == timeAlly || msg.sender == timeSwappers */\n    tag_98:\n        /* \"NRTManager.sol\":3372:3479  require(msg.sender == timeAlly || msg.sender == timeSwappers,\"Only TimeAlly and Timeswapper is authorised\") */\n      tag_99\n      jumpi\n      mload(0x40)\n      0x08c379a000000000000000000000000000000000000000000000000000000000\n      dup2\n      mstore\n      0x04\n      add\n      dup1\n      dup1\n      0x20\n      add\n      dup3\n      dup2\n      sub\n      dup3\n      mstore\n      0x2b\n      dup2\n      mstore\n      0x20\n      add\n      dup1\n      data_75b80d254974e234aa097720f74460cadd2b76f17d7eb2120a344a75769d98ab\n      0x2b\n      swap2\n      codecopy\n      0x40\n      add\n      swap2\n      pop\n      pop\n      mload(0x40)\n      dup1\n      swap2\n      sub\n      swap1\n      revert\n    tag_99:\n        /* \"NRTManager.sol\":6598:6621  luckPoolBal.add(amount) */\n      tag_101\n        /* \"NRTManager.sol\":6614:6620  amount */\n      dup3\n        /* \"NRTManager.sol\":6598:6609  luckPoolBal */\n      sload(0x04)\n        /* \"NRTManager.sol\":6598:6613  luckPoolBal.add */\n      tag_102\n      swap1\n        /* \"NRTManager.sol\":6598:6621  luckPoolBal.add(amount) */\n      swap2\n      swap1\n      0xffffffff\n      and\n      jump\t// in\n    tag_101:\n        /* \"NRTManager.sol\":6584:6595  luckPoolBal */\n      0x04\n        /* \"NRTManager.sol\":6584:6621  luckPoolBal = luckPoolBal.add(amount) */\n      dup2\n      swap1\n      sstore\n      pop\n        /* \"NRTManager.sol\":6636:6664  LuckPoolUpdated(luckPoolBal) */\n      0xc9c58ca254a2bde8ce607d1f5211f98c28c52efcea5216a867ea933b95efc31f\n        /* \"NRTManager.sol\":6652:6663  luckPoolBal */\n      sload(0x04)\n        /* \"NRTManager.sol\":6636:6664  LuckPoolUpdated(luckPoolBal) */\n      mload(0x40)\n      dup1\n      dup3\n      dup2\n      mstore\n      0x20\n      add\n      swap2\n      pop\n      pop\n      mload(0x40)\n      dup1\n      swap2\n      sub\n      swap1\n      log1\n        /* \"NRTManager.sol\":6681:6685  true */\n      0x01\n        /* \"NRTManager.sol\":6674:6685  return true */\n      swap1\n      pop\n        /* \"NRTManager.sol\":6494:6694  function UpdateLuckpool(uint256 amount) external OnlyAllowed returns(bool){... */\n      swap2\n      swap1\n      pop\n      jump\t// out\n        /* \"NRTManager.sol\":827:861  address public platformMaintenance */\n    tag_50:\n      0x09\n      0x00\n      swap1\n      sload\n      swap1\n      0x0100\n      exp\n      swap1\n      div\n      0xffffffffffffffffffffffffffffffffffffffff\n      and\n      dup2\n      jump\t// out\n        /* \"NRTManager.sol\":1969:1995  uint256 public timeAllyNRT */\n    tag_52:\n      sload(0x18)\n      dup2\n      jump\t// out\n        /* \"NRTManager.sol\":6830:7035  function UpdateBurnBal(uint256 amount) external OnlyAllowed returns(bool){... */\n    tag_55:\n        /* \"NRTManager.sol\":6898:6902  bool */\n      0x00\n        /* \"NRTManager.sol\":3394:3402  timeAlly */\n      0x10\n      0x00\n      swap1\n      sload\n      swap1\n      0x0100\n      exp\n      swap1\n      div\n      0xffffffffffffffffffffffffffffffffffffffff\n      and\n        /* \"NRTManager.sol\":3380:3402  msg.sender == timeAlly */\n      0xffffffffffffffffffffffffffffffffffffffff\n      and\n        /* \"NRTManager.sol\":3380:3390  msg.sender */\n      caller\n        /* \"NRTManager.sol\":3380:3402  msg.sender == timeAlly */\n      0xffffffffffffffffffffffffffffffffffffffff\n      and\n      eq\n        /* \"NRTManager.sol\":3380:3432  msg.sender == timeAlly || msg.sender == timeSwappers */\n      dup1\n      tag_104\n      jumpi\n      pop\n        /* \"NRTManager.sol\":3420:3432  timeSwappers */\n      0x0f\n      0x00\n      swap1\n      sload\n      swap1\n      0x0100\n      exp\n      swap1\n      div\n      0xffffffffffffffffffffffffffffffffffffffff\n      and\n        /* \"NRTManager.sol\":3406:3432  msg.sender == timeSwappers */\n      0xffffffffffffffffffffffffffffffffffffffff\n      and\n        /* \"NRTManager.sol\":3406:3416  msg.sender */\n      caller\n        /* \"NRTManager.sol\":3406:3432  msg.sender == timeSwappers */\n      0xffffffffffffffffffffffffffffffffffffffff\n      and\n      eq\n        /* \"NRTManager.sol\":3380:3432  msg.sender == timeAlly || msg.sender == timeSwappers */\n    tag_104:\n        /* \"NRTManager.sol\":3372:3479  require(msg.sender == timeAlly || msg.sender == timeSwappers,\"Only TimeAlly and Timeswapper is authorised\") */\n      tag_105\n      jumpi\n      mload(0x40)\n      0x08c379a000000000000000000000000000000000000000000000000000000000\n      dup2\n      mstore\n      0x04\n      add\n      dup1\n      dup1\n      0x20\n      add\n      dup3\n      dup2\n      sub\n      dup3\n      mstore\n      0x2b\n      dup2\n      mstore\n      0x20\n      add\n      dup1\n      data_75b80d254974e234aa097720f74460cadd2b76f17d7eb2120a344a75769d98ab\n      0x2b\n      swap2\n      codecopy\n      0x40\n      add\n      swap2\n      pop\n      pop\n      mload(0x40)\n      dup1\n      swap2\n      sub\n      swap1\n      revert\n    tag_105:\n        /* \"NRTManager.sol\":6933:6957  burnTokenBal.add(amount) */\n      tag_107\n        /* \"NRTManager.sol\":6950:6956  amount */\n      dup3\n        /* \"NRTManager.sol\":6933:6945  burnTokenBal */\n      sload(0x05)\n        /* \"NRTManager.sol\":6933:6949  burnTokenBal.add */\n      tag_102\n      swap1\n        /* \"NRTManager.sol\":6933:6957  burnTokenBal.add(amount) */\n      swap2\n      swap1\n      0xffffffff\n      and\n      jump\t// in\n    tag_107:\n        /* \"NRTManager.sol\":6918:6930  burnTokenBal */\n      0x05\n        /* \"NRTManager.sol\":6918:6957  burnTokenBal = burnTokenBal.add(amount) */\n      dup2\n      swap1\n      sstore\n      pop\n        /* \"NRTManager.sol\":6972:7005  BurnTokenBalUpdated(burnTokenBal) */\n      0x8f740eb8352e99b7242ce9c7cec021ee8b28b4acef603ff1260fe8b722822fec\n        /* \"NRTManager.sol\":6992:7004  burnTokenBal */\n      sload(0x05)\n        /* \"NRTManager.sol\":6972:7005  BurnTokenBalUpdated(burnTokenBal) */\n      mload(0x40)\n      dup1\n      dup3\n      dup2\n      mstore\n      0x20\n      add\n      swap2\n      pop\n      pop\n      mload(0x40)\n      dup1\n      swap2\n      sub\n      swap1\n      log1\n        /* \"NRTManager.sol\":7022:7026  true */\n      0x01\n        /* \"NRTManager.sol\":7015:7026  return true */\n      swap1\n      pop\n        /* \"NRTManager.sol\":6830:7035  function UpdateBurnBal(uint256 amount) external OnlyAllowed returns(bool){... */\n      swap2\n      swap1\n      pop\n      jump\t// out\n        /* \"NRTManager.sol\":606:633  uint256 public burnTokenBal */\n    tag_57:\n      sload(0x05)\n      dup2\n      jump\t// out\n        /* \"NRTManager.sol\":867:897  address public marketingAndRNR */\n    tag_59:\n      0x0a\n      0x00\n      swap1\n      sload\n      swap1\n      0x0100\n      exp\n      swap1\n      div\n      0xffffffffffffffffffffffffffffffffffffffff\n      and\n      dup2\n      jump\t// out\n        /* \"NRTManager.sol\":968:1005  address public researchAndDevelopment */\n    tag_61:\n      0x0d\n      0x00\n      swap1\n      sload\n      swap1\n      0x0100\n      exp\n      swap1\n      div\n      0xffffffffffffffffffffffffffffffffffffffff\n      and\n      dup2\n      jump\t// out\n        /* \"NRTManager.sol\":1655:1689  uint256 public contingencyFundsBal */\n    tag_63:\n      sload(0x15)\n      dup2\n      jump\t// out\n        /* \"NRTManager.sol\":223:254  uint256 public monthlyNRTAmount */\n    tag_65:\n      sload(0x01)\n      dup2\n      jump\t// out\n        /* \"NRTManager.sol\":903:925  address public kmPards */\n    tag_67:\n      0x0b\n      0x00\n      swap1\n      sload\n      swap1\n      0x0100\n      exp\n      swap1\n      div\n      0xffffffffffffffffffffffffffffffffffffffff\n      and\n      dup2\n      jump\t// out\n        /* \"NRTManager.sol\":1157:1180  address public timeAlly */\n    tag_69:\n      0x10\n      0x00\n      swap1\n      sload\n      swap1\n      0x0100\n      exp\n      swap1\n      div\n      0xffffffffffffffffffffffffffffffffffffffff\n      and\n      dup2\n      jump\t// out\n        /* \"NRTManager.sol\":1863:1891  uint256 public powerTokenNRT */\n    tag_71:\n      sload(0x17)\n      dup2\n      jump\t// out\n        /* \"NRTManager.sol\":136:165  uint256 public lastNRTRelease */\n    tag_73:\n      sload(0x00)\n      dup2\n      jump\t// out\n        /* \"NRTManager.sol\":326:356  uint256 public annualNRTAmount */\n    tag_75:\n      sload(0x02)\n      dup2\n      jump\t// out\n        /* \"NRTManager.sol\":1759:1799  uint256 public researchAndDevelopmentBal */\n    tag_77:\n      sload(0x16)\n      dup2\n      jump\t// out\n        /* \"NRTManager.sol\":1011:1036  address public powerToken */\n    tag_79:\n      0x0e\n      0x00\n      swap1\n      sload\n      swap1\n      0x0100\n      exp\n      swap1\n      div\n      0xffffffffffffffffffffffffffffffffffffffff\n      and\n      dup2\n      jump\t// out\n        /* \"NRTManager.sol\":1042:1069  address public timeSwappers */\n    tag_81:\n      0x0f\n      0x00\n      swap1\n      sload\n      swap1\n      0x0100\n      exp\n      swap1\n      div\n      0xffffffffffffffffffffffffffffffffffffffff\n      and\n      dup2\n      jump\t// out\n        /* \"NRTManager.sol\":7134:9958  function MonthlyNRTRelease() external returns (bool) {... */\n    tag_83:\n        /* \"NRTManager.sol\":7181:7185  bool */\n      0x00\n        /* \"NRTManager.sol\":7238:7245  2592000 */\n      0x278d00\n        /* \"NRTManager.sol\":7205:7236  token.mou().sub(lastNRTRelease) */\n      tag_109\n        /* \"NRTManager.sol\":7221:7235  lastNRTRelease */\n      sload(0x00)\n        /* \"NRTManager.sol\":7205:7210  token */\n      0x06\n      0x00\n      swap1\n      sload\n      swap1\n      0x0100\n      exp\n      swap1\n      div\n      0xffffffffffffffffffffffffffffffffffffffff\n      and\n        /* \"NRTManager.sol\":7205:7214  token.mou */\n      0xffffffffffffffffffffffffffffffffffffffff\n      and\n      0xb81f90f3\n        /* \"NRTManager.sol\":7205:7216  token.mou() */\n      mload(0x40)\n      dup2\n      0xffffffff\n      and\n      0xe0\n      shl\n      dup2\n      mstore\n      0x04\n      add\n      0x20\n      mload(0x40)\n      dup1\n      dup4\n      sub\n      dup2\n      dup7\n      dup1\n      extcodesize\n      iszero\n        /* \"--CODEGEN--\":8:17   */\n      dup1\n        /* \"--CODEGEN--\":5:7   */\n      iszero\n      tag_110\n      jumpi\n        /* \"--CODEGEN--\":30:31   */\n      0x00\n        /* \"--CODEGEN--\":27:28   */\n      dup1\n        /* \"--CODEGEN--\":20:32   */\n      revert\n        /* \"--CODEGEN--\":5:7   */\n    tag_110:\n        /* \"NRTManager.sol\":7205:7216  token.mou() */\n      pop\n      gas\n      staticcall\n      iszero\n        /* \"--CODEGEN--\":8:17   */\n      dup1\n        /* \"--CODEGEN--\":5:7   */\n      iszero\n      tag_111\n      jumpi\n        /* \"--CODEGEN--\":45:61   */\n      returndatasize\n        /* \"--CODEGEN--\":42:43   */\n      0x00\n        /* \"--CODEGEN--\":39:40   */\n      dup1\n        /* \"--CODEGEN--\":24:62   */\n      returndatacopy\n        /* \"--CODEGEN--\":77:93   */\n      returndatasize\n        /* \"--CODEGEN--\":74:75   */\n      0x00\n        /* \"--CODEGEN--\":67:94   */\n      revert\n        /* \"--CODEGEN--\":5:7   */\n    tag_111:\n        /* \"NRTManager.sol\":7205:7216  token.mou() */\n      pop\n      pop\n      pop\n      pop\n      mload(0x40)\n      returndatasize\n        /* \"--CODEGEN--\":13:15   */\n      0x20\n        /* \"--CODEGEN--\":8:11   */\n      dup2\n        /* \"--CODEGEN--\":5:16   */\n      lt\n        /* \"--CODEGEN--\":2:4   */\n      iszero\n      tag_112\n      jumpi\n        /* \"--CODEGEN--\":29:30   */\n      0x00\n        /* \"--CODEGEN--\":26:27   */\n      dup1\n        /* \"--CODEGEN--\":19:31   */\n      revert\n        /* \"--CODEGEN--\":2:4   */\n    tag_112:\n        /* \"NRTManager.sol\":7205:7216  token.mou() */\n      dup2\n      add\n      swap1\n      dup1\n      dup1\n      mload\n      swap1\n      0x20\n      add\n      swap1\n      swap3\n      swap2\n      swap1\n      pop\n      pop\n      pop\n        /* \"NRTManager.sol\":7205:7220  token.mou().sub */\n      tag_113\n      swap1\n        /* \"NRTManager.sol\":7205:7236  token.mou().sub(lastNRTRelease) */\n      swap2\n      swap1\n      0xffffffff\n      and\n      jump\t// in\n    tag_109:\n        /* \"NRTManager.sol\":7205:7245  token.mou().sub(lastNRTRelease)> 2592000 */\n      gt\n        /* \"NRTManager.sol\":7197:7285  require(token.mou().sub(lastNRTRelease)> 2592000,\"NRT release happens once every month\") */\n      tag_114\n      jumpi\n      mload(0x40)\n      0x08c379a000000000000000000000000000000000000000000000000000000000\n      dup2\n      mstore\n      0x04\n      add\n      dup1\n      dup1\n      0x20\n      add\n      dup3\n      dup2\n      sub\n      dup3\n      mstore\n      0x24\n      dup2\n      mstore\n      0x20\n      add\n      dup1\n      data_f2be0bdc1b11a94fc4e1a8a1916cd2e21b6687cb60899d8c2cd7a367527e7b93\n      0x24\n      swap2\n      codecopy\n      0x40\n      add\n      swap2\n      pop\n      pop\n      mload(0x40)\n      dup1\n      swap2\n      sub\n      swap1\n      revert\n    tag_114:\n        /* \"NRTManager.sol\":7295:7309  uint256 NRTBal */\n      0x00\n        /* \"NRTManager.sol\":7312:7345  monthlyNRTAmount.add(luckPoolBal) */\n      tag_115\n        /* \"NRTManager.sol\":7333:7344  luckPoolBal */\n      sload(0x04)\n        /* \"NRTManager.sol\":7312:7328  monthlyNRTAmount */\n      sload(0x01)\n        /* \"NRTManager.sol\":7312:7332  monthlyNRTAmount.add */\n      tag_102\n      swap1\n        /* \"NRTManager.sol\":7312:7345  monthlyNRTAmount.add(luckPoolBal) */\n      swap2\n      swap1\n      0xffffffff\n      and\n      jump\t// in\n    tag_115:\n        /* \"NRTManager.sol\":7295:7345  uint256 NRTBal = monthlyNRTAmount.add(luckPoolBal) */\n      swap1\n      pop\n        /* \"NRTManager.sol\":7481:7505  (NRTBal.mul(5)).div(100) */\n      tag_116\n        /* \"NRTManager.sol\":7501:7504  100 */\n      0x64\n        /* \"NRTManager.sol\":7482:7495  NRTBal.mul(5) */\n      tag_117\n        /* \"NRTManager.sol\":7493:7494  5 */\n      0x05\n        /* \"NRTManager.sol\":7482:7488  NRTBal */\n      dup5\n        /* \"NRTManager.sol\":7482:7492  NRTBal.mul */\n      tag_118\n      swap1\n        /* \"NRTManager.sol\":7482:7495  NRTBal.mul(5) */\n      swap2\n      swap1\n      0xffffffff\n      and\n      jump\t// in\n    tag_117:\n        /* \"NRTManager.sol\":7481:7500  (NRTBal.mul(5)).div */\n      tag_119\n      swap1\n        /* \"NRTManager.sol\":7481:7505  (NRTBal.mul(5)).div(100) */\n      swap2\n      swap1\n      0xffffffff\n      and\n      jump\t// in\n    tag_116:\n        /* \"NRTManager.sol\":7450:7478  newTalentsAndPartnershipsBal */\n      0x11\n        /* \"NRTManager.sol\":7450:7505  newTalentsAndPartnershipsBal = (NRTBal.mul(5)).div(100) */\n      dup2\n      swap1\n      sstore\n      pop\n        /* \"NRTManager.sol\":7540:7565  (NRTBal.mul(10)).div(100) */\n      tag_120\n        /* \"NRTManager.sol\":7561:7564  100 */\n      0x64\n        /* \"NRTManager.sol\":7541:7555  NRTBal.mul(10) */\n      tag_121\n        /* \"NRTManager.sol\":7552:7554  10 */\n      0x0a\n        /* \"NRTManager.sol\":7541:7547  NRTBal */\n      dup5\n        /* \"NRTManager.sol\":7541:7551  NRTBal.mul */\n      tag_118\n      swap1\n        /* \"NRTManager.sol\":7541:7555  NRTBal.mul(10) */\n      swap2\n      swap1\n      0xffffffff\n      and\n      jump\t// in\n    tag_121:\n        /* \"NRTManager.sol\":7540:7560  (NRTBal.mul(10)).div */\n      tag_119\n      swap1\n        /* \"NRTManager.sol\":7540:7565  (NRTBal.mul(10)).div(100) */\n      swap2\n      swap1\n      0xffffffff\n      and\n      jump\t// in\n    tag_120:\n        /* \"NRTManager.sol\":7515:7537  platformMaintenanceBal */\n      0x12\n        /* \"NRTManager.sol\":7515:7565  platformMaintenanceBal = (NRTBal.mul(10)).div(100) */\n      dup2\n      swap1\n      sstore\n      pop\n        /* \"NRTManager.sol\":7596:7621  (NRTBal.mul(10)).div(100) */\n      tag_122\n        /* \"NRTManager.sol\":7617:7620  100 */\n      0x64\n        /* \"NRTManager.sol\":7597:7611  NRTBal.mul(10) */\n      tag_123\n        /* \"NRTManager.sol\":7608:7610  10 */\n      0x0a\n        /* \"NRTManager.sol\":7597:7603  NRTBal */\n      dup5\n        /* \"NRTManager.sol\":7597:7607  NRTBal.mul */\n      tag_118\n      swap1\n        /* \"NRTManager.sol\":7597:7611  NRTBal.mul(10) */\n      swap2\n      swap1\n      0xffffffff\n      and\n      jump\t// in\n    tag_123:\n        /* \"NRTManager.sol\":7596:7616  (NRTBal.mul(10)).div */\n      tag_119\n      swap1\n        /* \"NRTManager.sol\":7596:7621  (NRTBal.mul(10)).div(100) */\n      swap2\n      swap1\n      0xffffffff\n      and\n      jump\t// in\n    tag_122:\n        /* \"NRTManager.sol\":7575:7593  marketingAndRNRBal */\n      0x13\n        /* \"NRTManager.sol\":7575:7621  marketingAndRNRBal = (NRTBal.mul(10)).div(100) */\n      dup2\n      swap1\n      sstore\n      pop\n        /* \"NRTManager.sol\":7644:7669  (NRTBal.mul(10)).div(100) */\n      tag_124\n        /* \"NRTManager.sol\":7665:7668  100 */\n      0x64\n        /* \"NRTManager.sol\":7645:7659  NRTBal.mul(10) */\n      tag_125\n        /* \"NRTManager.sol\":7656:7658  10 */\n      0x0a\n        /* \"NRTManager.sol\":7645:7651  NRTBal */\n      dup5\n        /* \"NRTManager.sol\":7645:7655  NRTBal.mul */\n      tag_118\n      swap1\n        /* \"NRTManager.sol\":7645:7659  NRTBal.mul(10) */\n      swap2\n      swap1\n      0xffffffff\n      and\n      jump\t// in\n    tag_125:\n        /* \"NRTManager.sol\":7644:7664  (NRTBal.mul(10)).div */\n      tag_119\n      swap1\n        /* \"NRTManager.sol\":7644:7669  (NRTBal.mul(10)).div(100) */\n      swap2\n      swap1\n      0xffffffff\n      and\n      jump\t// in\n    tag_124:\n        /* \"NRTManager.sol\":7631:7641  kmPardsBal */\n      0x14\n        /* \"NRTManager.sol\":7631:7669  kmPardsBal = (NRTBal.mul(10)).div(100) */\n      dup2\n      swap1\n      sstore\n      pop\n        /* \"NRTManager.sol\":7701:7726  (NRTBal.mul(10)).div(100) */\n      tag_126\n        /* \"NRTManager.sol\":7722:7725  100 */\n      0x64\n        /* \"NRTManager.sol\":7702:7716  NRTBal.mul(10) */\n      tag_127\n        /* \"NRTManager.sol\":7713:7715  10 */\n      0x0a\n        /* \"NRTManager.sol\":7702:7708  NRTBal */\n      dup5\n        /* \"NRTManager.sol\":7702:7712  NRTBal.mul */\n      tag_118\n      swap1\n        /* \"NRTManager.sol\":7702:7716  NRTBal.mul(10) */\n      swap2\n      swap1\n      0xffffffff\n      and\n      jump\t// in\n    tag_127:\n        /* \"NRTManager.sol\":7701:7721  (NRTBal.mul(10)).div */\n      tag_119\n      swap1\n        /* \"NRTManager.sol\":7701:7726  (NRTBal.mul(10)).div(100) */\n      swap2\n      swap1\n      0xffffffff\n      and\n      jump\t// in\n    tag_126:\n        /* \"NRTManager.sol\":7679:7698  contingencyFundsBal */\n      0x15\n        /* \"NRTManager.sol\":7679:7726  contingencyFundsBal = (NRTBal.mul(10)).div(100) */\n      dup2\n      swap1\n      sstore\n      pop\n        /* \"NRTManager.sol\":7764:7788  (NRTBal.mul(5)).div(100) */\n      tag_128\n        /* \"NRTManager.sol\":7784:7787  100 */\n      0x64\n        /* \"NRTManager.sol\":7765:7778  NRTBal.mul(5) */\n      tag_129\n        /* \"NRTManager.sol\":7776:7777  5 */\n      0x05\n        /* \"NRTManager.sol\":7765:7771  NRTBal */\n      dup5\n        /* \"NRTManager.sol\":7765:7775  NRTBal.mul */\n      tag_118\n      swap1\n        /* \"NRTManager.sol\":7765:7778  NRTBal.mul(5) */\n      swap2\n      swap1\n      0xffffffff\n      and\n      jump\t// in\n    tag_129:\n        /* \"NRTManager.sol\":7764:7783  (NRTBal.mul(5)).div */\n      tag_119\n      swap1\n        /* \"NRTManager.sol\":7764:7788  (NRTBal.mul(5)).div(100) */\n      swap2\n      swap1\n      0xffffffff\n      and\n      jump\t// in\n    tag_128:\n        /* \"NRTManager.sol\":7736:7761  researchAndDevelopmentBal */\n      0x16\n        /* \"NRTManager.sol\":7736:7788  researchAndDevelopmentBal = (NRTBal.mul(5)).div(100) */\n      dup2\n      swap1\n      sstore\n      pop\n        /* \"NRTManager.sol\":7815:7840  (NRTBal.mul(10)).div(100) */\n      tag_130\n        /* \"NRTManager.sol\":7836:7839  100 */\n      0x64\n        /* \"NRTManager.sol\":7816:7830  NRTBal.mul(10) */\n      tag_131\n        /* \"NRTManager.sol\":7827:7829  10 */\n      0x0a\n        /* \"NRTManager.sol\":7816:7822  NRTBal */\n      dup5\n        /* \"NRTManager.sol\":7816:7826  NRTBal.mul */\n      tag_118\n      swap1\n        /* \"NRTManager.sol\":7816:7830  NRTBal.mul(10) */\n      swap2\n      swap1\n      0xffffffff\n      and\n      jump\t// in\n    tag_131:\n        /* \"NRTManager.sol\":7815:7835  (NRTBal.mul(10)).div */\n      tag_119\n      swap1\n        /* \"NRTManager.sol\":7815:7840  (NRTBal.mul(10)).div(100) */\n      swap2\n      swap1\n      0xffffffff\n      and\n      jump\t// in\n    tag_130:\n        /* \"NRTManager.sol\":7799:7812  powerTokenNRT */\n      0x17\n        /* \"NRTManager.sol\":7799:7840  powerTokenNRT = (NRTBal.mul(10)).div(100) */\n      dup2\n      swap1\n      sstore\n      pop\n        /* \"NRTManager.sol\":7864:7889  (NRTBal.mul(15)).div(100) */\n      tag_132\n        /* \"NRTManager.sol\":7885:7888  100 */\n      0x64\n        /* \"NRTManager.sol\":7865:7879  NRTBal.mul(15) */\n      tag_133\n        /* \"NRTManager.sol\":7876:7878  15 */\n      0x0f\n        /* \"NRTManager.sol\":7865:7871  NRTBal */\n      dup5\n        /* \"NRTManager.sol\":7865:7875  NRTBal.mul */\n      tag_118\n      swap1\n        /* \"NRTManager.sol\":7865:7879  NRTBal.mul(15) */\n      swap2\n      swap1\n      0xffffffff\n      and\n      jump\t// in\n    tag_133:\n        /* \"NRTManager.sol\":7864:7884  (NRTBal.mul(15)).div */\n      tag_119\n      swap1\n        /* \"NRTManager.sol\":7864:7889  (NRTBal.mul(15)).div(100) */\n      swap2\n      swap1\n      0xffffffff\n      and\n      jump\t// in\n    tag_132:\n        /* \"NRTManager.sol\":7850:7861  timeAllyNRT */\n      0x18\n        /* \"NRTManager.sol\":7850:7889  timeAllyNRT = (NRTBal.mul(15)).div(100) */\n      dup2\n      swap1\n      sstore\n      pop\n        /* \"NRTManager.sol\":7917:7942  (NRTBal.mul(25)).div(100) */\n      tag_134\n        /* \"NRTManager.sol\":7938:7941  100 */\n      0x64\n        /* \"NRTManager.sol\":7918:7932  NRTBal.mul(25) */\n      tag_135\n        /* \"NRTManager.sol\":7929:7931  25 */\n      0x19\n        /* \"NRTManager.sol\":7918:7924  NRTBal */\n      dup5\n        /* \"NRTManager.sol\":7918:7928  NRTBal.mul */\n      tag_118\n      swap1\n        /* \"NRTManager.sol\":7918:7932  NRTBal.mul(25) */\n      swap2\n      swap1\n      0xffffffff\n      and\n      jump\t// in\n    tag_135:\n        /* \"NRTManager.sol\":7917:7937  (NRTBal.mul(25)).div */\n      tag_119\n      swap1\n        /* \"NRTManager.sol\":7917:7942  (NRTBal.mul(25)).div(100) */\n      swap2\n      swap1\n      0xffffffff\n      and\n      jump\t// in\n    tag_134:\n        /* \"NRTManager.sol\":7899:7914  timeSwappersNRT */\n      0x19\n        /* \"NRTManager.sol\":7899:7942  timeSwappersNRT = (NRTBal.mul(25)).div(100) */\n      dup2\n      swap1\n      sstore\n      pop\n        /* \"NRTManager.sol\":9045:9050  token */\n      0x06\n      0x00\n      swap1\n      sload\n      swap1\n      0x0100\n      exp\n      swap1\n      div\n      0xffffffffffffffffffffffffffffffffffffffff\n      and\n        /* \"NRTManager.sol\":9045:9055  token.mint */\n      0xffffffffffffffffffffffffffffffffffffffff\n      and\n      0x40c10f19\n        /* \"NRTManager.sol\":9056:9064  timeAlly */\n      0x10\n      0x00\n      swap1\n      sload\n      swap1\n      0x0100\n      exp\n      swap1\n      div\n      0xffffffffffffffffffffffffffffffffffffffff\n      and\n        /* \"NRTManager.sol\":9065:9076  timeAllyNRT */\n      sload(0x18)\n        /* \"NRTManager.sol\":9045:9077  token.mint(timeAlly,timeAllyNRT) */\n      mload(0x40)\n      dup4\n      0xffffffff\n      and\n      0xe0\n      shl\n      dup2\n      mstore\n      0x04\n      add\n      dup1\n      dup4\n      0xffffffffffffffffffffffffffffffffffffffff\n      and\n      0xffffffffffffffffffffffffffffffffffffffff\n      and\n      dup2\n      mstore\n      0x20\n      add\n      dup3\n      dup2\n      mstore\n      0x20\n      add\n      swap3\n      pop\n      pop\n      pop\n      0x20\n      mload(0x40)\n      dup1\n      dup4\n      sub\n      dup2\n      0x00\n      dup8\n      dup1\n      extcodesize\n      iszero\n        /* \"--CODEGEN--\":8:17   */\n      dup1\n        /* \"--CODEGEN--\":5:7   */\n      iszero\n      tag_136\n      jumpi\n        /* \"--CODEGEN--\":30:31   */\n      0x00\n        /* \"--CODEGEN--\":27:28   */\n      dup1\n        /* \"--CODEGEN--\":20:32   */\n      revert\n        /* \"--CODEGEN--\":5:7   */\n    tag_136:\n        /* \"NRTManager.sol\":9045:9077  token.mint(timeAlly,timeAllyNRT) */\n      pop\n      gas\n      call\n      iszero\n        /* \"--CODEGEN--\":8:17   */\n      dup1\n        /* \"--CODEGEN--\":5:7   */\n      iszero\n      tag_137\n      jumpi\n        /* \"--CODEGEN--\":45:61   */\n      returndatasize\n        /* \"--CODEGEN--\":42:43   */\n      0x00\n        /* \"--CODEGEN--\":39:40   */\n      dup1\n        /* \"--CODEGEN--\":24:62   */\n      returndatacopy\n        /* \"--CODEGEN--\":77:93   */\n      returndatasize\n        /* \"--CODEGEN--\":74:75   */\n      0x00\n        /* \"--CODEGEN--\":67:94   */\n      revert\n        /* \"--CODEGEN--\":5:7   */\n    tag_137:\n        /* \"NRTManager.sol\":9045:9077  token.mint(timeAlly,timeAllyNRT) */\n      pop\n      pop\n      pop\n      pop\n      mload(0x40)\n      returndatasize\n        /* \"--CODEGEN--\":13:15   */\n      0x20\n        /* \"--CODEGEN--\":8:11   */\n      dup2\n        /* \"--CODEGEN--\":5:16   */\n      lt\n        /* \"--CODEGEN--\":2:4   */\n      iszero\n      tag_138\n      jumpi\n        /* \"--CODEGEN--\":29:30   */\n      0x00\n        /* \"--CODEGEN--\":26:27   */\n      dup1\n        /* \"--CODEGEN--\":19:31   */\n      revert\n        /* \"--CODEGEN--\":2:4   */\n    tag_138:\n        /* \"NRTManager.sol\":9045:9077  token.mint(timeAlly,timeAllyNRT) */\n      dup2\n      add\n      swap1\n      dup1\n      dup1\n      mload\n      swap1\n      0x20\n      add\n      swap1\n      swap3\n      swap2\n      swap1\n      pop\n      pop\n      pop\n      pop\n        /* \"NRTManager.sol\":9087:9112  TimeAlly timeAllyContract */\n      0x00\n        /* \"NRTManager.sol\":9124:9132  timeAlly */\n      0x10\n      0x00\n      swap1\n      sload\n      swap1\n      0x0100\n      exp\n      swap1\n      div\n      0xffffffffffffffffffffffffffffffffffffffff\n      and\n        /* \"NRTManager.sol\":9087:9133  TimeAlly timeAllyContract = TimeAlly(timeAlly) */\n      swap1\n      pop\n        /* \"NRTManager.sol\":9143:9159  timeAllyContract */\n      dup1\n        /* \"NRTManager.sol\":9143:9173  timeAllyContract.increaseMonth */\n      0xffffffffffffffffffffffffffffffffffffffff\n      and\n      0xe78c81c4\n        /* \"NRTManager.sol\":9174:9185  timeAllyNRT */\n      sload(0x18)\n        /* \"NRTManager.sol\":9143:9186  timeAllyContract.increaseMonth(timeAllyNRT) */\n      mload(0x40)\n      dup3\n      0xffffffff\n      and\n      0xe0\n      shl\n      dup2\n      mstore\n      0x04\n      add\n      dup1\n      dup3\n      dup2\n      mstore\n      0x20\n      add\n      swap2\n      pop\n      pop\n      0x00\n      mload(0x40)\n      dup1\n      dup4\n      sub\n      dup2\n      0x00\n      dup8\n      dup1\n      extcodesize\n      iszero\n        /* \"--CODEGEN--\":8:17   */\n      dup1\n        /* \"--CODEGEN--\":5:7   */\n      iszero\n      tag_139\n      jumpi\n        /* \"--CODEGEN--\":30:31   */\n      0x00\n        /* \"--CODEGEN--\":27:28   */\n      dup1\n        /* \"--CODEGEN--\":20:32   */\n      revert\n        /* \"--CODEGEN--\":5:7   */\n    tag_139:\n        /* \"NRTManager.sol\":9143:9186  timeAllyContract.increaseMonth(timeAllyNRT) */\n      pop\n      gas\n      call\n      iszero\n        /* \"--CODEGEN--\":8:17   */\n      dup1\n        /* \"--CODEGEN--\":5:7   */\n      iszero\n      tag_140\n      jumpi\n        /* \"--CODEGEN--\":45:61   */\n      returndatasize\n        /* \"--CODEGEN--\":42:43   */\n      0x00\n        /* \"--CODEGEN--\":39:40   */\n      dup1\n        /* \"--CODEGEN--\":24:62   */\n      returndatacopy\n        /* \"--CODEGEN--\":77:93   */\n      returndatasize\n        /* \"--CODEGEN--\":74:75   */\n      0x00\n        /* \"--CODEGEN--\":67:94   */\n      revert\n        /* \"--CODEGEN--\":5:7   */\n    tag_140:\n        /* \"NRTManager.sol\":9143:9186  timeAllyContract.increaseMonth(timeAllyNRT) */\n      pop\n      pop\n      pop\n      pop\n        /* \"NRTManager.sol\":9201:9254  NRTTransfer(\"stakingContract\", timeAlly, timeAllyNRT) */\n      0x8470ec6072093abfec912969ee9fd5273eed1d3202eac51a1fd83c236ee9bea8\n        /* \"NRTManager.sol\":9232:9240  timeAlly */\n      0x10\n      0x00\n      swap1\n      sload\n      swap1\n      0x0100\n      exp\n      swap1\n      div\n      0xffffffffffffffffffffffffffffffffffffffff\n      and\n        /* \"NRTManager.sol\":9242:9253  timeAllyNRT */\n      sload(0x18)\n        /* \"NRTManager.sol\":9201:9254  NRTTransfer(\"stakingContract\", timeAlly, timeAllyNRT) */\n      mload(0x40)\n      dup1\n      dup1\n      0x20\n      add\n      dup5\n      0xffffffffffffffffffffffffffffffffffffffff\n      and\n      0xffffffffffffffffffffffffffffffffffffffff\n      and\n      dup2\n      mstore\n      0x20\n      add\n      dup4\n      dup2\n      mstore\n      0x20\n      add\n      dup3\n      dup2\n      sub\n      dup3\n      mstore\n      0x0f\n      dup2\n      mstore\n      0x20\n      add\n      dup1\n      0x7374616b696e67436f6e74726163740000000000000000000000000000000000\n      dup2\n      mstore\n      pop\n      0x20\n      add\n      swap4\n      pop\n      pop\n      pop\n      pop\n      mload(0x40)\n      dup1\n      swap2\n      sub\n      swap1\n      log1\n        /* \"NRTManager.sol\":9424:9446  NRTDistributed(NRTBal) */\n      0x31a2c82874744c38fa6d0d7bacb6ff098de6c1ecc98899f39f5b9ea32108765b\n        /* \"NRTManager.sol\":9439:9445  NRTBal */\n      dup3\n        /* \"NRTManager.sol\":9424:9446  NRTDistributed(NRTBal) */\n      mload(0x40)\n      dup1\n      dup3\n      dup2\n      mstore\n      0x20\n      add\n      swap2\n      pop\n      pop\n      mload(0x40)\n      dup1\n      swap2\n      sub\n      swap1\n      log1\n        /* \"NRTManager.sol\":9470:9471  0 */\n      0x00\n        /* \"NRTManager.sol\":9456:9467  luckPoolBal */\n      0x04\n        /* \"NRTManager.sol\":9456:9471  luckPoolBal = 0 */\n      dup2\n      swap1\n      sstore\n      pop\n        /* \"NRTManager.sol\":9498:9525  lastNRTRelease.add(30 days) */\n      tag_141\n        /* \"NRTManager.sol\":9517:9524  30 days */\n      0x278d00\n        /* \"NRTManager.sol\":9498:9512  lastNRTRelease */\n      sload(0x00)\n        /* \"NRTManager.sol\":9498:9516  lastNRTRelease.add */\n      tag_102\n      swap1\n        /* \"NRTManager.sol\":9498:9525  lastNRTRelease.add(30 days) */\n      swap2\n      swap1\n      0xffffffff\n      and\n      jump\t// in\n    tag_141:\n        /* \"NRTManager.sol\":9481:9495  lastNRTRelease */\n      0x00\n        /* \"NRTManager.sol\":9481:9525  lastNRTRelease = lastNRTRelease.add(30 days) */\n      dup2\n      swap1\n      sstore\n      pop\n        /* \"NRTManager.sol\":9567:9579  burnTokens() */\n      tag_142\n        /* \"NRTManager.sol\":9567:9577  burnTokens */\n      tag_143\n        /* \"NRTManager.sol\":9567:9579  burnTokens() */\n      jump\t// in\n    tag_142:\n      pop\n        /* \"NRTManager.sol\":9650:9676  TokensBurned(burnTokenBal) */\n      0x6ef4855b666dcc7884561072e4358b28dfe01feb1b7f4dcebc00e62d50394ac7\n        /* \"NRTManager.sol\":9663:9675  burnTokenBal */\n      sload(0x05)\n        /* \"NRTManager.sol\":9650:9676  TokensBurned(burnTokenBal) */\n      mload(0x40)\n      dup1\n      dup3\n      dup2\n      mstore\n      0x20\n      add\n      swap2\n      pop\n      pop\n      mload(0x40)\n      dup1\n      swap2\n      sub\n      swap1\n      log1\n        /* \"NRTManager.sol\":9705:9707  11 */\n      0x0b\n        /* \"NRTManager.sol\":9691:9701  monthCount */\n      sload(0x03)\n        /* \"NRTManager.sol\":9691:9707  monthCount == 11 */\n      eq\n        /* \"NRTManager.sol\":9688:9929  if(monthCount == 11){... */\n      iszero\n      tag_144\n      jumpi\n        /* \"NRTManager.sol\":9733:9734  0 */\n      0x00\n        /* \"NRTManager.sol\":9720:9730  monthCount */\n      0x03\n        /* \"NRTManager.sol\":9720:9734  monthCount = 0 */\n      dup2\n      swap1\n      sstore\n      pop\n        /* \"NRTManager.sol\":9764:9798  (annualNRTAmount.mul(90)).div(100) */\n      tag_145\n        /* \"NRTManager.sol\":9794:9797  100 */\n      0x64\n        /* \"NRTManager.sol\":9765:9788  annualNRTAmount.mul(90) */\n      tag_146\n        /* \"NRTManager.sol\":9785:9787  90 */\n      0x5a\n        /* \"NRTManager.sol\":9765:9780  annualNRTAmount */\n      sload(0x02)\n        /* \"NRTManager.sol\":9765:9784  annualNRTAmount.mul */\n      tag_118\n      swap1\n        /* \"NRTManager.sol\":9765:9788  annualNRTAmount.mul(90) */\n      swap2\n      swap1\n      0xffffffff\n      and\n      jump\t// in\n    tag_146:\n        /* \"NRTManager.sol\":9764:9793  (annualNRTAmount.mul(90)).div */\n      tag_119\n      swap1\n        /* \"NRTManager.sol\":9764:9798  (annualNRTAmount.mul(90)).div(100) */\n      swap2\n      swap1\n      0xffffffff\n      and\n      jump\t// in\n    tag_145:\n        /* \"NRTManager.sol\":9746:9761  annualNRTAmount */\n      0x02\n        /* \"NRTManager.sol\":9746:9798  annualNRTAmount = (annualNRTAmount.mul(90)).div(100) */\n      dup2\n      swap1\n      sstore\n      pop\n        /* \"NRTManager.sol\":9829:9852  annualNRTAmount.div(12) */\n      tag_147\n        /* \"NRTManager.sol\":9849:9851  12 */\n      0x0c\n        /* \"NRTManager.sol\":9829:9844  annualNRTAmount */\n      sload(0x02)\n        /* \"NRTManager.sol\":9829:9848  annualNRTAmount.div */\n      tag_119\n      swap1\n        /* \"NRTManager.sol\":9829:9852  annualNRTAmount.div(12) */\n      swap2\n      swap1\n      0xffffffff\n      and\n      jump\t// in\n    tag_147:\n        /* \"NRTManager.sol\":9810:9826  monthlyNRTAmount */\n      0x01\n        /* \"NRTManager.sol\":9810:9852  monthlyNRTAmount = annualNRTAmount.div(12) */\n      dup2\n      swap1\n      sstore\n      pop\n        /* \"NRTManager.sol\":9688:9929  if(monthCount == 11){... */\n      jump(tag_148)\n    tag_144:\n        /* \"NRTManager.sol\":9901:9918  monthCount.add(1) */\n      tag_149\n        /* \"NRTManager.sol\":9916:9917  1 */\n      0x01\n        /* \"NRTManager.sol\":9901:9911  monthCount */\n      sload(0x03)\n        /* \"NRTManager.sol\":9901:9915  monthCount.add */\n      tag_102\n      swap1\n        /* \"NRTManager.sol\":9901:9918  monthCount.add(1) */\n      swap2\n      swap1\n      0xffffffff\n      and\n      jump\t// in\n    tag_149:\n        /* \"NRTManager.sol\":9888:9898  monthCount */\n      0x03\n        /* \"NRTManager.sol\":9888:9918  monthCount = monthCount.add(1) */\n      dup2\n      swap1\n      sstore\n      pop\n        /* \"NRTManager.sol\":9688:9929  if(monthCount == 11){... */\n    tag_148:\n        /* \"NRTManager.sol\":9945:9949  true */\n      0x01\n        /* \"NRTManager.sol\":9938:9949  return true */\n      swap3\n      pop\n      pop\n      pop\n        /* \"NRTManager.sol\":7134:9958  function MonthlyNRTRelease() external returns (bool) {... */\n      swap1\n      jump\t// out\n        /* \"NRTManager.sol\":1343:1380  uint256 public platformMaintenanceBal */\n    tag_85:\n      sload(0x12)\n      dup2\n      jump\t// out\n        /* \"NRTManager.sol\":2074:2104  uint256 public timeSwappersNRT */\n    tag_87:\n      sload(0x19)\n      dup2\n      jump\t// out\n        /* \"NRTManager.sol\":538:564  uint256 public luckPoolBal */\n    tag_89:\n      sload(0x04)\n      dup2\n      jump\t// out\n        /* \"NRTManager.sol\":4561:6374  function UpdateAddresses (address[9] calldata pool) external OnlyOwner  returns(bool){... */\n    tag_92:\n        /* \"NRTManager.sol\":4641:4645  bool */\n      0x00\n        /* \"NRTManager.sol\":3629:3634  Owner */\n      0x07\n      0x00\n      swap1\n      sload\n      swap1\n      0x0100\n      exp\n      swap1\n      div\n      0xffffffffffffffffffffffffffffffffffffffff\n      and\n        /* \"NRTManager.sol\":3615:3634  msg.sender == Owner */\n      0xffffffffffffffffffffffffffffffffffffffff\n      and\n        /* \"NRTManager.sol\":3615:3625  msg.sender */\n      caller\n        /* \"NRTManager.sol\":3615:3634  msg.sender == Owner */\n      0xffffffffffffffffffffffffffffffffffffffff\n      and\n      eq\n        /* \"NRTManager.sol\":3607:3662  require(msg.sender == Owner,\"Only Owner is authorised\") */\n      tag_151\n      jumpi\n      mload(0x40)\n      0x08c379a000000000000000000000000000000000000000000000000000000000\n      dup2\n      mstore\n      0x04\n      add\n      dup1\n      dup1\n      0x20\n      add\n      dup3\n      dup2\n      sub\n      dup3\n      mstore\n      0x18\n      dup2\n      mstore\n      0x20\n      add\n      dup1\n      0x4f6e6c79204f776e657220697320617574686f72697365640000000000000000\n      dup2\n      mstore\n      pop\n      0x20\n      add\n      swap2\n      pop\n      pop\n      mload(0x40)\n      dup1\n      swap2\n      sub\n      swap1\n      revert\n    tag_151:\n        /* \"NRTManager.sol\":4680:4681  0 */\n      0x00\n        /* \"NRTManager.sol\":4661:4682  pool[0] != address(0) */\n      0xffffffffffffffffffffffffffffffffffffffff\n      and\n        /* \"NRTManager.sol\":4661:4665  pool */\n      dup3\n        /* \"NRTManager.sol\":4666:4667  0 */\n      0x00\n        /* \"NRTManager.sol\":4661:4668  pool[0] */\n      0x09\n      dup2\n      lt\n      tag_153\n      jumpi\n      invalid\n    tag_153:\n      0x20\n      mul\n      add\n      calldataload\n      0xffffffffffffffffffffffffffffffffffffffff\n      and\n        /* \"NRTManager.sol\":4661:4682  pool[0] != address(0) */\n      0xffffffffffffffffffffffffffffffffffffffff\n      and\n      eq\n      iszero\n        /* \"NRTManager.sol\":4660:4728  (pool[0] != address(0)) && (newTalentsAndPartnerships == address(0)) */\n      dup1\n      iszero\n      tag_154\n      jumpi\n      pop\n        /* \"NRTManager.sol\":4725:4726  0 */\n      0x00\n        /* \"NRTManager.sol\":4688:4727  newTalentsAndPartnerships == address(0) */\n      0xffffffffffffffffffffffffffffffffffffffff\n      and\n        /* \"NRTManager.sol\":4688:4713  newTalentsAndPartnerships */\n      0x08\n      0x00\n      swap1\n      sload\n      swap1\n      0x0100\n      exp\n      swap1\n      div\n      0xffffffffffffffffffffffffffffffffffffffff\n      and\n        /* \"NRTManager.sol\":4688:4727  newTalentsAndPartnerships == address(0) */\n      0xffffffffffffffffffffffffffffffffffffffff\n      and\n      eq\n        /* \"NRTManager.sol\":4660:4728  (pool[0] != address(0)) && (newTalentsAndPartnerships == address(0)) */\n    tag_154:\n        /* \"NRTManager.sol\":4657:4877  if((pool[0] != address(0)) && (newTalentsAndPartnerships == address(0))){... */\n      iszero\n      tag_155\n      jumpi\n        /* \"NRTManager.sol\":4769:4773  pool */\n      dup2\n        /* \"NRTManager.sol\":4774:4775  0 */\n      0x00\n        /* \"NRTManager.sol\":4769:4776  pool[0] */\n      0x09\n      dup2\n      lt\n      tag_156\n      jumpi\n      invalid\n    tag_156:\n      0x20\n      mul\n      add\n      calldataload\n      0xffffffffffffffffffffffffffffffffffffffff\n      and\n        /* \"NRTManager.sol\":4741:4766  newTalentsAndPartnerships */\n      0x08\n      0x00\n        /* \"NRTManager.sol\":4741:4776  newTalentsAndPartnerships = pool[0] */\n      0x0100\n      exp\n      dup2\n      sload\n      dup2\n      0xffffffffffffffffffffffffffffffffffffffff\n      mul\n      not\n      and\n      swap1\n      dup4\n      0xffffffffffffffffffffffffffffffffffffffff\n      and\n      mul\n      or\n      swap1\n      sstore\n      pop\n        /* \"NRTManager.sol\":4793:4866  PoolAddressAdded( \"NewTalentsAndPartnerships\", newTalentsAndPartnerships) */\n      0x12fb0c5abba542bf97c53eecc4ebe59d9ba7ad563247ed305f002ada0291d60f\n        /* \"NRTManager.sol\":4840:4865  newTalentsAndPartnerships */\n      0x08\n      0x00\n      swap1\n      sload\n      swap1\n      0x0100\n      exp\n      swap1\n      div\n      0xffffffffffffffffffffffffffffffffffffffff\n      and\n        /* \"NRTManager.sol\":4793:4866  PoolAddressAdded( \"NewTalentsAndPartnerships\", newTalentsAndPartnerships) */\n      mload(0x40)\n      dup1\n      dup1\n      0x20\n      add\n      dup4\n      0xffffffffffffffffffffffffffffffffffffffff\n      and\n      0xffffffffffffffffffffffffffffffffffffffff\n      and\n      dup2\n      mstore\n      0x20\n      add\n      dup3\n      dup2\n      sub\n      dup3\n      mstore\n      0x19\n      dup2\n      mstore\n      0x20\n      add\n      dup1\n      0x4e657754616c656e7473416e64506172746e6572736869707300000000000000\n      dup2\n      mstore\n      pop\n      0x20\n      add\n      swap3\n      pop\n      pop\n      pop\n      mload(0x40)\n      dup1\n      swap2\n      sub\n      swap1\n      log1\n        /* \"NRTManager.sol\":4657:4877  if((pool[0] != address(0)) && (newTalentsAndPartnerships == address(0))){... */\n    tag_155:\n        /* \"NRTManager.sol\":4909:4910  0 */\n      0x00\n        /* \"NRTManager.sol\":4890:4911  pool[1] != address(0) */\n      0xffffffffffffffffffffffffffffffffffffffff\n      and\n        /* \"NRTManager.sol\":4890:4894  pool */\n      dup3\n        /* \"NRTManager.sol\":4895:4896  1 */\n      0x01\n        /* \"NRTManager.sol\":4890:4897  pool[1] */\n      0x09\n      dup2\n      lt\n      tag_157\n      jumpi\n      invalid\n    tag_157:\n      0x20\n      mul\n      add\n      calldataload\n      0xffffffffffffffffffffffffffffffffffffffff\n      and\n        /* \"NRTManager.sol\":4890:4911  pool[1] != address(0) */\n      0xffffffffffffffffffffffffffffffffffffffff\n      and\n      eq\n      iszero\n        /* \"NRTManager.sol\":4889:4951  (pool[1] != address(0)) && (platformMaintenance == address(0)) */\n      dup1\n      iszero\n      tag_158\n      jumpi\n      pop\n        /* \"NRTManager.sol\":4948:4949  0 */\n      0x00\n        /* \"NRTManager.sol\":4917:4950  platformMaintenance == address(0) */\n      0xffffffffffffffffffffffffffffffffffffffff\n      and\n        /* \"NRTManager.sol\":4917:4936  platformMaintenance */\n      0x09\n      0x00\n      swap1\n      sload\n      swap1\n      0x0100\n      exp\n      swap1\n      div\n      0xffffffffffffffffffffffffffffffffffffffff\n      and\n        /* \"NRTManager.sol\":4917:4950  platformMaintenance == address(0) */\n      0xffffffffffffffffffffffffffffffffffffffff\n      and\n      eq\n        /* \"NRTManager.sol\":4889:4951  (pool[1] != address(0)) && (platformMaintenance == address(0)) */\n    tag_158:\n        /* \"NRTManager.sol\":4886:5082  if((pool[1] != address(0)) && (platformMaintenance == address(0))){... */\n      iszero\n      tag_159\n      jumpi\n        /* \"NRTManager.sol\":4986:4990  pool */\n      dup2\n        /* \"NRTManager.sol\":4991:4992  1 */\n      0x01\n        /* \"NRTManager.sol\":4986:4993  pool[1] */\n      0x09\n      dup2\n      lt\n      tag_160\n      jumpi\n      invalid\n    tag_160:\n      0x20\n      mul\n      add\n      calldataload\n      0xffffffffffffffffffffffffffffffffffffffff\n      and\n        /* \"NRTManager.sol\":4964:4983  platformMaintenance */\n      0x09\n      0x00\n        /* \"NRTManager.sol\":4964:4993  platformMaintenance = pool[1] */\n      0x0100\n      exp\n      dup2\n      sload\n      dup2\n      0xffffffffffffffffffffffffffffffffffffffff\n      mul\n      not\n      and\n      swap1\n      dup4\n      0xffffffffffffffffffffffffffffffffffffffff\n      and\n      mul\n      or\n      swap1\n      sstore\n      pop\n        /* \"NRTManager.sol\":5010:5071  PoolAddressAdded( \"PlatformMaintenance\", platformMaintenance) */\n      0x12fb0c5abba542bf97c53eecc4ebe59d9ba7ad563247ed305f002ada0291d60f\n        /* \"NRTManager.sol\":5051:5070  platformMaintenance */\n      0x09\n      0x00\n      swap1\n      sload\n      swap1\n      0x0100\n      exp\n      swap1\n      div\n      0xffffffffffffffffffffffffffffffffffffffff\n      and\n        /* \"NRTManager.sol\":5010:5071  PoolAddressAdded( \"PlatformMaintenance\", platformMaintenance) */\n      mload(0x40)\n      dup1\n      dup1\n      0x20\n      add\n      dup4\n      0xffffffffffffffffffffffffffffffffffffffff\n      and\n      0xffffffffffffffffffffffffffffffffffffffff\n      and\n      dup2\n      mstore\n      0x20\n      add\n      dup3\n      dup2\n      sub\n      dup3\n      mstore\n      0x13\n      dup2\n      mstore\n      0x20\n      add\n      dup1\n      0x506c6174666f726d4d61696e74656e616e636500000000000000000000000000\n      dup2\n      mstore\n      pop\n      0x20\n      add\n      swap3\n      pop\n      pop\n      pop\n      mload(0x40)\n      dup1\n      swap2\n      sub\n      swap1\n      log1\n        /* \"NRTManager.sol\":4886:5082  if((pool[1] != address(0)) && (platformMaintenance == address(0))){... */\n    tag_159:\n        /* \"NRTManager.sol\":5114:5115  0 */\n      0x00\n        /* \"NRTManager.sol\":5095:5116  pool[2] != address(0) */\n      0xffffffffffffffffffffffffffffffffffffffff\n      and\n        /* \"NRTManager.sol\":5095:5099  pool */\n      dup3\n        /* \"NRTManager.sol\":5100:5101  2 */\n      0x02\n        /* \"NRTManager.sol\":5095:5102  pool[2] */\n      0x09\n      dup2\n      lt\n      tag_161\n      jumpi\n      invalid\n    tag_161:\n      0x20\n      mul\n      add\n      calldataload\n      0xffffffffffffffffffffffffffffffffffffffff\n      and\n        /* \"NRTManager.sol\":5095:5116  pool[2] != address(0) */\n      0xffffffffffffffffffffffffffffffffffffffff\n      and\n      eq\n      iszero\n        /* \"NRTManager.sol\":5094:5152  (pool[2] != address(0)) && (marketingAndRNR == address(0)) */\n      dup1\n      iszero\n      tag_162\n      jumpi\n      pop\n        /* \"NRTManager.sol\":5149:5150  0 */\n      0x00\n        /* \"NRTManager.sol\":5122:5151  marketingAndRNR == address(0) */\n      0xffffffffffffffffffffffffffffffffffffffff\n      and\n        /* \"NRTManager.sol\":5122:5137  marketingAndRNR */\n      0x0a\n      0x00\n      swap1\n      sload\n      swap1\n      0x0100\n      exp\n      swap1\n      div\n      0xffffffffffffffffffffffffffffffffffffffff\n      and\n        /* \"NRTManager.sol\":5122:5151  marketingAndRNR == address(0) */\n      0xffffffffffffffffffffffffffffffffffffffff\n      and\n      eq\n        /* \"NRTManager.sol\":5094:5152  (pool[2] != address(0)) && (marketingAndRNR == address(0)) */\n    tag_162:\n        /* \"NRTManager.sol\":5091:5271  if((pool[2] != address(0)) && (marketingAndRNR == address(0))){... */\n      iszero\n      tag_163\n      jumpi\n        /* \"NRTManager.sol\":5183:5187  pool */\n      dup2\n        /* \"NRTManager.sol\":5188:5189  2 */\n      0x02\n        /* \"NRTManager.sol\":5183:5190  pool[2] */\n      0x09\n      dup2\n      lt\n      tag_164\n      jumpi\n      invalid\n    tag_164:\n      0x20\n      mul\n      add\n      calldataload\n      0xffffffffffffffffffffffffffffffffffffffff\n      and\n        /* \"NRTManager.sol\":5165:5180  marketingAndRNR */\n      0x0a\n      0x00\n        /* \"NRTManager.sol\":5165:5190  marketingAndRNR = pool[2] */\n      0x0100\n      exp\n      dup2\n      sload\n      dup2\n      0xffffffffffffffffffffffffffffffffffffffff\n      mul\n      not\n      and\n      swap1\n      dup4\n      0xffffffffffffffffffffffffffffffffffffffff\n      and\n      mul\n      or\n      swap1\n      sstore\n      pop\n        /* \"NRTManager.sol\":5207:5260  PoolAddressAdded( \"MarketingAndRNR\", marketingAndRNR) */\n      0x12fb0c5abba542bf97c53eecc4ebe59d9ba7ad563247ed305f002ada0291d60f\n        /* \"NRTManager.sol\":5244:5259  marketingAndRNR */\n      0x0a\n      0x00\n      swap1\n      sload\n      swap1\n      0x0100\n      exp\n      swap1\n      div\n      0xffffffffffffffffffffffffffffffffffffffff\n      and\n        /* \"NRTManager.sol\":5207:5260  PoolAddressAdded( \"MarketingAndRNR\", marketingAndRNR) */\n      mload(0x40)\n      dup1\n      dup1\n      0x20\n      add\n      dup4\n      0xffffffffffffffffffffffffffffffffffffffff\n      and\n      0xffffffffffffffffffffffffffffffffffffffff\n      and\n      dup2\n      mstore\n      0x20\n      add\n      dup3\n      dup2\n      sub\n      dup3\n      mstore\n      0x0f\n      dup2\n      mstore\n      0x20\n      add\n      dup1\n      0x4d61726b6574696e67416e64524e520000000000000000000000000000000000\n      dup2\n      mstore\n      pop\n      0x20\n      add\n      swap3\n      pop\n      pop\n      pop\n      mload(0x40)\n      dup1\n      swap2\n      sub\n      swap1\n      log1\n        /* \"NRTManager.sol\":5091:5271  if((pool[2] != address(0)) && (marketingAndRNR == address(0))){... */\n    tag_163:\n        /* \"NRTManager.sol\":5303:5304  0 */\n      0x00\n        /* \"NRTManager.sol\":5284:5305  pool[3] != address(0) */\n      0xffffffffffffffffffffffffffffffffffffffff\n      and\n        /* \"NRTManager.sol\":5284:5288  pool */\n      dup3\n        /* \"NRTManager.sol\":5289:5290  3 */\n      0x03\n        /* \"NRTManager.sol\":5284:5291  pool[3] */\n      0x09\n      dup2\n      lt\n      tag_165\n      jumpi\n      invalid\n    tag_165:\n      0x20\n      mul\n      add\n      calldataload\n      0xffffffffffffffffffffffffffffffffffffffff\n      and\n        /* \"NRTManager.sol\":5284:5305  pool[3] != address(0) */\n      0xffffffffffffffffffffffffffffffffffffffff\n      and\n      eq\n      iszero\n        /* \"NRTManager.sol\":5283:5333  (pool[3] != address(0)) && (kmPards == address(0)) */\n      dup1\n      iszero\n      tag_166\n      jumpi\n      pop\n        /* \"NRTManager.sol\":5330:5331  0 */\n      0x00\n        /* \"NRTManager.sol\":5311:5332  kmPards == address(0) */\n      0xffffffffffffffffffffffffffffffffffffffff\n      and\n        /* \"NRTManager.sol\":5311:5318  kmPards */\n      0x0b\n      0x00\n      swap1\n      sload\n      swap1\n      0x0100\n      exp\n      swap1\n      div\n      0xffffffffffffffffffffffffffffffffffffffff\n      and\n        /* \"NRTManager.sol\":5311:5332  kmPards == address(0) */\n      0xffffffffffffffffffffffffffffffffffffffff\n      and\n      eq\n        /* \"NRTManager.sol\":5283:5333  (pool[3] != address(0)) && (kmPards == address(0)) */\n    tag_166:\n        /* \"NRTManager.sol\":5280:5428  if((pool[3] != address(0)) && (kmPards == address(0))){... */\n      iszero\n      tag_167\n      jumpi\n        /* \"NRTManager.sol\":5356:5360  pool */\n      dup2\n        /* \"NRTManager.sol\":5361:5362  3 */\n      0x03\n        /* \"NRTManager.sol\":5356:5363  pool[3] */\n      0x09\n      dup2\n      lt\n      tag_168\n      jumpi\n      invalid\n    tag_168:\n      0x20\n      mul\n      add\n      calldataload\n      0xffffffffffffffffffffffffffffffffffffffff\n      and\n        /* \"NRTManager.sol\":5346:5353  kmPards */\n      0x0b\n      0x00\n        /* \"NRTManager.sol\":5346:5363  kmPards = pool[3] */\n      0x0100\n      exp\n      dup2\n      sload\n      dup2\n      0xffffffffffffffffffffffffffffffffffffffff\n      mul\n      not\n      and\n      swap1\n      dup4\n      0xffffffffffffffffffffffffffffffffffffffff\n      and\n      mul\n      or\n      swap1\n      sstore\n      pop\n        /* \"NRTManager.sol\":5380:5417  PoolAddressAdded( \"KmPards\", kmPards) */\n      0x12fb0c5abba542bf97c53eecc4ebe59d9ba7ad563247ed305f002ada0291d60f\n        /* \"NRTManager.sol\":5409:5416  kmPards */\n      0x0b\n      0x00\n      swap1\n      sload\n      swap1\n      0x0100\n      exp\n      swap1\n      div\n      0xffffffffffffffffffffffffffffffffffffffff\n      and\n        /* \"NRTManager.sol\":5380:5417  PoolAddressAdded( \"KmPards\", kmPards) */\n      mload(0x40)\n      dup1\n      dup1\n      0x20\n      add\n      dup4\n      0xffffffffffffffffffffffffffffffffffffffff\n      and\n      0xffffffffffffffffffffffffffffffffffffffff\n      and\n      dup2\n      mstore\n      0x20\n      add\n      dup3\n      dup2\n      sub\n      dup3\n      mstore\n      0x07\n      dup2\n      mstore\n      0x20\n      add\n      dup1\n      0x4b6d506172647300000000000000000000000000000000000000000000000000\n      dup2\n      mstore\n      pop\n      0x20\n      add\n      swap3\n      pop\n      pop\n      pop\n      mload(0x40)\n      dup1\n      swap2\n      sub\n      swap1\n      log1\n        /* \"NRTManager.sol\":5280:5428  if((pool[3] != address(0)) && (kmPards == address(0))){... */\n    tag_167:\n        /* \"NRTManager.sol\":5460:5461  0 */\n      0x00\n        /* \"NRTManager.sol\":5441:5462  pool[4] != address(0) */\n      0xffffffffffffffffffffffffffffffffffffffff\n      and\n        /* \"NRTManager.sol\":5441:5445  pool */\n      dup3\n        /* \"NRTManager.sol\":5446:5447  4 */\n      0x04\n        /* \"NRTManager.sol\":5441:5448  pool[4] */\n      0x09\n      dup2\n      lt\n      tag_169\n      jumpi\n      invalid\n    tag_169:\n      0x20\n      mul\n      add\n      calldataload\n      0xffffffffffffffffffffffffffffffffffffffff\n      and\n        /* \"NRTManager.sol\":5441:5462  pool[4] != address(0) */\n      0xffffffffffffffffffffffffffffffffffffffff\n      and\n      eq\n      iszero\n        /* \"NRTManager.sol\":5440:5499  (pool[4] != address(0)) && (contingencyFunds == address(0)) */\n      dup1\n      iszero\n      tag_170\n      jumpi\n      pop\n        /* \"NRTManager.sol\":5496:5497  0 */\n      0x00\n        /* \"NRTManager.sol\":5468:5498  contingencyFunds == address(0) */\n      0xffffffffffffffffffffffffffffffffffffffff\n      and\n        /* \"NRTManager.sol\":5468:5484  contingencyFunds */\n      0x0c\n      0x00\n      swap1\n      sload\n      swap1\n      0x0100\n      exp\n      swap1\n      div\n      0xffffffffffffffffffffffffffffffffffffffff\n      and\n        /* \"NRTManager.sol\":5468:5498  contingencyFunds == address(0) */\n      0xffffffffffffffffffffffffffffffffffffffff\n      and\n      eq\n        /* \"NRTManager.sol\":5440:5499  (pool[4] != address(0)) && (contingencyFunds == address(0)) */\n    tag_170:\n        /* \"NRTManager.sol\":5437:5621  if((pool[4] != address(0)) && (contingencyFunds == address(0))){... */\n      iszero\n      tag_171\n      jumpi\n        /* \"NRTManager.sol\":5531:5535  pool */\n      dup2\n        /* \"NRTManager.sol\":5536:5537  4 */\n      0x04\n        /* \"NRTManager.sol\":5531:5538  pool[4] */\n      0x09\n      dup2\n      lt\n      tag_172\n      jumpi\n      invalid\n    tag_172:\n      0x20\n      mul\n      add\n      calldataload\n      0xffffffffffffffffffffffffffffffffffffffff\n      and\n        /* \"NRTManager.sol\":5512:5528  contingencyFunds */\n      0x0c\n      0x00\n        /* \"NRTManager.sol\":5512:5538  contingencyFunds = pool[4] */\n      0x0100\n      exp\n      dup2\n      sload\n      dup2\n      0xffffffffffffffffffffffffffffffffffffffff\n      mul\n      not\n      and\n      swap1\n      dup4\n      0xffffffffffffffffffffffffffffffffffffffff\n      and\n      mul\n      or\n      swap1\n      sstore\n      pop\n        /* \"NRTManager.sol\":5555:5610  PoolAddressAdded( \"ContingencyFunds\", contingencyFunds) */\n      0x12fb0c5abba542bf97c53eecc4ebe59d9ba7ad563247ed305f002ada0291d60f\n        /* \"NRTManager.sol\":5593:5609  contingencyFunds */\n      0x0c\n      0x00\n      swap1\n      sload\n      swap1\n      0x0100\n      exp\n      swap1\n      div\n      0xffffffffffffffffffffffffffffffffffffffff\n      and\n        /* \"NRTManager.sol\":5555:5610  PoolAddressAdded( \"ContingencyFunds\", contingencyFunds) */\n      mload(0x40)\n      dup1\n      dup1\n      0x20\n      add\n      dup4\n      0xffffffffffffffffffffffffffffffffffffffff\n      and\n      0xffffffffffffffffffffffffffffffffffffffff\n      and\n      dup2\n      mstore\n      0x20\n      add\n      dup3\n      dup2\n      sub\n      dup3\n      mstore\n      0x10\n      dup2\n      mstore\n      0x20\n      add\n      dup1\n      0x436f6e74696e67656e637946756e647300000000000000000000000000000000\n      dup2\n      mstore\n      pop\n      0x20\n      add\n      swap3\n      pop\n      pop\n      pop\n      mload(0x40)\n      dup1\n      swap2\n      sub\n      swap1\n      log1\n        /* \"NRTManager.sol\":5437:5621  if((pool[4] != address(0)) && (contingencyFunds == address(0))){... */\n    tag_171:\n        /* \"NRTManager.sol\":5653:5654  0 */\n      0x00\n        /* \"NRTManager.sol\":5634:5655  pool[5] != address(0) */\n      0xffffffffffffffffffffffffffffffffffffffff\n      and\n        /* \"NRTManager.sol\":5634:5638  pool */\n      dup3\n        /* \"NRTManager.sol\":5639:5640  5 */\n      0x05\n        /* \"NRTManager.sol\":5634:5641  pool[5] */\n      0x09\n      dup2\n      lt\n      tag_173\n      jumpi\n      invalid\n    tag_173:\n      0x20\n      mul\n      add\n      calldataload\n      0xffffffffffffffffffffffffffffffffffffffff\n      and\n        /* \"NRTManager.sol\":5634:5655  pool[5] != address(0) */\n      0xffffffffffffffffffffffffffffffffffffffff\n      and\n      eq\n      iszero\n        /* \"NRTManager.sol\":5633:5698  (pool[5] != address(0)) && (researchAndDevelopment == address(0)) */\n      dup1\n      iszero\n      tag_174\n      jumpi\n      pop\n        /* \"NRTManager.sol\":5695:5696  0 */\n      0x00\n        /* \"NRTManager.sol\":5661:5697  researchAndDevelopment == address(0) */\n      0xffffffffffffffffffffffffffffffffffffffff\n      and\n        /* \"NRTManager.sol\":5661:5683  researchAndDevelopment */\n      0x0d\n      0x00\n      swap1\n      sload\n      swap1\n      0x0100\n      exp\n      swap1\n      div\n      0xffffffffffffffffffffffffffffffffffffffff\n      and\n        /* \"NRTManager.sol\":5661:5697  researchAndDevelopment == address(0) */\n      0xffffffffffffffffffffffffffffffffffffffff\n      and\n      eq\n        /* \"NRTManager.sol\":5633:5698  (pool[5] != address(0)) && (researchAndDevelopment == address(0)) */\n    tag_174:\n        /* \"NRTManager.sol\":5630:5838  if((pool[5] != address(0)) && (researchAndDevelopment == address(0))){... */\n      iszero\n      tag_175\n      jumpi\n        /* \"NRTManager.sol\":5736:5740  pool */\n      dup2\n        /* \"NRTManager.sol\":5741:5742  5 */\n      0x05\n        /* \"NRTManager.sol\":5736:5743  pool[5] */\n      0x09\n      dup2\n      lt\n      tag_176\n      jumpi\n      invalid\n    tag_176:\n      0x20\n      mul\n      add\n      calldataload\n      0xffffffffffffffffffffffffffffffffffffffff\n      and\n        /* \"NRTManager.sol\":5711:5733  researchAndDevelopment */\n      0x0d\n      0x00\n        /* \"NRTManager.sol\":5711:5743  researchAndDevelopment = pool[5] */\n      0x0100\n      exp\n      dup2\n      sload\n      dup2\n      0xffffffffffffffffffffffffffffffffffffffff\n      mul\n      not\n      and\n      swap1\n      dup4\n      0xffffffffffffffffffffffffffffffffffffffff\n      and\n      mul\n      or\n      swap1\n      sstore\n      pop\n        /* \"NRTManager.sol\":5760:5827  PoolAddressAdded( \"ResearchAndDevelopment\", researchAndDevelopment) */\n      0x12fb0c5abba542bf97c53eecc4ebe59d9ba7ad563247ed305f002ada0291d60f\n        /* \"NRTManager.sol\":5804:5826  researchAndDevelopment */\n      0x0d\n      0x00\n      swap1\n      sload\n      swap1\n      0x0100\n      exp\n      swap1\n      div\n      0xffffffffffffffffffffffffffffffffffffffff\n      and\n        /* \"NRTManager.sol\":5760:5827  PoolAddressAdded( \"ResearchAndDevelopment\", researchAndDevelopment) */\n      mload(0x40)\n      dup1\n      dup1\n      0x20\n      add\n      dup4\n      0xffffffffffffffffffffffffffffffffffffffff\n      and\n      0xffffffffffffffffffffffffffffffffffffffff\n      and\n      dup2\n      mstore\n      0x20\n      add\n      dup3\n      dup2\n      sub\n      dup3\n      mstore\n      0x16\n      dup2\n      mstore\n      0x20\n      add\n      dup1\n      0x5265736561726368416e64446576656c6f706d656e7400000000000000000000\n      dup2\n      mstore\n      pop\n      0x20\n      add\n      swap3\n      pop\n      pop\n      pop\n      mload(0x40)\n      dup1\n      swap2\n      sub\n      swap1\n      log1\n        /* \"NRTManager.sol\":5630:5838  if((pool[5] != address(0)) && (researchAndDevelopment == address(0))){... */\n    tag_175:\n        /* \"NRTManager.sol\":5870:5871  0 */\n      0x00\n        /* \"NRTManager.sol\":5851:5872  pool[6] != address(0) */\n      0xffffffffffffffffffffffffffffffffffffffff\n      and\n        /* \"NRTManager.sol\":5851:5855  pool */\n      dup3\n        /* \"NRTManager.sol\":5856:5857  6 */\n      0x06\n        /* \"NRTManager.sol\":5851:5858  pool[6] */\n      0x09\n      dup2\n      lt\n      tag_177\n      jumpi\n      invalid\n    tag_177:\n      0x20\n      mul\n      add\n      calldataload\n      0xffffffffffffffffffffffffffffffffffffffff\n      and\n        /* \"NRTManager.sol\":5851:5872  pool[6] != address(0) */\n      0xffffffffffffffffffffffffffffffffffffffff\n      and\n      eq\n      iszero\n        /* \"NRTManager.sol\":5850:5903  (pool[6] != address(0)) && (powerToken == address(0)) */\n      dup1\n      iszero\n      tag_178\n      jumpi\n      pop\n        /* \"NRTManager.sol\":5900:5901  0 */\n      0x00\n        /* \"NRTManager.sol\":5878:5902  powerToken == address(0) */\n      0xffffffffffffffffffffffffffffffffffffffff\n      and\n        /* \"NRTManager.sol\":5878:5888  powerToken */\n      0x0e\n      0x00\n      swap1\n      sload\n      swap1\n      0x0100\n      exp\n      swap1\n      div\n      0xffffffffffffffffffffffffffffffffffffffff\n      and\n        /* \"NRTManager.sol\":5878:5902  powerToken == address(0) */\n      0xffffffffffffffffffffffffffffffffffffffff\n      and\n      eq\n        /* \"NRTManager.sol\":5850:5903  (pool[6] != address(0)) && (powerToken == address(0)) */\n    tag_178:\n        /* \"NRTManager.sol\":5847:6007  if((pool[6] != address(0)) && (powerToken == address(0))){... */\n      iszero\n      tag_179\n      jumpi\n        /* \"NRTManager.sol\":5929:5933  pool */\n      dup2\n        /* \"NRTManager.sol\":5934:5935  6 */\n      0x06\n        /* \"NRTManager.sol\":5929:5936  pool[6] */\n      0x09\n      dup2\n      lt\n      tag_180\n      jumpi\n      invalid\n    tag_180:\n      0x20\n      mul\n      add\n      calldataload\n      0xffffffffffffffffffffffffffffffffffffffff\n      and\n        /* \"NRTManager.sol\":5916:5926  powerToken */\n      0x0e\n      0x00\n        /* \"NRTManager.sol\":5916:5936  powerToken = pool[6] */\n      0x0100\n      exp\n      dup2\n      sload\n      dup2\n      0xffffffffffffffffffffffffffffffffffffffff\n      mul\n      not\n      and\n      swap1\n      dup4\n      0xffffffffffffffffffffffffffffffffffffffff\n      and\n      mul\n      or\n      swap1\n      sstore\n      pop\n        /* \"NRTManager.sol\":5953:5996  PoolAddressAdded( \"PowerToken\", powerToken) */\n      0x12fb0c5abba542bf97c53eecc4ebe59d9ba7ad563247ed305f002ada0291d60f\n        /* \"NRTManager.sol\":5985:5995  powerToken */\n      0x0e\n      0x00\n      swap1\n      sload\n      swap1\n      0x0100\n      exp\n      swap1\n      div\n      0xffffffffffffffffffffffffffffffffffffffff\n      and\n        /* \"NRTManager.sol\":5953:5996  PoolAddressAdded( \"PowerToken\", powerToken) */\n      mload(0x40)\n      dup1\n      dup1\n      0x20\n      add\n      dup4\n      0xffffffffffffffffffffffffffffffffffffffff\n      and\n      0xffffffffffffffffffffffffffffffffffffffff\n      and\n      dup2\n      mstore\n      0x20\n      add\n      dup3\n      dup2\n      sub\n      dup3\n      mstore\n      0x0a\n      dup2\n      mstore\n      0x20\n      add\n      dup1\n      0x506f776572546f6b656e00000000000000000000000000000000000000000000\n      dup2\n      mstore\n      pop\n      0x20\n      add\n      swap3\n      pop\n      pop\n      pop\n      mload(0x40)\n      dup1\n      swap2\n      sub\n      swap1\n      log1\n        /* \"NRTManager.sol\":5847:6007  if((pool[6] != address(0)) && (powerToken == address(0))){... */\n    tag_179:\n        /* \"NRTManager.sol\":6039:6040  0 */\n      0x00\n        /* \"NRTManager.sol\":6020:6041  pool[7] != address(0) */\n      0xffffffffffffffffffffffffffffffffffffffff\n      and\n        /* \"NRTManager.sol\":6020:6024  pool */\n      dup3\n        /* \"NRTManager.sol\":6025:6026  7 */\n      0x07\n        /* \"NRTManager.sol\":6020:6027  pool[7] */\n      0x09\n      dup2\n      lt\n      tag_181\n      jumpi\n      invalid\n    tag_181:\n      0x20\n      mul\n      add\n      calldataload\n      0xffffffffffffffffffffffffffffffffffffffff\n      and\n        /* \"NRTManager.sol\":6020:6041  pool[7] != address(0) */\n      0xffffffffffffffffffffffffffffffffffffffff\n      and\n      eq\n      iszero\n        /* \"NRTManager.sol\":6019:6074  (pool[7] != address(0)) && (timeSwappers == address(0)) */\n      dup1\n      iszero\n      tag_182\n      jumpi\n      pop\n        /* \"NRTManager.sol\":6071:6072  0 */\n      0x00\n        /* \"NRTManager.sol\":6047:6073  timeSwappers == address(0) */\n      0xffffffffffffffffffffffffffffffffffffffff\n      and\n        /* \"NRTManager.sol\":6047:6059  timeSwappers */\n      0x0f\n      0x00\n      swap1\n      sload\n      swap1\n      0x0100\n      exp\n      swap1\n      div\n      0xffffffffffffffffffffffffffffffffffffffff\n      and\n        /* \"NRTManager.sol\":6047:6073  timeSwappers == address(0) */\n      0xffffffffffffffffffffffffffffffffffffffff\n      and\n      eq\n        /* \"NRTManager.sol\":6019:6074  (pool[7] != address(0)) && (timeSwappers == address(0)) */\n    tag_182:\n        /* \"NRTManager.sol\":6016:6183  if((pool[7] != address(0)) && (timeSwappers == address(0))){... */\n      iszero\n      tag_183\n      jumpi\n        /* \"NRTManager.sol\":6102:6106  pool */\n      dup2\n        /* \"NRTManager.sol\":6107:6108  7 */\n      0x07\n        /* \"NRTManager.sol\":6102:6109  pool[7] */\n      0x09\n      dup2\n      lt\n      tag_184\n      jumpi\n      invalid\n    tag_184:\n      0x20\n      mul\n      add\n      calldataload\n      0xffffffffffffffffffffffffffffffffffffffff\n      and\n        /* \"NRTManager.sol\":6087:6099  timeSwappers */\n      0x0f\n      0x00\n        /* \"NRTManager.sol\":6087:6109  timeSwappers = pool[7] */\n      0x0100\n      exp\n      dup2\n      sload\n      dup2\n      0xffffffffffffffffffffffffffffffffffffffff\n      mul\n      not\n      and\n      swap1\n      dup4\n      0xffffffffffffffffffffffffffffffffffffffff\n      and\n      mul\n      or\n      swap1\n      sstore\n      pop\n        /* \"NRTManager.sol\":6126:6172  PoolAddressAdded( \"TimeSwapper\", timeSwappers) */\n      0x12fb0c5abba542bf97c53eecc4ebe59d9ba7ad563247ed305f002ada0291d60f\n        /* \"NRTManager.sol\":6159:6171  timeSwappers */\n      0x0f\n      0x00\n      swap1\n      sload\n      swap1\n      0x0100\n      exp\n      swap1\n      div\n      0xffffffffffffffffffffffffffffffffffffffff\n      and\n        /* \"NRTManager.sol\":6126:6172  PoolAddressAdded( \"TimeSwapper\", timeSwappers) */\n      mload(0x40)\n      dup1\n      dup1\n      0x20\n      add\n      dup4\n      0xffffffffffffffffffffffffffffffffffffffff\n      and\n      0xffffffffffffffffffffffffffffffffffffffff\n      and\n      dup2\n      mstore\n      0x20\n      add\n      dup3\n      dup2\n      sub\n      dup3\n      mstore\n      0x0b\n      dup2\n      mstore\n      0x20\n      add\n      dup1\n      0x54696d6553776170706572000000000000000000000000000000000000000000\n      dup2\n      mstore\n      pop\n      0x20\n      add\n      swap3\n      pop\n      pop\n      pop\n      mload(0x40)\n      dup1\n      swap2\n      sub\n      swap1\n      log1\n        /* \"NRTManager.sol\":6016:6183  if((pool[7] != address(0)) && (timeSwappers == address(0))){... */\n    tag_183:\n        /* \"NRTManager.sol\":6215:6216  0 */\n      0x00\n        /* \"NRTManager.sol\":6196:6217  pool[8] != address(0) */\n      0xffffffffffffffffffffffffffffffffffffffff\n      and\n        /* \"NRTManager.sol\":6196:6200  pool */\n      dup3\n        /* \"NRTManager.sol\":6201:6202  8 */\n      0x08\n        /* \"NRTManager.sol\":6196:6203  pool[8] */\n      0x09\n      dup2\n      lt\n      tag_185\n      jumpi\n      invalid\n    tag_185:\n      0x20\n      mul\n      add\n      calldataload\n      0xffffffffffffffffffffffffffffffffffffffff\n      and\n        /* \"NRTManager.sol\":6196:6217  pool[8] != address(0) */\n      0xffffffffffffffffffffffffffffffffffffffff\n      and\n      eq\n      iszero\n        /* \"NRTManager.sol\":6195:6246  (pool[8] != address(0)) && (timeAlly == address(0)) */\n      dup1\n      iszero\n      tag_186\n      jumpi\n      pop\n        /* \"NRTManager.sol\":6243:6244  0 */\n      0x00\n        /* \"NRTManager.sol\":6223:6245  timeAlly == address(0) */\n      0xffffffffffffffffffffffffffffffffffffffff\n      and\n        /* \"NRTManager.sol\":6223:6231  timeAlly */\n      0x10\n      0x00\n      swap1\n      sload\n      swap1\n      0x0100\n      exp\n      swap1\n      div\n      0xffffffffffffffffffffffffffffffffffffffff\n      and\n        /* \"NRTManager.sol\":6223:6245  timeAlly == address(0) */\n      0xffffffffffffffffffffffffffffffffffffffff\n      and\n      eq\n        /* \"NRTManager.sol\":6195:6246  (pool[8] != address(0)) && (timeAlly == address(0)) */\n    tag_186:\n        /* \"NRTManager.sol\":6192:6344  if((pool[8] != address(0)) && (timeAlly == address(0))){... */\n      iszero\n      tag_187\n      jumpi\n        /* \"NRTManager.sol\":6270:6274  pool */\n      dup2\n        /* \"NRTManager.sol\":6275:6276  8 */\n      0x08\n        /* \"NRTManager.sol\":6270:6277  pool[8] */\n      0x09\n      dup2\n      lt\n      tag_188\n      jumpi\n      invalid\n    tag_188:\n      0x20\n      mul\n      add\n      calldataload\n      0xffffffffffffffffffffffffffffffffffffffff\n      and\n        /* \"NRTManager.sol\":6259:6267  timeAlly */\n      0x10\n      0x00\n        /* \"NRTManager.sol\":6259:6277  timeAlly = pool[8] */\n      0x0100\n      exp\n      dup2\n      sload\n      dup2\n      0xffffffffffffffffffffffffffffffffffffffff\n      mul\n      not\n      and\n      swap1\n      dup4\n      0xffffffffffffffffffffffffffffffffffffffff\n      and\n      mul\n      or\n      swap1\n      sstore\n      pop\n        /* \"NRTManager.sol\":6294:6333  PoolAddressAdded( \"TimeAlly\", timeAlly) */\n      0x12fb0c5abba542bf97c53eecc4ebe59d9ba7ad563247ed305f002ada0291d60f\n        /* \"NRTManager.sol\":6324:6332  timeAlly */\n      0x10\n      0x00\n      swap1\n      sload\n      swap1\n      0x0100\n      exp\n      swap1\n      div\n      0xffffffffffffffffffffffffffffffffffffffff\n      and\n        /* \"NRTManager.sol\":6294:6333  PoolAddressAdded( \"TimeAlly\", timeAlly) */\n      mload(0x40)\n      dup1\n      dup1\n      0x20\n      add\n      dup4\n      0xffffffffffffffffffffffffffffffffffffffff\n      and\n      0xffffffffffffffffffffffffffffffffffffffff\n      and\n      dup2\n      mstore\n      0x20\n      add\n      dup3\n      dup2\n      sub\n      dup3\n      mstore\n      0x08\n      dup2\n      mstore\n      0x20\n      add\n      dup1\n      0x54696d65416c6c79000000000000000000000000000000000000000000000000\n      dup2\n      mstore\n      pop\n      0x20\n      add\n      swap3\n      pop\n      pop\n      pop\n      mload(0x40)\n      dup1\n      swap2\n      sub\n      swap1\n      log1\n        /* \"NRTManager.sol\":6192:6344  if((pool[8] != address(0)) && (timeAlly == address(0))){... */\n    tag_187:\n        /* \"NRTManager.sol\":6361:6365  true */\n      0x01\n        /* \"NRTManager.sol\":6354:6365  return true */\n      swap1\n      pop\n        /* \"NRTManager.sol\":4561:6374  function UpdateAddresses (address[9] calldata pool) external OnlyOwner  returns(bool){... */\n      swap2\n      swap1\n      pop\n      jump\t// out\n        /* \"NRTManager.sol\":1447:1480  uint256 public marketingAndRNRBal */\n    tag_94:\n      sload(0x13)\n      dup2\n      jump\t// out\n        /* \"NRTManager.sol\":1239:1282  uint256 public newTalentsAndPartnershipsBal */\n    tag_96:\n      sload(0x11)\n      dup2\n      jump\t// out\n        /* \"SafeMath.sol\":1439:1584  function add(uint256 a, uint256 b) internal pure returns (uint256) {... */\n    tag_102:\n        /* \"SafeMath.sol\":1497:1504  uint256 */\n      0x00\n        /* \"SafeMath.sol\":1516:1525  uint256 c */\n      dup1\n        /* \"SafeMath.sol\":1532:1533  b */\n      dup3\n        /* \"SafeMath.sol\":1528:1529  a */\n      dup5\n        /* \"SafeMath.sol\":1528:1533  a + b */\n      add\n        /* \"SafeMath.sol\":1516:1533  uint256 c = a + b */\n      swap1\n      pop\n        /* \"SafeMath.sol\":1556:1557  a */\n      dup4\n        /* \"SafeMath.sol\":1551:1552  c */\n      dup2\n        /* \"SafeMath.sol\":1551:1557  c >= a */\n      lt\n      iszero\n        /* \"SafeMath.sol\":1543:1558  require(c >= a) */\n      tag_190\n      jumpi\n      0x00\n      dup1\n      revert\n    tag_190:\n        /* \"SafeMath.sol\":1576:1577  c */\n      dup1\n        /* \"SafeMath.sol\":1569:1577  return c */\n      swap2\n      pop\n      pop\n        /* \"SafeMath.sol\":1439:1584  function add(uint256 a, uint256 b) internal pure returns (uint256) {... */\n      swap3\n      swap2\n      pop\n      pop\n      jump\t// out\n        /* \"SafeMath.sol\":1211:1356  function sub(uint256 a, uint256 b) internal pure returns (uint256) {... */\n    tag_113:\n        /* \"SafeMath.sol\":1269:1276  uint256 */\n      0x00\n        /* \"SafeMath.sol\":1301:1302  a */\n      dup3\n        /* \"SafeMath.sol\":1296:1297  b */\n      dup3\n        /* \"SafeMath.sol\":1296:1302  b <= a */\n      gt\n      iszero\n        /* \"SafeMath.sol\":1288:1303  require(b <= a) */\n      tag_192\n      jumpi\n      0x00\n      dup1\n      revert\n    tag_192:\n        /* \"SafeMath.sol\":1313:1322  uint256 c */\n      0x00\n        /* \"SafeMath.sol\":1329:1330  b */\n      dup3\n        /* \"SafeMath.sol\":1325:1326  a */\n      dup5\n        /* \"SafeMath.sol\":1325:1330  a - b */\n      sub\n        /* \"SafeMath.sol\":1313:1330  uint256 c = a - b */\n      swap1\n      pop\n        /* \"SafeMath.sol\":1348:1349  c */\n      dup1\n        /* \"SafeMath.sol\":1341:1349  return c */\n      swap2\n      pop\n      pop\n        /* \"SafeMath.sol\":1211:1356  function sub(uint256 a, uint256 b) internal pure returns (uint256) {... */\n      swap3\n      swap2\n      pop\n      pop\n      jump\t// out\n        /* \"SafeMath.sol\":231:652  function mul(uint256 a, uint256 b) internal pure returns (uint256) {... */\n    tag_118:\n        /* \"SafeMath.sol\":289:296  uint256 */\n      0x00\n        /* \"SafeMath.sol\":534:535  0 */\n      dup1\n        /* \"SafeMath.sol\":529:530  a */\n      dup4\n        /* \"SafeMath.sol\":529:535  a == 0 */\n      eq\n        /* \"SafeMath.sol\":525:570  if (a == 0) {... */\n      iszero\n      tag_194\n      jumpi\n        /* \"SafeMath.sol\":558:559  0 */\n      0x00\n        /* \"SafeMath.sol\":551:559  return 0 */\n      swap1\n      pop\n      jump(tag_193)\n        /* \"SafeMath.sol\":525:570  if (a == 0) {... */\n    tag_194:\n        /* \"SafeMath.sol\":580:589  uint256 c */\n      0x00\n        /* \"SafeMath.sol\":596:597  b */\n      dup3\n        /* \"SafeMath.sol\":592:593  a */\n      dup5\n        /* \"SafeMath.sol\":592:597  a * b */\n      mul\n        /* \"SafeMath.sol\":580:597  uint256 c = a * b */\n      swap1\n      pop\n        /* \"SafeMath.sol\":624:625  b */\n      dup3\n        /* \"SafeMath.sol\":619:620  a */\n      dup5\n        /* \"SafeMath.sol\":615:616  c */\n      dup3\n        /* \"SafeMath.sol\":615:620  c / a */\n      dup2\n      tag_195\n      jumpi\n      invalid\n    tag_195:\n      div\n        /* \"SafeMath.sol\":615:625  c / a == b */\n      eq\n        /* \"SafeMath.sol\":607:626  require(c / a == b) */\n      tag_196\n      jumpi\n      0x00\n      dup1\n      revert\n    tag_196:\n        /* \"SafeMath.sol\":644:645  c */\n      dup1\n        /* \"SafeMath.sol\":637:645  return c */\n      swap2\n      pop\n      pop\n        /* \"SafeMath.sol\":231:652  function mul(uint256 a, uint256 b) internal pure returns (uint256) {... */\n    tag_193:\n      swap3\n      swap2\n      pop\n      pop\n      jump\t// out\n        /* \"SafeMath.sol\":782:1078  function div(uint256 a, uint256 b) internal pure returns (uint256) {... */\n    tag_119:\n        /* \"SafeMath.sol\":840:847  uint256 */\n      0x00\n        /* \"SafeMath.sol\":937:938  0 */\n      dup1\n        /* \"SafeMath.sol\":933:934  b */\n      dup3\n        /* \"SafeMath.sol\":933:938  b > 0 */\n      gt\n        /* \"SafeMath.sol\":925:939  require(b > 0) */\n      tag_198\n      jumpi\n      0x00\n      dup1\n      revert\n    tag_198:\n        /* \"SafeMath.sol\":949:958  uint256 c */\n      0x00\n        /* \"SafeMath.sol\":965:966  b */\n      dup3\n        /* \"SafeMath.sol\":961:962  a */\n      dup5\n        /* \"SafeMath.sol\":961:966  a / b */\n      dup2\n      tag_199\n      jumpi\n      invalid\n    tag_199:\n      div\n        /* \"SafeMath.sol\":949:966  uint256 c = a / b */\n      swap1\n      pop\n        /* \"SafeMath.sol\":1070:1071  c */\n      dup1\n        /* \"SafeMath.sol\":1063:1071  return c */\n      swap2\n      pop\n      pop\n        /* \"SafeMath.sol\":782:1078  function div(uint256 a, uint256 b) internal pure returns (uint256) {... */\n      swap3\n      swap2\n      pop\n      pop\n      jump\t// out\n        /* \"NRTManager.sol\":3811:4330  function burnTokens() internal returns (bool){... */\n    tag_143:\n        /* \"NRTManager.sol\":3851:3855  bool */\n      0x00\n        /* \"NRTManager.sol\":3885:3886  0 */\n      dup1\n        /* \"NRTManager.sol\":3869:3881  burnTokenBal */\n      sload(0x05)\n        /* \"NRTManager.sol\":3869:3886  burnTokenBal == 0 */\n      eq\n        /* \"NRTManager.sol\":3866:4322  if(burnTokenBal == 0){... */\n      iszero\n      tag_201\n      jumpi\n        /* \"NRTManager.sol\":3906:3910  true */\n      0x01\n        /* \"NRTManager.sol\":3899:3910  return true */\n      swap1\n      pop\n      jump(tag_200)\n        /* \"NRTManager.sol\":3866:4322  if(burnTokenBal == 0){... */\n    tag_201:\n        /* \"NRTManager.sol\":3946:3960  uint MaxAmount */\n      0x00\n        /* \"NRTManager.sol\":3963:4002  ((token.totalSupply()).mul(2)).div(100) */\n      tag_203\n        /* \"NRTManager.sol\":3998:4001  100 */\n      0x64\n        /* \"NRTManager.sol\":3964:3992  (token.totalSupply()).mul(2) */\n      tag_204\n        /* \"NRTManager.sol\":3990:3991  2 */\n      0x02\n        /* \"NRTManager.sol\":3965:3970  token */\n      0x06\n      0x00\n      swap1\n      sload\n      swap1\n      0x0100\n      exp\n      swap1\n      div\n      0xffffffffffffffffffffffffffffffffffffffff\n      and\n        /* \"NRTManager.sol\":3965:3982  token.totalSupply */\n      0xffffffffffffffffffffffffffffffffffffffff\n      and\n      0x18160ddd\n        /* \"NRTManager.sol\":3965:3984  token.totalSupply() */\n      mload(0x40)\n      dup2\n      0xffffffff\n      and\n      0xe0\n      shl\n      dup2\n      mstore\n      0x04\n      add\n      0x20\n      mload(0x40)\n      dup1\n      dup4\n      sub\n      dup2\n      dup7\n      dup1\n      extcodesize\n      iszero\n        /* \"--CODEGEN--\":8:17   */\n      dup1\n        /* \"--CODEGEN--\":5:7   */\n      iszero\n      tag_205\n      jumpi\n        /* \"--CODEGEN--\":30:31   */\n      0x00\n        /* \"--CODEGEN--\":27:28   */\n      dup1\n        /* \"--CODEGEN--\":20:32   */\n      revert\n        /* \"--CODEGEN--\":5:7   */\n    tag_205:\n        /* \"NRTManager.sol\":3965:3984  token.totalSupply() */\n      pop\n      gas\n      staticcall\n      iszero\n        /* \"--CODEGEN--\":8:17   */\n      dup1\n        /* \"--CODEGEN--\":5:7   */\n      iszero\n      tag_206\n      jumpi\n        /* \"--CODEGEN--\":45:61   */\n      returndatasize\n        /* \"--CODEGEN--\":42:43   */\n      0x00\n        /* \"--CODEGEN--\":39:40   */\n      dup1\n        /* \"--CODEGEN--\":24:62   */\n      returndatacopy\n        /* \"--CODEGEN--\":77:93   */\n      returndatasize\n        /* \"--CODEGEN--\":74:75   */\n      0x00\n        /* \"--CODEGEN--\":67:94   */\n      revert\n        /* \"--CODEGEN--\":5:7   */\n    tag_206:\n        /* \"NRTManager.sol\":3965:3984  token.totalSupply() */\n      pop\n      pop\n      pop\n      pop\n      mload(0x40)\n      returndatasize\n        /* \"--CODEGEN--\":13:15   */\n      0x20\n        /* \"--CODEGEN--\":8:11   */\n      dup2\n        /* \"--CODEGEN--\":5:16   */\n      lt\n        /* \"--CODEGEN--\":2:4   */\n      iszero\n      tag_207\n      jumpi\n        /* \"--CODEGEN--\":29:30   */\n      0x00\n        /* \"--CODEGEN--\":26:27   */\n      dup1\n        /* \"--CODEGEN--\":19:31   */\n      revert\n        /* \"--CODEGEN--\":2:4   */\n    tag_207:\n        /* \"NRTManager.sol\":3965:3984  token.totalSupply() */\n      dup2\n      add\n      swap1\n      dup1\n      dup1\n      mload\n      swap1\n      0x20\n      add\n      swap1\n      swap3\n      swap2\n      swap1\n      pop\n      pop\n      pop\n        /* \"NRTManager.sol\":3964:3989  (token.totalSupply()).mul */\n      tag_118\n      swap1\n        /* \"NRTManager.sol\":3964:3992  (token.totalSupply()).mul(2) */\n      swap2\n      swap1\n      0xffffffff\n      and\n      jump\t// in\n    tag_204:\n        /* \"NRTManager.sol\":3963:3997  ((token.totalSupply()).mul(2)).div */\n      tag_119\n      swap1\n        /* \"NRTManager.sol\":3963:4002  ((token.totalSupply()).mul(2)).div(100) */\n      swap2\n      swap1\n      0xffffffff\n      and\n      jump\t// in\n    tag_203:\n        /* \"NRTManager.sol\":3946:4002  uint MaxAmount = ((token.totalSupply()).mul(2)).div(100) */\n      swap1\n      pop\n        /* \"NRTManager.sol\":4075:4087  burnTokenBal */\n      sload(0x05)\n        /* \"NRTManager.sol\":4062:4071  MaxAmount */\n      dup2\n        /* \"NRTManager.sol\":4062:4087  MaxAmount >= burnTokenBal */\n      lt\n        /* \"NRTManager.sol\":4059:4289  if(MaxAmount >= burnTokenBal ){... */\n      tag_208\n      jumpi\n        /* \"NRTManager.sol\":4103:4108  token */\n      0x06\n      0x00\n      swap1\n      sload\n      swap1\n      0x0100\n      exp\n      swap1\n      div\n      0xffffffffffffffffffffffffffffffffffffffff\n      and\n        /* \"NRTManager.sol\":4103:4113  token.burn */\n      0xffffffffffffffffffffffffffffffffffffffff\n      and\n      0x42966c68\n        /* \"NRTManager.sol\":4114:4126  burnTokenBal */\n      sload(0x05)\n        /* \"NRTManager.sol\":4103:4127  token.burn(burnTokenBal) */\n      mload(0x40)\n      dup3\n      0xffffffff\n      and\n      0xe0\n      shl\n      dup2\n      mstore\n      0x04\n      add\n      dup1\n      dup3\n      dup2\n      mstore\n      0x20\n      add\n      swap2\n      pop\n      pop\n      0x00\n      mload(0x40)\n      dup1\n      dup4\n      sub\n      dup2\n      0x00\n      dup8\n      dup1\n      extcodesize\n      iszero\n        /* \"--CODEGEN--\":8:17   */\n      dup1\n        /* \"--CODEGEN--\":5:7   */\n      iszero\n      tag_209\n      jumpi\n        /* \"--CODEGEN--\":30:31   */\n      0x00\n        /* \"--CODEGEN--\":27:28   */\n      dup1\n        /* \"--CODEGEN--\":20:32   */\n      revert\n        /* \"--CODEGEN--\":5:7   */\n    tag_209:\n        /* \"NRTManager.sol\":4103:4127  token.burn(burnTokenBal) */\n      pop\n      gas\n      call\n      iszero\n        /* \"--CODEGEN--\":8:17   */\n      dup1\n        /* \"--CODEGEN--\":5:7   */\n      iszero\n      tag_210\n      jumpi\n        /* \"--CODEGEN--\":45:61   */\n      returndatasize\n        /* \"--CODEGEN--\":42:43   */\n      0x00\n        /* \"--CODEGEN--\":39:40   */\n      dup1\n        /* \"--CODEGEN--\":24:62   */\n      returndatacopy\n        /* \"--CODEGEN--\":77:93   */\n      returndatasize\n        /* \"--CODEGEN--\":74:75   */\n      0x00\n        /* \"--CODEGEN--\":67:94   */\n      revert\n        /* \"--CODEGEN--\":5:7   */\n    tag_210:\n        /* \"NRTManager.sol\":4103:4127  token.burn(burnTokenBal) */\n      pop\n      pop\n      pop\n      pop\n        /* \"NRTManager.sol\":4156:4157  0 */\n      0x00\n        /* \"NRTManager.sol\":4141:4153  burnTokenBal */\n      0x05\n        /* \"NRTManager.sol\":4141:4157  burnTokenBal = 0 */\n      dup2\n      swap1\n      sstore\n      pop\n        /* \"NRTManager.sol\":4059:4289  if(MaxAmount >= burnTokenBal ){... */\n      jump(tag_211)\n    tag_208:\n        /* \"NRTManager.sol\":4214:4241  burnTokenBal.sub(MaxAmount) */\n      tag_212\n        /* \"NRTManager.sol\":4231:4240  MaxAmount */\n      dup2\n        /* \"NRTManager.sol\":4214:4226  burnTokenBal */\n      sload(0x05)\n        /* \"NRTManager.sol\":4214:4230  burnTokenBal.sub */\n      tag_113\n      swap1\n        /* \"NRTManager.sol\":4214:4241  burnTokenBal.sub(MaxAmount) */\n      swap2\n      swap1\n      0xffffffff\n      and\n      jump\t// in\n    tag_212:\n        /* \"NRTManager.sol\":4199:4211  burnTokenBal */\n      0x05\n        /* \"NRTManager.sol\":4199:4241  burnTokenBal = burnTokenBal.sub(MaxAmount) */\n      dup2\n      swap1\n      sstore\n      pop\n        /* \"NRTManager.sol\":4255:4260  token */\n      0x06\n      0x00\n      swap1\n      sload\n      swap1\n      0x0100\n      exp\n      swap1\n      div\n      0xffffffffffffffffffffffffffffffffffffffff\n      and\n        /* \"NRTManager.sol\":4255:4265  token.burn */\n      0xffffffffffffffffffffffffffffffffffffffff\n      and\n      0x42966c68\n        /* \"NRTManager.sol\":4266:4275  MaxAmount */\n      dup3\n        /* \"NRTManager.sol\":4255:4276  token.burn(MaxAmount) */\n      mload(0x40)\n      dup3\n      0xffffffff\n      and\n      0xe0\n      shl\n      dup2\n      mstore\n      0x04\n      add\n      dup1\n      dup3\n      dup2\n      mstore\n      0x20\n      add\n      swap2\n      pop\n      pop\n      0x00\n      mload(0x40)\n      dup1\n      dup4\n      sub\n      dup2\n      0x00\n      dup8\n      dup1\n      extcodesize\n      iszero\n        /* \"--CODEGEN--\":8:17   */\n      dup1\n        /* \"--CODEGEN--\":5:7   */\n      iszero\n      tag_213\n      jumpi\n        /* \"--CODEGEN--\":30:31   */\n      0x00\n        /* \"--CODEGEN--\":27:28   */\n      dup1\n        /* \"--CODEGEN--\":20:32   */\n      revert\n        /* \"--CODEGEN--\":5:7   */\n    tag_213:\n        /* \"NRTManager.sol\":4255:4276  token.burn(MaxAmount) */\n      pop\n      gas\n      call\n      iszero\n        /* \"--CODEGEN--\":8:17   */\n      dup1\n        /* \"--CODEGEN--\":5:7   */\n      iszero\n      tag_214\n      jumpi\n        /* \"--CODEGEN--\":45:61   */\n      returndatasize\n        /* \"--CODEGEN--\":42:43   */\n      0x00\n        /* \"--CODEGEN--\":39:40   */\n      dup1\n        /* \"--CODEGEN--\":24:62   */\n      returndatacopy\n        /* \"--CODEGEN--\":77:93   */\n      returndatasize\n        /* \"--CODEGEN--\":74:75   */\n      0x00\n        /* \"--CODEGEN--\":67:94   */\n      revert\n        /* \"--CODEGEN--\":5:7   */\n    tag_214:\n        /* \"NRTManager.sol\":4255:4276  token.burn(MaxAmount) */\n      pop\n      pop\n      pop\n      pop\n        /* \"NRTManager.sol\":4059:4289  if(MaxAmount >= burnTokenBal ){... */\n    tag_211:\n        /* \"NRTManager.sol\":4307:4311  true */\n      0x01\n        /* \"NRTManager.sol\":4300:4311  return true */\n      swap2\n      pop\n      pop\n        /* \"NRTManager.sol\":3811:4330  function burnTokens() internal returns (bool){... */\n    tag_200:\n      swap1\n      jump\t// out\n    stop\n    data_75b80d254974e234aa097720f74460cadd2b76f17d7eb2120a344a75769d98ab 4f6e6c792054696d65416c6c7920616e642054696d657377617070657220697320617574686f7269736564\n    data_f2be0bdc1b11a94fc4e1a8a1916cd2e21b6687cb60899d8c2cd7a367527e7b93 4e52542072656c656173652068617070656e73206f6e6365206576657279206d6f6e7468\n\n    auxdata: 0xa265627a7a72305820b4fe0dc77b684385fddb2087cbcd95fb1fdaf5ed023522c326e30ed2de4f7e9864736f6c634300050a0032\n}\n","bytecode":{"linkReferences":{},"object":"60806040523480156200001157600080fd5b506040516200281b3803806200281b833981810160405260208110156200003757600080fd5b810190808051906020019092919050505080600660006101000a81548173ffffffffffffffffffffffffffffffffffffffff021916908373ffffffffffffffffffffffffffffffffffffffff160217905550426000819055506b02a575fef6999c3a13000000600281905550620000c0600c6002546200011660201b620023ea1790919060201c565b600181905550600060038190555033600760006101000a81548173ffffffffffffffffffffffffffffffffffffffff021916908373ffffffffffffffffffffffffffffffffffffffff160217905550506200013e565b60008082116200012557600080fd5b60008284816200013157fe5b0490508091505092915050565b6126cd806200014e6000396000f3fe608060405234801561001057600080fd5b50600436106101c45760003560e01c8063682667a9116100f9578063b018abbd11610097578063c3348a8b11610071578063c3348a8b14610679578063cb358efa14610697578063d37eb950146106df578063e71a3bfd146106fd576101c4565b8063b018abbd1461061b578063bd27d3611461063d578063bfb3d6c81461065b576101c4565b80637b8c0b79116100d35780637b8c0b791461054b5780637d53257a146105695780639662ac58146105875780639cd417de146105d1576101c4565b8063682667a9146104c55780636db42ca51461050f578063797d123c1461052d576101c4565b806341aaa9b6116101665780635c12278d116101405780635c12278d146103f55780635f7ce89f1461043f5780636037d2a31461045d57806365c004701461047b576101c4565b806341aaa9b6146103475780634a4581aa1461038d57806351bd70b1146103ab576101c4565b80632cfceb07116101a25780632cfceb071461027b578063382e2aab146102995780633a18a9fd146102df5780633e04f4f914610329576101c4565b80630b3e29b8146101c95780630d4e57a41461021357806326b3bf2f14610231575b600080fd5b6101d161071b565b604051808273ffffffffffffffffffffffffffffffffffffffff1673ffffffffffffffffffffffffffffffffffffffff16815260200191505060405180910390f35b61021b610741565b6040518082815260200191505060405180910390f35b610239610747565b604051808273ffffffffffffffffffffffffffffffffffffffff1673ffffffffffffffffffffffffffffffffffffffff16815260200191505060405180910390f35b61028361076d565b6040518082815260200191505060405180910390f35b6102c5600480360360208110156102af57600080fd5b8101908080359060200190929190505050610773565b604051808215151515815260200191505060405180910390f35b6102e76108d0565b604051808273ffffffffffffffffffffffffffffffffffffffff1673ffffffffffffffffffffffffffffffffffffffff16815260200191505060405180910390f35b6103316108f6565b6040518082815260200191505060405180910390f35b6103736004803603602081101561035d57600080fd5b81019080803590602001909291905050506108fc565b604051808215151515815260200191505060405180910390f35b610395610a59565b6040518082815260200191505060405180910390f35b6103b3610a5f565b604051808273ffffffffffffffffffffffffffffffffffffffff1673ffffffffffffffffffffffffffffffffffffffff16815260200191505060405180910390f35b6103fd610a85565b604051808273ffffffffffffffffffffffffffffffffffffffff1673ffffffffffffffffffffffffffffffffffffffff16815260200191505060405180910390f35b610447610aab565b6040518082815260200191505060405180910390f35b610465610ab1565b6040518082815260200191505060405180910390f35b610483610ab7565b604051808273ffffffffffffffffffffffffffffffffffffffff1673ffffffffffffffffffffffffffffffffffffffff16815260200191505060405180910390f35b6104cd610add565b604051808273ffffffffffffffffffffffffffffffffffffffff1673ffffffffffffffffffffffffffffffffffffffff16815260200191505060405180910390f35b610517610b03565b6040518082815260200191505060405180910390f35b610535610b09565b6040518082815260200191505060405180910390f35b610553610b0f565b6040518082815260200191505060405180910390f35b610571610b15565b6040518082815260200191505060405180910390f35b61058f610b1b565b604051808273ffffffffffffffffffffffffffffffffffffffff1673ffffffffffffffffffffffffffffffffffffffff16815260200191505060405180910390f35b6105d9610b41565b604051808273ffffffffffffffffffffffffffffffffffffffff1673ffffffffffffffffffffffffffffffffffffffff16815260200191505060405180910390f35b610623610b67565b604051808215151515815260200191505060405180910390f35b6106456111b7565b6040518082815260200191505060405180910390f35b6106636111bd565b6040518082815260200191505060405180910390f35b6106816111c3565b6040518082815260200191505060405180910390f35b6106c560048036036101208110156106ae57600080fd5b8101908080610120019091929192905050506111c9565b604051808215151515815260200191505060405180910390f35b6106e7612365565b6040518082815260200191505060405180910390f35b61070561236b565b6040518082815260200191505060405180910390f35b600c60009054906101000a900473ffffffffffffffffffffffffffffffffffffffff1681565b60035481565b600860009054906101000a900473ffffffffffffffffffffffffffffffffffffffff1681565b60145481565b6000601060009054906101000a900473ffffffffffffffffffffffffffffffffffffffff1673ffffffffffffffffffffffffffffffffffffffff163373ffffffffffffffffffffffffffffffffffffffff16148061081e5750600f60009054906101000a900473ffffffffffffffffffffffffffffffffffffffff1673ffffffffffffffffffffffffffffffffffffffff163373ffffffffffffffffffffffffffffffffffffffff16145b610873576040517f08c379a000000000000000000000000000000000000000000000000000000000815260040180806020018281038252602b81526020018061264a602b913960400191505060405180910390fd5b6108888260045461237190919063ffffffff16565b6004819055507fc9c58ca254a2bde8ce607d1f5211f98c28c52efcea5216a867ea933b95efc31f6004546040518082815260200191505060405180910390a160019050919050565b600960009054906101000a900473ffffffffffffffffffffffffffffffffffffffff1681565b60185481565b6000601060009054906101000a900473ffffffffffffffffffffffffffffffffffffffff1673ffffffffffffffffffffffffffffffffffffffff163373ffffffffffffffffffffffffffffffffffffffff1614806109a75750600f60009054906101000a900473ffffffffffffffffffffffffffffffffffffffff1673ffffffffffffffffffffffffffffffffffffffff163373ffffffffffffffffffffffffffffffffffffffff16145b6109fc576040517f08c379a000000000000000000000000000000000000000000000000000000000815260040180806020018281038252602b81526020018061264a602b913960400191505060405180910390fd5b610a118260055461237190919063ffffffff16565b6005819055507f8f740eb8352e99b7242ce9c7cec021ee8b28b4acef603ff1260fe8b722822fec6005546040518082815260200191505060405180910390a160019050919050565b60055481565b600a60009054906101000a900473ffffffffffffffffffffffffffffffffffffffff1681565b600d60009054906101000a900473ffffffffffffffffffffffffffffffffffffffff1681565b60155481565b60015481565b600b60009054906101000a900473ffffffffffffffffffffffffffffffffffffffff1681565b601060009054906101000a900473ffffffffffffffffffffffffffffffffffffffff1681565b60175481565b60005481565b60025481565b60165481565b600e60009054906101000a900473ffffffffffffffffffffffffffffffffffffffff1681565b600f60009054906101000a900473ffffffffffffffffffffffffffffffffffffffff1681565b600062278d00610c24600054600660009054906101000a900473ffffffffffffffffffffffffffffffffffffffff1673ffffffffffffffffffffffffffffffffffffffff1663b81f90f36040518163ffffffff1660e01b815260040160206040518083038186803b158015610bdb57600080fd5b505afa158015610bef573d6000803e3d6000fd5b505050506040513d6020811015610c0557600080fd5b810190808051906020019092919050505061239090919063ffffffff16565b11610c7a576040517f08c379a00000000000000000000000000000000000000000000000000000000081526004018080602001828103825260248152602001806126756024913960400191505060405180910390fd5b6000610c9360045460015461237190919063ffffffff16565b9050610cbc6064610cae6005846123b090919063ffffffff16565b6123ea90919063ffffffff16565b601181905550610ce96064610cdb600a846123b090919063ffffffff16565b6123ea90919063ffffffff16565b601281905550610d166064610d08600a846123b090919063ffffffff16565b6123ea90919063ffffffff16565b601381905550610d436064610d35600a846123b090919063ffffffff16565b6123ea90919063ffffffff16565b601481905550610d706064610d62600a846123b090919063ffffffff16565b6123ea90919063ffffffff16565b601581905550610d9d6064610d8f6005846123b090919063ffffffff16565b6123ea90919063ffffffff16565b601681905550610dca6064610dbc600a846123b090919063ffffffff16565b6123ea90919063ffffffff16565b601781905550610df76064610de9600f846123b090919063ffffffff16565b6123ea90919063ffffffff16565b601881905550610e246064610e166019846123b090919063ffffffff16565b6123ea90919063ffffffff16565b601981905550600660009054906101000a900473ffffffffffffffffffffffffffffffffffffffff1673ffffffffffffffffffffffffffffffffffffffff166340c10f19601060009054906101000a900473ffffffffffffffffffffffffffffffffffffffff166018546040518363ffffffff1660e01b8152600401808373ffffffffffffffffffffffffffffffffffffffff1673ffffffffffffffffffffffffffffffffffffffff16815260200182815260200192505050602060405180830381600087803b158015610ef757600080fd5b505af1158015610f0b573d6000803e3d6000fd5b505050506040513d6020811015610f2157600080fd5b8101908080519060200190929190505050506000601060009054906101000a900473ffffffffffffffffffffffffffffffffffffffff1690508073ffffffffffffffffffffffffffffffffffffffff1663e78c81c46018546040518263ffffffff1660e01b815260040180828152602001915050600060405180830381600087803b158015610faf57600080fd5b505af1158015610fc3573d6000803e3d6000fd5b505050507f8470ec6072093abfec912969ee9fd5273eed1d3202eac51a1fd83c236ee9bea8601060009054906101000a900473ffffffffffffffffffffffffffffffffffffffff1660185460405180806020018473ffffffffffffffffffffffffffffffffffffffff1673ffffffffffffffffffffffffffffffffffffffff1681526020018381526020018281038252600f8152602001807f7374616b696e67436f6e74726163740000000000000000000000000000000000815250602001935050505060405180910390a17f31a2c82874744c38fa6d0d7bacb6ff098de6c1ecc98899f39f5b9ea32108765b826040518082815260200191505060405180910390a160006004819055506110e662278d0060005461237190919063ffffffff16565b6000819055506110f4612410565b507f6ef4855b666dcc7884561072e4358b28dfe01feb1b7f4dcebc00e62d50394ac76005546040518082815260200191505060405180910390a1600b600354141561119157600060038190555061116a606461115c605a6002546123b090919063ffffffff16565b6123ea90919063ffffffff16565b600281905550611186600c6002546123ea90919063ffffffff16565b6001819055506111ae565b6111a7600160035461237190919063ffffffff16565b6003819055505b60019250505090565b60125481565b60195481565b60045481565b6000600760009054906101000a900473ffffffffffffffffffffffffffffffffffffffff1673ffffffffffffffffffffffffffffffffffffffff163373ffffffffffffffffffffffffffffffffffffffff161461128e576040517f08c379a00000000000000000000000000000000000000000000000000000000081526004018080602001828103825260188152602001807f4f6e6c79204f776e657220697320617574686f7269736564000000000000000081525060200191505060405180910390fd5b600073ffffffffffffffffffffffffffffffffffffffff16826000600981106112b357fe5b602002013573ffffffffffffffffffffffffffffffffffffffff1673ffffffffffffffffffffffffffffffffffffffff16141580156113405750600073ffffffffffffffffffffffffffffffffffffffff16600860009054906101000a900473ffffffffffffffffffffffffffffffffffffffff1673ffffffffffffffffffffffffffffffffffffffff16145b1561146c578160006009811061135257fe5b602002013573ffffffffffffffffffffffffffffffffffffffff16600860006101000a81548173ffffffffffffffffffffffffffffffffffffffff021916908373ffffffffffffffffffffffffffffffffffffffff1602179055507f12fb0c5abba542bf97c53eecc4ebe59d9ba7ad563247ed305f002ada0291d60f600860009054906101000a900473ffffffffffffffffffffffffffffffffffffffff1660405180806020018373ffffffffffffffffffffffffffffffffffffffff1673ffffffffffffffffffffffffffffffffffffffff168152602001828103825260198152602001807f4e657754616c656e7473416e64506172746e65727368697073000000000000008152506020019250505060405180910390a15b600073ffffffffffffffffffffffffffffffffffffffff168260016009811061149157fe5b602002013573ffffffffffffffffffffffffffffffffffffffff1673ffffffffffffffffffffffffffffffffffffffff161415801561151e5750600073ffffffffffffffffffffffffffffffffffffffff16600960009054906101000a900473ffffffffffffffffffffffffffffffffffffffff1673ffffffffffffffffffffffffffffffffffffffff16145b1561164a578160016009811061153057fe5b602002013573ffffffffffffffffffffffffffffffffffffffff16600960006101000a81548173ffffffffffffffffffffffffffffffffffffffff021916908373ffffffffffffffffffffffffffffffffffffffff1602179055507f12fb0c5abba542bf97c53eecc4ebe59d9ba7ad563247ed305f002ada0291d60f600960009054906101000a900473ffffffffffffffffffffffffffffffffffffffff1660405180806020018373ffffffffffffffffffffffffffffffffffffffff1673ffffffffffffffffffffffffffffffffffffffff168152602001828103825260138152602001807f506c6174666f726d4d61696e74656e616e6365000000000000000000000000008152506020019250505060405180910390a15b600073ffffffffffffffffffffffffffffffffffffffff168260026009811061166f57fe5b602002013573ffffffffffffffffffffffffffffffffffffffff1673ffffffffffffffffffffffffffffffffffffffff16141580156116fc5750600073ffffffffffffffffffffffffffffffffffffffff16600a60009054906101000a900473ffffffffffffffffffffffffffffffffffffffff1673ffffffffffffffffffffffffffffffffffffffff16145b15611828578160026009811061170e57fe5b602002013573ffffffffffffffffffffffffffffffffffffffff16600a60006101000a81548173ffffffffffffffffffffffffffffffffffffffff021916908373ffffffffffffffffffffffffffffffffffffffff1602179055507f12fb0c5abba542bf97c53eecc4ebe59d9ba7ad563247ed305f002ada0291d60f600a60009054906101000a900473ffffffffffffffffffffffffffffffffffffffff1660405180806020018373ffffffffffffffffffffffffffffffffffffffff1673ffffffffffffffffffffffffffffffffffffffff1681526020018281038252600f8152602001807f4d61726b6574696e67416e64524e5200000000000000000000000000000000008152506020019250505060405180910390a15b600073ffffffffffffffffffffffffffffffffffffffff168260036009811061184d57fe5b602002013573ffffffffffffffffffffffffffffffffffffffff1673ffffffffffffffffffffffffffffffffffffffff16141580156118da5750600073ffffffffffffffffffffffffffffffffffffffff16600b60009054906101000a900473ffffffffffffffffffffffffffffffffffffffff1673ffffffffffffffffffffffffffffffffffffffff16145b15611a0657816003600981106118ec57fe5b602002013573ffffffffffffffffffffffffffffffffffffffff16600b60006101000a81548173ffffffffffffffffffffffffffffffffffffffff021916908373ffffffffffffffffffffffffffffffffffffffff1602179055507f12fb0c5abba542bf97c53eecc4ebe59d9ba7ad563247ed305f002ada0291d60f600b60009054906101000a900473ffffffffffffffffffffffffffffffffffffffff1660405180806020018373ffffffffffffffffffffffffffffffffffffffff1673ffffffffffffffffffffffffffffffffffffffff168152602001828103825260078152602001807f4b6d5061726473000000000000000000000000000000000000000000000000008152506020019250505060405180910390a15b600073ffffffffffffffffffffffffffffffffffffffff1682600460098110611a2b57fe5b602002013573ffffffffffffffffffffffffffffffffffffffff1673ffffffffffffffffffffffffffffffffffffffff1614158015611ab85750600073ffffffffffffffffffffffffffffffffffffffff16600c60009054906101000a900473ffffffffffffffffffffffffffffffffffffffff1673ffffffffffffffffffffffffffffffffffffffff16145b15611be45781600460098110611aca57fe5b602002013573ffffffffffffffffffffffffffffffffffffffff16600c60006101000a81548173ffffffffffffffffffffffffffffffffffffffff021916908373ffffffffffffffffffffffffffffffffffffffff1602179055507f12fb0c5abba542bf97c53eecc4ebe59d9ba7ad563247ed305f002ada0291d60f600c60009054906101000a900473ffffffffffffffffffffffffffffffffffffffff1660405180806020018373ffffffffffffffffffffffffffffffffffffffff1673ffffffffffffffffffffffffffffffffffffffff168152602001828103825260108152602001807f436f6e74696e67656e637946756e6473000000000000000000000000000000008152506020019250505060405180910390a15b600073ffffffffffffffffffffffffffffffffffffffff1682600560098110611c0957fe5b602002013573ffffffffffffffffffffffffffffffffffffffff1673ffffffffffffffffffffffffffffffffffffffff1614158015611c965750600073ffffffffffffffffffffffffffffffffffffffff16600d60009054906101000a900473ffffffffffffffffffffffffffffffffffffffff1673ffffffffffffffffffffffffffffffffffffffff16145b15611dc25781600560098110611ca857fe5b602002013573ffffffffffffffffffffffffffffffffffffffff16600d60006101000a81548173ffffffffffffffffffffffffffffffffffffffff021916908373ffffffffffffffffffffffffffffffffffffffff1602179055507f12fb0c5abba542bf97c53eecc4ebe59d9ba7ad563247ed305f002ada0291d60f600d60009054906101000a900473ffffffffffffffffffffffffffffffffffffffff1660405180806020018373ffffffffffffffffffffffffffffffffffffffff1673ffffffffffffffffffffffffffffffffffffffff168152602001828103825260168152602001807f5265736561726368416e64446576656c6f706d656e74000000000000000000008152506020019250505060405180910390a15b600073ffffffffffffffffffffffffffffffffffffffff1682600660098110611de757fe5b602002013573ffffffffffffffffffffffffffffffffffffffff1673ffffffffffffffffffffffffffffffffffffffff1614158015611e745750600073ffffffffffffffffffffffffffffffffffffffff16600e60009054906101000a900473ffffffffffffffffffffffffffffffffffffffff1673ffffffffffffffffffffffffffffffffffffffff16145b15611fa05781600660098110611e8657fe5b602002013573ffffffffffffffffffffffffffffffffffffffff16600e60006101000a81548173ffffffffffffffffffffffffffffffffffffffff021916908373ffffffffffffffffffffffffffffffffffffffff1602179055507f12fb0c5abba542bf97c53eecc4ebe59d9ba7ad563247ed305f002ada0291d60f600e60009054906101000a900473ffffffffffffffffffffffffffffffffffffffff1660405180806020018373ffffffffffffffffffffffffffffffffffffffff1673ffffffffffffffffffffffffffffffffffffffff1681526020018281038252600a8152602001807f506f776572546f6b656e000000000000000000000000000000000000000000008152506020019250505060405180910390a15b600073ffffffffffffffffffffffffffffffffffffffff1682600760098110611fc557fe5b602002013573ffffffffffffffffffffffffffffffffffffffff1673ffffffffffffffffffffffffffffffffffffffff16141580156120525750600073ffffffffffffffffffffffffffffffffffffffff16600f60009054906101000a900473ffffffffffffffffffffffffffffffffffffffff1673ffffffffffffffffffffffffffffffffffffffff16145b1561217e578160076009811061206457fe5b602002013573ffffffffffffffffffffffffffffffffffffffff16600f60006101000a81548173ffffffffffffffffffffffffffffffffffffffff021916908373ffffffffffffffffffffffffffffffffffffffff1602179055507f12fb0c5abba542bf97c53eecc4ebe59d9ba7ad563247ed305f002ada0291d60f600f60009054906101000a900473ffffffffffffffffffffffffffffffffffffffff1660405180806020018373ffffffffffffffffffffffffffffffffffffffff1673ffffffffffffffffffffffffffffffffffffffff1681526020018281038252600b8152602001807f54696d65537761707065720000000000000000000000000000000000000000008152506020019250505060405180910390a15b600073ffffffffffffffffffffffffffffffffffffffff16826008600981106121a357fe5b602002013573ffffffffffffffffffffffffffffffffffffffff1673ffffffffffffffffffffffffffffffffffffffff16141580156122305750600073ffffffffffffffffffffffffffffffffffffffff16601060009054906101000a900473ffffffffffffffffffffffffffffffffffffffff1673ffffffffffffffffffffffffffffffffffffffff16145b1561235c578160086009811061224257fe5b602002013573ffffffffffffffffffffffffffffffffffffffff16601060006101000a81548173ffffffffffffffffffffffffffffffffffffffff021916908373ffffffffffffffffffffffffffffffffffffffff1602179055507f12fb0c5abba542bf97c53eecc4ebe59d9ba7ad563247ed305f002ada0291d60f601060009054906101000a900473ffffffffffffffffffffffffffffffffffffffff1660405180806020018373ffffffffffffffffffffffffffffffffffffffff1673ffffffffffffffffffffffffffffffffffffffff168152602001828103825260088152602001807f54696d65416c6c790000000000000000000000000000000000000000000000008152506020019250505060405180910390a15b60019050919050565b60135481565b60115481565b60008082840190508381101561238657600080fd5b8091505092915050565b60008282111561239f57600080fd5b600082840390508091505092915050565b6000808314156123c357600090506123e4565b60008284029050828482816123d457fe5b04146123df57600080fd5b809150505b92915050565b60008082116123f857600080fd5b600082848161240357fe5b0490508091505092915050565b60008060055414156124255760019050612646565b60006124f060646124e26002600660009054906101000a900473ffffffffffffffffffffffffffffffffffffffff1673ffffffffffffffffffffffffffffffffffffffff166318160ddd6040518163ffffffff1660e01b815260040160206040518083038186803b15801561249957600080fd5b505afa1580156124ad573d6000803e3d6000fd5b505050506040513d60208110156124c357600080fd5b81019080805190602001909291905050506123b090919063ffffffff16565b6123ea90919063ffffffff16565b9050600554811061259757600660009054906101000a900473ffffffffffffffffffffffffffffffffffffffff1673ffffffffffffffffffffffffffffffffffffffff166342966c686005546040518263ffffffff1660e01b815260040180828152602001915050600060405180830381600087803b15801561257257600080fd5b505af1158015612586573d6000803e3d6000fd5b505050506000600581905550612640565b6125ac8160055461239090919063ffffffff16565b600581905550600660009054906101000a900473ffffffffffffffffffffffffffffffffffffffff1673ffffffffffffffffffffffffffffffffffffffff166342966c68826040518263ffffffff1660e01b815260040180828152602001915050600060405180830381600087803b15801561262757600080fd5b505af115801561263b573d6000803e3d6000fd5b505050505b60019150505b9056fe4f6e6c792054696d65416c6c7920616e642054696d657377617070657220697320617574686f72697365644e52542072656c656173652068617070656e73206f6e6365206576657279206d6f6e7468a265627a7a72305820b4fe0dc77b684385fddb2087cbcd95fb1fdaf5ed023522c326e30ed2de4f7e9864736f6c634300050a0032","opcodes":"PUSH1 0x80 PUSH1 0x40 MSTORE CALLVALUE DUP1 ISZERO PUSH3 0x11 JUMPI PUSH1 0x0 DUP1 REVERT JUMPDEST POP PUSH1 0x40 MLOAD PUSH3 0x281B CODESIZE SUB DUP1 PUSH3 0x281B DUP4 CODECOPY DUP2 DUP2 ADD PUSH1 0x40 MSTORE PUSH1 0x20 DUP2 LT ISZERO PUSH3 0x37 JUMPI PUSH1 0x0 DUP1 REVERT JUMPDEST DUP2 ADD SWAP1 DUP1 DUP1 MLOAD SWAP1 PUSH1 0x20 ADD SWAP1 SWAP3 SWAP2 SWAP1 POP POP POP DUP1 PUSH1 0x6 PUSH1 0x0 PUSH2 0x100 EXP DUP2 SLOAD DUP2 PUSH20 0xFFFFFFFFFFFFFFFFFFFFFFFFFFFFFFFFFFFFFFFF MUL NOT AND SWAP1 DUP4 PUSH20 0xFFFFFFFFFFFFFFFFFFFFFFFFFFFFFFFFFFFFFFFF AND MUL OR SWAP1 SSTORE POP TIMESTAMP PUSH1 0x0 DUP2 SWAP1 SSTORE POP PUSH12 0x2A575FEF6999C3A13000000 PUSH1 0x2 DUP2 SWAP1 SSTORE POP PUSH3 0xC0 PUSH1 0xC PUSH1 0x2 SLOAD PUSH3 0x116 PUSH1 0x20 SHL PUSH3 0x23EA OR SWAP1 SWAP2 SWAP1 PUSH1 0x20 SHR JUMP JUMPDEST PUSH1 0x1 DUP2 SWAP1 SSTORE POP PUSH1 0x0 PUSH1 0x3 DUP2 SWAP1 SSTORE POP CALLER PUSH1 0x7 PUSH1 0x0 PUSH2 0x100 EXP DUP2 SLOAD DUP2 PUSH20 0xFFFFFFFFFFFFFFFFFFFFFFFFFFFFFFFFFFFFFFFF MUL NOT AND SWAP1 DUP4 PUSH20 0xFFFFFFFFFFFFFFFFFFFFFFFFFFFFFFFFFFFFFFFF AND MUL OR SWAP1 SSTORE POP POP PUSH3 0x13E JUMP JUMPDEST PUSH1 0x0 DUP1 DUP3 GT PUSH3 0x125 JUMPI PUSH1 0x0 DUP1 REVERT JUMPDEST PUSH1 0x0 DUP3 DUP5 DUP2 PUSH3 0x131 JUMPI INVALID JUMPDEST DIV SWAP1 POP DUP1 SWAP2 POP POP SWAP3 SWAP2 POP POP JUMP JUMPDEST PUSH2 0x26CD DUP1 PUSH3 0x14E PUSH1 0x0 CODECOPY PUSH1 0x0 RETURN INVALID PUSH1 0x80 PUSH1 0x40 MSTORE CALLVALUE DUP1 ISZERO PUSH2 0x10 JUMPI PUSH1 0x0 DUP1 REVERT JUMPDEST POP PUSH1 0x4 CALLDATASIZE LT PUSH2 0x1C4 JUMPI PUSH1 0x0 CALLDATALOAD PUSH1 0xE0 SHR DUP1 PUSH4 0x682667A9 GT PUSH2 0xF9 JUMPI DUP1 PUSH4 0xB018ABBD GT PUSH2 0x97 JUMPI DUP1 PUSH4 0xC3348A8B GT PUSH2 0x71 JUMPI DUP1 PUSH4 0xC3348A8B EQ PUSH2 0x679 JUMPI DUP1 PUSH4 0xCB358EFA EQ PUSH2 0x697 JUMPI DUP1 PUSH4 0xD37EB950 EQ PUSH2 0x6DF JUMPI DUP1 PUSH4 0xE71A3BFD EQ PUSH2 0x6FD JUMPI PUSH2 0x1C4 JUMP JUMPDEST DUP1 PUSH4 0xB018ABBD EQ PUSH2 0x61B JUMPI DUP1 PUSH4 0xBD27D361 EQ PUSH2 0x63D JUMPI DUP1 PUSH4 0xBFB3D6C8 EQ PUSH2 0x65B JUMPI PUSH2 0x1C4 JUMP JUMPDEST DUP1 PUSH4 0x7B8C0B79 GT PUSH2 0xD3 JUMPI DUP1 PUSH4 0x7B8C0B79 EQ PUSH2 0x54B JUMPI DUP1 PUSH4 0x7D53257A EQ PUSH2 0x569 JUMPI DUP1 PUSH4 0x9662AC58 EQ PUSH2 0x587 JUMPI DUP1 PUSH4 0x9CD417DE EQ PUSH2 0x5D1 JUMPI PUSH2 0x1C4 JUMP JUMPDEST DUP1 PUSH4 0x682667A9 EQ PUSH2 0x4C5 JUMPI DUP1 PUSH4 0x6DB42CA5 EQ PUSH2 0x50F JUMPI DUP1 PUSH4 0x797D123C EQ PUSH2 0x52D JUMPI PUSH2 0x1C4 JUMP JUMPDEST DUP1 PUSH4 0x41AAA9B6 GT PUSH2 0x166 JUMPI DUP1 PUSH4 0x5C12278D GT PUSH2 0x140 JUMPI DUP1 PUSH4 0x5C12278D EQ PUSH2 0x3F5 JUMPI DUP1 PUSH4 0x5F7CE89F EQ PUSH2 0x43F JUMPI DUP1 PUSH4 0x6037D2A3 EQ PUSH2 0x45D JUMPI DUP1 PUSH4 0x65C00470 EQ PUSH2 0x47B JUMPI PUSH2 0x1C4 JUMP JUMPDEST DUP1 PUSH4 0x41AAA9B6 EQ PUSH2 0x347 JUMPI DUP1 PUSH4 0x4A4581AA EQ PUSH2 0x38D JUMPI DUP1 PUSH4 0x51BD70B1 EQ PUSH2 0x3AB JUMPI PUSH2 0x1C4 JUMP JUMPDEST DUP1 PUSH4 0x2CFCEB07 GT PUSH2 0x1A2 JUMPI DUP1 PUSH4 0x2CFCEB07 EQ PUSH2 0x27B JUMPI DUP1 PUSH4 0x382E2AAB EQ PUSH2 0x299 JUMPI DUP1 PUSH4 0x3A18A9FD EQ PUSH2 0x2DF JUMPI DUP1 PUSH4 0x3E04F4F9 EQ PUSH2 0x329 JUMPI PUSH2 0x1C4 JUMP JUMPDEST DUP1 PUSH4 0xB3E29B8 EQ PUSH2 0x1C9 JUMPI DUP1 PUSH4 0xD4E57A4 EQ PUSH2 0x213 JUMPI DUP1 PUSH4 0x26B3BF2F EQ PUSH2 0x231 JUMPI JUMPDEST PUSH1 0x0 DUP1 REVERT JUMPDEST PUSH2 0x1D1 PUSH2 0x71B JUMP JUMPDEST PUSH1 0x40 MLOAD DUP1 DUP3 PUSH20 0xFFFFFFFFFFFFFFFFFFFFFFFFFFFFFFFFFFFFFFFF AND PUSH20 0xFFFFFFFFFFFFFFFFFFFFFFFFFFFFFFFFFFFFFFFF AND DUP2 MSTORE PUSH1 0x20 ADD SWAP2 POP POP PUSH1 0x40 MLOAD DUP1 SWAP2 SUB SWAP1 RETURN JUMPDEST PUSH2 0x21B PUSH2 0x741 JUMP JUMPDEST PUSH1 0x40 MLOAD DUP1 DUP3 DUP2 MSTORE PUSH1 0x20 ADD SWAP2 POP POP PUSH1 0x40 MLOAD DUP1 SWAP2 SUB SWAP1 RETURN JUMPDEST PUSH2 0x239 PUSH2 0x747 JUMP JUMPDEST PUSH1 0x40 MLOAD DUP1 DUP3 PUSH20 0xFFFFFFFFFFFFFFFFFFFFFFFFFFFFFFFFFFFFFFFF AND PUSH20 0xFFFFFFFFFFFFFFFFFFFFFFFFFFFFFFFFFFFFFFFF AND DUP2 MSTORE PUSH1 0x20 ADD SWAP2 POP POP PUSH1 0x40 MLOAD DUP1 SWAP2 SUB SWAP1 RETURN JUMPDEST PUSH2 0x283 PUSH2 0x76D JUMP JUMPDEST PUSH1 0x40 MLOAD DUP1 DUP3 DUP2 MSTORE PUSH1 0x20 ADD SWAP2 POP POP PUSH1 0x40 MLOAD DUP1 SWAP2 SUB SWAP1 RETURN JUMPDEST PUSH2 0x2C5 PUSH1 0x4 DUP1 CALLDATASIZE SUB PUSH1 0x20 DUP2 LT ISZERO PUSH2 0x2AF JUMPI PUSH1 0x0 DUP1 REVERT JUMPDEST DUP2 ADD SWAP1 DUP1 DUP1 CALLDATALOAD SWAP1 PUSH1 0x20 ADD SWAP1 SWAP3 SWAP2 SWAP1 POP POP POP PUSH2 0x773 JUMP JUMPDEST PUSH1 0x40 MLOAD DUP1 DUP3 ISZERO ISZERO ISZERO ISZERO DUP2 MSTORE PUSH1 0x20 ADD SWAP2 POP POP PUSH1 0x40 MLOAD DUP1 SWAP2 SUB SWAP1 RETURN JUMPDEST PUSH2 0x2E7 PUSH2 0x8D0 JUMP JUMPDEST PUSH1 0x40 MLOAD DUP1 DUP3 PUSH20 0xFFFFFFFFFFFFFFFFFFFFFFFFFFFFFFFFFFFFFFFF AND PUSH20 0xFFFFFFFFFFFFFFFFFFFFFFFFFFFFFFFFFFFFFFFF AND DUP2 MSTORE PUSH1 0x20 ADD SWAP2 POP POP PUSH1 0x40 MLOAD DUP1 SWAP2 SUB SWAP1 RETURN JUMPDEST PUSH2 0x331 PUSH2 0x8F6 JUMP JUMPDEST PUSH1 0x40 MLOAD DUP1 DUP3 DUP2 MSTORE PUSH1 0x20 ADD SWAP2 POP POP PUSH1 0x40 MLOAD DUP1 SWAP2 SUB SWAP1 RETURN JUMPDEST PUSH2 0x373 PUSH1 0x4 DUP1 CALLDATASIZE SUB PUSH1 0x20 DUP2 LT ISZERO PUSH2 0x35D JUMPI PUSH1 0x0 DUP1 REVERT JUMPDEST DUP2 ADD SWAP1 DUP1 DUP1 CALLDATALOAD SWAP1 PUSH1 0x20 ADD SWAP1 SWAP3 SWAP2 SWAP1 POP POP POP PUSH2 0x8FC JUMP JUMPDEST PUSH1 0x40 MLOAD DUP1 DUP3 ISZERO ISZERO ISZERO ISZERO DUP2 MSTORE PUSH1 0x20 ADD SWAP2 POP POP PUSH1 0x40 MLOAD DUP1 SWAP2 SUB SWAP1 RETURN JUMPDEST PUSH2 0x395 PUSH2 0xA59 JUMP JUMPDEST PUSH1 0x40 MLOAD DUP1 DUP3 DUP2 MSTORE PUSH1 0x20 ADD SWAP2 POP POP PUSH1 0x40 MLOAD DUP1 SWAP2 SUB SWAP1 RETURN JUMPDEST PUSH2 0x3B3 PUSH2 0xA5F JUMP JUMPDEST PUSH1 0x40 MLOAD DUP1 DUP3 PUSH20 0xFFFFFFFFFFFFFFFFFFFFFFFFFFFFFFFFFFFFFFFF AND PUSH20 0xFFFFFFFFFFFFFFFFFFFFFFFFFFFFFFFFFFFFFFFF AND DUP2 MSTORE PUSH1 0x20 ADD SWAP2 POP POP PUSH1 0x40 MLOAD DUP1 SWAP2 SUB SWAP1 RETURN JUMPDEST PUSH2 0x3FD PUSH2 0xA85 JUMP JUMPDEST PUSH1 0x40 MLOAD DUP1 DUP3 PUSH20 0xFFFFFFFFFFFFFFFFFFFFFFFFFFFFFFFFFFFFFFFF AND PUSH20 0xFFFFFFFFFFFFFFFFFFFFFFFFFFFFFFFFFFFFFFFF AND DUP2 MSTORE PUSH1 0x20 ADD SWAP2 POP POP PUSH1 0x40 MLOAD DUP1 SWAP2 SUB SWAP1 RETURN JUMPDEST PUSH2 0x447 PUSH2 0xAAB JUMP JUMPDEST PUSH1 0x40 MLOAD DUP1 DUP3 DUP2 MSTORE PUSH1 0x20 ADD SWAP2 POP POP PUSH1 0x40 MLOAD DUP1 SWAP2 SUB SWAP1 RETURN JUMPDEST PUSH2 0x465 PUSH2 0xAB1 JUMP JUMPDEST PUSH1 0x40 MLOAD DUP1 DUP3 DUP2 MSTORE PUSH1 0x20 ADD SWAP2 POP POP PUSH1 0x40 MLOAD DUP1 SWAP2 SUB SWAP1 RETURN JUMPDEST PUSH2 0x483 PUSH2 0xAB7 JUMP JUMPDEST PUSH1 0x40 MLOAD DUP1 DUP3 PUSH20 0xFFFFFFFFFFFFFFFFFFFFFFFFFFFFFFFFFFFFFFFF AND PUSH20 0xFFFFFFFFFFFFFFFFFFFFFFFFFFFFFFFFFFFFFFFF AND DUP2 MSTORE PUSH1 0x20 ADD SWAP2 POP POP PUSH1 0x40 MLOAD DUP1 SWAP2 SUB SWAP1 RETURN JUMPDEST PUSH2 0x4CD PUSH2 0xADD JUMP JUMPDEST PUSH1 0x40 MLOAD DUP1 DUP3 PUSH20 0xFFFFFFFFFFFFFFFFFFFFFFFFFFFFFFFFFFFFFFFF AND PUSH20 0xFFFFFFFFFFFFFFFFFFFFFFFFFFFFFFFFFFFFFFFF AND DUP2 MSTORE PUSH1 0x20 ADD SWAP2 POP POP PUSH1 0x40 MLOAD DUP1 SWAP2 SUB SWAP1 RETURN JUMPDEST PUSH2 0x517 PUSH2 0xB03 JUMP JUMPDEST PUSH1 0x40 MLOAD DUP1 DUP3 DUP2 MSTORE PUSH1 0x20 ADD SWAP2 POP POP PUSH1 0x40 MLOAD DUP1 SWAP2 SUB SWAP1 RETURN JUMPDEST PUSH2 0x535 PUSH2 0xB09 JUMP JUMPDEST PUSH1 0x40 MLOAD DUP1 DUP3 DUP2 MSTORE PUSH1 0x20 ADD SWAP2 POP POP PUSH1 0x40 MLOAD DUP1 SWAP2 SUB SWAP1 RETURN JUMPDEST PUSH2 0x553 PUSH2 0xB0F JUMP JUMPDEST PUSH1 0x40 MLOAD DUP1 DUP3 DUP2 MSTORE PUSH1 0x20 ADD SWAP2 POP POP PUSH1 0x40 MLOAD DUP1 SWAP2 SUB SWAP1 RETURN JUMPDEST PUSH2 0x571 PUSH2 0xB15 JUMP JUMPDEST PUSH1 0x40 MLOAD DUP1 DUP3 DUP2 MSTORE PUSH1 0x20 ADD SWAP2 POP POP PUSH1 0x40 MLOAD DUP1 SWAP2 SUB SWAP1 RETURN JUMPDEST PUSH2 0x58F PUSH2 0xB1B JUMP JUMPDEST PUSH1 0x40 MLOAD DUP1 DUP3 PUSH20 0xFFFFFFFFFFFFFFFFFFFFFFFFFFFFFFFFFFFFFFFF AND PUSH20 0xFFFFFFFFFFFFFFFFFFFFFFFFFFFFFFFFFFFFFFFF AND DUP2 MSTORE PUSH1 0x20 ADD SWAP2 POP POP PUSH1 0x40 MLOAD DUP1 SWAP2 SUB SWAP1 RETURN JUMPDEST PUSH2 0x5D9 PUSH2 0xB41 JUMP JUMPDEST PUSH1 0x40 MLOAD DUP1 DUP3 PUSH20 0xFFFFFFFFFFFFFFFFFFFFFFFFFFFFFFFFFFFFFFFF AND PUSH20 0xFFFFFFFFFFFFFFFFFFFFFFFFFFFFFFFFFFFFFFFF AND DUP2 MSTORE PUSH1 0x20 ADD SWAP2 POP POP PUSH1 0x40 MLOAD DUP1 SWAP2 SUB SWAP1 RETURN JUMPDEST PUSH2 0x623 PUSH2 0xB67 JUMP JUMPDEST PUSH1 0x40 MLOAD DUP1 DUP3 ISZERO ISZERO ISZERO ISZERO DUP2 MSTORE PUSH1 0x20 ADD SWAP2 POP POP PUSH1 0x40 MLOAD DUP1 SWAP2 SUB SWAP1 RETURN JUMPDEST PUSH2 0x645 PUSH2 0x11B7 JUMP JUMPDEST PUSH1 0x40 MLOAD DUP1 DUP3 DUP2 MSTORE PUSH1 0x20 ADD SWAP2 POP POP PUSH1 0x40 MLOAD DUP1 SWAP2 SUB SWAP1 RETURN JUMPDEST PUSH2 0x663 PUSH2 0x11BD JUMP JUMPDEST PUSH1 0x40 MLOAD DUP1 DUP3 DUP2 MSTORE PUSH1 0x20 ADD SWAP2 POP POP PUSH1 0x40 MLOAD DUP1 SWAP2 SUB SWAP1 RETURN JUMPDEST PUSH2 0x681 PUSH2 0x11C3 JUMP JUMPDEST PUSH1 0x40 MLOAD DUP1 DUP3 DUP2 MSTORE PUSH1 0x20 ADD SWAP2 POP POP PUSH1 0x40 MLOAD DUP1 SWAP2 SUB SWAP1 RETURN JUMPDEST PUSH2 0x6C5 PUSH1 0x4 DUP1 CALLDATASIZE SUB PUSH2 0x120 DUP2 LT ISZERO PUSH2 0x6AE JUMPI PUSH1 0x0 DUP1 REVERT JUMPDEST DUP2 ADD SWAP1 DUP1 DUP1 PUSH2 0x120 ADD SWAP1 SWAP2 SWAP3 SWAP2 SWAP3 SWAP1 POP POP POP PUSH2 0x11C9 JUMP JUMPDEST PUSH1 0x40 MLOAD DUP1 DUP3 ISZERO ISZERO ISZERO ISZERO DUP2 MSTORE PUSH1 0x20 ADD SWAP2 POP POP PUSH1 0x40 MLOAD DUP1 SWAP2 SUB SWAP1 RETURN JUMPDEST PUSH2 0x6E7 PUSH2 0x2365 JUMP JUMPDEST PUSH1 0x40 MLOAD DUP1 DUP3 DUP2 MSTORE PUSH1 0x20 ADD SWAP2 POP POP PUSH1 0x40 MLOAD DUP1 SWAP2 SUB SWAP1 RETURN JUMPDEST PUSH2 0x705 PUSH2 0x236B JUMP JUMPDEST PUSH1 0x40 MLOAD DUP1 DUP3 DUP2 MSTORE PUSH1 0x20 ADD SWAP2 POP POP PUSH1 0x40 MLOAD DUP1 SWAP2 SUB SWAP1 RETURN JUMPDEST PUSH1 0xC PUSH1 0x0 SWAP1 SLOAD SWAP1 PUSH2 0x100 EXP SWAP1 DIV PUSH20 0xFFFFFFFFFFFFFFFFFFFFFFFFFFFFFFFFFFFFFFFF AND DUP2 JUMP JUMPDEST PUSH1 0x3 SLOAD DUP2 JUMP JUMPDEST PUSH1 0x8 PUSH1 0x0 SWAP1 SLOAD SWAP1 PUSH2 0x100 EXP SWAP1 DIV PUSH20 0xFFFFFFFFFFFFFFFFFFFFFFFFFFFFFFFFFFFFFFFF AND DUP2 JUMP JUMPDEST PUSH1 0x14 SLOAD DUP2 JUMP JUMPDEST PUSH1 0x0 PUSH1 0x10 PUSH1 0x0 SWAP1 SLOAD SWAP1 PUSH2 0x100 EXP SWAP1 DIV PUSH20 0xFFFFFFFFFFFFFFFFFFFFFFFFFFFFFFFFFFFFFFFF AND PUSH20 0xFFFFFFFFFFFFFFFFFFFFFFFFFFFFFFFFFFFFFFFF AND CALLER PUSH20 0xFFFFFFFFFFFFFFFFFFFFFFFFFFFFFFFFFFFFFFFF AND EQ DUP1 PUSH2 0x81E JUMPI POP PUSH1 0xF PUSH1 0x0 SWAP1 SLOAD SWAP1 PUSH2 0x100 EXP SWAP1 DIV PUSH20 0xFFFFFFFFFFFFFFFFFFFFFFFFFFFFFFFFFFFFFFFF AND PUSH20 0xFFFFFFFFFFFFFFFFFFFFFFFFFFFFFFFFFFFFFFFF AND CALLER PUSH20 0xFFFFFFFFFFFFFFFFFFFFFFFFFFFFFFFFFFFFFFFF AND EQ JUMPDEST PUSH2 0x873 JUMPI PUSH1 0x40 MLOAD PUSH32 0x8C379A000000000000000000000000000000000000000000000000000000000 DUP2 MSTORE PUSH1 0x4 ADD DUP1 DUP1 PUSH1 0x20 ADD DUP3 DUP2 SUB DUP3 MSTORE PUSH1 0x2B DUP2 MSTORE PUSH1 0x20 ADD DUP1 PUSH2 0x264A PUSH1 0x2B SWAP2 CODECOPY PUSH1 0x40 ADD SWAP2 POP POP PUSH1 0x40 MLOAD DUP1 SWAP2 SUB SWAP1 REVERT JUMPDEST PUSH2 0x888 DUP3 PUSH1 0x4 SLOAD PUSH2 0x2371 SWAP1 SWAP2 SWAP1 PUSH4 0xFFFFFFFF AND JUMP JUMPDEST PUSH1 0x4 DUP2 SWAP1 SSTORE POP PUSH32 0xC9C58CA254A2BDE8CE607D1F5211F98C28C52EFCEA5216A867EA933B95EFC31F PUSH1 0x4 SLOAD PUSH1 0x40 MLOAD DUP1 DUP3 DUP2 MSTORE PUSH1 0x20 ADD SWAP2 POP POP PUSH1 0x40 MLOAD DUP1 SWAP2 SUB SWAP1 LOG1 PUSH1 0x1 SWAP1 POP SWAP2 SWAP1 POP JUMP JUMPDEST PUSH1 0x9 PUSH1 0x0 SWAP1 SLOAD SWAP1 PUSH2 0x100 EXP SWAP1 DIV PUSH20 0xFFFFFFFFFFFFFFFFFFFFFFFFFFFFFFFFFFFFFFFF AND DUP2 JUMP JUMPDEST PUSH1 0x18 SLOAD DUP2 JUMP JUMPDEST PUSH1 0x0 PUSH1 0x10 PUSH1 0x0 SWAP1 SLOAD SWAP1 PUSH2 0x100 EXP SWAP1 DIV PUSH20 0xFFFFFFFFFFFFFFFFFFFFFFFFFFFFFFFFFFFFFFFF AND PUSH20 0xFFFFFFFFFFFFFFFFFFFFFFFFFFFFFFFFFFFFFFFF AND CALLER PUSH20 0xFFFFFFFFFFFFFFFFFFFFFFFFFFFFFFFFFFFFFFFF AND EQ DUP1 PUSH2 0x9A7 JUMPI POP PUSH1 0xF PUSH1 0x0 SWAP1 SLOAD SWAP1 PUSH2 0x100 EXP SWAP1 DIV PUSH20 0xFFFFFFFFFFFFFFFFFFFFFFFFFFFFFFFFFFFFFFFF AND PUSH20 0xFFFFFFFFFFFFFFFFFFFFFFFFFFFFFFFFFFFFFFFF AND CALLER PUSH20 0xFFFFFFFFFFFFFFFFFFFFFFFFFFFFFFFFFFFFFFFF AND EQ JUMPDEST PUSH2 0x9FC JUMPI PUSH1 0x40 MLOAD PUSH32 0x8C379A000000000000000000000000000000000000000000000000000000000 DUP2 MSTORE PUSH1 0x4 ADD DUP1 DUP1 PUSH1 0x20 ADD DUP3 DUP2 SUB DUP3 MSTORE PUSH1 0x2B DUP2 MSTORE PUSH1 0x20 ADD DUP1 PUSH2 0x264A PUSH1 0x2B SWAP2 CODECOPY PUSH1 0x40 ADD SWAP2 POP POP PUSH1 0x40 MLOAD DUP1 SWAP2 SUB SWAP1 REVERT JUMPDEST PUSH2 0xA11 DUP3 PUSH1 0x5 SLOAD PUSH2 0x2371 SWAP1 SWAP2 SWAP1 PUSH4 0xFFFFFFFF AND JUMP JUMPDEST PUSH1 0x5 DUP2 SWAP1 SSTORE POP PUSH32 0x8F740EB8352E99B7242CE9C7CEC021EE8B28B4ACEF603FF1260FE8B722822FEC PUSH1 0x5 SLOAD PUSH1 0x40 MLOAD DUP1 DUP3 DUP2 MSTORE PUSH1 0x20 ADD SWAP2 POP POP PUSH1 0x40 MLOAD DUP1 SWAP2 SUB SWAP1 LOG1 PUSH1 0x1 SWAP1 POP SWAP2 SWAP1 POP JUMP JUMPDEST PUSH1 0x5 SLOAD DUP2 JUMP JUMPDEST PUSH1 0xA PUSH1 0x0 SWAP1 SLOAD SWAP1 PUSH2 0x100 EXP SWAP1 DIV PUSH20 0xFFFFFFFFFFFFFFFFFFFFFFFFFFFFFFFFFFFFFFFF AND DUP2 JUMP JUMPDEST PUSH1 0xD PUSH1 0x0 SWAP1 SLOAD SWAP1 PUSH2 0x100 EXP SWAP1 DIV PUSH20 0xFFFFFFFFFFFFFFFFFFFFFFFFFFFFFFFFFFFFFFFF AND DUP2 JUMP JUMPDEST PUSH1 0x15 SLOAD DUP2 JUMP JUMPDEST PUSH1 0x1 SLOAD DUP2 JUMP JUMPDEST PUSH1 0xB PUSH1 0x0 SWAP1 SLOAD SWAP1 PUSH2 0x100 EXP SWAP1 DIV PUSH20 0xFFFFFFFFFFFFFFFFFFFFFFFFFFFFFFFFFFFFFFFF AND DUP2 JUMP JUMPDEST PUSH1 0x10 PUSH1 0x0 SWAP1 SLOAD SWAP1 PUSH2 0x100 EXP SWAP1 DIV PUSH20 0xFFFFFFFFFFFFFFFFFFFFFFFFFFFFFFFFFFFFFFFF AND DUP2 JUMP JUMPDEST PUSH1 0x17 SLOAD DUP2 JUMP JUMPDEST PUSH1 0x0 SLOAD DUP2 JUMP JUMPDEST PUSH1 0x2 SLOAD DUP2 JUMP JUMPDEST PUSH1 0x16 SLOAD DUP2 JUMP JUMPDEST PUSH1 0xE PUSH1 0x0 SWAP1 SLOAD SWAP1 PUSH2 0x100 EXP SWAP1 DIV PUSH20 0xFFFFFFFFFFFFFFFFFFFFFFFFFFFFFFFFFFFFFFFF AND DUP2 JUMP JUMPDEST PUSH1 0xF PUSH1 0x0 SWAP1 SLOAD SWAP1 PUSH2 0x100 EXP SWAP1 DIV PUSH20 0xFFFFFFFFFFFFFFFFFFFFFFFFFFFFFFFFFFFFFFFF AND DUP2 JUMP JUMPDEST PUSH1 0x0 PUSH3 0x278D00 PUSH2 0xC24 PUSH1 0x0 SLOAD PUSH1 0x6 PUSH1 0x0 SWAP1 SLOAD SWAP1 PUSH2 0x100 EXP SWAP1 DIV PUSH20 0xFFFFFFFFFFFFFFFFFFFFFFFFFFFFFFFFFFFFFFFF AND PUSH20 0xFFFFFFFFFFFFFFFFFFFFFFFFFFFFFFFFFFFFFFFF AND PUSH4 0xB81F90F3 PUSH1 0x40 MLOAD DUP2 PUSH4 0xFFFFFFFF AND PUSH1 0xE0 SHL DUP2 MSTORE PUSH1 0x4 ADD PUSH1 0x20 PUSH1 0x40 MLOAD DUP1 DUP4 SUB DUP2 DUP7 DUP1 EXTCODESIZE ISZERO DUP1 ISZERO PUSH2 0xBDB JUMPI PUSH1 0x0 DUP1 REVERT JUMPDEST POP GAS STATICCALL ISZERO DUP1 ISZERO PUSH2 0xBEF JUMPI RETURNDATASIZE PUSH1 0x0 DUP1 RETURNDATACOPY RETURNDATASIZE PUSH1 0x0 REVERT JUMPDEST POP POP POP POP PUSH1 0x40 MLOAD RETURNDATASIZE PUSH1 0x20 DUP2 LT ISZERO PUSH2 0xC05 JUMPI PUSH1 0x0 DUP1 REVERT JUMPDEST DUP2 ADD SWAP1 DUP1 DUP1 MLOAD SWAP1 PUSH1 0x20 ADD SWAP1 SWAP3 SWAP2 SWAP1 POP POP POP PUSH2 0x2390 SWAP1 SWAP2 SWAP1 PUSH4 0xFFFFFFFF AND JUMP JUMPDEST GT PUSH2 0xC7A JUMPI PUSH1 0x40 MLOAD PUSH32 0x8C379A000000000000000000000000000000000000000000000000000000000 DUP2 MSTORE PUSH1 0x4 ADD DUP1 DUP1 PUSH1 0x20 ADD DUP3 DUP2 SUB DUP3 MSTORE PUSH1 0x24 DUP2 MSTORE PUSH1 0x20 ADD DUP1 PUSH2 0x2675 PUSH1 0x24 SWAP2 CODECOPY PUSH1 0x40 ADD SWAP2 POP POP PUSH1 0x40 MLOAD DUP1 SWAP2 SUB SWAP1 REVERT JUMPDEST PUSH1 0x0 PUSH2 0xC93 PUSH1 0x4 SLOAD PUSH1 0x1 SLOAD PUSH2 0x2371 SWAP1 SWAP2 SWAP1 PUSH4 0xFFFFFFFF AND JUMP JUMPDEST SWAP1 POP PUSH2 0xCBC PUSH1 0x64 PUSH2 0xCAE PUSH1 0x5 DUP5 PUSH2 0x23B0 SWAP1 SWAP2 SWAP1 PUSH4 0xFFFFFFFF AND JUMP JUMPDEST PUSH2 0x23EA SWAP1 SWAP2 SWAP1 PUSH4 0xFFFFFFFF AND JUMP JUMPDEST PUSH1 0x11 DUP2 SWAP1 SSTORE POP PUSH2 0xCE9 PUSH1 0x64 PUSH2 0xCDB PUSH1 0xA DUP5 PUSH2 0x23B0 SWAP1 SWAP2 SWAP1 PUSH4 0xFFFFFFFF AND JUMP JUMPDEST PUSH2 0x23EA SWAP1 SWAP2 SWAP1 PUSH4 0xFFFFFFFF AND JUMP JUMPDEST PUSH1 0x12 DUP2 SWAP1 SSTORE POP PUSH2 0xD16 PUSH1 0x64 PUSH2 0xD08 PUSH1 0xA DUP5 PUSH2 0x23B0 SWAP1 SWAP2 SWAP1 PUSH4 0xFFFFFFFF AND JUMP JUMPDEST PUSH2 0x23EA SWAP1 SWAP2 SWAP1 PUSH4 0xFFFFFFFF AND JUMP JUMPDEST PUSH1 0x13 DUP2 SWAP1 SSTORE POP PUSH2 0xD43 PUSH1 0x64 PUSH2 0xD35 PUSH1 0xA DUP5 PUSH2 0x23B0 SWAP1 SWAP2 SWAP1 PUSH4 0xFFFFFFFF AND JUMP JUMPDEST PUSH2 0x23EA SWAP1 SWAP2 SWAP1 PUSH4 0xFFFFFFFF AND JUMP JUMPDEST PUSH1 0x14 DUP2 SWAP1 SSTORE POP PUSH2 0xD70 PUSH1 0x64 PUSH2 0xD62 PUSH1 0xA DUP5 PUSH2 0x23B0 SWAP1 SWAP2 SWAP1 PUSH4 0xFFFFFFFF AND JUMP JUMPDEST PUSH2 0x23EA SWAP1 SWAP2 SWAP1 PUSH4 0xFFFFFFFF AND JUMP JUMPDEST PUSH1 0x15 DUP2 SWAP1 SSTORE POP PUSH2 0xD9D PUSH1 0x64 PUSH2 0xD8F PUSH1 0x5 DUP5 PUSH2 0x23B0 SWAP1 SWAP2 SWAP1 PUSH4 0xFFFFFFFF AND JUMP JUMPDEST PUSH2 0x23EA SWAP1 SWAP2 SWAP1 PUSH4 0xFFFFFFFF AND JUMP JUMPDEST PUSH1 0x16 DUP2 SWAP1 SSTORE POP PUSH2 0xDCA PUSH1 0x64 PUSH2 0xDBC PUSH1 0xA DUP5 PUSH2 0x23B0 SWAP1 SWAP2 SWAP1 PUSH4 0xFFFFFFFF AND JUMP JUMPDEST PUSH2 0x23EA SWAP1 SWAP2 SWAP1 PUSH4 0xFFFFFFFF AND JUMP JUMPDEST PUSH1 0x17 DUP2 SWAP1 SSTORE POP PUSH2 0xDF7 PUSH1 0x64 PUSH2 0xDE9 PUSH1 0xF DUP5 PUSH2 0x23B0 SWAP1 SWAP2 SWAP1 PUSH4 0xFFFFFFFF AND JUMP JUMPDEST PUSH2 0x23EA SWAP1 SWAP2 SWAP1 PUSH4 0xFFFFFFFF AND JUMP JUMPDEST PUSH1 0x18 DUP2 SWAP1 SSTORE POP PUSH2 0xE24 PUSH1 0x64 PUSH2 0xE16 PUSH1 0x19 DUP5 PUSH2 0x23B0 SWAP1 SWAP2 SWAP1 PUSH4 0xFFFFFFFF AND JUMP JUMPDEST PUSH2 0x23EA SWAP1 SWAP2 SWAP1 PUSH4 0xFFFFFFFF AND JUMP JUMPDEST PUSH1 0x19 DUP2 SWAP1 SSTORE POP PUSH1 0x6 PUSH1 0x0 SWAP1 SLOAD SWAP1 PUSH2 0x100 EXP SWAP1 DIV PUSH20 0xFFFFFFFFFFFFFFFFFFFFFFFFFFFFFFFFFFFFFFFF AND PUSH20 0xFFFFFFFFFFFFFFFFFFFFFFFFFFFFFFFFFFFFFFFF AND PUSH4 0x40C10F19 PUSH1 0x10 PUSH1 0x0 SWAP1 SLOAD SWAP1 PUSH2 0x100 EXP SWAP1 DIV PUSH20 0xFFFFFFFFFFFFFFFFFFFFFFFFFFFFFFFFFFFFFFFF AND PUSH1 0x18 SLOAD PUSH1 0x40 MLOAD DUP4 PUSH4 0xFFFFFFFF AND PUSH1 0xE0 SHL DUP2 MSTORE PUSH1 0x4 ADD DUP1 DUP4 PUSH20 0xFFFFFFFFFFFFFFFFFFFFFFFFFFFFFFFFFFFFFFFF AND PUSH20 0xFFFFFFFFFFFFFFFFFFFFFFFFFFFFFFFFFFFFFFFF AND DUP2 MSTORE PUSH1 0x20 ADD DUP3 DUP2 MSTORE PUSH1 0x20 ADD SWAP3 POP POP POP PUSH1 0x20 PUSH1 0x40 MLOAD DUP1 DUP4 SUB DUP2 PUSH1 0x0 DUP8 DUP1 EXTCODESIZE ISZERO DUP1 ISZERO PUSH2 0xEF7 JUMPI PUSH1 0x0 DUP1 REVERT JUMPDEST POP GAS CALL ISZERO DUP1 ISZERO PUSH2 0xF0B JUMPI RETURNDATASIZE PUSH1 0x0 DUP1 RETURNDATACOPY RETURNDATASIZE PUSH1 0x0 REVERT JUMPDEST POP POP POP POP PUSH1 0x40 MLOAD RETURNDATASIZE PUSH1 0x20 DUP2 LT ISZERO PUSH2 0xF21 JUMPI PUSH1 0x0 DUP1 REVERT JUMPDEST DUP2 ADD SWAP1 DUP1 DUP1 MLOAD SWAP1 PUSH1 0x20 ADD SWAP1 SWAP3 SWAP2 SWAP1 POP POP POP POP PUSH1 0x0 PUSH1 0x10 PUSH1 0x0 SWAP1 SLOAD SWAP1 PUSH2 0x100 EXP SWAP1 DIV PUSH20 0xFFFFFFFFFFFFFFFFFFFFFFFFFFFFFFFFFFFFFFFF AND SWAP1 POP DUP1 PUSH20 0xFFFFFFFFFFFFFFFFFFFFFFFFFFFFFFFFFFFFFFFF AND PUSH4 0xE78C81C4 PUSH1 0x18 SLOAD PUSH1 0x40 MLOAD DUP3 PUSH4 0xFFFFFFFF AND PUSH1 0xE0 SHL DUP2 MSTORE PUSH1 0x4 ADD DUP1 DUP3 DUP2 MSTORE PUSH1 0x20 ADD SWAP2 POP POP PUSH1 0x0 PUSH1 0x40 MLOAD DUP1 DUP4 SUB DUP2 PUSH1 0x0 DUP8 DUP1 EXTCODESIZE ISZERO DUP1 ISZERO PUSH2 0xFAF JUMPI PUSH1 0x0 DUP1 REVERT JUMPDEST POP GAS CALL ISZERO DUP1 ISZERO PUSH2 0xFC3 JUMPI RETURNDATASIZE PUSH1 0x0 DUP1 RETURNDATACOPY RETURNDATASIZE PUSH1 0x0 REVERT JUMPDEST POP POP POP POP PUSH32 0x8470EC6072093ABFEC912969EE9FD5273EED1D3202EAC51A1FD83C236EE9BEA8 PUSH1 0x10 PUSH1 0x0 SWAP1 SLOAD SWAP1 PUSH2 0x100 EXP SWAP1 DIV PUSH20 0xFFFFFFFFFFFFFFFFFFFFFFFFFFFFFFFFFFFFFFFF AND PUSH1 0x18 SLOAD PUSH1 0x40 MLOAD DUP1 DUP1 PUSH1 0x20 ADD DUP5 PUSH20 0xFFFFFFFFFFFFFFFFFFFFFFFFFFFFFFFFFFFFFFFF AND PUSH20 0xFFFFFFFFFFFFFFFFFFFFFFFFFFFFFFFFFFFFFFFF AND DUP2 MSTORE PUSH1 0x20 ADD DUP4 DUP2 MSTORE PUSH1 0x20 ADD DUP3 DUP2 SUB DUP3 MSTORE PUSH1 0xF DUP2 MSTORE PUSH1 0x20 ADD DUP1 PUSH32 0x7374616B696E67436F6E74726163740000000000000000000000000000000000 DUP2 MSTORE POP PUSH1 0x20 ADD SWAP4 POP POP POP POP PUSH1 0x40 MLOAD DUP1 SWAP2 SUB SWAP1 LOG1 PUSH32 0x31A2C82874744C38FA6D0D7BACB6FF098DE6C1ECC98899F39F5B9EA32108765B DUP3 PUSH1 0x40 MLOAD DUP1 DUP3 DUP2 MSTORE PUSH1 0x20 ADD SWAP2 POP POP PUSH1 0x40 MLOAD DUP1 SWAP2 SUB SWAP1 LOG1 PUSH1 0x0 PUSH1 0x4 DUP2 SWAP1 SSTORE POP PUSH2 0x10E6 PUSH3 0x278D00 PUSH1 0x0 SLOAD PUSH2 0x2371 SWAP1 SWAP2 SWAP1 PUSH4 0xFFFFFFFF AND JUMP JUMPDEST PUSH1 0x0 DUP2 SWAP1 SSTORE POP PUSH2 0x10F4 PUSH2 0x2410 JUMP JUMPDEST POP PUSH32 0x6EF4855B666DCC7884561072E4358B28DFE01FEB1B7F4DCEBC00E62D50394AC7 PUSH1 0x5 SLOAD PUSH1 0x40 MLOAD DUP1 DUP3 DUP2 MSTORE PUSH1 0x20 ADD SWAP2 POP POP PUSH1 0x40 MLOAD DUP1 SWAP2 SUB SWAP1 LOG1 PUSH1 0xB PUSH1 0x3 SLOAD EQ ISZERO PUSH2 0x1191 JUMPI PUSH1 0x0 PUSH1 0x3 DUP2 SWAP1 SSTORE POP PUSH2 0x116A PUSH1 0x64 PUSH2 0x115C PUSH1 0x5A PUSH1 0x2 SLOAD PUSH2 0x23B0 SWAP1 SWAP2 SWAP1 PUSH4 0xFFFFFFFF AND JUMP JUMPDEST PUSH2 0x23EA SWAP1 SWAP2 SWAP1 PUSH4 0xFFFFFFFF AND JUMP JUMPDEST PUSH1 0x2 DUP2 SWAP1 SSTORE POP PUSH2 0x1186 PUSH1 0xC PUSH1 0x2 SLOAD PUSH2 0x23EA SWAP1 SWAP2 SWAP1 PUSH4 0xFFFFFFFF AND JUMP JUMPDEST PUSH1 0x1 DUP2 SWAP1 SSTORE POP PUSH2 0x11AE JUMP JUMPDEST PUSH2 0x11A7 PUSH1 0x1 PUSH1 0x3 SLOAD PUSH2 0x2371 SWAP1 SWAP2 SWAP1 PUSH4 0xFFFFFFFF AND JUMP JUMPDEST PUSH1 0x3 DUP2 SWAP1 SSTORE POP JUMPDEST PUSH1 0x1 SWAP3 POP POP POP SWAP1 JUMP JUMPDEST PUSH1 0x12 SLOAD DUP2 JUMP JUMPDEST PUSH1 0x19 SLOAD DUP2 JUMP JUMPDEST PUSH1 0x4 SLOAD DUP2 JUMP JUMPDEST PUSH1 0x0 PUSH1 0x7 PUSH1 0x0 SWAP1 SLOAD SWAP1 PUSH2 0x100 EXP SWAP1 DIV PUSH20 0xFFFFFFFFFFFFFFFFFFFFFFFFFFFFFFFFFFFFFFFF AND PUSH20 0xFFFFFFFFFFFFFFFFFFFFFFFFFFFFFFFFFFFFFFFF AND CALLER PUSH20 0xFFFFFFFFFFFFFFFFFFFFFFFFFFFFFFFFFFFFFFFF AND EQ PUSH2 0x128E JUMPI PUSH1 0x40 MLOAD PUSH32 0x8C379A000000000000000000000000000000000000000000000000000000000 DUP2 MSTORE PUSH1 0x4 ADD DUP1 DUP1 PUSH1 0x20 ADD DUP3 DUP2 SUB DUP3 MSTORE PUSH1 0x18 DUP2 MSTORE PUSH1 0x20 ADD DUP1 PUSH32 0x4F6E6C79204F776E657220697320617574686F72697365640000000000000000 DUP2 MSTORE POP PUSH1 0x20 ADD SWAP2 POP POP PUSH1 0x40 MLOAD DUP1 SWAP2 SUB SWAP1 REVERT JUMPDEST PUSH1 0x0 PUSH20 0xFFFFFFFFFFFFFFFFFFFFFFFFFFFFFFFFFFFFFFFF AND DUP3 PUSH1 0x0 PUSH1 0x9 DUP2 LT PUSH2 0x12B3 JUMPI INVALID JUMPDEST PUSH1 0x20 MUL ADD CALLDATALOAD PUSH20 0xFFFFFFFFFFFFFFFFFFFFFFFFFFFFFFFFFFFFFFFF AND PUSH20 0xFFFFFFFFFFFFFFFFFFFFFFFFFFFFFFFFFFFFFFFF AND EQ ISZERO DUP1 ISZERO PUSH2 0x1340 JUMPI POP PUSH1 0x0 PUSH20 0xFFFFFFFFFFFFFFFFFFFFFFFFFFFFFFFFFFFFFFFF AND PUSH1 0x8 PUSH1 0x0 SWAP1 SLOAD SWAP1 PUSH2 0x100 EXP SWAP1 DIV PUSH20 0xFFFFFFFFFFFFFFFFFFFFFFFFFFFFFFFFFFFFFFFF AND PUSH20 0xFFFFFFFFFFFFFFFFFFFFFFFFFFFFFFFFFFFFFFFF AND EQ JUMPDEST ISZERO PUSH2 0x146C JUMPI DUP2 PUSH1 0x0 PUSH1 0x9 DUP2 LT PUSH2 0x1352 JUMPI INVALID JUMPDEST PUSH1 0x20 MUL ADD CALLDATALOAD PUSH20 0xFFFFFFFFFFFFFFFFFFFFFFFFFFFFFFFFFFFFFFFF AND PUSH1 0x8 PUSH1 0x0 PUSH2 0x100 EXP DUP2 SLOAD DUP2 PUSH20 0xFFFFFFFFFFFFFFFFFFFFFFFFFFFFFFFFFFFFFFFF MUL NOT AND SWAP1 DUP4 PUSH20 0xFFFFFFFFFFFFFFFFFFFFFFFFFFFFFFFFFFFFFFFF AND MUL OR SWAP1 SSTORE POP PUSH32 0x12FB0C5ABBA542BF97C53EECC4EBE59D9BA7AD563247ED305F002ADA0291D60F PUSH1 0x8 PUSH1 0x0 SWAP1 SLOAD SWAP1 PUSH2 0x100 EXP SWAP1 DIV PUSH20 0xFFFFFFFFFFFFFFFFFFFFFFFFFFFFFFFFFFFFFFFF AND PUSH1 0x40 MLOAD DUP1 DUP1 PUSH1 0x20 ADD DUP4 PUSH20 0xFFFFFFFFFFFFFFFFFFFFFFFFFFFFFFFFFFFFFFFF AND PUSH20 0xFFFFFFFFFFFFFFFFFFFFFFFFFFFFFFFFFFFFFFFF AND DUP2 MSTORE PUSH1 0x20 ADD DUP3 DUP2 SUB DUP3 MSTORE PUSH1 0x19 DUP2 MSTORE PUSH1 0x20 ADD DUP1 PUSH32 0x4E657754616C656E7473416E64506172746E6572736869707300000000000000 DUP2 MSTORE POP PUSH1 0x20 ADD SWAP3 POP POP POP PUSH1 0x40 MLOAD DUP1 SWAP2 SUB SWAP1 LOG1 JUMPDEST PUSH1 0x0 PUSH20 0xFFFFFFFFFFFFFFFFFFFFFFFFFFFFFFFFFFFFFFFF AND DUP3 PUSH1 0x1 PUSH1 0x9 DUP2 LT PUSH2 0x1491 JUMPI INVALID JUMPDEST PUSH1 0x20 MUL ADD CALLDATALOAD PUSH20 0xFFFFFFFFFFFFFFFFFFFFFFFFFFFFFFFFFFFFFFFF AND PUSH20 0xFFFFFFFFFFFFFFFFFFFFFFFFFFFFFFFFFFFFFFFF AND EQ ISZERO DUP1 ISZERO PUSH2 0x151E JUMPI POP PUSH1 0x0 PUSH20 0xFFFFFFFFFFFFFFFFFFFFFFFFFFFFFFFFFFFFFFFF AND PUSH1 0x9 PUSH1 0x0 SWAP1 SLOAD SWAP1 PUSH2 0x100 EXP SWAP1 DIV PUSH20 0xFFFFFFFFFFFFFFFFFFFFFFFFFFFFFFFFFFFFFFFF AND PUSH20 0xFFFFFFFFFFFFFFFFFFFFFFFFFFFFFFFFFFFFFFFF AND EQ JUMPDEST ISZERO PUSH2 0x164A JUMPI DUP2 PUSH1 0x1 PUSH1 0x9 DUP2 LT PUSH2 0x1530 JUMPI INVALID JUMPDEST PUSH1 0x20 MUL ADD CALLDATALOAD PUSH20 0xFFFFFFFFFFFFFFFFFFFFFFFFFFFFFFFFFFFFFFFF AND PUSH1 0x9 PUSH1 0x0 PUSH2 0x100 EXP DUP2 SLOAD DUP2 PUSH20 0xFFFFFFFFFFFFFFFFFFFFFFFFFFFFFFFFFFFFFFFF MUL NOT AND SWAP1 DUP4 PUSH20 0xFFFFFFFFFFFFFFFFFFFFFFFFFFFFFFFFFFFFFFFF AND MUL OR SWAP1 SSTORE POP PUSH32 0x12FB0C5ABBA542BF97C53EECC4EBE59D9BA7AD563247ED305F002ADA0291D60F PUSH1 0x9 PUSH1 0x0 SWAP1 SLOAD SWAP1 PUSH2 0x100 EXP SWAP1 DIV PUSH20 0xFFFFFFFFFFFFFFFFFFFFFFFFFFFFFFFFFFFFFFFF AND PUSH1 0x40 MLOAD DUP1 DUP1 PUSH1 0x20 ADD DUP4 PUSH20 0xFFFFFFFFFFFFFFFFFFFFFFFFFFFFFFFFFFFFFFFF AND PUSH20 0xFFFFFFFFFFFFFFFFFFFFFFFFFFFFFFFFFFFFFFFF AND DUP2 MSTORE PUSH1 0x20 ADD DUP3 DUP2 SUB DUP3 MSTORE PUSH1 0x13 DUP2 MSTORE PUSH1 0x20 ADD DUP1 PUSH32 0x506C6174666F726D4D61696E74656E616E636500000000000000000000000000 DUP2 MSTORE POP PUSH1 0x20 ADD SWAP3 POP POP POP PUSH1 0x40 MLOAD DUP1 SWAP2 SUB SWAP1 LOG1 JUMPDEST PUSH1 0x0 PUSH20 0xFFFFFFFFFFFFFFFFFFFFFFFFFFFFFFFFFFFFFFFF AND DUP3 PUSH1 0x2 PUSH1 0x9 DUP2 LT PUSH2 0x166F JUMPI INVALID JUMPDEST PUSH1 0x20 MUL ADD CALLDATALOAD PUSH20 0xFFFFFFFFFFFFFFFFFFFFFFFFFFFFFFFFFFFFFFFF AND PUSH20 0xFFFFFFFFFFFFFFFFFFFFFFFFFFFFFFFFFFFFFFFF AND EQ ISZERO DUP1 ISZERO PUSH2 0x16FC JUMPI POP PUSH1 0x0 PUSH20 0xFFFFFFFFFFFFFFFFFFFFFFFFFFFFFFFFFFFFFFFF AND PUSH1 0xA PUSH1 0x0 SWAP1 SLOAD SWAP1 PUSH2 0x100 EXP SWAP1 DIV PUSH20 0xFFFFFFFFFFFFFFFFFFFFFFFFFFFFFFFFFFFFFFFF AND PUSH20 0xFFFFFFFFFFFFFFFFFFFFFFFFFFFFFFFFFFFFFFFF AND EQ JUMPDEST ISZERO PUSH2 0x1828 JUMPI DUP2 PUSH1 0x2 PUSH1 0x9 DUP2 LT PUSH2 0x170E JUMPI INVALID JUMPDEST PUSH1 0x20 MUL ADD CALLDATALOAD PUSH20 0xFFFFFFFFFFFFFFFFFFFFFFFFFFFFFFFFFFFFFFFF AND PUSH1 0xA PUSH1 0x0 PUSH2 0x100 EXP DUP2 SLOAD DUP2 PUSH20 0xFFFFFFFFFFFFFFFFFFFFFFFFFFFFFFFFFFFFFFFF MUL NOT AND SWAP1 DUP4 PUSH20 0xFFFFFFFFFFFFFFFFFFFFFFFFFFFFFFFFFFFFFFFF AND MUL OR SWAP1 SSTORE POP PUSH32 0x12FB0C5ABBA542BF97C53EECC4EBE59D9BA7AD563247ED305F002ADA0291D60F PUSH1 0xA PUSH1 0x0 SWAP1 SLOAD SWAP1 PUSH2 0x100 EXP SWAP1 DIV PUSH20 0xFFFFFFFFFFFFFFFFFFFFFFFFFFFFFFFFFFFFFFFF AND PUSH1 0x40 MLOAD DUP1 DUP1 PUSH1 0x20 ADD DUP4 PUSH20 0xFFFFFFFFFFFFFFFFFFFFFFFFFFFFFFFFFFFFFFFF AND PUSH20 0xFFFFFFFFFFFFFFFFFFFFFFFFFFFFFFFFFFFFFFFF AND DUP2 MSTORE PUSH1 0x20 ADD DUP3 DUP2 SUB DUP3 MSTORE PUSH1 0xF DUP2 MSTORE PUSH1 0x20 ADD DUP1 PUSH32 0x4D61726B6574696E67416E64524E520000000000000000000000000000000000 DUP2 MSTORE POP PUSH1 0x20 ADD SWAP3 POP POP POP PUSH1 0x40 MLOAD DUP1 SWAP2 SUB SWAP1 LOG1 JUMPDEST PUSH1 0x0 PUSH20 0xFFFFFFFFFFFFFFFFFFFFFFFFFFFFFFFFFFFFFFFF AND DUP3 PUSH1 0x3 PUSH1 0x9 DUP2 LT PUSH2 0x184D JUMPI INVALID JUMPDEST PUSH1 0x20 MUL ADD CALLDATALOAD PUSH20 0xFFFFFFFFFFFFFFFFFFFFFFFFFFFFFFFFFFFFFFFF AND PUSH20 0xFFFFFFFFFFFFFFFFFFFFFFFFFFFFFFFFFFFFFFFF AND EQ ISZERO DUP1 ISZERO PUSH2 0x18DA JUMPI POP PUSH1 0x0 PUSH20 0xFFFFFFFFFFFFFFFFFFFFFFFFFFFFFFFFFFFFFFFF AND PUSH1 0xB PUSH1 0x0 SWAP1 SLOAD SWAP1 PUSH2 0x100 EXP SWAP1 DIV PUSH20 0xFFFFFFFFFFFFFFFFFFFFFFFFFFFFFFFFFFFFFFFF AND PUSH20 0xFFFFFFFFFFFFFFFFFFFFFFFFFFFFFFFFFFFFFFFF AND EQ JUMPDEST ISZERO PUSH2 0x1A06 JUMPI DUP2 PUSH1 0x3 PUSH1 0x9 DUP2 LT PUSH2 0x18EC JUMPI INVALID JUMPDEST PUSH1 0x20 MUL ADD CALLDATALOAD PUSH20 0xFFFFFFFFFFFFFFFFFFFFFFFFFFFFFFFFFFFFFFFF AND PUSH1 0xB PUSH1 0x0 PUSH2 0x100 EXP DUP2 SLOAD DUP2 PUSH20 0xFFFFFFFFFFFFFFFFFFFFFFFFFFFFFFFFFFFFFFFF MUL NOT AND SWAP1 DUP4 PUSH20 0xFFFFFFFFFFFFFFFFFFFFFFFFFFFFFFFFFFFFFFFF AND MUL OR SWAP1 SSTORE POP PUSH32 0x12FB0C5ABBA542BF97C53EECC4EBE59D9BA7AD563247ED305F002ADA0291D60F PUSH1 0xB PUSH1 0x0 SWAP1 SLOAD SWAP1 PUSH2 0x100 EXP SWAP1 DIV PUSH20 0xFFFFFFFFFFFFFFFFFFFFFFFFFFFFFFFFFFFFFFFF AND PUSH1 0x40 MLOAD DUP1 DUP1 PUSH1 0x20 ADD DUP4 PUSH20 0xFFFFFFFFFFFFFFFFFFFFFFFFFFFFFFFFFFFFFFFF AND PUSH20 0xFFFFFFFFFFFFFFFFFFFFFFFFFFFFFFFFFFFFFFFF AND DUP2 MSTORE PUSH1 0x20 ADD DUP3 DUP2 SUB DUP3 MSTORE PUSH1 0x7 DUP2 MSTORE PUSH1 0x20 ADD DUP1 PUSH32 0x4B6D506172647300000000000000000000000000000000000000000000000000 DUP2 MSTORE POP PUSH1 0x20 ADD SWAP3 POP POP POP PUSH1 0x40 MLOAD DUP1 SWAP2 SUB SWAP1 LOG1 JUMPDEST PUSH1 0x0 PUSH20 0xFFFFFFFFFFFFFFFFFFFFFFFFFFFFFFFFFFFFFFFF AND DUP3 PUSH1 0x4 PUSH1 0x9 DUP2 LT PUSH2 0x1A2B JUMPI INVALID JUMPDEST PUSH1 0x20 MUL ADD CALLDATALOAD PUSH20 0xFFFFFFFFFFFFFFFFFFFFFFFFFFFFFFFFFFFFFFFF AND PUSH20 0xFFFFFFFFFFFFFFFFFFFFFFFFFFFFFFFFFFFFFFFF AND EQ ISZERO DUP1 ISZERO PUSH2 0x1AB8 JUMPI POP PUSH1 0x0 PUSH20 0xFFFFFFFFFFFFFFFFFFFFFFFFFFFFFFFFFFFFFFFF AND PUSH1 0xC PUSH1 0x0 SWAP1 SLOAD SWAP1 PUSH2 0x100 EXP SWAP1 DIV PUSH20 0xFFFFFFFFFFFFFFFFFFFFFFFFFFFFFFFFFFFFFFFF AND PUSH20 0xFFFFFFFFFFFFFFFFFFFFFFFFFFFFFFFFFFFFFFFF AND EQ JUMPDEST ISZERO PUSH2 0x1BE4 JUMPI DUP2 PUSH1 0x4 PUSH1 0x9 DUP2 LT PUSH2 0x1ACA JUMPI INVALID JUMPDEST PUSH1 0x20 MUL ADD CALLDATALOAD PUSH20 0xFFFFFFFFFFFFFFFFFFFFFFFFFFFFFFFFFFFFFFFF AND PUSH1 0xC PUSH1 0x0 PUSH2 0x100 EXP DUP2 SLOAD DUP2 PUSH20 0xFFFFFFFFFFFFFFFFFFFFFFFFFFFFFFFFFFFFFFFF MUL NOT AND SWAP1 DUP4 PUSH20 0xFFFFFFFFFFFFFFFFFFFFFFFFFFFFFFFFFFFFFFFF AND MUL OR SWAP1 SSTORE POP PUSH32 0x12FB0C5ABBA542BF97C53EECC4EBE59D9BA7AD563247ED305F002ADA0291D60F PUSH1 0xC PUSH1 0x0 SWAP1 SLOAD SWAP1 PUSH2 0x100 EXP SWAP1 DIV PUSH20 0xFFFFFFFFFFFFFFFFFFFFFFFFFFFFFFFFFFFFFFFF AND PUSH1 0x40 MLOAD DUP1 DUP1 PUSH1 0x20 ADD DUP4 PUSH20 0xFFFFFFFFFFFFFFFFFFFFFFFFFFFFFFFFFFFFFFFF AND PUSH20 0xFFFFFFFFFFFFFFFFFFFFFFFFFFFFFFFFFFFFFFFF AND DUP2 MSTORE PUSH1 0x20 ADD DUP3 DUP2 SUB DUP3 MSTORE PUSH1 0x10 DUP2 MSTORE PUSH1 0x20 ADD DUP1 PUSH32 0x436F6E74696E67656E637946756E647300000000000000000000000000000000 DUP2 MSTORE POP PUSH1 0x20 ADD SWAP3 POP POP POP PUSH1 0x40 MLOAD DUP1 SWAP2 SUB SWAP1 LOG1 JUMPDEST PUSH1 0x0 PUSH20 0xFFFFFFFFFFFFFFFFFFFFFFFFFFFFFFFFFFFFFFFF AND DUP3 PUSH1 0x5 PUSH1 0x9 DUP2 LT PUSH2 0x1C09 JUMPI INVALID JUMPDEST PUSH1 0x20 MUL ADD CALLDATALOAD PUSH20 0xFFFFFFFFFFFFFFFFFFFFFFFFFFFFFFFFFFFFFFFF AND PUSH20 0xFFFFFFFFFFFFFFFFFFFFFFFFFFFFFFFFFFFFFFFF AND EQ ISZERO DUP1 ISZERO PUSH2 0x1C96 JUMPI POP PUSH1 0x0 PUSH20 0xFFFFFFFFFFFFFFFFFFFFFFFFFFFFFFFFFFFFFFFF AND PUSH1 0xD PUSH1 0x0 SWAP1 SLOAD SWAP1 PUSH2 0x100 EXP SWAP1 DIV PUSH20 0xFFFFFFFFFFFFFFFFFFFFFFFFFFFFFFFFFFFFFFFF AND PUSH20 0xFFFFFFFFFFFFFFFFFFFFFFFFFFFFFFFFFFFFFFFF AND EQ JUMPDEST ISZERO PUSH2 0x1DC2 JUMPI DUP2 PUSH1 0x5 PUSH1 0x9 DUP2 LT PUSH2 0x1CA8 JUMPI INVALID JUMPDEST PUSH1 0x20 MUL ADD CALLDATALOAD PUSH20 0xFFFFFFFFFFFFFFFFFFFFFFFFFFFFFFFFFFFFFFFF AND PUSH1 0xD PUSH1 0x0 PUSH2 0x100 EXP DUP2 SLOAD DUP2 PUSH20 0xFFFFFFFFFFFFFFFFFFFFFFFFFFFFFFFFFFFFFFFF MUL NOT AND SWAP1 DUP4 PUSH20 0xFFFFFFFFFFFFFFFFFFFFFFFFFFFFFFFFFFFFFFFF AND MUL OR SWAP1 SSTORE POP PUSH32 0x12FB0C5ABBA542BF97C53EECC4EBE59D9BA7AD563247ED305F002ADA0291D60F PUSH1 0xD PUSH1 0x0 SWAP1 SLOAD SWAP1 PUSH2 0x100 EXP SWAP1 DIV PUSH20 0xFFFFFFFFFFFFFFFFFFFFFFFFFFFFFFFFFFFFFFFF AND PUSH1 0x40 MLOAD DUP1 DUP1 PUSH1 0x20 ADD DUP4 PUSH20 0xFFFFFFFFFFFFFFFFFFFFFFFFFFFFFFFFFFFFFFFF AND PUSH20 0xFFFFFFFFFFFFFFFFFFFFFFFFFFFFFFFFFFFFFFFF AND DUP2 MSTORE PUSH1 0x20 ADD DUP3 DUP2 SUB DUP3 MSTORE PUSH1 0x16 DUP2 MSTORE PUSH1 0x20 ADD DUP1 PUSH32 0x5265736561726368416E64446576656C6F706D656E7400000000000000000000 DUP2 MSTORE POP PUSH1 0x20 ADD SWAP3 POP POP POP PUSH1 0x40 MLOAD DUP1 SWAP2 SUB SWAP1 LOG1 JUMPDEST PUSH1 0x0 PUSH20 0xFFFFFFFFFFFFFFFFFFFFFFFFFFFFFFFFFFFFFFFF AND DUP3 PUSH1 0x6 PUSH1 0x9 DUP2 LT PUSH2 0x1DE7 JUMPI INVALID JUMPDEST PUSH1 0x20 MUL ADD CALLDATALOAD PUSH20 0xFFFFFFFFFFFFFFFFFFFFFFFFFFFFFFFFFFFFFFFF AND PUSH20 0xFFFFFFFFFFFFFFFFFFFFFFFFFFFFFFFFFFFFFFFF AND EQ ISZERO DUP1 ISZERO PUSH2 0x1E74 JUMPI POP PUSH1 0x0 PUSH20 0xFFFFFFFFFFFFFFFFFFFFFFFFFFFFFFFFFFFFFFFF AND PUSH1 0xE PUSH1 0x0 SWAP1 SLOAD SWAP1 PUSH2 0x100 EXP SWAP1 DIV PUSH20 0xFFFFFFFFFFFFFFFFFFFFFFFFFFFFFFFFFFFFFFFF AND PUSH20 0xFFFFFFFFFFFFFFFFFFFFFFFFFFFFFFFFFFFFFFFF AND EQ JUMPDEST ISZERO PUSH2 0x1FA0 JUMPI DUP2 PUSH1 0x6 PUSH1 0x9 DUP2 LT PUSH2 0x1E86 JUMPI INVALID JUMPDEST PUSH1 0x20 MUL ADD CALLDATALOAD PUSH20 0xFFFFFFFFFFFFFFFFFFFFFFFFFFFFFFFFFFFFFFFF AND PUSH1 0xE PUSH1 0x0 PUSH2 0x100 EXP DUP2 SLOAD DUP2 PUSH20 0xFFFFFFFFFFFFFFFFFFFFFFFFFFFFFFFFFFFFFFFF MUL NOT AND SWAP1 DUP4 PUSH20 0xFFFFFFFFFFFFFFFFFFFFFFFFFFFFFFFFFFFFFFFF AND MUL OR SWAP1 SSTORE POP PUSH32 0x12FB0C5ABBA542BF97C53EECC4EBE59D9BA7AD563247ED305F002ADA0291D60F PUSH1 0xE PUSH1 0x0 SWAP1 SLOAD SWAP1 PUSH2 0x100 EXP SWAP1 DIV PUSH20 0xFFFFFFFFFFFFFFFFFFFFFFFFFFFFFFFFFFFFFFFF AND PUSH1 0x40 MLOAD DUP1 DUP1 PUSH1 0x20 ADD DUP4 PUSH20 0xFFFFFFFFFFFFFFFFFFFFFFFFFFFFFFFFFFFFFFFF AND PUSH20 0xFFFFFFFFFFFFFFFFFFFFFFFFFFFFFFFFFFFFFFFF AND DUP2 MSTORE PUSH1 0x20 ADD DUP3 DUP2 SUB DUP3 MSTORE PUSH1 0xA DUP2 MSTORE PUSH1 0x20 ADD DUP1 PUSH32 0x506F776572546F6B656E00000000000000000000000000000000000000000000 DUP2 MSTORE POP PUSH1 0x20 ADD SWAP3 POP POP POP PUSH1 0x40 MLOAD DUP1 SWAP2 SUB SWAP1 LOG1 JUMPDEST PUSH1 0x0 PUSH20 0xFFFFFFFFFFFFFFFFFFFFFFFFFFFFFFFFFFFFFFFF AND DUP3 PUSH1 0x7 PUSH1 0x9 DUP2 LT PUSH2 0x1FC5 JUMPI INVALID JUMPDEST PUSH1 0x20 MUL ADD CALLDATALOAD PUSH20 0xFFFFFFFFFFFFFFFFFFFFFFFFFFFFFFFFFFFFFFFF AND PUSH20 0xFFFFFFFFFFFFFFFFFFFFFFFFFFFFFFFFFFFFFFFF AND EQ ISZERO DUP1 ISZERO PUSH2 0x2052 JUMPI POP PUSH1 0x0 PUSH20 0xFFFFFFFFFFFFFFFFFFFFFFFFFFFFFFFFFFFFFFFF AND PUSH1 0xF PUSH1 0x0 SWAP1 SLOAD SWAP1 PUSH2 0x100 EXP SWAP1 DIV PUSH20 0xFFFFFFFFFFFFFFFFFFFFFFFFFFFFFFFFFFFFFFFF AND PUSH20 0xFFFFFFFFFFFFFFFFFFFFFFFFFFFFFFFFFFFFFFFF AND EQ JUMPDEST ISZERO PUSH2 0x217E JUMPI DUP2 PUSH1 0x7 PUSH1 0x9 DUP2 LT PUSH2 0x2064 JUMPI INVALID JUMPDEST PUSH1 0x20 MUL ADD CALLDATALOAD PUSH20 0xFFFFFFFFFFFFFFFFFFFFFFFFFFFFFFFFFFFFFFFF AND PUSH1 0xF PUSH1 0x0 PUSH2 0x100 EXP DUP2 SLOAD DUP2 PUSH20 0xFFFFFFFFFFFFFFFFFFFFFFFFFFFFFFFFFFFFFFFF MUL NOT AND SWAP1 DUP4 PUSH20 0xFFFFFFFFFFFFFFFFFFFFFFFFFFFFFFFFFFFFFFFF AND MUL OR SWAP1 SSTORE POP PUSH32 0x12FB0C5ABBA542BF97C53EECC4EBE59D9BA7AD563247ED305F002ADA0291D60F PUSH1 0xF PUSH1 0x0 SWAP1 SLOAD SWAP1 PUSH2 0x100 EXP SWAP1 DIV PUSH20 0xFFFFFFFFFFFFFFFFFFFFFFFFFFFFFFFFFFFFFFFF AND PUSH1 0x40 MLOAD DUP1 DUP1 PUSH1 0x20 ADD DUP4 PUSH20 0xFFFFFFFFFFFFFFFFFFFFFFFFFFFFFFFFFFFFFFFF AND PUSH20 0xFFFFFFFFFFFFFFFFFFFFFFFFFFFFFFFFFFFFFFFF AND DUP2 MSTORE PUSH1 0x20 ADD DUP3 DUP2 SUB DUP3 MSTORE PUSH1 0xB DUP2 MSTORE PUSH1 0x20 ADD DUP1 PUSH32 0x54696D6553776170706572000000000000000000000000000000000000000000 DUP2 MSTORE POP PUSH1 0x20 ADD SWAP3 POP POP POP PUSH1 0x40 MLOAD DUP1 SWAP2 SUB SWAP1 LOG1 JUMPDEST PUSH1 0x0 PUSH20 0xFFFFFFFFFFFFFFFFFFFFFFFFFFFFFFFFFFFFFFFF AND DUP3 PUSH1 0x8 PUSH1 0x9 DUP2 LT PUSH2 0x21A3 JUMPI INVALID JUMPDEST PUSH1 0x20 MUL ADD CALLDATALOAD PUSH20 0xFFFFFFFFFFFFFFFFFFFFFFFFFFFFFFFFFFFFFFFF AND PUSH20 0xFFFFFFFFFFFFFFFFFFFFFFFFFFFFFFFFFFFFFFFF AND EQ ISZERO DUP1 ISZERO PUSH2 0x2230 JUMPI POP PUSH1 0x0 PUSH20 0xFFFFFFFFFFFFFFFFFFFFFFFFFFFFFFFFFFFFFFFF AND PUSH1 0x10 PUSH1 0x0 SWAP1 SLOAD SWAP1 PUSH2 0x100 EXP SWAP1 DIV PUSH20 0xFFFFFFFFFFFFFFFFFFFFFFFFFFFFFFFFFFFFFFFF AND PUSH20 0xFFFFFFFFFFFFFFFFFFFFFFFFFFFFFFFFFFFFFFFF AND EQ JUMPDEST ISZERO PUSH2 0x235C JUMPI DUP2 PUSH1 0x8 PUSH1 0x9 DUP2 LT PUSH2 0x2242 JUMPI INVALID JUMPDEST PUSH1 0x20 MUL ADD CALLDATALOAD PUSH20 0xFFFFFFFFFFFFFFFFFFFFFFFFFFFFFFFFFFFFFFFF AND PUSH1 0x10 PUSH1 0x0 PUSH2 0x100 EXP DUP2 SLOAD DUP2 PUSH20 0xFFFFFFFFFFFFFFFFFFFFFFFFFFFFFFFFFFFFFFFF MUL NOT AND SWAP1 DUP4 PUSH20 0xFFFFFFFFFFFFFFFFFFFFFFFFFFFFFFFFFFFFFFFF AND MUL OR SWAP1 SSTORE POP PUSH32 0x12FB0C5ABBA542BF97C53EECC4EBE59D9BA7AD563247ED305F002ADA0291D60F PUSH1 0x10 PUSH1 0x0 SWAP1 SLOAD SWAP1 PUSH2 0x100 EXP SWAP1 DIV PUSH20 0xFFFFFFFFFFFFFFFFFFFFFFFFFFFFFFFFFFFFFFFF AND PUSH1 0x40 MLOAD DUP1 DUP1 PUSH1 0x20 ADD DUP4 PUSH20 0xFFFFFFFFFFFFFFFFFFFFFFFFFFFFFFFFFFFFFFFF AND PUSH20 0xFFFFFFFFFFFFFFFFFFFFFFFFFFFFFFFFFFFFFFFF AND DUP2 MSTORE PUSH1 0x20 ADD DUP3 DUP2 SUB DUP3 MSTORE PUSH1 0x8 DUP2 MSTORE PUSH1 0x20 ADD DUP1 PUSH32 0x54696D65416C6C79000000000000000000000000000000000000000000000000 DUP2 MSTORE POP PUSH1 0x20 ADD SWAP3 POP POP POP PUSH1 0x40 MLOAD DUP1 SWAP2 SUB SWAP1 LOG1 JUMPDEST PUSH1 0x1 SWAP1 POP SWAP2 SWAP1 POP JUMP JUMPDEST PUSH1 0x13 SLOAD DUP2 JUMP JUMPDEST PUSH1 0x11 SLOAD DUP2 JUMP JUMPDEST PUSH1 0x0 DUP1 DUP3 DUP5 ADD SWAP1 POP DUP4 DUP2 LT ISZERO PUSH2 0x2386 JUMPI PUSH1 0x0 DUP1 REVERT JUMPDEST DUP1 SWAP2 POP POP SWAP3 SWAP2 POP POP JUMP JUMPDEST PUSH1 0x0 DUP3 DUP3 GT ISZERO PUSH2 0x239F JUMPI PUSH1 0x0 DUP1 REVERT JUMPDEST PUSH1 0x0 DUP3 DUP5 SUB SWAP1 POP DUP1 SWAP2 POP POP SWAP3 SWAP2 POP POP JUMP JUMPDEST PUSH1 0x0 DUP1 DUP4 EQ ISZERO PUSH2 0x23C3 JUMPI PUSH1 0x0 SWAP1 POP PUSH2 0x23E4 JUMP JUMPDEST PUSH1 0x0 DUP3 DUP5 MUL SWAP1 POP DUP3 DUP5 DUP3 DUP2 PUSH2 0x23D4 JUMPI INVALID JUMPDEST DIV EQ PUSH2 0x23DF JUMPI PUSH1 0x0 DUP1 REVERT JUMPDEST DUP1 SWAP2 POP POP JUMPDEST SWAP3 SWAP2 POP POP JUMP JUMPDEST PUSH1 0x0 DUP1 DUP3 GT PUSH2 0x23F8 JUMPI PUSH1 0x0 DUP1 REVERT JUMPDEST PUSH1 0x0 DUP3 DUP5 DUP2 PUSH2 0x2403 JUMPI INVALID JUMPDEST DIV SWAP1 POP DUP1 SWAP2 POP POP SWAP3 SWAP2 POP POP JUMP JUMPDEST PUSH1 0x0 DUP1 PUSH1 0x5 SLOAD EQ ISZERO PUSH2 0x2425 JUMPI PUSH1 0x1 SWAP1 POP PUSH2 0x2646 JUMP JUMPDEST PUSH1 0x0 PUSH2 0x24F0 PUSH1 0x64 PUSH2 0x24E2 PUSH1 0x2 PUSH1 0x6 PUSH1 0x0 SWAP1 SLOAD SWAP1 PUSH2 0x100 EXP SWAP1 DIV PUSH20 0xFFFFFFFFFFFFFFFFFFFFFFFFFFFFFFFFFFFFFFFF AND PUSH20 0xFFFFFFFFFFFFFFFFFFFFFFFFFFFFFFFFFFFFFFFF AND PUSH4 0x18160DDD PUSH1 0x40 MLOAD DUP2 PUSH4 0xFFFFFFFF AND PUSH1 0xE0 SHL DUP2 MSTORE PUSH1 0x4 ADD PUSH1 0x20 PUSH1 0x40 MLOAD DUP1 DUP4 SUB DUP2 DUP7 DUP1 EXTCODESIZE ISZERO DUP1 ISZERO PUSH2 0x2499 JUMPI PUSH1 0x0 DUP1 REVERT JUMPDEST POP GAS STATICCALL ISZERO DUP1 ISZERO PUSH2 0x24AD JUMPI RETURNDATASIZE PUSH1 0x0 DUP1 RETURNDATACOPY RETURNDATASIZE PUSH1 0x0 REVERT JUMPDEST POP POP POP POP PUSH1 0x40 MLOAD RETURNDATASIZE PUSH1 0x20 DUP2 LT ISZERO PUSH2 0x24C3 JUMPI PUSH1 0x0 DUP1 REVERT JUMPDEST DUP2 ADD SWAP1 DUP1 DUP1 MLOAD SWAP1 PUSH1 0x20 ADD SWAP1 SWAP3 SWAP2 SWAP1 POP POP POP PUSH2 0x23B0 SWAP1 SWAP2 SWAP1 PUSH4 0xFFFFFFFF AND JUMP JUMPDEST PUSH2 0x23EA SWAP1 SWAP2 SWAP1 PUSH4 0xFFFFFFFF AND JUMP JUMPDEST SWAP1 POP PUSH1 0x5 SLOAD DUP2 LT PUSH2 0x2597 JUMPI PUSH1 0x6 PUSH1 0x0 SWAP1 SLOAD SWAP1 PUSH2 0x100 EXP SWAP1 DIV PUSH20 0xFFFFFFFFFFFFFFFFFFFFFFFFFFFFFFFFFFFFFFFF AND PUSH20 0xFFFFFFFFFFFFFFFFFFFFFFFFFFFFFFFFFFFFFFFF AND PUSH4 0x42966C68 PUSH1 0x5 SLOAD PUSH1 0x40 MLOAD DUP3 PUSH4 0xFFFFFFFF AND PUSH1 0xE0 SHL DUP2 MSTORE PUSH1 0x4 ADD DUP1 DUP3 DUP2 MSTORE PUSH1 0x20 ADD SWAP2 POP POP PUSH1 0x0 PUSH1 0x40 MLOAD DUP1 DUP4 SUB DUP2 PUSH1 0x0 DUP8 DUP1 EXTCODESIZE ISZERO DUP1 ISZERO PUSH2 0x2572 JUMPI PUSH1 0x0 DUP1 REVERT JUMPDEST POP GAS CALL ISZERO DUP1 ISZERO PUSH2 0x2586 JUMPI RETURNDATASIZE PUSH1 0x0 DUP1 RETURNDATACOPY RETURNDATASIZE PUSH1 0x0 REVERT JUMPDEST POP POP POP POP PUSH1 0x0 PUSH1 0x5 DUP2 SWAP1 SSTORE POP PUSH2 0x2640 JUMP JUMPDEST PUSH2 0x25AC DUP2 PUSH1 0x5 SLOAD PUSH2 0x2390 SWAP1 SWAP2 SWAP1 PUSH4 0xFFFFFFFF AND JUMP JUMPDEST PUSH1 0x5 DUP2 SWAP1 SSTORE POP PUSH1 0x6 PUSH1 0x0 SWAP1 SLOAD SWAP1 PUSH2 0x100 EXP SWAP1 DIV PUSH20 0xFFFFFFFFFFFFFFFFFFFFFFFFFFFFFFFFFFFFFFFF AND PUSH20 0xFFFFFFFFFFFFFFFFFFFFFFFFFFFFFFFFFFFFFFFF AND PUSH4 0x42966C68 DUP3 PUSH1 0x40 MLOAD DUP3 PUSH4 0xFFFFFFFF AND PUSH1 0xE0 SHL DUP2 MSTORE PUSH1 0x4 ADD DUP1 DUP3 DUP2 MSTORE PUSH1 0x20 ADD SWAP2 POP POP PUSH1 0x0 PUSH1 0x40 MLOAD DUP1 DUP4 SUB DUP2 PUSH1 0x0 DUP8 DUP1 EXTCODESIZE ISZERO DUP1 ISZERO PUSH2 0x2627 JUMPI PUSH1 0x0 DUP1 REVERT JUMPDEST POP GAS CALL ISZERO DUP1 ISZERO PUSH2 0x263B JUMPI RETURNDATASIZE PUSH1 0x0 DUP1 RETURNDATACOPY RETURNDATASIZE PUSH1 0x0 REVERT JUMPDEST POP POP POP POP JUMPDEST PUSH1 0x1 SWAP2 POP POP JUMPDEST SWAP1 JUMP INVALID 0x4f PUSH15 0x6C792054696D65416C6C7920616E64 KECCAK256 SLOAD PUSH10 0x6D657377617070657220 PUSH10 0x7320617574686F726973 PUSH6 0x644E52542072 PUSH6 0x6C6561736520 PUSH9 0x617070656E73206F6E PUSH4 0x65206576 PUSH6 0x7279206D6F6E PUSH21 0x68A265627A7A72305820B4FE0DC77B684385FDDB20 DUP8 0xcb 0xcd SWAP6 0xfb 0x1f 0xda CREATE2 0xed MUL CALLDATALOAD 0x22 0xc3 0x26 0xe3 0xe 0xd2 0xde 0x4f PUSH31 0x9864736F6C634300050A003200000000000000000000000000000000000000 "},"gasEstimates":{"creation":{"codeDepositCost":"1986600","executionCost":"infinite","totalCost":"infinite"},"external":{"MonthlyNRTRelease()":"infinite","UpdateAddresses(address[9])":"206010","UpdateBurnBal(uint256)":"infinite","UpdateLuckpool(uint256)":"infinite","annualNRTAmount()":"450","burnTokenBal()":"473","contingencyFunds()":"500","contingencyFundsBal()":"472","kmPards()":"564","kmPardsBal()":"451","lastNRTRelease()":"495","luckPoolBal()":"449","marketingAndRNR()":"543","marketingAndRNRBal()":"493","monthCount()":"474","monthlyNRTAmount()":"494","newTalentsAndPartnerships()":"544","newTalentsAndPartnershipsBal()":"515","platformMaintenance()":"543","platformMaintenanceBal()":"472","powerToken()":"542","powerTokenNRT()":"473","researchAndDevelopment()":"498","researchAndDevelopmentBal()":"472","timeAlly()":"499","timeAllyNRT()":"517","timeSwappers()":"564","timeSwappersNRT()":"494"},"internal":{"burnTokens()":"infinite"}},"methodIdentifiers":{"MonthlyNRTRelease()":"b018abbd","UpdateAddresses(address[9])":"cb358efa","UpdateBurnBal(uint256)":"41aaa9b6","UpdateLuckpool(uint256)":"382e2aab","annualNRTAmount()":"7b8c0b79","burnTokenBal()":"4a4581aa","contingencyFunds()":"0b3e29b8","contingencyFundsBal()":"5f7ce89f","kmPards()":"65c00470","kmPardsBal()":"2cfceb07","lastNRTRelease()":"797d123c","luckPoolBal()":"c3348a8b","marketingAndRNR()":"51bd70b1","marketingAndRNRBal()":"d37eb950","monthCount()":"0d4e57a4","monthlyNRTAmount()":"6037d2a3","newTalentsAndPartnerships()":"26b3bf2f","newTalentsAndPartnershipsBal()":"e71a3bfd","platformMaintenance()":"3a18a9fd","platformMaintenanceBal()":"bd27d361","powerToken()":"9662ac58","powerTokenNRT()":"6db42ca5","researchAndDevelopment()":"5c12278d","researchAndDevelopmentBal()":"7d53257a","timeAlly()":"682667a9","timeAllyNRT()":"3e04f4f9","timeSwappers()":"9cd417de","timeSwappersNRT()":"bfb3d6c8"}},"userdoc":{"methods":{}}}