{"abi":[{"constant":true,"inputs":[],"name":"contingencyFunds","outputs":[{"name":"","type":"address"}],"payable":false,"stateMutability":"view","type":"function"},{"constant":true,"inputs":[],"name":"monthCount","outputs":[{"name":"","type":"uint256"}],"payable":false,"stateMutability":"view","type":"function"},{"constant":true,"inputs":[],"name":"newTalentsAndPartnerships","outputs":[{"name":"","type":"address"}],"payable":false,"stateMutability":"view","type":"function"},{"constant":true,"inputs":[],"name":"kmPardsBal","outputs":[{"name":"","type":"uint256"}],"payable":false,"stateMutability":"view","type":"function"},{"constant":false,"inputs":[{"name":"amount","type":"uint256"}],"name":"UpdateLuckpool","outputs":[{"name":"","type":"bool"}],"payable":false,"stateMutability":"nonpayable","type":"function"},{"constant":true,"inputs":[],"name":"platformMaintenance","outputs":[{"name":"","type":"address"}],"payable":false,"stateMutability":"view","type":"function"},{"constant":true,"inputs":[],"name":"timeAllyNRT","outputs":[{"name":"","type":"uint256"}],"payable":false,"stateMutability":"view","type":"function"},{"constant":false,"inputs":[{"name":"amount","type":"uint256"}],"name":"UpdateBurnBal","outputs":[{"name":"","type":"bool"}],"payable":false,"stateMutability":"nonpayable","type":"function"},{"constant":true,"inputs":[],"name":"burnTokenBal","outputs":[{"name":"","type":"uint256"}],"payable":false,"stateMutability":"view","type":"function"},{"constant":true,"inputs":[],"name":"marketingAndRNR","outputs":[{"name":"","type":"address"}],"payable":false,"stateMutability":"view","type":"function"},{"constant":true,"inputs":[],"name":"researchAndDevelopment","outputs":[{"name":"","type":"address"}],"payable":false,"stateMutability":"view","type":"function"},{"constant":true,"inputs":[],"name":"contingencyFundsBal","outputs":[{"name":"","type":"uint256"}],"payable":false,"stateMutability":"view","type":"function"},{"constant":true,"inputs":[],"name":"monthlyNRTAmount","outputs":[{"name":"","type":"uint256"}],"payable":false,"stateMutability":"view","type":"function"},{"constant":true,"inputs":[],"name":"kmPards","outputs":[{"name":"","type":"address"}],"payable":false,"stateMutability":"view","type":"function"},{"constant":true,"inputs":[],"name":"timeAlly","outputs":[{"name":"","type":"address"}],"payable":false,"stateMutability":"view","type":"function"},{"constant":true,"inputs":[],"name":"powerTokenNRT","outputs":[{"name":"","type":"uint256"}],"payable":false,"stateMutability":"view","type":"function"},{"constant":true,"inputs":[],"name":"lastNRTRelease","outputs":[{"name":"","type":"uint256"}],"payable":false,"stateMutability":"view","type":"function"},{"constant":true,"inputs":[],"name":"annualNRTAmount","outputs":[{"name":"","type":"uint256"}],"payable":false,"stateMutability":"view","type":"function"},{"constant":true,"inputs":[],"name":"researchAndDevelopmentBal","outputs":[{"name":"","type":"uint256"}],"payable":false,"stateMutability":"view","type":"function"},{"constant":true,"inputs":[],"name":"powerToken","outputs":[{"name":"","type":"address"}],"payable":false,"stateMutability":"view","type":"function"},{"constant":true,"inputs":[],"name":"timeSwappers","outputs":[{"name":"","type":"address"}],"payable":false,"stateMutability":"view","type":"function"},{"constant":false,"inputs":[],"name":"MonthlyNRTRelease","outputs":[{"name":"","type":"bool"}],"payable":false,"stateMutability":"nonpayable","type":"function"},{"constant":true,"inputs":[],"name":"platformMaintenanceBal","outputs":[{"name":"","type":"uint256"}],"payable":false,"stateMutability":"view","type":"function"},{"constant":true,"inputs":[],"name":"timeSwappersNRT","outputs":[{"name":"","type":"uint256"}],"payable":false,"stateMutability":"view","type":"function"},{"constant":true,"inputs":[],"name":"luckPoolBal","outputs":[{"name":"","type":"uint256"}],"payable":false,"stateMutability":"view","type":"function"},{"constant":false,"inputs":[{"name":"pool","type":"address[9]"}],"name":"UpdateAddresses","outputs":[{"name":"","type":"bool"}],"payable":false,"stateMutability":"nonpayable","type":"function"},{"constant":true,"inputs":[],"name":"marketingAndRNRBal","outputs":[{"name":"","type":"uint256"}],"payable":false,"stateMutability":"view","type":"function"},{"constant":true,"inputs":[],"name":"newTalentsAndPartnershipsBal","outputs":[{"name":"","type":"uint256"}],"payable":false,"stateMutability":"view","type":"function"},{"inputs":[{"name":"eraswaptoken","type":"address"}],"payable":false,"stateMutability":"nonpayable","type":"constructor"},{"anonymous":false,"inputs":[{"indexed":false,"name":"NRTReleased","type":"uint256"}],"name":"NRTDistributed","type":"event"},{"anonymous":false,"inputs":[{"indexed":false,"name":"pool","type":"string"},{"indexed":false,"name":"sendAddress","type":"address"},{"indexed":false,"name":"value","type":"uint256"}],"name":"NRTTransfer","type":"event"},{"anonymous":false,"inputs":[{"indexed":false,"name":"amount","type":"uint256"}],"name":"TokensBurned","type":"event"},{"anonymous":false,"inputs":[{"indexed":false,"name":"pool","type":"string"},{"indexed":false,"name":"sendAddress","type":"address"}],"name":"PoolAddressAdded","type":"event"},{"anonymous":false,"inputs":[{"indexed":false,"name":"luckPoolBal","type":"uint256"}],"name":"LuckPoolUpdated","type":"event"},{"anonymous":false,"inputs":[{"indexed":false,"name":"burnTokenBal","type":"uint256"}],"name":"BurnTokenBalUpdated","type":"event"}],"devdoc":{"methods":{"MonthlyNRTRelease()":{"details":"To invoke monthly release","return":"true if success"},"UpdateAddresses(address[9])":{"details":"To update pool addresses","params":{"pool":"- A List of pool addresses Updates if pool address is not already set and if given address is not zero"},"return":"true if success"},"UpdateBurnBal(uint256)":{"details":"Function to trigger to update  for burning of tokens","params":{"amount":"Amount to be updated"}},"UpdateLuckpool(uint256)":{"details":"Function to update luckpool balance","params":{"amount":"Amount to be updated"}},"constructor":{"details":"Constructor"}}},"evm":{"assembly":"    /* \"NRTManager.sol\":76:10264  contract NRTManager {... */\n  mstore(0x40, 0x80)\n    /* \"NRTManager.sol\":9989:10261  constructor(address eraswaptoken) public{... */\n  callvalue\n    /* \"--CODEGEN--\":8:17   */\n  dup1\n    /* \"--CODEGEN--\":5:7   */\n  iszero\n  tag_1\n  jumpi\n    /* \"--CODEGEN--\":30:31   */\n  0x00\n    /* \"--CODEGEN--\":27:28   */\n  dup1\n    /* \"--CODEGEN--\":20:32   */\n  revert\n    /* \"--CODEGEN--\":5:7   */\ntag_1:\n    /* \"NRTManager.sol\":9989:10261  constructor(address eraswaptoken) public{... */\n  pop\n  mload(0x40)\n  sub(codesize, bytecodeSize)\n  dup1\n  bytecodeSize\n  dup4\n  codecopy\n  dup2\n  dup2\n  add\n  0x40\n  mstore\n    /* \"--CODEGEN--\":13:15   */\n  0x20\n    /* \"--CODEGEN--\":8:11   */\n  dup2\n    /* \"--CODEGEN--\":5:16   */\n  lt\n    /* \"--CODEGEN--\":2:4   */\n  iszero\n  tag_2\n  jumpi\n    /* \"--CODEGEN--\":29:30   */\n  0x00\n    /* \"--CODEGEN--\":26:27   */\n  dup1\n    /* \"--CODEGEN--\":19:31   */\n  revert\n    /* \"--CODEGEN--\":2:4   */\ntag_2:\n    /* \"NRTManager.sol\":9989:10261  constructor(address eraswaptoken) public{... */\n  dup2\n  add\n  swap1\n  dup1\n  dup1\n  mload\n  swap1\n  0x20\n  add\n  swap1\n  swap3\n  swap2\n  swap1\n  pop\n  pop\n  pop\n    /* \"NRTManager.sol\":10053:10065  eraswaptoken */\n  dup1\n    /* \"NRTManager.sol\":10037:10042  token */\n  0x06\n  0x00\n    /* \"NRTManager.sol\":10037:10066  token = Eraswap(eraswaptoken) */\n  0x0100\n  exp\n  dup2\n  sload\n  dup2\n  0xffffffffffffffffffffffffffffffffffffffff\n  mul\n  not\n  and\n  swap1\n  dup4\n  0xffffffffffffffffffffffffffffffffffffffff\n  and\n  mul\n  or\n  swap1\n  sstore\n  pop\n    /* \"NRTManager.sol\":10091:10094  now */\n  timestamp\n    /* \"NRTManager.sol\":10074:10088  lastNRTRelease */\n  0x00\n    /* \"NRTManager.sol\":10074:10094  lastNRTRelease = now */\n  dup2\n  swap1\n  sstore\n  pop\n    /* \"NRTManager.sol\":10120:10147  819000000000000000000000000 */\n  0x02a575fef6999c3a13000000\n    /* \"NRTManager.sol\":10102:10117  annualNRTAmount */\n  0x02\n    /* \"NRTManager.sol\":10102:10147  annualNRTAmount = 819000000000000000000000000 */\n  dup2\n  swap1\n  sstore\n  pop\n    /* \"NRTManager.sol\":10174:10206  annualNRTAmount.div(uint256(12)) */\n  tag_5\n    /* \"NRTManager.sol\":10202:10204  12 */\n  0x0c\n    /* \"NRTManager.sol\":10174:10189  annualNRTAmount */\n  sload(0x02)\n    /* \"NRTManager.sol\":10174:10193  annualNRTAmount.div */\n  or(tag_0_119, shl(0x20, tag_6))\n  swap1\n    /* \"NRTManager.sol\":10174:10206  annualNRTAmount.div(uint256(12)) */\n  swap2\n  swap1\n  0x20\n  shr\n  jump\t// in\ntag_5:\n    /* \"NRTManager.sol\":10155:10171  monthlyNRTAmount */\n  0x01\n    /* \"NRTManager.sol\":10155:10206  monthlyNRTAmount = annualNRTAmount.div(uint256(12)) */\n  dup2\n  swap1\n  sstore\n  pop\n    /* \"NRTManager.sol\":10227:10228  0 */\n  0x00\n    /* \"NRTManager.sol\":10214:10224  monthCount */\n  0x03\n    /* \"NRTManager.sol\":10214:10228  monthCount = 0 */\n  dup2\n  swap1\n  sstore\n  pop\n    /* \"NRTManager.sol\":10244:10254  msg.sender */\n  caller\n    /* \"NRTManager.sol\":10236:10241  Owner */\n  0x07\n  0x00\n    /* \"NRTManager.sol\":10236:10254  Owner = msg.sender */\n  0x0100\n  exp\n  dup2\n  sload\n  dup2\n  0xffffffffffffffffffffffffffffffffffffffff\n  mul\n  not\n  and\n  swap1\n  dup4\n  0xffffffffffffffffffffffffffffffffffffffff\n  and\n  mul\n  or\n  swap1\n  sstore\n  pop\n    /* \"NRTManager.sol\":9989:10261  constructor(address eraswaptoken) public{... */\n  pop\n    /* \"NRTManager.sol\":76:10264  contract NRTManager {... */\n  jump(tag_7)\n    /* \"SafeMath.sol\":782:1078  function div(uint256 a, uint256 b) internal pure returns (uint256) {... */\ntag_6:\n    /* \"SafeMath.sol\":840:847  uint256 */\n  0x00\n    /* \"SafeMath.sol\":937:938  0 */\n  dup1\n    /* \"SafeMath.sol\":933:934  b */\n  dup3\n    /* \"SafeMath.sol\":933:938  b > 0 */\n  gt\n    /* \"SafeMath.sol\":925:939  require(b > 0) */\n  tag_9\n  jumpi\n  0x00\n  dup1\n  revert\ntag_9:\n    /* \"SafeMath.sol\":949:958  uint256 c */\n  0x00\n    /* \"SafeMath.sol\":965:966  b */\n  dup3\n    /* \"SafeMath.sol\":961:962  a */\n  dup5\n    /* \"SafeMath.sol\":961:966  a / b */\n  dup2\n  tag_10\n  jumpi\n  invalid\ntag_10:\n  div\n    /* \"SafeMath.sol\":949:966  uint256 c = a / b */\n  swap1\n  pop\n    /* \"SafeMath.sol\":1070:1071  c */\n  dup1\n    /* \"SafeMath.sol\":1063:1071  return c */\n  swap2\n  pop\n  pop\n    /* \"SafeMath.sol\":782:1078  function div(uint256 a, uint256 b) internal pure returns (uint256) {... */\n  swap3\n  swap2\n  pop\n  pop\n  jump\t// out\n    /* \"NRTManager.sol\":76:10264  contract NRTManager {... */\ntag_7:\n  dataSize(sub_0)\n  dup1\n  dataOffset(sub_0)\n  0x00\n  codecopy\n  0x00\n  return\nstop\n\nsub_0: assembly {\n        /* \"NRTManager.sol\":76:10264  contract NRTManager {... */\n      mstore(0x40, 0x80)\n      callvalue\n        /* \"--CODEGEN--\":8:17   */\n      dup1\n        /* \"--CODEGEN--\":5:7   */\n      iszero\n      tag_1\n      jumpi\n        /* \"--CODEGEN--\":30:31   */\n      0x00\n        /* \"--CODEGEN--\":27:28   */\n      dup1\n        /* \"--CODEGEN--\":20:32   */\n      revert\n        /* \"--CODEGEN--\":5:7   */\n    tag_1:\n        /* \"NRTManager.sol\":76:10264  contract NRTManager {... */\n      pop\n      jumpi(tag_2, lt(calldatasize, 0x04))\n      shr(0xe0, calldataload(0x00))\n      dup1\n      0x682667a9\n      gt\n      tag_31\n      jumpi\n      dup1\n      0xb018abbd\n      gt\n      tag_32\n      jumpi\n      dup1\n      0xc3348a8b\n      gt\n      tag_33\n      jumpi\n      dup1\n      0xc3348a8b\n      eq\n      tag_27\n      jumpi\n      dup1\n      0xcb358efa\n      eq\n      tag_28\n      jumpi\n      dup1\n      0xd37eb950\n      eq\n      tag_29\n      jumpi\n      dup1\n      0xe71a3bfd\n      eq\n      tag_30\n      jumpi\n      jump(tag_2)\n    tag_33:\n      dup1\n      0xb018abbd\n      eq\n      tag_24\n      jumpi\n      dup1\n      0xbd27d361\n      eq\n      tag_25\n      jumpi\n      dup1\n      0xbfb3d6c8\n      eq\n      tag_26\n      jumpi\n      jump(tag_2)\n    tag_32:\n      dup1\n      0x7b8c0b79\n      gt\n      tag_34\n      jumpi\n      dup1\n      0x7b8c0b79\n      eq\n      tag_20\n      jumpi\n      dup1\n      0x7d53257a\n      eq\n      tag_21\n      jumpi\n      dup1\n      0x9662ac58\n      eq\n      tag_22\n      jumpi\n      dup1\n      0x9cd417de\n      eq\n      tag_23\n      jumpi\n      jump(tag_2)\n    tag_34:\n      dup1\n      0x682667a9\n      eq\n      tag_17\n      jumpi\n      dup1\n      0x6db42ca5\n      eq\n      tag_18\n      jumpi\n      dup1\n      0x797d123c\n      eq\n      tag_19\n      jumpi\n      jump(tag_2)\n    tag_31:\n      dup1\n      0x41aaa9b6\n      gt\n      tag_35\n      jumpi\n      dup1\n      0x5c12278d\n      gt\n      tag_36\n      jumpi\n      dup1\n      0x5c12278d\n      eq\n      tag_13\n      jumpi\n      dup1\n      0x5f7ce89f\n      eq\n      tag_14\n      jumpi\n      dup1\n      0x6037d2a3\n      eq\n      tag_15\n      jumpi\n      dup1\n      0x65c00470\n      eq\n      tag_16\n      jumpi\n      jump(tag_2)\n    tag_36:\n      dup1\n      0x41aaa9b6\n      eq\n      tag_10\n      jumpi\n      dup1\n      0x4a4581aa\n      eq\n      tag_11\n      jumpi\n      dup1\n      0x51bd70b1\n      eq\n      tag_12\n      jumpi\n      jump(tag_2)\n    tag_35:\n      dup1\n      0x2cfceb07\n      gt\n      tag_37\n      jumpi\n      dup1\n      0x2cfceb07\n      eq\n      tag_6\n      jumpi\n      dup1\n      0x382e2aab\n      eq\n      tag_7\n      jumpi\n      dup1\n      0x3a18a9fd\n      eq\n      tag_8\n      jumpi\n      dup1\n      0x3e04f4f9\n      eq\n      tag_9\n      jumpi\n      jump(tag_2)\n    tag_37:\n      dup1\n      0x0b3e29b8\n      eq\n      tag_3\n      jumpi\n      dup1\n      0x0d4e57a4\n      eq\n      tag_4\n      jumpi\n      dup1\n      0x26b3bf2f\n      eq\n      tag_5\n      jumpi\n    tag_2:\n      0x00\n      dup1\n      revert\n        /* \"NRTManager.sol\":931:962  address public contingencyFunds */\n    tag_3:\n      tag_38\n      tag_39\n      jump\t// in\n    tag_38:\n      mload(0x40)\n      dup1\n      dup3\n      0xffffffffffffffffffffffffffffffffffffffff\n      and\n      0xffffffffffffffffffffffffffffffffffffffff\n      and\n      dup2\n      mstore\n      0x20\n      add\n      swap2\n      pop\n      pop\n      mload(0x40)\n      dup1\n      swap2\n      sub\n      swap1\n      return\n        /* \"NRTManager.sol\":428:453  uint256 public monthCount */\n    tag_4:\n      tag_40\n      tag_41\n      jump\t// in\n    tag_40:\n      mload(0x40)\n      dup1\n      dup3\n      dup2\n      mstore\n      0x20\n      add\n      swap2\n      pop\n      pop\n      mload(0x40)\n      dup1\n      swap2\n      sub\n      swap1\n      return\n        /* \"NRTManager.sol\":781:821  address public newTalentsAndPartnerships */\n    tag_5:\n      tag_42\n      tag_43\n      jump\t// in\n    tag_42:\n      mload(0x40)\n      dup1\n      dup3\n      0xffffffffffffffffffffffffffffffffffffffff\n      and\n      0xffffffffffffffffffffffffffffffffffffffff\n      and\n      dup2\n      mstore\n      0x20\n      add\n      swap2\n      pop\n      pop\n      mload(0x40)\n      dup1\n      swap2\n      sub\n      swap1\n      return\n        /* \"NRTManager.sol\":1551:1576  uint256 public kmPardsBal */\n    tag_6:\n      tag_44\n      tag_45\n      jump\t// in\n    tag_44:\n      mload(0x40)\n      dup1\n      dup3\n      dup2\n      mstore\n      0x20\n      add\n      swap2\n      pop\n      pop\n      mload(0x40)\n      dup1\n      swap2\n      sub\n      swap1\n      return\n        /* \"NRTManager.sol\":6491:6691  function UpdateLuckpool(uint256 amount) external OnlyAllowed returns(bool){... */\n    tag_7:\n      tag_46\n      0x04\n      dup1\n      calldatasize\n      sub\n        /* \"--CODEGEN--\":13:15   */\n      0x20\n        /* \"--CODEGEN--\":8:11   */\n      dup2\n        /* \"--CODEGEN--\":5:16   */\n      lt\n        /* \"--CODEGEN--\":2:4   */\n      iszero\n      tag_47\n      jumpi\n        /* \"--CODEGEN--\":29:30   */\n      0x00\n        /* \"--CODEGEN--\":26:27   */\n      dup1\n        /* \"--CODEGEN--\":19:31   */\n      revert\n        /* \"--CODEGEN--\":2:4   */\n    tag_47:\n        /* \"NRTManager.sol\":6491:6691  function UpdateLuckpool(uint256 amount) external OnlyAllowed returns(bool){... */\n      dup2\n      add\n      swap1\n      dup1\n      dup1\n      calldataload\n      swap1\n      0x20\n      add\n      swap1\n      swap3\n      swap2\n      swap1\n      pop\n      pop\n      pop\n      tag_48\n      jump\t// in\n    tag_46:\n      mload(0x40)\n      dup1\n      dup3\n      iszero\n      iszero\n      iszero\n      iszero\n      dup2\n      mstore\n      0x20\n      add\n      swap2\n      pop\n      pop\n      mload(0x40)\n      dup1\n      swap2\n      sub\n      swap1\n      return\n        /* \"NRTManager.sol\":827:861  address public platformMaintenance */\n    tag_8:\n      tag_49\n      tag_50\n      jump\t// in\n    tag_49:\n      mload(0x40)\n      dup1\n      dup3\n      0xffffffffffffffffffffffffffffffffffffffff\n      and\n      0xffffffffffffffffffffffffffffffffffffffff\n      and\n      dup2\n      mstore\n      0x20\n      add\n      swap2\n      pop\n      pop\n      mload(0x40)\n      dup1\n      swap2\n      sub\n      swap1\n      return\n        /* \"NRTManager.sol\":1969:1995  uint256 public timeAllyNRT */\n    tag_9:\n      tag_51\n      tag_52\n      jump\t// in\n    tag_51:\n      mload(0x40)\n      dup1\n      dup3\n      dup2\n      mstore\n      0x20\n      add\n      swap2\n      pop\n      pop\n      mload(0x40)\n      dup1\n      swap2\n      sub\n      swap1\n      return\n        /* \"NRTManager.sol\":6827:7032  function UpdateBurnBal(uint256 amount) external OnlyAllowed returns(bool){... */\n    tag_10:\n      tag_53\n      0x04\n      dup1\n      calldatasize\n      sub\n        /* \"--CODEGEN--\":13:15   */\n      0x20\n        /* \"--CODEGEN--\":8:11   */\n      dup2\n        /* \"--CODEGEN--\":5:16   */\n      lt\n        /* \"--CODEGEN--\":2:4   */\n      iszero\n      tag_54\n      jumpi\n        /* \"--CODEGEN--\":29:30   */\n      0x00\n        /* \"--CODEGEN--\":26:27   */\n      dup1\n        /* \"--CODEGEN--\":19:31   */\n      revert\n        /* \"--CODEGEN--\":2:4   */\n    tag_54:\n        /* \"NRTManager.sol\":6827:7032  function UpdateBurnBal(uint256 amount) external OnlyAllowed returns(bool){... */\n      dup2\n      add\n      swap1\n      dup1\n      dup1\n      calldataload\n      swap1\n      0x20\n      add\n      swap1\n      swap3\n      swap2\n      swap1\n      pop\n      pop\n      pop\n      tag_55\n      jump\t// in\n    tag_53:\n      mload(0x40)\n      dup1\n      dup3\n      iszero\n      iszero\n      iszero\n      iszero\n      dup2\n      mstore\n      0x20\n      add\n      swap2\n      pop\n      pop\n      mload(0x40)\n      dup1\n      swap2\n      sub\n      swap1\n      return\n        /* \"NRTManager.sol\":606:633  uint256 public burnTokenBal */\n    tag_11:\n      tag_56\n      tag_57\n      jump\t// in\n    tag_56:\n      mload(0x40)\n      dup1\n      dup3\n      dup2\n      mstore\n      0x20\n      add\n      swap2\n      pop\n      pop\n      mload(0x40)\n      dup1\n      swap2\n      sub\n      swap1\n      return\n        /* \"NRTManager.sol\":867:897  address public marketingAndRNR */\n    tag_12:\n      tag_58\n      tag_59\n      jump\t// in\n    tag_58:\n      mload(0x40)\n      dup1\n      dup3\n      0xffffffffffffffffffffffffffffffffffffffff\n      and\n      0xffffffffffffffffffffffffffffffffffffffff\n      and\n      dup2\n      mstore\n      0x20\n      add\n      swap2\n      pop\n      pop\n      mload(0x40)\n      dup1\n      swap2\n      sub\n      swap1\n      return\n        /* \"NRTManager.sol\":968:1005  address public researchAndDevelopment */\n    tag_13:\n      tag_60\n      tag_61\n      jump\t// in\n    tag_60:\n      mload(0x40)\n      dup1\n      dup3\n      0xffffffffffffffffffffffffffffffffffffffff\n      and\n      0xffffffffffffffffffffffffffffffffffffffff\n      and\n      dup2\n      mstore\n      0x20\n      add\n      swap2\n      pop\n      pop\n      mload(0x40)\n      dup1\n      swap2\n      sub\n      swap1\n      return\n        /* \"NRTManager.sol\":1655:1689  uint256 public contingencyFundsBal */\n    tag_14:\n      tag_62\n      tag_63\n      jump\t// in\n    tag_62:\n      mload(0x40)\n      dup1\n      dup3\n      dup2\n      mstore\n      0x20\n      add\n      swap2\n      pop\n      pop\n      mload(0x40)\n      dup1\n      swap2\n      sub\n      swap1\n      return\n        /* \"NRTManager.sol\":223:254  uint256 public monthlyNRTAmount */\n    tag_15:\n      tag_64\n      tag_65\n      jump\t// in\n    tag_64:\n      mload(0x40)\n      dup1\n      dup3\n      dup2\n      mstore\n      0x20\n      add\n      swap2\n      pop\n      pop\n      mload(0x40)\n      dup1\n      swap2\n      sub\n      swap1\n      return\n        /* \"NRTManager.sol\":903:925  address public kmPards */\n    tag_16:\n      tag_66\n      tag_67\n      jump\t// in\n    tag_66:\n      mload(0x40)\n      dup1\n      dup3\n      0xffffffffffffffffffffffffffffffffffffffff\n      and\n      0xffffffffffffffffffffffffffffffffffffffff\n      and\n      dup2\n      mstore\n      0x20\n      add\n      swap2\n      pop\n      pop\n      mload(0x40)\n      dup1\n      swap2\n      sub\n      swap1\n      return\n        /* \"NRTManager.sol\":1157:1180  address public timeAlly */\n    tag_17:\n      tag_68\n      tag_69\n      jump\t// in\n    tag_68:\n      mload(0x40)\n      dup1\n      dup3\n      0xffffffffffffffffffffffffffffffffffffffff\n      and\n      0xffffffffffffffffffffffffffffffffffffffff\n      and\n      dup2\n      mstore\n      0x20\n      add\n      swap2\n      pop\n      pop\n      mload(0x40)\n      dup1\n      swap2\n      sub\n      swap1\n      return\n        /* \"NRTManager.sol\":1863:1891  uint256 public powerTokenNRT */\n    tag_18:\n      tag_70\n      tag_71\n      jump\t// in\n    tag_70:\n      mload(0x40)\n      dup1\n      dup3\n      dup2\n      mstore\n      0x20\n      add\n      swap2\n      pop\n      pop\n      mload(0x40)\n      dup1\n      swap2\n      sub\n      swap1\n      return\n        /* \"NRTManager.sol\":136:165  uint256 public lastNRTRelease */\n    tag_19:\n      tag_72\n      tag_73\n      jump\t// in\n    tag_72:\n      mload(0x40)\n      dup1\n      dup3\n      dup2\n      mstore\n      0x20\n      add\n      swap2\n      pop\n      pop\n      mload(0x40)\n      dup1\n      swap2\n      sub\n      swap1\n      return\n        /* \"NRTManager.sol\":326:356  uint256 public annualNRTAmount */\n    tag_20:\n      tag_74\n      tag_75\n      jump\t// in\n    tag_74:\n      mload(0x40)\n      dup1\n      dup3\n      dup2\n      mstore\n      0x20\n      add\n      swap2\n      pop\n      pop\n      mload(0x40)\n      dup1\n      swap2\n      sub\n      swap1\n      return\n        /* \"NRTManager.sol\":1759:1799  uint256 public researchAndDevelopmentBal */\n    tag_21:\n      tag_76\n      tag_77\n      jump\t// in\n    tag_76:\n      mload(0x40)\n      dup1\n      dup3\n      dup2\n      mstore\n      0x20\n      add\n      swap2\n      pop\n      pop\n      mload(0x40)\n      dup1\n      swap2\n      sub\n      swap1\n      return\n        /* \"NRTManager.sol\":1011:1036  address public powerToken */\n    tag_22:\n      tag_78\n      tag_79\n      jump\t// in\n    tag_78:\n      mload(0x40)\n      dup1\n      dup3\n      0xffffffffffffffffffffffffffffffffffffffff\n      and\n      0xffffffffffffffffffffffffffffffffffffffff\n      and\n      dup2\n      mstore\n      0x20\n      add\n      swap2\n      pop\n      pop\n      mload(0x40)\n      dup1\n      swap2\n      sub\n      swap1\n      return\n        /* \"NRTManager.sol\":1042:1069  address public timeSwappers */\n    tag_23:\n      tag_80\n      tag_81\n      jump\t// in\n    tag_80:\n      mload(0x40)\n      dup1\n      dup3\n      0xffffffffffffffffffffffffffffffffffffffff\n      and\n      0xffffffffffffffffffffffffffffffffffffffff\n      and\n      dup2\n      mstore\n      0x20\n      add\n      swap2\n      pop\n      pop\n      mload(0x40)\n      dup1\n      swap2\n      sub\n      swap1\n      return\n        /* \"NRTManager.sol\":7131:9943  function MonthlyNRTRelease() external returns (bool) {... */\n    tag_24:\n      tag_82\n      tag_83\n      jump\t// in\n    tag_82:\n      mload(0x40)\n      dup1\n      dup3\n      iszero\n      iszero\n      iszero\n      iszero\n      dup2\n      mstore\n      0x20\n      add\n      swap2\n      pop\n      pop\n      mload(0x40)\n      dup1\n      swap2\n      sub\n      swap1\n      return\n        /* \"NRTManager.sol\":1343:1380  uint256 public platformMaintenanceBal */\n    tag_25:\n      tag_84\n      tag_85\n      jump\t// in\n    tag_84:\n      mload(0x40)\n      dup1\n      dup3\n      dup2\n      mstore\n      0x20\n      add\n      swap2\n      pop\n      pop\n      mload(0x40)\n      dup1\n      swap2\n      sub\n      swap1\n      return\n        /* \"NRTManager.sol\":2074:2104  uint256 public timeSwappersNRT */\n    tag_26:\n      tag_86\n      tag_87\n      jump\t// in\n    tag_86:\n      mload(0x40)\n      dup1\n      dup3\n      dup2\n      mstore\n      0x20\n      add\n      swap2\n      pop\n      pop\n      mload(0x40)\n      dup1\n      swap2\n      sub\n      swap1\n      return\n        /* \"NRTManager.sol\":538:564  uint256 public luckPoolBal */\n    tag_27:\n      tag_88\n      tag_89\n      jump\t// in\n    tag_88:\n      mload(0x40)\n      dup1\n      dup3\n      dup2\n      mstore\n      0x20\n      add\n      swap2\n      pop\n      pop\n      mload(0x40)\n      dup1\n      swap2\n      sub\n      swap1\n      return\n        /* \"NRTManager.sol\":4558:6371  function UpdateAddresses (address[9] calldata pool) external OnlyOwner  returns(bool){... */\n    tag_28:\n      tag_90\n      0x04\n      dup1\n      calldatasize\n      sub\n        /* \"--CODEGEN--\":13:16   */\n      0x0120\n        /* \"--CODEGEN--\":8:11   */\n      dup2\n        /* \"--CODEGEN--\":5:17   */\n      lt\n        /* \"--CODEGEN--\":2:4   */\n      iszero\n      tag_91\n      jumpi\n        /* \"--CODEGEN--\":30:31   */\n      0x00\n        /* \"--CODEGEN--\":27:28   */\n      dup1\n        /* \"--CODEGEN--\":20:32   */\n      revert\n        /* \"--CODEGEN--\":2:4   */\n    tag_91:\n        /* \"NRTManager.sol\":4558:6371  function UpdateAddresses (address[9] calldata pool) external OnlyOwner  returns(bool){... */\n      dup2\n      add\n      swap1\n      dup1\n      dup1\n      0x0120\n      add\n      swap1\n      swap2\n      swap3\n      swap2\n      swap3\n      swap1\n      pop\n      pop\n      pop\n      tag_92\n      jump\t// in\n    tag_90:\n      mload(0x40)\n      dup1\n      dup3\n      iszero\n      iszero\n      iszero\n      iszero\n      dup2\n      mstore\n      0x20\n      add\n      swap2\n      pop\n      pop\n      mload(0x40)\n      dup1\n      swap2\n      sub\n      swap1\n      return\n        /* \"NRTManager.sol\":1447:1480  uint256 public marketingAndRNRBal */\n    tag_29:\n      tag_93\n      tag_94\n      jump\t// in\n    tag_93:\n      mload(0x40)\n      dup1\n      dup3\n      dup2\n      mstore\n      0x20\n      add\n      swap2\n      pop\n      pop\n      mload(0x40)\n      dup1\n      swap2\n      sub\n      swap1\n      return\n        /* \"NRTManager.sol\":1239:1282  uint256 public newTalentsAndPartnershipsBal */\n    tag_30:\n      tag_95\n      tag_96\n      jump\t// in\n    tag_95:\n      mload(0x40)\n      dup1\n      dup3\n      dup2\n      mstore\n      0x20\n      add\n      swap2\n      pop\n      pop\n      mload(0x40)\n      dup1\n      swap2\n      sub\n      swap1\n      return\n        /* \"NRTManager.sol\":931:962  address public contingencyFunds */\n    tag_39:\n      0x0c\n      0x00\n      swap1\n      sload\n      swap1\n      0x0100\n      exp\n      swap1\n      div\n      0xffffffffffffffffffffffffffffffffffffffff\n      and\n      dup2\n      jump\t// out\n        /* \"NRTManager.sol\":428:453  uint256 public monthCount */\n    tag_41:\n      sload(0x03)\n      dup2\n      jump\t// out\n        /* \"NRTManager.sol\":781:821  address public newTalentsAndPartnerships */\n    tag_43:\n      0x08\n      0x00\n      swap1\n      sload\n      swap1\n      0x0100\n      exp\n      swap1\n      div\n      0xffffffffffffffffffffffffffffffffffffffff\n      and\n      dup2\n      jump\t// out\n        /* \"NRTManager.sol\":1551:1576  uint256 public kmPardsBal */\n    tag_45:\n      sload(0x14)\n      dup2\n      jump\t// out\n        /* \"NRTManager.sol\":6491:6691  function UpdateLuckpool(uint256 amount) external OnlyAllowed returns(bool){... */\n    tag_48:\n        /* \"NRTManager.sol\":6560:6564  bool */\n      0x00\n        /* \"NRTManager.sol\":3394:3402  timeAlly */\n      0x10\n      0x00\n      swap1\n      sload\n      swap1\n      0x0100\n      exp\n      swap1\n      div\n      0xffffffffffffffffffffffffffffffffffffffff\n      and\n        /* \"NRTManager.sol\":3380:3402  msg.sender == timeAlly */\n      0xffffffffffffffffffffffffffffffffffffffff\n      and\n        /* \"NRTManager.sol\":3380:3390  msg.sender */\n      caller\n        /* \"NRTManager.sol\":3380:3402  msg.sender == timeAlly */\n      0xffffffffffffffffffffffffffffffffffffffff\n      and\n      eq\n        /* \"NRTManager.sol\":3380:3432  msg.sender == timeAlly || msg.sender == timeSwappers */\n      dup1\n      tag_98\n      jumpi\n      pop\n        /* \"NRTManager.sol\":3420:3432  timeSwappers */\n      0x0f\n      0x00\n      swap1\n      sload\n      swap1\n      0x0100\n      exp\n      swap1\n      div\n      0xffffffffffffffffffffffffffffffffffffffff\n      and\n        /* \"NRTManager.sol\":3406:3432  msg.sender == timeSwappers */\n      0xffffffffffffffffffffffffffffffffffffffff\n      and\n        /* \"NRTManager.sol\":3406:3416  msg.sender */\n      caller\n        /* \"NRTManager.sol\":3406:3432  msg.sender == timeSwappers */\n      0xffffffffffffffffffffffffffffffffffffffff\n      and\n      eq\n        /* \"NRTManager.sol\":3380:3432  msg.sender == timeAlly || msg.sender == timeSwappers */\n    tag_98:\n        /* \"NRTManager.sol\":3372:3479  require(msg.sender == timeAlly || msg.sender == timeSwappers,\"Only TimeAlly and Timeswapper is authorised\") */\n      tag_99\n      jumpi\n      mload(0x40)\n      0x08c379a000000000000000000000000000000000000000000000000000000000\n      dup2\n      mstore\n      0x04\n      add\n      dup1\n      dup1\n      0x20\n      add\n      dup3\n      dup2\n      sub\n      dup3\n      mstore\n      0x2b\n      dup2\n      mstore\n      0x20\n      add\n      dup1\n      data_75b80d254974e234aa097720f74460cadd2b76f17d7eb2120a344a75769d98ab\n      0x2b\n      swap2\n      codecopy\n      0x40\n      add\n      swap2\n      pop\n      pop\n      mload(0x40)\n      dup1\n      swap2\n      sub\n      swap1\n      revert\n    tag_99:\n        /* \"NRTManager.sol\":6595:6618  luckPoolBal.add(amount) */\n      tag_101\n        /* \"NRTManager.sol\":6611:6617  amount */\n      dup3\n        /* \"NRTManager.sol\":6595:6606  luckPoolBal */\n      sload(0x04)\n        /* \"NRTManager.sol\":6595:6610  luckPoolBal.add */\n      tag_102\n      swap1\n        /* \"NRTManager.sol\":6595:6618  luckPoolBal.add(amount) */\n      swap2\n      swap1\n      0xffffffff\n      and\n      jump\t// in\n    tag_101:\n        /* \"NRTManager.sol\":6581:6592  luckPoolBal */\n      0x04\n        /* \"NRTManager.sol\":6581:6618  luckPoolBal = luckPoolBal.add(amount) */\n      dup2\n      swap1\n      sstore\n      pop\n        /* \"NRTManager.sol\":6633:6661  LuckPoolUpdated(luckPoolBal) */\n      0xc9c58ca254a2bde8ce607d1f5211f98c28c52efcea5216a867ea933b95efc31f\n        /* \"NRTManager.sol\":6649:6660  luckPoolBal */\n      sload(0x04)\n        /* \"NRTManager.sol\":6633:6661  LuckPoolUpdated(luckPoolBal) */\n      mload(0x40)\n      dup1\n      dup3\n      dup2\n      mstore\n      0x20\n      add\n      swap2\n      pop\n      pop\n      mload(0x40)\n      dup1\n      swap2\n      sub\n      swap1\n      log1\n        /* \"NRTManager.sol\":6678:6682  true */\n      0x01\n        /* \"NRTManager.sol\":6671:6682  return true */\n      swap1\n      pop\n        /* \"NRTManager.sol\":6491:6691  function UpdateLuckpool(uint256 amount) external OnlyAllowed returns(bool){... */\n      swap2\n      swap1\n      pop\n      jump\t// out\n        /* \"NRTManager.sol\":827:861  address public platformMaintenance */\n    tag_50:\n      0x09\n      0x00\n      swap1\n      sload\n      swap1\n      0x0100\n      exp\n      swap1\n      div\n      0xffffffffffffffffffffffffffffffffffffffff\n      and\n      dup2\n      jump\t// out\n        /* \"NRTManager.sol\":1969:1995  uint256 public timeAllyNRT */\n    tag_52:\n      sload(0x18)\n      dup2\n      jump\t// out\n        /* \"NRTManager.sol\":6827:7032  function UpdateBurnBal(uint256 amount) external OnlyAllowed returns(bool){... */\n    tag_55:\n        /* \"NRTManager.sol\":6895:6899  bool */\n      0x00\n        /* \"NRTManager.sol\":3394:3402  timeAlly */\n      0x10\n      0x00\n      swap1\n      sload\n      swap1\n      0x0100\n      exp\n      swap1\n      div\n      0xffffffffffffffffffffffffffffffffffffffff\n      and\n        /* \"NRTManager.sol\":3380:3402  msg.sender == timeAlly */\n      0xffffffffffffffffffffffffffffffffffffffff\n      and\n        /* \"NRTManager.sol\":3380:3390  msg.sender */\n      caller\n        /* \"NRTManager.sol\":3380:3402  msg.sender == timeAlly */\n      0xffffffffffffffffffffffffffffffffffffffff\n      and\n      eq\n        /* \"NRTManager.sol\":3380:3432  msg.sender == timeAlly || msg.sender == timeSwappers */\n      dup1\n      tag_104\n      jumpi\n      pop\n        /* \"NRTManager.sol\":3420:3432  timeSwappers */\n      0x0f\n      0x00\n      swap1\n      sload\n      swap1\n      0x0100\n      exp\n      swap1\n      div\n      0xffffffffffffffffffffffffffffffffffffffff\n      and\n        /* \"NRTManager.sol\":3406:3432  msg.sender == timeSwappers */\n      0xffffffffffffffffffffffffffffffffffffffff\n      and\n        /* \"NRTManager.sol\":3406:3416  msg.sender */\n      caller\n        /* \"NRTManager.sol\":3406:3432  msg.sender == timeSwappers */\n      0xffffffffffffffffffffffffffffffffffffffff\n      and\n      eq\n        /* \"NRTManager.sol\":3380:3432  msg.sender == timeAlly || msg.sender == timeSwappers */\n    tag_104:\n        /* \"NRTManager.sol\":3372:3479  require(msg.sender == timeAlly || msg.sender == timeSwappers,\"Only TimeAlly and Timeswapper is authorised\") */\n      tag_105\n      jumpi\n      mload(0x40)\n      0x08c379a000000000000000000000000000000000000000000000000000000000\n      dup2\n      mstore\n      0x04\n      add\n      dup1\n      dup1\n      0x20\n      add\n      dup3\n      dup2\n      sub\n      dup3\n      mstore\n      0x2b\n      dup2\n      mstore\n      0x20\n      add\n      dup1\n      data_75b80d254974e234aa097720f74460cadd2b76f17d7eb2120a344a75769d98ab\n      0x2b\n      swap2\n      codecopy\n      0x40\n      add\n      swap2\n      pop\n      pop\n      mload(0x40)\n      dup1\n      swap2\n      sub\n      swap1\n      revert\n    tag_105:\n        /* \"NRTManager.sol\":6930:6954  burnTokenBal.add(amount) */\n      tag_107\n        /* \"NRTManager.sol\":6947:6953  amount */\n      dup3\n        /* \"NRTManager.sol\":6930:6942  burnTokenBal */\n      sload(0x05)\n        /* \"NRTManager.sol\":6930:6946  burnTokenBal.add */\n      tag_102\n      swap1\n        /* \"NRTManager.sol\":6930:6954  burnTokenBal.add(amount) */\n      swap2\n      swap1\n      0xffffffff\n      and\n      jump\t// in\n    tag_107:\n        /* \"NRTManager.sol\":6915:6927  burnTokenBal */\n      0x05\n        /* \"NRTManager.sol\":6915:6954  burnTokenBal = burnTokenBal.add(amount) */\n      dup2\n      swap1\n      sstore\n      pop\n        /* \"NRTManager.sol\":6969:7002  BurnTokenBalUpdated(burnTokenBal) */\n      0x8f740eb8352e99b7242ce9c7cec021ee8b28b4acef603ff1260fe8b722822fec\n        /* \"NRTManager.sol\":6989:7001  burnTokenBal */\n      sload(0x05)\n        /* \"NRTManager.sol\":6969:7002  BurnTokenBalUpdated(burnTokenBal) */\n      mload(0x40)\n      dup1\n      dup3\n      dup2\n      mstore\n      0x20\n      add\n      swap2\n      pop\n      pop\n      mload(0x40)\n      dup1\n      swap2\n      sub\n      swap1\n      log1\n        /* \"NRTManager.sol\":7019:7023  true */\n      0x01\n        /* \"NRTManager.sol\":7012:7023  return true */\n      swap1\n      pop\n        /* \"NRTManager.sol\":6827:7032  function UpdateBurnBal(uint256 amount) external OnlyAllowed returns(bool){... */\n      swap2\n      swap1\n      pop\n      jump\t// out\n        /* \"NRTManager.sol\":606:633  uint256 public burnTokenBal */\n    tag_57:\n      sload(0x05)\n      dup2\n      jump\t// out\n        /* \"NRTManager.sol\":867:897  address public marketingAndRNR */\n    tag_59:\n      0x0a\n      0x00\n      swap1\n      sload\n      swap1\n      0x0100\n      exp\n      swap1\n      div\n      0xffffffffffffffffffffffffffffffffffffffff\n      and\n      dup2\n      jump\t// out\n        /* \"NRTManager.sol\":968:1005  address public researchAndDevelopment */\n    tag_61:\n      0x0d\n      0x00\n      swap1\n      sload\n      swap1\n      0x0100\n      exp\n      swap1\n      div\n      0xffffffffffffffffffffffffffffffffffffffff\n      and\n      dup2\n      jump\t// out\n        /* \"NRTManager.sol\":1655:1689  uint256 public contingencyFundsBal */\n    tag_63:\n      sload(0x15)\n      dup2\n      jump\t// out\n        /* \"NRTManager.sol\":223:254  uint256 public monthlyNRTAmount */\n    tag_65:\n      sload(0x01)\n      dup2\n      jump\t// out\n        /* \"NRTManager.sol\":903:925  address public kmPards */\n    tag_67:\n      0x0b\n      0x00\n      swap1\n      sload\n      swap1\n      0x0100\n      exp\n      swap1\n      div\n      0xffffffffffffffffffffffffffffffffffffffff\n      and\n      dup2\n      jump\t// out\n        /* \"NRTManager.sol\":1157:1180  address public timeAlly */\n    tag_69:\n      0x10\n      0x00\n      swap1\n      sload\n      swap1\n      0x0100\n      exp\n      swap1\n      div\n      0xffffffffffffffffffffffffffffffffffffffff\n      and\n      dup2\n      jump\t// out\n        /* \"NRTManager.sol\":1863:1891  uint256 public powerTokenNRT */\n    tag_71:\n      sload(0x17)\n      dup2\n      jump\t// out\n        /* \"NRTManager.sol\":136:165  uint256 public lastNRTRelease */\n    tag_73:\n      sload(0x00)\n      dup2\n      jump\t// out\n        /* \"NRTManager.sol\":326:356  uint256 public annualNRTAmount */\n    tag_75:\n      sload(0x02)\n      dup2\n      jump\t// out\n        /* \"NRTManager.sol\":1759:1799  uint256 public researchAndDevelopmentBal */\n    tag_77:\n      sload(0x16)\n      dup2\n      jump\t// out\n        /* \"NRTManager.sol\":1011:1036  address public powerToken */\n    tag_79:\n      0x0e\n      0x00\n      swap1\n      sload\n      swap1\n      0x0100\n      exp\n      swap1\n      div\n      0xffffffffffffffffffffffffffffffffffffffff\n      and\n      dup2\n      jump\t// out\n        /* \"NRTManager.sol\":1042:1069  address public timeSwappers */\n    tag_81:\n      0x0f\n      0x00\n      swap1\n      sload\n      swap1\n      0x0100\n      exp\n      swap1\n      div\n      0xffffffffffffffffffffffffffffffffffffffff\n      and\n      dup2\n      jump\t// out\n        /* \"NRTManager.sol\":7131:9943  function MonthlyNRTRelease() external returns (bool) {... */\n    tag_83:\n        /* \"NRTManager.sol\":7178:7182  bool */\n      0x00\n        /* \"NRTManager.sol\":7235:7242  2592000 */\n      0x278d00\n        /* \"NRTManager.sol\":7202:7233  token.mou().sub(lastNRTRelease) */\n      tag_109\n        /* \"NRTManager.sol\":7218:7232  lastNRTRelease */\n      sload(0x00)\n        /* \"NRTManager.sol\":7202:7207  token */\n      0x06\n      0x00\n      swap1\n      sload\n      swap1\n      0x0100\n      exp\n      swap1\n      div\n      0xffffffffffffffffffffffffffffffffffffffff\n      and\n        /* \"NRTManager.sol\":7202:7211  token.mou */\n      0xffffffffffffffffffffffffffffffffffffffff\n      and\n      0xb81f90f3\n        /* \"NRTManager.sol\":7202:7213  token.mou() */\n      mload(0x40)\n      dup2\n      0xffffffff\n      and\n      0xe0\n      shl\n      dup2\n      mstore\n      0x04\n      add\n      0x20\n      mload(0x40)\n      dup1\n      dup4\n      sub\n      dup2\n      dup7\n      dup1\n      extcodesize\n      iszero\n        /* \"--CODEGEN--\":8:17   */\n      dup1\n        /* \"--CODEGEN--\":5:7   */\n      iszero\n      tag_110\n      jumpi\n        /* \"--CODEGEN--\":30:31   */\n      0x00\n        /* \"--CODEGEN--\":27:28   */\n      dup1\n        /* \"--CODEGEN--\":20:32   */\n      revert\n        /* \"--CODEGEN--\":5:7   */\n    tag_110:\n        /* \"NRTManager.sol\":7202:7213  token.mou() */\n      pop\n      gas\n      staticcall\n      iszero\n        /* \"--CODEGEN--\":8:17   */\n      dup1\n        /* \"--CODEGEN--\":5:7   */\n      iszero\n      tag_111\n      jumpi\n        /* \"--CODEGEN--\":45:61   */\n      returndatasize\n        /* \"--CODEGEN--\":42:43   */\n      0x00\n        /* \"--CODEGEN--\":39:40   */\n      dup1\n        /* \"--CODEGEN--\":24:62   */\n      returndatacopy\n        /* \"--CODEGEN--\":77:93   */\n      returndatasize\n        /* \"--CODEGEN--\":74:75   */\n      0x00\n        /* \"--CODEGEN--\":67:94   */\n      revert\n        /* \"--CODEGEN--\":5:7   */\n    tag_111:\n        /* \"NRTManager.sol\":7202:7213  token.mou() */\n      pop\n      pop\n      pop\n      pop\n      mload(0x40)\n      returndatasize\n        /* \"--CODEGEN--\":13:15   */\n      0x20\n        /* \"--CODEGEN--\":8:11   */\n      dup2\n        /* \"--CODEGEN--\":5:16   */\n      lt\n        /* \"--CODEGEN--\":2:4   */\n      iszero\n      tag_112\n      jumpi\n        /* \"--CODEGEN--\":29:30   */\n      0x00\n        /* \"--CODEGEN--\":26:27   */\n      dup1\n        /* \"--CODEGEN--\":19:31   */\n      revert\n        /* \"--CODEGEN--\":2:4   */\n    tag_112:\n        /* \"NRTManager.sol\":7202:7213  token.mou() */\n      dup2\n      add\n      swap1\n      dup1\n      dup1\n      mload\n      swap1\n      0x20\n      add\n      swap1\n      swap3\n      swap2\n      swap1\n      pop\n      pop\n      pop\n        /* \"NRTManager.sol\":7202:7217  token.mou().sub */\n      tag_113\n      swap1\n        /* \"NRTManager.sol\":7202:7233  token.mou().sub(lastNRTRelease) */\n      swap2\n      swap1\n      0xffffffff\n      and\n      jump\t// in\n    tag_109:\n        /* \"NRTManager.sol\":7202:7242  token.mou().sub(lastNRTRelease)> 2592000 */\n      gt\n        /* \"NRTManager.sol\":7194:7282  require(token.mou().sub(lastNRTRelease)> 2592000,\"NRT release happens once every month\") */\n      tag_114\n      jumpi\n      mload(0x40)\n      0x08c379a000000000000000000000000000000000000000000000000000000000\n      dup2\n      mstore\n      0x04\n      add\n      dup1\n      dup1\n      0x20\n      add\n      dup3\n      dup2\n      sub\n      dup3\n      mstore\n      0x24\n      dup2\n      mstore\n      0x20\n      add\n      dup1\n      data_f2be0bdc1b11a94fc4e1a8a1916cd2e21b6687cb60899d8c2cd7a367527e7b93\n      0x24\n      swap2\n      codecopy\n      0x40\n      add\n      swap2\n      pop\n      pop\n      mload(0x40)\n      dup1\n      swap2\n      sub\n      swap1\n      revert\n    tag_114:\n        /* \"NRTManager.sol\":7292:7306  uint256 NRTBal */\n      0x00\n        /* \"NRTManager.sol\":7309:7342  monthlyNRTAmount.add(luckPoolBal) */\n      tag_115\n        /* \"NRTManager.sol\":7330:7341  luckPoolBal */\n      sload(0x04)\n        /* \"NRTManager.sol\":7309:7325  monthlyNRTAmount */\n      sload(0x01)\n        /* \"NRTManager.sol\":7309:7329  monthlyNRTAmount.add */\n      tag_102\n      swap1\n        /* \"NRTManager.sol\":7309:7342  monthlyNRTAmount.add(luckPoolBal) */\n      swap2\n      swap1\n      0xffffffff\n      and\n      jump\t// in\n    tag_115:\n        /* \"NRTManager.sol\":7292:7342  uint256 NRTBal = monthlyNRTAmount.add(luckPoolBal) */\n      swap1\n      pop\n        /* \"NRTManager.sol\":7478:7502  (NRTBal.mul(5)).div(100) */\n      tag_116\n        /* \"NRTManager.sol\":7498:7501  100 */\n      0x64\n        /* \"NRTManager.sol\":7479:7492  NRTBal.mul(5) */\n      tag_117\n        /* \"NRTManager.sol\":7490:7491  5 */\n      0x05\n        /* \"NRTManager.sol\":7479:7485  NRTBal */\n      dup5\n        /* \"NRTManager.sol\":7479:7489  NRTBal.mul */\n      tag_118\n      swap1\n        /* \"NRTManager.sol\":7479:7492  NRTBal.mul(5) */\n      swap2\n      swap1\n      0xffffffff\n      and\n      jump\t// in\n    tag_117:\n        /* \"NRTManager.sol\":7478:7497  (NRTBal.mul(5)).div */\n      tag_119\n      swap1\n        /* \"NRTManager.sol\":7478:7502  (NRTBal.mul(5)).div(100) */\n      swap2\n      swap1\n      0xffffffff\n      and\n      jump\t// in\n    tag_116:\n        /* \"NRTManager.sol\":7447:7475  newTalentsAndPartnershipsBal */\n      0x11\n        /* \"NRTManager.sol\":7447:7502  newTalentsAndPartnershipsBal = (NRTBal.mul(5)).div(100) */\n      dup2\n      swap1\n      sstore\n      pop\n        /* \"NRTManager.sol\":7537:7562  (NRTBal.mul(10)).div(100) */\n      tag_120\n        /* \"NRTManager.sol\":7558:7561  100 */\n      0x64\n        /* \"NRTManager.sol\":7538:7552  NRTBal.mul(10) */\n      tag_121\n        /* \"NRTManager.sol\":7549:7551  10 */\n      0x0a\n        /* \"NRTManager.sol\":7538:7544  NRTBal */\n      dup5\n        /* \"NRTManager.sol\":7538:7548  NRTBal.mul */\n      tag_118\n      swap1\n        /* \"NRTManager.sol\":7538:7552  NRTBal.mul(10) */\n      swap2\n      swap1\n      0xffffffff\n      and\n      jump\t// in\n    tag_121:\n        /* \"NRTManager.sol\":7537:7557  (NRTBal.mul(10)).div */\n      tag_119\n      swap1\n        /* \"NRTManager.sol\":7537:7562  (NRTBal.mul(10)).div(100) */\n      swap2\n      swap1\n      0xffffffff\n      and\n      jump\t// in\n    tag_120:\n        /* \"NRTManager.sol\":7512:7534  platformMaintenanceBal */\n      0x12\n        /* \"NRTManager.sol\":7512:7562  platformMaintenanceBal = (NRTBal.mul(10)).div(100) */\n      dup2\n      swap1\n      sstore\n      pop\n        /* \"NRTManager.sol\":7593:7618  (NRTBal.mul(10)).div(100) */\n      tag_122\n        /* \"NRTManager.sol\":7614:7617  100 */\n      0x64\n        /* \"NRTManager.sol\":7594:7608  NRTBal.mul(10) */\n      tag_123\n        /* \"NRTManager.sol\":7605:7607  10 */\n      0x0a\n        /* \"NRTManager.sol\":7594:7600  NRTBal */\n      dup5\n        /* \"NRTManager.sol\":7594:7604  NRTBal.mul */\n      tag_118\n      swap1\n        /* \"NRTManager.sol\":7594:7608  NRTBal.mul(10) */\n      swap2\n      swap1\n      0xffffffff\n      and\n      jump\t// in\n    tag_123:\n        /* \"NRTManager.sol\":7593:7613  (NRTBal.mul(10)).div */\n      tag_119\n      swap1\n        /* \"NRTManager.sol\":7593:7618  (NRTBal.mul(10)).div(100) */\n      swap2\n      swap1\n      0xffffffff\n      and\n      jump\t// in\n    tag_122:\n        /* \"NRTManager.sol\":7572:7590  marketingAndRNRBal */\n      0x13\n        /* \"NRTManager.sol\":7572:7618  marketingAndRNRBal = (NRTBal.mul(10)).div(100) */\n      dup2\n      swap1\n      sstore\n      pop\n        /* \"NRTManager.sol\":7641:7666  (NRTBal.mul(10)).div(100) */\n      tag_124\n        /* \"NRTManager.sol\":7662:7665  100 */\n      0x64\n        /* \"NRTManager.sol\":7642:7656  NRTBal.mul(10) */\n      tag_125\n        /* \"NRTManager.sol\":7653:7655  10 */\n      0x0a\n        /* \"NRTManager.sol\":7642:7648  NRTBal */\n      dup5\n        /* \"NRTManager.sol\":7642:7652  NRTBal.mul */\n      tag_118\n      swap1\n        /* \"NRTManager.sol\":7642:7656  NRTBal.mul(10) */\n      swap2\n      swap1\n      0xffffffff\n      and\n      jump\t// in\n    tag_125:\n        /* \"NRTManager.sol\":7641:7661  (NRTBal.mul(10)).div */\n      tag_119\n      swap1\n        /* \"NRTManager.sol\":7641:7666  (NRTBal.mul(10)).div(100) */\n      swap2\n      swap1\n      0xffffffff\n      and\n      jump\t// in\n    tag_124:\n        /* \"NRTManager.sol\":7628:7638  kmPardsBal */\n      0x14\n        /* \"NRTManager.sol\":7628:7666  kmPardsBal = (NRTBal.mul(10)).div(100) */\n      dup2\n      swap1\n      sstore\n      pop\n        /* \"NRTManager.sol\":7698:7723  (NRTBal.mul(10)).div(100) */\n      tag_126\n        /* \"NRTManager.sol\":7719:7722  100 */\n      0x64\n        /* \"NRTManager.sol\":7699:7713  NRTBal.mul(10) */\n      tag_127\n        /* \"NRTManager.sol\":7710:7712  10 */\n      0x0a\n        /* \"NRTManager.sol\":7699:7705  NRTBal */\n      dup5\n        /* \"NRTManager.sol\":7699:7709  NRTBal.mul */\n      tag_118\n      swap1\n        /* \"NRTManager.sol\":7699:7713  NRTBal.mul(10) */\n      swap2\n      swap1\n      0xffffffff\n      and\n      jump\t// in\n    tag_127:\n        /* \"NRTManager.sol\":7698:7718  (NRTBal.mul(10)).div */\n      tag_119\n      swap1\n        /* \"NRTManager.sol\":7698:7723  (NRTBal.mul(10)).div(100) */\n      swap2\n      swap1\n      0xffffffff\n      and\n      jump\t// in\n    tag_126:\n        /* \"NRTManager.sol\":7676:7695  contingencyFundsBal */\n      0x15\n        /* \"NRTManager.sol\":7676:7723  contingencyFundsBal = (NRTBal.mul(10)).div(100) */\n      dup2\n      swap1\n      sstore\n      pop\n        /* \"NRTManager.sol\":7761:7785  (NRTBal.mul(5)).div(100) */\n      tag_128\n        /* \"NRTManager.sol\":7781:7784  100 */\n      0x64\n        /* \"NRTManager.sol\":7762:7775  NRTBal.mul(5) */\n      tag_129\n        /* \"NRTManager.sol\":7773:7774  5 */\n      0x05\n        /* \"NRTManager.sol\":7762:7768  NRTBal */\n      dup5\n        /* \"NRTManager.sol\":7762:7772  NRTBal.mul */\n      tag_118\n      swap1\n        /* \"NRTManager.sol\":7762:7775  NRTBal.mul(5) */\n      swap2\n      swap1\n      0xffffffff\n      and\n      jump\t// in\n    tag_129:\n        /* \"NRTManager.sol\":7761:7780  (NRTBal.mul(5)).div */\n      tag_119\n      swap1\n        /* \"NRTManager.sol\":7761:7785  (NRTBal.mul(5)).div(100) */\n      swap2\n      swap1\n      0xffffffff\n      and\n      jump\t// in\n    tag_128:\n        /* \"NRTManager.sol\":7733:7758  researchAndDevelopmentBal */\n      0x16\n        /* \"NRTManager.sol\":7733:7785  researchAndDevelopmentBal = (NRTBal.mul(5)).div(100) */\n      dup2\n      swap1\n      sstore\n      pop\n        /* \"NRTManager.sol\":7812:7837  (NRTBal.mul(10)).div(100) */\n      tag_130\n        /* \"NRTManager.sol\":7833:7836  100 */\n      0x64\n        /* \"NRTManager.sol\":7813:7827  NRTBal.mul(10) */\n      tag_131\n        /* \"NRTManager.sol\":7824:7826  10 */\n      0x0a\n        /* \"NRTManager.sol\":7813:7819  NRTBal */\n      dup5\n        /* \"NRTManager.sol\":7813:7823  NRTBal.mul */\n      tag_118\n      swap1\n        /* \"NRTManager.sol\":7813:7827  NRTBal.mul(10) */\n      swap2\n      swap1\n      0xffffffff\n      and\n      jump\t// in\n    tag_131:\n        /* \"NRTManager.sol\":7812:7832  (NRTBal.mul(10)).div */\n      tag_119\n      swap1\n        /* \"NRTManager.sol\":7812:7837  (NRTBal.mul(10)).div(100) */\n      swap2\n      swap1\n      0xffffffff\n      and\n      jump\t// in\n    tag_130:\n        /* \"NRTManager.sol\":7796:7809  powerTokenNRT */\n      0x17\n        /* \"NRTManager.sol\":7796:7837  powerTokenNRT = (NRTBal.mul(10)).div(100) */\n      dup2\n      swap1\n      sstore\n      pop\n        /* \"NRTManager.sol\":7861:7886  (NRTBal.mul(15)).div(100) */\n      tag_132\n        /* \"NRTManager.sol\":7882:7885  100 */\n      0x64\n        /* \"NRTManager.sol\":7862:7876  NRTBal.mul(15) */\n      tag_133\n        /* \"NRTManager.sol\":7873:7875  15 */\n      0x0f\n        /* \"NRTManager.sol\":7862:7868  NRTBal */\n      dup5\n        /* \"NRTManager.sol\":7862:7872  NRTBal.mul */\n      tag_118\n      swap1\n        /* \"NRTManager.sol\":7862:7876  NRTBal.mul(15) */\n      swap2\n      swap1\n      0xffffffff\n      and\n      jump\t// in\n    tag_133:\n        /* \"NRTManager.sol\":7861:7881  (NRTBal.mul(15)).div */\n      tag_119\n      swap1\n        /* \"NRTManager.sol\":7861:7886  (NRTBal.mul(15)).div(100) */\n      swap2\n      swap1\n      0xffffffff\n      and\n      jump\t// in\n    tag_132:\n        /* \"NRTManager.sol\":7847:7858  timeAllyNRT */\n      0x18\n        /* \"NRTManager.sol\":7847:7886  timeAllyNRT = (NRTBal.mul(15)).div(100) */\n      dup2\n      swap1\n      sstore\n      pop\n        /* \"NRTManager.sol\":7914:7939  (NRTBal.mul(25)).div(100) */\n      tag_134\n        /* \"NRTManager.sol\":7935:7938  100 */\n      0x64\n        /* \"NRTManager.sol\":7915:7929  NRTBal.mul(25) */\n      tag_135\n        /* \"NRTManager.sol\":7926:7928  25 */\n      0x19\n        /* \"NRTManager.sol\":7915:7921  NRTBal */\n      dup5\n        /* \"NRTManager.sol\":7915:7925  NRTBal.mul */\n      tag_118\n      swap1\n        /* \"NRTManager.sol\":7915:7929  NRTBal.mul(25) */\n      swap2\n      swap1\n      0xffffffff\n      and\n      jump\t// in\n    tag_135:\n        /* \"NRTManager.sol\":7914:7934  (NRTBal.mul(25)).div */\n      tag_119\n      swap1\n        /* \"NRTManager.sol\":7914:7939  (NRTBal.mul(25)).div(100) */\n      swap2\n      swap1\n      0xffffffff\n      and\n      jump\t// in\n    tag_134:\n        /* \"NRTManager.sol\":7896:7911  timeSwappersNRT */\n      0x19\n        /* \"NRTManager.sol\":7896:7939  timeSwappersNRT = (NRTBal.mul(25)).div(100) */\n      dup2\n      swap1\n      sstore\n      pop\n        /* \"NRTManager.sol\":8018:8023  token */\n      0x06\n      0x00\n      swap1\n      sload\n      swap1\n      0x0100\n      exp\n      swap1\n      div\n      0xffffffffffffffffffffffffffffffffffffffff\n      and\n        /* \"NRTManager.sol\":8018:8028  token.mint */\n      0xffffffffffffffffffffffffffffffffffffffff\n      and\n      0x40c10f19\n        /* \"NRTManager.sol\":8029:8054  newTalentsAndPartnerships */\n      0x08\n      0x00\n      swap1\n      sload\n      swap1\n      0x0100\n      exp\n      swap1\n      div\n      0xffffffffffffffffffffffffffffffffffffffff\n      and\n        /* \"NRTManager.sol\":8055:8083  newTalentsAndPartnershipsBal */\n      sload(0x11)\n        /* \"NRTManager.sol\":8018:8084  token.mint(newTalentsAndPartnerships,newTalentsAndPartnershipsBal) */\n      mload(0x40)\n      dup4\n      0xffffffff\n      and\n      0xe0\n      shl\n      dup2\n      mstore\n      0x04\n      add\n      dup1\n      dup4\n      0xffffffffffffffffffffffffffffffffffffffff\n      and\n      0xffffffffffffffffffffffffffffffffffffffff\n      and\n      dup2\n      mstore\n      0x20\n      add\n      dup3\n      dup2\n      mstore\n      0x20\n      add\n      swap3\n      pop\n      pop\n      pop\n      0x20\n      mload(0x40)\n      dup1\n      dup4\n      sub\n      dup2\n      0x00\n      dup8\n      dup1\n      extcodesize\n      iszero\n        /* \"--CODEGEN--\":8:17   */\n      dup1\n        /* \"--CODEGEN--\":5:7   */\n      iszero\n      tag_136\n      jumpi\n        /* \"--CODEGEN--\":30:31   */\n      0x00\n        /* \"--CODEGEN--\":27:28   */\n      dup1\n        /* \"--CODEGEN--\":20:32   */\n      revert\n        /* \"--CODEGEN--\":5:7   */\n    tag_136:\n        /* \"NRTManager.sol\":8018:8084  token.mint(newTalentsAndPartnerships,newTalentsAndPartnershipsBal) */\n      pop\n      gas\n      call\n      iszero\n        /* \"--CODEGEN--\":8:17   */\n      dup1\n        /* \"--CODEGEN--\":5:7   */\n      iszero\n      tag_137\n      jumpi\n        /* \"--CODEGEN--\":45:61   */\n      returndatasize\n        /* \"--CODEGEN--\":42:43   */\n      0x00\n        /* \"--CODEGEN--\":39:40   */\n      dup1\n        /* \"--CODEGEN--\":24:62   */\n      returndatacopy\n        /* \"--CODEGEN--\":77:93   */\n      returndatasize\n        /* \"--CODEGEN--\":74:75   */\n      0x00\n        /* \"--CODEGEN--\":67:94   */\n      revert\n        /* \"--CODEGEN--\":5:7   */\n    tag_137:\n        /* \"NRTManager.sol\":8018:8084  token.mint(newTalentsAndPartnerships,newTalentsAndPartnershipsBal) */\n      pop\n      pop\n      pop\n      pop\n      mload(0x40)\n      returndatasize\n        /* \"--CODEGEN--\":13:15   */\n      0x20\n        /* \"--CODEGEN--\":8:11   */\n      dup2\n        /* \"--CODEGEN--\":5:16   */\n      lt\n        /* \"--CODEGEN--\":2:4   */\n      iszero\n      tag_138\n      jumpi\n        /* \"--CODEGEN--\":29:30   */\n      0x00\n        /* \"--CODEGEN--\":26:27   */\n      dup1\n        /* \"--CODEGEN--\":19:31   */\n      revert\n        /* \"--CODEGEN--\":2:4   */\n    tag_138:\n        /* \"NRTManager.sol\":8018:8084  token.mint(newTalentsAndPartnerships,newTalentsAndPartnershipsBal) */\n      dup2\n      add\n      swap1\n      dup1\n      dup1\n      mload\n      swap1\n      0x20\n      add\n      swap1\n      swap3\n      swap2\n      swap1\n      pop\n      pop\n      pop\n      pop\n        /* \"NRTManager.sol\":8099:8196  NRTTransfer(\"newTalentsAndPartnerships\", newTalentsAndPartnerships, newTalentsAndPartnershipsBal) */\n      0x8470ec6072093abfec912969ee9fd5273eed1d3202eac51a1fd83c236ee9bea8\n        /* \"NRTManager.sol\":8140:8165  newTalentsAndPartnerships */\n      0x08\n      0x00\n      swap1\n      sload\n      swap1\n      0x0100\n      exp\n      swap1\n      div\n      0xffffffffffffffffffffffffffffffffffffffff\n      and\n        /* \"NRTManager.sol\":8167:8195  newTalentsAndPartnershipsBal */\n      sload(0x11)\n        /* \"NRTManager.sol\":8099:8196  NRTTransfer(\"newTalentsAndPartnerships\", newTalentsAndPartnerships, newTalentsAndPartnershipsBal) */\n      mload(0x40)\n      dup1\n      dup1\n      0x20\n      add\n      dup5\n      0xffffffffffffffffffffffffffffffffffffffff\n      and\n      0xffffffffffffffffffffffffffffffffffffffff\n      and\n      dup2\n      mstore\n      0x20\n      add\n      dup4\n      dup2\n      mstore\n      0x20\n      add\n      dup3\n      dup2\n      sub\n      dup3\n      mstore\n      0x19\n      dup2\n      mstore\n      0x20\n      add\n      dup1\n      0x6e657754616c656e7473416e64506172746e6572736869707300000000000000\n      dup2\n      mstore\n      pop\n      0x20\n      add\n      swap4\n      pop\n      pop\n      pop\n      pop\n      mload(0x40)\n      dup1\n      swap2\n      sub\n      swap1\n      log1\n        /* \"NRTManager.sol\":8207:8212  token */\n      0x06\n      0x00\n      swap1\n      sload\n      swap1\n      0x0100\n      exp\n      swap1\n      div\n      0xffffffffffffffffffffffffffffffffffffffff\n      and\n        /* \"NRTManager.sol\":8207:8217  token.mint */\n      0xffffffffffffffffffffffffffffffffffffffff\n      and\n      0x40c10f19\n        /* \"NRTManager.sol\":8218:8237  platformMaintenance */\n      0x09\n      0x00\n      swap1\n      sload\n      swap1\n      0x0100\n      exp\n      swap1\n      div\n      0xffffffffffffffffffffffffffffffffffffffff\n      and\n        /* \"NRTManager.sol\":8238:8260  platformMaintenanceBal */\n      sload(0x12)\n        /* \"NRTManager.sol\":8207:8261  token.mint(platformMaintenance,platformMaintenanceBal) */\n      mload(0x40)\n      dup4\n      0xffffffff\n      and\n      0xe0\n      shl\n      dup2\n      mstore\n      0x04\n      add\n      dup1\n      dup4\n      0xffffffffffffffffffffffffffffffffffffffff\n      and\n      0xffffffffffffffffffffffffffffffffffffffff\n      and\n      dup2\n      mstore\n      0x20\n      add\n      dup3\n      dup2\n      mstore\n      0x20\n      add\n      swap3\n      pop\n      pop\n      pop\n      0x20\n      mload(0x40)\n      dup1\n      dup4\n      sub\n      dup2\n      0x00\n      dup8\n      dup1\n      extcodesize\n      iszero\n        /* \"--CODEGEN--\":8:17   */\n      dup1\n        /* \"--CODEGEN--\":5:7   */\n      iszero\n      tag_139\n      jumpi\n        /* \"--CODEGEN--\":30:31   */\n      0x00\n        /* \"--CODEGEN--\":27:28   */\n      dup1\n        /* \"--CODEGEN--\":20:32   */\n      revert\n        /* \"--CODEGEN--\":5:7   */\n    tag_139:\n        /* \"NRTManager.sol\":8207:8261  token.mint(platformMaintenance,platformMaintenanceBal) */\n      pop\n      gas\n      call\n      iszero\n        /* \"--CODEGEN--\":8:17   */\n      dup1\n        /* \"--CODEGEN--\":5:7   */\n      iszero\n      tag_140\n      jumpi\n        /* \"--CODEGEN--\":45:61   */\n      returndatasize\n        /* \"--CODEGEN--\":42:43   */\n      0x00\n        /* \"--CODEGEN--\":39:40   */\n      dup1\n        /* \"--CODEGEN--\":24:62   */\n      returndatacopy\n        /* \"--CODEGEN--\":77:93   */\n      returndatasize\n        /* \"--CODEGEN--\":74:75   */\n      0x00\n        /* \"--CODEGEN--\":67:94   */\n      revert\n        /* \"--CODEGEN--\":5:7   */\n    tag_140:\n        /* \"NRTManager.sol\":8207:8261  token.mint(platformMaintenance,platformMaintenanceBal) */\n      pop\n      pop\n      pop\n      pop\n      mload(0x40)\n      returndatasize\n        /* \"--CODEGEN--\":13:15   */\n      0x20\n        /* \"--CODEGEN--\":8:11   */\n      dup2\n        /* \"--CODEGEN--\":5:16   */\n      lt\n        /* \"--CODEGEN--\":2:4   */\n      iszero\n      tag_141\n      jumpi\n        /* \"--CODEGEN--\":29:30   */\n      0x00\n        /* \"--CODEGEN--\":26:27   */\n      dup1\n        /* \"--CODEGEN--\":19:31   */\n      revert\n        /* \"--CODEGEN--\":2:4   */\n    tag_141:\n        /* \"NRTManager.sol\":8207:8261  token.mint(platformMaintenance,platformMaintenanceBal) */\n      dup2\n      add\n      swap1\n      dup1\n      dup1\n      mload\n      swap1\n      0x20\n      add\n      swap1\n      swap3\n      swap2\n      swap1\n      pop\n      pop\n      pop\n      pop\n        /* \"NRTManager.sol\":8276:8355  NRTTransfer(\"platformMaintenance\", platformMaintenance, platformMaintenanceBal) */\n      0x8470ec6072093abfec912969ee9fd5273eed1d3202eac51a1fd83c236ee9bea8\n        /* \"NRTManager.sol\":8311:8330  platformMaintenance */\n      0x09\n      0x00\n      swap1\n      sload\n      swap1\n      0x0100\n      exp\n      swap1\n      div\n      0xffffffffffffffffffffffffffffffffffffffff\n      and\n        /* \"NRTManager.sol\":8332:8354  platformMaintenanceBal */\n      sload(0x12)\n        /* \"NRTManager.sol\":8276:8355  NRTTransfer(\"platformMaintenance\", platformMaintenance, platformMaintenanceBal) */\n      mload(0x40)\n      dup1\n      dup1\n      0x20\n      add\n      dup5\n      0xffffffffffffffffffffffffffffffffffffffff\n      and\n      0xffffffffffffffffffffffffffffffffffffffff\n      and\n      dup2\n      mstore\n      0x20\n      add\n      dup4\n      dup2\n      mstore\n      0x20\n      add\n      dup3\n      dup2\n      sub\n      dup3\n      mstore\n      0x13\n      dup2\n      mstore\n      0x20\n      add\n      dup1\n      0x706c6174666f726d4d61696e74656e616e636500000000000000000000000000\n      dup2\n      mstore\n      pop\n      0x20\n      add\n      swap4\n      pop\n      pop\n      pop\n      pop\n      mload(0x40)\n      dup1\n      swap2\n      sub\n      swap1\n      log1\n        /* \"NRTManager.sol\":8366:8371  token */\n      0x06\n      0x00\n      swap1\n      sload\n      swap1\n      0x0100\n      exp\n      swap1\n      div\n      0xffffffffffffffffffffffffffffffffffffffff\n      and\n        /* \"NRTManager.sol\":8366:8376  token.mint */\n      0xffffffffffffffffffffffffffffffffffffffff\n      and\n      0x40c10f19\n        /* \"NRTManager.sol\":8377:8392  marketingAndRNR */\n      0x0a\n      0x00\n      swap1\n      sload\n      swap1\n      0x0100\n      exp\n      swap1\n      div\n      0xffffffffffffffffffffffffffffffffffffffff\n      and\n        /* \"NRTManager.sol\":8393:8411  marketingAndRNRBal */\n      sload(0x13)\n        /* \"NRTManager.sol\":8366:8412  token.mint(marketingAndRNR,marketingAndRNRBal) */\n      mload(0x40)\n      dup4\n      0xffffffff\n      and\n      0xe0\n      shl\n      dup2\n      mstore\n      0x04\n      add\n      dup1\n      dup4\n      0xffffffffffffffffffffffffffffffffffffffff\n      and\n      0xffffffffffffffffffffffffffffffffffffffff\n      and\n      dup2\n      mstore\n      0x20\n      add\n      dup3\n      dup2\n      mstore\n      0x20\n      add\n      swap3\n      pop\n      pop\n      pop\n      0x20\n      mload(0x40)\n      dup1\n      dup4\n      sub\n      dup2\n      0x00\n      dup8\n      dup1\n      extcodesize\n      iszero\n        /* \"--CODEGEN--\":8:17   */\n      dup1\n        /* \"--CODEGEN--\":5:7   */\n      iszero\n      tag_142\n      jumpi\n        /* \"--CODEGEN--\":30:31   */\n      0x00\n        /* \"--CODEGEN--\":27:28   */\n      dup1\n        /* \"--CODEGEN--\":20:32   */\n      revert\n        /* \"--CODEGEN--\":5:7   */\n    tag_142:\n        /* \"NRTManager.sol\":8366:8412  token.mint(marketingAndRNR,marketingAndRNRBal) */\n      pop\n      gas\n      call\n      iszero\n        /* \"--CODEGEN--\":8:17   */\n      dup1\n        /* \"--CODEGEN--\":5:7   */\n      iszero\n      tag_143\n      jumpi\n        /* \"--CODEGEN--\":45:61   */\n      returndatasize\n        /* \"--CODEGEN--\":42:43   */\n      0x00\n        /* \"--CODEGEN--\":39:40   */\n      dup1\n        /* \"--CODEGEN--\":24:62   */\n      returndatacopy\n        /* \"--CODEGEN--\":77:93   */\n      returndatasize\n        /* \"--CODEGEN--\":74:75   */\n      0x00\n        /* \"--CODEGEN--\":67:94   */\n      revert\n        /* \"--CODEGEN--\":5:7   */\n    tag_143:\n        /* \"NRTManager.sol\":8366:8412  token.mint(marketingAndRNR,marketingAndRNRBal) */\n      pop\n      pop\n      pop\n      pop\n      mload(0x40)\n      returndatasize\n        /* \"--CODEGEN--\":13:15   */\n      0x20\n        /* \"--CODEGEN--\":8:11   */\n      dup2\n        /* \"--CODEGEN--\":5:16   */\n      lt\n        /* \"--CODEGEN--\":2:4   */\n      iszero\n      tag_144\n      jumpi\n        /* \"--CODEGEN--\":29:30   */\n      0x00\n        /* \"--CODEGEN--\":26:27   */\n      dup1\n        /* \"--CODEGEN--\":19:31   */\n      revert\n        /* \"--CODEGEN--\":2:4   */\n    tag_144:\n        /* \"NRTManager.sol\":8366:8412  token.mint(marketingAndRNR,marketingAndRNRBal) */\n      dup2\n      add\n      swap1\n      dup1\n      dup1\n      mload\n      swap1\n      0x20\n      add\n      swap1\n      swap3\n      swap2\n      swap1\n      pop\n      pop\n      pop\n      pop\n        /* \"NRTManager.sol\":8427:8494  NRTTransfer(\"marketingAndRNR\", marketingAndRNR, marketingAndRNRBal) */\n      0x8470ec6072093abfec912969ee9fd5273eed1d3202eac51a1fd83c236ee9bea8\n        /* \"NRTManager.sol\":8458:8473  marketingAndRNR */\n      0x0a\n      0x00\n      swap1\n      sload\n      swap1\n      0x0100\n      exp\n      swap1\n      div\n      0xffffffffffffffffffffffffffffffffffffffff\n      and\n        /* \"NRTManager.sol\":8475:8493  marketingAndRNRBal */\n      sload(0x13)\n        /* \"NRTManager.sol\":8427:8494  NRTTransfer(\"marketingAndRNR\", marketingAndRNR, marketingAndRNRBal) */\n      mload(0x40)\n      dup1\n      dup1\n      0x20\n      add\n      dup5\n      0xffffffffffffffffffffffffffffffffffffffff\n      and\n      0xffffffffffffffffffffffffffffffffffffffff\n      and\n      dup2\n      mstore\n      0x20\n      add\n      dup4\n      dup2\n      mstore\n      0x20\n      add\n      dup3\n      dup2\n      sub\n      dup3\n      mstore\n      0x0f\n      dup2\n      mstore\n      0x20\n      add\n      dup1\n      0x6d61726b6574696e67416e64524e520000000000000000000000000000000000\n      dup2\n      mstore\n      pop\n      0x20\n      add\n      swap4\n      pop\n      pop\n      pop\n      pop\n      mload(0x40)\n      dup1\n      swap2\n      sub\n      swap1\n      log1\n        /* \"NRTManager.sol\":8505:8510  token */\n      0x06\n      0x00\n      swap1\n      sload\n      swap1\n      0x0100\n      exp\n      swap1\n      div\n      0xffffffffffffffffffffffffffffffffffffffff\n      and\n        /* \"NRTManager.sol\":8505:8515  token.mint */\n      0xffffffffffffffffffffffffffffffffffffffff\n      and\n      0x40c10f19\n        /* \"NRTManager.sol\":8516:8523  kmPards */\n      0x0b\n      0x00\n      swap1\n      sload\n      swap1\n      0x0100\n      exp\n      swap1\n      div\n      0xffffffffffffffffffffffffffffffffffffffff\n      and\n        /* \"NRTManager.sol\":8524:8534  kmPardsBal */\n      sload(0x14)\n        /* \"NRTManager.sol\":8505:8535  token.mint(kmPards,kmPardsBal) */\n      mload(0x40)\n      dup4\n      0xffffffff\n      and\n      0xe0\n      shl\n      dup2\n      mstore\n      0x04\n      add\n      dup1\n      dup4\n      0xffffffffffffffffffffffffffffffffffffffff\n      and\n      0xffffffffffffffffffffffffffffffffffffffff\n      and\n      dup2\n      mstore\n      0x20\n      add\n      dup3\n      dup2\n      mstore\n      0x20\n      add\n      swap3\n      pop\n      pop\n      pop\n      0x20\n      mload(0x40)\n      dup1\n      dup4\n      sub\n      dup2\n      0x00\n      dup8\n      dup1\n      extcodesize\n      iszero\n        /* \"--CODEGEN--\":8:17   */\n      dup1\n        /* \"--CODEGEN--\":5:7   */\n      iszero\n      tag_145\n      jumpi\n        /* \"--CODEGEN--\":30:31   */\n      0x00\n        /* \"--CODEGEN--\":27:28   */\n      dup1\n        /* \"--CODEGEN--\":20:32   */\n      revert\n        /* \"--CODEGEN--\":5:7   */\n    tag_145:\n        /* \"NRTManager.sol\":8505:8535  token.mint(kmPards,kmPardsBal) */\n      pop\n      gas\n      call\n      iszero\n        /* \"--CODEGEN--\":8:17   */\n      dup1\n        /* \"--CODEGEN--\":5:7   */\n      iszero\n      tag_146\n      jumpi\n        /* \"--CODEGEN--\":45:61   */\n      returndatasize\n        /* \"--CODEGEN--\":42:43   */\n      0x00\n        /* \"--CODEGEN--\":39:40   */\n      dup1\n        /* \"--CODEGEN--\":24:62   */\n      returndatacopy\n        /* \"--CODEGEN--\":77:93   */\n      returndatasize\n        /* \"--CODEGEN--\":74:75   */\n      0x00\n        /* \"--CODEGEN--\":67:94   */\n      revert\n        /* \"--CODEGEN--\":5:7   */\n    tag_146:\n        /* \"NRTManager.sol\":8505:8535  token.mint(kmPards,kmPardsBal) */\n      pop\n      pop\n      pop\n      pop\n      mload(0x40)\n      returndatasize\n        /* \"--CODEGEN--\":13:15   */\n      0x20\n        /* \"--CODEGEN--\":8:11   */\n      dup2\n        /* \"--CODEGEN--\":5:16   */\n      lt\n        /* \"--CODEGEN--\":2:4   */\n      iszero\n      tag_147\n      jumpi\n        /* \"--CODEGEN--\":29:30   */\n      0x00\n        /* \"--CODEGEN--\":26:27   */\n      dup1\n        /* \"--CODEGEN--\":19:31   */\n      revert\n        /* \"--CODEGEN--\":2:4   */\n    tag_147:\n        /* \"NRTManager.sol\":8505:8535  token.mint(kmPards,kmPardsBal) */\n      dup2\n      add\n      swap1\n      dup1\n      dup1\n      mload\n      swap1\n      0x20\n      add\n      swap1\n      swap3\n      swap2\n      swap1\n      pop\n      pop\n      pop\n      pop\n        /* \"NRTManager.sol\":8550:8593  NRTTransfer(\"kmPards\", kmPards, kmPardsBal) */\n      0x8470ec6072093abfec912969ee9fd5273eed1d3202eac51a1fd83c236ee9bea8\n        /* \"NRTManager.sol\":8573:8580  kmPards */\n      0x0b\n      0x00\n      swap1\n      sload\n      swap1\n      0x0100\n      exp\n      swap1\n      div\n      0xffffffffffffffffffffffffffffffffffffffff\n      and\n        /* \"NRTManager.sol\":8582:8592  kmPardsBal */\n      sload(0x14)\n        /* \"NRTManager.sol\":8550:8593  NRTTransfer(\"kmPards\", kmPards, kmPardsBal) */\n      mload(0x40)\n      dup1\n      dup1\n      0x20\n      add\n      dup5\n      0xffffffffffffffffffffffffffffffffffffffff\n      and\n      0xffffffffffffffffffffffffffffffffffffffff\n      and\n      dup2\n      mstore\n      0x20\n      add\n      dup4\n      dup2\n      mstore\n      0x20\n      add\n      dup3\n      dup2\n      sub\n      dup3\n      mstore\n      0x07\n      dup2\n      mstore\n      0x20\n      add\n      dup1\n      0x6b6d506172647300000000000000000000000000000000000000000000000000\n      dup2\n      mstore\n      pop\n      0x20\n      add\n      swap4\n      pop\n      pop\n      pop\n      pop\n      mload(0x40)\n      dup1\n      swap2\n      sub\n      swap1\n      log1\n        /* \"NRTManager.sol\":8604:8609  token */\n      0x06\n      0x00\n      swap1\n      sload\n      swap1\n      0x0100\n      exp\n      swap1\n      div\n      0xffffffffffffffffffffffffffffffffffffffff\n      and\n        /* \"NRTManager.sol\":8604:8614  token.mint */\n      0xffffffffffffffffffffffffffffffffffffffff\n      and\n      0x40c10f19\n        /* \"NRTManager.sol\":8615:8631  contingencyFunds */\n      0x0c\n      0x00\n      swap1\n      sload\n      swap1\n      0x0100\n      exp\n      swap1\n      div\n      0xffffffffffffffffffffffffffffffffffffffff\n      and\n        /* \"NRTManager.sol\":8632:8651  contingencyFundsBal */\n      sload(0x15)\n        /* \"NRTManager.sol\":8604:8652  token.mint(contingencyFunds,contingencyFundsBal) */\n      mload(0x40)\n      dup4\n      0xffffffff\n      and\n      0xe0\n      shl\n      dup2\n      mstore\n      0x04\n      add\n      dup1\n      dup4\n      0xffffffffffffffffffffffffffffffffffffffff\n      and\n      0xffffffffffffffffffffffffffffffffffffffff\n      and\n      dup2\n      mstore\n      0x20\n      add\n      dup3\n      dup2\n      mstore\n      0x20\n      add\n      swap3\n      pop\n      pop\n      pop\n      0x20\n      mload(0x40)\n      dup1\n      dup4\n      sub\n      dup2\n      0x00\n      dup8\n      dup1\n      extcodesize\n      iszero\n        /* \"--CODEGEN--\":8:17   */\n      dup1\n        /* \"--CODEGEN--\":5:7   */\n      iszero\n      tag_148\n      jumpi\n        /* \"--CODEGEN--\":30:31   */\n      0x00\n        /* \"--CODEGEN--\":27:28   */\n      dup1\n        /* \"--CODEGEN--\":20:32   */\n      revert\n        /* \"--CODEGEN--\":5:7   */\n    tag_148:\n        /* \"NRTManager.sol\":8604:8652  token.mint(contingencyFunds,contingencyFundsBal) */\n      pop\n      gas\n      call\n      iszero\n        /* \"--CODEGEN--\":8:17   */\n      dup1\n        /* \"--CODEGEN--\":5:7   */\n      iszero\n      tag_149\n      jumpi\n        /* \"--CODEGEN--\":45:61   */\n      returndatasize\n        /* \"--CODEGEN--\":42:43   */\n      0x00\n        /* \"--CODEGEN--\":39:40   */\n      dup1\n        /* \"--CODEGEN--\":24:62   */\n      returndatacopy\n        /* \"--CODEGEN--\":77:93   */\n      returndatasize\n        /* \"--CODEGEN--\":74:75   */\n      0x00\n        /* \"--CODEGEN--\":67:94   */\n      revert\n        /* \"--CODEGEN--\":5:7   */\n    tag_149:\n        /* \"NRTManager.sol\":8604:8652  token.mint(contingencyFunds,contingencyFundsBal) */\n      pop\n      pop\n      pop\n      pop\n      mload(0x40)\n      returndatasize\n        /* \"--CODEGEN--\":13:15   */\n      0x20\n        /* \"--CODEGEN--\":8:11   */\n      dup2\n        /* \"--CODEGEN--\":5:16   */\n      lt\n        /* \"--CODEGEN--\":2:4   */\n      iszero\n      tag_150\n      jumpi\n        /* \"--CODEGEN--\":29:30   */\n      0x00\n        /* \"--CODEGEN--\":26:27   */\n      dup1\n        /* \"--CODEGEN--\":19:31   */\n      revert\n        /* \"--CODEGEN--\":2:4   */\n    tag_150:\n        /* \"NRTManager.sol\":8604:8652  token.mint(contingencyFunds,contingencyFundsBal) */\n      dup2\n      add\n      swap1\n      dup1\n      dup1\n      mload\n      swap1\n      0x20\n      add\n      swap1\n      swap3\n      swap2\n      swap1\n      pop\n      pop\n      pop\n      pop\n        /* \"NRTManager.sol\":8667:8737  NRTTransfer(\"contingencyFunds\", contingencyFunds, contingencyFundsBal) */\n      0x8470ec6072093abfec912969ee9fd5273eed1d3202eac51a1fd83c236ee9bea8\n        /* \"NRTManager.sol\":8699:8715  contingencyFunds */\n      0x0c\n      0x00\n      swap1\n      sload\n      swap1\n      0x0100\n      exp\n      swap1\n      div\n      0xffffffffffffffffffffffffffffffffffffffff\n      and\n        /* \"NRTManager.sol\":8717:8736  contingencyFundsBal */\n      sload(0x15)\n        /* \"NRTManager.sol\":8667:8737  NRTTransfer(\"contingencyFunds\", contingencyFunds, contingencyFundsBal) */\n      mload(0x40)\n      dup1\n      dup1\n      0x20\n      add\n      dup5\n      0xffffffffffffffffffffffffffffffffffffffff\n      and\n      0xffffffffffffffffffffffffffffffffffffffff\n      and\n      dup2\n      mstore\n      0x20\n      add\n      dup4\n      dup2\n      mstore\n      0x20\n      add\n      dup3\n      dup2\n      sub\n      dup3\n      mstore\n      0x10\n      dup2\n      mstore\n      0x20\n      add\n      dup1\n      0x636f6e74696e67656e637946756e647300000000000000000000000000000000\n      dup2\n      mstore\n      pop\n      0x20\n      add\n      swap4\n      pop\n      pop\n      pop\n      pop\n      mload(0x40)\n      dup1\n      swap2\n      sub\n      swap1\n      log1\n        /* \"NRTManager.sol\":8748:8753  token */\n      0x06\n      0x00\n      swap1\n      sload\n      swap1\n      0x0100\n      exp\n      swap1\n      div\n      0xffffffffffffffffffffffffffffffffffffffff\n      and\n        /* \"NRTManager.sol\":8748:8758  token.mint */\n      0xffffffffffffffffffffffffffffffffffffffff\n      and\n      0x40c10f19\n        /* \"NRTManager.sol\":8759:8781  researchAndDevelopment */\n      0x0d\n      0x00\n      swap1\n      sload\n      swap1\n      0x0100\n      exp\n      swap1\n      div\n      0xffffffffffffffffffffffffffffffffffffffff\n      and\n        /* \"NRTManager.sol\":8782:8807  researchAndDevelopmentBal */\n      sload(0x16)\n        /* \"NRTManager.sol\":8748:8808  token.mint(researchAndDevelopment,researchAndDevelopmentBal) */\n      mload(0x40)\n      dup4\n      0xffffffff\n      and\n      0xe0\n      shl\n      dup2\n      mstore\n      0x04\n      add\n      dup1\n      dup4\n      0xffffffffffffffffffffffffffffffffffffffff\n      and\n      0xffffffffffffffffffffffffffffffffffffffff\n      and\n      dup2\n      mstore\n      0x20\n      add\n      dup3\n      dup2\n      mstore\n      0x20\n      add\n      swap3\n      pop\n      pop\n      pop\n      0x20\n      mload(0x40)\n      dup1\n      dup4\n      sub\n      dup2\n      0x00\n      dup8\n      dup1\n      extcodesize\n      iszero\n        /* \"--CODEGEN--\":8:17   */\n      dup1\n        /* \"--CODEGEN--\":5:7   */\n      iszero\n      tag_151\n      jumpi\n        /* \"--CODEGEN--\":30:31   */\n      0x00\n        /* \"--CODEGEN--\":27:28   */\n      dup1\n        /* \"--CODEGEN--\":20:32   */\n      revert\n        /* \"--CODEGEN--\":5:7   */\n    tag_151:\n        /* \"NRTManager.sol\":8748:8808  token.mint(researchAndDevelopment,researchAndDevelopmentBal) */\n      pop\n      gas\n      call\n      iszero\n        /* \"--CODEGEN--\":8:17   */\n      dup1\n        /* \"--CODEGEN--\":5:7   */\n      iszero\n      tag_152\n      jumpi\n        /* \"--CODEGEN--\":45:61   */\n      returndatasize\n        /* \"--CODEGEN--\":42:43   */\n      0x00\n        /* \"--CODEGEN--\":39:40   */\n      dup1\n        /* \"--CODEGEN--\":24:62   */\n      returndatacopy\n        /* \"--CODEGEN--\":77:93   */\n      returndatasize\n        /* \"--CODEGEN--\":74:75   */\n      0x00\n        /* \"--CODEGEN--\":67:94   */\n      revert\n        /* \"--CODEGEN--\":5:7   */\n    tag_152:\n        /* \"NRTManager.sol\":8748:8808  token.mint(researchAndDevelopment,researchAndDevelopmentBal) */\n      pop\n      pop\n      pop\n      pop\n      mload(0x40)\n      returndatasize\n        /* \"--CODEGEN--\":13:15   */\n      0x20\n        /* \"--CODEGEN--\":8:11   */\n      dup2\n        /* \"--CODEGEN--\":5:16   */\n      lt\n        /* \"--CODEGEN--\":2:4   */\n      iszero\n      tag_153\n      jumpi\n        /* \"--CODEGEN--\":29:30   */\n      0x00\n        /* \"--CODEGEN--\":26:27   */\n      dup1\n        /* \"--CODEGEN--\":19:31   */\n      revert\n        /* \"--CODEGEN--\":2:4   */\n    tag_153:\n        /* \"NRTManager.sol\":8748:8808  token.mint(researchAndDevelopment,researchAndDevelopmentBal) */\n      dup2\n      add\n      swap1\n      dup1\n      dup1\n      mload\n      swap1\n      0x20\n      add\n      swap1\n      swap3\n      swap2\n      swap1\n      pop\n      pop\n      pop\n      pop\n        /* \"NRTManager.sol\":8823:8911  NRTTransfer(\"researchAndDevelopment\", researchAndDevelopment, researchAndDevelopmentBal) */\n      0x8470ec6072093abfec912969ee9fd5273eed1d3202eac51a1fd83c236ee9bea8\n        /* \"NRTManager.sol\":8861:8883  researchAndDevelopment */\n      0x0d\n      0x00\n      swap1\n      sload\n      swap1\n      0x0100\n      exp\n      swap1\n      div\n      0xffffffffffffffffffffffffffffffffffffffff\n      and\n        /* \"NRTManager.sol\":8885:8910  researchAndDevelopmentBal */\n      sload(0x16)\n        /* \"NRTManager.sol\":8823:8911  NRTTransfer(\"researchAndDevelopment\", researchAndDevelopment, researchAndDevelopmentBal) */\n      mload(0x40)\n      dup1\n      dup1\n      0x20\n      add\n      dup5\n      0xffffffffffffffffffffffffffffffffffffffff\n      and\n      0xffffffffffffffffffffffffffffffffffffffff\n      and\n      dup2\n      mstore\n      0x20\n      add\n      dup4\n      dup2\n      mstore\n      0x20\n      add\n      dup3\n      dup2\n      sub\n      dup3\n      mstore\n      0x16\n      dup2\n      mstore\n      0x20\n      add\n      dup1\n      0x7265736561726368416e64446576656c6f706d656e7400000000000000000000\n      dup2\n      mstore\n      pop\n      0x20\n      add\n      swap4\n      pop\n      pop\n      pop\n      pop\n      mload(0x40)\n      dup1\n      swap2\n      sub\n      swap1\n      log1\n        /* \"NRTManager.sol\":8922:8927  token */\n      0x06\n      0x00\n      swap1\n      sload\n      swap1\n      0x0100\n      exp\n      swap1\n      div\n      0xffffffffffffffffffffffffffffffffffffffff\n      and\n        /* \"NRTManager.sol\":8922:8932  token.mint */\n      0xffffffffffffffffffffffffffffffffffffffff\n      and\n      0x40c10f19\n        /* \"NRTManager.sol\":8933:8943  powerToken */\n      0x0e\n      0x00\n      swap1\n      sload\n      swap1\n      0x0100\n      exp\n      swap1\n      div\n      0xffffffffffffffffffffffffffffffffffffffff\n      and\n        /* \"NRTManager.sol\":8944:8957  powerTokenNRT */\n      sload(0x17)\n        /* \"NRTManager.sol\":8922:8958  token.mint(powerToken,powerTokenNRT) */\n      mload(0x40)\n      dup4\n      0xffffffff\n      and\n      0xe0\n      shl\n      dup2\n      mstore\n      0x04\n      add\n      dup1\n      dup4\n      0xffffffffffffffffffffffffffffffffffffffff\n      and\n      0xffffffffffffffffffffffffffffffffffffffff\n      and\n      dup2\n      mstore\n      0x20\n      add\n      dup3\n      dup2\n      mstore\n      0x20\n      add\n      swap3\n      pop\n      pop\n      pop\n      0x20\n      mload(0x40)\n      dup1\n      dup4\n      sub\n      dup2\n      0x00\n      dup8\n      dup1\n      extcodesize\n      iszero\n        /* \"--CODEGEN--\":8:17   */\n      dup1\n        /* \"--CODEGEN--\":5:7   */\n      iszero\n      tag_154\n      jumpi\n        /* \"--CODEGEN--\":30:31   */\n      0x00\n        /* \"--CODEGEN--\":27:28   */\n      dup1\n        /* \"--CODEGEN--\":20:32   */\n      revert\n        /* \"--CODEGEN--\":5:7   */\n    tag_154:\n        /* \"NRTManager.sol\":8922:8958  token.mint(powerToken,powerTokenNRT) */\n      pop\n      gas\n      call\n      iszero\n        /* \"--CODEGEN--\":8:17   */\n      dup1\n        /* \"--CODEGEN--\":5:7   */\n      iszero\n      tag_155\n      jumpi\n        /* \"--CODEGEN--\":45:61   */\n      returndatasize\n        /* \"--CODEGEN--\":42:43   */\n      0x00\n        /* \"--CODEGEN--\":39:40   */\n      dup1\n        /* \"--CODEGEN--\":24:62   */\n      returndatacopy\n        /* \"--CODEGEN--\":77:93   */\n      returndatasize\n        /* \"--CODEGEN--\":74:75   */\n      0x00\n        /* \"--CODEGEN--\":67:94   */\n      revert\n        /* \"--CODEGEN--\":5:7   */\n    tag_155:\n        /* \"NRTManager.sol\":8922:8958  token.mint(powerToken,powerTokenNRT) */\n      pop\n      pop\n      pop\n      pop\n      mload(0x40)\n      returndatasize\n        /* \"--CODEGEN--\":13:15   */\n      0x20\n        /* \"--CODEGEN--\":8:11   */\n      dup2\n        /* \"--CODEGEN--\":5:16   */\n      lt\n        /* \"--CODEGEN--\":2:4   */\n      iszero\n      tag_156\n      jumpi\n        /* \"--CODEGEN--\":29:30   */\n      0x00\n        /* \"--CODEGEN--\":26:27   */\n      dup1\n        /* \"--CODEGEN--\":19:31   */\n      revert\n        /* \"--CODEGEN--\":2:4   */\n    tag_156:\n        /* \"NRTManager.sol\":8922:8958  token.mint(powerToken,powerTokenNRT) */\n      dup2\n      add\n      swap1\n      dup1\n      dup1\n      mload\n      swap1\n      0x20\n      add\n      swap1\n      swap3\n      swap2\n      swap1\n      pop\n      pop\n      pop\n      pop\n        /* \"NRTManager.sol\":8973:9025  NRTTransfer(\"powerToken\", powerToken, powerTokenNRT) */\n      0x8470ec6072093abfec912969ee9fd5273eed1d3202eac51a1fd83c236ee9bea8\n        /* \"NRTManager.sol\":8999:9009  powerToken */\n      0x0e\n      0x00\n      swap1\n      sload\n      swap1\n      0x0100\n      exp\n      swap1\n      div\n      0xffffffffffffffffffffffffffffffffffffffff\n      and\n        /* \"NRTManager.sol\":9011:9024  powerTokenNRT */\n      sload(0x17)\n        /* \"NRTManager.sol\":8973:9025  NRTTransfer(\"powerToken\", powerToken, powerTokenNRT) */\n      mload(0x40)\n      dup1\n      dup1\n      0x20\n      add\n      dup5\n      0xffffffffffffffffffffffffffffffffffffffff\n      and\n      0xffffffffffffffffffffffffffffffffffffffff\n      and\n      dup2\n      mstore\n      0x20\n      add\n      dup4\n      dup2\n      mstore\n      0x20\n      add\n      dup3\n      dup2\n      sub\n      dup3\n      mstore\n      0x0a\n      dup2\n      mstore\n      0x20\n      add\n      dup1\n      0x706f776572546f6b656e00000000000000000000000000000000000000000000\n      dup2\n      mstore\n      pop\n      0x20\n      add\n      swap4\n      pop\n      pop\n      pop\n      pop\n      mload(0x40)\n      dup1\n      swap2\n      sub\n      swap1\n      log1\n        /* \"NRTManager.sol\":9036:9041  token */\n      0x06\n      0x00\n      swap1\n      sload\n      swap1\n      0x0100\n      exp\n      swap1\n      div\n      0xffffffffffffffffffffffffffffffffffffffff\n      and\n        /* \"NRTManager.sol\":9036:9046  token.mint */\n      0xffffffffffffffffffffffffffffffffffffffff\n      and\n      0x40c10f19\n        /* \"NRTManager.sol\":9047:9055  timeAlly */\n      0x10\n      0x00\n      swap1\n      sload\n      swap1\n      0x0100\n      exp\n      swap1\n      div\n      0xffffffffffffffffffffffffffffffffffffffff\n      and\n        /* \"NRTManager.sol\":9056:9067  timeAllyNRT */\n      sload(0x18)\n        /* \"NRTManager.sol\":9036:9068  token.mint(timeAlly,timeAllyNRT) */\n      mload(0x40)\n      dup4\n      0xffffffff\n      and\n      0xe0\n      shl\n      dup2\n      mstore\n      0x04\n      add\n      dup1\n      dup4\n      0xffffffffffffffffffffffffffffffffffffffff\n      and\n      0xffffffffffffffffffffffffffffffffffffffff\n      and\n      dup2\n      mstore\n      0x20\n      add\n      dup3\n      dup2\n      mstore\n      0x20\n      add\n      swap3\n      pop\n      pop\n      pop\n      0x20\n      mload(0x40)\n      dup1\n      dup4\n      sub\n      dup2\n      0x00\n      dup8\n      dup1\n      extcodesize\n      iszero\n        /* \"--CODEGEN--\":8:17   */\n      dup1\n        /* \"--CODEGEN--\":5:7   */\n      iszero\n      tag_157\n      jumpi\n        /* \"--CODEGEN--\":30:31   */\n      0x00\n        /* \"--CODEGEN--\":27:28   */\n      dup1\n        /* \"--CODEGEN--\":20:32   */\n      revert\n        /* \"--CODEGEN--\":5:7   */\n    tag_157:\n        /* \"NRTManager.sol\":9036:9068  token.mint(timeAlly,timeAllyNRT) */\n      pop\n      gas\n      call\n      iszero\n        /* \"--CODEGEN--\":8:17   */\n      dup1\n        /* \"--CODEGEN--\":5:7   */\n      iszero\n      tag_158\n      jumpi\n        /* \"--CODEGEN--\":45:61   */\n      returndatasize\n        /* \"--CODEGEN--\":42:43   */\n      0x00\n        /* \"--CODEGEN--\":39:40   */\n      dup1\n        /* \"--CODEGEN--\":24:62   */\n      returndatacopy\n        /* \"--CODEGEN--\":77:93   */\n      returndatasize\n        /* \"--CODEGEN--\":74:75   */\n      0x00\n        /* \"--CODEGEN--\":67:94   */\n      revert\n        /* \"--CODEGEN--\":5:7   */\n    tag_158:\n        /* \"NRTManager.sol\":9036:9068  token.mint(timeAlly,timeAllyNRT) */\n      pop\n      pop\n      pop\n      pop\n      mload(0x40)\n      returndatasize\n        /* \"--CODEGEN--\":13:15   */\n      0x20\n        /* \"--CODEGEN--\":8:11   */\n      dup2\n        /* \"--CODEGEN--\":5:16   */\n      lt\n        /* \"--CODEGEN--\":2:4   */\n      iszero\n      tag_159\n      jumpi\n        /* \"--CODEGEN--\":29:30   */\n      0x00\n        /* \"--CODEGEN--\":26:27   */\n      dup1\n        /* \"--CODEGEN--\":19:31   */\n      revert\n        /* \"--CODEGEN--\":2:4   */\n    tag_159:\n        /* \"NRTManager.sol\":9036:9068  token.mint(timeAlly,timeAllyNRT) */\n      dup2\n      add\n      swap1\n      dup1\n      dup1\n      mload\n      swap1\n      0x20\n      add\n      swap1\n      swap3\n      swap2\n      swap1\n      pop\n      pop\n      pop\n      pop\n        /* \"NRTManager.sol\":9078:9103  TimeAlly timeAllyContract */\n      0x00\n        /* \"NRTManager.sol\":9115:9123  timeAlly */\n      0x10\n      0x00\n      swap1\n      sload\n      swap1\n      0x0100\n      exp\n      swap1\n      div\n      0xffffffffffffffffffffffffffffffffffffffff\n      and\n        /* \"NRTManager.sol\":9078:9124  TimeAlly timeAllyContract = TimeAlly(timeAlly) */\n      swap1\n      pop\n        /* \"NRTManager.sol\":9134:9150  timeAllyContract */\n      dup1\n        /* \"NRTManager.sol\":9134:9164  timeAllyContract.increaseMonth */\n      0xffffffffffffffffffffffffffffffffffffffff\n      and\n      0xe78c81c4\n        /* \"NRTManager.sol\":9165:9176  timeAllyNRT */\n      sload(0x18)\n        /* \"NRTManager.sol\":9134:9177  timeAllyContract.increaseMonth(timeAllyNRT) */\n      mload(0x40)\n      dup3\n      0xffffffff\n      and\n      0xe0\n      shl\n      dup2\n      mstore\n      0x04\n      add\n      dup1\n      dup3\n      dup2\n      mstore\n      0x20\n      add\n      swap2\n      pop\n      pop\n      0x00\n      mload(0x40)\n      dup1\n      dup4\n      sub\n      dup2\n      0x00\n      dup8\n      dup1\n      extcodesize\n      iszero\n        /* \"--CODEGEN--\":8:17   */\n      dup1\n        /* \"--CODEGEN--\":5:7   */\n      iszero\n      tag_160\n      jumpi\n        /* \"--CODEGEN--\":30:31   */\n      0x00\n        /* \"--CODEGEN--\":27:28   */\n      dup1\n        /* \"--CODEGEN--\":20:32   */\n      revert\n        /* \"--CODEGEN--\":5:7   */\n    tag_160:\n        /* \"NRTManager.sol\":9134:9177  timeAllyContract.increaseMonth(timeAllyNRT) */\n      pop\n      gas\n      call\n      iszero\n        /* \"--CODEGEN--\":8:17   */\n      dup1\n        /* \"--CODEGEN--\":5:7   */\n      iszero\n      tag_161\n      jumpi\n        /* \"--CODEGEN--\":45:61   */\n      returndatasize\n        /* \"--CODEGEN--\":42:43   */\n      0x00\n        /* \"--CODEGEN--\":39:40   */\n      dup1\n        /* \"--CODEGEN--\":24:62   */\n      returndatacopy\n        /* \"--CODEGEN--\":77:93   */\n      returndatasize\n        /* \"--CODEGEN--\":74:75   */\n      0x00\n        /* \"--CODEGEN--\":67:94   */\n      revert\n        /* \"--CODEGEN--\":5:7   */\n    tag_161:\n        /* \"NRTManager.sol\":9134:9177  timeAllyContract.increaseMonth(timeAllyNRT) */\n      pop\n      pop\n      pop\n      pop\n        /* \"NRTManager.sol\":9192:9245  NRTTransfer(\"stakingContract\", timeAlly, timeAllyNRT) */\n      0x8470ec6072093abfec912969ee9fd5273eed1d3202eac51a1fd83c236ee9bea8\n        /* \"NRTManager.sol\":9223:9231  timeAlly */\n      0x10\n      0x00\n      swap1\n      sload\n      swap1\n      0x0100\n      exp\n      swap1\n      div\n      0xffffffffffffffffffffffffffffffffffffffff\n      and\n        /* \"NRTManager.sol\":9233:9244  timeAllyNRT */\n      sload(0x18)\n        /* \"NRTManager.sol\":9192:9245  NRTTransfer(\"stakingContract\", timeAlly, timeAllyNRT) */\n      mload(0x40)\n      dup1\n      dup1\n      0x20\n      add\n      dup5\n      0xffffffffffffffffffffffffffffffffffffffff\n      and\n      0xffffffffffffffffffffffffffffffffffffffff\n      and\n      dup2\n      mstore\n      0x20\n      add\n      dup4\n      dup2\n      mstore\n      0x20\n      add\n      dup3\n      dup2\n      sub\n      dup3\n      mstore\n      0x0f\n      dup2\n      mstore\n      0x20\n      add\n      dup1\n      0x7374616b696e67436f6e74726163740000000000000000000000000000000000\n      dup2\n      mstore\n      pop\n      0x20\n      add\n      swap4\n      pop\n      pop\n      pop\n      pop\n      mload(0x40)\n      dup1\n      swap2\n      sub\n      swap1\n      log1\n        /* \"NRTManager.sol\":9256:9261  token */\n      0x06\n      0x00\n      swap1\n      sload\n      swap1\n      0x0100\n      exp\n      swap1\n      div\n      0xffffffffffffffffffffffffffffffffffffffff\n      and\n        /* \"NRTManager.sol\":9256:9266  token.mint */\n      0xffffffffffffffffffffffffffffffffffffffff\n      and\n      0x40c10f19\n        /* \"NRTManager.sol\":9267:9279  timeSwappers */\n      0x0f\n      0x00\n      swap1\n      sload\n      swap1\n      0x0100\n      exp\n      swap1\n      div\n      0xffffffffffffffffffffffffffffffffffffffff\n      and\n        /* \"NRTManager.sol\":9280:9295  timeSwappersNRT */\n      sload(0x19)\n        /* \"NRTManager.sol\":9256:9296  token.mint(timeSwappers,timeSwappersNRT) */\n      mload(0x40)\n      dup4\n      0xffffffff\n      and\n      0xe0\n      shl\n      dup2\n      mstore\n      0x04\n      add\n      dup1\n      dup4\n      0xffffffffffffffffffffffffffffffffffffffff\n      and\n      0xffffffffffffffffffffffffffffffffffffffff\n      and\n      dup2\n      mstore\n      0x20\n      add\n      dup3\n      dup2\n      mstore\n      0x20\n      add\n      swap3\n      pop\n      pop\n      pop\n      0x20\n      mload(0x40)\n      dup1\n      dup4\n      sub\n      dup2\n      0x00\n      dup8\n      dup1\n      extcodesize\n      iszero\n        /* \"--CODEGEN--\":8:17   */\n      dup1\n        /* \"--CODEGEN--\":5:7   */\n      iszero\n      tag_162\n      jumpi\n        /* \"--CODEGEN--\":30:31   */\n      0x00\n        /* \"--CODEGEN--\":27:28   */\n      dup1\n        /* \"--CODEGEN--\":20:32   */\n      revert\n        /* \"--CODEGEN--\":5:7   */\n    tag_162:\n        /* \"NRTManager.sol\":9256:9296  token.mint(timeSwappers,timeSwappersNRT) */\n      pop\n      gas\n      call\n      iszero\n        /* \"--CODEGEN--\":8:17   */\n      dup1\n        /* \"--CODEGEN--\":5:7   */\n      iszero\n      tag_163\n      jumpi\n        /* \"--CODEGEN--\":45:61   */\n      returndatasize\n        /* \"--CODEGEN--\":42:43   */\n      0x00\n        /* \"--CODEGEN--\":39:40   */\n      dup1\n        /* \"--CODEGEN--\":24:62   */\n      returndatacopy\n        /* \"--CODEGEN--\":77:93   */\n      returndatasize\n        /* \"--CODEGEN--\":74:75   */\n      0x00\n        /* \"--CODEGEN--\":67:94   */\n      revert\n        /* \"--CODEGEN--\":5:7   */\n    tag_163:\n        /* \"NRTManager.sol\":9256:9296  token.mint(timeSwappers,timeSwappersNRT) */\n      pop\n      pop\n      pop\n      pop\n      mload(0x40)\n      returndatasize\n        /* \"--CODEGEN--\":13:15   */\n      0x20\n        /* \"--CODEGEN--\":8:11   */\n      dup2\n        /* \"--CODEGEN--\":5:16   */\n      lt\n        /* \"--CODEGEN--\":2:4   */\n      iszero\n      tag_164\n      jumpi\n        /* \"--CODEGEN--\":29:30   */\n      0x00\n        /* \"--CODEGEN--\":26:27   */\n      dup1\n        /* \"--CODEGEN--\":19:31   */\n      revert\n        /* \"--CODEGEN--\":2:4   */\n    tag_164:\n        /* \"NRTManager.sol\":9256:9296  token.mint(timeSwappers,timeSwappersNRT) */\n      dup2\n      add\n      swap1\n      dup1\n      dup1\n      mload\n      swap1\n      0x20\n      add\n      swap1\n      swap3\n      swap2\n      swap1\n      pop\n      pop\n      pop\n      pop\n        /* \"NRTManager.sol\":9311:9369  NRTTransfer(\"timeSwappers\", timeSwappers, timeSwappersNRT) */\n      0x8470ec6072093abfec912969ee9fd5273eed1d3202eac51a1fd83c236ee9bea8\n        /* \"NRTManager.sol\":9339:9351  timeSwappers */\n      0x0f\n      0x00\n      swap1\n      sload\n      swap1\n      0x0100\n      exp\n      swap1\n      div\n      0xffffffffffffffffffffffffffffffffffffffff\n      and\n        /* \"NRTManager.sol\":9353:9368  timeSwappersNRT */\n      sload(0x19)\n        /* \"NRTManager.sol\":9311:9369  NRTTransfer(\"timeSwappers\", timeSwappers, timeSwappersNRT) */\n      mload(0x40)\n      dup1\n      dup1\n      0x20\n      add\n      dup5\n      0xffffffffffffffffffffffffffffffffffffffff\n      and\n      0xffffffffffffffffffffffffffffffffffffffff\n      and\n      dup2\n      mstore\n      0x20\n      add\n      dup4\n      dup2\n      mstore\n      0x20\n      add\n      dup3\n      dup2\n      sub\n      dup3\n      mstore\n      0x0c\n      dup2\n      mstore\n      0x20\n      add\n      dup1\n      0x74696d6553776170706572730000000000000000000000000000000000000000\n      dup2\n      mstore\n      pop\n      0x20\n      add\n      swap4\n      pop\n      pop\n      pop\n      pop\n      mload(0x40)\n      dup1\n      swap2\n      sub\n      swap1\n      log1\n        /* \"NRTManager.sol\":9409:9431  NRTDistributed(NRTBal) */\n      0x31a2c82874744c38fa6d0d7bacb6ff098de6c1ecc98899f39f5b9ea32108765b\n        /* \"NRTManager.sol\":9424:9430  NRTBal */\n      dup3\n        /* \"NRTManager.sol\":9409:9431  NRTDistributed(NRTBal) */\n      mload(0x40)\n      dup1\n      dup3\n      dup2\n      mstore\n      0x20\n      add\n      swap2\n      pop\n      pop\n      mload(0x40)\n      dup1\n      swap2\n      sub\n      swap1\n      log1\n        /* \"NRTManager.sol\":9455:9456  0 */\n      0x00\n        /* \"NRTManager.sol\":9441:9452  luckPoolBal */\n      0x04\n        /* \"NRTManager.sol\":9441:9456  luckPoolBal = 0 */\n      dup2\n      swap1\n      sstore\n      pop\n        /* \"NRTManager.sol\":9483:9510  lastNRTRelease.add(30 days) */\n      tag_165\n        /* \"NRTManager.sol\":9502:9509  30 days */\n      0x278d00\n        /* \"NRTManager.sol\":9483:9497  lastNRTRelease */\n      sload(0x00)\n        /* \"NRTManager.sol\":9483:9501  lastNRTRelease.add */\n      tag_102\n      swap1\n        /* \"NRTManager.sol\":9483:9510  lastNRTRelease.add(30 days) */\n      swap2\n      swap1\n      0xffffffff\n      and\n      jump\t// in\n    tag_165:\n        /* \"NRTManager.sol\":9466:9480  lastNRTRelease */\n      0x00\n        /* \"NRTManager.sol\":9466:9510  lastNRTRelease = lastNRTRelease.add(30 days) */\n      dup2\n      swap1\n      sstore\n      pop\n        /* \"NRTManager.sol\":9552:9564  burnTokens() */\n      tag_166\n        /* \"NRTManager.sol\":9552:9562  burnTokens */\n      tag_167\n        /* \"NRTManager.sol\":9552:9564  burnTokens() */\n      jump\t// in\n    tag_166:\n      pop\n        /* \"NRTManager.sol\":9635:9661  TokensBurned(burnTokenBal) */\n      0x6ef4855b666dcc7884561072e4358b28dfe01feb1b7f4dcebc00e62d50394ac7\n        /* \"NRTManager.sol\":9648:9660  burnTokenBal */\n      sload(0x05)\n        /* \"NRTManager.sol\":9635:9661  TokensBurned(burnTokenBal) */\n      mload(0x40)\n      dup1\n      dup3\n      dup2\n      mstore\n      0x20\n      add\n      swap2\n      pop\n      pop\n      mload(0x40)\n      dup1\n      swap2\n      sub\n      swap1\n      log1\n        /* \"NRTManager.sol\":9690:9692  11 */\n      0x0b\n        /* \"NRTManager.sol\":9676:9686  monthCount */\n      sload(0x03)\n        /* \"NRTManager.sol\":9676:9692  monthCount == 11 */\n      eq\n        /* \"NRTManager.sol\":9673:9914  if(monthCount == 11){... */\n      iszero\n      tag_168\n      jumpi\n        /* \"NRTManager.sol\":9718:9719  0 */\n      0x00\n        /* \"NRTManager.sol\":9705:9715  monthCount */\n      0x03\n        /* \"NRTManager.sol\":9705:9719  monthCount = 0 */\n      dup2\n      swap1\n      sstore\n      pop\n        /* \"NRTManager.sol\":9749:9783  (annualNRTAmount.mul(90)).div(100) */\n      tag_169\n        /* \"NRTManager.sol\":9779:9782  100 */\n      0x64\n        /* \"NRTManager.sol\":9750:9773  annualNRTAmount.mul(90) */\n      tag_170\n        /* \"NRTManager.sol\":9770:9772  90 */\n      0x5a\n        /* \"NRTManager.sol\":9750:9765  annualNRTAmount */\n      sload(0x02)\n        /* \"NRTManager.sol\":9750:9769  annualNRTAmount.mul */\n      tag_118\n      swap1\n        /* \"NRTManager.sol\":9750:9773  annualNRTAmount.mul(90) */\n      swap2\n      swap1\n      0xffffffff\n      and\n      jump\t// in\n    tag_170:\n        /* \"NRTManager.sol\":9749:9778  (annualNRTAmount.mul(90)).div */\n      tag_119\n      swap1\n        /* \"NRTManager.sol\":9749:9783  (annualNRTAmount.mul(90)).div(100) */\n      swap2\n      swap1\n      0xffffffff\n      and\n      jump\t// in\n    tag_169:\n        /* \"NRTManager.sol\":9731:9746  annualNRTAmount */\n      0x02\n        /* \"NRTManager.sol\":9731:9783  annualNRTAmount = (annualNRTAmount.mul(90)).div(100) */\n      dup2\n      swap1\n      sstore\n      pop\n        /* \"NRTManager.sol\":9814:9837  annualNRTAmount.div(12) */\n      tag_171\n        /* \"NRTManager.sol\":9834:9836  12 */\n      0x0c\n        /* \"NRTManager.sol\":9814:9829  annualNRTAmount */\n      sload(0x02)\n        /* \"NRTManager.sol\":9814:9833  annualNRTAmount.div */\n      tag_119\n      swap1\n        /* \"NRTManager.sol\":9814:9837  annualNRTAmount.div(12) */\n      swap2\n      swap1\n      0xffffffff\n      and\n      jump\t// in\n    tag_171:\n        /* \"NRTManager.sol\":9795:9811  monthlyNRTAmount */\n      0x01\n        /* \"NRTManager.sol\":9795:9837  monthlyNRTAmount = annualNRTAmount.div(12) */\n      dup2\n      swap1\n      sstore\n      pop\n        /* \"NRTManager.sol\":9673:9914  if(monthCount == 11){... */\n      jump(tag_172)\n    tag_168:\n        /* \"NRTManager.sol\":9886:9903  monthCount.add(1) */\n      tag_173\n        /* \"NRTManager.sol\":9901:9902  1 */\n      0x01\n        /* \"NRTManager.sol\":9886:9896  monthCount */\n      sload(0x03)\n        /* \"NRTManager.sol\":9886:9900  monthCount.add */\n      tag_102\n      swap1\n        /* \"NRTManager.sol\":9886:9903  monthCount.add(1) */\n      swap2\n      swap1\n      0xffffffff\n      and\n      jump\t// in\n    tag_173:\n        /* \"NRTManager.sol\":9873:9883  monthCount */\n      0x03\n        /* \"NRTManager.sol\":9873:9903  monthCount = monthCount.add(1) */\n      dup2\n      swap1\n      sstore\n      pop\n        /* \"NRTManager.sol\":9673:9914  if(monthCount == 11){... */\n    tag_172:\n        /* \"NRTManager.sol\":9930:9934  true */\n      0x01\n        /* \"NRTManager.sol\":9923:9934  return true */\n      swap3\n      pop\n      pop\n      pop\n        /* \"NRTManager.sol\":7131:9943  function MonthlyNRTRelease() external returns (bool) {... */\n      swap1\n      jump\t// out\n        /* \"NRTManager.sol\":1343:1380  uint256 public platformMaintenanceBal */\n    tag_85:\n      sload(0x12)\n      dup2\n      jump\t// out\n        /* \"NRTManager.sol\":2074:2104  uint256 public timeSwappersNRT */\n    tag_87:\n      sload(0x19)\n      dup2\n      jump\t// out\n        /* \"NRTManager.sol\":538:564  uint256 public luckPoolBal */\n    tag_89:\n      sload(0x04)\n      dup2\n      jump\t// out\n        /* \"NRTManager.sol\":4558:6371  function UpdateAddresses (address[9] calldata pool) external OnlyOwner  returns(bool){... */\n    tag_92:\n        /* \"NRTManager.sol\":4638:4642  bool */\n      0x00\n        /* \"NRTManager.sol\":3626:3631  Owner */\n      0x07\n      0x00\n      swap1\n      sload\n      swap1\n      0x0100\n      exp\n      swap1\n      div\n      0xffffffffffffffffffffffffffffffffffffffff\n      and\n        /* \"NRTManager.sol\":3612:3631  msg.sender == Owner */\n      0xffffffffffffffffffffffffffffffffffffffff\n      and\n        /* \"NRTManager.sol\":3612:3622  msg.sender */\n      caller\n        /* \"NRTManager.sol\":3612:3631  msg.sender == Owner */\n      0xffffffffffffffffffffffffffffffffffffffff\n      and\n      eq\n        /* \"NRTManager.sol\":3604:3659  require(msg.sender == Owner,\"Only Owner is authorised\") */\n      tag_175\n      jumpi\n      mload(0x40)\n      0x08c379a000000000000000000000000000000000000000000000000000000000\n      dup2\n      mstore\n      0x04\n      add\n      dup1\n      dup1\n      0x20\n      add\n      dup3\n      dup2\n      sub\n      dup3\n      mstore\n      0x18\n      dup2\n      mstore\n      0x20\n      add\n      dup1\n      0x4f6e6c79204f776e657220697320617574686f72697365640000000000000000\n      dup2\n      mstore\n      pop\n      0x20\n      add\n      swap2\n      pop\n      pop\n      mload(0x40)\n      dup1\n      swap2\n      sub\n      swap1\n      revert\n    tag_175:\n        /* \"NRTManager.sol\":4677:4678  0 */\n      0x00\n        /* \"NRTManager.sol\":4658:4679  pool[0] != address(0) */\n      0xffffffffffffffffffffffffffffffffffffffff\n      and\n        /* \"NRTManager.sol\":4658:4662  pool */\n      dup3\n        /* \"NRTManager.sol\":4663:4664  0 */\n      0x00\n        /* \"NRTManager.sol\":4658:4665  pool[0] */\n      0x09\n      dup2\n      lt\n      tag_177\n      jumpi\n      invalid\n    tag_177:\n      0x20\n      mul\n      add\n      calldataload\n      0xffffffffffffffffffffffffffffffffffffffff\n      and\n        /* \"NRTManager.sol\":4658:4679  pool[0] != address(0) */\n      0xffffffffffffffffffffffffffffffffffffffff\n      and\n      eq\n      iszero\n        /* \"NRTManager.sol\":4657:4725  (pool[0] != address(0)) && (newTalentsAndPartnerships == address(0)) */\n      dup1\n      iszero\n      tag_178\n      jumpi\n      pop\n        /* \"NRTManager.sol\":4722:4723  0 */\n      0x00\n        /* \"NRTManager.sol\":4685:4724  newTalentsAndPartnerships == address(0) */\n      0xffffffffffffffffffffffffffffffffffffffff\n      and\n        /* \"NRTManager.sol\":4685:4710  newTalentsAndPartnerships */\n      0x08\n      0x00\n      swap1\n      sload\n      swap1\n      0x0100\n      exp\n      swap1\n      div\n      0xffffffffffffffffffffffffffffffffffffffff\n      and\n        /* \"NRTManager.sol\":4685:4724  newTalentsAndPartnerships == address(0) */\n      0xffffffffffffffffffffffffffffffffffffffff\n      and\n      eq\n        /* \"NRTManager.sol\":4657:4725  (pool[0] != address(0)) && (newTalentsAndPartnerships == address(0)) */\n    tag_178:\n        /* \"NRTManager.sol\":4654:4874  if((pool[0] != address(0)) && (newTalentsAndPartnerships == address(0))){... */\n      iszero\n      tag_179\n      jumpi\n        /* \"NRTManager.sol\":4766:4770  pool */\n      dup2\n        /* \"NRTManager.sol\":4771:4772  0 */\n      0x00\n        /* \"NRTManager.sol\":4766:4773  pool[0] */\n      0x09\n      dup2\n      lt\n      tag_180\n      jumpi\n      invalid\n    tag_180:\n      0x20\n      mul\n      add\n      calldataload\n      0xffffffffffffffffffffffffffffffffffffffff\n      and\n        /* \"NRTManager.sol\":4738:4763  newTalentsAndPartnerships */\n      0x08\n      0x00\n        /* \"NRTManager.sol\":4738:4773  newTalentsAndPartnerships = pool[0] */\n      0x0100\n      exp\n      dup2\n      sload\n      dup2\n      0xffffffffffffffffffffffffffffffffffffffff\n      mul\n      not\n      and\n      swap1\n      dup4\n      0xffffffffffffffffffffffffffffffffffffffff\n      and\n      mul\n      or\n      swap1\n      sstore\n      pop\n        /* \"NRTManager.sol\":4790:4863  PoolAddressAdded( \"NewTalentsAndPartnerships\", newTalentsAndPartnerships) */\n      0x12fb0c5abba542bf97c53eecc4ebe59d9ba7ad563247ed305f002ada0291d60f\n        /* \"NRTManager.sol\":4837:4862  newTalentsAndPartnerships */\n      0x08\n      0x00\n      swap1\n      sload\n      swap1\n      0x0100\n      exp\n      swap1\n      div\n      0xffffffffffffffffffffffffffffffffffffffff\n      and\n        /* \"NRTManager.sol\":4790:4863  PoolAddressAdded( \"NewTalentsAndPartnerships\", newTalentsAndPartnerships) */\n      mload(0x40)\n      dup1\n      dup1\n      0x20\n      add\n      dup4\n      0xffffffffffffffffffffffffffffffffffffffff\n      and\n      0xffffffffffffffffffffffffffffffffffffffff\n      and\n      dup2\n      mstore\n      0x20\n      add\n      dup3\n      dup2\n      sub\n      dup3\n      mstore\n      0x19\n      dup2\n      mstore\n      0x20\n      add\n      dup1\n      0x4e657754616c656e7473416e64506172746e6572736869707300000000000000\n      dup2\n      mstore\n      pop\n      0x20\n      add\n      swap3\n      pop\n      pop\n      pop\n      mload(0x40)\n      dup1\n      swap2\n      sub\n      swap1\n      log1\n        /* \"NRTManager.sol\":4654:4874  if((pool[0] != address(0)) && (newTalentsAndPartnerships == address(0))){... */\n    tag_179:\n        /* \"NRTManager.sol\":4906:4907  0 */\n      0x00\n        /* \"NRTManager.sol\":4887:4908  pool[1] != address(0) */\n      0xffffffffffffffffffffffffffffffffffffffff\n      and\n        /* \"NRTManager.sol\":4887:4891  pool */\n      dup3\n        /* \"NRTManager.sol\":4892:4893  1 */\n      0x01\n        /* \"NRTManager.sol\":4887:4894  pool[1] */\n      0x09\n      dup2\n      lt\n      tag_181\n      jumpi\n      invalid\n    tag_181:\n      0x20\n      mul\n      add\n      calldataload\n      0xffffffffffffffffffffffffffffffffffffffff\n      and\n        /* \"NRTManager.sol\":4887:4908  pool[1] != address(0) */\n      0xffffffffffffffffffffffffffffffffffffffff\n      and\n      eq\n      iszero\n        /* \"NRTManager.sol\":4886:4948  (pool[1] != address(0)) && (platformMaintenance == address(0)) */\n      dup1\n      iszero\n      tag_182\n      jumpi\n      pop\n        /* \"NRTManager.sol\":4945:4946  0 */\n      0x00\n        /* \"NRTManager.sol\":4914:4947  platformMaintenance == address(0) */\n      0xffffffffffffffffffffffffffffffffffffffff\n      and\n        /* \"NRTManager.sol\":4914:4933  platformMaintenance */\n      0x09\n      0x00\n      swap1\n      sload\n      swap1\n      0x0100\n      exp\n      swap1\n      div\n      0xffffffffffffffffffffffffffffffffffffffff\n      and\n        /* \"NRTManager.sol\":4914:4947  platformMaintenance == address(0) */\n      0xffffffffffffffffffffffffffffffffffffffff\n      and\n      eq\n        /* \"NRTManager.sol\":4886:4948  (pool[1] != address(0)) && (platformMaintenance == address(0)) */\n    tag_182:\n        /* \"NRTManager.sol\":4883:5079  if((pool[1] != address(0)) && (platformMaintenance == address(0))){... */\n      iszero\n      tag_183\n      jumpi\n        /* \"NRTManager.sol\":4983:4987  pool */\n      dup2\n        /* \"NRTManager.sol\":4988:4989  1 */\n      0x01\n        /* \"NRTManager.sol\":4983:4990  pool[1] */\n      0x09\n      dup2\n      lt\n      tag_184\n      jumpi\n      invalid\n    tag_184:\n      0x20\n      mul\n      add\n      calldataload\n      0xffffffffffffffffffffffffffffffffffffffff\n      and\n        /* \"NRTManager.sol\":4961:4980  platformMaintenance */\n      0x09\n      0x00\n        /* \"NRTManager.sol\":4961:4990  platformMaintenance = pool[1] */\n      0x0100\n      exp\n      dup2\n      sload\n      dup2\n      0xffffffffffffffffffffffffffffffffffffffff\n      mul\n      not\n      and\n      swap1\n      dup4\n      0xffffffffffffffffffffffffffffffffffffffff\n      and\n      mul\n      or\n      swap1\n      sstore\n      pop\n        /* \"NRTManager.sol\":5007:5068  PoolAddressAdded( \"PlatformMaintenance\", platformMaintenance) */\n      0x12fb0c5abba542bf97c53eecc4ebe59d9ba7ad563247ed305f002ada0291d60f\n        /* \"NRTManager.sol\":5048:5067  platformMaintenance */\n      0x09\n      0x00\n      swap1\n      sload\n      swap1\n      0x0100\n      exp\n      swap1\n      div\n      0xffffffffffffffffffffffffffffffffffffffff\n      and\n        /* \"NRTManager.sol\":5007:5068  PoolAddressAdded( \"PlatformMaintenance\", platformMaintenance) */\n      mload(0x40)\n      dup1\n      dup1\n      0x20\n      add\n      dup4\n      0xffffffffffffffffffffffffffffffffffffffff\n      and\n      0xffffffffffffffffffffffffffffffffffffffff\n      and\n      dup2\n      mstore\n      0x20\n      add\n      dup3\n      dup2\n      sub\n      dup3\n      mstore\n      0x13\n      dup2\n      mstore\n      0x20\n      add\n      dup1\n      0x506c6174666f726d4d61696e74656e616e636500000000000000000000000000\n      dup2\n      mstore\n      pop\n      0x20\n      add\n      swap3\n      pop\n      pop\n      pop\n      mload(0x40)\n      dup1\n      swap2\n      sub\n      swap1\n      log1\n        /* \"NRTManager.sol\":4883:5079  if((pool[1] != address(0)) && (platformMaintenance == address(0))){... */\n    tag_183:\n        /* \"NRTManager.sol\":5111:5112  0 */\n      0x00\n        /* \"NRTManager.sol\":5092:5113  pool[2] != address(0) */\n      0xffffffffffffffffffffffffffffffffffffffff\n      and\n        /* \"NRTManager.sol\":5092:5096  pool */\n      dup3\n        /* \"NRTManager.sol\":5097:5098  2 */\n      0x02\n        /* \"NRTManager.sol\":5092:5099  pool[2] */\n      0x09\n      dup2\n      lt\n      tag_185\n      jumpi\n      invalid\n    tag_185:\n      0x20\n      mul\n      add\n      calldataload\n      0xffffffffffffffffffffffffffffffffffffffff\n      and\n        /* \"NRTManager.sol\":5092:5113  pool[2] != address(0) */\n      0xffffffffffffffffffffffffffffffffffffffff\n      and\n      eq\n      iszero\n        /* \"NRTManager.sol\":5091:5149  (pool[2] != address(0)) && (marketingAndRNR == address(0)) */\n      dup1\n      iszero\n      tag_186\n      jumpi\n      pop\n        /* \"NRTManager.sol\":5146:5147  0 */\n      0x00\n        /* \"NRTManager.sol\":5119:5148  marketingAndRNR == address(0) */\n      0xffffffffffffffffffffffffffffffffffffffff\n      and\n        /* \"NRTManager.sol\":5119:5134  marketingAndRNR */\n      0x0a\n      0x00\n      swap1\n      sload\n      swap1\n      0x0100\n      exp\n      swap1\n      div\n      0xffffffffffffffffffffffffffffffffffffffff\n      and\n        /* \"NRTManager.sol\":5119:5148  marketingAndRNR == address(0) */\n      0xffffffffffffffffffffffffffffffffffffffff\n      and\n      eq\n        /* \"NRTManager.sol\":5091:5149  (pool[2] != address(0)) && (marketingAndRNR == address(0)) */\n    tag_186:\n        /* \"NRTManager.sol\":5088:5268  if((pool[2] != address(0)) && (marketingAndRNR == address(0))){... */\n      iszero\n      tag_187\n      jumpi\n        /* \"NRTManager.sol\":5180:5184  pool */\n      dup2\n        /* \"NRTManager.sol\":5185:5186  2 */\n      0x02\n        /* \"NRTManager.sol\":5180:5187  pool[2] */\n      0x09\n      dup2\n      lt\n      tag_188\n      jumpi\n      invalid\n    tag_188:\n      0x20\n      mul\n      add\n      calldataload\n      0xffffffffffffffffffffffffffffffffffffffff\n      and\n        /* \"NRTManager.sol\":5162:5177  marketingAndRNR */\n      0x0a\n      0x00\n        /* \"NRTManager.sol\":5162:5187  marketingAndRNR = pool[2] */\n      0x0100\n      exp\n      dup2\n      sload\n      dup2\n      0xffffffffffffffffffffffffffffffffffffffff\n      mul\n      not\n      and\n      swap1\n      dup4\n      0xffffffffffffffffffffffffffffffffffffffff\n      and\n      mul\n      or\n      swap1\n      sstore\n      pop\n        /* \"NRTManager.sol\":5204:5257  PoolAddressAdded( \"MarketingAndRNR\", marketingAndRNR) */\n      0x12fb0c5abba542bf97c53eecc4ebe59d9ba7ad563247ed305f002ada0291d60f\n        /* \"NRTManager.sol\":5241:5256  marketingAndRNR */\n      0x0a\n      0x00\n      swap1\n      sload\n      swap1\n      0x0100\n      exp\n      swap1\n      div\n      0xffffffffffffffffffffffffffffffffffffffff\n      and\n        /* \"NRTManager.sol\":5204:5257  PoolAddressAdded( \"MarketingAndRNR\", marketingAndRNR) */\n      mload(0x40)\n      dup1\n      dup1\n      0x20\n      add\n      dup4\n      0xffffffffffffffffffffffffffffffffffffffff\n      and\n      0xffffffffffffffffffffffffffffffffffffffff\n      and\n      dup2\n      mstore\n      0x20\n      add\n      dup3\n      dup2\n      sub\n      dup3\n      mstore\n      0x0f\n      dup2\n      mstore\n      0x20\n      add\n      dup1\n      0x4d61726b6574696e67416e64524e520000000000000000000000000000000000\n      dup2\n      mstore\n      pop\n      0x20\n      add\n      swap3\n      pop\n      pop\n      pop\n      mload(0x40)\n      dup1\n      swap2\n      sub\n      swap1\n      log1\n        /* \"NRTManager.sol\":5088:5268  if((pool[2] != address(0)) && (marketingAndRNR == address(0))){... */\n    tag_187:\n        /* \"NRTManager.sol\":5300:5301  0 */\n      0x00\n        /* \"NRTManager.sol\":5281:5302  pool[3] != address(0) */\n      0xffffffffffffffffffffffffffffffffffffffff\n      and\n        /* \"NRTManager.sol\":5281:5285  pool */\n      dup3\n        /* \"NRTManager.sol\":5286:5287  3 */\n      0x03\n        /* \"NRTManager.sol\":5281:5288  pool[3] */\n      0x09\n      dup2\n      lt\n      tag_189\n      jumpi\n      invalid\n    tag_189:\n      0x20\n      mul\n      add\n      calldataload\n      0xffffffffffffffffffffffffffffffffffffffff\n      and\n        /* \"NRTManager.sol\":5281:5302  pool[3] != address(0) */\n      0xffffffffffffffffffffffffffffffffffffffff\n      and\n      eq\n      iszero\n        /* \"NRTManager.sol\":5280:5330  (pool[3] != address(0)) && (kmPards == address(0)) */\n      dup1\n      iszero\n      tag_190\n      jumpi\n      pop\n        /* \"NRTManager.sol\":5327:5328  0 */\n      0x00\n        /* \"NRTManager.sol\":5308:5329  kmPards == address(0) */\n      0xffffffffffffffffffffffffffffffffffffffff\n      and\n        /* \"NRTManager.sol\":5308:5315  kmPards */\n      0x0b\n      0x00\n      swap1\n      sload\n      swap1\n      0x0100\n      exp\n      swap1\n      div\n      0xffffffffffffffffffffffffffffffffffffffff\n      and\n        /* \"NRTManager.sol\":5308:5329  kmPards == address(0) */\n      0xffffffffffffffffffffffffffffffffffffffff\n      and\n      eq\n        /* \"NRTManager.sol\":5280:5330  (pool[3] != address(0)) && (kmPards == address(0)) */\n    tag_190:\n        /* \"NRTManager.sol\":5277:5425  if((pool[3] != address(0)) && (kmPards == address(0))){... */\n      iszero\n      tag_191\n      jumpi\n        /* \"NRTManager.sol\":5353:5357  pool */\n      dup2\n        /* \"NRTManager.sol\":5358:5359  3 */\n      0x03\n        /* \"NRTManager.sol\":5353:5360  pool[3] */\n      0x09\n      dup2\n      lt\n      tag_192\n      jumpi\n      invalid\n    tag_192:\n      0x20\n      mul\n      add\n      calldataload\n      0xffffffffffffffffffffffffffffffffffffffff\n      and\n        /* \"NRTManager.sol\":5343:5350  kmPards */\n      0x0b\n      0x00\n        /* \"NRTManager.sol\":5343:5360  kmPards = pool[3] */\n      0x0100\n      exp\n      dup2\n      sload\n      dup2\n      0xffffffffffffffffffffffffffffffffffffffff\n      mul\n      not\n      and\n      swap1\n      dup4\n      0xffffffffffffffffffffffffffffffffffffffff\n      and\n      mul\n      or\n      swap1\n      sstore\n      pop\n        /* \"NRTManager.sol\":5377:5414  PoolAddressAdded( \"KmPards\", kmPards) */\n      0x12fb0c5abba542bf97c53eecc4ebe59d9ba7ad563247ed305f002ada0291d60f\n        /* \"NRTManager.sol\":5406:5413  kmPards */\n      0x0b\n      0x00\n      swap1\n      sload\n      swap1\n      0x0100\n      exp\n      swap1\n      div\n      0xffffffffffffffffffffffffffffffffffffffff\n      and\n        /* \"NRTManager.sol\":5377:5414  PoolAddressAdded( \"KmPards\", kmPards) */\n      mload(0x40)\n      dup1\n      dup1\n      0x20\n      add\n      dup4\n      0xffffffffffffffffffffffffffffffffffffffff\n      and\n      0xffffffffffffffffffffffffffffffffffffffff\n      and\n      dup2\n      mstore\n      0x20\n      add\n      dup3\n      dup2\n      sub\n      dup3\n      mstore\n      0x07\n      dup2\n      mstore\n      0x20\n      add\n      dup1\n      0x4b6d506172647300000000000000000000000000000000000000000000000000\n      dup2\n      mstore\n      pop\n      0x20\n      add\n      swap3\n      pop\n      pop\n      pop\n      mload(0x40)\n      dup1\n      swap2\n      sub\n      swap1\n      log1\n        /* \"NRTManager.sol\":5277:5425  if((pool[3] != address(0)) && (kmPards == address(0))){... */\n    tag_191:\n        /* \"NRTManager.sol\":5457:5458  0 */\n      0x00\n        /* \"NRTManager.sol\":5438:5459  pool[4] != address(0) */\n      0xffffffffffffffffffffffffffffffffffffffff\n      and\n        /* \"NRTManager.sol\":5438:5442  pool */\n      dup3\n        /* \"NRTManager.sol\":5443:5444  4 */\n      0x04\n        /* \"NRTManager.sol\":5438:5445  pool[4] */\n      0x09\n      dup2\n      lt\n      tag_193\n      jumpi\n      invalid\n    tag_193:\n      0x20\n      mul\n      add\n      calldataload\n      0xffffffffffffffffffffffffffffffffffffffff\n      and\n        /* \"NRTManager.sol\":5438:5459  pool[4] != address(0) */\n      0xffffffffffffffffffffffffffffffffffffffff\n      and\n      eq\n      iszero\n        /* \"NRTManager.sol\":5437:5496  (pool[4] != address(0)) && (contingencyFunds == address(0)) */\n      dup1\n      iszero\n      tag_194\n      jumpi\n      pop\n        /* \"NRTManager.sol\":5493:5494  0 */\n      0x00\n        /* \"NRTManager.sol\":5465:5495  contingencyFunds == address(0) */\n      0xffffffffffffffffffffffffffffffffffffffff\n      and\n        /* \"NRTManager.sol\":5465:5481  contingencyFunds */\n      0x0c\n      0x00\n      swap1\n      sload\n      swap1\n      0x0100\n      exp\n      swap1\n      div\n      0xffffffffffffffffffffffffffffffffffffffff\n      and\n        /* \"NRTManager.sol\":5465:5495  contingencyFunds == address(0) */\n      0xffffffffffffffffffffffffffffffffffffffff\n      and\n      eq\n        /* \"NRTManager.sol\":5437:5496  (pool[4] != address(0)) && (contingencyFunds == address(0)) */\n    tag_194:\n        /* \"NRTManager.sol\":5434:5618  if((pool[4] != address(0)) && (contingencyFunds == address(0))){... */\n      iszero\n      tag_195\n      jumpi\n        /* \"NRTManager.sol\":5528:5532  pool */\n      dup2\n        /* \"NRTManager.sol\":5533:5534  4 */\n      0x04\n        /* \"NRTManager.sol\":5528:5535  pool[4] */\n      0x09\n      dup2\n      lt\n      tag_196\n      jumpi\n      invalid\n    tag_196:\n      0x20\n      mul\n      add\n      calldataload\n      0xffffffffffffffffffffffffffffffffffffffff\n      and\n        /* \"NRTManager.sol\":5509:5525  contingencyFunds */\n      0x0c\n      0x00\n        /* \"NRTManager.sol\":5509:5535  contingencyFunds = pool[4] */\n      0x0100\n      exp\n      dup2\n      sload\n      dup2\n      0xffffffffffffffffffffffffffffffffffffffff\n      mul\n      not\n      and\n      swap1\n      dup4\n      0xffffffffffffffffffffffffffffffffffffffff\n      and\n      mul\n      or\n      swap1\n      sstore\n      pop\n        /* \"NRTManager.sol\":5552:5607  PoolAddressAdded( \"ContingencyFunds\", contingencyFunds) */\n      0x12fb0c5abba542bf97c53eecc4ebe59d9ba7ad563247ed305f002ada0291d60f\n        /* \"NRTManager.sol\":5590:5606  contingencyFunds */\n      0x0c\n      0x00\n      swap1\n      sload\n      swap1\n      0x0100\n      exp\n      swap1\n      div\n      0xffffffffffffffffffffffffffffffffffffffff\n      and\n        /* \"NRTManager.sol\":5552:5607  PoolAddressAdded( \"ContingencyFunds\", contingencyFunds) */\n      mload(0x40)\n      dup1\n      dup1\n      0x20\n      add\n      dup4\n      0xffffffffffffffffffffffffffffffffffffffff\n      and\n      0xffffffffffffffffffffffffffffffffffffffff\n      and\n      dup2\n      mstore\n      0x20\n      add\n      dup3\n      dup2\n      sub\n      dup3\n      mstore\n      0x10\n      dup2\n      mstore\n      0x20\n      add\n      dup1\n      0x436f6e74696e67656e637946756e647300000000000000000000000000000000\n      dup2\n      mstore\n      pop\n      0x20\n      add\n      swap3\n      pop\n      pop\n      pop\n      mload(0x40)\n      dup1\n      swap2\n      sub\n      swap1\n      log1\n        /* \"NRTManager.sol\":5434:5618  if((pool[4] != address(0)) && (contingencyFunds == address(0))){... */\n    tag_195:\n        /* \"NRTManager.sol\":5650:5651  0 */\n      0x00\n        /* \"NRTManager.sol\":5631:5652  pool[5] != address(0) */\n      0xffffffffffffffffffffffffffffffffffffffff\n      and\n        /* \"NRTManager.sol\":5631:5635  pool */\n      dup3\n        /* \"NRTManager.sol\":5636:5637  5 */\n      0x05\n        /* \"NRTManager.sol\":5631:5638  pool[5] */\n      0x09\n      dup2\n      lt\n      tag_197\n      jumpi\n      invalid\n    tag_197:\n      0x20\n      mul\n      add\n      calldataload\n      0xffffffffffffffffffffffffffffffffffffffff\n      and\n        /* \"NRTManager.sol\":5631:5652  pool[5] != address(0) */\n      0xffffffffffffffffffffffffffffffffffffffff\n      and\n      eq\n      iszero\n        /* \"NRTManager.sol\":5630:5695  (pool[5] != address(0)) && (researchAndDevelopment == address(0)) */\n      dup1\n      iszero\n      tag_198\n      jumpi\n      pop\n        /* \"NRTManager.sol\":5692:5693  0 */\n      0x00\n        /* \"NRTManager.sol\":5658:5694  researchAndDevelopment == address(0) */\n      0xffffffffffffffffffffffffffffffffffffffff\n      and\n        /* \"NRTManager.sol\":5658:5680  researchAndDevelopment */\n      0x0d\n      0x00\n      swap1\n      sload\n      swap1\n      0x0100\n      exp\n      swap1\n      div\n      0xffffffffffffffffffffffffffffffffffffffff\n      and\n        /* \"NRTManager.sol\":5658:5694  researchAndDevelopment == address(0) */\n      0xffffffffffffffffffffffffffffffffffffffff\n      and\n      eq\n        /* \"NRTManager.sol\":5630:5695  (pool[5] != address(0)) && (researchAndDevelopment == address(0)) */\n    tag_198:\n        /* \"NRTManager.sol\":5627:5835  if((pool[5] != address(0)) && (researchAndDevelopment == address(0))){... */\n      iszero\n      tag_199\n      jumpi\n        /* \"NRTManager.sol\":5733:5737  pool */\n      dup2\n        /* \"NRTManager.sol\":5738:5739  5 */\n      0x05\n        /* \"NRTManager.sol\":5733:5740  pool[5] */\n      0x09\n      dup2\n      lt\n      tag_200\n      jumpi\n      invalid\n    tag_200:\n      0x20\n      mul\n      add\n      calldataload\n      0xffffffffffffffffffffffffffffffffffffffff\n      and\n        /* \"NRTManager.sol\":5708:5730  researchAndDevelopment */\n      0x0d\n      0x00\n        /* \"NRTManager.sol\":5708:5740  researchAndDevelopment = pool[5] */\n      0x0100\n      exp\n      dup2\n      sload\n      dup2\n      0xffffffffffffffffffffffffffffffffffffffff\n      mul\n      not\n      and\n      swap1\n      dup4\n      0xffffffffffffffffffffffffffffffffffffffff\n      and\n      mul\n      or\n      swap1\n      sstore\n      pop\n        /* \"NRTManager.sol\":5757:5824  PoolAddressAdded( \"ResearchAndDevelopment\", researchAndDevelopment) */\n      0x12fb0c5abba542bf97c53eecc4ebe59d9ba7ad563247ed305f002ada0291d60f\n        /* \"NRTManager.sol\":5801:5823  researchAndDevelopment */\n      0x0d\n      0x00\n      swap1\n      sload\n      swap1\n      0x0100\n      exp\n      swap1\n      div\n      0xffffffffffffffffffffffffffffffffffffffff\n      and\n        /* \"NRTManager.sol\":5757:5824  PoolAddressAdded( \"ResearchAndDevelopment\", researchAndDevelopment) */\n      mload(0x40)\n      dup1\n      dup1\n      0x20\n      add\n      dup4\n      0xffffffffffffffffffffffffffffffffffffffff\n      and\n      0xffffffffffffffffffffffffffffffffffffffff\n      and\n      dup2\n      mstore\n      0x20\n      add\n      dup3\n      dup2\n      sub\n      dup3\n      mstore\n      0x16\n      dup2\n      mstore\n      0x20\n      add\n      dup1\n      0x5265736561726368416e64446576656c6f706d656e7400000000000000000000\n      dup2\n      mstore\n      pop\n      0x20\n      add\n      swap3\n      pop\n      pop\n      pop\n      mload(0x40)\n      dup1\n      swap2\n      sub\n      swap1\n      log1\n        /* \"NRTManager.sol\":5627:5835  if((pool[5] != address(0)) && (researchAndDevelopment == address(0))){... */\n    tag_199:\n        /* \"NRTManager.sol\":5867:5868  0 */\n      0x00\n        /* \"NRTManager.sol\":5848:5869  pool[6] != address(0) */\n      0xffffffffffffffffffffffffffffffffffffffff\n      and\n        /* \"NRTManager.sol\":5848:5852  pool */\n      dup3\n        /* \"NRTManager.sol\":5853:5854  6 */\n      0x06\n        /* \"NRTManager.sol\":5848:5855  pool[6] */\n      0x09\n      dup2\n      lt\n      tag_201\n      jumpi\n      invalid\n    tag_201:\n      0x20\n      mul\n      add\n      calldataload\n      0xffffffffffffffffffffffffffffffffffffffff\n      and\n        /* \"NRTManager.sol\":5848:5869  pool[6] != address(0) */\n      0xffffffffffffffffffffffffffffffffffffffff\n      and\n      eq\n      iszero\n        /* \"NRTManager.sol\":5847:5900  (pool[6] != address(0)) && (powerToken == address(0)) */\n      dup1\n      iszero\n      tag_202\n      jumpi\n      pop\n        /* \"NRTManager.sol\":5897:5898  0 */\n      0x00\n        /* \"NRTManager.sol\":5875:5899  powerToken == address(0) */\n      0xffffffffffffffffffffffffffffffffffffffff\n      and\n        /* \"NRTManager.sol\":5875:5885  powerToken */\n      0x0e\n      0x00\n      swap1\n      sload\n      swap1\n      0x0100\n      exp\n      swap1\n      div\n      0xffffffffffffffffffffffffffffffffffffffff\n      and\n        /* \"NRTManager.sol\":5875:5899  powerToken == address(0) */\n      0xffffffffffffffffffffffffffffffffffffffff\n      and\n      eq\n        /* \"NRTManager.sol\":5847:5900  (pool[6] != address(0)) && (powerToken == address(0)) */\n    tag_202:\n        /* \"NRTManager.sol\":5844:6004  if((pool[6] != address(0)) && (powerToken == address(0))){... */\n      iszero\n      tag_203\n      jumpi\n        /* \"NRTManager.sol\":5926:5930  pool */\n      dup2\n        /* \"NRTManager.sol\":5931:5932  6 */\n      0x06\n        /* \"NRTManager.sol\":5926:5933  pool[6] */\n      0x09\n      dup2\n      lt\n      tag_204\n      jumpi\n      invalid\n    tag_204:\n      0x20\n      mul\n      add\n      calldataload\n      0xffffffffffffffffffffffffffffffffffffffff\n      and\n        /* \"NRTManager.sol\":5913:5923  powerToken */\n      0x0e\n      0x00\n        /* \"NRTManager.sol\":5913:5933  powerToken = pool[6] */\n      0x0100\n      exp\n      dup2\n      sload\n      dup2\n      0xffffffffffffffffffffffffffffffffffffffff\n      mul\n      not\n      and\n      swap1\n      dup4\n      0xffffffffffffffffffffffffffffffffffffffff\n      and\n      mul\n      or\n      swap1\n      sstore\n      pop\n        /* \"NRTManager.sol\":5950:5993  PoolAddressAdded( \"PowerToken\", powerToken) */\n      0x12fb0c5abba542bf97c53eecc4ebe59d9ba7ad563247ed305f002ada0291d60f\n        /* \"NRTManager.sol\":5982:5992  powerToken */\n      0x0e\n      0x00\n      swap1\n      sload\n      swap1\n      0x0100\n      exp\n      swap1\n      div\n      0xffffffffffffffffffffffffffffffffffffffff\n      and\n        /* \"NRTManager.sol\":5950:5993  PoolAddressAdded( \"PowerToken\", powerToken) */\n      mload(0x40)\n      dup1\n      dup1\n      0x20\n      add\n      dup4\n      0xffffffffffffffffffffffffffffffffffffffff\n      and\n      0xffffffffffffffffffffffffffffffffffffffff\n      and\n      dup2\n      mstore\n      0x20\n      add\n      dup3\n      dup2\n      sub\n      dup3\n      mstore\n      0x0a\n      dup2\n      mstore\n      0x20\n      add\n      dup1\n      0x506f776572546f6b656e00000000000000000000000000000000000000000000\n      dup2\n      mstore\n      pop\n      0x20\n      add\n      swap3\n      pop\n      pop\n      pop\n      mload(0x40)\n      dup1\n      swap2\n      sub\n      swap1\n      log1\n        /* \"NRTManager.sol\":5844:6004  if((pool[6] != address(0)) && (powerToken == address(0))){... */\n    tag_203:\n        /* \"NRTManager.sol\":6036:6037  0 */\n      0x00\n        /* \"NRTManager.sol\":6017:6038  pool[7] != address(0) */\n      0xffffffffffffffffffffffffffffffffffffffff\n      and\n        /* \"NRTManager.sol\":6017:6021  pool */\n      dup3\n        /* \"NRTManager.sol\":6022:6023  7 */\n      0x07\n        /* \"NRTManager.sol\":6017:6024  pool[7] */\n      0x09\n      dup2\n      lt\n      tag_205\n      jumpi\n      invalid\n    tag_205:\n      0x20\n      mul\n      add\n      calldataload\n      0xffffffffffffffffffffffffffffffffffffffff\n      and\n        /* \"NRTManager.sol\":6017:6038  pool[7] != address(0) */\n      0xffffffffffffffffffffffffffffffffffffffff\n      and\n      eq\n      iszero\n        /* \"NRTManager.sol\":6016:6071  (pool[7] != address(0)) && (timeSwappers == address(0)) */\n      dup1\n      iszero\n      tag_206\n      jumpi\n      pop\n        /* \"NRTManager.sol\":6068:6069  0 */\n      0x00\n        /* \"NRTManager.sol\":6044:6070  timeSwappers == address(0) */\n      0xffffffffffffffffffffffffffffffffffffffff\n      and\n        /* \"NRTManager.sol\":6044:6056  timeSwappers */\n      0x0f\n      0x00\n      swap1\n      sload\n      swap1\n      0x0100\n      exp\n      swap1\n      div\n      0xffffffffffffffffffffffffffffffffffffffff\n      and\n        /* \"NRTManager.sol\":6044:6070  timeSwappers == address(0) */\n      0xffffffffffffffffffffffffffffffffffffffff\n      and\n      eq\n        /* \"NRTManager.sol\":6016:6071  (pool[7] != address(0)) && (timeSwappers == address(0)) */\n    tag_206:\n        /* \"NRTManager.sol\":6013:6180  if((pool[7] != address(0)) && (timeSwappers == address(0))){... */\n      iszero\n      tag_207\n      jumpi\n        /* \"NRTManager.sol\":6099:6103  pool */\n      dup2\n        /* \"NRTManager.sol\":6104:6105  7 */\n      0x07\n        /* \"NRTManager.sol\":6099:6106  pool[7] */\n      0x09\n      dup2\n      lt\n      tag_208\n      jumpi\n      invalid\n    tag_208:\n      0x20\n      mul\n      add\n      calldataload\n      0xffffffffffffffffffffffffffffffffffffffff\n      and\n        /* \"NRTManager.sol\":6084:6096  timeSwappers */\n      0x0f\n      0x00\n        /* \"NRTManager.sol\":6084:6106  timeSwappers = pool[7] */\n      0x0100\n      exp\n      dup2\n      sload\n      dup2\n      0xffffffffffffffffffffffffffffffffffffffff\n      mul\n      not\n      and\n      swap1\n      dup4\n      0xffffffffffffffffffffffffffffffffffffffff\n      and\n      mul\n      or\n      swap1\n      sstore\n      pop\n        /* \"NRTManager.sol\":6123:6169  PoolAddressAdded( \"TimeSwapper\", timeSwappers) */\n      0x12fb0c5abba542bf97c53eecc4ebe59d9ba7ad563247ed305f002ada0291d60f\n        /* \"NRTManager.sol\":6156:6168  timeSwappers */\n      0x0f\n      0x00\n      swap1\n      sload\n      swap1\n      0x0100\n      exp\n      swap1\n      div\n      0xffffffffffffffffffffffffffffffffffffffff\n      and\n        /* \"NRTManager.sol\":6123:6169  PoolAddressAdded( \"TimeSwapper\", timeSwappers) */\n      mload(0x40)\n      dup1\n      dup1\n      0x20\n      add\n      dup4\n      0xffffffffffffffffffffffffffffffffffffffff\n      and\n      0xffffffffffffffffffffffffffffffffffffffff\n      and\n      dup2\n      mstore\n      0x20\n      add\n      dup3\n      dup2\n      sub\n      dup3\n      mstore\n      0x0b\n      dup2\n      mstore\n      0x20\n      add\n      dup1\n      0x54696d6553776170706572000000000000000000000000000000000000000000\n      dup2\n      mstore\n      pop\n      0x20\n      add\n      swap3\n      pop\n      pop\n      pop\n      mload(0x40)\n      dup1\n      swap2\n      sub\n      swap1\n      log1\n        /* \"NRTManager.sol\":6013:6180  if((pool[7] != address(0)) && (timeSwappers == address(0))){... */\n    tag_207:\n        /* \"NRTManager.sol\":6212:6213  0 */\n      0x00\n        /* \"NRTManager.sol\":6193:6214  pool[8] != address(0) */\n      0xffffffffffffffffffffffffffffffffffffffff\n      and\n        /* \"NRTManager.sol\":6193:6197  pool */\n      dup3\n        /* \"NRTManager.sol\":6198:6199  8 */\n      0x08\n        /* \"NRTManager.sol\":6193:6200  pool[8] */\n      0x09\n      dup2\n      lt\n      tag_209\n      jumpi\n      invalid\n    tag_209:\n      0x20\n      mul\n      add\n      calldataload\n      0xffffffffffffffffffffffffffffffffffffffff\n      and\n        /* \"NRTManager.sol\":6193:6214  pool[8] != address(0) */\n      0xffffffffffffffffffffffffffffffffffffffff\n      and\n      eq\n      iszero\n        /* \"NRTManager.sol\":6192:6243  (pool[8] != address(0)) && (timeAlly == address(0)) */\n      dup1\n      iszero\n      tag_210\n      jumpi\n      pop\n        /* \"NRTManager.sol\":6240:6241  0 */\n      0x00\n        /* \"NRTManager.sol\":6220:6242  timeAlly == address(0) */\n      0xffffffffffffffffffffffffffffffffffffffff\n      and\n        /* \"NRTManager.sol\":6220:6228  timeAlly */\n      0x10\n      0x00\n      swap1\n      sload\n      swap1\n      0x0100\n      exp\n      swap1\n      div\n      0xffffffffffffffffffffffffffffffffffffffff\n      and\n        /* \"NRTManager.sol\":6220:6242  timeAlly == address(0) */\n      0xffffffffffffffffffffffffffffffffffffffff\n      and\n      eq\n        /* \"NRTManager.sol\":6192:6243  (pool[8] != address(0)) && (timeAlly == address(0)) */\n    tag_210:\n        /* \"NRTManager.sol\":6189:6341  if((pool[8] != address(0)) && (timeAlly == address(0))){... */\n      iszero\n      tag_211\n      jumpi\n        /* \"NRTManager.sol\":6267:6271  pool */\n      dup2\n        /* \"NRTManager.sol\":6272:6273  8 */\n      0x08\n        /* \"NRTManager.sol\":6267:6274  pool[8] */\n      0x09\n      dup2\n      lt\n      tag_212\n      jumpi\n      invalid\n    tag_212:\n      0x20\n      mul\n      add\n      calldataload\n      0xffffffffffffffffffffffffffffffffffffffff\n      and\n        /* \"NRTManager.sol\":6256:6264  timeAlly */\n      0x10\n      0x00\n        /* \"NRTManager.sol\":6256:6274  timeAlly = pool[8] */\n      0x0100\n      exp\n      dup2\n      sload\n      dup2\n      0xffffffffffffffffffffffffffffffffffffffff\n      mul\n      not\n      and\n      swap1\n      dup4\n      0xffffffffffffffffffffffffffffffffffffffff\n      and\n      mul\n      or\n      swap1\n      sstore\n      pop\n        /* \"NRTManager.sol\":6291:6330  PoolAddressAdded( \"TimeAlly\", timeAlly) */\n      0x12fb0c5abba542bf97c53eecc4ebe59d9ba7ad563247ed305f002ada0291d60f\n        /* \"NRTManager.sol\":6321:6329  timeAlly */\n      0x10\n      0x00\n      swap1\n      sload\n      swap1\n      0x0100\n      exp\n      swap1\n      div\n      0xffffffffffffffffffffffffffffffffffffffff\n      and\n        /* \"NRTManager.sol\":6291:6330  PoolAddressAdded( \"TimeAlly\", timeAlly) */\n      mload(0x40)\n      dup1\n      dup1\n      0x20\n      add\n      dup4\n      0xffffffffffffffffffffffffffffffffffffffff\n      and\n      0xffffffffffffffffffffffffffffffffffffffff\n      and\n      dup2\n      mstore\n      0x20\n      add\n      dup3\n      dup2\n      sub\n      dup3\n      mstore\n      0x08\n      dup2\n      mstore\n      0x20\n      add\n      dup1\n      0x54696d65416c6c79000000000000000000000000000000000000000000000000\n      dup2\n      mstore\n      pop\n      0x20\n      add\n      swap3\n      pop\n      pop\n      pop\n      mload(0x40)\n      dup1\n      swap2\n      sub\n      swap1\n      log1\n        /* \"NRTManager.sol\":6189:6341  if((pool[8] != address(0)) && (timeAlly == address(0))){... */\n    tag_211:\n        /* \"NRTManager.sol\":6358:6362  true */\n      0x01\n        /* \"NRTManager.sol\":6351:6362  return true */\n      swap1\n      pop\n        /* \"NRTManager.sol\":4558:6371  function UpdateAddresses (address[9] calldata pool) external OnlyOwner  returns(bool){... */\n      swap2\n      swap1\n      pop\n      jump\t// out\n        /* \"NRTManager.sol\":1447:1480  uint256 public marketingAndRNRBal */\n    tag_94:\n      sload(0x13)\n      dup2\n      jump\t// out\n        /* \"NRTManager.sol\":1239:1282  uint256 public newTalentsAndPartnershipsBal */\n    tag_96:\n      sload(0x11)\n      dup2\n      jump\t// out\n        /* \"SafeMath.sol\":1439:1584  function add(uint256 a, uint256 b) internal pure returns (uint256) {... */\n    tag_102:\n        /* \"SafeMath.sol\":1497:1504  uint256 */\n      0x00\n        /* \"SafeMath.sol\":1516:1525  uint256 c */\n      dup1\n        /* \"SafeMath.sol\":1532:1533  b */\n      dup3\n        /* \"SafeMath.sol\":1528:1529  a */\n      dup5\n        /* \"SafeMath.sol\":1528:1533  a + b */\n      add\n        /* \"SafeMath.sol\":1516:1533  uint256 c = a + b */\n      swap1\n      pop\n        /* \"SafeMath.sol\":1556:1557  a */\n      dup4\n        /* \"SafeMath.sol\":1551:1552  c */\n      dup2\n        /* \"SafeMath.sol\":1551:1557  c >= a */\n      lt\n      iszero\n        /* \"SafeMath.sol\":1543:1558  require(c >= a) */\n      tag_214\n      jumpi\n      0x00\n      dup1\n      revert\n    tag_214:\n        /* \"SafeMath.sol\":1576:1577  c */\n      dup1\n        /* \"SafeMath.sol\":1569:1577  return c */\n      swap2\n      pop\n      pop\n        /* \"SafeMath.sol\":1439:1584  function add(uint256 a, uint256 b) internal pure returns (uint256) {... */\n      swap3\n      swap2\n      pop\n      pop\n      jump\t// out\n        /* \"SafeMath.sol\":1211:1356  function sub(uint256 a, uint256 b) internal pure returns (uint256) {... */\n    tag_113:\n        /* \"SafeMath.sol\":1269:1276  uint256 */\n      0x00\n        /* \"SafeMath.sol\":1301:1302  a */\n      dup3\n        /* \"SafeMath.sol\":1296:1297  b */\n      dup3\n        /* \"SafeMath.sol\":1296:1302  b <= a */\n      gt\n      iszero\n        /* \"SafeMath.sol\":1288:1303  require(b <= a) */\n      tag_216\n      jumpi\n      0x00\n      dup1\n      revert\n    tag_216:\n        /* \"SafeMath.sol\":1313:1322  uint256 c */\n      0x00\n        /* \"SafeMath.sol\":1329:1330  b */\n      dup3\n        /* \"SafeMath.sol\":1325:1326  a */\n      dup5\n        /* \"SafeMath.sol\":1325:1330  a - b */\n      sub\n        /* \"SafeMath.sol\":1313:1330  uint256 c = a - b */\n      swap1\n      pop\n        /* \"SafeMath.sol\":1348:1349  c */\n      dup1\n        /* \"SafeMath.sol\":1341:1349  return c */\n      swap2\n      pop\n      pop\n        /* \"SafeMath.sol\":1211:1356  function sub(uint256 a, uint256 b) internal pure returns (uint256) {... */\n      swap3\n      swap2\n      pop\n      pop\n      jump\t// out\n        /* \"SafeMath.sol\":231:652  function mul(uint256 a, uint256 b) internal pure returns (uint256) {... */\n    tag_118:\n        /* \"SafeMath.sol\":289:296  uint256 */\n      0x00\n        /* \"SafeMath.sol\":534:535  0 */\n      dup1\n        /* \"SafeMath.sol\":529:530  a */\n      dup4\n        /* \"SafeMath.sol\":529:535  a == 0 */\n      eq\n        /* \"SafeMath.sol\":525:570  if (a == 0) {... */\n      iszero\n      tag_218\n      jumpi\n        /* \"SafeMath.sol\":558:559  0 */\n      0x00\n        /* \"SafeMath.sol\":551:559  return 0 */\n      swap1\n      pop\n      jump(tag_217)\n        /* \"SafeMath.sol\":525:570  if (a == 0) {... */\n    tag_218:\n        /* \"SafeMath.sol\":580:589  uint256 c */\n      0x00\n        /* \"SafeMath.sol\":596:597  b */\n      dup3\n        /* \"SafeMath.sol\":592:593  a */\n      dup5\n        /* \"SafeMath.sol\":592:597  a * b */\n      mul\n        /* \"SafeMath.sol\":580:597  uint256 c = a * b */\n      swap1\n      pop\n        /* \"SafeMath.sol\":624:625  b */\n      dup3\n        /* \"SafeMath.sol\":619:620  a */\n      dup5\n        /* \"SafeMath.sol\":615:616  c */\n      dup3\n        /* \"SafeMath.sol\":615:620  c / a */\n      dup2\n      tag_219\n      jumpi\n      invalid\n    tag_219:\n      div\n        /* \"SafeMath.sol\":615:625  c / a == b */\n      eq\n        /* \"SafeMath.sol\":607:626  require(c / a == b) */\n      tag_220\n      jumpi\n      0x00\n      dup1\n      revert\n    tag_220:\n        /* \"SafeMath.sol\":644:645  c */\n      dup1\n        /* \"SafeMath.sol\":637:645  return c */\n      swap2\n      pop\n      pop\n        /* \"SafeMath.sol\":231:652  function mul(uint256 a, uint256 b) internal pure returns (uint256) {... */\n    tag_217:\n      swap3\n      swap2\n      pop\n      pop\n      jump\t// out\n        /* \"SafeMath.sol\":782:1078  function div(uint256 a, uint256 b) internal pure returns (uint256) {... */\n    tag_119:\n        /* \"SafeMath.sol\":840:847  uint256 */\n      0x00\n        /* \"SafeMath.sol\":937:938  0 */\n      dup1\n        /* \"SafeMath.sol\":933:934  b */\n      dup3\n        /* \"SafeMath.sol\":933:938  b > 0 */\n      gt\n        /* \"SafeMath.sol\":925:939  require(b > 0) */\n      tag_222\n      jumpi\n      0x00\n      dup1\n      revert\n    tag_222:\n        /* \"SafeMath.sol\":949:958  uint256 c */\n      0x00\n        /* \"SafeMath.sol\":965:966  b */\n      dup3\n        /* \"SafeMath.sol\":961:962  a */\n      dup5\n        /* \"SafeMath.sol\":961:966  a / b */\n      dup2\n      tag_223\n      jumpi\n      invalid\n    tag_223:\n      div\n        /* \"SafeMath.sol\":949:966  uint256 c = a / b */\n      swap1\n      pop\n        /* \"SafeMath.sol\":1070:1071  c */\n      dup1\n        /* \"SafeMath.sol\":1063:1071  return c */\n      swap2\n      pop\n      pop\n        /* \"SafeMath.sol\":782:1078  function div(uint256 a, uint256 b) internal pure returns (uint256) {... */\n      swap3\n      swap2\n      pop\n      pop\n      jump\t// out\n        /* \"NRTManager.sol\":3808:4327  function burnTokens() internal returns (bool){... */\n    tag_167:\n        /* \"NRTManager.sol\":3848:3852  bool */\n      0x00\n        /* \"NRTManager.sol\":3882:3883  0 */\n      dup1\n        /* \"NRTManager.sol\":3866:3878  burnTokenBal */\n      sload(0x05)\n        /* \"NRTManager.sol\":3866:3883  burnTokenBal == 0 */\n      eq\n        /* \"NRTManager.sol\":3863:4319  if(burnTokenBal == 0){... */\n      iszero\n      tag_225\n      jumpi\n        /* \"NRTManager.sol\":3903:3907  true */\n      0x01\n        /* \"NRTManager.sol\":3896:3907  return true */\n      swap1\n      pop\n      jump(tag_224)\n        /* \"NRTManager.sol\":3863:4319  if(burnTokenBal == 0){... */\n    tag_225:\n        /* \"NRTManager.sol\":3943:3957  uint MaxAmount */\n      0x00\n        /* \"NRTManager.sol\":3960:3999  ((token.totalSupply()).mul(2)).div(100) */\n      tag_227\n        /* \"NRTManager.sol\":3995:3998  100 */\n      0x64\n        /* \"NRTManager.sol\":3961:3989  (token.totalSupply()).mul(2) */\n      tag_228\n        /* \"NRTManager.sol\":3987:3988  2 */\n      0x02\n        /* \"NRTManager.sol\":3962:3967  token */\n      0x06\n      0x00\n      swap1\n      sload\n      swap1\n      0x0100\n      exp\n      swap1\n      div\n      0xffffffffffffffffffffffffffffffffffffffff\n      and\n        /* \"NRTManager.sol\":3962:3979  token.totalSupply */\n      0xffffffffffffffffffffffffffffffffffffffff\n      and\n      0x18160ddd\n        /* \"NRTManager.sol\":3962:3981  token.totalSupply() */\n      mload(0x40)\n      dup2\n      0xffffffff\n      and\n      0xe0\n      shl\n      dup2\n      mstore\n      0x04\n      add\n      0x20\n      mload(0x40)\n      dup1\n      dup4\n      sub\n      dup2\n      dup7\n      dup1\n      extcodesize\n      iszero\n        /* \"--CODEGEN--\":8:17   */\n      dup1\n        /* \"--CODEGEN--\":5:7   */\n      iszero\n      tag_229\n      jumpi\n        /* \"--CODEGEN--\":30:31   */\n      0x00\n        /* \"--CODEGEN--\":27:28   */\n      dup1\n        /* \"--CODEGEN--\":20:32   */\n      revert\n        /* \"--CODEGEN--\":5:7   */\n    tag_229:\n        /* \"NRTManager.sol\":3962:3981  token.totalSupply() */\n      pop\n      gas\n      staticcall\n      iszero\n        /* \"--CODEGEN--\":8:17   */\n      dup1\n        /* \"--CODEGEN--\":5:7   */\n      iszero\n      tag_230\n      jumpi\n        /* \"--CODEGEN--\":45:61   */\n      returndatasize\n        /* \"--CODEGEN--\":42:43   */\n      0x00\n        /* \"--CODEGEN--\":39:40   */\n      dup1\n        /* \"--CODEGEN--\":24:62   */\n      returndatacopy\n        /* \"--CODEGEN--\":77:93   */\n      returndatasize\n        /* \"--CODEGEN--\":74:75   */\n      0x00\n        /* \"--CODEGEN--\":67:94   */\n      revert\n        /* \"--CODEGEN--\":5:7   */\n    tag_230:\n        /* \"NRTManager.sol\":3962:3981  token.totalSupply() */\n      pop\n      pop\n      pop\n      pop\n      mload(0x40)\n      returndatasize\n        /* \"--CODEGEN--\":13:15   */\n      0x20\n        /* \"--CODEGEN--\":8:11   */\n      dup2\n        /* \"--CODEGEN--\":5:16   */\n      lt\n        /* \"--CODEGEN--\":2:4   */\n      iszero\n      tag_231\n      jumpi\n        /* \"--CODEGEN--\":29:30   */\n      0x00\n        /* \"--CODEGEN--\":26:27   */\n      dup1\n        /* \"--CODEGEN--\":19:31   */\n      revert\n        /* \"--CODEGEN--\":2:4   */\n    tag_231:\n        /* \"NRTManager.sol\":3962:3981  token.totalSupply() */\n      dup2\n      add\n      swap1\n      dup1\n      dup1\n      mload\n      swap1\n      0x20\n      add\n      swap1\n      swap3\n      swap2\n      swap1\n      pop\n      pop\n      pop\n        /* \"NRTManager.sol\":3961:3986  (token.totalSupply()).mul */\n      tag_118\n      swap1\n        /* \"NRTManager.sol\":3961:3989  (token.totalSupply()).mul(2) */\n      swap2\n      swap1\n      0xffffffff\n      and\n      jump\t// in\n    tag_228:\n        /* \"NRTManager.sol\":3960:3994  ((token.totalSupply()).mul(2)).div */\n      tag_119\n      swap1\n        /* \"NRTManager.sol\":3960:3999  ((token.totalSupply()).mul(2)).div(100) */\n      swap2\n      swap1\n      0xffffffff\n      and\n      jump\t// in\n    tag_227:\n        /* \"NRTManager.sol\":3943:3999  uint MaxAmount = ((token.totalSupply()).mul(2)).div(100) */\n      swap1\n      pop\n        /* \"NRTManager.sol\":4072:4084  burnTokenBal */\n      sload(0x05)\n        /* \"NRTManager.sol\":4059:4068  MaxAmount */\n      dup2\n        /* \"NRTManager.sol\":4059:4084  MaxAmount >= burnTokenBal */\n      lt\n        /* \"NRTManager.sol\":4056:4286  if(MaxAmount >= burnTokenBal ){... */\n      tag_232\n      jumpi\n        /* \"NRTManager.sol\":4100:4105  token */\n      0x06\n      0x00\n      swap1\n      sload\n      swap1\n      0x0100\n      exp\n      swap1\n      div\n      0xffffffffffffffffffffffffffffffffffffffff\n      and\n        /* \"NRTManager.sol\":4100:4110  token.burn */\n      0xffffffffffffffffffffffffffffffffffffffff\n      and\n      0x42966c68\n        /* \"NRTManager.sol\":4111:4123  burnTokenBal */\n      sload(0x05)\n        /* \"NRTManager.sol\":4100:4124  token.burn(burnTokenBal) */\n      mload(0x40)\n      dup3\n      0xffffffff\n      and\n      0xe0\n      shl\n      dup2\n      mstore\n      0x04\n      add\n      dup1\n      dup3\n      dup2\n      mstore\n      0x20\n      add\n      swap2\n      pop\n      pop\n      0x00\n      mload(0x40)\n      dup1\n      dup4\n      sub\n      dup2\n      0x00\n      dup8\n      dup1\n      extcodesize\n      iszero\n        /* \"--CODEGEN--\":8:17   */\n      dup1\n        /* \"--CODEGEN--\":5:7   */\n      iszero\n      tag_233\n      jumpi\n        /* \"--CODEGEN--\":30:31   */\n      0x00\n        /* \"--CODEGEN--\":27:28   */\n      dup1\n        /* \"--CODEGEN--\":20:32   */\n      revert\n        /* \"--CODEGEN--\":5:7   */\n    tag_233:\n        /* \"NRTManager.sol\":4100:4124  token.burn(burnTokenBal) */\n      pop\n      gas\n      call\n      iszero\n        /* \"--CODEGEN--\":8:17   */\n      dup1\n        /* \"--CODEGEN--\":5:7   */\n      iszero\n      tag_234\n      jumpi\n        /* \"--CODEGEN--\":45:61   */\n      returndatasize\n        /* \"--CODEGEN--\":42:43   */\n      0x00\n        /* \"--CODEGEN--\":39:40   */\n      dup1\n        /* \"--CODEGEN--\":24:62   */\n      returndatacopy\n        /* \"--CODEGEN--\":77:93   */\n      returndatasize\n        /* \"--CODEGEN--\":74:75   */\n      0x00\n        /* \"--CODEGEN--\":67:94   */\n      revert\n        /* \"--CODEGEN--\":5:7   */\n    tag_234:\n        /* \"NRTManager.sol\":4100:4124  token.burn(burnTokenBal) */\n      pop\n      pop\n      pop\n      pop\n        /* \"NRTManager.sol\":4153:4154  0 */\n      0x00\n        /* \"NRTManager.sol\":4138:4150  burnTokenBal */\n      0x05\n        /* \"NRTManager.sol\":4138:4154  burnTokenBal = 0 */\n      dup2\n      swap1\n      sstore\n      pop\n        /* \"NRTManager.sol\":4056:4286  if(MaxAmount >= burnTokenBal ){... */\n      jump(tag_235)\n    tag_232:\n        /* \"NRTManager.sol\":4211:4238  burnTokenBal.sub(MaxAmount) */\n      tag_236\n        /* \"NRTManager.sol\":4228:4237  MaxAmount */\n      dup2\n        /* \"NRTManager.sol\":4211:4223  burnTokenBal */\n      sload(0x05)\n        /* \"NRTManager.sol\":4211:4227  burnTokenBal.sub */\n      tag_113\n      swap1\n        /* \"NRTManager.sol\":4211:4238  burnTokenBal.sub(MaxAmount) */\n      swap2\n      swap1\n      0xffffffff\n      and\n      jump\t// in\n    tag_236:\n        /* \"NRTManager.sol\":4196:4208  burnTokenBal */\n      0x05\n        /* \"NRTManager.sol\":4196:4238  burnTokenBal = burnTokenBal.sub(MaxAmount) */\n      dup2\n      swap1\n      sstore\n      pop\n        /* \"NRTManager.sol\":4252:4257  token */\n      0x06\n      0x00\n      swap1\n      sload\n      swap1\n      0x0100\n      exp\n      swap1\n      div\n      0xffffffffffffffffffffffffffffffffffffffff\n      and\n        /* \"NRTManager.sol\":4252:4262  token.burn */\n      0xffffffffffffffffffffffffffffffffffffffff\n      and\n      0x42966c68\n        /* \"NRTManager.sol\":4263:4272  MaxAmount */\n      dup3\n        /* \"NRTManager.sol\":4252:4273  token.burn(MaxAmount) */\n      mload(0x40)\n      dup3\n      0xffffffff\n      and\n      0xe0\n      shl\n      dup2\n      mstore\n      0x04\n      add\n      dup1\n      dup3\n      dup2\n      mstore\n      0x20\n      add\n      swap2\n      pop\n      pop\n      0x00\n      mload(0x40)\n      dup1\n      dup4\n      sub\n      dup2\n      0x00\n      dup8\n      dup1\n      extcodesize\n      iszero\n        /* \"--CODEGEN--\":8:17   */\n      dup1\n        /* \"--CODEGEN--\":5:7   */\n      iszero\n      tag_237\n      jumpi\n        /* \"--CODEGEN--\":30:31   */\n      0x00\n        /* \"--CODEGEN--\":27:28   */\n      dup1\n        /* \"--CODEGEN--\":20:32   */\n      revert\n        /* \"--CODEGEN--\":5:7   */\n    tag_237:\n        /* \"NRTManager.sol\":4252:4273  token.burn(MaxAmount) */\n      pop\n      gas\n      call\n      iszero\n        /* \"--CODEGEN--\":8:17   */\n      dup1\n        /* \"--CODEGEN--\":5:7   */\n      iszero\n      tag_238\n      jumpi\n        /* \"--CODEGEN--\":45:61   */\n      returndatasize\n        /* \"--CODEGEN--\":42:43   */\n      0x00\n        /* \"--CODEGEN--\":39:40   */\n      dup1\n        /* \"--CODEGEN--\":24:62   */\n      returndatacopy\n        /* \"--CODEGEN--\":77:93   */\n      returndatasize\n        /* \"--CODEGEN--\":74:75   */\n      0x00\n        /* \"--CODEGEN--\":67:94   */\n      revert\n        /* \"--CODEGEN--\":5:7   */\n    tag_238:\n        /* \"NRTManager.sol\":4252:4273  token.burn(MaxAmount) */\n      pop\n      pop\n      pop\n      pop\n        /* \"NRTManager.sol\":4056:4286  if(MaxAmount >= burnTokenBal ){... */\n    tag_235:\n        /* \"NRTManager.sol\":4304:4308  true */\n      0x01\n        /* \"NRTManager.sol\":4297:4308  return true */\n      swap2\n      pop\n      pop\n        /* \"NRTManager.sol\":3808:4327  function burnTokens() internal returns (bool){... */\n    tag_224:\n      swap1\n      jump\t// out\n    stop\n    data_75b80d254974e234aa097720f74460cadd2b76f17d7eb2120a344a75769d98ab 4f6e6c792054696d65416c6c7920616e642054696d657377617070657220697320617574686f7269736564\n    data_f2be0bdc1b11a94fc4e1a8a1916cd2e21b6687cb60899d8c2cd7a367527e7b93 4e52542072656c656173652068617070656e73206f6e6365206576657279206d6f6e7468\n\n    auxdata: 0xa265627a7a723058209b4190896b8b780b1e557af83ee71367ca0d1651b995589885f307c92449002d64736f6c634300050a0032\n}\n","bytecode":{"linkReferences":{},"object":"60806040523480156200001157600080fd5b50604051620036a3380380620036a3833981810160405260208110156200003757600080fd5b810190808051906020019092919050505080600660006101000a81548173ffffffffffffffffffffffffffffffffffffffff021916908373ffffffffffffffffffffffffffffffffffffffff160217905550426000819055506b02a575fef6999c3a13000000600281905550620000c0600c6002546200011660201b620032721790919060201c565b600181905550600060038190555033600760006101000a81548173ffffffffffffffffffffffffffffffffffffffff021916908373ffffffffffffffffffffffffffffffffffffffff160217905550506200013e565b60008082116200012557600080fd5b60008284816200013157fe5b0490508091505092915050565b613555806200014e6000396000f3fe608060405234801561001057600080fd5b50600436106101c45760003560e01c8063682667a9116100f9578063b018abbd11610097578063c3348a8b11610071578063c3348a8b14610679578063cb358efa14610697578063d37eb950146106df578063e71a3bfd146106fd576101c4565b8063b018abbd1461061b578063bd27d3611461063d578063bfb3d6c81461065b576101c4565b80637b8c0b79116100d35780637b8c0b791461054b5780637d53257a146105695780639662ac58146105875780639cd417de146105d1576101c4565b8063682667a9146104c55780636db42ca51461050f578063797d123c1461052d576101c4565b806341aaa9b6116101665780635c12278d116101405780635c12278d146103f55780635f7ce89f1461043f5780636037d2a31461045d57806365c004701461047b576101c4565b806341aaa9b6146103475780634a4581aa1461038d57806351bd70b1146103ab576101c4565b80632cfceb07116101a25780632cfceb071461027b578063382e2aab146102995780633a18a9fd146102df5780633e04f4f914610329576101c4565b80630b3e29b8146101c95780630d4e57a41461021357806326b3bf2f14610231575b600080fd5b6101d161071b565b604051808273ffffffffffffffffffffffffffffffffffffffff1673ffffffffffffffffffffffffffffffffffffffff16815260200191505060405180910390f35b61021b610741565b6040518082815260200191505060405180910390f35b610239610747565b604051808273ffffffffffffffffffffffffffffffffffffffff1673ffffffffffffffffffffffffffffffffffffffff16815260200191505060405180910390f35b61028361076d565b6040518082815260200191505060405180910390f35b6102c5600480360360208110156102af57600080fd5b8101908080359060200190929190505050610773565b604051808215151515815260200191505060405180910390f35b6102e76108d0565b604051808273ffffffffffffffffffffffffffffffffffffffff1673ffffffffffffffffffffffffffffffffffffffff16815260200191505060405180910390f35b6103316108f6565b6040518082815260200191505060405180910390f35b6103736004803603602081101561035d57600080fd5b81019080803590602001909291905050506108fc565b604051808215151515815260200191505060405180910390f35b610395610a59565b6040518082815260200191505060405180910390f35b6103b3610a5f565b604051808273ffffffffffffffffffffffffffffffffffffffff1673ffffffffffffffffffffffffffffffffffffffff16815260200191505060405180910390f35b6103fd610a85565b604051808273ffffffffffffffffffffffffffffffffffffffff1673ffffffffffffffffffffffffffffffffffffffff16815260200191505060405180910390f35b610447610aab565b6040518082815260200191505060405180910390f35b610465610ab1565b6040518082815260200191505060405180910390f35b610483610ab7565b604051808273ffffffffffffffffffffffffffffffffffffffff1673ffffffffffffffffffffffffffffffffffffffff16815260200191505060405180910390f35b6104cd610add565b604051808273ffffffffffffffffffffffffffffffffffffffff1673ffffffffffffffffffffffffffffffffffffffff16815260200191505060405180910390f35b610517610b03565b6040518082815260200191505060405180910390f35b610535610b09565b6040518082815260200191505060405180910390f35b610553610b0f565b6040518082815260200191505060405180910390f35b610571610b15565b6040518082815260200191505060405180910390f35b61058f610b1b565b604051808273ffffffffffffffffffffffffffffffffffffffff1673ffffffffffffffffffffffffffffffffffffffff16815260200191505060405180910390f35b6105d9610b41565b604051808273ffffffffffffffffffffffffffffffffffffffff1673ffffffffffffffffffffffffffffffffffffffff16815260200191505060405180910390f35b610623610b67565b604051808215151515815260200191505060405180910390f35b61064561203f565b6040518082815260200191505060405180910390f35b610663612045565b6040518082815260200191505060405180910390f35b61068161204b565b6040518082815260200191505060405180910390f35b6106c560048036036101208110156106ae57600080fd5b810190808061012001909192919290505050612051565b604051808215151515815260200191505060405180910390f35b6106e76131ed565b6040518082815260200191505060405180910390f35b6107056131f3565b6040518082815260200191505060405180910390f35b600c60009054906101000a900473ffffffffffffffffffffffffffffffffffffffff1681565b60035481565b600860009054906101000a900473ffffffffffffffffffffffffffffffffffffffff1681565b60145481565b6000601060009054906101000a900473ffffffffffffffffffffffffffffffffffffffff1673ffffffffffffffffffffffffffffffffffffffff163373ffffffffffffffffffffffffffffffffffffffff16148061081e5750600f60009054906101000a900473ffffffffffffffffffffffffffffffffffffffff1673ffffffffffffffffffffffffffffffffffffffff163373ffffffffffffffffffffffffffffffffffffffff16145b610873576040517f08c379a000000000000000000000000000000000000000000000000000000000815260040180806020018281038252602b8152602001806134d2602b913960400191505060405180910390fd5b610888826004546131f990919063ffffffff16565b6004819055507fc9c58ca254a2bde8ce607d1f5211f98c28c52efcea5216a867ea933b95efc31f6004546040518082815260200191505060405180910390a160019050919050565b600960009054906101000a900473ffffffffffffffffffffffffffffffffffffffff1681565b60185481565b6000601060009054906101000a900473ffffffffffffffffffffffffffffffffffffffff1673ffffffffffffffffffffffffffffffffffffffff163373ffffffffffffffffffffffffffffffffffffffff1614806109a75750600f60009054906101000a900473ffffffffffffffffffffffffffffffffffffffff1673ffffffffffffffffffffffffffffffffffffffff163373ffffffffffffffffffffffffffffffffffffffff16145b6109fc576040517f08c379a000000000000000000000000000000000000000000000000000000000815260040180806020018281038252602b8152602001806134d2602b913960400191505060405180910390fd5b610a11826005546131f990919063ffffffff16565b6005819055507f8f740eb8352e99b7242ce9c7cec021ee8b28b4acef603ff1260fe8b722822fec6005546040518082815260200191505060405180910390a160019050919050565b60055481565b600a60009054906101000a900473ffffffffffffffffffffffffffffffffffffffff1681565b600d60009054906101000a900473ffffffffffffffffffffffffffffffffffffffff1681565b60155481565b60015481565b600b60009054906101000a900473ffffffffffffffffffffffffffffffffffffffff1681565b601060009054906101000a900473ffffffffffffffffffffffffffffffffffffffff1681565b60175481565b60005481565b60025481565b60165481565b600e60009054906101000a900473ffffffffffffffffffffffffffffffffffffffff1681565b600f60009054906101000a900473ffffffffffffffffffffffffffffffffffffffff1681565b600062278d00610c24600054600660009054906101000a900473ffffffffffffffffffffffffffffffffffffffff1673ffffffffffffffffffffffffffffffffffffffff1663b81f90f36040518163ffffffff1660e01b815260040160206040518083038186803b158015610bdb57600080fd5b505afa158015610bef573d6000803e3d6000fd5b505050506040513d6020811015610c0557600080fd5b810190808051906020019092919050505061321890919063ffffffff16565b11610c7a576040517f08c379a00000000000000000000000000000000000000000000000000000000081526004018080602001828103825260248152602001806134fd6024913960400191505060405180910390fd5b6000610c936004546001546131f990919063ffffffff16565b9050610cbc6064610cae60058461323890919063ffffffff16565b61327290919063ffffffff16565b601181905550610ce96064610cdb600a8461323890919063ffffffff16565b61327290919063ffffffff16565b601281905550610d166064610d08600a8461323890919063ffffffff16565b61327290919063ffffffff16565b601381905550610d436064610d35600a8461323890919063ffffffff16565b61327290919063ffffffff16565b601481905550610d706064610d62600a8461323890919063ffffffff16565b61327290919063ffffffff16565b601581905550610d9d6064610d8f60058461323890919063ffffffff16565b61327290919063ffffffff16565b601681905550610dca6064610dbc600a8461323890919063ffffffff16565b61327290919063ffffffff16565b601781905550610df76064610de9600f8461323890919063ffffffff16565b61327290919063ffffffff16565b601881905550610e246064610e1660198461323890919063ffffffff16565b61327290919063ffffffff16565b601981905550600660009054906101000a900473ffffffffffffffffffffffffffffffffffffffff1673ffffffffffffffffffffffffffffffffffffffff166340c10f19600860009054906101000a900473ffffffffffffffffffffffffffffffffffffffff166011546040518363ffffffff1660e01b8152600401808373ffffffffffffffffffffffffffffffffffffffff1673ffffffffffffffffffffffffffffffffffffffff16815260200182815260200192505050602060405180830381600087803b158015610ef757600080fd5b505af1158015610f0b573d6000803e3d6000fd5b505050506040513d6020811015610f2157600080fd5b8101908080519060200190929190505050507f8470ec6072093abfec912969ee9fd5273eed1d3202eac51a1fd83c236ee9bea8600860009054906101000a900473ffffffffffffffffffffffffffffffffffffffff1660115460405180806020018473ffffffffffffffffffffffffffffffffffffffff1673ffffffffffffffffffffffffffffffffffffffff168152602001838152602001828103825260198152602001807f6e657754616c656e7473416e64506172746e6572736869707300000000000000815250602001935050505060405180910390a1600660009054906101000a900473ffffffffffffffffffffffffffffffffffffffff1673ffffffffffffffffffffffffffffffffffffffff166340c10f19600960009054906101000a900473ffffffffffffffffffffffffffffffffffffffff166012546040518363ffffffff1660e01b8152600401808373ffffffffffffffffffffffffffffffffffffffff1673ffffffffffffffffffffffffffffffffffffffff16815260200182815260200192505050602060405180830381600087803b1580156110c857600080fd5b505af11580156110dc573d6000803e3d6000fd5b505050506040513d60208110156110f257600080fd5b8101908080519060200190929190505050507f8470ec6072093abfec912969ee9fd5273eed1d3202eac51a1fd83c236ee9bea8600960009054906101000a900473ffffffffffffffffffffffffffffffffffffffff1660125460405180806020018473ffffffffffffffffffffffffffffffffffffffff1673ffffffffffffffffffffffffffffffffffffffff168152602001838152602001828103825260138152602001807f706c6174666f726d4d61696e74656e616e636500000000000000000000000000815250602001935050505060405180910390a1600660009054906101000a900473ffffffffffffffffffffffffffffffffffffffff1673ffffffffffffffffffffffffffffffffffffffff166340c10f19600a60009054906101000a900473ffffffffffffffffffffffffffffffffffffffff166013546040518363ffffffff1660e01b8152600401808373ffffffffffffffffffffffffffffffffffffffff1673ffffffffffffffffffffffffffffffffffffffff16815260200182815260200192505050602060405180830381600087803b15801561129957600080fd5b505af11580156112ad573d6000803e3d6000fd5b505050506040513d60208110156112c357600080fd5b8101908080519060200190929190505050507f8470ec6072093abfec912969ee9fd5273eed1d3202eac51a1fd83c236ee9bea8600a60009054906101000a900473ffffffffffffffffffffffffffffffffffffffff1660135460405180806020018473ffffffffffffffffffffffffffffffffffffffff1673ffffffffffffffffffffffffffffffffffffffff1681526020018381526020018281038252600f8152602001807f6d61726b6574696e67416e64524e520000000000000000000000000000000000815250602001935050505060405180910390a1600660009054906101000a900473ffffffffffffffffffffffffffffffffffffffff1673ffffffffffffffffffffffffffffffffffffffff166340c10f19600b60009054906101000a900473ffffffffffffffffffffffffffffffffffffffff166014546040518363ffffffff1660e01b8152600401808373ffffffffffffffffffffffffffffffffffffffff1673ffffffffffffffffffffffffffffffffffffffff16815260200182815260200192505050602060405180830381600087803b15801561146a57600080fd5b505af115801561147e573d6000803e3d6000fd5b505050506040513d602081101561149457600080fd5b8101908080519060200190929190505050507f8470ec6072093abfec912969ee9fd5273eed1d3202eac51a1fd83c236ee9bea8600b60009054906101000a900473ffffffffffffffffffffffffffffffffffffffff1660145460405180806020018473ffffffffffffffffffffffffffffffffffffffff1673ffffffffffffffffffffffffffffffffffffffff168152602001838152602001828103825260078152602001807f6b6d506172647300000000000000000000000000000000000000000000000000815250602001935050505060405180910390a1600660009054906101000a900473ffffffffffffffffffffffffffffffffffffffff1673ffffffffffffffffffffffffffffffffffffffff166340c10f19600c60009054906101000a900473ffffffffffffffffffffffffffffffffffffffff166015546040518363ffffffff1660e01b8152600401808373ffffffffffffffffffffffffffffffffffffffff1673ffffffffffffffffffffffffffffffffffffffff16815260200182815260200192505050602060405180830381600087803b15801561163b57600080fd5b505af115801561164f573d6000803e3d6000fd5b505050506040513d602081101561166557600080fd5b8101908080519060200190929190505050507f8470ec6072093abfec912969ee9fd5273eed1d3202eac51a1fd83c236ee9bea8600c60009054906101000a900473ffffffffffffffffffffffffffffffffffffffff1660155460405180806020018473ffffffffffffffffffffffffffffffffffffffff1673ffffffffffffffffffffffffffffffffffffffff168152602001838152602001828103825260108152602001807f636f6e74696e67656e637946756e647300000000000000000000000000000000815250602001935050505060405180910390a1600660009054906101000a900473ffffffffffffffffffffffffffffffffffffffff1673ffffffffffffffffffffffffffffffffffffffff166340c10f19600d60009054906101000a900473ffffffffffffffffffffffffffffffffffffffff166016546040518363ffffffff1660e01b8152600401808373ffffffffffffffffffffffffffffffffffffffff1673ffffffffffffffffffffffffffffffffffffffff16815260200182815260200192505050602060405180830381600087803b15801561180c57600080fd5b505af1158015611820573d6000803e3d6000fd5b505050506040513d602081101561183657600080fd5b8101908080519060200190929190505050507f8470ec6072093abfec912969ee9fd5273eed1d3202eac51a1fd83c236ee9bea8600d60009054906101000a900473ffffffffffffffffffffffffffffffffffffffff1660165460405180806020018473ffffffffffffffffffffffffffffffffffffffff1673ffffffffffffffffffffffffffffffffffffffff168152602001838152602001828103825260168152602001807f7265736561726368416e64446576656c6f706d656e7400000000000000000000815250602001935050505060405180910390a1600660009054906101000a900473ffffffffffffffffffffffffffffffffffffffff1673ffffffffffffffffffffffffffffffffffffffff166340c10f19600e60009054906101000a900473ffffffffffffffffffffffffffffffffffffffff166017546040518363ffffffff1660e01b8152600401808373ffffffffffffffffffffffffffffffffffffffff1673ffffffffffffffffffffffffffffffffffffffff16815260200182815260200192505050602060405180830381600087803b1580156119dd57600080fd5b505af11580156119f1573d6000803e3d6000fd5b505050506040513d6020811015611a0757600080fd5b8101908080519060200190929190505050507f8470ec6072093abfec912969ee9fd5273eed1d3202eac51a1fd83c236ee9bea8600e60009054906101000a900473ffffffffffffffffffffffffffffffffffffffff1660175460405180806020018473ffffffffffffffffffffffffffffffffffffffff1673ffffffffffffffffffffffffffffffffffffffff1681526020018381526020018281038252600a8152602001807f706f776572546f6b656e00000000000000000000000000000000000000000000815250602001935050505060405180910390a1600660009054906101000a900473ffffffffffffffffffffffffffffffffffffffff1673ffffffffffffffffffffffffffffffffffffffff166340c10f19601060009054906101000a900473ffffffffffffffffffffffffffffffffffffffff166018546040518363ffffffff1660e01b8152600401808373ffffffffffffffffffffffffffffffffffffffff1673ffffffffffffffffffffffffffffffffffffffff16815260200182815260200192505050602060405180830381600087803b158015611bae57600080fd5b505af1158015611bc2573d6000803e3d6000fd5b505050506040513d6020811015611bd857600080fd5b8101908080519060200190929190505050506000601060009054906101000a900473ffffffffffffffffffffffffffffffffffffffff1690508073ffffffffffffffffffffffffffffffffffffffff1663e78c81c46018546040518263ffffffff1660e01b815260040180828152602001915050600060405180830381600087803b158015611c6657600080fd5b505af1158015611c7a573d6000803e3d6000fd5b505050507f8470ec6072093abfec912969ee9fd5273eed1d3202eac51a1fd83c236ee9bea8601060009054906101000a900473ffffffffffffffffffffffffffffffffffffffff1660185460405180806020018473ffffffffffffffffffffffffffffffffffffffff1673ffffffffffffffffffffffffffffffffffffffff1681526020018381526020018281038252600f8152602001807f7374616b696e67436f6e74726163740000000000000000000000000000000000815250602001935050505060405180910390a1600660009054906101000a900473ffffffffffffffffffffffffffffffffffffffff1673ffffffffffffffffffffffffffffffffffffffff166340c10f19600f60009054906101000a900473ffffffffffffffffffffffffffffffffffffffff166019546040518363ffffffff1660e01b8152600401808373ffffffffffffffffffffffffffffffffffffffff1673ffffffffffffffffffffffffffffffffffffffff16815260200182815260200192505050602060405180830381600087803b158015611e1357600080fd5b505af1158015611e27573d6000803e3d6000fd5b505050506040513d6020811015611e3d57600080fd5b8101908080519060200190929190505050507f8470ec6072093abfec912969ee9fd5273eed1d3202eac51a1fd83c236ee9bea8600f60009054906101000a900473ffffffffffffffffffffffffffffffffffffffff1660195460405180806020018473ffffffffffffffffffffffffffffffffffffffff1673ffffffffffffffffffffffffffffffffffffffff1681526020018381526020018281038252600c8152602001807f74696d6553776170706572730000000000000000000000000000000000000000815250602001935050505060405180910390a17f31a2c82874744c38fa6d0d7bacb6ff098de6c1ecc98899f39f5b9ea32108765b826040518082815260200191505060405180910390a16000600481905550611f6e62278d006000546131f990919063ffffffff16565b600081905550611f7c613298565b507f6ef4855b666dcc7884561072e4358b28dfe01feb1b7f4dcebc00e62d50394ac76005546040518082815260200191505060405180910390a1600b6003541415612019576000600381905550611ff26064611fe4605a60025461323890919063ffffffff16565b61327290919063ffffffff16565b60028190555061200e600c60025461327290919063ffffffff16565b600181905550612036565b61202f60016003546131f990919063ffffffff16565b6003819055505b60019250505090565b60125481565b60195481565b60045481565b6000600760009054906101000a900473ffffffffffffffffffffffffffffffffffffffff1673ffffffffffffffffffffffffffffffffffffffff163373ffffffffffffffffffffffffffffffffffffffff1614612116576040517f08c379a00000000000000000000000000000000000000000000000000000000081526004018080602001828103825260188152602001807f4f6e6c79204f776e657220697320617574686f7269736564000000000000000081525060200191505060405180910390fd5b600073ffffffffffffffffffffffffffffffffffffffff168260006009811061213b57fe5b602002013573ffffffffffffffffffffffffffffffffffffffff1673ffffffffffffffffffffffffffffffffffffffff16141580156121c85750600073ffffffffffffffffffffffffffffffffffffffff16600860009054906101000a900473ffffffffffffffffffffffffffffffffffffffff1673ffffffffffffffffffffffffffffffffffffffff16145b156122f457816000600981106121da57fe5b602002013573ffffffffffffffffffffffffffffffffffffffff16600860006101000a81548173ffffffffffffffffffffffffffffffffffffffff021916908373ffffffffffffffffffffffffffffffffffffffff1602179055507f12fb0c5abba542bf97c53eecc4ebe59d9ba7ad563247ed305f002ada0291d60f600860009054906101000a900473ffffffffffffffffffffffffffffffffffffffff1660405180806020018373ffffffffffffffffffffffffffffffffffffffff1673ffffffffffffffffffffffffffffffffffffffff168152602001828103825260198152602001807f4e657754616c656e7473416e64506172746e65727368697073000000000000008152506020019250505060405180910390a15b600073ffffffffffffffffffffffffffffffffffffffff168260016009811061231957fe5b602002013573ffffffffffffffffffffffffffffffffffffffff1673ffffffffffffffffffffffffffffffffffffffff16141580156123a65750600073ffffffffffffffffffffffffffffffffffffffff16600960009054906101000a900473ffffffffffffffffffffffffffffffffffffffff1673ffffffffffffffffffffffffffffffffffffffff16145b156124d257816001600981106123b857fe5b602002013573ffffffffffffffffffffffffffffffffffffffff16600960006101000a81548173ffffffffffffffffffffffffffffffffffffffff021916908373ffffffffffffffffffffffffffffffffffffffff1602179055507f12fb0c5abba542bf97c53eecc4ebe59d9ba7ad563247ed305f002ada0291d60f600960009054906101000a900473ffffffffffffffffffffffffffffffffffffffff1660405180806020018373ffffffffffffffffffffffffffffffffffffffff1673ffffffffffffffffffffffffffffffffffffffff168152602001828103825260138152602001807f506c6174666f726d4d61696e74656e616e6365000000000000000000000000008152506020019250505060405180910390a15b600073ffffffffffffffffffffffffffffffffffffffff16826002600981106124f757fe5b602002013573ffffffffffffffffffffffffffffffffffffffff1673ffffffffffffffffffffffffffffffffffffffff16141580156125845750600073ffffffffffffffffffffffffffffffffffffffff16600a60009054906101000a900473ffffffffffffffffffffffffffffffffffffffff1673ffffffffffffffffffffffffffffffffffffffff16145b156126b0578160026009811061259657fe5b602002013573ffffffffffffffffffffffffffffffffffffffff16600a60006101000a81548173ffffffffffffffffffffffffffffffffffffffff021916908373ffffffffffffffffffffffffffffffffffffffff1602179055507f12fb0c5abba542bf97c53eecc4ebe59d9ba7ad563247ed305f002ada0291d60f600a60009054906101000a900473ffffffffffffffffffffffffffffffffffffffff1660405180806020018373ffffffffffffffffffffffffffffffffffffffff1673ffffffffffffffffffffffffffffffffffffffff1681526020018281038252600f8152602001807f4d61726b6574696e67416e64524e5200000000000000000000000000000000008152506020019250505060405180910390a15b600073ffffffffffffffffffffffffffffffffffffffff16826003600981106126d557fe5b602002013573ffffffffffffffffffffffffffffffffffffffff1673ffffffffffffffffffffffffffffffffffffffff16141580156127625750600073ffffffffffffffffffffffffffffffffffffffff16600b60009054906101000a900473ffffffffffffffffffffffffffffffffffffffff1673ffffffffffffffffffffffffffffffffffffffff16145b1561288e578160036009811061277457fe5b602002013573ffffffffffffffffffffffffffffffffffffffff16600b60006101000a81548173ffffffffffffffffffffffffffffffffffffffff021916908373ffffffffffffffffffffffffffffffffffffffff1602179055507f12fb0c5abba542bf97c53eecc4ebe59d9ba7ad563247ed305f002ada0291d60f600b60009054906101000a900473ffffffffffffffffffffffffffffffffffffffff1660405180806020018373ffffffffffffffffffffffffffffffffffffffff1673ffffffffffffffffffffffffffffffffffffffff168152602001828103825260078152602001807f4b6d5061726473000000000000000000000000000000000000000000000000008152506020019250505060405180910390a15b600073ffffffffffffffffffffffffffffffffffffffff16826004600981106128b357fe5b602002013573ffffffffffffffffffffffffffffffffffffffff1673ffffffffffffffffffffffffffffffffffffffff16141580156129405750600073ffffffffffffffffffffffffffffffffffffffff16600c60009054906101000a900473ffffffffffffffffffffffffffffffffffffffff1673ffffffffffffffffffffffffffffffffffffffff16145b15612a6c578160046009811061295257fe5b602002013573ffffffffffffffffffffffffffffffffffffffff16600c60006101000a81548173ffffffffffffffffffffffffffffffffffffffff021916908373ffffffffffffffffffffffffffffffffffffffff1602179055507f12fb0c5abba542bf97c53eecc4ebe59d9ba7ad563247ed305f002ada0291d60f600c60009054906101000a900473ffffffffffffffffffffffffffffffffffffffff1660405180806020018373ffffffffffffffffffffffffffffffffffffffff1673ffffffffffffffffffffffffffffffffffffffff168152602001828103825260108152602001807f436f6e74696e67656e637946756e6473000000000000000000000000000000008152506020019250505060405180910390a15b600073ffffffffffffffffffffffffffffffffffffffff1682600560098110612a9157fe5b602002013573ffffffffffffffffffffffffffffffffffffffff1673ffffffffffffffffffffffffffffffffffffffff1614158015612b1e5750600073ffffffffffffffffffffffffffffffffffffffff16600d60009054906101000a900473ffffffffffffffffffffffffffffffffffffffff1673ffffffffffffffffffffffffffffffffffffffff16145b15612c4a5781600560098110612b3057fe5b602002013573ffffffffffffffffffffffffffffffffffffffff16600d60006101000a81548173ffffffffffffffffffffffffffffffffffffffff021916908373ffffffffffffffffffffffffffffffffffffffff1602179055507f12fb0c5abba542bf97c53eecc4ebe59d9ba7ad563247ed305f002ada0291d60f600d60009054906101000a900473ffffffffffffffffffffffffffffffffffffffff1660405180806020018373ffffffffffffffffffffffffffffffffffffffff1673ffffffffffffffffffffffffffffffffffffffff168152602001828103825260168152602001807f5265736561726368416e64446576656c6f706d656e74000000000000000000008152506020019250505060405180910390a15b600073ffffffffffffffffffffffffffffffffffffffff1682600660098110612c6f57fe5b602002013573ffffffffffffffffffffffffffffffffffffffff1673ffffffffffffffffffffffffffffffffffffffff1614158015612cfc5750600073ffffffffffffffffffffffffffffffffffffffff16600e60009054906101000a900473ffffffffffffffffffffffffffffffffffffffff1673ffffffffffffffffffffffffffffffffffffffff16145b15612e285781600660098110612d0e57fe5b602002013573ffffffffffffffffffffffffffffffffffffffff16600e60006101000a81548173ffffffffffffffffffffffffffffffffffffffff021916908373ffffffffffffffffffffffffffffffffffffffff1602179055507f12fb0c5abba542bf97c53eecc4ebe59d9ba7ad563247ed305f002ada0291d60f600e60009054906101000a900473ffffffffffffffffffffffffffffffffffffffff1660405180806020018373ffffffffffffffffffffffffffffffffffffffff1673ffffffffffffffffffffffffffffffffffffffff1681526020018281038252600a8152602001807f506f776572546f6b656e000000000000000000000000000000000000000000008152506020019250505060405180910390a15b600073ffffffffffffffffffffffffffffffffffffffff1682600760098110612e4d57fe5b602002013573ffffffffffffffffffffffffffffffffffffffff1673ffffffffffffffffffffffffffffffffffffffff1614158015612eda5750600073ffffffffffffffffffffffffffffffffffffffff16600f60009054906101000a900473ffffffffffffffffffffffffffffffffffffffff1673ffffffffffffffffffffffffffffffffffffffff16145b156130065781600760098110612eec57fe5b602002013573ffffffffffffffffffffffffffffffffffffffff16600f60006101000a81548173ffffffffffffffffffffffffffffffffffffffff021916908373ffffffffffffffffffffffffffffffffffffffff1602179055507f12fb0c5abba542bf97c53eecc4ebe59d9ba7ad563247ed305f002ada0291d60f600f60009054906101000a900473ffffffffffffffffffffffffffffffffffffffff1660405180806020018373ffffffffffffffffffffffffffffffffffffffff1673ffffffffffffffffffffffffffffffffffffffff1681526020018281038252600b8152602001807f54696d65537761707065720000000000000000000000000000000000000000008152506020019250505060405180910390a15b600073ffffffffffffffffffffffffffffffffffffffff168260086009811061302b57fe5b602002013573ffffffffffffffffffffffffffffffffffffffff1673ffffffffffffffffffffffffffffffffffffffff16141580156130b85750600073ffffffffffffffffffffffffffffffffffffffff16601060009054906101000a900473ffffffffffffffffffffffffffffffffffffffff1673ffffffffffffffffffffffffffffffffffffffff16145b156131e457816008600981106130ca57fe5b602002013573ffffffffffffffffffffffffffffffffffffffff16601060006101000a81548173ffffffffffffffffffffffffffffffffffffffff021916908373ffffffffffffffffffffffffffffffffffffffff1602179055507f12fb0c5abba542bf97c53eecc4ebe59d9ba7ad563247ed305f002ada0291d60f601060009054906101000a900473ffffffffffffffffffffffffffffffffffffffff1660405180806020018373ffffffffffffffffffffffffffffffffffffffff1673ffffffffffffffffffffffffffffffffffffffff168152602001828103825260088152602001807f54696d65416c6c790000000000000000000000000000000000000000000000008152506020019250505060405180910390a15b60019050919050565b60135481565b60115481565b60008082840190508381101561320e57600080fd5b8091505092915050565b60008282111561322757600080fd5b600082840390508091505092915050565b60008083141561324b576000905061326c565b600082840290508284828161325c57fe5b041461326757600080fd5b809150505b92915050565b600080821161328057600080fd5b600082848161328b57fe5b0490508091505092915050565b60008060055414156132ad57600190506134ce565b6000613378606461336a6002600660009054906101000a900473ffffffffffffffffffffffffffffffffffffffff1673ffffffffffffffffffffffffffffffffffffffff166318160ddd6040518163ffffffff1660e01b815260040160206040518083038186803b15801561332157600080fd5b505afa158015613335573d6000803e3d6000fd5b505050506040513d602081101561334b57600080fd5b810190808051906020019092919050505061323890919063ffffffff16565b61327290919063ffffffff16565b9050600554811061341f57600660009054906101000a900473ffffffffffffffffffffffffffffffffffffffff1673ffffffffffffffffffffffffffffffffffffffff166342966c686005546040518263ffffffff1660e01b815260040180828152602001915050600060405180830381600087803b1580156133fa57600080fd5b505af115801561340e573d6000803e3d6000fd5b5050505060006005819055506134c8565b6134348160055461321890919063ffffffff16565b600581905550600660009054906101000a900473ffffffffffffffffffffffffffffffffffffffff1673ffffffffffffffffffffffffffffffffffffffff166342966c68826040518263ffffffff1660e01b815260040180828152602001915050600060405180830381600087803b1580156134af57600080fd5b505af11580156134c3573d6000803e3d6000fd5b505050505b60019150505b9056fe4f6e6c792054696d65416c6c7920616e642054696d657377617070657220697320617574686f72697365644e52542072656c656173652068617070656e73206f6e6365206576657279206d6f6e7468a265627a7a723058209b4190896b8b780b1e557af83ee71367ca0d1651b995589885f307c92449002d64736f6c634300050a0032","opcodes":"PUSH1 0x80 PUSH1 0x40 MSTORE CALLVALUE DUP1 ISZERO PUSH3 0x11 JUMPI PUSH1 0x0 DUP1 REVERT JUMPDEST POP PUSH1 0x40 MLOAD PUSH3 0x36A3 CODESIZE SUB DUP1 PUSH3 0x36A3 DUP4 CODECOPY DUP2 DUP2 ADD PUSH1 0x40 MSTORE PUSH1 0x20 DUP2 LT ISZERO PUSH3 0x37 JUMPI PUSH1 0x0 DUP1 REVERT JUMPDEST DUP2 ADD SWAP1 DUP1 DUP1 MLOAD SWAP1 PUSH1 0x20 ADD SWAP1 SWAP3 SWAP2 SWAP1 POP POP POP DUP1 PUSH1 0x6 PUSH1 0x0 PUSH2 0x100 EXP DUP2 SLOAD DUP2 PUSH20 0xFFFFFFFFFFFFFFFFFFFFFFFFFFFFFFFFFFFFFFFF MUL NOT AND SWAP1 DUP4 PUSH20 0xFFFFFFFFFFFFFFFFFFFFFFFFFFFFFFFFFFFFFFFF AND MUL OR SWAP1 SSTORE POP TIMESTAMP PUSH1 0x0 DUP2 SWAP1 SSTORE POP PUSH12 0x2A575FEF6999C3A13000000 PUSH1 0x2 DUP2 SWAP1 SSTORE POP PUSH3 0xC0 PUSH1 0xC PUSH1 0x2 SLOAD PUSH3 0x116 PUSH1 0x20 SHL PUSH3 0x3272 OR SWAP1 SWAP2 SWAP1 PUSH1 0x20 SHR JUMP JUMPDEST PUSH1 0x1 DUP2 SWAP1 SSTORE POP PUSH1 0x0 PUSH1 0x3 DUP2 SWAP1 SSTORE POP CALLER PUSH1 0x7 PUSH1 0x0 PUSH2 0x100 EXP DUP2 SLOAD DUP2 PUSH20 0xFFFFFFFFFFFFFFFFFFFFFFFFFFFFFFFFFFFFFFFF MUL NOT AND SWAP1 DUP4 PUSH20 0xFFFFFFFFFFFFFFFFFFFFFFFFFFFFFFFFFFFFFFFF AND MUL OR SWAP1 SSTORE POP POP PUSH3 0x13E JUMP JUMPDEST PUSH1 0x0 DUP1 DUP3 GT PUSH3 0x125 JUMPI PUSH1 0x0 DUP1 REVERT JUMPDEST PUSH1 0x0 DUP3 DUP5 DUP2 PUSH3 0x131 JUMPI INVALID JUMPDEST DIV SWAP1 POP DUP1 SWAP2 POP POP SWAP3 SWAP2 POP POP JUMP JUMPDEST PUSH2 0x3555 DUP1 PUSH3 0x14E PUSH1 0x0 CODECOPY PUSH1 0x0 RETURN INVALID PUSH1 0x80 PUSH1 0x40 MSTORE CALLVALUE DUP1 ISZERO PUSH2 0x10 JUMPI PUSH1 0x0 DUP1 REVERT JUMPDEST POP PUSH1 0x4 CALLDATASIZE LT PUSH2 0x1C4 JUMPI PUSH1 0x0 CALLDATALOAD PUSH1 0xE0 SHR DUP1 PUSH4 0x682667A9 GT PUSH2 0xF9 JUMPI DUP1 PUSH4 0xB018ABBD GT PUSH2 0x97 JUMPI DUP1 PUSH4 0xC3348A8B GT PUSH2 0x71 JUMPI DUP1 PUSH4 0xC3348A8B EQ PUSH2 0x679 JUMPI DUP1 PUSH4 0xCB358EFA EQ PUSH2 0x697 JUMPI DUP1 PUSH4 0xD37EB950 EQ PUSH2 0x6DF JUMPI DUP1 PUSH4 0xE71A3BFD EQ PUSH2 0x6FD JUMPI PUSH2 0x1C4 JUMP JUMPDEST DUP1 PUSH4 0xB018ABBD EQ PUSH2 0x61B JUMPI DUP1 PUSH4 0xBD27D361 EQ PUSH2 0x63D JUMPI DUP1 PUSH4 0xBFB3D6C8 EQ PUSH2 0x65B JUMPI PUSH2 0x1C4 JUMP JUMPDEST DUP1 PUSH4 0x7B8C0B79 GT PUSH2 0xD3 JUMPI DUP1 PUSH4 0x7B8C0B79 EQ PUSH2 0x54B JUMPI DUP1 PUSH4 0x7D53257A EQ PUSH2 0x569 JUMPI DUP1 PUSH4 0x9662AC58 EQ PUSH2 0x587 JUMPI DUP1 PUSH4 0x9CD417DE EQ PUSH2 0x5D1 JUMPI PUSH2 0x1C4 JUMP JUMPDEST DUP1 PUSH4 0x682667A9 EQ PUSH2 0x4C5 JUMPI DUP1 PUSH4 0x6DB42CA5 EQ PUSH2 0x50F JUMPI DUP1 PUSH4 0x797D123C EQ PUSH2 0x52D JUMPI PUSH2 0x1C4 JUMP JUMPDEST DUP1 PUSH4 0x41AAA9B6 GT PUSH2 0x166 JUMPI DUP1 PUSH4 0x5C12278D GT PUSH2 0x140 JUMPI DUP1 PUSH4 0x5C12278D EQ PUSH2 0x3F5 JUMPI DUP1 PUSH4 0x5F7CE89F EQ PUSH2 0x43F JUMPI DUP1 PUSH4 0x6037D2A3 EQ PUSH2 0x45D JUMPI DUP1 PUSH4 0x65C00470 EQ PUSH2 0x47B JUMPI PUSH2 0x1C4 JUMP JUMPDEST DUP1 PUSH4 0x41AAA9B6 EQ PUSH2 0x347 JUMPI DUP1 PUSH4 0x4A4581AA EQ PUSH2 0x38D JUMPI DUP1 PUSH4 0x51BD70B1 EQ PUSH2 0x3AB JUMPI PUSH2 0x1C4 JUMP JUMPDEST DUP1 PUSH4 0x2CFCEB07 GT PUSH2 0x1A2 JUMPI DUP1 PUSH4 0x2CFCEB07 EQ PUSH2 0x27B JUMPI DUP1 PUSH4 0x382E2AAB EQ PUSH2 0x299 JUMPI DUP1 PUSH4 0x3A18A9FD EQ PUSH2 0x2DF JUMPI DUP1 PUSH4 0x3E04F4F9 EQ PUSH2 0x329 JUMPI PUSH2 0x1C4 JUMP JUMPDEST DUP1 PUSH4 0xB3E29B8 EQ PUSH2 0x1C9 JUMPI DUP1 PUSH4 0xD4E57A4 EQ PUSH2 0x213 JUMPI DUP1 PUSH4 0x26B3BF2F EQ PUSH2 0x231 JUMPI JUMPDEST PUSH1 0x0 DUP1 REVERT JUMPDEST PUSH2 0x1D1 PUSH2 0x71B JUMP JUMPDEST PUSH1 0x40 MLOAD DUP1 DUP3 PUSH20 0xFFFFFFFFFFFFFFFFFFFFFFFFFFFFFFFFFFFFFFFF AND PUSH20 0xFFFFFFFFFFFFFFFFFFFFFFFFFFFFFFFFFFFFFFFF AND DUP2 MSTORE PUSH1 0x20 ADD SWAP2 POP POP PUSH1 0x40 MLOAD DUP1 SWAP2 SUB SWAP1 RETURN JUMPDEST PUSH2 0x21B PUSH2 0x741 JUMP JUMPDEST PUSH1 0x40 MLOAD DUP1 DUP3 DUP2 MSTORE PUSH1 0x20 ADD SWAP2 POP POP PUSH1 0x40 MLOAD DUP1 SWAP2 SUB SWAP1 RETURN JUMPDEST PUSH2 0x239 PUSH2 0x747 JUMP JUMPDEST PUSH1 0x40 MLOAD DUP1 DUP3 PUSH20 0xFFFFFFFFFFFFFFFFFFFFFFFFFFFFFFFFFFFFFFFF AND PUSH20 0xFFFFFFFFFFFFFFFFFFFFFFFFFFFFFFFFFFFFFFFF AND DUP2 MSTORE PUSH1 0x20 ADD SWAP2 POP POP PUSH1 0x40 MLOAD DUP1 SWAP2 SUB SWAP1 RETURN JUMPDEST PUSH2 0x283 PUSH2 0x76D JUMP JUMPDEST PUSH1 0x40 MLOAD DUP1 DUP3 DUP2 MSTORE PUSH1 0x20 ADD SWAP2 POP POP PUSH1 0x40 MLOAD DUP1 SWAP2 SUB SWAP1 RETURN JUMPDEST PUSH2 0x2C5 PUSH1 0x4 DUP1 CALLDATASIZE SUB PUSH1 0x20 DUP2 LT ISZERO PUSH2 0x2AF JUMPI PUSH1 0x0 DUP1 REVERT JUMPDEST DUP2 ADD SWAP1 DUP1 DUP1 CALLDATALOAD SWAP1 PUSH1 0x20 ADD SWAP1 SWAP3 SWAP2 SWAP1 POP POP POP PUSH2 0x773 JUMP JUMPDEST PUSH1 0x40 MLOAD DUP1 DUP3 ISZERO ISZERO ISZERO ISZERO DUP2 MSTORE PUSH1 0x20 ADD SWAP2 POP POP PUSH1 0x40 MLOAD DUP1 SWAP2 SUB SWAP1 RETURN JUMPDEST PUSH2 0x2E7 PUSH2 0x8D0 JUMP JUMPDEST PUSH1 0x40 MLOAD DUP1 DUP3 PUSH20 0xFFFFFFFFFFFFFFFFFFFFFFFFFFFFFFFFFFFFFFFF AND PUSH20 0xFFFFFFFFFFFFFFFFFFFFFFFFFFFFFFFFFFFFFFFF AND DUP2 MSTORE PUSH1 0x20 ADD SWAP2 POP POP PUSH1 0x40 MLOAD DUP1 SWAP2 SUB SWAP1 RETURN JUMPDEST PUSH2 0x331 PUSH2 0x8F6 JUMP JUMPDEST PUSH1 0x40 MLOAD DUP1 DUP3 DUP2 MSTORE PUSH1 0x20 ADD SWAP2 POP POP PUSH1 0x40 MLOAD DUP1 SWAP2 SUB SWAP1 RETURN JUMPDEST PUSH2 0x373 PUSH1 0x4 DUP1 CALLDATASIZE SUB PUSH1 0x20 DUP2 LT ISZERO PUSH2 0x35D JUMPI PUSH1 0x0 DUP1 REVERT JUMPDEST DUP2 ADD SWAP1 DUP1 DUP1 CALLDATALOAD SWAP1 PUSH1 0x20 ADD SWAP1 SWAP3 SWAP2 SWAP1 POP POP POP PUSH2 0x8FC JUMP JUMPDEST PUSH1 0x40 MLOAD DUP1 DUP3 ISZERO ISZERO ISZERO ISZERO DUP2 MSTORE PUSH1 0x20 ADD SWAP2 POP POP PUSH1 0x40 MLOAD DUP1 SWAP2 SUB SWAP1 RETURN JUMPDEST PUSH2 0x395 PUSH2 0xA59 JUMP JUMPDEST PUSH1 0x40 MLOAD DUP1 DUP3 DUP2 MSTORE PUSH1 0x20 ADD SWAP2 POP POP PUSH1 0x40 MLOAD DUP1 SWAP2 SUB SWAP1 RETURN JUMPDEST PUSH2 0x3B3 PUSH2 0xA5F JUMP JUMPDEST PUSH1 0x40 MLOAD DUP1 DUP3 PUSH20 0xFFFFFFFFFFFFFFFFFFFFFFFFFFFFFFFFFFFFFFFF AND PUSH20 0xFFFFFFFFFFFFFFFFFFFFFFFFFFFFFFFFFFFFFFFF AND DUP2 MSTORE PUSH1 0x20 ADD SWAP2 POP POP PUSH1 0x40 MLOAD DUP1 SWAP2 SUB SWAP1 RETURN JUMPDEST PUSH2 0x3FD PUSH2 0xA85 JUMP JUMPDEST PUSH1 0x40 MLOAD DUP1 DUP3 PUSH20 0xFFFFFFFFFFFFFFFFFFFFFFFFFFFFFFFFFFFFFFFF AND PUSH20 0xFFFFFFFFFFFFFFFFFFFFFFFFFFFFFFFFFFFFFFFF AND DUP2 MSTORE PUSH1 0x20 ADD SWAP2 POP POP PUSH1 0x40 MLOAD DUP1 SWAP2 SUB SWAP1 RETURN JUMPDEST PUSH2 0x447 PUSH2 0xAAB JUMP JUMPDEST PUSH1 0x40 MLOAD DUP1 DUP3 DUP2 MSTORE PUSH1 0x20 ADD SWAP2 POP POP PUSH1 0x40 MLOAD DUP1 SWAP2 SUB SWAP1 RETURN JUMPDEST PUSH2 0x465 PUSH2 0xAB1 JUMP JUMPDEST PUSH1 0x40 MLOAD DUP1 DUP3 DUP2 MSTORE PUSH1 0x20 ADD SWAP2 POP POP PUSH1 0x40 MLOAD DUP1 SWAP2 SUB SWAP1 RETURN JUMPDEST PUSH2 0x483 PUSH2 0xAB7 JUMP JUMPDEST PUSH1 0x40 MLOAD DUP1 DUP3 PUSH20 0xFFFFFFFFFFFFFFFFFFFFFFFFFFFFFFFFFFFFFFFF AND PUSH20 0xFFFFFFFFFFFFFFFFFFFFFFFFFFFFFFFFFFFFFFFF AND DUP2 MSTORE PUSH1 0x20 ADD SWAP2 POP POP PUSH1 0x40 MLOAD DUP1 SWAP2 SUB SWAP1 RETURN JUMPDEST PUSH2 0x4CD PUSH2 0xADD JUMP JUMPDEST PUSH1 0x40 MLOAD DUP1 DUP3 PUSH20 0xFFFFFFFFFFFFFFFFFFFFFFFFFFFFFFFFFFFFFFFF AND PUSH20 0xFFFFFFFFFFFFFFFFFFFFFFFFFFFFFFFFFFFFFFFF AND DUP2 MSTORE PUSH1 0x20 ADD SWAP2 POP POP PUSH1 0x40 MLOAD DUP1 SWAP2 SUB SWAP1 RETURN JUMPDEST PUSH2 0x517 PUSH2 0xB03 JUMP JUMPDEST PUSH1 0x40 MLOAD DUP1 DUP3 DUP2 MSTORE PUSH1 0x20 ADD SWAP2 POP POP PUSH1 0x40 MLOAD DUP1 SWAP2 SUB SWAP1 RETURN JUMPDEST PUSH2 0x535 PUSH2 0xB09 JUMP JUMPDEST PUSH1 0x40 MLOAD DUP1 DUP3 DUP2 MSTORE PUSH1 0x20 ADD SWAP2 POP POP PUSH1 0x40 MLOAD DUP1 SWAP2 SUB SWAP1 RETURN JUMPDEST PUSH2 0x553 PUSH2 0xB0F JUMP JUMPDEST PUSH1 0x40 MLOAD DUP1 DUP3 DUP2 MSTORE PUSH1 0x20 ADD SWAP2 POP POP PUSH1 0x40 MLOAD DUP1 SWAP2 SUB SWAP1 RETURN JUMPDEST PUSH2 0x571 PUSH2 0xB15 JUMP JUMPDEST PUSH1 0x40 MLOAD DUP1 DUP3 DUP2 MSTORE PUSH1 0x20 ADD SWAP2 POP POP PUSH1 0x40 MLOAD DUP1 SWAP2 SUB SWAP1 RETURN JUMPDEST PUSH2 0x58F PUSH2 0xB1B JUMP JUMPDEST PUSH1 0x40 MLOAD DUP1 DUP3 PUSH20 0xFFFFFFFFFFFFFFFFFFFFFFFFFFFFFFFFFFFFFFFF AND PUSH20 0xFFFFFFFFFFFFFFFFFFFFFFFFFFFFFFFFFFFFFFFF AND DUP2 MSTORE PUSH1 0x20 ADD SWAP2 POP POP PUSH1 0x40 MLOAD DUP1 SWAP2 SUB SWAP1 RETURN JUMPDEST PUSH2 0x5D9 PUSH2 0xB41 JUMP JUMPDEST PUSH1 0x40 MLOAD DUP1 DUP3 PUSH20 0xFFFFFFFFFFFFFFFFFFFFFFFFFFFFFFFFFFFFFFFF AND PUSH20 0xFFFFFFFFFFFFFFFFFFFFFFFFFFFFFFFFFFFFFFFF AND DUP2 MSTORE PUSH1 0x20 ADD SWAP2 POP POP PUSH1 0x40 MLOAD DUP1 SWAP2 SUB SWAP1 RETURN JUMPDEST PUSH2 0x623 PUSH2 0xB67 JUMP JUMPDEST PUSH1 0x40 MLOAD DUP1 DUP3 ISZERO ISZERO ISZERO ISZERO DUP2 MSTORE PUSH1 0x20 ADD SWAP2 POP POP PUSH1 0x40 MLOAD DUP1 SWAP2 SUB SWAP1 RETURN JUMPDEST PUSH2 0x645 PUSH2 0x203F JUMP JUMPDEST PUSH1 0x40 MLOAD DUP1 DUP3 DUP2 MSTORE PUSH1 0x20 ADD SWAP2 POP POP PUSH1 0x40 MLOAD DUP1 SWAP2 SUB SWAP1 RETURN JUMPDEST PUSH2 0x663 PUSH2 0x2045 JUMP JUMPDEST PUSH1 0x40 MLOAD DUP1 DUP3 DUP2 MSTORE PUSH1 0x20 ADD SWAP2 POP POP PUSH1 0x40 MLOAD DUP1 SWAP2 SUB SWAP1 RETURN JUMPDEST PUSH2 0x681 PUSH2 0x204B JUMP JUMPDEST PUSH1 0x40 MLOAD DUP1 DUP3 DUP2 MSTORE PUSH1 0x20 ADD SWAP2 POP POP PUSH1 0x40 MLOAD DUP1 SWAP2 SUB SWAP1 RETURN JUMPDEST PUSH2 0x6C5 PUSH1 0x4 DUP1 CALLDATASIZE SUB PUSH2 0x120 DUP2 LT ISZERO PUSH2 0x6AE JUMPI PUSH1 0x0 DUP1 REVERT JUMPDEST DUP2 ADD SWAP1 DUP1 DUP1 PUSH2 0x120 ADD SWAP1 SWAP2 SWAP3 SWAP2 SWAP3 SWAP1 POP POP POP PUSH2 0x2051 JUMP JUMPDEST PUSH1 0x40 MLOAD DUP1 DUP3 ISZERO ISZERO ISZERO ISZERO DUP2 MSTORE PUSH1 0x20 ADD SWAP2 POP POP PUSH1 0x40 MLOAD DUP1 SWAP2 SUB SWAP1 RETURN JUMPDEST PUSH2 0x6E7 PUSH2 0x31ED JUMP JUMPDEST PUSH1 0x40 MLOAD DUP1 DUP3 DUP2 MSTORE PUSH1 0x20 ADD SWAP2 POP POP PUSH1 0x40 MLOAD DUP1 SWAP2 SUB SWAP1 RETURN JUMPDEST PUSH2 0x705 PUSH2 0x31F3 JUMP JUMPDEST PUSH1 0x40 MLOAD DUP1 DUP3 DUP2 MSTORE PUSH1 0x20 ADD SWAP2 POP POP PUSH1 0x40 MLOAD DUP1 SWAP2 SUB SWAP1 RETURN JUMPDEST PUSH1 0xC PUSH1 0x0 SWAP1 SLOAD SWAP1 PUSH2 0x100 EXP SWAP1 DIV PUSH20 0xFFFFFFFFFFFFFFFFFFFFFFFFFFFFFFFFFFFFFFFF AND DUP2 JUMP JUMPDEST PUSH1 0x3 SLOAD DUP2 JUMP JUMPDEST PUSH1 0x8 PUSH1 0x0 SWAP1 SLOAD SWAP1 PUSH2 0x100 EXP SWAP1 DIV PUSH20 0xFFFFFFFFFFFFFFFFFFFFFFFFFFFFFFFFFFFFFFFF AND DUP2 JUMP JUMPDEST PUSH1 0x14 SLOAD DUP2 JUMP JUMPDEST PUSH1 0x0 PUSH1 0x10 PUSH1 0x0 SWAP1 SLOAD SWAP1 PUSH2 0x100 EXP SWAP1 DIV PUSH20 0xFFFFFFFFFFFFFFFFFFFFFFFFFFFFFFFFFFFFFFFF AND PUSH20 0xFFFFFFFFFFFFFFFFFFFFFFFFFFFFFFFFFFFFFFFF AND CALLER PUSH20 0xFFFFFFFFFFFFFFFFFFFFFFFFFFFFFFFFFFFFFFFF AND EQ DUP1 PUSH2 0x81E JUMPI POP PUSH1 0xF PUSH1 0x0 SWAP1 SLOAD SWAP1 PUSH2 0x100 EXP SWAP1 DIV PUSH20 0xFFFFFFFFFFFFFFFFFFFFFFFFFFFFFFFFFFFFFFFF AND PUSH20 0xFFFFFFFFFFFFFFFFFFFFFFFFFFFFFFFFFFFFFFFF AND CALLER PUSH20 0xFFFFFFFFFFFFFFFFFFFFFFFFFFFFFFFFFFFFFFFF AND EQ JUMPDEST PUSH2 0x873 JUMPI PUSH1 0x40 MLOAD PUSH32 0x8C379A000000000000000000000000000000000000000000000000000000000 DUP2 MSTORE PUSH1 0x4 ADD DUP1 DUP1 PUSH1 0x20 ADD DUP3 DUP2 SUB DUP3 MSTORE PUSH1 0x2B DUP2 MSTORE PUSH1 0x20 ADD DUP1 PUSH2 0x34D2 PUSH1 0x2B SWAP2 CODECOPY PUSH1 0x40 ADD SWAP2 POP POP PUSH1 0x40 MLOAD DUP1 SWAP2 SUB SWAP1 REVERT JUMPDEST PUSH2 0x888 DUP3 PUSH1 0x4 SLOAD PUSH2 0x31F9 SWAP1 SWAP2 SWAP1 PUSH4 0xFFFFFFFF AND JUMP JUMPDEST PUSH1 0x4 DUP2 SWAP1 SSTORE POP PUSH32 0xC9C58CA254A2BDE8CE607D1F5211F98C28C52EFCEA5216A867EA933B95EFC31F PUSH1 0x4 SLOAD PUSH1 0x40 MLOAD DUP1 DUP3 DUP2 MSTORE PUSH1 0x20 ADD SWAP2 POP POP PUSH1 0x40 MLOAD DUP1 SWAP2 SUB SWAP1 LOG1 PUSH1 0x1 SWAP1 POP SWAP2 SWAP1 POP JUMP JUMPDEST PUSH1 0x9 PUSH1 0x0 SWAP1 SLOAD SWAP1 PUSH2 0x100 EXP SWAP1 DIV PUSH20 0xFFFFFFFFFFFFFFFFFFFFFFFFFFFFFFFFFFFFFFFF AND DUP2 JUMP JUMPDEST PUSH1 0x18 SLOAD DUP2 JUMP JUMPDEST PUSH1 0x0 PUSH1 0x10 PUSH1 0x0 SWAP1 SLOAD SWAP1 PUSH2 0x100 EXP SWAP1 DIV PUSH20 0xFFFFFFFFFFFFFFFFFFFFFFFFFFFFFFFFFFFFFFFF AND PUSH20 0xFFFFFFFFFFFFFFFFFFFFFFFFFFFFFFFFFFFFFFFF AND CALLER PUSH20 0xFFFFFFFFFFFFFFFFFFFFFFFFFFFFFFFFFFFFFFFF AND EQ DUP1 PUSH2 0x9A7 JUMPI POP PUSH1 0xF PUSH1 0x0 SWAP1 SLOAD SWAP1 PUSH2 0x100 EXP SWAP1 DIV PUSH20 0xFFFFFFFFFFFFFFFFFFFFFFFFFFFFFFFFFFFFFFFF AND PUSH20 0xFFFFFFFFFFFFFFFFFFFFFFFFFFFFFFFFFFFFFFFF AND CALLER PUSH20 0xFFFFFFFFFFFFFFFFFFFFFFFFFFFFFFFFFFFFFFFF AND EQ JUMPDEST PUSH2 0x9FC JUMPI PUSH1 0x40 MLOAD PUSH32 0x8C379A000000000000000000000000000000000000000000000000000000000 DUP2 MSTORE PUSH1 0x4 ADD DUP1 DUP1 PUSH1 0x20 ADD DUP3 DUP2 SUB DUP3 MSTORE PUSH1 0x2B DUP2 MSTORE PUSH1 0x20 ADD DUP1 PUSH2 0x34D2 PUSH1 0x2B SWAP2 CODECOPY PUSH1 0x40 ADD SWAP2 POP POP PUSH1 0x40 MLOAD DUP1 SWAP2 SUB SWAP1 REVERT JUMPDEST PUSH2 0xA11 DUP3 PUSH1 0x5 SLOAD PUSH2 0x31F9 SWAP1 SWAP2 SWAP1 PUSH4 0xFFFFFFFF AND JUMP JUMPDEST PUSH1 0x5 DUP2 SWAP1 SSTORE POP PUSH32 0x8F740EB8352E99B7242CE9C7CEC021EE8B28B4ACEF603FF1260FE8B722822FEC PUSH1 0x5 SLOAD PUSH1 0x40 MLOAD DUP1 DUP3 DUP2 MSTORE PUSH1 0x20 ADD SWAP2 POP POP PUSH1 0x40 MLOAD DUP1 SWAP2 SUB SWAP1 LOG1 PUSH1 0x1 SWAP1 POP SWAP2 SWAP1 POP JUMP JUMPDEST PUSH1 0x5 SLOAD DUP2 JUMP JUMPDEST PUSH1 0xA PUSH1 0x0 SWAP1 SLOAD SWAP1 PUSH2 0x100 EXP SWAP1 DIV PUSH20 0xFFFFFFFFFFFFFFFFFFFFFFFFFFFFFFFFFFFFFFFF AND DUP2 JUMP JUMPDEST PUSH1 0xD PUSH1 0x0 SWAP1 SLOAD SWAP1 PUSH2 0x100 EXP SWAP1 DIV PUSH20 0xFFFFFFFFFFFFFFFFFFFFFFFFFFFFFFFFFFFFFFFF AND DUP2 JUMP JUMPDEST PUSH1 0x15 SLOAD DUP2 JUMP JUMPDEST PUSH1 0x1 SLOAD DUP2 JUMP JUMPDEST PUSH1 0xB PUSH1 0x0 SWAP1 SLOAD SWAP1 PUSH2 0x100 EXP SWAP1 DIV PUSH20 0xFFFFFFFFFFFFFFFFFFFFFFFFFFFFFFFFFFFFFFFF AND DUP2 JUMP JUMPDEST PUSH1 0x10 PUSH1 0x0 SWAP1 SLOAD SWAP1 PUSH2 0x100 EXP SWAP1 DIV PUSH20 0xFFFFFFFFFFFFFFFFFFFFFFFFFFFFFFFFFFFFFFFF AND DUP2 JUMP JUMPDEST PUSH1 0x17 SLOAD DUP2 JUMP JUMPDEST PUSH1 0x0 SLOAD DUP2 JUMP JUMPDEST PUSH1 0x2 SLOAD DUP2 JUMP JUMPDEST PUSH1 0x16 SLOAD DUP2 JUMP JUMPDEST PUSH1 0xE PUSH1 0x0 SWAP1 SLOAD SWAP1 PUSH2 0x100 EXP SWAP1 DIV PUSH20 0xFFFFFFFFFFFFFFFFFFFFFFFFFFFFFFFFFFFFFFFF AND DUP2 JUMP JUMPDEST PUSH1 0xF PUSH1 0x0 SWAP1 SLOAD SWAP1 PUSH2 0x100 EXP SWAP1 DIV PUSH20 0xFFFFFFFFFFFFFFFFFFFFFFFFFFFFFFFFFFFFFFFF AND DUP2 JUMP JUMPDEST PUSH1 0x0 PUSH3 0x278D00 PUSH2 0xC24 PUSH1 0x0 SLOAD PUSH1 0x6 PUSH1 0x0 SWAP1 SLOAD SWAP1 PUSH2 0x100 EXP SWAP1 DIV PUSH20 0xFFFFFFFFFFFFFFFFFFFFFFFFFFFFFFFFFFFFFFFF AND PUSH20 0xFFFFFFFFFFFFFFFFFFFFFFFFFFFFFFFFFFFFFFFF AND PUSH4 0xB81F90F3 PUSH1 0x40 MLOAD DUP2 PUSH4 0xFFFFFFFF AND PUSH1 0xE0 SHL DUP2 MSTORE PUSH1 0x4 ADD PUSH1 0x20 PUSH1 0x40 MLOAD DUP1 DUP4 SUB DUP2 DUP7 DUP1 EXTCODESIZE ISZERO DUP1 ISZERO PUSH2 0xBDB JUMPI PUSH1 0x0 DUP1 REVERT JUMPDEST POP GAS STATICCALL ISZERO DUP1 ISZERO PUSH2 0xBEF JUMPI RETURNDATASIZE PUSH1 0x0 DUP1 RETURNDATACOPY RETURNDATASIZE PUSH1 0x0 REVERT JUMPDEST POP POP POP POP PUSH1 0x40 MLOAD RETURNDATASIZE PUSH1 0x20 DUP2 LT ISZERO PUSH2 0xC05 JUMPI PUSH1 0x0 DUP1 REVERT JUMPDEST DUP2 ADD SWAP1 DUP1 DUP1 MLOAD SWAP1 PUSH1 0x20 ADD SWAP1 SWAP3 SWAP2 SWAP1 POP POP POP PUSH2 0x3218 SWAP1 SWAP2 SWAP1 PUSH4 0xFFFFFFFF AND JUMP JUMPDEST GT PUSH2 0xC7A JUMPI PUSH1 0x40 MLOAD PUSH32 0x8C379A000000000000000000000000000000000000000000000000000000000 DUP2 MSTORE PUSH1 0x4 ADD DUP1 DUP1 PUSH1 0x20 ADD DUP3 DUP2 SUB DUP3 MSTORE PUSH1 0x24 DUP2 MSTORE PUSH1 0x20 ADD DUP1 PUSH2 0x34FD PUSH1 0x24 SWAP2 CODECOPY PUSH1 0x40 ADD SWAP2 POP POP PUSH1 0x40 MLOAD DUP1 SWAP2 SUB SWAP1 REVERT JUMPDEST PUSH1 0x0 PUSH2 0xC93 PUSH1 0x4 SLOAD PUSH1 0x1 SLOAD PUSH2 0x31F9 SWAP1 SWAP2 SWAP1 PUSH4 0xFFFFFFFF AND JUMP JUMPDEST SWAP1 POP PUSH2 0xCBC PUSH1 0x64 PUSH2 0xCAE PUSH1 0x5 DUP5 PUSH2 0x3238 SWAP1 SWAP2 SWAP1 PUSH4 0xFFFFFFFF AND JUMP JUMPDEST PUSH2 0x3272 SWAP1 SWAP2 SWAP1 PUSH4 0xFFFFFFFF AND JUMP JUMPDEST PUSH1 0x11 DUP2 SWAP1 SSTORE POP PUSH2 0xCE9 PUSH1 0x64 PUSH2 0xCDB PUSH1 0xA DUP5 PUSH2 0x3238 SWAP1 SWAP2 SWAP1 PUSH4 0xFFFFFFFF AND JUMP JUMPDEST PUSH2 0x3272 SWAP1 SWAP2 SWAP1 PUSH4 0xFFFFFFFF AND JUMP JUMPDEST PUSH1 0x12 DUP2 SWAP1 SSTORE POP PUSH2 0xD16 PUSH1 0x64 PUSH2 0xD08 PUSH1 0xA DUP5 PUSH2 0x3238 SWAP1 SWAP2 SWAP1 PUSH4 0xFFFFFFFF AND JUMP JUMPDEST PUSH2 0x3272 SWAP1 SWAP2 SWAP1 PUSH4 0xFFFFFFFF AND JUMP JUMPDEST PUSH1 0x13 DUP2 SWAP1 SSTORE POP PUSH2 0xD43 PUSH1 0x64 PUSH2 0xD35 PUSH1 0xA DUP5 PUSH2 0x3238 SWAP1 SWAP2 SWAP1 PUSH4 0xFFFFFFFF AND JUMP JUMPDEST PUSH2 0x3272 SWAP1 SWAP2 SWAP1 PUSH4 0xFFFFFFFF AND JUMP JUMPDEST PUSH1 0x14 DUP2 SWAP1 SSTORE POP PUSH2 0xD70 PUSH1 0x64 PUSH2 0xD62 PUSH1 0xA DUP5 PUSH2 0x3238 SWAP1 SWAP2 SWAP1 PUSH4 0xFFFFFFFF AND JUMP JUMPDEST PUSH2 0x3272 SWAP1 SWAP2 SWAP1 PUSH4 0xFFFFFFFF AND JUMP JUMPDEST PUSH1 0x15 DUP2 SWAP1 SSTORE POP PUSH2 0xD9D PUSH1 0x64 PUSH2 0xD8F PUSH1 0x5 DUP5 PUSH2 0x3238 SWAP1 SWAP2 SWAP1 PUSH4 0xFFFFFFFF AND JUMP JUMPDEST PUSH2 0x3272 SWAP1 SWAP2 SWAP1 PUSH4 0xFFFFFFFF AND JUMP JUMPDEST PUSH1 0x16 DUP2 SWAP1 SSTORE POP PUSH2 0xDCA PUSH1 0x64 PUSH2 0xDBC PUSH1 0xA DUP5 PUSH2 0x3238 SWAP1 SWAP2 SWAP1 PUSH4 0xFFFFFFFF AND JUMP JUMPDEST PUSH2 0x3272 SWAP1 SWAP2 SWAP1 PUSH4 0xFFFFFFFF AND JUMP JUMPDEST PUSH1 0x17 DUP2 SWAP1 SSTORE POP PUSH2 0xDF7 PUSH1 0x64 PUSH2 0xDE9 PUSH1 0xF DUP5 PUSH2 0x3238 SWAP1 SWAP2 SWAP1 PUSH4 0xFFFFFFFF AND JUMP JUMPDEST PUSH2 0x3272 SWAP1 SWAP2 SWAP1 PUSH4 0xFFFFFFFF AND JUMP JUMPDEST PUSH1 0x18 DUP2 SWAP1 SSTORE POP PUSH2 0xE24 PUSH1 0x64 PUSH2 0xE16 PUSH1 0x19 DUP5 PUSH2 0x3238 SWAP1 SWAP2 SWAP1 PUSH4 0xFFFFFFFF AND JUMP JUMPDEST PUSH2 0x3272 SWAP1 SWAP2 SWAP1 PUSH4 0xFFFFFFFF AND JUMP JUMPDEST PUSH1 0x19 DUP2 SWAP1 SSTORE POP PUSH1 0x6 PUSH1 0x0 SWAP1 SLOAD SWAP1 PUSH2 0x100 EXP SWAP1 DIV PUSH20 0xFFFFFFFFFFFFFFFFFFFFFFFFFFFFFFFFFFFFFFFF AND PUSH20 0xFFFFFFFFFFFFFFFFFFFFFFFFFFFFFFFFFFFFFFFF AND PUSH4 0x40C10F19 PUSH1 0x8 PUSH1 0x0 SWAP1 SLOAD SWAP1 PUSH2 0x100 EXP SWAP1 DIV PUSH20 0xFFFFFFFFFFFFFFFFFFFFFFFFFFFFFFFFFFFFFFFF AND PUSH1 0x11 SLOAD PUSH1 0x40 MLOAD DUP4 PUSH4 0xFFFFFFFF AND PUSH1 0xE0 SHL DUP2 MSTORE PUSH1 0x4 ADD DUP1 DUP4 PUSH20 0xFFFFFFFFFFFFFFFFFFFFFFFFFFFFFFFFFFFFFFFF AND PUSH20 0xFFFFFFFFFFFFFFFFFFFFFFFFFFFFFFFFFFFFFFFF AND DUP2 MSTORE PUSH1 0x20 ADD DUP3 DUP2 MSTORE PUSH1 0x20 ADD SWAP3 POP POP POP PUSH1 0x20 PUSH1 0x40 MLOAD DUP1 DUP4 SUB DUP2 PUSH1 0x0 DUP8 DUP1 EXTCODESIZE ISZERO DUP1 ISZERO PUSH2 0xEF7 JUMPI PUSH1 0x0 DUP1 REVERT JUMPDEST POP GAS CALL ISZERO DUP1 ISZERO PUSH2 0xF0B JUMPI RETURNDATASIZE PUSH1 0x0 DUP1 RETURNDATACOPY RETURNDATASIZE PUSH1 0x0 REVERT JUMPDEST POP POP POP POP PUSH1 0x40 MLOAD RETURNDATASIZE PUSH1 0x20 DUP2 LT ISZERO PUSH2 0xF21 JUMPI PUSH1 0x0 DUP1 REVERT JUMPDEST DUP2 ADD SWAP1 DUP1 DUP1 MLOAD SWAP1 PUSH1 0x20 ADD SWAP1 SWAP3 SWAP2 SWAP1 POP POP POP POP PUSH32 0x8470EC6072093ABFEC912969EE9FD5273EED1D3202EAC51A1FD83C236EE9BEA8 PUSH1 0x8 PUSH1 0x0 SWAP1 SLOAD SWAP1 PUSH2 0x100 EXP SWAP1 DIV PUSH20 0xFFFFFFFFFFFFFFFFFFFFFFFFFFFFFFFFFFFFFFFF AND PUSH1 0x11 SLOAD PUSH1 0x40 MLOAD DUP1 DUP1 PUSH1 0x20 ADD DUP5 PUSH20 0xFFFFFFFFFFFFFFFFFFFFFFFFFFFFFFFFFFFFFFFF AND PUSH20 0xFFFFFFFFFFFFFFFFFFFFFFFFFFFFFFFFFFFFFFFF AND DUP2 MSTORE PUSH1 0x20 ADD DUP4 DUP2 MSTORE PUSH1 0x20 ADD DUP3 DUP2 SUB DUP3 MSTORE PUSH1 0x19 DUP2 MSTORE PUSH1 0x20 ADD DUP1 PUSH32 0x6E657754616C656E7473416E64506172746E6572736869707300000000000000 DUP2 MSTORE POP PUSH1 0x20 ADD SWAP4 POP POP POP POP PUSH1 0x40 MLOAD DUP1 SWAP2 SUB SWAP1 LOG1 PUSH1 0x6 PUSH1 0x0 SWAP1 SLOAD SWAP1 PUSH2 0x100 EXP SWAP1 DIV PUSH20 0xFFFFFFFFFFFFFFFFFFFFFFFFFFFFFFFFFFFFFFFF AND PUSH20 0xFFFFFFFFFFFFFFFFFFFFFFFFFFFFFFFFFFFFFFFF AND PUSH4 0x40C10F19 PUSH1 0x9 PUSH1 0x0 SWAP1 SLOAD SWAP1 PUSH2 0x100 EXP SWAP1 DIV PUSH20 0xFFFFFFFFFFFFFFFFFFFFFFFFFFFFFFFFFFFFFFFF AND PUSH1 0x12 SLOAD PUSH1 0x40 MLOAD DUP4 PUSH4 0xFFFFFFFF AND PUSH1 0xE0 SHL DUP2 MSTORE PUSH1 0x4 ADD DUP1 DUP4 PUSH20 0xFFFFFFFFFFFFFFFFFFFFFFFFFFFFFFFFFFFFFFFF AND PUSH20 0xFFFFFFFFFFFFFFFFFFFFFFFFFFFFFFFFFFFFFFFF AND DUP2 MSTORE PUSH1 0x20 ADD DUP3 DUP2 MSTORE PUSH1 0x20 ADD SWAP3 POP POP POP PUSH1 0x20 PUSH1 0x40 MLOAD DUP1 DUP4 SUB DUP2 PUSH1 0x0 DUP8 DUP1 EXTCODESIZE ISZERO DUP1 ISZERO PUSH2 0x10C8 JUMPI PUSH1 0x0 DUP1 REVERT JUMPDEST POP GAS CALL ISZERO DUP1 ISZERO PUSH2 0x10DC JUMPI RETURNDATASIZE PUSH1 0x0 DUP1 RETURNDATACOPY RETURNDATASIZE PUSH1 0x0 REVERT JUMPDEST POP POP POP POP PUSH1 0x40 MLOAD RETURNDATASIZE PUSH1 0x20 DUP2 LT ISZERO PUSH2 0x10F2 JUMPI PUSH1 0x0 DUP1 REVERT JUMPDEST DUP2 ADD SWAP1 DUP1 DUP1 MLOAD SWAP1 PUSH1 0x20 ADD SWAP1 SWAP3 SWAP2 SWAP1 POP POP POP POP PUSH32 0x8470EC6072093ABFEC912969EE9FD5273EED1D3202EAC51A1FD83C236EE9BEA8 PUSH1 0x9 PUSH1 0x0 SWAP1 SLOAD SWAP1 PUSH2 0x100 EXP SWAP1 DIV PUSH20 0xFFFFFFFFFFFFFFFFFFFFFFFFFFFFFFFFFFFFFFFF AND PUSH1 0x12 SLOAD PUSH1 0x40 MLOAD DUP1 DUP1 PUSH1 0x20 ADD DUP5 PUSH20 0xFFFFFFFFFFFFFFFFFFFFFFFFFFFFFFFFFFFFFFFF AND PUSH20 0xFFFFFFFFFFFFFFFFFFFFFFFFFFFFFFFFFFFFFFFF AND DUP2 MSTORE PUSH1 0x20 ADD DUP4 DUP2 MSTORE PUSH1 0x20 ADD DUP3 DUP2 SUB DUP3 MSTORE PUSH1 0x13 DUP2 MSTORE PUSH1 0x20 ADD DUP1 PUSH32 0x706C6174666F726D4D61696E74656E616E636500000000000000000000000000 DUP2 MSTORE POP PUSH1 0x20 ADD SWAP4 POP POP POP POP PUSH1 0x40 MLOAD DUP1 SWAP2 SUB SWAP1 LOG1 PUSH1 0x6 PUSH1 0x0 SWAP1 SLOAD SWAP1 PUSH2 0x100 EXP SWAP1 DIV PUSH20 0xFFFFFFFFFFFFFFFFFFFFFFFFFFFFFFFFFFFFFFFF AND PUSH20 0xFFFFFFFFFFFFFFFFFFFFFFFFFFFFFFFFFFFFFFFF AND PUSH4 0x40C10F19 PUSH1 0xA PUSH1 0x0 SWAP1 SLOAD SWAP1 PUSH2 0x100 EXP SWAP1 DIV PUSH20 0xFFFFFFFFFFFFFFFFFFFFFFFFFFFFFFFFFFFFFFFF AND PUSH1 0x13 SLOAD PUSH1 0x40 MLOAD DUP4 PUSH4 0xFFFFFFFF AND PUSH1 0xE0 SHL DUP2 MSTORE PUSH1 0x4 ADD DUP1 DUP4 PUSH20 0xFFFFFFFFFFFFFFFFFFFFFFFFFFFFFFFFFFFFFFFF AND PUSH20 0xFFFFFFFFFFFFFFFFFFFFFFFFFFFFFFFFFFFFFFFF AND DUP2 MSTORE PUSH1 0x20 ADD DUP3 DUP2 MSTORE PUSH1 0x20 ADD SWAP3 POP POP POP PUSH1 0x20 PUSH1 0x40 MLOAD DUP1 DUP4 SUB DUP2 PUSH1 0x0 DUP8 DUP1 EXTCODESIZE ISZERO DUP1 ISZERO PUSH2 0x1299 JUMPI PUSH1 0x0 DUP1 REVERT JUMPDEST POP GAS CALL ISZERO DUP1 ISZERO PUSH2 0x12AD JUMPI RETURNDATASIZE PUSH1 0x0 DUP1 RETURNDATACOPY RETURNDATASIZE PUSH1 0x0 REVERT JUMPDEST POP POP POP POP PUSH1 0x40 MLOAD RETURNDATASIZE PUSH1 0x20 DUP2 LT ISZERO PUSH2 0x12C3 JUMPI PUSH1 0x0 DUP1 REVERT JUMPDEST DUP2 ADD SWAP1 DUP1 DUP1 MLOAD SWAP1 PUSH1 0x20 ADD SWAP1 SWAP3 SWAP2 SWAP1 POP POP POP POP PUSH32 0x8470EC6072093ABFEC912969EE9FD5273EED1D3202EAC51A1FD83C236EE9BEA8 PUSH1 0xA PUSH1 0x0 SWAP1 SLOAD SWAP1 PUSH2 0x100 EXP SWAP1 DIV PUSH20 0xFFFFFFFFFFFFFFFFFFFFFFFFFFFFFFFFFFFFFFFF AND PUSH1 0x13 SLOAD PUSH1 0x40 MLOAD DUP1 DUP1 PUSH1 0x20 ADD DUP5 PUSH20 0xFFFFFFFFFFFFFFFFFFFFFFFFFFFFFFFFFFFFFFFF AND PUSH20 0xFFFFFFFFFFFFFFFFFFFFFFFFFFFFFFFFFFFFFFFF AND DUP2 MSTORE PUSH1 0x20 ADD DUP4 DUP2 MSTORE PUSH1 0x20 ADD DUP3 DUP2 SUB DUP3 MSTORE PUSH1 0xF DUP2 MSTORE PUSH1 0x20 ADD DUP1 PUSH32 0x6D61726B6574696E67416E64524E520000000000000000000000000000000000 DUP2 MSTORE POP PUSH1 0x20 ADD SWAP4 POP POP POP POP PUSH1 0x40 MLOAD DUP1 SWAP2 SUB SWAP1 LOG1 PUSH1 0x6 PUSH1 0x0 SWAP1 SLOAD SWAP1 PUSH2 0x100 EXP SWAP1 DIV PUSH20 0xFFFFFFFFFFFFFFFFFFFFFFFFFFFFFFFFFFFFFFFF AND PUSH20 0xFFFFFFFFFFFFFFFFFFFFFFFFFFFFFFFFFFFFFFFF AND PUSH4 0x40C10F19 PUSH1 0xB PUSH1 0x0 SWAP1 SLOAD SWAP1 PUSH2 0x100 EXP SWAP1 DIV PUSH20 0xFFFFFFFFFFFFFFFFFFFFFFFFFFFFFFFFFFFFFFFF AND PUSH1 0x14 SLOAD PUSH1 0x40 MLOAD DUP4 PUSH4 0xFFFFFFFF AND PUSH1 0xE0 SHL DUP2 MSTORE PUSH1 0x4 ADD DUP1 DUP4 PUSH20 0xFFFFFFFFFFFFFFFFFFFFFFFFFFFFFFFFFFFFFFFF AND PUSH20 0xFFFFFFFFFFFFFFFFFFFFFFFFFFFFFFFFFFFFFFFF AND DUP2 MSTORE PUSH1 0x20 ADD DUP3 DUP2 MSTORE PUSH1 0x20 ADD SWAP3 POP POP POP PUSH1 0x20 PUSH1 0x40 MLOAD DUP1 DUP4 SUB DUP2 PUSH1 0x0 DUP8 DUP1 EXTCODESIZE ISZERO DUP1 ISZERO PUSH2 0x146A JUMPI PUSH1 0x0 DUP1 REVERT JUMPDEST POP GAS CALL ISZERO DUP1 ISZERO PUSH2 0x147E JUMPI RETURNDATASIZE PUSH1 0x0 DUP1 RETURNDATACOPY RETURNDATASIZE PUSH1 0x0 REVERT JUMPDEST POP POP POP POP PUSH1 0x40 MLOAD RETURNDATASIZE PUSH1 0x20 DUP2 LT ISZERO PUSH2 0x1494 JUMPI PUSH1 0x0 DUP1 REVERT JUMPDEST DUP2 ADD SWAP1 DUP1 DUP1 MLOAD SWAP1 PUSH1 0x20 ADD SWAP1 SWAP3 SWAP2 SWAP1 POP POP POP POP PUSH32 0x8470EC6072093ABFEC912969EE9FD5273EED1D3202EAC51A1FD83C236EE9BEA8 PUSH1 0xB PUSH1 0x0 SWAP1 SLOAD SWAP1 PUSH2 0x100 EXP SWAP1 DIV PUSH20 0xFFFFFFFFFFFFFFFFFFFFFFFFFFFFFFFFFFFFFFFF AND PUSH1 0x14 SLOAD PUSH1 0x40 MLOAD DUP1 DUP1 PUSH1 0x20 ADD DUP5 PUSH20 0xFFFFFFFFFFFFFFFFFFFFFFFFFFFFFFFFFFFFFFFF AND PUSH20 0xFFFFFFFFFFFFFFFFFFFFFFFFFFFFFFFFFFFFFFFF AND DUP2 MSTORE PUSH1 0x20 ADD DUP4 DUP2 MSTORE PUSH1 0x20 ADD DUP3 DUP2 SUB DUP3 MSTORE PUSH1 0x7 DUP2 MSTORE PUSH1 0x20 ADD DUP1 PUSH32 0x6B6D506172647300000000000000000000000000000000000000000000000000 DUP2 MSTORE POP PUSH1 0x20 ADD SWAP4 POP POP POP POP PUSH1 0x40 MLOAD DUP1 SWAP2 SUB SWAP1 LOG1 PUSH1 0x6 PUSH1 0x0 SWAP1 SLOAD SWAP1 PUSH2 0x100 EXP SWAP1 DIV PUSH20 0xFFFFFFFFFFFFFFFFFFFFFFFFFFFFFFFFFFFFFFFF AND PUSH20 0xFFFFFFFFFFFFFFFFFFFFFFFFFFFFFFFFFFFFFFFF AND PUSH4 0x40C10F19 PUSH1 0xC PUSH1 0x0 SWAP1 SLOAD SWAP1 PUSH2 0x100 EXP SWAP1 DIV PUSH20 0xFFFFFFFFFFFFFFFFFFFFFFFFFFFFFFFFFFFFFFFF AND PUSH1 0x15 SLOAD PUSH1 0x40 MLOAD DUP4 PUSH4 0xFFFFFFFF AND PUSH1 0xE0 SHL DUP2 MSTORE PUSH1 0x4 ADD DUP1 DUP4 PUSH20 0xFFFFFFFFFFFFFFFFFFFFFFFFFFFFFFFFFFFFFFFF AND PUSH20 0xFFFFFFFFFFFFFFFFFFFFFFFFFFFFFFFFFFFFFFFF AND DUP2 MSTORE PUSH1 0x20 ADD DUP3 DUP2 MSTORE PUSH1 0x20 ADD SWAP3 POP POP POP PUSH1 0x20 PUSH1 0x40 MLOAD DUP1 DUP4 SUB DUP2 PUSH1 0x0 DUP8 DUP1 EXTCODESIZE ISZERO DUP1 ISZERO PUSH2 0x163B JUMPI PUSH1 0x0 DUP1 REVERT JUMPDEST POP GAS CALL ISZERO DUP1 ISZERO PUSH2 0x164F JUMPI RETURNDATASIZE PUSH1 0x0 DUP1 RETURNDATACOPY RETURNDATASIZE PUSH1 0x0 REVERT JUMPDEST POP POP POP POP PUSH1 0x40 MLOAD RETURNDATASIZE PUSH1 0x20 DUP2 LT ISZERO PUSH2 0x1665 JUMPI PUSH1 0x0 DUP1 REVERT JUMPDEST DUP2 ADD SWAP1 DUP1 DUP1 MLOAD SWAP1 PUSH1 0x20 ADD SWAP1 SWAP3 SWAP2 SWAP1 POP POP POP POP PUSH32 0x8470EC6072093ABFEC912969EE9FD5273EED1D3202EAC51A1FD83C236EE9BEA8 PUSH1 0xC PUSH1 0x0 SWAP1 SLOAD SWAP1 PUSH2 0x100 EXP SWAP1 DIV PUSH20 0xFFFFFFFFFFFFFFFFFFFFFFFFFFFFFFFFFFFFFFFF AND PUSH1 0x15 SLOAD PUSH1 0x40 MLOAD DUP1 DUP1 PUSH1 0x20 ADD DUP5 PUSH20 0xFFFFFFFFFFFFFFFFFFFFFFFFFFFFFFFFFFFFFFFF AND PUSH20 0xFFFFFFFFFFFFFFFFFFFFFFFFFFFFFFFFFFFFFFFF AND DUP2 MSTORE PUSH1 0x20 ADD DUP4 DUP2 MSTORE PUSH1 0x20 ADD DUP3 DUP2 SUB DUP3 MSTORE PUSH1 0x10 DUP2 MSTORE PUSH1 0x20 ADD DUP1 PUSH32 0x636F6E74696E67656E637946756E647300000000000000000000000000000000 DUP2 MSTORE POP PUSH1 0x20 ADD SWAP4 POP POP POP POP PUSH1 0x40 MLOAD DUP1 SWAP2 SUB SWAP1 LOG1 PUSH1 0x6 PUSH1 0x0 SWAP1 SLOAD SWAP1 PUSH2 0x100 EXP SWAP1 DIV PUSH20 0xFFFFFFFFFFFFFFFFFFFFFFFFFFFFFFFFFFFFFFFF AND PUSH20 0xFFFFFFFFFFFFFFFFFFFFFFFFFFFFFFFFFFFFFFFF AND PUSH4 0x40C10F19 PUSH1 0xD PUSH1 0x0 SWAP1 SLOAD SWAP1 PUSH2 0x100 EXP SWAP1 DIV PUSH20 0xFFFFFFFFFFFFFFFFFFFFFFFFFFFFFFFFFFFFFFFF AND PUSH1 0x16 SLOAD PUSH1 0x40 MLOAD DUP4 PUSH4 0xFFFFFFFF AND PUSH1 0xE0 SHL DUP2 MSTORE PUSH1 0x4 ADD DUP1 DUP4 PUSH20 0xFFFFFFFFFFFFFFFFFFFFFFFFFFFFFFFFFFFFFFFF AND PUSH20 0xFFFFFFFFFFFFFFFFFFFFFFFFFFFFFFFFFFFFFFFF AND DUP2 MSTORE PUSH1 0x20 ADD DUP3 DUP2 MSTORE PUSH1 0x20 ADD SWAP3 POP POP POP PUSH1 0x20 PUSH1 0x40 MLOAD DUP1 DUP4 SUB DUP2 PUSH1 0x0 DUP8 DUP1 EXTCODESIZE ISZERO DUP1 ISZERO PUSH2 0x180C JUMPI PUSH1 0x0 DUP1 REVERT JUMPDEST POP GAS CALL ISZERO DUP1 ISZERO PUSH2 0x1820 JUMPI RETURNDATASIZE PUSH1 0x0 DUP1 RETURNDATACOPY RETURNDATASIZE PUSH1 0x0 REVERT JUMPDEST POP POP POP POP PUSH1 0x40 MLOAD RETURNDATASIZE PUSH1 0x20 DUP2 LT ISZERO PUSH2 0x1836 JUMPI PUSH1 0x0 DUP1 REVERT JUMPDEST DUP2 ADD SWAP1 DUP1 DUP1 MLOAD SWAP1 PUSH1 0x20 ADD SWAP1 SWAP3 SWAP2 SWAP1 POP POP POP POP PUSH32 0x8470EC6072093ABFEC912969EE9FD5273EED1D3202EAC51A1FD83C236EE9BEA8 PUSH1 0xD PUSH1 0x0 SWAP1 SLOAD SWAP1 PUSH2 0x100 EXP SWAP1 DIV PUSH20 0xFFFFFFFFFFFFFFFFFFFFFFFFFFFFFFFFFFFFFFFF AND PUSH1 0x16 SLOAD PUSH1 0x40 MLOAD DUP1 DUP1 PUSH1 0x20 ADD DUP5 PUSH20 0xFFFFFFFFFFFFFFFFFFFFFFFFFFFFFFFFFFFFFFFF AND PUSH20 0xFFFFFFFFFFFFFFFFFFFFFFFFFFFFFFFFFFFFFFFF AND DUP2 MSTORE PUSH1 0x20 ADD DUP4 DUP2 MSTORE PUSH1 0x20 ADD DUP3 DUP2 SUB DUP3 MSTORE PUSH1 0x16 DUP2 MSTORE PUSH1 0x20 ADD DUP1 PUSH32 0x7265736561726368416E64446576656C6F706D656E7400000000000000000000 DUP2 MSTORE POP PUSH1 0x20 ADD SWAP4 POP POP POP POP PUSH1 0x40 MLOAD DUP1 SWAP2 SUB SWAP1 LOG1 PUSH1 0x6 PUSH1 0x0 SWAP1 SLOAD SWAP1 PUSH2 0x100 EXP SWAP1 DIV PUSH20 0xFFFFFFFFFFFFFFFFFFFFFFFFFFFFFFFFFFFFFFFF AND PUSH20 0xFFFFFFFFFFFFFFFFFFFFFFFFFFFFFFFFFFFFFFFF AND PUSH4 0x40C10F19 PUSH1 0xE PUSH1 0x0 SWAP1 SLOAD SWAP1 PUSH2 0x100 EXP SWAP1 DIV PUSH20 0xFFFFFFFFFFFFFFFFFFFFFFFFFFFFFFFFFFFFFFFF AND PUSH1 0x17 SLOAD PUSH1 0x40 MLOAD DUP4 PUSH4 0xFFFFFFFF AND PUSH1 0xE0 SHL DUP2 MSTORE PUSH1 0x4 ADD DUP1 DUP4 PUSH20 0xFFFFFFFFFFFFFFFFFFFFFFFFFFFFFFFFFFFFFFFF AND PUSH20 0xFFFFFFFFFFFFFFFFFFFFFFFFFFFFFFFFFFFFFFFF AND DUP2 MSTORE PUSH1 0x20 ADD DUP3 DUP2 MSTORE PUSH1 0x20 ADD SWAP3 POP POP POP PUSH1 0x20 PUSH1 0x40 MLOAD DUP1 DUP4 SUB DUP2 PUSH1 0x0 DUP8 DUP1 EXTCODESIZE ISZERO DUP1 ISZERO PUSH2 0x19DD JUMPI PUSH1 0x0 DUP1 REVERT JUMPDEST POP GAS CALL ISZERO DUP1 ISZERO PUSH2 0x19F1 JUMPI RETURNDATASIZE PUSH1 0x0 DUP1 RETURNDATACOPY RETURNDATASIZE PUSH1 0x0 REVERT JUMPDEST POP POP POP POP PUSH1 0x40 MLOAD RETURNDATASIZE PUSH1 0x20 DUP2 LT ISZERO PUSH2 0x1A07 JUMPI PUSH1 0x0 DUP1 REVERT JUMPDEST DUP2 ADD SWAP1 DUP1 DUP1 MLOAD SWAP1 PUSH1 0x20 ADD SWAP1 SWAP3 SWAP2 SWAP1 POP POP POP POP PUSH32 0x8470EC6072093ABFEC912969EE9FD5273EED1D3202EAC51A1FD83C236EE9BEA8 PUSH1 0xE PUSH1 0x0 SWAP1 SLOAD SWAP1 PUSH2 0x100 EXP SWAP1 DIV PUSH20 0xFFFFFFFFFFFFFFFFFFFFFFFFFFFFFFFFFFFFFFFF AND PUSH1 0x17 SLOAD PUSH1 0x40 MLOAD DUP1 DUP1 PUSH1 0x20 ADD DUP5 PUSH20 0xFFFFFFFFFFFFFFFFFFFFFFFFFFFFFFFFFFFFFFFF AND PUSH20 0xFFFFFFFFFFFFFFFFFFFFFFFFFFFFFFFFFFFFFFFF AND DUP2 MSTORE PUSH1 0x20 ADD DUP4 DUP2 MSTORE PUSH1 0x20 ADD DUP3 DUP2 SUB DUP3 MSTORE PUSH1 0xA DUP2 MSTORE PUSH1 0x20 ADD DUP1 PUSH32 0x706F776572546F6B656E00000000000000000000000000000000000000000000 DUP2 MSTORE POP PUSH1 0x20 ADD SWAP4 POP POP POP POP PUSH1 0x40 MLOAD DUP1 SWAP2 SUB SWAP1 LOG1 PUSH1 0x6 PUSH1 0x0 SWAP1 SLOAD SWAP1 PUSH2 0x100 EXP SWAP1 DIV PUSH20 0xFFFFFFFFFFFFFFFFFFFFFFFFFFFFFFFFFFFFFFFF AND PUSH20 0xFFFFFFFFFFFFFFFFFFFFFFFFFFFFFFFFFFFFFFFF AND PUSH4 0x40C10F19 PUSH1 0x10 PUSH1 0x0 SWAP1 SLOAD SWAP1 PUSH2 0x100 EXP SWAP1 DIV PUSH20 0xFFFFFFFFFFFFFFFFFFFFFFFFFFFFFFFFFFFFFFFF AND PUSH1 0x18 SLOAD PUSH1 0x40 MLOAD DUP4 PUSH4 0xFFFFFFFF AND PUSH1 0xE0 SHL DUP2 MSTORE PUSH1 0x4 ADD DUP1 DUP4 PUSH20 0xFFFFFFFFFFFFFFFFFFFFFFFFFFFFFFFFFFFFFFFF AND PUSH20 0xFFFFFFFFFFFFFFFFFFFFFFFFFFFFFFFFFFFFFFFF AND DUP2 MSTORE PUSH1 0x20 ADD DUP3 DUP2 MSTORE PUSH1 0x20 ADD SWAP3 POP POP POP PUSH1 0x20 PUSH1 0x40 MLOAD DUP1 DUP4 SUB DUP2 PUSH1 0x0 DUP8 DUP1 EXTCODESIZE ISZERO DUP1 ISZERO PUSH2 0x1BAE JUMPI PUSH1 0x0 DUP1 REVERT JUMPDEST POP GAS CALL ISZERO DUP1 ISZERO PUSH2 0x1BC2 JUMPI RETURNDATASIZE PUSH1 0x0 DUP1 RETURNDATACOPY RETURNDATASIZE PUSH1 0x0 REVERT JUMPDEST POP POP POP POP PUSH1 0x40 MLOAD RETURNDATASIZE PUSH1 0x20 DUP2 LT ISZERO PUSH2 0x1BD8 JUMPI PUSH1 0x0 DUP1 REVERT JUMPDEST DUP2 ADD SWAP1 DUP1 DUP1 MLOAD SWAP1 PUSH1 0x20 ADD SWAP1 SWAP3 SWAP2 SWAP1 POP POP POP POP PUSH1 0x0 PUSH1 0x10 PUSH1 0x0 SWAP1 SLOAD SWAP1 PUSH2 0x100 EXP SWAP1 DIV PUSH20 0xFFFFFFFFFFFFFFFFFFFFFFFFFFFFFFFFFFFFFFFF AND SWAP1 POP DUP1 PUSH20 0xFFFFFFFFFFFFFFFFFFFFFFFFFFFFFFFFFFFFFFFF AND PUSH4 0xE78C81C4 PUSH1 0x18 SLOAD PUSH1 0x40 MLOAD DUP3 PUSH4 0xFFFFFFFF AND PUSH1 0xE0 SHL DUP2 MSTORE PUSH1 0x4 ADD DUP1 DUP3 DUP2 MSTORE PUSH1 0x20 ADD SWAP2 POP POP PUSH1 0x0 PUSH1 0x40 MLOAD DUP1 DUP4 SUB DUP2 PUSH1 0x0 DUP8 DUP1 EXTCODESIZE ISZERO DUP1 ISZERO PUSH2 0x1C66 JUMPI PUSH1 0x0 DUP1 REVERT JUMPDEST POP GAS CALL ISZERO DUP1 ISZERO PUSH2 0x1C7A JUMPI RETURNDATASIZE PUSH1 0x0 DUP1 RETURNDATACOPY RETURNDATASIZE PUSH1 0x0 REVERT JUMPDEST POP POP POP POP PUSH32 0x8470EC6072093ABFEC912969EE9FD5273EED1D3202EAC51A1FD83C236EE9BEA8 PUSH1 0x10 PUSH1 0x0 SWAP1 SLOAD SWAP1 PUSH2 0x100 EXP SWAP1 DIV PUSH20 0xFFFFFFFFFFFFFFFFFFFFFFFFFFFFFFFFFFFFFFFF AND PUSH1 0x18 SLOAD PUSH1 0x40 MLOAD DUP1 DUP1 PUSH1 0x20 ADD DUP5 PUSH20 0xFFFFFFFFFFFFFFFFFFFFFFFFFFFFFFFFFFFFFFFF AND PUSH20 0xFFFFFFFFFFFFFFFFFFFFFFFFFFFFFFFFFFFFFFFF AND DUP2 MSTORE PUSH1 0x20 ADD DUP4 DUP2 MSTORE PUSH1 0x20 ADD DUP3 DUP2 SUB DUP3 MSTORE PUSH1 0xF DUP2 MSTORE PUSH1 0x20 ADD DUP1 PUSH32 0x7374616B696E67436F6E74726163740000000000000000000000000000000000 DUP2 MSTORE POP PUSH1 0x20 ADD SWAP4 POP POP POP POP PUSH1 0x40 MLOAD DUP1 SWAP2 SUB SWAP1 LOG1 PUSH1 0x6 PUSH1 0x0 SWAP1 SLOAD SWAP1 PUSH2 0x100 EXP SWAP1 DIV PUSH20 0xFFFFFFFFFFFFFFFFFFFFFFFFFFFFFFFFFFFFFFFF AND PUSH20 0xFFFFFFFFFFFFFFFFFFFFFFFFFFFFFFFFFFFFFFFF AND PUSH4 0x40C10F19 PUSH1 0xF PUSH1 0x0 SWAP1 SLOAD SWAP1 PUSH2 0x100 EXP SWAP1 DIV PUSH20 0xFFFFFFFFFFFFFFFFFFFFFFFFFFFFFFFFFFFFFFFF AND PUSH1 0x19 SLOAD PUSH1 0x40 MLOAD DUP4 PUSH4 0xFFFFFFFF AND PUSH1 0xE0 SHL DUP2 MSTORE PUSH1 0x4 ADD DUP1 DUP4 PUSH20 0xFFFFFFFFFFFFFFFFFFFFFFFFFFFFFFFFFFFFFFFF AND PUSH20 0xFFFFFFFFFFFFFFFFFFFFFFFFFFFFFFFFFFFFFFFF AND DUP2 MSTORE PUSH1 0x20 ADD DUP3 DUP2 MSTORE PUSH1 0x20 ADD SWAP3 POP POP POP PUSH1 0x20 PUSH1 0x40 MLOAD DUP1 DUP4 SUB DUP2 PUSH1 0x0 DUP8 DUP1 EXTCODESIZE ISZERO DUP1 ISZERO PUSH2 0x1E13 JUMPI PUSH1 0x0 DUP1 REVERT JUMPDEST POP GAS CALL ISZERO DUP1 ISZERO PUSH2 0x1E27 JUMPI RETURNDATASIZE PUSH1 0x0 DUP1 RETURNDATACOPY RETURNDATASIZE PUSH1 0x0 REVERT JUMPDEST POP POP POP POP PUSH1 0x40 MLOAD RETURNDATASIZE PUSH1 0x20 DUP2 LT ISZERO PUSH2 0x1E3D JUMPI PUSH1 0x0 DUP1 REVERT JUMPDEST DUP2 ADD SWAP1 DUP1 DUP1 MLOAD SWAP1 PUSH1 0x20 ADD SWAP1 SWAP3 SWAP2 SWAP1 POP POP POP POP PUSH32 0x8470EC6072093ABFEC912969EE9FD5273EED1D3202EAC51A1FD83C236EE9BEA8 PUSH1 0xF PUSH1 0x0 SWAP1 SLOAD SWAP1 PUSH2 0x100 EXP SWAP1 DIV PUSH20 0xFFFFFFFFFFFFFFFFFFFFFFFFFFFFFFFFFFFFFFFF AND PUSH1 0x19 SLOAD PUSH1 0x40 MLOAD DUP1 DUP1 PUSH1 0x20 ADD DUP5 PUSH20 0xFFFFFFFFFFFFFFFFFFFFFFFFFFFFFFFFFFFFFFFF AND PUSH20 0xFFFFFFFFFFFFFFFFFFFFFFFFFFFFFFFFFFFFFFFF AND DUP2 MSTORE PUSH1 0x20 ADD DUP4 DUP2 MSTORE PUSH1 0x20 ADD DUP3 DUP2 SUB DUP3 MSTORE PUSH1 0xC DUP2 MSTORE PUSH1 0x20 ADD DUP1 PUSH32 0x74696D6553776170706572730000000000000000000000000000000000000000 DUP2 MSTORE POP PUSH1 0x20 ADD SWAP4 POP POP POP POP PUSH1 0x40 MLOAD DUP1 SWAP2 SUB SWAP1 LOG1 PUSH32 0x31A2C82874744C38FA6D0D7BACB6FF098DE6C1ECC98899F39F5B9EA32108765B DUP3 PUSH1 0x40 MLOAD DUP1 DUP3 DUP2 MSTORE PUSH1 0x20 ADD SWAP2 POP POP PUSH1 0x40 MLOAD DUP1 SWAP2 SUB SWAP1 LOG1 PUSH1 0x0 PUSH1 0x4 DUP2 SWAP1 SSTORE POP PUSH2 0x1F6E PUSH3 0x278D00 PUSH1 0x0 SLOAD PUSH2 0x31F9 SWAP1 SWAP2 SWAP1 PUSH4 0xFFFFFFFF AND JUMP JUMPDEST PUSH1 0x0 DUP2 SWAP1 SSTORE POP PUSH2 0x1F7C PUSH2 0x3298 JUMP JUMPDEST POP PUSH32 0x6EF4855B666DCC7884561072E4358B28DFE01FEB1B7F4DCEBC00E62D50394AC7 PUSH1 0x5 SLOAD PUSH1 0x40 MLOAD DUP1 DUP3 DUP2 MSTORE PUSH1 0x20 ADD SWAP2 POP POP PUSH1 0x40 MLOAD DUP1 SWAP2 SUB SWAP1 LOG1 PUSH1 0xB PUSH1 0x3 SLOAD EQ ISZERO PUSH2 0x2019 JUMPI PUSH1 0x0 PUSH1 0x3 DUP2 SWAP1 SSTORE POP PUSH2 0x1FF2 PUSH1 0x64 PUSH2 0x1FE4 PUSH1 0x5A PUSH1 0x2 SLOAD PUSH2 0x3238 SWAP1 SWAP2 SWAP1 PUSH4 0xFFFFFFFF AND JUMP JUMPDEST PUSH2 0x3272 SWAP1 SWAP2 SWAP1 PUSH4 0xFFFFFFFF AND JUMP JUMPDEST PUSH1 0x2 DUP2 SWAP1 SSTORE POP PUSH2 0x200E PUSH1 0xC PUSH1 0x2 SLOAD PUSH2 0x3272 SWAP1 SWAP2 SWAP1 PUSH4 0xFFFFFFFF AND JUMP JUMPDEST PUSH1 0x1 DUP2 SWAP1 SSTORE POP PUSH2 0x2036 JUMP JUMPDEST PUSH2 0x202F PUSH1 0x1 PUSH1 0x3 SLOAD PUSH2 0x31F9 SWAP1 SWAP2 SWAP1 PUSH4 0xFFFFFFFF AND JUMP JUMPDEST PUSH1 0x3 DUP2 SWAP1 SSTORE POP JUMPDEST PUSH1 0x1 SWAP3 POP POP POP SWAP1 JUMP JUMPDEST PUSH1 0x12 SLOAD DUP2 JUMP JUMPDEST PUSH1 0x19 SLOAD DUP2 JUMP JUMPDEST PUSH1 0x4 SLOAD DUP2 JUMP JUMPDEST PUSH1 0x0 PUSH1 0x7 PUSH1 0x0 SWAP1 SLOAD SWAP1 PUSH2 0x100 EXP SWAP1 DIV PUSH20 0xFFFFFFFFFFFFFFFFFFFFFFFFFFFFFFFFFFFFFFFF AND PUSH20 0xFFFFFFFFFFFFFFFFFFFFFFFFFFFFFFFFFFFFFFFF AND CALLER PUSH20 0xFFFFFFFFFFFFFFFFFFFFFFFFFFFFFFFFFFFFFFFF AND EQ PUSH2 0x2116 JUMPI PUSH1 0x40 MLOAD PUSH32 0x8C379A000000000000000000000000000000000000000000000000000000000 DUP2 MSTORE PUSH1 0x4 ADD DUP1 DUP1 PUSH1 0x20 ADD DUP3 DUP2 SUB DUP3 MSTORE PUSH1 0x18 DUP2 MSTORE PUSH1 0x20 ADD DUP1 PUSH32 0x4F6E6C79204F776E657220697320617574686F72697365640000000000000000 DUP2 MSTORE POP PUSH1 0x20 ADD SWAP2 POP POP PUSH1 0x40 MLOAD DUP1 SWAP2 SUB SWAP1 REVERT JUMPDEST PUSH1 0x0 PUSH20 0xFFFFFFFFFFFFFFFFFFFFFFFFFFFFFFFFFFFFFFFF AND DUP3 PUSH1 0x0 PUSH1 0x9 DUP2 LT PUSH2 0x213B JUMPI INVALID JUMPDEST PUSH1 0x20 MUL ADD CALLDATALOAD PUSH20 0xFFFFFFFFFFFFFFFFFFFFFFFFFFFFFFFFFFFFFFFF AND PUSH20 0xFFFFFFFFFFFFFFFFFFFFFFFFFFFFFFFFFFFFFFFF AND EQ ISZERO DUP1 ISZERO PUSH2 0x21C8 JUMPI POP PUSH1 0x0 PUSH20 0xFFFFFFFFFFFFFFFFFFFFFFFFFFFFFFFFFFFFFFFF AND PUSH1 0x8 PUSH1 0x0 SWAP1 SLOAD SWAP1 PUSH2 0x100 EXP SWAP1 DIV PUSH20 0xFFFFFFFFFFFFFFFFFFFFFFFFFFFFFFFFFFFFFFFF AND PUSH20 0xFFFFFFFFFFFFFFFFFFFFFFFFFFFFFFFFFFFFFFFF AND EQ JUMPDEST ISZERO PUSH2 0x22F4 JUMPI DUP2 PUSH1 0x0 PUSH1 0x9 DUP2 LT PUSH2 0x21DA JUMPI INVALID JUMPDEST PUSH1 0x20 MUL ADD CALLDATALOAD PUSH20 0xFFFFFFFFFFFFFFFFFFFFFFFFFFFFFFFFFFFFFFFF AND PUSH1 0x8 PUSH1 0x0 PUSH2 0x100 EXP DUP2 SLOAD DUP2 PUSH20 0xFFFFFFFFFFFFFFFFFFFFFFFFFFFFFFFFFFFFFFFF MUL NOT AND SWAP1 DUP4 PUSH20 0xFFFFFFFFFFFFFFFFFFFFFFFFFFFFFFFFFFFFFFFF AND MUL OR SWAP1 SSTORE POP PUSH32 0x12FB0C5ABBA542BF97C53EECC4EBE59D9BA7AD563247ED305F002ADA0291D60F PUSH1 0x8 PUSH1 0x0 SWAP1 SLOAD SWAP1 PUSH2 0x100 EXP SWAP1 DIV PUSH20 0xFFFFFFFFFFFFFFFFFFFFFFFFFFFFFFFFFFFFFFFF AND PUSH1 0x40 MLOAD DUP1 DUP1 PUSH1 0x20 ADD DUP4 PUSH20 0xFFFFFFFFFFFFFFFFFFFFFFFFFFFFFFFFFFFFFFFF AND PUSH20 0xFFFFFFFFFFFFFFFFFFFFFFFFFFFFFFFFFFFFFFFF AND DUP2 MSTORE PUSH1 0x20 ADD DUP3 DUP2 SUB DUP3 MSTORE PUSH1 0x19 DUP2 MSTORE PUSH1 0x20 ADD DUP1 PUSH32 0x4E657754616C656E7473416E64506172746E6572736869707300000000000000 DUP2 MSTORE POP PUSH1 0x20 ADD SWAP3 POP POP POP PUSH1 0x40 MLOAD DUP1 SWAP2 SUB SWAP1 LOG1 JUMPDEST PUSH1 0x0 PUSH20 0xFFFFFFFFFFFFFFFFFFFFFFFFFFFFFFFFFFFFFFFF AND DUP3 PUSH1 0x1 PUSH1 0x9 DUP2 LT PUSH2 0x2319 JUMPI INVALID JUMPDEST PUSH1 0x20 MUL ADD CALLDATALOAD PUSH20 0xFFFFFFFFFFFFFFFFFFFFFFFFFFFFFFFFFFFFFFFF AND PUSH20 0xFFFFFFFFFFFFFFFFFFFFFFFFFFFFFFFFFFFFFFFF AND EQ ISZERO DUP1 ISZERO PUSH2 0x23A6 JUMPI POP PUSH1 0x0 PUSH20 0xFFFFFFFFFFFFFFFFFFFFFFFFFFFFFFFFFFFFFFFF AND PUSH1 0x9 PUSH1 0x0 SWAP1 SLOAD SWAP1 PUSH2 0x100 EXP SWAP1 DIV PUSH20 0xFFFFFFFFFFFFFFFFFFFFFFFFFFFFFFFFFFFFFFFF AND PUSH20 0xFFFFFFFFFFFFFFFFFFFFFFFFFFFFFFFFFFFFFFFF AND EQ JUMPDEST ISZERO PUSH2 0x24D2 JUMPI DUP2 PUSH1 0x1 PUSH1 0x9 DUP2 LT PUSH2 0x23B8 JUMPI INVALID JUMPDEST PUSH1 0x20 MUL ADD CALLDATALOAD PUSH20 0xFFFFFFFFFFFFFFFFFFFFFFFFFFFFFFFFFFFFFFFF AND PUSH1 0x9 PUSH1 0x0 PUSH2 0x100 EXP DUP2 SLOAD DUP2 PUSH20 0xFFFFFFFFFFFFFFFFFFFFFFFFFFFFFFFFFFFFFFFF MUL NOT AND SWAP1 DUP4 PUSH20 0xFFFFFFFFFFFFFFFFFFFFFFFFFFFFFFFFFFFFFFFF AND MUL OR SWAP1 SSTORE POP PUSH32 0x12FB0C5ABBA542BF97C53EECC4EBE59D9BA7AD563247ED305F002ADA0291D60F PUSH1 0x9 PUSH1 0x0 SWAP1 SLOAD SWAP1 PUSH2 0x100 EXP SWAP1 DIV PUSH20 0xFFFFFFFFFFFFFFFFFFFFFFFFFFFFFFFFFFFFFFFF AND PUSH1 0x40 MLOAD DUP1 DUP1 PUSH1 0x20 ADD DUP4 PUSH20 0xFFFFFFFFFFFFFFFFFFFFFFFFFFFFFFFFFFFFFFFF AND PUSH20 0xFFFFFFFFFFFFFFFFFFFFFFFFFFFFFFFFFFFFFFFF AND DUP2 MSTORE PUSH1 0x20 ADD DUP3 DUP2 SUB DUP3 MSTORE PUSH1 0x13 DUP2 MSTORE PUSH1 0x20 ADD DUP1 PUSH32 0x506C6174666F726D4D61696E74656E616E636500000000000000000000000000 DUP2 MSTORE POP PUSH1 0x20 ADD SWAP3 POP POP POP PUSH1 0x40 MLOAD DUP1 SWAP2 SUB SWAP1 LOG1 JUMPDEST PUSH1 0x0 PUSH20 0xFFFFFFFFFFFFFFFFFFFFFFFFFFFFFFFFFFFFFFFF AND DUP3 PUSH1 0x2 PUSH1 0x9 DUP2 LT PUSH2 0x24F7 JUMPI INVALID JUMPDEST PUSH1 0x20 MUL ADD CALLDATALOAD PUSH20 0xFFFFFFFFFFFFFFFFFFFFFFFFFFFFFFFFFFFFFFFF AND PUSH20 0xFFFFFFFFFFFFFFFFFFFFFFFFFFFFFFFFFFFFFFFF AND EQ ISZERO DUP1 ISZERO PUSH2 0x2584 JUMPI POP PUSH1 0x0 PUSH20 0xFFFFFFFFFFFFFFFFFFFFFFFFFFFFFFFFFFFFFFFF AND PUSH1 0xA PUSH1 0x0 SWAP1 SLOAD SWAP1 PUSH2 0x100 EXP SWAP1 DIV PUSH20 0xFFFFFFFFFFFFFFFFFFFFFFFFFFFFFFFFFFFFFFFF AND PUSH20 0xFFFFFFFFFFFFFFFFFFFFFFFFFFFFFFFFFFFFFFFF AND EQ JUMPDEST ISZERO PUSH2 0x26B0 JUMPI DUP2 PUSH1 0x2 PUSH1 0x9 DUP2 LT PUSH2 0x2596 JUMPI INVALID JUMPDEST PUSH1 0x20 MUL ADD CALLDATALOAD PUSH20 0xFFFFFFFFFFFFFFFFFFFFFFFFFFFFFFFFFFFFFFFF AND PUSH1 0xA PUSH1 0x0 PUSH2 0x100 EXP DUP2 SLOAD DUP2 PUSH20 0xFFFFFFFFFFFFFFFFFFFFFFFFFFFFFFFFFFFFFFFF MUL NOT AND SWAP1 DUP4 PUSH20 0xFFFFFFFFFFFFFFFFFFFFFFFFFFFFFFFFFFFFFFFF AND MUL OR SWAP1 SSTORE POP PUSH32 0x12FB0C5ABBA542BF97C53EECC4EBE59D9BA7AD563247ED305F002ADA0291D60F PUSH1 0xA PUSH1 0x0 SWAP1 SLOAD SWAP1 PUSH2 0x100 EXP SWAP1 DIV PUSH20 0xFFFFFFFFFFFFFFFFFFFFFFFFFFFFFFFFFFFFFFFF AND PUSH1 0x40 MLOAD DUP1 DUP1 PUSH1 0x20 ADD DUP4 PUSH20 0xFFFFFFFFFFFFFFFFFFFFFFFFFFFFFFFFFFFFFFFF AND PUSH20 0xFFFFFFFFFFFFFFFFFFFFFFFFFFFFFFFFFFFFFFFF AND DUP2 MSTORE PUSH1 0x20 ADD DUP3 DUP2 SUB DUP3 MSTORE PUSH1 0xF DUP2 MSTORE PUSH1 0x20 ADD DUP1 PUSH32 0x4D61726B6574696E67416E64524E520000000000000000000000000000000000 DUP2 MSTORE POP PUSH1 0x20 ADD SWAP3 POP POP POP PUSH1 0x40 MLOAD DUP1 SWAP2 SUB SWAP1 LOG1 JUMPDEST PUSH1 0x0 PUSH20 0xFFFFFFFFFFFFFFFFFFFFFFFFFFFFFFFFFFFFFFFF AND DUP3 PUSH1 0x3 PUSH1 0x9 DUP2 LT PUSH2 0x26D5 JUMPI INVALID JUMPDEST PUSH1 0x20 MUL ADD CALLDATALOAD PUSH20 0xFFFFFFFFFFFFFFFFFFFFFFFFFFFFFFFFFFFFFFFF AND PUSH20 0xFFFFFFFFFFFFFFFFFFFFFFFFFFFFFFFFFFFFFFFF AND EQ ISZERO DUP1 ISZERO PUSH2 0x2762 JUMPI POP PUSH1 0x0 PUSH20 0xFFFFFFFFFFFFFFFFFFFFFFFFFFFFFFFFFFFFFFFF AND PUSH1 0xB PUSH1 0x0 SWAP1 SLOAD SWAP1 PUSH2 0x100 EXP SWAP1 DIV PUSH20 0xFFFFFFFFFFFFFFFFFFFFFFFFFFFFFFFFFFFFFFFF AND PUSH20 0xFFFFFFFFFFFFFFFFFFFFFFFFFFFFFFFFFFFFFFFF AND EQ JUMPDEST ISZERO PUSH2 0x288E JUMPI DUP2 PUSH1 0x3 PUSH1 0x9 DUP2 LT PUSH2 0x2774 JUMPI INVALID JUMPDEST PUSH1 0x20 MUL ADD CALLDATALOAD PUSH20 0xFFFFFFFFFFFFFFFFFFFFFFFFFFFFFFFFFFFFFFFF AND PUSH1 0xB PUSH1 0x0 PUSH2 0x100 EXP DUP2 SLOAD DUP2 PUSH20 0xFFFFFFFFFFFFFFFFFFFFFFFFFFFFFFFFFFFFFFFF MUL NOT AND SWAP1 DUP4 PUSH20 0xFFFFFFFFFFFFFFFFFFFFFFFFFFFFFFFFFFFFFFFF AND MUL OR SWAP1 SSTORE POP PUSH32 0x12FB0C5ABBA542BF97C53EECC4EBE59D9BA7AD563247ED305F002ADA0291D60F PUSH1 0xB PUSH1 0x0 SWAP1 SLOAD SWAP1 PUSH2 0x100 EXP SWAP1 DIV PUSH20 0xFFFFFFFFFFFFFFFFFFFFFFFFFFFFFFFFFFFFFFFF AND PUSH1 0x40 MLOAD DUP1 DUP1 PUSH1 0x20 ADD DUP4 PUSH20 0xFFFFFFFFFFFFFFFFFFFFFFFFFFFFFFFFFFFFFFFF AND PUSH20 0xFFFFFFFFFFFFFFFFFFFFFFFFFFFFFFFFFFFFFFFF AND DUP2 MSTORE PUSH1 0x20 ADD DUP3 DUP2 SUB DUP3 MSTORE PUSH1 0x7 DUP2 MSTORE PUSH1 0x20 ADD DUP1 PUSH32 0x4B6D506172647300000000000000000000000000000000000000000000000000 DUP2 MSTORE POP PUSH1 0x20 ADD SWAP3 POP POP POP PUSH1 0x40 MLOAD DUP1 SWAP2 SUB SWAP1 LOG1 JUMPDEST PUSH1 0x0 PUSH20 0xFFFFFFFFFFFFFFFFFFFFFFFFFFFFFFFFFFFFFFFF AND DUP3 PUSH1 0x4 PUSH1 0x9 DUP2 LT PUSH2 0x28B3 JUMPI INVALID JUMPDEST PUSH1 0x20 MUL ADD CALLDATALOAD PUSH20 0xFFFFFFFFFFFFFFFFFFFFFFFFFFFFFFFFFFFFFFFF AND PUSH20 0xFFFFFFFFFFFFFFFFFFFFFFFFFFFFFFFFFFFFFFFF AND EQ ISZERO DUP1 ISZERO PUSH2 0x2940 JUMPI POP PUSH1 0x0 PUSH20 0xFFFFFFFFFFFFFFFFFFFFFFFFFFFFFFFFFFFFFFFF AND PUSH1 0xC PUSH1 0x0 SWAP1 SLOAD SWAP1 PUSH2 0x100 EXP SWAP1 DIV PUSH20 0xFFFFFFFFFFFFFFFFFFFFFFFFFFFFFFFFFFFFFFFF AND PUSH20 0xFFFFFFFFFFFFFFFFFFFFFFFFFFFFFFFFFFFFFFFF AND EQ JUMPDEST ISZERO PUSH2 0x2A6C JUMPI DUP2 PUSH1 0x4 PUSH1 0x9 DUP2 LT PUSH2 0x2952 JUMPI INVALID JUMPDEST PUSH1 0x20 MUL ADD CALLDATALOAD PUSH20 0xFFFFFFFFFFFFFFFFFFFFFFFFFFFFFFFFFFFFFFFF AND PUSH1 0xC PUSH1 0x0 PUSH2 0x100 EXP DUP2 SLOAD DUP2 PUSH20 0xFFFFFFFFFFFFFFFFFFFFFFFFFFFFFFFFFFFFFFFF MUL NOT AND SWAP1 DUP4 PUSH20 0xFFFFFFFFFFFFFFFFFFFFFFFFFFFFFFFFFFFFFFFF AND MUL OR SWAP1 SSTORE POP PUSH32 0x12FB0C5ABBA542BF97C53EECC4EBE59D9BA7AD563247ED305F002ADA0291D60F PUSH1 0xC PUSH1 0x0 SWAP1 SLOAD SWAP1 PUSH2 0x100 EXP SWAP1 DIV PUSH20 0xFFFFFFFFFFFFFFFFFFFFFFFFFFFFFFFFFFFFFFFF AND PUSH1 0x40 MLOAD DUP1 DUP1 PUSH1 0x20 ADD DUP4 PUSH20 0xFFFFFFFFFFFFFFFFFFFFFFFFFFFFFFFFFFFFFFFF AND PUSH20 0xFFFFFFFFFFFFFFFFFFFFFFFFFFFFFFFFFFFFFFFF AND DUP2 MSTORE PUSH1 0x20 ADD DUP3 DUP2 SUB DUP3 MSTORE PUSH1 0x10 DUP2 MSTORE PUSH1 0x20 ADD DUP1 PUSH32 0x436F6E74696E67656E637946756E647300000000000000000000000000000000 DUP2 MSTORE POP PUSH1 0x20 ADD SWAP3 POP POP POP PUSH1 0x40 MLOAD DUP1 SWAP2 SUB SWAP1 LOG1 JUMPDEST PUSH1 0x0 PUSH20 0xFFFFFFFFFFFFFFFFFFFFFFFFFFFFFFFFFFFFFFFF AND DUP3 PUSH1 0x5 PUSH1 0x9 DUP2 LT PUSH2 0x2A91 JUMPI INVALID JUMPDEST PUSH1 0x20 MUL ADD CALLDATALOAD PUSH20 0xFFFFFFFFFFFFFFFFFFFFFFFFFFFFFFFFFFFFFFFF AND PUSH20 0xFFFFFFFFFFFFFFFFFFFFFFFFFFFFFFFFFFFFFFFF AND EQ ISZERO DUP1 ISZERO PUSH2 0x2B1E JUMPI POP PUSH1 0x0 PUSH20 0xFFFFFFFFFFFFFFFFFFFFFFFFFFFFFFFFFFFFFFFF AND PUSH1 0xD PUSH1 0x0 SWAP1 SLOAD SWAP1 PUSH2 0x100 EXP SWAP1 DIV PUSH20 0xFFFFFFFFFFFFFFFFFFFFFFFFFFFFFFFFFFFFFFFF AND PUSH20 0xFFFFFFFFFFFFFFFFFFFFFFFFFFFFFFFFFFFFFFFF AND EQ JUMPDEST ISZERO PUSH2 0x2C4A JUMPI DUP2 PUSH1 0x5 PUSH1 0x9 DUP2 LT PUSH2 0x2B30 JUMPI INVALID JUMPDEST PUSH1 0x20 MUL ADD CALLDATALOAD PUSH20 0xFFFFFFFFFFFFFFFFFFFFFFFFFFFFFFFFFFFFFFFF AND PUSH1 0xD PUSH1 0x0 PUSH2 0x100 EXP DUP2 SLOAD DUP2 PUSH20 0xFFFFFFFFFFFFFFFFFFFFFFFFFFFFFFFFFFFFFFFF MUL NOT AND SWAP1 DUP4 PUSH20 0xFFFFFFFFFFFFFFFFFFFFFFFFFFFFFFFFFFFFFFFF AND MUL OR SWAP1 SSTORE POP PUSH32 0x12FB0C5ABBA542BF97C53EECC4EBE59D9BA7AD563247ED305F002ADA0291D60F PUSH1 0xD PUSH1 0x0 SWAP1 SLOAD SWAP1 PUSH2 0x100 EXP SWAP1 DIV PUSH20 0xFFFFFFFFFFFFFFFFFFFFFFFFFFFFFFFFFFFFFFFF AND PUSH1 0x40 MLOAD DUP1 DUP1 PUSH1 0x20 ADD DUP4 PUSH20 0xFFFFFFFFFFFFFFFFFFFFFFFFFFFFFFFFFFFFFFFF AND PUSH20 0xFFFFFFFFFFFFFFFFFFFFFFFFFFFFFFFFFFFFFFFF AND DUP2 MSTORE PUSH1 0x20 ADD DUP3 DUP2 SUB DUP3 MSTORE PUSH1 0x16 DUP2 MSTORE PUSH1 0x20 ADD DUP1 PUSH32 0x5265736561726368416E64446576656C6F706D656E7400000000000000000000 DUP2 MSTORE POP PUSH1 0x20 ADD SWAP3 POP POP POP PUSH1 0x40 MLOAD DUP1 SWAP2 SUB SWAP1 LOG1 JUMPDEST PUSH1 0x0 PUSH20 0xFFFFFFFFFFFFFFFFFFFFFFFFFFFFFFFFFFFFFFFF AND DUP3 PUSH1 0x6 PUSH1 0x9 DUP2 LT PUSH2 0x2C6F JUMPI INVALID JUMPDEST PUSH1 0x20 MUL ADD CALLDATALOAD PUSH20 0xFFFFFFFFFFFFFFFFFFFFFFFFFFFFFFFFFFFFFFFF AND PUSH20 0xFFFFFFFFFFFFFFFFFFFFFFFFFFFFFFFFFFFFFFFF AND EQ ISZERO DUP1 ISZERO PUSH2 0x2CFC JUMPI POP PUSH1 0x0 PUSH20 0xFFFFFFFFFFFFFFFFFFFFFFFFFFFFFFFFFFFFFFFF AND PUSH1 0xE PUSH1 0x0 SWAP1 SLOAD SWAP1 PUSH2 0x100 EXP SWAP1 DIV PUSH20 0xFFFFFFFFFFFFFFFFFFFFFFFFFFFFFFFFFFFFFFFF AND PUSH20 0xFFFFFFFFFFFFFFFFFFFFFFFFFFFFFFFFFFFFFFFF AND EQ JUMPDEST ISZERO PUSH2 0x2E28 JUMPI DUP2 PUSH1 0x6 PUSH1 0x9 DUP2 LT PUSH2 0x2D0E JUMPI INVALID JUMPDEST PUSH1 0x20 MUL ADD CALLDATALOAD PUSH20 0xFFFFFFFFFFFFFFFFFFFFFFFFFFFFFFFFFFFFFFFF AND PUSH1 0xE PUSH1 0x0 PUSH2 0x100 EXP DUP2 SLOAD DUP2 PUSH20 0xFFFFFFFFFFFFFFFFFFFFFFFFFFFFFFFFFFFFFFFF MUL NOT AND SWAP1 DUP4 PUSH20 0xFFFFFFFFFFFFFFFFFFFFFFFFFFFFFFFFFFFFFFFF AND MUL OR SWAP1 SSTORE POP PUSH32 0x12FB0C5ABBA542BF97C53EECC4EBE59D9BA7AD563247ED305F002ADA0291D60F PUSH1 0xE PUSH1 0x0 SWAP1 SLOAD SWAP1 PUSH2 0x100 EXP SWAP1 DIV PUSH20 0xFFFFFFFFFFFFFFFFFFFFFFFFFFFFFFFFFFFFFFFF AND PUSH1 0x40 MLOAD DUP1 DUP1 PUSH1 0x20 ADD DUP4 PUSH20 0xFFFFFFFFFFFFFFFFFFFFFFFFFFFFFFFFFFFFFFFF AND PUSH20 0xFFFFFFFFFFFFFFFFFFFFFFFFFFFFFFFFFFFFFFFF AND DUP2 MSTORE PUSH1 0x20 ADD DUP3 DUP2 SUB DUP3 MSTORE PUSH1 0xA DUP2 MSTORE PUSH1 0x20 ADD DUP1 PUSH32 0x506F776572546F6B656E00000000000000000000000000000000000000000000 DUP2 MSTORE POP PUSH1 0x20 ADD SWAP3 POP POP POP PUSH1 0x40 MLOAD DUP1 SWAP2 SUB SWAP1 LOG1 JUMPDEST PUSH1 0x0 PUSH20 0xFFFFFFFFFFFFFFFFFFFFFFFFFFFFFFFFFFFFFFFF AND DUP3 PUSH1 0x7 PUSH1 0x9 DUP2 LT PUSH2 0x2E4D JUMPI INVALID JUMPDEST PUSH1 0x20 MUL ADD CALLDATALOAD PUSH20 0xFFFFFFFFFFFFFFFFFFFFFFFFFFFFFFFFFFFFFFFF AND PUSH20 0xFFFFFFFFFFFFFFFFFFFFFFFFFFFFFFFFFFFFFFFF AND EQ ISZERO DUP1 ISZERO PUSH2 0x2EDA JUMPI POP PUSH1 0x0 PUSH20 0xFFFFFFFFFFFFFFFFFFFFFFFFFFFFFFFFFFFFFFFF AND PUSH1 0xF PUSH1 0x0 SWAP1 SLOAD SWAP1 PUSH2 0x100 EXP SWAP1 DIV PUSH20 0xFFFFFFFFFFFFFFFFFFFFFFFFFFFFFFFFFFFFFFFF AND PUSH20 0xFFFFFFFFFFFFFFFFFFFFFFFFFFFFFFFFFFFFFFFF AND EQ JUMPDEST ISZERO PUSH2 0x3006 JUMPI DUP2 PUSH1 0x7 PUSH1 0x9 DUP2 LT PUSH2 0x2EEC JUMPI INVALID JUMPDEST PUSH1 0x20 MUL ADD CALLDATALOAD PUSH20 0xFFFFFFFFFFFFFFFFFFFFFFFFFFFFFFFFFFFFFFFF AND PUSH1 0xF PUSH1 0x0 PUSH2 0x100 EXP DUP2 SLOAD DUP2 PUSH20 0xFFFFFFFFFFFFFFFFFFFFFFFFFFFFFFFFFFFFFFFF MUL NOT AND SWAP1 DUP4 PUSH20 0xFFFFFFFFFFFFFFFFFFFFFFFFFFFFFFFFFFFFFFFF AND MUL OR SWAP1 SSTORE POP PUSH32 0x12FB0C5ABBA542BF97C53EECC4EBE59D9BA7AD563247ED305F002ADA0291D60F PUSH1 0xF PUSH1 0x0 SWAP1 SLOAD SWAP1 PUSH2 0x100 EXP SWAP1 DIV PUSH20 0xFFFFFFFFFFFFFFFFFFFFFFFFFFFFFFFFFFFFFFFF AND PUSH1 0x40 MLOAD DUP1 DUP1 PUSH1 0x20 ADD DUP4 PUSH20 0xFFFFFFFFFFFFFFFFFFFFFFFFFFFFFFFFFFFFFFFF AND PUSH20 0xFFFFFFFFFFFFFFFFFFFFFFFFFFFFFFFFFFFFFFFF AND DUP2 MSTORE PUSH1 0x20 ADD DUP3 DUP2 SUB DUP3 MSTORE PUSH1 0xB DUP2 MSTORE PUSH1 0x20 ADD DUP1 PUSH32 0x54696D6553776170706572000000000000000000000000000000000000000000 DUP2 MSTORE POP PUSH1 0x20 ADD SWAP3 POP POP POP PUSH1 0x40 MLOAD DUP1 SWAP2 SUB SWAP1 LOG1 JUMPDEST PUSH1 0x0 PUSH20 0xFFFFFFFFFFFFFFFFFFFFFFFFFFFFFFFFFFFFFFFF AND DUP3 PUSH1 0x8 PUSH1 0x9 DUP2 LT PUSH2 0x302B JUMPI INVALID JUMPDEST PUSH1 0x20 MUL ADD CALLDATALOAD PUSH20 0xFFFFFFFFFFFFFFFFFFFFFFFFFFFFFFFFFFFFFFFF AND PUSH20 0xFFFFFFFFFFFFFFFFFFFFFFFFFFFFFFFFFFFFFFFF AND EQ ISZERO DUP1 ISZERO PUSH2 0x30B8 JUMPI POP PUSH1 0x0 PUSH20 0xFFFFFFFFFFFFFFFFFFFFFFFFFFFFFFFFFFFFFFFF AND PUSH1 0x10 PUSH1 0x0 SWAP1 SLOAD SWAP1 PUSH2 0x100 EXP SWAP1 DIV PUSH20 0xFFFFFFFFFFFFFFFFFFFFFFFFFFFFFFFFFFFFFFFF AND PUSH20 0xFFFFFFFFFFFFFFFFFFFFFFFFFFFFFFFFFFFFFFFF AND EQ JUMPDEST ISZERO PUSH2 0x31E4 JUMPI DUP2 PUSH1 0x8 PUSH1 0x9 DUP2 LT PUSH2 0x30CA JUMPI INVALID JUMPDEST PUSH1 0x20 MUL ADD CALLDATALOAD PUSH20 0xFFFFFFFFFFFFFFFFFFFFFFFFFFFFFFFFFFFFFFFF AND PUSH1 0x10 PUSH1 0x0 PUSH2 0x100 EXP DUP2 SLOAD DUP2 PUSH20 0xFFFFFFFFFFFFFFFFFFFFFFFFFFFFFFFFFFFFFFFF MUL NOT AND SWAP1 DUP4 PUSH20 0xFFFFFFFFFFFFFFFFFFFFFFFFFFFFFFFFFFFFFFFF AND MUL OR SWAP1 SSTORE POP PUSH32 0x12FB0C5ABBA542BF97C53EECC4EBE59D9BA7AD563247ED305F002ADA0291D60F PUSH1 0x10 PUSH1 0x0 SWAP1 SLOAD SWAP1 PUSH2 0x100 EXP SWAP1 DIV PUSH20 0xFFFFFFFFFFFFFFFFFFFFFFFFFFFFFFFFFFFFFFFF AND PUSH1 0x40 MLOAD DUP1 DUP1 PUSH1 0x20 ADD DUP4 PUSH20 0xFFFFFFFFFFFFFFFFFFFFFFFFFFFFFFFFFFFFFFFF AND PUSH20 0xFFFFFFFFFFFFFFFFFFFFFFFFFFFFFFFFFFFFFFFF AND DUP2 MSTORE PUSH1 0x20 ADD DUP3 DUP2 SUB DUP3 MSTORE PUSH1 0x8 DUP2 MSTORE PUSH1 0x20 ADD DUP1 PUSH32 0x54696D65416C6C79000000000000000000000000000000000000000000000000 DUP2 MSTORE POP PUSH1 0x20 ADD SWAP3 POP POP POP PUSH1 0x40 MLOAD DUP1 SWAP2 SUB SWAP1 LOG1 JUMPDEST PUSH1 0x1 SWAP1 POP SWAP2 SWAP1 POP JUMP JUMPDEST PUSH1 0x13 SLOAD DUP2 JUMP JUMPDEST PUSH1 0x11 SLOAD DUP2 JUMP JUMPDEST PUSH1 0x0 DUP1 DUP3 DUP5 ADD SWAP1 POP DUP4 DUP2 LT ISZERO PUSH2 0x320E JUMPI PUSH1 0x0 DUP1 REVERT JUMPDEST DUP1 SWAP2 POP POP SWAP3 SWAP2 POP POP JUMP JUMPDEST PUSH1 0x0 DUP3 DUP3 GT ISZERO PUSH2 0x3227 JUMPI PUSH1 0x0 DUP1 REVERT JUMPDEST PUSH1 0x0 DUP3 DUP5 SUB SWAP1 POP DUP1 SWAP2 POP POP SWAP3 SWAP2 POP POP JUMP JUMPDEST PUSH1 0x0 DUP1 DUP4 EQ ISZERO PUSH2 0x324B JUMPI PUSH1 0x0 SWAP1 POP PUSH2 0x326C JUMP JUMPDEST PUSH1 0x0 DUP3 DUP5 MUL SWAP1 POP DUP3 DUP5 DUP3 DUP2 PUSH2 0x325C JUMPI INVALID JUMPDEST DIV EQ PUSH2 0x3267 JUMPI PUSH1 0x0 DUP1 REVERT JUMPDEST DUP1 SWAP2 POP POP JUMPDEST SWAP3 SWAP2 POP POP JUMP JUMPDEST PUSH1 0x0 DUP1 DUP3 GT PUSH2 0x3280 JUMPI PUSH1 0x0 DUP1 REVERT JUMPDEST PUSH1 0x0 DUP3 DUP5 DUP2 PUSH2 0x328B JUMPI INVALID JUMPDEST DIV SWAP1 POP DUP1 SWAP2 POP POP SWAP3 SWAP2 POP POP JUMP JUMPDEST PUSH1 0x0 DUP1 PUSH1 0x5 SLOAD EQ ISZERO PUSH2 0x32AD JUMPI PUSH1 0x1 SWAP1 POP PUSH2 0x34CE JUMP JUMPDEST PUSH1 0x0 PUSH2 0x3378 PUSH1 0x64 PUSH2 0x336A PUSH1 0x2 PUSH1 0x6 PUSH1 0x0 SWAP1 SLOAD SWAP1 PUSH2 0x100 EXP SWAP1 DIV PUSH20 0xFFFFFFFFFFFFFFFFFFFFFFFFFFFFFFFFFFFFFFFF AND PUSH20 0xFFFFFFFFFFFFFFFFFFFFFFFFFFFFFFFFFFFFFFFF AND PUSH4 0x18160DDD PUSH1 0x40 MLOAD DUP2 PUSH4 0xFFFFFFFF AND PUSH1 0xE0 SHL DUP2 MSTORE PUSH1 0x4 ADD PUSH1 0x20 PUSH1 0x40 MLOAD DUP1 DUP4 SUB DUP2 DUP7 DUP1 EXTCODESIZE ISZERO DUP1 ISZERO PUSH2 0x3321 JUMPI PUSH1 0x0 DUP1 REVERT JUMPDEST POP GAS STATICCALL ISZERO DUP1 ISZERO PUSH2 0x3335 JUMPI RETURNDATASIZE PUSH1 0x0 DUP1 RETURNDATACOPY RETURNDATASIZE PUSH1 0x0 REVERT JUMPDEST POP POP POP POP PUSH1 0x40 MLOAD RETURNDATASIZE PUSH1 0x20 DUP2 LT ISZERO PUSH2 0x334B JUMPI PUSH1 0x0 DUP1 REVERT JUMPDEST DUP2 ADD SWAP1 DUP1 DUP1 MLOAD SWAP1 PUSH1 0x20 ADD SWAP1 SWAP3 SWAP2 SWAP1 POP POP POP PUSH2 0x3238 SWAP1 SWAP2 SWAP1 PUSH4 0xFFFFFFFF AND JUMP JUMPDEST PUSH2 0x3272 SWAP1 SWAP2 SWAP1 PUSH4 0xFFFFFFFF AND JUMP JUMPDEST SWAP1 POP PUSH1 0x5 SLOAD DUP2 LT PUSH2 0x341F JUMPI PUSH1 0x6 PUSH1 0x0 SWAP1 SLOAD SWAP1 PUSH2 0x100 EXP SWAP1 DIV PUSH20 0xFFFFFFFFFFFFFFFFFFFFFFFFFFFFFFFFFFFFFFFF AND PUSH20 0xFFFFFFFFFFFFFFFFFFFFFFFFFFFFFFFFFFFFFFFF AND PUSH4 0x42966C68 PUSH1 0x5 SLOAD PUSH1 0x40 MLOAD DUP3 PUSH4 0xFFFFFFFF AND PUSH1 0xE0 SHL DUP2 MSTORE PUSH1 0x4 ADD DUP1 DUP3 DUP2 MSTORE PUSH1 0x20 ADD SWAP2 POP POP PUSH1 0x0 PUSH1 0x40 MLOAD DUP1 DUP4 SUB DUP2 PUSH1 0x0 DUP8 DUP1 EXTCODESIZE ISZERO DUP1 ISZERO PUSH2 0x33FA JUMPI PUSH1 0x0 DUP1 REVERT JUMPDEST POP GAS CALL ISZERO DUP1 ISZERO PUSH2 0x340E JUMPI RETURNDATASIZE PUSH1 0x0 DUP1 RETURNDATACOPY RETURNDATASIZE PUSH1 0x0 REVERT JUMPDEST POP POP POP POP PUSH1 0x0 PUSH1 0x5 DUP2 SWAP1 SSTORE POP PUSH2 0x34C8 JUMP JUMPDEST PUSH2 0x3434 DUP2 PUSH1 0x5 SLOAD PUSH2 0x3218 SWAP1 SWAP2 SWAP1 PUSH4 0xFFFFFFFF AND JUMP JUMPDEST PUSH1 0x5 DUP2 SWAP1 SSTORE POP PUSH1 0x6 PUSH1 0x0 SWAP1 SLOAD SWAP1 PUSH2 0x100 EXP SWAP1 DIV PUSH20 0xFFFFFFFFFFFFFFFFFFFFFFFFFFFFFFFFFFFFFFFF AND PUSH20 0xFFFFFFFFFFFFFFFFFFFFFFFFFFFFFFFFFFFFFFFF AND PUSH4 0x42966C68 DUP3 PUSH1 0x40 MLOAD DUP3 PUSH4 0xFFFFFFFF AND PUSH1 0xE0 SHL DUP2 MSTORE PUSH1 0x4 ADD DUP1 DUP3 DUP2 MSTORE PUSH1 0x20 ADD SWAP2 POP POP PUSH1 0x0 PUSH1 0x40 MLOAD DUP1 DUP4 SUB DUP2 PUSH1 0x0 DUP8 DUP1 EXTCODESIZE ISZERO DUP1 ISZERO PUSH2 0x34AF JUMPI PUSH1 0x0 DUP1 REVERT JUMPDEST POP GAS CALL ISZERO DUP1 ISZERO PUSH2 0x34C3 JUMPI RETURNDATASIZE PUSH1 0x0 DUP1 RETURNDATACOPY RETURNDATASIZE PUSH1 0x0 REVERT JUMPDEST POP POP POP POP JUMPDEST PUSH1 0x1 SWAP2 POP POP JUMPDEST SWAP1 JUMP INVALID 0x4f PUSH15 0x6C792054696D65416C6C7920616E64 KECCAK256 SLOAD PUSH10 0x6D657377617070657220 PUSH10 0x7320617574686F726973 PUSH6 0x644E52542072 PUSH6 0x6C6561736520 PUSH9 0x617070656E73206F6E PUSH4 0x65206576 PUSH6 0x7279206D6F6E PUSH21 0x68A265627A7A723058209B4190896B8B780B1E557A 0xf8 RETURNDATACOPY 0xe7 SGT PUSH8 0xCA0D1651B9955898 DUP6 RETURN SMOD 0xc9 0x24 0x49 STOP 0x2d PUSH5 0x736F6C6343 STOP SDIV EXP STOP ORIGIN "},"gasEstimates":{"creation":{"codeDepositCost":"2730600","executionCost":"infinite","totalCost":"infinite"},"external":{"MonthlyNRTRelease()":"infinite","UpdateAddresses(address[9])":"206010","UpdateBurnBal(uint256)":"infinite","UpdateLuckpool(uint256)":"infinite","annualNRTAmount()":"450","burnTokenBal()":"473","contingencyFunds()":"500","contingencyFundsBal()":"472","kmPards()":"564","kmPardsBal()":"451","lastNRTRelease()":"495","luckPoolBal()":"449","marketingAndRNR()":"543","marketingAndRNRBal()":"493","monthCount()":"474","monthlyNRTAmount()":"494","newTalentsAndPartnerships()":"544","newTalentsAndPartnershipsBal()":"515","platformMaintenance()":"543","platformMaintenanceBal()":"472","powerToken()":"542","powerTokenNRT()":"473","researchAndDevelopment()":"498","researchAndDevelopmentBal()":"472","timeAlly()":"499","timeAllyNRT()":"517","timeSwappers()":"564","timeSwappersNRT()":"494"},"internal":{"burnTokens()":"infinite"}},"methodIdentifiers":{"MonthlyNRTRelease()":"b018abbd","UpdateAddresses(address[9])":"cb358efa","UpdateBurnBal(uint256)":"41aaa9b6","UpdateLuckpool(uint256)":"382e2aab","annualNRTAmount()":"7b8c0b79","burnTokenBal()":"4a4581aa","contingencyFunds()":"0b3e29b8","contingencyFundsBal()":"5f7ce89f","kmPards()":"65c00470","kmPardsBal()":"2cfceb07","lastNRTRelease()":"797d123c","luckPoolBal()":"c3348a8b","marketingAndRNR()":"51bd70b1","marketingAndRNRBal()":"d37eb950","monthCount()":"0d4e57a4","monthlyNRTAmount()":"6037d2a3","newTalentsAndPartnerships()":"26b3bf2f","newTalentsAndPartnershipsBal()":"e71a3bfd","platformMaintenance()":"3a18a9fd","platformMaintenanceBal()":"bd27d361","powerToken()":"9662ac58","powerTokenNRT()":"6db42ca5","researchAndDevelopment()":"5c12278d","researchAndDevelopmentBal()":"7d53257a","timeAlly()":"682667a9","timeAllyNRT()":"3e04f4f9","timeSwappers()":"9cd417de","timeSwappersNRT()":"bfb3d6c8"}},"userdoc":{"methods":{}}}