{"abi":[{"inputs":[{"internalType":"contract ERC20","name":"_token","type":"address"}],"stateMutability":"nonpayable","type":"constructor"},{"inputs":[{"internalType":"uint256","name":"_amount","type":"uint256"}],"name":"addToPrepaid","outputs":[],"stateMutability":"nonpayable","type":"function"},{"inputs":[{"internalType":"address","name":"_stakerAddress","type":"address"},{"internalType":"uint256","name":"_petId","type":"uint256"}],"name":"calculatePowerBoosterAmount","outputs":[{"internalType":"uint256","name":"","type":"uint256"}],"stateMutability":"view","type":"function"},{"inputs":[{"internalType":"uint256","name":"_minimumMonthlyCommitmentAmount","type":"uint256"},{"internalType":"uint256","name":"_monthlyBenefitFactorPerThousand","type":"uint256"}],"name":"createPETPlan","outputs":[],"stateMutability":"nonpayable","type":"function"},{"inputs":[],"name":"fundsBucket","outputs":[{"internalType":"address","name":"","type":"address"}],"stateMutability":"view","type":"function"},{"inputs":[{"internalType":"address","name":"_stakerAddress","type":"address"},{"internalType":"uint256","name":"_petId","type":"uint256"}],"name":"getDepositMonth","outputs":[{"internalType":"uint256","name":"","type":"uint256"}],"stateMutability":"view","type":"function"},{"inputs":[{"internalType":"address","name":"_stakerAddress","type":"address"},{"internalType":"uint256","name":"_petId","type":"uint256"},{"internalType":"uint256","name":"_monthId","type":"uint256"}],"name":"getMonthlyDepositedAmount","outputs":[{"internalType":"uint256","name":"","type":"uint256"}],"stateMutability":"view","type":"function"},{"inputs":[{"internalType":"address","name":"_stakerAddress","type":"address"},{"internalType":"uint256","name":"_petId","type":"uint256"},{"internalType":"uint256","name":"_startAnnuityMonthId","type":"uint256"},{"internalType":"uint256","name":"_endAnnuityMonthId","type":"uint256"}],"name":"getSumOfMonthlyAnnuity","outputs":[{"internalType":"uint256","name":"","type":"uint256"}],"stateMutability":"view","type":"function"},{"inputs":[{"internalType":"address","name":"_stakerAddress","type":"address"},{"internalType":"uint256","name":"_petId","type":"uint256"},{"internalType":"uint256","name":"_depositAmount","type":"uint256"},{"internalType":"bool","name":"_usePrepaidES","type":"bool"}],"name":"makeDeposit","outputs":[],"stateMutability":"nonpayable","type":"function"},{"inputs":[{"internalType":"uint256","name":"_planId","type":"uint256"}],"name":"newPET","outputs":[],"stateMutability":"nonpayable","type":"function"},{"inputs":[],"name":"owner","outputs":[{"internalType":"address","name":"","type":"address"}],"stateMutability":"view","type":"function"},{"inputs":[{"internalType":"uint256","name":"","type":"uint256"}],"name":"petPlans","outputs":[{"internalType":"bool","name":"isPlanActive","type":"bool"},{"internalType":"uint256","name":"minimumMonthlyCommitmentAmount","type":"uint256"},{"internalType":"uint256","name":"monthlyBenefitFactorPerThousand","type":"uint256"}],"stateMutability":"view","type":"function"},{"inputs":[{"internalType":"address","name":"","type":"address"},{"internalType":"uint256","name":"","type":"uint256"}],"name":"pets","outputs":[{"internalType":"uint256","name":"planId","type":"uint256"},{"internalType":"uint256","name":"initTimestamp","type":"uint256"},{"internalType":"uint256","name":"lastAnnuityWithdrawlMonthId","type":"uint256"},{"internalType":"uint256","name":"appointeeVotes","type":"uint256"},{"internalType":"uint256","name":"numberOfAppointees","type":"uint256"}],"stateMutability":"view","type":"function"},{"inputs":[{"internalType":"address","name":"","type":"address"}],"name":"prepaidES","outputs":[{"internalType":"uint256","name":"","type":"uint256"}],"stateMutability":"view","type":"function"},{"inputs":[{"internalType":"address[]","name":"_addresses","type":"address[]"},{"internalType":"uint256[]","name":"_amounts","type":"uint256[]"}],"name":"sendPrepaidESDifferent","outputs":[],"stateMutability":"nonpayable","type":"function"},{"inputs":[],"name":"token","outputs":[{"internalType":"contract ERC20","name":"","type":"address"}],"stateMutability":"view","type":"function"},{"inputs":[{"internalType":"address","name":"_stakerAddress","type":"address"},{"internalType":"uint256","name":"_petId","type":"uint256"},{"internalType":"uint256","name":"_endAnnuityMonthId","type":"uint256"}],"name":"withdrawAnnuity","outputs":[],"stateMutability":"nonpayable","type":"function"},{"inputs":[{"internalType":"address","name":"_stakerAddress","type":"address"},{"internalType":"uint256","name":"_petId","type":"uint256"},{"internalType":"uint256","name":"_powerBoosterId","type":"uint256"}],"name":"withdrawPowerBooster","outputs":[],"stateMutability":"nonpayable","type":"function"}],"devdoc":{"methods":{}},"evm":{"assembly":"    /* \"TimeAllyPET.sol\":920:12569  contract TimeAllyPET {... */\n  mstore(0x40, 0x80)\n    /* \"TimeAllyPET.sol\":2233:2382  constructor(ERC20 _token) public {... */\n  callvalue\n    /* \"--CODEGEN--\":8:17   */\n  dup1\n    /* \"--CODEGEN--\":5:7   */\n  iszero\n  tag_1\n  jumpi\n    /* \"--CODEGEN--\":30:31   */\n  0x00\n    /* \"--CODEGEN--\":27:28   */\n  dup1\n    /* \"--CODEGEN--\":20:32   */\n  revert\n    /* \"--CODEGEN--\":5:7   */\ntag_1:\n    /* \"TimeAllyPET.sol\":2233:2382  constructor(ERC20 _token) public {... */\n  pop\n  mload(0x40)\n  sub(codesize, bytecodeSize)\n  dup1\n  bytecodeSize\n  dup4\n  codecopy\n  dup2\n  dup2\n  add\n  0x40\n  mstore\n    /* \"--CODEGEN--\":13:15   */\n  0x20\n    /* \"--CODEGEN--\":8:11   */\n  dup2\n    /* \"--CODEGEN--\":5:16   */\n  lt\n    /* \"--CODEGEN--\":2:4   */\n  iszero\n  tag_2\n  jumpi\n    /* \"--CODEGEN--\":29:30   */\n  0x00\n    /* \"--CODEGEN--\":26:27   */\n  dup1\n    /* \"--CODEGEN--\":19:31   */\n  revert\n    /* \"--CODEGEN--\":2:4   */\ntag_2:\n    /* \"TimeAllyPET.sol\":2233:2382  constructor(ERC20 _token) public {... */\n  dup2\n  add\n  swap1\n  dup1\n  dup1\n  mload\n  swap1\n  0x20\n  add\n  swap1\n  swap3\n  swap2\n  swap1\n  pop\n  pop\n  pop\n    /* \"TimeAllyPET.sol\":2280:2290  msg.sender */\n  caller\n    /* \"TimeAllyPET.sol\":2272:2277  owner */\n  0x00\n  dup1\n    /* \"TimeAllyPET.sol\":2272:2290  owner = msg.sender */\n  0x0100\n  exp\n  dup2\n  sload\n  dup2\n  0xffffffffffffffffffffffffffffffffffffffff\n  mul\n  not\n  and\n  swap1\n  dup4\n  0xffffffffffffffffffffffffffffffffffffffff\n  and\n  mul\n  or\n  swap1\n  sstore\n  pop\n    /* \"TimeAllyPET.sol\":2304:2310  _token */\n  dup1\n    /* \"TimeAllyPET.sol\":2296:2301  token */\n  0x02\n  0x00\n    /* \"TimeAllyPET.sol\":2296:2310  token = _token */\n  0x0100\n  exp\n  dup2\n  sload\n  dup2\n  0xffffffffffffffffffffffffffffffffffffffff\n  mul\n  not\n  and\n  swap1\n  dup4\n  0xffffffffffffffffffffffffffffffffffffffff\n  and\n  mul\n  or\n  swap1\n  sstore\n  pop\n    /* \"TimeAllyPET.sol\":2357:2363  _token */\n  dup1\n    /* \"TimeAllyPET.sol\":2365:2375  msg.sender */\n  caller\n    /* \"TimeAllyPET.sol\":2338:2376  new FundsBucketPET(_token, msg.sender) */\n  mload(0x40)\n  tag_5\n  swap1\n  tag_6\n  jump\t// in\ntag_5:\n  dup1\n  dup4\n  0xffffffffffffffffffffffffffffffffffffffff\n  and\n  0xffffffffffffffffffffffffffffffffffffffff\n  and\n  dup2\n  mstore\n  0x20\n  add\n  dup3\n  0xffffffffffffffffffffffffffffffffffffffff\n  and\n  0xffffffffffffffffffffffffffffffffffffffff\n  and\n  dup2\n  mstore\n  0x20\n  add\n  swap3\n  pop\n  pop\n  pop\n  mload(0x40)\n  dup1\n  swap2\n  sub\n  swap1\n  0x00\n  create\n  dup1\n  iszero\n    /* \"--CODEGEN--\":8:17   */\n  dup1\n    /* \"--CODEGEN--\":5:7   */\n  iszero\n  tag_7\n  jumpi\n    /* \"--CODEGEN--\":45:61   */\n  returndatasize\n    /* \"--CODEGEN--\":42:43   */\n  0x00\n    /* \"--CODEGEN--\":39:40   */\n  dup1\n    /* \"--CODEGEN--\":24:62   */\n  returndatacopy\n    /* \"--CODEGEN--\":77:93   */\n  returndatasize\n    /* \"--CODEGEN--\":74:75   */\n  0x00\n    /* \"--CODEGEN--\":67:94   */\n  revert\n    /* \"--CODEGEN--\":5:7   */\ntag_7:\n    /* \"TimeAllyPET.sol\":2338:2376  new FundsBucketPET(_token, msg.sender) */\n  pop\n    /* \"TimeAllyPET.sol\":2316:2327  fundsBucket */\n  0x01\n  0x00\n    /* \"TimeAllyPET.sol\":2316:2377  fundsBucket = address(new FundsBucketPET(_token, msg.sender)) */\n  0x0100\n  exp\n  dup2\n  sload\n  dup2\n  0xffffffffffffffffffffffffffffffffffffffff\n  mul\n  not\n  and\n  swap1\n  dup4\n  0xffffffffffffffffffffffffffffffffffffffff\n  and\n  mul\n  or\n  swap1\n  sstore\n  pop\n    /* \"TimeAllyPET.sol\":2233:2382  constructor(ERC20 _token) public {... */\n  pop\n    /* \"TimeAllyPET.sol\":920:12569  contract TimeAllyPET {... */\n  jump(tag_8)\ntag_6:\n  dataSize(sub_1)\n  dup1\n  dataOffset(sub_1)\n  dup4\n  codecopy\n  add\n  swap1\n  jump\t// out\ntag_8:\n  dataSize(sub_0)\n  dup1\n  dataOffset(sub_0)\n  0x00\n  codecopy\n  0x00\n  return\nstop\n\nsub_0: assembly {\n        /* \"TimeAllyPET.sol\":920:12569  contract TimeAllyPET {... */\n      mstore(0x40, 0x80)\n      callvalue\n        /* \"--CODEGEN--\":8:17   */\n      dup1\n        /* \"--CODEGEN--\":5:7   */\n      iszero\n      tag_1\n      jumpi\n        /* \"--CODEGEN--\":30:31   */\n      0x00\n        /* \"--CODEGEN--\":27:28   */\n      dup1\n        /* \"--CODEGEN--\":20:32   */\n      revert\n        /* \"--CODEGEN--\":5:7   */\n    tag_1:\n        /* \"TimeAllyPET.sol\":920:12569  contract TimeAllyPET {... */\n      pop\n      jumpi(tag_2, lt(calldatasize, 0x04))\n      shr(0xe0, calldataload(0x00))\n      dup1\n      0x47626531\n      gt\n      tag_20\n      jumpi\n      dup1\n      0x9baf14d4\n      gt\n      tag_21\n      jumpi\n      dup1\n      0x9baf14d4\n      eq\n      tag_15\n      jumpi\n      dup1\n      0xdc2c03ef\n      eq\n      tag_16\n      jumpi\n      dup1\n      0xf713c79e\n      eq\n      tag_17\n      jumpi\n      dup1\n      0xfb0685df\n      eq\n      tag_18\n      jumpi\n      dup1\n      0xfc0c546a\n      eq\n      tag_19\n      jumpi\n      jump(tag_2)\n    tag_21:\n      dup1\n      0x47626531\n      eq\n      tag_11\n      jumpi\n      dup1\n      0x51a6349d\n      eq\n      tag_12\n      jumpi\n      dup1\n      0x8da5cb5b\n      eq\n      tag_13\n      jumpi\n      dup1\n      0x95a0373c\n      eq\n      tag_14\n      jumpi\n      jump(tag_2)\n    tag_20:\n      dup1\n      0x3ee20a89\n      gt\n      tag_22\n      jumpi\n      dup1\n      0x3ee20a89\n      eq\n      tag_7\n      jumpi\n      dup1\n      0x3fd46068\n      eq\n      tag_8\n      jumpi\n      dup1\n      0x452f1423\n      eq\n      tag_9\n      jumpi\n      dup1\n      0x45b37ec4\n      eq\n      tag_10\n      jumpi\n      jump(tag_2)\n    tag_22:\n      dup1\n      0x0c254d63\n      eq\n      tag_3\n      jumpi\n      dup1\n      0x1fdae4b8\n      eq\n      tag_4\n      jumpi\n      dup1\n      0x26f8bea7\n      eq\n      tag_5\n      jumpi\n      dup1\n      0x37482ef1\n      eq\n      tag_6\n      jumpi\n    tag_2:\n      0x00\n      dup1\n      revert\n        /* \"TimeAllyPET.sol\":5105:6550  function makeDeposit(... */\n    tag_3:\n      tag_23\n      0x04\n      dup1\n      calldatasize\n      sub\n        /* \"--CODEGEN--\":13:16   */\n      0x80\n        /* \"--CODEGEN--\":8:11   */\n      dup2\n        /* \"--CODEGEN--\":5:17   */\n      lt\n        /* \"--CODEGEN--\":2:4   */\n      iszero\n      tag_24\n      jumpi\n        /* \"--CODEGEN--\":30:31   */\n      0x00\n        /* \"--CODEGEN--\":27:28   */\n      dup1\n        /* \"--CODEGEN--\":20:32   */\n      revert\n        /* \"--CODEGEN--\":2:4   */\n    tag_24:\n        /* \"TimeAllyPET.sol\":5105:6550  function makeDeposit(... */\n      dup2\n      add\n      swap1\n      dup1\n      dup1\n      calldataload\n      0xffffffffffffffffffffffffffffffffffffffff\n      and\n      swap1\n      0x20\n      add\n      swap1\n      swap3\n      swap2\n      swap1\n      dup1\n      calldataload\n      swap1\n      0x20\n      add\n      swap1\n      swap3\n      swap2\n      swap1\n      dup1\n      calldataload\n      swap1\n      0x20\n      add\n      swap1\n      swap3\n      swap2\n      swap1\n      dup1\n      calldataload\n      iszero\n      iszero\n      swap1\n      0x20\n      add\n      swap1\n      swap3\n      swap2\n      swap1\n      pop\n      pop\n      pop\n      tag_25\n      jump\t// in\n    tag_23:\n      stop\n        /* \"TimeAllyPET.sol\":3906:4108  function getDepositMonth(... */\n    tag_4:\n      tag_26\n      0x04\n      dup1\n      calldatasize\n      sub\n        /* \"--CODEGEN--\":13:15   */\n      0x40\n        /* \"--CODEGEN--\":8:11   */\n      dup2\n        /* \"--CODEGEN--\":5:16   */\n      lt\n        /* \"--CODEGEN--\":2:4   */\n      iszero\n      tag_27\n      jumpi\n        /* \"--CODEGEN--\":29:30   */\n      0x00\n        /* \"--CODEGEN--\":26:27   */\n      dup1\n        /* \"--CODEGEN--\":19:31   */\n      revert\n        /* \"--CODEGEN--\":2:4   */\n    tag_27:\n        /* \"TimeAllyPET.sol\":3906:4108  function getDepositMonth(... */\n      dup2\n      add\n      swap1\n      dup1\n      dup1\n      calldataload\n      0xffffffffffffffffffffffffffffffffffffffff\n      and\n      swap1\n      0x20\n      add\n      swap1\n      swap3\n      swap2\n      swap1\n      dup1\n      calldataload\n      swap1\n      0x20\n      add\n      swap1\n      swap3\n      swap2\n      swap1\n      pop\n      pop\n      pop\n      tag_28\n      jump\t// in\n    tag_26:\n      mload(0x40)\n      dup1\n      dup3\n      dup2\n      mstore\n      0x20\n      add\n      swap2\n      pop\n      pop\n      mload(0x40)\n      dup1\n      swap2\n      sub\n      swap1\n      return\n        /* \"TimeAllyPET.sol\":2386:2570  function addToPrepaid(uint256 _amount) public {... */\n    tag_5:\n      tag_29\n      0x04\n      dup1\n      calldatasize\n      sub\n        /* \"--CODEGEN--\":13:15   */\n      0x20\n        /* \"--CODEGEN--\":8:11   */\n      dup2\n        /* \"--CODEGEN--\":5:16   */\n      lt\n        /* \"--CODEGEN--\":2:4   */\n      iszero\n      tag_30\n      jumpi\n        /* \"--CODEGEN--\":29:30   */\n      0x00\n        /* \"--CODEGEN--\":26:27   */\n      dup1\n        /* \"--CODEGEN--\":19:31   */\n      revert\n        /* \"--CODEGEN--\":2:4   */\n    tag_30:\n        /* \"TimeAllyPET.sol\":2386:2570  function addToPrepaid(uint256 _amount) public {... */\n      dup2\n      add\n      swap1\n      dup1\n      dup1\n      calldataload\n      swap1\n      0x20\n      add\n      swap1\n      swap3\n      swap2\n      swap1\n      pop\n      pop\n      pop\n      tag_31\n      jump\t// in\n    tag_29:\n      stop\n        /* \"TimeAllyPET.sol\":8658:10023  function withdrawAnnuity(... */\n    tag_6:\n      tag_32\n      0x04\n      dup1\n      calldatasize\n      sub\n        /* \"--CODEGEN--\":13:15   */\n      0x60\n        /* \"--CODEGEN--\":8:11   */\n      dup2\n        /* \"--CODEGEN--\":5:16   */\n      lt\n        /* \"--CODEGEN--\":2:4   */\n      iszero\n      tag_33\n      jumpi\n        /* \"--CODEGEN--\":29:30   */\n      0x00\n        /* \"--CODEGEN--\":26:27   */\n      dup1\n        /* \"--CODEGEN--\":19:31   */\n      revert\n        /* \"--CODEGEN--\":2:4   */\n    tag_33:\n        /* \"TimeAllyPET.sol\":8658:10023  function withdrawAnnuity(... */\n      dup2\n      add\n      swap1\n      dup1\n      dup1\n      calldataload\n      0xffffffffffffffffffffffffffffffffffffffff\n      and\n      swap1\n      0x20\n      add\n      swap1\n      swap3\n      swap2\n      swap1\n      dup1\n      calldataload\n      swap1\n      0x20\n      add\n      swap1\n      swap3\n      swap2\n      swap1\n      dup1\n      calldataload\n      swap1\n      0x20\n      add\n      swap1\n      swap3\n      swap2\n      swap1\n      pop\n      pop\n      pop\n      tag_34\n      jump\t// in\n    tag_32:\n      stop\n        /* \"TimeAllyPET.sol\":1718:1755  mapping(address => PET[]) public pets */\n    tag_7:\n      tag_35\n      0x04\n      dup1\n      calldatasize\n      sub\n        /* \"--CODEGEN--\":13:15   */\n      0x40\n        /* \"--CODEGEN--\":8:11   */\n      dup2\n        /* \"--CODEGEN--\":5:16   */\n      lt\n        /* \"--CODEGEN--\":2:4   */\n      iszero\n      tag_36\n      jumpi\n        /* \"--CODEGEN--\":29:30   */\n      0x00\n        /* \"--CODEGEN--\":26:27   */\n      dup1\n        /* \"--CODEGEN--\":19:31   */\n      revert\n        /* \"--CODEGEN--\":2:4   */\n    tag_36:\n        /* \"TimeAllyPET.sol\":1718:1755  mapping(address => PET[]) public pets */\n      dup2\n      add\n      swap1\n      dup1\n      dup1\n      calldataload\n      0xffffffffffffffffffffffffffffffffffffffff\n      and\n      swap1\n      0x20\n      add\n      swap1\n      swap3\n      swap2\n      swap1\n      dup1\n      calldataload\n      swap1\n      0x20\n      add\n      swap1\n      swap3\n      swap2\n      swap1\n      pop\n      pop\n      pop\n      tag_37\n      jump\t// in\n    tag_35:\n      mload(0x40)\n      dup1\n      dup7\n      dup2\n      mstore\n      0x20\n      add\n      dup6\n      dup2\n      mstore\n      0x20\n      add\n      dup5\n      dup2\n      mstore\n      0x20\n      add\n      dup4\n      dup2\n      mstore\n      0x20\n      add\n      dup3\n      dup2\n      mstore\n      0x20\n      add\n      swap6\n      pop\n      pop\n      pop\n      pop\n      pop\n      pop\n      mload(0x40)\n      dup1\n      swap2\n      sub\n      swap1\n      return\n        /* \"TimeAllyPET.sol\":1492:1518  address public fundsBucket */\n    tag_8:\n      tag_38\n      tag_39\n      jump\t// in\n    tag_38:\n      mload(0x40)\n      dup1\n      dup3\n      0xffffffffffffffffffffffffffffffffffffffff\n      and\n      0xffffffffffffffffffffffffffffffffffffffff\n      and\n      dup2\n      mstore\n      0x20\n      add\n      swap2\n      pop\n      pop\n      mload(0x40)\n      dup1\n      swap2\n      sub\n      swap1\n      return\n        /* \"TimeAllyPET.sol\":10681:11394  function calculatePowerBoosterAmount(... */\n    tag_9:\n      tag_40\n      0x04\n      dup1\n      calldatasize\n      sub\n        /* \"--CODEGEN--\":13:15   */\n      0x40\n        /* \"--CODEGEN--\":8:11   */\n      dup2\n        /* \"--CODEGEN--\":5:16   */\n      lt\n        /* \"--CODEGEN--\":2:4   */\n      iszero\n      tag_41\n      jumpi\n        /* \"--CODEGEN--\":29:30   */\n      0x00\n        /* \"--CODEGEN--\":26:27   */\n      dup1\n        /* \"--CODEGEN--\":19:31   */\n      revert\n        /* \"--CODEGEN--\":2:4   */\n    tag_41:\n        /* \"TimeAllyPET.sol\":10681:11394  function calculatePowerBoosterAmount(... */\n      dup2\n      add\n      swap1\n      dup1\n      dup1\n      calldataload\n      0xffffffffffffffffffffffffffffffffffffffff\n      and\n      swap1\n      0x20\n      add\n      swap1\n      swap3\n      swap2\n      swap1\n      dup1\n      calldataload\n      swap1\n      0x20\n      add\n      swap1\n      swap3\n      swap2\n      swap1\n      pop\n      pop\n      pop\n      tag_42\n      jump\t// in\n    tag_40:\n      mload(0x40)\n      dup1\n      dup3\n      dup2\n      mstore\n      0x20\n      add\n      swap2\n      pop\n      pop\n      mload(0x40)\n      dup1\n      swap2\n      sub\n      swap1\n      return\n        /* \"TimeAllyPET.sol\":2895:3266  function createPETPlan(... */\n    tag_10:\n      tag_43\n      0x04\n      dup1\n      calldatasize\n      sub\n        /* \"--CODEGEN--\":13:15   */\n      0x40\n        /* \"--CODEGEN--\":8:11   */\n      dup2\n        /* \"--CODEGEN--\":5:16   */\n      lt\n        /* \"--CODEGEN--\":2:4   */\n      iszero\n      tag_44\n      jumpi\n        /* \"--CODEGEN--\":29:30   */\n      0x00\n        /* \"--CODEGEN--\":26:27   */\n      dup1\n        /* \"--CODEGEN--\":19:31   */\n      revert\n        /* \"--CODEGEN--\":2:4   */\n    tag_44:\n        /* \"TimeAllyPET.sol\":2895:3266  function createPETPlan(... */\n      dup2\n      add\n      swap1\n      dup1\n      dup1\n      calldataload\n      swap1\n      0x20\n      add\n      swap1\n      swap3\n      swap2\n      swap1\n      dup1\n      calldataload\n      swap1\n      0x20\n      add\n      swap1\n      swap3\n      swap2\n      swap1\n      pop\n      pop\n      pop\n      tag_45\n      jump\t// in\n    tag_43:\n      stop\n        /* \"TimeAllyPET.sol\":7206:8057  function getSumOfMonthlyAnnuity(... */\n    tag_11:\n      tag_46\n      0x04\n      dup1\n      calldatasize\n      sub\n        /* \"--CODEGEN--\":13:16   */\n      0x80\n        /* \"--CODEGEN--\":8:11   */\n      dup2\n        /* \"--CODEGEN--\":5:17   */\n      lt\n        /* \"--CODEGEN--\":2:4   */\n      iszero\n      tag_47\n      jumpi\n        /* \"--CODEGEN--\":30:31   */\n      0x00\n        /* \"--CODEGEN--\":27:28   */\n      dup1\n        /* \"--CODEGEN--\":20:32   */\n      revert\n        /* \"--CODEGEN--\":2:4   */\n    tag_47:\n        /* \"TimeAllyPET.sol\":7206:8057  function getSumOfMonthlyAnnuity(... */\n      dup2\n      add\n      swap1\n      dup1\n      dup1\n      calldataload\n      0xffffffffffffffffffffffffffffffffffffffff\n      and\n      swap1\n      0x20\n      add\n      swap1\n      swap3\n      swap2\n      swap1\n      dup1\n      calldataload\n      swap1\n      0x20\n      add\n      swap1\n      swap3\n      swap2\n      swap1\n      dup1\n      calldataload\n      swap1\n      0x20\n      add\n      swap1\n      swap3\n      swap2\n      swap1\n      dup1\n      calldataload\n      swap1\n      0x20\n      add\n      swap1\n      swap3\n      swap2\n      swap1\n      pop\n      pop\n      pop\n      tag_48\n      jump\t// in\n    tag_46:\n      mload(0x40)\n      dup1\n      dup3\n      dup2\n      mstore\n      0x20\n      add\n      swap2\n      pop\n      pop\n      mload(0x40)\n      dup1\n      swap2\n      sub\n      swap1\n      return\n        /* \"TimeAllyPET.sol\":2574:2891  function sendPrepaidESDifferent(... */\n    tag_12:\n      tag_49\n      0x04\n      dup1\n      calldatasize\n      sub\n        /* \"--CODEGEN--\":13:15   */\n      0x40\n        /* \"--CODEGEN--\":8:11   */\n      dup2\n        /* \"--CODEGEN--\":5:16   */\n      lt\n        /* \"--CODEGEN--\":2:4   */\n      iszero\n      tag_50\n      jumpi\n        /* \"--CODEGEN--\":29:30   */\n      0x00\n        /* \"--CODEGEN--\":26:27   */\n      dup1\n        /* \"--CODEGEN--\":19:31   */\n      revert\n        /* \"--CODEGEN--\":2:4   */\n    tag_50:\n        /* \"TimeAllyPET.sol\":2574:2891  function sendPrepaidESDifferent(... */\n      dup2\n      add\n      swap1\n      dup1\n      dup1\n      calldataload\n      swap1\n      0x20\n      add\n      swap1\n        /* \"--CODEGEN--\":21:32   */\n      0x0100000000\n        /* \"--CODEGEN--\":8:19   */\n      dup2\n        /* \"--CODEGEN--\":5:33   */\n      gt\n        /* \"--CODEGEN--\":2:4   */\n      iszero\n      tag_51\n      jumpi\n        /* \"--CODEGEN--\":46:47   */\n      0x00\n        /* \"--CODEGEN--\":43:44   */\n      dup1\n        /* \"--CODEGEN--\":36:48   */\n      revert\n        /* \"--CODEGEN--\":2:4   */\n    tag_51:\n        /* \"TimeAllyPET.sol\":2574:2891  function sendPrepaidESDifferent(... */\n      dup3\n      add\n        /* \"--CODEGEN--\":35:44   */\n      dup4\n        /* \"--CODEGEN--\":28:32   */\n      0x20\n        /* \"--CODEGEN--\":12:26   */\n      dup3\n        /* \"--CODEGEN--\":8:33   */\n      add\n        /* \"--CODEGEN--\":5:45   */\n      gt\n        /* \"--CODEGEN--\":2:4   */\n      iszero\n      tag_52\n      jumpi\n        /* \"--CODEGEN--\":58:59   */\n      0x00\n        /* \"--CODEGEN--\":55:56   */\n      dup1\n        /* \"--CODEGEN--\":48:60   */\n      revert\n        /* \"--CODEGEN--\":2:4   */\n    tag_52:\n        /* \"TimeAllyPET.sol\":2574:2891  function sendPrepaidESDifferent(... */\n      dup1\n      calldataload\n      swap1\n      0x20\n      add\n      swap2\n        /* \"--CODEGEN--\":101:110   */\n      dup5\n        /* \"--CODEGEN--\":95:97   */\n      0x20\n        /* \"--CODEGEN--\":81:93   */\n      dup4\n        /* \"--CODEGEN--\":77:98   */\n      mul\n        /* \"--CODEGEN--\":67:75   */\n      dup5\n        /* \"--CODEGEN--\":63:99   */\n      add\n        /* \"--CODEGEN--\":60:111   */\n      gt\n        /* \"--CODEGEN--\":39:50   */\n      0x0100000000\n        /* \"--CODEGEN--\":25:37   */\n      dup4\n        /* \"--CODEGEN--\":22:51   */\n      gt\n        /* \"--CODEGEN--\":11:119   */\n      or\n        /* \"--CODEGEN--\":8:10   */\n      iszero\n      tag_53\n      jumpi\n        /* \"--CODEGEN--\":132:133   */\n      0x00\n        /* \"--CODEGEN--\":129:130   */\n      dup1\n        /* \"--CODEGEN--\":122:134   */\n      revert\n        /* \"--CODEGEN--\":8:10   */\n    tag_53:\n        /* \"TimeAllyPET.sol\":2574:2891  function sendPrepaidESDifferent(... */\n      swap2\n      swap1\n      dup1\n      dup1\n      0x20\n      mul\n      0x20\n      add\n      mload(0x40)\n      swap1\n      dup2\n      add\n      0x40\n      mstore\n      dup1\n      swap4\n      swap3\n      swap2\n      swap1\n      dup2\n      dup2\n      mstore\n      0x20\n      add\n      dup4\n      dup4\n      0x20\n      mul\n        /* \"--CODEGEN--\":30:33   */\n      dup1\n        /* \"--CODEGEN--\":22:28   */\n      dup3\n        /* \"--CODEGEN--\":14:20   */\n      dup5\n        /* \"--CODEGEN--\":1:34   */\n      calldatacopy\n        /* \"--CODEGEN--\":99:100   */\n      0x00\n        /* \"--CODEGEN--\":93:96   */\n      dup2\n        /* \"--CODEGEN--\":85:91   */\n      dup5\n        /* \"--CODEGEN--\":81:97   */\n      add\n        /* \"--CODEGEN--\":74:101   */\n      mstore\n        /* \"--CODEGEN--\":137:141   */\n      0x1f\n        /* \"--CODEGEN--\":133:142   */\n      not\n        /* \"--CODEGEN--\":126:130   */\n      0x1f\n        /* \"--CODEGEN--\":121:124   */\n      dup3\n        /* \"--CODEGEN--\":117:131   */\n      add\n        /* \"--CODEGEN--\":113:143   */\n      and\n        /* \"--CODEGEN--\":106:143   */\n      swap1\n      pop\n        /* \"--CODEGEN--\":169:172   */\n      dup1\n        /* \"--CODEGEN--\":161:167   */\n      dup4\n        /* \"--CODEGEN--\":157:173   */\n      add\n        /* \"--CODEGEN--\":147:173   */\n      swap3\n      pop\n        /* \"TimeAllyPET.sol\":2574:2891  function sendPrepaidESDifferent(... */\n      pop\n      pop\n      pop\n      pop\n      pop\n      pop\n      swap2\n      swap3\n      swap2\n      swap3\n      swap1\n      dup1\n      calldataload\n      swap1\n      0x20\n      add\n      swap1\n        /* \"--CODEGEN--\":21:32   */\n      0x0100000000\n        /* \"--CODEGEN--\":8:19   */\n      dup2\n        /* \"--CODEGEN--\":5:33   */\n      gt\n        /* \"--CODEGEN--\":2:4   */\n      iszero\n      tag_54\n      jumpi\n        /* \"--CODEGEN--\":46:47   */\n      0x00\n        /* \"--CODEGEN--\":43:44   */\n      dup1\n        /* \"--CODEGEN--\":36:48   */\n      revert\n        /* \"--CODEGEN--\":2:4   */\n    tag_54:\n        /* \"TimeAllyPET.sol\":2574:2891  function sendPrepaidESDifferent(... */\n      dup3\n      add\n        /* \"--CODEGEN--\":35:44   */\n      dup4\n        /* \"--CODEGEN--\":28:32   */\n      0x20\n        /* \"--CODEGEN--\":12:26   */\n      dup3\n        /* \"--CODEGEN--\":8:33   */\n      add\n        /* \"--CODEGEN--\":5:45   */\n      gt\n        /* \"--CODEGEN--\":2:4   */\n      iszero\n      tag_55\n      jumpi\n        /* \"--CODEGEN--\":58:59   */\n      0x00\n        /* \"--CODEGEN--\":55:56   */\n      dup1\n        /* \"--CODEGEN--\":48:60   */\n      revert\n        /* \"--CODEGEN--\":2:4   */\n    tag_55:\n        /* \"TimeAllyPET.sol\":2574:2891  function sendPrepaidESDifferent(... */\n      dup1\n      calldataload\n      swap1\n      0x20\n      add\n      swap2\n        /* \"--CODEGEN--\":101:110   */\n      dup5\n        /* \"--CODEGEN--\":95:97   */\n      0x20\n        /* \"--CODEGEN--\":81:93   */\n      dup4\n        /* \"--CODEGEN--\":77:98   */\n      mul\n        /* \"--CODEGEN--\":67:75   */\n      dup5\n        /* \"--CODEGEN--\":63:99   */\n      add\n        /* \"--CODEGEN--\":60:111   */\n      gt\n        /* \"--CODEGEN--\":39:50   */\n      0x0100000000\n        /* \"--CODEGEN--\":25:37   */\n      dup4\n        /* \"--CODEGEN--\":22:51   */\n      gt\n        /* \"--CODEGEN--\":11:119   */\n      or\n        /* \"--CODEGEN--\":8:10   */\n      iszero\n      tag_56\n      jumpi\n        /* \"--CODEGEN--\":132:133   */\n      0x00\n        /* \"--CODEGEN--\":129:130   */\n      dup1\n        /* \"--CODEGEN--\":122:134   */\n      revert\n        /* \"--CODEGEN--\":8:10   */\n    tag_56:\n        /* \"TimeAllyPET.sol\":2574:2891  function sendPrepaidESDifferent(... */\n      swap2\n      swap1\n      dup1\n      dup1\n      0x20\n      mul\n      0x20\n      add\n      mload(0x40)\n      swap1\n      dup2\n      add\n      0x40\n      mstore\n      dup1\n      swap4\n      swap3\n      swap2\n      swap1\n      dup2\n      dup2\n      mstore\n      0x20\n      add\n      dup4\n      dup4\n      0x20\n      mul\n        /* \"--CODEGEN--\":30:33   */\n      dup1\n        /* \"--CODEGEN--\":22:28   */\n      dup3\n        /* \"--CODEGEN--\":14:20   */\n      dup5\n        /* \"--CODEGEN--\":1:34   */\n      calldatacopy\n        /* \"--CODEGEN--\":99:100   */\n      0x00\n        /* \"--CODEGEN--\":93:96   */\n      dup2\n        /* \"--CODEGEN--\":85:91   */\n      dup5\n        /* \"--CODEGEN--\":81:97   */\n      add\n        /* \"--CODEGEN--\":74:101   */\n      mstore\n        /* \"--CODEGEN--\":137:141   */\n      0x1f\n        /* \"--CODEGEN--\":133:142   */\n      not\n        /* \"--CODEGEN--\":126:130   */\n      0x1f\n        /* \"--CODEGEN--\":121:124   */\n      dup3\n        /* \"--CODEGEN--\":117:131   */\n      add\n        /* \"--CODEGEN--\":113:143   */\n      and\n        /* \"--CODEGEN--\":106:143   */\n      swap1\n      pop\n        /* \"--CODEGEN--\":169:172   */\n      dup1\n        /* \"--CODEGEN--\":161:167   */\n      dup4\n        /* \"--CODEGEN--\":157:173   */\n      add\n        /* \"--CODEGEN--\":147:173   */\n      swap3\n      pop\n        /* \"TimeAllyPET.sol\":2574:2891  function sendPrepaidESDifferent(... */\n      pop\n      pop\n      pop\n      pop\n      pop\n      pop\n      swap2\n      swap3\n      swap2\n      swap3\n      swap1\n      pop\n      pop\n      pop\n      tag_57\n      jump\t// in\n    tag_49:\n      stop\n        /* \"TimeAllyPET.sol\":1468:1488  address public owner */\n    tag_13:\n      tag_58\n      tag_59\n      jump\t// in\n    tag_58:\n      mload(0x40)\n      dup1\n      dup3\n      0xffffffffffffffffffffffffffffffffffffffff\n      and\n      0xffffffffffffffffffffffffffffffffffffffff\n      and\n      dup2\n      mstore\n      0x20\n      add\n      swap2\n      pop\n      pop\n      mload(0x40)\n      dup1\n      swap2\n      sub\n      swap1\n      return\n        /* \"TimeAllyPET.sol\":1688:1713  PETPlan[] public petPlans */\n    tag_14:\n      tag_60\n      0x04\n      dup1\n      calldatasize\n      sub\n        /* \"--CODEGEN--\":13:15   */\n      0x20\n        /* \"--CODEGEN--\":8:11   */\n      dup2\n        /* \"--CODEGEN--\":5:16   */\n      lt\n        /* \"--CODEGEN--\":2:4   */\n      iszero\n      tag_61\n      jumpi\n        /* \"--CODEGEN--\":29:30   */\n      0x00\n        /* \"--CODEGEN--\":26:27   */\n      dup1\n        /* \"--CODEGEN--\":19:31   */\n      revert\n        /* \"--CODEGEN--\":2:4   */\n    tag_61:\n        /* \"TimeAllyPET.sol\":1688:1713  PETPlan[] public petPlans */\n      dup2\n      add\n      swap1\n      dup1\n      dup1\n      calldataload\n      swap1\n      0x20\n      add\n      swap1\n      swap3\n      swap2\n      swap1\n      pop\n      pop\n      pop\n      tag_62\n      jump\t// in\n    tag_60:\n      mload(0x40)\n      dup1\n      dup5\n      iszero\n      iszero\n      iszero\n      iszero\n      dup2\n      mstore\n      0x20\n      add\n      dup4\n      dup2\n      mstore\n      0x20\n      add\n      dup3\n      dup2\n      mstore\n      0x20\n      add\n      swap4\n      pop\n      pop\n      pop\n      pop\n      mload(0x40)\n      dup1\n      swap2\n      sub\n      swap1\n      return\n        /* \"TimeAllyPET.sol\":11398:12567  function withdrawPowerBooster(... */\n    tag_15:\n      tag_63\n      0x04\n      dup1\n      calldatasize\n      sub\n        /* \"--CODEGEN--\":13:15   */\n      0x60\n        /* \"--CODEGEN--\":8:11   */\n      dup2\n        /* \"--CODEGEN--\":5:16   */\n      lt\n        /* \"--CODEGEN--\":2:4   */\n      iszero\n      tag_64\n      jumpi\n        /* \"--CODEGEN--\":29:30   */\n      0x00\n        /* \"--CODEGEN--\":26:27   */\n      dup1\n        /* \"--CODEGEN--\":19:31   */\n      revert\n        /* \"--CODEGEN--\":2:4   */\n    tag_64:\n        /* \"TimeAllyPET.sol\":11398:12567  function withdrawPowerBooster(... */\n      dup2\n      add\n      swap1\n      dup1\n      dup1\n      calldataload\n      0xffffffffffffffffffffffffffffffffffffffff\n      and\n      swap1\n      0x20\n      add\n      swap1\n      swap3\n      swap2\n      swap1\n      dup1\n      calldataload\n      swap1\n      0x20\n      add\n      swap1\n      swap3\n      swap2\n      swap1\n      dup1\n      calldataload\n      swap1\n      0x20\n      add\n      swap1\n      swap3\n      swap2\n      swap1\n      pop\n      pop\n      pop\n      tag_65\n      jump\t// in\n    tag_63:\n      stop\n        /* \"TimeAllyPET.sol\":3330:3682  function newPET(... */\n    tag_16:\n      tag_66\n      0x04\n      dup1\n      calldatasize\n      sub\n        /* \"--CODEGEN--\":13:15   */\n      0x20\n        /* \"--CODEGEN--\":8:11   */\n      dup2\n        /* \"--CODEGEN--\":5:16   */\n      lt\n        /* \"--CODEGEN--\":2:4   */\n      iszero\n      tag_67\n      jumpi\n        /* \"--CODEGEN--\":29:30   */\n      0x00\n        /* \"--CODEGEN--\":26:27   */\n      dup1\n        /* \"--CODEGEN--\":19:31   */\n      revert\n        /* \"--CODEGEN--\":2:4   */\n    tag_67:\n        /* \"TimeAllyPET.sol\":3330:3682  function newPET(... */\n      dup2\n      add\n      swap1\n      dup1\n      dup1\n      calldataload\n      swap1\n      0x20\n      add\n      swap1\n      swap3\n      swap2\n      swap1\n      pop\n      pop\n      pop\n      tag_68\n      jump\t// in\n    tag_66:\n      stop\n        /* \"TimeAllyPET.sol\":3686:3902  function getMonthlyDepositedAmount(... */\n    tag_17:\n      tag_69\n      0x04\n      dup1\n      calldatasize\n      sub\n        /* \"--CODEGEN--\":13:15   */\n      0x60\n        /* \"--CODEGEN--\":8:11   */\n      dup2\n        /* \"--CODEGEN--\":5:16   */\n      lt\n        /* \"--CODEGEN--\":2:4   */\n      iszero\n      tag_70\n      jumpi\n        /* \"--CODEGEN--\":29:30   */\n      0x00\n        /* \"--CODEGEN--\":26:27   */\n      dup1\n        /* \"--CODEGEN--\":19:31   */\n      revert\n        /* \"--CODEGEN--\":2:4   */\n    tag_70:\n        /* \"TimeAllyPET.sol\":3686:3902  function getMonthlyDepositedAmount(... */\n      dup2\n      add\n      swap1\n      dup1\n      dup1\n      calldataload\n      0xffffffffffffffffffffffffffffffffffffffff\n      and\n      swap1\n      0x20\n      add\n      swap1\n      swap3\n      swap2\n      swap1\n      dup1\n      calldataload\n      swap1\n      0x20\n      add\n      swap1\n      swap3\n      swap2\n      swap1\n      dup1\n      calldataload\n      swap1\n      0x20\n      add\n      swap1\n      swap3\n      swap2\n      swap1\n      pop\n      pop\n      pop\n      tag_71\n      jump\t// in\n    tag_69:\n      mload(0x40)\n      dup1\n      dup3\n      dup2\n      mstore\n      0x20\n      add\n      swap2\n      pop\n      pop\n      mload(0x40)\n      dup1\n      swap2\n      sub\n      swap1\n      return\n        /* \"TimeAllyPET.sol\":1760:1804  mapping(address => uint256) public prepaidES */\n    tag_18:\n      tag_72\n      0x04\n      dup1\n      calldatasize\n      sub\n        /* \"--CODEGEN--\":13:15   */\n      0x20\n        /* \"--CODEGEN--\":8:11   */\n      dup2\n        /* \"--CODEGEN--\":5:16   */\n      lt\n        /* \"--CODEGEN--\":2:4   */\n      iszero\n      tag_73\n      jumpi\n        /* \"--CODEGEN--\":29:30   */\n      0x00\n        /* \"--CODEGEN--\":26:27   */\n      dup1\n        /* \"--CODEGEN--\":19:31   */\n      revert\n        /* \"--CODEGEN--\":2:4   */\n    tag_73:\n        /* \"TimeAllyPET.sol\":1760:1804  mapping(address => uint256) public prepaidES */\n      dup2\n      add\n      swap1\n      dup1\n      dup1\n      calldataload\n      0xffffffffffffffffffffffffffffffffffffffff\n      and\n      swap1\n      0x20\n      add\n      swap1\n      swap3\n      swap2\n      swap1\n      pop\n      pop\n      pop\n      tag_74\n      jump\t// in\n    tag_72:\n      mload(0x40)\n      dup1\n      dup3\n      dup2\n      mstore\n      0x20\n      add\n      swap2\n      pop\n      pop\n      mload(0x40)\n      dup1\n      swap2\n      sub\n      swap1\n      return\n        /* \"TimeAllyPET.sol\":1522:1540  ERC20 public token */\n    tag_19:\n      tag_75\n      tag_76\n      jump\t// in\n    tag_75:\n      mload(0x40)\n      dup1\n      dup3\n      0xffffffffffffffffffffffffffffffffffffffff\n      and\n      0xffffffffffffffffffffffffffffffffffffffff\n      and\n      dup2\n      mstore\n      0x20\n      add\n      swap2\n      pop\n      pop\n      mload(0x40)\n      dup1\n      swap2\n      sub\n      swap1\n      return\n        /* \"TimeAllyPET.sol\":5105:6550  function makeDeposit(... */\n    tag_25:\n        /* \"TimeAllyPET.sol\":5268:5269  0 */\n      0x00\n        /* \"TimeAllyPET.sol\":5251:5265  _depositAmount */\n      dup3\n        /* \"TimeAllyPET.sol\":5251:5269  _depositAmount > 0 */\n      gt\n        /* \"TimeAllyPET.sol\":5243:5307  require(_depositAmount > 0, 'deposit amount should be non zero') */\n      tag_78\n      jumpi\n      mload(0x40)\n      0x08c379a000000000000000000000000000000000000000000000000000000000\n      dup2\n      mstore\n      0x04\n      add\n      dup1\n      dup1\n      0x20\n      add\n      dup3\n      dup2\n      sub\n      dup3\n      mstore\n      0x21\n      dup2\n      mstore\n      0x20\n      add\n      dup1\n      data_a66804336ef880d43d3664593cfd2886bc0d5e09a9e6d1574f39fab0c9f3fb85\n      0x21\n      swap2\n      codecopy\n      0x40\n      add\n      swap2\n      pop\n      pop\n      mload(0x40)\n      dup1\n      swap2\n      sub\n      swap1\n      revert\n    tag_78:\n        /* \"TimeAllyPET.sol\":5314:5330  PET storage _pet */\n      0x00\n        /* \"TimeAllyPET.sol\":5333:5337  pets */\n      0x04\n        /* \"TimeAllyPET.sol\":5333:5353  pets[_stakerAddress] */\n      0x00\n        /* \"TimeAllyPET.sol\":5338:5352  _stakerAddress */\n      dup7\n        /* \"TimeAllyPET.sol\":5333:5353  pets[_stakerAddress] */\n      0xffffffffffffffffffffffffffffffffffffffff\n      and\n      0xffffffffffffffffffffffffffffffffffffffff\n      and\n      dup2\n      mstore\n      0x20\n      add\n      swap1\n      dup2\n      mstore\n      0x20\n      add\n      0x00\n      keccak256\n        /* \"TimeAllyPET.sol\":5354:5360  _petId */\n      dup5\n        /* \"TimeAllyPET.sol\":5333:5361  pets[_stakerAddress][_petId] */\n      dup2\n      sload\n      dup2\n      lt\n      tag_79\n      jumpi\n      invalid\n    tag_79:\n      swap1\n      0x00\n      mstore\n      keccak256(0x00, 0x20)\n      swap1\n      0x09\n      mul\n      add\n        /* \"TimeAllyPET.sol\":5314:5361  PET storage _pet = pets[_stakerAddress][_petId] */\n      swap1\n      pop\n        /* \"TimeAllyPET.sol\":5367:5391  PETPlan storage _petPlan */\n      0x00\n        /* \"TimeAllyPET.sol\":5394:5402  petPlans */\n      0x03\n        /* \"TimeAllyPET.sol\":5403:5407  _pet */\n      dup3\n        /* \"TimeAllyPET.sol\":5403:5414  _pet.planId */\n      0x00\n      add\n      sload\n        /* \"TimeAllyPET.sol\":5394:5415  petPlans[_pet.planId] */\n      dup2\n      sload\n      dup2\n      lt\n      tag_81\n      jumpi\n      invalid\n    tag_81:\n      swap1\n      0x00\n      mstore\n      keccak256(0x00, 0x20)\n      swap1\n      0x03\n      mul\n      add\n        /* \"TimeAllyPET.sol\":5367:5415  PETPlan storage _petPlan = petPlans[_pet.planId] */\n      swap1\n      pop\n        /* \"TimeAllyPET.sol\":5422:5443  uint256 _depositMonth */\n      0x00\n        /* \"TimeAllyPET.sol\":5446:5485  getDepositMonth(_stakerAddress, _petId) */\n      tag_83\n        /* \"TimeAllyPET.sol\":5462:5476  _stakerAddress */\n      dup8\n        /* \"TimeAllyPET.sol\":5478:5484  _petId */\n      dup8\n        /* \"TimeAllyPET.sol\":5446:5461  getDepositMonth */\n      tag_28\n        /* \"TimeAllyPET.sol\":5446:5485  getDepositMonth(_stakerAddress, _petId) */\n      jump\t// in\n    tag_83:\n        /* \"TimeAllyPET.sol\":5422:5485  uint256 _depositMonth = getDepositMonth(_stakerAddress, _petId) */\n      swap1\n      pop\n        /* \"TimeAllyPET.sol\":5517:5519  12 */\n      0x0c\n        /* \"TimeAllyPET.sol\":5500:5513  _depositMonth */\n      dup2\n        /* \"TimeAllyPET.sol\":5500:5519  _depositMonth <= 12 */\n      gt\n      iszero\n        /* \"TimeAllyPET.sol\":5492:5564  require(_depositMonth <= 12, 'cannot deposit after accumulation period') */\n      tag_84\n      jumpi\n      mload(0x40)\n      0x08c379a000000000000000000000000000000000000000000000000000000000\n      dup2\n      mstore\n      0x04\n      add\n      dup1\n      dup1\n      0x20\n      add\n      dup3\n      dup2\n      sub\n      dup3\n      mstore\n      0x28\n      dup2\n      mstore\n      0x20\n      add\n      dup1\n      data_a4c16ca7a8e973f42facadda9d5acf990ce1247b83cdb47d69fe2dcd504c7f2f\n      0x28\n      swap2\n      codecopy\n      0x40\n      add\n      swap2\n      pop\n      pop\n      mload(0x40)\n      dup1\n      swap2\n      sub\n      swap1\n      revert\n    tag_84:\n        /* \"TimeAllyPET.sol\":5571:5576  token */\n      0x02\n      0x00\n      swap1\n      sload\n      swap1\n      0x0100\n      exp\n      swap1\n      div\n      0xffffffffffffffffffffffffffffffffffffffff\n      and\n        /* \"TimeAllyPET.sol\":5571:5589  token.transferFrom */\n      0xffffffffffffffffffffffffffffffffffffffff\n      and\n      0x23b872dd\n        /* \"TimeAllyPET.sol\":5590:5600  msg.sender */\n      caller\n        /* \"TimeAllyPET.sol\":5610:5614  this */\n      address\n        /* \"TimeAllyPET.sol\":5617:5631  _depositAmount */\n      dup9\n        /* \"TimeAllyPET.sol\":5571:5632  token.transferFrom(msg.sender, address(this), _depositAmount) */\n      mload(0x40)\n      dup5\n      0xffffffff\n      and\n      0xe0\n      shl\n      dup2\n      mstore\n      0x04\n      add\n      dup1\n      dup5\n      0xffffffffffffffffffffffffffffffffffffffff\n      and\n      0xffffffffffffffffffffffffffffffffffffffff\n      and\n      dup2\n      mstore\n      0x20\n      add\n      dup4\n      0xffffffffffffffffffffffffffffffffffffffff\n      and\n      0xffffffffffffffffffffffffffffffffffffffff\n      and\n      dup2\n      mstore\n      0x20\n      add\n      dup3\n      dup2\n      mstore\n      0x20\n      add\n      swap4\n      pop\n      pop\n      pop\n      pop\n      0x20\n      mload(0x40)\n      dup1\n      dup4\n      sub\n      dup2\n      0x00\n      dup8\n      dup1\n      extcodesize\n      iszero\n        /* \"--CODEGEN--\":8:17   */\n      dup1\n        /* \"--CODEGEN--\":5:7   */\n      iszero\n      tag_85\n      jumpi\n        /* \"--CODEGEN--\":30:31   */\n      0x00\n        /* \"--CODEGEN--\":27:28   */\n      dup1\n        /* \"--CODEGEN--\":20:32   */\n      revert\n        /* \"--CODEGEN--\":5:7   */\n    tag_85:\n        /* \"TimeAllyPET.sol\":5571:5632  token.transferFrom(msg.sender, address(this), _depositAmount) */\n      pop\n      gas\n      call\n      iszero\n        /* \"--CODEGEN--\":8:17   */\n      dup1\n        /* \"--CODEGEN--\":5:7   */\n      iszero\n      tag_87\n      jumpi\n        /* \"--CODEGEN--\":45:61   */\n      returndatasize\n        /* \"--CODEGEN--\":42:43   */\n      0x00\n        /* \"--CODEGEN--\":39:40   */\n      dup1\n        /* \"--CODEGEN--\":24:62   */\n      returndatacopy\n        /* \"--CODEGEN--\":77:93   */\n      returndatasize\n        /* \"--CODEGEN--\":74:75   */\n      0x00\n        /* \"--CODEGEN--\":67:94   */\n      revert\n        /* \"--CODEGEN--\":5:7   */\n    tag_87:\n        /* \"TimeAllyPET.sol\":5571:5632  token.transferFrom(msg.sender, address(this), _depositAmount) */\n      pop\n      pop\n      pop\n      pop\n      mload(0x40)\n      returndatasize\n        /* \"--CODEGEN--\":13:15   */\n      0x20\n        /* \"--CODEGEN--\":8:11   */\n      dup2\n        /* \"--CODEGEN--\":5:16   */\n      lt\n        /* \"--CODEGEN--\":2:4   */\n      iszero\n      tag_88\n      jumpi\n        /* \"--CODEGEN--\":29:30   */\n      0x00\n        /* \"--CODEGEN--\":26:27   */\n      dup1\n        /* \"--CODEGEN--\":19:31   */\n      revert\n        /* \"--CODEGEN--\":2:4   */\n    tag_88:\n        /* \"TimeAllyPET.sol\":5571:5632  token.transferFrom(msg.sender, address(this), _depositAmount) */\n      dup2\n      add\n      swap1\n      dup1\n      dup1\n      mload\n      swap1\n      0x20\n      add\n      swap1\n      swap3\n      swap2\n      swap1\n      pop\n      pop\n      pop\n      pop\n        /* \"TimeAllyPET.sol\":5639:5668  uint256 _updatedDepositAmount */\n      0x00\n        /* \"TimeAllyPET.sol\":5671:5731  _pet.monthlyDepositAmount[_depositMonth].add(_depositAmount) */\n      tag_89\n        /* \"TimeAllyPET.sol\":5716:5730  _depositAmount */\n      dup7\n        /* \"TimeAllyPET.sol\":5671:5675  _pet */\n      dup6\n        /* \"TimeAllyPET.sol\":5671:5696  _pet.monthlyDepositAmount */\n      0x05\n      add\n        /* \"TimeAllyPET.sol\":5671:5711  _pet.monthlyDepositAmount[_depositMonth] */\n      0x00\n        /* \"TimeAllyPET.sol\":5697:5710  _depositMonth */\n      dup6\n        /* \"TimeAllyPET.sol\":5671:5711  _pet.monthlyDepositAmount[_depositMonth] */\n      dup2\n      mstore\n      0x20\n      add\n      swap1\n      dup2\n      mstore\n      0x20\n      add\n      0x00\n      keccak256\n      sload\n        /* \"TimeAllyPET.sol\":5671:5715  _pet.monthlyDepositAmount[_depositMonth].add */\n      tag_90\n      swap1\n        /* \"TimeAllyPET.sol\":5671:5731  _pet.monthlyDepositAmount[_depositMonth].add(_depositAmount) */\n      swap2\n      swap1\n      0xffffffff\n      and\n      jump\t// in\n    tag_89:\n        /* \"TimeAllyPET.sol\":5639:5731  uint256 _updatedDepositAmount = _pet.monthlyDepositAmount[_depositMonth].add(_depositAmount) */\n      swap1\n      pop\n        /* \"TimeAllyPET.sol\":5807:5836  uint256 _oldBenefitAllocation */\n      0x00\n        /* \"TimeAllyPET.sol\":5839:5948  _getBenefitAllocationByDepositAmount(... */\n      tag_91\n        /* \"TimeAllyPET.sol\":5883:5887  _pet */\n      dup6\n        /* \"TimeAllyPET.sol\":5883:5908  _pet.monthlyDepositAmount */\n      0x05\n      add\n        /* \"TimeAllyPET.sol\":5883:5923  _pet.monthlyDepositAmount[_depositMonth] */\n      0x00\n        /* \"TimeAllyPET.sol\":5909:5922  _depositMonth */\n      dup6\n        /* \"TimeAllyPET.sol\":5883:5923  _pet.monthlyDepositAmount[_depositMonth] */\n      dup2\n      mstore\n      0x20\n      add\n      swap1\n      dup2\n      mstore\n      0x20\n      add\n      0x00\n      keccak256\n      sload\n        /* \"TimeAllyPET.sol\":5931:5935  _pet */\n      dup7\n        /* \"TimeAllyPET.sol\":5931:5942  _pet.planId */\n      0x00\n      add\n      sload\n        /* \"TimeAllyPET.sol\":5839:5875  _getBenefitAllocationByDepositAmount */\n      tag_92\n        /* \"TimeAllyPET.sol\":5839:5948  _getBenefitAllocationByDepositAmount(... */\n      jump\t// in\n    tag_91:\n        /* \"TimeAllyPET.sol\":5807:5948  uint256 _oldBenefitAllocation = _getBenefitAllocationByDepositAmount(... */\n      swap1\n      pop\n        /* \"TimeAllyPET.sol\":5954:5985  uint256 _extraBenefitAllocation */\n      0x00\n        /* \"TimeAllyPET.sol\":5988:6105  _getBenefitAllocationByDepositAmount(... */\n      tag_93\n        /* \"TimeAllyPET.sol\":6083:6104  _oldBenefitAllocation */\n      dup3\n        /* \"TimeAllyPET.sol\":5988:6078  _getBenefitAllocationByDepositAmount(... */\n      tag_94\n        /* \"TimeAllyPET.sol\":6032:6053  _updatedDepositAmount */\n      dup6\n        /* \"TimeAllyPET.sol\":6061:6065  _pet */\n      dup10\n        /* \"TimeAllyPET.sol\":6061:6072  _pet.planId */\n      0x00\n      add\n      sload\n        /* \"TimeAllyPET.sol\":5988:6024  _getBenefitAllocationByDepositAmount */\n      tag_92\n        /* \"TimeAllyPET.sol\":5988:6078  _getBenefitAllocationByDepositAmount(... */\n      jump\t// in\n    tag_94:\n        /* \"TimeAllyPET.sol\":5988:6082  _getBenefitAllocationByDepositAmount(... */\n      tag_95\n      swap1\n        /* \"TimeAllyPET.sol\":5988:6105  _getBenefitAllocationByDepositAmount(... */\n      swap2\n      swap1\n      0xffffffff\n      and\n      jump\t// in\n    tag_93:\n        /* \"TimeAllyPET.sol\":5954:6105  uint256 _extraBenefitAllocation = _getBenefitAllocationByDepositAmount(... */\n      swap1\n      pop\n        /* \"TimeAllyPET.sol\":6242:6247  token */\n      0x02\n      0x00\n      swap1\n      sload\n      swap1\n      0x0100\n      exp\n      swap1\n      div\n      0xffffffffffffffffffffffffffffffffffffffff\n      and\n        /* \"TimeAllyPET.sol\":6242:6260  token.transferFrom */\n      0xffffffffffffffffffffffffffffffffffffffff\n      and\n      0x23b872dd\n        /* \"TimeAllyPET.sol\":6261:6272  fundsBucket */\n      0x01\n      0x00\n      swap1\n      sload\n      swap1\n      0x0100\n      exp\n      swap1\n      div\n      0xffffffffffffffffffffffffffffffffffffffff\n      and\n        /* \"TimeAllyPET.sol\":6282:6286  this */\n      address\n        /* \"TimeAllyPET.sol\":6289:6312  _extraBenefitAllocation */\n      dup5\n        /* \"TimeAllyPET.sol\":6242:6313  token.transferFrom(fundsBucket, address(this), _extraBenefitAllocation) */\n      mload(0x40)\n      dup5\n      0xffffffff\n      and\n      0xe0\n      shl\n      dup2\n      mstore\n      0x04\n      add\n      dup1\n      dup5\n      0xffffffffffffffffffffffffffffffffffffffff\n      and\n      0xffffffffffffffffffffffffffffffffffffffff\n      and\n      dup2\n      mstore\n      0x20\n      add\n      dup4\n      0xffffffffffffffffffffffffffffffffffffffff\n      and\n      0xffffffffffffffffffffffffffffffffffffffff\n      and\n      dup2\n      mstore\n      0x20\n      add\n      dup3\n      dup2\n      mstore\n      0x20\n      add\n      swap4\n      pop\n      pop\n      pop\n      pop\n      0x20\n      mload(0x40)\n      dup1\n      dup4\n      sub\n      dup2\n      0x00\n      dup8\n      dup1\n      extcodesize\n      iszero\n        /* \"--CODEGEN--\":8:17   */\n      dup1\n        /* \"--CODEGEN--\":5:7   */\n      iszero\n      tag_96\n      jumpi\n        /* \"--CODEGEN--\":30:31   */\n      0x00\n        /* \"--CODEGEN--\":27:28   */\n      dup1\n        /* \"--CODEGEN--\":20:32   */\n      revert\n        /* \"--CODEGEN--\":5:7   */\n    tag_96:\n        /* \"TimeAllyPET.sol\":6242:6313  token.transferFrom(fundsBucket, address(this), _extraBenefitAllocation) */\n      pop\n      gas\n      call\n      iszero\n        /* \"--CODEGEN--\":8:17   */\n      dup1\n        /* \"--CODEGEN--\":5:7   */\n      iszero\n      tag_98\n      jumpi\n        /* \"--CODEGEN--\":45:61   */\n      returndatasize\n        /* \"--CODEGEN--\":42:43   */\n      0x00\n        /* \"--CODEGEN--\":39:40   */\n      dup1\n        /* \"--CODEGEN--\":24:62   */\n      returndatacopy\n        /* \"--CODEGEN--\":77:93   */\n      returndatasize\n        /* \"--CODEGEN--\":74:75   */\n      0x00\n        /* \"--CODEGEN--\":67:94   */\n      revert\n        /* \"--CODEGEN--\":5:7   */\n    tag_98:\n        /* \"TimeAllyPET.sol\":6242:6313  token.transferFrom(fundsBucket, address(this), _extraBenefitAllocation) */\n      pop\n      pop\n      pop\n      pop\n      mload(0x40)\n      returndatasize\n        /* \"--CODEGEN--\":13:15   */\n      0x20\n        /* \"--CODEGEN--\":8:11   */\n      dup2\n        /* \"--CODEGEN--\":5:16   */\n      lt\n        /* \"--CODEGEN--\":2:4   */\n      iszero\n      tag_99\n      jumpi\n        /* \"--CODEGEN--\":29:30   */\n      0x00\n        /* \"--CODEGEN--\":26:27   */\n      dup1\n        /* \"--CODEGEN--\":19:31   */\n      revert\n        /* \"--CODEGEN--\":2:4   */\n    tag_99:\n        /* \"TimeAllyPET.sol\":6242:6313  token.transferFrom(fundsBucket, address(this), _extraBenefitAllocation) */\n      dup2\n      add\n      swap1\n      dup1\n      dup1\n      mload\n      swap1\n      0x20\n      add\n      swap1\n      swap3\n      swap2\n      swap1\n      pop\n      pop\n      pop\n      pop\n        /* \"TimeAllyPET.sol\":6524:6545  _updatedDepositAmount */\n      dup3\n        /* \"TimeAllyPET.sol\":6481:6485  _pet */\n      dup7\n        /* \"TimeAllyPET.sol\":6481:6506  _pet.monthlyDepositAmount */\n      0x05\n      add\n        /* \"TimeAllyPET.sol\":6481:6521  _pet.monthlyDepositAmount[_depositMonth] */\n      0x00\n        /* \"TimeAllyPET.sol\":6507:6520  _depositMonth */\n      dup7\n        /* \"TimeAllyPET.sol\":6481:6521  _pet.monthlyDepositAmount[_depositMonth] */\n      dup2\n      mstore\n      0x20\n      add\n      swap1\n      dup2\n      mstore\n      0x20\n      add\n      0x00\n      keccak256\n        /* \"TimeAllyPET.sol\":6481:6545  _pet.monthlyDepositAmount[_depositMonth] = _updatedDepositAmount */\n      dup2\n      swap1\n      sstore\n      pop\n        /* \"TimeAllyPET.sol\":5105:6550  function makeDeposit(... */\n      pop\n      pop\n      pop\n      pop\n      pop\n      pop\n      pop\n      pop\n      pop\n      pop\n      jump\t// out\n        /* \"TimeAllyPET.sol\":3906:4108  function getDepositMonth(... */\n    tag_28:\n        /* \"TimeAllyPET.sol\":4004:4011  uint256 */\n      0x00\n        /* \"TimeAllyPET.sol\":4102:4103  1 */\n      0x01\n        /* \"TimeAllyPET.sol\":1587:1594  2629744 */\n      0x282070\n        /* \"TimeAllyPET.sol\":4033:4037  pets */\n      0x04\n        /* \"TimeAllyPET.sol\":4033:4053  pets[_stakerAddress] */\n      0x00\n        /* \"TimeAllyPET.sol\":4038:4052  _stakerAddress */\n      dup7\n        /* \"TimeAllyPET.sol\":4033:4053  pets[_stakerAddress] */\n      0xffffffffffffffffffffffffffffffffffffffff\n      and\n      0xffffffffffffffffffffffffffffffffffffffff\n      and\n      dup2\n      mstore\n      0x20\n      add\n      swap1\n      dup2\n      mstore\n      0x20\n      add\n      0x00\n      keccak256\n        /* \"TimeAllyPET.sol\":4054:4060  _petId */\n      dup5\n        /* \"TimeAllyPET.sol\":4033:4061  pets[_stakerAddress][_petId] */\n      dup2\n      sload\n      dup2\n      lt\n      tag_101\n      jumpi\n      invalid\n    tag_101:\n      swap1\n      0x00\n      mstore\n      keccak256(0x00, 0x20)\n      swap1\n      0x09\n      mul\n      add\n        /* \"TimeAllyPET.sol\":4033:4075  pets[_stakerAddress][_petId].initTimestamp */\n      0x01\n      add\n      sload\n        /* \"TimeAllyPET.sol\":4027:4030  now */\n      timestamp\n        /* \"TimeAllyPET.sol\":4027:4075  now - pets[_stakerAddress][_petId].initTimestamp */\n      sub\n        /* \"TimeAllyPET.sol\":4026:4099  (now - pets[_stakerAddress][_petId].initTimestamp)/EARTH_SECONDS_IN_MONTH */\n      dup2\n      tag_103\n      jumpi\n      invalid\n    tag_103:\n      div\n        /* \"TimeAllyPET.sol\":4026:4103  (now - pets[_stakerAddress][_petId].initTimestamp)/EARTH_SECONDS_IN_MONTH + 1 */\n      add\n        /* \"TimeAllyPET.sol\":4019:4103  return (now - pets[_stakerAddress][_petId].initTimestamp)/EARTH_SECONDS_IN_MONTH + 1 */\n      swap1\n      pop\n        /* \"TimeAllyPET.sol\":3906:4108  function getDepositMonth(... */\n      swap3\n      swap2\n      pop\n      pop\n      jump\t// out\n        /* \"TimeAllyPET.sol\":2386:2570  function addToPrepaid(uint256 _amount) public {... */\n    tag_31:\n        /* \"TimeAllyPET.sol\":2446:2451  token */\n      0x02\n      0x00\n      swap1\n      sload\n      swap1\n      0x0100\n      exp\n      swap1\n      div\n      0xffffffffffffffffffffffffffffffffffffffff\n      and\n        /* \"TimeAllyPET.sol\":2446:2464  token.transferFrom */\n      0xffffffffffffffffffffffffffffffffffffffff\n      and\n      0x23b872dd\n        /* \"TimeAllyPET.sol\":2465:2475  msg.sender */\n      caller\n        /* \"TimeAllyPET.sol\":2485:2489  this */\n      address\n        /* \"TimeAllyPET.sol\":2492:2499  _amount */\n      dup5\n        /* \"TimeAllyPET.sol\":2446:2500  token.transferFrom(msg.sender, address(this), _amount) */\n      mload(0x40)\n      dup5\n      0xffffffff\n      and\n      0xe0\n      shl\n      dup2\n      mstore\n      0x04\n      add\n      dup1\n      dup5\n      0xffffffffffffffffffffffffffffffffffffffff\n      and\n      0xffffffffffffffffffffffffffffffffffffffff\n      and\n      dup2\n      mstore\n      0x20\n      add\n      dup4\n      0xffffffffffffffffffffffffffffffffffffffff\n      and\n      0xffffffffffffffffffffffffffffffffffffffff\n      and\n      dup2\n      mstore\n      0x20\n      add\n      dup3\n      dup2\n      mstore\n      0x20\n      add\n      swap4\n      pop\n      pop\n      pop\n      pop\n      0x20\n      mload(0x40)\n      dup1\n      dup4\n      sub\n      dup2\n      0x00\n      dup8\n      dup1\n      extcodesize\n      iszero\n        /* \"--CODEGEN--\":8:17   */\n      dup1\n        /* \"--CODEGEN--\":5:7   */\n      iszero\n      tag_105\n      jumpi\n        /* \"--CODEGEN--\":30:31   */\n      0x00\n        /* \"--CODEGEN--\":27:28   */\n      dup1\n        /* \"--CODEGEN--\":20:32   */\n      revert\n        /* \"--CODEGEN--\":5:7   */\n    tag_105:\n        /* \"TimeAllyPET.sol\":2446:2500  token.transferFrom(msg.sender, address(this), _amount) */\n      pop\n      gas\n      call\n      iszero\n        /* \"--CODEGEN--\":8:17   */\n      dup1\n        /* \"--CODEGEN--\":5:7   */\n      iszero\n      tag_107\n      jumpi\n        /* \"--CODEGEN--\":45:61   */\n      returndatasize\n        /* \"--CODEGEN--\":42:43   */\n      0x00\n        /* \"--CODEGEN--\":39:40   */\n      dup1\n        /* \"--CODEGEN--\":24:62   */\n      returndatacopy\n        /* \"--CODEGEN--\":77:93   */\n      returndatasize\n        /* \"--CODEGEN--\":74:75   */\n      0x00\n        /* \"--CODEGEN--\":67:94   */\n      revert\n        /* \"--CODEGEN--\":5:7   */\n    tag_107:\n        /* \"TimeAllyPET.sol\":2446:2500  token.transferFrom(msg.sender, address(this), _amount) */\n      pop\n      pop\n      pop\n      pop\n      mload(0x40)\n      returndatasize\n        /* \"--CODEGEN--\":13:15   */\n      0x20\n        /* \"--CODEGEN--\":8:11   */\n      dup2\n        /* \"--CODEGEN--\":5:16   */\n      lt\n        /* \"--CODEGEN--\":2:4   */\n      iszero\n      tag_108\n      jumpi\n        /* \"--CODEGEN--\":29:30   */\n      0x00\n        /* \"--CODEGEN--\":26:27   */\n      dup1\n        /* \"--CODEGEN--\":19:31   */\n      revert\n        /* \"--CODEGEN--\":2:4   */\n    tag_108:\n        /* \"TimeAllyPET.sol\":2446:2500  token.transferFrom(msg.sender, address(this), _amount) */\n      dup2\n      add\n      swap1\n      dup1\n      dup1\n      mload\n      swap1\n      0x20\n      add\n      swap1\n      swap3\n      swap2\n      swap1\n      pop\n      pop\n      pop\n        /* \"TimeAllyPET.sol\":2438:2501  require(token.transferFrom(msg.sender, address(this), _amount)) */\n      tag_109\n      jumpi\n      0x00\n      dup1\n      revert\n    tag_109:\n        /* \"TimeAllyPET.sol\":2531:2565  prepaidES[msg.sender].add(_amount) */\n      tag_110\n        /* \"TimeAllyPET.sol\":2557:2564  _amount */\n      dup2\n        /* \"TimeAllyPET.sol\":2531:2540  prepaidES */\n      0x05\n        /* \"TimeAllyPET.sol\":2531:2552  prepaidES[msg.sender] */\n      0x00\n        /* \"TimeAllyPET.sol\":2541:2551  msg.sender */\n      caller\n        /* \"TimeAllyPET.sol\":2531:2552  prepaidES[msg.sender] */\n      0xffffffffffffffffffffffffffffffffffffffff\n      and\n      0xffffffffffffffffffffffffffffffffffffffff\n      and\n      dup2\n      mstore\n      0x20\n      add\n      swap1\n      dup2\n      mstore\n      0x20\n      add\n      0x00\n      keccak256\n      sload\n        /* \"TimeAllyPET.sol\":2531:2556  prepaidES[msg.sender].add */\n      tag_90\n      swap1\n        /* \"TimeAllyPET.sol\":2531:2565  prepaidES[msg.sender].add(_amount) */\n      swap2\n      swap1\n      0xffffffff\n      and\n      jump\t// in\n    tag_110:\n        /* \"TimeAllyPET.sol\":2507:2516  prepaidES */\n      0x05\n        /* \"TimeAllyPET.sol\":2507:2528  prepaidES[msg.sender] */\n      0x00\n        /* \"TimeAllyPET.sol\":2517:2527  msg.sender */\n      caller\n        /* \"TimeAllyPET.sol\":2507:2528  prepaidES[msg.sender] */\n      0xffffffffffffffffffffffffffffffffffffffff\n      and\n      0xffffffffffffffffffffffffffffffffffffffff\n      and\n      dup2\n      mstore\n      0x20\n      add\n      swap1\n      dup2\n      mstore\n      0x20\n      add\n      0x00\n      keccak256\n        /* \"TimeAllyPET.sol\":2507:2565  prepaidES[msg.sender] = prepaidES[msg.sender].add(_amount) */\n      dup2\n      swap1\n      sstore\n      pop\n        /* \"TimeAllyPET.sol\":2386:2570  function addToPrepaid(uint256 _amount) public {... */\n      pop\n      jump\t// out\n        /* \"TimeAllyPET.sol\":8658:10023  function withdrawAnnuity(... */\n    tag_34:\n        /* \"TimeAllyPET.sol\":8786:8800  _stakerAddress */\n      dup3\n        /* \"TimeAllyPET.sol\":8802:8808  _petId */\n      dup3\n        /* \"TimeAllyPET.sol\":1973:1989  PET storage _pet */\n      0x00\n        /* \"TimeAllyPET.sol\":1992:1996  pets */\n      0x04\n        /* \"TimeAllyPET.sol\":1992:2012  pets[_stakerAddress] */\n      0x00\n        /* \"TimeAllyPET.sol\":1997:2011  _stakerAddress */\n      dup5\n        /* \"TimeAllyPET.sol\":1992:2012  pets[_stakerAddress] */\n      0xffffffffffffffffffffffffffffffffffffffff\n      and\n      0xffffffffffffffffffffffffffffffffffffffff\n      and\n      dup2\n      mstore\n      0x20\n      add\n      swap1\n      dup2\n      mstore\n      0x20\n      add\n      0x00\n      keccak256\n        /* \"TimeAllyPET.sol\":2013:2019  _petId */\n      dup3\n        /* \"TimeAllyPET.sol\":1992:2020  pets[_stakerAddress][_petId] */\n      dup2\n      sload\n      dup2\n      lt\n      tag_112\n      jumpi\n      invalid\n    tag_112:\n      swap1\n      0x00\n      mstore\n      keccak256(0x00, 0x20)\n      swap1\n      0x09\n      mul\n      add\n        /* \"TimeAllyPET.sol\":1973:2020  PET storage _pet = pets[_stakerAddress][_petId] */\n      swap1\n      pop\n        /* \"TimeAllyPET.sol\":2123:2137  _stakerAddress */\n      dup3\n        /* \"TimeAllyPET.sol\":2109:2137  msg.sender != _stakerAddress */\n      0xffffffffffffffffffffffffffffffffffffffff\n      and\n        /* \"TimeAllyPET.sol\":2109:2119  msg.sender */\n      caller\n        /* \"TimeAllyPET.sol\":2109:2137  msg.sender != _stakerAddress */\n      0xffffffffffffffffffffffffffffffffffffffff\n      and\n      eq\n        /* \"TimeAllyPET.sol\":2106:2218  if(msg.sender != _stakerAddress) {... */\n      tag_114\n      jumpi\n        /* \"TimeAllyPET.sol\":2155:2159  _pet */\n      dup1\n        /* \"TimeAllyPET.sol\":2155:2168  _pet.nominees */\n      0x07\n      add\n        /* \"TimeAllyPET.sol\":2155:2180  _pet.nominees[msg.sender] */\n      0x00\n        /* \"TimeAllyPET.sol\":2169:2179  msg.sender */\n      caller\n        /* \"TimeAllyPET.sol\":2155:2180  _pet.nominees[msg.sender] */\n      0xffffffffffffffffffffffffffffffffffffffff\n      and\n      0xffffffffffffffffffffffffffffffffffffffff\n      and\n      dup2\n      mstore\n      0x20\n      add\n      swap1\n      dup2\n      mstore\n      0x20\n      add\n      0x00\n      keccak256\n      0x00\n      swap1\n      sload\n      swap1\n      0x0100\n      exp\n      swap1\n      div\n      0xff\n      and\n        /* \"TimeAllyPET.sol\":2147:2211  require(_pet.nominees[msg.sender], 'nomination should be there') */\n      tag_115\n      jumpi\n      mload(0x40)\n      0x08c379a000000000000000000000000000000000000000000000000000000000\n      dup2\n      mstore\n      0x04\n      add\n      dup1\n      dup1\n      0x20\n      add\n      dup3\n      dup2\n      sub\n      dup3\n      mstore\n      0x1a\n      dup2\n      mstore\n      0x20\n      add\n      dup1\n      0x6e6f6d696e6174696f6e2073686f756c64206265207468657265000000000000\n      dup2\n      mstore\n      pop\n      0x20\n      add\n      swap2\n      pop\n      pop\n      mload(0x40)\n      dup1\n      swap2\n      sub\n      swap1\n      revert\n    tag_115:\n        /* \"TimeAllyPET.sol\":2106:2218  if(msg.sender != _stakerAddress) {... */\n    tag_114:\n        /* \"TimeAllyPET.sol\":8816:8832  PET storage _pet */\n      0x00\n        /* \"TimeAllyPET.sol\":8835:8839  pets */\n      0x04\n        /* \"TimeAllyPET.sol\":8835:8855  pets[_stakerAddress] */\n      0x00\n        /* \"TimeAllyPET.sol\":8840:8854  _stakerAddress */\n      dup9\n        /* \"TimeAllyPET.sol\":8835:8855  pets[_stakerAddress] */\n      0xffffffffffffffffffffffffffffffffffffffff\n      and\n      0xffffffffffffffffffffffffffffffffffffffff\n      and\n      dup2\n      mstore\n      0x20\n      add\n      swap1\n      dup2\n      mstore\n      0x20\n      add\n      0x00\n      keccak256\n        /* \"TimeAllyPET.sol\":8856:8862  _petId */\n      dup7\n        /* \"TimeAllyPET.sol\":8835:8863  pets[_stakerAddress][_petId] */\n      dup2\n      sload\n      dup2\n      lt\n      tag_117\n      jumpi\n      invalid\n    tag_117:\n      swap1\n      0x00\n      mstore\n      keccak256(0x00, 0x20)\n      swap1\n      0x09\n      mul\n      add\n        /* \"TimeAllyPET.sol\":8816:8863  PET storage _pet = pets[_stakerAddress][_petId] */\n      swap1\n      pop\n        /* \"TimeAllyPET.sol\":8869:8905  uint256 _lastAnnuityWithdrawlMonthId */\n      0x00\n        /* \"TimeAllyPET.sol\":8908:8912  _pet */\n      dup2\n        /* \"TimeAllyPET.sol\":8908:8940  _pet.lastAnnuityWithdrawlMonthId */\n      0x02\n      add\n      sload\n        /* \"TimeAllyPET.sol\":8869:8940  uint256 _lastAnnuityWithdrawlMonthId = _pet.lastAnnuityWithdrawlMonthId */\n      swap1\n      pop\n        /* \"TimeAllyPET.sol\":9096:9114  _endAnnuityMonthId */\n      dup6\n        /* \"TimeAllyPET.sol\":9065:9093  _lastAnnuityWithdrawlMonthId */\n      dup2\n        /* \"TimeAllyPET.sol\":9065:9114  _lastAnnuityWithdrawlMonthId < _endAnnuityMonthId */\n      lt\n        /* \"TimeAllyPET.sol\":9050:9157  require(... */\n      tag_119\n      jumpi\n      mload(0x40)\n      0x08c379a000000000000000000000000000000000000000000000000000000000\n      dup2\n      mstore\n      0x04\n      add\n      dup1\n      dup1\n      0x20\n      add\n      dup3\n      dup2\n      sub\n      dup3\n      mstore\n      0x1a\n      dup2\n      mstore\n      0x20\n      add\n      dup1\n      0x73746172742073686f756c64206265206265666f726520656e64000000000000\n      dup2\n      mstore\n      pop\n      0x20\n      add\n      swap2\n      pop\n      pop\n      mload(0x40)\n      dup1\n      swap2\n      sub\n      swap1\n      revert\n    tag_119:\n        /* \"TimeAllyPET.sol\":9201:9203  60 */\n      0x3c\n        /* \"TimeAllyPET.sol\":9179:9197  _endAnnuityMonthId */\n      dup7\n        /* \"TimeAllyPET.sol\":9179:9203  _endAnnuityMonthId <= 60 */\n      gt\n      iszero\n        /* \"TimeAllyPET.sol\":9164:9246  require(... */\n      tag_120\n      jumpi\n      mload(0x40)\n      0x08c379a000000000000000000000000000000000000000000000000000000000\n      dup2\n      mstore\n      0x04\n      add\n      dup1\n      dup1\n      0x20\n      add\n      dup3\n      dup2\n      sub\n      dup3\n      mstore\n      0x1a\n      dup2\n      mstore\n      0x20\n      add\n      dup1\n      0x6f6e6c7920363020416e6e756974792077697468647261776c73000000000000\n      dup2\n      mstore\n      pop\n      0x20\n      add\n      swap2\n      pop\n      pop\n      mload(0x40)\n      dup1\n      swap2\n      sub\n      swap1\n      revert\n    tag_120:\n        /* \"TimeAllyPET.sol\":9253:9278  uint256 _allowedTimestamp */\n      0x00\n        /* \"TimeAllyPET.sol\":9281:9352  _getNomineeAllowedTimestamp(_stakerAddress, _petId, _endAnnuityMonthId) */\n      tag_121\n        /* \"TimeAllyPET.sol\":9309:9323  _stakerAddress */\n      dup10\n        /* \"TimeAllyPET.sol\":9325:9331  _petId */\n      dup10\n        /* \"TimeAllyPET.sol\":9333:9351  _endAnnuityMonthId */\n      dup10\n        /* \"TimeAllyPET.sol\":9281:9308  _getNomineeAllowedTimestamp */\n      tag_122\n        /* \"TimeAllyPET.sol\":9281:9352  _getNomineeAllowedTimestamp(_stakerAddress, _petId, _endAnnuityMonthId) */\n      jump\t// in\n    tag_121:\n        /* \"TimeAllyPET.sol\":9253:9352  uint256 _allowedTimestamp = _getNomineeAllowedTimestamp(_stakerAddress, _petId, _endAnnuityMonthId) */\n      swap1\n      pop\n        /* \"TimeAllyPET.sol\":9381:9398  _allowedTimestamp */\n      dup1\n        /* \"TimeAllyPET.sol\":9374:9377  now */\n      timestamp\n        /* \"TimeAllyPET.sol\":9374:9398  now >= _allowedTimestamp */\n      lt\n      iszero\n        /* \"TimeAllyPET.sol\":9359:9436  require(... */\n      tag_123\n      jumpi\n      mload(0x40)\n      0x08c379a000000000000000000000000000000000000000000000000000000000\n      dup2\n      mstore\n      0x04\n      add\n      dup1\n      dup1\n      0x20\n      add\n      dup3\n      dup2\n      sub\n      dup3\n      mstore\n      0x15\n      dup2\n      mstore\n      0x20\n      add\n      dup1\n      0x63616e6e6f74207769746864726177206561726c790000000000000000000000\n      dup2\n      mstore\n      pop\n      0x20\n      add\n      swap2\n      pop\n      pop\n      mload(0x40)\n      dup1\n      swap2\n      sub\n      swap1\n      revert\n    tag_123:\n        /* \"TimeAllyPET.sol\":9443:9466  uint256 _annuityBenefit */\n      0x00\n        /* \"TimeAllyPET.sol\":9469:9597  getSumOfMonthlyAnnuity(... */\n      tag_124\n        /* \"TimeAllyPET.sol\":9499:9513  _stakerAddress */\n      dup11\n        /* \"TimeAllyPET.sol\":9521:9527  _petId */\n      dup11\n        /* \"TimeAllyPET.sol\":9564:9565  1 */\n      0x01\n        /* \"TimeAllyPET.sol\":9535:9563  _lastAnnuityWithdrawlMonthId */\n      dup7\n        /* \"TimeAllyPET.sol\":9535:9565  _lastAnnuityWithdrawlMonthId+1 */\n      add\n        /* \"TimeAllyPET.sol\":9573:9591  _endAnnuityMonthId */\n      dup12\n        /* \"TimeAllyPET.sol\":9469:9491  getSumOfMonthlyAnnuity */\n      tag_48\n        /* \"TimeAllyPET.sol\":9469:9597  getSumOfMonthlyAnnuity(... */\n      jump\t// in\n    tag_124:\n        /* \"TimeAllyPET.sol\":9443:9597  uint256 _annuityBenefit = getSumOfMonthlyAnnuity(... */\n      swap1\n      pop\n        /* \"TimeAllyPET.sol\":9639:9657  _endAnnuityMonthId */\n      dup8\n        /* \"TimeAllyPET.sol\":9604:9608  _pet */\n      dup5\n        /* \"TimeAllyPET.sol\":9604:9636  _pet.lastAnnuityWithdrawlMonthId */\n      0x02\n      add\n        /* \"TimeAllyPET.sol\":9604:9657  _pet.lastAnnuityWithdrawlMonthId = _endAnnuityMonthId */\n      dup2\n      swap1\n      sstore\n      pop\n        /* \"TimeAllyPET.sol\":9699:9700  0 */\n      0x00\n        /* \"TimeAllyPET.sol\":9667:9695  _lastAnnuityWithdrawlMonthId */\n      dup4\n        /* \"TimeAllyPET.sol\":9667:9700  _lastAnnuityWithdrawlMonthId == 0 */\n      eq\n        /* \"TimeAllyPET.sol\":9664:9773  if(_lastAnnuityWithdrawlMonthId == 0) {... */\n      iszero\n      tag_125\n      jumpi\n        /* \"TimeAllyPET.sol\":9710:9766  _burnPenalisedPowerBoosterTokens(_stakerAddress, _petId) */\n      tag_126\n        /* \"TimeAllyPET.sol\":9743:9757  _stakerAddress */\n      dup11\n        /* \"TimeAllyPET.sol\":9759:9765  _petId */\n      dup11\n        /* \"TimeAllyPET.sol\":9710:9742  _burnPenalisedPowerBoosterTokens */\n      tag_127\n        /* \"TimeAllyPET.sol\":9710:9766  _burnPenalisedPowerBoosterTokens(_stakerAddress, _petId) */\n      jump\t// in\n    tag_126:\n        /* \"TimeAllyPET.sol\":9664:9773  if(_lastAnnuityWithdrawlMonthId == 0) {... */\n    tag_125:\n        /* \"TimeAllyPET.sol\":9801:9802  0 */\n      0x00\n        /* \"TimeAllyPET.sol\":9782:9797  _annuityBenefit */\n      dup2\n        /* \"TimeAllyPET.sol\":9782:9802  _annuityBenefit != 0 */\n      eq\n        /* \"TimeAllyPET.sol\":9779:9992  if(_annuityBenefit != 0) {... */\n      tag_128\n      jumpi\n        /* \"TimeAllyPET.sol\":9942:9947  token */\n      0x02\n      0x00\n      swap1\n      sload\n      swap1\n      0x0100\n      exp\n      swap1\n      div\n      0xffffffffffffffffffffffffffffffffffffffff\n      and\n        /* \"TimeAllyPET.sol\":9942:9956  token.transfer */\n      0xffffffffffffffffffffffffffffffffffffffff\n      and\n      0xa9059cbb\n        /* \"TimeAllyPET.sol\":9957:9967  msg.sender */\n      caller\n        /* \"TimeAllyPET.sol\":9969:9984  _annuityBenefit */\n      dup4\n        /* \"TimeAllyPET.sol\":9942:9985  token.transfer(msg.sender, _annuityBenefit) */\n      mload(0x40)\n      dup4\n      0xffffffff\n      and\n      0xe0\n      shl\n      dup2\n      mstore\n      0x04\n      add\n      dup1\n      dup4\n      0xffffffffffffffffffffffffffffffffffffffff\n      and\n      0xffffffffffffffffffffffffffffffffffffffff\n      and\n      dup2\n      mstore\n      0x20\n      add\n      dup3\n      dup2\n      mstore\n      0x20\n      add\n      swap3\n      pop\n      pop\n      pop\n      0x20\n      mload(0x40)\n      dup1\n      dup4\n      sub\n      dup2\n      0x00\n      dup8\n      dup1\n      extcodesize\n      iszero\n        /* \"--CODEGEN--\":8:17   */\n      dup1\n        /* \"--CODEGEN--\":5:7   */\n      iszero\n      tag_129\n      jumpi\n        /* \"--CODEGEN--\":30:31   */\n      0x00\n        /* \"--CODEGEN--\":27:28   */\n      dup1\n        /* \"--CODEGEN--\":20:32   */\n      revert\n        /* \"--CODEGEN--\":5:7   */\n    tag_129:\n        /* \"TimeAllyPET.sol\":9942:9985  token.transfer(msg.sender, _annuityBenefit) */\n      pop\n      gas\n      call\n      iszero\n        /* \"--CODEGEN--\":8:17   */\n      dup1\n        /* \"--CODEGEN--\":5:7   */\n      iszero\n      tag_131\n      jumpi\n        /* \"--CODEGEN--\":45:61   */\n      returndatasize\n        /* \"--CODEGEN--\":42:43   */\n      0x00\n        /* \"--CODEGEN--\":39:40   */\n      dup1\n        /* \"--CODEGEN--\":24:62   */\n      returndatacopy\n        /* \"--CODEGEN--\":77:93   */\n      returndatasize\n        /* \"--CODEGEN--\":74:75   */\n      0x00\n        /* \"--CODEGEN--\":67:94   */\n      revert\n        /* \"--CODEGEN--\":5:7   */\n    tag_131:\n        /* \"TimeAllyPET.sol\":9942:9985  token.transfer(msg.sender, _annuityBenefit) */\n      pop\n      pop\n      pop\n      pop\n      mload(0x40)\n      returndatasize\n        /* \"--CODEGEN--\":13:15   */\n      0x20\n        /* \"--CODEGEN--\":8:11   */\n      dup2\n        /* \"--CODEGEN--\":5:16   */\n      lt\n        /* \"--CODEGEN--\":2:4   */\n      iszero\n      tag_132\n      jumpi\n        /* \"--CODEGEN--\":29:30   */\n      0x00\n        /* \"--CODEGEN--\":26:27   */\n      dup1\n        /* \"--CODEGEN--\":19:31   */\n      revert\n        /* \"--CODEGEN--\":2:4   */\n    tag_132:\n        /* \"TimeAllyPET.sol\":9942:9985  token.transfer(msg.sender, _annuityBenefit) */\n      dup2\n      add\n      swap1\n      dup1\n      dup1\n      mload\n      swap1\n      0x20\n      add\n      swap1\n      swap3\n      swap2\n      swap1\n      pop\n      pop\n      pop\n      pop\n        /* \"TimeAllyPET.sol\":9779:9992  if(_annuityBenefit != 0) {... */\n    tag_128:\n        /* \"TimeAllyPET.sol\":2223:2224  _ */\n      pop\n      pop\n      pop\n      pop\n        /* \"TimeAllyPET.sol\":8658:10023  function withdrawAnnuity(... */\n      pop\n      pop\n      pop\n      pop\n      pop\n      pop\n      jump\t// out\n        /* \"TimeAllyPET.sol\":1718:1755  mapping(address => PET[]) public pets */\n    tag_37:\n      mstore(0x20, 0x04)\n      dup2\n      0x00\n      mstore\n      keccak256(0x00, 0x40)\n      dup2\n      dup2\n      sload\n      dup2\n      lt\n      tag_133\n      jumpi\n      invalid\n    tag_133:\n      swap1\n      0x00\n      mstore\n      keccak256(0x00, 0x20)\n      swap1\n      0x09\n      mul\n      add\n      0x00\n      swap2\n      pop\n      swap2\n      pop\n      pop\n      dup1\n      0x00\n      add\n      sload\n      swap1\n      dup1\n      0x01\n      add\n      sload\n      swap1\n      dup1\n      0x02\n      add\n      sload\n      swap1\n      dup1\n      0x03\n      add\n      sload\n      swap1\n      dup1\n      0x04\n      add\n      sload\n      swap1\n      pop\n      dup6\n      jump\t// out\n        /* \"TimeAllyPET.sol\":1492:1518  address public fundsBucket */\n    tag_39:\n      0x01\n      0x00\n      swap1\n      sload\n      swap1\n      0x0100\n      exp\n      swap1\n      div\n      0xffffffffffffffffffffffffffffffffffffffff\n      and\n      dup2\n      jump\t// out\n        /* \"TimeAllyPET.sol\":10681:11394  function calculatePowerBoosterAmount(... */\n    tag_42:\n        /* \"TimeAllyPET.sol\":10791:10798  uint256 */\n      0x00\n        /* \"TimeAllyPET.sol\":10806:10822  PET storage _pet */\n      dup1\n        /* \"TimeAllyPET.sol\":10825:10829  pets */\n      0x04\n        /* \"TimeAllyPET.sol\":10825:10845  pets[_stakerAddress] */\n      0x00\n        /* \"TimeAllyPET.sol\":10830:10844  _stakerAddress */\n      dup6\n        /* \"TimeAllyPET.sol\":10825:10845  pets[_stakerAddress] */\n      0xffffffffffffffffffffffffffffffffffffffff\n      and\n      0xffffffffffffffffffffffffffffffffffffffff\n      and\n      dup2\n      mstore\n      0x20\n      add\n      swap1\n      dup2\n      mstore\n      0x20\n      add\n      0x00\n      keccak256\n        /* \"TimeAllyPET.sol\":10846:10852  _petId */\n      dup4\n        /* \"TimeAllyPET.sol\":10825:10853  pets[_stakerAddress][_petId] */\n      dup2\n      sload\n      dup2\n      lt\n      tag_136\n      jumpi\n      invalid\n    tag_136:\n      swap1\n      0x00\n      mstore\n      keccak256(0x00, 0x20)\n      swap1\n      0x09\n      mul\n      add\n        /* \"TimeAllyPET.sol\":10806:10853  PET storage _pet = pets[_stakerAddress][_petId] */\n      swap1\n      pop\n        /* \"TimeAllyPET.sol\":10859:10883  PETPlan storage _petPlan */\n      0x00\n        /* \"TimeAllyPET.sol\":10886:10894  petPlans */\n      0x03\n        /* \"TimeAllyPET.sol\":10895:10899  _pet */\n      dup3\n        /* \"TimeAllyPET.sol\":10895:10906  _pet.planId */\n      0x00\n      add\n      sload\n        /* \"TimeAllyPET.sol\":10886:10907  petPlans[_pet.planId] */\n      dup2\n      sload\n      dup2\n      lt\n      tag_138\n      jumpi\n      invalid\n    tag_138:\n      swap1\n      0x00\n      mstore\n      keccak256(0x00, 0x20)\n      swap1\n      0x03\n      mul\n      add\n        /* \"TimeAllyPET.sol\":10859:10907  PETPlan storage _petPlan = petPlans[_pet.planId] */\n      swap1\n      pop\n        /* \"TimeAllyPET.sol\":10914:10949  uint256 _totalDepositedIncludingPET */\n      0x00\n        /* \"TimeAllyPET.sol\":10960:10970  uint256 _i */\n      dup1\n        /* \"TimeAllyPET.sol\":10973:10974  1 */\n      0x01\n        /* \"TimeAllyPET.sol\":10960:10974  uint256 _i = 1 */\n      swap1\n      pop\n        /* \"TimeAllyPET.sol\":10956:11341  for(uint256 _i = 1; _i <= 12; _i++) {... */\n    tag_140:\n        /* \"TimeAllyPET.sol\":10982:10984  12 */\n      0x0c\n        /* \"TimeAllyPET.sol\":10976:10978  _i */\n      dup2\n        /* \"TimeAllyPET.sol\":10976:10984  _i <= 12 */\n      gt\n        /* \"TimeAllyPET.sol\":10956:11341  for(uint256 _i = 1; _i <= 12; _i++) {... */\n      tag_141\n      jumpi\n        /* \"TimeAllyPET.sol\":11000:11034  uint256 _depositAmountIncludingPET */\n      0x00\n        /* \"TimeAllyPET.sol\":11037:11041  _pet */\n      dup5\n        /* \"TimeAllyPET.sol\":11037:11062  _pet.monthlyDepositAmount */\n      0x05\n      add\n        /* \"TimeAllyPET.sol\":11037:11066  _pet.monthlyDepositAmount[_i] */\n      0x00\n        /* \"TimeAllyPET.sol\":11063:11065  _i */\n      dup4\n        /* \"TimeAllyPET.sol\":11037:11066  _pet.monthlyDepositAmount[_i] */\n      dup2\n      mstore\n      0x20\n      add\n      swap1\n      dup2\n      mstore\n      0x20\n      add\n      0x00\n      keccak256\n      sload\n        /* \"TimeAllyPET.sol\":11000:11066  uint256 _depositAmountIncludingPET = _pet.monthlyDepositAmount[_i] */\n      swap1\n      pop\n        /* \"TimeAllyPET.sol\":11108:11154  _petPlan.minimumMonthlyCommitmentAmount.div(2) */\n      tag_143\n        /* \"TimeAllyPET.sol\":11152:11153  2 */\n      0x02\n        /* \"TimeAllyPET.sol\":11108:11116  _petPlan */\n      dup6\n        /* \"TimeAllyPET.sol\":11108:11147  _petPlan.minimumMonthlyCommitmentAmount */\n      0x01\n      add\n      sload\n        /* \"TimeAllyPET.sol\":11108:11151  _petPlan.minimumMonthlyCommitmentAmount.div */\n      tag_144\n      swap1\n        /* \"TimeAllyPET.sol\":11108:11154  _petPlan.minimumMonthlyCommitmentAmount.div(2) */\n      swap2\n      swap1\n      0xffffffff\n      and\n      jump\t// in\n    tag_143:\n        /* \"TimeAllyPET.sol\":11078:11104  _depositAmountIncludingPET */\n      dup2\n        /* \"TimeAllyPET.sol\":11078:11154  _depositAmountIncludingPET >= _petPlan.minimumMonthlyCommitmentAmount.div(2) */\n      lt\n        /* \"TimeAllyPET.sol\":11075:11237  if(_depositAmountIncludingPET >= _petPlan.minimumMonthlyCommitmentAmount.div(2)) {... */\n      tag_145\n      jumpi\n        /* \"TimeAllyPET.sol\":11195:11228  _depositAmountIncludingPET.mul(2) */\n      tag_146\n        /* \"TimeAllyPET.sol\":11226:11227  2 */\n      0x02\n        /* \"TimeAllyPET.sol\":11195:11221  _depositAmountIncludingPET */\n      dup3\n        /* \"TimeAllyPET.sol\":11195:11225  _depositAmountIncludingPET.mul */\n      tag_147\n      swap1\n        /* \"TimeAllyPET.sol\":11195:11228  _depositAmountIncludingPET.mul(2) */\n      swap2\n      swap1\n      0xffffffff\n      and\n      jump\t// in\n    tag_146:\n        /* \"TimeAllyPET.sol\":11166:11228  _depositAmountIncludingPET = _depositAmountIncludingPET.mul(2) */\n      swap1\n      pop\n        /* \"TimeAllyPET.sol\":11075:11237  if(_depositAmountIncludingPET >= _petPlan.minimumMonthlyCommitmentAmount.div(2)) {... */\n    tag_145:\n        /* \"TimeAllyPET.sol\":11275:11334  _totalDepositedIncludingPET.add(_depositAmountIncludingPET) */\n      tag_148\n        /* \"TimeAllyPET.sol\":11307:11333  _depositAmountIncludingPET */\n      dup2\n        /* \"TimeAllyPET.sol\":11275:11302  _totalDepositedIncludingPET */\n      dup5\n        /* \"TimeAllyPET.sol\":11275:11306  _totalDepositedIncludingPET.add */\n      tag_90\n      swap1\n        /* \"TimeAllyPET.sol\":11275:11334  _totalDepositedIncludingPET.add(_depositAmountIncludingPET) */\n      swap2\n      swap1\n      0xffffffff\n      and\n      jump\t// in\n    tag_148:\n        /* \"TimeAllyPET.sol\":11245:11334  _totalDepositedIncludingPET = _totalDepositedIncludingPET.add(_depositAmountIncludingPET) */\n      swap3\n      pop\n        /* \"TimeAllyPET.sol\":10956:11341  for(uint256 _i = 1; _i <= 12; _i++) {... */\n      pop\n        /* \"TimeAllyPET.sol\":10986:10990  _i++ */\n      dup1\n      dup1\n      0x01\n      add\n      swap2\n      pop\n      pop\n        /* \"TimeAllyPET.sol\":10956:11341  for(uint256 _i = 1; _i <= 12; _i++) {... */\n      jump(tag_140)\n    tag_141:\n      pop\n        /* \"TimeAllyPET.sol\":11354:11389  _totalDepositedIncludingPET.div(12) */\n      tag_149\n        /* \"TimeAllyPET.sol\":11386:11388  12 */\n      0x0c\n        /* \"TimeAllyPET.sol\":11354:11381  _totalDepositedIncludingPET */\n      dup3\n        /* \"TimeAllyPET.sol\":11354:11385  _totalDepositedIncludingPET.div */\n      tag_144\n      swap1\n        /* \"TimeAllyPET.sol\":11354:11389  _totalDepositedIncludingPET.div(12) */\n      swap2\n      swap1\n      0xffffffff\n      and\n      jump\t// in\n    tag_149:\n        /* \"TimeAllyPET.sol\":11347:11389  return _totalDepositedIncludingPET.div(12) */\n      swap4\n      pop\n      pop\n      pop\n      pop\n        /* \"TimeAllyPET.sol\":10681:11394  function calculatePowerBoosterAmount(... */\n      swap3\n      swap2\n      pop\n      pop\n      jump\t// out\n        /* \"TimeAllyPET.sol\":2895:3266  function createPETPlan(... */\n    tag_45:\n        /* \"TimeAllyPET.sol\":1858:1863  owner */\n      0x00\n      dup1\n      swap1\n      sload\n      swap1\n      0x0100\n      exp\n      swap1\n      div\n      0xffffffffffffffffffffffffffffffffffffffff\n      and\n        /* \"TimeAllyPET.sol\":1844:1863  msg.sender == owner */\n      0xffffffffffffffffffffffffffffffffffffffff\n      and\n        /* \"TimeAllyPET.sol\":1844:1854  msg.sender */\n      caller\n        /* \"TimeAllyPET.sol\":1844:1863  msg.sender == owner */\n      0xffffffffffffffffffffffffffffffffffffffff\n      and\n      eq\n        /* \"TimeAllyPET.sol\":1836:1890  require(msg.sender == owner, 'only deployer can call') */\n      tag_151\n      jumpi\n      mload(0x40)\n      0x08c379a000000000000000000000000000000000000000000000000000000000\n      dup2\n      mstore\n      0x04\n      add\n      dup1\n      dup1\n      0x20\n      add\n      dup3\n      dup2\n      sub\n      dup3\n      mstore\n      0x16\n      dup2\n      mstore\n      0x20\n      add\n      dup1\n      0x6f6e6c79206465706c6f7965722063616e2063616c6c00000000000000000000\n      dup2\n      mstore\n      pop\n      0x20\n      add\n      swap2\n      pop\n      pop\n      mload(0x40)\n      dup1\n      swap2\n      sub\n      swap1\n      revert\n    tag_151:\n        /* \"TimeAllyPET.sol\":3036:3044  petPlans */\n      0x03\n        /* \"TimeAllyPET.sol\":3050:3235  PETPlan({... */\n      mload(0x40)\n      dup1\n      0x60\n      add\n      0x40\n      mstore\n      dup1\n        /* \"TimeAllyPET.sol\":3080:3084  true */\n      0x01\n        /* \"TimeAllyPET.sol\":3050:3235  PETPlan({... */\n      iszero\n      iszero\n      dup2\n      mstore\n      0x20\n      add\n        /* \"TimeAllyPET.sol\":3124:3155  _minimumMonthlyCommitmentAmount */\n      dup5\n        /* \"TimeAllyPET.sol\":3050:3235  PETPlan({... */\n      dup2\n      mstore\n      0x20\n      add\n        /* \"TimeAllyPET.sol\":3196:3228  _monthlyBenefitFactorPerThousand */\n      dup4\n        /* \"TimeAllyPET.sol\":3050:3235  PETPlan({... */\n      dup2\n      mstore\n      pop\n        /* \"TimeAllyPET.sol\":3036:3236  petPlans.push(PETPlan({... */\n      swap1\n      dup1\n        /* \"--CODEGEN--\":39:40   */\n      0x01\n        /* \"--CODEGEN--\":33:36   */\n      dup2\n        /* \"--CODEGEN--\":27:37   */\n      sload\n        /* \"--CODEGEN--\":23:41   */\n      add\n        /* \"--CODEGEN--\":57:67   */\n      dup1\n        /* \"--CODEGEN--\":52:55   */\n      dup3\n        /* \"--CODEGEN--\":45:68   */\n      sstore\n        /* \"--CODEGEN--\":79:89   */\n      dup1\n        /* \"--CODEGEN--\":72:89   */\n      swap2\n      pop\n        /* \"--CODEGEN--\":0:93   */\n      pop\n        /* \"TimeAllyPET.sol\":3036:3236  petPlans.push(PETPlan({... */\n      0x01\n      swap1\n      sub\n      swap1\n      0x00\n      mstore\n      keccak256(0x00, 0x20)\n      swap1\n      0x03\n      mul\n      add\n      0x00\n      swap1\n      swap2\n      swap1\n      swap2\n      swap1\n      swap2\n      pop\n      0x00\n      dup3\n      add\n      mload\n      dup2\n      0x00\n      add\n      exp(0x0100, 0x00)\n      dup2\n      sload\n      dup2\n      0xff\n      mul\n      not\n      and\n      swap1\n      dup4\n      iszero\n      iszero\n      mul\n      or\n      swap1\n      sstore\n      pop\n      0x20\n      dup3\n      add\n      mload\n      dup2\n      0x01\n      add\n      sstore\n      0x40\n      dup3\n      add\n      mload\n      dup2\n      0x02\n      add\n      sstore\n      pop\n      pop\n        /* \"TimeAllyPET.sol\":2895:3266  function createPETPlan(... */\n      pop\n      pop\n      jump\t// out\n        /* \"TimeAllyPET.sol\":7206:8057  function getSumOfMonthlyAnnuity(... */\n    tag_48:\n        /* \"TimeAllyPET.sol\":7377:7384  uint256 */\n      0x00\n        /* \"TimeAllyPET.sol\":7392:7408  PET storage _pet */\n      dup1\n        /* \"TimeAllyPET.sol\":7411:7415  pets */\n      0x04\n        /* \"TimeAllyPET.sol\":7411:7431  pets[_stakerAddress] */\n      0x00\n        /* \"TimeAllyPET.sol\":7416:7430  _stakerAddress */\n      dup8\n        /* \"TimeAllyPET.sol\":7411:7431  pets[_stakerAddress] */\n      0xffffffffffffffffffffffffffffffffffffffff\n      and\n      0xffffffffffffffffffffffffffffffffffffffff\n      and\n      dup2\n      mstore\n      0x20\n      add\n      swap1\n      dup2\n      mstore\n      0x20\n      add\n      0x00\n      keccak256\n        /* \"TimeAllyPET.sol\":7432:7438  _petId */\n      dup6\n        /* \"TimeAllyPET.sol\":7411:7439  pets[_stakerAddress][_petId] */\n      dup2\n      sload\n      dup2\n      lt\n      tag_155\n      jumpi\n      invalid\n    tag_155:\n      swap1\n      0x00\n      mstore\n      keccak256(0x00, 0x20)\n      swap1\n      0x09\n      mul\n      add\n        /* \"TimeAllyPET.sol\":7392:7439  PET storage _pet = pets[_stakerAddress][_petId] */\n      swap1\n      pop\n        /* \"TimeAllyPET.sol\":7445:7469  PETPlan storage _petPlan */\n      0x00\n        /* \"TimeAllyPET.sol\":7472:7480  petPlans */\n      0x03\n        /* \"TimeAllyPET.sol\":7481:7485  _pet */\n      dup3\n        /* \"TimeAllyPET.sol\":7481:7492  _pet.planId */\n      0x00\n      add\n      sload\n        /* \"TimeAllyPET.sol\":7472:7493  petPlans[_pet.planId] */\n      dup2\n      sload\n      dup2\n      lt\n      tag_157\n      jumpi\n      invalid\n    tag_157:\n      swap1\n      0x00\n      mstore\n      keccak256(0x00, 0x20)\n      swap1\n      0x03\n      mul\n      add\n        /* \"TimeAllyPET.sol\":7445:7493  PETPlan storage _petPlan = petPlans[_pet.planId] */\n      swap1\n      pop\n        /* \"TimeAllyPET.sol\":7500:7521  uint256 _sumOfAnnuity */\n      0x00\n        /* \"TimeAllyPET.sol\":7532:7542  uint256 _i */\n      dup1\n        /* \"TimeAllyPET.sol\":7545:7565  _startAnnuityMonthId */\n      dup7\n        /* \"TimeAllyPET.sol\":7532:7565  uint256 _i = _startAnnuityMonthId */\n      swap1\n      pop\n        /* \"TimeAllyPET.sol\":7528:7970  for(uint256 _i = _startAnnuityMonthId; _i <= _endAnnuityMonthId; _i++) {... */\n    tag_159:\n        /* \"TimeAllyPET.sol\":7573:7591  _endAnnuityMonthId */\n      dup6\n        /* \"TimeAllyPET.sol\":7567:7569  _i */\n      dup2\n        /* \"TimeAllyPET.sol\":7567:7591  _i <= _endAnnuityMonthId */\n      gt\n        /* \"TimeAllyPET.sol\":7528:7970  for(uint256 _i = _startAnnuityMonthId; _i <= _endAnnuityMonthId; _i++) {... */\n      tag_160\n      jumpi\n        /* \"TimeAllyPET.sol\":7607:7622  uint256 _modulo */\n      0x00\n        /* \"TimeAllyPET.sol\":7628:7630  12 */\n      0x0c\n        /* \"TimeAllyPET.sol\":7625:7627  _i */\n      dup3\n        /* \"TimeAllyPET.sol\":7625:7630  _i%12 */\n      dup2\n      tag_162\n      jumpi\n      invalid\n    tag_162:\n      mod\n        /* \"TimeAllyPET.sol\":7607:7630  uint256 _modulo = _i%12 */\n      swap1\n      pop\n        /* \"TimeAllyPET.sol\":7638:7672  uint256 _depositAmountIncludingPET */\n      0x00\n        /* \"TimeAllyPET.sol\":7675:7679  _pet */\n      dup6\n        /* \"TimeAllyPET.sol\":7675:7700  _pet.monthlyDepositAmount */\n      0x05\n      add\n        /* \"TimeAllyPET.sol\":7675:7723  _pet.monthlyDepositAmount[_modulo==0?12:_modulo] */\n      0x00\n        /* \"TimeAllyPET.sol\":7710:7711  0 */\n      dup1\n        /* \"TimeAllyPET.sol\":7701:7708  _modulo */\n      dup5\n        /* \"TimeAllyPET.sol\":7701:7711  _modulo==0 */\n      eq\n        /* \"TimeAllyPET.sol\":7701:7722  _modulo==0?12:_modulo */\n      tag_163\n      jumpi\n        /* \"TimeAllyPET.sol\":7715:7722  _modulo */\n      dup4\n        /* \"TimeAllyPET.sol\":7701:7722  _modulo==0?12:_modulo */\n      jump(tag_164)\n    tag_163:\n        /* \"TimeAllyPET.sol\":7712:7714  12 */\n      0x0c\n        /* \"TimeAllyPET.sol\":7701:7722  _modulo==0?12:_modulo */\n    tag_164:\n        /* \"TimeAllyPET.sol\":7675:7723  _pet.monthlyDepositAmount[_modulo==0?12:_modulo] */\n      dup2\n      mstore\n      0x20\n      add\n      swap1\n      dup2\n      mstore\n      0x20\n      add\n      0x00\n      keccak256\n      sload\n        /* \"TimeAllyPET.sol\":7638:7723  uint256 _depositAmountIncludingPET = _pet.monthlyDepositAmount[_modulo==0?12:_modulo] */\n      swap1\n      pop\n        /* \"TimeAllyPET.sol\":7765:7811  _petPlan.minimumMonthlyCommitmentAmount.div(2) */\n      tag_165\n        /* \"TimeAllyPET.sol\":7809:7810  2 */\n      0x02\n        /* \"TimeAllyPET.sol\":7765:7773  _petPlan */\n      dup7\n        /* \"TimeAllyPET.sol\":7765:7804  _petPlan.minimumMonthlyCommitmentAmount */\n      0x01\n      add\n      sload\n        /* \"TimeAllyPET.sol\":7765:7808  _petPlan.minimumMonthlyCommitmentAmount.div */\n      tag_144\n      swap1\n        /* \"TimeAllyPET.sol\":7765:7811  _petPlan.minimumMonthlyCommitmentAmount.div(2) */\n      swap2\n      swap1\n      0xffffffff\n      and\n      jump\t// in\n    tag_165:\n        /* \"TimeAllyPET.sol\":7735:7761  _depositAmountIncludingPET */\n      dup2\n        /* \"TimeAllyPET.sol\":7735:7811  _depositAmountIncludingPET >= _petPlan.minimumMonthlyCommitmentAmount.div(2) */\n      lt\n        /* \"TimeAllyPET.sol\":7732:7894  if(_depositAmountIncludingPET >= _petPlan.minimumMonthlyCommitmentAmount.div(2)) {... */\n      tag_166\n      jumpi\n        /* \"TimeAllyPET.sol\":7852:7885  _depositAmountIncludingPET.mul(2) */\n      tag_167\n        /* \"TimeAllyPET.sol\":7883:7884  2 */\n      0x02\n        /* \"TimeAllyPET.sol\":7852:7878  _depositAmountIncludingPET */\n      dup3\n        /* \"TimeAllyPET.sol\":7852:7882  _depositAmountIncludingPET.mul */\n      tag_147\n      swap1\n        /* \"TimeAllyPET.sol\":7852:7885  _depositAmountIncludingPET.mul(2) */\n      swap2\n      swap1\n      0xffffffff\n      and\n      jump\t// in\n    tag_167:\n        /* \"TimeAllyPET.sol\":7823:7885  _depositAmountIncludingPET = _depositAmountIncludingPET.mul(2) */\n      swap1\n      pop\n        /* \"TimeAllyPET.sol\":7732:7894  if(_depositAmountIncludingPET >= _petPlan.minimumMonthlyCommitmentAmount.div(2)) {... */\n    tag_166:\n        /* \"TimeAllyPET.sol\":7918:7963  _sumOfAnnuity.add(_depositAmountIncludingPET) */\n      tag_168\n        /* \"TimeAllyPET.sol\":7936:7962  _depositAmountIncludingPET */\n      dup2\n        /* \"TimeAllyPET.sol\":7918:7931  _sumOfAnnuity */\n      dup6\n        /* \"TimeAllyPET.sol\":7918:7935  _sumOfAnnuity.add */\n      tag_90\n      swap1\n        /* \"TimeAllyPET.sol\":7918:7963  _sumOfAnnuity.add(_depositAmountIncludingPET) */\n      swap2\n      swap1\n      0xffffffff\n      and\n      jump\t// in\n    tag_168:\n        /* \"TimeAllyPET.sol\":7902:7963  _sumOfAnnuity = _sumOfAnnuity.add(_depositAmountIncludingPET) */\n      swap4\n      pop\n        /* \"TimeAllyPET.sol\":7528:7970  for(uint256 _i = _startAnnuityMonthId; _i <= _endAnnuityMonthId; _i++) {... */\n      pop\n      pop\n        /* \"TimeAllyPET.sol\":7593:7597  _i++ */\n      dup1\n      dup1\n      0x01\n      add\n      swap2\n      pop\n      pop\n        /* \"TimeAllyPET.sol\":7528:7970  for(uint256 _i = _startAnnuityMonthId; _i <= _endAnnuityMonthId; _i++) {... */\n      jump(tag_159)\n    tag_160:\n      pop\n        /* \"TimeAllyPET.sol\":7983:8052  _sumOfAnnuity.mul(_petPlan.monthlyBenefitFactorPerThousand).div(1000) */\n      tag_169\n        /* \"TimeAllyPET.sol\":8047:8051  1000 */\n      0x03e8\n        /* \"TimeAllyPET.sol\":7983:8042  _sumOfAnnuity.mul(_petPlan.monthlyBenefitFactorPerThousand) */\n      tag_170\n        /* \"TimeAllyPET.sol\":8001:8009  _petPlan */\n      dup5\n        /* \"TimeAllyPET.sol\":8001:8041  _petPlan.monthlyBenefitFactorPerThousand */\n      0x02\n      add\n      sload\n        /* \"TimeAllyPET.sol\":7983:7996  _sumOfAnnuity */\n      dup5\n        /* \"TimeAllyPET.sol\":7983:8000  _sumOfAnnuity.mul */\n      tag_147\n      swap1\n        /* \"TimeAllyPET.sol\":7983:8042  _sumOfAnnuity.mul(_petPlan.monthlyBenefitFactorPerThousand) */\n      swap2\n      swap1\n      0xffffffff\n      and\n      jump\t// in\n    tag_170:\n        /* \"TimeAllyPET.sol\":7983:8046  _sumOfAnnuity.mul(_petPlan.monthlyBenefitFactorPerThousand).div */\n      tag_144\n      swap1\n        /* \"TimeAllyPET.sol\":7983:8052  _sumOfAnnuity.mul(_petPlan.monthlyBenefitFactorPerThousand).div(1000) */\n      swap2\n      swap1\n      0xffffffff\n      and\n      jump\t// in\n    tag_169:\n        /* \"TimeAllyPET.sol\":7976:8052  return _sumOfAnnuity.mul(_petPlan.monthlyBenefitFactorPerThousand).div(1000) */\n      swap4\n      pop\n      pop\n      pop\n      pop\n        /* \"TimeAllyPET.sol\":7206:8057  function getSumOfMonthlyAnnuity(... */\n      swap5\n      swap4\n      pop\n      pop\n      pop\n      pop\n      jump\t// out\n        /* \"TimeAllyPET.sol\":2574:2891  function sendPrepaidESDifferent(... */\n    tag_57:\n        /* \"TimeAllyPET.sol\":2691:2700  uint256 i */\n      0x00\n        /* \"TimeAllyPET.sol\":2703:2704  0 */\n      dup1\n        /* \"TimeAllyPET.sol\":2691:2704  uint256 i = 0 */\n      swap1\n      pop\n        /* \"TimeAllyPET.sol\":2687:2887  for(uint256 i = 0; i < _addresses.length; i++) {... */\n    tag_172:\n        /* \"TimeAllyPET.sol\":2710:2720  _addresses */\n      dup3\n        /* \"TimeAllyPET.sol\":2710:2727  _addresses.length */\n      mload\n        /* \"TimeAllyPET.sol\":2706:2707  i */\n      dup2\n        /* \"TimeAllyPET.sol\":2706:2727  i < _addresses.length */\n      lt\n        /* \"TimeAllyPET.sol\":2687:2887  for(uint256 i = 0; i < _addresses.length; i++) {... */\n      iszero\n      tag_173\n      jumpi\n        /* \"TimeAllyPET.sol\":2766:2804  prepaidES[msg.sender].sub(_amounts[i]) */\n      tag_175\n        /* \"TimeAllyPET.sol\":2792:2800  _amounts */\n      dup3\n        /* \"TimeAllyPET.sol\":2801:2802  i */\n      dup3\n        /* \"TimeAllyPET.sol\":2792:2803  _amounts[i] */\n      dup2\n      mload\n      dup2\n      lt\n      tag_176\n      jumpi\n      invalid\n    tag_176:\n      0x20\n      mul\n      0x20\n      add\n      add\n      mload\n        /* \"TimeAllyPET.sol\":2766:2775  prepaidES */\n      0x05\n        /* \"TimeAllyPET.sol\":2766:2787  prepaidES[msg.sender] */\n      0x00\n        /* \"TimeAllyPET.sol\":2776:2786  msg.sender */\n      caller\n        /* \"TimeAllyPET.sol\":2766:2787  prepaidES[msg.sender] */\n      0xffffffffffffffffffffffffffffffffffffffff\n      and\n      0xffffffffffffffffffffffffffffffffffffffff\n      and\n      dup2\n      mstore\n      0x20\n      add\n      swap1\n      dup2\n      mstore\n      0x20\n      add\n      0x00\n      keccak256\n      sload\n        /* \"TimeAllyPET.sol\":2766:2791  prepaidES[msg.sender].sub */\n      tag_95\n      swap1\n        /* \"TimeAllyPET.sol\":2766:2804  prepaidES[msg.sender].sub(_amounts[i]) */\n      swap2\n      swap1\n      0xffffffff\n      and\n      jump\t// in\n    tag_175:\n        /* \"TimeAllyPET.sol\":2742:2751  prepaidES */\n      0x05\n        /* \"TimeAllyPET.sol\":2742:2763  prepaidES[msg.sender] */\n      0x00\n        /* \"TimeAllyPET.sol\":2752:2762  msg.sender */\n      caller\n        /* \"TimeAllyPET.sol\":2742:2763  prepaidES[msg.sender] */\n      0xffffffffffffffffffffffffffffffffffffffff\n      and\n      0xffffffffffffffffffffffffffffffffffffffff\n      and\n      dup2\n      mstore\n      0x20\n      add\n      swap1\n      dup2\n      mstore\n      0x20\n      add\n      0x00\n      keccak256\n        /* \"TimeAllyPET.sol\":2742:2804  prepaidES[msg.sender] = prepaidES[msg.sender].sub(_amounts[i]) */\n      dup2\n      swap1\n      sstore\n      pop\n        /* \"TimeAllyPET.sol\":2839:2880  prepaidES[_addresses[i]].add(_amounts[i]) */\n      tag_177\n        /* \"TimeAllyPET.sol\":2868:2876  _amounts */\n      dup3\n        /* \"TimeAllyPET.sol\":2877:2878  i */\n      dup3\n        /* \"TimeAllyPET.sol\":2868:2879  _amounts[i] */\n      dup2\n      mload\n      dup2\n      lt\n      tag_178\n      jumpi\n      invalid\n    tag_178:\n      0x20\n      mul\n      0x20\n      add\n      add\n      mload\n        /* \"TimeAllyPET.sol\":2839:2848  prepaidES */\n      0x05\n        /* \"TimeAllyPET.sol\":2839:2863  prepaidES[_addresses[i]] */\n      0x00\n        /* \"TimeAllyPET.sol\":2849:2859  _addresses */\n      dup7\n        /* \"TimeAllyPET.sol\":2860:2861  i */\n      dup6\n        /* \"TimeAllyPET.sol\":2849:2862  _addresses[i] */\n      dup2\n      mload\n      dup2\n      lt\n      tag_179\n      jumpi\n      invalid\n    tag_179:\n      0x20\n      mul\n      0x20\n      add\n      add\n      mload\n        /* \"TimeAllyPET.sol\":2839:2863  prepaidES[_addresses[i]] */\n      0xffffffffffffffffffffffffffffffffffffffff\n      and\n      0xffffffffffffffffffffffffffffffffffffffff\n      and\n      dup2\n      mstore\n      0x20\n      add\n      swap1\n      dup2\n      mstore\n      0x20\n      add\n      0x00\n      keccak256\n      sload\n        /* \"TimeAllyPET.sol\":2839:2867  prepaidES[_addresses[i]].add */\n      tag_90\n      swap1\n        /* \"TimeAllyPET.sol\":2839:2880  prepaidES[_addresses[i]].add(_amounts[i]) */\n      swap2\n      swap1\n      0xffffffff\n      and\n      jump\t// in\n    tag_177:\n        /* \"TimeAllyPET.sol\":2812:2821  prepaidES */\n      0x05\n        /* \"TimeAllyPET.sol\":2812:2836  prepaidES[_addresses[i]] */\n      0x00\n        /* \"TimeAllyPET.sol\":2822:2832  _addresses */\n      dup6\n        /* \"TimeAllyPET.sol\":2833:2834  i */\n      dup5\n        /* \"TimeAllyPET.sol\":2822:2835  _addresses[i] */\n      dup2\n      mload\n      dup2\n      lt\n      tag_180\n      jumpi\n      invalid\n    tag_180:\n      0x20\n      mul\n      0x20\n      add\n      add\n      mload\n        /* \"TimeAllyPET.sol\":2812:2836  prepaidES[_addresses[i]] */\n      0xffffffffffffffffffffffffffffffffffffffff\n      and\n      0xffffffffffffffffffffffffffffffffffffffff\n      and\n      dup2\n      mstore\n      0x20\n      add\n      swap1\n      dup2\n      mstore\n      0x20\n      add\n      0x00\n      keccak256\n        /* \"TimeAllyPET.sol\":2812:2880  prepaidES[_addresses[i]] = prepaidES[_addresses[i]].add(_amounts[i]) */\n      dup2\n      swap1\n      sstore\n      pop\n        /* \"TimeAllyPET.sol\":2729:2732  i++ */\n      dup1\n      dup1\n      0x01\n      add\n      swap2\n      pop\n      pop\n        /* \"TimeAllyPET.sol\":2687:2887  for(uint256 i = 0; i < _addresses.length; i++) {... */\n      jump(tag_172)\n    tag_173:\n      pop\n        /* \"TimeAllyPET.sol\":2574:2891  function sendPrepaidESDifferent(... */\n      pop\n      pop\n      jump\t// out\n        /* \"TimeAllyPET.sol\":1468:1488  address public owner */\n    tag_59:\n      0x00\n      dup1\n      swap1\n      sload\n      swap1\n      0x0100\n      exp\n      swap1\n      div\n      0xffffffffffffffffffffffffffffffffffffffff\n      and\n      dup2\n      jump\t// out\n        /* \"TimeAllyPET.sol\":1688:1713  PETPlan[] public petPlans */\n    tag_62:\n      0x03\n      dup2\n      dup2\n      sload\n      dup2\n      lt\n      tag_181\n      jumpi\n      invalid\n    tag_181:\n      swap1\n      0x00\n      mstore\n      keccak256(0x00, 0x20)\n      swap1\n      0x03\n      mul\n      add\n      0x00\n      swap2\n      pop\n      swap1\n      pop\n      dup1\n      0x00\n      add\n      0x00\n      swap1\n      sload\n      swap1\n      0x0100\n      exp\n      swap1\n      div\n      0xff\n      and\n      swap1\n      dup1\n      0x01\n      add\n      sload\n      swap1\n      dup1\n      0x02\n      add\n      sload\n      swap1\n      pop\n      dup4\n      jump\t// out\n        /* \"TimeAllyPET.sol\":11398:12567  function withdrawPowerBooster(... */\n    tag_65:\n        /* \"TimeAllyPET.sol\":11528:11542  _stakerAddress */\n      dup3\n        /* \"TimeAllyPET.sol\":11544:11550  _petId */\n      dup3\n        /* \"TimeAllyPET.sol\":1973:1989  PET storage _pet */\n      0x00\n        /* \"TimeAllyPET.sol\":1992:1996  pets */\n      0x04\n        /* \"TimeAllyPET.sol\":1992:2012  pets[_stakerAddress] */\n      0x00\n        /* \"TimeAllyPET.sol\":1997:2011  _stakerAddress */\n      dup5\n        /* \"TimeAllyPET.sol\":1992:2012  pets[_stakerAddress] */\n      0xffffffffffffffffffffffffffffffffffffffff\n      and\n      0xffffffffffffffffffffffffffffffffffffffff\n      and\n      dup2\n      mstore\n      0x20\n      add\n      swap1\n      dup2\n      mstore\n      0x20\n      add\n      0x00\n      keccak256\n        /* \"TimeAllyPET.sol\":2013:2019  _petId */\n      dup3\n        /* \"TimeAllyPET.sol\":1992:2020  pets[_stakerAddress][_petId] */\n      dup2\n      sload\n      dup2\n      lt\n      tag_184\n      jumpi\n      invalid\n    tag_184:\n      swap1\n      0x00\n      mstore\n      keccak256(0x00, 0x20)\n      swap1\n      0x09\n      mul\n      add\n        /* \"TimeAllyPET.sol\":1973:2020  PET storage _pet = pets[_stakerAddress][_petId] */\n      swap1\n      pop\n        /* \"TimeAllyPET.sol\":2123:2137  _stakerAddress */\n      dup3\n        /* \"TimeAllyPET.sol\":2109:2137  msg.sender != _stakerAddress */\n      0xffffffffffffffffffffffffffffffffffffffff\n      and\n        /* \"TimeAllyPET.sol\":2109:2119  msg.sender */\n      caller\n        /* \"TimeAllyPET.sol\":2109:2137  msg.sender != _stakerAddress */\n      0xffffffffffffffffffffffffffffffffffffffff\n      and\n      eq\n        /* \"TimeAllyPET.sol\":2106:2218  if(msg.sender != _stakerAddress) {... */\n      tag_186\n      jumpi\n        /* \"TimeAllyPET.sol\":2155:2159  _pet */\n      dup1\n        /* \"TimeAllyPET.sol\":2155:2168  _pet.nominees */\n      0x07\n      add\n        /* \"TimeAllyPET.sol\":2155:2180  _pet.nominees[msg.sender] */\n      0x00\n        /* \"TimeAllyPET.sol\":2169:2179  msg.sender */\n      caller\n        /* \"TimeAllyPET.sol\":2155:2180  _pet.nominees[msg.sender] */\n      0xffffffffffffffffffffffffffffffffffffffff\n      and\n      0xffffffffffffffffffffffffffffffffffffffff\n      and\n      dup2\n      mstore\n      0x20\n      add\n      swap1\n      dup2\n      mstore\n      0x20\n      add\n      0x00\n      keccak256\n      0x00\n      swap1\n      sload\n      swap1\n      0x0100\n      exp\n      swap1\n      div\n      0xff\n      and\n        /* \"TimeAllyPET.sol\":2147:2211  require(_pet.nominees[msg.sender], 'nomination should be there') */\n      tag_187\n      jumpi\n      mload(0x40)\n      0x08c379a000000000000000000000000000000000000000000000000000000000\n      dup2\n      mstore\n      0x04\n      add\n      dup1\n      dup1\n      0x20\n      add\n      dup3\n      dup2\n      sub\n      dup3\n      mstore\n      0x1a\n      dup2\n      mstore\n      0x20\n      add\n      dup1\n      0x6e6f6d696e6174696f6e2073686f756c64206265207468657265000000000000\n      dup2\n      mstore\n      pop\n      0x20\n      add\n      swap2\n      pop\n      pop\n      mload(0x40)\n      dup1\n      swap2\n      sub\n      swap1\n      revert\n    tag_187:\n        /* \"TimeAllyPET.sol\":2106:2218  if(msg.sender != _stakerAddress) {... */\n    tag_186:\n        /* \"TimeAllyPET.sol\":11558:11574  PET storage _pet */\n      0x00\n        /* \"TimeAllyPET.sol\":11577:11581  pets */\n      0x04\n        /* \"TimeAllyPET.sol\":11577:11597  pets[_stakerAddress] */\n      0x00\n        /* \"TimeAllyPET.sol\":11582:11596  _stakerAddress */\n      dup9\n        /* \"TimeAllyPET.sol\":11577:11597  pets[_stakerAddress] */\n      0xffffffffffffffffffffffffffffffffffffffff\n      and\n      0xffffffffffffffffffffffffffffffffffffffff\n      and\n      dup2\n      mstore\n      0x20\n      add\n      swap1\n      dup2\n      mstore\n      0x20\n      add\n      0x00\n      keccak256\n        /* \"TimeAllyPET.sol\":11598:11604  _petId */\n      dup7\n        /* \"TimeAllyPET.sol\":11577:11605  pets[_stakerAddress][_petId] */\n      dup2\n      sload\n      dup2\n      lt\n      tag_189\n      jumpi\n      invalid\n    tag_189:\n      swap1\n      0x00\n      mstore\n      keccak256(0x00, 0x20)\n      swap1\n      0x09\n      mul\n      add\n        /* \"TimeAllyPET.sol\":11558:11605  PET storage _pet = pets[_stakerAddress][_petId] */\n      swap1\n      pop\n        /* \"TimeAllyPET.sol\":11611:11635  PETPlan storage _petPlan */\n      0x00\n        /* \"TimeAllyPET.sol\":11638:11646  petPlans */\n      0x03\n        /* \"TimeAllyPET.sol\":11647:11651  _pet */\n      dup3\n        /* \"TimeAllyPET.sol\":11647:11658  _pet.planId */\n      0x00\n      add\n      sload\n        /* \"TimeAllyPET.sol\":11638:11659  petPlans[_pet.planId] */\n      dup2\n      sload\n      dup2\n      lt\n      tag_191\n      jumpi\n      invalid\n    tag_191:\n      swap1\n      0x00\n      mstore\n      keccak256(0x00, 0x20)\n      swap1\n      0x03\n      mul\n      add\n        /* \"TimeAllyPET.sol\":11611:11659  PETPlan storage _petPlan = petPlans[_pet.planId] */\n      swap1\n      pop\n        /* \"TimeAllyPET.sol\":11686:11701  _powerBoosterId */\n      dup6\n        /* \"TimeAllyPET.sol\":11681:11682  1 */\n      0x01\n        /* \"TimeAllyPET.sol\":11681:11701  1 <= _powerBoosterId */\n      gt\n      iszero\n        /* \"TimeAllyPET.sol\":11681:11726  1 <= _powerBoosterId && _powerBoosterId <= 12 */\n      dup1\n      iszero\n      tag_193\n      jumpi\n      pop\n        /* \"TimeAllyPET.sol\":11724:11726  12 */\n      0x0c\n        /* \"TimeAllyPET.sol\":11705:11720  _powerBoosterId */\n      dup7\n        /* \"TimeAllyPET.sol\":11705:11726  _powerBoosterId <= 12 */\n      gt\n      iszero\n        /* \"TimeAllyPET.sol\":11681:11726  1 <= _powerBoosterId && _powerBoosterId <= 12 */\n    tag_193:\n        /* \"TimeAllyPET.sol\":11666:11764  require(... */\n      tag_194\n      jumpi\n      mload(0x40)\n      0x08c379a000000000000000000000000000000000000000000000000000000000\n      dup2\n      mstore\n      0x04\n      add\n      dup1\n      dup1\n      0x20\n      add\n      dup3\n      dup2\n      sub\n      dup3\n      mstore\n      0x15\n      dup2\n      mstore\n      0x20\n      add\n      dup1\n      0x69642073686f756c6420626520696e2072616e67650000000000000000000000\n      dup2\n      mstore\n      pop\n      0x20\n      add\n      swap2\n      pop\n      pop\n      mload(0x40)\n      dup1\n      swap2\n      sub\n      swap1\n      revert\n    tag_194:\n        /* \"TimeAllyPET.sol\":11787:11791  _pet */\n      dup2\n        /* \"TimeAllyPET.sol\":11787:11815  _pet.isPowerBoosterWithdrawn */\n      0x06\n      add\n        /* \"TimeAllyPET.sol\":11787:11832  _pet.isPowerBoosterWithdrawn[_powerBoosterId] */\n      0x00\n        /* \"TimeAllyPET.sol\":11816:11831  _powerBoosterId */\n      dup8\n        /* \"TimeAllyPET.sol\":11787:11832  _pet.isPowerBoosterWithdrawn[_powerBoosterId] */\n      dup2\n      mstore\n      0x20\n      add\n      swap1\n      dup2\n      mstore\n      0x20\n      add\n      0x00\n      keccak256\n      0x00\n      swap1\n      sload\n      swap1\n      0x0100\n      exp\n      swap1\n      div\n      0xff\n      and\n        /* \"TimeAllyPET.sol\":11786:11832  !_pet.isPowerBoosterWithdrawn[_powerBoosterId] */\n      iszero\n        /* \"TimeAllyPET.sol\":11771:11874  require(... */\n      tag_195\n      jumpi\n      mload(0x40)\n      0x08c379a000000000000000000000000000000000000000000000000000000000\n      dup2\n      mstore\n      0x04\n      add\n      dup1\n      dup1\n      0x20\n      add\n      dup3\n      dup2\n      sub\n      dup3\n      mstore\n      0x19\n      dup2\n      mstore\n      0x20\n      add\n      dup1\n      0x626f6f7374657220616c72656164792077697468647261776e00000000000000\n      dup2\n      mstore\n      pop\n      0x20\n      add\n      swap2\n      pop\n      pop\n      mload(0x40)\n      dup1\n      swap2\n      sub\n      swap1\n      revert\n    tag_195:\n        /* \"TimeAllyPET.sol\":11947:11955  _petPlan */\n      dup1\n        /* \"TimeAllyPET.sol\":11947:11986  _petPlan.minimumMonthlyCommitmentAmount */\n      0x01\n      add\n      sload\n        /* \"TimeAllyPET.sol\":11896:11900  _pet */\n      dup3\n        /* \"TimeAllyPET.sol\":11896:11921  _pet.monthlyDepositAmount */\n      0x05\n      add\n        /* \"TimeAllyPET.sol\":11896:11943  _pet.monthlyDepositAmount[13 - _powerBoosterId] */\n      0x00\n        /* \"TimeAllyPET.sol\":11927:11942  _powerBoosterId */\n      dup9\n        /* \"TimeAllyPET.sol\":11922:11924  13 */\n      0x0d\n        /* \"TimeAllyPET.sol\":11922:11942  13 - _powerBoosterId */\n      sub\n        /* \"TimeAllyPET.sol\":11896:11943  _pet.monthlyDepositAmount[13 - _powerBoosterId] */\n      dup2\n      mstore\n      0x20\n      add\n      swap1\n      dup2\n      mstore\n      0x20\n      add\n      0x00\n      keccak256\n      sload\n        /* \"TimeAllyPET.sol\":11896:11986  _pet.monthlyDepositAmount[13 - _powerBoosterId] >= _petPlan.minimumMonthlyCommitmentAmount */\n      lt\n      iszero\n        /* \"TimeAllyPET.sol\":11881:12022  require(... */\n      tag_196\n      jumpi\n      mload(0x40)\n      0x08c379a000000000000000000000000000000000000000000000000000000000\n      dup2\n      mstore\n      0x04\n      add\n      dup1\n      dup1\n      0x20\n      add\n      dup3\n      dup2\n      sub\n      dup3\n      mstore\n      0x13\n      dup2\n      mstore\n      0x20\n      add\n      dup1\n      0x746172676574206e6f7420616368696576656400000000000000000000000000\n      dup2\n      mstore\n      pop\n      0x20\n      add\n      swap2\n      pop\n      pop\n      mload(0x40)\n      dup1\n      swap2\n      sub\n      swap1\n      revert\n    tag_196:\n        /* \"TimeAllyPET.sol\":12029:12054  uint256 _allowedTimestamp */\n      0x00\n        /* \"TimeAllyPET.sol\":12057:12129  _getNomineeAllowedTimestamp(_stakerAddress, _petId, _powerBoosterId*5+1) */\n      tag_197\n        /* \"TimeAllyPET.sol\":12085:12099  _stakerAddress */\n      dup10\n        /* \"TimeAllyPET.sol\":12101:12107  _petId */\n      dup10\n        /* \"TimeAllyPET.sol\":12127:12128  1 */\n      0x01\n        /* \"TimeAllyPET.sol\":12125:12126  5 */\n      0x05\n        /* \"TimeAllyPET.sol\":12109:12124  _powerBoosterId */\n      dup12\n        /* \"TimeAllyPET.sol\":12109:12126  _powerBoosterId*5 */\n      mul\n        /* \"TimeAllyPET.sol\":12109:12128  _powerBoosterId*5+1 */\n      add\n        /* \"TimeAllyPET.sol\":12057:12084  _getNomineeAllowedTimestamp */\n      tag_122\n        /* \"TimeAllyPET.sol\":12057:12129  _getNomineeAllowedTimestamp(_stakerAddress, _petId, _powerBoosterId*5+1) */\n      jump\t// in\n    tag_197:\n        /* \"TimeAllyPET.sol\":12029:12129  uint256 _allowedTimestamp = _getNomineeAllowedTimestamp(_stakerAddress, _petId, _powerBoosterId*5+1) */\n      swap1\n      pop\n        /* \"TimeAllyPET.sol\":12158:12175  _allowedTimestamp */\n      dup1\n        /* \"TimeAllyPET.sol\":12151:12154  now */\n      timestamp\n        /* \"TimeAllyPET.sol\":12151:12175  now >= _allowedTimestamp */\n      lt\n      iszero\n        /* \"TimeAllyPET.sol\":12136:12213  require(... */\n      tag_198\n      jumpi\n      mload(0x40)\n      0x08c379a000000000000000000000000000000000000000000000000000000000\n      dup2\n      mstore\n      0x04\n      add\n      dup1\n      dup1\n      0x20\n      add\n      dup3\n      dup2\n      sub\n      dup3\n      mstore\n      0x15\n      dup2\n      mstore\n      0x20\n      add\n      dup1\n      0x63616e6e6f74207769746864726177206561726c790000000000000000000000\n      dup2\n      mstore\n      pop\n      0x20\n      add\n      swap2\n      pop\n      pop\n      mload(0x40)\n      dup1\n      swap2\n      sub\n      swap1\n      revert\n    tag_198:\n        /* \"TimeAllyPET.sol\":12220:12247  uint256 _powerBoosterAmount */\n      0x00\n        /* \"TimeAllyPET.sol\":12250:12301  calculatePowerBoosterAmount(_stakerAddress, _petId) */\n      tag_199\n        /* \"TimeAllyPET.sol\":12278:12292  _stakerAddress */\n      dup11\n        /* \"TimeAllyPET.sol\":12294:12300  _petId */\n      dup11\n        /* \"TimeAllyPET.sol\":12250:12277  calculatePowerBoosterAmount */\n      tag_42\n        /* \"TimeAllyPET.sol\":12250:12301  calculatePowerBoosterAmount(_stakerAddress, _petId) */\n      jump\t// in\n    tag_199:\n        /* \"TimeAllyPET.sol\":12220:12301  uint256 _powerBoosterAmount = calculatePowerBoosterAmount(_stakerAddress, _petId) */\n      swap1\n      pop\n        /* \"TimeAllyPET.sol\":12333:12334  0 */\n      0x00\n        /* \"TimeAllyPET.sol\":12311:12330  _powerBoosterAmount */\n      dup2\n        /* \"TimeAllyPET.sol\":12311:12334  _powerBoosterAmount > 0 */\n      gt\n        /* \"TimeAllyPET.sol\":12308:12563  if(_powerBoosterAmount > 0) {... */\n      iszero\n      tag_200\n      jumpi\n        /* \"TimeAllyPET.sol\":12392:12396  true */\n      0x01\n        /* \"TimeAllyPET.sol\":12344:12348  _pet */\n      dup5\n        /* \"TimeAllyPET.sol\":12344:12372  _pet.isPowerBoosterWithdrawn */\n      0x06\n      add\n        /* \"TimeAllyPET.sol\":12344:12389  _pet.isPowerBoosterWithdrawn[_powerBoosterId] */\n      0x00\n        /* \"TimeAllyPET.sol\":12373:12388  _powerBoosterId */\n      dup11\n        /* \"TimeAllyPET.sol\":12344:12389  _pet.isPowerBoosterWithdrawn[_powerBoosterId] */\n      dup2\n      mstore\n      0x20\n      add\n      swap1\n      dup2\n      mstore\n      0x20\n      add\n      0x00\n      keccak256\n      0x00\n        /* \"TimeAllyPET.sol\":12344:12396  _pet.isPowerBoosterWithdrawn[_powerBoosterId] = true */\n      0x0100\n      exp\n      dup2\n      sload\n      dup2\n      0xff\n      mul\n      not\n      and\n      swap1\n      dup4\n      iszero\n      iszero\n      mul\n      or\n      swap1\n      sstore\n      pop\n        /* \"TimeAllyPET.sol\":12509:12514  token */\n      0x02\n      0x00\n      swap1\n      sload\n      swap1\n      0x0100\n      exp\n      swap1\n      div\n      0xffffffffffffffffffffffffffffffffffffffff\n      and\n        /* \"TimeAllyPET.sol\":12509:12523  token.transfer */\n      0xffffffffffffffffffffffffffffffffffffffff\n      and\n      0xa9059cbb\n        /* \"TimeAllyPET.sol\":12524:12534  msg.sender */\n      caller\n        /* \"TimeAllyPET.sol\":12536:12555  _powerBoosterAmount */\n      dup4\n        /* \"TimeAllyPET.sol\":12509:12556  token.transfer(msg.sender, _powerBoosterAmount) */\n      mload(0x40)\n      dup4\n      0xffffffff\n      and\n      0xe0\n      shl\n      dup2\n      mstore\n      0x04\n      add\n      dup1\n      dup4\n      0xffffffffffffffffffffffffffffffffffffffff\n      and\n      0xffffffffffffffffffffffffffffffffffffffff\n      and\n      dup2\n      mstore\n      0x20\n      add\n      dup3\n      dup2\n      mstore\n      0x20\n      add\n      swap3\n      pop\n      pop\n      pop\n      0x20\n      mload(0x40)\n      dup1\n      dup4\n      sub\n      dup2\n      0x00\n      dup8\n      dup1\n      extcodesize\n      iszero\n        /* \"--CODEGEN--\":8:17   */\n      dup1\n        /* \"--CODEGEN--\":5:7   */\n      iszero\n      tag_201\n      jumpi\n        /* \"--CODEGEN--\":30:31   */\n      0x00\n        /* \"--CODEGEN--\":27:28   */\n      dup1\n        /* \"--CODEGEN--\":20:32   */\n      revert\n        /* \"--CODEGEN--\":5:7   */\n    tag_201:\n        /* \"TimeAllyPET.sol\":12509:12556  token.transfer(msg.sender, _powerBoosterAmount) */\n      pop\n      gas\n      call\n      iszero\n        /* \"--CODEGEN--\":8:17   */\n      dup1\n        /* \"--CODEGEN--\":5:7   */\n      iszero\n      tag_203\n      jumpi\n        /* \"--CODEGEN--\":45:61   */\n      returndatasize\n        /* \"--CODEGEN--\":42:43   */\n      0x00\n        /* \"--CODEGEN--\":39:40   */\n      dup1\n        /* \"--CODEGEN--\":24:62   */\n      returndatacopy\n        /* \"--CODEGEN--\":77:93   */\n      returndatasize\n        /* \"--CODEGEN--\":74:75   */\n      0x00\n        /* \"--CODEGEN--\":67:94   */\n      revert\n        /* \"--CODEGEN--\":5:7   */\n    tag_203:\n        /* \"TimeAllyPET.sol\":12509:12556  token.transfer(msg.sender, _powerBoosterAmount) */\n      pop\n      pop\n      pop\n      pop\n      mload(0x40)\n      returndatasize\n        /* \"--CODEGEN--\":13:15   */\n      0x20\n        /* \"--CODEGEN--\":8:11   */\n      dup2\n        /* \"--CODEGEN--\":5:16   */\n      lt\n        /* \"--CODEGEN--\":2:4   */\n      iszero\n      tag_204\n      jumpi\n        /* \"--CODEGEN--\":29:30   */\n      0x00\n        /* \"--CODEGEN--\":26:27   */\n      dup1\n        /* \"--CODEGEN--\":19:31   */\n      revert\n        /* \"--CODEGEN--\":2:4   */\n    tag_204:\n        /* \"TimeAllyPET.sol\":12509:12556  token.transfer(msg.sender, _powerBoosterAmount) */\n      dup2\n      add\n      swap1\n      dup1\n      dup1\n      mload\n      swap1\n      0x20\n      add\n      swap1\n      swap3\n      swap2\n      swap1\n      pop\n      pop\n      pop\n      pop\n        /* \"TimeAllyPET.sol\":12308:12563  if(_powerBoosterAmount > 0) {... */\n    tag_200:\n        /* \"TimeAllyPET.sol\":2223:2224  _ */\n      pop\n      pop\n      pop\n      pop\n        /* \"TimeAllyPET.sol\":11398:12567  function withdrawPowerBooster(... */\n      pop\n      pop\n      pop\n      pop\n      pop\n      pop\n      jump\t// out\n        /* \"TimeAllyPET.sol\":3330:3682  function newPET(... */\n    tag_68:\n        /* \"TimeAllyPET.sol\":3399:3407  petPlans */\n      0x03\n        /* \"TimeAllyPET.sol\":3408:3415  _planId */\n      dup2\n        /* \"TimeAllyPET.sol\":3399:3416  petPlans[_planId] */\n      dup2\n      sload\n      dup2\n      lt\n      tag_206\n      jumpi\n      invalid\n    tag_206:\n      swap1\n      0x00\n      mstore\n      keccak256(0x00, 0x20)\n      swap1\n      0x03\n      mul\n      add\n        /* \"TimeAllyPET.sol\":3399:3429  petPlans[_planId].isPlanActive */\n      0x00\n      add\n      0x00\n      swap1\n      sload\n      swap1\n      0x0100\n      exp\n      swap1\n      div\n      0xff\n      and\n        /* \"TimeAllyPET.sol\":3384:3468  require(... */\n      tag_208\n      jumpi\n      mload(0x40)\n      0x08c379a000000000000000000000000000000000000000000000000000000000\n      dup2\n      mstore\n      0x04\n      add\n      dup1\n      dup1\n      0x20\n      add\n      dup3\n      dup2\n      sub\n      dup3\n      mstore\n      0x16\n      dup2\n      mstore\n      0x20\n      add\n      dup1\n      0x50455420706c616e206973206e6f742061637469766500000000000000000000\n      dup2\n      mstore\n      pop\n      0x20\n      add\n      swap2\n      pop\n      pop\n      mload(0x40)\n      dup1\n      swap2\n      sub\n      swap1\n      revert\n    tag_208:\n        /* \"TimeAllyPET.sol\":3475:3479  pets */\n      0x04\n        /* \"TimeAllyPET.sol\":3475:3491  pets[msg.sender] */\n      0x00\n        /* \"TimeAllyPET.sol\":3480:3490  msg.sender */\n      caller\n        /* \"TimeAllyPET.sol\":3475:3491  pets[msg.sender] */\n      0xffffffffffffffffffffffffffffffffffffffff\n      and\n      0xffffffffffffffffffffffffffffffffffffffff\n      and\n      dup2\n      mstore\n      0x20\n      add\n      swap1\n      dup2\n      mstore\n      0x20\n      add\n      0x00\n      keccak256\n        /* \"TimeAllyPET.sol\":3497:3649  PET({... */\n      mload(0x40)\n      dup1\n      0xa0\n      add\n      0x40\n      mstore\n      dup1\n        /* \"TimeAllyPET.sol\":3517:3524  _planId */\n      dup4\n        /* \"TimeAllyPET.sol\":3497:3649  PET({... */\n      dup2\n      mstore\n      0x20\n      add\n        /* \"TimeAllyPET.sol\":3547:3550  now */\n      timestamp\n        /* \"TimeAllyPET.sol\":3497:3649  PET({... */\n      dup2\n      mstore\n      0x20\n      add\n        /* \"TimeAllyPET.sol\":3587:3588  0 */\n      0x00\n        /* \"TimeAllyPET.sol\":3497:3649  PET({... */\n      dup2\n      mstore\n      0x20\n      add\n        /* \"TimeAllyPET.sol\":3612:3613  0 */\n      0x00\n        /* \"TimeAllyPET.sol\":3497:3649  PET({... */\n      dup2\n      mstore\n      0x20\n      add\n        /* \"TimeAllyPET.sol\":3641:3642  0 */\n      0x00\n        /* \"TimeAllyPET.sol\":3497:3649  PET({... */\n      dup2\n      mstore\n      pop\n        /* \"TimeAllyPET.sol\":3475:3650  pets[msg.sender].push(PET({... */\n      swap1\n      dup1\n        /* \"--CODEGEN--\":39:40   */\n      0x01\n        /* \"--CODEGEN--\":33:36   */\n      dup2\n        /* \"--CODEGEN--\":27:37   */\n      sload\n        /* \"--CODEGEN--\":23:41   */\n      add\n        /* \"--CODEGEN--\":57:67   */\n      dup1\n        /* \"--CODEGEN--\":52:55   */\n      dup3\n        /* \"--CODEGEN--\":45:68   */\n      sstore\n        /* \"--CODEGEN--\":79:89   */\n      dup1\n        /* \"--CODEGEN--\":72:89   */\n      swap2\n      pop\n        /* \"--CODEGEN--\":0:93   */\n      pop\n        /* \"TimeAllyPET.sol\":3475:3650  pets[msg.sender].push(PET({... */\n      0x01\n      swap1\n      sub\n      swap1\n      0x00\n      mstore\n      keccak256(0x00, 0x20)\n      swap1\n      0x09\n      mul\n      add\n      0x00\n      swap1\n      swap2\n      swap1\n      swap2\n      swap1\n      swap2\n      pop\n      0x00\n      dup3\n      add\n      mload\n      dup2\n      0x00\n      add\n      sstore\n      0x20\n      dup3\n      add\n      mload\n      dup2\n      0x01\n      add\n      sstore\n      0x40\n      dup3\n      add\n      mload\n      dup2\n      0x02\n      add\n      sstore\n      0x60\n      dup3\n      add\n      mload\n      dup2\n      0x03\n      add\n      sstore\n      0x80\n      dup3\n      add\n      mload\n      dup2\n      0x04\n      add\n      sstore\n      pop\n      pop\n        /* \"TimeAllyPET.sol\":3330:3682  function newPET(... */\n      pop\n      jump\t// out\n        /* \"TimeAllyPET.sol\":3686:3902  function getMonthlyDepositedAmount(... */\n    tag_71:\n        /* \"TimeAllyPET.sol\":3816:3823  uint256 */\n      0x00\n        /* \"TimeAllyPET.sol\":3838:3842  pets */\n      0x04\n        /* \"TimeAllyPET.sol\":3838:3858  pets[_stakerAddress] */\n      0x00\n        /* \"TimeAllyPET.sol\":3843:3857  _stakerAddress */\n      dup6\n        /* \"TimeAllyPET.sol\":3838:3858  pets[_stakerAddress] */\n      0xffffffffffffffffffffffffffffffffffffffff\n      and\n      0xffffffffffffffffffffffffffffffffffffffff\n      and\n      dup2\n      mstore\n      0x20\n      add\n      swap1\n      dup2\n      mstore\n      0x20\n      add\n      0x00\n      keccak256\n        /* \"TimeAllyPET.sol\":3859:3865  _petId */\n      dup4\n        /* \"TimeAllyPET.sol\":3838:3866  pets[_stakerAddress][_petId] */\n      dup2\n      sload\n      dup2\n      lt\n      tag_211\n      jumpi\n      invalid\n    tag_211:\n      swap1\n      0x00\n      mstore\n      keccak256(0x00, 0x20)\n      swap1\n      0x09\n      mul\n      add\n        /* \"TimeAllyPET.sol\":3838:3887  pets[_stakerAddress][_petId].monthlyDepositAmount */\n      0x05\n      add\n        /* \"TimeAllyPET.sol\":3838:3897  pets[_stakerAddress][_petId].monthlyDepositAmount[_monthId] */\n      0x00\n        /* \"TimeAllyPET.sol\":3888:3896  _monthId */\n      dup4\n        /* \"TimeAllyPET.sol\":3838:3897  pets[_stakerAddress][_petId].monthlyDepositAmount[_monthId] */\n      dup2\n      mstore\n      0x20\n      add\n      swap1\n      dup2\n      mstore\n      0x20\n      add\n      0x00\n      keccak256\n      sload\n        /* \"TimeAllyPET.sol\":3831:3897  return pets[_stakerAddress][_petId].monthlyDepositAmount[_monthId] */\n      swap1\n      pop\n        /* \"TimeAllyPET.sol\":3686:3902  function getMonthlyDepositedAmount(... */\n      swap4\n      swap3\n      pop\n      pop\n      pop\n      jump\t// out\n        /* \"TimeAllyPET.sol\":1760:1804  mapping(address => uint256) public prepaidES */\n    tag_74:\n      mstore(0x20, 0x05)\n      dup1\n      0x00\n      mstore\n      keccak256(0x00, 0x40)\n      0x00\n      swap2\n      pop\n      swap1\n      pop\n      sload\n      dup2\n      jump\t// out\n        /* \"TimeAllyPET.sol\":1522:1540  ERC20 public token */\n    tag_76:\n      0x02\n      0x00\n      swap1\n      sload\n      swap1\n      0x0100\n      exp\n      swap1\n      div\n      0xffffffffffffffffffffffffffffffffffffffff\n      and\n      dup2\n      jump\t// out\n        /* \"SafeMath.sol\":834:1010  function add(uint256 a, uint256 b) internal pure returns (uint256) {... */\n    tag_90:\n        /* \"SafeMath.sol\":892:899  uint256 */\n      0x00\n        /* \"SafeMath.sol\":911:920  uint256 c */\n      dup1\n        /* \"SafeMath.sol\":927:928  b */\n      dup3\n        /* \"SafeMath.sol\":923:924  a */\n      dup5\n        /* \"SafeMath.sol\":923:928  a + b */\n      add\n        /* \"SafeMath.sol\":911:928  uint256 c = a + b */\n      swap1\n      pop\n        /* \"SafeMath.sol\":951:952  a */\n      dup4\n        /* \"SafeMath.sol\":946:947  c */\n      dup2\n        /* \"SafeMath.sol\":946:952  c >= a */\n      lt\n      iszero\n        /* \"SafeMath.sol\":938:984  require(c >= a, \"SafeMath: addition overflow\") */\n      tag_214\n      jumpi\n      mload(0x40)\n      0x08c379a000000000000000000000000000000000000000000000000000000000\n      dup2\n      mstore\n      0x04\n      add\n      dup1\n      dup1\n      0x20\n      add\n      dup3\n      dup2\n      sub\n      dup3\n      mstore\n      0x1b\n      dup2\n      mstore\n      0x20\n      add\n      dup1\n      0x536166654d6174683a206164646974696f6e206f766572666c6f770000000000\n      dup2\n      mstore\n      pop\n      0x20\n      add\n      swap2\n      pop\n      pop\n      mload(0x40)\n      dup1\n      swap2\n      sub\n      swap1\n      revert\n    tag_214:\n        /* \"SafeMath.sol\":1002:1003  c */\n      dup1\n        /* \"SafeMath.sol\":995:1003  return c */\n      swap2\n      pop\n      pop\n        /* \"SafeMath.sol\":834:1010  function add(uint256 a, uint256 b) internal pure returns (uint256) {... */\n      swap3\n      swap2\n      pop\n      pop\n      jump\t// out\n        /* \"TimeAllyPET.sol\":4112:5101  function _getBenefitAllocationByDepositAmount(uint256 _amount, uint256 _planId) private returns (uint256) {... */\n    tag_92:\n        /* \"TimeAllyPET.sol\":4209:4216  uint256 */\n      0x00\n        /* \"TimeAllyPET.sol\":4224:4248  PETPlan storage _petPlan */\n      dup1\n        /* \"TimeAllyPET.sol\":4251:4259  petPlans */\n      0x03\n        /* \"TimeAllyPET.sol\":4260:4267  _planId */\n      dup4\n        /* \"TimeAllyPET.sol\":4251:4268  petPlans[_planId] */\n      dup2\n      sload\n      dup2\n      lt\n      tag_216\n      jumpi\n      invalid\n    tag_216:\n      swap1\n      0x00\n      mstore\n      keccak256(0x00, 0x20)\n      swap1\n      0x03\n      mul\n      add\n        /* \"TimeAllyPET.sol\":4224:4268  PETPlan storage _petPlan = petPlans[_planId] */\n      swap1\n      pop\n        /* \"TimeAllyPET.sol\":4335:4369  uint256 _depositAmountIncludingPET */\n      0x00\n        /* \"TimeAllyPET.sol\":4372:4379  _amount */\n      dup5\n        /* \"TimeAllyPET.sol\":4335:4379  uint256 _depositAmountIncludingPET = _amount */\n      swap1\n      pop\n        /* \"TimeAllyPET.sol\":4385:4411  uint256 _benefitAllocation */\n      0x00\n        /* \"TimeAllyPET.sol\":4509:4555  _petPlan.minimumMonthlyCommitmentAmount.div(2) */\n      tag_218\n        /* \"TimeAllyPET.sol\":4553:4554  2 */\n      0x02\n        /* \"TimeAllyPET.sol\":4509:4517  _petPlan */\n      dup5\n        /* \"TimeAllyPET.sol\":4509:4548  _petPlan.minimumMonthlyCommitmentAmount */\n      0x01\n      add\n      sload\n        /* \"TimeAllyPET.sol\":4509:4552  _petPlan.minimumMonthlyCommitmentAmount.div */\n      tag_144\n      swap1\n        /* \"TimeAllyPET.sol\":4509:4555  _petPlan.minimumMonthlyCommitmentAmount.div(2) */\n      swap2\n      swap1\n      0xffffffff\n      and\n      jump\t// in\n    tag_218:\n        /* \"TimeAllyPET.sol\":4498:4505  _amount */\n      dup7\n        /* \"TimeAllyPET.sol\":4498:4555  _amount >= _petPlan.minimumMonthlyCommitmentAmount.div(2) */\n      lt\n        /* \"TimeAllyPET.sol\":4495:4670  if(_amount >= _petPlan.minimumMonthlyCommitmentAmount.div(2)) {... */\n      tag_219\n      jumpi\n        /* \"TimeAllyPET.sol\":4594:4627  _depositAmountIncludingPET.mul(2) */\n      tag_220\n        /* \"TimeAllyPET.sol\":4625:4626  2 */\n      0x02\n        /* \"TimeAllyPET.sol\":4594:4620  _depositAmountIncludingPET */\n      dup4\n        /* \"TimeAllyPET.sol\":4594:4624  _depositAmountIncludingPET.mul */\n      tag_147\n      swap1\n        /* \"TimeAllyPET.sol\":4594:4627  _depositAmountIncludingPET.mul(2) */\n      swap2\n      swap1\n      0xffffffff\n      and\n      jump\t// in\n    tag_220:\n        /* \"TimeAllyPET.sol\":4565:4627  _depositAmountIncludingPET = _depositAmountIncludingPET.mul(2) */\n      swap2\n      pop\n        /* \"TimeAllyPET.sol\":4656:4663  _amount */\n      dup6\n        /* \"TimeAllyPET.sol\":4635:4663  _benefitAllocation = _amount */\n      swap1\n      pop\n        /* \"TimeAllyPET.sol\":4495:4670  if(_amount >= _petPlan.minimumMonthlyCommitmentAmount.div(2)) {... */\n    tag_219:\n        /* \"TimeAllyPET.sol\":4758:4883  _benefitAllocation.add(... */\n      tag_221\n        /* \"TimeAllyPET.sol\":4788:4877  _depositAmountIncludingPET.mul(_petPlan.monthlyBenefitFactorPerThousand).mul(5).div(1000) */\n      tag_222\n        /* \"TimeAllyPET.sol\":4872:4876  1000 */\n      0x03e8\n        /* \"TimeAllyPET.sol\":4788:4867  _depositAmountIncludingPET.mul(_petPlan.monthlyBenefitFactorPerThousand).mul(5) */\n      tag_223\n        /* \"TimeAllyPET.sol\":4865:4866  5 */\n      0x05\n        /* \"TimeAllyPET.sol\":4788:4860  _depositAmountIncludingPET.mul(_petPlan.monthlyBenefitFactorPerThousand) */\n      tag_224\n        /* \"TimeAllyPET.sol\":4819:4827  _petPlan */\n      dup9\n        /* \"TimeAllyPET.sol\":4819:4859  _petPlan.monthlyBenefitFactorPerThousand */\n      0x02\n      add\n      sload\n        /* \"TimeAllyPET.sol\":4788:4814  _depositAmountIncludingPET */\n      dup9\n        /* \"TimeAllyPET.sol\":4788:4818  _depositAmountIncludingPET.mul */\n      tag_147\n      swap1\n        /* \"TimeAllyPET.sol\":4788:4860  _depositAmountIncludingPET.mul(_petPlan.monthlyBenefitFactorPerThousand) */\n      swap2\n      swap1\n      0xffffffff\n      and\n      jump\t// in\n    tag_224:\n        /* \"TimeAllyPET.sol\":4788:4864  _depositAmountIncludingPET.mul(_petPlan.monthlyBenefitFactorPerThousand).mul */\n      tag_147\n      swap1\n        /* \"TimeAllyPET.sol\":4788:4867  _depositAmountIncludingPET.mul(_petPlan.monthlyBenefitFactorPerThousand).mul(5) */\n      swap2\n      swap1\n      0xffffffff\n      and\n      jump\t// in\n    tag_223:\n        /* \"TimeAllyPET.sol\":4788:4871  _depositAmountIncludingPET.mul(_petPlan.monthlyBenefitFactorPerThousand).mul(5).div */\n      tag_144\n      swap1\n        /* \"TimeAllyPET.sol\":4788:4877  _depositAmountIncludingPET.mul(_petPlan.monthlyBenefitFactorPerThousand).mul(5).div(1000) */\n      swap2\n      swap1\n      0xffffffff\n      and\n      jump\t// in\n    tag_222:\n        /* \"TimeAllyPET.sol\":4758:4776  _benefitAllocation */\n      dup3\n        /* \"TimeAllyPET.sol\":4758:4780  _benefitAllocation.add */\n      tag_90\n      swap1\n        /* \"TimeAllyPET.sol\":4758:4883  _benefitAllocation.add(... */\n      swap2\n      swap1\n      0xffffffff\n      and\n      jump\t// in\n    tag_221:\n        /* \"TimeAllyPET.sol\":4737:4883  _benefitAllocation = _benefitAllocation.add(... */\n      swap1\n      pop\n        /* \"TimeAllyPET.sol\":5078:5096  _benefitAllocation */\n      dup1\n        /* \"TimeAllyPET.sol\":5071:5096  return _benefitAllocation */\n      swap4\n      pop\n      pop\n      pop\n      pop\n        /* \"TimeAllyPET.sol\":4112:5101  function _getBenefitAllocationByDepositAmount(uint256 _amount, uint256 _planId) private returns (uint256) {... */\n      swap3\n      swap2\n      pop\n      pop\n      jump\t// out\n        /* \"SafeMath.sol\":1274:1408  function sub(uint256 a, uint256 b) internal pure returns (uint256) {... */\n    tag_95:\n        /* \"SafeMath.sol\":1332:1339  uint256 */\n      0x00\n        /* \"SafeMath.sol\":1358:1401  sub(a, b, \"SafeMath: subtraction overflow\") */\n      tag_226\n        /* \"SafeMath.sol\":1362:1363  a */\n      dup4\n        /* \"SafeMath.sol\":1365:1366  b */\n      dup4\n        /* \"SafeMath.sol\":1358:1401  sub(a, b, \"SafeMath: subtraction overflow\") */\n      mload(0x40)\n      dup1\n      0x40\n      add\n      0x40\n      mstore\n      dup1\n      0x1e\n      dup2\n      mstore\n      0x20\n      add\n      0x536166654d6174683a207375627472616374696f6e206f766572666c6f770000\n      dup2\n      mstore\n      pop\n        /* \"SafeMath.sol\":1358:1361  sub */\n      tag_227\n        /* \"SafeMath.sol\":1358:1401  sub(a, b, \"SafeMath: subtraction overflow\") */\n      jump\t// in\n    tag_226:\n        /* \"SafeMath.sol\":1351:1401  return sub(a, b, \"SafeMath: subtraction overflow\") */\n      swap1\n      pop\n        /* \"SafeMath.sol\":1274:1408  function sub(uint256 a, uint256 b) internal pure returns (uint256) {... */\n      swap3\n      swap2\n      pop\n      pop\n      jump\t// out\n        /* \"TimeAllyPET.sol\":8061:8654  function _getNomineeAllowedTimestamp(... */\n    tag_122:\n        /* \"TimeAllyPET.sol\":8201:8208  uint256 */\n      0x00\n        /* \"TimeAllyPET.sol\":8216:8232  PET storage _pet */\n      dup1\n        /* \"TimeAllyPET.sol\":8235:8239  pets */\n      0x04\n        /* \"TimeAllyPET.sol\":8235:8255  pets[_stakerAddress] */\n      0x00\n        /* \"TimeAllyPET.sol\":8240:8254  _stakerAddress */\n      dup7\n        /* \"TimeAllyPET.sol\":8235:8255  pets[_stakerAddress] */\n      0xffffffffffffffffffffffffffffffffffffffff\n      and\n      0xffffffffffffffffffffffffffffffffffffffff\n      and\n      dup2\n      mstore\n      0x20\n      add\n      swap1\n      dup2\n      mstore\n      0x20\n      add\n      0x00\n      keccak256\n        /* \"TimeAllyPET.sol\":8256:8262  _petId */\n      dup5\n        /* \"TimeAllyPET.sol\":8235:8263  pets[_stakerAddress][_petId] */\n      dup2\n      sload\n      dup2\n      lt\n      tag_229\n      jumpi\n      invalid\n    tag_229:\n      swap1\n      0x00\n      mstore\n      keccak256(0x00, 0x20)\n      swap1\n      0x09\n      mul\n      add\n        /* \"TimeAllyPET.sol\":8216:8263  PET storage _pet = pets[_stakerAddress][_petId] */\n      swap1\n      pop\n        /* \"TimeAllyPET.sol\":8269:8294  uint256 _allowedTimestamp */\n      0x00\n        /* \"TimeAllyPET.sol\":1587:1594  2629744 */\n      0x282070\n        /* \"TimeAllyPET.sol\":8342:8343  1 */\n      0x01\n        /* \"TimeAllyPET.sol\":8324:8339  _annuityMonthId */\n      dup6\n        /* \"TimeAllyPET.sol\":8319:8321  12 */\n      0x0c\n        /* \"TimeAllyPET.sol\":8319:8339  12 + _annuityMonthId */\n      add\n        /* \"TimeAllyPET.sol\":8319:8343  12 + _annuityMonthId - 1 */\n      sub\n        /* \"TimeAllyPET.sol\":8318:8369  (12 + _annuityMonthId - 1) * EARTH_SECONDS_IN_MONTH */\n      mul\n        /* \"TimeAllyPET.sol\":8297:8301  _pet */\n      dup3\n        /* \"TimeAllyPET.sol\":8297:8315  _pet.initTimestamp */\n      0x01\n      add\n      sload\n        /* \"TimeAllyPET.sol\":8297:8369  _pet.initTimestamp + (12 + _annuityMonthId - 1) * EARTH_SECONDS_IN_MONTH */\n      add\n        /* \"TimeAllyPET.sol\":8269:8369  uint256 _allowedTimestamp = _pet.initTimestamp + (12 + _annuityMonthId - 1) * EARTH_SECONDS_IN_MONTH */\n      swap1\n      pop\n        /* \"TimeAllyPET.sol\":8393:8407  _stakerAddress */\n      dup6\n        /* \"TimeAllyPET.sol\":8379:8407  msg.sender != _stakerAddress */\n      0xffffffffffffffffffffffffffffffffffffffff\n      and\n        /* \"TimeAllyPET.sol\":8379:8389  msg.sender */\n      caller\n        /* \"TimeAllyPET.sol\":8379:8407  msg.sender != _stakerAddress */\n      0xffffffffffffffffffffffffffffffffffffffff\n      and\n      eq\n        /* \"TimeAllyPET.sol\":8376:8619  if(msg.sender != _stakerAddress) {... */\n      tag_231\n      jumpi\n        /* \"TimeAllyPET.sol\":8442:8472  _pet.numberOfAppointees.div(2) */\n      tag_232\n        /* \"TimeAllyPET.sol\":8470:8471  2 */\n      0x02\n        /* \"TimeAllyPET.sol\":8442:8446  _pet */\n      dup4\n        /* \"TimeAllyPET.sol\":8442:8465  _pet.numberOfAppointees */\n      0x04\n      add\n      sload\n        /* \"TimeAllyPET.sol\":8442:8469  _pet.numberOfAppointees.div */\n      tag_144\n      swap1\n        /* \"TimeAllyPET.sol\":8442:8472  _pet.numberOfAppointees.div(2) */\n      swap2\n      swap1\n      0xffffffff\n      and\n      jump\t// in\n    tag_232:\n        /* \"TimeAllyPET.sol\":8420:8424  _pet */\n      dup3\n        /* \"TimeAllyPET.sol\":8420:8439  _pet.appointeeVotes */\n      0x03\n      add\n      sload\n        /* \"TimeAllyPET.sol\":8420:8472  _pet.appointeeVotes > _pet.numberOfAppointees.div(2) */\n      gt\n        /* \"TimeAllyPET.sol\":8417:8613  if(_pet.appointeeVotes > _pet.numberOfAppointees.div(2)) {... */\n      iszero\n      tag_233\n      jumpi\n        /* \"TimeAllyPET.sol\":8530:8531  6 */\n      0x06\n        /* \"TimeAllyPET.sol\":1587:1594  2629744 */\n      0x282070\n        /* \"TimeAllyPET.sol\":8505:8531  EARTH_SECONDS_IN_MONTH * 6 */\n      mul\n        /* \"TimeAllyPET.sol\":8484:8531  _allowedTimestamp += EARTH_SECONDS_IN_MONTH * 6 */\n      dup2\n      add\n      swap1\n      pop\n        /* \"TimeAllyPET.sol\":8417:8613  if(_pet.appointeeVotes > _pet.numberOfAppointees.div(2)) {... */\n      jump(tag_234)\n    tag_233:\n        /* \"TimeAllyPET.sol\":8602:8604  12 */\n      0x0c\n        /* \"TimeAllyPET.sol\":1587:1594  2629744 */\n      0x282070\n        /* \"TimeAllyPET.sol\":8577:8604  EARTH_SECONDS_IN_MONTH * 12 */\n      mul\n        /* \"TimeAllyPET.sol\":8556:8604  _allowedTimestamp += EARTH_SECONDS_IN_MONTH * 12 */\n      dup2\n      add\n      swap1\n      pop\n        /* \"TimeAllyPET.sol\":8417:8613  if(_pet.appointeeVotes > _pet.numberOfAppointees.div(2)) {... */\n    tag_234:\n        /* \"TimeAllyPET.sol\":8376:8619  if(msg.sender != _stakerAddress) {... */\n    tag_231:\n        /* \"TimeAllyPET.sol\":8632:8649  _allowedTimestamp */\n      dup1\n        /* \"TimeAllyPET.sol\":8625:8649  return _allowedTimestamp */\n      swap3\n      pop\n      pop\n      pop\n        /* \"TimeAllyPET.sol\":8061:8654  function _getNomineeAllowedTimestamp(... */\n      swap4\n      swap3\n      pop\n      pop\n      pop\n      jump\t// out\n        /* \"TimeAllyPET.sol\":10027:10677  function _burnPenalisedPowerBoosterTokens(... */\n    tag_127:\n        /* \"TimeAllyPET.sol\":10135:10151  PET storage _pet */\n      0x00\n        /* \"TimeAllyPET.sol\":10154:10158  pets */\n      0x04\n        /* \"TimeAllyPET.sol\":10154:10174  pets[_stakerAddress] */\n      0x00\n        /* \"TimeAllyPET.sol\":10159:10173  _stakerAddress */\n      dup5\n        /* \"TimeAllyPET.sol\":10154:10174  pets[_stakerAddress] */\n      0xffffffffffffffffffffffffffffffffffffffff\n      and\n      0xffffffffffffffffffffffffffffffffffffffff\n      and\n      dup2\n      mstore\n      0x20\n      add\n      swap1\n      dup2\n      mstore\n      0x20\n      add\n      0x00\n      keccak256\n        /* \"TimeAllyPET.sol\":10175:10181  _petId */\n      dup3\n        /* \"TimeAllyPET.sol\":10154:10182  pets[_stakerAddress][_petId] */\n      dup2\n      sload\n      dup2\n      lt\n      tag_236\n      jumpi\n      invalid\n    tag_236:\n      swap1\n      0x00\n      mstore\n      keccak256(0x00, 0x20)\n      swap1\n      0x09\n      mul\n      add\n        /* \"TimeAllyPET.sol\":10135:10182  PET storage _pet = pets[_stakerAddress][_petId] */\n      swap1\n      pop\n        /* \"TimeAllyPET.sol\":10188:10212  PETPlan storage _petPlan */\n      0x00\n        /* \"TimeAllyPET.sol\":10215:10223  petPlans */\n      0x03\n        /* \"TimeAllyPET.sol\":10224:10228  _pet */\n      dup3\n        /* \"TimeAllyPET.sol\":10224:10235  _pet.planId */\n      0x00\n      add\n      sload\n        /* \"TimeAllyPET.sol\":10215:10236  petPlans[_pet.planId] */\n      dup2\n      sload\n      dup2\n      lt\n      tag_238\n      jumpi\n      invalid\n    tag_238:\n      swap1\n      0x00\n      mstore\n      keccak256(0x00, 0x20)\n      swap1\n      0x03\n      mul\n      add\n        /* \"TimeAllyPET.sol\":10188:10236  PETPlan storage _petPlan = petPlans[_pet.planId] */\n      swap1\n      pop\n        /* \"TimeAllyPET.sol\":10243:10272  uint256 _unachieveTargetCount */\n      0x00\n        /* \"TimeAllyPET.sol\":10356:10366  uint256 _i */\n      dup1\n        /* \"TimeAllyPET.sol\":10369:10370  1 */\n      0x01\n        /* \"TimeAllyPET.sol\":10356:10370  uint256 _i = 1 */\n      swap1\n      pop\n        /* \"TimeAllyPET.sol\":10352:10520  for(uint256 _i = 1; _i <= 12; _i++) {... */\n    tag_240:\n        /* \"TimeAllyPET.sol\":10378:10380  12 */\n      0x0c\n        /* \"TimeAllyPET.sol\":10372:10374  _i */\n      dup2\n        /* \"TimeAllyPET.sol\":10372:10380  _i <= 12 */\n      gt\n        /* \"TimeAllyPET.sol\":10352:10520  for(uint256 _i = 1; _i <= 12; _i++) {... */\n      tag_241\n      jumpi\n        /* \"TimeAllyPET.sol\":10431:10439  _petPlan */\n      dup3\n        /* \"TimeAllyPET.sol\":10431:10470  _petPlan.minimumMonthlyCommitmentAmount */\n      0x01\n      add\n      sload\n        /* \"TimeAllyPET.sol\":10399:10403  _pet */\n      dup5\n        /* \"TimeAllyPET.sol\":10399:10424  _pet.monthlyDepositAmount */\n      0x05\n      add\n        /* \"TimeAllyPET.sol\":10399:10428  _pet.monthlyDepositAmount[_i] */\n      0x00\n        /* \"TimeAllyPET.sol\":10425:10427  _i */\n      dup4\n        /* \"TimeAllyPET.sol\":10399:10428  _pet.monthlyDepositAmount[_i] */\n      dup2\n      mstore\n      0x20\n      add\n      swap1\n      dup2\n      mstore\n      0x20\n      add\n      0x00\n      keccak256\n      sload\n        /* \"TimeAllyPET.sol\":10399:10470  _pet.monthlyDepositAmount[_i] < _petPlan.minimumMonthlyCommitmentAmount */\n      lt\n        /* \"TimeAllyPET.sol\":10396:10514  if(_pet.monthlyDepositAmount[_i] < _petPlan.minimumMonthlyCommitmentAmount) {... */\n      iszero\n      tag_243\n      jumpi\n        /* \"TimeAllyPET.sol\":10482:10505  _unachieveTargetCount++ */\n      dup2\n      dup1\n      0x01\n      add\n      swap3\n      pop\n      pop\n        /* \"TimeAllyPET.sol\":10396:10514  if(_pet.monthlyDepositAmount[_i] < _petPlan.minimumMonthlyCommitmentAmount) {... */\n    tag_243:\n        /* \"TimeAllyPET.sol\":10382:10386  _i++ */\n      dup1\n      dup1\n      0x01\n      add\n      swap2\n      pop\n      pop\n        /* \"TimeAllyPET.sol\":10352:10520  for(uint256 _i = 1; _i <= 12; _i++) {... */\n      jump(tag_240)\n    tag_241:\n      pop\n        /* \"TimeAllyPET.sol\":10526:10553  uint256 _powerBoosterAmount */\n      0x00\n        /* \"TimeAllyPET.sol\":10556:10607  calculatePowerBoosterAmount(_stakerAddress, _petId) */\n      tag_244\n        /* \"TimeAllyPET.sol\":10584:10598  _stakerAddress */\n      dup7\n        /* \"TimeAllyPET.sol\":10600:10606  _petId */\n      dup7\n        /* \"TimeAllyPET.sol\":10556:10583  calculatePowerBoosterAmount */\n      tag_42\n        /* \"TimeAllyPET.sol\":10556:10607  calculatePowerBoosterAmount(_stakerAddress, _petId) */\n      jump\t// in\n    tag_244:\n        /* \"TimeAllyPET.sol\":10526:10607  uint256 _powerBoosterAmount = calculatePowerBoosterAmount(_stakerAddress, _petId) */\n      swap1\n      pop\n        /* \"TimeAllyPET.sol\":10614:10619  token */\n      0x02\n      0x00\n      swap1\n      sload\n      swap1\n      0x0100\n      exp\n      swap1\n      div\n      0xffffffffffffffffffffffffffffffffffffffff\n      and\n        /* \"TimeAllyPET.sol\":10614:10624  token.burn */\n      0xffffffffffffffffffffffffffffffffffffffff\n      and\n      0x42966c68\n        /* \"TimeAllyPET.sol\":10625:10671  _powerBoosterAmount.mul(_unachieveTargetCount) */\n      tag_245\n        /* \"TimeAllyPET.sol\":10649:10670  _unachieveTargetCount */\n      dup5\n        /* \"TimeAllyPET.sol\":10625:10644  _powerBoosterAmount */\n      dup5\n        /* \"TimeAllyPET.sol\":10625:10648  _powerBoosterAmount.mul */\n      tag_147\n      swap1\n        /* \"TimeAllyPET.sol\":10625:10671  _powerBoosterAmount.mul(_unachieveTargetCount) */\n      swap2\n      swap1\n      0xffffffff\n      and\n      jump\t// in\n    tag_245:\n        /* \"TimeAllyPET.sol\":10614:10672  token.burn(_powerBoosterAmount.mul(_unachieveTargetCount)) */\n      mload(0x40)\n      dup3\n      0xffffffff\n      and\n      0xe0\n      shl\n      dup2\n      mstore\n      0x04\n      add\n      dup1\n      dup3\n      dup2\n      mstore\n      0x20\n      add\n      swap2\n      pop\n      pop\n      0x00\n      mload(0x40)\n      dup1\n      dup4\n      sub\n      dup2\n      0x00\n      dup8\n      dup1\n      extcodesize\n      iszero\n        /* \"--CODEGEN--\":8:17   */\n      dup1\n        /* \"--CODEGEN--\":5:7   */\n      iszero\n      tag_246\n      jumpi\n        /* \"--CODEGEN--\":30:31   */\n      0x00\n        /* \"--CODEGEN--\":27:28   */\n      dup1\n        /* \"--CODEGEN--\":20:32   */\n      revert\n        /* \"--CODEGEN--\":5:7   */\n    tag_246:\n        /* \"TimeAllyPET.sol\":10614:10672  token.burn(_powerBoosterAmount.mul(_unachieveTargetCount)) */\n      pop\n      gas\n      call\n      iszero\n        /* \"--CODEGEN--\":8:17   */\n      dup1\n        /* \"--CODEGEN--\":5:7   */\n      iszero\n      tag_248\n      jumpi\n        /* \"--CODEGEN--\":45:61   */\n      returndatasize\n        /* \"--CODEGEN--\":42:43   */\n      0x00\n        /* \"--CODEGEN--\":39:40   */\n      dup1\n        /* \"--CODEGEN--\":24:62   */\n      returndatacopy\n        /* \"--CODEGEN--\":77:93   */\n      returndatasize\n        /* \"--CODEGEN--\":74:75   */\n      0x00\n        /* \"--CODEGEN--\":67:94   */\n      revert\n        /* \"--CODEGEN--\":5:7   */\n    tag_248:\n        /* \"TimeAllyPET.sol\":10614:10672  token.burn(_powerBoosterAmount.mul(_unachieveTargetCount)) */\n      pop\n      pop\n      pop\n      pop\n        /* \"TimeAllyPET.sol\":10027:10677  function _burnPenalisedPowerBoosterTokens(... */\n      pop\n      pop\n      pop\n      pop\n      pop\n      pop\n      jump\t// out\n        /* \"SafeMath.sol\":3185:3315  function div(uint256 a, uint256 b) internal pure returns (uint256) {... */\n    tag_144:\n        /* \"SafeMath.sol\":3243:3250  uint256 */\n      0x00\n        /* \"SafeMath.sol\":3269:3308  div(a, b, \"SafeMath: division by zero\") */\n      tag_250\n        /* \"SafeMath.sol\":3273:3274  a */\n      dup4\n        /* \"SafeMath.sol\":3276:3277  b */\n      dup4\n        /* \"SafeMath.sol\":3269:3308  div(a, b, \"SafeMath: division by zero\") */\n      mload(0x40)\n      dup1\n      0x40\n      add\n      0x40\n      mstore\n      dup1\n      0x1a\n      dup2\n      mstore\n      0x20\n      add\n      0x536166654d6174683a206469766973696f6e206279207a65726f000000000000\n      dup2\n      mstore\n      pop\n        /* \"SafeMath.sol\":3269:3272  div */\n      tag_251\n        /* \"SafeMath.sol\":3269:3308  div(a, b, \"SafeMath: division by zero\") */\n      jump\t// in\n    tag_250:\n        /* \"SafeMath.sol\":3262:3308  return div(a, b, \"SafeMath: division by zero\") */\n      swap1\n      pop\n        /* \"SafeMath.sol\":3185:3315  function div(uint256 a, uint256 b) internal pure returns (uint256) {... */\n      swap3\n      swap2\n      pop\n      pop\n      jump\t// out\n        /* \"SafeMath.sol\":2271:2730  function mul(uint256 a, uint256 b) internal pure returns (uint256) {... */\n    tag_147:\n        /* \"SafeMath.sol\":2329:2336  uint256 */\n      0x00\n        /* \"SafeMath.sol\":2575:2576  0 */\n      dup1\n        /* \"SafeMath.sol\":2570:2571  a */\n      dup4\n        /* \"SafeMath.sol\":2570:2576  a == 0 */\n      eq\n        /* \"SafeMath.sol\":2566:2611  if (a == 0) {... */\n      iszero\n      tag_253\n      jumpi\n        /* \"SafeMath.sol\":2599:2600  0 */\n      0x00\n        /* \"SafeMath.sol\":2592:2600  return 0 */\n      swap1\n      pop\n      jump(tag_252)\n        /* \"SafeMath.sol\":2566:2611  if (a == 0) {... */\n    tag_253:\n        /* \"SafeMath.sol\":2621:2630  uint256 c */\n      0x00\n        /* \"SafeMath.sol\":2637:2638  b */\n      dup3\n        /* \"SafeMath.sol\":2633:2634  a */\n      dup5\n        /* \"SafeMath.sol\":2633:2638  a * b */\n      mul\n        /* \"SafeMath.sol\":2621:2638  uint256 c = a * b */\n      swap1\n      pop\n        /* \"SafeMath.sol\":2665:2666  b */\n      dup3\n        /* \"SafeMath.sol\":2660:2661  a */\n      dup5\n        /* \"SafeMath.sol\":2656:2657  c */\n      dup3\n        /* \"SafeMath.sol\":2656:2661  c / a */\n      dup2\n      tag_254\n      jumpi\n      invalid\n    tag_254:\n      div\n        /* \"SafeMath.sol\":2656:2666  c / a == b */\n      eq\n        /* \"SafeMath.sol\":2648:2704  require(c / a == b, \"SafeMath: multiplication overflow\") */\n      tag_255\n      jumpi\n      mload(0x40)\n      0x08c379a000000000000000000000000000000000000000000000000000000000\n      dup2\n      mstore\n      0x04\n      add\n      dup1\n      dup1\n      0x20\n      add\n      dup3\n      dup2\n      sub\n      dup3\n      mstore\n      0x21\n      dup2\n      mstore\n      0x20\n      add\n      dup1\n      data_9113bb53c2876a3805b2c9242029423fc540a728243ce887ab24c82cf119fba3\n      0x21\n      swap2\n      codecopy\n      0x40\n      add\n      swap2\n      pop\n      pop\n      mload(0x40)\n      dup1\n      swap2\n      sub\n      swap1\n      revert\n    tag_255:\n        /* \"SafeMath.sol\":2722:2723  c */\n      dup1\n        /* \"SafeMath.sol\":2715:2723  return c */\n      swap2\n      pop\n      pop\n        /* \"SafeMath.sol\":2271:2730  function mul(uint256 a, uint256 b) internal pure returns (uint256) {... */\n    tag_252:\n      swap3\n      swap2\n      pop\n      pop\n      jump\t// out\n        /* \"SafeMath.sol\":1844:2031  function sub(uint256 a, uint256 b, string memory errorMessage) internal pure returns (uint256) {... */\n    tag_227:\n        /* \"SafeMath.sol\":1930:1937  uint256 */\n      0x00\n        /* \"SafeMath.sol\":1962:1963  a */\n      dup4\n        /* \"SafeMath.sol\":1957:1958  b */\n      dup4\n        /* \"SafeMath.sol\":1957:1963  b <= a */\n      gt\n      iszero\n        /* \"SafeMath.sol\":1965:1977  errorMessage */\n      dup3\n        /* \"SafeMath.sol\":1949:1978  require(b <= a, errorMessage) */\n      swap1\n      tag_257\n      jumpi\n      mload(0x40)\n      0x08c379a000000000000000000000000000000000000000000000000000000000\n      dup2\n      mstore\n      0x04\n      add\n      dup1\n      dup1\n      0x20\n      add\n      dup3\n      dup2\n      sub\n      dup3\n      mstore\n      dup4\n      dup2\n      dup2\n      mload\n      dup2\n      mstore\n      0x20\n      add\n      swap2\n      pop\n      dup1\n      mload\n      swap1\n      0x20\n      add\n      swap1\n      dup1\n      dup4\n      dup4\n        /* \"--CODEGEN--\":23:24   */\n      0x00\n        /* \"--CODEGEN--\":8:108   */\n    tag_258:\n        /* \"--CODEGEN--\":33:36   */\n      dup4\n        /* \"--CODEGEN--\":30:31   */\n      dup2\n        /* \"--CODEGEN--\":27:37   */\n      lt\n        /* \"--CODEGEN--\":8:108   */\n      iszero\n      tag_260\n      jumpi\n        /* \"--CODEGEN--\":99:100   */\n      dup1\n        /* \"--CODEGEN--\":94:97   */\n      dup3\n        /* \"--CODEGEN--\":90:101   */\n      add\n        /* \"--CODEGEN--\":84:102   */\n      mload\n        /* \"--CODEGEN--\":80:81   */\n      dup2\n        /* \"--CODEGEN--\":75:78   */\n      dup5\n        /* \"--CODEGEN--\":71:82   */\n      add\n        /* \"--CODEGEN--\":64:103   */\n      mstore\n        /* \"--CODEGEN--\":52:54   */\n      0x20\n        /* \"--CODEGEN--\":49:50   */\n      dup2\n        /* \"--CODEGEN--\":45:55   */\n      add\n        /* \"--CODEGEN--\":40:55   */\n      swap1\n      pop\n        /* \"--CODEGEN--\":8:108   */\n      jump(tag_258)\n    tag_260:\n        /* \"--CODEGEN--\":12:26   */\n      pop\n        /* \"SafeMath.sol\":1949:1978  require(b <= a, errorMessage) */\n      pop\n      pop\n      pop\n      swap1\n      pop\n      swap1\n      dup2\n      add\n      swap1\n      0x1f\n      and\n      dup1\n      iszero\n      tag_261\n      jumpi\n      dup1\n      dup3\n      sub\n      dup1\n      mload\n      0x01\n      dup4\n      0x20\n      sub\n      0x0100\n      exp\n      sub\n      not\n      and\n      dup2\n      mstore\n      0x20\n      add\n      swap2\n      pop\n    tag_261:\n      pop\n      swap3\n      pop\n      pop\n      pop\n      mload(0x40)\n      dup1\n      swap2\n      sub\n      swap1\n      revert\n    tag_257:\n      pop\n        /* \"SafeMath.sol\":1988:1997  uint256 c */\n      0x00\n        /* \"SafeMath.sol\":2004:2005  b */\n      dup4\n        /* \"SafeMath.sol\":2000:2001  a */\n      dup6\n        /* \"SafeMath.sol\":2000:2005  a - b */\n      sub\n        /* \"SafeMath.sol\":1988:2005  uint256 c = a - b */\n      swap1\n      pop\n        /* \"SafeMath.sol\":2023:2024  c */\n      dup1\n        /* \"SafeMath.sol\":2016:2024  return c */\n      swap2\n      pop\n      pop\n        /* \"SafeMath.sol\":1844:2031  function sub(uint256 a, uint256 b, string memory errorMessage) internal pure returns (uint256) {... */\n      swap4\n      swap3\n      pop\n      pop\n      pop\n      jump\t// out\n        /* \"SafeMath.sol\":3936:4274  function div(uint256 a, uint256 b, string memory errorMessage) internal pure returns (uint256) {... */\n    tag_251:\n        /* \"SafeMath.sol\":4022:4029  uint256 */\n      0x00\n        /* \"SafeMath.sol\":4119:4120  0 */\n      dup1\n        /* \"SafeMath.sol\":4115:4116  b */\n      dup4\n        /* \"SafeMath.sol\":4115:4120  b > 0 */\n      gt\n        /* \"SafeMath.sol\":4122:4134  errorMessage */\n      dup3\n        /* \"SafeMath.sol\":4107:4135  require(b > 0, errorMessage) */\n      swap1\n      tag_263\n      jumpi\n      mload(0x40)\n      0x08c379a000000000000000000000000000000000000000000000000000000000\n      dup2\n      mstore\n      0x04\n      add\n      dup1\n      dup1\n      0x20\n      add\n      dup3\n      dup2\n      sub\n      dup3\n      mstore\n      dup4\n      dup2\n      dup2\n      mload\n      dup2\n      mstore\n      0x20\n      add\n      swap2\n      pop\n      dup1\n      mload\n      swap1\n      0x20\n      add\n      swap1\n      dup1\n      dup4\n      dup4\n        /* \"--CODEGEN--\":23:24   */\n      0x00\n        /* \"--CODEGEN--\":8:108   */\n    tag_264:\n        /* \"--CODEGEN--\":33:36   */\n      dup4\n        /* \"--CODEGEN--\":30:31   */\n      dup2\n        /* \"--CODEGEN--\":27:37   */\n      lt\n        /* \"--CODEGEN--\":8:108   */\n      iszero\n      tag_266\n      jumpi\n        /* \"--CODEGEN--\":99:100   */\n      dup1\n        /* \"--CODEGEN--\":94:97   */\n      dup3\n        /* \"--CODEGEN--\":90:101   */\n      add\n        /* \"--CODEGEN--\":84:102   */\n      mload\n        /* \"--CODEGEN--\":80:81   */\n      dup2\n        /* \"--CODEGEN--\":75:78   */\n      dup5\n        /* \"--CODEGEN--\":71:82   */\n      add\n        /* \"--CODEGEN--\":64:103   */\n      mstore\n        /* \"--CODEGEN--\":52:54   */\n      0x20\n        /* \"--CODEGEN--\":49:50   */\n      dup2\n        /* \"--CODEGEN--\":45:55   */\n      add\n        /* \"--CODEGEN--\":40:55   */\n      swap1\n      pop\n        /* \"--CODEGEN--\":8:108   */\n      jump(tag_264)\n    tag_266:\n        /* \"--CODEGEN--\":12:26   */\n      pop\n        /* \"SafeMath.sol\":4107:4135  require(b > 0, errorMessage) */\n      pop\n      pop\n      pop\n      swap1\n      pop\n      swap1\n      dup2\n      add\n      swap1\n      0x1f\n      and\n      dup1\n      iszero\n      tag_267\n      jumpi\n      dup1\n      dup3\n      sub\n      dup1\n      mload\n      0x01\n      dup4\n      0x20\n      sub\n      0x0100\n      exp\n      sub\n      not\n      and\n      dup2\n      mstore\n      0x20\n      add\n      swap2\n      pop\n    tag_267:\n      pop\n      swap3\n      pop\n      pop\n      pop\n      mload(0x40)\n      dup1\n      swap2\n      sub\n      swap1\n      revert\n    tag_263:\n      pop\n        /* \"SafeMath.sol\":4145:4154  uint256 c */\n      0x00\n        /* \"SafeMath.sol\":4161:4162  b */\n      dup4\n        /* \"SafeMath.sol\":4157:4158  a */\n      dup6\n        /* \"SafeMath.sol\":4157:4162  a / b */\n      dup2\n      tag_268\n      jumpi\n      invalid\n    tag_268:\n      div\n        /* \"SafeMath.sol\":4145:4162  uint256 c = a / b */\n      swap1\n      pop\n        /* \"SafeMath.sol\":4266:4267  c */\n      dup1\n        /* \"SafeMath.sol\":4259:4267  return c */\n      swap2\n      pop\n      pop\n        /* \"SafeMath.sol\":3936:4274  function div(uint256 a, uint256 b, string memory errorMessage) internal pure returns (uint256) {... */\n      swap4\n      swap3\n      pop\n      pop\n      pop\n      jump\t// out\n    stop\n    data_9113bb53c2876a3805b2c9242029423fc540a728243ce887ab24c82cf119fba3 536166654d6174683a206d756c7469706c69636174696f6e206f766572666c6f77\n    data_a4c16ca7a8e973f42facadda9d5acf990ce1247b83cdb47d69fe2dcd504c7f2f 63616e6e6f74206465706f73697420616674657220616363756d756c6174696f6e20706572696f64\n    data_a66804336ef880d43d3664593cfd2886bc0d5e09a9e6d1574f39fab0c9f3fb85 6465706f73697420616d6f756e742073686f756c64206265206e6f6e207a65726f\n\n    auxdata: 0xa2646970667358221220fba06dc7d6ef3fca64d3113d4cd0ef55dd0725c9c96b909be005d56ebfb6b96864736f6c63430006000033\n}\n\nsub_1: assembly {\n        /* \"TimeAllyPET.sol\":171:918  contract FundsBucketPET {... */\n      mstore(0x40, 0x80)\n        /* \"TimeAllyPET.sol\":373:497  constructor(ERC20 _token, address _owner) public {... */\n      callvalue\n        /* \"--CODEGEN--\":8:17   */\n      dup1\n        /* \"--CODEGEN--\":5:7   */\n      iszero\n      tag_1\n      jumpi\n        /* \"--CODEGEN--\":30:31   */\n      0x00\n        /* \"--CODEGEN--\":27:28   */\n      dup1\n        /* \"--CODEGEN--\":20:32   */\n      revert\n        /* \"--CODEGEN--\":5:7   */\n    tag_1:\n        /* \"TimeAllyPET.sol\":373:497  constructor(ERC20 _token, address _owner) public {... */\n      pop\n      mload(0x40)\n      sub(codesize, bytecodeSize)\n      dup1\n      bytecodeSize\n      dup4\n      codecopy\n      dup2\n      dup2\n      add\n      0x40\n      mstore\n        /* \"--CODEGEN--\":13:15   */\n      0x40\n        /* \"--CODEGEN--\":8:11   */\n      dup2\n        /* \"--CODEGEN--\":5:16   */\n      lt\n        /* \"--CODEGEN--\":2:4   */\n      iszero\n      tag_2\n      jumpi\n        /* \"--CODEGEN--\":29:30   */\n      0x00\n        /* \"--CODEGEN--\":26:27   */\n      dup1\n        /* \"--CODEGEN--\":19:31   */\n      revert\n        /* \"--CODEGEN--\":2:4   */\n    tag_2:\n        /* \"TimeAllyPET.sol\":373:497  constructor(ERC20 _token, address _owner) public {... */\n      dup2\n      add\n      swap1\n      dup1\n      dup1\n      mload\n      swap1\n      0x20\n      add\n      swap1\n      swap3\n      swap2\n      swap1\n      dup1\n      mload\n      swap1\n      0x20\n      add\n      swap1\n      swap3\n      swap2\n      swap1\n      pop\n      pop\n      pop\n        /* \"TimeAllyPET.sol\":436:442  _token */\n      dup2\n        /* \"TimeAllyPET.sol\":428:433  token */\n      0x01\n      0x00\n        /* \"TimeAllyPET.sol\":428:442  token = _token */\n      0x0100\n      exp\n      dup2\n      sload\n      dup2\n      0xffffffffffffffffffffffffffffffffffffffff\n      mul\n      not\n      and\n      swap1\n      dup4\n      0xffffffffffffffffffffffffffffffffffffffff\n      and\n      mul\n      or\n      swap1\n      sstore\n      pop\n        /* \"TimeAllyPET.sol\":456:462  _owner */\n      dup1\n        /* \"TimeAllyPET.sol\":448:453  owner */\n      0x00\n      dup1\n        /* \"TimeAllyPET.sol\":448:462  owner = _owner */\n      0x0100\n      exp\n      dup2\n      sload\n      dup2\n      0xffffffffffffffffffffffffffffffffffffffff\n      mul\n      not\n      and\n      swap1\n      dup4\n      0xffffffffffffffffffffffffffffffffffffffff\n      and\n      mul\n      or\n      swap1\n      sstore\n      pop\n        /* \"TimeAllyPET.sol\":482:492  msg.sender */\n      caller\n        /* \"TimeAllyPET.sol\":468:479  petContract */\n      0x02\n      0x00\n        /* \"TimeAllyPET.sol\":468:492  petContract = msg.sender */\n      0x0100\n      exp\n      dup2\n      sload\n      dup2\n      0xffffffffffffffffffffffffffffffffffffffff\n      mul\n      not\n      and\n      swap1\n      dup4\n      0xffffffffffffffffffffffffffffffffffffffff\n      and\n      mul\n      or\n      swap1\n      sstore\n      pop\n        /* \"TimeAllyPET.sol\":373:497  constructor(ERC20 _token, address _owner) public {... */\n      pop\n      pop\n        /* \"TimeAllyPET.sol\":171:918  contract FundsBucketPET {... */\n      dataSize(sub_0)\n      dup1\n      dataOffset(sub_0)\n      0x00\n      codecopy\n      0x00\n      return\n    stop\n\n    sub_0: assembly {\n            /* \"TimeAllyPET.sol\":171:918  contract FundsBucketPET {... */\n          mstore(0x40, 0x80)\n          callvalue\n            /* \"--CODEGEN--\":8:17   */\n          dup1\n            /* \"--CODEGEN--\":5:7   */\n          iszero\n          tag_1\n          jumpi\n            /* \"--CODEGEN--\":30:31   */\n          0x00\n            /* \"--CODEGEN--\":27:28   */\n          dup1\n            /* \"--CODEGEN--\":20:32   */\n          revert\n            /* \"--CODEGEN--\":5:7   */\n        tag_1:\n            /* \"TimeAllyPET.sol\":171:918  contract FundsBucketPET {... */\n          pop\n          jumpi(tag_2, lt(calldatasize, 0x04))\n          shr(0xe0, calldataload(0x00))\n          dup1\n          0x3b4d8a7d\n          eq\n          tag_3\n          jumpi\n          dup1\n          0x8da5cb5b\n          eq\n          tag_4\n          jumpi\n          dup1\n          0x9997e137\n          eq\n          tag_5\n          jumpi\n          dup1\n          0xbe999705\n          eq\n          tag_6\n          jumpi\n          dup1\n          0xfc0c546a\n          eq\n          tag_7\n          jumpi\n        tag_2:\n          0x00\n          dup1\n          revert\n            /* \"TimeAllyPET.sol\":675:916  function withdrawFunds(bool _withdrawEverything, uint256 _withdrawlAmount) public onlyOwner {... */\n        tag_3:\n          tag_8\n          0x04\n          dup1\n          calldatasize\n          sub\n            /* \"--CODEGEN--\":13:15   */\n          0x40\n            /* \"--CODEGEN--\":8:11   */\n          dup2\n            /* \"--CODEGEN--\":5:16   */\n          lt\n            /* \"--CODEGEN--\":2:4   */\n          iszero\n          tag_9\n          jumpi\n            /* \"--CODEGEN--\":29:30   */\n          0x00\n            /* \"--CODEGEN--\":26:27   */\n          dup1\n            /* \"--CODEGEN--\":19:31   */\n          revert\n            /* \"--CODEGEN--\":2:4   */\n        tag_9:\n            /* \"TimeAllyPET.sol\":675:916  function withdrawFunds(bool _withdrawEverything, uint256 _withdrawlAmount) public onlyOwner {... */\n          dup2\n          add\n          swap1\n          dup1\n          dup1\n          calldataload\n          iszero\n          iszero\n          swap1\n          0x20\n          add\n          swap1\n          swap3\n          swap2\n          swap1\n          dup1\n          calldataload\n          swap1\n          0x20\n          add\n          swap1\n          swap3\n          swap2\n          swap1\n          pop\n          pop\n          pop\n          tag_10\n          jump\t// in\n        tag_8:\n          stop\n            /* \"TimeAllyPET.sol\":199:219  address public owner */\n        tag_4:\n          tag_11\n          tag_12\n          jump\t// in\n        tag_11:\n          mload(0x40)\n          dup1\n          dup3\n          0xffffffffffffffffffffffffffffffffffffffff\n          and\n          0xffffffffffffffffffffffffffffffffffffffff\n          and\n          dup2\n          mstore\n          0x20\n          add\n          swap2\n          pop\n          pop\n          mload(0x40)\n          dup1\n          swap2\n          sub\n          swap1\n          return\n            /* \"TimeAllyPET.sol\":245:271  address public petContract */\n        tag_5:\n          tag_13\n          tag_14\n          jump\t// in\n        tag_13:\n          mload(0x40)\n          dup1\n          dup3\n          0xffffffffffffffffffffffffffffffffffffffff\n          and\n          0xffffffffffffffffffffffffffffffffffffffff\n          and\n          dup2\n          mstore\n          0x20\n          add\n          swap2\n          pop\n          pop\n          mload(0x40)\n          dup1\n          swap2\n          sub\n          swap1\n          return\n            /* \"TimeAllyPET.sol\":501:671  function addFunds(uint256 _depositAmount) public {... */\n        tag_6:\n          tag_15\n          0x04\n          dup1\n          calldatasize\n          sub\n            /* \"--CODEGEN--\":13:15   */\n          0x20\n            /* \"--CODEGEN--\":8:11   */\n          dup2\n            /* \"--CODEGEN--\":5:16   */\n          lt\n            /* \"--CODEGEN--\":2:4   */\n          iszero\n          tag_16\n          jumpi\n            /* \"--CODEGEN--\":29:30   */\n          0x00\n            /* \"--CODEGEN--\":26:27   */\n          dup1\n            /* \"--CODEGEN--\":19:31   */\n          revert\n            /* \"--CODEGEN--\":2:4   */\n        tag_16:\n            /* \"TimeAllyPET.sol\":501:671  function addFunds(uint256 _depositAmount) public {... */\n          dup2\n          add\n          swap1\n          dup1\n          dup1\n          calldataload\n          swap1\n          0x20\n          add\n          swap1\n          swap3\n          swap2\n          swap1\n          pop\n          pop\n          pop\n          tag_17\n          jump\t// in\n        tag_15:\n          stop\n            /* \"TimeAllyPET.sol\":223:241  ERC20 public token */\n        tag_7:\n          tag_18\n          tag_19\n          jump\t// in\n        tag_18:\n          mload(0x40)\n          dup1\n          dup3\n          0xffffffffffffffffffffffffffffffffffffffff\n          and\n          0xffffffffffffffffffffffffffffffffffffffff\n          and\n          dup2\n          mstore\n          0x20\n          add\n          swap2\n          pop\n          pop\n          mload(0x40)\n          dup1\n          swap2\n          sub\n          swap1\n          return\n            /* \"TimeAllyPET.sol\":675:916  function withdrawFunds(bool _withdrawEverything, uint256 _withdrawlAmount) public onlyOwner {... */\n        tag_10:\n            /* \"TimeAllyPET.sol\":325:330  owner */\n          0x00\n          dup1\n          swap1\n          sload\n          swap1\n          0x0100\n          exp\n          swap1\n          div\n          0xffffffffffffffffffffffffffffffffffffffff\n          and\n            /* \"TimeAllyPET.sol\":311:330  msg.sender == owner */\n          0xffffffffffffffffffffffffffffffffffffffff\n          and\n            /* \"TimeAllyPET.sol\":311:321  msg.sender */\n          caller\n            /* \"TimeAllyPET.sol\":311:330  msg.sender == owner */\n          0xffffffffffffffffffffffffffffffffffffffff\n          and\n          eq\n            /* \"TimeAllyPET.sol\":303:357  require(msg.sender == owner, 'only deployer can call') */\n          tag_21\n          jumpi\n          mload(0x40)\n          0x08c379a000000000000000000000000000000000000000000000000000000000\n          dup2\n          mstore\n          0x04\n          add\n          dup1\n          dup1\n          0x20\n          add\n          dup3\n          dup2\n          sub\n          dup3\n          mstore\n          0x16\n          dup2\n          mstore\n          0x20\n          add\n          dup1\n          0x6f6e6c79206465706c6f7965722063616e2063616c6c00000000000000000000\n          dup2\n          mstore\n          pop\n          0x20\n          add\n          swap2\n          pop\n          pop\n          mload(0x40)\n          dup1\n          swap2\n          sub\n          swap1\n          revert\n        tag_21:\n            /* \"TimeAllyPET.sol\":776:795  _withdrawEverything */\n          dup2\n            /* \"TimeAllyPET.sol\":773:861  if(_withdrawEverything) {... */\n          iszero\n          tag_23\n          jumpi\n            /* \"TimeAllyPET.sol\":824:829  token */\n          0x01\n          0x00\n          swap1\n          sload\n          swap1\n          0x0100\n          exp\n          swap1\n          div\n          0xffffffffffffffffffffffffffffffffffffffff\n          and\n            /* \"TimeAllyPET.sol\":824:839  token.balanceOf */\n          0xffffffffffffffffffffffffffffffffffffffff\n          and\n          0x70a08231\n            /* \"TimeAllyPET.sol\":848:852  this */\n          address\n            /* \"TimeAllyPET.sol\":824:854  token.balanceOf(address(this)) */\n          mload(0x40)\n          dup3\n          0xffffffff\n          and\n          0xe0\n          shl\n          dup2\n          mstore\n          0x04\n          add\n          dup1\n          dup3\n          0xffffffffffffffffffffffffffffffffffffffff\n          and\n          0xffffffffffffffffffffffffffffffffffffffff\n          and\n          dup2\n          mstore\n          0x20\n          add\n          swap2\n          pop\n          pop\n          0x20\n          mload(0x40)\n          dup1\n          dup4\n          sub\n          dup2\n          dup7\n          dup1\n          extcodesize\n          iszero\n            /* \"--CODEGEN--\":8:17   */\n          dup1\n            /* \"--CODEGEN--\":5:7   */\n          iszero\n          tag_24\n          jumpi\n            /* \"--CODEGEN--\":30:31   */\n          0x00\n            /* \"--CODEGEN--\":27:28   */\n          dup1\n            /* \"--CODEGEN--\":20:32   */\n          revert\n            /* \"--CODEGEN--\":5:7   */\n        tag_24:\n            /* \"TimeAllyPET.sol\":824:854  token.balanceOf(address(this)) */\n          pop\n          gas\n          staticcall\n          iszero\n            /* \"--CODEGEN--\":8:17   */\n          dup1\n            /* \"--CODEGEN--\":5:7   */\n          iszero\n          tag_26\n          jumpi\n            /* \"--CODEGEN--\":45:61   */\n          returndatasize\n            /* \"--CODEGEN--\":42:43   */\n          0x00\n            /* \"--CODEGEN--\":39:40   */\n          dup1\n            /* \"--CODEGEN--\":24:62   */\n          returndatacopy\n            /* \"--CODEGEN--\":77:93   */\n          returndatasize\n            /* \"--CODEGEN--\":74:75   */\n          0x00\n            /* \"--CODEGEN--\":67:94   */\n          revert\n            /* \"--CODEGEN--\":5:7   */\n        tag_26:\n            /* \"TimeAllyPET.sol\":824:854  token.balanceOf(address(this)) */\n          pop\n          pop\n          pop\n          pop\n          mload(0x40)\n          returndatasize\n            /* \"--CODEGEN--\":13:15   */\n          0x20\n            /* \"--CODEGEN--\":8:11   */\n          dup2\n            /* \"--CODEGEN--\":5:16   */\n          lt\n            /* \"--CODEGEN--\":2:4   */\n          iszero\n          tag_27\n          jumpi\n            /* \"--CODEGEN--\":29:30   */\n          0x00\n            /* \"--CODEGEN--\":26:27   */\n          dup1\n            /* \"--CODEGEN--\":19:31   */\n          revert\n            /* \"--CODEGEN--\":2:4   */\n        tag_27:\n            /* \"TimeAllyPET.sol\":824:854  token.balanceOf(address(this)) */\n          dup2\n          add\n          swap1\n          dup1\n          dup1\n          mload\n          swap1\n          0x20\n          add\n          swap1\n          swap3\n          swap2\n          swap1\n          pop\n          pop\n          pop\n            /* \"TimeAllyPET.sol\":805:854  _withdrawlAmount = token.balanceOf(address(this)) */\n          swap1\n          pop\n            /* \"TimeAllyPET.sol\":773:861  if(_withdrawEverything) {... */\n        tag_23:\n            /* \"TimeAllyPET.sol\":867:872  token */\n          0x01\n          0x00\n          swap1\n          sload\n          swap1\n          0x0100\n          exp\n          swap1\n          div\n          0xffffffffffffffffffffffffffffffffffffffff\n          and\n            /* \"TimeAllyPET.sol\":867:881  token.transfer */\n          0xffffffffffffffffffffffffffffffffffffffff\n          and\n          0xa9059cbb\n            /* \"TimeAllyPET.sol\":882:892  msg.sender */\n          caller\n            /* \"TimeAllyPET.sol\":894:910  _withdrawlAmount */\n          dup4\n            /* \"TimeAllyPET.sol\":867:911  token.transfer(msg.sender, _withdrawlAmount) */\n          mload(0x40)\n          dup4\n          0xffffffff\n          and\n          0xe0\n          shl\n          dup2\n          mstore\n          0x04\n          add\n          dup1\n          dup4\n          0xffffffffffffffffffffffffffffffffffffffff\n          and\n          0xffffffffffffffffffffffffffffffffffffffff\n          and\n          dup2\n          mstore\n          0x20\n          add\n          dup3\n          dup2\n          mstore\n          0x20\n          add\n          swap3\n          pop\n          pop\n          pop\n          0x20\n          mload(0x40)\n          dup1\n          dup4\n          sub\n          dup2\n          0x00\n          dup8\n          dup1\n          extcodesize\n          iszero\n            /* \"--CODEGEN--\":8:17   */\n          dup1\n            /* \"--CODEGEN--\":5:7   */\n          iszero\n          tag_28\n          jumpi\n            /* \"--CODEGEN--\":30:31   */\n          0x00\n            /* \"--CODEGEN--\":27:28   */\n          dup1\n            /* \"--CODEGEN--\":20:32   */\n          revert\n            /* \"--CODEGEN--\":5:7   */\n        tag_28:\n            /* \"TimeAllyPET.sol\":867:911  token.transfer(msg.sender, _withdrawlAmount) */\n          pop\n          gas\n          call\n          iszero\n            /* \"--CODEGEN--\":8:17   */\n          dup1\n            /* \"--CODEGEN--\":5:7   */\n          iszero\n          tag_30\n          jumpi\n            /* \"--CODEGEN--\":45:61   */\n          returndatasize\n            /* \"--CODEGEN--\":42:43   */\n          0x00\n            /* \"--CODEGEN--\":39:40   */\n          dup1\n            /* \"--CODEGEN--\":24:62   */\n          returndatacopy\n            /* \"--CODEGEN--\":77:93   */\n          returndatasize\n            /* \"--CODEGEN--\":74:75   */\n          0x00\n            /* \"--CODEGEN--\":67:94   */\n          revert\n            /* \"--CODEGEN--\":5:7   */\n        tag_30:\n            /* \"TimeAllyPET.sol\":867:911  token.transfer(msg.sender, _withdrawlAmount) */\n          pop\n          pop\n          pop\n          pop\n          mload(0x40)\n          returndatasize\n            /* \"--CODEGEN--\":13:15   */\n          0x20\n            /* \"--CODEGEN--\":8:11   */\n          dup2\n            /* \"--CODEGEN--\":5:16   */\n          lt\n            /* \"--CODEGEN--\":2:4   */\n          iszero\n          tag_31\n          jumpi\n            /* \"--CODEGEN--\":29:30   */\n          0x00\n            /* \"--CODEGEN--\":26:27   */\n          dup1\n            /* \"--CODEGEN--\":19:31   */\n          revert\n            /* \"--CODEGEN--\":2:4   */\n        tag_31:\n            /* \"TimeAllyPET.sol\":867:911  token.transfer(msg.sender, _withdrawlAmount) */\n          dup2\n          add\n          swap1\n          dup1\n          dup1\n          mload\n          swap1\n          0x20\n          add\n          swap1\n          swap3\n          swap2\n          swap1\n          pop\n          pop\n          pop\n          pop\n            /* \"TimeAllyPET.sol\":675:916  function withdrawFunds(bool _withdrawEverything, uint256 _withdrawlAmount) public onlyOwner {... */\n          pop\n          pop\n          jump\t// out\n            /* \"TimeAllyPET.sol\":199:219  address public owner */\n        tag_12:\n          0x00\n          dup1\n          swap1\n          sload\n          swap1\n          0x0100\n          exp\n          swap1\n          div\n          0xffffffffffffffffffffffffffffffffffffffff\n          and\n          dup2\n          jump\t// out\n            /* \"TimeAllyPET.sol\":245:271  address public petContract */\n        tag_14:\n          0x02\n          0x00\n          swap1\n          sload\n          swap1\n          0x0100\n          exp\n          swap1\n          div\n          0xffffffffffffffffffffffffffffffffffffffff\n          and\n          dup2\n          jump\t// out\n            /* \"TimeAllyPET.sol\":501:671  function addFunds(uint256 _depositAmount) public {... */\n        tag_17:\n            /* \"TimeAllyPET.sol\":556:561  token */\n          0x01\n          0x00\n          swap1\n          sload\n          swap1\n          0x0100\n          exp\n          swap1\n          div\n          0xffffffffffffffffffffffffffffffffffffffff\n          and\n            /* \"TimeAllyPET.sol\":556:574  token.transferFrom */\n          0xffffffffffffffffffffffffffffffffffffffff\n          and\n          0x23b872dd\n            /* \"TimeAllyPET.sol\":575:585  msg.sender */\n          caller\n            /* \"TimeAllyPET.sol\":595:599  this */\n          address\n            /* \"TimeAllyPET.sol\":602:616  _depositAmount */\n          dup5\n            /* \"TimeAllyPET.sol\":556:617  token.transferFrom(msg.sender, address(this), _depositAmount) */\n          mload(0x40)\n          dup5\n          0xffffffff\n          and\n          0xe0\n          shl\n          dup2\n          mstore\n          0x04\n          add\n          dup1\n          dup5\n          0xffffffffffffffffffffffffffffffffffffffff\n          and\n          0xffffffffffffffffffffffffffffffffffffffff\n          and\n          dup2\n          mstore\n          0x20\n          add\n          dup4\n          0xffffffffffffffffffffffffffffffffffffffff\n          and\n          0xffffffffffffffffffffffffffffffffffffffff\n          and\n          dup2\n          mstore\n          0x20\n          add\n          dup3\n          dup2\n          mstore\n          0x20\n          add\n          swap4\n          pop\n          pop\n          pop\n          pop\n          0x20\n          mload(0x40)\n          dup1\n          dup4\n          sub\n          dup2\n          0x00\n          dup8\n          dup1\n          extcodesize\n          iszero\n            /* \"--CODEGEN--\":8:17   */\n          dup1\n            /* \"--CODEGEN--\":5:7   */\n          iszero\n          tag_33\n          jumpi\n            /* \"--CODEGEN--\":30:31   */\n          0x00\n            /* \"--CODEGEN--\":27:28   */\n          dup1\n            /* \"--CODEGEN--\":20:32   */\n          revert\n            /* \"--CODEGEN--\":5:7   */\n        tag_33:\n            /* \"TimeAllyPET.sol\":556:617  token.transferFrom(msg.sender, address(this), _depositAmount) */\n          pop\n          gas\n          call\n          iszero\n            /* \"--CODEGEN--\":8:17   */\n          dup1\n            /* \"--CODEGEN--\":5:7   */\n          iszero\n          tag_35\n          jumpi\n            /* \"--CODEGEN--\":45:61   */\n          returndatasize\n            /* \"--CODEGEN--\":42:43   */\n          0x00\n            /* \"--CODEGEN--\":39:40   */\n          dup1\n            /* \"--CODEGEN--\":24:62   */\n          returndatacopy\n            /* \"--CODEGEN--\":77:93   */\n          returndatasize\n            /* \"--CODEGEN--\":74:75   */\n          0x00\n            /* \"--CODEGEN--\":67:94   */\n          revert\n            /* \"--CODEGEN--\":5:7   */\n        tag_35:\n            /* \"TimeAllyPET.sol\":556:617  token.transferFrom(msg.sender, address(this), _depositAmount) */\n          pop\n          pop\n          pop\n          pop\n          mload(0x40)\n          returndatasize\n            /* \"--CODEGEN--\":13:15   */\n          0x20\n            /* \"--CODEGEN--\":8:11   */\n          dup2\n            /* \"--CODEGEN--\":5:16   */\n          lt\n            /* \"--CODEGEN--\":2:4   */\n          iszero\n          tag_36\n          jumpi\n            /* \"--CODEGEN--\":29:30   */\n          0x00\n            /* \"--CODEGEN--\":26:27   */\n          dup1\n            /* \"--CODEGEN--\":19:31   */\n          revert\n            /* \"--CODEGEN--\":2:4   */\n        tag_36:\n            /* \"TimeAllyPET.sol\":556:617  token.transferFrom(msg.sender, address(this), _depositAmount) */\n          dup2\n          add\n          swap1\n          dup1\n          dup1\n          mload\n          swap1\n          0x20\n          add\n          swap1\n          swap3\n          swap2\n          swap1\n          pop\n          pop\n          pop\n          pop\n            /* \"TimeAllyPET.sol\":624:629  token */\n          0x01\n          0x00\n          swap1\n          sload\n          swap1\n          0x0100\n          exp\n          swap1\n          div\n          0xffffffffffffffffffffffffffffffffffffffff\n          and\n            /* \"TimeAllyPET.sol\":624:637  token.approve */\n          0xffffffffffffffffffffffffffffffffffffffff\n          and\n          0x095ea7b3\n            /* \"TimeAllyPET.sol\":638:649  petContract */\n          0x02\n          0x00\n          swap1\n          sload\n          swap1\n          0x0100\n          exp\n          swap1\n          div\n          0xffffffffffffffffffffffffffffffffffffffff\n          and\n            /* \"TimeAllyPET.sol\":651:665  _depositAmount */\n          dup4\n            /* \"TimeAllyPET.sol\":624:666  token.approve(petContract, _depositAmount) */\n          mload(0x40)\n          dup4\n          0xffffffff\n          and\n          0xe0\n          shl\n          dup2\n          mstore\n          0x04\n          add\n          dup1\n          dup4\n          0xffffffffffffffffffffffffffffffffffffffff\n          and\n          0xffffffffffffffffffffffffffffffffffffffff\n          and\n          dup2\n          mstore\n          0x20\n          add\n          dup3\n          dup2\n          mstore\n          0x20\n          add\n          swap3\n          pop\n          pop\n          pop\n          0x20\n          mload(0x40)\n          dup1\n          dup4\n          sub\n          dup2\n          0x00\n          dup8\n          dup1\n          extcodesize\n          iszero\n            /* \"--CODEGEN--\":8:17   */\n          dup1\n            /* \"--CODEGEN--\":5:7   */\n          iszero\n          tag_37\n          jumpi\n            /* \"--CODEGEN--\":30:31   */\n          0x00\n            /* \"--CODEGEN--\":27:28   */\n          dup1\n            /* \"--CODEGEN--\":20:32   */\n          revert\n            /* \"--CODEGEN--\":5:7   */\n        tag_37:\n            /* \"TimeAllyPET.sol\":624:666  token.approve(petContract, _depositAmount) */\n          pop\n          gas\n          call\n          iszero\n            /* \"--CODEGEN--\":8:17   */\n          dup1\n            /* \"--CODEGEN--\":5:7   */\n          iszero\n          tag_39\n          jumpi\n            /* \"--CODEGEN--\":45:61   */\n          returndatasize\n            /* \"--CODEGEN--\":42:43   */\n          0x00\n            /* \"--CODEGEN--\":39:40   */\n          dup1\n            /* \"--CODEGEN--\":24:62   */\n          returndatacopy\n            /* \"--CODEGEN--\":77:93   */\n          returndatasize\n            /* \"--CODEGEN--\":74:75   */\n          0x00\n            /* \"--CODEGEN--\":67:94   */\n          revert\n            /* \"--CODEGEN--\":5:7   */\n        tag_39:\n            /* \"TimeAllyPET.sol\":624:666  token.approve(petContract, _depositAmount) */\n          pop\n          pop\n          pop\n          pop\n          mload(0x40)\n          returndatasize\n            /* \"--CODEGEN--\":13:15   */\n          0x20\n            /* \"--CODEGEN--\":8:11   */\n          dup2\n            /* \"--CODEGEN--\":5:16   */\n          lt\n            /* \"--CODEGEN--\":2:4   */\n          iszero\n          tag_40\n          jumpi\n            /* \"--CODEGEN--\":29:30   */\n          0x00\n            /* \"--CODEGEN--\":26:27   */\n          dup1\n            /* \"--CODEGEN--\":19:31   */\n          revert\n            /* \"--CODEGEN--\":2:4   */\n        tag_40:\n            /* \"TimeAllyPET.sol\":624:666  token.approve(petContract, _depositAmount) */\n          dup2\n          add\n          swap1\n          dup1\n          dup1\n          mload\n          swap1\n          0x20\n          add\n          swap1\n          swap3\n          swap2\n          swap1\n          pop\n          pop\n          pop\n          pop\n            /* \"TimeAllyPET.sol\":501:671  function addFunds(uint256 _depositAmount) public {... */\n          pop\n          jump\t// out\n            /* \"TimeAllyPET.sol\":223:241  ERC20 public token */\n        tag_19:\n          0x01\n          0x00\n          swap1\n          sload\n          swap1\n          0x0100\n          exp\n          swap1\n          div\n          0xffffffffffffffffffffffffffffffffffffffff\n          and\n          dup2\n          jump\t// out\n\n        auxdata: 0xa2646970667358221220a852afcaf0fa8e1e08f32c9ec8d25d4ed4a127e7d39ff471c9ea1d4e2b9e3a4564736f6c63430006000033\n    }\n}\n","bytecode":{"linkReferences":{},"object":"60806040523480156200001157600080fd5b50604051620030cb380380620030cb833981810160405260208110156200003757600080fd5b8101908080519060200190929190505050336000806101000a81548173ffffffffffffffffffffffffffffffffffffffff021916908373ffffffffffffffffffffffffffffffffffffffff16021790555080600260006101000a81548173ffffffffffffffffffffffffffffffffffffffff021916908373ffffffffffffffffffffffffffffffffffffffff1602179055508033604051620000d990620001a7565b808373ffffffffffffffffffffffffffffffffffffffff1673ffffffffffffffffffffffffffffffffffffffff1681526020018273ffffffffffffffffffffffffffffffffffffffff1673ffffffffffffffffffffffffffffffffffffffff16815260200192505050604051809103906000f0801580156200015f573d6000803e3d6000fd5b50600160006101000a81548173ffffffffffffffffffffffffffffffffffffffff021916908373ffffffffffffffffffffffffffffffffffffffff16021790555050620001b5565b61081b80620028b083390190565b6126eb80620001c56000396000f3fe608060405234801561001057600080fd5b506004361061010b5760003560e01c806347626531116100a25780639baf14d4116100715780639baf14d41461061e578063dc2c03ef14610676578063f713c79e146106a4578063fb0685df14610710578063fc0c546a146107685761010b565b806347626531146103be57806351a6349d146104345780638da5cb5b1461058057806395a0373c146105ca5761010b565b80633ee20a89116100de5780633ee20a891461025c5780633fd46068146102da578063452f14231461032457806345b37ec4146103865761010b565b80630c254d63146101105780631fdae4b81461017457806326f8bea7146101d657806337482ef114610204575b600080fd5b6101726004803603608081101561012657600080fd5b81019080803573ffffffffffffffffffffffffffffffffffffffff16906020019092919080359060200190929190803590602001909291908035151590602001909291905050506107b2565b005b6101c06004803603604081101561018a57600080fd5b81019080803573ffffffffffffffffffffffffffffffffffffffff16906020019092919080359060200190929190505050610be3565b6040518082815260200191505060405180910390f35b610202600480360360208110156101ec57600080fd5b8101908080359060200190929190505050610c5a565b005b61025a6004803603606081101561021a57600080fd5b81019080803573ffffffffffffffffffffffffffffffffffffffff1690602001909291908035906020019092919080359060200190929190505050610e13565b005b6102a86004803603604081101561027257600080fd5b81019080803573ffffffffffffffffffffffffffffffffffffffff16906020019092919080359060200190929190505050611266565b604051808681526020018581526020018481526020018381526020018281526020019550505050505060405180910390f35b6102e26112b6565b604051808273ffffffffffffffffffffffffffffffffffffffff1673ffffffffffffffffffffffffffffffffffffffff16815260200191505060405180910390f35b6103706004803603604081101561033a57600080fd5b81019080803573ffffffffffffffffffffffffffffffffffffffff169060200190929190803590602001909291905050506112dc565b6040518082815260200191505060405180910390f35b6103bc6004803603604081101561039c57600080fd5b8101908080359060200190929190803590602001909291905050506113fe565b005b61041e600480360360808110156103d457600080fd5b81019080803573ffffffffffffffffffffffffffffffffffffffff169060200190929190803590602001909291908035906020019092919080359060200190929190505050611543565b6040518082815260200191505060405180910390f35b61057e6004803603604081101561044a57600080fd5b810190808035906020019064010000000081111561046757600080fd5b82018360208201111561047957600080fd5b8035906020019184602083028401116401000000008311171561049b57600080fd5b919080806020026020016040519081016040528093929190818152602001838360200280828437600081840152601f19601f820116905080830192505050505050509192919290803590602001906401000000008111156104fb57600080fd5b82018360208201111561050d57600080fd5b8035906020019184602083028401116401000000008311171561052f57600080fd5b919080806020026020016040519081016040528093929190818152602001838360200280828437600081840152601f19601f82011690508083019250505050505050919291929050505061169b565b005b610588611832565b604051808273ffffffffffffffffffffffffffffffffffffffff1673ffffffffffffffffffffffffffffffffffffffff16815260200191505060405180910390f35b6105f6600480360360208110156105e057600080fd5b8101908080359060200190929190505050611857565b6040518084151515158152602001838152602001828152602001935050505060405180910390f35b6106746004803603606081101561063457600080fd5b81019080803573ffffffffffffffffffffffffffffffffffffffff169060200190929190803590602001909291908035906020019092919050505061189b565b005b6106a26004803603602081101561068c57600080fd5b8101908080359060200190929190505050611ddb565b005b6106fa600480360360608110156106ba57600080fd5b81019080803573ffffffffffffffffffffffffffffffffffffffff1690602001909291908035906020019092919080359060200190929190505050611f42565b6040518082815260200191505060405180910390f35b6107526004803603602081101561072657600080fd5b81019080803573ffffffffffffffffffffffffffffffffffffffff169060200190929190505050611fba565b6040518082815260200191505060405180910390f35b610770611fd2565b604051808273ffffffffffffffffffffffffffffffffffffffff1673ffffffffffffffffffffffffffffffffffffffff16815260200191505060405180910390f35b6000821161080b576040517f08c379a00000000000000000000000000000000000000000000000000000000081526004018080602001828103825260218152602001806126956021913960400191505060405180910390fd5b6000600460008673ffffffffffffffffffffffffffffffffffffffff1673ffffffffffffffffffffffffffffffffffffffff168152602001908152602001600020848154811061085757fe5b906000526020600020906009020190506000600382600001548154811061087a57fe5b9060005260206000209060030201905060006108968787610be3565b9050600c8111156108f2576040517f08c379a000000000000000000000000000000000000000000000000000000000815260040180806020018281038252602881526020018061266d6028913960400191505060405180910390fd5b600260009054906101000a900473ffffffffffffffffffffffffffffffffffffffff1673ffffffffffffffffffffffffffffffffffffffff166323b872dd3330886040518463ffffffff1660e01b8152600401808473ffffffffffffffffffffffffffffffffffffffff1673ffffffffffffffffffffffffffffffffffffffff1681526020018373ffffffffffffffffffffffffffffffffffffffff1673ffffffffffffffffffffffffffffffffffffffff1681526020018281526020019350505050602060405180830381600087803b1580156109cf57600080fd5b505af11580156109e3573d6000803e3d6000fd5b505050506040513d60208110156109f957600080fd5b8101908080519060200190929190505050506000610a358685600501600085815260200190815260200160002054611ff890919063ffffffff16565b90506000610a5c856005016000858152602001908152602001600020548660000154612080565b90506000610a8082610a72858960000154612080565b61213d90919063ffffffff16565b9050600260009054906101000a900473ffffffffffffffffffffffffffffffffffffffff1673ffffffffffffffffffffffffffffffffffffffff166323b872dd600160009054906101000a900473ffffffffffffffffffffffffffffffffffffffff1630846040518463ffffffff1660e01b8152600401808473ffffffffffffffffffffffffffffffffffffffff1673ffffffffffffffffffffffffffffffffffffffff1681526020018373ffffffffffffffffffffffffffffffffffffffff1673ffffffffffffffffffffffffffffffffffffffff1681526020018281526020019350505050602060405180830381600087803b158015610b8157600080fd5b505af1158015610b95573d6000803e3d6000fd5b505050506040513d6020811015610bab57600080fd5b810190808051906020019092919050505050828660050160008681526020019081526020016000208190555050505050505050505050565b6000600162282070600460008673ffffffffffffffffffffffffffffffffffffffff1673ffffffffffffffffffffffffffffffffffffffff1681526020019081526020016000208481548110610c3557fe5b906000526020600020906009020160010154420381610c5057fe5b0401905092915050565b600260009054906101000a900473ffffffffffffffffffffffffffffffffffffffff1673ffffffffffffffffffffffffffffffffffffffff166323b872dd3330846040518463ffffffff1660e01b8152600401808473ffffffffffffffffffffffffffffffffffffffff1673ffffffffffffffffffffffffffffffffffffffff1681526020018373ffffffffffffffffffffffffffffffffffffffff1673ffffffffffffffffffffffffffffffffffffffff1681526020018281526020019350505050602060405180830381600087803b158015610d3757600080fd5b505af1158015610d4b573d6000803e3d6000fd5b505050506040513d6020811015610d6157600080fd5b8101908080519060200190929190505050610d7b57600080fd5b610dcd81600560003373ffffffffffffffffffffffffffffffffffffffff1673ffffffffffffffffffffffffffffffffffffffff16815260200190815260200160002054611ff890919063ffffffff16565b600560003373ffffffffffffffffffffffffffffffffffffffff1673ffffffffffffffffffffffffffffffffffffffff1681526020019081526020016000208190555050565b82826000600460008473ffffffffffffffffffffffffffffffffffffffff1673ffffffffffffffffffffffffffffffffffffffff1681526020019081526020016000208281548110610e6157fe5b906000526020600020906009020190508273ffffffffffffffffffffffffffffffffffffffff163373ffffffffffffffffffffffffffffffffffffffff1614610f66578060070160003373ffffffffffffffffffffffffffffffffffffffff1673ffffffffffffffffffffffffffffffffffffffff16815260200190815260200160002060009054906101000a900460ff16610f65576040517f08c379a000000000000000000000000000000000000000000000000000000000815260040180806020018281038252601a8152602001807f6e6f6d696e6174696f6e2073686f756c6420626520746865726500000000000081525060200191505060405180910390fd5b5b6000600460008873ffffffffffffffffffffffffffffffffffffffff1673ffffffffffffffffffffffffffffffffffffffff1681526020019081526020016000208681548110610fb257fe5b90600052602060002090600902019050600081600201549050858110611040576040517f08c379a000000000000000000000000000000000000000000000000000000000815260040180806020018281038252601a8152602001807f73746172742073686f756c64206265206265666f726520656e6400000000000081525060200191505060405180910390fd5b603c8611156110b7576040517f08c379a000000000000000000000000000000000000000000000000000000000815260040180806020018281038252601a8152602001807f6f6e6c7920363020416e6e756974792077697468647261776c7300000000000081525060200191505060405180910390fd5b60006110c4898989612187565b90508042101561113c576040517f08c379a00000000000000000000000000000000000000000000000000000000081526004018080602001828103825260158152602001807f63616e6e6f74207769746864726177206561726c79000000000000000000000081525060200191505060405180910390fd5b600061114d8a8a600186018b611543565b9050878460020181905550600083141561116c5761116b8a8a612279565b5b6000811461125a57600260009054906101000a900473ffffffffffffffffffffffffffffffffffffffff1673ffffffffffffffffffffffffffffffffffffffff1663a9059cbb33836040518363ffffffff1660e01b8152600401808373ffffffffffffffffffffffffffffffffffffffff1673ffffffffffffffffffffffffffffffffffffffff16815260200182815260200192505050602060405180830381600087803b15801561121d57600080fd5b505af1158015611231573d6000803e3d6000fd5b505050506040513d602081101561124757600080fd5b8101908080519060200190929190505050505b50505050505050505050565b6004602052816000526040600020818154811061127f57fe5b9060005260206000209060090201600091509150508060000154908060010154908060020154908060030154908060040154905085565b600160009054906101000a900473ffffffffffffffffffffffffffffffffffffffff1681565b600080600460008573ffffffffffffffffffffffffffffffffffffffff1673ffffffffffffffffffffffffffffffffffffffff168152602001908152602001600020838154811061132957fe5b906000526020600020906009020190506000600382600001548154811061134c57fe5b90600052602060002090600302019050600080600190505b600c81116113de57600084600501600083815260200190815260200160002054905061139e600285600101546123f590919063ffffffff16565b81106113bb576113b860028261243f90919063ffffffff16565b90505b6113ce8184611ff890919063ffffffff16565b9250508080600101915050611364565b506113f3600c826123f590919063ffffffff16565b935050505092915050565b6000809054906101000a900473ffffffffffffffffffffffffffffffffffffffff1673ffffffffffffffffffffffffffffffffffffffff163373ffffffffffffffffffffffffffffffffffffffff16146114c0576040517f08c379a00000000000000000000000000000000000000000000000000000000081526004018080602001828103825260168152602001807f6f6e6c79206465706c6f7965722063616e2063616c6c0000000000000000000081525060200191505060405180910390fd5b6003604051806060016040528060011515815260200184815260200183815250908060018154018082558091505060019003906000526020600020906003020160009091909190915060008201518160000160006101000a81548160ff021916908315150217905550602082015181600101556040820151816002015550505050565b600080600460008773ffffffffffffffffffffffffffffffffffffffff1673ffffffffffffffffffffffffffffffffffffffff168152602001908152602001600020858154811061159057fe5b90600052602060002090600902019050600060038260000154815481106115b357fe5b906000526020600020906003020190506000808690505b858111611662576000600c82816115dd57fe5b06905060008560050160008084146115f557836115f8565b600c5b8152602001908152602001600020549050611621600286600101546123f590919063ffffffff16565b811061163e5761163b60028261243f90919063ffffffff16565b90505b6116518185611ff890919063ffffffff16565b9350505080806001019150506115ca565b5061168e6103e861168084600201548461243f90919063ffffffff16565b6123f590919063ffffffff16565b9350505050949350505050565b60008090505b825181101561182d5761170f8282815181106116b957fe5b6020026020010151600560003373ffffffffffffffffffffffffffffffffffffffff1673ffffffffffffffffffffffffffffffffffffffff1681526020019081526020016000205461213d90919063ffffffff16565b600560003373ffffffffffffffffffffffffffffffffffffffff1673ffffffffffffffffffffffffffffffffffffffff168152602001908152602001600020819055506117ca82828151811061176157fe5b60200260200101516005600086858151811061177957fe5b602002602001015173ffffffffffffffffffffffffffffffffffffffff1673ffffffffffffffffffffffffffffffffffffffff16815260200190815260200160002054611ff890919063ffffffff16565b600560008584815181106117da57fe5b602002602001015173ffffffffffffffffffffffffffffffffffffffff1673ffffffffffffffffffffffffffffffffffffffff1681526020019081526020016000208190555080806001019150506116a1565b505050565b6000809054906101000a900473ffffffffffffffffffffffffffffffffffffffff1681565b6003818154811061186457fe5b90600052602060002090600302016000915090508060000160009054906101000a900460ff16908060010154908060020154905083565b82826000600460008473ffffffffffffffffffffffffffffffffffffffff1673ffffffffffffffffffffffffffffffffffffffff16815260200190815260200160002082815481106118e957fe5b906000526020600020906009020190508273ffffffffffffffffffffffffffffffffffffffff163373ffffffffffffffffffffffffffffffffffffffff16146119ee578060070160003373ffffffffffffffffffffffffffffffffffffffff1673ffffffffffffffffffffffffffffffffffffffff16815260200190815260200160002060009054906101000a900460ff166119ed576040517f08c379a000000000000000000000000000000000000000000000000000000000815260040180806020018281038252601a8152602001807f6e6f6d696e6174696f6e2073686f756c6420626520746865726500000000000081525060200191505060405180910390fd5b5b6000600460008873ffffffffffffffffffffffffffffffffffffffff1673ffffffffffffffffffffffffffffffffffffffff1681526020019081526020016000208681548110611a3a57fe5b9060005260206000209060090201905060006003826000015481548110611a5d57fe5b9060005260206000209060030201905085600111158015611a7f5750600c8611155b611af1576040517f08c379a00000000000000000000000000000000000000000000000000000000081526004018080602001828103825260158152602001807f69642073686f756c6420626520696e2072616e6765000000000000000000000081525060200191505060405180910390fd5b81600601600087815260200190815260200160002060009054906101000a900460ff1615611b87576040517f08c379a00000000000000000000000000000000000000000000000000000000081526004018080602001828103825260198152602001807f626f6f7374657220616c72656164792077697468647261776e0000000000000081525060200191505060405180910390fd5b806001015482600501600088600d038152602001908152602001600020541015611c19576040517f08c379a00000000000000000000000000000000000000000000000000000000081526004018080602001828103825260138152602001807f746172676574206e6f742061636869657665640000000000000000000000000081525060200191505060405180910390fd5b6000611c2c8989600160058b0201612187565b905080421015611ca4576040517f08c379a00000000000000000000000000000000000000000000000000000000081526004018080602001828103825260158152602001807f63616e6e6f74207769746864726177206561726c79000000000000000000000081525060200191505060405180910390fd5b6000611cb08a8a6112dc565b90506000811115611dcf5760018460060160008a815260200190815260200160002060006101000a81548160ff021916908315150217905550600260009054906101000a900473ffffffffffffffffffffffffffffffffffffffff1673ffffffffffffffffffffffffffffffffffffffff1663a9059cbb33836040518363ffffffff1660e01b8152600401808373ffffffffffffffffffffffffffffffffffffffff1673ffffffffffffffffffffffffffffffffffffffff16815260200182815260200192505050602060405180830381600087803b158015611d9257600080fd5b505af1158015611da6573d6000803e3d6000fd5b505050506040513d6020811015611dbc57600080fd5b8101908080519060200190929190505050505b50505050505050505050565b60038181548110611de857fe5b906000526020600020906003020160000160009054906101000a900460ff16611e79576040517f08c379a00000000000000000000000000000000000000000000000000000000081526004018080602001828103825260168152602001807f50455420706c616e206973206e6f74206163746976650000000000000000000081525060200191505060405180910390fd5b600460003373ffffffffffffffffffffffffffffffffffffffff1673ffffffffffffffffffffffffffffffffffffffff1681526020019081526020016000206040518060a001604052808381526020014281526020016000815260200160008152602001600081525090806001815401808255809150506001900390600052602060002090600902016000909190919091506000820151816000015560208201518160010155604082015181600201556060820151816003015560808201518160040155505050565b6000600460008573ffffffffffffffffffffffffffffffffffffffff1673ffffffffffffffffffffffffffffffffffffffff1681526020019081526020016000208381548110611f8e57fe5b906000526020600020906009020160050160008381526020019081526020016000205490509392505050565b60056020528060005260406000206000915090505481565b600260009054906101000a900473ffffffffffffffffffffffffffffffffffffffff1681565b600080828401905083811015612076576040517f08c379a000000000000000000000000000000000000000000000000000000000815260040180806020018281038252601b8152602001807f536166654d6174683a206164646974696f6e206f766572666c6f77000000000081525060200191505060405180910390fd5b8091505092915050565b6000806003838154811061209057fe5b90600052602060002090600302019050600084905060006120bf600284600101546123f590919063ffffffff16565b86106120df576120d960028361243f90919063ffffffff16565b91508590505b61212f6121206103e8612112600561210488600201548861243f90919063ffffffff16565b61243f90919063ffffffff16565b6123f590919063ffffffff16565b82611ff890919063ffffffff16565b905080935050505092915050565b600061217f83836040518060400160405280601e81526020017f536166654d6174683a207375627472616374696f6e206f766572666c6f7700008152506124c5565b905092915050565b600080600460008673ffffffffffffffffffffffffffffffffffffffff1673ffffffffffffffffffffffffffffffffffffffff16815260200190815260200160002084815481106121d457fe5b90600052602060002090600902019050600062282070600185600c01030282600101540190508573ffffffffffffffffffffffffffffffffffffffff163373ffffffffffffffffffffffffffffffffffffffff161461226d57612245600283600401546123f590919063ffffffff16565b8260030154111561226057600662282070028101905061226c565b600c6228207002810190505b5b80925050509392505050565b6000600460008473ffffffffffffffffffffffffffffffffffffffff1673ffffffffffffffffffffffffffffffffffffffff16815260200190815260200160002082815481106122c557fe5b90600052602060002090600902019050600060038260000154815481106122e857fe5b90600052602060002090600302019050600080600190505b600c811161233f5782600101548460050160008381526020019081526020016000205410156123325781806001019250505b8080600101915050612300565b50600061234c86866112dc565b9050600260009054906101000a900473ffffffffffffffffffffffffffffffffffffffff1673ffffffffffffffffffffffffffffffffffffffff166342966c6861239f848461243f90919063ffffffff16565b6040518263ffffffff1660e01b815260040180828152602001915050600060405180830381600087803b1580156123d557600080fd5b505af11580156123e9573d6000803e3d6000fd5b50505050505050505050565b600061243783836040518060400160405280601a81526020017f536166654d6174683a206469766973696f6e206279207a65726f000000000000815250612585565b905092915050565b60008083141561245257600090506124bf565b600082840290508284828161246357fe5b04146124ba576040517f08c379a000000000000000000000000000000000000000000000000000000000815260040180806020018281038252602181526020018061264c6021913960400191505060405180910390fd5b809150505b92915050565b6000838311158290612572576040517f08c379a00000000000000000000000000000000000000000000000000000000081526004018080602001828103825283818151815260200191508051906020019080838360005b8381101561253757808201518184015260208101905061251c565b50505050905090810190601f1680156125645780820380516001836020036101000a031916815260200191505b509250505060405180910390fd5b5060008385039050809150509392505050565b60008083118290612631576040517f08c379a00000000000000000000000000000000000000000000000000000000081526004018080602001828103825283818151815260200191508051906020019080838360005b838110156125f65780820151818401526020810190506125db565b50505050905090810190601f1680156126235780820380516001836020036101000a031916815260200191505b509250505060405180910390fd5b50600083858161263d57fe5b04905080915050939250505056fe536166654d6174683a206d756c7469706c69636174696f6e206f766572666c6f7763616e6e6f74206465706f73697420616674657220616363756d756c6174696f6e20706572696f646465706f73697420616d6f756e742073686f756c64206265206e6f6e207a65726fa2646970667358221220fba06dc7d6ef3fca64d3113d4cd0ef55dd0725c9c96b909be005d56ebfb6b96864736f6c63430006000033608060405234801561001057600080fd5b5060405161081b38038061081b8339818101604052604081101561003357600080fd5b81019080805190602001909291908051906020019092919050505081600160006101000a81548173ffffffffffffffffffffffffffffffffffffffff021916908373ffffffffffffffffffffffffffffffffffffffff160217905550806000806101000a81548173ffffffffffffffffffffffffffffffffffffffff021916908373ffffffffffffffffffffffffffffffffffffffff16021790555033600260006101000a81548173ffffffffffffffffffffffffffffffffffffffff021916908373ffffffffffffffffffffffffffffffffffffffff16021790555050506106fa806101216000396000f3fe608060405234801561001057600080fd5b50600436106100575760003560e01c80633b4d8a7d1461005c5780638da5cb5b146100965780639997e137146100e0578063be9997051461012a578063fc0c546a14610158575b600080fd5b6100946004803603604081101561007257600080fd5b81019080803515159060200190929190803590602001909291905050506101a2565b005b61009e610430565b604051808273ffffffffffffffffffffffffffffffffffffffff1673ffffffffffffffffffffffffffffffffffffffff16815260200191505060405180910390f35b6100e8610455565b604051808273ffffffffffffffffffffffffffffffffffffffff1673ffffffffffffffffffffffffffffffffffffffff16815260200191505060405180910390f35b6101566004803603602081101561014057600080fd5b810190808035906020019092919050505061047b565b005b61016061069e565b604051808273ffffffffffffffffffffffffffffffffffffffff1673ffffffffffffffffffffffffffffffffffffffff16815260200191505060405180910390f35b6000809054906101000a900473ffffffffffffffffffffffffffffffffffffffff1673ffffffffffffffffffffffffffffffffffffffff163373ffffffffffffffffffffffffffffffffffffffff1614610264576040517f08c379a00000000000000000000000000000000000000000000000000000000081526004018080602001828103825260168152602001807f6f6e6c79206465706c6f7965722063616e2063616c6c0000000000000000000081525060200191505060405180910390fd5b811561034757600160009054906101000a900473ffffffffffffffffffffffffffffffffffffffff1673ffffffffffffffffffffffffffffffffffffffff166370a08231306040518263ffffffff1660e01b8152600401808273ffffffffffffffffffffffffffffffffffffffff1673ffffffffffffffffffffffffffffffffffffffff16815260200191505060206040518083038186803b15801561030957600080fd5b505afa15801561031d573d6000803e3d6000fd5b505050506040513d602081101561033357600080fd5b810190808051906020019092919050505090505b600160009054906101000a900473ffffffffffffffffffffffffffffffffffffffff1673ffffffffffffffffffffffffffffffffffffffff1663a9059cbb33836040518363ffffffff1660e01b8152600401808373ffffffffffffffffffffffffffffffffffffffff1673ffffffffffffffffffffffffffffffffffffffff16815260200182815260200192505050602060405180830381600087803b1580156103f057600080fd5b505af1158015610404573d6000803e3d6000fd5b505050506040513d602081101561041a57600080fd5b8101908080519060200190929190505050505050565b6000809054906101000a900473ffffffffffffffffffffffffffffffffffffffff1681565b600260009054906101000a900473ffffffffffffffffffffffffffffffffffffffff1681565b600160009054906101000a900473ffffffffffffffffffffffffffffffffffffffff1673ffffffffffffffffffffffffffffffffffffffff166323b872dd3330846040518463ffffffff1660e01b8152600401808473ffffffffffffffffffffffffffffffffffffffff1673ffffffffffffffffffffffffffffffffffffffff1681526020018373ffffffffffffffffffffffffffffffffffffffff1673ffffffffffffffffffffffffffffffffffffffff1681526020018281526020019350505050602060405180830381600087803b15801561055857600080fd5b505af115801561056c573d6000803e3d6000fd5b505050506040513d602081101561058257600080fd5b810190808051906020019092919050505050600160009054906101000a900473ffffffffffffffffffffffffffffffffffffffff1673ffffffffffffffffffffffffffffffffffffffff1663095ea7b3600260009054906101000a900473ffffffffffffffffffffffffffffffffffffffff16836040518363ffffffff1660e01b8152600401808373ffffffffffffffffffffffffffffffffffffffff1673ffffffffffffffffffffffffffffffffffffffff16815260200182815260200192505050602060405180830381600087803b15801561065f57600080fd5b505af1158015610673573d6000803e3d6000fd5b505050506040513d602081101561068957600080fd5b81019080805190602001909291905050505050565b600160009054906101000a900473ffffffffffffffffffffffffffffffffffffffff168156fea2646970667358221220a852afcaf0fa8e1e08f32c9ec8d25d4ed4a127e7d39ff471c9ea1d4e2b9e3a4564736f6c63430006000033","opcodes":"PUSH1 0x80 PUSH1 0x40 MSTORE CALLVALUE DUP1 ISZERO PUSH3 0x11 JUMPI PUSH1 0x0 DUP1 REVERT JUMPDEST POP PUSH1 0x40 MLOAD PUSH3 0x30CB CODESIZE SUB DUP1 PUSH3 0x30CB DUP4 CODECOPY DUP2 DUP2 ADD PUSH1 0x40 MSTORE PUSH1 0x20 DUP2 LT ISZERO PUSH3 0x37 JUMPI PUSH1 0x0 DUP1 REVERT JUMPDEST DUP2 ADD SWAP1 DUP1 DUP1 MLOAD SWAP1 PUSH1 0x20 ADD SWAP1 SWAP3 SWAP2 SWAP1 POP POP POP CALLER PUSH1 0x0 DUP1 PUSH2 0x100 EXP DUP2 SLOAD DUP2 PUSH20 0xFFFFFFFFFFFFFFFFFFFFFFFFFFFFFFFFFFFFFFFF MUL NOT AND SWAP1 DUP4 PUSH20 0xFFFFFFFFFFFFFFFFFFFFFFFFFFFFFFFFFFFFFFFF AND MUL OR SWAP1 SSTORE POP DUP1 PUSH1 0x2 PUSH1 0x0 PUSH2 0x100 EXP DUP2 SLOAD DUP2 PUSH20 0xFFFFFFFFFFFFFFFFFFFFFFFFFFFFFFFFFFFFFFFF MUL NOT AND SWAP1 DUP4 PUSH20 0xFFFFFFFFFFFFFFFFFFFFFFFFFFFFFFFFFFFFFFFF AND MUL OR SWAP1 SSTORE POP DUP1 CALLER PUSH1 0x40 MLOAD PUSH3 0xD9 SWAP1 PUSH3 0x1A7 JUMP JUMPDEST DUP1 DUP4 PUSH20 0xFFFFFFFFFFFFFFFFFFFFFFFFFFFFFFFFFFFFFFFF AND PUSH20 0xFFFFFFFFFFFFFFFFFFFFFFFFFFFFFFFFFFFFFFFF AND DUP2 MSTORE PUSH1 0x20 ADD DUP3 PUSH20 0xFFFFFFFFFFFFFFFFFFFFFFFFFFFFFFFFFFFFFFFF AND PUSH20 0xFFFFFFFFFFFFFFFFFFFFFFFFFFFFFFFFFFFFFFFF AND DUP2 MSTORE PUSH1 0x20 ADD SWAP3 POP POP POP PUSH1 0x40 MLOAD DUP1 SWAP2 SUB SWAP1 PUSH1 0x0 CREATE DUP1 ISZERO DUP1 ISZERO PUSH3 0x15F JUMPI RETURNDATASIZE PUSH1 0x0 DUP1 RETURNDATACOPY RETURNDATASIZE PUSH1 0x0 REVERT JUMPDEST POP PUSH1 0x1 PUSH1 0x0 PUSH2 0x100 EXP DUP2 SLOAD DUP2 PUSH20 0xFFFFFFFFFFFFFFFFFFFFFFFFFFFFFFFFFFFFFFFF MUL NOT AND SWAP1 DUP4 PUSH20 0xFFFFFFFFFFFFFFFFFFFFFFFFFFFFFFFFFFFFFFFF AND MUL OR SWAP1 SSTORE POP POP PUSH3 0x1B5 JUMP JUMPDEST PUSH2 0x81B DUP1 PUSH3 0x28B0 DUP4 CODECOPY ADD SWAP1 JUMP JUMPDEST PUSH2 0x26EB DUP1 PUSH3 0x1C5 PUSH1 0x0 CODECOPY PUSH1 0x0 RETURN INVALID PUSH1 0x80 PUSH1 0x40 MSTORE CALLVALUE DUP1 ISZERO PUSH2 0x10 JUMPI PUSH1 0x0 DUP1 REVERT JUMPDEST POP PUSH1 0x4 CALLDATASIZE LT PUSH2 0x10B JUMPI PUSH1 0x0 CALLDATALOAD PUSH1 0xE0 SHR DUP1 PUSH4 0x47626531 GT PUSH2 0xA2 JUMPI DUP1 PUSH4 0x9BAF14D4 GT PUSH2 0x71 JUMPI DUP1 PUSH4 0x9BAF14D4 EQ PUSH2 0x61E JUMPI DUP1 PUSH4 0xDC2C03EF EQ PUSH2 0x676 JUMPI DUP1 PUSH4 0xF713C79E EQ PUSH2 0x6A4 JUMPI DUP1 PUSH4 0xFB0685DF EQ PUSH2 0x710 JUMPI DUP1 PUSH4 0xFC0C546A EQ PUSH2 0x768 JUMPI PUSH2 0x10B JUMP JUMPDEST DUP1 PUSH4 0x47626531 EQ PUSH2 0x3BE JUMPI DUP1 PUSH4 0x51A6349D EQ PUSH2 0x434 JUMPI DUP1 PUSH4 0x8DA5CB5B EQ PUSH2 0x580 JUMPI DUP1 PUSH4 0x95A0373C EQ PUSH2 0x5CA JUMPI PUSH2 0x10B JUMP JUMPDEST DUP1 PUSH4 0x3EE20A89 GT PUSH2 0xDE JUMPI DUP1 PUSH4 0x3EE20A89 EQ PUSH2 0x25C JUMPI DUP1 PUSH4 0x3FD46068 EQ PUSH2 0x2DA JUMPI DUP1 PUSH4 0x452F1423 EQ PUSH2 0x324 JUMPI DUP1 PUSH4 0x45B37EC4 EQ PUSH2 0x386 JUMPI PUSH2 0x10B JUMP JUMPDEST DUP1 PUSH4 0xC254D63 EQ PUSH2 0x110 JUMPI DUP1 PUSH4 0x1FDAE4B8 EQ PUSH2 0x174 JUMPI DUP1 PUSH4 0x26F8BEA7 EQ PUSH2 0x1D6 JUMPI DUP1 PUSH4 0x37482EF1 EQ PUSH2 0x204 JUMPI JUMPDEST PUSH1 0x0 DUP1 REVERT JUMPDEST PUSH2 0x172 PUSH1 0x4 DUP1 CALLDATASIZE SUB PUSH1 0x80 DUP2 LT ISZERO PUSH2 0x126 JUMPI PUSH1 0x0 DUP1 REVERT JUMPDEST DUP2 ADD SWAP1 DUP1 DUP1 CALLDATALOAD PUSH20 0xFFFFFFFFFFFFFFFFFFFFFFFFFFFFFFFFFFFFFFFF AND SWAP1 PUSH1 0x20 ADD SWAP1 SWAP3 SWAP2 SWAP1 DUP1 CALLDATALOAD SWAP1 PUSH1 0x20 ADD SWAP1 SWAP3 SWAP2 SWAP1 DUP1 CALLDATALOAD SWAP1 PUSH1 0x20 ADD SWAP1 SWAP3 SWAP2 SWAP1 DUP1 CALLDATALOAD ISZERO ISZERO SWAP1 PUSH1 0x20 ADD SWAP1 SWAP3 SWAP2 SWAP1 POP POP POP PUSH2 0x7B2 JUMP JUMPDEST STOP JUMPDEST PUSH2 0x1C0 PUSH1 0x4 DUP1 CALLDATASIZE SUB PUSH1 0x40 DUP2 LT ISZERO PUSH2 0x18A JUMPI PUSH1 0x0 DUP1 REVERT JUMPDEST DUP2 ADD SWAP1 DUP1 DUP1 CALLDATALOAD PUSH20 0xFFFFFFFFFFFFFFFFFFFFFFFFFFFFFFFFFFFFFFFF AND SWAP1 PUSH1 0x20 ADD SWAP1 SWAP3 SWAP2 SWAP1 DUP1 CALLDATALOAD SWAP1 PUSH1 0x20 ADD SWAP1 SWAP3 SWAP2 SWAP1 POP POP POP PUSH2 0xBE3 JUMP JUMPDEST PUSH1 0x40 MLOAD DUP1 DUP3 DUP2 MSTORE PUSH1 0x20 ADD SWAP2 POP POP PUSH1 0x40 MLOAD DUP1 SWAP2 SUB SWAP1 RETURN JUMPDEST PUSH2 0x202 PUSH1 0x4 DUP1 CALLDATASIZE SUB PUSH1 0x20 DUP2 LT ISZERO PUSH2 0x1EC JUMPI PUSH1 0x0 DUP1 REVERT JUMPDEST DUP2 ADD SWAP1 DUP1 DUP1 CALLDATALOAD SWAP1 PUSH1 0x20 ADD SWAP1 SWAP3 SWAP2 SWAP1 POP POP POP PUSH2 0xC5A JUMP JUMPDEST STOP JUMPDEST PUSH2 0x25A PUSH1 0x4 DUP1 CALLDATASIZE SUB PUSH1 0x60 DUP2 LT ISZERO PUSH2 0x21A JUMPI PUSH1 0x0 DUP1 REVERT JUMPDEST DUP2 ADD SWAP1 DUP1 DUP1 CALLDATALOAD PUSH20 0xFFFFFFFFFFFFFFFFFFFFFFFFFFFFFFFFFFFFFFFF AND SWAP1 PUSH1 0x20 ADD SWAP1 SWAP3 SWAP2 SWAP1 DUP1 CALLDATALOAD SWAP1 PUSH1 0x20 ADD SWAP1 SWAP3 SWAP2 SWAP1 DUP1 CALLDATALOAD SWAP1 PUSH1 0x20 ADD SWAP1 SWAP3 SWAP2 SWAP1 POP POP POP PUSH2 0xE13 JUMP JUMPDEST STOP JUMPDEST PUSH2 0x2A8 PUSH1 0x4 DUP1 CALLDATASIZE SUB PUSH1 0x40 DUP2 LT ISZERO PUSH2 0x272 JUMPI PUSH1 0x0 DUP1 REVERT JUMPDEST DUP2 ADD SWAP1 DUP1 DUP1 CALLDATALOAD PUSH20 0xFFFFFFFFFFFFFFFFFFFFFFFFFFFFFFFFFFFFFFFF AND SWAP1 PUSH1 0x20 ADD SWAP1 SWAP3 SWAP2 SWAP1 DUP1 CALLDATALOAD SWAP1 PUSH1 0x20 ADD SWAP1 SWAP3 SWAP2 SWAP1 POP POP POP PUSH2 0x1266 JUMP JUMPDEST PUSH1 0x40 MLOAD DUP1 DUP7 DUP2 MSTORE PUSH1 0x20 ADD DUP6 DUP2 MSTORE PUSH1 0x20 ADD DUP5 DUP2 MSTORE PUSH1 0x20 ADD DUP4 DUP2 MSTORE PUSH1 0x20 ADD DUP3 DUP2 MSTORE PUSH1 0x20 ADD SWAP6 POP POP POP POP POP POP PUSH1 0x40 MLOAD DUP1 SWAP2 SUB SWAP1 RETURN JUMPDEST PUSH2 0x2E2 PUSH2 0x12B6 JUMP JUMPDEST PUSH1 0x40 MLOAD DUP1 DUP3 PUSH20 0xFFFFFFFFFFFFFFFFFFFFFFFFFFFFFFFFFFFFFFFF AND PUSH20 0xFFFFFFFFFFFFFFFFFFFFFFFFFFFFFFFFFFFFFFFF AND DUP2 MSTORE PUSH1 0x20 ADD SWAP2 POP POP PUSH1 0x40 MLOAD DUP1 SWAP2 SUB SWAP1 RETURN JUMPDEST PUSH2 0x370 PUSH1 0x4 DUP1 CALLDATASIZE SUB PUSH1 0x40 DUP2 LT ISZERO PUSH2 0x33A JUMPI PUSH1 0x0 DUP1 REVERT JUMPDEST DUP2 ADD SWAP1 DUP1 DUP1 CALLDATALOAD PUSH20 0xFFFFFFFFFFFFFFFFFFFFFFFFFFFFFFFFFFFFFFFF AND SWAP1 PUSH1 0x20 ADD SWAP1 SWAP3 SWAP2 SWAP1 DUP1 CALLDATALOAD SWAP1 PUSH1 0x20 ADD SWAP1 SWAP3 SWAP2 SWAP1 POP POP POP PUSH2 0x12DC JUMP JUMPDEST PUSH1 0x40 MLOAD DUP1 DUP3 DUP2 MSTORE PUSH1 0x20 ADD SWAP2 POP POP PUSH1 0x40 MLOAD DUP1 SWAP2 SUB SWAP1 RETURN JUMPDEST PUSH2 0x3BC PUSH1 0x4 DUP1 CALLDATASIZE SUB PUSH1 0x40 DUP2 LT ISZERO PUSH2 0x39C JUMPI PUSH1 0x0 DUP1 REVERT JUMPDEST DUP2 ADD SWAP1 DUP1 DUP1 CALLDATALOAD SWAP1 PUSH1 0x20 ADD SWAP1 SWAP3 SWAP2 SWAP1 DUP1 CALLDATALOAD SWAP1 PUSH1 0x20 ADD SWAP1 SWAP3 SWAP2 SWAP1 POP POP POP PUSH2 0x13FE JUMP JUMPDEST STOP JUMPDEST PUSH2 0x41E PUSH1 0x4 DUP1 CALLDATASIZE SUB PUSH1 0x80 DUP2 LT ISZERO PUSH2 0x3D4 JUMPI PUSH1 0x0 DUP1 REVERT JUMPDEST DUP2 ADD SWAP1 DUP1 DUP1 CALLDATALOAD PUSH20 0xFFFFFFFFFFFFFFFFFFFFFFFFFFFFFFFFFFFFFFFF AND SWAP1 PUSH1 0x20 ADD SWAP1 SWAP3 SWAP2 SWAP1 DUP1 CALLDATALOAD SWAP1 PUSH1 0x20 ADD SWAP1 SWAP3 SWAP2 SWAP1 DUP1 CALLDATALOAD SWAP1 PUSH1 0x20 ADD SWAP1 SWAP3 SWAP2 SWAP1 DUP1 CALLDATALOAD SWAP1 PUSH1 0x20 ADD SWAP1 SWAP3 SWAP2 SWAP1 POP POP POP PUSH2 0x1543 JUMP JUMPDEST PUSH1 0x40 MLOAD DUP1 DUP3 DUP2 MSTORE PUSH1 0x20 ADD SWAP2 POP POP PUSH1 0x40 MLOAD DUP1 SWAP2 SUB SWAP1 RETURN JUMPDEST PUSH2 0x57E PUSH1 0x4 DUP1 CALLDATASIZE SUB PUSH1 0x40 DUP2 LT ISZERO PUSH2 0x44A JUMPI PUSH1 0x0 DUP1 REVERT JUMPDEST DUP2 ADD SWAP1 DUP1 DUP1 CALLDATALOAD SWAP1 PUSH1 0x20 ADD SWAP1 PUSH5 0x100000000 DUP2 GT ISZERO PUSH2 0x467 JUMPI PUSH1 0x0 DUP1 REVERT JUMPDEST DUP3 ADD DUP4 PUSH1 0x20 DUP3 ADD GT ISZERO PUSH2 0x479 JUMPI PUSH1 0x0 DUP1 REVERT JUMPDEST DUP1 CALLDATALOAD SWAP1 PUSH1 0x20 ADD SWAP2 DUP5 PUSH1 0x20 DUP4 MUL DUP5 ADD GT PUSH5 0x100000000 DUP4 GT OR ISZERO PUSH2 0x49B JUMPI PUSH1 0x0 DUP1 REVERT JUMPDEST SWAP2 SWAP1 DUP1 DUP1 PUSH1 0x20 MUL PUSH1 0x20 ADD PUSH1 0x40 MLOAD SWAP1 DUP2 ADD PUSH1 0x40 MSTORE DUP1 SWAP4 SWAP3 SWAP2 SWAP1 DUP2 DUP2 MSTORE PUSH1 0x20 ADD DUP4 DUP4 PUSH1 0x20 MUL DUP1 DUP3 DUP5 CALLDATACOPY PUSH1 0x0 DUP2 DUP5 ADD MSTORE PUSH1 0x1F NOT PUSH1 0x1F DUP3 ADD AND SWAP1 POP DUP1 DUP4 ADD SWAP3 POP POP POP POP POP POP POP SWAP2 SWAP3 SWAP2 SWAP3 SWAP1 DUP1 CALLDATALOAD SWAP1 PUSH1 0x20 ADD SWAP1 PUSH5 0x100000000 DUP2 GT ISZERO PUSH2 0x4FB JUMPI PUSH1 0x0 DUP1 REVERT JUMPDEST DUP3 ADD DUP4 PUSH1 0x20 DUP3 ADD GT ISZERO PUSH2 0x50D JUMPI PUSH1 0x0 DUP1 REVERT JUMPDEST DUP1 CALLDATALOAD SWAP1 PUSH1 0x20 ADD SWAP2 DUP5 PUSH1 0x20 DUP4 MUL DUP5 ADD GT PUSH5 0x100000000 DUP4 GT OR ISZERO PUSH2 0x52F JUMPI PUSH1 0x0 DUP1 REVERT JUMPDEST SWAP2 SWAP1 DUP1 DUP1 PUSH1 0x20 MUL PUSH1 0x20 ADD PUSH1 0x40 MLOAD SWAP1 DUP2 ADD PUSH1 0x40 MSTORE DUP1 SWAP4 SWAP3 SWAP2 SWAP1 DUP2 DUP2 MSTORE PUSH1 0x20 ADD DUP4 DUP4 PUSH1 0x20 MUL DUP1 DUP3 DUP5 CALLDATACOPY PUSH1 0x0 DUP2 DUP5 ADD MSTORE PUSH1 0x1F NOT PUSH1 0x1F DUP3 ADD AND SWAP1 POP DUP1 DUP4 ADD SWAP3 POP POP POP POP POP POP POP SWAP2 SWAP3 SWAP2 SWAP3 SWAP1 POP POP POP PUSH2 0x169B JUMP JUMPDEST STOP JUMPDEST PUSH2 0x588 PUSH2 0x1832 JUMP JUMPDEST PUSH1 0x40 MLOAD DUP1 DUP3 PUSH20 0xFFFFFFFFFFFFFFFFFFFFFFFFFFFFFFFFFFFFFFFF AND PUSH20 0xFFFFFFFFFFFFFFFFFFFFFFFFFFFFFFFFFFFFFFFF AND DUP2 MSTORE PUSH1 0x20 ADD SWAP2 POP POP PUSH1 0x40 MLOAD DUP1 SWAP2 SUB SWAP1 RETURN JUMPDEST PUSH2 0x5F6 PUSH1 0x4 DUP1 CALLDATASIZE SUB PUSH1 0x20 DUP2 LT ISZERO PUSH2 0x5E0 JUMPI PUSH1 0x0 DUP1 REVERT JUMPDEST DUP2 ADD SWAP1 DUP1 DUP1 CALLDATALOAD SWAP1 PUSH1 0x20 ADD SWAP1 SWAP3 SWAP2 SWAP1 POP POP POP PUSH2 0x1857 JUMP JUMPDEST PUSH1 0x40 MLOAD DUP1 DUP5 ISZERO ISZERO ISZERO ISZERO DUP2 MSTORE PUSH1 0x20 ADD DUP4 DUP2 MSTORE PUSH1 0x20 ADD DUP3 DUP2 MSTORE PUSH1 0x20 ADD SWAP4 POP POP POP POP PUSH1 0x40 MLOAD DUP1 SWAP2 SUB SWAP1 RETURN JUMPDEST PUSH2 0x674 PUSH1 0x4 DUP1 CALLDATASIZE SUB PUSH1 0x60 DUP2 LT ISZERO PUSH2 0x634 JUMPI PUSH1 0x0 DUP1 REVERT JUMPDEST DUP2 ADD SWAP1 DUP1 DUP1 CALLDATALOAD PUSH20 0xFFFFFFFFFFFFFFFFFFFFFFFFFFFFFFFFFFFFFFFF AND SWAP1 PUSH1 0x20 ADD SWAP1 SWAP3 SWAP2 SWAP1 DUP1 CALLDATALOAD SWAP1 PUSH1 0x20 ADD SWAP1 SWAP3 SWAP2 SWAP1 DUP1 CALLDATALOAD SWAP1 PUSH1 0x20 ADD SWAP1 SWAP3 SWAP2 SWAP1 POP POP POP PUSH2 0x189B JUMP JUMPDEST STOP JUMPDEST PUSH2 0x6A2 PUSH1 0x4 DUP1 CALLDATASIZE SUB PUSH1 0x20 DUP2 LT ISZERO PUSH2 0x68C JUMPI PUSH1 0x0 DUP1 REVERT JUMPDEST DUP2 ADD SWAP1 DUP1 DUP1 CALLDATALOAD SWAP1 PUSH1 0x20 ADD SWAP1 SWAP3 SWAP2 SWAP1 POP POP POP PUSH2 0x1DDB JUMP JUMPDEST STOP JUMPDEST PUSH2 0x6FA PUSH1 0x4 DUP1 CALLDATASIZE SUB PUSH1 0x60 DUP2 LT ISZERO PUSH2 0x6BA JUMPI PUSH1 0x0 DUP1 REVERT JUMPDEST DUP2 ADD SWAP1 DUP1 DUP1 CALLDATALOAD PUSH20 0xFFFFFFFFFFFFFFFFFFFFFFFFFFFFFFFFFFFFFFFF AND SWAP1 PUSH1 0x20 ADD SWAP1 SWAP3 SWAP2 SWAP1 DUP1 CALLDATALOAD SWAP1 PUSH1 0x20 ADD SWAP1 SWAP3 SWAP2 SWAP1 DUP1 CALLDATALOAD SWAP1 PUSH1 0x20 ADD SWAP1 SWAP3 SWAP2 SWAP1 POP POP POP PUSH2 0x1F42 JUMP JUMPDEST PUSH1 0x40 MLOAD DUP1 DUP3 DUP2 MSTORE PUSH1 0x20 ADD SWAP2 POP POP PUSH1 0x40 MLOAD DUP1 SWAP2 SUB SWAP1 RETURN JUMPDEST PUSH2 0x752 PUSH1 0x4 DUP1 CALLDATASIZE SUB PUSH1 0x20 DUP2 LT ISZERO PUSH2 0x726 JUMPI PUSH1 0x0 DUP1 REVERT JUMPDEST DUP2 ADD SWAP1 DUP1 DUP1 CALLDATALOAD PUSH20 0xFFFFFFFFFFFFFFFFFFFFFFFFFFFFFFFFFFFFFFFF AND SWAP1 PUSH1 0x20 ADD SWAP1 SWAP3 SWAP2 SWAP1 POP POP POP PUSH2 0x1FBA JUMP JUMPDEST PUSH1 0x40 MLOAD DUP1 DUP3 DUP2 MSTORE PUSH1 0x20 ADD SWAP2 POP POP PUSH1 0x40 MLOAD DUP1 SWAP2 SUB SWAP1 RETURN JUMPDEST PUSH2 0x770 PUSH2 0x1FD2 JUMP JUMPDEST PUSH1 0x40 MLOAD DUP1 DUP3 PUSH20 0xFFFFFFFFFFFFFFFFFFFFFFFFFFFFFFFFFFFFFFFF AND PUSH20 0xFFFFFFFFFFFFFFFFFFFFFFFFFFFFFFFFFFFFFFFF AND DUP2 MSTORE PUSH1 0x20 ADD SWAP2 POP POP PUSH1 0x40 MLOAD DUP1 SWAP2 SUB SWAP1 RETURN JUMPDEST PUSH1 0x0 DUP3 GT PUSH2 0x80B JUMPI PUSH1 0x40 MLOAD PUSH32 0x8C379A000000000000000000000000000000000000000000000000000000000 DUP2 MSTORE PUSH1 0x4 ADD DUP1 DUP1 PUSH1 0x20 ADD DUP3 DUP2 SUB DUP3 MSTORE PUSH1 0x21 DUP2 MSTORE PUSH1 0x20 ADD DUP1 PUSH2 0x2695 PUSH1 0x21 SWAP2 CODECOPY PUSH1 0x40 ADD SWAP2 POP POP PUSH1 0x40 MLOAD DUP1 SWAP2 SUB SWAP1 REVERT JUMPDEST PUSH1 0x0 PUSH1 0x4 PUSH1 0x0 DUP7 PUSH20 0xFFFFFFFFFFFFFFFFFFFFFFFFFFFFFFFFFFFFFFFF AND PUSH20 0xFFFFFFFFFFFFFFFFFFFFFFFFFFFFFFFFFFFFFFFF AND DUP2 MSTORE PUSH1 0x20 ADD SWAP1 DUP2 MSTORE PUSH1 0x20 ADD PUSH1 0x0 KECCAK256 DUP5 DUP2 SLOAD DUP2 LT PUSH2 0x857 JUMPI INVALID JUMPDEST SWAP1 PUSH1 0x0 MSTORE PUSH1 0x20 PUSH1 0x0 KECCAK256 SWAP1 PUSH1 0x9 MUL ADD SWAP1 POP PUSH1 0x0 PUSH1 0x3 DUP3 PUSH1 0x0 ADD SLOAD DUP2 SLOAD DUP2 LT PUSH2 0x87A JUMPI INVALID JUMPDEST SWAP1 PUSH1 0x0 MSTORE PUSH1 0x20 PUSH1 0x0 KECCAK256 SWAP1 PUSH1 0x3 MUL ADD SWAP1 POP PUSH1 0x0 PUSH2 0x896 DUP8 DUP8 PUSH2 0xBE3 JUMP JUMPDEST SWAP1 POP PUSH1 0xC DUP2 GT ISZERO PUSH2 0x8F2 JUMPI PUSH1 0x40 MLOAD PUSH32 0x8C379A000000000000000000000000000000000000000000000000000000000 DUP2 MSTORE PUSH1 0x4 ADD DUP1 DUP1 PUSH1 0x20 ADD DUP3 DUP2 SUB DUP3 MSTORE PUSH1 0x28 DUP2 MSTORE PUSH1 0x20 ADD DUP1 PUSH2 0x266D PUSH1 0x28 SWAP2 CODECOPY PUSH1 0x40 ADD SWAP2 POP POP PUSH1 0x40 MLOAD DUP1 SWAP2 SUB SWAP1 REVERT JUMPDEST PUSH1 0x2 PUSH1 0x0 SWAP1 SLOAD SWAP1 PUSH2 0x100 EXP SWAP1 DIV PUSH20 0xFFFFFFFFFFFFFFFFFFFFFFFFFFFFFFFFFFFFFFFF AND PUSH20 0xFFFFFFFFFFFFFFFFFFFFFFFFFFFFFFFFFFFFFFFF AND PUSH4 0x23B872DD CALLER ADDRESS DUP9 PUSH1 0x40 MLOAD DUP5 PUSH4 0xFFFFFFFF AND PUSH1 0xE0 SHL DUP2 MSTORE PUSH1 0x4 ADD DUP1 DUP5 PUSH20 0xFFFFFFFFFFFFFFFFFFFFFFFFFFFFFFFFFFFFFFFF AND PUSH20 0xFFFFFFFFFFFFFFFFFFFFFFFFFFFFFFFFFFFFFFFF AND DUP2 MSTORE PUSH1 0x20 ADD DUP4 PUSH20 0xFFFFFFFFFFFFFFFFFFFFFFFFFFFFFFFFFFFFFFFF AND PUSH20 0xFFFFFFFFFFFFFFFFFFFFFFFFFFFFFFFFFFFFFFFF AND DUP2 MSTORE PUSH1 0x20 ADD DUP3 DUP2 MSTORE PUSH1 0x20 ADD SWAP4 POP POP POP POP PUSH1 0x20 PUSH1 0x40 MLOAD DUP1 DUP4 SUB DUP2 PUSH1 0x0 DUP8 DUP1 EXTCODESIZE ISZERO DUP1 ISZERO PUSH2 0x9CF JUMPI PUSH1 0x0 DUP1 REVERT JUMPDEST POP GAS CALL ISZERO DUP1 ISZERO PUSH2 0x9E3 JUMPI RETURNDATASIZE PUSH1 0x0 DUP1 RETURNDATACOPY RETURNDATASIZE PUSH1 0x0 REVERT JUMPDEST POP POP POP POP PUSH1 0x40 MLOAD RETURNDATASIZE PUSH1 0x20 DUP2 LT ISZERO PUSH2 0x9F9 JUMPI PUSH1 0x0 DUP1 REVERT JUMPDEST DUP2 ADD SWAP1 DUP1 DUP1 MLOAD SWAP1 PUSH1 0x20 ADD SWAP1 SWAP3 SWAP2 SWAP1 POP POP POP POP PUSH1 0x0 PUSH2 0xA35 DUP7 DUP6 PUSH1 0x5 ADD PUSH1 0x0 DUP6 DUP2 MSTORE PUSH1 0x20 ADD SWAP1 DUP2 MSTORE PUSH1 0x20 ADD PUSH1 0x0 KECCAK256 SLOAD PUSH2 0x1FF8 SWAP1 SWAP2 SWAP1 PUSH4 0xFFFFFFFF AND JUMP JUMPDEST SWAP1 POP PUSH1 0x0 PUSH2 0xA5C DUP6 PUSH1 0x5 ADD PUSH1 0x0 DUP6 DUP2 MSTORE PUSH1 0x20 ADD SWAP1 DUP2 MSTORE PUSH1 0x20 ADD PUSH1 0x0 KECCAK256 SLOAD DUP7 PUSH1 0x0 ADD SLOAD PUSH2 0x2080 JUMP JUMPDEST SWAP1 POP PUSH1 0x0 PUSH2 0xA80 DUP3 PUSH2 0xA72 DUP6 DUP10 PUSH1 0x0 ADD SLOAD PUSH2 0x2080 JUMP JUMPDEST PUSH2 0x213D SWAP1 SWAP2 SWAP1 PUSH4 0xFFFFFFFF AND JUMP JUMPDEST SWAP1 POP PUSH1 0x2 PUSH1 0x0 SWAP1 SLOAD SWAP1 PUSH2 0x100 EXP SWAP1 DIV PUSH20 0xFFFFFFFFFFFFFFFFFFFFFFFFFFFFFFFFFFFFFFFF AND PUSH20 0xFFFFFFFFFFFFFFFFFFFFFFFFFFFFFFFFFFFFFFFF AND PUSH4 0x23B872DD PUSH1 0x1 PUSH1 0x0 SWAP1 SLOAD SWAP1 PUSH2 0x100 EXP SWAP1 DIV PUSH20 0xFFFFFFFFFFFFFFFFFFFFFFFFFFFFFFFFFFFFFFFF AND ADDRESS DUP5 PUSH1 0x40 MLOAD DUP5 PUSH4 0xFFFFFFFF AND PUSH1 0xE0 SHL DUP2 MSTORE PUSH1 0x4 ADD DUP1 DUP5 PUSH20 0xFFFFFFFFFFFFFFFFFFFFFFFFFFFFFFFFFFFFFFFF AND PUSH20 0xFFFFFFFFFFFFFFFFFFFFFFFFFFFFFFFFFFFFFFFF AND DUP2 MSTORE PUSH1 0x20 ADD DUP4 PUSH20 0xFFFFFFFFFFFFFFFFFFFFFFFFFFFFFFFFFFFFFFFF AND PUSH20 0xFFFFFFFFFFFFFFFFFFFFFFFFFFFFFFFFFFFFFFFF AND DUP2 MSTORE PUSH1 0x20 ADD DUP3 DUP2 MSTORE PUSH1 0x20 ADD SWAP4 POP POP POP POP PUSH1 0x20 PUSH1 0x40 MLOAD DUP1 DUP4 SUB DUP2 PUSH1 0x0 DUP8 DUP1 EXTCODESIZE ISZERO DUP1 ISZERO PUSH2 0xB81 JUMPI PUSH1 0x0 DUP1 REVERT JUMPDEST POP GAS CALL ISZERO DUP1 ISZERO PUSH2 0xB95 JUMPI RETURNDATASIZE PUSH1 0x0 DUP1 RETURNDATACOPY RETURNDATASIZE PUSH1 0x0 REVERT JUMPDEST POP POP POP POP PUSH1 0x40 MLOAD RETURNDATASIZE PUSH1 0x20 DUP2 LT ISZERO PUSH2 0xBAB JUMPI PUSH1 0x0 DUP1 REVERT JUMPDEST DUP2 ADD SWAP1 DUP1 DUP1 MLOAD SWAP1 PUSH1 0x20 ADD SWAP1 SWAP3 SWAP2 SWAP1 POP POP POP POP DUP3 DUP7 PUSH1 0x5 ADD PUSH1 0x0 DUP7 DUP2 MSTORE PUSH1 0x20 ADD SWAP1 DUP2 MSTORE PUSH1 0x20 ADD PUSH1 0x0 KECCAK256 DUP2 SWAP1 SSTORE POP POP POP POP POP POP POP POP POP POP POP JUMP JUMPDEST PUSH1 0x0 PUSH1 0x1 PUSH3 0x282070 PUSH1 0x4 PUSH1 0x0 DUP7 PUSH20 0xFFFFFFFFFFFFFFFFFFFFFFFFFFFFFFFFFFFFFFFF AND PUSH20 0xFFFFFFFFFFFFFFFFFFFFFFFFFFFFFFFFFFFFFFFF AND DUP2 MSTORE PUSH1 0x20 ADD SWAP1 DUP2 MSTORE PUSH1 0x20 ADD PUSH1 0x0 KECCAK256 DUP5 DUP2 SLOAD DUP2 LT PUSH2 0xC35 JUMPI INVALID JUMPDEST SWAP1 PUSH1 0x0 MSTORE PUSH1 0x20 PUSH1 0x0 KECCAK256 SWAP1 PUSH1 0x9 MUL ADD PUSH1 0x1 ADD SLOAD TIMESTAMP SUB DUP2 PUSH2 0xC50 JUMPI INVALID JUMPDEST DIV ADD SWAP1 POP SWAP3 SWAP2 POP POP JUMP JUMPDEST PUSH1 0x2 PUSH1 0x0 SWAP1 SLOAD SWAP1 PUSH2 0x100 EXP SWAP1 DIV PUSH20 0xFFFFFFFFFFFFFFFFFFFFFFFFFFFFFFFFFFFFFFFF AND PUSH20 0xFFFFFFFFFFFFFFFFFFFFFFFFFFFFFFFFFFFFFFFF AND PUSH4 0x23B872DD CALLER ADDRESS DUP5 PUSH1 0x40 MLOAD DUP5 PUSH4 0xFFFFFFFF AND PUSH1 0xE0 SHL DUP2 MSTORE PUSH1 0x4 ADD DUP1 DUP5 PUSH20 0xFFFFFFFFFFFFFFFFFFFFFFFFFFFFFFFFFFFFFFFF AND PUSH20 0xFFFFFFFFFFFFFFFFFFFFFFFFFFFFFFFFFFFFFFFF AND DUP2 MSTORE PUSH1 0x20 ADD DUP4 PUSH20 0xFFFFFFFFFFFFFFFFFFFFFFFFFFFFFFFFFFFFFFFF AND PUSH20 0xFFFFFFFFFFFFFFFFFFFFFFFFFFFFFFFFFFFFFFFF AND DUP2 MSTORE PUSH1 0x20 ADD DUP3 DUP2 MSTORE PUSH1 0x20 ADD SWAP4 POP POP POP POP PUSH1 0x20 PUSH1 0x40 MLOAD DUP1 DUP4 SUB DUP2 PUSH1 0x0 DUP8 DUP1 EXTCODESIZE ISZERO DUP1 ISZERO PUSH2 0xD37 JUMPI PUSH1 0x0 DUP1 REVERT JUMPDEST POP GAS CALL ISZERO DUP1 ISZERO PUSH2 0xD4B JUMPI RETURNDATASIZE PUSH1 0x0 DUP1 RETURNDATACOPY RETURNDATASIZE PUSH1 0x0 REVERT JUMPDEST POP POP POP POP PUSH1 0x40 MLOAD RETURNDATASIZE PUSH1 0x20 DUP2 LT ISZERO PUSH2 0xD61 JUMPI PUSH1 0x0 DUP1 REVERT JUMPDEST DUP2 ADD SWAP1 DUP1 DUP1 MLOAD SWAP1 PUSH1 0x20 ADD SWAP1 SWAP3 SWAP2 SWAP1 POP POP POP PUSH2 0xD7B JUMPI PUSH1 0x0 DUP1 REVERT JUMPDEST PUSH2 0xDCD DUP2 PUSH1 0x5 PUSH1 0x0 CALLER PUSH20 0xFFFFFFFFFFFFFFFFFFFFFFFFFFFFFFFFFFFFFFFF AND PUSH20 0xFFFFFFFFFFFFFFFFFFFFFFFFFFFFFFFFFFFFFFFF AND DUP2 MSTORE PUSH1 0x20 ADD SWAP1 DUP2 MSTORE PUSH1 0x20 ADD PUSH1 0x0 KECCAK256 SLOAD PUSH2 0x1FF8 SWAP1 SWAP2 SWAP1 PUSH4 0xFFFFFFFF AND JUMP JUMPDEST PUSH1 0x5 PUSH1 0x0 CALLER PUSH20 0xFFFFFFFFFFFFFFFFFFFFFFFFFFFFFFFFFFFFFFFF AND PUSH20 0xFFFFFFFFFFFFFFFFFFFFFFFFFFFFFFFFFFFFFFFF AND DUP2 MSTORE PUSH1 0x20 ADD SWAP1 DUP2 MSTORE PUSH1 0x20 ADD PUSH1 0x0 KECCAK256 DUP2 SWAP1 SSTORE POP POP JUMP JUMPDEST DUP3 DUP3 PUSH1 0x0 PUSH1 0x4 PUSH1 0x0 DUP5 PUSH20 0xFFFFFFFFFFFFFFFFFFFFFFFFFFFFFFFFFFFFFFFF AND PUSH20 0xFFFFFFFFFFFFFFFFFFFFFFFFFFFFFFFFFFFFFFFF AND DUP2 MSTORE PUSH1 0x20 ADD SWAP1 DUP2 MSTORE PUSH1 0x20 ADD PUSH1 0x0 KECCAK256 DUP3 DUP2 SLOAD DUP2 LT PUSH2 0xE61 JUMPI INVALID JUMPDEST SWAP1 PUSH1 0x0 MSTORE PUSH1 0x20 PUSH1 0x0 KECCAK256 SWAP1 PUSH1 0x9 MUL ADD SWAP1 POP DUP3 PUSH20 0xFFFFFFFFFFFFFFFFFFFFFFFFFFFFFFFFFFFFFFFF AND CALLER PUSH20 0xFFFFFFFFFFFFFFFFFFFFFFFFFFFFFFFFFFFFFFFF AND EQ PUSH2 0xF66 JUMPI DUP1 PUSH1 0x7 ADD PUSH1 0x0 CALLER PUSH20 0xFFFFFFFFFFFFFFFFFFFFFFFFFFFFFFFFFFFFFFFF AND PUSH20 0xFFFFFFFFFFFFFFFFFFFFFFFFFFFFFFFFFFFFFFFF AND DUP2 MSTORE PUSH1 0x20 ADD SWAP1 DUP2 MSTORE PUSH1 0x20 ADD PUSH1 0x0 KECCAK256 PUSH1 0x0 SWAP1 SLOAD SWAP1 PUSH2 0x100 EXP SWAP1 DIV PUSH1 0xFF AND PUSH2 0xF65 JUMPI PUSH1 0x40 MLOAD PUSH32 0x8C379A000000000000000000000000000000000000000000000000000000000 DUP2 MSTORE PUSH1 0x4 ADD DUP1 DUP1 PUSH1 0x20 ADD DUP3 DUP2 SUB DUP3 MSTORE PUSH1 0x1A DUP2 MSTORE PUSH1 0x20 ADD DUP1 PUSH32 0x6E6F6D696E6174696F6E2073686F756C64206265207468657265000000000000 DUP2 MSTORE POP PUSH1 0x20 ADD SWAP2 POP POP PUSH1 0x40 MLOAD DUP1 SWAP2 SUB SWAP1 REVERT JUMPDEST JUMPDEST PUSH1 0x0 PUSH1 0x4 PUSH1 0x0 DUP9 PUSH20 0xFFFFFFFFFFFFFFFFFFFFFFFFFFFFFFFFFFFFFFFF AND PUSH20 0xFFFFFFFFFFFFFFFFFFFFFFFFFFFFFFFFFFFFFFFF AND DUP2 MSTORE PUSH1 0x20 ADD SWAP1 DUP2 MSTORE PUSH1 0x20 ADD PUSH1 0x0 KECCAK256 DUP7 DUP2 SLOAD DUP2 LT PUSH2 0xFB2 JUMPI INVALID JUMPDEST SWAP1 PUSH1 0x0 MSTORE PUSH1 0x20 PUSH1 0x0 KECCAK256 SWAP1 PUSH1 0x9 MUL ADD SWAP1 POP PUSH1 0x0 DUP2 PUSH1 0x2 ADD SLOAD SWAP1 POP DUP6 DUP2 LT PUSH2 0x1040 JUMPI PUSH1 0x40 MLOAD PUSH32 0x8C379A000000000000000000000000000000000000000000000000000000000 DUP2 MSTORE PUSH1 0x4 ADD DUP1 DUP1 PUSH1 0x20 ADD DUP3 DUP2 SUB DUP3 MSTORE PUSH1 0x1A DUP2 MSTORE PUSH1 0x20 ADD DUP1 PUSH32 0x73746172742073686F756C64206265206265666F726520656E64000000000000 DUP2 MSTORE POP PUSH1 0x20 ADD SWAP2 POP POP PUSH1 0x40 MLOAD DUP1 SWAP2 SUB SWAP1 REVERT JUMPDEST PUSH1 0x3C DUP7 GT ISZERO PUSH2 0x10B7 JUMPI PUSH1 0x40 MLOAD PUSH32 0x8C379A000000000000000000000000000000000000000000000000000000000 DUP2 MSTORE PUSH1 0x4 ADD DUP1 DUP1 PUSH1 0x20 ADD DUP3 DUP2 SUB DUP3 MSTORE PUSH1 0x1A DUP2 MSTORE PUSH1 0x20 ADD DUP1 PUSH32 0x6F6E6C7920363020416E6E756974792077697468647261776C73000000000000 DUP2 MSTORE POP PUSH1 0x20 ADD SWAP2 POP POP PUSH1 0x40 MLOAD DUP1 SWAP2 SUB SWAP1 REVERT JUMPDEST PUSH1 0x0 PUSH2 0x10C4 DUP10 DUP10 DUP10 PUSH2 0x2187 JUMP JUMPDEST SWAP1 POP DUP1 TIMESTAMP LT ISZERO PUSH2 0x113C JUMPI PUSH1 0x40 MLOAD PUSH32 0x8C379A000000000000000000000000000000000000000000000000000000000 DUP2 MSTORE PUSH1 0x4 ADD DUP1 DUP1 PUSH1 0x20 ADD DUP3 DUP2 SUB DUP3 MSTORE PUSH1 0x15 DUP2 MSTORE PUSH1 0x20 ADD DUP1 PUSH32 0x63616E6E6F74207769746864726177206561726C790000000000000000000000 DUP2 MSTORE POP PUSH1 0x20 ADD SWAP2 POP POP PUSH1 0x40 MLOAD DUP1 SWAP2 SUB SWAP1 REVERT JUMPDEST PUSH1 0x0 PUSH2 0x114D DUP11 DUP11 PUSH1 0x1 DUP7 ADD DUP12 PUSH2 0x1543 JUMP JUMPDEST SWAP1 POP DUP8 DUP5 PUSH1 0x2 ADD DUP2 SWAP1 SSTORE POP PUSH1 0x0 DUP4 EQ ISZERO PUSH2 0x116C JUMPI PUSH2 0x116B DUP11 DUP11 PUSH2 0x2279 JUMP JUMPDEST JUMPDEST PUSH1 0x0 DUP2 EQ PUSH2 0x125A JUMPI PUSH1 0x2 PUSH1 0x0 SWAP1 SLOAD SWAP1 PUSH2 0x100 EXP SWAP1 DIV PUSH20 0xFFFFFFFFFFFFFFFFFFFFFFFFFFFFFFFFFFFFFFFF AND PUSH20 0xFFFFFFFFFFFFFFFFFFFFFFFFFFFFFFFFFFFFFFFF AND PUSH4 0xA9059CBB CALLER DUP4 PUSH1 0x40 MLOAD DUP4 PUSH4 0xFFFFFFFF AND PUSH1 0xE0 SHL DUP2 MSTORE PUSH1 0x4 ADD DUP1 DUP4 PUSH20 0xFFFFFFFFFFFFFFFFFFFFFFFFFFFFFFFFFFFFFFFF AND PUSH20 0xFFFFFFFFFFFFFFFFFFFFFFFFFFFFFFFFFFFFFFFF AND DUP2 MSTORE PUSH1 0x20 ADD DUP3 DUP2 MSTORE PUSH1 0x20 ADD SWAP3 POP POP POP PUSH1 0x20 PUSH1 0x40 MLOAD DUP1 DUP4 SUB DUP2 PUSH1 0x0 DUP8 DUP1 EXTCODESIZE ISZERO DUP1 ISZERO PUSH2 0x121D JUMPI PUSH1 0x0 DUP1 REVERT JUMPDEST POP GAS CALL ISZERO DUP1 ISZERO PUSH2 0x1231 JUMPI RETURNDATASIZE PUSH1 0x0 DUP1 RETURNDATACOPY RETURNDATASIZE PUSH1 0x0 REVERT JUMPDEST POP POP POP POP PUSH1 0x40 MLOAD RETURNDATASIZE PUSH1 0x20 DUP2 LT ISZERO PUSH2 0x1247 JUMPI PUSH1 0x0 DUP1 REVERT JUMPDEST DUP2 ADD SWAP1 DUP1 DUP1 MLOAD SWAP1 PUSH1 0x20 ADD SWAP1 SWAP3 SWAP2 SWAP1 POP POP POP POP JUMPDEST POP POP POP POP POP POP POP POP POP POP JUMP JUMPDEST PUSH1 0x4 PUSH1 0x20 MSTORE DUP2 PUSH1 0x0 MSTORE PUSH1 0x40 PUSH1 0x0 KECCAK256 DUP2 DUP2 SLOAD DUP2 LT PUSH2 0x127F JUMPI INVALID JUMPDEST SWAP1 PUSH1 0x0 MSTORE PUSH1 0x20 PUSH1 0x0 KECCAK256 SWAP1 PUSH1 0x9 MUL ADD PUSH1 0x0 SWAP2 POP SWAP2 POP POP DUP1 PUSH1 0x0 ADD SLOAD SWAP1 DUP1 PUSH1 0x1 ADD SLOAD SWAP1 DUP1 PUSH1 0x2 ADD SLOAD SWAP1 DUP1 PUSH1 0x3 ADD SLOAD SWAP1 DUP1 PUSH1 0x4 ADD SLOAD SWAP1 POP DUP6 JUMP JUMPDEST PUSH1 0x1 PUSH1 0x0 SWAP1 SLOAD SWAP1 PUSH2 0x100 EXP SWAP1 DIV PUSH20 0xFFFFFFFFFFFFFFFFFFFFFFFFFFFFFFFFFFFFFFFF AND DUP2 JUMP JUMPDEST PUSH1 0x0 DUP1 PUSH1 0x4 PUSH1 0x0 DUP6 PUSH20 0xFFFFFFFFFFFFFFFFFFFFFFFFFFFFFFFFFFFFFFFF AND PUSH20 0xFFFFFFFFFFFFFFFFFFFFFFFFFFFFFFFFFFFFFFFF AND DUP2 MSTORE PUSH1 0x20 ADD SWAP1 DUP2 MSTORE PUSH1 0x20 ADD PUSH1 0x0 KECCAK256 DUP4 DUP2 SLOAD DUP2 LT PUSH2 0x1329 JUMPI INVALID JUMPDEST SWAP1 PUSH1 0x0 MSTORE PUSH1 0x20 PUSH1 0x0 KECCAK256 SWAP1 PUSH1 0x9 MUL ADD SWAP1 POP PUSH1 0x0 PUSH1 0x3 DUP3 PUSH1 0x0 ADD SLOAD DUP2 SLOAD DUP2 LT PUSH2 0x134C JUMPI INVALID JUMPDEST SWAP1 PUSH1 0x0 MSTORE PUSH1 0x20 PUSH1 0x0 KECCAK256 SWAP1 PUSH1 0x3 MUL ADD SWAP1 POP PUSH1 0x0 DUP1 PUSH1 0x1 SWAP1 POP JUMPDEST PUSH1 0xC DUP2 GT PUSH2 0x13DE JUMPI PUSH1 0x0 DUP5 PUSH1 0x5 ADD PUSH1 0x0 DUP4 DUP2 MSTORE PUSH1 0x20 ADD SWAP1 DUP2 MSTORE PUSH1 0x20 ADD PUSH1 0x0 KECCAK256 SLOAD SWAP1 POP PUSH2 0x139E PUSH1 0x2 DUP6 PUSH1 0x1 ADD SLOAD PUSH2 0x23F5 SWAP1 SWAP2 SWAP1 PUSH4 0xFFFFFFFF AND JUMP JUMPDEST DUP2 LT PUSH2 0x13BB JUMPI PUSH2 0x13B8 PUSH1 0x2 DUP3 PUSH2 0x243F SWAP1 SWAP2 SWAP1 PUSH4 0xFFFFFFFF AND JUMP JUMPDEST SWAP1 POP JUMPDEST PUSH2 0x13CE DUP2 DUP5 PUSH2 0x1FF8 SWAP1 SWAP2 SWAP1 PUSH4 0xFFFFFFFF AND JUMP JUMPDEST SWAP3 POP POP DUP1 DUP1 PUSH1 0x1 ADD SWAP2 POP POP PUSH2 0x1364 JUMP JUMPDEST POP PUSH2 0x13F3 PUSH1 0xC DUP3 PUSH2 0x23F5 SWAP1 SWAP2 SWAP1 PUSH4 0xFFFFFFFF AND JUMP JUMPDEST SWAP4 POP POP POP POP SWAP3 SWAP2 POP POP JUMP JUMPDEST PUSH1 0x0 DUP1 SWAP1 SLOAD SWAP1 PUSH2 0x100 EXP SWAP1 DIV PUSH20 0xFFFFFFFFFFFFFFFFFFFFFFFFFFFFFFFFFFFFFFFF AND PUSH20 0xFFFFFFFFFFFFFFFFFFFFFFFFFFFFFFFFFFFFFFFF AND CALLER PUSH20 0xFFFFFFFFFFFFFFFFFFFFFFFFFFFFFFFFFFFFFFFF AND EQ PUSH2 0x14C0 JUMPI PUSH1 0x40 MLOAD PUSH32 0x8C379A000000000000000000000000000000000000000000000000000000000 DUP2 MSTORE PUSH1 0x4 ADD DUP1 DUP1 PUSH1 0x20 ADD DUP3 DUP2 SUB DUP3 MSTORE PUSH1 0x16 DUP2 MSTORE PUSH1 0x20 ADD DUP1 PUSH32 0x6F6E6C79206465706C6F7965722063616E2063616C6C00000000000000000000 DUP2 MSTORE POP PUSH1 0x20 ADD SWAP2 POP POP PUSH1 0x40 MLOAD DUP1 SWAP2 SUB SWAP1 REVERT JUMPDEST PUSH1 0x3 PUSH1 0x40 MLOAD DUP1 PUSH1 0x60 ADD PUSH1 0x40 MSTORE DUP1 PUSH1 0x1 ISZERO ISZERO DUP2 MSTORE PUSH1 0x20 ADD DUP5 DUP2 MSTORE PUSH1 0x20 ADD DUP4 DUP2 MSTORE POP SWAP1 DUP1 PUSH1 0x1 DUP2 SLOAD ADD DUP1 DUP3 SSTORE DUP1 SWAP2 POP POP PUSH1 0x1 SWAP1 SUB SWAP1 PUSH1 0x0 MSTORE PUSH1 0x20 PUSH1 0x0 KECCAK256 SWAP1 PUSH1 0x3 MUL ADD PUSH1 0x0 SWAP1 SWAP2 SWAP1 SWAP2 SWAP1 SWAP2 POP PUSH1 0x0 DUP3 ADD MLOAD DUP2 PUSH1 0x0 ADD PUSH1 0x0 PUSH2 0x100 EXP DUP2 SLOAD DUP2 PUSH1 0xFF MUL NOT AND SWAP1 DUP4 ISZERO ISZERO MUL OR SWAP1 SSTORE POP PUSH1 0x20 DUP3 ADD MLOAD DUP2 PUSH1 0x1 ADD SSTORE PUSH1 0x40 DUP3 ADD MLOAD DUP2 PUSH1 0x2 ADD SSTORE POP POP POP POP JUMP JUMPDEST PUSH1 0x0 DUP1 PUSH1 0x4 PUSH1 0x0 DUP8 PUSH20 0xFFFFFFFFFFFFFFFFFFFFFFFFFFFFFFFFFFFFFFFF AND PUSH20 0xFFFFFFFFFFFFFFFFFFFFFFFFFFFFFFFFFFFFFFFF AND DUP2 MSTORE PUSH1 0x20 ADD SWAP1 DUP2 MSTORE PUSH1 0x20 ADD PUSH1 0x0 KECCAK256 DUP6 DUP2 SLOAD DUP2 LT PUSH2 0x1590 JUMPI INVALID JUMPDEST SWAP1 PUSH1 0x0 MSTORE PUSH1 0x20 PUSH1 0x0 KECCAK256 SWAP1 PUSH1 0x9 MUL ADD SWAP1 POP PUSH1 0x0 PUSH1 0x3 DUP3 PUSH1 0x0 ADD SLOAD DUP2 SLOAD DUP2 LT PUSH2 0x15B3 JUMPI INVALID JUMPDEST SWAP1 PUSH1 0x0 MSTORE PUSH1 0x20 PUSH1 0x0 KECCAK256 SWAP1 PUSH1 0x3 MUL ADD SWAP1 POP PUSH1 0x0 DUP1 DUP7 SWAP1 POP JUMPDEST DUP6 DUP2 GT PUSH2 0x1662 JUMPI PUSH1 0x0 PUSH1 0xC DUP3 DUP2 PUSH2 0x15DD JUMPI INVALID JUMPDEST MOD SWAP1 POP PUSH1 0x0 DUP6 PUSH1 0x5 ADD PUSH1 0x0 DUP1 DUP5 EQ PUSH2 0x15F5 JUMPI DUP4 PUSH2 0x15F8 JUMP JUMPDEST PUSH1 0xC JUMPDEST DUP2 MSTORE PUSH1 0x20 ADD SWAP1 DUP2 MSTORE PUSH1 0x20 ADD PUSH1 0x0 KECCAK256 SLOAD SWAP1 POP PUSH2 0x1621 PUSH1 0x2 DUP7 PUSH1 0x1 ADD SLOAD PUSH2 0x23F5 SWAP1 SWAP2 SWAP1 PUSH4 0xFFFFFFFF AND JUMP JUMPDEST DUP2 LT PUSH2 0x163E JUMPI PUSH2 0x163B PUSH1 0x2 DUP3 PUSH2 0x243F SWAP1 SWAP2 SWAP1 PUSH4 0xFFFFFFFF AND JUMP JUMPDEST SWAP1 POP JUMPDEST PUSH2 0x1651 DUP2 DUP6 PUSH2 0x1FF8 SWAP1 SWAP2 SWAP1 PUSH4 0xFFFFFFFF AND JUMP JUMPDEST SWAP4 POP POP POP DUP1 DUP1 PUSH1 0x1 ADD SWAP2 POP POP PUSH2 0x15CA JUMP JUMPDEST POP PUSH2 0x168E PUSH2 0x3E8 PUSH2 0x1680 DUP5 PUSH1 0x2 ADD SLOAD DUP5 PUSH2 0x243F SWAP1 SWAP2 SWAP1 PUSH4 0xFFFFFFFF AND JUMP JUMPDEST PUSH2 0x23F5 SWAP1 SWAP2 SWAP1 PUSH4 0xFFFFFFFF AND JUMP JUMPDEST SWAP4 POP POP POP POP SWAP5 SWAP4 POP POP POP POP JUMP JUMPDEST PUSH1 0x0 DUP1 SWAP1 POP JUMPDEST DUP3 MLOAD DUP2 LT ISZERO PUSH2 0x182D JUMPI PUSH2 0x170F DUP3 DUP3 DUP2 MLOAD DUP2 LT PUSH2 0x16B9 JUMPI INVALID JUMPDEST PUSH1 0x20 MUL PUSH1 0x20 ADD ADD MLOAD PUSH1 0x5 PUSH1 0x0 CALLER PUSH20 0xFFFFFFFFFFFFFFFFFFFFFFFFFFFFFFFFFFFFFFFF AND PUSH20 0xFFFFFFFFFFFFFFFFFFFFFFFFFFFFFFFFFFFFFFFF AND DUP2 MSTORE PUSH1 0x20 ADD SWAP1 DUP2 MSTORE PUSH1 0x20 ADD PUSH1 0x0 KECCAK256 SLOAD PUSH2 0x213D SWAP1 SWAP2 SWAP1 PUSH4 0xFFFFFFFF AND JUMP JUMPDEST PUSH1 0x5 PUSH1 0x0 CALLER PUSH20 0xFFFFFFFFFFFFFFFFFFFFFFFFFFFFFFFFFFFFFFFF AND PUSH20 0xFFFFFFFFFFFFFFFFFFFFFFFFFFFFFFFFFFFFFFFF AND DUP2 MSTORE PUSH1 0x20 ADD SWAP1 DUP2 MSTORE PUSH1 0x20 ADD PUSH1 0x0 KECCAK256 DUP2 SWAP1 SSTORE POP PUSH2 0x17CA DUP3 DUP3 DUP2 MLOAD DUP2 LT PUSH2 0x1761 JUMPI INVALID JUMPDEST PUSH1 0x20 MUL PUSH1 0x20 ADD ADD MLOAD PUSH1 0x5 PUSH1 0x0 DUP7 DUP6 DUP2 MLOAD DUP2 LT PUSH2 0x1779 JUMPI INVALID JUMPDEST PUSH1 0x20 MUL PUSH1 0x20 ADD ADD MLOAD PUSH20 0xFFFFFFFFFFFFFFFFFFFFFFFFFFFFFFFFFFFFFFFF AND PUSH20 0xFFFFFFFFFFFFFFFFFFFFFFFFFFFFFFFFFFFFFFFF AND DUP2 MSTORE PUSH1 0x20 ADD SWAP1 DUP2 MSTORE PUSH1 0x20 ADD PUSH1 0x0 KECCAK256 SLOAD PUSH2 0x1FF8 SWAP1 SWAP2 SWAP1 PUSH4 0xFFFFFFFF AND JUMP JUMPDEST PUSH1 0x5 PUSH1 0x0 DUP6 DUP5 DUP2 MLOAD DUP2 LT PUSH2 0x17DA JUMPI INVALID JUMPDEST PUSH1 0x20 MUL PUSH1 0x20 ADD ADD MLOAD PUSH20 0xFFFFFFFFFFFFFFFFFFFFFFFFFFFFFFFFFFFFFFFF AND PUSH20 0xFFFFFFFFFFFFFFFFFFFFFFFFFFFFFFFFFFFFFFFF AND DUP2 MSTORE PUSH1 0x20 ADD SWAP1 DUP2 MSTORE PUSH1 0x20 ADD PUSH1 0x0 KECCAK256 DUP2 SWAP1 SSTORE POP DUP1 DUP1 PUSH1 0x1 ADD SWAP2 POP POP PUSH2 0x16A1 JUMP JUMPDEST POP POP POP JUMP JUMPDEST PUSH1 0x0 DUP1 SWAP1 SLOAD SWAP1 PUSH2 0x100 EXP SWAP1 DIV PUSH20 0xFFFFFFFFFFFFFFFFFFFFFFFFFFFFFFFFFFFFFFFF AND DUP2 JUMP JUMPDEST PUSH1 0x3 DUP2 DUP2 SLOAD DUP2 LT PUSH2 0x1864 JUMPI INVALID JUMPDEST SWAP1 PUSH1 0x0 MSTORE PUSH1 0x20 PUSH1 0x0 KECCAK256 SWAP1 PUSH1 0x3 MUL ADD PUSH1 0x0 SWAP2 POP SWAP1 POP DUP1 PUSH1 0x0 ADD PUSH1 0x0 SWAP1 SLOAD SWAP1 PUSH2 0x100 EXP SWAP1 DIV PUSH1 0xFF AND SWAP1 DUP1 PUSH1 0x1 ADD SLOAD SWAP1 DUP1 PUSH1 0x2 ADD SLOAD SWAP1 POP DUP4 JUMP JUMPDEST DUP3 DUP3 PUSH1 0x0 PUSH1 0x4 PUSH1 0x0 DUP5 PUSH20 0xFFFFFFFFFFFFFFFFFFFFFFFFFFFFFFFFFFFFFFFF AND PUSH20 0xFFFFFFFFFFFFFFFFFFFFFFFFFFFFFFFFFFFFFFFF AND DUP2 MSTORE PUSH1 0x20 ADD SWAP1 DUP2 MSTORE PUSH1 0x20 ADD PUSH1 0x0 KECCAK256 DUP3 DUP2 SLOAD DUP2 LT PUSH2 0x18E9 JUMPI INVALID JUMPDEST SWAP1 PUSH1 0x0 MSTORE PUSH1 0x20 PUSH1 0x0 KECCAK256 SWAP1 PUSH1 0x9 MUL ADD SWAP1 POP DUP3 PUSH20 0xFFFFFFFFFFFFFFFFFFFFFFFFFFFFFFFFFFFFFFFF AND CALLER PUSH20 0xFFFFFFFFFFFFFFFFFFFFFFFFFFFFFFFFFFFFFFFF AND EQ PUSH2 0x19EE JUMPI DUP1 PUSH1 0x7 ADD PUSH1 0x0 CALLER PUSH20 0xFFFFFFFFFFFFFFFFFFFFFFFFFFFFFFFFFFFFFFFF AND PUSH20 0xFFFFFFFFFFFFFFFFFFFFFFFFFFFFFFFFFFFFFFFF AND DUP2 MSTORE PUSH1 0x20 ADD SWAP1 DUP2 MSTORE PUSH1 0x20 ADD PUSH1 0x0 KECCAK256 PUSH1 0x0 SWAP1 SLOAD SWAP1 PUSH2 0x100 EXP SWAP1 DIV PUSH1 0xFF AND PUSH2 0x19ED JUMPI PUSH1 0x40 MLOAD PUSH32 0x8C379A000000000000000000000000000000000000000000000000000000000 DUP2 MSTORE PUSH1 0x4 ADD DUP1 DUP1 PUSH1 0x20 ADD DUP3 DUP2 SUB DUP3 MSTORE PUSH1 0x1A DUP2 MSTORE PUSH1 0x20 ADD DUP1 PUSH32 0x6E6F6D696E6174696F6E2073686F756C64206265207468657265000000000000 DUP2 MSTORE POP PUSH1 0x20 ADD SWAP2 POP POP PUSH1 0x40 MLOAD DUP1 SWAP2 SUB SWAP1 REVERT JUMPDEST JUMPDEST PUSH1 0x0 PUSH1 0x4 PUSH1 0x0 DUP9 PUSH20 0xFFFFFFFFFFFFFFFFFFFFFFFFFFFFFFFFFFFFFFFF AND PUSH20 0xFFFFFFFFFFFFFFFFFFFFFFFFFFFFFFFFFFFFFFFF AND DUP2 MSTORE PUSH1 0x20 ADD SWAP1 DUP2 MSTORE PUSH1 0x20 ADD PUSH1 0x0 KECCAK256 DUP7 DUP2 SLOAD DUP2 LT PUSH2 0x1A3A JUMPI INVALID JUMPDEST SWAP1 PUSH1 0x0 MSTORE PUSH1 0x20 PUSH1 0x0 KECCAK256 SWAP1 PUSH1 0x9 MUL ADD SWAP1 POP PUSH1 0x0 PUSH1 0x3 DUP3 PUSH1 0x0 ADD SLOAD DUP2 SLOAD DUP2 LT PUSH2 0x1A5D JUMPI INVALID JUMPDEST SWAP1 PUSH1 0x0 MSTORE PUSH1 0x20 PUSH1 0x0 KECCAK256 SWAP1 PUSH1 0x3 MUL ADD SWAP1 POP DUP6 PUSH1 0x1 GT ISZERO DUP1 ISZERO PUSH2 0x1A7F JUMPI POP PUSH1 0xC DUP7 GT ISZERO JUMPDEST PUSH2 0x1AF1 JUMPI PUSH1 0x40 MLOAD PUSH32 0x8C379A000000000000000000000000000000000000000000000000000000000 DUP2 MSTORE PUSH1 0x4 ADD DUP1 DUP1 PUSH1 0x20 ADD DUP3 DUP2 SUB DUP3 MSTORE PUSH1 0x15 DUP2 MSTORE PUSH1 0x20 ADD DUP1 PUSH32 0x69642073686F756C6420626520696E2072616E67650000000000000000000000 DUP2 MSTORE POP PUSH1 0x20 ADD SWAP2 POP POP PUSH1 0x40 MLOAD DUP1 SWAP2 SUB SWAP1 REVERT JUMPDEST DUP2 PUSH1 0x6 ADD PUSH1 0x0 DUP8 DUP2 MSTORE PUSH1 0x20 ADD SWAP1 DUP2 MSTORE PUSH1 0x20 ADD PUSH1 0x0 KECCAK256 PUSH1 0x0 SWAP1 SLOAD SWAP1 PUSH2 0x100 EXP SWAP1 DIV PUSH1 0xFF AND ISZERO PUSH2 0x1B87 JUMPI PUSH1 0x40 MLOAD PUSH32 0x8C379A000000000000000000000000000000000000000000000000000000000 DUP2 MSTORE PUSH1 0x4 ADD DUP1 DUP1 PUSH1 0x20 ADD DUP3 DUP2 SUB DUP3 MSTORE PUSH1 0x19 DUP2 MSTORE PUSH1 0x20 ADD DUP1 PUSH32 0x626F6F7374657220616C72656164792077697468647261776E00000000000000 DUP2 MSTORE POP PUSH1 0x20 ADD SWAP2 POP POP PUSH1 0x40 MLOAD DUP1 SWAP2 SUB SWAP1 REVERT JUMPDEST DUP1 PUSH1 0x1 ADD SLOAD DUP3 PUSH1 0x5 ADD PUSH1 0x0 DUP9 PUSH1 0xD SUB DUP2 MSTORE PUSH1 0x20 ADD SWAP1 DUP2 MSTORE PUSH1 0x20 ADD PUSH1 0x0 KECCAK256 SLOAD LT ISZERO PUSH2 0x1C19 JUMPI PUSH1 0x40 MLOAD PUSH32 0x8C379A000000000000000000000000000000000000000000000000000000000 DUP2 MSTORE PUSH1 0x4 ADD DUP1 DUP1 PUSH1 0x20 ADD DUP3 DUP2 SUB DUP3 MSTORE PUSH1 0x13 DUP2 MSTORE PUSH1 0x20 ADD DUP1 PUSH32 0x746172676574206E6F7420616368696576656400000000000000000000000000 DUP2 MSTORE POP PUSH1 0x20 ADD SWAP2 POP POP PUSH1 0x40 MLOAD DUP1 SWAP2 SUB SWAP1 REVERT JUMPDEST PUSH1 0x0 PUSH2 0x1C2C DUP10 DUP10 PUSH1 0x1 PUSH1 0x5 DUP12 MUL ADD PUSH2 0x2187 JUMP JUMPDEST SWAP1 POP DUP1 TIMESTAMP LT ISZERO PUSH2 0x1CA4 JUMPI PUSH1 0x40 MLOAD PUSH32 0x8C379A000000000000000000000000000000000000000000000000000000000 DUP2 MSTORE PUSH1 0x4 ADD DUP1 DUP1 PUSH1 0x20 ADD DUP3 DUP2 SUB DUP3 MSTORE PUSH1 0x15 DUP2 MSTORE PUSH1 0x20 ADD DUP1 PUSH32 0x63616E6E6F74207769746864726177206561726C790000000000000000000000 DUP2 MSTORE POP PUSH1 0x20 ADD SWAP2 POP POP PUSH1 0x40 MLOAD DUP1 SWAP2 SUB SWAP1 REVERT JUMPDEST PUSH1 0x0 PUSH2 0x1CB0 DUP11 DUP11 PUSH2 0x12DC JUMP JUMPDEST SWAP1 POP PUSH1 0x0 DUP2 GT ISZERO PUSH2 0x1DCF JUMPI PUSH1 0x1 DUP5 PUSH1 0x6 ADD PUSH1 0x0 DUP11 DUP2 MSTORE PUSH1 0x20 ADD SWAP1 DUP2 MSTORE PUSH1 0x20 ADD PUSH1 0x0 KECCAK256 PUSH1 0x0 PUSH2 0x100 EXP DUP2 SLOAD DUP2 PUSH1 0xFF MUL NOT AND SWAP1 DUP4 ISZERO ISZERO MUL OR SWAP1 SSTORE POP PUSH1 0x2 PUSH1 0x0 SWAP1 SLOAD SWAP1 PUSH2 0x100 EXP SWAP1 DIV PUSH20 0xFFFFFFFFFFFFFFFFFFFFFFFFFFFFFFFFFFFFFFFF AND PUSH20 0xFFFFFFFFFFFFFFFFFFFFFFFFFFFFFFFFFFFFFFFF AND PUSH4 0xA9059CBB CALLER DUP4 PUSH1 0x40 MLOAD DUP4 PUSH4 0xFFFFFFFF AND PUSH1 0xE0 SHL DUP2 MSTORE PUSH1 0x4 ADD DUP1 DUP4 PUSH20 0xFFFFFFFFFFFFFFFFFFFFFFFFFFFFFFFFFFFFFFFF AND PUSH20 0xFFFFFFFFFFFFFFFFFFFFFFFFFFFFFFFFFFFFFFFF AND DUP2 MSTORE PUSH1 0x20 ADD DUP3 DUP2 MSTORE PUSH1 0x20 ADD SWAP3 POP POP POP PUSH1 0x20 PUSH1 0x40 MLOAD DUP1 DUP4 SUB DUP2 PUSH1 0x0 DUP8 DUP1 EXTCODESIZE ISZERO DUP1 ISZERO PUSH2 0x1D92 JUMPI PUSH1 0x0 DUP1 REVERT JUMPDEST POP GAS CALL ISZERO DUP1 ISZERO PUSH2 0x1DA6 JUMPI RETURNDATASIZE PUSH1 0x0 DUP1 RETURNDATACOPY RETURNDATASIZE PUSH1 0x0 REVERT JUMPDEST POP POP POP POP PUSH1 0x40 MLOAD RETURNDATASIZE PUSH1 0x20 DUP2 LT ISZERO PUSH2 0x1DBC JUMPI PUSH1 0x0 DUP1 REVERT JUMPDEST DUP2 ADD SWAP1 DUP1 DUP1 MLOAD SWAP1 PUSH1 0x20 ADD SWAP1 SWAP3 SWAP2 SWAP1 POP POP POP POP JUMPDEST POP POP POP POP POP POP POP POP POP POP JUMP JUMPDEST PUSH1 0x3 DUP2 DUP2 SLOAD DUP2 LT PUSH2 0x1DE8 JUMPI INVALID JUMPDEST SWAP1 PUSH1 0x0 MSTORE PUSH1 0x20 PUSH1 0x0 KECCAK256 SWAP1 PUSH1 0x3 MUL ADD PUSH1 0x0 ADD PUSH1 0x0 SWAP1 SLOAD SWAP1 PUSH2 0x100 EXP SWAP1 DIV PUSH1 0xFF AND PUSH2 0x1E79 JUMPI PUSH1 0x40 MLOAD PUSH32 0x8C379A000000000000000000000000000000000000000000000000000000000 DUP2 MSTORE PUSH1 0x4 ADD DUP1 DUP1 PUSH1 0x20 ADD DUP3 DUP2 SUB DUP3 MSTORE PUSH1 0x16 DUP2 MSTORE PUSH1 0x20 ADD DUP1 PUSH32 0x50455420706C616E206973206E6F742061637469766500000000000000000000 DUP2 MSTORE POP PUSH1 0x20 ADD SWAP2 POP POP PUSH1 0x40 MLOAD DUP1 SWAP2 SUB SWAP1 REVERT JUMPDEST PUSH1 0x4 PUSH1 0x0 CALLER PUSH20 0xFFFFFFFFFFFFFFFFFFFFFFFFFFFFFFFFFFFFFFFF AND PUSH20 0xFFFFFFFFFFFFFFFFFFFFFFFFFFFFFFFFFFFFFFFF AND DUP2 MSTORE PUSH1 0x20 ADD SWAP1 DUP2 MSTORE PUSH1 0x20 ADD PUSH1 0x0 KECCAK256 PUSH1 0x40 MLOAD DUP1 PUSH1 0xA0 ADD PUSH1 0x40 MSTORE DUP1 DUP4 DUP2 MSTORE PUSH1 0x20 ADD TIMESTAMP DUP2 MSTORE PUSH1 0x20 ADD PUSH1 0x0 DUP2 MSTORE PUSH1 0x20 ADD PUSH1 0x0 DUP2 MSTORE PUSH1 0x20 ADD PUSH1 0x0 DUP2 MSTORE POP SWAP1 DUP1 PUSH1 0x1 DUP2 SLOAD ADD DUP1 DUP3 SSTORE DUP1 SWAP2 POP POP PUSH1 0x1 SWAP1 SUB SWAP1 PUSH1 0x0 MSTORE PUSH1 0x20 PUSH1 0x0 KECCAK256 SWAP1 PUSH1 0x9 MUL ADD PUSH1 0x0 SWAP1 SWAP2 SWAP1 SWAP2 SWAP1 SWAP2 POP PUSH1 0x0 DUP3 ADD MLOAD DUP2 PUSH1 0x0 ADD SSTORE PUSH1 0x20 DUP3 ADD MLOAD DUP2 PUSH1 0x1 ADD SSTORE PUSH1 0x40 DUP3 ADD MLOAD DUP2 PUSH1 0x2 ADD SSTORE PUSH1 0x60 DUP3 ADD MLOAD DUP2 PUSH1 0x3 ADD SSTORE PUSH1 0x80 DUP3 ADD MLOAD DUP2 PUSH1 0x4 ADD SSTORE POP POP POP JUMP JUMPDEST PUSH1 0x0 PUSH1 0x4 PUSH1 0x0 DUP6 PUSH20 0xFFFFFFFFFFFFFFFFFFFFFFFFFFFFFFFFFFFFFFFF AND PUSH20 0xFFFFFFFFFFFFFFFFFFFFFFFFFFFFFFFFFFFFFFFF AND DUP2 MSTORE PUSH1 0x20 ADD SWAP1 DUP2 MSTORE PUSH1 0x20 ADD PUSH1 0x0 KECCAK256 DUP4 DUP2 SLOAD DUP2 LT PUSH2 0x1F8E JUMPI INVALID JUMPDEST SWAP1 PUSH1 0x0 MSTORE PUSH1 0x20 PUSH1 0x0 KECCAK256 SWAP1 PUSH1 0x9 MUL ADD PUSH1 0x5 ADD PUSH1 0x0 DUP4 DUP2 MSTORE PUSH1 0x20 ADD SWAP1 DUP2 MSTORE PUSH1 0x20 ADD PUSH1 0x0 KECCAK256 SLOAD SWAP1 POP SWAP4 SWAP3 POP POP POP JUMP JUMPDEST PUSH1 0x5 PUSH1 0x20 MSTORE DUP1 PUSH1 0x0 MSTORE PUSH1 0x40 PUSH1 0x0 KECCAK256 PUSH1 0x0 SWAP2 POP SWAP1 POP SLOAD DUP2 JUMP JUMPDEST PUSH1 0x2 PUSH1 0x0 SWAP1 SLOAD SWAP1 PUSH2 0x100 EXP SWAP1 DIV PUSH20 0xFFFFFFFFFFFFFFFFFFFFFFFFFFFFFFFFFFFFFFFF AND DUP2 JUMP JUMPDEST PUSH1 0x0 DUP1 DUP3 DUP5 ADD SWAP1 POP DUP4 DUP2 LT ISZERO PUSH2 0x2076 JUMPI PUSH1 0x40 MLOAD PUSH32 0x8C379A000000000000000000000000000000000000000000000000000000000 DUP2 MSTORE PUSH1 0x4 ADD DUP1 DUP1 PUSH1 0x20 ADD DUP3 DUP2 SUB DUP3 MSTORE PUSH1 0x1B DUP2 MSTORE PUSH1 0x20 ADD DUP1 PUSH32 0x536166654D6174683A206164646974696F6E206F766572666C6F770000000000 DUP2 MSTORE POP PUSH1 0x20 ADD SWAP2 POP POP PUSH1 0x40 MLOAD DUP1 SWAP2 SUB SWAP1 REVERT JUMPDEST DUP1 SWAP2 POP POP SWAP3 SWAP2 POP POP JUMP JUMPDEST PUSH1 0x0 DUP1 PUSH1 0x3 DUP4 DUP2 SLOAD DUP2 LT PUSH2 0x2090 JUMPI INVALID JUMPDEST SWAP1 PUSH1 0x0 MSTORE PUSH1 0x20 PUSH1 0x0 KECCAK256 SWAP1 PUSH1 0x3 MUL ADD SWAP1 POP PUSH1 0x0 DUP5 SWAP1 POP PUSH1 0x0 PUSH2 0x20BF PUSH1 0x2 DUP5 PUSH1 0x1 ADD SLOAD PUSH2 0x23F5 SWAP1 SWAP2 SWAP1 PUSH4 0xFFFFFFFF AND JUMP JUMPDEST DUP7 LT PUSH2 0x20DF JUMPI PUSH2 0x20D9 PUSH1 0x2 DUP4 PUSH2 0x243F SWAP1 SWAP2 SWAP1 PUSH4 0xFFFFFFFF AND JUMP JUMPDEST SWAP2 POP DUP6 SWAP1 POP JUMPDEST PUSH2 0x212F PUSH2 0x2120 PUSH2 0x3E8 PUSH2 0x2112 PUSH1 0x5 PUSH2 0x2104 DUP9 PUSH1 0x2 ADD SLOAD DUP9 PUSH2 0x243F SWAP1 SWAP2 SWAP1 PUSH4 0xFFFFFFFF AND JUMP JUMPDEST PUSH2 0x243F SWAP1 SWAP2 SWAP1 PUSH4 0xFFFFFFFF AND JUMP JUMPDEST PUSH2 0x23F5 SWAP1 SWAP2 SWAP1 PUSH4 0xFFFFFFFF AND JUMP JUMPDEST DUP3 PUSH2 0x1FF8 SWAP1 SWAP2 SWAP1 PUSH4 0xFFFFFFFF AND JUMP JUMPDEST SWAP1 POP DUP1 SWAP4 POP POP POP POP SWAP3 SWAP2 POP POP JUMP JUMPDEST PUSH1 0x0 PUSH2 0x217F DUP4 DUP4 PUSH1 0x40 MLOAD DUP1 PUSH1 0x40 ADD PUSH1 0x40 MSTORE DUP1 PUSH1 0x1E DUP2 MSTORE PUSH1 0x20 ADD PUSH32 0x536166654D6174683A207375627472616374696F6E206F766572666C6F770000 DUP2 MSTORE POP PUSH2 0x24C5 JUMP JUMPDEST SWAP1 POP SWAP3 SWAP2 POP POP JUMP JUMPDEST PUSH1 0x0 DUP1 PUSH1 0x4 PUSH1 0x0 DUP7 PUSH20 0xFFFFFFFFFFFFFFFFFFFFFFFFFFFFFFFFFFFFFFFF AND PUSH20 0xFFFFFFFFFFFFFFFFFFFFFFFFFFFFFFFFFFFFFFFF AND DUP2 MSTORE PUSH1 0x20 ADD SWAP1 DUP2 MSTORE PUSH1 0x20 ADD PUSH1 0x0 KECCAK256 DUP5 DUP2 SLOAD DUP2 LT PUSH2 0x21D4 JUMPI INVALID JUMPDEST SWAP1 PUSH1 0x0 MSTORE PUSH1 0x20 PUSH1 0x0 KECCAK256 SWAP1 PUSH1 0x9 MUL ADD SWAP1 POP PUSH1 0x0 PUSH3 0x282070 PUSH1 0x1 DUP6 PUSH1 0xC ADD SUB MUL DUP3 PUSH1 0x1 ADD SLOAD ADD SWAP1 POP DUP6 PUSH20 0xFFFFFFFFFFFFFFFFFFFFFFFFFFFFFFFFFFFFFFFF AND CALLER PUSH20 0xFFFFFFFFFFFFFFFFFFFFFFFFFFFFFFFFFFFFFFFF AND EQ PUSH2 0x226D JUMPI PUSH2 0x2245 PUSH1 0x2 DUP4 PUSH1 0x4 ADD SLOAD PUSH2 0x23F5 SWAP1 SWAP2 SWAP1 PUSH4 0xFFFFFFFF AND JUMP JUMPDEST DUP3 PUSH1 0x3 ADD SLOAD GT ISZERO PUSH2 0x2260 JUMPI PUSH1 0x6 PUSH3 0x282070 MUL DUP2 ADD SWAP1 POP PUSH2 0x226C JUMP JUMPDEST PUSH1 0xC PUSH3 0x282070 MUL DUP2 ADD SWAP1 POP JUMPDEST JUMPDEST DUP1 SWAP3 POP POP POP SWAP4 SWAP3 POP POP POP JUMP JUMPDEST PUSH1 0x0 PUSH1 0x4 PUSH1 0x0 DUP5 PUSH20 0xFFFFFFFFFFFFFFFFFFFFFFFFFFFFFFFFFFFFFFFF AND PUSH20 0xFFFFFFFFFFFFFFFFFFFFFFFFFFFFFFFFFFFFFFFF AND DUP2 MSTORE PUSH1 0x20 ADD SWAP1 DUP2 MSTORE PUSH1 0x20 ADD PUSH1 0x0 KECCAK256 DUP3 DUP2 SLOAD DUP2 LT PUSH2 0x22C5 JUMPI INVALID JUMPDEST SWAP1 PUSH1 0x0 MSTORE PUSH1 0x20 PUSH1 0x0 KECCAK256 SWAP1 PUSH1 0x9 MUL ADD SWAP1 POP PUSH1 0x0 PUSH1 0x3 DUP3 PUSH1 0x0 ADD SLOAD DUP2 SLOAD DUP2 LT PUSH2 0x22E8 JUMPI INVALID JUMPDEST SWAP1 PUSH1 0x0 MSTORE PUSH1 0x20 PUSH1 0x0 KECCAK256 SWAP1 PUSH1 0x3 MUL ADD SWAP1 POP PUSH1 0x0 DUP1 PUSH1 0x1 SWAP1 POP JUMPDEST PUSH1 0xC DUP2 GT PUSH2 0x233F JUMPI DUP3 PUSH1 0x1 ADD SLOAD DUP5 PUSH1 0x5 ADD PUSH1 0x0 DUP4 DUP2 MSTORE PUSH1 0x20 ADD SWAP1 DUP2 MSTORE PUSH1 0x20 ADD PUSH1 0x0 KECCAK256 SLOAD LT ISZERO PUSH2 0x2332 JUMPI DUP2 DUP1 PUSH1 0x1 ADD SWAP3 POP POP JUMPDEST DUP1 DUP1 PUSH1 0x1 ADD SWAP2 POP POP PUSH2 0x2300 JUMP JUMPDEST POP PUSH1 0x0 PUSH2 0x234C DUP7 DUP7 PUSH2 0x12DC JUMP JUMPDEST SWAP1 POP PUSH1 0x2 PUSH1 0x0 SWAP1 SLOAD SWAP1 PUSH2 0x100 EXP SWAP1 DIV PUSH20 0xFFFFFFFFFFFFFFFFFFFFFFFFFFFFFFFFFFFFFFFF AND PUSH20 0xFFFFFFFFFFFFFFFFFFFFFFFFFFFFFFFFFFFFFFFF AND PUSH4 0x42966C68 PUSH2 0x239F DUP5 DUP5 PUSH2 0x243F SWAP1 SWAP2 SWAP1 PUSH4 0xFFFFFFFF AND JUMP JUMPDEST PUSH1 0x40 MLOAD DUP3 PUSH4 0xFFFFFFFF AND PUSH1 0xE0 SHL DUP2 MSTORE PUSH1 0x4 ADD DUP1 DUP3 DUP2 MSTORE PUSH1 0x20 ADD SWAP2 POP POP PUSH1 0x0 PUSH1 0x40 MLOAD DUP1 DUP4 SUB DUP2 PUSH1 0x0 DUP8 DUP1 EXTCODESIZE ISZERO DUP1 ISZERO PUSH2 0x23D5 JUMPI PUSH1 0x0 DUP1 REVERT JUMPDEST POP GAS CALL ISZERO DUP1 ISZERO PUSH2 0x23E9 JUMPI RETURNDATASIZE PUSH1 0x0 DUP1 RETURNDATACOPY RETURNDATASIZE PUSH1 0x0 REVERT JUMPDEST POP POP POP POP POP POP POP POP POP POP JUMP JUMPDEST PUSH1 0x0 PUSH2 0x2437 DUP4 DUP4 PUSH1 0x40 MLOAD DUP1 PUSH1 0x40 ADD PUSH1 0x40 MSTORE DUP1 PUSH1 0x1A DUP2 MSTORE PUSH1 0x20 ADD PUSH32 0x536166654D6174683A206469766973696F6E206279207A65726F000000000000 DUP2 MSTORE POP PUSH2 0x2585 JUMP JUMPDEST SWAP1 POP SWAP3 SWAP2 POP POP JUMP JUMPDEST PUSH1 0x0 DUP1 DUP4 EQ ISZERO PUSH2 0x2452 JUMPI PUSH1 0x0 SWAP1 POP PUSH2 0x24BF JUMP JUMPDEST PUSH1 0x0 DUP3 DUP5 MUL SWAP1 POP DUP3 DUP5 DUP3 DUP2 PUSH2 0x2463 JUMPI INVALID JUMPDEST DIV EQ PUSH2 0x24BA JUMPI PUSH1 0x40 MLOAD PUSH32 0x8C379A000000000000000000000000000000000000000000000000000000000 DUP2 MSTORE PUSH1 0x4 ADD DUP1 DUP1 PUSH1 0x20 ADD DUP3 DUP2 SUB DUP3 MSTORE PUSH1 0x21 DUP2 MSTORE PUSH1 0x20 ADD DUP1 PUSH2 0x264C PUSH1 0x21 SWAP2 CODECOPY PUSH1 0x40 ADD SWAP2 POP POP PUSH1 0x40 MLOAD DUP1 SWAP2 SUB SWAP1 REVERT JUMPDEST DUP1 SWAP2 POP POP JUMPDEST SWAP3 SWAP2 POP POP JUMP JUMPDEST PUSH1 0x0 DUP4 DUP4 GT ISZERO DUP3 SWAP1 PUSH2 0x2572 JUMPI PUSH1 0x40 MLOAD PUSH32 0x8C379A000000000000000000000000000000000000000000000000000000000 DUP2 MSTORE PUSH1 0x4 ADD DUP1 DUP1 PUSH1 0x20 ADD DUP3 DUP2 SUB DUP3 MSTORE DUP4 DUP2 DUP2 MLOAD DUP2 MSTORE PUSH1 0x20 ADD SWAP2 POP DUP1 MLOAD SWAP1 PUSH1 0x20 ADD SWAP1 DUP1 DUP4 DUP4 PUSH1 0x0 JUMPDEST DUP4 DUP2 LT ISZERO PUSH2 0x2537 JUMPI DUP1 DUP3 ADD MLOAD DUP2 DUP5 ADD MSTORE PUSH1 0x20 DUP2 ADD SWAP1 POP PUSH2 0x251C JUMP JUMPDEST POP POP POP POP SWAP1 POP SWAP1 DUP2 ADD SWAP1 PUSH1 0x1F AND DUP1 ISZERO PUSH2 0x2564 JUMPI DUP1 DUP3 SUB DUP1 MLOAD PUSH1 0x1 DUP4 PUSH1 0x20 SUB PUSH2 0x100 EXP SUB NOT AND DUP2 MSTORE PUSH1 0x20 ADD SWAP2 POP JUMPDEST POP SWAP3 POP POP POP PUSH1 0x40 MLOAD DUP1 SWAP2 SUB SWAP1 REVERT JUMPDEST POP PUSH1 0x0 DUP4 DUP6 SUB SWAP1 POP DUP1 SWAP2 POP POP SWAP4 SWAP3 POP POP POP JUMP JUMPDEST PUSH1 0x0 DUP1 DUP4 GT DUP3 SWAP1 PUSH2 0x2631 JUMPI PUSH1 0x40 MLOAD PUSH32 0x8C379A000000000000000000000000000000000000000000000000000000000 DUP2 MSTORE PUSH1 0x4 ADD DUP1 DUP1 PUSH1 0x20 ADD DUP3 DUP2 SUB DUP3 MSTORE DUP4 DUP2 DUP2 MLOAD DUP2 MSTORE PUSH1 0x20 ADD SWAP2 POP DUP1 MLOAD SWAP1 PUSH1 0x20 ADD SWAP1 DUP1 DUP4 DUP4 PUSH1 0x0 JUMPDEST DUP4 DUP2 LT ISZERO PUSH2 0x25F6 JUMPI DUP1 DUP3 ADD MLOAD DUP2 DUP5 ADD MSTORE PUSH1 0x20 DUP2 ADD SWAP1 POP PUSH2 0x25DB JUMP JUMPDEST POP POP POP POP SWAP1 POP SWAP1 DUP2 ADD SWAP1 PUSH1 0x1F AND DUP1 ISZERO PUSH2 0x2623 JUMPI DUP1 DUP3 SUB DUP1 MLOAD PUSH1 0x1 DUP4 PUSH1 0x20 SUB PUSH2 0x100 EXP SUB NOT AND DUP2 MSTORE PUSH1 0x20 ADD SWAP2 POP JUMPDEST POP SWAP3 POP POP POP PUSH1 0x40 MLOAD DUP1 SWAP2 SUB SWAP1 REVERT JUMPDEST POP PUSH1 0x0 DUP4 DUP6 DUP2 PUSH2 0x263D JUMPI INVALID JUMPDEST DIV SWAP1 POP DUP1 SWAP2 POP POP SWAP4 SWAP3 POP POP POP JUMP INVALID MSTORE8 PUSH2 0x6665 0x4D PUSH2 0x7468 GASPRICE KECCAK256 PUSH14 0x756C7469706C69636174696F6E20 PUSH16 0x766572666C6F7763616E6E6F74206465 PUSH17 0x6F73697420616674657220616363756D75 PUSH13 0x6174696F6E20706572696F6464 PUSH6 0x706F73697420 PUSH2 0x6D6F PUSH22 0x6E742073686F756C64206265206E6F6E207A65726FA2 PUSH5 0x6970667358 0x22 SLT KECCAK256 0xFB LOG0 PUSH14 0xC7D6EF3FCA64D3113D4CD0EF55DD SMOD 0x25 0xC9 0xC9 PUSH12 0x909BE005D56EBFB6B9686473 PUSH16 0x6C634300060000336080604052348015 PUSH2 0x10 JUMPI PUSH1 0x0 DUP1 REVERT JUMPDEST POP PUSH1 0x40 MLOAD PUSH2 0x81B CODESIZE SUB DUP1 PUSH2 0x81B DUP4 CODECOPY DUP2 DUP2 ADD PUSH1 0x40 MSTORE PUSH1 0x40 DUP2 LT ISZERO PUSH2 0x33 JUMPI PUSH1 0x0 DUP1 REVERT JUMPDEST DUP2 ADD SWAP1 DUP1 DUP1 MLOAD SWAP1 PUSH1 0x20 ADD SWAP1 SWAP3 SWAP2 SWAP1 DUP1 MLOAD SWAP1 PUSH1 0x20 ADD SWAP1 SWAP3 SWAP2 SWAP1 POP POP POP DUP2 PUSH1 0x1 PUSH1 0x0 PUSH2 0x100 EXP DUP2 SLOAD DUP2 PUSH20 0xFFFFFFFFFFFFFFFFFFFFFFFFFFFFFFFFFFFFFFFF MUL NOT AND SWAP1 DUP4 PUSH20 0xFFFFFFFFFFFFFFFFFFFFFFFFFFFFFFFFFFFFFFFF AND MUL OR SWAP1 SSTORE POP DUP1 PUSH1 0x0 DUP1 PUSH2 0x100 EXP DUP2 SLOAD DUP2 PUSH20 0xFFFFFFFFFFFFFFFFFFFFFFFFFFFFFFFFFFFFFFFF MUL NOT AND SWAP1 DUP4 PUSH20 0xFFFFFFFFFFFFFFFFFFFFFFFFFFFFFFFFFFFFFFFF AND MUL OR SWAP1 SSTORE POP CALLER PUSH1 0x2 PUSH1 0x0 PUSH2 0x100 EXP DUP2 SLOAD DUP2 PUSH20 0xFFFFFFFFFFFFFFFFFFFFFFFFFFFFFFFFFFFFFFFF MUL NOT AND SWAP1 DUP4 PUSH20 0xFFFFFFFFFFFFFFFFFFFFFFFFFFFFFFFFFFFFFFFF AND MUL OR SWAP1 SSTORE POP POP POP PUSH2 0x6FA DUP1 PUSH2 0x121 PUSH1 0x0 CODECOPY PUSH1 0x0 RETURN INVALID PUSH1 0x80 PUSH1 0x40 MSTORE CALLVALUE DUP1 ISZERO PUSH2 0x10 JUMPI PUSH1 0x0 DUP1 REVERT JUMPDEST POP PUSH1 0x4 CALLDATASIZE LT PUSH2 0x57 JUMPI PUSH1 0x0 CALLDATALOAD PUSH1 0xE0 SHR DUP1 PUSH4 0x3B4D8A7D EQ PUSH2 0x5C JUMPI DUP1 PUSH4 0x8DA5CB5B EQ PUSH2 0x96 JUMPI DUP1 PUSH4 0x9997E137 EQ PUSH2 0xE0 JUMPI DUP1 PUSH4 0xBE999705 EQ PUSH2 0x12A JUMPI DUP1 PUSH4 0xFC0C546A EQ PUSH2 0x158 JUMPI JUMPDEST PUSH1 0x0 DUP1 REVERT JUMPDEST PUSH2 0x94 PUSH1 0x4 DUP1 CALLDATASIZE SUB PUSH1 0x40 DUP2 LT ISZERO PUSH2 0x72 JUMPI PUSH1 0x0 DUP1 REVERT JUMPDEST DUP2 ADD SWAP1 DUP1 DUP1 CALLDATALOAD ISZERO ISZERO SWAP1 PUSH1 0x20 ADD SWAP1 SWAP3 SWAP2 SWAP1 DUP1 CALLDATALOAD SWAP1 PUSH1 0x20 ADD SWAP1 SWAP3 SWAP2 SWAP1 POP POP POP PUSH2 0x1A2 JUMP JUMPDEST STOP JUMPDEST PUSH2 0x9E PUSH2 0x430 JUMP JUMPDEST PUSH1 0x40 MLOAD DUP1 DUP3 PUSH20 0xFFFFFFFFFFFFFFFFFFFFFFFFFFFFFFFFFFFFFFFF AND PUSH20 0xFFFFFFFFFFFFFFFFFFFFFFFFFFFFFFFFFFFFFFFF AND DUP2 MSTORE PUSH1 0x20 ADD SWAP2 POP POP PUSH1 0x40 MLOAD DUP1 SWAP2 SUB SWAP1 RETURN JUMPDEST PUSH2 0xE8 PUSH2 0x455 JUMP JUMPDEST PUSH1 0x40 MLOAD DUP1 DUP3 PUSH20 0xFFFFFFFFFFFFFFFFFFFFFFFFFFFFFFFFFFFFFFFF AND PUSH20 0xFFFFFFFFFFFFFFFFFFFFFFFFFFFFFFFFFFFFFFFF AND DUP2 MSTORE PUSH1 0x20 ADD SWAP2 POP POP PUSH1 0x40 MLOAD DUP1 SWAP2 SUB SWAP1 RETURN JUMPDEST PUSH2 0x156 PUSH1 0x4 DUP1 CALLDATASIZE SUB PUSH1 0x20 DUP2 LT ISZERO PUSH2 0x140 JUMPI PUSH1 0x0 DUP1 REVERT JUMPDEST DUP2 ADD SWAP1 DUP1 DUP1 CALLDATALOAD SWAP1 PUSH1 0x20 ADD SWAP1 SWAP3 SWAP2 SWAP1 POP POP POP PUSH2 0x47B JUMP JUMPDEST STOP JUMPDEST PUSH2 0x160 PUSH2 0x69E JUMP JUMPDEST PUSH1 0x40 MLOAD DUP1 DUP3 PUSH20 0xFFFFFFFFFFFFFFFFFFFFFFFFFFFFFFFFFFFFFFFF AND PUSH20 0xFFFFFFFFFFFFFFFFFFFFFFFFFFFFFFFFFFFFFFFF AND DUP2 MSTORE PUSH1 0x20 ADD SWAP2 POP POP PUSH1 0x40 MLOAD DUP1 SWAP2 SUB SWAP1 RETURN JUMPDEST PUSH1 0x0 DUP1 SWAP1 SLOAD SWAP1 PUSH2 0x100 EXP SWAP1 DIV PUSH20 0xFFFFFFFFFFFFFFFFFFFFFFFFFFFFFFFFFFFFFFFF AND PUSH20 0xFFFFFFFFFFFFFFFFFFFFFFFFFFFFFFFFFFFFFFFF AND CALLER PUSH20 0xFFFFFFFFFFFFFFFFFFFFFFFFFFFFFFFFFFFFFFFF AND EQ PUSH2 0x264 JUMPI PUSH1 0x40 MLOAD PUSH32 0x8C379A000000000000000000000000000000000000000000000000000000000 DUP2 MSTORE PUSH1 0x4 ADD DUP1 DUP1 PUSH1 0x20 ADD DUP3 DUP2 SUB DUP3 MSTORE PUSH1 0x16 DUP2 MSTORE PUSH1 0x20 ADD DUP1 PUSH32 0x6F6E6C79206465706C6F7965722063616E2063616C6C00000000000000000000 DUP2 MSTORE POP PUSH1 0x20 ADD SWAP2 POP POP PUSH1 0x40 MLOAD DUP1 SWAP2 SUB SWAP1 REVERT JUMPDEST DUP2 ISZERO PUSH2 0x347 JUMPI PUSH1 0x1 PUSH1 0x0 SWAP1 SLOAD SWAP1 PUSH2 0x100 EXP SWAP1 DIV PUSH20 0xFFFFFFFFFFFFFFFFFFFFFFFFFFFFFFFFFFFFFFFF AND PUSH20 0xFFFFFFFFFFFFFFFFFFFFFFFFFFFFFFFFFFFFFFFF AND PUSH4 0x70A08231 ADDRESS PUSH1 0x40 MLOAD DUP3 PUSH4 0xFFFFFFFF AND PUSH1 0xE0 SHL DUP2 MSTORE PUSH1 0x4 ADD DUP1 DUP3 PUSH20 0xFFFFFFFFFFFFFFFFFFFFFFFFFFFFFFFFFFFFFFFF AND PUSH20 0xFFFFFFFFFFFFFFFFFFFFFFFFFFFFFFFFFFFFFFFF AND DUP2 MSTORE PUSH1 0x20 ADD SWAP2 POP POP PUSH1 0x20 PUSH1 0x40 MLOAD DUP1 DUP4 SUB DUP2 DUP7 DUP1 EXTCODESIZE ISZERO DUP1 ISZERO PUSH2 0x309 JUMPI PUSH1 0x0 DUP1 REVERT JUMPDEST POP GAS STATICCALL ISZERO DUP1 ISZERO PUSH2 0x31D JUMPI RETURNDATASIZE PUSH1 0x0 DUP1 RETURNDATACOPY RETURNDATASIZE PUSH1 0x0 REVERT JUMPDEST POP POP POP POP PUSH1 0x40 MLOAD RETURNDATASIZE PUSH1 0x20 DUP2 LT ISZERO PUSH2 0x333 JUMPI PUSH1 0x0 DUP1 REVERT JUMPDEST DUP2 ADD SWAP1 DUP1 DUP1 MLOAD SWAP1 PUSH1 0x20 ADD SWAP1 SWAP3 SWAP2 SWAP1 POP POP POP SWAP1 POP JUMPDEST PUSH1 0x1 PUSH1 0x0 SWAP1 SLOAD SWAP1 PUSH2 0x100 EXP SWAP1 DIV PUSH20 0xFFFFFFFFFFFFFFFFFFFFFFFFFFFFFFFFFFFFFFFF AND PUSH20 0xFFFFFFFFFFFFFFFFFFFFFFFFFFFFFFFFFFFFFFFF AND PUSH4 0xA9059CBB CALLER DUP4 PUSH1 0x40 MLOAD DUP4 PUSH4 0xFFFFFFFF AND PUSH1 0xE0 SHL DUP2 MSTORE PUSH1 0x4 ADD DUP1 DUP4 PUSH20 0xFFFFFFFFFFFFFFFFFFFFFFFFFFFFFFFFFFFFFFFF AND PUSH20 0xFFFFFFFFFFFFFFFFFFFFFFFFFFFFFFFFFFFFFFFF AND DUP2 MSTORE PUSH1 0x20 ADD DUP3 DUP2 MSTORE PUSH1 0x20 ADD SWAP3 POP POP POP PUSH1 0x20 PUSH1 0x40 MLOAD DUP1 DUP4 SUB DUP2 PUSH1 0x0 DUP8 DUP1 EXTCODESIZE ISZERO DUP1 ISZERO PUSH2 0x3F0 JUMPI PUSH1 0x0 DUP1 REVERT JUMPDEST POP GAS CALL ISZERO DUP1 ISZERO PUSH2 0x404 JUMPI RETURNDATASIZE PUSH1 0x0 DUP1 RETURNDATACOPY RETURNDATASIZE PUSH1 0x0 REVERT JUMPDEST POP POP POP POP PUSH1 0x40 MLOAD RETURNDATASIZE PUSH1 0x20 DUP2 LT ISZERO PUSH2 0x41A JUMPI PUSH1 0x0 DUP1 REVERT JUMPDEST DUP2 ADD SWAP1 DUP1 DUP1 MLOAD SWAP1 PUSH1 0x20 ADD SWAP1 SWAP3 SWAP2 SWAP1 POP POP POP POP POP POP JUMP JUMPDEST PUSH1 0x0 DUP1 SWAP1 SLOAD SWAP1 PUSH2 0x100 EXP SWAP1 DIV PUSH20 0xFFFFFFFFFFFFFFFFFFFFFFFFFFFFFFFFFFFFFFFF AND DUP2 JUMP JUMPDEST PUSH1 0x2 PUSH1 0x0 SWAP1 SLOAD SWAP1 PUSH2 0x100 EXP SWAP1 DIV PUSH20 0xFFFFFFFFFFFFFFFFFFFFFFFFFFFFFFFFFFFFFFFF AND DUP2 JUMP JUMPDEST PUSH1 0x1 PUSH1 0x0 SWAP1 SLOAD SWAP1 PUSH2 0x100 EXP SWAP1 DIV PUSH20 0xFFFFFFFFFFFFFFFFFFFFFFFFFFFFFFFFFFFFFFFF AND PUSH20 0xFFFFFFFFFFFFFFFFFFFFFFFFFFFFFFFFFFFFFFFF AND PUSH4 0x23B872DD CALLER ADDRESS DUP5 PUSH1 0x40 MLOAD DUP5 PUSH4 0xFFFFFFFF AND PUSH1 0xE0 SHL DUP2 MSTORE PUSH1 0x4 ADD DUP1 DUP5 PUSH20 0xFFFFFFFFFFFFFFFFFFFFFFFFFFFFFFFFFFFFFFFF AND PUSH20 0xFFFFFFFFFFFFFFFFFFFFFFFFFFFFFFFFFFFFFFFF AND DUP2 MSTORE PUSH1 0x20 ADD DUP4 PUSH20 0xFFFFFFFFFFFFFFFFFFFFFFFFFFFFFFFFFFFFFFFF AND PUSH20 0xFFFFFFFFFFFFFFFFFFFFFFFFFFFFFFFFFFFFFFFF AND DUP2 MSTORE PUSH1 0x20 ADD DUP3 DUP2 MSTORE PUSH1 0x20 ADD SWAP4 POP POP POP POP PUSH1 0x20 PUSH1 0x40 MLOAD DUP1 DUP4 SUB DUP2 PUSH1 0x0 DUP8 DUP1 EXTCODESIZE ISZERO DUP1 ISZERO PUSH2 0x558 JUMPI PUSH1 0x0 DUP1 REVERT JUMPDEST POP GAS CALL ISZERO DUP1 ISZERO PUSH2 0x56C JUMPI RETURNDATASIZE PUSH1 0x0 DUP1 RETURNDATACOPY RETURNDATASIZE PUSH1 0x0 REVERT JUMPDEST POP POP POP POP PUSH1 0x40 MLOAD RETURNDATASIZE PUSH1 0x20 DUP2 LT ISZERO PUSH2 0x582 JUMPI PUSH1 0x0 DUP1 REVERT JUMPDEST DUP2 ADD SWAP1 DUP1 DUP1 MLOAD SWAP1 PUSH1 0x20 ADD SWAP1 SWAP3 SWAP2 SWAP1 POP POP POP POP PUSH1 0x1 PUSH1 0x0 SWAP1 SLOAD SWAP1 PUSH2 0x100 EXP SWAP1 DIV PUSH20 0xFFFFFFFFFFFFFFFFFFFFFFFFFFFFFFFFFFFFFFFF AND PUSH20 0xFFFFFFFFFFFFFFFFFFFFFFFFFFFFFFFFFFFFFFFF AND PUSH4 0x95EA7B3 PUSH1 0x2 PUSH1 0x0 SWAP1 SLOAD SWAP1 PUSH2 0x100 EXP SWAP1 DIV PUSH20 0xFFFFFFFFFFFFFFFFFFFFFFFFFFFFFFFFFFFFFFFF AND DUP4 PUSH1 0x40 MLOAD DUP4 PUSH4 0xFFFFFFFF AND PUSH1 0xE0 SHL DUP2 MSTORE PUSH1 0x4 ADD DUP1 DUP4 PUSH20 0xFFFFFFFFFFFFFFFFFFFFFFFFFFFFFFFFFFFFFFFF AND PUSH20 0xFFFFFFFFFFFFFFFFFFFFFFFFFFFFFFFFFFFFFFFF AND DUP2 MSTORE PUSH1 0x20 ADD DUP3 DUP2 MSTORE PUSH1 0x20 ADD SWAP3 POP POP POP PUSH1 0x20 PUSH1 0x40 MLOAD DUP1 DUP4 SUB DUP2 PUSH1 0x0 DUP8 DUP1 EXTCODESIZE ISZERO DUP1 ISZERO PUSH2 0x65F JUMPI PUSH1 0x0 DUP1 REVERT JUMPDEST POP GAS CALL ISZERO DUP1 ISZERO PUSH2 0x673 JUMPI RETURNDATASIZE PUSH1 0x0 DUP1 RETURNDATACOPY RETURNDATASIZE PUSH1 0x0 REVERT JUMPDEST POP POP POP POP PUSH1 0x40 MLOAD RETURNDATASIZE PUSH1 0x20 DUP2 LT ISZERO PUSH2 0x689 JUMPI PUSH1 0x0 DUP1 REVERT JUMPDEST DUP2 ADD SWAP1 DUP1 DUP1 MLOAD SWAP1 PUSH1 0x20 ADD SWAP1 SWAP3 SWAP2 SWAP1 POP POP POP POP POP JUMP JUMPDEST PUSH1 0x1 PUSH1 0x0 SWAP1 SLOAD SWAP1 PUSH2 0x100 EXP SWAP1 DIV PUSH20 0xFFFFFFFFFFFFFFFFFFFFFFFFFFFFFFFFFFFFFFFF AND DUP2 JUMP INVALID LOG2 PUSH5 0x6970667358 0x22 SLT KECCAK256 0xA8 MSTORE 0xAF 0xCA CREATE STATICCALL DUP15 0x1E ADDMOD RETURN 0x2C SWAP15 0xC8 0xD2 0x5D 0x4E 0xD4 LOG1 0x27 0xE7 0xD3 SWAP16 DELEGATECALL PUSH18 0xC9EA1D4E2B9E3A4564736F6C634300060000 CALLER "},"gasEstimates":{"creation":{"codeDepositCost":"1992600","executionCost":"infinite","totalCost":"infinite"},"external":{"addToPrepaid(uint256)":"infinite","calculatePowerBoosterAmount(address,uint256)":"infinite","createPETPlan(uint256,uint256)":"83158","fundsBucket()":"1098","getDepositMonth(address,uint256)":"2204","getMonthlyDepositedAmount(address,uint256,uint256)":"2295","getSumOfMonthlyAnnuity(address,uint256,uint256,uint256)":"infinite","makeDeposit(address,uint256,uint256,bool)":"infinite","newPET(uint256)":"78263","owner()":"1120","petPlans(uint256)":"3806","pets(address,uint256)":"5454","prepaidES(address)":"1257","sendPrepaidESDifferent(address[],uint256[])":"infinite","token()":"1163","withdrawAnnuity(address,uint256,uint256)":"infinite","withdrawPowerBooster(address,uint256,uint256)":"infinite"},"internal":{"_burnPenalisedPowerBoosterTokens(address,uint256)":"infinite","_getBenefitAllocationByDepositAmount(uint256,uint256)":"infinite","_getNomineeAllowedTimestamp(address,uint256,uint256)":"infinite"}},"methodIdentifiers":{"addToPrepaid(uint256)":"26f8bea7","calculatePowerBoosterAmount(address,uint256)":"452f1423","createPETPlan(uint256,uint256)":"45b37ec4","fundsBucket()":"3fd46068","getDepositMonth(address,uint256)":"1fdae4b8","getMonthlyDepositedAmount(address,uint256,uint256)":"f713c79e","getSumOfMonthlyAnnuity(address,uint256,uint256,uint256)":"47626531","makeDeposit(address,uint256,uint256,bool)":"0c254d63","newPET(uint256)":"dc2c03ef","owner()":"8da5cb5b","petPlans(uint256)":"95a0373c","pets(address,uint256)":"3ee20a89","prepaidES(address)":"fb0685df","sendPrepaidESDifferent(address[],uint256[])":"51a6349d","token()":"fc0c546a","withdrawAnnuity(address,uint256,uint256)":"37482ef1","withdrawPowerBooster(address,uint256,uint256)":"9baf14d4"}},"storageLayout":{"storage":[{"astId":657,"contract":"TimeAllyPET.sol:TimeAllyPET","label":"owner","offset":0,"slot":"0","type":"t_address"},{"astId":659,"contract":"TimeAllyPET.sol:TimeAllyPET","label":"fundsBucket","offset":0,"slot":"1","type":"t_address"},{"astId":661,"contract":"TimeAllyPET.sol:TimeAllyPET","label":"token","offset":0,"slot":"2","type":"t_contract(ERC20)1647"},{"astId":667,"contract":"TimeAllyPET.sol:TimeAllyPET","label":"petPlans","offset":0,"slot":"3","type":"t_array(t_struct(PETPlan)628_storage)dyn_storage"},{"astId":672,"contract":"TimeAllyPET.sol:TimeAllyPET","label":"pets","offset":0,"slot":"4","type":"t_mapping(t_address,t_array(t_struct(PET)655_storage)dyn_storage)"},{"astId":676,"contract":"TimeAllyPET.sol:TimeAllyPET","label":"prepaidES","offset":0,"slot":"5","type":"t_mapping(t_address,t_uint256)"}],"types":{"t_address":{"encoding":"inplace","label":"address","numberOfBytes":"20"},"t_array(t_struct(PET)655_storage)dyn_storage":{"base":"t_struct(PET)655_storage","encoding":"dynamic_array","label":"struct TimeAllyPET.PET[]","numberOfBytes":"32"},"t_array(t_struct(PETPlan)628_storage)dyn_storage":{"base":"t_struct(PETPlan)628_storage","encoding":"dynamic_array","label":"struct TimeAllyPET.PETPlan[]","numberOfBytes":"32"},"t_bool":{"encoding":"inplace","label":"bool","numberOfBytes":"1"},"t_contract(ERC20)1647":{"encoding":"inplace","label":"contract ERC20","numberOfBytes":"20"},"t_mapping(t_address,t_array(t_struct(PET)655_storage)dyn_storage)":{"encoding":"mapping","key":"t_address","label":"mapping(address => struct TimeAllyPET.PET[])","numberOfBytes":"32","value":"t_array(t_struct(PET)655_storage)dyn_storage"},"t_mapping(t_address,t_bool)":{"encoding":"mapping","key":"t_address","label":"mapping(address => bool)","numberOfBytes":"32","value":"t_bool"},"t_mapping(t_address,t_uint256)":{"encoding":"mapping","key":"t_address","label":"mapping(address => uint256)","numberOfBytes":"32","value":"t_uint256"},"t_mapping(t_uint256,t_bool)":{"encoding":"mapping","key":"t_uint256","label":"mapping(uint256 => bool)","numberOfBytes":"32","value":"t_bool"},"t_mapping(t_uint256,t_uint256)":{"encoding":"mapping","key":"t_uint256","label":"mapping(uint256 => uint256)","numberOfBytes":"32","value":"t_uint256"},"t_struct(PET)655_storage":{"encoding":"inplace","label":"struct TimeAllyPET.PET","members":[{"astId":630,"contract":"TimeAllyPET.sol:TimeAllyPET","label":"planId","offset":0,"slot":"0","type":"t_uint256"},{"astId":632,"contract":"TimeAllyPET.sol:TimeAllyPET","label":"initTimestamp","offset":0,"slot":"1","type":"t_uint256"},{"astId":634,"contract":"TimeAllyPET.sol:TimeAllyPET","label":"lastAnnuityWithdrawlMonthId","offset":0,"slot":"2","type":"t_uint256"},{"astId":636,"contract":"TimeAllyPET.sol:TimeAllyPET","label":"appointeeVotes","offset":0,"slot":"3","type":"t_uint256"},{"astId":638,"contract":"TimeAllyPET.sol:TimeAllyPET","label":"numberOfAppointees","offset":0,"slot":"4","type":"t_uint256"},{"astId":642,"contract":"TimeAllyPET.sol:TimeAllyPET","label":"monthlyDepositAmount","offset":0,"slot":"5","type":"t_mapping(t_uint256,t_uint256)"},{"astId":646,"contract":"TimeAllyPET.sol:TimeAllyPET","label":"isPowerBoosterWithdrawn","offset":0,"slot":"6","type":"t_mapping(t_uint256,t_bool)"},{"astId":650,"contract":"TimeAllyPET.sol:TimeAllyPET","label":"nominees","offset":0,"slot":"7","type":"t_mapping(t_address,t_bool)"},{"astId":654,"contract":"TimeAllyPET.sol:TimeAllyPET","label":"appointees","offset":0,"slot":"8","type":"t_mapping(t_address,t_bool)"}],"numberOfBytes":"288"},"t_struct(PETPlan)628_storage":{"encoding":"inplace","label":"struct TimeAllyPET.PETPlan","members":[{"astId":623,"contract":"TimeAllyPET.sol:TimeAllyPET","label":"isPlanActive","offset":0,"slot":"0","type":"t_bool"},{"astId":625,"contract":"TimeAllyPET.sol:TimeAllyPET","label":"minimumMonthlyCommitmentAmount","offset":0,"slot":"1","type":"t_uint256"},{"astId":627,"contract":"TimeAllyPET.sol:TimeAllyPET","label":"monthlyBenefitFactorPerThousand","offset":0,"slot":"2","type":"t_uint256"}],"numberOfBytes":"96"},"t_uint256":{"encoding":"inplace","label":"uint256","numberOfBytes":"32"}}},"userdoc":{"methods":{"newPET(uint256)":{"notice":"in new PET, it is better to also take a first deposit"}}}}