{"abi":[{"constant":true,"inputs":[],"name":"launchRewardBucket","outputs":[{"name":"","type":"uint256"}],"payable":false,"stateMutability":"view","type":"function"},{"constant":true,"inputs":[],"name":"nrtManager","outputs":[{"name":"","type":"address"}],"payable":false,"stateMutability":"view","type":"function"},{"constant":true,"inputs":[{"name":"","type":"address"},{"name":"","type":"uint256"}],"name":"stakings","outputs":[{"name":"exaEsAmount","type":"uint256"},{"name":"timestamp","type":"uint256"},{"name":"stakingPlanId","type":"uint256"},{"name":"status","type":"uint256"},{"name":"accruedExaEsAmount","type":"uint256"},{"name":"loanId","type":"uint256"},{"name":"refundMonthClaimedLast","type":"uint256"},{"name":"refundMonthsRemaining","type":"uint256"}],"payable":false,"stateMutability":"view","type":"function"},{"constant":false,"inputs":[{"name":"_stakingId","type":"uint256"}],"name":"withdrawCancelStaking","outputs":[],"payable":false,"stateMutability":"nonpayable","type":"function"},{"constant":true,"inputs":[{"name":"","type":"uint256"}],"name":"timeAllyMonthlyNRT","outputs":[{"name":"","type":"uint256"}],"payable":false,"stateMutability":"view","type":"function"},{"constant":true,"inputs":[{"name":"_userAddress","type":"address"},{"name":"_atMonth","type":"uint256"}],"name":"seeShareForUserByMonth","outputs":[{"name":"","type":"uint256"}],"payable":false,"stateMutability":"view","type":"function"},{"constant":false,"inputs":[{"name":"_atMonth","type":"uint256"},{"name":"_accruedPercentage","type":"uint256"},{"name":"_stakeAccruedNow","type":"bool"},{"name":"_accruedsStakingPlan","type":"uint256"}],"name":"withdrawShareForUserByMonth","outputs":[],"payable":false,"stateMutability":"nonpayable","type":"function"},{"constant":false,"inputs":[{"name":"_stakingId","type":"uint256"},{"name":"_stakingPlanId","type":"uint256"}],"name":"restakeAccrued","outputs":[],"payable":false,"stateMutability":"nonpayable","type":"function"},{"constant":true,"inputs":[{"name":"_userAddress","type":"address"},{"name":"_atMonth","type":"uint256"}],"name":"userEffectiveStakingByMonth","outputs":[{"name":"","type":"uint256"}],"payable":false,"stateMutability":"view","type":"function"},{"constant":true,"inputs":[{"name":"_userAddress","type":"address"},{"name":"_stakingId","type":"uint256"}],"name":"viewStaking","outputs":[{"name":"","type":"uint256"},{"name":"","type":"uint256"},{"name":"","type":"uint256"},{"name":"","type":"uint256"},{"name":"","type":"uint256"},{"name":"","type":"uint256"}],"payable":false,"stateMutability":"view","type":"function"},{"constant":true,"inputs":[],"name":"timeAllyMonthlyNRTArray","outputs":[{"name":"","type":"uint256[]"}],"payable":false,"stateMutability":"view","type":"function"},{"constant":true,"inputs":[{"name":"","type":"uint256"}],"name":"totalActiveStakings","outputs":[{"name":"","type":"uint256"}],"payable":false,"stateMutability":"view","type":"function"},{"constant":false,"inputs":[{"name":"_exaEsAmount","type":"uint256"}],"name":"topupRewardBucket","outputs":[],"payable":false,"stateMutability":"nonpayable","type":"function"},{"constant":true,"inputs":[],"name":"earthSecondsInMonth","outputs":[{"name":"","type":"uint256"}],"payable":false,"stateMutability":"view","type":"function"},{"constant":false,"inputs":[{"name":"_addresses","type":"address[]"},{"name":"_exaEsAmount","type":"uint256"}],"name":"giveLaunchReward","outputs":[],"payable":false,"stateMutability":"nonpayable","type":"function"},{"constant":false,"inputs":[{"name":"_addresses","type":"address[]"},{"name":"_exaEsAmounts","type":"uint256[]"}],"name":"giveLaunchRewardSeperate","outputs":[],"payable":false,"stateMutability":"nonpayable","type":"function"},{"constant":true,"inputs":[{"name":"","type":"uint256"}],"name":"stakingPlans","outputs":[{"name":"months","type":"uint256"},{"name":"fractionFrom15","type":"uint256"}],"payable":false,"stateMutability":"view","type":"function"},{"constant":true,"inputs":[{"name":"","type":"address"}],"name":"launchReward","outputs":[{"name":"","type":"uint256"}],"payable":false,"stateMutability":"view","type":"function"},{"constant":false,"inputs":[{"name":"_loanMonths","type":"uint256"},{"name":"_loanRate","type":"uint256"}],"name":"createLoanPlan","outputs":[],"payable":false,"stateMutability":"nonpayable","type":"function"},{"constant":true,"inputs":[],"name":"owner","outputs":[{"name":"","type":"address"}],"payable":false,"stateMutability":"view","type":"function"},{"constant":true,"inputs":[{"name":"_userAddress","type":"address"},{"name":"_stakingId","type":"uint256"},{"name":"_currentMonth","type":"uint256"},{"name":"_atMonth","type":"uint256"}],"name":"isStakingActive","outputs":[{"name":"","type":"bool"}],"payable":false,"stateMutability":"view","type":"function"},{"constant":true,"inputs":[{"name":"","type":"address"},{"name":"","type":"uint256"}],"name":"loans","outputs":[{"name":"exaEsAmount","type":"uint256"},{"name":"timestamp","type":"uint256"},{"name":"loanPlanId","type":"uint256"},{"name":"status","type":"uint256"}],"payable":false,"stateMutability":"view","type":"function"},{"constant":false,"inputs":[{"name":"_stakingId","type":"uint256"}],"name":"cancelStaking","outputs":[],"payable":false,"stateMutability":"nonpayable","type":"function"},{"constant":true,"inputs":[{"name":"_userAddress","type":"address"}],"name":"getNumberOfStakingsByUser","outputs":[{"name":"","type":"uint256"}],"payable":false,"stateMutability":"view","type":"function"},{"constant":true,"inputs":[{"name":"_userAddress","type":"address"},{"name":"_stakingIds","type":"uint256[]"}],"name":"seeMaxLoaningAmountOnUserStakings","outputs":[{"name":"","type":"uint256"}],"payable":false,"stateMutability":"view","type":"function"},{"constant":false,"inputs":[{"name":"_months","type":"uint256"},{"name":"_fractionFrom15","type":"uint256"}],"name":"createStakingPlan","outputs":[],"payable":false,"stateMutability":"nonpayable","type":"function"},{"constant":true,"inputs":[{"name":"","type":"uint256"}],"name":"loanPlans","outputs":[{"name":"loanMonths","type":"uint256"},{"name":"loanRate","type":"uint256"}],"payable":false,"stateMutability":"view","type":"function"},{"constant":false,"inputs":[{"name":"_loanPlanId","type":"uint256"},{"name":"_exaEsAmount","type":"uint256"},{"name":"_stakingIds","type":"uint256[]"}],"name":"takeLoanOnSelfStaking","outputs":[],"payable":false,"stateMutability":"nonpayable","type":"function"},{"constant":false,"inputs":[{"name":"_stakingPlanId","type":"uint256"}],"name":"claimLaunchReward","outputs":[],"payable":false,"stateMutability":"nonpayable","type":"function"},{"constant":true,"inputs":[],"name":"getCurrentMonth","outputs":[{"name":"","type":"uint256"}],"payable":false,"stateMutability":"view","type":"function"},{"constant":false,"inputs":[{"name":"_loanId","type":"uint256"}],"name":"repayLoanSelf","outputs":[],"payable":false,"stateMutability":"nonpayable","type":"function"},{"constant":false,"inputs":[{"name":"_exaEsAmount","type":"uint256"},{"name":"_stakingPlanId","type":"uint256"}],"name":"newStaking","outputs":[],"payable":false,"stateMutability":"nonpayable","type":"function"},{"constant":true,"inputs":[],"name":"deployedTimestamp","outputs":[{"name":"","type":"uint256"}],"payable":false,"stateMutability":"view","type":"function"},{"constant":false,"inputs":[{"name":"_timeAllyNRT","type":"uint256"}],"name":"increaseMonth","outputs":[],"payable":false,"stateMutability":"nonpayable","type":"function"},{"constant":false,"inputs":[{"name":"_stakings","type":"uint256[]"}],"name":"withdrawExpiredStakings","outputs":[],"payable":false,"stateMutability":"nonpayable","type":"function"},{"constant":true,"inputs":[{"name":"_userAddress","type":"address"},{"name":"_atMonth","type":"uint256"}],"name":"userActiveStakingByMonth","outputs":[{"name":"","type":"uint256"}],"payable":false,"stateMutability":"view","type":"function"},{"constant":true,"inputs":[],"name":"token","outputs":[{"name":"","type":"address"}],"payable":false,"stateMutability":"view","type":"function"},{"inputs":[{"name":"_tokenAddress","type":"address"},{"name":"_nrtAddress","type":"address"}],"payable":false,"stateMutability":"nonpayable","type":"constructor"},{"anonymous":false,"inputs":[{"indexed":true,"name":"_userAddress","type":"address"},{"indexed":true,"name":"_stakePlanId","type":"uint256"},{"indexed":false,"name":"_exaEsAmount","type":"uint256"},{"indexed":false,"name":"_stakingId","type":"uint256"}],"name":"NewStaking","type":"event"},{"anonymous":false,"inputs":[{"indexed":true,"name":"_userAddress","type":"address"},{"indexed":false,"name":"_atMonth","type":"uint256"},{"indexed":false,"name":"_accruedPercentage","type":"uint256"},{"indexed":false,"name":"_stakeAccruedNow","type":"bool"},{"indexed":false,"name":"_newStakingId","type":"uint256"}],"name":"BenefitWithdrawl","type":"event"},{"anonymous":false,"inputs":[{"indexed":true,"name":"_userAddress","type":"address"},{"indexed":true,"name":"_loanPlanId","type":"uint256"},{"indexed":false,"name":"_exaEsAmount","type":"uint256"},{"indexed":false,"name":"_loanInterest","type":"uint256"},{"indexed":false,"name":"_loanId","type":"uint256"}],"name":"NewLoan","type":"event"},{"anonymous":false,"inputs":[{"indexed":true,"name":"_userAddress","type":"address"},{"indexed":false,"name":"_loanId","type":"uint256"}],"name":"RepayLoan","type":"event"}],"devdoc":{"methods":{}},"evm":{"assembly":"    /* \"TimeAlly.sol\":245:23552  contract TimeAlly {... */\n  mstore(0x40, 0x80)\n    /* \"TimeAlly.sol\":1190:1197  2629744 */\n  0x282070\n    /* \"TimeAlly.sol\":1153:1197  uint256 public earthSecondsInMonth = 2629744 */\n  0x04\n  sstore\n    /* \"TimeAlly.sol\":2751:3012  constructor(address _tokenAddress, address _nrtAddress) public {... */\n  callvalue\n    /* \"--CODEGEN--\":8:17   */\n  dup1\n    /* \"--CODEGEN--\":5:7   */\n  iszero\n  tag_1\n  jumpi\n    /* \"--CODEGEN--\":30:31   */\n  0x00\n    /* \"--CODEGEN--\":27:28   */\n  dup1\n    /* \"--CODEGEN--\":20:32   */\n  revert\n    /* \"--CODEGEN--\":5:7   */\ntag_1:\n    /* \"TimeAlly.sol\":2751:3012  constructor(address _tokenAddress, address _nrtAddress) public {... */\n  pop\n  mload(0x40)\n  sub(codesize, bytecodeSize)\n  dup1\n  bytecodeSize\n  dup4\n  codecopy\n  dup2\n  dup2\n  add\n  0x40\n  mstore\n    /* \"--CODEGEN--\":13:15   */\n  0x40\n    /* \"--CODEGEN--\":8:11   */\n  dup2\n    /* \"--CODEGEN--\":5:16   */\n  lt\n    /* \"--CODEGEN--\":2:4   */\n  iszero\n  tag_2\n  jumpi\n    /* \"--CODEGEN--\":29:30   */\n  0x00\n    /* \"--CODEGEN--\":26:27   */\n  dup1\n    /* \"--CODEGEN--\":19:31   */\n  revert\n    /* \"--CODEGEN--\":2:4   */\ntag_2:\n    /* \"TimeAlly.sol\":2751:3012  constructor(address _tokenAddress, address _nrtAddress) public {... */\n  dup2\n  add\n  swap1\n  dup1\n  dup1\n  mload\n  swap1\n  0x20\n  add\n  swap1\n  swap3\n  swap2\n  swap1\n  dup1\n  mload\n  swap1\n  0x20\n  add\n  swap1\n  swap3\n  swap2\n  swap1\n  pop\n  pop\n  pop\n    /* \"TimeAlly.sol\":2832:2842  msg.sender */\n  caller\n    /* \"TimeAlly.sol\":2824:2829  owner */\n  0x00\n  dup1\n    /* \"TimeAlly.sol\":2824:2842  owner = msg.sender */\n  0x0100\n  exp\n  dup2\n  sload\n  dup2\n  0xffffffffffffffffffffffffffffffffffffffff\n  mul\n  not\n  and\n  swap1\n  dup4\n  0xffffffffffffffffffffffffffffffffffffffff\n  and\n  mul\n  or\n  swap1\n  sstore\n  pop\n    /* \"TimeAlly.sol\":2868:2881  _tokenAddress */\n  dup2\n    /* \"TimeAlly.sol\":2852:2857  token */\n  0x01\n  0x00\n    /* \"TimeAlly.sol\":2852:2882  token = Eraswap(_tokenAddress) */\n  0x0100\n  exp\n  dup2\n  sload\n  dup2\n  0xffffffffffffffffffffffffffffffffffffffff\n  mul\n  not\n  and\n  swap1\n  dup4\n  0xffffffffffffffffffffffffffffffffffffffff\n  and\n  mul\n  or\n  swap1\n  sstore\n  pop\n    /* \"TimeAlly.sol\":2916:2927  _nrtAddress */\n  dup1\n    /* \"TimeAlly.sol\":2892:2902  nrtManager */\n  0x02\n  0x00\n    /* \"TimeAlly.sol\":2892:2928  nrtManager = NRTManager(_nrtAddress) */\n  0x0100\n  exp\n  dup2\n  sload\n  dup2\n  0xffffffffffffffffffffffffffffffffffffffff\n  mul\n  not\n  and\n  swap1\n  dup4\n  0xffffffffffffffffffffffffffffffffffffffff\n  and\n  mul\n  or\n  swap1\n  sstore\n  pop\n    /* \"TimeAlly.sol\":2958:2963  token */\n  0x01\n  0x00\n  swap1\n  sload\n  swap1\n  0x0100\n  exp\n  swap1\n  div\n  0xffffffffffffffffffffffffffffffffffffffff\n  and\n    /* \"TimeAlly.sol\":2958:2967  token.mou */\n  0xffffffffffffffffffffffffffffffffffffffff\n  and\n  0xb81f90f3\n    /* \"TimeAlly.sol\":2958:2969  token.mou() */\n  mload(0x40)\n  dup2\n  0xffffffff\n  and\n  0xe0\n  shl\n  dup2\n  mstore\n  0x04\n  add\n  0x20\n  mload(0x40)\n  dup1\n  dup4\n  sub\n  dup2\n  dup7\n  dup1\n  extcodesize\n  iszero\n    /* \"--CODEGEN--\":8:17   */\n  dup1\n    /* \"--CODEGEN--\":5:7   */\n  iszero\n  tag_5\n  jumpi\n    /* \"--CODEGEN--\":30:31   */\n  0x00\n    /* \"--CODEGEN--\":27:28   */\n  dup1\n    /* \"--CODEGEN--\":20:32   */\n  revert\n    /* \"--CODEGEN--\":5:7   */\ntag_5:\n    /* \"TimeAlly.sol\":2958:2969  token.mou() */\n  pop\n  gas\n  staticcall\n  iszero\n    /* \"--CODEGEN--\":8:17   */\n  dup1\n    /* \"--CODEGEN--\":5:7   */\n  iszero\n  tag_6\n  jumpi\n    /* \"--CODEGEN--\":45:61   */\n  returndatasize\n    /* \"--CODEGEN--\":42:43   */\n  0x00\n    /* \"--CODEGEN--\":39:40   */\n  dup1\n    /* \"--CODEGEN--\":24:62   */\n  returndatacopy\n    /* \"--CODEGEN--\":77:93   */\n  returndatasize\n    /* \"--CODEGEN--\":74:75   */\n  0x00\n    /* \"--CODEGEN--\":67:94   */\n  revert\n    /* \"--CODEGEN--\":5:7   */\ntag_6:\n    /* \"TimeAlly.sol\":2958:2969  token.mou() */\n  pop\n  pop\n  pop\n  pop\n  mload(0x40)\n  returndatasize\n    /* \"--CODEGEN--\":13:15   */\n  0x20\n    /* \"--CODEGEN--\":8:11   */\n  dup2\n    /* \"--CODEGEN--\":5:16   */\n  lt\n    /* \"--CODEGEN--\":2:4   */\n  iszero\n  tag_7\n  jumpi\n    /* \"--CODEGEN--\":29:30   */\n  0x00\n    /* \"--CODEGEN--\":26:27   */\n  dup1\n    /* \"--CODEGEN--\":19:31   */\n  revert\n    /* \"--CODEGEN--\":2:4   */\ntag_7:\n    /* \"TimeAlly.sol\":2958:2969  token.mou() */\n  dup2\n  add\n  swap1\n  dup1\n  dup1\n  mload\n  swap1\n  0x20\n  add\n  swap1\n  swap3\n  swap2\n  swap1\n  pop\n  pop\n  pop\n    /* \"TimeAlly.sol\":2938:2955  deployedTimestamp */\n  0x03\n    /* \"TimeAlly.sol\":2938:2969  deployedTimestamp = token.mou() */\n  dup2\n  swap1\n  sstore\n  pop\n    /* \"TimeAlly.sol\":2979:2997  timeAllyMonthlyNRT */\n  0x05\n    /* \"TimeAlly.sol\":3003:3004  0 */\n  0x00\n    /* \"TimeAlly.sol\":2979:3005  timeAllyMonthlyNRT.push(0) */\n  swap1\n  dup1\n    /* \"--CODEGEN--\":39:40   */\n  0x01\n    /* \"--CODEGEN--\":33:36   */\n  dup2\n    /* \"--CODEGEN--\":27:37   */\n  sload\n    /* \"--CODEGEN--\":23:41   */\n  add\n    /* \"--CODEGEN--\":57:67   */\n  dup1\n    /* \"--CODEGEN--\":52:55   */\n  dup3\n    /* \"--CODEGEN--\":45:68   */\n  sstore\n    /* \"--CODEGEN--\":79:89   */\n  dup1\n    /* \"--CODEGEN--\":72:89   */\n  swap2\n  pop\n    /* \"--CODEGEN--\":0:93   */\n  pop\n    /* \"TimeAlly.sol\":2979:3005  timeAllyMonthlyNRT.push(0) */\n  swap1\n  0x01\n  dup3\n  sub\n  swap1\n  0x00\n  mstore\n  keccak256(0x00, 0x20)\n  add\n  0x00\n  swap1\n  swap2\n  swap3\n  swap1\n  swap2\n  swap1\n  swap2\n  pop\n  sstore\n  pop\n    /* \"TimeAlly.sol\":2751:3012  constructor(address _tokenAddress, address _nrtAddress) public {... */\n  pop\n  pop\n    /* \"TimeAlly.sol\":245:23552  contract TimeAlly {... */\n  dataSize(sub_0)\n  dup1\n  dataOffset(sub_0)\n  0x00\n  codecopy\n  0x00\n  return\nstop\n\nsub_0: assembly {\n        /* \"TimeAlly.sol\":245:23552  contract TimeAlly {... */\n      mstore(0x40, 0x80)\n      callvalue\n        /* \"--CODEGEN--\":8:17   */\n      dup1\n        /* \"--CODEGEN--\":5:7   */\n      iszero\n      tag_1\n      jumpi\n        /* \"--CODEGEN--\":30:31   */\n      0x00\n        /* \"--CODEGEN--\":27:28   */\n      dup1\n        /* \"--CODEGEN--\":20:32   */\n      revert\n        /* \"--CODEGEN--\":5:7   */\n    tag_1:\n        /* \"TimeAlly.sol\":245:23552  contract TimeAlly {... */\n      pop\n      jumpi(tag_2, lt(calldatasize, 0x04))\n      shr(0xe0, calldataload(0x00))\n      dup1\n      0x82f97857\n      gt\n      tag_40\n      jumpi\n      dup1\n      0xd0e32681\n      gt\n      tag_41\n      jumpi\n      dup1\n      0xe6bbe424\n      gt\n      tag_42\n      jumpi\n      dup1\n      0xe6bbe424\n      eq\n      tag_35\n      jumpi\n      dup1\n      0xe78c81c4\n      eq\n      tag_36\n      jumpi\n      dup1\n      0xe83f7843\n      eq\n      tag_37\n      jumpi\n      dup1\n      0xeb12f7f5\n      eq\n      tag_38\n      jumpi\n      dup1\n      0xfc0c546a\n      eq\n      tag_39\n      jumpi\n      jump(tag_2)\n    tag_42:\n      dup1\n      0xd0e32681\n      eq\n      tag_30\n      jumpi\n      dup1\n      0xda9d8aa0\n      eq\n      tag_31\n      jumpi\n      dup1\n      0xddd1b67e\n      eq\n      tag_32\n      jumpi\n      dup1\n      0xdea6cf43\n      eq\n      tag_33\n      jumpi\n      dup1\n      0xe5fd04e6\n      eq\n      tag_34\n      jumpi\n      jump(tag_2)\n    tag_41:\n      dup1\n      0x9ab0388b\n      gt\n      tag_43\n      jumpi\n      dup1\n      0x9ab0388b\n      eq\n      tag_25\n      jumpi\n      dup1\n      0xad998fa0\n      eq\n      tag_26\n      jumpi\n      dup1\n      0xbe4ad9c3\n      eq\n      tag_27\n      jumpi\n      dup1\n      0xc71d5d58\n      eq\n      tag_28\n      jumpi\n      dup1\n      0xcc44a2fd\n      eq\n      tag_29\n      jumpi\n      jump(tag_2)\n    tag_43:\n      dup1\n      0x82f97857\n      eq\n      tag_21\n      jumpi\n      dup1\n      0x8da5cb5b\n      eq\n      tag_22\n      jumpi\n      dup1\n      0x97a332d8\n      eq\n      tag_23\n      jumpi\n      dup1\n      0x98c61c37\n      eq\n      tag_24\n      jumpi\n      jump(tag_2)\n    tag_40:\n      dup1\n      0x46a4d6e3\n      gt\n      tag_44\n      jumpi\n      dup1\n      0x582e7e9e\n      gt\n      tag_45\n      jumpi\n      dup1\n      0x582e7e9e\n      eq\n      tag_16\n      jumpi\n      dup1\n      0x59dcc8c5\n      eq\n      tag_17\n      jumpi\n      dup1\n      0x757cbe00\n      eq\n      tag_18\n      jumpi\n      dup1\n      0x762e7a34\n      eq\n      tag_19\n      jumpi\n      dup1\n      0x7acab857\n      eq\n      tag_20\n      jumpi\n      jump(tag_2)\n    tag_45:\n      dup1\n      0x46a4d6e3\n      eq\n      tag_12\n      jumpi\n      dup1\n      0x497ec40f\n      eq\n      tag_13\n      jumpi\n      dup1\n      0x4ec0692c\n      eq\n      tag_14\n      jumpi\n      dup1\n      0x53fcb2f3\n      eq\n      tag_15\n      jumpi\n      jump(tag_2)\n    tag_44:\n      dup1\n      0x23a15e6b\n      gt\n      tag_46\n      jumpi\n      dup1\n      0x23a15e6b\n      eq\n      tag_7\n      jumpi\n      dup1\n      0x2f3b59ea\n      eq\n      tag_8\n      jumpi\n      dup1\n      0x35f406ab\n      eq\n      tag_9\n      jumpi\n      dup1\n      0x3d5d6b5a\n      eq\n      tag_10\n      jumpi\n      dup1\n      0x41927861\n      eq\n      tag_11\n      jumpi\n      jump(tag_2)\n    tag_46:\n      dup1\n      0x070b8195\n      eq\n      tag_3\n      jumpi\n      dup1\n      0x0df5202f\n      eq\n      tag_4\n      jumpi\n      dup1\n      0x1849d8ea\n      eq\n      tag_5\n      jumpi\n      dup1\n      0x217d65fb\n      eq\n      tag_6\n      jumpi\n    tag_2:\n      0x00\n      dup1\n      revert\n        /* \"TimeAlly.sol\":1714:1747  uint256 public launchRewardBucket */\n    tag_3:\n      tag_47\n      tag_48\n      jump\t// in\n    tag_47:\n      mload(0x40)\n      dup1\n      dup3\n      dup2\n      mstore\n      0x20\n      add\n      swap2\n      pop\n      pop\n      mload(0x40)\n      dup1\n      swap2\n      sub\n      swap1\n      return\n        /* \"TimeAlly.sol\":1080:1108  NRTManager public nrtManager */\n    tag_4:\n      tag_49\n      tag_50\n      jump\t// in\n    tag_49:\n      mload(0x40)\n      dup1\n      dup3\n      0xffffffffffffffffffffffffffffffffffffffff\n      and\n      0xffffffffffffffffffffffffffffffffffffffff\n      and\n      dup2\n      mstore\n      0x20\n      add\n      swap2\n      pop\n      pop\n      mload(0x40)\n      dup1\n      swap2\n      sub\n      swap1\n      return\n        /* \"TimeAlly.sol\":1491:1536  mapping(address => Staking[]) public stakings */\n    tag_5:\n      tag_51\n      0x04\n      dup1\n      calldatasize\n      sub\n        /* \"--CODEGEN--\":13:15   */\n      0x40\n        /* \"--CODEGEN--\":8:11   */\n      dup2\n        /* \"--CODEGEN--\":5:16   */\n      lt\n        /* \"--CODEGEN--\":2:4   */\n      iszero\n      tag_52\n      jumpi\n        /* \"--CODEGEN--\":29:30   */\n      0x00\n        /* \"--CODEGEN--\":26:27   */\n      dup1\n        /* \"--CODEGEN--\":19:31   */\n      revert\n        /* \"--CODEGEN--\":2:4   */\n    tag_52:\n        /* \"TimeAlly.sol\":1491:1536  mapping(address => Staking[]) public stakings */\n      dup2\n      add\n      swap1\n      dup1\n      dup1\n      calldataload\n      0xffffffffffffffffffffffffffffffffffffffff\n      and\n      swap1\n      0x20\n      add\n      swap1\n      swap3\n      swap2\n      swap1\n      dup1\n      calldataload\n      swap1\n      0x20\n      add\n      swap1\n      swap3\n      swap2\n      swap1\n      pop\n      pop\n      pop\n      tag_53\n      jump\t// in\n    tag_51:\n      mload(0x40)\n      dup1\n      dup10\n      dup2\n      mstore\n      0x20\n      add\n      dup9\n      dup2\n      mstore\n      0x20\n      add\n      dup8\n      dup2\n      mstore\n      0x20\n      add\n      dup7\n      dup2\n      mstore\n      0x20\n      add\n      dup6\n      dup2\n      mstore\n      0x20\n      add\n      dup5\n      dup2\n      mstore\n      0x20\n      add\n      dup4\n      dup2\n      mstore\n      0x20\n      add\n      dup3\n      dup2\n      mstore\n      0x20\n      add\n      swap9\n      pop\n      pop\n      pop\n      pop\n      pop\n      pop\n      pop\n      pop\n      pop\n      mload(0x40)\n      dup1\n      swap2\n      sub\n      swap1\n      return\n        /* \"TimeAlly.sol\":16493:17752  function withdrawCancelStaking(uint256 _stakingId) public {... */\n    tag_6:\n      tag_54\n      0x04\n      dup1\n      calldatasize\n      sub\n        /* \"--CODEGEN--\":13:15   */\n      0x20\n        /* \"--CODEGEN--\":8:11   */\n      dup2\n        /* \"--CODEGEN--\":5:16   */\n      lt\n        /* \"--CODEGEN--\":2:4   */\n      iszero\n      tag_55\n      jumpi\n        /* \"--CODEGEN--\":29:30   */\n      0x00\n        /* \"--CODEGEN--\":26:27   */\n      dup1\n        /* \"--CODEGEN--\":19:31   */\n      revert\n        /* \"--CODEGEN--\":2:4   */\n    tag_55:\n        /* \"TimeAlly.sol\":16493:17752  function withdrawCancelStaking(uint256 _stakingId) public {... */\n      dup2\n      add\n      swap1\n      dup1\n      dup1\n      calldataload\n      swap1\n      0x20\n      add\n      swap1\n      swap3\n      swap2\n      swap1\n      pop\n      pop\n      pop\n      tag_56\n      jump\t// in\n    tag_54:\n      stop\n        /* \"TimeAlly.sol\":1239:1274  uint256[] public timeAllyMonthlyNRT */\n    tag_7:\n      tag_57\n      0x04\n      dup1\n      calldatasize\n      sub\n        /* \"--CODEGEN--\":13:15   */\n      0x20\n        /* \"--CODEGEN--\":8:11   */\n      dup2\n        /* \"--CODEGEN--\":5:16   */\n      lt\n        /* \"--CODEGEN--\":2:4   */\n      iszero\n      tag_58\n      jumpi\n        /* \"--CODEGEN--\":29:30   */\n      0x00\n        /* \"--CODEGEN--\":26:27   */\n      dup1\n        /* \"--CODEGEN--\":19:31   */\n      revert\n        /* \"--CODEGEN--\":2:4   */\n    tag_58:\n        /* \"TimeAlly.sol\":1239:1274  uint256[] public timeAllyMonthlyNRT */\n      dup2\n      add\n      swap1\n      dup1\n      dup1\n      calldataload\n      swap1\n      0x20\n      add\n      swap1\n      swap3\n      swap2\n      swap1\n      pop\n      pop\n      pop\n      tag_59\n      jump\t// in\n    tag_57:\n      mload(0x40)\n      dup1\n      dup3\n      dup2\n      mstore\n      0x20\n      add\n      swap2\n      pop\n      pop\n      mload(0x40)\n      dup1\n      swap2\n      sub\n      swap1\n      return\n        /* \"TimeAlly.sol\":10571:11824  function seeShareForUserByMonth(address _userAddress, uint256 _atMonth) public view returns (uint256) {... */\n    tag_8:\n      tag_60\n      0x04\n      dup1\n      calldatasize\n      sub\n        /* \"--CODEGEN--\":13:15   */\n      0x40\n        /* \"--CODEGEN--\":8:11   */\n      dup2\n        /* \"--CODEGEN--\":5:16   */\n      lt\n        /* \"--CODEGEN--\":2:4   */\n      iszero\n      tag_61\n      jumpi\n        /* \"--CODEGEN--\":29:30   */\n      0x00\n        /* \"--CODEGEN--\":26:27   */\n      dup1\n        /* \"--CODEGEN--\":19:31   */\n      revert\n        /* \"--CODEGEN--\":2:4   */\n    tag_61:\n        /* \"TimeAlly.sol\":10571:11824  function seeShareForUserByMonth(address _userAddress, uint256 _atMonth) public view returns (uint256) {... */\n      dup2\n      add\n      swap1\n      dup1\n      dup1\n      calldataload\n      0xffffffffffffffffffffffffffffffffffffffff\n      and\n      swap1\n      0x20\n      add\n      swap1\n      swap3\n      swap2\n      swap1\n      dup1\n      calldataload\n      swap1\n      0x20\n      add\n      swap1\n      swap3\n      swap2\n      swap1\n      pop\n      pop\n      pop\n      tag_62\n      jump\t// in\n    tag_60:\n      mload(0x40)\n      dup1\n      dup3\n      dup2\n      mstore\n      0x20\n      add\n      swap2\n      pop\n      pop\n      mload(0x40)\n      dup1\n      swap2\n      sub\n      swap1\n      return\n        /* \"TimeAlly.sol\":11830:14420  function withdrawShareForUserByMonth(uint256 _atMonth, uint256 _accruedPercentage, bool _stakeAccruedNow, uint256 _accruedsStakingPlan) public {... */\n    tag_9:\n      tag_63\n      0x04\n      dup1\n      calldatasize\n      sub\n        /* \"--CODEGEN--\":13:16   */\n      0x80\n        /* \"--CODEGEN--\":8:11   */\n      dup2\n        /* \"--CODEGEN--\":5:17   */\n      lt\n        /* \"--CODEGEN--\":2:4   */\n      iszero\n      tag_64\n      jumpi\n        /* \"--CODEGEN--\":30:31   */\n      0x00\n        /* \"--CODEGEN--\":27:28   */\n      dup1\n        /* \"--CODEGEN--\":20:32   */\n      revert\n        /* \"--CODEGEN--\":2:4   */\n    tag_64:\n        /* \"TimeAlly.sol\":11830:14420  function withdrawShareForUserByMonth(uint256 _atMonth, uint256 _accruedPercentage, bool _stakeAccruedNow, uint256 _accruedsStakingPlan) public {... */\n      dup2\n      add\n      swap1\n      dup1\n      dup1\n      calldataload\n      swap1\n      0x20\n      add\n      swap1\n      swap3\n      swap2\n      swap1\n      dup1\n      calldataload\n      swap1\n      0x20\n      add\n      swap1\n      swap3\n      swap2\n      swap1\n      dup1\n      calldataload\n      iszero\n      iszero\n      swap1\n      0x20\n      add\n      swap1\n      swap3\n      swap2\n      swap1\n      dup1\n      calldataload\n      swap1\n      0x20\n      add\n      swap1\n      swap3\n      swap2\n      swap1\n      pop\n      pop\n      pop\n      tag_65\n      jump\t// in\n    tag_63:\n      stop\n        /* \"TimeAlly.sol\":14426:14826  function restakeAccrued(uint256 _stakingId, uint256 _stakingPlanId) public {... */\n    tag_10:\n      tag_66\n      0x04\n      dup1\n      calldatasize\n      sub\n        /* \"--CODEGEN--\":13:15   */\n      0x40\n        /* \"--CODEGEN--\":8:11   */\n      dup2\n        /* \"--CODEGEN--\":5:16   */\n      lt\n        /* \"--CODEGEN--\":2:4   */\n      iszero\n      tag_67\n      jumpi\n        /* \"--CODEGEN--\":29:30   */\n      0x00\n        /* \"--CODEGEN--\":26:27   */\n      dup1\n        /* \"--CODEGEN--\":19:31   */\n      revert\n        /* \"--CODEGEN--\":2:4   */\n    tag_67:\n        /* \"TimeAlly.sol\":14426:14826  function restakeAccrued(uint256 _stakingId, uint256 _stakingPlanId) public {... */\n      dup2\n      add\n      swap1\n      dup1\n      dup1\n      calldataload\n      swap1\n      0x20\n      add\n      swap1\n      swap3\n      swap2\n      swap1\n      dup1\n      calldataload\n      swap1\n      0x20\n      add\n      swap1\n      swap3\n      swap2\n      swap1\n      pop\n      pop\n      pop\n      tag_68\n      jump\t// in\n    tag_66:\n      stop\n        /* \"TimeAlly.sol\":9501:10564  function userEffectiveStakingByMonth(address _userAddress, uint256 _atMonth) public view returns (uint256) {... */\n    tag_11:\n      tag_69\n      0x04\n      dup1\n      calldatasize\n      sub\n        /* \"--CODEGEN--\":13:15   */\n      0x40\n        /* \"--CODEGEN--\":8:11   */\n      dup2\n        /* \"--CODEGEN--\":5:16   */\n      lt\n        /* \"--CODEGEN--\":2:4   */\n      iszero\n      tag_70\n      jumpi\n        /* \"--CODEGEN--\":29:30   */\n      0x00\n        /* \"--CODEGEN--\":26:27   */\n      dup1\n        /* \"--CODEGEN--\":19:31   */\n      revert\n        /* \"--CODEGEN--\":2:4   */\n    tag_70:\n        /* \"TimeAlly.sol\":9501:10564  function userEffectiveStakingByMonth(address _userAddress, uint256 _atMonth) public view returns (uint256) {... */\n      dup2\n      add\n      swap1\n      dup1\n      dup1\n      calldataload\n      0xffffffffffffffffffffffffffffffffffffffff\n      and\n      swap1\n      0x20\n      add\n      swap1\n      swap3\n      swap2\n      swap1\n      dup1\n      calldataload\n      swap1\n      0x20\n      add\n      swap1\n      swap3\n      swap2\n      swap1\n      pop\n      pop\n      pop\n      tag_71\n      jump\t// in\n    tag_69:\n      mload(0x40)\n      dup1\n      dup3\n      dup2\n      mstore\n      0x20\n      add\n      swap2\n      pop\n      pop\n      mload(0x40)\n      dup1\n      swap2\n      sub\n      swap1\n      return\n        /* \"TimeAlly.sol\":5028:5579  function viewStaking(... */\n    tag_12:\n      tag_72\n      0x04\n      dup1\n      calldatasize\n      sub\n        /* \"--CODEGEN--\":13:15   */\n      0x40\n        /* \"--CODEGEN--\":8:11   */\n      dup2\n        /* \"--CODEGEN--\":5:16   */\n      lt\n        /* \"--CODEGEN--\":2:4   */\n      iszero\n      tag_73\n      jumpi\n        /* \"--CODEGEN--\":29:30   */\n      0x00\n        /* \"--CODEGEN--\":26:27   */\n      dup1\n        /* \"--CODEGEN--\":19:31   */\n      revert\n        /* \"--CODEGEN--\":2:4   */\n    tag_73:\n        /* \"TimeAlly.sol\":5028:5579  function viewStaking(... */\n      dup2\n      add\n      swap1\n      dup1\n      dup1\n      calldataload\n      0xffffffffffffffffffffffffffffffffffffffff\n      and\n      swap1\n      0x20\n      add\n      swap1\n      swap3\n      swap2\n      swap1\n      dup1\n      calldataload\n      swap1\n      0x20\n      add\n      swap1\n      swap3\n      swap2\n      swap1\n      pop\n      pop\n      pop\n      tag_74\n      jump\t// in\n    tag_72:\n      mload(0x40)\n      dup1\n      dup8\n      dup2\n      mstore\n      0x20\n      add\n      dup7\n      dup2\n      mstore\n      0x20\n      add\n      dup6\n      dup2\n      mstore\n      0x20\n      add\n      dup5\n      dup2\n      mstore\n      0x20\n      add\n      dup4\n      dup2\n      mstore\n      0x20\n      add\n      dup3\n      dup2\n      mstore\n      0x20\n      add\n      swap7\n      pop\n      pop\n      pop\n      pop\n      pop\n      pop\n      pop\n      mload(0x40)\n      dup1\n      swap2\n      sub\n      swap1\n      return\n        /* \"TimeAlly.sol\":17758:17874  function timeAllyMonthlyNRTArray() public view returns (uint256[] memory) {... */\n    tag_13:\n      tag_75\n      tag_76\n      jump\t// in\n    tag_75:\n      mload(0x40)\n      dup1\n      dup1\n      0x20\n      add\n      dup3\n      dup2\n      sub\n      dup3\n      mstore\n      dup4\n      dup2\n      dup2\n      mload\n      dup2\n      mstore\n      0x20\n      add\n      swap2\n      pop\n      dup1\n      mload\n      swap1\n      0x20\n      add\n      swap1\n      0x20\n      mul\n      dup1\n      dup4\n      dup4\n        /* \"--CODEGEN--\":23:24   */\n      0x00\n        /* \"--CODEGEN--\":8:108   */\n    tag_77:\n        /* \"--CODEGEN--\":33:36   */\n      dup4\n        /* \"--CODEGEN--\":30:31   */\n      dup2\n        /* \"--CODEGEN--\":27:37   */\n      lt\n        /* \"--CODEGEN--\":8:108   */\n      iszero\n      tag_79\n      jumpi\n        /* \"--CODEGEN--\":99:100   */\n      dup1\n        /* \"--CODEGEN--\":94:97   */\n      dup3\n        /* \"--CODEGEN--\":90:101   */\n      add\n        /* \"--CODEGEN--\":84:102   */\n      mload\n        /* \"--CODEGEN--\":80:81   */\n      dup2\n        /* \"--CODEGEN--\":75:78   */\n      dup5\n        /* \"--CODEGEN--\":71:82   */\n      add\n        /* \"--CODEGEN--\":64:103   */\n      mstore\n        /* \"--CODEGEN--\":52:54   */\n      0x20\n        /* \"--CODEGEN--\":49:50   */\n      dup2\n        /* \"--CODEGEN--\":45:55   */\n      add\n        /* \"--CODEGEN--\":40:55   */\n      swap1\n      pop\n        /* \"--CODEGEN--\":8:108   */\n      jump(tag_77)\n    tag_79:\n        /* \"--CODEGEN--\":12:26   */\n      pop\n        /* \"TimeAlly.sol\":17758:17874  function timeAllyMonthlyNRTArray() public view returns (uint256[] memory) {... */\n      pop\n      pop\n      pop\n      swap1\n      pop\n      add\n      swap3\n      pop\n      pop\n      pop\n      mload(0x40)\n      dup1\n      swap2\n      sub\n      swap1\n      return\n        /* \"TimeAlly.sol\":1652:1707  mapping (uint256 => uint256) public totalActiveStakings */\n    tag_14:\n      tag_80\n      0x04\n      dup1\n      calldatasize\n      sub\n        /* \"--CODEGEN--\":13:15   */\n      0x20\n        /* \"--CODEGEN--\":8:11   */\n      dup2\n        /* \"--CODEGEN--\":5:16   */\n      lt\n        /* \"--CODEGEN--\":2:4   */\n      iszero\n      tag_81\n      jumpi\n        /* \"--CODEGEN--\":29:30   */\n      0x00\n        /* \"--CODEGEN--\":26:27   */\n      dup1\n        /* \"--CODEGEN--\":19:31   */\n      revert\n        /* \"--CODEGEN--\":2:4   */\n    tag_81:\n        /* \"TimeAlly.sol\":1652:1707  mapping (uint256 => uint256) public totalActiveStakings */\n      dup2\n      add\n      swap1\n      dup1\n      dup1\n      calldataload\n      swap1\n      0x20\n      add\n      swap1\n      swap3\n      swap2\n      swap1\n      pop\n      pop\n      pop\n      tag_82\n      jump\t// in\n    tag_80:\n      mload(0x40)\n      dup1\n      dup3\n      dup2\n      mstore\n      0x20\n      add\n      swap2\n      pop\n      pop\n      mload(0x40)\n      dup1\n      swap2\n      sub\n      swap1\n      return\n        /* \"TimeAlly.sol\":5585:5803  function topupRewardBucket(uint256 _exaEsAmount) public onlyOwner {... */\n    tag_15:\n      tag_83\n      0x04\n      dup1\n      calldatasize\n      sub\n        /* \"--CODEGEN--\":13:15   */\n      0x20\n        /* \"--CODEGEN--\":8:11   */\n      dup2\n        /* \"--CODEGEN--\":5:16   */\n      lt\n        /* \"--CODEGEN--\":2:4   */\n      iszero\n      tag_84\n      jumpi\n        /* \"--CODEGEN--\":29:30   */\n      0x00\n        /* \"--CODEGEN--\":26:27   */\n      dup1\n        /* \"--CODEGEN--\":19:31   */\n      revert\n        /* \"--CODEGEN--\":2:4   */\n    tag_84:\n        /* \"TimeAlly.sol\":5585:5803  function topupRewardBucket(uint256 _exaEsAmount) public onlyOwner {... */\n      dup2\n      add\n      swap1\n      dup1\n      dup1\n      calldataload\n      swap1\n      0x20\n      add\n      swap1\n      swap3\n      swap2\n      swap1\n      pop\n      pop\n      pop\n      tag_85\n      jump\t// in\n    tag_83:\n      stop\n        /* \"TimeAlly.sol\":1153:1197  uint256 public earthSecondsInMonth = 2629744 */\n    tag_16:\n      tag_86\n      tag_87\n      jump\t// in\n    tag_86:\n      mload(0x40)\n      dup1\n      dup3\n      dup2\n      mstore\n      0x20\n      add\n      swap2\n      pop\n      pop\n      mload(0x40)\n      dup1\n      swap2\n      sub\n      swap1\n      return\n        /* \"TimeAlly.sol\":5809:6137  function giveLaunchReward(address[] memory _addresses, uint256 _exaEsAmount) public onlyOwner {... */\n    tag_17:\n      tag_88\n      0x04\n      dup1\n      calldatasize\n      sub\n        /* \"--CODEGEN--\":13:15   */\n      0x40\n        /* \"--CODEGEN--\":8:11   */\n      dup2\n        /* \"--CODEGEN--\":5:16   */\n      lt\n        /* \"--CODEGEN--\":2:4   */\n      iszero\n      tag_89\n      jumpi\n        /* \"--CODEGEN--\":29:30   */\n      0x00\n        /* \"--CODEGEN--\":26:27   */\n      dup1\n        /* \"--CODEGEN--\":19:31   */\n      revert\n        /* \"--CODEGEN--\":2:4   */\n    tag_89:\n        /* \"TimeAlly.sol\":5809:6137  function giveLaunchReward(address[] memory _addresses, uint256 _exaEsAmount) public onlyOwner {... */\n      dup2\n      add\n      swap1\n      dup1\n      dup1\n      calldataload\n      swap1\n      0x20\n      add\n      swap1\n        /* \"--CODEGEN--\":21:32   */\n      0x0100000000\n        /* \"--CODEGEN--\":8:19   */\n      dup2\n        /* \"--CODEGEN--\":5:33   */\n      gt\n        /* \"--CODEGEN--\":2:4   */\n      iszero\n      tag_90\n      jumpi\n        /* \"--CODEGEN--\":46:47   */\n      0x00\n        /* \"--CODEGEN--\":43:44   */\n      dup1\n        /* \"--CODEGEN--\":36:48   */\n      revert\n        /* \"--CODEGEN--\":2:4   */\n    tag_90:\n        /* \"TimeAlly.sol\":5809:6137  function giveLaunchReward(address[] memory _addresses, uint256 _exaEsAmount) public onlyOwner {... */\n      dup3\n      add\n        /* \"--CODEGEN--\":35:44   */\n      dup4\n        /* \"--CODEGEN--\":28:32   */\n      0x20\n        /* \"--CODEGEN--\":12:26   */\n      dup3\n        /* \"--CODEGEN--\":8:33   */\n      add\n        /* \"--CODEGEN--\":5:45   */\n      gt\n        /* \"--CODEGEN--\":2:4   */\n      iszero\n      tag_91\n      jumpi\n        /* \"--CODEGEN--\":58:59   */\n      0x00\n        /* \"--CODEGEN--\":55:56   */\n      dup1\n        /* \"--CODEGEN--\":48:60   */\n      revert\n        /* \"--CODEGEN--\":2:4   */\n    tag_91:\n        /* \"TimeAlly.sol\":5809:6137  function giveLaunchReward(address[] memory _addresses, uint256 _exaEsAmount) public onlyOwner {... */\n      dup1\n      calldataload\n      swap1\n      0x20\n      add\n      swap2\n        /* \"--CODEGEN--\":101:110   */\n      dup5\n        /* \"--CODEGEN--\":95:97   */\n      0x20\n        /* \"--CODEGEN--\":81:93   */\n      dup4\n        /* \"--CODEGEN--\":77:98   */\n      mul\n        /* \"--CODEGEN--\":67:75   */\n      dup5\n        /* \"--CODEGEN--\":63:99   */\n      add\n        /* \"--CODEGEN--\":60:111   */\n      gt\n        /* \"--CODEGEN--\":39:50   */\n      0x0100000000\n        /* \"--CODEGEN--\":25:37   */\n      dup4\n        /* \"--CODEGEN--\":22:51   */\n      gt\n        /* \"--CODEGEN--\":11:119   */\n      or\n        /* \"--CODEGEN--\":8:10   */\n      iszero\n      tag_92\n      jumpi\n        /* \"--CODEGEN--\":132:133   */\n      0x00\n        /* \"--CODEGEN--\":129:130   */\n      dup1\n        /* \"--CODEGEN--\":122:134   */\n      revert\n        /* \"--CODEGEN--\":8:10   */\n    tag_92:\n        /* \"TimeAlly.sol\":5809:6137  function giveLaunchReward(address[] memory _addresses, uint256 _exaEsAmount) public onlyOwner {... */\n      swap2\n      swap1\n      dup1\n      dup1\n      0x20\n      mul\n      0x20\n      add\n      mload(0x40)\n      swap1\n      dup2\n      add\n      0x40\n      mstore\n      dup1\n      swap4\n      swap3\n      swap2\n      swap1\n      dup2\n      dup2\n      mstore\n      0x20\n      add\n      dup4\n      dup4\n      0x20\n      mul\n        /* \"--CODEGEN--\":30:33   */\n      dup1\n        /* \"--CODEGEN--\":22:28   */\n      dup3\n        /* \"--CODEGEN--\":14:20   */\n      dup5\n        /* \"--CODEGEN--\":1:34   */\n      calldatacopy\n        /* \"--CODEGEN--\":99:100   */\n      0x00\n        /* \"--CODEGEN--\":93:96   */\n      dup2\n        /* \"--CODEGEN--\":85:91   */\n      dup5\n        /* \"--CODEGEN--\":81:97   */\n      add\n        /* \"--CODEGEN--\":74:101   */\n      mstore\n        /* \"--CODEGEN--\":137:141   */\n      0x1f\n        /* \"--CODEGEN--\":133:142   */\n      not\n        /* \"--CODEGEN--\":126:130   */\n      0x1f\n        /* \"--CODEGEN--\":121:124   */\n      dup3\n        /* \"--CODEGEN--\":117:131   */\n      add\n        /* \"--CODEGEN--\":113:143   */\n      and\n        /* \"--CODEGEN--\":106:143   */\n      swap1\n      pop\n        /* \"--CODEGEN--\":169:172   */\n      dup1\n        /* \"--CODEGEN--\":161:167   */\n      dup4\n        /* \"--CODEGEN--\":157:173   */\n      add\n        /* \"--CODEGEN--\":147:173   */\n      swap3\n      pop\n        /* \"TimeAlly.sol\":5809:6137  function giveLaunchReward(address[] memory _addresses, uint256 _exaEsAmount) public onlyOwner {... */\n      pop\n      pop\n      pop\n      pop\n      pop\n      pop\n      swap2\n      swap3\n      swap2\n      swap3\n      swap1\n      dup1\n      calldataload\n      swap1\n      0x20\n      add\n      swap1\n      swap3\n      swap2\n      swap1\n      pop\n      pop\n      pop\n      tag_93\n      jump\t// in\n    tag_88:\n      stop\n        /* \"TimeAlly.sol\":6143:6497  function giveLaunchRewardSeperate(address[] memory _addresses, uint256[] memory _exaEsAmounts) public onlyOwner {... */\n    tag_18:\n      tag_94\n      0x04\n      dup1\n      calldatasize\n      sub\n        /* \"--CODEGEN--\":13:15   */\n      0x40\n        /* \"--CODEGEN--\":8:11   */\n      dup2\n        /* \"--CODEGEN--\":5:16   */\n      lt\n        /* \"--CODEGEN--\":2:4   */\n      iszero\n      tag_95\n      jumpi\n        /* \"--CODEGEN--\":29:30   */\n      0x00\n        /* \"--CODEGEN--\":26:27   */\n      dup1\n        /* \"--CODEGEN--\":19:31   */\n      revert\n        /* \"--CODEGEN--\":2:4   */\n    tag_95:\n        /* \"TimeAlly.sol\":6143:6497  function giveLaunchRewardSeperate(address[] memory _addresses, uint256[] memory _exaEsAmounts) public onlyOwner {... */\n      dup2\n      add\n      swap1\n      dup1\n      dup1\n      calldataload\n      swap1\n      0x20\n      add\n      swap1\n        /* \"--CODEGEN--\":21:32   */\n      0x0100000000\n        /* \"--CODEGEN--\":8:19   */\n      dup2\n        /* \"--CODEGEN--\":5:33   */\n      gt\n        /* \"--CODEGEN--\":2:4   */\n      iszero\n      tag_96\n      jumpi\n        /* \"--CODEGEN--\":46:47   */\n      0x00\n        /* \"--CODEGEN--\":43:44   */\n      dup1\n        /* \"--CODEGEN--\":36:48   */\n      revert\n        /* \"--CODEGEN--\":2:4   */\n    tag_96:\n        /* \"TimeAlly.sol\":6143:6497  function giveLaunchRewardSeperate(address[] memory _addresses, uint256[] memory _exaEsAmounts) public onlyOwner {... */\n      dup3\n      add\n        /* \"--CODEGEN--\":35:44   */\n      dup4\n        /* \"--CODEGEN--\":28:32   */\n      0x20\n        /* \"--CODEGEN--\":12:26   */\n      dup3\n        /* \"--CODEGEN--\":8:33   */\n      add\n        /* \"--CODEGEN--\":5:45   */\n      gt\n        /* \"--CODEGEN--\":2:4   */\n      iszero\n      tag_97\n      jumpi\n        /* \"--CODEGEN--\":58:59   */\n      0x00\n        /* \"--CODEGEN--\":55:56   */\n      dup1\n        /* \"--CODEGEN--\":48:60   */\n      revert\n        /* \"--CODEGEN--\":2:4   */\n    tag_97:\n        /* \"TimeAlly.sol\":6143:6497  function giveLaunchRewardSeperate(address[] memory _addresses, uint256[] memory _exaEsAmounts) public onlyOwner {... */\n      dup1\n      calldataload\n      swap1\n      0x20\n      add\n      swap2\n        /* \"--CODEGEN--\":101:110   */\n      dup5\n        /* \"--CODEGEN--\":95:97   */\n      0x20\n        /* \"--CODEGEN--\":81:93   */\n      dup4\n        /* \"--CODEGEN--\":77:98   */\n      mul\n        /* \"--CODEGEN--\":67:75   */\n      dup5\n        /* \"--CODEGEN--\":63:99   */\n      add\n        /* \"--CODEGEN--\":60:111   */\n      gt\n        /* \"--CODEGEN--\":39:50   */\n      0x0100000000\n        /* \"--CODEGEN--\":25:37   */\n      dup4\n        /* \"--CODEGEN--\":22:51   */\n      gt\n        /* \"--CODEGEN--\":11:119   */\n      or\n        /* \"--CODEGEN--\":8:10   */\n      iszero\n      tag_98\n      jumpi\n        /* \"--CODEGEN--\":132:133   */\n      0x00\n        /* \"--CODEGEN--\":129:130   */\n      dup1\n        /* \"--CODEGEN--\":122:134   */\n      revert\n        /* \"--CODEGEN--\":8:10   */\n    tag_98:\n        /* \"TimeAlly.sol\":6143:6497  function giveLaunchRewardSeperate(address[] memory _addresses, uint256[] memory _exaEsAmounts) public onlyOwner {... */\n      swap2\n      swap1\n      dup1\n      dup1\n      0x20\n      mul\n      0x20\n      add\n      mload(0x40)\n      swap1\n      dup2\n      add\n      0x40\n      mstore\n      dup1\n      swap4\n      swap3\n      swap2\n      swap1\n      dup2\n      dup2\n      mstore\n      0x20\n      add\n      dup4\n      dup4\n      0x20\n      mul\n        /* \"--CODEGEN--\":30:33   */\n      dup1\n        /* \"--CODEGEN--\":22:28   */\n      dup3\n        /* \"--CODEGEN--\":14:20   */\n      dup5\n        /* \"--CODEGEN--\":1:34   */\n      calldatacopy\n        /* \"--CODEGEN--\":99:100   */\n      0x00\n        /* \"--CODEGEN--\":93:96   */\n      dup2\n        /* \"--CODEGEN--\":85:91   */\n      dup5\n        /* \"--CODEGEN--\":81:97   */\n      add\n        /* \"--CODEGEN--\":74:101   */\n      mstore\n        /* \"--CODEGEN--\":137:141   */\n      0x1f\n        /* \"--CODEGEN--\":133:142   */\n      not\n        /* \"--CODEGEN--\":126:130   */\n      0x1f\n        /* \"--CODEGEN--\":121:124   */\n      dup3\n        /* \"--CODEGEN--\":117:131   */\n      add\n        /* \"--CODEGEN--\":113:143   */\n      and\n        /* \"--CODEGEN--\":106:143   */\n      swap1\n      pop\n        /* \"--CODEGEN--\":169:172   */\n      dup1\n        /* \"--CODEGEN--\":161:167   */\n      dup4\n        /* \"--CODEGEN--\":157:173   */\n      add\n        /* \"--CODEGEN--\":147:173   */\n      swap3\n      pop\n        /* \"TimeAlly.sol\":6143:6497  function giveLaunchRewardSeperate(address[] memory _addresses, uint256[] memory _exaEsAmounts) public onlyOwner {... */\n      pop\n      pop\n      pop\n      pop\n      pop\n      pop\n      swap2\n      swap3\n      swap2\n      swap3\n      swap1\n      dup1\n      calldataload\n      swap1\n      0x20\n      add\n      swap1\n        /* \"--CODEGEN--\":21:32   */\n      0x0100000000\n        /* \"--CODEGEN--\":8:19   */\n      dup2\n        /* \"--CODEGEN--\":5:33   */\n      gt\n        /* \"--CODEGEN--\":2:4   */\n      iszero\n      tag_99\n      jumpi\n        /* \"--CODEGEN--\":46:47   */\n      0x00\n        /* \"--CODEGEN--\":43:44   */\n      dup1\n        /* \"--CODEGEN--\":36:48   */\n      revert\n        /* \"--CODEGEN--\":2:4   */\n    tag_99:\n        /* \"TimeAlly.sol\":6143:6497  function giveLaunchRewardSeperate(address[] memory _addresses, uint256[] memory _exaEsAmounts) public onlyOwner {... */\n      dup3\n      add\n        /* \"--CODEGEN--\":35:44   */\n      dup4\n        /* \"--CODEGEN--\":28:32   */\n      0x20\n        /* \"--CODEGEN--\":12:26   */\n      dup3\n        /* \"--CODEGEN--\":8:33   */\n      add\n        /* \"--CODEGEN--\":5:45   */\n      gt\n        /* \"--CODEGEN--\":2:4   */\n      iszero\n      tag_100\n      jumpi\n        /* \"--CODEGEN--\":58:59   */\n      0x00\n        /* \"--CODEGEN--\":55:56   */\n      dup1\n        /* \"--CODEGEN--\":48:60   */\n      revert\n        /* \"--CODEGEN--\":2:4   */\n    tag_100:\n        /* \"TimeAlly.sol\":6143:6497  function giveLaunchRewardSeperate(address[] memory _addresses, uint256[] memory _exaEsAmounts) public onlyOwner {... */\n      dup1\n      calldataload\n      swap1\n      0x20\n      add\n      swap2\n        /* \"--CODEGEN--\":101:110   */\n      dup5\n        /* \"--CODEGEN--\":95:97   */\n      0x20\n        /* \"--CODEGEN--\":81:93   */\n      dup4\n        /* \"--CODEGEN--\":77:98   */\n      mul\n        /* \"--CODEGEN--\":67:75   */\n      dup5\n        /* \"--CODEGEN--\":63:99   */\n      add\n        /* \"--CODEGEN--\":60:111   */\n      gt\n        /* \"--CODEGEN--\":39:50   */\n      0x0100000000\n        /* \"--CODEGEN--\":25:37   */\n      dup4\n        /* \"--CODEGEN--\":22:51   */\n      gt\n        /* \"--CODEGEN--\":11:119   */\n      or\n        /* \"--CODEGEN--\":8:10   */\n      iszero\n      tag_101\n      jumpi\n        /* \"--CODEGEN--\":132:133   */\n      0x00\n        /* \"--CODEGEN--\":129:130   */\n      dup1\n        /* \"--CODEGEN--\":122:134   */\n      revert\n        /* \"--CODEGEN--\":8:10   */\n    tag_101:\n        /* \"TimeAlly.sol\":6143:6497  function giveLaunchRewardSeperate(address[] memory _addresses, uint256[] memory _exaEsAmounts) public onlyOwner {... */\n      swap2\n      swap1\n      dup1\n      dup1\n      0x20\n      mul\n      0x20\n      add\n      mload(0x40)\n      swap1\n      dup2\n      add\n      0x40\n      mstore\n      dup1\n      swap4\n      swap3\n      swap2\n      swap1\n      dup2\n      dup2\n      mstore\n      0x20\n      add\n      dup4\n      dup4\n      0x20\n      mul\n        /* \"--CODEGEN--\":30:33   */\n      dup1\n        /* \"--CODEGEN--\":22:28   */\n      dup3\n        /* \"--CODEGEN--\":14:20   */\n      dup5\n        /* \"--CODEGEN--\":1:34   */\n      calldatacopy\n        /* \"--CODEGEN--\":99:100   */\n      0x00\n        /* \"--CODEGEN--\":93:96   */\n      dup2\n        /* \"--CODEGEN--\":85:91   */\n      dup5\n        /* \"--CODEGEN--\":81:97   */\n      add\n        /* \"--CODEGEN--\":74:101   */\n      mstore\n        /* \"--CODEGEN--\":137:141   */\n      0x1f\n        /* \"--CODEGEN--\":133:142   */\n      not\n        /* \"--CODEGEN--\":126:130   */\n      0x1f\n        /* \"--CODEGEN--\":121:124   */\n      dup3\n        /* \"--CODEGEN--\":117:131   */\n      add\n        /* \"--CODEGEN--\":113:143   */\n      and\n        /* \"--CODEGEN--\":106:143   */\n      swap1\n      pop\n        /* \"--CODEGEN--\":169:172   */\n      dup1\n        /* \"--CODEGEN--\":161:167   */\n      dup4\n        /* \"--CODEGEN--\":157:173   */\n      add\n        /* \"--CODEGEN--\":147:173   */\n      swap3\n      pop\n        /* \"TimeAlly.sol\":6143:6497  function giveLaunchRewardSeperate(address[] memory _addresses, uint256[] memory _exaEsAmounts) public onlyOwner {... */\n      pop\n      pop\n      pop\n      pop\n      pop\n      pop\n      swap2\n      swap3\n      swap2\n      swap3\n      swap1\n      pop\n      pop\n      pop\n      tag_102\n      jump\t// in\n    tag_94:\n      stop\n        /* \"TimeAlly.sol\":1388:1421  StakingPlan[] public stakingPlans */\n    tag_19:\n      tag_103\n      0x04\n      dup1\n      calldatasize\n      sub\n        /* \"--CODEGEN--\":13:15   */\n      0x20\n        /* \"--CODEGEN--\":8:11   */\n      dup2\n        /* \"--CODEGEN--\":5:16   */\n      lt\n        /* \"--CODEGEN--\":2:4   */\n      iszero\n      tag_104\n      jumpi\n        /* \"--CODEGEN--\":29:30   */\n      0x00\n        /* \"--CODEGEN--\":26:27   */\n      dup1\n        /* \"--CODEGEN--\":19:31   */\n      revert\n        /* \"--CODEGEN--\":2:4   */\n    tag_104:\n        /* \"TimeAlly.sol\":1388:1421  StakingPlan[] public stakingPlans */\n      dup2\n      add\n      swap1\n      dup1\n      dup1\n      calldataload\n      swap1\n      0x20\n      add\n      swap1\n      swap3\n      swap2\n      swap1\n      pop\n      pop\n      pop\n      tag_105\n      jump\t// in\n    tag_103:\n      mload(0x40)\n      dup1\n      dup4\n      dup2\n      mstore\n      0x20\n      add\n      dup3\n      dup2\n      mstore\n      0x20\n      add\n      swap3\n      pop\n      pop\n      pop\n      mload(0x40)\n      dup1\n      swap2\n      sub\n      swap1\n      return\n        /* \"TimeAlly.sol\":1753:1800  mapping(address => uint256) public launchReward */\n    tag_20:\n      tag_106\n      0x04\n      dup1\n      calldatasize\n      sub\n        /* \"--CODEGEN--\":13:15   */\n      0x20\n        /* \"--CODEGEN--\":8:11   */\n      dup2\n        /* \"--CODEGEN--\":5:16   */\n      lt\n        /* \"--CODEGEN--\":2:4   */\n      iszero\n      tag_107\n      jumpi\n        /* \"--CODEGEN--\":29:30   */\n      0x00\n        /* \"--CODEGEN--\":26:27   */\n      dup1\n        /* \"--CODEGEN--\":19:31   */\n      revert\n        /* \"--CODEGEN--\":2:4   */\n    tag_107:\n        /* \"TimeAlly.sol\":1753:1800  mapping(address => uint256) public launchReward */\n      dup2\n      add\n      swap1\n      dup1\n      dup1\n      calldataload\n      0xffffffffffffffffffffffffffffffffffffffff\n      and\n      swap1\n      0x20\n      add\n      swap1\n      swap3\n      swap2\n      swap1\n      pop\n      pop\n      pop\n      tag_108\n      jump\t// in\n    tag_106:\n      mload(0x40)\n      dup1\n      dup3\n      dup2\n      mstore\n      0x20\n      add\n      swap2\n      pop\n      pop\n      mload(0x40)\n      dup1\n      swap2\n      sub\n      swap1\n      return\n        /* \"TimeAlly.sol\":3486:3690  function createLoanPlan(uint256 _loanMonths, uint256 _loanRate) public onlyOwner {... */\n    tag_21:\n      tag_109\n      0x04\n      dup1\n      calldatasize\n      sub\n        /* \"--CODEGEN--\":13:15   */\n      0x40\n        /* \"--CODEGEN--\":8:11   */\n      dup2\n        /* \"--CODEGEN--\":5:16   */\n      lt\n        /* \"--CODEGEN--\":2:4   */\n      iszero\n      tag_110\n      jumpi\n        /* \"--CODEGEN--\":29:30   */\n      0x00\n        /* \"--CODEGEN--\":26:27   */\n      dup1\n        /* \"--CODEGEN--\":19:31   */\n      revert\n        /* \"--CODEGEN--\":2:4   */\n    tag_110:\n        /* \"TimeAlly.sol\":3486:3690  function createLoanPlan(uint256 _loanMonths, uint256 _loanRate) public onlyOwner {... */\n      dup2\n      add\n      swap1\n      dup1\n      dup1\n      calldataload\n      swap1\n      0x20\n      add\n      swap1\n      swap3\n      swap2\n      swap1\n      dup1\n      calldataload\n      swap1\n      0x20\n      add\n      swap1\n      swap3\n      swap2\n      swap1\n      pop\n      pop\n      pop\n      tag_111\n      jump\t// in\n    tag_109:\n      stop\n        /* \"TimeAlly.sol\":1028:1048  address public owner */\n    tag_22:\n      tag_112\n      tag_113\n      jump\t// in\n    tag_112:\n      mload(0x40)\n      dup1\n      dup3\n      0xffffffffffffffffffffffffffffffffffffffff\n      and\n      0xffffffffffffffffffffffffffffffffffffffff\n      and\n      dup2\n      mstore\n      0x20\n      add\n      swap2\n      pop\n      pop\n      mload(0x40)\n      dup1\n      swap2\n      sub\n      swap1\n      return\n        /* \"TimeAlly.sol\":7716:8425  function isStakingActive(address _userAddress, uint256 _stakingId, uint256 _currentMonth, uint256 _atMonth) public view returns (bool) {... */\n    tag_23:\n      tag_114\n      0x04\n      dup1\n      calldatasize\n      sub\n        /* \"--CODEGEN--\":13:16   */\n      0x80\n        /* \"--CODEGEN--\":8:11   */\n      dup2\n        /* \"--CODEGEN--\":5:17   */\n      lt\n        /* \"--CODEGEN--\":2:4   */\n      iszero\n      tag_115\n      jumpi\n        /* \"--CODEGEN--\":30:31   */\n      0x00\n        /* \"--CODEGEN--\":27:28   */\n      dup1\n        /* \"--CODEGEN--\":20:32   */\n      revert\n        /* \"--CODEGEN--\":2:4   */\n    tag_115:\n        /* \"TimeAlly.sol\":7716:8425  function isStakingActive(address _userAddress, uint256 _stakingId, uint256 _currentMonth, uint256 _atMonth) public view returns (bool) {... */\n      dup2\n      add\n      swap1\n      dup1\n      dup1\n      calldataload\n      0xffffffffffffffffffffffffffffffffffffffff\n      and\n      swap1\n      0x20\n      add\n      swap1\n      swap3\n      swap2\n      swap1\n      dup1\n      calldataload\n      swap1\n      0x20\n      add\n      swap1\n      swap3\n      swap2\n      swap1\n      dup1\n      calldataload\n      swap1\n      0x20\n      add\n      swap1\n      swap3\n      swap2\n      swap1\n      dup1\n      calldataload\n      swap1\n      0x20\n      add\n      swap1\n      swap3\n      swap2\n      swap1\n      pop\n      pop\n      pop\n      tag_116\n      jump\t// in\n    tag_114:\n      mload(0x40)\n      dup1\n      dup3\n      iszero\n      iszero\n      iszero\n      iszero\n      dup2\n      mstore\n      0x20\n      add\n      swap2\n      pop\n      pop\n      mload(0x40)\n      dup1\n      swap2\n      sub\n      swap1\n      return\n        /* \"TimeAlly.sol\":1542:1581  mapping(address => Loan[]) public loans */\n    tag_24:\n      tag_117\n      0x04\n      dup1\n      calldatasize\n      sub\n        /* \"--CODEGEN--\":13:15   */\n      0x40\n        /* \"--CODEGEN--\":8:11   */\n      dup2\n        /* \"--CODEGEN--\":5:16   */\n      lt\n        /* \"--CODEGEN--\":2:4   */\n      iszero\n      tag_118\n      jumpi\n        /* \"--CODEGEN--\":29:30   */\n      0x00\n        /* \"--CODEGEN--\":26:27   */\n      dup1\n        /* \"--CODEGEN--\":19:31   */\n      revert\n        /* \"--CODEGEN--\":2:4   */\n    tag_118:\n        /* \"TimeAlly.sol\":1542:1581  mapping(address => Loan[]) public loans */\n      dup2\n      add\n      swap1\n      dup1\n      dup1\n      calldataload\n      0xffffffffffffffffffffffffffffffffffffffff\n      and\n      swap1\n      0x20\n      add\n      swap1\n      swap3\n      swap2\n      swap1\n      dup1\n      calldataload\n      swap1\n      0x20\n      add\n      swap1\n      swap3\n      swap2\n      swap1\n      pop\n      pop\n      pop\n      tag_119\n      jump\t// in\n    tag_117:\n      mload(0x40)\n      dup1\n      dup6\n      dup2\n      mstore\n      0x20\n      add\n      dup5\n      dup2\n      mstore\n      0x20\n      add\n      dup4\n      dup2\n      mstore\n      0x20\n      add\n      dup3\n      dup2\n      mstore\n      0x20\n      add\n      swap5\n      pop\n      pop\n      pop\n      pop\n      pop\n      mload(0x40)\n      dup1\n      swap2\n      sub\n      swap1\n      return\n        /* \"TimeAlly.sol\":15587:16487  function cancelStaking(uint256 _stakingId) public {... */\n    tag_25:\n      tag_120\n      0x04\n      dup1\n      calldatasize\n      sub\n        /* \"--CODEGEN--\":13:15   */\n      0x20\n        /* \"--CODEGEN--\":8:11   */\n      dup2\n        /* \"--CODEGEN--\":5:16   */\n      lt\n        /* \"--CODEGEN--\":2:4   */\n      iszero\n      tag_121\n      jumpi\n        /* \"--CODEGEN--\":29:30   */\n      0x00\n        /* \"--CODEGEN--\":26:27   */\n      dup1\n        /* \"--CODEGEN--\":19:31   */\n      revert\n        /* \"--CODEGEN--\":2:4   */\n    tag_121:\n        /* \"TimeAlly.sol\":15587:16487  function cancelStaking(uint256 _stakingId) public {... */\n      dup2\n      add\n      swap1\n      dup1\n      dup1\n      calldataload\n      swap1\n      0x20\n      add\n      swap1\n      swap3\n      swap2\n      swap1\n      pop\n      pop\n      pop\n      tag_122\n      jump\t// in\n    tag_120:\n      stop\n        /* \"TimeAlly.sol\":4853:4993  function getNumberOfStakingsByUser(address _userAddress) public view returns (uint256) {... */\n    tag_26:\n      tag_123\n      0x04\n      dup1\n      calldatasize\n      sub\n        /* \"--CODEGEN--\":13:15   */\n      0x20\n        /* \"--CODEGEN--\":8:11   */\n      dup2\n        /* \"--CODEGEN--\":5:16   */\n      lt\n        /* \"--CODEGEN--\":2:4   */\n      iszero\n      tag_124\n      jumpi\n        /* \"--CODEGEN--\":29:30   */\n      0x00\n        /* \"--CODEGEN--\":26:27   */\n      dup1\n        /* \"--CODEGEN--\":19:31   */\n      revert\n        /* \"--CODEGEN--\":2:4   */\n    tag_124:\n        /* \"TimeAlly.sol\":4853:4993  function getNumberOfStakingsByUser(address _userAddress) public view returns (uint256) {... */\n      dup2\n      add\n      swap1\n      dup1\n      dup1\n      calldataload\n      0xffffffffffffffffffffffffffffffffffffffff\n      and\n      swap1\n      0x20\n      add\n      swap1\n      swap3\n      swap2\n      swap1\n      pop\n      pop\n      pop\n      tag_125\n      jump\t// in\n    tag_123:\n      mload(0x40)\n      dup1\n      dup3\n      dup2\n      mstore\n      0x20\n      add\n      swap2\n      pop\n      pop\n      mload(0x40)\n      dup1\n      swap2\n      sub\n      swap1\n      return\n        /* \"TimeAlly.sol\":17880:18875  function seeMaxLoaningAmountOnUserStakings(address _userAddress, uint256[] memory _stakingIds) public view returns (uint256) {... */\n    tag_27:\n      tag_126\n      0x04\n      dup1\n      calldatasize\n      sub\n        /* \"--CODEGEN--\":13:15   */\n      0x40\n        /* \"--CODEGEN--\":8:11   */\n      dup2\n        /* \"--CODEGEN--\":5:16   */\n      lt\n        /* \"--CODEGEN--\":2:4   */\n      iszero\n      tag_127\n      jumpi\n        /* \"--CODEGEN--\":29:30   */\n      0x00\n        /* \"--CODEGEN--\":26:27   */\n      dup1\n        /* \"--CODEGEN--\":19:31   */\n      revert\n        /* \"--CODEGEN--\":2:4   */\n    tag_127:\n        /* \"TimeAlly.sol\":17880:18875  function seeMaxLoaningAmountOnUserStakings(address _userAddress, uint256[] memory _stakingIds) public view returns (uint256) {... */\n      dup2\n      add\n      swap1\n      dup1\n      dup1\n      calldataload\n      0xffffffffffffffffffffffffffffffffffffffff\n      and\n      swap1\n      0x20\n      add\n      swap1\n      swap3\n      swap2\n      swap1\n      dup1\n      calldataload\n      swap1\n      0x20\n      add\n      swap1\n        /* \"--CODEGEN--\":21:32   */\n      0x0100000000\n        /* \"--CODEGEN--\":8:19   */\n      dup2\n        /* \"--CODEGEN--\":5:33   */\n      gt\n        /* \"--CODEGEN--\":2:4   */\n      iszero\n      tag_128\n      jumpi\n        /* \"--CODEGEN--\":46:47   */\n      0x00\n        /* \"--CODEGEN--\":43:44   */\n      dup1\n        /* \"--CODEGEN--\":36:48   */\n      revert\n        /* \"--CODEGEN--\":2:4   */\n    tag_128:\n        /* \"TimeAlly.sol\":17880:18875  function seeMaxLoaningAmountOnUserStakings(address _userAddress, uint256[] memory _stakingIds) public view returns (uint256) {... */\n      dup3\n      add\n        /* \"--CODEGEN--\":35:44   */\n      dup4\n        /* \"--CODEGEN--\":28:32   */\n      0x20\n        /* \"--CODEGEN--\":12:26   */\n      dup3\n        /* \"--CODEGEN--\":8:33   */\n      add\n        /* \"--CODEGEN--\":5:45   */\n      gt\n        /* \"--CODEGEN--\":2:4   */\n      iszero\n      tag_129\n      jumpi\n        /* \"--CODEGEN--\":58:59   */\n      0x00\n        /* \"--CODEGEN--\":55:56   */\n      dup1\n        /* \"--CODEGEN--\":48:60   */\n      revert\n        /* \"--CODEGEN--\":2:4   */\n    tag_129:\n        /* \"TimeAlly.sol\":17880:18875  function seeMaxLoaningAmountOnUserStakings(address _userAddress, uint256[] memory _stakingIds) public view returns (uint256) {... */\n      dup1\n      calldataload\n      swap1\n      0x20\n      add\n      swap2\n        /* \"--CODEGEN--\":101:110   */\n      dup5\n        /* \"--CODEGEN--\":95:97   */\n      0x20\n        /* \"--CODEGEN--\":81:93   */\n      dup4\n        /* \"--CODEGEN--\":77:98   */\n      mul\n        /* \"--CODEGEN--\":67:75   */\n      dup5\n        /* \"--CODEGEN--\":63:99   */\n      add\n        /* \"--CODEGEN--\":60:111   */\n      gt\n        /* \"--CODEGEN--\":39:50   */\n      0x0100000000\n        /* \"--CODEGEN--\":25:37   */\n      dup4\n        /* \"--CODEGEN--\":22:51   */\n      gt\n        /* \"--CODEGEN--\":11:119   */\n      or\n        /* \"--CODEGEN--\":8:10   */\n      iszero\n      tag_130\n      jumpi\n        /* \"--CODEGEN--\":132:133   */\n      0x00\n        /* \"--CODEGEN--\":129:130   */\n      dup1\n        /* \"--CODEGEN--\":122:134   */\n      revert\n        /* \"--CODEGEN--\":8:10   */\n    tag_130:\n        /* \"TimeAlly.sol\":17880:18875  function seeMaxLoaningAmountOnUserStakings(address _userAddress, uint256[] memory _stakingIds) public view returns (uint256) {... */\n      swap2\n      swap1\n      dup1\n      dup1\n      0x20\n      mul\n      0x20\n      add\n      mload(0x40)\n      swap1\n      dup2\n      add\n      0x40\n      mstore\n      dup1\n      swap4\n      swap3\n      swap2\n      swap1\n      dup2\n      dup2\n      mstore\n      0x20\n      add\n      dup4\n      dup4\n      0x20\n      mul\n        /* \"--CODEGEN--\":30:33   */\n      dup1\n        /* \"--CODEGEN--\":22:28   */\n      dup3\n        /* \"--CODEGEN--\":14:20   */\n      dup5\n        /* \"--CODEGEN--\":1:34   */\n      calldatacopy\n        /* \"--CODEGEN--\":99:100   */\n      0x00\n        /* \"--CODEGEN--\":93:96   */\n      dup2\n        /* \"--CODEGEN--\":85:91   */\n      dup5\n        /* \"--CODEGEN--\":81:97   */\n      add\n        /* \"--CODEGEN--\":74:101   */\n      mstore\n        /* \"--CODEGEN--\":137:141   */\n      0x1f\n        /* \"--CODEGEN--\":133:142   */\n      not\n        /* \"--CODEGEN--\":126:130   */\n      0x1f\n        /* \"--CODEGEN--\":121:124   */\n      dup3\n        /* \"--CODEGEN--\":117:131   */\n      add\n        /* \"--CODEGEN--\":113:143   */\n      and\n        /* \"--CODEGEN--\":106:143   */\n      swap1\n      pop\n        /* \"--CODEGEN--\":169:172   */\n      dup1\n        /* \"--CODEGEN--\":161:167   */\n      dup4\n        /* \"--CODEGEN--\":157:173   */\n      add\n        /* \"--CODEGEN--\":147:173   */\n      swap3\n      pop\n        /* \"TimeAlly.sol\":17880:18875  function seeMaxLoaningAmountOnUserStakings(address _userAddress, uint256[] memory _stakingIds) public view returns (uint256) {... */\n      pop\n      pop\n      pop\n      pop\n      pop\n      pop\n      swap2\n      swap3\n      swap2\n      swap3\n      swap1\n      pop\n      pop\n      pop\n      tag_131\n      jump\t// in\n    tag_126:\n      mload(0x40)\n      dup1\n      dup3\n      dup2\n      mstore\n      0x20\n      add\n      swap2\n      pop\n      pop\n      mload(0x40)\n      dup1\n      swap2\n      sub\n      swap1\n      return\n        /* \"TimeAlly.sol\":3261:3480  function createStakingPlan(uint256 _months, uint256 _fractionFrom15) public onlyOwner {... */\n    tag_28:\n      tag_132\n      0x04\n      dup1\n      calldatasize\n      sub\n        /* \"--CODEGEN--\":13:15   */\n      0x40\n        /* \"--CODEGEN--\":8:11   */\n      dup2\n        /* \"--CODEGEN--\":5:16   */\n      lt\n        /* \"--CODEGEN--\":2:4   */\n      iszero\n      tag_133\n      jumpi\n        /* \"--CODEGEN--\":29:30   */\n      0x00\n        /* \"--CODEGEN--\":26:27   */\n      dup1\n        /* \"--CODEGEN--\":19:31   */\n      revert\n        /* \"--CODEGEN--\":2:4   */\n    tag_133:\n        /* \"TimeAlly.sol\":3261:3480  function createStakingPlan(uint256 _months, uint256 _fractionFrom15) public onlyOwner {... */\n      dup2\n      add\n      swap1\n      dup1\n      dup1\n      calldataload\n      swap1\n      0x20\n      add\n      swap1\n      swap3\n      swap2\n      swap1\n      dup1\n      calldataload\n      swap1\n      0x20\n      add\n      swap1\n      swap3\n      swap2\n      swap1\n      pop\n      pop\n      pop\n      tag_134\n      jump\t// in\n    tag_132:\n      stop\n        /* \"TimeAlly.sol\":1427:1454  LoanPlan[] public loanPlans */\n    tag_29:\n      tag_135\n      0x04\n      dup1\n      calldatasize\n      sub\n        /* \"--CODEGEN--\":13:15   */\n      0x20\n        /* \"--CODEGEN--\":8:11   */\n      dup2\n        /* \"--CODEGEN--\":5:16   */\n      lt\n        /* \"--CODEGEN--\":2:4   */\n      iszero\n      tag_136\n      jumpi\n        /* \"--CODEGEN--\":29:30   */\n      0x00\n        /* \"--CODEGEN--\":26:27   */\n      dup1\n        /* \"--CODEGEN--\":19:31   */\n      revert\n        /* \"--CODEGEN--\":2:4   */\n    tag_136:\n        /* \"TimeAlly.sol\":1427:1454  LoanPlan[] public loanPlans */\n      dup2\n      add\n      swap1\n      dup1\n      dup1\n      calldataload\n      swap1\n      0x20\n      add\n      swap1\n      swap3\n      swap2\n      swap1\n      pop\n      pop\n      pop\n      tag_137\n      jump\t// in\n    tag_135:\n      mload(0x40)\n      dup1\n      dup4\n      dup2\n      mstore\n      0x20\n      add\n      dup3\n      dup2\n      mstore\n      0x20\n      add\n      swap3\n      pop\n      pop\n      pop\n      mload(0x40)\n      dup1\n      swap2\n      sub\n      swap1\n      return\n        /* \"TimeAlly.sol\":18881:22208  function takeLoanOnSelfStaking(uint256 _loanPlanId, uint256 _exaEsAmount, uint256[] memory _stakingIds) public {... */\n    tag_30:\n      tag_138\n      0x04\n      dup1\n      calldatasize\n      sub\n        /* \"--CODEGEN--\":13:15   */\n      0x60\n        /* \"--CODEGEN--\":8:11   */\n      dup2\n        /* \"--CODEGEN--\":5:16   */\n      lt\n        /* \"--CODEGEN--\":2:4   */\n      iszero\n      tag_139\n      jumpi\n        /* \"--CODEGEN--\":29:30   */\n      0x00\n        /* \"--CODEGEN--\":26:27   */\n      dup1\n        /* \"--CODEGEN--\":19:31   */\n      revert\n        /* \"--CODEGEN--\":2:4   */\n    tag_139:\n        /* \"TimeAlly.sol\":18881:22208  function takeLoanOnSelfStaking(uint256 _loanPlanId, uint256 _exaEsAmount, uint256[] memory _stakingIds) public {... */\n      dup2\n      add\n      swap1\n      dup1\n      dup1\n      calldataload\n      swap1\n      0x20\n      add\n      swap1\n      swap3\n      swap2\n      swap1\n      dup1\n      calldataload\n      swap1\n      0x20\n      add\n      swap1\n      swap3\n      swap2\n      swap1\n      dup1\n      calldataload\n      swap1\n      0x20\n      add\n      swap1\n        /* \"--CODEGEN--\":21:32   */\n      0x0100000000\n        /* \"--CODEGEN--\":8:19   */\n      dup2\n        /* \"--CODEGEN--\":5:33   */\n      gt\n        /* \"--CODEGEN--\":2:4   */\n      iszero\n      tag_140\n      jumpi\n        /* \"--CODEGEN--\":46:47   */\n      0x00\n        /* \"--CODEGEN--\":43:44   */\n      dup1\n        /* \"--CODEGEN--\":36:48   */\n      revert\n        /* \"--CODEGEN--\":2:4   */\n    tag_140:\n        /* \"TimeAlly.sol\":18881:22208  function takeLoanOnSelfStaking(uint256 _loanPlanId, uint256 _exaEsAmount, uint256[] memory _stakingIds) public {... */\n      dup3\n      add\n        /* \"--CODEGEN--\":35:44   */\n      dup4\n        /* \"--CODEGEN--\":28:32   */\n      0x20\n        /* \"--CODEGEN--\":12:26   */\n      dup3\n        /* \"--CODEGEN--\":8:33   */\n      add\n        /* \"--CODEGEN--\":5:45   */\n      gt\n        /* \"--CODEGEN--\":2:4   */\n      iszero\n      tag_141\n      jumpi\n        /* \"--CODEGEN--\":58:59   */\n      0x00\n        /* \"--CODEGEN--\":55:56   */\n      dup1\n        /* \"--CODEGEN--\":48:60   */\n      revert\n        /* \"--CODEGEN--\":2:4   */\n    tag_141:\n        /* \"TimeAlly.sol\":18881:22208  function takeLoanOnSelfStaking(uint256 _loanPlanId, uint256 _exaEsAmount, uint256[] memory _stakingIds) public {... */\n      dup1\n      calldataload\n      swap1\n      0x20\n      add\n      swap2\n        /* \"--CODEGEN--\":101:110   */\n      dup5\n        /* \"--CODEGEN--\":95:97   */\n      0x20\n        /* \"--CODEGEN--\":81:93   */\n      dup4\n        /* \"--CODEGEN--\":77:98   */\n      mul\n        /* \"--CODEGEN--\":67:75   */\n      dup5\n        /* \"--CODEGEN--\":63:99   */\n      add\n        /* \"--CODEGEN--\":60:111   */\n      gt\n        /* \"--CODEGEN--\":39:50   */\n      0x0100000000\n        /* \"--CODEGEN--\":25:37   */\n      dup4\n        /* \"--CODEGEN--\":22:51   */\n      gt\n        /* \"--CODEGEN--\":11:119   */\n      or\n        /* \"--CODEGEN--\":8:10   */\n      iszero\n      tag_142\n      jumpi\n        /* \"--CODEGEN--\":132:133   */\n      0x00\n        /* \"--CODEGEN--\":129:130   */\n      dup1\n        /* \"--CODEGEN--\":122:134   */\n      revert\n        /* \"--CODEGEN--\":8:10   */\n    tag_142:\n        /* \"TimeAlly.sol\":18881:22208  function takeLoanOnSelfStaking(uint256 _loanPlanId, uint256 _exaEsAmount, uint256[] memory _stakingIds) public {... */\n      swap2\n      swap1\n      dup1\n      dup1\n      0x20\n      mul\n      0x20\n      add\n      mload(0x40)\n      swap1\n      dup2\n      add\n      0x40\n      mstore\n      dup1\n      swap4\n      swap3\n      swap2\n      swap1\n      dup2\n      dup2\n      mstore\n      0x20\n      add\n      dup4\n      dup4\n      0x20\n      mul\n        /* \"--CODEGEN--\":30:33   */\n      dup1\n        /* \"--CODEGEN--\":22:28   */\n      dup3\n        /* \"--CODEGEN--\":14:20   */\n      dup5\n        /* \"--CODEGEN--\":1:34   */\n      calldatacopy\n        /* \"--CODEGEN--\":99:100   */\n      0x00\n        /* \"--CODEGEN--\":93:96   */\n      dup2\n        /* \"--CODEGEN--\":85:91   */\n      dup5\n        /* \"--CODEGEN--\":81:97   */\n      add\n        /* \"--CODEGEN--\":74:101   */\n      mstore\n        /* \"--CODEGEN--\":137:141   */\n      0x1f\n        /* \"--CODEGEN--\":133:142   */\n      not\n        /* \"--CODEGEN--\":126:130   */\n      0x1f\n        /* \"--CODEGEN--\":121:124   */\n      dup3\n        /* \"--CODEGEN--\":117:131   */\n      add\n        /* \"--CODEGEN--\":113:143   */\n      and\n        /* \"--CODEGEN--\":106:143   */\n      swap1\n      pop\n        /* \"--CODEGEN--\":169:172   */\n      dup1\n        /* \"--CODEGEN--\":161:167   */\n      dup4\n        /* \"--CODEGEN--\":157:173   */\n      add\n        /* \"--CODEGEN--\":147:173   */\n      swap3\n      pop\n        /* \"TimeAlly.sol\":18881:22208  function takeLoanOnSelfStaking(uint256 _loanPlanId, uint256 _exaEsAmount, uint256[] memory _stakingIds) public {... */\n      pop\n      pop\n      pop\n      pop\n      pop\n      pop\n      swap2\n      swap3\n      swap2\n      swap3\n      swap1\n      pop\n      pop\n      pop\n      tag_143\n      jump\t// in\n    tag_138:\n      stop\n        /* \"TimeAlly.sol\":6503:7631  function claimLaunchReward(uint256 _stakingPlanId) public {... */\n    tag_31:\n      tag_144\n      0x04\n      dup1\n      calldatasize\n      sub\n        /* \"--CODEGEN--\":13:15   */\n      0x20\n        /* \"--CODEGEN--\":8:11   */\n      dup2\n        /* \"--CODEGEN--\":5:16   */\n      lt\n        /* \"--CODEGEN--\":2:4   */\n      iszero\n      tag_145\n      jumpi\n        /* \"--CODEGEN--\":29:30   */\n      0x00\n        /* \"--CODEGEN--\":26:27   */\n      dup1\n        /* \"--CODEGEN--\":19:31   */\n      revert\n        /* \"--CODEGEN--\":2:4   */\n    tag_145:\n        /* \"TimeAlly.sol\":6503:7631  function claimLaunchReward(uint256 _stakingPlanId) public {... */\n      dup2\n      add\n      swap1\n      dup1\n      dup1\n      calldataload\n      swap1\n      0x20\n      add\n      swap1\n      swap3\n      swap2\n      swap1\n      pop\n      pop\n      pop\n      tag_146\n      jump\t// in\n    tag_144:\n      stop\n        /* \"TimeAlly.sol\":3145:3255  function getCurrentMonth() public view returns (uint256) {... */\n    tag_32:\n      tag_147\n      tag_148\n      jump\t// in\n    tag_147:\n      mload(0x40)\n      dup1\n      dup3\n      dup2\n      mstore\n      0x20\n      add\n      swap2\n      pop\n      pop\n      mload(0x40)\n      dup1\n      swap2\n      sub\n      swap1\n      return\n        /* \"TimeAlly.sol\":22246:23550  function repayLoanSelf(uint256 _loanId) public {... */\n    tag_33:\n      tag_149\n      0x04\n      dup1\n      calldatasize\n      sub\n        /* \"--CODEGEN--\":13:15   */\n      0x20\n        /* \"--CODEGEN--\":8:11   */\n      dup2\n        /* \"--CODEGEN--\":5:16   */\n      lt\n        /* \"--CODEGEN--\":2:4   */\n      iszero\n      tag_150\n      jumpi\n        /* \"--CODEGEN--\":29:30   */\n      0x00\n        /* \"--CODEGEN--\":26:27   */\n      dup1\n        /* \"--CODEGEN--\":19:31   */\n      revert\n        /* \"--CODEGEN--\":2:4   */\n    tag_150:\n        /* \"TimeAlly.sol\":22246:23550  function repayLoanSelf(uint256 _loanId) public {... */\n      dup2\n      add\n      swap1\n      dup1\n      dup1\n      calldataload\n      swap1\n      0x20\n      add\n      swap1\n      swap3\n      swap2\n      swap1\n      pop\n      pop\n      pop\n      tag_151\n      jump\t// in\n    tag_149:\n      stop\n        /* \"TimeAlly.sol\":3746:4847  function newStaking(uint256 _exaEsAmount, uint256 _stakingPlanId) public {... */\n    tag_34:\n      tag_152\n      0x04\n      dup1\n      calldatasize\n      sub\n        /* \"--CODEGEN--\":13:15   */\n      0x40\n        /* \"--CODEGEN--\":8:11   */\n      dup2\n        /* \"--CODEGEN--\":5:16   */\n      lt\n        /* \"--CODEGEN--\":2:4   */\n      iszero\n      tag_153\n      jumpi\n        /* \"--CODEGEN--\":29:30   */\n      0x00\n        /* \"--CODEGEN--\":26:27   */\n      dup1\n        /* \"--CODEGEN--\":19:31   */\n      revert\n        /* \"--CODEGEN--\":2:4   */\n    tag_153:\n        /* \"TimeAlly.sol\":3746:4847  function newStaking(uint256 _exaEsAmount, uint256 _stakingPlanId) public {... */\n      dup2\n      add\n      swap1\n      dup1\n      dup1\n      calldataload\n      swap1\n      0x20\n      add\n      swap1\n      swap3\n      swap2\n      swap1\n      dup1\n      calldataload\n      swap1\n      0x20\n      add\n      swap1\n      swap3\n      swap2\n      swap1\n      pop\n      pop\n      pop\n      tag_154\n      jump\t// in\n    tag_152:\n      stop\n        /* \"TimeAlly.sol\":1115:1147  uint256 public deployedTimestamp */\n    tag_35:\n      tag_155\n      tag_156\n      jump\t// in\n    tag_155:\n      mload(0x40)\n      dup1\n      dup3\n      dup2\n      mstore\n      0x20\n      add\n      swap2\n      pop\n      pop\n      mload(0x40)\n      dup1\n      swap2\n      sub\n      swap1\n      return\n        /* \"TimeAlly.sol\":3018:3139  function increaseMonth(uint256 _timeAllyNRT) public onlyNRTManager {... */\n    tag_36:\n      tag_157\n      0x04\n      dup1\n      calldatasize\n      sub\n        /* \"--CODEGEN--\":13:15   */\n      0x20\n        /* \"--CODEGEN--\":8:11   */\n      dup2\n        /* \"--CODEGEN--\":5:16   */\n      lt\n        /* \"--CODEGEN--\":2:4   */\n      iszero\n      tag_158\n      jumpi\n        /* \"--CODEGEN--\":29:30   */\n      0x00\n        /* \"--CODEGEN--\":26:27   */\n      dup1\n        /* \"--CODEGEN--\":19:31   */\n      revert\n        /* \"--CODEGEN--\":2:4   */\n    tag_158:\n        /* \"TimeAlly.sol\":3018:3139  function increaseMonth(uint256 _timeAllyNRT) public onlyNRTManager {... */\n      dup2\n      add\n      swap1\n      dup1\n      dup1\n      calldataload\n      swap1\n      0x20\n      add\n      swap1\n      swap3\n      swap2\n      swap1\n      pop\n      pop\n      pop\n      tag_159\n      jump\t// in\n    tag_157:\n      stop\n        /* \"TimeAlly.sol\":14886:15581  function withdrawExpiredStakings(uint256[] memory _stakings) public {... */\n    tag_37:\n      tag_160\n      0x04\n      dup1\n      calldatasize\n      sub\n        /* \"--CODEGEN--\":13:15   */\n      0x20\n        /* \"--CODEGEN--\":8:11   */\n      dup2\n        /* \"--CODEGEN--\":5:16   */\n      lt\n        /* \"--CODEGEN--\":2:4   */\n      iszero\n      tag_161\n      jumpi\n        /* \"--CODEGEN--\":29:30   */\n      0x00\n        /* \"--CODEGEN--\":26:27   */\n      dup1\n        /* \"--CODEGEN--\":19:31   */\n      revert\n        /* \"--CODEGEN--\":2:4   */\n    tag_161:\n        /* \"TimeAlly.sol\":14886:15581  function withdrawExpiredStakings(uint256[] memory _stakings) public {... */\n      dup2\n      add\n      swap1\n      dup1\n      dup1\n      calldataload\n      swap1\n      0x20\n      add\n      swap1\n        /* \"--CODEGEN--\":21:32   */\n      0x0100000000\n        /* \"--CODEGEN--\":8:19   */\n      dup2\n        /* \"--CODEGEN--\":5:33   */\n      gt\n        /* \"--CODEGEN--\":2:4   */\n      iszero\n      tag_162\n      jumpi\n        /* \"--CODEGEN--\":46:47   */\n      0x00\n        /* \"--CODEGEN--\":43:44   */\n      dup1\n        /* \"--CODEGEN--\":36:48   */\n      revert\n        /* \"--CODEGEN--\":2:4   */\n    tag_162:\n        /* \"TimeAlly.sol\":14886:15581  function withdrawExpiredStakings(uint256[] memory _stakings) public {... */\n      dup3\n      add\n        /* \"--CODEGEN--\":35:44   */\n      dup4\n        /* \"--CODEGEN--\":28:32   */\n      0x20\n        /* \"--CODEGEN--\":12:26   */\n      dup3\n        /* \"--CODEGEN--\":8:33   */\n      add\n        /* \"--CODEGEN--\":5:45   */\n      gt\n        /* \"--CODEGEN--\":2:4   */\n      iszero\n      tag_163\n      jumpi\n        /* \"--CODEGEN--\":58:59   */\n      0x00\n        /* \"--CODEGEN--\":55:56   */\n      dup1\n        /* \"--CODEGEN--\":48:60   */\n      revert\n        /* \"--CODEGEN--\":2:4   */\n    tag_163:\n        /* \"TimeAlly.sol\":14886:15581  function withdrawExpiredStakings(uint256[] memory _stakings) public {... */\n      dup1\n      calldataload\n      swap1\n      0x20\n      add\n      swap2\n        /* \"--CODEGEN--\":101:110   */\n      dup5\n        /* \"--CODEGEN--\":95:97   */\n      0x20\n        /* \"--CODEGEN--\":81:93   */\n      dup4\n        /* \"--CODEGEN--\":77:98   */\n      mul\n        /* \"--CODEGEN--\":67:75   */\n      dup5\n        /* \"--CODEGEN--\":63:99   */\n      add\n        /* \"--CODEGEN--\":60:111   */\n      gt\n        /* \"--CODEGEN--\":39:50   */\n      0x0100000000\n        /* \"--CODEGEN--\":25:37   */\n      dup4\n        /* \"--CODEGEN--\":22:51   */\n      gt\n        /* \"--CODEGEN--\":11:119   */\n      or\n        /* \"--CODEGEN--\":8:10   */\n      iszero\n      tag_164\n      jumpi\n        /* \"--CODEGEN--\":132:133   */\n      0x00\n        /* \"--CODEGEN--\":129:130   */\n      dup1\n        /* \"--CODEGEN--\":122:134   */\n      revert\n        /* \"--CODEGEN--\":8:10   */\n    tag_164:\n        /* \"TimeAlly.sol\":14886:15581  function withdrawExpiredStakings(uint256[] memory _stakings) public {... */\n      swap2\n      swap1\n      dup1\n      dup1\n      0x20\n      mul\n      0x20\n      add\n      mload(0x40)\n      swap1\n      dup2\n      add\n      0x40\n      mstore\n      dup1\n      swap4\n      swap3\n      swap2\n      swap1\n      dup2\n      dup2\n      mstore\n      0x20\n      add\n      dup4\n      dup4\n      0x20\n      mul\n        /* \"--CODEGEN--\":30:33   */\n      dup1\n        /* \"--CODEGEN--\":22:28   */\n      dup3\n        /* \"--CODEGEN--\":14:20   */\n      dup5\n        /* \"--CODEGEN--\":1:34   */\n      calldatacopy\n        /* \"--CODEGEN--\":99:100   */\n      0x00\n        /* \"--CODEGEN--\":93:96   */\n      dup2\n        /* \"--CODEGEN--\":85:91   */\n      dup5\n        /* \"--CODEGEN--\":81:97   */\n      add\n        /* \"--CODEGEN--\":74:101   */\n      mstore\n        /* \"--CODEGEN--\":137:141   */\n      0x1f\n        /* \"--CODEGEN--\":133:142   */\n      not\n        /* \"--CODEGEN--\":126:130   */\n      0x1f\n        /* \"--CODEGEN--\":121:124   */\n      dup3\n        /* \"--CODEGEN--\":117:131   */\n      add\n        /* \"--CODEGEN--\":113:143   */\n      and\n        /* \"--CODEGEN--\":106:143   */\n      swap1\n      pop\n        /* \"--CODEGEN--\":169:172   */\n      dup1\n        /* \"--CODEGEN--\":161:167   */\n      dup4\n        /* \"--CODEGEN--\":157:173   */\n      add\n        /* \"--CODEGEN--\":147:173   */\n      swap3\n      pop\n        /* \"TimeAlly.sol\":14886:15581  function withdrawExpiredStakings(uint256[] memory _stakings) public {... */\n      pop\n      pop\n      pop\n      pop\n      pop\n      pop\n      swap2\n      swap3\n      swap2\n      swap3\n      swap1\n      pop\n      pop\n      pop\n      tag_165\n      jump\t// in\n    tag_160:\n      stop\n        /* \"TimeAlly.sol\":8431:9495  function userActiveStakingByMonth(address _userAddress, uint256 _atMonth) public view returns (uint256) {... */\n    tag_38:\n      tag_166\n      0x04\n      dup1\n      calldatasize\n      sub\n        /* \"--CODEGEN--\":13:15   */\n      0x40\n        /* \"--CODEGEN--\":8:11   */\n      dup2\n        /* \"--CODEGEN--\":5:16   */\n      lt\n        /* \"--CODEGEN--\":2:4   */\n      iszero\n      tag_167\n      jumpi\n        /* \"--CODEGEN--\":29:30   */\n      0x00\n        /* \"--CODEGEN--\":26:27   */\n      dup1\n        /* \"--CODEGEN--\":19:31   */\n      revert\n        /* \"--CODEGEN--\":2:4   */\n    tag_167:\n        /* \"TimeAlly.sol\":8431:9495  function userActiveStakingByMonth(address _userAddress, uint256 _atMonth) public view returns (uint256) {... */\n      dup2\n      add\n      swap1\n      dup1\n      dup1\n      calldataload\n      0xffffffffffffffffffffffffffffffffffffffff\n      and\n      swap1\n      0x20\n      add\n      swap1\n      swap3\n      swap2\n      swap1\n      dup1\n      calldataload\n      swap1\n      0x20\n      add\n      swap1\n      swap3\n      swap2\n      swap1\n      pop\n      pop\n      pop\n      tag_168\n      jump\t// in\n    tag_166:\n      mload(0x40)\n      dup1\n      dup3\n      dup2\n      mstore\n      0x20\n      add\n      swap2\n      pop\n      pop\n      mload(0x40)\n      dup1\n      swap2\n      sub\n      swap1\n      return\n        /* \"TimeAlly.sol\":1054:1074  Eraswap public token */\n    tag_39:\n      tag_169\n      tag_170\n      jump\t// in\n    tag_169:\n      mload(0x40)\n      dup1\n      dup3\n      0xffffffffffffffffffffffffffffffffffffffff\n      and\n      0xffffffffffffffffffffffffffffffffffffffff\n      and\n      dup2\n      mstore\n      0x20\n      add\n      swap2\n      pop\n      pop\n      mload(0x40)\n      dup1\n      swap2\n      sub\n      swap1\n      return\n        /* \"TimeAlly.sol\":1714:1747  uint256 public launchRewardBucket */\n    tag_48:\n      sload(0x0b)\n      dup2\n      jump\t// out\n        /* \"TimeAlly.sol\":1080:1108  NRTManager public nrtManager */\n    tag_50:\n      0x02\n      0x00\n      swap1\n      sload\n      swap1\n      0x0100\n      exp\n      swap1\n      div\n      0xffffffffffffffffffffffffffffffffffffffff\n      and\n      dup2\n      jump\t// out\n        /* \"TimeAlly.sol\":1491:1536  mapping(address => Staking[]) public stakings */\n    tag_53:\n      mstore(0x20, 0x08)\n      dup2\n      0x00\n      mstore\n      keccak256(0x00, 0x40)\n      dup2\n      dup2\n      sload\n      dup2\n      lt\n      tag_171\n      jumpi\n      invalid\n    tag_171:\n      swap1\n      0x00\n      mstore\n      keccak256(0x00, 0x20)\n      swap1\n      0x09\n      mul\n      add\n      0x00\n      swap2\n      pop\n      swap2\n      pop\n      pop\n      dup1\n      0x00\n      add\n      sload\n      swap1\n      dup1\n      0x01\n      add\n      sload\n      swap1\n      dup1\n      0x02\n      add\n      sload\n      swap1\n      dup1\n      0x03\n      add\n      sload\n      swap1\n      dup1\n      0x04\n      add\n      sload\n      swap1\n      dup1\n      0x05\n      add\n      sload\n      swap1\n      dup1\n      0x07\n      add\n      sload\n      swap1\n      dup1\n      0x08\n      add\n      sload\n      swap1\n      pop\n      dup9\n      jump\t// out\n        /* \"TimeAlly.sol\":16493:17752  function withdrawCancelStaking(uint256 _stakingId) public {... */\n    tag_56:\n        /* \"TimeAlly.sol\":16704:16705  4 */\n      0x04\n        /* \"TimeAlly.sol\":16661:16669  stakings */\n      0x08\n        /* \"TimeAlly.sol\":16661:16681  stakings[msg.sender] */\n      0x00\n        /* \"TimeAlly.sol\":16670:16680  msg.sender */\n      caller\n        /* \"TimeAlly.sol\":16661:16681  stakings[msg.sender] */\n      0xffffffffffffffffffffffffffffffffffffffff\n      and\n      0xffffffffffffffffffffffffffffffffffffffff\n      and\n      dup2\n      mstore\n      0x20\n      add\n      swap1\n      dup2\n      mstore\n      0x20\n      add\n      0x00\n      keccak256\n        /* \"TimeAlly.sol\":16682:16692  _stakingId */\n      dup3\n        /* \"TimeAlly.sol\":16661:16693  stakings[msg.sender][_stakingId] */\n      dup2\n      sload\n      dup2\n      lt\n      tag_174\n      jumpi\n      invalid\n    tag_174:\n      swap1\n      0x00\n      mstore\n      keccak256(0x00, 0x20)\n      swap1\n      0x09\n      mul\n      add\n        /* \"TimeAlly.sol\":16661:16700  stakings[msg.sender][_stakingId].status */\n      0x03\n      add\n      sload\n        /* \"TimeAlly.sol\":16661:16705  stakings[msg.sender][_stakingId].status == 4 */\n      eq\n        /* \"TimeAlly.sol\":16653:16735  require(stakings[msg.sender][_stakingId].status == 4, 'staking must be cancelled') */\n      tag_176\n      jumpi\n      mload(0x40)\n      0x08c379a000000000000000000000000000000000000000000000000000000000\n      dup2\n      mstore\n      0x04\n      add\n      dup1\n      dup1\n      0x20\n      add\n      dup3\n      dup2\n      sub\n      dup3\n      mstore\n      0x19\n      dup2\n      mstore\n      0x20\n      add\n      dup1\n      0x7374616b696e67206d7573742062652063616e63656c6c656400000000000000\n      dup2\n      mstore\n      pop\n      0x20\n      add\n      swap2\n      pop\n      pop\n      mload(0x40)\n      dup1\n      swap2\n      sub\n      swap1\n      revert\n    tag_176:\n        /* \"TimeAlly.sol\":16810:16811  0 */\n      0x00\n        /* \"TimeAlly.sol\":16753:16761  stakings */\n      0x08\n        /* \"TimeAlly.sol\":16753:16773  stakings[msg.sender] */\n      0x00\n        /* \"TimeAlly.sol\":16762:16772  msg.sender */\n      caller\n        /* \"TimeAlly.sol\":16753:16773  stakings[msg.sender] */\n      0xffffffffffffffffffffffffffffffffffffffff\n      and\n      0xffffffffffffffffffffffffffffffffffffffff\n      and\n      dup2\n      mstore\n      0x20\n      add\n      swap1\n      dup2\n      mstore\n      0x20\n      add\n      0x00\n      keccak256\n        /* \"TimeAlly.sol\":16774:16784  _stakingId */\n      dup3\n        /* \"TimeAlly.sol\":16753:16785  stakings[msg.sender][_stakingId] */\n      dup2\n      sload\n      dup2\n      lt\n      tag_177\n      jumpi\n      invalid\n    tag_177:\n      swap1\n      0x00\n      mstore\n      keccak256(0x00, 0x20)\n      swap1\n      0x09\n      mul\n      add\n        /* \"TimeAlly.sol\":16753:16807  stakings[msg.sender][_stakingId].refundMonthsRemaining */\n      0x08\n      add\n      sload\n        /* \"TimeAlly.sol\":16753:16811  stakings[msg.sender][_stakingId].refundMonthsRemaining > 0 */\n      gt\n        /* \"TimeAlly.sol\":16745:16839  require(stakings[msg.sender][_stakingId].refundMonthsRemaining > 0, 'all refunds are claimed') */\n      tag_179\n      jumpi\n      mload(0x40)\n      0x08c379a000000000000000000000000000000000000000000000000000000000\n      dup2\n      mstore\n      0x04\n      add\n      dup1\n      dup1\n      0x20\n      add\n      dup3\n      dup2\n      sub\n      dup3\n      mstore\n      0x17\n      dup2\n      mstore\n      0x20\n      add\n      dup1\n      0x616c6c20726566756e64732061726520636c61696d6564000000000000000000\n      dup2\n      mstore\n      pop\n      0x20\n      add\n      swap2\n      pop\n      pop\n      mload(0x40)\n      dup1\n      swap2\n      sub\n      swap1\n      revert\n    tag_179:\n        /* \"TimeAlly.sol\":16850:16871  uint256 _currentMonth */\n      0x00\n        /* \"TimeAlly.sol\":16874:16891  getCurrentMonth() */\n      tag_180\n        /* \"TimeAlly.sol\":16874:16889  getCurrentMonth */\n      tag_148\n        /* \"TimeAlly.sol\":16874:16891  getCurrentMonth() */\n      jump\t// in\n    tag_180:\n        /* \"TimeAlly.sol\":16850:16891  uint256 _currentMonth = getCurrentMonth() */\n      swap1\n      pop\n        /* \"TimeAlly.sol\":17025:17048  uint256 _withdrawMonths */\n      0x00\n        /* \"TimeAlly.sol\":17051:17125  _currentMonth.sub(stakings[msg.sender][_stakingId].refundMonthClaimedLast) */\n      tag_181\n        /* \"TimeAlly.sol\":17069:17077  stakings */\n      0x08\n        /* \"TimeAlly.sol\":17069:17089  stakings[msg.sender] */\n      0x00\n        /* \"TimeAlly.sol\":17078:17088  msg.sender */\n      caller\n        /* \"TimeAlly.sol\":17069:17089  stakings[msg.sender] */\n      0xffffffffffffffffffffffffffffffffffffffff\n      and\n      0xffffffffffffffffffffffffffffffffffffffff\n      and\n      dup2\n      mstore\n      0x20\n      add\n      swap1\n      dup2\n      mstore\n      0x20\n      add\n      0x00\n      keccak256\n        /* \"TimeAlly.sol\":17090:17100  _stakingId */\n      dup5\n        /* \"TimeAlly.sol\":17069:17101  stakings[msg.sender][_stakingId] */\n      dup2\n      sload\n      dup2\n      lt\n      tag_182\n      jumpi\n      invalid\n    tag_182:\n      swap1\n      0x00\n      mstore\n      keccak256(0x00, 0x20)\n      swap1\n      0x09\n      mul\n      add\n        /* \"TimeAlly.sol\":17069:17124  stakings[msg.sender][_stakingId].refundMonthClaimedLast */\n      0x07\n      add\n      sload\n        /* \"TimeAlly.sol\":17051:17064  _currentMonth */\n      dup4\n        /* \"TimeAlly.sol\":17051:17068  _currentMonth.sub */\n      tag_184\n      swap1\n        /* \"TimeAlly.sol\":17051:17125  _currentMonth.sub(stakings[msg.sender][_stakingId].refundMonthClaimedLast) */\n      swap2\n      swap1\n      0xffffffff\n      and\n      jump\t// in\n    tag_181:\n        /* \"TimeAlly.sol\":17025:17125  uint256 _withdrawMonths = _currentMonth.sub(stakings[msg.sender][_stakingId].refundMonthClaimedLast) */\n      swap1\n      pop\n        /* \"TimeAlly.sol\":17157:17165  stakings */\n      0x08\n        /* \"TimeAlly.sol\":17157:17177  stakings[msg.sender] */\n      0x00\n        /* \"TimeAlly.sol\":17166:17176  msg.sender */\n      caller\n        /* \"TimeAlly.sol\":17157:17177  stakings[msg.sender] */\n      0xffffffffffffffffffffffffffffffffffffffff\n      and\n      0xffffffffffffffffffffffffffffffffffffffff\n      and\n      dup2\n      mstore\n      0x20\n      add\n      swap1\n      dup2\n      mstore\n      0x20\n      add\n      0x00\n      keccak256\n        /* \"TimeAlly.sol\":17178:17188  _stakingId */\n      dup4\n        /* \"TimeAlly.sol\":17157:17189  stakings[msg.sender][_stakingId] */\n      dup2\n      sload\n      dup2\n      lt\n      tag_185\n      jumpi\n      invalid\n    tag_185:\n      swap1\n      0x00\n      mstore\n      keccak256(0x00, 0x20)\n      swap1\n      0x09\n      mul\n      add\n        /* \"TimeAlly.sol\":17157:17211  stakings[msg.sender][_stakingId].refundMonthsRemaining */\n      0x08\n      add\n      sload\n        /* \"TimeAlly.sol\":17139:17154  _withdrawMonths */\n      dup2\n        /* \"TimeAlly.sol\":17139:17211  _withdrawMonths > stakings[msg.sender][_stakingId].refundMonthsRemaining */\n      gt\n        /* \"TimeAlly.sol\":17136:17310  if(_withdrawMonths > stakings[msg.sender][_stakingId].refundMonthsRemaining) {... */\n      iszero\n      tag_187\n      jumpi\n        /* \"TimeAlly.sol\":17245:17253  stakings */\n      0x08\n        /* \"TimeAlly.sol\":17245:17265  stakings[msg.sender] */\n      0x00\n        /* \"TimeAlly.sol\":17254:17264  msg.sender */\n      caller\n        /* \"TimeAlly.sol\":17245:17265  stakings[msg.sender] */\n      0xffffffffffffffffffffffffffffffffffffffff\n      and\n      0xffffffffffffffffffffffffffffffffffffffff\n      and\n      dup2\n      mstore\n      0x20\n      add\n      swap1\n      dup2\n      mstore\n      0x20\n      add\n      0x00\n      keccak256\n        /* \"TimeAlly.sol\":17266:17276  _stakingId */\n      dup4\n        /* \"TimeAlly.sol\":17245:17277  stakings[msg.sender][_stakingId] */\n      dup2\n      sload\n      dup2\n      lt\n      tag_188\n      jumpi\n      invalid\n    tag_188:\n      swap1\n      0x00\n      mstore\n      keccak256(0x00, 0x20)\n      swap1\n      0x09\n      mul\n      add\n        /* \"TimeAlly.sol\":17245:17299  stakings[msg.sender][_stakingId].refundMonthsRemaining */\n      0x08\n      add\n      sload\n        /* \"TimeAlly.sol\":17227:17299  _withdrawMonths = stakings[msg.sender][_stakingId].refundMonthsRemaining */\n      swap1\n      pop\n        /* \"TimeAlly.sol\":17136:17310  if(_withdrawMonths > stakings[msg.sender][_stakingId].refundMonthsRemaining) {... */\n    tag_187:\n        /* \"TimeAlly.sol\":17320:17345  uint256 _amountToTransfer */\n      0x00\n        /* \"TimeAlly.sol\":17348:17460  stakings[msg.sender][_stakingId].exaEsAmount... */\n      tag_190\n        /* \"TimeAlly.sol\":17457:17459  24 */\n      0x18\n        /* \"TimeAlly.sol\":17348:17452  stakings[msg.sender][_stakingId].exaEsAmount... */\n      tag_191\n        /* \"TimeAlly.sol\":17436:17451  _withdrawMonths */\n      dup5\n        /* \"TimeAlly.sol\":17348:17356  stakings */\n      0x08\n        /* \"TimeAlly.sol\":17348:17368  stakings[msg.sender] */\n      0x00\n        /* \"TimeAlly.sol\":17357:17367  msg.sender */\n      caller\n        /* \"TimeAlly.sol\":17348:17368  stakings[msg.sender] */\n      0xffffffffffffffffffffffffffffffffffffffff\n      and\n      0xffffffffffffffffffffffffffffffffffffffff\n      and\n      dup2\n      mstore\n      0x20\n      add\n      swap1\n      dup2\n      mstore\n      0x20\n      add\n      0x00\n      keccak256\n        /* \"TimeAlly.sol\":17369:17379  _stakingId */\n      dup9\n        /* \"TimeAlly.sol\":17348:17380  stakings[msg.sender][_stakingId] */\n      dup2\n      sload\n      dup2\n      lt\n      tag_192\n      jumpi\n      invalid\n    tag_192:\n      swap1\n      0x00\n      mstore\n      keccak256(0x00, 0x20)\n      swap1\n      0x09\n      mul\n      add\n        /* \"TimeAlly.sol\":17348:17392  stakings[msg.sender][_stakingId].exaEsAmount */\n      0x00\n      add\n      sload\n        /* \"TimeAlly.sol\":17348:17435  stakings[msg.sender][_stakingId].exaEsAmount... */\n      tag_194\n      swap1\n        /* \"TimeAlly.sol\":17348:17452  stakings[msg.sender][_stakingId].exaEsAmount... */\n      swap2\n      swap1\n      0xffffffff\n      and\n      jump\t// in\n    tag_191:\n        /* \"TimeAlly.sol\":17348:17456  stakings[msg.sender][_stakingId].exaEsAmount... */\n      tag_195\n      swap1\n        /* \"TimeAlly.sol\":17348:17460  stakings[msg.sender][_stakingId].exaEsAmount... */\n      swap2\n      swap1\n      0xffffffff\n      and\n      jump\t// in\n    tag_190:\n        /* \"TimeAlly.sol\":17320:17460  uint256 _amountToTransfer = stakings[msg.sender][_stakingId].exaEsAmount... */\n      swap1\n      pop\n        /* \"TimeAlly.sol\":17529:17546  getCurrentMonth() */\n      tag_196\n        /* \"TimeAlly.sol\":17529:17544  getCurrentMonth */\n      tag_148\n        /* \"TimeAlly.sol\":17529:17546  getCurrentMonth() */\n      jump\t// in\n    tag_196:\n        /* \"TimeAlly.sol\":17471:17479  stakings */\n      0x08\n        /* \"TimeAlly.sol\":17471:17491  stakings[msg.sender] */\n      0x00\n        /* \"TimeAlly.sol\":17480:17490  msg.sender */\n      caller\n        /* \"TimeAlly.sol\":17471:17491  stakings[msg.sender] */\n      0xffffffffffffffffffffffffffffffffffffffff\n      and\n      0xffffffffffffffffffffffffffffffffffffffff\n      and\n      dup2\n      mstore\n      0x20\n      add\n      swap1\n      dup2\n      mstore\n      0x20\n      add\n      0x00\n      keccak256\n        /* \"TimeAlly.sol\":17492:17502  _stakingId */\n      dup6\n        /* \"TimeAlly.sol\":17471:17503  stakings[msg.sender][_stakingId] */\n      dup2\n      sload\n      dup2\n      lt\n      tag_197\n      jumpi\n      invalid\n    tag_197:\n      swap1\n      0x00\n      mstore\n      keccak256(0x00, 0x20)\n      swap1\n      0x09\n      mul\n      add\n        /* \"TimeAlly.sol\":17471:17526  stakings[msg.sender][_stakingId].refundMonthClaimedLast */\n      0x07\n      add\n        /* \"TimeAlly.sol\":17471:17546  stakings[msg.sender][_stakingId].refundMonthClaimedLast = getCurrentMonth() */\n      dup2\n      swap1\n      sstore\n      pop\n        /* \"TimeAlly.sol\":17613:17688  stakings[msg.sender][_stakingId].refundMonthsRemaining.sub(_withdrawMonths) */\n      tag_199\n        /* \"TimeAlly.sol\":17672:17687  _withdrawMonths */\n      dup3\n        /* \"TimeAlly.sol\":17613:17621  stakings */\n      0x08\n        /* \"TimeAlly.sol\":17613:17633  stakings[msg.sender] */\n      0x00\n        /* \"TimeAlly.sol\":17622:17632  msg.sender */\n      caller\n        /* \"TimeAlly.sol\":17613:17633  stakings[msg.sender] */\n      0xffffffffffffffffffffffffffffffffffffffff\n      and\n      0xffffffffffffffffffffffffffffffffffffffff\n      and\n      dup2\n      mstore\n      0x20\n      add\n      swap1\n      dup2\n      mstore\n      0x20\n      add\n      0x00\n      keccak256\n        /* \"TimeAlly.sol\":17634:17644  _stakingId */\n      dup7\n        /* \"TimeAlly.sol\":17613:17645  stakings[msg.sender][_stakingId] */\n      dup2\n      sload\n      dup2\n      lt\n      tag_200\n      jumpi\n      invalid\n    tag_200:\n      swap1\n      0x00\n      mstore\n      keccak256(0x00, 0x20)\n      swap1\n      0x09\n      mul\n      add\n        /* \"TimeAlly.sol\":17613:17667  stakings[msg.sender][_stakingId].refundMonthsRemaining */\n      0x08\n      add\n      sload\n        /* \"TimeAlly.sol\":17613:17671  stakings[msg.sender][_stakingId].refundMonthsRemaining.sub */\n      tag_184\n      swap1\n        /* \"TimeAlly.sol\":17613:17688  stakings[msg.sender][_stakingId].refundMonthsRemaining.sub(_withdrawMonths) */\n      swap2\n      swap1\n      0xffffffff\n      and\n      jump\t// in\n    tag_199:\n        /* \"TimeAlly.sol\":17556:17564  stakings */\n      0x08\n        /* \"TimeAlly.sol\":17556:17576  stakings[msg.sender] */\n      0x00\n        /* \"TimeAlly.sol\":17565:17575  msg.sender */\n      caller\n        /* \"TimeAlly.sol\":17556:17576  stakings[msg.sender] */\n      0xffffffffffffffffffffffffffffffffffffffff\n      and\n      0xffffffffffffffffffffffffffffffffffffffff\n      and\n      dup2\n      mstore\n      0x20\n      add\n      swap1\n      dup2\n      mstore\n      0x20\n      add\n      0x00\n      keccak256\n        /* \"TimeAlly.sol\":17577:17587  _stakingId */\n      dup6\n        /* \"TimeAlly.sol\":17556:17588  stakings[msg.sender][_stakingId] */\n      dup2\n      sload\n      dup2\n      lt\n      tag_202\n      jumpi\n      invalid\n    tag_202:\n      swap1\n      0x00\n      mstore\n      keccak256(0x00, 0x20)\n      swap1\n      0x09\n      mul\n      add\n        /* \"TimeAlly.sol\":17556:17610  stakings[msg.sender][_stakingId].refundMonthsRemaining */\n      0x08\n      add\n        /* \"TimeAlly.sol\":17556:17688  stakings[msg.sender][_stakingId].refundMonthsRemaining = stakings[msg.sender][_stakingId].refundMonthsRemaining.sub(_withdrawMonths) */\n      dup2\n      swap1\n      sstore\n      pop\n        /* \"TimeAlly.sol\":17699:17704  token */\n      0x01\n      0x00\n      swap1\n      sload\n      swap1\n      0x0100\n      exp\n      swap1\n      div\n      0xffffffffffffffffffffffffffffffffffffffff\n      and\n        /* \"TimeAlly.sol\":17699:17713  token.transfer */\n      0xffffffffffffffffffffffffffffffffffffffff\n      and\n      0xa9059cbb\n        /* \"TimeAlly.sol\":17714:17724  msg.sender */\n      caller\n        /* \"TimeAlly.sol\":17726:17743  _amountToTransfer */\n      dup4\n        /* \"TimeAlly.sol\":17699:17744  token.transfer(msg.sender, _amountToTransfer) */\n      mload(0x40)\n      dup4\n      0xffffffff\n      and\n      0xe0\n      shl\n      dup2\n      mstore\n      0x04\n      add\n      dup1\n      dup4\n      0xffffffffffffffffffffffffffffffffffffffff\n      and\n      0xffffffffffffffffffffffffffffffffffffffff\n      and\n      dup2\n      mstore\n      0x20\n      add\n      dup3\n      dup2\n      mstore\n      0x20\n      add\n      swap3\n      pop\n      pop\n      pop\n      0x20\n      mload(0x40)\n      dup1\n      dup4\n      sub\n      dup2\n      0x00\n      dup8\n      dup1\n      extcodesize\n      iszero\n        /* \"--CODEGEN--\":8:17   */\n      dup1\n        /* \"--CODEGEN--\":5:7   */\n      iszero\n      tag_204\n      jumpi\n        /* \"--CODEGEN--\":30:31   */\n      0x00\n        /* \"--CODEGEN--\":27:28   */\n      dup1\n        /* \"--CODEGEN--\":20:32   */\n      revert\n        /* \"--CODEGEN--\":5:7   */\n    tag_204:\n        /* \"TimeAlly.sol\":17699:17744  token.transfer(msg.sender, _amountToTransfer) */\n      pop\n      gas\n      call\n      iszero\n        /* \"--CODEGEN--\":8:17   */\n      dup1\n        /* \"--CODEGEN--\":5:7   */\n      iszero\n      tag_205\n      jumpi\n        /* \"--CODEGEN--\":45:61   */\n      returndatasize\n        /* \"--CODEGEN--\":42:43   */\n      0x00\n        /* \"--CODEGEN--\":39:40   */\n      dup1\n        /* \"--CODEGEN--\":24:62   */\n      returndatacopy\n        /* \"--CODEGEN--\":77:93   */\n      returndatasize\n        /* \"--CODEGEN--\":74:75   */\n      0x00\n        /* \"--CODEGEN--\":67:94   */\n      revert\n        /* \"--CODEGEN--\":5:7   */\n    tag_205:\n        /* \"TimeAlly.sol\":17699:17744  token.transfer(msg.sender, _amountToTransfer) */\n      pop\n      pop\n      pop\n      pop\n      mload(0x40)\n      returndatasize\n        /* \"--CODEGEN--\":13:15   */\n      0x20\n        /* \"--CODEGEN--\":8:11   */\n      dup2\n        /* \"--CODEGEN--\":5:16   */\n      lt\n        /* \"--CODEGEN--\":2:4   */\n      iszero\n      tag_206\n      jumpi\n        /* \"--CODEGEN--\":29:30   */\n      0x00\n        /* \"--CODEGEN--\":26:27   */\n      dup1\n        /* \"--CODEGEN--\":19:31   */\n      revert\n        /* \"--CODEGEN--\":2:4   */\n    tag_206:\n        /* \"TimeAlly.sol\":17699:17744  token.transfer(msg.sender, _amountToTransfer) */\n      dup2\n      add\n      swap1\n      dup1\n      dup1\n      mload\n      swap1\n      0x20\n      add\n      swap1\n      swap3\n      swap2\n      swap1\n      pop\n      pop\n      pop\n      pop\n        /* \"TimeAlly.sol\":16493:17752  function withdrawCancelStaking(uint256 _stakingId) public {... */\n      pop\n      pop\n      pop\n      pop\n      jump\t// out\n        /* \"TimeAlly.sol\":1239:1274  uint256[] public timeAllyMonthlyNRT */\n    tag_59:\n      0x05\n      dup2\n      dup2\n      sload\n      dup2\n      lt\n      tag_207\n      jumpi\n      invalid\n    tag_207:\n      swap1\n      0x00\n      mstore\n      keccak256(0x00, 0x20)\n      add\n      0x00\n      swap2\n      pop\n      swap1\n      pop\n      sload\n      dup2\n      jump\t// out\n        /* \"TimeAlly.sol\":10571:11824  function seeShareForUserByMonth(address _userAddress, uint256 _atMonth) public view returns (uint256) {... */\n    tag_62:\n        /* \"TimeAlly.sol\":10664:10671  uint256 */\n      0x00\n        /* \"TimeAlly.sol\":10897:10918  uint256 _currentMonth */\n      dup1\n        /* \"TimeAlly.sol\":10921:10938  getCurrentMonth() */\n      tag_210\n        /* \"TimeAlly.sol\":10921:10936  getCurrentMonth */\n      tag_148\n        /* \"TimeAlly.sol\":10921:10938  getCurrentMonth() */\n      jump\t// in\n    tag_210:\n        /* \"TimeAlly.sol\":10897:10938  uint256 _currentMonth = getCurrentMonth() */\n      swap1\n      pop\n        /* \"TimeAlly.sol\":10968:10981  _currentMonth */\n      dup1\n        /* \"TimeAlly.sol\":10956:10964  _atMonth */\n      dup4\n        /* \"TimeAlly.sol\":10956:10981  _atMonth <= _currentMonth */\n      gt\n      iszero\n        /* \"TimeAlly.sol\":10948:11012  require(_atMonth <= _currentMonth, 'cannot see future stakings') */\n      tag_211\n      jumpi\n      mload(0x40)\n      0x08c379a000000000000000000000000000000000000000000000000000000000\n      dup2\n      mstore\n      0x04\n      add\n      dup1\n      dup1\n      0x20\n      add\n      dup3\n      dup2\n      sub\n      dup3\n      mstore\n      0x1a\n      dup2\n      mstore\n      0x20\n      add\n      dup1\n      0x63616e6e6f742073656520667574757265207374616b696e6773000000000000\n      dup2\n      mstore\n      pop\n      0x20\n      add\n      swap2\n      pop\n      pop\n      mload(0x40)\n      dup1\n      swap2\n      sub\n      swap1\n      revert\n    tag_211:\n        /* \"TimeAlly.sol\":11059:11060  0 */\n      0x00\n        /* \"TimeAlly.sol\":11026:11045  totalActiveStakings */\n      0x0a\n        /* \"TimeAlly.sol\":11026:11055  totalActiveStakings[_atMonth] */\n      0x00\n        /* \"TimeAlly.sol\":11046:11054  _atMonth */\n      dup6\n        /* \"TimeAlly.sol\":11026:11055  totalActiveStakings[_atMonth] */\n      dup2\n      mstore\n      0x20\n      add\n      swap1\n      dup2\n      mstore\n      0x20\n      add\n      0x00\n      keccak256\n      sload\n        /* \"TimeAlly.sol\":11026:11060  totalActiveStakings[_atMonth] == 0 */\n      eq\n        /* \"TimeAlly.sol\":11023:11095  if(totalActiveStakings[_atMonth] == 0) {... */\n      iszero\n      tag_212\n      jumpi\n        /* \"TimeAlly.sol\":11083:11084  0 */\n      0x00\n        /* \"TimeAlly.sol\":11076:11084  return 0 */\n      swap2\n      pop\n      pop\n      jump(tag_209)\n        /* \"TimeAlly.sol\":11023:11095  if(totalActiveStakings[_atMonth] == 0) {... */\n    tag_212:\n        /* \"TimeAlly.sol\":11105:11142  uint256 userActiveStakingsExaEsAmount */\n      0x00\n        /* \"TimeAlly.sol\":11157:11166  uint256 i */\n      dup1\n        /* \"TimeAlly.sol\":11169:11170  0 */\n      0x00\n        /* \"TimeAlly.sol\":11157:11170  uint256 i = 0 */\n      swap1\n      pop\n        /* \"TimeAlly.sol\":11153:11702  for(uint256 i = 0; i < stakings[_userAddress].length; i++) {... */\n    tag_213:\n        /* \"TimeAlly.sol\":11176:11184  stakings */\n      0x08\n        /* \"TimeAlly.sol\":11176:11198  stakings[_userAddress] */\n      0x00\n        /* \"TimeAlly.sol\":11185:11197  _userAddress */\n      dup8\n        /* \"TimeAlly.sol\":11176:11198  stakings[_userAddress] */\n      0xffffffffffffffffffffffffffffffffffffffff\n      and\n      0xffffffffffffffffffffffffffffffffffffffff\n      and\n      dup2\n      mstore\n      0x20\n      add\n      swap1\n      dup2\n      mstore\n      0x20\n      add\n      0x00\n      keccak256\n        /* \"TimeAlly.sol\":11176:11205  stakings[_userAddress].length */\n      dup1\n      sload\n      swap1\n      pop\n        /* \"TimeAlly.sol\":11172:11173  i */\n      dup2\n        /* \"TimeAlly.sol\":11172:11205  i < stakings[_userAddress].length */\n      lt\n        /* \"TimeAlly.sol\":11153:11702  for(uint256 i = 0; i < stakings[_userAddress].length; i++) {... */\n      iszero\n      tag_214\n      jumpi\n        /* \"TimeAlly.sol\":11226:11249  StakingPlan memory plan */\n      tag_216\n      tag_217\n      jump\t// in\n    tag_216:\n        /* \"TimeAlly.sol\":11252:11264  stakingPlans */\n      0x06\n        /* \"TimeAlly.sol\":11266:11274  stakings */\n      0x08\n        /* \"TimeAlly.sol\":11266:11288  stakings[_userAddress] */\n      0x00\n        /* \"TimeAlly.sol\":11275:11287  _userAddress */\n      dup10\n        /* \"TimeAlly.sol\":11266:11288  stakings[_userAddress] */\n      0xffffffffffffffffffffffffffffffffffffffff\n      and\n      0xffffffffffffffffffffffffffffffffffffffff\n      and\n      dup2\n      mstore\n      0x20\n      add\n      swap1\n      dup2\n      mstore\n      0x20\n      add\n      0x00\n      keccak256\n        /* \"TimeAlly.sol\":11289:11290  i */\n      dup4\n        /* \"TimeAlly.sol\":11266:11291  stakings[_userAddress][i] */\n      dup2\n      sload\n      dup2\n      lt\n      tag_218\n      jumpi\n      invalid\n    tag_218:\n      swap1\n      0x00\n      mstore\n      keccak256(0x00, 0x20)\n      swap1\n      0x09\n      mul\n      add\n        /* \"TimeAlly.sol\":11266:11305  stakings[_userAddress][i].stakingPlanId */\n      0x02\n      add\n      sload\n        /* \"TimeAlly.sol\":11252:11307  stakingPlans[ stakings[_userAddress][i].stakingPlanId ] */\n      dup2\n      sload\n      dup2\n      lt\n      tag_220\n      jumpi\n      invalid\n    tag_220:\n      swap1\n      0x00\n      mstore\n      keccak256(0x00, 0x20)\n      swap1\n      0x02\n      mul\n      add\n        /* \"TimeAlly.sol\":11226:11307  StakingPlan memory plan = stakingPlans[ stakings[_userAddress][i].stakingPlanId ] */\n      mload(0x40)\n      dup1\n      0x40\n      add\n      0x40\n      mstore\n      swap1\n      dup2\n      0x00\n      dup3\n      add\n      sload\n      dup2\n      mstore\n      0x20\n      add\n      0x01\n      dup3\n      add\n      sload\n      dup2\n      mstore\n      pop\n      pop\n      swap1\n      pop\n        /* \"TimeAlly.sol\":11394:11451  isStakingActive(_userAddress, i, _currentMonth, _atMonth) */\n      tag_222\n        /* \"TimeAlly.sol\":11410:11422  _userAddress */\n      dup8\n        /* \"TimeAlly.sol\":11424:11425  i */\n      dup4\n        /* \"TimeAlly.sol\":11427:11440  _currentMonth */\n      dup7\n        /* \"TimeAlly.sol\":11442:11450  _atMonth */\n      dup10\n        /* \"TimeAlly.sol\":11394:11409  isStakingActive */\n      tag_116\n        /* \"TimeAlly.sol\":11394:11451  isStakingActive(_userAddress, i, _currentMonth, _atMonth) */\n      jump\t// in\n    tag_222:\n        /* \"TimeAlly.sol\":11394:11520  isStakingActive(_userAddress, i, _currentMonth, _atMonth)... */\n      dup1\n      iszero\n      tag_223\n      jumpi\n      pop\n        /* \"TimeAlly.sol\":11470:11478  stakings */\n      0x08\n        /* \"TimeAlly.sol\":11470:11492  stakings[_userAddress] */\n      0x00\n        /* \"TimeAlly.sol\":11479:11491  _userAddress */\n      dup9\n        /* \"TimeAlly.sol\":11470:11492  stakings[_userAddress] */\n      0xffffffffffffffffffffffffffffffffffffffff\n      and\n      0xffffffffffffffffffffffffffffffffffffffff\n      and\n      dup2\n      mstore\n      0x20\n      add\n      swap1\n      dup2\n      mstore\n      0x20\n      add\n      0x00\n      keccak256\n        /* \"TimeAlly.sol\":11493:11494  i */\n      dup3\n        /* \"TimeAlly.sol\":11470:11495  stakings[_userAddress][i] */\n      dup2\n      sload\n      dup2\n      lt\n      tag_224\n      jumpi\n      invalid\n    tag_224:\n      swap1\n      0x00\n      mstore\n      keccak256(0x00, 0x20)\n      swap1\n      0x09\n      mul\n      add\n        /* \"TimeAlly.sol\":11470:11510  stakings[_userAddress][i].isMonthClaimed */\n      0x06\n      add\n        /* \"TimeAlly.sol\":11470:11520  stakings[_userAddress][i].isMonthClaimed[_atMonth] */\n      0x00\n        /* \"TimeAlly.sol\":11511:11519  _atMonth */\n      dup8\n        /* \"TimeAlly.sol\":11470:11520  stakings[_userAddress][i].isMonthClaimed[_atMonth] */\n      dup2\n      mstore\n      0x20\n      add\n      swap1\n      dup2\n      mstore\n      0x20\n      add\n      0x00\n      keccak256\n      0x00\n      swap1\n      sload\n      swap1\n      0x0100\n      exp\n      swap1\n      div\n      0xff\n      and\n        /* \"TimeAlly.sol\":11469:11520  !stakings[_userAddress][i].isMonthClaimed[_atMonth] */\n      iszero\n        /* \"TimeAlly.sol\":11394:11520  isStakingActive(_userAddress, i, _currentMonth, _atMonth)... */\n    tag_223:\n        /* \"TimeAlly.sol\":11391:11692  if(isStakingActive(_userAddress, i, _currentMonth, _atMonth)... */\n      iszero\n      tag_226\n      jumpi\n        /* \"TimeAlly.sol\":11572:11677  userActiveStakingsExaEsAmount.add(stakings[_userAddress][i].exaEsAmount.mul(plan.fractionFrom15).div(15)) */\n      tag_227\n        /* \"TimeAlly.sol\":11606:11676  stakings[_userAddress][i].exaEsAmount.mul(plan.fractionFrom15).div(15) */\n      tag_228\n        /* \"TimeAlly.sol\":11673:11675  15 */\n      0x0f\n        /* \"TimeAlly.sol\":11606:11668  stakings[_userAddress][i].exaEsAmount.mul(plan.fractionFrom15) */\n      tag_229\n        /* \"TimeAlly.sol\":11648:11652  plan */\n      dup5\n        /* \"TimeAlly.sol\":11648:11667  plan.fractionFrom15 */\n      0x20\n      add\n      mload\n        /* \"TimeAlly.sol\":11606:11614  stakings */\n      0x08\n        /* \"TimeAlly.sol\":11606:11628  stakings[_userAddress] */\n      0x00\n        /* \"TimeAlly.sol\":11615:11627  _userAddress */\n      dup14\n        /* \"TimeAlly.sol\":11606:11628  stakings[_userAddress] */\n      0xffffffffffffffffffffffffffffffffffffffff\n      and\n      0xffffffffffffffffffffffffffffffffffffffff\n      and\n      dup2\n      mstore\n      0x20\n      add\n      swap1\n      dup2\n      mstore\n      0x20\n      add\n      0x00\n      keccak256\n        /* \"TimeAlly.sol\":11629:11630  i */\n      dup8\n        /* \"TimeAlly.sol\":11606:11631  stakings[_userAddress][i] */\n      dup2\n      sload\n      dup2\n      lt\n      tag_230\n      jumpi\n      invalid\n    tag_230:\n      swap1\n      0x00\n      mstore\n      keccak256(0x00, 0x20)\n      swap1\n      0x09\n      mul\n      add\n        /* \"TimeAlly.sol\":11606:11643  stakings[_userAddress][i].exaEsAmount */\n      0x00\n      add\n      sload\n        /* \"TimeAlly.sol\":11606:11647  stakings[_userAddress][i].exaEsAmount.mul */\n      tag_194\n      swap1\n        /* \"TimeAlly.sol\":11606:11668  stakings[_userAddress][i].exaEsAmount.mul(plan.fractionFrom15) */\n      swap2\n      swap1\n      0xffffffff\n      and\n      jump\t// in\n    tag_229:\n        /* \"TimeAlly.sol\":11606:11672  stakings[_userAddress][i].exaEsAmount.mul(plan.fractionFrom15).div */\n      tag_195\n      swap1\n        /* \"TimeAlly.sol\":11606:11676  stakings[_userAddress][i].exaEsAmount.mul(plan.fractionFrom15).div(15) */\n      swap2\n      swap1\n      0xffffffff\n      and\n      jump\t// in\n    tag_228:\n        /* \"TimeAlly.sol\":11572:11601  userActiveStakingsExaEsAmount */\n      dup5\n        /* \"TimeAlly.sol\":11572:11605  userActiveStakingsExaEsAmount.add */\n      tag_232\n      swap1\n        /* \"TimeAlly.sol\":11572:11677  userActiveStakingsExaEsAmount.add(stakings[_userAddress][i].exaEsAmount.mul(plan.fractionFrom15).div(15)) */\n      swap2\n      swap1\n      0xffffffff\n      and\n      jump\t// in\n    tag_227:\n        /* \"TimeAlly.sol\":11540:11677  userActiveStakingsExaEsAmount = userActiveStakingsExaEsAmount.add(stakings[_userAddress][i].exaEsAmount.mul(plan.fractionFrom15).div(15)) */\n      swap3\n      pop\n        /* \"TimeAlly.sol\":11391:11692  if(isStakingActive(_userAddress, i, _currentMonth, _atMonth)... */\n    tag_226:\n        /* \"TimeAlly.sol\":11153:11702  for(uint256 i = 0; i < stakings[_userAddress].length; i++) {... */\n      pop\n        /* \"TimeAlly.sol\":11207:11210  i++ */\n      dup1\n      dup1\n      0x01\n      add\n      swap2\n      pop\n      pop\n        /* \"TimeAlly.sol\":11153:11702  for(uint256 i = 0; i < stakings[_userAddress].length; i++) {... */\n      jump(tag_213)\n    tag_214:\n      pop\n        /* \"TimeAlly.sol\":11719:11817  userActiveStakingsExaEsAmount.mul(timeAllyMonthlyNRT[_atMonth]).div(totalActiveStakings[_atMonth]) */\n      tag_233\n        /* \"TimeAlly.sol\":11787:11806  totalActiveStakings */\n      0x0a\n        /* \"TimeAlly.sol\":11787:11816  totalActiveStakings[_atMonth] */\n      0x00\n        /* \"TimeAlly.sol\":11807:11815  _atMonth */\n      dup7\n        /* \"TimeAlly.sol\":11787:11816  totalActiveStakings[_atMonth] */\n      dup2\n      mstore\n      0x20\n      add\n      swap1\n      dup2\n      mstore\n      0x20\n      add\n      0x00\n      keccak256\n      sload\n        /* \"TimeAlly.sol\":11719:11782  userActiveStakingsExaEsAmount.mul(timeAllyMonthlyNRT[_atMonth]) */\n      tag_234\n        /* \"TimeAlly.sol\":11753:11771  timeAllyMonthlyNRT */\n      0x05\n        /* \"TimeAlly.sol\":11772:11780  _atMonth */\n      dup8\n        /* \"TimeAlly.sol\":11753:11781  timeAllyMonthlyNRT[_atMonth] */\n      dup2\n      sload\n      dup2\n      lt\n      tag_235\n      jumpi\n      invalid\n    tag_235:\n      swap1\n      0x00\n      mstore\n      keccak256(0x00, 0x20)\n      add\n      sload\n        /* \"TimeAlly.sol\":11719:11748  userActiveStakingsExaEsAmount */\n      dup5\n        /* \"TimeAlly.sol\":11719:11752  userActiveStakingsExaEsAmount.mul */\n      tag_194\n      swap1\n        /* \"TimeAlly.sol\":11719:11782  userActiveStakingsExaEsAmount.mul(timeAllyMonthlyNRT[_atMonth]) */\n      swap2\n      swap1\n      0xffffffff\n      and\n      jump\t// in\n    tag_234:\n        /* \"TimeAlly.sol\":11719:11786  userActiveStakingsExaEsAmount.mul(timeAllyMonthlyNRT[_atMonth]).div */\n      tag_195\n      swap1\n        /* \"TimeAlly.sol\":11719:11817  userActiveStakingsExaEsAmount.mul(timeAllyMonthlyNRT[_atMonth]).div(totalActiveStakings[_atMonth]) */\n      swap2\n      swap1\n      0xffffffff\n      and\n      jump\t// in\n    tag_233:\n        /* \"TimeAlly.sol\":11712:11817  return userActiveStakingsExaEsAmount.mul(timeAllyMonthlyNRT[_atMonth]).div(totalActiveStakings[_atMonth]) */\n      swap3\n      pop\n      pop\n      pop\n        /* \"TimeAlly.sol\":10571:11824  function seeShareForUserByMonth(address _userAddress, uint256 _atMonth) public view returns (uint256) {... */\n    tag_209:\n      swap3\n      swap2\n      pop\n      pop\n      jump\t// out\n        /* \"TimeAlly.sol\":11830:14420  function withdrawShareForUserByMonth(uint256 _atMonth, uint256 _accruedPercentage, bool _stakeAccruedNow, uint256 _accruedsStakingPlan) public {... */\n    tag_65:\n        /* \"TimeAlly.sol\":11983:12004  uint256 _currentMonth */\n      0x00\n        /* \"TimeAlly.sol\":12007:12024  getCurrentMonth() */\n      tag_238\n        /* \"TimeAlly.sol\":12007:12022  getCurrentMonth */\n      tag_148\n        /* \"TimeAlly.sol\":12007:12024  getCurrentMonth() */\n      jump\t// in\n    tag_238:\n        /* \"TimeAlly.sol\":11983:12024  uint256 _currentMonth = getCurrentMonth() */\n      swap1\n      pop\n        /* \"TimeAlly.sol\":12060:12068  _atMonth */\n      dup5\n        /* \"TimeAlly.sol\":12043:12056  _currentMonth */\n      dup2\n        /* \"TimeAlly.sol\":12043:12068  _currentMonth >= _atMonth */\n      lt\n      iszero\n        /* \"TimeAlly.sol\":12035:12104  require(_currentMonth >= _atMonth, 'cannot withdraw future stakings') */\n      tag_239\n      jumpi\n      mload(0x40)\n      0x08c379a000000000000000000000000000000000000000000000000000000000\n      dup2\n      mstore\n      0x04\n      add\n      dup1\n      dup1\n      0x20\n      add\n      dup3\n      dup2\n      sub\n      dup3\n      mstore\n      0x1f\n      dup2\n      mstore\n      0x20\n      add\n      dup1\n      0x63616e6e6f7420776974686472617720667574757265207374616b696e677300\n      dup2\n      mstore\n      pop\n      0x20\n      add\n      swap2\n      pop\n      pop\n      mload(0x40)\n      dup1\n      swap2\n      sub\n      swap1\n      revert\n    tag_239:\n        /* \"TimeAlly.sol\":12151:12152  0 */\n      0x00\n        /* \"TimeAlly.sol\":12118:12137  totalActiveStakings */\n      0x0a\n        /* \"TimeAlly.sol\":12118:12147  totalActiveStakings[_atMonth] */\n      0x00\n        /* \"TimeAlly.sol\":12138:12146  _atMonth */\n      dup8\n        /* \"TimeAlly.sol\":12118:12147  totalActiveStakings[_atMonth] */\n      dup2\n      mstore\n      0x20\n      add\n      swap1\n      dup2\n      mstore\n      0x20\n      add\n      0x00\n      keccak256\n      sload\n        /* \"TimeAlly.sol\":12118:12152  totalActiveStakings[_atMonth] == 0 */\n      eq\n        /* \"TimeAlly.sol\":12115:12237  if(totalActiveStakings[_atMonth] == 0) {... */\n      iszero\n      tag_240\n      jumpi\n        /* \"TimeAlly.sol\":12176:12181  false */\n      0x00\n        /* \"TimeAlly.sol\":12168:12226  require(false, 'total active stakings should be non zero') */\n      tag_241\n      jumpi\n      mload(0x40)\n      0x08c379a000000000000000000000000000000000000000000000000000000000\n      dup2\n      mstore\n      0x04\n      add\n      dup1\n      dup1\n      0x20\n      add\n      dup3\n      dup2\n      sub\n      dup3\n      mstore\n      0x28\n      dup2\n      mstore\n      0x20\n      add\n      dup1\n      data_befd38e7335fb8237cef118812ecee5a2b8ea845f685bf397227db9c69bef0b5\n      0x28\n      swap2\n      codecopy\n      0x40\n      add\n      swap2\n      pop\n      pop\n      mload(0x40)\n      dup1\n      swap2\n      sub\n      swap1\n      revert\n    tag_241:\n        /* \"TimeAlly.sol\":12115:12237  if(totalActiveStakings[_atMonth] == 0) {... */\n    tag_240:\n        /* \"TimeAlly.sol\":12277:12279  50 */\n      0x32\n        /* \"TimeAlly.sol\":12255:12273  _accruedPercentage */\n      dup5\n        /* \"TimeAlly.sol\":12255:12279  _accruedPercentage >= 50 */\n      lt\n      iszero\n        /* \"TimeAlly.sol\":12247:12323  require(_accruedPercentage >= 50, 'accruedPercentage should be at least 50') */\n      tag_242\n      jumpi\n      mload(0x40)\n      0x08c379a000000000000000000000000000000000000000000000000000000000\n      dup2\n      mstore\n      0x04\n      add\n      dup1\n      dup1\n      0x20\n      add\n      dup3\n      dup2\n      sub\n      dup3\n      mstore\n      0x27\n      dup2\n      mstore\n      0x20\n      add\n      dup1\n      data_93da6dd610d9fefb6e1313dcbf2bddd65b198696b7b6534428823c79c90920b5\n      0x27\n      swap2\n      codecopy\n      0x40\n      add\n      swap2\n      pop\n      pop\n      mload(0x40)\n      dup1\n      swap2\n      sub\n      swap1\n      revert\n    tag_242:\n        /* \"TimeAlly.sol\":12334:12372  uint256 _userActiveStakingsExaEsAmount */\n      0x00\n        /* \"TimeAlly.sol\":12382:12415  uint256 _shareTotalCurrentAccrued */\n      dup1\n        /* \"TimeAlly.sol\":12430:12439  uint256 i */\n      0x00\n        /* \"TimeAlly.sol\":12442:12443  0 */\n      dup1\n        /* \"TimeAlly.sol\":12430:12443  uint256 i = 0 */\n      swap1\n      pop\n        /* \"TimeAlly.sol\":12426:13922  for(uint256 i = 0; i < stakings[msg.sender].length; i++) {... */\n    tag_243:\n        /* \"TimeAlly.sol\":12449:12457  stakings */\n      0x08\n        /* \"TimeAlly.sol\":12449:12469  stakings[msg.sender] */\n      0x00\n        /* \"TimeAlly.sol\":12458:12468  msg.sender */\n      caller\n        /* \"TimeAlly.sol\":12449:12469  stakings[msg.sender] */\n      0xffffffffffffffffffffffffffffffffffffffff\n      and\n      0xffffffffffffffffffffffffffffffffffffffff\n      and\n      dup2\n      mstore\n      0x20\n      add\n      swap1\n      dup2\n      mstore\n      0x20\n      add\n      0x00\n      keccak256\n        /* \"TimeAlly.sol\":12449:12476  stakings[msg.sender].length */\n      dup1\n      sload\n      swap1\n      pop\n        /* \"TimeAlly.sol\":12445:12446  i */\n      dup2\n        /* \"TimeAlly.sol\":12445:12476  i < stakings[msg.sender].length */\n      lt\n        /* \"TimeAlly.sol\":12426:13922  for(uint256 i = 0; i < stakings[msg.sender].length; i++) {... */\n      iszero\n      tag_244\n      jumpi\n        /* \"TimeAlly.sol\":12497:12521  StakingPlan memory _plan */\n      tag_246\n      tag_217\n      jump\t// in\n    tag_246:\n        /* \"TimeAlly.sol\":12524:12536  stakingPlans */\n      0x06\n        /* \"TimeAlly.sol\":12538:12546  stakings */\n      0x08\n        /* \"TimeAlly.sol\":12538:12558  stakings[msg.sender] */\n      0x00\n        /* \"TimeAlly.sol\":12547:12557  msg.sender */\n      caller\n        /* \"TimeAlly.sol\":12538:12558  stakings[msg.sender] */\n      0xffffffffffffffffffffffffffffffffffffffff\n      and\n      0xffffffffffffffffffffffffffffffffffffffff\n      and\n      dup2\n      mstore\n      0x20\n      add\n      swap1\n      dup2\n      mstore\n      0x20\n      add\n      0x00\n      keccak256\n        /* \"TimeAlly.sol\":12559:12560  i */\n      dup4\n        /* \"TimeAlly.sol\":12538:12561  stakings[msg.sender][i] */\n      dup2\n      sload\n      dup2\n      lt\n      tag_247\n      jumpi\n      invalid\n    tag_247:\n      swap1\n      0x00\n      mstore\n      keccak256(0x00, 0x20)\n      swap1\n      0x09\n      mul\n      add\n        /* \"TimeAlly.sol\":12538:12575  stakings[msg.sender][i].stakingPlanId */\n      0x02\n      add\n      sload\n        /* \"TimeAlly.sol\":12524:12577  stakingPlans[ stakings[msg.sender][i].stakingPlanId ] */\n      dup2\n      sload\n      dup2\n      lt\n      tag_249\n      jumpi\n      invalid\n    tag_249:\n      swap1\n      0x00\n      mstore\n      keccak256(0x00, 0x20)\n      swap1\n      0x02\n      mul\n      add\n        /* \"TimeAlly.sol\":12497:12577  StakingPlan memory _plan = stakingPlans[ stakings[msg.sender][i].stakingPlanId ] */\n      mload(0x40)\n      dup1\n      0x40\n      add\n      0x40\n      mstore\n      swap1\n      dup2\n      0x00\n      dup3\n      add\n      sload\n      dup2\n      mstore\n      0x20\n      add\n      0x01\n      dup3\n      add\n      sload\n      dup2\n      mstore\n      pop\n      pop\n      swap1\n      pop\n        /* \"TimeAlly.sol\":12664:12719  isStakingActive(msg.sender, i, _currentMonth, _atMonth) */\n      tag_251\n        /* \"TimeAlly.sol\":12680:12690  msg.sender */\n      caller\n        /* \"TimeAlly.sol\":12692:12693  i */\n      dup4\n        /* \"TimeAlly.sol\":12695:12708  _currentMonth */\n      dup8\n        /* \"TimeAlly.sol\":12710:12718  _atMonth */\n      dup13\n        /* \"TimeAlly.sol\":12664:12679  isStakingActive */\n      tag_116\n        /* \"TimeAlly.sol\":12664:12719  isStakingActive(msg.sender, i, _currentMonth, _atMonth) */\n      jump\t// in\n    tag_251:\n        /* \"TimeAlly.sol\":12664:12786  isStakingActive(msg.sender, i, _currentMonth, _atMonth)... */\n      dup1\n      iszero\n      tag_252\n      jumpi\n      pop\n        /* \"TimeAlly.sol\":12738:12746  stakings */\n      0x08\n        /* \"TimeAlly.sol\":12738:12758  stakings[msg.sender] */\n      0x00\n        /* \"TimeAlly.sol\":12747:12757  msg.sender */\n      caller\n        /* \"TimeAlly.sol\":12738:12758  stakings[msg.sender] */\n      0xffffffffffffffffffffffffffffffffffffffff\n      and\n      0xffffffffffffffffffffffffffffffffffffffff\n      and\n      dup2\n      mstore\n      0x20\n      add\n      swap1\n      dup2\n      mstore\n      0x20\n      add\n      0x00\n      keccak256\n        /* \"TimeAlly.sol\":12759:12760  i */\n      dup3\n        /* \"TimeAlly.sol\":12738:12761  stakings[msg.sender][i] */\n      dup2\n      sload\n      dup2\n      lt\n      tag_253\n      jumpi\n      invalid\n    tag_253:\n      swap1\n      0x00\n      mstore\n      keccak256(0x00, 0x20)\n      swap1\n      0x09\n      mul\n      add\n        /* \"TimeAlly.sol\":12738:12776  stakings[msg.sender][i].isMonthClaimed */\n      0x06\n      add\n        /* \"TimeAlly.sol\":12738:12786  stakings[msg.sender][i].isMonthClaimed[_atMonth] */\n      0x00\n        /* \"TimeAlly.sol\":12777:12785  _atMonth */\n      dup11\n        /* \"TimeAlly.sol\":12738:12786  stakings[msg.sender][i].isMonthClaimed[_atMonth] */\n      dup2\n      mstore\n      0x20\n      add\n      swap1\n      dup2\n      mstore\n      0x20\n      add\n      0x00\n      keccak256\n      0x00\n      swap1\n      sload\n      swap1\n      0x0100\n      exp\n      swap1\n      div\n      0xff\n      and\n        /* \"TimeAlly.sol\":12737:12786  !stakings[msg.sender][i].isMonthClaimed[_atMonth] */\n      iszero\n        /* \"TimeAlly.sol\":12664:12786  isStakingActive(msg.sender, i, _currentMonth, _atMonth)... */\n    tag_252:\n        /* \"TimeAlly.sol\":12661:13912  if(isStakingActive(msg.sender, i, _currentMonth, _atMonth)... */\n      iszero\n      tag_255\n      jumpi\n        /* \"TimeAlly.sol\":12857:12861  true */\n      0x01\n        /* \"TimeAlly.sol\":12806:12814  stakings */\n      0x08\n        /* \"TimeAlly.sol\":12806:12826  stakings[msg.sender] */\n      0x00\n        /* \"TimeAlly.sol\":12815:12825  msg.sender */\n      caller\n        /* \"TimeAlly.sol\":12806:12826  stakings[msg.sender] */\n      0xffffffffffffffffffffffffffffffffffffffff\n      and\n      0xffffffffffffffffffffffffffffffffffffffff\n      and\n      dup2\n      mstore\n      0x20\n      add\n      swap1\n      dup2\n      mstore\n      0x20\n      add\n      0x00\n      keccak256\n        /* \"TimeAlly.sol\":12827:12828  i */\n      dup4\n        /* \"TimeAlly.sol\":12806:12829  stakings[msg.sender][i] */\n      dup2\n      sload\n      dup2\n      lt\n      tag_256\n      jumpi\n      invalid\n    tag_256:\n      swap1\n      0x00\n      mstore\n      keccak256(0x00, 0x20)\n      swap1\n      0x09\n      mul\n      add\n        /* \"TimeAlly.sol\":12806:12844  stakings[msg.sender][i].isMonthClaimed */\n      0x06\n      add\n        /* \"TimeAlly.sol\":12806:12854  stakings[msg.sender][i].isMonthClaimed[_atMonth] */\n      0x00\n        /* \"TimeAlly.sol\":12845:12853  _atMonth */\n      dup12\n        /* \"TimeAlly.sol\":12806:12854  stakings[msg.sender][i].isMonthClaimed[_atMonth] */\n      dup2\n      mstore\n      0x20\n      add\n      swap1\n      dup2\n      mstore\n      0x20\n      add\n      0x00\n      keccak256\n      0x00\n        /* \"TimeAlly.sol\":12806:12861  stakings[msg.sender][i].isMonthClaimed[_atMonth] = true */\n      0x0100\n      exp\n      dup2\n      sload\n      dup2\n      0xff\n      mul\n      not\n      and\n      swap1\n      dup4\n      iszero\n      iszero\n      mul\n      or\n      swap1\n      sstore\n      pop\n        /* \"TimeAlly.sol\":12950:12974  uint256 _effectiveAmount */\n      0x00\n        /* \"TimeAlly.sol\":12977:13046  stakings[msg.sender][i].exaEsAmount.mul(_plan.fractionFrom15).div(15) */\n      tag_258\n        /* \"TimeAlly.sol\":13043:13045  15 */\n      0x0f\n        /* \"TimeAlly.sol\":12977:13038  stakings[msg.sender][i].exaEsAmount.mul(_plan.fractionFrom15) */\n      tag_259\n        /* \"TimeAlly.sol\":13017:13022  _plan */\n      dup5\n        /* \"TimeAlly.sol\":13017:13037  _plan.fractionFrom15 */\n      0x20\n      add\n      mload\n        /* \"TimeAlly.sol\":12977:12985  stakings */\n      0x08\n        /* \"TimeAlly.sol\":12977:12997  stakings[msg.sender] */\n      0x00\n        /* \"TimeAlly.sol\":12986:12996  msg.sender */\n      caller\n        /* \"TimeAlly.sol\":12977:12997  stakings[msg.sender] */\n      0xffffffffffffffffffffffffffffffffffffffff\n      and\n      0xffffffffffffffffffffffffffffffffffffffff\n      and\n      dup2\n      mstore\n      0x20\n      add\n      swap1\n      dup2\n      mstore\n      0x20\n      add\n      0x00\n      keccak256\n        /* \"TimeAlly.sol\":12998:12999  i */\n      dup8\n        /* \"TimeAlly.sol\":12977:13000  stakings[msg.sender][i] */\n      dup2\n      sload\n      dup2\n      lt\n      tag_260\n      jumpi\n      invalid\n    tag_260:\n      swap1\n      0x00\n      mstore\n      keccak256(0x00, 0x20)\n      swap1\n      0x09\n      mul\n      add\n        /* \"TimeAlly.sol\":12977:13012  stakings[msg.sender][i].exaEsAmount */\n      0x00\n      add\n      sload\n        /* \"TimeAlly.sol\":12977:13016  stakings[msg.sender][i].exaEsAmount.mul */\n      tag_194\n      swap1\n        /* \"TimeAlly.sol\":12977:13038  stakings[msg.sender][i].exaEsAmount.mul(_plan.fractionFrom15) */\n      swap2\n      swap1\n      0xffffffff\n      and\n      jump\t// in\n    tag_259:\n        /* \"TimeAlly.sol\":12977:13042  stakings[msg.sender][i].exaEsAmount.mul(_plan.fractionFrom15).div */\n      tag_195\n      swap1\n        /* \"TimeAlly.sol\":12977:13046  stakings[msg.sender][i].exaEsAmount.mul(_plan.fractionFrom15).div(15) */\n      swap2\n      swap1\n      0xffffffff\n      and\n      jump\t// in\n    tag_258:\n        /* \"TimeAlly.sol\":12950:13046  uint256 _effectiveAmount = stakings[msg.sender][i].exaEsAmount.mul(_plan.fractionFrom15).div(15) */\n      swap1\n      pop\n        /* \"TimeAlly.sol\":13064:13085  uint256 _accruedShare */\n      0x00\n        /* \"TimeAlly.sol\":13088:13345  _effectiveAmount... */\n      tag_262\n        /* \"TimeAlly.sol\":13341:13344  100 */\n      0x64\n        /* \"TimeAlly.sol\":13088:13336  _effectiveAmount... */\n      tag_263\n        /* \"TimeAlly.sol\":13317:13335  _accruedPercentage */\n      dup13\n        /* \"TimeAlly.sol\":13088:13269  _effectiveAmount... */\n      tag_264\n        /* \"TimeAlly.sol\":13234:13253  totalActiveStakings */\n      0x0a\n        /* \"TimeAlly.sol\":13234:13268  totalActiveStakings[_currentMonth] */\n      0x00\n        /* \"TimeAlly.sol\":13254:13267  _currentMonth */\n      dup14\n        /* \"TimeAlly.sol\":13234:13268  totalActiveStakings[_currentMonth] */\n      dup2\n      mstore\n      0x20\n      add\n      swap1\n      dup2\n      mstore\n      0x20\n      add\n      0x00\n      keccak256\n      sload\n        /* \"TimeAlly.sol\":13088:13186  _effectiveAmount... */\n      tag_265\n        /* \"TimeAlly.sol\":13152:13170  timeAllyMonthlyNRT */\n      0x05\n        /* \"TimeAlly.sol\":13171:13184  _currentMonth */\n      dup15\n        /* \"TimeAlly.sol\":13152:13185  timeAllyMonthlyNRT[_currentMonth] */\n      dup2\n      sload\n      dup2\n      lt\n      tag_266\n      jumpi\n      invalid\n    tag_266:\n      swap1\n      0x00\n      mstore\n      keccak256(0x00, 0x20)\n      add\n      sload\n        /* \"TimeAlly.sol\":13088:13104  _effectiveAmount */\n      dup10\n        /* \"TimeAlly.sol\":13088:13151  _effectiveAmount... */\n      tag_194\n      swap1\n        /* \"TimeAlly.sol\":13088:13186  _effectiveAmount... */\n      swap2\n      swap1\n      0xffffffff\n      and\n      jump\t// in\n    tag_265:\n        /* \"TimeAlly.sol\":13088:13233  _effectiveAmount... */\n      tag_195\n      swap1\n        /* \"TimeAlly.sol\":13088:13269  _effectiveAmount... */\n      swap2\n      swap1\n      0xffffffff\n      and\n      jump\t// in\n    tag_264:\n        /* \"TimeAlly.sol\":13088:13316  _effectiveAmount... */\n      tag_194\n      swap1\n        /* \"TimeAlly.sol\":13088:13336  _effectiveAmount... */\n      swap2\n      swap1\n      0xffffffff\n      and\n      jump\t// in\n    tag_263:\n        /* \"TimeAlly.sol\":13088:13340  _effectiveAmount... */\n      tag_195\n      swap1\n        /* \"TimeAlly.sol\":13088:13345  _effectiveAmount... */\n      swap2\n      swap1\n      0xffffffff\n      and\n      jump\t// in\n    tag_262:\n        /* \"TimeAlly.sol\":13064:13345  uint256 _accruedShare = _effectiveAmount... */\n      swap1\n      pop\n        /* \"TimeAlly.sol\":13366:13382  _stakeAccruedNow */\n      dup9\n        /* \"TimeAlly.sol\":13363:13795  if(_stakeAccruedNow) {... */\n      iszero\n      tag_268\n      jumpi\n        /* \"TimeAlly.sol\":13524:13568  _shareTotalCurrentAccrued.add(_accruedShare) */\n      tag_269\n        /* \"TimeAlly.sol\":13554:13567  _accruedShare */\n      dup2\n        /* \"TimeAlly.sol\":13524:13549  _shareTotalCurrentAccrued */\n      dup7\n        /* \"TimeAlly.sol\":13524:13553  _shareTotalCurrentAccrued.add */\n      tag_232\n      swap1\n        /* \"TimeAlly.sol\":13524:13568  _shareTotalCurrentAccrued.add(_accruedShare) */\n      swap2\n      swap1\n      0xffffffff\n      and\n      jump\t// in\n    tag_269:\n        /* \"TimeAlly.sol\":13496:13568  _shareTotalCurrentAccrued = _shareTotalCurrentAccrued.add(_accruedShare) */\n      swap5\n      pop\n        /* \"TimeAlly.sol\":13363:13795  if(_stakeAccruedNow) {... */\n      jump(tag_270)\n    tag_268:\n        /* \"TimeAlly.sol\":13715:13776  stakings[msg.sender][i].accruedExaEsAmount.add(_accruedShare) */\n      tag_271\n        /* \"TimeAlly.sol\":13762:13775  _accruedShare */\n      dup2\n        /* \"TimeAlly.sol\":13715:13723  stakings */\n      0x08\n        /* \"TimeAlly.sol\":13715:13735  stakings[msg.sender] */\n      0x00\n        /* \"TimeAlly.sol\":13724:13734  msg.sender */\n      caller\n        /* \"TimeAlly.sol\":13715:13735  stakings[msg.sender] */\n      0xffffffffffffffffffffffffffffffffffffffff\n      and\n      0xffffffffffffffffffffffffffffffffffffffff\n      and\n      dup2\n      mstore\n      0x20\n      add\n      swap1\n      dup2\n      mstore\n      0x20\n      add\n      0x00\n      keccak256\n        /* \"TimeAlly.sol\":13736:13737  i */\n      dup7\n        /* \"TimeAlly.sol\":13715:13738  stakings[msg.sender][i] */\n      dup2\n      sload\n      dup2\n      lt\n      tag_272\n      jumpi\n      invalid\n    tag_272:\n      swap1\n      0x00\n      mstore\n      keccak256(0x00, 0x20)\n      swap1\n      0x09\n      mul\n      add\n        /* \"TimeAlly.sol\":13715:13757  stakings[msg.sender][i].accruedExaEsAmount */\n      0x04\n      add\n      sload\n        /* \"TimeAlly.sol\":13715:13761  stakings[msg.sender][i].accruedExaEsAmount.add */\n      tag_232\n      swap1\n        /* \"TimeAlly.sol\":13715:13776  stakings[msg.sender][i].accruedExaEsAmount.add(_accruedShare) */\n      swap2\n      swap1\n      0xffffffff\n      and\n      jump\t// in\n    tag_271:\n        /* \"TimeAlly.sol\":13670:13678  stakings */\n      0x08\n        /* \"TimeAlly.sol\":13670:13690  stakings[msg.sender] */\n      0x00\n        /* \"TimeAlly.sol\":13679:13689  msg.sender */\n      caller\n        /* \"TimeAlly.sol\":13670:13690  stakings[msg.sender] */\n      0xffffffffffffffffffffffffffffffffffffffff\n      and\n      0xffffffffffffffffffffffffffffffffffffffff\n      and\n      dup2\n      mstore\n      0x20\n      add\n      swap1\n      dup2\n      mstore\n      0x20\n      add\n      0x00\n      keccak256\n        /* \"TimeAlly.sol\":13691:13692  i */\n      dup6\n        /* \"TimeAlly.sol\":13670:13693  stakings[msg.sender][i] */\n      dup2\n      sload\n      dup2\n      lt\n      tag_274\n      jumpi\n      invalid\n    tag_274:\n      swap1\n      0x00\n      mstore\n      keccak256(0x00, 0x20)\n      swap1\n      0x09\n      mul\n      add\n        /* \"TimeAlly.sol\":13670:13712  stakings[msg.sender][i].accruedExaEsAmount */\n      0x04\n      add\n        /* \"TimeAlly.sol\":13670:13776  stakings[msg.sender][i].accruedExaEsAmount = stakings[msg.sender][i].accruedExaEsAmount.add(_accruedShare) */\n      dup2\n      swap1\n      sstore\n      pop\n        /* \"TimeAlly.sol\":13363:13795  if(_stakeAccruedNow) {... */\n    tag_270:\n        /* \"TimeAlly.sol\":13845:13897  _userActiveStakingsExaEsAmount.add(_effectiveAmount) */\n      tag_276\n        /* \"TimeAlly.sol\":13880:13896  _effectiveAmount */\n      dup3\n        /* \"TimeAlly.sol\":13845:13875  _userActiveStakingsExaEsAmount */\n      dup8\n        /* \"TimeAlly.sol\":13845:13879  _userActiveStakingsExaEsAmount.add */\n      tag_232\n      swap1\n        /* \"TimeAlly.sol\":13845:13897  _userActiveStakingsExaEsAmount.add(_effectiveAmount) */\n      swap2\n      swap1\n      0xffffffff\n      and\n      jump\t// in\n    tag_276:\n        /* \"TimeAlly.sol\":13812:13897  _userActiveStakingsExaEsAmount = _userActiveStakingsExaEsAmount.add(_effectiveAmount) */\n      swap6\n      pop\n        /* \"TimeAlly.sol\":12661:13912  if(isStakingActive(msg.sender, i, _currentMonth, _atMonth)... */\n      pop\n      pop\n    tag_255:\n        /* \"TimeAlly.sol\":12426:13922  for(uint256 i = 0; i < stakings[msg.sender].length; i++) {... */\n      pop\n        /* \"TimeAlly.sol\":12478:12481  i++ */\n      dup1\n      dup1\n      0x01\n      add\n      swap2\n      pop\n      pop\n        /* \"TimeAlly.sol\":12426:13922  for(uint256 i = 0; i < stakings[msg.sender].length; i++) {... */\n      jump(tag_243)\n    tag_244:\n      pop\n        /* \"TimeAlly.sol\":13932:13952  uint256 _liquidShare */\n      0x00\n        /* \"TimeAlly.sol\":13955:14202  _userActiveStakingsExaEsAmount... */\n      tag_277\n        /* \"TimeAlly.sol\":14198:14201  100 */\n      0x64\n        /* \"TimeAlly.sol\":13955:14193  _userActiveStakingsExaEsAmount... */\n      tag_278\n        /* \"TimeAlly.sol\":14174:14192  _accruedPercentage */\n      dup10\n        /* \"TimeAlly.sol\":14168:14171  100 */\n      0x64\n        /* \"TimeAlly.sol\":14168:14192  100 - _accruedPercentage */\n      sub\n        /* \"TimeAlly.sol\":13955:14130  _userActiveStakingsExaEsAmount... */\n      tag_279\n        /* \"TimeAlly.sol\":14095:14114  totalActiveStakings */\n      0x0a\n        /* \"TimeAlly.sol\":14095:14129  totalActiveStakings[_currentMonth] */\n      0x00\n        /* \"TimeAlly.sol\":14115:14128  _currentMonth */\n      dup11\n        /* \"TimeAlly.sol\":14095:14129  totalActiveStakings[_currentMonth] */\n      dup2\n      mstore\n      0x20\n      add\n      swap1\n      dup2\n      mstore\n      0x20\n      add\n      0x00\n      keccak256\n      sload\n        /* \"TimeAlly.sol\":13955:14057  _userActiveStakingsExaEsAmount... */\n      tag_280\n        /* \"TimeAlly.sol\":14023:14041  timeAllyMonthlyNRT */\n      0x05\n        /* \"TimeAlly.sol\":14042:14055  _currentMonth */\n      dup12\n        /* \"TimeAlly.sol\":14023:14056  timeAllyMonthlyNRT[_currentMonth] */\n      dup2\n      sload\n      dup2\n      lt\n      tag_281\n      jumpi\n      invalid\n    tag_281:\n      swap1\n      0x00\n      mstore\n      keccak256(0x00, 0x20)\n      add\n      sload\n        /* \"TimeAlly.sol\":13955:13985  _userActiveStakingsExaEsAmount */\n      dup11\n        /* \"TimeAlly.sol\":13955:14022  _userActiveStakingsExaEsAmount... */\n      tag_194\n      swap1\n        /* \"TimeAlly.sol\":13955:14057  _userActiveStakingsExaEsAmount... */\n      swap2\n      swap1\n      0xffffffff\n      and\n      jump\t// in\n    tag_280:\n        /* \"TimeAlly.sol\":13955:14094  _userActiveStakingsExaEsAmount... */\n      tag_195\n      swap1\n        /* \"TimeAlly.sol\":13955:14130  _userActiveStakingsExaEsAmount... */\n      swap2\n      swap1\n      0xffffffff\n      and\n      jump\t// in\n    tag_279:\n        /* \"TimeAlly.sol\":13955:14167  _userActiveStakingsExaEsAmount... */\n      tag_194\n      swap1\n        /* \"TimeAlly.sol\":13955:14193  _userActiveStakingsExaEsAmount... */\n      swap2\n      swap1\n      0xffffffff\n      and\n      jump\t// in\n    tag_278:\n        /* \"TimeAlly.sol\":13955:14197  _userActiveStakingsExaEsAmount... */\n      tag_195\n      swap1\n        /* \"TimeAlly.sol\":13955:14202  _userActiveStakingsExaEsAmount... */\n      swap2\n      swap1\n      0xffffffff\n      and\n      jump\t// in\n    tag_277:\n        /* \"TimeAlly.sol\":13932:14202  uint256 _liquidShare = _userActiveStakingsExaEsAmount... */\n      swap1\n      pop\n        /* \"TimeAlly.sol\":14231:14232  0 */\n      0x00\n        /* \"TimeAlly.sol\":14216:14228  _liquidShare */\n      dup2\n        /* \"TimeAlly.sol\":14216:14232  _liquidShare > 0 */\n      gt\n        /* \"TimeAlly.sol\":14213:14299  if(_liquidShare > 0) {... */\n      iszero\n      tag_283\n      jumpi\n        /* \"TimeAlly.sol\":14248:14253  token */\n      0x01\n      0x00\n      swap1\n      sload\n      swap1\n      0x0100\n      exp\n      swap1\n      div\n      0xffffffffffffffffffffffffffffffffffffffff\n      and\n        /* \"TimeAlly.sol\":14248:14262  token.transfer */\n      0xffffffffffffffffffffffffffffffffffffffff\n      and\n      0xa9059cbb\n        /* \"TimeAlly.sol\":14263:14273  msg.sender */\n      caller\n        /* \"TimeAlly.sol\":14275:14287  _liquidShare */\n      dup4\n        /* \"TimeAlly.sol\":14248:14288  token.transfer(msg.sender, _liquidShare) */\n      mload(0x40)\n      dup4\n      0xffffffff\n      and\n      0xe0\n      shl\n      dup2\n      mstore\n      0x04\n      add\n      dup1\n      dup4\n      0xffffffffffffffffffffffffffffffffffffffff\n      and\n      0xffffffffffffffffffffffffffffffffffffffff\n      and\n      dup2\n      mstore\n      0x20\n      add\n      dup3\n      dup2\n      mstore\n      0x20\n      add\n      swap3\n      pop\n      pop\n      pop\n      0x20\n      mload(0x40)\n      dup1\n      dup4\n      sub\n      dup2\n      0x00\n      dup8\n      dup1\n      extcodesize\n      iszero\n        /* \"--CODEGEN--\":8:17   */\n      dup1\n        /* \"--CODEGEN--\":5:7   */\n      iszero\n      tag_284\n      jumpi\n        /* \"--CODEGEN--\":30:31   */\n      0x00\n        /* \"--CODEGEN--\":27:28   */\n      dup1\n        /* \"--CODEGEN--\":20:32   */\n      revert\n        /* \"--CODEGEN--\":5:7   */\n    tag_284:\n        /* \"TimeAlly.sol\":14248:14288  token.transfer(msg.sender, _liquidShare) */\n      pop\n      gas\n      call\n      iszero\n        /* \"--CODEGEN--\":8:17   */\n      dup1\n        /* \"--CODEGEN--\":5:7   */\n      iszero\n      tag_285\n      jumpi\n        /* \"--CODEGEN--\":45:61   */\n      returndatasize\n        /* \"--CODEGEN--\":42:43   */\n      0x00\n        /* \"--CODEGEN--\":39:40   */\n      dup1\n        /* \"--CODEGEN--\":24:62   */\n      returndatacopy\n        /* \"--CODEGEN--\":77:93   */\n      returndatasize\n        /* \"--CODEGEN--\":74:75   */\n      0x00\n        /* \"--CODEGEN--\":67:94   */\n      revert\n        /* \"--CODEGEN--\":5:7   */\n    tag_285:\n        /* \"TimeAlly.sol\":14248:14288  token.transfer(msg.sender, _liquidShare) */\n      pop\n      pop\n      pop\n      pop\n      mload(0x40)\n      returndatasize\n        /* \"--CODEGEN--\":13:15   */\n      0x20\n        /* \"--CODEGEN--\":8:11   */\n      dup2\n        /* \"--CODEGEN--\":5:16   */\n      lt\n        /* \"--CODEGEN--\":2:4   */\n      iszero\n      tag_286\n      jumpi\n        /* \"--CODEGEN--\":29:30   */\n      0x00\n        /* \"--CODEGEN--\":26:27   */\n      dup1\n        /* \"--CODEGEN--\":19:31   */\n      revert\n        /* \"--CODEGEN--\":2:4   */\n    tag_286:\n        /* \"TimeAlly.sol\":14248:14288  token.transfer(msg.sender, _liquidShare) */\n      dup2\n      add\n      swap1\n      dup1\n      dup1\n      mload\n      swap1\n      0x20\n      add\n      swap1\n      swap3\n      swap2\n      swap1\n      pop\n      pop\n      pop\n      pop\n        /* \"TimeAlly.sol\":14213:14299  if(_liquidShare > 0) {... */\n    tag_283:\n        /* \"TimeAlly.sol\":14312:14328  _stakeAccruedNow */\n      dup6\n        /* \"TimeAlly.sol\":14309:14414  if(_stakeAccruedNow) {... */\n      iszero\n      tag_287\n      jumpi\n        /* \"TimeAlly.sol\":14344:14403  newStaking(_shareTotalCurrentAccrued, _accruedsStakingPlan) */\n      tag_288\n        /* \"TimeAlly.sol\":14355:14380  _shareTotalCurrentAccrued */\n      dup3\n        /* \"TimeAlly.sol\":14382:14402  _accruedsStakingPlan */\n      dup7\n        /* \"TimeAlly.sol\":14344:14354  newStaking */\n      tag_154\n        /* \"TimeAlly.sol\":14344:14403  newStaking(_shareTotalCurrentAccrued, _accruedsStakingPlan) */\n      jump\t// in\n    tag_288:\n        /* \"TimeAlly.sol\":14309:14414  if(_stakeAccruedNow) {... */\n    tag_287:\n        /* \"TimeAlly.sol\":11830:14420  function withdrawShareForUserByMonth(uint256 _atMonth, uint256 _accruedPercentage, bool _stakeAccruedNow, uint256 _accruedsStakingPlan) public {... */\n      pop\n      pop\n      pop\n      pop\n      pop\n      pop\n      pop\n      pop\n      jump\t// out\n        /* \"TimeAlly.sol\":14426:14826  function restakeAccrued(uint256 _stakingId, uint256 _stakingPlanId) public {... */\n    tag_68:\n        /* \"TimeAlly.sol\":14573:14574  0 */\n      0x00\n        /* \"TimeAlly.sol\":14519:14527  stakings */\n      0x08\n        /* \"TimeAlly.sol\":14519:14539  stakings[msg.sender] */\n      0x00\n        /* \"TimeAlly.sol\":14528:14538  msg.sender */\n      caller\n        /* \"TimeAlly.sol\":14519:14539  stakings[msg.sender] */\n      0xffffffffffffffffffffffffffffffffffffffff\n      and\n      0xffffffffffffffffffffffffffffffffffffffff\n      and\n      dup2\n      mstore\n      0x20\n      add\n      swap1\n      dup2\n      mstore\n      0x20\n      add\n      0x00\n      keccak256\n        /* \"TimeAlly.sol\":14540:14550  _stakingId */\n      dup4\n        /* \"TimeAlly.sol\":14519:14551  stakings[msg.sender][_stakingId] */\n      dup2\n      sload\n      dup2\n      lt\n      tag_290\n      jumpi\n      invalid\n    tag_290:\n      swap1\n      0x00\n      mstore\n      keccak256(0x00, 0x20)\n      swap1\n      0x09\n      mul\n      add\n        /* \"TimeAlly.sol\":14519:14570  stakings[msg.sender][_stakingId].accruedExaEsAmount */\n      0x04\n      add\n      sload\n        /* \"TimeAlly.sol\":14519:14574  stakings[msg.sender][_stakingId].accruedExaEsAmount > 0 */\n      gt\n        /* \"TimeAlly.sol\":14511:14575  require(stakings[msg.sender][_stakingId].accruedExaEsAmount > 0) */\n      tag_292\n      jumpi\n      0x00\n      dup1\n      revert\n    tag_292:\n        /* \"TimeAlly.sol\":14586:14613  uint256 _accruedExaEsAmount */\n      0x00\n        /* \"TimeAlly.sol\":14616:14624  stakings */\n      0x08\n        /* \"TimeAlly.sol\":14616:14636  stakings[msg.sender] */\n      0x00\n        /* \"TimeAlly.sol\":14625:14635  msg.sender */\n      caller\n        /* \"TimeAlly.sol\":14616:14636  stakings[msg.sender] */\n      0xffffffffffffffffffffffffffffffffffffffff\n      and\n      0xffffffffffffffffffffffffffffffffffffffff\n      and\n      dup2\n      mstore\n      0x20\n      add\n      swap1\n      dup2\n      mstore\n      0x20\n      add\n      0x00\n      keccak256\n        /* \"TimeAlly.sol\":14637:14647  _stakingId */\n      dup4\n        /* \"TimeAlly.sol\":14616:14648  stakings[msg.sender][_stakingId] */\n      dup2\n      sload\n      dup2\n      lt\n      tag_293\n      jumpi\n      invalid\n    tag_293:\n      swap1\n      0x00\n      mstore\n      keccak256(0x00, 0x20)\n      swap1\n      0x09\n      mul\n      add\n        /* \"TimeAlly.sol\":14616:14667  stakings[msg.sender][_stakingId].accruedExaEsAmount */\n      0x04\n      add\n      sload\n        /* \"TimeAlly.sol\":14586:14667  uint256 _accruedExaEsAmount = stakings[msg.sender][_stakingId].accruedExaEsAmount */\n      swap1\n      pop\n        /* \"TimeAlly.sol\":14731:14732  0 */\n      0x00\n        /* \"TimeAlly.sol\":14677:14685  stakings */\n      0x08\n        /* \"TimeAlly.sol\":14677:14697  stakings[msg.sender] */\n      0x00\n        /* \"TimeAlly.sol\":14686:14696  msg.sender */\n      caller\n        /* \"TimeAlly.sol\":14677:14697  stakings[msg.sender] */\n      0xffffffffffffffffffffffffffffffffffffffff\n      and\n      0xffffffffffffffffffffffffffffffffffffffff\n      and\n      dup2\n      mstore\n      0x20\n      add\n      swap1\n      dup2\n      mstore\n      0x20\n      add\n      0x00\n      keccak256\n        /* \"TimeAlly.sol\":14698:14708  _stakingId */\n      dup5\n        /* \"TimeAlly.sol\":14677:14709  stakings[msg.sender][_stakingId] */\n      dup2\n      sload\n      dup2\n      lt\n      tag_295\n      jumpi\n      invalid\n    tag_295:\n      swap1\n      0x00\n      mstore\n      keccak256(0x00, 0x20)\n      swap1\n      0x09\n      mul\n      add\n        /* \"TimeAlly.sol\":14677:14728  stakings[msg.sender][_stakingId].accruedExaEsAmount */\n      0x04\n      add\n        /* \"TimeAlly.sol\":14677:14732  stakings[msg.sender][_stakingId].accruedExaEsAmount = 0 */\n      dup2\n      swap1\n      sstore\n      pop\n        /* \"TimeAlly.sol\":14742:14819  newStaking(... */\n      tag_297\n        /* \"TimeAlly.sol\":14764:14783  _accruedExaEsAmount */\n      dup2\n        /* \"TimeAlly.sol\":14795:14809  _stakingPlanId */\n      dup4\n        /* \"TimeAlly.sol\":14742:14752  newStaking */\n      tag_154\n        /* \"TimeAlly.sol\":14742:14819  newStaking(... */\n      jump\t// in\n    tag_297:\n        /* \"TimeAlly.sol\":14426:14826  function restakeAccrued(uint256 _stakingId, uint256 _stakingPlanId) public {... */\n      pop\n      pop\n      pop\n      jump\t// out\n        /* \"TimeAlly.sol\":9501:10564  function userEffectiveStakingByMonth(address _userAddress, uint256 _atMonth) public view returns (uint256) {... */\n    tag_71:\n        /* \"TimeAlly.sol\":9599:9606  uint256 */\n      0x00\n        /* \"TimeAlly.sol\":9832:9853  uint256 _currentMonth */\n      dup1\n        /* \"TimeAlly.sol\":9856:9873  getCurrentMonth() */\n      tag_299\n        /* \"TimeAlly.sol\":9856:9871  getCurrentMonth */\n      tag_148\n        /* \"TimeAlly.sol\":9856:9873  getCurrentMonth() */\n      jump\t// in\n    tag_299:\n        /* \"TimeAlly.sol\":9832:9873  uint256 _currentMonth = getCurrentMonth() */\n      swap1\n      pop\n        /* \"TimeAlly.sol\":9960:9997  uint256 userActiveStakingsExaEsAmount */\n      0x00\n        /* \"TimeAlly.sol\":10012:10021  uint256 i */\n      dup1\n        /* \"TimeAlly.sol\":10024:10025  0 */\n      0x00\n        /* \"TimeAlly.sol\":10012:10025  uint256 i = 0 */\n      swap1\n      pop\n        /* \"TimeAlly.sol\":10008:10511  for(uint256 i = 0; i < stakings[_userAddress].length; i++) {... */\n    tag_300:\n        /* \"TimeAlly.sol\":10031:10039  stakings */\n      0x08\n        /* \"TimeAlly.sol\":10031:10053  stakings[_userAddress] */\n      0x00\n        /* \"TimeAlly.sol\":10040:10052  _userAddress */\n      dup8\n        /* \"TimeAlly.sol\":10031:10053  stakings[_userAddress] */\n      0xffffffffffffffffffffffffffffffffffffffff\n      and\n      0xffffffffffffffffffffffffffffffffffffffff\n      and\n      dup2\n      mstore\n      0x20\n      add\n      swap1\n      dup2\n      mstore\n      0x20\n      add\n      0x00\n      keccak256\n        /* \"TimeAlly.sol\":10031:10060  stakings[_userAddress].length */\n      dup1\n      sload\n      swap1\n      pop\n        /* \"TimeAlly.sol\":10027:10028  i */\n      dup2\n        /* \"TimeAlly.sol\":10027:10060  i < stakings[_userAddress].length */\n      lt\n        /* \"TimeAlly.sol\":10008:10511  for(uint256 i = 0; i < stakings[_userAddress].length; i++) {... */\n      iszero\n      tag_301\n      jumpi\n        /* \"TimeAlly.sol\":10154:10211  isStakingActive(_userAddress, i, _currentMonth, _atMonth) */\n      tag_303\n        /* \"TimeAlly.sol\":10170:10182  _userAddress */\n      dup7\n        /* \"TimeAlly.sol\":10184:10185  i */\n      dup3\n        /* \"TimeAlly.sol\":10187:10200  _currentMonth */\n      dup6\n        /* \"TimeAlly.sol\":10202:10210  _atMonth */\n      dup9\n        /* \"TimeAlly.sol\":10154:10169  isStakingActive */\n      tag_116\n        /* \"TimeAlly.sol\":10154:10211  isStakingActive(_userAddress, i, _currentMonth, _atMonth) */\n      jump\t// in\n    tag_303:\n        /* \"TimeAlly.sol\":10151:10501  if(isStakingActive(_userAddress, i, _currentMonth, _atMonth)) {... */\n      iszero\n      tag_304\n      jumpi\n        /* \"TimeAlly.sol\":10263:10486  userActiveStakingsExaEsAmount... */\n      tag_305\n        /* \"TimeAlly.sol\":10318:10485  stakings[_userAddress][i].exaEsAmount... */\n      tag_306\n        /* \"TimeAlly.sol\":10482:10484  15 */\n      0x0f\n        /* \"TimeAlly.sol\":10318:10454  stakings[_userAddress][i].exaEsAmount... */\n      tag_307\n        /* \"TimeAlly.sol\":10383:10395  stakingPlans */\n      0x06\n        /* \"TimeAlly.sol\":10397:10405  stakings */\n      0x08\n        /* \"TimeAlly.sol\":10397:10419  stakings[_userAddress] */\n      0x00\n        /* \"TimeAlly.sol\":10406:10418  _userAddress */\n      dup13\n        /* \"TimeAlly.sol\":10397:10419  stakings[_userAddress] */\n      0xffffffffffffffffffffffffffffffffffffffff\n      and\n      0xffffffffffffffffffffffffffffffffffffffff\n      and\n      dup2\n      mstore\n      0x20\n      add\n      swap1\n      dup2\n      mstore\n      0x20\n      add\n      0x00\n      keccak256\n        /* \"TimeAlly.sol\":10420:10421  i */\n      dup7\n        /* \"TimeAlly.sol\":10397:10422  stakings[_userAddress][i] */\n      dup2\n      sload\n      dup2\n      lt\n      tag_308\n      jumpi\n      invalid\n    tag_308:\n      swap1\n      0x00\n      mstore\n      keccak256(0x00, 0x20)\n      swap1\n      0x09\n      mul\n      add\n        /* \"TimeAlly.sol\":10397:10436  stakings[_userAddress][i].stakingPlanId */\n      0x02\n      add\n      sload\n        /* \"TimeAlly.sol\":10383:10438  stakingPlans[ stakings[_userAddress][i].stakingPlanId ] */\n      dup2\n      sload\n      dup2\n      lt\n      tag_310\n      jumpi\n      invalid\n    tag_310:\n      swap1\n      0x00\n      mstore\n      keccak256(0x00, 0x20)\n      swap1\n      0x02\n      mul\n      add\n        /* \"TimeAlly.sol\":10383:10453  stakingPlans[ stakings[_userAddress][i].stakingPlanId ].fractionFrom15 */\n      0x01\n      add\n      sload\n        /* \"TimeAlly.sol\":10318:10326  stakings */\n      0x08\n        /* \"TimeAlly.sol\":10318:10340  stakings[_userAddress] */\n      0x00\n        /* \"TimeAlly.sol\":10327:10339  _userAddress */\n      dup13\n        /* \"TimeAlly.sol\":10318:10340  stakings[_userAddress] */\n      0xffffffffffffffffffffffffffffffffffffffff\n      and\n      0xffffffffffffffffffffffffffffffffffffffff\n      and\n      dup2\n      mstore\n      0x20\n      add\n      swap1\n      dup2\n      mstore\n      0x20\n      add\n      0x00\n      keccak256\n        /* \"TimeAlly.sol\":10341:10342  i */\n      dup7\n        /* \"TimeAlly.sol\":10318:10343  stakings[_userAddress][i] */\n      dup2\n      sload\n      dup2\n      lt\n      tag_312\n      jumpi\n      invalid\n    tag_312:\n      swap1\n      0x00\n      mstore\n      keccak256(0x00, 0x20)\n      swap1\n      0x09\n      mul\n      add\n        /* \"TimeAlly.sol\":10318:10355  stakings[_userAddress][i].exaEsAmount */\n      0x00\n      add\n      sload\n        /* \"TimeAlly.sol\":10318:10382  stakings[_userAddress][i].exaEsAmount... */\n      tag_194\n      swap1\n        /* \"TimeAlly.sol\":10318:10454  stakings[_userAddress][i].exaEsAmount... */\n      swap2\n      swap1\n      0xffffffff\n      and\n      jump\t// in\n    tag_307:\n        /* \"TimeAlly.sol\":10318:10481  stakings[_userAddress][i].exaEsAmount... */\n      tag_195\n      swap1\n        /* \"TimeAlly.sol\":10318:10485  stakings[_userAddress][i].exaEsAmount... */\n      swap2\n      swap1\n      0xffffffff\n      and\n      jump\t// in\n    tag_306:\n        /* \"TimeAlly.sol\":10263:10292  userActiveStakingsExaEsAmount */\n      dup4\n        /* \"TimeAlly.sol\":10263:10317  userActiveStakingsExaEsAmount... */\n      tag_232\n      swap1\n        /* \"TimeAlly.sol\":10263:10486  userActiveStakingsExaEsAmount... */\n      swap2\n      swap1\n      0xffffffff\n      and\n      jump\t// in\n    tag_305:\n        /* \"TimeAlly.sol\":10231:10486  userActiveStakingsExaEsAmount = userActiveStakingsExaEsAmount... */\n      swap2\n      pop\n        /* \"TimeAlly.sol\":10151:10501  if(isStakingActive(_userAddress, i, _currentMonth, _atMonth)) {... */\n    tag_304:\n        /* \"TimeAlly.sol\":10062:10065  i++ */\n      dup1\n      dup1\n      0x01\n      add\n      swap2\n      pop\n      pop\n        /* \"TimeAlly.sol\":10008:10511  for(uint256 i = 0; i < stakings[_userAddress].length; i++) {... */\n      jump(tag_300)\n    tag_301:\n      pop\n        /* \"TimeAlly.sol\":10528:10557  userActiveStakingsExaEsAmount */\n      dup1\n        /* \"TimeAlly.sol\":10521:10557  return userActiveStakingsExaEsAmount */\n      swap3\n      pop\n      pop\n      pop\n        /* \"TimeAlly.sol\":9501:10564  function userEffectiveStakingByMonth(address _userAddress, uint256 _atMonth) public view returns (uint256) {... */\n      swap3\n      swap2\n      pop\n      pop\n      jump\t// out\n        /* \"TimeAlly.sol\":5028:5579  function viewStaking(... */\n    tag_74:\n        /* \"TimeAlly.sol\":5134:5141  uint256 */\n      0x00\n        /* \"TimeAlly.sol\":5143:5150  uint256 */\n      dup1\n        /* \"TimeAlly.sol\":5152:5159  uint256 */\n      0x00\n        /* \"TimeAlly.sol\":5161:5168  uint256 */\n      dup1\n        /* \"TimeAlly.sol\":5170:5177  uint256 */\n      0x00\n        /* \"TimeAlly.sol\":5179:5186  uint256 */\n      dup1\n        /* \"TimeAlly.sol\":5219:5227  stakings */\n      0x08\n        /* \"TimeAlly.sol\":5219:5241  stakings[_userAddress] */\n      0x00\n        /* \"TimeAlly.sol\":5228:5240  _userAddress */\n      dup10\n        /* \"TimeAlly.sol\":5219:5241  stakings[_userAddress] */\n      0xffffffffffffffffffffffffffffffffffffffff\n      and\n      0xffffffffffffffffffffffffffffffffffffffff\n      and\n      dup2\n      mstore\n      0x20\n      add\n      swap1\n      dup2\n      mstore\n      0x20\n      add\n      0x00\n      keccak256\n        /* \"TimeAlly.sol\":5242:5252  _stakingId */\n      dup8\n        /* \"TimeAlly.sol\":5219:5253  stakings[_userAddress][_stakingId] */\n      dup2\n      sload\n      dup2\n      lt\n      tag_315\n      jumpi\n      invalid\n    tag_315:\n      swap1\n      0x00\n      mstore\n      keccak256(0x00, 0x20)\n      swap1\n      0x09\n      mul\n      add\n        /* \"TimeAlly.sol\":5219:5265  stakings[_userAddress][_stakingId].exaEsAmount */\n      0x00\n      add\n      sload\n        /* \"TimeAlly.sol\":5279:5287  stakings */\n      0x08\n        /* \"TimeAlly.sol\":5279:5301  stakings[_userAddress] */\n      0x00\n        /* \"TimeAlly.sol\":5288:5300  _userAddress */\n      dup11\n        /* \"TimeAlly.sol\":5279:5301  stakings[_userAddress] */\n      0xffffffffffffffffffffffffffffffffffffffff\n      and\n      0xffffffffffffffffffffffffffffffffffffffff\n      and\n      dup2\n      mstore\n      0x20\n      add\n      swap1\n      dup2\n      mstore\n      0x20\n      add\n      0x00\n      keccak256\n        /* \"TimeAlly.sol\":5302:5312  _stakingId */\n      dup9\n        /* \"TimeAlly.sol\":5279:5313  stakings[_userAddress][_stakingId] */\n      dup2\n      sload\n      dup2\n      lt\n      tag_317\n      jumpi\n      invalid\n    tag_317:\n      swap1\n      0x00\n      mstore\n      keccak256(0x00, 0x20)\n      swap1\n      0x09\n      mul\n      add\n        /* \"TimeAlly.sol\":5279:5323  stakings[_userAddress][_stakingId].timestamp */\n      0x01\n      add\n      sload\n        /* \"TimeAlly.sol\":5337:5345  stakings */\n      0x08\n        /* \"TimeAlly.sol\":5337:5359  stakings[_userAddress] */\n      0x00\n        /* \"TimeAlly.sol\":5346:5358  _userAddress */\n      dup12\n        /* \"TimeAlly.sol\":5337:5359  stakings[_userAddress] */\n      0xffffffffffffffffffffffffffffffffffffffff\n      and\n      0xffffffffffffffffffffffffffffffffffffffff\n      and\n      dup2\n      mstore\n      0x20\n      add\n      swap1\n      dup2\n      mstore\n      0x20\n      add\n      0x00\n      keccak256\n        /* \"TimeAlly.sol\":5360:5370  _stakingId */\n      dup10\n        /* \"TimeAlly.sol\":5337:5371  stakings[_userAddress][_stakingId] */\n      dup2\n      sload\n      dup2\n      lt\n      tag_319\n      jumpi\n      invalid\n    tag_319:\n      swap1\n      0x00\n      mstore\n      keccak256(0x00, 0x20)\n      swap1\n      0x09\n      mul\n      add\n        /* \"TimeAlly.sol\":5337:5385  stakings[_userAddress][_stakingId].stakingPlanId */\n      0x02\n      add\n      sload\n        /* \"TimeAlly.sol\":5399:5407  stakings */\n      0x08\n        /* \"TimeAlly.sol\":5399:5421  stakings[_userAddress] */\n      0x00\n        /* \"TimeAlly.sol\":5408:5420  _userAddress */\n      dup13\n        /* \"TimeAlly.sol\":5399:5421  stakings[_userAddress] */\n      0xffffffffffffffffffffffffffffffffffffffff\n      and\n      0xffffffffffffffffffffffffffffffffffffffff\n      and\n      dup2\n      mstore\n      0x20\n      add\n      swap1\n      dup2\n      mstore\n      0x20\n      add\n      0x00\n      keccak256\n        /* \"TimeAlly.sol\":5422:5432  _stakingId */\n      dup11\n        /* \"TimeAlly.sol\":5399:5433  stakings[_userAddress][_stakingId] */\n      dup2\n      sload\n      dup2\n      lt\n      tag_321\n      jumpi\n      invalid\n    tag_321:\n      swap1\n      0x00\n      mstore\n      keccak256(0x00, 0x20)\n      swap1\n      0x09\n      mul\n      add\n        /* \"TimeAlly.sol\":5399:5440  stakings[_userAddress][_stakingId].status */\n      0x03\n      add\n      sload\n        /* \"TimeAlly.sol\":5454:5462  stakings */\n      0x08\n        /* \"TimeAlly.sol\":5454:5476  stakings[_userAddress] */\n      0x00\n        /* \"TimeAlly.sol\":5463:5475  _userAddress */\n      dup14\n        /* \"TimeAlly.sol\":5454:5476  stakings[_userAddress] */\n      0xffffffffffffffffffffffffffffffffffffffff\n      and\n      0xffffffffffffffffffffffffffffffffffffffff\n      and\n      dup2\n      mstore\n      0x20\n      add\n      swap1\n      dup2\n      mstore\n      0x20\n      add\n      0x00\n      keccak256\n        /* \"TimeAlly.sol\":5477:5487  _stakingId */\n      dup12\n        /* \"TimeAlly.sol\":5454:5488  stakings[_userAddress][_stakingId] */\n      dup2\n      sload\n      dup2\n      lt\n      tag_323\n      jumpi\n      invalid\n    tag_323:\n      swap1\n      0x00\n      mstore\n      keccak256(0x00, 0x20)\n      swap1\n      0x09\n      mul\n      add\n        /* \"TimeAlly.sol\":5454:5507  stakings[_userAddress][_stakingId].accruedExaEsAmount */\n      0x04\n      add\n      sload\n        /* \"TimeAlly.sol\":5521:5529  stakings */\n      0x08\n        /* \"TimeAlly.sol\":5521:5543  stakings[_userAddress] */\n      0x00\n        /* \"TimeAlly.sol\":5530:5542  _userAddress */\n      dup15\n        /* \"TimeAlly.sol\":5521:5543  stakings[_userAddress] */\n      0xffffffffffffffffffffffffffffffffffffffff\n      and\n      0xffffffffffffffffffffffffffffffffffffffff\n      and\n      dup2\n      mstore\n      0x20\n      add\n      swap1\n      dup2\n      mstore\n      0x20\n      add\n      0x00\n      keccak256\n        /* \"TimeAlly.sol\":5544:5554  _stakingId */\n      dup13\n        /* \"TimeAlly.sol\":5521:5555  stakings[_userAddress][_stakingId] */\n      dup2\n      sload\n      dup2\n      lt\n      tag_325\n      jumpi\n      invalid\n    tag_325:\n      swap1\n      0x00\n      mstore\n      keccak256(0x00, 0x20)\n      swap1\n      0x09\n      mul\n      add\n        /* \"TimeAlly.sol\":5521:5562  stakings[_userAddress][_stakingId].loanId */\n      0x05\n      add\n      sload\n        /* \"TimeAlly.sol\":5198:5572  return (... */\n      swap6\n      pop\n      swap6\n      pop\n      swap6\n      pop\n      swap6\n      pop\n      swap6\n      pop\n      swap6\n      pop\n        /* \"TimeAlly.sol\":5028:5579  function viewStaking(... */\n      swap3\n      swap6\n      pop\n      swap3\n      swap6\n      pop\n      swap3\n      swap6\n      jump\t// out\n        /* \"TimeAlly.sol\":17758:17874  function timeAllyMonthlyNRTArray() public view returns (uint256[] memory) {... */\n    tag_76:\n        /* \"TimeAlly.sol\":17814:17830  uint256[] memory */\n      0x60\n        /* \"TimeAlly.sol\":17849:17867  timeAllyMonthlyNRT */\n      0x05\n        /* \"TimeAlly.sol\":17842:17867  return timeAllyMonthlyNRT */\n      dup1\n      sload\n      dup1\n      0x20\n      mul\n      0x20\n      add\n      mload(0x40)\n      swap1\n      dup2\n      add\n      0x40\n      mstore\n      dup1\n      swap3\n      swap2\n      swap1\n      dup2\n      dup2\n      mstore\n      0x20\n      add\n      dup3\n      dup1\n      sload\n      dup1\n      iszero\n      tag_328\n      jumpi\n      0x20\n      mul\n      dup3\n      add\n      swap2\n      swap1\n      0x00\n      mstore\n      keccak256(0x00, 0x20)\n      swap1\n    tag_329:\n      dup2\n      sload\n      dup2\n      mstore\n      0x20\n      add\n      swap1\n      0x01\n      add\n      swap1\n      dup1\n      dup4\n      gt\n      tag_329\n      jumpi\n    tag_328:\n      pop\n      pop\n      pop\n      pop\n      pop\n      swap1\n      pop\n        /* \"TimeAlly.sol\":17758:17874  function timeAllyMonthlyNRTArray() public view returns (uint256[] memory) {... */\n      swap1\n      jump\t// out\n        /* \"TimeAlly.sol\":1652:1707  mapping (uint256 => uint256) public totalActiveStakings */\n    tag_82:\n      mstore(0x20, 0x0a)\n      dup1\n      0x00\n      mstore\n      keccak256(0x00, 0x40)\n      0x00\n      swap2\n      pop\n      swap1\n      pop\n      sload\n      dup2\n      jump\t// out\n        /* \"TimeAlly.sol\":5585:5803  function topupRewardBucket(uint256 _exaEsAmount) public onlyOwner {... */\n    tag_85:\n        /* \"TimeAlly.sol\":2695:2700  owner */\n      0x00\n      dup1\n      swap1\n      sload\n      swap1\n      0x0100\n      exp\n      swap1\n      div\n      0xffffffffffffffffffffffffffffffffffffffff\n      and\n        /* \"TimeAlly.sol\":2681:2700  msg.sender == owner */\n      0xffffffffffffffffffffffffffffffffffffffff\n      and\n        /* \"TimeAlly.sol\":2681:2691  msg.sender */\n      caller\n        /* \"TimeAlly.sol\":2681:2700  msg.sender == owner */\n      0xffffffffffffffffffffffffffffffffffffffff\n      and\n      eq\n        /* \"TimeAlly.sol\":2673:2727  require(msg.sender == owner, 'only deployer can call') */\n      tag_331\n      jumpi\n      mload(0x40)\n      0x08c379a000000000000000000000000000000000000000000000000000000000\n      dup2\n      mstore\n      0x04\n      add\n      dup1\n      dup1\n      0x20\n      add\n      dup3\n      dup2\n      sub\n      dup3\n      mstore\n      0x16\n      dup2\n      mstore\n      0x20\n      add\n      dup1\n      0x6f6e6c79206465706c6f7965722063616e2063616c6c00000000000000000000\n      dup2\n      mstore\n      pop\n      0x20\n      add\n      swap2\n      pop\n      pop\n      mload(0x40)\n      dup1\n      swap2\n      sub\n      swap1\n      revert\n    tag_331:\n        /* \"TimeAlly.sol\":5669:5674  token */\n      0x01\n      0x00\n      swap1\n      sload\n      swap1\n      0x0100\n      exp\n      swap1\n      div\n      0xffffffffffffffffffffffffffffffffffffffff\n      and\n        /* \"TimeAlly.sol\":5669:5687  token.transferFrom */\n      0xffffffffffffffffffffffffffffffffffffffff\n      and\n      0x23b872dd\n        /* \"TimeAlly.sol\":5688:5698  msg.sender */\n      caller\n        /* \"TimeAlly.sol\":5708:5712  this */\n      address\n        /* \"TimeAlly.sol\":5715:5727  _exaEsAmount */\n      dup5\n        /* \"TimeAlly.sol\":5669:5728  token.transferFrom(msg.sender, address(this), _exaEsAmount) */\n      mload(0x40)\n      dup5\n      0xffffffff\n      and\n      0xe0\n      shl\n      dup2\n      mstore\n      0x04\n      add\n      dup1\n      dup5\n      0xffffffffffffffffffffffffffffffffffffffff\n      and\n      0xffffffffffffffffffffffffffffffffffffffff\n      and\n      dup2\n      mstore\n      0x20\n      add\n      dup4\n      0xffffffffffffffffffffffffffffffffffffffff\n      and\n      0xffffffffffffffffffffffffffffffffffffffff\n      and\n      dup2\n      mstore\n      0x20\n      add\n      dup3\n      dup2\n      mstore\n      0x20\n      add\n      swap4\n      pop\n      pop\n      pop\n      pop\n      0x20\n      mload(0x40)\n      dup1\n      dup4\n      sub\n      dup2\n      0x00\n      dup8\n      dup1\n      extcodesize\n      iszero\n        /* \"--CODEGEN--\":8:17   */\n      dup1\n        /* \"--CODEGEN--\":5:7   */\n      iszero\n      tag_333\n      jumpi\n        /* \"--CODEGEN--\":30:31   */\n      0x00\n        /* \"--CODEGEN--\":27:28   */\n      dup1\n        /* \"--CODEGEN--\":20:32   */\n      revert\n        /* \"--CODEGEN--\":5:7   */\n    tag_333:\n        /* \"TimeAlly.sol\":5669:5728  token.transferFrom(msg.sender, address(this), _exaEsAmount) */\n      pop\n      gas\n      call\n      iszero\n        /* \"--CODEGEN--\":8:17   */\n      dup1\n        /* \"--CODEGEN--\":5:7   */\n      iszero\n      tag_334\n      jumpi\n        /* \"--CODEGEN--\":45:61   */\n      returndatasize\n        /* \"--CODEGEN--\":42:43   */\n      0x00\n        /* \"--CODEGEN--\":39:40   */\n      dup1\n        /* \"--CODEGEN--\":24:62   */\n      returndatacopy\n        /* \"--CODEGEN--\":77:93   */\n      returndatasize\n        /* \"--CODEGEN--\":74:75   */\n      0x00\n        /* \"--CODEGEN--\":67:94   */\n      revert\n        /* \"--CODEGEN--\":5:7   */\n    tag_334:\n        /* \"TimeAlly.sol\":5669:5728  token.transferFrom(msg.sender, address(this), _exaEsAmount) */\n      pop\n      pop\n      pop\n      pop\n      mload(0x40)\n      returndatasize\n        /* \"--CODEGEN--\":13:15   */\n      0x20\n        /* \"--CODEGEN--\":8:11   */\n      dup2\n        /* \"--CODEGEN--\":5:16   */\n      lt\n        /* \"--CODEGEN--\":2:4   */\n      iszero\n      tag_335\n      jumpi\n        /* \"--CODEGEN--\":29:30   */\n      0x00\n        /* \"--CODEGEN--\":26:27   */\n      dup1\n        /* \"--CODEGEN--\":19:31   */\n      revert\n        /* \"--CODEGEN--\":2:4   */\n    tag_335:\n        /* \"TimeAlly.sol\":5669:5728  token.transferFrom(msg.sender, address(this), _exaEsAmount) */\n      dup2\n      add\n      swap1\n      dup1\n      dup1\n      mload\n      swap1\n      0x20\n      add\n      swap1\n      swap3\n      swap2\n      swap1\n      pop\n      pop\n      pop\n        /* \"TimeAlly.sol\":5661:5729  require(token.transferFrom(msg.sender, address(this), _exaEsAmount)) */\n      tag_336\n      jumpi\n      0x00\n      dup1\n      revert\n    tag_336:\n        /* \"TimeAlly.sol\":5760:5796  launchRewardBucket.add(_exaEsAmount) */\n      tag_337\n        /* \"TimeAlly.sol\":5783:5795  _exaEsAmount */\n      dup2\n        /* \"TimeAlly.sol\":5760:5778  launchRewardBucket */\n      sload(0x0b)\n        /* \"TimeAlly.sol\":5760:5782  launchRewardBucket.add */\n      tag_232\n      swap1\n        /* \"TimeAlly.sol\":5760:5796  launchRewardBucket.add(_exaEsAmount) */\n      swap2\n      swap1\n      0xffffffff\n      and\n      jump\t// in\n    tag_337:\n        /* \"TimeAlly.sol\":5739:5757  launchRewardBucket */\n      0x0b\n        /* \"TimeAlly.sol\":5739:5796  launchRewardBucket = launchRewardBucket.add(_exaEsAmount) */\n      dup2\n      swap1\n      sstore\n      pop\n        /* \"TimeAlly.sol\":5585:5803  function topupRewardBucket(uint256 _exaEsAmount) public onlyOwner {... */\n      pop\n      jump\t// out\n        /* \"TimeAlly.sol\":1153:1197  uint256 public earthSecondsInMonth = 2629744 */\n    tag_87:\n      sload(0x04)\n      dup2\n      jump\t// out\n        /* \"TimeAlly.sol\":5809:6137  function giveLaunchReward(address[] memory _addresses, uint256 _exaEsAmount) public onlyOwner {... */\n    tag_93:\n        /* \"TimeAlly.sol\":2695:2700  owner */\n      0x00\n      dup1\n      swap1\n      sload\n      swap1\n      0x0100\n      exp\n      swap1\n      div\n      0xffffffffffffffffffffffffffffffffffffffff\n      and\n        /* \"TimeAlly.sol\":2681:2700  msg.sender == owner */\n      0xffffffffffffffffffffffffffffffffffffffff\n      and\n        /* \"TimeAlly.sol\":2681:2691  msg.sender */\n      caller\n        /* \"TimeAlly.sol\":2681:2700  msg.sender == owner */\n      0xffffffffffffffffffffffffffffffffffffffff\n      and\n      eq\n        /* \"TimeAlly.sol\":2673:2727  require(msg.sender == owner, 'only deployer can call') */\n      tag_339\n      jumpi\n      mload(0x40)\n      0x08c379a000000000000000000000000000000000000000000000000000000000\n      dup2\n      mstore\n      0x04\n      add\n      dup1\n      dup1\n      0x20\n      add\n      dup3\n      dup2\n      sub\n      dup3\n      mstore\n      0x16\n      dup2\n      mstore\n      0x20\n      add\n      dup1\n      0x6f6e6c79206465706c6f7965722063616e2063616c6c00000000000000000000\n      dup2\n      mstore\n      pop\n      0x20\n      add\n      swap2\n      pop\n      pop\n      mload(0x40)\n      dup1\n      swap2\n      sub\n      swap1\n      revert\n    tag_339:\n        /* \"TimeAlly.sol\":5917:5926  uint256 i */\n      0x00\n        /* \"TimeAlly.sol\":5929:5930  0 */\n      dup1\n        /* \"TimeAlly.sol\":5917:5930  uint256 i = 0 */\n      swap1\n      pop\n        /* \"TimeAlly.sol\":5913:6131  for(uint256 i = 0; i < _addresses.length; i++) {... */\n    tag_341:\n        /* \"TimeAlly.sol\":5936:5946  _addresses */\n      dup3\n        /* \"TimeAlly.sol\":5936:5953  _addresses.length */\n      mload\n        /* \"TimeAlly.sol\":5932:5933  i */\n      dup2\n        /* \"TimeAlly.sol\":5932:5953  i < _addresses.length */\n      lt\n        /* \"TimeAlly.sol\":5913:6131  for(uint256 i = 0; i < _addresses.length; i++) {... */\n      iszero\n      tag_342\n      jumpi\n        /* \"TimeAlly.sol\":5995:6031  launchRewardBucket.sub(_exaEsAmount) */\n      tag_344\n        /* \"TimeAlly.sol\":6018:6030  _exaEsAmount */\n      dup3\n        /* \"TimeAlly.sol\":5995:6013  launchRewardBucket */\n      sload(0x0b)\n        /* \"TimeAlly.sol\":5995:6017  launchRewardBucket.sub */\n      tag_184\n      swap1\n        /* \"TimeAlly.sol\":5995:6031  launchRewardBucket.sub(_exaEsAmount) */\n      swap2\n      swap1\n      0xffffffff\n      and\n      jump\t// in\n    tag_344:\n        /* \"TimeAlly.sol\":5974:5992  launchRewardBucket */\n      0x0b\n        /* \"TimeAlly.sol\":5974:6031  launchRewardBucket = launchRewardBucket.sub(_exaEsAmount) */\n      dup2\n      swap1\n      sstore\n      pop\n        /* \"TimeAlly.sol\":6075:6120  launchReward[_addresses[i]].add(_exaEsAmount) */\n      tag_345\n        /* \"TimeAlly.sol\":6107:6119  _exaEsAmount */\n      dup3\n        /* \"TimeAlly.sol\":6075:6087  launchReward */\n      0x0c\n        /* \"TimeAlly.sol\":6075:6102  launchReward[_addresses[i]] */\n      0x00\n        /* \"TimeAlly.sol\":6088:6098  _addresses */\n      dup7\n        /* \"TimeAlly.sol\":6099:6100  i */\n      dup6\n        /* \"TimeAlly.sol\":6088:6101  _addresses[i] */\n      dup2\n      mload\n      dup2\n      lt\n      tag_346\n      jumpi\n      invalid\n    tag_346:\n      0x20\n      mul\n      0x20\n      add\n      add\n      mload\n        /* \"TimeAlly.sol\":6075:6102  launchReward[_addresses[i]] */\n      0xffffffffffffffffffffffffffffffffffffffff\n      and\n      0xffffffffffffffffffffffffffffffffffffffff\n      and\n      dup2\n      mstore\n      0x20\n      add\n      swap1\n      dup2\n      mstore\n      0x20\n      add\n      0x00\n      keccak256\n      sload\n        /* \"TimeAlly.sol\":6075:6106  launchReward[_addresses[i]].add */\n      tag_232\n      swap1\n        /* \"TimeAlly.sol\":6075:6120  launchReward[_addresses[i]].add(_exaEsAmount) */\n      swap2\n      swap1\n      0xffffffff\n      and\n      jump\t// in\n    tag_345:\n        /* \"TimeAlly.sol\":6045:6057  launchReward */\n      0x0c\n        /* \"TimeAlly.sol\":6045:6072  launchReward[_addresses[i]] */\n      0x00\n        /* \"TimeAlly.sol\":6058:6068  _addresses */\n      dup6\n        /* \"TimeAlly.sol\":6069:6070  i */\n      dup5\n        /* \"TimeAlly.sol\":6058:6071  _addresses[i] */\n      dup2\n      mload\n      dup2\n      lt\n      tag_347\n      jumpi\n      invalid\n    tag_347:\n      0x20\n      mul\n      0x20\n      add\n      add\n      mload\n        /* \"TimeAlly.sol\":6045:6072  launchReward[_addresses[i]] */\n      0xffffffffffffffffffffffffffffffffffffffff\n      and\n      0xffffffffffffffffffffffffffffffffffffffff\n      and\n      dup2\n      mstore\n      0x20\n      add\n      swap1\n      dup2\n      mstore\n      0x20\n      add\n      0x00\n      keccak256\n        /* \"TimeAlly.sol\":6045:6120  launchReward[_addresses[i]] = launchReward[_addresses[i]].add(_exaEsAmount) */\n      dup2\n      swap1\n      sstore\n      pop\n        /* \"TimeAlly.sol\":5955:5958  i++ */\n      dup1\n      dup1\n      0x01\n      add\n      swap2\n      pop\n      pop\n        /* \"TimeAlly.sol\":5913:6131  for(uint256 i = 0; i < _addresses.length; i++) {... */\n      jump(tag_341)\n    tag_342:\n      pop\n        /* \"TimeAlly.sol\":5809:6137  function giveLaunchReward(address[] memory _addresses, uint256 _exaEsAmount) public onlyOwner {... */\n      pop\n      pop\n      jump\t// out\n        /* \"TimeAlly.sol\":6143:6497  function giveLaunchRewardSeperate(address[] memory _addresses, uint256[] memory _exaEsAmounts) public onlyOwner {... */\n    tag_102:\n        /* \"TimeAlly.sol\":2695:2700  owner */\n      0x00\n      dup1\n      swap1\n      sload\n      swap1\n      0x0100\n      exp\n      swap1\n      div\n      0xffffffffffffffffffffffffffffffffffffffff\n      and\n        /* \"TimeAlly.sol\":2681:2700  msg.sender == owner */\n      0xffffffffffffffffffffffffffffffffffffffff\n      and\n        /* \"TimeAlly.sol\":2681:2691  msg.sender */\n      caller\n        /* \"TimeAlly.sol\":2681:2700  msg.sender == owner */\n      0xffffffffffffffffffffffffffffffffffffffff\n      and\n      eq\n        /* \"TimeAlly.sol\":2673:2727  require(msg.sender == owner, 'only deployer can call') */\n      tag_349\n      jumpi\n      mload(0x40)\n      0x08c379a000000000000000000000000000000000000000000000000000000000\n      dup2\n      mstore\n      0x04\n      add\n      dup1\n      dup1\n      0x20\n      add\n      dup3\n      dup2\n      sub\n      dup3\n      mstore\n      0x16\n      dup2\n      mstore\n      0x20\n      add\n      dup1\n      0x6f6e6c79206465706c6f7965722063616e2063616c6c00000000000000000000\n      dup2\n      mstore\n      pop\n      0x20\n      add\n      swap2\n      pop\n      pop\n      mload(0x40)\n      dup1\n      swap2\n      sub\n      swap1\n      revert\n    tag_349:\n        /* \"TimeAlly.sol\":6269:6278  uint256 i */\n      0x00\n        /* \"TimeAlly.sol\":6281:6282  0 */\n      dup1\n        /* \"TimeAlly.sol\":6269:6282  uint256 i = 0 */\n      swap1\n      pop\n        /* \"TimeAlly.sol\":6265:6491  for(uint256 i = 0; i < _addresses.length; i++) {... */\n    tag_351:\n        /* \"TimeAlly.sol\":6288:6298  _addresses */\n      dup3\n        /* \"TimeAlly.sol\":6288:6305  _addresses.length */\n      mload\n        /* \"TimeAlly.sol\":6284:6285  i */\n      dup2\n        /* \"TimeAlly.sol\":6284:6305  i < _addresses.length */\n      lt\n        /* \"TimeAlly.sol\":6265:6491  for(uint256 i = 0; i < _addresses.length; i++) {... */\n      iszero\n      tag_352\n      jumpi\n        /* \"TimeAlly.sol\":6347:6387  launchRewardBucket.sub(_exaEsAmounts[i]) */\n      tag_354\n        /* \"TimeAlly.sol\":6370:6383  _exaEsAmounts */\n      dup3\n        /* \"TimeAlly.sol\":6384:6385  i */\n      dup3\n        /* \"TimeAlly.sol\":6370:6386  _exaEsAmounts[i] */\n      dup2\n      mload\n      dup2\n      lt\n      tag_355\n      jumpi\n      invalid\n    tag_355:\n      0x20\n      mul\n      0x20\n      add\n      add\n      mload\n        /* \"TimeAlly.sol\":6347:6365  launchRewardBucket */\n      sload(0x0b)\n        /* \"TimeAlly.sol\":6347:6369  launchRewardBucket.sub */\n      tag_184\n      swap1\n        /* \"TimeAlly.sol\":6347:6387  launchRewardBucket.sub(_exaEsAmounts[i]) */\n      swap2\n      swap1\n      0xffffffff\n      and\n      jump\t// in\n    tag_354:\n        /* \"TimeAlly.sol\":6326:6344  launchRewardBucket */\n      0x0b\n        /* \"TimeAlly.sol\":6326:6387  launchRewardBucket = launchRewardBucket.sub(_exaEsAmounts[i]) */\n      dup2\n      swap1\n      sstore\n      pop\n        /* \"TimeAlly.sol\":6431:6480  launchReward[_addresses[i]].add(_exaEsAmounts[i]) */\n      tag_356\n        /* \"TimeAlly.sol\":6463:6476  _exaEsAmounts */\n      dup3\n        /* \"TimeAlly.sol\":6477:6478  i */\n      dup3\n        /* \"TimeAlly.sol\":6463:6479  _exaEsAmounts[i] */\n      dup2\n      mload\n      dup2\n      lt\n      tag_357\n      jumpi\n      invalid\n    tag_357:\n      0x20\n      mul\n      0x20\n      add\n      add\n      mload\n        /* \"TimeAlly.sol\":6431:6443  launchReward */\n      0x0c\n        /* \"TimeAlly.sol\":6431:6458  launchReward[_addresses[i]] */\n      0x00\n        /* \"TimeAlly.sol\":6444:6454  _addresses */\n      dup7\n        /* \"TimeAlly.sol\":6455:6456  i */\n      dup6\n        /* \"TimeAlly.sol\":6444:6457  _addresses[i] */\n      dup2\n      mload\n      dup2\n      lt\n      tag_358\n      jumpi\n      invalid\n    tag_358:\n      0x20\n      mul\n      0x20\n      add\n      add\n      mload\n        /* \"TimeAlly.sol\":6431:6458  launchReward[_addresses[i]] */\n      0xffffffffffffffffffffffffffffffffffffffff\n      and\n      0xffffffffffffffffffffffffffffffffffffffff\n      and\n      dup2\n      mstore\n      0x20\n      add\n      swap1\n      dup2\n      mstore\n      0x20\n      add\n      0x00\n      keccak256\n      sload\n        /* \"TimeAlly.sol\":6431:6462  launchReward[_addresses[i]].add */\n      tag_232\n      swap1\n        /* \"TimeAlly.sol\":6431:6480  launchReward[_addresses[i]].add(_exaEsAmounts[i]) */\n      swap2\n      swap1\n      0xffffffff\n      and\n      jump\t// in\n    tag_356:\n        /* \"TimeAlly.sol\":6401:6413  launchReward */\n      0x0c\n        /* \"TimeAlly.sol\":6401:6428  launchReward[_addresses[i]] */\n      0x00\n        /* \"TimeAlly.sol\":6414:6424  _addresses */\n      dup6\n        /* \"TimeAlly.sol\":6425:6426  i */\n      dup5\n        /* \"TimeAlly.sol\":6414:6427  _addresses[i] */\n      dup2\n      mload\n      dup2\n      lt\n      tag_359\n      jumpi\n      invalid\n    tag_359:\n      0x20\n      mul\n      0x20\n      add\n      add\n      mload\n        /* \"TimeAlly.sol\":6401:6428  launchReward[_addresses[i]] */\n      0xffffffffffffffffffffffffffffffffffffffff\n      and\n      0xffffffffffffffffffffffffffffffffffffffff\n      and\n      dup2\n      mstore\n      0x20\n      add\n      swap1\n      dup2\n      mstore\n      0x20\n      add\n      0x00\n      keccak256\n        /* \"TimeAlly.sol\":6401:6480  launchReward[_addresses[i]] = launchReward[_addresses[i]].add(_exaEsAmounts[i]) */\n      dup2\n      swap1\n      sstore\n      pop\n        /* \"TimeAlly.sol\":6307:6310  i++ */\n      dup1\n      dup1\n      0x01\n      add\n      swap2\n      pop\n      pop\n        /* \"TimeAlly.sol\":6265:6491  for(uint256 i = 0; i < _addresses.length; i++) {... */\n      jump(tag_351)\n    tag_352:\n      pop\n        /* \"TimeAlly.sol\":6143:6497  function giveLaunchRewardSeperate(address[] memory _addresses, uint256[] memory _exaEsAmounts) public onlyOwner {... */\n      pop\n      pop\n      jump\t// out\n        /* \"TimeAlly.sol\":1388:1421  StakingPlan[] public stakingPlans */\n    tag_105:\n      0x06\n      dup2\n      dup2\n      sload\n      dup2\n      lt\n      tag_360\n      jumpi\n      invalid\n    tag_360:\n      swap1\n      0x00\n      mstore\n      keccak256(0x00, 0x20)\n      swap1\n      0x02\n      mul\n      add\n      0x00\n      swap2\n      pop\n      swap1\n      pop\n      dup1\n      0x00\n      add\n      sload\n      swap1\n      dup1\n      0x01\n      add\n      sload\n      swap1\n      pop\n      dup3\n      jump\t// out\n        /* \"TimeAlly.sol\":1753:1800  mapping(address => uint256) public launchReward */\n    tag_108:\n      mstore(0x20, 0x0c)\n      dup1\n      0x00\n      mstore\n      keccak256(0x00, 0x40)\n      0x00\n      swap2\n      pop\n      swap1\n      pop\n      sload\n      dup2\n      jump\t// out\n        /* \"TimeAlly.sol\":3486:3690  function createLoanPlan(uint256 _loanMonths, uint256 _loanRate) public onlyOwner {... */\n    tag_111:\n        /* \"TimeAlly.sol\":2695:2700  owner */\n      0x00\n      dup1\n      swap1\n      sload\n      swap1\n      0x0100\n      exp\n      swap1\n      div\n      0xffffffffffffffffffffffffffffffffffffffff\n      and\n        /* \"TimeAlly.sol\":2681:2700  msg.sender == owner */\n      0xffffffffffffffffffffffffffffffffffffffff\n      and\n        /* \"TimeAlly.sol\":2681:2691  msg.sender */\n      caller\n        /* \"TimeAlly.sol\":2681:2700  msg.sender == owner */\n      0xffffffffffffffffffffffffffffffffffffffff\n      and\n      eq\n        /* \"TimeAlly.sol\":2673:2727  require(msg.sender == owner, 'only deployer can call') */\n      tag_363\n      jumpi\n      mload(0x40)\n      0x08c379a000000000000000000000000000000000000000000000000000000000\n      dup2\n      mstore\n      0x04\n      add\n      dup1\n      dup1\n      0x20\n      add\n      dup3\n      dup2\n      sub\n      dup3\n      mstore\n      0x16\n      dup2\n      mstore\n      0x20\n      add\n      dup1\n      0x6f6e6c79206465706c6f7965722063616e2063616c6c00000000000000000000\n      dup2\n      mstore\n      pop\n      0x20\n      add\n      swap2\n      pop\n      pop\n      mload(0x40)\n      dup1\n      swap2\n      sub\n      swap1\n      revert\n    tag_363:\n        /* \"TimeAlly.sol\":3577:3586  loanPlans */\n      0x07\n        /* \"TimeAlly.sol\":3592:3682  LoanPlan({... */\n      mload(0x40)\n      dup1\n      0x40\n      add\n      0x40\n      mstore\n      dup1\n        /* \"TimeAlly.sol\":3627:3638  _loanMonths */\n      dup5\n        /* \"TimeAlly.sol\":3592:3682  LoanPlan({... */\n      dup2\n      mstore\n      0x20\n      add\n        /* \"TimeAlly.sol\":3662:3671  _loanRate */\n      dup4\n        /* \"TimeAlly.sol\":3592:3682  LoanPlan({... */\n      dup2\n      mstore\n      pop\n        /* \"TimeAlly.sol\":3577:3683  loanPlans.push(LoanPlan({... */\n      swap1\n      dup1\n        /* \"--CODEGEN--\":39:40   */\n      0x01\n        /* \"--CODEGEN--\":33:36   */\n      dup2\n        /* \"--CODEGEN--\":27:37   */\n      sload\n        /* \"--CODEGEN--\":23:41   */\n      add\n        /* \"--CODEGEN--\":57:67   */\n      dup1\n        /* \"--CODEGEN--\":52:55   */\n      dup3\n        /* \"--CODEGEN--\":45:68   */\n      sstore\n        /* \"--CODEGEN--\":79:89   */\n      dup1\n        /* \"--CODEGEN--\":72:89   */\n      swap2\n      pop\n        /* \"--CODEGEN--\":0:93   */\n      pop\n        /* \"TimeAlly.sol\":3577:3683  loanPlans.push(LoanPlan({... */\n      swap1\n      0x01\n      dup3\n      sub\n      swap1\n      0x00\n      mstore\n      keccak256(0x00, 0x20)\n      swap1\n      0x02\n      mul\n      add\n      0x00\n      swap1\n      swap2\n      swap3\n      swap1\n      swap2\n      swap1\n      swap2\n      pop\n      0x00\n      dup3\n      add\n      mload\n      dup2\n      0x00\n      add\n      sstore\n      0x20\n      dup3\n      add\n      mload\n      dup2\n      0x01\n      add\n      sstore\n      pop\n      pop\n      pop\n        /* \"TimeAlly.sol\":3486:3690  function createLoanPlan(uint256 _loanMonths, uint256 _loanRate) public onlyOwner {... */\n      pop\n      pop\n      jump\t// out\n        /* \"TimeAlly.sol\":1028:1048  address public owner */\n    tag_113:\n      0x00\n      dup1\n      swap1\n      sload\n      swap1\n      0x0100\n      exp\n      swap1\n      div\n      0xffffffffffffffffffffffffffffffffffffffff\n      and\n      dup2\n      jump\t// out\n        /* \"TimeAlly.sol\":7716:8425  function isStakingActive(address _userAddress, uint256 _stakingId, uint256 _currentMonth, uint256 _atMonth) public view returns (bool) {... */\n    tag_116:\n        /* \"TimeAlly.sol\":7845:7849  bool */\n      0x00\n        /* \"TimeAlly.sol\":7859:7879  uint256 stakingMonth */\n      dup1\n        /* \"TimeAlly.sol\":7882:7974  stakings[_userAddress][_stakingId].timestamp.sub(deployedTimestamp).div(earthSecondsInMonth) */\n      tag_367\n        /* \"TimeAlly.sol\":7954:7973  earthSecondsInMonth */\n      sload(0x04)\n        /* \"TimeAlly.sol\":7882:7949  stakings[_userAddress][_stakingId].timestamp.sub(deployedTimestamp) */\n      tag_368\n        /* \"TimeAlly.sol\":7931:7948  deployedTimestamp */\n      sload(0x03)\n        /* \"TimeAlly.sol\":7882:7890  stakings */\n      0x08\n        /* \"TimeAlly.sol\":7882:7904  stakings[_userAddress] */\n      0x00\n        /* \"TimeAlly.sol\":7891:7903  _userAddress */\n      dup12\n        /* \"TimeAlly.sol\":7882:7904  stakings[_userAddress] */\n      0xffffffffffffffffffffffffffffffffffffffff\n      and\n      0xffffffffffffffffffffffffffffffffffffffff\n      and\n      dup2\n      mstore\n      0x20\n      add\n      swap1\n      dup2\n      mstore\n      0x20\n      add\n      0x00\n      keccak256\n        /* \"TimeAlly.sol\":7905:7915  _stakingId */\n      dup10\n        /* \"TimeAlly.sol\":7882:7916  stakings[_userAddress][_stakingId] */\n      dup2\n      sload\n      dup2\n      lt\n      tag_369\n      jumpi\n      invalid\n    tag_369:\n      swap1\n      0x00\n      mstore\n      keccak256(0x00, 0x20)\n      swap1\n      0x09\n      mul\n      add\n        /* \"TimeAlly.sol\":7882:7926  stakings[_userAddress][_stakingId].timestamp */\n      0x01\n      add\n      sload\n        /* \"TimeAlly.sol\":7882:7930  stakings[_userAddress][_stakingId].timestamp.sub */\n      tag_184\n      swap1\n        /* \"TimeAlly.sol\":7882:7949  stakings[_userAddress][_stakingId].timestamp.sub(deployedTimestamp) */\n      swap2\n      swap1\n      0xffffffff\n      and\n      jump\t// in\n    tag_368:\n        /* \"TimeAlly.sol\":7882:7953  stakings[_userAddress][_stakingId].timestamp.sub(deployedTimestamp).div */\n      tag_195\n      swap1\n        /* \"TimeAlly.sol\":7882:7974  stakings[_userAddress][_stakingId].timestamp.sub(deployedTimestamp).div(earthSecondsInMonth) */\n      swap2\n      swap1\n      0xffffffff\n      and\n      jump\t// in\n    tag_367:\n        /* \"TimeAlly.sol\":7859:7974  uint256 stakingMonth = stakings[_userAddress][_stakingId].timestamp.sub(deployedTimestamp).div(earthSecondsInMonth) */\n      swap1\n      pop\n        /* \"TimeAlly.sol\":8020:8028  _atMonth */\n      dup3\n        /* \"TimeAlly.sol\":8015:8016  1 */\n      0x01\n        /* \"TimeAlly.sol\":8000:8012  stakingMonth */\n      dup3\n        /* \"TimeAlly.sol\":8000:8016  stakingMonth + 1 */\n      add\n        /* \"TimeAlly.sol\":8000:8028  stakingMonth + 1 <= _atMonth */\n      gt\n      iszero\n        /* \"TimeAlly.sol\":8000:8130  stakingMonth + 1 <= _atMonth && stakingMonth + stakingPlans[ stakings[_userAddress][_stakingId].stakingPlanId ].months >= _atMonth */\n      dup1\n      iszero\n      tag_371\n      jumpi\n      pop\n        /* \"TimeAlly.sol\":8122:8130  _atMonth */\n      dup3\n        /* \"TimeAlly.sol\":8047:8059  stakingPlans */\n      0x06\n        /* \"TimeAlly.sol\":8061:8069  stakings */\n      0x08\n        /* \"TimeAlly.sol\":8061:8083  stakings[_userAddress] */\n      0x00\n        /* \"TimeAlly.sol\":8070:8082  _userAddress */\n      dup10\n        /* \"TimeAlly.sol\":8061:8083  stakings[_userAddress] */\n      0xffffffffffffffffffffffffffffffffffffffff\n      and\n      0xffffffffffffffffffffffffffffffffffffffff\n      and\n      dup2\n      mstore\n      0x20\n      add\n      swap1\n      dup2\n      mstore\n      0x20\n      add\n      0x00\n      keccak256\n        /* \"TimeAlly.sol\":8084:8094  _stakingId */\n      dup8\n        /* \"TimeAlly.sol\":8061:8095  stakings[_userAddress][_stakingId] */\n      dup2\n      sload\n      dup2\n      lt\n      tag_372\n      jumpi\n      invalid\n    tag_372:\n      swap1\n      0x00\n      mstore\n      keccak256(0x00, 0x20)\n      swap1\n      0x09\n      mul\n      add\n        /* \"TimeAlly.sol\":8061:8109  stakings[_userAddress][_stakingId].stakingPlanId */\n      0x02\n      add\n      sload\n        /* \"TimeAlly.sol\":8047:8111  stakingPlans[ stakings[_userAddress][_stakingId].stakingPlanId ] */\n      dup2\n      sload\n      dup2\n      lt\n      tag_374\n      jumpi\n      invalid\n    tag_374:\n      swap1\n      0x00\n      mstore\n      keccak256(0x00, 0x20)\n      swap1\n      0x02\n      mul\n      add\n        /* \"TimeAlly.sol\":8047:8118  stakingPlans[ stakings[_userAddress][_stakingId].stakingPlanId ].months */\n      0x00\n      add\n      sload\n        /* \"TimeAlly.sol\":8032:8044  stakingMonth */\n      dup3\n        /* \"TimeAlly.sol\":8032:8118  stakingMonth + stakingPlans[ stakings[_userAddress][_stakingId].stakingPlanId ].months */\n      add\n        /* \"TimeAlly.sol\":8032:8130  stakingMonth + stakingPlans[ stakings[_userAddress][_stakingId].stakingPlanId ].months >= _atMonth */\n      lt\n      iszero\n        /* \"TimeAlly.sol\":8000:8130  stakingMonth + 1 <= _atMonth && stakingMonth + stakingPlans[ stakings[_userAddress][_stakingId].stakingPlanId ].months >= _atMonth */\n    tag_371:\n        /* \"TimeAlly.sol\":8000:8188  stakingMonth + 1 <= _atMonth && stakingMonth + stakingPlans[ stakings[_userAddress][_stakingId].stakingPlanId ].months >= _atMonth... */\n      dup1\n      iszero\n      tag_376\n      jumpi\n      pop\n        /* \"TimeAlly.sol\":8187:8188  1 */\n      0x01\n        /* \"TimeAlly.sol\":8142:8150  stakings */\n      0x08\n        /* \"TimeAlly.sol\":8142:8164  stakings[_userAddress] */\n      0x00\n        /* \"TimeAlly.sol\":8151:8163  _userAddress */\n      dup9\n        /* \"TimeAlly.sol\":8142:8164  stakings[_userAddress] */\n      0xffffffffffffffffffffffffffffffffffffffff\n      and\n      0xffffffffffffffffffffffffffffffffffffffff\n      and\n      dup2\n      mstore\n      0x20\n      add\n      swap1\n      dup2\n      mstore\n      0x20\n      add\n      0x00\n      keccak256\n        /* \"TimeAlly.sol\":8165:8175  _stakingId */\n      dup7\n        /* \"TimeAlly.sol\":8142:8176  stakings[_userAddress][_stakingId] */\n      dup2\n      sload\n      dup2\n      lt\n      tag_377\n      jumpi\n      invalid\n    tag_377:\n      swap1\n      0x00\n      mstore\n      keccak256(0x00, 0x20)\n      swap1\n      0x09\n      mul\n      add\n        /* \"TimeAlly.sol\":8142:8183  stakings[_userAddress][_stakingId].status */\n      0x03\n      add\n      sload\n        /* \"TimeAlly.sol\":8142:8188  stakings[_userAddress][_stakingId].status == 1 */\n      eq\n        /* \"TimeAlly.sol\":8000:8188  stakingMonth + 1 <= _atMonth && stakingMonth + stakingPlans[ stakings[_userAddress][_stakingId].stakingPlanId ].months >= _atMonth... */\n    tag_376:\n        /* \"TimeAlly.sol\":8000:8408  stakingMonth + 1 <= _atMonth && stakingMonth + stakingPlans[ stakings[_userAddress][_stakingId].stakingPlanId ].months >= _atMonth... */\n      dup1\n      iszero\n      tag_379\n      jumpi\n      pop\n        /* \"TimeAlly.sol\":8229:8237  _atMonth */\n      dup3\n        /* \"TimeAlly.sol\":8212:8225  _currentMonth */\n      dup5\n        /* \"TimeAlly.sol\":8212:8237  _currentMonth != _atMonth */\n      eq\n      iszero\n        /* \"TimeAlly.sol\":8212:8396  _currentMonth != _atMonth... */\n      dup1\n      tag_380\n      jumpi\n      pop\n        /* \"TimeAlly.sol\":8266:8396  stakings[_userAddress][_stakingId].timestamp... */\n      tag_381\n        /* \"TimeAlly.sol\":8339:8394  (_currentMonth - stakingMonth).mul(earthSecondsInMonth) */\n      tag_382\n        /* \"TimeAlly.sol\":8374:8393  earthSecondsInMonth */\n      sload(0x04)\n        /* \"TimeAlly.sol\":8356:8368  stakingMonth */\n      dup4\n        /* \"TimeAlly.sol\":8340:8353  _currentMonth */\n      dup8\n        /* \"TimeAlly.sol\":8340:8368  _currentMonth - stakingMonth */\n      sub\n        /* \"TimeAlly.sol\":8339:8373  (_currentMonth - stakingMonth).mul */\n      tag_194\n      swap1\n        /* \"TimeAlly.sol\":8339:8394  (_currentMonth - stakingMonth).mul(earthSecondsInMonth) */\n      swap2\n      swap1\n      0xffffffff\n      and\n      jump\t// in\n    tag_382:\n        /* \"TimeAlly.sol\":8266:8274  stakings */\n      0x08\n        /* \"TimeAlly.sol\":8266:8288  stakings[_userAddress] */\n      0x00\n        /* \"TimeAlly.sol\":8275:8287  _userAddress */\n      dup10\n        /* \"TimeAlly.sol\":8266:8288  stakings[_userAddress] */\n      0xffffffffffffffffffffffffffffffffffffffff\n      and\n      0xffffffffffffffffffffffffffffffffffffffff\n      and\n      dup2\n      mstore\n      0x20\n      add\n      swap1\n      dup2\n      mstore\n      0x20\n      add\n      0x00\n      keccak256\n        /* \"TimeAlly.sol\":8289:8299  _stakingId */\n      dup8\n        /* \"TimeAlly.sol\":8266:8300  stakings[_userAddress][_stakingId] */\n      dup2\n      sload\n      dup2\n      lt\n      tag_383\n      jumpi\n      invalid\n    tag_383:\n      swap1\n      0x00\n      mstore\n      keccak256(0x00, 0x20)\n      swap1\n      0x09\n      mul\n      add\n        /* \"TimeAlly.sol\":8266:8310  stakings[_userAddress][_stakingId].timestamp */\n      0x01\n      add\n      sload\n        /* \"TimeAlly.sol\":8266:8337  stakings[_userAddress][_stakingId].timestamp... */\n      tag_232\n      swap1\n        /* \"TimeAlly.sol\":8266:8396  stakings[_userAddress][_stakingId].timestamp... */\n      swap2\n      swap1\n      0xffffffff\n      and\n      jump\t// in\n    tag_381:\n        /* \"TimeAlly.sol\":8251:8256  token */\n      0x01\n      0x00\n      swap1\n      sload\n      swap1\n      0x0100\n      exp\n      swap1\n      div\n      0xffffffffffffffffffffffffffffffffffffffff\n      and\n        /* \"TimeAlly.sol\":8251:8260  token.mou */\n      0xffffffffffffffffffffffffffffffffffffffff\n      and\n      0xb81f90f3\n        /* \"TimeAlly.sol\":8251:8262  token.mou() */\n      mload(0x40)\n      dup2\n      0xffffffff\n      and\n      0xe0\n      shl\n      dup2\n      mstore\n      0x04\n      add\n      0x20\n      mload(0x40)\n      dup1\n      dup4\n      sub\n      dup2\n      dup7\n      dup1\n      extcodesize\n      iszero\n        /* \"--CODEGEN--\":8:17   */\n      dup1\n        /* \"--CODEGEN--\":5:7   */\n      iszero\n      tag_385\n      jumpi\n        /* \"--CODEGEN--\":30:31   */\n      0x00\n        /* \"--CODEGEN--\":27:28   */\n      dup1\n        /* \"--CODEGEN--\":20:32   */\n      revert\n        /* \"--CODEGEN--\":5:7   */\n    tag_385:\n        /* \"TimeAlly.sol\":8251:8262  token.mou() */\n      pop\n      gas\n      staticcall\n      iszero\n        /* \"--CODEGEN--\":8:17   */\n      dup1\n        /* \"--CODEGEN--\":5:7   */\n      iszero\n      tag_386\n      jumpi\n        /* \"--CODEGEN--\":45:61   */\n      returndatasize\n        /* \"--CODEGEN--\":42:43   */\n      0x00\n        /* \"--CODEGEN--\":39:40   */\n      dup1\n        /* \"--CODEGEN--\":24:62   */\n      returndatacopy\n        /* \"--CODEGEN--\":77:93   */\n      returndatasize\n        /* \"--CODEGEN--\":74:75   */\n      0x00\n        /* \"--CODEGEN--\":67:94   */\n      revert\n        /* \"--CODEGEN--\":5:7   */\n    tag_386:\n        /* \"TimeAlly.sol\":8251:8262  token.mou() */\n      pop\n      pop\n      pop\n      pop\n      mload(0x40)\n      returndatasize\n        /* \"--CODEGEN--\":13:15   */\n      0x20\n        /* \"--CODEGEN--\":8:11   */\n      dup2\n        /* \"--CODEGEN--\":5:16   */\n      lt\n        /* \"--CODEGEN--\":2:4   */\n      iszero\n      tag_387\n      jumpi\n        /* \"--CODEGEN--\":29:30   */\n      0x00\n        /* \"--CODEGEN--\":26:27   */\n      dup1\n        /* \"--CODEGEN--\":19:31   */\n      revert\n        /* \"--CODEGEN--\":2:4   */\n    tag_387:\n        /* \"TimeAlly.sol\":8251:8262  token.mou() */\n      dup2\n      add\n      swap1\n      dup1\n      dup1\n      mload\n      swap1\n      0x20\n      add\n      swap1\n      swap3\n      swap2\n      swap1\n      pop\n      pop\n      pop\n        /* \"TimeAlly.sol\":8251:8396  token.mou() >= stakings[_userAddress][_stakingId].timestamp... */\n      lt\n      iszero\n        /* \"TimeAlly.sol\":8212:8396  _currentMonth != _atMonth... */\n    tag_380:\n        /* \"TimeAlly.sol\":8000:8408  stakingMonth + 1 <= _atMonth && stakingMonth + stakingPlans[ stakings[_userAddress][_stakingId].stakingPlanId ].months >= _atMonth... */\n    tag_379:\n        /* \"TimeAlly.sol\":7983:8418  return (... */\n      swap2\n      pop\n      pop\n        /* \"TimeAlly.sol\":7716:8425  function isStakingActive(address _userAddress, uint256 _stakingId, uint256 _currentMonth, uint256 _atMonth) public view returns (bool) {... */\n      swap5\n      swap4\n      pop\n      pop\n      pop\n      pop\n      jump\t// out\n        /* \"TimeAlly.sol\":1542:1581  mapping(address => Loan[]) public loans */\n    tag_119:\n      mstore(0x20, 0x09)\n      dup2\n      0x00\n      mstore\n      keccak256(0x00, 0x40)\n      dup2\n      dup2\n      sload\n      dup2\n      lt\n      tag_388\n      jumpi\n      invalid\n    tag_388:\n      swap1\n      0x00\n      mstore\n      keccak256(0x00, 0x20)\n      swap1\n      0x05\n      mul\n      add\n      0x00\n      swap2\n      pop\n      swap2\n      pop\n      pop\n      dup1\n      0x00\n      add\n      sload\n      swap1\n      dup1\n      0x01\n      add\n      sload\n      swap1\n      dup1\n      0x02\n      add\n      sload\n      swap1\n      dup1\n      0x03\n      add\n      sload\n      swap1\n      pop\n      dup5\n      jump\t// out\n        /* \"TimeAlly.sol\":15587:16487  function cancelStaking(uint256 _stakingId) public {... */\n    tag_122:\n        /* \"TimeAlly.sol\":15698:15699  1 */\n      0x01\n        /* \"TimeAlly.sol\":15655:15663  stakings */\n      0x08\n        /* \"TimeAlly.sol\":15655:15675  stakings[msg.sender] */\n      0x00\n        /* \"TimeAlly.sol\":15664:15674  msg.sender */\n      caller\n        /* \"TimeAlly.sol\":15655:15675  stakings[msg.sender] */\n      0xffffffffffffffffffffffffffffffffffffffff\n      and\n      0xffffffffffffffffffffffffffffffffffffffff\n      and\n      dup2\n      mstore\n      0x20\n      add\n      swap1\n      dup2\n      mstore\n      0x20\n      add\n      0x00\n      keccak256\n        /* \"TimeAlly.sol\":15676:15686  _stakingId */\n      dup3\n        /* \"TimeAlly.sol\":15655:15687  stakings[msg.sender][_stakingId] */\n      dup2\n      sload\n      dup2\n      lt\n      tag_391\n      jumpi\n      invalid\n    tag_391:\n      swap1\n      0x00\n      mstore\n      keccak256(0x00, 0x20)\n      swap1\n      0x09\n      mul\n      add\n        /* \"TimeAlly.sol\":15655:15694  stakings[msg.sender][_stakingId].status */\n      0x03\n      add\n      sload\n        /* \"TimeAlly.sol\":15655:15699  stakings[msg.sender][_stakingId].status == 1 */\n      eq\n        /* \"TimeAlly.sol\":15647:15737  require(stakings[msg.sender][_stakingId].status == 1, 'to cansal, staking must be active') */\n      tag_393\n      jumpi\n      mload(0x40)\n      0x08c379a000000000000000000000000000000000000000000000000000000000\n      dup2\n      mstore\n      0x04\n      add\n      dup1\n      dup1\n      0x20\n      add\n      dup3\n      dup2\n      sub\n      dup3\n      mstore\n      0x21\n      dup2\n      mstore\n      0x20\n      add\n      dup1\n      data_a91bf1cb1c3c9b9cd56833c7f2036bb341aa4960f7651241271a69032b7ec915\n      0x21\n      swap2\n      codecopy\n      0x40\n      add\n      swap2\n      pop\n      pop\n      mload(0x40)\n      dup1\n      swap2\n      sub\n      swap1\n      revert\n    tag_393:\n        /* \"TimeAlly.sol\":15790:15791  4 */\n      0x04\n        /* \"TimeAlly.sol\":15748:15756  stakings */\n      0x08\n        /* \"TimeAlly.sol\":15748:15768  stakings[msg.sender] */\n      0x00\n        /* \"TimeAlly.sol\":15757:15767  msg.sender */\n      caller\n        /* \"TimeAlly.sol\":15748:15768  stakings[msg.sender] */\n      0xffffffffffffffffffffffffffffffffffffffff\n      and\n      0xffffffffffffffffffffffffffffffffffffffff\n      and\n      dup2\n      mstore\n      0x20\n      add\n      swap1\n      dup2\n      mstore\n      0x20\n      add\n      0x00\n      keccak256\n        /* \"TimeAlly.sol\":15769:15779  _stakingId */\n      dup3\n        /* \"TimeAlly.sol\":15748:15780  stakings[msg.sender][_stakingId] */\n      dup2\n      sload\n      dup2\n      lt\n      tag_394\n      jumpi\n      invalid\n    tag_394:\n      swap1\n      0x00\n      mstore\n      keccak256(0x00, 0x20)\n      swap1\n      0x09\n      mul\n      add\n        /* \"TimeAlly.sol\":15748:15787  stakings[msg.sender][_stakingId].status */\n      0x03\n      add\n        /* \"TimeAlly.sol\":15748:15791  stakings[msg.sender][_stakingId].status = 4 */\n      dup2\n      swap1\n      sstore\n      pop\n        /* \"TimeAlly.sol\":15802:15823  uint256 _currentMonth */\n      0x00\n        /* \"TimeAlly.sol\":15826:15843  getCurrentMonth() */\n      tag_396\n        /* \"TimeAlly.sol\":15826:15841  getCurrentMonth */\n      tag_148\n        /* \"TimeAlly.sol\":15826:15843  getCurrentMonth() */\n      jump\t// in\n    tag_396:\n        /* \"TimeAlly.sol\":15802:15843  uint256 _currentMonth = getCurrentMonth() */\n      swap1\n      pop\n        /* \"TimeAlly.sol\":15854:15879  uint256 stakingStartMonth */\n      0x00\n        /* \"TimeAlly.sol\":15882:15972  stakings[msg.sender][_stakingId].timestamp.sub(deployedTimestamp).div(earthSecondsInMonth) */\n      tag_397\n        /* \"TimeAlly.sol\":15952:15971  earthSecondsInMonth */\n      sload(0x04)\n        /* \"TimeAlly.sol\":15882:15947  stakings[msg.sender][_stakingId].timestamp.sub(deployedTimestamp) */\n      tag_398\n        /* \"TimeAlly.sol\":15929:15946  deployedTimestamp */\n      sload(0x03)\n        /* \"TimeAlly.sol\":15882:15890  stakings */\n      0x08\n        /* \"TimeAlly.sol\":15882:15902  stakings[msg.sender] */\n      0x00\n        /* \"TimeAlly.sol\":15891:15901  msg.sender */\n      caller\n        /* \"TimeAlly.sol\":15882:15902  stakings[msg.sender] */\n      0xffffffffffffffffffffffffffffffffffffffff\n      and\n      0xffffffffffffffffffffffffffffffffffffffff\n      and\n      dup2\n      mstore\n      0x20\n      add\n      swap1\n      dup2\n      mstore\n      0x20\n      add\n      0x00\n      keccak256\n        /* \"TimeAlly.sol\":15903:15913  _stakingId */\n      dup8\n        /* \"TimeAlly.sol\":15882:15914  stakings[msg.sender][_stakingId] */\n      dup2\n      sload\n      dup2\n      lt\n      tag_399\n      jumpi\n      invalid\n    tag_399:\n      swap1\n      0x00\n      mstore\n      keccak256(0x00, 0x20)\n      swap1\n      0x09\n      mul\n      add\n        /* \"TimeAlly.sol\":15882:15924  stakings[msg.sender][_stakingId].timestamp */\n      0x01\n      add\n      sload\n        /* \"TimeAlly.sol\":15882:15928  stakings[msg.sender][_stakingId].timestamp.sub */\n      tag_184\n      swap1\n        /* \"TimeAlly.sol\":15882:15947  stakings[msg.sender][_stakingId].timestamp.sub(deployedTimestamp) */\n      swap2\n      swap1\n      0xffffffff\n      and\n      jump\t// in\n    tag_398:\n        /* \"TimeAlly.sol\":15882:15951  stakings[msg.sender][_stakingId].timestamp.sub(deployedTimestamp).div */\n      tag_195\n      swap1\n        /* \"TimeAlly.sol\":15882:15972  stakings[msg.sender][_stakingId].timestamp.sub(deployedTimestamp).div(earthSecondsInMonth) */\n      swap2\n      swap1\n      0xffffffff\n      and\n      jump\t// in\n    tag_397:\n        /* \"TimeAlly.sol\":15854:15972  uint256 stakingStartMonth = stakings[msg.sender][_stakingId].timestamp.sub(deployedTimestamp).div(earthSecondsInMonth) */\n      swap1\n      pop\n        /* \"TimeAlly.sol\":15983:16004  uint256 stakeEndMonth */\n      0x00\n        /* \"TimeAlly.sol\":16027:16039  stakingPlans */\n      0x06\n        /* \"TimeAlly.sol\":16040:16048  stakings */\n      0x08\n        /* \"TimeAlly.sol\":16040:16060  stakings[msg.sender] */\n      0x00\n        /* \"TimeAlly.sol\":16049:16059  msg.sender */\n      caller\n        /* \"TimeAlly.sol\":16040:16060  stakings[msg.sender] */\n      0xffffffffffffffffffffffffffffffffffffffff\n      and\n      0xffffffffffffffffffffffffffffffffffffffff\n      and\n      dup2\n      mstore\n      0x20\n      add\n      swap1\n      dup2\n      mstore\n      0x20\n      add\n      0x00\n      keccak256\n        /* \"TimeAlly.sol\":16061:16071  _stakingId */\n      dup6\n        /* \"TimeAlly.sol\":16040:16072  stakings[msg.sender][_stakingId] */\n      dup2\n      sload\n      dup2\n      lt\n      tag_401\n      jumpi\n      invalid\n    tag_401:\n      swap1\n      0x00\n      mstore\n      keccak256(0x00, 0x20)\n      swap1\n      0x09\n      mul\n      add\n        /* \"TimeAlly.sol\":16040:16086  stakings[msg.sender][_stakingId].stakingPlanId */\n      0x02\n      add\n      sload\n        /* \"TimeAlly.sol\":16027:16087  stakingPlans[stakings[msg.sender][_stakingId].stakingPlanId] */\n      dup2\n      sload\n      dup2\n      lt\n      tag_403\n      jumpi\n      invalid\n    tag_403:\n      swap1\n      0x00\n      mstore\n      keccak256(0x00, 0x20)\n      swap1\n      0x02\n      mul\n      add\n        /* \"TimeAlly.sol\":16027:16094  stakingPlans[stakings[msg.sender][_stakingId].stakingPlanId].months */\n      0x00\n      add\n      sload\n        /* \"TimeAlly.sol\":16007:16024  stakingStartMonth */\n      dup3\n        /* \"TimeAlly.sol\":16007:16094  stakingStartMonth + stakingPlans[stakings[msg.sender][_stakingId].stakingPlanId].months */\n      add\n        /* \"TimeAlly.sol\":15983:16094  uint256 stakeEndMonth = stakingStartMonth + stakingPlans[stakings[msg.sender][_stakingId].stakingPlanId].months */\n      swap1\n      pop\n        /* \"TimeAlly.sol\":16109:16118  uint256 j */\n      0x00\n        /* \"TimeAlly.sol\":16137:16138  1 */\n      0x01\n        /* \"TimeAlly.sol\":16121:16134  _currentMonth */\n      dup5\n        /* \"TimeAlly.sol\":16121:16138  _currentMonth + 1 */\n      add\n        /* \"TimeAlly.sol\":16109:16138  uint256 j = _currentMonth + 1 */\n      swap1\n      pop\n        /* \"TimeAlly.sol\":16105:16287  for(uint256 j = _currentMonth + 1; j <= stakeEndMonth; j++) {... */\n    tag_405:\n        /* \"TimeAlly.sol\":16145:16158  stakeEndMonth */\n      dup2\n        /* \"TimeAlly.sol\":16140:16141  j */\n      dup2\n        /* \"TimeAlly.sol\":16140:16158  j <= stakeEndMonth */\n      gt\n        /* \"TimeAlly.sol\":16105:16287  for(uint256 j = _currentMonth + 1; j <= stakeEndMonth; j++) {... */\n      tag_406\n      jumpi\n        /* \"TimeAlly.sol\":16204:16276  totalActiveStakings[j].sub(stakings[msg.sender][_stakingId].exaEsAmount) */\n      tag_408\n        /* \"TimeAlly.sol\":16231:16239  stakings */\n      0x08\n        /* \"TimeAlly.sol\":16231:16251  stakings[msg.sender] */\n      0x00\n        /* \"TimeAlly.sol\":16240:16250  msg.sender */\n      caller\n        /* \"TimeAlly.sol\":16231:16251  stakings[msg.sender] */\n      0xffffffffffffffffffffffffffffffffffffffff\n      and\n      0xffffffffffffffffffffffffffffffffffffffff\n      and\n      dup2\n      mstore\n      0x20\n      add\n      swap1\n      dup2\n      mstore\n      0x20\n      add\n      0x00\n      keccak256\n        /* \"TimeAlly.sol\":16252:16262  _stakingId */\n      dup7\n        /* \"TimeAlly.sol\":16231:16263  stakings[msg.sender][_stakingId] */\n      dup2\n      sload\n      dup2\n      lt\n      tag_409\n      jumpi\n      invalid\n    tag_409:\n      swap1\n      0x00\n      mstore\n      keccak256(0x00, 0x20)\n      swap1\n      0x09\n      mul\n      add\n        /* \"TimeAlly.sol\":16231:16275  stakings[msg.sender][_stakingId].exaEsAmount */\n      0x00\n      add\n      sload\n        /* \"TimeAlly.sol\":16204:16223  totalActiveStakings */\n      0x0a\n        /* \"TimeAlly.sol\":16204:16226  totalActiveStakings[j] */\n      0x00\n        /* \"TimeAlly.sol\":16224:16225  j */\n      dup5\n        /* \"TimeAlly.sol\":16204:16226  totalActiveStakings[j] */\n      dup2\n      mstore\n      0x20\n      add\n      swap1\n      dup2\n      mstore\n      0x20\n      add\n      0x00\n      keccak256\n      sload\n        /* \"TimeAlly.sol\":16204:16230  totalActiveStakings[j].sub */\n      tag_184\n      swap1\n        /* \"TimeAlly.sol\":16204:16276  totalActiveStakings[j].sub(stakings[msg.sender][_stakingId].exaEsAmount) */\n      swap2\n      swap1\n      0xffffffff\n      and\n      jump\t// in\n    tag_408:\n        /* \"TimeAlly.sol\":16179:16198  totalActiveStakings */\n      0x0a\n        /* \"TimeAlly.sol\":16179:16201  totalActiveStakings[j] */\n      0x00\n        /* \"TimeAlly.sol\":16199:16200  j */\n      dup4\n        /* \"TimeAlly.sol\":16179:16201  totalActiveStakings[j] */\n      dup2\n      mstore\n      0x20\n      add\n      swap1\n      dup2\n      mstore\n      0x20\n      add\n      0x00\n      keccak256\n        /* \"TimeAlly.sol\":16179:16276  totalActiveStakings[j] = totalActiveStakings[j].sub(stakings[msg.sender][_stakingId].exaEsAmount) */\n      dup2\n      swap1\n      sstore\n      pop\n        /* \"TimeAlly.sol\":16160:16163  j++ */\n      dup1\n      dup1\n      0x01\n      add\n      swap2\n      pop\n      pop\n        /* \"TimeAlly.sol\":16105:16287  for(uint256 j = _currentMonth + 1; j <= stakeEndMonth; j++) {... */\n      jump(tag_405)\n    tag_406:\n      pop\n        /* \"TimeAlly.sol\":16394:16411  getCurrentMonth() */\n      tag_411\n        /* \"TimeAlly.sol\":16394:16409  getCurrentMonth */\n      tag_148\n        /* \"TimeAlly.sol\":16394:16411  getCurrentMonth() */\n      jump\t// in\n    tag_411:\n        /* \"TimeAlly.sol\":16336:16344  stakings */\n      0x08\n        /* \"TimeAlly.sol\":16336:16356  stakings[msg.sender] */\n      0x00\n        /* \"TimeAlly.sol\":16345:16355  msg.sender */\n      caller\n        /* \"TimeAlly.sol\":16336:16356  stakings[msg.sender] */\n      0xffffffffffffffffffffffffffffffffffffffff\n      and\n      0xffffffffffffffffffffffffffffffffffffffff\n      and\n      dup2\n      mstore\n      0x20\n      add\n      swap1\n      dup2\n      mstore\n      0x20\n      add\n      0x00\n      keccak256\n        /* \"TimeAlly.sol\":16357:16367  _stakingId */\n      dup6\n        /* \"TimeAlly.sol\":16336:16368  stakings[msg.sender][_stakingId] */\n      dup2\n      sload\n      dup2\n      lt\n      tag_412\n      jumpi\n      invalid\n    tag_412:\n      swap1\n      0x00\n      mstore\n      keccak256(0x00, 0x20)\n      swap1\n      0x09\n      mul\n      add\n        /* \"TimeAlly.sol\":16336:16391  stakings[msg.sender][_stakingId].refundMonthClaimedLast */\n      0x07\n      add\n        /* \"TimeAlly.sol\":16336:16411  stakings[msg.sender][_stakingId].refundMonthClaimedLast = getCurrentMonth() */\n      dup2\n      swap1\n      sstore\n      pop\n        /* \"TimeAlly.sol\":16478:16480  24 */\n      0x18\n        /* \"TimeAlly.sol\":16421:16429  stakings */\n      0x08\n        /* \"TimeAlly.sol\":16421:16441  stakings[msg.sender] */\n      0x00\n        /* \"TimeAlly.sol\":16430:16440  msg.sender */\n      caller\n        /* \"TimeAlly.sol\":16421:16441  stakings[msg.sender] */\n      0xffffffffffffffffffffffffffffffffffffffff\n      and\n      0xffffffffffffffffffffffffffffffffffffffff\n      and\n      dup2\n      mstore\n      0x20\n      add\n      swap1\n      dup2\n      mstore\n      0x20\n      add\n      0x00\n      keccak256\n        /* \"TimeAlly.sol\":16442:16452  _stakingId */\n      dup6\n        /* \"TimeAlly.sol\":16421:16453  stakings[msg.sender][_stakingId] */\n      dup2\n      sload\n      dup2\n      lt\n      tag_414\n      jumpi\n      invalid\n    tag_414:\n      swap1\n      0x00\n      mstore\n      keccak256(0x00, 0x20)\n      swap1\n      0x09\n      mul\n      add\n        /* \"TimeAlly.sol\":16421:16475  stakings[msg.sender][_stakingId].refundMonthsRemaining */\n      0x08\n      add\n        /* \"TimeAlly.sol\":16421:16480  stakings[msg.sender][_stakingId].refundMonthsRemaining = 24 */\n      dup2\n      swap1\n      sstore\n      pop\n        /* \"TimeAlly.sol\":15587:16487  function cancelStaking(uint256 _stakingId) public {... */\n      pop\n      pop\n      pop\n      pop\n      jump\t// out\n        /* \"TimeAlly.sol\":4853:4993  function getNumberOfStakingsByUser(address _userAddress) public view returns (uint256) {... */\n    tag_125:\n        /* \"TimeAlly.sol\":4931:4938  uint256 */\n      0x00\n        /* \"TimeAlly.sol\":4957:4965  stakings */\n      0x08\n        /* \"TimeAlly.sol\":4957:4979  stakings[_userAddress] */\n      0x00\n        /* \"TimeAlly.sol\":4966:4978  _userAddress */\n      dup4\n        /* \"TimeAlly.sol\":4957:4979  stakings[_userAddress] */\n      0xffffffffffffffffffffffffffffffffffffffff\n      and\n      0xffffffffffffffffffffffffffffffffffffffff\n      and\n      dup2\n      mstore\n      0x20\n      add\n      swap1\n      dup2\n      mstore\n      0x20\n      add\n      0x00\n      keccak256\n        /* \"TimeAlly.sol\":4957:4986  stakings[_userAddress].length */\n      dup1\n      sload\n      swap1\n      pop\n        /* \"TimeAlly.sol\":4950:4986  return stakings[_userAddress].length */\n      swap1\n      pop\n        /* \"TimeAlly.sol\":4853:4993  function getNumberOfStakingsByUser(address _userAddress) public view returns (uint256) {... */\n      swap2\n      swap1\n      pop\n      jump\t// out\n        /* \"TimeAlly.sol\":17880:18875  function seeMaxLoaningAmountOnUserStakings(address _userAddress, uint256[] memory _stakingIds) public view returns (uint256) {... */\n    tag_131:\n        /* \"TimeAlly.sol\":17996:18003  uint256 */\n      0x00\n        /* \"TimeAlly.sol\":18015:18036  uint256 _currentMonth */\n      dup1\n        /* \"TimeAlly.sol\":18039:18056  getCurrentMonth() */\n      tag_418\n        /* \"TimeAlly.sol\":18039:18054  getCurrentMonth */\n      tag_148\n        /* \"TimeAlly.sol\":18039:18056  getCurrentMonth() */\n      jump\t// in\n    tag_418:\n        /* \"TimeAlly.sol\":18015:18056  uint256 _currentMonth = getCurrentMonth() */\n      swap1\n      pop\n        /* \"TimeAlly.sol\":18143:18174  uint256 userStakingsExaEsAmount */\n      0x00\n        /* \"TimeAlly.sol\":18189:18198  uint256 i */\n      dup1\n        /* \"TimeAlly.sol\":18201:18202  0 */\n      0x00\n        /* \"TimeAlly.sol\":18189:18202  uint256 i = 0 */\n      swap1\n      pop\n        /* \"TimeAlly.sol\":18185:18739  for(uint256 i = 0; i < _stakingIds.length; i++) {... */\n    tag_419:\n        /* \"TimeAlly.sol\":18208:18219  _stakingIds */\n      dup5\n        /* \"TimeAlly.sol\":18208:18226  _stakingIds.length */\n      mload\n        /* \"TimeAlly.sol\":18204:18205  i */\n      dup2\n        /* \"TimeAlly.sol\":18204:18226  i < _stakingIds.length */\n      lt\n        /* \"TimeAlly.sol\":18185:18739  for(uint256 i = 0; i < _stakingIds.length; i++) {... */\n      iszero\n      tag_420\n      jumpi\n        /* \"TimeAlly.sol\":18251:18326  isStakingActive(_userAddress, _stakingIds[i], _currentMonth, _currentMonth) */\n      tag_422\n        /* \"TimeAlly.sol\":18267:18279  _userAddress */\n      dup7\n        /* \"TimeAlly.sol\":18281:18292  _stakingIds */\n      dup7\n        /* \"TimeAlly.sol\":18293:18294  i */\n      dup4\n        /* \"TimeAlly.sol\":18281:18295  _stakingIds[i] */\n      dup2\n      mload\n      dup2\n      lt\n      tag_423\n      jumpi\n      invalid\n    tag_423:\n      0x20\n      mul\n      0x20\n      add\n      add\n      mload\n        /* \"TimeAlly.sol\":18297:18310  _currentMonth */\n      dup6\n        /* \"TimeAlly.sol\":18312:18325  _currentMonth */\n      dup7\n        /* \"TimeAlly.sol\":18251:18266  isStakingActive */\n      tag_116\n        /* \"TimeAlly.sol\":18251:18326  isStakingActive(_userAddress, _stakingIds[i], _currentMonth, _currentMonth) */\n      jump\t// in\n    tag_422:\n        /* \"TimeAlly.sol\":18248:18729  if(isStakingActive(_userAddress, _stakingIds[i], _currentMonth, _currentMonth)... */\n      iszero\n      tag_424\n      jumpi\n        /* \"TimeAlly.sol\":18475:18714  userStakingsExaEsAmount... */\n      tag_425\n        /* \"TimeAlly.sol\":18524:18713  stakings[_userAddress][_stakingIds[i]].exaEsAmount... */\n      tag_426\n        /* \"TimeAlly.sol\":18710:18712  15 */\n      0x0f\n        /* \"TimeAlly.sol\":18524:18684  stakings[_userAddress][_stakingIds[i]].exaEsAmount... */\n      tag_427\n        /* \"TimeAlly.sol\":18600:18612  stakingPlans */\n      0x06\n        /* \"TimeAlly.sol\":18614:18622  stakings */\n      0x08\n        /* \"TimeAlly.sol\":18614:18636  stakings[_userAddress] */\n      0x00\n        /* \"TimeAlly.sol\":18623:18635  _userAddress */\n      dup13\n        /* \"TimeAlly.sol\":18614:18636  stakings[_userAddress] */\n      0xffffffffffffffffffffffffffffffffffffffff\n      and\n      0xffffffffffffffffffffffffffffffffffffffff\n      and\n      dup2\n      mstore\n      0x20\n      add\n      swap1\n      dup2\n      mstore\n      0x20\n      add\n      0x00\n      keccak256\n        /* \"TimeAlly.sol\":18637:18648  _stakingIds */\n      dup11\n        /* \"TimeAlly.sol\":18649:18650  i */\n      dup8\n        /* \"TimeAlly.sol\":18637:18651  _stakingIds[i] */\n      dup2\n      mload\n      dup2\n      lt\n      tag_428\n      jumpi\n      invalid\n    tag_428:\n      0x20\n      mul\n      0x20\n      add\n      add\n      mload\n        /* \"TimeAlly.sol\":18614:18652  stakings[_userAddress][_stakingIds[i]] */\n      dup2\n      sload\n      dup2\n      lt\n      tag_429\n      jumpi\n      invalid\n    tag_429:\n      swap1\n      0x00\n      mstore\n      keccak256(0x00, 0x20)\n      swap1\n      0x09\n      mul\n      add\n        /* \"TimeAlly.sol\":18614:18666  stakings[_userAddress][_stakingIds[i]].stakingPlanId */\n      0x02\n      add\n      sload\n        /* \"TimeAlly.sol\":18600:18668  stakingPlans[ stakings[_userAddress][_stakingIds[i]].stakingPlanId ] */\n      dup2\n      sload\n      dup2\n      lt\n      tag_431\n      jumpi\n      invalid\n    tag_431:\n      swap1\n      0x00\n      mstore\n      keccak256(0x00, 0x20)\n      swap1\n      0x02\n      mul\n      add\n        /* \"TimeAlly.sol\":18600:18683  stakingPlans[ stakings[_userAddress][_stakingIds[i]].stakingPlanId ].fractionFrom15 */\n      0x01\n      add\n      sload\n        /* \"TimeAlly.sol\":18524:18532  stakings */\n      0x08\n        /* \"TimeAlly.sol\":18524:18546  stakings[_userAddress] */\n      0x00\n        /* \"TimeAlly.sol\":18533:18545  _userAddress */\n      dup13\n        /* \"TimeAlly.sol\":18524:18546  stakings[_userAddress] */\n      0xffffffffffffffffffffffffffffffffffffffff\n      and\n      0xffffffffffffffffffffffffffffffffffffffff\n      and\n      dup2\n      mstore\n      0x20\n      add\n      swap1\n      dup2\n      mstore\n      0x20\n      add\n      0x00\n      keccak256\n        /* \"TimeAlly.sol\":18547:18558  _stakingIds */\n      dup11\n        /* \"TimeAlly.sol\":18559:18560  i */\n      dup8\n        /* \"TimeAlly.sol\":18547:18561  _stakingIds[i] */\n      dup2\n      mload\n      dup2\n      lt\n      tag_433\n      jumpi\n      invalid\n    tag_433:\n      0x20\n      mul\n      0x20\n      add\n      add\n      mload\n        /* \"TimeAlly.sol\":18524:18562  stakings[_userAddress][_stakingIds[i]] */\n      dup2\n      sload\n      dup2\n      lt\n      tag_434\n      jumpi\n      invalid\n    tag_434:\n      swap1\n      0x00\n      mstore\n      keccak256(0x00, 0x20)\n      swap1\n      0x09\n      mul\n      add\n        /* \"TimeAlly.sol\":18524:18574  stakings[_userAddress][_stakingIds[i]].exaEsAmount */\n      0x00\n      add\n      sload\n        /* \"TimeAlly.sol\":18524:18599  stakings[_userAddress][_stakingIds[i]].exaEsAmount... */\n      tag_194\n      swap1\n        /* \"TimeAlly.sol\":18524:18684  stakings[_userAddress][_stakingIds[i]].exaEsAmount... */\n      swap2\n      swap1\n      0xffffffff\n      and\n      jump\t// in\n    tag_427:\n        /* \"TimeAlly.sol\":18524:18709  stakings[_userAddress][_stakingIds[i]].exaEsAmount... */\n      tag_195\n      swap1\n        /* \"TimeAlly.sol\":18524:18713  stakings[_userAddress][_stakingIds[i]].exaEsAmount... */\n      swap2\n      swap1\n      0xffffffff\n      and\n      jump\t// in\n    tag_426:\n        /* \"TimeAlly.sol\":18475:18498  userStakingsExaEsAmount */\n      dup4\n        /* \"TimeAlly.sol\":18475:18523  userStakingsExaEsAmount... */\n      tag_232\n      swap1\n        /* \"TimeAlly.sol\":18475:18714  userStakingsExaEsAmount... */\n      swap2\n      swap1\n      0xffffffff\n      and\n      jump\t// in\n    tag_425:\n        /* \"TimeAlly.sol\":18449:18714  userStakingsExaEsAmount = userStakingsExaEsAmount... */\n      swap2\n      pop\n        /* \"TimeAlly.sol\":18248:18729  if(isStakingActive(_userAddress, _stakingIds[i], _currentMonth, _currentMonth)... */\n    tag_424:\n        /* \"TimeAlly.sol\":18228:18231  i++ */\n      dup1\n      dup1\n      0x01\n      add\n      swap2\n      pop\n      pop\n        /* \"TimeAlly.sol\":18185:18739  for(uint256 i = 0; i < _stakingIds.length; i++) {... */\n      jump(tag_419)\n    tag_420:\n      pop\n        /* \"TimeAlly.sol\":18756:18786  userStakingsExaEsAmount.div(2) */\n      tag_436\n        /* \"TimeAlly.sol\":18784:18785  2 */\n      0x02\n        /* \"TimeAlly.sol\":18756:18779  userStakingsExaEsAmount */\n      dup3\n        /* \"TimeAlly.sol\":18756:18783  userStakingsExaEsAmount.div */\n      tag_195\n      swap1\n        /* \"TimeAlly.sol\":18756:18786  userStakingsExaEsAmount.div(2) */\n      swap2\n      swap1\n      0xffffffff\n      and\n      jump\t// in\n    tag_436:\n        /* \"TimeAlly.sol\":18749:18786  return userStakingsExaEsAmount.div(2) */\n      swap3\n      pop\n      pop\n      pop\n        /* \"TimeAlly.sol\":17880:18875  function seeMaxLoaningAmountOnUserStakings(address _userAddress, uint256[] memory _stakingIds) public view returns (uint256) {... */\n      swap3\n      swap2\n      pop\n      pop\n      jump\t// out\n        /* \"TimeAlly.sol\":3261:3480  function createStakingPlan(uint256 _months, uint256 _fractionFrom15) public onlyOwner {... */\n    tag_134:\n        /* \"TimeAlly.sol\":2695:2700  owner */\n      0x00\n      dup1\n      swap1\n      sload\n      swap1\n      0x0100\n      exp\n      swap1\n      div\n      0xffffffffffffffffffffffffffffffffffffffff\n      and\n        /* \"TimeAlly.sol\":2681:2700  msg.sender == owner */\n      0xffffffffffffffffffffffffffffffffffffffff\n      and\n        /* \"TimeAlly.sol\":2681:2691  msg.sender */\n      caller\n        /* \"TimeAlly.sol\":2681:2700  msg.sender == owner */\n      0xffffffffffffffffffffffffffffffffffffffff\n      and\n      eq\n        /* \"TimeAlly.sol\":2673:2727  require(msg.sender == owner, 'only deployer can call') */\n      tag_438\n      jumpi\n      mload(0x40)\n      0x08c379a000000000000000000000000000000000000000000000000000000000\n      dup2\n      mstore\n      0x04\n      add\n      dup1\n      dup1\n      0x20\n      add\n      dup3\n      dup2\n      sub\n      dup3\n      mstore\n      0x16\n      dup2\n      mstore\n      0x20\n      add\n      dup1\n      0x6f6e6c79206465706c6f7965722063616e2063616c6c00000000000000000000\n      dup2\n      mstore\n      pop\n      0x20\n      add\n      swap2\n      pop\n      pop\n      mload(0x40)\n      dup1\n      swap2\n      sub\n      swap1\n      revert\n    tag_438:\n        /* \"TimeAlly.sol\":3357:3369  stakingPlans */\n      0x06\n        /* \"TimeAlly.sol\":3375:3472  StakingPlan({... */\n      mload(0x40)\n      dup1\n      0x40\n      add\n      0x40\n      mstore\n      dup1\n        /* \"TimeAlly.sol\":3409:3416  _months */\n      dup5\n        /* \"TimeAlly.sol\":3375:3472  StakingPlan({... */\n      dup2\n      mstore\n      0x20\n      add\n        /* \"TimeAlly.sol\":3446:3461  _fractionFrom15 */\n      dup4\n        /* \"TimeAlly.sol\":3375:3472  StakingPlan({... */\n      dup2\n      mstore\n      pop\n        /* \"TimeAlly.sol\":3357:3473  stakingPlans.push(StakingPlan({... */\n      swap1\n      dup1\n        /* \"--CODEGEN--\":39:40   */\n      0x01\n        /* \"--CODEGEN--\":33:36   */\n      dup2\n        /* \"--CODEGEN--\":27:37   */\n      sload\n        /* \"--CODEGEN--\":23:41   */\n      add\n        /* \"--CODEGEN--\":57:67   */\n      dup1\n        /* \"--CODEGEN--\":52:55   */\n      dup3\n        /* \"--CODEGEN--\":45:68   */\n      sstore\n        /* \"--CODEGEN--\":79:89   */\n      dup1\n        /* \"--CODEGEN--\":72:89   */\n      swap2\n      pop\n        /* \"--CODEGEN--\":0:93   */\n      pop\n        /* \"TimeAlly.sol\":3357:3473  stakingPlans.push(StakingPlan({... */\n      swap1\n      0x01\n      dup3\n      sub\n      swap1\n      0x00\n      mstore\n      keccak256(0x00, 0x20)\n      swap1\n      0x02\n      mul\n      add\n      0x00\n      swap1\n      swap2\n      swap3\n      swap1\n      swap2\n      swap1\n      swap2\n      pop\n      0x00\n      dup3\n      add\n      mload\n      dup2\n      0x00\n      add\n      sstore\n      0x20\n      dup3\n      add\n      mload\n      dup2\n      0x01\n      add\n      sstore\n      pop\n      pop\n      pop\n        /* \"TimeAlly.sol\":3261:3480  function createStakingPlan(uint256 _months, uint256 _fractionFrom15) public onlyOwner {... */\n      pop\n      pop\n      jump\t// out\n        /* \"TimeAlly.sol\":1427:1454  LoanPlan[] public loanPlans */\n    tag_137:\n      0x07\n      dup2\n      dup2\n      sload\n      dup2\n      lt\n      tag_441\n      jumpi\n      invalid\n    tag_441:\n      swap1\n      0x00\n      mstore\n      keccak256(0x00, 0x20)\n      swap1\n      0x02\n      mul\n      add\n      0x00\n      swap2\n      pop\n      swap1\n      pop\n      dup1\n      0x00\n      add\n      sload\n      swap1\n      dup1\n      0x01\n      add\n      sload\n      swap1\n      pop\n      dup3\n      jump\t// out\n        /* \"TimeAlly.sol\":18881:22208  function takeLoanOnSelfStaking(uint256 _loanPlanId, uint256 _exaEsAmount, uint256[] memory _stakingIds) public {... */\n    tag_143:\n        /* \"TimeAlly.sol\":19225:19246  uint256 _currentMonth */\n      0x00\n        /* \"TimeAlly.sol\":19249:19266  getCurrentMonth() */\n      tag_444\n        /* \"TimeAlly.sol\":19249:19264  getCurrentMonth */\n      tag_148\n        /* \"TimeAlly.sol\":19249:19266  getCurrentMonth() */\n      jump\t// in\n    tag_444:\n        /* \"TimeAlly.sol\":19225:19266  uint256 _currentMonth = getCurrentMonth() */\n      swap1\n      pop\n        /* \"TimeAlly.sol\":19276:19308  uint256 _userStakingsExaEsAmount */\n      0x00\n        /* \"TimeAlly.sol\":19323:19332  uint256 i */\n      dup1\n        /* \"TimeAlly.sol\":19335:19336  0 */\n      0x00\n        /* \"TimeAlly.sol\":19323:19336  uint256 i = 0 */\n      swap1\n      pop\n        /* \"TimeAlly.sol\":19319:20718  for(uint256 i = 0; i < _stakingIds.length; i++) {... */\n    tag_445:\n        /* \"TimeAlly.sol\":19342:19353  _stakingIds */\n      dup4\n        /* \"TimeAlly.sol\":19342:19360  _stakingIds.length */\n      mload\n        /* \"TimeAlly.sol\":19338:19339  i */\n      dup2\n        /* \"TimeAlly.sol\":19338:19360  i < _stakingIds.length */\n      lt\n        /* \"TimeAlly.sol\":19319:20718  for(uint256 i = 0; i < _stakingIds.length; i++) {... */\n      iszero\n      tag_446\n      jumpi\n        /* \"TimeAlly.sol\":19386:19459  isStakingActive(msg.sender, _stakingIds[i], _currentMonth, _currentMonth) */\n      tag_448\n        /* \"TimeAlly.sol\":19402:19412  msg.sender */\n      caller\n        /* \"TimeAlly.sol\":19414:19425  _stakingIds */\n      dup6\n        /* \"TimeAlly.sol\":19426:19427  i */\n      dup4\n        /* \"TimeAlly.sol\":19414:19428  _stakingIds[i] */\n      dup2\n      mload\n      dup2\n      lt\n      tag_449\n      jumpi\n      invalid\n    tag_449:\n      0x20\n      mul\n      0x20\n      add\n      add\n      mload\n        /* \"TimeAlly.sol\":19430:19443  _currentMonth */\n      dup6\n        /* \"TimeAlly.sol\":19445:19458  _currentMonth */\n      dup7\n        /* \"TimeAlly.sol\":19386:19401  isStakingActive */\n      tag_116\n        /* \"TimeAlly.sol\":19386:19459  isStakingActive(msg.sender, _stakingIds[i], _currentMonth, _currentMonth) */\n      jump\t// in\n    tag_448:\n        /* \"TimeAlly.sol\":19382:20708  if( isStakingActive(msg.sender, _stakingIds[i], _currentMonth, _currentMonth) ) {... */\n      iszero\n      tag_450\n      jumpi\n        /* \"TimeAlly.sol\":19549:19839  _userStakingsExaEsAmount... */\n      tag_451\n        /* \"TimeAlly.sol\":19624:19821  stakings[msg.sender][ _stakingIds[i] ].exaEsAmount... */\n      tag_452\n        /* \"TimeAlly.sol\":19818:19820  15 */\n      0x0f\n        /* \"TimeAlly.sol\":19624:19788  stakings[msg.sender][ _stakingIds[i] ].exaEsAmount... */\n      tag_453\n        /* \"TimeAlly.sol\":19705:19717  stakingPlans */\n      0x06\n        /* \"TimeAlly.sol\":19719:19727  stakings */\n      0x08\n        /* \"TimeAlly.sol\":19719:19739  stakings[msg.sender] */\n      0x00\n        /* \"TimeAlly.sol\":19728:19738  msg.sender */\n      caller\n        /* \"TimeAlly.sol\":19719:19739  stakings[msg.sender] */\n      0xffffffffffffffffffffffffffffffffffffffff\n      and\n      0xffffffffffffffffffffffffffffffffffffffff\n      and\n      dup2\n      mstore\n      0x20\n      add\n      swap1\n      dup2\n      mstore\n      0x20\n      add\n      0x00\n      keccak256\n        /* \"TimeAlly.sol\":19740:19751  _stakingIds */\n      dup10\n        /* \"TimeAlly.sol\":19752:19753  i */\n      dup8\n        /* \"TimeAlly.sol\":19740:19754  _stakingIds[i] */\n      dup2\n      mload\n      dup2\n      lt\n      tag_454\n      jumpi\n      invalid\n    tag_454:\n      0x20\n      mul\n      0x20\n      add\n      add\n      mload\n        /* \"TimeAlly.sol\":19719:19755  stakings[msg.sender][_stakingIds[i]] */\n      dup2\n      sload\n      dup2\n      lt\n      tag_455\n      jumpi\n      invalid\n    tag_455:\n      swap1\n      0x00\n      mstore\n      keccak256(0x00, 0x20)\n      swap1\n      0x09\n      mul\n      add\n        /* \"TimeAlly.sol\":19719:19769  stakings[msg.sender][_stakingIds[i]].stakingPlanId */\n      0x02\n      add\n      sload\n        /* \"TimeAlly.sol\":19705:19771  stakingPlans[ stakings[msg.sender][_stakingIds[i]].stakingPlanId ] */\n      dup2\n      sload\n      dup2\n      lt\n      tag_457\n      jumpi\n      invalid\n    tag_457:\n      swap1\n      0x00\n      mstore\n      keccak256(0x00, 0x20)\n      swap1\n      0x02\n      mul\n      add\n        /* \"TimeAlly.sol\":19705:19786  stakingPlans[ stakings[msg.sender][_stakingIds[i]].stakingPlanId ].fractionFrom15 */\n      0x01\n      add\n      sload\n        /* \"TimeAlly.sol\":19624:19632  stakings */\n      0x08\n        /* \"TimeAlly.sol\":19624:19644  stakings[msg.sender] */\n      0x00\n        /* \"TimeAlly.sol\":19633:19643  msg.sender */\n      caller\n        /* \"TimeAlly.sol\":19624:19644  stakings[msg.sender] */\n      0xffffffffffffffffffffffffffffffffffffffff\n      and\n      0xffffffffffffffffffffffffffffffffffffffff\n      and\n      dup2\n      mstore\n      0x20\n      add\n      swap1\n      dup2\n      mstore\n      0x20\n      add\n      0x00\n      keccak256\n        /* \"TimeAlly.sol\":19646:19657  _stakingIds */\n      dup10\n        /* \"TimeAlly.sol\":19658:19659  i */\n      dup8\n        /* \"TimeAlly.sol\":19646:19660  _stakingIds[i] */\n      dup2\n      mload\n      dup2\n      lt\n      tag_459\n      jumpi\n      invalid\n    tag_459:\n      0x20\n      mul\n      0x20\n      add\n      add\n      mload\n        /* \"TimeAlly.sol\":19624:19662  stakings[msg.sender][ _stakingIds[i] ] */\n      dup2\n      sload\n      dup2\n      lt\n      tag_460\n      jumpi\n      invalid\n    tag_460:\n      swap1\n      0x00\n      mstore\n      keccak256(0x00, 0x20)\n      swap1\n      0x09\n      mul\n      add\n        /* \"TimeAlly.sol\":19624:19674  stakings[msg.sender][ _stakingIds[i] ].exaEsAmount */\n      0x00\n      add\n      sload\n        /* \"TimeAlly.sol\":19624:19703  stakings[msg.sender][ _stakingIds[i] ].exaEsAmount... */\n      tag_194\n      swap1\n        /* \"TimeAlly.sol\":19624:19788  stakings[msg.sender][ _stakingIds[i] ].exaEsAmount... */\n      swap2\n      swap1\n      0xffffffff\n      and\n      jump\t// in\n    tag_453:\n        /* \"TimeAlly.sol\":19624:19817  stakings[msg.sender][ _stakingIds[i] ].exaEsAmount... */\n      tag_195\n      swap1\n        /* \"TimeAlly.sol\":19624:19821  stakings[msg.sender][ _stakingIds[i] ].exaEsAmount... */\n      swap2\n      swap1\n      0xffffffff\n      and\n      jump\t// in\n    tag_452:\n        /* \"TimeAlly.sol\":19549:19573  _userStakingsExaEsAmount */\n      dup4\n        /* \"TimeAlly.sol\":19549:19598  _userStakingsExaEsAmount... */\n      tag_232\n      swap1\n        /* \"TimeAlly.sol\":19549:19839  _userStakingsExaEsAmount... */\n      swap2\n      swap1\n      0xffffffff\n      and\n      jump\t// in\n    tag_451:\n        /* \"TimeAlly.sol\":19522:19839  _userStakingsExaEsAmount = _userStakingsExaEsAmount... */\n      swap2\n      pop\n        /* \"TimeAlly.sol\":19908:19933  uint256 stakingStartMonth */\n      0x00\n        /* \"TimeAlly.sol\":19936:20030  stakings[msg.sender][_stakingIds[i]].timestamp.sub(deployedTimestamp).div(earthSecondsInMonth) */\n      tag_462\n        /* \"TimeAlly.sol\":20010:20029  earthSecondsInMonth */\n      sload(0x04)\n        /* \"TimeAlly.sol\":19936:20005  stakings[msg.sender][_stakingIds[i]].timestamp.sub(deployedTimestamp) */\n      tag_463\n        /* \"TimeAlly.sol\":19987:20004  deployedTimestamp */\n      sload(0x03)\n        /* \"TimeAlly.sol\":19936:19944  stakings */\n      0x08\n        /* \"TimeAlly.sol\":19936:19956  stakings[msg.sender] */\n      0x00\n        /* \"TimeAlly.sol\":19945:19955  msg.sender */\n      caller\n        /* \"TimeAlly.sol\":19936:19956  stakings[msg.sender] */\n      0xffffffffffffffffffffffffffffffffffffffff\n      and\n      0xffffffffffffffffffffffffffffffffffffffff\n      and\n      dup2\n      mstore\n      0x20\n      add\n      swap1\n      dup2\n      mstore\n      0x20\n      add\n      0x00\n      keccak256\n        /* \"TimeAlly.sol\":19957:19968  _stakingIds */\n      dup10\n        /* \"TimeAlly.sol\":19969:19970  i */\n      dup8\n        /* \"TimeAlly.sol\":19957:19971  _stakingIds[i] */\n      dup2\n      mload\n      dup2\n      lt\n      tag_464\n      jumpi\n      invalid\n    tag_464:\n      0x20\n      mul\n      0x20\n      add\n      add\n      mload\n        /* \"TimeAlly.sol\":19936:19972  stakings[msg.sender][_stakingIds[i]] */\n      dup2\n      sload\n      dup2\n      lt\n      tag_465\n      jumpi\n      invalid\n    tag_465:\n      swap1\n      0x00\n      mstore\n      keccak256(0x00, 0x20)\n      swap1\n      0x09\n      mul\n      add\n        /* \"TimeAlly.sol\":19936:19982  stakings[msg.sender][_stakingIds[i]].timestamp */\n      0x01\n      add\n      sload\n        /* \"TimeAlly.sol\":19936:19986  stakings[msg.sender][_stakingIds[i]].timestamp.sub */\n      tag_184\n      swap1\n        /* \"TimeAlly.sol\":19936:20005  stakings[msg.sender][_stakingIds[i]].timestamp.sub(deployedTimestamp) */\n      swap2\n      swap1\n      0xffffffff\n      and\n      jump\t// in\n    tag_463:\n        /* \"TimeAlly.sol\":19936:20009  stakings[msg.sender][_stakingIds[i]].timestamp.sub(deployedTimestamp).div */\n      tag_195\n      swap1\n        /* \"TimeAlly.sol\":19936:20030  stakings[msg.sender][_stakingIds[i]].timestamp.sub(deployedTimestamp).div(earthSecondsInMonth) */\n      swap2\n      swap1\n      0xffffffff\n      and\n      jump\t// in\n    tag_462:\n        /* \"TimeAlly.sol\":19908:20030  uint256 stakingStartMonth = stakings[msg.sender][_stakingIds[i]].timestamp.sub(deployedTimestamp).div(earthSecondsInMonth) */\n      swap1\n      pop\n        /* \"TimeAlly.sol\":20049:20070  uint256 stakeEndMonth */\n      0x00\n        /* \"TimeAlly.sol\":20093:20105  stakingPlans */\n      0x06\n        /* \"TimeAlly.sol\":20106:20114  stakings */\n      0x08\n        /* \"TimeAlly.sol\":20106:20126  stakings[msg.sender] */\n      0x00\n        /* \"TimeAlly.sol\":20115:20125  msg.sender */\n      caller\n        /* \"TimeAlly.sol\":20106:20126  stakings[msg.sender] */\n      0xffffffffffffffffffffffffffffffffffffffff\n      and\n      0xffffffffffffffffffffffffffffffffffffffff\n      and\n      dup2\n      mstore\n      0x20\n      add\n      swap1\n      dup2\n      mstore\n      0x20\n      add\n      0x00\n      keccak256\n        /* \"TimeAlly.sol\":20127:20138  _stakingIds */\n      dup8\n        /* \"TimeAlly.sol\":20139:20140  i */\n      dup6\n        /* \"TimeAlly.sol\":20127:20141  _stakingIds[i] */\n      dup2\n      mload\n      dup2\n      lt\n      tag_467\n      jumpi\n      invalid\n    tag_467:\n      0x20\n      mul\n      0x20\n      add\n      add\n      mload\n        /* \"TimeAlly.sol\":20106:20142  stakings[msg.sender][_stakingIds[i]] */\n      dup2\n      sload\n      dup2\n      lt\n      tag_468\n      jumpi\n      invalid\n    tag_468:\n      swap1\n      0x00\n      mstore\n      keccak256(0x00, 0x20)\n      swap1\n      0x09\n      mul\n      add\n        /* \"TimeAlly.sol\":20106:20156  stakings[msg.sender][_stakingIds[i]].stakingPlanId */\n      0x02\n      add\n      sload\n        /* \"TimeAlly.sol\":20093:20157  stakingPlans[stakings[msg.sender][_stakingIds[i]].stakingPlanId] */\n      dup2\n      sload\n      dup2\n      lt\n      tag_470\n      jumpi\n      invalid\n    tag_470:\n      swap1\n      0x00\n      mstore\n      keccak256(0x00, 0x20)\n      swap1\n      0x02\n      mul\n      add\n        /* \"TimeAlly.sol\":20093:20164  stakingPlans[stakings[msg.sender][_stakingIds[i]].stakingPlanId].months */\n      0x00\n      add\n      sload\n        /* \"TimeAlly.sol\":20073:20090  stakingStartMonth */\n      dup3\n        /* \"TimeAlly.sol\":20073:20164  stakingStartMonth + stakingPlans[stakings[msg.sender][_stakingIds[i]].stakingPlanId].months */\n      add\n        /* \"TimeAlly.sol\":20049:20164  uint256 stakeEndMonth = stakingStartMonth + stakingPlans[stakings[msg.sender][_stakingIds[i]].stakingPlanId].months */\n      swap1\n      pop\n        /* \"TimeAlly.sol\":20187:20196  uint256 j */\n      0x00\n        /* \"TimeAlly.sol\":20215:20216  1 */\n      0x01\n        /* \"TimeAlly.sol\":20199:20212  _currentMonth */\n      dup7\n        /* \"TimeAlly.sol\":20199:20216  _currentMonth + 1 */\n      add\n        /* \"TimeAlly.sol\":20187:20216  uint256 j = _currentMonth + 1 */\n      swap1\n      pop\n        /* \"TimeAlly.sol\":20183:20361  for(uint256 j = _currentMonth + 1; j <= stakeEndMonth; j++) {... */\n    tag_472:\n        /* \"TimeAlly.sol\":20223:20236  stakeEndMonth */\n      dup2\n        /* \"TimeAlly.sol\":20218:20219  j */\n      dup2\n        /* \"TimeAlly.sol\":20218:20236  j <= stakeEndMonth */\n      gt\n        /* \"TimeAlly.sol\":20183:20361  for(uint256 j = _currentMonth + 1; j <= stakeEndMonth; j++) {... */\n      tag_473\n      jumpi\n        /* \"TimeAlly.sol\":20290:20342  totalActiveStakings[j].sub(_userStakingsExaEsAmount) */\n      tag_475\n        /* \"TimeAlly.sol\":20317:20341  _userStakingsExaEsAmount */\n      dup6\n        /* \"TimeAlly.sol\":20290:20309  totalActiveStakings */\n      0x0a\n        /* \"TimeAlly.sol\":20290:20312  totalActiveStakings[j] */\n      0x00\n        /* \"TimeAlly.sol\":20310:20311  j */\n      dup5\n        /* \"TimeAlly.sol\":20290:20312  totalActiveStakings[j] */\n      dup2\n      mstore\n      0x20\n      add\n      swap1\n      dup2\n      mstore\n      0x20\n      add\n      0x00\n      keccak256\n      sload\n        /* \"TimeAlly.sol\":20290:20316  totalActiveStakings[j].sub */\n      tag_184\n      swap1\n        /* \"TimeAlly.sol\":20290:20342  totalActiveStakings[j].sub(_userStakingsExaEsAmount) */\n      swap2\n      swap1\n      0xffffffff\n      and\n      jump\t// in\n    tag_475:\n        /* \"TimeAlly.sol\":20265:20284  totalActiveStakings */\n      0x0a\n        /* \"TimeAlly.sol\":20265:20287  totalActiveStakings[j] */\n      0x00\n        /* \"TimeAlly.sol\":20285:20286  j */\n      dup4\n        /* \"TimeAlly.sol\":20265:20287  totalActiveStakings[j] */\n      dup2\n      mstore\n      0x20\n      add\n      swap1\n      dup2\n      mstore\n      0x20\n      add\n      0x00\n      keccak256\n        /* \"TimeAlly.sol\":20265:20342  totalActiveStakings[j] = totalActiveStakings[j].sub(_userStakingsExaEsAmount) */\n      dup2\n      swap1\n      sstore\n      pop\n        /* \"TimeAlly.sol\":20238:20241  j++ */\n      dup1\n      dup1\n      0x01\n      add\n      swap2\n      pop\n      pop\n        /* \"TimeAlly.sol\":20183:20361  for(uint256 j = _currentMonth + 1; j <= stakeEndMonth; j++) {... */\n      jump(tag_472)\n    tag_473:\n      pop\n        /* \"TimeAlly.sol\":20424:20433  uint256 j */\n      0x00\n        /* \"TimeAlly.sol\":20436:20437  1 */\n      0x01\n        /* \"TimeAlly.sol\":20424:20437  uint256 j = 1 */\n      swap1\n      pop\n        /* \"TimeAlly.sol\":20420:20694  for(uint256 j = 1; j <= loanPlans[_loanPlanId].loanMonths; j++) {... */\n    tag_476:\n        /* \"TimeAlly.sol\":20444:20453  loanPlans */\n      0x07\n        /* \"TimeAlly.sol\":20454:20465  _loanPlanId */\n      dup10\n        /* \"TimeAlly.sol\":20444:20466  loanPlans[_loanPlanId] */\n      dup2\n      sload\n      dup2\n      lt\n      tag_479\n      jumpi\n      invalid\n    tag_479:\n      swap1\n      0x00\n      mstore\n      keccak256(0x00, 0x20)\n      swap1\n      0x02\n      mul\n      add\n        /* \"TimeAlly.sol\":20444:20477  loanPlans[_loanPlanId].loanMonths */\n      0x00\n      add\n      sload\n        /* \"TimeAlly.sol\":20439:20440  j */\n      dup2\n        /* \"TimeAlly.sol\":20439:20477  j <= loanPlans[_loanPlanId].loanMonths */\n      gt\n        /* \"TimeAlly.sol\":20420:20694  for(uint256 j = 1; j <= loanPlans[_loanPlanId].loanMonths; j++) {... */\n      tag_477\n      jumpi\n        /* \"TimeAlly.sol\":20583:20587  true */\n      0x01\n        /* \"TimeAlly.sol\":20506:20514  stakings */\n      0x08\n        /* \"TimeAlly.sol\":20506:20526  stakings[msg.sender] */\n      0x00\n        /* \"TimeAlly.sol\":20515:20525  msg.sender */\n      caller\n        /* \"TimeAlly.sol\":20506:20526  stakings[msg.sender] */\n      0xffffffffffffffffffffffffffffffffffffffff\n      and\n      0xffffffffffffffffffffffffffffffffffffffff\n      and\n      dup2\n      mstore\n      0x20\n      add\n      swap1\n      dup2\n      mstore\n      0x20\n      add\n      0x00\n      keccak256\n        /* \"TimeAlly.sol\":20528:20539  _stakingIds */\n      dup9\n        /* \"TimeAlly.sol\":20540:20541  i */\n      dup7\n        /* \"TimeAlly.sol\":20528:20542  _stakingIds[i] */\n      dup2\n      mload\n      dup2\n      lt\n      tag_481\n      jumpi\n      invalid\n    tag_481:\n      0x20\n      mul\n      0x20\n      add\n      add\n      mload\n        /* \"TimeAlly.sol\":20506:20544  stakings[msg.sender][ _stakingIds[i] ] */\n      dup2\n      sload\n      dup2\n      lt\n      tag_482\n      jumpi\n      invalid\n    tag_482:\n      swap1\n      0x00\n      mstore\n      keccak256(0x00, 0x20)\n      swap1\n      0x09\n      mul\n      add\n        /* \"TimeAlly.sol\":20506:20559  stakings[msg.sender][ _stakingIds[i] ].isMonthClaimed */\n      0x06\n      add\n        /* \"TimeAlly.sol\":20506:20580  stakings[msg.sender][ _stakingIds[i] ].isMonthClaimed[ _currentMonth + j ] */\n      0x00\n        /* \"TimeAlly.sol\":20577:20578  j */\n      dup4\n        /* \"TimeAlly.sol\":20561:20574  _currentMonth */\n      dup10\n        /* \"TimeAlly.sol\":20561:20578  _currentMonth + j */\n      add\n        /* \"TimeAlly.sol\":20506:20580  stakings[msg.sender][ _stakingIds[i] ].isMonthClaimed[ _currentMonth + j ] */\n      dup2\n      mstore\n      0x20\n      add\n      swap1\n      dup2\n      mstore\n      0x20\n      add\n      0x00\n      keccak256\n      0x00\n        /* \"TimeAlly.sol\":20506:20587  stakings[msg.sender][ _stakingIds[i] ].isMonthClaimed[ _currentMonth + j ] = true */\n      0x0100\n      exp\n      dup2\n      sload\n      dup2\n      0xff\n      mul\n      not\n      and\n      swap1\n      dup4\n      iszero\n      iszero\n      mul\n      or\n      swap1\n      sstore\n      pop\n        /* \"TimeAlly.sol\":20657:20658  2 */\n      0x02\n        /* \"TimeAlly.sol\":20609:20617  stakings */\n      0x08\n        /* \"TimeAlly.sol\":20609:20629  stakings[msg.sender] */\n      0x00\n        /* \"TimeAlly.sol\":20618:20628  msg.sender */\n      caller\n        /* \"TimeAlly.sol\":20609:20629  stakings[msg.sender] */\n      0xffffffffffffffffffffffffffffffffffffffff\n      and\n      0xffffffffffffffffffffffffffffffffffffffff\n      and\n      dup2\n      mstore\n      0x20\n      add\n      swap1\n      dup2\n      mstore\n      0x20\n      add\n      0x00\n      keccak256\n        /* \"TimeAlly.sol\":20631:20642  _stakingIds */\n      dup9\n        /* \"TimeAlly.sol\":20643:20644  i */\n      dup7\n        /* \"TimeAlly.sol\":20631:20645  _stakingIds[i] */\n      dup2\n      mload\n      dup2\n      lt\n      tag_484\n      jumpi\n      invalid\n    tag_484:\n      0x20\n      mul\n      0x20\n      add\n      add\n      mload\n        /* \"TimeAlly.sol\":20609:20647  stakings[msg.sender][ _stakingIds[i] ] */\n      dup2\n      sload\n      dup2\n      lt\n      tag_485\n      jumpi\n      invalid\n    tag_485:\n      swap1\n      0x00\n      mstore\n      keccak256(0x00, 0x20)\n      swap1\n      0x09\n      mul\n      add\n        /* \"TimeAlly.sol\":20609:20654  stakings[msg.sender][ _stakingIds[i] ].status */\n      0x03\n      add\n        /* \"TimeAlly.sol\":20609:20658  stakings[msg.sender][ _stakingIds[i] ].status = 2 */\n      dup2\n      swap1\n      sstore\n      pop\n        /* \"TimeAlly.sol\":20479:20482  j++ */\n      dup1\n      dup1\n      0x01\n      add\n      swap2\n      pop\n      pop\n        /* \"TimeAlly.sol\":20420:20694  for(uint256 j = 1; j <= loanPlans[_loanPlanId].loanMonths; j++) {... */\n      jump(tag_476)\n    tag_477:\n      pop\n        /* \"TimeAlly.sol\":19382:20708  if( isStakingActive(msg.sender, _stakingIds[i], _currentMonth, _currentMonth) ) {... */\n      pop\n      pop\n    tag_450:\n        /* \"TimeAlly.sol\":19362:19365  i++ */\n      dup1\n      dup1\n      0x01\n      add\n      swap2\n      pop\n      pop\n        /* \"TimeAlly.sol\":19319:20718  for(uint256 i = 0; i < _stakingIds.length; i++) {... */\n      jump(tag_445)\n    tag_446:\n      pop\n        /* \"TimeAlly.sol\":20728:20753  uint256 _maxLoaningAmount */\n      0x00\n        /* \"TimeAlly.sol\":20756:20787  _userStakingsExaEsAmount.div(2) */\n      tag_487\n        /* \"TimeAlly.sol\":20785:20786  2 */\n      0x02\n        /* \"TimeAlly.sol\":20756:20780  _userStakingsExaEsAmount */\n      dup4\n        /* \"TimeAlly.sol\":20756:20784  _userStakingsExaEsAmount.div */\n      tag_195\n      swap1\n        /* \"TimeAlly.sol\":20756:20787  _userStakingsExaEsAmount.div(2) */\n      swap2\n      swap1\n      0xffffffff\n      and\n      jump\t// in\n    tag_487:\n        /* \"TimeAlly.sol\":20728:20787  uint256 _maxLoaningAmount = _userStakingsExaEsAmount.div(2) */\n      swap1\n      pop\n        /* \"TimeAlly.sol\":20816:20833  _maxLoaningAmount */\n      dup1\n        /* \"TimeAlly.sol\":20801:20813  _exaEsAmount */\n      dup6\n        /* \"TimeAlly.sol\":20801:20833  _exaEsAmount > _maxLoaningAmount */\n      gt\n        /* \"TimeAlly.sol\":20798:20916  if(_exaEsAmount > _maxLoaningAmount) {... */\n      iszero\n      tag_488\n      jumpi\n        /* \"TimeAlly.sol\":20857:20862  false */\n      0x00\n        /* \"TimeAlly.sol\":20849:20905  require(false, 'cannot loan more than maxLoaningAmount') */\n      tag_489\n      jumpi\n      mload(0x40)\n      0x08c379a000000000000000000000000000000000000000000000000000000000\n      dup2\n      mstore\n      0x04\n      add\n      dup1\n      dup1\n      0x20\n      add\n      dup3\n      dup2\n      sub\n      dup3\n      mstore\n      0x26\n      dup2\n      mstore\n      0x20\n      add\n      dup1\n      data_39460daa7a45684f9dd0ed61ccf993f0ceb0e72e199b722f68f8fd8b9a275c06\n      0x26\n      swap2\n      codecopy\n      0x40\n      add\n      swap2\n      pop\n      pop\n      mload(0x40)\n      dup1\n      swap2\n      sub\n      swap1\n      revert\n    tag_489:\n        /* \"TimeAlly.sol\":20798:20916  if(_exaEsAmount > _maxLoaningAmount) {... */\n    tag_488:\n        /* \"TimeAlly.sol\":20927:20948  uint256 _loanInterest */\n      0x00\n        /* \"TimeAlly.sol\":20951:21009  _exaEsAmount.mul(loanPlans[_loanPlanId].loanRate).div(100) */\n      tag_490\n        /* \"TimeAlly.sol\":21005:21008  100 */\n      0x64\n        /* \"TimeAlly.sol\":20951:21000  _exaEsAmount.mul(loanPlans[_loanPlanId].loanRate) */\n      tag_491\n        /* \"TimeAlly.sol\":20968:20977  loanPlans */\n      0x07\n        /* \"TimeAlly.sol\":20978:20989  _loanPlanId */\n      dup11\n        /* \"TimeAlly.sol\":20968:20990  loanPlans[_loanPlanId] */\n      dup2\n      sload\n      dup2\n      lt\n      tag_492\n      jumpi\n      invalid\n    tag_492:\n      swap1\n      0x00\n      mstore\n      keccak256(0x00, 0x20)\n      swap1\n      0x02\n      mul\n      add\n        /* \"TimeAlly.sol\":20968:20999  loanPlans[_loanPlanId].loanRate */\n      0x01\n      add\n      sload\n        /* \"TimeAlly.sol\":20951:20963  _exaEsAmount */\n      dup10\n        /* \"TimeAlly.sol\":20951:20967  _exaEsAmount.mul */\n      tag_194\n      swap1\n        /* \"TimeAlly.sol\":20951:21000  _exaEsAmount.mul(loanPlans[_loanPlanId].loanRate) */\n      swap2\n      swap1\n      0xffffffff\n      and\n      jump\t// in\n    tag_491:\n        /* \"TimeAlly.sol\":20951:21004  _exaEsAmount.mul(loanPlans[_loanPlanId].loanRate).div */\n      tag_195\n      swap1\n        /* \"TimeAlly.sol\":20951:21009  _exaEsAmount.mul(loanPlans[_loanPlanId].loanRate).div(100) */\n      swap2\n      swap1\n      0xffffffff\n      and\n      jump\t// in\n    tag_490:\n        /* \"TimeAlly.sol\":20927:21009  uint256 _loanInterest = _exaEsAmount.mul(loanPlans[_loanPlanId].loanRate).div(100) */\n      swap1\n      pop\n        /* \"TimeAlly.sol\":21019:21048  uint256 _loanAmountToTransfer */\n      0x00\n        /* \"TimeAlly.sol\":21051:21082  _exaEsAmount.sub(_loanInterest) */\n      tag_494\n        /* \"TimeAlly.sol\":21068:21081  _loanInterest */\n      dup3\n        /* \"TimeAlly.sol\":21051:21063  _exaEsAmount */\n      dup9\n        /* \"TimeAlly.sol\":21051:21067  _exaEsAmount.sub */\n      tag_184\n      swap1\n        /* \"TimeAlly.sol\":21051:21082  _exaEsAmount.sub(_loanInterest) */\n      swap2\n      swap1\n      0xffffffff\n      and\n      jump\t// in\n    tag_494:\n        /* \"TimeAlly.sol\":21019:21082  uint256 _loanAmountToTransfer = _exaEsAmount.sub(_loanInterest) */\n      swap1\n      pop\n        /* \"TimeAlly.sol\":21102:21107  token */\n      0x01\n      0x00\n      swap1\n      sload\n      swap1\n      0x0100\n      exp\n      swap1\n      div\n      0xffffffffffffffffffffffffffffffffffffffff\n      and\n        /* \"TimeAlly.sol\":21102:21116  token.transfer */\n      0xffffffffffffffffffffffffffffffffffffffff\n      and\n      0xa9059cbb\n        /* \"TimeAlly.sol\":21125:21135  nrtManager */\n      0x02\n      0x00\n      swap1\n      sload\n      swap1\n      0x0100\n      exp\n      swap1\n      div\n      0xffffffffffffffffffffffffffffffffffffffff\n      and\n        /* \"TimeAlly.sol\":21138:21151  _loanInterest */\n      dup5\n        /* \"TimeAlly.sol\":21102:21152  token.transfer(address(nrtManager), _loanInterest) */\n      mload(0x40)\n      dup4\n      0xffffffff\n      and\n      0xe0\n      shl\n      dup2\n      mstore\n      0x04\n      add\n      dup1\n      dup4\n      0xffffffffffffffffffffffffffffffffffffffff\n      and\n      0xffffffffffffffffffffffffffffffffffffffff\n      and\n      dup2\n      mstore\n      0x20\n      add\n      dup3\n      dup2\n      mstore\n      0x20\n      add\n      swap3\n      pop\n      pop\n      pop\n      0x20\n      mload(0x40)\n      dup1\n      dup4\n      sub\n      dup2\n      0x00\n      dup8\n      dup1\n      extcodesize\n      iszero\n        /* \"--CODEGEN--\":8:17   */\n      dup1\n        /* \"--CODEGEN--\":5:7   */\n      iszero\n      tag_495\n      jumpi\n        /* \"--CODEGEN--\":30:31   */\n      0x00\n        /* \"--CODEGEN--\":27:28   */\n      dup1\n        /* \"--CODEGEN--\":20:32   */\n      revert\n        /* \"--CODEGEN--\":5:7   */\n    tag_495:\n        /* \"TimeAlly.sol\":21102:21152  token.transfer(address(nrtManager), _loanInterest) */\n      pop\n      gas\n      call\n      iszero\n        /* \"--CODEGEN--\":8:17   */\n      dup1\n        /* \"--CODEGEN--\":5:7   */\n      iszero\n      tag_496\n      jumpi\n        /* \"--CODEGEN--\":45:61   */\n      returndatasize\n        /* \"--CODEGEN--\":42:43   */\n      0x00\n        /* \"--CODEGEN--\":39:40   */\n      dup1\n        /* \"--CODEGEN--\":24:62   */\n      returndatacopy\n        /* \"--CODEGEN--\":77:93   */\n      returndatasize\n        /* \"--CODEGEN--\":74:75   */\n      0x00\n        /* \"--CODEGEN--\":67:94   */\n      revert\n        /* \"--CODEGEN--\":5:7   */\n    tag_496:\n        /* \"TimeAlly.sol\":21102:21152  token.transfer(address(nrtManager), _loanInterest) */\n      pop\n      pop\n      pop\n      pop\n      mload(0x40)\n      returndatasize\n        /* \"--CODEGEN--\":13:15   */\n      0x20\n        /* \"--CODEGEN--\":8:11   */\n      dup2\n        /* \"--CODEGEN--\":5:16   */\n      lt\n        /* \"--CODEGEN--\":2:4   */\n      iszero\n      tag_497\n      jumpi\n        /* \"--CODEGEN--\":29:30   */\n      0x00\n        /* \"--CODEGEN--\":26:27   */\n      dup1\n        /* \"--CODEGEN--\":19:31   */\n      revert\n        /* \"--CODEGEN--\":2:4   */\n    tag_497:\n        /* \"TimeAlly.sol\":21102:21152  token.transfer(address(nrtManager), _loanInterest) */\n      dup2\n      add\n      swap1\n      dup1\n      dup1\n      mload\n      swap1\n      0x20\n      add\n      swap1\n      swap3\n      swap2\n      swap1\n      pop\n      pop\n      pop\n        /* \"TimeAlly.sol\":21093:21154  require( token.transfer(address(nrtManager), _loanInterest) ) */\n      tag_498\n      jumpi\n      0x00\n      dup1\n      revert\n    tag_498:\n        /* \"TimeAlly.sol\":21173:21183  nrtManager */\n      0x02\n      0x00\n      swap1\n      sload\n      swap1\n      0x0100\n      exp\n      swap1\n      div\n      0xffffffffffffffffffffffffffffffffffffffff\n      and\n        /* \"TimeAlly.sol\":21173:21198  nrtManager.UpdateLuckpool */\n      0xffffffffffffffffffffffffffffffffffffffff\n      and\n      0x382e2aab\n        /* \"TimeAlly.sol\":21199:21212  _loanInterest */\n      dup4\n        /* \"TimeAlly.sol\":21173:21213  nrtManager.UpdateLuckpool(_loanInterest) */\n      mload(0x40)\n      dup3\n      0xffffffff\n      and\n      0xe0\n      shl\n      dup2\n      mstore\n      0x04\n      add\n      dup1\n      dup3\n      dup2\n      mstore\n      0x20\n      add\n      swap2\n      pop\n      pop\n      0x20\n      mload(0x40)\n      dup1\n      dup4\n      sub\n      dup2\n      0x00\n      dup8\n      dup1\n      extcodesize\n      iszero\n        /* \"--CODEGEN--\":8:17   */\n      dup1\n        /* \"--CODEGEN--\":5:7   */\n      iszero\n      tag_499\n      jumpi\n        /* \"--CODEGEN--\":30:31   */\n      0x00\n        /* \"--CODEGEN--\":27:28   */\n      dup1\n        /* \"--CODEGEN--\":20:32   */\n      revert\n        /* \"--CODEGEN--\":5:7   */\n    tag_499:\n        /* \"TimeAlly.sol\":21173:21213  nrtManager.UpdateLuckpool(_loanInterest) */\n      pop\n      gas\n      call\n      iszero\n        /* \"--CODEGEN--\":8:17   */\n      dup1\n        /* \"--CODEGEN--\":5:7   */\n      iszero\n      tag_500\n      jumpi\n        /* \"--CODEGEN--\":45:61   */\n      returndatasize\n        /* \"--CODEGEN--\":42:43   */\n      0x00\n        /* \"--CODEGEN--\":39:40   */\n      dup1\n        /* \"--CODEGEN--\":24:62   */\n      returndatacopy\n        /* \"--CODEGEN--\":77:93   */\n      returndatasize\n        /* \"--CODEGEN--\":74:75   */\n      0x00\n        /* \"--CODEGEN--\":67:94   */\n      revert\n        /* \"--CODEGEN--\":5:7   */\n    tag_500:\n        /* \"TimeAlly.sol\":21173:21213  nrtManager.UpdateLuckpool(_loanInterest) */\n      pop\n      pop\n      pop\n      pop\n      mload(0x40)\n      returndatasize\n        /* \"--CODEGEN--\":13:15   */\n      0x20\n        /* \"--CODEGEN--\":8:11   */\n      dup2\n        /* \"--CODEGEN--\":5:16   */\n      lt\n        /* \"--CODEGEN--\":2:4   */\n      iszero\n      tag_501\n      jumpi\n        /* \"--CODEGEN--\":29:30   */\n      0x00\n        /* \"--CODEGEN--\":26:27   */\n      dup1\n        /* \"--CODEGEN--\":19:31   */\n      revert\n        /* \"--CODEGEN--\":2:4   */\n    tag_501:\n        /* \"TimeAlly.sol\":21173:21213  nrtManager.UpdateLuckpool(_loanInterest) */\n      dup2\n      add\n      swap1\n      dup1\n      dup1\n      mload\n      swap1\n      0x20\n      add\n      swap1\n      swap3\n      swap2\n      swap1\n      pop\n      pop\n      pop\n        /* \"TimeAlly.sol\":21164:21215  require( nrtManager.UpdateLuckpool(_loanInterest) ) */\n      tag_502\n      jumpi\n      0x00\n      dup1\n      revert\n    tag_502:\n        /* \"TimeAlly.sol\":21783:21788  loans */\n      0x09\n        /* \"TimeAlly.sol\":21783:21800  loans[msg.sender] */\n      0x00\n        /* \"TimeAlly.sol\":21789:21799  msg.sender */\n      caller\n        /* \"TimeAlly.sol\":21783:21800  loans[msg.sender] */\n      0xffffffffffffffffffffffffffffffffffffffff\n      and\n      0xffffffffffffffffffffffffffffffffffffffff\n      and\n      dup2\n      mstore\n      0x20\n      add\n      swap1\n      dup2\n      mstore\n      0x20\n      add\n      0x00\n      keccak256\n        /* \"TimeAlly.sol\":21806:21994  Loan({... */\n      mload(0x40)\n      dup1\n      0xa0\n      add\n      0x40\n      mstore\n      dup1\n        /* \"TimeAlly.sol\":21838:21850  _exaEsAmount */\n      dup10\n        /* \"TimeAlly.sol\":21806:21994  Loan({... */\n      dup2\n      mstore\n      0x20\n      add\n        /* \"TimeAlly.sol\":21875:21880  token */\n      0x01\n      0x00\n      swap1\n      sload\n      swap1\n      0x0100\n      exp\n      swap1\n      div\n      0xffffffffffffffffffffffffffffffffffffffff\n      and\n        /* \"TimeAlly.sol\":21875:21884  token.mou */\n      0xffffffffffffffffffffffffffffffffffffffff\n      and\n      0xb81f90f3\n        /* \"TimeAlly.sol\":21875:21886  token.mou() */\n      mload(0x40)\n      dup2\n      0xffffffff\n      and\n      0xe0\n      shl\n      dup2\n      mstore\n      0x04\n      add\n      0x20\n      mload(0x40)\n      dup1\n      dup4\n      sub\n      dup2\n      dup7\n      dup1\n      extcodesize\n      iszero\n        /* \"--CODEGEN--\":8:17   */\n      dup1\n        /* \"--CODEGEN--\":5:7   */\n      iszero\n      tag_503\n      jumpi\n        /* \"--CODEGEN--\":30:31   */\n      0x00\n        /* \"--CODEGEN--\":27:28   */\n      dup1\n        /* \"--CODEGEN--\":20:32   */\n      revert\n        /* \"--CODEGEN--\":5:7   */\n    tag_503:\n        /* \"TimeAlly.sol\":21875:21886  token.mou() */\n      pop\n      gas\n      staticcall\n      iszero\n        /* \"--CODEGEN--\":8:17   */\n      dup1\n        /* \"--CODEGEN--\":5:7   */\n      iszero\n      tag_504\n      jumpi\n        /* \"--CODEGEN--\":45:61   */\n      returndatasize\n        /* \"--CODEGEN--\":42:43   */\n      0x00\n        /* \"--CODEGEN--\":39:40   */\n      dup1\n        /* \"--CODEGEN--\":24:62   */\n      returndatacopy\n        /* \"--CODEGEN--\":77:93   */\n      returndatasize\n        /* \"--CODEGEN--\":74:75   */\n      0x00\n        /* \"--CODEGEN--\":67:94   */\n      revert\n        /* \"--CODEGEN--\":5:7   */\n    tag_504:\n        /* \"TimeAlly.sol\":21875:21886  token.mou() */\n      pop\n      pop\n      pop\n      pop\n      mload(0x40)\n      returndatasize\n        /* \"--CODEGEN--\":13:15   */\n      0x20\n        /* \"--CODEGEN--\":8:11   */\n      dup2\n        /* \"--CODEGEN--\":5:16   */\n      lt\n        /* \"--CODEGEN--\":2:4   */\n      iszero\n      tag_505\n      jumpi\n        /* \"--CODEGEN--\":29:30   */\n      0x00\n        /* \"--CODEGEN--\":26:27   */\n      dup1\n        /* \"--CODEGEN--\":19:31   */\n      revert\n        /* \"--CODEGEN--\":2:4   */\n    tag_505:\n        /* \"TimeAlly.sol\":21875:21886  token.mou() */\n      dup2\n      add\n      swap1\n      dup1\n      dup1\n      mload\n      swap1\n      0x20\n      add\n      swap1\n      swap3\n      swap2\n      swap1\n      pop\n      pop\n      pop\n        /* \"TimeAlly.sol\":21806:21994  Loan({... */\n      dup2\n      mstore\n      0x20\n      add\n        /* \"TimeAlly.sol\":21912:21923  _loanPlanId */\n      dup11\n        /* \"TimeAlly.sol\":21806:21994  Loan({... */\n      dup2\n      mstore\n      0x20\n      add\n        /* \"TimeAlly.sol\":21945:21946  1 */\n      0x01\n        /* \"TimeAlly.sol\":21806:21994  Loan({... */\n      dup2\n      mstore\n      0x20\n      add\n        /* \"TimeAlly.sol\":21972:21983  _stakingIds */\n      dup9\n        /* \"TimeAlly.sol\":21806:21994  Loan({... */\n      dup2\n      mstore\n      pop\n        /* \"TimeAlly.sol\":21783:21995  loans[msg.sender].push(Loan({... */\n      swap1\n      dup1\n        /* \"--CODEGEN--\":39:40   */\n      0x01\n        /* \"--CODEGEN--\":33:36   */\n      dup2\n        /* \"--CODEGEN--\":27:37   */\n      sload\n        /* \"--CODEGEN--\":23:41   */\n      add\n        /* \"--CODEGEN--\":57:67   */\n      dup1\n        /* \"--CODEGEN--\":52:55   */\n      dup3\n        /* \"--CODEGEN--\":45:68   */\n      sstore\n        /* \"--CODEGEN--\":79:89   */\n      dup1\n        /* \"--CODEGEN--\":72:89   */\n      swap2\n      pop\n        /* \"--CODEGEN--\":0:93   */\n      pop\n        /* \"TimeAlly.sol\":21783:21995  loans[msg.sender].push(Loan({... */\n      swap1\n      0x01\n      dup3\n      sub\n      swap1\n      0x00\n      mstore\n      keccak256(0x00, 0x20)\n      swap1\n      0x05\n      mul\n      add\n      0x00\n      swap1\n      swap2\n      swap3\n      swap1\n      swap2\n      swap1\n      swap2\n      pop\n      0x00\n      dup3\n      add\n      mload\n      dup2\n      0x00\n      add\n      sstore\n      0x20\n      dup3\n      add\n      mload\n      dup2\n      0x01\n      add\n      sstore\n      0x40\n      dup3\n      add\n      mload\n      dup2\n      0x02\n      add\n      sstore\n      0x60\n      dup3\n      add\n      mload\n      dup2\n      0x03\n      add\n      sstore\n      0x80\n      dup3\n      add\n      mload\n      dup2\n      0x04\n      add\n      swap1\n      dup1\n      mload\n      swap1\n      0x20\n      add\n      swap1\n      tag_507\n      swap3\n      swap2\n      swap1\n      tag_508\n      jump\t// in\n    tag_507:\n      pop\n      pop\n      pop\n      pop\n        /* \"TimeAlly.sol\":22043:22048  token */\n      0x01\n      0x00\n      swap1\n      sload\n      swap1\n      0x0100\n      exp\n      swap1\n      div\n      0xffffffffffffffffffffffffffffffffffffffff\n      and\n        /* \"TimeAlly.sol\":22043:22057  token.transfer */\n      0xffffffffffffffffffffffffffffffffffffffff\n      and\n      0xa9059cbb\n        /* \"TimeAlly.sol\":22058:22068  msg.sender */\n      caller\n        /* \"TimeAlly.sol\":22070:22091  _loanAmountToTransfer */\n      dup4\n        /* \"TimeAlly.sol\":22043:22092  token.transfer(msg.sender, _loanAmountToTransfer) */\n      mload(0x40)\n      dup4\n      0xffffffff\n      and\n      0xe0\n      shl\n      dup2\n      mstore\n      0x04\n      add\n      dup1\n      dup4\n      0xffffffffffffffffffffffffffffffffffffffff\n      and\n      0xffffffffffffffffffffffffffffffffffffffff\n      and\n      dup2\n      mstore\n      0x20\n      add\n      dup3\n      dup2\n      mstore\n      0x20\n      add\n      swap3\n      pop\n      pop\n      pop\n      0x20\n      mload(0x40)\n      dup1\n      dup4\n      sub\n      dup2\n      0x00\n      dup8\n      dup1\n      extcodesize\n      iszero\n        /* \"--CODEGEN--\":8:17   */\n      dup1\n        /* \"--CODEGEN--\":5:7   */\n      iszero\n      tag_509\n      jumpi\n        /* \"--CODEGEN--\":30:31   */\n      0x00\n        /* \"--CODEGEN--\":27:28   */\n      dup1\n        /* \"--CODEGEN--\":20:32   */\n      revert\n        /* \"--CODEGEN--\":5:7   */\n    tag_509:\n        /* \"TimeAlly.sol\":22043:22092  token.transfer(msg.sender, _loanAmountToTransfer) */\n      pop\n      gas\n      call\n      iszero\n        /* \"--CODEGEN--\":8:17   */\n      dup1\n        /* \"--CODEGEN--\":5:7   */\n      iszero\n      tag_510\n      jumpi\n        /* \"--CODEGEN--\":45:61   */\n      returndatasize\n        /* \"--CODEGEN--\":42:43   */\n      0x00\n        /* \"--CODEGEN--\":39:40   */\n      dup1\n        /* \"--CODEGEN--\":24:62   */\n      returndatacopy\n        /* \"--CODEGEN--\":77:93   */\n      returndatasize\n        /* \"--CODEGEN--\":74:75   */\n      0x00\n        /* \"--CODEGEN--\":67:94   */\n      revert\n        /* \"--CODEGEN--\":5:7   */\n    tag_510:\n        /* \"TimeAlly.sol\":22043:22092  token.transfer(msg.sender, _loanAmountToTransfer) */\n      pop\n      pop\n      pop\n      pop\n      mload(0x40)\n      returndatasize\n        /* \"--CODEGEN--\":13:15   */\n      0x20\n        /* \"--CODEGEN--\":8:11   */\n      dup2\n        /* \"--CODEGEN--\":5:16   */\n      lt\n        /* \"--CODEGEN--\":2:4   */\n      iszero\n      tag_511\n      jumpi\n        /* \"--CODEGEN--\":29:30   */\n      0x00\n        /* \"--CODEGEN--\":26:27   */\n      dup1\n        /* \"--CODEGEN--\":19:31   */\n      revert\n        /* \"--CODEGEN--\":2:4   */\n    tag_511:\n        /* \"TimeAlly.sol\":22043:22092  token.transfer(msg.sender, _loanAmountToTransfer) */\n      dup2\n      add\n      swap1\n      dup1\n      dup1\n      mload\n      swap1\n      0x20\n      add\n      swap1\n      swap3\n      swap2\n      swap1\n      pop\n      pop\n      pop\n        /* \"TimeAlly.sol\":22034:22094  require( token.transfer(msg.sender, _loanAmountToTransfer) ) */\n      tag_512\n      jumpi\n      0x00\n      dup1\n      revert\n    tag_512:\n        /* \"TimeAlly.sol\":22130:22141  _loanPlanId */\n      dup8\n        /* \"TimeAlly.sol\":22118:22128  msg.sender */\n      caller\n        /* \"TimeAlly.sol\":22110:22201  NewLoan(msg.sender, _loanPlanId, _exaEsAmount, _loanInterest, loans[msg.sender].length - 1) */\n      0xffffffffffffffffffffffffffffffffffffffff\n      and\n      0x583f4a449110798c282200ea42774808b8147fa4bcb89a6ca406dd0650e034e7\n        /* \"TimeAlly.sol\":22143:22155  _exaEsAmount */\n      dup10\n        /* \"TimeAlly.sol\":22157:22170  _loanInterest */\n      dup6\n        /* \"TimeAlly.sol\":22199:22200  1 */\n      0x01\n        /* \"TimeAlly.sol\":22172:22177  loans */\n      0x09\n        /* \"TimeAlly.sol\":22172:22189  loans[msg.sender] */\n      0x00\n        /* \"TimeAlly.sol\":22178:22188  msg.sender */\n      caller\n        /* \"TimeAlly.sol\":22172:22189  loans[msg.sender] */\n      0xffffffffffffffffffffffffffffffffffffffff\n      and\n      0xffffffffffffffffffffffffffffffffffffffff\n      and\n      dup2\n      mstore\n      0x20\n      add\n      swap1\n      dup2\n      mstore\n      0x20\n      add\n      0x00\n      keccak256\n        /* \"TimeAlly.sol\":22172:22196  loans[msg.sender].length */\n      dup1\n      sload\n      swap1\n      pop\n        /* \"TimeAlly.sol\":22172:22200  loans[msg.sender].length - 1 */\n      sub\n        /* \"TimeAlly.sol\":22110:22201  NewLoan(msg.sender, _loanPlanId, _exaEsAmount, _loanInterest, loans[msg.sender].length - 1) */\n      mload(0x40)\n      dup1\n      dup5\n      dup2\n      mstore\n      0x20\n      add\n      dup4\n      dup2\n      mstore\n      0x20\n      add\n      dup3\n      dup2\n      mstore\n      0x20\n      add\n      swap4\n      pop\n      pop\n      pop\n      pop\n      mload(0x40)\n      dup1\n      swap2\n      sub\n      swap1\n      log3\n        /* \"TimeAlly.sol\":18881:22208  function takeLoanOnSelfStaking(uint256 _loanPlanId, uint256 _exaEsAmount, uint256[] memory _stakingIds) public {... */\n      pop\n      pop\n      pop\n      pop\n      pop\n      pop\n      pop\n      pop\n      jump\t// out\n        /* \"TimeAlly.sol\":6503:7631  function claimLaunchReward(uint256 _stakingPlanId) public {... */\n    tag_146:\n        /* \"TimeAlly.sol\":6606:6607  0 */\n      0x00\n        /* \"TimeAlly.sol\":6579:6591  launchReward */\n      0x0c\n        /* \"TimeAlly.sol\":6579:6603  launchReward[msg.sender] */\n      0x00\n        /* \"TimeAlly.sol\":6592:6602  msg.sender */\n      caller\n        /* \"TimeAlly.sol\":6579:6603  launchReward[msg.sender] */\n      0xffffffffffffffffffffffffffffffffffffffff\n      and\n      0xffffffffffffffffffffffffffffffffffffffff\n      and\n      dup2\n      mstore\n      0x20\n      add\n      swap1\n      dup2\n      mstore\n      0x20\n      add\n      0x00\n      keccak256\n      sload\n        /* \"TimeAlly.sol\":6579:6607  launchReward[msg.sender] > 0 */\n      gt\n        /* \"TimeAlly.sol\":6571:6608  require(launchReward[msg.sender] > 0) */\n      tag_514\n      jumpi\n      0x00\n      dup1\n      revert\n    tag_514:\n        /* \"TimeAlly.sol\":6618:6632  uint256 reward */\n      0x00\n        /* \"TimeAlly.sol\":6635:6647  launchReward */\n      0x0c\n        /* \"TimeAlly.sol\":6635:6659  launchReward[msg.sender] */\n      0x00\n        /* \"TimeAlly.sol\":6648:6658  msg.sender */\n      caller\n        /* \"TimeAlly.sol\":6635:6659  launchReward[msg.sender] */\n      0xffffffffffffffffffffffffffffffffffffffff\n      and\n      0xffffffffffffffffffffffffffffffffffffffff\n      and\n      dup2\n      mstore\n      0x20\n      add\n      swap1\n      dup2\n      mstore\n      0x20\n      add\n      0x00\n      keccak256\n      sload\n        /* \"TimeAlly.sol\":6618:6659  uint256 reward = launchReward[msg.sender] */\n      swap1\n      pop\n        /* \"TimeAlly.sol\":6696:6697  0 */\n      0x00\n        /* \"TimeAlly.sol\":6669:6681  launchReward */\n      0x0c\n        /* \"TimeAlly.sol\":6669:6693  launchReward[msg.sender] */\n      0x00\n        /* \"TimeAlly.sol\":6682:6692  msg.sender */\n      caller\n        /* \"TimeAlly.sol\":6669:6693  launchReward[msg.sender] */\n      0xffffffffffffffffffffffffffffffffffffffff\n      and\n      0xffffffffffffffffffffffffffffffffffffffff\n      and\n      dup2\n      mstore\n      0x20\n      add\n      swap1\n      dup2\n      mstore\n      0x20\n      add\n      0x00\n      keccak256\n        /* \"TimeAlly.sol\":6669:6697  launchReward[msg.sender] = 0 */\n      dup2\n      swap1\n      sstore\n      pop\n        /* \"TimeAlly.sol\":6738:6759  uint256 stakeEndMonth */\n      0x00\n        /* \"TimeAlly.sol\":6786:6798  stakingPlans */\n      0x06\n        /* \"TimeAlly.sol\":6799:6813  _stakingPlanId */\n      dup4\n        /* \"TimeAlly.sol\":6786:6814  stakingPlans[_stakingPlanId] */\n      dup2\n      sload\n      dup2\n      lt\n      tag_515\n      jumpi\n      invalid\n    tag_515:\n      swap1\n      0x00\n      mstore\n      keccak256(0x00, 0x20)\n      swap1\n      0x02\n      mul\n      add\n        /* \"TimeAlly.sol\":6786:6821  stakingPlans[_stakingPlanId].months */\n      0x00\n      add\n      sload\n        /* \"TimeAlly.sol\":6782:6783  1 */\n      0x01\n        /* \"TimeAlly.sol\":6762:6779  getCurrentMonth() */\n      tag_517\n        /* \"TimeAlly.sol\":6762:6777  getCurrentMonth */\n      tag_148\n        /* \"TimeAlly.sol\":6762:6779  getCurrentMonth() */\n      jump\t// in\n    tag_517:\n        /* \"TimeAlly.sol\":6762:6783  getCurrentMonth() + 1 */\n      add\n        /* \"TimeAlly.sol\":6762:6821  getCurrentMonth() + 1 + stakingPlans[_stakingPlanId].months */\n      add\n        /* \"TimeAlly.sol\":6738:6821  uint256 stakeEndMonth = getCurrentMonth() + 1 + stakingPlans[_stakingPlanId].months */\n      swap1\n      pop\n        /* \"TimeAlly.sol\":6952:6965  uint256 month */\n      0x00\n        /* \"TimeAlly.sol\":6988:6989  1 */\n      0x01\n        /* \"TimeAlly.sol\":6968:6985  getCurrentMonth() */\n      tag_521\n        /* \"TimeAlly.sol\":6968:6983  getCurrentMonth */\n      tag_148\n        /* \"TimeAlly.sol\":6968:6985  getCurrentMonth() */\n      jump\t// in\n    tag_521:\n        /* \"TimeAlly.sol\":6968:6989  getCurrentMonth() + 1 */\n      add\n        /* \"TimeAlly.sol\":6952:6989  uint256 month = getCurrentMonth() + 1 */\n      swap1\n      pop\n        /* \"TimeAlly.sol\":6937:7141  for(... */\n    tag_518:\n        /* \"TimeAlly.sol\":7009:7022  stakeEndMonth */\n      dup2\n        /* \"TimeAlly.sol\":7001:7006  month */\n      dup2\n        /* \"TimeAlly.sol\":7001:7022  month < stakeEndMonth */\n      lt\n        /* \"TimeAlly.sol\":6937:7141  for(... */\n      iszero\n      tag_519\n      jumpi\n        /* \"TimeAlly.sol\":7124:7130  reward */\n      dup3\n        /* \"TimeAlly.sol\":7095:7114  totalActiveStakings */\n      0x0a\n        /* \"TimeAlly.sol\":7095:7121  totalActiveStakings[month] */\n      0x00\n        /* \"TimeAlly.sol\":7115:7120  month */\n      dup4\n        /* \"TimeAlly.sol\":7095:7121  totalActiveStakings[month] */\n      dup2\n      mstore\n      0x20\n      add\n      swap1\n      dup2\n      mstore\n      0x20\n      add\n      0x00\n      keccak256\n      sload\n        /* \"TimeAlly.sol\":7095:7130  totalActiveStakings[month] + reward */\n      add\n        /* \"TimeAlly.sol\":7066:7085  totalActiveStakings */\n      0x0a\n        /* \"TimeAlly.sol\":7066:7092  totalActiveStakings[month] */\n      0x00\n        /* \"TimeAlly.sol\":7086:7091  month */\n      dup4\n        /* \"TimeAlly.sol\":7066:7092  totalActiveStakings[month] */\n      dup2\n      mstore\n      0x20\n      add\n      swap1\n      dup2\n      mstore\n      0x20\n      add\n      0x00\n      keccak256\n        /* \"TimeAlly.sol\":7066:7130  totalActiveStakings[month] = totalActiveStakings[month] + reward */\n      dup2\n      swap1\n      sstore\n      pop\n        /* \"TimeAlly.sol\":7034:7041  month++ */\n      dup1\n      dup1\n      0x01\n      add\n      swap2\n      pop\n      pop\n        /* \"TimeAlly.sol\":6937:7141  for(... */\n      jump(tag_518)\n    tag_519:\n      pop\n        /* \"TimeAlly.sol\":7151:7186  Staking[] storage userStakingsArray */\n      0x00\n        /* \"TimeAlly.sol\":7189:7197  stakings */\n      0x08\n        /* \"TimeAlly.sol\":7189:7209  stakings[msg.sender] */\n      0x00\n        /* \"TimeAlly.sol\":7198:7208  msg.sender */\n      caller\n        /* \"TimeAlly.sol\":7189:7209  stakings[msg.sender] */\n      0xffffffffffffffffffffffffffffffffffffffff\n      and\n      0xffffffffffffffffffffffffffffffffffffffff\n      and\n      dup2\n      mstore\n      0x20\n      add\n      swap1\n      dup2\n      mstore\n      0x20\n      add\n      0x00\n      keccak256\n        /* \"TimeAlly.sol\":7151:7209  Staking[] storage userStakingsArray = stakings[msg.sender] */\n      swap1\n      pop\n        /* \"TimeAlly.sol\":7219:7236  userStakingsArray */\n      dup1\n        /* \"TimeAlly.sol\":7242:7531  Staking({... */\n      mload(0x40)\n      dup1\n      0x0100\n      add\n      0x40\n      mstore\n      dup1\n        /* \"TimeAlly.sol\":7277:7283  reward */\n      dup6\n        /* \"TimeAlly.sol\":7242:7531  Staking({... */\n      dup2\n      mstore\n      0x20\n      add\n        /* \"TimeAlly.sol\":7308:7313  token */\n      0x01\n      0x00\n      swap1\n      sload\n      swap1\n      0x0100\n      exp\n      swap1\n      div\n      0xffffffffffffffffffffffffffffffffffffffff\n      and\n        /* \"TimeAlly.sol\":7308:7317  token.mou */\n      0xffffffffffffffffffffffffffffffffffffffff\n      and\n      0xb81f90f3\n        /* \"TimeAlly.sol\":7308:7319  token.mou() */\n      mload(0x40)\n      dup2\n      0xffffffff\n      and\n      0xe0\n      shl\n      dup2\n      mstore\n      0x04\n      add\n      0x20\n      mload(0x40)\n      dup1\n      dup4\n      sub\n      dup2\n      dup7\n      dup1\n      extcodesize\n      iszero\n        /* \"--CODEGEN--\":8:17   */\n      dup1\n        /* \"--CODEGEN--\":5:7   */\n      iszero\n      tag_522\n      jumpi\n        /* \"--CODEGEN--\":30:31   */\n      0x00\n        /* \"--CODEGEN--\":27:28   */\n      dup1\n        /* \"--CODEGEN--\":20:32   */\n      revert\n        /* \"--CODEGEN--\":5:7   */\n    tag_522:\n        /* \"TimeAlly.sol\":7308:7319  token.mou() */\n      pop\n      gas\n      staticcall\n      iszero\n        /* \"--CODEGEN--\":8:17   */\n      dup1\n        /* \"--CODEGEN--\":5:7   */\n      iszero\n      tag_523\n      jumpi\n        /* \"--CODEGEN--\":45:61   */\n      returndatasize\n        /* \"--CODEGEN--\":42:43   */\n      0x00\n        /* \"--CODEGEN--\":39:40   */\n      dup1\n        /* \"--CODEGEN--\":24:62   */\n      returndatacopy\n        /* \"--CODEGEN--\":77:93   */\n      returndatasize\n        /* \"--CODEGEN--\":74:75   */\n      0x00\n        /* \"--CODEGEN--\":67:94   */\n      revert\n        /* \"--CODEGEN--\":5:7   */\n    tag_523:\n        /* \"TimeAlly.sol\":7308:7319  token.mou() */\n      pop\n      pop\n      pop\n      pop\n      mload(0x40)\n      returndatasize\n        /* \"--CODEGEN--\":13:15   */\n      0x20\n        /* \"--CODEGEN--\":8:11   */\n      dup2\n        /* \"--CODEGEN--\":5:16   */\n      lt\n        /* \"--CODEGEN--\":2:4   */\n      iszero\n      tag_524\n      jumpi\n        /* \"--CODEGEN--\":29:30   */\n      0x00\n        /* \"--CODEGEN--\":26:27   */\n      dup1\n        /* \"--CODEGEN--\":19:31   */\n      revert\n        /* \"--CODEGEN--\":2:4   */\n    tag_524:\n        /* \"TimeAlly.sol\":7308:7319  token.mou() */\n      dup2\n      add\n      swap1\n      dup1\n      dup1\n      mload\n      swap1\n      0x20\n      add\n      swap1\n      swap3\n      swap2\n      swap1\n      pop\n      pop\n      pop\n        /* \"TimeAlly.sol\":7242:7531  Staking({... */\n      dup2\n      mstore\n      0x20\n      add\n        /* \"TimeAlly.sol\":7348:7362  _stakingPlanId */\n      dup7\n        /* \"TimeAlly.sol\":7242:7531  Staking({... */\n      dup2\n      mstore\n      0x20\n      add\n        /* \"TimeAlly.sol\":7384:7385  1 */\n      0x01\n        /* \"TimeAlly.sol\":7242:7531  Staking({... */\n      dup2\n      mstore\n      0x20\n      add\n        /* \"TimeAlly.sol\":7419:7420  0 */\n      0x00\n        /* \"TimeAlly.sol\":7242:7531  Staking({... */\n      dup2\n      mstore\n      0x20\n      add\n        /* \"TimeAlly.sol\":7442:7443  0 */\n      0x00\n        /* \"TimeAlly.sol\":7242:7531  Staking({... */\n      dup2\n      mstore\n      0x20\n      add\n        /* \"TimeAlly.sol\":7481:7482  0 */\n      0x00\n        /* \"TimeAlly.sol\":7242:7531  Staking({... */\n      dup2\n      mstore\n      0x20\n      add\n        /* \"TimeAlly.sol\":7519:7520  0 */\n      0x00\n        /* \"TimeAlly.sol\":7242:7531  Staking({... */\n      dup2\n      mstore\n      pop\n        /* \"TimeAlly.sol\":7219:7532  userStakingsArray.push(Staking({... */\n      swap1\n      dup1\n        /* \"--CODEGEN--\":39:40   */\n      0x01\n        /* \"--CODEGEN--\":33:36   */\n      dup2\n        /* \"--CODEGEN--\":27:37   */\n      sload\n        /* \"--CODEGEN--\":23:41   */\n      add\n        /* \"--CODEGEN--\":57:67   */\n      dup1\n        /* \"--CODEGEN--\":52:55   */\n      dup3\n        /* \"--CODEGEN--\":45:68   */\n      sstore\n        /* \"--CODEGEN--\":79:89   */\n      dup1\n        /* \"--CODEGEN--\":72:89   */\n      swap2\n      pop\n        /* \"--CODEGEN--\":0:93   */\n      pop\n        /* \"TimeAlly.sol\":7219:7532  userStakingsArray.push(Staking({... */\n      swap1\n      0x01\n      dup3\n      sub\n      swap1\n      0x00\n      mstore\n      keccak256(0x00, 0x20)\n      swap1\n      0x09\n      mul\n      add\n      0x00\n      swap1\n      swap2\n      swap3\n      swap1\n      swap2\n      swap1\n      swap2\n      pop\n      0x00\n      dup3\n      add\n      mload\n      dup2\n      0x00\n      add\n      sstore\n      0x20\n      dup3\n      add\n      mload\n      dup2\n      0x01\n      add\n      sstore\n      0x40\n      dup3\n      add\n      mload\n      dup2\n      0x02\n      add\n      sstore\n      0x60\n      dup3\n      add\n      mload\n      dup2\n      0x03\n      add\n      sstore\n      0x80\n      dup3\n      add\n      mload\n      dup2\n      0x04\n      add\n      sstore\n      0xa0\n      dup3\n      add\n      mload\n      dup2\n      0x05\n      add\n      sstore\n      0xc0\n      dup3\n      add\n      mload\n      dup2\n      0x07\n      add\n      sstore\n      0xe0\n      dup3\n      add\n      mload\n      dup2\n      0x08\n      add\n      sstore\n      pop\n      pop\n      pop\n        /* \"TimeAlly.sol\":7571:7585  _stakingPlanId */\n      dup4\n        /* \"TimeAlly.sol\":7559:7569  msg.sender */\n      caller\n        /* \"TimeAlly.sol\":7548:7624  NewStaking(msg.sender, _stakingPlanId, reward, userStakingsArray.length - 1) */\n      0xffffffffffffffffffffffffffffffffffffffff\n      and\n      0x680a0e2e97ad7c29da7985e37b699f19857c055166f801e50d90661eae30fcc3\n        /* \"TimeAlly.sol\":7587:7593  reward */\n      dup6\n        /* \"TimeAlly.sol\":7622:7623  1 */\n      0x01\n        /* \"TimeAlly.sol\":7595:7612  userStakingsArray */\n      dup6\n        /* \"TimeAlly.sol\":7595:7619  userStakingsArray.length */\n      dup1\n      sload\n      swap1\n      pop\n        /* \"TimeAlly.sol\":7595:7623  userStakingsArray.length - 1 */\n      sub\n        /* \"TimeAlly.sol\":7548:7624  NewStaking(msg.sender, _stakingPlanId, reward, userStakingsArray.length - 1) */\n      mload(0x40)\n      dup1\n      dup4\n      dup2\n      mstore\n      0x20\n      add\n      dup3\n      dup2\n      mstore\n      0x20\n      add\n      swap3\n      pop\n      pop\n      pop\n      mload(0x40)\n      dup1\n      swap2\n      sub\n      swap1\n      log3\n        /* \"TimeAlly.sol\":6503:7631  function claimLaunchReward(uint256 _stakingPlanId) public {... */\n      pop\n      pop\n      pop\n      pop\n      jump\t// out\n        /* \"TimeAlly.sol\":3145:3255  function getCurrentMonth() public view returns (uint256) {... */\n    tag_148:\n        /* \"TimeAlly.sol\":3193:3200  uint256 */\n      0x00\n        /* \"TimeAlly.sol\":3247:3248  1 */\n      0x01\n        /* \"TimeAlly.sol\":3219:3237  timeAllyMonthlyNRT */\n      0x05\n        /* \"TimeAlly.sol\":3219:3244  timeAllyMonthlyNRT.length */\n      dup1\n      sload\n      swap1\n      pop\n        /* \"TimeAlly.sol\":3219:3248  timeAllyMonthlyNRT.length - 1 */\n      sub\n        /* \"TimeAlly.sol\":3212:3248  return timeAllyMonthlyNRT.length - 1 */\n      swap1\n      pop\n        /* \"TimeAlly.sol\":3145:3255  function getCurrentMonth() public view returns (uint256) {... */\n      swap1\n      jump\t// out\n        /* \"TimeAlly.sol\":22246:23550  function repayLoanSelf(uint256 _loanId) public {... */\n    tag_151:\n        /* \"TimeAlly.sol\":22348:22349  1 */\n      0x01\n        /* \"TimeAlly.sol\":22311:22316  loans */\n      0x09\n        /* \"TimeAlly.sol\":22311:22328  loans[msg.sender] */\n      0x00\n        /* \"TimeAlly.sol\":22317:22327  msg.sender */\n      caller\n        /* \"TimeAlly.sol\":22311:22328  loans[msg.sender] */\n      0xffffffffffffffffffffffffffffffffffffffff\n      and\n      0xffffffffffffffffffffffffffffffffffffffff\n      and\n      dup2\n      mstore\n      0x20\n      add\n      swap1\n      dup2\n      mstore\n      0x20\n      add\n      0x00\n      keccak256\n        /* \"TimeAlly.sol\":22329:22336  _loanId */\n      dup3\n        /* \"TimeAlly.sol\":22311:22337  loans[msg.sender][_loanId] */\n      dup2\n      sload\n      dup2\n      lt\n      tag_528\n      jumpi\n      invalid\n    tag_528:\n      swap1\n      0x00\n      mstore\n      keccak256(0x00, 0x20)\n      swap1\n      0x05\n      mul\n      add\n        /* \"TimeAlly.sol\":22311:22344  loans[msg.sender][_loanId].status */\n      0x03\n      add\n      sload\n        /* \"TimeAlly.sol\":22311:22349  loans[msg.sender][_loanId].status == 1 */\n      eq\n        /* \"TimeAlly.sol\":22303:22382  require(loans[msg.sender][_loanId].status == 1, 'can only repay pending loans') */\n      tag_530\n      jumpi\n      mload(0x40)\n      0x08c379a000000000000000000000000000000000000000000000000000000000\n      dup2\n      mstore\n      0x04\n      add\n      dup1\n      dup1\n      0x20\n      add\n      dup3\n      dup2\n      sub\n      dup3\n      mstore\n      0x1c\n      dup2\n      mstore\n      0x20\n      add\n      dup1\n      0x63616e206f6e6c792072657061792070656e64696e67206c6f616e7300000000\n      dup2\n      mstore\n      pop\n      0x20\n      add\n      swap2\n      pop\n      pop\n      mload(0x40)\n      dup1\n      swap2\n      sub\n      swap1\n      revert\n    tag_530:\n        /* \"TimeAlly.sol\":22401:22406  token */\n      0x01\n      0x00\n      swap1\n      sload\n      swap1\n      0x0100\n      exp\n      swap1\n      div\n      0xffffffffffffffffffffffffffffffffffffffff\n      and\n        /* \"TimeAlly.sol\":22401:22419  token.transferFrom */\n      0xffffffffffffffffffffffffffffffffffffffff\n      and\n      0x23b872dd\n        /* \"TimeAlly.sol\":22420:22430  msg.sender */\n      caller\n        /* \"TimeAlly.sol\":22440:22444  this */\n      address\n        /* \"TimeAlly.sol\":22447:22452  loans */\n      0x09\n        /* \"TimeAlly.sol\":22447:22464  loans[msg.sender] */\n      0x00\n        /* \"TimeAlly.sol\":22453:22463  msg.sender */\n      caller\n        /* \"TimeAlly.sol\":22447:22464  loans[msg.sender] */\n      0xffffffffffffffffffffffffffffffffffffffff\n      and\n      0xffffffffffffffffffffffffffffffffffffffff\n      and\n      dup2\n      mstore\n      0x20\n      add\n      swap1\n      dup2\n      mstore\n      0x20\n      add\n      0x00\n      keccak256\n        /* \"TimeAlly.sol\":22465:22472  _loanId */\n      dup6\n        /* \"TimeAlly.sol\":22447:22473  loans[msg.sender][_loanId] */\n      dup2\n      sload\n      dup2\n      lt\n      tag_531\n      jumpi\n      invalid\n    tag_531:\n      swap1\n      0x00\n      mstore\n      keccak256(0x00, 0x20)\n      swap1\n      0x05\n      mul\n      add\n        /* \"TimeAlly.sol\":22447:22485  loans[msg.sender][_loanId].exaEsAmount */\n      0x00\n      add\n      sload\n        /* \"TimeAlly.sol\":22401:22486  token.transferFrom(msg.sender, address(this), loans[msg.sender][_loanId].exaEsAmount) */\n      mload(0x40)\n      dup5\n      0xffffffff\n      and\n      0xe0\n      shl\n      dup2\n      mstore\n      0x04\n      add\n      dup1\n      dup5\n      0xffffffffffffffffffffffffffffffffffffffff\n      and\n      0xffffffffffffffffffffffffffffffffffffffff\n      and\n      dup2\n      mstore\n      0x20\n      add\n      dup4\n      0xffffffffffffffffffffffffffffffffffffffff\n      and\n      0xffffffffffffffffffffffffffffffffffffffff\n      and\n      dup2\n      mstore\n      0x20\n      add\n      dup3\n      dup2\n      mstore\n      0x20\n      add\n      swap4\n      pop\n      pop\n      pop\n      pop\n      0x20\n      mload(0x40)\n      dup1\n      dup4\n      sub\n      dup2\n      0x00\n      dup8\n      dup1\n      extcodesize\n      iszero\n        /* \"--CODEGEN--\":8:17   */\n      dup1\n        /* \"--CODEGEN--\":5:7   */\n      iszero\n      tag_533\n      jumpi\n        /* \"--CODEGEN--\":30:31   */\n      0x00\n        /* \"--CODEGEN--\":27:28   */\n      dup1\n        /* \"--CODEGEN--\":20:32   */\n      revert\n        /* \"--CODEGEN--\":5:7   */\n    tag_533:\n        /* \"TimeAlly.sol\":22401:22486  token.transferFrom(msg.sender, address(this), loans[msg.sender][_loanId].exaEsAmount) */\n      pop\n      gas\n      call\n      iszero\n        /* \"--CODEGEN--\":8:17   */\n      dup1\n        /* \"--CODEGEN--\":5:7   */\n      iszero\n      tag_534\n      jumpi\n        /* \"--CODEGEN--\":45:61   */\n      returndatasize\n        /* \"--CODEGEN--\":42:43   */\n      0x00\n        /* \"--CODEGEN--\":39:40   */\n      dup1\n        /* \"--CODEGEN--\":24:62   */\n      returndatacopy\n        /* \"--CODEGEN--\":77:93   */\n      returndatasize\n        /* \"--CODEGEN--\":74:75   */\n      0x00\n        /* \"--CODEGEN--\":67:94   */\n      revert\n        /* \"--CODEGEN--\":5:7   */\n    tag_534:\n        /* \"TimeAlly.sol\":22401:22486  token.transferFrom(msg.sender, address(this), loans[msg.sender][_loanId].exaEsAmount) */\n      pop\n      pop\n      pop\n      pop\n      mload(0x40)\n      returndatasize\n        /* \"--CODEGEN--\":13:15   */\n      0x20\n        /* \"--CODEGEN--\":8:11   */\n      dup2\n        /* \"--CODEGEN--\":5:16   */\n      lt\n        /* \"--CODEGEN--\":2:4   */\n      iszero\n      tag_535\n      jumpi\n        /* \"--CODEGEN--\":29:30   */\n      0x00\n        /* \"--CODEGEN--\":26:27   */\n      dup1\n        /* \"--CODEGEN--\":19:31   */\n      revert\n        /* \"--CODEGEN--\":2:4   */\n    tag_535:\n        /* \"TimeAlly.sol\":22401:22486  token.transferFrom(msg.sender, address(this), loans[msg.sender][_loanId].exaEsAmount) */\n      dup2\n      add\n      swap1\n      dup1\n      dup1\n      mload\n      swap1\n      0x20\n      add\n      swap1\n      swap3\n      swap2\n      swap1\n      pop\n      pop\n      pop\n        /* \"TimeAlly.sol\":22393:22555  require(token.transferFrom(msg.sender, address(this), loans[msg.sender][_loanId].exaEsAmount), 'cannot receive enough tokens, please check if allowance is there') */\n      tag_536\n      jumpi\n      mload(0x40)\n      0x08c379a000000000000000000000000000000000000000000000000000000000\n      dup2\n      mstore\n      0x04\n      add\n      dup1\n      dup1\n      0x20\n      add\n      dup3\n      dup2\n      sub\n      dup3\n      mstore\n      0x40\n      dup2\n      mstore\n      0x20\n      add\n      dup1\n      data_9dc458dbb6ce1791a3f9802dbdb820884214d2513b45f4efec23e9f5109e79ae\n      0x40\n      swap2\n      codecopy\n      0x40\n      add\n      swap2\n      pop\n      pop\n      mload(0x40)\n      dup1\n      swap2\n      sub\n      swap1\n      revert\n    tag_536:\n        /* \"TimeAlly.sol\":22602:22603  2 */\n      0x02\n        /* \"TimeAlly.sol\":22566:22571  loans */\n      0x09\n        /* \"TimeAlly.sol\":22566:22583  loans[msg.sender] */\n      0x00\n        /* \"TimeAlly.sol\":22572:22582  msg.sender */\n      caller\n        /* \"TimeAlly.sol\":22566:22583  loans[msg.sender] */\n      0xffffffffffffffffffffffffffffffffffffffff\n      and\n      0xffffffffffffffffffffffffffffffffffffffff\n      and\n      dup2\n      mstore\n      0x20\n      add\n      swap1\n      dup2\n      mstore\n      0x20\n      add\n      0x00\n      keccak256\n        /* \"TimeAlly.sol\":22584:22591  _loanId */\n      dup3\n        /* \"TimeAlly.sol\":22566:22592  loans[msg.sender][_loanId] */\n      dup2\n      sload\n      dup2\n      lt\n      tag_537\n      jumpi\n      invalid\n    tag_537:\n      swap1\n      0x00\n      mstore\n      keccak256(0x00, 0x20)\n      swap1\n      0x05\n      mul\n      add\n        /* \"TimeAlly.sol\":22566:22599  loans[msg.sender][_loanId].status */\n      0x03\n      add\n        /* \"TimeAlly.sol\":22566:22603  loans[msg.sender][_loanId].status = 2 */\n      dup2\n      swap1\n      sstore\n      pop\n        /* \"TimeAlly.sol\":22785:22794  uint256 i */\n      0x00\n        /* \"TimeAlly.sol\":22797:22798  0 */\n      dup1\n        /* \"TimeAlly.sol\":22785:22798  uint256 i = 0 */\n      swap1\n      pop\n        /* \"TimeAlly.sol\":22781:23543  for(uint256 i = 0; i < loans[msg.sender][_loanId].stakingIds.length; i++) {... */\n    tag_539:\n        /* \"TimeAlly.sol\":22804:22809  loans */\n      0x09\n        /* \"TimeAlly.sol\":22804:22821  loans[msg.sender] */\n      0x00\n        /* \"TimeAlly.sol\":22810:22820  msg.sender */\n      caller\n        /* \"TimeAlly.sol\":22804:22821  loans[msg.sender] */\n      0xffffffffffffffffffffffffffffffffffffffff\n      and\n      0xffffffffffffffffffffffffffffffffffffffff\n      and\n      dup2\n      mstore\n      0x20\n      add\n      swap1\n      dup2\n      mstore\n      0x20\n      add\n      0x00\n      keccak256\n        /* \"TimeAlly.sol\":22822:22829  _loanId */\n      dup3\n        /* \"TimeAlly.sol\":22804:22830  loans[msg.sender][_loanId] */\n      dup2\n      sload\n      dup2\n      lt\n      tag_542\n      jumpi\n      invalid\n    tag_542:\n      swap1\n      0x00\n      mstore\n      keccak256(0x00, 0x20)\n      swap1\n      0x05\n      mul\n      add\n        /* \"TimeAlly.sol\":22804:22841  loans[msg.sender][_loanId].stakingIds */\n      0x04\n      add\n        /* \"TimeAlly.sol\":22804:22848  loans[msg.sender][_loanId].stakingIds.length */\n      dup1\n      sload\n      swap1\n      pop\n        /* \"TimeAlly.sol\":22800:22801  i */\n      dup2\n        /* \"TimeAlly.sol\":22800:22848  i < loans[msg.sender][_loanId].stakingIds.length */\n      lt\n        /* \"TimeAlly.sol\":22781:23543  for(uint256 i = 0; i < loans[msg.sender][_loanId].stakingIds.length; i++) {... */\n      iszero\n      tag_540\n      jumpi\n        /* \"TimeAlly.sol\":22869:22887  uint256 _stakingId */\n      0x00\n        /* \"TimeAlly.sol\":22890:22895  loans */\n      0x09\n        /* \"TimeAlly.sol\":22890:22907  loans[msg.sender] */\n      0x00\n        /* \"TimeAlly.sol\":22896:22906  msg.sender */\n      caller\n        /* \"TimeAlly.sol\":22890:22907  loans[msg.sender] */\n      0xffffffffffffffffffffffffffffffffffffffff\n      and\n      0xffffffffffffffffffffffffffffffffffffffff\n      and\n      dup2\n      mstore\n      0x20\n      add\n      swap1\n      dup2\n      mstore\n      0x20\n      add\n      0x00\n      keccak256\n        /* \"TimeAlly.sol\":22908:22915  _loanId */\n      dup4\n        /* \"TimeAlly.sol\":22890:22916  loans[msg.sender][_loanId] */\n      dup2\n      sload\n      dup2\n      lt\n      tag_544\n      jumpi\n      invalid\n    tag_544:\n      swap1\n      0x00\n      mstore\n      keccak256(0x00, 0x20)\n      swap1\n      0x05\n      mul\n      add\n        /* \"TimeAlly.sol\":22890:22927  loans[msg.sender][_loanId].stakingIds */\n      0x04\n      add\n        /* \"TimeAlly.sol\":22928:22929  i */\n      dup3\n        /* \"TimeAlly.sol\":22890:22930  loans[msg.sender][_loanId].stakingIds[i] */\n      dup2\n      sload\n      dup2\n      lt\n      tag_546\n      jumpi\n      invalid\n    tag_546:\n      swap1\n      0x00\n      mstore\n      keccak256(0x00, 0x20)\n      add\n      sload\n        /* \"TimeAlly.sol\":22869:22930  uint256 _stakingId = loans[msg.sender][_loanId].stakingIds[i] */\n      swap1\n      pop\n        /* \"TimeAlly.sol\":22987:22988  1 */\n      0x01\n        /* \"TimeAlly.sol\":22945:22953  stakings */\n      0x08\n        /* \"TimeAlly.sol\":22945:22965  stakings[msg.sender] */\n      0x00\n        /* \"TimeAlly.sol\":22954:22964  msg.sender */\n      caller\n        /* \"TimeAlly.sol\":22945:22965  stakings[msg.sender] */\n      0xffffffffffffffffffffffffffffffffffffffff\n      and\n      0xffffffffffffffffffffffffffffffffffffffff\n      and\n      dup2\n      mstore\n      0x20\n      add\n      swap1\n      dup2\n      mstore\n      0x20\n      add\n      0x00\n      keccak256\n        /* \"TimeAlly.sol\":22966:22976  _stakingId */\n      dup3\n        /* \"TimeAlly.sol\":22945:22977  stakings[msg.sender][_stakingId] */\n      dup2\n      sload\n      dup2\n      lt\n      tag_548\n      jumpi\n      invalid\n    tag_548:\n      swap1\n      0x00\n      mstore\n      keccak256(0x00, 0x20)\n      swap1\n      0x09\n      mul\n      add\n        /* \"TimeAlly.sol\":22945:22984  stakings[msg.sender][_stakingId].status */\n      0x03\n      add\n        /* \"TimeAlly.sol\":22945:22988  stakings[msg.sender][_stakingId].status = 1 */\n      dup2\n      swap1\n      sstore\n      pop\n        /* \"TimeAlly.sol\":23003:23028  uint256 stakingStartMonth */\n      0x00\n        /* \"TimeAlly.sol\":23031:23121  stakings[msg.sender][_stakingId].timestamp.sub(deployedTimestamp).div(earthSecondsInMonth) */\n      tag_550\n        /* \"TimeAlly.sol\":23101:23120  earthSecondsInMonth */\n      sload(0x04)\n        /* \"TimeAlly.sol\":23031:23096  stakings[msg.sender][_stakingId].timestamp.sub(deployedTimestamp) */\n      tag_551\n        /* \"TimeAlly.sol\":23078:23095  deployedTimestamp */\n      sload(0x03)\n        /* \"TimeAlly.sol\":23031:23039  stakings */\n      0x08\n        /* \"TimeAlly.sol\":23031:23051  stakings[msg.sender] */\n      0x00\n        /* \"TimeAlly.sol\":23040:23050  msg.sender */\n      caller\n        /* \"TimeAlly.sol\":23031:23051  stakings[msg.sender] */\n      0xffffffffffffffffffffffffffffffffffffffff\n      and\n      0xffffffffffffffffffffffffffffffffffffffff\n      and\n      dup2\n      mstore\n      0x20\n      add\n      swap1\n      dup2\n      mstore\n      0x20\n      add\n      0x00\n      keccak256\n        /* \"TimeAlly.sol\":23052:23062  _stakingId */\n      dup7\n        /* \"TimeAlly.sol\":23031:23063  stakings[msg.sender][_stakingId] */\n      dup2\n      sload\n      dup2\n      lt\n      tag_552\n      jumpi\n      invalid\n    tag_552:\n      swap1\n      0x00\n      mstore\n      keccak256(0x00, 0x20)\n      swap1\n      0x09\n      mul\n      add\n        /* \"TimeAlly.sol\":23031:23073  stakings[msg.sender][_stakingId].timestamp */\n      0x01\n      add\n      sload\n        /* \"TimeAlly.sol\":23031:23077  stakings[msg.sender][_stakingId].timestamp.sub */\n      tag_184\n      swap1\n        /* \"TimeAlly.sol\":23031:23096  stakings[msg.sender][_stakingId].timestamp.sub(deployedTimestamp) */\n      swap2\n      swap1\n      0xffffffff\n      and\n      jump\t// in\n    tag_551:\n        /* \"TimeAlly.sol\":23031:23100  stakings[msg.sender][_stakingId].timestamp.sub(deployedTimestamp).div */\n      tag_195\n      swap1\n        /* \"TimeAlly.sol\":23031:23121  stakings[msg.sender][_stakingId].timestamp.sub(deployedTimestamp).div(earthSecondsInMonth) */\n      swap2\n      swap1\n      0xffffffff\n      and\n      jump\t// in\n    tag_550:\n        /* \"TimeAlly.sol\":23003:23121  uint256 stakingStartMonth = stakings[msg.sender][_stakingId].timestamp.sub(deployedTimestamp).div(earthSecondsInMonth) */\n      swap1\n      pop\n        /* \"TimeAlly.sol\":23136:23157  uint256 stakeEndMonth */\n      0x00\n        /* \"TimeAlly.sol\":23180:23192  stakingPlans */\n      0x06\n        /* \"TimeAlly.sol\":23193:23201  stakings */\n      0x08\n        /* \"TimeAlly.sol\":23193:23213  stakings[msg.sender] */\n      0x00\n        /* \"TimeAlly.sol\":23202:23212  msg.sender */\n      caller\n        /* \"TimeAlly.sol\":23193:23213  stakings[msg.sender] */\n      0xffffffffffffffffffffffffffffffffffffffff\n      and\n      0xffffffffffffffffffffffffffffffffffffffff\n      and\n      dup2\n      mstore\n      0x20\n      add\n      swap1\n      dup2\n      mstore\n      0x20\n      add\n      0x00\n      keccak256\n        /* \"TimeAlly.sol\":23214:23224  _stakingId */\n      dup5\n        /* \"TimeAlly.sol\":23193:23225  stakings[msg.sender][_stakingId] */\n      dup2\n      sload\n      dup2\n      lt\n      tag_554\n      jumpi\n      invalid\n    tag_554:\n      swap1\n      0x00\n      mstore\n      keccak256(0x00, 0x20)\n      swap1\n      0x09\n      mul\n      add\n        /* \"TimeAlly.sol\":23193:23239  stakings[msg.sender][_stakingId].stakingPlanId */\n      0x02\n      add\n      sload\n        /* \"TimeAlly.sol\":23180:23240  stakingPlans[stakings[msg.sender][_stakingId].stakingPlanId] */\n      dup2\n      sload\n      dup2\n      lt\n      tag_556\n      jumpi\n      invalid\n    tag_556:\n      swap1\n      0x00\n      mstore\n      keccak256(0x00, 0x20)\n      swap1\n      0x02\n      mul\n      add\n        /* \"TimeAlly.sol\":23180:23247  stakingPlans[stakings[msg.sender][_stakingId].stakingPlanId].months */\n      0x00\n      add\n      sload\n        /* \"TimeAlly.sol\":23160:23177  stakingStartMonth */\n      dup3\n        /* \"TimeAlly.sol\":23160:23247  stakingStartMonth + stakingPlans[stakings[msg.sender][_stakingId].stakingPlanId].months */\n      add\n        /* \"TimeAlly.sol\":23136:23247  uint256 stakeEndMonth = stakingStartMonth + stakingPlans[stakings[msg.sender][_stakingId].stakingPlanId].months */\n      swap1\n      pop\n        /* \"TimeAlly.sol\":23266:23275  uint256 j */\n      0x00\n        /* \"TimeAlly.sol\":23298:23299  1 */\n      0x01\n        /* \"TimeAlly.sol\":23278:23295  getCurrentMonth() */\n      tag_561\n        /* \"TimeAlly.sol\":23278:23293  getCurrentMonth */\n      tag_148\n        /* \"TimeAlly.sol\":23278:23295  getCurrentMonth() */\n      jump\t// in\n    tag_561:\n        /* \"TimeAlly.sol\":23278:23299  getCurrentMonth() + 1 */\n      add\n        /* \"TimeAlly.sol\":23266:23299  uint256 j = getCurrentMonth() + 1 */\n      swap1\n      pop\n        /* \"TimeAlly.sol\":23262:23533  for(uint256 j = getCurrentMonth() + 1; j <= stakeEndMonth; j++) {... */\n    tag_558:\n        /* \"TimeAlly.sol\":23306:23319  stakeEndMonth */\n      dup2\n        /* \"TimeAlly.sol\":23301:23302  j */\n      dup2\n        /* \"TimeAlly.sol\":23301:23319  j <= stakeEndMonth */\n      gt\n        /* \"TimeAlly.sol\":23262:23533  for(uint256 j = getCurrentMonth() + 1; j <= stakeEndMonth; j++) {... */\n      tag_559\n      jumpi\n        /* \"TimeAlly.sol\":23397:23402  false */\n      0x00\n        /* \"TimeAlly.sol\":23344:23352  stakings */\n      0x08\n        /* \"TimeAlly.sol\":23344:23364  stakings[msg.sender] */\n      0x00\n        /* \"TimeAlly.sol\":23353:23363  msg.sender */\n      caller\n        /* \"TimeAlly.sol\":23344:23364  stakings[msg.sender] */\n      0xffffffffffffffffffffffffffffffffffffffff\n      and\n      0xffffffffffffffffffffffffffffffffffffffff\n      and\n      dup2\n      mstore\n      0x20\n      add\n      swap1\n      dup2\n      mstore\n      0x20\n      add\n      0x00\n      keccak256\n        /* \"TimeAlly.sol\":23365:23375  _stakingId */\n      dup6\n        /* \"TimeAlly.sol\":23344:23376  stakings[msg.sender][_stakingId] */\n      dup2\n      sload\n      dup2\n      lt\n      tag_562\n      jumpi\n      invalid\n    tag_562:\n      swap1\n      0x00\n      mstore\n      keccak256(0x00, 0x20)\n      swap1\n      0x09\n      mul\n      add\n        /* \"TimeAlly.sol\":23344:23391  stakings[msg.sender][_stakingId].isMonthClaimed */\n      0x06\n      add\n        /* \"TimeAlly.sol\":23344:23394  stakings[msg.sender][_stakingId].isMonthClaimed[i] */\n      0x00\n        /* \"TimeAlly.sol\":23392:23393  i */\n      dup8\n        /* \"TimeAlly.sol\":23344:23394  stakings[msg.sender][_stakingId].isMonthClaimed[i] */\n      dup2\n      mstore\n      0x20\n      add\n      swap1\n      dup2\n      mstore\n      0x20\n      add\n      0x00\n      keccak256\n      0x00\n        /* \"TimeAlly.sol\":23344:23402  stakings[msg.sender][_stakingId].isMonthClaimed[i] = false */\n      0x0100\n      exp\n      dup2\n      sload\n      dup2\n      0xff\n      mul\n      not\n      and\n      swap1\n      dup4\n      iszero\n      iszero\n      mul\n      or\n      swap1\n      sstore\n      pop\n        /* \"TimeAlly.sol\":23446:23518  totalActiveStakings[j].add(stakings[msg.sender][_stakingId].exaEsAmount) */\n      tag_564\n        /* \"TimeAlly.sol\":23473:23481  stakings */\n      0x08\n        /* \"TimeAlly.sol\":23473:23493  stakings[msg.sender] */\n      0x00\n        /* \"TimeAlly.sol\":23482:23492  msg.sender */\n      caller\n        /* \"TimeAlly.sol\":23473:23493  stakings[msg.sender] */\n      0xffffffffffffffffffffffffffffffffffffffff\n      and\n      0xffffffffffffffffffffffffffffffffffffffff\n      and\n      dup2\n      mstore\n      0x20\n      add\n      swap1\n      dup2\n      mstore\n      0x20\n      add\n      0x00\n      keccak256\n        /* \"TimeAlly.sol\":23494:23504  _stakingId */\n      dup6\n        /* \"TimeAlly.sol\":23473:23505  stakings[msg.sender][_stakingId] */\n      dup2\n      sload\n      dup2\n      lt\n      tag_565\n      jumpi\n      invalid\n    tag_565:\n      swap1\n      0x00\n      mstore\n      keccak256(0x00, 0x20)\n      swap1\n      0x09\n      mul\n      add\n        /* \"TimeAlly.sol\":23473:23517  stakings[msg.sender][_stakingId].exaEsAmount */\n      0x00\n      add\n      sload\n        /* \"TimeAlly.sol\":23446:23465  totalActiveStakings */\n      0x0a\n        /* \"TimeAlly.sol\":23446:23468  totalActiveStakings[j] */\n      0x00\n        /* \"TimeAlly.sol\":23466:23467  j */\n      dup5\n        /* \"TimeAlly.sol\":23446:23468  totalActiveStakings[j] */\n      dup2\n      mstore\n      0x20\n      add\n      swap1\n      dup2\n      mstore\n      0x20\n      add\n      0x00\n      keccak256\n      sload\n        /* \"TimeAlly.sol\":23446:23472  totalActiveStakings[j].add */\n      tag_232\n      swap1\n        /* \"TimeAlly.sol\":23446:23518  totalActiveStakings[j].add(stakings[msg.sender][_stakingId].exaEsAmount) */\n      swap2\n      swap1\n      0xffffffff\n      and\n      jump\t// in\n    tag_564:\n        /* \"TimeAlly.sol\":23421:23440  totalActiveStakings */\n      0x0a\n        /* \"TimeAlly.sol\":23421:23443  totalActiveStakings[j] */\n      0x00\n        /* \"TimeAlly.sol\":23441:23442  j */\n      dup4\n        /* \"TimeAlly.sol\":23421:23443  totalActiveStakings[j] */\n      dup2\n      mstore\n      0x20\n      add\n      swap1\n      dup2\n      mstore\n      0x20\n      add\n      0x00\n      keccak256\n        /* \"TimeAlly.sol\":23421:23518  totalActiveStakings[j] = totalActiveStakings[j].add(stakings[msg.sender][_stakingId].exaEsAmount) */\n      dup2\n      swap1\n      sstore\n      pop\n        /* \"TimeAlly.sol\":23321:23324  j++ */\n      dup1\n      dup1\n      0x01\n      add\n      swap2\n      pop\n      pop\n        /* \"TimeAlly.sol\":23262:23533  for(uint256 j = getCurrentMonth() + 1; j <= stakeEndMonth; j++) {... */\n      jump(tag_558)\n    tag_559:\n      pop\n        /* \"TimeAlly.sol\":22781:23543  for(uint256 i = 0; i < loans[msg.sender][_loanId].stakingIds.length; i++) {... */\n      pop\n      pop\n      pop\n        /* \"TimeAlly.sol\":22850:22853  i++ */\n      dup1\n      dup1\n      0x01\n      add\n      swap2\n      pop\n      pop\n        /* \"TimeAlly.sol\":22781:23543  for(uint256 i = 0; i < loans[msg.sender][_loanId].stakingIds.length; i++) {... */\n      jump(tag_539)\n    tag_540:\n      pop\n        /* \"TimeAlly.sol\":22246:23550  function repayLoanSelf(uint256 _loanId) public {... */\n      pop\n      jump\t// out\n        /* \"TimeAlly.sol\":3746:4847  function newStaking(uint256 _exaEsAmount, uint256 _stakingPlanId) public {... */\n    tag_154:\n        /* \"TimeAlly.sol\":3837:3842  token */\n      0x01\n      0x00\n      swap1\n      sload\n      swap1\n      0x0100\n      exp\n      swap1\n      div\n      0xffffffffffffffffffffffffffffffffffffffff\n      and\n        /* \"TimeAlly.sol\":3837:3855  token.transferFrom */\n      0xffffffffffffffffffffffffffffffffffffffff\n      and\n      0x23b872dd\n        /* \"TimeAlly.sol\":3856:3866  msg.sender */\n      caller\n        /* \"TimeAlly.sol\":3876:3880  this */\n      address\n        /* \"TimeAlly.sol\":3883:3895  _exaEsAmount */\n      dup6\n        /* \"TimeAlly.sol\":3837:3896  token.transferFrom(msg.sender, address(this), _exaEsAmount) */\n      mload(0x40)\n      dup5\n      0xffffffff\n      and\n      0xe0\n      shl\n      dup2\n      mstore\n      0x04\n      add\n      dup1\n      dup5\n      0xffffffffffffffffffffffffffffffffffffffff\n      and\n      0xffffffffffffffffffffffffffffffffffffffff\n      and\n      dup2\n      mstore\n      0x20\n      add\n      dup4\n      0xffffffffffffffffffffffffffffffffffffffff\n      and\n      0xffffffffffffffffffffffffffffffffffffffff\n      and\n      dup2\n      mstore\n      0x20\n      add\n      dup3\n      dup2\n      mstore\n      0x20\n      add\n      swap4\n      pop\n      pop\n      pop\n      pop\n      0x20\n      mload(0x40)\n      dup1\n      dup4\n      sub\n      dup2\n      0x00\n      dup8\n      dup1\n      extcodesize\n      iszero\n        /* \"--CODEGEN--\":8:17   */\n      dup1\n        /* \"--CODEGEN--\":5:7   */\n      iszero\n      tag_568\n      jumpi\n        /* \"--CODEGEN--\":30:31   */\n      0x00\n        /* \"--CODEGEN--\":27:28   */\n      dup1\n        /* \"--CODEGEN--\":20:32   */\n      revert\n        /* \"--CODEGEN--\":5:7   */\n    tag_568:\n        /* \"TimeAlly.sol\":3837:3896  token.transferFrom(msg.sender, address(this), _exaEsAmount) */\n      pop\n      gas\n      call\n      iszero\n        /* \"--CODEGEN--\":8:17   */\n      dup1\n        /* \"--CODEGEN--\":5:7   */\n      iszero\n      tag_569\n      jumpi\n        /* \"--CODEGEN--\":45:61   */\n      returndatasize\n        /* \"--CODEGEN--\":42:43   */\n      0x00\n        /* \"--CODEGEN--\":39:40   */\n      dup1\n        /* \"--CODEGEN--\":24:62   */\n      returndatacopy\n        /* \"--CODEGEN--\":77:93   */\n      returndatasize\n        /* \"--CODEGEN--\":74:75   */\n      0x00\n        /* \"--CODEGEN--\":67:94   */\n      revert\n        /* \"--CODEGEN--\":5:7   */\n    tag_569:\n        /* \"TimeAlly.sol\":3837:3896  token.transferFrom(msg.sender, address(this), _exaEsAmount) */\n      pop\n      pop\n      pop\n      pop\n      mload(0x40)\n      returndatasize\n        /* \"--CODEGEN--\":13:15   */\n      0x20\n        /* \"--CODEGEN--\":8:11   */\n      dup2\n        /* \"--CODEGEN--\":5:16   */\n      lt\n        /* \"--CODEGEN--\":2:4   */\n      iszero\n      tag_570\n      jumpi\n        /* \"--CODEGEN--\":29:30   */\n      0x00\n        /* \"--CODEGEN--\":26:27   */\n      dup1\n        /* \"--CODEGEN--\":19:31   */\n      revert\n        /* \"--CODEGEN--\":2:4   */\n    tag_570:\n        /* \"TimeAlly.sol\":3837:3896  token.transferFrom(msg.sender, address(this), _exaEsAmount) */\n      dup2\n      add\n      swap1\n      dup1\n      dup1\n      mload\n      swap1\n      0x20\n      add\n      swap1\n      swap3\n      swap2\n      swap1\n      pop\n      pop\n      pop\n        /* \"TimeAlly.sol\":3829:3926  require(token.transferFrom(msg.sender, address(this), _exaEsAmount), 'could not transfer tokens') */\n      tag_571\n      jumpi\n      mload(0x40)\n      0x08c379a000000000000000000000000000000000000000000000000000000000\n      dup2\n      mstore\n      0x04\n      add\n      dup1\n      dup1\n      0x20\n      add\n      dup3\n      dup2\n      sub\n      dup3\n      mstore\n      0x19\n      dup2\n      mstore\n      0x20\n      add\n      dup1\n      0x636f756c64206e6f74207472616e7366657220746f6b656e7300000000000000\n      dup2\n      mstore\n      pop\n      0x20\n      add\n      swap2\n      pop\n      pop\n      mload(0x40)\n      dup1\n      swap2\n      sub\n      swap1\n      revert\n    tag_571:\n        /* \"TimeAlly.sol\":3936:3957  uint256 stakeEndMonth */\n      0x00\n        /* \"TimeAlly.sol\":3984:3996  stakingPlans */\n      0x06\n        /* \"TimeAlly.sol\":3997:4011  _stakingPlanId */\n      dup3\n        /* \"TimeAlly.sol\":3984:4012  stakingPlans[_stakingPlanId] */\n      dup2\n      sload\n      dup2\n      lt\n      tag_572\n      jumpi\n      invalid\n    tag_572:\n      swap1\n      0x00\n      mstore\n      keccak256(0x00, 0x20)\n      swap1\n      0x02\n      mul\n      add\n        /* \"TimeAlly.sol\":3984:4019  stakingPlans[_stakingPlanId].months */\n      0x00\n      add\n      sload\n        /* \"TimeAlly.sol\":3980:3981  1 */\n      0x01\n        /* \"TimeAlly.sol\":3960:3977  getCurrentMonth() */\n      tag_574\n        /* \"TimeAlly.sol\":3960:3975  getCurrentMonth */\n      tag_148\n        /* \"TimeAlly.sol\":3960:3977  getCurrentMonth() */\n      jump\t// in\n    tag_574:\n        /* \"TimeAlly.sol\":3960:3981  getCurrentMonth() + 1 */\n      add\n        /* \"TimeAlly.sol\":3960:4019  getCurrentMonth() + 1 + stakingPlans[_stakingPlanId].months */\n      add\n        /* \"TimeAlly.sol\":3936:4019  uint256 stakeEndMonth = getCurrentMonth() + 1 + stakingPlans[_stakingPlanId].months */\n      swap1\n      pop\n        /* \"TimeAlly.sol\":4150:4163  uint256 month */\n      0x00\n        /* \"TimeAlly.sol\":4186:4187  1 */\n      0x01\n        /* \"TimeAlly.sol\":4166:4183  getCurrentMonth() */\n      tag_578\n        /* \"TimeAlly.sol\":4166:4181  getCurrentMonth */\n      tag_148\n        /* \"TimeAlly.sol\":4166:4183  getCurrentMonth() */\n      jump\t// in\n    tag_578:\n        /* \"TimeAlly.sol\":4166:4187  getCurrentMonth() + 1 */\n      add\n        /* \"TimeAlly.sol\":4150:4187  uint256 month = getCurrentMonth() + 1 */\n      swap1\n      pop\n        /* \"TimeAlly.sol\":4135:4345  for(... */\n    tag_575:\n        /* \"TimeAlly.sol\":4207:4220  stakeEndMonth */\n      dup2\n        /* \"TimeAlly.sol\":4199:4204  month */\n      dup2\n        /* \"TimeAlly.sol\":4199:4220  month < stakeEndMonth */\n      lt\n        /* \"TimeAlly.sol\":4135:4345  for(... */\n      iszero\n      tag_576\n      jumpi\n        /* \"TimeAlly.sol\":4322:4334  _exaEsAmount */\n      dup4\n        /* \"TimeAlly.sol\":4293:4312  totalActiveStakings */\n      0x0a\n        /* \"TimeAlly.sol\":4293:4319  totalActiveStakings[month] */\n      0x00\n        /* \"TimeAlly.sol\":4313:4318  month */\n      dup4\n        /* \"TimeAlly.sol\":4293:4319  totalActiveStakings[month] */\n      dup2\n      mstore\n      0x20\n      add\n      swap1\n      dup2\n      mstore\n      0x20\n      add\n      0x00\n      keccak256\n      sload\n        /* \"TimeAlly.sol\":4293:4334  totalActiveStakings[month] + _exaEsAmount */\n      add\n        /* \"TimeAlly.sol\":4264:4283  totalActiveStakings */\n      0x0a\n        /* \"TimeAlly.sol\":4264:4290  totalActiveStakings[month] */\n      0x00\n        /* \"TimeAlly.sol\":4284:4289  month */\n      dup4\n        /* \"TimeAlly.sol\":4264:4290  totalActiveStakings[month] */\n      dup2\n      mstore\n      0x20\n      add\n      swap1\n      dup2\n      mstore\n      0x20\n      add\n      0x00\n      keccak256\n        /* \"TimeAlly.sol\":4264:4334  totalActiveStakings[month] = totalActiveStakings[month] + _exaEsAmount */\n      dup2\n      swap1\n      sstore\n      pop\n        /* \"TimeAlly.sol\":4232:4239  month++ */\n      dup1\n      dup1\n      0x01\n      add\n      swap2\n      pop\n      pop\n        /* \"TimeAlly.sol\":4135:4345  for(... */\n      jump(tag_575)\n    tag_576:\n      pop\n        /* \"TimeAlly.sol\":4355:4390  Staking[] storage userStakingsArray */\n      0x00\n        /* \"TimeAlly.sol\":4393:4401  stakings */\n      0x08\n        /* \"TimeAlly.sol\":4393:4413  stakings[msg.sender] */\n      0x00\n        /* \"TimeAlly.sol\":4402:4412  msg.sender */\n      caller\n        /* \"TimeAlly.sol\":4393:4413  stakings[msg.sender] */\n      0xffffffffffffffffffffffffffffffffffffffff\n      and\n      0xffffffffffffffffffffffffffffffffffffffff\n      and\n      dup2\n      mstore\n      0x20\n      add\n      swap1\n      dup2\n      mstore\n      0x20\n      add\n      0x00\n      keccak256\n        /* \"TimeAlly.sol\":4355:4413  Staking[] storage userStakingsArray = stakings[msg.sender] */\n      swap1\n      pop\n        /* \"TimeAlly.sol\":4423:4440  userStakingsArray */\n      dup1\n        /* \"TimeAlly.sol\":4446:4741  Staking({... */\n      mload(0x40)\n      dup1\n      0x0100\n      add\n      0x40\n      mstore\n      dup1\n        /* \"TimeAlly.sol\":4481:4493  _exaEsAmount */\n      dup7\n        /* \"TimeAlly.sol\":4446:4741  Staking({... */\n      dup2\n      mstore\n      0x20\n      add\n        /* \"TimeAlly.sol\":4518:4523  token */\n      0x01\n      0x00\n      swap1\n      sload\n      swap1\n      0x0100\n      exp\n      swap1\n      div\n      0xffffffffffffffffffffffffffffffffffffffff\n      and\n        /* \"TimeAlly.sol\":4518:4527  token.mou */\n      0xffffffffffffffffffffffffffffffffffffffff\n      and\n      0xb81f90f3\n        /* \"TimeAlly.sol\":4518:4529  token.mou() */\n      mload(0x40)\n      dup2\n      0xffffffff\n      and\n      0xe0\n      shl\n      dup2\n      mstore\n      0x04\n      add\n      0x20\n      mload(0x40)\n      dup1\n      dup4\n      sub\n      dup2\n      dup7\n      dup1\n      extcodesize\n      iszero\n        /* \"--CODEGEN--\":8:17   */\n      dup1\n        /* \"--CODEGEN--\":5:7   */\n      iszero\n      tag_579\n      jumpi\n        /* \"--CODEGEN--\":30:31   */\n      0x00\n        /* \"--CODEGEN--\":27:28   */\n      dup1\n        /* \"--CODEGEN--\":20:32   */\n      revert\n        /* \"--CODEGEN--\":5:7   */\n    tag_579:\n        /* \"TimeAlly.sol\":4518:4529  token.mou() */\n      pop\n      gas\n      staticcall\n      iszero\n        /* \"--CODEGEN--\":8:17   */\n      dup1\n        /* \"--CODEGEN--\":5:7   */\n      iszero\n      tag_580\n      jumpi\n        /* \"--CODEGEN--\":45:61   */\n      returndatasize\n        /* \"--CODEGEN--\":42:43   */\n      0x00\n        /* \"--CODEGEN--\":39:40   */\n      dup1\n        /* \"--CODEGEN--\":24:62   */\n      returndatacopy\n        /* \"--CODEGEN--\":77:93   */\n      returndatasize\n        /* \"--CODEGEN--\":74:75   */\n      0x00\n        /* \"--CODEGEN--\":67:94   */\n      revert\n        /* \"--CODEGEN--\":5:7   */\n    tag_580:\n        /* \"TimeAlly.sol\":4518:4529  token.mou() */\n      pop\n      pop\n      pop\n      pop\n      mload(0x40)\n      returndatasize\n        /* \"--CODEGEN--\":13:15   */\n      0x20\n        /* \"--CODEGEN--\":8:11   */\n      dup2\n        /* \"--CODEGEN--\":5:16   */\n      lt\n        /* \"--CODEGEN--\":2:4   */\n      iszero\n      tag_581\n      jumpi\n        /* \"--CODEGEN--\":29:30   */\n      0x00\n        /* \"--CODEGEN--\":26:27   */\n      dup1\n        /* \"--CODEGEN--\":19:31   */\n      revert\n        /* \"--CODEGEN--\":2:4   */\n    tag_581:\n        /* \"TimeAlly.sol\":4518:4529  token.mou() */\n      dup2\n      add\n      swap1\n      dup1\n      dup1\n      mload\n      swap1\n      0x20\n      add\n      swap1\n      swap3\n      swap2\n      swap1\n      pop\n      pop\n      pop\n        /* \"TimeAlly.sol\":4446:4741  Staking({... */\n      dup2\n      mstore\n      0x20\n      add\n        /* \"TimeAlly.sol\":4558:4572  _stakingPlanId */\n      dup6\n        /* \"TimeAlly.sol\":4446:4741  Staking({... */\n      dup2\n      mstore\n      0x20\n      add\n        /* \"TimeAlly.sol\":4594:4595  1 */\n      0x01\n        /* \"TimeAlly.sol\":4446:4741  Staking({... */\n      dup2\n      mstore\n      0x20\n      add\n        /* \"TimeAlly.sol\":4629:4630  0 */\n      0x00\n        /* \"TimeAlly.sol\":4446:4741  Staking({... */\n      dup2\n      mstore\n      0x20\n      add\n        /* \"TimeAlly.sol\":4652:4653  0 */\n      0x00\n        /* \"TimeAlly.sol\":4446:4741  Staking({... */\n      dup2\n      mstore\n      0x20\n      add\n        /* \"TimeAlly.sol\":4691:4692  0 */\n      0x00\n        /* \"TimeAlly.sol\":4446:4741  Staking({... */\n      dup2\n      mstore\n      0x20\n      add\n        /* \"TimeAlly.sol\":4729:4730  0 */\n      0x00\n        /* \"TimeAlly.sol\":4446:4741  Staking({... */\n      dup2\n      mstore\n      pop\n        /* \"TimeAlly.sol\":4423:4742  userStakingsArray.push(Staking({... */\n      swap1\n      dup1\n        /* \"--CODEGEN--\":39:40   */\n      0x01\n        /* \"--CODEGEN--\":33:36   */\n      dup2\n        /* \"--CODEGEN--\":27:37   */\n      sload\n        /* \"--CODEGEN--\":23:41   */\n      add\n        /* \"--CODEGEN--\":57:67   */\n      dup1\n        /* \"--CODEGEN--\":52:55   */\n      dup3\n        /* \"--CODEGEN--\":45:68   */\n      sstore\n        /* \"--CODEGEN--\":79:89   */\n      dup1\n        /* \"--CODEGEN--\":72:89   */\n      swap2\n      pop\n        /* \"--CODEGEN--\":0:93   */\n      pop\n        /* \"TimeAlly.sol\":4423:4742  userStakingsArray.push(Staking({... */\n      swap1\n      0x01\n      dup3\n      sub\n      swap1\n      0x00\n      mstore\n      keccak256(0x00, 0x20)\n      swap1\n      0x09\n      mul\n      add\n      0x00\n      swap1\n      swap2\n      swap3\n      swap1\n      swap2\n      swap1\n      swap2\n      pop\n      0x00\n      dup3\n      add\n      mload\n      dup2\n      0x00\n      add\n      sstore\n      0x20\n      dup3\n      add\n      mload\n      dup2\n      0x01\n      add\n      sstore\n      0x40\n      dup3\n      add\n      mload\n      dup2\n      0x02\n      add\n      sstore\n      0x60\n      dup3\n      add\n      mload\n      dup2\n      0x03\n      add\n      sstore\n      0x80\n      dup3\n      add\n      mload\n      dup2\n      0x04\n      add\n      sstore\n      0xa0\n      dup3\n      add\n      mload\n      dup2\n      0x05\n      add\n      sstore\n      0xc0\n      dup3\n      add\n      mload\n      dup2\n      0x07\n      add\n      sstore\n      0xe0\n      dup3\n      add\n      mload\n      dup2\n      0x08\n      add\n      sstore\n      pop\n      pop\n      pop\n        /* \"TimeAlly.sol\":4781:4795  _stakingPlanId */\n      dup3\n        /* \"TimeAlly.sol\":4769:4779  msg.sender */\n      caller\n        /* \"TimeAlly.sol\":4758:4840  NewStaking(msg.sender, _stakingPlanId, _exaEsAmount, userStakingsArray.length - 1) */\n      0xffffffffffffffffffffffffffffffffffffffff\n      and\n      0x680a0e2e97ad7c29da7985e37b699f19857c055166f801e50d90661eae30fcc3\n        /* \"TimeAlly.sol\":4797:4809  _exaEsAmount */\n      dup7\n        /* \"TimeAlly.sol\":4838:4839  1 */\n      0x01\n        /* \"TimeAlly.sol\":4811:4828  userStakingsArray */\n      dup6\n        /* \"TimeAlly.sol\":4811:4835  userStakingsArray.length */\n      dup1\n      sload\n      swap1\n      pop\n        /* \"TimeAlly.sol\":4811:4839  userStakingsArray.length - 1 */\n      sub\n        /* \"TimeAlly.sol\":4758:4840  NewStaking(msg.sender, _stakingPlanId, _exaEsAmount, userStakingsArray.length - 1) */\n      mload(0x40)\n      dup1\n      dup4\n      dup2\n      mstore\n      0x20\n      add\n      dup3\n      dup2\n      mstore\n      0x20\n      add\n      swap3\n      pop\n      pop\n      pop\n      mload(0x40)\n      dup1\n      swap2\n      sub\n      swap1\n      log3\n        /* \"TimeAlly.sol\":3746:4847  function newStaking(uint256 _exaEsAmount, uint256 _stakingPlanId) public {... */\n      pop\n      pop\n      pop\n      pop\n      jump\t// out\n        /* \"TimeAlly.sol\":1115:1147  uint256 public deployedTimestamp */\n    tag_156:\n      sload(0x03)\n      dup2\n      jump\t// out\n        /* \"TimeAlly.sol\":3018:3139  function increaseMonth(uint256 _timeAllyNRT) public onlyNRTManager {... */\n    tag_159:\n        /* \"TimeAlly.sol\":2577:2587  nrtManager */\n      0x02\n      0x00\n      swap1\n      sload\n      swap1\n      0x0100\n      exp\n      swap1\n      div\n      0xffffffffffffffffffffffffffffffffffffffff\n      and\n        /* \"TimeAlly.sol\":2555:2588  msg.sender == address(nrtManager) */\n      0xffffffffffffffffffffffffffffffffffffffff\n      and\n        /* \"TimeAlly.sol\":2555:2565  msg.sender */\n      caller\n        /* \"TimeAlly.sol\":2555:2588  msg.sender == address(nrtManager) */\n      0xffffffffffffffffffffffffffffffffffffffff\n      and\n      eq\n        /* \"TimeAlly.sol\":2547:2618  require(msg.sender == address(nrtManager), 'only NRT manager can call') */\n      tag_584\n      jumpi\n      mload(0x40)\n      0x08c379a000000000000000000000000000000000000000000000000000000000\n      dup2\n      mstore\n      0x04\n      add\n      dup1\n      dup1\n      0x20\n      add\n      dup3\n      dup2\n      sub\n      dup3\n      mstore\n      0x19\n      dup2\n      mstore\n      0x20\n      add\n      dup1\n      0x6f6e6c79204e5254206d616e616765722063616e2063616c6c00000000000000\n      dup2\n      mstore\n      pop\n      0x20\n      add\n      swap2\n      pop\n      pop\n      mload(0x40)\n      dup1\n      swap2\n      sub\n      swap1\n      revert\n    tag_584:\n        /* \"TimeAlly.sol\":3095:3113  timeAllyMonthlyNRT */\n      0x05\n        /* \"TimeAlly.sol\":3119:3131  _timeAllyNRT */\n      dup2\n        /* \"TimeAlly.sol\":3095:3132  timeAllyMonthlyNRT.push(_timeAllyNRT) */\n      swap1\n      dup1\n        /* \"--CODEGEN--\":39:40   */\n      0x01\n        /* \"--CODEGEN--\":33:36   */\n      dup2\n        /* \"--CODEGEN--\":27:37   */\n      sload\n        /* \"--CODEGEN--\":23:41   */\n      add\n        /* \"--CODEGEN--\":57:67   */\n      dup1\n        /* \"--CODEGEN--\":52:55   */\n      dup3\n        /* \"--CODEGEN--\":45:68   */\n      sstore\n        /* \"--CODEGEN--\":79:89   */\n      dup1\n        /* \"--CODEGEN--\":72:89   */\n      swap2\n      pop\n        /* \"--CODEGEN--\":0:93   */\n      pop\n        /* \"TimeAlly.sol\":3095:3132  timeAllyMonthlyNRT.push(_timeAllyNRT) */\n      swap1\n      0x01\n      dup3\n      sub\n      swap1\n      0x00\n      mstore\n      keccak256(0x00, 0x20)\n      add\n      0x00\n      swap1\n      swap2\n      swap3\n      swap1\n      swap2\n      swap1\n      swap2\n      pop\n      sstore\n      pop\n        /* \"TimeAlly.sol\":3018:3139  function increaseMonth(uint256 _timeAllyNRT) public onlyNRTManager {... */\n      pop\n      jump\t// out\n        /* \"TimeAlly.sol\":14886:15581  function withdrawExpiredStakings(uint256[] memory _stakings) public {... */\n    tag_165:\n        /* \"TimeAlly.sol\":14968:14977  uint256 i */\n      0x00\n        /* \"TimeAlly.sol\":14980:14981  0 */\n      dup1\n        /* \"TimeAlly.sol\":14968:14981  uint256 i = 0 */\n      swap1\n      pop\n        /* \"TimeAlly.sol\":14964:15575  for(uint256 i = 0; i < _stakings.length; i++) {... */\n    tag_588:\n        /* \"TimeAlly.sol\":14987:14996  _stakings */\n      dup2\n        /* \"TimeAlly.sol\":14987:15003  _stakings.length */\n      mload\n        /* \"TimeAlly.sol\":14983:14984  i */\n      dup2\n        /* \"TimeAlly.sol\":14983:15003  i < _stakings.length */\n      lt\n        /* \"TimeAlly.sol\":14964:15575  for(uint256 i = 0; i < _stakings.length; i++) {... */\n      iszero\n      tag_589\n      jumpi\n        /* \"TimeAlly.sol\":15068:15069  3 */\n      0x03\n        /* \"TimeAlly.sol\":15024:15032  stakings */\n      0x08\n        /* \"TimeAlly.sol\":15024:15044  stakings[msg.sender] */\n      0x00\n        /* \"TimeAlly.sol\":15033:15043  msg.sender */\n      caller\n        /* \"TimeAlly.sol\":15024:15044  stakings[msg.sender] */\n      0xffffffffffffffffffffffffffffffffffffffff\n      and\n      0xffffffffffffffffffffffffffffffffffffffff\n      and\n      dup2\n      mstore\n      0x20\n      add\n      swap1\n      dup2\n      mstore\n      0x20\n      add\n      0x00\n      keccak256\n        /* \"TimeAlly.sol\":15045:15054  _stakings */\n      dup4\n        /* \"TimeAlly.sol\":15055:15056  i */\n      dup4\n        /* \"TimeAlly.sol\":15045:15057  _stakings[i] */\n      dup2\n      mload\n      dup2\n      lt\n      tag_591\n      jumpi\n      invalid\n    tag_591:\n      0x20\n      mul\n      0x20\n      add\n      add\n      mload\n        /* \"TimeAlly.sol\":15024:15058  stakings[msg.sender][_stakings[i]] */\n      dup2\n      sload\n      dup2\n      lt\n      tag_592\n      jumpi\n      invalid\n    tag_592:\n      swap1\n      0x00\n      mstore\n      keccak256(0x00, 0x20)\n      swap1\n      0x09\n      mul\n      add\n        /* \"TimeAlly.sol\":15024:15065  stakings[msg.sender][_stakings[i]].status */\n      0x03\n      add\n        /* \"TimeAlly.sol\":15024:15069  stakings[msg.sender][_stakings[i]].status = 3 */\n      dup2\n      swap1\n      sstore\n      pop\n        /* \"TimeAlly.sol\":15143:15144  0 */\n      0x00\n        /* \"TimeAlly.sol\":15087:15095  stakings */\n      0x08\n        /* \"TimeAlly.sol\":15087:15107  stakings[msg.sender] */\n      0x00\n        /* \"TimeAlly.sol\":15096:15106  msg.sender */\n      caller\n        /* \"TimeAlly.sol\":15087:15107  stakings[msg.sender] */\n      0xffffffffffffffffffffffffffffffffffffffff\n      and\n      0xffffffffffffffffffffffffffffffffffffffff\n      and\n      dup2\n      mstore\n      0x20\n      add\n      swap1\n      dup2\n      mstore\n      0x20\n      add\n      0x00\n      keccak256\n        /* \"TimeAlly.sol\":15108:15117  _stakings */\n      dup4\n        /* \"TimeAlly.sol\":15118:15119  i */\n      dup4\n        /* \"TimeAlly.sol\":15108:15120  _stakings[i] */\n      dup2\n      mload\n      dup2\n      lt\n      tag_594\n      jumpi\n      invalid\n    tag_594:\n      0x20\n      mul\n      0x20\n      add\n      add\n      mload\n        /* \"TimeAlly.sol\":15087:15121  stakings[msg.sender][_stakings[i]] */\n      dup2\n      sload\n      dup2\n      lt\n      tag_595\n      jumpi\n      invalid\n    tag_595:\n      swap1\n      0x00\n      mstore\n      keccak256(0x00, 0x20)\n      swap1\n      0x09\n      mul\n      add\n        /* \"TimeAlly.sol\":15087:15140  stakings[msg.sender][_stakings[i]].accruedExaEsAmount */\n      0x04\n      add\n      sload\n        /* \"TimeAlly.sol\":15087:15144  stakings[msg.sender][_stakings[i]].accruedExaEsAmount > 0 */\n      gt\n        /* \"TimeAlly.sol\":15084:15476  if(stakings[msg.sender][_stakings[i]].accruedExaEsAmount > 0) {... */\n      iszero\n      tag_597\n      jumpi\n        /* \"TimeAlly.sol\":15162:15188  uint256 accruedExaEsAmount */\n      0x00\n        /* \"TimeAlly.sol\":15191:15199  stakings */\n      0x08\n        /* \"TimeAlly.sol\":15191:15211  stakings[msg.sender] */\n      0x00\n        /* \"TimeAlly.sol\":15200:15210  msg.sender */\n      caller\n        /* \"TimeAlly.sol\":15191:15211  stakings[msg.sender] */\n      0xffffffffffffffffffffffffffffffffffffffff\n      and\n      0xffffffffffffffffffffffffffffffffffffffff\n      and\n      dup2\n      mstore\n      0x20\n      add\n      swap1\n      dup2\n      mstore\n      0x20\n      add\n      0x00\n      keccak256\n        /* \"TimeAlly.sol\":15212:15221  _stakings */\n      dup4\n        /* \"TimeAlly.sol\":15222:15223  i */\n      dup4\n        /* \"TimeAlly.sol\":15212:15224  _stakings[i] */\n      dup2\n      mload\n      dup2\n      lt\n      tag_598\n      jumpi\n      invalid\n    tag_598:\n      0x20\n      mul\n      0x20\n      add\n      add\n      mload\n        /* \"TimeAlly.sol\":15191:15225  stakings[msg.sender][_stakings[i]] */\n      dup2\n      sload\n      dup2\n      lt\n      tag_599\n      jumpi\n      invalid\n    tag_599:\n      swap1\n      0x00\n      mstore\n      keccak256(0x00, 0x20)\n      swap1\n      0x09\n      mul\n      add\n        /* \"TimeAlly.sol\":15191:15244  stakings[msg.sender][_stakings[i]].accruedExaEsAmount */\n      0x04\n      add\n      sload\n        /* \"TimeAlly.sol\":15162:15244  uint256 accruedExaEsAmount = stakings[msg.sender][_stakings[i]].accruedExaEsAmount */\n      swap1\n      pop\n        /* \"TimeAlly.sol\":15316:15317  0 */\n      0x00\n        /* \"TimeAlly.sol\":15260:15268  stakings */\n      0x08\n        /* \"TimeAlly.sol\":15260:15280  stakings[msg.sender] */\n      0x00\n        /* \"TimeAlly.sol\":15269:15279  msg.sender */\n      caller\n        /* \"TimeAlly.sol\":15260:15280  stakings[msg.sender] */\n      0xffffffffffffffffffffffffffffffffffffffff\n      and\n      0xffffffffffffffffffffffffffffffffffffffff\n      and\n      dup2\n      mstore\n      0x20\n      add\n      swap1\n      dup2\n      mstore\n      0x20\n      add\n      0x00\n      keccak256\n        /* \"TimeAlly.sol\":15281:15290  _stakings */\n      dup5\n        /* \"TimeAlly.sol\":15291:15292  i */\n      dup5\n        /* \"TimeAlly.sol\":15281:15293  _stakings[i] */\n      dup2\n      mload\n      dup2\n      lt\n      tag_601\n      jumpi\n      invalid\n    tag_601:\n      0x20\n      mul\n      0x20\n      add\n      add\n      mload\n        /* \"TimeAlly.sol\":15260:15294  stakings[msg.sender][_stakings[i]] */\n      dup2\n      sload\n      dup2\n      lt\n      tag_602\n      jumpi\n      invalid\n    tag_602:\n      swap1\n      0x00\n      mstore\n      keccak256(0x00, 0x20)\n      swap1\n      0x09\n      mul\n      add\n        /* \"TimeAlly.sol\":15260:15313  stakings[msg.sender][_stakings[i]].accruedExaEsAmount */\n      0x04\n      add\n        /* \"TimeAlly.sol\":15260:15317  stakings[msg.sender][_stakings[i]].accruedExaEsAmount = 0 */\n      dup2\n      swap1\n      sstore\n      pop\n        /* \"TimeAlly.sol\":15333:15461  newStaking(... */\n      tag_604\n        /* \"TimeAlly.sol\":15361:15379  accruedExaEsAmount */\n      dup2\n        /* \"TimeAlly.sol\":15397:15405  stakings */\n      0x08\n        /* \"TimeAlly.sol\":15397:15417  stakings[msg.sender] */\n      0x00\n        /* \"TimeAlly.sol\":15406:15416  msg.sender */\n      caller\n        /* \"TimeAlly.sol\":15397:15417  stakings[msg.sender] */\n      0xffffffffffffffffffffffffffffffffffffffff\n      and\n      0xffffffffffffffffffffffffffffffffffffffff\n      and\n      dup2\n      mstore\n      0x20\n      add\n      swap1\n      dup2\n      mstore\n      0x20\n      add\n      0x00\n      keccak256\n        /* \"TimeAlly.sol\":15418:15427  _stakings */\n      dup6\n        /* \"TimeAlly.sol\":15428:15429  i */\n      dup6\n        /* \"TimeAlly.sol\":15418:15430  _stakings[i] */\n      dup2\n      mload\n      dup2\n      lt\n      tag_605\n      jumpi\n      invalid\n    tag_605:\n      0x20\n      mul\n      0x20\n      add\n      add\n      mload\n        /* \"TimeAlly.sol\":15397:15431  stakings[msg.sender][_stakings[i]] */\n      dup2\n      sload\n      dup2\n      lt\n      tag_606\n      jumpi\n      invalid\n    tag_606:\n      swap1\n      0x00\n      mstore\n      keccak256(0x00, 0x20)\n      swap1\n      0x09\n      mul\n      add\n        /* \"TimeAlly.sol\":15397:15445  stakings[msg.sender][_stakings[i]].stakingPlanId */\n      0x02\n      add\n      sload\n        /* \"TimeAlly.sol\":15333:15343  newStaking */\n      tag_154\n        /* \"TimeAlly.sol\":15333:15461  newStaking(... */\n      jump\t// in\n    tag_604:\n        /* \"TimeAlly.sol\":15084:15476  if(stakings[msg.sender][_stakings[i]].accruedExaEsAmount > 0) {... */\n      pop\n    tag_597:\n        /* \"TimeAlly.sol\":15490:15495  token */\n      0x01\n      0x00\n      swap1\n      sload\n      swap1\n      0x0100\n      exp\n      swap1\n      div\n      0xffffffffffffffffffffffffffffffffffffffff\n      and\n        /* \"TimeAlly.sol\":15490:15504  token.transfer */\n      0xffffffffffffffffffffffffffffffffffffffff\n      and\n      0xa9059cbb\n        /* \"TimeAlly.sol\":15505:15515  msg.sender */\n      caller\n        /* \"TimeAlly.sol\":15517:15525  stakings */\n      0x08\n        /* \"TimeAlly.sol\":15517:15537  stakings[msg.sender] */\n      0x00\n        /* \"TimeAlly.sol\":15526:15536  msg.sender */\n      caller\n        /* \"TimeAlly.sol\":15517:15537  stakings[msg.sender] */\n      0xffffffffffffffffffffffffffffffffffffffff\n      and\n      0xffffffffffffffffffffffffffffffffffffffff\n      and\n      dup2\n      mstore\n      0x20\n      add\n      swap1\n      dup2\n      mstore\n      0x20\n      add\n      0x00\n      keccak256\n        /* \"TimeAlly.sol\":15538:15547  _stakings */\n      dup6\n        /* \"TimeAlly.sol\":15548:15549  i */\n      dup6\n        /* \"TimeAlly.sol\":15538:15550  _stakings[i] */\n      dup2\n      mload\n      dup2\n      lt\n      tag_608\n      jumpi\n      invalid\n    tag_608:\n      0x20\n      mul\n      0x20\n      add\n      add\n      mload\n        /* \"TimeAlly.sol\":15517:15551  stakings[msg.sender][_stakings[i]] */\n      dup2\n      sload\n      dup2\n      lt\n      tag_609\n      jumpi\n      invalid\n    tag_609:\n      swap1\n      0x00\n      mstore\n      keccak256(0x00, 0x20)\n      swap1\n      0x09\n      mul\n      add\n        /* \"TimeAlly.sol\":15517:15563  stakings[msg.sender][_stakings[i]].exaEsAmount */\n      0x00\n      add\n      sload\n        /* \"TimeAlly.sol\":15490:15564  token.transfer(msg.sender, stakings[msg.sender][_stakings[i]].exaEsAmount) */\n      mload(0x40)\n      dup4\n      0xffffffff\n      and\n      0xe0\n      shl\n      dup2\n      mstore\n      0x04\n      add\n      dup1\n      dup4\n      0xffffffffffffffffffffffffffffffffffffffff\n      and\n      0xffffffffffffffffffffffffffffffffffffffff\n      and\n      dup2\n      mstore\n      0x20\n      add\n      dup3\n      dup2\n      mstore\n      0x20\n      add\n      swap3\n      pop\n      pop\n      pop\n      0x20\n      mload(0x40)\n      dup1\n      dup4\n      sub\n      dup2\n      0x00\n      dup8\n      dup1\n      extcodesize\n      iszero\n        /* \"--CODEGEN--\":8:17   */\n      dup1\n        /* \"--CODEGEN--\":5:7   */\n      iszero\n      tag_611\n      jumpi\n        /* \"--CODEGEN--\":30:31   */\n      0x00\n        /* \"--CODEGEN--\":27:28   */\n      dup1\n        /* \"--CODEGEN--\":20:32   */\n      revert\n        /* \"--CODEGEN--\":5:7   */\n    tag_611:\n        /* \"TimeAlly.sol\":15490:15564  token.transfer(msg.sender, stakings[msg.sender][_stakings[i]].exaEsAmount) */\n      pop\n      gas\n      call\n      iszero\n        /* \"--CODEGEN--\":8:17   */\n      dup1\n        /* \"--CODEGEN--\":5:7   */\n      iszero\n      tag_612\n      jumpi\n        /* \"--CODEGEN--\":45:61   */\n      returndatasize\n        /* \"--CODEGEN--\":42:43   */\n      0x00\n        /* \"--CODEGEN--\":39:40   */\n      dup1\n        /* \"--CODEGEN--\":24:62   */\n      returndatacopy\n        /* \"--CODEGEN--\":77:93   */\n      returndatasize\n        /* \"--CODEGEN--\":74:75   */\n      0x00\n        /* \"--CODEGEN--\":67:94   */\n      revert\n        /* \"--CODEGEN--\":5:7   */\n    tag_612:\n        /* \"TimeAlly.sol\":15490:15564  token.transfer(msg.sender, stakings[msg.sender][_stakings[i]].exaEsAmount) */\n      pop\n      pop\n      pop\n      pop\n      mload(0x40)\n      returndatasize\n        /* \"--CODEGEN--\":13:15   */\n      0x20\n        /* \"--CODEGEN--\":8:11   */\n      dup2\n        /* \"--CODEGEN--\":5:16   */\n      lt\n        /* \"--CODEGEN--\":2:4   */\n      iszero\n      tag_613\n      jumpi\n        /* \"--CODEGEN--\":29:30   */\n      0x00\n        /* \"--CODEGEN--\":26:27   */\n      dup1\n        /* \"--CODEGEN--\":19:31   */\n      revert\n        /* \"--CODEGEN--\":2:4   */\n    tag_613:\n        /* \"TimeAlly.sol\":15490:15564  token.transfer(msg.sender, stakings[msg.sender][_stakings[i]].exaEsAmount) */\n      dup2\n      add\n      swap1\n      dup1\n      dup1\n      mload\n      swap1\n      0x20\n      add\n      swap1\n      swap3\n      swap2\n      swap1\n      pop\n      pop\n      pop\n      pop\n        /* \"TimeAlly.sol\":15005:15008  i++ */\n      dup1\n      dup1\n      0x01\n      add\n      swap2\n      pop\n      pop\n        /* \"TimeAlly.sol\":14964:15575  for(uint256 i = 0; i < _stakings.length; i++) {... */\n      jump(tag_588)\n    tag_589:\n      pop\n        /* \"TimeAlly.sol\":14886:15581  function withdrawExpiredStakings(uint256[] memory _stakings) public {... */\n      pop\n      jump\t// out\n        /* \"TimeAlly.sol\":8431:9495  function userActiveStakingByMonth(address _userAddress, uint256 _atMonth) public view returns (uint256) {... */\n    tag_168:\n        /* \"TimeAlly.sol\":8526:8533  uint256 */\n      0x00\n        /* \"TimeAlly.sol\":8759:8780  uint256 _currentMonth */\n      dup1\n        /* \"TimeAlly.sol\":8783:8800  getCurrentMonth() */\n      tag_615\n        /* \"TimeAlly.sol\":8783:8798  getCurrentMonth */\n      tag_148\n        /* \"TimeAlly.sol\":8783:8800  getCurrentMonth() */\n      jump\t// in\n    tag_615:\n        /* \"TimeAlly.sol\":8759:8800  uint256 _currentMonth = getCurrentMonth() */\n      swap1\n      pop\n        /* \"TimeAlly.sol\":8887:8924  uint256 userActiveStakingsExaEsAmount */\n      0x00\n        /* \"TimeAlly.sol\":8939:8948  uint256 i */\n      dup1\n        /* \"TimeAlly.sol\":8951:8952  0 */\n      0x00\n        /* \"TimeAlly.sol\":8939:8952  uint256 i = 0 */\n      swap1\n      pop\n        /* \"TimeAlly.sol\":8935:9442  for(uint256 i = 0; i < stakings[_userAddress].length; i++) {... */\n    tag_616:\n        /* \"TimeAlly.sol\":8958:8966  stakings */\n      0x08\n        /* \"TimeAlly.sol\":8958:8980  stakings[_userAddress] */\n      0x00\n        /* \"TimeAlly.sol\":8967:8979  _userAddress */\n      dup8\n        /* \"TimeAlly.sol\":8958:8980  stakings[_userAddress] */\n      0xffffffffffffffffffffffffffffffffffffffff\n      and\n      0xffffffffffffffffffffffffffffffffffffffff\n      and\n      dup2\n      mstore\n      0x20\n      add\n      swap1\n      dup2\n      mstore\n      0x20\n      add\n      0x00\n      keccak256\n        /* \"TimeAlly.sol\":8958:8987  stakings[_userAddress].length */\n      dup1\n      sload\n      swap1\n      pop\n        /* \"TimeAlly.sol\":8954:8955  i */\n      dup2\n        /* \"TimeAlly.sol\":8954:8987  i < stakings[_userAddress].length */\n      lt\n        /* \"TimeAlly.sol\":8935:9442  for(uint256 i = 0; i < stakings[_userAddress].length; i++) {... */\n      iszero\n      tag_617\n      jumpi\n        /* \"TimeAlly.sol\":9081:9138  isStakingActive(_userAddress, i, _currentMonth, _atMonth) */\n      tag_619\n        /* \"TimeAlly.sol\":9097:9109  _userAddress */\n      dup7\n        /* \"TimeAlly.sol\":9111:9112  i */\n      dup3\n        /* \"TimeAlly.sol\":9114:9127  _currentMonth */\n      dup6\n        /* \"TimeAlly.sol\":9129:9137  _atMonth */\n      dup9\n        /* \"TimeAlly.sol\":9081:9096  isStakingActive */\n      tag_116\n        /* \"TimeAlly.sol\":9081:9138  isStakingActive(_userAddress, i, _currentMonth, _atMonth) */\n      jump\t// in\n    tag_619:\n        /* \"TimeAlly.sol\":9078:9432  if(isStakingActive(_userAddress, i, _currentMonth, _atMonth)) {... */\n      iszero\n      tag_620\n      jumpi\n        /* \"TimeAlly.sol\":9190:9283  userActiveStakingsExaEsAmount... */\n      tag_621\n        /* \"TimeAlly.sol\":9245:9253  stakings */\n      0x08\n        /* \"TimeAlly.sol\":9245:9267  stakings[_userAddress] */\n      0x00\n        /* \"TimeAlly.sol\":9254:9266  _userAddress */\n      dup9\n        /* \"TimeAlly.sol\":9245:9267  stakings[_userAddress] */\n      0xffffffffffffffffffffffffffffffffffffffff\n      and\n      0xffffffffffffffffffffffffffffffffffffffff\n      and\n      dup2\n      mstore\n      0x20\n      add\n      swap1\n      dup2\n      mstore\n      0x20\n      add\n      0x00\n      keccak256\n        /* \"TimeAlly.sol\":9268:9269  i */\n      dup3\n        /* \"TimeAlly.sol\":9245:9270  stakings[_userAddress][i] */\n      dup2\n      sload\n      dup2\n      lt\n      tag_622\n      jumpi\n      invalid\n    tag_622:\n      swap1\n      0x00\n      mstore\n      keccak256(0x00, 0x20)\n      swap1\n      0x09\n      mul\n      add\n        /* \"TimeAlly.sol\":9245:9282  stakings[_userAddress][i].exaEsAmount */\n      0x00\n      add\n      sload\n        /* \"TimeAlly.sol\":9190:9219  userActiveStakingsExaEsAmount */\n      dup4\n        /* \"TimeAlly.sol\":9190:9244  userActiveStakingsExaEsAmount... */\n      tag_232\n      swap1\n        /* \"TimeAlly.sol\":9190:9283  userActiveStakingsExaEsAmount... */\n      swap2\n      swap1\n      0xffffffff\n      and\n      jump\t// in\n    tag_621:\n        /* \"TimeAlly.sol\":9158:9283  userActiveStakingsExaEsAmount = userActiveStakingsExaEsAmount... */\n      swap2\n      pop\n        /* \"TimeAlly.sol\":9078:9432  if(isStakingActive(_userAddress, i, _currentMonth, _atMonth)) {... */\n    tag_620:\n        /* \"TimeAlly.sol\":8989:8992  i++ */\n      dup1\n      dup1\n      0x01\n      add\n      swap2\n      pop\n      pop\n        /* \"TimeAlly.sol\":8935:9442  for(uint256 i = 0; i < stakings[_userAddress].length; i++) {... */\n      jump(tag_616)\n    tag_617:\n      pop\n        /* \"TimeAlly.sol\":9459:9488  userActiveStakingsExaEsAmount */\n      dup1\n        /* \"TimeAlly.sol\":9452:9488  return userActiveStakingsExaEsAmount */\n      swap3\n      pop\n      pop\n      pop\n        /* \"TimeAlly.sol\":8431:9495  function userActiveStakingByMonth(address _userAddress, uint256 _atMonth) public view returns (uint256) {... */\n      swap3\n      swap2\n      pop\n      pop\n      jump\t// out\n        /* \"TimeAlly.sol\":1054:1074  Eraswap public token */\n    tag_170:\n      0x01\n      0x00\n      swap1\n      sload\n      swap1\n      0x0100\n      exp\n      swap1\n      div\n      0xffffffffffffffffffffffffffffffffffffffff\n      and\n      dup2\n      jump\t// out\n        /* \"SafeMath.sol\":1211:1356  function sub(uint256 a, uint256 b) internal pure returns (uint256) {... */\n    tag_184:\n        /* \"SafeMath.sol\":1269:1276  uint256 */\n      0x00\n        /* \"SafeMath.sol\":1301:1302  a */\n      dup3\n        /* \"SafeMath.sol\":1296:1297  b */\n      dup3\n        /* \"SafeMath.sol\":1296:1302  b <= a */\n      gt\n      iszero\n        /* \"SafeMath.sol\":1288:1303  require(b <= a) */\n      tag_625\n      jumpi\n      0x00\n      dup1\n      revert\n    tag_625:\n        /* \"SafeMath.sol\":1313:1322  uint256 c */\n      0x00\n        /* \"SafeMath.sol\":1329:1330  b */\n      dup3\n        /* \"SafeMath.sol\":1325:1326  a */\n      dup5\n        /* \"SafeMath.sol\":1325:1330  a - b */\n      sub\n        /* \"SafeMath.sol\":1313:1330  uint256 c = a - b */\n      swap1\n      pop\n        /* \"SafeMath.sol\":1348:1349  c */\n      dup1\n        /* \"SafeMath.sol\":1341:1349  return c */\n      swap2\n      pop\n      pop\n        /* \"SafeMath.sol\":1211:1356  function sub(uint256 a, uint256 b) internal pure returns (uint256) {... */\n      swap3\n      swap2\n      pop\n      pop\n      jump\t// out\n        /* \"SafeMath.sol\":231:652  function mul(uint256 a, uint256 b) internal pure returns (uint256) {... */\n    tag_194:\n        /* \"SafeMath.sol\":289:296  uint256 */\n      0x00\n        /* \"SafeMath.sol\":534:535  0 */\n      dup1\n        /* \"SafeMath.sol\":529:530  a */\n      dup4\n        /* \"SafeMath.sol\":529:535  a == 0 */\n      eq\n        /* \"SafeMath.sol\":525:570  if (a == 0) {... */\n      iszero\n      tag_627\n      jumpi\n        /* \"SafeMath.sol\":558:559  0 */\n      0x00\n        /* \"SafeMath.sol\":551:559  return 0 */\n      swap1\n      pop\n      jump(tag_626)\n        /* \"SafeMath.sol\":525:570  if (a == 0) {... */\n    tag_627:\n        /* \"SafeMath.sol\":580:589  uint256 c */\n      0x00\n        /* \"SafeMath.sol\":596:597  b */\n      dup3\n        /* \"SafeMath.sol\":592:593  a */\n      dup5\n        /* \"SafeMath.sol\":592:597  a * b */\n      mul\n        /* \"SafeMath.sol\":580:597  uint256 c = a * b */\n      swap1\n      pop\n        /* \"SafeMath.sol\":624:625  b */\n      dup3\n        /* \"SafeMath.sol\":619:620  a */\n      dup5\n        /* \"SafeMath.sol\":615:616  c */\n      dup3\n        /* \"SafeMath.sol\":615:620  c / a */\n      dup2\n      tag_628\n      jumpi\n      invalid\n    tag_628:\n      div\n        /* \"SafeMath.sol\":615:625  c / a == b */\n      eq\n        /* \"SafeMath.sol\":607:626  require(c / a == b) */\n      tag_629\n      jumpi\n      0x00\n      dup1\n      revert\n    tag_629:\n        /* \"SafeMath.sol\":644:645  c */\n      dup1\n        /* \"SafeMath.sol\":637:645  return c */\n      swap2\n      pop\n      pop\n        /* \"SafeMath.sol\":231:652  function mul(uint256 a, uint256 b) internal pure returns (uint256) {... */\n    tag_626:\n      swap3\n      swap2\n      pop\n      pop\n      jump\t// out\n        /* \"SafeMath.sol\":782:1078  function div(uint256 a, uint256 b) internal pure returns (uint256) {... */\n    tag_195:\n        /* \"SafeMath.sol\":840:847  uint256 */\n      0x00\n        /* \"SafeMath.sol\":937:938  0 */\n      dup1\n        /* \"SafeMath.sol\":933:934  b */\n      dup3\n        /* \"SafeMath.sol\":933:938  b > 0 */\n      gt\n        /* \"SafeMath.sol\":925:939  require(b > 0) */\n      tag_631\n      jumpi\n      0x00\n      dup1\n      revert\n    tag_631:\n        /* \"SafeMath.sol\":949:958  uint256 c */\n      0x00\n        /* \"SafeMath.sol\":965:966  b */\n      dup3\n        /* \"SafeMath.sol\":961:962  a */\n      dup5\n        /* \"SafeMath.sol\":961:966  a / b */\n      dup2\n      tag_632\n      jumpi\n      invalid\n    tag_632:\n      div\n        /* \"SafeMath.sol\":949:966  uint256 c = a / b */\n      swap1\n      pop\n        /* \"SafeMath.sol\":1070:1071  c */\n      dup1\n        /* \"SafeMath.sol\":1063:1071  return c */\n      swap2\n      pop\n      pop\n        /* \"SafeMath.sol\":782:1078  function div(uint256 a, uint256 b) internal pure returns (uint256) {... */\n      swap3\n      swap2\n      pop\n      pop\n      jump\t// out\n        /* \"SafeMath.sol\":1439:1584  function add(uint256 a, uint256 b) internal pure returns (uint256) {... */\n    tag_232:\n        /* \"SafeMath.sol\":1497:1504  uint256 */\n      0x00\n        /* \"SafeMath.sol\":1516:1525  uint256 c */\n      dup1\n        /* \"SafeMath.sol\":1532:1533  b */\n      dup3\n        /* \"SafeMath.sol\":1528:1529  a */\n      dup5\n        /* \"SafeMath.sol\":1528:1533  a + b */\n      add\n        /* \"SafeMath.sol\":1516:1533  uint256 c = a + b */\n      swap1\n      pop\n        /* \"SafeMath.sol\":1556:1557  a */\n      dup4\n        /* \"SafeMath.sol\":1551:1552  c */\n      dup2\n        /* \"SafeMath.sol\":1551:1557  c >= a */\n      lt\n      iszero\n        /* \"SafeMath.sol\":1543:1558  require(c >= a) */\n      tag_634\n      jumpi\n      0x00\n      dup1\n      revert\n    tag_634:\n        /* \"SafeMath.sol\":1576:1577  c */\n      dup1\n        /* \"SafeMath.sol\":1569:1577  return c */\n      swap2\n      pop\n      pop\n        /* \"SafeMath.sol\":1439:1584  function add(uint256 a, uint256 b) internal pure returns (uint256) {... */\n      swap3\n      swap2\n      pop\n      pop\n      jump\t// out\n        /* \"TimeAlly.sol\":245:23552  contract TimeAlly {... */\n    tag_217:\n      mload(0x40)\n      dup1\n      0x40\n      add\n      0x40\n      mstore\n      dup1\n      0x00\n      dup2\n      mstore\n      0x20\n      add\n      0x00\n      dup2\n      mstore\n      pop\n      swap1\n      jump\t// out\n    tag_508:\n      dup3\n      dup1\n      sload\n      dup3\n      dup3\n      sstore\n      swap1\n      0x00\n      mstore\n      keccak256(0x00, 0x20)\n      swap1\n      dup2\n      add\n      swap3\n      dup3\n      iszero\n      tag_635\n      jumpi\n      swap2\n      0x20\n      mul\n      dup3\n      add\n    tag_636:\n      dup3\n      dup2\n      gt\n      iszero\n      tag_637\n      jumpi\n      dup3\n      mload\n      dup3\n      sstore\n      swap2\n      0x20\n      add\n      swap2\n      swap1\n      0x01\n      add\n      swap1\n      jump(tag_636)\n    tag_637:\n    tag_635:\n      pop\n      swap1\n      pop\n      tag_638\n      swap2\n      swap1\n      tag_639\n      jump\t// in\n    tag_638:\n      pop\n      swap1\n      jump\t// out\n    tag_639:\n      tag_640\n      swap2\n      swap1\n    tag_641:\n      dup1\n      dup3\n      gt\n      iszero\n      tag_642\n      jumpi\n      0x00\n      dup2\n      0x00\n      swap1\n      sstore\n      pop\n      0x01\n      add\n      jump(tag_641)\n    tag_642:\n      pop\n      swap1\n      jump\n    tag_640:\n      swap1\n      jump\t// out\n    stop\n    data_39460daa7a45684f9dd0ed61ccf993f0ceb0e72e199b722f68f8fd8b9a275c06 63616e6e6f74206c6f616e206d6f7265207468616e206d61784c6f616e696e67416d6f756e74\n    data_93da6dd610d9fefb6e1313dcbf2bddd65b198696b7b6534428823c79c90920b5 6163637275656450657263656e746167652073686f756c64206265206174206c65617374203530\n    data_9dc458dbb6ce1791a3f9802dbdb820884214d2513b45f4efec23e9f5109e79ae 63616e6e6f74207265636569766520656e6f75676820746f6b656e732c20706c6561736520636865636b20696620616c6c6f77616e6365206973207468657265\n    data_a91bf1cb1c3c9b9cd56833c7f2036bb341aa4960f7651241271a69032b7ec915 746f2063616e73616c2c207374616b696e67206d75737420626520616374697665\n    data_befd38e7335fb8237cef118812ecee5a2b8ea845f685bf397227db9c69bef0b5 746f74616c20616374697665207374616b696e67732073686f756c64206265206e6f6e207a65726f\n\n    auxdata: 0xa265627a7a723058200af07bb318eead9b0b04771db5abd6428ab46b5ea47389ec94beb091540ec41a64736f6c634300050a0032\n}\n","bytecode":{"linkReferences":{},"object":"6080604052622820706004553480156200001857600080fd5b50604051620058db380380620058db833981810160405260408110156200003e57600080fd5b810190808051906020019092919080519060200190929190505050336000806101000a81548173ffffffffffffffffffffffffffffffffffffffff021916908373ffffffffffffffffffffffffffffffffffffffff16021790555081600160006101000a81548173ffffffffffffffffffffffffffffffffffffffff021916908373ffffffffffffffffffffffffffffffffffffffff16021790555080600260006101000a81548173ffffffffffffffffffffffffffffffffffffffff021916908373ffffffffffffffffffffffffffffffffffffffff160217905550600160009054906101000a900473ffffffffffffffffffffffffffffffffffffffff1673ffffffffffffffffffffffffffffffffffffffff1663b81f90f36040518163ffffffff1660e01b815260040160206040518083038186803b1580156200018457600080fd5b505afa15801562000199573d6000803e3d6000fd5b505050506040513d6020811015620001b057600080fd5b810190808051906020019092919050505060038190555060056000908060018154018082558091505090600182039060005260206000200160009091929091909150555050506156d580620002066000396000f3fe608060405234801561001057600080fd5b50600436106102275760003560e01c806382f9785711610130578063d0e32681116100b8578063e6bbe4241161007c578063e6bbe42414610de6578063e78c81c414610e04578063e83f784314610e32578063eb12f7f514610eea578063fc0c546a14610f4c57610227565b8063d0e3268114610c68578063da9d8aa014610d34578063ddd1b67e14610d62578063dea6cf4314610d80578063e5fd04e614610dae57610227565b80639ab0388b116100ff5780639ab0388b14610a75578063ad998fa014610aa3578063be4ad9c314610afb578063c71d5d5814610be7578063cc44a2fd14610c1f57610227565b806382f97857146109025780638da5cb5b1461093a57806397a332d81461098457806398c61c37146109fe57610227565b806346a4d6e3116101b3578063582e7e9e11610182578063582e7e9e1461063557806359dcc8c514610653578063757cbe0014610715578063762e7a34146108615780637acab857146108aa57610227565b806346a4d6e3146104e1578063497ec40f146105665780634ec0692c146105c557806353fcb2f31461060757610227565b806323a15e6b116101fa57806323a15e6b146103555780632f3b59ea1461039757806335f406ab146103f95780633d5d6b5a14610447578063419278611461047f57610227565b8063070b81951461022c5780630df5202f1461024a5780631849d8ea14610294578063217d65fb14610327575b600080fd5b610234610f96565b6040518082815260200191505060405180910390f35b610252610f9c565b604051808273ffffffffffffffffffffffffffffffffffffffff1673ffffffffffffffffffffffffffffffffffffffff16815260200191505060405180910390f35b6102e0600480360360408110156102aa57600080fd5b81019080803573ffffffffffffffffffffffffffffffffffffffff16906020019092919080359060200190929190505050610fc2565b604051808981526020018881526020018781526020018681526020018581526020018481526020018381526020018281526020019850505050505050505060405180910390f35b6103536004803603602081101561033d57600080fd5b8101908080359060200190929190505050611024565b005b6103816004803603602081101561036b57600080fd5b81019080803590602001909291905050506115aa565b6040518082815260200191505060405180910390f35b6103e3600480360360408110156103ad57600080fd5b81019080803573ffffffffffffffffffffffffffffffffffffffff169060200190929190803590602001909291905050506115cb565b6040518082815260200191505060405180910390f35b6104456004803603608081101561040f57600080fd5b810190808035906020019092919080359060200190929190803515159060200190929190803590602001909291905050506118fc565b005b61047d6004803603604081101561045d57600080fd5b810190808035906020019092919080359060200190929190505050611ff2565b005b6104cb6004803603604081101561049557600080fd5b81019080803573ffffffffffffffffffffffffffffffffffffffff1690602001909291908035906020019092919050505061212a565b6040518082815260200191505060405180910390f35b61052d600480360360408110156104f757600080fd5b81019080803573ffffffffffffffffffffffffffffffffffffffff169060200190929190803590602001909291905050506122c2565b60405180878152602001868152602001858152602001848152602001838152602001828152602001965050505050505060405180910390f35b61056e612509565b6040518080602001828103825283818151815260200191508051906020019060200280838360005b838110156105b1578082015181840152602081019050610596565b505050509050019250505060405180910390f35b6105f1600480360360208110156105db57600080fd5b8101908080359060200190929190505050612561565b6040518082815260200191505060405180910390f35b6106336004803603602081101561061d57600080fd5b8101908080359060200190929190505050612579565b005b61063d61277a565b6040518082815260200191505060405180910390f35b6107136004803603604081101561066957600080fd5b810190808035906020019064010000000081111561068657600080fd5b82018360208201111561069857600080fd5b803590602001918460208302840111640100000000831117156106ba57600080fd5b919080806020026020016040519081016040528093929190818152602001838360200280828437600081840152601f19601f82011690508083019250505050505050919291929080359060200190929190505050612780565b005b61085f6004803603604081101561072b57600080fd5b810190808035906020019064010000000081111561074857600080fd5b82018360208201111561075a57600080fd5b8035906020019184602083028401116401000000008311171561077c57600080fd5b919080806020026020016040519081016040528093929190818152602001838360200280828437600081840152601f19601f820116905080830192505050505050509192919290803590602001906401000000008111156107dc57600080fd5b8201836020820111156107ee57600080fd5b8035906020019184602083028401116401000000008311171561081057600080fd5b919080806020026020016040519081016040528093929190818152602001838360200280828437600081840152601f19601f820116905080830192505050505050509192919290505050612939565b005b61088d6004803603602081101561087757600080fd5b8101908080359060200190929190505050612b18565b604051808381526020018281526020019250505060405180910390f35b6108ec600480360360208110156108c057600080fd5b81019080803573ffffffffffffffffffffffffffffffffffffffff169060200190929190505050612b49565b6040518082815260200191505060405180910390f35b6109386004803603604081101561091857600080fd5b810190808035906020019092919080359060200190929190505050612b61565b005b610942612c80565b604051808273ffffffffffffffffffffffffffffffffffffffff1673ffffffffffffffffffffffffffffffffffffffff16815260200191505060405180910390f35b6109e46004803603608081101561099a57600080fd5b81019080803573ffffffffffffffffffffffffffffffffffffffff169060200190929190803590602001909291908035906020019092919080359060200190929190505050612ca5565b604051808215151515815260200191505060405180910390f35b610a4a60048036036040811015610a1457600080fd5b81019080803573ffffffffffffffffffffffffffffffffffffffff16906020019092919080359060200190929190505050612f6a565b6040518085815260200184815260200183815260200182815260200194505050505060405180910390f35b610aa160048036036020811015610a8b57600080fd5b8101908080359060200190929190505050612fb4565b005b610ae560048036036020811015610ab957600080fd5b81019080803573ffffffffffffffffffffffffffffffffffffffff169060200190929190505050613361565b6040518082815260200191505060405180910390f35b610bd160048036036040811015610b1157600080fd5b81019080803573ffffffffffffffffffffffffffffffffffffffff16906020019092919080359060200190640100000000811115610b4e57600080fd5b820183602082011115610b6057600080fd5b80359060200191846020830284011164010000000083111715610b8257600080fd5b919080806020026020016040519081016040528093929190818152602001838360200280828437600081840152601f19601f8201169050808301925050505050505091929192905050506133ad565b6040518082815260200191505060405180910390f35b610c1d60048036036040811015610bfd57600080fd5b810190808035906020019092919080359060200190929190505050613550565b005b610c4b60048036036020811015610c3557600080fd5b810190808035906020019092919050505061366f565b604051808381526020018281526020019250505060405180910390f35b610d3260048036036060811015610c7e57600080fd5b81019080803590602001909291908035906020019092919080359060200190640100000000811115610caf57600080fd5b820183602082011115610cc157600080fd5b80359060200191846020830284011164010000000083111715610ce357600080fd5b919080806020026020016040519081016040528093929190818152602001838360200280828437600081840152601f19601f8201169050808301925050505050505091929192905050506136a0565b005b610d6060048036036020811015610d4a57600080fd5b81019080803590602001909291905050506140ad565b005b610d6a61440b565b6040518082815260200191505060405180910390f35b610dac60048036036020811015610d9657600080fd5b810190808035906020019092919050505061441b565b005b610de460048036036040811015610dc457600080fd5b810190808035906020019092919080359060200190929190505050614ab5565b005b610dee614ec8565b6040518082815260200191505060405180910390f35b610e3060048036036020811015610e1a57600080fd5b8101908080359060200190929190505050614ece565b005b610ee860048036036020811015610e4857600080fd5b8101908080359060200190640100000000811115610e6557600080fd5b820183602082011115610e7757600080fd5b80359060200191846020830284011164010000000083111715610e9957600080fd5b919080806020026020016040519081016040528093929190818152602001838360200280828437600081840152601f19601f820116905080830192505050505050509192919290505050614fc0565b005b610f3660048036036040811015610f0057600080fd5b81019080803573ffffffffffffffffffffffffffffffffffffffff1690602001909291908035906020019092919050505061537f565b6040518082815260200191505060405180910390f35b610f54615479565b604051808273ffffffffffffffffffffffffffffffffffffffff1673ffffffffffffffffffffffffffffffffffffffff16815260200191505060405180910390f35b600b5481565b600260009054906101000a900473ffffffffffffffffffffffffffffffffffffffff1681565b60086020528160005260406000208181548110610fdb57fe5b9060005260206000209060090201600091509150508060000154908060010154908060020154908060030154908060040154908060050154908060070154908060080154905088565b6004600860003373ffffffffffffffffffffffffffffffffffffffff1673ffffffffffffffffffffffffffffffffffffffff168152602001908152602001600020828154811061107057fe5b906000526020600020906009020160030154146110f5576040517f08c379a00000000000000000000000000000000000000000000000000000000081526004018080602001828103825260198152602001807f7374616b696e67206d7573742062652063616e63656c6c65640000000000000081525060200191505060405180910390fd5b6000600860003373ffffffffffffffffffffffffffffffffffffffff1673ffffffffffffffffffffffffffffffffffffffff168152602001908152602001600020828154811061114157fe5b906000526020600020906009020160080154116111c6576040517f08c379a00000000000000000000000000000000000000000000000000000000081526004018080602001828103825260178152602001807f616c6c20726566756e64732061726520636c61696d656400000000000000000081525060200191505060405180910390fd5b60006111d061440b565b90506000611242600860003373ffffffffffffffffffffffffffffffffffffffff1673ffffffffffffffffffffffffffffffffffffffff168152602001908152602001600020848154811061122157fe5b9060005260206000209060090201600701548361549f90919063ffffffff16565b9050600860003373ffffffffffffffffffffffffffffffffffffffff1673ffffffffffffffffffffffffffffffffffffffff168152602001908152602001600020838154811061128e57fe5b90600052602060002090600902016008015481111561130657600860003373ffffffffffffffffffffffffffffffffffffffff1673ffffffffffffffffffffffffffffffffffffffff16815260200190815260200160002083815481106112f157fe5b90600052602060002090600902016008015490505b6000611389601861137b84600860003373ffffffffffffffffffffffffffffffffffffffff1673ffffffffffffffffffffffffffffffffffffffff168152602001908152602001600020888154811061135b57fe5b9060005260206000209060090201600001546154bf90919063ffffffff16565b6154f990919063ffffffff16565b905061139361440b565b600860003373ffffffffffffffffffffffffffffffffffffffff1673ffffffffffffffffffffffffffffffffffffffff16815260200190815260200160002085815481106113dd57fe5b90600052602060002090600902016007018190555061146082600860003373ffffffffffffffffffffffffffffffffffffffff1673ffffffffffffffffffffffffffffffffffffffff168152602001908152602001600020868154811061144057fe5b90600052602060002090600902016008015461549f90919063ffffffff16565b600860003373ffffffffffffffffffffffffffffffffffffffff1673ffffffffffffffffffffffffffffffffffffffff16815260200190815260200160002085815481106114aa57fe5b906000526020600020906009020160080181905550600160009054906101000a900473ffffffffffffffffffffffffffffffffffffffff1673ffffffffffffffffffffffffffffffffffffffff1663a9059cbb33836040518363ffffffff1660e01b8152600401808373ffffffffffffffffffffffffffffffffffffffff1673ffffffffffffffffffffffffffffffffffffffff16815260200182815260200192505050602060405180830381600087803b15801561156857600080fd5b505af115801561157c573d6000803e3d6000fd5b505050506040513d602081101561159257600080fd5b81019080805190602001909291905050505050505050565b600581815481106115b757fe5b906000526020600020016000915090505481565b6000806115d661440b565b90508083111561164e576040517f08c379a000000000000000000000000000000000000000000000000000000000815260040180806020018281038252601a8152602001807f63616e6e6f742073656520667574757265207374616b696e677300000000000081525060200191505060405180910390fd5b6000600a60008581526020019081526020016000205414156116745760009150506118f6565b600080600090505b600860008773ffffffffffffffffffffffffffffffffffffffff1673ffffffffffffffffffffffffffffffffffffffff168152602001908152602001600020805490508110156118a1576116ce61553e565b6006600860008973ffffffffffffffffffffffffffffffffffffffff1673ffffffffffffffffffffffffffffffffffffffff168152602001908152602001600020838154811061171a57fe5b9060005260206000209060090201600201548154811061173657fe5b906000526020600020906002020160405180604001604052908160008201548152602001600182015481525050905061177187838689612ca5565b80156117f45750600860008873ffffffffffffffffffffffffffffffffffffffff1673ffffffffffffffffffffffffffffffffffffffff16815260200190815260200160002082815481106117c257fe5b9060005260206000209060090201600601600087815260200190815260200160002060009054906101000a900460ff16155b1561189357611890611881600f6118738460200151600860008d73ffffffffffffffffffffffffffffffffffffffff1673ffffffffffffffffffffffffffffffffffffffff168152602001908152602001600020878154811061185357fe5b9060005260206000209060090201600001546154bf90919063ffffffff16565b6154f990919063ffffffff16565b8461551f90919063ffffffff16565b92505b50808060010191505061167c565b506118f1600a6000868152602001908152602001600020546118e3600587815481106118c957fe5b9060005260206000200154846154bf90919063ffffffff16565b6154f990919063ffffffff16565b925050505b92915050565b600061190661440b565b90508481101561197e576040517f08c379a000000000000000000000000000000000000000000000000000000000815260040180806020018281038252601f8152602001807f63616e6e6f7420776974686472617720667574757265207374616b696e67730081525060200191505060405180910390fd5b6000600a60008781526020019081526020016000205414156119f25760006119f1576040517f08c379a00000000000000000000000000000000000000000000000000000000081526004018080602001828103825260288152602001806156796028913960400191505060405180910390fd5b5b6032841015611a4c576040517f08c379a00000000000000000000000000000000000000000000000000000000081526004018080602001828103825260278152602001806155f16027913960400191505060405180910390fd5b60008060008090505b600860003373ffffffffffffffffffffffffffffffffffffffff1673ffffffffffffffffffffffffffffffffffffffff16815260200190815260200160002080549050811015611e6c57611aa761553e565b6006600860003373ffffffffffffffffffffffffffffffffffffffff1673ffffffffffffffffffffffffffffffffffffffff1681526020019081526020016000208381548110611af357fe5b90600052602060002090600902016002015481548110611b0f57fe5b9060005260206000209060020201604051806040016040529081600082015481526020016001820154815250509050611b4a3383878c612ca5565b8015611bcd5750600860003373ffffffffffffffffffffffffffffffffffffffff1673ffffffffffffffffffffffffffffffffffffffff1681526020019081526020016000208281548110611b9b57fe5b906000526020600020906009020160060160008a815260200190815260200160002060009054906101000a900460ff16155b15611e5e576001600860003373ffffffffffffffffffffffffffffffffffffffff1673ffffffffffffffffffffffffffffffffffffffff1681526020019081526020016000208381548110611c1e57fe5b906000526020600020906009020160060160008b815260200190815260200160002060006101000a81548160ff0219169083151502179055506000611cde600f611cd08460200151600860003373ffffffffffffffffffffffffffffffffffffffff1673ffffffffffffffffffffffffffffffffffffffff1681526020019081526020016000208781548110611cb057fe5b9060005260206000209060090201600001546154bf90919063ffffffff16565b6154f990919063ffffffff16565b90506000611d566064611d488c611d3a600a60008d815260200190815260200160002054611d2c60058e81548110611d1257fe5b9060005260206000200154896154bf90919063ffffffff16565b6154f990919063ffffffff16565b6154bf90919063ffffffff16565b6154f990919063ffffffff16565b90508815611d7857611d71818661551f90919063ffffffff16565b9450611e46565b611de681600860003373ffffffffffffffffffffffffffffffffffffffff1673ffffffffffffffffffffffffffffffffffffffff1681526020019081526020016000208681548110611dc657fe5b90600052602060002090600902016004015461551f90919063ffffffff16565b600860003373ffffffffffffffffffffffffffffffffffffffff1673ffffffffffffffffffffffffffffffffffffffff1681526020019081526020016000208581548110611e3057fe5b9060005260206000209060090201600401819055505b611e59828761551f90919063ffffffff16565b955050505b508080600101915050611a55565b506000611ee66064611ed889606403611eca600a60008a815260200190815260200160002054611ebc60058b81548110611ea257fe5b90600052602060002001548a6154bf90919063ffffffff16565b6154f990919063ffffffff16565b6154bf90919063ffffffff16565b6154f990919063ffffffff16565b90506000811115611fd757600160009054906101000a900473ffffffffffffffffffffffffffffffffffffffff1673ffffffffffffffffffffffffffffffffffffffff1663a9059cbb33836040518363ffffffff1660e01b8152600401808373ffffffffffffffffffffffffffffffffffffffff1673ffffffffffffffffffffffffffffffffffffffff16815260200182815260200192505050602060405180830381600087803b158015611f9a57600080fd5b505af1158015611fae573d6000803e3d6000fd5b505050506040513d6020811015611fc457600080fd5b8101908080519060200190929190505050505b8515611fe857611fe78286614ab5565b5b5050505050505050565b6000600860003373ffffffffffffffffffffffffffffffffffffffff1673ffffffffffffffffffffffffffffffffffffffff168152602001908152602001600020838154811061203e57fe5b9060005260206000209060090201600401541161205a57600080fd5b6000600860003373ffffffffffffffffffffffffffffffffffffffff1673ffffffffffffffffffffffffffffffffffffffff16815260200190815260200160002083815481106120a657fe5b90600052602060002090600902016004015490506000600860003373ffffffffffffffffffffffffffffffffffffffff1673ffffffffffffffffffffffffffffffffffffffff168152602001908152602001600020848154811061210657fe5b9060005260206000209060090201600401819055506121258183614ab5565b505050565b60008061213561440b565b9050600080600090505b600860008773ffffffffffffffffffffffffffffffffffffffff1673ffffffffffffffffffffffffffffffffffffffff168152602001908152602001600020805490508110156122b65761219586828588612ca5565b156122a9576122a6612297600f6122896006600860008c73ffffffffffffffffffffffffffffffffffffffff1673ffffffffffffffffffffffffffffffffffffffff16815260200190815260200160002086815481106121f157fe5b9060005260206000209060090201600201548154811061220d57fe5b906000526020600020906002020160010154600860008c73ffffffffffffffffffffffffffffffffffffffff1673ffffffffffffffffffffffffffffffffffffffff168152602001908152602001600020868154811061226957fe5b9060005260206000209060090201600001546154bf90919063ffffffff16565b6154f990919063ffffffff16565b8361551f90919063ffffffff16565b91505b808060010191505061213f565b50809250505092915050565b600080600080600080600860008973ffffffffffffffffffffffffffffffffffffffff1673ffffffffffffffffffffffffffffffffffffffff168152602001908152602001600020878154811061231557fe5b906000526020600020906009020160000154600860008a73ffffffffffffffffffffffffffffffffffffffff1673ffffffffffffffffffffffffffffffffffffffff168152602001908152602001600020888154811061237157fe5b906000526020600020906009020160010154600860008b73ffffffffffffffffffffffffffffffffffffffff1673ffffffffffffffffffffffffffffffffffffffff16815260200190815260200160002089815481106123cd57fe5b906000526020600020906009020160020154600860008c73ffffffffffffffffffffffffffffffffffffffff1673ffffffffffffffffffffffffffffffffffffffff1681526020019081526020016000208a8154811061242957fe5b906000526020600020906009020160030154600860008d73ffffffffffffffffffffffffffffffffffffffff1673ffffffffffffffffffffffffffffffffffffffff1681526020019081526020016000208b8154811061248557fe5b906000526020600020906009020160040154600860008e73ffffffffffffffffffffffffffffffffffffffff1673ffffffffffffffffffffffffffffffffffffffff1681526020019081526020016000208c815481106124e157fe5b9060005260206000209060090201600501549550955095509550955095509295509295509295565b6060600580548060200260200160405190810160405280929190818152602001828054801561255757602002820191906000526020600020905b815481526020019060010190808311612543575b5050505050905090565b600a6020528060005260406000206000915090505481565b6000809054906101000a900473ffffffffffffffffffffffffffffffffffffffff1673ffffffffffffffffffffffffffffffffffffffff163373ffffffffffffffffffffffffffffffffffffffff161461263b576040517f08c379a00000000000000000000000000000000000000000000000000000000081526004018080602001828103825260168152602001807f6f6e6c79206465706c6f7965722063616e2063616c6c0000000000000000000081525060200191505060405180910390fd5b600160009054906101000a900473ffffffffffffffffffffffffffffffffffffffff1673ffffffffffffffffffffffffffffffffffffffff166323b872dd3330846040518463ffffffff1660e01b8152600401808473ffffffffffffffffffffffffffffffffffffffff1673ffffffffffffffffffffffffffffffffffffffff1681526020018373ffffffffffffffffffffffffffffffffffffffff1673ffffffffffffffffffffffffffffffffffffffff1681526020018281526020019350505050602060405180830381600087803b15801561271857600080fd5b505af115801561272c573d6000803e3d6000fd5b505050506040513d602081101561274257600080fd5b810190808051906020019092919050505061275c57600080fd5b61277181600b5461551f90919063ffffffff16565b600b8190555050565b60045481565b6000809054906101000a900473ffffffffffffffffffffffffffffffffffffffff1673ffffffffffffffffffffffffffffffffffffffff163373ffffffffffffffffffffffffffffffffffffffff1614612842576040517f08c379a00000000000000000000000000000000000000000000000000000000081526004018080602001828103825260168152602001807f6f6e6c79206465706c6f7965722063616e2063616c6c0000000000000000000081525060200191505060405180910390fd5b60008090505b82518110156129345761286682600b5461549f90919063ffffffff16565b600b819055506128d182600c600086858151811061288057fe5b602002602001015173ffffffffffffffffffffffffffffffffffffffff1673ffffffffffffffffffffffffffffffffffffffff1681526020019081526020016000205461551f90919063ffffffff16565b600c60008584815181106128e157fe5b602002602001015173ffffffffffffffffffffffffffffffffffffffff1673ffffffffffffffffffffffffffffffffffffffff168152602001908152602001600020819055508080600101915050612848565b505050565b6000809054906101000a900473ffffffffffffffffffffffffffffffffffffffff1673ffffffffffffffffffffffffffffffffffffffff163373ffffffffffffffffffffffffffffffffffffffff16146129fb576040517f08c379a00000000000000000000000000000000000000000000000000000000081526004018080602001828103825260168152602001807f6f6e6c79206465706c6f7965722063616e2063616c6c0000000000000000000081525060200191505060405180910390fd5b60008090505b8251811015612b1357612a32828281518110612a1957fe5b6020026020010151600b5461549f90919063ffffffff16565b600b81905550612ab0828281518110612a4757fe5b6020026020010151600c6000868581518110612a5f57fe5b602002602001015173ffffffffffffffffffffffffffffffffffffffff1673ffffffffffffffffffffffffffffffffffffffff1681526020019081526020016000205461551f90919063ffffffff16565b600c6000858481518110612ac057fe5b602002602001015173ffffffffffffffffffffffffffffffffffffffff1673ffffffffffffffffffffffffffffffffffffffff168152602001908152602001600020819055508080600101915050612a01565b505050565b60068181548110612b2557fe5b90600052602060002090600202016000915090508060000154908060010154905082565b600c6020528060005260406000206000915090505481565b6000809054906101000a900473ffffffffffffffffffffffffffffffffffffffff1673ffffffffffffffffffffffffffffffffffffffff163373ffffffffffffffffffffffffffffffffffffffff1614612c23576040517f08c379a00000000000000000000000000000000000000000000000000000000081526004018080602001828103825260168152602001807f6f6e6c79206465706c6f7965722063616e2063616c6c0000000000000000000081525060200191505060405180910390fd5b60076040518060400160405280848152602001838152509080600181540180825580915050906001820390600052602060002090600202016000909192909190915060008201518160000155602082015181600101555050505050565b6000809054906101000a900473ffffffffffffffffffffffffffffffffffffffff1681565b600080612d2c600454612d1e600354600860008b73ffffffffffffffffffffffffffffffffffffffff1673ffffffffffffffffffffffffffffffffffffffff1681526020019081526020016000208981548110612cfe57fe5b90600052602060002090600902016001015461549f90919063ffffffff16565b6154f990919063ffffffff16565b9050826001820111158015612dbc5750826006600860008973ffffffffffffffffffffffffffffffffffffffff1673ffffffffffffffffffffffffffffffffffffffff1681526020019081526020016000208781548110612d8957fe5b90600052602060002090600902016002015481548110612da557fe5b906000526020600020906002020160000154820110155b8015612e2357506001600860008873ffffffffffffffffffffffffffffffffffffffff1673ffffffffffffffffffffffffffffffffffffffff1681526020019081526020016000208681548110612e0f57fe5b906000526020600020906009020160030154145b8015612f5f57508284141580612f5e5750612eb8612e4e6004548387036154bf90919063ffffffff16565b600860008973ffffffffffffffffffffffffffffffffffffffff1673ffffffffffffffffffffffffffffffffffffffff1681526020019081526020016000208781548110612e9857fe5b90600052602060002090600902016001015461551f90919063ffffffff16565b600160009054906101000a900473ffffffffffffffffffffffffffffffffffffffff1673ffffffffffffffffffffffffffffffffffffffff1663b81f90f36040518163ffffffff1660e01b815260040160206040518083038186803b158015612f2057600080fd5b505afa158015612f34573d6000803e3d6000fd5b505050506040513d6020811015612f4a57600080fd5b810190808051906020019092919050505010155b5b915050949350505050565b60096020528160005260406000208181548110612f8357fe5b9060005260206000209060050201600091509150508060000154908060010154908060020154908060030154905084565b6001600860003373ffffffffffffffffffffffffffffffffffffffff1673ffffffffffffffffffffffffffffffffffffffff168152602001908152602001600020828154811061300057fe5b90600052602060002090600902016003015414613068576040517f08c379a00000000000000000000000000000000000000000000000000000000081526004018080602001828103825260218152602001806156586021913960400191505060405180910390fd5b6004600860003373ffffffffffffffffffffffffffffffffffffffff1673ffffffffffffffffffffffffffffffffffffffff16815260200190815260200160002082815481106130b457fe5b90600052602060002090600902016003018190555060006130d361440b565b9050600061315b60045461314d600354600860003373ffffffffffffffffffffffffffffffffffffffff1673ffffffffffffffffffffffffffffffffffffffff168152602001908152602001600020878154811061312d57fe5b90600052602060002090600902016001015461549f90919063ffffffff16565b6154f990919063ffffffff16565b905060006006600860003373ffffffffffffffffffffffffffffffffffffffff1673ffffffffffffffffffffffffffffffffffffffff16815260200190815260200160002085815481106131ab57fe5b906000526020600020906009020160020154815481106131c757fe5b9060005260206000209060020201600001548201905060006001840190505b8181116132925761326e600860003373ffffffffffffffffffffffffffffffffffffffff1673ffffffffffffffffffffffffffffffffffffffff168152602001908152602001600020868154811061323a57fe5b906000526020600020906009020160000154600a60008481526020019081526020016000205461549f90919063ffffffff16565b600a60008381526020019081526020016000208190555080806001019150506131e6565b5061329b61440b565b600860003373ffffffffffffffffffffffffffffffffffffffff1673ffffffffffffffffffffffffffffffffffffffff16815260200190815260200160002085815481106132e557fe5b9060005260206000209060090201600701819055506018600860003373ffffffffffffffffffffffffffffffffffffffff1673ffffffffffffffffffffffffffffffffffffffff168152602001908152602001600020858154811061334657fe5b90600052602060002090600902016008018190555050505050565b6000600860008373ffffffffffffffffffffffffffffffffffffffff1673ffffffffffffffffffffffffffffffffffffffff168152602001908152602001600020805490509050919050565b6000806133b861440b565b9050600080600090505b8451811015613531576133ea868683815181106133db57fe5b60200260200101518586612ca5565b1561352457613521613512600f6135046006600860008c73ffffffffffffffffffffffffffffffffffffffff1673ffffffffffffffffffffffffffffffffffffffff1681526020019081526020016000208a878151811061344757fe5b60200260200101518154811061345957fe5b9060005260206000209060090201600201548154811061347557fe5b906000526020600020906002020160010154600860008c73ffffffffffffffffffffffffffffffffffffffff1673ffffffffffffffffffffffffffffffffffffffff1681526020019081526020016000208a87815181106134d257fe5b6020026020010151815481106134e457fe5b9060005260206000209060090201600001546154bf90919063ffffffff16565b6154f990919063ffffffff16565b8361551f90919063ffffffff16565b91505b80806001019150506133c2565b506135466002826154f990919063ffffffff16565b9250505092915050565b6000809054906101000a900473ffffffffffffffffffffffffffffffffffffffff1673ffffffffffffffffffffffffffffffffffffffff163373ffffffffffffffffffffffffffffffffffffffff1614613612576040517f08c379a00000000000000000000000000000000000000000000000000000000081526004018080602001828103825260168152602001807f6f6e6c79206465706c6f7965722063616e2063616c6c0000000000000000000081525060200191505060405180910390fd5b60066040518060400160405280848152602001838152509080600181540180825580915050906001820390600052602060002090600202016000909192909190915060008201518160000155602082015181600101555050505050565b6007818154811061367c57fe5b90600052602060002090600202016000915090508060000154908060010154905082565b60006136aa61440b565b9050600080600090505b8351811015613af6576136dc338583815181106136cd57fe5b60200260200101518586612ca5565b15613ae957613813613804600f6137f66006600860003373ffffffffffffffffffffffffffffffffffffffff1673ffffffffffffffffffffffffffffffffffffffff16815260200190815260200160002089878151811061373957fe5b60200260200101518154811061374b57fe5b9060005260206000209060090201600201548154811061376757fe5b906000526020600020906002020160010154600860003373ffffffffffffffffffffffffffffffffffffffff1673ffffffffffffffffffffffffffffffffffffffff1681526020019081526020016000208987815181106137c457fe5b6020026020010151815481106137d657fe5b9060005260206000209060090201600001546154bf90919063ffffffff16565b6154f990919063ffffffff16565b8361551f90919063ffffffff16565b915060006138ae6004546138a0600354600860003373ffffffffffffffffffffffffffffffffffffffff1673ffffffffffffffffffffffffffffffffffffffff16815260200190815260200160002089878151811061386e57fe5b60200260200101518154811061388057fe5b90600052602060002090600902016001015461549f90919063ffffffff16565b6154f990919063ffffffff16565b905060006006600860003373ffffffffffffffffffffffffffffffffffffffff1673ffffffffffffffffffffffffffffffffffffffff1681526020019081526020016000208785815181106138ff57fe5b60200260200101518154811061391157fe5b9060005260206000209060090201600201548154811061392d57fe5b9060005260206000209060020201600001548201905060006001860190505b81811161399d5761397985600a60008481526020019081526020016000205461549f90919063ffffffff16565b600a600083815260200190815260200160002081905550808060010191505061394c565b506000600190505b600789815481106139b257fe5b9060005260206000209060020201600001548111613ae5576001600860003373ffffffffffffffffffffffffffffffffffffffff1673ffffffffffffffffffffffffffffffffffffffff168152602001908152602001600020888681518110613a1757fe5b602002602001015181548110613a2957fe5b90600052602060002090600902016006016000838901815260200190815260200160002060006101000a81548160ff0219169083151502179055506002600860003373ffffffffffffffffffffffffffffffffffffffff1673ffffffffffffffffffffffffffffffffffffffff168152602001908152602001600020888681518110613ab157fe5b602002602001015181548110613ac357fe5b90600052602060002090600902016003018190555080806001019150506139a5565b5050505b80806001019150506136b4565b506000613b0d6002836154f990919063ffffffff16565b905080851115613b6f576000613b6e576040517f08c379a00000000000000000000000000000000000000000000000000000000081526004018080602001828103825260268152602001806155cb6026913960400191505060405180910390fd5b5b6000613bb56064613ba760078a81548110613b8657fe5b906000526020600020906002020160010154896154bf90919063ffffffff16565b6154f990919063ffffffff16565b90506000613bcc828861549f90919063ffffffff16565b9050600160009054906101000a900473ffffffffffffffffffffffffffffffffffffffff1673ffffffffffffffffffffffffffffffffffffffff1663a9059cbb600260009054906101000a900473ffffffffffffffffffffffffffffffffffffffff16846040518363ffffffff1660e01b8152600401808373ffffffffffffffffffffffffffffffffffffffff1673ffffffffffffffffffffffffffffffffffffffff16815260200182815260200192505050602060405180830381600087803b158015613c9957600080fd5b505af1158015613cad573d6000803e3d6000fd5b505050506040513d6020811015613cc357600080fd5b8101908080519060200190929190505050613cdd57600080fd5b600260009054906101000a900473ffffffffffffffffffffffffffffffffffffffff1673ffffffffffffffffffffffffffffffffffffffff1663382e2aab836040518263ffffffff1660e01b815260040180828152602001915050602060405180830381600087803b158015613d5257600080fd5b505af1158015613d66573d6000803e3d6000fd5b505050506040513d6020811015613d7c57600080fd5b8101908080519060200190929190505050613d9657600080fd5b600960003373ffffffffffffffffffffffffffffffffffffffff1673ffffffffffffffffffffffffffffffffffffffff1681526020019081526020016000206040518060a00160405280898152602001600160009054906101000a900473ffffffffffffffffffffffffffffffffffffffff1673ffffffffffffffffffffffffffffffffffffffff1663b81f90f36040518163ffffffff1660e01b815260040160206040518083038186803b158015613e4e57600080fd5b505afa158015613e62573d6000803e3d6000fd5b505050506040513d6020811015613e7857600080fd5b810190808051906020019092919050505081526020018a8152602001600181526020018881525090806001815401808255809150509060018203906000526020600020906005020160009091929091909150600082015181600001556020820151816001015560408201518160020155606082015181600301556080820151816004019080519060200190613f0e929190615558565b50505050600160009054906101000a900473ffffffffffffffffffffffffffffffffffffffff1673ffffffffffffffffffffffffffffffffffffffff1663a9059cbb33836040518363ffffffff1660e01b8152600401808373ffffffffffffffffffffffffffffffffffffffff1673ffffffffffffffffffffffffffffffffffffffff16815260200182815260200192505050602060405180830381600087803b158015613fbb57600080fd5b505af1158015613fcf573d6000803e3d6000fd5b505050506040513d6020811015613fe557600080fd5b8101908080519060200190929190505050613fff57600080fd5b873373ffffffffffffffffffffffffffffffffffffffff167f583f4a449110798c282200ea42774808b8147fa4bcb89a6ca406dd0650e034e789856001600960003373ffffffffffffffffffffffffffffffffffffffff1673ffffffffffffffffffffffffffffffffffffffff168152602001908152602001600020805490500360405180848152602001838152602001828152602001935050505060405180910390a35050505050505050565b6000600c60003373ffffffffffffffffffffffffffffffffffffffff1673ffffffffffffffffffffffffffffffffffffffff16815260200190815260200160002054116140f957600080fd5b6000600c60003373ffffffffffffffffffffffffffffffffffffffff1673ffffffffffffffffffffffffffffffffffffffff1681526020019081526020016000205490506000600c60003373ffffffffffffffffffffffffffffffffffffffff1673ffffffffffffffffffffffffffffffffffffffff1681526020019081526020016000208190555060006006838154811061419157fe5b90600052602060002090600202016000015460016141ad61440b565b01019050600060016141bd61440b565b0190505b818110156142035782600a60008381526020019081526020016000205401600a60008381526020019081526020016000208190555080806001019150506141c1565b506000600860003373ffffffffffffffffffffffffffffffffffffffff1673ffffffffffffffffffffffffffffffffffffffff168152602001908152602001600020905080604051806101000160405280858152602001600160009054906101000a900473ffffffffffffffffffffffffffffffffffffffff1673ffffffffffffffffffffffffffffffffffffffff1663b81f90f36040518163ffffffff1660e01b815260040160206040518083038186803b1580156142c257600080fd5b505afa1580156142d6573d6000803e3d6000fd5b505050506040513d60208110156142ec57600080fd5b8101908080519060200190929190505050815260200186815260200160018152602001600081526020016000815260200160008152602001600081525090806001815401808255809150509060018203906000526020600020906009020160009091929091909150600082015181600001556020820151816001015560408201518160020155606082015181600301556080820151816004015560a0820151816005015560c0820151816007015560e08201518160080155505050833373ffffffffffffffffffffffffffffffffffffffff167f680a0e2e97ad7c29da7985e37b699f19857c055166f801e50d90661eae30fcc3856001858054905003604051808381526020018281526020019250505060405180910390a350505050565b6000600160058054905003905090565b6001600960003373ffffffffffffffffffffffffffffffffffffffff1673ffffffffffffffffffffffffffffffffffffffff168152602001908152602001600020828154811061446757fe5b906000526020600020906005020160030154146144ec576040517f08c379a000000000000000000000000000000000000000000000000000000000815260040180806020018281038252601c8152602001807f63616e206f6e6c792072657061792070656e64696e67206c6f616e730000000081525060200191505060405180910390fd5b600160009054906101000a900473ffffffffffffffffffffffffffffffffffffffff1673ffffffffffffffffffffffffffffffffffffffff166323b872dd3330600960003373ffffffffffffffffffffffffffffffffffffffff1673ffffffffffffffffffffffffffffffffffffffff168152602001908152602001600020858154811061457657fe5b9060005260206000209060050201600001546040518463ffffffff1660e01b8152600401808473ffffffffffffffffffffffffffffffffffffffff1673ffffffffffffffffffffffffffffffffffffffff1681526020018373ffffffffffffffffffffffffffffffffffffffff1673ffffffffffffffffffffffffffffffffffffffff1681526020018281526020019350505050602060405180830381600087803b15801561462457600080fd5b505af1158015614638573d6000803e3d6000fd5b505050506040513d602081101561464e57600080fd5b81019080805190602001909291905050506146b4576040517f08c379a00000000000000000000000000000000000000000000000000000000081526004018080602001828103825260408152602001806156186040913960400191505060405180910390fd5b6002600960003373ffffffffffffffffffffffffffffffffffffffff1673ffffffffffffffffffffffffffffffffffffffff168152602001908152602001600020828154811061470057fe5b90600052602060002090600502016003018190555060008090505b600960003373ffffffffffffffffffffffffffffffffffffffff1673ffffffffffffffffffffffffffffffffffffffff168152602001908152602001600020828154811061476557fe5b906000526020600020906005020160040180549050811015614ab1576000600960003373ffffffffffffffffffffffffffffffffffffffff1673ffffffffffffffffffffffffffffffffffffffff16815260200190815260200160002083815481106147cd57fe5b906000526020600020906005020160040182815481106147e957fe5b906000526020600020015490506001600860003373ffffffffffffffffffffffffffffffffffffffff1673ffffffffffffffffffffffffffffffffffffffff168152602001908152602001600020828154811061484257fe5b90600052602060002090600902016003018190555060006148dd6004546148cf600354600860003373ffffffffffffffffffffffffffffffffffffffff1673ffffffffffffffffffffffffffffffffffffffff16815260200190815260200160002086815481106148af57fe5b90600052602060002090600902016001015461549f90919063ffffffff16565b6154f990919063ffffffff16565b905060006006600860003373ffffffffffffffffffffffffffffffffffffffff1673ffffffffffffffffffffffffffffffffffffffff168152602001908152602001600020848154811061492d57fe5b9060005260206000209060090201600201548154811061494957fe5b906000526020600020906002020160000154820190506000600161496b61440b565b0190505b818111614aa0576000600860003373ffffffffffffffffffffffffffffffffffffffff1673ffffffffffffffffffffffffffffffffffffffff16815260200190815260200160002085815481106149c257fe5b9060005260206000209060090201600601600087815260200190815260200160002060006101000a81548160ff021916908315150217905550614a7c600860003373ffffffffffffffffffffffffffffffffffffffff1673ffffffffffffffffffffffffffffffffffffffff1681526020019081526020016000208581548110614a4857fe5b906000526020600020906009020160000154600a60008481526020019081526020016000205461551f90919063ffffffff16565b600a600083815260200190815260200160002081905550808060010191505061496f565b50505050808060010191505061471b565b5050565b600160009054906101000a900473ffffffffffffffffffffffffffffffffffffffff1673ffffffffffffffffffffffffffffffffffffffff166323b872dd3330856040518463ffffffff1660e01b8152600401808473ffffffffffffffffffffffffffffffffffffffff1673ffffffffffffffffffffffffffffffffffffffff1681526020018373ffffffffffffffffffffffffffffffffffffffff1673ffffffffffffffffffffffffffffffffffffffff1681526020018281526020019350505050602060405180830381600087803b158015614b9257600080fd5b505af1158015614ba6573d6000803e3d6000fd5b505050506040513d6020811015614bbc57600080fd5b8101908080519060200190929190505050614c3f576040517f08c379a00000000000000000000000000000000000000000000000000000000081526004018080602001828103825260198152602001807f636f756c64206e6f74207472616e7366657220746f6b656e730000000000000081525060200191505060405180910390fd5b600060068281548110614c4e57fe5b9060005260206000209060020201600001546001614c6a61440b565b0101905060006001614c7a61440b565b0190505b81811015614cc05783600a60008381526020019081526020016000205401600a6000838152602001908152602001600020819055508080600101915050614c7e565b506000600860003373ffffffffffffffffffffffffffffffffffffffff1673ffffffffffffffffffffffffffffffffffffffff168152602001908152602001600020905080604051806101000160405280868152602001600160009054906101000a900473ffffffffffffffffffffffffffffffffffffffff1673ffffffffffffffffffffffffffffffffffffffff1663b81f90f36040518163ffffffff1660e01b815260040160206040518083038186803b158015614d7f57600080fd5b505afa158015614d93573d6000803e3d6000fd5b505050506040513d6020811015614da957600080fd5b8101908080519060200190929190505050815260200185815260200160018152602001600081526020016000815260200160008152602001600081525090806001815401808255809150509060018203906000526020600020906009020160009091929091909150600082015181600001556020820151816001015560408201518160020155606082015181600301556080820151816004015560a0820151816005015560c0820151816007015560e08201518160080155505050823373ffffffffffffffffffffffffffffffffffffffff167f680a0e2e97ad7c29da7985e37b699f19857c055166f801e50d90661eae30fcc3866001858054905003604051808381526020018281526020019250505060405180910390a350505050565b60035481565b600260009054906101000a900473ffffffffffffffffffffffffffffffffffffffff1673ffffffffffffffffffffffffffffffffffffffff163373ffffffffffffffffffffffffffffffffffffffff1614614f91576040517f08c379a00000000000000000000000000000000000000000000000000000000081526004018080602001828103825260198152602001807f6f6e6c79204e5254206d616e616765722063616e2063616c6c0000000000000081525060200191505060405180910390fd5b600581908060018154018082558091505090600182039060005260206000200160009091929091909150555050565b60008090505b815181101561537b576003600860003373ffffffffffffffffffffffffffffffffffffffff1673ffffffffffffffffffffffffffffffffffffffff16815260200190815260200160002083838151811061501c57fe5b60200260200101518154811061502e57fe5b9060005260206000209060090201600301819055506000600860003373ffffffffffffffffffffffffffffffffffffffff1673ffffffffffffffffffffffffffffffffffffffff16815260200190815260200160002083838151811061509057fe5b6020026020010151815481106150a257fe5b906000526020600020906009020160040154111561521b576000600860003373ffffffffffffffffffffffffffffffffffffffff1673ffffffffffffffffffffffffffffffffffffffff16815260200190815260200160002083838151811061510757fe5b60200260200101518154811061511957fe5b90600052602060002090600902016004015490506000600860003373ffffffffffffffffffffffffffffffffffffffff1673ffffffffffffffffffffffffffffffffffffffff16815260200190815260200160002084848151811061517a57fe5b60200260200101518154811061518c57fe5b90600052602060002090600902016004018190555061521981600860003373ffffffffffffffffffffffffffffffffffffffff1673ffffffffffffffffffffffffffffffffffffffff1681526020019081526020016000208585815181106151f057fe5b60200260200101518154811061520257fe5b906000526020600020906009020160020154614ab5565b505b600160009054906101000a900473ffffffffffffffffffffffffffffffffffffffff1673ffffffffffffffffffffffffffffffffffffffff1663a9059cbb33600860003373ffffffffffffffffffffffffffffffffffffffff1673ffffffffffffffffffffffffffffffffffffffff1681526020019081526020016000208585815181106152a557fe5b6020026020010151815481106152b757fe5b9060005260206000209060090201600001546040518363ffffffff1660e01b8152600401808373ffffffffffffffffffffffffffffffffffffffff1673ffffffffffffffffffffffffffffffffffffffff16815260200182815260200192505050602060405180830381600087803b15801561533257600080fd5b505af1158015615346573d6000803e3d6000fd5b505050506040513d602081101561535c57600080fd5b8101908080519060200190929190505050508080600101915050614fc6565b5050565b60008061538a61440b565b9050600080600090505b600860008773ffffffffffffffffffffffffffffffffffffffff1673ffffffffffffffffffffffffffffffffffffffff1681526020019081526020016000208054905081101561546d576153ea86828588612ca5565b156154605761545d600860008873ffffffffffffffffffffffffffffffffffffffff1673ffffffffffffffffffffffffffffffffffffffff168152602001908152602001600020828154811061543c57fe5b9060005260206000209060090201600001548361551f90919063ffffffff16565b91505b8080600101915050615394565b50809250505092915050565b600160009054906101000a900473ffffffffffffffffffffffffffffffffffffffff1681565b6000828211156154ae57600080fd5b600082840390508091505092915050565b6000808314156154d257600090506154f3565b60008284029050828482816154e357fe5b04146154ee57600080fd5b809150505b92915050565b600080821161550757600080fd5b600082848161551257fe5b0490508091505092915050565b60008082840190508381101561553457600080fd5b8091505092915050565b604051806040016040528060008152602001600081525090565b828054828255906000526020600020908101928215615594579160200282015b82811115615593578251825591602001919060010190615578565b5b5090506155a191906155a5565b5090565b6155c791905b808211156155c35760008160009055506001016155ab565b5090565b9056fe63616e6e6f74206c6f616e206d6f7265207468616e206d61784c6f616e696e67416d6f756e746163637275656450657263656e746167652073686f756c64206265206174206c6561737420353063616e6e6f74207265636569766520656e6f75676820746f6b656e732c20706c6561736520636865636b20696620616c6c6f77616e6365206973207468657265746f2063616e73616c2c207374616b696e67206d75737420626520616374697665746f74616c20616374697665207374616b696e67732073686f756c64206265206e6f6e207a65726fa265627a7a723058200af07bb318eead9b0b04771db5abd6428ab46b5ea47389ec94beb091540ec41a64736f6c634300050a0032","opcodes":"PUSH1 0x80 PUSH1 0x40 MSTORE PUSH3 0x282070 PUSH1 0x4 SSTORE CALLVALUE DUP1 ISZERO PUSH3 0x18 JUMPI PUSH1 0x0 DUP1 REVERT JUMPDEST POP PUSH1 0x40 MLOAD PUSH3 0x58DB CODESIZE SUB DUP1 PUSH3 0x58DB DUP4 CODECOPY DUP2 DUP2 ADD PUSH1 0x40 MSTORE PUSH1 0x40 DUP2 LT ISZERO PUSH3 0x3E JUMPI PUSH1 0x0 DUP1 REVERT JUMPDEST DUP2 ADD SWAP1 DUP1 DUP1 MLOAD SWAP1 PUSH1 0x20 ADD SWAP1 SWAP3 SWAP2 SWAP1 DUP1 MLOAD SWAP1 PUSH1 0x20 ADD SWAP1 SWAP3 SWAP2 SWAP1 POP POP POP CALLER PUSH1 0x0 DUP1 PUSH2 0x100 EXP DUP2 SLOAD DUP2 PUSH20 0xFFFFFFFFFFFFFFFFFFFFFFFFFFFFFFFFFFFFFFFF MUL NOT AND SWAP1 DUP4 PUSH20 0xFFFFFFFFFFFFFFFFFFFFFFFFFFFFFFFFFFFFFFFF AND MUL OR SWAP1 SSTORE POP DUP2 PUSH1 0x1 PUSH1 0x0 PUSH2 0x100 EXP DUP2 SLOAD DUP2 PUSH20 0xFFFFFFFFFFFFFFFFFFFFFFFFFFFFFFFFFFFFFFFF MUL NOT AND SWAP1 DUP4 PUSH20 0xFFFFFFFFFFFFFFFFFFFFFFFFFFFFFFFFFFFFFFFF AND MUL OR SWAP1 SSTORE POP DUP1 PUSH1 0x2 PUSH1 0x0 PUSH2 0x100 EXP DUP2 SLOAD DUP2 PUSH20 0xFFFFFFFFFFFFFFFFFFFFFFFFFFFFFFFFFFFFFFFF MUL NOT AND SWAP1 DUP4 PUSH20 0xFFFFFFFFFFFFFFFFFFFFFFFFFFFFFFFFFFFFFFFF AND MUL OR SWAP1 SSTORE POP PUSH1 0x1 PUSH1 0x0 SWAP1 SLOAD SWAP1 PUSH2 0x100 EXP SWAP1 DIV PUSH20 0xFFFFFFFFFFFFFFFFFFFFFFFFFFFFFFFFFFFFFFFF AND PUSH20 0xFFFFFFFFFFFFFFFFFFFFFFFFFFFFFFFFFFFFFFFF AND PUSH4 0xB81F90F3 PUSH1 0x40 MLOAD DUP2 PUSH4 0xFFFFFFFF AND PUSH1 0xE0 SHL DUP2 MSTORE PUSH1 0x4 ADD PUSH1 0x20 PUSH1 0x40 MLOAD DUP1 DUP4 SUB DUP2 DUP7 DUP1 EXTCODESIZE ISZERO DUP1 ISZERO PUSH3 0x184 JUMPI PUSH1 0x0 DUP1 REVERT JUMPDEST POP GAS STATICCALL ISZERO DUP1 ISZERO PUSH3 0x199 JUMPI RETURNDATASIZE PUSH1 0x0 DUP1 RETURNDATACOPY RETURNDATASIZE PUSH1 0x0 REVERT JUMPDEST POP POP POP POP PUSH1 0x40 MLOAD RETURNDATASIZE PUSH1 0x20 DUP2 LT ISZERO PUSH3 0x1B0 JUMPI PUSH1 0x0 DUP1 REVERT JUMPDEST DUP2 ADD SWAP1 DUP1 DUP1 MLOAD SWAP1 PUSH1 0x20 ADD SWAP1 SWAP3 SWAP2 SWAP1 POP POP POP PUSH1 0x3 DUP2 SWAP1 SSTORE POP PUSH1 0x5 PUSH1 0x0 SWAP1 DUP1 PUSH1 0x1 DUP2 SLOAD ADD DUP1 DUP3 SSTORE DUP1 SWAP2 POP POP SWAP1 PUSH1 0x1 DUP3 SUB SWAP1 PUSH1 0x0 MSTORE PUSH1 0x20 PUSH1 0x0 KECCAK256 ADD PUSH1 0x0 SWAP1 SWAP2 SWAP3 SWAP1 SWAP2 SWAP1 SWAP2 POP SSTORE POP POP POP PUSH2 0x56D5 DUP1 PUSH3 0x206 PUSH1 0x0 CODECOPY PUSH1 0x0 RETURN INVALID PUSH1 0x80 PUSH1 0x40 MSTORE CALLVALUE DUP1 ISZERO PUSH2 0x10 JUMPI PUSH1 0x0 DUP1 REVERT JUMPDEST POP PUSH1 0x4 CALLDATASIZE LT PUSH2 0x227 JUMPI PUSH1 0x0 CALLDATALOAD PUSH1 0xE0 SHR DUP1 PUSH4 0x82F97857 GT PUSH2 0x130 JUMPI DUP1 PUSH4 0xD0E32681 GT PUSH2 0xB8 JUMPI DUP1 PUSH4 0xE6BBE424 GT PUSH2 0x7C JUMPI DUP1 PUSH4 0xE6BBE424 EQ PUSH2 0xDE6 JUMPI DUP1 PUSH4 0xE78C81C4 EQ PUSH2 0xE04 JUMPI DUP1 PUSH4 0xE83F7843 EQ PUSH2 0xE32 JUMPI DUP1 PUSH4 0xEB12F7F5 EQ PUSH2 0xEEA JUMPI DUP1 PUSH4 0xFC0C546A EQ PUSH2 0xF4C JUMPI PUSH2 0x227 JUMP JUMPDEST DUP1 PUSH4 0xD0E32681 EQ PUSH2 0xC68 JUMPI DUP1 PUSH4 0xDA9D8AA0 EQ PUSH2 0xD34 JUMPI DUP1 PUSH4 0xDDD1B67E EQ PUSH2 0xD62 JUMPI DUP1 PUSH4 0xDEA6CF43 EQ PUSH2 0xD80 JUMPI DUP1 PUSH4 0xE5FD04E6 EQ PUSH2 0xDAE JUMPI PUSH2 0x227 JUMP JUMPDEST DUP1 PUSH4 0x9AB0388B GT PUSH2 0xFF JUMPI DUP1 PUSH4 0x9AB0388B EQ PUSH2 0xA75 JUMPI DUP1 PUSH4 0xAD998FA0 EQ PUSH2 0xAA3 JUMPI DUP1 PUSH4 0xBE4AD9C3 EQ PUSH2 0xAFB JUMPI DUP1 PUSH4 0xC71D5D58 EQ PUSH2 0xBE7 JUMPI DUP1 PUSH4 0xCC44A2FD EQ PUSH2 0xC1F JUMPI PUSH2 0x227 JUMP JUMPDEST DUP1 PUSH4 0x82F97857 EQ PUSH2 0x902 JUMPI DUP1 PUSH4 0x8DA5CB5B EQ PUSH2 0x93A JUMPI DUP1 PUSH4 0x97A332D8 EQ PUSH2 0x984 JUMPI DUP1 PUSH4 0x98C61C37 EQ PUSH2 0x9FE JUMPI PUSH2 0x227 JUMP JUMPDEST DUP1 PUSH4 0x46A4D6E3 GT PUSH2 0x1B3 JUMPI DUP1 PUSH4 0x582E7E9E GT PUSH2 0x182 JUMPI DUP1 PUSH4 0x582E7E9E EQ PUSH2 0x635 JUMPI DUP1 PUSH4 0x59DCC8C5 EQ PUSH2 0x653 JUMPI DUP1 PUSH4 0x757CBE00 EQ PUSH2 0x715 JUMPI DUP1 PUSH4 0x762E7A34 EQ PUSH2 0x861 JUMPI DUP1 PUSH4 0x7ACAB857 EQ PUSH2 0x8AA JUMPI PUSH2 0x227 JUMP JUMPDEST DUP1 PUSH4 0x46A4D6E3 EQ PUSH2 0x4E1 JUMPI DUP1 PUSH4 0x497EC40F EQ PUSH2 0x566 JUMPI DUP1 PUSH4 0x4EC0692C EQ PUSH2 0x5C5 JUMPI DUP1 PUSH4 0x53FCB2F3 EQ PUSH2 0x607 JUMPI PUSH2 0x227 JUMP JUMPDEST DUP1 PUSH4 0x23A15E6B GT PUSH2 0x1FA JUMPI DUP1 PUSH4 0x23A15E6B EQ PUSH2 0x355 JUMPI DUP1 PUSH4 0x2F3B59EA EQ PUSH2 0x397 JUMPI DUP1 PUSH4 0x35F406AB EQ PUSH2 0x3F9 JUMPI DUP1 PUSH4 0x3D5D6B5A EQ PUSH2 0x447 JUMPI DUP1 PUSH4 0x41927861 EQ PUSH2 0x47F JUMPI PUSH2 0x227 JUMP JUMPDEST DUP1 PUSH4 0x70B8195 EQ PUSH2 0x22C JUMPI DUP1 PUSH4 0xDF5202F EQ PUSH2 0x24A JUMPI DUP1 PUSH4 0x1849D8EA EQ PUSH2 0x294 JUMPI DUP1 PUSH4 0x217D65FB EQ PUSH2 0x327 JUMPI JUMPDEST PUSH1 0x0 DUP1 REVERT JUMPDEST PUSH2 0x234 PUSH2 0xF96 JUMP JUMPDEST PUSH1 0x40 MLOAD DUP1 DUP3 DUP2 MSTORE PUSH1 0x20 ADD SWAP2 POP POP PUSH1 0x40 MLOAD DUP1 SWAP2 SUB SWAP1 RETURN JUMPDEST PUSH2 0x252 PUSH2 0xF9C JUMP JUMPDEST PUSH1 0x40 MLOAD DUP1 DUP3 PUSH20 0xFFFFFFFFFFFFFFFFFFFFFFFFFFFFFFFFFFFFFFFF AND PUSH20 0xFFFFFFFFFFFFFFFFFFFFFFFFFFFFFFFFFFFFFFFF AND DUP2 MSTORE PUSH1 0x20 ADD SWAP2 POP POP PUSH1 0x40 MLOAD DUP1 SWAP2 SUB SWAP1 RETURN JUMPDEST PUSH2 0x2E0 PUSH1 0x4 DUP1 CALLDATASIZE SUB PUSH1 0x40 DUP2 LT ISZERO PUSH2 0x2AA JUMPI PUSH1 0x0 DUP1 REVERT JUMPDEST DUP2 ADD SWAP1 DUP1 DUP1 CALLDATALOAD PUSH20 0xFFFFFFFFFFFFFFFFFFFFFFFFFFFFFFFFFFFFFFFF AND SWAP1 PUSH1 0x20 ADD SWAP1 SWAP3 SWAP2 SWAP1 DUP1 CALLDATALOAD SWAP1 PUSH1 0x20 ADD SWAP1 SWAP3 SWAP2 SWAP1 POP POP POP PUSH2 0xFC2 JUMP JUMPDEST PUSH1 0x40 MLOAD DUP1 DUP10 DUP2 MSTORE PUSH1 0x20 ADD DUP9 DUP2 MSTORE PUSH1 0x20 ADD DUP8 DUP2 MSTORE PUSH1 0x20 ADD DUP7 DUP2 MSTORE PUSH1 0x20 ADD DUP6 DUP2 MSTORE PUSH1 0x20 ADD DUP5 DUP2 MSTORE PUSH1 0x20 ADD DUP4 DUP2 MSTORE PUSH1 0x20 ADD DUP3 DUP2 MSTORE PUSH1 0x20 ADD SWAP9 POP POP POP POP POP POP POP POP POP PUSH1 0x40 MLOAD DUP1 SWAP2 SUB SWAP1 RETURN JUMPDEST PUSH2 0x353 PUSH1 0x4 DUP1 CALLDATASIZE SUB PUSH1 0x20 DUP2 LT ISZERO PUSH2 0x33D JUMPI PUSH1 0x0 DUP1 REVERT JUMPDEST DUP2 ADD SWAP1 DUP1 DUP1 CALLDATALOAD SWAP1 PUSH1 0x20 ADD SWAP1 SWAP3 SWAP2 SWAP1 POP POP POP PUSH2 0x1024 JUMP JUMPDEST STOP JUMPDEST PUSH2 0x381 PUSH1 0x4 DUP1 CALLDATASIZE SUB PUSH1 0x20 DUP2 LT ISZERO PUSH2 0x36B JUMPI PUSH1 0x0 DUP1 REVERT JUMPDEST DUP2 ADD SWAP1 DUP1 DUP1 CALLDATALOAD SWAP1 PUSH1 0x20 ADD SWAP1 SWAP3 SWAP2 SWAP1 POP POP POP PUSH2 0x15AA JUMP JUMPDEST PUSH1 0x40 MLOAD DUP1 DUP3 DUP2 MSTORE PUSH1 0x20 ADD SWAP2 POP POP PUSH1 0x40 MLOAD DUP1 SWAP2 SUB SWAP1 RETURN JUMPDEST PUSH2 0x3E3 PUSH1 0x4 DUP1 CALLDATASIZE SUB PUSH1 0x40 DUP2 LT ISZERO PUSH2 0x3AD JUMPI PUSH1 0x0 DUP1 REVERT JUMPDEST DUP2 ADD SWAP1 DUP1 DUP1 CALLDATALOAD PUSH20 0xFFFFFFFFFFFFFFFFFFFFFFFFFFFFFFFFFFFFFFFF AND SWAP1 PUSH1 0x20 ADD SWAP1 SWAP3 SWAP2 SWAP1 DUP1 CALLDATALOAD SWAP1 PUSH1 0x20 ADD SWAP1 SWAP3 SWAP2 SWAP1 POP POP POP PUSH2 0x15CB JUMP JUMPDEST PUSH1 0x40 MLOAD DUP1 DUP3 DUP2 MSTORE PUSH1 0x20 ADD SWAP2 POP POP PUSH1 0x40 MLOAD DUP1 SWAP2 SUB SWAP1 RETURN JUMPDEST PUSH2 0x445 PUSH1 0x4 DUP1 CALLDATASIZE SUB PUSH1 0x80 DUP2 LT ISZERO PUSH2 0x40F JUMPI PUSH1 0x0 DUP1 REVERT JUMPDEST DUP2 ADD SWAP1 DUP1 DUP1 CALLDATALOAD SWAP1 PUSH1 0x20 ADD SWAP1 SWAP3 SWAP2 SWAP1 DUP1 CALLDATALOAD SWAP1 PUSH1 0x20 ADD SWAP1 SWAP3 SWAP2 SWAP1 DUP1 CALLDATALOAD ISZERO ISZERO SWAP1 PUSH1 0x20 ADD SWAP1 SWAP3 SWAP2 SWAP1 DUP1 CALLDATALOAD SWAP1 PUSH1 0x20 ADD SWAP1 SWAP3 SWAP2 SWAP1 POP POP POP PUSH2 0x18FC JUMP JUMPDEST STOP JUMPDEST PUSH2 0x47D PUSH1 0x4 DUP1 CALLDATASIZE SUB PUSH1 0x40 DUP2 LT ISZERO PUSH2 0x45D JUMPI PUSH1 0x0 DUP1 REVERT JUMPDEST DUP2 ADD SWAP1 DUP1 DUP1 CALLDATALOAD SWAP1 PUSH1 0x20 ADD SWAP1 SWAP3 SWAP2 SWAP1 DUP1 CALLDATALOAD SWAP1 PUSH1 0x20 ADD SWAP1 SWAP3 SWAP2 SWAP1 POP POP POP PUSH2 0x1FF2 JUMP JUMPDEST STOP JUMPDEST PUSH2 0x4CB PUSH1 0x4 DUP1 CALLDATASIZE SUB PUSH1 0x40 DUP2 LT ISZERO PUSH2 0x495 JUMPI PUSH1 0x0 DUP1 REVERT JUMPDEST DUP2 ADD SWAP1 DUP1 DUP1 CALLDATALOAD PUSH20 0xFFFFFFFFFFFFFFFFFFFFFFFFFFFFFFFFFFFFFFFF AND SWAP1 PUSH1 0x20 ADD SWAP1 SWAP3 SWAP2 SWAP1 DUP1 CALLDATALOAD SWAP1 PUSH1 0x20 ADD SWAP1 SWAP3 SWAP2 SWAP1 POP POP POP PUSH2 0x212A JUMP JUMPDEST PUSH1 0x40 MLOAD DUP1 DUP3 DUP2 MSTORE PUSH1 0x20 ADD SWAP2 POP POP PUSH1 0x40 MLOAD DUP1 SWAP2 SUB SWAP1 RETURN JUMPDEST PUSH2 0x52D PUSH1 0x4 DUP1 CALLDATASIZE SUB PUSH1 0x40 DUP2 LT ISZERO PUSH2 0x4F7 JUMPI PUSH1 0x0 DUP1 REVERT JUMPDEST DUP2 ADD SWAP1 DUP1 DUP1 CALLDATALOAD PUSH20 0xFFFFFFFFFFFFFFFFFFFFFFFFFFFFFFFFFFFFFFFF AND SWAP1 PUSH1 0x20 ADD SWAP1 SWAP3 SWAP2 SWAP1 DUP1 CALLDATALOAD SWAP1 PUSH1 0x20 ADD SWAP1 SWAP3 SWAP2 SWAP1 POP POP POP PUSH2 0x22C2 JUMP JUMPDEST PUSH1 0x40 MLOAD DUP1 DUP8 DUP2 MSTORE PUSH1 0x20 ADD DUP7 DUP2 MSTORE PUSH1 0x20 ADD DUP6 DUP2 MSTORE PUSH1 0x20 ADD DUP5 DUP2 MSTORE PUSH1 0x20 ADD DUP4 DUP2 MSTORE PUSH1 0x20 ADD DUP3 DUP2 MSTORE PUSH1 0x20 ADD SWAP7 POP POP POP POP POP POP POP PUSH1 0x40 MLOAD DUP1 SWAP2 SUB SWAP1 RETURN JUMPDEST PUSH2 0x56E PUSH2 0x2509 JUMP JUMPDEST PUSH1 0x40 MLOAD DUP1 DUP1 PUSH1 0x20 ADD DUP3 DUP2 SUB DUP3 MSTORE DUP4 DUP2 DUP2 MLOAD DUP2 MSTORE PUSH1 0x20 ADD SWAP2 POP DUP1 MLOAD SWAP1 PUSH1 0x20 ADD SWAP1 PUSH1 0x20 MUL DUP1 DUP4 DUP4 PUSH1 0x0 JUMPDEST DUP4 DUP2 LT ISZERO PUSH2 0x5B1 JUMPI DUP1 DUP3 ADD MLOAD DUP2 DUP5 ADD MSTORE PUSH1 0x20 DUP2 ADD SWAP1 POP PUSH2 0x596 JUMP JUMPDEST POP POP POP POP SWAP1 POP ADD SWAP3 POP POP POP PUSH1 0x40 MLOAD DUP1 SWAP2 SUB SWAP1 RETURN JUMPDEST PUSH2 0x5F1 PUSH1 0x4 DUP1 CALLDATASIZE SUB PUSH1 0x20 DUP2 LT ISZERO PUSH2 0x5DB JUMPI PUSH1 0x0 DUP1 REVERT JUMPDEST DUP2 ADD SWAP1 DUP1 DUP1 CALLDATALOAD SWAP1 PUSH1 0x20 ADD SWAP1 SWAP3 SWAP2 SWAP1 POP POP POP PUSH2 0x2561 JUMP JUMPDEST PUSH1 0x40 MLOAD DUP1 DUP3 DUP2 MSTORE PUSH1 0x20 ADD SWAP2 POP POP PUSH1 0x40 MLOAD DUP1 SWAP2 SUB SWAP1 RETURN JUMPDEST PUSH2 0x633 PUSH1 0x4 DUP1 CALLDATASIZE SUB PUSH1 0x20 DUP2 LT ISZERO PUSH2 0x61D JUMPI PUSH1 0x0 DUP1 REVERT JUMPDEST DUP2 ADD SWAP1 DUP1 DUP1 CALLDATALOAD SWAP1 PUSH1 0x20 ADD SWAP1 SWAP3 SWAP2 SWAP1 POP POP POP PUSH2 0x2579 JUMP JUMPDEST STOP JUMPDEST PUSH2 0x63D PUSH2 0x277A JUMP JUMPDEST PUSH1 0x40 MLOAD DUP1 DUP3 DUP2 MSTORE PUSH1 0x20 ADD SWAP2 POP POP PUSH1 0x40 MLOAD DUP1 SWAP2 SUB SWAP1 RETURN JUMPDEST PUSH2 0x713 PUSH1 0x4 DUP1 CALLDATASIZE SUB PUSH1 0x40 DUP2 LT ISZERO PUSH2 0x669 JUMPI PUSH1 0x0 DUP1 REVERT JUMPDEST DUP2 ADD SWAP1 DUP1 DUP1 CALLDATALOAD SWAP1 PUSH1 0x20 ADD SWAP1 PUSH5 0x100000000 DUP2 GT ISZERO PUSH2 0x686 JUMPI PUSH1 0x0 DUP1 REVERT JUMPDEST DUP3 ADD DUP4 PUSH1 0x20 DUP3 ADD GT ISZERO PUSH2 0x698 JUMPI PUSH1 0x0 DUP1 REVERT JUMPDEST DUP1 CALLDATALOAD SWAP1 PUSH1 0x20 ADD SWAP2 DUP5 PUSH1 0x20 DUP4 MUL DUP5 ADD GT PUSH5 0x100000000 DUP4 GT OR ISZERO PUSH2 0x6BA JUMPI PUSH1 0x0 DUP1 REVERT JUMPDEST SWAP2 SWAP1 DUP1 DUP1 PUSH1 0x20 MUL PUSH1 0x20 ADD PUSH1 0x40 MLOAD SWAP1 DUP2 ADD PUSH1 0x40 MSTORE DUP1 SWAP4 SWAP3 SWAP2 SWAP1 DUP2 DUP2 MSTORE PUSH1 0x20 ADD DUP4 DUP4 PUSH1 0x20 MUL DUP1 DUP3 DUP5 CALLDATACOPY PUSH1 0x0 DUP2 DUP5 ADD MSTORE PUSH1 0x1F NOT PUSH1 0x1F DUP3 ADD AND SWAP1 POP DUP1 DUP4 ADD SWAP3 POP POP POP POP POP POP POP SWAP2 SWAP3 SWAP2 SWAP3 SWAP1 DUP1 CALLDATALOAD SWAP1 PUSH1 0x20 ADD SWAP1 SWAP3 SWAP2 SWAP1 POP POP POP PUSH2 0x2780 JUMP JUMPDEST STOP JUMPDEST PUSH2 0x85F PUSH1 0x4 DUP1 CALLDATASIZE SUB PUSH1 0x40 DUP2 LT ISZERO PUSH2 0x72B JUMPI PUSH1 0x0 DUP1 REVERT JUMPDEST DUP2 ADD SWAP1 DUP1 DUP1 CALLDATALOAD SWAP1 PUSH1 0x20 ADD SWAP1 PUSH5 0x100000000 DUP2 GT ISZERO PUSH2 0x748 JUMPI PUSH1 0x0 DUP1 REVERT JUMPDEST DUP3 ADD DUP4 PUSH1 0x20 DUP3 ADD GT ISZERO PUSH2 0x75A JUMPI PUSH1 0x0 DUP1 REVERT JUMPDEST DUP1 CALLDATALOAD SWAP1 PUSH1 0x20 ADD SWAP2 DUP5 PUSH1 0x20 DUP4 MUL DUP5 ADD GT PUSH5 0x100000000 DUP4 GT OR ISZERO PUSH2 0x77C JUMPI PUSH1 0x0 DUP1 REVERT JUMPDEST SWAP2 SWAP1 DUP1 DUP1 PUSH1 0x20 MUL PUSH1 0x20 ADD PUSH1 0x40 MLOAD SWAP1 DUP2 ADD PUSH1 0x40 MSTORE DUP1 SWAP4 SWAP3 SWAP2 SWAP1 DUP2 DUP2 MSTORE PUSH1 0x20 ADD DUP4 DUP4 PUSH1 0x20 MUL DUP1 DUP3 DUP5 CALLDATACOPY PUSH1 0x0 DUP2 DUP5 ADD MSTORE PUSH1 0x1F NOT PUSH1 0x1F DUP3 ADD AND SWAP1 POP DUP1 DUP4 ADD SWAP3 POP POP POP POP POP POP POP SWAP2 SWAP3 SWAP2 SWAP3 SWAP1 DUP1 CALLDATALOAD SWAP1 PUSH1 0x20 ADD SWAP1 PUSH5 0x100000000 DUP2 GT ISZERO PUSH2 0x7DC JUMPI PUSH1 0x0 DUP1 REVERT JUMPDEST DUP3 ADD DUP4 PUSH1 0x20 DUP3 ADD GT ISZERO PUSH2 0x7EE JUMPI PUSH1 0x0 DUP1 REVERT JUMPDEST DUP1 CALLDATALOAD SWAP1 PUSH1 0x20 ADD SWAP2 DUP5 PUSH1 0x20 DUP4 MUL DUP5 ADD GT PUSH5 0x100000000 DUP4 GT OR ISZERO PUSH2 0x810 JUMPI PUSH1 0x0 DUP1 REVERT JUMPDEST SWAP2 SWAP1 DUP1 DUP1 PUSH1 0x20 MUL PUSH1 0x20 ADD PUSH1 0x40 MLOAD SWAP1 DUP2 ADD PUSH1 0x40 MSTORE DUP1 SWAP4 SWAP3 SWAP2 SWAP1 DUP2 DUP2 MSTORE PUSH1 0x20 ADD DUP4 DUP4 PUSH1 0x20 MUL DUP1 DUP3 DUP5 CALLDATACOPY PUSH1 0x0 DUP2 DUP5 ADD MSTORE PUSH1 0x1F NOT PUSH1 0x1F DUP3 ADD AND SWAP1 POP DUP1 DUP4 ADD SWAP3 POP POP POP POP POP POP POP SWAP2 SWAP3 SWAP2 SWAP3 SWAP1 POP POP POP PUSH2 0x2939 JUMP JUMPDEST STOP JUMPDEST PUSH2 0x88D PUSH1 0x4 DUP1 CALLDATASIZE SUB PUSH1 0x20 DUP2 LT ISZERO PUSH2 0x877 JUMPI PUSH1 0x0 DUP1 REVERT JUMPDEST DUP2 ADD SWAP1 DUP1 DUP1 CALLDATALOAD SWAP1 PUSH1 0x20 ADD SWAP1 SWAP3 SWAP2 SWAP1 POP POP POP PUSH2 0x2B18 JUMP JUMPDEST PUSH1 0x40 MLOAD DUP1 DUP4 DUP2 MSTORE PUSH1 0x20 ADD DUP3 DUP2 MSTORE PUSH1 0x20 ADD SWAP3 POP POP POP PUSH1 0x40 MLOAD DUP1 SWAP2 SUB SWAP1 RETURN JUMPDEST PUSH2 0x8EC PUSH1 0x4 DUP1 CALLDATASIZE SUB PUSH1 0x20 DUP2 LT ISZERO PUSH2 0x8C0 JUMPI PUSH1 0x0 DUP1 REVERT JUMPDEST DUP2 ADD SWAP1 DUP1 DUP1 CALLDATALOAD PUSH20 0xFFFFFFFFFFFFFFFFFFFFFFFFFFFFFFFFFFFFFFFF AND SWAP1 PUSH1 0x20 ADD SWAP1 SWAP3 SWAP2 SWAP1 POP POP POP PUSH2 0x2B49 JUMP JUMPDEST PUSH1 0x40 MLOAD DUP1 DUP3 DUP2 MSTORE PUSH1 0x20 ADD SWAP2 POP POP PUSH1 0x40 MLOAD DUP1 SWAP2 SUB SWAP1 RETURN JUMPDEST PUSH2 0x938 PUSH1 0x4 DUP1 CALLDATASIZE SUB PUSH1 0x40 DUP2 LT ISZERO PUSH2 0x918 JUMPI PUSH1 0x0 DUP1 REVERT JUMPDEST DUP2 ADD SWAP1 DUP1 DUP1 CALLDATALOAD SWAP1 PUSH1 0x20 ADD SWAP1 SWAP3 SWAP2 SWAP1 DUP1 CALLDATALOAD SWAP1 PUSH1 0x20 ADD SWAP1 SWAP3 SWAP2 SWAP1 POP POP POP PUSH2 0x2B61 JUMP JUMPDEST STOP JUMPDEST PUSH2 0x942 PUSH2 0x2C80 JUMP JUMPDEST PUSH1 0x40 MLOAD DUP1 DUP3 PUSH20 0xFFFFFFFFFFFFFFFFFFFFFFFFFFFFFFFFFFFFFFFF AND PUSH20 0xFFFFFFFFFFFFFFFFFFFFFFFFFFFFFFFFFFFFFFFF AND DUP2 MSTORE PUSH1 0x20 ADD SWAP2 POP POP PUSH1 0x40 MLOAD DUP1 SWAP2 SUB SWAP1 RETURN JUMPDEST PUSH2 0x9E4 PUSH1 0x4 DUP1 CALLDATASIZE SUB PUSH1 0x80 DUP2 LT ISZERO PUSH2 0x99A JUMPI PUSH1 0x0 DUP1 REVERT JUMPDEST DUP2 ADD SWAP1 DUP1 DUP1 CALLDATALOAD PUSH20 0xFFFFFFFFFFFFFFFFFFFFFFFFFFFFFFFFFFFFFFFF AND SWAP1 PUSH1 0x20 ADD SWAP1 SWAP3 SWAP2 SWAP1 DUP1 CALLDATALOAD SWAP1 PUSH1 0x20 ADD SWAP1 SWAP3 SWAP2 SWAP1 DUP1 CALLDATALOAD SWAP1 PUSH1 0x20 ADD SWAP1 SWAP3 SWAP2 SWAP1 DUP1 CALLDATALOAD SWAP1 PUSH1 0x20 ADD SWAP1 SWAP3 SWAP2 SWAP1 POP POP POP PUSH2 0x2CA5 JUMP JUMPDEST PUSH1 0x40 MLOAD DUP1 DUP3 ISZERO ISZERO ISZERO ISZERO DUP2 MSTORE PUSH1 0x20 ADD SWAP2 POP POP PUSH1 0x40 MLOAD DUP1 SWAP2 SUB SWAP1 RETURN JUMPDEST PUSH2 0xA4A PUSH1 0x4 DUP1 CALLDATASIZE SUB PUSH1 0x40 DUP2 LT ISZERO PUSH2 0xA14 JUMPI PUSH1 0x0 DUP1 REVERT JUMPDEST DUP2 ADD SWAP1 DUP1 DUP1 CALLDATALOAD PUSH20 0xFFFFFFFFFFFFFFFFFFFFFFFFFFFFFFFFFFFFFFFF AND SWAP1 PUSH1 0x20 ADD SWAP1 SWAP3 SWAP2 SWAP1 DUP1 CALLDATALOAD SWAP1 PUSH1 0x20 ADD SWAP1 SWAP3 SWAP2 SWAP1 POP POP POP PUSH2 0x2F6A JUMP JUMPDEST PUSH1 0x40 MLOAD DUP1 DUP6 DUP2 MSTORE PUSH1 0x20 ADD DUP5 DUP2 MSTORE PUSH1 0x20 ADD DUP4 DUP2 MSTORE PUSH1 0x20 ADD DUP3 DUP2 MSTORE PUSH1 0x20 ADD SWAP5 POP POP POP POP POP PUSH1 0x40 MLOAD DUP1 SWAP2 SUB SWAP1 RETURN JUMPDEST PUSH2 0xAA1 PUSH1 0x4 DUP1 CALLDATASIZE SUB PUSH1 0x20 DUP2 LT ISZERO PUSH2 0xA8B JUMPI PUSH1 0x0 DUP1 REVERT JUMPDEST DUP2 ADD SWAP1 DUP1 DUP1 CALLDATALOAD SWAP1 PUSH1 0x20 ADD SWAP1 SWAP3 SWAP2 SWAP1 POP POP POP PUSH2 0x2FB4 JUMP JUMPDEST STOP JUMPDEST PUSH2 0xAE5 PUSH1 0x4 DUP1 CALLDATASIZE SUB PUSH1 0x20 DUP2 LT ISZERO PUSH2 0xAB9 JUMPI PUSH1 0x0 DUP1 REVERT JUMPDEST DUP2 ADD SWAP1 DUP1 DUP1 CALLDATALOAD PUSH20 0xFFFFFFFFFFFFFFFFFFFFFFFFFFFFFFFFFFFFFFFF AND SWAP1 PUSH1 0x20 ADD SWAP1 SWAP3 SWAP2 SWAP1 POP POP POP PUSH2 0x3361 JUMP JUMPDEST PUSH1 0x40 MLOAD DUP1 DUP3 DUP2 MSTORE PUSH1 0x20 ADD SWAP2 POP POP PUSH1 0x40 MLOAD DUP1 SWAP2 SUB SWAP1 RETURN JUMPDEST PUSH2 0xBD1 PUSH1 0x4 DUP1 CALLDATASIZE SUB PUSH1 0x40 DUP2 LT ISZERO PUSH2 0xB11 JUMPI PUSH1 0x0 DUP1 REVERT JUMPDEST DUP2 ADD SWAP1 DUP1 DUP1 CALLDATALOAD PUSH20 0xFFFFFFFFFFFFFFFFFFFFFFFFFFFFFFFFFFFFFFFF AND SWAP1 PUSH1 0x20 ADD SWAP1 SWAP3 SWAP2 SWAP1 DUP1 CALLDATALOAD SWAP1 PUSH1 0x20 ADD SWAP1 PUSH5 0x100000000 DUP2 GT ISZERO PUSH2 0xB4E JUMPI PUSH1 0x0 DUP1 REVERT JUMPDEST DUP3 ADD DUP4 PUSH1 0x20 DUP3 ADD GT ISZERO PUSH2 0xB60 JUMPI PUSH1 0x0 DUP1 REVERT JUMPDEST DUP1 CALLDATALOAD SWAP1 PUSH1 0x20 ADD SWAP2 DUP5 PUSH1 0x20 DUP4 MUL DUP5 ADD GT PUSH5 0x100000000 DUP4 GT OR ISZERO PUSH2 0xB82 JUMPI PUSH1 0x0 DUP1 REVERT JUMPDEST SWAP2 SWAP1 DUP1 DUP1 PUSH1 0x20 MUL PUSH1 0x20 ADD PUSH1 0x40 MLOAD SWAP1 DUP2 ADD PUSH1 0x40 MSTORE DUP1 SWAP4 SWAP3 SWAP2 SWAP1 DUP2 DUP2 MSTORE PUSH1 0x20 ADD DUP4 DUP4 PUSH1 0x20 MUL DUP1 DUP3 DUP5 CALLDATACOPY PUSH1 0x0 DUP2 DUP5 ADD MSTORE PUSH1 0x1F NOT PUSH1 0x1F DUP3 ADD AND SWAP1 POP DUP1 DUP4 ADD SWAP3 POP POP POP POP POP POP POP SWAP2 SWAP3 SWAP2 SWAP3 SWAP1 POP POP POP PUSH2 0x33AD JUMP JUMPDEST PUSH1 0x40 MLOAD DUP1 DUP3 DUP2 MSTORE PUSH1 0x20 ADD SWAP2 POP POP PUSH1 0x40 MLOAD DUP1 SWAP2 SUB SWAP1 RETURN JUMPDEST PUSH2 0xC1D PUSH1 0x4 DUP1 CALLDATASIZE SUB PUSH1 0x40 DUP2 LT ISZERO PUSH2 0xBFD JUMPI PUSH1 0x0 DUP1 REVERT JUMPDEST DUP2 ADD SWAP1 DUP1 DUP1 CALLDATALOAD SWAP1 PUSH1 0x20 ADD SWAP1 SWAP3 SWAP2 SWAP1 DUP1 CALLDATALOAD SWAP1 PUSH1 0x20 ADD SWAP1 SWAP3 SWAP2 SWAP1 POP POP POP PUSH2 0x3550 JUMP JUMPDEST STOP JUMPDEST PUSH2 0xC4B PUSH1 0x4 DUP1 CALLDATASIZE SUB PUSH1 0x20 DUP2 LT ISZERO PUSH2 0xC35 JUMPI PUSH1 0x0 DUP1 REVERT JUMPDEST DUP2 ADD SWAP1 DUP1 DUP1 CALLDATALOAD SWAP1 PUSH1 0x20 ADD SWAP1 SWAP3 SWAP2 SWAP1 POP POP POP PUSH2 0x366F JUMP JUMPDEST PUSH1 0x40 MLOAD DUP1 DUP4 DUP2 MSTORE PUSH1 0x20 ADD DUP3 DUP2 MSTORE PUSH1 0x20 ADD SWAP3 POP POP POP PUSH1 0x40 MLOAD DUP1 SWAP2 SUB SWAP1 RETURN JUMPDEST PUSH2 0xD32 PUSH1 0x4 DUP1 CALLDATASIZE SUB PUSH1 0x60 DUP2 LT ISZERO PUSH2 0xC7E JUMPI PUSH1 0x0 DUP1 REVERT JUMPDEST DUP2 ADD SWAP1 DUP1 DUP1 CALLDATALOAD SWAP1 PUSH1 0x20 ADD SWAP1 SWAP3 SWAP2 SWAP1 DUP1 CALLDATALOAD SWAP1 PUSH1 0x20 ADD SWAP1 SWAP3 SWAP2 SWAP1 DUP1 CALLDATALOAD SWAP1 PUSH1 0x20 ADD SWAP1 PUSH5 0x100000000 DUP2 GT ISZERO PUSH2 0xCAF JUMPI PUSH1 0x0 DUP1 REVERT JUMPDEST DUP3 ADD DUP4 PUSH1 0x20 DUP3 ADD GT ISZERO PUSH2 0xCC1 JUMPI PUSH1 0x0 DUP1 REVERT JUMPDEST DUP1 CALLDATALOAD SWAP1 PUSH1 0x20 ADD SWAP2 DUP5 PUSH1 0x20 DUP4 MUL DUP5 ADD GT PUSH5 0x100000000 DUP4 GT OR ISZERO PUSH2 0xCE3 JUMPI PUSH1 0x0 DUP1 REVERT JUMPDEST SWAP2 SWAP1 DUP1 DUP1 PUSH1 0x20 MUL PUSH1 0x20 ADD PUSH1 0x40 MLOAD SWAP1 DUP2 ADD PUSH1 0x40 MSTORE DUP1 SWAP4 SWAP3 SWAP2 SWAP1 DUP2 DUP2 MSTORE PUSH1 0x20 ADD DUP4 DUP4 PUSH1 0x20 MUL DUP1 DUP3 DUP5 CALLDATACOPY PUSH1 0x0 DUP2 DUP5 ADD MSTORE PUSH1 0x1F NOT PUSH1 0x1F DUP3 ADD AND SWAP1 POP DUP1 DUP4 ADD SWAP3 POP POP POP POP POP POP POP SWAP2 SWAP3 SWAP2 SWAP3 SWAP1 POP POP POP PUSH2 0x36A0 JUMP JUMPDEST STOP JUMPDEST PUSH2 0xD60 PUSH1 0x4 DUP1 CALLDATASIZE SUB PUSH1 0x20 DUP2 LT ISZERO PUSH2 0xD4A JUMPI PUSH1 0x0 DUP1 REVERT JUMPDEST DUP2 ADD SWAP1 DUP1 DUP1 CALLDATALOAD SWAP1 PUSH1 0x20 ADD SWAP1 SWAP3 SWAP2 SWAP1 POP POP POP PUSH2 0x40AD JUMP JUMPDEST STOP JUMPDEST PUSH2 0xD6A PUSH2 0x440B JUMP JUMPDEST PUSH1 0x40 MLOAD DUP1 DUP3 DUP2 MSTORE PUSH1 0x20 ADD SWAP2 POP POP PUSH1 0x40 MLOAD DUP1 SWAP2 SUB SWAP1 RETURN JUMPDEST PUSH2 0xDAC PUSH1 0x4 DUP1 CALLDATASIZE SUB PUSH1 0x20 DUP2 LT ISZERO PUSH2 0xD96 JUMPI PUSH1 0x0 DUP1 REVERT JUMPDEST DUP2 ADD SWAP1 DUP1 DUP1 CALLDATALOAD SWAP1 PUSH1 0x20 ADD SWAP1 SWAP3 SWAP2 SWAP1 POP POP POP PUSH2 0x441B JUMP JUMPDEST STOP JUMPDEST PUSH2 0xDE4 PUSH1 0x4 DUP1 CALLDATASIZE SUB PUSH1 0x40 DUP2 LT ISZERO PUSH2 0xDC4 JUMPI PUSH1 0x0 DUP1 REVERT JUMPDEST DUP2 ADD SWAP1 DUP1 DUP1 CALLDATALOAD SWAP1 PUSH1 0x20 ADD SWAP1 SWAP3 SWAP2 SWAP1 DUP1 CALLDATALOAD SWAP1 PUSH1 0x20 ADD SWAP1 SWAP3 SWAP2 SWAP1 POP POP POP PUSH2 0x4AB5 JUMP JUMPDEST STOP JUMPDEST PUSH2 0xDEE PUSH2 0x4EC8 JUMP JUMPDEST PUSH1 0x40 MLOAD DUP1 DUP3 DUP2 MSTORE PUSH1 0x20 ADD SWAP2 POP POP PUSH1 0x40 MLOAD DUP1 SWAP2 SUB SWAP1 RETURN JUMPDEST PUSH2 0xE30 PUSH1 0x4 DUP1 CALLDATASIZE SUB PUSH1 0x20 DUP2 LT ISZERO PUSH2 0xE1A JUMPI PUSH1 0x0 DUP1 REVERT JUMPDEST DUP2 ADD SWAP1 DUP1 DUP1 CALLDATALOAD SWAP1 PUSH1 0x20 ADD SWAP1 SWAP3 SWAP2 SWAP1 POP POP POP PUSH2 0x4ECE JUMP JUMPDEST STOP JUMPDEST PUSH2 0xEE8 PUSH1 0x4 DUP1 CALLDATASIZE SUB PUSH1 0x20 DUP2 LT ISZERO PUSH2 0xE48 JUMPI PUSH1 0x0 DUP1 REVERT JUMPDEST DUP2 ADD SWAP1 DUP1 DUP1 CALLDATALOAD SWAP1 PUSH1 0x20 ADD SWAP1 PUSH5 0x100000000 DUP2 GT ISZERO PUSH2 0xE65 JUMPI PUSH1 0x0 DUP1 REVERT JUMPDEST DUP3 ADD DUP4 PUSH1 0x20 DUP3 ADD GT ISZERO PUSH2 0xE77 JUMPI PUSH1 0x0 DUP1 REVERT JUMPDEST DUP1 CALLDATALOAD SWAP1 PUSH1 0x20 ADD SWAP2 DUP5 PUSH1 0x20 DUP4 MUL DUP5 ADD GT PUSH5 0x100000000 DUP4 GT OR ISZERO PUSH2 0xE99 JUMPI PUSH1 0x0 DUP1 REVERT JUMPDEST SWAP2 SWAP1 DUP1 DUP1 PUSH1 0x20 MUL PUSH1 0x20 ADD PUSH1 0x40 MLOAD SWAP1 DUP2 ADD PUSH1 0x40 MSTORE DUP1 SWAP4 SWAP3 SWAP2 SWAP1 DUP2 DUP2 MSTORE PUSH1 0x20 ADD DUP4 DUP4 PUSH1 0x20 MUL DUP1 DUP3 DUP5 CALLDATACOPY PUSH1 0x0 DUP2 DUP5 ADD MSTORE PUSH1 0x1F NOT PUSH1 0x1F DUP3 ADD AND SWAP1 POP DUP1 DUP4 ADD SWAP3 POP POP POP POP POP POP POP SWAP2 SWAP3 SWAP2 SWAP3 SWAP1 POP POP POP PUSH2 0x4FC0 JUMP JUMPDEST STOP JUMPDEST PUSH2 0xF36 PUSH1 0x4 DUP1 CALLDATASIZE SUB PUSH1 0x40 DUP2 LT ISZERO PUSH2 0xF00 JUMPI PUSH1 0x0 DUP1 REVERT JUMPDEST DUP2 ADD SWAP1 DUP1 DUP1 CALLDATALOAD PUSH20 0xFFFFFFFFFFFFFFFFFFFFFFFFFFFFFFFFFFFFFFFF AND SWAP1 PUSH1 0x20 ADD SWAP1 SWAP3 SWAP2 SWAP1 DUP1 CALLDATALOAD SWAP1 PUSH1 0x20 ADD SWAP1 SWAP3 SWAP2 SWAP1 POP POP POP PUSH2 0x537F JUMP JUMPDEST PUSH1 0x40 MLOAD DUP1 DUP3 DUP2 MSTORE PUSH1 0x20 ADD SWAP2 POP POP PUSH1 0x40 MLOAD DUP1 SWAP2 SUB SWAP1 RETURN JUMPDEST PUSH2 0xF54 PUSH2 0x5479 JUMP JUMPDEST PUSH1 0x40 MLOAD DUP1 DUP3 PUSH20 0xFFFFFFFFFFFFFFFFFFFFFFFFFFFFFFFFFFFFFFFF AND PUSH20 0xFFFFFFFFFFFFFFFFFFFFFFFFFFFFFFFFFFFFFFFF AND DUP2 MSTORE PUSH1 0x20 ADD SWAP2 POP POP PUSH1 0x40 MLOAD DUP1 SWAP2 SUB SWAP1 RETURN JUMPDEST PUSH1 0xB SLOAD DUP2 JUMP JUMPDEST PUSH1 0x2 PUSH1 0x0 SWAP1 SLOAD SWAP1 PUSH2 0x100 EXP SWAP1 DIV PUSH20 0xFFFFFFFFFFFFFFFFFFFFFFFFFFFFFFFFFFFFFFFF AND DUP2 JUMP JUMPDEST PUSH1 0x8 PUSH1 0x20 MSTORE DUP2 PUSH1 0x0 MSTORE PUSH1 0x40 PUSH1 0x0 KECCAK256 DUP2 DUP2 SLOAD DUP2 LT PUSH2 0xFDB JUMPI INVALID JUMPDEST SWAP1 PUSH1 0x0 MSTORE PUSH1 0x20 PUSH1 0x0 KECCAK256 SWAP1 PUSH1 0x9 MUL ADD PUSH1 0x0 SWAP2 POP SWAP2 POP POP DUP1 PUSH1 0x0 ADD SLOAD SWAP1 DUP1 PUSH1 0x1 ADD SLOAD SWAP1 DUP1 PUSH1 0x2 ADD SLOAD SWAP1 DUP1 PUSH1 0x3 ADD SLOAD SWAP1 DUP1 PUSH1 0x4 ADD SLOAD SWAP1 DUP1 PUSH1 0x5 ADD SLOAD SWAP1 DUP1 PUSH1 0x7 ADD SLOAD SWAP1 DUP1 PUSH1 0x8 ADD SLOAD SWAP1 POP DUP9 JUMP JUMPDEST PUSH1 0x4 PUSH1 0x8 PUSH1 0x0 CALLER PUSH20 0xFFFFFFFFFFFFFFFFFFFFFFFFFFFFFFFFFFFFFFFF AND PUSH20 0xFFFFFFFFFFFFFFFFFFFFFFFFFFFFFFFFFFFFFFFF AND DUP2 MSTORE PUSH1 0x20 ADD SWAP1 DUP2 MSTORE PUSH1 0x20 ADD PUSH1 0x0 KECCAK256 DUP3 DUP2 SLOAD DUP2 LT PUSH2 0x1070 JUMPI INVALID JUMPDEST SWAP1 PUSH1 0x0 MSTORE PUSH1 0x20 PUSH1 0x0 KECCAK256 SWAP1 PUSH1 0x9 MUL ADD PUSH1 0x3 ADD SLOAD EQ PUSH2 0x10F5 JUMPI PUSH1 0x40 MLOAD PUSH32 0x8C379A000000000000000000000000000000000000000000000000000000000 DUP2 MSTORE PUSH1 0x4 ADD DUP1 DUP1 PUSH1 0x20 ADD DUP3 DUP2 SUB DUP3 MSTORE PUSH1 0x19 DUP2 MSTORE PUSH1 0x20 ADD DUP1 PUSH32 0x7374616B696E67206D7573742062652063616E63656C6C656400000000000000 DUP2 MSTORE POP PUSH1 0x20 ADD SWAP2 POP POP PUSH1 0x40 MLOAD DUP1 SWAP2 SUB SWAP1 REVERT JUMPDEST PUSH1 0x0 PUSH1 0x8 PUSH1 0x0 CALLER PUSH20 0xFFFFFFFFFFFFFFFFFFFFFFFFFFFFFFFFFFFFFFFF AND PUSH20 0xFFFFFFFFFFFFFFFFFFFFFFFFFFFFFFFFFFFFFFFF AND DUP2 MSTORE PUSH1 0x20 ADD SWAP1 DUP2 MSTORE PUSH1 0x20 ADD PUSH1 0x0 KECCAK256 DUP3 DUP2 SLOAD DUP2 LT PUSH2 0x1141 JUMPI INVALID JUMPDEST SWAP1 PUSH1 0x0 MSTORE PUSH1 0x20 PUSH1 0x0 KECCAK256 SWAP1 PUSH1 0x9 MUL ADD PUSH1 0x8 ADD SLOAD GT PUSH2 0x11C6 JUMPI PUSH1 0x40 MLOAD PUSH32 0x8C379A000000000000000000000000000000000000000000000000000000000 DUP2 MSTORE PUSH1 0x4 ADD DUP1 DUP1 PUSH1 0x20 ADD DUP3 DUP2 SUB DUP3 MSTORE PUSH1 0x17 DUP2 MSTORE PUSH1 0x20 ADD DUP1 PUSH32 0x616C6C20726566756E64732061726520636C61696D6564000000000000000000 DUP2 MSTORE POP PUSH1 0x20 ADD SWAP2 POP POP PUSH1 0x40 MLOAD DUP1 SWAP2 SUB SWAP1 REVERT JUMPDEST PUSH1 0x0 PUSH2 0x11D0 PUSH2 0x440B JUMP JUMPDEST SWAP1 POP PUSH1 0x0 PUSH2 0x1242 PUSH1 0x8 PUSH1 0x0 CALLER PUSH20 0xFFFFFFFFFFFFFFFFFFFFFFFFFFFFFFFFFFFFFFFF AND PUSH20 0xFFFFFFFFFFFFFFFFFFFFFFFFFFFFFFFFFFFFFFFF AND DUP2 MSTORE PUSH1 0x20 ADD SWAP1 DUP2 MSTORE PUSH1 0x20 ADD PUSH1 0x0 KECCAK256 DUP5 DUP2 SLOAD DUP2 LT PUSH2 0x1221 JUMPI INVALID JUMPDEST SWAP1 PUSH1 0x0 MSTORE PUSH1 0x20 PUSH1 0x0 KECCAK256 SWAP1 PUSH1 0x9 MUL ADD PUSH1 0x7 ADD SLOAD DUP4 PUSH2 0x549F SWAP1 SWAP2 SWAP1 PUSH4 0xFFFFFFFF AND JUMP JUMPDEST SWAP1 POP PUSH1 0x8 PUSH1 0x0 CALLER PUSH20 0xFFFFFFFFFFFFFFFFFFFFFFFFFFFFFFFFFFFFFFFF AND PUSH20 0xFFFFFFFFFFFFFFFFFFFFFFFFFFFFFFFFFFFFFFFF AND DUP2 MSTORE PUSH1 0x20 ADD SWAP1 DUP2 MSTORE PUSH1 0x20 ADD PUSH1 0x0 KECCAK256 DUP4 DUP2 SLOAD DUP2 LT PUSH2 0x128E JUMPI INVALID JUMPDEST SWAP1 PUSH1 0x0 MSTORE PUSH1 0x20 PUSH1 0x0 KECCAK256 SWAP1 PUSH1 0x9 MUL ADD PUSH1 0x8 ADD SLOAD DUP2 GT ISZERO PUSH2 0x1306 JUMPI PUSH1 0x8 PUSH1 0x0 CALLER PUSH20 0xFFFFFFFFFFFFFFFFFFFFFFFFFFFFFFFFFFFFFFFF AND PUSH20 0xFFFFFFFFFFFFFFFFFFFFFFFFFFFFFFFFFFFFFFFF AND DUP2 MSTORE PUSH1 0x20 ADD SWAP1 DUP2 MSTORE PUSH1 0x20 ADD PUSH1 0x0 KECCAK256 DUP4 DUP2 SLOAD DUP2 LT PUSH2 0x12F1 JUMPI INVALID JUMPDEST SWAP1 PUSH1 0x0 MSTORE PUSH1 0x20 PUSH1 0x0 KECCAK256 SWAP1 PUSH1 0x9 MUL ADD PUSH1 0x8 ADD SLOAD SWAP1 POP JUMPDEST PUSH1 0x0 PUSH2 0x1389 PUSH1 0x18 PUSH2 0x137B DUP5 PUSH1 0x8 PUSH1 0x0 CALLER PUSH20 0xFFFFFFFFFFFFFFFFFFFFFFFFFFFFFFFFFFFFFFFF AND PUSH20 0xFFFFFFFFFFFFFFFFFFFFFFFFFFFFFFFFFFFFFFFF AND DUP2 MSTORE PUSH1 0x20 ADD SWAP1 DUP2 MSTORE PUSH1 0x20 ADD PUSH1 0x0 KECCAK256 DUP9 DUP2 SLOAD DUP2 LT PUSH2 0x135B JUMPI INVALID JUMPDEST SWAP1 PUSH1 0x0 MSTORE PUSH1 0x20 PUSH1 0x0 KECCAK256 SWAP1 PUSH1 0x9 MUL ADD PUSH1 0x0 ADD SLOAD PUSH2 0x54BF SWAP1 SWAP2 SWAP1 PUSH4 0xFFFFFFFF AND JUMP JUMPDEST PUSH2 0x54F9 SWAP1 SWAP2 SWAP1 PUSH4 0xFFFFFFFF AND JUMP JUMPDEST SWAP1 POP PUSH2 0x1393 PUSH2 0x440B JUMP JUMPDEST PUSH1 0x8 PUSH1 0x0 CALLER PUSH20 0xFFFFFFFFFFFFFFFFFFFFFFFFFFFFFFFFFFFFFFFF AND PUSH20 0xFFFFFFFFFFFFFFFFFFFFFFFFFFFFFFFFFFFFFFFF AND DUP2 MSTORE PUSH1 0x20 ADD SWAP1 DUP2 MSTORE PUSH1 0x20 ADD PUSH1 0x0 KECCAK256 DUP6 DUP2 SLOAD DUP2 LT PUSH2 0x13DD JUMPI INVALID JUMPDEST SWAP1 PUSH1 0x0 MSTORE PUSH1 0x20 PUSH1 0x0 KECCAK256 SWAP1 PUSH1 0x9 MUL ADD PUSH1 0x7 ADD DUP2 SWAP1 SSTORE POP PUSH2 0x1460 DUP3 PUSH1 0x8 PUSH1 0x0 CALLER PUSH20 0xFFFFFFFFFFFFFFFFFFFFFFFFFFFFFFFFFFFFFFFF AND PUSH20 0xFFFFFFFFFFFFFFFFFFFFFFFFFFFFFFFFFFFFFFFF AND DUP2 MSTORE PUSH1 0x20 ADD SWAP1 DUP2 MSTORE PUSH1 0x20 ADD PUSH1 0x0 KECCAK256 DUP7 DUP2 SLOAD DUP2 LT PUSH2 0x1440 JUMPI INVALID JUMPDEST SWAP1 PUSH1 0x0 MSTORE PUSH1 0x20 PUSH1 0x0 KECCAK256 SWAP1 PUSH1 0x9 MUL ADD PUSH1 0x8 ADD SLOAD PUSH2 0x549F SWAP1 SWAP2 SWAP1 PUSH4 0xFFFFFFFF AND JUMP JUMPDEST PUSH1 0x8 PUSH1 0x0 CALLER PUSH20 0xFFFFFFFFFFFFFFFFFFFFFFFFFFFFFFFFFFFFFFFF AND PUSH20 0xFFFFFFFFFFFFFFFFFFFFFFFFFFFFFFFFFFFFFFFF AND DUP2 MSTORE PUSH1 0x20 ADD SWAP1 DUP2 MSTORE PUSH1 0x20 ADD PUSH1 0x0 KECCAK256 DUP6 DUP2 SLOAD DUP2 LT PUSH2 0x14AA JUMPI INVALID JUMPDEST SWAP1 PUSH1 0x0 MSTORE PUSH1 0x20 PUSH1 0x0 KECCAK256 SWAP1 PUSH1 0x9 MUL ADD PUSH1 0x8 ADD DUP2 SWAP1 SSTORE POP PUSH1 0x1 PUSH1 0x0 SWAP1 SLOAD SWAP1 PUSH2 0x100 EXP SWAP1 DIV PUSH20 0xFFFFFFFFFFFFFFFFFFFFFFFFFFFFFFFFFFFFFFFF AND PUSH20 0xFFFFFFFFFFFFFFFFFFFFFFFFFFFFFFFFFFFFFFFF AND PUSH4 0xA9059CBB CALLER DUP4 PUSH1 0x40 MLOAD DUP4 PUSH4 0xFFFFFFFF AND PUSH1 0xE0 SHL DUP2 MSTORE PUSH1 0x4 ADD DUP1 DUP4 PUSH20 0xFFFFFFFFFFFFFFFFFFFFFFFFFFFFFFFFFFFFFFFF AND PUSH20 0xFFFFFFFFFFFFFFFFFFFFFFFFFFFFFFFFFFFFFFFF AND DUP2 MSTORE PUSH1 0x20 ADD DUP3 DUP2 MSTORE PUSH1 0x20 ADD SWAP3 POP POP POP PUSH1 0x20 PUSH1 0x40 MLOAD DUP1 DUP4 SUB DUP2 PUSH1 0x0 DUP8 DUP1 EXTCODESIZE ISZERO DUP1 ISZERO PUSH2 0x1568 JUMPI PUSH1 0x0 DUP1 REVERT JUMPDEST POP GAS CALL ISZERO DUP1 ISZERO PUSH2 0x157C JUMPI RETURNDATASIZE PUSH1 0x0 DUP1 RETURNDATACOPY RETURNDATASIZE PUSH1 0x0 REVERT JUMPDEST POP POP POP POP PUSH1 0x40 MLOAD RETURNDATASIZE PUSH1 0x20 DUP2 LT ISZERO PUSH2 0x1592 JUMPI PUSH1 0x0 DUP1 REVERT JUMPDEST DUP2 ADD SWAP1 DUP1 DUP1 MLOAD SWAP1 PUSH1 0x20 ADD SWAP1 SWAP3 SWAP2 SWAP1 POP POP POP POP POP POP POP POP JUMP JUMPDEST PUSH1 0x5 DUP2 DUP2 SLOAD DUP2 LT PUSH2 0x15B7 JUMPI INVALID JUMPDEST SWAP1 PUSH1 0x0 MSTORE PUSH1 0x20 PUSH1 0x0 KECCAK256 ADD PUSH1 0x0 SWAP2 POP SWAP1 POP SLOAD DUP2 JUMP JUMPDEST PUSH1 0x0 DUP1 PUSH2 0x15D6 PUSH2 0x440B JUMP JUMPDEST SWAP1 POP DUP1 DUP4 GT ISZERO PUSH2 0x164E JUMPI PUSH1 0x40 MLOAD PUSH32 0x8C379A000000000000000000000000000000000000000000000000000000000 DUP2 MSTORE PUSH1 0x4 ADD DUP1 DUP1 PUSH1 0x20 ADD DUP3 DUP2 SUB DUP3 MSTORE PUSH1 0x1A DUP2 MSTORE PUSH1 0x20 ADD DUP1 PUSH32 0x63616E6E6F742073656520667574757265207374616B696E6773000000000000 DUP2 MSTORE POP PUSH1 0x20 ADD SWAP2 POP POP PUSH1 0x40 MLOAD DUP1 SWAP2 SUB SWAP1 REVERT JUMPDEST PUSH1 0x0 PUSH1 0xA PUSH1 0x0 DUP6 DUP2 MSTORE PUSH1 0x20 ADD SWAP1 DUP2 MSTORE PUSH1 0x20 ADD PUSH1 0x0 KECCAK256 SLOAD EQ ISZERO PUSH2 0x1674 JUMPI PUSH1 0x0 SWAP2 POP POP PUSH2 0x18F6 JUMP JUMPDEST PUSH1 0x0 DUP1 PUSH1 0x0 SWAP1 POP JUMPDEST PUSH1 0x8 PUSH1 0x0 DUP8 PUSH20 0xFFFFFFFFFFFFFFFFFFFFFFFFFFFFFFFFFFFFFFFF AND PUSH20 0xFFFFFFFFFFFFFFFFFFFFFFFFFFFFFFFFFFFFFFFF AND DUP2 MSTORE PUSH1 0x20 ADD SWAP1 DUP2 MSTORE PUSH1 0x20 ADD PUSH1 0x0 KECCAK256 DUP1 SLOAD SWAP1 POP DUP2 LT ISZERO PUSH2 0x18A1 JUMPI PUSH2 0x16CE PUSH2 0x553E JUMP JUMPDEST PUSH1 0x6 PUSH1 0x8 PUSH1 0x0 DUP10 PUSH20 0xFFFFFFFFFFFFFFFFFFFFFFFFFFFFFFFFFFFFFFFF AND PUSH20 0xFFFFFFFFFFFFFFFFFFFFFFFFFFFFFFFFFFFFFFFF AND DUP2 MSTORE PUSH1 0x20 ADD SWAP1 DUP2 MSTORE PUSH1 0x20 ADD PUSH1 0x0 KECCAK256 DUP4 DUP2 SLOAD DUP2 LT PUSH2 0x171A JUMPI INVALID JUMPDEST SWAP1 PUSH1 0x0 MSTORE PUSH1 0x20 PUSH1 0x0 KECCAK256 SWAP1 PUSH1 0x9 MUL ADD PUSH1 0x2 ADD SLOAD DUP2 SLOAD DUP2 LT PUSH2 0x1736 JUMPI INVALID JUMPDEST SWAP1 PUSH1 0x0 MSTORE PUSH1 0x20 PUSH1 0x0 KECCAK256 SWAP1 PUSH1 0x2 MUL ADD PUSH1 0x40 MLOAD DUP1 PUSH1 0x40 ADD PUSH1 0x40 MSTORE SWAP1 DUP2 PUSH1 0x0 DUP3 ADD SLOAD DUP2 MSTORE PUSH1 0x20 ADD PUSH1 0x1 DUP3 ADD SLOAD DUP2 MSTORE POP POP SWAP1 POP PUSH2 0x1771 DUP8 DUP4 DUP7 DUP10 PUSH2 0x2CA5 JUMP JUMPDEST DUP1 ISZERO PUSH2 0x17F4 JUMPI POP PUSH1 0x8 PUSH1 0x0 DUP9 PUSH20 0xFFFFFFFFFFFFFFFFFFFFFFFFFFFFFFFFFFFFFFFF AND PUSH20 0xFFFFFFFFFFFFFFFFFFFFFFFFFFFFFFFFFFFFFFFF AND DUP2 MSTORE PUSH1 0x20 ADD SWAP1 DUP2 MSTORE PUSH1 0x20 ADD PUSH1 0x0 KECCAK256 DUP3 DUP2 SLOAD DUP2 LT PUSH2 0x17C2 JUMPI INVALID JUMPDEST SWAP1 PUSH1 0x0 MSTORE PUSH1 0x20 PUSH1 0x0 KECCAK256 SWAP1 PUSH1 0x9 MUL ADD PUSH1 0x6 ADD PUSH1 0x0 DUP8 DUP2 MSTORE PUSH1 0x20 ADD SWAP1 DUP2 MSTORE PUSH1 0x20 ADD PUSH1 0x0 KECCAK256 PUSH1 0x0 SWAP1 SLOAD SWAP1 PUSH2 0x100 EXP SWAP1 DIV PUSH1 0xFF AND ISZERO JUMPDEST ISZERO PUSH2 0x1893 JUMPI PUSH2 0x1890 PUSH2 0x1881 PUSH1 0xF PUSH2 0x1873 DUP5 PUSH1 0x20 ADD MLOAD PUSH1 0x8 PUSH1 0x0 DUP14 PUSH20 0xFFFFFFFFFFFFFFFFFFFFFFFFFFFFFFFFFFFFFFFF AND PUSH20 0xFFFFFFFFFFFFFFFFFFFFFFFFFFFFFFFFFFFFFFFF AND DUP2 MSTORE PUSH1 0x20 ADD SWAP1 DUP2 MSTORE PUSH1 0x20 ADD PUSH1 0x0 KECCAK256 DUP8 DUP2 SLOAD DUP2 LT PUSH2 0x1853 JUMPI INVALID JUMPDEST SWAP1 PUSH1 0x0 MSTORE PUSH1 0x20 PUSH1 0x0 KECCAK256 SWAP1 PUSH1 0x9 MUL ADD PUSH1 0x0 ADD SLOAD PUSH2 0x54BF SWAP1 SWAP2 SWAP1 PUSH4 0xFFFFFFFF AND JUMP JUMPDEST PUSH2 0x54F9 SWAP1 SWAP2 SWAP1 PUSH4 0xFFFFFFFF AND JUMP JUMPDEST DUP5 PUSH2 0x551F SWAP1 SWAP2 SWAP1 PUSH4 0xFFFFFFFF AND JUMP JUMPDEST SWAP3 POP JUMPDEST POP DUP1 DUP1 PUSH1 0x1 ADD SWAP2 POP POP PUSH2 0x167C JUMP JUMPDEST POP PUSH2 0x18F1 PUSH1 0xA PUSH1 0x0 DUP7 DUP2 MSTORE PUSH1 0x20 ADD SWAP1 DUP2 MSTORE PUSH1 0x20 ADD PUSH1 0x0 KECCAK256 SLOAD PUSH2 0x18E3 PUSH1 0x5 DUP8 DUP2 SLOAD DUP2 LT PUSH2 0x18C9 JUMPI INVALID JUMPDEST SWAP1 PUSH1 0x0 MSTORE PUSH1 0x20 PUSH1 0x0 KECCAK256 ADD SLOAD DUP5 PUSH2 0x54BF SWAP1 SWAP2 SWAP1 PUSH4 0xFFFFFFFF AND JUMP JUMPDEST PUSH2 0x54F9 SWAP1 SWAP2 SWAP1 PUSH4 0xFFFFFFFF AND JUMP JUMPDEST SWAP3 POP POP POP JUMPDEST SWAP3 SWAP2 POP POP JUMP JUMPDEST PUSH1 0x0 PUSH2 0x1906 PUSH2 0x440B JUMP JUMPDEST SWAP1 POP DUP5 DUP2 LT ISZERO PUSH2 0x197E JUMPI PUSH1 0x40 MLOAD PUSH32 0x8C379A000000000000000000000000000000000000000000000000000000000 DUP2 MSTORE PUSH1 0x4 ADD DUP1 DUP1 PUSH1 0x20 ADD DUP3 DUP2 SUB DUP3 MSTORE PUSH1 0x1F DUP2 MSTORE PUSH1 0x20 ADD DUP1 PUSH32 0x63616E6E6F7420776974686472617720667574757265207374616B696E677300 DUP2 MSTORE POP PUSH1 0x20 ADD SWAP2 POP POP PUSH1 0x40 MLOAD DUP1 SWAP2 SUB SWAP1 REVERT JUMPDEST PUSH1 0x0 PUSH1 0xA PUSH1 0x0 DUP8 DUP2 MSTORE PUSH1 0x20 ADD SWAP1 DUP2 MSTORE PUSH1 0x20 ADD PUSH1 0x0 KECCAK256 SLOAD EQ ISZERO PUSH2 0x19F2 JUMPI PUSH1 0x0 PUSH2 0x19F1 JUMPI PUSH1 0x40 MLOAD PUSH32 0x8C379A000000000000000000000000000000000000000000000000000000000 DUP2 MSTORE PUSH1 0x4 ADD DUP1 DUP1 PUSH1 0x20 ADD DUP3 DUP2 SUB DUP3 MSTORE PUSH1 0x28 DUP2 MSTORE PUSH1 0x20 ADD DUP1 PUSH2 0x5679 PUSH1 0x28 SWAP2 CODECOPY PUSH1 0x40 ADD SWAP2 POP POP PUSH1 0x40 MLOAD DUP1 SWAP2 SUB SWAP1 REVERT JUMPDEST JUMPDEST PUSH1 0x32 DUP5 LT ISZERO PUSH2 0x1A4C JUMPI PUSH1 0x40 MLOAD PUSH32 0x8C379A000000000000000000000000000000000000000000000000000000000 DUP2 MSTORE PUSH1 0x4 ADD DUP1 DUP1 PUSH1 0x20 ADD DUP3 DUP2 SUB DUP3 MSTORE PUSH1 0x27 DUP2 MSTORE PUSH1 0x20 ADD DUP1 PUSH2 0x55F1 PUSH1 0x27 SWAP2 CODECOPY PUSH1 0x40 ADD SWAP2 POP POP PUSH1 0x40 MLOAD DUP1 SWAP2 SUB SWAP1 REVERT JUMPDEST PUSH1 0x0 DUP1 PUSH1 0x0 DUP1 SWAP1 POP JUMPDEST PUSH1 0x8 PUSH1 0x0 CALLER PUSH20 0xFFFFFFFFFFFFFFFFFFFFFFFFFFFFFFFFFFFFFFFF AND PUSH20 0xFFFFFFFFFFFFFFFFFFFFFFFFFFFFFFFFFFFFFFFF AND DUP2 MSTORE PUSH1 0x20 ADD SWAP1 DUP2 MSTORE PUSH1 0x20 ADD PUSH1 0x0 KECCAK256 DUP1 SLOAD SWAP1 POP DUP2 LT ISZERO PUSH2 0x1E6C JUMPI PUSH2 0x1AA7 PUSH2 0x553E JUMP JUMPDEST PUSH1 0x6 PUSH1 0x8 PUSH1 0x0 CALLER PUSH20 0xFFFFFFFFFFFFFFFFFFFFFFFFFFFFFFFFFFFFFFFF AND PUSH20 0xFFFFFFFFFFFFFFFFFFFFFFFFFFFFFFFFFFFFFFFF AND DUP2 MSTORE PUSH1 0x20 ADD SWAP1 DUP2 MSTORE PUSH1 0x20 ADD PUSH1 0x0 KECCAK256 DUP4 DUP2 SLOAD DUP2 LT PUSH2 0x1AF3 JUMPI INVALID JUMPDEST SWAP1 PUSH1 0x0 MSTORE PUSH1 0x20 PUSH1 0x0 KECCAK256 SWAP1 PUSH1 0x9 MUL ADD PUSH1 0x2 ADD SLOAD DUP2 SLOAD DUP2 LT PUSH2 0x1B0F JUMPI INVALID JUMPDEST SWAP1 PUSH1 0x0 MSTORE PUSH1 0x20 PUSH1 0x0 KECCAK256 SWAP1 PUSH1 0x2 MUL ADD PUSH1 0x40 MLOAD DUP1 PUSH1 0x40 ADD PUSH1 0x40 MSTORE SWAP1 DUP2 PUSH1 0x0 DUP3 ADD SLOAD DUP2 MSTORE PUSH1 0x20 ADD PUSH1 0x1 DUP3 ADD SLOAD DUP2 MSTORE POP POP SWAP1 POP PUSH2 0x1B4A CALLER DUP4 DUP8 DUP13 PUSH2 0x2CA5 JUMP JUMPDEST DUP1 ISZERO PUSH2 0x1BCD JUMPI POP PUSH1 0x8 PUSH1 0x0 CALLER PUSH20 0xFFFFFFFFFFFFFFFFFFFFFFFFFFFFFFFFFFFFFFFF AND PUSH20 0xFFFFFFFFFFFFFFFFFFFFFFFFFFFFFFFFFFFFFFFF AND DUP2 MSTORE PUSH1 0x20 ADD SWAP1 DUP2 MSTORE PUSH1 0x20 ADD PUSH1 0x0 KECCAK256 DUP3 DUP2 SLOAD DUP2 LT PUSH2 0x1B9B JUMPI INVALID JUMPDEST SWAP1 PUSH1 0x0 MSTORE PUSH1 0x20 PUSH1 0x0 KECCAK256 SWAP1 PUSH1 0x9 MUL ADD PUSH1 0x6 ADD PUSH1 0x0 DUP11 DUP2 MSTORE PUSH1 0x20 ADD SWAP1 DUP2 MSTORE PUSH1 0x20 ADD PUSH1 0x0 KECCAK256 PUSH1 0x0 SWAP1 SLOAD SWAP1 PUSH2 0x100 EXP SWAP1 DIV PUSH1 0xFF AND ISZERO JUMPDEST ISZERO PUSH2 0x1E5E JUMPI PUSH1 0x1 PUSH1 0x8 PUSH1 0x0 CALLER PUSH20 0xFFFFFFFFFFFFFFFFFFFFFFFFFFFFFFFFFFFFFFFF AND PUSH20 0xFFFFFFFFFFFFFFFFFFFFFFFFFFFFFFFFFFFFFFFF AND DUP2 MSTORE PUSH1 0x20 ADD SWAP1 DUP2 MSTORE PUSH1 0x20 ADD PUSH1 0x0 KECCAK256 DUP4 DUP2 SLOAD DUP2 LT PUSH2 0x1C1E JUMPI INVALID JUMPDEST SWAP1 PUSH1 0x0 MSTORE PUSH1 0x20 PUSH1 0x0 KECCAK256 SWAP1 PUSH1 0x9 MUL ADD PUSH1 0x6 ADD PUSH1 0x0 DUP12 DUP2 MSTORE PUSH1 0x20 ADD SWAP1 DUP2 MSTORE PUSH1 0x20 ADD PUSH1 0x0 KECCAK256 PUSH1 0x0 PUSH2 0x100 EXP DUP2 SLOAD DUP2 PUSH1 0xFF MUL NOT AND SWAP1 DUP4 ISZERO ISZERO MUL OR SWAP1 SSTORE POP PUSH1 0x0 PUSH2 0x1CDE PUSH1 0xF PUSH2 0x1CD0 DUP5 PUSH1 0x20 ADD MLOAD PUSH1 0x8 PUSH1 0x0 CALLER PUSH20 0xFFFFFFFFFFFFFFFFFFFFFFFFFFFFFFFFFFFFFFFF AND PUSH20 0xFFFFFFFFFFFFFFFFFFFFFFFFFFFFFFFFFFFFFFFF AND DUP2 MSTORE PUSH1 0x20 ADD SWAP1 DUP2 MSTORE PUSH1 0x20 ADD PUSH1 0x0 KECCAK256 DUP8 DUP2 SLOAD DUP2 LT PUSH2 0x1CB0 JUMPI INVALID JUMPDEST SWAP1 PUSH1 0x0 MSTORE PUSH1 0x20 PUSH1 0x0 KECCAK256 SWAP1 PUSH1 0x9 MUL ADD PUSH1 0x0 ADD SLOAD PUSH2 0x54BF SWAP1 SWAP2 SWAP1 PUSH4 0xFFFFFFFF AND JUMP JUMPDEST PUSH2 0x54F9 SWAP1 SWAP2 SWAP1 PUSH4 0xFFFFFFFF AND JUMP JUMPDEST SWAP1 POP PUSH1 0x0 PUSH2 0x1D56 PUSH1 0x64 PUSH2 0x1D48 DUP13 PUSH2 0x1D3A PUSH1 0xA PUSH1 0x0 DUP14 DUP2 MSTORE PUSH1 0x20 ADD SWAP1 DUP2 MSTORE PUSH1 0x20 ADD PUSH1 0x0 KECCAK256 SLOAD PUSH2 0x1D2C PUSH1 0x5 DUP15 DUP2 SLOAD DUP2 LT PUSH2 0x1D12 JUMPI INVALID JUMPDEST SWAP1 PUSH1 0x0 MSTORE PUSH1 0x20 PUSH1 0x0 KECCAK256 ADD SLOAD DUP10 PUSH2 0x54BF SWAP1 SWAP2 SWAP1 PUSH4 0xFFFFFFFF AND JUMP JUMPDEST PUSH2 0x54F9 SWAP1 SWAP2 SWAP1 PUSH4 0xFFFFFFFF AND JUMP JUMPDEST PUSH2 0x54BF SWAP1 SWAP2 SWAP1 PUSH4 0xFFFFFFFF AND JUMP JUMPDEST PUSH2 0x54F9 SWAP1 SWAP2 SWAP1 PUSH4 0xFFFFFFFF AND JUMP JUMPDEST SWAP1 POP DUP9 ISZERO PUSH2 0x1D78 JUMPI PUSH2 0x1D71 DUP2 DUP7 PUSH2 0x551F SWAP1 SWAP2 SWAP1 PUSH4 0xFFFFFFFF AND JUMP JUMPDEST SWAP5 POP PUSH2 0x1E46 JUMP JUMPDEST PUSH2 0x1DE6 DUP2 PUSH1 0x8 PUSH1 0x0 CALLER PUSH20 0xFFFFFFFFFFFFFFFFFFFFFFFFFFFFFFFFFFFFFFFF AND PUSH20 0xFFFFFFFFFFFFFFFFFFFFFFFFFFFFFFFFFFFFFFFF AND DUP2 MSTORE PUSH1 0x20 ADD SWAP1 DUP2 MSTORE PUSH1 0x20 ADD PUSH1 0x0 KECCAK256 DUP7 DUP2 SLOAD DUP2 LT PUSH2 0x1DC6 JUMPI INVALID JUMPDEST SWAP1 PUSH1 0x0 MSTORE PUSH1 0x20 PUSH1 0x0 KECCAK256 SWAP1 PUSH1 0x9 MUL ADD PUSH1 0x4 ADD SLOAD PUSH2 0x551F SWAP1 SWAP2 SWAP1 PUSH4 0xFFFFFFFF AND JUMP JUMPDEST PUSH1 0x8 PUSH1 0x0 CALLER PUSH20 0xFFFFFFFFFFFFFFFFFFFFFFFFFFFFFFFFFFFFFFFF AND PUSH20 0xFFFFFFFFFFFFFFFFFFFFFFFFFFFFFFFFFFFFFFFF AND DUP2 MSTORE PUSH1 0x20 ADD SWAP1 DUP2 MSTORE PUSH1 0x20 ADD PUSH1 0x0 KECCAK256 DUP6 DUP2 SLOAD DUP2 LT PUSH2 0x1E30 JUMPI INVALID JUMPDEST SWAP1 PUSH1 0x0 MSTORE PUSH1 0x20 PUSH1 0x0 KECCAK256 SWAP1 PUSH1 0x9 MUL ADD PUSH1 0x4 ADD DUP2 SWAP1 SSTORE POP JUMPDEST PUSH2 0x1E59 DUP3 DUP8 PUSH2 0x551F SWAP1 SWAP2 SWAP1 PUSH4 0xFFFFFFFF AND JUMP JUMPDEST SWAP6 POP POP POP JUMPDEST POP DUP1 DUP1 PUSH1 0x1 ADD SWAP2 POP POP PUSH2 0x1A55 JUMP JUMPDEST POP PUSH1 0x0 PUSH2 0x1EE6 PUSH1 0x64 PUSH2 0x1ED8 DUP10 PUSH1 0x64 SUB PUSH2 0x1ECA PUSH1 0xA PUSH1 0x0 DUP11 DUP2 MSTORE PUSH1 0x20 ADD SWAP1 DUP2 MSTORE PUSH1 0x20 ADD PUSH1 0x0 KECCAK256 SLOAD PUSH2 0x1EBC PUSH1 0x5 DUP12 DUP2 SLOAD DUP2 LT PUSH2 0x1EA2 JUMPI INVALID JUMPDEST SWAP1 PUSH1 0x0 MSTORE PUSH1 0x20 PUSH1 0x0 KECCAK256 ADD SLOAD DUP11 PUSH2 0x54BF SWAP1 SWAP2 SWAP1 PUSH4 0xFFFFFFFF AND JUMP JUMPDEST PUSH2 0x54F9 SWAP1 SWAP2 SWAP1 PUSH4 0xFFFFFFFF AND JUMP JUMPDEST PUSH2 0x54BF SWAP1 SWAP2 SWAP1 PUSH4 0xFFFFFFFF AND JUMP JUMPDEST PUSH2 0x54F9 SWAP1 SWAP2 SWAP1 PUSH4 0xFFFFFFFF AND JUMP JUMPDEST SWAP1 POP PUSH1 0x0 DUP2 GT ISZERO PUSH2 0x1FD7 JUMPI PUSH1 0x1 PUSH1 0x0 SWAP1 SLOAD SWAP1 PUSH2 0x100 EXP SWAP1 DIV PUSH20 0xFFFFFFFFFFFFFFFFFFFFFFFFFFFFFFFFFFFFFFFF AND PUSH20 0xFFFFFFFFFFFFFFFFFFFFFFFFFFFFFFFFFFFFFFFF AND PUSH4 0xA9059CBB CALLER DUP4 PUSH1 0x40 MLOAD DUP4 PUSH4 0xFFFFFFFF AND PUSH1 0xE0 SHL DUP2 MSTORE PUSH1 0x4 ADD DUP1 DUP4 PUSH20 0xFFFFFFFFFFFFFFFFFFFFFFFFFFFFFFFFFFFFFFFF AND PUSH20 0xFFFFFFFFFFFFFFFFFFFFFFFFFFFFFFFFFFFFFFFF AND DUP2 MSTORE PUSH1 0x20 ADD DUP3 DUP2 MSTORE PUSH1 0x20 ADD SWAP3 POP POP POP PUSH1 0x20 PUSH1 0x40 MLOAD DUP1 DUP4 SUB DUP2 PUSH1 0x0 DUP8 DUP1 EXTCODESIZE ISZERO DUP1 ISZERO PUSH2 0x1F9A JUMPI PUSH1 0x0 DUP1 REVERT JUMPDEST POP GAS CALL ISZERO DUP1 ISZERO PUSH2 0x1FAE JUMPI RETURNDATASIZE PUSH1 0x0 DUP1 RETURNDATACOPY RETURNDATASIZE PUSH1 0x0 REVERT JUMPDEST POP POP POP POP PUSH1 0x40 MLOAD RETURNDATASIZE PUSH1 0x20 DUP2 LT ISZERO PUSH2 0x1FC4 JUMPI PUSH1 0x0 DUP1 REVERT JUMPDEST DUP2 ADD SWAP1 DUP1 DUP1 MLOAD SWAP1 PUSH1 0x20 ADD SWAP1 SWAP3 SWAP2 SWAP1 POP POP POP POP JUMPDEST DUP6 ISZERO PUSH2 0x1FE8 JUMPI PUSH2 0x1FE7 DUP3 DUP7 PUSH2 0x4AB5 JUMP JUMPDEST JUMPDEST POP POP POP POP POP POP POP POP JUMP JUMPDEST PUSH1 0x0 PUSH1 0x8 PUSH1 0x0 CALLER PUSH20 0xFFFFFFFFFFFFFFFFFFFFFFFFFFFFFFFFFFFFFFFF AND PUSH20 0xFFFFFFFFFFFFFFFFFFFFFFFFFFFFFFFFFFFFFFFF AND DUP2 MSTORE PUSH1 0x20 ADD SWAP1 DUP2 MSTORE PUSH1 0x20 ADD PUSH1 0x0 KECCAK256 DUP4 DUP2 SLOAD DUP2 LT PUSH2 0x203E JUMPI INVALID JUMPDEST SWAP1 PUSH1 0x0 MSTORE PUSH1 0x20 PUSH1 0x0 KECCAK256 SWAP1 PUSH1 0x9 MUL ADD PUSH1 0x4 ADD SLOAD GT PUSH2 0x205A JUMPI PUSH1 0x0 DUP1 REVERT JUMPDEST PUSH1 0x0 PUSH1 0x8 PUSH1 0x0 CALLER PUSH20 0xFFFFFFFFFFFFFFFFFFFFFFFFFFFFFFFFFFFFFFFF AND PUSH20 0xFFFFFFFFFFFFFFFFFFFFFFFFFFFFFFFFFFFFFFFF AND DUP2 MSTORE PUSH1 0x20 ADD SWAP1 DUP2 MSTORE PUSH1 0x20 ADD PUSH1 0x0 KECCAK256 DUP4 DUP2 SLOAD DUP2 LT PUSH2 0x20A6 JUMPI INVALID JUMPDEST SWAP1 PUSH1 0x0 MSTORE PUSH1 0x20 PUSH1 0x0 KECCAK256 SWAP1 PUSH1 0x9 MUL ADD PUSH1 0x4 ADD SLOAD SWAP1 POP PUSH1 0x0 PUSH1 0x8 PUSH1 0x0 CALLER PUSH20 0xFFFFFFFFFFFFFFFFFFFFFFFFFFFFFFFFFFFFFFFF AND PUSH20 0xFFFFFFFFFFFFFFFFFFFFFFFFFFFFFFFFFFFFFFFF AND DUP2 MSTORE PUSH1 0x20 ADD SWAP1 DUP2 MSTORE PUSH1 0x20 ADD PUSH1 0x0 KECCAK256 DUP5 DUP2 SLOAD DUP2 LT PUSH2 0x2106 JUMPI INVALID JUMPDEST SWAP1 PUSH1 0x0 MSTORE PUSH1 0x20 PUSH1 0x0 KECCAK256 SWAP1 PUSH1 0x9 MUL ADD PUSH1 0x4 ADD DUP2 SWAP1 SSTORE POP PUSH2 0x2125 DUP2 DUP4 PUSH2 0x4AB5 JUMP JUMPDEST POP POP POP JUMP JUMPDEST PUSH1 0x0 DUP1 PUSH2 0x2135 PUSH2 0x440B JUMP JUMPDEST SWAP1 POP PUSH1 0x0 DUP1 PUSH1 0x0 SWAP1 POP JUMPDEST PUSH1 0x8 PUSH1 0x0 DUP8 PUSH20 0xFFFFFFFFFFFFFFFFFFFFFFFFFFFFFFFFFFFFFFFF AND PUSH20 0xFFFFFFFFFFFFFFFFFFFFFFFFFFFFFFFFFFFFFFFF AND DUP2 MSTORE PUSH1 0x20 ADD SWAP1 DUP2 MSTORE PUSH1 0x20 ADD PUSH1 0x0 KECCAK256 DUP1 SLOAD SWAP1 POP DUP2 LT ISZERO PUSH2 0x22B6 JUMPI PUSH2 0x2195 DUP7 DUP3 DUP6 DUP9 PUSH2 0x2CA5 JUMP JUMPDEST ISZERO PUSH2 0x22A9 JUMPI PUSH2 0x22A6 PUSH2 0x2297 PUSH1 0xF PUSH2 0x2289 PUSH1 0x6 PUSH1 0x8 PUSH1 0x0 DUP13 PUSH20 0xFFFFFFFFFFFFFFFFFFFFFFFFFFFFFFFFFFFFFFFF AND PUSH20 0xFFFFFFFFFFFFFFFFFFFFFFFFFFFFFFFFFFFFFFFF AND DUP2 MSTORE PUSH1 0x20 ADD SWAP1 DUP2 MSTORE PUSH1 0x20 ADD PUSH1 0x0 KECCAK256 DUP7 DUP2 SLOAD DUP2 LT PUSH2 0x21F1 JUMPI INVALID JUMPDEST SWAP1 PUSH1 0x0 MSTORE PUSH1 0x20 PUSH1 0x0 KECCAK256 SWAP1 PUSH1 0x9 MUL ADD PUSH1 0x2 ADD SLOAD DUP2 SLOAD DUP2 LT PUSH2 0x220D JUMPI INVALID JUMPDEST SWAP1 PUSH1 0x0 MSTORE PUSH1 0x20 PUSH1 0x0 KECCAK256 SWAP1 PUSH1 0x2 MUL ADD PUSH1 0x1 ADD SLOAD PUSH1 0x8 PUSH1 0x0 DUP13 PUSH20 0xFFFFFFFFFFFFFFFFFFFFFFFFFFFFFFFFFFFFFFFF AND PUSH20 0xFFFFFFFFFFFFFFFFFFFFFFFFFFFFFFFFFFFFFFFF AND DUP2 MSTORE PUSH1 0x20 ADD SWAP1 DUP2 MSTORE PUSH1 0x20 ADD PUSH1 0x0 KECCAK256 DUP7 DUP2 SLOAD DUP2 LT PUSH2 0x2269 JUMPI INVALID JUMPDEST SWAP1 PUSH1 0x0 MSTORE PUSH1 0x20 PUSH1 0x0 KECCAK256 SWAP1 PUSH1 0x9 MUL ADD PUSH1 0x0 ADD SLOAD PUSH2 0x54BF SWAP1 SWAP2 SWAP1 PUSH4 0xFFFFFFFF AND JUMP JUMPDEST PUSH2 0x54F9 SWAP1 SWAP2 SWAP1 PUSH4 0xFFFFFFFF AND JUMP JUMPDEST DUP4 PUSH2 0x551F SWAP1 SWAP2 SWAP1 PUSH4 0xFFFFFFFF AND JUMP JUMPDEST SWAP2 POP JUMPDEST DUP1 DUP1 PUSH1 0x1 ADD SWAP2 POP POP PUSH2 0x213F JUMP JUMPDEST POP DUP1 SWAP3 POP POP POP SWAP3 SWAP2 POP POP JUMP JUMPDEST PUSH1 0x0 DUP1 PUSH1 0x0 DUP1 PUSH1 0x0 DUP1 PUSH1 0x8 PUSH1 0x0 DUP10 PUSH20 0xFFFFFFFFFFFFFFFFFFFFFFFFFFFFFFFFFFFFFFFF AND PUSH20 0xFFFFFFFFFFFFFFFFFFFFFFFFFFFFFFFFFFFFFFFF AND DUP2 MSTORE PUSH1 0x20 ADD SWAP1 DUP2 MSTORE PUSH1 0x20 ADD PUSH1 0x0 KECCAK256 DUP8 DUP2 SLOAD DUP2 LT PUSH2 0x2315 JUMPI INVALID JUMPDEST SWAP1 PUSH1 0x0 MSTORE PUSH1 0x20 PUSH1 0x0 KECCAK256 SWAP1 PUSH1 0x9 MUL ADD PUSH1 0x0 ADD SLOAD PUSH1 0x8 PUSH1 0x0 DUP11 PUSH20 0xFFFFFFFFFFFFFFFFFFFFFFFFFFFFFFFFFFFFFFFF AND PUSH20 0xFFFFFFFFFFFFFFFFFFFFFFFFFFFFFFFFFFFFFFFF AND DUP2 MSTORE PUSH1 0x20 ADD SWAP1 DUP2 MSTORE PUSH1 0x20 ADD PUSH1 0x0 KECCAK256 DUP9 DUP2 SLOAD DUP2 LT PUSH2 0x2371 JUMPI INVALID JUMPDEST SWAP1 PUSH1 0x0 MSTORE PUSH1 0x20 PUSH1 0x0 KECCAK256 SWAP1 PUSH1 0x9 MUL ADD PUSH1 0x1 ADD SLOAD PUSH1 0x8 PUSH1 0x0 DUP12 PUSH20 0xFFFFFFFFFFFFFFFFFFFFFFFFFFFFFFFFFFFFFFFF AND PUSH20 0xFFFFFFFFFFFFFFFFFFFFFFFFFFFFFFFFFFFFFFFF AND DUP2 MSTORE PUSH1 0x20 ADD SWAP1 DUP2 MSTORE PUSH1 0x20 ADD PUSH1 0x0 KECCAK256 DUP10 DUP2 SLOAD DUP2 LT PUSH2 0x23CD JUMPI INVALID JUMPDEST SWAP1 PUSH1 0x0 MSTORE PUSH1 0x20 PUSH1 0x0 KECCAK256 SWAP1 PUSH1 0x9 MUL ADD PUSH1 0x2 ADD SLOAD PUSH1 0x8 PUSH1 0x0 DUP13 PUSH20 0xFFFFFFFFFFFFFFFFFFFFFFFFFFFFFFFFFFFFFFFF AND PUSH20 0xFFFFFFFFFFFFFFFFFFFFFFFFFFFFFFFFFFFFFFFF AND DUP2 MSTORE PUSH1 0x20 ADD SWAP1 DUP2 MSTORE PUSH1 0x20 ADD PUSH1 0x0 KECCAK256 DUP11 DUP2 SLOAD DUP2 LT PUSH2 0x2429 JUMPI INVALID JUMPDEST SWAP1 PUSH1 0x0 MSTORE PUSH1 0x20 PUSH1 0x0 KECCAK256 SWAP1 PUSH1 0x9 MUL ADD PUSH1 0x3 ADD SLOAD PUSH1 0x8 PUSH1 0x0 DUP14 PUSH20 0xFFFFFFFFFFFFFFFFFFFFFFFFFFFFFFFFFFFFFFFF AND PUSH20 0xFFFFFFFFFFFFFFFFFFFFFFFFFFFFFFFFFFFFFFFF AND DUP2 MSTORE PUSH1 0x20 ADD SWAP1 DUP2 MSTORE PUSH1 0x20 ADD PUSH1 0x0 KECCAK256 DUP12 DUP2 SLOAD DUP2 LT PUSH2 0x2485 JUMPI INVALID JUMPDEST SWAP1 PUSH1 0x0 MSTORE PUSH1 0x20 PUSH1 0x0 KECCAK256 SWAP1 PUSH1 0x9 MUL ADD PUSH1 0x4 ADD SLOAD PUSH1 0x8 PUSH1 0x0 DUP15 PUSH20 0xFFFFFFFFFFFFFFFFFFFFFFFFFFFFFFFFFFFFFFFF AND PUSH20 0xFFFFFFFFFFFFFFFFFFFFFFFFFFFFFFFFFFFFFFFF AND DUP2 MSTORE PUSH1 0x20 ADD SWAP1 DUP2 MSTORE PUSH1 0x20 ADD PUSH1 0x0 KECCAK256 DUP13 DUP2 SLOAD DUP2 LT PUSH2 0x24E1 JUMPI INVALID JUMPDEST SWAP1 PUSH1 0x0 MSTORE PUSH1 0x20 PUSH1 0x0 KECCAK256 SWAP1 PUSH1 0x9 MUL ADD PUSH1 0x5 ADD SLOAD SWAP6 POP SWAP6 POP SWAP6 POP SWAP6 POP SWAP6 POP SWAP6 POP SWAP3 SWAP6 POP SWAP3 SWAP6 POP SWAP3 SWAP6 JUMP JUMPDEST PUSH1 0x60 PUSH1 0x5 DUP1 SLOAD DUP1 PUSH1 0x20 MUL PUSH1 0x20 ADD PUSH1 0x40 MLOAD SWAP1 DUP2 ADD PUSH1 0x40 MSTORE DUP1 SWAP3 SWAP2 SWAP1 DUP2 DUP2 MSTORE PUSH1 0x20 ADD DUP3 DUP1 SLOAD DUP1 ISZERO PUSH2 0x2557 JUMPI PUSH1 0x20 MUL DUP3 ADD SWAP2 SWAP1 PUSH1 0x0 MSTORE PUSH1 0x20 PUSH1 0x0 KECCAK256 SWAP1 JUMPDEST DUP2 SLOAD DUP2 MSTORE PUSH1 0x20 ADD SWAP1 PUSH1 0x1 ADD SWAP1 DUP1 DUP4 GT PUSH2 0x2543 JUMPI JUMPDEST POP POP POP POP POP SWAP1 POP SWAP1 JUMP JUMPDEST PUSH1 0xA PUSH1 0x20 MSTORE DUP1 PUSH1 0x0 MSTORE PUSH1 0x40 PUSH1 0x0 KECCAK256 PUSH1 0x0 SWAP2 POP SWAP1 POP SLOAD DUP2 JUMP JUMPDEST PUSH1 0x0 DUP1 SWAP1 SLOAD SWAP1 PUSH2 0x100 EXP SWAP1 DIV PUSH20 0xFFFFFFFFFFFFFFFFFFFFFFFFFFFFFFFFFFFFFFFF AND PUSH20 0xFFFFFFFFFFFFFFFFFFFFFFFFFFFFFFFFFFFFFFFF AND CALLER PUSH20 0xFFFFFFFFFFFFFFFFFFFFFFFFFFFFFFFFFFFFFFFF AND EQ PUSH2 0x263B JUMPI PUSH1 0x40 MLOAD PUSH32 0x8C379A000000000000000000000000000000000000000000000000000000000 DUP2 MSTORE PUSH1 0x4 ADD DUP1 DUP1 PUSH1 0x20 ADD DUP3 DUP2 SUB DUP3 MSTORE PUSH1 0x16 DUP2 MSTORE PUSH1 0x20 ADD DUP1 PUSH32 0x6F6E6C79206465706C6F7965722063616E2063616C6C00000000000000000000 DUP2 MSTORE POP PUSH1 0x20 ADD SWAP2 POP POP PUSH1 0x40 MLOAD DUP1 SWAP2 SUB SWAP1 REVERT JUMPDEST PUSH1 0x1 PUSH1 0x0 SWAP1 SLOAD SWAP1 PUSH2 0x100 EXP SWAP1 DIV PUSH20 0xFFFFFFFFFFFFFFFFFFFFFFFFFFFFFFFFFFFFFFFF AND PUSH20 0xFFFFFFFFFFFFFFFFFFFFFFFFFFFFFFFFFFFFFFFF AND PUSH4 0x23B872DD CALLER ADDRESS DUP5 PUSH1 0x40 MLOAD DUP5 PUSH4 0xFFFFFFFF AND PUSH1 0xE0 SHL DUP2 MSTORE PUSH1 0x4 ADD DUP1 DUP5 PUSH20 0xFFFFFFFFFFFFFFFFFFFFFFFFFFFFFFFFFFFFFFFF AND PUSH20 0xFFFFFFFFFFFFFFFFFFFFFFFFFFFFFFFFFFFFFFFF AND DUP2 MSTORE PUSH1 0x20 ADD DUP4 PUSH20 0xFFFFFFFFFFFFFFFFFFFFFFFFFFFFFFFFFFFFFFFF AND PUSH20 0xFFFFFFFFFFFFFFFFFFFFFFFFFFFFFFFFFFFFFFFF AND DUP2 MSTORE PUSH1 0x20 ADD DUP3 DUP2 MSTORE PUSH1 0x20 ADD SWAP4 POP POP POP POP PUSH1 0x20 PUSH1 0x40 MLOAD DUP1 DUP4 SUB DUP2 PUSH1 0x0 DUP8 DUP1 EXTCODESIZE ISZERO DUP1 ISZERO PUSH2 0x2718 JUMPI PUSH1 0x0 DUP1 REVERT JUMPDEST POP GAS CALL ISZERO DUP1 ISZERO PUSH2 0x272C JUMPI RETURNDATASIZE PUSH1 0x0 DUP1 RETURNDATACOPY RETURNDATASIZE PUSH1 0x0 REVERT JUMPDEST POP POP POP POP PUSH1 0x40 MLOAD RETURNDATASIZE PUSH1 0x20 DUP2 LT ISZERO PUSH2 0x2742 JUMPI PUSH1 0x0 DUP1 REVERT JUMPDEST DUP2 ADD SWAP1 DUP1 DUP1 MLOAD SWAP1 PUSH1 0x20 ADD SWAP1 SWAP3 SWAP2 SWAP1 POP POP POP PUSH2 0x275C JUMPI PUSH1 0x0 DUP1 REVERT JUMPDEST PUSH2 0x2771 DUP2 PUSH1 0xB SLOAD PUSH2 0x551F SWAP1 SWAP2 SWAP1 PUSH4 0xFFFFFFFF AND JUMP JUMPDEST PUSH1 0xB DUP2 SWAP1 SSTORE POP POP JUMP JUMPDEST PUSH1 0x4 SLOAD DUP2 JUMP JUMPDEST PUSH1 0x0 DUP1 SWAP1 SLOAD SWAP1 PUSH2 0x100 EXP SWAP1 DIV PUSH20 0xFFFFFFFFFFFFFFFFFFFFFFFFFFFFFFFFFFFFFFFF AND PUSH20 0xFFFFFFFFFFFFFFFFFFFFFFFFFFFFFFFFFFFFFFFF AND CALLER PUSH20 0xFFFFFFFFFFFFFFFFFFFFFFFFFFFFFFFFFFFFFFFF AND EQ PUSH2 0x2842 JUMPI PUSH1 0x40 MLOAD PUSH32 0x8C379A000000000000000000000000000000000000000000000000000000000 DUP2 MSTORE PUSH1 0x4 ADD DUP1 DUP1 PUSH1 0x20 ADD DUP3 DUP2 SUB DUP3 MSTORE PUSH1 0x16 DUP2 MSTORE PUSH1 0x20 ADD DUP1 PUSH32 0x6F6E6C79206465706C6F7965722063616E2063616C6C00000000000000000000 DUP2 MSTORE POP PUSH1 0x20 ADD SWAP2 POP POP PUSH1 0x40 MLOAD DUP1 SWAP2 SUB SWAP1 REVERT JUMPDEST PUSH1 0x0 DUP1 SWAP1 POP JUMPDEST DUP3 MLOAD DUP2 LT ISZERO PUSH2 0x2934 JUMPI PUSH2 0x2866 DUP3 PUSH1 0xB SLOAD PUSH2 0x549F SWAP1 SWAP2 SWAP1 PUSH4 0xFFFFFFFF AND JUMP JUMPDEST PUSH1 0xB DUP2 SWAP1 SSTORE POP PUSH2 0x28D1 DUP3 PUSH1 0xC PUSH1 0x0 DUP7 DUP6 DUP2 MLOAD DUP2 LT PUSH2 0x2880 JUMPI INVALID JUMPDEST PUSH1 0x20 MUL PUSH1 0x20 ADD ADD MLOAD PUSH20 0xFFFFFFFFFFFFFFFFFFFFFFFFFFFFFFFFFFFFFFFF AND PUSH20 0xFFFFFFFFFFFFFFFFFFFFFFFFFFFFFFFFFFFFFFFF AND DUP2 MSTORE PUSH1 0x20 ADD SWAP1 DUP2 MSTORE PUSH1 0x20 ADD PUSH1 0x0 KECCAK256 SLOAD PUSH2 0x551F SWAP1 SWAP2 SWAP1 PUSH4 0xFFFFFFFF AND JUMP JUMPDEST PUSH1 0xC PUSH1 0x0 DUP6 DUP5 DUP2 MLOAD DUP2 LT PUSH2 0x28E1 JUMPI INVALID JUMPDEST PUSH1 0x20 MUL PUSH1 0x20 ADD ADD MLOAD PUSH20 0xFFFFFFFFFFFFFFFFFFFFFFFFFFFFFFFFFFFFFFFF AND PUSH20 0xFFFFFFFFFFFFFFFFFFFFFFFFFFFFFFFFFFFFFFFF AND DUP2 MSTORE PUSH1 0x20 ADD SWAP1 DUP2 MSTORE PUSH1 0x20 ADD PUSH1 0x0 KECCAK256 DUP2 SWAP1 SSTORE POP DUP1 DUP1 PUSH1 0x1 ADD SWAP2 POP POP PUSH2 0x2848 JUMP JUMPDEST POP POP POP JUMP JUMPDEST PUSH1 0x0 DUP1 SWAP1 SLOAD SWAP1 PUSH2 0x100 EXP SWAP1 DIV PUSH20 0xFFFFFFFFFFFFFFFFFFFFFFFFFFFFFFFFFFFFFFFF AND PUSH20 0xFFFFFFFFFFFFFFFFFFFFFFFFFFFFFFFFFFFFFFFF AND CALLER PUSH20 0xFFFFFFFFFFFFFFFFFFFFFFFFFFFFFFFFFFFFFFFF AND EQ PUSH2 0x29FB JUMPI PUSH1 0x40 MLOAD PUSH32 0x8C379A000000000000000000000000000000000000000000000000000000000 DUP2 MSTORE PUSH1 0x4 ADD DUP1 DUP1 PUSH1 0x20 ADD DUP3 DUP2 SUB DUP3 MSTORE PUSH1 0x16 DUP2 MSTORE PUSH1 0x20 ADD DUP1 PUSH32 0x6F6E6C79206465706C6F7965722063616E2063616C6C00000000000000000000 DUP2 MSTORE POP PUSH1 0x20 ADD SWAP2 POP POP PUSH1 0x40 MLOAD DUP1 SWAP2 SUB SWAP1 REVERT JUMPDEST PUSH1 0x0 DUP1 SWAP1 POP JUMPDEST DUP3 MLOAD DUP2 LT ISZERO PUSH2 0x2B13 JUMPI PUSH2 0x2A32 DUP3 DUP3 DUP2 MLOAD DUP2 LT PUSH2 0x2A19 JUMPI INVALID JUMPDEST PUSH1 0x20 MUL PUSH1 0x20 ADD ADD MLOAD PUSH1 0xB SLOAD PUSH2 0x549F SWAP1 SWAP2 SWAP1 PUSH4 0xFFFFFFFF AND JUMP JUMPDEST PUSH1 0xB DUP2 SWAP1 SSTORE POP PUSH2 0x2AB0 DUP3 DUP3 DUP2 MLOAD DUP2 LT PUSH2 0x2A47 JUMPI INVALID JUMPDEST PUSH1 0x20 MUL PUSH1 0x20 ADD ADD MLOAD PUSH1 0xC PUSH1 0x0 DUP7 DUP6 DUP2 MLOAD DUP2 LT PUSH2 0x2A5F JUMPI INVALID JUMPDEST PUSH1 0x20 MUL PUSH1 0x20 ADD ADD MLOAD PUSH20 0xFFFFFFFFFFFFFFFFFFFFFFFFFFFFFFFFFFFFFFFF AND PUSH20 0xFFFFFFFFFFFFFFFFFFFFFFFFFFFFFFFFFFFFFFFF AND DUP2 MSTORE PUSH1 0x20 ADD SWAP1 DUP2 MSTORE PUSH1 0x20 ADD PUSH1 0x0 KECCAK256 SLOAD PUSH2 0x551F SWAP1 SWAP2 SWAP1 PUSH4 0xFFFFFFFF AND JUMP JUMPDEST PUSH1 0xC PUSH1 0x0 DUP6 DUP5 DUP2 MLOAD DUP2 LT PUSH2 0x2AC0 JUMPI INVALID JUMPDEST PUSH1 0x20 MUL PUSH1 0x20 ADD ADD MLOAD PUSH20 0xFFFFFFFFFFFFFFFFFFFFFFFFFFFFFFFFFFFFFFFF AND PUSH20 0xFFFFFFFFFFFFFFFFFFFFFFFFFFFFFFFFFFFFFFFF AND DUP2 MSTORE PUSH1 0x20 ADD SWAP1 DUP2 MSTORE PUSH1 0x20 ADD PUSH1 0x0 KECCAK256 DUP2 SWAP1 SSTORE POP DUP1 DUP1 PUSH1 0x1 ADD SWAP2 POP POP PUSH2 0x2A01 JUMP JUMPDEST POP POP POP JUMP JUMPDEST PUSH1 0x6 DUP2 DUP2 SLOAD DUP2 LT PUSH2 0x2B25 JUMPI INVALID JUMPDEST SWAP1 PUSH1 0x0 MSTORE PUSH1 0x20 PUSH1 0x0 KECCAK256 SWAP1 PUSH1 0x2 MUL ADD PUSH1 0x0 SWAP2 POP SWAP1 POP DUP1 PUSH1 0x0 ADD SLOAD SWAP1 DUP1 PUSH1 0x1 ADD SLOAD SWAP1 POP DUP3 JUMP JUMPDEST PUSH1 0xC PUSH1 0x20 MSTORE DUP1 PUSH1 0x0 MSTORE PUSH1 0x40 PUSH1 0x0 KECCAK256 PUSH1 0x0 SWAP2 POP SWAP1 POP SLOAD DUP2 JUMP JUMPDEST PUSH1 0x0 DUP1 SWAP1 SLOAD SWAP1 PUSH2 0x100 EXP SWAP1 DIV PUSH20 0xFFFFFFFFFFFFFFFFFFFFFFFFFFFFFFFFFFFFFFFF AND PUSH20 0xFFFFFFFFFFFFFFFFFFFFFFFFFFFFFFFFFFFFFFFF AND CALLER PUSH20 0xFFFFFFFFFFFFFFFFFFFFFFFFFFFFFFFFFFFFFFFF AND EQ PUSH2 0x2C23 JUMPI PUSH1 0x40 MLOAD PUSH32 0x8C379A000000000000000000000000000000000000000000000000000000000 DUP2 MSTORE PUSH1 0x4 ADD DUP1 DUP1 PUSH1 0x20 ADD DUP3 DUP2 SUB DUP3 MSTORE PUSH1 0x16 DUP2 MSTORE PUSH1 0x20 ADD DUP1 PUSH32 0x6F6E6C79206465706C6F7965722063616E2063616C6C00000000000000000000 DUP2 MSTORE POP PUSH1 0x20 ADD SWAP2 POP POP PUSH1 0x40 MLOAD DUP1 SWAP2 SUB SWAP1 REVERT JUMPDEST PUSH1 0x7 PUSH1 0x40 MLOAD DUP1 PUSH1 0x40 ADD PUSH1 0x40 MSTORE DUP1 DUP5 DUP2 MSTORE PUSH1 0x20 ADD DUP4 DUP2 MSTORE POP SWAP1 DUP1 PUSH1 0x1 DUP2 SLOAD ADD DUP1 DUP3 SSTORE DUP1 SWAP2 POP POP SWAP1 PUSH1 0x1 DUP3 SUB SWAP1 PUSH1 0x0 MSTORE PUSH1 0x20 PUSH1 0x0 KECCAK256 SWAP1 PUSH1 0x2 MUL ADD PUSH1 0x0 SWAP1 SWAP2 SWAP3 SWAP1 SWAP2 SWAP1 SWAP2 POP PUSH1 0x0 DUP3 ADD MLOAD DUP2 PUSH1 0x0 ADD SSTORE PUSH1 0x20 DUP3 ADD MLOAD DUP2 PUSH1 0x1 ADD SSTORE POP POP POP POP POP JUMP JUMPDEST PUSH1 0x0 DUP1 SWAP1 SLOAD SWAP1 PUSH2 0x100 EXP SWAP1 DIV PUSH20 0xFFFFFFFFFFFFFFFFFFFFFFFFFFFFFFFFFFFFFFFF AND DUP2 JUMP JUMPDEST PUSH1 0x0 DUP1 PUSH2 0x2D2C PUSH1 0x4 SLOAD PUSH2 0x2D1E PUSH1 0x3 SLOAD PUSH1 0x8 PUSH1 0x0 DUP12 PUSH20 0xFFFFFFFFFFFFFFFFFFFFFFFFFFFFFFFFFFFFFFFF AND PUSH20 0xFFFFFFFFFFFFFFFFFFFFFFFFFFFFFFFFFFFFFFFF AND DUP2 MSTORE PUSH1 0x20 ADD SWAP1 DUP2 MSTORE PUSH1 0x20 ADD PUSH1 0x0 KECCAK256 DUP10 DUP2 SLOAD DUP2 LT PUSH2 0x2CFE JUMPI INVALID JUMPDEST SWAP1 PUSH1 0x0 MSTORE PUSH1 0x20 PUSH1 0x0 KECCAK256 SWAP1 PUSH1 0x9 MUL ADD PUSH1 0x1 ADD SLOAD PUSH2 0x549F SWAP1 SWAP2 SWAP1 PUSH4 0xFFFFFFFF AND JUMP JUMPDEST PUSH2 0x54F9 SWAP1 SWAP2 SWAP1 PUSH4 0xFFFFFFFF AND JUMP JUMPDEST SWAP1 POP DUP3 PUSH1 0x1 DUP3 ADD GT ISZERO DUP1 ISZERO PUSH2 0x2DBC JUMPI POP DUP3 PUSH1 0x6 PUSH1 0x8 PUSH1 0x0 DUP10 PUSH20 0xFFFFFFFFFFFFFFFFFFFFFFFFFFFFFFFFFFFFFFFF AND PUSH20 0xFFFFFFFFFFFFFFFFFFFFFFFFFFFFFFFFFFFFFFFF AND DUP2 MSTORE PUSH1 0x20 ADD SWAP1 DUP2 MSTORE PUSH1 0x20 ADD PUSH1 0x0 KECCAK256 DUP8 DUP2 SLOAD DUP2 LT PUSH2 0x2D89 JUMPI INVALID JUMPDEST SWAP1 PUSH1 0x0 MSTORE PUSH1 0x20 PUSH1 0x0 KECCAK256 SWAP1 PUSH1 0x9 MUL ADD PUSH1 0x2 ADD SLOAD DUP2 SLOAD DUP2 LT PUSH2 0x2DA5 JUMPI INVALID JUMPDEST SWAP1 PUSH1 0x0 MSTORE PUSH1 0x20 PUSH1 0x0 KECCAK256 SWAP1 PUSH1 0x2 MUL ADD PUSH1 0x0 ADD SLOAD DUP3 ADD LT ISZERO JUMPDEST DUP1 ISZERO PUSH2 0x2E23 JUMPI POP PUSH1 0x1 PUSH1 0x8 PUSH1 0x0 DUP9 PUSH20 0xFFFFFFFFFFFFFFFFFFFFFFFFFFFFFFFFFFFFFFFF AND PUSH20 0xFFFFFFFFFFFFFFFFFFFFFFFFFFFFFFFFFFFFFFFF AND DUP2 MSTORE PUSH1 0x20 ADD SWAP1 DUP2 MSTORE PUSH1 0x20 ADD PUSH1 0x0 KECCAK256 DUP7 DUP2 SLOAD DUP2 LT PUSH2 0x2E0F JUMPI INVALID JUMPDEST SWAP1 PUSH1 0x0 MSTORE PUSH1 0x20 PUSH1 0x0 KECCAK256 SWAP1 PUSH1 0x9 MUL ADD PUSH1 0x3 ADD SLOAD EQ JUMPDEST DUP1 ISZERO PUSH2 0x2F5F JUMPI POP DUP3 DUP5 EQ ISZERO DUP1 PUSH2 0x2F5E JUMPI POP PUSH2 0x2EB8 PUSH2 0x2E4E PUSH1 0x4 SLOAD DUP4 DUP8 SUB PUSH2 0x54BF SWAP1 SWAP2 SWAP1 PUSH4 0xFFFFFFFF AND JUMP JUMPDEST PUSH1 0x8 PUSH1 0x0 DUP10 PUSH20 0xFFFFFFFFFFFFFFFFFFFFFFFFFFFFFFFFFFFFFFFF AND PUSH20 0xFFFFFFFFFFFFFFFFFFFFFFFFFFFFFFFFFFFFFFFF AND DUP2 MSTORE PUSH1 0x20 ADD SWAP1 DUP2 MSTORE PUSH1 0x20 ADD PUSH1 0x0 KECCAK256 DUP8 DUP2 SLOAD DUP2 LT PUSH2 0x2E98 JUMPI INVALID JUMPDEST SWAP1 PUSH1 0x0 MSTORE PUSH1 0x20 PUSH1 0x0 KECCAK256 SWAP1 PUSH1 0x9 MUL ADD PUSH1 0x1 ADD SLOAD PUSH2 0x551F SWAP1 SWAP2 SWAP1 PUSH4 0xFFFFFFFF AND JUMP JUMPDEST PUSH1 0x1 PUSH1 0x0 SWAP1 SLOAD SWAP1 PUSH2 0x100 EXP SWAP1 DIV PUSH20 0xFFFFFFFFFFFFFFFFFFFFFFFFFFFFFFFFFFFFFFFF AND PUSH20 0xFFFFFFFFFFFFFFFFFFFFFFFFFFFFFFFFFFFFFFFF AND PUSH4 0xB81F90F3 PUSH1 0x40 MLOAD DUP2 PUSH4 0xFFFFFFFF AND PUSH1 0xE0 SHL DUP2 MSTORE PUSH1 0x4 ADD PUSH1 0x20 PUSH1 0x40 MLOAD DUP1 DUP4 SUB DUP2 DUP7 DUP1 EXTCODESIZE ISZERO DUP1 ISZERO PUSH2 0x2F20 JUMPI PUSH1 0x0 DUP1 REVERT JUMPDEST POP GAS STATICCALL ISZERO DUP1 ISZERO PUSH2 0x2F34 JUMPI RETURNDATASIZE PUSH1 0x0 DUP1 RETURNDATACOPY RETURNDATASIZE PUSH1 0x0 REVERT JUMPDEST POP POP POP POP PUSH1 0x40 MLOAD RETURNDATASIZE PUSH1 0x20 DUP2 LT ISZERO PUSH2 0x2F4A JUMPI PUSH1 0x0 DUP1 REVERT JUMPDEST DUP2 ADD SWAP1 DUP1 DUP1 MLOAD SWAP1 PUSH1 0x20 ADD SWAP1 SWAP3 SWAP2 SWAP1 POP POP POP LT ISZERO JUMPDEST JUMPDEST SWAP2 POP POP SWAP5 SWAP4 POP POP POP POP JUMP JUMPDEST PUSH1 0x9 PUSH1 0x20 MSTORE DUP2 PUSH1 0x0 MSTORE PUSH1 0x40 PUSH1 0x0 KECCAK256 DUP2 DUP2 SLOAD DUP2 LT PUSH2 0x2F83 JUMPI INVALID JUMPDEST SWAP1 PUSH1 0x0 MSTORE PUSH1 0x20 PUSH1 0x0 KECCAK256 SWAP1 PUSH1 0x5 MUL ADD PUSH1 0x0 SWAP2 POP SWAP2 POP POP DUP1 PUSH1 0x0 ADD SLOAD SWAP1 DUP1 PUSH1 0x1 ADD SLOAD SWAP1 DUP1 PUSH1 0x2 ADD SLOAD SWAP1 DUP1 PUSH1 0x3 ADD SLOAD SWAP1 POP DUP5 JUMP JUMPDEST PUSH1 0x1 PUSH1 0x8 PUSH1 0x0 CALLER PUSH20 0xFFFFFFFFFFFFFFFFFFFFFFFFFFFFFFFFFFFFFFFF AND PUSH20 0xFFFFFFFFFFFFFFFFFFFFFFFFFFFFFFFFFFFFFFFF AND DUP2 MSTORE PUSH1 0x20 ADD SWAP1 DUP2 MSTORE PUSH1 0x20 ADD PUSH1 0x0 KECCAK256 DUP3 DUP2 SLOAD DUP2 LT PUSH2 0x3000 JUMPI INVALID JUMPDEST SWAP1 PUSH1 0x0 MSTORE PUSH1 0x20 PUSH1 0x0 KECCAK256 SWAP1 PUSH1 0x9 MUL ADD PUSH1 0x3 ADD SLOAD EQ PUSH2 0x3068 JUMPI PUSH1 0x40 MLOAD PUSH32 0x8C379A000000000000000000000000000000000000000000000000000000000 DUP2 MSTORE PUSH1 0x4 ADD DUP1 DUP1 PUSH1 0x20 ADD DUP3 DUP2 SUB DUP3 MSTORE PUSH1 0x21 DUP2 MSTORE PUSH1 0x20 ADD DUP1 PUSH2 0x5658 PUSH1 0x21 SWAP2 CODECOPY PUSH1 0x40 ADD SWAP2 POP POP PUSH1 0x40 MLOAD DUP1 SWAP2 SUB SWAP1 REVERT JUMPDEST PUSH1 0x4 PUSH1 0x8 PUSH1 0x0 CALLER PUSH20 0xFFFFFFFFFFFFFFFFFFFFFFFFFFFFFFFFFFFFFFFF AND PUSH20 0xFFFFFFFFFFFFFFFFFFFFFFFFFFFFFFFFFFFFFFFF AND DUP2 MSTORE PUSH1 0x20 ADD SWAP1 DUP2 MSTORE PUSH1 0x20 ADD PUSH1 0x0 KECCAK256 DUP3 DUP2 SLOAD DUP2 LT PUSH2 0x30B4 JUMPI INVALID JUMPDEST SWAP1 PUSH1 0x0 MSTORE PUSH1 0x20 PUSH1 0x0 KECCAK256 SWAP1 PUSH1 0x9 MUL ADD PUSH1 0x3 ADD DUP2 SWAP1 SSTORE POP PUSH1 0x0 PUSH2 0x30D3 PUSH2 0x440B JUMP JUMPDEST SWAP1 POP PUSH1 0x0 PUSH2 0x315B PUSH1 0x4 SLOAD PUSH2 0x314D PUSH1 0x3 SLOAD PUSH1 0x8 PUSH1 0x0 CALLER PUSH20 0xFFFFFFFFFFFFFFFFFFFFFFFFFFFFFFFFFFFFFFFF AND PUSH20 0xFFFFFFFFFFFFFFFFFFFFFFFFFFFFFFFFFFFFFFFF AND DUP2 MSTORE PUSH1 0x20 ADD SWAP1 DUP2 MSTORE PUSH1 0x20 ADD PUSH1 0x0 KECCAK256 DUP8 DUP2 SLOAD DUP2 LT PUSH2 0x312D JUMPI INVALID JUMPDEST SWAP1 PUSH1 0x0 MSTORE PUSH1 0x20 PUSH1 0x0 KECCAK256 SWAP1 PUSH1 0x9 MUL ADD PUSH1 0x1 ADD SLOAD PUSH2 0x549F SWAP1 SWAP2 SWAP1 PUSH4 0xFFFFFFFF AND JUMP JUMPDEST PUSH2 0x54F9 SWAP1 SWAP2 SWAP1 PUSH4 0xFFFFFFFF AND JUMP JUMPDEST SWAP1 POP PUSH1 0x0 PUSH1 0x6 PUSH1 0x8 PUSH1 0x0 CALLER PUSH20 0xFFFFFFFFFFFFFFFFFFFFFFFFFFFFFFFFFFFFFFFF AND PUSH20 0xFFFFFFFFFFFFFFFFFFFFFFFFFFFFFFFFFFFFFFFF AND DUP2 MSTORE PUSH1 0x20 ADD SWAP1 DUP2 MSTORE PUSH1 0x20 ADD PUSH1 0x0 KECCAK256 DUP6 DUP2 SLOAD DUP2 LT PUSH2 0x31AB JUMPI INVALID JUMPDEST SWAP1 PUSH1 0x0 MSTORE PUSH1 0x20 PUSH1 0x0 KECCAK256 SWAP1 PUSH1 0x9 MUL ADD PUSH1 0x2 ADD SLOAD DUP2 SLOAD DUP2 LT PUSH2 0x31C7 JUMPI INVALID JUMPDEST SWAP1 PUSH1 0x0 MSTORE PUSH1 0x20 PUSH1 0x0 KECCAK256 SWAP1 PUSH1 0x2 MUL ADD PUSH1 0x0 ADD SLOAD DUP3 ADD SWAP1 POP PUSH1 0x0 PUSH1 0x1 DUP5 ADD SWAP1 POP JUMPDEST DUP2 DUP2 GT PUSH2 0x3292 JUMPI PUSH2 0x326E PUSH1 0x8 PUSH1 0x0 CALLER PUSH20 0xFFFFFFFFFFFFFFFFFFFFFFFFFFFFFFFFFFFFFFFF AND PUSH20 0xFFFFFFFFFFFFFFFFFFFFFFFFFFFFFFFFFFFFFFFF AND DUP2 MSTORE PUSH1 0x20 ADD SWAP1 DUP2 MSTORE PUSH1 0x20 ADD PUSH1 0x0 KECCAK256 DUP7 DUP2 SLOAD DUP2 LT PUSH2 0x323A JUMPI INVALID JUMPDEST SWAP1 PUSH1 0x0 MSTORE PUSH1 0x20 PUSH1 0x0 KECCAK256 SWAP1 PUSH1 0x9 MUL ADD PUSH1 0x0 ADD SLOAD PUSH1 0xA PUSH1 0x0 DUP5 DUP2 MSTORE PUSH1 0x20 ADD SWAP1 DUP2 MSTORE PUSH1 0x20 ADD PUSH1 0x0 KECCAK256 SLOAD PUSH2 0x549F SWAP1 SWAP2 SWAP1 PUSH4 0xFFFFFFFF AND JUMP JUMPDEST PUSH1 0xA PUSH1 0x0 DUP4 DUP2 MSTORE PUSH1 0x20 ADD SWAP1 DUP2 MSTORE PUSH1 0x20 ADD PUSH1 0x0 KECCAK256 DUP2 SWAP1 SSTORE POP DUP1 DUP1 PUSH1 0x1 ADD SWAP2 POP POP PUSH2 0x31E6 JUMP JUMPDEST POP PUSH2 0x329B PUSH2 0x440B JUMP JUMPDEST PUSH1 0x8 PUSH1 0x0 CALLER PUSH20 0xFFFFFFFFFFFFFFFFFFFFFFFFFFFFFFFFFFFFFFFF AND PUSH20 0xFFFFFFFFFFFFFFFFFFFFFFFFFFFFFFFFFFFFFFFF AND DUP2 MSTORE PUSH1 0x20 ADD SWAP1 DUP2 MSTORE PUSH1 0x20 ADD PUSH1 0x0 KECCAK256 DUP6 DUP2 SLOAD DUP2 LT PUSH2 0x32E5 JUMPI INVALID JUMPDEST SWAP1 PUSH1 0x0 MSTORE PUSH1 0x20 PUSH1 0x0 KECCAK256 SWAP1 PUSH1 0x9 MUL ADD PUSH1 0x7 ADD DUP2 SWAP1 SSTORE POP PUSH1 0x18 PUSH1 0x8 PUSH1 0x0 CALLER PUSH20 0xFFFFFFFFFFFFFFFFFFFFFFFFFFFFFFFFFFFFFFFF AND PUSH20 0xFFFFFFFFFFFFFFFFFFFFFFFFFFFFFFFFFFFFFFFF AND DUP2 MSTORE PUSH1 0x20 ADD SWAP1 DUP2 MSTORE PUSH1 0x20 ADD PUSH1 0x0 KECCAK256 DUP6 DUP2 SLOAD DUP2 LT PUSH2 0x3346 JUMPI INVALID JUMPDEST SWAP1 PUSH1 0x0 MSTORE PUSH1 0x20 PUSH1 0x0 KECCAK256 SWAP1 PUSH1 0x9 MUL ADD PUSH1 0x8 ADD DUP2 SWAP1 SSTORE POP POP POP POP POP JUMP JUMPDEST PUSH1 0x0 PUSH1 0x8 PUSH1 0x0 DUP4 PUSH20 0xFFFFFFFFFFFFFFFFFFFFFFFFFFFFFFFFFFFFFFFF AND PUSH20 0xFFFFFFFFFFFFFFFFFFFFFFFFFFFFFFFFFFFFFFFF AND DUP2 MSTORE PUSH1 0x20 ADD SWAP1 DUP2 MSTORE PUSH1 0x20 ADD PUSH1 0x0 KECCAK256 DUP1 SLOAD SWAP1 POP SWAP1 POP SWAP2 SWAP1 POP JUMP JUMPDEST PUSH1 0x0 DUP1 PUSH2 0x33B8 PUSH2 0x440B JUMP JUMPDEST SWAP1 POP PUSH1 0x0 DUP1 PUSH1 0x0 SWAP1 POP JUMPDEST DUP5 MLOAD DUP2 LT ISZERO PUSH2 0x3531 JUMPI PUSH2 0x33EA DUP7 DUP7 DUP4 DUP2 MLOAD DUP2 LT PUSH2 0x33DB JUMPI INVALID JUMPDEST PUSH1 0x20 MUL PUSH1 0x20 ADD ADD MLOAD DUP6 DUP7 PUSH2 0x2CA5 JUMP JUMPDEST ISZERO PUSH2 0x3524 JUMPI PUSH2 0x3521 PUSH2 0x3512 PUSH1 0xF PUSH2 0x3504 PUSH1 0x6 PUSH1 0x8 PUSH1 0x0 DUP13 PUSH20 0xFFFFFFFFFFFFFFFFFFFFFFFFFFFFFFFFFFFFFFFF AND PUSH20 0xFFFFFFFFFFFFFFFFFFFFFFFFFFFFFFFFFFFFFFFF AND DUP2 MSTORE PUSH1 0x20 ADD SWAP1 DUP2 MSTORE PUSH1 0x20 ADD PUSH1 0x0 KECCAK256 DUP11 DUP8 DUP2 MLOAD DUP2 LT PUSH2 0x3447 JUMPI INVALID JUMPDEST PUSH1 0x20 MUL PUSH1 0x20 ADD ADD MLOAD DUP2 SLOAD DUP2 LT PUSH2 0x3459 JUMPI INVALID JUMPDEST SWAP1 PUSH1 0x0 MSTORE PUSH1 0x20 PUSH1 0x0 KECCAK256 SWAP1 PUSH1 0x9 MUL ADD PUSH1 0x2 ADD SLOAD DUP2 SLOAD DUP2 LT PUSH2 0x3475 JUMPI INVALID JUMPDEST SWAP1 PUSH1 0x0 MSTORE PUSH1 0x20 PUSH1 0x0 KECCAK256 SWAP1 PUSH1 0x2 MUL ADD PUSH1 0x1 ADD SLOAD PUSH1 0x8 PUSH1 0x0 DUP13 PUSH20 0xFFFFFFFFFFFFFFFFFFFFFFFFFFFFFFFFFFFFFFFF AND PUSH20 0xFFFFFFFFFFFFFFFFFFFFFFFFFFFFFFFFFFFFFFFF AND DUP2 MSTORE PUSH1 0x20 ADD SWAP1 DUP2 MSTORE PUSH1 0x20 ADD PUSH1 0x0 KECCAK256 DUP11 DUP8 DUP2 MLOAD DUP2 LT PUSH2 0x34D2 JUMPI INVALID JUMPDEST PUSH1 0x20 MUL PUSH1 0x20 ADD ADD MLOAD DUP2 SLOAD DUP2 LT PUSH2 0x34E4 JUMPI INVALID JUMPDEST SWAP1 PUSH1 0x0 MSTORE PUSH1 0x20 PUSH1 0x0 KECCAK256 SWAP1 PUSH1 0x9 MUL ADD PUSH1 0x0 ADD SLOAD PUSH2 0x54BF SWAP1 SWAP2 SWAP1 PUSH4 0xFFFFFFFF AND JUMP JUMPDEST PUSH2 0x54F9 SWAP1 SWAP2 SWAP1 PUSH4 0xFFFFFFFF AND JUMP JUMPDEST DUP4 PUSH2 0x551F SWAP1 SWAP2 SWAP1 PUSH4 0xFFFFFFFF AND JUMP JUMPDEST SWAP2 POP JUMPDEST DUP1 DUP1 PUSH1 0x1 ADD SWAP2 POP POP PUSH2 0x33C2 JUMP JUMPDEST POP PUSH2 0x3546 PUSH1 0x2 DUP3 PUSH2 0x54F9 SWAP1 SWAP2 SWAP1 PUSH4 0xFFFFFFFF AND JUMP JUMPDEST SWAP3 POP POP POP SWAP3 SWAP2 POP POP JUMP JUMPDEST PUSH1 0x0 DUP1 SWAP1 SLOAD SWAP1 PUSH2 0x100 EXP SWAP1 DIV PUSH20 0xFFFFFFFFFFFFFFFFFFFFFFFFFFFFFFFFFFFFFFFF AND PUSH20 0xFFFFFFFFFFFFFFFFFFFFFFFFFFFFFFFFFFFFFFFF AND CALLER PUSH20 0xFFFFFFFFFFFFFFFFFFFFFFFFFFFFFFFFFFFFFFFF AND EQ PUSH2 0x3612 JUMPI PUSH1 0x40 MLOAD PUSH32 0x8C379A000000000000000000000000000000000000000000000000000000000 DUP2 MSTORE PUSH1 0x4 ADD DUP1 DUP1 PUSH1 0x20 ADD DUP3 DUP2 SUB DUP3 MSTORE PUSH1 0x16 DUP2 MSTORE PUSH1 0x20 ADD DUP1 PUSH32 0x6F6E6C79206465706C6F7965722063616E2063616C6C00000000000000000000 DUP2 MSTORE POP PUSH1 0x20 ADD SWAP2 POP POP PUSH1 0x40 MLOAD DUP1 SWAP2 SUB SWAP1 REVERT JUMPDEST PUSH1 0x6 PUSH1 0x40 MLOAD DUP1 PUSH1 0x40 ADD PUSH1 0x40 MSTORE DUP1 DUP5 DUP2 MSTORE PUSH1 0x20 ADD DUP4 DUP2 MSTORE POP SWAP1 DUP1 PUSH1 0x1 DUP2 SLOAD ADD DUP1 DUP3 SSTORE DUP1 SWAP2 POP POP SWAP1 PUSH1 0x1 DUP3 SUB SWAP1 PUSH1 0x0 MSTORE PUSH1 0x20 PUSH1 0x0 KECCAK256 SWAP1 PUSH1 0x2 MUL ADD PUSH1 0x0 SWAP1 SWAP2 SWAP3 SWAP1 SWAP2 SWAP1 SWAP2 POP PUSH1 0x0 DUP3 ADD MLOAD DUP2 PUSH1 0x0 ADD SSTORE PUSH1 0x20 DUP3 ADD MLOAD DUP2 PUSH1 0x1 ADD SSTORE POP POP POP POP POP JUMP JUMPDEST PUSH1 0x7 DUP2 DUP2 SLOAD DUP2 LT PUSH2 0x367C JUMPI INVALID JUMPDEST SWAP1 PUSH1 0x0 MSTORE PUSH1 0x20 PUSH1 0x0 KECCAK256 SWAP1 PUSH1 0x2 MUL ADD PUSH1 0x0 SWAP2 POP SWAP1 POP DUP1 PUSH1 0x0 ADD SLOAD SWAP1 DUP1 PUSH1 0x1 ADD SLOAD SWAP1 POP DUP3 JUMP JUMPDEST PUSH1 0x0 PUSH2 0x36AA PUSH2 0x440B JUMP JUMPDEST SWAP1 POP PUSH1 0x0 DUP1 PUSH1 0x0 SWAP1 POP JUMPDEST DUP4 MLOAD DUP2 LT ISZERO PUSH2 0x3AF6 JUMPI PUSH2 0x36DC CALLER DUP6 DUP4 DUP2 MLOAD DUP2 LT PUSH2 0x36CD JUMPI INVALID JUMPDEST PUSH1 0x20 MUL PUSH1 0x20 ADD ADD MLOAD DUP6 DUP7 PUSH2 0x2CA5 JUMP JUMPDEST ISZERO PUSH2 0x3AE9 JUMPI PUSH2 0x3813 PUSH2 0x3804 PUSH1 0xF PUSH2 0x37F6 PUSH1 0x6 PUSH1 0x8 PUSH1 0x0 CALLER PUSH20 0xFFFFFFFFFFFFFFFFFFFFFFFFFFFFFFFFFFFFFFFF AND PUSH20 0xFFFFFFFFFFFFFFFFFFFFFFFFFFFFFFFFFFFFFFFF AND DUP2 MSTORE PUSH1 0x20 ADD SWAP1 DUP2 MSTORE PUSH1 0x20 ADD PUSH1 0x0 KECCAK256 DUP10 DUP8 DUP2 MLOAD DUP2 LT PUSH2 0x3739 JUMPI INVALID JUMPDEST PUSH1 0x20 MUL PUSH1 0x20 ADD ADD MLOAD DUP2 SLOAD DUP2 LT PUSH2 0x374B JUMPI INVALID JUMPDEST SWAP1 PUSH1 0x0 MSTORE PUSH1 0x20 PUSH1 0x0 KECCAK256 SWAP1 PUSH1 0x9 MUL ADD PUSH1 0x2 ADD SLOAD DUP2 SLOAD DUP2 LT PUSH2 0x3767 JUMPI INVALID JUMPDEST SWAP1 PUSH1 0x0 MSTORE PUSH1 0x20 PUSH1 0x0 KECCAK256 SWAP1 PUSH1 0x2 MUL ADD PUSH1 0x1 ADD SLOAD PUSH1 0x8 PUSH1 0x0 CALLER PUSH20 0xFFFFFFFFFFFFFFFFFFFFFFFFFFFFFFFFFFFFFFFF AND PUSH20 0xFFFFFFFFFFFFFFFFFFFFFFFFFFFFFFFFFFFFFFFF AND DUP2 MSTORE PUSH1 0x20 ADD SWAP1 DUP2 MSTORE PUSH1 0x20 ADD PUSH1 0x0 KECCAK256 DUP10 DUP8 DUP2 MLOAD DUP2 LT PUSH2 0x37C4 JUMPI INVALID JUMPDEST PUSH1 0x20 MUL PUSH1 0x20 ADD ADD MLOAD DUP2 SLOAD DUP2 LT PUSH2 0x37D6 JUMPI INVALID JUMPDEST SWAP1 PUSH1 0x0 MSTORE PUSH1 0x20 PUSH1 0x0 KECCAK256 SWAP1 PUSH1 0x9 MUL ADD PUSH1 0x0 ADD SLOAD PUSH2 0x54BF SWAP1 SWAP2 SWAP1 PUSH4 0xFFFFFFFF AND JUMP JUMPDEST PUSH2 0x54F9 SWAP1 SWAP2 SWAP1 PUSH4 0xFFFFFFFF AND JUMP JUMPDEST DUP4 PUSH2 0x551F SWAP1 SWAP2 SWAP1 PUSH4 0xFFFFFFFF AND JUMP JUMPDEST SWAP2 POP PUSH1 0x0 PUSH2 0x38AE PUSH1 0x4 SLOAD PUSH2 0x38A0 PUSH1 0x3 SLOAD PUSH1 0x8 PUSH1 0x0 CALLER PUSH20 0xFFFFFFFFFFFFFFFFFFFFFFFFFFFFFFFFFFFFFFFF AND PUSH20 0xFFFFFFFFFFFFFFFFFFFFFFFFFFFFFFFFFFFFFFFF AND DUP2 MSTORE PUSH1 0x20 ADD SWAP1 DUP2 MSTORE PUSH1 0x20 ADD PUSH1 0x0 KECCAK256 DUP10 DUP8 DUP2 MLOAD DUP2 LT PUSH2 0x386E JUMPI INVALID JUMPDEST PUSH1 0x20 MUL PUSH1 0x20 ADD ADD MLOAD DUP2 SLOAD DUP2 LT PUSH2 0x3880 JUMPI INVALID JUMPDEST SWAP1 PUSH1 0x0 MSTORE PUSH1 0x20 PUSH1 0x0 KECCAK256 SWAP1 PUSH1 0x9 MUL ADD PUSH1 0x1 ADD SLOAD PUSH2 0x549F SWAP1 SWAP2 SWAP1 PUSH4 0xFFFFFFFF AND JUMP JUMPDEST PUSH2 0x54F9 SWAP1 SWAP2 SWAP1 PUSH4 0xFFFFFFFF AND JUMP JUMPDEST SWAP1 POP PUSH1 0x0 PUSH1 0x6 PUSH1 0x8 PUSH1 0x0 CALLER PUSH20 0xFFFFFFFFFFFFFFFFFFFFFFFFFFFFFFFFFFFFFFFF AND PUSH20 0xFFFFFFFFFFFFFFFFFFFFFFFFFFFFFFFFFFFFFFFF AND DUP2 MSTORE PUSH1 0x20 ADD SWAP1 DUP2 MSTORE PUSH1 0x20 ADD PUSH1 0x0 KECCAK256 DUP8 DUP6 DUP2 MLOAD DUP2 LT PUSH2 0x38FF JUMPI INVALID JUMPDEST PUSH1 0x20 MUL PUSH1 0x20 ADD ADD MLOAD DUP2 SLOAD DUP2 LT PUSH2 0x3911 JUMPI INVALID JUMPDEST SWAP1 PUSH1 0x0 MSTORE PUSH1 0x20 PUSH1 0x0 KECCAK256 SWAP1 PUSH1 0x9 MUL ADD PUSH1 0x2 ADD SLOAD DUP2 SLOAD DUP2 LT PUSH2 0x392D JUMPI INVALID JUMPDEST SWAP1 PUSH1 0x0 MSTORE PUSH1 0x20 PUSH1 0x0 KECCAK256 SWAP1 PUSH1 0x2 MUL ADD PUSH1 0x0 ADD SLOAD DUP3 ADD SWAP1 POP PUSH1 0x0 PUSH1 0x1 DUP7 ADD SWAP1 POP JUMPDEST DUP2 DUP2 GT PUSH2 0x399D JUMPI PUSH2 0x3979 DUP6 PUSH1 0xA PUSH1 0x0 DUP5 DUP2 MSTORE PUSH1 0x20 ADD SWAP1 DUP2 MSTORE PUSH1 0x20 ADD PUSH1 0x0 KECCAK256 SLOAD PUSH2 0x549F SWAP1 SWAP2 SWAP1 PUSH4 0xFFFFFFFF AND JUMP JUMPDEST PUSH1 0xA PUSH1 0x0 DUP4 DUP2 MSTORE PUSH1 0x20 ADD SWAP1 DUP2 MSTORE PUSH1 0x20 ADD PUSH1 0x0 KECCAK256 DUP2 SWAP1 SSTORE POP DUP1 DUP1 PUSH1 0x1 ADD SWAP2 POP POP PUSH2 0x394C JUMP JUMPDEST POP PUSH1 0x0 PUSH1 0x1 SWAP1 POP JUMPDEST PUSH1 0x7 DUP10 DUP2 SLOAD DUP2 LT PUSH2 0x39B2 JUMPI INVALID JUMPDEST SWAP1 PUSH1 0x0 MSTORE PUSH1 0x20 PUSH1 0x0 KECCAK256 SWAP1 PUSH1 0x2 MUL ADD PUSH1 0x0 ADD SLOAD DUP2 GT PUSH2 0x3AE5 JUMPI PUSH1 0x1 PUSH1 0x8 PUSH1 0x0 CALLER PUSH20 0xFFFFFFFFFFFFFFFFFFFFFFFFFFFFFFFFFFFFFFFF AND PUSH20 0xFFFFFFFFFFFFFFFFFFFFFFFFFFFFFFFFFFFFFFFF AND DUP2 MSTORE PUSH1 0x20 ADD SWAP1 DUP2 MSTORE PUSH1 0x20 ADD PUSH1 0x0 KECCAK256 DUP9 DUP7 DUP2 MLOAD DUP2 LT PUSH2 0x3A17 JUMPI INVALID JUMPDEST PUSH1 0x20 MUL PUSH1 0x20 ADD ADD MLOAD DUP2 SLOAD DUP2 LT PUSH2 0x3A29 JUMPI INVALID JUMPDEST SWAP1 PUSH1 0x0 MSTORE PUSH1 0x20 PUSH1 0x0 KECCAK256 SWAP1 PUSH1 0x9 MUL ADD PUSH1 0x6 ADD PUSH1 0x0 DUP4 DUP10 ADD DUP2 MSTORE PUSH1 0x20 ADD SWAP1 DUP2 MSTORE PUSH1 0x20 ADD PUSH1 0x0 KECCAK256 PUSH1 0x0 PUSH2 0x100 EXP DUP2 SLOAD DUP2 PUSH1 0xFF MUL NOT AND SWAP1 DUP4 ISZERO ISZERO MUL OR SWAP1 SSTORE POP PUSH1 0x2 PUSH1 0x8 PUSH1 0x0 CALLER PUSH20 0xFFFFFFFFFFFFFFFFFFFFFFFFFFFFFFFFFFFFFFFF AND PUSH20 0xFFFFFFFFFFFFFFFFFFFFFFFFFFFFFFFFFFFFFFFF AND DUP2 MSTORE PUSH1 0x20 ADD SWAP1 DUP2 MSTORE PUSH1 0x20 ADD PUSH1 0x0 KECCAK256 DUP9 DUP7 DUP2 MLOAD DUP2 LT PUSH2 0x3AB1 JUMPI INVALID JUMPDEST PUSH1 0x20 MUL PUSH1 0x20 ADD ADD MLOAD DUP2 SLOAD DUP2 LT PUSH2 0x3AC3 JUMPI INVALID JUMPDEST SWAP1 PUSH1 0x0 MSTORE PUSH1 0x20 PUSH1 0x0 KECCAK256 SWAP1 PUSH1 0x9 MUL ADD PUSH1 0x3 ADD DUP2 SWAP1 SSTORE POP DUP1 DUP1 PUSH1 0x1 ADD SWAP2 POP POP PUSH2 0x39A5 JUMP JUMPDEST POP POP POP JUMPDEST DUP1 DUP1 PUSH1 0x1 ADD SWAP2 POP POP PUSH2 0x36B4 JUMP JUMPDEST POP PUSH1 0x0 PUSH2 0x3B0D PUSH1 0x2 DUP4 PUSH2 0x54F9 SWAP1 SWAP2 SWAP1 PUSH4 0xFFFFFFFF AND JUMP JUMPDEST SWAP1 POP DUP1 DUP6 GT ISZERO PUSH2 0x3B6F JUMPI PUSH1 0x0 PUSH2 0x3B6E JUMPI PUSH1 0x40 MLOAD PUSH32 0x8C379A000000000000000000000000000000000000000000000000000000000 DUP2 MSTORE PUSH1 0x4 ADD DUP1 DUP1 PUSH1 0x20 ADD DUP3 DUP2 SUB DUP3 MSTORE PUSH1 0x26 DUP2 MSTORE PUSH1 0x20 ADD DUP1 PUSH2 0x55CB PUSH1 0x26 SWAP2 CODECOPY PUSH1 0x40 ADD SWAP2 POP POP PUSH1 0x40 MLOAD DUP1 SWAP2 SUB SWAP1 REVERT JUMPDEST JUMPDEST PUSH1 0x0 PUSH2 0x3BB5 PUSH1 0x64 PUSH2 0x3BA7 PUSH1 0x7 DUP11 DUP2 SLOAD DUP2 LT PUSH2 0x3B86 JUMPI INVALID JUMPDEST SWAP1 PUSH1 0x0 MSTORE PUSH1 0x20 PUSH1 0x0 KECCAK256 SWAP1 PUSH1 0x2 MUL ADD PUSH1 0x1 ADD SLOAD DUP10 PUSH2 0x54BF SWAP1 SWAP2 SWAP1 PUSH4 0xFFFFFFFF AND JUMP JUMPDEST PUSH2 0x54F9 SWAP1 SWAP2 SWAP1 PUSH4 0xFFFFFFFF AND JUMP JUMPDEST SWAP1 POP PUSH1 0x0 PUSH2 0x3BCC DUP3 DUP9 PUSH2 0x549F SWAP1 SWAP2 SWAP1 PUSH4 0xFFFFFFFF AND JUMP JUMPDEST SWAP1 POP PUSH1 0x1 PUSH1 0x0 SWAP1 SLOAD SWAP1 PUSH2 0x100 EXP SWAP1 DIV PUSH20 0xFFFFFFFFFFFFFFFFFFFFFFFFFFFFFFFFFFFFFFFF AND PUSH20 0xFFFFFFFFFFFFFFFFFFFFFFFFFFFFFFFFFFFFFFFF AND PUSH4 0xA9059CBB PUSH1 0x2 PUSH1 0x0 SWAP1 SLOAD SWAP1 PUSH2 0x100 EXP SWAP1 DIV PUSH20 0xFFFFFFFFFFFFFFFFFFFFFFFFFFFFFFFFFFFFFFFF AND DUP5 PUSH1 0x40 MLOAD DUP4 PUSH4 0xFFFFFFFF AND PUSH1 0xE0 SHL DUP2 MSTORE PUSH1 0x4 ADD DUP1 DUP4 PUSH20 0xFFFFFFFFFFFFFFFFFFFFFFFFFFFFFFFFFFFFFFFF AND PUSH20 0xFFFFFFFFFFFFFFFFFFFFFFFFFFFFFFFFFFFFFFFF AND DUP2 MSTORE PUSH1 0x20 ADD DUP3 DUP2 MSTORE PUSH1 0x20 ADD SWAP3 POP POP POP PUSH1 0x20 PUSH1 0x40 MLOAD DUP1 DUP4 SUB DUP2 PUSH1 0x0 DUP8 DUP1 EXTCODESIZE ISZERO DUP1 ISZERO PUSH2 0x3C99 JUMPI PUSH1 0x0 DUP1 REVERT JUMPDEST POP GAS CALL ISZERO DUP1 ISZERO PUSH2 0x3CAD JUMPI RETURNDATASIZE PUSH1 0x0 DUP1 RETURNDATACOPY RETURNDATASIZE PUSH1 0x0 REVERT JUMPDEST POP POP POP POP PUSH1 0x40 MLOAD RETURNDATASIZE PUSH1 0x20 DUP2 LT ISZERO PUSH2 0x3CC3 JUMPI PUSH1 0x0 DUP1 REVERT JUMPDEST DUP2 ADD SWAP1 DUP1 DUP1 MLOAD SWAP1 PUSH1 0x20 ADD SWAP1 SWAP3 SWAP2 SWAP1 POP POP POP PUSH2 0x3CDD JUMPI PUSH1 0x0 DUP1 REVERT JUMPDEST PUSH1 0x2 PUSH1 0x0 SWAP1 SLOAD SWAP1 PUSH2 0x100 EXP SWAP1 DIV PUSH20 0xFFFFFFFFFFFFFFFFFFFFFFFFFFFFFFFFFFFFFFFF AND PUSH20 0xFFFFFFFFFFFFFFFFFFFFFFFFFFFFFFFFFFFFFFFF AND PUSH4 0x382E2AAB DUP4 PUSH1 0x40 MLOAD DUP3 PUSH4 0xFFFFFFFF AND PUSH1 0xE0 SHL DUP2 MSTORE PUSH1 0x4 ADD DUP1 DUP3 DUP2 MSTORE PUSH1 0x20 ADD SWAP2 POP POP PUSH1 0x20 PUSH1 0x40 MLOAD DUP1 DUP4 SUB DUP2 PUSH1 0x0 DUP8 DUP1 EXTCODESIZE ISZERO DUP1 ISZERO PUSH2 0x3D52 JUMPI PUSH1 0x0 DUP1 REVERT JUMPDEST POP GAS CALL ISZERO DUP1 ISZERO PUSH2 0x3D66 JUMPI RETURNDATASIZE PUSH1 0x0 DUP1 RETURNDATACOPY RETURNDATASIZE PUSH1 0x0 REVERT JUMPDEST POP POP POP POP PUSH1 0x40 MLOAD RETURNDATASIZE PUSH1 0x20 DUP2 LT ISZERO PUSH2 0x3D7C JUMPI PUSH1 0x0 DUP1 REVERT JUMPDEST DUP2 ADD SWAP1 DUP1 DUP1 MLOAD SWAP1 PUSH1 0x20 ADD SWAP1 SWAP3 SWAP2 SWAP1 POP POP POP PUSH2 0x3D96 JUMPI PUSH1 0x0 DUP1 REVERT JUMPDEST PUSH1 0x9 PUSH1 0x0 CALLER PUSH20 0xFFFFFFFFFFFFFFFFFFFFFFFFFFFFFFFFFFFFFFFF AND PUSH20 0xFFFFFFFFFFFFFFFFFFFFFFFFFFFFFFFFFFFFFFFF AND DUP2 MSTORE PUSH1 0x20 ADD SWAP1 DUP2 MSTORE PUSH1 0x20 ADD PUSH1 0x0 KECCAK256 PUSH1 0x40 MLOAD DUP1 PUSH1 0xA0 ADD PUSH1 0x40 MSTORE DUP1 DUP10 DUP2 MSTORE PUSH1 0x20 ADD PUSH1 0x1 PUSH1 0x0 SWAP1 SLOAD SWAP1 PUSH2 0x100 EXP SWAP1 DIV PUSH20 0xFFFFFFFFFFFFFFFFFFFFFFFFFFFFFFFFFFFFFFFF AND PUSH20 0xFFFFFFFFFFFFFFFFFFFFFFFFFFFFFFFFFFFFFFFF AND PUSH4 0xB81F90F3 PUSH1 0x40 MLOAD DUP2 PUSH4 0xFFFFFFFF AND PUSH1 0xE0 SHL DUP2 MSTORE PUSH1 0x4 ADD PUSH1 0x20 PUSH1 0x40 MLOAD DUP1 DUP4 SUB DUP2 DUP7 DUP1 EXTCODESIZE ISZERO DUP1 ISZERO PUSH2 0x3E4E JUMPI PUSH1 0x0 DUP1 REVERT JUMPDEST POP GAS STATICCALL ISZERO DUP1 ISZERO PUSH2 0x3E62 JUMPI RETURNDATASIZE PUSH1 0x0 DUP1 RETURNDATACOPY RETURNDATASIZE PUSH1 0x0 REVERT JUMPDEST POP POP POP POP PUSH1 0x40 MLOAD RETURNDATASIZE PUSH1 0x20 DUP2 LT ISZERO PUSH2 0x3E78 JUMPI PUSH1 0x0 DUP1 REVERT JUMPDEST DUP2 ADD SWAP1 DUP1 DUP1 MLOAD SWAP1 PUSH1 0x20 ADD SWAP1 SWAP3 SWAP2 SWAP1 POP POP POP DUP2 MSTORE PUSH1 0x20 ADD DUP11 DUP2 MSTORE PUSH1 0x20 ADD PUSH1 0x1 DUP2 MSTORE PUSH1 0x20 ADD DUP9 DUP2 MSTORE POP SWAP1 DUP1 PUSH1 0x1 DUP2 SLOAD ADD DUP1 DUP3 SSTORE DUP1 SWAP2 POP POP SWAP1 PUSH1 0x1 DUP3 SUB SWAP1 PUSH1 0x0 MSTORE PUSH1 0x20 PUSH1 0x0 KECCAK256 SWAP1 PUSH1 0x5 MUL ADD PUSH1 0x0 SWAP1 SWAP2 SWAP3 SWAP1 SWAP2 SWAP1 SWAP2 POP PUSH1 0x0 DUP3 ADD MLOAD DUP2 PUSH1 0x0 ADD SSTORE PUSH1 0x20 DUP3 ADD MLOAD DUP2 PUSH1 0x1 ADD SSTORE PUSH1 0x40 DUP3 ADD MLOAD DUP2 PUSH1 0x2 ADD SSTORE PUSH1 0x60 DUP3 ADD MLOAD DUP2 PUSH1 0x3 ADD SSTORE PUSH1 0x80 DUP3 ADD MLOAD DUP2 PUSH1 0x4 ADD SWAP1 DUP1 MLOAD SWAP1 PUSH1 0x20 ADD SWAP1 PUSH2 0x3F0E SWAP3 SWAP2 SWAP1 PUSH2 0x5558 JUMP JUMPDEST POP POP POP POP PUSH1 0x1 PUSH1 0x0 SWAP1 SLOAD SWAP1 PUSH2 0x100 EXP SWAP1 DIV PUSH20 0xFFFFFFFFFFFFFFFFFFFFFFFFFFFFFFFFFFFFFFFF AND PUSH20 0xFFFFFFFFFFFFFFFFFFFFFFFFFFFFFFFFFFFFFFFF AND PUSH4 0xA9059CBB CALLER DUP4 PUSH1 0x40 MLOAD DUP4 PUSH4 0xFFFFFFFF AND PUSH1 0xE0 SHL DUP2 MSTORE PUSH1 0x4 ADD DUP1 DUP4 PUSH20 0xFFFFFFFFFFFFFFFFFFFFFFFFFFFFFFFFFFFFFFFF AND PUSH20 0xFFFFFFFFFFFFFFFFFFFFFFFFFFFFFFFFFFFFFFFF AND DUP2 MSTORE PUSH1 0x20 ADD DUP3 DUP2 MSTORE PUSH1 0x20 ADD SWAP3 POP POP POP PUSH1 0x20 PUSH1 0x40 MLOAD DUP1 DUP4 SUB DUP2 PUSH1 0x0 DUP8 DUP1 EXTCODESIZE ISZERO DUP1 ISZERO PUSH2 0x3FBB JUMPI PUSH1 0x0 DUP1 REVERT JUMPDEST POP GAS CALL ISZERO DUP1 ISZERO PUSH2 0x3FCF JUMPI RETURNDATASIZE PUSH1 0x0 DUP1 RETURNDATACOPY RETURNDATASIZE PUSH1 0x0 REVERT JUMPDEST POP POP POP POP PUSH1 0x40 MLOAD RETURNDATASIZE PUSH1 0x20 DUP2 LT ISZERO PUSH2 0x3FE5 JUMPI PUSH1 0x0 DUP1 REVERT JUMPDEST DUP2 ADD SWAP1 DUP1 DUP1 MLOAD SWAP1 PUSH1 0x20 ADD SWAP1 SWAP3 SWAP2 SWAP1 POP POP POP PUSH2 0x3FFF JUMPI PUSH1 0x0 DUP1 REVERT JUMPDEST DUP8 CALLER PUSH20 0xFFFFFFFFFFFFFFFFFFFFFFFFFFFFFFFFFFFFFFFF AND PUSH32 0x583F4A449110798C282200EA42774808B8147FA4BCB89A6CA406DD0650E034E7 DUP10 DUP6 PUSH1 0x1 PUSH1 0x9 PUSH1 0x0 CALLER PUSH20 0xFFFFFFFFFFFFFFFFFFFFFFFFFFFFFFFFFFFFFFFF AND PUSH20 0xFFFFFFFFFFFFFFFFFFFFFFFFFFFFFFFFFFFFFFFF AND DUP2 MSTORE PUSH1 0x20 ADD SWAP1 DUP2 MSTORE PUSH1 0x20 ADD PUSH1 0x0 KECCAK256 DUP1 SLOAD SWAP1 POP SUB PUSH1 0x40 MLOAD DUP1 DUP5 DUP2 MSTORE PUSH1 0x20 ADD DUP4 DUP2 MSTORE PUSH1 0x20 ADD DUP3 DUP2 MSTORE PUSH1 0x20 ADD SWAP4 POP POP POP POP PUSH1 0x40 MLOAD DUP1 SWAP2 SUB SWAP1 LOG3 POP POP POP POP POP POP POP POP JUMP JUMPDEST PUSH1 0x0 PUSH1 0xC PUSH1 0x0 CALLER PUSH20 0xFFFFFFFFFFFFFFFFFFFFFFFFFFFFFFFFFFFFFFFF AND PUSH20 0xFFFFFFFFFFFFFFFFFFFFFFFFFFFFFFFFFFFFFFFF AND DUP2 MSTORE PUSH1 0x20 ADD SWAP1 DUP2 MSTORE PUSH1 0x20 ADD PUSH1 0x0 KECCAK256 SLOAD GT PUSH2 0x40F9 JUMPI PUSH1 0x0 DUP1 REVERT JUMPDEST PUSH1 0x0 PUSH1 0xC PUSH1 0x0 CALLER PUSH20 0xFFFFFFFFFFFFFFFFFFFFFFFFFFFFFFFFFFFFFFFF AND PUSH20 0xFFFFFFFFFFFFFFFFFFFFFFFFFFFFFFFFFFFFFFFF AND DUP2 MSTORE PUSH1 0x20 ADD SWAP1 DUP2 MSTORE PUSH1 0x20 ADD PUSH1 0x0 KECCAK256 SLOAD SWAP1 POP PUSH1 0x0 PUSH1 0xC PUSH1 0x0 CALLER PUSH20 0xFFFFFFFFFFFFFFFFFFFFFFFFFFFFFFFFFFFFFFFF AND PUSH20 0xFFFFFFFFFFFFFFFFFFFFFFFFFFFFFFFFFFFFFFFF AND DUP2 MSTORE PUSH1 0x20 ADD SWAP1 DUP2 MSTORE PUSH1 0x20 ADD PUSH1 0x0 KECCAK256 DUP2 SWAP1 SSTORE POP PUSH1 0x0 PUSH1 0x6 DUP4 DUP2 SLOAD DUP2 LT PUSH2 0x4191 JUMPI INVALID JUMPDEST SWAP1 PUSH1 0x0 MSTORE PUSH1 0x20 PUSH1 0x0 KECCAK256 SWAP1 PUSH1 0x2 MUL ADD PUSH1 0x0 ADD SLOAD PUSH1 0x1 PUSH2 0x41AD PUSH2 0x440B JUMP JUMPDEST ADD ADD SWAP1 POP PUSH1 0x0 PUSH1 0x1 PUSH2 0x41BD PUSH2 0x440B JUMP JUMPDEST ADD SWAP1 POP JUMPDEST DUP2 DUP2 LT ISZERO PUSH2 0x4203 JUMPI DUP3 PUSH1 0xA PUSH1 0x0 DUP4 DUP2 MSTORE PUSH1 0x20 ADD SWAP1 DUP2 MSTORE PUSH1 0x20 ADD PUSH1 0x0 KECCAK256 SLOAD ADD PUSH1 0xA PUSH1 0x0 DUP4 DUP2 MSTORE PUSH1 0x20 ADD SWAP1 DUP2 MSTORE PUSH1 0x20 ADD PUSH1 0x0 KECCAK256 DUP2 SWAP1 SSTORE POP DUP1 DUP1 PUSH1 0x1 ADD SWAP2 POP POP PUSH2 0x41C1 JUMP JUMPDEST POP PUSH1 0x0 PUSH1 0x8 PUSH1 0x0 CALLER PUSH20 0xFFFFFFFFFFFFFFFFFFFFFFFFFFFFFFFFFFFFFFFF AND PUSH20 0xFFFFFFFFFFFFFFFFFFFFFFFFFFFFFFFFFFFFFFFF AND DUP2 MSTORE PUSH1 0x20 ADD SWAP1 DUP2 MSTORE PUSH1 0x20 ADD PUSH1 0x0 KECCAK256 SWAP1 POP DUP1 PUSH1 0x40 MLOAD DUP1 PUSH2 0x100 ADD PUSH1 0x40 MSTORE DUP1 DUP6 DUP2 MSTORE PUSH1 0x20 ADD PUSH1 0x1 PUSH1 0x0 SWAP1 SLOAD SWAP1 PUSH2 0x100 EXP SWAP1 DIV PUSH20 0xFFFFFFFFFFFFFFFFFFFFFFFFFFFFFFFFFFFFFFFF AND PUSH20 0xFFFFFFFFFFFFFFFFFFFFFFFFFFFFFFFFFFFFFFFF AND PUSH4 0xB81F90F3 PUSH1 0x40 MLOAD DUP2 PUSH4 0xFFFFFFFF AND PUSH1 0xE0 SHL DUP2 MSTORE PUSH1 0x4 ADD PUSH1 0x20 PUSH1 0x40 MLOAD DUP1 DUP4 SUB DUP2 DUP7 DUP1 EXTCODESIZE ISZERO DUP1 ISZERO PUSH2 0x42C2 JUMPI PUSH1 0x0 DUP1 REVERT JUMPDEST POP GAS STATICCALL ISZERO DUP1 ISZERO PUSH2 0x42D6 JUMPI RETURNDATASIZE PUSH1 0x0 DUP1 RETURNDATACOPY RETURNDATASIZE PUSH1 0x0 REVERT JUMPDEST POP POP POP POP PUSH1 0x40 MLOAD RETURNDATASIZE PUSH1 0x20 DUP2 LT ISZERO PUSH2 0x42EC JUMPI PUSH1 0x0 DUP1 REVERT JUMPDEST DUP2 ADD SWAP1 DUP1 DUP1 MLOAD SWAP1 PUSH1 0x20 ADD SWAP1 SWAP3 SWAP2 SWAP1 POP POP POP DUP2 MSTORE PUSH1 0x20 ADD DUP7 DUP2 MSTORE PUSH1 0x20 ADD PUSH1 0x1 DUP2 MSTORE PUSH1 0x20 ADD PUSH1 0x0 DUP2 MSTORE PUSH1 0x20 ADD PUSH1 0x0 DUP2 MSTORE PUSH1 0x20 ADD PUSH1 0x0 DUP2 MSTORE PUSH1 0x20 ADD PUSH1 0x0 DUP2 MSTORE POP SWAP1 DUP1 PUSH1 0x1 DUP2 SLOAD ADD DUP1 DUP3 SSTORE DUP1 SWAP2 POP POP SWAP1 PUSH1 0x1 DUP3 SUB SWAP1 PUSH1 0x0 MSTORE PUSH1 0x20 PUSH1 0x0 KECCAK256 SWAP1 PUSH1 0x9 MUL ADD PUSH1 0x0 SWAP1 SWAP2 SWAP3 SWAP1 SWAP2 SWAP1 SWAP2 POP PUSH1 0x0 DUP3 ADD MLOAD DUP2 PUSH1 0x0 ADD SSTORE PUSH1 0x20 DUP3 ADD MLOAD DUP2 PUSH1 0x1 ADD SSTORE PUSH1 0x40 DUP3 ADD MLOAD DUP2 PUSH1 0x2 ADD SSTORE PUSH1 0x60 DUP3 ADD MLOAD DUP2 PUSH1 0x3 ADD SSTORE PUSH1 0x80 DUP3 ADD MLOAD DUP2 PUSH1 0x4 ADD SSTORE PUSH1 0xA0 DUP3 ADD MLOAD DUP2 PUSH1 0x5 ADD SSTORE PUSH1 0xC0 DUP3 ADD MLOAD DUP2 PUSH1 0x7 ADD SSTORE PUSH1 0xE0 DUP3 ADD MLOAD DUP2 PUSH1 0x8 ADD SSTORE POP POP POP DUP4 CALLER PUSH20 0xFFFFFFFFFFFFFFFFFFFFFFFFFFFFFFFFFFFFFFFF AND PUSH32 0x680A0E2E97AD7C29DA7985E37B699F19857C055166F801E50D90661EAE30FCC3 DUP6 PUSH1 0x1 DUP6 DUP1 SLOAD SWAP1 POP SUB PUSH1 0x40 MLOAD DUP1 DUP4 DUP2 MSTORE PUSH1 0x20 ADD DUP3 DUP2 MSTORE PUSH1 0x20 ADD SWAP3 POP POP POP PUSH1 0x40 MLOAD DUP1 SWAP2 SUB SWAP1 LOG3 POP POP POP POP JUMP JUMPDEST PUSH1 0x0 PUSH1 0x1 PUSH1 0x5 DUP1 SLOAD SWAP1 POP SUB SWAP1 POP SWAP1 JUMP JUMPDEST PUSH1 0x1 PUSH1 0x9 PUSH1 0x0 CALLER PUSH20 0xFFFFFFFFFFFFFFFFFFFFFFFFFFFFFFFFFFFFFFFF AND PUSH20 0xFFFFFFFFFFFFFFFFFFFFFFFFFFFFFFFFFFFFFFFF AND DUP2 MSTORE PUSH1 0x20 ADD SWAP1 DUP2 MSTORE PUSH1 0x20 ADD PUSH1 0x0 KECCAK256 DUP3 DUP2 SLOAD DUP2 LT PUSH2 0x4467 JUMPI INVALID JUMPDEST SWAP1 PUSH1 0x0 MSTORE PUSH1 0x20 PUSH1 0x0 KECCAK256 SWAP1 PUSH1 0x5 MUL ADD PUSH1 0x3 ADD SLOAD EQ PUSH2 0x44EC JUMPI PUSH1 0x40 MLOAD PUSH32 0x8C379A000000000000000000000000000000000000000000000000000000000 DUP2 MSTORE PUSH1 0x4 ADD DUP1 DUP1 PUSH1 0x20 ADD DUP3 DUP2 SUB DUP3 MSTORE PUSH1 0x1C DUP2 MSTORE PUSH1 0x20 ADD DUP1 PUSH32 0x63616E206F6E6C792072657061792070656E64696E67206C6F616E7300000000 DUP2 MSTORE POP PUSH1 0x20 ADD SWAP2 POP POP PUSH1 0x40 MLOAD DUP1 SWAP2 SUB SWAP1 REVERT JUMPDEST PUSH1 0x1 PUSH1 0x0 SWAP1 SLOAD SWAP1 PUSH2 0x100 EXP SWAP1 DIV PUSH20 0xFFFFFFFFFFFFFFFFFFFFFFFFFFFFFFFFFFFFFFFF AND PUSH20 0xFFFFFFFFFFFFFFFFFFFFFFFFFFFFFFFFFFFFFFFF AND PUSH4 0x23B872DD CALLER ADDRESS PUSH1 0x9 PUSH1 0x0 CALLER PUSH20 0xFFFFFFFFFFFFFFFFFFFFFFFFFFFFFFFFFFFFFFFF AND PUSH20 0xFFFFFFFFFFFFFFFFFFFFFFFFFFFFFFFFFFFFFFFF AND DUP2 MSTORE PUSH1 0x20 ADD SWAP1 DUP2 MSTORE PUSH1 0x20 ADD PUSH1 0x0 KECCAK256 DUP6 DUP2 SLOAD DUP2 LT PUSH2 0x4576 JUMPI INVALID JUMPDEST SWAP1 PUSH1 0x0 MSTORE PUSH1 0x20 PUSH1 0x0 KECCAK256 SWAP1 PUSH1 0x5 MUL ADD PUSH1 0x0 ADD SLOAD PUSH1 0x40 MLOAD DUP5 PUSH4 0xFFFFFFFF AND PUSH1 0xE0 SHL DUP2 MSTORE PUSH1 0x4 ADD DUP1 DUP5 PUSH20 0xFFFFFFFFFFFFFFFFFFFFFFFFFFFFFFFFFFFFFFFF AND PUSH20 0xFFFFFFFFFFFFFFFFFFFFFFFFFFFFFFFFFFFFFFFF AND DUP2 MSTORE PUSH1 0x20 ADD DUP4 PUSH20 0xFFFFFFFFFFFFFFFFFFFFFFFFFFFFFFFFFFFFFFFF AND PUSH20 0xFFFFFFFFFFFFFFFFFFFFFFFFFFFFFFFFFFFFFFFF AND DUP2 MSTORE PUSH1 0x20 ADD DUP3 DUP2 MSTORE PUSH1 0x20 ADD SWAP4 POP POP POP POP PUSH1 0x20 PUSH1 0x40 MLOAD DUP1 DUP4 SUB DUP2 PUSH1 0x0 DUP8 DUP1 EXTCODESIZE ISZERO DUP1 ISZERO PUSH2 0x4624 JUMPI PUSH1 0x0 DUP1 REVERT JUMPDEST POP GAS CALL ISZERO DUP1 ISZERO PUSH2 0x4638 JUMPI RETURNDATASIZE PUSH1 0x0 DUP1 RETURNDATACOPY RETURNDATASIZE PUSH1 0x0 REVERT JUMPDEST POP POP POP POP PUSH1 0x40 MLOAD RETURNDATASIZE PUSH1 0x20 DUP2 LT ISZERO PUSH2 0x464E JUMPI PUSH1 0x0 DUP1 REVERT JUMPDEST DUP2 ADD SWAP1 DUP1 DUP1 MLOAD SWAP1 PUSH1 0x20 ADD SWAP1 SWAP3 SWAP2 SWAP1 POP POP POP PUSH2 0x46B4 JUMPI PUSH1 0x40 MLOAD PUSH32 0x8C379A000000000000000000000000000000000000000000000000000000000 DUP2 MSTORE PUSH1 0x4 ADD DUP1 DUP1 PUSH1 0x20 ADD DUP3 DUP2 SUB DUP3 MSTORE PUSH1 0x40 DUP2 MSTORE PUSH1 0x20 ADD DUP1 PUSH2 0x5618 PUSH1 0x40 SWAP2 CODECOPY PUSH1 0x40 ADD SWAP2 POP POP PUSH1 0x40 MLOAD DUP1 SWAP2 SUB SWAP1 REVERT JUMPDEST PUSH1 0x2 PUSH1 0x9 PUSH1 0x0 CALLER PUSH20 0xFFFFFFFFFFFFFFFFFFFFFFFFFFFFFFFFFFFFFFFF AND PUSH20 0xFFFFFFFFFFFFFFFFFFFFFFFFFFFFFFFFFFFFFFFF AND DUP2 MSTORE PUSH1 0x20 ADD SWAP1 DUP2 MSTORE PUSH1 0x20 ADD PUSH1 0x0 KECCAK256 DUP3 DUP2 SLOAD DUP2 LT PUSH2 0x4700 JUMPI INVALID JUMPDEST SWAP1 PUSH1 0x0 MSTORE PUSH1 0x20 PUSH1 0x0 KECCAK256 SWAP1 PUSH1 0x5 MUL ADD PUSH1 0x3 ADD DUP2 SWAP1 SSTORE POP PUSH1 0x0 DUP1 SWAP1 POP JUMPDEST PUSH1 0x9 PUSH1 0x0 CALLER PUSH20 0xFFFFFFFFFFFFFFFFFFFFFFFFFFFFFFFFFFFFFFFF AND PUSH20 0xFFFFFFFFFFFFFFFFFFFFFFFFFFFFFFFFFFFFFFFF AND DUP2 MSTORE PUSH1 0x20 ADD SWAP1 DUP2 MSTORE PUSH1 0x20 ADD PUSH1 0x0 KECCAK256 DUP3 DUP2 SLOAD DUP2 LT PUSH2 0x4765 JUMPI INVALID JUMPDEST SWAP1 PUSH1 0x0 MSTORE PUSH1 0x20 PUSH1 0x0 KECCAK256 SWAP1 PUSH1 0x5 MUL ADD PUSH1 0x4 ADD DUP1 SLOAD SWAP1 POP DUP2 LT ISZERO PUSH2 0x4AB1 JUMPI PUSH1 0x0 PUSH1 0x9 PUSH1 0x0 CALLER PUSH20 0xFFFFFFFFFFFFFFFFFFFFFFFFFFFFFFFFFFFFFFFF AND PUSH20 0xFFFFFFFFFFFFFFFFFFFFFFFFFFFFFFFFFFFFFFFF AND DUP2 MSTORE PUSH1 0x20 ADD SWAP1 DUP2 MSTORE PUSH1 0x20 ADD PUSH1 0x0 KECCAK256 DUP4 DUP2 SLOAD DUP2 LT PUSH2 0x47CD JUMPI INVALID JUMPDEST SWAP1 PUSH1 0x0 MSTORE PUSH1 0x20 PUSH1 0x0 KECCAK256 SWAP1 PUSH1 0x5 MUL ADD PUSH1 0x4 ADD DUP3 DUP2 SLOAD DUP2 LT PUSH2 0x47E9 JUMPI INVALID JUMPDEST SWAP1 PUSH1 0x0 MSTORE PUSH1 0x20 PUSH1 0x0 KECCAK256 ADD SLOAD SWAP1 POP PUSH1 0x1 PUSH1 0x8 PUSH1 0x0 CALLER PUSH20 0xFFFFFFFFFFFFFFFFFFFFFFFFFFFFFFFFFFFFFFFF AND PUSH20 0xFFFFFFFFFFFFFFFFFFFFFFFFFFFFFFFFFFFFFFFF AND DUP2 MSTORE PUSH1 0x20 ADD SWAP1 DUP2 MSTORE PUSH1 0x20 ADD PUSH1 0x0 KECCAK256 DUP3 DUP2 SLOAD DUP2 LT PUSH2 0x4842 JUMPI INVALID JUMPDEST SWAP1 PUSH1 0x0 MSTORE PUSH1 0x20 PUSH1 0x0 KECCAK256 SWAP1 PUSH1 0x9 MUL ADD PUSH1 0x3 ADD DUP2 SWAP1 SSTORE POP PUSH1 0x0 PUSH2 0x48DD PUSH1 0x4 SLOAD PUSH2 0x48CF PUSH1 0x3 SLOAD PUSH1 0x8 PUSH1 0x0 CALLER PUSH20 0xFFFFFFFFFFFFFFFFFFFFFFFFFFFFFFFFFFFFFFFF AND PUSH20 0xFFFFFFFFFFFFFFFFFFFFFFFFFFFFFFFFFFFFFFFF AND DUP2 MSTORE PUSH1 0x20 ADD SWAP1 DUP2 MSTORE PUSH1 0x20 ADD PUSH1 0x0 KECCAK256 DUP7 DUP2 SLOAD DUP2 LT PUSH2 0x48AF JUMPI INVALID JUMPDEST SWAP1 PUSH1 0x0 MSTORE PUSH1 0x20 PUSH1 0x0 KECCAK256 SWAP1 PUSH1 0x9 MUL ADD PUSH1 0x1 ADD SLOAD PUSH2 0x549F SWAP1 SWAP2 SWAP1 PUSH4 0xFFFFFFFF AND JUMP JUMPDEST PUSH2 0x54F9 SWAP1 SWAP2 SWAP1 PUSH4 0xFFFFFFFF AND JUMP JUMPDEST SWAP1 POP PUSH1 0x0 PUSH1 0x6 PUSH1 0x8 PUSH1 0x0 CALLER PUSH20 0xFFFFFFFFFFFFFFFFFFFFFFFFFFFFFFFFFFFFFFFF AND PUSH20 0xFFFFFFFFFFFFFFFFFFFFFFFFFFFFFFFFFFFFFFFF AND DUP2 MSTORE PUSH1 0x20 ADD SWAP1 DUP2 MSTORE PUSH1 0x20 ADD PUSH1 0x0 KECCAK256 DUP5 DUP2 SLOAD DUP2 LT PUSH2 0x492D JUMPI INVALID JUMPDEST SWAP1 PUSH1 0x0 MSTORE PUSH1 0x20 PUSH1 0x0 KECCAK256 SWAP1 PUSH1 0x9 MUL ADD PUSH1 0x2 ADD SLOAD DUP2 SLOAD DUP2 LT PUSH2 0x4949 JUMPI INVALID JUMPDEST SWAP1 PUSH1 0x0 MSTORE PUSH1 0x20 PUSH1 0x0 KECCAK256 SWAP1 PUSH1 0x2 MUL ADD PUSH1 0x0 ADD SLOAD DUP3 ADD SWAP1 POP PUSH1 0x0 PUSH1 0x1 PUSH2 0x496B PUSH2 0x440B JUMP JUMPDEST ADD SWAP1 POP JUMPDEST DUP2 DUP2 GT PUSH2 0x4AA0 JUMPI PUSH1 0x0 PUSH1 0x8 PUSH1 0x0 CALLER PUSH20 0xFFFFFFFFFFFFFFFFFFFFFFFFFFFFFFFFFFFFFFFF AND PUSH20 0xFFFFFFFFFFFFFFFFFFFFFFFFFFFFFFFFFFFFFFFF AND DUP2 MSTORE PUSH1 0x20 ADD SWAP1 DUP2 MSTORE PUSH1 0x20 ADD PUSH1 0x0 KECCAK256 DUP6 DUP2 SLOAD DUP2 LT PUSH2 0x49C2 JUMPI INVALID JUMPDEST SWAP1 PUSH1 0x0 MSTORE PUSH1 0x20 PUSH1 0x0 KECCAK256 SWAP1 PUSH1 0x9 MUL ADD PUSH1 0x6 ADD PUSH1 0x0 DUP8 DUP2 MSTORE PUSH1 0x20 ADD SWAP1 DUP2 MSTORE PUSH1 0x20 ADD PUSH1 0x0 KECCAK256 PUSH1 0x0 PUSH2 0x100 EXP DUP2 SLOAD DUP2 PUSH1 0xFF MUL NOT AND SWAP1 DUP4 ISZERO ISZERO MUL OR SWAP1 SSTORE POP PUSH2 0x4A7C PUSH1 0x8 PUSH1 0x0 CALLER PUSH20 0xFFFFFFFFFFFFFFFFFFFFFFFFFFFFFFFFFFFFFFFF AND PUSH20 0xFFFFFFFFFFFFFFFFFFFFFFFFFFFFFFFFFFFFFFFF AND DUP2 MSTORE PUSH1 0x20 ADD SWAP1 DUP2 MSTORE PUSH1 0x20 ADD PUSH1 0x0 KECCAK256 DUP6 DUP2 SLOAD DUP2 LT PUSH2 0x4A48 JUMPI INVALID JUMPDEST SWAP1 PUSH1 0x0 MSTORE PUSH1 0x20 PUSH1 0x0 KECCAK256 SWAP1 PUSH1 0x9 MUL ADD PUSH1 0x0 ADD SLOAD PUSH1 0xA PUSH1 0x0 DUP5 DUP2 MSTORE PUSH1 0x20 ADD SWAP1 DUP2 MSTORE PUSH1 0x20 ADD PUSH1 0x0 KECCAK256 SLOAD PUSH2 0x551F SWAP1 SWAP2 SWAP1 PUSH4 0xFFFFFFFF AND JUMP JUMPDEST PUSH1 0xA PUSH1 0x0 DUP4 DUP2 MSTORE PUSH1 0x20 ADD SWAP1 DUP2 MSTORE PUSH1 0x20 ADD PUSH1 0x0 KECCAK256 DUP2 SWAP1 SSTORE POP DUP1 DUP1 PUSH1 0x1 ADD SWAP2 POP POP PUSH2 0x496F JUMP JUMPDEST POP POP POP POP DUP1 DUP1 PUSH1 0x1 ADD SWAP2 POP POP PUSH2 0x471B JUMP JUMPDEST POP POP JUMP JUMPDEST PUSH1 0x1 PUSH1 0x0 SWAP1 SLOAD SWAP1 PUSH2 0x100 EXP SWAP1 DIV PUSH20 0xFFFFFFFFFFFFFFFFFFFFFFFFFFFFFFFFFFFFFFFF AND PUSH20 0xFFFFFFFFFFFFFFFFFFFFFFFFFFFFFFFFFFFFFFFF AND PUSH4 0x23B872DD CALLER ADDRESS DUP6 PUSH1 0x40 MLOAD DUP5 PUSH4 0xFFFFFFFF AND PUSH1 0xE0 SHL DUP2 MSTORE PUSH1 0x4 ADD DUP1 DUP5 PUSH20 0xFFFFFFFFFFFFFFFFFFFFFFFFFFFFFFFFFFFFFFFF AND PUSH20 0xFFFFFFFFFFFFFFFFFFFFFFFFFFFFFFFFFFFFFFFF AND DUP2 MSTORE PUSH1 0x20 ADD DUP4 PUSH20 0xFFFFFFFFFFFFFFFFFFFFFFFFFFFFFFFFFFFFFFFF AND PUSH20 0xFFFFFFFFFFFFFFFFFFFFFFFFFFFFFFFFFFFFFFFF AND DUP2 MSTORE PUSH1 0x20 ADD DUP3 DUP2 MSTORE PUSH1 0x20 ADD SWAP4 POP POP POP POP PUSH1 0x20 PUSH1 0x40 MLOAD DUP1 DUP4 SUB DUP2 PUSH1 0x0 DUP8 DUP1 EXTCODESIZE ISZERO DUP1 ISZERO PUSH2 0x4B92 JUMPI PUSH1 0x0 DUP1 REVERT JUMPDEST POP GAS CALL ISZERO DUP1 ISZERO PUSH2 0x4BA6 JUMPI RETURNDATASIZE PUSH1 0x0 DUP1 RETURNDATACOPY RETURNDATASIZE PUSH1 0x0 REVERT JUMPDEST POP POP POP POP PUSH1 0x40 MLOAD RETURNDATASIZE PUSH1 0x20 DUP2 LT ISZERO PUSH2 0x4BBC JUMPI PUSH1 0x0 DUP1 REVERT JUMPDEST DUP2 ADD SWAP1 DUP1 DUP1 MLOAD SWAP1 PUSH1 0x20 ADD SWAP1 SWAP3 SWAP2 SWAP1 POP POP POP PUSH2 0x4C3F JUMPI PUSH1 0x40 MLOAD PUSH32 0x8C379A000000000000000000000000000000000000000000000000000000000 DUP2 MSTORE PUSH1 0x4 ADD DUP1 DUP1 PUSH1 0x20 ADD DUP3 DUP2 SUB DUP3 MSTORE PUSH1 0x19 DUP2 MSTORE PUSH1 0x20 ADD DUP1 PUSH32 0x636F756C64206E6F74207472616E7366657220746F6B656E7300000000000000 DUP2 MSTORE POP PUSH1 0x20 ADD SWAP2 POP POP PUSH1 0x40 MLOAD DUP1 SWAP2 SUB SWAP1 REVERT JUMPDEST PUSH1 0x0 PUSH1 0x6 DUP3 DUP2 SLOAD DUP2 LT PUSH2 0x4C4E JUMPI INVALID JUMPDEST SWAP1 PUSH1 0x0 MSTORE PUSH1 0x20 PUSH1 0x0 KECCAK256 SWAP1 PUSH1 0x2 MUL ADD PUSH1 0x0 ADD SLOAD PUSH1 0x1 PUSH2 0x4C6A PUSH2 0x440B JUMP JUMPDEST ADD ADD SWAP1 POP PUSH1 0x0 PUSH1 0x1 PUSH2 0x4C7A PUSH2 0x440B JUMP JUMPDEST ADD SWAP1 POP JUMPDEST DUP2 DUP2 LT ISZERO PUSH2 0x4CC0 JUMPI DUP4 PUSH1 0xA PUSH1 0x0 DUP4 DUP2 MSTORE PUSH1 0x20 ADD SWAP1 DUP2 MSTORE PUSH1 0x20 ADD PUSH1 0x0 KECCAK256 SLOAD ADD PUSH1 0xA PUSH1 0x0 DUP4 DUP2 MSTORE PUSH1 0x20 ADD SWAP1 DUP2 MSTORE PUSH1 0x20 ADD PUSH1 0x0 KECCAK256 DUP2 SWAP1 SSTORE POP DUP1 DUP1 PUSH1 0x1 ADD SWAP2 POP POP PUSH2 0x4C7E JUMP JUMPDEST POP PUSH1 0x0 PUSH1 0x8 PUSH1 0x0 CALLER PUSH20 0xFFFFFFFFFFFFFFFFFFFFFFFFFFFFFFFFFFFFFFFF AND PUSH20 0xFFFFFFFFFFFFFFFFFFFFFFFFFFFFFFFFFFFFFFFF AND DUP2 MSTORE PUSH1 0x20 ADD SWAP1 DUP2 MSTORE PUSH1 0x20 ADD PUSH1 0x0 KECCAK256 SWAP1 POP DUP1 PUSH1 0x40 MLOAD DUP1 PUSH2 0x100 ADD PUSH1 0x40 MSTORE DUP1 DUP7 DUP2 MSTORE PUSH1 0x20 ADD PUSH1 0x1 PUSH1 0x0 SWAP1 SLOAD SWAP1 PUSH2 0x100 EXP SWAP1 DIV PUSH20 0xFFFFFFFFFFFFFFFFFFFFFFFFFFFFFFFFFFFFFFFF AND PUSH20 0xFFFFFFFFFFFFFFFFFFFFFFFFFFFFFFFFFFFFFFFF AND PUSH4 0xB81F90F3 PUSH1 0x40 MLOAD DUP2 PUSH4 0xFFFFFFFF AND PUSH1 0xE0 SHL DUP2 MSTORE PUSH1 0x4 ADD PUSH1 0x20 PUSH1 0x40 MLOAD DUP1 DUP4 SUB DUP2 DUP7 DUP1 EXTCODESIZE ISZERO DUP1 ISZERO PUSH2 0x4D7F JUMPI PUSH1 0x0 DUP1 REVERT JUMPDEST POP GAS STATICCALL ISZERO DUP1 ISZERO PUSH2 0x4D93 JUMPI RETURNDATASIZE PUSH1 0x0 DUP1 RETURNDATACOPY RETURNDATASIZE PUSH1 0x0 REVERT JUMPDEST POP POP POP POP PUSH1 0x40 MLOAD RETURNDATASIZE PUSH1 0x20 DUP2 LT ISZERO PUSH2 0x4DA9 JUMPI PUSH1 0x0 DUP1 REVERT JUMPDEST DUP2 ADD SWAP1 DUP1 DUP1 MLOAD SWAP1 PUSH1 0x20 ADD SWAP1 SWAP3 SWAP2 SWAP1 POP POP POP DUP2 MSTORE PUSH1 0x20 ADD DUP6 DUP2 MSTORE PUSH1 0x20 ADD PUSH1 0x1 DUP2 MSTORE PUSH1 0x20 ADD PUSH1 0x0 DUP2 MSTORE PUSH1 0x20 ADD PUSH1 0x0 DUP2 MSTORE PUSH1 0x20 ADD PUSH1 0x0 DUP2 MSTORE PUSH1 0x20 ADD PUSH1 0x0 DUP2 MSTORE POP SWAP1 DUP1 PUSH1 0x1 DUP2 SLOAD ADD DUP1 DUP3 SSTORE DUP1 SWAP2 POP POP SWAP1 PUSH1 0x1 DUP3 SUB SWAP1 PUSH1 0x0 MSTORE PUSH1 0x20 PUSH1 0x0 KECCAK256 SWAP1 PUSH1 0x9 MUL ADD PUSH1 0x0 SWAP1 SWAP2 SWAP3 SWAP1 SWAP2 SWAP1 SWAP2 POP PUSH1 0x0 DUP3 ADD MLOAD DUP2 PUSH1 0x0 ADD SSTORE PUSH1 0x20 DUP3 ADD MLOAD DUP2 PUSH1 0x1 ADD SSTORE PUSH1 0x40 DUP3 ADD MLOAD DUP2 PUSH1 0x2 ADD SSTORE PUSH1 0x60 DUP3 ADD MLOAD DUP2 PUSH1 0x3 ADD SSTORE PUSH1 0x80 DUP3 ADD MLOAD DUP2 PUSH1 0x4 ADD SSTORE PUSH1 0xA0 DUP3 ADD MLOAD DUP2 PUSH1 0x5 ADD SSTORE PUSH1 0xC0 DUP3 ADD MLOAD DUP2 PUSH1 0x7 ADD SSTORE PUSH1 0xE0 DUP3 ADD MLOAD DUP2 PUSH1 0x8 ADD SSTORE POP POP POP DUP3 CALLER PUSH20 0xFFFFFFFFFFFFFFFFFFFFFFFFFFFFFFFFFFFFFFFF AND PUSH32 0x680A0E2E97AD7C29DA7985E37B699F19857C055166F801E50D90661EAE30FCC3 DUP7 PUSH1 0x1 DUP6 DUP1 SLOAD SWAP1 POP SUB PUSH1 0x40 MLOAD DUP1 DUP4 DUP2 MSTORE PUSH1 0x20 ADD DUP3 DUP2 MSTORE PUSH1 0x20 ADD SWAP3 POP POP POP PUSH1 0x40 MLOAD DUP1 SWAP2 SUB SWAP1 LOG3 POP POP POP POP JUMP JUMPDEST PUSH1 0x3 SLOAD DUP2 JUMP JUMPDEST PUSH1 0x2 PUSH1 0x0 SWAP1 SLOAD SWAP1 PUSH2 0x100 EXP SWAP1 DIV PUSH20 0xFFFFFFFFFFFFFFFFFFFFFFFFFFFFFFFFFFFFFFFF AND PUSH20 0xFFFFFFFFFFFFFFFFFFFFFFFFFFFFFFFFFFFFFFFF AND CALLER PUSH20 0xFFFFFFFFFFFFFFFFFFFFFFFFFFFFFFFFFFFFFFFF AND EQ PUSH2 0x4F91 JUMPI PUSH1 0x40 MLOAD PUSH32 0x8C379A000000000000000000000000000000000000000000000000000000000 DUP2 MSTORE PUSH1 0x4 ADD DUP1 DUP1 PUSH1 0x20 ADD DUP3 DUP2 SUB DUP3 MSTORE PUSH1 0x19 DUP2 MSTORE PUSH1 0x20 ADD DUP1 PUSH32 0x6F6E6C79204E5254206D616E616765722063616E2063616C6C00000000000000 DUP2 MSTORE POP PUSH1 0x20 ADD SWAP2 POP POP PUSH1 0x40 MLOAD DUP1 SWAP2 SUB SWAP1 REVERT JUMPDEST PUSH1 0x5 DUP2 SWAP1 DUP1 PUSH1 0x1 DUP2 SLOAD ADD DUP1 DUP3 SSTORE DUP1 SWAP2 POP POP SWAP1 PUSH1 0x1 DUP3 SUB SWAP1 PUSH1 0x0 MSTORE PUSH1 0x20 PUSH1 0x0 KECCAK256 ADD PUSH1 0x0 SWAP1 SWAP2 SWAP3 SWAP1 SWAP2 SWAP1 SWAP2 POP SSTORE POP POP JUMP JUMPDEST PUSH1 0x0 DUP1 SWAP1 POP JUMPDEST DUP2 MLOAD DUP2 LT ISZERO PUSH2 0x537B JUMPI PUSH1 0x3 PUSH1 0x8 PUSH1 0x0 CALLER PUSH20 0xFFFFFFFFFFFFFFFFFFFFFFFFFFFFFFFFFFFFFFFF AND PUSH20 0xFFFFFFFFFFFFFFFFFFFFFFFFFFFFFFFFFFFFFFFF AND DUP2 MSTORE PUSH1 0x20 ADD SWAP1 DUP2 MSTORE PUSH1 0x20 ADD PUSH1 0x0 KECCAK256 DUP4 DUP4 DUP2 MLOAD DUP2 LT PUSH2 0x501C JUMPI INVALID JUMPDEST PUSH1 0x20 MUL PUSH1 0x20 ADD ADD MLOAD DUP2 SLOAD DUP2 LT PUSH2 0x502E JUMPI INVALID JUMPDEST SWAP1 PUSH1 0x0 MSTORE PUSH1 0x20 PUSH1 0x0 KECCAK256 SWAP1 PUSH1 0x9 MUL ADD PUSH1 0x3 ADD DUP2 SWAP1 SSTORE POP PUSH1 0x0 PUSH1 0x8 PUSH1 0x0 CALLER PUSH20 0xFFFFFFFFFFFFFFFFFFFFFFFFFFFFFFFFFFFFFFFF AND PUSH20 0xFFFFFFFFFFFFFFFFFFFFFFFFFFFFFFFFFFFFFFFF AND DUP2 MSTORE PUSH1 0x20 ADD SWAP1 DUP2 MSTORE PUSH1 0x20 ADD PUSH1 0x0 KECCAK256 DUP4 DUP4 DUP2 MLOAD DUP2 LT PUSH2 0x5090 JUMPI INVALID JUMPDEST PUSH1 0x20 MUL PUSH1 0x20 ADD ADD MLOAD DUP2 SLOAD DUP2 LT PUSH2 0x50A2 JUMPI INVALID JUMPDEST SWAP1 PUSH1 0x0 MSTORE PUSH1 0x20 PUSH1 0x0 KECCAK256 SWAP1 PUSH1 0x9 MUL ADD PUSH1 0x4 ADD SLOAD GT ISZERO PUSH2 0x521B JUMPI PUSH1 0x0 PUSH1 0x8 PUSH1 0x0 CALLER PUSH20 0xFFFFFFFFFFFFFFFFFFFFFFFFFFFFFFFFFFFFFFFF AND PUSH20 0xFFFFFFFFFFFFFFFFFFFFFFFFFFFFFFFFFFFFFFFF AND DUP2 MSTORE PUSH1 0x20 ADD SWAP1 DUP2 MSTORE PUSH1 0x20 ADD PUSH1 0x0 KECCAK256 DUP4 DUP4 DUP2 MLOAD DUP2 LT PUSH2 0x5107 JUMPI INVALID JUMPDEST PUSH1 0x20 MUL PUSH1 0x20 ADD ADD MLOAD DUP2 SLOAD DUP2 LT PUSH2 0x5119 JUMPI INVALID JUMPDEST SWAP1 PUSH1 0x0 MSTORE PUSH1 0x20 PUSH1 0x0 KECCAK256 SWAP1 PUSH1 0x9 MUL ADD PUSH1 0x4 ADD SLOAD SWAP1 POP PUSH1 0x0 PUSH1 0x8 PUSH1 0x0 CALLER PUSH20 0xFFFFFFFFFFFFFFFFFFFFFFFFFFFFFFFFFFFFFFFF AND PUSH20 0xFFFFFFFFFFFFFFFFFFFFFFFFFFFFFFFFFFFFFFFF AND DUP2 MSTORE PUSH1 0x20 ADD SWAP1 DUP2 MSTORE PUSH1 0x20 ADD PUSH1 0x0 KECCAK256 DUP5 DUP5 DUP2 MLOAD DUP2 LT PUSH2 0x517A JUMPI INVALID JUMPDEST PUSH1 0x20 MUL PUSH1 0x20 ADD ADD MLOAD DUP2 SLOAD DUP2 LT PUSH2 0x518C JUMPI INVALID JUMPDEST SWAP1 PUSH1 0x0 MSTORE PUSH1 0x20 PUSH1 0x0 KECCAK256 SWAP1 PUSH1 0x9 MUL ADD PUSH1 0x4 ADD DUP2 SWAP1 SSTORE POP PUSH2 0x5219 DUP2 PUSH1 0x8 PUSH1 0x0 CALLER PUSH20 0xFFFFFFFFFFFFFFFFFFFFFFFFFFFFFFFFFFFFFFFF AND PUSH20 0xFFFFFFFFFFFFFFFFFFFFFFFFFFFFFFFFFFFFFFFF AND DUP2 MSTORE PUSH1 0x20 ADD SWAP1 DUP2 MSTORE PUSH1 0x20 ADD PUSH1 0x0 KECCAK256 DUP6 DUP6 DUP2 MLOAD DUP2 LT PUSH2 0x51F0 JUMPI INVALID JUMPDEST PUSH1 0x20 MUL PUSH1 0x20 ADD ADD MLOAD DUP2 SLOAD DUP2 LT PUSH2 0x5202 JUMPI INVALID JUMPDEST SWAP1 PUSH1 0x0 MSTORE PUSH1 0x20 PUSH1 0x0 KECCAK256 SWAP1 PUSH1 0x9 MUL ADD PUSH1 0x2 ADD SLOAD PUSH2 0x4AB5 JUMP JUMPDEST POP JUMPDEST PUSH1 0x1 PUSH1 0x0 SWAP1 SLOAD SWAP1 PUSH2 0x100 EXP SWAP1 DIV PUSH20 0xFFFFFFFFFFFFFFFFFFFFFFFFFFFFFFFFFFFFFFFF AND PUSH20 0xFFFFFFFFFFFFFFFFFFFFFFFFFFFFFFFFFFFFFFFF AND PUSH4 0xA9059CBB CALLER PUSH1 0x8 PUSH1 0x0 CALLER PUSH20 0xFFFFFFFFFFFFFFFFFFFFFFFFFFFFFFFFFFFFFFFF AND PUSH20 0xFFFFFFFFFFFFFFFFFFFFFFFFFFFFFFFFFFFFFFFF AND DUP2 MSTORE PUSH1 0x20 ADD SWAP1 DUP2 MSTORE PUSH1 0x20 ADD PUSH1 0x0 KECCAK256 DUP6 DUP6 DUP2 MLOAD DUP2 LT PUSH2 0x52A5 JUMPI INVALID JUMPDEST PUSH1 0x20 MUL PUSH1 0x20 ADD ADD MLOAD DUP2 SLOAD DUP2 LT PUSH2 0x52B7 JUMPI INVALID JUMPDEST SWAP1 PUSH1 0x0 MSTORE PUSH1 0x20 PUSH1 0x0 KECCAK256 SWAP1 PUSH1 0x9 MUL ADD PUSH1 0x0 ADD SLOAD PUSH1 0x40 MLOAD DUP4 PUSH4 0xFFFFFFFF AND PUSH1 0xE0 SHL DUP2 MSTORE PUSH1 0x4 ADD DUP1 DUP4 PUSH20 0xFFFFFFFFFFFFFFFFFFFFFFFFFFFFFFFFFFFFFFFF AND PUSH20 0xFFFFFFFFFFFFFFFFFFFFFFFFFFFFFFFFFFFFFFFF AND DUP2 MSTORE PUSH1 0x20 ADD DUP3 DUP2 MSTORE PUSH1 0x20 ADD SWAP3 POP POP POP PUSH1 0x20 PUSH1 0x40 MLOAD DUP1 DUP4 SUB DUP2 PUSH1 0x0 DUP8 DUP1 EXTCODESIZE ISZERO DUP1 ISZERO PUSH2 0x5332 JUMPI PUSH1 0x0 DUP1 REVERT JUMPDEST POP GAS CALL ISZERO DUP1 ISZERO PUSH2 0x5346 JUMPI RETURNDATASIZE PUSH1 0x0 DUP1 RETURNDATACOPY RETURNDATASIZE PUSH1 0x0 REVERT JUMPDEST POP POP POP POP PUSH1 0x40 MLOAD RETURNDATASIZE PUSH1 0x20 DUP2 LT ISZERO PUSH2 0x535C JUMPI PUSH1 0x0 DUP1 REVERT JUMPDEST DUP2 ADD SWAP1 DUP1 DUP1 MLOAD SWAP1 PUSH1 0x20 ADD SWAP1 SWAP3 SWAP2 SWAP1 POP POP POP POP DUP1 DUP1 PUSH1 0x1 ADD SWAP2 POP POP PUSH2 0x4FC6 JUMP JUMPDEST POP POP JUMP JUMPDEST PUSH1 0x0 DUP1 PUSH2 0x538A PUSH2 0x440B JUMP JUMPDEST SWAP1 POP PUSH1 0x0 DUP1 PUSH1 0x0 SWAP1 POP JUMPDEST PUSH1 0x8 PUSH1 0x0 DUP8 PUSH20 0xFFFFFFFFFFFFFFFFFFFFFFFFFFFFFFFFFFFFFFFF AND PUSH20 0xFFFFFFFFFFFFFFFFFFFFFFFFFFFFFFFFFFFFFFFF AND DUP2 MSTORE PUSH1 0x20 ADD SWAP1 DUP2 MSTORE PUSH1 0x20 ADD PUSH1 0x0 KECCAK256 DUP1 SLOAD SWAP1 POP DUP2 LT ISZERO PUSH2 0x546D JUMPI PUSH2 0x53EA DUP7 DUP3 DUP6 DUP9 PUSH2 0x2CA5 JUMP JUMPDEST ISZERO PUSH2 0x5460 JUMPI PUSH2 0x545D PUSH1 0x8 PUSH1 0x0 DUP9 PUSH20 0xFFFFFFFFFFFFFFFFFFFFFFFFFFFFFFFFFFFFFFFF AND PUSH20 0xFFFFFFFFFFFFFFFFFFFFFFFFFFFFFFFFFFFFFFFF AND DUP2 MSTORE PUSH1 0x20 ADD SWAP1 DUP2 MSTORE PUSH1 0x20 ADD PUSH1 0x0 KECCAK256 DUP3 DUP2 SLOAD DUP2 LT PUSH2 0x543C JUMPI INVALID JUMPDEST SWAP1 PUSH1 0x0 MSTORE PUSH1 0x20 PUSH1 0x0 KECCAK256 SWAP1 PUSH1 0x9 MUL ADD PUSH1 0x0 ADD SLOAD DUP4 PUSH2 0x551F SWAP1 SWAP2 SWAP1 PUSH4 0xFFFFFFFF AND JUMP JUMPDEST SWAP2 POP JUMPDEST DUP1 DUP1 PUSH1 0x1 ADD SWAP2 POP POP PUSH2 0x5394 JUMP JUMPDEST POP DUP1 SWAP3 POP POP POP SWAP3 SWAP2 POP POP JUMP JUMPDEST PUSH1 0x1 PUSH1 0x0 SWAP1 SLOAD SWAP1 PUSH2 0x100 EXP SWAP1 DIV PUSH20 0xFFFFFFFFFFFFFFFFFFFFFFFFFFFFFFFFFFFFFFFF AND DUP2 JUMP JUMPDEST PUSH1 0x0 DUP3 DUP3 GT ISZERO PUSH2 0x54AE JUMPI PUSH1 0x0 DUP1 REVERT JUMPDEST PUSH1 0x0 DUP3 DUP5 SUB SWAP1 POP DUP1 SWAP2 POP POP SWAP3 SWAP2 POP POP JUMP JUMPDEST PUSH1 0x0 DUP1 DUP4 EQ ISZERO PUSH2 0x54D2 JUMPI PUSH1 0x0 SWAP1 POP PUSH2 0x54F3 JUMP JUMPDEST PUSH1 0x0 DUP3 DUP5 MUL SWAP1 POP DUP3 DUP5 DUP3 DUP2 PUSH2 0x54E3 JUMPI INVALID JUMPDEST DIV EQ PUSH2 0x54EE JUMPI PUSH1 0x0 DUP1 REVERT JUMPDEST DUP1 SWAP2 POP POP JUMPDEST SWAP3 SWAP2 POP POP JUMP JUMPDEST PUSH1 0x0 DUP1 DUP3 GT PUSH2 0x5507 JUMPI PUSH1 0x0 DUP1 REVERT JUMPDEST PUSH1 0x0 DUP3 DUP5 DUP2 PUSH2 0x5512 JUMPI INVALID JUMPDEST DIV SWAP1 POP DUP1 SWAP2 POP POP SWAP3 SWAP2 POP POP JUMP JUMPDEST PUSH1 0x0 DUP1 DUP3 DUP5 ADD SWAP1 POP DUP4 DUP2 LT ISZERO PUSH2 0x5534 JUMPI PUSH1 0x0 DUP1 REVERT JUMPDEST DUP1 SWAP2 POP POP SWAP3 SWAP2 POP POP JUMP JUMPDEST PUSH1 0x40 MLOAD DUP1 PUSH1 0x40 ADD PUSH1 0x40 MSTORE DUP1 PUSH1 0x0 DUP2 MSTORE PUSH1 0x20 ADD PUSH1 0x0 DUP2 MSTORE POP SWAP1 JUMP JUMPDEST DUP3 DUP1 SLOAD DUP3 DUP3 SSTORE SWAP1 PUSH1 0x0 MSTORE PUSH1 0x20 PUSH1 0x0 KECCAK256 SWAP1 DUP2 ADD SWAP3 DUP3 ISZERO PUSH2 0x5594 JUMPI SWAP2 PUSH1 0x20 MUL DUP3 ADD JUMPDEST DUP3 DUP2 GT ISZERO PUSH2 0x5593 JUMPI DUP3 MLOAD DUP3 SSTORE SWAP2 PUSH1 0x20 ADD SWAP2 SWAP1 PUSH1 0x1 ADD SWAP1 PUSH2 0x5578 JUMP JUMPDEST JUMPDEST POP SWAP1 POP PUSH2 0x55A1 SWAP2 SWAP1 PUSH2 0x55A5 JUMP JUMPDEST POP SWAP1 JUMP JUMPDEST PUSH2 0x55C7 SWAP2 SWAP1 JUMPDEST DUP1 DUP3 GT ISZERO PUSH2 0x55C3 JUMPI PUSH1 0x0 DUP2 PUSH1 0x0 SWAP1 SSTORE POP PUSH1 0x1 ADD PUSH2 0x55AB JUMP JUMPDEST POP SWAP1 JUMP JUMPDEST SWAP1 JUMP INVALID PUSH4 0x616E6E6F PUSH21 0x206C6F616E206D6F7265207468616E206D61784C6F PUSH2 0x6E69 PUSH15 0x67416D6F756E746163637275656450 PUSH6 0x7263656E7461 PUSH8 0x652073686F756C64 KECCAK256 PUSH3 0x652061 PUSH21 0x206C6561737420353063616E6E6F74207265636569 PUSH23 0x6520656E6F75676820746F6B656E732C20706C65617365 KECCAK256 PUSH4 0x6865636B KECCAK256 PUSH10 0x6620616C6C6F77616E63 PUSH6 0x206973207468 PUSH6 0x7265746F2063 PUSH2 0x6E73 PUSH2 0x6C2C KECCAK256 PUSH20 0x74616B696E67206D757374206265206163746976 PUSH6 0x746F74616C20 PUSH2 0x6374 PUSH10 0x7665207374616B696E67 PUSH20 0x2073686F756C64206265206E6F6E207A65726FA2 PUSH6 0x627A7A723058 KECCAK256 EXP CREATE PUSH28 0xB318EEAD9B0B04771DB5ABD6428AB46B5EA47389EC94BEB091540EC4 BYTE PUSH5 0x736F6C6343 STOP SDIV EXP STOP ORIGIN "},"gasEstimates":{"creation":{"codeDepositCost":"4445800","executionCost":"infinite","totalCost":"infinite"},"external":{"cancelStaking(uint256)":"infinite","claimLaunchReward(uint256)":"infinite","createLoanPlan(uint256,uint256)":"61017","createStakingPlan(uint256,uint256)":"61082","deployedTimestamp()":"449","earthSecondsInMonth()":"450","getCurrentMonth()":"516","getNumberOfStakingsByUser(address)":"671","giveLaunchReward(address[],uint256)":"infinite","giveLaunchRewardSeperate(address[],uint256[])":"infinite","increaseMonth(uint256)":"40895","isStakingActive(address,uint256,uint256,uint256)":"infinite","launchReward(address)":"702","launchRewardBucket()":"452","loanPlans(uint256)":"1170","loans(address,uint256)":"1711","newStaking(uint256,uint256)":"infinite","nrtManager()":"522","owner()":"521","repayLoanSelf(uint256)":"infinite","restakeAccrued(uint256,uint256)":"infinite","seeMaxLoaningAmountOnUserStakings(address,uint256[])":"infinite","seeShareForUserByMonth(address,uint256)":"infinite","stakingPlans(uint256)":"1148","stakings(address,uint256)":"2618","takeLoanOnSelfStaking(uint256,uint256,uint256[])":"infinite","timeAllyMonthlyNRT(uint256)":"826","timeAllyMonthlyNRTArray()":"infinite","token()":"585","topupRewardBucket(uint256)":"infinite","totalActiveStakings(uint256)":"653","userActiveStakingByMonth(address,uint256)":"infinite","userEffectiveStakingByMonth(address,uint256)":"infinite","viewStaking(address,uint256)":"4070","withdrawCancelStaking(uint256)":"infinite","withdrawExpiredStakings(uint256[])":"infinite","withdrawShareForUserByMonth(uint256,uint256,bool,uint256)":"infinite"}},"methodIdentifiers":{"cancelStaking(uint256)":"9ab0388b","claimLaunchReward(uint256)":"da9d8aa0","createLoanPlan(uint256,uint256)":"82f97857","createStakingPlan(uint256,uint256)":"c71d5d58","deployedTimestamp()":"e6bbe424","earthSecondsInMonth()":"582e7e9e","getCurrentMonth()":"ddd1b67e","getNumberOfStakingsByUser(address)":"ad998fa0","giveLaunchReward(address[],uint256)":"59dcc8c5","giveLaunchRewardSeperate(address[],uint256[])":"757cbe00","increaseMonth(uint256)":"e78c81c4","isStakingActive(address,uint256,uint256,uint256)":"97a332d8","launchReward(address)":"7acab857","launchRewardBucket()":"070b8195","loanPlans(uint256)":"cc44a2fd","loans(address,uint256)":"98c61c37","newStaking(uint256,uint256)":"e5fd04e6","nrtManager()":"0df5202f","owner()":"8da5cb5b","repayLoanSelf(uint256)":"dea6cf43","restakeAccrued(uint256,uint256)":"3d5d6b5a","seeMaxLoaningAmountOnUserStakings(address,uint256[])":"be4ad9c3","seeShareForUserByMonth(address,uint256)":"2f3b59ea","stakingPlans(uint256)":"762e7a34","stakings(address,uint256)":"1849d8ea","takeLoanOnSelfStaking(uint256,uint256,uint256[])":"d0e32681","timeAllyMonthlyNRT(uint256)":"23a15e6b","timeAllyMonthlyNRTArray()":"497ec40f","token()":"fc0c546a","topupRewardBucket(uint256)":"53fcb2f3","totalActiveStakings(uint256)":"4ec0692c","userActiveStakingByMonth(address,uint256)":"eb12f7f5","userEffectiveStakingByMonth(address,uint256)":"41927861","viewStaking(address,uint256)":"46a4d6e3","withdrawCancelStaking(uint256)":"217d65fb","withdrawExpiredStakings(uint256[])":"e83f7843","withdrawShareForUserByMonth(uint256,uint256,bool,uint256)":"35f406ab"}},"userdoc":{"methods":{}}}