{"abi":[{"constant":true,"inputs":[],"name":"nrtManager","outputs":[{"name":"","type":"address"}],"payable":false,"stateMutability":"view","type":"function"},{"constant":false,"inputs":[{"name":"_addressArray","type":"address[]"},{"name":"_loanIdArray","type":"uint256[]"}],"name":"burnDefaultedLoans","outputs":[],"payable":false,"stateMutability":"nonpayable","type":"function"},{"constant":true,"inputs":[{"name":"","type":"address"},{"name":"","type":"uint256"}],"name":"stakings","outputs":[{"name":"exaEsAmount","type":"uint256"},{"name":"timestamp","type":"uint256"},{"name":"stakingMonth","type":"uint256"},{"name":"stakingPlanId","type":"uint256"},{"name":"status","type":"uint256"},{"name":"loanId","type":"uint256"},{"name":"totalNominationShares","type":"uint256"}],"payable":false,"stateMutability":"view","type":"function"},{"constant":true,"inputs":[{"name":"","type":"uint256"}],"name":"timeAllyMonthlyNRT","outputs":[{"name":"","type":"uint256"}],"payable":false,"stateMutability":"view","type":"function"},{"constant":true,"inputs":[{"name":"_userAddress","type":"address"},{"name":"_stakingId","type":"uint256"},{"name":"_months","type":"uint256[]"}],"name":"seeBenefitOfAStakingByMonths","outputs":[{"name":"","type":"uint256"}],"payable":false,"stateMutability":"view","type":"function"},{"constant":true,"inputs":[{"name":"_userAddress","type":"address"},{"name":"_stakingId","type":"uint256"},{"name":"_nomineeAddress","type":"address"}],"name":"viewNomination","outputs":[{"name":"","type":"uint256"}],"payable":false,"stateMutability":"view","type":"function"},{"constant":true,"inputs":[{"name":"","type":"uint256"}],"name":"totalActiveStakings","outputs":[{"name":"","type":"uint256"}],"payable":false,"stateMutability":"view","type":"function"},{"constant":false,"inputs":[{"name":"_stakingId","type":"uint256"},{"name":"_nomineeAddress","type":"address"}],"name":"removeNominee","outputs":[],"payable":false,"stateMutability":"nonpayable","type":"function"},{"constant":false,"inputs":[{"name":"_exaEsAmount","type":"uint256"}],"name":"topupRewardBucket","outputs":[],"payable":false,"stateMutability":"nonpayable","type":"function"},{"constant":true,"inputs":[{"name":"","type":"uint256"}],"name":"stakingPlans","outputs":[{"name":"months","type":"uint256"},{"name":"fractionFrom15","type":"uint256"},{"name":"isPlanActive","type":"bool"},{"name":"isLoanAllowed","type":"bool"}],"payable":false,"stateMutability":"view","type":"function"},{"constant":false,"inputs":[{"name":"_months","type":"uint256"},{"name":"_fractionFrom15","type":"uint256"},{"name":"_isLoanAllowed","type":"bool"}],"name":"createStakingPlan","outputs":[],"payable":false,"stateMutability":"nonpayable","type":"function"},{"constant":true,"inputs":[{"name":"","type":"address"}],"name":"launchReward","outputs":[{"name":"","type":"uint256"}],"payable":false,"stateMutability":"view","type":"function"},{"constant":false,"inputs":[{"name":"_loanMonths","type":"uint256"},{"name":"_loanRate","type":"uint256"}],"name":"createLoanPlan","outputs":[],"payable":false,"stateMutability":"nonpayable","type":"function"},{"constant":false,"inputs":[{"name":"_addresses","type":"address[]"},{"name":"_exaEsAmountArray","type":"uint256[]"}],"name":"giveLaunchReward","outputs":[],"payable":false,"stateMutability":"nonpayable","type":"function"},{"constant":true,"inputs":[],"name":"owner","outputs":[{"name":"","type":"address"}],"payable":false,"stateMutability":"view","type":"function"},{"constant":false,"inputs":[{"name":"_userAddress","type":"address"},{"name":"_stakingId","type":"uint256"}],"name":"nomineeWithdraw","outputs":[],"payable":false,"stateMutability":"nonpayable","type":"function"},{"constant":true,"inputs":[{"name":"","type":"address"},{"name":"","type":"uint256"}],"name":"loans","outputs":[{"name":"exaEsAmount","type":"uint256"},{"name":"timestamp","type":"uint256"},{"name":"loanPlanId","type":"uint256"},{"name":"status","type":"uint256"}],"payable":false,"stateMutability":"view","type":"function"},{"constant":false,"inputs":[{"name":"_stakingId","type":"uint256"},{"name":"_months","type":"uint256[]"}],"name":"withdrawBenefitOfAStakingByMonths","outputs":[],"payable":false,"stateMutability":"nonpayable","type":"function"},{"constant":false,"inputs":[{"name":"_stakingId","type":"uint256"},{"name":"_nomineeAddress","type":"address"},{"name":"_shares","type":"uint256"}],"name":"addNominee","outputs":[],"payable":false,"stateMutability":"nonpayable","type":"function"},{"constant":true,"inputs":[{"name":"_userAddress","type":"address"}],"name":"getNumberOfStakingsByUser","outputs":[{"name":"","type":"uint256"}],"payable":false,"stateMutability":"view","type":"function"},{"constant":true,"inputs":[{"name":"_userAddress","type":"address"},{"name":"_stakingIds","type":"uint256[]"}],"name":"seeMaxLoaningAmountOnUserStakings","outputs":[{"name":"","type":"uint256"}],"payable":false,"stateMutability":"view","type":"function"},{"constant":false,"inputs":[{"name":"_stakingPlanId","type":"uint256"}],"name":"toggleStakingPlan","outputs":[],"payable":false,"stateMutability":"nonpayable","type":"function"},{"constant":true,"inputs":[{"name":"","type":"uint256"}],"name":"loanPlans","outputs":[{"name":"loanMonths","type":"uint256"},{"name":"loanRate","type":"uint256"}],"payable":false,"stateMutability":"view","type":"function"},{"constant":false,"inputs":[{"name":"_loanPlanId","type":"uint256"},{"name":"_exaEsAmount","type":"uint256"},{"name":"_stakingIds","type":"uint256[]"}],"name":"takeLoanOnSelfStaking","outputs":[],"payable":false,"stateMutability":"nonpayable","type":"function"},{"constant":true,"inputs":[{"name":"_userAddress","type":"address"},{"name":"_stakingId","type":"uint256"},{"name":"_atMonth","type":"uint256"}],"name":"isStakingActive","outputs":[{"name":"","type":"bool"}],"payable":false,"stateMutability":"view","type":"function"},{"constant":false,"inputs":[{"name":"_stakingPlanId","type":"uint256"}],"name":"claimLaunchReward","outputs":[],"payable":false,"stateMutability":"nonpayable","type":"function"},{"constant":true,"inputs":[],"name":"getCurrentMonth","outputs":[{"name":"","type":"uint256"}],"payable":false,"stateMutability":"view","type":"function"},{"constant":false,"inputs":[{"name":"_loanId","type":"uint256"}],"name":"repayLoanSelf","outputs":[],"payable":false,"stateMutability":"nonpayable","type":"function"},{"constant":false,"inputs":[{"name":"_exaEsAmount","type":"uint256"},{"name":"_stakingPlanId","type":"uint256"}],"name":"newStaking","outputs":[],"payable":false,"stateMutability":"nonpayable","type":"function"},{"constant":false,"inputs":[{"name":"_timeAllyNRT","type":"uint256"}],"name":"increaseMonth","outputs":[],"payable":false,"stateMutability":"nonpayable","type":"function"},{"constant":false,"inputs":[{"name":"_stakingIds","type":"uint256[]"}],"name":"withdrawExpiredStakings","outputs":[],"payable":false,"stateMutability":"nonpayable","type":"function"},{"constant":true,"inputs":[],"name":"token","outputs":[{"name":"","type":"address"}],"payable":false,"stateMutability":"view","type":"function"},{"inputs":[{"name":"_tokenAddress","type":"address"},{"name":"_nrtAddress","type":"address"}],"payable":false,"stateMutability":"nonpayable","type":"constructor"},{"anonymous":false,"inputs":[{"indexed":true,"name":"_userAddress","type":"address"},{"indexed":true,"name":"_stakePlanId","type":"uint256"},{"indexed":false,"name":"_exaEsAmount","type":"uint256"},{"indexed":false,"name":"_stakingId","type":"uint256"}],"name":"NewStaking","type":"event"},{"anonymous":false,"inputs":[{"indexed":true,"name":"_userAddress","type":"address"},{"indexed":true,"name":"_stakingId","type":"uint256"},{"indexed":true,"name":"_nomineeAddress","type":"address"}],"name":"NomineeNew","type":"event"},{"anonymous":false,"inputs":[{"indexed":true,"name":"_userAddress","type":"address"},{"indexed":true,"name":"_stakingId","type":"uint256"},{"indexed":true,"name":"_nomineeAddress","type":"address"},{"indexed":false,"name":"_liquid","type":"uint256"},{"indexed":false,"name":"_accrued","type":"uint256"}],"name":"NomineeWithdraw","type":"event"},{"anonymous":false,"inputs":[{"indexed":true,"name":"_userAddress","type":"address"},{"indexed":false,"name":"_atMonth","type":"uint256"},{"indexed":false,"name":"_accruedPercentage","type":"uint256"},{"indexed":false,"name":"_liquidShare","type":"uint256"},{"indexed":false,"name":"_accruedShare","type":"uint256"}],"name":"BenefitWithdrawl","type":"event"},{"anonymous":false,"inputs":[{"indexed":true,"name":"_userAddress","type":"address"},{"indexed":true,"name":"_loanPlanId","type":"uint256"},{"indexed":false,"name":"_exaEsAmount","type":"uint256"},{"indexed":false,"name":"_loanInterest","type":"uint256"},{"indexed":false,"name":"_loanId","type":"uint256"}],"name":"NewLoan","type":"event"},{"anonymous":false,"inputs":[{"indexed":true,"name":"_userAddress","type":"address"},{"indexed":false,"name":"_loanId","type":"uint256"}],"name":"RepayLoan","type":"event"}],"devdoc":{"author":"The EraSwap Team","details":"all require statement","methods":{"addNominee(uint256,address,uint256)":{"details":"shares is compared with total shares issued in a staking to see the percent nominee can withdraw. Nominee can withdraw only after one year past the end of tenure of staking. Upto 1 year past the end of tenure of staking, owner can withdraw principle amount of staking as well as can CRUD nominees. Owner of staking is has this time to withdraw their staking, if they fail to do so, after that nominees are allowed to withdraw. Withdrawl by first nominee will trigger staking into nomination mode and owner of staking cannot withdraw the principle amount as it will be distributed with only nominees and only they can withdraw it.","params":{"_nomineeAddress":"- address of nominee to be added to staking","_shares":"- amount of shares of the staking to the nominee","_stakingId":"- staking id"}},"claimLaunchReward(uint256)":{"params":{"_stakingPlanId":"- rewardee can choose plan while claiming rewards as stakings"}},"constructor":{"params":{"_nrtAddress":"- is NRT Manager contract address","_tokenAddress":"- is EraSwap contract address"}},"createLoanPlan(uint256,uint256)":{"params":{"_loanMonths":"- number of months or duration of loan, loan taker must repay the loan before this period","_loanRate":"- this is total % of loaning amount charged while taking loan, this charge is sent to luckpool in NRT manager which ends up distributed back to the community again"}},"createStakingPlan(uint256,uint256,bool)":{"params":{"_fractionFrom15":"- NRT fraction (max 15%) benefit to be given to user. rest is sent back to NRT in Luck Pool","_isLoanAllowed":"- Specifies whether loan can be taken on stakings with this plan","_months":"- is number of staking months of a plan. for eg. 12 months"}},"getCurrentMonth()":{"return":"current month is the TimeAlly month"},"getNumberOfStakingsByUser(address)":{"params":{"_userAddress":"- address of user"},"return":"number of stakings of _userAddress"},"giveLaunchReward(address[],uint256[])":{"params":{"_addresses":"- array of address to send rewards","_exaEsAmountArray":"- array of ExaES amounts sent to each address of _addresses with same index"}},"isStakingActive(address,uint256,uint256)":{"params":{"_atMonth":"- particular month to check staking active","_stakingId":"- staking id","_userAddress":"- address of user"},"return":"true is staking is in correct time frame and also no loan on it"},"newStaking(uint256,uint256)":{"params":{"_exaEsAmount":"- amount of ES tokens (in 18 decimals thats why 'exa') that user wishes to stake","_stakingPlanId":"- plan for staking"}},"nomineeWithdraw(address,uint256)":{"params":{"_stakingId":"- staking id","_userAddress":"- address of user"}},"removeNominee(uint256,address)":{"params":{"_nomineeAddress":"- address of nominee","_stakingId":"- staking id"}},"repayLoanSelf(uint256)":{"details":"need to give allowance before this","params":{"_loanId":"- select loan to repay"}},"seeBenefitOfAStakingByMonths(address,uint256,uint256[])":{"params":{"_months":"- array of months user is interested to see benefits.","_stakingId":"- staking id","_userAddress":"- address of user"},"return":"amount of ExaES of benefits of entered months"},"seeMaxLoaningAmountOnUserStakings(address,uint256[])":{"params":{"_stakingIds":"- array of staking ids which should be used to estimate max loan amount","_userAddress":"- address of user"},"return":"max loaning amount"},"takeLoanOnSelfStaking(uint256,uint256,uint256[])":{"params":{"_exaEsAmount":"- loan amount, this will also be the loan repay amount, the interest will first be deducted from this and then amount will be credited","_loanPlanId":"- user can select this plan which defines loan duration and loan interest","_stakingIds":"- staking ids user wishes to encash for taking the loan"}},"toggleStakingPlan(uint256)":{"params":{"_stakingPlanId":"- the plan which is needed to be activated or deactivated"}},"topupRewardBucket(uint256)":{"details":"Allowance is required before topup.","params":{"_exaEsAmount":"- amount to add to your rewards for sending rewards to others"}},"viewNomination(address,uint256,address)":{"params":{"_nomineeAddress":"- address of nominee","_stakingId":"- staking id","_userAddress":"- address of staking owner"},"return":"nomination of the nominee"},"withdrawBenefitOfAStakingByMonths(uint256,uint256[])":{"params":{"_months":"- array of months user is interested to withdraw benefits of staking.","_stakingId":"- staking id"}},"withdrawExpiredStakings(uint256[])":{"params":{"_stakingIds":"- input which stakings to withdraw"}}},"title":"TimeAlly Smart Contract"},"evm":{"assembly":"    /* \"TimeAlly.sol\":670:42673  contract TimeAlly {... */\n  mstore(0x40, 0x80)\n    /* \"TimeAlly.sol\":2028:2035  2629744 */\n  0x282070\n    /* \"TimeAlly.sol\":1998:2035  uint256 earthSecondsInMonth = 2629744 */\n  0x04\n  sstore\n    /* \"TimeAlly.sol\":4179:4486  constructor(address _tokenAddress, address _nrtAddress) public {... */\n  callvalue\n    /* \"--CODEGEN--\":8:17   */\n  dup1\n    /* \"--CODEGEN--\":5:7   */\n  iszero\n  tag_1\n  jumpi\n    /* \"--CODEGEN--\":30:31   */\n  0x00\n    /* \"--CODEGEN--\":27:28   */\n  dup1\n    /* \"--CODEGEN--\":20:32   */\n  revert\n    /* \"--CODEGEN--\":5:7   */\ntag_1:\n    /* \"TimeAlly.sol\":4179:4486  constructor(address _tokenAddress, address _nrtAddress) public {... */\n  pop\n  mload(0x40)\n  sub(codesize, bytecodeSize)\n  dup1\n  bytecodeSize\n  dup4\n  codecopy\n  dup2\n  dup2\n  add\n  0x40\n  mstore\n    /* \"--CODEGEN--\":13:15   */\n  0x40\n    /* \"--CODEGEN--\":8:11   */\n  dup2\n    /* \"--CODEGEN--\":5:16   */\n  lt\n    /* \"--CODEGEN--\":2:4   */\n  iszero\n  tag_2\n  jumpi\n    /* \"--CODEGEN--\":29:30   */\n  0x00\n    /* \"--CODEGEN--\":26:27   */\n  dup1\n    /* \"--CODEGEN--\":19:31   */\n  revert\n    /* \"--CODEGEN--\":2:4   */\ntag_2:\n    /* \"TimeAlly.sol\":4179:4486  constructor(address _tokenAddress, address _nrtAddress) public {... */\n  dup2\n  add\n  swap1\n  dup1\n  dup1\n  mload\n  swap1\n  0x20\n  add\n  swap1\n  swap3\n  swap2\n  swap1\n  dup1\n  mload\n  swap1\n  0x20\n  add\n  swap1\n  swap3\n  swap2\n  swap1\n  pop\n  pop\n  pop\n    /* \"TimeAlly.sol\":4260:4270  msg.sender */\n  caller\n    /* \"TimeAlly.sol\":4252:4257  owner */\n  0x01\n  0x00\n    /* \"TimeAlly.sol\":4252:4270  owner = msg.sender */\n  0x0100\n  exp\n  dup2\n  sload\n  dup2\n  0xffffffffffffffffffffffffffffffffffffffff\n  mul\n  not\n  and\n  swap1\n  dup4\n  0xffffffffffffffffffffffffffffffffffffffff\n  and\n  mul\n  or\n  swap1\n  sstore\n  pop\n    /* \"TimeAlly.sol\":4296:4309  _tokenAddress */\n  dup2\n    /* \"TimeAlly.sol\":4280:4285  token */\n  0x02\n  0x00\n    /* \"TimeAlly.sol\":4280:4310  token = Eraswap(_tokenAddress) */\n  0x0100\n  exp\n  dup2\n  sload\n  dup2\n  0xffffffffffffffffffffffffffffffffffffffff\n  mul\n  not\n  and\n  swap1\n  dup4\n  0xffffffffffffffffffffffffffffffffffffffff\n  and\n  mul\n  or\n  swap1\n  sstore\n  pop\n    /* \"TimeAlly.sol\":4344:4355  _nrtAddress */\n  dup1\n    /* \"TimeAlly.sol\":4320:4330  nrtManager */\n  0x03\n  0x00\n    /* \"TimeAlly.sol\":4320:4356  nrtManager = NRTManager(_nrtAddress) */\n  0x0100\n  exp\n  dup2\n  sload\n  dup2\n  0xffffffffffffffffffffffffffffffffffffffff\n  mul\n  not\n  and\n  swap1\n  dup4\n  0xffffffffffffffffffffffffffffffffffffffff\n  and\n  mul\n  or\n  swap1\n  sstore\n  pop\n    /* \"TimeAlly.sol\":4386:4391  token */\n  0x02\n  0x00\n  swap1\n  sload\n  swap1\n  0x0100\n  exp\n  swap1\n  div\n  0xffffffffffffffffffffffffffffffffffffffff\n  and\n    /* \"TimeAlly.sol\":4386:4395  token.mou */\n  0xffffffffffffffffffffffffffffffffffffffff\n  and\n  0xb81f90f3\n    /* \"TimeAlly.sol\":4386:4397  token.mou() */\n  mload(0x40)\n  dup2\n  0xffffffff\n  and\n  0xe0\n  shl\n  dup2\n  mstore\n  0x04\n  add\n  0x20\n  mload(0x40)\n  dup1\n  dup4\n  sub\n  dup2\n  dup7\n  dup1\n  extcodesize\n  iszero\n    /* \"--CODEGEN--\":8:17   */\n  dup1\n    /* \"--CODEGEN--\":5:7   */\n  iszero\n  tag_5\n  jumpi\n    /* \"--CODEGEN--\":30:31   */\n  0x00\n    /* \"--CODEGEN--\":27:28   */\n  dup1\n    /* \"--CODEGEN--\":20:32   */\n  revert\n    /* \"--CODEGEN--\":5:7   */\ntag_5:\n    /* \"TimeAlly.sol\":4386:4397  token.mou() */\n  pop\n  gas\n  staticcall\n  iszero\n    /* \"--CODEGEN--\":8:17   */\n  dup1\n    /* \"--CODEGEN--\":5:7   */\n  iszero\n  tag_6\n  jumpi\n    /* \"--CODEGEN--\":45:61   */\n  returndatasize\n    /* \"--CODEGEN--\":42:43   */\n  0x00\n    /* \"--CODEGEN--\":39:40   */\n  dup1\n    /* \"--CODEGEN--\":24:62   */\n  returndatacopy\n    /* \"--CODEGEN--\":77:93   */\n  returndatasize\n    /* \"--CODEGEN--\":74:75   */\n  0x00\n    /* \"--CODEGEN--\":67:94   */\n  revert\n    /* \"--CODEGEN--\":5:7   */\ntag_6:\n    /* \"TimeAlly.sol\":4386:4397  token.mou() */\n  pop\n  pop\n  pop\n  pop\n  mload(0x40)\n  returndatasize\n    /* \"--CODEGEN--\":13:15   */\n  0x20\n    /* \"--CODEGEN--\":8:11   */\n  dup2\n    /* \"--CODEGEN--\":5:16   */\n  lt\n    /* \"--CODEGEN--\":2:4   */\n  iszero\n  tag_7\n  jumpi\n    /* \"--CODEGEN--\":29:30   */\n  0x00\n    /* \"--CODEGEN--\":26:27   */\n  dup1\n    /* \"--CODEGEN--\":19:31   */\n  revert\n    /* \"--CODEGEN--\":2:4   */\ntag_7:\n    /* \"TimeAlly.sol\":4386:4397  token.mou() */\n  dup2\n  add\n  swap1\n  dup1\n  dup1\n  mload\n  swap1\n  0x20\n  add\n  swap1\n  swap3\n  swap2\n  swap1\n  pop\n  pop\n  pop\n    /* \"TimeAlly.sol\":4366:4383  deployedTimestamp */\n  0x00\n    /* \"TimeAlly.sol\":4366:4397  deployedTimestamp = token.mou() */\n  dup2\n  swap1\n  sstore\n  pop\n    /* \"TimeAlly.sol\":4407:4425  timeAllyMonthlyNRT */\n  0x0b\n    /* \"TimeAlly.sol\":4431:4432  0 */\n  0x00\n    /* \"TimeAlly.sol\":4407:4433  timeAllyMonthlyNRT.push(0) */\n  swap1\n  dup1\n    /* \"--CODEGEN--\":39:40   */\n  0x01\n    /* \"--CODEGEN--\":33:36   */\n  dup2\n    /* \"--CODEGEN--\":27:37   */\n  sload\n    /* \"--CODEGEN--\":23:41   */\n  add\n    /* \"--CODEGEN--\":57:67   */\n  dup1\n    /* \"--CODEGEN--\":52:55   */\n  dup3\n    /* \"--CODEGEN--\":45:68   */\n  sstore\n    /* \"--CODEGEN--\":79:89   */\n  dup1\n    /* \"--CODEGEN--\":72:89   */\n  swap2\n  pop\n    /* \"--CODEGEN--\":0:93   */\n  pop\n    /* \"TimeAlly.sol\":4407:4433  timeAllyMonthlyNRT.push(0) */\n  swap1\n  0x01\n  dup3\n  sub\n  swap1\n  0x00\n  mstore\n  keccak256(0x00, 0x20)\n  add\n  0x00\n  swap1\n  swap2\n  swap3\n  swap1\n  swap2\n  swap1\n  swap2\n  pop\n  sstore\n  pop\n    /* \"TimeAlly.sol\":4179:4486  constructor(address _tokenAddress, address _nrtAddress) public {... */\n  pop\n  pop\n    /* \"TimeAlly.sol\":670:42673  contract TimeAlly {... */\n  dataSize(sub_0)\n  dup1\n  dataOffset(sub_0)\n  0x00\n  codecopy\n  0x00\n  return\nstop\n\nsub_0: assembly {\n        /* \"TimeAlly.sol\":670:42673  contract TimeAlly {... */\n      mstore(0x40, 0x80)\n      callvalue\n        /* \"--CODEGEN--\":8:17   */\n      dup1\n        /* \"--CODEGEN--\":5:7   */\n      iszero\n      tag_1\n      jumpi\n        /* \"--CODEGEN--\":30:31   */\n      0x00\n        /* \"--CODEGEN--\":27:28   */\n      dup1\n        /* \"--CODEGEN--\":20:32   */\n      revert\n        /* \"--CODEGEN--\":5:7   */\n    tag_1:\n        /* \"TimeAlly.sol\":670:42673  contract TimeAlly {... */\n      pop\n      jumpi(tag_2, lt(calldatasize, 0x04))\n      shr(0xe0, calldataload(0x00))\n      dup1\n      0x98c61c37\n      gt\n      tag_35\n      jumpi\n      dup1\n      0xd58424a3\n      gt\n      tag_36\n      jumpi\n      dup1\n      0xe5fd04e6\n      gt\n      tag_37\n      jumpi\n      dup1\n      0xe5fd04e6\n      eq\n      tag_31\n      jumpi\n      dup1\n      0xe78c81c4\n      eq\n      tag_32\n      jumpi\n      dup1\n      0xe83f7843\n      eq\n      tag_33\n      jumpi\n      dup1\n      0xfc0c546a\n      eq\n      tag_34\n      jumpi\n      jump(tag_2)\n    tag_37:\n      dup1\n      0xd58424a3\n      eq\n      tag_27\n      jumpi\n      dup1\n      0xda9d8aa0\n      eq\n      tag_28\n      jumpi\n      dup1\n      0xddd1b67e\n      eq\n      tag_29\n      jumpi\n      dup1\n      0xdea6cf43\n      eq\n      tag_30\n      jumpi\n      jump(tag_2)\n    tag_36:\n      dup1\n      0xbe4ad9c3\n      gt\n      tag_38\n      jumpi\n      dup1\n      0xbe4ad9c3\n      eq\n      tag_23\n      jumpi\n      dup1\n      0xc22251b3\n      eq\n      tag_24\n      jumpi\n      dup1\n      0xcc44a2fd\n      eq\n      tag_25\n      jumpi\n      dup1\n      0xd0e32681\n      eq\n      tag_26\n      jumpi\n      jump(tag_2)\n    tag_38:\n      dup1\n      0x98c61c37\n      eq\n      tag_19\n      jumpi\n      dup1\n      0x9d0b8b44\n      eq\n      tag_20\n      jumpi\n      dup1\n      0xa4c0e90a\n      eq\n      tag_21\n      jumpi\n      dup1\n      0xad998fa0\n      eq\n      tag_22\n      jumpi\n      jump(tag_2)\n    tag_35:\n      dup1\n      0x53fcb2f3\n      gt\n      tag_39\n      jumpi\n      dup1\n      0x82f97857\n      gt\n      tag_40\n      jumpi\n      dup1\n      0x82f97857\n      eq\n      tag_15\n      jumpi\n      dup1\n      0x88c5f296\n      eq\n      tag_16\n      jumpi\n      dup1\n      0x8da5cb5b\n      eq\n      tag_17\n      jumpi\n      dup1\n      0x911e8bc6\n      eq\n      tag_18\n      jumpi\n      jump(tag_2)\n    tag_40:\n      dup1\n      0x53fcb2f3\n      eq\n      tag_11\n      jumpi\n      dup1\n      0x762e7a34\n      eq\n      tag_12\n      jumpi\n      dup1\n      0x778db8d4\n      eq\n      tag_13\n      jumpi\n      dup1\n      0x7acab857\n      eq\n      tag_14\n      jumpi\n      jump(tag_2)\n    tag_39:\n      dup1\n      0x2c779774\n      gt\n      tag_41\n      jumpi\n      dup1\n      0x2c779774\n      eq\n      tag_7\n      jumpi\n      dup1\n      0x2e9721b6\n      eq\n      tag_8\n      jumpi\n      dup1\n      0x4ec0692c\n      eq\n      tag_9\n      jumpi\n      dup1\n      0x4f916fb0\n      eq\n      tag_10\n      jumpi\n      jump(tag_2)\n    tag_41:\n      dup1\n      0x0df5202f\n      eq\n      tag_3\n      jumpi\n      dup1\n      0x16d3e966\n      eq\n      tag_4\n      jumpi\n      dup1\n      0x1849d8ea\n      eq\n      tag_5\n      jumpi\n      dup1\n      0x23a15e6b\n      eq\n      tag_6\n      jumpi\n    tag_2:\n      0x00\n      dup1\n      revert\n        /* \"TimeAlly.sol\":1898:1926  NRTManager public nrtManager */\n    tag_3:\n      tag_42\n      tag_43\n      jump\t// in\n    tag_42:\n      mload(0x40)\n      dup1\n      dup3\n      0xffffffffffffffffffffffffffffffffffffffff\n      and\n      0xffffffffffffffffffffffffffffffffffffffff\n      and\n      dup2\n      mstore\n      0x20\n      add\n      swap2\n      pop\n      pop\n      mload(0x40)\n      dup1\n      swap2\n      sub\n      swap1\n      return\n        /* \"TimeAlly.sol\":33633:35069  function burnDefaultedLoans(address[] memory _addressArray, uint256[] memory _loanIdArray) public {... */\n    tag_4:\n      tag_44\n      0x04\n      dup1\n      calldatasize\n      sub\n        /* \"--CODEGEN--\":13:15   */\n      0x40\n        /* \"--CODEGEN--\":8:11   */\n      dup2\n        /* \"--CODEGEN--\":5:16   */\n      lt\n        /* \"--CODEGEN--\":2:4   */\n      iszero\n      tag_45\n      jumpi\n        /* \"--CODEGEN--\":29:30   */\n      0x00\n        /* \"--CODEGEN--\":26:27   */\n      dup1\n        /* \"--CODEGEN--\":19:31   */\n      revert\n        /* \"--CODEGEN--\":2:4   */\n    tag_45:\n        /* \"TimeAlly.sol\":33633:35069  function burnDefaultedLoans(address[] memory _addressArray, uint256[] memory _loanIdArray) public {... */\n      dup2\n      add\n      swap1\n      dup1\n      dup1\n      calldataload\n      swap1\n      0x20\n      add\n      swap1\n        /* \"--CODEGEN--\":21:32   */\n      0x0100000000\n        /* \"--CODEGEN--\":8:19   */\n      dup2\n        /* \"--CODEGEN--\":5:33   */\n      gt\n        /* \"--CODEGEN--\":2:4   */\n      iszero\n      tag_46\n      jumpi\n        /* \"--CODEGEN--\":46:47   */\n      0x00\n        /* \"--CODEGEN--\":43:44   */\n      dup1\n        /* \"--CODEGEN--\":36:48   */\n      revert\n        /* \"--CODEGEN--\":2:4   */\n    tag_46:\n        /* \"TimeAlly.sol\":33633:35069  function burnDefaultedLoans(address[] memory _addressArray, uint256[] memory _loanIdArray) public {... */\n      dup3\n      add\n        /* \"--CODEGEN--\":35:44   */\n      dup4\n        /* \"--CODEGEN--\":28:32   */\n      0x20\n        /* \"--CODEGEN--\":12:26   */\n      dup3\n        /* \"--CODEGEN--\":8:33   */\n      add\n        /* \"--CODEGEN--\":5:45   */\n      gt\n        /* \"--CODEGEN--\":2:4   */\n      iszero\n      tag_47\n      jumpi\n        /* \"--CODEGEN--\":58:59   */\n      0x00\n        /* \"--CODEGEN--\":55:56   */\n      dup1\n        /* \"--CODEGEN--\":48:60   */\n      revert\n        /* \"--CODEGEN--\":2:4   */\n    tag_47:\n        /* \"TimeAlly.sol\":33633:35069  function burnDefaultedLoans(address[] memory _addressArray, uint256[] memory _loanIdArray) public {... */\n      dup1\n      calldataload\n      swap1\n      0x20\n      add\n      swap2\n        /* \"--CODEGEN--\":101:110   */\n      dup5\n        /* \"--CODEGEN--\":95:97   */\n      0x20\n        /* \"--CODEGEN--\":81:93   */\n      dup4\n        /* \"--CODEGEN--\":77:98   */\n      mul\n        /* \"--CODEGEN--\":67:75   */\n      dup5\n        /* \"--CODEGEN--\":63:99   */\n      add\n        /* \"--CODEGEN--\":60:111   */\n      gt\n        /* \"--CODEGEN--\":39:50   */\n      0x0100000000\n        /* \"--CODEGEN--\":25:37   */\n      dup4\n        /* \"--CODEGEN--\":22:51   */\n      gt\n        /* \"--CODEGEN--\":11:119   */\n      or\n        /* \"--CODEGEN--\":8:10   */\n      iszero\n      tag_48\n      jumpi\n        /* \"--CODEGEN--\":132:133   */\n      0x00\n        /* \"--CODEGEN--\":129:130   */\n      dup1\n        /* \"--CODEGEN--\":122:134   */\n      revert\n        /* \"--CODEGEN--\":8:10   */\n    tag_48:\n        /* \"TimeAlly.sol\":33633:35069  function burnDefaultedLoans(address[] memory _addressArray, uint256[] memory _loanIdArray) public {... */\n      swap2\n      swap1\n      dup1\n      dup1\n      0x20\n      mul\n      0x20\n      add\n      mload(0x40)\n      swap1\n      dup2\n      add\n      0x40\n      mstore\n      dup1\n      swap4\n      swap3\n      swap2\n      swap1\n      dup2\n      dup2\n      mstore\n      0x20\n      add\n      dup4\n      dup4\n      0x20\n      mul\n        /* \"--CODEGEN--\":30:33   */\n      dup1\n        /* \"--CODEGEN--\":22:28   */\n      dup3\n        /* \"--CODEGEN--\":14:20   */\n      dup5\n        /* \"--CODEGEN--\":1:34   */\n      calldatacopy\n        /* \"--CODEGEN--\":99:100   */\n      0x00\n        /* \"--CODEGEN--\":93:96   */\n      dup2\n        /* \"--CODEGEN--\":85:91   */\n      dup5\n        /* \"--CODEGEN--\":81:97   */\n      add\n        /* \"--CODEGEN--\":74:101   */\n      mstore\n        /* \"--CODEGEN--\":137:141   */\n      0x1f\n        /* \"--CODEGEN--\":133:142   */\n      not\n        /* \"--CODEGEN--\":126:130   */\n      0x1f\n        /* \"--CODEGEN--\":121:124   */\n      dup3\n        /* \"--CODEGEN--\":117:131   */\n      add\n        /* \"--CODEGEN--\":113:143   */\n      and\n        /* \"--CODEGEN--\":106:143   */\n      swap1\n      pop\n        /* \"--CODEGEN--\":169:172   */\n      dup1\n        /* \"--CODEGEN--\":161:167   */\n      dup4\n        /* \"--CODEGEN--\":157:173   */\n      add\n        /* \"--CODEGEN--\":147:173   */\n      swap3\n      pop\n        /* \"TimeAlly.sol\":33633:35069  function burnDefaultedLoans(address[] memory _addressArray, uint256[] memory _loanIdArray) public {... */\n      pop\n      pop\n      pop\n      pop\n      pop\n      pop\n      swap2\n      swap3\n      swap2\n      swap3\n      swap1\n      dup1\n      calldataload\n      swap1\n      0x20\n      add\n      swap1\n        /* \"--CODEGEN--\":21:32   */\n      0x0100000000\n        /* \"--CODEGEN--\":8:19   */\n      dup2\n        /* \"--CODEGEN--\":5:33   */\n      gt\n        /* \"--CODEGEN--\":2:4   */\n      iszero\n      tag_49\n      jumpi\n        /* \"--CODEGEN--\":46:47   */\n      0x00\n        /* \"--CODEGEN--\":43:44   */\n      dup1\n        /* \"--CODEGEN--\":36:48   */\n      revert\n        /* \"--CODEGEN--\":2:4   */\n    tag_49:\n        /* \"TimeAlly.sol\":33633:35069  function burnDefaultedLoans(address[] memory _addressArray, uint256[] memory _loanIdArray) public {... */\n      dup3\n      add\n        /* \"--CODEGEN--\":35:44   */\n      dup4\n        /* \"--CODEGEN--\":28:32   */\n      0x20\n        /* \"--CODEGEN--\":12:26   */\n      dup3\n        /* \"--CODEGEN--\":8:33   */\n      add\n        /* \"--CODEGEN--\":5:45   */\n      gt\n        /* \"--CODEGEN--\":2:4   */\n      iszero\n      tag_50\n      jumpi\n        /* \"--CODEGEN--\":58:59   */\n      0x00\n        /* \"--CODEGEN--\":55:56   */\n      dup1\n        /* \"--CODEGEN--\":48:60   */\n      revert\n        /* \"--CODEGEN--\":2:4   */\n    tag_50:\n        /* \"TimeAlly.sol\":33633:35069  function burnDefaultedLoans(address[] memory _addressArray, uint256[] memory _loanIdArray) public {... */\n      dup1\n      calldataload\n      swap1\n      0x20\n      add\n      swap2\n        /* \"--CODEGEN--\":101:110   */\n      dup5\n        /* \"--CODEGEN--\":95:97   */\n      0x20\n        /* \"--CODEGEN--\":81:93   */\n      dup4\n        /* \"--CODEGEN--\":77:98   */\n      mul\n        /* \"--CODEGEN--\":67:75   */\n      dup5\n        /* \"--CODEGEN--\":63:99   */\n      add\n        /* \"--CODEGEN--\":60:111   */\n      gt\n        /* \"--CODEGEN--\":39:50   */\n      0x0100000000\n        /* \"--CODEGEN--\":25:37   */\n      dup4\n        /* \"--CODEGEN--\":22:51   */\n      gt\n        /* \"--CODEGEN--\":11:119   */\n      or\n        /* \"--CODEGEN--\":8:10   */\n      iszero\n      tag_51\n      jumpi\n        /* \"--CODEGEN--\":132:133   */\n      0x00\n        /* \"--CODEGEN--\":129:130   */\n      dup1\n        /* \"--CODEGEN--\":122:134   */\n      revert\n        /* \"--CODEGEN--\":8:10   */\n    tag_51:\n        /* \"TimeAlly.sol\":33633:35069  function burnDefaultedLoans(address[] memory _addressArray, uint256[] memory _loanIdArray) public {... */\n      swap2\n      swap1\n      dup1\n      dup1\n      0x20\n      mul\n      0x20\n      add\n      mload(0x40)\n      swap1\n      dup2\n      add\n      0x40\n      mstore\n      dup1\n      swap4\n      swap3\n      swap2\n      swap1\n      dup2\n      dup2\n      mstore\n      0x20\n      add\n      dup4\n      dup4\n      0x20\n      mul\n        /* \"--CODEGEN--\":30:33   */\n      dup1\n        /* \"--CODEGEN--\":22:28   */\n      dup3\n        /* \"--CODEGEN--\":14:20   */\n      dup5\n        /* \"--CODEGEN--\":1:34   */\n      calldatacopy\n        /* \"--CODEGEN--\":99:100   */\n      0x00\n        /* \"--CODEGEN--\":93:96   */\n      dup2\n        /* \"--CODEGEN--\":85:91   */\n      dup5\n        /* \"--CODEGEN--\":81:97   */\n      add\n        /* \"--CODEGEN--\":74:101   */\n      mstore\n        /* \"--CODEGEN--\":137:141   */\n      0x1f\n        /* \"--CODEGEN--\":133:142   */\n      not\n        /* \"--CODEGEN--\":126:130   */\n      0x1f\n        /* \"--CODEGEN--\":121:124   */\n      dup3\n        /* \"--CODEGEN--\":117:131   */\n      add\n        /* \"--CODEGEN--\":113:143   */\n      and\n        /* \"--CODEGEN--\":106:143   */\n      swap1\n      pop\n        /* \"--CODEGEN--\":169:172   */\n      dup1\n        /* \"--CODEGEN--\":161:167   */\n      dup4\n        /* \"--CODEGEN--\":157:173   */\n      add\n        /* \"--CODEGEN--\":147:173   */\n      swap3\n      pop\n        /* \"TimeAlly.sol\":33633:35069  function burnDefaultedLoans(address[] memory _addressArray, uint256[] memory _loanIdArray) public {... */\n      pop\n      pop\n      pop\n      pop\n      pop\n      pop\n      swap2\n      swap3\n      swap2\n      swap3\n      swap1\n      pop\n      pop\n      pop\n      tag_52\n      jump\t// in\n    tag_44:\n      stop\n        /* \"TimeAlly.sol\":2258:2303  mapping(address => Staking[]) public stakings */\n    tag_5:\n      tag_53\n      0x04\n      dup1\n      calldatasize\n      sub\n        /* \"--CODEGEN--\":13:15   */\n      0x40\n        /* \"--CODEGEN--\":8:11   */\n      dup2\n        /* \"--CODEGEN--\":5:16   */\n      lt\n        /* \"--CODEGEN--\":2:4   */\n      iszero\n      tag_54\n      jumpi\n        /* \"--CODEGEN--\":29:30   */\n      0x00\n        /* \"--CODEGEN--\":26:27   */\n      dup1\n        /* \"--CODEGEN--\":19:31   */\n      revert\n        /* \"--CODEGEN--\":2:4   */\n    tag_54:\n        /* \"TimeAlly.sol\":2258:2303  mapping(address => Staking[]) public stakings */\n      dup2\n      add\n      swap1\n      dup1\n      dup1\n      calldataload\n      0xffffffffffffffffffffffffffffffffffffffff\n      and\n      swap1\n      0x20\n      add\n      swap1\n      swap3\n      swap2\n      swap1\n      dup1\n      calldataload\n      swap1\n      0x20\n      add\n      swap1\n      swap3\n      swap2\n      swap1\n      pop\n      pop\n      pop\n      tag_55\n      jump\t// in\n    tag_53:\n      mload(0x40)\n      dup1\n      dup9\n      dup2\n      mstore\n      0x20\n      add\n      dup8\n      dup2\n      mstore\n      0x20\n      add\n      dup7\n      dup2\n      mstore\n      0x20\n      add\n      dup6\n      dup2\n      mstore\n      0x20\n      add\n      dup5\n      dup2\n      mstore\n      0x20\n      add\n      dup4\n      dup2\n      mstore\n      0x20\n      add\n      dup3\n      dup2\n      mstore\n      0x20\n      add\n      swap8\n      pop\n      pop\n      pop\n      pop\n      pop\n      pop\n      pop\n      pop\n      mload(0x40)\n      dup1\n      swap2\n      sub\n      swap1\n      return\n        /* \"TimeAlly.sol\":2665:2700  uint256[] public timeAllyMonthlyNRT */\n    tag_6:\n      tag_56\n      0x04\n      dup1\n      calldatasize\n      sub\n        /* \"--CODEGEN--\":13:15   */\n      0x20\n        /* \"--CODEGEN--\":8:11   */\n      dup2\n        /* \"--CODEGEN--\":5:16   */\n      lt\n        /* \"--CODEGEN--\":2:4   */\n      iszero\n      tag_57\n      jumpi\n        /* \"--CODEGEN--\":29:30   */\n      0x00\n        /* \"--CODEGEN--\":26:27   */\n      dup1\n        /* \"--CODEGEN--\":19:31   */\n      revert\n        /* \"--CODEGEN--\":2:4   */\n    tag_57:\n        /* \"TimeAlly.sol\":2665:2700  uint256[] public timeAllyMonthlyNRT */\n      dup2\n      add\n      swap1\n      dup1\n      dup1\n      calldataload\n      swap1\n      0x20\n      add\n      swap1\n      swap3\n      swap2\n      swap1\n      pop\n      pop\n      pop\n      tag_58\n      jump\t// in\n    tag_56:\n      mload(0x40)\n      dup1\n      dup3\n      dup2\n      mstore\n      0x20\n      add\n      swap2\n      pop\n      pop\n      mload(0x40)\n      dup1\n      swap2\n      sub\n      swap1\n      return\n        /* \"TimeAlly.sol\":20761:21691  function seeBenefitOfAStakingByMonths(... */\n    tag_7:\n      tag_59\n      0x04\n      dup1\n      calldatasize\n      sub\n        /* \"--CODEGEN--\":13:15   */\n      0x60\n        /* \"--CODEGEN--\":8:11   */\n      dup2\n        /* \"--CODEGEN--\":5:16   */\n      lt\n        /* \"--CODEGEN--\":2:4   */\n      iszero\n      tag_60\n      jumpi\n        /* \"--CODEGEN--\":29:30   */\n      0x00\n        /* \"--CODEGEN--\":26:27   */\n      dup1\n        /* \"--CODEGEN--\":19:31   */\n      revert\n        /* \"--CODEGEN--\":2:4   */\n    tag_60:\n        /* \"TimeAlly.sol\":20761:21691  function seeBenefitOfAStakingByMonths(... */\n      dup2\n      add\n      swap1\n      dup1\n      dup1\n      calldataload\n      0xffffffffffffffffffffffffffffffffffffffff\n      and\n      swap1\n      0x20\n      add\n      swap1\n      swap3\n      swap2\n      swap1\n      dup1\n      calldataload\n      swap1\n      0x20\n      add\n      swap1\n      swap3\n      swap2\n      swap1\n      dup1\n      calldataload\n      swap1\n      0x20\n      add\n      swap1\n        /* \"--CODEGEN--\":21:32   */\n      0x0100000000\n        /* \"--CODEGEN--\":8:19   */\n      dup2\n        /* \"--CODEGEN--\":5:33   */\n      gt\n        /* \"--CODEGEN--\":2:4   */\n      iszero\n      tag_61\n      jumpi\n        /* \"--CODEGEN--\":46:47   */\n      0x00\n        /* \"--CODEGEN--\":43:44   */\n      dup1\n        /* \"--CODEGEN--\":36:48   */\n      revert\n        /* \"--CODEGEN--\":2:4   */\n    tag_61:\n        /* \"TimeAlly.sol\":20761:21691  function seeBenefitOfAStakingByMonths(... */\n      dup3\n      add\n        /* \"--CODEGEN--\":35:44   */\n      dup4\n        /* \"--CODEGEN--\":28:32   */\n      0x20\n        /* \"--CODEGEN--\":12:26   */\n      dup3\n        /* \"--CODEGEN--\":8:33   */\n      add\n        /* \"--CODEGEN--\":5:45   */\n      gt\n        /* \"--CODEGEN--\":2:4   */\n      iszero\n      tag_62\n      jumpi\n        /* \"--CODEGEN--\":58:59   */\n      0x00\n        /* \"--CODEGEN--\":55:56   */\n      dup1\n        /* \"--CODEGEN--\":48:60   */\n      revert\n        /* \"--CODEGEN--\":2:4   */\n    tag_62:\n        /* \"TimeAlly.sol\":20761:21691  function seeBenefitOfAStakingByMonths(... */\n      dup1\n      calldataload\n      swap1\n      0x20\n      add\n      swap2\n        /* \"--CODEGEN--\":101:110   */\n      dup5\n        /* \"--CODEGEN--\":95:97   */\n      0x20\n        /* \"--CODEGEN--\":81:93   */\n      dup4\n        /* \"--CODEGEN--\":77:98   */\n      mul\n        /* \"--CODEGEN--\":67:75   */\n      dup5\n        /* \"--CODEGEN--\":63:99   */\n      add\n        /* \"--CODEGEN--\":60:111   */\n      gt\n        /* \"--CODEGEN--\":39:50   */\n      0x0100000000\n        /* \"--CODEGEN--\":25:37   */\n      dup4\n        /* \"--CODEGEN--\":22:51   */\n      gt\n        /* \"--CODEGEN--\":11:119   */\n      or\n        /* \"--CODEGEN--\":8:10   */\n      iszero\n      tag_63\n      jumpi\n        /* \"--CODEGEN--\":132:133   */\n      0x00\n        /* \"--CODEGEN--\":129:130   */\n      dup1\n        /* \"--CODEGEN--\":122:134   */\n      revert\n        /* \"--CODEGEN--\":8:10   */\n    tag_63:\n        /* \"TimeAlly.sol\":20761:21691  function seeBenefitOfAStakingByMonths(... */\n      swap2\n      swap1\n      dup1\n      dup1\n      0x20\n      mul\n      0x20\n      add\n      mload(0x40)\n      swap1\n      dup2\n      add\n      0x40\n      mstore\n      dup1\n      swap4\n      swap3\n      swap2\n      swap1\n      dup2\n      dup2\n      mstore\n      0x20\n      add\n      dup4\n      dup4\n      0x20\n      mul\n        /* \"--CODEGEN--\":30:33   */\n      dup1\n        /* \"--CODEGEN--\":22:28   */\n      dup3\n        /* \"--CODEGEN--\":14:20   */\n      dup5\n        /* \"--CODEGEN--\":1:34   */\n      calldatacopy\n        /* \"--CODEGEN--\":99:100   */\n      0x00\n        /* \"--CODEGEN--\":93:96   */\n      dup2\n        /* \"--CODEGEN--\":85:91   */\n      dup5\n        /* \"--CODEGEN--\":81:97   */\n      add\n        /* \"--CODEGEN--\":74:101   */\n      mstore\n        /* \"--CODEGEN--\":137:141   */\n      0x1f\n        /* \"--CODEGEN--\":133:142   */\n      not\n        /* \"--CODEGEN--\":126:130   */\n      0x1f\n        /* \"--CODEGEN--\":121:124   */\n      dup3\n        /* \"--CODEGEN--\":117:131   */\n      add\n        /* \"--CODEGEN--\":113:143   */\n      and\n        /* \"--CODEGEN--\":106:143   */\n      swap1\n      pop\n        /* \"--CODEGEN--\":169:172   */\n      dup1\n        /* \"--CODEGEN--\":161:167   */\n      dup4\n        /* \"--CODEGEN--\":157:173   */\n      add\n        /* \"--CODEGEN--\":147:173   */\n      swap3\n      pop\n        /* \"TimeAlly.sol\":20761:21691  function seeBenefitOfAStakingByMonths(... */\n      pop\n      pop\n      pop\n      pop\n      pop\n      pop\n      swap2\n      swap3\n      swap2\n      swap3\n      swap1\n      pop\n      pop\n      pop\n      tag_64\n      jump\t// in\n    tag_59:\n      mload(0x40)\n      dup1\n      dup3\n      dup2\n      mstore\n      0x20\n      add\n      swap2\n      pop\n      pop\n      mload(0x40)\n      dup1\n      swap2\n      sub\n      swap1\n      return\n        /* \"TimeAlly.sol\":36896:37103  function viewNomination(address _userAddress, uint256 _stakingId, address _nomineeAddress) public view returns (uint256) {... */\n    tag_8:\n      tag_65\n      0x04\n      dup1\n      calldatasize\n      sub\n        /* \"--CODEGEN--\":13:15   */\n      0x60\n        /* \"--CODEGEN--\":8:11   */\n      dup2\n        /* \"--CODEGEN--\":5:16   */\n      lt\n        /* \"--CODEGEN--\":2:4   */\n      iszero\n      tag_66\n      jumpi\n        /* \"--CODEGEN--\":29:30   */\n      0x00\n        /* \"--CODEGEN--\":26:27   */\n      dup1\n        /* \"--CODEGEN--\":19:31   */\n      revert\n        /* \"--CODEGEN--\":2:4   */\n    tag_66:\n        /* \"TimeAlly.sol\":36896:37103  function viewNomination(address _userAddress, uint256 _stakingId, address _nomineeAddress) public view returns (uint256) {... */\n      dup2\n      add\n      swap1\n      dup1\n      dup1\n      calldataload\n      0xffffffffffffffffffffffffffffffffffffffff\n      and\n      swap1\n      0x20\n      add\n      swap1\n      swap3\n      swap2\n      swap1\n      dup1\n      calldataload\n      swap1\n      0x20\n      add\n      swap1\n      swap3\n      swap2\n      swap1\n      dup1\n      calldataload\n      0xffffffffffffffffffffffffffffffffffffffff\n      and\n      swap1\n      0x20\n      add\n      swap1\n      swap3\n      swap2\n      swap1\n      pop\n      pop\n      pop\n      tag_67\n      jump\t// in\n    tag_65:\n      mload(0x40)\n      dup1\n      dup3\n      dup2\n      mstore\n      0x20\n      add\n      swap2\n      pop\n      pop\n      mload(0x40)\n      dup1\n      swap2\n      sub\n      swap1\n      return\n        /* \"TimeAlly.sol\":2460:2515  mapping (uint256 => uint256) public totalActiveStakings */\n    tag_9:\n      tag_68\n      0x04\n      dup1\n      calldatasize\n      sub\n        /* \"--CODEGEN--\":13:15   */\n      0x20\n        /* \"--CODEGEN--\":8:11   */\n      dup2\n        /* \"--CODEGEN--\":5:16   */\n      lt\n        /* \"--CODEGEN--\":2:4   */\n      iszero\n      tag_69\n      jumpi\n        /* \"--CODEGEN--\":29:30   */\n      0x00\n        /* \"--CODEGEN--\":26:27   */\n      dup1\n        /* \"--CODEGEN--\":19:31   */\n      revert\n        /* \"--CODEGEN--\":2:4   */\n    tag_69:\n        /* \"TimeAlly.sol\":2460:2515  mapping (uint256 => uint256) public totalActiveStakings */\n      dup2\n      add\n      swap1\n      dup1\n      dup1\n      calldataload\n      swap1\n      0x20\n      add\n      swap1\n      swap3\n      swap2\n      swap1\n      pop\n      pop\n      pop\n      tag_70\n      jump\t// in\n    tag_68:\n      mload(0x40)\n      dup1\n      dup3\n      dup2\n      mstore\n      0x20\n      add\n      swap2\n      pop\n      pop\n      mload(0x40)\n      dup1\n      swap2\n      sub\n      swap1\n      return\n        /* \"TimeAlly.sol\":38640:39107  function removeNominee(uint256 _stakingId, address _nomineeAddress) public {... */\n    tag_10:\n      tag_71\n      0x04\n      dup1\n      calldatasize\n      sub\n        /* \"--CODEGEN--\":13:15   */\n      0x40\n        /* \"--CODEGEN--\":8:11   */\n      dup2\n        /* \"--CODEGEN--\":5:16   */\n      lt\n        /* \"--CODEGEN--\":2:4   */\n      iszero\n      tag_72\n      jumpi\n        /* \"--CODEGEN--\":29:30   */\n      0x00\n        /* \"--CODEGEN--\":26:27   */\n      dup1\n        /* \"--CODEGEN--\":19:31   */\n      revert\n        /* \"--CODEGEN--\":2:4   */\n    tag_72:\n        /* \"TimeAlly.sol\":38640:39107  function removeNominee(uint256 _stakingId, address _nomineeAddress) public {... */\n      dup2\n      add\n      swap1\n      dup1\n      dup1\n      calldataload\n      swap1\n      0x20\n      add\n      swap1\n      swap3\n      swap2\n      swap1\n      dup1\n      calldataload\n      0xffffffffffffffffffffffffffffffffffffffff\n      and\n      swap1\n      0x20\n      add\n      swap1\n      swap3\n      swap2\n      swap1\n      pop\n      pop\n      pop\n      tag_73\n      jump\t// in\n    tag_71:\n      stop\n        /* \"TimeAlly.sol\":9811:10031  function topupRewardBucket(uint256 _exaEsAmount) public {... */\n    tag_11:\n      tag_74\n      0x04\n      dup1\n      calldatasize\n      sub\n        /* \"--CODEGEN--\":13:15   */\n      0x20\n        /* \"--CODEGEN--\":8:11   */\n      dup2\n        /* \"--CODEGEN--\":5:16   */\n      lt\n        /* \"--CODEGEN--\":2:4   */\n      iszero\n      tag_75\n      jumpi\n        /* \"--CODEGEN--\":29:30   */\n      0x00\n        /* \"--CODEGEN--\":26:27   */\n      dup1\n        /* \"--CODEGEN--\":19:31   */\n      revert\n        /* \"--CODEGEN--\":2:4   */\n    tag_75:\n        /* \"TimeAlly.sol\":9811:10031  function topupRewardBucket(uint256 _exaEsAmount) public {... */\n      dup2\n      add\n      swap1\n      dup1\n      dup1\n      calldataload\n      swap1\n      0x20\n      add\n      swap1\n      swap3\n      swap2\n      swap1\n      pop\n      pop\n      pop\n      tag_76\n      jump\t// in\n    tag_74:\n      stop\n        /* \"TimeAlly.sol\":2155:2188  StakingPlan[] public stakingPlans */\n    tag_12:\n      tag_77\n      0x04\n      dup1\n      calldatasize\n      sub\n        /* \"--CODEGEN--\":13:15   */\n      0x20\n        /* \"--CODEGEN--\":8:11   */\n      dup2\n        /* \"--CODEGEN--\":5:16   */\n      lt\n        /* \"--CODEGEN--\":2:4   */\n      iszero\n      tag_78\n      jumpi\n        /* \"--CODEGEN--\":29:30   */\n      0x00\n        /* \"--CODEGEN--\":26:27   */\n      dup1\n        /* \"--CODEGEN--\":19:31   */\n      revert\n        /* \"--CODEGEN--\":2:4   */\n    tag_78:\n        /* \"TimeAlly.sol\":2155:2188  StakingPlan[] public stakingPlans */\n      dup2\n      add\n      swap1\n      dup1\n      dup1\n      calldataload\n      swap1\n      0x20\n      add\n      swap1\n      swap3\n      swap2\n      swap1\n      pop\n      pop\n      pop\n      tag_79\n      jump\t// in\n    tag_77:\n      mload(0x40)\n      dup1\n      dup6\n      dup2\n      mstore\n      0x20\n      add\n      dup5\n      dup2\n      mstore\n      0x20\n      add\n      dup4\n      iszero\n      iszero\n      iszero\n      iszero\n      dup2\n      mstore\n      0x20\n      add\n      dup3\n      iszero\n      iszero\n      iszero\n      iszero\n      dup2\n      mstore\n      0x20\n      add\n      swap5\n      pop\n      pop\n      pop\n      pop\n      pop\n      mload(0x40)\n      dup1\n      swap2\n      sub\n      swap1\n      return\n        /* \"TimeAlly.sol\":5330:5645  function createStakingPlan(uint256 _months, uint256 _fractionFrom15, bool _isLoanAllowed) public onlyOwner {... */\n    tag_13:\n      tag_80\n      0x04\n      dup1\n      calldatasize\n      sub\n        /* \"--CODEGEN--\":13:15   */\n      0x60\n        /* \"--CODEGEN--\":8:11   */\n      dup2\n        /* \"--CODEGEN--\":5:16   */\n      lt\n        /* \"--CODEGEN--\":2:4   */\n      iszero\n      tag_81\n      jumpi\n        /* \"--CODEGEN--\":29:30   */\n      0x00\n        /* \"--CODEGEN--\":26:27   */\n      dup1\n        /* \"--CODEGEN--\":19:31   */\n      revert\n        /* \"--CODEGEN--\":2:4   */\n    tag_81:\n        /* \"TimeAlly.sol\":5330:5645  function createStakingPlan(uint256 _months, uint256 _fractionFrom15, bool _isLoanAllowed) public onlyOwner {... */\n      dup2\n      add\n      swap1\n      dup1\n      dup1\n      calldataload\n      swap1\n      0x20\n      add\n      swap1\n      swap3\n      swap2\n      swap1\n      dup1\n      calldataload\n      swap1\n      0x20\n      add\n      swap1\n      swap3\n      swap2\n      swap1\n      dup1\n      calldataload\n      iszero\n      iszero\n      swap1\n      0x20\n      add\n      swap1\n      swap3\n      swap2\n      swap1\n      pop\n      pop\n      pop\n      tag_82\n      jump\t// in\n    tag_80:\n      stop\n        /* \"TimeAlly.sol\":2354:2401  mapping(address => uint256) public launchReward */\n    tag_14:\n      tag_83\n      0x04\n      dup1\n      calldatasize\n      sub\n        /* \"--CODEGEN--\":13:15   */\n      0x20\n        /* \"--CODEGEN--\":8:11   */\n      dup2\n        /* \"--CODEGEN--\":5:16   */\n      lt\n        /* \"--CODEGEN--\":2:4   */\n      iszero\n      tag_84\n      jumpi\n        /* \"--CODEGEN--\":29:30   */\n      0x00\n        /* \"--CODEGEN--\":26:27   */\n      dup1\n        /* \"--CODEGEN--\":19:31   */\n      revert\n        /* \"--CODEGEN--\":2:4   */\n    tag_84:\n        /* \"TimeAlly.sol\":2354:2401  mapping(address => uint256) public launchReward */\n      dup2\n      add\n      swap1\n      dup1\n      dup1\n      calldataload\n      0xffffffffffffffffffffffffffffffffffffffff\n      and\n      swap1\n      0x20\n      add\n      swap1\n      swap3\n      swap2\n      swap1\n      pop\n      pop\n      pop\n      tag_85\n      jump\t// in\n    tag_83:\n      mload(0x40)\n      dup1\n      dup3\n      dup2\n      mstore\n      0x20\n      add\n      swap2\n      pop\n      pop\n      mload(0x40)\n      dup1\n      swap2\n      sub\n      swap1\n      return\n        /* \"TimeAlly.sol\":6034:6238  function createLoanPlan(uint256 _loanMonths, uint256 _loanRate) public onlyOwner {... */\n    tag_15:\n      tag_86\n      0x04\n      dup1\n      calldatasize\n      sub\n        /* \"--CODEGEN--\":13:15   */\n      0x40\n        /* \"--CODEGEN--\":8:11   */\n      dup2\n        /* \"--CODEGEN--\":5:16   */\n      lt\n        /* \"--CODEGEN--\":2:4   */\n      iszero\n      tag_87\n      jumpi\n        /* \"--CODEGEN--\":29:30   */\n      0x00\n        /* \"--CODEGEN--\":26:27   */\n      dup1\n        /* \"--CODEGEN--\":19:31   */\n      revert\n        /* \"--CODEGEN--\":2:4   */\n    tag_87:\n        /* \"TimeAlly.sol\":6034:6238  function createLoanPlan(uint256 _loanMonths, uint256 _loanRate) public onlyOwner {... */\n      dup2\n      add\n      swap1\n      dup1\n      dup1\n      calldataload\n      swap1\n      0x20\n      add\n      swap1\n      swap3\n      swap2\n      swap1\n      dup1\n      calldataload\n      swap1\n      0x20\n      add\n      swap1\n      swap3\n      swap2\n      swap1\n      pop\n      pop\n      pop\n      tag_88\n      jump\t// in\n    tag_86:\n      stop\n        /* \"TimeAlly.sol\":10279:10649  function giveLaunchReward(address[] memory _addresses, uint256[] memory _exaEsAmountArray) public onlyOwner {... */\n    tag_16:\n      tag_89\n      0x04\n      dup1\n      calldatasize\n      sub\n        /* \"--CODEGEN--\":13:15   */\n      0x40\n        /* \"--CODEGEN--\":8:11   */\n      dup2\n        /* \"--CODEGEN--\":5:16   */\n      lt\n        /* \"--CODEGEN--\":2:4   */\n      iszero\n      tag_90\n      jumpi\n        /* \"--CODEGEN--\":29:30   */\n      0x00\n        /* \"--CODEGEN--\":26:27   */\n      dup1\n        /* \"--CODEGEN--\":19:31   */\n      revert\n        /* \"--CODEGEN--\":2:4   */\n    tag_90:\n        /* \"TimeAlly.sol\":10279:10649  function giveLaunchReward(address[] memory _addresses, uint256[] memory _exaEsAmountArray) public onlyOwner {... */\n      dup2\n      add\n      swap1\n      dup1\n      dup1\n      calldataload\n      swap1\n      0x20\n      add\n      swap1\n        /* \"--CODEGEN--\":21:32   */\n      0x0100000000\n        /* \"--CODEGEN--\":8:19   */\n      dup2\n        /* \"--CODEGEN--\":5:33   */\n      gt\n        /* \"--CODEGEN--\":2:4   */\n      iszero\n      tag_91\n      jumpi\n        /* \"--CODEGEN--\":46:47   */\n      0x00\n        /* \"--CODEGEN--\":43:44   */\n      dup1\n        /* \"--CODEGEN--\":36:48   */\n      revert\n        /* \"--CODEGEN--\":2:4   */\n    tag_91:\n        /* \"TimeAlly.sol\":10279:10649  function giveLaunchReward(address[] memory _addresses, uint256[] memory _exaEsAmountArray) public onlyOwner {... */\n      dup3\n      add\n        /* \"--CODEGEN--\":35:44   */\n      dup4\n        /* \"--CODEGEN--\":28:32   */\n      0x20\n        /* \"--CODEGEN--\":12:26   */\n      dup3\n        /* \"--CODEGEN--\":8:33   */\n      add\n        /* \"--CODEGEN--\":5:45   */\n      gt\n        /* \"--CODEGEN--\":2:4   */\n      iszero\n      tag_92\n      jumpi\n        /* \"--CODEGEN--\":58:59   */\n      0x00\n        /* \"--CODEGEN--\":55:56   */\n      dup1\n        /* \"--CODEGEN--\":48:60   */\n      revert\n        /* \"--CODEGEN--\":2:4   */\n    tag_92:\n        /* \"TimeAlly.sol\":10279:10649  function giveLaunchReward(address[] memory _addresses, uint256[] memory _exaEsAmountArray) public onlyOwner {... */\n      dup1\n      calldataload\n      swap1\n      0x20\n      add\n      swap2\n        /* \"--CODEGEN--\":101:110   */\n      dup5\n        /* \"--CODEGEN--\":95:97   */\n      0x20\n        /* \"--CODEGEN--\":81:93   */\n      dup4\n        /* \"--CODEGEN--\":77:98   */\n      mul\n        /* \"--CODEGEN--\":67:75   */\n      dup5\n        /* \"--CODEGEN--\":63:99   */\n      add\n        /* \"--CODEGEN--\":60:111   */\n      gt\n        /* \"--CODEGEN--\":39:50   */\n      0x0100000000\n        /* \"--CODEGEN--\":25:37   */\n      dup4\n        /* \"--CODEGEN--\":22:51   */\n      gt\n        /* \"--CODEGEN--\":11:119   */\n      or\n        /* \"--CODEGEN--\":8:10   */\n      iszero\n      tag_93\n      jumpi\n        /* \"--CODEGEN--\":132:133   */\n      0x00\n        /* \"--CODEGEN--\":129:130   */\n      dup1\n        /* \"--CODEGEN--\":122:134   */\n      revert\n        /* \"--CODEGEN--\":8:10   */\n    tag_93:\n        /* \"TimeAlly.sol\":10279:10649  function giveLaunchReward(address[] memory _addresses, uint256[] memory _exaEsAmountArray) public onlyOwner {... */\n      swap2\n      swap1\n      dup1\n      dup1\n      0x20\n      mul\n      0x20\n      add\n      mload(0x40)\n      swap1\n      dup2\n      add\n      0x40\n      mstore\n      dup1\n      swap4\n      swap3\n      swap2\n      swap1\n      dup2\n      dup2\n      mstore\n      0x20\n      add\n      dup4\n      dup4\n      0x20\n      mul\n        /* \"--CODEGEN--\":30:33   */\n      dup1\n        /* \"--CODEGEN--\":22:28   */\n      dup3\n        /* \"--CODEGEN--\":14:20   */\n      dup5\n        /* \"--CODEGEN--\":1:34   */\n      calldatacopy\n        /* \"--CODEGEN--\":99:100   */\n      0x00\n        /* \"--CODEGEN--\":93:96   */\n      dup2\n        /* \"--CODEGEN--\":85:91   */\n      dup5\n        /* \"--CODEGEN--\":81:97   */\n      add\n        /* \"--CODEGEN--\":74:101   */\n      mstore\n        /* \"--CODEGEN--\":137:141   */\n      0x1f\n        /* \"--CODEGEN--\":133:142   */\n      not\n        /* \"--CODEGEN--\":126:130   */\n      0x1f\n        /* \"--CODEGEN--\":121:124   */\n      dup3\n        /* \"--CODEGEN--\":117:131   */\n      add\n        /* \"--CODEGEN--\":113:143   */\n      and\n        /* \"--CODEGEN--\":106:143   */\n      swap1\n      pop\n        /* \"--CODEGEN--\":169:172   */\n      dup1\n        /* \"--CODEGEN--\":161:167   */\n      dup4\n        /* \"--CODEGEN--\":157:173   */\n      add\n        /* \"--CODEGEN--\":147:173   */\n      swap3\n      pop\n        /* \"TimeAlly.sol\":10279:10649  function giveLaunchReward(address[] memory _addresses, uint256[] memory _exaEsAmountArray) public onlyOwner {... */\n      pop\n      pop\n      pop\n      pop\n      pop\n      pop\n      swap2\n      swap3\n      swap2\n      swap3\n      swap1\n      dup1\n      calldataload\n      swap1\n      0x20\n      add\n      swap1\n        /* \"--CODEGEN--\":21:32   */\n      0x0100000000\n        /* \"--CODEGEN--\":8:19   */\n      dup2\n        /* \"--CODEGEN--\":5:33   */\n      gt\n        /* \"--CODEGEN--\":2:4   */\n      iszero\n      tag_94\n      jumpi\n        /* \"--CODEGEN--\":46:47   */\n      0x00\n        /* \"--CODEGEN--\":43:44   */\n      dup1\n        /* \"--CODEGEN--\":36:48   */\n      revert\n        /* \"--CODEGEN--\":2:4   */\n    tag_94:\n        /* \"TimeAlly.sol\":10279:10649  function giveLaunchReward(address[] memory _addresses, uint256[] memory _exaEsAmountArray) public onlyOwner {... */\n      dup3\n      add\n        /* \"--CODEGEN--\":35:44   */\n      dup4\n        /* \"--CODEGEN--\":28:32   */\n      0x20\n        /* \"--CODEGEN--\":12:26   */\n      dup3\n        /* \"--CODEGEN--\":8:33   */\n      add\n        /* \"--CODEGEN--\":5:45   */\n      gt\n        /* \"--CODEGEN--\":2:4   */\n      iszero\n      tag_95\n      jumpi\n        /* \"--CODEGEN--\":58:59   */\n      0x00\n        /* \"--CODEGEN--\":55:56   */\n      dup1\n        /* \"--CODEGEN--\":48:60   */\n      revert\n        /* \"--CODEGEN--\":2:4   */\n    tag_95:\n        /* \"TimeAlly.sol\":10279:10649  function giveLaunchReward(address[] memory _addresses, uint256[] memory _exaEsAmountArray) public onlyOwner {... */\n      dup1\n      calldataload\n      swap1\n      0x20\n      add\n      swap2\n        /* \"--CODEGEN--\":101:110   */\n      dup5\n        /* \"--CODEGEN--\":95:97   */\n      0x20\n        /* \"--CODEGEN--\":81:93   */\n      dup4\n        /* \"--CODEGEN--\":77:98   */\n      mul\n        /* \"--CODEGEN--\":67:75   */\n      dup5\n        /* \"--CODEGEN--\":63:99   */\n      add\n        /* \"--CODEGEN--\":60:111   */\n      gt\n        /* \"--CODEGEN--\":39:50   */\n      0x0100000000\n        /* \"--CODEGEN--\":25:37   */\n      dup4\n        /* \"--CODEGEN--\":22:51   */\n      gt\n        /* \"--CODEGEN--\":11:119   */\n      or\n        /* \"--CODEGEN--\":8:10   */\n      iszero\n      tag_96\n      jumpi\n        /* \"--CODEGEN--\":132:133   */\n      0x00\n        /* \"--CODEGEN--\":129:130   */\n      dup1\n        /* \"--CODEGEN--\":122:134   */\n      revert\n        /* \"--CODEGEN--\":8:10   */\n    tag_96:\n        /* \"TimeAlly.sol\":10279:10649  function giveLaunchReward(address[] memory _addresses, uint256[] memory _exaEsAmountArray) public onlyOwner {... */\n      swap2\n      swap1\n      dup1\n      dup1\n      0x20\n      mul\n      0x20\n      add\n      mload(0x40)\n      swap1\n      dup2\n      add\n      0x40\n      mstore\n      dup1\n      swap4\n      swap3\n      swap2\n      swap1\n      dup2\n      dup2\n      mstore\n      0x20\n      add\n      dup4\n      dup4\n      0x20\n      mul\n        /* \"--CODEGEN--\":30:33   */\n      dup1\n        /* \"--CODEGEN--\":22:28   */\n      dup3\n        /* \"--CODEGEN--\":14:20   */\n      dup5\n        /* \"--CODEGEN--\":1:34   */\n      calldatacopy\n        /* \"--CODEGEN--\":99:100   */\n      0x00\n        /* \"--CODEGEN--\":93:96   */\n      dup2\n        /* \"--CODEGEN--\":85:91   */\n      dup5\n        /* \"--CODEGEN--\":81:97   */\n      add\n        /* \"--CODEGEN--\":74:101   */\n      mstore\n        /* \"--CODEGEN--\":137:141   */\n      0x1f\n        /* \"--CODEGEN--\":133:142   */\n      not\n        /* \"--CODEGEN--\":126:130   */\n      0x1f\n        /* \"--CODEGEN--\":121:124   */\n      dup3\n        /* \"--CODEGEN--\":117:131   */\n      add\n        /* \"--CODEGEN--\":113:143   */\n      and\n        /* \"--CODEGEN--\":106:143   */\n      swap1\n      pop\n        /* \"--CODEGEN--\":169:172   */\n      dup1\n        /* \"--CODEGEN--\":161:167   */\n      dup4\n        /* \"--CODEGEN--\":157:173   */\n      add\n        /* \"--CODEGEN--\":147:173   */\n      swap3\n      pop\n        /* \"TimeAlly.sol\":10279:10649  function giveLaunchReward(address[] memory _addresses, uint256[] memory _exaEsAmountArray) public onlyOwner {... */\n      pop\n      pop\n      pop\n      pop\n      pop\n      pop\n      swap2\n      swap3\n      swap2\n      swap3\n      swap1\n      pop\n      pop\n      pop\n      tag_97\n      jump\t// in\n    tag_89:\n      stop\n        /* \"TimeAlly.sol\":1846:1866  address public owner */\n    tag_17:\n      tag_98\n      tag_99\n      jump\t// in\n    tag_98:\n      mload(0x40)\n      dup1\n      dup3\n      0xffffffffffffffffffffffffffffffffffffffff\n      and\n      0xffffffffffffffffffffffffffffffffffffffff\n      and\n      dup2\n      mstore\n      0x20\n      add\n      swap2\n      pop\n      pop\n      mload(0x40)\n      dup1\n      swap2\n      sub\n      swap1\n      return\n        /* \"TimeAlly.sol\":39329:42671  function nomineeWithdraw(address _userAddress, uint256 _stakingId) public {... */\n    tag_18:\n      tag_100\n      0x04\n      dup1\n      calldatasize\n      sub\n        /* \"--CODEGEN--\":13:15   */\n      0x40\n        /* \"--CODEGEN--\":8:11   */\n      dup2\n        /* \"--CODEGEN--\":5:16   */\n      lt\n        /* \"--CODEGEN--\":2:4   */\n      iszero\n      tag_101\n      jumpi\n        /* \"--CODEGEN--\":29:30   */\n      0x00\n        /* \"--CODEGEN--\":26:27   */\n      dup1\n        /* \"--CODEGEN--\":19:31   */\n      revert\n        /* \"--CODEGEN--\":2:4   */\n    tag_101:\n        /* \"TimeAlly.sol\":39329:42671  function nomineeWithdraw(address _userAddress, uint256 _stakingId) public {... */\n      dup2\n      add\n      swap1\n      dup1\n      dup1\n      calldataload\n      0xffffffffffffffffffffffffffffffffffffffff\n      and\n      swap1\n      0x20\n      add\n      swap1\n      swap3\n      swap2\n      swap1\n      dup1\n      calldataload\n      swap1\n      0x20\n      add\n      swap1\n      swap3\n      swap2\n      swap1\n      pop\n      pop\n      pop\n      tag_102\n      jump\t// in\n    tag_100:\n      stop\n        /* \"TimeAlly.sol\":2309:2348  mapping(address => Loan[]) public loans */\n    tag_19:\n      tag_103\n      0x04\n      dup1\n      calldatasize\n      sub\n        /* \"--CODEGEN--\":13:15   */\n      0x40\n        /* \"--CODEGEN--\":8:11   */\n      dup2\n        /* \"--CODEGEN--\":5:16   */\n      lt\n        /* \"--CODEGEN--\":2:4   */\n      iszero\n      tag_104\n      jumpi\n        /* \"--CODEGEN--\":29:30   */\n      0x00\n        /* \"--CODEGEN--\":26:27   */\n      dup1\n        /* \"--CODEGEN--\":19:31   */\n      revert\n        /* \"--CODEGEN--\":2:4   */\n    tag_104:\n        /* \"TimeAlly.sol\":2309:2348  mapping(address => Loan[]) public loans */\n      dup2\n      add\n      swap1\n      dup1\n      dup1\n      calldataload\n      0xffffffffffffffffffffffffffffffffffffffff\n      and\n      swap1\n      0x20\n      add\n      swap1\n      swap3\n      swap2\n      swap1\n      dup1\n      calldataload\n      swap1\n      0x20\n      add\n      swap1\n      swap3\n      swap2\n      swap1\n      pop\n      pop\n      pop\n      tag_105\n      jump\t// in\n    tag_103:\n      mload(0x40)\n      dup1\n      dup6\n      dup2\n      mstore\n      0x20\n      add\n      dup5\n      dup2\n      mstore\n      0x20\n      add\n      dup4\n      dup2\n      mstore\n      0x20\n      add\n      dup3\n      dup2\n      mstore\n      0x20\n      add\n      swap5\n      pop\n      pop\n      pop\n      pop\n      pop\n      mload(0x40)\n      dup1\n      swap2\n      sub\n      swap1\n      return\n        /* \"TimeAlly.sol\":21921:23340  function withdrawBenefitOfAStakingByMonths(... */\n    tag_20:\n      tag_106\n      0x04\n      dup1\n      calldatasize\n      sub\n        /* \"--CODEGEN--\":13:15   */\n      0x40\n        /* \"--CODEGEN--\":8:11   */\n      dup2\n        /* \"--CODEGEN--\":5:16   */\n      lt\n        /* \"--CODEGEN--\":2:4   */\n      iszero\n      tag_107\n      jumpi\n        /* \"--CODEGEN--\":29:30   */\n      0x00\n        /* \"--CODEGEN--\":26:27   */\n      dup1\n        /* \"--CODEGEN--\":19:31   */\n      revert\n        /* \"--CODEGEN--\":2:4   */\n    tag_107:\n        /* \"TimeAlly.sol\":21921:23340  function withdrawBenefitOfAStakingByMonths(... */\n      dup2\n      add\n      swap1\n      dup1\n      dup1\n      calldataload\n      swap1\n      0x20\n      add\n      swap1\n      swap3\n      swap2\n      swap1\n      dup1\n      calldataload\n      swap1\n      0x20\n      add\n      swap1\n        /* \"--CODEGEN--\":21:32   */\n      0x0100000000\n        /* \"--CODEGEN--\":8:19   */\n      dup2\n        /* \"--CODEGEN--\":5:33   */\n      gt\n        /* \"--CODEGEN--\":2:4   */\n      iszero\n      tag_108\n      jumpi\n        /* \"--CODEGEN--\":46:47   */\n      0x00\n        /* \"--CODEGEN--\":43:44   */\n      dup1\n        /* \"--CODEGEN--\":36:48   */\n      revert\n        /* \"--CODEGEN--\":2:4   */\n    tag_108:\n        /* \"TimeAlly.sol\":21921:23340  function withdrawBenefitOfAStakingByMonths(... */\n      dup3\n      add\n        /* \"--CODEGEN--\":35:44   */\n      dup4\n        /* \"--CODEGEN--\":28:32   */\n      0x20\n        /* \"--CODEGEN--\":12:26   */\n      dup3\n        /* \"--CODEGEN--\":8:33   */\n      add\n        /* \"--CODEGEN--\":5:45   */\n      gt\n        /* \"--CODEGEN--\":2:4   */\n      iszero\n      tag_109\n      jumpi\n        /* \"--CODEGEN--\":58:59   */\n      0x00\n        /* \"--CODEGEN--\":55:56   */\n      dup1\n        /* \"--CODEGEN--\":48:60   */\n      revert\n        /* \"--CODEGEN--\":2:4   */\n    tag_109:\n        /* \"TimeAlly.sol\":21921:23340  function withdrawBenefitOfAStakingByMonths(... */\n      dup1\n      calldataload\n      swap1\n      0x20\n      add\n      swap2\n        /* \"--CODEGEN--\":101:110   */\n      dup5\n        /* \"--CODEGEN--\":95:97   */\n      0x20\n        /* \"--CODEGEN--\":81:93   */\n      dup4\n        /* \"--CODEGEN--\":77:98   */\n      mul\n        /* \"--CODEGEN--\":67:75   */\n      dup5\n        /* \"--CODEGEN--\":63:99   */\n      add\n        /* \"--CODEGEN--\":60:111   */\n      gt\n        /* \"--CODEGEN--\":39:50   */\n      0x0100000000\n        /* \"--CODEGEN--\":25:37   */\n      dup4\n        /* \"--CODEGEN--\":22:51   */\n      gt\n        /* \"--CODEGEN--\":11:119   */\n      or\n        /* \"--CODEGEN--\":8:10   */\n      iszero\n      tag_110\n      jumpi\n        /* \"--CODEGEN--\":132:133   */\n      0x00\n        /* \"--CODEGEN--\":129:130   */\n      dup1\n        /* \"--CODEGEN--\":122:134   */\n      revert\n        /* \"--CODEGEN--\":8:10   */\n    tag_110:\n        /* \"TimeAlly.sol\":21921:23340  function withdrawBenefitOfAStakingByMonths(... */\n      swap2\n      swap1\n      dup1\n      dup1\n      0x20\n      mul\n      0x20\n      add\n      mload(0x40)\n      swap1\n      dup2\n      add\n      0x40\n      mstore\n      dup1\n      swap4\n      swap3\n      swap2\n      swap1\n      dup2\n      dup2\n      mstore\n      0x20\n      add\n      dup4\n      dup4\n      0x20\n      mul\n        /* \"--CODEGEN--\":30:33   */\n      dup1\n        /* \"--CODEGEN--\":22:28   */\n      dup3\n        /* \"--CODEGEN--\":14:20   */\n      dup5\n        /* \"--CODEGEN--\":1:34   */\n      calldatacopy\n        /* \"--CODEGEN--\":99:100   */\n      0x00\n        /* \"--CODEGEN--\":93:96   */\n      dup2\n        /* \"--CODEGEN--\":85:91   */\n      dup5\n        /* \"--CODEGEN--\":81:97   */\n      add\n        /* \"--CODEGEN--\":74:101   */\n      mstore\n        /* \"--CODEGEN--\":137:141   */\n      0x1f\n        /* \"--CODEGEN--\":133:142   */\n      not\n        /* \"--CODEGEN--\":126:130   */\n      0x1f\n        /* \"--CODEGEN--\":121:124   */\n      dup3\n        /* \"--CODEGEN--\":117:131   */\n      add\n        /* \"--CODEGEN--\":113:143   */\n      and\n        /* \"--CODEGEN--\":106:143   */\n      swap1\n      pop\n        /* \"--CODEGEN--\":169:172   */\n      dup1\n        /* \"--CODEGEN--\":161:167   */\n      dup4\n        /* \"--CODEGEN--\":157:173   */\n      add\n        /* \"--CODEGEN--\":147:173   */\n      swap3\n      pop\n        /* \"TimeAlly.sol\":21921:23340  function withdrawBenefitOfAStakingByMonths(... */\n      pop\n      pop\n      pop\n      pop\n      pop\n      pop\n      swap2\n      swap3\n      swap2\n      swap3\n      swap1\n      pop\n      pop\n      pop\n      tag_111\n      jump\t// in\n    tag_106:\n      stop\n        /* \"TimeAlly.sol\":35970:36597  function addNominee(uint256 _stakingId, address _nomineeAddress, uint256 _shares) public {... */\n    tag_21:\n      tag_112\n      0x04\n      dup1\n      calldatasize\n      sub\n        /* \"--CODEGEN--\":13:15   */\n      0x60\n        /* \"--CODEGEN--\":8:11   */\n      dup2\n        /* \"--CODEGEN--\":5:16   */\n      lt\n        /* \"--CODEGEN--\":2:4   */\n      iszero\n      tag_113\n      jumpi\n        /* \"--CODEGEN--\":29:30   */\n      0x00\n        /* \"--CODEGEN--\":26:27   */\n      dup1\n        /* \"--CODEGEN--\":19:31   */\n      revert\n        /* \"--CODEGEN--\":2:4   */\n    tag_113:\n        /* \"TimeAlly.sol\":35970:36597  function addNominee(uint256 _stakingId, address _nomineeAddress, uint256 _shares) public {... */\n      dup2\n      add\n      swap1\n      dup1\n      dup1\n      calldataload\n      swap1\n      0x20\n      add\n      swap1\n      swap3\n      swap2\n      swap1\n      dup1\n      calldataload\n      0xffffffffffffffffffffffffffffffffffffffff\n      and\n      swap1\n      0x20\n      add\n      swap1\n      swap3\n      swap2\n      swap1\n      dup1\n      calldataload\n      swap1\n      0x20\n      add\n      swap1\n      swap3\n      swap2\n      swap1\n      pop\n      pop\n      pop\n      tag_114\n      jump\t// in\n    tag_112:\n      stop\n        /* \"TimeAlly.sol\":8594:8734  function getNumberOfStakingsByUser(address _userAddress) public view returns (uint256) {... */\n    tag_22:\n      tag_115\n      0x04\n      dup1\n      calldatasize\n      sub\n        /* \"--CODEGEN--\":13:15   */\n      0x20\n        /* \"--CODEGEN--\":8:11   */\n      dup2\n        /* \"--CODEGEN--\":5:16   */\n      lt\n        /* \"--CODEGEN--\":2:4   */\n      iszero\n      tag_116\n      jumpi\n        /* \"--CODEGEN--\":29:30   */\n      0x00\n        /* \"--CODEGEN--\":26:27   */\n      dup1\n        /* \"--CODEGEN--\":19:31   */\n      revert\n        /* \"--CODEGEN--\":2:4   */\n    tag_116:\n        /* \"TimeAlly.sol\":8594:8734  function getNumberOfStakingsByUser(address _userAddress) public view returns (uint256) {... */\n      dup2\n      add\n      swap1\n      dup1\n      dup1\n      calldataload\n      0xffffffffffffffffffffffffffffffffffffffff\n      and\n      swap1\n      0x20\n      add\n      swap1\n      swap3\n      swap2\n      swap1\n      pop\n      pop\n      pop\n      tag_117\n      jump\t// in\n    tag_115:\n      mload(0x40)\n      dup1\n      dup3\n      dup2\n      mstore\n      0x20\n      add\n      swap2\n      pop\n      pop\n      mload(0x40)\n      dup1\n      swap2\n      sub\n      swap1\n      return\n        /* \"TimeAlly.sol\":27650:28761  function seeMaxLoaningAmountOnUserStakings(address _userAddress, uint256[] memory _stakingIds) public view returns (uint256) {... */\n    tag_23:\n      tag_118\n      0x04\n      dup1\n      calldatasize\n      sub\n        /* \"--CODEGEN--\":13:15   */\n      0x40\n        /* \"--CODEGEN--\":8:11   */\n      dup2\n        /* \"--CODEGEN--\":5:16   */\n      lt\n        /* \"--CODEGEN--\":2:4   */\n      iszero\n      tag_119\n      jumpi\n        /* \"--CODEGEN--\":29:30   */\n      0x00\n        /* \"--CODEGEN--\":26:27   */\n      dup1\n        /* \"--CODEGEN--\":19:31   */\n      revert\n        /* \"--CODEGEN--\":2:4   */\n    tag_119:\n        /* \"TimeAlly.sol\":27650:28761  function seeMaxLoaningAmountOnUserStakings(address _userAddress, uint256[] memory _stakingIds) public view returns (uint256) {... */\n      dup2\n      add\n      swap1\n      dup1\n      dup1\n      calldataload\n      0xffffffffffffffffffffffffffffffffffffffff\n      and\n      swap1\n      0x20\n      add\n      swap1\n      swap3\n      swap2\n      swap1\n      dup1\n      calldataload\n      swap1\n      0x20\n      add\n      swap1\n        /* \"--CODEGEN--\":21:32   */\n      0x0100000000\n        /* \"--CODEGEN--\":8:19   */\n      dup2\n        /* \"--CODEGEN--\":5:33   */\n      gt\n        /* \"--CODEGEN--\":2:4   */\n      iszero\n      tag_120\n      jumpi\n        /* \"--CODEGEN--\":46:47   */\n      0x00\n        /* \"--CODEGEN--\":43:44   */\n      dup1\n        /* \"--CODEGEN--\":36:48   */\n      revert\n        /* \"--CODEGEN--\":2:4   */\n    tag_120:\n        /* \"TimeAlly.sol\":27650:28761  function seeMaxLoaningAmountOnUserStakings(address _userAddress, uint256[] memory _stakingIds) public view returns (uint256) {... */\n      dup3\n      add\n        /* \"--CODEGEN--\":35:44   */\n      dup4\n        /* \"--CODEGEN--\":28:32   */\n      0x20\n        /* \"--CODEGEN--\":12:26   */\n      dup3\n        /* \"--CODEGEN--\":8:33   */\n      add\n        /* \"--CODEGEN--\":5:45   */\n      gt\n        /* \"--CODEGEN--\":2:4   */\n      iszero\n      tag_121\n      jumpi\n        /* \"--CODEGEN--\":58:59   */\n      0x00\n        /* \"--CODEGEN--\":55:56   */\n      dup1\n        /* \"--CODEGEN--\":48:60   */\n      revert\n        /* \"--CODEGEN--\":2:4   */\n    tag_121:\n        /* \"TimeAlly.sol\":27650:28761  function seeMaxLoaningAmountOnUserStakings(address _userAddress, uint256[] memory _stakingIds) public view returns (uint256) {... */\n      dup1\n      calldataload\n      swap1\n      0x20\n      add\n      swap2\n        /* \"--CODEGEN--\":101:110   */\n      dup5\n        /* \"--CODEGEN--\":95:97   */\n      0x20\n        /* \"--CODEGEN--\":81:93   */\n      dup4\n        /* \"--CODEGEN--\":77:98   */\n      mul\n        /* \"--CODEGEN--\":67:75   */\n      dup5\n        /* \"--CODEGEN--\":63:99   */\n      add\n        /* \"--CODEGEN--\":60:111   */\n      gt\n        /* \"--CODEGEN--\":39:50   */\n      0x0100000000\n        /* \"--CODEGEN--\":25:37   */\n      dup4\n        /* \"--CODEGEN--\":22:51   */\n      gt\n        /* \"--CODEGEN--\":11:119   */\n      or\n        /* \"--CODEGEN--\":8:10   */\n      iszero\n      tag_122\n      jumpi\n        /* \"--CODEGEN--\":132:133   */\n      0x00\n        /* \"--CODEGEN--\":129:130   */\n      dup1\n        /* \"--CODEGEN--\":122:134   */\n      revert\n        /* \"--CODEGEN--\":8:10   */\n    tag_122:\n        /* \"TimeAlly.sol\":27650:28761  function seeMaxLoaningAmountOnUserStakings(address _userAddress, uint256[] memory _stakingIds) public view returns (uint256) {... */\n      swap2\n      swap1\n      dup1\n      dup1\n      0x20\n      mul\n      0x20\n      add\n      mload(0x40)\n      swap1\n      dup2\n      add\n      0x40\n      mstore\n      dup1\n      swap4\n      swap3\n      swap2\n      swap1\n      dup2\n      dup2\n      mstore\n      0x20\n      add\n      dup4\n      dup4\n      0x20\n      mul\n        /* \"--CODEGEN--\":30:33   */\n      dup1\n        /* \"--CODEGEN--\":22:28   */\n      dup3\n        /* \"--CODEGEN--\":14:20   */\n      dup5\n        /* \"--CODEGEN--\":1:34   */\n      calldatacopy\n        /* \"--CODEGEN--\":99:100   */\n      0x00\n        /* \"--CODEGEN--\":93:96   */\n      dup2\n        /* \"--CODEGEN--\":85:91   */\n      dup5\n        /* \"--CODEGEN--\":81:97   */\n      add\n        /* \"--CODEGEN--\":74:101   */\n      mstore\n        /* \"--CODEGEN--\":137:141   */\n      0x1f\n        /* \"--CODEGEN--\":133:142   */\n      not\n        /* \"--CODEGEN--\":126:130   */\n      0x1f\n        /* \"--CODEGEN--\":121:124   */\n      dup3\n        /* \"--CODEGEN--\":117:131   */\n      add\n        /* \"--CODEGEN--\":113:143   */\n      and\n        /* \"--CODEGEN--\":106:143   */\n      swap1\n      pop\n        /* \"--CODEGEN--\":169:172   */\n      dup1\n        /* \"--CODEGEN--\":161:167   */\n      dup4\n        /* \"--CODEGEN--\":157:173   */\n      add\n        /* \"--CODEGEN--\":147:173   */\n      swap3\n      pop\n        /* \"TimeAlly.sol\":27650:28761  function seeMaxLoaningAmountOnUserStakings(address _userAddress, uint256[] memory _stakingIds) public view returns (uint256) {... */\n      pop\n      pop\n      pop\n      pop\n      pop\n      pop\n      swap2\n      swap3\n      swap2\n      swap3\n      swap1\n      pop\n      pop\n      pop\n      tag_123\n      jump\t// in\n    tag_118:\n      mload(0x40)\n      dup1\n      dup3\n      dup2\n      mstore\n      0x20\n      add\n      swap2\n      pop\n      pop\n      mload(0x40)\n      dup1\n      swap2\n      sub\n      swap1\n      return\n        /* \"TimeAlly.sol\":6552:6723  function toggleStakingPlan(uint256 _stakingPlanId) public onlyOwner {... */\n    tag_24:\n      tag_124\n      0x04\n      dup1\n      calldatasize\n      sub\n        /* \"--CODEGEN--\":13:15   */\n      0x20\n        /* \"--CODEGEN--\":8:11   */\n      dup2\n        /* \"--CODEGEN--\":5:16   */\n      lt\n        /* \"--CODEGEN--\":2:4   */\n      iszero\n      tag_125\n      jumpi\n        /* \"--CODEGEN--\":29:30   */\n      0x00\n        /* \"--CODEGEN--\":26:27   */\n      dup1\n        /* \"--CODEGEN--\":19:31   */\n      revert\n        /* \"--CODEGEN--\":2:4   */\n    tag_125:\n        /* \"TimeAlly.sol\":6552:6723  function toggleStakingPlan(uint256 _stakingPlanId) public onlyOwner {... */\n      dup2\n      add\n      swap1\n      dup1\n      dup1\n      calldataload\n      swap1\n      0x20\n      add\n      swap1\n      swap3\n      swap2\n      swap1\n      pop\n      pop\n      pop\n      tag_126\n      jump\t// in\n    tag_124:\n      stop\n        /* \"TimeAlly.sol\":2194:2221  LoanPlan[] public loanPlans */\n    tag_25:\n      tag_127\n      0x04\n      dup1\n      calldatasize\n      sub\n        /* \"--CODEGEN--\":13:15   */\n      0x20\n        /* \"--CODEGEN--\":8:11   */\n      dup2\n        /* \"--CODEGEN--\":5:16   */\n      lt\n        /* \"--CODEGEN--\":2:4   */\n      iszero\n      tag_128\n      jumpi\n        /* \"--CODEGEN--\":29:30   */\n      0x00\n        /* \"--CODEGEN--\":26:27   */\n      dup1\n        /* \"--CODEGEN--\":19:31   */\n      revert\n        /* \"--CODEGEN--\":2:4   */\n    tag_128:\n        /* \"TimeAlly.sol\":2194:2221  LoanPlan[] public loanPlans */\n      dup2\n      add\n      swap1\n      dup1\n      dup1\n      calldataload\n      swap1\n      0x20\n      add\n      swap1\n      swap3\n      swap2\n      swap1\n      pop\n      pop\n      pop\n      tag_129\n      jump\t// in\n    tag_127:\n      mload(0x40)\n      dup1\n      dup4\n      dup2\n      mstore\n      0x20\n      add\n      dup3\n      dup2\n      mstore\n      0x20\n      add\n      swap3\n      pop\n      pop\n      pop\n      mload(0x40)\n      dup1\n      swap2\n      sub\n      swap1\n      return\n        /* \"TimeAlly.sol\":29186:31918  function takeLoanOnSelfStaking(uint256 _loanPlanId, uint256 _exaEsAmount, uint256[] memory _stakingIds) public {... */\n    tag_26:\n      tag_130\n      0x04\n      dup1\n      calldatasize\n      sub\n        /* \"--CODEGEN--\":13:15   */\n      0x60\n        /* \"--CODEGEN--\":8:11   */\n      dup2\n        /* \"--CODEGEN--\":5:16   */\n      lt\n        /* \"--CODEGEN--\":2:4   */\n      iszero\n      tag_131\n      jumpi\n        /* \"--CODEGEN--\":29:30   */\n      0x00\n        /* \"--CODEGEN--\":26:27   */\n      dup1\n        /* \"--CODEGEN--\":19:31   */\n      revert\n        /* \"--CODEGEN--\":2:4   */\n    tag_131:\n        /* \"TimeAlly.sol\":29186:31918  function takeLoanOnSelfStaking(uint256 _loanPlanId, uint256 _exaEsAmount, uint256[] memory _stakingIds) public {... */\n      dup2\n      add\n      swap1\n      dup1\n      dup1\n      calldataload\n      swap1\n      0x20\n      add\n      swap1\n      swap3\n      swap2\n      swap1\n      dup1\n      calldataload\n      swap1\n      0x20\n      add\n      swap1\n      swap3\n      swap2\n      swap1\n      dup1\n      calldataload\n      swap1\n      0x20\n      add\n      swap1\n        /* \"--CODEGEN--\":21:32   */\n      0x0100000000\n        /* \"--CODEGEN--\":8:19   */\n      dup2\n        /* \"--CODEGEN--\":5:33   */\n      gt\n        /* \"--CODEGEN--\":2:4   */\n      iszero\n      tag_132\n      jumpi\n        /* \"--CODEGEN--\":46:47   */\n      0x00\n        /* \"--CODEGEN--\":43:44   */\n      dup1\n        /* \"--CODEGEN--\":36:48   */\n      revert\n        /* \"--CODEGEN--\":2:4   */\n    tag_132:\n        /* \"TimeAlly.sol\":29186:31918  function takeLoanOnSelfStaking(uint256 _loanPlanId, uint256 _exaEsAmount, uint256[] memory _stakingIds) public {... */\n      dup3\n      add\n        /* \"--CODEGEN--\":35:44   */\n      dup4\n        /* \"--CODEGEN--\":28:32   */\n      0x20\n        /* \"--CODEGEN--\":12:26   */\n      dup3\n        /* \"--CODEGEN--\":8:33   */\n      add\n        /* \"--CODEGEN--\":5:45   */\n      gt\n        /* \"--CODEGEN--\":2:4   */\n      iszero\n      tag_133\n      jumpi\n        /* \"--CODEGEN--\":58:59   */\n      0x00\n        /* \"--CODEGEN--\":55:56   */\n      dup1\n        /* \"--CODEGEN--\":48:60   */\n      revert\n        /* \"--CODEGEN--\":2:4   */\n    tag_133:\n        /* \"TimeAlly.sol\":29186:31918  function takeLoanOnSelfStaking(uint256 _loanPlanId, uint256 _exaEsAmount, uint256[] memory _stakingIds) public {... */\n      dup1\n      calldataload\n      swap1\n      0x20\n      add\n      swap2\n        /* \"--CODEGEN--\":101:110   */\n      dup5\n        /* \"--CODEGEN--\":95:97   */\n      0x20\n        /* \"--CODEGEN--\":81:93   */\n      dup4\n        /* \"--CODEGEN--\":77:98   */\n      mul\n        /* \"--CODEGEN--\":67:75   */\n      dup5\n        /* \"--CODEGEN--\":63:99   */\n      add\n        /* \"--CODEGEN--\":60:111   */\n      gt\n        /* \"--CODEGEN--\":39:50   */\n      0x0100000000\n        /* \"--CODEGEN--\":25:37   */\n      dup4\n        /* \"--CODEGEN--\":22:51   */\n      gt\n        /* \"--CODEGEN--\":11:119   */\n      or\n        /* \"--CODEGEN--\":8:10   */\n      iszero\n      tag_134\n      jumpi\n        /* \"--CODEGEN--\":132:133   */\n      0x00\n        /* \"--CODEGEN--\":129:130   */\n      dup1\n        /* \"--CODEGEN--\":122:134   */\n      revert\n        /* \"--CODEGEN--\":8:10   */\n    tag_134:\n        /* \"TimeAlly.sol\":29186:31918  function takeLoanOnSelfStaking(uint256 _loanPlanId, uint256 _exaEsAmount, uint256[] memory _stakingIds) public {... */\n      swap2\n      swap1\n      dup1\n      dup1\n      0x20\n      mul\n      0x20\n      add\n      mload(0x40)\n      swap1\n      dup2\n      add\n      0x40\n      mstore\n      dup1\n      swap4\n      swap3\n      swap2\n      swap1\n      dup2\n      dup2\n      mstore\n      0x20\n      add\n      dup4\n      dup4\n      0x20\n      mul\n        /* \"--CODEGEN--\":30:33   */\n      dup1\n        /* \"--CODEGEN--\":22:28   */\n      dup3\n        /* \"--CODEGEN--\":14:20   */\n      dup5\n        /* \"--CODEGEN--\":1:34   */\n      calldatacopy\n        /* \"--CODEGEN--\":99:100   */\n      0x00\n        /* \"--CODEGEN--\":93:96   */\n      dup2\n        /* \"--CODEGEN--\":85:91   */\n      dup5\n        /* \"--CODEGEN--\":81:97   */\n      add\n        /* \"--CODEGEN--\":74:101   */\n      mstore\n        /* \"--CODEGEN--\":137:141   */\n      0x1f\n        /* \"--CODEGEN--\":133:142   */\n      not\n        /* \"--CODEGEN--\":126:130   */\n      0x1f\n        /* \"--CODEGEN--\":121:124   */\n      dup3\n        /* \"--CODEGEN--\":117:131   */\n      add\n        /* \"--CODEGEN--\":113:143   */\n      and\n        /* \"--CODEGEN--\":106:143   */\n      swap1\n      pop\n        /* \"--CODEGEN--\":169:172   */\n      dup1\n        /* \"--CODEGEN--\":161:167   */\n      dup4\n        /* \"--CODEGEN--\":157:173   */\n      add\n        /* \"--CODEGEN--\":147:173   */\n      swap3\n      pop\n        /* \"TimeAlly.sol\":29186:31918  function takeLoanOnSelfStaking(uint256 _loanPlanId, uint256 _exaEsAmount, uint256[] memory _stakingIds) public {... */\n      pop\n      pop\n      pop\n      pop\n      pop\n      pop\n      swap2\n      swap3\n      swap2\n      swap3\n      swap1\n      pop\n      pop\n      pop\n      tag_135\n      jump\t// in\n    tag_130:\n      stop\n        /* \"TimeAlly.sol\":12825:14155  function isStakingActive(... */\n    tag_27:\n      tag_136\n      0x04\n      dup1\n      calldatasize\n      sub\n        /* \"--CODEGEN--\":13:15   */\n      0x60\n        /* \"--CODEGEN--\":8:11   */\n      dup2\n        /* \"--CODEGEN--\":5:16   */\n      lt\n        /* \"--CODEGEN--\":2:4   */\n      iszero\n      tag_137\n      jumpi\n        /* \"--CODEGEN--\":29:30   */\n      0x00\n        /* \"--CODEGEN--\":26:27   */\n      dup1\n        /* \"--CODEGEN--\":19:31   */\n      revert\n        /* \"--CODEGEN--\":2:4   */\n    tag_137:\n        /* \"TimeAlly.sol\":12825:14155  function isStakingActive(... */\n      dup2\n      add\n      swap1\n      dup1\n      dup1\n      calldataload\n      0xffffffffffffffffffffffffffffffffffffffff\n      and\n      swap1\n      0x20\n      add\n      swap1\n      swap3\n      swap2\n      swap1\n      dup1\n      calldataload\n      swap1\n      0x20\n      add\n      swap1\n      swap3\n      swap2\n      swap1\n      dup1\n      calldataload\n      swap1\n      0x20\n      add\n      swap1\n      swap3\n      swap2\n      swap1\n      pop\n      pop\n      pop\n      tag_138\n      jump\t// in\n    tag_136:\n      mload(0x40)\n      dup1\n      dup3\n      iszero\n      iszero\n      iszero\n      iszero\n      dup2\n      mstore\n      0x20\n      add\n      swap2\n      pop\n      pop\n      mload(0x40)\n      dup1\n      swap2\n      sub\n      swap1\n      return\n        /* \"TimeAlly.sol\":10908:12226  function claimLaunchReward(uint256 _stakingPlanId) public {... */\n    tag_28:\n      tag_139\n      0x04\n      dup1\n      calldatasize\n      sub\n        /* \"--CODEGEN--\":13:15   */\n      0x20\n        /* \"--CODEGEN--\":8:11   */\n      dup2\n        /* \"--CODEGEN--\":5:16   */\n      lt\n        /* \"--CODEGEN--\":2:4   */\n      iszero\n      tag_140\n      jumpi\n        /* \"--CODEGEN--\":29:30   */\n      0x00\n        /* \"--CODEGEN--\":26:27   */\n      dup1\n        /* \"--CODEGEN--\":19:31   */\n      revert\n        /* \"--CODEGEN--\":2:4   */\n    tag_140:\n        /* \"TimeAlly.sol\":10908:12226  function claimLaunchReward(uint256 _stakingPlanId) public {... */\n      dup2\n      add\n      swap1\n      dup1\n      dup1\n      calldataload\n      swap1\n      0x20\n      add\n      swap1\n      swap3\n      swap2\n      swap1\n      pop\n      pop\n      pop\n      tag_141\n      jump\t// in\n    tag_139:\n      stop\n        /* \"TimeAlly.sol\":4834:4944  function getCurrentMonth() public view returns (uint256) {... */\n    tag_29:\n      tag_142\n      tag_143\n      jump\t// in\n    tag_142:\n      mload(0x40)\n      dup1\n      dup3\n      dup2\n      mstore\n      0x20\n      add\n      swap2\n      pop\n      pop\n      mload(0x40)\n      dup1\n      swap2\n      sub\n      swap1\n      return\n        /* \"TimeAlly.sol\":32059:33627  function repayLoanSelf(uint256 _loanId) public {... */\n    tag_30:\n      tag_144\n      0x04\n      dup1\n      calldatasize\n      sub\n        /* \"--CODEGEN--\":13:15   */\n      0x20\n        /* \"--CODEGEN--\":8:11   */\n      dup2\n        /* \"--CODEGEN--\":5:16   */\n      lt\n        /* \"--CODEGEN--\":2:4   */\n      iszero\n      tag_145\n      jumpi\n        /* \"--CODEGEN--\":29:30   */\n      0x00\n        /* \"--CODEGEN--\":26:27   */\n      dup1\n        /* \"--CODEGEN--\":19:31   */\n      revert\n        /* \"--CODEGEN--\":2:4   */\n    tag_145:\n        /* \"TimeAlly.sol\":32059:33627  function repayLoanSelf(uint256 _loanId) public {... */\n      dup2\n      add\n      swap1\n      dup1\n      dup1\n      calldataload\n      swap1\n      0x20\n      add\n      swap1\n      swap3\n      swap2\n      swap1\n      pop\n      pop\n      pop\n      tag_146\n      jump\t// in\n    tag_144:\n      stop\n        /* \"TimeAlly.sol\":6981:8407  function newStaking(uint256 _exaEsAmount, uint256 _stakingPlanId) public {... */\n    tag_31:\n      tag_147\n      0x04\n      dup1\n      calldatasize\n      sub\n        /* \"--CODEGEN--\":13:15   */\n      0x40\n        /* \"--CODEGEN--\":8:11   */\n      dup2\n        /* \"--CODEGEN--\":5:16   */\n      lt\n        /* \"--CODEGEN--\":2:4   */\n      iszero\n      tag_148\n      jumpi\n        /* \"--CODEGEN--\":29:30   */\n      0x00\n        /* \"--CODEGEN--\":26:27   */\n      dup1\n        /* \"--CODEGEN--\":19:31   */\n      revert\n        /* \"--CODEGEN--\":2:4   */\n    tag_148:\n        /* \"TimeAlly.sol\":6981:8407  function newStaking(uint256 _exaEsAmount, uint256 _stakingPlanId) public {... */\n      dup2\n      add\n      swap1\n      dup1\n      dup1\n      calldataload\n      swap1\n      0x20\n      add\n      swap1\n      swap3\n      swap2\n      swap1\n      dup1\n      calldataload\n      swap1\n      0x20\n      add\n      swap1\n      swap3\n      swap2\n      swap1\n      pop\n      pop\n      pop\n      tag_149\n      jump\t// in\n    tag_147:\n      stop\n        /* \"TimeAlly.sol\":4584:4705  function increaseMonth(uint256 _timeAllyNRT) public onlyNRTManager {... */\n    tag_32:\n      tag_150\n      0x04\n      dup1\n      calldatasize\n      sub\n        /* \"--CODEGEN--\":13:15   */\n      0x20\n        /* \"--CODEGEN--\":8:11   */\n      dup2\n        /* \"--CODEGEN--\":5:16   */\n      lt\n        /* \"--CODEGEN--\":2:4   */\n      iszero\n      tag_151\n      jumpi\n        /* \"--CODEGEN--\":29:30   */\n      0x00\n        /* \"--CODEGEN--\":26:27   */\n      dup1\n        /* \"--CODEGEN--\":19:31   */\n      revert\n        /* \"--CODEGEN--\":2:4   */\n    tag_151:\n        /* \"TimeAlly.sol\":4584:4705  function increaseMonth(uint256 _timeAllyNRT) public onlyNRTManager {... */\n      dup2\n      add\n      swap1\n      dup1\n      dup1\n      calldataload\n      swap1\n      0x20\n      add\n      swap1\n      swap3\n      swap2\n      swap1\n      pop\n      pop\n      pop\n      tag_152\n      jump\t// in\n    tag_150:\n      stop\n        /* \"TimeAlly.sol\":23974:24980  function withdrawExpiredStakings(uint256[] memory _stakingIds) public {... */\n    tag_33:\n      tag_153\n      0x04\n      dup1\n      calldatasize\n      sub\n        /* \"--CODEGEN--\":13:15   */\n      0x20\n        /* \"--CODEGEN--\":8:11   */\n      dup2\n        /* \"--CODEGEN--\":5:16   */\n      lt\n        /* \"--CODEGEN--\":2:4   */\n      iszero\n      tag_154\n      jumpi\n        /* \"--CODEGEN--\":29:30   */\n      0x00\n        /* \"--CODEGEN--\":26:27   */\n      dup1\n        /* \"--CODEGEN--\":19:31   */\n      revert\n        /* \"--CODEGEN--\":2:4   */\n    tag_154:\n        /* \"TimeAlly.sol\":23974:24980  function withdrawExpiredStakings(uint256[] memory _stakingIds) public {... */\n      dup2\n      add\n      swap1\n      dup1\n      dup1\n      calldataload\n      swap1\n      0x20\n      add\n      swap1\n        /* \"--CODEGEN--\":21:32   */\n      0x0100000000\n        /* \"--CODEGEN--\":8:19   */\n      dup2\n        /* \"--CODEGEN--\":5:33   */\n      gt\n        /* \"--CODEGEN--\":2:4   */\n      iszero\n      tag_155\n      jumpi\n        /* \"--CODEGEN--\":46:47   */\n      0x00\n        /* \"--CODEGEN--\":43:44   */\n      dup1\n        /* \"--CODEGEN--\":36:48   */\n      revert\n        /* \"--CODEGEN--\":2:4   */\n    tag_155:\n        /* \"TimeAlly.sol\":23974:24980  function withdrawExpiredStakings(uint256[] memory _stakingIds) public {... */\n      dup3\n      add\n        /* \"--CODEGEN--\":35:44   */\n      dup4\n        /* \"--CODEGEN--\":28:32   */\n      0x20\n        /* \"--CODEGEN--\":12:26   */\n      dup3\n        /* \"--CODEGEN--\":8:33   */\n      add\n        /* \"--CODEGEN--\":5:45   */\n      gt\n        /* \"--CODEGEN--\":2:4   */\n      iszero\n      tag_156\n      jumpi\n        /* \"--CODEGEN--\":58:59   */\n      0x00\n        /* \"--CODEGEN--\":55:56   */\n      dup1\n        /* \"--CODEGEN--\":48:60   */\n      revert\n        /* \"--CODEGEN--\":2:4   */\n    tag_156:\n        /* \"TimeAlly.sol\":23974:24980  function withdrawExpiredStakings(uint256[] memory _stakingIds) public {... */\n      dup1\n      calldataload\n      swap1\n      0x20\n      add\n      swap2\n        /* \"--CODEGEN--\":101:110   */\n      dup5\n        /* \"--CODEGEN--\":95:97   */\n      0x20\n        /* \"--CODEGEN--\":81:93   */\n      dup4\n        /* \"--CODEGEN--\":77:98   */\n      mul\n        /* \"--CODEGEN--\":67:75   */\n      dup5\n        /* \"--CODEGEN--\":63:99   */\n      add\n        /* \"--CODEGEN--\":60:111   */\n      gt\n        /* \"--CODEGEN--\":39:50   */\n      0x0100000000\n        /* \"--CODEGEN--\":25:37   */\n      dup4\n        /* \"--CODEGEN--\":22:51   */\n      gt\n        /* \"--CODEGEN--\":11:119   */\n      or\n        /* \"--CODEGEN--\":8:10   */\n      iszero\n      tag_157\n      jumpi\n        /* \"--CODEGEN--\":132:133   */\n      0x00\n        /* \"--CODEGEN--\":129:130   */\n      dup1\n        /* \"--CODEGEN--\":122:134   */\n      revert\n        /* \"--CODEGEN--\":8:10   */\n    tag_157:\n        /* \"TimeAlly.sol\":23974:24980  function withdrawExpiredStakings(uint256[] memory _stakingIds) public {... */\n      swap2\n      swap1\n      dup1\n      dup1\n      0x20\n      mul\n      0x20\n      add\n      mload(0x40)\n      swap1\n      dup2\n      add\n      0x40\n      mstore\n      dup1\n      swap4\n      swap3\n      swap2\n      swap1\n      dup2\n      dup2\n      mstore\n      0x20\n      add\n      dup4\n      dup4\n      0x20\n      mul\n        /* \"--CODEGEN--\":30:33   */\n      dup1\n        /* \"--CODEGEN--\":22:28   */\n      dup3\n        /* \"--CODEGEN--\":14:20   */\n      dup5\n        /* \"--CODEGEN--\":1:34   */\n      calldatacopy\n        /* \"--CODEGEN--\":99:100   */\n      0x00\n        /* \"--CODEGEN--\":93:96   */\n      dup2\n        /* \"--CODEGEN--\":85:91   */\n      dup5\n        /* \"--CODEGEN--\":81:97   */\n      add\n        /* \"--CODEGEN--\":74:101   */\n      mstore\n        /* \"--CODEGEN--\":137:141   */\n      0x1f\n        /* \"--CODEGEN--\":133:142   */\n      not\n        /* \"--CODEGEN--\":126:130   */\n      0x1f\n        /* \"--CODEGEN--\":121:124   */\n      dup3\n        /* \"--CODEGEN--\":117:131   */\n      add\n        /* \"--CODEGEN--\":113:143   */\n      and\n        /* \"--CODEGEN--\":106:143   */\n      swap1\n      pop\n        /* \"--CODEGEN--\":169:172   */\n      dup1\n        /* \"--CODEGEN--\":161:167   */\n      dup4\n        /* \"--CODEGEN--\":157:173   */\n      add\n        /* \"--CODEGEN--\":147:173   */\n      swap3\n      pop\n        /* \"TimeAlly.sol\":23974:24980  function withdrawExpiredStakings(uint256[] memory _stakingIds) public {... */\n      pop\n      pop\n      pop\n      pop\n      pop\n      pop\n      swap2\n      swap3\n      swap2\n      swap3\n      swap1\n      pop\n      pop\n      pop\n      tag_158\n      jump\t// in\n    tag_153:\n      stop\n        /* \"TimeAlly.sol\":1872:1892  Eraswap public token */\n    tag_34:\n      tag_159\n      tag_160\n      jump\t// in\n    tag_159:\n      mload(0x40)\n      dup1\n      dup3\n      0xffffffffffffffffffffffffffffffffffffffff\n      and\n      0xffffffffffffffffffffffffffffffffffffffff\n      and\n      dup2\n      mstore\n      0x20\n      add\n      swap2\n      pop\n      pop\n      mload(0x40)\n      dup1\n      swap2\n      sub\n      swap1\n      return\n        /* \"TimeAlly.sol\":1898:1926  NRTManager public nrtManager */\n    tag_43:\n      0x03\n      0x00\n      swap1\n      sload\n      swap1\n      0x0100\n      exp\n      swap1\n      div\n      0xffffffffffffffffffffffffffffffffffffffff\n      and\n      dup2\n      jump\t// out\n        /* \"TimeAlly.sol\":33633:35069  function burnDefaultedLoans(address[] memory _addressArray, uint256[] memory _loanIdArray) public {... */\n    tag_52:\n        /* \"TimeAlly.sol\":33741:33762  uint256 _amountToBurn */\n      0x00\n        /* \"TimeAlly.sol\":33776:33785  uint256 i */\n      dup1\n        /* \"TimeAlly.sol\":33788:33789  0 */\n      0x00\n        /* \"TimeAlly.sol\":33776:33789  uint256 i = 0 */\n      swap1\n      pop\n        /* \"TimeAlly.sol\":33772:34913  for(uint256 i = 0; i < _addressArray.length; i++) {... */\n    tag_162:\n        /* \"TimeAlly.sol\":33795:33808  _addressArray */\n      dup4\n        /* \"TimeAlly.sol\":33795:33815  _addressArray.length */\n      mload\n        /* \"TimeAlly.sol\":33791:33792  i */\n      dup2\n        /* \"TimeAlly.sol\":33791:33815  i < _addressArray.length */\n      lt\n        /* \"TimeAlly.sol\":33772:34913  for(uint256 i = 0; i < _addressArray.length; i++) {... */\n      iszero\n      tag_163\n      jumpi\n        /* \"TimeAlly.sol\":33916:33917  1 */\n      0x01\n        /* \"TimeAlly.sol\":33861:33866  loans */\n      0x08\n        /* \"TimeAlly.sol\":33861:33886  loans[ _addressArray[i] ] */\n      0x00\n        /* \"TimeAlly.sol\":33868:33881  _addressArray */\n      dup7\n        /* \"TimeAlly.sol\":33882:33883  i */\n      dup5\n        /* \"TimeAlly.sol\":33868:33884  _addressArray[i] */\n      dup2\n      mload\n      dup2\n      lt\n      tag_165\n      jumpi\n      invalid\n    tag_165:\n      0x20\n      mul\n      0x20\n      add\n      add\n      mload\n        /* \"TimeAlly.sol\":33861:33886  loans[ _addressArray[i] ] */\n      0xffffffffffffffffffffffffffffffffffffffff\n      and\n      0xffffffffffffffffffffffffffffffffffffffff\n      and\n      dup2\n      mstore\n      0x20\n      add\n      swap1\n      dup2\n      mstore\n      0x20\n      add\n      0x00\n      keccak256\n        /* \"TimeAlly.sol\":33888:33900  _loanIdArray */\n      dup5\n        /* \"TimeAlly.sol\":33901:33902  i */\n      dup4\n        /* \"TimeAlly.sol\":33888:33903  _loanIdArray[i] */\n      dup2\n      mload\n      dup2\n      lt\n      tag_166\n      jumpi\n      invalid\n    tag_166:\n      0x20\n      mul\n      0x20\n      add\n      add\n      mload\n        /* \"TimeAlly.sol\":33861:33905  loans[ _addressArray[i] ][ _loanIdArray[i] ] */\n      dup2\n      sload\n      dup2\n      lt\n      tag_167\n      jumpi\n      invalid\n    tag_167:\n      swap1\n      0x00\n      mstore\n      keccak256(0x00, 0x20)\n      swap1\n      0x05\n      mul\n      add\n        /* \"TimeAlly.sol\":33861:33912  loans[ _addressArray[i] ][ _loanIdArray[i] ].status */\n      0x03\n      add\n      sload\n        /* \"TimeAlly.sol\":33861:33917  loans[ _addressArray[i] ][ _loanIdArray[i] ].status == 1 */\n      eq\n        /* \"TimeAlly.sol\":33836:33981  require(... */\n      tag_169\n      jumpi\n      0x00\n      dup1\n      revert\n    tag_169:\n        /* \"TimeAlly.sol\":34123:34227  loanPlans[ loans[ _addressArray[i] ][ _loanIdArray[i] ].loanPlanId ].loanMonths.mul(earthSecondsInMonth) */\n      tag_170\n        /* \"TimeAlly.sol\":34207:34226  earthSecondsInMonth */\n      sload(0x04)\n        /* \"TimeAlly.sol\":34123:34132  loanPlans */\n      0x06\n        /* \"TimeAlly.sol\":34134:34139  loans */\n      0x08\n        /* \"TimeAlly.sol\":34134:34159  loans[ _addressArray[i] ] */\n      0x00\n        /* \"TimeAlly.sol\":34141:34154  _addressArray */\n      dup9\n        /* \"TimeAlly.sol\":34155:34156  i */\n      dup7\n        /* \"TimeAlly.sol\":34141:34157  _addressArray[i] */\n      dup2\n      mload\n      dup2\n      lt\n      tag_171\n      jumpi\n      invalid\n    tag_171:\n      0x20\n      mul\n      0x20\n      add\n      add\n      mload\n        /* \"TimeAlly.sol\":34134:34159  loans[ _addressArray[i] ] */\n      0xffffffffffffffffffffffffffffffffffffffff\n      and\n      0xffffffffffffffffffffffffffffffffffffffff\n      and\n      dup2\n      mstore\n      0x20\n      add\n      swap1\n      dup2\n      mstore\n      0x20\n      add\n      0x00\n      keccak256\n        /* \"TimeAlly.sol\":34161:34173  _loanIdArray */\n      dup7\n        /* \"TimeAlly.sol\":34174:34175  i */\n      dup6\n        /* \"TimeAlly.sol\":34161:34176  _loanIdArray[i] */\n      dup2\n      mload\n      dup2\n      lt\n      tag_172\n      jumpi\n      invalid\n    tag_172:\n      0x20\n      mul\n      0x20\n      add\n      add\n      mload\n        /* \"TimeAlly.sol\":34134:34178  loans[ _addressArray[i] ][ _loanIdArray[i] ] */\n      dup2\n      sload\n      dup2\n      lt\n      tag_173\n      jumpi\n      invalid\n    tag_173:\n      swap1\n      0x00\n      mstore\n      keccak256(0x00, 0x20)\n      swap1\n      0x05\n      mul\n      add\n        /* \"TimeAlly.sol\":34134:34189  loans[ _addressArray[i] ][ _loanIdArray[i] ].loanPlanId */\n      0x02\n      add\n      sload\n        /* \"TimeAlly.sol\":34123:34191  loanPlans[ loans[ _addressArray[i] ][ _loanIdArray[i] ].loanPlanId ] */\n      dup2\n      sload\n      dup2\n      lt\n      tag_175\n      jumpi\n      invalid\n    tag_175:\n      swap1\n      0x00\n      mstore\n      keccak256(0x00, 0x20)\n      swap1\n      0x02\n      mul\n      add\n        /* \"TimeAlly.sol\":34123:34202  loanPlans[ loans[ _addressArray[i] ][ _loanIdArray[i] ].loanPlanId ].loanMonths */\n      0x00\n      add\n      sload\n        /* \"TimeAlly.sol\":34123:34206  loanPlans[ loans[ _addressArray[i] ][ _loanIdArray[i] ].loanPlanId ].loanMonths.mul */\n      tag_177\n      swap1\n        /* \"TimeAlly.sol\":34123:34227  loanPlans[ loans[ _addressArray[i] ][ _loanIdArray[i] ].loanPlanId ].loanMonths.mul(earthSecondsInMonth) */\n      swap2\n      swap1\n      0xffffffff\n      and\n      jump\t// in\n    tag_170:\n        /* \"TimeAlly.sol\":34050:34055  loans */\n      0x08\n        /* \"TimeAlly.sol\":34050:34075  loans[ _addressArray[i] ] */\n      0x00\n        /* \"TimeAlly.sol\":34057:34070  _addressArray */\n      dup7\n        /* \"TimeAlly.sol\":34071:34072  i */\n      dup5\n        /* \"TimeAlly.sol\":34057:34073  _addressArray[i] */\n      dup2\n      mload\n      dup2\n      lt\n      tag_178\n      jumpi\n      invalid\n    tag_178:\n      0x20\n      mul\n      0x20\n      add\n      add\n      mload\n        /* \"TimeAlly.sol\":34050:34075  loans[ _addressArray[i] ] */\n      0xffffffffffffffffffffffffffffffffffffffff\n      and\n      0xffffffffffffffffffffffffffffffffffffffff\n      and\n      dup2\n      mstore\n      0x20\n      add\n      swap1\n      dup2\n      mstore\n      0x20\n      add\n      0x00\n      keccak256\n        /* \"TimeAlly.sol\":34077:34089  _loanIdArray */\n      dup5\n        /* \"TimeAlly.sol\":34090:34091  i */\n      dup4\n        /* \"TimeAlly.sol\":34077:34092  _loanIdArray[i] */\n      dup2\n      mload\n      dup2\n      lt\n      tag_179\n      jumpi\n      invalid\n    tag_179:\n      0x20\n      mul\n      0x20\n      add\n      add\n      mload\n        /* \"TimeAlly.sol\":34050:34094  loans[ _addressArray[i] ][ _loanIdArray[i] ] */\n      dup2\n      sload\n      dup2\n      lt\n      tag_180\n      jumpi\n      invalid\n    tag_180:\n      swap1\n      0x00\n      mstore\n      keccak256(0x00, 0x20)\n      swap1\n      0x05\n      mul\n      add\n        /* \"TimeAlly.sol\":34050:34104  loans[ _addressArray[i] ][ _loanIdArray[i] ].timestamp */\n      0x01\n      add\n      sload\n        /* \"TimeAlly.sol\":34050:34227  loans[ _addressArray[i] ][ _loanIdArray[i] ].timestamp... */\n      add\n        /* \"TimeAlly.sol\":34020:34025  token */\n      0x02\n      0x00\n      swap1\n      sload\n      swap1\n      0x0100\n      exp\n      swap1\n      div\n      0xffffffffffffffffffffffffffffffffffffffff\n      and\n        /* \"TimeAlly.sol\":34020:34029  token.mou */\n      0xffffffffffffffffffffffffffffffffffffffff\n      and\n      0xb81f90f3\n        /* \"TimeAlly.sol\":34020:34031  token.mou() */\n      mload(0x40)\n      dup2\n      0xffffffff\n      and\n      0xe0\n      shl\n      dup2\n      mstore\n      0x04\n      add\n      0x20\n      mload(0x40)\n      dup1\n      dup4\n      sub\n      dup2\n      dup7\n      dup1\n      extcodesize\n      iszero\n        /* \"--CODEGEN--\":8:17   */\n      dup1\n        /* \"--CODEGEN--\":5:7   */\n      iszero\n      tag_182\n      jumpi\n        /* \"--CODEGEN--\":30:31   */\n      0x00\n        /* \"--CODEGEN--\":27:28   */\n      dup1\n        /* \"--CODEGEN--\":20:32   */\n      revert\n        /* \"--CODEGEN--\":5:7   */\n    tag_182:\n        /* \"TimeAlly.sol\":34020:34031  token.mou() */\n      pop\n      gas\n      staticcall\n      iszero\n        /* \"--CODEGEN--\":8:17   */\n      dup1\n        /* \"--CODEGEN--\":5:7   */\n      iszero\n      tag_183\n      jumpi\n        /* \"--CODEGEN--\":45:61   */\n      returndatasize\n        /* \"--CODEGEN--\":42:43   */\n      0x00\n        /* \"--CODEGEN--\":39:40   */\n      dup1\n        /* \"--CODEGEN--\":24:62   */\n      returndatacopy\n        /* \"--CODEGEN--\":77:93   */\n      returndatasize\n        /* \"--CODEGEN--\":74:75   */\n      0x00\n        /* \"--CODEGEN--\":67:94   */\n      revert\n        /* \"--CODEGEN--\":5:7   */\n    tag_183:\n        /* \"TimeAlly.sol\":34020:34031  token.mou() */\n      pop\n      pop\n      pop\n      pop\n      mload(0x40)\n      returndatasize\n        /* \"--CODEGEN--\":13:15   */\n      0x20\n        /* \"--CODEGEN--\":8:11   */\n      dup2\n        /* \"--CODEGEN--\":5:16   */\n      lt\n        /* \"--CODEGEN--\":2:4   */\n      iszero\n      tag_184\n      jumpi\n        /* \"--CODEGEN--\":29:30   */\n      0x00\n        /* \"--CODEGEN--\":26:27   */\n      dup1\n        /* \"--CODEGEN--\":19:31   */\n      revert\n        /* \"--CODEGEN--\":2:4   */\n    tag_184:\n        /* \"TimeAlly.sol\":34020:34031  token.mou() */\n      dup2\n      add\n      swap1\n      dup1\n      dup1\n      mload\n      swap1\n      0x20\n      add\n      swap1\n      swap3\n      swap2\n      swap1\n      pop\n      pop\n      pop\n        /* \"TimeAlly.sol\":34020:34227  token.mou() >... */\n      gt\n        /* \"TimeAlly.sol\":33995:34305  require(... */\n      tag_185\n      jumpi\n      0x00\n      dup1\n      revert\n    tag_185:\n        /* \"TimeAlly.sol\":34319:34354  uint256[] storage _stakingIdsOfLoan */\n      0x00\n        /* \"TimeAlly.sol\":34357:34362  loans */\n      0x08\n        /* \"TimeAlly.sol\":34357:34382  loans[ _addressArray[i] ] */\n      0x00\n        /* \"TimeAlly.sol\":34364:34377  _addressArray */\n      dup7\n        /* \"TimeAlly.sol\":34378:34379  i */\n      dup5\n        /* \"TimeAlly.sol\":34364:34380  _addressArray[i] */\n      dup2\n      mload\n      dup2\n      lt\n      tag_186\n      jumpi\n      invalid\n    tag_186:\n      0x20\n      mul\n      0x20\n      add\n      add\n      mload\n        /* \"TimeAlly.sol\":34357:34382  loans[ _addressArray[i] ] */\n      0xffffffffffffffffffffffffffffffffffffffff\n      and\n      0xffffffffffffffffffffffffffffffffffffffff\n      and\n      dup2\n      mstore\n      0x20\n      add\n      swap1\n      dup2\n      mstore\n      0x20\n      add\n      0x00\n      keccak256\n        /* \"TimeAlly.sol\":34384:34396  _loanIdArray */\n      dup5\n        /* \"TimeAlly.sol\":34397:34398  i */\n      dup4\n        /* \"TimeAlly.sol\":34384:34399  _loanIdArray[i] */\n      dup2\n      mload\n      dup2\n      lt\n      tag_187\n      jumpi\n      invalid\n    tag_187:\n      0x20\n      mul\n      0x20\n      add\n      add\n      mload\n        /* \"TimeAlly.sol\":34357:34401  loans[ _addressArray[i] ][ _loanIdArray[i] ] */\n      dup2\n      sload\n      dup2\n      lt\n      tag_188\n      jumpi\n      invalid\n    tag_188:\n      swap1\n      0x00\n      mstore\n      keccak256(0x00, 0x20)\n      swap1\n      0x05\n      mul\n      add\n        /* \"TimeAlly.sol\":34357:34412  loans[ _addressArray[i] ][ _loanIdArray[i] ].stakingIds */\n      0x04\n      add\n        /* \"TimeAlly.sol\":34319:34412  uint256[] storage _stakingIdsOfLoan = loans[ _addressArray[i] ][ _loanIdArray[i] ].stakingIds */\n      swap1\n      pop\n        /* \"TimeAlly.sol\":34511:34520  uint256 j */\n      0x00\n        /* \"TimeAlly.sol\":34523:34524  0 */\n      dup1\n        /* \"TimeAlly.sol\":34511:34524  uint256 j = 0 */\n      swap1\n      pop\n        /* \"TimeAlly.sol\":34507:34731  for(uint256 j = 0; j < _stakingIdsOfLoan.length; j++) {... */\n    tag_190:\n        /* \"TimeAlly.sol\":34530:34547  _stakingIdsOfLoan */\n      dup2\n        /* \"TimeAlly.sol\":34530:34554  _stakingIdsOfLoan.length */\n      dup1\n      sload\n      swap1\n      pop\n        /* \"TimeAlly.sol\":34526:34527  j */\n      dup2\n        /* \"TimeAlly.sol\":34526:34554  j < _stakingIdsOfLoan.length */\n      lt\n        /* \"TimeAlly.sol\":34507:34731  for(uint256 j = 0; j < _stakingIdsOfLoan.length; j++) {... */\n      iszero\n      tag_191\n      jumpi\n        /* \"TimeAlly.sol\":34595:34716  _amountToBurn.add(... */\n      tag_193\n        /* \"TimeAlly.sol\":34634:34642  stakings */\n      0x07\n        /* \"TimeAlly.sol\":34634:34662  stakings[ _addressArray[i] ] */\n      0x00\n        /* \"TimeAlly.sol\":34644:34657  _addressArray */\n      dup9\n        /* \"TimeAlly.sol\":34658:34659  i */\n      dup7\n        /* \"TimeAlly.sol\":34644:34660  _addressArray[i] */\n      dup2\n      mload\n      dup2\n      lt\n      tag_194\n      jumpi\n      invalid\n    tag_194:\n      0x20\n      mul\n      0x20\n      add\n      add\n      mload\n        /* \"TimeAlly.sol\":34634:34662  stakings[ _addressArray[i] ] */\n      0xffffffffffffffffffffffffffffffffffffffff\n      and\n      0xffffffffffffffffffffffffffffffffffffffff\n      and\n      dup2\n      mstore\n      0x20\n      add\n      swap1\n      dup2\n      mstore\n      0x20\n      add\n      0x00\n      keccak256\n        /* \"TimeAlly.sol\":34664:34681  _stakingIdsOfLoan */\n      dup4\n        /* \"TimeAlly.sol\":34682:34683  j */\n      dup4\n        /* \"TimeAlly.sol\":34664:34684  _stakingIdsOfLoan[j] */\n      dup2\n      sload\n      dup2\n      lt\n      tag_195\n      jumpi\n      invalid\n    tag_195:\n      swap1\n      0x00\n      mstore\n      keccak256(0x00, 0x20)\n      add\n      sload\n        /* \"TimeAlly.sol\":34634:34686  stakings[ _addressArray[i] ][ _stakingIdsOfLoan[j] ] */\n      dup2\n      sload\n      dup2\n      lt\n      tag_197\n      jumpi\n      invalid\n    tag_197:\n      swap1\n      0x00\n      mstore\n      keccak256(0x00, 0x20)\n      swap1\n      0x09\n      mul\n      add\n        /* \"TimeAlly.sol\":34634:34698  stakings[ _addressArray[i] ][ _stakingIdsOfLoan[j] ].exaEsAmount */\n      0x00\n      add\n      sload\n        /* \"TimeAlly.sol\":34595:34608  _amountToBurn */\n      dup6\n        /* \"TimeAlly.sol\":34595:34612  _amountToBurn.add */\n      tag_199\n      swap1\n        /* \"TimeAlly.sol\":34595:34716  _amountToBurn.add(... */\n      swap2\n      swap1\n      0xffffffff\n      and\n      jump\t// in\n    tag_193:\n        /* \"TimeAlly.sol\":34579:34716  _amountToBurn = _amountToBurn.add(... */\n      swap4\n      pop\n        /* \"TimeAlly.sol\":34556:34559  j++ */\n      dup1\n      dup1\n      0x01\n      add\n      swap2\n      pop\n      pop\n        /* \"TimeAlly.sol\":34507:34731  for(uint256 j = 0; j < _stakingIdsOfLoan.length; j++) {... */\n      jump(tag_190)\n    tag_191:\n      pop\n        /* \"TimeAlly.sol\":34797:34902  _amountToBurn.sub(... */\n      tag_200\n        /* \"TimeAlly.sol\":34832:34837  loans */\n      0x08\n        /* \"TimeAlly.sol\":34832:34857  loans[ _addressArray[i] ] */\n      0x00\n        /* \"TimeAlly.sol\":34839:34852  _addressArray */\n      dup8\n        /* \"TimeAlly.sol\":34853:34854  i */\n      dup6\n        /* \"TimeAlly.sol\":34839:34855  _addressArray[i] */\n      dup2\n      mload\n      dup2\n      lt\n      tag_201\n      jumpi\n      invalid\n    tag_201:\n      0x20\n      mul\n      0x20\n      add\n      add\n      mload\n        /* \"TimeAlly.sol\":34832:34857  loans[ _addressArray[i] ] */\n      0xffffffffffffffffffffffffffffffffffffffff\n      and\n      0xffffffffffffffffffffffffffffffffffffffff\n      and\n      dup2\n      mstore\n      0x20\n      add\n      swap1\n      dup2\n      mstore\n      0x20\n      add\n      0x00\n      keccak256\n        /* \"TimeAlly.sol\":34859:34871  _loanIdArray */\n      dup6\n        /* \"TimeAlly.sol\":34872:34873  i */\n      dup5\n        /* \"TimeAlly.sol\":34859:34874  _loanIdArray[i] */\n      dup2\n      mload\n      dup2\n      lt\n      tag_202\n      jumpi\n      invalid\n    tag_202:\n      0x20\n      mul\n      0x20\n      add\n      add\n      mload\n        /* \"TimeAlly.sol\":34832:34876  loans[ _addressArray[i] ][ _loanIdArray[i] ] */\n      dup2\n      sload\n      dup2\n      lt\n      tag_203\n      jumpi\n      invalid\n    tag_203:\n      swap1\n      0x00\n      mstore\n      keccak256(0x00, 0x20)\n      swap1\n      0x05\n      mul\n      add\n        /* \"TimeAlly.sol\":34832:34888  loans[ _addressArray[i] ][ _loanIdArray[i] ].exaEsAmount */\n      0x00\n      add\n      sload\n        /* \"TimeAlly.sol\":34797:34810  _amountToBurn */\n      dup5\n        /* \"TimeAlly.sol\":34797:34814  _amountToBurn.sub */\n      tag_205\n      swap1\n        /* \"TimeAlly.sol\":34797:34902  _amountToBurn.sub(... */\n      swap2\n      swap1\n      0xffffffff\n      and\n      jump\t// in\n    tag_200:\n        /* \"TimeAlly.sol\":34781:34902  _amountToBurn = _amountToBurn.sub(... */\n      swap3\n      pop\n        /* \"TimeAlly.sol\":33772:34913  for(uint256 i = 0; i < _addressArray.length; i++) {... */\n      pop\n        /* \"TimeAlly.sol\":33817:33820  i++ */\n      dup1\n      dup1\n      0x01\n      add\n      swap2\n      pop\n      pop\n        /* \"TimeAlly.sol\":33772:34913  for(uint256 i = 0; i < _addressArray.length; i++) {... */\n      jump(tag_162)\n    tag_163:\n      pop\n        /* \"TimeAlly.sol\":34930:34935  token */\n      0x02\n      0x00\n      swap1\n      sload\n      swap1\n      0x0100\n      exp\n      swap1\n      div\n      0xffffffffffffffffffffffffffffffffffffffff\n      and\n        /* \"TimeAlly.sol\":34930:34944  token.transfer */\n      0xffffffffffffffffffffffffffffffffffffffff\n      and\n      0xa9059cbb\n        /* \"TimeAlly.sol\":34953:34963  nrtManager */\n      0x03\n      0x00\n      swap1\n      sload\n      swap1\n      0x0100\n      exp\n      swap1\n      div\n      0xffffffffffffffffffffffffffffffffffffffff\n      and\n        /* \"TimeAlly.sol\":34966:34979  _amountToBurn */\n      dup4\n        /* \"TimeAlly.sol\":34930:34980  token.transfer(address(nrtManager), _amountToBurn) */\n      mload(0x40)\n      dup4\n      0xffffffff\n      and\n      0xe0\n      shl\n      dup2\n      mstore\n      0x04\n      add\n      dup1\n      dup4\n      0xffffffffffffffffffffffffffffffffffffffff\n      and\n      0xffffffffffffffffffffffffffffffffffffffff\n      and\n      dup2\n      mstore\n      0x20\n      add\n      dup3\n      dup2\n      mstore\n      0x20\n      add\n      swap3\n      pop\n      pop\n      pop\n      0x20\n      mload(0x40)\n      dup1\n      dup4\n      sub\n      dup2\n      0x00\n      dup8\n      dup1\n      extcodesize\n      iszero\n        /* \"--CODEGEN--\":8:17   */\n      dup1\n        /* \"--CODEGEN--\":5:7   */\n      iszero\n      tag_206\n      jumpi\n        /* \"--CODEGEN--\":30:31   */\n      0x00\n        /* \"--CODEGEN--\":27:28   */\n      dup1\n        /* \"--CODEGEN--\":20:32   */\n      revert\n        /* \"--CODEGEN--\":5:7   */\n    tag_206:\n        /* \"TimeAlly.sol\":34930:34980  token.transfer(address(nrtManager), _amountToBurn) */\n      pop\n      gas\n      call\n      iszero\n        /* \"--CODEGEN--\":8:17   */\n      dup1\n        /* \"--CODEGEN--\":5:7   */\n      iszero\n      tag_207\n      jumpi\n        /* \"--CODEGEN--\":45:61   */\n      returndatasize\n        /* \"--CODEGEN--\":42:43   */\n      0x00\n        /* \"--CODEGEN--\":39:40   */\n      dup1\n        /* \"--CODEGEN--\":24:62   */\n      returndatacopy\n        /* \"--CODEGEN--\":77:93   */\n      returndatasize\n        /* \"--CODEGEN--\":74:75   */\n      0x00\n        /* \"--CODEGEN--\":67:94   */\n      revert\n        /* \"--CODEGEN--\":5:7   */\n    tag_207:\n        /* \"TimeAlly.sol\":34930:34980  token.transfer(address(nrtManager), _amountToBurn) */\n      pop\n      pop\n      pop\n      pop\n      mload(0x40)\n      returndatasize\n        /* \"--CODEGEN--\":13:15   */\n      0x20\n        /* \"--CODEGEN--\":8:11   */\n      dup2\n        /* \"--CODEGEN--\":5:16   */\n      lt\n        /* \"--CODEGEN--\":2:4   */\n      iszero\n      tag_208\n      jumpi\n        /* \"--CODEGEN--\":29:30   */\n      0x00\n        /* \"--CODEGEN--\":26:27   */\n      dup1\n        /* \"--CODEGEN--\":19:31   */\n      revert\n        /* \"--CODEGEN--\":2:4   */\n    tag_208:\n        /* \"TimeAlly.sol\":34930:34980  token.transfer(address(nrtManager), _amountToBurn) */\n      dup2\n      add\n      swap1\n      dup1\n      dup1\n      mload\n      swap1\n      0x20\n      add\n      swap1\n      swap3\n      swap2\n      swap1\n      pop\n      pop\n      pop\n        /* \"TimeAlly.sol\":34922:34981  require(token.transfer(address(nrtManager), _amountToBurn)) */\n      tag_209\n      jumpi\n      0x00\n      dup1\n      revert\n    tag_209:\n        /* \"TimeAlly.sol\":34999:35009  nrtManager */\n      0x03\n      0x00\n      swap1\n      sload\n      swap1\n      0x0100\n      exp\n      swap1\n      div\n      0xffffffffffffffffffffffffffffffffffffffff\n      and\n        /* \"TimeAlly.sol\":34999:35023  nrtManager.UpdateBurnBal */\n      0xffffffffffffffffffffffffffffffffffffffff\n      and\n      0x41aaa9b6\n        /* \"TimeAlly.sol\":35024:35037  _amountToBurn */\n      dup3\n        /* \"TimeAlly.sol\":34999:35038  nrtManager.UpdateBurnBal(_amountToBurn) */\n      mload(0x40)\n      dup3\n      0xffffffff\n      and\n      0xe0\n      shl\n      dup2\n      mstore\n      0x04\n      add\n      dup1\n      dup3\n      dup2\n      mstore\n      0x20\n      add\n      swap2\n      pop\n      pop\n      0x20\n      mload(0x40)\n      dup1\n      dup4\n      sub\n      dup2\n      0x00\n      dup8\n      dup1\n      extcodesize\n      iszero\n        /* \"--CODEGEN--\":8:17   */\n      dup1\n        /* \"--CODEGEN--\":5:7   */\n      iszero\n      tag_210\n      jumpi\n        /* \"--CODEGEN--\":30:31   */\n      0x00\n        /* \"--CODEGEN--\":27:28   */\n      dup1\n        /* \"--CODEGEN--\":20:32   */\n      revert\n        /* \"--CODEGEN--\":5:7   */\n    tag_210:\n        /* \"TimeAlly.sol\":34999:35038  nrtManager.UpdateBurnBal(_amountToBurn) */\n      pop\n      gas\n      call\n      iszero\n        /* \"--CODEGEN--\":8:17   */\n      dup1\n        /* \"--CODEGEN--\":5:7   */\n      iszero\n      tag_211\n      jumpi\n        /* \"--CODEGEN--\":45:61   */\n      returndatasize\n        /* \"--CODEGEN--\":42:43   */\n      0x00\n        /* \"--CODEGEN--\":39:40   */\n      dup1\n        /* \"--CODEGEN--\":24:62   */\n      returndatacopy\n        /* \"--CODEGEN--\":77:93   */\n      returndatasize\n        /* \"--CODEGEN--\":74:75   */\n      0x00\n        /* \"--CODEGEN--\":67:94   */\n      revert\n        /* \"--CODEGEN--\":5:7   */\n    tag_211:\n        /* \"TimeAlly.sol\":34999:35038  nrtManager.UpdateBurnBal(_amountToBurn) */\n      pop\n      pop\n      pop\n      pop\n      mload(0x40)\n      returndatasize\n        /* \"--CODEGEN--\":13:15   */\n      0x20\n        /* \"--CODEGEN--\":8:11   */\n      dup2\n        /* \"--CODEGEN--\":5:16   */\n      lt\n        /* \"--CODEGEN--\":2:4   */\n      iszero\n      tag_212\n      jumpi\n        /* \"--CODEGEN--\":29:30   */\n      0x00\n        /* \"--CODEGEN--\":26:27   */\n      dup1\n        /* \"--CODEGEN--\":19:31   */\n      revert\n        /* \"--CODEGEN--\":2:4   */\n    tag_212:\n        /* \"TimeAlly.sol\":34999:35038  nrtManager.UpdateBurnBal(_amountToBurn) */\n      dup2\n      add\n      swap1\n      dup1\n      dup1\n      mload\n      swap1\n      0x20\n      add\n      swap1\n      swap3\n      swap2\n      swap1\n      pop\n      pop\n      pop\n        /* \"TimeAlly.sol\":34991:35039  require(nrtManager.UpdateBurnBal(_amountToBurn)) */\n      tag_213\n      jumpi\n      0x00\n      dup1\n      revert\n    tag_213:\n        /* \"TimeAlly.sol\":33633:35069  function burnDefaultedLoans(address[] memory _addressArray, uint256[] memory _loanIdArray) public {... */\n      pop\n      pop\n      pop\n      jump\t// out\n        /* \"TimeAlly.sol\":2258:2303  mapping(address => Staking[]) public stakings */\n    tag_55:\n      mstore(0x20, 0x07)\n      dup2\n      0x00\n      mstore\n      keccak256(0x00, 0x40)\n      dup2\n      dup2\n      sload\n      dup2\n      lt\n      tag_214\n      jumpi\n      invalid\n    tag_214:\n      swap1\n      0x00\n      mstore\n      keccak256(0x00, 0x20)\n      swap1\n      0x09\n      mul\n      add\n      0x00\n      swap2\n      pop\n      swap2\n      pop\n      pop\n      dup1\n      0x00\n      add\n      sload\n      swap1\n      dup1\n      0x01\n      add\n      sload\n      swap1\n      dup1\n      0x02\n      add\n      sload\n      swap1\n      dup1\n      0x03\n      add\n      sload\n      swap1\n      dup1\n      0x04\n      add\n      sload\n      swap1\n      dup1\n      0x05\n      add\n      sload\n      swap1\n      dup1\n      0x06\n      add\n      sload\n      swap1\n      pop\n      dup8\n      jump\t// out\n        /* \"TimeAlly.sol\":2665:2700  uint256[] public timeAllyMonthlyNRT */\n    tag_58:\n      0x0b\n      dup2\n      dup2\n      sload\n      dup2\n      lt\n      tag_216\n      jumpi\n      invalid\n    tag_216:\n      swap1\n      0x00\n      mstore\n      keccak256(0x00, 0x20)\n      add\n      0x00\n      swap2\n      pop\n      swap1\n      pop\n      sload\n      dup2\n      jump\t// out\n        /* \"TimeAlly.sol\":20761:21691  function seeBenefitOfAStakingByMonths(... */\n    tag_64:\n        /* \"TimeAlly.sol\":20918:20925  uint256 */\n      0x00\n        /* \"TimeAlly.sol\":20937:20963  uint256 benefitOfAllMonths */\n      dup1\n        /* \"TimeAlly.sol\":20977:20986  uint256 i */\n      0x00\n        /* \"TimeAlly.sol\":20989:20990  0 */\n      dup1\n        /* \"TimeAlly.sol\":20977:20990  uint256 i = 0 */\n      swap1\n      pop\n        /* \"TimeAlly.sol\":20973:21539  for(uint256 i = 0; i < _months.length; i++) {... */\n    tag_219:\n        /* \"TimeAlly.sol\":20996:21003  _months */\n      dup4\n        /* \"TimeAlly.sol\":20996:21010  _months.length */\n      mload\n        /* \"TimeAlly.sol\":20992:20993  i */\n      dup2\n        /* \"TimeAlly.sol\":20992:21010  i < _months.length */\n      lt\n        /* \"TimeAlly.sol\":20973:21539  for(uint256 i = 0; i < _months.length; i++) {... */\n      iszero\n      tag_220\n      jumpi\n        /* \"TimeAlly.sol\":21054:21107  isStakingActive(_userAddress, _stakingId, _months[i]) */\n      tag_222\n        /* \"TimeAlly.sol\":21070:21082  _userAddress */\n      dup7\n        /* \"TimeAlly.sol\":21084:21094  _stakingId */\n      dup7\n        /* \"TimeAlly.sol\":21096:21103  _months */\n      dup7\n        /* \"TimeAlly.sol\":21104:21105  i */\n      dup5\n        /* \"TimeAlly.sol\":21096:21106  _months[i] */\n      dup2\n      mload\n      dup2\n      lt\n      tag_223\n      jumpi\n      invalid\n    tag_223:\n      0x20\n      mul\n      0x20\n      add\n      add\n      mload\n        /* \"TimeAlly.sol\":21054:21069  isStakingActive */\n      tag_138\n        /* \"TimeAlly.sol\":21054:21107  isStakingActive(_userAddress, _stakingId, _months[i]) */\n      jump\t// in\n    tag_222:\n        /* \"TimeAlly.sol\":21054:21187  isStakingActive(_userAddress, _stakingId, _months[i])... */\n      dup1\n      iszero\n      tag_224\n      jumpi\n      pop\n        /* \"TimeAlly.sol\":21126:21134  stakings */\n      0x07\n        /* \"TimeAlly.sol\":21126:21148  stakings[_userAddress] */\n      0x00\n        /* \"TimeAlly.sol\":21135:21147  _userAddress */\n      dup8\n        /* \"TimeAlly.sol\":21126:21148  stakings[_userAddress] */\n      0xffffffffffffffffffffffffffffffffffffffff\n      and\n      0xffffffffffffffffffffffffffffffffffffffff\n      and\n      dup2\n      mstore\n      0x20\n      add\n      swap1\n      dup2\n      mstore\n      0x20\n      add\n      0x00\n      keccak256\n        /* \"TimeAlly.sol\":21149:21159  _stakingId */\n      dup6\n        /* \"TimeAlly.sol\":21126:21160  stakings[_userAddress][_stakingId] */\n      dup2\n      sload\n      dup2\n      lt\n      tag_225\n      jumpi\n      invalid\n    tag_225:\n      swap1\n      0x00\n      mstore\n      keccak256(0x00, 0x20)\n      swap1\n      0x09\n      mul\n      add\n        /* \"TimeAlly.sol\":21126:21175  stakings[_userAddress][_stakingId].isMonthClaimed */\n      0x07\n      add\n        /* \"TimeAlly.sol\":21126:21187  stakings[_userAddress][_stakingId].isMonthClaimed[_months[i]] */\n      0x00\n        /* \"TimeAlly.sol\":21176:21183  _months */\n      dup6\n        /* \"TimeAlly.sol\":21184:21185  i */\n      dup4\n        /* \"TimeAlly.sol\":21176:21186  _months[i] */\n      dup2\n      mload\n      dup2\n      lt\n      tag_227\n      jumpi\n      invalid\n    tag_227:\n      0x20\n      mul\n      0x20\n      add\n      add\n      mload\n        /* \"TimeAlly.sol\":21126:21187  stakings[_userAddress][_stakingId].isMonthClaimed[_months[i]] */\n      dup2\n      mstore\n      0x20\n      add\n      swap1\n      dup2\n      mstore\n      0x20\n      add\n      0x00\n      keccak256\n      0x00\n      swap1\n      sload\n      swap1\n      0x0100\n      exp\n      swap1\n      div\n      0xff\n      and\n        /* \"TimeAlly.sol\":21125:21187  !stakings[_userAddress][_stakingId].isMonthClaimed[_months[i]] */\n      iszero\n        /* \"TimeAlly.sol\":21054:21187  isStakingActive(_userAddress, _stakingId, _months[i])... */\n    tag_224:\n        /* \"TimeAlly.sol\":21031:21245  require(... */\n      tag_228\n      jumpi\n      0x00\n      dup1\n      revert\n    tag_228:\n        /* \"TimeAlly.sol\":21259:21274  uint256 benefit */\n      0x00\n        /* \"TimeAlly.sol\":21277:21462  stakings[_userAddress][_stakingId].exaEsAmount... */\n      tag_229\n        /* \"TimeAlly.sol\":21428:21447  totalActiveStakings */\n      0x0a\n        /* \"TimeAlly.sol\":21428:21461  totalActiveStakings[ _months[i] ] */\n      0x00\n        /* \"TimeAlly.sol\":21449:21456  _months */\n      dup8\n        /* \"TimeAlly.sol\":21457:21458  i */\n      dup6\n        /* \"TimeAlly.sol\":21449:21459  _months[i] */\n      dup2\n      mload\n      dup2\n      lt\n      tag_230\n      jumpi\n      invalid\n    tag_230:\n      0x20\n      mul\n      0x20\n      add\n      add\n      mload\n        /* \"TimeAlly.sol\":21428:21461  totalActiveStakings[ _months[i] ] */\n      dup2\n      mstore\n      0x20\n      add\n      swap1\n      dup2\n      mstore\n      0x20\n      add\n      0x00\n      keccak256\n      sload\n        /* \"TimeAlly.sol\":21277:21392  stakings[_userAddress][_stakingId].exaEsAmount... */\n      tag_231\n        /* \"TimeAlly.sol\":21359:21377  timeAllyMonthlyNRT */\n      0x0b\n        /* \"TimeAlly.sol\":21379:21386  _months */\n      dup9\n        /* \"TimeAlly.sol\":21387:21388  i */\n      dup7\n        /* \"TimeAlly.sol\":21379:21389  _months[i] */\n      dup2\n      mload\n      dup2\n      lt\n      tag_232\n      jumpi\n      invalid\n    tag_232:\n      0x20\n      mul\n      0x20\n      add\n      add\n      mload\n        /* \"TimeAlly.sol\":21359:21391  timeAllyMonthlyNRT[ _months[i] ] */\n      dup2\n      sload\n      dup2\n      lt\n      tag_233\n      jumpi\n      invalid\n    tag_233:\n      swap1\n      0x00\n      mstore\n      keccak256(0x00, 0x20)\n      add\n      sload\n        /* \"TimeAlly.sol\":21277:21285  stakings */\n      0x07\n        /* \"TimeAlly.sol\":21277:21299  stakings[_userAddress] */\n      0x00\n        /* \"TimeAlly.sol\":21286:21298  _userAddress */\n      dup13\n        /* \"TimeAlly.sol\":21277:21299  stakings[_userAddress] */\n      0xffffffffffffffffffffffffffffffffffffffff\n      and\n      0xffffffffffffffffffffffffffffffffffffffff\n      and\n      dup2\n      mstore\n      0x20\n      add\n      swap1\n      dup2\n      mstore\n      0x20\n      add\n      0x00\n      keccak256\n        /* \"TimeAlly.sol\":21300:21310  _stakingId */\n      dup11\n        /* \"TimeAlly.sol\":21277:21311  stakings[_userAddress][_stakingId] */\n      dup2\n      sload\n      dup2\n      lt\n      tag_235\n      jumpi\n      invalid\n    tag_235:\n      swap1\n      0x00\n      mstore\n      keccak256(0x00, 0x20)\n      swap1\n      0x09\n      mul\n      add\n        /* \"TimeAlly.sol\":21277:21323  stakings[_userAddress][_stakingId].exaEsAmount */\n      0x00\n      add\n      sload\n        /* \"TimeAlly.sol\":21277:21358  stakings[_userAddress][_stakingId].exaEsAmount... */\n      tag_177\n      swap1\n        /* \"TimeAlly.sol\":21277:21392  stakings[_userAddress][_stakingId].exaEsAmount... */\n      swap2\n      swap1\n      0xffffffff\n      and\n      jump\t// in\n    tag_231:\n        /* \"TimeAlly.sol\":21277:21427  stakings[_userAddress][_stakingId].exaEsAmount... */\n      tag_237\n      swap1\n        /* \"TimeAlly.sol\":21277:21462  stakings[_userAddress][_stakingId].exaEsAmount... */\n      swap2\n      swap1\n      0xffffffff\n      and\n      jump\t// in\n    tag_229:\n        /* \"TimeAlly.sol\":21259:21462  uint256 benefit = stakings[_userAddress][_stakingId].exaEsAmount... */\n      swap1\n      pop\n        /* \"TimeAlly.sol\":21497:21528  benefitOfAllMonths.add(benefit) */\n      tag_238\n        /* \"TimeAlly.sol\":21520:21527  benefit */\n      dup2\n        /* \"TimeAlly.sol\":21497:21515  benefitOfAllMonths */\n      dup5\n        /* \"TimeAlly.sol\":21497:21519  benefitOfAllMonths.add */\n      tag_199\n      swap1\n        /* \"TimeAlly.sol\":21497:21528  benefitOfAllMonths.add(benefit) */\n      swap2\n      swap1\n      0xffffffff\n      and\n      jump\t// in\n    tag_238:\n        /* \"TimeAlly.sol\":21476:21528  benefitOfAllMonths = benefitOfAllMonths.add(benefit) */\n      swap3\n      pop\n        /* \"TimeAlly.sol\":20973:21539  for(uint256 i = 0; i < _months.length; i++) {... */\n      pop\n        /* \"TimeAlly.sol\":21012:21015  i++ */\n      dup1\n      dup1\n      0x01\n      add\n      swap2\n      pop\n      pop\n        /* \"TimeAlly.sol\":20973:21539  for(uint256 i = 0; i < _months.length; i++) {... */\n      jump(tag_219)\n    tag_220:\n      pop\n        /* \"TimeAlly.sol\":21555:21684  benefitOfAllMonths.mul(... */\n      tag_239\n        /* \"TimeAlly.sol\":21681:21683  15 */\n      0x0f\n        /* \"TimeAlly.sol\":21555:21676  benefitOfAllMonths.mul(... */\n      tag_240\n        /* \"TimeAlly.sol\":21589:21601  stakingPlans */\n      0x05\n        /* \"TimeAlly.sol\":21602:21610  stakings */\n      0x07\n        /* \"TimeAlly.sol\":21602:21624  stakings[_userAddress] */\n      0x00\n        /* \"TimeAlly.sol\":21611:21623  _userAddress */\n      dup11\n        /* \"TimeAlly.sol\":21602:21624  stakings[_userAddress] */\n      0xffffffffffffffffffffffffffffffffffffffff\n      and\n      0xffffffffffffffffffffffffffffffffffffffff\n      and\n      dup2\n      mstore\n      0x20\n      add\n      swap1\n      dup2\n      mstore\n      0x20\n      add\n      0x00\n      keccak256\n        /* \"TimeAlly.sol\":21625:21635  _stakingId */\n      dup9\n        /* \"TimeAlly.sol\":21602:21636  stakings[_userAddress][_stakingId] */\n      dup2\n      sload\n      dup2\n      lt\n      tag_241\n      jumpi\n      invalid\n    tag_241:\n      swap1\n      0x00\n      mstore\n      keccak256(0x00, 0x20)\n      swap1\n      0x09\n      mul\n      add\n        /* \"TimeAlly.sol\":21602:21650  stakings[_userAddress][_stakingId].stakingPlanId */\n      0x03\n      add\n      sload\n        /* \"TimeAlly.sol\":21589:21651  stakingPlans[stakings[_userAddress][_stakingId].stakingPlanId] */\n      dup2\n      sload\n      dup2\n      lt\n      tag_243\n      jumpi\n      invalid\n    tag_243:\n      swap1\n      0x00\n      mstore\n      keccak256(0x00, 0x20)\n      swap1\n      0x03\n      mul\n      add\n        /* \"TimeAlly.sol\":21589:21666  stakingPlans[stakings[_userAddress][_stakingId].stakingPlanId].fractionFrom15 */\n      0x01\n      add\n      sload\n        /* \"TimeAlly.sol\":21555:21573  benefitOfAllMonths */\n      dup5\n        /* \"TimeAlly.sol\":21555:21577  benefitOfAllMonths.mul */\n      tag_177\n      swap1\n        /* \"TimeAlly.sol\":21555:21676  benefitOfAllMonths.mul(... */\n      swap2\n      swap1\n      0xffffffff\n      and\n      jump\t// in\n    tag_240:\n        /* \"TimeAlly.sol\":21555:21680  benefitOfAllMonths.mul(... */\n      tag_237\n      swap1\n        /* \"TimeAlly.sol\":21555:21684  benefitOfAllMonths.mul(... */\n      swap2\n      swap1\n      0xffffffff\n      and\n      jump\t// in\n    tag_239:\n        /* \"TimeAlly.sol\":21548:21684  return benefitOfAllMonths.mul(... */\n      swap2\n      pop\n      pop\n        /* \"TimeAlly.sol\":20761:21691  function seeBenefitOfAStakingByMonths(... */\n      swap4\n      swap3\n      pop\n      pop\n      pop\n      jump\t// out\n        /* \"TimeAlly.sol\":36896:37103  function viewNomination(address _userAddress, uint256 _stakingId, address _nomineeAddress) public view returns (uint256) {... */\n    tag_67:\n        /* \"TimeAlly.sol\":37008:37015  uint256 */\n      0x00\n        /* \"TimeAlly.sol\":37034:37042  stakings */\n      0x07\n        /* \"TimeAlly.sol\":37034:37056  stakings[_userAddress] */\n      0x00\n        /* \"TimeAlly.sol\":37043:37055  _userAddress */\n      dup6\n        /* \"TimeAlly.sol\":37034:37056  stakings[_userAddress] */\n      0xffffffffffffffffffffffffffffffffffffffff\n      and\n      0xffffffffffffffffffffffffffffffffffffffff\n      and\n      dup2\n      mstore\n      0x20\n      add\n      swap1\n      dup2\n      mstore\n      0x20\n      add\n      0x00\n      keccak256\n        /* \"TimeAlly.sol\":37057:37067  _stakingId */\n      dup4\n        /* \"TimeAlly.sol\":37034:37068  stakings[_userAddress][_stakingId] */\n      dup2\n      sload\n      dup2\n      lt\n      tag_246\n      jumpi\n      invalid\n    tag_246:\n      swap1\n      0x00\n      mstore\n      keccak256(0x00, 0x20)\n      swap1\n      0x09\n      mul\n      add\n        /* \"TimeAlly.sol\":37034:37079  stakings[_userAddress][_stakingId].nomination */\n      0x08\n      add\n        /* \"TimeAlly.sol\":37034:37096  stakings[_userAddress][_stakingId].nomination[_nomineeAddress] */\n      0x00\n        /* \"TimeAlly.sol\":37080:37095  _nomineeAddress */\n      dup4\n        /* \"TimeAlly.sol\":37034:37096  stakings[_userAddress][_stakingId].nomination[_nomineeAddress] */\n      0xffffffffffffffffffffffffffffffffffffffff\n      and\n      0xffffffffffffffffffffffffffffffffffffffff\n      and\n      dup2\n      mstore\n      0x20\n      add\n      swap1\n      dup2\n      mstore\n      0x20\n      add\n      0x00\n      keccak256\n      sload\n        /* \"TimeAlly.sol\":37027:37096  return stakings[_userAddress][_stakingId].nomination[_nomineeAddress] */\n      swap1\n      pop\n        /* \"TimeAlly.sol\":36896:37103  function viewNomination(address _userAddress, uint256 _stakingId, address _nomineeAddress) public view returns (uint256) {... */\n      swap4\n      swap3\n      pop\n      pop\n      pop\n      jump\t// out\n        /* \"TimeAlly.sol\":2460:2515  mapping (uint256 => uint256) public totalActiveStakings */\n    tag_70:\n      mstore(0x20, 0x0a)\n      dup1\n      0x00\n      mstore\n      keccak256(0x00, 0x40)\n      0x00\n      swap2\n      pop\n      swap1\n      pop\n      sload\n      dup2\n      jump\t// out\n        /* \"TimeAlly.sol\":38640:39107  function removeNominee(uint256 _stakingId, address _nomineeAddress) public {... */\n    tag_73:\n        /* \"TimeAlly.sol\":38776:38777  1 */\n      0x01\n        /* \"TimeAlly.sol\":38733:38741  stakings */\n      0x07\n        /* \"TimeAlly.sol\":38733:38753  stakings[msg.sender] */\n      0x00\n        /* \"TimeAlly.sol\":38742:38752  msg.sender */\n      caller\n        /* \"TimeAlly.sol\":38733:38753  stakings[msg.sender] */\n      0xffffffffffffffffffffffffffffffffffffffff\n      and\n      0xffffffffffffffffffffffffffffffffffffffff\n      and\n      dup2\n      mstore\n      0x20\n      add\n      swap1\n      dup2\n      mstore\n      0x20\n      add\n      0x00\n      keccak256\n        /* \"TimeAlly.sol\":38754:38764  _stakingId */\n      dup4\n        /* \"TimeAlly.sol\":38733:38765  stakings[msg.sender][_stakingId] */\n      dup2\n      sload\n      dup2\n      lt\n      tag_249\n      jumpi\n      invalid\n    tag_249:\n      swap1\n      0x00\n      mstore\n      keccak256(0x00, 0x20)\n      swap1\n      0x09\n      mul\n      add\n        /* \"TimeAlly.sol\":38733:38772  stakings[msg.sender][_stakingId].status */\n      0x04\n      add\n      sload\n        /* \"TimeAlly.sol\":38733:38777  stakings[msg.sender][_stakingId].status == 1 */\n      eq\n        /* \"TimeAlly.sol\":38725:38803  require(stakings[msg.sender][_stakingId].status == 1, 'staking should active') */\n      tag_251\n      jumpi\n      mload(0x40)\n      0x08c379a000000000000000000000000000000000000000000000000000000000\n      dup2\n      mstore\n      0x04\n      add\n      dup1\n      dup1\n      0x20\n      add\n      dup3\n      dup2\n      sub\n      dup3\n      mstore\n      0x15\n      dup2\n      mstore\n      0x20\n      add\n      dup1\n      0x7374616b696e672073686f756c64206163746976650000000000000000000000\n      dup2\n      mstore\n      pop\n      0x20\n      add\n      swap2\n      pop\n      pop\n      mload(0x40)\n      dup1\n      swap2\n      sub\n      swap1\n      revert\n    tag_251:\n        /* \"TimeAlly.sol\":38813:38831  uint256 _oldShares */\n      0x00\n        /* \"TimeAlly.sol\":38834:38842  stakings */\n      0x07\n        /* \"TimeAlly.sol\":38834:38854  stakings[msg.sender] */\n      0x00\n        /* \"TimeAlly.sol\":38843:38853  msg.sender */\n      caller\n        /* \"TimeAlly.sol\":38834:38854  stakings[msg.sender] */\n      0xffffffffffffffffffffffffffffffffffffffff\n      and\n      0xffffffffffffffffffffffffffffffffffffffff\n      and\n      dup2\n      mstore\n      0x20\n      add\n      swap1\n      dup2\n      mstore\n      0x20\n      add\n      0x00\n      keccak256\n        /* \"TimeAlly.sol\":38855:38865  _stakingId */\n      dup4\n        /* \"TimeAlly.sol\":38834:38866  stakings[msg.sender][_stakingId] */\n      dup2\n      sload\n      dup2\n      lt\n      tag_252\n      jumpi\n      invalid\n    tag_252:\n      swap1\n      0x00\n      mstore\n      keccak256(0x00, 0x20)\n      swap1\n      0x09\n      mul\n      add\n        /* \"TimeAlly.sol\":38834:38877  stakings[msg.sender][_stakingId].nomination */\n      0x08\n      add\n        /* \"TimeAlly.sol\":38834:38889  stakings[msg.sender][_stakingId].nomination[msg.sender] */\n      0x00\n        /* \"TimeAlly.sol\":38878:38888  msg.sender */\n      caller\n        /* \"TimeAlly.sol\":38834:38889  stakings[msg.sender][_stakingId].nomination[msg.sender] */\n      0xffffffffffffffffffffffffffffffffffffffff\n      and\n      0xffffffffffffffffffffffffffffffffffffffff\n      and\n      dup2\n      mstore\n      0x20\n      add\n      swap1\n      dup2\n      mstore\n      0x20\n      add\n      0x00\n      keccak256\n      sload\n        /* \"TimeAlly.sol\":38813:38889  uint256 _oldShares = stakings[msg.sender][_stakingId].nomination[msg.sender] */\n      swap1\n      pop\n        /* \"TimeAlly.sol\":38962:38963  0 */\n      0x00\n        /* \"TimeAlly.sol\":38899:38907  stakings */\n      0x07\n        /* \"TimeAlly.sol\":38899:38919  stakings[msg.sender] */\n      0x00\n        /* \"TimeAlly.sol\":38908:38918  msg.sender */\n      caller\n        /* \"TimeAlly.sol\":38899:38919  stakings[msg.sender] */\n      0xffffffffffffffffffffffffffffffffffffffff\n      and\n      0xffffffffffffffffffffffffffffffffffffffff\n      and\n      dup2\n      mstore\n      0x20\n      add\n      swap1\n      dup2\n      mstore\n      0x20\n      add\n      0x00\n      keccak256\n        /* \"TimeAlly.sol\":38920:38930  _stakingId */\n      dup5\n        /* \"TimeAlly.sol\":38899:38931  stakings[msg.sender][_stakingId] */\n      dup2\n      sload\n      dup2\n      lt\n      tag_254\n      jumpi\n      invalid\n    tag_254:\n      swap1\n      0x00\n      mstore\n      keccak256(0x00, 0x20)\n      swap1\n      0x09\n      mul\n      add\n        /* \"TimeAlly.sol\":38899:38942  stakings[msg.sender][_stakingId].nomination */\n      0x08\n      add\n        /* \"TimeAlly.sol\":38899:38959  stakings[msg.sender][_stakingId].nomination[_nomineeAddress] */\n      0x00\n        /* \"TimeAlly.sol\":38943:38958  _nomineeAddress */\n      dup5\n        /* \"TimeAlly.sol\":38899:38959  stakings[msg.sender][_stakingId].nomination[_nomineeAddress] */\n      0xffffffffffffffffffffffffffffffffffffffff\n      and\n      0xffffffffffffffffffffffffffffffffffffffff\n      and\n      dup2\n      mstore\n      0x20\n      add\n      swap1\n      dup2\n      mstore\n      0x20\n      add\n      0x00\n      keccak256\n        /* \"TimeAlly.sol\":38899:38963  stakings[msg.sender][_stakingId].nomination[_nomineeAddress] = 0 */\n      dup2\n      swap1\n      sstore\n      pop\n        /* \"TimeAlly.sol\":39030:39100  stakings[msg.sender][_stakingId].totalNominationShares.sub(_oldShares) */\n      tag_256\n        /* \"TimeAlly.sol\":39089:39099  _oldShares */\n      dup2\n        /* \"TimeAlly.sol\":39030:39038  stakings */\n      0x07\n        /* \"TimeAlly.sol\":39030:39050  stakings[msg.sender] */\n      0x00\n        /* \"TimeAlly.sol\":39039:39049  msg.sender */\n      caller\n        /* \"TimeAlly.sol\":39030:39050  stakings[msg.sender] */\n      0xffffffffffffffffffffffffffffffffffffffff\n      and\n      0xffffffffffffffffffffffffffffffffffffffff\n      and\n      dup2\n      mstore\n      0x20\n      add\n      swap1\n      dup2\n      mstore\n      0x20\n      add\n      0x00\n      keccak256\n        /* \"TimeAlly.sol\":39051:39061  _stakingId */\n      dup6\n        /* \"TimeAlly.sol\":39030:39062  stakings[msg.sender][_stakingId] */\n      dup2\n      sload\n      dup2\n      lt\n      tag_257\n      jumpi\n      invalid\n    tag_257:\n      swap1\n      0x00\n      mstore\n      keccak256(0x00, 0x20)\n      swap1\n      0x09\n      mul\n      add\n        /* \"TimeAlly.sol\":39030:39084  stakings[msg.sender][_stakingId].totalNominationShares */\n      0x06\n      add\n      sload\n        /* \"TimeAlly.sol\":39030:39088  stakings[msg.sender][_stakingId].totalNominationShares.sub */\n      tag_205\n      swap1\n        /* \"TimeAlly.sol\":39030:39100  stakings[msg.sender][_stakingId].totalNominationShares.sub(_oldShares) */\n      swap2\n      swap1\n      0xffffffff\n      and\n      jump\t// in\n    tag_256:\n        /* \"TimeAlly.sol\":38973:38981  stakings */\n      0x07\n        /* \"TimeAlly.sol\":38973:38993  stakings[msg.sender] */\n      0x00\n        /* \"TimeAlly.sol\":38982:38992  msg.sender */\n      caller\n        /* \"TimeAlly.sol\":38973:38993  stakings[msg.sender] */\n      0xffffffffffffffffffffffffffffffffffffffff\n      and\n      0xffffffffffffffffffffffffffffffffffffffff\n      and\n      dup2\n      mstore\n      0x20\n      add\n      swap1\n      dup2\n      mstore\n      0x20\n      add\n      0x00\n      keccak256\n        /* \"TimeAlly.sol\":38994:39004  _stakingId */\n      dup5\n        /* \"TimeAlly.sol\":38973:39005  stakings[msg.sender][_stakingId] */\n      dup2\n      sload\n      dup2\n      lt\n      tag_259\n      jumpi\n      invalid\n    tag_259:\n      swap1\n      0x00\n      mstore\n      keccak256(0x00, 0x20)\n      swap1\n      0x09\n      mul\n      add\n        /* \"TimeAlly.sol\":38973:39027  stakings[msg.sender][_stakingId].totalNominationShares */\n      0x06\n      add\n        /* \"TimeAlly.sol\":38973:39100  stakings[msg.sender][_stakingId].totalNominationShares = stakings[msg.sender][_stakingId].totalNominationShares.sub(_oldShares) */\n      dup2\n      swap1\n      sstore\n      pop\n        /* \"TimeAlly.sol\":38640:39107  function removeNominee(uint256 _stakingId, address _nomineeAddress) public {... */\n      pop\n      pop\n      pop\n      jump\t// out\n        /* \"TimeAlly.sol\":9811:10031  function topupRewardBucket(uint256 _exaEsAmount) public {... */\n    tag_76:\n        /* \"TimeAlly.sol\":9885:9890  token */\n      0x02\n      0x00\n      swap1\n      sload\n      swap1\n      0x0100\n      exp\n      swap1\n      div\n      0xffffffffffffffffffffffffffffffffffffffff\n      and\n        /* \"TimeAlly.sol\":9885:9903  token.transferFrom */\n      0xffffffffffffffffffffffffffffffffffffffff\n      and\n      0x23b872dd\n        /* \"TimeAlly.sol\":9904:9914  msg.sender */\n      caller\n        /* \"TimeAlly.sol\":9924:9928  this */\n      address\n        /* \"TimeAlly.sol\":9931:9943  _exaEsAmount */\n      dup5\n        /* \"TimeAlly.sol\":9885:9944  token.transferFrom(msg.sender, address(this), _exaEsAmount) */\n      mload(0x40)\n      dup5\n      0xffffffff\n      and\n      0xe0\n      shl\n      dup2\n      mstore\n      0x04\n      add\n      dup1\n      dup5\n      0xffffffffffffffffffffffffffffffffffffffff\n      and\n      0xffffffffffffffffffffffffffffffffffffffff\n      and\n      dup2\n      mstore\n      0x20\n      add\n      dup4\n      0xffffffffffffffffffffffffffffffffffffffff\n      and\n      0xffffffffffffffffffffffffffffffffffffffff\n      and\n      dup2\n      mstore\n      0x20\n      add\n      dup3\n      dup2\n      mstore\n      0x20\n      add\n      swap4\n      pop\n      pop\n      pop\n      pop\n      0x20\n      mload(0x40)\n      dup1\n      dup4\n      sub\n      dup2\n      0x00\n      dup8\n      dup1\n      extcodesize\n      iszero\n        /* \"--CODEGEN--\":8:17   */\n      dup1\n        /* \"--CODEGEN--\":5:7   */\n      iszero\n      tag_262\n      jumpi\n        /* \"--CODEGEN--\":30:31   */\n      0x00\n        /* \"--CODEGEN--\":27:28   */\n      dup1\n        /* \"--CODEGEN--\":20:32   */\n      revert\n        /* \"--CODEGEN--\":5:7   */\n    tag_262:\n        /* \"TimeAlly.sol\":9885:9944  token.transferFrom(msg.sender, address(this), _exaEsAmount) */\n      pop\n      gas\n      call\n      iszero\n        /* \"--CODEGEN--\":8:17   */\n      dup1\n        /* \"--CODEGEN--\":5:7   */\n      iszero\n      tag_263\n      jumpi\n        /* \"--CODEGEN--\":45:61   */\n      returndatasize\n        /* \"--CODEGEN--\":42:43   */\n      0x00\n        /* \"--CODEGEN--\":39:40   */\n      dup1\n        /* \"--CODEGEN--\":24:62   */\n      returndatacopy\n        /* \"--CODEGEN--\":77:93   */\n      returndatasize\n        /* \"--CODEGEN--\":74:75   */\n      0x00\n        /* \"--CODEGEN--\":67:94   */\n      revert\n        /* \"--CODEGEN--\":5:7   */\n    tag_263:\n        /* \"TimeAlly.sol\":9885:9944  token.transferFrom(msg.sender, address(this), _exaEsAmount) */\n      pop\n      pop\n      pop\n      pop\n      mload(0x40)\n      returndatasize\n        /* \"--CODEGEN--\":13:15   */\n      0x20\n        /* \"--CODEGEN--\":8:11   */\n      dup2\n        /* \"--CODEGEN--\":5:16   */\n      lt\n        /* \"--CODEGEN--\":2:4   */\n      iszero\n      tag_264\n      jumpi\n        /* \"--CODEGEN--\":29:30   */\n      0x00\n        /* \"--CODEGEN--\":26:27   */\n      dup1\n        /* \"--CODEGEN--\":19:31   */\n      revert\n        /* \"--CODEGEN--\":2:4   */\n    tag_264:\n        /* \"TimeAlly.sol\":9885:9944  token.transferFrom(msg.sender, address(this), _exaEsAmount) */\n      dup2\n      add\n      swap1\n      dup1\n      dup1\n      mload\n      swap1\n      0x20\n      add\n      swap1\n      swap3\n      swap2\n      swap1\n      pop\n      pop\n      pop\n        /* \"TimeAlly.sol\":9877:9945  require(token.transferFrom(msg.sender, address(this), _exaEsAmount)) */\n      tag_265\n      jumpi\n      0x00\n      dup1\n      revert\n    tag_265:\n        /* \"TimeAlly.sol\":9982:10024  launchReward[msg.sender].add(_exaEsAmount) */\n      tag_266\n        /* \"TimeAlly.sol\":10011:10023  _exaEsAmount */\n      dup2\n        /* \"TimeAlly.sol\":9982:9994  launchReward */\n      0x09\n        /* \"TimeAlly.sol\":9982:10006  launchReward[msg.sender] */\n      0x00\n        /* \"TimeAlly.sol\":9995:10005  msg.sender */\n      caller\n        /* \"TimeAlly.sol\":9982:10006  launchReward[msg.sender] */\n      0xffffffffffffffffffffffffffffffffffffffff\n      and\n      0xffffffffffffffffffffffffffffffffffffffff\n      and\n      dup2\n      mstore\n      0x20\n      add\n      swap1\n      dup2\n      mstore\n      0x20\n      add\n      0x00\n      keccak256\n      sload\n        /* \"TimeAlly.sol\":9982:10010  launchReward[msg.sender].add */\n      tag_199\n      swap1\n        /* \"TimeAlly.sol\":9982:10024  launchReward[msg.sender].add(_exaEsAmount) */\n      swap2\n      swap1\n      0xffffffff\n      and\n      jump\t// in\n    tag_266:\n        /* \"TimeAlly.sol\":9955:9967  launchReward */\n      0x09\n        /* \"TimeAlly.sol\":9955:9979  launchReward[msg.sender] */\n      0x00\n        /* \"TimeAlly.sol\":9968:9978  msg.sender */\n      caller\n        /* \"TimeAlly.sol\":9955:9979  launchReward[msg.sender] */\n      0xffffffffffffffffffffffffffffffffffffffff\n      and\n      0xffffffffffffffffffffffffffffffffffffffff\n      and\n      dup2\n      mstore\n      0x20\n      add\n      swap1\n      dup2\n      mstore\n      0x20\n      add\n      0x00\n      keccak256\n        /* \"TimeAlly.sol\":9955:10024  launchReward[msg.sender] = launchReward[msg.sender].add(_exaEsAmount) */\n      dup2\n      swap1\n      sstore\n      pop\n        /* \"TimeAlly.sol\":9811:10031  function topupRewardBucket(uint256 _exaEsAmount) public {... */\n      pop\n      jump\t// out\n        /* \"TimeAlly.sol\":2155:2188  StakingPlan[] public stakingPlans */\n    tag_79:\n      0x05\n      dup2\n      dup2\n      sload\n      dup2\n      lt\n      tag_267\n      jumpi\n      invalid\n    tag_267:\n      swap1\n      0x00\n      mstore\n      keccak256(0x00, 0x20)\n      swap1\n      0x03\n      mul\n      add\n      0x00\n      swap2\n      pop\n      swap1\n      pop\n      dup1\n      0x00\n      add\n      sload\n      swap1\n      dup1\n      0x01\n      add\n      sload\n      swap1\n      dup1\n      0x02\n      add\n      0x00\n      swap1\n      sload\n      swap1\n      0x0100\n      exp\n      swap1\n      div\n      0xff\n      and\n      swap1\n      dup1\n      0x02\n      add\n      0x01\n      swap1\n      sload\n      swap1\n      0x0100\n      exp\n      swap1\n      div\n      0xff\n      and\n      swap1\n      pop\n      dup5\n      jump\t// out\n        /* \"TimeAlly.sol\":5330:5645  function createStakingPlan(uint256 _months, uint256 _fractionFrom15, bool _isLoanAllowed) public onlyOwner {... */\n    tag_82:\n        /* \"TimeAlly.sol\":3924:3929  owner */\n      0x01\n      0x00\n      swap1\n      sload\n      swap1\n      0x0100\n      exp\n      swap1\n      div\n      0xffffffffffffffffffffffffffffffffffffffff\n      and\n        /* \"TimeAlly.sol\":3910:3929  msg.sender == owner */\n      0xffffffffffffffffffffffffffffffffffffffff\n      and\n        /* \"TimeAlly.sol\":3910:3920  msg.sender */\n      caller\n        /* \"TimeAlly.sol\":3910:3929  msg.sender == owner */\n      0xffffffffffffffffffffffffffffffffffffffff\n      and\n      eq\n        /* \"TimeAlly.sol\":3891:3979  require(... */\n      tag_270\n      jumpi\n      0x00\n      dup1\n      revert\n    tag_270:\n        /* \"TimeAlly.sol\":5447:5459  stakingPlans */\n      0x05\n        /* \"TimeAlly.sol\":5465:5637  StakingPlan({... */\n      mload(0x40)\n      dup1\n      0x80\n      add\n      0x40\n      mstore\n      dup1\n        /* \"TimeAlly.sol\":5499:5506  _months */\n      dup6\n        /* \"TimeAlly.sol\":5465:5637  StakingPlan({... */\n      dup2\n      mstore\n      0x20\n      add\n        /* \"TimeAlly.sol\":5536:5551  _fractionFrom15 */\n      dup5\n        /* \"TimeAlly.sol\":5465:5637  StakingPlan({... */\n      dup2\n      mstore\n      0x20\n      add\n        /* \"TimeAlly.sol\":5579:5583  true */\n      0x01\n        /* \"TimeAlly.sol\":5465:5637  StakingPlan({... */\n      iszero\n      iszero\n      dup2\n      mstore\n      0x20\n      add\n        /* \"TimeAlly.sol\":5612:5626  _isLoanAllowed */\n      dup4\n        /* \"TimeAlly.sol\":5465:5637  StakingPlan({... */\n      iszero\n      iszero\n      dup2\n      mstore\n      pop\n        /* \"TimeAlly.sol\":5447:5638  stakingPlans.push(StakingPlan({... */\n      swap1\n      dup1\n        /* \"--CODEGEN--\":39:40   */\n      0x01\n        /* \"--CODEGEN--\":33:36   */\n      dup2\n        /* \"--CODEGEN--\":27:37   */\n      sload\n        /* \"--CODEGEN--\":23:41   */\n      add\n        /* \"--CODEGEN--\":57:67   */\n      dup1\n        /* \"--CODEGEN--\":52:55   */\n      dup3\n        /* \"--CODEGEN--\":45:68   */\n      sstore\n        /* \"--CODEGEN--\":79:89   */\n      dup1\n        /* \"--CODEGEN--\":72:89   */\n      swap2\n      pop\n        /* \"--CODEGEN--\":0:93   */\n      pop\n        /* \"TimeAlly.sol\":5447:5638  stakingPlans.push(StakingPlan({... */\n      swap1\n      0x01\n      dup3\n      sub\n      swap1\n      0x00\n      mstore\n      keccak256(0x00, 0x20)\n      swap1\n      0x03\n      mul\n      add\n      0x00\n      swap1\n      swap2\n      swap3\n      swap1\n      swap2\n      swap1\n      swap2\n      pop\n      0x00\n      dup3\n      add\n      mload\n      dup2\n      0x00\n      add\n      sstore\n      0x20\n      dup3\n      add\n      mload\n      dup2\n      0x01\n      add\n      sstore\n      0x40\n      dup3\n      add\n      mload\n      dup2\n      0x02\n      add\n      exp(0x0100, 0x00)\n      dup2\n      sload\n      dup2\n      0xff\n      mul\n      not\n      and\n      swap1\n      dup4\n      iszero\n      iszero\n      mul\n      or\n      swap1\n      sstore\n      pop\n      0x60\n      dup3\n      add\n      mload\n      dup2\n      0x02\n      add\n      exp(0x0100, 0x01)\n      dup2\n      sload\n      dup2\n      0xff\n      mul\n      not\n      and\n      swap1\n      dup4\n      iszero\n      iszero\n      mul\n      or\n      swap1\n      sstore\n      pop\n      pop\n      pop\n      pop\n        /* \"TimeAlly.sol\":5330:5645  function createStakingPlan(uint256 _months, uint256 _fractionFrom15, bool _isLoanAllowed) public onlyOwner {... */\n      pop\n      pop\n      pop\n      jump\t// out\n        /* \"TimeAlly.sol\":2354:2401  mapping(address => uint256) public launchReward */\n    tag_85:\n      mstore(0x20, 0x09)\n      dup1\n      0x00\n      mstore\n      keccak256(0x00, 0x40)\n      0x00\n      swap2\n      pop\n      swap1\n      pop\n      sload\n      dup2\n      jump\t// out\n        /* \"TimeAlly.sol\":6034:6238  function createLoanPlan(uint256 _loanMonths, uint256 _loanRate) public onlyOwner {... */\n    tag_88:\n        /* \"TimeAlly.sol\":3924:3929  owner */\n      0x01\n      0x00\n      swap1\n      sload\n      swap1\n      0x0100\n      exp\n      swap1\n      div\n      0xffffffffffffffffffffffffffffffffffffffff\n      and\n        /* \"TimeAlly.sol\":3910:3929  msg.sender == owner */\n      0xffffffffffffffffffffffffffffffffffffffff\n      and\n        /* \"TimeAlly.sol\":3910:3920  msg.sender */\n      caller\n        /* \"TimeAlly.sol\":3910:3929  msg.sender == owner */\n      0xffffffffffffffffffffffffffffffffffffffff\n      and\n      eq\n        /* \"TimeAlly.sol\":3891:3979  require(... */\n      tag_274\n      jumpi\n      0x00\n      dup1\n      revert\n    tag_274:\n        /* \"TimeAlly.sol\":6125:6134  loanPlans */\n      0x06\n        /* \"TimeAlly.sol\":6140:6230  LoanPlan({... */\n      mload(0x40)\n      dup1\n      0x40\n      add\n      0x40\n      mstore\n      dup1\n        /* \"TimeAlly.sol\":6175:6186  _loanMonths */\n      dup5\n        /* \"TimeAlly.sol\":6140:6230  LoanPlan({... */\n      dup2\n      mstore\n      0x20\n      add\n        /* \"TimeAlly.sol\":6210:6219  _loanRate */\n      dup4\n        /* \"TimeAlly.sol\":6140:6230  LoanPlan({... */\n      dup2\n      mstore\n      pop\n        /* \"TimeAlly.sol\":6125:6231  loanPlans.push(LoanPlan({... */\n      swap1\n      dup1\n        /* \"--CODEGEN--\":39:40   */\n      0x01\n        /* \"--CODEGEN--\":33:36   */\n      dup2\n        /* \"--CODEGEN--\":27:37   */\n      sload\n        /* \"--CODEGEN--\":23:41   */\n      add\n        /* \"--CODEGEN--\":57:67   */\n      dup1\n        /* \"--CODEGEN--\":52:55   */\n      dup3\n        /* \"--CODEGEN--\":45:68   */\n      sstore\n        /* \"--CODEGEN--\":79:89   */\n      dup1\n        /* \"--CODEGEN--\":72:89   */\n      swap2\n      pop\n        /* \"--CODEGEN--\":0:93   */\n      pop\n        /* \"TimeAlly.sol\":6125:6231  loanPlans.push(LoanPlan({... */\n      swap1\n      0x01\n      dup3\n      sub\n      swap1\n      0x00\n      mstore\n      keccak256(0x00, 0x20)\n      swap1\n      0x02\n      mul\n      add\n      0x00\n      swap1\n      swap2\n      swap3\n      swap1\n      swap2\n      swap1\n      swap2\n      pop\n      0x00\n      dup3\n      add\n      mload\n      dup2\n      0x00\n      add\n      sstore\n      0x20\n      dup3\n      add\n      mload\n      dup2\n      0x01\n      add\n      sstore\n      pop\n      pop\n      pop\n        /* \"TimeAlly.sol\":6034:6238  function createLoanPlan(uint256 _loanMonths, uint256 _loanRate) public onlyOwner {... */\n      pop\n      pop\n      jump\t// out\n        /* \"TimeAlly.sol\":10279:10649  function giveLaunchReward(address[] memory _addresses, uint256[] memory _exaEsAmountArray) public onlyOwner {... */\n    tag_97:\n        /* \"TimeAlly.sol\":3924:3929  owner */\n      0x01\n      0x00\n      swap1\n      sload\n      swap1\n      0x0100\n      exp\n      swap1\n      div\n      0xffffffffffffffffffffffffffffffffffffffff\n      and\n        /* \"TimeAlly.sol\":3910:3929  msg.sender == owner */\n      0xffffffffffffffffffffffffffffffffffffffff\n      and\n        /* \"TimeAlly.sol\":3910:3920  msg.sender */\n      caller\n        /* \"TimeAlly.sol\":3910:3929  msg.sender == owner */\n      0xffffffffffffffffffffffffffffffffffffffff\n      and\n      eq\n        /* \"TimeAlly.sol\":3891:3979  require(... */\n      tag_278\n      jumpi\n      0x00\n      dup1\n      revert\n    tag_278:\n        /* \"TimeAlly.sol\":10401:10410  uint256 i */\n      0x00\n        /* \"TimeAlly.sol\":10413:10414  0 */\n      dup1\n        /* \"TimeAlly.sol\":10401:10414  uint256 i = 0 */\n      swap1\n      pop\n        /* \"TimeAlly.sol\":10397:10643  for(uint256 i = 0; i < _addresses.length; i++) {... */\n    tag_280:\n        /* \"TimeAlly.sol\":10420:10430  _addresses */\n      dup3\n        /* \"TimeAlly.sol\":10420:10437  _addresses.length */\n      mload\n        /* \"TimeAlly.sol\":10416:10417  i */\n      dup2\n        /* \"TimeAlly.sol\":10416:10437  i < _addresses.length */\n      lt\n        /* \"TimeAlly.sol\":10397:10643  for(uint256 i = 0; i < _addresses.length; i++) {... */\n      iszero\n      tag_281\n      jumpi\n        /* \"TimeAlly.sol\":10485:10535  launchReward[msg.sender].sub(_exaEsAmountArray[i]) */\n      tag_283\n        /* \"TimeAlly.sol\":10514:10531  _exaEsAmountArray */\n      dup3\n        /* \"TimeAlly.sol\":10532:10533  i */\n      dup3\n        /* \"TimeAlly.sol\":10514:10534  _exaEsAmountArray[i] */\n      dup2\n      mload\n      dup2\n      lt\n      tag_284\n      jumpi\n      invalid\n    tag_284:\n      0x20\n      mul\n      0x20\n      add\n      add\n      mload\n        /* \"TimeAlly.sol\":10485:10497  launchReward */\n      0x09\n        /* \"TimeAlly.sol\":10485:10509  launchReward[msg.sender] */\n      0x00\n        /* \"TimeAlly.sol\":10498:10508  msg.sender */\n      caller\n        /* \"TimeAlly.sol\":10485:10509  launchReward[msg.sender] */\n      0xffffffffffffffffffffffffffffffffffffffff\n      and\n      0xffffffffffffffffffffffffffffffffffffffff\n      and\n      dup2\n      mstore\n      0x20\n      add\n      swap1\n      dup2\n      mstore\n      0x20\n      add\n      0x00\n      keccak256\n      sload\n        /* \"TimeAlly.sol\":10485:10513  launchReward[msg.sender].sub */\n      tag_205\n      swap1\n        /* \"TimeAlly.sol\":10485:10535  launchReward[msg.sender].sub(_exaEsAmountArray[i]) */\n      swap2\n      swap1\n      0xffffffff\n      and\n      jump\t// in\n    tag_283:\n        /* \"TimeAlly.sol\":10458:10470  launchReward */\n      0x09\n        /* \"TimeAlly.sol\":10458:10482  launchReward[msg.sender] */\n      0x00\n        /* \"TimeAlly.sol\":10471:10481  msg.sender */\n      caller\n        /* \"TimeAlly.sol\":10458:10482  launchReward[msg.sender] */\n      0xffffffffffffffffffffffffffffffffffffffff\n      and\n      0xffffffffffffffffffffffffffffffffffffffff\n      and\n      dup2\n      mstore\n      0x20\n      add\n      swap1\n      dup2\n      mstore\n      0x20\n      add\n      0x00\n      keccak256\n        /* \"TimeAlly.sol\":10458:10535  launchReward[msg.sender] = launchReward[msg.sender].sub(_exaEsAmountArray[i]) */\n      dup2\n      swap1\n      sstore\n      pop\n        /* \"TimeAlly.sol\":10579:10632  launchReward[_addresses[i]].add(_exaEsAmountArray[i]) */\n      tag_285\n        /* \"TimeAlly.sol\":10611:10628  _exaEsAmountArray */\n      dup3\n        /* \"TimeAlly.sol\":10629:10630  i */\n      dup3\n        /* \"TimeAlly.sol\":10611:10631  _exaEsAmountArray[i] */\n      dup2\n      mload\n      dup2\n      lt\n      tag_286\n      jumpi\n      invalid\n    tag_286:\n      0x20\n      mul\n      0x20\n      add\n      add\n      mload\n        /* \"TimeAlly.sol\":10579:10591  launchReward */\n      0x09\n        /* \"TimeAlly.sol\":10579:10606  launchReward[_addresses[i]] */\n      0x00\n        /* \"TimeAlly.sol\":10592:10602  _addresses */\n      dup7\n        /* \"TimeAlly.sol\":10603:10604  i */\n      dup6\n        /* \"TimeAlly.sol\":10592:10605  _addresses[i] */\n      dup2\n      mload\n      dup2\n      lt\n      tag_287\n      jumpi\n      invalid\n    tag_287:\n      0x20\n      mul\n      0x20\n      add\n      add\n      mload\n        /* \"TimeAlly.sol\":10579:10606  launchReward[_addresses[i]] */\n      0xffffffffffffffffffffffffffffffffffffffff\n      and\n      0xffffffffffffffffffffffffffffffffffffffff\n      and\n      dup2\n      mstore\n      0x20\n      add\n      swap1\n      dup2\n      mstore\n      0x20\n      add\n      0x00\n      keccak256\n      sload\n        /* \"TimeAlly.sol\":10579:10610  launchReward[_addresses[i]].add */\n      tag_199\n      swap1\n        /* \"TimeAlly.sol\":10579:10632  launchReward[_addresses[i]].add(_exaEsAmountArray[i]) */\n      swap2\n      swap1\n      0xffffffff\n      and\n      jump\t// in\n    tag_285:\n        /* \"TimeAlly.sol\":10549:10561  launchReward */\n      0x09\n        /* \"TimeAlly.sol\":10549:10576  launchReward[_addresses[i]] */\n      0x00\n        /* \"TimeAlly.sol\":10562:10572  _addresses */\n      dup6\n        /* \"TimeAlly.sol\":10573:10574  i */\n      dup5\n        /* \"TimeAlly.sol\":10562:10575  _addresses[i] */\n      dup2\n      mload\n      dup2\n      lt\n      tag_288\n      jumpi\n      invalid\n    tag_288:\n      0x20\n      mul\n      0x20\n      add\n      add\n      mload\n        /* \"TimeAlly.sol\":10549:10576  launchReward[_addresses[i]] */\n      0xffffffffffffffffffffffffffffffffffffffff\n      and\n      0xffffffffffffffffffffffffffffffffffffffff\n      and\n      dup2\n      mstore\n      0x20\n      add\n      swap1\n      dup2\n      mstore\n      0x20\n      add\n      0x00\n      keccak256\n        /* \"TimeAlly.sol\":10549:10632  launchReward[_addresses[i]] = launchReward[_addresses[i]].add(_exaEsAmountArray[i]) */\n      dup2\n      swap1\n      sstore\n      pop\n        /* \"TimeAlly.sol\":10439:10442  i++ */\n      dup1\n      dup1\n      0x01\n      add\n      swap2\n      pop\n      pop\n        /* \"TimeAlly.sol\":10397:10643  for(uint256 i = 0; i < _addresses.length; i++) {... */\n      jump(tag_280)\n    tag_281:\n      pop\n        /* \"TimeAlly.sol\":10279:10649  function giveLaunchReward(address[] memory _addresses, uint256[] memory _exaEsAmountArray) public onlyOwner {... */\n      pop\n      pop\n      jump\t// out\n        /* \"TimeAlly.sol\":1846:1866  address public owner */\n    tag_99:\n      0x01\n      0x00\n      swap1\n      sload\n      swap1\n      0x0100\n      exp\n      swap1\n      div\n      0xffffffffffffffffffffffffffffffffffffffff\n      and\n      dup2\n      jump\t// out\n        /* \"TimeAlly.sol\":39329:42671  function nomineeWithdraw(address _userAddress, uint256 _stakingId) public {... */\n    tag_102:\n        /* \"TimeAlly.sol\":39443:39462  uint256 currentTime */\n      0x00\n        /* \"TimeAlly.sol\":39465:39470  token */\n      0x02\n      0x00\n      swap1\n      sload\n      swap1\n      0x0100\n      exp\n      swap1\n      div\n      0xffffffffffffffffffffffffffffffffffffffff\n      and\n        /* \"TimeAlly.sol\":39465:39474  token.mou */\n      0xffffffffffffffffffffffffffffffffffffffff\n      and\n      0xb81f90f3\n        /* \"TimeAlly.sol\":39465:39476  token.mou() */\n      mload(0x40)\n      dup2\n      0xffffffff\n      and\n      0xe0\n      shl\n      dup2\n      mstore\n      0x04\n      add\n      0x20\n      mload(0x40)\n      dup1\n      dup4\n      sub\n      dup2\n      dup7\n      dup1\n      extcodesize\n      iszero\n        /* \"--CODEGEN--\":8:17   */\n      dup1\n        /* \"--CODEGEN--\":5:7   */\n      iszero\n      tag_290\n      jumpi\n        /* \"--CODEGEN--\":30:31   */\n      0x00\n        /* \"--CODEGEN--\":27:28   */\n      dup1\n        /* \"--CODEGEN--\":20:32   */\n      revert\n        /* \"--CODEGEN--\":5:7   */\n    tag_290:\n        /* \"TimeAlly.sol\":39465:39476  token.mou() */\n      pop\n      gas\n      staticcall\n      iszero\n        /* \"--CODEGEN--\":8:17   */\n      dup1\n        /* \"--CODEGEN--\":5:7   */\n      iszero\n      tag_291\n      jumpi\n        /* \"--CODEGEN--\":45:61   */\n      returndatasize\n        /* \"--CODEGEN--\":42:43   */\n      0x00\n        /* \"--CODEGEN--\":39:40   */\n      dup1\n        /* \"--CODEGEN--\":24:62   */\n      returndatacopy\n        /* \"--CODEGEN--\":77:93   */\n      returndatasize\n        /* \"--CODEGEN--\":74:75   */\n      0x00\n        /* \"--CODEGEN--\":67:94   */\n      revert\n        /* \"--CODEGEN--\":5:7   */\n    tag_291:\n        /* \"TimeAlly.sol\":39465:39476  token.mou() */\n      pop\n      pop\n      pop\n      pop\n      mload(0x40)\n      returndatasize\n        /* \"--CODEGEN--\":13:15   */\n      0x20\n        /* \"--CODEGEN--\":8:11   */\n      dup2\n        /* \"--CODEGEN--\":5:16   */\n      lt\n        /* \"--CODEGEN--\":2:4   */\n      iszero\n      tag_292\n      jumpi\n        /* \"--CODEGEN--\":29:30   */\n      0x00\n        /* \"--CODEGEN--\":26:27   */\n      dup1\n        /* \"--CODEGEN--\":19:31   */\n      revert\n        /* \"--CODEGEN--\":2:4   */\n    tag_292:\n        /* \"TimeAlly.sol\":39465:39476  token.mou() */\n      dup2\n      add\n      swap1\n      dup1\n      dup1\n      mload\n      swap1\n      0x20\n      add\n      swap1\n      swap3\n      swap2\n      swap1\n      pop\n      pop\n      pop\n        /* \"TimeAlly.sol\":39443:39476  uint256 currentTime = token.mou() */\n      swap1\n      pop\n        /* \"TimeAlly.sol\":39696:39715  earthSecondsInMonth */\n      sload(0x04)\n        /* \"TimeAlly.sol\":39691:39693  12 */\n      0x0c\n        /* \"TimeAlly.sol\":39691:39715  12 * earthSecondsInMonth */\n      mul\n        /* \"TimeAlly.sol\":39649:39668  earthSecondsInMonth */\n      sload(0x04)\n        /* \"TimeAlly.sol\":39577:39589  stakingPlans */\n      0x05\n        /* \"TimeAlly.sol\":39590:39598  stakings */\n      0x07\n        /* \"TimeAlly.sol\":39590:39612  stakings[_userAddress] */\n      0x00\n        /* \"TimeAlly.sol\":39599:39611  _userAddress */\n      dup8\n        /* \"TimeAlly.sol\":39590:39612  stakings[_userAddress] */\n      0xffffffffffffffffffffffffffffffffffffffff\n      and\n      0xffffffffffffffffffffffffffffffffffffffff\n      and\n      dup2\n      mstore\n      0x20\n      add\n      swap1\n      dup2\n      mstore\n      0x20\n      add\n      0x00\n      keccak256\n        /* \"TimeAlly.sol\":39613:39623  _stakingId */\n      dup6\n        /* \"TimeAlly.sol\":39590:39624  stakings[_userAddress][_stakingId] */\n      dup2\n      sload\n      dup2\n      lt\n      tag_293\n      jumpi\n      invalid\n    tag_293:\n      swap1\n      0x00\n      mstore\n      keccak256(0x00, 0x20)\n      swap1\n      0x09\n      mul\n      add\n        /* \"TimeAlly.sol\":39590:39638  stakings[_userAddress][_stakingId].stakingPlanId */\n      0x03\n      add\n      sload\n        /* \"TimeAlly.sol\":39577:39639  stakingPlans[stakings[_userAddress][_stakingId].stakingPlanId] */\n      dup2\n      sload\n      dup2\n      lt\n      tag_295\n      jumpi\n      invalid\n    tag_295:\n      swap1\n      0x00\n      mstore\n      keccak256(0x00, 0x20)\n      swap1\n      0x03\n      mul\n      add\n        /* \"TimeAlly.sol\":39577:39646  stakingPlans[stakings[_userAddress][_stakingId].stakingPlanId].months */\n      0x00\n      add\n      sload\n        /* \"TimeAlly.sol\":39577:39668  stakingPlans[stakings[_userAddress][_stakingId].stakingPlanId].months * earthSecondsInMonth */\n      mul\n        /* \"TimeAlly.sol\":39510:39518  stakings */\n      0x07\n        /* \"TimeAlly.sol\":39510:39532  stakings[_userAddress] */\n      0x00\n        /* \"TimeAlly.sol\":39519:39531  _userAddress */\n      dup7\n        /* \"TimeAlly.sol\":39510:39532  stakings[_userAddress] */\n      0xffffffffffffffffffffffffffffffffffffffff\n      and\n      0xffffffffffffffffffffffffffffffffffffffff\n      and\n      dup2\n      mstore\n      0x20\n      add\n      swap1\n      dup2\n      mstore\n      0x20\n      add\n      0x00\n      keccak256\n        /* \"TimeAlly.sol\":39533:39543  _stakingId */\n      dup5\n        /* \"TimeAlly.sol\":39510:39544  stakings[_userAddress][_stakingId] */\n      dup2\n      sload\n      dup2\n      lt\n      tag_297\n      jumpi\n      invalid\n    tag_297:\n      swap1\n      0x00\n      mstore\n      keccak256(0x00, 0x20)\n      swap1\n      0x09\n      mul\n      add\n        /* \"TimeAlly.sol\":39510:39554  stakings[_userAddress][_stakingId].timestamp */\n      0x01\n      add\n      sload\n        /* \"TimeAlly.sol\":39510:39668  stakings[_userAddress][_stakingId].timestamp... */\n      add\n        /* \"TimeAlly.sol\":39510:39715  stakings[_userAddress][_stakingId].timestamp... */\n      add\n        /* \"TimeAlly.sol\":39495:39506  currentTime */\n      dup2\n        /* \"TimeAlly.sol\":39495:39717  currentTime > (stakings[_userAddress][_stakingId].timestamp... */\n      gt\n        /* \"TimeAlly.sol\":39486:39796  require( currentTime > (stakings[_userAddress][_stakingId].timestamp... */\n      tag_299\n      jumpi\n      0x00\n      dup1\n      revert\n    tag_299:\n        /* \"TimeAlly.sol\":39807:39829  uint256 _nomineeShares */\n      0x00\n        /* \"TimeAlly.sol\":39832:39840  stakings */\n      0x07\n        /* \"TimeAlly.sol\":39832:39854  stakings[_userAddress] */\n      0x00\n        /* \"TimeAlly.sol\":39841:39853  _userAddress */\n      dup6\n        /* \"TimeAlly.sol\":39832:39854  stakings[_userAddress] */\n      0xffffffffffffffffffffffffffffffffffffffff\n      and\n      0xffffffffffffffffffffffffffffffffffffffff\n      and\n      dup2\n      mstore\n      0x20\n      add\n      swap1\n      dup2\n      mstore\n      0x20\n      add\n      0x00\n      keccak256\n        /* \"TimeAlly.sol\":39855:39865  _stakingId */\n      dup4\n        /* \"TimeAlly.sol\":39832:39866  stakings[_userAddress][_stakingId] */\n      dup2\n      sload\n      dup2\n      lt\n      tag_300\n      jumpi\n      invalid\n    tag_300:\n      swap1\n      0x00\n      mstore\n      keccak256(0x00, 0x20)\n      swap1\n      0x09\n      mul\n      add\n        /* \"TimeAlly.sol\":39832:39877  stakings[_userAddress][_stakingId].nomination */\n      0x08\n      add\n        /* \"TimeAlly.sol\":39832:39889  stakings[_userAddress][_stakingId].nomination[msg.sender] */\n      0x00\n        /* \"TimeAlly.sol\":39878:39888  msg.sender */\n      caller\n        /* \"TimeAlly.sol\":39832:39889  stakings[_userAddress][_stakingId].nomination[msg.sender] */\n      0xffffffffffffffffffffffffffffffffffffffff\n      and\n      0xffffffffffffffffffffffffffffffffffffffff\n      and\n      dup2\n      mstore\n      0x20\n      add\n      swap1\n      dup2\n      mstore\n      0x20\n      add\n      0x00\n      keccak256\n      sload\n        /* \"TimeAlly.sol\":39807:39889  uint256 _nomineeShares = stakings[_userAddress][_stakingId].nomination[msg.sender] */\n      swap1\n      pop\n        /* \"TimeAlly.sol\":39924:39925  0 */\n      0x00\n        /* \"TimeAlly.sol\":39907:39921  _nomineeShares */\n      dup2\n        /* \"TimeAlly.sol\":39907:39925  _nomineeShares > 0 */\n      gt\n        /* \"TimeAlly.sol\":39899:39982  require(_nomineeShares > 0... */\n      tag_302\n      jumpi\n      0x00\n      dup1\n      revert\n    tag_302:\n        /* \"TimeAlly.sol\":40132:40133  5 */\n      0x05\n        /* \"TimeAlly.sol\":40087:40095  stakings */\n      0x07\n        /* \"TimeAlly.sol\":40087:40109  stakings[_userAddress] */\n      0x00\n        /* \"TimeAlly.sol\":40096:40108  _userAddress */\n      dup7\n        /* \"TimeAlly.sol\":40087:40109  stakings[_userAddress] */\n      0xffffffffffffffffffffffffffffffffffffffff\n      and\n      0xffffffffffffffffffffffffffffffffffffffff\n      and\n      dup2\n      mstore\n      0x20\n      add\n      swap1\n      dup2\n      mstore\n      0x20\n      add\n      0x00\n      keccak256\n        /* \"TimeAlly.sol\":40110:40120  _stakingId */\n      dup5\n        /* \"TimeAlly.sol\":40087:40121  stakings[_userAddress][_stakingId] */\n      dup2\n      sload\n      dup2\n      lt\n      tag_303\n      jumpi\n      invalid\n    tag_303:\n      swap1\n      0x00\n      mstore\n      keccak256(0x00, 0x20)\n      swap1\n      0x09\n      mul\n      add\n        /* \"TimeAlly.sol\":40087:40128  stakings[_userAddress][_stakingId].status */\n      0x04\n      add\n      sload\n        /* \"TimeAlly.sol\":40087:40133  stakings[_userAddress][_stakingId].status != 5 */\n      eq\n        /* \"TimeAlly.sol\":40084:40205  if(stakings[_userAddress][_stakingId].status != 5) {... */\n      tag_305\n      jumpi\n        /* \"TimeAlly.sol\":40193:40194  5 */\n      0x05\n        /* \"TimeAlly.sol\":40149:40157  stakings */\n      0x07\n        /* \"TimeAlly.sol\":40149:40171  stakings[_userAddress] */\n      0x00\n        /* \"TimeAlly.sol\":40158:40170  _userAddress */\n      dup7\n        /* \"TimeAlly.sol\":40149:40171  stakings[_userAddress] */\n      0xffffffffffffffffffffffffffffffffffffffff\n      and\n      0xffffffffffffffffffffffffffffffffffffffff\n      and\n      dup2\n      mstore\n      0x20\n      add\n      swap1\n      dup2\n      mstore\n      0x20\n      add\n      0x00\n      keccak256\n        /* \"TimeAlly.sol\":40172:40182  _stakingId */\n      dup5\n        /* \"TimeAlly.sol\":40149:40183  stakings[_userAddress][_stakingId] */\n      dup2\n      sload\n      dup2\n      lt\n      tag_306\n      jumpi\n      invalid\n    tag_306:\n      swap1\n      0x00\n      mstore\n      keccak256(0x00, 0x20)\n      swap1\n      0x09\n      mul\n      add\n        /* \"TimeAlly.sol\":40149:40190  stakings[_userAddress][_stakingId].status */\n      0x04\n      add\n        /* \"TimeAlly.sol\":40149:40194  stakings[_userAddress][_stakingId].status = 5 */\n      dup2\n      swap1\n      sstore\n      pop\n        /* \"TimeAlly.sol\":40084:40205  if(stakings[_userAddress][_stakingId].status != 5) {... */\n    tag_305:\n        /* \"TimeAlly.sol\":40251:40288  uint256 _pendingLiquidAmountInStaking */\n      0x00\n        /* \"TimeAlly.sol\":40291:40299  stakings */\n      0x07\n        /* \"TimeAlly.sol\":40291:40313  stakings[_userAddress] */\n      0x00\n        /* \"TimeAlly.sol\":40300:40312  _userAddress */\n      dup7\n        /* \"TimeAlly.sol\":40291:40313  stakings[_userAddress] */\n      0xffffffffffffffffffffffffffffffffffffffff\n      and\n      0xffffffffffffffffffffffffffffffffffffffff\n      and\n      dup2\n      mstore\n      0x20\n      add\n      swap1\n      dup2\n      mstore\n      0x20\n      add\n      0x00\n      keccak256\n        /* \"TimeAlly.sol\":40314:40324  _stakingId */\n      dup5\n        /* \"TimeAlly.sol\":40291:40325  stakings[_userAddress][_stakingId] */\n      dup2\n      sload\n      dup2\n      lt\n      tag_308\n      jumpi\n      invalid\n    tag_308:\n      swap1\n      0x00\n      mstore\n      keccak256(0x00, 0x20)\n      swap1\n      0x09\n      mul\n      add\n        /* \"TimeAlly.sol\":40291:40337  stakings[_userAddress][_stakingId].exaEsAmount */\n      0x00\n      add\n      sload\n        /* \"TimeAlly.sol\":40251:40337  uint256 _pendingLiquidAmountInStaking = stakings[_userAddress][_stakingId].exaEsAmount */\n      swap1\n      pop\n        /* \"TimeAlly.sol\":40347:40385  uint256 _pendingAccruedAmountInStaking */\n      0x00\n        /* \"TimeAlly.sol\":40530:40552  uint256 _stakeEndMonth */\n      dup1\n        /* \"TimeAlly.sol\":40605:40617  stakingPlans */\n      0x05\n        /* \"TimeAlly.sol\":40618:40626  stakings */\n      0x07\n        /* \"TimeAlly.sol\":40618:40640  stakings[_userAddress] */\n      0x00\n        /* \"TimeAlly.sol\":40627:40639  _userAddress */\n      dup10\n        /* \"TimeAlly.sol\":40618:40640  stakings[_userAddress] */\n      0xffffffffffffffffffffffffffffffffffffffff\n      and\n      0xffffffffffffffffffffffffffffffffffffffff\n      and\n      dup2\n      mstore\n      0x20\n      add\n      swap1\n      dup2\n      mstore\n      0x20\n      add\n      0x00\n      keccak256\n        /* \"TimeAlly.sol\":40641:40651  _stakingId */\n      dup8\n        /* \"TimeAlly.sol\":40618:40652  stakings[_userAddress][_stakingId] */\n      dup2\n      sload\n      dup2\n      lt\n      tag_310\n      jumpi\n      invalid\n    tag_310:\n      swap1\n      0x00\n      mstore\n      keccak256(0x00, 0x20)\n      swap1\n      0x09\n      mul\n      add\n        /* \"TimeAlly.sol\":40618:40666  stakings[_userAddress][_stakingId].stakingPlanId */\n      0x03\n      add\n      sload\n        /* \"TimeAlly.sol\":40605:40667  stakingPlans[stakings[_userAddress][_stakingId].stakingPlanId] */\n      dup2\n      sload\n      dup2\n      lt\n      tag_312\n      jumpi\n      invalid\n    tag_312:\n      swap1\n      0x00\n      mstore\n      keccak256(0x00, 0x20)\n      swap1\n      0x03\n      mul\n      add\n        /* \"TimeAlly.sol\":40605:40674  stakingPlans[stakings[_userAddress][_stakingId].stakingPlanId].months */\n      0x00\n      add\n      sload\n        /* \"TimeAlly.sol\":40555:40563  stakings */\n      0x07\n        /* \"TimeAlly.sol\":40555:40577  stakings[_userAddress] */\n      0x00\n        /* \"TimeAlly.sol\":40564:40576  _userAddress */\n      dup10\n        /* \"TimeAlly.sol\":40555:40577  stakings[_userAddress] */\n      0xffffffffffffffffffffffffffffffffffffffff\n      and\n      0xffffffffffffffffffffffffffffffffffffffff\n      and\n      dup2\n      mstore\n      0x20\n      add\n      swap1\n      dup2\n      mstore\n      0x20\n      add\n      0x00\n      keccak256\n        /* \"TimeAlly.sol\":40578:40588  _stakingId */\n      dup8\n        /* \"TimeAlly.sol\":40555:40589  stakings[_userAddress][_stakingId] */\n      dup2\n      sload\n      dup2\n      lt\n      tag_314\n      jumpi\n      invalid\n    tag_314:\n      swap1\n      0x00\n      mstore\n      keccak256(0x00, 0x20)\n      swap1\n      0x09\n      mul\n      add\n        /* \"TimeAlly.sol\":40555:40602  stakings[_userAddress][_stakingId].stakingMonth */\n      0x02\n      add\n      sload\n        /* \"TimeAlly.sol\":40555:40674  stakings[_userAddress][_stakingId].stakingMonth + stakingPlans[stakings[_userAddress][_stakingId].stakingPlanId].months */\n      add\n        /* \"TimeAlly.sol\":40530:40674  uint256 _stakeEndMonth = stakings[_userAddress][_stakingId].stakingMonth + stakingPlans[stakings[_userAddress][_stakingId].stakingPlanId].months */\n      swap1\n      pop\n        /* \"TimeAlly.sol\":40757:40766  uint256 i */\n      0x00\n        /* \"TimeAlly.sol\":40769:40777  stakings */\n      0x07\n        /* \"TimeAlly.sol\":40769:40791  stakings[_userAddress] */\n      0x00\n        /* \"TimeAlly.sol\":40778:40790  _userAddress */\n      dup10\n        /* \"TimeAlly.sol\":40769:40791  stakings[_userAddress] */\n      0xffffffffffffffffffffffffffffffffffffffff\n      and\n      0xffffffffffffffffffffffffffffffffffffffff\n      and\n      dup2\n      mstore\n      0x20\n      add\n      swap1\n      dup2\n      mstore\n      0x20\n      add\n      0x00\n      keccak256\n        /* \"TimeAlly.sol\":40792:40802  _stakingId */\n      dup8\n        /* \"TimeAlly.sol\":40769:40803  stakings[_userAddress][_stakingId] */\n      dup2\n      sload\n      dup2\n      lt\n      tag_319\n      jumpi\n      invalid\n    tag_319:\n      swap1\n      0x00\n      mstore\n      keccak256(0x00, 0x20)\n      swap1\n      0x09\n      mul\n      add\n        /* \"TimeAlly.sol\":40769:40816  stakings[_userAddress][_stakingId].stakingMonth */\n      0x02\n      add\n      sload\n        /* \"TimeAlly.sol\":40757:40816  uint256 i = stakings[_userAddress][_stakingId].stakingMonth */\n      swap1\n      pop\n        /* \"TimeAlly.sol\":40742:41629  for(... */\n    tag_316:\n        /* \"TimeAlly.sol\":40854:40868  _stakeEndMonth */\n      dup2\n        /* \"TimeAlly.sol\":40850:40851  i */\n      dup2\n        /* \"TimeAlly.sol\":40850:40868  i < _stakeEndMonth */\n      lt\n        /* \"TimeAlly.sol\":40742:41629  for(... */\n      iszero\n      tag_317\n      jumpi\n        /* \"TimeAlly.sol\":40912:40920  stakings */\n      0x07\n        /* \"TimeAlly.sol\":40912:40934  stakings[_userAddress] */\n      0x00\n        /* \"TimeAlly.sol\":40921:40933  _userAddress */\n      dup10\n        /* \"TimeAlly.sol\":40912:40934  stakings[_userAddress] */\n      0xffffffffffffffffffffffffffffffffffffffff\n      and\n      0xffffffffffffffffffffffffffffffffffffffff\n      and\n      dup2\n      mstore\n      0x20\n      add\n      swap1\n      dup2\n      mstore\n      0x20\n      add\n      0x00\n      keccak256\n        /* \"TimeAlly.sol\":40935:40945  _stakingId */\n      dup8\n        /* \"TimeAlly.sol\":40912:40946  stakings[_userAddress][_stakingId] */\n      dup2\n      sload\n      dup2\n      lt\n      tag_321\n      jumpi\n      invalid\n    tag_321:\n      swap1\n      0x00\n      mstore\n      keccak256(0x00, 0x20)\n      swap1\n      0x09\n      mul\n      add\n        /* \"TimeAlly.sol\":40912:40961  stakings[_userAddress][_stakingId].isMonthClaimed */\n      0x07\n      add\n        /* \"TimeAlly.sol\":40912:40964  stakings[_userAddress][_stakingId].isMonthClaimed[i] */\n      0x00\n        /* \"TimeAlly.sol\":40962:40963  i */\n      dup3\n        /* \"TimeAlly.sol\":40912:40964  stakings[_userAddress][_stakingId].isMonthClaimed[i] */\n      dup2\n      mstore\n      0x20\n      add\n      swap1\n      dup2\n      mstore\n      0x20\n      add\n      0x00\n      keccak256\n      0x00\n      swap1\n      sload\n      swap1\n      0x0100\n      exp\n      swap1\n      div\n      0xff\n      and\n        /* \"TimeAlly.sol\":40908:41619  if( stakings[_userAddress][_stakingId].isMonthClaimed[i] ) {... */\n      iszero\n      tag_323\n      jumpi\n        /* \"TimeAlly.sol\":40985:41009  uint256 _effectiveAmount */\n      0x00\n        /* \"TimeAlly.sol\":41012:41187  stakings[_userAddress][_stakingId].exaEsAmount... */\n      tag_324\n        /* \"TimeAlly.sol\":41184:41186  15 */\n      0x0f\n        /* \"TimeAlly.sol\":41012:41160  stakings[_userAddress][_stakingId].exaEsAmount... */\n      tag_325\n        /* \"TimeAlly.sol\":41082:41094  stakingPlans */\n      0x05\n        /* \"TimeAlly.sol\":41095:41103  stakings */\n      0x07\n        /* \"TimeAlly.sol\":41095:41117  stakings[_userAddress] */\n      0x00\n        /* \"TimeAlly.sol\":41104:41116  _userAddress */\n      dup15\n        /* \"TimeAlly.sol\":41095:41117  stakings[_userAddress] */\n      0xffffffffffffffffffffffffffffffffffffffff\n      and\n      0xffffffffffffffffffffffffffffffffffffffff\n      and\n      dup2\n      mstore\n      0x20\n      add\n      swap1\n      dup2\n      mstore\n      0x20\n      add\n      0x00\n      keccak256\n        /* \"TimeAlly.sol\":41118:41128  _stakingId */\n      dup13\n        /* \"TimeAlly.sol\":41095:41129  stakings[_userAddress][_stakingId] */\n      dup2\n      sload\n      dup2\n      lt\n      tag_326\n      jumpi\n      invalid\n    tag_326:\n      swap1\n      0x00\n      mstore\n      keccak256(0x00, 0x20)\n      swap1\n      0x09\n      mul\n      add\n        /* \"TimeAlly.sol\":41095:41143  stakings[_userAddress][_stakingId].stakingPlanId */\n      0x03\n      add\n      sload\n        /* \"TimeAlly.sol\":41082:41144  stakingPlans[stakings[_userAddress][_stakingId].stakingPlanId] */\n      dup2\n      sload\n      dup2\n      lt\n      tag_328\n      jumpi\n      invalid\n    tag_328:\n      swap1\n      0x00\n      mstore\n      keccak256(0x00, 0x20)\n      swap1\n      0x03\n      mul\n      add\n        /* \"TimeAlly.sol\":41082:41159  stakingPlans[stakings[_userAddress][_stakingId].stakingPlanId].fractionFrom15 */\n      0x01\n      add\n      sload\n        /* \"TimeAlly.sol\":41012:41020  stakings */\n      0x07\n        /* \"TimeAlly.sol\":41012:41034  stakings[_userAddress] */\n      0x00\n        /* \"TimeAlly.sol\":41021:41033  _userAddress */\n      dup15\n        /* \"TimeAlly.sol\":41012:41034  stakings[_userAddress] */\n      0xffffffffffffffffffffffffffffffffffffffff\n      and\n      0xffffffffffffffffffffffffffffffffffffffff\n      and\n      dup2\n      mstore\n      0x20\n      add\n      swap1\n      dup2\n      mstore\n      0x20\n      add\n      0x00\n      keccak256\n        /* \"TimeAlly.sol\":41035:41045  _stakingId */\n      dup13\n        /* \"TimeAlly.sol\":41012:41046  stakings[_userAddress][_stakingId] */\n      dup2\n      sload\n      dup2\n      lt\n      tag_330\n      jumpi\n      invalid\n    tag_330:\n      swap1\n      0x00\n      mstore\n      keccak256(0x00, 0x20)\n      swap1\n      0x09\n      mul\n      add\n        /* \"TimeAlly.sol\":41012:41058  stakings[_userAddress][_stakingId].exaEsAmount */\n      0x00\n      add\n      sload\n        /* \"TimeAlly.sol\":41012:41081  stakings[_userAddress][_stakingId].exaEsAmount... */\n      tag_177\n      swap1\n        /* \"TimeAlly.sol\":41012:41160  stakings[_userAddress][_stakingId].exaEsAmount... */\n      swap2\n      swap1\n      0xffffffff\n      and\n      jump\t// in\n    tag_325:\n        /* \"TimeAlly.sol\":41012:41183  stakings[_userAddress][_stakingId].exaEsAmount... */\n      tag_237\n      swap1\n        /* \"TimeAlly.sol\":41012:41187  stakings[_userAddress][_stakingId].exaEsAmount... */\n      swap2\n      swap1\n      0xffffffff\n      and\n      jump\t// in\n    tag_324:\n        /* \"TimeAlly.sol\":40985:41187  uint256 _effectiveAmount = stakings[_userAddress][_stakingId].exaEsAmount... */\n      swap1\n      pop\n        /* \"TimeAlly.sol\":41205:41228  uint256 _monthlyBenefit */\n      0x00\n        /* \"TimeAlly.sol\":41231:41388  _effectiveAmount... */\n      tag_332\n        /* \"TimeAlly.sol\":41365:41384  totalActiveStakings */\n      0x0a\n        /* \"TimeAlly.sol\":41365:41387  totalActiveStakings[i] */\n      0x00\n        /* \"TimeAlly.sol\":41385:41386  i */\n      dup6\n        /* \"TimeAlly.sol\":41365:41387  totalActiveStakings[i] */\n      dup2\n      mstore\n      0x20\n      add\n      swap1\n      dup2\n      mstore\n      0x20\n      add\n      0x00\n      keccak256\n      sload\n        /* \"TimeAlly.sol\":41231:41317  _effectiveAmount... */\n      tag_333\n        /* \"TimeAlly.sol\":41295:41313  timeAllyMonthlyNRT */\n      0x0b\n        /* \"TimeAlly.sol\":41314:41315  i */\n      dup7\n        /* \"TimeAlly.sol\":41295:41316  timeAllyMonthlyNRT[i] */\n      dup2\n      sload\n      dup2\n      lt\n      tag_334\n      jumpi\n      invalid\n    tag_334:\n      swap1\n      0x00\n      mstore\n      keccak256(0x00, 0x20)\n      add\n      sload\n        /* \"TimeAlly.sol\":41231:41247  _effectiveAmount */\n      dup6\n        /* \"TimeAlly.sol\":41231:41294  _effectiveAmount... */\n      tag_177\n      swap1\n        /* \"TimeAlly.sol\":41231:41317  _effectiveAmount... */\n      swap2\n      swap1\n      0xffffffff\n      and\n      jump\t// in\n    tag_333:\n        /* \"TimeAlly.sol\":41231:41364  _effectiveAmount... */\n      tag_237\n      swap1\n        /* \"TimeAlly.sol\":41231:41388  _effectiveAmount... */\n      swap2\n      swap1\n      0xffffffff\n      and\n      jump\t// in\n    tag_332:\n        /* \"TimeAlly.sol\":41205:41388  uint256 _monthlyBenefit = _effectiveAmount... */\n      swap1\n      pop\n        /* \"TimeAlly.sol\":41438:41495  _pendingLiquidAmountInStaking.add(_monthlyBenefit.div(2)) */\n      tag_336\n        /* \"TimeAlly.sol\":41472:41494  _monthlyBenefit.div(2) */\n      tag_337\n        /* \"TimeAlly.sol\":41492:41493  2 */\n      0x02\n        /* \"TimeAlly.sol\":41472:41487  _monthlyBenefit */\n      dup4\n        /* \"TimeAlly.sol\":41472:41491  _monthlyBenefit.div */\n      tag_237\n      swap1\n        /* \"TimeAlly.sol\":41472:41494  _monthlyBenefit.div(2) */\n      swap2\n      swap1\n      0xffffffff\n      and\n      jump\t// in\n    tag_337:\n        /* \"TimeAlly.sol\":41438:41467  _pendingLiquidAmountInStaking */\n      dup8\n        /* \"TimeAlly.sol\":41438:41471  _pendingLiquidAmountInStaking.add */\n      tag_199\n      swap1\n        /* \"TimeAlly.sol\":41438:41495  _pendingLiquidAmountInStaking.add(_monthlyBenefit.div(2)) */\n      swap2\n      swap1\n      0xffffffff\n      and\n      jump\t// in\n    tag_336:\n        /* \"TimeAlly.sol\":41406:41495  _pendingLiquidAmountInStaking = _pendingLiquidAmountInStaking.add(_monthlyBenefit.div(2)) */\n      swap6\n      pop\n        /* \"TimeAlly.sol\":41546:41604  _pendingAccruedAmountInStaking.add(_monthlyBenefit.div(2)) */\n      tag_338\n        /* \"TimeAlly.sol\":41581:41603  _monthlyBenefit.div(2) */\n      tag_339\n        /* \"TimeAlly.sol\":41601:41602  2 */\n      0x02\n        /* \"TimeAlly.sol\":41581:41596  _monthlyBenefit */\n      dup4\n        /* \"TimeAlly.sol\":41581:41600  _monthlyBenefit.div */\n      tag_237\n      swap1\n        /* \"TimeAlly.sol\":41581:41603  _monthlyBenefit.div(2) */\n      swap2\n      swap1\n      0xffffffff\n      and\n      jump\t// in\n    tag_339:\n        /* \"TimeAlly.sol\":41546:41576  _pendingAccruedAmountInStaking */\n      dup7\n        /* \"TimeAlly.sol\":41546:41580  _pendingAccruedAmountInStaking.add */\n      tag_199\n      swap1\n        /* \"TimeAlly.sol\":41546:41604  _pendingAccruedAmountInStaking.add(_monthlyBenefit.div(2)) */\n      swap2\n      swap1\n      0xffffffff\n      and\n      jump\t// in\n    tag_338:\n        /* \"TimeAlly.sol\":41513:41604  _pendingAccruedAmountInStaking = _pendingAccruedAmountInStaking.add(_monthlyBenefit.div(2)) */\n      swap5\n      pop\n        /* \"TimeAlly.sol\":40908:41619  if( stakings[_userAddress][_stakingId].isMonthClaimed[i] ) {... */\n      pop\n      pop\n    tag_323:\n        /* \"TimeAlly.sol\":40880:40883  i++ */\n      dup1\n      dup1\n      0x01\n      add\n      swap2\n      pop\n      pop\n        /* \"TimeAlly.sol\":40742:41629  for(... */\n      jump(tag_316)\n    tag_317:\n      pop\n        /* \"TimeAlly.sol\":41909:41910  0 */\n      0x00\n        /* \"TimeAlly.sol\":41849:41857  stakings */\n      0x07\n        /* \"TimeAlly.sol\":41849:41871  stakings[_userAddress] */\n      0x00\n        /* \"TimeAlly.sol\":41858:41870  _userAddress */\n      dup10\n        /* \"TimeAlly.sol\":41849:41871  stakings[_userAddress] */\n      0xffffffffffffffffffffffffffffffffffffffff\n      and\n      0xffffffffffffffffffffffffffffffffffffffff\n      and\n      dup2\n      mstore\n      0x20\n      add\n      swap1\n      dup2\n      mstore\n      0x20\n      add\n      0x00\n      keccak256\n        /* \"TimeAlly.sol\":41872:41882  _stakingId */\n      dup8\n        /* \"TimeAlly.sol\":41849:41883  stakings[_userAddress][_stakingId] */\n      dup2\n      sload\n      dup2\n      lt\n      tag_340\n      jumpi\n      invalid\n    tag_340:\n      swap1\n      0x00\n      mstore\n      keccak256(0x00, 0x20)\n      swap1\n      0x09\n      mul\n      add\n        /* \"TimeAlly.sol\":41849:41894  stakings[_userAddress][_stakingId].nomination */\n      0x08\n      add\n        /* \"TimeAlly.sol\":41849:41906  stakings[_userAddress][_stakingId].nomination[msg.sender] */\n      0x00\n        /* \"TimeAlly.sol\":41895:41905  msg.sender */\n      caller\n        /* \"TimeAlly.sol\":41849:41906  stakings[_userAddress][_stakingId].nomination[msg.sender] */\n      0xffffffffffffffffffffffffffffffffffffffff\n      and\n      0xffffffffffffffffffffffffffffffffffffffff\n      and\n      dup2\n      mstore\n      0x20\n      add\n      swap1\n      dup2\n      mstore\n      0x20\n      add\n      0x00\n      keccak256\n        /* \"TimeAlly.sol\":41849:41910  stakings[_userAddress][_stakingId].nomination[msg.sender] = 0 */\n      dup2\n      swap1\n      sstore\n      pop\n        /* \"TimeAlly.sol\":41921:41948  uint256 _nomineeLiquidShare */\n      0x00\n        /* \"TimeAlly.sol\":41951:42144  _pendingLiquidAmountInStaking... */\n      tag_342\n        /* \"TimeAlly.sol\":42087:42095  stakings */\n      0x07\n        /* \"TimeAlly.sol\":42087:42109  stakings[_userAddress] */\n      0x00\n        /* \"TimeAlly.sol\":42096:42108  _userAddress */\n      dup11\n        /* \"TimeAlly.sol\":42087:42109  stakings[_userAddress] */\n      0xffffffffffffffffffffffffffffffffffffffff\n      and\n      0xffffffffffffffffffffffffffffffffffffffff\n      and\n      dup2\n      mstore\n      0x20\n      add\n      swap1\n      dup2\n      mstore\n      0x20\n      add\n      0x00\n      keccak256\n        /* \"TimeAlly.sol\":42110:42120  _stakingId */\n      dup9\n        /* \"TimeAlly.sol\":42087:42121  stakings[_userAddress][_stakingId] */\n      dup2\n      sload\n      dup2\n      lt\n      tag_343\n      jumpi\n      invalid\n    tag_343:\n      swap1\n      0x00\n      mstore\n      keccak256(0x00, 0x20)\n      swap1\n      0x09\n      mul\n      add\n        /* \"TimeAlly.sol\":42087:42143  stakings[_userAddress][_stakingId].totalNominationShares */\n      0x06\n      add\n      sload\n        /* \"TimeAlly.sol\":41951:42041  _pendingLiquidAmountInStaking... */\n      tag_345\n        /* \"TimeAlly.sol\":42026:42040  _nomineeShares */\n      dup8\n        /* \"TimeAlly.sol\":41951:41980  _pendingLiquidAmountInStaking */\n      dup8\n        /* \"TimeAlly.sol\":41951:42025  _pendingLiquidAmountInStaking... */\n      tag_177\n      swap1\n        /* \"TimeAlly.sol\":41951:42041  _pendingLiquidAmountInStaking... */\n      swap2\n      swap1\n      0xffffffff\n      and\n      jump\t// in\n    tag_345:\n        /* \"TimeAlly.sol\":41951:42086  _pendingLiquidAmountInStaking... */\n      tag_237\n      swap1\n        /* \"TimeAlly.sol\":41951:42144  _pendingLiquidAmountInStaking... */\n      swap2\n      swap1\n      0xffffffff\n      and\n      jump\t// in\n    tag_342:\n        /* \"TimeAlly.sol\":41921:42144  uint256 _nomineeLiquidShare = _pendingLiquidAmountInStaking... */\n      swap1\n      pop\n        /* \"TimeAlly.sol\":42154:42159  token */\n      0x02\n      0x00\n      swap1\n      sload\n      swap1\n      0x0100\n      exp\n      swap1\n      div\n      0xffffffffffffffffffffffffffffffffffffffff\n      and\n        /* \"TimeAlly.sol\":42154:42168  token.transfer */\n      0xffffffffffffffffffffffffffffffffffffffff\n      and\n      0xa9059cbb\n        /* \"TimeAlly.sol\":42169:42179  msg.sender */\n      caller\n        /* \"TimeAlly.sol\":42181:42200  _nomineeLiquidShare */\n      dup4\n        /* \"TimeAlly.sol\":42154:42201  token.transfer(msg.sender, _nomineeLiquidShare) */\n      mload(0x40)\n      dup4\n      0xffffffff\n      and\n      0xe0\n      shl\n      dup2\n      mstore\n      0x04\n      add\n      dup1\n      dup4\n      0xffffffffffffffffffffffffffffffffffffffff\n      and\n      0xffffffffffffffffffffffffffffffffffffffff\n      and\n      dup2\n      mstore\n      0x20\n      add\n      dup3\n      dup2\n      mstore\n      0x20\n      add\n      swap3\n      pop\n      pop\n      pop\n      0x20\n      mload(0x40)\n      dup1\n      dup4\n      sub\n      dup2\n      0x00\n      dup8\n      dup1\n      extcodesize\n      iszero\n        /* \"--CODEGEN--\":8:17   */\n      dup1\n        /* \"--CODEGEN--\":5:7   */\n      iszero\n      tag_346\n      jumpi\n        /* \"--CODEGEN--\":30:31   */\n      0x00\n        /* \"--CODEGEN--\":27:28   */\n      dup1\n        /* \"--CODEGEN--\":20:32   */\n      revert\n        /* \"--CODEGEN--\":5:7   */\n    tag_346:\n        /* \"TimeAlly.sol\":42154:42201  token.transfer(msg.sender, _nomineeLiquidShare) */\n      pop\n      gas\n      call\n      iszero\n        /* \"--CODEGEN--\":8:17   */\n      dup1\n        /* \"--CODEGEN--\":5:7   */\n      iszero\n      tag_347\n      jumpi\n        /* \"--CODEGEN--\":45:61   */\n      returndatasize\n        /* \"--CODEGEN--\":42:43   */\n      0x00\n        /* \"--CODEGEN--\":39:40   */\n      dup1\n        /* \"--CODEGEN--\":24:62   */\n      returndatacopy\n        /* \"--CODEGEN--\":77:93   */\n      returndatasize\n        /* \"--CODEGEN--\":74:75   */\n      0x00\n        /* \"--CODEGEN--\":67:94   */\n      revert\n        /* \"--CODEGEN--\":5:7   */\n    tag_347:\n        /* \"TimeAlly.sol\":42154:42201  token.transfer(msg.sender, _nomineeLiquidShare) */\n      pop\n      pop\n      pop\n      pop\n      mload(0x40)\n      returndatasize\n        /* \"--CODEGEN--\":13:15   */\n      0x20\n        /* \"--CODEGEN--\":8:11   */\n      dup2\n        /* \"--CODEGEN--\":5:16   */\n      lt\n        /* \"--CODEGEN--\":2:4   */\n      iszero\n      tag_348\n      jumpi\n        /* \"--CODEGEN--\":29:30   */\n      0x00\n        /* \"--CODEGEN--\":26:27   */\n      dup1\n        /* \"--CODEGEN--\":19:31   */\n      revert\n        /* \"--CODEGEN--\":2:4   */\n    tag_348:\n        /* \"TimeAlly.sol\":42154:42201  token.transfer(msg.sender, _nomineeLiquidShare) */\n      dup2\n      add\n      swap1\n      dup1\n      dup1\n      mload\n      swap1\n      0x20\n      add\n      swap1\n      swap3\n      swap2\n      swap1\n      pop\n      pop\n      pop\n      pop\n        /* \"TimeAlly.sol\":42212:42240  uint256 _nomineeAccruedShare */\n      0x00\n        /* \"TimeAlly.sol\":42243:42441  _pendingAccruedAmountInStaking... */\n      tag_349\n        /* \"TimeAlly.sol\":42384:42392  stakings */\n      0x07\n        /* \"TimeAlly.sol\":42384:42406  stakings[_userAddress] */\n      0x00\n        /* \"TimeAlly.sol\":42393:42405  _userAddress */\n      dup12\n        /* \"TimeAlly.sol\":42384:42406  stakings[_userAddress] */\n      0xffffffffffffffffffffffffffffffffffffffff\n      and\n      0xffffffffffffffffffffffffffffffffffffffff\n      and\n      dup2\n      mstore\n      0x20\n      add\n      swap1\n      dup2\n      mstore\n      0x20\n      add\n      0x00\n      keccak256\n        /* \"TimeAlly.sol\":42407:42417  _stakingId */\n      dup10\n        /* \"TimeAlly.sol\":42384:42418  stakings[_userAddress][_stakingId] */\n      dup2\n      sload\n      dup2\n      lt\n      tag_350\n      jumpi\n      invalid\n    tag_350:\n      swap1\n      0x00\n      mstore\n      keccak256(0x00, 0x20)\n      swap1\n      0x09\n      mul\n      add\n        /* \"TimeAlly.sol\":42384:42440  stakings[_userAddress][_stakingId].totalNominationShares */\n      0x06\n      add\n      sload\n        /* \"TimeAlly.sol\":42243:42336  _pendingAccruedAmountInStaking... */\n      tag_352\n        /* \"TimeAlly.sol\":42321:42335  _nomineeShares */\n      dup9\n        /* \"TimeAlly.sol\":42243:42273  _pendingAccruedAmountInStaking */\n      dup8\n        /* \"TimeAlly.sol\":42243:42320  _pendingAccruedAmountInStaking... */\n      tag_177\n      swap1\n        /* \"TimeAlly.sol\":42243:42336  _pendingAccruedAmountInStaking... */\n      swap2\n      swap1\n      0xffffffff\n      and\n      jump\t// in\n    tag_352:\n        /* \"TimeAlly.sol\":42243:42383  _pendingAccruedAmountInStaking... */\n      tag_237\n      swap1\n        /* \"TimeAlly.sol\":42243:42441  _pendingAccruedAmountInStaking... */\n      swap2\n      swap1\n      0xffffffff\n      and\n      jump\t// in\n    tag_349:\n        /* \"TimeAlly.sol\":42212:42441  uint256 _nomineeAccruedShare = _pendingAccruedAmountInStaking... */\n      swap1\n      pop\n        /* \"TimeAlly.sol\":42478:42528  launchReward[msg.sender].add(_nomineeAccruedShare) */\n      tag_353\n        /* \"TimeAlly.sol\":42507:42527  _nomineeAccruedShare */\n      dup2\n        /* \"TimeAlly.sol\":42478:42490  launchReward */\n      0x09\n        /* \"TimeAlly.sol\":42478:42502  launchReward[msg.sender] */\n      0x00\n        /* \"TimeAlly.sol\":42491:42501  msg.sender */\n      caller\n        /* \"TimeAlly.sol\":42478:42502  launchReward[msg.sender] */\n      0xffffffffffffffffffffffffffffffffffffffff\n      and\n      0xffffffffffffffffffffffffffffffffffffffff\n      and\n      dup2\n      mstore\n      0x20\n      add\n      swap1\n      dup2\n      mstore\n      0x20\n      add\n      0x00\n      keccak256\n      sload\n        /* \"TimeAlly.sol\":42478:42506  launchReward[msg.sender].add */\n      tag_199\n      swap1\n        /* \"TimeAlly.sol\":42478:42528  launchReward[msg.sender].add(_nomineeAccruedShare) */\n      swap2\n      swap1\n      0xffffffff\n      and\n      jump\t// in\n    tag_353:\n        /* \"TimeAlly.sol\":42451:42463  launchReward */\n      0x09\n        /* \"TimeAlly.sol\":42451:42475  launchReward[msg.sender] */\n      0x00\n        /* \"TimeAlly.sol\":42464:42474  msg.sender */\n      caller\n        /* \"TimeAlly.sol\":42451:42475  launchReward[msg.sender] */\n      0xffffffffffffffffffffffffffffffffffffffff\n      and\n      0xffffffffffffffffffffffffffffffffffffffff\n      and\n      dup2\n      mstore\n      0x20\n      add\n      swap1\n      dup2\n      mstore\n      0x20\n      add\n      0x00\n      keccak256\n        /* \"TimeAlly.sol\":42451:42528  launchReward[msg.sender] = launchReward[msg.sender].add(_nomineeAccruedShare) */\n      dup2\n      swap1\n      sstore\n      pop\n        /* \"TimeAlly.sol\":42610:42620  msg.sender */\n      caller\n        /* \"TimeAlly.sol\":42568:42664  NomineeWithdraw(_userAddress, _stakingId, msg.sender, _nomineeLiquidShare, _nomineeAccruedShare) */\n      0xffffffffffffffffffffffffffffffffffffffff\n      and\n        /* \"TimeAlly.sol\":42598:42608  _stakingId */\n      dup9\n        /* \"TimeAlly.sol\":42584:42596  _userAddress */\n      dup11\n        /* \"TimeAlly.sol\":42568:42664  NomineeWithdraw(_userAddress, _stakingId, msg.sender, _nomineeLiquidShare, _nomineeAccruedShare) */\n      0xffffffffffffffffffffffffffffffffffffffff\n      and\n      0xa54cec59552c7f022eed79ede59f759697aa5787f43b11d61f17bfc5adaffb65\n        /* \"TimeAlly.sol\":42622:42641  _nomineeLiquidShare */\n      dup6\n        /* \"TimeAlly.sol\":42643:42663  _nomineeAccruedShare */\n      dup6\n        /* \"TimeAlly.sol\":42568:42664  NomineeWithdraw(_userAddress, _stakingId, msg.sender, _nomineeLiquidShare, _nomineeAccruedShare) */\n      mload(0x40)\n      dup1\n      dup4\n      dup2\n      mstore\n      0x20\n      add\n      dup3\n      dup2\n      mstore\n      0x20\n      add\n      swap3\n      pop\n      pop\n      pop\n      mload(0x40)\n      dup1\n      swap2\n      sub\n      swap1\n      log4\n        /* \"TimeAlly.sol\":39329:42671  function nomineeWithdraw(address _userAddress, uint256 _stakingId) public {... */\n      pop\n      pop\n      pop\n      pop\n      pop\n      pop\n      pop\n      pop\n      pop\n      jump\t// out\n        /* \"TimeAlly.sol\":2309:2348  mapping(address => Loan[]) public loans */\n    tag_105:\n      mstore(0x20, 0x08)\n      dup2\n      0x00\n      mstore\n      keccak256(0x00, 0x40)\n      dup2\n      dup2\n      sload\n      dup2\n      lt\n      tag_354\n      jumpi\n      invalid\n    tag_354:\n      swap1\n      0x00\n      mstore\n      keccak256(0x00, 0x20)\n      swap1\n      0x05\n      mul\n      add\n      0x00\n      swap2\n      pop\n      swap2\n      pop\n      pop\n      dup1\n      0x00\n      add\n      sload\n      swap1\n      dup1\n      0x01\n      add\n      sload\n      swap1\n      dup1\n      0x02\n      add\n      sload\n      swap1\n      dup1\n      0x03\n      add\n      sload\n      swap1\n      pop\n      dup5\n      jump\t// out\n        /* \"TimeAlly.sol\":21921:23340  function withdrawBenefitOfAStakingByMonths(... */\n    tag_111:\n        /* \"TimeAlly.sol\":22049:22076  uint256 _benefitOfAllMonths */\n      0x00\n        /* \"TimeAlly.sol\":22090:22099  uint256 i */\n      dup1\n        /* \"TimeAlly.sol\":22102:22103  0 */\n      0x00\n        /* \"TimeAlly.sol\":22090:22103  uint256 i = 0 */\n      swap1\n      pop\n        /* \"TimeAlly.sol\":22086:22731  for(uint256 i = 0; i < _months.length; i++) {... */\n    tag_357:\n        /* \"TimeAlly.sol\":22109:22116  _months */\n      dup3\n        /* \"TimeAlly.sol\":22109:22123  _months.length */\n      mload\n        /* \"TimeAlly.sol\":22105:22106  i */\n      dup2\n        /* \"TimeAlly.sol\":22105:22123  i < _months.length */\n      lt\n        /* \"TimeAlly.sol\":22086:22731  for(uint256 i = 0; i < _months.length; i++) {... */\n      iszero\n      tag_358\n      jumpi\n        /* \"TimeAlly.sol\":22167:22218  isStakingActive(msg.sender, _stakingId, _months[i]) */\n      tag_360\n        /* \"TimeAlly.sol\":22183:22193  msg.sender */\n      caller\n        /* \"TimeAlly.sol\":22195:22205  _stakingId */\n      dup6\n        /* \"TimeAlly.sol\":22207:22214  _months */\n      dup6\n        /* \"TimeAlly.sol\":22215:22216  i */\n      dup5\n        /* \"TimeAlly.sol\":22207:22217  _months[i] */\n      dup2\n      mload\n      dup2\n      lt\n      tag_361\n      jumpi\n      invalid\n    tag_361:\n      0x20\n      mul\n      0x20\n      add\n      add\n      mload\n        /* \"TimeAlly.sol\":22167:22182  isStakingActive */\n      tag_138\n        /* \"TimeAlly.sol\":22167:22218  isStakingActive(msg.sender, _stakingId, _months[i]) */\n      jump\t// in\n    tag_360:\n        /* \"TimeAlly.sol\":22167:22296  isStakingActive(msg.sender, _stakingId, _months[i])... */\n      dup1\n      iszero\n      tag_362\n      jumpi\n      pop\n        /* \"TimeAlly.sol\":22237:22245  stakings */\n      0x07\n        /* \"TimeAlly.sol\":22237:22257  stakings[msg.sender] */\n      0x00\n        /* \"TimeAlly.sol\":22246:22256  msg.sender */\n      caller\n        /* \"TimeAlly.sol\":22237:22257  stakings[msg.sender] */\n      0xffffffffffffffffffffffffffffffffffffffff\n      and\n      0xffffffffffffffffffffffffffffffffffffffff\n      and\n      dup2\n      mstore\n      0x20\n      add\n      swap1\n      dup2\n      mstore\n      0x20\n      add\n      0x00\n      keccak256\n        /* \"TimeAlly.sol\":22258:22268  _stakingId */\n      dup5\n        /* \"TimeAlly.sol\":22237:22269  stakings[msg.sender][_stakingId] */\n      dup2\n      sload\n      dup2\n      lt\n      tag_363\n      jumpi\n      invalid\n    tag_363:\n      swap1\n      0x00\n      mstore\n      keccak256(0x00, 0x20)\n      swap1\n      0x09\n      mul\n      add\n        /* \"TimeAlly.sol\":22237:22284  stakings[msg.sender][_stakingId].isMonthClaimed */\n      0x07\n      add\n        /* \"TimeAlly.sol\":22237:22296  stakings[msg.sender][_stakingId].isMonthClaimed[_months[i]] */\n      0x00\n        /* \"TimeAlly.sol\":22285:22292  _months */\n      dup5\n        /* \"TimeAlly.sol\":22293:22294  i */\n      dup4\n        /* \"TimeAlly.sol\":22285:22295  _months[i] */\n      dup2\n      mload\n      dup2\n      lt\n      tag_365\n      jumpi\n      invalid\n    tag_365:\n      0x20\n      mul\n      0x20\n      add\n      add\n      mload\n        /* \"TimeAlly.sol\":22237:22296  stakings[msg.sender][_stakingId].isMonthClaimed[_months[i]] */\n      dup2\n      mstore\n      0x20\n      add\n      swap1\n      dup2\n      mstore\n      0x20\n      add\n      0x00\n      keccak256\n      0x00\n      swap1\n      sload\n      swap1\n      0x0100\n      exp\n      swap1\n      div\n      0xff\n      and\n        /* \"TimeAlly.sol\":22236:22296  !stakings[msg.sender][_stakingId].isMonthClaimed[_months[i]] */\n      iszero\n        /* \"TimeAlly.sol\":22167:22296  isStakingActive(msg.sender, _stakingId, _months[i])... */\n    tag_362:\n        /* \"TimeAlly.sol\":22144:22354  require(... */\n      tag_366\n      jumpi\n      0x00\n      dup1\n      revert\n    tag_366:\n        /* \"TimeAlly.sol\":22368:22384  uint256 _benefit */\n      0x00\n        /* \"TimeAlly.sol\":22387:22570  stakings[msg.sender][_stakingId].exaEsAmount... */\n      tag_367\n        /* \"TimeAlly.sol\":22536:22555  totalActiveStakings */\n      0x0a\n        /* \"TimeAlly.sol\":22536:22569  totalActiveStakings[ _months[i] ] */\n      0x00\n        /* \"TimeAlly.sol\":22557:22564  _months */\n      dup7\n        /* \"TimeAlly.sol\":22565:22566  i */\n      dup6\n        /* \"TimeAlly.sol\":22557:22567  _months[i] */\n      dup2\n      mload\n      dup2\n      lt\n      tag_368\n      jumpi\n      invalid\n    tag_368:\n      0x20\n      mul\n      0x20\n      add\n      add\n      mload\n        /* \"TimeAlly.sol\":22536:22569  totalActiveStakings[ _months[i] ] */\n      dup2\n      mstore\n      0x20\n      add\n      swap1\n      dup2\n      mstore\n      0x20\n      add\n      0x00\n      keccak256\n      sload\n        /* \"TimeAlly.sol\":22387:22500  stakings[msg.sender][_stakingId].exaEsAmount... */\n      tag_369\n        /* \"TimeAlly.sol\":22467:22485  timeAllyMonthlyNRT */\n      0x0b\n        /* \"TimeAlly.sol\":22487:22494  _months */\n      dup8\n        /* \"TimeAlly.sol\":22495:22496  i */\n      dup7\n        /* \"TimeAlly.sol\":22487:22497  _months[i] */\n      dup2\n      mload\n      dup2\n      lt\n      tag_370\n      jumpi\n      invalid\n    tag_370:\n      0x20\n      mul\n      0x20\n      add\n      add\n      mload\n        /* \"TimeAlly.sol\":22467:22499  timeAllyMonthlyNRT[ _months[i] ] */\n      dup2\n      sload\n      dup2\n      lt\n      tag_371\n      jumpi\n      invalid\n    tag_371:\n      swap1\n      0x00\n      mstore\n      keccak256(0x00, 0x20)\n      add\n      sload\n        /* \"TimeAlly.sol\":22387:22395  stakings */\n      0x07\n        /* \"TimeAlly.sol\":22387:22407  stakings[msg.sender] */\n      0x00\n        /* \"TimeAlly.sol\":22396:22406  msg.sender */\n      caller\n        /* \"TimeAlly.sol\":22387:22407  stakings[msg.sender] */\n      0xffffffffffffffffffffffffffffffffffffffff\n      and\n      0xffffffffffffffffffffffffffffffffffffffff\n      and\n      dup2\n      mstore\n      0x20\n      add\n      swap1\n      dup2\n      mstore\n      0x20\n      add\n      0x00\n      keccak256\n        /* \"TimeAlly.sol\":22408:22418  _stakingId */\n      dup10\n        /* \"TimeAlly.sol\":22387:22419  stakings[msg.sender][_stakingId] */\n      dup2\n      sload\n      dup2\n      lt\n      tag_373\n      jumpi\n      invalid\n    tag_373:\n      swap1\n      0x00\n      mstore\n      keccak256(0x00, 0x20)\n      swap1\n      0x09\n      mul\n      add\n        /* \"TimeAlly.sol\":22387:22431  stakings[msg.sender][_stakingId].exaEsAmount */\n      0x00\n      add\n      sload\n        /* \"TimeAlly.sol\":22387:22466  stakings[msg.sender][_stakingId].exaEsAmount... */\n      tag_177\n      swap1\n        /* \"TimeAlly.sol\":22387:22500  stakings[msg.sender][_stakingId].exaEsAmount... */\n      swap2\n      swap1\n      0xffffffff\n      and\n      jump\t// in\n    tag_369:\n        /* \"TimeAlly.sol\":22387:22535  stakings[msg.sender][_stakingId].exaEsAmount... */\n      tag_237\n      swap1\n        /* \"TimeAlly.sol\":22387:22570  stakings[msg.sender][_stakingId].exaEsAmount... */\n      swap2\n      swap1\n      0xffffffff\n      and\n      jump\t// in\n    tag_367:\n        /* \"TimeAlly.sol\":22368:22570  uint256 _benefit = stakings[msg.sender][_stakingId].exaEsAmount... */\n      swap1\n      pop\n        /* \"TimeAlly.sol\":22607:22640  _benefitOfAllMonths.add(_benefit) */\n      tag_375\n        /* \"TimeAlly.sol\":22631:22639  _benefit */\n      dup2\n        /* \"TimeAlly.sol\":22607:22626  _benefitOfAllMonths */\n      dup5\n        /* \"TimeAlly.sol\":22607:22630  _benefitOfAllMonths.add */\n      tag_199\n      swap1\n        /* \"TimeAlly.sol\":22607:22640  _benefitOfAllMonths.add(_benefit) */\n      swap2\n      swap1\n      0xffffffff\n      and\n      jump\t// in\n    tag_375:\n        /* \"TimeAlly.sol\":22585:22640  _benefitOfAllMonths = _benefitOfAllMonths.add(_benefit) */\n      swap3\n      pop\n        /* \"TimeAlly.sol\":22716:22720  true */\n      0x01\n        /* \"TimeAlly.sol\":22654:22662  stakings */\n      0x07\n        /* \"TimeAlly.sol\":22654:22674  stakings[msg.sender] */\n      0x00\n        /* \"TimeAlly.sol\":22663:22673  msg.sender */\n      caller\n        /* \"TimeAlly.sol\":22654:22674  stakings[msg.sender] */\n      0xffffffffffffffffffffffffffffffffffffffff\n      and\n      0xffffffffffffffffffffffffffffffffffffffff\n      and\n      dup2\n      mstore\n      0x20\n      add\n      swap1\n      dup2\n      mstore\n      0x20\n      add\n      0x00\n      keccak256\n        /* \"TimeAlly.sol\":22675:22685  _stakingId */\n      dup7\n        /* \"TimeAlly.sol\":22654:22686  stakings[msg.sender][_stakingId] */\n      dup2\n      sload\n      dup2\n      lt\n      tag_376\n      jumpi\n      invalid\n    tag_376:\n      swap1\n      0x00\n      mstore\n      keccak256(0x00, 0x20)\n      swap1\n      0x09\n      mul\n      add\n        /* \"TimeAlly.sol\":22654:22701  stakings[msg.sender][_stakingId].isMonthClaimed */\n      0x07\n      add\n        /* \"TimeAlly.sol\":22654:22713  stakings[msg.sender][_stakingId].isMonthClaimed[_months[i]] */\n      0x00\n        /* \"TimeAlly.sol\":22702:22709  _months */\n      dup7\n        /* \"TimeAlly.sol\":22710:22711  i */\n      dup6\n        /* \"TimeAlly.sol\":22702:22712  _months[i] */\n      dup2\n      mload\n      dup2\n      lt\n      tag_378\n      jumpi\n      invalid\n    tag_378:\n      0x20\n      mul\n      0x20\n      add\n      add\n      mload\n        /* \"TimeAlly.sol\":22654:22713  stakings[msg.sender][_stakingId].isMonthClaimed[_months[i]] */\n      dup2\n      mstore\n      0x20\n      add\n      swap1\n      dup2\n      mstore\n      0x20\n      add\n      0x00\n      keccak256\n      0x00\n        /* \"TimeAlly.sol\":22654:22720  stakings[msg.sender][_stakingId].isMonthClaimed[_months[i]] = true */\n      0x0100\n      exp\n      dup2\n      sload\n      dup2\n      0xff\n      mul\n      not\n      and\n      swap1\n      dup4\n      iszero\n      iszero\n      mul\n      or\n      swap1\n      sstore\n      pop\n        /* \"TimeAlly.sol\":22086:22731  for(uint256 i = 0; i < _months.length; i++) {... */\n      pop\n        /* \"TimeAlly.sol\":22125:22128  i++ */\n      dup1\n      dup1\n      0x01\n      add\n      swap2\n      pop\n      pop\n        /* \"TimeAlly.sol\":22086:22731  for(uint256 i = 0; i < _months.length; i++) {... */\n      jump(tag_357)\n    tag_358:\n      pop\n        /* \"TimeAlly.sol\":22741:22758  uint256 _luckPool */\n      0x00\n        /* \"TimeAlly.sol\":22761:22940  _benefitOfAllMonths... */\n      tag_379\n        /* \"TimeAlly.sol\":22936:22938  15 */\n      0x0f\n        /* \"TimeAlly.sol\":22761:22905  _benefitOfAllMonths... */\n      tag_380\n        /* \"TimeAlly.sol\":22811:22903  uint256(15).sub(stakingPlans[stakings[msg.sender][_stakingId].stakingPlanId].fractionFrom15) */\n      tag_381\n        /* \"TimeAlly.sol\":22827:22839  stakingPlans */\n      0x05\n        /* \"TimeAlly.sol\":22840:22848  stakings */\n      0x07\n        /* \"TimeAlly.sol\":22840:22860  stakings[msg.sender] */\n      0x00\n        /* \"TimeAlly.sol\":22849:22859  msg.sender */\n      caller\n        /* \"TimeAlly.sol\":22840:22860  stakings[msg.sender] */\n      0xffffffffffffffffffffffffffffffffffffffff\n      and\n      0xffffffffffffffffffffffffffffffffffffffff\n      and\n      dup2\n      mstore\n      0x20\n      add\n      swap1\n      dup2\n      mstore\n      0x20\n      add\n      0x00\n      keccak256\n        /* \"TimeAlly.sol\":22861:22871  _stakingId */\n      dup10\n        /* \"TimeAlly.sol\":22840:22872  stakings[msg.sender][_stakingId] */\n      dup2\n      sload\n      dup2\n      lt\n      tag_382\n      jumpi\n      invalid\n    tag_382:\n      swap1\n      0x00\n      mstore\n      keccak256(0x00, 0x20)\n      swap1\n      0x09\n      mul\n      add\n        /* \"TimeAlly.sol\":22840:22886  stakings[msg.sender][_stakingId].stakingPlanId */\n      0x03\n      add\n      sload\n        /* \"TimeAlly.sol\":22827:22887  stakingPlans[stakings[msg.sender][_stakingId].stakingPlanId] */\n      dup2\n      sload\n      dup2\n      lt\n      tag_384\n      jumpi\n      invalid\n    tag_384:\n      swap1\n      0x00\n      mstore\n      keccak256(0x00, 0x20)\n      swap1\n      0x03\n      mul\n      add\n        /* \"TimeAlly.sol\":22827:22902  stakingPlans[stakings[msg.sender][_stakingId].stakingPlanId].fractionFrom15 */\n      0x01\n      add\n      sload\n        /* \"TimeAlly.sol\":22819:22821  15 */\n      0x0f\n        /* \"TimeAlly.sol\":22811:22826  uint256(15).sub */\n      tag_205\n      swap1\n        /* \"TimeAlly.sol\":22811:22903  uint256(15).sub(stakingPlans[stakings[msg.sender][_stakingId].stakingPlanId].fractionFrom15) */\n      swap2\n      swap1\n      0xffffffff\n      and\n      jump\t// in\n    tag_381:\n        /* \"TimeAlly.sol\":22761:22780  _benefitOfAllMonths */\n      dup6\n        /* \"TimeAlly.sol\":22761:22809  _benefitOfAllMonths... */\n      tag_177\n      swap1\n        /* \"TimeAlly.sol\":22761:22905  _benefitOfAllMonths... */\n      swap2\n      swap1\n      0xffffffff\n      and\n      jump\t// in\n    tag_380:\n        /* \"TimeAlly.sol\":22761:22934  _benefitOfAllMonths... */\n      tag_237\n      swap1\n        /* \"TimeAlly.sol\":22761:22940  _benefitOfAllMonths... */\n      swap2\n      swap1\n      0xffffffff\n      and\n      jump\t// in\n    tag_379:\n        /* \"TimeAlly.sol\":22741:22940  uint256 _luckPool = _benefitOfAllMonths... */\n      swap1\n      pop\n        /* \"TimeAlly.sol\":22960:22965  token */\n      0x02\n      0x00\n      swap1\n      sload\n      swap1\n      0x0100\n      exp\n      swap1\n      div\n      0xffffffffffffffffffffffffffffffffffffffff\n      and\n        /* \"TimeAlly.sol\":22960:22974  token.transfer */\n      0xffffffffffffffffffffffffffffffffffffffff\n      and\n      0xa9059cbb\n        /* \"TimeAlly.sol\":22983:22993  nrtManager */\n      0x03\n      0x00\n      swap1\n      sload\n      swap1\n      0x0100\n      exp\n      swap1\n      div\n      0xffffffffffffffffffffffffffffffffffffffff\n      and\n        /* \"TimeAlly.sol\":22996:23005  _luckPool */\n      dup4\n        /* \"TimeAlly.sol\":22960:23006  token.transfer(address(nrtManager), _luckPool) */\n      mload(0x40)\n      dup4\n      0xffffffff\n      and\n      0xe0\n      shl\n      dup2\n      mstore\n      0x04\n      add\n      dup1\n      dup4\n      0xffffffffffffffffffffffffffffffffffffffff\n      and\n      0xffffffffffffffffffffffffffffffffffffffff\n      and\n      dup2\n      mstore\n      0x20\n      add\n      dup3\n      dup2\n      mstore\n      0x20\n      add\n      swap3\n      pop\n      pop\n      pop\n      0x20\n      mload(0x40)\n      dup1\n      dup4\n      sub\n      dup2\n      0x00\n      dup8\n      dup1\n      extcodesize\n      iszero\n        /* \"--CODEGEN--\":8:17   */\n      dup1\n        /* \"--CODEGEN--\":5:7   */\n      iszero\n      tag_386\n      jumpi\n        /* \"--CODEGEN--\":30:31   */\n      0x00\n        /* \"--CODEGEN--\":27:28   */\n      dup1\n        /* \"--CODEGEN--\":20:32   */\n      revert\n        /* \"--CODEGEN--\":5:7   */\n    tag_386:\n        /* \"TimeAlly.sol\":22960:23006  token.transfer(address(nrtManager), _luckPool) */\n      pop\n      gas\n      call\n      iszero\n        /* \"--CODEGEN--\":8:17   */\n      dup1\n        /* \"--CODEGEN--\":5:7   */\n      iszero\n      tag_387\n      jumpi\n        /* \"--CODEGEN--\":45:61   */\n      returndatasize\n        /* \"--CODEGEN--\":42:43   */\n      0x00\n        /* \"--CODEGEN--\":39:40   */\n      dup1\n        /* \"--CODEGEN--\":24:62   */\n      returndatacopy\n        /* \"--CODEGEN--\":77:93   */\n      returndatasize\n        /* \"--CODEGEN--\":74:75   */\n      0x00\n        /* \"--CODEGEN--\":67:94   */\n      revert\n        /* \"--CODEGEN--\":5:7   */\n    tag_387:\n        /* \"TimeAlly.sol\":22960:23006  token.transfer(address(nrtManager), _luckPool) */\n      pop\n      pop\n      pop\n      pop\n      mload(0x40)\n      returndatasize\n        /* \"--CODEGEN--\":13:15   */\n      0x20\n        /* \"--CODEGEN--\":8:11   */\n      dup2\n        /* \"--CODEGEN--\":5:16   */\n      lt\n        /* \"--CODEGEN--\":2:4   */\n      iszero\n      tag_388\n      jumpi\n        /* \"--CODEGEN--\":29:30   */\n      0x00\n        /* \"--CODEGEN--\":26:27   */\n      dup1\n        /* \"--CODEGEN--\":19:31   */\n      revert\n        /* \"--CODEGEN--\":2:4   */\n    tag_388:\n        /* \"TimeAlly.sol\":22960:23006  token.transfer(address(nrtManager), _luckPool) */\n      dup2\n      add\n      swap1\n      dup1\n      dup1\n      mload\n      swap1\n      0x20\n      add\n      swap1\n      swap3\n      swap2\n      swap1\n      pop\n      pop\n      pop\n        /* \"TimeAlly.sol\":22951:23008  require( token.transfer(address(nrtManager), _luckPool) ) */\n      tag_389\n      jumpi\n      0x00\n      dup1\n      revert\n    tag_389:\n        /* \"TimeAlly.sol\":23027:23037  nrtManager */\n      0x03\n      0x00\n      swap1\n      sload\n      swap1\n      0x0100\n      exp\n      swap1\n      div\n      0xffffffffffffffffffffffffffffffffffffffff\n      and\n        /* \"TimeAlly.sol\":23027:23052  nrtManager.UpdateLuckpool */\n      0xffffffffffffffffffffffffffffffffffffffff\n      and\n      0x382e2aab\n        /* \"TimeAlly.sol\":23053:23062  _luckPool */\n      dup3\n        /* \"TimeAlly.sol\":23027:23063  nrtManager.UpdateLuckpool(_luckPool) */\n      mload(0x40)\n      dup3\n      0xffffffff\n      and\n      0xe0\n      shl\n      dup2\n      mstore\n      0x04\n      add\n      dup1\n      dup3\n      dup2\n      mstore\n      0x20\n      add\n      swap2\n      pop\n      pop\n      0x20\n      mload(0x40)\n      dup1\n      dup4\n      sub\n      dup2\n      0x00\n      dup8\n      dup1\n      extcodesize\n      iszero\n        /* \"--CODEGEN--\":8:17   */\n      dup1\n        /* \"--CODEGEN--\":5:7   */\n      iszero\n      tag_390\n      jumpi\n        /* \"--CODEGEN--\":30:31   */\n      0x00\n        /* \"--CODEGEN--\":27:28   */\n      dup1\n        /* \"--CODEGEN--\":20:32   */\n      revert\n        /* \"--CODEGEN--\":5:7   */\n    tag_390:\n        /* \"TimeAlly.sol\":23027:23063  nrtManager.UpdateLuckpool(_luckPool) */\n      pop\n      gas\n      call\n      iszero\n        /* \"--CODEGEN--\":8:17   */\n      dup1\n        /* \"--CODEGEN--\":5:7   */\n      iszero\n      tag_391\n      jumpi\n        /* \"--CODEGEN--\":45:61   */\n      returndatasize\n        /* \"--CODEGEN--\":42:43   */\n      0x00\n        /* \"--CODEGEN--\":39:40   */\n      dup1\n        /* \"--CODEGEN--\":24:62   */\n      returndatacopy\n        /* \"--CODEGEN--\":77:93   */\n      returndatasize\n        /* \"--CODEGEN--\":74:75   */\n      0x00\n        /* \"--CODEGEN--\":67:94   */\n      revert\n        /* \"--CODEGEN--\":5:7   */\n    tag_391:\n        /* \"TimeAlly.sol\":23027:23063  nrtManager.UpdateLuckpool(_luckPool) */\n      pop\n      pop\n      pop\n      pop\n      mload(0x40)\n      returndatasize\n        /* \"--CODEGEN--\":13:15   */\n      0x20\n        /* \"--CODEGEN--\":8:11   */\n      dup2\n        /* \"--CODEGEN--\":5:16   */\n      lt\n        /* \"--CODEGEN--\":2:4   */\n      iszero\n      tag_392\n      jumpi\n        /* \"--CODEGEN--\":29:30   */\n      0x00\n        /* \"--CODEGEN--\":26:27   */\n      dup1\n        /* \"--CODEGEN--\":19:31   */\n      revert\n        /* \"--CODEGEN--\":2:4   */\n    tag_392:\n        /* \"TimeAlly.sol\":23027:23063  nrtManager.UpdateLuckpool(_luckPool) */\n      dup2\n      add\n      swap1\n      dup1\n      dup1\n      mload\n      swap1\n      0x20\n      add\n      swap1\n      swap3\n      swap2\n      swap1\n      pop\n      pop\n      pop\n        /* \"TimeAlly.sol\":23018:23065  require( nrtManager.UpdateLuckpool(_luckPool) ) */\n      tag_393\n      jumpi\n      0x00\n      dup1\n      revert\n    tag_393:\n        /* \"TimeAlly.sol\":23098:23132  _benefitOfAllMonths.sub(_luckPool) */\n      tag_394\n        /* \"TimeAlly.sol\":23122:23131  _luckPool */\n      dup2\n        /* \"TimeAlly.sol\":23098:23117  _benefitOfAllMonths */\n      dup4\n        /* \"TimeAlly.sol\":23098:23121  _benefitOfAllMonths.sub */\n      tag_205\n      swap1\n        /* \"TimeAlly.sol\":23098:23132  _benefitOfAllMonths.sub(_luckPool) */\n      swap2\n      swap1\n      0xffffffff\n      and\n      jump\t// in\n    tag_394:\n        /* \"TimeAlly.sol\":23076:23132  _benefitOfAllMonths = _benefitOfAllMonths.sub(_luckPool) */\n      swap2\n      pop\n        /* \"TimeAlly.sol\":23143:23163  uint256 _halfBenefit */\n      0x00\n        /* \"TimeAlly.sol\":23166:23192  _benefitOfAllMonths.div(2) */\n      tag_395\n        /* \"TimeAlly.sol\":23190:23191  2 */\n      0x02\n        /* \"TimeAlly.sol\":23166:23185  _benefitOfAllMonths */\n      dup5\n        /* \"TimeAlly.sol\":23166:23189  _benefitOfAllMonths.div */\n      tag_237\n      swap1\n        /* \"TimeAlly.sol\":23166:23192  _benefitOfAllMonths.div(2) */\n      swap2\n      swap1\n      0xffffffff\n      and\n      jump\t// in\n    tag_395:\n        /* \"TimeAlly.sol\":23143:23192  uint256 _halfBenefit = _benefitOfAllMonths.div(2) */\n      swap1\n      pop\n        /* \"TimeAlly.sol\":23211:23216  token */\n      0x02\n      0x00\n      swap1\n      sload\n      swap1\n      0x0100\n      exp\n      swap1\n      div\n      0xffffffffffffffffffffffffffffffffffffffff\n      and\n        /* \"TimeAlly.sol\":23211:23225  token.transfer */\n      0xffffffffffffffffffffffffffffffffffffffff\n      and\n      0xa9059cbb\n        /* \"TimeAlly.sol\":23226:23236  msg.sender */\n      caller\n        /* \"TimeAlly.sol\":23238:23250  _halfBenefit */\n      dup4\n        /* \"TimeAlly.sol\":23211:23251  token.transfer(msg.sender, _halfBenefit) */\n      mload(0x40)\n      dup4\n      0xffffffff\n      and\n      0xe0\n      shl\n      dup2\n      mstore\n      0x04\n      add\n      dup1\n      dup4\n      0xffffffffffffffffffffffffffffffffffffffff\n      and\n      0xffffffffffffffffffffffffffffffffffffffff\n      and\n      dup2\n      mstore\n      0x20\n      add\n      dup3\n      dup2\n      mstore\n      0x20\n      add\n      swap3\n      pop\n      pop\n      pop\n      0x20\n      mload(0x40)\n      dup1\n      dup4\n      sub\n      dup2\n      0x00\n      dup8\n      dup1\n      extcodesize\n      iszero\n        /* \"--CODEGEN--\":8:17   */\n      dup1\n        /* \"--CODEGEN--\":5:7   */\n      iszero\n      tag_396\n      jumpi\n        /* \"--CODEGEN--\":30:31   */\n      0x00\n        /* \"--CODEGEN--\":27:28   */\n      dup1\n        /* \"--CODEGEN--\":20:32   */\n      revert\n        /* \"--CODEGEN--\":5:7   */\n    tag_396:\n        /* \"TimeAlly.sol\":23211:23251  token.transfer(msg.sender, _halfBenefit) */\n      pop\n      gas\n      call\n      iszero\n        /* \"--CODEGEN--\":8:17   */\n      dup1\n        /* \"--CODEGEN--\":5:7   */\n      iszero\n      tag_397\n      jumpi\n        /* \"--CODEGEN--\":45:61   */\n      returndatasize\n        /* \"--CODEGEN--\":42:43   */\n      0x00\n        /* \"--CODEGEN--\":39:40   */\n      dup1\n        /* \"--CODEGEN--\":24:62   */\n      returndatacopy\n        /* \"--CODEGEN--\":77:93   */\n      returndatasize\n        /* \"--CODEGEN--\":74:75   */\n      0x00\n        /* \"--CODEGEN--\":67:94   */\n      revert\n        /* \"--CODEGEN--\":5:7   */\n    tag_397:\n        /* \"TimeAlly.sol\":23211:23251  token.transfer(msg.sender, _halfBenefit) */\n      pop\n      pop\n      pop\n      pop\n      mload(0x40)\n      returndatasize\n        /* \"--CODEGEN--\":13:15   */\n      0x20\n        /* \"--CODEGEN--\":8:11   */\n      dup2\n        /* \"--CODEGEN--\":5:16   */\n      lt\n        /* \"--CODEGEN--\":2:4   */\n      iszero\n      tag_398\n      jumpi\n        /* \"--CODEGEN--\":29:30   */\n      0x00\n        /* \"--CODEGEN--\":26:27   */\n      dup1\n        /* \"--CODEGEN--\":19:31   */\n      revert\n        /* \"--CODEGEN--\":2:4   */\n    tag_398:\n        /* \"TimeAlly.sol\":23211:23251  token.transfer(msg.sender, _halfBenefit) */\n      dup2\n      add\n      swap1\n      dup1\n      dup1\n      mload\n      swap1\n      0x20\n      add\n      swap1\n      swap3\n      swap2\n      swap1\n      pop\n      pop\n      pop\n        /* \"TimeAlly.sol\":23202:23253  require( token.transfer(msg.sender, _halfBenefit) ) */\n      tag_399\n      jumpi\n      0x00\n      dup1\n      revert\n    tag_399:\n        /* \"TimeAlly.sol\":23291:23333  launchReward[msg.sender].add(_halfBenefit) */\n      tag_400\n        /* \"TimeAlly.sol\":23320:23332  _halfBenefit */\n      dup2\n        /* \"TimeAlly.sol\":23291:23303  launchReward */\n      0x09\n        /* \"TimeAlly.sol\":23291:23315  launchReward[msg.sender] */\n      0x00\n        /* \"TimeAlly.sol\":23304:23314  msg.sender */\n      caller\n        /* \"TimeAlly.sol\":23291:23315  launchReward[msg.sender] */\n      0xffffffffffffffffffffffffffffffffffffffff\n      and\n      0xffffffffffffffffffffffffffffffffffffffff\n      and\n      dup2\n      mstore\n      0x20\n      add\n      swap1\n      dup2\n      mstore\n      0x20\n      add\n      0x00\n      keccak256\n      sload\n        /* \"TimeAlly.sol\":23291:23319  launchReward[msg.sender].add */\n      tag_199\n      swap1\n        /* \"TimeAlly.sol\":23291:23333  launchReward[msg.sender].add(_halfBenefit) */\n      swap2\n      swap1\n      0xffffffff\n      and\n      jump\t// in\n    tag_400:\n        /* \"TimeAlly.sol\":23264:23276  launchReward */\n      0x09\n        /* \"TimeAlly.sol\":23264:23288  launchReward[msg.sender] */\n      0x00\n        /* \"TimeAlly.sol\":23277:23287  msg.sender */\n      caller\n        /* \"TimeAlly.sol\":23264:23288  launchReward[msg.sender] */\n      0xffffffffffffffffffffffffffffffffffffffff\n      and\n      0xffffffffffffffffffffffffffffffffffffffff\n      and\n      dup2\n      mstore\n      0x20\n      add\n      swap1\n      dup2\n      mstore\n      0x20\n      add\n      0x00\n      keccak256\n        /* \"TimeAlly.sol\":23264:23333  launchReward[msg.sender] = launchReward[msg.sender].add(_halfBenefit) */\n      dup2\n      swap1\n      sstore\n      pop\n        /* \"TimeAlly.sol\":21921:23340  function withdrawBenefitOfAStakingByMonths(... */\n      pop\n      pop\n      pop\n      pop\n      pop\n      jump\t// out\n        /* \"TimeAlly.sol\":35970:36597  function addNominee(uint256 _stakingId, address _nomineeAddress, uint256 _shares) public {... */\n    tag_114:\n        /* \"TimeAlly.sol\":36120:36121  1 */\n      0x01\n        /* \"TimeAlly.sol\":36077:36085  stakings */\n      0x07\n        /* \"TimeAlly.sol\":36077:36097  stakings[msg.sender] */\n      0x00\n        /* \"TimeAlly.sol\":36086:36096  msg.sender */\n      caller\n        /* \"TimeAlly.sol\":36077:36097  stakings[msg.sender] */\n      0xffffffffffffffffffffffffffffffffffffffff\n      and\n      0xffffffffffffffffffffffffffffffffffffffff\n      and\n      dup2\n      mstore\n      0x20\n      add\n      swap1\n      dup2\n      mstore\n      0x20\n      add\n      0x00\n      keccak256\n        /* \"TimeAlly.sol\":36098:36108  _stakingId */\n      dup5\n        /* \"TimeAlly.sol\":36077:36109  stakings[msg.sender][_stakingId] */\n      dup2\n      sload\n      dup2\n      lt\n      tag_402\n      jumpi\n      invalid\n    tag_402:\n      swap1\n      0x00\n      mstore\n      keccak256(0x00, 0x20)\n      swap1\n      0x09\n      mul\n      add\n        /* \"TimeAlly.sol\":36077:36116  stakings[msg.sender][_stakingId].status */\n      0x04\n      add\n      sload\n        /* \"TimeAlly.sol\":36077:36121  stakings[msg.sender][_stakingId].status == 1 */\n      eq\n        /* \"TimeAlly.sol\":36069:36170  require(stakings[msg.sender][_stakingId].status == 1... */\n      tag_404\n      jumpi\n      0x00\n      dup1\n      revert\n    tag_404:\n        /* \"TimeAlly.sol\":36252:36253  0 */\n      0x00\n        /* \"TimeAlly.sol\":36188:36196  stakings */\n      0x07\n        /* \"TimeAlly.sol\":36188:36208  stakings[msg.sender] */\n      0x00\n        /* \"TimeAlly.sol\":36197:36207  msg.sender */\n      caller\n        /* \"TimeAlly.sol\":36188:36208  stakings[msg.sender] */\n      0xffffffffffffffffffffffffffffffffffffffff\n      and\n      0xffffffffffffffffffffffffffffffffffffffff\n      and\n      dup2\n      mstore\n      0x20\n      add\n      swap1\n      dup2\n      mstore\n      0x20\n      add\n      0x00\n      keccak256\n        /* \"TimeAlly.sol\":36209:36219  _stakingId */\n      dup5\n        /* \"TimeAlly.sol\":36188:36220  stakings[msg.sender][_stakingId] */\n      dup2\n      sload\n      dup2\n      lt\n      tag_405\n      jumpi\n      invalid\n    tag_405:\n      swap1\n      0x00\n      mstore\n      keccak256(0x00, 0x20)\n      swap1\n      0x09\n      mul\n      add\n        /* \"TimeAlly.sol\":36188:36231  stakings[msg.sender][_stakingId].nomination */\n      0x08\n      add\n        /* \"TimeAlly.sol\":36188:36248  stakings[msg.sender][_stakingId].nomination[_nomineeAddress] */\n      0x00\n        /* \"TimeAlly.sol\":36232:36247  _nomineeAddress */\n      dup5\n        /* \"TimeAlly.sol\":36188:36248  stakings[msg.sender][_stakingId].nomination[_nomineeAddress] */\n      0xffffffffffffffffffffffffffffffffffffffff\n      and\n      0xffffffffffffffffffffffffffffffffffffffff\n      and\n      dup2\n      mstore\n      0x20\n      add\n      swap1\n      dup2\n      mstore\n      0x20\n      add\n      0x00\n      keccak256\n      sload\n        /* \"TimeAlly.sol\":36188:36253  stakings[msg.sender][_stakingId].nomination[_nomineeAddress] == 0 */\n      eq\n        /* \"TimeAlly.sol\":36180:36310  require(stakings[msg.sender][_stakingId].nomination[_nomineeAddress] == 0... */\n      tag_407\n      jumpi\n      0x00\n      dup1\n      revert\n    tag_407:\n        /* \"TimeAlly.sol\":36377:36444  stakings[msg.sender][_stakingId].totalNominationShares.add(_shares) */\n      tag_408\n        /* \"TimeAlly.sol\":36436:36443  _shares */\n      dup2\n        /* \"TimeAlly.sol\":36377:36385  stakings */\n      0x07\n        /* \"TimeAlly.sol\":36377:36397  stakings[msg.sender] */\n      0x00\n        /* \"TimeAlly.sol\":36386:36396  msg.sender */\n      caller\n        /* \"TimeAlly.sol\":36377:36397  stakings[msg.sender] */\n      0xffffffffffffffffffffffffffffffffffffffff\n      and\n      0xffffffffffffffffffffffffffffffffffffffff\n      and\n      dup2\n      mstore\n      0x20\n      add\n      swap1\n      dup2\n      mstore\n      0x20\n      add\n      0x00\n      keccak256\n        /* \"TimeAlly.sol\":36398:36408  _stakingId */\n      dup6\n        /* \"TimeAlly.sol\":36377:36409  stakings[msg.sender][_stakingId] */\n      dup2\n      sload\n      dup2\n      lt\n      tag_409\n      jumpi\n      invalid\n    tag_409:\n      swap1\n      0x00\n      mstore\n      keccak256(0x00, 0x20)\n      swap1\n      0x09\n      mul\n      add\n        /* \"TimeAlly.sol\":36377:36431  stakings[msg.sender][_stakingId].totalNominationShares */\n      0x06\n      add\n      sload\n        /* \"TimeAlly.sol\":36377:36435  stakings[msg.sender][_stakingId].totalNominationShares.add */\n      tag_199\n      swap1\n        /* \"TimeAlly.sol\":36377:36444  stakings[msg.sender][_stakingId].totalNominationShares.add(_shares) */\n      swap2\n      swap1\n      0xffffffff\n      and\n      jump\t// in\n    tag_408:\n        /* \"TimeAlly.sol\":36320:36328  stakings */\n      0x07\n        /* \"TimeAlly.sol\":36320:36340  stakings[msg.sender] */\n      0x00\n        /* \"TimeAlly.sol\":36329:36339  msg.sender */\n      caller\n        /* \"TimeAlly.sol\":36320:36340  stakings[msg.sender] */\n      0xffffffffffffffffffffffffffffffffffffffff\n      and\n      0xffffffffffffffffffffffffffffffffffffffff\n      and\n      dup2\n      mstore\n      0x20\n      add\n      swap1\n      dup2\n      mstore\n      0x20\n      add\n      0x00\n      keccak256\n        /* \"TimeAlly.sol\":36341:36351  _stakingId */\n      dup5\n        /* \"TimeAlly.sol\":36320:36352  stakings[msg.sender][_stakingId] */\n      dup2\n      sload\n      dup2\n      lt\n      tag_411\n      jumpi\n      invalid\n    tag_411:\n      swap1\n      0x00\n      mstore\n      keccak256(0x00, 0x20)\n      swap1\n      0x09\n      mul\n      add\n        /* \"TimeAlly.sol\":36320:36374  stakings[msg.sender][_stakingId].totalNominationShares */\n      0x06\n      add\n        /* \"TimeAlly.sol\":36320:36444  stakings[msg.sender][_stakingId].totalNominationShares = stakings[msg.sender][_stakingId].totalNominationShares.add(_shares) */\n      dup2\n      swap1\n      sstore\n      pop\n        /* \"TimeAlly.sol\":36517:36524  _shares */\n      dup1\n        /* \"TimeAlly.sol\":36454:36462  stakings */\n      0x07\n        /* \"TimeAlly.sol\":36454:36474  stakings[msg.sender] */\n      0x00\n        /* \"TimeAlly.sol\":36463:36473  msg.sender */\n      caller\n        /* \"TimeAlly.sol\":36454:36474  stakings[msg.sender] */\n      0xffffffffffffffffffffffffffffffffffffffff\n      and\n      0xffffffffffffffffffffffffffffffffffffffff\n      and\n      dup2\n      mstore\n      0x20\n      add\n      swap1\n      dup2\n      mstore\n      0x20\n      add\n      0x00\n      keccak256\n        /* \"TimeAlly.sol\":36475:36485  _stakingId */\n      dup5\n        /* \"TimeAlly.sol\":36454:36486  stakings[msg.sender][_stakingId] */\n      dup2\n      sload\n      dup2\n      lt\n      tag_413\n      jumpi\n      invalid\n    tag_413:\n      swap1\n      0x00\n      mstore\n      keccak256(0x00, 0x20)\n      swap1\n      0x09\n      mul\n      add\n        /* \"TimeAlly.sol\":36454:36497  stakings[msg.sender][_stakingId].nomination */\n      0x08\n      add\n        /* \"TimeAlly.sol\":36454:36514  stakings[msg.sender][_stakingId].nomination[_nomineeAddress] */\n      0x00\n        /* \"TimeAlly.sol\":36498:36513  _nomineeAddress */\n      dup5\n        /* \"TimeAlly.sol\":36454:36514  stakings[msg.sender][_stakingId].nomination[_nomineeAddress] */\n      0xffffffffffffffffffffffffffffffffffffffff\n      and\n      0xffffffffffffffffffffffffffffffffffffffff\n      and\n      dup2\n      mstore\n      0x20\n      add\n      swap1\n      dup2\n      mstore\n      0x20\n      add\n      0x00\n      keccak256\n        /* \"TimeAlly.sol\":36454:36524  stakings[msg.sender][_stakingId].nomination[_nomineeAddress] = _shares */\n      dup2\n      swap1\n      sstore\n      pop\n        /* \"TimeAlly.sol\":36574:36589  _nomineeAddress */\n      dup2\n        /* \"TimeAlly.sol\":36539:36590  NomineeNew(msg.sender, _stakingId, _nomineeAddress) */\n      0xffffffffffffffffffffffffffffffffffffffff\n      and\n        /* \"TimeAlly.sol\":36562:36572  _stakingId */\n      dup4\n        /* \"TimeAlly.sol\":36550:36560  msg.sender */\n      caller\n        /* \"TimeAlly.sol\":36539:36590  NomineeNew(msg.sender, _stakingId, _nomineeAddress) */\n      0xffffffffffffffffffffffffffffffffffffffff\n      and\n      0xc4e7fb51a42ce926bb404f8024c3c91a40af0654d9a96ada67c329b9c9bee4a2\n      mload(0x40)\n      mload(0x40)\n      dup1\n      swap2\n      sub\n      swap1\n      log4\n        /* \"TimeAlly.sol\":35970:36597  function addNominee(uint256 _stakingId, address _nomineeAddress, uint256 _shares) public {... */\n      pop\n      pop\n      pop\n      jump\t// out\n        /* \"TimeAlly.sol\":8594:8734  function getNumberOfStakingsByUser(address _userAddress) public view returns (uint256) {... */\n    tag_117:\n        /* \"TimeAlly.sol\":8672:8679  uint256 */\n      0x00\n        /* \"TimeAlly.sol\":8698:8706  stakings */\n      0x07\n        /* \"TimeAlly.sol\":8698:8720  stakings[_userAddress] */\n      0x00\n        /* \"TimeAlly.sol\":8707:8719  _userAddress */\n      dup4\n        /* \"TimeAlly.sol\":8698:8720  stakings[_userAddress] */\n      0xffffffffffffffffffffffffffffffffffffffff\n      and\n      0xffffffffffffffffffffffffffffffffffffffff\n      and\n      dup2\n      mstore\n      0x20\n      add\n      swap1\n      dup2\n      mstore\n      0x20\n      add\n      0x00\n      keccak256\n        /* \"TimeAlly.sol\":8698:8727  stakings[_userAddress].length */\n      dup1\n      sload\n      swap1\n      pop\n        /* \"TimeAlly.sol\":8691:8727  return stakings[_userAddress].length */\n      swap1\n      pop\n        /* \"TimeAlly.sol\":8594:8734  function getNumberOfStakingsByUser(address _userAddress) public view returns (uint256) {... */\n      swap2\n      swap1\n      pop\n      jump\t// out\n        /* \"TimeAlly.sol\":27650:28761  function seeMaxLoaningAmountOnUserStakings(address _userAddress, uint256[] memory _stakingIds) public view returns (uint256) {... */\n    tag_123:\n        /* \"TimeAlly.sol\":27766:27773  uint256 */\n      0x00\n        /* \"TimeAlly.sol\":27785:27806  uint256 _currentMonth */\n      dup1\n        /* \"TimeAlly.sol\":27809:27826  getCurrentMonth() */\n      tag_417\n        /* \"TimeAlly.sol\":27809:27824  getCurrentMonth */\n      tag_143\n        /* \"TimeAlly.sol\":27809:27826  getCurrentMonth() */\n      jump\t// in\n    tag_417:\n        /* \"TimeAlly.sol\":27785:27826  uint256 _currentMonth = getCurrentMonth() */\n      swap1\n      pop\n        /* \"TimeAlly.sol\":27913:27944  uint256 userStakingsExaEsAmount */\n      0x00\n        /* \"TimeAlly.sol\":27959:27968  uint256 i */\n      dup1\n        /* \"TimeAlly.sol\":27971:27972  0 */\n      0x00\n        /* \"TimeAlly.sol\":27959:27972  uint256 i = 0 */\n      swap1\n      pop\n        /* \"TimeAlly.sol\":27955:28625  for(uint256 i = 0; i < _stakingIds.length; i++) {... */\n    tag_418:\n        /* \"TimeAlly.sol\":27978:27989  _stakingIds */\n      dup5\n        /* \"TimeAlly.sol\":27978:27996  _stakingIds.length */\n      mload\n        /* \"TimeAlly.sol\":27974:27975  i */\n      dup2\n        /* \"TimeAlly.sol\":27974:27996  i < _stakingIds.length */\n      lt\n        /* \"TimeAlly.sol\":27955:28625  for(uint256 i = 0; i < _stakingIds.length; i++) {... */\n      iszero\n      tag_419\n      jumpi\n        /* \"TimeAlly.sol\":28021:28081  isStakingActive(_userAddress, _stakingIds[i], _currentMonth) */\n      tag_421\n        /* \"TimeAlly.sol\":28037:28049  _userAddress */\n      dup7\n        /* \"TimeAlly.sol\":28051:28062  _stakingIds */\n      dup7\n        /* \"TimeAlly.sol\":28063:28064  i */\n      dup4\n        /* \"TimeAlly.sol\":28051:28065  _stakingIds[i] */\n      dup2\n      mload\n      dup2\n      lt\n      tag_422\n      jumpi\n      invalid\n    tag_422:\n      0x20\n      mul\n      0x20\n      add\n      add\n      mload\n        /* \"TimeAlly.sol\":28067:28080  _currentMonth */\n      dup6\n        /* \"TimeAlly.sol\":28021:28036  isStakingActive */\n      tag_138\n        /* \"TimeAlly.sol\":28021:28081  isStakingActive(_userAddress, _stakingIds[i], _currentMonth) */\n      jump\t// in\n    tag_421:\n        /* \"TimeAlly.sol\":28021:28181  isStakingActive(_userAddress, _stakingIds[i], _currentMonth)... */\n      dup1\n      iszero\n      tag_423\n      jumpi\n      pop\n        /* \"TimeAlly.sol\":28099:28111  stakingPlans */\n      0x05\n        /* \"TimeAlly.sol\":28113:28121  stakings */\n      0x07\n        /* \"TimeAlly.sol\":28113:28135  stakings[_userAddress] */\n      0x00\n        /* \"TimeAlly.sol\":28122:28134  _userAddress */\n      dup9\n        /* \"TimeAlly.sol\":28113:28135  stakings[_userAddress] */\n      0xffffffffffffffffffffffffffffffffffffffff\n      and\n      0xffffffffffffffffffffffffffffffffffffffff\n      and\n      dup2\n      mstore\n      0x20\n      add\n      swap1\n      dup2\n      mstore\n      0x20\n      add\n      0x00\n      keccak256\n        /* \"TimeAlly.sol\":28136:28147  _stakingIds */\n      dup7\n        /* \"TimeAlly.sol\":28148:28149  i */\n      dup4\n        /* \"TimeAlly.sol\":28136:28150  _stakingIds[i] */\n      dup2\n      mload\n      dup2\n      lt\n      tag_424\n      jumpi\n      invalid\n    tag_424:\n      0x20\n      mul\n      0x20\n      add\n      add\n      mload\n        /* \"TimeAlly.sol\":28113:28151  stakings[_userAddress][_stakingIds[i]] */\n      dup2\n      sload\n      dup2\n      lt\n      tag_425\n      jumpi\n      invalid\n    tag_425:\n      swap1\n      0x00\n      mstore\n      keccak256(0x00, 0x20)\n      swap1\n      0x09\n      mul\n      add\n        /* \"TimeAlly.sol\":28113:28165  stakings[_userAddress][_stakingIds[i]].stakingPlanId */\n      0x03\n      add\n      sload\n        /* \"TimeAlly.sol\":28099:28167  stakingPlans[ stakings[_userAddress][_stakingIds[i]].stakingPlanId ] */\n      dup2\n      sload\n      dup2\n      lt\n      tag_427\n      jumpi\n      invalid\n    tag_427:\n      swap1\n      0x00\n      mstore\n      keccak256(0x00, 0x20)\n      swap1\n      0x03\n      mul\n      add\n        /* \"TimeAlly.sol\":28099:28181  stakingPlans[ stakings[_userAddress][_stakingIds[i]].stakingPlanId ].isLoanAllowed */\n      0x02\n      add\n      0x01\n      swap1\n      sload\n      swap1\n      0x0100\n      exp\n      swap1\n      div\n      0xff\n      and\n        /* \"TimeAlly.sol\":28021:28181  isStakingActive(_userAddress, _stakingIds[i], _currentMonth)... */\n    tag_423:\n        /* \"TimeAlly.sol\":28018:28615  if(isStakingActive(_userAddress, _stakingIds[i], _currentMonth)... */\n      iszero\n      tag_429\n      jumpi\n        /* \"TimeAlly.sol\":28330:28600  userStakingsExaEsAmount... */\n      tag_430\n        /* \"TimeAlly.sol\":28379:28387  stakings */\n      0x07\n        /* \"TimeAlly.sol\":28379:28401  stakings[_userAddress] */\n      0x00\n        /* \"TimeAlly.sol\":28388:28400  _userAddress */\n      dup9\n        /* \"TimeAlly.sol\":28379:28401  stakings[_userAddress] */\n      0xffffffffffffffffffffffffffffffffffffffff\n      and\n      0xffffffffffffffffffffffffffffffffffffffff\n      and\n      dup2\n      mstore\n      0x20\n      add\n      swap1\n      dup2\n      mstore\n      0x20\n      add\n      0x00\n      keccak256\n        /* \"TimeAlly.sol\":28402:28413  _stakingIds */\n      dup7\n        /* \"TimeAlly.sol\":28414:28415  i */\n      dup4\n        /* \"TimeAlly.sol\":28402:28416  _stakingIds[i] */\n      dup2\n      mload\n      dup2\n      lt\n      tag_431\n      jumpi\n      invalid\n    tag_431:\n      0x20\n      mul\n      0x20\n      add\n      add\n      mload\n        /* \"TimeAlly.sol\":28379:28417  stakings[_userAddress][_stakingIds[i]] */\n      dup2\n      sload\n      dup2\n      lt\n      tag_432\n      jumpi\n      invalid\n    tag_432:\n      swap1\n      0x00\n      mstore\n      keccak256(0x00, 0x20)\n      swap1\n      0x09\n      mul\n      add\n        /* \"TimeAlly.sol\":28379:28429  stakings[_userAddress][_stakingIds[i]].exaEsAmount */\n      0x00\n      add\n      sload\n        /* \"TimeAlly.sol\":28330:28353  userStakingsExaEsAmount */\n      dup4\n        /* \"TimeAlly.sol\":28330:28378  userStakingsExaEsAmount... */\n      tag_199\n      swap1\n        /* \"TimeAlly.sol\":28330:28600  userStakingsExaEsAmount... */\n      swap2\n      swap1\n      0xffffffff\n      and\n      jump\t// in\n    tag_430:\n        /* \"TimeAlly.sol\":28304:28600  userStakingsExaEsAmount = userStakingsExaEsAmount... */\n      swap2\n      pop\n        /* \"TimeAlly.sol\":28018:28615  if(isStakingActive(_userAddress, _stakingIds[i], _currentMonth)... */\n    tag_429:\n        /* \"TimeAlly.sol\":27998:28001  i++ */\n      dup1\n      dup1\n      0x01\n      add\n      swap2\n      pop\n      pop\n        /* \"TimeAlly.sol\":27955:28625  for(uint256 i = 0; i < _stakingIds.length; i++) {... */\n      jump(tag_418)\n    tag_419:\n      pop\n        /* \"TimeAlly.sol\":28642:28672  userStakingsExaEsAmount.div(2) */\n      tag_434\n        /* \"TimeAlly.sol\":28670:28671  2 */\n      0x02\n        /* \"TimeAlly.sol\":28642:28665  userStakingsExaEsAmount */\n      dup3\n        /* \"TimeAlly.sol\":28642:28669  userStakingsExaEsAmount.div */\n      tag_237\n      swap1\n        /* \"TimeAlly.sol\":28642:28672  userStakingsExaEsAmount.div(2) */\n      swap2\n      swap1\n      0xffffffff\n      and\n      jump\t// in\n    tag_434:\n        /* \"TimeAlly.sol\":28635:28672  return userStakingsExaEsAmount.div(2) */\n      swap3\n      pop\n      pop\n      pop\n        /* \"TimeAlly.sol\":27650:28761  function seeMaxLoaningAmountOnUserStakings(address _userAddress, uint256[] memory _stakingIds) public view returns (uint256) {... */\n      swap3\n      swap2\n      pop\n      pop\n      jump\t// out\n        /* \"TimeAlly.sol\":6552:6723  function toggleStakingPlan(uint256 _stakingPlanId) public onlyOwner {... */\n    tag_126:\n        /* \"TimeAlly.sol\":3924:3929  owner */\n      0x01\n      0x00\n      swap1\n      sload\n      swap1\n      0x0100\n      exp\n      swap1\n      div\n      0xffffffffffffffffffffffffffffffffffffffff\n      and\n        /* \"TimeAlly.sol\":3910:3929  msg.sender == owner */\n      0xffffffffffffffffffffffffffffffffffffffff\n      and\n        /* \"TimeAlly.sol\":3910:3920  msg.sender */\n      caller\n        /* \"TimeAlly.sol\":3910:3929  msg.sender == owner */\n      0xffffffffffffffffffffffffffffffffffffffff\n      and\n      eq\n        /* \"TimeAlly.sol\":3891:3979  require(... */\n      tag_436\n      jumpi\n      0x00\n      dup1\n      revert\n    tag_436:\n        /* \"TimeAlly.sol\":6675:6687  stakingPlans */\n      0x05\n        /* \"TimeAlly.sol\":6688:6702  _stakingPlanId */\n      dup2\n        /* \"TimeAlly.sol\":6675:6703  stakingPlans[_stakingPlanId] */\n      dup2\n      sload\n      dup2\n      lt\n      tag_438\n      jumpi\n      invalid\n    tag_438:\n      swap1\n      0x00\n      mstore\n      keccak256(0x00, 0x20)\n      swap1\n      0x03\n      mul\n      add\n        /* \"TimeAlly.sol\":6675:6716  stakingPlans[_stakingPlanId].isPlanActive */\n      0x02\n      add\n      0x00\n      swap1\n      sload\n      swap1\n      0x0100\n      exp\n      swap1\n      div\n      0xff\n      and\n        /* \"TimeAlly.sol\":6674:6716  !stakingPlans[_stakingPlanId].isPlanActive */\n      iszero\n        /* \"TimeAlly.sol\":6630:6642  stakingPlans */\n      0x05\n        /* \"TimeAlly.sol\":6643:6657  _stakingPlanId */\n      dup3\n        /* \"TimeAlly.sol\":6630:6658  stakingPlans[_stakingPlanId] */\n      dup2\n      sload\n      dup2\n      lt\n      tag_440\n      jumpi\n      invalid\n    tag_440:\n      swap1\n      0x00\n      mstore\n      keccak256(0x00, 0x20)\n      swap1\n      0x03\n      mul\n      add\n        /* \"TimeAlly.sol\":6630:6671  stakingPlans[_stakingPlanId].isPlanActive */\n      0x02\n      add\n      0x00\n        /* \"TimeAlly.sol\":6630:6716  stakingPlans[_stakingPlanId].isPlanActive = !stakingPlans[_stakingPlanId].isPlanActive */\n      0x0100\n      exp\n      dup2\n      sload\n      dup2\n      0xff\n      mul\n      not\n      and\n      swap1\n      dup4\n      iszero\n      iszero\n      mul\n      or\n      swap1\n      sstore\n      pop\n        /* \"TimeAlly.sol\":6552:6723  function toggleStakingPlan(uint256 _stakingPlanId) public onlyOwner {... */\n      pop\n      jump\t// out\n        /* \"TimeAlly.sol\":2194:2221  LoanPlan[] public loanPlans */\n    tag_129:\n      0x06\n      dup2\n      dup2\n      sload\n      dup2\n      lt\n      tag_442\n      jumpi\n      invalid\n    tag_442:\n      swap1\n      0x00\n      mstore\n      keccak256(0x00, 0x20)\n      swap1\n      0x02\n      mul\n      add\n      0x00\n      swap2\n      pop\n      swap1\n      pop\n      dup1\n      0x00\n      add\n      sload\n      swap1\n      dup1\n      0x01\n      add\n      sload\n      swap1\n      pop\n      dup3\n      jump\t// out\n        /* \"TimeAlly.sol\":29186:31918  function takeLoanOnSelfStaking(uint256 _loanPlanId, uint256 _exaEsAmount, uint256[] memory _stakingIds) public {... */\n    tag_135:\n        /* \"TimeAlly.sol\":29535:29556  uint256 _currentMonth */\n      0x00\n        /* \"TimeAlly.sol\":29559:29576  getCurrentMonth() */\n      tag_445\n        /* \"TimeAlly.sol\":29559:29574  getCurrentMonth */\n      tag_143\n        /* \"TimeAlly.sol\":29559:29576  getCurrentMonth() */\n      jump\t// in\n    tag_445:\n        /* \"TimeAlly.sol\":29535:29576  uint256 _currentMonth = getCurrentMonth() */\n      swap1\n      pop\n        /* \"TimeAlly.sol\":29586:29618  uint256 _userStakingsExaEsAmount */\n      0x00\n        /* \"TimeAlly.sol\":29633:29642  uint256 i */\n      dup1\n        /* \"TimeAlly.sol\":29645:29646  0 */\n      0x00\n        /* \"TimeAlly.sol\":29633:29646  uint256 i = 0 */\n      swap1\n      pop\n        /* \"TimeAlly.sol\":29629:30949  for(uint256 i = 0; i < _stakingIds.length; i++) {... */\n    tag_446:\n        /* \"TimeAlly.sol\":29652:29663  _stakingIds */\n      dup4\n        /* \"TimeAlly.sol\":29652:29670  _stakingIds.length */\n      mload\n        /* \"TimeAlly.sol\":29648:29649  i */\n      dup2\n        /* \"TimeAlly.sol\":29648:29670  i < _stakingIds.length */\n      lt\n        /* \"TimeAlly.sol\":29629:30949  for(uint256 i = 0; i < _stakingIds.length; i++) {... */\n      iszero\n      tag_447\n      jumpi\n        /* \"TimeAlly.sol\":29696:29754  isStakingActive(msg.sender, _stakingIds[i], _currentMonth) */\n      tag_449\n        /* \"TimeAlly.sol\":29712:29722  msg.sender */\n      caller\n        /* \"TimeAlly.sol\":29724:29735  _stakingIds */\n      dup6\n        /* \"TimeAlly.sol\":29736:29737  i */\n      dup4\n        /* \"TimeAlly.sol\":29724:29738  _stakingIds[i] */\n      dup2\n      mload\n      dup2\n      lt\n      tag_450\n      jumpi\n      invalid\n    tag_450:\n      0x20\n      mul\n      0x20\n      add\n      add\n      mload\n        /* \"TimeAlly.sol\":29740:29753  _currentMonth */\n      dup6\n        /* \"TimeAlly.sol\":29696:29711  isStakingActive */\n      tag_138\n        /* \"TimeAlly.sol\":29696:29754  isStakingActive(msg.sender, _stakingIds[i], _currentMonth) */\n      jump\t// in\n    tag_449:\n        /* \"TimeAlly.sol\":29696:29854  isStakingActive(msg.sender, _stakingIds[i], _currentMonth)... */\n      dup1\n      iszero\n      tag_451\n      jumpi\n      pop\n        /* \"TimeAlly.sol\":29774:29786  stakingPlans */\n      0x05\n        /* \"TimeAlly.sol\":29788:29796  stakings */\n      0x07\n        /* \"TimeAlly.sol\":29788:29808  stakings[msg.sender] */\n      0x00\n        /* \"TimeAlly.sol\":29797:29807  msg.sender */\n      caller\n        /* \"TimeAlly.sol\":29788:29808  stakings[msg.sender] */\n      0xffffffffffffffffffffffffffffffffffffffff\n      and\n      0xffffffffffffffffffffffffffffffffffffffff\n      and\n      dup2\n      mstore\n      0x20\n      add\n      swap1\n      dup2\n      mstore\n      0x20\n      add\n      0x00\n      keccak256\n        /* \"TimeAlly.sol\":29809:29820  _stakingIds */\n      dup6\n        /* \"TimeAlly.sol\":29821:29822  i */\n      dup4\n        /* \"TimeAlly.sol\":29809:29823  _stakingIds[i] */\n      dup2\n      mload\n      dup2\n      lt\n      tag_452\n      jumpi\n      invalid\n    tag_452:\n      0x20\n      mul\n      0x20\n      add\n      add\n      mload\n        /* \"TimeAlly.sol\":29788:29824  stakings[msg.sender][_stakingIds[i]] */\n      dup2\n      sload\n      dup2\n      lt\n      tag_453\n      jumpi\n      invalid\n    tag_453:\n      swap1\n      0x00\n      mstore\n      keccak256(0x00, 0x20)\n      swap1\n      0x09\n      mul\n      add\n        /* \"TimeAlly.sol\":29788:29838  stakings[msg.sender][_stakingIds[i]].stakingPlanId */\n      0x03\n      add\n      sload\n        /* \"TimeAlly.sol\":29774:29840  stakingPlans[ stakings[msg.sender][_stakingIds[i]].stakingPlanId ] */\n      dup2\n      sload\n      dup2\n      lt\n      tag_455\n      jumpi\n      invalid\n    tag_455:\n      swap1\n      0x00\n      mstore\n      keccak256(0x00, 0x20)\n      swap1\n      0x03\n      mul\n      add\n        /* \"TimeAlly.sol\":29774:29854  stakingPlans[ stakings[msg.sender][_stakingIds[i]].stakingPlanId ].isLoanAllowed */\n      0x02\n      add\n      0x01\n      swap1\n      sload\n      swap1\n      0x0100\n      exp\n      swap1\n      div\n      0xff\n      and\n        /* \"TimeAlly.sol\":29696:29854  isStakingActive(msg.sender, _stakingIds[i], _currentMonth)... */\n    tag_451:\n        /* \"TimeAlly.sol\":29692:30939  if( isStakingActive(msg.sender, _stakingIds[i], _currentMonth)... */\n      iszero\n      tag_457\n      jumpi\n        /* \"TimeAlly.sol\":29961:30104  _userStakingsExaEsAmount... */\n      tag_458\n        /* \"TimeAlly.sol\":30036:30044  stakings */\n      0x07\n        /* \"TimeAlly.sol\":30036:30056  stakings[msg.sender] */\n      0x00\n        /* \"TimeAlly.sol\":30045:30055  msg.sender */\n      caller\n        /* \"TimeAlly.sol\":30036:30056  stakings[msg.sender] */\n      0xffffffffffffffffffffffffffffffffffffffff\n      and\n      0xffffffffffffffffffffffffffffffffffffffff\n      and\n      dup2\n      mstore\n      0x20\n      add\n      swap1\n      dup2\n      mstore\n      0x20\n      add\n      0x00\n      keccak256\n        /* \"TimeAlly.sol\":30058:30069  _stakingIds */\n      dup6\n        /* \"TimeAlly.sol\":30070:30071  i */\n      dup4\n        /* \"TimeAlly.sol\":30058:30072  _stakingIds[i] */\n      dup2\n      mload\n      dup2\n      lt\n      tag_459\n      jumpi\n      invalid\n    tag_459:\n      0x20\n      mul\n      0x20\n      add\n      add\n      mload\n        /* \"TimeAlly.sol\":30036:30074  stakings[msg.sender][ _stakingIds[i] ] */\n      dup2\n      sload\n      dup2\n      lt\n      tag_460\n      jumpi\n      invalid\n    tag_460:\n      swap1\n      0x00\n      mstore\n      keccak256(0x00, 0x20)\n      swap1\n      0x09\n      mul\n      add\n        /* \"TimeAlly.sol\":30036:30086  stakings[msg.sender][ _stakingIds[i] ].exaEsAmount */\n      0x00\n      add\n      sload\n        /* \"TimeAlly.sol\":29961:29985  _userStakingsExaEsAmount */\n      dup4\n        /* \"TimeAlly.sol\":29961:30010  _userStakingsExaEsAmount... */\n      tag_199\n      swap1\n        /* \"TimeAlly.sol\":29961:30104  _userStakingsExaEsAmount... */\n      swap2\n      swap1\n      0xffffffff\n      and\n      jump\t// in\n    tag_458:\n        /* \"TimeAlly.sol\":29934:30104  _userStakingsExaEsAmount = _userStakingsExaEsAmount... */\n      swap2\n      pop\n        /* \"TimeAlly.sol\":30178:30203  uint256 stakingStartMonth */\n      0x00\n        /* \"TimeAlly.sol\":30206:30214  stakings */\n      0x07\n        /* \"TimeAlly.sol\":30206:30226  stakings[msg.sender] */\n      0x00\n        /* \"TimeAlly.sol\":30215:30225  msg.sender */\n      caller\n        /* \"TimeAlly.sol\":30206:30226  stakings[msg.sender] */\n      0xffffffffffffffffffffffffffffffffffffffff\n      and\n      0xffffffffffffffffffffffffffffffffffffffff\n      and\n      dup2\n      mstore\n      0x20\n      add\n      swap1\n      dup2\n      mstore\n      0x20\n      add\n      0x00\n      keccak256\n        /* \"TimeAlly.sol\":30227:30238  _stakingIds */\n      dup6\n        /* \"TimeAlly.sol\":30239:30240  i */\n      dup4\n        /* \"TimeAlly.sol\":30227:30241  _stakingIds[i] */\n      dup2\n      mload\n      dup2\n      lt\n      tag_462\n      jumpi\n      invalid\n    tag_462:\n      0x20\n      mul\n      0x20\n      add\n      add\n      mload\n        /* \"TimeAlly.sol\":30206:30242  stakings[msg.sender][_stakingIds[i]] */\n      dup2\n      sload\n      dup2\n      lt\n      tag_463\n      jumpi\n      invalid\n    tag_463:\n      swap1\n      0x00\n      mstore\n      keccak256(0x00, 0x20)\n      swap1\n      0x09\n      mul\n      add\n        /* \"TimeAlly.sol\":30206:30255  stakings[msg.sender][_stakingIds[i]].stakingMonth */\n      0x02\n      add\n      sload\n        /* \"TimeAlly.sol\":30178:30255  uint256 stakingStartMonth = stakings[msg.sender][_stakingIds[i]].stakingMonth */\n      swap1\n      pop\n        /* \"TimeAlly.sol\":30274:30295  uint256 stakeEndMonth */\n      0x00\n        /* \"TimeAlly.sol\":30318:30330  stakingPlans */\n      0x05\n        /* \"TimeAlly.sol\":30331:30339  stakings */\n      0x07\n        /* \"TimeAlly.sol\":30331:30351  stakings[msg.sender] */\n      0x00\n        /* \"TimeAlly.sol\":30340:30350  msg.sender */\n      caller\n        /* \"TimeAlly.sol\":30331:30351  stakings[msg.sender] */\n      0xffffffffffffffffffffffffffffffffffffffff\n      and\n      0xffffffffffffffffffffffffffffffffffffffff\n      and\n      dup2\n      mstore\n      0x20\n      add\n      swap1\n      dup2\n      mstore\n      0x20\n      add\n      0x00\n      keccak256\n        /* \"TimeAlly.sol\":30352:30363  _stakingIds */\n      dup8\n        /* \"TimeAlly.sol\":30364:30365  i */\n      dup6\n        /* \"TimeAlly.sol\":30352:30366  _stakingIds[i] */\n      dup2\n      mload\n      dup2\n      lt\n      tag_465\n      jumpi\n      invalid\n    tag_465:\n      0x20\n      mul\n      0x20\n      add\n      add\n      mload\n        /* \"TimeAlly.sol\":30331:30367  stakings[msg.sender][_stakingIds[i]] */\n      dup2\n      sload\n      dup2\n      lt\n      tag_466\n      jumpi\n      invalid\n    tag_466:\n      swap1\n      0x00\n      mstore\n      keccak256(0x00, 0x20)\n      swap1\n      0x09\n      mul\n      add\n        /* \"TimeAlly.sol\":30331:30381  stakings[msg.sender][_stakingIds[i]].stakingPlanId */\n      0x03\n      add\n      sload\n        /* \"TimeAlly.sol\":30318:30382  stakingPlans[stakings[msg.sender][_stakingIds[i]].stakingPlanId] */\n      dup2\n      sload\n      dup2\n      lt\n      tag_468\n      jumpi\n      invalid\n    tag_468:\n      swap1\n      0x00\n      mstore\n      keccak256(0x00, 0x20)\n      swap1\n      0x03\n      mul\n      add\n        /* \"TimeAlly.sol\":30318:30389  stakingPlans[stakings[msg.sender][_stakingIds[i]].stakingPlanId].months */\n      0x00\n      add\n      sload\n        /* \"TimeAlly.sol\":30298:30315  stakingStartMonth */\n      dup3\n        /* \"TimeAlly.sol\":30298:30389  stakingStartMonth + stakingPlans[stakings[msg.sender][_stakingIds[i]].stakingPlanId].months */\n      add\n        /* \"TimeAlly.sol\":30274:30389  uint256 stakeEndMonth = stakingStartMonth + stakingPlans[stakings[msg.sender][_stakingIds[i]].stakingPlanId].months */\n      swap1\n      pop\n        /* \"TimeAlly.sol\":30412:30421  uint256 j */\n      0x00\n        /* \"TimeAlly.sol\":30440:30441  1 */\n      0x01\n        /* \"TimeAlly.sol\":30424:30437  _currentMonth */\n      dup7\n        /* \"TimeAlly.sol\":30424:30441  _currentMonth + 1 */\n      add\n        /* \"TimeAlly.sol\":30412:30441  uint256 j = _currentMonth + 1 */\n      swap1\n      pop\n        /* \"TimeAlly.sol\":30408:30586  for(uint256 j = _currentMonth + 1; j <= stakeEndMonth; j++) {... */\n    tag_470:\n        /* \"TimeAlly.sol\":30448:30461  stakeEndMonth */\n      dup2\n        /* \"TimeAlly.sol\":30443:30444  j */\n      dup2\n        /* \"TimeAlly.sol\":30443:30461  j <= stakeEndMonth */\n      gt\n        /* \"TimeAlly.sol\":30408:30586  for(uint256 j = _currentMonth + 1; j <= stakeEndMonth; j++) {... */\n      tag_471\n      jumpi\n        /* \"TimeAlly.sol\":30515:30567  totalActiveStakings[j].sub(_userStakingsExaEsAmount) */\n      tag_473\n        /* \"TimeAlly.sol\":30542:30566  _userStakingsExaEsAmount */\n      dup6\n        /* \"TimeAlly.sol\":30515:30534  totalActiveStakings */\n      0x0a\n        /* \"TimeAlly.sol\":30515:30537  totalActiveStakings[j] */\n      0x00\n        /* \"TimeAlly.sol\":30535:30536  j */\n      dup5\n        /* \"TimeAlly.sol\":30515:30537  totalActiveStakings[j] */\n      dup2\n      mstore\n      0x20\n      add\n      swap1\n      dup2\n      mstore\n      0x20\n      add\n      0x00\n      keccak256\n      sload\n        /* \"TimeAlly.sol\":30515:30541  totalActiveStakings[j].sub */\n      tag_205\n      swap1\n        /* \"TimeAlly.sol\":30515:30567  totalActiveStakings[j].sub(_userStakingsExaEsAmount) */\n      swap2\n      swap1\n      0xffffffff\n      and\n      jump\t// in\n    tag_473:\n        /* \"TimeAlly.sol\":30490:30509  totalActiveStakings */\n      0x0a\n        /* \"TimeAlly.sol\":30490:30512  totalActiveStakings[j] */\n      0x00\n        /* \"TimeAlly.sol\":30510:30511  j */\n      dup4\n        /* \"TimeAlly.sol\":30490:30512  totalActiveStakings[j] */\n      dup2\n      mstore\n      0x20\n      add\n      swap1\n      dup2\n      mstore\n      0x20\n      add\n      0x00\n      keccak256\n        /* \"TimeAlly.sol\":30490:30567  totalActiveStakings[j] = totalActiveStakings[j].sub(_userStakingsExaEsAmount) */\n      dup2\n      swap1\n      sstore\n      pop\n        /* \"TimeAlly.sol\":30463:30466  j++ */\n      dup1\n      dup1\n      0x01\n      add\n      swap2\n      pop\n      pop\n        /* \"TimeAlly.sol\":30408:30586  for(uint256 j = _currentMonth + 1; j <= stakeEndMonth; j++) {... */\n      jump(tag_470)\n    tag_471:\n      pop\n        /* \"TimeAlly.sol\":30655:30664  uint256 j */\n      0x00\n        /* \"TimeAlly.sol\":30667:30668  1 */\n      0x01\n        /* \"TimeAlly.sol\":30655:30668  uint256 j = 1 */\n      swap1\n      pop\n        /* \"TimeAlly.sol\":30651:30925  for(uint256 j = 1; j <= loanPlans[_loanPlanId].loanMonths; j++) {... */\n    tag_474:\n        /* \"TimeAlly.sol\":30675:30684  loanPlans */\n      0x06\n        /* \"TimeAlly.sol\":30685:30696  _loanPlanId */\n      dup10\n        /* \"TimeAlly.sol\":30675:30697  loanPlans[_loanPlanId] */\n      dup2\n      sload\n      dup2\n      lt\n      tag_477\n      jumpi\n      invalid\n    tag_477:\n      swap1\n      0x00\n      mstore\n      keccak256(0x00, 0x20)\n      swap1\n      0x02\n      mul\n      add\n        /* \"TimeAlly.sol\":30675:30708  loanPlans[_loanPlanId].loanMonths */\n      0x00\n      add\n      sload\n        /* \"TimeAlly.sol\":30670:30671  j */\n      dup2\n        /* \"TimeAlly.sol\":30670:30708  j <= loanPlans[_loanPlanId].loanMonths */\n      gt\n        /* \"TimeAlly.sol\":30651:30925  for(uint256 j = 1; j <= loanPlans[_loanPlanId].loanMonths; j++) {... */\n      tag_475\n      jumpi\n        /* \"TimeAlly.sol\":30814:30818  true */\n      0x01\n        /* \"TimeAlly.sol\":30737:30745  stakings */\n      0x07\n        /* \"TimeAlly.sol\":30737:30757  stakings[msg.sender] */\n      0x00\n        /* \"TimeAlly.sol\":30746:30756  msg.sender */\n      caller\n        /* \"TimeAlly.sol\":30737:30757  stakings[msg.sender] */\n      0xffffffffffffffffffffffffffffffffffffffff\n      and\n      0xffffffffffffffffffffffffffffffffffffffff\n      and\n      dup2\n      mstore\n      0x20\n      add\n      swap1\n      dup2\n      mstore\n      0x20\n      add\n      0x00\n      keccak256\n        /* \"TimeAlly.sol\":30759:30770  _stakingIds */\n      dup9\n        /* \"TimeAlly.sol\":30771:30772  i */\n      dup7\n        /* \"TimeAlly.sol\":30759:30773  _stakingIds[i] */\n      dup2\n      mload\n      dup2\n      lt\n      tag_479\n      jumpi\n      invalid\n    tag_479:\n      0x20\n      mul\n      0x20\n      add\n      add\n      mload\n        /* \"TimeAlly.sol\":30737:30775  stakings[msg.sender][ _stakingIds[i] ] */\n      dup2\n      sload\n      dup2\n      lt\n      tag_480\n      jumpi\n      invalid\n    tag_480:\n      swap1\n      0x00\n      mstore\n      keccak256(0x00, 0x20)\n      swap1\n      0x09\n      mul\n      add\n        /* \"TimeAlly.sol\":30737:30790  stakings[msg.sender][ _stakingIds[i] ].isMonthClaimed */\n      0x07\n      add\n        /* \"TimeAlly.sol\":30737:30811  stakings[msg.sender][ _stakingIds[i] ].isMonthClaimed[ _currentMonth + j ] */\n      0x00\n        /* \"TimeAlly.sol\":30808:30809  j */\n      dup4\n        /* \"TimeAlly.sol\":30792:30805  _currentMonth */\n      dup10\n        /* \"TimeAlly.sol\":30792:30809  _currentMonth + j */\n      add\n        /* \"TimeAlly.sol\":30737:30811  stakings[msg.sender][ _stakingIds[i] ].isMonthClaimed[ _currentMonth + j ] */\n      dup2\n      mstore\n      0x20\n      add\n      swap1\n      dup2\n      mstore\n      0x20\n      add\n      0x00\n      keccak256\n      0x00\n        /* \"TimeAlly.sol\":30737:30818  stakings[msg.sender][ _stakingIds[i] ].isMonthClaimed[ _currentMonth + j ] = true */\n      0x0100\n      exp\n      dup2\n      sload\n      dup2\n      0xff\n      mul\n      not\n      and\n      swap1\n      dup4\n      iszero\n      iszero\n      mul\n      or\n      swap1\n      sstore\n      pop\n        /* \"TimeAlly.sol\":30888:30889  2 */\n      0x02\n        /* \"TimeAlly.sol\":30840:30848  stakings */\n      0x07\n        /* \"TimeAlly.sol\":30840:30860  stakings[msg.sender] */\n      0x00\n        /* \"TimeAlly.sol\":30849:30859  msg.sender */\n      caller\n        /* \"TimeAlly.sol\":30840:30860  stakings[msg.sender] */\n      0xffffffffffffffffffffffffffffffffffffffff\n      and\n      0xffffffffffffffffffffffffffffffffffffffff\n      and\n      dup2\n      mstore\n      0x20\n      add\n      swap1\n      dup2\n      mstore\n      0x20\n      add\n      0x00\n      keccak256\n        /* \"TimeAlly.sol\":30862:30873  _stakingIds */\n      dup9\n        /* \"TimeAlly.sol\":30874:30875  i */\n      dup7\n        /* \"TimeAlly.sol\":30862:30876  _stakingIds[i] */\n      dup2\n      mload\n      dup2\n      lt\n      tag_482\n      jumpi\n      invalid\n    tag_482:\n      0x20\n      mul\n      0x20\n      add\n      add\n      mload\n        /* \"TimeAlly.sol\":30840:30878  stakings[msg.sender][ _stakingIds[i] ] */\n      dup2\n      sload\n      dup2\n      lt\n      tag_483\n      jumpi\n      invalid\n    tag_483:\n      swap1\n      0x00\n      mstore\n      keccak256(0x00, 0x20)\n      swap1\n      0x09\n      mul\n      add\n        /* \"TimeAlly.sol\":30840:30885  stakings[msg.sender][ _stakingIds[i] ].status */\n      0x04\n      add\n        /* \"TimeAlly.sol\":30840:30889  stakings[msg.sender][ _stakingIds[i] ].status = 2 */\n      dup2\n      swap1\n      sstore\n      pop\n        /* \"TimeAlly.sol\":30710:30713  j++ */\n      dup1\n      dup1\n      0x01\n      add\n      swap2\n      pop\n      pop\n        /* \"TimeAlly.sol\":30651:30925  for(uint256 j = 1; j <= loanPlans[_loanPlanId].loanMonths; j++) {... */\n      jump(tag_474)\n    tag_475:\n      pop\n        /* \"TimeAlly.sol\":29692:30939  if( isStakingActive(msg.sender, _stakingIds[i], _currentMonth)... */\n      pop\n      pop\n    tag_457:\n        /* \"TimeAlly.sol\":29672:29675  i++ */\n      dup1\n      dup1\n      0x01\n      add\n      swap2\n      pop\n      pop\n        /* \"TimeAlly.sol\":29629:30949  for(uint256 i = 0; i < _stakingIds.length; i++) {... */\n      jump(tag_446)\n    tag_447:\n      pop\n        /* \"TimeAlly.sol\":30959:30984  uint256 _maxLoaningAmount */\n      0x00\n        /* \"TimeAlly.sol\":30987:31018  _userStakingsExaEsAmount.div(2) */\n      tag_485\n        /* \"TimeAlly.sol\":31016:31017  2 */\n      0x02\n        /* \"TimeAlly.sol\":30987:31011  _userStakingsExaEsAmount */\n      dup4\n        /* \"TimeAlly.sol\":30987:31015  _userStakingsExaEsAmount.div */\n      tag_237\n      swap1\n        /* \"TimeAlly.sol\":30987:31018  _userStakingsExaEsAmount.div(2) */\n      swap2\n      swap1\n      0xffffffff\n      and\n      jump\t// in\n    tag_485:\n        /* \"TimeAlly.sol\":30959:31018  uint256 _maxLoaningAmount = _userStakingsExaEsAmount.div(2) */\n      swap1\n      pop\n        /* \"TimeAlly.sol\":31047:31064  _maxLoaningAmount */\n      dup1\n        /* \"TimeAlly.sol\":31032:31044  _exaEsAmount */\n      dup6\n        /* \"TimeAlly.sol\":31032:31064  _exaEsAmount > _maxLoaningAmount */\n      gt\n        /* \"TimeAlly.sol\":31029:31178  if(_exaEsAmount > _maxLoaningAmount) {... */\n      iszero\n      tag_486\n      jumpi\n        /* \"TimeAlly.sol\":31088:31093  false */\n      0x00\n        /* \"TimeAlly.sol\":31080:31167  require(false... */\n      tag_487\n      jumpi\n      0x00\n      dup1\n      revert\n    tag_487:\n        /* \"TimeAlly.sol\":31029:31178  if(_exaEsAmount > _maxLoaningAmount) {... */\n    tag_486:\n        /* \"TimeAlly.sol\":31189:31210  uint256 _loanInterest */\n      0x00\n        /* \"TimeAlly.sol\":31213:31271  _exaEsAmount.mul(loanPlans[_loanPlanId].loanRate).div(100) */\n      tag_488\n        /* \"TimeAlly.sol\":31267:31270  100 */\n      0x64\n        /* \"TimeAlly.sol\":31213:31262  _exaEsAmount.mul(loanPlans[_loanPlanId].loanRate) */\n      tag_489\n        /* \"TimeAlly.sol\":31230:31239  loanPlans */\n      0x06\n        /* \"TimeAlly.sol\":31240:31251  _loanPlanId */\n      dup11\n        /* \"TimeAlly.sol\":31230:31252  loanPlans[_loanPlanId] */\n      dup2\n      sload\n      dup2\n      lt\n      tag_490\n      jumpi\n      invalid\n    tag_490:\n      swap1\n      0x00\n      mstore\n      keccak256(0x00, 0x20)\n      swap1\n      0x02\n      mul\n      add\n        /* \"TimeAlly.sol\":31230:31261  loanPlans[_loanPlanId].loanRate */\n      0x01\n      add\n      sload\n        /* \"TimeAlly.sol\":31213:31225  _exaEsAmount */\n      dup10\n        /* \"TimeAlly.sol\":31213:31229  _exaEsAmount.mul */\n      tag_177\n      swap1\n        /* \"TimeAlly.sol\":31213:31262  _exaEsAmount.mul(loanPlans[_loanPlanId].loanRate) */\n      swap2\n      swap1\n      0xffffffff\n      and\n      jump\t// in\n    tag_489:\n        /* \"TimeAlly.sol\":31213:31266  _exaEsAmount.mul(loanPlans[_loanPlanId].loanRate).div */\n      tag_237\n      swap1\n        /* \"TimeAlly.sol\":31213:31271  _exaEsAmount.mul(loanPlans[_loanPlanId].loanRate).div(100) */\n      swap2\n      swap1\n      0xffffffff\n      and\n      jump\t// in\n    tag_488:\n        /* \"TimeAlly.sol\":31189:31271  uint256 _loanInterest = _exaEsAmount.mul(loanPlans[_loanPlanId].loanRate).div(100) */\n      swap1\n      pop\n        /* \"TimeAlly.sol\":31281:31310  uint256 _loanAmountToTransfer */\n      0x00\n        /* \"TimeAlly.sol\":31313:31344  _exaEsAmount.sub(_loanInterest) */\n      tag_492\n        /* \"TimeAlly.sol\":31330:31343  _loanInterest */\n      dup3\n        /* \"TimeAlly.sol\":31313:31325  _exaEsAmount */\n      dup9\n        /* \"TimeAlly.sol\":31313:31329  _exaEsAmount.sub */\n      tag_205\n      swap1\n        /* \"TimeAlly.sol\":31313:31344  _exaEsAmount.sub(_loanInterest) */\n      swap2\n      swap1\n      0xffffffff\n      and\n      jump\t// in\n    tag_492:\n        /* \"TimeAlly.sol\":31281:31344  uint256 _loanAmountToTransfer = _exaEsAmount.sub(_loanInterest) */\n      swap1\n      pop\n        /* \"TimeAlly.sol\":31364:31369  token */\n      0x02\n      0x00\n      swap1\n      sload\n      swap1\n      0x0100\n      exp\n      swap1\n      div\n      0xffffffffffffffffffffffffffffffffffffffff\n      and\n        /* \"TimeAlly.sol\":31364:31378  token.transfer */\n      0xffffffffffffffffffffffffffffffffffffffff\n      and\n      0xa9059cbb\n        /* \"TimeAlly.sol\":31387:31397  nrtManager */\n      0x03\n      0x00\n      swap1\n      sload\n      swap1\n      0x0100\n      exp\n      swap1\n      div\n      0xffffffffffffffffffffffffffffffffffffffff\n      and\n        /* \"TimeAlly.sol\":31400:31413  _loanInterest */\n      dup5\n        /* \"TimeAlly.sol\":31364:31414  token.transfer(address(nrtManager), _loanInterest) */\n      mload(0x40)\n      dup4\n      0xffffffff\n      and\n      0xe0\n      shl\n      dup2\n      mstore\n      0x04\n      add\n      dup1\n      dup4\n      0xffffffffffffffffffffffffffffffffffffffff\n      and\n      0xffffffffffffffffffffffffffffffffffffffff\n      and\n      dup2\n      mstore\n      0x20\n      add\n      dup3\n      dup2\n      mstore\n      0x20\n      add\n      swap3\n      pop\n      pop\n      pop\n      0x20\n      mload(0x40)\n      dup1\n      dup4\n      sub\n      dup2\n      0x00\n      dup8\n      dup1\n      extcodesize\n      iszero\n        /* \"--CODEGEN--\":8:17   */\n      dup1\n        /* \"--CODEGEN--\":5:7   */\n      iszero\n      tag_493\n      jumpi\n        /* \"--CODEGEN--\":30:31   */\n      0x00\n        /* \"--CODEGEN--\":27:28   */\n      dup1\n        /* \"--CODEGEN--\":20:32   */\n      revert\n        /* \"--CODEGEN--\":5:7   */\n    tag_493:\n        /* \"TimeAlly.sol\":31364:31414  token.transfer(address(nrtManager), _loanInterest) */\n      pop\n      gas\n      call\n      iszero\n        /* \"--CODEGEN--\":8:17   */\n      dup1\n        /* \"--CODEGEN--\":5:7   */\n      iszero\n      tag_494\n      jumpi\n        /* \"--CODEGEN--\":45:61   */\n      returndatasize\n        /* \"--CODEGEN--\":42:43   */\n      0x00\n        /* \"--CODEGEN--\":39:40   */\n      dup1\n        /* \"--CODEGEN--\":24:62   */\n      returndatacopy\n        /* \"--CODEGEN--\":77:93   */\n      returndatasize\n        /* \"--CODEGEN--\":74:75   */\n      0x00\n        /* \"--CODEGEN--\":67:94   */\n      revert\n        /* \"--CODEGEN--\":5:7   */\n    tag_494:\n        /* \"TimeAlly.sol\":31364:31414  token.transfer(address(nrtManager), _loanInterest) */\n      pop\n      pop\n      pop\n      pop\n      mload(0x40)\n      returndatasize\n        /* \"--CODEGEN--\":13:15   */\n      0x20\n        /* \"--CODEGEN--\":8:11   */\n      dup2\n        /* \"--CODEGEN--\":5:16   */\n      lt\n        /* \"--CODEGEN--\":2:4   */\n      iszero\n      tag_495\n      jumpi\n        /* \"--CODEGEN--\":29:30   */\n      0x00\n        /* \"--CODEGEN--\":26:27   */\n      dup1\n        /* \"--CODEGEN--\":19:31   */\n      revert\n        /* \"--CODEGEN--\":2:4   */\n    tag_495:\n        /* \"TimeAlly.sol\":31364:31414  token.transfer(address(nrtManager), _loanInterest) */\n      dup2\n      add\n      swap1\n      dup1\n      dup1\n      mload\n      swap1\n      0x20\n      add\n      swap1\n      swap3\n      swap2\n      swap1\n      pop\n      pop\n      pop\n        /* \"TimeAlly.sol\":31355:31416  require( token.transfer(address(nrtManager), _loanInterest) ) */\n      tag_496\n      jumpi\n      0x00\n      dup1\n      revert\n    tag_496:\n        /* \"TimeAlly.sol\":31435:31445  nrtManager */\n      0x03\n      0x00\n      swap1\n      sload\n      swap1\n      0x0100\n      exp\n      swap1\n      div\n      0xffffffffffffffffffffffffffffffffffffffff\n      and\n        /* \"TimeAlly.sol\":31435:31460  nrtManager.UpdateLuckpool */\n      0xffffffffffffffffffffffffffffffffffffffff\n      and\n      0x382e2aab\n        /* \"TimeAlly.sol\":31461:31474  _loanInterest */\n      dup4\n        /* \"TimeAlly.sol\":31435:31475  nrtManager.UpdateLuckpool(_loanInterest) */\n      mload(0x40)\n      dup3\n      0xffffffff\n      and\n      0xe0\n      shl\n      dup2\n      mstore\n      0x04\n      add\n      dup1\n      dup3\n      dup2\n      mstore\n      0x20\n      add\n      swap2\n      pop\n      pop\n      0x20\n      mload(0x40)\n      dup1\n      dup4\n      sub\n      dup2\n      0x00\n      dup8\n      dup1\n      extcodesize\n      iszero\n        /* \"--CODEGEN--\":8:17   */\n      dup1\n        /* \"--CODEGEN--\":5:7   */\n      iszero\n      tag_497\n      jumpi\n        /* \"--CODEGEN--\":30:31   */\n      0x00\n        /* \"--CODEGEN--\":27:28   */\n      dup1\n        /* \"--CODEGEN--\":20:32   */\n      revert\n        /* \"--CODEGEN--\":5:7   */\n    tag_497:\n        /* \"TimeAlly.sol\":31435:31475  nrtManager.UpdateLuckpool(_loanInterest) */\n      pop\n      gas\n      call\n      iszero\n        /* \"--CODEGEN--\":8:17   */\n      dup1\n        /* \"--CODEGEN--\":5:7   */\n      iszero\n      tag_498\n      jumpi\n        /* \"--CODEGEN--\":45:61   */\n      returndatasize\n        /* \"--CODEGEN--\":42:43   */\n      0x00\n        /* \"--CODEGEN--\":39:40   */\n      dup1\n        /* \"--CODEGEN--\":24:62   */\n      returndatacopy\n        /* \"--CODEGEN--\":77:93   */\n      returndatasize\n        /* \"--CODEGEN--\":74:75   */\n      0x00\n        /* \"--CODEGEN--\":67:94   */\n      revert\n        /* \"--CODEGEN--\":5:7   */\n    tag_498:\n        /* \"TimeAlly.sol\":31435:31475  nrtManager.UpdateLuckpool(_loanInterest) */\n      pop\n      pop\n      pop\n      pop\n      mload(0x40)\n      returndatasize\n        /* \"--CODEGEN--\":13:15   */\n      0x20\n        /* \"--CODEGEN--\":8:11   */\n      dup2\n        /* \"--CODEGEN--\":5:16   */\n      lt\n        /* \"--CODEGEN--\":2:4   */\n      iszero\n      tag_499\n      jumpi\n        /* \"--CODEGEN--\":29:30   */\n      0x00\n        /* \"--CODEGEN--\":26:27   */\n      dup1\n        /* \"--CODEGEN--\":19:31   */\n      revert\n        /* \"--CODEGEN--\":2:4   */\n    tag_499:\n        /* \"TimeAlly.sol\":31435:31475  nrtManager.UpdateLuckpool(_loanInterest) */\n      dup2\n      add\n      swap1\n      dup1\n      dup1\n      mload\n      swap1\n      0x20\n      add\n      swap1\n      swap3\n      swap2\n      swap1\n      pop\n      pop\n      pop\n        /* \"TimeAlly.sol\":31426:31477  require( nrtManager.UpdateLuckpool(_loanInterest) ) */\n      tag_500\n      jumpi\n      0x00\n      dup1\n      revert\n    tag_500:\n        /* \"TimeAlly.sol\":31488:31493  loans */\n      0x08\n        /* \"TimeAlly.sol\":31488:31505  loans[msg.sender] */\n      0x00\n        /* \"TimeAlly.sol\":31494:31504  msg.sender */\n      caller\n        /* \"TimeAlly.sol\":31488:31505  loans[msg.sender] */\n      0xffffffffffffffffffffffffffffffffffffffff\n      and\n      0xffffffffffffffffffffffffffffffffffffffff\n      and\n      dup2\n      mstore\n      0x20\n      add\n      swap1\n      dup2\n      mstore\n      0x20\n      add\n      0x00\n      keccak256\n        /* \"TimeAlly.sol\":31511:31699  Loan({... */\n      mload(0x40)\n      dup1\n      0xa0\n      add\n      0x40\n      mstore\n      dup1\n        /* \"TimeAlly.sol\":31543:31555  _exaEsAmount */\n      dup10\n        /* \"TimeAlly.sol\":31511:31699  Loan({... */\n      dup2\n      mstore\n      0x20\n      add\n        /* \"TimeAlly.sol\":31580:31585  token */\n      0x02\n      0x00\n      swap1\n      sload\n      swap1\n      0x0100\n      exp\n      swap1\n      div\n      0xffffffffffffffffffffffffffffffffffffffff\n      and\n        /* \"TimeAlly.sol\":31580:31589  token.mou */\n      0xffffffffffffffffffffffffffffffffffffffff\n      and\n      0xb81f90f3\n        /* \"TimeAlly.sol\":31580:31591  token.mou() */\n      mload(0x40)\n      dup2\n      0xffffffff\n      and\n      0xe0\n      shl\n      dup2\n      mstore\n      0x04\n      add\n      0x20\n      mload(0x40)\n      dup1\n      dup4\n      sub\n      dup2\n      dup7\n      dup1\n      extcodesize\n      iszero\n        /* \"--CODEGEN--\":8:17   */\n      dup1\n        /* \"--CODEGEN--\":5:7   */\n      iszero\n      tag_501\n      jumpi\n        /* \"--CODEGEN--\":30:31   */\n      0x00\n        /* \"--CODEGEN--\":27:28   */\n      dup1\n        /* \"--CODEGEN--\":20:32   */\n      revert\n        /* \"--CODEGEN--\":5:7   */\n    tag_501:\n        /* \"TimeAlly.sol\":31580:31591  token.mou() */\n      pop\n      gas\n      staticcall\n      iszero\n        /* \"--CODEGEN--\":8:17   */\n      dup1\n        /* \"--CODEGEN--\":5:7   */\n      iszero\n      tag_502\n      jumpi\n        /* \"--CODEGEN--\":45:61   */\n      returndatasize\n        /* \"--CODEGEN--\":42:43   */\n      0x00\n        /* \"--CODEGEN--\":39:40   */\n      dup1\n        /* \"--CODEGEN--\":24:62   */\n      returndatacopy\n        /* \"--CODEGEN--\":77:93   */\n      returndatasize\n        /* \"--CODEGEN--\":74:75   */\n      0x00\n        /* \"--CODEGEN--\":67:94   */\n      revert\n        /* \"--CODEGEN--\":5:7   */\n    tag_502:\n        /* \"TimeAlly.sol\":31580:31591  token.mou() */\n      pop\n      pop\n      pop\n      pop\n      mload(0x40)\n      returndatasize\n        /* \"--CODEGEN--\":13:15   */\n      0x20\n        /* \"--CODEGEN--\":8:11   */\n      dup2\n        /* \"--CODEGEN--\":5:16   */\n      lt\n        /* \"--CODEGEN--\":2:4   */\n      iszero\n      tag_503\n      jumpi\n        /* \"--CODEGEN--\":29:30   */\n      0x00\n        /* \"--CODEGEN--\":26:27   */\n      dup1\n        /* \"--CODEGEN--\":19:31   */\n      revert\n        /* \"--CODEGEN--\":2:4   */\n    tag_503:\n        /* \"TimeAlly.sol\":31580:31591  token.mou() */\n      dup2\n      add\n      swap1\n      dup1\n      dup1\n      mload\n      swap1\n      0x20\n      add\n      swap1\n      swap3\n      swap2\n      swap1\n      pop\n      pop\n      pop\n        /* \"TimeAlly.sol\":31511:31699  Loan({... */\n      dup2\n      mstore\n      0x20\n      add\n        /* \"TimeAlly.sol\":31617:31628  _loanPlanId */\n      dup11\n        /* \"TimeAlly.sol\":31511:31699  Loan({... */\n      dup2\n      mstore\n      0x20\n      add\n        /* \"TimeAlly.sol\":31650:31651  1 */\n      0x01\n        /* \"TimeAlly.sol\":31511:31699  Loan({... */\n      dup2\n      mstore\n      0x20\n      add\n        /* \"TimeAlly.sol\":31677:31688  _stakingIds */\n      dup9\n        /* \"TimeAlly.sol\":31511:31699  Loan({... */\n      dup2\n      mstore\n      pop\n        /* \"TimeAlly.sol\":31488:31700  loans[msg.sender].push(Loan({... */\n      swap1\n      dup1\n        /* \"--CODEGEN--\":39:40   */\n      0x01\n        /* \"--CODEGEN--\":33:36   */\n      dup2\n        /* \"--CODEGEN--\":27:37   */\n      sload\n        /* \"--CODEGEN--\":23:41   */\n      add\n        /* \"--CODEGEN--\":57:67   */\n      dup1\n        /* \"--CODEGEN--\":52:55   */\n      dup3\n        /* \"--CODEGEN--\":45:68   */\n      sstore\n        /* \"--CODEGEN--\":79:89   */\n      dup1\n        /* \"--CODEGEN--\":72:89   */\n      swap2\n      pop\n        /* \"--CODEGEN--\":0:93   */\n      pop\n        /* \"TimeAlly.sol\":31488:31700  loans[msg.sender].push(Loan({... */\n      swap1\n      0x01\n      dup3\n      sub\n      swap1\n      0x00\n      mstore\n      keccak256(0x00, 0x20)\n      swap1\n      0x05\n      mul\n      add\n      0x00\n      swap1\n      swap2\n      swap3\n      swap1\n      swap2\n      swap1\n      swap2\n      pop\n      0x00\n      dup3\n      add\n      mload\n      dup2\n      0x00\n      add\n      sstore\n      0x20\n      dup3\n      add\n      mload\n      dup2\n      0x01\n      add\n      sstore\n      0x40\n      dup3\n      add\n      mload\n      dup2\n      0x02\n      add\n      sstore\n      0x60\n      dup3\n      add\n      mload\n      dup2\n      0x03\n      add\n      sstore\n      0x80\n      dup3\n      add\n      mload\n      dup2\n      0x04\n      add\n      swap1\n      dup1\n      mload\n      swap1\n      0x20\n      add\n      swap1\n      tag_505\n      swap3\n      swap2\n      swap1\n      tag_506\n      jump\t// in\n    tag_505:\n      pop\n      pop\n      pop\n      pop\n        /* \"TimeAlly.sol\":31753:31758  token */\n      0x02\n      0x00\n      swap1\n      sload\n      swap1\n      0x0100\n      exp\n      swap1\n      div\n      0xffffffffffffffffffffffffffffffffffffffff\n      and\n        /* \"TimeAlly.sol\":31753:31767  token.transfer */\n      0xffffffffffffffffffffffffffffffffffffffff\n      and\n      0xa9059cbb\n        /* \"TimeAlly.sol\":31768:31778  msg.sender */\n      caller\n        /* \"TimeAlly.sol\":31780:31801  _loanAmountToTransfer */\n      dup4\n        /* \"TimeAlly.sol\":31753:31802  token.transfer(msg.sender, _loanAmountToTransfer) */\n      mload(0x40)\n      dup4\n      0xffffffff\n      and\n      0xe0\n      shl\n      dup2\n      mstore\n      0x04\n      add\n      dup1\n      dup4\n      0xffffffffffffffffffffffffffffffffffffffff\n      and\n      0xffffffffffffffffffffffffffffffffffffffff\n      and\n      dup2\n      mstore\n      0x20\n      add\n      dup3\n      dup2\n      mstore\n      0x20\n      add\n      swap3\n      pop\n      pop\n      pop\n      0x20\n      mload(0x40)\n      dup1\n      dup4\n      sub\n      dup2\n      0x00\n      dup8\n      dup1\n      extcodesize\n      iszero\n        /* \"--CODEGEN--\":8:17   */\n      dup1\n        /* \"--CODEGEN--\":5:7   */\n      iszero\n      tag_507\n      jumpi\n        /* \"--CODEGEN--\":30:31   */\n      0x00\n        /* \"--CODEGEN--\":27:28   */\n      dup1\n        /* \"--CODEGEN--\":20:32   */\n      revert\n        /* \"--CODEGEN--\":5:7   */\n    tag_507:\n        /* \"TimeAlly.sol\":31753:31802  token.transfer(msg.sender, _loanAmountToTransfer) */\n      pop\n      gas\n      call\n      iszero\n        /* \"--CODEGEN--\":8:17   */\n      dup1\n        /* \"--CODEGEN--\":5:7   */\n      iszero\n      tag_508\n      jumpi\n        /* \"--CODEGEN--\":45:61   */\n      returndatasize\n        /* \"--CODEGEN--\":42:43   */\n      0x00\n        /* \"--CODEGEN--\":39:40   */\n      dup1\n        /* \"--CODEGEN--\":24:62   */\n      returndatacopy\n        /* \"--CODEGEN--\":77:93   */\n      returndatasize\n        /* \"--CODEGEN--\":74:75   */\n      0x00\n        /* \"--CODEGEN--\":67:94   */\n      revert\n        /* \"--CODEGEN--\":5:7   */\n    tag_508:\n        /* \"TimeAlly.sol\":31753:31802  token.transfer(msg.sender, _loanAmountToTransfer) */\n      pop\n      pop\n      pop\n      pop\n      mload(0x40)\n      returndatasize\n        /* \"--CODEGEN--\":13:15   */\n      0x20\n        /* \"--CODEGEN--\":8:11   */\n      dup2\n        /* \"--CODEGEN--\":5:16   */\n      lt\n        /* \"--CODEGEN--\":2:4   */\n      iszero\n      tag_509\n      jumpi\n        /* \"--CODEGEN--\":29:30   */\n      0x00\n        /* \"--CODEGEN--\":26:27   */\n      dup1\n        /* \"--CODEGEN--\":19:31   */\n      revert\n        /* \"--CODEGEN--\":2:4   */\n    tag_509:\n        /* \"TimeAlly.sol\":31753:31802  token.transfer(msg.sender, _loanAmountToTransfer) */\n      dup2\n      add\n      swap1\n      dup1\n      dup1\n      mload\n      swap1\n      0x20\n      add\n      swap1\n      swap3\n      swap2\n      swap1\n      pop\n      pop\n      pop\n        /* \"TimeAlly.sol\":31744:31804  require( token.transfer(msg.sender, _loanAmountToTransfer) ) */\n      tag_510\n      jumpi\n      0x00\n      dup1\n      revert\n    tag_510:\n        /* \"TimeAlly.sol\":31840:31851  _loanPlanId */\n      dup8\n        /* \"TimeAlly.sol\":31828:31838  msg.sender */\n      caller\n        /* \"TimeAlly.sol\":31820:31911  NewLoan(msg.sender, _loanPlanId, _exaEsAmount, _loanInterest, loans[msg.sender].length - 1) */\n      0xffffffffffffffffffffffffffffffffffffffff\n      and\n      0x583f4a449110798c282200ea42774808b8147fa4bcb89a6ca406dd0650e034e7\n        /* \"TimeAlly.sol\":31853:31865  _exaEsAmount */\n      dup10\n        /* \"TimeAlly.sol\":31867:31880  _loanInterest */\n      dup6\n        /* \"TimeAlly.sol\":31909:31910  1 */\n      0x01\n        /* \"TimeAlly.sol\":31882:31887  loans */\n      0x08\n        /* \"TimeAlly.sol\":31882:31899  loans[msg.sender] */\n      0x00\n        /* \"TimeAlly.sol\":31888:31898  msg.sender */\n      caller\n        /* \"TimeAlly.sol\":31882:31899  loans[msg.sender] */\n      0xffffffffffffffffffffffffffffffffffffffff\n      and\n      0xffffffffffffffffffffffffffffffffffffffff\n      and\n      dup2\n      mstore\n      0x20\n      add\n      swap1\n      dup2\n      mstore\n      0x20\n      add\n      0x00\n      keccak256\n        /* \"TimeAlly.sol\":31882:31906  loans[msg.sender].length */\n      dup1\n      sload\n      swap1\n      pop\n        /* \"TimeAlly.sol\":31882:31910  loans[msg.sender].length - 1 */\n      sub\n        /* \"TimeAlly.sol\":31820:31911  NewLoan(msg.sender, _loanPlanId, _exaEsAmount, _loanInterest, loans[msg.sender].length - 1) */\n      mload(0x40)\n      dup1\n      dup5\n      dup2\n      mstore\n      0x20\n      add\n      dup4\n      dup2\n      mstore\n      0x20\n      add\n      dup3\n      dup2\n      mstore\n      0x20\n      add\n      swap4\n      pop\n      pop\n      pop\n      pop\n      mload(0x40)\n      dup1\n      swap2\n      sub\n      swap1\n      log3\n        /* \"TimeAlly.sol\":29186:31918  function takeLoanOnSelfStaking(uint256 _loanPlanId, uint256 _exaEsAmount, uint256[] memory _stakingIds) public {... */\n      pop\n      pop\n      pop\n      pop\n      pop\n      pop\n      pop\n      pop\n      jump\t// out\n        /* \"TimeAlly.sol\":12825:14155  function isStakingActive(... */\n    tag_138:\n        /* \"TimeAlly.sol\":12961:12965  bool */\n      0x00\n        /* \"TimeAlly.sol\":13256:13264  _atMonth */\n      dup2\n        /* \"TimeAlly.sol\":13251:13252  1 */\n      0x01\n        /* \"TimeAlly.sol\":13201:13209  stakings */\n      0x07\n        /* \"TimeAlly.sol\":13201:13223  stakings[_userAddress] */\n      0x00\n        /* \"TimeAlly.sol\":13210:13222  _userAddress */\n      dup8\n        /* \"TimeAlly.sol\":13201:13223  stakings[_userAddress] */\n      0xffffffffffffffffffffffffffffffffffffffff\n      and\n      0xffffffffffffffffffffffffffffffffffffffff\n      and\n      dup2\n      mstore\n      0x20\n      add\n      swap1\n      dup2\n      mstore\n      0x20\n      add\n      0x00\n      keccak256\n        /* \"TimeAlly.sol\":13224:13234  _stakingId */\n      dup6\n        /* \"TimeAlly.sol\":13201:13235  stakings[_userAddress][_stakingId] */\n      dup2\n      sload\n      dup2\n      lt\n      tag_512\n      jumpi\n      invalid\n    tag_512:\n      swap1\n      0x00\n      mstore\n      keccak256(0x00, 0x20)\n      swap1\n      0x09\n      mul\n      add\n        /* \"TimeAlly.sol\":13201:13248  stakings[_userAddress][_stakingId].stakingMonth */\n      0x02\n      add\n      sload\n        /* \"TimeAlly.sol\":13201:13252  stakings[_userAddress][_stakingId].stakingMonth + 1 */\n      add\n        /* \"TimeAlly.sol\":13201:13264  stakings[_userAddress][_stakingId].stakingMonth + 1 <= _atMonth */\n      gt\n      iszero\n        /* \"TimeAlly.sol\":13201:13488  stakings[_userAddress][_stakingId].stakingMonth + 1 <= _atMonth... */\n      dup1\n      iszero\n      tag_514\n      jumpi\n      pop\n        /* \"TimeAlly.sol\":13480:13488  _atMonth */\n      dup2\n        /* \"TimeAlly.sol\":13405:13417  stakingPlans */\n      0x05\n        /* \"TimeAlly.sol\":13419:13427  stakings */\n      0x07\n        /* \"TimeAlly.sol\":13419:13441  stakings[_userAddress] */\n      0x00\n        /* \"TimeAlly.sol\":13428:13440  _userAddress */\n      dup8\n        /* \"TimeAlly.sol\":13419:13441  stakings[_userAddress] */\n      0xffffffffffffffffffffffffffffffffffffffff\n      and\n      0xffffffffffffffffffffffffffffffffffffffff\n      and\n      dup2\n      mstore\n      0x20\n      add\n      swap1\n      dup2\n      mstore\n      0x20\n      add\n      0x00\n      keccak256\n        /* \"TimeAlly.sol\":13442:13452  _stakingId */\n      dup6\n        /* \"TimeAlly.sol\":13419:13453  stakings[_userAddress][_stakingId] */\n      dup2\n      sload\n      dup2\n      lt\n      tag_515\n      jumpi\n      invalid\n    tag_515:\n      swap1\n      0x00\n      mstore\n      keccak256(0x00, 0x20)\n      swap1\n      0x09\n      mul\n      add\n        /* \"TimeAlly.sol\":13419:13467  stakings[_userAddress][_stakingId].stakingPlanId */\n      0x03\n      add\n      sload\n        /* \"TimeAlly.sol\":13405:13469  stakingPlans[ stakings[_userAddress][_stakingId].stakingPlanId ] */\n      dup2\n      sload\n      dup2\n      lt\n      tag_517\n      jumpi\n      invalid\n    tag_517:\n      swap1\n      0x00\n      mstore\n      keccak256(0x00, 0x20)\n      swap1\n      0x03\n      mul\n      add\n        /* \"TimeAlly.sol\":13405:13476  stakingPlans[ stakings[_userAddress][_stakingId].stakingPlanId ].months */\n      0x00\n      add\n      sload\n        /* \"TimeAlly.sol\":13355:13363  stakings */\n      0x07\n        /* \"TimeAlly.sol\":13355:13377  stakings[_userAddress] */\n      0x00\n        /* \"TimeAlly.sol\":13364:13376  _userAddress */\n      dup8\n        /* \"TimeAlly.sol\":13355:13377  stakings[_userAddress] */\n      0xffffffffffffffffffffffffffffffffffffffff\n      and\n      0xffffffffffffffffffffffffffffffffffffffff\n      and\n      dup2\n      mstore\n      0x20\n      add\n      swap1\n      dup2\n      mstore\n      0x20\n      add\n      0x00\n      keccak256\n        /* \"TimeAlly.sol\":13378:13388  _stakingId */\n      dup6\n        /* \"TimeAlly.sol\":13355:13389  stakings[_userAddress][_stakingId] */\n      dup2\n      sload\n      dup2\n      lt\n      tag_519\n      jumpi\n      invalid\n    tag_519:\n      swap1\n      0x00\n      mstore\n      keccak256(0x00, 0x20)\n      swap1\n      0x09\n      mul\n      add\n        /* \"TimeAlly.sol\":13355:13402  stakings[_userAddress][_stakingId].stakingMonth */\n      0x02\n      add\n      sload\n        /* \"TimeAlly.sol\":13355:13476  stakings[_userAddress][_stakingId].stakingMonth + stakingPlans[ stakings[_userAddress][_stakingId].stakingPlanId ].months */\n      add\n        /* \"TimeAlly.sol\":13355:13488  stakings[_userAddress][_stakingId].stakingMonth + stakingPlans[ stakings[_userAddress][_stakingId].stakingPlanId ].months >= _atMonth */\n      lt\n      iszero\n        /* \"TimeAlly.sol\":13201:13488  stakings[_userAddress][_stakingId].stakingMonth + 1 <= _atMonth... */\n    tag_514:\n        /* \"TimeAlly.sol\":13201:13606  stakings[_userAddress][_stakingId].stakingMonth + 1 <= _atMonth... */\n      dup1\n      iszero\n      tag_521\n      jumpi\n      pop\n        /* \"TimeAlly.sol\":13605:13606  1 */\n      0x01\n        /* \"TimeAlly.sol\":13560:13568  stakings */\n      0x07\n        /* \"TimeAlly.sol\":13560:13582  stakings[_userAddress] */\n      0x00\n        /* \"TimeAlly.sol\":13569:13581  _userAddress */\n      dup7\n        /* \"TimeAlly.sol\":13560:13582  stakings[_userAddress] */\n      0xffffffffffffffffffffffffffffffffffffffff\n      and\n      0xffffffffffffffffffffffffffffffffffffffff\n      and\n      dup2\n      mstore\n      0x20\n      add\n      swap1\n      dup2\n      mstore\n      0x20\n      add\n      0x00\n      keccak256\n        /* \"TimeAlly.sol\":13583:13593  _stakingId */\n      dup5\n        /* \"TimeAlly.sol\":13560:13594  stakings[_userAddress][_stakingId] */\n      dup2\n      sload\n      dup2\n      lt\n      tag_522\n      jumpi\n      invalid\n    tag_522:\n      swap1\n      0x00\n      mstore\n      keccak256(0x00, 0x20)\n      swap1\n      0x09\n      mul\n      add\n        /* \"TimeAlly.sol\":13560:13601  stakings[_userAddress][_stakingId].status */\n      0x04\n      add\n      sload\n        /* \"TimeAlly.sol\":13560:13606  stakings[_userAddress][_stakingId].status == 1 */\n      eq\n        /* \"TimeAlly.sol\":13201:13606  stakings[_userAddress][_stakingId].stakingMonth + 1 <= _atMonth... */\n    tag_521:\n        /* \"TimeAlly.sol\":13201:14134  stakings[_userAddress][_stakingId].stakingMonth + 1 <= _atMonth... */\n      dup1\n      iszero\n      tag_524\n      jumpi\n      pop\n        /* \"TimeAlly.sol\":13787:13795  _atMonth */\n      dup2\n        /* \"TimeAlly.sol\":13766:13783  getCurrentMonth() */\n      tag_525\n        /* \"TimeAlly.sol\":13766:13781  getCurrentMonth */\n      tag_143\n        /* \"TimeAlly.sol\":13766:13783  getCurrentMonth() */\n      jump\t// in\n    tag_525:\n        /* \"TimeAlly.sol\":13766:13795  getCurrentMonth() != _atMonth */\n      eq\n      iszero\n        /* \"TimeAlly.sol\":13766:14118  getCurrentMonth() != _atMonth... */\n      dup1\n      tag_526\n      jumpi\n      pop\n        /* \"TimeAlly.sol\":13828:14118  stakings[_userAddress][_stakingId].timestamp... */\n      tag_527\n        /* \"TimeAlly.sol\":13933:14090  getCurrentMonth()... */\n      tag_528\n        /* \"TimeAlly.sol\":14070:14089  earthSecondsInMonth */\n      sload(0x04)\n        /* \"TimeAlly.sol\":13933:14034  getCurrentMonth()... */\n      tag_529\n        /* \"TimeAlly.sol\":13986:13994  stakings */\n      0x07\n        /* \"TimeAlly.sol\":13986:14008  stakings[_userAddress] */\n      0x00\n        /* \"TimeAlly.sol\":13995:14007  _userAddress */\n      dup10\n        /* \"TimeAlly.sol\":13986:14008  stakings[_userAddress] */\n      0xffffffffffffffffffffffffffffffffffffffff\n      and\n      0xffffffffffffffffffffffffffffffffffffffff\n      and\n      dup2\n      mstore\n      0x20\n      add\n      swap1\n      dup2\n      mstore\n      0x20\n      add\n      0x00\n      keccak256\n        /* \"TimeAlly.sol\":14009:14019  _stakingId */\n      dup8\n        /* \"TimeAlly.sol\":13986:14020  stakings[_userAddress][_stakingId] */\n      dup2\n      sload\n      dup2\n      lt\n      tag_530\n      jumpi\n      invalid\n    tag_530:\n      swap1\n      0x00\n      mstore\n      keccak256(0x00, 0x20)\n      swap1\n      0x09\n      mul\n      add\n        /* \"TimeAlly.sol\":13986:14033  stakings[_userAddress][_stakingId].stakingMonth */\n      0x02\n      add\n      sload\n        /* \"TimeAlly.sol\":13933:13950  getCurrentMonth() */\n      tag_532\n        /* \"TimeAlly.sol\":13933:13948  getCurrentMonth */\n      tag_143\n        /* \"TimeAlly.sol\":13933:13950  getCurrentMonth() */\n      jump\t// in\n    tag_532:\n        /* \"TimeAlly.sol\":13933:13985  getCurrentMonth()... */\n      tag_205\n      swap1\n        /* \"TimeAlly.sol\":13933:14034  getCurrentMonth()... */\n      swap2\n      swap1\n      0xffffffff\n      and\n      jump\t// in\n    tag_529:\n        /* \"TimeAlly.sol\":13933:14069  getCurrentMonth()... */\n      tag_177\n      swap1\n        /* \"TimeAlly.sol\":13933:14090  getCurrentMonth()... */\n      swap2\n      swap1\n      0xffffffff\n      and\n      jump\t// in\n    tag_528:\n        /* \"TimeAlly.sol\":13828:13836  stakings */\n      0x07\n        /* \"TimeAlly.sol\":13828:13850  stakings[_userAddress] */\n      0x00\n        /* \"TimeAlly.sol\":13837:13849  _userAddress */\n      dup8\n        /* \"TimeAlly.sol\":13828:13850  stakings[_userAddress] */\n      0xffffffffffffffffffffffffffffffffffffffff\n      and\n      0xffffffffffffffffffffffffffffffffffffffff\n      and\n      dup2\n      mstore\n      0x20\n      add\n      swap1\n      dup2\n      mstore\n      0x20\n      add\n      0x00\n      keccak256\n        /* \"TimeAlly.sol\":13851:13861  _stakingId */\n      dup6\n        /* \"TimeAlly.sol\":13828:13862  stakings[_userAddress][_stakingId] */\n      dup2\n      sload\n      dup2\n      lt\n      tag_533\n      jumpi\n      invalid\n    tag_533:\n      swap1\n      0x00\n      mstore\n      keccak256(0x00, 0x20)\n      swap1\n      0x09\n      mul\n      add\n        /* \"TimeAlly.sol\":13828:13872  stakings[_userAddress][_stakingId].timestamp */\n      0x01\n      add\n      sload\n        /* \"TimeAlly.sol\":13828:13903  stakings[_userAddress][_stakingId].timestamp... */\n      tag_199\n      swap1\n        /* \"TimeAlly.sol\":13828:14118  stakings[_userAddress][_stakingId].timestamp... */\n      swap2\n      swap1\n      0xffffffff\n      and\n      jump\t// in\n    tag_527:\n        /* \"TimeAlly.sol\":13813:13818  token */\n      0x02\n      0x00\n      swap1\n      sload\n      swap1\n      0x0100\n      exp\n      swap1\n      div\n      0xffffffffffffffffffffffffffffffffffffffff\n      and\n        /* \"TimeAlly.sol\":13813:13822  token.mou */\n      0xffffffffffffffffffffffffffffffffffffffff\n      and\n      0xb81f90f3\n        /* \"TimeAlly.sol\":13813:13824  token.mou() */\n      mload(0x40)\n      dup2\n      0xffffffff\n      and\n      0xe0\n      shl\n      dup2\n      mstore\n      0x04\n      add\n      0x20\n      mload(0x40)\n      dup1\n      dup4\n      sub\n      dup2\n      dup7\n      dup1\n      extcodesize\n      iszero\n        /* \"--CODEGEN--\":8:17   */\n      dup1\n        /* \"--CODEGEN--\":5:7   */\n      iszero\n      tag_535\n      jumpi\n        /* \"--CODEGEN--\":30:31   */\n      0x00\n        /* \"--CODEGEN--\":27:28   */\n      dup1\n        /* \"--CODEGEN--\":20:32   */\n      revert\n        /* \"--CODEGEN--\":5:7   */\n    tag_535:\n        /* \"TimeAlly.sol\":13813:13824  token.mou() */\n      pop\n      gas\n      staticcall\n      iszero\n        /* \"--CODEGEN--\":8:17   */\n      dup1\n        /* \"--CODEGEN--\":5:7   */\n      iszero\n      tag_536\n      jumpi\n        /* \"--CODEGEN--\":45:61   */\n      returndatasize\n        /* \"--CODEGEN--\":42:43   */\n      0x00\n        /* \"--CODEGEN--\":39:40   */\n      dup1\n        /* \"--CODEGEN--\":24:62   */\n      returndatacopy\n        /* \"--CODEGEN--\":77:93   */\n      returndatasize\n        /* \"--CODEGEN--\":74:75   */\n      0x00\n        /* \"--CODEGEN--\":67:94   */\n      revert\n        /* \"--CODEGEN--\":5:7   */\n    tag_536:\n        /* \"TimeAlly.sol\":13813:13824  token.mou() */\n      pop\n      pop\n      pop\n      pop\n      mload(0x40)\n      returndatasize\n        /* \"--CODEGEN--\":13:15   */\n      0x20\n        /* \"--CODEGEN--\":8:11   */\n      dup2\n        /* \"--CODEGEN--\":5:16   */\n      lt\n        /* \"--CODEGEN--\":2:4   */\n      iszero\n      tag_537\n      jumpi\n        /* \"--CODEGEN--\":29:30   */\n      0x00\n        /* \"--CODEGEN--\":26:27   */\n      dup1\n        /* \"--CODEGEN--\":19:31   */\n      revert\n        /* \"--CODEGEN--\":2:4   */\n    tag_537:\n        /* \"TimeAlly.sol\":13813:13824  token.mou() */\n      dup2\n      add\n      swap1\n      dup1\n      dup1\n      mload\n      swap1\n      0x20\n      add\n      swap1\n      swap3\n      swap2\n      swap1\n      pop\n      pop\n      pop\n        /* \"TimeAlly.sol\":13813:14118  token.mou() >= stakings[_userAddress][_stakingId].timestamp... */\n      lt\n      iszero\n        /* \"TimeAlly.sol\":13766:14118  getCurrentMonth() != _atMonth... */\n    tag_526:\n        /* \"TimeAlly.sol\":13201:14134  stakings[_userAddress][_stakingId].stakingMonth + 1 <= _atMonth... */\n    tag_524:\n        /* \"TimeAlly.sol\":13105:14148  return (... */\n      swap1\n      pop\n        /* \"TimeAlly.sol\":12825:14155  function isStakingActive(... */\n      swap4\n      swap3\n      pop\n      pop\n      pop\n      jump\t// out\n        /* \"TimeAlly.sol\":10908:12226  function claimLaunchReward(uint256 _stakingPlanId) public {... */\n    tag_141:\n        /* \"TimeAlly.sol\":10984:10996  stakingPlans */\n      0x05\n        /* \"TimeAlly.sol\":10997:11011  _stakingPlanId */\n      dup2\n        /* \"TimeAlly.sol\":10984:11012  stakingPlans[_stakingPlanId] */\n      dup2\n      sload\n      dup2\n      lt\n      tag_539\n      jumpi\n      invalid\n    tag_539:\n      swap1\n      0x00\n      mstore\n      keccak256(0x00, 0x20)\n      swap1\n      0x03\n      mul\n      add\n        /* \"TimeAlly.sol\":10984:11025  stakingPlans[_stakingPlanId].isPlanActive */\n      0x02\n      add\n      0x00\n      swap1\n      sload\n      swap1\n      0x0100\n      exp\n      swap1\n      div\n      0xff\n      and\n        /* \"TimeAlly.sol\":10976:11082  require(stakingPlans[_stakingPlanId].isPlanActive... */\n      tag_541\n      jumpi\n      0x00\n      dup1\n      revert\n    tag_541:\n        /* \"TimeAlly.sol\":11128:11129  0 */\n      0x00\n        /* \"TimeAlly.sol\":11101:11113  launchReward */\n      0x09\n        /* \"TimeAlly.sol\":11101:11125  launchReward[msg.sender] */\n      0x00\n        /* \"TimeAlly.sol\":11114:11124  msg.sender */\n      caller\n        /* \"TimeAlly.sol\":11101:11125  launchReward[msg.sender] */\n      0xffffffffffffffffffffffffffffffffffffffff\n      and\n      0xffffffffffffffffffffffffffffffffffffffff\n      and\n      dup2\n      mstore\n      0x20\n      add\n      swap1\n      dup2\n      mstore\n      0x20\n      add\n      0x00\n      keccak256\n      sload\n        /* \"TimeAlly.sol\":11101:11129  launchReward[msg.sender] > 0 */\n      gt\n        /* \"TimeAlly.sol\":11093:11191  require(launchReward[msg.sender] > 0... */\n      tag_542\n      jumpi\n      0x00\n      dup1\n      revert\n    tag_542:\n        /* \"TimeAlly.sol\":11201:11215  uint256 reward */\n      0x00\n        /* \"TimeAlly.sol\":11218:11230  launchReward */\n      0x09\n        /* \"TimeAlly.sol\":11218:11242  launchReward[msg.sender] */\n      0x00\n        /* \"TimeAlly.sol\":11231:11241  msg.sender */\n      caller\n        /* \"TimeAlly.sol\":11218:11242  launchReward[msg.sender] */\n      0xffffffffffffffffffffffffffffffffffffffff\n      and\n      0xffffffffffffffffffffffffffffffffffffffff\n      and\n      dup2\n      mstore\n      0x20\n      add\n      swap1\n      dup2\n      mstore\n      0x20\n      add\n      0x00\n      keccak256\n      sload\n        /* \"TimeAlly.sol\":11201:11242  uint256 reward = launchReward[msg.sender] */\n      swap1\n      pop\n        /* \"TimeAlly.sol\":11279:11280  0 */\n      0x00\n        /* \"TimeAlly.sol\":11252:11264  launchReward */\n      0x09\n        /* \"TimeAlly.sol\":11252:11276  launchReward[msg.sender] */\n      0x00\n        /* \"TimeAlly.sol\":11265:11275  msg.sender */\n      caller\n        /* \"TimeAlly.sol\":11252:11276  launchReward[msg.sender] */\n      0xffffffffffffffffffffffffffffffffffffffff\n      and\n      0xffffffffffffffffffffffffffffffffffffffff\n      and\n      dup2\n      mstore\n      0x20\n      add\n      swap1\n      dup2\n      mstore\n      0x20\n      add\n      0x00\n      keccak256\n        /* \"TimeAlly.sol\":11252:11280  launchReward[msg.sender] = 0 */\n      dup2\n      swap1\n      sstore\n      pop\n        /* \"TimeAlly.sol\":11344:11365  uint256 stakeEndMonth */\n      0x00\n        /* \"TimeAlly.sol\":11388:11400  stakingPlans */\n      0x05\n        /* \"TimeAlly.sol\":11401:11415  _stakingPlanId */\n      dup4\n        /* \"TimeAlly.sol\":11388:11416  stakingPlans[_stakingPlanId] */\n      dup2\n      sload\n      dup2\n      lt\n      tag_543\n      jumpi\n      invalid\n    tag_543:\n      swap1\n      0x00\n      mstore\n      keccak256(0x00, 0x20)\n      swap1\n      0x03\n      mul\n      add\n        /* \"TimeAlly.sol\":11388:11423  stakingPlans[_stakingPlanId].months */\n      0x00\n      add\n      sload\n        /* \"TimeAlly.sol\":11368:11385  getCurrentMonth() */\n      tag_545\n        /* \"TimeAlly.sol\":11368:11383  getCurrentMonth */\n      tag_143\n        /* \"TimeAlly.sol\":11368:11385  getCurrentMonth() */\n      jump\t// in\n    tag_545:\n        /* \"TimeAlly.sol\":11368:11423  getCurrentMonth() + stakingPlans[_stakingPlanId].months */\n      add\n        /* \"TimeAlly.sol\":11344:11423  uint256 stakeEndMonth = getCurrentMonth() + stakingPlans[_stakingPlanId].months */\n      swap1\n      pop\n        /* \"TimeAlly.sol\":11579:11592  uint256 month */\n      0x00\n        /* \"TimeAlly.sol\":11615:11616  1 */\n      0x01\n        /* \"TimeAlly.sol\":11595:11612  getCurrentMonth() */\n      tag_549\n        /* \"TimeAlly.sol\":11595:11610  getCurrentMonth */\n      tag_143\n        /* \"TimeAlly.sol\":11595:11612  getCurrentMonth() */\n      jump\t// in\n    tag_549:\n        /* \"TimeAlly.sol\":11595:11616  getCurrentMonth() + 1 */\n      add\n        /* \"TimeAlly.sol\":11579:11616  uint256 month = getCurrentMonth() + 1 */\n      swap1\n      pop\n        /* \"TimeAlly.sol\":11564:11827  for(... */\n    tag_546:\n        /* \"TimeAlly.sol\":11637:11650  stakeEndMonth */\n      dup2\n        /* \"TimeAlly.sol\":11628:11633  month */\n      dup2\n        /* \"TimeAlly.sol\":11628:11650  month <= stakeEndMonth */\n      gt\n        /* \"TimeAlly.sol\":11564:11827  for(... */\n      tag_547\n      jumpi\n        /* \"TimeAlly.sol\":11752:11758  reward */\n      dup3\n        /* \"TimeAlly.sol\":11723:11742  totalActiveStakings */\n      0x0a\n        /* \"TimeAlly.sol\":11723:11749  totalActiveStakings[month] */\n      0x00\n        /* \"TimeAlly.sol\":11743:11748  month */\n      dup4\n        /* \"TimeAlly.sol\":11723:11749  totalActiveStakings[month] */\n      dup2\n      mstore\n      0x20\n      add\n      swap1\n      dup2\n      mstore\n      0x20\n      add\n      0x00\n      keccak256\n      sload\n        /* \"TimeAlly.sol\":11723:11758  totalActiveStakings[month] + reward */\n      add\n        /* \"TimeAlly.sol\":11694:11713  totalActiveStakings */\n      0x0a\n        /* \"TimeAlly.sol\":11694:11720  totalActiveStakings[month] */\n      0x00\n        /* \"TimeAlly.sol\":11714:11719  month */\n      dup4\n        /* \"TimeAlly.sol\":11694:11720  totalActiveStakings[month] */\n      dup2\n      mstore\n      0x20\n      add\n      swap1\n      dup2\n      mstore\n      0x20\n      add\n      0x00\n      keccak256\n        /* \"TimeAlly.sol\":11694:11758  totalActiveStakings[month] = totalActiveStakings[month] + reward */\n      dup2\n      swap1\n      sstore\n      pop\n        /* \"TimeAlly.sol\":11662:11669  month++ */\n      dup1\n      dup1\n      0x01\n      add\n      swap2\n      pop\n      pop\n        /* \"TimeAlly.sol\":11564:11827  for(... */\n      jump(tag_546)\n    tag_547:\n      pop\n        /* \"TimeAlly.sol\":11837:11845  stakings */\n      0x07\n        /* \"TimeAlly.sol\":11837:11857  stakings[msg.sender] */\n      0x00\n        /* \"TimeAlly.sol\":11846:11856  msg.sender */\n      caller\n        /* \"TimeAlly.sol\":11837:11857  stakings[msg.sender] */\n      0xffffffffffffffffffffffffffffffffffffffff\n      and\n      0xffffffffffffffffffffffffffffffffffffffff\n      and\n      dup2\n      mstore\n      0x20\n      add\n      swap1\n      dup2\n      mstore\n      0x20\n      add\n      0x00\n      keccak256\n        /* \"TimeAlly.sol\":11863:12123  Staking({... */\n      mload(0x40)\n      dup1\n      0xe0\n      add\n      0x40\n      mstore\n      dup1\n        /* \"TimeAlly.sol\":11898:11904  reward */\n      dup5\n        /* \"TimeAlly.sol\":11863:12123  Staking({... */\n      dup2\n      mstore\n      0x20\n      add\n        /* \"TimeAlly.sol\":11929:11934  token */\n      0x02\n      0x00\n      swap1\n      sload\n      swap1\n      0x0100\n      exp\n      swap1\n      div\n      0xffffffffffffffffffffffffffffffffffffffff\n      and\n        /* \"TimeAlly.sol\":11929:11938  token.mou */\n      0xffffffffffffffffffffffffffffffffffffffff\n      and\n      0xb81f90f3\n        /* \"TimeAlly.sol\":11929:11940  token.mou() */\n      mload(0x40)\n      dup2\n      0xffffffff\n      and\n      0xe0\n      shl\n      dup2\n      mstore\n      0x04\n      add\n      0x20\n      mload(0x40)\n      dup1\n      dup4\n      sub\n      dup2\n      dup7\n      dup1\n      extcodesize\n      iszero\n        /* \"--CODEGEN--\":8:17   */\n      dup1\n        /* \"--CODEGEN--\":5:7   */\n      iszero\n      tag_550\n      jumpi\n        /* \"--CODEGEN--\":30:31   */\n      0x00\n        /* \"--CODEGEN--\":27:28   */\n      dup1\n        /* \"--CODEGEN--\":20:32   */\n      revert\n        /* \"--CODEGEN--\":5:7   */\n    tag_550:\n        /* \"TimeAlly.sol\":11929:11940  token.mou() */\n      pop\n      gas\n      staticcall\n      iszero\n        /* \"--CODEGEN--\":8:17   */\n      dup1\n        /* \"--CODEGEN--\":5:7   */\n      iszero\n      tag_551\n      jumpi\n        /* \"--CODEGEN--\":45:61   */\n      returndatasize\n        /* \"--CODEGEN--\":42:43   */\n      0x00\n        /* \"--CODEGEN--\":39:40   */\n      dup1\n        /* \"--CODEGEN--\":24:62   */\n      returndatacopy\n        /* \"--CODEGEN--\":77:93   */\n      returndatasize\n        /* \"--CODEGEN--\":74:75   */\n      0x00\n        /* \"--CODEGEN--\":67:94   */\n      revert\n        /* \"--CODEGEN--\":5:7   */\n    tag_551:\n        /* \"TimeAlly.sol\":11929:11940  token.mou() */\n      pop\n      pop\n      pop\n      pop\n      mload(0x40)\n      returndatasize\n        /* \"--CODEGEN--\":13:15   */\n      0x20\n        /* \"--CODEGEN--\":8:11   */\n      dup2\n        /* \"--CODEGEN--\":5:16   */\n      lt\n        /* \"--CODEGEN--\":2:4   */\n      iszero\n      tag_552\n      jumpi\n        /* \"--CODEGEN--\":29:30   */\n      0x00\n        /* \"--CODEGEN--\":26:27   */\n      dup1\n        /* \"--CODEGEN--\":19:31   */\n      revert\n        /* \"--CODEGEN--\":2:4   */\n    tag_552:\n        /* \"TimeAlly.sol\":11929:11940  token.mou() */\n      dup2\n      add\n      swap1\n      dup1\n      dup1\n      mload\n      swap1\n      0x20\n      add\n      swap1\n      swap3\n      swap2\n      swap1\n      pop\n      pop\n      pop\n        /* \"TimeAlly.sol\":11863:12123  Staking({... */\n      dup2\n      mstore\n      0x20\n      add\n        /* \"TimeAlly.sol\":11968:11985  getCurrentMonth() */\n      tag_553\n        /* \"TimeAlly.sol\":11968:11983  getCurrentMonth */\n      tag_143\n        /* \"TimeAlly.sol\":11968:11985  getCurrentMonth() */\n      jump\t// in\n    tag_553:\n        /* \"TimeAlly.sol\":11863:12123  Staking({... */\n      dup2\n      mstore\n      0x20\n      add\n        /* \"TimeAlly.sol\":12014:12028  _stakingPlanId */\n      dup6\n        /* \"TimeAlly.sol\":11863:12123  Staking({... */\n      dup2\n      mstore\n      0x20\n      add\n        /* \"TimeAlly.sol\":12050:12051  1 */\n      0x01\n        /* \"TimeAlly.sol\":11863:12123  Staking({... */\n      dup2\n      mstore\n      0x20\n      add\n        /* \"TimeAlly.sol\":12073:12074  0 */\n      0x00\n        /* \"TimeAlly.sol\":11863:12123  Staking({... */\n      dup2\n      mstore\n      0x20\n      add\n        /* \"TimeAlly.sol\":12111:12112  0 */\n      0x00\n        /* \"TimeAlly.sol\":11863:12123  Staking({... */\n      dup2\n      mstore\n      pop\n        /* \"TimeAlly.sol\":11837:12124  stakings[msg.sender].push(Staking({... */\n      swap1\n      dup1\n        /* \"--CODEGEN--\":39:40   */\n      0x01\n        /* \"--CODEGEN--\":33:36   */\n      dup2\n        /* \"--CODEGEN--\":27:37   */\n      sload\n        /* \"--CODEGEN--\":23:41   */\n      add\n        /* \"--CODEGEN--\":57:67   */\n      dup1\n        /* \"--CODEGEN--\":52:55   */\n      dup3\n        /* \"--CODEGEN--\":45:68   */\n      sstore\n        /* \"--CODEGEN--\":79:89   */\n      dup1\n        /* \"--CODEGEN--\":72:89   */\n      swap2\n      pop\n        /* \"--CODEGEN--\":0:93   */\n      pop\n        /* \"TimeAlly.sol\":11837:12124  stakings[msg.sender].push(Staking({... */\n      swap1\n      0x01\n      dup3\n      sub\n      swap1\n      0x00\n      mstore\n      keccak256(0x00, 0x20)\n      swap1\n      0x09\n      mul\n      add\n      0x00\n      swap1\n      swap2\n      swap3\n      swap1\n      swap2\n      swap1\n      swap2\n      pop\n      0x00\n      dup3\n      add\n      mload\n      dup2\n      0x00\n      add\n      sstore\n      0x20\n      dup3\n      add\n      mload\n      dup2\n      0x01\n      add\n      sstore\n      0x40\n      dup3\n      add\n      mload\n      dup2\n      0x02\n      add\n      sstore\n      0x60\n      dup3\n      add\n      mload\n      dup2\n      0x03\n      add\n      sstore\n      0x80\n      dup3\n      add\n      mload\n      dup2\n      0x04\n      add\n      sstore\n      0xa0\n      dup3\n      add\n      mload\n      dup2\n      0x05\n      add\n      sstore\n      0xc0\n      dup3\n      add\n      mload\n      dup2\n      0x06\n      add\n      sstore\n      pop\n      pop\n      pop\n        /* \"TimeAlly.sol\":12163:12177  _stakingPlanId */\n      dup3\n        /* \"TimeAlly.sol\":12151:12161  msg.sender */\n      caller\n        /* \"TimeAlly.sol\":12140:12219  NewStaking(msg.sender, _stakingPlanId, reward, stakings[msg.sender].length - 1) */\n      0xffffffffffffffffffffffffffffffffffffffff\n      and\n      0x680a0e2e97ad7c29da7985e37b699f19857c055166f801e50d90661eae30fcc3\n        /* \"TimeAlly.sol\":12179:12185  reward */\n      dup5\n        /* \"TimeAlly.sol\":12217:12218  1 */\n      0x01\n        /* \"TimeAlly.sol\":12187:12195  stakings */\n      0x07\n        /* \"TimeAlly.sol\":12187:12207  stakings[msg.sender] */\n      0x00\n        /* \"TimeAlly.sol\":12196:12206  msg.sender */\n      caller\n        /* \"TimeAlly.sol\":12187:12207  stakings[msg.sender] */\n      0xffffffffffffffffffffffffffffffffffffffff\n      and\n      0xffffffffffffffffffffffffffffffffffffffff\n      and\n      dup2\n      mstore\n      0x20\n      add\n      swap1\n      dup2\n      mstore\n      0x20\n      add\n      0x00\n      keccak256\n        /* \"TimeAlly.sol\":12187:12214  stakings[msg.sender].length */\n      dup1\n      sload\n      swap1\n      pop\n        /* \"TimeAlly.sol\":12187:12218  stakings[msg.sender].length - 1 */\n      sub\n        /* \"TimeAlly.sol\":12140:12219  NewStaking(msg.sender, _stakingPlanId, reward, stakings[msg.sender].length - 1) */\n      mload(0x40)\n      dup1\n      dup4\n      dup2\n      mstore\n      0x20\n      add\n      dup3\n      dup2\n      mstore\n      0x20\n      add\n      swap3\n      pop\n      pop\n      pop\n      mload(0x40)\n      dup1\n      swap2\n      sub\n      swap1\n      log3\n        /* \"TimeAlly.sol\":10908:12226  function claimLaunchReward(uint256 _stakingPlanId) public {... */\n      pop\n      pop\n      pop\n      jump\t// out\n        /* \"TimeAlly.sol\":4834:4944  function getCurrentMonth() public view returns (uint256) {... */\n    tag_143:\n        /* \"TimeAlly.sol\":4882:4889  uint256 */\n      0x00\n        /* \"TimeAlly.sol\":4936:4937  1 */\n      0x01\n        /* \"TimeAlly.sol\":4908:4926  timeAllyMonthlyNRT */\n      0x0b\n        /* \"TimeAlly.sol\":4908:4933  timeAllyMonthlyNRT.length */\n      dup1\n      sload\n      swap1\n      pop\n        /* \"TimeAlly.sol\":4908:4937  timeAllyMonthlyNRT.length - 1 */\n      sub\n        /* \"TimeAlly.sol\":4901:4937  return timeAllyMonthlyNRT.length - 1 */\n      swap1\n      pop\n        /* \"TimeAlly.sol\":4834:4944  function getCurrentMonth() public view returns (uint256) {... */\n      swap1\n      jump\t// out\n        /* \"TimeAlly.sol\":32059:33627  function repayLoanSelf(uint256 _loanId) public {... */\n    tag_146:\n        /* \"TimeAlly.sol\":32161:32162  1 */\n      0x01\n        /* \"TimeAlly.sol\":32124:32129  loans */\n      0x08\n        /* \"TimeAlly.sol\":32124:32141  loans[msg.sender] */\n      0x00\n        /* \"TimeAlly.sol\":32130:32140  msg.sender */\n      caller\n        /* \"TimeAlly.sol\":32124:32141  loans[msg.sender] */\n      0xffffffffffffffffffffffffffffffffffffffff\n      and\n      0xffffffffffffffffffffffffffffffffffffffff\n      and\n      dup2\n      mstore\n      0x20\n      add\n      swap1\n      dup2\n      mstore\n      0x20\n      add\n      0x00\n      keccak256\n        /* \"TimeAlly.sol\":32142:32149  _loanId */\n      dup3\n        /* \"TimeAlly.sol\":32124:32150  loans[msg.sender][_loanId] */\n      dup2\n      sload\n      dup2\n      lt\n      tag_557\n      jumpi\n      invalid\n    tag_557:\n      swap1\n      0x00\n      mstore\n      keccak256(0x00, 0x20)\n      swap1\n      0x05\n      mul\n      add\n        /* \"TimeAlly.sol\":32124:32157  loans[msg.sender][_loanId].status */\n      0x03\n      add\n      sload\n        /* \"TimeAlly.sol\":32124:32162  loans[msg.sender][_loanId].status == 1 */\n      eq\n        /* \"TimeAlly.sol\":32116:32218  require(loans[msg.sender][_loanId].status == 1... */\n      tag_559\n      jumpi\n      0x00\n      dup1\n      revert\n    tag_559:\n        /* \"TimeAlly.sol\":32365:32370  token */\n      0x02\n      0x00\n      swap1\n      sload\n      swap1\n      0x0100\n      exp\n      swap1\n      div\n      0xffffffffffffffffffffffffffffffffffffffff\n      and\n        /* \"TimeAlly.sol\":32365:32374  token.mou */\n      0xffffffffffffffffffffffffffffffffffffffff\n      and\n      0xb81f90f3\n        /* \"TimeAlly.sol\":32365:32376  token.mou() */\n      mload(0x40)\n      dup2\n      0xffffffff\n      and\n      0xe0\n      shl\n      dup2\n      mstore\n      0x04\n      add\n      0x20\n      mload(0x40)\n      dup1\n      dup4\n      sub\n      dup2\n      dup7\n      dup1\n      extcodesize\n      iszero\n        /* \"--CODEGEN--\":8:17   */\n      dup1\n        /* \"--CODEGEN--\":5:7   */\n      iszero\n      tag_560\n      jumpi\n        /* \"--CODEGEN--\":30:31   */\n      0x00\n        /* \"--CODEGEN--\":27:28   */\n      dup1\n        /* \"--CODEGEN--\":20:32   */\n      revert\n        /* \"--CODEGEN--\":5:7   */\n    tag_560:\n        /* \"TimeAlly.sol\":32365:32376  token.mou() */\n      pop\n      gas\n      staticcall\n      iszero\n        /* \"--CODEGEN--\":8:17   */\n      dup1\n        /* \"--CODEGEN--\":5:7   */\n      iszero\n      tag_561\n      jumpi\n        /* \"--CODEGEN--\":45:61   */\n      returndatasize\n        /* \"--CODEGEN--\":42:43   */\n      0x00\n        /* \"--CODEGEN--\":39:40   */\n      dup1\n        /* \"--CODEGEN--\":24:62   */\n      returndatacopy\n        /* \"--CODEGEN--\":77:93   */\n      returndatasize\n        /* \"--CODEGEN--\":74:75   */\n      0x00\n        /* \"--CODEGEN--\":67:94   */\n      revert\n        /* \"--CODEGEN--\":5:7   */\n    tag_561:\n        /* \"TimeAlly.sol\":32365:32376  token.mou() */\n      pop\n      pop\n      pop\n      pop\n      mload(0x40)\n      returndatasize\n        /* \"--CODEGEN--\":13:15   */\n      0x20\n        /* \"--CODEGEN--\":8:11   */\n      dup2\n        /* \"--CODEGEN--\":5:16   */\n      lt\n        /* \"--CODEGEN--\":2:4   */\n      iszero\n      tag_562\n      jumpi\n        /* \"--CODEGEN--\":29:30   */\n      0x00\n        /* \"--CODEGEN--\":26:27   */\n      dup1\n        /* \"--CODEGEN--\":19:31   */\n      revert\n        /* \"--CODEGEN--\":2:4   */\n    tag_562:\n        /* \"TimeAlly.sol\":32365:32376  token.mou() */\n      dup2\n      add\n      swap1\n      dup1\n      dup1\n      mload\n      swap1\n      0x20\n      add\n      swap1\n      swap3\n      swap2\n      swap1\n      pop\n      pop\n      pop\n        /* \"TimeAlly.sol\":32276:32362  loanPlans[ loans[msg.sender][_loanId].loanPlanId ].loanMonths.mul(earthSecondsInMonth) */\n      tag_563\n        /* \"TimeAlly.sol\":32342:32361  earthSecondsInMonth */\n      sload(0x04)\n        /* \"TimeAlly.sol\":32276:32285  loanPlans */\n      0x06\n        /* \"TimeAlly.sol\":32287:32292  loans */\n      0x08\n        /* \"TimeAlly.sol\":32287:32304  loans[msg.sender] */\n      0x00\n        /* \"TimeAlly.sol\":32293:32303  msg.sender */\n      caller\n        /* \"TimeAlly.sol\":32287:32304  loans[msg.sender] */\n      0xffffffffffffffffffffffffffffffffffffffff\n      and\n      0xffffffffffffffffffffffffffffffffffffffff\n      and\n      dup2\n      mstore\n      0x20\n      add\n      swap1\n      dup2\n      mstore\n      0x20\n      add\n      0x00\n      keccak256\n        /* \"TimeAlly.sol\":32305:32312  _loanId */\n      dup6\n        /* \"TimeAlly.sol\":32287:32313  loans[msg.sender][_loanId] */\n      dup2\n      sload\n      dup2\n      lt\n      tag_564\n      jumpi\n      invalid\n    tag_564:\n      swap1\n      0x00\n      mstore\n      keccak256(0x00, 0x20)\n      swap1\n      0x05\n      mul\n      add\n        /* \"TimeAlly.sol\":32287:32324  loans[msg.sender][_loanId].loanPlanId */\n      0x02\n      add\n      sload\n        /* \"TimeAlly.sol\":32276:32326  loanPlans[ loans[msg.sender][_loanId].loanPlanId ] */\n      dup2\n      sload\n      dup2\n      lt\n      tag_566\n      jumpi\n      invalid\n    tag_566:\n      swap1\n      0x00\n      mstore\n      keccak256(0x00, 0x20)\n      swap1\n      0x02\n      mul\n      add\n        /* \"TimeAlly.sol\":32276:32337  loanPlans[ loans[msg.sender][_loanId].loanPlanId ].loanMonths */\n      0x00\n      add\n      sload\n        /* \"TimeAlly.sol\":32276:32341  loanPlans[ loans[msg.sender][_loanId].loanPlanId ].loanMonths.mul */\n      tag_177\n      swap1\n        /* \"TimeAlly.sol\":32276:32362  loanPlans[ loans[msg.sender][_loanId].loanPlanId ].loanMonths.mul(earthSecondsInMonth) */\n      swap2\n      swap1\n      0xffffffff\n      and\n      jump\t// in\n    tag_563:\n        /* \"TimeAlly.sol\":32237:32242  loans */\n      0x08\n        /* \"TimeAlly.sol\":32237:32254  loans[msg.sender] */\n      0x00\n        /* \"TimeAlly.sol\":32243:32253  msg.sender */\n      caller\n        /* \"TimeAlly.sol\":32237:32254  loans[msg.sender] */\n      0xffffffffffffffffffffffffffffffffffffffff\n      and\n      0xffffffffffffffffffffffffffffffffffffffff\n      and\n      dup2\n      mstore\n      0x20\n      add\n      swap1\n      dup2\n      mstore\n      0x20\n      add\n      0x00\n      keccak256\n        /* \"TimeAlly.sol\":32255:32262  _loanId */\n      dup4\n        /* \"TimeAlly.sol\":32237:32263  loans[msg.sender][_loanId] */\n      dup2\n      sload\n      dup2\n      lt\n      tag_568\n      jumpi\n      invalid\n    tag_568:\n      swap1\n      0x00\n      mstore\n      keccak256(0x00, 0x20)\n      swap1\n      0x05\n      mul\n      add\n        /* \"TimeAlly.sol\":32237:32273  loans[msg.sender][_loanId].timestamp */\n      0x01\n      add\n      sload\n        /* \"TimeAlly.sol\":32237:32362  loans[msg.sender][_loanId].timestamp + loanPlans[ loans[msg.sender][_loanId].loanPlanId ].loanMonths.mul(earthSecondsInMonth) */\n      add\n        /* \"TimeAlly.sol\":32237:32376  loans[msg.sender][_loanId].timestamp + loanPlans[ loans[msg.sender][_loanId].loanPlanId ].loanMonths.mul(earthSecondsInMonth) > token.mou() */\n      gt\n        /* \"TimeAlly.sol\":32229:32429  require(loans[msg.sender][_loanId].timestamp + loanPlans[ loans[msg.sender][_loanId].loanPlanId ].loanMonths.mul(earthSecondsInMonth) > token.mou()... */\n      tag_570\n      jumpi\n      0x00\n      dup1\n      revert\n    tag_570:\n        /* \"TimeAlly.sol\":32448:32453  token */\n      0x02\n      0x00\n      swap1\n      sload\n      swap1\n      0x0100\n      exp\n      swap1\n      div\n      0xffffffffffffffffffffffffffffffffffffffff\n      and\n        /* \"TimeAlly.sol\":32448:32466  token.transferFrom */\n      0xffffffffffffffffffffffffffffffffffffffff\n      and\n      0x23b872dd\n        /* \"TimeAlly.sol\":32467:32477  msg.sender */\n      caller\n        /* \"TimeAlly.sol\":32487:32491  this */\n      address\n        /* \"TimeAlly.sol\":32494:32499  loans */\n      0x08\n        /* \"TimeAlly.sol\":32494:32511  loans[msg.sender] */\n      0x00\n        /* \"TimeAlly.sol\":32500:32510  msg.sender */\n      caller\n        /* \"TimeAlly.sol\":32494:32511  loans[msg.sender] */\n      0xffffffffffffffffffffffffffffffffffffffff\n      and\n      0xffffffffffffffffffffffffffffffffffffffff\n      and\n      dup2\n      mstore\n      0x20\n      add\n      swap1\n      dup2\n      mstore\n      0x20\n      add\n      0x00\n      keccak256\n        /* \"TimeAlly.sol\":32512:32519  _loanId */\n      dup6\n        /* \"TimeAlly.sol\":32494:32520  loans[msg.sender][_loanId] */\n      dup2\n      sload\n      dup2\n      lt\n      tag_571\n      jumpi\n      invalid\n    tag_571:\n      swap1\n      0x00\n      mstore\n      keccak256(0x00, 0x20)\n      swap1\n      0x05\n      mul\n      add\n        /* \"TimeAlly.sol\":32494:32532  loans[msg.sender][_loanId].exaEsAmount */\n      0x00\n      add\n      sload\n        /* \"TimeAlly.sol\":32448:32533  token.transferFrom(msg.sender, address(this), loans[msg.sender][_loanId].exaEsAmount) */\n      mload(0x40)\n      dup5\n      0xffffffff\n      and\n      0xe0\n      shl\n      dup2\n      mstore\n      0x04\n      add\n      dup1\n      dup5\n      0xffffffffffffffffffffffffffffffffffffffff\n      and\n      0xffffffffffffffffffffffffffffffffffffffff\n      and\n      dup2\n      mstore\n      0x20\n      add\n      dup4\n      0xffffffffffffffffffffffffffffffffffffffff\n      and\n      0xffffffffffffffffffffffffffffffffffffffff\n      and\n      dup2\n      mstore\n      0x20\n      add\n      dup3\n      dup2\n      mstore\n      0x20\n      add\n      swap4\n      pop\n      pop\n      pop\n      pop\n      0x20\n      mload(0x40)\n      dup1\n      dup4\n      sub\n      dup2\n      0x00\n      dup8\n      dup1\n      extcodesize\n      iszero\n        /* \"--CODEGEN--\":8:17   */\n      dup1\n        /* \"--CODEGEN--\":5:7   */\n      iszero\n      tag_573\n      jumpi\n        /* \"--CODEGEN--\":30:31   */\n      0x00\n        /* \"--CODEGEN--\":27:28   */\n      dup1\n        /* \"--CODEGEN--\":20:32   */\n      revert\n        /* \"--CODEGEN--\":5:7   */\n    tag_573:\n        /* \"TimeAlly.sol\":32448:32533  token.transferFrom(msg.sender, address(this), loans[msg.sender][_loanId].exaEsAmount) */\n      pop\n      gas\n      call\n      iszero\n        /* \"--CODEGEN--\":8:17   */\n      dup1\n        /* \"--CODEGEN--\":5:7   */\n      iszero\n      tag_574\n      jumpi\n        /* \"--CODEGEN--\":45:61   */\n      returndatasize\n        /* \"--CODEGEN--\":42:43   */\n      0x00\n        /* \"--CODEGEN--\":39:40   */\n      dup1\n        /* \"--CODEGEN--\":24:62   */\n      returndatacopy\n        /* \"--CODEGEN--\":77:93   */\n      returndatasize\n        /* \"--CODEGEN--\":74:75   */\n      0x00\n        /* \"--CODEGEN--\":67:94   */\n      revert\n        /* \"--CODEGEN--\":5:7   */\n    tag_574:\n        /* \"TimeAlly.sol\":32448:32533  token.transferFrom(msg.sender, address(this), loans[msg.sender][_loanId].exaEsAmount) */\n      pop\n      pop\n      pop\n      pop\n      mload(0x40)\n      returndatasize\n        /* \"--CODEGEN--\":13:15   */\n      0x20\n        /* \"--CODEGEN--\":8:11   */\n      dup2\n        /* \"--CODEGEN--\":5:16   */\n      lt\n        /* \"--CODEGEN--\":2:4   */\n      iszero\n      tag_575\n      jumpi\n        /* \"--CODEGEN--\":29:30   */\n      0x00\n        /* \"--CODEGEN--\":26:27   */\n      dup1\n        /* \"--CODEGEN--\":19:31   */\n      revert\n        /* \"--CODEGEN--\":2:4   */\n    tag_575:\n        /* \"TimeAlly.sol\":32448:32533  token.transferFrom(msg.sender, address(this), loans[msg.sender][_loanId].exaEsAmount) */\n      dup2\n      add\n      swap1\n      dup1\n      dup1\n      mload\n      swap1\n      0x20\n      add\n      swap1\n      swap3\n      swap2\n      swap1\n      pop\n      pop\n      pop\n        /* \"TimeAlly.sol\":32440:32625  require(token.transferFrom(msg.sender, address(this), loans[msg.sender][_loanId].exaEsAmount)... */\n      tag_576\n      jumpi\n      0x00\n      dup1\n      revert\n    tag_576:\n        /* \"TimeAlly.sol\":32672:32673  2 */\n      0x02\n        /* \"TimeAlly.sol\":32636:32641  loans */\n      0x08\n        /* \"TimeAlly.sol\":32636:32653  loans[msg.sender] */\n      0x00\n        /* \"TimeAlly.sol\":32642:32652  msg.sender */\n      caller\n        /* \"TimeAlly.sol\":32636:32653  loans[msg.sender] */\n      0xffffffffffffffffffffffffffffffffffffffff\n      and\n      0xffffffffffffffffffffffffffffffffffffffff\n      and\n      dup2\n      mstore\n      0x20\n      add\n      swap1\n      dup2\n      mstore\n      0x20\n      add\n      0x00\n      keccak256\n        /* \"TimeAlly.sol\":32654:32661  _loanId */\n      dup3\n        /* \"TimeAlly.sol\":32636:32662  loans[msg.sender][_loanId] */\n      dup2\n      sload\n      dup2\n      lt\n      tag_577\n      jumpi\n      invalid\n    tag_577:\n      swap1\n      0x00\n      mstore\n      keccak256(0x00, 0x20)\n      swap1\n      0x05\n      mul\n      add\n        /* \"TimeAlly.sol\":32636:32669  loans[msg.sender][_loanId].status */\n      0x03\n      add\n        /* \"TimeAlly.sol\":32636:32673  loans[msg.sender][_loanId].status = 2 */\n      dup2\n      swap1\n      sstore\n      pop\n        /* \"TimeAlly.sol\":32836:32845  uint256 i */\n      0x00\n        /* \"TimeAlly.sol\":32848:32849  0 */\n      dup1\n        /* \"TimeAlly.sol\":32836:32849  uint256 i = 0 */\n      swap1\n      pop\n        /* \"TimeAlly.sol\":32832:33594  for(uint256 i = 0; i < loans[msg.sender][_loanId].stakingIds.length; i++) {... */\n    tag_579:\n        /* \"TimeAlly.sol\":32855:32860  loans */\n      0x08\n        /* \"TimeAlly.sol\":32855:32872  loans[msg.sender] */\n      0x00\n        /* \"TimeAlly.sol\":32861:32871  msg.sender */\n      caller\n        /* \"TimeAlly.sol\":32855:32872  loans[msg.sender] */\n      0xffffffffffffffffffffffffffffffffffffffff\n      and\n      0xffffffffffffffffffffffffffffffffffffffff\n      and\n      dup2\n      mstore\n      0x20\n      add\n      swap1\n      dup2\n      mstore\n      0x20\n      add\n      0x00\n      keccak256\n        /* \"TimeAlly.sol\":32873:32880  _loanId */\n      dup3\n        /* \"TimeAlly.sol\":32855:32881  loans[msg.sender][_loanId] */\n      dup2\n      sload\n      dup2\n      lt\n      tag_582\n      jumpi\n      invalid\n    tag_582:\n      swap1\n      0x00\n      mstore\n      keccak256(0x00, 0x20)\n      swap1\n      0x05\n      mul\n      add\n        /* \"TimeAlly.sol\":32855:32892  loans[msg.sender][_loanId].stakingIds */\n      0x04\n      add\n        /* \"TimeAlly.sol\":32855:32899  loans[msg.sender][_loanId].stakingIds.length */\n      dup1\n      sload\n      swap1\n      pop\n        /* \"TimeAlly.sol\":32851:32852  i */\n      dup2\n        /* \"TimeAlly.sol\":32851:32899  i < loans[msg.sender][_loanId].stakingIds.length */\n      lt\n        /* \"TimeAlly.sol\":32832:33594  for(uint256 i = 0; i < loans[msg.sender][_loanId].stakingIds.length; i++) {... */\n      iszero\n      tag_580\n      jumpi\n        /* \"TimeAlly.sol\":32920:32938  uint256 _stakingId */\n      0x00\n        /* \"TimeAlly.sol\":32941:32946  loans */\n      0x08\n        /* \"TimeAlly.sol\":32941:32958  loans[msg.sender] */\n      0x00\n        /* \"TimeAlly.sol\":32947:32957  msg.sender */\n      caller\n        /* \"TimeAlly.sol\":32941:32958  loans[msg.sender] */\n      0xffffffffffffffffffffffffffffffffffffffff\n      and\n      0xffffffffffffffffffffffffffffffffffffffff\n      and\n      dup2\n      mstore\n      0x20\n      add\n      swap1\n      dup2\n      mstore\n      0x20\n      add\n      0x00\n      keccak256\n        /* \"TimeAlly.sol\":32959:32966  _loanId */\n      dup4\n        /* \"TimeAlly.sol\":32941:32967  loans[msg.sender][_loanId] */\n      dup2\n      sload\n      dup2\n      lt\n      tag_584\n      jumpi\n      invalid\n    tag_584:\n      swap1\n      0x00\n      mstore\n      keccak256(0x00, 0x20)\n      swap1\n      0x05\n      mul\n      add\n        /* \"TimeAlly.sol\":32941:32978  loans[msg.sender][_loanId].stakingIds */\n      0x04\n      add\n        /* \"TimeAlly.sol\":32979:32980  i */\n      dup3\n        /* \"TimeAlly.sol\":32941:32981  loans[msg.sender][_loanId].stakingIds[i] */\n      dup2\n      sload\n      dup2\n      lt\n      tag_586\n      jumpi\n      invalid\n    tag_586:\n      swap1\n      0x00\n      mstore\n      keccak256(0x00, 0x20)\n      add\n      sload\n        /* \"TimeAlly.sol\":32920:32981  uint256 _stakingId = loans[msg.sender][_loanId].stakingIds[i] */\n      swap1\n      pop\n        /* \"TimeAlly.sol\":33038:33039  1 */\n      0x01\n        /* \"TimeAlly.sol\":32996:33004  stakings */\n      0x07\n        /* \"TimeAlly.sol\":32996:33016  stakings[msg.sender] */\n      0x00\n        /* \"TimeAlly.sol\":33005:33015  msg.sender */\n      caller\n        /* \"TimeAlly.sol\":32996:33016  stakings[msg.sender] */\n      0xffffffffffffffffffffffffffffffffffffffff\n      and\n      0xffffffffffffffffffffffffffffffffffffffff\n      and\n      dup2\n      mstore\n      0x20\n      add\n      swap1\n      dup2\n      mstore\n      0x20\n      add\n      0x00\n      keccak256\n        /* \"TimeAlly.sol\":33017:33027  _stakingId */\n      dup3\n        /* \"TimeAlly.sol\":32996:33028  stakings[msg.sender][_stakingId] */\n      dup2\n      sload\n      dup2\n      lt\n      tag_588\n      jumpi\n      invalid\n    tag_588:\n      swap1\n      0x00\n      mstore\n      keccak256(0x00, 0x20)\n      swap1\n      0x09\n      mul\n      add\n        /* \"TimeAlly.sol\":32996:33035  stakings[msg.sender][_stakingId].status */\n      0x04\n      add\n        /* \"TimeAlly.sol\":32996:33039  stakings[msg.sender][_stakingId].status = 1 */\n      dup2\n      swap1\n      sstore\n      pop\n        /* \"TimeAlly.sol\":33054:33079  uint256 stakingStartMonth */\n      0x00\n        /* \"TimeAlly.sol\":33082:33172  stakings[msg.sender][_stakingId].timestamp.sub(deployedTimestamp).div(earthSecondsInMonth) */\n      tag_590\n        /* \"TimeAlly.sol\":33152:33171  earthSecondsInMonth */\n      sload(0x04)\n        /* \"TimeAlly.sol\":33082:33147  stakings[msg.sender][_stakingId].timestamp.sub(deployedTimestamp) */\n      tag_591\n        /* \"TimeAlly.sol\":33129:33146  deployedTimestamp */\n      sload(0x00)\n        /* \"TimeAlly.sol\":33082:33090  stakings */\n      0x07\n        /* \"TimeAlly.sol\":33082:33102  stakings[msg.sender] */\n      0x00\n        /* \"TimeAlly.sol\":33091:33101  msg.sender */\n      caller\n        /* \"TimeAlly.sol\":33082:33102  stakings[msg.sender] */\n      0xffffffffffffffffffffffffffffffffffffffff\n      and\n      0xffffffffffffffffffffffffffffffffffffffff\n      and\n      dup2\n      mstore\n      0x20\n      add\n      swap1\n      dup2\n      mstore\n      0x20\n      add\n      0x00\n      keccak256\n        /* \"TimeAlly.sol\":33103:33113  _stakingId */\n      dup7\n        /* \"TimeAlly.sol\":33082:33114  stakings[msg.sender][_stakingId] */\n      dup2\n      sload\n      dup2\n      lt\n      tag_592\n      jumpi\n      invalid\n    tag_592:\n      swap1\n      0x00\n      mstore\n      keccak256(0x00, 0x20)\n      swap1\n      0x09\n      mul\n      add\n        /* \"TimeAlly.sol\":33082:33124  stakings[msg.sender][_stakingId].timestamp */\n      0x01\n      add\n      sload\n        /* \"TimeAlly.sol\":33082:33128  stakings[msg.sender][_stakingId].timestamp.sub */\n      tag_205\n      swap1\n        /* \"TimeAlly.sol\":33082:33147  stakings[msg.sender][_stakingId].timestamp.sub(deployedTimestamp) */\n      swap2\n      swap1\n      0xffffffff\n      and\n      jump\t// in\n    tag_591:\n        /* \"TimeAlly.sol\":33082:33151  stakings[msg.sender][_stakingId].timestamp.sub(deployedTimestamp).div */\n      tag_237\n      swap1\n        /* \"TimeAlly.sol\":33082:33172  stakings[msg.sender][_stakingId].timestamp.sub(deployedTimestamp).div(earthSecondsInMonth) */\n      swap2\n      swap1\n      0xffffffff\n      and\n      jump\t// in\n    tag_590:\n        /* \"TimeAlly.sol\":33054:33172  uint256 stakingStartMonth = stakings[msg.sender][_stakingId].timestamp.sub(deployedTimestamp).div(earthSecondsInMonth) */\n      swap1\n      pop\n        /* \"TimeAlly.sol\":33187:33208  uint256 stakeEndMonth */\n      0x00\n        /* \"TimeAlly.sol\":33231:33243  stakingPlans */\n      0x05\n        /* \"TimeAlly.sol\":33244:33252  stakings */\n      0x07\n        /* \"TimeAlly.sol\":33244:33264  stakings[msg.sender] */\n      0x00\n        /* \"TimeAlly.sol\":33253:33263  msg.sender */\n      caller\n        /* \"TimeAlly.sol\":33244:33264  stakings[msg.sender] */\n      0xffffffffffffffffffffffffffffffffffffffff\n      and\n      0xffffffffffffffffffffffffffffffffffffffff\n      and\n      dup2\n      mstore\n      0x20\n      add\n      swap1\n      dup2\n      mstore\n      0x20\n      add\n      0x00\n      keccak256\n        /* \"TimeAlly.sol\":33265:33275  _stakingId */\n      dup5\n        /* \"TimeAlly.sol\":33244:33276  stakings[msg.sender][_stakingId] */\n      dup2\n      sload\n      dup2\n      lt\n      tag_594\n      jumpi\n      invalid\n    tag_594:\n      swap1\n      0x00\n      mstore\n      keccak256(0x00, 0x20)\n      swap1\n      0x09\n      mul\n      add\n        /* \"TimeAlly.sol\":33244:33290  stakings[msg.sender][_stakingId].stakingPlanId */\n      0x03\n      add\n      sload\n        /* \"TimeAlly.sol\":33231:33291  stakingPlans[stakings[msg.sender][_stakingId].stakingPlanId] */\n      dup2\n      sload\n      dup2\n      lt\n      tag_596\n      jumpi\n      invalid\n    tag_596:\n      swap1\n      0x00\n      mstore\n      keccak256(0x00, 0x20)\n      swap1\n      0x03\n      mul\n      add\n        /* \"TimeAlly.sol\":33231:33298  stakingPlans[stakings[msg.sender][_stakingId].stakingPlanId].months */\n      0x00\n      add\n      sload\n        /* \"TimeAlly.sol\":33211:33228  stakingStartMonth */\n      dup3\n        /* \"TimeAlly.sol\":33211:33298  stakingStartMonth + stakingPlans[stakings[msg.sender][_stakingId].stakingPlanId].months */\n      add\n        /* \"TimeAlly.sol\":33187:33298  uint256 stakeEndMonth = stakingStartMonth + stakingPlans[stakings[msg.sender][_stakingId].stakingPlanId].months */\n      swap1\n      pop\n        /* \"TimeAlly.sol\":33317:33326  uint256 j */\n      0x00\n        /* \"TimeAlly.sol\":33349:33350  1 */\n      0x01\n        /* \"TimeAlly.sol\":33329:33346  getCurrentMonth() */\n      tag_601\n        /* \"TimeAlly.sol\":33329:33344  getCurrentMonth */\n      tag_143\n        /* \"TimeAlly.sol\":33329:33346  getCurrentMonth() */\n      jump\t// in\n    tag_601:\n        /* \"TimeAlly.sol\":33329:33350  getCurrentMonth() + 1 */\n      add\n        /* \"TimeAlly.sol\":33317:33350  uint256 j = getCurrentMonth() + 1 */\n      swap1\n      pop\n        /* \"TimeAlly.sol\":33313:33584  for(uint256 j = getCurrentMonth() + 1; j <= stakeEndMonth; j++) {... */\n    tag_598:\n        /* \"TimeAlly.sol\":33357:33370  stakeEndMonth */\n      dup2\n        /* \"TimeAlly.sol\":33352:33353  j */\n      dup2\n        /* \"TimeAlly.sol\":33352:33370  j <= stakeEndMonth */\n      gt\n        /* \"TimeAlly.sol\":33313:33584  for(uint256 j = getCurrentMonth() + 1; j <= stakeEndMonth; j++) {... */\n      tag_599\n      jumpi\n        /* \"TimeAlly.sol\":33448:33453  false */\n      0x00\n        /* \"TimeAlly.sol\":33395:33403  stakings */\n      0x07\n        /* \"TimeAlly.sol\":33395:33415  stakings[msg.sender] */\n      0x00\n        /* \"TimeAlly.sol\":33404:33414  msg.sender */\n      caller\n        /* \"TimeAlly.sol\":33395:33415  stakings[msg.sender] */\n      0xffffffffffffffffffffffffffffffffffffffff\n      and\n      0xffffffffffffffffffffffffffffffffffffffff\n      and\n      dup2\n      mstore\n      0x20\n      add\n      swap1\n      dup2\n      mstore\n      0x20\n      add\n      0x00\n      keccak256\n        /* \"TimeAlly.sol\":33416:33426  _stakingId */\n      dup6\n        /* \"TimeAlly.sol\":33395:33427  stakings[msg.sender][_stakingId] */\n      dup2\n      sload\n      dup2\n      lt\n      tag_602\n      jumpi\n      invalid\n    tag_602:\n      swap1\n      0x00\n      mstore\n      keccak256(0x00, 0x20)\n      swap1\n      0x09\n      mul\n      add\n        /* \"TimeAlly.sol\":33395:33442  stakings[msg.sender][_stakingId].isMonthClaimed */\n      0x07\n      add\n        /* \"TimeAlly.sol\":33395:33445  stakings[msg.sender][_stakingId].isMonthClaimed[i] */\n      0x00\n        /* \"TimeAlly.sol\":33443:33444  i */\n      dup8\n        /* \"TimeAlly.sol\":33395:33445  stakings[msg.sender][_stakingId].isMonthClaimed[i] */\n      dup2\n      mstore\n      0x20\n      add\n      swap1\n      dup2\n      mstore\n      0x20\n      add\n      0x00\n      keccak256\n      0x00\n        /* \"TimeAlly.sol\":33395:33453  stakings[msg.sender][_stakingId].isMonthClaimed[i] = false */\n      0x0100\n      exp\n      dup2\n      sload\n      dup2\n      0xff\n      mul\n      not\n      and\n      swap1\n      dup4\n      iszero\n      iszero\n      mul\n      or\n      swap1\n      sstore\n      pop\n        /* \"TimeAlly.sol\":33497:33569  totalActiveStakings[j].add(stakings[msg.sender][_stakingId].exaEsAmount) */\n      tag_604\n        /* \"TimeAlly.sol\":33524:33532  stakings */\n      0x07\n        /* \"TimeAlly.sol\":33524:33544  stakings[msg.sender] */\n      0x00\n        /* \"TimeAlly.sol\":33533:33543  msg.sender */\n      caller\n        /* \"TimeAlly.sol\":33524:33544  stakings[msg.sender] */\n      0xffffffffffffffffffffffffffffffffffffffff\n      and\n      0xffffffffffffffffffffffffffffffffffffffff\n      and\n      dup2\n      mstore\n      0x20\n      add\n      swap1\n      dup2\n      mstore\n      0x20\n      add\n      0x00\n      keccak256\n        /* \"TimeAlly.sol\":33545:33555  _stakingId */\n      dup6\n        /* \"TimeAlly.sol\":33524:33556  stakings[msg.sender][_stakingId] */\n      dup2\n      sload\n      dup2\n      lt\n      tag_605\n      jumpi\n      invalid\n    tag_605:\n      swap1\n      0x00\n      mstore\n      keccak256(0x00, 0x20)\n      swap1\n      0x09\n      mul\n      add\n        /* \"TimeAlly.sol\":33524:33568  stakings[msg.sender][_stakingId].exaEsAmount */\n      0x00\n      add\n      sload\n        /* \"TimeAlly.sol\":33497:33516  totalActiveStakings */\n      0x0a\n        /* \"TimeAlly.sol\":33497:33519  totalActiveStakings[j] */\n      0x00\n        /* \"TimeAlly.sol\":33517:33518  j */\n      dup5\n        /* \"TimeAlly.sol\":33497:33519  totalActiveStakings[j] */\n      dup2\n      mstore\n      0x20\n      add\n      swap1\n      dup2\n      mstore\n      0x20\n      add\n      0x00\n      keccak256\n      sload\n        /* \"TimeAlly.sol\":33497:33523  totalActiveStakings[j].add */\n      tag_199\n      swap1\n        /* \"TimeAlly.sol\":33497:33569  totalActiveStakings[j].add(stakings[msg.sender][_stakingId].exaEsAmount) */\n      swap2\n      swap1\n      0xffffffff\n      and\n      jump\t// in\n    tag_604:\n        /* \"TimeAlly.sol\":33472:33491  totalActiveStakings */\n      0x0a\n        /* \"TimeAlly.sol\":33472:33494  totalActiveStakings[j] */\n      0x00\n        /* \"TimeAlly.sol\":33492:33493  j */\n      dup4\n        /* \"TimeAlly.sol\":33472:33494  totalActiveStakings[j] */\n      dup2\n      mstore\n      0x20\n      add\n      swap1\n      dup2\n      mstore\n      0x20\n      add\n      0x00\n      keccak256\n        /* \"TimeAlly.sol\":33472:33569  totalActiveStakings[j] = totalActiveStakings[j].add(stakings[msg.sender][_stakingId].exaEsAmount) */\n      dup2\n      swap1\n      sstore\n      pop\n        /* \"TimeAlly.sol\":33372:33375  j++ */\n      dup1\n      dup1\n      0x01\n      add\n      swap2\n      pop\n      pop\n        /* \"TimeAlly.sol\":33313:33584  for(uint256 j = getCurrentMonth() + 1; j <= stakeEndMonth; j++) {... */\n      jump(tag_598)\n    tag_599:\n      pop\n        /* \"TimeAlly.sol\":32832:33594  for(uint256 i = 0; i < loans[msg.sender][_loanId].stakingIds.length; i++) {... */\n      pop\n      pop\n      pop\n        /* \"TimeAlly.sol\":32901:32904  i++ */\n      dup1\n      dup1\n      0x01\n      add\n      swap2\n      pop\n      pop\n        /* \"TimeAlly.sol\":32832:33594  for(uint256 i = 0; i < loans[msg.sender][_loanId].stakingIds.length; i++) {... */\n      jump(tag_579)\n    tag_580:\n      pop\n        /* \"TimeAlly.sol\":32059:33627  function repayLoanSelf(uint256 _loanId) public {... */\n      pop\n      jump\t// out\n        /* \"TimeAlly.sol\":6981:8407  function newStaking(uint256 _exaEsAmount, uint256 _stakingPlanId) public {... */\n    tag_149:\n        /* \"TimeAlly.sol\":7243:7244  0 */\n      0x00\n        /* \"TimeAlly.sol\":7228:7240  _exaEsAmount */\n      dup3\n        /* \"TimeAlly.sol\":7228:7244  _exaEsAmount > 0 */\n      gt\n        /* \"TimeAlly.sol\":7220:7307  require(_exaEsAmount > 0... */\n      tag_608\n      jumpi\n      0x00\n      dup1\n      revert\n    tag_608:\n        /* \"TimeAlly.sol\":7326:7338  stakingPlans */\n      0x05\n        /* \"TimeAlly.sol\":7339:7353  _stakingPlanId */\n      dup2\n        /* \"TimeAlly.sol\":7326:7354  stakingPlans[_stakingPlanId] */\n      dup2\n      sload\n      dup2\n      lt\n      tag_609\n      jumpi\n      invalid\n    tag_609:\n      swap1\n      0x00\n      mstore\n      keccak256(0x00, 0x20)\n      swap1\n      0x03\n      mul\n      add\n        /* \"TimeAlly.sol\":7326:7367  stakingPlans[_stakingPlanId].isPlanActive */\n      0x02\n      add\n      0x00\n      swap1\n      sload\n      swap1\n      0x0100\n      exp\n      swap1\n      div\n      0xff\n      and\n        /* \"TimeAlly.sol\":7318:7424  require(stakingPlans[_stakingPlanId].isPlanActive... */\n      tag_611\n      jumpi\n      0x00\n      dup1\n      revert\n    tag_611:\n        /* \"TimeAlly.sol\":7443:7448  token */\n      0x02\n      0x00\n      swap1\n      sload\n      swap1\n      0x0100\n      exp\n      swap1\n      div\n      0xffffffffffffffffffffffffffffffffffffffff\n      and\n        /* \"TimeAlly.sol\":7443:7461  token.transferFrom */\n      0xffffffffffffffffffffffffffffffffffffffff\n      and\n      0x23b872dd\n        /* \"TimeAlly.sol\":7462:7472  msg.sender */\n      caller\n        /* \"TimeAlly.sol\":7482:7486  this */\n      address\n        /* \"TimeAlly.sol\":7489:7501  _exaEsAmount */\n      dup6\n        /* \"TimeAlly.sol\":7443:7502  token.transferFrom(msg.sender, address(this), _exaEsAmount) */\n      mload(0x40)\n      dup5\n      0xffffffff\n      and\n      0xe0\n      shl\n      dup2\n      mstore\n      0x04\n      add\n      dup1\n      dup5\n      0xffffffffffffffffffffffffffffffffffffffff\n      and\n      0xffffffffffffffffffffffffffffffffffffffff\n      and\n      dup2\n      mstore\n      0x20\n      add\n      dup4\n      0xffffffffffffffffffffffffffffffffffffffff\n      and\n      0xffffffffffffffffffffffffffffffffffffffff\n      and\n      dup2\n      mstore\n      0x20\n      add\n      dup3\n      dup2\n      mstore\n      0x20\n      add\n      swap4\n      pop\n      pop\n      pop\n      pop\n      0x20\n      mload(0x40)\n      dup1\n      dup4\n      sub\n      dup2\n      0x00\n      dup8\n      dup1\n      extcodesize\n      iszero\n        /* \"--CODEGEN--\":8:17   */\n      dup1\n        /* \"--CODEGEN--\":5:7   */\n      iszero\n      tag_612\n      jumpi\n        /* \"--CODEGEN--\":30:31   */\n      0x00\n        /* \"--CODEGEN--\":27:28   */\n      dup1\n        /* \"--CODEGEN--\":20:32   */\n      revert\n        /* \"--CODEGEN--\":5:7   */\n    tag_612:\n        /* \"TimeAlly.sol\":7443:7502  token.transferFrom(msg.sender, address(this), _exaEsAmount) */\n      pop\n      gas\n      call\n      iszero\n        /* \"--CODEGEN--\":8:17   */\n      dup1\n        /* \"--CODEGEN--\":5:7   */\n      iszero\n      tag_613\n      jumpi\n        /* \"--CODEGEN--\":45:61   */\n      returndatasize\n        /* \"--CODEGEN--\":42:43   */\n      0x00\n        /* \"--CODEGEN--\":39:40   */\n      dup1\n        /* \"--CODEGEN--\":24:62   */\n      returndatacopy\n        /* \"--CODEGEN--\":77:93   */\n      returndatasize\n        /* \"--CODEGEN--\":74:75   */\n      0x00\n        /* \"--CODEGEN--\":67:94   */\n      revert\n        /* \"--CODEGEN--\":5:7   */\n    tag_613:\n        /* \"TimeAlly.sol\":7443:7502  token.transferFrom(msg.sender, address(this), _exaEsAmount) */\n      pop\n      pop\n      pop\n      pop\n      mload(0x40)\n      returndatasize\n        /* \"--CODEGEN--\":13:15   */\n      0x20\n        /* \"--CODEGEN--\":8:11   */\n      dup2\n        /* \"--CODEGEN--\":5:16   */\n      lt\n        /* \"--CODEGEN--\":2:4   */\n      iszero\n      tag_614\n      jumpi\n        /* \"--CODEGEN--\":29:30   */\n      0x00\n        /* \"--CODEGEN--\":26:27   */\n      dup1\n        /* \"--CODEGEN--\":19:31   */\n      revert\n        /* \"--CODEGEN--\":2:4   */\n    tag_614:\n        /* \"TimeAlly.sol\":7443:7502  token.transferFrom(msg.sender, address(this), _exaEsAmount) */\n      dup2\n      add\n      swap1\n      dup1\n      dup1\n      mload\n      swap1\n      0x20\n      add\n      swap1\n      swap3\n      swap2\n      swap1\n      pop\n      pop\n      pop\n        /* \"TimeAlly.sol\":7435:7555  require(token.transferFrom(msg.sender, address(this), _exaEsAmount)... */\n      tag_615\n      jumpi\n      0x00\n      dup1\n      revert\n    tag_615:\n        /* \"TimeAlly.sol\":7565:7586  uint256 stakeEndMonth */\n      0x00\n        /* \"TimeAlly.sol\":7609:7621  stakingPlans */\n      0x05\n        /* \"TimeAlly.sol\":7622:7636  _stakingPlanId */\n      dup3\n        /* \"TimeAlly.sol\":7609:7637  stakingPlans[_stakingPlanId] */\n      dup2\n      sload\n      dup2\n      lt\n      tag_616\n      jumpi\n      invalid\n    tag_616:\n      swap1\n      0x00\n      mstore\n      keccak256(0x00, 0x20)\n      swap1\n      0x03\n      mul\n      add\n        /* \"TimeAlly.sol\":7609:7644  stakingPlans[_stakingPlanId].months */\n      0x00\n      add\n      sload\n        /* \"TimeAlly.sol\":7589:7606  getCurrentMonth() */\n      tag_618\n        /* \"TimeAlly.sol\":7589:7604  getCurrentMonth */\n      tag_143\n        /* \"TimeAlly.sol\":7589:7606  getCurrentMonth() */\n      jump\t// in\n    tag_618:\n        /* \"TimeAlly.sol\":7589:7644  getCurrentMonth() + stakingPlans[_stakingPlanId].months */\n      add\n        /* \"TimeAlly.sol\":7565:7644  uint256 stakeEndMonth = getCurrentMonth() + stakingPlans[_stakingPlanId].months */\n      swap1\n      pop\n        /* \"TimeAlly.sol\":7800:7813  uint256 month */\n      0x00\n        /* \"TimeAlly.sol\":7836:7837  1 */\n      0x01\n        /* \"TimeAlly.sol\":7816:7833  getCurrentMonth() */\n      tag_622\n        /* \"TimeAlly.sol\":7816:7831  getCurrentMonth */\n      tag_143\n        /* \"TimeAlly.sol\":7816:7833  getCurrentMonth() */\n      jump\t// in\n    tag_622:\n        /* \"TimeAlly.sol\":7816:7837  getCurrentMonth() + 1 */\n      add\n        /* \"TimeAlly.sol\":7800:7837  uint256 month = getCurrentMonth() + 1 */\n      swap1\n      pop\n        /* \"TimeAlly.sol\":7785:7996  for(... */\n    tag_619:\n        /* \"TimeAlly.sol\":7858:7871  stakeEndMonth */\n      dup2\n        /* \"TimeAlly.sol\":7849:7854  month */\n      dup2\n        /* \"TimeAlly.sol\":7849:7871  month <= stakeEndMonth */\n      gt\n        /* \"TimeAlly.sol\":7785:7996  for(... */\n      tag_620\n      jumpi\n        /* \"TimeAlly.sol\":7973:7985  _exaEsAmount */\n      dup4\n        /* \"TimeAlly.sol\":7944:7963  totalActiveStakings */\n      0x0a\n        /* \"TimeAlly.sol\":7944:7970  totalActiveStakings[month] */\n      0x00\n        /* \"TimeAlly.sol\":7964:7969  month */\n      dup4\n        /* \"TimeAlly.sol\":7944:7970  totalActiveStakings[month] */\n      dup2\n      mstore\n      0x20\n      add\n      swap1\n      dup2\n      mstore\n      0x20\n      add\n      0x00\n      keccak256\n      sload\n        /* \"TimeAlly.sol\":7944:7985  totalActiveStakings[month] + _exaEsAmount */\n      add\n        /* \"TimeAlly.sol\":7915:7934  totalActiveStakings */\n      0x0a\n        /* \"TimeAlly.sol\":7915:7941  totalActiveStakings[month] */\n      0x00\n        /* \"TimeAlly.sol\":7935:7940  month */\n      dup4\n        /* \"TimeAlly.sol\":7915:7941  totalActiveStakings[month] */\n      dup2\n      mstore\n      0x20\n      add\n      swap1\n      dup2\n      mstore\n      0x20\n      add\n      0x00\n      keccak256\n        /* \"TimeAlly.sol\":7915:7985  totalActiveStakings[month] = totalActiveStakings[month] + _exaEsAmount */\n      dup2\n      swap1\n      sstore\n      pop\n        /* \"TimeAlly.sol\":7883:7890  month++ */\n      dup1\n      dup1\n      0x01\n      add\n      swap2\n      pop\n      pop\n        /* \"TimeAlly.sol\":7785:7996  for(... */\n      jump(tag_619)\n    tag_620:\n      pop\n        /* \"TimeAlly.sol\":8006:8014  stakings */\n      0x07\n        /* \"TimeAlly.sol\":8006:8026  stakings[msg.sender] */\n      0x00\n        /* \"TimeAlly.sol\":8015:8025  msg.sender */\n      caller\n        /* \"TimeAlly.sol\":8006:8026  stakings[msg.sender] */\n      0xffffffffffffffffffffffffffffffffffffffff\n      and\n      0xffffffffffffffffffffffffffffffffffffffff\n      and\n      dup2\n      mstore\n      0x20\n      add\n      swap1\n      dup2\n      mstore\n      0x20\n      add\n      0x00\n      keccak256\n        /* \"TimeAlly.sol\":8032:8298  Staking({... */\n      mload(0x40)\n      dup1\n      0xe0\n      add\n      0x40\n      mstore\n      dup1\n        /* \"TimeAlly.sol\":8067:8079  _exaEsAmount */\n      dup6\n        /* \"TimeAlly.sol\":8032:8298  Staking({... */\n      dup2\n      mstore\n      0x20\n      add\n        /* \"TimeAlly.sol\":8104:8109  token */\n      0x02\n      0x00\n      swap1\n      sload\n      swap1\n      0x0100\n      exp\n      swap1\n      div\n      0xffffffffffffffffffffffffffffffffffffffff\n      and\n        /* \"TimeAlly.sol\":8104:8113  token.mou */\n      0xffffffffffffffffffffffffffffffffffffffff\n      and\n      0xb81f90f3\n        /* \"TimeAlly.sol\":8104:8115  token.mou() */\n      mload(0x40)\n      dup2\n      0xffffffff\n      and\n      0xe0\n      shl\n      dup2\n      mstore\n      0x04\n      add\n      0x20\n      mload(0x40)\n      dup1\n      dup4\n      sub\n      dup2\n      dup7\n      dup1\n      extcodesize\n      iszero\n        /* \"--CODEGEN--\":8:17   */\n      dup1\n        /* \"--CODEGEN--\":5:7   */\n      iszero\n      tag_623\n      jumpi\n        /* \"--CODEGEN--\":30:31   */\n      0x00\n        /* \"--CODEGEN--\":27:28   */\n      dup1\n        /* \"--CODEGEN--\":20:32   */\n      revert\n        /* \"--CODEGEN--\":5:7   */\n    tag_623:\n        /* \"TimeAlly.sol\":8104:8115  token.mou() */\n      pop\n      gas\n      staticcall\n      iszero\n        /* \"--CODEGEN--\":8:17   */\n      dup1\n        /* \"--CODEGEN--\":5:7   */\n      iszero\n      tag_624\n      jumpi\n        /* \"--CODEGEN--\":45:61   */\n      returndatasize\n        /* \"--CODEGEN--\":42:43   */\n      0x00\n        /* \"--CODEGEN--\":39:40   */\n      dup1\n        /* \"--CODEGEN--\":24:62   */\n      returndatacopy\n        /* \"--CODEGEN--\":77:93   */\n      returndatasize\n        /* \"--CODEGEN--\":74:75   */\n      0x00\n        /* \"--CODEGEN--\":67:94   */\n      revert\n        /* \"--CODEGEN--\":5:7   */\n    tag_624:\n        /* \"TimeAlly.sol\":8104:8115  token.mou() */\n      pop\n      pop\n      pop\n      pop\n      mload(0x40)\n      returndatasize\n        /* \"--CODEGEN--\":13:15   */\n      0x20\n        /* \"--CODEGEN--\":8:11   */\n      dup2\n        /* \"--CODEGEN--\":5:16   */\n      lt\n        /* \"--CODEGEN--\":2:4   */\n      iszero\n      tag_625\n      jumpi\n        /* \"--CODEGEN--\":29:30   */\n      0x00\n        /* \"--CODEGEN--\":26:27   */\n      dup1\n        /* \"--CODEGEN--\":19:31   */\n      revert\n        /* \"--CODEGEN--\":2:4   */\n    tag_625:\n        /* \"TimeAlly.sol\":8104:8115  token.mou() */\n      dup2\n      add\n      swap1\n      dup1\n      dup1\n      mload\n      swap1\n      0x20\n      add\n      swap1\n      swap3\n      swap2\n      swap1\n      pop\n      pop\n      pop\n        /* \"TimeAlly.sol\":8032:8298  Staking({... */\n      dup2\n      mstore\n      0x20\n      add\n        /* \"TimeAlly.sol\":8143:8160  getCurrentMonth() */\n      tag_626\n        /* \"TimeAlly.sol\":8143:8158  getCurrentMonth */\n      tag_143\n        /* \"TimeAlly.sol\":8143:8160  getCurrentMonth() */\n      jump\t// in\n    tag_626:\n        /* \"TimeAlly.sol\":8032:8298  Staking({... */\n      dup2\n      mstore\n      0x20\n      add\n        /* \"TimeAlly.sol\":8189:8203  _stakingPlanId */\n      dup5\n        /* \"TimeAlly.sol\":8032:8298  Staking({... */\n      dup2\n      mstore\n      0x20\n      add\n        /* \"TimeAlly.sol\":8225:8226  1 */\n      0x01\n        /* \"TimeAlly.sol\":8032:8298  Staking({... */\n      dup2\n      mstore\n      0x20\n      add\n        /* \"TimeAlly.sol\":8248:8249  0 */\n      0x00\n        /* \"TimeAlly.sol\":8032:8298  Staking({... */\n      dup2\n      mstore\n      0x20\n      add\n        /* \"TimeAlly.sol\":8286:8287  0 */\n      0x00\n        /* \"TimeAlly.sol\":8032:8298  Staking({... */\n      dup2\n      mstore\n      pop\n        /* \"TimeAlly.sol\":8006:8299  stakings[msg.sender].push(Staking({... */\n      swap1\n      dup1\n        /* \"--CODEGEN--\":39:40   */\n      0x01\n        /* \"--CODEGEN--\":33:36   */\n      dup2\n        /* \"--CODEGEN--\":27:37   */\n      sload\n        /* \"--CODEGEN--\":23:41   */\n      add\n        /* \"--CODEGEN--\":57:67   */\n      dup1\n        /* \"--CODEGEN--\":52:55   */\n      dup3\n        /* \"--CODEGEN--\":45:68   */\n      sstore\n        /* \"--CODEGEN--\":79:89   */\n      dup1\n        /* \"--CODEGEN--\":72:89   */\n      swap2\n      pop\n        /* \"--CODEGEN--\":0:93   */\n      pop\n        /* \"TimeAlly.sol\":8006:8299  stakings[msg.sender].push(Staking({... */\n      swap1\n      0x01\n      dup3\n      sub\n      swap1\n      0x00\n      mstore\n      keccak256(0x00, 0x20)\n      swap1\n      0x09\n      mul\n      add\n      0x00\n      swap1\n      swap2\n      swap3\n      swap1\n      swap2\n      swap1\n      swap2\n      pop\n      0x00\n      dup3\n      add\n      mload\n      dup2\n      0x00\n      add\n      sstore\n      0x20\n      dup3\n      add\n      mload\n      dup2\n      0x01\n      add\n      sstore\n      0x40\n      dup3\n      add\n      mload\n      dup2\n      0x02\n      add\n      sstore\n      0x60\n      dup3\n      add\n      mload\n      dup2\n      0x03\n      add\n      sstore\n      0x80\n      dup3\n      add\n      mload\n      dup2\n      0x04\n      add\n      sstore\n      0xa0\n      dup3\n      add\n      mload\n      dup2\n      0x05\n      add\n      sstore\n      0xc0\n      dup3\n      add\n      mload\n      dup2\n      0x06\n      add\n      sstore\n      pop\n      pop\n      pop\n        /* \"TimeAlly.sol\":8338:8352  _stakingPlanId */\n      dup2\n        /* \"TimeAlly.sol\":8326:8336  msg.sender */\n      caller\n        /* \"TimeAlly.sol\":8315:8400  NewStaking(msg.sender, _stakingPlanId, _exaEsAmount, stakings[msg.sender].length - 1) */\n      0xffffffffffffffffffffffffffffffffffffffff\n      and\n      0x680a0e2e97ad7c29da7985e37b699f19857c055166f801e50d90661eae30fcc3\n        /* \"TimeAlly.sol\":8354:8366  _exaEsAmount */\n      dup6\n        /* \"TimeAlly.sol\":8398:8399  1 */\n      0x01\n        /* \"TimeAlly.sol\":8368:8376  stakings */\n      0x07\n        /* \"TimeAlly.sol\":8368:8388  stakings[msg.sender] */\n      0x00\n        /* \"TimeAlly.sol\":8377:8387  msg.sender */\n      caller\n        /* \"TimeAlly.sol\":8368:8388  stakings[msg.sender] */\n      0xffffffffffffffffffffffffffffffffffffffff\n      and\n      0xffffffffffffffffffffffffffffffffffffffff\n      and\n      dup2\n      mstore\n      0x20\n      add\n      swap1\n      dup2\n      mstore\n      0x20\n      add\n      0x00\n      keccak256\n        /* \"TimeAlly.sol\":8368:8395  stakings[msg.sender].length */\n      dup1\n      sload\n      swap1\n      pop\n        /* \"TimeAlly.sol\":8368:8399  stakings[msg.sender].length - 1 */\n      sub\n        /* \"TimeAlly.sol\":8315:8400  NewStaking(msg.sender, _stakingPlanId, _exaEsAmount, stakings[msg.sender].length - 1) */\n      mload(0x40)\n      dup1\n      dup4\n      dup2\n      mstore\n      0x20\n      add\n      dup3\n      dup2\n      mstore\n      0x20\n      add\n      swap3\n      pop\n      pop\n      pop\n      mload(0x40)\n      dup1\n      swap2\n      sub\n      swap1\n      log3\n        /* \"TimeAlly.sol\":6981:8407  function newStaking(uint256 _exaEsAmount, uint256 _stakingPlanId) public {... */\n      pop\n      pop\n      pop\n      jump\t// out\n        /* \"TimeAlly.sol\":4584:4705  function increaseMonth(uint256 _timeAllyNRT) public onlyNRTManager {... */\n    tag_152:\n        /* \"TimeAlly.sol\":3772:3782  nrtManager */\n      0x03\n      0x00\n      swap1\n      sload\n      swap1\n      0x0100\n      exp\n      swap1\n      div\n      0xffffffffffffffffffffffffffffffffffffffff\n      and\n        /* \"TimeAlly.sol\":3750:3783  msg.sender == address(nrtManager) */\n      0xffffffffffffffffffffffffffffffffffffffff\n      and\n        /* \"TimeAlly.sol\":3750:3760  msg.sender */\n      caller\n        /* \"TimeAlly.sol\":3750:3783  msg.sender == address(nrtManager) */\n      0xffffffffffffffffffffffffffffffffffffffff\n      and\n      eq\n        /* \"TimeAlly.sol\":3731:3836  require(... */\n      tag_629\n      jumpi\n      0x00\n      dup1\n      revert\n    tag_629:\n        /* \"TimeAlly.sol\":4661:4679  timeAllyMonthlyNRT */\n      0x0b\n        /* \"TimeAlly.sol\":4685:4697  _timeAllyNRT */\n      dup2\n        /* \"TimeAlly.sol\":4661:4698  timeAllyMonthlyNRT.push(_timeAllyNRT) */\n      swap1\n      dup1\n        /* \"--CODEGEN--\":39:40   */\n      0x01\n        /* \"--CODEGEN--\":33:36   */\n      dup2\n        /* \"--CODEGEN--\":27:37   */\n      sload\n        /* \"--CODEGEN--\":23:41   */\n      add\n        /* \"--CODEGEN--\":57:67   */\n      dup1\n        /* \"--CODEGEN--\":52:55   */\n      dup3\n        /* \"--CODEGEN--\":45:68   */\n      sstore\n        /* \"--CODEGEN--\":79:89   */\n      dup1\n        /* \"--CODEGEN--\":72:89   */\n      swap2\n      pop\n        /* \"--CODEGEN--\":0:93   */\n      pop\n        /* \"TimeAlly.sol\":4661:4698  timeAllyMonthlyNRT.push(_timeAllyNRT) */\n      swap1\n      0x01\n      dup3\n      sub\n      swap1\n      0x00\n      mstore\n      keccak256(0x00, 0x20)\n      add\n      0x00\n      swap1\n      swap2\n      swap3\n      swap1\n      swap2\n      swap1\n      swap2\n      pop\n      sstore\n      pop\n        /* \"TimeAlly.sol\":4584:4705  function increaseMonth(uint256 _timeAllyNRT) public onlyNRTManager {... */\n      pop\n      jump\t// out\n        /* \"TimeAlly.sol\":23974:24980  function withdrawExpiredStakings(uint256[] memory _stakingIds) public {... */\n    tag_158:\n        /* \"TimeAlly.sol\":24058:24067  uint256 i */\n      0x00\n        /* \"TimeAlly.sol\":24070:24071  0 */\n      dup1\n        /* \"TimeAlly.sol\":24058:24071  uint256 i = 0 */\n      swap1\n      pop\n        /* \"TimeAlly.sol\":24054:24974  for(uint256 i = 0; i < _stakingIds.length; i++) {... */\n    tag_633:\n        /* \"TimeAlly.sol\":24077:24088  _stakingIds */\n      dup2\n        /* \"TimeAlly.sol\":24077:24095  _stakingIds.length */\n      mload\n        /* \"TimeAlly.sol\":24073:24074  i */\n      dup2\n        /* \"TimeAlly.sol\":24073:24095  i < _stakingIds.length */\n      lt\n        /* \"TimeAlly.sol\":24054:24974  for(uint256 i = 0; i < _stakingIds.length; i++) {... */\n      iszero\n      tag_634\n      jumpi\n        /* \"TimeAlly.sol\":24139:24310  stakings[msg.sender][_stakingIds[i]].timestamp... */\n      tag_636\n        /* \"TimeAlly.sol\":24211:24309  stakingPlans[ stakings[msg.sender][_stakingIds[i]].stakingPlanId ].months.mul(earthSecondsInMonth) */\n      tag_637\n        /* \"TimeAlly.sol\":24289:24308  earthSecondsInMonth */\n      sload(0x04)\n        /* \"TimeAlly.sol\":24211:24223  stakingPlans */\n      0x05\n        /* \"TimeAlly.sol\":24225:24233  stakings */\n      0x07\n        /* \"TimeAlly.sol\":24225:24245  stakings[msg.sender] */\n      0x00\n        /* \"TimeAlly.sol\":24234:24244  msg.sender */\n      caller\n        /* \"TimeAlly.sol\":24225:24245  stakings[msg.sender] */\n      0xffffffffffffffffffffffffffffffffffffffff\n      and\n      0xffffffffffffffffffffffffffffffffffffffff\n      and\n      dup2\n      mstore\n      0x20\n      add\n      swap1\n      dup2\n      mstore\n      0x20\n      add\n      0x00\n      keccak256\n        /* \"TimeAlly.sol\":24246:24257  _stakingIds */\n      dup7\n        /* \"TimeAlly.sol\":24258:24259  i */\n      dup7\n        /* \"TimeAlly.sol\":24246:24260  _stakingIds[i] */\n      dup2\n      mload\n      dup2\n      lt\n      tag_638\n      jumpi\n      invalid\n    tag_638:\n      0x20\n      mul\n      0x20\n      add\n      add\n      mload\n        /* \"TimeAlly.sol\":24225:24261  stakings[msg.sender][_stakingIds[i]] */\n      dup2\n      sload\n      dup2\n      lt\n      tag_639\n      jumpi\n      invalid\n    tag_639:\n      swap1\n      0x00\n      mstore\n      keccak256(0x00, 0x20)\n      swap1\n      0x09\n      mul\n      add\n        /* \"TimeAlly.sol\":24225:24275  stakings[msg.sender][_stakingIds[i]].stakingPlanId */\n      0x03\n      add\n      sload\n        /* \"TimeAlly.sol\":24211:24277  stakingPlans[ stakings[msg.sender][_stakingIds[i]].stakingPlanId ] */\n      dup2\n      sload\n      dup2\n      lt\n      tag_641\n      jumpi\n      invalid\n    tag_641:\n      swap1\n      0x00\n      mstore\n      keccak256(0x00, 0x20)\n      swap1\n      0x03\n      mul\n      add\n        /* \"TimeAlly.sol\":24211:24284  stakingPlans[ stakings[msg.sender][_stakingIds[i]].stakingPlanId ].months */\n      0x00\n      add\n      sload\n        /* \"TimeAlly.sol\":24211:24288  stakingPlans[ stakings[msg.sender][_stakingIds[i]].stakingPlanId ].months.mul */\n      tag_177\n      swap1\n        /* \"TimeAlly.sol\":24211:24309  stakingPlans[ stakings[msg.sender][_stakingIds[i]].stakingPlanId ].months.mul(earthSecondsInMonth) */\n      swap2\n      swap1\n      0xffffffff\n      and\n      jump\t// in\n    tag_637:\n        /* \"TimeAlly.sol\":24139:24147  stakings */\n      0x07\n        /* \"TimeAlly.sol\":24139:24159  stakings[msg.sender] */\n      0x00\n        /* \"TimeAlly.sol\":24148:24158  msg.sender */\n      caller\n        /* \"TimeAlly.sol\":24139:24159  stakings[msg.sender] */\n      0xffffffffffffffffffffffffffffffffffffffff\n      and\n      0xffffffffffffffffffffffffffffffffffffffff\n      and\n      dup2\n      mstore\n      0x20\n      add\n      swap1\n      dup2\n      mstore\n      0x20\n      add\n      0x00\n      keccak256\n        /* \"TimeAlly.sol\":24160:24171  _stakingIds */\n      dup5\n        /* \"TimeAlly.sol\":24172:24173  i */\n      dup5\n        /* \"TimeAlly.sol\":24160:24174  _stakingIds[i] */\n      dup2\n      mload\n      dup2\n      lt\n      tag_643\n      jumpi\n      invalid\n    tag_643:\n      0x20\n      mul\n      0x20\n      add\n      add\n      mload\n        /* \"TimeAlly.sol\":24139:24175  stakings[msg.sender][_stakingIds[i]] */\n      dup2\n      sload\n      dup2\n      lt\n      tag_644\n      jumpi\n      invalid\n    tag_644:\n      swap1\n      0x00\n      mstore\n      keccak256(0x00, 0x20)\n      swap1\n      0x09\n      mul\n      add\n        /* \"TimeAlly.sol\":24139:24185  stakings[msg.sender][_stakingIds[i]].timestamp */\n      0x01\n      add\n      sload\n        /* \"TimeAlly.sol\":24139:24210  stakings[msg.sender][_stakingIds[i]].timestamp... */\n      tag_199\n      swap1\n        /* \"TimeAlly.sol\":24139:24310  stakings[msg.sender][_stakingIds[i]].timestamp... */\n      swap2\n      swap1\n      0xffffffff\n      and\n      jump\t// in\n    tag_636:\n        /* \"TimeAlly.sol\":24124:24129  token */\n      0x02\n      0x00\n      swap1\n      sload\n      swap1\n      0x0100\n      exp\n      swap1\n      div\n      0xffffffffffffffffffffffffffffffffffffffff\n      and\n        /* \"TimeAlly.sol\":24124:24133  token.mou */\n      0xffffffffffffffffffffffffffffffffffffffff\n      and\n      0xb81f90f3\n        /* \"TimeAlly.sol\":24124:24135  token.mou() */\n      mload(0x40)\n      dup2\n      0xffffffff\n      and\n      0xe0\n      shl\n      dup2\n      mstore\n      0x04\n      add\n      0x20\n      mload(0x40)\n      dup1\n      dup4\n      sub\n      dup2\n      dup7\n      dup1\n      extcodesize\n      iszero\n        /* \"--CODEGEN--\":8:17   */\n      dup1\n        /* \"--CODEGEN--\":5:7   */\n      iszero\n      tag_646\n      jumpi\n        /* \"--CODEGEN--\":30:31   */\n      0x00\n        /* \"--CODEGEN--\":27:28   */\n      dup1\n        /* \"--CODEGEN--\":20:32   */\n      revert\n        /* \"--CODEGEN--\":5:7   */\n    tag_646:\n        /* \"TimeAlly.sol\":24124:24135  token.mou() */\n      pop\n      gas\n      staticcall\n      iszero\n        /* \"--CODEGEN--\":8:17   */\n      dup1\n        /* \"--CODEGEN--\":5:7   */\n      iszero\n      tag_647\n      jumpi\n        /* \"--CODEGEN--\":45:61   */\n      returndatasize\n        /* \"--CODEGEN--\":42:43   */\n      0x00\n        /* \"--CODEGEN--\":39:40   */\n      dup1\n        /* \"--CODEGEN--\":24:62   */\n      returndatacopy\n        /* \"--CODEGEN--\":77:93   */\n      returndatasize\n        /* \"--CODEGEN--\":74:75   */\n      0x00\n        /* \"--CODEGEN--\":67:94   */\n      revert\n        /* \"--CODEGEN--\":5:7   */\n    tag_647:\n        /* \"TimeAlly.sol\":24124:24135  token.mou() */\n      pop\n      pop\n      pop\n      pop\n      mload(0x40)\n      returndatasize\n        /* \"--CODEGEN--\":13:15   */\n      0x20\n        /* \"--CODEGEN--\":8:11   */\n      dup2\n        /* \"--CODEGEN--\":5:16   */\n      lt\n        /* \"--CODEGEN--\":2:4   */\n      iszero\n      tag_648\n      jumpi\n        /* \"--CODEGEN--\":29:30   */\n      0x00\n        /* \"--CODEGEN--\":26:27   */\n      dup1\n        /* \"--CODEGEN--\":19:31   */\n      revert\n        /* \"--CODEGEN--\":2:4   */\n    tag_648:\n        /* \"TimeAlly.sol\":24124:24135  token.mou() */\n      dup2\n      add\n      swap1\n      dup1\n      dup1\n      mload\n      swap1\n      0x20\n      add\n      swap1\n      swap3\n      swap2\n      swap1\n      pop\n      pop\n      pop\n        /* \"TimeAlly.sol\":24124:24310  token.mou() >= stakings[msg.sender][_stakingIds[i]].timestamp... */\n      lt\n      iszero\n        /* \"TimeAlly.sol\":24116:24381  require(token.mou() >= stakings[msg.sender][_stakingIds[i]].timestamp... */\n      tag_649\n      jumpi\n      0x00\n      dup1\n      revert\n    tag_649:\n        /* \"TimeAlly.sol\":24441:24442  3 */\n      0x03\n        /* \"TimeAlly.sol\":24395:24403  stakings */\n      0x07\n        /* \"TimeAlly.sol\":24395:24415  stakings[msg.sender] */\n      0x00\n        /* \"TimeAlly.sol\":24404:24414  msg.sender */\n      caller\n        /* \"TimeAlly.sol\":24395:24415  stakings[msg.sender] */\n      0xffffffffffffffffffffffffffffffffffffffff\n      and\n      0xffffffffffffffffffffffffffffffffffffffff\n      and\n      dup2\n      mstore\n      0x20\n      add\n      swap1\n      dup2\n      mstore\n      0x20\n      add\n      0x00\n      keccak256\n        /* \"TimeAlly.sol\":24416:24427  _stakingIds */\n      dup4\n        /* \"TimeAlly.sol\":24428:24429  i */\n      dup4\n        /* \"TimeAlly.sol\":24416:24430  _stakingIds[i] */\n      dup2\n      mload\n      dup2\n      lt\n      tag_650\n      jumpi\n      invalid\n    tag_650:\n      0x20\n      mul\n      0x20\n      add\n      add\n      mload\n        /* \"TimeAlly.sol\":24395:24431  stakings[msg.sender][_stakingIds[i]] */\n      dup2\n      sload\n      dup2\n      lt\n      tag_651\n      jumpi\n      invalid\n    tag_651:\n      swap1\n      0x00\n      mstore\n      keccak256(0x00, 0x20)\n      swap1\n      0x09\n      mul\n      add\n        /* \"TimeAlly.sol\":24395:24438  stakings[msg.sender][_stakingIds[i]].status */\n      0x04\n      add\n        /* \"TimeAlly.sol\":24395:24442  stakings[msg.sender][_stakingIds[i]].status = 3 */\n      dup2\n      swap1\n      sstore\n      pop\n        /* \"TimeAlly.sol\":24887:24892  token */\n      0x02\n      0x00\n      swap1\n      sload\n      swap1\n      0x0100\n      exp\n      swap1\n      div\n      0xffffffffffffffffffffffffffffffffffffffff\n      and\n        /* \"TimeAlly.sol\":24887:24901  token.transfer */\n      0xffffffffffffffffffffffffffffffffffffffff\n      and\n      0xa9059cbb\n        /* \"TimeAlly.sol\":24902:24912  msg.sender */\n      caller\n        /* \"TimeAlly.sol\":24914:24922  stakings */\n      0x07\n        /* \"TimeAlly.sol\":24914:24934  stakings[msg.sender] */\n      0x00\n        /* \"TimeAlly.sol\":24923:24933  msg.sender */\n      caller\n        /* \"TimeAlly.sol\":24914:24934  stakings[msg.sender] */\n      0xffffffffffffffffffffffffffffffffffffffff\n      and\n      0xffffffffffffffffffffffffffffffffffffffff\n      and\n      dup2\n      mstore\n      0x20\n      add\n      swap1\n      dup2\n      mstore\n      0x20\n      add\n      0x00\n      keccak256\n        /* \"TimeAlly.sol\":24935:24946  _stakingIds */\n      dup6\n        /* \"TimeAlly.sol\":24947:24948  i */\n      dup6\n        /* \"TimeAlly.sol\":24935:24949  _stakingIds[i] */\n      dup2\n      mload\n      dup2\n      lt\n      tag_653\n      jumpi\n      invalid\n    tag_653:\n      0x20\n      mul\n      0x20\n      add\n      add\n      mload\n        /* \"TimeAlly.sol\":24914:24950  stakings[msg.sender][_stakingIds[i]] */\n      dup2\n      sload\n      dup2\n      lt\n      tag_654\n      jumpi\n      invalid\n    tag_654:\n      swap1\n      0x00\n      mstore\n      keccak256(0x00, 0x20)\n      swap1\n      0x09\n      mul\n      add\n        /* \"TimeAlly.sol\":24914:24962  stakings[msg.sender][_stakingIds[i]].exaEsAmount */\n      0x00\n      add\n      sload\n        /* \"TimeAlly.sol\":24887:24963  token.transfer(msg.sender, stakings[msg.sender][_stakingIds[i]].exaEsAmount) */\n      mload(0x40)\n      dup4\n      0xffffffff\n      and\n      0xe0\n      shl\n      dup2\n      mstore\n      0x04\n      add\n      dup1\n      dup4\n      0xffffffffffffffffffffffffffffffffffffffff\n      and\n      0xffffffffffffffffffffffffffffffffffffffff\n      and\n      dup2\n      mstore\n      0x20\n      add\n      dup3\n      dup2\n      mstore\n      0x20\n      add\n      swap3\n      pop\n      pop\n      pop\n      0x20\n      mload(0x40)\n      dup1\n      dup4\n      sub\n      dup2\n      0x00\n      dup8\n      dup1\n      extcodesize\n      iszero\n        /* \"--CODEGEN--\":8:17   */\n      dup1\n        /* \"--CODEGEN--\":5:7   */\n      iszero\n      tag_656\n      jumpi\n        /* \"--CODEGEN--\":30:31   */\n      0x00\n        /* \"--CODEGEN--\":27:28   */\n      dup1\n        /* \"--CODEGEN--\":20:32   */\n      revert\n        /* \"--CODEGEN--\":5:7   */\n    tag_656:\n        /* \"TimeAlly.sol\":24887:24963  token.transfer(msg.sender, stakings[msg.sender][_stakingIds[i]].exaEsAmount) */\n      pop\n      gas\n      call\n      iszero\n        /* \"--CODEGEN--\":8:17   */\n      dup1\n        /* \"--CODEGEN--\":5:7   */\n      iszero\n      tag_657\n      jumpi\n        /* \"--CODEGEN--\":45:61   */\n      returndatasize\n        /* \"--CODEGEN--\":42:43   */\n      0x00\n        /* \"--CODEGEN--\":39:40   */\n      dup1\n        /* \"--CODEGEN--\":24:62   */\n      returndatacopy\n        /* \"--CODEGEN--\":77:93   */\n      returndatasize\n        /* \"--CODEGEN--\":74:75   */\n      0x00\n        /* \"--CODEGEN--\":67:94   */\n      revert\n        /* \"--CODEGEN--\":5:7   */\n    tag_657:\n        /* \"TimeAlly.sol\":24887:24963  token.transfer(msg.sender, stakings[msg.sender][_stakingIds[i]].exaEsAmount) */\n      pop\n      pop\n      pop\n      pop\n      mload(0x40)\n      returndatasize\n        /* \"--CODEGEN--\":13:15   */\n      0x20\n        /* \"--CODEGEN--\":8:11   */\n      dup2\n        /* \"--CODEGEN--\":5:16   */\n      lt\n        /* \"--CODEGEN--\":2:4   */\n      iszero\n      tag_658\n      jumpi\n        /* \"--CODEGEN--\":29:30   */\n      0x00\n        /* \"--CODEGEN--\":26:27   */\n      dup1\n        /* \"--CODEGEN--\":19:31   */\n      revert\n        /* \"--CODEGEN--\":2:4   */\n    tag_658:\n        /* \"TimeAlly.sol\":24887:24963  token.transfer(msg.sender, stakings[msg.sender][_stakingIds[i]].exaEsAmount) */\n      dup2\n      add\n      swap1\n      dup1\n      dup1\n      mload\n      swap1\n      0x20\n      add\n      swap1\n      swap3\n      swap2\n      swap1\n      pop\n      pop\n      pop\n      pop\n        /* \"TimeAlly.sol\":24097:24100  i++ */\n      dup1\n      dup1\n      0x01\n      add\n      swap2\n      pop\n      pop\n        /* \"TimeAlly.sol\":24054:24974  for(uint256 i = 0; i < _stakingIds.length; i++) {... */\n      jump(tag_633)\n    tag_634:\n      pop\n        /* \"TimeAlly.sol\":23974:24980  function withdrawExpiredStakings(uint256[] memory _stakingIds) public {... */\n      pop\n      jump\t// out\n        /* \"TimeAlly.sol\":1872:1892  Eraswap public token */\n    tag_160:\n      0x02\n      0x00\n      swap1\n      sload\n      swap1\n      0x0100\n      exp\n      swap1\n      div\n      0xffffffffffffffffffffffffffffffffffffffff\n      and\n      dup2\n      jump\t// out\n        /* \"SafeMath.sol\":231:652  function mul(uint256 a, uint256 b) internal pure returns (uint256) {... */\n    tag_177:\n        /* \"SafeMath.sol\":289:296  uint256 */\n      0x00\n        /* \"SafeMath.sol\":534:535  0 */\n      dup1\n        /* \"SafeMath.sol\":529:530  a */\n      dup4\n        /* \"SafeMath.sol\":529:535  a == 0 */\n      eq\n        /* \"SafeMath.sol\":525:570  if (a == 0) {... */\n      iszero\n      tag_660\n      jumpi\n        /* \"SafeMath.sol\":558:559  0 */\n      0x00\n        /* \"SafeMath.sol\":551:559  return 0 */\n      swap1\n      pop\n      jump(tag_659)\n        /* \"SafeMath.sol\":525:570  if (a == 0) {... */\n    tag_660:\n        /* \"SafeMath.sol\":580:589  uint256 c */\n      0x00\n        /* \"SafeMath.sol\":596:597  b */\n      dup3\n        /* \"SafeMath.sol\":592:593  a */\n      dup5\n        /* \"SafeMath.sol\":592:597  a * b */\n      mul\n        /* \"SafeMath.sol\":580:597  uint256 c = a * b */\n      swap1\n      pop\n        /* \"SafeMath.sol\":624:625  b */\n      dup3\n        /* \"SafeMath.sol\":619:620  a */\n      dup5\n        /* \"SafeMath.sol\":615:616  c */\n      dup3\n        /* \"SafeMath.sol\":615:620  c / a */\n      dup2\n      tag_661\n      jumpi\n      invalid\n    tag_661:\n      div\n        /* \"SafeMath.sol\":615:625  c / a == b */\n      eq\n        /* \"SafeMath.sol\":607:626  require(c / a == b) */\n      tag_662\n      jumpi\n      0x00\n      dup1\n      revert\n    tag_662:\n        /* \"SafeMath.sol\":644:645  c */\n      dup1\n        /* \"SafeMath.sol\":637:645  return c */\n      swap2\n      pop\n      pop\n        /* \"SafeMath.sol\":231:652  function mul(uint256 a, uint256 b) internal pure returns (uint256) {... */\n    tag_659:\n      swap3\n      swap2\n      pop\n      pop\n      jump\t// out\n        /* \"SafeMath.sol\":1439:1584  function add(uint256 a, uint256 b) internal pure returns (uint256) {... */\n    tag_199:\n        /* \"SafeMath.sol\":1497:1504  uint256 */\n      0x00\n        /* \"SafeMath.sol\":1516:1525  uint256 c */\n      dup1\n        /* \"SafeMath.sol\":1532:1533  b */\n      dup3\n        /* \"SafeMath.sol\":1528:1529  a */\n      dup5\n        /* \"SafeMath.sol\":1528:1533  a + b */\n      add\n        /* \"SafeMath.sol\":1516:1533  uint256 c = a + b */\n      swap1\n      pop\n        /* \"SafeMath.sol\":1556:1557  a */\n      dup4\n        /* \"SafeMath.sol\":1551:1552  c */\n      dup2\n        /* \"SafeMath.sol\":1551:1557  c >= a */\n      lt\n      iszero\n        /* \"SafeMath.sol\":1543:1558  require(c >= a) */\n      tag_664\n      jumpi\n      0x00\n      dup1\n      revert\n    tag_664:\n        /* \"SafeMath.sol\":1576:1577  c */\n      dup1\n        /* \"SafeMath.sol\":1569:1577  return c */\n      swap2\n      pop\n      pop\n        /* \"SafeMath.sol\":1439:1584  function add(uint256 a, uint256 b) internal pure returns (uint256) {... */\n      swap3\n      swap2\n      pop\n      pop\n      jump\t// out\n        /* \"SafeMath.sol\":1211:1356  function sub(uint256 a, uint256 b) internal pure returns (uint256) {... */\n    tag_205:\n        /* \"SafeMath.sol\":1269:1276  uint256 */\n      0x00\n        /* \"SafeMath.sol\":1301:1302  a */\n      dup3\n        /* \"SafeMath.sol\":1296:1297  b */\n      dup3\n        /* \"SafeMath.sol\":1296:1302  b <= a */\n      gt\n      iszero\n        /* \"SafeMath.sol\":1288:1303  require(b <= a) */\n      tag_666\n      jumpi\n      0x00\n      dup1\n      revert\n    tag_666:\n        /* \"SafeMath.sol\":1313:1322  uint256 c */\n      0x00\n        /* \"SafeMath.sol\":1329:1330  b */\n      dup3\n        /* \"SafeMath.sol\":1325:1326  a */\n      dup5\n        /* \"SafeMath.sol\":1325:1330  a - b */\n      sub\n        /* \"SafeMath.sol\":1313:1330  uint256 c = a - b */\n      swap1\n      pop\n        /* \"SafeMath.sol\":1348:1349  c */\n      dup1\n        /* \"SafeMath.sol\":1341:1349  return c */\n      swap2\n      pop\n      pop\n        /* \"SafeMath.sol\":1211:1356  function sub(uint256 a, uint256 b) internal pure returns (uint256) {... */\n      swap3\n      swap2\n      pop\n      pop\n      jump\t// out\n        /* \"SafeMath.sol\":782:1078  function div(uint256 a, uint256 b) internal pure returns (uint256) {... */\n    tag_237:\n        /* \"SafeMath.sol\":840:847  uint256 */\n      0x00\n        /* \"SafeMath.sol\":937:938  0 */\n      dup1\n        /* \"SafeMath.sol\":933:934  b */\n      dup3\n        /* \"SafeMath.sol\":933:938  b > 0 */\n      gt\n        /* \"SafeMath.sol\":925:939  require(b > 0) */\n      tag_668\n      jumpi\n      0x00\n      dup1\n      revert\n    tag_668:\n        /* \"SafeMath.sol\":949:958  uint256 c */\n      0x00\n        /* \"SafeMath.sol\":965:966  b */\n      dup3\n        /* \"SafeMath.sol\":961:962  a */\n      dup5\n        /* \"SafeMath.sol\":961:966  a / b */\n      dup2\n      tag_669\n      jumpi\n      invalid\n    tag_669:\n      div\n        /* \"SafeMath.sol\":949:966  uint256 c = a / b */\n      swap1\n      pop\n        /* \"SafeMath.sol\":1070:1071  c */\n      dup1\n        /* \"SafeMath.sol\":1063:1071  return c */\n      swap2\n      pop\n      pop\n        /* \"SafeMath.sol\":782:1078  function div(uint256 a, uint256 b) internal pure returns (uint256) {... */\n      swap3\n      swap2\n      pop\n      pop\n      jump\t// out\n        /* \"TimeAlly.sol\":670:42673  contract TimeAlly {... */\n    tag_506:\n      dup3\n      dup1\n      sload\n      dup3\n      dup3\n      sstore\n      swap1\n      0x00\n      mstore\n      keccak256(0x00, 0x20)\n      swap1\n      dup2\n      add\n      swap3\n      dup3\n      iszero\n      tag_670\n      jumpi\n      swap2\n      0x20\n      mul\n      dup3\n      add\n    tag_671:\n      dup3\n      dup2\n      gt\n      iszero\n      tag_672\n      jumpi\n      dup3\n      mload\n      dup3\n      sstore\n      swap2\n      0x20\n      add\n      swap2\n      swap1\n      0x01\n      add\n      swap1\n      jump(tag_671)\n    tag_672:\n    tag_670:\n      pop\n      swap1\n      pop\n      tag_673\n      swap2\n      swap1\n      tag_674\n      jump\t// in\n    tag_673:\n      pop\n      swap1\n      jump\t// out\n    tag_674:\n      tag_675\n      swap2\n      swap1\n    tag_676:\n      dup1\n      dup3\n      gt\n      iszero\n      tag_677\n      jumpi\n      0x00\n      dup2\n      0x00\n      swap1\n      sstore\n      pop\n      0x01\n      add\n      jump(tag_676)\n    tag_677:\n      pop\n      swap1\n      jump\n    tag_675:\n      swap1\n      jump\t// out\n\n    auxdata: 0xa265627a7a72305820c70f4424ef8fe306af9cb8ceed598286e8d9cac9df677dd7e5c424d9a84b543b64736f6c634300050a0032\n}\n","bytecode":{"linkReferences":{},"object":"6080604052622820706004553480156200001857600080fd5b5060405162005de538038062005de5833981810160405260408110156200003e57600080fd5b81019080805190602001909291908051906020019092919050505033600160006101000a81548173ffffffffffffffffffffffffffffffffffffffff021916908373ffffffffffffffffffffffffffffffffffffffff16021790555081600260006101000a81548173ffffffffffffffffffffffffffffffffffffffff021916908373ffffffffffffffffffffffffffffffffffffffff16021790555080600360006101000a81548173ffffffffffffffffffffffffffffffffffffffff021916908373ffffffffffffffffffffffffffffffffffffffff160217905550600260009054906101000a900473ffffffffffffffffffffffffffffffffffffffff1673ffffffffffffffffffffffffffffffffffffffff1663b81f90f36040518163ffffffff1660e01b815260040160206040518083038186803b1580156200018557600080fd5b505afa1580156200019a573d6000803e3d6000fd5b505050506040513d6020811015620001b157600080fd5b8101908080519060200190929190505050600081905550600b600090806001815401808255809150509060018203906000526020600020016000909192909190915055505050615bde80620002076000396000f3fe608060405234801561001057600080fd5b50600436106101f05760003560e01c806398c61c371161010f578063d58424a3116100a2578063e5fd04e611610071578063e5fd04e614610ea8578063e78c81c414610ee0578063e83f784314610f0e578063fc0c546a14610fc6576101f0565b8063d58424a314610dbe578063da9d8aa014610e2e578063ddd1b67e14610e5c578063dea6cf4314610e7a576101f0565b8063be4ad9c3116100de578063be4ad9c314610b8f578063c22251b314610c7b578063cc44a2fd14610ca9578063d0e3268114610cf2576101f0565b806398c61c37146109a65780639d0b8b4414610a1d578063a4c0e90a14610adf578063ad998fa014610b37576101f0565b806353fcb2f31161018757806382f978571161015657806382f978571461078a57806388c5f296146107c25780638da5cb5b1461090e578063911e8bc614610958576101f0565b806353fcb2f314610661578063762e7a341461068f578063778db8d4146106ee5780637acab85714610732576101f0565b80632c779774116101c35780632c779774146104595780632e9721b61461054f5780634ec0692c146105d15780634f916fb014610613576101f0565b80630df5202f146101f557806316d3e9661461023f5780631849d8ea1461038b57806323a15e6b14610417575b600080fd5b6101fd611010565b604051808273ffffffffffffffffffffffffffffffffffffffff1673ffffffffffffffffffffffffffffffffffffffff16815260200191505060405180910390f35b6103896004803603604081101561025557600080fd5b810190808035906020019064010000000081111561027257600080fd5b82018360208201111561028457600080fd5b803590602001918460208302840111640100000000831117156102a657600080fd5b919080806020026020016040519081016040528093929190818152602001838360200280828437600081840152601f19601f8201169050808301925050505050505091929192908035906020019064010000000081111561030657600080fd5b82018360208201111561031857600080fd5b8035906020019184602083028401116401000000008311171561033a57600080fd5b919080806020026020016040519081016040528093929190818152602001838360200280828437600081840152601f19601f820116905080830192505050505050509192919290505050611036565b005b6103d7600480360360408110156103a157600080fd5b81019080803573ffffffffffffffffffffffffffffffffffffffff16906020019092919080359060200190929190505050611669565b6040518088815260200187815260200186815260200185815260200184815260200183815260200182815260200197505050505050505060405180910390f35b6104436004803603602081101561042d57600080fd5b81019080803590602001909291905050506116c5565b6040518082815260200191505060405180910390f35b6105396004803603606081101561046f57600080fd5b81019080803573ffffffffffffffffffffffffffffffffffffffff16906020019092919080359060200190929190803590602001906401000000008111156104b657600080fd5b8201836020820111156104c857600080fd5b803590602001918460208302840111640100000000831117156104ea57600080fd5b919080806020026020016040519081016040528093929190818152602001838360200280828437600081840152601f19601f8201169050808301925050505050505091929192905050506116e6565b6040518082815260200191505060405180910390f35b6105bb6004803603606081101561056557600080fd5b81019080803573ffffffffffffffffffffffffffffffffffffffff16906020019092919080359060200190929190803573ffffffffffffffffffffffffffffffffffffffff169060200190929190505050611956565b6040518082815260200191505060405180910390f35b6105fd600480360360208110156105e757600080fd5b81019080803590602001909291905050506119fa565b6040518082815260200191505060405180910390f35b61065f6004803603604081101561062957600080fd5b8101908080359060200190929190803573ffffffffffffffffffffffffffffffffffffffff169060200190929190505050611a12565b005b61068d6004803603602081101561067757600080fd5b8101908080359060200190929190505050611cf0565b005b6106bb600480360360208110156106a557600080fd5b8101908080359060200190929190505050611ea9565b60405180858152602001848152602001831515151581526020018215151515815260200194505050505060405180910390f35b6107306004803603606081101561070457600080fd5b810190808035906020019092919080359060200190929190803515159060200190929190505050611f00565b005b6107746004803603602081101561074857600080fd5b81019080803573ffffffffffffffffffffffffffffffffffffffff169060200190929190505050612009565b6040518082815260200191505060405180910390f35b6107c0600480360360408110156107a057600080fd5b810190808035906020019092919080359060200190929190505050612021565b005b61090c600480360360408110156107d857600080fd5b81019080803590602001906401000000008111156107f557600080fd5b82018360208201111561080757600080fd5b8035906020019184602083028401116401000000008311171561082957600080fd5b919080806020026020016040519081016040528093929190818152602001838360200280828437600081840152601f19601f8201169050808301925050505050505091929192908035906020019064010000000081111561088957600080fd5b82018360208201111561089b57600080fd5b803590602001918460208302840111640100000000831117156108bd57600080fd5b919080806020026020016040519081016040528093929190818152602001838360200280828437600081840152601f19601f8201169050808301925050505050505091929192905050506120d8565b005b6109166122c9565b604051808273ffffffffffffffffffffffffffffffffffffffff1673ffffffffffffffffffffffffffffffffffffffff16815260200191505060405180910390f35b6109a46004803603604081101561096e57600080fd5b81019080803573ffffffffffffffffffffffffffffffffffffffff169060200190929190803590602001909291905050506122ef565b005b6109f2600480360360408110156109bc57600080fd5b81019080803573ffffffffffffffffffffffffffffffffffffffff16906020019092919080359060200190929190505050612d61565b6040518085815260200184815260200183815260200182815260200194505050505060405180910390f35b610add60048036036040811015610a3357600080fd5b810190808035906020019092919080359060200190640100000000811115610a5a57600080fd5b820183602082011115610a6c57600080fd5b80359060200191846020830284011164010000000083111715610a8e57600080fd5b919080806020026020016040519081016040528093929190818152602001838360200280828437600081840152601f19601f820116905080830192505050505050509192919290505050612dab565b005b610b3560048036036060811015610af557600080fd5b8101908080359060200190929190803573ffffffffffffffffffffffffffffffffffffffff1690602001909291908035906020019092919050505061343d565b005b610b7960048036036020811015610b4d57600080fd5b81019080803573ffffffffffffffffffffffffffffffffffffffff169060200190929190505050613714565b6040518082815260200191505060405180910390f35b610c6560048036036040811015610ba557600080fd5b81019080803573ffffffffffffffffffffffffffffffffffffffff16906020019092919080359060200190640100000000811115610be257600080fd5b820183602082011115610bf457600080fd5b80359060200191846020830284011164010000000083111715610c1657600080fd5b919080806020026020016040519081016040528093929190818152602001838360200280828437600081840152601f19601f820116905080830192505050505050509192919290505050613760565b6040518082815260200191505060405180910390f35b610ca760048036036020811015610c9157600080fd5b81019080803590602001909291905050506138f3565b005b610cd560048036036020811015610cbf57600080fd5b81019080803590602001909291905050506139b2565b604051808381526020018281526020019250505060405180910390f35b610dbc60048036036060811015610d0857600080fd5b81019080803590602001909291908035906020019092919080359060200190640100000000811115610d3957600080fd5b820183602082011115610d4b57600080fd5b80359060200191846020830284011164010000000083111715610d6d57600080fd5b919080806020026020016040519081016040528093929190818152602001838360200280828437600081840152601f19601f8201169050808301925050505050505091929192905050506139e3565b005b610e1460048036036060811015610dd457600080fd5b81019080803573ffffffffffffffffffffffffffffffffffffffff169060200190929190803590602001909291908035906020019092919050505061436c565b604051808215151515815260200191505060405180910390f35b610e5a60048036036020811015610e4457600080fd5b81019080803590602001909291905050506146d7565b005b610e64614a92565b6040518082815260200191505060405180910390f35b610ea660048036036020811015610e9057600080fd5b8101908080359060200190929190505050614aa2565b005b610ede60048036036040811015610ebe57600080fd5b81019080803590602001909291908035906020019092919050505061521f565b005b610f0c60048036036020811015610ef657600080fd5b8101908080359060200190929190505050615633565b005b610fc460048036036020811015610f2457600080fd5b8101908080359060200190640100000000811115610f4157600080fd5b820183602082011115610f5357600080fd5b80359060200191846020830284011164010000000083111715610f7557600080fd5b919080806020026020016040519081016040528093929190818152602001838360200280828437600081840152601f19601f8201169050808301925050505050505091929192905050506156bc565b005b610fce615a72565b604051808273ffffffffffffffffffffffffffffffffffffffff1673ffffffffffffffffffffffffffffffffffffffff16815260200191505060405180910390f35b600360009054906101000a900473ffffffffffffffffffffffffffffffffffffffff1681565b600080600090505b835181101561149b5760016008600086848151811061105957fe5b602002602001015173ffffffffffffffffffffffffffffffffffffffff1673ffffffffffffffffffffffffffffffffffffffff1681526020019081526020016000208483815181106110a757fe5b6020026020010151815481106110b957fe5b906000526020600020906005020160030154146110d557600080fd5b6111896004546006600860008886815181106110ed57fe5b602002602001015173ffffffffffffffffffffffffffffffffffffffff1673ffffffffffffffffffffffffffffffffffffffff16815260200190815260200160002086858151811061113b57fe5b60200260200101518154811061114d57fe5b9060005260206000209060050201600201548154811061116957fe5b906000526020600020906002020160000154615a9890919063ffffffff16565b6008600086848151811061119957fe5b602002602001015173ffffffffffffffffffffffffffffffffffffffff1673ffffffffffffffffffffffffffffffffffffffff1681526020019081526020016000208483815181106111e757fe5b6020026020010151815481106111f957fe5b90600052602060002090600502016001015401600260009054906101000a900473ffffffffffffffffffffffffffffffffffffffff1673ffffffffffffffffffffffffffffffffffffffff1663b81f90f36040518163ffffffff1660e01b815260040160206040518083038186803b15801561127457600080fd5b505afa158015611288573d6000803e3d6000fd5b505050506040513d602081101561129e57600080fd5b8101908080519060200190929190505050116112b957600080fd5b6000600860008684815181106112cb57fe5b602002602001015173ffffffffffffffffffffffffffffffffffffffff1673ffffffffffffffffffffffffffffffffffffffff16815260200190815260200160002084838151811061131957fe5b60200260200101518154811061132b57fe5b9060005260206000209060050201600401905060008090505b81805490508110156113f6576113e76007600088868151811061136357fe5b602002602001015173ffffffffffffffffffffffffffffffffffffffff1673ffffffffffffffffffffffffffffffffffffffff1681526020019081526020016000208383815481106113b157fe5b9060005260206000200154815481106113c657fe5b90600052602060002090600902016000015485615ad290919063ffffffff16565b93508080600101915050611344565b5061148b6008600087858151811061140a57fe5b602002602001015173ffffffffffffffffffffffffffffffffffffffff1673ffffffffffffffffffffffffffffffffffffffff16815260200190815260200160002085848151811061145857fe5b60200260200101518154811061146a57fe5b90600052602060002090600502016000015484615af190919063ffffffff16565b925050808060010191505061103e565b50600260009054906101000a900473ffffffffffffffffffffffffffffffffffffffff1673ffffffffffffffffffffffffffffffffffffffff1663a9059cbb600360009054906101000a900473ffffffffffffffffffffffffffffffffffffffff16836040518363ffffffff1660e01b8152600401808373ffffffffffffffffffffffffffffffffffffffff1673ffffffffffffffffffffffffffffffffffffffff16815260200182815260200192505050602060405180830381600087803b15801561156757600080fd5b505af115801561157b573d6000803e3d6000fd5b505050506040513d602081101561159157600080fd5b81019080805190602001909291905050506115ab57600080fd5b600360009054906101000a900473ffffffffffffffffffffffffffffffffffffffff1673ffffffffffffffffffffffffffffffffffffffff166341aaa9b6826040518263ffffffff1660e01b815260040180828152602001915050602060405180830381600087803b15801561162057600080fd5b505af1158015611634573d6000803e3d6000fd5b505050506040513d602081101561164a57600080fd5b810190808051906020019092919050505061166457600080fd5b505050565b6007602052816000526040600020818154811061168257fe5b9060005260206000209060090201600091509150508060000154908060010154908060020154908060030154908060040154908060050154908060060154905087565b600b81815481106116d257fe5b906000526020600020016000915090505481565b60008060008090505b83518110156118ac57611716868686848151811061170957fe5b602002602001015161436c565b80156117ac5750600760008773ffffffffffffffffffffffffffffffffffffffff1673ffffffffffffffffffffffffffffffffffffffff168152602001908152602001600020858154811061176757fe5b9060005260206000209060090201600701600085838151811061178657fe5b6020026020010151815260200190815260200160002060009054906101000a900460ff16155b6117b557600080fd5b6000611887600a60008785815181106117ca57fe5b6020026020010151815260200190815260200160002054611879600b8886815181106117f257fe5b60200260200101518154811061180457fe5b9060005260206000200154600760008c73ffffffffffffffffffffffffffffffffffffffff1673ffffffffffffffffffffffffffffffffffffffff1681526020019081526020016000208a8154811061185957fe5b906000526020600020906009020160000154615a9890919063ffffffff16565b615b1190919063ffffffff16565b905061189c8184615ad290919063ffffffff16565b92505080806001019150506116ef565b5061194c600f61193e6005600760008a73ffffffffffffffffffffffffffffffffffffffff1673ffffffffffffffffffffffffffffffffffffffff168152602001908152602001600020888154811061190157fe5b9060005260206000209060090201600301548154811061191d57fe5b90600052602060002090600302016001015484615a9890919063ffffffff16565b615b1190919063ffffffff16565b9150509392505050565b6000600760008573ffffffffffffffffffffffffffffffffffffffff1673ffffffffffffffffffffffffffffffffffffffff16815260200190815260200160002083815481106119a257fe5b906000526020600020906009020160080160008373ffffffffffffffffffffffffffffffffffffffff1673ffffffffffffffffffffffffffffffffffffffff1681526020019081526020016000205490509392505050565b600a6020528060005260406000206000915090505481565b6001600760003373ffffffffffffffffffffffffffffffffffffffff1673ffffffffffffffffffffffffffffffffffffffff1681526020019081526020016000208381548110611a5e57fe5b90600052602060002090600902016004015414611ae3576040517f08c379a00000000000000000000000000000000000000000000000000000000081526004018080602001828103825260158152602001807f7374616b696e672073686f756c6420616374697665000000000000000000000081525060200191505060405180910390fd5b6000600760003373ffffffffffffffffffffffffffffffffffffffff1673ffffffffffffffffffffffffffffffffffffffff1681526020019081526020016000208381548110611b2f57fe5b906000526020600020906009020160080160003373ffffffffffffffffffffffffffffffffffffffff1673ffffffffffffffffffffffffffffffffffffffff1681526020019081526020016000205490506000600760003373ffffffffffffffffffffffffffffffffffffffff1673ffffffffffffffffffffffffffffffffffffffff1681526020019081526020016000208481548110611bcc57fe5b906000526020600020906009020160080160008473ffffffffffffffffffffffffffffffffffffffff1673ffffffffffffffffffffffffffffffffffffffff16815260200190815260200160002081905550611c8c81600760003373ffffffffffffffffffffffffffffffffffffffff1673ffffffffffffffffffffffffffffffffffffffff1681526020019081526020016000208581548110611c6c57fe5b906000526020600020906009020160060154615af190919063ffffffff16565b600760003373ffffffffffffffffffffffffffffffffffffffff1673ffffffffffffffffffffffffffffffffffffffff1681526020019081526020016000208481548110611cd657fe5b906000526020600020906009020160060181905550505050565b600260009054906101000a900473ffffffffffffffffffffffffffffffffffffffff1673ffffffffffffffffffffffffffffffffffffffff166323b872dd3330846040518463ffffffff1660e01b8152600401808473ffffffffffffffffffffffffffffffffffffffff1673ffffffffffffffffffffffffffffffffffffffff1681526020018373ffffffffffffffffffffffffffffffffffffffff1673ffffffffffffffffffffffffffffffffffffffff1681526020018281526020019350505050602060405180830381600087803b158015611dcd57600080fd5b505af1158015611de1573d6000803e3d6000fd5b505050506040513d6020811015611df757600080fd5b8101908080519060200190929190505050611e1157600080fd5b611e6381600960003373ffffffffffffffffffffffffffffffffffffffff1673ffffffffffffffffffffffffffffffffffffffff16815260200190815260200160002054615ad290919063ffffffff16565b600960003373ffffffffffffffffffffffffffffffffffffffff1673ffffffffffffffffffffffffffffffffffffffff1681526020019081526020016000208190555050565b60058181548110611eb657fe5b90600052602060002090600302016000915090508060000154908060010154908060020160009054906101000a900460ff16908060020160019054906101000a900460ff16905084565b600160009054906101000a900473ffffffffffffffffffffffffffffffffffffffff1673ffffffffffffffffffffffffffffffffffffffff163373ffffffffffffffffffffffffffffffffffffffff1614611f5a57600080fd5b6005604051806080016040528085815260200184815260200160011515815260200183151581525090806001815401808255809150509060018203906000526020600020906003020160009091929091909150600082015181600001556020820151816001015560408201518160020160006101000a81548160ff02191690831515021790555060608201518160020160016101000a81548160ff021916908315150217905550505050505050565b60096020528060005260406000206000915090505481565b600160009054906101000a900473ffffffffffffffffffffffffffffffffffffffff1673ffffffffffffffffffffffffffffffffffffffff163373ffffffffffffffffffffffffffffffffffffffff161461207b57600080fd5b60066040518060400160405280848152602001838152509080600181540180825580915050906001820390600052602060002090600202016000909192909190915060008201518160000155602082015181600101555050505050565b600160009054906101000a900473ffffffffffffffffffffffffffffffffffffffff1673ffffffffffffffffffffffffffffffffffffffff163373ffffffffffffffffffffffffffffffffffffffff161461213257600080fd5b60008090505b82518110156122c4576121a682828151811061215057fe5b6020026020010151600960003373ffffffffffffffffffffffffffffffffffffffff1673ffffffffffffffffffffffffffffffffffffffff16815260200190815260200160002054615af190919063ffffffff16565b600960003373ffffffffffffffffffffffffffffffffffffffff1673ffffffffffffffffffffffffffffffffffffffff168152602001908152602001600020819055506122618282815181106121f857fe5b60200260200101516009600086858151811061221057fe5b602002602001015173ffffffffffffffffffffffffffffffffffffffff1673ffffffffffffffffffffffffffffffffffffffff16815260200190815260200160002054615ad290919063ffffffff16565b6009600085848151811061227157fe5b602002602001015173ffffffffffffffffffffffffffffffffffffffff1673ffffffffffffffffffffffffffffffffffffffff168152602001908152602001600020819055508080600101915050612138565b505050565b600160009054906101000a900473ffffffffffffffffffffffffffffffffffffffff1681565b6000600260009054906101000a900473ffffffffffffffffffffffffffffffffffffffff1673ffffffffffffffffffffffffffffffffffffffff1663b81f90f36040518163ffffffff1660e01b815260040160206040518083038186803b15801561235957600080fd5b505afa15801561236d573d6000803e3d6000fd5b505050506040513d602081101561238357600080fd5b81019080805190602001909291905050509050600454600c026004546005600760008773ffffffffffffffffffffffffffffffffffffffff1673ffffffffffffffffffffffffffffffffffffffff16815260200190815260200160002085815481106123eb57fe5b9060005260206000209060090201600301548154811061240757fe5b90600052602060002090600302016000015402600760008673ffffffffffffffffffffffffffffffffffffffff1673ffffffffffffffffffffffffffffffffffffffff168152602001908152602001600020848154811061246457fe5b9060005260206000209060090201600101540101811161248357600080fd5b6000600760008573ffffffffffffffffffffffffffffffffffffffff1673ffffffffffffffffffffffffffffffffffffffff16815260200190815260200160002083815481106124cf57fe5b906000526020600020906009020160080160003373ffffffffffffffffffffffffffffffffffffffff1673ffffffffffffffffffffffffffffffffffffffff1681526020019081526020016000205490506000811161252d57600080fd5b6005600760008673ffffffffffffffffffffffffffffffffffffffff1673ffffffffffffffffffffffffffffffffffffffff168152602001908152602001600020848154811061257957fe5b906000526020600020906009020160040154146125f2576005600760008673ffffffffffffffffffffffffffffffffffffffff1673ffffffffffffffffffffffffffffffffffffffff16815260200190815260200160002084815481106125dc57fe5b9060005260206000209060090201600401819055505b6000600760008673ffffffffffffffffffffffffffffffffffffffff1673ffffffffffffffffffffffffffffffffffffffff168152602001908152602001600020848154811061263e57fe5b90600052602060002090600902016000015490506000806005600760008973ffffffffffffffffffffffffffffffffffffffff1673ffffffffffffffffffffffffffffffffffffffff16815260200190815260200160002087815481106126a157fe5b906000526020600020906009020160030154815481106126bd57fe5b906000526020600020906003020160000154600760008973ffffffffffffffffffffffffffffffffffffffff1673ffffffffffffffffffffffffffffffffffffffff168152602001908152602001600020878154811061271957fe5b9060005260206000209060090201600201540190506000600760008973ffffffffffffffffffffffffffffffffffffffff1673ffffffffffffffffffffffffffffffffffffffff168152602001908152602001600020878154811061277a57fe5b90600052602060002090600902016002015490505b818110156129c757600760008973ffffffffffffffffffffffffffffffffffffffff1673ffffffffffffffffffffffffffffffffffffffff16815260200190815260200160002087815481106127e157fe5b9060005260206000209060090201600701600082815260200190815260200160002060009054906101000a900460ff16156129ba576000612912600f6129046005600760008e73ffffffffffffffffffffffffffffffffffffffff1673ffffffffffffffffffffffffffffffffffffffff1681526020019081526020016000208c8154811061286c57fe5b9060005260206000209060090201600301548154811061288857fe5b906000526020600020906003020160010154600760008e73ffffffffffffffffffffffffffffffffffffffff1673ffffffffffffffffffffffffffffffffffffffff1681526020019081526020016000208c815481106128e457fe5b906000526020600020906009020160000154615a9890919063ffffffff16565b615b1190919063ffffffff16565b90506000612965600a600085815260200190815260200160002054612957600b868154811061293d57fe5b906000526020600020015485615a9890919063ffffffff16565b615b1190919063ffffffff16565b905061298d61297e600283615b1190919063ffffffff16565b87615ad290919063ffffffff16565b95506129b56129a6600283615b1190919063ffffffff16565b86615ad290919063ffffffff16565b945050505b808060010191505061278f565b506000600760008973ffffffffffffffffffffffffffffffffffffffff1673ffffffffffffffffffffffffffffffffffffffff1681526020019081526020016000208781548110612a1457fe5b906000526020600020906009020160080160003373ffffffffffffffffffffffffffffffffffffffff1673ffffffffffffffffffffffffffffffffffffffff168152602001908152602001600020819055506000612ae8600760008a73ffffffffffffffffffffffffffffffffffffffff1673ffffffffffffffffffffffffffffffffffffffff1681526020019081526020016000208881548110612ab557fe5b906000526020600020906009020160060154612ada8787615a9890919063ffffffff16565b615b1190919063ffffffff16565b9050600260009054906101000a900473ffffffffffffffffffffffffffffffffffffffff1673ffffffffffffffffffffffffffffffffffffffff1663a9059cbb33836040518363ffffffff1660e01b8152600401808373ffffffffffffffffffffffffffffffffffffffff1673ffffffffffffffffffffffffffffffffffffffff16815260200182815260200192505050602060405180830381600087803b158015612b9357600080fd5b505af1158015612ba7573d6000803e3d6000fd5b505050506040513d6020811015612bbd57600080fd5b8101908080519060200190929190505050506000612c51600760008b73ffffffffffffffffffffffffffffffffffffffff1673ffffffffffffffffffffffffffffffffffffffff1681526020019081526020016000208981548110612c1e57fe5b906000526020600020906009020160060154612c438887615a9890919063ffffffff16565b615b1190919063ffffffff16565b9050612ca581600960003373ffffffffffffffffffffffffffffffffffffffff1673ffffffffffffffffffffffffffffffffffffffff16815260200190815260200160002054615ad290919063ffffffff16565b600960003373ffffffffffffffffffffffffffffffffffffffff1673ffffffffffffffffffffffffffffffffffffffff168152602001908152602001600020819055503373ffffffffffffffffffffffffffffffffffffffff16888a73ffffffffffffffffffffffffffffffffffffffff167fa54cec59552c7f022eed79ede59f759697aa5787f43b11d61f17bfc5adaffb658585604051808381526020018281526020019250505060405180910390a4505050505050505050565b60086020528160005260406000208181548110612d7a57fe5b9060005260206000209060050201600091509150508060000154908060010154908060020154908060030154905084565b600080600090505b825181101561300857612dda3385858481518110612dcd57fe5b602002602001015161436c565b8015612e705750600760003373ffffffffffffffffffffffffffffffffffffffff1673ffffffffffffffffffffffffffffffffffffffff1681526020019081526020016000208481548110612e2b57fe5b90600052602060002090600902016007016000848381518110612e4a57fe5b6020026020010151815260200190815260200160002060009054906101000a900460ff16155b612e7957600080fd5b6000612f4b600a6000868581518110612e8e57fe5b6020026020010151815260200190815260200160002054612f3d600b878681518110612eb657fe5b602002602001015181548110612ec857fe5b9060005260206000200154600760003373ffffffffffffffffffffffffffffffffffffffff1673ffffffffffffffffffffffffffffffffffffffff1681526020019081526020016000208981548110612f1d57fe5b906000526020600020906009020160000154615a9890919063ffffffff16565b615b1190919063ffffffff16565b9050612f608184615ad290919063ffffffff16565b92506001600760003373ffffffffffffffffffffffffffffffffffffffff1673ffffffffffffffffffffffffffffffffffffffff1681526020019081526020016000208681548110612fae57fe5b90600052602060002090600902016007016000868581518110612fcd57fe5b6020026020010151815260200190815260200160002060006101000a81548160ff021916908315150217905550508080600101915050612db3565b5060006130bd600f6130af6130a06005600760003373ffffffffffffffffffffffffffffffffffffffff1673ffffffffffffffffffffffffffffffffffffffff168152602001908152602001600020898154811061306257fe5b9060005260206000209060090201600301548154811061307e57fe5b906000526020600020906003020160010154600f615af190919063ffffffff16565b85615a9890919063ffffffff16565b615b1190919063ffffffff16565b9050600260009054906101000a900473ffffffffffffffffffffffffffffffffffffffff1673ffffffffffffffffffffffffffffffffffffffff1663a9059cbb600360009054906101000a900473ffffffffffffffffffffffffffffffffffffffff16836040518363ffffffff1660e01b8152600401808373ffffffffffffffffffffffffffffffffffffffff1673ffffffffffffffffffffffffffffffffffffffff16815260200182815260200192505050602060405180830381600087803b15801561318a57600080fd5b505af115801561319e573d6000803e3d6000fd5b505050506040513d60208110156131b457600080fd5b81019080805190602001909291905050506131ce57600080fd5b600360009054906101000a900473ffffffffffffffffffffffffffffffffffffffff1673ffffffffffffffffffffffffffffffffffffffff1663382e2aab826040518263ffffffff1660e01b815260040180828152602001915050602060405180830381600087803b15801561324357600080fd5b505af1158015613257573d6000803e3d6000fd5b505050506040513d602081101561326d57600080fd5b810190808051906020019092919050505061328757600080fd5b61329a8183615af190919063ffffffff16565b915060006132b2600284615b1190919063ffffffff16565b9050600260009054906101000a900473ffffffffffffffffffffffffffffffffffffffff1673ffffffffffffffffffffffffffffffffffffffff1663a9059cbb33836040518363ffffffff1660e01b8152600401808373ffffffffffffffffffffffffffffffffffffffff1673ffffffffffffffffffffffffffffffffffffffff16815260200182815260200192505050602060405180830381600087803b15801561335d57600080fd5b505af1158015613371573d6000803e3d6000fd5b505050506040513d602081101561338757600080fd5b81019080805190602001909291905050506133a157600080fd5b6133f381600960003373ffffffffffffffffffffffffffffffffffffffff1673ffffffffffffffffffffffffffffffffffffffff16815260200190815260200160002054615ad290919063ffffffff16565b600960003373ffffffffffffffffffffffffffffffffffffffff1673ffffffffffffffffffffffffffffffffffffffff168152602001908152602001600020819055505050505050565b6001600760003373ffffffffffffffffffffffffffffffffffffffff1673ffffffffffffffffffffffffffffffffffffffff168152602001908152602001600020848154811061348957fe5b906000526020600020906009020160040154146134a557600080fd5b6000600760003373ffffffffffffffffffffffffffffffffffffffff1673ffffffffffffffffffffffffffffffffffffffff16815260200190815260200160002084815481106134f157fe5b906000526020600020906009020160080160008473ffffffffffffffffffffffffffffffffffffffff1673ffffffffffffffffffffffffffffffffffffffff168152602001908152602001600020541461354a57600080fd5b6135b881600760003373ffffffffffffffffffffffffffffffffffffffff1673ffffffffffffffffffffffffffffffffffffffff168152602001908152602001600020858154811061359857fe5b906000526020600020906009020160060154615ad290919063ffffffff16565b600760003373ffffffffffffffffffffffffffffffffffffffff1673ffffffffffffffffffffffffffffffffffffffff168152602001908152602001600020848154811061360257fe5b90600052602060002090600902016006018190555080600760003373ffffffffffffffffffffffffffffffffffffffff1673ffffffffffffffffffffffffffffffffffffffff168152602001908152602001600020848154811061366257fe5b906000526020600020906009020160080160008473ffffffffffffffffffffffffffffffffffffffff1673ffffffffffffffffffffffffffffffffffffffff168152602001908152602001600020819055508173ffffffffffffffffffffffffffffffffffffffff16833373ffffffffffffffffffffffffffffffffffffffff167fc4e7fb51a42ce926bb404f8024c3c91a40af0654d9a96ada67c329b9c9bee4a260405160405180910390a4505050565b6000600760008373ffffffffffffffffffffffffffffffffffffffff1673ffffffffffffffffffffffffffffffffffffffff168152602001908152602001600020805490509050919050565b60008061376b614a92565b9050600080600090505b84518110156138d45761379c8686838151811061378e57fe5b60200260200101518561436c565b801561383e57506005600760008873ffffffffffffffffffffffffffffffffffffffff1673ffffffffffffffffffffffffffffffffffffffff1681526020019081526020016000208683815181106137f057fe5b60200260200101518154811061380257fe5b9060005260206000209060090201600301548154811061381e57fe5b906000526020600020906003020160020160019054906101000a900460ff165b156138c7576138c4600760008873ffffffffffffffffffffffffffffffffffffffff1673ffffffffffffffffffffffffffffffffffffffff16815260200190815260200160002086838151811061389157fe5b6020026020010151815481106138a357fe5b90600052602060002090600902016000015483615ad290919063ffffffff16565b91505b8080600101915050613775565b506138e9600282615b1190919063ffffffff16565b9250505092915050565b600160009054906101000a900473ffffffffffffffffffffffffffffffffffffffff1673ffffffffffffffffffffffffffffffffffffffff163373ffffffffffffffffffffffffffffffffffffffff161461394d57600080fd5b6005818154811061395a57fe5b906000526020600020906003020160020160009054906101000a900460ff16156005828154811061398757fe5b906000526020600020906003020160020160006101000a81548160ff02191690831515021790555050565b600681815481106139bf57fe5b90600052602060002090600202016000915090508060000154908060010154905082565b60006139ed614a92565b9050600080600090505b8351811015613e0157613a1e33858381518110613a1057fe5b60200260200101518561436c565b8015613ac057506005600760003373ffffffffffffffffffffffffffffffffffffffff1673ffffffffffffffffffffffffffffffffffffffff168152602001908152602001600020858381518110613a7257fe5b602002602001015181548110613a8457fe5b90600052602060002090600902016003015481548110613aa057fe5b906000526020600020906003020160020160019054906101000a900460ff165b15613df457613b46600760003373ffffffffffffffffffffffffffffffffffffffff1673ffffffffffffffffffffffffffffffffffffffff168152602001908152602001600020858381518110613b1357fe5b602002602001015181548110613b2557fe5b90600052602060002090600902016000015483615ad290919063ffffffff16565b91506000600760003373ffffffffffffffffffffffffffffffffffffffff1673ffffffffffffffffffffffffffffffffffffffff168152602001908152602001600020858381518110613b9557fe5b602002602001015181548110613ba757fe5b906000526020600020906009020160020154905060006005600760003373ffffffffffffffffffffffffffffffffffffffff1673ffffffffffffffffffffffffffffffffffffffff168152602001908152602001600020878581518110613c0a57fe5b602002602001015181548110613c1c57fe5b90600052602060002090600902016003015481548110613c3857fe5b9060005260206000209060030201600001548201905060006001860190505b818111613ca857613c8485600a600084815260200190815260200160002054615af190919063ffffffff16565b600a6000838152602001908152602001600020819055508080600101915050613c57565b506000600190505b60068981548110613cbd57fe5b9060005260206000209060020201600001548111613df0576001600760003373ffffffffffffffffffffffffffffffffffffffff1673ffffffffffffffffffffffffffffffffffffffff168152602001908152602001600020888681518110613d2257fe5b602002602001015181548110613d3457fe5b90600052602060002090600902016007016000838901815260200190815260200160002060006101000a81548160ff0219169083151502179055506002600760003373ffffffffffffffffffffffffffffffffffffffff1673ffffffffffffffffffffffffffffffffffffffff168152602001908152602001600020888681518110613dbc57fe5b602002602001015181548110613dce57fe5b9060005260206000209060090201600401819055508080600101915050613cb0565b5050505b80806001019150506139f7565b506000613e18600283615b1190919063ffffffff16565b905080851115613e2e576000613e2d57600080fd5b5b6000613e746064613e6660068a81548110613e4557fe5b90600052602060002090600202016001015489615a9890919063ffffffff16565b615b1190919063ffffffff16565b90506000613e8b8288615af190919063ffffffff16565b9050600260009054906101000a900473ffffffffffffffffffffffffffffffffffffffff1673ffffffffffffffffffffffffffffffffffffffff1663a9059cbb600360009054906101000a900473ffffffffffffffffffffffffffffffffffffffff16846040518363ffffffff1660e01b8152600401808373ffffffffffffffffffffffffffffffffffffffff1673ffffffffffffffffffffffffffffffffffffffff16815260200182815260200192505050602060405180830381600087803b158015613f5857600080fd5b505af1158015613f6c573d6000803e3d6000fd5b505050506040513d6020811015613f8257600080fd5b8101908080519060200190929190505050613f9c57600080fd5b600360009054906101000a900473ffffffffffffffffffffffffffffffffffffffff1673ffffffffffffffffffffffffffffffffffffffff1663382e2aab836040518263ffffffff1660e01b815260040180828152602001915050602060405180830381600087803b15801561401157600080fd5b505af1158015614025573d6000803e3d6000fd5b505050506040513d602081101561403b57600080fd5b810190808051906020019092919050505061405557600080fd5b600860003373ffffffffffffffffffffffffffffffffffffffff1673ffffffffffffffffffffffffffffffffffffffff1681526020019081526020016000206040518060a00160405280898152602001600260009054906101000a900473ffffffffffffffffffffffffffffffffffffffff1673ffffffffffffffffffffffffffffffffffffffff1663b81f90f36040518163ffffffff1660e01b815260040160206040518083038186803b15801561410d57600080fd5b505afa158015614121573d6000803e3d6000fd5b505050506040513d602081101561413757600080fd5b810190808051906020019092919050505081526020018a81526020016001815260200188815250908060018154018082558091505090600182039060005260206000209060050201600090919290919091506000820151816000015560208201518160010155604082015181600201556060820151816003015560808201518160040190805190602001906141cd929190615b37565b50505050600260009054906101000a900473ffffffffffffffffffffffffffffffffffffffff1673ffffffffffffffffffffffffffffffffffffffff1663a9059cbb33836040518363ffffffff1660e01b8152600401808373ffffffffffffffffffffffffffffffffffffffff1673ffffffffffffffffffffffffffffffffffffffff16815260200182815260200192505050602060405180830381600087803b15801561427a57600080fd5b505af115801561428e573d6000803e3d6000fd5b505050506040513d60208110156142a457600080fd5b81019080805190602001909291905050506142be57600080fd5b873373ffffffffffffffffffffffffffffffffffffffff167f583f4a449110798c282200ea42774808b8147fa4bcb89a6ca406dd0650e034e789856001600860003373ffffffffffffffffffffffffffffffffffffffff1673ffffffffffffffffffffffffffffffffffffffff168152602001908152602001600020805490500360405180848152602001838152602001828152602001935050505060405180910390a35050505050505050565b6000816001600760008773ffffffffffffffffffffffffffffffffffffffff1673ffffffffffffffffffffffffffffffffffffffff16815260200190815260200160002085815481106143bb57fe5b90600052602060002090600902016002015401111580156144b25750816005600760008773ffffffffffffffffffffffffffffffffffffffff1673ffffffffffffffffffffffffffffffffffffffff168152602001908152602001600020858154811061442457fe5b9060005260206000209060090201600301548154811061444057fe5b906000526020600020906003020160000154600760008773ffffffffffffffffffffffffffffffffffffffff1673ffffffffffffffffffffffffffffffffffffffff168152602001908152602001600020858154811061449c57fe5b9060005260206000209060090201600201540110155b801561451957506001600760008673ffffffffffffffffffffffffffffffffffffffff1673ffffffffffffffffffffffffffffffffffffffff168152602001908152602001600020848154811061450557fe5b906000526020600020906009020160040154145b80156146ce575081614529614a92565b1415806146cd57506146276145bd6004546145af600760008973ffffffffffffffffffffffffffffffffffffffff1673ffffffffffffffffffffffffffffffffffffffff168152602001908152602001600020878154811061458757fe5b9060005260206000209060090201600201546145a1614a92565b615af190919063ffffffff16565b615a9890919063ffffffff16565b600760008773ffffffffffffffffffffffffffffffffffffffff1673ffffffffffffffffffffffffffffffffffffffff168152602001908152602001600020858154811061460757fe5b906000526020600020906009020160010154615ad290919063ffffffff16565b600260009054906101000a900473ffffffffffffffffffffffffffffffffffffffff1673ffffffffffffffffffffffffffffffffffffffff1663b81f90f36040518163ffffffff1660e01b815260040160206040518083038186803b15801561468f57600080fd5b505afa1580156146a3573d6000803e3d6000fd5b505050506040513d60208110156146b957600080fd5b810190808051906020019092919050505010155b5b90509392505050565b600581815481106146e457fe5b906000526020600020906003020160020160009054906101000a900460ff1661470c57600080fd5b6000600960003373ffffffffffffffffffffffffffffffffffffffff1673ffffffffffffffffffffffffffffffffffffffff168152602001908152602001600020541161475857600080fd5b6000600960003373ffffffffffffffffffffffffffffffffffffffff1673ffffffffffffffffffffffffffffffffffffffff1681526020019081526020016000205490506000600960003373ffffffffffffffffffffffffffffffffffffffff1673ffffffffffffffffffffffffffffffffffffffff168152602001908152602001600020819055506000600583815481106147f057fe5b90600052602060002090600302016000015461480a614a92565b01905060006001614819614a92565b0190505b81811161485e5782600a60008381526020019081526020016000205401600a600083815260200190815260200160002081905550808060010191505061481d565b50600760003373ffffffffffffffffffffffffffffffffffffffff1673ffffffffffffffffffffffffffffffffffffffff1681526020019081526020016000206040518060e00160405280848152602001600260009054906101000a900473ffffffffffffffffffffffffffffffffffffffff1673ffffffffffffffffffffffffffffffffffffffff1663b81f90f36040518163ffffffff1660e01b815260040160206040518083038186803b15801561491757600080fd5b505afa15801561492b573d6000803e3d6000fd5b505050506040513d602081101561494157600080fd5b8101908080519060200190929190505050815260200161495f614a92565b81526020018581526020016001815260200160008152602001600081525090806001815401808255809150509060018203906000526020600020906009020160009091929091909150600082015181600001556020820151816001015560408201518160020155606082015181600301556080820151816004015560a0820151816005015560c08201518160060155505050823373ffffffffffffffffffffffffffffffffffffffff167f680a0e2e97ad7c29da7985e37b699f19857c055166f801e50d90661eae30fcc3846001600760003373ffffffffffffffffffffffffffffffffffffffff1673ffffffffffffffffffffffffffffffffffffffff1681526020019081526020016000208054905003604051808381526020018281526020019250505060405180910390a3505050565b60006001600b8054905003905090565b6001600860003373ffffffffffffffffffffffffffffffffffffffff1673ffffffffffffffffffffffffffffffffffffffff1681526020019081526020016000208281548110614aee57fe5b90600052602060002090600502016003015414614b0a57600080fd5b600260009054906101000a900473ffffffffffffffffffffffffffffffffffffffff1673ffffffffffffffffffffffffffffffffffffffff1663b81f90f36040518163ffffffff1660e01b815260040160206040518083038186803b158015614b7257600080fd5b505afa158015614b86573d6000803e3d6000fd5b505050506040513d6020811015614b9c57600080fd5b8101908080519060200190929190505050614c3b6004546006600860003373ffffffffffffffffffffffffffffffffffffffff1673ffffffffffffffffffffffffffffffffffffffff1681526020019081526020016000208581548110614bff57fe5b90600052602060002090600502016002015481548110614c1b57fe5b906000526020600020906002020160000154615a9890919063ffffffff16565b600860003373ffffffffffffffffffffffffffffffffffffffff1673ffffffffffffffffffffffffffffffffffffffff1681526020019081526020016000208381548110614c8557fe5b9060005260206000209060050201600101540111614ca257600080fd5b600260009054906101000a900473ffffffffffffffffffffffffffffffffffffffff1673ffffffffffffffffffffffffffffffffffffffff166323b872dd3330600860003373ffffffffffffffffffffffffffffffffffffffff1673ffffffffffffffffffffffffffffffffffffffff1681526020019081526020016000208581548110614d2c57fe5b9060005260206000209060050201600001546040518463ffffffff1660e01b8152600401808473ffffffffffffffffffffffffffffffffffffffff1673ffffffffffffffffffffffffffffffffffffffff1681526020018373ffffffffffffffffffffffffffffffffffffffff1673ffffffffffffffffffffffffffffffffffffffff1681526020018281526020019350505050602060405180830381600087803b158015614dda57600080fd5b505af1158015614dee573d6000803e3d6000fd5b505050506040513d6020811015614e0457600080fd5b8101908080519060200190929190505050614e1e57600080fd5b6002600860003373ffffffffffffffffffffffffffffffffffffffff1673ffffffffffffffffffffffffffffffffffffffff1681526020019081526020016000208281548110614e6a57fe5b90600052602060002090600502016003018190555060008090505b600860003373ffffffffffffffffffffffffffffffffffffffff1673ffffffffffffffffffffffffffffffffffffffff1681526020019081526020016000208281548110614ecf57fe5b90600052602060002090600502016004018054905081101561521b576000600860003373ffffffffffffffffffffffffffffffffffffffff1673ffffffffffffffffffffffffffffffffffffffff1681526020019081526020016000208381548110614f3757fe5b90600052602060002090600502016004018281548110614f5357fe5b906000526020600020015490506001600760003373ffffffffffffffffffffffffffffffffffffffff1673ffffffffffffffffffffffffffffffffffffffff1681526020019081526020016000208281548110614fac57fe5b9060005260206000209060090201600401819055506000615047600454615039600054600760003373ffffffffffffffffffffffffffffffffffffffff1673ffffffffffffffffffffffffffffffffffffffff168152602001908152602001600020868154811061501957fe5b906000526020600020906009020160010154615af190919063ffffffff16565b615b1190919063ffffffff16565b905060006005600760003373ffffffffffffffffffffffffffffffffffffffff1673ffffffffffffffffffffffffffffffffffffffff168152602001908152602001600020848154811061509757fe5b906000526020600020906009020160030154815481106150b357fe5b90600052602060002090600302016000015482019050600060016150d5614a92565b0190505b81811161520a576000600760003373ffffffffffffffffffffffffffffffffffffffff1673ffffffffffffffffffffffffffffffffffffffff168152602001908152602001600020858154811061512c57fe5b9060005260206000209060090201600701600087815260200190815260200160002060006101000a81548160ff0219169083151502179055506151e6600760003373ffffffffffffffffffffffffffffffffffffffff1673ffffffffffffffffffffffffffffffffffffffff16815260200190815260200160002085815481106151b257fe5b906000526020600020906009020160000154600a600084815260200190815260200160002054615ad290919063ffffffff16565b600a60008381526020019081526020016000208190555080806001019150506150d9565b505050508080600101915050614e85565b5050565b6000821161522c57600080fd5b6005818154811061523957fe5b906000526020600020906003020160020160009054906101000a900460ff1661526157600080fd5b600260009054906101000a900473ffffffffffffffffffffffffffffffffffffffff1673ffffffffffffffffffffffffffffffffffffffff166323b872dd3330856040518463ffffffff1660e01b8152600401808473ffffffffffffffffffffffffffffffffffffffff1673ffffffffffffffffffffffffffffffffffffffff1681526020018373ffffffffffffffffffffffffffffffffffffffff1673ffffffffffffffffffffffffffffffffffffffff1681526020018281526020019350505050602060405180830381600087803b15801561533e57600080fd5b505af1158015615352573d6000803e3d6000fd5b505050506040513d602081101561536857600080fd5b810190808051906020019092919050505061538257600080fd5b60006005828154811061539157fe5b9060005260206000209060030201600001546153ab614a92565b019050600060016153ba614a92565b0190505b8181116153ff5783600a60008381526020019081526020016000205401600a60008381526020019081526020016000208190555080806001019150506153be565b50600760003373ffffffffffffffffffffffffffffffffffffffff1673ffffffffffffffffffffffffffffffffffffffff1681526020019081526020016000206040518060e00160405280858152602001600260009054906101000a900473ffffffffffffffffffffffffffffffffffffffff1673ffffffffffffffffffffffffffffffffffffffff1663b81f90f36040518163ffffffff1660e01b815260040160206040518083038186803b1580156154b857600080fd5b505afa1580156154cc573d6000803e3d6000fd5b505050506040513d60208110156154e257600080fd5b81019080805190602001909291905050508152602001615500614a92565b81526020018481526020016001815260200160008152602001600081525090806001815401808255809150509060018203906000526020600020906009020160009091929091909150600082015181600001556020820151816001015560408201518160020155606082015181600301556080820151816004015560a0820151816005015560c08201518160060155505050813373ffffffffffffffffffffffffffffffffffffffff167f680a0e2e97ad7c29da7985e37b699f19857c055166f801e50d90661eae30fcc3856001600760003373ffffffffffffffffffffffffffffffffffffffff1673ffffffffffffffffffffffffffffffffffffffff1681526020019081526020016000208054905003604051808381526020018281526020019250505060405180910390a3505050565b600360009054906101000a900473ffffffffffffffffffffffffffffffffffffffff1673ffffffffffffffffffffffffffffffffffffffff163373ffffffffffffffffffffffffffffffffffffffff161461568d57600080fd5b600b81908060018154018082558091505090600182039060005260206000200160009091929091909150555050565b60008090505b8151811015615a6e576157ec61576f6004546005600760003373ffffffffffffffffffffffffffffffffffffffff1673ffffffffffffffffffffffffffffffffffffffff16815260200190815260200160002086868151811061572157fe5b60200260200101518154811061573357fe5b9060005260206000209060090201600301548154811061574f57fe5b906000526020600020906003020160000154615a9890919063ffffffff16565b600760003373ffffffffffffffffffffffffffffffffffffffff1673ffffffffffffffffffffffffffffffffffffffff1681526020019081526020016000208484815181106157ba57fe5b6020026020010151815481106157cc57fe5b906000526020600020906009020160010154615ad290919063ffffffff16565b600260009054906101000a900473ffffffffffffffffffffffffffffffffffffffff1673ffffffffffffffffffffffffffffffffffffffff1663b81f90f36040518163ffffffff1660e01b815260040160206040518083038186803b15801561585457600080fd5b505afa158015615868573d6000803e3d6000fd5b505050506040513d602081101561587e57600080fd5b8101908080519060200190929190505050101561589a57600080fd5b6003600760003373ffffffffffffffffffffffffffffffffffffffff1673ffffffffffffffffffffffffffffffffffffffff1681526020019081526020016000208383815181106158e757fe5b6020026020010151815481106158f957fe5b906000526020600020906009020160040181905550600260009054906101000a900473ffffffffffffffffffffffffffffffffffffffff1673ffffffffffffffffffffffffffffffffffffffff1663a9059cbb33600760003373ffffffffffffffffffffffffffffffffffffffff1673ffffffffffffffffffffffffffffffffffffffff16815260200190815260200160002085858151811061599857fe5b6020026020010151815481106159aa57fe5b9060005260206000209060090201600001546040518363ffffffff1660e01b8152600401808373ffffffffffffffffffffffffffffffffffffffff1673ffffffffffffffffffffffffffffffffffffffff16815260200182815260200192505050602060405180830381600087803b158015615a2557600080fd5b505af1158015615a39573d6000803e3d6000fd5b505050506040513d6020811015615a4f57600080fd5b81019080805190602001909291905050505080806001019150506156c2565b5050565b600260009054906101000a900473ffffffffffffffffffffffffffffffffffffffff1681565b600080831415615aab5760009050615acc565b6000828402905082848281615abc57fe5b0414615ac757600080fd5b809150505b92915050565b600080828401905083811015615ae757600080fd5b8091505092915050565b600082821115615b0057600080fd5b600082840390508091505092915050565b6000808211615b1f57600080fd5b6000828481615b2a57fe5b0490508091505092915050565b828054828255906000526020600020908101928215615b73579160200282015b82811115615b72578251825591602001919060010190615b57565b5b509050615b809190615b84565b5090565b615ba691905b80821115615ba2576000816000905550600101615b8a565b5090565b9056fea265627a7a72305820c70f4424ef8fe306af9cb8ceed598286e8d9cac9df677dd7e5c424d9a84b543b64736f6c634300050a0032","opcodes":"PUSH1 0x80 PUSH1 0x40 MSTORE PUSH3 0x282070 PUSH1 0x4 SSTORE CALLVALUE DUP1 ISZERO PUSH3 0x18 JUMPI PUSH1 0x0 DUP1 REVERT JUMPDEST POP PUSH1 0x40 MLOAD PUSH3 0x5DE5 CODESIZE SUB DUP1 PUSH3 0x5DE5 DUP4 CODECOPY DUP2 DUP2 ADD PUSH1 0x40 MSTORE PUSH1 0x40 DUP2 LT ISZERO PUSH3 0x3E JUMPI PUSH1 0x0 DUP1 REVERT JUMPDEST DUP2 ADD SWAP1 DUP1 DUP1 MLOAD SWAP1 PUSH1 0x20 ADD SWAP1 SWAP3 SWAP2 SWAP1 DUP1 MLOAD SWAP1 PUSH1 0x20 ADD SWAP1 SWAP3 SWAP2 SWAP1 POP POP POP CALLER PUSH1 0x1 PUSH1 0x0 PUSH2 0x100 EXP DUP2 SLOAD DUP2 PUSH20 0xFFFFFFFFFFFFFFFFFFFFFFFFFFFFFFFFFFFFFFFF MUL NOT AND SWAP1 DUP4 PUSH20 0xFFFFFFFFFFFFFFFFFFFFFFFFFFFFFFFFFFFFFFFF AND MUL OR SWAP1 SSTORE POP DUP2 PUSH1 0x2 PUSH1 0x0 PUSH2 0x100 EXP DUP2 SLOAD DUP2 PUSH20 0xFFFFFFFFFFFFFFFFFFFFFFFFFFFFFFFFFFFFFFFF MUL NOT AND SWAP1 DUP4 PUSH20 0xFFFFFFFFFFFFFFFFFFFFFFFFFFFFFFFFFFFFFFFF AND MUL OR SWAP1 SSTORE POP DUP1 PUSH1 0x3 PUSH1 0x0 PUSH2 0x100 EXP DUP2 SLOAD DUP2 PUSH20 0xFFFFFFFFFFFFFFFFFFFFFFFFFFFFFFFFFFFFFFFF MUL NOT AND SWAP1 DUP4 PUSH20 0xFFFFFFFFFFFFFFFFFFFFFFFFFFFFFFFFFFFFFFFF AND MUL OR SWAP1 SSTORE POP PUSH1 0x2 PUSH1 0x0 SWAP1 SLOAD SWAP1 PUSH2 0x100 EXP SWAP1 DIV PUSH20 0xFFFFFFFFFFFFFFFFFFFFFFFFFFFFFFFFFFFFFFFF AND PUSH20 0xFFFFFFFFFFFFFFFFFFFFFFFFFFFFFFFFFFFFFFFF AND PUSH4 0xB81F90F3 PUSH1 0x40 MLOAD DUP2 PUSH4 0xFFFFFFFF AND PUSH1 0xE0 SHL DUP2 MSTORE PUSH1 0x4 ADD PUSH1 0x20 PUSH1 0x40 MLOAD DUP1 DUP4 SUB DUP2 DUP7 DUP1 EXTCODESIZE ISZERO DUP1 ISZERO PUSH3 0x185 JUMPI PUSH1 0x0 DUP1 REVERT JUMPDEST POP GAS STATICCALL ISZERO DUP1 ISZERO PUSH3 0x19A JUMPI RETURNDATASIZE PUSH1 0x0 DUP1 RETURNDATACOPY RETURNDATASIZE PUSH1 0x0 REVERT JUMPDEST POP POP POP POP PUSH1 0x40 MLOAD RETURNDATASIZE PUSH1 0x20 DUP2 LT ISZERO PUSH3 0x1B1 JUMPI PUSH1 0x0 DUP1 REVERT JUMPDEST DUP2 ADD SWAP1 DUP1 DUP1 MLOAD SWAP1 PUSH1 0x20 ADD SWAP1 SWAP3 SWAP2 SWAP1 POP POP POP PUSH1 0x0 DUP2 SWAP1 SSTORE POP PUSH1 0xB PUSH1 0x0 SWAP1 DUP1 PUSH1 0x1 DUP2 SLOAD ADD DUP1 DUP3 SSTORE DUP1 SWAP2 POP POP SWAP1 PUSH1 0x1 DUP3 SUB SWAP1 PUSH1 0x0 MSTORE PUSH1 0x20 PUSH1 0x0 KECCAK256 ADD PUSH1 0x0 SWAP1 SWAP2 SWAP3 SWAP1 SWAP2 SWAP1 SWAP2 POP SSTORE POP POP POP PUSH2 0x5BDE DUP1 PUSH3 0x207 PUSH1 0x0 CODECOPY PUSH1 0x0 RETURN INVALID PUSH1 0x80 PUSH1 0x40 MSTORE CALLVALUE DUP1 ISZERO PUSH2 0x10 JUMPI PUSH1 0x0 DUP1 REVERT JUMPDEST POP PUSH1 0x4 CALLDATASIZE LT PUSH2 0x1F0 JUMPI PUSH1 0x0 CALLDATALOAD PUSH1 0xE0 SHR DUP1 PUSH4 0x98C61C37 GT PUSH2 0x10F JUMPI DUP1 PUSH4 0xD58424A3 GT PUSH2 0xA2 JUMPI DUP1 PUSH4 0xE5FD04E6 GT PUSH2 0x71 JUMPI DUP1 PUSH4 0xE5FD04E6 EQ PUSH2 0xEA8 JUMPI DUP1 PUSH4 0xE78C81C4 EQ PUSH2 0xEE0 JUMPI DUP1 PUSH4 0xE83F7843 EQ PUSH2 0xF0E JUMPI DUP1 PUSH4 0xFC0C546A EQ PUSH2 0xFC6 JUMPI PUSH2 0x1F0 JUMP JUMPDEST DUP1 PUSH4 0xD58424A3 EQ PUSH2 0xDBE JUMPI DUP1 PUSH4 0xDA9D8AA0 EQ PUSH2 0xE2E JUMPI DUP1 PUSH4 0xDDD1B67E EQ PUSH2 0xE5C JUMPI DUP1 PUSH4 0xDEA6CF43 EQ PUSH2 0xE7A JUMPI PUSH2 0x1F0 JUMP JUMPDEST DUP1 PUSH4 0xBE4AD9C3 GT PUSH2 0xDE JUMPI DUP1 PUSH4 0xBE4AD9C3 EQ PUSH2 0xB8F JUMPI DUP1 PUSH4 0xC22251B3 EQ PUSH2 0xC7B JUMPI DUP1 PUSH4 0xCC44A2FD EQ PUSH2 0xCA9 JUMPI DUP1 PUSH4 0xD0E32681 EQ PUSH2 0xCF2 JUMPI PUSH2 0x1F0 JUMP JUMPDEST DUP1 PUSH4 0x98C61C37 EQ PUSH2 0x9A6 JUMPI DUP1 PUSH4 0x9D0B8B44 EQ PUSH2 0xA1D JUMPI DUP1 PUSH4 0xA4C0E90A EQ PUSH2 0xADF JUMPI DUP1 PUSH4 0xAD998FA0 EQ PUSH2 0xB37 JUMPI PUSH2 0x1F0 JUMP JUMPDEST DUP1 PUSH4 0x53FCB2F3 GT PUSH2 0x187 JUMPI DUP1 PUSH4 0x82F97857 GT PUSH2 0x156 JUMPI DUP1 PUSH4 0x82F97857 EQ PUSH2 0x78A JUMPI DUP1 PUSH4 0x88C5F296 EQ PUSH2 0x7C2 JUMPI DUP1 PUSH4 0x8DA5CB5B EQ PUSH2 0x90E JUMPI DUP1 PUSH4 0x911E8BC6 EQ PUSH2 0x958 JUMPI PUSH2 0x1F0 JUMP JUMPDEST DUP1 PUSH4 0x53FCB2F3 EQ PUSH2 0x661 JUMPI DUP1 PUSH4 0x762E7A34 EQ PUSH2 0x68F JUMPI DUP1 PUSH4 0x778DB8D4 EQ PUSH2 0x6EE JUMPI DUP1 PUSH4 0x7ACAB857 EQ PUSH2 0x732 JUMPI PUSH2 0x1F0 JUMP JUMPDEST DUP1 PUSH4 0x2C779774 GT PUSH2 0x1C3 JUMPI DUP1 PUSH4 0x2C779774 EQ PUSH2 0x459 JUMPI DUP1 PUSH4 0x2E9721B6 EQ PUSH2 0x54F JUMPI DUP1 PUSH4 0x4EC0692C EQ PUSH2 0x5D1 JUMPI DUP1 PUSH4 0x4F916FB0 EQ PUSH2 0x613 JUMPI PUSH2 0x1F0 JUMP JUMPDEST DUP1 PUSH4 0xDF5202F EQ PUSH2 0x1F5 JUMPI DUP1 PUSH4 0x16D3E966 EQ PUSH2 0x23F JUMPI DUP1 PUSH4 0x1849D8EA EQ PUSH2 0x38B JUMPI DUP1 PUSH4 0x23A15E6B EQ PUSH2 0x417 JUMPI JUMPDEST PUSH1 0x0 DUP1 REVERT JUMPDEST PUSH2 0x1FD PUSH2 0x1010 JUMP JUMPDEST PUSH1 0x40 MLOAD DUP1 DUP3 PUSH20 0xFFFFFFFFFFFFFFFFFFFFFFFFFFFFFFFFFFFFFFFF AND PUSH20 0xFFFFFFFFFFFFFFFFFFFFFFFFFFFFFFFFFFFFFFFF AND DUP2 MSTORE PUSH1 0x20 ADD SWAP2 POP POP PUSH1 0x40 MLOAD DUP1 SWAP2 SUB SWAP1 RETURN JUMPDEST PUSH2 0x389 PUSH1 0x4 DUP1 CALLDATASIZE SUB PUSH1 0x40 DUP2 LT ISZERO PUSH2 0x255 JUMPI PUSH1 0x0 DUP1 REVERT JUMPDEST DUP2 ADD SWAP1 DUP1 DUP1 CALLDATALOAD SWAP1 PUSH1 0x20 ADD SWAP1 PUSH5 0x100000000 DUP2 GT ISZERO PUSH2 0x272 JUMPI PUSH1 0x0 DUP1 REVERT JUMPDEST DUP3 ADD DUP4 PUSH1 0x20 DUP3 ADD GT ISZERO PUSH2 0x284 JUMPI PUSH1 0x0 DUP1 REVERT JUMPDEST DUP1 CALLDATALOAD SWAP1 PUSH1 0x20 ADD SWAP2 DUP5 PUSH1 0x20 DUP4 MUL DUP5 ADD GT PUSH5 0x100000000 DUP4 GT OR ISZERO PUSH2 0x2A6 JUMPI PUSH1 0x0 DUP1 REVERT JUMPDEST SWAP2 SWAP1 DUP1 DUP1 PUSH1 0x20 MUL PUSH1 0x20 ADD PUSH1 0x40 MLOAD SWAP1 DUP2 ADD PUSH1 0x40 MSTORE DUP1 SWAP4 SWAP3 SWAP2 SWAP1 DUP2 DUP2 MSTORE PUSH1 0x20 ADD DUP4 DUP4 PUSH1 0x20 MUL DUP1 DUP3 DUP5 CALLDATACOPY PUSH1 0x0 DUP2 DUP5 ADD MSTORE PUSH1 0x1F NOT PUSH1 0x1F DUP3 ADD AND SWAP1 POP DUP1 DUP4 ADD SWAP3 POP POP POP POP POP POP POP SWAP2 SWAP3 SWAP2 SWAP3 SWAP1 DUP1 CALLDATALOAD SWAP1 PUSH1 0x20 ADD SWAP1 PUSH5 0x100000000 DUP2 GT ISZERO PUSH2 0x306 JUMPI PUSH1 0x0 DUP1 REVERT JUMPDEST DUP3 ADD DUP4 PUSH1 0x20 DUP3 ADD GT ISZERO PUSH2 0x318 JUMPI PUSH1 0x0 DUP1 REVERT JUMPDEST DUP1 CALLDATALOAD SWAP1 PUSH1 0x20 ADD SWAP2 DUP5 PUSH1 0x20 DUP4 MUL DUP5 ADD GT PUSH5 0x100000000 DUP4 GT OR ISZERO PUSH2 0x33A JUMPI PUSH1 0x0 DUP1 REVERT JUMPDEST SWAP2 SWAP1 DUP1 DUP1 PUSH1 0x20 MUL PUSH1 0x20 ADD PUSH1 0x40 MLOAD SWAP1 DUP2 ADD PUSH1 0x40 MSTORE DUP1 SWAP4 SWAP3 SWAP2 SWAP1 DUP2 DUP2 MSTORE PUSH1 0x20 ADD DUP4 DUP4 PUSH1 0x20 MUL DUP1 DUP3 DUP5 CALLDATACOPY PUSH1 0x0 DUP2 DUP5 ADD MSTORE PUSH1 0x1F NOT PUSH1 0x1F DUP3 ADD AND SWAP1 POP DUP1 DUP4 ADD SWAP3 POP POP POP POP POP POP POP SWAP2 SWAP3 SWAP2 SWAP3 SWAP1 POP POP POP PUSH2 0x1036 JUMP JUMPDEST STOP JUMPDEST PUSH2 0x3D7 PUSH1 0x4 DUP1 CALLDATASIZE SUB PUSH1 0x40 DUP2 LT ISZERO PUSH2 0x3A1 JUMPI PUSH1 0x0 DUP1 REVERT JUMPDEST DUP2 ADD SWAP1 DUP1 DUP1 CALLDATALOAD PUSH20 0xFFFFFFFFFFFFFFFFFFFFFFFFFFFFFFFFFFFFFFFF AND SWAP1 PUSH1 0x20 ADD SWAP1 SWAP3 SWAP2 SWAP1 DUP1 CALLDATALOAD SWAP1 PUSH1 0x20 ADD SWAP1 SWAP3 SWAP2 SWAP1 POP POP POP PUSH2 0x1669 JUMP JUMPDEST PUSH1 0x40 MLOAD DUP1 DUP9 DUP2 MSTORE PUSH1 0x20 ADD DUP8 DUP2 MSTORE PUSH1 0x20 ADD DUP7 DUP2 MSTORE PUSH1 0x20 ADD DUP6 DUP2 MSTORE PUSH1 0x20 ADD DUP5 DUP2 MSTORE PUSH1 0x20 ADD DUP4 DUP2 MSTORE PUSH1 0x20 ADD DUP3 DUP2 MSTORE PUSH1 0x20 ADD SWAP8 POP POP POP POP POP POP POP POP PUSH1 0x40 MLOAD DUP1 SWAP2 SUB SWAP1 RETURN JUMPDEST PUSH2 0x443 PUSH1 0x4 DUP1 CALLDATASIZE SUB PUSH1 0x20 DUP2 LT ISZERO PUSH2 0x42D JUMPI PUSH1 0x0 DUP1 REVERT JUMPDEST DUP2 ADD SWAP1 DUP1 DUP1 CALLDATALOAD SWAP1 PUSH1 0x20 ADD SWAP1 SWAP3 SWAP2 SWAP1 POP POP POP PUSH2 0x16C5 JUMP JUMPDEST PUSH1 0x40 MLOAD DUP1 DUP3 DUP2 MSTORE PUSH1 0x20 ADD SWAP2 POP POP PUSH1 0x40 MLOAD DUP1 SWAP2 SUB SWAP1 RETURN JUMPDEST PUSH2 0x539 PUSH1 0x4 DUP1 CALLDATASIZE SUB PUSH1 0x60 DUP2 LT ISZERO PUSH2 0x46F JUMPI PUSH1 0x0 DUP1 REVERT JUMPDEST DUP2 ADD SWAP1 DUP1 DUP1 CALLDATALOAD PUSH20 0xFFFFFFFFFFFFFFFFFFFFFFFFFFFFFFFFFFFFFFFF AND SWAP1 PUSH1 0x20 ADD SWAP1 SWAP3 SWAP2 SWAP1 DUP1 CALLDATALOAD SWAP1 PUSH1 0x20 ADD SWAP1 SWAP3 SWAP2 SWAP1 DUP1 CALLDATALOAD SWAP1 PUSH1 0x20 ADD SWAP1 PUSH5 0x100000000 DUP2 GT ISZERO PUSH2 0x4B6 JUMPI PUSH1 0x0 DUP1 REVERT JUMPDEST DUP3 ADD DUP4 PUSH1 0x20 DUP3 ADD GT ISZERO PUSH2 0x4C8 JUMPI PUSH1 0x0 DUP1 REVERT JUMPDEST DUP1 CALLDATALOAD SWAP1 PUSH1 0x20 ADD SWAP2 DUP5 PUSH1 0x20 DUP4 MUL DUP5 ADD GT PUSH5 0x100000000 DUP4 GT OR ISZERO PUSH2 0x4EA JUMPI PUSH1 0x0 DUP1 REVERT JUMPDEST SWAP2 SWAP1 DUP1 DUP1 PUSH1 0x20 MUL PUSH1 0x20 ADD PUSH1 0x40 MLOAD SWAP1 DUP2 ADD PUSH1 0x40 MSTORE DUP1 SWAP4 SWAP3 SWAP2 SWAP1 DUP2 DUP2 MSTORE PUSH1 0x20 ADD DUP4 DUP4 PUSH1 0x20 MUL DUP1 DUP3 DUP5 CALLDATACOPY PUSH1 0x0 DUP2 DUP5 ADD MSTORE PUSH1 0x1F NOT PUSH1 0x1F DUP3 ADD AND SWAP1 POP DUP1 DUP4 ADD SWAP3 POP POP POP POP POP POP POP SWAP2 SWAP3 SWAP2 SWAP3 SWAP1 POP POP POP PUSH2 0x16E6 JUMP JUMPDEST PUSH1 0x40 MLOAD DUP1 DUP3 DUP2 MSTORE PUSH1 0x20 ADD SWAP2 POP POP PUSH1 0x40 MLOAD DUP1 SWAP2 SUB SWAP1 RETURN JUMPDEST PUSH2 0x5BB PUSH1 0x4 DUP1 CALLDATASIZE SUB PUSH1 0x60 DUP2 LT ISZERO PUSH2 0x565 JUMPI PUSH1 0x0 DUP1 REVERT JUMPDEST DUP2 ADD SWAP1 DUP1 DUP1 CALLDATALOAD PUSH20 0xFFFFFFFFFFFFFFFFFFFFFFFFFFFFFFFFFFFFFFFF AND SWAP1 PUSH1 0x20 ADD SWAP1 SWAP3 SWAP2 SWAP1 DUP1 CALLDATALOAD SWAP1 PUSH1 0x20 ADD SWAP1 SWAP3 SWAP2 SWAP1 DUP1 CALLDATALOAD PUSH20 0xFFFFFFFFFFFFFFFFFFFFFFFFFFFFFFFFFFFFFFFF AND SWAP1 PUSH1 0x20 ADD SWAP1 SWAP3 SWAP2 SWAP1 POP POP POP PUSH2 0x1956 JUMP JUMPDEST PUSH1 0x40 MLOAD DUP1 DUP3 DUP2 MSTORE PUSH1 0x20 ADD SWAP2 POP POP PUSH1 0x40 MLOAD DUP1 SWAP2 SUB SWAP1 RETURN JUMPDEST PUSH2 0x5FD PUSH1 0x4 DUP1 CALLDATASIZE SUB PUSH1 0x20 DUP2 LT ISZERO PUSH2 0x5E7 JUMPI PUSH1 0x0 DUP1 REVERT JUMPDEST DUP2 ADD SWAP1 DUP1 DUP1 CALLDATALOAD SWAP1 PUSH1 0x20 ADD SWAP1 SWAP3 SWAP2 SWAP1 POP POP POP PUSH2 0x19FA JUMP JUMPDEST PUSH1 0x40 MLOAD DUP1 DUP3 DUP2 MSTORE PUSH1 0x20 ADD SWAP2 POP POP PUSH1 0x40 MLOAD DUP1 SWAP2 SUB SWAP1 RETURN JUMPDEST PUSH2 0x65F PUSH1 0x4 DUP1 CALLDATASIZE SUB PUSH1 0x40 DUP2 LT ISZERO PUSH2 0x629 JUMPI PUSH1 0x0 DUP1 REVERT JUMPDEST DUP2 ADD SWAP1 DUP1 DUP1 CALLDATALOAD SWAP1 PUSH1 0x20 ADD SWAP1 SWAP3 SWAP2 SWAP1 DUP1 CALLDATALOAD PUSH20 0xFFFFFFFFFFFFFFFFFFFFFFFFFFFFFFFFFFFFFFFF AND SWAP1 PUSH1 0x20 ADD SWAP1 SWAP3 SWAP2 SWAP1 POP POP POP PUSH2 0x1A12 JUMP JUMPDEST STOP JUMPDEST PUSH2 0x68D PUSH1 0x4 DUP1 CALLDATASIZE SUB PUSH1 0x20 DUP2 LT ISZERO PUSH2 0x677 JUMPI PUSH1 0x0 DUP1 REVERT JUMPDEST DUP2 ADD SWAP1 DUP1 DUP1 CALLDATALOAD SWAP1 PUSH1 0x20 ADD SWAP1 SWAP3 SWAP2 SWAP1 POP POP POP PUSH2 0x1CF0 JUMP JUMPDEST STOP JUMPDEST PUSH2 0x6BB PUSH1 0x4 DUP1 CALLDATASIZE SUB PUSH1 0x20 DUP2 LT ISZERO PUSH2 0x6A5 JUMPI PUSH1 0x0 DUP1 REVERT JUMPDEST DUP2 ADD SWAP1 DUP1 DUP1 CALLDATALOAD SWAP1 PUSH1 0x20 ADD SWAP1 SWAP3 SWAP2 SWAP1 POP POP POP PUSH2 0x1EA9 JUMP JUMPDEST PUSH1 0x40 MLOAD DUP1 DUP6 DUP2 MSTORE PUSH1 0x20 ADD DUP5 DUP2 MSTORE PUSH1 0x20 ADD DUP4 ISZERO ISZERO ISZERO ISZERO DUP2 MSTORE PUSH1 0x20 ADD DUP3 ISZERO ISZERO ISZERO ISZERO DUP2 MSTORE PUSH1 0x20 ADD SWAP5 POP POP POP POP POP PUSH1 0x40 MLOAD DUP1 SWAP2 SUB SWAP1 RETURN JUMPDEST PUSH2 0x730 PUSH1 0x4 DUP1 CALLDATASIZE SUB PUSH1 0x60 DUP2 LT ISZERO PUSH2 0x704 JUMPI PUSH1 0x0 DUP1 REVERT JUMPDEST DUP2 ADD SWAP1 DUP1 DUP1 CALLDATALOAD SWAP1 PUSH1 0x20 ADD SWAP1 SWAP3 SWAP2 SWAP1 DUP1 CALLDATALOAD SWAP1 PUSH1 0x20 ADD SWAP1 SWAP3 SWAP2 SWAP1 DUP1 CALLDATALOAD ISZERO ISZERO SWAP1 PUSH1 0x20 ADD SWAP1 SWAP3 SWAP2 SWAP1 POP POP POP PUSH2 0x1F00 JUMP JUMPDEST STOP JUMPDEST PUSH2 0x774 PUSH1 0x4 DUP1 CALLDATASIZE SUB PUSH1 0x20 DUP2 LT ISZERO PUSH2 0x748 JUMPI PUSH1 0x0 DUP1 REVERT JUMPDEST DUP2 ADD SWAP1 DUP1 DUP1 CALLDATALOAD PUSH20 0xFFFFFFFFFFFFFFFFFFFFFFFFFFFFFFFFFFFFFFFF AND SWAP1 PUSH1 0x20 ADD SWAP1 SWAP3 SWAP2 SWAP1 POP POP POP PUSH2 0x2009 JUMP JUMPDEST PUSH1 0x40 MLOAD DUP1 DUP3 DUP2 MSTORE PUSH1 0x20 ADD SWAP2 POP POP PUSH1 0x40 MLOAD DUP1 SWAP2 SUB SWAP1 RETURN JUMPDEST PUSH2 0x7C0 PUSH1 0x4 DUP1 CALLDATASIZE SUB PUSH1 0x40 DUP2 LT ISZERO PUSH2 0x7A0 JUMPI PUSH1 0x0 DUP1 REVERT JUMPDEST DUP2 ADD SWAP1 DUP1 DUP1 CALLDATALOAD SWAP1 PUSH1 0x20 ADD SWAP1 SWAP3 SWAP2 SWAP1 DUP1 CALLDATALOAD SWAP1 PUSH1 0x20 ADD SWAP1 SWAP3 SWAP2 SWAP1 POP POP POP PUSH2 0x2021 JUMP JUMPDEST STOP JUMPDEST PUSH2 0x90C PUSH1 0x4 DUP1 CALLDATASIZE SUB PUSH1 0x40 DUP2 LT ISZERO PUSH2 0x7D8 JUMPI PUSH1 0x0 DUP1 REVERT JUMPDEST DUP2 ADD SWAP1 DUP1 DUP1 CALLDATALOAD SWAP1 PUSH1 0x20 ADD SWAP1 PUSH5 0x100000000 DUP2 GT ISZERO PUSH2 0x7F5 JUMPI PUSH1 0x0 DUP1 REVERT JUMPDEST DUP3 ADD DUP4 PUSH1 0x20 DUP3 ADD GT ISZERO PUSH2 0x807 JUMPI PUSH1 0x0 DUP1 REVERT JUMPDEST DUP1 CALLDATALOAD SWAP1 PUSH1 0x20 ADD SWAP2 DUP5 PUSH1 0x20 DUP4 MUL DUP5 ADD GT PUSH5 0x100000000 DUP4 GT OR ISZERO PUSH2 0x829 JUMPI PUSH1 0x0 DUP1 REVERT JUMPDEST SWAP2 SWAP1 DUP1 DUP1 PUSH1 0x20 MUL PUSH1 0x20 ADD PUSH1 0x40 MLOAD SWAP1 DUP2 ADD PUSH1 0x40 MSTORE DUP1 SWAP4 SWAP3 SWAP2 SWAP1 DUP2 DUP2 MSTORE PUSH1 0x20 ADD DUP4 DUP4 PUSH1 0x20 MUL DUP1 DUP3 DUP5 CALLDATACOPY PUSH1 0x0 DUP2 DUP5 ADD MSTORE PUSH1 0x1F NOT PUSH1 0x1F DUP3 ADD AND SWAP1 POP DUP1 DUP4 ADD SWAP3 POP POP POP POP POP POP POP SWAP2 SWAP3 SWAP2 SWAP3 SWAP1 DUP1 CALLDATALOAD SWAP1 PUSH1 0x20 ADD SWAP1 PUSH5 0x100000000 DUP2 GT ISZERO PUSH2 0x889 JUMPI PUSH1 0x0 DUP1 REVERT JUMPDEST DUP3 ADD DUP4 PUSH1 0x20 DUP3 ADD GT ISZERO PUSH2 0x89B JUMPI PUSH1 0x0 DUP1 REVERT JUMPDEST DUP1 CALLDATALOAD SWAP1 PUSH1 0x20 ADD SWAP2 DUP5 PUSH1 0x20 DUP4 MUL DUP5 ADD GT PUSH5 0x100000000 DUP4 GT OR ISZERO PUSH2 0x8BD JUMPI PUSH1 0x0 DUP1 REVERT JUMPDEST SWAP2 SWAP1 DUP1 DUP1 PUSH1 0x20 MUL PUSH1 0x20 ADD PUSH1 0x40 MLOAD SWAP1 DUP2 ADD PUSH1 0x40 MSTORE DUP1 SWAP4 SWAP3 SWAP2 SWAP1 DUP2 DUP2 MSTORE PUSH1 0x20 ADD DUP4 DUP4 PUSH1 0x20 MUL DUP1 DUP3 DUP5 CALLDATACOPY PUSH1 0x0 DUP2 DUP5 ADD MSTORE PUSH1 0x1F NOT PUSH1 0x1F DUP3 ADD AND SWAP1 POP DUP1 DUP4 ADD SWAP3 POP POP POP POP POP POP POP SWAP2 SWAP3 SWAP2 SWAP3 SWAP1 POP POP POP PUSH2 0x20D8 JUMP JUMPDEST STOP JUMPDEST PUSH2 0x916 PUSH2 0x22C9 JUMP JUMPDEST PUSH1 0x40 MLOAD DUP1 DUP3 PUSH20 0xFFFFFFFFFFFFFFFFFFFFFFFFFFFFFFFFFFFFFFFF AND PUSH20 0xFFFFFFFFFFFFFFFFFFFFFFFFFFFFFFFFFFFFFFFF AND DUP2 MSTORE PUSH1 0x20 ADD SWAP2 POP POP PUSH1 0x40 MLOAD DUP1 SWAP2 SUB SWAP1 RETURN JUMPDEST PUSH2 0x9A4 PUSH1 0x4 DUP1 CALLDATASIZE SUB PUSH1 0x40 DUP2 LT ISZERO PUSH2 0x96E JUMPI PUSH1 0x0 DUP1 REVERT JUMPDEST DUP2 ADD SWAP1 DUP1 DUP1 CALLDATALOAD PUSH20 0xFFFFFFFFFFFFFFFFFFFFFFFFFFFFFFFFFFFFFFFF AND SWAP1 PUSH1 0x20 ADD SWAP1 SWAP3 SWAP2 SWAP1 DUP1 CALLDATALOAD SWAP1 PUSH1 0x20 ADD SWAP1 SWAP3 SWAP2 SWAP1 POP POP POP PUSH2 0x22EF JUMP JUMPDEST STOP JUMPDEST PUSH2 0x9F2 PUSH1 0x4 DUP1 CALLDATASIZE SUB PUSH1 0x40 DUP2 LT ISZERO PUSH2 0x9BC JUMPI PUSH1 0x0 DUP1 REVERT JUMPDEST DUP2 ADD SWAP1 DUP1 DUP1 CALLDATALOAD PUSH20 0xFFFFFFFFFFFFFFFFFFFFFFFFFFFFFFFFFFFFFFFF AND SWAP1 PUSH1 0x20 ADD SWAP1 SWAP3 SWAP2 SWAP1 DUP1 CALLDATALOAD SWAP1 PUSH1 0x20 ADD SWAP1 SWAP3 SWAP2 SWAP1 POP POP POP PUSH2 0x2D61 JUMP JUMPDEST PUSH1 0x40 MLOAD DUP1 DUP6 DUP2 MSTORE PUSH1 0x20 ADD DUP5 DUP2 MSTORE PUSH1 0x20 ADD DUP4 DUP2 MSTORE PUSH1 0x20 ADD DUP3 DUP2 MSTORE PUSH1 0x20 ADD SWAP5 POP POP POP POP POP PUSH1 0x40 MLOAD DUP1 SWAP2 SUB SWAP1 RETURN JUMPDEST PUSH2 0xADD PUSH1 0x4 DUP1 CALLDATASIZE SUB PUSH1 0x40 DUP2 LT ISZERO PUSH2 0xA33 JUMPI PUSH1 0x0 DUP1 REVERT JUMPDEST DUP2 ADD SWAP1 DUP1 DUP1 CALLDATALOAD SWAP1 PUSH1 0x20 ADD SWAP1 SWAP3 SWAP2 SWAP1 DUP1 CALLDATALOAD SWAP1 PUSH1 0x20 ADD SWAP1 PUSH5 0x100000000 DUP2 GT ISZERO PUSH2 0xA5A JUMPI PUSH1 0x0 DUP1 REVERT JUMPDEST DUP3 ADD DUP4 PUSH1 0x20 DUP3 ADD GT ISZERO PUSH2 0xA6C JUMPI PUSH1 0x0 DUP1 REVERT JUMPDEST DUP1 CALLDATALOAD SWAP1 PUSH1 0x20 ADD SWAP2 DUP5 PUSH1 0x20 DUP4 MUL DUP5 ADD GT PUSH5 0x100000000 DUP4 GT OR ISZERO PUSH2 0xA8E JUMPI PUSH1 0x0 DUP1 REVERT JUMPDEST SWAP2 SWAP1 DUP1 DUP1 PUSH1 0x20 MUL PUSH1 0x20 ADD PUSH1 0x40 MLOAD SWAP1 DUP2 ADD PUSH1 0x40 MSTORE DUP1 SWAP4 SWAP3 SWAP2 SWAP1 DUP2 DUP2 MSTORE PUSH1 0x20 ADD DUP4 DUP4 PUSH1 0x20 MUL DUP1 DUP3 DUP5 CALLDATACOPY PUSH1 0x0 DUP2 DUP5 ADD MSTORE PUSH1 0x1F NOT PUSH1 0x1F DUP3 ADD AND SWAP1 POP DUP1 DUP4 ADD SWAP3 POP POP POP POP POP POP POP SWAP2 SWAP3 SWAP2 SWAP3 SWAP1 POP POP POP PUSH2 0x2DAB JUMP JUMPDEST STOP JUMPDEST PUSH2 0xB35 PUSH1 0x4 DUP1 CALLDATASIZE SUB PUSH1 0x60 DUP2 LT ISZERO PUSH2 0xAF5 JUMPI PUSH1 0x0 DUP1 REVERT JUMPDEST DUP2 ADD SWAP1 DUP1 DUP1 CALLDATALOAD SWAP1 PUSH1 0x20 ADD SWAP1 SWAP3 SWAP2 SWAP1 DUP1 CALLDATALOAD PUSH20 0xFFFFFFFFFFFFFFFFFFFFFFFFFFFFFFFFFFFFFFFF AND SWAP1 PUSH1 0x20 ADD SWAP1 SWAP3 SWAP2 SWAP1 DUP1 CALLDATALOAD SWAP1 PUSH1 0x20 ADD SWAP1 SWAP3 SWAP2 SWAP1 POP POP POP PUSH2 0x343D JUMP JUMPDEST STOP JUMPDEST PUSH2 0xB79 PUSH1 0x4 DUP1 CALLDATASIZE SUB PUSH1 0x20 DUP2 LT ISZERO PUSH2 0xB4D JUMPI PUSH1 0x0 DUP1 REVERT JUMPDEST DUP2 ADD SWAP1 DUP1 DUP1 CALLDATALOAD PUSH20 0xFFFFFFFFFFFFFFFFFFFFFFFFFFFFFFFFFFFFFFFF AND SWAP1 PUSH1 0x20 ADD SWAP1 SWAP3 SWAP2 SWAP1 POP POP POP PUSH2 0x3714 JUMP JUMPDEST PUSH1 0x40 MLOAD DUP1 DUP3 DUP2 MSTORE PUSH1 0x20 ADD SWAP2 POP POP PUSH1 0x40 MLOAD DUP1 SWAP2 SUB SWAP1 RETURN JUMPDEST PUSH2 0xC65 PUSH1 0x4 DUP1 CALLDATASIZE SUB PUSH1 0x40 DUP2 LT ISZERO PUSH2 0xBA5 JUMPI PUSH1 0x0 DUP1 REVERT JUMPDEST DUP2 ADD SWAP1 DUP1 DUP1 CALLDATALOAD PUSH20 0xFFFFFFFFFFFFFFFFFFFFFFFFFFFFFFFFFFFFFFFF AND SWAP1 PUSH1 0x20 ADD SWAP1 SWAP3 SWAP2 SWAP1 DUP1 CALLDATALOAD SWAP1 PUSH1 0x20 ADD SWAP1 PUSH5 0x100000000 DUP2 GT ISZERO PUSH2 0xBE2 JUMPI PUSH1 0x0 DUP1 REVERT JUMPDEST DUP3 ADD DUP4 PUSH1 0x20 DUP3 ADD GT ISZERO PUSH2 0xBF4 JUMPI PUSH1 0x0 DUP1 REVERT JUMPDEST DUP1 CALLDATALOAD SWAP1 PUSH1 0x20 ADD SWAP2 DUP5 PUSH1 0x20 DUP4 MUL DUP5 ADD GT PUSH5 0x100000000 DUP4 GT OR ISZERO PUSH2 0xC16 JUMPI PUSH1 0x0 DUP1 REVERT JUMPDEST SWAP2 SWAP1 DUP1 DUP1 PUSH1 0x20 MUL PUSH1 0x20 ADD PUSH1 0x40 MLOAD SWAP1 DUP2 ADD PUSH1 0x40 MSTORE DUP1 SWAP4 SWAP3 SWAP2 SWAP1 DUP2 DUP2 MSTORE PUSH1 0x20 ADD DUP4 DUP4 PUSH1 0x20 MUL DUP1 DUP3 DUP5 CALLDATACOPY PUSH1 0x0 DUP2 DUP5 ADD MSTORE PUSH1 0x1F NOT PUSH1 0x1F DUP3 ADD AND SWAP1 POP DUP1 DUP4 ADD SWAP3 POP POP POP POP POP POP POP SWAP2 SWAP3 SWAP2 SWAP3 SWAP1 POP POP POP PUSH2 0x3760 JUMP JUMPDEST PUSH1 0x40 MLOAD DUP1 DUP3 DUP2 MSTORE PUSH1 0x20 ADD SWAP2 POP POP PUSH1 0x40 MLOAD DUP1 SWAP2 SUB SWAP1 RETURN JUMPDEST PUSH2 0xCA7 PUSH1 0x4 DUP1 CALLDATASIZE SUB PUSH1 0x20 DUP2 LT ISZERO PUSH2 0xC91 JUMPI PUSH1 0x0 DUP1 REVERT JUMPDEST DUP2 ADD SWAP1 DUP1 DUP1 CALLDATALOAD SWAP1 PUSH1 0x20 ADD SWAP1 SWAP3 SWAP2 SWAP1 POP POP POP PUSH2 0x38F3 JUMP JUMPDEST STOP JUMPDEST PUSH2 0xCD5 PUSH1 0x4 DUP1 CALLDATASIZE SUB PUSH1 0x20 DUP2 LT ISZERO PUSH2 0xCBF JUMPI PUSH1 0x0 DUP1 REVERT JUMPDEST DUP2 ADD SWAP1 DUP1 DUP1 CALLDATALOAD SWAP1 PUSH1 0x20 ADD SWAP1 SWAP3 SWAP2 SWAP1 POP POP POP PUSH2 0x39B2 JUMP JUMPDEST PUSH1 0x40 MLOAD DUP1 DUP4 DUP2 MSTORE PUSH1 0x20 ADD DUP3 DUP2 MSTORE PUSH1 0x20 ADD SWAP3 POP POP POP PUSH1 0x40 MLOAD DUP1 SWAP2 SUB SWAP1 RETURN JUMPDEST PUSH2 0xDBC PUSH1 0x4 DUP1 CALLDATASIZE SUB PUSH1 0x60 DUP2 LT ISZERO PUSH2 0xD08 JUMPI PUSH1 0x0 DUP1 REVERT JUMPDEST DUP2 ADD SWAP1 DUP1 DUP1 CALLDATALOAD SWAP1 PUSH1 0x20 ADD SWAP1 SWAP3 SWAP2 SWAP1 DUP1 CALLDATALOAD SWAP1 PUSH1 0x20 ADD SWAP1 SWAP3 SWAP2 SWAP1 DUP1 CALLDATALOAD SWAP1 PUSH1 0x20 ADD SWAP1 PUSH5 0x100000000 DUP2 GT ISZERO PUSH2 0xD39 JUMPI PUSH1 0x0 DUP1 REVERT JUMPDEST DUP3 ADD DUP4 PUSH1 0x20 DUP3 ADD GT ISZERO PUSH2 0xD4B JUMPI PUSH1 0x0 DUP1 REVERT JUMPDEST DUP1 CALLDATALOAD SWAP1 PUSH1 0x20 ADD SWAP2 DUP5 PUSH1 0x20 DUP4 MUL DUP5 ADD GT PUSH5 0x100000000 DUP4 GT OR ISZERO PUSH2 0xD6D JUMPI PUSH1 0x0 DUP1 REVERT JUMPDEST SWAP2 SWAP1 DUP1 DUP1 PUSH1 0x20 MUL PUSH1 0x20 ADD PUSH1 0x40 MLOAD SWAP1 DUP2 ADD PUSH1 0x40 MSTORE DUP1 SWAP4 SWAP3 SWAP2 SWAP1 DUP2 DUP2 MSTORE PUSH1 0x20 ADD DUP4 DUP4 PUSH1 0x20 MUL DUP1 DUP3 DUP5 CALLDATACOPY PUSH1 0x0 DUP2 DUP5 ADD MSTORE PUSH1 0x1F NOT PUSH1 0x1F DUP3 ADD AND SWAP1 POP DUP1 DUP4 ADD SWAP3 POP POP POP POP POP POP POP SWAP2 SWAP3 SWAP2 SWAP3 SWAP1 POP POP POP PUSH2 0x39E3 JUMP JUMPDEST STOP JUMPDEST PUSH2 0xE14 PUSH1 0x4 DUP1 CALLDATASIZE SUB PUSH1 0x60 DUP2 LT ISZERO PUSH2 0xDD4 JUMPI PUSH1 0x0 DUP1 REVERT JUMPDEST DUP2 ADD SWAP1 DUP1 DUP1 CALLDATALOAD PUSH20 0xFFFFFFFFFFFFFFFFFFFFFFFFFFFFFFFFFFFFFFFF AND SWAP1 PUSH1 0x20 ADD SWAP1 SWAP3 SWAP2 SWAP1 DUP1 CALLDATALOAD SWAP1 PUSH1 0x20 ADD SWAP1 SWAP3 SWAP2 SWAP1 DUP1 CALLDATALOAD SWAP1 PUSH1 0x20 ADD SWAP1 SWAP3 SWAP2 SWAP1 POP POP POP PUSH2 0x436C JUMP JUMPDEST PUSH1 0x40 MLOAD DUP1 DUP3 ISZERO ISZERO ISZERO ISZERO DUP2 MSTORE PUSH1 0x20 ADD SWAP2 POP POP PUSH1 0x40 MLOAD DUP1 SWAP2 SUB SWAP1 RETURN JUMPDEST PUSH2 0xE5A PUSH1 0x4 DUP1 CALLDATASIZE SUB PUSH1 0x20 DUP2 LT ISZERO PUSH2 0xE44 JUMPI PUSH1 0x0 DUP1 REVERT JUMPDEST DUP2 ADD SWAP1 DUP1 DUP1 CALLDATALOAD SWAP1 PUSH1 0x20 ADD SWAP1 SWAP3 SWAP2 SWAP1 POP POP POP PUSH2 0x46D7 JUMP JUMPDEST STOP JUMPDEST PUSH2 0xE64 PUSH2 0x4A92 JUMP JUMPDEST PUSH1 0x40 MLOAD DUP1 DUP3 DUP2 MSTORE PUSH1 0x20 ADD SWAP2 POP POP PUSH1 0x40 MLOAD DUP1 SWAP2 SUB SWAP1 RETURN JUMPDEST PUSH2 0xEA6 PUSH1 0x4 DUP1 CALLDATASIZE SUB PUSH1 0x20 DUP2 LT ISZERO PUSH2 0xE90 JUMPI PUSH1 0x0 DUP1 REVERT JUMPDEST DUP2 ADD SWAP1 DUP1 DUP1 CALLDATALOAD SWAP1 PUSH1 0x20 ADD SWAP1 SWAP3 SWAP2 SWAP1 POP POP POP PUSH2 0x4AA2 JUMP JUMPDEST STOP JUMPDEST PUSH2 0xEDE PUSH1 0x4 DUP1 CALLDATASIZE SUB PUSH1 0x40 DUP2 LT ISZERO PUSH2 0xEBE JUMPI PUSH1 0x0 DUP1 REVERT JUMPDEST DUP2 ADD SWAP1 DUP1 DUP1 CALLDATALOAD SWAP1 PUSH1 0x20 ADD SWAP1 SWAP3 SWAP2 SWAP1 DUP1 CALLDATALOAD SWAP1 PUSH1 0x20 ADD SWAP1 SWAP3 SWAP2 SWAP1 POP POP POP PUSH2 0x521F JUMP JUMPDEST STOP JUMPDEST PUSH2 0xF0C PUSH1 0x4 DUP1 CALLDATASIZE SUB PUSH1 0x20 DUP2 LT ISZERO PUSH2 0xEF6 JUMPI PUSH1 0x0 DUP1 REVERT JUMPDEST DUP2 ADD SWAP1 DUP1 DUP1 CALLDATALOAD SWAP1 PUSH1 0x20 ADD SWAP1 SWAP3 SWAP2 SWAP1 POP POP POP PUSH2 0x5633 JUMP JUMPDEST STOP JUMPDEST PUSH2 0xFC4 PUSH1 0x4 DUP1 CALLDATASIZE SUB PUSH1 0x20 DUP2 LT ISZERO PUSH2 0xF24 JUMPI PUSH1 0x0 DUP1 REVERT JUMPDEST DUP2 ADD SWAP1 DUP1 DUP1 CALLDATALOAD SWAP1 PUSH1 0x20 ADD SWAP1 PUSH5 0x100000000 DUP2 GT ISZERO PUSH2 0xF41 JUMPI PUSH1 0x0 DUP1 REVERT JUMPDEST DUP3 ADD DUP4 PUSH1 0x20 DUP3 ADD GT ISZERO PUSH2 0xF53 JUMPI PUSH1 0x0 DUP1 REVERT JUMPDEST DUP1 CALLDATALOAD SWAP1 PUSH1 0x20 ADD SWAP2 DUP5 PUSH1 0x20 DUP4 MUL DUP5 ADD GT PUSH5 0x100000000 DUP4 GT OR ISZERO PUSH2 0xF75 JUMPI PUSH1 0x0 DUP1 REVERT JUMPDEST SWAP2 SWAP1 DUP1 DUP1 PUSH1 0x20 MUL PUSH1 0x20 ADD PUSH1 0x40 MLOAD SWAP1 DUP2 ADD PUSH1 0x40 MSTORE DUP1 SWAP4 SWAP3 SWAP2 SWAP1 DUP2 DUP2 MSTORE PUSH1 0x20 ADD DUP4 DUP4 PUSH1 0x20 MUL DUP1 DUP3 DUP5 CALLDATACOPY PUSH1 0x0 DUP2 DUP5 ADD MSTORE PUSH1 0x1F NOT PUSH1 0x1F DUP3 ADD AND SWAP1 POP DUP1 DUP4 ADD SWAP3 POP POP POP POP POP POP POP SWAP2 SWAP3 SWAP2 SWAP3 SWAP1 POP POP POP PUSH2 0x56BC JUMP JUMPDEST STOP JUMPDEST PUSH2 0xFCE PUSH2 0x5A72 JUMP JUMPDEST PUSH1 0x40 MLOAD DUP1 DUP3 PUSH20 0xFFFFFFFFFFFFFFFFFFFFFFFFFFFFFFFFFFFFFFFF AND PUSH20 0xFFFFFFFFFFFFFFFFFFFFFFFFFFFFFFFFFFFFFFFF AND DUP2 MSTORE PUSH1 0x20 ADD SWAP2 POP POP PUSH1 0x40 MLOAD DUP1 SWAP2 SUB SWAP1 RETURN JUMPDEST PUSH1 0x3 PUSH1 0x0 SWAP1 SLOAD SWAP1 PUSH2 0x100 EXP SWAP1 DIV PUSH20 0xFFFFFFFFFFFFFFFFFFFFFFFFFFFFFFFFFFFFFFFF AND DUP2 JUMP JUMPDEST PUSH1 0x0 DUP1 PUSH1 0x0 SWAP1 POP JUMPDEST DUP4 MLOAD DUP2 LT ISZERO PUSH2 0x149B JUMPI PUSH1 0x1 PUSH1 0x8 PUSH1 0x0 DUP7 DUP5 DUP2 MLOAD DUP2 LT PUSH2 0x1059 JUMPI INVALID JUMPDEST PUSH1 0x20 MUL PUSH1 0x20 ADD ADD MLOAD PUSH20 0xFFFFFFFFFFFFFFFFFFFFFFFFFFFFFFFFFFFFFFFF AND PUSH20 0xFFFFFFFFFFFFFFFFFFFFFFFFFFFFFFFFFFFFFFFF AND DUP2 MSTORE PUSH1 0x20 ADD SWAP1 DUP2 MSTORE PUSH1 0x20 ADD PUSH1 0x0 KECCAK256 DUP5 DUP4 DUP2 MLOAD DUP2 LT PUSH2 0x10A7 JUMPI INVALID JUMPDEST PUSH1 0x20 MUL PUSH1 0x20 ADD ADD MLOAD DUP2 SLOAD DUP2 LT PUSH2 0x10B9 JUMPI INVALID JUMPDEST SWAP1 PUSH1 0x0 MSTORE PUSH1 0x20 PUSH1 0x0 KECCAK256 SWAP1 PUSH1 0x5 MUL ADD PUSH1 0x3 ADD SLOAD EQ PUSH2 0x10D5 JUMPI PUSH1 0x0 DUP1 REVERT JUMPDEST PUSH2 0x1189 PUSH1 0x4 SLOAD PUSH1 0x6 PUSH1 0x8 PUSH1 0x0 DUP9 DUP7 DUP2 MLOAD DUP2 LT PUSH2 0x10ED JUMPI INVALID JUMPDEST PUSH1 0x20 MUL PUSH1 0x20 ADD ADD MLOAD PUSH20 0xFFFFFFFFFFFFFFFFFFFFFFFFFFFFFFFFFFFFFFFF AND PUSH20 0xFFFFFFFFFFFFFFFFFFFFFFFFFFFFFFFFFFFFFFFF AND DUP2 MSTORE PUSH1 0x20 ADD SWAP1 DUP2 MSTORE PUSH1 0x20 ADD PUSH1 0x0 KECCAK256 DUP7 DUP6 DUP2 MLOAD DUP2 LT PUSH2 0x113B JUMPI INVALID JUMPDEST PUSH1 0x20 MUL PUSH1 0x20 ADD ADD MLOAD DUP2 SLOAD DUP2 LT PUSH2 0x114D JUMPI INVALID JUMPDEST SWAP1 PUSH1 0x0 MSTORE PUSH1 0x20 PUSH1 0x0 KECCAK256 SWAP1 PUSH1 0x5 MUL ADD PUSH1 0x2 ADD SLOAD DUP2 SLOAD DUP2 LT PUSH2 0x1169 JUMPI INVALID JUMPDEST SWAP1 PUSH1 0x0 MSTORE PUSH1 0x20 PUSH1 0x0 KECCAK256 SWAP1 PUSH1 0x2 MUL ADD PUSH1 0x0 ADD SLOAD PUSH2 0x5A98 SWAP1 SWAP2 SWAP1 PUSH4 0xFFFFFFFF AND JUMP JUMPDEST PUSH1 0x8 PUSH1 0x0 DUP7 DUP5 DUP2 MLOAD DUP2 LT PUSH2 0x1199 JUMPI INVALID JUMPDEST PUSH1 0x20 MUL PUSH1 0x20 ADD ADD MLOAD PUSH20 0xFFFFFFFFFFFFFFFFFFFFFFFFFFFFFFFFFFFFFFFF AND PUSH20 0xFFFFFFFFFFFFFFFFFFFFFFFFFFFFFFFFFFFFFFFF AND DUP2 MSTORE PUSH1 0x20 ADD SWAP1 DUP2 MSTORE PUSH1 0x20 ADD PUSH1 0x0 KECCAK256 DUP5 DUP4 DUP2 MLOAD DUP2 LT PUSH2 0x11E7 JUMPI INVALID JUMPDEST PUSH1 0x20 MUL PUSH1 0x20 ADD ADD MLOAD DUP2 SLOAD DUP2 LT PUSH2 0x11F9 JUMPI INVALID JUMPDEST SWAP1 PUSH1 0x0 MSTORE PUSH1 0x20 PUSH1 0x0 KECCAK256 SWAP1 PUSH1 0x5 MUL ADD PUSH1 0x1 ADD SLOAD ADD PUSH1 0x2 PUSH1 0x0 SWAP1 SLOAD SWAP1 PUSH2 0x100 EXP SWAP1 DIV PUSH20 0xFFFFFFFFFFFFFFFFFFFFFFFFFFFFFFFFFFFFFFFF AND PUSH20 0xFFFFFFFFFFFFFFFFFFFFFFFFFFFFFFFFFFFFFFFF AND PUSH4 0xB81F90F3 PUSH1 0x40 MLOAD DUP2 PUSH4 0xFFFFFFFF AND PUSH1 0xE0 SHL DUP2 MSTORE PUSH1 0x4 ADD PUSH1 0x20 PUSH1 0x40 MLOAD DUP1 DUP4 SUB DUP2 DUP7 DUP1 EXTCODESIZE ISZERO DUP1 ISZERO PUSH2 0x1274 JUMPI PUSH1 0x0 DUP1 REVERT JUMPDEST POP GAS STATICCALL ISZERO DUP1 ISZERO PUSH2 0x1288 JUMPI RETURNDATASIZE PUSH1 0x0 DUP1 RETURNDATACOPY RETURNDATASIZE PUSH1 0x0 REVERT JUMPDEST POP POP POP POP PUSH1 0x40 MLOAD RETURNDATASIZE PUSH1 0x20 DUP2 LT ISZERO PUSH2 0x129E JUMPI PUSH1 0x0 DUP1 REVERT JUMPDEST DUP2 ADD SWAP1 DUP1 DUP1 MLOAD SWAP1 PUSH1 0x20 ADD SWAP1 SWAP3 SWAP2 SWAP1 POP POP POP GT PUSH2 0x12B9 JUMPI PUSH1 0x0 DUP1 REVERT JUMPDEST PUSH1 0x0 PUSH1 0x8 PUSH1 0x0 DUP7 DUP5 DUP2 MLOAD DUP2 LT PUSH2 0x12CB JUMPI INVALID JUMPDEST PUSH1 0x20 MUL PUSH1 0x20 ADD ADD MLOAD PUSH20 0xFFFFFFFFFFFFFFFFFFFFFFFFFFFFFFFFFFFFFFFF AND PUSH20 0xFFFFFFFFFFFFFFFFFFFFFFFFFFFFFFFFFFFFFFFF AND DUP2 MSTORE PUSH1 0x20 ADD SWAP1 DUP2 MSTORE PUSH1 0x20 ADD PUSH1 0x0 KECCAK256 DUP5 DUP4 DUP2 MLOAD DUP2 LT PUSH2 0x1319 JUMPI INVALID JUMPDEST PUSH1 0x20 MUL PUSH1 0x20 ADD ADD MLOAD DUP2 SLOAD DUP2 LT PUSH2 0x132B JUMPI INVALID JUMPDEST SWAP1 PUSH1 0x0 MSTORE PUSH1 0x20 PUSH1 0x0 KECCAK256 SWAP1 PUSH1 0x5 MUL ADD PUSH1 0x4 ADD SWAP1 POP PUSH1 0x0 DUP1 SWAP1 POP JUMPDEST DUP2 DUP1 SLOAD SWAP1 POP DUP2 LT ISZERO PUSH2 0x13F6 JUMPI PUSH2 0x13E7 PUSH1 0x7 PUSH1 0x0 DUP9 DUP7 DUP2 MLOAD DUP2 LT PUSH2 0x1363 JUMPI INVALID JUMPDEST PUSH1 0x20 MUL PUSH1 0x20 ADD ADD MLOAD PUSH20 0xFFFFFFFFFFFFFFFFFFFFFFFFFFFFFFFFFFFFFFFF AND PUSH20 0xFFFFFFFFFFFFFFFFFFFFFFFFFFFFFFFFFFFFFFFF AND DUP2 MSTORE PUSH1 0x20 ADD SWAP1 DUP2 MSTORE PUSH1 0x20 ADD PUSH1 0x0 KECCAK256 DUP4 DUP4 DUP2 SLOAD DUP2 LT PUSH2 0x13B1 JUMPI INVALID JUMPDEST SWAP1 PUSH1 0x0 MSTORE PUSH1 0x20 PUSH1 0x0 KECCAK256 ADD SLOAD DUP2 SLOAD DUP2 LT PUSH2 0x13C6 JUMPI INVALID JUMPDEST SWAP1 PUSH1 0x0 MSTORE PUSH1 0x20 PUSH1 0x0 KECCAK256 SWAP1 PUSH1 0x9 MUL ADD PUSH1 0x0 ADD SLOAD DUP6 PUSH2 0x5AD2 SWAP1 SWAP2 SWAP1 PUSH4 0xFFFFFFFF AND JUMP JUMPDEST SWAP4 POP DUP1 DUP1 PUSH1 0x1 ADD SWAP2 POP POP PUSH2 0x1344 JUMP JUMPDEST POP PUSH2 0x148B PUSH1 0x8 PUSH1 0x0 DUP8 DUP6 DUP2 MLOAD DUP2 LT PUSH2 0x140A JUMPI INVALID JUMPDEST PUSH1 0x20 MUL PUSH1 0x20 ADD ADD MLOAD PUSH20 0xFFFFFFFFFFFFFFFFFFFFFFFFFFFFFFFFFFFFFFFF AND PUSH20 0xFFFFFFFFFFFFFFFFFFFFFFFFFFFFFFFFFFFFFFFF AND DUP2 MSTORE PUSH1 0x20 ADD SWAP1 DUP2 MSTORE PUSH1 0x20 ADD PUSH1 0x0 KECCAK256 DUP6 DUP5 DUP2 MLOAD DUP2 LT PUSH2 0x1458 JUMPI INVALID JUMPDEST PUSH1 0x20 MUL PUSH1 0x20 ADD ADD MLOAD DUP2 SLOAD DUP2 LT PUSH2 0x146A JUMPI INVALID JUMPDEST SWAP1 PUSH1 0x0 MSTORE PUSH1 0x20 PUSH1 0x0 KECCAK256 SWAP1 PUSH1 0x5 MUL ADD PUSH1 0x0 ADD SLOAD DUP5 PUSH2 0x5AF1 SWAP1 SWAP2 SWAP1 PUSH4 0xFFFFFFFF AND JUMP JUMPDEST SWAP3 POP POP DUP1 DUP1 PUSH1 0x1 ADD SWAP2 POP POP PUSH2 0x103E JUMP JUMPDEST POP PUSH1 0x2 PUSH1 0x0 SWAP1 SLOAD SWAP1 PUSH2 0x100 EXP SWAP1 DIV PUSH20 0xFFFFFFFFFFFFFFFFFFFFFFFFFFFFFFFFFFFFFFFF AND PUSH20 0xFFFFFFFFFFFFFFFFFFFFFFFFFFFFFFFFFFFFFFFF AND PUSH4 0xA9059CBB PUSH1 0x3 PUSH1 0x0 SWAP1 SLOAD SWAP1 PUSH2 0x100 EXP SWAP1 DIV PUSH20 0xFFFFFFFFFFFFFFFFFFFFFFFFFFFFFFFFFFFFFFFF AND DUP4 PUSH1 0x40 MLOAD DUP4 PUSH4 0xFFFFFFFF AND PUSH1 0xE0 SHL DUP2 MSTORE PUSH1 0x4 ADD DUP1 DUP4 PUSH20 0xFFFFFFFFFFFFFFFFFFFFFFFFFFFFFFFFFFFFFFFF AND PUSH20 0xFFFFFFFFFFFFFFFFFFFFFFFFFFFFFFFFFFFFFFFF AND DUP2 MSTORE PUSH1 0x20 ADD DUP3 DUP2 MSTORE PUSH1 0x20 ADD SWAP3 POP POP POP PUSH1 0x20 PUSH1 0x40 MLOAD DUP1 DUP4 SUB DUP2 PUSH1 0x0 DUP8 DUP1 EXTCODESIZE ISZERO DUP1 ISZERO PUSH2 0x1567 JUMPI PUSH1 0x0 DUP1 REVERT JUMPDEST POP GAS CALL ISZERO DUP1 ISZERO PUSH2 0x157B JUMPI RETURNDATASIZE PUSH1 0x0 DUP1 RETURNDATACOPY RETURNDATASIZE PUSH1 0x0 REVERT JUMPDEST POP POP POP POP PUSH1 0x40 MLOAD RETURNDATASIZE PUSH1 0x20 DUP2 LT ISZERO PUSH2 0x1591 JUMPI PUSH1 0x0 DUP1 REVERT JUMPDEST DUP2 ADD SWAP1 DUP1 DUP1 MLOAD SWAP1 PUSH1 0x20 ADD SWAP1 SWAP3 SWAP2 SWAP1 POP POP POP PUSH2 0x15AB JUMPI PUSH1 0x0 DUP1 REVERT JUMPDEST PUSH1 0x3 PUSH1 0x0 SWAP1 SLOAD SWAP1 PUSH2 0x100 EXP SWAP1 DIV PUSH20 0xFFFFFFFFFFFFFFFFFFFFFFFFFFFFFFFFFFFFFFFF AND PUSH20 0xFFFFFFFFFFFFFFFFFFFFFFFFFFFFFFFFFFFFFFFF AND PUSH4 0x41AAA9B6 DUP3 PUSH1 0x40 MLOAD DUP3 PUSH4 0xFFFFFFFF AND PUSH1 0xE0 SHL DUP2 MSTORE PUSH1 0x4 ADD DUP1 DUP3 DUP2 MSTORE PUSH1 0x20 ADD SWAP2 POP POP PUSH1 0x20 PUSH1 0x40 MLOAD DUP1 DUP4 SUB DUP2 PUSH1 0x0 DUP8 DUP1 EXTCODESIZE ISZERO DUP1 ISZERO PUSH2 0x1620 JUMPI PUSH1 0x0 DUP1 REVERT JUMPDEST POP GAS CALL ISZERO DUP1 ISZERO PUSH2 0x1634 JUMPI RETURNDATASIZE PUSH1 0x0 DUP1 RETURNDATACOPY RETURNDATASIZE PUSH1 0x0 REVERT JUMPDEST POP POP POP POP PUSH1 0x40 MLOAD RETURNDATASIZE PUSH1 0x20 DUP2 LT ISZERO PUSH2 0x164A JUMPI PUSH1 0x0 DUP1 REVERT JUMPDEST DUP2 ADD SWAP1 DUP1 DUP1 MLOAD SWAP1 PUSH1 0x20 ADD SWAP1 SWAP3 SWAP2 SWAP1 POP POP POP PUSH2 0x1664 JUMPI PUSH1 0x0 DUP1 REVERT JUMPDEST POP POP POP JUMP JUMPDEST PUSH1 0x7 PUSH1 0x20 MSTORE DUP2 PUSH1 0x0 MSTORE PUSH1 0x40 PUSH1 0x0 KECCAK256 DUP2 DUP2 SLOAD DUP2 LT PUSH2 0x1682 JUMPI INVALID JUMPDEST SWAP1 PUSH1 0x0 MSTORE PUSH1 0x20 PUSH1 0x0 KECCAK256 SWAP1 PUSH1 0x9 MUL ADD PUSH1 0x0 SWAP2 POP SWAP2 POP POP DUP1 PUSH1 0x0 ADD SLOAD SWAP1 DUP1 PUSH1 0x1 ADD SLOAD SWAP1 DUP1 PUSH1 0x2 ADD SLOAD SWAP1 DUP1 PUSH1 0x3 ADD SLOAD SWAP1 DUP1 PUSH1 0x4 ADD SLOAD SWAP1 DUP1 PUSH1 0x5 ADD SLOAD SWAP1 DUP1 PUSH1 0x6 ADD SLOAD SWAP1 POP DUP8 JUMP JUMPDEST PUSH1 0xB DUP2 DUP2 SLOAD DUP2 LT PUSH2 0x16D2 JUMPI INVALID JUMPDEST SWAP1 PUSH1 0x0 MSTORE PUSH1 0x20 PUSH1 0x0 KECCAK256 ADD PUSH1 0x0 SWAP2 POP SWAP1 POP SLOAD DUP2 JUMP JUMPDEST PUSH1 0x0 DUP1 PUSH1 0x0 DUP1 SWAP1 POP JUMPDEST DUP4 MLOAD DUP2 LT ISZERO PUSH2 0x18AC JUMPI PUSH2 0x1716 DUP7 DUP7 DUP7 DUP5 DUP2 MLOAD DUP2 LT PUSH2 0x1709 JUMPI INVALID JUMPDEST PUSH1 0x20 MUL PUSH1 0x20 ADD ADD MLOAD PUSH2 0x436C JUMP JUMPDEST DUP1 ISZERO PUSH2 0x17AC JUMPI POP PUSH1 0x7 PUSH1 0x0 DUP8 PUSH20 0xFFFFFFFFFFFFFFFFFFFFFFFFFFFFFFFFFFFFFFFF AND PUSH20 0xFFFFFFFFFFFFFFFFFFFFFFFFFFFFFFFFFFFFFFFF AND DUP2 MSTORE PUSH1 0x20 ADD SWAP1 DUP2 MSTORE PUSH1 0x20 ADD PUSH1 0x0 KECCAK256 DUP6 DUP2 SLOAD DUP2 LT PUSH2 0x1767 JUMPI INVALID JUMPDEST SWAP1 PUSH1 0x0 MSTORE PUSH1 0x20 PUSH1 0x0 KECCAK256 SWAP1 PUSH1 0x9 MUL ADD PUSH1 0x7 ADD PUSH1 0x0 DUP6 DUP4 DUP2 MLOAD DUP2 LT PUSH2 0x1786 JUMPI INVALID JUMPDEST PUSH1 0x20 MUL PUSH1 0x20 ADD ADD MLOAD DUP2 MSTORE PUSH1 0x20 ADD SWAP1 DUP2 MSTORE PUSH1 0x20 ADD PUSH1 0x0 KECCAK256 PUSH1 0x0 SWAP1 SLOAD SWAP1 PUSH2 0x100 EXP SWAP1 DIV PUSH1 0xFF AND ISZERO JUMPDEST PUSH2 0x17B5 JUMPI PUSH1 0x0 DUP1 REVERT JUMPDEST PUSH1 0x0 PUSH2 0x1887 PUSH1 0xA PUSH1 0x0 DUP8 DUP6 DUP2 MLOAD DUP2 LT PUSH2 0x17CA JUMPI INVALID JUMPDEST PUSH1 0x20 MUL PUSH1 0x20 ADD ADD MLOAD DUP2 MSTORE PUSH1 0x20 ADD SWAP1 DUP2 MSTORE PUSH1 0x20 ADD PUSH1 0x0 KECCAK256 SLOAD PUSH2 0x1879 PUSH1 0xB DUP9 DUP7 DUP2 MLOAD DUP2 LT PUSH2 0x17F2 JUMPI INVALID JUMPDEST PUSH1 0x20 MUL PUSH1 0x20 ADD ADD MLOAD DUP2 SLOAD DUP2 LT PUSH2 0x1804 JUMPI INVALID JUMPDEST SWAP1 PUSH1 0x0 MSTORE PUSH1 0x20 PUSH1 0x0 KECCAK256 ADD SLOAD PUSH1 0x7 PUSH1 0x0 DUP13 PUSH20 0xFFFFFFFFFFFFFFFFFFFFFFFFFFFFFFFFFFFFFFFF AND PUSH20 0xFFFFFFFFFFFFFFFFFFFFFFFFFFFFFFFFFFFFFFFF AND DUP2 MSTORE PUSH1 0x20 ADD SWAP1 DUP2 MSTORE PUSH1 0x20 ADD PUSH1 0x0 KECCAK256 DUP11 DUP2 SLOAD DUP2 LT PUSH2 0x1859 JUMPI INVALID JUMPDEST SWAP1 PUSH1 0x0 MSTORE PUSH1 0x20 PUSH1 0x0 KECCAK256 SWAP1 PUSH1 0x9 MUL ADD PUSH1 0x0 ADD SLOAD PUSH2 0x5A98 SWAP1 SWAP2 SWAP1 PUSH4 0xFFFFFFFF AND JUMP JUMPDEST PUSH2 0x5B11 SWAP1 SWAP2 SWAP1 PUSH4 0xFFFFFFFF AND JUMP JUMPDEST SWAP1 POP PUSH2 0x189C DUP2 DUP5 PUSH2 0x5AD2 SWAP1 SWAP2 SWAP1 PUSH4 0xFFFFFFFF AND JUMP JUMPDEST SWAP3 POP POP DUP1 DUP1 PUSH1 0x1 ADD SWAP2 POP POP PUSH2 0x16EF JUMP JUMPDEST POP PUSH2 0x194C PUSH1 0xF PUSH2 0x193E PUSH1 0x5 PUSH1 0x7 PUSH1 0x0 DUP11 PUSH20 0xFFFFFFFFFFFFFFFFFFFFFFFFFFFFFFFFFFFFFFFF AND PUSH20 0xFFFFFFFFFFFFFFFFFFFFFFFFFFFFFFFFFFFFFFFF AND DUP2 MSTORE PUSH1 0x20 ADD SWAP1 DUP2 MSTORE PUSH1 0x20 ADD PUSH1 0x0 KECCAK256 DUP9 DUP2 SLOAD DUP2 LT PUSH2 0x1901 JUMPI INVALID JUMPDEST SWAP1 PUSH1 0x0 MSTORE PUSH1 0x20 PUSH1 0x0 KECCAK256 SWAP1 PUSH1 0x9 MUL ADD PUSH1 0x3 ADD SLOAD DUP2 SLOAD DUP2 LT PUSH2 0x191D JUMPI INVALID JUMPDEST SWAP1 PUSH1 0x0 MSTORE PUSH1 0x20 PUSH1 0x0 KECCAK256 SWAP1 PUSH1 0x3 MUL ADD PUSH1 0x1 ADD SLOAD DUP5 PUSH2 0x5A98 SWAP1 SWAP2 SWAP1 PUSH4 0xFFFFFFFF AND JUMP JUMPDEST PUSH2 0x5B11 SWAP1 SWAP2 SWAP1 PUSH4 0xFFFFFFFF AND JUMP JUMPDEST SWAP2 POP POP SWAP4 SWAP3 POP POP POP JUMP JUMPDEST PUSH1 0x0 PUSH1 0x7 PUSH1 0x0 DUP6 PUSH20 0xFFFFFFFFFFFFFFFFFFFFFFFFFFFFFFFFFFFFFFFF AND PUSH20 0xFFFFFFFFFFFFFFFFFFFFFFFFFFFFFFFFFFFFFFFF AND DUP2 MSTORE PUSH1 0x20 ADD SWAP1 DUP2 MSTORE PUSH1 0x20 ADD PUSH1 0x0 KECCAK256 DUP4 DUP2 SLOAD DUP2 LT PUSH2 0x19A2 JUMPI INVALID JUMPDEST SWAP1 PUSH1 0x0 MSTORE PUSH1 0x20 PUSH1 0x0 KECCAK256 SWAP1 PUSH1 0x9 MUL ADD PUSH1 0x8 ADD PUSH1 0x0 DUP4 PUSH20 0xFFFFFFFFFFFFFFFFFFFFFFFFFFFFFFFFFFFFFFFF AND PUSH20 0xFFFFFFFFFFFFFFFFFFFFFFFFFFFFFFFFFFFFFFFF AND DUP2 MSTORE PUSH1 0x20 ADD SWAP1 DUP2 MSTORE PUSH1 0x20 ADD PUSH1 0x0 KECCAK256 SLOAD SWAP1 POP SWAP4 SWAP3 POP POP POP JUMP JUMPDEST PUSH1 0xA PUSH1 0x20 MSTORE DUP1 PUSH1 0x0 MSTORE PUSH1 0x40 PUSH1 0x0 KECCAK256 PUSH1 0x0 SWAP2 POP SWAP1 POP SLOAD DUP2 JUMP JUMPDEST PUSH1 0x1 PUSH1 0x7 PUSH1 0x0 CALLER PUSH20 0xFFFFFFFFFFFFFFFFFFFFFFFFFFFFFFFFFFFFFFFF AND PUSH20 0xFFFFFFFFFFFFFFFFFFFFFFFFFFFFFFFFFFFFFFFF AND DUP2 MSTORE PUSH1 0x20 ADD SWAP1 DUP2 MSTORE PUSH1 0x20 ADD PUSH1 0x0 KECCAK256 DUP4 DUP2 SLOAD DUP2 LT PUSH2 0x1A5E JUMPI INVALID JUMPDEST SWAP1 PUSH1 0x0 MSTORE PUSH1 0x20 PUSH1 0x0 KECCAK256 SWAP1 PUSH1 0x9 MUL ADD PUSH1 0x4 ADD SLOAD EQ PUSH2 0x1AE3 JUMPI PUSH1 0x40 MLOAD PUSH32 0x8C379A000000000000000000000000000000000000000000000000000000000 DUP2 MSTORE PUSH1 0x4 ADD DUP1 DUP1 PUSH1 0x20 ADD DUP3 DUP2 SUB DUP3 MSTORE PUSH1 0x15 DUP2 MSTORE PUSH1 0x20 ADD DUP1 PUSH32 0x7374616B696E672073686F756C64206163746976650000000000000000000000 DUP2 MSTORE POP PUSH1 0x20 ADD SWAP2 POP POP PUSH1 0x40 MLOAD DUP1 SWAP2 SUB SWAP1 REVERT JUMPDEST PUSH1 0x0 PUSH1 0x7 PUSH1 0x0 CALLER PUSH20 0xFFFFFFFFFFFFFFFFFFFFFFFFFFFFFFFFFFFFFFFF AND PUSH20 0xFFFFFFFFFFFFFFFFFFFFFFFFFFFFFFFFFFFFFFFF AND DUP2 MSTORE PUSH1 0x20 ADD SWAP1 DUP2 MSTORE PUSH1 0x20 ADD PUSH1 0x0 KECCAK256 DUP4 DUP2 SLOAD DUP2 LT PUSH2 0x1B2F JUMPI INVALID JUMPDEST SWAP1 PUSH1 0x0 MSTORE PUSH1 0x20 PUSH1 0x0 KECCAK256 SWAP1 PUSH1 0x9 MUL ADD PUSH1 0x8 ADD PUSH1 0x0 CALLER PUSH20 0xFFFFFFFFFFFFFFFFFFFFFFFFFFFFFFFFFFFFFFFF AND PUSH20 0xFFFFFFFFFFFFFFFFFFFFFFFFFFFFFFFFFFFFFFFF AND DUP2 MSTORE PUSH1 0x20 ADD SWAP1 DUP2 MSTORE PUSH1 0x20 ADD PUSH1 0x0 KECCAK256 SLOAD SWAP1 POP PUSH1 0x0 PUSH1 0x7 PUSH1 0x0 CALLER PUSH20 0xFFFFFFFFFFFFFFFFFFFFFFFFFFFFFFFFFFFFFFFF AND PUSH20 0xFFFFFFFFFFFFFFFFFFFFFFFFFFFFFFFFFFFFFFFF AND DUP2 MSTORE PUSH1 0x20 ADD SWAP1 DUP2 MSTORE PUSH1 0x20 ADD PUSH1 0x0 KECCAK256 DUP5 DUP2 SLOAD DUP2 LT PUSH2 0x1BCC JUMPI INVALID JUMPDEST SWAP1 PUSH1 0x0 MSTORE PUSH1 0x20 PUSH1 0x0 KECCAK256 SWAP1 PUSH1 0x9 MUL ADD PUSH1 0x8 ADD PUSH1 0x0 DUP5 PUSH20 0xFFFFFFFFFFFFFFFFFFFFFFFFFFFFFFFFFFFFFFFF AND PUSH20 0xFFFFFFFFFFFFFFFFFFFFFFFFFFFFFFFFFFFFFFFF AND DUP2 MSTORE PUSH1 0x20 ADD SWAP1 DUP2 MSTORE PUSH1 0x20 ADD PUSH1 0x0 KECCAK256 DUP2 SWAP1 SSTORE POP PUSH2 0x1C8C DUP2 PUSH1 0x7 PUSH1 0x0 CALLER PUSH20 0xFFFFFFFFFFFFFFFFFFFFFFFFFFFFFFFFFFFFFFFF AND PUSH20 0xFFFFFFFFFFFFFFFFFFFFFFFFFFFFFFFFFFFFFFFF AND DUP2 MSTORE PUSH1 0x20 ADD SWAP1 DUP2 MSTORE PUSH1 0x20 ADD PUSH1 0x0 KECCAK256 DUP6 DUP2 SLOAD DUP2 LT PUSH2 0x1C6C JUMPI INVALID JUMPDEST SWAP1 PUSH1 0x0 MSTORE PUSH1 0x20 PUSH1 0x0 KECCAK256 SWAP1 PUSH1 0x9 MUL ADD PUSH1 0x6 ADD SLOAD PUSH2 0x5AF1 SWAP1 SWAP2 SWAP1 PUSH4 0xFFFFFFFF AND JUMP JUMPDEST PUSH1 0x7 PUSH1 0x0 CALLER PUSH20 0xFFFFFFFFFFFFFFFFFFFFFFFFFFFFFFFFFFFFFFFF AND PUSH20 0xFFFFFFFFFFFFFFFFFFFFFFFFFFFFFFFFFFFFFFFF AND DUP2 MSTORE PUSH1 0x20 ADD SWAP1 DUP2 MSTORE PUSH1 0x20 ADD PUSH1 0x0 KECCAK256 DUP5 DUP2 SLOAD DUP2 LT PUSH2 0x1CD6 JUMPI INVALID JUMPDEST SWAP1 PUSH1 0x0 MSTORE PUSH1 0x20 PUSH1 0x0 KECCAK256 SWAP1 PUSH1 0x9 MUL ADD PUSH1 0x6 ADD DUP2 SWAP1 SSTORE POP POP POP POP JUMP JUMPDEST PUSH1 0x2 PUSH1 0x0 SWAP1 SLOAD SWAP1 PUSH2 0x100 EXP SWAP1 DIV PUSH20 0xFFFFFFFFFFFFFFFFFFFFFFFFFFFFFFFFFFFFFFFF AND PUSH20 0xFFFFFFFFFFFFFFFFFFFFFFFFFFFFFFFFFFFFFFFF AND PUSH4 0x23B872DD CALLER ADDRESS DUP5 PUSH1 0x40 MLOAD DUP5 PUSH4 0xFFFFFFFF AND PUSH1 0xE0 SHL DUP2 MSTORE PUSH1 0x4 ADD DUP1 DUP5 PUSH20 0xFFFFFFFFFFFFFFFFFFFFFFFFFFFFFFFFFFFFFFFF AND PUSH20 0xFFFFFFFFFFFFFFFFFFFFFFFFFFFFFFFFFFFFFFFF AND DUP2 MSTORE PUSH1 0x20 ADD DUP4 PUSH20 0xFFFFFFFFFFFFFFFFFFFFFFFFFFFFFFFFFFFFFFFF AND PUSH20 0xFFFFFFFFFFFFFFFFFFFFFFFFFFFFFFFFFFFFFFFF AND DUP2 MSTORE PUSH1 0x20 ADD DUP3 DUP2 MSTORE PUSH1 0x20 ADD SWAP4 POP POP POP POP PUSH1 0x20 PUSH1 0x40 MLOAD DUP1 DUP4 SUB DUP2 PUSH1 0x0 DUP8 DUP1 EXTCODESIZE ISZERO DUP1 ISZERO PUSH2 0x1DCD JUMPI PUSH1 0x0 DUP1 REVERT JUMPDEST POP GAS CALL ISZERO DUP1 ISZERO PUSH2 0x1DE1 JUMPI RETURNDATASIZE PUSH1 0x0 DUP1 RETURNDATACOPY RETURNDATASIZE PUSH1 0x0 REVERT JUMPDEST POP POP POP POP PUSH1 0x40 MLOAD RETURNDATASIZE PUSH1 0x20 DUP2 LT ISZERO PUSH2 0x1DF7 JUMPI PUSH1 0x0 DUP1 REVERT JUMPDEST DUP2 ADD SWAP1 DUP1 DUP1 MLOAD SWAP1 PUSH1 0x20 ADD SWAP1 SWAP3 SWAP2 SWAP1 POP POP POP PUSH2 0x1E11 JUMPI PUSH1 0x0 DUP1 REVERT JUMPDEST PUSH2 0x1E63 DUP2 PUSH1 0x9 PUSH1 0x0 CALLER PUSH20 0xFFFFFFFFFFFFFFFFFFFFFFFFFFFFFFFFFFFFFFFF AND PUSH20 0xFFFFFFFFFFFFFFFFFFFFFFFFFFFFFFFFFFFFFFFF AND DUP2 MSTORE PUSH1 0x20 ADD SWAP1 DUP2 MSTORE PUSH1 0x20 ADD PUSH1 0x0 KECCAK256 SLOAD PUSH2 0x5AD2 SWAP1 SWAP2 SWAP1 PUSH4 0xFFFFFFFF AND JUMP JUMPDEST PUSH1 0x9 PUSH1 0x0 CALLER PUSH20 0xFFFFFFFFFFFFFFFFFFFFFFFFFFFFFFFFFFFFFFFF AND PUSH20 0xFFFFFFFFFFFFFFFFFFFFFFFFFFFFFFFFFFFFFFFF AND DUP2 MSTORE PUSH1 0x20 ADD SWAP1 DUP2 MSTORE PUSH1 0x20 ADD PUSH1 0x0 KECCAK256 DUP2 SWAP1 SSTORE POP POP JUMP JUMPDEST PUSH1 0x5 DUP2 DUP2 SLOAD DUP2 LT PUSH2 0x1EB6 JUMPI INVALID JUMPDEST SWAP1 PUSH1 0x0 MSTORE PUSH1 0x20 PUSH1 0x0 KECCAK256 SWAP1 PUSH1 0x3 MUL ADD PUSH1 0x0 SWAP2 POP SWAP1 POP DUP1 PUSH1 0x0 ADD SLOAD SWAP1 DUP1 PUSH1 0x1 ADD SLOAD SWAP1 DUP1 PUSH1 0x2 ADD PUSH1 0x0 SWAP1 SLOAD SWAP1 PUSH2 0x100 EXP SWAP1 DIV PUSH1 0xFF AND SWAP1 DUP1 PUSH1 0x2 ADD PUSH1 0x1 SWAP1 SLOAD SWAP1 PUSH2 0x100 EXP SWAP1 DIV PUSH1 0xFF AND SWAP1 POP DUP5 JUMP JUMPDEST PUSH1 0x1 PUSH1 0x0 SWAP1 SLOAD SWAP1 PUSH2 0x100 EXP SWAP1 DIV PUSH20 0xFFFFFFFFFFFFFFFFFFFFFFFFFFFFFFFFFFFFFFFF AND PUSH20 0xFFFFFFFFFFFFFFFFFFFFFFFFFFFFFFFFFFFFFFFF AND CALLER PUSH20 0xFFFFFFFFFFFFFFFFFFFFFFFFFFFFFFFFFFFFFFFF AND EQ PUSH2 0x1F5A JUMPI PUSH1 0x0 DUP1 REVERT JUMPDEST PUSH1 0x5 PUSH1 0x40 MLOAD DUP1 PUSH1 0x80 ADD PUSH1 0x40 MSTORE DUP1 DUP6 DUP2 MSTORE PUSH1 0x20 ADD DUP5 DUP2 MSTORE PUSH1 0x20 ADD PUSH1 0x1 ISZERO ISZERO DUP2 MSTORE PUSH1 0x20 ADD DUP4 ISZERO ISZERO DUP2 MSTORE POP SWAP1 DUP1 PUSH1 0x1 DUP2 SLOAD ADD DUP1 DUP3 SSTORE DUP1 SWAP2 POP POP SWAP1 PUSH1 0x1 DUP3 SUB SWAP1 PUSH1 0x0 MSTORE PUSH1 0x20 PUSH1 0x0 KECCAK256 SWAP1 PUSH1 0x3 MUL ADD PUSH1 0x0 SWAP1 SWAP2 SWAP3 SWAP1 SWAP2 SWAP1 SWAP2 POP PUSH1 0x0 DUP3 ADD MLOAD DUP2 PUSH1 0x0 ADD SSTORE PUSH1 0x20 DUP3 ADD MLOAD DUP2 PUSH1 0x1 ADD SSTORE PUSH1 0x40 DUP3 ADD MLOAD DUP2 PUSH1 0x2 ADD PUSH1 0x0 PUSH2 0x100 EXP DUP2 SLOAD DUP2 PUSH1 0xFF MUL NOT AND SWAP1 DUP4 ISZERO ISZERO MUL OR SWAP1 SSTORE POP PUSH1 0x60 DUP3 ADD MLOAD DUP2 PUSH1 0x2 ADD PUSH1 0x1 PUSH2 0x100 EXP DUP2 SLOAD DUP2 PUSH1 0xFF MUL NOT AND SWAP1 DUP4 ISZERO ISZERO MUL OR SWAP1 SSTORE POP POP POP POP POP POP POP JUMP JUMPDEST PUSH1 0x9 PUSH1 0x20 MSTORE DUP1 PUSH1 0x0 MSTORE PUSH1 0x40 PUSH1 0x0 KECCAK256 PUSH1 0x0 SWAP2 POP SWAP1 POP SLOAD DUP2 JUMP JUMPDEST PUSH1 0x1 PUSH1 0x0 SWAP1 SLOAD SWAP1 PUSH2 0x100 EXP SWAP1 DIV PUSH20 0xFFFFFFFFFFFFFFFFFFFFFFFFFFFFFFFFFFFFFFFF AND PUSH20 0xFFFFFFFFFFFFFFFFFFFFFFFFFFFFFFFFFFFFFFFF AND CALLER PUSH20 0xFFFFFFFFFFFFFFFFFFFFFFFFFFFFFFFFFFFFFFFF AND EQ PUSH2 0x207B JUMPI PUSH1 0x0 DUP1 REVERT JUMPDEST PUSH1 0x6 PUSH1 0x40 MLOAD DUP1 PUSH1 0x40 ADD PUSH1 0x40 MSTORE DUP1 DUP5 DUP2 MSTORE PUSH1 0x20 ADD DUP4 DUP2 MSTORE POP SWAP1 DUP1 PUSH1 0x1 DUP2 SLOAD ADD DUP1 DUP3 SSTORE DUP1 SWAP2 POP POP SWAP1 PUSH1 0x1 DUP3 SUB SWAP1 PUSH1 0x0 MSTORE PUSH1 0x20 PUSH1 0x0 KECCAK256 SWAP1 PUSH1 0x2 MUL ADD PUSH1 0x0 SWAP1 SWAP2 SWAP3 SWAP1 SWAP2 SWAP1 SWAP2 POP PUSH1 0x0 DUP3 ADD MLOAD DUP2 PUSH1 0x0 ADD SSTORE PUSH1 0x20 DUP3 ADD MLOAD DUP2 PUSH1 0x1 ADD SSTORE POP POP POP POP POP JUMP JUMPDEST PUSH1 0x1 PUSH1 0x0 SWAP1 SLOAD SWAP1 PUSH2 0x100 EXP SWAP1 DIV PUSH20 0xFFFFFFFFFFFFFFFFFFFFFFFFFFFFFFFFFFFFFFFF AND PUSH20 0xFFFFFFFFFFFFFFFFFFFFFFFFFFFFFFFFFFFFFFFF AND CALLER PUSH20 0xFFFFFFFFFFFFFFFFFFFFFFFFFFFFFFFFFFFFFFFF AND EQ PUSH2 0x2132 JUMPI PUSH1 0x0 DUP1 REVERT JUMPDEST PUSH1 0x0 DUP1 SWAP1 POP JUMPDEST DUP3 MLOAD DUP2 LT ISZERO PUSH2 0x22C4 JUMPI PUSH2 0x21A6 DUP3 DUP3 DUP2 MLOAD DUP2 LT PUSH2 0x2150 JUMPI INVALID JUMPDEST PUSH1 0x20 MUL PUSH1 0x20 ADD ADD MLOAD PUSH1 0x9 PUSH1 0x0 CALLER PUSH20 0xFFFFFFFFFFFFFFFFFFFFFFFFFFFFFFFFFFFFFFFF AND PUSH20 0xFFFFFFFFFFFFFFFFFFFFFFFFFFFFFFFFFFFFFFFF AND DUP2 MSTORE PUSH1 0x20 ADD SWAP1 DUP2 MSTORE PUSH1 0x20 ADD PUSH1 0x0 KECCAK256 SLOAD PUSH2 0x5AF1 SWAP1 SWAP2 SWAP1 PUSH4 0xFFFFFFFF AND JUMP JUMPDEST PUSH1 0x9 PUSH1 0x0 CALLER PUSH20 0xFFFFFFFFFFFFFFFFFFFFFFFFFFFFFFFFFFFFFFFF AND PUSH20 0xFFFFFFFFFFFFFFFFFFFFFFFFFFFFFFFFFFFFFFFF AND DUP2 MSTORE PUSH1 0x20 ADD SWAP1 DUP2 MSTORE PUSH1 0x20 ADD PUSH1 0x0 KECCAK256 DUP2 SWAP1 SSTORE POP PUSH2 0x2261 DUP3 DUP3 DUP2 MLOAD DUP2 LT PUSH2 0x21F8 JUMPI INVALID JUMPDEST PUSH1 0x20 MUL PUSH1 0x20 ADD ADD MLOAD PUSH1 0x9 PUSH1 0x0 DUP7 DUP6 DUP2 MLOAD DUP2 LT PUSH2 0x2210 JUMPI INVALID JUMPDEST PUSH1 0x20 MUL PUSH1 0x20 ADD ADD MLOAD PUSH20 0xFFFFFFFFFFFFFFFFFFFFFFFFFFFFFFFFFFFFFFFF AND PUSH20 0xFFFFFFFFFFFFFFFFFFFFFFFFFFFFFFFFFFFFFFFF AND DUP2 MSTORE PUSH1 0x20 ADD SWAP1 DUP2 MSTORE PUSH1 0x20 ADD PUSH1 0x0 KECCAK256 SLOAD PUSH2 0x5AD2 SWAP1 SWAP2 SWAP1 PUSH4 0xFFFFFFFF AND JUMP JUMPDEST PUSH1 0x9 PUSH1 0x0 DUP6 DUP5 DUP2 MLOAD DUP2 LT PUSH2 0x2271 JUMPI INVALID JUMPDEST PUSH1 0x20 MUL PUSH1 0x20 ADD ADD MLOAD PUSH20 0xFFFFFFFFFFFFFFFFFFFFFFFFFFFFFFFFFFFFFFFF AND PUSH20 0xFFFFFFFFFFFFFFFFFFFFFFFFFFFFFFFFFFFFFFFF AND DUP2 MSTORE PUSH1 0x20 ADD SWAP1 DUP2 MSTORE PUSH1 0x20 ADD PUSH1 0x0 KECCAK256 DUP2 SWAP1 SSTORE POP DUP1 DUP1 PUSH1 0x1 ADD SWAP2 POP POP PUSH2 0x2138 JUMP JUMPDEST POP POP POP JUMP JUMPDEST PUSH1 0x1 PUSH1 0x0 SWAP1 SLOAD SWAP1 PUSH2 0x100 EXP SWAP1 DIV PUSH20 0xFFFFFFFFFFFFFFFFFFFFFFFFFFFFFFFFFFFFFFFF AND DUP2 JUMP JUMPDEST PUSH1 0x0 PUSH1 0x2 PUSH1 0x0 SWAP1 SLOAD SWAP1 PUSH2 0x100 EXP SWAP1 DIV PUSH20 0xFFFFFFFFFFFFFFFFFFFFFFFFFFFFFFFFFFFFFFFF AND PUSH20 0xFFFFFFFFFFFFFFFFFFFFFFFFFFFFFFFFFFFFFFFF AND PUSH4 0xB81F90F3 PUSH1 0x40 MLOAD DUP2 PUSH4 0xFFFFFFFF AND PUSH1 0xE0 SHL DUP2 MSTORE PUSH1 0x4 ADD PUSH1 0x20 PUSH1 0x40 MLOAD DUP1 DUP4 SUB DUP2 DUP7 DUP1 EXTCODESIZE ISZERO DUP1 ISZERO PUSH2 0x2359 JUMPI PUSH1 0x0 DUP1 REVERT JUMPDEST POP GAS STATICCALL ISZERO DUP1 ISZERO PUSH2 0x236D JUMPI RETURNDATASIZE PUSH1 0x0 DUP1 RETURNDATACOPY RETURNDATASIZE PUSH1 0x0 REVERT JUMPDEST POP POP POP POP PUSH1 0x40 MLOAD RETURNDATASIZE PUSH1 0x20 DUP2 LT ISZERO PUSH2 0x2383 JUMPI PUSH1 0x0 DUP1 REVERT JUMPDEST DUP2 ADD SWAP1 DUP1 DUP1 MLOAD SWAP1 PUSH1 0x20 ADD SWAP1 SWAP3 SWAP2 SWAP1 POP POP POP SWAP1 POP PUSH1 0x4 SLOAD PUSH1 0xC MUL PUSH1 0x4 SLOAD PUSH1 0x5 PUSH1 0x7 PUSH1 0x0 DUP8 PUSH20 0xFFFFFFFFFFFFFFFFFFFFFFFFFFFFFFFFFFFFFFFF AND PUSH20 0xFFFFFFFFFFFFFFFFFFFFFFFFFFFFFFFFFFFFFFFF AND DUP2 MSTORE PUSH1 0x20 ADD SWAP1 DUP2 MSTORE PUSH1 0x20 ADD PUSH1 0x0 KECCAK256 DUP6 DUP2 SLOAD DUP2 LT PUSH2 0x23EB JUMPI INVALID JUMPDEST SWAP1 PUSH1 0x0 MSTORE PUSH1 0x20 PUSH1 0x0 KECCAK256 SWAP1 PUSH1 0x9 MUL ADD PUSH1 0x3 ADD SLOAD DUP2 SLOAD DUP2 LT PUSH2 0x2407 JUMPI INVALID JUMPDEST SWAP1 PUSH1 0x0 MSTORE PUSH1 0x20 PUSH1 0x0 KECCAK256 SWAP1 PUSH1 0x3 MUL ADD PUSH1 0x0 ADD SLOAD MUL PUSH1 0x7 PUSH1 0x0 DUP7 PUSH20 0xFFFFFFFFFFFFFFFFFFFFFFFFFFFFFFFFFFFFFFFF AND PUSH20 0xFFFFFFFFFFFFFFFFFFFFFFFFFFFFFFFFFFFFFFFF AND DUP2 MSTORE PUSH1 0x20 ADD SWAP1 DUP2 MSTORE PUSH1 0x20 ADD PUSH1 0x0 KECCAK256 DUP5 DUP2 SLOAD DUP2 LT PUSH2 0x2464 JUMPI INVALID JUMPDEST SWAP1 PUSH1 0x0 MSTORE PUSH1 0x20 PUSH1 0x0 KECCAK256 SWAP1 PUSH1 0x9 MUL ADD PUSH1 0x1 ADD SLOAD ADD ADD DUP2 GT PUSH2 0x2483 JUMPI PUSH1 0x0 DUP1 REVERT JUMPDEST PUSH1 0x0 PUSH1 0x7 PUSH1 0x0 DUP6 PUSH20 0xFFFFFFFFFFFFFFFFFFFFFFFFFFFFFFFFFFFFFFFF AND PUSH20 0xFFFFFFFFFFFFFFFFFFFFFFFFFFFFFFFFFFFFFFFF AND DUP2 MSTORE PUSH1 0x20 ADD SWAP1 DUP2 MSTORE PUSH1 0x20 ADD PUSH1 0x0 KECCAK256 DUP4 DUP2 SLOAD DUP2 LT PUSH2 0x24CF JUMPI INVALID JUMPDEST SWAP1 PUSH1 0x0 MSTORE PUSH1 0x20 PUSH1 0x0 KECCAK256 SWAP1 PUSH1 0x9 MUL ADD PUSH1 0x8 ADD PUSH1 0x0 CALLER PUSH20 0xFFFFFFFFFFFFFFFFFFFFFFFFFFFFFFFFFFFFFFFF AND PUSH20 0xFFFFFFFFFFFFFFFFFFFFFFFFFFFFFFFFFFFFFFFF AND DUP2 MSTORE PUSH1 0x20 ADD SWAP1 DUP2 MSTORE PUSH1 0x20 ADD PUSH1 0x0 KECCAK256 SLOAD SWAP1 POP PUSH1 0x0 DUP2 GT PUSH2 0x252D JUMPI PUSH1 0x0 DUP1 REVERT JUMPDEST PUSH1 0x5 PUSH1 0x7 PUSH1 0x0 DUP7 PUSH20 0xFFFFFFFFFFFFFFFFFFFFFFFFFFFFFFFFFFFFFFFF AND PUSH20 0xFFFFFFFFFFFFFFFFFFFFFFFFFFFFFFFFFFFFFFFF AND DUP2 MSTORE PUSH1 0x20 ADD SWAP1 DUP2 MSTORE PUSH1 0x20 ADD PUSH1 0x0 KECCAK256 DUP5 DUP2 SLOAD DUP2 LT PUSH2 0x2579 JUMPI INVALID JUMPDEST SWAP1 PUSH1 0x0 MSTORE PUSH1 0x20 PUSH1 0x0 KECCAK256 SWAP1 PUSH1 0x9 MUL ADD PUSH1 0x4 ADD SLOAD EQ PUSH2 0x25F2 JUMPI PUSH1 0x5 PUSH1 0x7 PUSH1 0x0 DUP7 PUSH20 0xFFFFFFFFFFFFFFFFFFFFFFFFFFFFFFFFFFFFFFFF AND PUSH20 0xFFFFFFFFFFFFFFFFFFFFFFFFFFFFFFFFFFFFFFFF AND DUP2 MSTORE PUSH1 0x20 ADD SWAP1 DUP2 MSTORE PUSH1 0x20 ADD PUSH1 0x0 KECCAK256 DUP5 DUP2 SLOAD DUP2 LT PUSH2 0x25DC JUMPI INVALID JUMPDEST SWAP1 PUSH1 0x0 MSTORE PUSH1 0x20 PUSH1 0x0 KECCAK256 SWAP1 PUSH1 0x9 MUL ADD PUSH1 0x4 ADD DUP2 SWAP1 SSTORE POP JUMPDEST PUSH1 0x0 PUSH1 0x7 PUSH1 0x0 DUP7 PUSH20 0xFFFFFFFFFFFFFFFFFFFFFFFFFFFFFFFFFFFFFFFF AND PUSH20 0xFFFFFFFFFFFFFFFFFFFFFFFFFFFFFFFFFFFFFFFF AND DUP2 MSTORE PUSH1 0x20 ADD SWAP1 DUP2 MSTORE PUSH1 0x20 ADD PUSH1 0x0 KECCAK256 DUP5 DUP2 SLOAD DUP2 LT PUSH2 0x263E JUMPI INVALID JUMPDEST SWAP1 PUSH1 0x0 MSTORE PUSH1 0x20 PUSH1 0x0 KECCAK256 SWAP1 PUSH1 0x9 MUL ADD PUSH1 0x0 ADD SLOAD SWAP1 POP PUSH1 0x0 DUP1 PUSH1 0x5 PUSH1 0x7 PUSH1 0x0 DUP10 PUSH20 0xFFFFFFFFFFFFFFFFFFFFFFFFFFFFFFFFFFFFFFFF AND PUSH20 0xFFFFFFFFFFFFFFFFFFFFFFFFFFFFFFFFFFFFFFFF AND DUP2 MSTORE PUSH1 0x20 ADD SWAP1 DUP2 MSTORE PUSH1 0x20 ADD PUSH1 0x0 KECCAK256 DUP8 DUP2 SLOAD DUP2 LT PUSH2 0x26A1 JUMPI INVALID JUMPDEST SWAP1 PUSH1 0x0 MSTORE PUSH1 0x20 PUSH1 0x0 KECCAK256 SWAP1 PUSH1 0x9 MUL ADD PUSH1 0x3 ADD SLOAD DUP2 SLOAD DUP2 LT PUSH2 0x26BD JUMPI INVALID JUMPDEST SWAP1 PUSH1 0x0 MSTORE PUSH1 0x20 PUSH1 0x0 KECCAK256 SWAP1 PUSH1 0x3 MUL ADD PUSH1 0x0 ADD SLOAD PUSH1 0x7 PUSH1 0x0 DUP10 PUSH20 0xFFFFFFFFFFFFFFFFFFFFFFFFFFFFFFFFFFFFFFFF AND PUSH20 0xFFFFFFFFFFFFFFFFFFFFFFFFFFFFFFFFFFFFFFFF AND DUP2 MSTORE PUSH1 0x20 ADD SWAP1 DUP2 MSTORE PUSH1 0x20 ADD PUSH1 0x0 KECCAK256 DUP8 DUP2 SLOAD DUP2 LT PUSH2 0x2719 JUMPI INVALID JUMPDEST SWAP1 PUSH1 0x0 MSTORE PUSH1 0x20 PUSH1 0x0 KECCAK256 SWAP1 PUSH1 0x9 MUL ADD PUSH1 0x2 ADD SLOAD ADD SWAP1 POP PUSH1 0x0 PUSH1 0x7 PUSH1 0x0 DUP10 PUSH20 0xFFFFFFFFFFFFFFFFFFFFFFFFFFFFFFFFFFFFFFFF AND PUSH20 0xFFFFFFFFFFFFFFFFFFFFFFFFFFFFFFFFFFFFFFFF AND DUP2 MSTORE PUSH1 0x20 ADD SWAP1 DUP2 MSTORE PUSH1 0x20 ADD PUSH1 0x0 KECCAK256 DUP8 DUP2 SLOAD DUP2 LT PUSH2 0x277A JUMPI INVALID JUMPDEST SWAP1 PUSH1 0x0 MSTORE PUSH1 0x20 PUSH1 0x0 KECCAK256 SWAP1 PUSH1 0x9 MUL ADD PUSH1 0x2 ADD SLOAD SWAP1 POP JUMPDEST DUP2 DUP2 LT ISZERO PUSH2 0x29C7 JUMPI PUSH1 0x7 PUSH1 0x0 DUP10 PUSH20 0xFFFFFFFFFFFFFFFFFFFFFFFFFFFFFFFFFFFFFFFF AND PUSH20 0xFFFFFFFFFFFFFFFFFFFFFFFFFFFFFFFFFFFFFFFF AND DUP2 MSTORE PUSH1 0x20 ADD SWAP1 DUP2 MSTORE PUSH1 0x20 ADD PUSH1 0x0 KECCAK256 DUP8 DUP2 SLOAD DUP2 LT PUSH2 0x27E1 JUMPI INVALID JUMPDEST SWAP1 PUSH1 0x0 MSTORE PUSH1 0x20 PUSH1 0x0 KECCAK256 SWAP1 PUSH1 0x9 MUL ADD PUSH1 0x7 ADD PUSH1 0x0 DUP3 DUP2 MSTORE PUSH1 0x20 ADD SWAP1 DUP2 MSTORE PUSH1 0x20 ADD PUSH1 0x0 KECCAK256 PUSH1 0x0 SWAP1 SLOAD SWAP1 PUSH2 0x100 EXP SWAP1 DIV PUSH1 0xFF AND ISZERO PUSH2 0x29BA JUMPI PUSH1 0x0 PUSH2 0x2912 PUSH1 0xF PUSH2 0x2904 PUSH1 0x5 PUSH1 0x7 PUSH1 0x0 DUP15 PUSH20 0xFFFFFFFFFFFFFFFFFFFFFFFFFFFFFFFFFFFFFFFF AND PUSH20 0xFFFFFFFFFFFFFFFFFFFFFFFFFFFFFFFFFFFFFFFF AND DUP2 MSTORE PUSH1 0x20 ADD SWAP1 DUP2 MSTORE PUSH1 0x20 ADD PUSH1 0x0 KECCAK256 DUP13 DUP2 SLOAD DUP2 LT PUSH2 0x286C JUMPI INVALID JUMPDEST SWAP1 PUSH1 0x0 MSTORE PUSH1 0x20 PUSH1 0x0 KECCAK256 SWAP1 PUSH1 0x9 MUL ADD PUSH1 0x3 ADD SLOAD DUP2 SLOAD DUP2 LT PUSH2 0x2888 JUMPI INVALID JUMPDEST SWAP1 PUSH1 0x0 MSTORE PUSH1 0x20 PUSH1 0x0 KECCAK256 SWAP1 PUSH1 0x3 MUL ADD PUSH1 0x1 ADD SLOAD PUSH1 0x7 PUSH1 0x0 DUP15 PUSH20 0xFFFFFFFFFFFFFFFFFFFFFFFFFFFFFFFFFFFFFFFF AND PUSH20 0xFFFFFFFFFFFFFFFFFFFFFFFFFFFFFFFFFFFFFFFF AND DUP2 MSTORE PUSH1 0x20 ADD SWAP1 DUP2 MSTORE PUSH1 0x20 ADD PUSH1 0x0 KECCAK256 DUP13 DUP2 SLOAD DUP2 LT PUSH2 0x28E4 JUMPI INVALID JUMPDEST SWAP1 PUSH1 0x0 MSTORE PUSH1 0x20 PUSH1 0x0 KECCAK256 SWAP1 PUSH1 0x9 MUL ADD PUSH1 0x0 ADD SLOAD PUSH2 0x5A98 SWAP1 SWAP2 SWAP1 PUSH4 0xFFFFFFFF AND JUMP JUMPDEST PUSH2 0x5B11 SWAP1 SWAP2 SWAP1 PUSH4 0xFFFFFFFF AND JUMP JUMPDEST SWAP1 POP PUSH1 0x0 PUSH2 0x2965 PUSH1 0xA PUSH1 0x0 DUP6 DUP2 MSTORE PUSH1 0x20 ADD SWAP1 DUP2 MSTORE PUSH1 0x20 ADD PUSH1 0x0 KECCAK256 SLOAD PUSH2 0x2957 PUSH1 0xB DUP7 DUP2 SLOAD DUP2 LT PUSH2 0x293D JUMPI INVALID JUMPDEST SWAP1 PUSH1 0x0 MSTORE PUSH1 0x20 PUSH1 0x0 KECCAK256 ADD SLOAD DUP6 PUSH2 0x5A98 SWAP1 SWAP2 SWAP1 PUSH4 0xFFFFFFFF AND JUMP JUMPDEST PUSH2 0x5B11 SWAP1 SWAP2 SWAP1 PUSH4 0xFFFFFFFF AND JUMP JUMPDEST SWAP1 POP PUSH2 0x298D PUSH2 0x297E PUSH1 0x2 DUP4 PUSH2 0x5B11 SWAP1 SWAP2 SWAP1 PUSH4 0xFFFFFFFF AND JUMP JUMPDEST DUP8 PUSH2 0x5AD2 SWAP1 SWAP2 SWAP1 PUSH4 0xFFFFFFFF AND JUMP JUMPDEST SWAP6 POP PUSH2 0x29B5 PUSH2 0x29A6 PUSH1 0x2 DUP4 PUSH2 0x5B11 SWAP1 SWAP2 SWAP1 PUSH4 0xFFFFFFFF AND JUMP JUMPDEST DUP7 PUSH2 0x5AD2 SWAP1 SWAP2 SWAP1 PUSH4 0xFFFFFFFF AND JUMP JUMPDEST SWAP5 POP POP POP JUMPDEST DUP1 DUP1 PUSH1 0x1 ADD SWAP2 POP POP PUSH2 0x278F JUMP JUMPDEST POP PUSH1 0x0 PUSH1 0x7 PUSH1 0x0 DUP10 PUSH20 0xFFFFFFFFFFFFFFFFFFFFFFFFFFFFFFFFFFFFFFFF AND PUSH20 0xFFFFFFFFFFFFFFFFFFFFFFFFFFFFFFFFFFFFFFFF AND DUP2 MSTORE PUSH1 0x20 ADD SWAP1 DUP2 MSTORE PUSH1 0x20 ADD PUSH1 0x0 KECCAK256 DUP8 DUP2 SLOAD DUP2 LT PUSH2 0x2A14 JUMPI INVALID JUMPDEST SWAP1 PUSH1 0x0 MSTORE PUSH1 0x20 PUSH1 0x0 KECCAK256 SWAP1 PUSH1 0x9 MUL ADD PUSH1 0x8 ADD PUSH1 0x0 CALLER PUSH20 0xFFFFFFFFFFFFFFFFFFFFFFFFFFFFFFFFFFFFFFFF AND PUSH20 0xFFFFFFFFFFFFFFFFFFFFFFFFFFFFFFFFFFFFFFFF AND DUP2 MSTORE PUSH1 0x20 ADD SWAP1 DUP2 MSTORE PUSH1 0x20 ADD PUSH1 0x0 KECCAK256 DUP2 SWAP1 SSTORE POP PUSH1 0x0 PUSH2 0x2AE8 PUSH1 0x7 PUSH1 0x0 DUP11 PUSH20 0xFFFFFFFFFFFFFFFFFFFFFFFFFFFFFFFFFFFFFFFF AND PUSH20 0xFFFFFFFFFFFFFFFFFFFFFFFFFFFFFFFFFFFFFFFF AND DUP2 MSTORE PUSH1 0x20 ADD SWAP1 DUP2 MSTORE PUSH1 0x20 ADD PUSH1 0x0 KECCAK256 DUP9 DUP2 SLOAD DUP2 LT PUSH2 0x2AB5 JUMPI INVALID JUMPDEST SWAP1 PUSH1 0x0 MSTORE PUSH1 0x20 PUSH1 0x0 KECCAK256 SWAP1 PUSH1 0x9 MUL ADD PUSH1 0x6 ADD SLOAD PUSH2 0x2ADA DUP8 DUP8 PUSH2 0x5A98 SWAP1 SWAP2 SWAP1 PUSH4 0xFFFFFFFF AND JUMP JUMPDEST PUSH2 0x5B11 SWAP1 SWAP2 SWAP1 PUSH4 0xFFFFFFFF AND JUMP JUMPDEST SWAP1 POP PUSH1 0x2 PUSH1 0x0 SWAP1 SLOAD SWAP1 PUSH2 0x100 EXP SWAP1 DIV PUSH20 0xFFFFFFFFFFFFFFFFFFFFFFFFFFFFFFFFFFFFFFFF AND PUSH20 0xFFFFFFFFFFFFFFFFFFFFFFFFFFFFFFFFFFFFFFFF AND PUSH4 0xA9059CBB CALLER DUP4 PUSH1 0x40 MLOAD DUP4 PUSH4 0xFFFFFFFF AND PUSH1 0xE0 SHL DUP2 MSTORE PUSH1 0x4 ADD DUP1 DUP4 PUSH20 0xFFFFFFFFFFFFFFFFFFFFFFFFFFFFFFFFFFFFFFFF AND PUSH20 0xFFFFFFFFFFFFFFFFFFFFFFFFFFFFFFFFFFFFFFFF AND DUP2 MSTORE PUSH1 0x20 ADD DUP3 DUP2 MSTORE PUSH1 0x20 ADD SWAP3 POP POP POP PUSH1 0x20 PUSH1 0x40 MLOAD DUP1 DUP4 SUB DUP2 PUSH1 0x0 DUP8 DUP1 EXTCODESIZE ISZERO DUP1 ISZERO PUSH2 0x2B93 JUMPI PUSH1 0x0 DUP1 REVERT JUMPDEST POP GAS CALL ISZERO DUP1 ISZERO PUSH2 0x2BA7 JUMPI RETURNDATASIZE PUSH1 0x0 DUP1 RETURNDATACOPY RETURNDATASIZE PUSH1 0x0 REVERT JUMPDEST POP POP POP POP PUSH1 0x40 MLOAD RETURNDATASIZE PUSH1 0x20 DUP2 LT ISZERO PUSH2 0x2BBD JUMPI PUSH1 0x0 DUP1 REVERT JUMPDEST DUP2 ADD SWAP1 DUP1 DUP1 MLOAD SWAP1 PUSH1 0x20 ADD SWAP1 SWAP3 SWAP2 SWAP1 POP POP POP POP PUSH1 0x0 PUSH2 0x2C51 PUSH1 0x7 PUSH1 0x0 DUP12 PUSH20 0xFFFFFFFFFFFFFFFFFFFFFFFFFFFFFFFFFFFFFFFF AND PUSH20 0xFFFFFFFFFFFFFFFFFFFFFFFFFFFFFFFFFFFFFFFF AND DUP2 MSTORE PUSH1 0x20 ADD SWAP1 DUP2 MSTORE PUSH1 0x20 ADD PUSH1 0x0 KECCAK256 DUP10 DUP2 SLOAD DUP2 LT PUSH2 0x2C1E JUMPI INVALID JUMPDEST SWAP1 PUSH1 0x0 MSTORE PUSH1 0x20 PUSH1 0x0 KECCAK256 SWAP1 PUSH1 0x9 MUL ADD PUSH1 0x6 ADD SLOAD PUSH2 0x2C43 DUP9 DUP8 PUSH2 0x5A98 SWAP1 SWAP2 SWAP1 PUSH4 0xFFFFFFFF AND JUMP JUMPDEST PUSH2 0x5B11 SWAP1 SWAP2 SWAP1 PUSH4 0xFFFFFFFF AND JUMP JUMPDEST SWAP1 POP PUSH2 0x2CA5 DUP2 PUSH1 0x9 PUSH1 0x0 CALLER PUSH20 0xFFFFFFFFFFFFFFFFFFFFFFFFFFFFFFFFFFFFFFFF AND PUSH20 0xFFFFFFFFFFFFFFFFFFFFFFFFFFFFFFFFFFFFFFFF AND DUP2 MSTORE PUSH1 0x20 ADD SWAP1 DUP2 MSTORE PUSH1 0x20 ADD PUSH1 0x0 KECCAK256 SLOAD PUSH2 0x5AD2 SWAP1 SWAP2 SWAP1 PUSH4 0xFFFFFFFF AND JUMP JUMPDEST PUSH1 0x9 PUSH1 0x0 CALLER PUSH20 0xFFFFFFFFFFFFFFFFFFFFFFFFFFFFFFFFFFFFFFFF AND PUSH20 0xFFFFFFFFFFFFFFFFFFFFFFFFFFFFFFFFFFFFFFFF AND DUP2 MSTORE PUSH1 0x20 ADD SWAP1 DUP2 MSTORE PUSH1 0x20 ADD PUSH1 0x0 KECCAK256 DUP2 SWAP1 SSTORE POP CALLER PUSH20 0xFFFFFFFFFFFFFFFFFFFFFFFFFFFFFFFFFFFFFFFF AND DUP9 DUP11 PUSH20 0xFFFFFFFFFFFFFFFFFFFFFFFFFFFFFFFFFFFFFFFF AND PUSH32 0xA54CEC59552C7F022EED79EDE59F759697AA5787F43B11D61F17BFC5ADAFFB65 DUP6 DUP6 PUSH1 0x40 MLOAD DUP1 DUP4 DUP2 MSTORE PUSH1 0x20 ADD DUP3 DUP2 MSTORE PUSH1 0x20 ADD SWAP3 POP POP POP PUSH1 0x40 MLOAD DUP1 SWAP2 SUB SWAP1 LOG4 POP POP POP POP POP POP POP POP POP JUMP JUMPDEST PUSH1 0x8 PUSH1 0x20 MSTORE DUP2 PUSH1 0x0 MSTORE PUSH1 0x40 PUSH1 0x0 KECCAK256 DUP2 DUP2 SLOAD DUP2 LT PUSH2 0x2D7A JUMPI INVALID JUMPDEST SWAP1 PUSH1 0x0 MSTORE PUSH1 0x20 PUSH1 0x0 KECCAK256 SWAP1 PUSH1 0x5 MUL ADD PUSH1 0x0 SWAP2 POP SWAP2 POP POP DUP1 PUSH1 0x0 ADD SLOAD SWAP1 DUP1 PUSH1 0x1 ADD SLOAD SWAP1 DUP1 PUSH1 0x2 ADD SLOAD SWAP1 DUP1 PUSH1 0x3 ADD SLOAD SWAP1 POP DUP5 JUMP JUMPDEST PUSH1 0x0 DUP1 PUSH1 0x0 SWAP1 POP JUMPDEST DUP3 MLOAD DUP2 LT ISZERO PUSH2 0x3008 JUMPI PUSH2 0x2DDA CALLER DUP6 DUP6 DUP5 DUP2 MLOAD DUP2 LT PUSH2 0x2DCD JUMPI INVALID JUMPDEST PUSH1 0x20 MUL PUSH1 0x20 ADD ADD MLOAD PUSH2 0x436C JUMP JUMPDEST DUP1 ISZERO PUSH2 0x2E70 JUMPI POP PUSH1 0x7 PUSH1 0x0 CALLER PUSH20 0xFFFFFFFFFFFFFFFFFFFFFFFFFFFFFFFFFFFFFFFF AND PUSH20 0xFFFFFFFFFFFFFFFFFFFFFFFFFFFFFFFFFFFFFFFF AND DUP2 MSTORE PUSH1 0x20 ADD SWAP1 DUP2 MSTORE PUSH1 0x20 ADD PUSH1 0x0 KECCAK256 DUP5 DUP2 SLOAD DUP2 LT PUSH2 0x2E2B JUMPI INVALID JUMPDEST SWAP1 PUSH1 0x0 MSTORE PUSH1 0x20 PUSH1 0x0 KECCAK256 SWAP1 PUSH1 0x9 MUL ADD PUSH1 0x7 ADD PUSH1 0x0 DUP5 DUP4 DUP2 MLOAD DUP2 LT PUSH2 0x2E4A JUMPI INVALID JUMPDEST PUSH1 0x20 MUL PUSH1 0x20 ADD ADD MLOAD DUP2 MSTORE PUSH1 0x20 ADD SWAP1 DUP2 MSTORE PUSH1 0x20 ADD PUSH1 0x0 KECCAK256 PUSH1 0x0 SWAP1 SLOAD SWAP1 PUSH2 0x100 EXP SWAP1 DIV PUSH1 0xFF AND ISZERO JUMPDEST PUSH2 0x2E79 JUMPI PUSH1 0x0 DUP1 REVERT JUMPDEST PUSH1 0x0 PUSH2 0x2F4B PUSH1 0xA PUSH1 0x0 DUP7 DUP6 DUP2 MLOAD DUP2 LT PUSH2 0x2E8E JUMPI INVALID JUMPDEST PUSH1 0x20 MUL PUSH1 0x20 ADD ADD MLOAD DUP2 MSTORE PUSH1 0x20 ADD SWAP1 DUP2 MSTORE PUSH1 0x20 ADD PUSH1 0x0 KECCAK256 SLOAD PUSH2 0x2F3D PUSH1 0xB DUP8 DUP7 DUP2 MLOAD DUP2 LT PUSH2 0x2EB6 JUMPI INVALID JUMPDEST PUSH1 0x20 MUL PUSH1 0x20 ADD ADD MLOAD DUP2 SLOAD DUP2 LT PUSH2 0x2EC8 JUMPI INVALID JUMPDEST SWAP1 PUSH1 0x0 MSTORE PUSH1 0x20 PUSH1 0x0 KECCAK256 ADD SLOAD PUSH1 0x7 PUSH1 0x0 CALLER PUSH20 0xFFFFFFFFFFFFFFFFFFFFFFFFFFFFFFFFFFFFFFFF AND PUSH20 0xFFFFFFFFFFFFFFFFFFFFFFFFFFFFFFFFFFFFFFFF AND DUP2 MSTORE PUSH1 0x20 ADD SWAP1 DUP2 MSTORE PUSH1 0x20 ADD PUSH1 0x0 KECCAK256 DUP10 DUP2 SLOAD DUP2 LT PUSH2 0x2F1D JUMPI INVALID JUMPDEST SWAP1 PUSH1 0x0 MSTORE PUSH1 0x20 PUSH1 0x0 KECCAK256 SWAP1 PUSH1 0x9 MUL ADD PUSH1 0x0 ADD SLOAD PUSH2 0x5A98 SWAP1 SWAP2 SWAP1 PUSH4 0xFFFFFFFF AND JUMP JUMPDEST PUSH2 0x5B11 SWAP1 SWAP2 SWAP1 PUSH4 0xFFFFFFFF AND JUMP JUMPDEST SWAP1 POP PUSH2 0x2F60 DUP2 DUP5 PUSH2 0x5AD2 SWAP1 SWAP2 SWAP1 PUSH4 0xFFFFFFFF AND JUMP JUMPDEST SWAP3 POP PUSH1 0x1 PUSH1 0x7 PUSH1 0x0 CALLER PUSH20 0xFFFFFFFFFFFFFFFFFFFFFFFFFFFFFFFFFFFFFFFF AND PUSH20 0xFFFFFFFFFFFFFFFFFFFFFFFFFFFFFFFFFFFFFFFF AND DUP2 MSTORE PUSH1 0x20 ADD SWAP1 DUP2 MSTORE PUSH1 0x20 ADD PUSH1 0x0 KECCAK256 DUP7 DUP2 SLOAD DUP2 LT PUSH2 0x2FAE JUMPI INVALID JUMPDEST SWAP1 PUSH1 0x0 MSTORE PUSH1 0x20 PUSH1 0x0 KECCAK256 SWAP1 PUSH1 0x9 MUL ADD PUSH1 0x7 ADD PUSH1 0x0 DUP7 DUP6 DUP2 MLOAD DUP2 LT PUSH2 0x2FCD JUMPI INVALID JUMPDEST PUSH1 0x20 MUL PUSH1 0x20 ADD ADD MLOAD DUP2 MSTORE PUSH1 0x20 ADD SWAP1 DUP2 MSTORE PUSH1 0x20 ADD PUSH1 0x0 KECCAK256 PUSH1 0x0 PUSH2 0x100 EXP DUP2 SLOAD DUP2 PUSH1 0xFF MUL NOT AND SWAP1 DUP4 ISZERO ISZERO MUL OR SWAP1 SSTORE POP POP DUP1 DUP1 PUSH1 0x1 ADD SWAP2 POP POP PUSH2 0x2DB3 JUMP JUMPDEST POP PUSH1 0x0 PUSH2 0x30BD PUSH1 0xF PUSH2 0x30AF PUSH2 0x30A0 PUSH1 0x5 PUSH1 0x7 PUSH1 0x0 CALLER PUSH20 0xFFFFFFFFFFFFFFFFFFFFFFFFFFFFFFFFFFFFFFFF AND PUSH20 0xFFFFFFFFFFFFFFFFFFFFFFFFFFFFFFFFFFFFFFFF AND DUP2 MSTORE PUSH1 0x20 ADD SWAP1 DUP2 MSTORE PUSH1 0x20 ADD PUSH1 0x0 KECCAK256 DUP10 DUP2 SLOAD DUP2 LT PUSH2 0x3062 JUMPI INVALID JUMPDEST SWAP1 PUSH1 0x0 MSTORE PUSH1 0x20 PUSH1 0x0 KECCAK256 SWAP1 PUSH1 0x9 MUL ADD PUSH1 0x3 ADD SLOAD DUP2 SLOAD DUP2 LT PUSH2 0x307E JUMPI INVALID JUMPDEST SWAP1 PUSH1 0x0 MSTORE PUSH1 0x20 PUSH1 0x0 KECCAK256 SWAP1 PUSH1 0x3 MUL ADD PUSH1 0x1 ADD SLOAD PUSH1 0xF PUSH2 0x5AF1 SWAP1 SWAP2 SWAP1 PUSH4 0xFFFFFFFF AND JUMP JUMPDEST DUP6 PUSH2 0x5A98 SWAP1 SWAP2 SWAP1 PUSH4 0xFFFFFFFF AND JUMP JUMPDEST PUSH2 0x5B11 SWAP1 SWAP2 SWAP1 PUSH4 0xFFFFFFFF AND JUMP JUMPDEST SWAP1 POP PUSH1 0x2 PUSH1 0x0 SWAP1 SLOAD SWAP1 PUSH2 0x100 EXP SWAP1 DIV PUSH20 0xFFFFFFFFFFFFFFFFFFFFFFFFFFFFFFFFFFFFFFFF AND PUSH20 0xFFFFFFFFFFFFFFFFFFFFFFFFFFFFFFFFFFFFFFFF AND PUSH4 0xA9059CBB PUSH1 0x3 PUSH1 0x0 SWAP1 SLOAD SWAP1 PUSH2 0x100 EXP SWAP1 DIV PUSH20 0xFFFFFFFFFFFFFFFFFFFFFFFFFFFFFFFFFFFFFFFF AND DUP4 PUSH1 0x40 MLOAD DUP4 PUSH4 0xFFFFFFFF AND PUSH1 0xE0 SHL DUP2 MSTORE PUSH1 0x4 ADD DUP1 DUP4 PUSH20 0xFFFFFFFFFFFFFFFFFFFFFFFFFFFFFFFFFFFFFFFF AND PUSH20 0xFFFFFFFFFFFFFFFFFFFFFFFFFFFFFFFFFFFFFFFF AND DUP2 MSTORE PUSH1 0x20 ADD DUP3 DUP2 MSTORE PUSH1 0x20 ADD SWAP3 POP POP POP PUSH1 0x20 PUSH1 0x40 MLOAD DUP1 DUP4 SUB DUP2 PUSH1 0x0 DUP8 DUP1 EXTCODESIZE ISZERO DUP1 ISZERO PUSH2 0x318A JUMPI PUSH1 0x0 DUP1 REVERT JUMPDEST POP GAS CALL ISZERO DUP1 ISZERO PUSH2 0x319E JUMPI RETURNDATASIZE PUSH1 0x0 DUP1 RETURNDATACOPY RETURNDATASIZE PUSH1 0x0 REVERT JUMPDEST POP POP POP POP PUSH1 0x40 MLOAD RETURNDATASIZE PUSH1 0x20 DUP2 LT ISZERO PUSH2 0x31B4 JUMPI PUSH1 0x0 DUP1 REVERT JUMPDEST DUP2 ADD SWAP1 DUP1 DUP1 MLOAD SWAP1 PUSH1 0x20 ADD SWAP1 SWAP3 SWAP2 SWAP1 POP POP POP PUSH2 0x31CE JUMPI PUSH1 0x0 DUP1 REVERT JUMPDEST PUSH1 0x3 PUSH1 0x0 SWAP1 SLOAD SWAP1 PUSH2 0x100 EXP SWAP1 DIV PUSH20 0xFFFFFFFFFFFFFFFFFFFFFFFFFFFFFFFFFFFFFFFF AND PUSH20 0xFFFFFFFFFFFFFFFFFFFFFFFFFFFFFFFFFFFFFFFF AND PUSH4 0x382E2AAB DUP3 PUSH1 0x40 MLOAD DUP3 PUSH4 0xFFFFFFFF AND PUSH1 0xE0 SHL DUP2 MSTORE PUSH1 0x4 ADD DUP1 DUP3 DUP2 MSTORE PUSH1 0x20 ADD SWAP2 POP POP PUSH1 0x20 PUSH1 0x40 MLOAD DUP1 DUP4 SUB DUP2 PUSH1 0x0 DUP8 DUP1 EXTCODESIZE ISZERO DUP1 ISZERO PUSH2 0x3243 JUMPI PUSH1 0x0 DUP1 REVERT JUMPDEST POP GAS CALL ISZERO DUP1 ISZERO PUSH2 0x3257 JUMPI RETURNDATASIZE PUSH1 0x0 DUP1 RETURNDATACOPY RETURNDATASIZE PUSH1 0x0 REVERT JUMPDEST POP POP POP POP PUSH1 0x40 MLOAD RETURNDATASIZE PUSH1 0x20 DUP2 LT ISZERO PUSH2 0x326D JUMPI PUSH1 0x0 DUP1 REVERT JUMPDEST DUP2 ADD SWAP1 DUP1 DUP1 MLOAD SWAP1 PUSH1 0x20 ADD SWAP1 SWAP3 SWAP2 SWAP1 POP POP POP PUSH2 0x3287 JUMPI PUSH1 0x0 DUP1 REVERT JUMPDEST PUSH2 0x329A DUP2 DUP4 PUSH2 0x5AF1 SWAP1 SWAP2 SWAP1 PUSH4 0xFFFFFFFF AND JUMP JUMPDEST SWAP2 POP PUSH1 0x0 PUSH2 0x32B2 PUSH1 0x2 DUP5 PUSH2 0x5B11 SWAP1 SWAP2 SWAP1 PUSH4 0xFFFFFFFF AND JUMP JUMPDEST SWAP1 POP PUSH1 0x2 PUSH1 0x0 SWAP1 SLOAD SWAP1 PUSH2 0x100 EXP SWAP1 DIV PUSH20 0xFFFFFFFFFFFFFFFFFFFFFFFFFFFFFFFFFFFFFFFF AND PUSH20 0xFFFFFFFFFFFFFFFFFFFFFFFFFFFFFFFFFFFFFFFF AND PUSH4 0xA9059CBB CALLER DUP4 PUSH1 0x40 MLOAD DUP4 PUSH4 0xFFFFFFFF AND PUSH1 0xE0 SHL DUP2 MSTORE PUSH1 0x4 ADD DUP1 DUP4 PUSH20 0xFFFFFFFFFFFFFFFFFFFFFFFFFFFFFFFFFFFFFFFF AND PUSH20 0xFFFFFFFFFFFFFFFFFFFFFFFFFFFFFFFFFFFFFFFF AND DUP2 MSTORE PUSH1 0x20 ADD DUP3 DUP2 MSTORE PUSH1 0x20 ADD SWAP3 POP POP POP PUSH1 0x20 PUSH1 0x40 MLOAD DUP1 DUP4 SUB DUP2 PUSH1 0x0 DUP8 DUP1 EXTCODESIZE ISZERO DUP1 ISZERO PUSH2 0x335D JUMPI PUSH1 0x0 DUP1 REVERT JUMPDEST POP GAS CALL ISZERO DUP1 ISZERO PUSH2 0x3371 JUMPI RETURNDATASIZE PUSH1 0x0 DUP1 RETURNDATACOPY RETURNDATASIZE PUSH1 0x0 REVERT JUMPDEST POP POP POP POP PUSH1 0x40 MLOAD RETURNDATASIZE PUSH1 0x20 DUP2 LT ISZERO PUSH2 0x3387 JUMPI PUSH1 0x0 DUP1 REVERT JUMPDEST DUP2 ADD SWAP1 DUP1 DUP1 MLOAD SWAP1 PUSH1 0x20 ADD SWAP1 SWAP3 SWAP2 SWAP1 POP POP POP PUSH2 0x33A1 JUMPI PUSH1 0x0 DUP1 REVERT JUMPDEST PUSH2 0x33F3 DUP2 PUSH1 0x9 PUSH1 0x0 CALLER PUSH20 0xFFFFFFFFFFFFFFFFFFFFFFFFFFFFFFFFFFFFFFFF AND PUSH20 0xFFFFFFFFFFFFFFFFFFFFFFFFFFFFFFFFFFFFFFFF AND DUP2 MSTORE PUSH1 0x20 ADD SWAP1 DUP2 MSTORE PUSH1 0x20 ADD PUSH1 0x0 KECCAK256 SLOAD PUSH2 0x5AD2 SWAP1 SWAP2 SWAP1 PUSH4 0xFFFFFFFF AND JUMP JUMPDEST PUSH1 0x9 PUSH1 0x0 CALLER PUSH20 0xFFFFFFFFFFFFFFFFFFFFFFFFFFFFFFFFFFFFFFFF AND PUSH20 0xFFFFFFFFFFFFFFFFFFFFFFFFFFFFFFFFFFFFFFFF AND DUP2 MSTORE PUSH1 0x20 ADD SWAP1 DUP2 MSTORE PUSH1 0x20 ADD PUSH1 0x0 KECCAK256 DUP2 SWAP1 SSTORE POP POP POP POP POP POP JUMP JUMPDEST PUSH1 0x1 PUSH1 0x7 PUSH1 0x0 CALLER PUSH20 0xFFFFFFFFFFFFFFFFFFFFFFFFFFFFFFFFFFFFFFFF AND PUSH20 0xFFFFFFFFFFFFFFFFFFFFFFFFFFFFFFFFFFFFFFFF AND DUP2 MSTORE PUSH1 0x20 ADD SWAP1 DUP2 MSTORE PUSH1 0x20 ADD PUSH1 0x0 KECCAK256 DUP5 DUP2 SLOAD DUP2 LT PUSH2 0x3489 JUMPI INVALID JUMPDEST SWAP1 PUSH1 0x0 MSTORE PUSH1 0x20 PUSH1 0x0 KECCAK256 SWAP1 PUSH1 0x9 MUL ADD PUSH1 0x4 ADD SLOAD EQ PUSH2 0x34A5 JUMPI PUSH1 0x0 DUP1 REVERT JUMPDEST PUSH1 0x0 PUSH1 0x7 PUSH1 0x0 CALLER PUSH20 0xFFFFFFFFFFFFFFFFFFFFFFFFFFFFFFFFFFFFFFFF AND PUSH20 0xFFFFFFFFFFFFFFFFFFFFFFFFFFFFFFFFFFFFFFFF AND DUP2 MSTORE PUSH1 0x20 ADD SWAP1 DUP2 MSTORE PUSH1 0x20 ADD PUSH1 0x0 KECCAK256 DUP5 DUP2 SLOAD DUP2 LT PUSH2 0x34F1 JUMPI INVALID JUMPDEST SWAP1 PUSH1 0x0 MSTORE PUSH1 0x20 PUSH1 0x0 KECCAK256 SWAP1 PUSH1 0x9 MUL ADD PUSH1 0x8 ADD PUSH1 0x0 DUP5 PUSH20 0xFFFFFFFFFFFFFFFFFFFFFFFFFFFFFFFFFFFFFFFF AND PUSH20 0xFFFFFFFFFFFFFFFFFFFFFFFFFFFFFFFFFFFFFFFF AND DUP2 MSTORE PUSH1 0x20 ADD SWAP1 DUP2 MSTORE PUSH1 0x20 ADD PUSH1 0x0 KECCAK256 SLOAD EQ PUSH2 0x354A JUMPI PUSH1 0x0 DUP1 REVERT JUMPDEST PUSH2 0x35B8 DUP2 PUSH1 0x7 PUSH1 0x0 CALLER PUSH20 0xFFFFFFFFFFFFFFFFFFFFFFFFFFFFFFFFFFFFFFFF AND PUSH20 0xFFFFFFFFFFFFFFFFFFFFFFFFFFFFFFFFFFFFFFFF AND DUP2 MSTORE PUSH1 0x20 ADD SWAP1 DUP2 MSTORE PUSH1 0x20 ADD PUSH1 0x0 KECCAK256 DUP6 DUP2 SLOAD DUP2 LT PUSH2 0x3598 JUMPI INVALID JUMPDEST SWAP1 PUSH1 0x0 MSTORE PUSH1 0x20 PUSH1 0x0 KECCAK256 SWAP1 PUSH1 0x9 MUL ADD PUSH1 0x6 ADD SLOAD PUSH2 0x5AD2 SWAP1 SWAP2 SWAP1 PUSH4 0xFFFFFFFF AND JUMP JUMPDEST PUSH1 0x7 PUSH1 0x0 CALLER PUSH20 0xFFFFFFFFFFFFFFFFFFFFFFFFFFFFFFFFFFFFFFFF AND PUSH20 0xFFFFFFFFFFFFFFFFFFFFFFFFFFFFFFFFFFFFFFFF AND DUP2 MSTORE PUSH1 0x20 ADD SWAP1 DUP2 MSTORE PUSH1 0x20 ADD PUSH1 0x0 KECCAK256 DUP5 DUP2 SLOAD DUP2 LT PUSH2 0x3602 JUMPI INVALID JUMPDEST SWAP1 PUSH1 0x0 MSTORE PUSH1 0x20 PUSH1 0x0 KECCAK256 SWAP1 PUSH1 0x9 MUL ADD PUSH1 0x6 ADD DUP2 SWAP1 SSTORE POP DUP1 PUSH1 0x7 PUSH1 0x0 CALLER PUSH20 0xFFFFFFFFFFFFFFFFFFFFFFFFFFFFFFFFFFFFFFFF AND PUSH20 0xFFFFFFFFFFFFFFFFFFFFFFFFFFFFFFFFFFFFFFFF AND DUP2 MSTORE PUSH1 0x20 ADD SWAP1 DUP2 MSTORE PUSH1 0x20 ADD PUSH1 0x0 KECCAK256 DUP5 DUP2 SLOAD DUP2 LT PUSH2 0x3662 JUMPI INVALID JUMPDEST SWAP1 PUSH1 0x0 MSTORE PUSH1 0x20 PUSH1 0x0 KECCAK256 SWAP1 PUSH1 0x9 MUL ADD PUSH1 0x8 ADD PUSH1 0x0 DUP5 PUSH20 0xFFFFFFFFFFFFFFFFFFFFFFFFFFFFFFFFFFFFFFFF AND PUSH20 0xFFFFFFFFFFFFFFFFFFFFFFFFFFFFFFFFFFFFFFFF AND DUP2 MSTORE PUSH1 0x20 ADD SWAP1 DUP2 MSTORE PUSH1 0x20 ADD PUSH1 0x0 KECCAK256 DUP2 SWAP1 SSTORE POP DUP2 PUSH20 0xFFFFFFFFFFFFFFFFFFFFFFFFFFFFFFFFFFFFFFFF AND DUP4 CALLER PUSH20 0xFFFFFFFFFFFFFFFFFFFFFFFFFFFFFFFFFFFFFFFF AND PUSH32 0xC4E7FB51A42CE926BB404F8024C3C91A40AF0654D9A96ADA67C329B9C9BEE4A2 PUSH1 0x40 MLOAD PUSH1 0x40 MLOAD DUP1 SWAP2 SUB SWAP1 LOG4 POP POP POP JUMP JUMPDEST PUSH1 0x0 PUSH1 0x7 PUSH1 0x0 DUP4 PUSH20 0xFFFFFFFFFFFFFFFFFFFFFFFFFFFFFFFFFFFFFFFF AND PUSH20 0xFFFFFFFFFFFFFFFFFFFFFFFFFFFFFFFFFFFFFFFF AND DUP2 MSTORE PUSH1 0x20 ADD SWAP1 DUP2 MSTORE PUSH1 0x20 ADD PUSH1 0x0 KECCAK256 DUP1 SLOAD SWAP1 POP SWAP1 POP SWAP2 SWAP1 POP JUMP JUMPDEST PUSH1 0x0 DUP1 PUSH2 0x376B PUSH2 0x4A92 JUMP JUMPDEST SWAP1 POP PUSH1 0x0 DUP1 PUSH1 0x0 SWAP1 POP JUMPDEST DUP5 MLOAD DUP2 LT ISZERO PUSH2 0x38D4 JUMPI PUSH2 0x379C DUP7 DUP7 DUP4 DUP2 MLOAD DUP2 LT PUSH2 0x378E JUMPI INVALID JUMPDEST PUSH1 0x20 MUL PUSH1 0x20 ADD ADD MLOAD DUP6 PUSH2 0x436C JUMP JUMPDEST DUP1 ISZERO PUSH2 0x383E JUMPI POP PUSH1 0x5 PUSH1 0x7 PUSH1 0x0 DUP9 PUSH20 0xFFFFFFFFFFFFFFFFFFFFFFFFFFFFFFFFFFFFFFFF AND PUSH20 0xFFFFFFFFFFFFFFFFFFFFFFFFFFFFFFFFFFFFFFFF AND DUP2 MSTORE PUSH1 0x20 ADD SWAP1 DUP2 MSTORE PUSH1 0x20 ADD PUSH1 0x0 KECCAK256 DUP7 DUP4 DUP2 MLOAD DUP2 LT PUSH2 0x37F0 JUMPI INVALID JUMPDEST PUSH1 0x20 MUL PUSH1 0x20 ADD ADD MLOAD DUP2 SLOAD DUP2 LT PUSH2 0x3802 JUMPI INVALID JUMPDEST SWAP1 PUSH1 0x0 MSTORE PUSH1 0x20 PUSH1 0x0 KECCAK256 SWAP1 PUSH1 0x9 MUL ADD PUSH1 0x3 ADD SLOAD DUP2 SLOAD DUP2 LT PUSH2 0x381E JUMPI INVALID JUMPDEST SWAP1 PUSH1 0x0 MSTORE PUSH1 0x20 PUSH1 0x0 KECCAK256 SWAP1 PUSH1 0x3 MUL ADD PUSH1 0x2 ADD PUSH1 0x1 SWAP1 SLOAD SWAP1 PUSH2 0x100 EXP SWAP1 DIV PUSH1 0xFF AND JUMPDEST ISZERO PUSH2 0x38C7 JUMPI PUSH2 0x38C4 PUSH1 0x7 PUSH1 0x0 DUP9 PUSH20 0xFFFFFFFFFFFFFFFFFFFFFFFFFFFFFFFFFFFFFFFF AND PUSH20 0xFFFFFFFFFFFFFFFFFFFFFFFFFFFFFFFFFFFFFFFF AND DUP2 MSTORE PUSH1 0x20 ADD SWAP1 DUP2 MSTORE PUSH1 0x20 ADD PUSH1 0x0 KECCAK256 DUP7 DUP4 DUP2 MLOAD DUP2 LT PUSH2 0x3891 JUMPI INVALID JUMPDEST PUSH1 0x20 MUL PUSH1 0x20 ADD ADD MLOAD DUP2 SLOAD DUP2 LT PUSH2 0x38A3 JUMPI INVALID JUMPDEST SWAP1 PUSH1 0x0 MSTORE PUSH1 0x20 PUSH1 0x0 KECCAK256 SWAP1 PUSH1 0x9 MUL ADD PUSH1 0x0 ADD SLOAD DUP4 PUSH2 0x5AD2 SWAP1 SWAP2 SWAP1 PUSH4 0xFFFFFFFF AND JUMP JUMPDEST SWAP2 POP JUMPDEST DUP1 DUP1 PUSH1 0x1 ADD SWAP2 POP POP PUSH2 0x3775 JUMP JUMPDEST POP PUSH2 0x38E9 PUSH1 0x2 DUP3 PUSH2 0x5B11 SWAP1 SWAP2 SWAP1 PUSH4 0xFFFFFFFF AND JUMP JUMPDEST SWAP3 POP POP POP SWAP3 SWAP2 POP POP JUMP JUMPDEST PUSH1 0x1 PUSH1 0x0 SWAP1 SLOAD SWAP1 PUSH2 0x100 EXP SWAP1 DIV PUSH20 0xFFFFFFFFFFFFFFFFFFFFFFFFFFFFFFFFFFFFFFFF AND PUSH20 0xFFFFFFFFFFFFFFFFFFFFFFFFFFFFFFFFFFFFFFFF AND CALLER PUSH20 0xFFFFFFFFFFFFFFFFFFFFFFFFFFFFFFFFFFFFFFFF AND EQ PUSH2 0x394D JUMPI PUSH1 0x0 DUP1 REVERT JUMPDEST PUSH1 0x5 DUP2 DUP2 SLOAD DUP2 LT PUSH2 0x395A JUMPI INVALID JUMPDEST SWAP1 PUSH1 0x0 MSTORE PUSH1 0x20 PUSH1 0x0 KECCAK256 SWAP1 PUSH1 0x3 MUL ADD PUSH1 0x2 ADD PUSH1 0x0 SWAP1 SLOAD SWAP1 PUSH2 0x100 EXP SWAP1 DIV PUSH1 0xFF AND ISZERO PUSH1 0x5 DUP3 DUP2 SLOAD DUP2 LT PUSH2 0x3987 JUMPI INVALID JUMPDEST SWAP1 PUSH1 0x0 MSTORE PUSH1 0x20 PUSH1 0x0 KECCAK256 SWAP1 PUSH1 0x3 MUL ADD PUSH1 0x2 ADD PUSH1 0x0 PUSH2 0x100 EXP DUP2 SLOAD DUP2 PUSH1 0xFF MUL NOT AND SWAP1 DUP4 ISZERO ISZERO MUL OR SWAP1 SSTORE POP POP JUMP JUMPDEST PUSH1 0x6 DUP2 DUP2 SLOAD DUP2 LT PUSH2 0x39BF JUMPI INVALID JUMPDEST SWAP1 PUSH1 0x0 MSTORE PUSH1 0x20 PUSH1 0x0 KECCAK256 SWAP1 PUSH1 0x2 MUL ADD PUSH1 0x0 SWAP2 POP SWAP1 POP DUP1 PUSH1 0x0 ADD SLOAD SWAP1 DUP1 PUSH1 0x1 ADD SLOAD SWAP1 POP DUP3 JUMP JUMPDEST PUSH1 0x0 PUSH2 0x39ED PUSH2 0x4A92 JUMP JUMPDEST SWAP1 POP PUSH1 0x0 DUP1 PUSH1 0x0 SWAP1 POP JUMPDEST DUP4 MLOAD DUP2 LT ISZERO PUSH2 0x3E01 JUMPI PUSH2 0x3A1E CALLER DUP6 DUP4 DUP2 MLOAD DUP2 LT PUSH2 0x3A10 JUMPI INVALID JUMPDEST PUSH1 0x20 MUL PUSH1 0x20 ADD ADD MLOAD DUP6 PUSH2 0x436C JUMP JUMPDEST DUP1 ISZERO PUSH2 0x3AC0 JUMPI POP PUSH1 0x5 PUSH1 0x7 PUSH1 0x0 CALLER PUSH20 0xFFFFFFFFFFFFFFFFFFFFFFFFFFFFFFFFFFFFFFFF AND PUSH20 0xFFFFFFFFFFFFFFFFFFFFFFFFFFFFFFFFFFFFFFFF AND DUP2 MSTORE PUSH1 0x20 ADD SWAP1 DUP2 MSTORE PUSH1 0x20 ADD PUSH1 0x0 KECCAK256 DUP6 DUP4 DUP2 MLOAD DUP2 LT PUSH2 0x3A72 JUMPI INVALID JUMPDEST PUSH1 0x20 MUL PUSH1 0x20 ADD ADD MLOAD DUP2 SLOAD DUP2 LT PUSH2 0x3A84 JUMPI INVALID JUMPDEST SWAP1 PUSH1 0x0 MSTORE PUSH1 0x20 PUSH1 0x0 KECCAK256 SWAP1 PUSH1 0x9 MUL ADD PUSH1 0x3 ADD SLOAD DUP2 SLOAD DUP2 LT PUSH2 0x3AA0 JUMPI INVALID JUMPDEST SWAP1 PUSH1 0x0 MSTORE PUSH1 0x20 PUSH1 0x0 KECCAK256 SWAP1 PUSH1 0x3 MUL ADD PUSH1 0x2 ADD PUSH1 0x1 SWAP1 SLOAD SWAP1 PUSH2 0x100 EXP SWAP1 DIV PUSH1 0xFF AND JUMPDEST ISZERO PUSH2 0x3DF4 JUMPI PUSH2 0x3B46 PUSH1 0x7 PUSH1 0x0 CALLER PUSH20 0xFFFFFFFFFFFFFFFFFFFFFFFFFFFFFFFFFFFFFFFF AND PUSH20 0xFFFFFFFFFFFFFFFFFFFFFFFFFFFFFFFFFFFFFFFF AND DUP2 MSTORE PUSH1 0x20 ADD SWAP1 DUP2 MSTORE PUSH1 0x20 ADD PUSH1 0x0 KECCAK256 DUP6 DUP4 DUP2 MLOAD DUP2 LT PUSH2 0x3B13 JUMPI INVALID JUMPDEST PUSH1 0x20 MUL PUSH1 0x20 ADD ADD MLOAD DUP2 SLOAD DUP2 LT PUSH2 0x3B25 JUMPI INVALID JUMPDEST SWAP1 PUSH1 0x0 MSTORE PUSH1 0x20 PUSH1 0x0 KECCAK256 SWAP1 PUSH1 0x9 MUL ADD PUSH1 0x0 ADD SLOAD DUP4 PUSH2 0x5AD2 SWAP1 SWAP2 SWAP1 PUSH4 0xFFFFFFFF AND JUMP JUMPDEST SWAP2 POP PUSH1 0x0 PUSH1 0x7 PUSH1 0x0 CALLER PUSH20 0xFFFFFFFFFFFFFFFFFFFFFFFFFFFFFFFFFFFFFFFF AND PUSH20 0xFFFFFFFFFFFFFFFFFFFFFFFFFFFFFFFFFFFFFFFF AND DUP2 MSTORE PUSH1 0x20 ADD SWAP1 DUP2 MSTORE PUSH1 0x20 ADD PUSH1 0x0 KECCAK256 DUP6 DUP4 DUP2 MLOAD DUP2 LT PUSH2 0x3B95 JUMPI INVALID JUMPDEST PUSH1 0x20 MUL PUSH1 0x20 ADD ADD MLOAD DUP2 SLOAD DUP2 LT PUSH2 0x3BA7 JUMPI INVALID JUMPDEST SWAP1 PUSH1 0x0 MSTORE PUSH1 0x20 PUSH1 0x0 KECCAK256 SWAP1 PUSH1 0x9 MUL ADD PUSH1 0x2 ADD SLOAD SWAP1 POP PUSH1 0x0 PUSH1 0x5 PUSH1 0x7 PUSH1 0x0 CALLER PUSH20 0xFFFFFFFFFFFFFFFFFFFFFFFFFFFFFFFFFFFFFFFF AND PUSH20 0xFFFFFFFFFFFFFFFFFFFFFFFFFFFFFFFFFFFFFFFF AND DUP2 MSTORE PUSH1 0x20 ADD SWAP1 DUP2 MSTORE PUSH1 0x20 ADD PUSH1 0x0 KECCAK256 DUP8 DUP6 DUP2 MLOAD DUP2 LT PUSH2 0x3C0A JUMPI INVALID JUMPDEST PUSH1 0x20 MUL PUSH1 0x20 ADD ADD MLOAD DUP2 SLOAD DUP2 LT PUSH2 0x3C1C JUMPI INVALID JUMPDEST SWAP1 PUSH1 0x0 MSTORE PUSH1 0x20 PUSH1 0x0 KECCAK256 SWAP1 PUSH1 0x9 MUL ADD PUSH1 0x3 ADD SLOAD DUP2 SLOAD DUP2 LT PUSH2 0x3C38 JUMPI INVALID JUMPDEST SWAP1 PUSH1 0x0 MSTORE PUSH1 0x20 PUSH1 0x0 KECCAK256 SWAP1 PUSH1 0x3 MUL ADD PUSH1 0x0 ADD SLOAD DUP3 ADD SWAP1 POP PUSH1 0x0 PUSH1 0x1 DUP7 ADD SWAP1 POP JUMPDEST DUP2 DUP2 GT PUSH2 0x3CA8 JUMPI PUSH2 0x3C84 DUP6 PUSH1 0xA PUSH1 0x0 DUP5 DUP2 MSTORE PUSH1 0x20 ADD SWAP1 DUP2 MSTORE PUSH1 0x20 ADD PUSH1 0x0 KECCAK256 SLOAD PUSH2 0x5AF1 SWAP1 SWAP2 SWAP1 PUSH4 0xFFFFFFFF AND JUMP JUMPDEST PUSH1 0xA PUSH1 0x0 DUP4 DUP2 MSTORE PUSH1 0x20 ADD SWAP1 DUP2 MSTORE PUSH1 0x20 ADD PUSH1 0x0 KECCAK256 DUP2 SWAP1 SSTORE POP DUP1 DUP1 PUSH1 0x1 ADD SWAP2 POP POP PUSH2 0x3C57 JUMP JUMPDEST POP PUSH1 0x0 PUSH1 0x1 SWAP1 POP JUMPDEST PUSH1 0x6 DUP10 DUP2 SLOAD DUP2 LT PUSH2 0x3CBD JUMPI INVALID JUMPDEST SWAP1 PUSH1 0x0 MSTORE PUSH1 0x20 PUSH1 0x0 KECCAK256 SWAP1 PUSH1 0x2 MUL ADD PUSH1 0x0 ADD SLOAD DUP2 GT PUSH2 0x3DF0 JUMPI PUSH1 0x1 PUSH1 0x7 PUSH1 0x0 CALLER PUSH20 0xFFFFFFFFFFFFFFFFFFFFFFFFFFFFFFFFFFFFFFFF AND PUSH20 0xFFFFFFFFFFFFFFFFFFFFFFFFFFFFFFFFFFFFFFFF AND DUP2 MSTORE PUSH1 0x20 ADD SWAP1 DUP2 MSTORE PUSH1 0x20 ADD PUSH1 0x0 KECCAK256 DUP9 DUP7 DUP2 MLOAD DUP2 LT PUSH2 0x3D22 JUMPI INVALID JUMPDEST PUSH1 0x20 MUL PUSH1 0x20 ADD ADD MLOAD DUP2 SLOAD DUP2 LT PUSH2 0x3D34 JUMPI INVALID JUMPDEST SWAP1 PUSH1 0x0 MSTORE PUSH1 0x20 PUSH1 0x0 KECCAK256 SWAP1 PUSH1 0x9 MUL ADD PUSH1 0x7 ADD PUSH1 0x0 DUP4 DUP10 ADD DUP2 MSTORE PUSH1 0x20 ADD SWAP1 DUP2 MSTORE PUSH1 0x20 ADD PUSH1 0x0 KECCAK256 PUSH1 0x0 PUSH2 0x100 EXP DUP2 SLOAD DUP2 PUSH1 0xFF MUL NOT AND SWAP1 DUP4 ISZERO ISZERO MUL OR SWAP1 SSTORE POP PUSH1 0x2 PUSH1 0x7 PUSH1 0x0 CALLER PUSH20 0xFFFFFFFFFFFFFFFFFFFFFFFFFFFFFFFFFFFFFFFF AND PUSH20 0xFFFFFFFFFFFFFFFFFFFFFFFFFFFFFFFFFFFFFFFF AND DUP2 MSTORE PUSH1 0x20 ADD SWAP1 DUP2 MSTORE PUSH1 0x20 ADD PUSH1 0x0 KECCAK256 DUP9 DUP7 DUP2 MLOAD DUP2 LT PUSH2 0x3DBC JUMPI INVALID JUMPDEST PUSH1 0x20 MUL PUSH1 0x20 ADD ADD MLOAD DUP2 SLOAD DUP2 LT PUSH2 0x3DCE JUMPI INVALID JUMPDEST SWAP1 PUSH1 0x0 MSTORE PUSH1 0x20 PUSH1 0x0 KECCAK256 SWAP1 PUSH1 0x9 MUL ADD PUSH1 0x4 ADD DUP2 SWAP1 SSTORE POP DUP1 DUP1 PUSH1 0x1 ADD SWAP2 POP POP PUSH2 0x3CB0 JUMP JUMPDEST POP POP POP JUMPDEST DUP1 DUP1 PUSH1 0x1 ADD SWAP2 POP POP PUSH2 0x39F7 JUMP JUMPDEST POP PUSH1 0x0 PUSH2 0x3E18 PUSH1 0x2 DUP4 PUSH2 0x5B11 SWAP1 SWAP2 SWAP1 PUSH4 0xFFFFFFFF AND JUMP JUMPDEST SWAP1 POP DUP1 DUP6 GT ISZERO PUSH2 0x3E2E JUMPI PUSH1 0x0 PUSH2 0x3E2D JUMPI PUSH1 0x0 DUP1 REVERT JUMPDEST JUMPDEST PUSH1 0x0 PUSH2 0x3E74 PUSH1 0x64 PUSH2 0x3E66 PUSH1 0x6 DUP11 DUP2 SLOAD DUP2 LT PUSH2 0x3E45 JUMPI INVALID JUMPDEST SWAP1 PUSH1 0x0 MSTORE PUSH1 0x20 PUSH1 0x0 KECCAK256 SWAP1 PUSH1 0x2 MUL ADD PUSH1 0x1 ADD SLOAD DUP10 PUSH2 0x5A98 SWAP1 SWAP2 SWAP1 PUSH4 0xFFFFFFFF AND JUMP JUMPDEST PUSH2 0x5B11 SWAP1 SWAP2 SWAP1 PUSH4 0xFFFFFFFF AND JUMP JUMPDEST SWAP1 POP PUSH1 0x0 PUSH2 0x3E8B DUP3 DUP9 PUSH2 0x5AF1 SWAP1 SWAP2 SWAP1 PUSH4 0xFFFFFFFF AND JUMP JUMPDEST SWAP1 POP PUSH1 0x2 PUSH1 0x0 SWAP1 SLOAD SWAP1 PUSH2 0x100 EXP SWAP1 DIV PUSH20 0xFFFFFFFFFFFFFFFFFFFFFFFFFFFFFFFFFFFFFFFF AND PUSH20 0xFFFFFFFFFFFFFFFFFFFFFFFFFFFFFFFFFFFFFFFF AND PUSH4 0xA9059CBB PUSH1 0x3 PUSH1 0x0 SWAP1 SLOAD SWAP1 PUSH2 0x100 EXP SWAP1 DIV PUSH20 0xFFFFFFFFFFFFFFFFFFFFFFFFFFFFFFFFFFFFFFFF AND DUP5 PUSH1 0x40 MLOAD DUP4 PUSH4 0xFFFFFFFF AND PUSH1 0xE0 SHL DUP2 MSTORE PUSH1 0x4 ADD DUP1 DUP4 PUSH20 0xFFFFFFFFFFFFFFFFFFFFFFFFFFFFFFFFFFFFFFFF AND PUSH20 0xFFFFFFFFFFFFFFFFFFFFFFFFFFFFFFFFFFFFFFFF AND DUP2 MSTORE PUSH1 0x20 ADD DUP3 DUP2 MSTORE PUSH1 0x20 ADD SWAP3 POP POP POP PUSH1 0x20 PUSH1 0x40 MLOAD DUP1 DUP4 SUB DUP2 PUSH1 0x0 DUP8 DUP1 EXTCODESIZE ISZERO DUP1 ISZERO PUSH2 0x3F58 JUMPI PUSH1 0x0 DUP1 REVERT JUMPDEST POP GAS CALL ISZERO DUP1 ISZERO PUSH2 0x3F6C JUMPI RETURNDATASIZE PUSH1 0x0 DUP1 RETURNDATACOPY RETURNDATASIZE PUSH1 0x0 REVERT JUMPDEST POP POP POP POP PUSH1 0x40 MLOAD RETURNDATASIZE PUSH1 0x20 DUP2 LT ISZERO PUSH2 0x3F82 JUMPI PUSH1 0x0 DUP1 REVERT JUMPDEST DUP2 ADD SWAP1 DUP1 DUP1 MLOAD SWAP1 PUSH1 0x20 ADD SWAP1 SWAP3 SWAP2 SWAP1 POP POP POP PUSH2 0x3F9C JUMPI PUSH1 0x0 DUP1 REVERT JUMPDEST PUSH1 0x3 PUSH1 0x0 SWAP1 SLOAD SWAP1 PUSH2 0x100 EXP SWAP1 DIV PUSH20 0xFFFFFFFFFFFFFFFFFFFFFFFFFFFFFFFFFFFFFFFF AND PUSH20 0xFFFFFFFFFFFFFFFFFFFFFFFFFFFFFFFFFFFFFFFF AND PUSH4 0x382E2AAB DUP4 PUSH1 0x40 MLOAD DUP3 PUSH4 0xFFFFFFFF AND PUSH1 0xE0 SHL DUP2 MSTORE PUSH1 0x4 ADD DUP1 DUP3 DUP2 MSTORE PUSH1 0x20 ADD SWAP2 POP POP PUSH1 0x20 PUSH1 0x40 MLOAD DUP1 DUP4 SUB DUP2 PUSH1 0x0 DUP8 DUP1 EXTCODESIZE ISZERO DUP1 ISZERO PUSH2 0x4011 JUMPI PUSH1 0x0 DUP1 REVERT JUMPDEST POP GAS CALL ISZERO DUP1 ISZERO PUSH2 0x4025 JUMPI RETURNDATASIZE PUSH1 0x0 DUP1 RETURNDATACOPY RETURNDATASIZE PUSH1 0x0 REVERT JUMPDEST POP POP POP POP PUSH1 0x40 MLOAD RETURNDATASIZE PUSH1 0x20 DUP2 LT ISZERO PUSH2 0x403B JUMPI PUSH1 0x0 DUP1 REVERT JUMPDEST DUP2 ADD SWAP1 DUP1 DUP1 MLOAD SWAP1 PUSH1 0x20 ADD SWAP1 SWAP3 SWAP2 SWAP1 POP POP POP PUSH2 0x4055 JUMPI PUSH1 0x0 DUP1 REVERT JUMPDEST PUSH1 0x8 PUSH1 0x0 CALLER PUSH20 0xFFFFFFFFFFFFFFFFFFFFFFFFFFFFFFFFFFFFFFFF AND PUSH20 0xFFFFFFFFFFFFFFFFFFFFFFFFFFFFFFFFFFFFFFFF AND DUP2 MSTORE PUSH1 0x20 ADD SWAP1 DUP2 MSTORE PUSH1 0x20 ADD PUSH1 0x0 KECCAK256 PUSH1 0x40 MLOAD DUP1 PUSH1 0xA0 ADD PUSH1 0x40 MSTORE DUP1 DUP10 DUP2 MSTORE PUSH1 0x20 ADD PUSH1 0x2 PUSH1 0x0 SWAP1 SLOAD SWAP1 PUSH2 0x100 EXP SWAP1 DIV PUSH20 0xFFFFFFFFFFFFFFFFFFFFFFFFFFFFFFFFFFFFFFFF AND PUSH20 0xFFFFFFFFFFFFFFFFFFFFFFFFFFFFFFFFFFFFFFFF AND PUSH4 0xB81F90F3 PUSH1 0x40 MLOAD DUP2 PUSH4 0xFFFFFFFF AND PUSH1 0xE0 SHL DUP2 MSTORE PUSH1 0x4 ADD PUSH1 0x20 PUSH1 0x40 MLOAD DUP1 DUP4 SUB DUP2 DUP7 DUP1 EXTCODESIZE ISZERO DUP1 ISZERO PUSH2 0x410D JUMPI PUSH1 0x0 DUP1 REVERT JUMPDEST POP GAS STATICCALL ISZERO DUP1 ISZERO PUSH2 0x4121 JUMPI RETURNDATASIZE PUSH1 0x0 DUP1 RETURNDATACOPY RETURNDATASIZE PUSH1 0x0 REVERT JUMPDEST POP POP POP POP PUSH1 0x40 MLOAD RETURNDATASIZE PUSH1 0x20 DUP2 LT ISZERO PUSH2 0x4137 JUMPI PUSH1 0x0 DUP1 REVERT JUMPDEST DUP2 ADD SWAP1 DUP1 DUP1 MLOAD SWAP1 PUSH1 0x20 ADD SWAP1 SWAP3 SWAP2 SWAP1 POP POP POP DUP2 MSTORE PUSH1 0x20 ADD DUP11 DUP2 MSTORE PUSH1 0x20 ADD PUSH1 0x1 DUP2 MSTORE PUSH1 0x20 ADD DUP9 DUP2 MSTORE POP SWAP1 DUP1 PUSH1 0x1 DUP2 SLOAD ADD DUP1 DUP3 SSTORE DUP1 SWAP2 POP POP SWAP1 PUSH1 0x1 DUP3 SUB SWAP1 PUSH1 0x0 MSTORE PUSH1 0x20 PUSH1 0x0 KECCAK256 SWAP1 PUSH1 0x5 MUL ADD PUSH1 0x0 SWAP1 SWAP2 SWAP3 SWAP1 SWAP2 SWAP1 SWAP2 POP PUSH1 0x0 DUP3 ADD MLOAD DUP2 PUSH1 0x0 ADD SSTORE PUSH1 0x20 DUP3 ADD MLOAD DUP2 PUSH1 0x1 ADD SSTORE PUSH1 0x40 DUP3 ADD MLOAD DUP2 PUSH1 0x2 ADD SSTORE PUSH1 0x60 DUP3 ADD MLOAD DUP2 PUSH1 0x3 ADD SSTORE PUSH1 0x80 DUP3 ADD MLOAD DUP2 PUSH1 0x4 ADD SWAP1 DUP1 MLOAD SWAP1 PUSH1 0x20 ADD SWAP1 PUSH2 0x41CD SWAP3 SWAP2 SWAP1 PUSH2 0x5B37 JUMP JUMPDEST POP POP POP POP PUSH1 0x2 PUSH1 0x0 SWAP1 SLOAD SWAP1 PUSH2 0x100 EXP SWAP1 DIV PUSH20 0xFFFFFFFFFFFFFFFFFFFFFFFFFFFFFFFFFFFFFFFF AND PUSH20 0xFFFFFFFFFFFFFFFFFFFFFFFFFFFFFFFFFFFFFFFF AND PUSH4 0xA9059CBB CALLER DUP4 PUSH1 0x40 MLOAD DUP4 PUSH4 0xFFFFFFFF AND PUSH1 0xE0 SHL DUP2 MSTORE PUSH1 0x4 ADD DUP1 DUP4 PUSH20 0xFFFFFFFFFFFFFFFFFFFFFFFFFFFFFFFFFFFFFFFF AND PUSH20 0xFFFFFFFFFFFFFFFFFFFFFFFFFFFFFFFFFFFFFFFF AND DUP2 MSTORE PUSH1 0x20 ADD DUP3 DUP2 MSTORE PUSH1 0x20 ADD SWAP3 POP POP POP PUSH1 0x20 PUSH1 0x40 MLOAD DUP1 DUP4 SUB DUP2 PUSH1 0x0 DUP8 DUP1 EXTCODESIZE ISZERO DUP1 ISZERO PUSH2 0x427A JUMPI PUSH1 0x0 DUP1 REVERT JUMPDEST POP GAS CALL ISZERO DUP1 ISZERO PUSH2 0x428E JUMPI RETURNDATASIZE PUSH1 0x0 DUP1 RETURNDATACOPY RETURNDATASIZE PUSH1 0x0 REVERT JUMPDEST POP POP POP POP PUSH1 0x40 MLOAD RETURNDATASIZE PUSH1 0x20 DUP2 LT ISZERO PUSH2 0x42A4 JUMPI PUSH1 0x0 DUP1 REVERT JUMPDEST DUP2 ADD SWAP1 DUP1 DUP1 MLOAD SWAP1 PUSH1 0x20 ADD SWAP1 SWAP3 SWAP2 SWAP1 POP POP POP PUSH2 0x42BE JUMPI PUSH1 0x0 DUP1 REVERT JUMPDEST DUP8 CALLER PUSH20 0xFFFFFFFFFFFFFFFFFFFFFFFFFFFFFFFFFFFFFFFF AND PUSH32 0x583F4A449110798C282200EA42774808B8147FA4BCB89A6CA406DD0650E034E7 DUP10 DUP6 PUSH1 0x1 PUSH1 0x8 PUSH1 0x0 CALLER PUSH20 0xFFFFFFFFFFFFFFFFFFFFFFFFFFFFFFFFFFFFFFFF AND PUSH20 0xFFFFFFFFFFFFFFFFFFFFFFFFFFFFFFFFFFFFFFFF AND DUP2 MSTORE PUSH1 0x20 ADD SWAP1 DUP2 MSTORE PUSH1 0x20 ADD PUSH1 0x0 KECCAK256 DUP1 SLOAD SWAP1 POP SUB PUSH1 0x40 MLOAD DUP1 DUP5 DUP2 MSTORE PUSH1 0x20 ADD DUP4 DUP2 MSTORE PUSH1 0x20 ADD DUP3 DUP2 MSTORE PUSH1 0x20 ADD SWAP4 POP POP POP POP PUSH1 0x40 MLOAD DUP1 SWAP2 SUB SWAP1 LOG3 POP POP POP POP POP POP POP POP JUMP JUMPDEST PUSH1 0x0 DUP2 PUSH1 0x1 PUSH1 0x7 PUSH1 0x0 DUP8 PUSH20 0xFFFFFFFFFFFFFFFFFFFFFFFFFFFFFFFFFFFFFFFF AND PUSH20 0xFFFFFFFFFFFFFFFFFFFFFFFFFFFFFFFFFFFFFFFF AND DUP2 MSTORE PUSH1 0x20 ADD SWAP1 DUP2 MSTORE PUSH1 0x20 ADD PUSH1 0x0 KECCAK256 DUP6 DUP2 SLOAD DUP2 LT PUSH2 0x43BB JUMPI INVALID JUMPDEST SWAP1 PUSH1 0x0 MSTORE PUSH1 0x20 PUSH1 0x0 KECCAK256 SWAP1 PUSH1 0x9 MUL ADD PUSH1 0x2 ADD SLOAD ADD GT ISZERO DUP1 ISZERO PUSH2 0x44B2 JUMPI POP DUP2 PUSH1 0x5 PUSH1 0x7 PUSH1 0x0 DUP8 PUSH20 0xFFFFFFFFFFFFFFFFFFFFFFFFFFFFFFFFFFFFFFFF AND PUSH20 0xFFFFFFFFFFFFFFFFFFFFFFFFFFFFFFFFFFFFFFFF AND DUP2 MSTORE PUSH1 0x20 ADD SWAP1 DUP2 MSTORE PUSH1 0x20 ADD PUSH1 0x0 KECCAK256 DUP6 DUP2 SLOAD DUP2 LT PUSH2 0x4424 JUMPI INVALID JUMPDEST SWAP1 PUSH1 0x0 MSTORE PUSH1 0x20 PUSH1 0x0 KECCAK256 SWAP1 PUSH1 0x9 MUL ADD PUSH1 0x3 ADD SLOAD DUP2 SLOAD DUP2 LT PUSH2 0x4440 JUMPI INVALID JUMPDEST SWAP1 PUSH1 0x0 MSTORE PUSH1 0x20 PUSH1 0x0 KECCAK256 SWAP1 PUSH1 0x3 MUL ADD PUSH1 0x0 ADD SLOAD PUSH1 0x7 PUSH1 0x0 DUP8 PUSH20 0xFFFFFFFFFFFFFFFFFFFFFFFFFFFFFFFFFFFFFFFF AND PUSH20 0xFFFFFFFFFFFFFFFFFFFFFFFFFFFFFFFFFFFFFFFF AND DUP2 MSTORE PUSH1 0x20 ADD SWAP1 DUP2 MSTORE PUSH1 0x20 ADD PUSH1 0x0 KECCAK256 DUP6 DUP2 SLOAD DUP2 LT PUSH2 0x449C JUMPI INVALID JUMPDEST SWAP1 PUSH1 0x0 MSTORE PUSH1 0x20 PUSH1 0x0 KECCAK256 SWAP1 PUSH1 0x9 MUL ADD PUSH1 0x2 ADD SLOAD ADD LT ISZERO JUMPDEST DUP1 ISZERO PUSH2 0x4519 JUMPI POP PUSH1 0x1 PUSH1 0x7 PUSH1 0x0 DUP7 PUSH20 0xFFFFFFFFFFFFFFFFFFFFFFFFFFFFFFFFFFFFFFFF AND PUSH20 0xFFFFFFFFFFFFFFFFFFFFFFFFFFFFFFFFFFFFFFFF AND DUP2 MSTORE PUSH1 0x20 ADD SWAP1 DUP2 MSTORE PUSH1 0x20 ADD PUSH1 0x0 KECCAK256 DUP5 DUP2 SLOAD DUP2 LT PUSH2 0x4505 JUMPI INVALID JUMPDEST SWAP1 PUSH1 0x0 MSTORE PUSH1 0x20 PUSH1 0x0 KECCAK256 SWAP1 PUSH1 0x9 MUL ADD PUSH1 0x4 ADD SLOAD EQ JUMPDEST DUP1 ISZERO PUSH2 0x46CE JUMPI POP DUP2 PUSH2 0x4529 PUSH2 0x4A92 JUMP JUMPDEST EQ ISZERO DUP1 PUSH2 0x46CD JUMPI POP PUSH2 0x4627 PUSH2 0x45BD PUSH1 0x4 SLOAD PUSH2 0x45AF PUSH1 0x7 PUSH1 0x0 DUP10 PUSH20 0xFFFFFFFFFFFFFFFFFFFFFFFFFFFFFFFFFFFFFFFF AND PUSH20 0xFFFFFFFFFFFFFFFFFFFFFFFFFFFFFFFFFFFFFFFF AND DUP2 MSTORE PUSH1 0x20 ADD SWAP1 DUP2 MSTORE PUSH1 0x20 ADD PUSH1 0x0 KECCAK256 DUP8 DUP2 SLOAD DUP2 LT PUSH2 0x4587 JUMPI INVALID JUMPDEST SWAP1 PUSH1 0x0 MSTORE PUSH1 0x20 PUSH1 0x0 KECCAK256 SWAP1 PUSH1 0x9 MUL ADD PUSH1 0x2 ADD SLOAD PUSH2 0x45A1 PUSH2 0x4A92 JUMP JUMPDEST PUSH2 0x5AF1 SWAP1 SWAP2 SWAP1 PUSH4 0xFFFFFFFF AND JUMP JUMPDEST PUSH2 0x5A98 SWAP1 SWAP2 SWAP1 PUSH4 0xFFFFFFFF AND JUMP JUMPDEST PUSH1 0x7 PUSH1 0x0 DUP8 PUSH20 0xFFFFFFFFFFFFFFFFFFFFFFFFFFFFFFFFFFFFFFFF AND PUSH20 0xFFFFFFFFFFFFFFFFFFFFFFFFFFFFFFFFFFFFFFFF AND DUP2 MSTORE PUSH1 0x20 ADD SWAP1 DUP2 MSTORE PUSH1 0x20 ADD PUSH1 0x0 KECCAK256 DUP6 DUP2 SLOAD DUP2 LT PUSH2 0x4607 JUMPI INVALID JUMPDEST SWAP1 PUSH1 0x0 MSTORE PUSH1 0x20 PUSH1 0x0 KECCAK256 SWAP1 PUSH1 0x9 MUL ADD PUSH1 0x1 ADD SLOAD PUSH2 0x5AD2 SWAP1 SWAP2 SWAP1 PUSH4 0xFFFFFFFF AND JUMP JUMPDEST PUSH1 0x2 PUSH1 0x0 SWAP1 SLOAD SWAP1 PUSH2 0x100 EXP SWAP1 DIV PUSH20 0xFFFFFFFFFFFFFFFFFFFFFFFFFFFFFFFFFFFFFFFF AND PUSH20 0xFFFFFFFFFFFFFFFFFFFFFFFFFFFFFFFFFFFFFFFF AND PUSH4 0xB81F90F3 PUSH1 0x40 MLOAD DUP2 PUSH4 0xFFFFFFFF AND PUSH1 0xE0 SHL DUP2 MSTORE PUSH1 0x4 ADD PUSH1 0x20 PUSH1 0x40 MLOAD DUP1 DUP4 SUB DUP2 DUP7 DUP1 EXTCODESIZE ISZERO DUP1 ISZERO PUSH2 0x468F JUMPI PUSH1 0x0 DUP1 REVERT JUMPDEST POP GAS STATICCALL ISZERO DUP1 ISZERO PUSH2 0x46A3 JUMPI RETURNDATASIZE PUSH1 0x0 DUP1 RETURNDATACOPY RETURNDATASIZE PUSH1 0x0 REVERT JUMPDEST POP POP POP POP PUSH1 0x40 MLOAD RETURNDATASIZE PUSH1 0x20 DUP2 LT ISZERO PUSH2 0x46B9 JUMPI PUSH1 0x0 DUP1 REVERT JUMPDEST DUP2 ADD SWAP1 DUP1 DUP1 MLOAD SWAP1 PUSH1 0x20 ADD SWAP1 SWAP3 SWAP2 SWAP1 POP POP POP LT ISZERO JUMPDEST JUMPDEST SWAP1 POP SWAP4 SWAP3 POP POP POP JUMP JUMPDEST PUSH1 0x5 DUP2 DUP2 SLOAD DUP2 LT PUSH2 0x46E4 JUMPI INVALID JUMPDEST SWAP1 PUSH1 0x0 MSTORE PUSH1 0x20 PUSH1 0x0 KECCAK256 SWAP1 PUSH1 0x3 MUL ADD PUSH1 0x2 ADD PUSH1 0x0 SWAP1 SLOAD SWAP1 PUSH2 0x100 EXP SWAP1 DIV PUSH1 0xFF AND PUSH2 0x470C JUMPI PUSH1 0x0 DUP1 REVERT JUMPDEST PUSH1 0x0 PUSH1 0x9 PUSH1 0x0 CALLER PUSH20 0xFFFFFFFFFFFFFFFFFFFFFFFFFFFFFFFFFFFFFFFF AND PUSH20 0xFFFFFFFFFFFFFFFFFFFFFFFFFFFFFFFFFFFFFFFF AND DUP2 MSTORE PUSH1 0x20 ADD SWAP1 DUP2 MSTORE PUSH1 0x20 ADD PUSH1 0x0 KECCAK256 SLOAD GT PUSH2 0x4758 JUMPI PUSH1 0x0 DUP1 REVERT JUMPDEST PUSH1 0x0 PUSH1 0x9 PUSH1 0x0 CALLER PUSH20 0xFFFFFFFFFFFFFFFFFFFFFFFFFFFFFFFFFFFFFFFF AND PUSH20 0xFFFFFFFFFFFFFFFFFFFFFFFFFFFFFFFFFFFFFFFF AND DUP2 MSTORE PUSH1 0x20 ADD SWAP1 DUP2 MSTORE PUSH1 0x20 ADD PUSH1 0x0 KECCAK256 SLOAD SWAP1 POP PUSH1 0x0 PUSH1 0x9 PUSH1 0x0 CALLER PUSH20 0xFFFFFFFFFFFFFFFFFFFFFFFFFFFFFFFFFFFFFFFF AND PUSH20 0xFFFFFFFFFFFFFFFFFFFFFFFFFFFFFFFFFFFFFFFF AND DUP2 MSTORE PUSH1 0x20 ADD SWAP1 DUP2 MSTORE PUSH1 0x20 ADD PUSH1 0x0 KECCAK256 DUP2 SWAP1 SSTORE POP PUSH1 0x0 PUSH1 0x5 DUP4 DUP2 SLOAD DUP2 LT PUSH2 0x47F0 JUMPI INVALID JUMPDEST SWAP1 PUSH1 0x0 MSTORE PUSH1 0x20 PUSH1 0x0 KECCAK256 SWAP1 PUSH1 0x3 MUL ADD PUSH1 0x0 ADD SLOAD PUSH2 0x480A PUSH2 0x4A92 JUMP JUMPDEST ADD SWAP1 POP PUSH1 0x0 PUSH1 0x1 PUSH2 0x4819 PUSH2 0x4A92 JUMP JUMPDEST ADD SWAP1 POP JUMPDEST DUP2 DUP2 GT PUSH2 0x485E JUMPI DUP3 PUSH1 0xA PUSH1 0x0 DUP4 DUP2 MSTORE PUSH1 0x20 ADD SWAP1 DUP2 MSTORE PUSH1 0x20 ADD PUSH1 0x0 KECCAK256 SLOAD ADD PUSH1 0xA PUSH1 0x0 DUP4 DUP2 MSTORE PUSH1 0x20 ADD SWAP1 DUP2 MSTORE PUSH1 0x20 ADD PUSH1 0x0 KECCAK256 DUP2 SWAP1 SSTORE POP DUP1 DUP1 PUSH1 0x1 ADD SWAP2 POP POP PUSH2 0x481D JUMP JUMPDEST POP PUSH1 0x7 PUSH1 0x0 CALLER PUSH20 0xFFFFFFFFFFFFFFFFFFFFFFFFFFFFFFFFFFFFFFFF AND PUSH20 0xFFFFFFFFFFFFFFFFFFFFFFFFFFFFFFFFFFFFFFFF AND DUP2 MSTORE PUSH1 0x20 ADD SWAP1 DUP2 MSTORE PUSH1 0x20 ADD PUSH1 0x0 KECCAK256 PUSH1 0x40 MLOAD DUP1 PUSH1 0xE0 ADD PUSH1 0x40 MSTORE DUP1 DUP5 DUP2 MSTORE PUSH1 0x20 ADD PUSH1 0x2 PUSH1 0x0 SWAP1 SLOAD SWAP1 PUSH2 0x100 EXP SWAP1 DIV PUSH20 0xFFFFFFFFFFFFFFFFFFFFFFFFFFFFFFFFFFFFFFFF AND PUSH20 0xFFFFFFFFFFFFFFFFFFFFFFFFFFFFFFFFFFFFFFFF AND PUSH4 0xB81F90F3 PUSH1 0x40 MLOAD DUP2 PUSH4 0xFFFFFFFF AND PUSH1 0xE0 SHL DUP2 MSTORE PUSH1 0x4 ADD PUSH1 0x20 PUSH1 0x40 MLOAD DUP1 DUP4 SUB DUP2 DUP7 DUP1 EXTCODESIZE ISZERO DUP1 ISZERO PUSH2 0x4917 JUMPI PUSH1 0x0 DUP1 REVERT JUMPDEST POP GAS STATICCALL ISZERO DUP1 ISZERO PUSH2 0x492B JUMPI RETURNDATASIZE PUSH1 0x0 DUP1 RETURNDATACOPY RETURNDATASIZE PUSH1 0x0 REVERT JUMPDEST POP POP POP POP PUSH1 0x40 MLOAD RETURNDATASIZE PUSH1 0x20 DUP2 LT ISZERO PUSH2 0x4941 JUMPI PUSH1 0x0 DUP1 REVERT JUMPDEST DUP2 ADD SWAP1 DUP1 DUP1 MLOAD SWAP1 PUSH1 0x20 ADD SWAP1 SWAP3 SWAP2 SWAP1 POP POP POP DUP2 MSTORE PUSH1 0x20 ADD PUSH2 0x495F PUSH2 0x4A92 JUMP JUMPDEST DUP2 MSTORE PUSH1 0x20 ADD DUP6 DUP2 MSTORE PUSH1 0x20 ADD PUSH1 0x1 DUP2 MSTORE PUSH1 0x20 ADD PUSH1 0x0 DUP2 MSTORE PUSH1 0x20 ADD PUSH1 0x0 DUP2 MSTORE POP SWAP1 DUP1 PUSH1 0x1 DUP2 SLOAD ADD DUP1 DUP3 SSTORE DUP1 SWAP2 POP POP SWAP1 PUSH1 0x1 DUP3 SUB SWAP1 PUSH1 0x0 MSTORE PUSH1 0x20 PUSH1 0x0 KECCAK256 SWAP1 PUSH1 0x9 MUL ADD PUSH1 0x0 SWAP1 SWAP2 SWAP3 SWAP1 SWAP2 SWAP1 SWAP2 POP PUSH1 0x0 DUP3 ADD MLOAD DUP2 PUSH1 0x0 ADD SSTORE PUSH1 0x20 DUP3 ADD MLOAD DUP2 PUSH1 0x1 ADD SSTORE PUSH1 0x40 DUP3 ADD MLOAD DUP2 PUSH1 0x2 ADD SSTORE PUSH1 0x60 DUP3 ADD MLOAD DUP2 PUSH1 0x3 ADD SSTORE PUSH1 0x80 DUP3 ADD MLOAD DUP2 PUSH1 0x4 ADD SSTORE PUSH1 0xA0 DUP3 ADD MLOAD DUP2 PUSH1 0x5 ADD SSTORE PUSH1 0xC0 DUP3 ADD MLOAD DUP2 PUSH1 0x6 ADD SSTORE POP POP POP DUP3 CALLER PUSH20 0xFFFFFFFFFFFFFFFFFFFFFFFFFFFFFFFFFFFFFFFF AND PUSH32 0x680A0E2E97AD7C29DA7985E37B699F19857C055166F801E50D90661EAE30FCC3 DUP5 PUSH1 0x1 PUSH1 0x7 PUSH1 0x0 CALLER PUSH20 0xFFFFFFFFFFFFFFFFFFFFFFFFFFFFFFFFFFFFFFFF AND PUSH20 0xFFFFFFFFFFFFFFFFFFFFFFFFFFFFFFFFFFFFFFFF AND DUP2 MSTORE PUSH1 0x20 ADD SWAP1 DUP2 MSTORE PUSH1 0x20 ADD PUSH1 0x0 KECCAK256 DUP1 SLOAD SWAP1 POP SUB PUSH1 0x40 MLOAD DUP1 DUP4 DUP2 MSTORE PUSH1 0x20 ADD DUP3 DUP2 MSTORE PUSH1 0x20 ADD SWAP3 POP POP POP PUSH1 0x40 MLOAD DUP1 SWAP2 SUB SWAP1 LOG3 POP POP POP JUMP JUMPDEST PUSH1 0x0 PUSH1 0x1 PUSH1 0xB DUP1 SLOAD SWAP1 POP SUB SWAP1 POP SWAP1 JUMP JUMPDEST PUSH1 0x1 PUSH1 0x8 PUSH1 0x0 CALLER PUSH20 0xFFFFFFFFFFFFFFFFFFFFFFFFFFFFFFFFFFFFFFFF AND PUSH20 0xFFFFFFFFFFFFFFFFFFFFFFFFFFFFFFFFFFFFFFFF AND DUP2 MSTORE PUSH1 0x20 ADD SWAP1 DUP2 MSTORE PUSH1 0x20 ADD PUSH1 0x0 KECCAK256 DUP3 DUP2 SLOAD DUP2 LT PUSH2 0x4AEE JUMPI INVALID JUMPDEST SWAP1 PUSH1 0x0 MSTORE PUSH1 0x20 PUSH1 0x0 KECCAK256 SWAP1 PUSH1 0x5 MUL ADD PUSH1 0x3 ADD SLOAD EQ PUSH2 0x4B0A JUMPI PUSH1 0x0 DUP1 REVERT JUMPDEST PUSH1 0x2 PUSH1 0x0 SWAP1 SLOAD SWAP1 PUSH2 0x100 EXP SWAP1 DIV PUSH20 0xFFFFFFFFFFFFFFFFFFFFFFFFFFFFFFFFFFFFFFFF AND PUSH20 0xFFFFFFFFFFFFFFFFFFFFFFFFFFFFFFFFFFFFFFFF AND PUSH4 0xB81F90F3 PUSH1 0x40 MLOAD DUP2 PUSH4 0xFFFFFFFF AND PUSH1 0xE0 SHL DUP2 MSTORE PUSH1 0x4 ADD PUSH1 0x20 PUSH1 0x40 MLOAD DUP1 DUP4 SUB DUP2 DUP7 DUP1 EXTCODESIZE ISZERO DUP1 ISZERO PUSH2 0x4B72 JUMPI PUSH1 0x0 DUP1 REVERT JUMPDEST POP GAS STATICCALL ISZERO DUP1 ISZERO PUSH2 0x4B86 JUMPI RETURNDATASIZE PUSH1 0x0 DUP1 RETURNDATACOPY RETURNDATASIZE PUSH1 0x0 REVERT JUMPDEST POP POP POP POP PUSH1 0x40 MLOAD RETURNDATASIZE PUSH1 0x20 DUP2 LT ISZERO PUSH2 0x4B9C JUMPI PUSH1 0x0 DUP1 REVERT JUMPDEST DUP2 ADD SWAP1 DUP1 DUP1 MLOAD SWAP1 PUSH1 0x20 ADD SWAP1 SWAP3 SWAP2 SWAP1 POP POP POP PUSH2 0x4C3B PUSH1 0x4 SLOAD PUSH1 0x6 PUSH1 0x8 PUSH1 0x0 CALLER PUSH20 0xFFFFFFFFFFFFFFFFFFFFFFFFFFFFFFFFFFFFFFFF AND PUSH20 0xFFFFFFFFFFFFFFFFFFFFFFFFFFFFFFFFFFFFFFFF AND DUP2 MSTORE PUSH1 0x20 ADD SWAP1 DUP2 MSTORE PUSH1 0x20 ADD PUSH1 0x0 KECCAK256 DUP6 DUP2 SLOAD DUP2 LT PUSH2 0x4BFF JUMPI INVALID JUMPDEST SWAP1 PUSH1 0x0 MSTORE PUSH1 0x20 PUSH1 0x0 KECCAK256 SWAP1 PUSH1 0x5 MUL ADD PUSH1 0x2 ADD SLOAD DUP2 SLOAD DUP2 LT PUSH2 0x4C1B JUMPI INVALID JUMPDEST SWAP1 PUSH1 0x0 MSTORE PUSH1 0x20 PUSH1 0x0 KECCAK256 SWAP1 PUSH1 0x2 MUL ADD PUSH1 0x0 ADD SLOAD PUSH2 0x5A98 SWAP1 SWAP2 SWAP1 PUSH4 0xFFFFFFFF AND JUMP JUMPDEST PUSH1 0x8 PUSH1 0x0 CALLER PUSH20 0xFFFFFFFFFFFFFFFFFFFFFFFFFFFFFFFFFFFFFFFF AND PUSH20 0xFFFFFFFFFFFFFFFFFFFFFFFFFFFFFFFFFFFFFFFF AND DUP2 MSTORE PUSH1 0x20 ADD SWAP1 DUP2 MSTORE PUSH1 0x20 ADD PUSH1 0x0 KECCAK256 DUP4 DUP2 SLOAD DUP2 LT PUSH2 0x4C85 JUMPI INVALID JUMPDEST SWAP1 PUSH1 0x0 MSTORE PUSH1 0x20 PUSH1 0x0 KECCAK256 SWAP1 PUSH1 0x5 MUL ADD PUSH1 0x1 ADD SLOAD ADD GT PUSH2 0x4CA2 JUMPI PUSH1 0x0 DUP1 REVERT JUMPDEST PUSH1 0x2 PUSH1 0x0 SWAP1 SLOAD SWAP1 PUSH2 0x100 EXP SWAP1 DIV PUSH20 0xFFFFFFFFFFFFFFFFFFFFFFFFFFFFFFFFFFFFFFFF AND PUSH20 0xFFFFFFFFFFFFFFFFFFFFFFFFFFFFFFFFFFFFFFFF AND PUSH4 0x23B872DD CALLER ADDRESS PUSH1 0x8 PUSH1 0x0 CALLER PUSH20 0xFFFFFFFFFFFFFFFFFFFFFFFFFFFFFFFFFFFFFFFF AND PUSH20 0xFFFFFFFFFFFFFFFFFFFFFFFFFFFFFFFFFFFFFFFF AND DUP2 MSTORE PUSH1 0x20 ADD SWAP1 DUP2 MSTORE PUSH1 0x20 ADD PUSH1 0x0 KECCAK256 DUP6 DUP2 SLOAD DUP2 LT PUSH2 0x4D2C JUMPI INVALID JUMPDEST SWAP1 PUSH1 0x0 MSTORE PUSH1 0x20 PUSH1 0x0 KECCAK256 SWAP1 PUSH1 0x5 MUL ADD PUSH1 0x0 ADD SLOAD PUSH1 0x40 MLOAD DUP5 PUSH4 0xFFFFFFFF AND PUSH1 0xE0 SHL DUP2 MSTORE PUSH1 0x4 ADD DUP1 DUP5 PUSH20 0xFFFFFFFFFFFFFFFFFFFFFFFFFFFFFFFFFFFFFFFF AND PUSH20 0xFFFFFFFFFFFFFFFFFFFFFFFFFFFFFFFFFFFFFFFF AND DUP2 MSTORE PUSH1 0x20 ADD DUP4 PUSH20 0xFFFFFFFFFFFFFFFFFFFFFFFFFFFFFFFFFFFFFFFF AND PUSH20 0xFFFFFFFFFFFFFFFFFFFFFFFFFFFFFFFFFFFFFFFF AND DUP2 MSTORE PUSH1 0x20 ADD DUP3 DUP2 MSTORE PUSH1 0x20 ADD SWAP4 POP POP POP POP PUSH1 0x20 PUSH1 0x40 MLOAD DUP1 DUP4 SUB DUP2 PUSH1 0x0 DUP8 DUP1 EXTCODESIZE ISZERO DUP1 ISZERO PUSH2 0x4DDA JUMPI PUSH1 0x0 DUP1 REVERT JUMPDEST POP GAS CALL ISZERO DUP1 ISZERO PUSH2 0x4DEE JUMPI RETURNDATASIZE PUSH1 0x0 DUP1 RETURNDATACOPY RETURNDATASIZE PUSH1 0x0 REVERT JUMPDEST POP POP POP POP PUSH1 0x40 MLOAD RETURNDATASIZE PUSH1 0x20 DUP2 LT ISZERO PUSH2 0x4E04 JUMPI PUSH1 0x0 DUP1 REVERT JUMPDEST DUP2 ADD SWAP1 DUP1 DUP1 MLOAD SWAP1 PUSH1 0x20 ADD SWAP1 SWAP3 SWAP2 SWAP1 POP POP POP PUSH2 0x4E1E JUMPI PUSH1 0x0 DUP1 REVERT JUMPDEST PUSH1 0x2 PUSH1 0x8 PUSH1 0x0 CALLER PUSH20 0xFFFFFFFFFFFFFFFFFFFFFFFFFFFFFFFFFFFFFFFF AND PUSH20 0xFFFFFFFFFFFFFFFFFFFFFFFFFFFFFFFFFFFFFFFF AND DUP2 MSTORE PUSH1 0x20 ADD SWAP1 DUP2 MSTORE PUSH1 0x20 ADD PUSH1 0x0 KECCAK256 DUP3 DUP2 SLOAD DUP2 LT PUSH2 0x4E6A JUMPI INVALID JUMPDEST SWAP1 PUSH1 0x0 MSTORE PUSH1 0x20 PUSH1 0x0 KECCAK256 SWAP1 PUSH1 0x5 MUL ADD PUSH1 0x3 ADD DUP2 SWAP1 SSTORE POP PUSH1 0x0 DUP1 SWAP1 POP JUMPDEST PUSH1 0x8 PUSH1 0x0 CALLER PUSH20 0xFFFFFFFFFFFFFFFFFFFFFFFFFFFFFFFFFFFFFFFF AND PUSH20 0xFFFFFFFFFFFFFFFFFFFFFFFFFFFFFFFFFFFFFFFF AND DUP2 MSTORE PUSH1 0x20 ADD SWAP1 DUP2 MSTORE PUSH1 0x20 ADD PUSH1 0x0 KECCAK256 DUP3 DUP2 SLOAD DUP2 LT PUSH2 0x4ECF JUMPI INVALID JUMPDEST SWAP1 PUSH1 0x0 MSTORE PUSH1 0x20 PUSH1 0x0 KECCAK256 SWAP1 PUSH1 0x5 MUL ADD PUSH1 0x4 ADD DUP1 SLOAD SWAP1 POP DUP2 LT ISZERO PUSH2 0x521B JUMPI PUSH1 0x0 PUSH1 0x8 PUSH1 0x0 CALLER PUSH20 0xFFFFFFFFFFFFFFFFFFFFFFFFFFFFFFFFFFFFFFFF AND PUSH20 0xFFFFFFFFFFFFFFFFFFFFFFFFFFFFFFFFFFFFFFFF AND DUP2 MSTORE PUSH1 0x20 ADD SWAP1 DUP2 MSTORE PUSH1 0x20 ADD PUSH1 0x0 KECCAK256 DUP4 DUP2 SLOAD DUP2 LT PUSH2 0x4F37 JUMPI INVALID JUMPDEST SWAP1 PUSH1 0x0 MSTORE PUSH1 0x20 PUSH1 0x0 KECCAK256 SWAP1 PUSH1 0x5 MUL ADD PUSH1 0x4 ADD DUP3 DUP2 SLOAD DUP2 LT PUSH2 0x4F53 JUMPI INVALID JUMPDEST SWAP1 PUSH1 0x0 MSTORE PUSH1 0x20 PUSH1 0x0 KECCAK256 ADD SLOAD SWAP1 POP PUSH1 0x1 PUSH1 0x7 PUSH1 0x0 CALLER PUSH20 0xFFFFFFFFFFFFFFFFFFFFFFFFFFFFFFFFFFFFFFFF AND PUSH20 0xFFFFFFFFFFFFFFFFFFFFFFFFFFFFFFFFFFFFFFFF AND DUP2 MSTORE PUSH1 0x20 ADD SWAP1 DUP2 MSTORE PUSH1 0x20 ADD PUSH1 0x0 KECCAK256 DUP3 DUP2 SLOAD DUP2 LT PUSH2 0x4FAC JUMPI INVALID JUMPDEST SWAP1 PUSH1 0x0 MSTORE PUSH1 0x20 PUSH1 0x0 KECCAK256 SWAP1 PUSH1 0x9 MUL ADD PUSH1 0x4 ADD DUP2 SWAP1 SSTORE POP PUSH1 0x0 PUSH2 0x5047 PUSH1 0x4 SLOAD PUSH2 0x5039 PUSH1 0x0 SLOAD PUSH1 0x7 PUSH1 0x0 CALLER PUSH20 0xFFFFFFFFFFFFFFFFFFFFFFFFFFFFFFFFFFFFFFFF AND PUSH20 0xFFFFFFFFFFFFFFFFFFFFFFFFFFFFFFFFFFFFFFFF AND DUP2 MSTORE PUSH1 0x20 ADD SWAP1 DUP2 MSTORE PUSH1 0x20 ADD PUSH1 0x0 KECCAK256 DUP7 DUP2 SLOAD DUP2 LT PUSH2 0x5019 JUMPI INVALID JUMPDEST SWAP1 PUSH1 0x0 MSTORE PUSH1 0x20 PUSH1 0x0 KECCAK256 SWAP1 PUSH1 0x9 MUL ADD PUSH1 0x1 ADD SLOAD PUSH2 0x5AF1 SWAP1 SWAP2 SWAP1 PUSH4 0xFFFFFFFF AND JUMP JUMPDEST PUSH2 0x5B11 SWAP1 SWAP2 SWAP1 PUSH4 0xFFFFFFFF AND JUMP JUMPDEST SWAP1 POP PUSH1 0x0 PUSH1 0x5 PUSH1 0x7 PUSH1 0x0 CALLER PUSH20 0xFFFFFFFFFFFFFFFFFFFFFFFFFFFFFFFFFFFFFFFF AND PUSH20 0xFFFFFFFFFFFFFFFFFFFFFFFFFFFFFFFFFFFFFFFF AND DUP2 MSTORE PUSH1 0x20 ADD SWAP1 DUP2 MSTORE PUSH1 0x20 ADD PUSH1 0x0 KECCAK256 DUP5 DUP2 SLOAD DUP2 LT PUSH2 0x5097 JUMPI INVALID JUMPDEST SWAP1 PUSH1 0x0 MSTORE PUSH1 0x20 PUSH1 0x0 KECCAK256 SWAP1 PUSH1 0x9 MUL ADD PUSH1 0x3 ADD SLOAD DUP2 SLOAD DUP2 LT PUSH2 0x50B3 JUMPI INVALID JUMPDEST SWAP1 PUSH1 0x0 MSTORE PUSH1 0x20 PUSH1 0x0 KECCAK256 SWAP1 PUSH1 0x3 MUL ADD PUSH1 0x0 ADD SLOAD DUP3 ADD SWAP1 POP PUSH1 0x0 PUSH1 0x1 PUSH2 0x50D5 PUSH2 0x4A92 JUMP JUMPDEST ADD SWAP1 POP JUMPDEST DUP2 DUP2 GT PUSH2 0x520A JUMPI PUSH1 0x0 PUSH1 0x7 PUSH1 0x0 CALLER PUSH20 0xFFFFFFFFFFFFFFFFFFFFFFFFFFFFFFFFFFFFFFFF AND PUSH20 0xFFFFFFFFFFFFFFFFFFFFFFFFFFFFFFFFFFFFFFFF AND DUP2 MSTORE PUSH1 0x20 ADD SWAP1 DUP2 MSTORE PUSH1 0x20 ADD PUSH1 0x0 KECCAK256 DUP6 DUP2 SLOAD DUP2 LT PUSH2 0x512C JUMPI INVALID JUMPDEST SWAP1 PUSH1 0x0 MSTORE PUSH1 0x20 PUSH1 0x0 KECCAK256 SWAP1 PUSH1 0x9 MUL ADD PUSH1 0x7 ADD PUSH1 0x0 DUP8 DUP2 MSTORE PUSH1 0x20 ADD SWAP1 DUP2 MSTORE PUSH1 0x20 ADD PUSH1 0x0 KECCAK256 PUSH1 0x0 PUSH2 0x100 EXP DUP2 SLOAD DUP2 PUSH1 0xFF MUL NOT AND SWAP1 DUP4 ISZERO ISZERO MUL OR SWAP1 SSTORE POP PUSH2 0x51E6 PUSH1 0x7 PUSH1 0x0 CALLER PUSH20 0xFFFFFFFFFFFFFFFFFFFFFFFFFFFFFFFFFFFFFFFF AND PUSH20 0xFFFFFFFFFFFFFFFFFFFFFFFFFFFFFFFFFFFFFFFF AND DUP2 MSTORE PUSH1 0x20 ADD SWAP1 DUP2 MSTORE PUSH1 0x20 ADD PUSH1 0x0 KECCAK256 DUP6 DUP2 SLOAD DUP2 LT PUSH2 0x51B2 JUMPI INVALID JUMPDEST SWAP1 PUSH1 0x0 MSTORE PUSH1 0x20 PUSH1 0x0 KECCAK256 SWAP1 PUSH1 0x9 MUL ADD PUSH1 0x0 ADD SLOAD PUSH1 0xA PUSH1 0x0 DUP5 DUP2 MSTORE PUSH1 0x20 ADD SWAP1 DUP2 MSTORE PUSH1 0x20 ADD PUSH1 0x0 KECCAK256 SLOAD PUSH2 0x5AD2 SWAP1 SWAP2 SWAP1 PUSH4 0xFFFFFFFF AND JUMP JUMPDEST PUSH1 0xA PUSH1 0x0 DUP4 DUP2 MSTORE PUSH1 0x20 ADD SWAP1 DUP2 MSTORE PUSH1 0x20 ADD PUSH1 0x0 KECCAK256 DUP2 SWAP1 SSTORE POP DUP1 DUP1 PUSH1 0x1 ADD SWAP2 POP POP PUSH2 0x50D9 JUMP JUMPDEST POP POP POP POP DUP1 DUP1 PUSH1 0x1 ADD SWAP2 POP POP PUSH2 0x4E85 JUMP JUMPDEST POP POP JUMP JUMPDEST PUSH1 0x0 DUP3 GT PUSH2 0x522C JUMPI PUSH1 0x0 DUP1 REVERT JUMPDEST PUSH1 0x5 DUP2 DUP2 SLOAD DUP2 LT PUSH2 0x5239 JUMPI INVALID JUMPDEST SWAP1 PUSH1 0x0 MSTORE PUSH1 0x20 PUSH1 0x0 KECCAK256 SWAP1 PUSH1 0x3 MUL ADD PUSH1 0x2 ADD PUSH1 0x0 SWAP1 SLOAD SWAP1 PUSH2 0x100 EXP SWAP1 DIV PUSH1 0xFF AND PUSH2 0x5261 JUMPI PUSH1 0x0 DUP1 REVERT JUMPDEST PUSH1 0x2 PUSH1 0x0 SWAP1 SLOAD SWAP1 PUSH2 0x100 EXP SWAP1 DIV PUSH20 0xFFFFFFFFFFFFFFFFFFFFFFFFFFFFFFFFFFFFFFFF AND PUSH20 0xFFFFFFFFFFFFFFFFFFFFFFFFFFFFFFFFFFFFFFFF AND PUSH4 0x23B872DD CALLER ADDRESS DUP6 PUSH1 0x40 MLOAD DUP5 PUSH4 0xFFFFFFFF AND PUSH1 0xE0 SHL DUP2 MSTORE PUSH1 0x4 ADD DUP1 DUP5 PUSH20 0xFFFFFFFFFFFFFFFFFFFFFFFFFFFFFFFFFFFFFFFF AND PUSH20 0xFFFFFFFFFFFFFFFFFFFFFFFFFFFFFFFFFFFFFFFF AND DUP2 MSTORE PUSH1 0x20 ADD DUP4 PUSH20 0xFFFFFFFFFFFFFFFFFFFFFFFFFFFFFFFFFFFFFFFF AND PUSH20 0xFFFFFFFFFFFFFFFFFFFFFFFFFFFFFFFFFFFFFFFF AND DUP2 MSTORE PUSH1 0x20 ADD DUP3 DUP2 MSTORE PUSH1 0x20 ADD SWAP4 POP POP POP POP PUSH1 0x20 PUSH1 0x40 MLOAD DUP1 DUP4 SUB DUP2 PUSH1 0x0 DUP8 DUP1 EXTCODESIZE ISZERO DUP1 ISZERO PUSH2 0x533E JUMPI PUSH1 0x0 DUP1 REVERT JUMPDEST POP GAS CALL ISZERO DUP1 ISZERO PUSH2 0x5352 JUMPI RETURNDATASIZE PUSH1 0x0 DUP1 RETURNDATACOPY RETURNDATASIZE PUSH1 0x0 REVERT JUMPDEST POP POP POP POP PUSH1 0x40 MLOAD RETURNDATASIZE PUSH1 0x20 DUP2 LT ISZERO PUSH2 0x5368 JUMPI PUSH1 0x0 DUP1 REVERT JUMPDEST DUP2 ADD SWAP1 DUP1 DUP1 MLOAD SWAP1 PUSH1 0x20 ADD SWAP1 SWAP3 SWAP2 SWAP1 POP POP POP PUSH2 0x5382 JUMPI PUSH1 0x0 DUP1 REVERT JUMPDEST PUSH1 0x0 PUSH1 0x5 DUP3 DUP2 SLOAD DUP2 LT PUSH2 0x5391 JUMPI INVALID JUMPDEST SWAP1 PUSH1 0x0 MSTORE PUSH1 0x20 PUSH1 0x0 KECCAK256 SWAP1 PUSH1 0x3 MUL ADD PUSH1 0x0 ADD SLOAD PUSH2 0x53AB PUSH2 0x4A92 JUMP JUMPDEST ADD SWAP1 POP PUSH1 0x0 PUSH1 0x1 PUSH2 0x53BA PUSH2 0x4A92 JUMP JUMPDEST ADD SWAP1 POP JUMPDEST DUP2 DUP2 GT PUSH2 0x53FF JUMPI DUP4 PUSH1 0xA PUSH1 0x0 DUP4 DUP2 MSTORE PUSH1 0x20 ADD SWAP1 DUP2 MSTORE PUSH1 0x20 ADD PUSH1 0x0 KECCAK256 SLOAD ADD PUSH1 0xA PUSH1 0x0 DUP4 DUP2 MSTORE PUSH1 0x20 ADD SWAP1 DUP2 MSTORE PUSH1 0x20 ADD PUSH1 0x0 KECCAK256 DUP2 SWAP1 SSTORE POP DUP1 DUP1 PUSH1 0x1 ADD SWAP2 POP POP PUSH2 0x53BE JUMP JUMPDEST POP PUSH1 0x7 PUSH1 0x0 CALLER PUSH20 0xFFFFFFFFFFFFFFFFFFFFFFFFFFFFFFFFFFFFFFFF AND PUSH20 0xFFFFFFFFFFFFFFFFFFFFFFFFFFFFFFFFFFFFFFFF AND DUP2 MSTORE PUSH1 0x20 ADD SWAP1 DUP2 MSTORE PUSH1 0x20 ADD PUSH1 0x0 KECCAK256 PUSH1 0x40 MLOAD DUP1 PUSH1 0xE0 ADD PUSH1 0x40 MSTORE DUP1 DUP6 DUP2 MSTORE PUSH1 0x20 ADD PUSH1 0x2 PUSH1 0x0 SWAP1 SLOAD SWAP1 PUSH2 0x100 EXP SWAP1 DIV PUSH20 0xFFFFFFFFFFFFFFFFFFFFFFFFFFFFFFFFFFFFFFFF AND PUSH20 0xFFFFFFFFFFFFFFFFFFFFFFFFFFFFFFFFFFFFFFFF AND PUSH4 0xB81F90F3 PUSH1 0x40 MLOAD DUP2 PUSH4 0xFFFFFFFF AND PUSH1 0xE0 SHL DUP2 MSTORE PUSH1 0x4 ADD PUSH1 0x20 PUSH1 0x40 MLOAD DUP1 DUP4 SUB DUP2 DUP7 DUP1 EXTCODESIZE ISZERO DUP1 ISZERO PUSH2 0x54B8 JUMPI PUSH1 0x0 DUP1 REVERT JUMPDEST POP GAS STATICCALL ISZERO DUP1 ISZERO PUSH2 0x54CC JUMPI RETURNDATASIZE PUSH1 0x0 DUP1 RETURNDATACOPY RETURNDATASIZE PUSH1 0x0 REVERT JUMPDEST POP POP POP POP PUSH1 0x40 MLOAD RETURNDATASIZE PUSH1 0x20 DUP2 LT ISZERO PUSH2 0x54E2 JUMPI PUSH1 0x0 DUP1 REVERT JUMPDEST DUP2 ADD SWAP1 DUP1 DUP1 MLOAD SWAP1 PUSH1 0x20 ADD SWAP1 SWAP3 SWAP2 SWAP1 POP POP POP DUP2 MSTORE PUSH1 0x20 ADD PUSH2 0x5500 PUSH2 0x4A92 JUMP JUMPDEST DUP2 MSTORE PUSH1 0x20 ADD DUP5 DUP2 MSTORE PUSH1 0x20 ADD PUSH1 0x1 DUP2 MSTORE PUSH1 0x20 ADD PUSH1 0x0 DUP2 MSTORE PUSH1 0x20 ADD PUSH1 0x0 DUP2 MSTORE POP SWAP1 DUP1 PUSH1 0x1 DUP2 SLOAD ADD DUP1 DUP3 SSTORE DUP1 SWAP2 POP POP SWAP1 PUSH1 0x1 DUP3 SUB SWAP1 PUSH1 0x0 MSTORE PUSH1 0x20 PUSH1 0x0 KECCAK256 SWAP1 PUSH1 0x9 MUL ADD PUSH1 0x0 SWAP1 SWAP2 SWAP3 SWAP1 SWAP2 SWAP1 SWAP2 POP PUSH1 0x0 DUP3 ADD MLOAD DUP2 PUSH1 0x0 ADD SSTORE PUSH1 0x20 DUP3 ADD MLOAD DUP2 PUSH1 0x1 ADD SSTORE PUSH1 0x40 DUP3 ADD MLOAD DUP2 PUSH1 0x2 ADD SSTORE PUSH1 0x60 DUP3 ADD MLOAD DUP2 PUSH1 0x3 ADD SSTORE PUSH1 0x80 DUP3 ADD MLOAD DUP2 PUSH1 0x4 ADD SSTORE PUSH1 0xA0 DUP3 ADD MLOAD DUP2 PUSH1 0x5 ADD SSTORE PUSH1 0xC0 DUP3 ADD MLOAD DUP2 PUSH1 0x6 ADD SSTORE POP POP POP DUP2 CALLER PUSH20 0xFFFFFFFFFFFFFFFFFFFFFFFFFFFFFFFFFFFFFFFF AND PUSH32 0x680A0E2E97AD7C29DA7985E37B699F19857C055166F801E50D90661EAE30FCC3 DUP6 PUSH1 0x1 PUSH1 0x7 PUSH1 0x0 CALLER PUSH20 0xFFFFFFFFFFFFFFFFFFFFFFFFFFFFFFFFFFFFFFFF AND PUSH20 0xFFFFFFFFFFFFFFFFFFFFFFFFFFFFFFFFFFFFFFFF AND DUP2 MSTORE PUSH1 0x20 ADD SWAP1 DUP2 MSTORE PUSH1 0x20 ADD PUSH1 0x0 KECCAK256 DUP1 SLOAD SWAP1 POP SUB PUSH1 0x40 MLOAD DUP1 DUP4 DUP2 MSTORE PUSH1 0x20 ADD DUP3 DUP2 MSTORE PUSH1 0x20 ADD SWAP3 POP POP POP PUSH1 0x40 MLOAD DUP1 SWAP2 SUB SWAP1 LOG3 POP POP POP JUMP JUMPDEST PUSH1 0x3 PUSH1 0x0 SWAP1 SLOAD SWAP1 PUSH2 0x100 EXP SWAP1 DIV PUSH20 0xFFFFFFFFFFFFFFFFFFFFFFFFFFFFFFFFFFFFFFFF AND PUSH20 0xFFFFFFFFFFFFFFFFFFFFFFFFFFFFFFFFFFFFFFFF AND CALLER PUSH20 0xFFFFFFFFFFFFFFFFFFFFFFFFFFFFFFFFFFFFFFFF AND EQ PUSH2 0x568D JUMPI PUSH1 0x0 DUP1 REVERT JUMPDEST PUSH1 0xB DUP2 SWAP1 DUP1 PUSH1 0x1 DUP2 SLOAD ADD DUP1 DUP3 SSTORE DUP1 SWAP2 POP POP SWAP1 PUSH1 0x1 DUP3 SUB SWAP1 PUSH1 0x0 MSTORE PUSH1 0x20 PUSH1 0x0 KECCAK256 ADD PUSH1 0x0 SWAP1 SWAP2 SWAP3 SWAP1 SWAP2 SWAP1 SWAP2 POP SSTORE POP POP JUMP JUMPDEST PUSH1 0x0 DUP1 SWAP1 POP JUMPDEST DUP2 MLOAD DUP2 LT ISZERO PUSH2 0x5A6E JUMPI PUSH2 0x57EC PUSH2 0x576F PUSH1 0x4 SLOAD PUSH1 0x5 PUSH1 0x7 PUSH1 0x0 CALLER PUSH20 0xFFFFFFFFFFFFFFFFFFFFFFFFFFFFFFFFFFFFFFFF AND PUSH20 0xFFFFFFFFFFFFFFFFFFFFFFFFFFFFFFFFFFFFFFFF AND DUP2 MSTORE PUSH1 0x20 ADD SWAP1 DUP2 MSTORE PUSH1 0x20 ADD PUSH1 0x0 KECCAK256 DUP7 DUP7 DUP2 MLOAD DUP2 LT PUSH2 0x5721 JUMPI INVALID JUMPDEST PUSH1 0x20 MUL PUSH1 0x20 ADD ADD MLOAD DUP2 SLOAD DUP2 LT PUSH2 0x5733 JUMPI INVALID JUMPDEST SWAP1 PUSH1 0x0 MSTORE PUSH1 0x20 PUSH1 0x0 KECCAK256 SWAP1 PUSH1 0x9 MUL ADD PUSH1 0x3 ADD SLOAD DUP2 SLOAD DUP2 LT PUSH2 0x574F JUMPI INVALID JUMPDEST SWAP1 PUSH1 0x0 MSTORE PUSH1 0x20 PUSH1 0x0 KECCAK256 SWAP1 PUSH1 0x3 MUL ADD PUSH1 0x0 ADD SLOAD PUSH2 0x5A98 SWAP1 SWAP2 SWAP1 PUSH4 0xFFFFFFFF AND JUMP JUMPDEST PUSH1 0x7 PUSH1 0x0 CALLER PUSH20 0xFFFFFFFFFFFFFFFFFFFFFFFFFFFFFFFFFFFFFFFF AND PUSH20 0xFFFFFFFFFFFFFFFFFFFFFFFFFFFFFFFFFFFFFFFF AND DUP2 MSTORE PUSH1 0x20 ADD SWAP1 DUP2 MSTORE PUSH1 0x20 ADD PUSH1 0x0 KECCAK256 DUP5 DUP5 DUP2 MLOAD DUP2 LT PUSH2 0x57BA JUMPI INVALID JUMPDEST PUSH1 0x20 MUL PUSH1 0x20 ADD ADD MLOAD DUP2 SLOAD DUP2 LT PUSH2 0x57CC JUMPI INVALID JUMPDEST SWAP1 PUSH1 0x0 MSTORE PUSH1 0x20 PUSH1 0x0 KECCAK256 SWAP1 PUSH1 0x9 MUL ADD PUSH1 0x1 ADD SLOAD PUSH2 0x5AD2 SWAP1 SWAP2 SWAP1 PUSH4 0xFFFFFFFF AND JUMP JUMPDEST PUSH1 0x2 PUSH1 0x0 SWAP1 SLOAD SWAP1 PUSH2 0x100 EXP SWAP1 DIV PUSH20 0xFFFFFFFFFFFFFFFFFFFFFFFFFFFFFFFFFFFFFFFF AND PUSH20 0xFFFFFFFFFFFFFFFFFFFFFFFFFFFFFFFFFFFFFFFF AND PUSH4 0xB81F90F3 PUSH1 0x40 MLOAD DUP2 PUSH4 0xFFFFFFFF AND PUSH1 0xE0 SHL DUP2 MSTORE PUSH1 0x4 ADD PUSH1 0x20 PUSH1 0x40 MLOAD DUP1 DUP4 SUB DUP2 DUP7 DUP1 EXTCODESIZE ISZERO DUP1 ISZERO PUSH2 0x5854 JUMPI PUSH1 0x0 DUP1 REVERT JUMPDEST POP GAS STATICCALL ISZERO DUP1 ISZERO PUSH2 0x5868 JUMPI RETURNDATASIZE PUSH1 0x0 DUP1 RETURNDATACOPY RETURNDATASIZE PUSH1 0x0 REVERT JUMPDEST POP POP POP POP PUSH1 0x40 MLOAD RETURNDATASIZE PUSH1 0x20 DUP2 LT ISZERO PUSH2 0x587E JUMPI PUSH1 0x0 DUP1 REVERT JUMPDEST DUP2 ADD SWAP1 DUP1 DUP1 MLOAD SWAP1 PUSH1 0x20 ADD SWAP1 SWAP3 SWAP2 SWAP1 POP POP POP LT ISZERO PUSH2 0x589A JUMPI PUSH1 0x0 DUP1 REVERT JUMPDEST PUSH1 0x3 PUSH1 0x7 PUSH1 0x0 CALLER PUSH20 0xFFFFFFFFFFFFFFFFFFFFFFFFFFFFFFFFFFFFFFFF AND PUSH20 0xFFFFFFFFFFFFFFFFFFFFFFFFFFFFFFFFFFFFFFFF AND DUP2 MSTORE PUSH1 0x20 ADD SWAP1 DUP2 MSTORE PUSH1 0x20 ADD PUSH1 0x0 KECCAK256 DUP4 DUP4 DUP2 MLOAD DUP2 LT PUSH2 0x58E7 JUMPI INVALID JUMPDEST PUSH1 0x20 MUL PUSH1 0x20 ADD ADD MLOAD DUP2 SLOAD DUP2 LT PUSH2 0x58F9 JUMPI INVALID JUMPDEST SWAP1 PUSH1 0x0 MSTORE PUSH1 0x20 PUSH1 0x0 KECCAK256 SWAP1 PUSH1 0x9 MUL ADD PUSH1 0x4 ADD DUP2 SWAP1 SSTORE POP PUSH1 0x2 PUSH1 0x0 SWAP1 SLOAD SWAP1 PUSH2 0x100 EXP SWAP1 DIV PUSH20 0xFFFFFFFFFFFFFFFFFFFFFFFFFFFFFFFFFFFFFFFF AND PUSH20 0xFFFFFFFFFFFFFFFFFFFFFFFFFFFFFFFFFFFFFFFF AND PUSH4 0xA9059CBB CALLER PUSH1 0x7 PUSH1 0x0 CALLER PUSH20 0xFFFFFFFFFFFFFFFFFFFFFFFFFFFFFFFFFFFFFFFF AND PUSH20 0xFFFFFFFFFFFFFFFFFFFFFFFFFFFFFFFFFFFFFFFF AND DUP2 MSTORE PUSH1 0x20 ADD SWAP1 DUP2 MSTORE PUSH1 0x20 ADD PUSH1 0x0 KECCAK256 DUP6 DUP6 DUP2 MLOAD DUP2 LT PUSH2 0x5998 JUMPI INVALID JUMPDEST PUSH1 0x20 MUL PUSH1 0x20 ADD ADD MLOAD DUP2 SLOAD DUP2 LT PUSH2 0x59AA JUMPI INVALID JUMPDEST SWAP1 PUSH1 0x0 MSTORE PUSH1 0x20 PUSH1 0x0 KECCAK256 SWAP1 PUSH1 0x9 MUL ADD PUSH1 0x0 ADD SLOAD PUSH1 0x40 MLOAD DUP4 PUSH4 0xFFFFFFFF AND PUSH1 0xE0 SHL DUP2 MSTORE PUSH1 0x4 ADD DUP1 DUP4 PUSH20 0xFFFFFFFFFFFFFFFFFFFFFFFFFFFFFFFFFFFFFFFF AND PUSH20 0xFFFFFFFFFFFFFFFFFFFFFFFFFFFFFFFFFFFFFFFF AND DUP2 MSTORE PUSH1 0x20 ADD DUP3 DUP2 MSTORE PUSH1 0x20 ADD SWAP3 POP POP POP PUSH1 0x20 PUSH1 0x40 MLOAD DUP1 DUP4 SUB DUP2 PUSH1 0x0 DUP8 DUP1 EXTCODESIZE ISZERO DUP1 ISZERO PUSH2 0x5A25 JUMPI PUSH1 0x0 DUP1 REVERT JUMPDEST POP GAS CALL ISZERO DUP1 ISZERO PUSH2 0x5A39 JUMPI RETURNDATASIZE PUSH1 0x0 DUP1 RETURNDATACOPY RETURNDATASIZE PUSH1 0x0 REVERT JUMPDEST POP POP POP POP PUSH1 0x40 MLOAD RETURNDATASIZE PUSH1 0x20 DUP2 LT ISZERO PUSH2 0x5A4F JUMPI PUSH1 0x0 DUP1 REVERT JUMPDEST DUP2 ADD SWAP1 DUP1 DUP1 MLOAD SWAP1 PUSH1 0x20 ADD SWAP1 SWAP3 SWAP2 SWAP1 POP POP POP POP DUP1 DUP1 PUSH1 0x1 ADD SWAP2 POP POP PUSH2 0x56C2 JUMP JUMPDEST POP POP JUMP JUMPDEST PUSH1 0x2 PUSH1 0x0 SWAP1 SLOAD SWAP1 PUSH2 0x100 EXP SWAP1 DIV PUSH20 0xFFFFFFFFFFFFFFFFFFFFFFFFFFFFFFFFFFFFFFFF AND DUP2 JUMP JUMPDEST PUSH1 0x0 DUP1 DUP4 EQ ISZERO PUSH2 0x5AAB JUMPI PUSH1 0x0 SWAP1 POP PUSH2 0x5ACC JUMP JUMPDEST PUSH1 0x0 DUP3 DUP5 MUL SWAP1 POP DUP3 DUP5 DUP3 DUP2 PUSH2 0x5ABC JUMPI INVALID JUMPDEST DIV EQ PUSH2 0x5AC7 JUMPI PUSH1 0x0 DUP1 REVERT JUMPDEST DUP1 SWAP2 POP POP JUMPDEST SWAP3 SWAP2 POP POP JUMP JUMPDEST PUSH1 0x0 DUP1 DUP3 DUP5 ADD SWAP1 POP DUP4 DUP2 LT ISZERO PUSH2 0x5AE7 JUMPI PUSH1 0x0 DUP1 REVERT JUMPDEST DUP1 SWAP2 POP POP SWAP3 SWAP2 POP POP JUMP JUMPDEST PUSH1 0x0 DUP3 DUP3 GT ISZERO PUSH2 0x5B00 JUMPI PUSH1 0x0 DUP1 REVERT JUMPDEST PUSH1 0x0 DUP3 DUP5 SUB SWAP1 POP DUP1 SWAP2 POP POP SWAP3 SWAP2 POP POP JUMP JUMPDEST PUSH1 0x0 DUP1 DUP3 GT PUSH2 0x5B1F JUMPI PUSH1 0x0 DUP1 REVERT JUMPDEST PUSH1 0x0 DUP3 DUP5 DUP2 PUSH2 0x5B2A JUMPI INVALID JUMPDEST DIV SWAP1 POP DUP1 SWAP2 POP POP SWAP3 SWAP2 POP POP JUMP JUMPDEST DUP3 DUP1 SLOAD DUP3 DUP3 SSTORE SWAP1 PUSH1 0x0 MSTORE PUSH1 0x20 PUSH1 0x0 KECCAK256 SWAP1 DUP2 ADD SWAP3 DUP3 ISZERO PUSH2 0x5B73 JUMPI SWAP2 PUSH1 0x20 MUL DUP3 ADD JUMPDEST DUP3 DUP2 GT ISZERO PUSH2 0x5B72 JUMPI DUP3 MLOAD DUP3 SSTORE SWAP2 PUSH1 0x20 ADD SWAP2 SWAP1 PUSH1 0x1 ADD SWAP1 PUSH2 0x5B57 JUMP JUMPDEST JUMPDEST POP SWAP1 POP PUSH2 0x5B80 SWAP2 SWAP1 PUSH2 0x5B84 JUMP JUMPDEST POP SWAP1 JUMP JUMPDEST PUSH2 0x5BA6 SWAP2 SWAP1 JUMPDEST DUP1 DUP3 GT ISZERO PUSH2 0x5BA2 JUMPI PUSH1 0x0 DUP2 PUSH1 0x0 SWAP1 SSTORE POP PUSH1 0x1 ADD PUSH2 0x5B8A JUMP JUMPDEST POP SWAP1 JUMP JUMPDEST SWAP1 JUMP INVALID LOG2 PUSH6 0x627A7A723058 KECCAK256 0xc7 0xf DIFFICULTY 0x24 0xef DUP16 0xe3 MOD 0xaf SWAP13 0xb8 0xce 0xed MSIZE DUP3 DUP7 0xe8 0xd9 0xca 0xc9 0xdf PUSH8 0x7DD7E5C424D9A84B SLOAD EXTCODESIZE PUSH5 0x736F6C6343 STOP SDIV EXP STOP ORIGIN "},"gasEstimates":{"creation":{"codeDepositCost":"4703600","executionCost":"infinite","totalCost":"infinite"},"external":{"addNominee(uint256,address,uint256)":"infinite","burnDefaultedLoans(address[],uint256[])":"infinite","claimLaunchReward(uint256)":"infinite","createLoanPlan(uint256,uint256)":"61016","createStakingPlan(uint256,uint256,bool)":"101758","getCurrentMonth()":"516","getNumberOfStakingsByUser(address)":"716","giveLaunchReward(address[],uint256[])":"infinite","increaseMonth(uint256)":"40895","isStakingActive(address,uint256,uint256)":"infinite","launchReward(address)":"681","loanPlans(uint256)":"1126","loans(address,uint256)":"1645","newStaking(uint256,uint256)":"infinite","nomineeWithdraw(address,uint256)":"infinite","nrtManager()":"500","owner()":"542","removeNominee(uint256,address)":"infinite","repayLoanSelf(uint256)":"infinite","seeBenefitOfAStakingByMonths(address,uint256,uint256[])":"infinite","seeMaxLoaningAmountOnUserStakings(address,uint256[])":"infinite","stakingPlans(uint256)":"1715","stakings(address,uint256)":"2386","takeLoanOnSelfStaking(uint256,uint256,uint256[])":"infinite","timeAllyMonthlyNRT(uint256)":"893","toggleStakingPlan(uint256)":"21665","token()":"563","topupRewardBucket(uint256)":"infinite","totalActiveStakings(uint256)":"653","viewNomination(address,uint256,address)":"1115","withdrawBenefitOfAStakingByMonths(uint256,uint256[])":"infinite","withdrawExpiredStakings(uint256[])":"infinite"}},"methodIdentifiers":{"addNominee(uint256,address,uint256)":"a4c0e90a","burnDefaultedLoans(address[],uint256[])":"16d3e966","claimLaunchReward(uint256)":"da9d8aa0","createLoanPlan(uint256,uint256)":"82f97857","createStakingPlan(uint256,uint256,bool)":"778db8d4","getCurrentMonth()":"ddd1b67e","getNumberOfStakingsByUser(address)":"ad998fa0","giveLaunchReward(address[],uint256[])":"88c5f296","increaseMonth(uint256)":"e78c81c4","isStakingActive(address,uint256,uint256)":"d58424a3","launchReward(address)":"7acab857","loanPlans(uint256)":"cc44a2fd","loans(address,uint256)":"98c61c37","newStaking(uint256,uint256)":"e5fd04e6","nomineeWithdraw(address,uint256)":"911e8bc6","nrtManager()":"0df5202f","owner()":"8da5cb5b","removeNominee(uint256,address)":"4f916fb0","repayLoanSelf(uint256)":"dea6cf43","seeBenefitOfAStakingByMonths(address,uint256,uint256[])":"2c779774","seeMaxLoaningAmountOnUserStakings(address,uint256[])":"be4ad9c3","stakingPlans(uint256)":"762e7a34","stakings(address,uint256)":"1849d8ea","takeLoanOnSelfStaking(uint256,uint256,uint256[])":"d0e32681","timeAllyMonthlyNRT(uint256)":"23a15e6b","toggleStakingPlan(uint256)":"c22251b3","token()":"fc0c546a","topupRewardBucket(uint256)":"53fcb2f3","totalActiveStakings(uint256)":"4ec0692c","viewNomination(address,uint256,address)":"2e9721b6","withdrawBenefitOfAStakingByMonths(uint256,uint256[])":"9d0b8b44","withdrawExpiredStakings(uint256[])":"e83f7843"}},"userdoc":{"methods":{"addNominee(uint256,address,uint256)":{"notice":"this function is used to add nominee to a staking"},"claimLaunchReward(uint256)":{"notice":"this function is used by rewardees to claim their accrued rewards. This is also used by stakers to restake their 50% benefit received as rewards"},"constructor":"sets up TimeAlly contract when deployed","createLoanPlan(uint256,uint256)":{"notice":"this function is used by owner to create plans for new loans"},"createStakingPlan(uint256,uint256,bool)":{"notice":"this function is used by owner to create plans for new stakings"},"getCurrentMonth()":{"notice":"TimeAlly month is dependent on the monthly NRT release"},"getNumberOfStakingsByUser(address)":{"notice":"this function is used to see total stakings of any user of TimeAlly"},"giveLaunchReward(address[],uint256[])":{"notice":"this function is used to send rewards to multiple users"},"increaseMonth(uint256)":{"notice":"this function is used by NRT manager to communicate NRT release to TimeAlly"},"isStakingActive(address,uint256,uint256)":{"notice":"used internally to see if staking is active or not. does not include if staking is claimed."},"newStaking(uint256,uint256)":{"notice":"takes ES from user and locks it for a time according to plan selected by user"},"nomineeWithdraw(address,uint256)":{"notice":"this function is used by nominee to withdraw their share of a staking after 1 year of the end of tenure of staking"},"removeNominee(uint256,address)":{"notice":"this function is used to remove nomination of a address"},"repayLoanSelf(uint256)":{"notice":"repay loan functionality"},"seeBenefitOfAStakingByMonths(address,uint256,uint256[])":{"notice":"this function is used for seeing the benefits of a staking of any user"},"seeMaxLoaningAmountOnUserStakings(address,uint256[])":{"notice":"this function is used to estimate the maximum amount of loan that any user can take with their stakings"},"takeLoanOnSelfStaking(uint256,uint256,uint256[])":{"notice":"this function is used to take loan on multiple stakings"},"toggleStakingPlan(uint256)":{"notice":"this function is used by owner to deactivate a existing staking plan or activate a deactivated staking plan for new stakings. Deactivating a staking plan does not affect existing stakings with that plan."},"topupRewardBucket(uint256)":{"notice":"this function is used to topup reward balance in smart contract. Rewards are transferable. Anyone with reward balance can only claim it as a new staking."},"viewNomination(address,uint256,address)":{"notice":"this function is used to read the nomination of a nominee address of a staking of a user"},"withdrawBenefitOfAStakingByMonths(uint256,uint256[])":{"notice":"this function is used for withdrawing the benefits of a staking of any user"},"withdrawExpiredStakings(uint256[])":{"notice":"this function is used to withdraw the principle amount of multiple stakings which have their tenure completed"}}}}