{"abi":[{"inputs":[{"internalType":"contract ERC20","name":"_token","type":"address"}],"stateMutability":"nonpayable","type":"constructor"},{"anonymous":false,"inputs":[{"indexed":true,"internalType":"address","name":"_staker","type":"address"},{"indexed":true,"internalType":"uint256","name":"_petId","type":"uint256"},{"indexed":false,"internalType":"uint256","name":"_fromMonthId","type":"uint256"},{"indexed":false,"internalType":"uint256","name":"_toMonthId","type":"uint256"},{"indexed":false,"internalType":"uint256","name":"_withdrawlAmount","type":"uint256"},{"indexed":false,"internalType":"address","name":"_withdrawnBy","type":"address"}],"name":"AnnuityWithdrawl","type":"event"},{"anonymous":false,"inputs":[{"indexed":true,"internalType":"address","name":"_staker","type":"address"},{"indexed":true,"internalType":"uint256","name":"_petId","type":"uint256"},{"indexed":true,"internalType":"address","name":"_appointeeAddress","type":"address"},{"indexed":false,"internalType":"bool","name":"_appointeeStatus","type":"bool"}],"name":"AppointeeUpdated","type":"event"},{"anonymous":false,"inputs":[{"indexed":true,"internalType":"address","name":"_staker","type":"address"},{"indexed":true,"internalType":"uint256","name":"_petId","type":"uint256"},{"indexed":true,"internalType":"address","name":"_appointeeAddress","type":"address"}],"name":"AppointeeVoted","type":"event"},{"anonymous":false,"inputs":[{"indexed":false,"internalType":"address","name":"_staker","type":"address"},{"indexed":false,"internalType":"uint256","name":"_petId","type":"uint256"},{"indexed":false,"internalType":"uint256","name":"_burningAmount","type":"uint256"}],"name":"BoosterBurn","type":"event"},{"anonymous":false,"inputs":[{"indexed":true,"internalType":"address","name":"_staker","type":"address"},{"indexed":true,"internalType":"uint256","name":"_petId","type":"uint256"},{"indexed":false,"internalType":"uint256","name":"_monthId","type":"uint256"},{"indexed":false,"internalType":"uint256","name":"_depositAmount","type":"uint256"},{"indexed":false,"internalType":"address","name":"_depositedBy","type":"address"},{"indexed":false,"internalType":"bool","name":"_usingPrepaidES","type":"bool"}],"name":"NewDeposit","type":"event"},{"anonymous":false,"inputs":[{"indexed":true,"internalType":"address","name":"_staker","type":"address"},{"indexed":false,"internalType":"uint256","name":"_petId","type":"uint256"},{"indexed":false,"internalType":"uint256","name":"_monthlyCommitmentAmount","type":"uint256"}],"name":"NewPET","type":"event"},{"anonymous":false,"inputs":[{"indexed":false,"internalType":"uint256","name":"_minimumMonthlyCommitmentAmount","type":"uint256"},{"indexed":false,"internalType":"uint256","name":"_monthlyBenefitFactorPerThousand","type":"uint256"},{"indexed":false,"internalType":"uint256","name":"_petPlanId","type":"uint256"}],"name":"NewPETPlan","type":"event"},{"anonymous":false,"inputs":[{"indexed":true,"internalType":"address","name":"_staker","type":"address"},{"indexed":true,"internalType":"uint256","name":"_petId","type":"uint256"},{"indexed":true,"internalType":"address","name":"_nomineeAddress","type":"address"},{"indexed":false,"internalType":"bool","name":"_nomineeStatus","type":"bool"}],"name":"NomineeUpdated","type":"event"},{"anonymous":false,"inputs":[{"indexed":true,"internalType":"address","name":"_staker","type":"address"},{"indexed":true,"internalType":"uint256","name":"_petId","type":"uint256"},{"indexed":false,"internalType":"uint256","name":"_powerBoosterId","type":"uint256"},{"indexed":false,"internalType":"uint256","name":"_withdrawlAmount","type":"uint256"},{"indexed":false,"internalType":"address","name":"_withdrawnBy","type":"address"}],"name":"PowerBoosterWithdrawl","type":"event"},{"inputs":[{"internalType":"uint256","name":"_amount","type":"uint256"}],"name":"addToPrepaid","outputs":[],"stateMutability":"nonpayable","type":"function"},{"inputs":[{"internalType":"address","name":"_stakerAddress","type":"address"},{"internalType":"uint256","name":"_petId","type":"uint256"}],"name":"appointeeVote","outputs":[],"stateMutability":"nonpayable","type":"function"},{"inputs":[{"internalType":"address","name":"_stakerAddress","type":"address"},{"internalType":"uint256","name":"_petId","type":"uint256"}],"name":"calculatePowerBoosterAmount","outputs":[{"internalType":"uint256","name":"","type":"uint256"}],"stateMutability":"view","type":"function"},{"inputs":[{"internalType":"uint256","name":"_minimumMonthlyCommitmentAmount","type":"uint256"},{"internalType":"uint256","name":"_monthlyBenefitFactorPerThousand","type":"uint256"}],"name":"createPETPlan","outputs":[],"stateMutability":"nonpayable","type":"function"},{"inputs":[],"name":"deployer","outputs":[{"internalType":"address","name":"","type":"address"}],"stateMutability":"view","type":"function"},{"inputs":[],"name":"fundsBucket","outputs":[{"internalType":"address","name":"","type":"address"}],"stateMutability":"view","type":"function"},{"inputs":[{"internalType":"address","name":"_stakerAddress","type":"address"},{"internalType":"uint256","name":"_petId","type":"uint256"}],"name":"getDepositMonth","outputs":[{"internalType":"uint256","name":"","type":"uint256"}],"stateMutability":"view","type":"function"},{"inputs":[{"internalType":"address","name":"_stakerAddress","type":"address"},{"internalType":"uint256","name":"_petId","type":"uint256"},{"internalType":"uint256","name":"_monthId","type":"uint256"}],"name":"getMonthlyDepositedAmount","outputs":[{"internalType":"uint256","name":"","type":"uint256"}],"stateMutability":"view","type":"function"},{"inputs":[{"internalType":"address","name":"_stakerAddress","type":"address"},{"internalType":"uint256","name":"_petId","type":"uint256"},{"internalType":"uint256","name":"_annuityMonthId","type":"uint256"}],"name":"getNomineeAllowedTimestamp","outputs":[{"internalType":"uint256","name":"","type":"uint256"}],"stateMutability":"view","type":"function"},{"inputs":[{"internalType":"address","name":"_stakerAddress","type":"address"},{"internalType":"uint256","name":"_petId","type":"uint256"},{"internalType":"uint256","name":"_startAnnuityMonthId","type":"uint256"},{"internalType":"uint256","name":"_endAnnuityMonthId","type":"uint256"}],"name":"getSumOfMonthlyAnnuity","outputs":[{"internalType":"uint256","name":"","type":"uint256"}],"stateMutability":"view","type":"function"},{"inputs":[{"internalType":"address","name":"_stakerAddress","type":"address"},{"internalType":"uint256","name":"_petId","type":"uint256"},{"internalType":"uint256","name":"_depositAmount","type":"uint256"},{"internalType":"bool","name":"_usePrepaidES","type":"bool"}],"name":"makeDeposit","outputs":[],"stateMutability":"nonpayable","type":"function"},{"inputs":[{"internalType":"address","name":"_stakerAddress","type":"address"},{"internalType":"uint256","name":"_petId","type":"uint256"},{"internalType":"uint256","name":"_totalDepositAmount","type":"uint256"},{"internalType":"uint256","name":"_frequencyMode","type":"uint256"},{"internalType":"bool","name":"_usePrepaidES","type":"bool"}],"name":"makeFrequencyModeDeposit","outputs":[],"stateMutability":"nonpayable","type":"function"},{"inputs":[{"internalType":"uint256","name":"_planId","type":"uint256"},{"internalType":"uint256","name":"_monthlyCommitmentAmount","type":"uint256"}],"name":"newPET","outputs":[],"stateMutability":"nonpayable","type":"function"},{"inputs":[{"internalType":"uint256","name":"","type":"uint256"}],"name":"petPlans","outputs":[{"internalType":"bool","name":"isPlanActive","type":"bool"},{"internalType":"uint256","name":"minimumMonthlyCommitmentAmount","type":"uint256"},{"internalType":"uint256","name":"monthlyBenefitFactorPerThousand","type":"uint256"}],"stateMutability":"view","type":"function"},{"inputs":[{"internalType":"address","name":"","type":"address"},{"internalType":"uint256","name":"","type":"uint256"}],"name":"pets","outputs":[{"internalType":"uint256","name":"planId","type":"uint256"},{"internalType":"uint256","name":"monthlyCommitmentAmount","type":"uint256"},{"internalType":"uint256","name":"initTimestamp","type":"uint256"},{"internalType":"uint256","name":"lastAnnuityWithdrawlMonthId","type":"uint256"},{"internalType":"uint256","name":"appointeeVotes","type":"uint256"},{"internalType":"uint256","name":"numberOfAppointees","type":"uint256"}],"stateMutability":"view","type":"function"},{"inputs":[{"internalType":"address","name":"","type":"address"}],"name":"prepaidES","outputs":[{"internalType":"uint256","name":"","type":"uint256"}],"stateMutability":"view","type":"function"},{"inputs":[{"internalType":"address[]","name":"_addresses","type":"address[]"},{"internalType":"uint256[]","name":"_amounts","type":"uint256[]"}],"name":"sendPrepaidESDifferent","outputs":[],"stateMutability":"nonpayable","type":"function"},{"inputs":[],"name":"token","outputs":[{"internalType":"contract ERC20","name":"","type":"address"}],"stateMutability":"view","type":"function"},{"inputs":[{"internalType":"uint256","name":"_petId","type":"uint256"},{"internalType":"address","name":"_appointeeAddress","type":"address"},{"internalType":"bool","name":"_newAppointeeStatus","type":"bool"}],"name":"toogleAppointee","outputs":[],"stateMutability":"nonpayable","type":"function"},{"inputs":[{"internalType":"uint256","name":"_petId","type":"uint256"},{"internalType":"address","name":"_nomineeAddress","type":"address"},{"internalType":"bool","name":"_newNomineeStatus","type":"bool"}],"name":"toogleNominee","outputs":[],"stateMutability":"nonpayable","type":"function"},{"inputs":[{"internalType":"uint256","name":"_planId","type":"uint256"},{"internalType":"bool","name":"_newStatus","type":"bool"}],"name":"updatePlanStatus","outputs":[],"stateMutability":"nonpayable","type":"function"},{"inputs":[{"internalType":"address","name":"_stakerAddress","type":"address"},{"internalType":"uint256","name":"_petId","type":"uint256"},{"internalType":"address","name":"_appointeeAddress","type":"address"}],"name":"viewAppointation","outputs":[{"internalType":"bool","name":"","type":"bool"}],"stateMutability":"view","type":"function"},{"inputs":[{"internalType":"address","name":"_stakerAddress","type":"address"},{"internalType":"uint256","name":"_petId","type":"uint256"},{"internalType":"address","name":"_nomineeAddress","type":"address"}],"name":"viewNomination","outputs":[{"internalType":"bool","name":"","type":"bool"}],"stateMutability":"view","type":"function"},{"inputs":[{"internalType":"address","name":"_stakerAddress","type":"address"},{"internalType":"uint256","name":"_petId","type":"uint256"},{"internalType":"uint256","name":"_endAnnuityMonthId","type":"uint256"}],"name":"withdrawAnnuity","outputs":[],"stateMutability":"nonpayable","type":"function"},{"inputs":[{"internalType":"address","name":"_stakerAddress","type":"address"},{"internalType":"uint256","name":"_petId","type":"uint256"},{"internalType":"uint256","name":"_powerBoosterId","type":"uint256"}],"name":"withdrawPowerBooster","outputs":[],"stateMutability":"nonpayable","type":"function"}],"devdoc":{"author":"The EraSwap Team","methods":{"addToPrepaid(uint256)":{"details":"ERC20 approve needs to be done","params":{"_amount":": ES to deposit"}},"appointeeVote(address,uint256)":{"details":"need to be appointee, set by staker themselves","params":{"_petId":": id of PET in staker portfolio.","_stakerAddress":": address of initiater of this PET."}},"calculatePowerBoosterAmount(address,uint256)":{"params":{"_petId":": id of PET in staket address portfolio","_stakerAddress":": address of staker who has PET"},"returns":{"_0":"single power booster amount"}},"constructor":{"params":{"_token":": is EraSwap ERC20 Smart Contract Address"}},"createPETPlan(uint256,uint256)":{"params":{"_minimumMonthlyCommitmentAmount":": minimum PET monthly amount in exaES","_monthlyBenefitFactorPerThousand":": this is per 1000; i.e 200 for 20%"}},"getDepositMonth(address,uint256)":{"params":{"_petId":": id of PET in staket address portfolio","_stakerAddress":": address of staker who has PET"},"returns":{"_0":"current month of a particular PET"}},"getMonthlyDepositedAmount(address,uint256,uint256)":{"params":{"_monthId":": specify the month to deposit","_petId":": id of PET in staket address portfolio","_stakerAddress":": address of staker who has PET"},"returns":{"_0":"deposit in a particular month"}},"getNomineeAllowedTimestamp(address,uint256,uint256)":{"params":{"_annuityMonthId":": this is the month for which timestamp to find","_petId":": id of PET in staker address portfolio","_stakerAddress":": address of staker who has a PET"},"returns":{"_0":"nominee allowed timestamp"}},"getSumOfMonthlyAnnuity(address,uint256,uint256,uint256)":{"params":{"_endAnnuityMonthId":": this is the month (inclusive) to stop at","_petId":": id of PET in staker address portfolio","_stakerAddress":": address of staker who has a PET","_startAnnuityMonthId":": this is the month (inclusive) to start from"}},"makeDeposit(address,uint256,uint256,bool)":{"details":"ERC20 approve is required to be done for this contract earlier if prepaidES   is not selected, enough funds must be there in the funds bucket contract   and also deposit can be done by nominee","params":{"_depositAmount":": amount to deposit","_petId":": id of PET in staker address portfolio","_stakerAddress":": address of staker who has a PET","_usePrepaidES":": should prepaidES be used"}},"makeFrequencyModeDeposit(address,uint256,uint256,uint256,bool)":{"details":"lum sum deposit is possible in the first month in a fresh PET","params":{"_frequencyMode":": can be 3, 6 or 12","_petId":": id of PET in staker address portfolio","_stakerAddress":": address of staker who has a PET","_totalDepositAmount":": total amount to deposit for 12 months","_usePrepaidES":": should prepaidES be used"}},"newPET(uint256,uint256)":{"params":{"_monthlyCommitmentAmount":": PET monthly commitment amount in exaES","_planId":": id of PET in staker portfolio"}},"sendPrepaidESDifferent(address[],uint256[])":{"details":"some ES already in prepaid required","params":{"_addresses":": address array to send prepaid ES for PET","_amounts":": prepaid ES for PET amounts to send to corresponding addresses"}},"toogleAppointee(uint256,address,bool)":{"params":{"_appointeeAddress":": eth wallet address of appointee.","_newAppointeeStatus":": true or false, should this have appointee rights or not.","_petId":": id of PET in staker portfolio."}},"toogleNominee(uint256,address,bool)":{"params":{"_newNomineeStatus":": true or false, whether this should be a nominee or not.","_nomineeAddress":": eth wallet address of nominee.","_petId":": id of PET in staker portfolio."}},"updatePlanStatus(uint256,bool)":{"details":"pets already initiated by a plan will continue only new will be restricted","params":{"_newStatus":": true or false.","_planId":": select a plan to make it inactive"}},"viewAppointation(address,uint256,address)":{"params":{"_appointeeAddress":": eth wallet address of apointee.","_petId":": id of PET in staker portfolio.","_stakerAddress":": address of initiater of this PET."},"returns":{"_0":"tells whether this address is a appointee or not"}},"viewNomination(address,uint256,address)":{"params":{"_nomineeAddress":": eth wallet address of nominee.","_petId":": id of PET in staker portfolio.","_stakerAddress":": address of initiater of this PET."},"returns":{"_0":"tells whether this address is a nominee or not"}},"withdrawAnnuity(address,uint256,uint256)":{"params":{"_endAnnuityMonthId":": this is the month upto which benefits to be withdrawn","_petId":": id of PET in staker address portfolio","_stakerAddress":": address of staker who has a PET"}},"withdrawPowerBooster(address,uint256,uint256)":{"params":{"_petId":": id of PET in staker address portfolio","_powerBoosterId":": this is serial of power booster","_stakerAddress":": address of staker who has a PET"}}},"title":"TimeAlly Personal EraSwap Teller Smart Contract"},"evm":{"assembly":"    /* \"TimeAllyPET.sol\":3521:33606  contract TimeAllyPET {... */\n  mstore(0x40, 0x80)\n    /* \"TimeAllyPET.sol\":7674:7826  constructor(ERC20 _token) public {... */\n  callvalue\n    /* \"--CODEGEN--\":8:17   */\n  dup1\n    /* \"--CODEGEN--\":5:7   */\n  iszero\n  tag_1\n  jumpi\n    /* \"--CODEGEN--\":30:31   */\n  0x00\n    /* \"--CODEGEN--\":27:28   */\n  dup1\n    /* \"--CODEGEN--\":20:32   */\n  revert\n    /* \"--CODEGEN--\":5:7   */\ntag_1:\n    /* \"TimeAllyPET.sol\":7674:7826  constructor(ERC20 _token) public {... */\n  pop\n  mload(0x40)\n  sub(codesize, bytecodeSize)\n  dup1\n  bytecodeSize\n  dup4\n  codecopy\n  dup2\n  dup2\n  add\n  0x40\n  mstore\n    /* \"--CODEGEN--\":13:15   */\n  0x20\n    /* \"--CODEGEN--\":8:11   */\n  dup2\n    /* \"--CODEGEN--\":5:16   */\n  lt\n    /* \"--CODEGEN--\":2:4   */\n  iszero\n  tag_2\n  jumpi\n    /* \"--CODEGEN--\":29:30   */\n  0x00\n    /* \"--CODEGEN--\":26:27   */\n  dup1\n    /* \"--CODEGEN--\":19:31   */\n  revert\n    /* \"--CODEGEN--\":2:4   */\ntag_2:\n    /* \"TimeAllyPET.sol\":7674:7826  constructor(ERC20 _token) public {... */\n  dup2\n  add\n  swap1\n  dup1\n  dup1\n  mload\n  swap1\n  0x20\n  add\n  swap1\n  swap3\n  swap2\n  swap1\n  pop\n  pop\n  pop\n    /* \"TimeAllyPET.sol\":7724:7734  msg.sender */\n  caller\n    /* \"TimeAllyPET.sol\":7713:7721  deployer */\n  0x00\n  dup1\n    /* \"TimeAllyPET.sol\":7713:7734  deployer = msg.sender */\n  0x0100\n  exp\n  dup2\n  sload\n  dup2\n  0xffffffffffffffffffffffffffffffffffffffff\n  mul\n  not\n  and\n  swap1\n  dup4\n  0xffffffffffffffffffffffffffffffffffffffff\n  and\n  mul\n  or\n  swap1\n  sstore\n  pop\n    /* \"TimeAllyPET.sol\":7748:7754  _token */\n  dup1\n    /* \"TimeAllyPET.sol\":7740:7745  token */\n  0x02\n  0x00\n    /* \"TimeAllyPET.sol\":7740:7754  token = _token */\n  0x0100\n  exp\n  dup2\n  sload\n  dup2\n  0xffffffffffffffffffffffffffffffffffffffff\n  mul\n  not\n  and\n  swap1\n  dup4\n  0xffffffffffffffffffffffffffffffffffffffff\n  and\n  mul\n  or\n  swap1\n  sstore\n  pop\n    /* \"TimeAllyPET.sol\":7801:7807  _token */\n  dup1\n    /* \"TimeAllyPET.sol\":7809:7819  msg.sender */\n  caller\n    /* \"TimeAllyPET.sol\":7782:7820  new FundsBucketPET(_token, msg.sender) */\n  mload(0x40)\n  tag_5\n  swap1\n  tag_6\n  jump\t// in\ntag_5:\n  dup1\n  dup4\n  0xffffffffffffffffffffffffffffffffffffffff\n  and\n  0xffffffffffffffffffffffffffffffffffffffff\n  and\n  dup2\n  mstore\n  0x20\n  add\n  dup3\n  0xffffffffffffffffffffffffffffffffffffffff\n  and\n  0xffffffffffffffffffffffffffffffffffffffff\n  and\n  dup2\n  mstore\n  0x20\n  add\n  swap3\n  pop\n  pop\n  pop\n  mload(0x40)\n  dup1\n  swap2\n  sub\n  swap1\n  0x00\n  create\n  dup1\n  iszero\n    /* \"--CODEGEN--\":8:17   */\n  dup1\n    /* \"--CODEGEN--\":5:7   */\n  iszero\n  tag_7\n  jumpi\n    /* \"--CODEGEN--\":45:61   */\n  returndatasize\n    /* \"--CODEGEN--\":42:43   */\n  0x00\n    /* \"--CODEGEN--\":39:40   */\n  dup1\n    /* \"--CODEGEN--\":24:62   */\n  returndatacopy\n    /* \"--CODEGEN--\":77:93   */\n  returndatasize\n    /* \"--CODEGEN--\":74:75   */\n  0x00\n    /* \"--CODEGEN--\":67:94   */\n  revert\n    /* \"--CODEGEN--\":5:7   */\ntag_7:\n    /* \"TimeAllyPET.sol\":7782:7820  new FundsBucketPET(_token, msg.sender) */\n  pop\n    /* \"TimeAllyPET.sol\":7760:7771  fundsBucket */\n  0x01\n  0x00\n    /* \"TimeAllyPET.sol\":7760:7821  fundsBucket = address(new FundsBucketPET(_token, msg.sender)) */\n  0x0100\n  exp\n  dup2\n  sload\n  dup2\n  0xffffffffffffffffffffffffffffffffffffffff\n  mul\n  not\n  and\n  swap1\n  dup4\n  0xffffffffffffffffffffffffffffffffffffffff\n  and\n  mul\n  or\n  swap1\n  sstore\n  pop\n    /* \"TimeAllyPET.sol\":7674:7826  constructor(ERC20 _token) public {... */\n  pop\n    /* \"TimeAllyPET.sol\":3521:33606  contract TimeAllyPET {... */\n  jump(tag_8)\ntag_6:\n  dataSize(sub_1)\n  dup1\n  dataOffset(sub_1)\n  dup4\n  codecopy\n  add\n  swap1\n  jump\t// out\ntag_8:\n  dataSize(sub_0)\n  dup1\n  dataOffset(sub_0)\n  0x00\n  codecopy\n  0x00\n  return\nstop\n\nsub_0: assembly {\n        /* \"TimeAllyPET.sol\":3521:33606  contract TimeAllyPET {... */\n      mstore(0x40, 0x80)\n      callvalue\n        /* \"--CODEGEN--\":8:17   */\n      dup1\n        /* \"--CODEGEN--\":5:7   */\n      iszero\n      tag_1\n      jumpi\n        /* \"--CODEGEN--\":30:31   */\n      0x00\n        /* \"--CODEGEN--\":27:28   */\n      dup1\n        /* \"--CODEGEN--\":20:32   */\n      revert\n        /* \"--CODEGEN--\":5:7   */\n    tag_1:\n        /* \"TimeAllyPET.sol\":3521:33606  contract TimeAllyPET {... */\n      pop\n      jumpi(tag_2, lt(calldatasize, 0x04))\n      shr(0xe0, calldataload(0x00))\n      dup1\n      0x47626531\n      gt\n      tag_28\n      jumpi\n      dup1\n      0x9baf14d4\n      gt\n      tag_29\n      jumpi\n      dup1\n      0xd5f39488\n      gt\n      tag_30\n      jumpi\n      dup1\n      0xd5f39488\n      eq\n      tag_24\n      jumpi\n      dup1\n      0xf713c79e\n      eq\n      tag_25\n      jumpi\n      dup1\n      0xfb0685df\n      eq\n      tag_26\n      jumpi\n      dup1\n      0xfc0c546a\n      eq\n      tag_27\n      jumpi\n      jump(tag_2)\n    tag_30:\n      dup1\n      0x9baf14d4\n      eq\n      tag_21\n      jumpi\n      dup1\n      0xa4003ad4\n      eq\n      tag_22\n      jumpi\n      dup1\n      0xba50531a\n      eq\n      tag_23\n      jumpi\n      jump(tag_2)\n    tag_29:\n      dup1\n      0x47626531\n      eq\n      tag_15\n      jumpi\n      dup1\n      0x4cd963cf\n      eq\n      tag_16\n      jumpi\n      dup1\n      0x51a6349d\n      eq\n      tag_17\n      jumpi\n      dup1\n      0x7838e408\n      eq\n      tag_18\n      jumpi\n      dup1\n      0x81423a26\n      eq\n      tag_19\n      jumpi\n      dup1\n      0x95a0373c\n      eq\n      tag_20\n      jumpi\n      jump(tag_2)\n    tag_28:\n      dup1\n      0x2e9721b6\n      gt\n      tag_31\n      jumpi\n      dup1\n      0x2e9721b6\n      eq\n      tag_9\n      jumpi\n      dup1\n      0x37482ef1\n      eq\n      tag_10\n      jumpi\n      dup1\n      0x3ee20a89\n      eq\n      tag_11\n      jumpi\n      dup1\n      0x3fd46068\n      eq\n      tag_12\n      jumpi\n      dup1\n      0x452f1423\n      eq\n      tag_13\n      jumpi\n      dup1\n      0x45b37ec4\n      eq\n      tag_14\n      jumpi\n      jump(tag_2)\n    tag_31:\n      dup1\n      0x0c254d63\n      eq\n      tag_3\n      jumpi\n      dup1\n      0x0ce57b46\n      eq\n      tag_4\n      jumpi\n      dup1\n      0x1615d204\n      eq\n      tag_5\n      jumpi\n      dup1\n      0x1fdae4b8\n      eq\n      tag_6\n      jumpi\n      dup1\n      0x26f8bea7\n      eq\n      tag_7\n      jumpi\n      dup1\n      0x29929713\n      eq\n      tag_8\n      jumpi\n    tag_2:\n      0x00\n      dup1\n      revert\n        /* \"TimeAllyPET.sol\":14521:16979  function makeDeposit(... */\n    tag_3:\n      tag_32\n      0x04\n      dup1\n      calldatasize\n      sub\n        /* \"--CODEGEN--\":13:16   */\n      0x80\n        /* \"--CODEGEN--\":8:11   */\n      dup2\n        /* \"--CODEGEN--\":5:17   */\n      lt\n        /* \"--CODEGEN--\":2:4   */\n      iszero\n      tag_33\n      jumpi\n        /* \"--CODEGEN--\":30:31   */\n      0x00\n        /* \"--CODEGEN--\":27:28   */\n      dup1\n        /* \"--CODEGEN--\":20:32   */\n      revert\n        /* \"--CODEGEN--\":2:4   */\n    tag_33:\n        /* \"TimeAllyPET.sol\":14521:16979  function makeDeposit(... */\n      dup2\n      add\n      swap1\n      dup1\n      dup1\n      calldataload\n      0xffffffffffffffffffffffffffffffffffffffff\n      and\n      swap1\n      0x20\n      add\n      swap1\n      swap3\n      swap2\n      swap1\n      dup1\n      calldataload\n      swap1\n      0x20\n      add\n      swap1\n      swap3\n      swap2\n      swap1\n      dup1\n      calldataload\n      swap1\n      0x20\n      add\n      swap1\n      swap3\n      swap2\n      swap1\n      dup1\n      calldataload\n      iszero\n      iszero\n      swap1\n      0x20\n      add\n      swap1\n      swap3\n      swap2\n      swap1\n      pop\n      pop\n      pop\n      tag_34\n      jump\t// in\n    tag_32:\n      stop\n        /* \"TimeAllyPET.sol\":11635:12009  function toogleNominee(... */\n    tag_4:\n      tag_35\n      0x04\n      dup1\n      calldatasize\n      sub\n        /* \"--CODEGEN--\":13:15   */\n      0x60\n        /* \"--CODEGEN--\":8:11   */\n      dup2\n        /* \"--CODEGEN--\":5:16   */\n      lt\n        /* \"--CODEGEN--\":2:4   */\n      iszero\n      tag_36\n      jumpi\n        /* \"--CODEGEN--\":29:30   */\n      0x00\n        /* \"--CODEGEN--\":26:27   */\n      dup1\n        /* \"--CODEGEN--\":19:31   */\n      revert\n        /* \"--CODEGEN--\":2:4   */\n    tag_36:\n        /* \"TimeAllyPET.sol\":11635:12009  function toogleNominee(... */\n      dup2\n      add\n      swap1\n      dup1\n      dup1\n      calldataload\n      swap1\n      0x20\n      add\n      swap1\n      swap3\n      swap2\n      swap1\n      dup1\n      calldataload\n      0xffffffffffffffffffffffffffffffffffffffff\n      and\n      swap1\n      0x20\n      add\n      swap1\n      swap3\n      swap2\n      swap1\n      dup1\n      calldataload\n      iszero\n      iszero\n      swap1\n      0x20\n      add\n      swap1\n      swap3\n      swap2\n      swap1\n      pop\n      pop\n      pop\n      tag_37\n      jump\t// in\n    tag_35:\n      stop\n        /* \"TimeAllyPET.sol\":17447:20262  function makeFrequencyModeDeposit(... */\n    tag_5:\n      tag_38\n      0x04\n      dup1\n      calldatasize\n      sub\n        /* \"--CODEGEN--\":13:16   */\n      0xa0\n        /* \"--CODEGEN--\":8:11   */\n      dup2\n        /* \"--CODEGEN--\":5:17   */\n      lt\n        /* \"--CODEGEN--\":2:4   */\n      iszero\n      tag_39\n      jumpi\n        /* \"--CODEGEN--\":30:31   */\n      0x00\n        /* \"--CODEGEN--\":27:28   */\n      dup1\n        /* \"--CODEGEN--\":20:32   */\n      revert\n        /* \"--CODEGEN--\":2:4   */\n    tag_39:\n        /* \"TimeAllyPET.sol\":17447:20262  function makeFrequencyModeDeposit(... */\n      dup2\n      add\n      swap1\n      dup1\n      dup1\n      calldataload\n      0xffffffffffffffffffffffffffffffffffffffff\n      and\n      swap1\n      0x20\n      add\n      swap1\n      swap3\n      swap2\n      swap1\n      dup1\n      calldataload\n      swap1\n      0x20\n      add\n      swap1\n      swap3\n      swap2\n      swap1\n      dup1\n      calldataload\n      swap1\n      0x20\n      add\n      swap1\n      swap3\n      swap2\n      swap1\n      dup1\n      calldataload\n      swap1\n      0x20\n      add\n      swap1\n      swap3\n      swap2\n      swap1\n      dup1\n      calldataload\n      iszero\n      iszero\n      swap1\n      0x20\n      add\n      swap1\n      swap3\n      swap2\n      swap1\n      pop\n      pop\n      pop\n      tag_40\n      jump\t// in\n    tag_38:\n      stop\n        /* \"TimeAllyPET.sol\":27062:27272  function getDepositMonth(... */\n    tag_6:\n      tag_41\n      0x04\n      dup1\n      calldatasize\n      sub\n        /* \"--CODEGEN--\":13:15   */\n      0x40\n        /* \"--CODEGEN--\":8:11   */\n      dup2\n        /* \"--CODEGEN--\":5:16   */\n      lt\n        /* \"--CODEGEN--\":2:4   */\n      iszero\n      tag_42\n      jumpi\n        /* \"--CODEGEN--\":29:30   */\n      0x00\n        /* \"--CODEGEN--\":26:27   */\n      dup1\n        /* \"--CODEGEN--\":19:31   */\n      revert\n        /* \"--CODEGEN--\":2:4   */\n    tag_42:\n        /* \"TimeAllyPET.sol\":27062:27272  function getDepositMonth(... */\n      dup2\n      add\n      swap1\n      dup1\n      dup1\n      calldataload\n      0xffffffffffffffffffffffffffffffffffffffff\n      and\n      swap1\n      0x20\n      add\n      swap1\n      swap3\n      swap2\n      swap1\n      dup1\n      calldataload\n      swap1\n      0x20\n      add\n      swap1\n      swap3\n      swap2\n      swap1\n      pop\n      pop\n      pop\n      tag_43\n      jump\t// in\n    tag_41:\n      mload(0x40)\n      dup1\n      dup3\n      dup2\n      mstore\n      0x20\n      add\n      swap2\n      pop\n      pop\n      mload(0x40)\n      dup1\n      swap2\n      sub\n      swap1\n      return\n        /* \"TimeAllyPET.sol\":7973:8246  function addToPrepaid(uint256 _amount) public {... */\n    tag_7:\n      tag_44\n      0x04\n      dup1\n      calldatasize\n      sub\n        /* \"--CODEGEN--\":13:15   */\n      0x20\n        /* \"--CODEGEN--\":8:11   */\n      dup2\n        /* \"--CODEGEN--\":5:16   */\n      lt\n        /* \"--CODEGEN--\":2:4   */\n      iszero\n      tag_45\n      jumpi\n        /* \"--CODEGEN--\":29:30   */\n      0x00\n        /* \"--CODEGEN--\":26:27   */\n      dup1\n        /* \"--CODEGEN--\":19:31   */\n      revert\n        /* \"--CODEGEN--\":2:4   */\n    tag_45:\n        /* \"TimeAllyPET.sol\":7973:8246  function addToPrepaid(uint256 _amount) public {... */\n      dup2\n      add\n      swap1\n      dup1\n      dup1\n      calldataload\n      swap1\n      0x20\n      add\n      swap1\n      swap3\n      swap2\n      swap1\n      pop\n      pop\n      pop\n      tag_46\n      jump\t// in\n    tag_44:\n      stop\n        /* \"TimeAllyPET.sol\":9164:10131  function newPET(... */\n    tag_8:\n      tag_47\n      0x04\n      dup1\n      calldatasize\n      sub\n        /* \"--CODEGEN--\":13:15   */\n      0x40\n        /* \"--CODEGEN--\":8:11   */\n      dup2\n        /* \"--CODEGEN--\":5:16   */\n      lt\n        /* \"--CODEGEN--\":2:4   */\n      iszero\n      tag_48\n      jumpi\n        /* \"--CODEGEN--\":29:30   */\n      0x00\n        /* \"--CODEGEN--\":26:27   */\n      dup1\n        /* \"--CODEGEN--\":19:31   */\n      revert\n        /* \"--CODEGEN--\":2:4   */\n    tag_48:\n        /* \"TimeAllyPET.sol\":9164:10131  function newPET(... */\n      dup2\n      add\n      swap1\n      dup1\n      dup1\n      calldataload\n      swap1\n      0x20\n      add\n      swap1\n      swap3\n      swap2\n      swap1\n      dup1\n      calldataload\n      swap1\n      0x20\n      add\n      swap1\n      swap3\n      swap2\n      swap1\n      pop\n      pop\n      pop\n      tag_49\n      jump\t// in\n    tag_47:\n      stop\n        /* \"TimeAllyPET.sol\":24583:24787  function viewNomination(... */\n    tag_9:\n      tag_50\n      0x04\n      dup1\n      calldatasize\n      sub\n        /* \"--CODEGEN--\":13:15   */\n      0x60\n        /* \"--CODEGEN--\":8:11   */\n      dup2\n        /* \"--CODEGEN--\":5:16   */\n      lt\n        /* \"--CODEGEN--\":2:4   */\n      iszero\n      tag_51\n      jumpi\n        /* \"--CODEGEN--\":29:30   */\n      0x00\n        /* \"--CODEGEN--\":26:27   */\n      dup1\n        /* \"--CODEGEN--\":19:31   */\n      revert\n        /* \"--CODEGEN--\":2:4   */\n    tag_51:\n        /* \"TimeAllyPET.sol\":24583:24787  function viewNomination(... */\n      dup2\n      add\n      swap1\n      dup1\n      dup1\n      calldataload\n      0xffffffffffffffffffffffffffffffffffffffff\n      and\n      swap1\n      0x20\n      add\n      swap1\n      swap3\n      swap2\n      swap1\n      dup1\n      calldataload\n      swap1\n      0x20\n      add\n      swap1\n      swap3\n      swap2\n      swap1\n      dup1\n      calldataload\n      0xffffffffffffffffffffffffffffffffffffffff\n      and\n      swap1\n      0x20\n      add\n      swap1\n      swap3\n      swap2\n      swap1\n      pop\n      pop\n      pop\n      tag_52\n      jump\t// in\n    tag_50:\n      mload(0x40)\n      dup1\n      dup3\n      iszero\n      iszero\n      iszero\n      iszero\n      dup2\n      mstore\n      0x20\n      add\n      swap2\n      pop\n      pop\n      mload(0x40)\n      dup1\n      swap2\n      sub\n      swap1\n      return\n        /* \"TimeAllyPET.sol\":20538:22349  function withdrawAnnuity(... */\n    tag_10:\n      tag_53\n      0x04\n      dup1\n      calldatasize\n      sub\n        /* \"--CODEGEN--\":13:15   */\n      0x60\n        /* \"--CODEGEN--\":8:11   */\n      dup2\n        /* \"--CODEGEN--\":5:16   */\n      lt\n        /* \"--CODEGEN--\":2:4   */\n      iszero\n      tag_54\n      jumpi\n        /* \"--CODEGEN--\":29:30   */\n      0x00\n        /* \"--CODEGEN--\":26:27   */\n      dup1\n        /* \"--CODEGEN--\":19:31   */\n      revert\n        /* \"--CODEGEN--\":2:4   */\n    tag_54:\n        /* \"TimeAllyPET.sol\":20538:22349  function withdrawAnnuity(... */\n      dup2\n      add\n      swap1\n      dup1\n      dup1\n      calldataload\n      0xffffffffffffffffffffffffffffffffffffffff\n      and\n      swap1\n      0x20\n      add\n      swap1\n      swap3\n      swap2\n      swap1\n      dup1\n      calldataload\n      swap1\n      0x20\n      add\n      swap1\n      swap3\n      swap2\n      swap1\n      dup1\n      calldataload\n      swap1\n      0x20\n      add\n      swap1\n      swap3\n      swap2\n      swap1\n      pop\n      pop\n      pop\n      tag_55\n      jump\t// in\n    tag_53:\n      stop\n        /* \"TimeAllyPET.sol\":4753:4790  mapping(address => PET[]) public pets */\n    tag_11:\n      tag_56\n      0x04\n      dup1\n      calldatasize\n      sub\n        /* \"--CODEGEN--\":13:15   */\n      0x40\n        /* \"--CODEGEN--\":8:11   */\n      dup2\n        /* \"--CODEGEN--\":5:16   */\n      lt\n        /* \"--CODEGEN--\":2:4   */\n      iszero\n      tag_57\n      jumpi\n        /* \"--CODEGEN--\":29:30   */\n      0x00\n        /* \"--CODEGEN--\":26:27   */\n      dup1\n        /* \"--CODEGEN--\":19:31   */\n      revert\n        /* \"--CODEGEN--\":2:4   */\n    tag_57:\n        /* \"TimeAllyPET.sol\":4753:4790  mapping(address => PET[]) public pets */\n      dup2\n      add\n      swap1\n      dup1\n      dup1\n      calldataload\n      0xffffffffffffffffffffffffffffffffffffffff\n      and\n      swap1\n      0x20\n      add\n      swap1\n      swap3\n      swap2\n      swap1\n      dup1\n      calldataload\n      swap1\n      0x20\n      add\n      swap1\n      swap3\n      swap2\n      swap1\n      pop\n      pop\n      pop\n      tag_58\n      jump\t// in\n    tag_56:\n      mload(0x40)\n      dup1\n      dup8\n      dup2\n      mstore\n      0x20\n      add\n      dup7\n      dup2\n      mstore\n      0x20\n      add\n      dup6\n      dup2\n      mstore\n      0x20\n      add\n      dup5\n      dup2\n      mstore\n      0x20\n      add\n      dup4\n      dup2\n      mstore\n      0x20\n      add\n      dup3\n      dup2\n      mstore\n      0x20\n      add\n      swap7\n      pop\n      pop\n      pop\n      pop\n      pop\n      pop\n      pop\n      mload(0x40)\n      dup1\n      swap2\n      sub\n      swap1\n      return\n        /* \"TimeAllyPET.sol\":4362:4388  address public fundsBucket */\n    tag_12:\n      tag_59\n      tag_60\n      jump\t// in\n    tag_59:\n      mload(0x40)\n      dup1\n      dup3\n      0xffffffffffffffffffffffffffffffffffffffff\n      and\n      0xffffffffffffffffffffffffffffffffffffffff\n      and\n      dup2\n      mstore\n      0x20\n      add\n      swap2\n      pop\n      pop\n      mload(0x40)\n      dup1\n      swap2\n      sub\n      swap1\n      return\n        /* \"TimeAllyPET.sol\":28798:29510  function calculatePowerBoosterAmount(... */\n    tag_13:\n      tag_61\n      0x04\n      dup1\n      calldatasize\n      sub\n        /* \"--CODEGEN--\":13:15   */\n      0x40\n        /* \"--CODEGEN--\":8:11   */\n      dup2\n        /* \"--CODEGEN--\":5:16   */\n      lt\n        /* \"--CODEGEN--\":2:4   */\n      iszero\n      tag_62\n      jumpi\n        /* \"--CODEGEN--\":29:30   */\n      0x00\n        /* \"--CODEGEN--\":26:27   */\n      dup1\n        /* \"--CODEGEN--\":19:31   */\n      revert\n        /* \"--CODEGEN--\":2:4   */\n    tag_62:\n        /* \"TimeAllyPET.sol\":28798:29510  function calculatePowerBoosterAmount(... */\n      dup2\n      add\n      swap1\n      dup1\n      dup1\n      calldataload\n      0xffffffffffffffffffffffffffffffffffffffff\n      and\n      swap1\n      0x20\n      add\n      swap1\n      swap3\n      swap2\n      swap1\n      dup1\n      calldataload\n      swap1\n      0x20\n      add\n      swap1\n      swap3\n      swap2\n      swap1\n      pop\n      pop\n      pop\n      tag_63\n      jump\t// in\n    tag_61:\n      mload(0x40)\n      dup1\n      dup3\n      dup2\n      mstore\n      0x20\n      add\n      swap2\n      pop\n      pop\n      mload(0x40)\n      dup1\n      swap2\n      sub\n      swap1\n      return\n        /* \"TimeAllyPET.sol\":10375:10939  function createPETPlan(... */\n    tag_14:\n      tag_64\n      0x04\n      dup1\n      calldatasize\n      sub\n        /* \"--CODEGEN--\":13:15   */\n      0x40\n        /* \"--CODEGEN--\":8:11   */\n      dup2\n        /* \"--CODEGEN--\":5:16   */\n      lt\n        /* \"--CODEGEN--\":2:4   */\n      iszero\n      tag_65\n      jumpi\n        /* \"--CODEGEN--\":29:30   */\n      0x00\n        /* \"--CODEGEN--\":26:27   */\n      dup1\n        /* \"--CODEGEN--\":19:31   */\n      revert\n        /* \"--CODEGEN--\":2:4   */\n    tag_65:\n        /* \"TimeAllyPET.sol\":10375:10939  function createPETPlan(... */\n      dup2\n      add\n      swap1\n      dup1\n      dup1\n      calldataload\n      swap1\n      0x20\n      add\n      swap1\n      swap3\n      swap2\n      swap1\n      dup1\n      calldataload\n      swap1\n      0x20\n      add\n      swap1\n      swap3\n      swap2\n      swap1\n      pop\n      pop\n      pop\n      tag_66\n      jump\t// in\n    tag_64:\n      stop\n        /* \"TimeAllyPET.sol\":27634:28587  function getSumOfMonthlyAnnuity(... */\n    tag_15:\n      tag_67\n      0x04\n      dup1\n      calldatasize\n      sub\n        /* \"--CODEGEN--\":13:16   */\n      0x80\n        /* \"--CODEGEN--\":8:11   */\n      dup2\n        /* \"--CODEGEN--\":5:17   */\n      lt\n        /* \"--CODEGEN--\":2:4   */\n      iszero\n      tag_68\n      jumpi\n        /* \"--CODEGEN--\":30:31   */\n      0x00\n        /* \"--CODEGEN--\":27:28   */\n      dup1\n        /* \"--CODEGEN--\":20:32   */\n      revert\n        /* \"--CODEGEN--\":2:4   */\n    tag_68:\n        /* \"TimeAllyPET.sol\":27634:28587  function getSumOfMonthlyAnnuity(... */\n      dup2\n      add\n      swap1\n      dup1\n      dup1\n      calldataload\n      0xffffffffffffffffffffffffffffffffffffffff\n      and\n      swap1\n      0x20\n      add\n      swap1\n      swap3\n      swap2\n      swap1\n      dup1\n      calldataload\n      swap1\n      0x20\n      add\n      swap1\n      swap3\n      swap2\n      swap1\n      dup1\n      calldataload\n      swap1\n      0x20\n      add\n      swap1\n      swap3\n      swap2\n      swap1\n      dup1\n      calldataload\n      swap1\n      0x20\n      add\n      swap1\n      swap3\n      swap2\n      swap1\n      pop\n      pop\n      pop\n      tag_69\n      jump\t// in\n    tag_67:\n      mload(0x40)\n      dup1\n      dup3\n      dup2\n      mstore\n      0x20\n      add\n      swap2\n      pop\n      pop\n      mload(0x40)\n      dup1\n      swap2\n      sub\n      swap1\n      return\n        /* \"TimeAllyPET.sol\":25625:26316  function getNomineeAllowedTimestamp(... */\n    tag_16:\n      tag_70\n      0x04\n      dup1\n      calldatasize\n      sub\n        /* \"--CODEGEN--\":13:15   */\n      0x60\n        /* \"--CODEGEN--\":8:11   */\n      dup2\n        /* \"--CODEGEN--\":5:16   */\n      lt\n        /* \"--CODEGEN--\":2:4   */\n      iszero\n      tag_71\n      jumpi\n        /* \"--CODEGEN--\":29:30   */\n      0x00\n        /* \"--CODEGEN--\":26:27   */\n      dup1\n        /* \"--CODEGEN--\":19:31   */\n      revert\n        /* \"--CODEGEN--\":2:4   */\n    tag_71:\n        /* \"TimeAllyPET.sol\":25625:26316  function getNomineeAllowedTimestamp(... */\n      dup2\n      add\n      swap1\n      dup1\n      dup1\n      calldataload\n      0xffffffffffffffffffffffffffffffffffffffff\n      and\n      swap1\n      0x20\n      add\n      swap1\n      swap3\n      swap2\n      swap1\n      dup1\n      calldataload\n      swap1\n      0x20\n      add\n      swap1\n      swap3\n      swap2\n      swap1\n      dup1\n      calldataload\n      swap1\n      0x20\n      add\n      swap1\n      swap3\n      swap2\n      swap1\n      pop\n      pop\n      pop\n      tag_72\n      jump\t// in\n    tag_70:\n      mload(0x40)\n      dup1\n      dup3\n      dup2\n      mstore\n      0x20\n      add\n      swap2\n      pop\n      pop\n      mload(0x40)\n      dup1\n      swap2\n      sub\n      swap1\n      return\n        /* \"TimeAllyPET.sol\":8514:8964  function sendPrepaidESDifferent(... */\n    tag_17:\n      tag_73\n      0x04\n      dup1\n      calldatasize\n      sub\n        /* \"--CODEGEN--\":13:15   */\n      0x40\n        /* \"--CODEGEN--\":8:11   */\n      dup2\n        /* \"--CODEGEN--\":5:16   */\n      lt\n        /* \"--CODEGEN--\":2:4   */\n      iszero\n      tag_74\n      jumpi\n        /* \"--CODEGEN--\":29:30   */\n      0x00\n        /* \"--CODEGEN--\":26:27   */\n      dup1\n        /* \"--CODEGEN--\":19:31   */\n      revert\n        /* \"--CODEGEN--\":2:4   */\n    tag_74:\n        /* \"TimeAllyPET.sol\":8514:8964  function sendPrepaidESDifferent(... */\n      dup2\n      add\n      swap1\n      dup1\n      dup1\n      calldataload\n      swap1\n      0x20\n      add\n      swap1\n        /* \"--CODEGEN--\":21:32   */\n      0x0100000000\n        /* \"--CODEGEN--\":8:19   */\n      dup2\n        /* \"--CODEGEN--\":5:33   */\n      gt\n        /* \"--CODEGEN--\":2:4   */\n      iszero\n      tag_75\n      jumpi\n        /* \"--CODEGEN--\":46:47   */\n      0x00\n        /* \"--CODEGEN--\":43:44   */\n      dup1\n        /* \"--CODEGEN--\":36:48   */\n      revert\n        /* \"--CODEGEN--\":2:4   */\n    tag_75:\n        /* \"TimeAllyPET.sol\":8514:8964  function sendPrepaidESDifferent(... */\n      dup3\n      add\n        /* \"--CODEGEN--\":35:44   */\n      dup4\n        /* \"--CODEGEN--\":28:32   */\n      0x20\n        /* \"--CODEGEN--\":12:26   */\n      dup3\n        /* \"--CODEGEN--\":8:33   */\n      add\n        /* \"--CODEGEN--\":5:45   */\n      gt\n        /* \"--CODEGEN--\":2:4   */\n      iszero\n      tag_76\n      jumpi\n        /* \"--CODEGEN--\":58:59   */\n      0x00\n        /* \"--CODEGEN--\":55:56   */\n      dup1\n        /* \"--CODEGEN--\":48:60   */\n      revert\n        /* \"--CODEGEN--\":2:4   */\n    tag_76:\n        /* \"TimeAllyPET.sol\":8514:8964  function sendPrepaidESDifferent(... */\n      dup1\n      calldataload\n      swap1\n      0x20\n      add\n      swap2\n        /* \"--CODEGEN--\":101:110   */\n      dup5\n        /* \"--CODEGEN--\":95:97   */\n      0x20\n        /* \"--CODEGEN--\":81:93   */\n      dup4\n        /* \"--CODEGEN--\":77:98   */\n      mul\n        /* \"--CODEGEN--\":67:75   */\n      dup5\n        /* \"--CODEGEN--\":63:99   */\n      add\n        /* \"--CODEGEN--\":60:111   */\n      gt\n        /* \"--CODEGEN--\":39:50   */\n      0x0100000000\n        /* \"--CODEGEN--\":25:37   */\n      dup4\n        /* \"--CODEGEN--\":22:51   */\n      gt\n        /* \"--CODEGEN--\":11:119   */\n      or\n        /* \"--CODEGEN--\":8:10   */\n      iszero\n      tag_77\n      jumpi\n        /* \"--CODEGEN--\":132:133   */\n      0x00\n        /* \"--CODEGEN--\":129:130   */\n      dup1\n        /* \"--CODEGEN--\":122:134   */\n      revert\n        /* \"--CODEGEN--\":8:10   */\n    tag_77:\n        /* \"TimeAllyPET.sol\":8514:8964  function sendPrepaidESDifferent(... */\n      swap2\n      swap1\n      dup1\n      dup1\n      0x20\n      mul\n      0x20\n      add\n      mload(0x40)\n      swap1\n      dup2\n      add\n      0x40\n      mstore\n      dup1\n      swap4\n      swap3\n      swap2\n      swap1\n      dup2\n      dup2\n      mstore\n      0x20\n      add\n      dup4\n      dup4\n      0x20\n      mul\n        /* \"--CODEGEN--\":30:33   */\n      dup1\n        /* \"--CODEGEN--\":22:28   */\n      dup3\n        /* \"--CODEGEN--\":14:20   */\n      dup5\n        /* \"--CODEGEN--\":1:34   */\n      calldatacopy\n        /* \"--CODEGEN--\":99:100   */\n      0x00\n        /* \"--CODEGEN--\":93:96   */\n      dup2\n        /* \"--CODEGEN--\":85:91   */\n      dup5\n        /* \"--CODEGEN--\":81:97   */\n      add\n        /* \"--CODEGEN--\":74:101   */\n      mstore\n        /* \"--CODEGEN--\":137:141   */\n      0x1f\n        /* \"--CODEGEN--\":133:142   */\n      not\n        /* \"--CODEGEN--\":126:130   */\n      0x1f\n        /* \"--CODEGEN--\":121:124   */\n      dup3\n        /* \"--CODEGEN--\":117:131   */\n      add\n        /* \"--CODEGEN--\":113:143   */\n      and\n        /* \"--CODEGEN--\":106:143   */\n      swap1\n      pop\n        /* \"--CODEGEN--\":169:172   */\n      dup1\n        /* \"--CODEGEN--\":161:167   */\n      dup4\n        /* \"--CODEGEN--\":157:173   */\n      add\n        /* \"--CODEGEN--\":147:173   */\n      swap3\n      pop\n        /* \"TimeAllyPET.sol\":8514:8964  function sendPrepaidESDifferent(... */\n      pop\n      pop\n      pop\n      pop\n      pop\n      pop\n      swap2\n      swap3\n      swap2\n      swap3\n      swap1\n      dup1\n      calldataload\n      swap1\n      0x20\n      add\n      swap1\n        /* \"--CODEGEN--\":21:32   */\n      0x0100000000\n        /* \"--CODEGEN--\":8:19   */\n      dup2\n        /* \"--CODEGEN--\":5:33   */\n      gt\n        /* \"--CODEGEN--\":2:4   */\n      iszero\n      tag_78\n      jumpi\n        /* \"--CODEGEN--\":46:47   */\n      0x00\n        /* \"--CODEGEN--\":43:44   */\n      dup1\n        /* \"--CODEGEN--\":36:48   */\n      revert\n        /* \"--CODEGEN--\":2:4   */\n    tag_78:\n        /* \"TimeAllyPET.sol\":8514:8964  function sendPrepaidESDifferent(... */\n      dup3\n      add\n        /* \"--CODEGEN--\":35:44   */\n      dup4\n        /* \"--CODEGEN--\":28:32   */\n      0x20\n        /* \"--CODEGEN--\":12:26   */\n      dup3\n        /* \"--CODEGEN--\":8:33   */\n      add\n        /* \"--CODEGEN--\":5:45   */\n      gt\n        /* \"--CODEGEN--\":2:4   */\n      iszero\n      tag_79\n      jumpi\n        /* \"--CODEGEN--\":58:59   */\n      0x00\n        /* \"--CODEGEN--\":55:56   */\n      dup1\n        /* \"--CODEGEN--\":48:60   */\n      revert\n        /* \"--CODEGEN--\":2:4   */\n    tag_79:\n        /* \"TimeAllyPET.sol\":8514:8964  function sendPrepaidESDifferent(... */\n      dup1\n      calldataload\n      swap1\n      0x20\n      add\n      swap2\n        /* \"--CODEGEN--\":101:110   */\n      dup5\n        /* \"--CODEGEN--\":95:97   */\n      0x20\n        /* \"--CODEGEN--\":81:93   */\n      dup4\n        /* \"--CODEGEN--\":77:98   */\n      mul\n        /* \"--CODEGEN--\":67:75   */\n      dup5\n        /* \"--CODEGEN--\":63:99   */\n      add\n        /* \"--CODEGEN--\":60:111   */\n      gt\n        /* \"--CODEGEN--\":39:50   */\n      0x0100000000\n        /* \"--CODEGEN--\":25:37   */\n      dup4\n        /* \"--CODEGEN--\":22:51   */\n      gt\n        /* \"--CODEGEN--\":11:119   */\n      or\n        /* \"--CODEGEN--\":8:10   */\n      iszero\n      tag_80\n      jumpi\n        /* \"--CODEGEN--\":132:133   */\n      0x00\n        /* \"--CODEGEN--\":129:130   */\n      dup1\n        /* \"--CODEGEN--\":122:134   */\n      revert\n        /* \"--CODEGEN--\":8:10   */\n    tag_80:\n        /* \"TimeAllyPET.sol\":8514:8964  function sendPrepaidESDifferent(... */\n      swap2\n      swap1\n      dup1\n      dup1\n      0x20\n      mul\n      0x20\n      add\n      mload(0x40)\n      swap1\n      dup2\n      add\n      0x40\n      mstore\n      dup1\n      swap4\n      swap3\n      swap2\n      swap1\n      dup2\n      dup2\n      mstore\n      0x20\n      add\n      dup4\n      dup4\n      0x20\n      mul\n        /* \"--CODEGEN--\":30:33   */\n      dup1\n        /* \"--CODEGEN--\":22:28   */\n      dup3\n        /* \"--CODEGEN--\":14:20   */\n      dup5\n        /* \"--CODEGEN--\":1:34   */\n      calldatacopy\n        /* \"--CODEGEN--\":99:100   */\n      0x00\n        /* \"--CODEGEN--\":93:96   */\n      dup2\n        /* \"--CODEGEN--\":85:91   */\n      dup5\n        /* \"--CODEGEN--\":81:97   */\n      add\n        /* \"--CODEGEN--\":74:101   */\n      mstore\n        /* \"--CODEGEN--\":137:141   */\n      0x1f\n        /* \"--CODEGEN--\":133:142   */\n      not\n        /* \"--CODEGEN--\":126:130   */\n      0x1f\n        /* \"--CODEGEN--\":121:124   */\n      dup3\n        /* \"--CODEGEN--\":117:131   */\n      add\n        /* \"--CODEGEN--\":113:143   */\n      and\n        /* \"--CODEGEN--\":106:143   */\n      swap1\n      pop\n        /* \"--CODEGEN--\":169:172   */\n      dup1\n        /* \"--CODEGEN--\":161:167   */\n      dup4\n        /* \"--CODEGEN--\":157:173   */\n      add\n        /* \"--CODEGEN--\":147:173   */\n      swap3\n      pop\n        /* \"TimeAllyPET.sol\":8514:8964  function sendPrepaidESDifferent(... */\n      pop\n      pop\n      pop\n      pop\n      pop\n      pop\n      swap2\n      swap3\n      swap2\n      swap3\n      swap1\n      pop\n      pop\n      pop\n      tag_81\n      jump\t// in\n    tag_73:\n      stop\n        /* \"TimeAllyPET.sol\":11208:11342  function updatePlanStatus(uint256 _planId, bool _newStatus) public onlyDeployer {... */\n    tag_18:\n      tag_82\n      0x04\n      dup1\n      calldatasize\n      sub\n        /* \"--CODEGEN--\":13:15   */\n      0x40\n        /* \"--CODEGEN--\":8:11   */\n      dup2\n        /* \"--CODEGEN--\":5:16   */\n      lt\n        /* \"--CODEGEN--\":2:4   */\n      iszero\n      tag_83\n      jumpi\n        /* \"--CODEGEN--\":29:30   */\n      0x00\n        /* \"--CODEGEN--\":26:27   */\n      dup1\n        /* \"--CODEGEN--\":19:31   */\n      revert\n        /* \"--CODEGEN--\":2:4   */\n    tag_83:\n        /* \"TimeAllyPET.sol\":11208:11342  function updatePlanStatus(uint256 _planId, bool _newStatus) public onlyDeployer {... */\n      dup2\n      add\n      swap1\n      dup1\n      dup1\n      calldataload\n      swap1\n      0x20\n      add\n      swap1\n      swap3\n      swap2\n      swap1\n      dup1\n      calldataload\n      iszero\n      iszero\n      swap1\n      0x20\n      add\n      swap1\n      swap3\n      swap2\n      swap1\n      pop\n      pop\n      pop\n      tag_84\n      jump\t// in\n    tag_82:\n      stop\n        /* \"TimeAllyPET.sol\":25090:25302  function viewAppointation(... */\n    tag_19:\n      tag_85\n      0x04\n      dup1\n      calldatasize\n      sub\n        /* \"--CODEGEN--\":13:15   */\n      0x60\n        /* \"--CODEGEN--\":8:11   */\n      dup2\n        /* \"--CODEGEN--\":5:16   */\n      lt\n        /* \"--CODEGEN--\":2:4   */\n      iszero\n      tag_86\n      jumpi\n        /* \"--CODEGEN--\":29:30   */\n      0x00\n        /* \"--CODEGEN--\":26:27   */\n      dup1\n        /* \"--CODEGEN--\":19:31   */\n      revert\n        /* \"--CODEGEN--\":2:4   */\n    tag_86:\n        /* \"TimeAllyPET.sol\":25090:25302  function viewAppointation(... */\n      dup2\n      add\n      swap1\n      dup1\n      dup1\n      calldataload\n      0xffffffffffffffffffffffffffffffffffffffff\n      and\n      swap1\n      0x20\n      add\n      swap1\n      swap3\n      swap2\n      swap1\n      dup1\n      calldataload\n      swap1\n      0x20\n      add\n      swap1\n      swap3\n      swap2\n      swap1\n      dup1\n      calldataload\n      0xffffffffffffffffffffffffffffffffffffffff\n      and\n      swap1\n      0x20\n      add\n      swap1\n      swap3\n      swap2\n      swap1\n      pop\n      pop\n      pop\n      tag_87\n      jump\t// in\n    tag_85:\n      mload(0x40)\n      dup1\n      dup3\n      iszero\n      iszero\n      iszero\n      iszero\n      dup2\n      mstore\n      0x20\n      add\n      swap2\n      pop\n      pop\n      mload(0x40)\n      dup1\n      swap2\n      sub\n      swap1\n      return\n        /* \"TimeAllyPET.sol\":4672:4697  PETPlan[] public petPlans */\n    tag_20:\n      tag_88\n      0x04\n      dup1\n      calldatasize\n      sub\n        /* \"--CODEGEN--\":13:15   */\n      0x20\n        /* \"--CODEGEN--\":8:11   */\n      dup2\n        /* \"--CODEGEN--\":5:16   */\n      lt\n        /* \"--CODEGEN--\":2:4   */\n      iszero\n      tag_89\n      jumpi\n        /* \"--CODEGEN--\":29:30   */\n      0x00\n        /* \"--CODEGEN--\":26:27   */\n      dup1\n        /* \"--CODEGEN--\":19:31   */\n      revert\n        /* \"--CODEGEN--\":2:4   */\n    tag_89:\n        /* \"TimeAllyPET.sol\":4672:4697  PETPlan[] public petPlans */\n      dup2\n      add\n      swap1\n      dup1\n      dup1\n      calldataload\n      swap1\n      0x20\n      add\n      swap1\n      swap3\n      swap2\n      swap1\n      pop\n      pop\n      pop\n      tag_90\n      jump\t// in\n    tag_88:\n      mload(0x40)\n      dup1\n      dup5\n      iszero\n      iszero\n      iszero\n      iszero\n      dup2\n      mstore\n      0x20\n      add\n      dup4\n      dup2\n      mstore\n      0x20\n      add\n      dup3\n      dup2\n      mstore\n      0x20\n      add\n      swap4\n      pop\n      pop\n      pop\n      pop\n      mload(0x40)\n      dup1\n      swap2\n      sub\n      swap1\n      return\n        /* \"TimeAllyPET.sol\":22607:24287  function withdrawPowerBooster(... */\n    tag_21:\n      tag_91\n      0x04\n      dup1\n      calldatasize\n      sub\n        /* \"--CODEGEN--\":13:15   */\n      0x60\n        /* \"--CODEGEN--\":8:11   */\n      dup2\n        /* \"--CODEGEN--\":5:16   */\n      lt\n        /* \"--CODEGEN--\":2:4   */\n      iszero\n      tag_92\n      jumpi\n        /* \"--CODEGEN--\":29:30   */\n      0x00\n        /* \"--CODEGEN--\":26:27   */\n      dup1\n        /* \"--CODEGEN--\":19:31   */\n      revert\n        /* \"--CODEGEN--\":2:4   */\n    tag_92:\n        /* \"TimeAllyPET.sol\":22607:24287  function withdrawPowerBooster(... */\n      dup2\n      add\n      swap1\n      dup1\n      dup1\n      calldataload\n      0xffffffffffffffffffffffffffffffffffffffff\n      and\n      swap1\n      0x20\n      add\n      swap1\n      swap3\n      swap2\n      swap1\n      dup1\n      calldataload\n      swap1\n      0x20\n      add\n      swap1\n      swap3\n      swap2\n      swap1\n      dup1\n      calldataload\n      swap1\n      0x20\n      add\n      swap1\n      swap3\n      swap2\n      swap1\n      pop\n      pop\n      pop\n      tag_93\n      jump\t// in\n    tag_91:\n      stop\n        /* \"TimeAllyPET.sol\":13408:14003  function appointeeVote(... */\n    tag_22:\n      tag_94\n      0x04\n      dup1\n      calldatasize\n      sub\n        /* \"--CODEGEN--\":13:15   */\n      0x40\n        /* \"--CODEGEN--\":8:11   */\n      dup2\n        /* \"--CODEGEN--\":5:16   */\n      lt\n        /* \"--CODEGEN--\":2:4   */\n      iszero\n      tag_95\n      jumpi\n        /* \"--CODEGEN--\":29:30   */\n      0x00\n        /* \"--CODEGEN--\":26:27   */\n      dup1\n        /* \"--CODEGEN--\":19:31   */\n      revert\n        /* \"--CODEGEN--\":2:4   */\n    tag_95:\n        /* \"TimeAllyPET.sol\":13408:14003  function appointeeVote(... */\n      dup2\n      add\n      swap1\n      dup1\n      dup1\n      calldataload\n      0xffffffffffffffffffffffffffffffffffffffff\n      and\n      swap1\n      0x20\n      add\n      swap1\n      swap3\n      swap2\n      swap1\n      dup1\n      calldataload\n      swap1\n      0x20\n      add\n      swap1\n      swap3\n      swap2\n      swap1\n      pop\n      pop\n      pop\n      tag_96\n      jump\t// in\n    tag_94:\n      stop\n        /* \"TimeAllyPET.sol\":12311:13141  function toogleAppointee(... */\n    tag_23:\n      tag_97\n      0x04\n      dup1\n      calldatasize\n      sub\n        /* \"--CODEGEN--\":13:15   */\n      0x60\n        /* \"--CODEGEN--\":8:11   */\n      dup2\n        /* \"--CODEGEN--\":5:16   */\n      lt\n        /* \"--CODEGEN--\":2:4   */\n      iszero\n      tag_98\n      jumpi\n        /* \"--CODEGEN--\":29:30   */\n      0x00\n        /* \"--CODEGEN--\":26:27   */\n      dup1\n        /* \"--CODEGEN--\":19:31   */\n      revert\n        /* \"--CODEGEN--\":2:4   */\n    tag_98:\n        /* \"TimeAllyPET.sol\":12311:13141  function toogleAppointee(... */\n      dup2\n      add\n      swap1\n      dup1\n      dup1\n      calldataload\n      swap1\n      0x20\n      add\n      swap1\n      swap3\n      swap2\n      swap1\n      dup1\n      calldataload\n      0xffffffffffffffffffffffffffffffffffffffff\n      and\n      swap1\n      0x20\n      add\n      swap1\n      swap3\n      swap2\n      swap1\n      dup1\n      calldataload\n      iszero\n      iszero\n      swap1\n      0x20\n      add\n      swap1\n      swap3\n      swap2\n      swap1\n      pop\n      pop\n      pop\n      tag_99\n      jump\t// in\n    tag_97:\n      stop\n        /* \"TimeAllyPET.sol\":4238:4261  address public deployer */\n    tag_24:\n      tag_100\n      tag_101\n      jump\t// in\n    tag_100:\n      mload(0x40)\n      dup1\n      dup3\n      0xffffffffffffffffffffffffffffffffffffffff\n      and\n      0xffffffffffffffffffffffffffffffffffffffff\n      and\n      dup2\n      mstore\n      0x20\n      add\n      swap2\n      pop\n      pop\n      mload(0x40)\n      dup1\n      swap2\n      sub\n      swap1\n      return\n        /* \"TimeAllyPET.sol\":26606:26822  function getMonthlyDepositedAmount(... */\n    tag_25:\n      tag_102\n      0x04\n      dup1\n      calldatasize\n      sub\n        /* \"--CODEGEN--\":13:15   */\n      0x60\n        /* \"--CODEGEN--\":8:11   */\n      dup2\n        /* \"--CODEGEN--\":5:16   */\n      lt\n        /* \"--CODEGEN--\":2:4   */\n      iszero\n      tag_103\n      jumpi\n        /* \"--CODEGEN--\":29:30   */\n      0x00\n        /* \"--CODEGEN--\":26:27   */\n      dup1\n        /* \"--CODEGEN--\":19:31   */\n      revert\n        /* \"--CODEGEN--\":2:4   */\n    tag_103:\n        /* \"TimeAllyPET.sol\":26606:26822  function getMonthlyDepositedAmount(... */\n      dup2\n      add\n      swap1\n      dup1\n      dup1\n      calldataload\n      0xffffffffffffffffffffffffffffffffffffffff\n      and\n      swap1\n      0x20\n      add\n      swap1\n      swap3\n      swap2\n      swap1\n      dup1\n      calldataload\n      swap1\n      0x20\n      add\n      swap1\n      swap3\n      swap2\n      swap1\n      dup1\n      calldataload\n      swap1\n      0x20\n      add\n      swap1\n      swap3\n      swap2\n      swap1\n      pop\n      pop\n      pop\n      tag_104\n      jump\t// in\n    tag_102:\n      mload(0x40)\n      dup1\n      dup3\n      dup2\n      mstore\n      0x20\n      add\n      swap2\n      pop\n      pop\n      mload(0x40)\n      dup1\n      swap2\n      sub\n      swap1\n      return\n        /* \"TimeAllyPET.sol\":4872:4916  mapping(address => uint256) public prepaidES */\n    tag_26:\n      tag_105\n      0x04\n      dup1\n      calldatasize\n      sub\n        /* \"--CODEGEN--\":13:15   */\n      0x20\n        /* \"--CODEGEN--\":8:11   */\n      dup2\n        /* \"--CODEGEN--\":5:16   */\n      lt\n        /* \"--CODEGEN--\":2:4   */\n      iszero\n      tag_106\n      jumpi\n        /* \"--CODEGEN--\":29:30   */\n      0x00\n        /* \"--CODEGEN--\":26:27   */\n      dup1\n        /* \"--CODEGEN--\":19:31   */\n      revert\n        /* \"--CODEGEN--\":2:4   */\n    tag_106:\n        /* \"TimeAllyPET.sol\":4872:4916  mapping(address => uint256) public prepaidES */\n      dup2\n      add\n      swap1\n      dup1\n      dup1\n      calldataload\n      0xffffffffffffffffffffffffffffffffffffffff\n      and\n      swap1\n      0x20\n      add\n      swap1\n      swap3\n      swap2\n      swap1\n      pop\n      pop\n      pop\n      tag_107\n      jump\t// in\n    tag_105:\n      mload(0x40)\n      dup1\n      dup3\n      dup2\n      mstore\n      0x20\n      add\n      swap2\n      pop\n      pop\n      mload(0x40)\n      dup1\n      swap2\n      sub\n      swap1\n      return\n        /* \"TimeAllyPET.sol\":4462:4480  ERC20 public token */\n    tag_27:\n      tag_108\n      tag_109\n      jump\t// in\n    tag_108:\n      mload(0x40)\n      dup1\n      dup3\n      0xffffffffffffffffffffffffffffffffffffffff\n      and\n      0xffffffffffffffffffffffffffffffffffffffff\n      and\n      dup2\n      mstore\n      0x20\n      add\n      swap2\n      pop\n      pop\n      mload(0x40)\n      dup1\n      swap2\n      sub\n      swap1\n      return\n        /* \"TimeAllyPET.sol\":14521:16979  function makeDeposit(... */\n    tag_34:\n        /* \"TimeAllyPET.sol\":14665:14679  _stakerAddress */\n      dup4\n        /* \"TimeAllyPET.sol\":14681:14687  _petId */\n      dup4\n        /* \"TimeAllyPET.sol\":7267:7283  PET storage _pet */\n      0x00\n        /* \"TimeAllyPET.sol\":7286:7290  pets */\n      0x04\n        /* \"TimeAllyPET.sol\":7286:7306  pets[_stakerAddress] */\n      0x00\n        /* \"TimeAllyPET.sol\":7291:7305  _stakerAddress */\n      dup5\n        /* \"TimeAllyPET.sol\":7286:7306  pets[_stakerAddress] */\n      0xffffffffffffffffffffffffffffffffffffffff\n      and\n      0xffffffffffffffffffffffffffffffffffffffff\n      and\n      dup2\n      mstore\n      0x20\n      add\n      swap1\n      dup2\n      mstore\n      0x20\n      add\n      0x00\n      keccak256\n        /* \"TimeAllyPET.sol\":7307:7313  _petId */\n      dup3\n        /* \"TimeAllyPET.sol\":7286:7314  pets[_stakerAddress][_petId] */\n      dup2\n      sload\n      dup2\n      lt\n      tag_111\n      jumpi\n      invalid\n    tag_111:\n      swap1\n      0x00\n      mstore\n      keccak256(0x00, 0x20)\n      swap1\n      0x0a\n      mul\n      add\n        /* \"TimeAllyPET.sol\":7267:7314  PET storage _pet = pets[_stakerAddress][_petId] */\n      swap1\n      pop\n        /* \"TimeAllyPET.sol\":7417:7431  _stakerAddress */\n      dup3\n        /* \"TimeAllyPET.sol\":7403:7431  msg.sender != _stakerAddress */\n      0xffffffffffffffffffffffffffffffffffffffff\n      and\n        /* \"TimeAllyPET.sol\":7403:7413  msg.sender */\n      caller\n        /* \"TimeAllyPET.sol\":7403:7431  msg.sender != _stakerAddress */\n      0xffffffffffffffffffffffffffffffffffffffff\n      and\n      eq\n        /* \"TimeAllyPET.sol\":7400:7512  if(msg.sender != _stakerAddress) {... */\n      tag_113\n      jumpi\n        /* \"TimeAllyPET.sol\":7449:7453  _pet */\n      dup1\n        /* \"TimeAllyPET.sol\":7449:7462  _pet.nominees */\n      0x08\n      add\n        /* \"TimeAllyPET.sol\":7449:7474  _pet.nominees[msg.sender] */\n      0x00\n        /* \"TimeAllyPET.sol\":7463:7473  msg.sender */\n      caller\n        /* \"TimeAllyPET.sol\":7449:7474  _pet.nominees[msg.sender] */\n      0xffffffffffffffffffffffffffffffffffffffff\n      and\n      0xffffffffffffffffffffffffffffffffffffffff\n      and\n      dup2\n      mstore\n      0x20\n      add\n      swap1\n      dup2\n      mstore\n      0x20\n      add\n      0x00\n      keccak256\n      0x00\n      swap1\n      sload\n      swap1\n      0x0100\n      exp\n      swap1\n      div\n      0xff\n      and\n        /* \"TimeAllyPET.sol\":7441:7505  require(_pet.nominees[msg.sender], 'nomination should be there') */\n      tag_114\n      jumpi\n      mload(0x40)\n      0x08c379a000000000000000000000000000000000000000000000000000000000\n      dup2\n      mstore\n      0x04\n      add\n      dup1\n      dup1\n      0x20\n      add\n      dup3\n      dup2\n      sub\n      dup3\n      mstore\n      0x1a\n      dup2\n      mstore\n      0x20\n      add\n      dup1\n      0x6e6f6d696e6174696f6e2073686f756c64206265207468657265000000000000\n      dup2\n      mstore\n      pop\n      0x20\n      add\n      swap2\n      pop\n      pop\n      mload(0x40)\n      dup1\n      swap2\n      sub\n      swap1\n      revert\n    tag_114:\n        /* \"TimeAllyPET.sol\":7400:7512  if(msg.sender != _stakerAddress) {... */\n    tag_113:\n        /* \"TimeAllyPET.sol\":14762:14763  0 */\n      0x00\n        /* \"TimeAllyPET.sol\":14745:14759  _depositAmount */\n      dup6\n        /* \"TimeAllyPET.sol\":14745:14763  _depositAmount > 0 */\n      gt\n        /* \"TimeAllyPET.sol\":14737:14801  require(_depositAmount > 0, 'deposit amount should be non zero') */\n      tag_116\n      jumpi\n      mload(0x40)\n      0x08c379a000000000000000000000000000000000000000000000000000000000\n      dup2\n      mstore\n      0x04\n      add\n      dup1\n      dup1\n      0x20\n      add\n      dup3\n      dup2\n      sub\n      dup3\n      mstore\n      0x21\n      dup2\n      mstore\n      0x20\n      add\n      dup1\n      data_a66804336ef880d43d3664593cfd2886bc0d5e09a9e6d1574f39fab0c9f3fb85\n      0x21\n      swap2\n      codecopy\n      0x40\n      add\n      swap2\n      pop\n      pop\n      mload(0x40)\n      dup1\n      swap2\n      sub\n      swap1\n      revert\n    tag_116:\n        /* \"TimeAllyPET.sol\":14866:14882  PET storage _pet */\n      0x00\n        /* \"TimeAllyPET.sol\":14885:14889  pets */\n      0x04\n        /* \"TimeAllyPET.sol\":14885:14905  pets[_stakerAddress] */\n      0x00\n        /* \"TimeAllyPET.sol\":14890:14904  _stakerAddress */\n      dup10\n        /* \"TimeAllyPET.sol\":14885:14905  pets[_stakerAddress] */\n      0xffffffffffffffffffffffffffffffffffffffff\n      and\n      0xffffffffffffffffffffffffffffffffffffffff\n      and\n      dup2\n      mstore\n      0x20\n      add\n      swap1\n      dup2\n      mstore\n      0x20\n      add\n      0x00\n      keccak256\n        /* \"TimeAllyPET.sol\":14906:14912  _petId */\n      dup8\n        /* \"TimeAllyPET.sol\":14885:14913  pets[_stakerAddress][_petId] */\n      dup2\n      sload\n      dup2\n      lt\n      tag_117\n      jumpi\n      invalid\n    tag_117:\n      swap1\n      0x00\n      mstore\n      keccak256(0x00, 0x20)\n      swap1\n      0x0a\n      mul\n      add\n        /* \"TimeAllyPET.sol\":14866:14913  PET storage _pet = pets[_stakerAddress][_petId] */\n      swap1\n      pop\n        /* \"TimeAllyPET.sol\":14978:14999  uint256 _depositMonth */\n      0x00\n        /* \"TimeAllyPET.sol\":15002:15041  getDepositMonth(_stakerAddress, _petId) */\n      tag_119\n        /* \"TimeAllyPET.sol\":15018:15032  _stakerAddress */\n      dup10\n        /* \"TimeAllyPET.sol\":15034:15040  _petId */\n      dup10\n        /* \"TimeAllyPET.sol\":15002:15017  getDepositMonth */\n      tag_43\n        /* \"TimeAllyPET.sol\":15002:15041  getDepositMonth(_stakerAddress, _petId) */\n      jump\t// in\n    tag_119:\n        /* \"TimeAllyPET.sol\":14978:15041  uint256 _depositMonth = getDepositMonth(_stakerAddress, _petId) */\n      swap1\n      pop\n        /* \"TimeAllyPET.sol\":15125:15127  12 */\n      0x0c\n        /* \"TimeAllyPET.sol\":15108:15121  _depositMonth */\n      dup2\n        /* \"TimeAllyPET.sol\":15108:15127  _depositMonth <= 12 */\n      gt\n      iszero\n        /* \"TimeAllyPET.sol\":15100:15172  require(_depositMonth <= 12, 'cannot deposit after accumulation period') */\n      tag_120\n      jumpi\n      mload(0x40)\n      0x08c379a000000000000000000000000000000000000000000000000000000000\n      dup2\n      mstore\n      0x04\n      add\n      dup1\n      dup1\n      0x20\n      add\n      dup3\n      dup2\n      sub\n      dup3\n      mstore\n      0x28\n      dup2\n      mstore\n      0x20\n      add\n      dup1\n      data_a4c16ca7a8e973f42facadda9d5acf990ce1247b83cdb47d69fe2dcd504c7f2f\n      0x28\n      swap2\n      codecopy\n      0x40\n      add\n      swap2\n      pop\n      pop\n      mload(0x40)\n      dup1\n      swap2\n      sub\n      swap1\n      revert\n    tag_120:\n        /* \"TimeAllyPET.sol\":15182:15195  _usePrepaidES */\n      dup6\n        /* \"TimeAllyPET.sol\":15179:15471  if(_usePrepaidES) {... */\n      iszero\n      tag_121\n      jumpi\n        /* \"TimeAllyPET.sol\":15281:15322  prepaidES[msg.sender].sub(_depositAmount) */\n      tag_122\n        /* \"TimeAllyPET.sol\":15307:15321  _depositAmount */\n      dup8\n        /* \"TimeAllyPET.sol\":15281:15290  prepaidES */\n      0x05\n        /* \"TimeAllyPET.sol\":15281:15302  prepaidES[msg.sender] */\n      0x00\n        /* \"TimeAllyPET.sol\":15291:15301  msg.sender */\n      caller\n        /* \"TimeAllyPET.sol\":15281:15302  prepaidES[msg.sender] */\n      0xffffffffffffffffffffffffffffffffffffffff\n      and\n      0xffffffffffffffffffffffffffffffffffffffff\n      and\n      dup2\n      mstore\n      0x20\n      add\n      swap1\n      dup2\n      mstore\n      0x20\n      add\n      0x00\n      keccak256\n      sload\n        /* \"TimeAllyPET.sol\":15281:15306  prepaidES[msg.sender].sub */\n      tag_123\n      swap1\n        /* \"TimeAllyPET.sol\":15281:15322  prepaidES[msg.sender].sub(_depositAmount) */\n      swap2\n      swap1\n      0xffffffff\n      and\n      jump\t// in\n    tag_122:\n        /* \"TimeAllyPET.sol\":15257:15266  prepaidES */\n      0x05\n        /* \"TimeAllyPET.sol\":15257:15278  prepaidES[msg.sender] */\n      0x00\n        /* \"TimeAllyPET.sol\":15267:15277  msg.sender */\n      caller\n        /* \"TimeAllyPET.sol\":15257:15278  prepaidES[msg.sender] */\n      0xffffffffffffffffffffffffffffffffffffffff\n      and\n      0xffffffffffffffffffffffffffffffffffffffff\n      and\n      dup2\n      mstore\n      0x20\n      add\n      swap1\n      dup2\n      mstore\n      0x20\n      add\n      0x00\n      keccak256\n        /* \"TimeAllyPET.sol\":15257:15322  prepaidES[msg.sender] = prepaidES[msg.sender].sub(_depositAmount) */\n      dup2\n      swap1\n      sstore\n      pop\n        /* \"TimeAllyPET.sol\":15179:15471  if(_usePrepaidES) {... */\n      jump(tag_124)\n    tag_121:\n        /* \"TimeAllyPET.sol\":15403:15408  token */\n      0x02\n      0x00\n      swap1\n      sload\n      swap1\n      0x0100\n      exp\n      swap1\n      div\n      0xffffffffffffffffffffffffffffffffffffffff\n      and\n        /* \"TimeAllyPET.sol\":15403:15421  token.transferFrom */\n      0xffffffffffffffffffffffffffffffffffffffff\n      and\n      0x23b872dd\n        /* \"TimeAllyPET.sol\":15422:15432  msg.sender */\n      caller\n        /* \"TimeAllyPET.sol\":15442:15446  this */\n      address\n        /* \"TimeAllyPET.sol\":15449:15463  _depositAmount */\n      dup11\n        /* \"TimeAllyPET.sol\":15403:15464  token.transferFrom(msg.sender, address(this), _depositAmount) */\n      mload(0x40)\n      dup5\n      0xffffffff\n      and\n      0xe0\n      shl\n      dup2\n      mstore\n      0x04\n      add\n      dup1\n      dup5\n      0xffffffffffffffffffffffffffffffffffffffff\n      and\n      0xffffffffffffffffffffffffffffffffffffffff\n      and\n      dup2\n      mstore\n      0x20\n      add\n      dup4\n      0xffffffffffffffffffffffffffffffffffffffff\n      and\n      0xffffffffffffffffffffffffffffffffffffffff\n      and\n      dup2\n      mstore\n      0x20\n      add\n      dup3\n      dup2\n      mstore\n      0x20\n      add\n      swap4\n      pop\n      pop\n      pop\n      pop\n      0x20\n      mload(0x40)\n      dup1\n      dup4\n      sub\n      dup2\n      0x00\n      dup8\n      dup1\n      extcodesize\n      iszero\n        /* \"--CODEGEN--\":8:17   */\n      dup1\n        /* \"--CODEGEN--\":5:7   */\n      iszero\n      tag_125\n      jumpi\n        /* \"--CODEGEN--\":30:31   */\n      0x00\n        /* \"--CODEGEN--\":27:28   */\n      dup1\n        /* \"--CODEGEN--\":20:32   */\n      revert\n        /* \"--CODEGEN--\":5:7   */\n    tag_125:\n        /* \"TimeAllyPET.sol\":15403:15464  token.transferFrom(msg.sender, address(this), _depositAmount) */\n      pop\n      gas\n      call\n      iszero\n        /* \"--CODEGEN--\":8:17   */\n      dup1\n        /* \"--CODEGEN--\":5:7   */\n      iszero\n      tag_127\n      jumpi\n        /* \"--CODEGEN--\":45:61   */\n      returndatasize\n        /* \"--CODEGEN--\":42:43   */\n      0x00\n        /* \"--CODEGEN--\":39:40   */\n      dup1\n        /* \"--CODEGEN--\":24:62   */\n      returndatacopy\n        /* \"--CODEGEN--\":77:93   */\n      returndatasize\n        /* \"--CODEGEN--\":74:75   */\n      0x00\n        /* \"--CODEGEN--\":67:94   */\n      revert\n        /* \"--CODEGEN--\":5:7   */\n    tag_127:\n        /* \"TimeAllyPET.sol\":15403:15464  token.transferFrom(msg.sender, address(this), _depositAmount) */\n      pop\n      pop\n      pop\n      pop\n      mload(0x40)\n      returndatasize\n        /* \"--CODEGEN--\":13:15   */\n      0x20\n        /* \"--CODEGEN--\":8:11   */\n      dup2\n        /* \"--CODEGEN--\":5:16   */\n      lt\n        /* \"--CODEGEN--\":2:4   */\n      iszero\n      tag_128\n      jumpi\n        /* \"--CODEGEN--\":29:30   */\n      0x00\n        /* \"--CODEGEN--\":26:27   */\n      dup1\n        /* \"--CODEGEN--\":19:31   */\n      revert\n        /* \"--CODEGEN--\":2:4   */\n    tag_128:\n        /* \"TimeAllyPET.sol\":15403:15464  token.transferFrom(msg.sender, address(this), _depositAmount) */\n      dup2\n      add\n      swap1\n      dup1\n      dup1\n      mload\n      swap1\n      0x20\n      add\n      swap1\n      swap3\n      swap2\n      swap1\n      pop\n      pop\n      pop\n      pop\n        /* \"TimeAllyPET.sol\":15179:15471  if(_usePrepaidES) {... */\n    tag_124:\n        /* \"TimeAllyPET.sol\":15538:15567  uint256 _updatedDepositAmount */\n      0x00\n        /* \"TimeAllyPET.sol\":15570:15630  _pet.monthlyDepositAmount[_depositMonth].add(_depositAmount) */\n      tag_129\n        /* \"TimeAllyPET.sol\":15615:15629  _depositAmount */\n      dup9\n        /* \"TimeAllyPET.sol\":15570:15574  _pet */\n      dup5\n        /* \"TimeAllyPET.sol\":15570:15595  _pet.monthlyDepositAmount */\n      0x06\n      add\n        /* \"TimeAllyPET.sol\":15570:15610  _pet.monthlyDepositAmount[_depositMonth] */\n      0x00\n        /* \"TimeAllyPET.sol\":15596:15609  _depositMonth */\n      dup6\n        /* \"TimeAllyPET.sol\":15570:15610  _pet.monthlyDepositAmount[_depositMonth] */\n      dup2\n      mstore\n      0x20\n      add\n      swap1\n      dup2\n      mstore\n      0x20\n      add\n      0x00\n      keccak256\n      sload\n        /* \"TimeAllyPET.sol\":15570:15614  _pet.monthlyDepositAmount[_depositMonth].add */\n      tag_130\n      swap1\n        /* \"TimeAllyPET.sol\":15570:15630  _pet.monthlyDepositAmount[_depositMonth].add(_depositAmount) */\n      swap2\n      swap1\n      0xffffffff\n      and\n      jump\t// in\n    tag_129:\n        /* \"TimeAllyPET.sol\":15538:15630  uint256 _updatedDepositAmount = _pet.monthlyDepositAmount[_depositMonth].add(_depositAmount) */\n      swap1\n      pop\n        /* \"TimeAllyPET.sol\":15700:15722  uint256 _previousMonth */\n      0x00\n        /* \"TimeAllyPET.sol\":15741:15742  1 */\n      0x01\n        /* \"TimeAllyPET.sol\":15725:15738  _depositMonth */\n      dup4\n        /* \"TimeAllyPET.sol\":15725:15742  _depositMonth - 1 */\n      sub\n        /* \"TimeAllyPET.sol\":15700:15742  uint256 _previousMonth = _depositMonth - 1 */\n      swap1\n      pop\n        /* \"TimeAllyPET.sol\":15748:16140  while(_previousMonth > 0) {... */\n    tag_131:\n        /* \"TimeAllyPET.sol\":15771:15772  0 */\n      0x00\n        /* \"TimeAllyPET.sol\":15754:15768  _previousMonth */\n      dup2\n        /* \"TimeAllyPET.sol\":15754:15772  _previousMonth > 0 */\n      gt\n        /* \"TimeAllyPET.sol\":15748:16140  while(_previousMonth > 0) {... */\n      iszero\n      tag_132\n      jumpi\n        /* \"TimeAllyPET.sol\":15789:15793  _pet */\n      dup4\n        /* \"TimeAllyPET.sol\":15789:15814  _pet.monthlyDepositAmount */\n      0x06\n      add\n        /* \"TimeAllyPET.sol\":15789:15830  _pet.monthlyDepositAmount[_previousMonth] */\n      0x00\n        /* \"TimeAllyPET.sol\":15815:15829  _previousMonth */\n      dup3\n        /* \"TimeAllyPET.sol\":15789:15830  _pet.monthlyDepositAmount[_previousMonth] */\n      dup2\n      mstore\n      0x20\n      add\n      swap1\n      dup2\n      mstore\n      0x20\n      add\n      0x00\n      keccak256\n      sload\n        /* \"TimeAllyPET.sol\":15785:15786  0 */\n      0x00\n        /* \"TimeAllyPET.sol\":15785:15830  0 < _pet.monthlyDepositAmount[_previousMonth] */\n      lt\n        /* \"TimeAllyPET.sol\":15785:15919  0 < _pet.monthlyDepositAmount[_previousMonth]... */\n      dup1\n      iszero\n      tag_133\n      jumpi\n      pop\n        /* \"TimeAllyPET.sol\":15884:15919  _pet.monthlyCommitmentAmount.div(2) */\n      tag_134\n        /* \"TimeAllyPET.sol\":15917:15918  2 */\n      0x02\n        /* \"TimeAllyPET.sol\":15884:15888  _pet */\n      dup6\n        /* \"TimeAllyPET.sol\":15884:15912  _pet.monthlyCommitmentAmount */\n      0x01\n      add\n      sload\n        /* \"TimeAllyPET.sol\":15884:15916  _pet.monthlyCommitmentAmount.div */\n      tag_135\n      swap1\n        /* \"TimeAllyPET.sol\":15884:15919  _pet.monthlyCommitmentAmount.div(2) */\n      swap2\n      swap1\n      0xffffffff\n      and\n      jump\t// in\n    tag_134:\n        /* \"TimeAllyPET.sol\":15840:15844  _pet */\n      dup5\n        /* \"TimeAllyPET.sol\":15840:15865  _pet.monthlyDepositAmount */\n      0x06\n      add\n        /* \"TimeAllyPET.sol\":15840:15881  _pet.monthlyDepositAmount[_previousMonth] */\n      0x00\n        /* \"TimeAllyPET.sol\":15866:15880  _previousMonth */\n      dup4\n        /* \"TimeAllyPET.sol\":15840:15881  _pet.monthlyDepositAmount[_previousMonth] */\n      dup2\n      mstore\n      0x20\n      add\n      swap1\n      dup2\n      mstore\n      0x20\n      add\n      0x00\n      keccak256\n      sload\n        /* \"TimeAllyPET.sol\":15840:15919  _pet.monthlyDepositAmount[_previousMonth] < _pet.monthlyCommitmentAmount.div(2) */\n      lt\n        /* \"TimeAllyPET.sol\":15785:15919  0 < _pet.monthlyDepositAmount[_previousMonth]... */\n    tag_133:\n        /* \"TimeAllyPET.sol\":15782:16107  if(0 < _pet.monthlyDepositAmount[_previousMonth]... */\n      iszero\n      tag_136\n      jumpi\n        /* \"TimeAllyPET.sol\":15955:16043  _updatedDepositAmount.add(... */\n      tag_137\n        /* \"TimeAllyPET.sol\":15992:15996  _pet */\n      dup5\n        /* \"TimeAllyPET.sol\":15992:16017  _pet.monthlyDepositAmount */\n      0x06\n      add\n        /* \"TimeAllyPET.sol\":15992:16033  _pet.monthlyDepositAmount[_previousMonth] */\n      0x00\n        /* \"TimeAllyPET.sol\":16018:16032  _previousMonth */\n      dup4\n        /* \"TimeAllyPET.sol\":15992:16033  _pet.monthlyDepositAmount[_previousMonth] */\n      dup2\n      mstore\n      0x20\n      add\n      swap1\n      dup2\n      mstore\n      0x20\n      add\n      0x00\n      keccak256\n      sload\n        /* \"TimeAllyPET.sol\":15955:15976  _updatedDepositAmount */\n      dup4\n        /* \"TimeAllyPET.sol\":15955:15980  _updatedDepositAmount.add */\n      tag_130\n      swap1\n        /* \"TimeAllyPET.sol\":15955:16043  _updatedDepositAmount.add(... */\n      swap2\n      swap1\n      0xffffffff\n      and\n      jump\t// in\n    tag_137:\n        /* \"TimeAllyPET.sol\":15931:16043  _updatedDepositAmount = _updatedDepositAmount.add(... */\n      swap2\n      pop\n        /* \"TimeAllyPET.sol\":16097:16098  0 */\n      0x00\n        /* \"TimeAllyPET.sol\":16053:16057  _pet */\n      dup5\n        /* \"TimeAllyPET.sol\":16053:16078  _pet.monthlyDepositAmount */\n      0x06\n      add\n        /* \"TimeAllyPET.sol\":16053:16094  _pet.monthlyDepositAmount[_previousMonth] */\n      0x00\n        /* \"TimeAllyPET.sol\":16079:16093  _previousMonth */\n      dup4\n        /* \"TimeAllyPET.sol\":16053:16094  _pet.monthlyDepositAmount[_previousMonth] */\n      dup2\n      mstore\n      0x20\n      add\n      swap1\n      dup2\n      mstore\n      0x20\n      add\n      0x00\n      keccak256\n        /* \"TimeAllyPET.sol\":16053:16098  _pet.monthlyDepositAmount[_previousMonth] = 0 */\n      dup2\n      swap1\n      sstore\n      pop\n        /* \"TimeAllyPET.sol\":15782:16107  if(0 < _pet.monthlyDepositAmount[_previousMonth]... */\n    tag_136:\n        /* \"TimeAllyPET.sol\":16132:16133  1 */\n      0x01\n        /* \"TimeAllyPET.sol\":16114:16133  _previousMonth -= 1 */\n      dup2\n      sub\n      swap1\n      pop\n        /* \"TimeAllyPET.sol\":15748:16140  while(_previousMonth > 0) {... */\n      jump(tag_131)\n    tag_132:\n        /* \"TimeAllyPET.sol\":16219:16248  uint256 _oldBenefitAllocation */\n      0x00\n        /* \"TimeAllyPET.sol\":16251:16335  _getBenefitAllocationByDepositAmount(... */\n      tag_138\n        /* \"TimeAllyPET.sol\":16295:16299  _pet */\n      dup6\n        /* \"TimeAllyPET.sol\":16307:16308  0 */\n      0x00\n        /* \"TimeAllyPET.sol\":16316:16329  _depositMonth */\n      dup7\n        /* \"TimeAllyPET.sol\":16251:16287  _getBenefitAllocationByDepositAmount */\n      tag_139\n        /* \"TimeAllyPET.sol\":16251:16335  _getBenefitAllocationByDepositAmount(... */\n      jump\t// in\n    tag_138:\n        /* \"TimeAllyPET.sol\":16219:16335  uint256 _oldBenefitAllocation = _getBenefitAllocationByDepositAmount(... */\n      swap1\n      pop\n        /* \"TimeAllyPET.sol\":16341:16372  uint256 _extraBenefitAllocation */\n      0x00\n        /* \"TimeAllyPET.sol\":16375:16506  _getBenefitAllocationByDepositAmount(... */\n      tag_140\n        /* \"TimeAllyPET.sol\":16484:16505  _oldBenefitAllocation */\n      dup3\n        /* \"TimeAllyPET.sol\":16375:16479  _getBenefitAllocationByDepositAmount(... */\n      tag_141\n        /* \"TimeAllyPET.sol\":16419:16423  _pet */\n      dup9\n        /* \"TimeAllyPET.sol\":16431:16452  _updatedDepositAmount */\n      dup8\n        /* \"TimeAllyPET.sol\":16460:16473  _depositMonth */\n      dup10\n        /* \"TimeAllyPET.sol\":16375:16411  _getBenefitAllocationByDepositAmount */\n      tag_139\n        /* \"TimeAllyPET.sol\":16375:16479  _getBenefitAllocationByDepositAmount(... */\n      jump\t// in\n    tag_141:\n        /* \"TimeAllyPET.sol\":16375:16483  _getBenefitAllocationByDepositAmount(... */\n      tag_123\n      swap1\n        /* \"TimeAllyPET.sol\":16375:16506  _getBenefitAllocationByDepositAmount(... */\n      swap2\n      swap1\n      0xffffffff\n      and\n      jump\t// in\n    tag_140:\n        /* \"TimeAllyPET.sol\":16341:16506  uint256 _extraBenefitAllocation = _getBenefitAllocationByDepositAmount(... */\n      swap1\n      pop\n        /* \"TimeAllyPET.sol\":16558:16563  token */\n      0x02\n      0x00\n      swap1\n      sload\n      swap1\n      0x0100\n      exp\n      swap1\n      div\n      0xffffffffffffffffffffffffffffffffffffffff\n      and\n        /* \"TimeAllyPET.sol\":16558:16576  token.transferFrom */\n      0xffffffffffffffffffffffffffffffffffffffff\n      and\n      0x23b872dd\n        /* \"TimeAllyPET.sol\":16577:16588  fundsBucket */\n      0x01\n      0x00\n      swap1\n      sload\n      swap1\n      0x0100\n      exp\n      swap1\n      div\n      0xffffffffffffffffffffffffffffffffffffffff\n      and\n        /* \"TimeAllyPET.sol\":16598:16602  this */\n      address\n        /* \"TimeAllyPET.sol\":16605:16628  _extraBenefitAllocation */\n      dup5\n        /* \"TimeAllyPET.sol\":16558:16629  token.transferFrom(fundsBucket, address(this), _extraBenefitAllocation) */\n      mload(0x40)\n      dup5\n      0xffffffff\n      and\n      0xe0\n      shl\n      dup2\n      mstore\n      0x04\n      add\n      dup1\n      dup5\n      0xffffffffffffffffffffffffffffffffffffffff\n      and\n      0xffffffffffffffffffffffffffffffffffffffff\n      and\n      dup2\n      mstore\n      0x20\n      add\n      dup4\n      0xffffffffffffffffffffffffffffffffffffffff\n      and\n      0xffffffffffffffffffffffffffffffffffffffff\n      and\n      dup2\n      mstore\n      0x20\n      add\n      dup3\n      dup2\n      mstore\n      0x20\n      add\n      swap4\n      pop\n      pop\n      pop\n      pop\n      0x20\n      mload(0x40)\n      dup1\n      dup4\n      sub\n      dup2\n      0x00\n      dup8\n      dup1\n      extcodesize\n      iszero\n        /* \"--CODEGEN--\":8:17   */\n      dup1\n        /* \"--CODEGEN--\":5:7   */\n      iszero\n      tag_142\n      jumpi\n        /* \"--CODEGEN--\":30:31   */\n      0x00\n        /* \"--CODEGEN--\":27:28   */\n      dup1\n        /* \"--CODEGEN--\":20:32   */\n      revert\n        /* \"--CODEGEN--\":5:7   */\n    tag_142:\n        /* \"TimeAllyPET.sol\":16558:16629  token.transferFrom(fundsBucket, address(this), _extraBenefitAllocation) */\n      pop\n      gas\n      call\n      iszero\n        /* \"--CODEGEN--\":8:17   */\n      dup1\n        /* \"--CODEGEN--\":5:7   */\n      iszero\n      tag_144\n      jumpi\n        /* \"--CODEGEN--\":45:61   */\n      returndatasize\n        /* \"--CODEGEN--\":42:43   */\n      0x00\n        /* \"--CODEGEN--\":39:40   */\n      dup1\n        /* \"--CODEGEN--\":24:62   */\n      returndatacopy\n        /* \"--CODEGEN--\":77:93   */\n      returndatasize\n        /* \"--CODEGEN--\":74:75   */\n      0x00\n        /* \"--CODEGEN--\":67:94   */\n      revert\n        /* \"--CODEGEN--\":5:7   */\n    tag_144:\n        /* \"TimeAllyPET.sol\":16558:16629  token.transferFrom(fundsBucket, address(this), _extraBenefitAllocation) */\n      pop\n      pop\n      pop\n      pop\n      mload(0x40)\n      returndatasize\n        /* \"--CODEGEN--\":13:15   */\n      0x20\n        /* \"--CODEGEN--\":8:11   */\n      dup2\n        /* \"--CODEGEN--\":5:16   */\n      lt\n        /* \"--CODEGEN--\":2:4   */\n      iszero\n      tag_145\n      jumpi\n        /* \"--CODEGEN--\":29:30   */\n      0x00\n        /* \"--CODEGEN--\":26:27   */\n      dup1\n        /* \"--CODEGEN--\":19:31   */\n      revert\n        /* \"--CODEGEN--\":2:4   */\n    tag_145:\n        /* \"TimeAllyPET.sol\":16558:16629  token.transferFrom(fundsBucket, address(this), _extraBenefitAllocation) */\n      dup2\n      add\n      swap1\n      dup1\n      dup1\n      mload\n      swap1\n      0x20\n      add\n      swap1\n      swap3\n      swap2\n      swap1\n      pop\n      pop\n      pop\n      pop\n        /* \"TimeAllyPET.sol\":16739:16760  _updatedDepositAmount */\n      dup4\n        /* \"TimeAllyPET.sol\":16696:16700  _pet */\n      dup7\n        /* \"TimeAllyPET.sol\":16696:16721  _pet.monthlyDepositAmount */\n      0x06\n      add\n        /* \"TimeAllyPET.sol\":16696:16736  _pet.monthlyDepositAmount[_depositMonth] */\n      0x00\n        /* \"TimeAllyPET.sol\":16722:16735  _depositMonth */\n      dup8\n        /* \"TimeAllyPET.sol\":16696:16736  _pet.monthlyDepositAmount[_depositMonth] */\n      dup2\n      mstore\n      0x20\n      add\n      swap1\n      dup2\n      mstore\n      0x20\n      add\n      0x00\n      keccak256\n        /* \"TimeAllyPET.sol\":16696:16760  _pet.monthlyDepositAmount[_depositMonth] = _updatedDepositAmount */\n      dup2\n      swap1\n      sstore\n      pop\n        /* \"TimeAllyPET.sol\":16846:16852  _petId */\n      dup12\n        /* \"TimeAllyPET.sol\":16824:16838  _stakerAddress */\n      dup14\n        /* \"TimeAllyPET.sol\":16806:16974  NewDeposit(... */\n      0xffffffffffffffffffffffffffffffffffffffff\n      and\n      0xa0f7ad829c9cb80662be76da1eefcf008f173427db87f98a6d935f043f1a12e5\n        /* \"TimeAllyPET.sol\":16860:16873  _depositMonth */\n      dup8\n        /* \"TimeAllyPET.sol\":16881:16895  _depositAmount */\n      dup15\n        /* \"TimeAllyPET.sol\":16937:16947  msg.sender */\n      caller\n        /* \"TimeAllyPET.sol\":16955:16968  _usePrepaidES */\n      dup16\n        /* \"TimeAllyPET.sol\":16806:16974  NewDeposit(... */\n      mload(0x40)\n      dup1\n      dup6\n      dup2\n      mstore\n      0x20\n      add\n      dup5\n      dup2\n      mstore\n      0x20\n      add\n      dup4\n      0xffffffffffffffffffffffffffffffffffffffff\n      and\n      0xffffffffffffffffffffffffffffffffffffffff\n      and\n      dup2\n      mstore\n      0x20\n      add\n      dup3\n      iszero\n      iszero\n      iszero\n      iszero\n      dup2\n      mstore\n      0x20\n      add\n      swap5\n      pop\n      pop\n      pop\n      pop\n      pop\n      mload(0x40)\n      dup1\n      swap2\n      sub\n      swap1\n      log3\n        /* \"TimeAllyPET.sol\":7517:7518  _ */\n      pop\n      pop\n      pop\n      pop\n      pop\n      pop\n        /* \"TimeAllyPET.sol\":14521:16979  function makeDeposit(... */\n      pop\n      pop\n      pop\n      pop\n      pop\n      pop\n      pop\n      jump\t// out\n        /* \"TimeAllyPET.sol\":11635:12009  function toogleNominee(... */\n    tag_37:\n        /* \"TimeAllyPET.sol\":11845:11862  _newNomineeStatus */\n      dup1\n        /* \"TimeAllyPET.sol\":11792:11796  pets */\n      0x04\n        /* \"TimeAllyPET.sol\":11792:11808  pets[msg.sender] */\n      0x00\n        /* \"TimeAllyPET.sol\":11797:11807  msg.sender */\n      caller\n        /* \"TimeAllyPET.sol\":11792:11808  pets[msg.sender] */\n      0xffffffffffffffffffffffffffffffffffffffff\n      and\n      0xffffffffffffffffffffffffffffffffffffffff\n      and\n      dup2\n      mstore\n      0x20\n      add\n      swap1\n      dup2\n      mstore\n      0x20\n      add\n      0x00\n      keccak256\n        /* \"TimeAllyPET.sol\":11809:11815  _petId */\n      dup5\n        /* \"TimeAllyPET.sol\":11792:11816  pets[msg.sender][_petId] */\n      dup2\n      sload\n      dup2\n      lt\n      tag_147\n      jumpi\n      invalid\n    tag_147:\n      swap1\n      0x00\n      mstore\n      keccak256(0x00, 0x20)\n      swap1\n      0x0a\n      mul\n      add\n        /* \"TimeAllyPET.sol\":11792:11825  pets[msg.sender][_petId].nominees */\n      0x08\n      add\n        /* \"TimeAllyPET.sol\":11792:11842  pets[msg.sender][_petId].nominees[_nomineeAddress] */\n      0x00\n        /* \"TimeAllyPET.sol\":11826:11841  _nomineeAddress */\n      dup5\n        /* \"TimeAllyPET.sol\":11792:11842  pets[msg.sender][_petId].nominees[_nomineeAddress] */\n      0xffffffffffffffffffffffffffffffffffffffff\n      and\n      0xffffffffffffffffffffffffffffffffffffffff\n      and\n      dup2\n      mstore\n      0x20\n      add\n      swap1\n      dup2\n      mstore\n      0x20\n      add\n      0x00\n      keccak256\n      0x00\n        /* \"TimeAllyPET.sol\":11792:11862  pets[msg.sender][_petId].nominees[_nomineeAddress] = _newNomineeStatus */\n      0x0100\n      exp\n      dup2\n      sload\n      dup2\n      0xff\n      mul\n      not\n      and\n      swap1\n      dup4\n      iszero\n      iszero\n      mul\n      or\n      swap1\n      sstore\n      pop\n        /* \"TimeAllyPET.sol\":11969:11984  _nomineeAddress */\n      dup2\n        /* \"TimeAllyPET.sol\":11934:12004  NomineeUpdated(msg.sender, _petId, _nomineeAddress, _newNomineeStatus) */\n      0xffffffffffffffffffffffffffffffffffffffff\n      and\n        /* \"TimeAllyPET.sol\":11961:11967  _petId */\n      dup4\n        /* \"TimeAllyPET.sol\":11949:11959  msg.sender */\n      caller\n        /* \"TimeAllyPET.sol\":11934:12004  NomineeUpdated(msg.sender, _petId, _nomineeAddress, _newNomineeStatus) */\n      0xffffffffffffffffffffffffffffffffffffffff\n      and\n      0x90e4568f920d8bb093366a04150aa0d04957a471196f5e1cdfb0db3cb83cc5b0\n        /* \"TimeAllyPET.sol\":11986:12003  _newNomineeStatus */\n      dup5\n        /* \"TimeAllyPET.sol\":11934:12004  NomineeUpdated(msg.sender, _petId, _nomineeAddress, _newNomineeStatus) */\n      mload(0x40)\n      dup1\n      dup3\n      iszero\n      iszero\n      iszero\n      iszero\n      dup2\n      mstore\n      0x20\n      add\n      swap2\n      pop\n      pop\n      mload(0x40)\n      dup1\n      swap2\n      sub\n      swap1\n      log4\n        /* \"TimeAllyPET.sol\":11635:12009  function toogleNominee(... */\n      pop\n      pop\n      pop\n      jump\t// out\n        /* \"TimeAllyPET.sol\":17447:20262  function makeFrequencyModeDeposit(... */\n    tag_40:\n        /* \"TimeAllyPET.sol\":17631:17644  uint256 _fees */\n      0x00\n        /* \"TimeAllyPET.sol\":17737:17738  3 */\n      0x03\n        /* \"TimeAllyPET.sol\":17719:17733  _frequencyMode */\n      dup4\n        /* \"TimeAllyPET.sol\":17719:17738  _frequencyMode == 3 */\n      eq\n        /* \"TimeAllyPET.sol\":17716:17990  if(_frequencyMode == 3) _fees = _totalDepositAmount.mul(1).div(100);... */\n      iszero\n      tag_150\n      jumpi\n        /* \"TimeAllyPET.sol\":17748:17783  _totalDepositAmount.mul(1).div(100) */\n      tag_151\n        /* \"TimeAllyPET.sol\":17779:17782  100 */\n      0x64\n        /* \"TimeAllyPET.sol\":17748:17774  _totalDepositAmount.mul(1) */\n      tag_152\n        /* \"TimeAllyPET.sol\":17772:17773  1 */\n      0x01\n        /* \"TimeAllyPET.sol\":17748:17767  _totalDepositAmount */\n      dup8\n        /* \"TimeAllyPET.sol\":17748:17771  _totalDepositAmount.mul */\n      tag_153\n      swap1\n        /* \"TimeAllyPET.sol\":17748:17774  _totalDepositAmount.mul(1) */\n      swap2\n      swap1\n      0xffffffff\n      and\n      jump\t// in\n    tag_152:\n        /* \"TimeAllyPET.sol\":17748:17778  _totalDepositAmount.mul(1).div */\n      tag_135\n      swap1\n        /* \"TimeAllyPET.sol\":17748:17783  _totalDepositAmount.mul(1).div(100) */\n      swap2\n      swap1\n      0xffffffff\n      and\n      jump\t// in\n    tag_151:\n        /* \"TimeAllyPET.sol\":17740:17783  _fees = _totalDepositAmount.mul(1).div(100) */\n      swap1\n      pop\n        /* \"TimeAllyPET.sol\":17716:17990  if(_frequencyMode == 3) _fees = _totalDepositAmount.mul(1).div(100);... */\n      jump(tag_154)\n    tag_150:\n        /* \"TimeAllyPET.sol\":17815:17816  6 */\n      0x06\n        /* \"TimeAllyPET.sol\":17797:17811  _frequencyMode */\n      dup4\n        /* \"TimeAllyPET.sol\":17797:17816  _frequencyMode == 6 */\n      eq\n        /* \"TimeAllyPET.sol\":17794:17990  if(_frequencyMode == 6) _fees = _totalDepositAmount.mul(2).div(100);... */\n      iszero\n      tag_155\n      jumpi\n        /* \"TimeAllyPET.sol\":17826:17861  _totalDepositAmount.mul(2).div(100) */\n      tag_156\n        /* \"TimeAllyPET.sol\":17857:17860  100 */\n      0x64\n        /* \"TimeAllyPET.sol\":17826:17852  _totalDepositAmount.mul(2) */\n      tag_157\n        /* \"TimeAllyPET.sol\":17850:17851  2 */\n      0x02\n        /* \"TimeAllyPET.sol\":17826:17845  _totalDepositAmount */\n      dup8\n        /* \"TimeAllyPET.sol\":17826:17849  _totalDepositAmount.mul */\n      tag_153\n      swap1\n        /* \"TimeAllyPET.sol\":17826:17852  _totalDepositAmount.mul(2) */\n      swap2\n      swap1\n      0xffffffff\n      and\n      jump\t// in\n    tag_157:\n        /* \"TimeAllyPET.sol\":17826:17856  _totalDepositAmount.mul(2).div */\n      tag_135\n      swap1\n        /* \"TimeAllyPET.sol\":17826:17861  _totalDepositAmount.mul(2).div(100) */\n      swap2\n      swap1\n      0xffffffff\n      and\n      jump\t// in\n    tag_156:\n        /* \"TimeAllyPET.sol\":17818:17861  _fees = _totalDepositAmount.mul(2).div(100) */\n      swap1\n      pop\n        /* \"TimeAllyPET.sol\":17794:17990  if(_frequencyMode == 6) _fees = _totalDepositAmount.mul(2).div(100);... */\n      jump(tag_158)\n    tag_155:\n        /* \"TimeAllyPET.sol\":17893:17895  12 */\n      0x0c\n        /* \"TimeAllyPET.sol\":17875:17889  _frequencyMode */\n      dup4\n        /* \"TimeAllyPET.sol\":17875:17895  _frequencyMode == 12 */\n      eq\n        /* \"TimeAllyPET.sol\":17872:17990  if(_frequencyMode == 12) _fees = _totalDepositAmount.mul(3).div(100);... */\n      iszero\n      tag_159\n      jumpi\n        /* \"TimeAllyPET.sol\":17905:17940  _totalDepositAmount.mul(3).div(100) */\n      tag_160\n        /* \"TimeAllyPET.sol\":17936:17939  100 */\n      0x64\n        /* \"TimeAllyPET.sol\":17905:17931  _totalDepositAmount.mul(3) */\n      tag_161\n        /* \"TimeAllyPET.sol\":17929:17930  3 */\n      0x03\n        /* \"TimeAllyPET.sol\":17905:17924  _totalDepositAmount */\n      dup8\n        /* \"TimeAllyPET.sol\":17905:17928  _totalDepositAmount.mul */\n      tag_153\n      swap1\n        /* \"TimeAllyPET.sol\":17905:17931  _totalDepositAmount.mul(3) */\n      swap2\n      swap1\n      0xffffffff\n      and\n      jump\t// in\n    tag_161:\n        /* \"TimeAllyPET.sol\":17905:17935  _totalDepositAmount.mul(3).div */\n      tag_135\n      swap1\n        /* \"TimeAllyPET.sol\":17905:17940  _totalDepositAmount.mul(3).div(100) */\n      swap2\n      swap1\n      0xffffffff\n      and\n      jump\t// in\n    tag_160:\n        /* \"TimeAllyPET.sol\":17897:17940  _fees = _totalDepositAmount.mul(3).div(100) */\n      swap1\n      pop\n        /* \"TimeAllyPET.sol\":17872:17990  if(_frequencyMode == 12) _fees = _totalDepositAmount.mul(3).div(100);... */\n      jump(tag_162)\n    tag_159:\n        /* \"TimeAllyPET.sol\":17959:17964  false */\n      0x00\n        /* \"TimeAllyPET.sol\":17951:17990  require(false, 'unsupported frequency') */\n      tag_163\n      jumpi\n      mload(0x40)\n      0x08c379a000000000000000000000000000000000000000000000000000000000\n      dup2\n      mstore\n      0x04\n      add\n      dup1\n      dup1\n      0x20\n      add\n      dup3\n      dup2\n      sub\n      dup3\n      mstore\n      0x15\n      dup2\n      mstore\n      0x20\n      add\n      dup1\n      0x756e737570706f72746564206672657175656e63790000000000000000000000\n      dup2\n      mstore\n      pop\n      0x20\n      add\n      swap2\n      pop\n      pop\n      mload(0x40)\n      dup1\n      swap2\n      sub\n      swap1\n      revert\n    tag_163:\n        /* \"TimeAllyPET.sol\":17872:17990  if(_frequencyMode == 12) _fees = _totalDepositAmount.mul(3).div(100);... */\n    tag_162:\n        /* \"TimeAllyPET.sol\":17794:17990  if(_frequencyMode == 6) _fees = _totalDepositAmount.mul(2).div(100);... */\n    tag_158:\n        /* \"TimeAllyPET.sol\":17716:17990  if(_frequencyMode == 3) _fees = _totalDepositAmount.mul(1).div(100);... */\n    tag_154:\n        /* \"TimeAllyPET.sol\":18069:18070  0 */\n      0x00\n        /* \"TimeAllyPET.sol\":18047:18066  _totalDepositAmount */\n      dup5\n        /* \"TimeAllyPET.sol\":18047:18070  _totalDepositAmount > 0 */\n      gt\n        /* \"TimeAllyPET.sol\":18039:18108  require(_totalDepositAmount > 0, 'deposit amount should be non zero') */\n      tag_164\n      jumpi\n      mload(0x40)\n      0x08c379a000000000000000000000000000000000000000000000000000000000\n      dup2\n      mstore\n      0x04\n      add\n      dup1\n      dup1\n      0x20\n      add\n      dup3\n      dup2\n      sub\n      dup3\n      mstore\n      0x21\n      dup2\n      mstore\n      0x20\n      add\n      dup1\n      data_a66804336ef880d43d3664593cfd2886bc0d5e09a9e6d1574f39fab0c9f3fb85\n      0x21\n      swap2\n      codecopy\n      0x40\n      add\n      swap2\n      pop\n      pop\n      mload(0x40)\n      dup1\n      swap2\n      sub\n      swap1\n      revert\n    tag_164:\n        /* \"TimeAllyPET.sol\":18165:18181  PET storage _pet */\n      0x00\n        /* \"TimeAllyPET.sol\":18184:18188  pets */\n      0x04\n        /* \"TimeAllyPET.sol\":18184:18204  pets[_stakerAddress] */\n      0x00\n        /* \"TimeAllyPET.sol\":18189:18203  _stakerAddress */\n      dup9\n        /* \"TimeAllyPET.sol\":18184:18204  pets[_stakerAddress] */\n      0xffffffffffffffffffffffffffffffffffffffff\n      and\n      0xffffffffffffffffffffffffffffffffffffffff\n      and\n      dup2\n      mstore\n      0x20\n      add\n      swap1\n      dup2\n      mstore\n      0x20\n      add\n      0x00\n      keccak256\n        /* \"TimeAllyPET.sol\":18205:18211  _petId */\n      dup7\n        /* \"TimeAllyPET.sol\":18184:18212  pets[_stakerAddress][_petId] */\n      dup2\n      sload\n      dup2\n      lt\n      tag_165\n      jumpi\n      invalid\n    tag_165:\n      swap1\n      0x00\n      mstore\n      keccak256(0x00, 0x20)\n      swap1\n      0x0a\n      mul\n      add\n        /* \"TimeAllyPET.sol\":18165:18212  PET storage _pet = pets[_stakerAddress][_petId] */\n      swap1\n      pop\n        /* \"TimeAllyPET.sol\":18297:18318  uint256 _depositMonth */\n      0x00\n        /* \"TimeAllyPET.sol\":18321:18360  getDepositMonth(_stakerAddress, _petId) */\n      tag_167\n        /* \"TimeAllyPET.sol\":18337:18351  _stakerAddress */\n      dup9\n        /* \"TimeAllyPET.sol\":18353:18359  _petId */\n      dup9\n        /* \"TimeAllyPET.sol\":18321:18336  getDepositMonth */\n      tag_43\n        /* \"TimeAllyPET.sol\":18321:18360  getDepositMonth(_stakerAddress, _petId) */\n      jump\t// in\n    tag_167:\n        /* \"TimeAllyPET.sol\":18297:18360  uint256 _depositMonth = getDepositMonth(_stakerAddress, _petId) */\n      swap1\n      pop\n        /* \"TimeAllyPET.sol\":18434:18452  uint256 _uptoMonth */\n      0x00\n        /* \"TimeAllyPET.sol\":18455:18495  _depositMonth.add(_frequencyMode).sub(1) */\n      tag_168\n        /* \"TimeAllyPET.sol\":18493:18494  1 */\n      0x01\n        /* \"TimeAllyPET.sol\":18455:18488  _depositMonth.add(_frequencyMode) */\n      tag_169\n        /* \"TimeAllyPET.sol\":18473:18487  _frequencyMode */\n      dup9\n        /* \"TimeAllyPET.sol\":18455:18468  _depositMonth */\n      dup6\n        /* \"TimeAllyPET.sol\":18455:18472  _depositMonth.add */\n      tag_130\n      swap1\n        /* \"TimeAllyPET.sol\":18455:18488  _depositMonth.add(_frequencyMode) */\n      swap2\n      swap1\n      0xffffffff\n      and\n      jump\t// in\n    tag_169:\n        /* \"TimeAllyPET.sol\":18455:18492  _depositMonth.add(_frequencyMode).sub */\n      tag_123\n      swap1\n        /* \"TimeAllyPET.sol\":18455:18495  _depositMonth.add(_frequencyMode).sub(1) */\n      swap2\n      swap1\n      0xffffffff\n      and\n      jump\t// in\n    tag_168:\n        /* \"TimeAllyPET.sol\":18434:18495  uint256 _uptoMonth = _depositMonth.add(_frequencyMode).sub(1) */\n      swap1\n      pop\n        /* \"TimeAllyPET.sol\":18523:18525  12 */\n      0x0c\n        /* \"TimeAllyPET.sol\":18509:18519  _uptoMonth */\n      dup2\n        /* \"TimeAllyPET.sol\":18509:18525  _uptoMonth <= 12 */\n      gt\n      iszero\n        /* \"TimeAllyPET.sol\":18501:18570  require(_uptoMonth <= 12, 'cannot deposit after accumulation period') */\n      tag_170\n      jumpi\n      mload(0x40)\n      0x08c379a000000000000000000000000000000000000000000000000000000000\n      dup2\n      mstore\n      0x04\n      add\n      dup1\n      dup1\n      0x20\n      add\n      dup3\n      dup2\n      sub\n      dup3\n      mstore\n      0x28\n      dup2\n      mstore\n      0x20\n      add\n      dup1\n      data_a4c16ca7a8e973f42facadda9d5acf990ce1247b83cdb47d69fe2dcd504c7f2f\n      0x28\n      swap2\n      codecopy\n      0x40\n      add\n      swap2\n      pop\n      pop\n      mload(0x40)\n      dup1\n      swap2\n      sub\n      swap1\n      revert\n    tag_170:\n        /* \"TimeAllyPET.sol\":18669:18670  0 */\n      0x00\n        /* \"TimeAllyPET.sol\":18625:18629  _pet */\n      dup4\n        /* \"TimeAllyPET.sol\":18625:18650  _pet.monthlyDepositAmount */\n      0x06\n      add\n        /* \"TimeAllyPET.sol\":18625:18665  _pet.monthlyDepositAmount[_depositMonth] */\n      0x00\n        /* \"TimeAllyPET.sol\":18651:18664  _depositMonth */\n      dup5\n        /* \"TimeAllyPET.sol\":18625:18665  _pet.monthlyDepositAmount[_depositMonth] */\n      dup2\n      mstore\n      0x20\n      add\n      swap1\n      dup2\n      mstore\n      0x20\n      add\n      0x00\n      keccak256\n      sload\n        /* \"TimeAllyPET.sol\":18625:18670  _pet.monthlyDepositAmount[_depositMonth] == 0 */\n      eq\n        /* \"TimeAllyPET.sol\":18617:18710  require(_pet.monthlyDepositAmount[_depositMonth] == 0, 'allowed only in fresh month deposit') */\n      tag_171\n      jumpi\n      mload(0x40)\n      0x08c379a000000000000000000000000000000000000000000000000000000000\n      dup2\n      mstore\n      0x04\n      add\n      dup1\n      dup1\n      0x20\n      add\n      dup3\n      dup2\n      sub\n      dup3\n      mstore\n      0x23\n      dup2\n      mstore\n      0x20\n      add\n      dup1\n      data_18b306be375032d2ffcbec7f4558490d51c050668b948e1ca8484a1aef46ff9e\n      0x23\n      swap2\n      codecopy\n      0x40\n      add\n      swap2\n      pop\n      pop\n      mload(0x40)\n      dup1\n      swap2\n      sub\n      swap1\n      revert\n    tag_171:\n        /* \"TimeAllyPET.sol\":18766:18795  uint256 _monthlyDepositAmount */\n      0x00\n        /* \"TimeAllyPET.sol\":18798:18837  _totalDepositAmount.div(_frequencyMode) */\n      tag_172\n        /* \"TimeAllyPET.sol\":18822:18836  _frequencyMode */\n      dup8\n        /* \"TimeAllyPET.sol\":18798:18817  _totalDepositAmount */\n      dup10\n        /* \"TimeAllyPET.sol\":18798:18821  _totalDepositAmount.div */\n      tag_135\n      swap1\n        /* \"TimeAllyPET.sol\":18798:18837  _totalDepositAmount.div(_frequencyMode) */\n      swap2\n      swap1\n      0xffffffff\n      and\n      jump\t// in\n    tag_172:\n        /* \"TimeAllyPET.sol\":18766:18837  uint256 _monthlyDepositAmount = _totalDepositAmount.div(_frequencyMode) */\n      swap1\n      pop\n        /* \"TimeAllyPET.sol\":18962:18966  _pet */\n      dup4\n        /* \"TimeAllyPET.sol\":18962:18990  _pet.monthlyCommitmentAmount */\n      0x01\n      add\n      sload\n        /* \"TimeAllyPET.sol\":18937:18958  _monthlyDepositAmount */\n      dup2\n        /* \"TimeAllyPET.sol\":18937:18990  _monthlyDepositAmount >= _pet.monthlyCommitmentAmount */\n      lt\n      iszero\n        /* \"TimeAllyPET.sol\":18922:19038  require(... */\n      tag_173\n      jumpi\n      mload(0x40)\n      0x08c379a000000000000000000000000000000000000000000000000000000000\n      dup2\n      mstore\n      0x04\n      add\n      dup1\n      dup1\n      0x20\n      add\n      dup3\n      dup2\n      sub\n      dup3\n      mstore\n      0x1f\n      dup2\n      mstore\n      0x20\n      add\n      dup1\n      0x6465706f736974206e6f742063726f7373696e6720636f6d6d69746d656e7400\n      dup2\n      mstore\n      pop\n      0x20\n      add\n      swap2\n      pop\n      pop\n      mload(0x40)\n      dup1\n      swap2\n      sub\n      swap1\n      revert\n    tag_173:\n        /* \"TimeAllyPET.sol\":19098:19138  uint256 _benefitAllocationForSingleMonth */\n      0x00\n        /* \"TimeAllyPET.sol\":19141:19233  _getBenefitAllocationByDepositAmount(... */\n      tag_174\n        /* \"TimeAllyPET.sol\":19185:19189  _pet */\n      dup6\n        /* \"TimeAllyPET.sol\":19197:19218  _monthlyDepositAmount */\n      dup4\n        /* \"TimeAllyPET.sol\":19226:19227  1 */\n      0x01\n        /* \"TimeAllyPET.sol\":19141:19177  _getBenefitAllocationByDepositAmount */\n      tag_139\n        /* \"TimeAllyPET.sol\":19141:19233  _getBenefitAllocationByDepositAmount(... */\n      jump\t// in\n    tag_174:\n        /* \"TimeAllyPET.sol\":19098:19233  uint256 _benefitAllocationForSingleMonth = _getBenefitAllocationByDepositAmount(... */\n      swap1\n      pop\n        /* \"TimeAllyPET.sol\":19243:19256  _usePrepaidES */\n      dup7\n        /* \"TimeAllyPET.sol\":19240:19564  if(_usePrepaidES) {... */\n      iszero\n      tag_175\n      jumpi\n        /* \"TimeAllyPET.sol\":19342:19399  prepaidES[msg.sender].sub(_totalDepositAmount.add(_fees)) */\n      tag_176\n        /* \"TimeAllyPET.sol\":19368:19398  _totalDepositAmount.add(_fees) */\n      tag_177\n        /* \"TimeAllyPET.sol\":19392:19397  _fees */\n      dup8\n        /* \"TimeAllyPET.sol\":19368:19387  _totalDepositAmount */\n      dup12\n        /* \"TimeAllyPET.sol\":19368:19391  _totalDepositAmount.add */\n      tag_130\n      swap1\n        /* \"TimeAllyPET.sol\":19368:19398  _totalDepositAmount.add(_fees) */\n      swap2\n      swap1\n      0xffffffff\n      and\n      jump\t// in\n    tag_177:\n        /* \"TimeAllyPET.sol\":19342:19351  prepaidES */\n      0x05\n        /* \"TimeAllyPET.sol\":19342:19363  prepaidES[msg.sender] */\n      0x00\n        /* \"TimeAllyPET.sol\":19352:19362  msg.sender */\n      caller\n        /* \"TimeAllyPET.sol\":19342:19363  prepaidES[msg.sender] */\n      0xffffffffffffffffffffffffffffffffffffffff\n      and\n      0xffffffffffffffffffffffffffffffffffffffff\n      and\n      dup2\n      mstore\n      0x20\n      add\n      swap1\n      dup2\n      mstore\n      0x20\n      add\n      0x00\n      keccak256\n      sload\n        /* \"TimeAllyPET.sol\":19342:19367  prepaidES[msg.sender].sub */\n      tag_123\n      swap1\n        /* \"TimeAllyPET.sol\":19342:19399  prepaidES[msg.sender].sub(_totalDepositAmount.add(_fees)) */\n      swap2\n      swap1\n      0xffffffff\n      and\n      jump\t// in\n    tag_176:\n        /* \"TimeAllyPET.sol\":19318:19327  prepaidES */\n      0x05\n        /* \"TimeAllyPET.sol\":19318:19339  prepaidES[msg.sender] */\n      0x00\n        /* \"TimeAllyPET.sol\":19328:19338  msg.sender */\n      caller\n        /* \"TimeAllyPET.sol\":19318:19339  prepaidES[msg.sender] */\n      0xffffffffffffffffffffffffffffffffffffffff\n      and\n      0xffffffffffffffffffffffffffffffffffffffff\n      and\n      dup2\n      mstore\n      0x20\n      add\n      swap1\n      dup2\n      mstore\n      0x20\n      add\n      0x00\n      keccak256\n        /* \"TimeAllyPET.sol\":19318:19399  prepaidES[msg.sender] = prepaidES[msg.sender].sub(_totalDepositAmount.add(_fees)) */\n      dup2\n      swap1\n      sstore\n      pop\n        /* \"TimeAllyPET.sol\":19240:19564  if(_usePrepaidES) {... */\n      jump(tag_178)\n    tag_175:\n        /* \"TimeAllyPET.sol\":19480:19485  token */\n      0x02\n      0x00\n      swap1\n      sload\n      swap1\n      0x0100\n      exp\n      swap1\n      div\n      0xffffffffffffffffffffffffffffffffffffffff\n      and\n        /* \"TimeAllyPET.sol\":19480:19498  token.transferFrom */\n      0xffffffffffffffffffffffffffffffffffffffff\n      and\n      0x23b872dd\n        /* \"TimeAllyPET.sol\":19499:19509  msg.sender */\n      caller\n        /* \"TimeAllyPET.sol\":19519:19523  this */\n      address\n        /* \"TimeAllyPET.sol\":19526:19556  _totalDepositAmount.add(_fees) */\n      tag_179\n        /* \"TimeAllyPET.sol\":19550:19555  _fees */\n      dup11\n        /* \"TimeAllyPET.sol\":19526:19545  _totalDepositAmount */\n      dup15\n        /* \"TimeAllyPET.sol\":19526:19549  _totalDepositAmount.add */\n      tag_130\n      swap1\n        /* \"TimeAllyPET.sol\":19526:19556  _totalDepositAmount.add(_fees) */\n      swap2\n      swap1\n      0xffffffff\n      and\n      jump\t// in\n    tag_179:\n        /* \"TimeAllyPET.sol\":19480:19557  token.transferFrom(msg.sender, address(this), _totalDepositAmount.add(_fees)) */\n      mload(0x40)\n      dup5\n      0xffffffff\n      and\n      0xe0\n      shl\n      dup2\n      mstore\n      0x04\n      add\n      dup1\n      dup5\n      0xffffffffffffffffffffffffffffffffffffffff\n      and\n      0xffffffffffffffffffffffffffffffffffffffff\n      and\n      dup2\n      mstore\n      0x20\n      add\n      dup4\n      0xffffffffffffffffffffffffffffffffffffffff\n      and\n      0xffffffffffffffffffffffffffffffffffffffff\n      and\n      dup2\n      mstore\n      0x20\n      add\n      dup3\n      dup2\n      mstore\n      0x20\n      add\n      swap4\n      pop\n      pop\n      pop\n      pop\n      0x20\n      mload(0x40)\n      dup1\n      dup4\n      sub\n      dup2\n      0x00\n      dup8\n      dup1\n      extcodesize\n      iszero\n        /* \"--CODEGEN--\":8:17   */\n      dup1\n        /* \"--CODEGEN--\":5:7   */\n      iszero\n      tag_180\n      jumpi\n        /* \"--CODEGEN--\":30:31   */\n      0x00\n        /* \"--CODEGEN--\":27:28   */\n      dup1\n        /* \"--CODEGEN--\":20:32   */\n      revert\n        /* \"--CODEGEN--\":5:7   */\n    tag_180:\n        /* \"TimeAllyPET.sol\":19480:19557  token.transferFrom(msg.sender, address(this), _totalDepositAmount.add(_fees)) */\n      pop\n      gas\n      call\n      iszero\n        /* \"--CODEGEN--\":8:17   */\n      dup1\n        /* \"--CODEGEN--\":5:7   */\n      iszero\n      tag_182\n      jumpi\n        /* \"--CODEGEN--\":45:61   */\n      returndatasize\n        /* \"--CODEGEN--\":42:43   */\n      0x00\n        /* \"--CODEGEN--\":39:40   */\n      dup1\n        /* \"--CODEGEN--\":24:62   */\n      returndatacopy\n        /* \"--CODEGEN--\":77:93   */\n      returndatasize\n        /* \"--CODEGEN--\":74:75   */\n      0x00\n        /* \"--CODEGEN--\":67:94   */\n      revert\n        /* \"--CODEGEN--\":5:7   */\n    tag_182:\n        /* \"TimeAllyPET.sol\":19480:19557  token.transferFrom(msg.sender, address(this), _totalDepositAmount.add(_fees)) */\n      pop\n      pop\n      pop\n      pop\n      mload(0x40)\n      returndatasize\n        /* \"--CODEGEN--\":13:15   */\n      0x20\n        /* \"--CODEGEN--\":8:11   */\n      dup2\n        /* \"--CODEGEN--\":5:16   */\n      lt\n        /* \"--CODEGEN--\":2:4   */\n      iszero\n      tag_183\n      jumpi\n        /* \"--CODEGEN--\":29:30   */\n      0x00\n        /* \"--CODEGEN--\":26:27   */\n      dup1\n        /* \"--CODEGEN--\":19:31   */\n      revert\n        /* \"--CODEGEN--\":2:4   */\n    tag_183:\n        /* \"TimeAllyPET.sol\":19480:19557  token.transferFrom(msg.sender, address(this), _totalDepositAmount.add(_fees)) */\n      dup2\n      add\n      swap1\n      dup1\n      dup1\n      mload\n      swap1\n      0x20\n      add\n      swap1\n      swap3\n      swap2\n      swap1\n      pop\n      pop\n      pop\n      pop\n        /* \"TimeAllyPET.sol\":19240:19564  if(_usePrepaidES) {... */\n    tag_178:\n        /* \"TimeAllyPET.sol\":19592:19622  prepaidES[deployer].add(_fees) */\n      tag_184\n        /* \"TimeAllyPET.sol\":19616:19621  _fees */\n      dup7\n        /* \"TimeAllyPET.sol\":19592:19601  prepaidES */\n      0x05\n        /* \"TimeAllyPET.sol\":19592:19611  prepaidES[deployer] */\n      0x00\n        /* \"TimeAllyPET.sol\":19602:19610  deployer */\n      dup1\n      0x00\n      swap1\n      sload\n      swap1\n      0x0100\n      exp\n      swap1\n      div\n      0xffffffffffffffffffffffffffffffffffffffff\n      and\n        /* \"TimeAllyPET.sol\":19592:19611  prepaidES[deployer] */\n      0xffffffffffffffffffffffffffffffffffffffff\n      and\n      0xffffffffffffffffffffffffffffffffffffffff\n      and\n      dup2\n      mstore\n      0x20\n      add\n      swap1\n      dup2\n      mstore\n      0x20\n      add\n      0x00\n      keccak256\n      sload\n        /* \"TimeAllyPET.sol\":19592:19615  prepaidES[deployer].add */\n      tag_130\n      swap1\n        /* \"TimeAllyPET.sol\":19592:19622  prepaidES[deployer].add(_fees) */\n      swap2\n      swap1\n      0xffffffff\n      and\n      jump\t// in\n    tag_184:\n        /* \"TimeAllyPET.sol\":19570:19579  prepaidES */\n      0x05\n        /* \"TimeAllyPET.sol\":19570:19589  prepaidES[deployer] */\n      0x00\n        /* \"TimeAllyPET.sol\":19580:19588  deployer */\n      dup1\n      0x00\n      swap1\n      sload\n      swap1\n      0x0100\n      exp\n      swap1\n      div\n      0xffffffffffffffffffffffffffffffffffffffff\n      and\n        /* \"TimeAllyPET.sol\":19570:19589  prepaidES[deployer] */\n      0xffffffffffffffffffffffffffffffffffffffff\n      and\n      0xffffffffffffffffffffffffffffffffffffffff\n      and\n      dup2\n      mstore\n      0x20\n      add\n      swap1\n      dup2\n      mstore\n      0x20\n      add\n      0x00\n      keccak256\n        /* \"TimeAllyPET.sol\":19570:19622  prepaidES[deployer] = prepaidES[deployer].add(_fees) */\n      dup2\n      swap1\n      sstore\n      pop\n        /* \"TimeAllyPET.sol\":19714:19719  token */\n      0x02\n      0x00\n      swap1\n      sload\n      swap1\n      0x0100\n      exp\n      swap1\n      div\n      0xffffffffffffffffffffffffffffffffffffffff\n      and\n        /* \"TimeAllyPET.sol\":19714:19732  token.transferFrom */\n      0xffffffffffffffffffffffffffffffffffffffff\n      and\n      0x23b872dd\n        /* \"TimeAllyPET.sol\":19733:19744  fundsBucket */\n      0x01\n      0x00\n      swap1\n      sload\n      swap1\n      0x0100\n      exp\n      swap1\n      div\n      0xffffffffffffffffffffffffffffffffffffffff\n      and\n        /* \"TimeAllyPET.sol\":19754:19758  this */\n      address\n        /* \"TimeAllyPET.sol\":19761:19813  _benefitAllocationForSingleMonth.mul(_frequencyMode) */\n      tag_185\n        /* \"TimeAllyPET.sol\":19798:19812  _frequencyMode */\n      dup13\n        /* \"TimeAllyPET.sol\":19761:19793  _benefitAllocationForSingleMonth */\n      dup7\n        /* \"TimeAllyPET.sol\":19761:19797  _benefitAllocationForSingleMonth.mul */\n      tag_153\n      swap1\n        /* \"TimeAllyPET.sol\":19761:19813  _benefitAllocationForSingleMonth.mul(_frequencyMode) */\n      swap2\n      swap1\n      0xffffffff\n      and\n      jump\t// in\n    tag_185:\n        /* \"TimeAllyPET.sol\":19714:19814  token.transferFrom(fundsBucket, address(this), _benefitAllocationForSingleMonth.mul(_frequencyMode)) */\n      mload(0x40)\n      dup5\n      0xffffffff\n      and\n      0xe0\n      shl\n      dup2\n      mstore\n      0x04\n      add\n      dup1\n      dup5\n      0xffffffffffffffffffffffffffffffffffffffff\n      and\n      0xffffffffffffffffffffffffffffffffffffffff\n      and\n      dup2\n      mstore\n      0x20\n      add\n      dup4\n      0xffffffffffffffffffffffffffffffffffffffff\n      and\n      0xffffffffffffffffffffffffffffffffffffffff\n      and\n      dup2\n      mstore\n      0x20\n      add\n      dup3\n      dup2\n      mstore\n      0x20\n      add\n      swap4\n      pop\n      pop\n      pop\n      pop\n      0x20\n      mload(0x40)\n      dup1\n      dup4\n      sub\n      dup2\n      0x00\n      dup8\n      dup1\n      extcodesize\n      iszero\n        /* \"--CODEGEN--\":8:17   */\n      dup1\n        /* \"--CODEGEN--\":5:7   */\n      iszero\n      tag_186\n      jumpi\n        /* \"--CODEGEN--\":30:31   */\n      0x00\n        /* \"--CODEGEN--\":27:28   */\n      dup1\n        /* \"--CODEGEN--\":20:32   */\n      revert\n        /* \"--CODEGEN--\":5:7   */\n    tag_186:\n        /* \"TimeAllyPET.sol\":19714:19814  token.transferFrom(fundsBucket, address(this), _benefitAllocationForSingleMonth.mul(_frequencyMode)) */\n      pop\n      gas\n      call\n      iszero\n        /* \"--CODEGEN--\":8:17   */\n      dup1\n        /* \"--CODEGEN--\":5:7   */\n      iszero\n      tag_188\n      jumpi\n        /* \"--CODEGEN--\":45:61   */\n      returndatasize\n        /* \"--CODEGEN--\":42:43   */\n      0x00\n        /* \"--CODEGEN--\":39:40   */\n      dup1\n        /* \"--CODEGEN--\":24:62   */\n      returndatacopy\n        /* \"--CODEGEN--\":77:93   */\n      returndatasize\n        /* \"--CODEGEN--\":74:75   */\n      0x00\n        /* \"--CODEGEN--\":67:94   */\n      revert\n        /* \"--CODEGEN--\":5:7   */\n    tag_188:\n        /* \"TimeAllyPET.sol\":19714:19814  token.transferFrom(fundsBucket, address(this), _benefitAllocationForSingleMonth.mul(_frequencyMode)) */\n      pop\n      pop\n      pop\n      pop\n      mload(0x40)\n      returndatasize\n        /* \"--CODEGEN--\":13:15   */\n      0x20\n        /* \"--CODEGEN--\":8:11   */\n      dup2\n        /* \"--CODEGEN--\":5:16   */\n      lt\n        /* \"--CODEGEN--\":2:4   */\n      iszero\n      tag_189\n      jumpi\n        /* \"--CODEGEN--\":29:30   */\n      0x00\n        /* \"--CODEGEN--\":26:27   */\n      dup1\n        /* \"--CODEGEN--\":19:31   */\n      revert\n        /* \"--CODEGEN--\":2:4   */\n    tag_189:\n        /* \"TimeAllyPET.sol\":19714:19814  token.transferFrom(fundsBucket, address(this), _benefitAllocationForSingleMonth.mul(_frequencyMode)) */\n      dup2\n      add\n      swap1\n      dup1\n      dup1\n      mload\n      swap1\n      0x20\n      add\n      swap1\n      swap3\n      swap2\n      swap1\n      pop\n      pop\n      pop\n      pop\n        /* \"TimeAllyPET.sol\":19825:19841  uint256 _monthId */\n      0x00\n        /* \"TimeAllyPET.sol\":19844:19857  _depositMonth */\n      dup5\n        /* \"TimeAllyPET.sol\":19825:19857  uint256 _monthId = _depositMonth */\n      swap1\n      pop\n        /* \"TimeAllyPET.sol\":19821:20258  for(uint256 _monthId = _depositMonth; _monthId <= _uptoMonth; _monthId++) {... */\n    tag_190:\n        /* \"TimeAllyPET.sol\":19871:19881  _uptoMonth */\n      dup4\n        /* \"TimeAllyPET.sol\":19859:19867  _monthId */\n      dup2\n        /* \"TimeAllyPET.sol\":19859:19881  _monthId <= _uptoMonth */\n      gt\n        /* \"TimeAllyPET.sol\":19821:20258  for(uint256 _monthId = _depositMonth; _monthId <= _uptoMonth; _monthId++) {... */\n      tag_191\n      jumpi\n        /* \"TimeAllyPET.sol\":19991:20012  _monthlyDepositAmount */\n      dup3\n        /* \"TimeAllyPET.sol\":19953:19957  _pet */\n      dup7\n        /* \"TimeAllyPET.sol\":19953:19978  _pet.monthlyDepositAmount */\n      0x06\n      add\n        /* \"TimeAllyPET.sol\":19953:19988  _pet.monthlyDepositAmount[_monthId] */\n      0x00\n        /* \"TimeAllyPET.sol\":19979:19987  _monthId */\n      dup4\n        /* \"TimeAllyPET.sol\":19953:19988  _pet.monthlyDepositAmount[_monthId] */\n      dup2\n      mstore\n      0x20\n      add\n      swap1\n      dup2\n      mstore\n      0x20\n      add\n      0x00\n      keccak256\n        /* \"TimeAllyPET.sol\":19953:20012  _pet.monthlyDepositAmount[_monthId] = _monthlyDepositAmount */\n      dup2\n      swap1\n      sstore\n      pop\n        /* \"TimeAllyPET.sol\":20100:20106  _petId */\n      dup11\n        /* \"TimeAllyPET.sol\":20076:20090  _stakerAddress */\n      dup13\n        /* \"TimeAllyPET.sol\":20056:20251  NewDeposit(... */\n      0xffffffffffffffffffffffffffffffffffffffff\n      and\n      0xa0f7ad829c9cb80662be76da1eefcf008f173427db87f98a6d935f043f1a12e5\n        /* \"TimeAllyPET.sol\":20116:20124  _monthId */\n      dup4\n        /* \"TimeAllyPET.sol\":20134:20155  _monthlyDepositAmount */\n      dup7\n        /* \"TimeAllyPET.sol\":20210:20220  msg.sender */\n      caller\n        /* \"TimeAllyPET.sol\":20230:20243  _usePrepaidES */\n      dup14\n        /* \"TimeAllyPET.sol\":20056:20251  NewDeposit(... */\n      mload(0x40)\n      dup1\n      dup6\n      dup2\n      mstore\n      0x20\n      add\n      dup5\n      dup2\n      mstore\n      0x20\n      add\n      dup4\n      0xffffffffffffffffffffffffffffffffffffffff\n      and\n      0xffffffffffffffffffffffffffffffffffffffff\n      and\n      dup2\n      mstore\n      0x20\n      add\n      dup3\n      iszero\n      iszero\n      iszero\n      iszero\n      dup2\n      mstore\n      0x20\n      add\n      swap5\n      pop\n      pop\n      pop\n      pop\n      pop\n      mload(0x40)\n      dup1\n      swap2\n      sub\n      swap1\n      log3\n        /* \"TimeAllyPET.sol\":19883:19893  _monthId++ */\n      dup1\n      dup1\n      0x01\n      add\n      swap2\n      pop\n      pop\n        /* \"TimeAllyPET.sol\":19821:20258  for(uint256 _monthId = _depositMonth; _monthId <= _uptoMonth; _monthId++) {... */\n      jump(tag_190)\n    tag_191:\n      pop\n        /* \"TimeAllyPET.sol\":17447:20262  function makeFrequencyModeDeposit(... */\n      pop\n      pop\n      pop\n      pop\n      pop\n      pop\n      pop\n      pop\n      pop\n      pop\n      pop\n      jump\t// out\n        /* \"TimeAllyPET.sol\":27062:27272  function getDepositMonth(... */\n    tag_43:\n        /* \"TimeAllyPET.sol\":27160:27167  uint256 */\n      0x00\n        /* \"TimeAllyPET.sol\":27266:27267  1 */\n      0x01\n        /* \"TimeAllyPET.sol\":4615:4622  2629744 */\n      0x282070\n        /* \"TimeAllyPET.sol\":27197:27201  pets */\n      0x04\n        /* \"TimeAllyPET.sol\":27197:27217  pets[_stakerAddress] */\n      0x00\n        /* \"TimeAllyPET.sol\":27202:27216  _stakerAddress */\n      dup7\n        /* \"TimeAllyPET.sol\":27197:27217  pets[_stakerAddress] */\n      0xffffffffffffffffffffffffffffffffffffffff\n      and\n      0xffffffffffffffffffffffffffffffffffffffff\n      and\n      dup2\n      mstore\n      0x20\n      add\n      swap1\n      dup2\n      mstore\n      0x20\n      add\n      0x00\n      keccak256\n        /* \"TimeAllyPET.sol\":27218:27224  _petId */\n      dup5\n        /* \"TimeAllyPET.sol\":27197:27225  pets[_stakerAddress][_petId] */\n      dup2\n      sload\n      dup2\n      lt\n      tag_194\n      jumpi\n      invalid\n    tag_194:\n      swap1\n      0x00\n      mstore\n      keccak256(0x00, 0x20)\n      swap1\n      0x0a\n      mul\n      add\n        /* \"TimeAllyPET.sol\":27197:27239  pets[_stakerAddress][_petId].initTimestamp */\n      0x02\n      add\n      sload\n        /* \"TimeAllyPET.sol\":27183:27188  token */\n      0x02\n      0x00\n      swap1\n      sload\n      swap1\n      0x0100\n      exp\n      swap1\n      div\n      0xffffffffffffffffffffffffffffffffffffffff\n      and\n        /* \"TimeAllyPET.sol\":27183:27192  token.mou */\n      0xffffffffffffffffffffffffffffffffffffffff\n      and\n      0xb81f90f3\n        /* \"TimeAllyPET.sol\":27183:27194  token.mou() */\n      mload(0x40)\n      dup2\n      0xffffffff\n      and\n      0xe0\n      shl\n      dup2\n      mstore\n      0x04\n      add\n      0x20\n      mload(0x40)\n      dup1\n      dup4\n      sub\n      dup2\n      dup7\n      dup1\n      extcodesize\n      iszero\n        /* \"--CODEGEN--\":8:17   */\n      dup1\n        /* \"--CODEGEN--\":5:7   */\n      iszero\n      tag_196\n      jumpi\n        /* \"--CODEGEN--\":30:31   */\n      0x00\n        /* \"--CODEGEN--\":27:28   */\n      dup1\n        /* \"--CODEGEN--\":20:32   */\n      revert\n        /* \"--CODEGEN--\":5:7   */\n    tag_196:\n        /* \"TimeAllyPET.sol\":27183:27194  token.mou() */\n      pop\n      gas\n      staticcall\n      iszero\n        /* \"--CODEGEN--\":8:17   */\n      dup1\n        /* \"--CODEGEN--\":5:7   */\n      iszero\n      tag_198\n      jumpi\n        /* \"--CODEGEN--\":45:61   */\n      returndatasize\n        /* \"--CODEGEN--\":42:43   */\n      0x00\n        /* \"--CODEGEN--\":39:40   */\n      dup1\n        /* \"--CODEGEN--\":24:62   */\n      returndatacopy\n        /* \"--CODEGEN--\":77:93   */\n      returndatasize\n        /* \"--CODEGEN--\":74:75   */\n      0x00\n        /* \"--CODEGEN--\":67:94   */\n      revert\n        /* \"--CODEGEN--\":5:7   */\n    tag_198:\n        /* \"TimeAllyPET.sol\":27183:27194  token.mou() */\n      pop\n      pop\n      pop\n      pop\n      mload(0x40)\n      returndatasize\n        /* \"--CODEGEN--\":13:15   */\n      0x20\n        /* \"--CODEGEN--\":8:11   */\n      dup2\n        /* \"--CODEGEN--\":5:16   */\n      lt\n        /* \"--CODEGEN--\":2:4   */\n      iszero\n      tag_199\n      jumpi\n        /* \"--CODEGEN--\":29:30   */\n      0x00\n        /* \"--CODEGEN--\":26:27   */\n      dup1\n        /* \"--CODEGEN--\":19:31   */\n      revert\n        /* \"--CODEGEN--\":2:4   */\n    tag_199:\n        /* \"TimeAllyPET.sol\":27183:27194  token.mou() */\n      dup2\n      add\n      swap1\n      dup1\n      dup1\n      mload\n      swap1\n      0x20\n      add\n      swap1\n      swap3\n      swap2\n      swap1\n      pop\n      pop\n      pop\n        /* \"TimeAllyPET.sol\":27183:27239  token.mou() - pets[_stakerAddress][_petId].initTimestamp */\n      sub\n        /* \"TimeAllyPET.sol\":27182:27263  (token.mou() - pets[_stakerAddress][_petId].initTimestamp)/EARTH_SECONDS_IN_MONTH */\n      dup2\n      tag_200\n      jumpi\n      invalid\n    tag_200:\n      div\n        /* \"TimeAllyPET.sol\":27182:27267  (token.mou() - pets[_stakerAddress][_petId].initTimestamp)/EARTH_SECONDS_IN_MONTH + 1 */\n      add\n        /* \"TimeAllyPET.sol\":27175:27267  return (token.mou() - pets[_stakerAddress][_petId].initTimestamp)/EARTH_SECONDS_IN_MONTH + 1 */\n      swap1\n      pop\n        /* \"TimeAllyPET.sol\":27062:27272  function getDepositMonth(... */\n      swap3\n      swap2\n      pop\n      pop\n      jump\t// out\n        /* \"TimeAllyPET.sol\":7973:8246  function addToPrepaid(uint256 _amount) public {... */\n    tag_46:\n        /* \"TimeAllyPET.sol\":8074:8079  token */\n      0x02\n      0x00\n      swap1\n      sload\n      swap1\n      0x0100\n      exp\n      swap1\n      div\n      0xffffffffffffffffffffffffffffffffffffffff\n      and\n        /* \"TimeAllyPET.sol\":8074:8092  token.transferFrom */\n      0xffffffffffffffffffffffffffffffffffffffff\n      and\n      0x23b872dd\n        /* \"TimeAllyPET.sol\":8093:8103  msg.sender */\n      caller\n        /* \"TimeAllyPET.sol\":8113:8117  this */\n      address\n        /* \"TimeAllyPET.sol\":8120:8127  _amount */\n      dup5\n        /* \"TimeAllyPET.sol\":8074:8128  token.transferFrom(msg.sender, address(this), _amount) */\n      mload(0x40)\n      dup5\n      0xffffffff\n      and\n      0xe0\n      shl\n      dup2\n      mstore\n      0x04\n      add\n      dup1\n      dup5\n      0xffffffffffffffffffffffffffffffffffffffff\n      and\n      0xffffffffffffffffffffffffffffffffffffffff\n      and\n      dup2\n      mstore\n      0x20\n      add\n      dup4\n      0xffffffffffffffffffffffffffffffffffffffff\n      and\n      0xffffffffffffffffffffffffffffffffffffffff\n      and\n      dup2\n      mstore\n      0x20\n      add\n      dup3\n      dup2\n      mstore\n      0x20\n      add\n      swap4\n      pop\n      pop\n      pop\n      pop\n      0x20\n      mload(0x40)\n      dup1\n      dup4\n      sub\n      dup2\n      0x00\n      dup8\n      dup1\n      extcodesize\n      iszero\n        /* \"--CODEGEN--\":8:17   */\n      dup1\n        /* \"--CODEGEN--\":5:7   */\n      iszero\n      tag_202\n      jumpi\n        /* \"--CODEGEN--\":30:31   */\n      0x00\n        /* \"--CODEGEN--\":27:28   */\n      dup1\n        /* \"--CODEGEN--\":20:32   */\n      revert\n        /* \"--CODEGEN--\":5:7   */\n    tag_202:\n        /* \"TimeAllyPET.sol\":8074:8128  token.transferFrom(msg.sender, address(this), _amount) */\n      pop\n      gas\n      call\n      iszero\n        /* \"--CODEGEN--\":8:17   */\n      dup1\n        /* \"--CODEGEN--\":5:7   */\n      iszero\n      tag_204\n      jumpi\n        /* \"--CODEGEN--\":45:61   */\n      returndatasize\n        /* \"--CODEGEN--\":42:43   */\n      0x00\n        /* \"--CODEGEN--\":39:40   */\n      dup1\n        /* \"--CODEGEN--\":24:62   */\n      returndatacopy\n        /* \"--CODEGEN--\":77:93   */\n      returndatasize\n        /* \"--CODEGEN--\":74:75   */\n      0x00\n        /* \"--CODEGEN--\":67:94   */\n      revert\n        /* \"--CODEGEN--\":5:7   */\n    tag_204:\n        /* \"TimeAllyPET.sol\":8074:8128  token.transferFrom(msg.sender, address(this), _amount) */\n      pop\n      pop\n      pop\n      pop\n      mload(0x40)\n      returndatasize\n        /* \"--CODEGEN--\":13:15   */\n      0x20\n        /* \"--CODEGEN--\":8:11   */\n      dup2\n        /* \"--CODEGEN--\":5:16   */\n      lt\n        /* \"--CODEGEN--\":2:4   */\n      iszero\n      tag_205\n      jumpi\n        /* \"--CODEGEN--\":29:30   */\n      0x00\n        /* \"--CODEGEN--\":26:27   */\n      dup1\n        /* \"--CODEGEN--\":19:31   */\n      revert\n        /* \"--CODEGEN--\":2:4   */\n    tag_205:\n        /* \"TimeAllyPET.sol\":8074:8128  token.transferFrom(msg.sender, address(this), _amount) */\n      dup2\n      add\n      swap1\n      dup1\n      dup1\n      mload\n      swap1\n      0x20\n      add\n      swap1\n      swap3\n      swap2\n      swap1\n      pop\n      pop\n      pop\n      pop\n        /* \"TimeAllyPET.sol\":8207:8241  prepaidES[msg.sender].add(_amount) */\n      tag_206\n        /* \"TimeAllyPET.sol\":8233:8240  _amount */\n      dup2\n        /* \"TimeAllyPET.sol\":8207:8216  prepaidES */\n      0x05\n        /* \"TimeAllyPET.sol\":8207:8228  prepaidES[msg.sender] */\n      0x00\n        /* \"TimeAllyPET.sol\":8217:8227  msg.sender */\n      caller\n        /* \"TimeAllyPET.sol\":8207:8228  prepaidES[msg.sender] */\n      0xffffffffffffffffffffffffffffffffffffffff\n      and\n      0xffffffffffffffffffffffffffffffffffffffff\n      and\n      dup2\n      mstore\n      0x20\n      add\n      swap1\n      dup2\n      mstore\n      0x20\n      add\n      0x00\n      keccak256\n      sload\n        /* \"TimeAllyPET.sol\":8207:8232  prepaidES[msg.sender].add */\n      tag_130\n      swap1\n        /* \"TimeAllyPET.sol\":8207:8241  prepaidES[msg.sender].add(_amount) */\n      swap2\n      swap1\n      0xffffffff\n      and\n      jump\t// in\n    tag_206:\n        /* \"TimeAllyPET.sol\":8183:8192  prepaidES */\n      0x05\n        /* \"TimeAllyPET.sol\":8183:8204  prepaidES[msg.sender] */\n      0x00\n        /* \"TimeAllyPET.sol\":8193:8203  msg.sender */\n      caller\n        /* \"TimeAllyPET.sol\":8183:8204  prepaidES[msg.sender] */\n      0xffffffffffffffffffffffffffffffffffffffff\n      and\n      0xffffffffffffffffffffffffffffffffffffffff\n      and\n      dup2\n      mstore\n      0x20\n      add\n      swap1\n      dup2\n      mstore\n      0x20\n      add\n      0x00\n      keccak256\n        /* \"TimeAllyPET.sol\":8183:8241  prepaidES[msg.sender] = prepaidES[msg.sender].add(_amount) */\n      dup2\n      swap1\n      sstore\n      pop\n        /* \"TimeAllyPET.sol\":7973:8246  function addToPrepaid(uint256 _amount) public {... */\n      pop\n      jump\t// out\n        /* \"TimeAllyPET.sol\":9164:10131  function newPET(... */\n    tag_49:\n        /* \"TimeAllyPET.sol\":9328:9336  petPlans */\n      0x03\n        /* \"TimeAllyPET.sol\":9337:9344  _planId */\n      dup3\n        /* \"TimeAllyPET.sol\":9328:9345  petPlans[_planId] */\n      dup2\n      sload\n      dup2\n      lt\n      tag_208\n      jumpi\n      invalid\n    tag_208:\n      swap1\n      0x00\n      mstore\n      keccak256(0x00, 0x20)\n      swap1\n      0x03\n      mul\n      add\n        /* \"TimeAllyPET.sol\":9328:9358  petPlans[_planId].isPlanActive */\n      0x00\n      add\n      0x00\n      swap1\n      sload\n      swap1\n      0x0100\n      exp\n      swap1\n      div\n      0xff\n      and\n        /* \"TimeAllyPET.sol\":9313:9397  require(... */\n      tag_210\n      jumpi\n      mload(0x40)\n      0x08c379a000000000000000000000000000000000000000000000000000000000\n      dup2\n      mstore\n      0x04\n      add\n      dup1\n      dup1\n      0x20\n      add\n      dup3\n      dup2\n      sub\n      dup3\n      mstore\n      0x16\n      dup2\n      mstore\n      0x20\n      add\n      dup1\n      0x50455420706c616e206973206e6f742061637469766500000000000000000000\n      dup2\n      mstore\n      pop\n      0x20\n      add\n      swap2\n      pop\n      pop\n      mload(0x40)\n      dup1\n      swap2\n      sub\n      swap1\n      revert\n    tag_210:\n        /* \"TimeAllyPET.sol\":9589:9597  petPlans */\n      0x03\n        /* \"TimeAllyPET.sol\":9598:9605  _planId */\n      dup3\n        /* \"TimeAllyPET.sol\":9589:9606  petPlans[_planId] */\n      dup2\n      sload\n      dup2\n      lt\n      tag_211\n      jumpi\n      invalid\n    tag_211:\n      swap1\n      0x00\n      mstore\n      keccak256(0x00, 0x20)\n      swap1\n      0x03\n      mul\n      add\n        /* \"TimeAllyPET.sol\":9589:9637  petPlans[_planId].minimumMonthlyCommitmentAmount */\n      0x01\n      add\n      sload\n        /* \"TimeAllyPET.sol\":9561:9585  _monthlyCommitmentAmount */\n      dup2\n        /* \"TimeAllyPET.sol\":9561:9637  _monthlyCommitmentAmount >= petPlans[_planId].minimumMonthlyCommitmentAmount */\n      lt\n      iszero\n        /* \"TimeAllyPET.sol\":9546:9681  require(... */\n      tag_213\n      jumpi\n      mload(0x40)\n      0x08c379a000000000000000000000000000000000000000000000000000000000\n      dup2\n      mstore\n      0x04\n      add\n      dup1\n      dup1\n      0x20\n      add\n      dup3\n      dup2\n      sub\n      dup3\n      mstore\n      0x1b\n      dup2\n      mstore\n      0x20\n      add\n      dup1\n      0x6c6f77206d6f6e74686c79436f6d6d69746d656e74416d6f756e740000000000\n      dup2\n      mstore\n      pop\n      0x20\n      add\n      swap2\n      pop\n      pop\n      mload(0x40)\n      dup1\n      swap2\n      sub\n      swap1\n      revert\n    tag_213:\n        /* \"TimeAllyPET.sol\":9744:9748  pets */\n      0x04\n        /* \"TimeAllyPET.sol\":9744:9760  pets[msg.sender] */\n      0x00\n        /* \"TimeAllyPET.sol\":9749:9759  msg.sender */\n      caller\n        /* \"TimeAllyPET.sol\":9744:9760  pets[msg.sender] */\n      0xffffffffffffffffffffffffffffffffffffffff\n      and\n      0xffffffffffffffffffffffffffffffffffffffff\n      and\n      dup2\n      mstore\n      0x20\n      add\n      swap1\n      dup2\n      mstore\n      0x20\n      add\n      0x00\n      keccak256\n        /* \"TimeAllyPET.sol\":9766:9983  PET({... */\n      mload(0x40)\n      dup1\n      0xc0\n      add\n      0x40\n      mstore\n      dup1\n        /* \"TimeAllyPET.sol\":9786:9793  _planId */\n      dup5\n        /* \"TimeAllyPET.sol\":9766:9983  PET({... */\n      dup2\n      mstore\n      0x20\n      add\n        /* \"TimeAllyPET.sol\":9826:9850  _monthlyCommitmentAmount */\n      dup4\n        /* \"TimeAllyPET.sol\":9766:9983  PET({... */\n      dup2\n      mstore\n      0x20\n      add\n        /* \"TimeAllyPET.sol\":9873:9878  token */\n      0x02\n      0x00\n      swap1\n      sload\n      swap1\n      0x0100\n      exp\n      swap1\n      div\n      0xffffffffffffffffffffffffffffffffffffffff\n      and\n        /* \"TimeAllyPET.sol\":9873:9882  token.mou */\n      0xffffffffffffffffffffffffffffffffffffffff\n      and\n      0xb81f90f3\n        /* \"TimeAllyPET.sol\":9873:9884  token.mou() */\n      mload(0x40)\n      dup2\n      0xffffffff\n      and\n      0xe0\n      shl\n      dup2\n      mstore\n      0x04\n      add\n      0x20\n      mload(0x40)\n      dup1\n      dup4\n      sub\n      dup2\n      dup7\n      dup1\n      extcodesize\n      iszero\n        /* \"--CODEGEN--\":8:17   */\n      dup1\n        /* \"--CODEGEN--\":5:7   */\n      iszero\n      tag_214\n      jumpi\n        /* \"--CODEGEN--\":30:31   */\n      0x00\n        /* \"--CODEGEN--\":27:28   */\n      dup1\n        /* \"--CODEGEN--\":20:32   */\n      revert\n        /* \"--CODEGEN--\":5:7   */\n    tag_214:\n        /* \"TimeAllyPET.sol\":9873:9884  token.mou() */\n      pop\n      gas\n      staticcall\n      iszero\n        /* \"--CODEGEN--\":8:17   */\n      dup1\n        /* \"--CODEGEN--\":5:7   */\n      iszero\n      tag_216\n      jumpi\n        /* \"--CODEGEN--\":45:61   */\n      returndatasize\n        /* \"--CODEGEN--\":42:43   */\n      0x00\n        /* \"--CODEGEN--\":39:40   */\n      dup1\n        /* \"--CODEGEN--\":24:62   */\n      returndatacopy\n        /* \"--CODEGEN--\":77:93   */\n      returndatasize\n        /* \"--CODEGEN--\":74:75   */\n      0x00\n        /* \"--CODEGEN--\":67:94   */\n      revert\n        /* \"--CODEGEN--\":5:7   */\n    tag_216:\n        /* \"TimeAllyPET.sol\":9873:9884  token.mou() */\n      pop\n      pop\n      pop\n      pop\n      mload(0x40)\n      returndatasize\n        /* \"--CODEGEN--\":13:15   */\n      0x20\n        /* \"--CODEGEN--\":8:11   */\n      dup2\n        /* \"--CODEGEN--\":5:16   */\n      lt\n        /* \"--CODEGEN--\":2:4   */\n      iszero\n      tag_217\n      jumpi\n        /* \"--CODEGEN--\":29:30   */\n      0x00\n        /* \"--CODEGEN--\":26:27   */\n      dup1\n        /* \"--CODEGEN--\":19:31   */\n      revert\n        /* \"--CODEGEN--\":2:4   */\n    tag_217:\n        /* \"TimeAllyPET.sol\":9873:9884  token.mou() */\n      dup2\n      add\n      swap1\n      dup1\n      dup1\n      mload\n      swap1\n      0x20\n      add\n      swap1\n      swap3\n      swap2\n      swap1\n      pop\n      pop\n      pop\n        /* \"TimeAllyPET.sol\":9766:9983  PET({... */\n      dup2\n      mstore\n      0x20\n      add\n        /* \"TimeAllyPET.sol\":9921:9922  0 */\n      0x00\n        /* \"TimeAllyPET.sol\":9766:9983  PET({... */\n      dup2\n      mstore\n      0x20\n      add\n        /* \"TimeAllyPET.sol\":9946:9947  0 */\n      0x00\n        /* \"TimeAllyPET.sol\":9766:9983  PET({... */\n      dup2\n      mstore\n      0x20\n      add\n        /* \"TimeAllyPET.sol\":9975:9976  0 */\n      0x00\n        /* \"TimeAllyPET.sol\":9766:9983  PET({... */\n      dup2\n      mstore\n      pop\n        /* \"TimeAllyPET.sol\":9744:9984  pets[msg.sender].push(PET({... */\n      swap1\n      dup1\n        /* \"--CODEGEN--\":39:40   */\n      0x01\n        /* \"--CODEGEN--\":33:36   */\n      dup2\n        /* \"--CODEGEN--\":27:37   */\n      sload\n        /* \"--CODEGEN--\":23:41   */\n      add\n        /* \"--CODEGEN--\":57:67   */\n      dup1\n        /* \"--CODEGEN--\":52:55   */\n      dup3\n        /* \"--CODEGEN--\":45:68   */\n      sstore\n        /* \"--CODEGEN--\":79:89   */\n      dup1\n        /* \"--CODEGEN--\":72:89   */\n      swap2\n      pop\n        /* \"--CODEGEN--\":0:93   */\n      pop\n        /* \"TimeAllyPET.sol\":9744:9984  pets[msg.sender].push(PET({... */\n      0x01\n      swap1\n      sub\n      swap1\n      0x00\n      mstore\n      keccak256(0x00, 0x20)\n      swap1\n      0x0a\n      mul\n      add\n      0x00\n      swap1\n      swap2\n      swap1\n      swap2\n      swap1\n      swap2\n      pop\n      0x00\n      dup3\n      add\n      mload\n      dup2\n      0x00\n      add\n      sstore\n      0x20\n      dup3\n      add\n      mload\n      dup2\n      0x01\n      add\n      sstore\n      0x40\n      dup3\n      add\n      mload\n      dup2\n      0x02\n      add\n      sstore\n      0x60\n      dup3\n      add\n      mload\n      dup2\n      0x03\n      add\n      sstore\n      0x80\n      dup3\n      add\n      mload\n      dup2\n      0x04\n      add\n      sstore\n      0xa0\n      dup3\n      add\n      mload\n      dup2\n      0x05\n      add\n      sstore\n      pop\n      pop\n        /* \"TimeAllyPET.sol\":10043:10053  msg.sender */\n      caller\n        /* \"TimeAllyPET.sol\":10029:10126  NewPET(... */\n      0xffffffffffffffffffffffffffffffffffffffff\n      and\n      0x4459f0ae7ff9f1dfcb9443ff1a9268613580cdb8b1c0f59a4bd4384b94c99f04\n        /* \"TimeAllyPET.sol\":10087:10088  1 */\n      0x01\n        /* \"TimeAllyPET.sol\":10061:10065  pets */\n      0x04\n        /* \"TimeAllyPET.sol\":10061:10077  pets[msg.sender] */\n      0x00\n        /* \"TimeAllyPET.sol\":10066:10076  msg.sender */\n      caller\n        /* \"TimeAllyPET.sol\":10061:10077  pets[msg.sender] */\n      0xffffffffffffffffffffffffffffffffffffffff\n      and\n      0xffffffffffffffffffffffffffffffffffffffff\n      and\n      dup2\n      mstore\n      0x20\n      add\n      swap1\n      dup2\n      mstore\n      0x20\n      add\n      0x00\n      keccak256\n        /* \"TimeAllyPET.sol\":10061:10084  pets[msg.sender].length */\n      dup1\n      sload\n      swap1\n      pop\n        /* \"TimeAllyPET.sol\":10061:10088  pets[msg.sender].length - 1 */\n      sub\n        /* \"TimeAllyPET.sol\":10096:10120  _monthlyCommitmentAmount */\n      dup4\n        /* \"TimeAllyPET.sol\":10029:10126  NewPET(... */\n      mload(0x40)\n      dup1\n      dup4\n      dup2\n      mstore\n      0x20\n      add\n      dup3\n      dup2\n      mstore\n      0x20\n      add\n      swap3\n      pop\n      pop\n      pop\n      mload(0x40)\n      dup1\n      swap2\n      sub\n      swap1\n      log2\n        /* \"TimeAllyPET.sol\":9164:10131  function newPET(... */\n      pop\n      pop\n      jump\t// out\n        /* \"TimeAllyPET.sol\":24583:24787  function viewNomination(... */\n    tag_52:\n        /* \"TimeAllyPET.sol\":24709:24713  bool */\n      0x00\n        /* \"TimeAllyPET.sol\":24728:24732  pets */\n      0x04\n        /* \"TimeAllyPET.sol\":24728:24748  pets[_stakerAddress] */\n      0x00\n        /* \"TimeAllyPET.sol\":24733:24747  _stakerAddress */\n      dup6\n        /* \"TimeAllyPET.sol\":24728:24748  pets[_stakerAddress] */\n      0xffffffffffffffffffffffffffffffffffffffff\n      and\n      0xffffffffffffffffffffffffffffffffffffffff\n      and\n      dup2\n      mstore\n      0x20\n      add\n      swap1\n      dup2\n      mstore\n      0x20\n      add\n      0x00\n      keccak256\n        /* \"TimeAllyPET.sol\":24749:24755  _petId */\n      dup4\n        /* \"TimeAllyPET.sol\":24728:24756  pets[_stakerAddress][_petId] */\n      dup2\n      sload\n      dup2\n      lt\n      tag_220\n      jumpi\n      invalid\n    tag_220:\n      swap1\n      0x00\n      mstore\n      keccak256(0x00, 0x20)\n      swap1\n      0x0a\n      mul\n      add\n        /* \"TimeAllyPET.sol\":24728:24765  pets[_stakerAddress][_petId].nominees */\n      0x08\n      add\n        /* \"TimeAllyPET.sol\":24728:24782  pets[_stakerAddress][_petId].nominees[_nomineeAddress] */\n      0x00\n        /* \"TimeAllyPET.sol\":24766:24781  _nomineeAddress */\n      dup4\n        /* \"TimeAllyPET.sol\":24728:24782  pets[_stakerAddress][_petId].nominees[_nomineeAddress] */\n      0xffffffffffffffffffffffffffffffffffffffff\n      and\n      0xffffffffffffffffffffffffffffffffffffffff\n      and\n      dup2\n      mstore\n      0x20\n      add\n      swap1\n      dup2\n      mstore\n      0x20\n      add\n      0x00\n      keccak256\n      0x00\n      swap1\n      sload\n      swap1\n      0x0100\n      exp\n      swap1\n      div\n      0xff\n      and\n        /* \"TimeAllyPET.sol\":24721:24782  return pets[_stakerAddress][_petId].nominees[_nomineeAddress] */\n      swap1\n      pop\n        /* \"TimeAllyPET.sol\":24583:24787  function viewNomination(... */\n      swap4\n      swap3\n      pop\n      pop\n      pop\n      jump\t// out\n        /* \"TimeAllyPET.sol\":20538:22349  function withdrawAnnuity(... */\n    tag_55:\n        /* \"TimeAllyPET.sol\":20666:20680  _stakerAddress */\n      dup3\n        /* \"TimeAllyPET.sol\":20682:20688  _petId */\n      dup3\n        /* \"TimeAllyPET.sol\":7267:7283  PET storage _pet */\n      0x00\n        /* \"TimeAllyPET.sol\":7286:7290  pets */\n      0x04\n        /* \"TimeAllyPET.sol\":7286:7306  pets[_stakerAddress] */\n      0x00\n        /* \"TimeAllyPET.sol\":7291:7305  _stakerAddress */\n      dup5\n        /* \"TimeAllyPET.sol\":7286:7306  pets[_stakerAddress] */\n      0xffffffffffffffffffffffffffffffffffffffff\n      and\n      0xffffffffffffffffffffffffffffffffffffffff\n      and\n      dup2\n      mstore\n      0x20\n      add\n      swap1\n      dup2\n      mstore\n      0x20\n      add\n      0x00\n      keccak256\n        /* \"TimeAllyPET.sol\":7307:7313  _petId */\n      dup3\n        /* \"TimeAllyPET.sol\":7286:7314  pets[_stakerAddress][_petId] */\n      dup2\n      sload\n      dup2\n      lt\n      tag_223\n      jumpi\n      invalid\n    tag_223:\n      swap1\n      0x00\n      mstore\n      keccak256(0x00, 0x20)\n      swap1\n      0x0a\n      mul\n      add\n        /* \"TimeAllyPET.sol\":7267:7314  PET storage _pet = pets[_stakerAddress][_petId] */\n      swap1\n      pop\n        /* \"TimeAllyPET.sol\":7417:7431  _stakerAddress */\n      dup3\n        /* \"TimeAllyPET.sol\":7403:7431  msg.sender != _stakerAddress */\n      0xffffffffffffffffffffffffffffffffffffffff\n      and\n        /* \"TimeAllyPET.sol\":7403:7413  msg.sender */\n      caller\n        /* \"TimeAllyPET.sol\":7403:7431  msg.sender != _stakerAddress */\n      0xffffffffffffffffffffffffffffffffffffffff\n      and\n      eq\n        /* \"TimeAllyPET.sol\":7400:7512  if(msg.sender != _stakerAddress) {... */\n      tag_225\n      jumpi\n        /* \"TimeAllyPET.sol\":7449:7453  _pet */\n      dup1\n        /* \"TimeAllyPET.sol\":7449:7462  _pet.nominees */\n      0x08\n      add\n        /* \"TimeAllyPET.sol\":7449:7474  _pet.nominees[msg.sender] */\n      0x00\n        /* \"TimeAllyPET.sol\":7463:7473  msg.sender */\n      caller\n        /* \"TimeAllyPET.sol\":7449:7474  _pet.nominees[msg.sender] */\n      0xffffffffffffffffffffffffffffffffffffffff\n      and\n      0xffffffffffffffffffffffffffffffffffffffff\n      and\n      dup2\n      mstore\n      0x20\n      add\n      swap1\n      dup2\n      mstore\n      0x20\n      add\n      0x00\n      keccak256\n      0x00\n      swap1\n      sload\n      swap1\n      0x0100\n      exp\n      swap1\n      div\n      0xff\n      and\n        /* \"TimeAllyPET.sol\":7441:7505  require(_pet.nominees[msg.sender], 'nomination should be there') */\n      tag_226\n      jumpi\n      mload(0x40)\n      0x08c379a000000000000000000000000000000000000000000000000000000000\n      dup2\n      mstore\n      0x04\n      add\n      dup1\n      dup1\n      0x20\n      add\n      dup3\n      dup2\n      sub\n      dup3\n      mstore\n      0x1a\n      dup2\n      mstore\n      0x20\n      add\n      dup1\n      0x6e6f6d696e6174696f6e2073686f756c64206265207468657265000000000000\n      dup2\n      mstore\n      pop\n      0x20\n      add\n      swap2\n      pop\n      pop\n      mload(0x40)\n      dup1\n      swap2\n      sub\n      swap1\n      revert\n    tag_226:\n        /* \"TimeAllyPET.sol\":7400:7512  if(msg.sender != _stakerAddress) {... */\n    tag_225:\n        /* \"TimeAllyPET.sol\":20696:20712  PET storage _pet */\n      0x00\n        /* \"TimeAllyPET.sol\":20715:20719  pets */\n      0x04\n        /* \"TimeAllyPET.sol\":20715:20735  pets[_stakerAddress] */\n      0x00\n        /* \"TimeAllyPET.sol\":20720:20734  _stakerAddress */\n      dup9\n        /* \"TimeAllyPET.sol\":20715:20735  pets[_stakerAddress] */\n      0xffffffffffffffffffffffffffffffffffffffff\n      and\n      0xffffffffffffffffffffffffffffffffffffffff\n      and\n      dup2\n      mstore\n      0x20\n      add\n      swap1\n      dup2\n      mstore\n      0x20\n      add\n      0x00\n      keccak256\n        /* \"TimeAllyPET.sol\":20736:20742  _petId */\n      dup7\n        /* \"TimeAllyPET.sol\":20715:20743  pets[_stakerAddress][_petId] */\n      dup2\n      sload\n      dup2\n      lt\n      tag_228\n      jumpi\n      invalid\n    tag_228:\n      swap1\n      0x00\n      mstore\n      keccak256(0x00, 0x20)\n      swap1\n      0x0a\n      mul\n      add\n        /* \"TimeAllyPET.sol\":20696:20743  PET storage _pet = pets[_stakerAddress][_petId] */\n      swap1\n      pop\n        /* \"TimeAllyPET.sol\":20749:20785  uint256 _lastAnnuityWithdrawlMonthId */\n      0x00\n        /* \"TimeAllyPET.sol\":20788:20792  _pet */\n      dup2\n        /* \"TimeAllyPET.sol\":20788:20820  _pet.lastAnnuityWithdrawlMonthId */\n      0x03\n      add\n      sload\n        /* \"TimeAllyPET.sol\":20749:20820  uint256 _lastAnnuityWithdrawlMonthId = _pet.lastAnnuityWithdrawlMonthId */\n      swap1\n      pop\n        /* \"TimeAllyPET.sol\":20920:20938  _endAnnuityMonthId */\n      dup6\n        /* \"TimeAllyPET.sol\":20889:20917  _lastAnnuityWithdrawlMonthId */\n      dup2\n        /* \"TimeAllyPET.sol\":20889:20938  _lastAnnuityWithdrawlMonthId < _endAnnuityMonthId */\n      lt\n        /* \"TimeAllyPET.sol\":20874:20981  require(... */\n      tag_230\n      jumpi\n      mload(0x40)\n      0x08c379a000000000000000000000000000000000000000000000000000000000\n      dup2\n      mstore\n      0x04\n      add\n      dup1\n      dup1\n      0x20\n      add\n      dup3\n      dup2\n      sub\n      dup3\n      mstore\n      0x1a\n      dup2\n      mstore\n      0x20\n      add\n      dup1\n      0x73746172742073686f756c64206265206265666f726520656e64000000000000\n      dup2\n      mstore\n      pop\n      0x20\n      add\n      swap2\n      pop\n      pop\n      mload(0x40)\n      dup1\n      swap2\n      sub\n      swap1\n      revert\n    tag_230:\n        /* \"TimeAllyPET.sol\":21070:21072  60 */\n      0x3c\n        /* \"TimeAllyPET.sol\":21048:21066  _endAnnuityMonthId */\n      dup7\n        /* \"TimeAllyPET.sol\":21048:21072  _endAnnuityMonthId <= 60 */\n      gt\n      iszero\n        /* \"TimeAllyPET.sol\":21033:21115  require(... */\n      tag_231\n      jumpi\n      mload(0x40)\n      0x08c379a000000000000000000000000000000000000000000000000000000000\n      dup2\n      mstore\n      0x04\n      add\n      dup1\n      dup1\n      0x20\n      add\n      dup3\n      dup2\n      sub\n      dup3\n      mstore\n      0x1a\n      dup2\n      mstore\n      0x20\n      add\n      dup1\n      0x6f6e6c7920363020416e6e756974792077697468647261776c73000000000000\n      dup2\n      mstore\n      pop\n      0x20\n      add\n      swap2\n      pop\n      pop\n      mload(0x40)\n      dup1\n      swap2\n      sub\n      swap1\n      revert\n    tag_231:\n        /* \"TimeAllyPET.sol\":21168:21193  uint256 _allowedTimestamp */\n      0x00\n        /* \"TimeAllyPET.sol\":21196:21290  getNomineeAllowedTimestamp(... */\n      tag_232\n        /* \"TimeAllyPET.sol\":21230:21244  _stakerAddress */\n      dup10\n        /* \"TimeAllyPET.sol\":21252:21258  _petId */\n      dup10\n        /* \"TimeAllyPET.sol\":21266:21284  _endAnnuityMonthId */\n      dup10\n        /* \"TimeAllyPET.sol\":21196:21222  getNomineeAllowedTimestamp */\n      tag_72\n        /* \"TimeAllyPET.sol\":21196:21290  getNomineeAllowedTimestamp(... */\n      jump\t// in\n    tag_232:\n        /* \"TimeAllyPET.sol\":21168:21290  uint256 _allowedTimestamp = getNomineeAllowedTimestamp(... */\n      swap1\n      pop\n        /* \"TimeAllyPET.sol\":21393:21410  _allowedTimestamp */\n      dup1\n        /* \"TimeAllyPET.sol\":21378:21383  token */\n      0x02\n      0x00\n      swap1\n      sload\n      swap1\n      0x0100\n      exp\n      swap1\n      div\n      0xffffffffffffffffffffffffffffffffffffffff\n      and\n        /* \"TimeAllyPET.sol\":21378:21387  token.mou */\n      0xffffffffffffffffffffffffffffffffffffffff\n      and\n      0xb81f90f3\n        /* \"TimeAllyPET.sol\":21378:21389  token.mou() */\n      mload(0x40)\n      dup2\n      0xffffffff\n      and\n      0xe0\n      shl\n      dup2\n      mstore\n      0x04\n      add\n      0x20\n      mload(0x40)\n      dup1\n      dup4\n      sub\n      dup2\n      dup7\n      dup1\n      extcodesize\n      iszero\n        /* \"--CODEGEN--\":8:17   */\n      dup1\n        /* \"--CODEGEN--\":5:7   */\n      iszero\n      tag_233\n      jumpi\n        /* \"--CODEGEN--\":30:31   */\n      0x00\n        /* \"--CODEGEN--\":27:28   */\n      dup1\n        /* \"--CODEGEN--\":20:32   */\n      revert\n        /* \"--CODEGEN--\":5:7   */\n    tag_233:\n        /* \"TimeAllyPET.sol\":21378:21389  token.mou() */\n      pop\n      gas\n      staticcall\n      iszero\n        /* \"--CODEGEN--\":8:17   */\n      dup1\n        /* \"--CODEGEN--\":5:7   */\n      iszero\n      tag_235\n      jumpi\n        /* \"--CODEGEN--\":45:61   */\n      returndatasize\n        /* \"--CODEGEN--\":42:43   */\n      0x00\n        /* \"--CODEGEN--\":39:40   */\n      dup1\n        /* \"--CODEGEN--\":24:62   */\n      returndatacopy\n        /* \"--CODEGEN--\":77:93   */\n      returndatasize\n        /* \"--CODEGEN--\":74:75   */\n      0x00\n        /* \"--CODEGEN--\":67:94   */\n      revert\n        /* \"--CODEGEN--\":5:7   */\n    tag_235:\n        /* \"TimeAllyPET.sol\":21378:21389  token.mou() */\n      pop\n      pop\n      pop\n      pop\n      mload(0x40)\n      returndatasize\n        /* \"--CODEGEN--\":13:15   */\n      0x20\n        /* \"--CODEGEN--\":8:11   */\n      dup2\n        /* \"--CODEGEN--\":5:16   */\n      lt\n        /* \"--CODEGEN--\":2:4   */\n      iszero\n      tag_236\n      jumpi\n        /* \"--CODEGEN--\":29:30   */\n      0x00\n        /* \"--CODEGEN--\":26:27   */\n      dup1\n        /* \"--CODEGEN--\":19:31   */\n      revert\n        /* \"--CODEGEN--\":2:4   */\n    tag_236:\n        /* \"TimeAllyPET.sol\":21378:21389  token.mou() */\n      dup2\n      add\n      swap1\n      dup1\n      dup1\n      mload\n      swap1\n      0x20\n      add\n      swap1\n      swap3\n      swap2\n      swap1\n      pop\n      pop\n      pop\n        /* \"TimeAllyPET.sol\":21378:21410  token.mou() >= _allowedTimestamp */\n      lt\n      iszero\n        /* \"TimeAllyPET.sol\":21363:21448  require(... */\n      tag_237\n      jumpi\n      mload(0x40)\n      0x08c379a000000000000000000000000000000000000000000000000000000000\n      dup2\n      mstore\n      0x04\n      add\n      dup1\n      dup1\n      0x20\n      add\n      dup3\n      dup2\n      sub\n      dup3\n      mstore\n      0x15\n      dup2\n      mstore\n      0x20\n      add\n      dup1\n      0x63616e6e6f74207769746864726177206561726c790000000000000000000000\n      dup2\n      mstore\n      pop\n      0x20\n      add\n      swap2\n      pop\n      pop\n      mload(0x40)\n      dup1\n      swap2\n      sub\n      swap1\n      revert\n    tag_237:\n        /* \"TimeAllyPET.sol\":21512:21535  uint256 _annuityBenefit */\n      0x00\n        /* \"TimeAllyPET.sol\":21538:21666  getSumOfMonthlyAnnuity(... */\n      tag_238\n        /* \"TimeAllyPET.sol\":21568:21582  _stakerAddress */\n      dup11\n        /* \"TimeAllyPET.sol\":21590:21596  _petId */\n      dup11\n        /* \"TimeAllyPET.sol\":21633:21634  1 */\n      0x01\n        /* \"TimeAllyPET.sol\":21604:21632  _lastAnnuityWithdrawlMonthId */\n      dup7\n        /* \"TimeAllyPET.sol\":21604:21634  _lastAnnuityWithdrawlMonthId+1 */\n      add\n        /* \"TimeAllyPET.sol\":21642:21660  _endAnnuityMonthId */\n      dup12\n        /* \"TimeAllyPET.sol\":21538:21560  getSumOfMonthlyAnnuity */\n      tag_69\n        /* \"TimeAllyPET.sol\":21538:21666  getSumOfMonthlyAnnuity(... */\n      jump\t// in\n    tag_238:\n        /* \"TimeAllyPET.sol\":21512:21666  uint256 _annuityBenefit = getSumOfMonthlyAnnuity(... */\n      swap1\n      pop\n        /* \"TimeAllyPET.sol\":21754:21772  _endAnnuityMonthId */\n      dup8\n        /* \"TimeAllyPET.sol\":21719:21723  _pet */\n      dup5\n        /* \"TimeAllyPET.sol\":21719:21751  _pet.lastAnnuityWithdrawlMonthId */\n      0x03\n      add\n        /* \"TimeAllyPET.sol\":21719:21772  _pet.lastAnnuityWithdrawlMonthId = _endAnnuityMonthId */\n      dup2\n      swap1\n      sstore\n      pop\n        /* \"TimeAllyPET.sol\":21900:21901  0 */\n      0x00\n        /* \"TimeAllyPET.sol\":21868:21896  _lastAnnuityWithdrawlMonthId */\n      dup4\n        /* \"TimeAllyPET.sol\":21868:21901  _lastAnnuityWithdrawlMonthId == 0 */\n      eq\n        /* \"TimeAllyPET.sol\":21865:21974  if(_lastAnnuityWithdrawlMonthId == 0) {... */\n      iszero\n      tag_239\n      jumpi\n        /* \"TimeAllyPET.sol\":21911:21967  _burnPenalisedPowerBoosterTokens(_stakerAddress, _petId) */\n      tag_240\n        /* \"TimeAllyPET.sol\":21944:21958  _stakerAddress */\n      dup11\n        /* \"TimeAllyPET.sol\":21960:21966  _petId */\n      dup11\n        /* \"TimeAllyPET.sol\":21911:21943  _burnPenalisedPowerBoosterTokens */\n      tag_241\n        /* \"TimeAllyPET.sol\":21911:21967  _burnPenalisedPowerBoosterTokens(_stakerAddress, _petId) */\n      jump\t// in\n    tag_240:\n        /* \"TimeAllyPET.sol\":21865:21974  if(_lastAnnuityWithdrawlMonthId == 0) {... */\n    tag_239:\n        /* \"TimeAllyPET.sol\":22076:22077  0 */\n      0x00\n        /* \"TimeAllyPET.sol\":22057:22072  _annuityBenefit */\n      dup2\n        /* \"TimeAllyPET.sol\":22057:22077  _annuityBenefit != 0 */\n      eq\n        /* \"TimeAllyPET.sol\":22054:22137  if(_annuityBenefit != 0) {... */\n      tag_242\n      jumpi\n        /* \"TimeAllyPET.sol\":22087:22092  token */\n      0x02\n      0x00\n      swap1\n      sload\n      swap1\n      0x0100\n      exp\n      swap1\n      div\n      0xffffffffffffffffffffffffffffffffffffffff\n      and\n        /* \"TimeAllyPET.sol\":22087:22101  token.transfer */\n      0xffffffffffffffffffffffffffffffffffffffff\n      and\n      0xa9059cbb\n        /* \"TimeAllyPET.sol\":22102:22112  msg.sender */\n      caller\n        /* \"TimeAllyPET.sol\":22114:22129  _annuityBenefit */\n      dup4\n        /* \"TimeAllyPET.sol\":22087:22130  token.transfer(msg.sender, _annuityBenefit) */\n      mload(0x40)\n      dup4\n      0xffffffff\n      and\n      0xe0\n      shl\n      dup2\n      mstore\n      0x04\n      add\n      dup1\n      dup4\n      0xffffffffffffffffffffffffffffffffffffffff\n      and\n      0xffffffffffffffffffffffffffffffffffffffff\n      and\n      dup2\n      mstore\n      0x20\n      add\n      dup3\n      dup2\n      mstore\n      0x20\n      add\n      swap3\n      pop\n      pop\n      pop\n      0x20\n      mload(0x40)\n      dup1\n      dup4\n      sub\n      dup2\n      0x00\n      dup8\n      dup1\n      extcodesize\n      iszero\n        /* \"--CODEGEN--\":8:17   */\n      dup1\n        /* \"--CODEGEN--\":5:7   */\n      iszero\n      tag_243\n      jumpi\n        /* \"--CODEGEN--\":30:31   */\n      0x00\n        /* \"--CODEGEN--\":27:28   */\n      dup1\n        /* \"--CODEGEN--\":20:32   */\n      revert\n        /* \"--CODEGEN--\":5:7   */\n    tag_243:\n        /* \"TimeAllyPET.sol\":22087:22130  token.transfer(msg.sender, _annuityBenefit) */\n      pop\n      gas\n      call\n      iszero\n        /* \"--CODEGEN--\":8:17   */\n      dup1\n        /* \"--CODEGEN--\":5:7   */\n      iszero\n      tag_245\n      jumpi\n        /* \"--CODEGEN--\":45:61   */\n      returndatasize\n        /* \"--CODEGEN--\":42:43   */\n      0x00\n        /* \"--CODEGEN--\":39:40   */\n      dup1\n        /* \"--CODEGEN--\":24:62   */\n      returndatacopy\n        /* \"--CODEGEN--\":77:93   */\n      returndatasize\n        /* \"--CODEGEN--\":74:75   */\n      0x00\n        /* \"--CODEGEN--\":67:94   */\n      revert\n        /* \"--CODEGEN--\":5:7   */\n    tag_245:\n        /* \"TimeAllyPET.sol\":22087:22130  token.transfer(msg.sender, _annuityBenefit) */\n      pop\n      pop\n      pop\n      pop\n      mload(0x40)\n      returndatasize\n        /* \"--CODEGEN--\":13:15   */\n      0x20\n        /* \"--CODEGEN--\":8:11   */\n      dup2\n        /* \"--CODEGEN--\":5:16   */\n      lt\n        /* \"--CODEGEN--\":2:4   */\n      iszero\n      tag_246\n      jumpi\n        /* \"--CODEGEN--\":29:30   */\n      0x00\n        /* \"--CODEGEN--\":26:27   */\n      dup1\n        /* \"--CODEGEN--\":19:31   */\n      revert\n        /* \"--CODEGEN--\":2:4   */\n    tag_246:\n        /* \"TimeAllyPET.sol\":22087:22130  token.transfer(msg.sender, _annuityBenefit) */\n      dup2\n      add\n      swap1\n      dup1\n      dup1\n      mload\n      swap1\n      0x20\n      add\n      swap1\n      swap3\n      swap2\n      swap1\n      pop\n      pop\n      pop\n      pop\n        /* \"TimeAllyPET.sol\":22054:22137  if(_annuityBenefit != 0) {... */\n    tag_242:\n        /* \"TimeAllyPET.sol\":22227:22233  _petId */\n      dup9\n        /* \"TimeAllyPET.sol\":22205:22219  _stakerAddress */\n      dup11\n        /* \"TimeAllyPET.sol\":22181:22344  AnnuityWithdrawl(... */\n      0xffffffffffffffffffffffffffffffffffffffff\n      and\n      0xd662ea67c34eb456a3277bea947873f932447f3f58faa13b41f4ca3defd32c3a\n        /* \"TimeAllyPET.sol\":22270:22271  1 */\n      0x01\n        /* \"TimeAllyPET.sol\":22241:22269  _lastAnnuityWithdrawlMonthId */\n      dup7\n        /* \"TimeAllyPET.sol\":22241:22271  _lastAnnuityWithdrawlMonthId+1 */\n      add\n        /* \"TimeAllyPET.sol\":22279:22297  _endAnnuityMonthId */\n      dup12\n        /* \"TimeAllyPET.sol\":22305:22320  _annuityBenefit */\n      dup6\n        /* \"TimeAllyPET.sol\":22328:22338  msg.sender */\n      caller\n        /* \"TimeAllyPET.sol\":22181:22344  AnnuityWithdrawl(... */\n      mload(0x40)\n      dup1\n      dup6\n      dup2\n      mstore\n      0x20\n      add\n      dup5\n      dup2\n      mstore\n      0x20\n      add\n      dup4\n      dup2\n      mstore\n      0x20\n      add\n      dup3\n      0xffffffffffffffffffffffffffffffffffffffff\n      and\n      0xffffffffffffffffffffffffffffffffffffffff\n      and\n      dup2\n      mstore\n      0x20\n      add\n      swap5\n      pop\n      pop\n      pop\n      pop\n      pop\n      mload(0x40)\n      dup1\n      swap2\n      sub\n      swap1\n      log3\n        /* \"TimeAllyPET.sol\":7517:7518  _ */\n      pop\n      pop\n      pop\n      pop\n        /* \"TimeAllyPET.sol\":20538:22349  function withdrawAnnuity(... */\n      pop\n      pop\n      pop\n      pop\n      pop\n      pop\n      jump\t// out\n        /* \"TimeAllyPET.sol\":4753:4790  mapping(address => PET[]) public pets */\n    tag_58:\n      mstore(0x20, 0x04)\n      dup2\n      0x00\n      mstore\n      keccak256(0x00, 0x40)\n      dup2\n      dup2\n      sload\n      dup2\n      lt\n      tag_247\n      jumpi\n      invalid\n    tag_247:\n      swap1\n      0x00\n      mstore\n      keccak256(0x00, 0x20)\n      swap1\n      0x0a\n      mul\n      add\n      0x00\n      swap2\n      pop\n      swap2\n      pop\n      pop\n      dup1\n      0x00\n      add\n      sload\n      swap1\n      dup1\n      0x01\n      add\n      sload\n      swap1\n      dup1\n      0x02\n      add\n      sload\n      swap1\n      dup1\n      0x03\n      add\n      sload\n      swap1\n      dup1\n      0x04\n      add\n      sload\n      swap1\n      dup1\n      0x05\n      add\n      sload\n      swap1\n      pop\n      dup7\n      jump\t// out\n        /* \"TimeAllyPET.sol\":4362:4388  address public fundsBucket */\n    tag_60:\n      0x01\n      0x00\n      swap1\n      sload\n      swap1\n      0x0100\n      exp\n      swap1\n      div\n      0xffffffffffffffffffffffffffffffffffffffff\n      and\n      dup2\n      jump\t// out\n        /* \"TimeAllyPET.sol\":28798:29510  function calculatePowerBoosterAmount(... */\n    tag_63:\n        /* \"TimeAllyPET.sol\":28908:28915  uint256 */\n      0x00\n        /* \"TimeAllyPET.sol\":28981:28997  PET storage _pet */\n      dup1\n        /* \"TimeAllyPET.sol\":29000:29004  pets */\n      0x04\n        /* \"TimeAllyPET.sol\":29000:29020  pets[_stakerAddress] */\n      0x00\n        /* \"TimeAllyPET.sol\":29005:29019  _stakerAddress */\n      dup6\n        /* \"TimeAllyPET.sol\":29000:29020  pets[_stakerAddress] */\n      0xffffffffffffffffffffffffffffffffffffffff\n      and\n      0xffffffffffffffffffffffffffffffffffffffff\n      and\n      dup2\n      mstore\n      0x20\n      add\n      swap1\n      dup2\n      mstore\n      0x20\n      add\n      0x00\n      keccak256\n        /* \"TimeAllyPET.sol\":29021:29027  _petId */\n      dup4\n        /* \"TimeAllyPET.sol\":29000:29028  pets[_stakerAddress][_petId] */\n      dup2\n      sload\n      dup2\n      lt\n      tag_250\n      jumpi\n      invalid\n    tag_250:\n      swap1\n      0x00\n      mstore\n      keccak256(0x00, 0x20)\n      swap1\n      0x0a\n      mul\n      add\n        /* \"TimeAllyPET.sol\":28981:29028  PET storage _pet = pets[_stakerAddress][_petId] */\n      swap1\n      pop\n        /* \"TimeAllyPET.sol\":29035:29070  uint256 _totalDepositedIncludingPET */\n      0x00\n        /* \"TimeAllyPET.sol\":29160:29170  uint256 _i */\n      dup1\n        /* \"TimeAllyPET.sol\":29173:29174  1 */\n      0x01\n        /* \"TimeAllyPET.sol\":29160:29174  uint256 _i = 1 */\n      swap1\n      pop\n        /* \"TimeAllyPET.sol\":29156:29457  for(uint256 _i = 1; _i <= 12; _i++) {... */\n    tag_252:\n        /* \"TimeAllyPET.sol\":29182:29184  12 */\n      0x0c\n        /* \"TimeAllyPET.sol\":29176:29178  _i */\n      dup2\n        /* \"TimeAllyPET.sol\":29176:29184  _i <= 12 */\n      gt\n        /* \"TimeAllyPET.sol\":29156:29457  for(uint256 _i = 1; _i <= 12; _i++) {... */\n      tag_253\n      jumpi\n        /* \"TimeAllyPET.sol\":29200:29234  uint256 _depositAmountIncludingPET */\n      0x00\n        /* \"TimeAllyPET.sol\":29237:29352  _getTotalDepositedIncludingPET(... */\n      tag_255\n        /* \"TimeAllyPET.sol\":29277:29281  _pet */\n      dup5\n        /* \"TimeAllyPET.sol\":29277:29302  _pet.monthlyDepositAmount */\n      0x06\n      add\n        /* \"TimeAllyPET.sol\":29277:29306  _pet.monthlyDepositAmount[_i] */\n      0x00\n        /* \"TimeAllyPET.sol\":29303:29305  _i */\n      dup5\n        /* \"TimeAllyPET.sol\":29277:29306  _pet.monthlyDepositAmount[_i] */\n      dup2\n      mstore\n      0x20\n      add\n      swap1\n      dup2\n      mstore\n      0x20\n      add\n      0x00\n      keccak256\n      sload\n        /* \"TimeAllyPET.sol\":29316:29320  _pet */\n      dup6\n        /* \"TimeAllyPET.sol\":29316:29344  _pet.monthlyCommitmentAmount */\n      0x01\n      add\n      sload\n        /* \"TimeAllyPET.sol\":29237:29267  _getTotalDepositedIncludingPET */\n      tag_256\n        /* \"TimeAllyPET.sol\":29237:29352  _getTotalDepositedIncludingPET(... */\n      jump\t// in\n    tag_255:\n        /* \"TimeAllyPET.sol\":29200:29352  uint256 _depositAmountIncludingPET = _getTotalDepositedIncludingPET(... */\n      swap1\n      pop\n        /* \"TimeAllyPET.sol\":29391:29450  _totalDepositedIncludingPET.add(_depositAmountIncludingPET) */\n      tag_257\n        /* \"TimeAllyPET.sol\":29423:29449  _depositAmountIncludingPET */\n      dup2\n        /* \"TimeAllyPET.sol\":29391:29418  _totalDepositedIncludingPET */\n      dup5\n        /* \"TimeAllyPET.sol\":29391:29422  _totalDepositedIncludingPET.add */\n      tag_130\n      swap1\n        /* \"TimeAllyPET.sol\":29391:29450  _totalDepositedIncludingPET.add(_depositAmountIncludingPET) */\n      swap2\n      swap1\n      0xffffffff\n      and\n      jump\t// in\n    tag_257:\n        /* \"TimeAllyPET.sol\":29361:29450  _totalDepositedIncludingPET = _totalDepositedIncludingPET.add(_depositAmountIncludingPET) */\n      swap3\n      pop\n        /* \"TimeAllyPET.sol\":29156:29457  for(uint256 _i = 1; _i <= 12; _i++) {... */\n      pop\n        /* \"TimeAllyPET.sol\":29186:29190  _i++ */\n      dup1\n      dup1\n      0x01\n      add\n      swap2\n      pop\n      pop\n        /* \"TimeAllyPET.sol\":29156:29457  for(uint256 _i = 1; _i <= 12; _i++) {... */\n      jump(tag_252)\n    tag_253:\n      pop\n        /* \"TimeAllyPET.sol\":29470:29505  _totalDepositedIncludingPET.div(12) */\n      tag_258\n        /* \"TimeAllyPET.sol\":29502:29504  12 */\n      0x0c\n        /* \"TimeAllyPET.sol\":29470:29497  _totalDepositedIncludingPET */\n      dup3\n        /* \"TimeAllyPET.sol\":29470:29501  _totalDepositedIncludingPET.div */\n      tag_135\n      swap1\n        /* \"TimeAllyPET.sol\":29470:29505  _totalDepositedIncludingPET.div(12) */\n      swap2\n      swap1\n      0xffffffff\n      and\n      jump\t// in\n    tag_258:\n        /* \"TimeAllyPET.sol\":29463:29505  return _totalDepositedIncludingPET.div(12) */\n      swap3\n      pop\n      pop\n      pop\n        /* \"TimeAllyPET.sol\":28798:29510  function calculatePowerBoosterAmount(... */\n      swap3\n      swap2\n      pop\n      pop\n      jump\t// out\n        /* \"TimeAllyPET.sol\":10375:10939  function createPETPlan(... */\n    tag_66:\n        /* \"TimeAllyPET.sol\":7069:7077  deployer */\n      0x00\n      dup1\n      swap1\n      sload\n      swap1\n      0x0100\n      exp\n      swap1\n      div\n      0xffffffffffffffffffffffffffffffffffffffff\n      and\n        /* \"TimeAllyPET.sol\":7055:7077  msg.sender == deployer */\n      0xffffffffffffffffffffffffffffffffffffffff\n      and\n        /* \"TimeAllyPET.sol\":7055:7065  msg.sender */\n      caller\n        /* \"TimeAllyPET.sol\":7055:7077  msg.sender == deployer */\n      0xffffffffffffffffffffffffffffffffffffffff\n      and\n      eq\n        /* \"TimeAllyPET.sol\":7047:7104  require(msg.sender == deployer, 'only deployer can call') */\n      tag_260\n      jumpi\n      mload(0x40)\n      0x08c379a000000000000000000000000000000000000000000000000000000000\n      dup2\n      mstore\n      0x04\n      add\n      dup1\n      dup1\n      0x20\n      add\n      dup3\n      dup2\n      sub\n      dup3\n      mstore\n      0x16\n      dup2\n      mstore\n      0x20\n      add\n      dup1\n      0x6f6e6c79206465706c6f7965722063616e2063616c6c00000000000000000000\n      dup2\n      mstore\n      pop\n      0x20\n      add\n      swap2\n      pop\n      pop\n      mload(0x40)\n      dup1\n      swap2\n      sub\n      swap1\n      revert\n    tag_260:\n        /* \"TimeAllyPET.sol\":10566:10574  petPlans */\n      0x03\n        /* \"TimeAllyPET.sol\":10580:10765  PETPlan({... */\n      mload(0x40)\n      dup1\n      0x60\n      add\n      0x40\n      mstore\n      dup1\n        /* \"TimeAllyPET.sol\":10610:10614  true */\n      0x01\n        /* \"TimeAllyPET.sol\":10580:10765  PETPlan({... */\n      iszero\n      iszero\n      dup2\n      mstore\n      0x20\n      add\n        /* \"TimeAllyPET.sol\":10654:10685  _minimumMonthlyCommitmentAmount */\n      dup5\n        /* \"TimeAllyPET.sol\":10580:10765  PETPlan({... */\n      dup2\n      mstore\n      0x20\n      add\n        /* \"TimeAllyPET.sol\":10726:10758  _monthlyBenefitFactorPerThousand */\n      dup4\n        /* \"TimeAllyPET.sol\":10580:10765  PETPlan({... */\n      dup2\n      mstore\n      pop\n        /* \"TimeAllyPET.sol\":10566:10766  petPlans.push(PETPlan({... */\n      swap1\n      dup1\n        /* \"--CODEGEN--\":39:40   */\n      0x01\n        /* \"--CODEGEN--\":33:36   */\n      dup2\n        /* \"--CODEGEN--\":27:37   */\n      sload\n        /* \"--CODEGEN--\":23:41   */\n      add\n        /* \"--CODEGEN--\":57:67   */\n      dup1\n        /* \"--CODEGEN--\":52:55   */\n      dup3\n        /* \"--CODEGEN--\":45:68   */\n      sstore\n        /* \"--CODEGEN--\":79:89   */\n      dup1\n        /* \"--CODEGEN--\":72:89   */\n      swap2\n      pop\n        /* \"--CODEGEN--\":0:93   */\n      pop\n        /* \"TimeAllyPET.sol\":10566:10766  petPlans.push(PETPlan({... */\n      0x01\n      swap1\n      sub\n      swap1\n      0x00\n      mstore\n      keccak256(0x00, 0x20)\n      swap1\n      0x03\n      mul\n      add\n      0x00\n      swap1\n      swap2\n      swap1\n      swap2\n      swap1\n      swap2\n      pop\n      0x00\n      dup3\n      add\n      mload\n      dup2\n      0x00\n      add\n      exp(0x0100, 0x00)\n      dup2\n      sload\n      dup2\n      0xff\n      mul\n      not\n      and\n      swap1\n      dup4\n      iszero\n      iszero\n      mul\n      or\n      swap1\n      sstore\n      pop\n      0x20\n      dup3\n      add\n      mload\n      dup2\n      0x01\n      add\n      sstore\n      0x40\n      dup3\n      add\n      mload\n      dup2\n      0x02\n      add\n      sstore\n      pop\n      pop\n        /* \"TimeAllyPET.sol\":10812:10934  NewPETPlan(... */\n      0xf47d2a74cdeac9661be2d3138ed3f81d11abcff723e84a800a60b86eeaf90afe\n        /* \"TimeAllyPET.sol\":10830:10861  _minimumMonthlyCommitmentAmount */\n      dup3\n        /* \"TimeAllyPET.sol\":10869:10901  _monthlyBenefitFactorPerThousand */\n      dup3\n        /* \"TimeAllyPET.sol\":10927:10928  1 */\n      0x01\n        /* \"TimeAllyPET.sol\":10909:10917  petPlans */\n      0x03\n        /* \"TimeAllyPET.sol\":10909:10924  petPlans.length */\n      dup1\n      sload\n      swap1\n      pop\n        /* \"TimeAllyPET.sol\":10909:10928  petPlans.length - 1 */\n      sub\n        /* \"TimeAllyPET.sol\":10812:10934  NewPETPlan(... */\n      mload(0x40)\n      dup1\n      dup5\n      dup2\n      mstore\n      0x20\n      add\n      dup4\n      dup2\n      mstore\n      0x20\n      add\n      dup3\n      dup2\n      mstore\n      0x20\n      add\n      swap4\n      pop\n      pop\n      pop\n      pop\n      mload(0x40)\n      dup1\n      swap2\n      sub\n      swap1\n      log1\n        /* \"TimeAllyPET.sol\":10375:10939  function createPETPlan(... */\n      pop\n      pop\n      jump\t// out\n        /* \"TimeAllyPET.sol\":27634:28587  function getSumOfMonthlyAnnuity(... */\n    tag_69:\n        /* \"TimeAllyPET.sol\":27805:27812  uint256 */\n      0x00\n        /* \"TimeAllyPET.sol\":27888:27904  PET storage _pet */\n      dup1\n        /* \"TimeAllyPET.sol\":27907:27911  pets */\n      0x04\n        /* \"TimeAllyPET.sol\":27907:27927  pets[_stakerAddress] */\n      0x00\n        /* \"TimeAllyPET.sol\":27912:27926  _stakerAddress */\n      dup8\n        /* \"TimeAllyPET.sol\":27907:27927  pets[_stakerAddress] */\n      0xffffffffffffffffffffffffffffffffffffffff\n      and\n      0xffffffffffffffffffffffffffffffffffffffff\n      and\n      dup2\n      mstore\n      0x20\n      add\n      swap1\n      dup2\n      mstore\n      0x20\n      add\n      0x00\n      keccak256\n        /* \"TimeAllyPET.sol\":27928:27934  _petId */\n      dup6\n        /* \"TimeAllyPET.sol\":27907:27935  pets[_stakerAddress][_petId] */\n      dup2\n      sload\n      dup2\n      lt\n      tag_264\n      jumpi\n      invalid\n    tag_264:\n      swap1\n      0x00\n      mstore\n      keccak256(0x00, 0x20)\n      swap1\n      0x0a\n      mul\n      add\n        /* \"TimeAllyPET.sol\":27888:27935  PET storage _pet = pets[_stakerAddress][_petId] */\n      swap1\n      pop\n        /* \"TimeAllyPET.sol\":27941:27965  PETPlan storage _petPlan */\n      0x00\n        /* \"TimeAllyPET.sol\":27968:27976  petPlans */\n      0x03\n        /* \"TimeAllyPET.sol\":27977:27981  _pet */\n      dup3\n        /* \"TimeAllyPET.sol\":27977:27988  _pet.planId */\n      0x00\n      add\n      sload\n        /* \"TimeAllyPET.sol\":27968:27989  petPlans[_pet.planId] */\n      dup2\n      sload\n      dup2\n      lt\n      tag_266\n      jumpi\n      invalid\n    tag_266:\n      swap1\n      0x00\n      mstore\n      keccak256(0x00, 0x20)\n      swap1\n      0x03\n      mul\n      add\n        /* \"TimeAllyPET.sol\":27941:27989  PETPlan storage _petPlan = petPlans[_pet.planId] */\n      swap1\n      pop\n        /* \"TimeAllyPET.sol\":27996:28018  uint256 _totalDeposits */\n      0x00\n        /* \"TimeAllyPET.sol\":28101:28111  uint256 _i */\n      dup1\n        /* \"TimeAllyPET.sol\":28114:28134  _startAnnuityMonthId */\n      dup7\n        /* \"TimeAllyPET.sol\":28101:28134  uint256 _i = _startAnnuityMonthId */\n      swap1\n      pop\n        /* \"TimeAllyPET.sol\":28097:28433  for(uint256 _i = _startAnnuityMonthId; _i <= _endAnnuityMonthId; _i++) {... */\n    tag_268:\n        /* \"TimeAllyPET.sol\":28142:28160  _endAnnuityMonthId */\n      dup6\n        /* \"TimeAllyPET.sol\":28136:28138  _i */\n      dup2\n        /* \"TimeAllyPET.sol\":28136:28160  _i <= _endAnnuityMonthId */\n      gt\n        /* \"TimeAllyPET.sol\":28097:28433  for(uint256 _i = _startAnnuityMonthId; _i <= _endAnnuityMonthId; _i++) {... */\n      tag_269\n      jumpi\n        /* \"TimeAllyPET.sol\":28176:28191  uint256 _modulo */\n      0x00\n        /* \"TimeAllyPET.sol\":28197:28199  12 */\n      0x0c\n        /* \"TimeAllyPET.sol\":28194:28196  _i */\n      dup3\n        /* \"TimeAllyPET.sol\":28194:28199  _i%12 */\n      dup2\n      tag_271\n      jumpi\n      invalid\n    tag_271:\n      mod\n        /* \"TimeAllyPET.sol\":28176:28199  uint256 _modulo = _i%12 */\n      swap1\n      pop\n        /* \"TimeAllyPET.sol\":28207:28241  uint256 _depositAmountIncludingPET */\n      0x00\n        /* \"TimeAllyPET.sol\":28244:28354  _getTotalDepositedIncludingPET(_pet.monthlyDepositAmount[_modulo==0?12:_modulo], _pet.monthlyCommitmentAmount) */\n      tag_272\n        /* \"TimeAllyPET.sol\":28275:28279  _pet */\n      dup7\n        /* \"TimeAllyPET.sol\":28275:28300  _pet.monthlyDepositAmount */\n      0x06\n      add\n        /* \"TimeAllyPET.sol\":28275:28323  _pet.monthlyDepositAmount[_modulo==0?12:_modulo] */\n      0x00\n        /* \"TimeAllyPET.sol\":28310:28311  0 */\n      dup1\n        /* \"TimeAllyPET.sol\":28301:28308  _modulo */\n      dup6\n        /* \"TimeAllyPET.sol\":28301:28311  _modulo==0 */\n      eq\n        /* \"TimeAllyPET.sol\":28301:28322  _modulo==0?12:_modulo */\n      tag_273\n      jumpi\n        /* \"TimeAllyPET.sol\":28315:28322  _modulo */\n      dup5\n        /* \"TimeAllyPET.sol\":28301:28322  _modulo==0?12:_modulo */\n      jump(tag_274)\n    tag_273:\n        /* \"TimeAllyPET.sol\":28312:28314  12 */\n      0x0c\n        /* \"TimeAllyPET.sol\":28301:28322  _modulo==0?12:_modulo */\n    tag_274:\n        /* \"TimeAllyPET.sol\":28275:28323  _pet.monthlyDepositAmount[_modulo==0?12:_modulo] */\n      dup2\n      mstore\n      0x20\n      add\n      swap1\n      dup2\n      mstore\n      0x20\n      add\n      0x00\n      keccak256\n      sload\n        /* \"TimeAllyPET.sol\":28325:28329  _pet */\n      dup8\n        /* \"TimeAllyPET.sol\":28325:28353  _pet.monthlyCommitmentAmount */\n      0x01\n      add\n      sload\n        /* \"TimeAllyPET.sol\":28244:28274  _getTotalDepositedIncludingPET */\n      tag_256\n        /* \"TimeAllyPET.sol\":28244:28354  _getTotalDepositedIncludingPET(_pet.monthlyDepositAmount[_modulo==0?12:_modulo], _pet.monthlyCommitmentAmount) */\n      jump\t// in\n    tag_272:\n        /* \"TimeAllyPET.sol\":28207:28354  uint256 _depositAmountIncludingPET = _getTotalDepositedIncludingPET(_pet.monthlyDepositAmount[_modulo==0?12:_modulo], _pet.monthlyCommitmentAmount) */\n      swap1\n      pop\n        /* \"TimeAllyPET.sol\":28380:28426  _totalDeposits.add(_depositAmountIncludingPET) */\n      tag_275\n        /* \"TimeAllyPET.sol\":28399:28425  _depositAmountIncludingPET */\n      dup2\n        /* \"TimeAllyPET.sol\":28380:28394  _totalDeposits */\n      dup6\n        /* \"TimeAllyPET.sol\":28380:28398  _totalDeposits.add */\n      tag_130\n      swap1\n        /* \"TimeAllyPET.sol\":28380:28426  _totalDeposits.add(_depositAmountIncludingPET) */\n      swap2\n      swap1\n      0xffffffff\n      and\n      jump\t// in\n    tag_275:\n        /* \"TimeAllyPET.sol\":28363:28426  _totalDeposits = _totalDeposits.add(_depositAmountIncludingPET) */\n      swap4\n      pop\n        /* \"TimeAllyPET.sol\":28097:28433  for(uint256 _i = _startAnnuityMonthId; _i <= _endAnnuityMonthId; _i++) {... */\n      pop\n      pop\n        /* \"TimeAllyPET.sol\":28162:28166  _i++ */\n      dup1\n      dup1\n      0x01\n      add\n      swap2\n      pop\n      pop\n        /* \"TimeAllyPET.sol\":28097:28433  for(uint256 _i = _startAnnuityMonthId; _i <= _endAnnuityMonthId; _i++) {... */\n      jump(tag_268)\n    tag_269:\n      pop\n        /* \"TimeAllyPET.sol\":28512:28582  _totalDeposits.mul(_petPlan.monthlyBenefitFactorPerThousand).div(1000) */\n      tag_276\n        /* \"TimeAllyPET.sol\":28577:28581  1000 */\n      0x03e8\n        /* \"TimeAllyPET.sol\":28512:28572  _totalDeposits.mul(_petPlan.monthlyBenefitFactorPerThousand) */\n      tag_277\n        /* \"TimeAllyPET.sol\":28531:28539  _petPlan */\n      dup5\n        /* \"TimeAllyPET.sol\":28531:28571  _petPlan.monthlyBenefitFactorPerThousand */\n      0x02\n      add\n      sload\n        /* \"TimeAllyPET.sol\":28512:28526  _totalDeposits */\n      dup5\n        /* \"TimeAllyPET.sol\":28512:28530  _totalDeposits.mul */\n      tag_153\n      swap1\n        /* \"TimeAllyPET.sol\":28512:28572  _totalDeposits.mul(_petPlan.monthlyBenefitFactorPerThousand) */\n      swap2\n      swap1\n      0xffffffff\n      and\n      jump\t// in\n    tag_277:\n        /* \"TimeAllyPET.sol\":28512:28576  _totalDeposits.mul(_petPlan.monthlyBenefitFactorPerThousand).div */\n      tag_135\n      swap1\n        /* \"TimeAllyPET.sol\":28512:28582  _totalDeposits.mul(_petPlan.monthlyBenefitFactorPerThousand).div(1000) */\n      swap2\n      swap1\n      0xffffffff\n      and\n      jump\t// in\n    tag_276:\n        /* \"TimeAllyPET.sol\":28505:28582  return _totalDeposits.mul(_petPlan.monthlyBenefitFactorPerThousand).div(1000) */\n      swap4\n      pop\n      pop\n      pop\n      pop\n        /* \"TimeAllyPET.sol\":27634:28587  function getSumOfMonthlyAnnuity(... */\n      swap5\n      swap4\n      pop\n      pop\n      pop\n      pop\n      jump\t// out\n        /* \"TimeAllyPET.sol\":25625:26316  function getNomineeAllowedTimestamp(... */\n    tag_72:\n        /* \"TimeAllyPET.sol\":25763:25770  uint256 */\n      0x00\n        /* \"TimeAllyPET.sol\":25778:25794  PET storage _pet */\n      dup1\n        /* \"TimeAllyPET.sol\":25797:25801  pets */\n      0x04\n        /* \"TimeAllyPET.sol\":25797:25817  pets[_stakerAddress] */\n      0x00\n        /* \"TimeAllyPET.sol\":25802:25816  _stakerAddress */\n      dup7\n        /* \"TimeAllyPET.sol\":25797:25817  pets[_stakerAddress] */\n      0xffffffffffffffffffffffffffffffffffffffff\n      and\n      0xffffffffffffffffffffffffffffffffffffffff\n      and\n      dup2\n      mstore\n      0x20\n      add\n      swap1\n      dup2\n      mstore\n      0x20\n      add\n      0x00\n      keccak256\n        /* \"TimeAllyPET.sol\":25818:25824  _petId */\n      dup5\n        /* \"TimeAllyPET.sol\":25797:25825  pets[_stakerAddress][_petId] */\n      dup2\n      sload\n      dup2\n      lt\n      tag_279\n      jumpi\n      invalid\n    tag_279:\n      swap1\n      0x00\n      mstore\n      keccak256(0x00, 0x20)\n      swap1\n      0x0a\n      mul\n      add\n        /* \"TimeAllyPET.sol\":25778:25825  PET storage _pet = pets[_stakerAddress][_petId] */\n      swap1\n      pop\n        /* \"TimeAllyPET.sol\":25831:25856  uint256 _allowedTimestamp */\n      0x00\n        /* \"TimeAllyPET.sol\":4615:4622  2629744 */\n      0x282070\n        /* \"TimeAllyPET.sol\":25910:25911  1 */\n      0x01\n        /* \"TimeAllyPET.sol\":25892:25907  _annuityMonthId */\n      dup6\n        /* \"TimeAllyPET.sol\":25887:25889  12 */\n      0x0c\n        /* \"TimeAllyPET.sol\":25887:25907  12 + _annuityMonthId */\n      add\n        /* \"TimeAllyPET.sol\":25887:25911  12 + _annuityMonthId - 1 */\n      sub\n        /* \"TimeAllyPET.sol\":25886:25937  (12 + _annuityMonthId - 1) * EARTH_SECONDS_IN_MONTH */\n      mul\n        /* \"TimeAllyPET.sol\":25859:25863  _pet */\n      dup3\n        /* \"TimeAllyPET.sol\":25859:25877  _pet.initTimestamp */\n      0x02\n      add\n      sload\n        /* \"TimeAllyPET.sol\":25859:25937  _pet.initTimestamp... */\n      add\n        /* \"TimeAllyPET.sol\":25831:25937  uint256 _allowedTimestamp = _pet.initTimestamp... */\n      swap1\n      pop\n        /* \"TimeAllyPET.sol\":26055:26069  _stakerAddress */\n      dup6\n        /* \"TimeAllyPET.sol\":26041:26069  msg.sender != _stakerAddress */\n      0xffffffffffffffffffffffffffffffffffffffff\n      and\n        /* \"TimeAllyPET.sol\":26041:26051  msg.sender */\n      caller\n        /* \"TimeAllyPET.sol\":26041:26069  msg.sender != _stakerAddress */\n      0xffffffffffffffffffffffffffffffffffffffff\n      and\n      eq\n        /* \"TimeAllyPET.sol\":26038:26281  if(msg.sender != _stakerAddress) {... */\n      tag_281\n      jumpi\n        /* \"TimeAllyPET.sol\":26104:26134  _pet.numberOfAppointees.div(2) */\n      tag_282\n        /* \"TimeAllyPET.sol\":26132:26133  2 */\n      0x02\n        /* \"TimeAllyPET.sol\":26104:26108  _pet */\n      dup4\n        /* \"TimeAllyPET.sol\":26104:26127  _pet.numberOfAppointees */\n      0x05\n      add\n      sload\n        /* \"TimeAllyPET.sol\":26104:26131  _pet.numberOfAppointees.div */\n      tag_135\n      swap1\n        /* \"TimeAllyPET.sol\":26104:26134  _pet.numberOfAppointees.div(2) */\n      swap2\n      swap1\n      0xffffffff\n      and\n      jump\t// in\n    tag_282:\n        /* \"TimeAllyPET.sol\":26082:26086  _pet */\n      dup3\n        /* \"TimeAllyPET.sol\":26082:26101  _pet.appointeeVotes */\n      0x04\n      add\n      sload\n        /* \"TimeAllyPET.sol\":26082:26134  _pet.appointeeVotes > _pet.numberOfAppointees.div(2) */\n      gt\n        /* \"TimeAllyPET.sol\":26079:26275  if(_pet.appointeeVotes > _pet.numberOfAppointees.div(2)) {... */\n      iszero\n      tag_283\n      jumpi\n        /* \"TimeAllyPET.sol\":26192:26193  6 */\n      0x06\n        /* \"TimeAllyPET.sol\":4615:4622  2629744 */\n      0x282070\n        /* \"TimeAllyPET.sol\":26167:26193  EARTH_SECONDS_IN_MONTH * 6 */\n      mul\n        /* \"TimeAllyPET.sol\":26146:26193  _allowedTimestamp += EARTH_SECONDS_IN_MONTH * 6 */\n      dup2\n      add\n      swap1\n      pop\n        /* \"TimeAllyPET.sol\":26079:26275  if(_pet.appointeeVotes > _pet.numberOfAppointees.div(2)) {... */\n      jump(tag_284)\n    tag_283:\n        /* \"TimeAllyPET.sol\":26264:26266  12 */\n      0x0c\n        /* \"TimeAllyPET.sol\":4615:4622  2629744 */\n      0x282070\n        /* \"TimeAllyPET.sol\":26239:26266  EARTH_SECONDS_IN_MONTH * 12 */\n      mul\n        /* \"TimeAllyPET.sol\":26218:26266  _allowedTimestamp += EARTH_SECONDS_IN_MONTH * 12 */\n      dup2\n      add\n      swap1\n      pop\n        /* \"TimeAllyPET.sol\":26079:26275  if(_pet.appointeeVotes > _pet.numberOfAppointees.div(2)) {... */\n    tag_284:\n        /* \"TimeAllyPET.sol\":26038:26281  if(msg.sender != _stakerAddress) {... */\n    tag_281:\n        /* \"TimeAllyPET.sol\":26294:26311  _allowedTimestamp */\n      dup1\n        /* \"TimeAllyPET.sol\":26287:26311  return _allowedTimestamp */\n      swap3\n      pop\n      pop\n      pop\n        /* \"TimeAllyPET.sol\":25625:26316  function getNomineeAllowedTimestamp(... */\n      swap4\n      swap3\n      pop\n      pop\n      pop\n      jump\t// out\n        /* \"TimeAllyPET.sol\":8514:8964  function sendPrepaidESDifferent(... */\n    tag_81:\n        /* \"TimeAllyPET.sol\":8631:8640  uint256 i */\n      0x00\n        /* \"TimeAllyPET.sol\":8643:8644  0 */\n      dup1\n        /* \"TimeAllyPET.sol\":8631:8644  uint256 i = 0 */\n      swap1\n      pop\n        /* \"TimeAllyPET.sol\":8627:8960  for(uint256 i = 0; i < _addresses.length; i++) {... */\n    tag_286:\n        /* \"TimeAllyPET.sol\":8650:8660  _addresses */\n      dup3\n        /* \"TimeAllyPET.sol\":8650:8667  _addresses.length */\n      mload\n        /* \"TimeAllyPET.sol\":8646:8647  i */\n      dup2\n        /* \"TimeAllyPET.sol\":8646:8667  i < _addresses.length */\n      lt\n        /* \"TimeAllyPET.sol\":8627:8960  for(uint256 i = 0; i < _addresses.length; i++) {... */\n      iszero\n      tag_287\n      jumpi\n        /* \"TimeAllyPET.sol\":8765:8803  prepaidES[msg.sender].sub(_amounts[i]) */\n      tag_289\n        /* \"TimeAllyPET.sol\":8791:8799  _amounts */\n      dup3\n        /* \"TimeAllyPET.sol\":8800:8801  i */\n      dup3\n        /* \"TimeAllyPET.sol\":8791:8802  _amounts[i] */\n      dup2\n      mload\n      dup2\n      lt\n      tag_290\n      jumpi\n      invalid\n    tag_290:\n      0x20\n      mul\n      0x20\n      add\n      add\n      mload\n        /* \"TimeAllyPET.sol\":8765:8774  prepaidES */\n      0x05\n        /* \"TimeAllyPET.sol\":8765:8786  prepaidES[msg.sender] */\n      0x00\n        /* \"TimeAllyPET.sol\":8775:8785  msg.sender */\n      caller\n        /* \"TimeAllyPET.sol\":8765:8786  prepaidES[msg.sender] */\n      0xffffffffffffffffffffffffffffffffffffffff\n      and\n      0xffffffffffffffffffffffffffffffffffffffff\n      and\n      dup2\n      mstore\n      0x20\n      add\n      swap1\n      dup2\n      mstore\n      0x20\n      add\n      0x00\n      keccak256\n      sload\n        /* \"TimeAllyPET.sol\":8765:8790  prepaidES[msg.sender].sub */\n      tag_123\n      swap1\n        /* \"TimeAllyPET.sol\":8765:8803  prepaidES[msg.sender].sub(_amounts[i]) */\n      swap2\n      swap1\n      0xffffffff\n      and\n      jump\t// in\n    tag_289:\n        /* \"TimeAllyPET.sol\":8741:8750  prepaidES */\n      0x05\n        /* \"TimeAllyPET.sol\":8741:8762  prepaidES[msg.sender] */\n      0x00\n        /* \"TimeAllyPET.sol\":8751:8761  msg.sender */\n      caller\n        /* \"TimeAllyPET.sol\":8741:8762  prepaidES[msg.sender] */\n      0xffffffffffffffffffffffffffffffffffffffff\n      and\n      0xffffffffffffffffffffffffffffffffffffffff\n      and\n      dup2\n      mstore\n      0x20\n      add\n      swap1\n      dup2\n      mstore\n      0x20\n      add\n      0x00\n      keccak256\n        /* \"TimeAllyPET.sol\":8741:8803  prepaidES[msg.sender] = prepaidES[msg.sender].sub(_amounts[i]) */\n      dup2\n      swap1\n      sstore\n      pop\n        /* \"TimeAllyPET.sol\":8912:8953  prepaidES[_addresses[i]].add(_amounts[i]) */\n      tag_291\n        /* \"TimeAllyPET.sol\":8941:8949  _amounts */\n      dup3\n        /* \"TimeAllyPET.sol\":8950:8951  i */\n      dup3\n        /* \"TimeAllyPET.sol\":8941:8952  _amounts[i] */\n      dup2\n      mload\n      dup2\n      lt\n      tag_292\n      jumpi\n      invalid\n    tag_292:\n      0x20\n      mul\n      0x20\n      add\n      add\n      mload\n        /* \"TimeAllyPET.sol\":8912:8921  prepaidES */\n      0x05\n        /* \"TimeAllyPET.sol\":8912:8936  prepaidES[_addresses[i]] */\n      0x00\n        /* \"TimeAllyPET.sol\":8922:8932  _addresses */\n      dup7\n        /* \"TimeAllyPET.sol\":8933:8934  i */\n      dup6\n        /* \"TimeAllyPET.sol\":8922:8935  _addresses[i] */\n      dup2\n      mload\n      dup2\n      lt\n      tag_293\n      jumpi\n      invalid\n    tag_293:\n      0x20\n      mul\n      0x20\n      add\n      add\n      mload\n        /* \"TimeAllyPET.sol\":8912:8936  prepaidES[_addresses[i]] */\n      0xffffffffffffffffffffffffffffffffffffffff\n      and\n      0xffffffffffffffffffffffffffffffffffffffff\n      and\n      dup2\n      mstore\n      0x20\n      add\n      swap1\n      dup2\n      mstore\n      0x20\n      add\n      0x00\n      keccak256\n      sload\n        /* \"TimeAllyPET.sol\":8912:8940  prepaidES[_addresses[i]].add */\n      tag_130\n      swap1\n        /* \"TimeAllyPET.sol\":8912:8953  prepaidES[_addresses[i]].add(_amounts[i]) */\n      swap2\n      swap1\n      0xffffffff\n      and\n      jump\t// in\n    tag_291:\n        /* \"TimeAllyPET.sol\":8885:8894  prepaidES */\n      0x05\n        /* \"TimeAllyPET.sol\":8885:8909  prepaidES[_addresses[i]] */\n      0x00\n        /* \"TimeAllyPET.sol\":8895:8905  _addresses */\n      dup6\n        /* \"TimeAllyPET.sol\":8906:8907  i */\n      dup5\n        /* \"TimeAllyPET.sol\":8895:8908  _addresses[i] */\n      dup2\n      mload\n      dup2\n      lt\n      tag_294\n      jumpi\n      invalid\n    tag_294:\n      0x20\n      mul\n      0x20\n      add\n      add\n      mload\n        /* \"TimeAllyPET.sol\":8885:8909  prepaidES[_addresses[i]] */\n      0xffffffffffffffffffffffffffffffffffffffff\n      and\n      0xffffffffffffffffffffffffffffffffffffffff\n      and\n      dup2\n      mstore\n      0x20\n      add\n      swap1\n      dup2\n      mstore\n      0x20\n      add\n      0x00\n      keccak256\n        /* \"TimeAllyPET.sol\":8885:8953  prepaidES[_addresses[i]] = prepaidES[_addresses[i]].add(_amounts[i]) */\n      dup2\n      swap1\n      sstore\n      pop\n        /* \"TimeAllyPET.sol\":8669:8672  i++ */\n      dup1\n      dup1\n      0x01\n      add\n      swap2\n      pop\n      pop\n        /* \"TimeAllyPET.sol\":8627:8960  for(uint256 i = 0; i < _addresses.length; i++) {... */\n      jump(tag_286)\n    tag_287:\n      pop\n        /* \"TimeAllyPET.sol\":8514:8964  function sendPrepaidESDifferent(... */\n      pop\n      pop\n      jump\t// out\n        /* \"TimeAllyPET.sol\":11208:11342  function updatePlanStatus(uint256 _planId, bool _newStatus) public onlyDeployer {... */\n    tag_84:\n        /* \"TimeAllyPET.sol\":7069:7077  deployer */\n      0x00\n      dup1\n      swap1\n      sload\n      swap1\n      0x0100\n      exp\n      swap1\n      div\n      0xffffffffffffffffffffffffffffffffffffffff\n      and\n        /* \"TimeAllyPET.sol\":7055:7077  msg.sender == deployer */\n      0xffffffffffffffffffffffffffffffffffffffff\n      and\n        /* \"TimeAllyPET.sol\":7055:7065  msg.sender */\n      caller\n        /* \"TimeAllyPET.sol\":7055:7077  msg.sender == deployer */\n      0xffffffffffffffffffffffffffffffffffffffff\n      and\n      eq\n        /* \"TimeAllyPET.sol\":7047:7104  require(msg.sender == deployer, 'only deployer can call') */\n      tag_296\n      jumpi\n      mload(0x40)\n      0x08c379a000000000000000000000000000000000000000000000000000000000\n      dup2\n      mstore\n      0x04\n      add\n      dup1\n      dup1\n      0x20\n      add\n      dup3\n      dup2\n      sub\n      dup3\n      mstore\n      0x16\n      dup2\n      mstore\n      0x20\n      add\n      dup1\n      0x6f6e6c79206465706c6f7965722063616e2063616c6c00000000000000000000\n      dup2\n      mstore\n      pop\n      0x20\n      add\n      swap2\n      pop\n      pop\n      mload(0x40)\n      dup1\n      swap2\n      sub\n      swap1\n      revert\n    tag_296:\n        /* \"TimeAllyPET.sol\":11327:11337  _newStatus */\n      dup1\n        /* \"TimeAllyPET.sol\":11294:11302  petPlans */\n      0x03\n        /* \"TimeAllyPET.sol\":11303:11310  _planId */\n      dup4\n        /* \"TimeAllyPET.sol\":11294:11311  petPlans[_planId] */\n      dup2\n      sload\n      dup2\n      lt\n      tag_298\n      jumpi\n      invalid\n    tag_298:\n      swap1\n      0x00\n      mstore\n      keccak256(0x00, 0x20)\n      swap1\n      0x03\n      mul\n      add\n        /* \"TimeAllyPET.sol\":11294:11324  petPlans[_planId].isPlanActive */\n      0x00\n      add\n      0x00\n        /* \"TimeAllyPET.sol\":11294:11337  petPlans[_planId].isPlanActive = _newStatus */\n      0x0100\n      exp\n      dup2\n      sload\n      dup2\n      0xff\n      mul\n      not\n      and\n      swap1\n      dup4\n      iszero\n      iszero\n      mul\n      or\n      swap1\n      sstore\n      pop\n        /* \"TimeAllyPET.sol\":11208:11342  function updatePlanStatus(uint256 _planId, bool _newStatus) public onlyDeployer {... */\n      pop\n      pop\n      jump\t// out\n        /* \"TimeAllyPET.sol\":25090:25302  function viewAppointation(... */\n    tag_87:\n        /* \"TimeAllyPET.sol\":25220:25224  bool */\n      0x00\n        /* \"TimeAllyPET.sol\":25239:25243  pets */\n      0x04\n        /* \"TimeAllyPET.sol\":25239:25259  pets[_stakerAddress] */\n      0x00\n        /* \"TimeAllyPET.sol\":25244:25258  _stakerAddress */\n      dup6\n        /* \"TimeAllyPET.sol\":25239:25259  pets[_stakerAddress] */\n      0xffffffffffffffffffffffffffffffffffffffff\n      and\n      0xffffffffffffffffffffffffffffffffffffffff\n      and\n      dup2\n      mstore\n      0x20\n      add\n      swap1\n      dup2\n      mstore\n      0x20\n      add\n      0x00\n      keccak256\n        /* \"TimeAllyPET.sol\":25260:25266  _petId */\n      dup4\n        /* \"TimeAllyPET.sol\":25239:25267  pets[_stakerAddress][_petId] */\n      dup2\n      sload\n      dup2\n      lt\n      tag_301\n      jumpi\n      invalid\n    tag_301:\n      swap1\n      0x00\n      mstore\n      keccak256(0x00, 0x20)\n      swap1\n      0x0a\n      mul\n      add\n        /* \"TimeAllyPET.sol\":25239:25278  pets[_stakerAddress][_petId].appointees */\n      0x09\n      add\n        /* \"TimeAllyPET.sol\":25239:25297  pets[_stakerAddress][_petId].appointees[_appointeeAddress] */\n      0x00\n        /* \"TimeAllyPET.sol\":25279:25296  _appointeeAddress */\n      dup4\n        /* \"TimeAllyPET.sol\":25239:25297  pets[_stakerAddress][_petId].appointees[_appointeeAddress] */\n      0xffffffffffffffffffffffffffffffffffffffff\n      and\n      0xffffffffffffffffffffffffffffffffffffffff\n      and\n      dup2\n      mstore\n      0x20\n      add\n      swap1\n      dup2\n      mstore\n      0x20\n      add\n      0x00\n      keccak256\n      0x00\n      swap1\n      sload\n      swap1\n      0x0100\n      exp\n      swap1\n      div\n      0xff\n      and\n        /* \"TimeAllyPET.sol\":25232:25297  return pets[_stakerAddress][_petId].appointees[_appointeeAddress] */\n      swap1\n      pop\n        /* \"TimeAllyPET.sol\":25090:25302  function viewAppointation(... */\n      swap4\n      swap3\n      pop\n      pop\n      pop\n      jump\t// out\n        /* \"TimeAllyPET.sol\":4672:4697  PETPlan[] public petPlans */\n    tag_90:\n      0x03\n      dup2\n      dup2\n      sload\n      dup2\n      lt\n      tag_303\n      jumpi\n      invalid\n    tag_303:\n      swap1\n      0x00\n      mstore\n      keccak256(0x00, 0x20)\n      swap1\n      0x03\n      mul\n      add\n      0x00\n      swap2\n      pop\n      swap1\n      pop\n      dup1\n      0x00\n      add\n      0x00\n      swap1\n      sload\n      swap1\n      0x0100\n      exp\n      swap1\n      div\n      0xff\n      and\n      swap1\n      dup1\n      0x01\n      add\n      sload\n      swap1\n      dup1\n      0x02\n      add\n      sload\n      swap1\n      pop\n      dup4\n      jump\t// out\n        /* \"TimeAllyPET.sol\":22607:24287  function withdrawPowerBooster(... */\n    tag_93:\n        /* \"TimeAllyPET.sol\":22737:22751  _stakerAddress */\n      dup3\n        /* \"TimeAllyPET.sol\":22753:22759  _petId */\n      dup3\n        /* \"TimeAllyPET.sol\":7267:7283  PET storage _pet */\n      0x00\n        /* \"TimeAllyPET.sol\":7286:7290  pets */\n      0x04\n        /* \"TimeAllyPET.sol\":7286:7306  pets[_stakerAddress] */\n      0x00\n        /* \"TimeAllyPET.sol\":7291:7305  _stakerAddress */\n      dup5\n        /* \"TimeAllyPET.sol\":7286:7306  pets[_stakerAddress] */\n      0xffffffffffffffffffffffffffffffffffffffff\n      and\n      0xffffffffffffffffffffffffffffffffffffffff\n      and\n      dup2\n      mstore\n      0x20\n      add\n      swap1\n      dup2\n      mstore\n      0x20\n      add\n      0x00\n      keccak256\n        /* \"TimeAllyPET.sol\":7307:7313  _petId */\n      dup3\n        /* \"TimeAllyPET.sol\":7286:7314  pets[_stakerAddress][_petId] */\n      dup2\n      sload\n      dup2\n      lt\n      tag_306\n      jumpi\n      invalid\n    tag_306:\n      swap1\n      0x00\n      mstore\n      keccak256(0x00, 0x20)\n      swap1\n      0x0a\n      mul\n      add\n        /* \"TimeAllyPET.sol\":7267:7314  PET storage _pet = pets[_stakerAddress][_petId] */\n      swap1\n      pop\n        /* \"TimeAllyPET.sol\":7417:7431  _stakerAddress */\n      dup3\n        /* \"TimeAllyPET.sol\":7403:7431  msg.sender != _stakerAddress */\n      0xffffffffffffffffffffffffffffffffffffffff\n      and\n        /* \"TimeAllyPET.sol\":7403:7413  msg.sender */\n      caller\n        /* \"TimeAllyPET.sol\":7403:7431  msg.sender != _stakerAddress */\n      0xffffffffffffffffffffffffffffffffffffffff\n      and\n      eq\n        /* \"TimeAllyPET.sol\":7400:7512  if(msg.sender != _stakerAddress) {... */\n      tag_308\n      jumpi\n        /* \"TimeAllyPET.sol\":7449:7453  _pet */\n      dup1\n        /* \"TimeAllyPET.sol\":7449:7462  _pet.nominees */\n      0x08\n      add\n        /* \"TimeAllyPET.sol\":7449:7474  _pet.nominees[msg.sender] */\n      0x00\n        /* \"TimeAllyPET.sol\":7463:7473  msg.sender */\n      caller\n        /* \"TimeAllyPET.sol\":7449:7474  _pet.nominees[msg.sender] */\n      0xffffffffffffffffffffffffffffffffffffffff\n      and\n      0xffffffffffffffffffffffffffffffffffffffff\n      and\n      dup2\n      mstore\n      0x20\n      add\n      swap1\n      dup2\n      mstore\n      0x20\n      add\n      0x00\n      keccak256\n      0x00\n      swap1\n      sload\n      swap1\n      0x0100\n      exp\n      swap1\n      div\n      0xff\n      and\n        /* \"TimeAllyPET.sol\":7441:7505  require(_pet.nominees[msg.sender], 'nomination should be there') */\n      tag_309\n      jumpi\n      mload(0x40)\n      0x08c379a000000000000000000000000000000000000000000000000000000000\n      dup2\n      mstore\n      0x04\n      add\n      dup1\n      dup1\n      0x20\n      add\n      dup3\n      dup2\n      sub\n      dup3\n      mstore\n      0x1a\n      dup2\n      mstore\n      0x20\n      add\n      dup1\n      0x6e6f6d696e6174696f6e2073686f756c64206265207468657265000000000000\n      dup2\n      mstore\n      pop\n      0x20\n      add\n      swap2\n      pop\n      pop\n      mload(0x40)\n      dup1\n      swap2\n      sub\n      swap1\n      revert\n    tag_309:\n        /* \"TimeAllyPET.sol\":7400:7512  if(msg.sender != _stakerAddress) {... */\n    tag_308:\n        /* \"TimeAllyPET.sol\":22767:22783  PET storage _pet */\n      0x00\n        /* \"TimeAllyPET.sol\":22786:22790  pets */\n      0x04\n        /* \"TimeAllyPET.sol\":22786:22806  pets[_stakerAddress] */\n      0x00\n        /* \"TimeAllyPET.sol\":22791:22805  _stakerAddress */\n      dup9\n        /* \"TimeAllyPET.sol\":22786:22806  pets[_stakerAddress] */\n      0xffffffffffffffffffffffffffffffffffffffff\n      and\n      0xffffffffffffffffffffffffffffffffffffffff\n      and\n      dup2\n      mstore\n      0x20\n      add\n      swap1\n      dup2\n      mstore\n      0x20\n      add\n      0x00\n      keccak256\n        /* \"TimeAllyPET.sol\":22807:22813  _petId */\n      dup7\n        /* \"TimeAllyPET.sol\":22786:22814  pets[_stakerAddress][_petId] */\n      dup2\n      sload\n      dup2\n      lt\n      tag_311\n      jumpi\n      invalid\n    tag_311:\n      swap1\n      0x00\n      mstore\n      keccak256(0x00, 0x20)\n      swap1\n      0x0a\n      mul\n      add\n        /* \"TimeAllyPET.sol\":22767:22814  PET storage _pet = pets[_stakerAddress][_petId] */\n      swap1\n      pop\n        /* \"TimeAllyPET.sol\":22895:22910  _powerBoosterId */\n      dup5\n        /* \"TimeAllyPET.sol\":22890:22891  1 */\n      0x01\n        /* \"TimeAllyPET.sol\":22890:22910  1 <= _powerBoosterId */\n      gt\n      iszero\n        /* \"TimeAllyPET.sol\":22890:22935  1 <= _powerBoosterId && _powerBoosterId <= 12 */\n      dup1\n      iszero\n      tag_313\n      jumpi\n      pop\n        /* \"TimeAllyPET.sol\":22933:22935  12 */\n      0x0c\n        /* \"TimeAllyPET.sol\":22914:22929  _powerBoosterId */\n      dup6\n        /* \"TimeAllyPET.sol\":22914:22935  _powerBoosterId <= 12 */\n      gt\n      iszero\n        /* \"TimeAllyPET.sol\":22890:22935  1 <= _powerBoosterId && _powerBoosterId <= 12 */\n    tag_313:\n        /* \"TimeAllyPET.sol\":22875:22973  require(... */\n      tag_314\n      jumpi\n      mload(0x40)\n      0x08c379a000000000000000000000000000000000000000000000000000000000\n      dup2\n      mstore\n      0x04\n      add\n      dup1\n      dup1\n      0x20\n      add\n      dup3\n      dup2\n      sub\n      dup3\n      mstore\n      0x15\n      dup2\n      mstore\n      0x20\n      add\n      dup1\n      0x69642073686f756c6420626520696e2072616e67650000000000000000000000\n      dup2\n      mstore\n      pop\n      0x20\n      add\n      swap2\n      pop\n      pop\n      mload(0x40)\n      dup1\n      swap2\n      sub\n      swap1\n      revert\n    tag_314:\n        /* \"TimeAllyPET.sol\":23051:23055  _pet */\n      dup1\n        /* \"TimeAllyPET.sol\":23051:23079  _pet.isPowerBoosterWithdrawn */\n      0x07\n      add\n        /* \"TimeAllyPET.sol\":23051:23096  _pet.isPowerBoosterWithdrawn[_powerBoosterId] */\n      0x00\n        /* \"TimeAllyPET.sol\":23080:23095  _powerBoosterId */\n      dup7\n        /* \"TimeAllyPET.sol\":23051:23096  _pet.isPowerBoosterWithdrawn[_powerBoosterId] */\n      dup2\n      mstore\n      0x20\n      add\n      swap1\n      dup2\n      mstore\n      0x20\n      add\n      0x00\n      keccak256\n      0x00\n      swap1\n      sload\n      swap1\n      0x0100\n      exp\n      swap1\n      div\n      0xff\n      and\n        /* \"TimeAllyPET.sol\":23050:23096  !_pet.isPowerBoosterWithdrawn[_powerBoosterId] */\n      iszero\n        /* \"TimeAllyPET.sol\":23035:23138  require(... */\n      tag_315\n      jumpi\n      mload(0x40)\n      0x08c379a000000000000000000000000000000000000000000000000000000000\n      dup2\n      mstore\n      0x04\n      add\n      dup1\n      dup1\n      0x20\n      add\n      dup3\n      dup2\n      sub\n      dup3\n      mstore\n      0x19\n      dup2\n      mstore\n      0x20\n      add\n      dup1\n      0x626f6f7374657220616c72656164792077697468647261776e00000000000000\n      dup2\n      mstore\n      pop\n      0x20\n      add\n      swap2\n      pop\n      pop\n      mload(0x40)\n      dup1\n      swap2\n      sub\n      swap1\n      revert\n    tag_315:\n        /* \"TimeAllyPET.sol\":23259:23263  _pet */\n      dup1\n        /* \"TimeAllyPET.sol\":23259:23287  _pet.monthlyCommitmentAmount */\n      0x01\n      add\n      sload\n        /* \"TimeAllyPET.sol\":23208:23212  _pet */\n      dup2\n        /* \"TimeAllyPET.sol\":23208:23233  _pet.monthlyDepositAmount */\n      0x06\n      add\n        /* \"TimeAllyPET.sol\":23208:23255  _pet.monthlyDepositAmount[13 - _powerBoosterId] */\n      0x00\n        /* \"TimeAllyPET.sol\":23239:23254  _powerBoosterId */\n      dup8\n        /* \"TimeAllyPET.sol\":23234:23236  13 */\n      0x0d\n        /* \"TimeAllyPET.sol\":23234:23254  13 - _powerBoosterId */\n      sub\n        /* \"TimeAllyPET.sol\":23208:23255  _pet.monthlyDepositAmount[13 - _powerBoosterId] */\n      dup2\n      mstore\n      0x20\n      add\n      swap1\n      dup2\n      mstore\n      0x20\n      add\n      0x00\n      keccak256\n      sload\n        /* \"TimeAllyPET.sol\":23208:23287  _pet.monthlyDepositAmount[13 - _powerBoosterId] >= _pet.monthlyCommitmentAmount */\n      lt\n      iszero\n        /* \"TimeAllyPET.sol\":23193:23323  require(... */\n      tag_316\n      jumpi\n      mload(0x40)\n      0x08c379a000000000000000000000000000000000000000000000000000000000\n      dup2\n      mstore\n      0x04\n      add\n      dup1\n      dup1\n      0x20\n      add\n      dup3\n      dup2\n      sub\n      dup3\n      mstore\n      0x13\n      dup2\n      mstore\n      0x20\n      add\n      dup1\n      0x746172676574206e6f7420616368696576656400000000000000000000000000\n      dup2\n      mstore\n      pop\n      0x20\n      add\n      swap2\n      pop\n      pop\n      mload(0x40)\n      dup1\n      swap2\n      sub\n      swap1\n      revert\n    tag_316:\n        /* \"TimeAllyPET.sol\":23402:23427  uint256 _allowedTimestamp */\n      0x00\n        /* \"TimeAllyPET.sol\":23430:23525  getNomineeAllowedTimestamp(... */\n      tag_317\n        /* \"TimeAllyPET.sol\":23464:23478  _stakerAddress */\n      dup9\n        /* \"TimeAllyPET.sol\":23486:23492  _petId */\n      dup9\n        /* \"TimeAllyPET.sol\":23518:23519  1 */\n      0x01\n        /* \"TimeAllyPET.sol\":23516:23517  5 */\n      0x05\n        /* \"TimeAllyPET.sol\":23500:23515  _powerBoosterId */\n      dup11\n        /* \"TimeAllyPET.sol\":23500:23517  _powerBoosterId*5 */\n      mul\n        /* \"TimeAllyPET.sol\":23500:23519  _powerBoosterId*5+1 */\n      add\n        /* \"TimeAllyPET.sol\":23430:23456  getNomineeAllowedTimestamp */\n      tag_72\n        /* \"TimeAllyPET.sol\":23430:23525  getNomineeAllowedTimestamp(... */\n      jump\t// in\n    tag_317:\n        /* \"TimeAllyPET.sol\":23402:23525  uint256 _allowedTimestamp = getNomineeAllowedTimestamp(... */\n      swap1\n      pop\n        /* \"TimeAllyPET.sol\":23622:23639  _allowedTimestamp */\n      dup1\n        /* \"TimeAllyPET.sol\":23607:23612  token */\n      0x02\n      0x00\n      swap1\n      sload\n      swap1\n      0x0100\n      exp\n      swap1\n      div\n      0xffffffffffffffffffffffffffffffffffffffff\n      and\n        /* \"TimeAllyPET.sol\":23607:23616  token.mou */\n      0xffffffffffffffffffffffffffffffffffffffff\n      and\n      0xb81f90f3\n        /* \"TimeAllyPET.sol\":23607:23618  token.mou() */\n      mload(0x40)\n      dup2\n      0xffffffff\n      and\n      0xe0\n      shl\n      dup2\n      mstore\n      0x04\n      add\n      0x20\n      mload(0x40)\n      dup1\n      dup4\n      sub\n      dup2\n      dup7\n      dup1\n      extcodesize\n      iszero\n        /* \"--CODEGEN--\":8:17   */\n      dup1\n        /* \"--CODEGEN--\":5:7   */\n      iszero\n      tag_318\n      jumpi\n        /* \"--CODEGEN--\":30:31   */\n      0x00\n        /* \"--CODEGEN--\":27:28   */\n      dup1\n        /* \"--CODEGEN--\":20:32   */\n      revert\n        /* \"--CODEGEN--\":5:7   */\n    tag_318:\n        /* \"TimeAllyPET.sol\":23607:23618  token.mou() */\n      pop\n      gas\n      staticcall\n      iszero\n        /* \"--CODEGEN--\":8:17   */\n      dup1\n        /* \"--CODEGEN--\":5:7   */\n      iszero\n      tag_320\n      jumpi\n        /* \"--CODEGEN--\":45:61   */\n      returndatasize\n        /* \"--CODEGEN--\":42:43   */\n      0x00\n        /* \"--CODEGEN--\":39:40   */\n      dup1\n        /* \"--CODEGEN--\":24:62   */\n      returndatacopy\n        /* \"--CODEGEN--\":77:93   */\n      returndatasize\n        /* \"--CODEGEN--\":74:75   */\n      0x00\n        /* \"--CODEGEN--\":67:94   */\n      revert\n        /* \"--CODEGEN--\":5:7   */\n    tag_320:\n        /* \"TimeAllyPET.sol\":23607:23618  token.mou() */\n      pop\n      pop\n      pop\n      pop\n      mload(0x40)\n      returndatasize\n        /* \"--CODEGEN--\":13:15   */\n      0x20\n        /* \"--CODEGEN--\":8:11   */\n      dup2\n        /* \"--CODEGEN--\":5:16   */\n      lt\n        /* \"--CODEGEN--\":2:4   */\n      iszero\n      tag_321\n      jumpi\n        /* \"--CODEGEN--\":29:30   */\n      0x00\n        /* \"--CODEGEN--\":26:27   */\n      dup1\n        /* \"--CODEGEN--\":19:31   */\n      revert\n        /* \"--CODEGEN--\":2:4   */\n    tag_321:\n        /* \"TimeAllyPET.sol\":23607:23618  token.mou() */\n      dup2\n      add\n      swap1\n      dup1\n      dup1\n      mload\n      swap1\n      0x20\n      add\n      swap1\n      swap3\n      swap2\n      swap1\n      pop\n      pop\n      pop\n        /* \"TimeAllyPET.sol\":23607:23639  token.mou() >= _allowedTimestamp */\n      lt\n      iszero\n        /* \"TimeAllyPET.sol\":23592:23677  require(... */\n      tag_322\n      jumpi\n      mload(0x40)\n      0x08c379a000000000000000000000000000000000000000000000000000000000\n      dup2\n      mstore\n      0x04\n      add\n      dup1\n      dup1\n      0x20\n      add\n      dup3\n      dup2\n      sub\n      dup3\n      mstore\n      0x15\n      dup2\n      mstore\n      0x20\n      add\n      dup1\n      0x63616e6e6f74207769746864726177206561726c790000000000000000000000\n      dup2\n      mstore\n      pop\n      0x20\n      add\n      swap2\n      pop\n      pop\n      mload(0x40)\n      dup1\n      swap2\n      sub\n      swap1\n      revert\n    tag_322:\n        /* \"TimeAllyPET.sol\":23733:23760  uint256 _powerBoosterAmount */\n      0x00\n        /* \"TimeAllyPET.sol\":23763:23814  calculatePowerBoosterAmount(_stakerAddress, _petId) */\n      tag_323\n        /* \"TimeAllyPET.sol\":23791:23805  _stakerAddress */\n      dup10\n        /* \"TimeAllyPET.sol\":23807:23813  _petId */\n      dup10\n        /* \"TimeAllyPET.sol\":23763:23790  calculatePowerBoosterAmount */\n      tag_63\n        /* \"TimeAllyPET.sol\":23763:23814  calculatePowerBoosterAmount(_stakerAddress, _petId) */\n      jump\t// in\n    tag_323:\n        /* \"TimeAllyPET.sol\":23733:23814  uint256 _powerBoosterAmount = calculatePowerBoosterAmount(_stakerAddress, _petId) */\n      swap1\n      pop\n        /* \"TimeAllyPET.sol\":23920:23924  true */\n      0x01\n        /* \"TimeAllyPET.sol\":23872:23876  _pet */\n      dup4\n        /* \"TimeAllyPET.sol\":23872:23900  _pet.isPowerBoosterWithdrawn */\n      0x07\n      add\n        /* \"TimeAllyPET.sol\":23872:23917  _pet.isPowerBoosterWithdrawn[_powerBoosterId] */\n      0x00\n        /* \"TimeAllyPET.sol\":23901:23916  _powerBoosterId */\n      dup10\n        /* \"TimeAllyPET.sol\":23872:23917  _pet.isPowerBoosterWithdrawn[_powerBoosterId] */\n      dup2\n      mstore\n      0x20\n      add\n      swap1\n      dup2\n      mstore\n      0x20\n      add\n      0x00\n      keccak256\n      0x00\n        /* \"TimeAllyPET.sol\":23872:23924  _pet.isPowerBoosterWithdrawn[_powerBoosterId] = true */\n      0x0100\n      exp\n      dup2\n      sload\n      dup2\n      0xff\n      mul\n      not\n      and\n      swap1\n      dup4\n      iszero\n      iszero\n      mul\n      or\n      swap1\n      sstore\n      pop\n        /* \"TimeAllyPET.sol\":23956:23957  0 */\n      0x00\n        /* \"TimeAllyPET.sol\":23934:23953  _powerBoosterAmount */\n      dup2\n        /* \"TimeAllyPET.sol\":23934:23957  _powerBoosterAmount > 0 */\n      gt\n        /* \"TimeAllyPET.sol\":23931:24106  if(_powerBoosterAmount > 0) {... */\n      iszero\n      tag_324\n      jumpi\n        /* \"TimeAllyPET.sol\":24052:24057  token */\n      0x02\n      0x00\n      swap1\n      sload\n      swap1\n      0x0100\n      exp\n      swap1\n      div\n      0xffffffffffffffffffffffffffffffffffffffff\n      and\n        /* \"TimeAllyPET.sol\":24052:24066  token.transfer */\n      0xffffffffffffffffffffffffffffffffffffffff\n      and\n      0xa9059cbb\n        /* \"TimeAllyPET.sol\":24067:24077  msg.sender */\n      caller\n        /* \"TimeAllyPET.sol\":24079:24098  _powerBoosterAmount */\n      dup4\n        /* \"TimeAllyPET.sol\":24052:24099  token.transfer(msg.sender, _powerBoosterAmount) */\n      mload(0x40)\n      dup4\n      0xffffffff\n      and\n      0xe0\n      shl\n      dup2\n      mstore\n      0x04\n      add\n      dup1\n      dup4\n      0xffffffffffffffffffffffffffffffffffffffff\n      and\n      0xffffffffffffffffffffffffffffffffffffffff\n      and\n      dup2\n      mstore\n      0x20\n      add\n      dup3\n      dup2\n      mstore\n      0x20\n      add\n      swap3\n      pop\n      pop\n      pop\n      0x20\n      mload(0x40)\n      dup1\n      dup4\n      sub\n      dup2\n      0x00\n      dup8\n      dup1\n      extcodesize\n      iszero\n        /* \"--CODEGEN--\":8:17   */\n      dup1\n        /* \"--CODEGEN--\":5:7   */\n      iszero\n      tag_325\n      jumpi\n        /* \"--CODEGEN--\":30:31   */\n      0x00\n        /* \"--CODEGEN--\":27:28   */\n      dup1\n        /* \"--CODEGEN--\":20:32   */\n      revert\n        /* \"--CODEGEN--\":5:7   */\n    tag_325:\n        /* \"TimeAllyPET.sol\":24052:24099  token.transfer(msg.sender, _powerBoosterAmount) */\n      pop\n      gas\n      call\n      iszero\n        /* \"--CODEGEN--\":8:17   */\n      dup1\n        /* \"--CODEGEN--\":5:7   */\n      iszero\n      tag_327\n      jumpi\n        /* \"--CODEGEN--\":45:61   */\n      returndatasize\n        /* \"--CODEGEN--\":42:43   */\n      0x00\n        /* \"--CODEGEN--\":39:40   */\n      dup1\n        /* \"--CODEGEN--\":24:62   */\n      returndatacopy\n        /* \"--CODEGEN--\":77:93   */\n      returndatasize\n        /* \"--CODEGEN--\":74:75   */\n      0x00\n        /* \"--CODEGEN--\":67:94   */\n      revert\n        /* \"--CODEGEN--\":5:7   */\n    tag_327:\n        /* \"TimeAllyPET.sol\":24052:24099  token.transfer(msg.sender, _powerBoosterAmount) */\n      pop\n      pop\n      pop\n      pop\n      mload(0x40)\n      returndatasize\n        /* \"--CODEGEN--\":13:15   */\n      0x20\n        /* \"--CODEGEN--\":8:11   */\n      dup2\n        /* \"--CODEGEN--\":5:16   */\n      lt\n        /* \"--CODEGEN--\":2:4   */\n      iszero\n      tag_328\n      jumpi\n        /* \"--CODEGEN--\":29:30   */\n      0x00\n        /* \"--CODEGEN--\":26:27   */\n      dup1\n        /* \"--CODEGEN--\":19:31   */\n      revert\n        /* \"--CODEGEN--\":2:4   */\n    tag_328:\n        /* \"TimeAllyPET.sol\":24052:24099  token.transfer(msg.sender, _powerBoosterAmount) */\n      dup2\n      add\n      swap1\n      dup1\n      dup1\n      mload\n      swap1\n      0x20\n      add\n      swap1\n      swap3\n      swap2\n      swap1\n      pop\n      pop\n      pop\n      pop\n        /* \"TimeAllyPET.sol\":23931:24106  if(_powerBoosterAmount > 0) {... */\n    tag_324:\n        /* \"TimeAllyPET.sol\":24202:24208  _petId */\n      dup8\n        /* \"TimeAllyPET.sol\":24180:24194  _stakerAddress */\n      dup10\n        /* \"TimeAllyPET.sol\":24151:24282  PowerBoosterWithdrawl(... */\n      0xffffffffffffffffffffffffffffffffffffffff\n      and\n      0xa1c568ef1602bc58c1e32ea2f1251b87874dce947f5d4f4df53677d06d5bf56d\n        /* \"TimeAllyPET.sol\":24216:24231  _powerBoosterId */\n      dup10\n        /* \"TimeAllyPET.sol\":24239:24258  _powerBoosterAmount */\n      dup5\n        /* \"TimeAllyPET.sol\":24266:24276  msg.sender */\n      caller\n        /* \"TimeAllyPET.sol\":24151:24282  PowerBoosterWithdrawl(... */\n      mload(0x40)\n      dup1\n      dup5\n      dup2\n      mstore\n      0x20\n      add\n      dup4\n      dup2\n      mstore\n      0x20\n      add\n      dup3\n      0xffffffffffffffffffffffffffffffffffffffff\n      and\n      0xffffffffffffffffffffffffffffffffffffffff\n      and\n      dup2\n      mstore\n      0x20\n      add\n      swap4\n      pop\n      pop\n      pop\n      pop\n      mload(0x40)\n      dup1\n      swap2\n      sub\n      swap1\n      log3\n        /* \"TimeAllyPET.sol\":7517:7518  _ */\n      pop\n      pop\n      pop\n        /* \"TimeAllyPET.sol\":22607:24287  function withdrawPowerBooster(... */\n      pop\n      pop\n      pop\n      pop\n      pop\n      pop\n      jump\t// out\n        /* \"TimeAllyPET.sol\":13408:14003  function appointeeVote(... */\n    tag_96:\n        /* \"TimeAllyPET.sol\":13496:13512  PET storage _pet */\n      0x00\n        /* \"TimeAllyPET.sol\":13515:13519  pets */\n      0x04\n        /* \"TimeAllyPET.sol\":13515:13535  pets[_stakerAddress] */\n      0x00\n        /* \"TimeAllyPET.sol\":13520:13534  _stakerAddress */\n      dup5\n        /* \"TimeAllyPET.sol\":13515:13535  pets[_stakerAddress] */\n      0xffffffffffffffffffffffffffffffffffffffff\n      and\n      0xffffffffffffffffffffffffffffffffffffffff\n      and\n      dup2\n      mstore\n      0x20\n      add\n      swap1\n      dup2\n      mstore\n      0x20\n      add\n      0x00\n      keccak256\n        /* \"TimeAllyPET.sol\":13536:13542  _petId */\n      dup3\n        /* \"TimeAllyPET.sol\":13515:13543  pets[_stakerAddress][_petId] */\n      dup2\n      sload\n      dup2\n      lt\n      tag_330\n      jumpi\n      invalid\n    tag_330:\n      swap1\n      0x00\n      mstore\n      keccak256(0x00, 0x20)\n      swap1\n      0x0a\n      mul\n      add\n        /* \"TimeAllyPET.sol\":13496:13543  PET storage _pet = pets[_stakerAddress][_petId] */\n      swap1\n      pop\n        /* \"TimeAllyPET.sol\":13622:13626  _pet */\n      dup1\n        /* \"TimeAllyPET.sol\":13622:13637  _pet.appointees */\n      0x09\n      add\n        /* \"TimeAllyPET.sol\":13622:13649  _pet.appointees[msg.sender] */\n      0x00\n        /* \"TimeAllyPET.sol\":13638:13648  msg.sender */\n      caller\n        /* \"TimeAllyPET.sol\":13622:13649  _pet.appointees[msg.sender] */\n      0xffffffffffffffffffffffffffffffffffffffff\n      and\n      0xffffffffffffffffffffffffffffffffffffffff\n      and\n      dup2\n      mstore\n      0x20\n      add\n      swap1\n      dup2\n      mstore\n      0x20\n      add\n      0x00\n      keccak256\n      0x00\n      swap1\n      sload\n      swap1\n      0x0100\n      exp\n      swap1\n      div\n      0xff\n      and\n        /* \"TimeAllyPET.sol\":13614:13698  require(_pet.appointees[msg.sender]... */\n      tag_332\n      jumpi\n      mload(0x40)\n      0x08c379a000000000000000000000000000000000000000000000000000000000\n      dup2\n      mstore\n      0x04\n      add\n      dup1\n      dup1\n      0x20\n      add\n      dup3\n      dup2\n      sub\n      dup3\n      mstore\n      0x20\n      dup2\n      mstore\n      0x20\n      add\n      dup1\n      0x73686f756c64206265206170706f696e74656520746f206361737420766f7465\n      dup2\n      mstore\n      pop\n      0x20\n      add\n      swap2\n      pop\n      pop\n      mload(0x40)\n      dup1\n      swap2\n      sub\n      swap1\n      revert\n    tag_332:\n        /* \"TimeAllyPET.sol\":13793:13798  false */\n      0x00\n        /* \"TimeAllyPET.sol\":13763:13767  _pet */\n      dup2\n        /* \"TimeAllyPET.sol\":13763:13778  _pet.appointees */\n      0x09\n      add\n        /* \"TimeAllyPET.sol\":13763:13790  _pet.appointees[msg.sender] */\n      0x00\n        /* \"TimeAllyPET.sol\":13779:13789  msg.sender */\n      caller\n        /* \"TimeAllyPET.sol\":13763:13790  _pet.appointees[msg.sender] */\n      0xffffffffffffffffffffffffffffffffffffffff\n      and\n      0xffffffffffffffffffffffffffffffffffffffff\n      and\n      dup2\n      mstore\n      0x20\n      add\n      swap1\n      dup2\n      mstore\n      0x20\n      add\n      0x00\n      keccak256\n      0x00\n        /* \"TimeAllyPET.sol\":13763:13798  _pet.appointees[msg.sender] = false */\n      0x0100\n      exp\n      dup2\n      sload\n      dup2\n      0xff\n      mul\n      not\n      and\n      swap1\n      dup4\n      iszero\n      iszero\n      mul\n      or\n      swap1\n      sstore\n      pop\n        /* \"TimeAllyPET.sol\":13864:13890  _pet.appointeeVotes.add(1) */\n      tag_333\n        /* \"TimeAllyPET.sol\":13888:13889  1 */\n      0x01\n        /* \"TimeAllyPET.sol\":13864:13868  _pet */\n      dup3\n        /* \"TimeAllyPET.sol\":13864:13883  _pet.appointeeVotes */\n      0x04\n      add\n      sload\n        /* \"TimeAllyPET.sol\":13864:13887  _pet.appointeeVotes.add */\n      tag_130\n      swap1\n        /* \"TimeAllyPET.sol\":13864:13890  _pet.appointeeVotes.add(1) */\n      swap2\n      swap1\n      0xffffffff\n      and\n      jump\t// in\n    tag_333:\n        /* \"TimeAllyPET.sol\":13842:13846  _pet */\n      dup2\n        /* \"TimeAllyPET.sol\":13842:13861  _pet.appointeeVotes */\n      0x04\n      add\n        /* \"TimeAllyPET.sol\":13842:13890  _pet.appointeeVotes = _pet.appointeeVotes.add(1) */\n      dup2\n      swap1\n      sstore\n      pop\n        /* \"TimeAllyPET.sol\":13987:13997  msg.sender */\n      caller\n        /* \"TimeAllyPET.sol\":13948:13998  AppointeeVoted(_stakerAddress, _petId, msg.sender) */\n      0xffffffffffffffffffffffffffffffffffffffff\n      and\n        /* \"TimeAllyPET.sol\":13979:13985  _petId */\n      dup3\n        /* \"TimeAllyPET.sol\":13963:13977  _stakerAddress */\n      dup5\n        /* \"TimeAllyPET.sol\":13948:13998  AppointeeVoted(_stakerAddress, _petId, msg.sender) */\n      0xffffffffffffffffffffffffffffffffffffffff\n      and\n      0x57e90b4a498a7310fab91955c915f3f15a0d1a94b296f824da9443d524ea2e1b\n      mload(0x40)\n      mload(0x40)\n      dup1\n      swap2\n      sub\n      swap1\n      log4\n        /* \"TimeAllyPET.sol\":13408:14003  function appointeeVote(... */\n      pop\n      pop\n      pop\n      jump\t// out\n        /* \"TimeAllyPET.sol\":12311:13141  function toogleAppointee(... */\n    tag_99:\n        /* \"TimeAllyPET.sol\":12434:12450  PET storage _pet */\n      0x00\n        /* \"TimeAllyPET.sol\":12453:12457  pets */\n      0x04\n        /* \"TimeAllyPET.sol\":12453:12469  pets[msg.sender] */\n      0x00\n        /* \"TimeAllyPET.sol\":12458:12468  msg.sender */\n      caller\n        /* \"TimeAllyPET.sol\":12453:12469  pets[msg.sender] */\n      0xffffffffffffffffffffffffffffffffffffffff\n      and\n      0xffffffffffffffffffffffffffffffffffffffff\n      and\n      dup2\n      mstore\n      0x20\n      add\n      swap1\n      dup2\n      mstore\n      0x20\n      add\n      0x00\n      keccak256\n        /* \"TimeAllyPET.sol\":12470:12476  _petId */\n      dup5\n        /* \"TimeAllyPET.sol\":12453:12477  pets[msg.sender][_petId] */\n      dup2\n      sload\n      dup2\n      lt\n      tag_335\n      jumpi\n      invalid\n    tag_335:\n      swap1\n      0x00\n      mstore\n      keccak256(0x00, 0x20)\n      swap1\n      0x0a\n      mul\n      add\n        /* \"TimeAllyPET.sol\":12434:12477  PET storage _pet = pets[msg.sender][_petId] */\n      swap1\n      pop\n        /* \"TimeAllyPET.sol\":12582:12586  _pet */\n      dup1\n        /* \"TimeAllyPET.sol\":12582:12597  _pet.appointees */\n      0x09\n      add\n        /* \"TimeAllyPET.sol\":12582:12616  _pet.appointees[_appointeeAddress] */\n      0x00\n        /* \"TimeAllyPET.sol\":12598:12615  _appointeeAddress */\n      dup5\n        /* \"TimeAllyPET.sol\":12582:12616  _pet.appointees[_appointeeAddress] */\n      0xffffffffffffffffffffffffffffffffffffffff\n      and\n      0xffffffffffffffffffffffffffffffffffffffff\n      and\n      dup2\n      mstore\n      0x20\n      add\n      swap1\n      dup2\n      mstore\n      0x20\n      add\n      0x00\n      keccak256\n      0x00\n      swap1\n      sload\n      swap1\n      0x0100\n      exp\n      swap1\n      div\n      0xff\n      and\n        /* \"TimeAllyPET.sol\":12581:12616  !_pet.appointees[_appointeeAddress] */\n      iszero\n        /* \"TimeAllyPET.sol\":12581:12639  !_pet.appointees[_appointeeAddress] && _newAppointeeStatus */\n      dup1\n      iszero\n      tag_337\n      jumpi\n      pop\n        /* \"TimeAllyPET.sol\":12620:12639  _newAppointeeStatus */\n      dup2\n        /* \"TimeAllyPET.sol\":12581:12639  !_pet.appointees[_appointeeAddress] && _newAppointeeStatus */\n    tag_337:\n        /* \"TimeAllyPET.sol\":12578:13049  if(!_pet.appointees[_appointeeAddress] && _newAppointeeStatus) {... */\n      iszero\n      tag_338\n      jumpi\n        /* \"TimeAllyPET.sol\":12675:12705  _pet.numberOfAppointees.add(1) */\n      tag_339\n        /* \"TimeAllyPET.sol\":12703:12704  1 */\n      0x01\n        /* \"TimeAllyPET.sol\":12675:12679  _pet */\n      dup3\n        /* \"TimeAllyPET.sol\":12675:12698  _pet.numberOfAppointees */\n      0x05\n      add\n      sload\n        /* \"TimeAllyPET.sol\":12675:12702  _pet.numberOfAppointees.add */\n      tag_130\n      swap1\n        /* \"TimeAllyPET.sol\":12675:12705  _pet.numberOfAppointees.add(1) */\n      swap2\n      swap1\n      0xffffffff\n      and\n      jump\t// in\n    tag_339:\n        /* \"TimeAllyPET.sol\":12649:12653  _pet */\n      dup2\n        /* \"TimeAllyPET.sol\":12649:12672  _pet.numberOfAppointees */\n      0x05\n      add\n        /* \"TimeAllyPET.sol\":12649:12705  _pet.numberOfAppointees = _pet.numberOfAppointees.add(1) */\n      dup2\n      swap1\n      sstore\n      pop\n        /* \"TimeAllyPET.sol\":12750:12754  true */\n      0x01\n        /* \"TimeAllyPET.sol\":12713:12717  _pet */\n      dup2\n        /* \"TimeAllyPET.sol\":12713:12728  _pet.appointees */\n      0x09\n      add\n        /* \"TimeAllyPET.sol\":12713:12747  _pet.appointees[_appointeeAddress] */\n      0x00\n        /* \"TimeAllyPET.sol\":12729:12746  _appointeeAddress */\n      dup6\n        /* \"TimeAllyPET.sol\":12713:12747  _pet.appointees[_appointeeAddress] */\n      0xffffffffffffffffffffffffffffffffffffffff\n      and\n      0xffffffffffffffffffffffffffffffffffffffff\n      and\n      dup2\n      mstore\n      0x20\n      add\n      swap1\n      dup2\n      mstore\n      0x20\n      add\n      0x00\n      keccak256\n      0x00\n        /* \"TimeAllyPET.sol\":12713:12754  _pet.appointees[_appointeeAddress] = true */\n      0x0100\n      exp\n      dup2\n      sload\n      dup2\n      0xff\n      mul\n      not\n      and\n      swap1\n      dup4\n      iszero\n      iszero\n      mul\n      or\n      swap1\n      sstore\n      pop\n        /* \"TimeAllyPET.sol\":12578:13049  if(!_pet.appointees[_appointeeAddress] && _newAppointeeStatus) {... */\n      jump(tag_340)\n    tag_338:\n        /* \"TimeAllyPET.sol\":12868:12872  _pet */\n      dup1\n        /* \"TimeAllyPET.sol\":12868:12883  _pet.appointees */\n      0x09\n      add\n        /* \"TimeAllyPET.sol\":12868:12902  _pet.appointees[_appointeeAddress] */\n      0x00\n        /* \"TimeAllyPET.sol\":12884:12901  _appointeeAddress */\n      dup5\n        /* \"TimeAllyPET.sol\":12868:12902  _pet.appointees[_appointeeAddress] */\n      0xffffffffffffffffffffffffffffffffffffffff\n      and\n      0xffffffffffffffffffffffffffffffffffffffff\n      and\n      dup2\n      mstore\n      0x20\n      add\n      swap1\n      dup2\n      mstore\n      0x20\n      add\n      0x00\n      keccak256\n      0x00\n      swap1\n      sload\n      swap1\n      0x0100\n      exp\n      swap1\n      div\n      0xff\n      and\n        /* \"TimeAllyPET.sol\":12868:12926  _pet.appointees[_appointeeAddress] && !_newAppointeeStatus */\n      dup1\n      iszero\n      tag_341\n      jumpi\n      pop\n        /* \"TimeAllyPET.sol\":12907:12926  _newAppointeeStatus */\n      dup2\n        /* \"TimeAllyPET.sol\":12906:12926  !_newAppointeeStatus */\n      iszero\n        /* \"TimeAllyPET.sol\":12868:12926  _pet.appointees[_appointeeAddress] && !_newAppointeeStatus */\n    tag_341:\n        /* \"TimeAllyPET.sol\":12865:13049  if(_pet.appointees[_appointeeAddress] && !_newAppointeeStatus) {... */\n      iszero\n      tag_342\n      jumpi\n        /* \"TimeAllyPET.sol\":12973:12978  false */\n      0x00\n        /* \"TimeAllyPET.sol\":12936:12940  _pet */\n      dup2\n        /* \"TimeAllyPET.sol\":12936:12951  _pet.appointees */\n      0x09\n      add\n        /* \"TimeAllyPET.sol\":12936:12970  _pet.appointees[_appointeeAddress] */\n      0x00\n        /* \"TimeAllyPET.sol\":12952:12969  _appointeeAddress */\n      dup6\n        /* \"TimeAllyPET.sol\":12936:12970  _pet.appointees[_appointeeAddress] */\n      0xffffffffffffffffffffffffffffffffffffffff\n      and\n      0xffffffffffffffffffffffffffffffffffffffff\n      and\n      dup2\n      mstore\n      0x20\n      add\n      swap1\n      dup2\n      mstore\n      0x20\n      add\n      0x00\n      keccak256\n      0x00\n        /* \"TimeAllyPET.sol\":12936:12978  _pet.appointees[_appointeeAddress] = false */\n      0x0100\n      exp\n      dup2\n      sload\n      dup2\n      0xff\n      mul\n      not\n      and\n      swap1\n      dup4\n      iszero\n      iszero\n      mul\n      or\n      swap1\n      sstore\n      pop\n        /* \"TimeAllyPET.sol\":13012:13042  _pet.numberOfAppointees.sub(1) */\n      tag_343\n        /* \"TimeAllyPET.sol\":13040:13041  1 */\n      0x01\n        /* \"TimeAllyPET.sol\":13012:13016  _pet */\n      dup3\n        /* \"TimeAllyPET.sol\":13012:13035  _pet.numberOfAppointees */\n      0x05\n      add\n      sload\n        /* \"TimeAllyPET.sol\":13012:13039  _pet.numberOfAppointees.sub */\n      tag_123\n      swap1\n        /* \"TimeAllyPET.sol\":13012:13042  _pet.numberOfAppointees.sub(1) */\n      swap2\n      swap1\n      0xffffffff\n      and\n      jump\t// in\n    tag_343:\n        /* \"TimeAllyPET.sol\":12986:12990  _pet */\n      dup2\n        /* \"TimeAllyPET.sol\":12986:13009  _pet.numberOfAppointees */\n      0x05\n      add\n        /* \"TimeAllyPET.sol\":12986:13042  _pet.numberOfAppointees = _pet.numberOfAppointees.sub(1) */\n      dup2\n      swap1\n      sstore\n      pop\n        /* \"TimeAllyPET.sol\":12865:13049  if(_pet.appointees[_appointeeAddress] && !_newAppointeeStatus) {... */\n    tag_342:\n        /* \"TimeAllyPET.sol\":12578:13049  if(!_pet.appointees[_appointeeAddress] && _newAppointeeStatus) {... */\n    tag_340:\n        /* \"TimeAllyPET.sol\":13097:13114  _appointeeAddress */\n      dup3\n        /* \"TimeAllyPET.sol\":13060:13136  AppointeeUpdated(msg.sender, _petId, _appointeeAddress, _newAppointeeStatus) */\n      0xffffffffffffffffffffffffffffffffffffffff\n      and\n        /* \"TimeAllyPET.sol\":13089:13095  _petId */\n      dup5\n        /* \"TimeAllyPET.sol\":13077:13087  msg.sender */\n      caller\n        /* \"TimeAllyPET.sol\":13060:13136  AppointeeUpdated(msg.sender, _petId, _appointeeAddress, _newAppointeeStatus) */\n      0xffffffffffffffffffffffffffffffffffffffff\n      and\n      0xf7a6207b27953eff117f9b7c03e363d41370a45e2b626d2aa32c6a0ac6365782\n        /* \"TimeAllyPET.sol\":13116:13135  _newAppointeeStatus */\n      dup6\n        /* \"TimeAllyPET.sol\":13060:13136  AppointeeUpdated(msg.sender, _petId, _appointeeAddress, _newAppointeeStatus) */\n      mload(0x40)\n      dup1\n      dup3\n      iszero\n      iszero\n      iszero\n      iszero\n      dup2\n      mstore\n      0x20\n      add\n      swap2\n      pop\n      pop\n      mload(0x40)\n      dup1\n      swap2\n      sub\n      swap1\n      log4\n        /* \"TimeAllyPET.sol\":12311:13141  function toogleAppointee(... */\n      pop\n      pop\n      pop\n      pop\n      jump\t// out\n        /* \"TimeAllyPET.sol\":4238:4261  address public deployer */\n    tag_101:\n      0x00\n      dup1\n      swap1\n      sload\n      swap1\n      0x0100\n      exp\n      swap1\n      div\n      0xffffffffffffffffffffffffffffffffffffffff\n      and\n      dup2\n      jump\t// out\n        /* \"TimeAllyPET.sol\":26606:26822  function getMonthlyDepositedAmount(... */\n    tag_104:\n        /* \"TimeAllyPET.sol\":26736:26743  uint256 */\n      0x00\n        /* \"TimeAllyPET.sol\":26758:26762  pets */\n      0x04\n        /* \"TimeAllyPET.sol\":26758:26778  pets[_stakerAddress] */\n      0x00\n        /* \"TimeAllyPET.sol\":26763:26777  _stakerAddress */\n      dup6\n        /* \"TimeAllyPET.sol\":26758:26778  pets[_stakerAddress] */\n      0xffffffffffffffffffffffffffffffffffffffff\n      and\n      0xffffffffffffffffffffffffffffffffffffffff\n      and\n      dup2\n      mstore\n      0x20\n      add\n      swap1\n      dup2\n      mstore\n      0x20\n      add\n      0x00\n      keccak256\n        /* \"TimeAllyPET.sol\":26779:26785  _petId */\n      dup4\n        /* \"TimeAllyPET.sol\":26758:26786  pets[_stakerAddress][_petId] */\n      dup2\n      sload\n      dup2\n      lt\n      tag_345\n      jumpi\n      invalid\n    tag_345:\n      swap1\n      0x00\n      mstore\n      keccak256(0x00, 0x20)\n      swap1\n      0x0a\n      mul\n      add\n        /* \"TimeAllyPET.sol\":26758:26807  pets[_stakerAddress][_petId].monthlyDepositAmount */\n      0x06\n      add\n        /* \"TimeAllyPET.sol\":26758:26817  pets[_stakerAddress][_petId].monthlyDepositAmount[_monthId] */\n      0x00\n        /* \"TimeAllyPET.sol\":26808:26816  _monthId */\n      dup4\n        /* \"TimeAllyPET.sol\":26758:26817  pets[_stakerAddress][_petId].monthlyDepositAmount[_monthId] */\n      dup2\n      mstore\n      0x20\n      add\n      swap1\n      dup2\n      mstore\n      0x20\n      add\n      0x00\n      keccak256\n      sload\n        /* \"TimeAllyPET.sol\":26751:26817  return pets[_stakerAddress][_petId].monthlyDepositAmount[_monthId] */\n      swap1\n      pop\n        /* \"TimeAllyPET.sol\":26606:26822  function getMonthlyDepositedAmount(... */\n      swap4\n      swap3\n      pop\n      pop\n      pop\n      jump\t// out\n        /* \"TimeAllyPET.sol\":4872:4916  mapping(address => uint256) public prepaidES */\n    tag_107:\n      mstore(0x20, 0x05)\n      dup1\n      0x00\n      mstore\n      keccak256(0x00, 0x40)\n      0x00\n      swap2\n      pop\n      swap1\n      pop\n      sload\n      dup2\n      jump\t// out\n        /* \"TimeAllyPET.sol\":4462:4480  ERC20 public token */\n    tag_109:\n      0x02\n      0x00\n      swap1\n      sload\n      swap1\n      0x0100\n      exp\n      swap1\n      div\n      0xffffffffffffffffffffffffffffffffffffffff\n      and\n      dup2\n      jump\t// out\n        /* \"SafeMath.sol\":1274:1408  function sub(uint256 a, uint256 b) internal pure returns (uint256) {... */\n    tag_123:\n        /* \"SafeMath.sol\":1332:1339  uint256 */\n      0x00\n        /* \"SafeMath.sol\":1358:1401  sub(a, b, \"SafeMath: subtraction overflow\") */\n      tag_348\n        /* \"SafeMath.sol\":1362:1363  a */\n      dup4\n        /* \"SafeMath.sol\":1365:1366  b */\n      dup4\n        /* \"SafeMath.sol\":1358:1401  sub(a, b, \"SafeMath: subtraction overflow\") */\n      mload(0x40)\n      dup1\n      0x40\n      add\n      0x40\n      mstore\n      dup1\n      0x1e\n      dup2\n      mstore\n      0x20\n      add\n      0x536166654d6174683a207375627472616374696f6e206f766572666c6f770000\n      dup2\n      mstore\n      pop\n        /* \"SafeMath.sol\":1358:1361  sub */\n      tag_349\n        /* \"SafeMath.sol\":1358:1401  sub(a, b, \"SafeMath: subtraction overflow\") */\n      jump\t// in\n    tag_348:\n        /* \"SafeMath.sol\":1351:1401  return sub(a, b, \"SafeMath: subtraction overflow\") */\n      swap1\n      pop\n        /* \"SafeMath.sol\":1274:1408  function sub(uint256 a, uint256 b) internal pure returns (uint256) {... */\n      swap3\n      swap2\n      pop\n      pop\n      jump\t// out\n        /* \"SafeMath.sol\":834:1010  function add(uint256 a, uint256 b) internal pure returns (uint256) {... */\n    tag_130:\n        /* \"SafeMath.sol\":892:899  uint256 */\n      0x00\n        /* \"SafeMath.sol\":911:920  uint256 c */\n      dup1\n        /* \"SafeMath.sol\":927:928  b */\n      dup3\n        /* \"SafeMath.sol\":923:924  a */\n      dup5\n        /* \"SafeMath.sol\":923:928  a + b */\n      add\n        /* \"SafeMath.sol\":911:928  uint256 c = a + b */\n      swap1\n      pop\n        /* \"SafeMath.sol\":951:952  a */\n      dup4\n        /* \"SafeMath.sol\":946:947  c */\n      dup2\n        /* \"SafeMath.sol\":946:952  c >= a */\n      lt\n      iszero\n        /* \"SafeMath.sol\":938:984  require(c >= a, \"SafeMath: addition overflow\") */\n      tag_351\n      jumpi\n      mload(0x40)\n      0x08c379a000000000000000000000000000000000000000000000000000000000\n      dup2\n      mstore\n      0x04\n      add\n      dup1\n      dup1\n      0x20\n      add\n      dup3\n      dup2\n      sub\n      dup3\n      mstore\n      0x1b\n      dup2\n      mstore\n      0x20\n      add\n      dup1\n      0x536166654d6174683a206164646974696f6e206f766572666c6f770000000000\n      dup2\n      mstore\n      pop\n      0x20\n      add\n      swap2\n      pop\n      pop\n      mload(0x40)\n      dup1\n      swap2\n      sub\n      swap1\n      revert\n    tag_351:\n        /* \"SafeMath.sol\":1002:1003  c */\n      dup1\n        /* \"SafeMath.sol\":995:1003  return c */\n      swap2\n      pop\n      pop\n        /* \"SafeMath.sol\":834:1010  function add(uint256 a, uint256 b) internal pure returns (uint256) {... */\n      swap3\n      swap2\n      pop\n      pop\n      jump\t// out\n        /* \"SafeMath.sol\":3185:3315  function div(uint256 a, uint256 b) internal pure returns (uint256) {... */\n    tag_135:\n        /* \"SafeMath.sol\":3243:3250  uint256 */\n      0x00\n        /* \"SafeMath.sol\":3269:3308  div(a, b, \"SafeMath: division by zero\") */\n      tag_353\n        /* \"SafeMath.sol\":3273:3274  a */\n      dup4\n        /* \"SafeMath.sol\":3276:3277  b */\n      dup4\n        /* \"SafeMath.sol\":3269:3308  div(a, b, \"SafeMath: division by zero\") */\n      mload(0x40)\n      dup1\n      0x40\n      add\n      0x40\n      mstore\n      dup1\n      0x1a\n      dup2\n      mstore\n      0x20\n      add\n      0x536166654d6174683a206469766973696f6e206279207a65726f000000000000\n      dup2\n      mstore\n      pop\n        /* \"SafeMath.sol\":3269:3272  div */\n      tag_354\n        /* \"SafeMath.sol\":3269:3308  div(a, b, \"SafeMath: division by zero\") */\n      jump\t// in\n    tag_353:\n        /* \"SafeMath.sol\":3262:3308  return div(a, b, \"SafeMath: division by zero\") */\n      swap1\n      pop\n        /* \"SafeMath.sol\":3185:3315  function div(uint256 a, uint256 b) internal pure returns (uint256) {... */\n      swap3\n      swap2\n      pop\n      pop\n      jump\t// out\n        /* \"TimeAllyPET.sol\":30921:32549  function _getBenefitAllocationByDepositAmount(... */\n    tag_139:\n        /* \"TimeAllyPET.sol\":31070:31077  uint256 */\n      0x00\n        /* \"TimeAllyPET.sol\":31085:31100  uint256 _planId */\n      dup1\n        /* \"TimeAllyPET.sol\":31103:31107  _pet */\n      dup5\n        /* \"TimeAllyPET.sol\":31103:31114  _pet.planId */\n      0x00\n      add\n      sload\n        /* \"TimeAllyPET.sol\":31085:31114  uint256 _planId = _pet.planId */\n      swap1\n      pop\n        /* \"TimeAllyPET.sol\":31120:31135  uint256 _amount */\n      0x00\n        /* \"TimeAllyPET.sol\":31156:31157  0 */\n      dup1\n        /* \"TimeAllyPET.sol\":31138:31152  _depositAmount */\n      dup6\n        /* \"TimeAllyPET.sol\":31138:31157  _depositAmount != 0 */\n      eq\n      iszero\n        /* \"TimeAllyPET.sol\":31138:31223  _depositAmount != 0... */\n      tag_356\n      jumpi\n        /* \"TimeAllyPET.sol\":31183:31187  _pet */\n      dup6\n        /* \"TimeAllyPET.sol\":31183:31208  _pet.monthlyDepositAmount */\n      0x06\n      add\n        /* \"TimeAllyPET.sol\":31183:31223  _pet.monthlyDepositAmount[_depositMonth] */\n      0x00\n        /* \"TimeAllyPET.sol\":31209:31222  _depositMonth */\n      dup6\n        /* \"TimeAllyPET.sol\":31183:31223  _pet.monthlyDepositAmount[_depositMonth] */\n      dup2\n      mstore\n      0x20\n      add\n      swap1\n      dup2\n      mstore\n      0x20\n      add\n      0x00\n      keccak256\n      sload\n        /* \"TimeAllyPET.sol\":31138:31223  _depositAmount != 0... */\n      jump(tag_357)\n    tag_356:\n        /* \"TimeAllyPET.sol\":31166:31180  _depositAmount */\n      dup5\n        /* \"TimeAllyPET.sol\":31138:31223  _depositAmount != 0... */\n    tag_357:\n        /* \"TimeAllyPET.sol\":31120:31223  uint256 _amount = _depositAmount != 0... */\n      swap1\n      pop\n        /* \"TimeAllyPET.sol\":31229:31261  uint256 _monthlyCommitmentAmount */\n      0x00\n        /* \"TimeAllyPET.sol\":31264:31268  _pet */\n      dup7\n        /* \"TimeAllyPET.sol\":31264:31292  _pet.monthlyCommitmentAmount */\n      0x01\n      add\n      sload\n        /* \"TimeAllyPET.sol\":31229:31292  uint256 _monthlyCommitmentAmount = _pet.monthlyCommitmentAmount */\n      swap1\n      pop\n        /* \"TimeAllyPET.sol\":31298:31322  PETPlan storage _petPlan */\n      0x00\n        /* \"TimeAllyPET.sol\":31325:31333  petPlans */\n      0x03\n        /* \"TimeAllyPET.sol\":31334:31341  _planId */\n      dup5\n        /* \"TimeAllyPET.sol\":31325:31342  petPlans[_planId] */\n      dup2\n      sload\n      dup2\n      lt\n      tag_358\n      jumpi\n      invalid\n    tag_358:\n      swap1\n      0x00\n      mstore\n      keccak256(0x00, 0x20)\n      swap1\n      0x03\n      mul\n      add\n        /* \"TimeAllyPET.sol\":31298:31342  PETPlan storage _petPlan = petPlans[_planId] */\n      swap1\n      pop\n        /* \"TimeAllyPET.sol\":31349:31367  uint256 _petAmount */\n      0x00\n        /* \"TimeAllyPET.sol\":31471:31495  _monthlyCommitmentAmount */\n      dup3\n        /* \"TimeAllyPET.sol\":31461:31468  _amount */\n      dup5\n        /* \"TimeAllyPET.sol\":31461:31495  _amount > _monthlyCommitmentAmount */\n      gt\n        /* \"TimeAllyPET.sol\":31458:31875  if(_amount > _monthlyCommitmentAmount) {... */\n      iszero\n      tag_360\n      jumpi\n        /* \"TimeAllyPET.sol\":31505:31525  uint256 _topupAmount */\n      0x00\n        /* \"TimeAllyPET.sol\":31528:31565  _amount.sub(_monthlyCommitmentAmount) */\n      tag_361\n        /* \"TimeAllyPET.sol\":31540:31564  _monthlyCommitmentAmount */\n      dup5\n        /* \"TimeAllyPET.sol\":31528:31535  _amount */\n      dup7\n        /* \"TimeAllyPET.sol\":31528:31539  _amount.sub */\n      tag_123\n      swap1\n        /* \"TimeAllyPET.sol\":31528:31565  _amount.sub(_monthlyCommitmentAmount) */\n      swap2\n      swap1\n      0xffffffff\n      and\n      jump\t// in\n    tag_361:\n        /* \"TimeAllyPET.sol\":31505:31565  uint256 _topupAmount = _amount.sub(_monthlyCommitmentAmount) */\n      swap1\n      pop\n        /* \"TimeAllyPET.sol\":31586:31635  _monthlyCommitmentAmount.add(_topupAmount.div(2)) */\n      tag_362\n        /* \"TimeAllyPET.sol\":31615:31634  _topupAmount.div(2) */\n      tag_363\n        /* \"TimeAllyPET.sol\":31632:31633  2 */\n      0x02\n        /* \"TimeAllyPET.sol\":31615:31627  _topupAmount */\n      dup4\n        /* \"TimeAllyPET.sol\":31615:31631  _topupAmount.div */\n      tag_135\n      swap1\n        /* \"TimeAllyPET.sol\":31615:31634  _topupAmount.div(2) */\n      swap2\n      swap1\n      0xffffffff\n      and\n      jump\t// in\n    tag_363:\n        /* \"TimeAllyPET.sol\":31586:31610  _monthlyCommitmentAmount */\n      dup6\n        /* \"TimeAllyPET.sol\":31586:31614  _monthlyCommitmentAmount.add */\n      tag_130\n      swap1\n        /* \"TimeAllyPET.sol\":31586:31635  _monthlyCommitmentAmount.add(_topupAmount.div(2)) */\n      swap2\n      swap1\n      0xffffffff\n      and\n      jump\t// in\n    tag_362:\n        /* \"TimeAllyPET.sol\":31573:31635  _petAmount = _monthlyCommitmentAmount.add(_topupAmount.div(2)) */\n      swap2\n      pop\n        /* \"TimeAllyPET.sol\":31458:31875  if(_amount > _monthlyCommitmentAmount) {... */\n      pop\n      jump(tag_364)\n    tag_360:\n        /* \"TimeAllyPET.sol\":31807:31838  _monthlyCommitmentAmount.div(2) */\n      tag_365\n        /* \"TimeAllyPET.sol\":31836:31837  2 */\n      0x02\n        /* \"TimeAllyPET.sol\":31807:31831  _monthlyCommitmentAmount */\n      dup5\n        /* \"TimeAllyPET.sol\":31807:31835  _monthlyCommitmentAmount.div */\n      tag_135\n      swap1\n        /* \"TimeAllyPET.sol\":31807:31838  _monthlyCommitmentAmount.div(2) */\n      swap2\n      swap1\n      0xffffffff\n      and\n      jump\t// in\n    tag_365:\n        /* \"TimeAllyPET.sol\":31796:31803  _amount */\n      dup5\n        /* \"TimeAllyPET.sol\":31796:31838  _amount >= _monthlyCommitmentAmount.div(2) */\n      lt\n        /* \"TimeAllyPET.sol\":31793:31875  if(_amount >= _monthlyCommitmentAmount.div(2)) {... */\n      tag_366\n      jumpi\n        /* \"TimeAllyPET.sol\":31861:31868  _amount */\n      dup4\n        /* \"TimeAllyPET.sol\":31848:31868  _petAmount = _amount */\n      swap1\n      pop\n        /* \"TimeAllyPET.sol\":31793:31875  if(_amount >= _monthlyCommitmentAmount.div(2)) {... */\n    tag_366:\n        /* \"TimeAllyPET.sol\":31458:31875  if(_amount > _monthlyCommitmentAmount) {... */\n    tag_364:\n        /* \"TimeAllyPET.sol\":31947:31981  uint256 _depositAmountIncludingPET */\n      0x00\n        /* \"TimeAllyPET.sol\":31984:32067  _getTotalDepositedIncludingPET(... */\n      tag_367\n        /* \"TimeAllyPET.sol\":32022:32029  _amount */\n      dup6\n        /* \"TimeAllyPET.sol\":32037:32061  _monthlyCommitmentAmount */\n      dup6\n        /* \"TimeAllyPET.sol\":31984:32014  _getTotalDepositedIncludingPET */\n      tag_256\n        /* \"TimeAllyPET.sol\":31984:32067  _getTotalDepositedIncludingPET(... */\n      jump\t// in\n    tag_367:\n        /* \"TimeAllyPET.sol\":31947:32067  uint256 _depositAmountIncludingPET = _getTotalDepositedIncludingPET(... */\n      swap1\n      pop\n        /* \"TimeAllyPET.sol\":32160:32186  uint256 _benefitAllocation */\n      0x00\n        /* \"TimeAllyPET.sol\":32189:32199  _petAmount */\n      dup3\n        /* \"TimeAllyPET.sol\":32160:32199  uint256 _benefitAllocation = _petAmount */\n      swap1\n      pop\n        /* \"TimeAllyPET.sol\":32292:32323  _monthlyCommitmentAmount.div(2) */\n      tag_368\n        /* \"TimeAllyPET.sol\":32321:32322  2 */\n      0x02\n        /* \"TimeAllyPET.sol\":32292:32316  _monthlyCommitmentAmount */\n      dup7\n        /* \"TimeAllyPET.sol\":32292:32320  _monthlyCommitmentAmount.div */\n      tag_135\n      swap1\n        /* \"TimeAllyPET.sol\":32292:32323  _monthlyCommitmentAmount.div(2) */\n      swap2\n      swap1\n      0xffffffff\n      and\n      jump\t// in\n    tag_368:\n        /* \"TimeAllyPET.sol\":32281:32288  _amount */\n      dup7\n        /* \"TimeAllyPET.sol\":32281:32323  _amount >= _monthlyCommitmentAmount.div(2) */\n      lt\n      iszero\n        /* \"TimeAllyPET.sol\":32281:32346  _amount >= _monthlyCommitmentAmount.div(2) || _depositMonth == 12 */\n      dup1\n      tag_369\n      jumpi\n      pop\n        /* \"TimeAllyPET.sol\":32344:32346  12 */\n      0x0c\n        /* \"TimeAllyPET.sol\":32327:32340  _depositMonth */\n      dup10\n        /* \"TimeAllyPET.sol\":32327:32346  _depositMonth == 12 */\n      eq\n        /* \"TimeAllyPET.sol\":32281:32346  _amount >= _monthlyCommitmentAmount.div(2) || _depositMonth == 12 */\n    tag_369:\n        /* \"TimeAllyPET.sol\":32278:32513  if(_amount >= _monthlyCommitmentAmount.div(2) || _depositMonth == 12) {... */\n      iszero\n      tag_370\n      jumpi\n        /* \"TimeAllyPET.sol\":32377:32506  _benefitAllocation.add(... */\n      tag_371\n        /* \"TimeAllyPET.sol\":32409:32498  _depositAmountIncludingPET.mul(_petPlan.monthlyBenefitFactorPerThousand).mul(5).div(1000) */\n      tag_372\n        /* \"TimeAllyPET.sol\":32493:32497  1000 */\n      0x03e8\n        /* \"TimeAllyPET.sol\":32409:32488  _depositAmountIncludingPET.mul(_petPlan.monthlyBenefitFactorPerThousand).mul(5) */\n      tag_373\n        /* \"TimeAllyPET.sol\":32486:32487  5 */\n      0x05\n        /* \"TimeAllyPET.sol\":32409:32481  _depositAmountIncludingPET.mul(_petPlan.monthlyBenefitFactorPerThousand) */\n      tag_374\n        /* \"TimeAllyPET.sol\":32440:32448  _petPlan */\n      dup10\n        /* \"TimeAllyPET.sol\":32440:32480  _petPlan.monthlyBenefitFactorPerThousand */\n      0x02\n      add\n      sload\n        /* \"TimeAllyPET.sol\":32409:32435  _depositAmountIncludingPET */\n      dup9\n        /* \"TimeAllyPET.sol\":32409:32439  _depositAmountIncludingPET.mul */\n      tag_153\n      swap1\n        /* \"TimeAllyPET.sol\":32409:32481  _depositAmountIncludingPET.mul(_petPlan.monthlyBenefitFactorPerThousand) */\n      swap2\n      swap1\n      0xffffffff\n      and\n      jump\t// in\n    tag_374:\n        /* \"TimeAllyPET.sol\":32409:32485  _depositAmountIncludingPET.mul(_petPlan.monthlyBenefitFactorPerThousand).mul */\n      tag_153\n      swap1\n        /* \"TimeAllyPET.sol\":32409:32488  _depositAmountIncludingPET.mul(_petPlan.monthlyBenefitFactorPerThousand).mul(5) */\n      swap2\n      swap1\n      0xffffffff\n      and\n      jump\t// in\n    tag_373:\n        /* \"TimeAllyPET.sol\":32409:32492  _depositAmountIncludingPET.mul(_petPlan.monthlyBenefitFactorPerThousand).mul(5).div */\n      tag_135\n      swap1\n        /* \"TimeAllyPET.sol\":32409:32498  _depositAmountIncludingPET.mul(_petPlan.monthlyBenefitFactorPerThousand).mul(5).div(1000) */\n      swap2\n      swap1\n      0xffffffff\n      and\n      jump\t// in\n    tag_372:\n        /* \"TimeAllyPET.sol\":32377:32395  _benefitAllocation */\n      dup3\n        /* \"TimeAllyPET.sol\":32377:32399  _benefitAllocation.add */\n      tag_130\n      swap1\n        /* \"TimeAllyPET.sol\":32377:32506  _benefitAllocation.add(... */\n      swap2\n      swap1\n      0xffffffff\n      and\n      jump\t// in\n    tag_371:\n        /* \"TimeAllyPET.sol\":32356:32506  _benefitAllocation = _benefitAllocation.add(... */\n      swap1\n      pop\n        /* \"TimeAllyPET.sol\":32278:32513  if(_amount >= _monthlyCommitmentAmount.div(2) || _depositMonth == 12) {... */\n    tag_370:\n        /* \"TimeAllyPET.sol\":32526:32544  _benefitAllocation */\n      dup1\n        /* \"TimeAllyPET.sol\":32519:32544  return _benefitAllocation */\n      swap8\n      pop\n      pop\n      pop\n      pop\n      pop\n      pop\n      pop\n      pop\n        /* \"TimeAllyPET.sol\":30921:32549  function _getBenefitAllocationByDepositAmount(... */\n      swap4\n      swap3\n      pop\n      pop\n      pop\n      jump\t// out\n        /* \"SafeMath.sol\":2271:2730  function mul(uint256 a, uint256 b) internal pure returns (uint256) {... */\n    tag_153:\n        /* \"SafeMath.sol\":2329:2336  uint256 */\n      0x00\n        /* \"SafeMath.sol\":2575:2576  0 */\n      dup1\n        /* \"SafeMath.sol\":2570:2571  a */\n      dup4\n        /* \"SafeMath.sol\":2570:2576  a == 0 */\n      eq\n        /* \"SafeMath.sol\":2566:2611  if (a == 0) {... */\n      iszero\n      tag_376\n      jumpi\n        /* \"SafeMath.sol\":2599:2600  0 */\n      0x00\n        /* \"SafeMath.sol\":2592:2600  return 0 */\n      swap1\n      pop\n      jump(tag_375)\n        /* \"SafeMath.sol\":2566:2611  if (a == 0) {... */\n    tag_376:\n        /* \"SafeMath.sol\":2621:2630  uint256 c */\n      0x00\n        /* \"SafeMath.sol\":2637:2638  b */\n      dup3\n        /* \"SafeMath.sol\":2633:2634  a */\n      dup5\n        /* \"SafeMath.sol\":2633:2638  a * b */\n      mul\n        /* \"SafeMath.sol\":2621:2638  uint256 c = a * b */\n      swap1\n      pop\n        /* \"SafeMath.sol\":2665:2666  b */\n      dup3\n        /* \"SafeMath.sol\":2660:2661  a */\n      dup5\n        /* \"SafeMath.sol\":2656:2657  c */\n      dup3\n        /* \"SafeMath.sol\":2656:2661  c / a */\n      dup2\n      tag_377\n      jumpi\n      invalid\n    tag_377:\n      div\n        /* \"SafeMath.sol\":2656:2666  c / a == b */\n      eq\n        /* \"SafeMath.sol\":2648:2704  require(c / a == b, \"SafeMath: multiplication overflow\") */\n      tag_378\n      jumpi\n      mload(0x40)\n      0x08c379a000000000000000000000000000000000000000000000000000000000\n      dup2\n      mstore\n      0x04\n      add\n      dup1\n      dup1\n      0x20\n      add\n      dup3\n      dup2\n      sub\n      dup3\n      mstore\n      0x21\n      dup2\n      mstore\n      0x20\n      add\n      dup1\n      data_9113bb53c2876a3805b2c9242029423fc540a728243ce887ab24c82cf119fba3\n      0x21\n      swap2\n      codecopy\n      0x40\n      add\n      swap2\n      pop\n      pop\n      mload(0x40)\n      dup1\n      swap2\n      sub\n      swap1\n      revert\n    tag_378:\n        /* \"SafeMath.sol\":2722:2723  c */\n      dup1\n        /* \"SafeMath.sol\":2715:2723  return c */\n      swap2\n      pop\n      pop\n        /* \"SafeMath.sol\":2271:2730  function mul(uint256 a, uint256 b) internal pure returns (uint256) {... */\n    tag_375:\n      swap3\n      swap2\n      pop\n      pop\n      jump\t// out\n        /* \"TimeAllyPET.sol\":29714:30537  function _burnPenalisedPowerBoosterTokens(... */\n    tag_241:\n        /* \"TimeAllyPET.sol\":29881:29897  PET storage _pet */\n      0x00\n        /* \"TimeAllyPET.sol\":29900:29904  pets */\n      0x04\n        /* \"TimeAllyPET.sol\":29900:29920  pets[_stakerAddress] */\n      0x00\n        /* \"TimeAllyPET.sol\":29905:29919  _stakerAddress */\n      dup5\n        /* \"TimeAllyPET.sol\":29900:29920  pets[_stakerAddress] */\n      0xffffffffffffffffffffffffffffffffffffffff\n      and\n      0xffffffffffffffffffffffffffffffffffffffff\n      and\n      dup2\n      mstore\n      0x20\n      add\n      swap1\n      dup2\n      mstore\n      0x20\n      add\n      0x00\n      keccak256\n        /* \"TimeAllyPET.sol\":29921:29927  _petId */\n      dup3\n        /* \"TimeAllyPET.sol\":29900:29928  pets[_stakerAddress][_petId] */\n      dup2\n      sload\n      dup2\n      lt\n      tag_380\n      jumpi\n      invalid\n    tag_380:\n      swap1\n      0x00\n      mstore\n      keccak256(0x00, 0x20)\n      swap1\n      0x0a\n      mul\n      add\n        /* \"TimeAllyPET.sol\":29881:29928  PET storage _pet = pets[_stakerAddress][_petId] */\n      swap1\n      pop\n        /* \"TimeAllyPET.sol\":29935:29964  uint256 _unachieveTargetCount */\n      0x00\n        /* \"TimeAllyPET.sol\":30032:30042  uint256 _i */\n      dup1\n        /* \"TimeAllyPET.sol\":30045:30046  1 */\n      0x01\n        /* \"TimeAllyPET.sol\":30032:30046  uint256 _i = 1 */\n      swap1\n      pop\n        /* \"TimeAllyPET.sol\":30028:30185  for(uint256 _i = 1; _i <= 12; _i++) {... */\n    tag_382:\n        /* \"TimeAllyPET.sol\":30054:30056  12 */\n      0x0c\n        /* \"TimeAllyPET.sol\":30048:30050  _i */\n      dup2\n        /* \"TimeAllyPET.sol\":30048:30056  _i <= 12 */\n      gt\n        /* \"TimeAllyPET.sol\":30028:30185  for(uint256 _i = 1; _i <= 12; _i++) {... */\n      tag_383\n      jumpi\n        /* \"TimeAllyPET.sol\":30107:30111  _pet */\n      dup3\n        /* \"TimeAllyPET.sol\":30107:30135  _pet.monthlyCommitmentAmount */\n      0x01\n      add\n      sload\n        /* \"TimeAllyPET.sol\":30075:30079  _pet */\n      dup4\n        /* \"TimeAllyPET.sol\":30075:30100  _pet.monthlyDepositAmount */\n      0x06\n      add\n        /* \"TimeAllyPET.sol\":30075:30104  _pet.monthlyDepositAmount[_i] */\n      0x00\n        /* \"TimeAllyPET.sol\":30101:30103  _i */\n      dup4\n        /* \"TimeAllyPET.sol\":30075:30104  _pet.monthlyDepositAmount[_i] */\n      dup2\n      mstore\n      0x20\n      add\n      swap1\n      dup2\n      mstore\n      0x20\n      add\n      0x00\n      keccak256\n      sload\n        /* \"TimeAllyPET.sol\":30075:30135  _pet.monthlyDepositAmount[_i] < _pet.monthlyCommitmentAmount */\n      lt\n        /* \"TimeAllyPET.sol\":30072:30179  if(_pet.monthlyDepositAmount[_i] < _pet.monthlyCommitmentAmount) {... */\n      iszero\n      tag_385\n      jumpi\n        /* \"TimeAllyPET.sol\":30147:30170  _unachieveTargetCount++ */\n      dup2\n      dup1\n      0x01\n      add\n      swap3\n      pop\n      pop\n        /* \"TimeAllyPET.sol\":30072:30179  if(_pet.monthlyDepositAmount[_i] < _pet.monthlyCommitmentAmount) {... */\n    tag_385:\n        /* \"TimeAllyPET.sol\":30058:30062  _i++ */\n      dup1\n      dup1\n      0x01\n      add\n      swap2\n      pop\n      pop\n        /* \"TimeAllyPET.sol\":30028:30185  for(uint256 _i = 1; _i <= 12; _i++) {... */\n      jump(tag_382)\n    tag_383:\n      pop\n        /* \"TimeAllyPET.sol\":30191:30218  uint256 _powerBoosterAmount */\n      0x00\n        /* \"TimeAllyPET.sol\":30221:30272  calculatePowerBoosterAmount(_stakerAddress, _petId) */\n      tag_386\n        /* \"TimeAllyPET.sol\":30249:30263  _stakerAddress */\n      dup6\n        /* \"TimeAllyPET.sol\":30265:30271  _petId */\n      dup6\n        /* \"TimeAllyPET.sol\":30221:30248  calculatePowerBoosterAmount */\n      tag_63\n        /* \"TimeAllyPET.sol\":30221:30272  calculatePowerBoosterAmount(_stakerAddress, _petId) */\n      jump\t// in\n    tag_386:\n        /* \"TimeAllyPET.sol\":30191:30272  uint256 _powerBoosterAmount = calculatePowerBoosterAmount(_stakerAddress, _petId) */\n      swap1\n      pop\n        /* \"TimeAllyPET.sol\":30333:30355  uint256 _burningAmount */\n      0x00\n        /* \"TimeAllyPET.sol\":30358:30404  _powerBoosterAmount.mul(_unachieveTargetCount) */\n      tag_387\n        /* \"TimeAllyPET.sol\":30382:30403  _unachieveTargetCount */\n      dup4\n        /* \"TimeAllyPET.sol\":30358:30377  _powerBoosterAmount */\n      dup4\n        /* \"TimeAllyPET.sol\":30358:30381  _powerBoosterAmount.mul */\n      tag_153\n      swap1\n        /* \"TimeAllyPET.sol\":30358:30404  _powerBoosterAmount.mul(_unachieveTargetCount) */\n      swap2\n      swap1\n      0xffffffff\n      and\n      jump\t// in\n    tag_387:\n        /* \"TimeAllyPET.sol\":30333:30404  uint256 _burningAmount = _powerBoosterAmount.mul(_unachieveTargetCount) */\n      swap1\n      pop\n        /* \"TimeAllyPET.sol\":30410:30415  token */\n      0x02\n      0x00\n      swap1\n      sload\n      swap1\n      0x0100\n      exp\n      swap1\n      div\n      0xffffffffffffffffffffffffffffffffffffffff\n      and\n        /* \"TimeAllyPET.sol\":30410:30420  token.burn */\n      0xffffffffffffffffffffffffffffffffffffffff\n      and\n      0x42966c68\n        /* \"TimeAllyPET.sol\":30421:30435  _burningAmount */\n      dup3\n        /* \"TimeAllyPET.sol\":30410:30436  token.burn(_burningAmount) */\n      mload(0x40)\n      dup3\n      0xffffffff\n      and\n      0xe0\n      shl\n      dup2\n      mstore\n      0x04\n      add\n      dup1\n      dup3\n      dup2\n      mstore\n      0x20\n      add\n      swap2\n      pop\n      pop\n      0x00\n      mload(0x40)\n      dup1\n      dup4\n      sub\n      dup2\n      0x00\n      dup8\n      dup1\n      extcodesize\n      iszero\n        /* \"--CODEGEN--\":8:17   */\n      dup1\n        /* \"--CODEGEN--\":5:7   */\n      iszero\n      tag_388\n      jumpi\n        /* \"--CODEGEN--\":30:31   */\n      0x00\n        /* \"--CODEGEN--\":27:28   */\n      dup1\n        /* \"--CODEGEN--\":20:32   */\n      revert\n        /* \"--CODEGEN--\":5:7   */\n    tag_388:\n        /* \"TimeAllyPET.sol\":30410:30436  token.burn(_burningAmount) */\n      pop\n      gas\n      call\n      iszero\n        /* \"--CODEGEN--\":8:17   */\n      dup1\n        /* \"--CODEGEN--\":5:7   */\n      iszero\n      tag_390\n      jumpi\n        /* \"--CODEGEN--\":45:61   */\n      returndatasize\n        /* \"--CODEGEN--\":42:43   */\n      0x00\n        /* \"--CODEGEN--\":39:40   */\n      dup1\n        /* \"--CODEGEN--\":24:62   */\n      returndatacopy\n        /* \"--CODEGEN--\":77:93   */\n      returndatasize\n        /* \"--CODEGEN--\":74:75   */\n      0x00\n        /* \"--CODEGEN--\":67:94   */\n      revert\n        /* \"--CODEGEN--\":5:7   */\n    tag_390:\n        /* \"TimeAllyPET.sol\":30410:30436  token.burn(_burningAmount) */\n      pop\n      pop\n      pop\n      pop\n        /* \"TimeAllyPET.sol\":30481:30532  BoosterBurn(_stakerAddress, _petId, _burningAmount) */\n      0xd5d3899d9ec9513f6566105e58d4a87a89e47bce6bb44c2ade5df7cb3413ccf7\n        /* \"TimeAllyPET.sol\":30493:30507  _stakerAddress */\n      dup7\n        /* \"TimeAllyPET.sol\":30509:30515  _petId */\n      dup7\n        /* \"TimeAllyPET.sol\":30517:30531  _burningAmount */\n      dup4\n        /* \"TimeAllyPET.sol\":30481:30532  BoosterBurn(_stakerAddress, _petId, _burningAmount) */\n      mload(0x40)\n      dup1\n      dup5\n      0xffffffffffffffffffffffffffffffffffffffff\n      and\n      0xffffffffffffffffffffffffffffffffffffffff\n      and\n      dup2\n      mstore\n      0x20\n      add\n      dup4\n      dup2\n      mstore\n      0x20\n      add\n      dup3\n      dup2\n      mstore\n      0x20\n      add\n      swap4\n      pop\n      pop\n      pop\n      pop\n      mload(0x40)\n      dup1\n      swap2\n      sub\n      swap1\n      log1\n        /* \"TimeAllyPET.sol\":29714:30537  function _burnPenalisedPowerBoosterTokens(... */\n      pop\n      pop\n      pop\n      pop\n      pop\n      pop\n      jump\t// out\n        /* \"TimeAllyPET.sol\":32846:33604  function _getTotalDepositedIncludingPET(... */\n    tag_256:\n        /* \"TimeAllyPET.sol\":32971:32978  uint256 */\n      0x00\n        /* \"TimeAllyPET.sol\":32986:33004  uint256 _petAmount */\n      dup1\n        /* \"TimeAllyPET.sol\":33088:33112  _monthlyCommitmentAmount */\n      dup3\n        /* \"TimeAllyPET.sol\":33078:33085  _amount */\n      dup5\n        /* \"TimeAllyPET.sol\":33078:33112  _amount > _monthlyCommitmentAmount */\n      gt\n        /* \"TimeAllyPET.sol\":33075:33492  if(_amount > _monthlyCommitmentAmount) {... */\n      iszero\n      tag_392\n      jumpi\n        /* \"TimeAllyPET.sol\":33122:33142  uint256 _topupAmount */\n      0x00\n        /* \"TimeAllyPET.sol\":33145:33182  _amount.sub(_monthlyCommitmentAmount) */\n      tag_393\n        /* \"TimeAllyPET.sol\":33157:33181  _monthlyCommitmentAmount */\n      dup5\n        /* \"TimeAllyPET.sol\":33145:33152  _amount */\n      dup7\n        /* \"TimeAllyPET.sol\":33145:33156  _amount.sub */\n      tag_123\n      swap1\n        /* \"TimeAllyPET.sol\":33145:33182  _amount.sub(_monthlyCommitmentAmount) */\n      swap2\n      swap1\n      0xffffffff\n      and\n      jump\t// in\n    tag_393:\n        /* \"TimeAllyPET.sol\":33122:33182  uint256 _topupAmount = _amount.sub(_monthlyCommitmentAmount) */\n      swap1\n      pop\n        /* \"TimeAllyPET.sol\":33203:33252  _monthlyCommitmentAmount.add(_topupAmount.div(2)) */\n      tag_394\n        /* \"TimeAllyPET.sol\":33232:33251  _topupAmount.div(2) */\n      tag_395\n        /* \"TimeAllyPET.sol\":33249:33250  2 */\n      0x02\n        /* \"TimeAllyPET.sol\":33232:33244  _topupAmount */\n      dup4\n        /* \"TimeAllyPET.sol\":33232:33248  _topupAmount.div */\n      tag_135\n      swap1\n        /* \"TimeAllyPET.sol\":33232:33251  _topupAmount.div(2) */\n      swap2\n      swap1\n      0xffffffff\n      and\n      jump\t// in\n    tag_395:\n        /* \"TimeAllyPET.sol\":33203:33227  _monthlyCommitmentAmount */\n      dup6\n        /* \"TimeAllyPET.sol\":33203:33231  _monthlyCommitmentAmount.add */\n      tag_130\n      swap1\n        /* \"TimeAllyPET.sol\":33203:33252  _monthlyCommitmentAmount.add(_topupAmount.div(2)) */\n      swap2\n      swap1\n      0xffffffff\n      and\n      jump\t// in\n    tag_394:\n        /* \"TimeAllyPET.sol\":33190:33252  _petAmount = _monthlyCommitmentAmount.add(_topupAmount.div(2)) */\n      swap2\n      pop\n        /* \"TimeAllyPET.sol\":33075:33492  if(_amount > _monthlyCommitmentAmount) {... */\n      pop\n      jump(tag_396)\n    tag_392:\n        /* \"TimeAllyPET.sol\":33424:33455  _monthlyCommitmentAmount.div(2) */\n      tag_397\n        /* \"TimeAllyPET.sol\":33453:33454  2 */\n      0x02\n        /* \"TimeAllyPET.sol\":33424:33448  _monthlyCommitmentAmount */\n      dup5\n        /* \"TimeAllyPET.sol\":33424:33452  _monthlyCommitmentAmount.div */\n      tag_135\n      swap1\n        /* \"TimeAllyPET.sol\":33424:33455  _monthlyCommitmentAmount.div(2) */\n      swap2\n      swap1\n      0xffffffff\n      and\n      jump\t// in\n    tag_397:\n        /* \"TimeAllyPET.sol\":33413:33420  _amount */\n      dup5\n        /* \"TimeAllyPET.sol\":33413:33455  _amount >= _monthlyCommitmentAmount.div(2) */\n      lt\n        /* \"TimeAllyPET.sol\":33410:33492  if(_amount >= _monthlyCommitmentAmount.div(2)) {... */\n      tag_398\n      jumpi\n        /* \"TimeAllyPET.sol\":33478:33485  _amount */\n      dup4\n        /* \"TimeAllyPET.sol\":33465:33485  _petAmount = _amount */\n      swap1\n      pop\n        /* \"TimeAllyPET.sol\":33410:33492  if(_amount >= _monthlyCommitmentAmount.div(2)) {... */\n    tag_398:\n        /* \"TimeAllyPET.sol\":33075:33492  if(_amount > _monthlyCommitmentAmount) {... */\n    tag_396:\n        /* \"TimeAllyPET.sol\":33576:33599  _amount.add(_petAmount) */\n      tag_399\n        /* \"TimeAllyPET.sol\":33588:33598  _petAmount */\n      dup2\n        /* \"TimeAllyPET.sol\":33576:33583  _amount */\n      dup6\n        /* \"TimeAllyPET.sol\":33576:33587  _amount.add */\n      tag_130\n      swap1\n        /* \"TimeAllyPET.sol\":33576:33599  _amount.add(_petAmount) */\n      swap2\n      swap1\n      0xffffffff\n      and\n      jump\t// in\n    tag_399:\n        /* \"TimeAllyPET.sol\":33569:33599  return _amount.add(_petAmount) */\n      swap2\n      pop\n      pop\n        /* \"TimeAllyPET.sol\":32846:33604  function _getTotalDepositedIncludingPET(... */\n      swap3\n      swap2\n      pop\n      pop\n      jump\t// out\n        /* \"SafeMath.sol\":1844:2031  function sub(uint256 a, uint256 b, string memory errorMessage) internal pure returns (uint256) {... */\n    tag_349:\n        /* \"SafeMath.sol\":1930:1937  uint256 */\n      0x00\n        /* \"SafeMath.sol\":1962:1963  a */\n      dup4\n        /* \"SafeMath.sol\":1957:1958  b */\n      dup4\n        /* \"SafeMath.sol\":1957:1963  b <= a */\n      gt\n      iszero\n        /* \"SafeMath.sol\":1965:1977  errorMessage */\n      dup3\n        /* \"SafeMath.sol\":1949:1978  require(b <= a, errorMessage) */\n      swap1\n      tag_401\n      jumpi\n      mload(0x40)\n      0x08c379a000000000000000000000000000000000000000000000000000000000\n      dup2\n      mstore\n      0x04\n      add\n      dup1\n      dup1\n      0x20\n      add\n      dup3\n      dup2\n      sub\n      dup3\n      mstore\n      dup4\n      dup2\n      dup2\n      mload\n      dup2\n      mstore\n      0x20\n      add\n      swap2\n      pop\n      dup1\n      mload\n      swap1\n      0x20\n      add\n      swap1\n      dup1\n      dup4\n      dup4\n        /* \"--CODEGEN--\":23:24   */\n      0x00\n        /* \"--CODEGEN--\":8:108   */\n    tag_402:\n        /* \"--CODEGEN--\":33:36   */\n      dup4\n        /* \"--CODEGEN--\":30:31   */\n      dup2\n        /* \"--CODEGEN--\":27:37   */\n      lt\n        /* \"--CODEGEN--\":8:108   */\n      iszero\n      tag_404\n      jumpi\n        /* \"--CODEGEN--\":99:100   */\n      dup1\n        /* \"--CODEGEN--\":94:97   */\n      dup3\n        /* \"--CODEGEN--\":90:101   */\n      add\n        /* \"--CODEGEN--\":84:102   */\n      mload\n        /* \"--CODEGEN--\":80:81   */\n      dup2\n        /* \"--CODEGEN--\":75:78   */\n      dup5\n        /* \"--CODEGEN--\":71:82   */\n      add\n        /* \"--CODEGEN--\":64:103   */\n      mstore\n        /* \"--CODEGEN--\":52:54   */\n      0x20\n        /* \"--CODEGEN--\":49:50   */\n      dup2\n        /* \"--CODEGEN--\":45:55   */\n      add\n        /* \"--CODEGEN--\":40:55   */\n      swap1\n      pop\n        /* \"--CODEGEN--\":8:108   */\n      jump(tag_402)\n    tag_404:\n        /* \"--CODEGEN--\":12:26   */\n      pop\n        /* \"SafeMath.sol\":1949:1978  require(b <= a, errorMessage) */\n      pop\n      pop\n      pop\n      swap1\n      pop\n      swap1\n      dup2\n      add\n      swap1\n      0x1f\n      and\n      dup1\n      iszero\n      tag_405\n      jumpi\n      dup1\n      dup3\n      sub\n      dup1\n      mload\n      0x01\n      dup4\n      0x20\n      sub\n      0x0100\n      exp\n      sub\n      not\n      and\n      dup2\n      mstore\n      0x20\n      add\n      swap2\n      pop\n    tag_405:\n      pop\n      swap3\n      pop\n      pop\n      pop\n      mload(0x40)\n      dup1\n      swap2\n      sub\n      swap1\n      revert\n    tag_401:\n      pop\n        /* \"SafeMath.sol\":1988:1997  uint256 c */\n      0x00\n        /* \"SafeMath.sol\":2004:2005  b */\n      dup4\n        /* \"SafeMath.sol\":2000:2001  a */\n      dup6\n        /* \"SafeMath.sol\":2000:2005  a - b */\n      sub\n        /* \"SafeMath.sol\":1988:2005  uint256 c = a - b */\n      swap1\n      pop\n        /* \"SafeMath.sol\":2023:2024  c */\n      dup1\n        /* \"SafeMath.sol\":2016:2024  return c */\n      swap2\n      pop\n      pop\n        /* \"SafeMath.sol\":1844:2031  function sub(uint256 a, uint256 b, string memory errorMessage) internal pure returns (uint256) {... */\n      swap4\n      swap3\n      pop\n      pop\n      pop\n      jump\t// out\n        /* \"SafeMath.sol\":3936:4274  function div(uint256 a, uint256 b, string memory errorMessage) internal pure returns (uint256) {... */\n    tag_354:\n        /* \"SafeMath.sol\":4022:4029  uint256 */\n      0x00\n        /* \"SafeMath.sol\":4119:4120  0 */\n      dup1\n        /* \"SafeMath.sol\":4115:4116  b */\n      dup4\n        /* \"SafeMath.sol\":4115:4120  b > 0 */\n      gt\n        /* \"SafeMath.sol\":4122:4134  errorMessage */\n      dup3\n        /* \"SafeMath.sol\":4107:4135  require(b > 0, errorMessage) */\n      swap1\n      tag_407\n      jumpi\n      mload(0x40)\n      0x08c379a000000000000000000000000000000000000000000000000000000000\n      dup2\n      mstore\n      0x04\n      add\n      dup1\n      dup1\n      0x20\n      add\n      dup3\n      dup2\n      sub\n      dup3\n      mstore\n      dup4\n      dup2\n      dup2\n      mload\n      dup2\n      mstore\n      0x20\n      add\n      swap2\n      pop\n      dup1\n      mload\n      swap1\n      0x20\n      add\n      swap1\n      dup1\n      dup4\n      dup4\n        /* \"--CODEGEN--\":23:24   */\n      0x00\n        /* \"--CODEGEN--\":8:108   */\n    tag_408:\n        /* \"--CODEGEN--\":33:36   */\n      dup4\n        /* \"--CODEGEN--\":30:31   */\n      dup2\n        /* \"--CODEGEN--\":27:37   */\n      lt\n        /* \"--CODEGEN--\":8:108   */\n      iszero\n      tag_410\n      jumpi\n        /* \"--CODEGEN--\":99:100   */\n      dup1\n        /* \"--CODEGEN--\":94:97   */\n      dup3\n        /* \"--CODEGEN--\":90:101   */\n      add\n        /* \"--CODEGEN--\":84:102   */\n      mload\n        /* \"--CODEGEN--\":80:81   */\n      dup2\n        /* \"--CODEGEN--\":75:78   */\n      dup5\n        /* \"--CODEGEN--\":71:82   */\n      add\n        /* \"--CODEGEN--\":64:103   */\n      mstore\n        /* \"--CODEGEN--\":52:54   */\n      0x20\n        /* \"--CODEGEN--\":49:50   */\n      dup2\n        /* \"--CODEGEN--\":45:55   */\n      add\n        /* \"--CODEGEN--\":40:55   */\n      swap1\n      pop\n        /* \"--CODEGEN--\":8:108   */\n      jump(tag_408)\n    tag_410:\n        /* \"--CODEGEN--\":12:26   */\n      pop\n        /* \"SafeMath.sol\":4107:4135  require(b > 0, errorMessage) */\n      pop\n      pop\n      pop\n      swap1\n      pop\n      swap1\n      dup2\n      add\n      swap1\n      0x1f\n      and\n      dup1\n      iszero\n      tag_411\n      jumpi\n      dup1\n      dup3\n      sub\n      dup1\n      mload\n      0x01\n      dup4\n      0x20\n      sub\n      0x0100\n      exp\n      sub\n      not\n      and\n      dup2\n      mstore\n      0x20\n      add\n      swap2\n      pop\n    tag_411:\n      pop\n      swap3\n      pop\n      pop\n      pop\n      mload(0x40)\n      dup1\n      swap2\n      sub\n      swap1\n      revert\n    tag_407:\n      pop\n        /* \"SafeMath.sol\":4145:4154  uint256 c */\n      0x00\n        /* \"SafeMath.sol\":4161:4162  b */\n      dup4\n        /* \"SafeMath.sol\":4157:4158  a */\n      dup6\n        /* \"SafeMath.sol\":4157:4162  a / b */\n      dup2\n      tag_412\n      jumpi\n      invalid\n    tag_412:\n      div\n        /* \"SafeMath.sol\":4145:4162  uint256 c = a / b */\n      swap1\n      pop\n        /* \"SafeMath.sol\":4266:4267  c */\n      dup1\n        /* \"SafeMath.sol\":4259:4267  return c */\n      swap2\n      pop\n      pop\n        /* \"SafeMath.sol\":3936:4274  function div(uint256 a, uint256 b, string memory errorMessage) internal pure returns (uint256) {... */\n      swap4\n      swap3\n      pop\n      pop\n      pop\n      jump\t// out\n    stop\n    data_18b306be375032d2ffcbec7f4558490d51c050668b948e1ca8484a1aef46ff9e 616c6c6f776564206f6e6c7920696e206672657368206d6f6e7468206465706f736974\n    data_9113bb53c2876a3805b2c9242029423fc540a728243ce887ab24c82cf119fba3 536166654d6174683a206d756c7469706c69636174696f6e206f766572666c6f77\n    data_a4c16ca7a8e973f42facadda9d5acf990ce1247b83cdb47d69fe2dcd504c7f2f 63616e6e6f74206465706f73697420616674657220616363756d756c6174696f6e20706572696f64\n    data_a66804336ef880d43d3664593cfd2886bc0d5e09a9e6d1574f39fab0c9f3fb85 6465706f73697420616d6f756e742073686f756c64206265206e6f6e207a65726f\n\n    auxdata: 0xa264697066735822122059dd059ea8f67cf6a2ac18159e5ea1b67d635182763e761bc23c98037264225564736f6c63430006010033\n}\n\nsub_1: assembly {\n        /* \"TimeAllyPET.sol\":1274:3384  contract FundsBucketPET {... */\n      mstore(0x40, 0x80)\n        /* \"TimeAllyPET.sol\":2353:2486  constructor(ERC20 _token, address _deployer) public {... */\n      callvalue\n        /* \"--CODEGEN--\":8:17   */\n      dup1\n        /* \"--CODEGEN--\":5:7   */\n      iszero\n      tag_1\n      jumpi\n        /* \"--CODEGEN--\":30:31   */\n      0x00\n        /* \"--CODEGEN--\":27:28   */\n      dup1\n        /* \"--CODEGEN--\":20:32   */\n      revert\n        /* \"--CODEGEN--\":5:7   */\n    tag_1:\n        /* \"TimeAllyPET.sol\":2353:2486  constructor(ERC20 _token, address _deployer) public {... */\n      pop\n      mload(0x40)\n      sub(codesize, bytecodeSize)\n      dup1\n      bytecodeSize\n      dup4\n      codecopy\n      dup2\n      dup2\n      add\n      0x40\n      mstore\n        /* \"--CODEGEN--\":13:15   */\n      0x40\n        /* \"--CODEGEN--\":8:11   */\n      dup2\n        /* \"--CODEGEN--\":5:16   */\n      lt\n        /* \"--CODEGEN--\":2:4   */\n      iszero\n      tag_2\n      jumpi\n        /* \"--CODEGEN--\":29:30   */\n      0x00\n        /* \"--CODEGEN--\":26:27   */\n      dup1\n        /* \"--CODEGEN--\":19:31   */\n      revert\n        /* \"--CODEGEN--\":2:4   */\n    tag_2:\n        /* \"TimeAllyPET.sol\":2353:2486  constructor(ERC20 _token, address _deployer) public {... */\n      dup2\n      add\n      swap1\n      dup1\n      dup1\n      mload\n      swap1\n      0x20\n      add\n      swap1\n      swap3\n      swap2\n      swap1\n      dup1\n      mload\n      swap1\n      0x20\n      add\n      swap1\n      swap3\n      swap2\n      swap1\n      pop\n      pop\n      pop\n        /* \"TimeAllyPET.sol\":2419:2425  _token */\n      dup2\n        /* \"TimeAllyPET.sol\":2411:2416  token */\n      0x01\n      0x00\n        /* \"TimeAllyPET.sol\":2411:2425  token = _token */\n      0x0100\n      exp\n      dup2\n      sload\n      dup2\n      0xffffffffffffffffffffffffffffffffffffffff\n      mul\n      not\n      and\n      swap1\n      dup4\n      0xffffffffffffffffffffffffffffffffffffffff\n      and\n      mul\n      or\n      swap1\n      sstore\n      pop\n        /* \"TimeAllyPET.sol\":2442:2451  _deployer */\n      dup1\n        /* \"TimeAllyPET.sol\":2431:2439  deployer */\n      0x00\n      dup1\n        /* \"TimeAllyPET.sol\":2431:2451  deployer = _deployer */\n      0x0100\n      exp\n      dup2\n      sload\n      dup2\n      0xffffffffffffffffffffffffffffffffffffffff\n      mul\n      not\n      and\n      swap1\n      dup4\n      0xffffffffffffffffffffffffffffffffffffffff\n      and\n      mul\n      or\n      swap1\n      sstore\n      pop\n        /* \"TimeAllyPET.sol\":2471:2481  msg.sender */\n      caller\n        /* \"TimeAllyPET.sol\":2457:2468  petContract */\n      0x02\n      0x00\n        /* \"TimeAllyPET.sol\":2457:2481  petContract = msg.sender */\n      0x0100\n      exp\n      dup2\n      sload\n      dup2\n      0xffffffffffffffffffffffffffffffffffffffff\n      mul\n      not\n      and\n      swap1\n      dup4\n      0xffffffffffffffffffffffffffffffffffffffff\n      and\n      mul\n      or\n      swap1\n      sstore\n      pop\n        /* \"TimeAllyPET.sol\":2353:2486  constructor(ERC20 _token, address _deployer) public {... */\n      pop\n      pop\n        /* \"TimeAllyPET.sol\":1274:3384  contract FundsBucketPET {... */\n      dataSize(sub_0)\n      dup1\n      dataOffset(sub_0)\n      0x00\n      codecopy\n      0x00\n      return\n    stop\n\n    sub_0: assembly {\n            /* \"TimeAllyPET.sol\":1274:3384  contract FundsBucketPET {... */\n          mstore(0x40, 0x80)\n          callvalue\n            /* \"--CODEGEN--\":8:17   */\n          dup1\n            /* \"--CODEGEN--\":5:7   */\n          iszero\n          tag_1\n          jumpi\n            /* \"--CODEGEN--\":30:31   */\n          0x00\n            /* \"--CODEGEN--\":27:28   */\n          dup1\n            /* \"--CODEGEN--\":20:32   */\n          revert\n            /* \"--CODEGEN--\":5:7   */\n        tag_1:\n            /* \"TimeAllyPET.sol\":1274:3384  contract FundsBucketPET {... */\n          pop\n          jumpi(tag_2, lt(calldatasize, 0x04))\n          shr(0xe0, calldataload(0x00))\n          dup1\n          0x3b4d8a7d\n          eq\n          tag_3\n          jumpi\n          dup1\n          0x9997e137\n          eq\n          tag_4\n          jumpi\n          dup1\n          0xbe999705\n          eq\n          tag_5\n          jumpi\n          dup1\n          0xd5f39488\n          eq\n          tag_6\n          jumpi\n          dup1\n          0xfc0c546a\n          eq\n          tag_7\n          jumpi\n        tag_2:\n          0x00\n          dup1\n          revert\n            /* \"TimeAllyPET.sol\":3082:3382  function withdrawFunds(bool _withdrawEverything, uint256 _withdrawlAmount) public onlyDeployer {... */\n        tag_3:\n          tag_8\n          0x04\n          dup1\n          calldatasize\n          sub\n            /* \"--CODEGEN--\":13:15   */\n          0x40\n            /* \"--CODEGEN--\":8:11   */\n          dup2\n            /* \"--CODEGEN--\":5:16   */\n          lt\n            /* \"--CODEGEN--\":2:4   */\n          iszero\n          tag_9\n          jumpi\n            /* \"--CODEGEN--\":29:30   */\n          0x00\n            /* \"--CODEGEN--\":26:27   */\n          dup1\n            /* \"--CODEGEN--\":19:31   */\n          revert\n            /* \"--CODEGEN--\":2:4   */\n        tag_9:\n            /* \"TimeAllyPET.sol\":3082:3382  function withdrawFunds(bool _withdrawEverything, uint256 _withdrawlAmount) public onlyDeployer {... */\n          dup2\n          add\n          swap1\n          dup1\n          dup1\n          calldataload\n          iszero\n          iszero\n          swap1\n          0x20\n          add\n          swap1\n          swap3\n          swap2\n          swap1\n          dup1\n          calldataload\n          swap1\n          0x20\n          add\n          swap1\n          swap3\n          swap2\n          swap1\n          pop\n          pop\n          pop\n          tag_10\n          jump\t// in\n        tag_8:\n          stop\n            /* \"TimeAllyPET.sol\":1493:1519  address public petContract */\n        tag_4:\n          tag_11\n          tag_12\n          jump\t// in\n        tag_11:\n          mload(0x40)\n          dup1\n          dup3\n          0xffffffffffffffffffffffffffffffffffffffff\n          and\n          0xffffffffffffffffffffffffffffffffffffffff\n          and\n          dup2\n          mstore\n          0x20\n          add\n          swap2\n          pop\n          pop\n          mload(0x40)\n          dup1\n          swap2\n          sub\n          swap1\n          return\n            /* \"TimeAllyPET.sol\":2711:2992  function addFunds(uint256 _depositAmount) public {... */\n        tag_5:\n          tag_13\n          0x04\n          dup1\n          calldatasize\n          sub\n            /* \"--CODEGEN--\":13:15   */\n          0x20\n            /* \"--CODEGEN--\":8:11   */\n          dup2\n            /* \"--CODEGEN--\":5:16   */\n          lt\n            /* \"--CODEGEN--\":2:4   */\n          iszero\n          tag_14\n          jumpi\n            /* \"--CODEGEN--\":29:30   */\n          0x00\n            /* \"--CODEGEN--\":26:27   */\n          dup1\n            /* \"--CODEGEN--\":19:31   */\n          revert\n            /* \"--CODEGEN--\":2:4   */\n        tag_14:\n            /* \"TimeAllyPET.sol\":2711:2992  function addFunds(uint256 _depositAmount) public {... */\n          dup2\n          add\n          swap1\n          dup1\n          dup1\n          calldataload\n          swap1\n          0x20\n          add\n          swap1\n          swap3\n          swap2\n          swap1\n          pop\n          pop\n          pop\n          tag_15\n          jump\t// in\n        tag_13:\n          stop\n            /* \"TimeAllyPET.sol\":1343:1366  address public deployer */\n        tag_6:\n          tag_16\n          tag_17\n          jump\t// in\n        tag_16:\n          mload(0x40)\n          dup1\n          dup3\n          0xffffffffffffffffffffffffffffffffffffffff\n          and\n          0xffffffffffffffffffffffffffffffffffffffff\n          and\n          dup2\n          mstore\n          0x20\n          add\n          swap2\n          pop\n          pop\n          mload(0x40)\n          dup1\n          swap2\n          sub\n          swap1\n          return\n            /* \"TimeAllyPET.sol\":1426:1444  ERC20 public token */\n        tag_7:\n          tag_18\n          tag_19\n          jump\t// in\n        tag_18:\n          mload(0x40)\n          dup1\n          dup3\n          0xffffffffffffffffffffffffffffffffffffffff\n          and\n          0xffffffffffffffffffffffffffffffffffffffff\n          and\n          dup2\n          mstore\n          0x20\n          add\n          swap2\n          pop\n          pop\n          mload(0x40)\n          dup1\n          swap2\n          sub\n          swap1\n          return\n            /* \"TimeAllyPET.sol\":3082:3382  function withdrawFunds(bool _withdrawEverything, uint256 _withdrawlAmount) public onlyDeployer {... */\n        tag_10:\n            /* \"TimeAllyPET.sol\":1954:1962  deployer */\n          0x00\n          dup1\n          swap1\n          sload\n          swap1\n          0x0100\n          exp\n          swap1\n          div\n          0xffffffffffffffffffffffffffffffffffffffff\n          and\n            /* \"TimeAllyPET.sol\":1940:1962  msg.sender == deployer */\n          0xffffffffffffffffffffffffffffffffffffffff\n          and\n            /* \"TimeAllyPET.sol\":1940:1950  msg.sender */\n          caller\n            /* \"TimeAllyPET.sol\":1940:1962  msg.sender == deployer */\n          0xffffffffffffffffffffffffffffffffffffffff\n          and\n          eq\n            /* \"TimeAllyPET.sol\":1932:1989  require(msg.sender == deployer, 'only deployer can call') */\n          tag_21\n          jumpi\n          mload(0x40)\n          0x08c379a000000000000000000000000000000000000000000000000000000000\n          dup2\n          mstore\n          0x04\n          add\n          dup1\n          dup1\n          0x20\n          add\n          dup3\n          dup2\n          sub\n          dup3\n          mstore\n          0x16\n          dup2\n          mstore\n          0x20\n          add\n          dup1\n          0x6f6e6c79206465706c6f7965722063616e2063616c6c00000000000000000000\n          dup2\n          mstore\n          pop\n          0x20\n          add\n          swap2\n          pop\n          pop\n          mload(0x40)\n          dup1\n          swap2\n          sub\n          swap1\n          revert\n        tag_21:\n            /* \"TimeAllyPET.sol\":3186:3205  _withdrawEverything */\n          dup2\n            /* \"TimeAllyPET.sol\":3183:3271  if(_withdrawEverything) {... */\n          iszero\n          tag_23\n          jumpi\n            /* \"TimeAllyPET.sol\":3234:3239  token */\n          0x01\n          0x00\n          swap1\n          sload\n          swap1\n          0x0100\n          exp\n          swap1\n          div\n          0xffffffffffffffffffffffffffffffffffffffff\n          and\n            /* \"TimeAllyPET.sol\":3234:3249  token.balanceOf */\n          0xffffffffffffffffffffffffffffffffffffffff\n          and\n          0x70a08231\n            /* \"TimeAllyPET.sol\":3258:3262  this */\n          address\n            /* \"TimeAllyPET.sol\":3234:3264  token.balanceOf(address(this)) */\n          mload(0x40)\n          dup3\n          0xffffffff\n          and\n          0xe0\n          shl\n          dup2\n          mstore\n          0x04\n          add\n          dup1\n          dup3\n          0xffffffffffffffffffffffffffffffffffffffff\n          and\n          0xffffffffffffffffffffffffffffffffffffffff\n          and\n          dup2\n          mstore\n          0x20\n          add\n          swap2\n          pop\n          pop\n          0x20\n          mload(0x40)\n          dup1\n          dup4\n          sub\n          dup2\n          dup7\n          dup1\n          extcodesize\n          iszero\n            /* \"--CODEGEN--\":8:17   */\n          dup1\n            /* \"--CODEGEN--\":5:7   */\n          iszero\n          tag_24\n          jumpi\n            /* \"--CODEGEN--\":30:31   */\n          0x00\n            /* \"--CODEGEN--\":27:28   */\n          dup1\n            /* \"--CODEGEN--\":20:32   */\n          revert\n            /* \"--CODEGEN--\":5:7   */\n        tag_24:\n            /* \"TimeAllyPET.sol\":3234:3264  token.balanceOf(address(this)) */\n          pop\n          gas\n          staticcall\n          iszero\n            /* \"--CODEGEN--\":8:17   */\n          dup1\n            /* \"--CODEGEN--\":5:7   */\n          iszero\n          tag_26\n          jumpi\n            /* \"--CODEGEN--\":45:61   */\n          returndatasize\n            /* \"--CODEGEN--\":42:43   */\n          0x00\n            /* \"--CODEGEN--\":39:40   */\n          dup1\n            /* \"--CODEGEN--\":24:62   */\n          returndatacopy\n            /* \"--CODEGEN--\":77:93   */\n          returndatasize\n            /* \"--CODEGEN--\":74:75   */\n          0x00\n            /* \"--CODEGEN--\":67:94   */\n          revert\n            /* \"--CODEGEN--\":5:7   */\n        tag_26:\n            /* \"TimeAllyPET.sol\":3234:3264  token.balanceOf(address(this)) */\n          pop\n          pop\n          pop\n          pop\n          mload(0x40)\n          returndatasize\n            /* \"--CODEGEN--\":13:15   */\n          0x20\n            /* \"--CODEGEN--\":8:11   */\n          dup2\n            /* \"--CODEGEN--\":5:16   */\n          lt\n            /* \"--CODEGEN--\":2:4   */\n          iszero\n          tag_27\n          jumpi\n            /* \"--CODEGEN--\":29:30   */\n          0x00\n            /* \"--CODEGEN--\":26:27   */\n          dup1\n            /* \"--CODEGEN--\":19:31   */\n          revert\n            /* \"--CODEGEN--\":2:4   */\n        tag_27:\n            /* \"TimeAllyPET.sol\":3234:3264  token.balanceOf(address(this)) */\n          dup2\n          add\n          swap1\n          dup1\n          dup1\n          mload\n          swap1\n          0x20\n          add\n          swap1\n          swap3\n          swap2\n          swap1\n          pop\n          pop\n          pop\n            /* \"TimeAllyPET.sol\":3215:3264  _withdrawlAmount = token.balanceOf(address(this)) */\n          swap1\n          pop\n            /* \"TimeAllyPET.sol\":3183:3271  if(_withdrawEverything) {... */\n        tag_23:\n            /* \"TimeAllyPET.sol\":3277:3282  token */\n          0x01\n          0x00\n          swap1\n          sload\n          swap1\n          0x0100\n          exp\n          swap1\n          div\n          0xffffffffffffffffffffffffffffffffffffffff\n          and\n            /* \"TimeAllyPET.sol\":3277:3291  token.transfer */\n          0xffffffffffffffffffffffffffffffffffffffff\n          and\n          0xa9059cbb\n            /* \"TimeAllyPET.sol\":3292:3302  msg.sender */\n          caller\n            /* \"TimeAllyPET.sol\":3304:3320  _withdrawlAmount */\n          dup4\n            /* \"TimeAllyPET.sol\":3277:3321  token.transfer(msg.sender, _withdrawlAmount) */\n          mload(0x40)\n          dup4\n          0xffffffff\n          and\n          0xe0\n          shl\n          dup2\n          mstore\n          0x04\n          add\n          dup1\n          dup4\n          0xffffffffffffffffffffffffffffffffffffffff\n          and\n          0xffffffffffffffffffffffffffffffffffffffff\n          and\n          dup2\n          mstore\n          0x20\n          add\n          dup3\n          dup2\n          mstore\n          0x20\n          add\n          swap3\n          pop\n          pop\n          pop\n          0x20\n          mload(0x40)\n          dup1\n          dup4\n          sub\n          dup2\n          0x00\n          dup8\n          dup1\n          extcodesize\n          iszero\n            /* \"--CODEGEN--\":8:17   */\n          dup1\n            /* \"--CODEGEN--\":5:7   */\n          iszero\n          tag_28\n          jumpi\n            /* \"--CODEGEN--\":30:31   */\n          0x00\n            /* \"--CODEGEN--\":27:28   */\n          dup1\n            /* \"--CODEGEN--\":20:32   */\n          revert\n            /* \"--CODEGEN--\":5:7   */\n        tag_28:\n            /* \"TimeAllyPET.sol\":3277:3321  token.transfer(msg.sender, _withdrawlAmount) */\n          pop\n          gas\n          call\n          iszero\n            /* \"--CODEGEN--\":8:17   */\n          dup1\n            /* \"--CODEGEN--\":5:7   */\n          iszero\n          tag_30\n          jumpi\n            /* \"--CODEGEN--\":45:61   */\n          returndatasize\n            /* \"--CODEGEN--\":42:43   */\n          0x00\n            /* \"--CODEGEN--\":39:40   */\n          dup1\n            /* \"--CODEGEN--\":24:62   */\n          returndatacopy\n            /* \"--CODEGEN--\":77:93   */\n          returndatasize\n            /* \"--CODEGEN--\":74:75   */\n          0x00\n            /* \"--CODEGEN--\":67:94   */\n          revert\n            /* \"--CODEGEN--\":5:7   */\n        tag_30:\n            /* \"TimeAllyPET.sol\":3277:3321  token.transfer(msg.sender, _withdrawlAmount) */\n          pop\n          pop\n          pop\n          pop\n          mload(0x40)\n          returndatasize\n            /* \"--CODEGEN--\":13:15   */\n          0x20\n            /* \"--CODEGEN--\":8:11   */\n          dup2\n            /* \"--CODEGEN--\":5:16   */\n          lt\n            /* \"--CODEGEN--\":2:4   */\n          iszero\n          tag_31\n          jumpi\n            /* \"--CODEGEN--\":29:30   */\n          0x00\n            /* \"--CODEGEN--\":26:27   */\n          dup1\n            /* \"--CODEGEN--\":19:31   */\n          revert\n            /* \"--CODEGEN--\":2:4   */\n        tag_31:\n            /* \"TimeAllyPET.sol\":3277:3321  token.transfer(msg.sender, _withdrawlAmount) */\n          dup2\n          add\n          swap1\n          dup1\n          dup1\n          mload\n          swap1\n          0x20\n          add\n          swap1\n          swap3\n          swap2\n          swap1\n          pop\n          pop\n          pop\n          pop\n            /* \"TimeAllyPET.sol\":3333:3377  FundsWithdrawn(msg.sender, _withdrawlAmount) */\n          0xeaff4b37086828766ad3268786972c0cd24259d4c87a80f9d3963a3c3d999b0d\n            /* \"TimeAllyPET.sol\":3348:3358  msg.sender */\n          caller\n            /* \"TimeAllyPET.sol\":3360:3376  _withdrawlAmount */\n          dup3\n            /* \"TimeAllyPET.sol\":3333:3377  FundsWithdrawn(msg.sender, _withdrawlAmount) */\n          mload(0x40)\n          dup1\n          dup4\n          0xffffffffffffffffffffffffffffffffffffffff\n          and\n          0xffffffffffffffffffffffffffffffffffffffff\n          and\n          dup2\n          mstore\n          0x20\n          add\n          dup3\n          dup2\n          mstore\n          0x20\n          add\n          swap3\n          pop\n          pop\n          pop\n          mload(0x40)\n          dup1\n          swap2\n          sub\n          swap1\n          log1\n            /* \"TimeAllyPET.sol\":3082:3382  function withdrawFunds(bool _withdrawEverything, uint256 _withdrawlAmount) public onlyDeployer {... */\n          pop\n          pop\n          jump\t// out\n            /* \"TimeAllyPET.sol\":1493:1519  address public petContract */\n        tag_12:\n          0x02\n          0x00\n          swap1\n          sload\n          swap1\n          0x0100\n          exp\n          swap1\n          div\n          0xffffffffffffffffffffffffffffffffffffffff\n          and\n          dup2\n          jump\t// out\n            /* \"TimeAllyPET.sol\":2711:2992  function addFunds(uint256 _depositAmount) public {... */\n        tag_15:\n            /* \"TimeAllyPET.sol\":2766:2771  token */\n          0x01\n          0x00\n          swap1\n          sload\n          swap1\n          0x0100\n          exp\n          swap1\n          div\n          0xffffffffffffffffffffffffffffffffffffffff\n          and\n            /* \"TimeAllyPET.sol\":2766:2784  token.transferFrom */\n          0xffffffffffffffffffffffffffffffffffffffff\n          and\n          0x23b872dd\n            /* \"TimeAllyPET.sol\":2785:2795  msg.sender */\n          caller\n            /* \"TimeAllyPET.sol\":2805:2809  this */\n          address\n            /* \"TimeAllyPET.sol\":2812:2826  _depositAmount */\n          dup5\n            /* \"TimeAllyPET.sol\":2766:2827  token.transferFrom(msg.sender, address(this), _depositAmount) */\n          mload(0x40)\n          dup5\n          0xffffffff\n          and\n          0xe0\n          shl\n          dup2\n          mstore\n          0x04\n          add\n          dup1\n          dup5\n          0xffffffffffffffffffffffffffffffffffffffff\n          and\n          0xffffffffffffffffffffffffffffffffffffffff\n          and\n          dup2\n          mstore\n          0x20\n          add\n          dup4\n          0xffffffffffffffffffffffffffffffffffffffff\n          and\n          0xffffffffffffffffffffffffffffffffffffffff\n          and\n          dup2\n          mstore\n          0x20\n          add\n          dup3\n          dup2\n          mstore\n          0x20\n          add\n          swap4\n          pop\n          pop\n          pop\n          pop\n          0x20\n          mload(0x40)\n          dup1\n          dup4\n          sub\n          dup2\n          0x00\n          dup8\n          dup1\n          extcodesize\n          iszero\n            /* \"--CODEGEN--\":8:17   */\n          dup1\n            /* \"--CODEGEN--\":5:7   */\n          iszero\n          tag_33\n          jumpi\n            /* \"--CODEGEN--\":30:31   */\n          0x00\n            /* \"--CODEGEN--\":27:28   */\n          dup1\n            /* \"--CODEGEN--\":20:32   */\n          revert\n            /* \"--CODEGEN--\":5:7   */\n        tag_33:\n            /* \"TimeAllyPET.sol\":2766:2827  token.transferFrom(msg.sender, address(this), _depositAmount) */\n          pop\n          gas\n          call\n          iszero\n            /* \"--CODEGEN--\":8:17   */\n          dup1\n            /* \"--CODEGEN--\":5:7   */\n          iszero\n          tag_35\n          jumpi\n            /* \"--CODEGEN--\":45:61   */\n          returndatasize\n            /* \"--CODEGEN--\":42:43   */\n          0x00\n            /* \"--CODEGEN--\":39:40   */\n          dup1\n            /* \"--CODEGEN--\":24:62   */\n          returndatacopy\n            /* \"--CODEGEN--\":77:93   */\n          returndatasize\n            /* \"--CODEGEN--\":74:75   */\n          0x00\n            /* \"--CODEGEN--\":67:94   */\n          revert\n            /* \"--CODEGEN--\":5:7   */\n        tag_35:\n            /* \"TimeAllyPET.sol\":2766:2827  token.transferFrom(msg.sender, address(this), _depositAmount) */\n          pop\n          pop\n          pop\n          pop\n          mload(0x40)\n          returndatasize\n            /* \"--CODEGEN--\":13:15   */\n          0x20\n            /* \"--CODEGEN--\":8:11   */\n          dup2\n            /* \"--CODEGEN--\":5:16   */\n          lt\n            /* \"--CODEGEN--\":2:4   */\n          iszero\n          tag_36\n          jumpi\n            /* \"--CODEGEN--\":29:30   */\n          0x00\n            /* \"--CODEGEN--\":26:27   */\n          dup1\n            /* \"--CODEGEN--\":19:31   */\n          revert\n            /* \"--CODEGEN--\":2:4   */\n        tag_36:\n            /* \"TimeAllyPET.sol\":2766:2827  token.transferFrom(msg.sender, address(this), _depositAmount) */\n          dup2\n          add\n          swap1\n          dup1\n          dup1\n          mload\n          swap1\n          0x20\n          add\n          swap1\n          swap3\n          swap2\n          swap1\n          pop\n          pop\n          pop\n          pop\n            /* \"TimeAllyPET.sol\":2891:2896  token */\n          0x01\n          0x00\n          swap1\n          sload\n          swap1\n          0x0100\n          exp\n          swap1\n          div\n          0xffffffffffffffffffffffffffffffffffffffff\n          and\n            /* \"TimeAllyPET.sol\":2891:2904  token.approve */\n          0xffffffffffffffffffffffffffffffffffffffff\n          and\n          0x095ea7b3\n            /* \"TimeAllyPET.sol\":2905:2916  petContract */\n          0x02\n          0x00\n          swap1\n          sload\n          swap1\n          0x0100\n          exp\n          swap1\n          div\n          0xffffffffffffffffffffffffffffffffffffffff\n          and\n            /* \"TimeAllyPET.sol\":2918:2932  _depositAmount */\n          dup4\n            /* \"TimeAllyPET.sol\":2891:2933  token.approve(petContract, _depositAmount) */\n          mload(0x40)\n          dup4\n          0xffffffff\n          and\n          0xe0\n          shl\n          dup2\n          mstore\n          0x04\n          add\n          dup1\n          dup4\n          0xffffffffffffffffffffffffffffffffffffffff\n          and\n          0xffffffffffffffffffffffffffffffffffffffff\n          and\n          dup2\n          mstore\n          0x20\n          add\n          dup3\n          dup2\n          mstore\n          0x20\n          add\n          swap3\n          pop\n          pop\n          pop\n          0x20\n          mload(0x40)\n          dup1\n          dup4\n          sub\n          dup2\n          0x00\n          dup8\n          dup1\n          extcodesize\n          iszero\n            /* \"--CODEGEN--\":8:17   */\n          dup1\n            /* \"--CODEGEN--\":5:7   */\n          iszero\n          tag_37\n          jumpi\n            /* \"--CODEGEN--\":30:31   */\n          0x00\n            /* \"--CODEGEN--\":27:28   */\n          dup1\n            /* \"--CODEGEN--\":20:32   */\n          revert\n            /* \"--CODEGEN--\":5:7   */\n        tag_37:\n            /* \"TimeAllyPET.sol\":2891:2933  token.approve(petContract, _depositAmount) */\n          pop\n          gas\n          call\n          iszero\n            /* \"--CODEGEN--\":8:17   */\n          dup1\n            /* \"--CODEGEN--\":5:7   */\n          iszero\n          tag_39\n          jumpi\n            /* \"--CODEGEN--\":45:61   */\n          returndatasize\n            /* \"--CODEGEN--\":42:43   */\n          0x00\n            /* \"--CODEGEN--\":39:40   */\n          dup1\n            /* \"--CODEGEN--\":24:62   */\n          returndatacopy\n            /* \"--CODEGEN--\":77:93   */\n          returndatasize\n            /* \"--CODEGEN--\":74:75   */\n          0x00\n            /* \"--CODEGEN--\":67:94   */\n          revert\n            /* \"--CODEGEN--\":5:7   */\n        tag_39:\n            /* \"TimeAllyPET.sol\":2891:2933  token.approve(petContract, _depositAmount) */\n          pop\n          pop\n          pop\n          pop\n          mload(0x40)\n          returndatasize\n            /* \"--CODEGEN--\":13:15   */\n          0x20\n            /* \"--CODEGEN--\":8:11   */\n          dup2\n            /* \"--CODEGEN--\":5:16   */\n          lt\n            /* \"--CODEGEN--\":2:4   */\n          iszero\n          tag_40\n          jumpi\n            /* \"--CODEGEN--\":29:30   */\n          0x00\n            /* \"--CODEGEN--\":26:27   */\n          dup1\n            /* \"--CODEGEN--\":19:31   */\n          revert\n            /* \"--CODEGEN--\":2:4   */\n        tag_40:\n            /* \"TimeAllyPET.sol\":2891:2933  token.approve(petContract, _depositAmount) */\n          dup2\n          add\n          swap1\n          dup1\n          dup1\n          mload\n          swap1\n          0x20\n          add\n          swap1\n          swap3\n          swap2\n          swap1\n          pop\n          pop\n          pop\n          pop\n            /* \"TimeAllyPET.sol\":2945:2987  FundsDeposited(msg.sender, _depositAmount) */\n          0x543ba50a5eec5e6178218e364b1d0f396157b3c8fa278522c2cb7fd99407d474\n            /* \"TimeAllyPET.sol\":2960:2970  msg.sender */\n          caller\n            /* \"TimeAllyPET.sol\":2972:2986  _depositAmount */\n          dup3\n            /* \"TimeAllyPET.sol\":2945:2987  FundsDeposited(msg.sender, _depositAmount) */\n          mload(0x40)\n          dup1\n          dup4\n          0xffffffffffffffffffffffffffffffffffffffff\n          and\n          0xffffffffffffffffffffffffffffffffffffffff\n          and\n          dup2\n          mstore\n          0x20\n          add\n          dup3\n          dup2\n          mstore\n          0x20\n          add\n          swap3\n          pop\n          pop\n          pop\n          mload(0x40)\n          dup1\n          swap2\n          sub\n          swap1\n          log1\n            /* \"TimeAllyPET.sol\":2711:2992  function addFunds(uint256 _depositAmount) public {... */\n          pop\n          jump\t// out\n            /* \"TimeAllyPET.sol\":1343:1366  address public deployer */\n        tag_17:\n          0x00\n          dup1\n          swap1\n          sload\n          swap1\n          0x0100\n          exp\n          swap1\n          div\n          0xffffffffffffffffffffffffffffffffffffffff\n          and\n          dup2\n          jump\t// out\n            /* \"TimeAllyPET.sol\":1426:1444  ERC20 public token */\n        tag_19:\n          0x01\n          0x00\n          swap1\n          sload\n          swap1\n          0x0100\n          exp\n          swap1\n          div\n          0xffffffffffffffffffffffffffffffffffffffff\n          and\n          dup2\n          jump\t// out\n\n        auxdata: 0xa26469706673582212201de382d7855a35a950ef33e6db664b582d1668cce93c9166c9598e1f9c2e76d064736f6c63430006010033\n    }\n}\n","bytecode":{"linkReferences":{},"object":"60806040523480156200001157600080fd5b5060405162004ed638038062004ed6833981810160405260208110156200003757600080fd5b8101908080519060200190929190505050336000806101000a81548173ffffffffffffffffffffffffffffffffffffffff021916908373ffffffffffffffffffffffffffffffffffffffff16021790555080600260006101000a81548173ffffffffffffffffffffffffffffffffffffffff021916908373ffffffffffffffffffffffffffffffffffffffff1602179055508033604051620000d990620001a7565b808373ffffffffffffffffffffffffffffffffffffffff1673ffffffffffffffffffffffffffffffffffffffff1681526020018273ffffffffffffffffffffffffffffffffffffffff1673ffffffffffffffffffffffffffffffffffffffff16815260200192505050604051809103906000f0801580156200015f573d6000803e3d6000fd5b50600160006101000a81548173ffffffffffffffffffffffffffffffffffffffff021916908373ffffffffffffffffffffffffffffffffffffffff16021790555050620001b5565b6108f180620045e583390190565b61442080620001c56000396000f3fe608060405234801561001057600080fd5b50600436106101735760003560e01c806347626531116100de5780639baf14d411610097578063d5f3948811610071578063d5f39488146109f5578063f713c79e14610a3f578063fb0685df14610aab578063fc0c546a14610b0357610173565b80639baf14d4146108f5578063a4003ad41461094d578063ba50531a1461099b57610173565b806347626531146105b35780634cd963cf1461062957806351a6349d146106955780637838e408146107e157806381423a261461081b57806395a0373c146108a157610173565b80632e9721b6116101305780632e9721b61461036c57806337482ef1146103f25780633ee20a891461044a5780633fd46068146104cf578063452f14231461051957806345b37ec41461057b57610173565b80630c254d63146101785780630ce57b46146101dc5780631615d204146102365780631fdae4b8146102a457806326f8bea7146103065780632992971314610334575b600080fd5b6101da6004803603608081101561018e57600080fd5b81019080803573ffffffffffffffffffffffffffffffffffffffff1690602001909291908035906020019092919080359060200190929190803515159060200190929190505050610b4d565b005b610234600480360360608110156101f257600080fd5b8101908080359060200190929190803573ffffffffffffffffffffffffffffffffffffffff169060200190929190803515159060200190929190505050611287565b005b6102a2600480360360a081101561024c57600080fd5b81019080803573ffffffffffffffffffffffffffffffffffffffff1690602001909291908035906020019092919080359060200190929190803590602001909291908035151590602001909291905050506113a6565b005b6102f0600480360360408110156102ba57600080fd5b81019080803573ffffffffffffffffffffffffffffffffffffffff16906020019092919080359060200190929190505050611bf5565b6040518082815260200191505060405180910390f35b6103326004803603602081101561031c57600080fd5b8101908080359060200190929190505050611d0e565b005b61036a6004803603604081101561034a57600080fd5b810190808035906020019092919080359060200190929190505050611ebf565b005b6103d86004803603606081101561038257600080fd5b81019080803573ffffffffffffffffffffffffffffffffffffffff16906020019092919080359060200190929190803573ffffffffffffffffffffffffffffffffffffffff169060200190929190505050612208565b604051808215151515815260200191505060405180910390f35b6104486004803603606081101561040857600080fd5b81019080803573ffffffffffffffffffffffffffffffffffffffff16906020019092919080359060200190929190803590602001909291905050506122b9565b005b6104966004803603604081101561046057600080fd5b81019080803573ffffffffffffffffffffffffffffffffffffffff16906020019092919080359060200190929190505050612844565b60405180878152602001868152602001858152602001848152602001838152602001828152602001965050505050505060405180910390f35b6104d761289a565b604051808273ffffffffffffffffffffffffffffffffffffffff1673ffffffffffffffffffffffffffffffffffffffff16815260200191505060405180910390f35b6105656004803603604081101561052f57600080fd5b81019080803573ffffffffffffffffffffffffffffffffffffffff169060200190929190803590602001909291905050506128c0565b6040518082815260200191505060405180910390f35b6105b16004803603604081101561059157600080fd5b810190808035906020019092919080359060200190929190505050612996565b005b610613600480360360808110156105c957600080fd5b81019080803573ffffffffffffffffffffffffffffffffffffffff169060200190929190803590602001909291908035906020019092919080359060200190929190505050612b2a565b6040518082815260200191505060405180910390f35b61067f6004803603606081101561063f57600080fd5b81019080803573ffffffffffffffffffffffffffffffffffffffff1690602001909291908035906020019092919080359060200190929190505050612c5a565b6040518082815260200191505060405180910390f35b6107df600480360360408110156106ab57600080fd5b81019080803590602001906401000000008111156106c857600080fd5b8201836020820111156106da57600080fd5b803590602001918460208302840111640100000000831117156106fc57600080fd5b919080806020026020016040519081016040528093929190818152602001838360200280828437600081840152601f19601f8201169050808301925050505050505091929192908035906020019064010000000081111561075c57600080fd5b82018360208201111561076e57600080fd5b8035906020019184602083028401116401000000008311171561079057600080fd5b919080806020026020016040519081016040528093929190818152602001838360200280828437600081840152601f19601f820116905080830192505050505050509192919290505050612d4c565b005b610819600480360360408110156107f757600080fd5b8101908080359060200190929190803515159060200190929190505050612ee3565b005b6108876004803603606081101561083157600080fd5b81019080803573ffffffffffffffffffffffffffffffffffffffff16906020019092919080359060200190929190803573ffffffffffffffffffffffffffffffffffffffff169060200190929190505050612fdf565b604051808215151515815260200191505060405180910390f35b6108cd600480360360208110156108b757600080fd5b8101908080359060200190929190505050613090565b6040518084151515158152602001838152602001828152602001935050505060405180910390f35b61094b6004803603606081101561090b57600080fd5b81019080803573ffffffffffffffffffffffffffffffffffffffff16906020019092919080359060200190929190803590602001909291905050506130d4565b005b6109996004803603604081101561096357600080fd5b81019080803573ffffffffffffffffffffffffffffffffffffffff1690602001909291908035906020019092919050505061371d565b005b6109f3600480360360608110156109b157600080fd5b8101908080359060200190929190803573ffffffffffffffffffffffffffffffffffffffff169060200190929190803515159060200190929190505050613914565b005b6109fd613b97565b604051808273ffffffffffffffffffffffffffffffffffffffff1673ffffffffffffffffffffffffffffffffffffffff16815260200191505060405180910390f35b610a9560048036036060811015610a5557600080fd5b81019080803573ffffffffffffffffffffffffffffffffffffffff1690602001909291908035906020019092919080359060200190929190505050613bbc565b6040518082815260200191505060405180910390f35b610aed60048036036020811015610ac157600080fd5b81019080803573ffffffffffffffffffffffffffffffffffffffff169060200190929190505050613c34565b6040518082815260200191505060405180910390f35b610b0b613c4c565b604051808273ffffffffffffffffffffffffffffffffffffffff1673ffffffffffffffffffffffffffffffffffffffff16815260200191505060405180910390f35b83836000600460008473ffffffffffffffffffffffffffffffffffffffff1673ffffffffffffffffffffffffffffffffffffffff1681526020019081526020016000208281548110610b9b57fe5b90600052602060002090600a020190508273ffffffffffffffffffffffffffffffffffffffff163373ffffffffffffffffffffffffffffffffffffffff1614610ca0578060080160003373ffffffffffffffffffffffffffffffffffffffff1673ffffffffffffffffffffffffffffffffffffffff16815260200190815260200160002060009054906101000a900460ff16610c9f576040517f08c379a000000000000000000000000000000000000000000000000000000000815260040180806020018281038252601a8152602001807f6e6f6d696e6174696f6e2073686f756c6420626520746865726500000000000081525060200191505060405180910390fd5b5b60008511610cf9576040517f08c379a00000000000000000000000000000000000000000000000000000000081526004018080602001828103825260218152602001806143ca6021913960400191505060405180910390fd5b6000600460008973ffffffffffffffffffffffffffffffffffffffff1673ffffffffffffffffffffffffffffffffffffffff1681526020019081526020016000208781548110610d4557fe5b90600052602060002090600a020190506000610d618989611bf5565b9050600c811115610dbd576040517f08c379a00000000000000000000000000000000000000000000000000000000081526004018080602001828103825260288152602001806143a26028913960400191505060405180910390fd5b8515610e5d57610e1587600560003373ffffffffffffffffffffffffffffffffffffffff1673ffffffffffffffffffffffffffffffffffffffff16815260200190815260200160002054613c7290919063ffffffff16565b600560003373ffffffffffffffffffffffffffffffffffffffff1673ffffffffffffffffffffffffffffffffffffffff16815260200190815260200160002081905550610f77565b600260009054906101000a900473ffffffffffffffffffffffffffffffffffffffff1673ffffffffffffffffffffffffffffffffffffffff166323b872dd33308a6040518463ffffffff1660e01b8152600401808473ffffffffffffffffffffffffffffffffffffffff1673ffffffffffffffffffffffffffffffffffffffff1681526020018373ffffffffffffffffffffffffffffffffffffffff1673ffffffffffffffffffffffffffffffffffffffff1681526020018281526020019350505050602060405180830381600087803b158015610f3a57600080fd5b505af1158015610f4e573d6000803e3d6000fd5b505050506040513d6020811015610f6457600080fd5b8101908080519060200190929190505050505b6000610fa18884600601600085815260200190815260200160002054613cbc90919063ffffffff16565b905060006001830390505b600081111561105b578360060160008281526020019081526020016000205460001080156110055750610fed60028560010154613d4490919063ffffffff16565b84600601600083815260200190815260200160002054105b15611050576110328460060160008381526020019081526020016000205483613cbc90919063ffffffff16565b91506000846006016000838152602001908152602001600020819055505b600181039050610fac565b600061106985600086613d8e565b9050600061108a8261107c888789613d8e565b613c7290919063ffffffff16565b9050600260009054906101000a900473ffffffffffffffffffffffffffffffffffffffff1673ffffffffffffffffffffffffffffffffffffffff166323b872dd600160009054906101000a900473ffffffffffffffffffffffffffffffffffffffff1630846040518463ffffffff1660e01b8152600401808473ffffffffffffffffffffffffffffffffffffffff1673ffffffffffffffffffffffffffffffffffffffff1681526020018373ffffffffffffffffffffffffffffffffffffffff1673ffffffffffffffffffffffffffffffffffffffff1681526020018281526020019350505050602060405180830381600087803b15801561118b57600080fd5b505af115801561119f573d6000803e3d6000fd5b505050506040513d60208110156111b557600080fd5b81019080805190602001909291905050505083866006016000878152602001908152602001600020819055508b8d73ffffffffffffffffffffffffffffffffffffffff167fa0f7ad829c9cb80662be76da1eefcf008f173427db87f98a6d935f043f1a12e5878e338f604051808581526020018481526020018373ffffffffffffffffffffffffffffffffffffffff1673ffffffffffffffffffffffffffffffffffffffff1681526020018215151515815260200194505050505060405180910390a350505050505050505050505050565b80600460003373ffffffffffffffffffffffffffffffffffffffff1673ffffffffffffffffffffffffffffffffffffffff16815260200190815260200160002084815481106112d257fe5b90600052602060002090600a020160080160008473ffffffffffffffffffffffffffffffffffffffff1673ffffffffffffffffffffffffffffffffffffffff16815260200190815260200160002060006101000a81548160ff0219169083151502179055508173ffffffffffffffffffffffffffffffffffffffff16833373ffffffffffffffffffffffffffffffffffffffff167f90e4568f920d8bb093366a04150aa0d04957a471196f5e1cdfb0db3cb83cc5b084604051808215151515815260200191505060405180910390a4505050565b600060038314156113df576113d860646113ca600187613ef590919063ffffffff16565b613d4490919063ffffffff16565b90506114c4565b60068314156114165761140f6064611401600287613ef590919063ffffffff16565b613d4490919063ffffffff16565b90506114c3565b600c83141561144d576114466064611438600387613ef590919063ffffffff16565b613d4490919063ffffffff16565b90506114c2565b60006114c1576040517f08c379a00000000000000000000000000000000000000000000000000000000081526004018080602001828103825260158152602001807f756e737570706f72746564206672657175656e6379000000000000000000000081525060200191505060405180910390fd5b5b5b5b6000841161151d576040517f08c379a00000000000000000000000000000000000000000000000000000000081526004018080602001828103825260218152602001806143ca6021913960400191505060405180910390fd5b6000600460008873ffffffffffffffffffffffffffffffffffffffff1673ffffffffffffffffffffffffffffffffffffffff168152602001908152602001600020868154811061156957fe5b90600052602060002090600a0201905060006115858888611bf5565b905060006115af60016115a18885613cbc90919063ffffffff16565b613c7290919063ffffffff16565b9050600c81111561160b576040517f08c379a00000000000000000000000000000000000000000000000000000000081526004018080602001828103825260288152602001806143a26028913960400191505060405180910390fd5b60008360060160008481526020019081526020016000205414611679576040517f08c379a000000000000000000000000000000000000000000000000000000000815260040180806020018281038252602381526020018061435e6023913960400191505060405180910390fd5b600061168e8789613d4490919063ffffffff16565b9050836001015481101561170a576040517f08c379a000000000000000000000000000000000000000000000000000000000815260040180806020018281038252601f8152602001807f6465706f736974206e6f742063726f7373696e6720636f6d6d69746d656e740081525060200191505060405180910390fd5b600061171885836001613d8e565b905086156117cc57611784611736878b613cbc90919063ffffffff16565b600560003373ffffffffffffffffffffffffffffffffffffffff1673ffffffffffffffffffffffffffffffffffffffff16815260200190815260200160002054613c7290919063ffffffff16565b600560003373ffffffffffffffffffffffffffffffffffffffff1673ffffffffffffffffffffffffffffffffffffffff168152602001908152602001600020819055506118f8565b600260009054906101000a900473ffffffffffffffffffffffffffffffffffffffff1673ffffffffffffffffffffffffffffffffffffffff166323b872dd333061181f8a8e613cbc90919063ffffffff16565b6040518463ffffffff1660e01b8152600401808473ffffffffffffffffffffffffffffffffffffffff1673ffffffffffffffffffffffffffffffffffffffff1681526020018373ffffffffffffffffffffffffffffffffffffffff1673ffffffffffffffffffffffffffffffffffffffff1681526020018281526020019350505050602060405180830381600087803b1580156118bb57600080fd5b505af11580156118cf573d6000803e3d6000fd5b505050506040513d60208110156118e557600080fd5b8101908080519060200190929190505050505b61196b86600560008060009054906101000a900473ffffffffffffffffffffffffffffffffffffffff1673ffffffffffffffffffffffffffffffffffffffff1673ffffffffffffffffffffffffffffffffffffffff16815260200190815260200160002054613cbc90919063ffffffff16565b600560008060009054906101000a900473ffffffffffffffffffffffffffffffffffffffff1673ffffffffffffffffffffffffffffffffffffffff1673ffffffffffffffffffffffffffffffffffffffff16815260200190815260200160002081905550600260009054906101000a900473ffffffffffffffffffffffffffffffffffffffff1673ffffffffffffffffffffffffffffffffffffffff166323b872dd600160009054906101000a900473ffffffffffffffffffffffffffffffffffffffff1630611a448c86613ef590919063ffffffff16565b6040518463ffffffff1660e01b8152600401808473ffffffffffffffffffffffffffffffffffffffff1673ffffffffffffffffffffffffffffffffffffffff1681526020018373ffffffffffffffffffffffffffffffffffffffff1673ffffffffffffffffffffffffffffffffffffffff1681526020018281526020019350505050602060405180830381600087803b158015611ae057600080fd5b505af1158015611af4573d6000803e3d6000fd5b505050506040513d6020811015611b0a57600080fd5b81019080805190602001909291905050505060008490505b838111611be75782866006016000838152602001908152602001600020819055508a8c73ffffffffffffffffffffffffffffffffffffffff167fa0f7ad829c9cb80662be76da1eefcf008f173427db87f98a6d935f043f1a12e58386338d604051808581526020018481526020018373ffffffffffffffffffffffffffffffffffffffff1673ffffffffffffffffffffffffffffffffffffffff1681526020018215151515815260200194505050505060405180910390a38080600101915050611b22565b505050505050505050505050565b6000600162282070600460008673ffffffffffffffffffffffffffffffffffffffff1673ffffffffffffffffffffffffffffffffffffffff1681526020019081526020016000208481548110611c4757fe5b90600052602060002090600a020160020154600260009054906101000a900473ffffffffffffffffffffffffffffffffffffffff1673ffffffffffffffffffffffffffffffffffffffff1663b81f90f36040518163ffffffff1660e01b815260040160206040518083038186803b158015611cc157600080fd5b505afa158015611cd5573d6000803e3d6000fd5b505050506040513d6020811015611ceb57600080fd5b81019080805190602001909291905050500381611d0457fe5b0401905092915050565b600260009054906101000a900473ffffffffffffffffffffffffffffffffffffffff1673ffffffffffffffffffffffffffffffffffffffff166323b872dd3330846040518463ffffffff1660e01b8152600401808473ffffffffffffffffffffffffffffffffffffffff1673ffffffffffffffffffffffffffffffffffffffff1681526020018373ffffffffffffffffffffffffffffffffffffffff1673ffffffffffffffffffffffffffffffffffffffff1681526020018281526020019350505050602060405180830381600087803b158015611deb57600080fd5b505af1158015611dff573d6000803e3d6000fd5b505050506040513d6020811015611e1557600080fd5b810190808051906020019092919050505050611e7981600560003373ffffffffffffffffffffffffffffffffffffffff1673ffffffffffffffffffffffffffffffffffffffff16815260200190815260200160002054613cbc90919063ffffffff16565b600560003373ffffffffffffffffffffffffffffffffffffffff1673ffffffffffffffffffffffffffffffffffffffff1681526020019081526020016000208190555050565b60038281548110611ecc57fe5b906000526020600020906003020160000160009054906101000a900460ff16611f5d576040517f08c379a00000000000000000000000000000000000000000000000000000000081526004018080602001828103825260168152602001807f50455420706c616e206973206e6f74206163746976650000000000000000000081525060200191505060405180910390fd5b60038281548110611f6a57fe5b906000526020600020906003020160010154811015611ff1576040517f08c379a000000000000000000000000000000000000000000000000000000000815260040180806020018281038252601b8152602001807f6c6f77206d6f6e74686c79436f6d6d69746d656e74416d6f756e74000000000081525060200191505060405180910390fd5b600460003373ffffffffffffffffffffffffffffffffffffffff1673ffffffffffffffffffffffffffffffffffffffff1681526020019081526020016000206040518060c00160405280848152602001838152602001600260009054906101000a900473ffffffffffffffffffffffffffffffffffffffff1673ffffffffffffffffffffffffffffffffffffffff1663b81f90f36040518163ffffffff1660e01b815260040160206040518083038186803b1580156120af57600080fd5b505afa1580156120c3573d6000803e3d6000fd5b505050506040513d60208110156120d957600080fd5b810190808051906020019092919050505081526020016000815260200160008152602001600081525090806001815401808255809150506001900390600052602060002090600a0201600090919091909150600082015181600001556020820151816001015560408201518160020155606082015181600301556080820151816004015560a0820151816005015550503373ffffffffffffffffffffffffffffffffffffffff167f4459f0ae7ff9f1dfcb9443ff1a9268613580cdb8b1c0f59a4bd4384b94c99f046001600460003373ffffffffffffffffffffffffffffffffffffffff1673ffffffffffffffffffffffffffffffffffffffff168152602001908152602001600020805490500383604051808381526020018281526020019250505060405180910390a25050565b6000600460008573ffffffffffffffffffffffffffffffffffffffff1673ffffffffffffffffffffffffffffffffffffffff168152602001908152602001600020838154811061225457fe5b90600052602060002090600a020160080160008373ffffffffffffffffffffffffffffffffffffffff1673ffffffffffffffffffffffffffffffffffffffff16815260200190815260200160002060009054906101000a900460ff1690509392505050565b82826000600460008473ffffffffffffffffffffffffffffffffffffffff1673ffffffffffffffffffffffffffffffffffffffff168152602001908152602001600020828154811061230757fe5b90600052602060002090600a020190508273ffffffffffffffffffffffffffffffffffffffff163373ffffffffffffffffffffffffffffffffffffffff161461240c578060080160003373ffffffffffffffffffffffffffffffffffffffff1673ffffffffffffffffffffffffffffffffffffffff16815260200190815260200160002060009054906101000a900460ff1661240b576040517f08c379a000000000000000000000000000000000000000000000000000000000815260040180806020018281038252601a8152602001807f6e6f6d696e6174696f6e2073686f756c6420626520746865726500000000000081525060200191505060405180910390fd5b5b6000600460008873ffffffffffffffffffffffffffffffffffffffff1673ffffffffffffffffffffffffffffffffffffffff168152602001908152602001600020868154811061245857fe5b90600052602060002090600a020190506000816003015490508581106124e6576040517f08c379a000000000000000000000000000000000000000000000000000000000815260040180806020018281038252601a8152602001807f73746172742073686f756c64206265206265666f726520656e6400000000000081525060200191505060405180910390fd5b603c86111561255d576040517f08c379a000000000000000000000000000000000000000000000000000000000815260040180806020018281038252601a8152602001807f6f6e6c7920363020416e6e756974792077697468647261776c7300000000000081525060200191505060405180910390fd5b600061256a898989612c5a565b905080600260009054906101000a900473ffffffffffffffffffffffffffffffffffffffff1673ffffffffffffffffffffffffffffffffffffffff1663b81f90f36040518163ffffffff1660e01b815260040160206040518083038186803b1580156125d557600080fd5b505afa1580156125e9573d6000803e3d6000fd5b505050506040513d60208110156125ff57600080fd5b81019080805190602001909291905050501015612684576040517f08c379a00000000000000000000000000000000000000000000000000000000081526004018080602001828103825260158152602001807f63616e6e6f74207769746864726177206561726c79000000000000000000000081525060200191505060405180910390fd5b60006126958a8a600186018b612b2a565b905087846003018190555060008314156126b4576126b38a8a613f7b565b5b600081146127a257600260009054906101000a900473ffffffffffffffffffffffffffffffffffffffff1673ffffffffffffffffffffffffffffffffffffffff1663a9059cbb33836040518363ffffffff1660e01b8152600401808373ffffffffffffffffffffffffffffffffffffffff1673ffffffffffffffffffffffffffffffffffffffff16815260200182815260200192505050602060405180830381600087803b15801561276557600080fd5b505af1158015612779573d6000803e3d6000fd5b505050506040513d602081101561278f57600080fd5b8101908080519060200190929190505050505b888a73ffffffffffffffffffffffffffffffffffffffff167fd662ea67c34eb456a3277bea947873f932447f3f58faa13b41f4ca3defd32c3a600186018b8533604051808581526020018481526020018381526020018273ffffffffffffffffffffffffffffffffffffffff1673ffffffffffffffffffffffffffffffffffffffff16815260200194505050505060405180910390a350505050505050505050565b6004602052816000526040600020818154811061285d57fe5b90600052602060002090600a0201600091509150508060000154908060010154908060020154908060030154908060040154908060050154905086565b600160009054906101000a900473ffffffffffffffffffffffffffffffffffffffff1681565b600080600460008573ffffffffffffffffffffffffffffffffffffffff1673ffffffffffffffffffffffffffffffffffffffff168152602001908152602001600020838154811061290d57fe5b90600052602060002090600a02019050600080600190505b600c811161297757600061295284600601600084815260200190815260200160002054856001015461414c565b90506129678184613cbc90919063ffffffff16565b9250508080600101915050612925565b5061298c600c82613d4490919063ffffffff16565b9250505092915050565b6000809054906101000a900473ffffffffffffffffffffffffffffffffffffffff1673ffffffffffffffffffffffffffffffffffffffff163373ffffffffffffffffffffffffffffffffffffffff1614612a58576040517f08c379a00000000000000000000000000000000000000000000000000000000081526004018080602001828103825260168152602001807f6f6e6c79206465706c6f7965722063616e2063616c6c0000000000000000000081525060200191505060405180910390fd5b6003604051806060016040528060011515815260200184815260200183815250908060018154018082558091505060019003906000526020600020906003020160009091909190915060008201518160000160006101000a81548160ff021916908315150217905550602082015181600101556040820151816002015550507ff47d2a74cdeac9661be2d3138ed3f81d11abcff723e84a800a60b86eeaf90afe828260016003805490500360405180848152602001838152602001828152602001935050505060405180910390a15050565b600080600460008773ffffffffffffffffffffffffffffffffffffffff1673ffffffffffffffffffffffffffffffffffffffff1681526020019081526020016000208581548110612b7757fe5b90600052602060002090600a0201905060006003826000015481548110612b9a57fe5b906000526020600020906003020190506000808690505b858111612c21576000600c8281612bc457fe5b0690506000612bfb866006016000808514612bdf5784612be2565b600c5b815260200190815260200160002054876001015461414c565b9050612c108185613cbc90919063ffffffff16565b935050508080600101915050612bb1565b50612c4d6103e8612c3f846002015484613ef590919063ffffffff16565b613d4490919063ffffffff16565b9350505050949350505050565b600080600460008673ffffffffffffffffffffffffffffffffffffffff1673ffffffffffffffffffffffffffffffffffffffff1681526020019081526020016000208481548110612ca757fe5b90600052602060002090600a02019050600062282070600185600c01030282600201540190508573ffffffffffffffffffffffffffffffffffffffff163373ffffffffffffffffffffffffffffffffffffffff1614612d4057612d1860028360050154613d4490919063ffffffff16565b82600401541115612d33576006622820700281019050612d3f565b600c6228207002810190505b5b80925050509392505050565b60008090505b8251811015612ede57612dc0828281518110612d6a57fe5b6020026020010151600560003373ffffffffffffffffffffffffffffffffffffffff1673ffffffffffffffffffffffffffffffffffffffff16815260200190815260200160002054613c7290919063ffffffff16565b600560003373ffffffffffffffffffffffffffffffffffffffff1673ffffffffffffffffffffffffffffffffffffffff16815260200190815260200160002081905550612e7b828281518110612e1257fe5b602002602001015160056000868581518110612e2a57fe5b602002602001015173ffffffffffffffffffffffffffffffffffffffff1673ffffffffffffffffffffffffffffffffffffffff16815260200190815260200160002054613cbc90919063ffffffff16565b60056000858481518110612e8b57fe5b602002602001015173ffffffffffffffffffffffffffffffffffffffff1673ffffffffffffffffffffffffffffffffffffffff168152602001908152602001600020819055508080600101915050612d52565b505050565b6000809054906101000a900473ffffffffffffffffffffffffffffffffffffffff1673ffffffffffffffffffffffffffffffffffffffff163373ffffffffffffffffffffffffffffffffffffffff1614612fa5576040517f08c379a00000000000000000000000000000000000000000000000000000000081526004018080602001828103825260168152602001807f6f6e6c79206465706c6f7965722063616e2063616c6c0000000000000000000081525060200191505060405180910390fd5b8060038381548110612fb357fe5b906000526020600020906003020160000160006101000a81548160ff0219169083151502179055505050565b6000600460008573ffffffffffffffffffffffffffffffffffffffff1673ffffffffffffffffffffffffffffffffffffffff168152602001908152602001600020838154811061302b57fe5b90600052602060002090600a020160090160008373ffffffffffffffffffffffffffffffffffffffff1673ffffffffffffffffffffffffffffffffffffffff16815260200190815260200160002060009054906101000a900460ff1690509392505050565b6003818154811061309d57fe5b90600052602060002090600302016000915090508060000160009054906101000a900460ff16908060010154908060020154905083565b82826000600460008473ffffffffffffffffffffffffffffffffffffffff1673ffffffffffffffffffffffffffffffffffffffff168152602001908152602001600020828154811061312257fe5b90600052602060002090600a020190508273ffffffffffffffffffffffffffffffffffffffff163373ffffffffffffffffffffffffffffffffffffffff1614613227578060080160003373ffffffffffffffffffffffffffffffffffffffff1673ffffffffffffffffffffffffffffffffffffffff16815260200190815260200160002060009054906101000a900460ff16613226576040517f08c379a000000000000000000000000000000000000000000000000000000000815260040180806020018281038252601a8152602001807f6e6f6d696e6174696f6e2073686f756c6420626520746865726500000000000081525060200191505060405180910390fd5b5b6000600460008873ffffffffffffffffffffffffffffffffffffffff1673ffffffffffffffffffffffffffffffffffffffff168152602001908152602001600020868154811061327357fe5b90600052602060002090600a02019050846001111580156132955750600c8511155b613307576040517f08c379a00000000000000000000000000000000000000000000000000000000081526004018080602001828103825260158152602001807f69642073686f756c6420626520696e2072616e6765000000000000000000000081525060200191505060405180910390fd5b80600701600086815260200190815260200160002060009054906101000a900460ff161561339d576040517f08c379a00000000000000000000000000000000000000000000000000000000081526004018080602001828103825260198152602001807f626f6f7374657220616c72656164792077697468647261776e0000000000000081525060200191505060405180910390fd5b806001015481600601600087600d03815260200190815260200160002054101561342f576040517f08c379a00000000000000000000000000000000000000000000000000000000081526004018080602001828103825260138152602001807f746172676574206e6f742061636869657665640000000000000000000000000081525060200191505060405180910390fd5b60006134428888600160058a0201612c5a565b905080600260009054906101000a900473ffffffffffffffffffffffffffffffffffffffff1673ffffffffffffffffffffffffffffffffffffffff1663b81f90f36040518163ffffffff1660e01b815260040160206040518083038186803b1580156134ad57600080fd5b505afa1580156134c1573d6000803e3d6000fd5b505050506040513d60208110156134d757600080fd5b8101908080519060200190929190505050101561355c576040517f08c379a00000000000000000000000000000000000000000000000000000000081526004018080602001828103825260158152602001807f63616e6e6f74207769746864726177206561726c79000000000000000000000081525060200191505060405180910390fd5b600061356889896128c0565b9050600183600701600089815260200190815260200160002060006101000a81548160ff021916908315150217905550600081111561368757600260009054906101000a900473ffffffffffffffffffffffffffffffffffffffff1673ffffffffffffffffffffffffffffffffffffffff1663a9059cbb33836040518363ffffffff1660e01b8152600401808373ffffffffffffffffffffffffffffffffffffffff1673ffffffffffffffffffffffffffffffffffffffff16815260200182815260200192505050602060405180830381600087803b15801561364a57600080fd5b505af115801561365e573d6000803e3d6000fd5b505050506040513d602081101561367457600080fd5b8101908080519060200190929190505050505b878973ffffffffffffffffffffffffffffffffffffffff167fa1c568ef1602bc58c1e32ea2f1251b87874dce947f5d4f4df53677d06d5bf56d898433604051808481526020018381526020018273ffffffffffffffffffffffffffffffffffffffff1673ffffffffffffffffffffffffffffffffffffffff168152602001935050505060405180910390a3505050505050505050565b6000600460008473ffffffffffffffffffffffffffffffffffffffff1673ffffffffffffffffffffffffffffffffffffffff168152602001908152602001600020828154811061376957fe5b90600052602060002090600a020190508060090160003373ffffffffffffffffffffffffffffffffffffffff1673ffffffffffffffffffffffffffffffffffffffff16815260200190815260200160002060009054906101000a900460ff1661383a576040517f08c379a00000000000000000000000000000000000000000000000000000000081526004018080602001828103825260208152602001807f73686f756c64206265206170706f696e74656520746f206361737420766f746581525060200191505060405180910390fd5b60008160090160003373ffffffffffffffffffffffffffffffffffffffff1673ffffffffffffffffffffffffffffffffffffffff16815260200190815260200160002060006101000a81548160ff0219169083151502179055506138ac60018260040154613cbc90919063ffffffff16565b81600401819055503373ffffffffffffffffffffffffffffffffffffffff16828473ffffffffffffffffffffffffffffffffffffffff167f57e90b4a498a7310fab91955c915f3f15a0d1a94b296f824da9443d524ea2e1b60405160405180910390a4505050565b6000600460003373ffffffffffffffffffffffffffffffffffffffff1673ffffffffffffffffffffffffffffffffffffffff168152602001908152602001600020848154811061396057fe5b90600052602060002090600a020190508060090160008473ffffffffffffffffffffffffffffffffffffffff1673ffffffffffffffffffffffffffffffffffffffff16815260200190815260200160002060009054906101000a900460ff161580156139c95750815b15613a4d576139e660018260050154613cbc90919063ffffffff16565b816005018190555060018160090160008573ffffffffffffffffffffffffffffffffffffffff1673ffffffffffffffffffffffffffffffffffffffff16815260200190815260200160002060006101000a81548160ff021916908315150217905550613b27565b8060090160008473ffffffffffffffffffffffffffffffffffffffff1673ffffffffffffffffffffffffffffffffffffffff16815260200190815260200160002060009054906101000a900460ff168015613aa6575081155b15613b265760008160090160008573ffffffffffffffffffffffffffffffffffffffff1673ffffffffffffffffffffffffffffffffffffffff16815260200190815260200160002060006101000a81548160ff021916908315150217905550613b1d60018260050154613c7290919063ffffffff16565b81600501819055505b5b8273ffffffffffffffffffffffffffffffffffffffff16843373ffffffffffffffffffffffffffffffffffffffff167ff7a6207b27953eff117f9b7c03e363d41370a45e2b626d2aa32c6a0ac636578285604051808215151515815260200191505060405180910390a450505050565b6000809054906101000a900473ffffffffffffffffffffffffffffffffffffffff1681565b6000600460008573ffffffffffffffffffffffffffffffffffffffff1673ffffffffffffffffffffffffffffffffffffffff1681526020019081526020016000208381548110613c0857fe5b90600052602060002090600a020160060160008381526020019081526020016000205490509392505050565b60056020528060005260406000206000915090505481565b600260009054906101000a900473ffffffffffffffffffffffffffffffffffffffff1681565b6000613cb483836040518060400160405280601e81526020017f536166654d6174683a207375627472616374696f6e206f766572666c6f7700008152506141d7565b905092915050565b600080828401905083811015613d3a576040517f08c379a000000000000000000000000000000000000000000000000000000000815260040180806020018281038252601b8152602001807f536166654d6174683a206164646974696f6e206f766572666c6f77000000000081525060200191505060405180910390fd5b8091505092915050565b6000613d8683836040518060400160405280601a81526020017f536166654d6174683a206469766973696f6e206279207a65726f000000000000815250614297565b905092915050565b60008084600001549050600080851415613dbd5785600601600085815260200190815260200160002054613dbf565b845b9050600086600101549050600060038481548110613dd957fe5b90600052602060002090600302019050600082841115613e38576000613e088486613c7290919063ffffffff16565b9050613e30613e21600283613d4490919063ffffffff16565b85613cbc90919063ffffffff16565b915050613e57565b613e4c600284613d4490919063ffffffff16565b8410613e56578390505b5b6000613e63858561414c565b90506000829050613e7e600286613d4490919063ffffffff16565b86101580613e8c5750600c89145b15613ee457613ee1613ed26103e8613ec46005613eb6896002015488613ef590919063ffffffff16565b613ef590919063ffffffff16565b613d4490919063ffffffff16565b82613cbc90919063ffffffff16565b90505b809750505050505050509392505050565b600080831415613f085760009050613f75565b6000828402905082848281613f1957fe5b0414613f70576040517f08c379a00000000000000000000000000000000000000000000000000000000081526004018080602001828103825260218152602001806143816021913960400191505060405180910390fd5b809150505b92915050565b6000600460008473ffffffffffffffffffffffffffffffffffffffff1673ffffffffffffffffffffffffffffffffffffffff1681526020019081526020016000208281548110613fc757fe5b90600052602060002090600a02019050600080600190505b600c811161401e5782600101548360060160008381526020019081526020016000205410156140115781806001019250505b8080600101915050613fdf565b50600061402b85856128c0565b905060006140428383613ef590919063ffffffff16565b9050600260009054906101000a900473ffffffffffffffffffffffffffffffffffffffff1673ffffffffffffffffffffffffffffffffffffffff166342966c68826040518263ffffffff1660e01b815260040180828152602001915050600060405180830381600087803b1580156140b957600080fd5b505af11580156140cd573d6000803e3d6000fd5b505050507fd5d3899d9ec9513f6566105e58d4a87a89e47bce6bb44c2ade5df7cb3413ccf7868683604051808473ffffffffffffffffffffffffffffffffffffffff1673ffffffffffffffffffffffffffffffffffffffff168152602001838152602001828152602001935050505060405180910390a1505050505050565b6000808284111561419c57600061416c8486613c7290919063ffffffff16565b9050614194614185600283613d4490919063ffffffff16565b85613cbc90919063ffffffff16565b9150506141bb565b6141b0600284613d4490919063ffffffff16565b84106141ba578390505b5b6141ce8185613cbc90919063ffffffff16565b91505092915050565b6000838311158290614284576040517f08c379a00000000000000000000000000000000000000000000000000000000081526004018080602001828103825283818151815260200191508051906020019080838360005b8381101561424957808201518184015260208101905061422e565b50505050905090810190601f1680156142765780820380516001836020036101000a031916815260200191505b509250505060405180910390fd5b5060008385039050809150509392505050565b60008083118290614343576040517f08c379a00000000000000000000000000000000000000000000000000000000081526004018080602001828103825283818151815260200191508051906020019080838360005b838110156143085780820151818401526020810190506142ed565b50505050905090810190601f1680156143355780820380516001836020036101000a031916815260200191505b509250505060405180910390fd5b50600083858161434f57fe5b04905080915050939250505056fe616c6c6f776564206f6e6c7920696e206672657368206d6f6e7468206465706f736974536166654d6174683a206d756c7469706c69636174696f6e206f766572666c6f7763616e6e6f74206465706f73697420616674657220616363756d756c6174696f6e20706572696f646465706f73697420616d6f756e742073686f756c64206265206e6f6e207a65726fa264697066735822122059dd059ea8f67cf6a2ac18159e5ea1b67d635182763e761bc23c98037264225564736f6c63430006010033608060405234801561001057600080fd5b506040516108f13803806108f18339818101604052604081101561003357600080fd5b81019080805190602001909291908051906020019092919050505081600160006101000a81548173ffffffffffffffffffffffffffffffffffffffff021916908373ffffffffffffffffffffffffffffffffffffffff160217905550806000806101000a81548173ffffffffffffffffffffffffffffffffffffffff021916908373ffffffffffffffffffffffffffffffffffffffff16021790555033600260006101000a81548173ffffffffffffffffffffffffffffffffffffffff021916908373ffffffffffffffffffffffffffffffffffffffff16021790555050506107d0806101216000396000f3fe608060405234801561001057600080fd5b50600436106100575760003560e01c80633b4d8a7d1461005c5780639997e13714610096578063be999705146100e0578063d5f394881461010e578063fc0c546a14610158575b600080fd5b6100946004803603604081101561007257600080fd5b81019080803515159060200190929190803590602001909291905050506101a2565b005b61009e61049b565b604051808273ffffffffffffffffffffffffffffffffffffffff1673ffffffffffffffffffffffffffffffffffffffff16815260200191505060405180910390f35b61010c600480360360208110156100f657600080fd5b81019080803590602001909291905050506104c1565b005b61011661074f565b604051808273ffffffffffffffffffffffffffffffffffffffff1673ffffffffffffffffffffffffffffffffffffffff16815260200191505060405180910390f35b610160610774565b604051808273ffffffffffffffffffffffffffffffffffffffff1673ffffffffffffffffffffffffffffffffffffffff16815260200191505060405180910390f35b6000809054906101000a900473ffffffffffffffffffffffffffffffffffffffff1673ffffffffffffffffffffffffffffffffffffffff163373ffffffffffffffffffffffffffffffffffffffff1614610264576040517f08c379a00000000000000000000000000000000000000000000000000000000081526004018080602001828103825260168152602001807f6f6e6c79206465706c6f7965722063616e2063616c6c0000000000000000000081525060200191505060405180910390fd5b811561034757600160009054906101000a900473ffffffffffffffffffffffffffffffffffffffff1673ffffffffffffffffffffffffffffffffffffffff166370a08231306040518263ffffffff1660e01b8152600401808273ffffffffffffffffffffffffffffffffffffffff1673ffffffffffffffffffffffffffffffffffffffff16815260200191505060206040518083038186803b15801561030957600080fd5b505afa15801561031d573d6000803e3d6000fd5b505050506040513d602081101561033357600080fd5b810190808051906020019092919050505090505b600160009054906101000a900473ffffffffffffffffffffffffffffffffffffffff1673ffffffffffffffffffffffffffffffffffffffff1663a9059cbb33836040518363ffffffff1660e01b8152600401808373ffffffffffffffffffffffffffffffffffffffff1673ffffffffffffffffffffffffffffffffffffffff16815260200182815260200192505050602060405180830381600087803b1580156103f057600080fd5b505af1158015610404573d6000803e3d6000fd5b505050506040513d602081101561041a57600080fd5b8101908080519060200190929190505050507feaff4b37086828766ad3268786972c0cd24259d4c87a80f9d3963a3c3d999b0d3382604051808373ffffffffffffffffffffffffffffffffffffffff1673ffffffffffffffffffffffffffffffffffffffff1681526020018281526020019250505060405180910390a15050565b600260009054906101000a900473ffffffffffffffffffffffffffffffffffffffff1681565b600160009054906101000a900473ffffffffffffffffffffffffffffffffffffffff1673ffffffffffffffffffffffffffffffffffffffff166323b872dd3330846040518463ffffffff1660e01b8152600401808473ffffffffffffffffffffffffffffffffffffffff1673ffffffffffffffffffffffffffffffffffffffff1681526020018373ffffffffffffffffffffffffffffffffffffffff1673ffffffffffffffffffffffffffffffffffffffff1681526020018281526020019350505050602060405180830381600087803b15801561059e57600080fd5b505af11580156105b2573d6000803e3d6000fd5b505050506040513d60208110156105c857600080fd5b810190808051906020019092919050505050600160009054906101000a900473ffffffffffffffffffffffffffffffffffffffff1673ffffffffffffffffffffffffffffffffffffffff1663095ea7b3600260009054906101000a900473ffffffffffffffffffffffffffffffffffffffff16836040518363ffffffff1660e01b8152600401808373ffffffffffffffffffffffffffffffffffffffff1673ffffffffffffffffffffffffffffffffffffffff16815260200182815260200192505050602060405180830381600087803b1580156106a557600080fd5b505af11580156106b9573d6000803e3d6000fd5b505050506040513d60208110156106cf57600080fd5b8101908080519060200190929190505050507f543ba50a5eec5e6178218e364b1d0f396157b3c8fa278522c2cb7fd99407d4743382604051808373ffffffffffffffffffffffffffffffffffffffff1673ffffffffffffffffffffffffffffffffffffffff1681526020018281526020019250505060405180910390a150565b6000809054906101000a900473ffffffffffffffffffffffffffffffffffffffff1681565b600160009054906101000a900473ffffffffffffffffffffffffffffffffffffffff168156fea26469706673582212201de382d7855a35a950ef33e6db664b582d1668cce93c9166c9598e1f9c2e76d064736f6c63430006010033","opcodes":"PUSH1 0x80 PUSH1 0x40 MSTORE CALLVALUE DUP1 ISZERO PUSH3 0x11 JUMPI PUSH1 0x0 DUP1 REVERT JUMPDEST POP PUSH1 0x40 MLOAD PUSH3 0x4ED6 CODESIZE SUB DUP1 PUSH3 0x4ED6 DUP4 CODECOPY DUP2 DUP2 ADD PUSH1 0x40 MSTORE PUSH1 0x20 DUP2 LT ISZERO PUSH3 0x37 JUMPI PUSH1 0x0 DUP1 REVERT JUMPDEST DUP2 ADD SWAP1 DUP1 DUP1 MLOAD SWAP1 PUSH1 0x20 ADD SWAP1 SWAP3 SWAP2 SWAP1 POP POP POP CALLER PUSH1 0x0 DUP1 PUSH2 0x100 EXP DUP2 SLOAD DUP2 PUSH20 0xFFFFFFFFFFFFFFFFFFFFFFFFFFFFFFFFFFFFFFFF MUL NOT AND SWAP1 DUP4 PUSH20 0xFFFFFFFFFFFFFFFFFFFFFFFFFFFFFFFFFFFFFFFF AND MUL OR SWAP1 SSTORE POP DUP1 PUSH1 0x2 PUSH1 0x0 PUSH2 0x100 EXP DUP2 SLOAD DUP2 PUSH20 0xFFFFFFFFFFFFFFFFFFFFFFFFFFFFFFFFFFFFFFFF MUL NOT AND SWAP1 DUP4 PUSH20 0xFFFFFFFFFFFFFFFFFFFFFFFFFFFFFFFFFFFFFFFF AND MUL OR SWAP1 SSTORE POP DUP1 CALLER PUSH1 0x40 MLOAD PUSH3 0xD9 SWAP1 PUSH3 0x1A7 JUMP JUMPDEST DUP1 DUP4 PUSH20 0xFFFFFFFFFFFFFFFFFFFFFFFFFFFFFFFFFFFFFFFF AND PUSH20 0xFFFFFFFFFFFFFFFFFFFFFFFFFFFFFFFFFFFFFFFF AND DUP2 MSTORE PUSH1 0x20 ADD DUP3 PUSH20 0xFFFFFFFFFFFFFFFFFFFFFFFFFFFFFFFFFFFFFFFF AND PUSH20 0xFFFFFFFFFFFFFFFFFFFFFFFFFFFFFFFFFFFFFFFF AND DUP2 MSTORE PUSH1 0x20 ADD SWAP3 POP POP POP PUSH1 0x40 MLOAD DUP1 SWAP2 SUB SWAP1 PUSH1 0x0 CREATE DUP1 ISZERO DUP1 ISZERO PUSH3 0x15F JUMPI RETURNDATASIZE PUSH1 0x0 DUP1 RETURNDATACOPY RETURNDATASIZE PUSH1 0x0 REVERT JUMPDEST POP PUSH1 0x1 PUSH1 0x0 PUSH2 0x100 EXP DUP2 SLOAD DUP2 PUSH20 0xFFFFFFFFFFFFFFFFFFFFFFFFFFFFFFFFFFFFFFFF MUL NOT AND SWAP1 DUP4 PUSH20 0xFFFFFFFFFFFFFFFFFFFFFFFFFFFFFFFFFFFFFFFF AND MUL OR SWAP1 SSTORE POP POP PUSH3 0x1B5 JUMP JUMPDEST PUSH2 0x8F1 DUP1 PUSH3 0x45E5 DUP4 CODECOPY ADD SWAP1 JUMP JUMPDEST PUSH2 0x4420 DUP1 PUSH3 0x1C5 PUSH1 0x0 CODECOPY PUSH1 0x0 RETURN INVALID PUSH1 0x80 PUSH1 0x40 MSTORE CALLVALUE DUP1 ISZERO PUSH2 0x10 JUMPI PUSH1 0x0 DUP1 REVERT JUMPDEST POP PUSH1 0x4 CALLDATASIZE LT PUSH2 0x173 JUMPI PUSH1 0x0 CALLDATALOAD PUSH1 0xE0 SHR DUP1 PUSH4 0x47626531 GT PUSH2 0xDE JUMPI DUP1 PUSH4 0x9BAF14D4 GT PUSH2 0x97 JUMPI DUP1 PUSH4 0xD5F39488 GT PUSH2 0x71 JUMPI DUP1 PUSH4 0xD5F39488 EQ PUSH2 0x9F5 JUMPI DUP1 PUSH4 0xF713C79E EQ PUSH2 0xA3F JUMPI DUP1 PUSH4 0xFB0685DF EQ PUSH2 0xAAB JUMPI DUP1 PUSH4 0xFC0C546A EQ PUSH2 0xB03 JUMPI PUSH2 0x173 JUMP JUMPDEST DUP1 PUSH4 0x9BAF14D4 EQ PUSH2 0x8F5 JUMPI DUP1 PUSH4 0xA4003AD4 EQ PUSH2 0x94D JUMPI DUP1 PUSH4 0xBA50531A EQ PUSH2 0x99B JUMPI PUSH2 0x173 JUMP JUMPDEST DUP1 PUSH4 0x47626531 EQ PUSH2 0x5B3 JUMPI DUP1 PUSH4 0x4CD963CF EQ PUSH2 0x629 JUMPI DUP1 PUSH4 0x51A6349D EQ PUSH2 0x695 JUMPI DUP1 PUSH4 0x7838E408 EQ PUSH2 0x7E1 JUMPI DUP1 PUSH4 0x81423A26 EQ PUSH2 0x81B JUMPI DUP1 PUSH4 0x95A0373C EQ PUSH2 0x8A1 JUMPI PUSH2 0x173 JUMP JUMPDEST DUP1 PUSH4 0x2E9721B6 GT PUSH2 0x130 JUMPI DUP1 PUSH4 0x2E9721B6 EQ PUSH2 0x36C JUMPI DUP1 PUSH4 0x37482EF1 EQ PUSH2 0x3F2 JUMPI DUP1 PUSH4 0x3EE20A89 EQ PUSH2 0x44A JUMPI DUP1 PUSH4 0x3FD46068 EQ PUSH2 0x4CF JUMPI DUP1 PUSH4 0x452F1423 EQ PUSH2 0x519 JUMPI DUP1 PUSH4 0x45B37EC4 EQ PUSH2 0x57B JUMPI PUSH2 0x173 JUMP JUMPDEST DUP1 PUSH4 0xC254D63 EQ PUSH2 0x178 JUMPI DUP1 PUSH4 0xCE57B46 EQ PUSH2 0x1DC JUMPI DUP1 PUSH4 0x1615D204 EQ PUSH2 0x236 JUMPI DUP1 PUSH4 0x1FDAE4B8 EQ PUSH2 0x2A4 JUMPI DUP1 PUSH4 0x26F8BEA7 EQ PUSH2 0x306 JUMPI DUP1 PUSH4 0x29929713 EQ PUSH2 0x334 JUMPI JUMPDEST PUSH1 0x0 DUP1 REVERT JUMPDEST PUSH2 0x1DA PUSH1 0x4 DUP1 CALLDATASIZE SUB PUSH1 0x80 DUP2 LT ISZERO PUSH2 0x18E JUMPI PUSH1 0x0 DUP1 REVERT JUMPDEST DUP2 ADD SWAP1 DUP1 DUP1 CALLDATALOAD PUSH20 0xFFFFFFFFFFFFFFFFFFFFFFFFFFFFFFFFFFFFFFFF AND SWAP1 PUSH1 0x20 ADD SWAP1 SWAP3 SWAP2 SWAP1 DUP1 CALLDATALOAD SWAP1 PUSH1 0x20 ADD SWAP1 SWAP3 SWAP2 SWAP1 DUP1 CALLDATALOAD SWAP1 PUSH1 0x20 ADD SWAP1 SWAP3 SWAP2 SWAP1 DUP1 CALLDATALOAD ISZERO ISZERO SWAP1 PUSH1 0x20 ADD SWAP1 SWAP3 SWAP2 SWAP1 POP POP POP PUSH2 0xB4D JUMP JUMPDEST STOP JUMPDEST PUSH2 0x234 PUSH1 0x4 DUP1 CALLDATASIZE SUB PUSH1 0x60 DUP2 LT ISZERO PUSH2 0x1F2 JUMPI PUSH1 0x0 DUP1 REVERT JUMPDEST DUP2 ADD SWAP1 DUP1 DUP1 CALLDATALOAD SWAP1 PUSH1 0x20 ADD SWAP1 SWAP3 SWAP2 SWAP1 DUP1 CALLDATALOAD PUSH20 0xFFFFFFFFFFFFFFFFFFFFFFFFFFFFFFFFFFFFFFFF AND SWAP1 PUSH1 0x20 ADD SWAP1 SWAP3 SWAP2 SWAP1 DUP1 CALLDATALOAD ISZERO ISZERO SWAP1 PUSH1 0x20 ADD SWAP1 SWAP3 SWAP2 SWAP1 POP POP POP PUSH2 0x1287 JUMP JUMPDEST STOP JUMPDEST PUSH2 0x2A2 PUSH1 0x4 DUP1 CALLDATASIZE SUB PUSH1 0xA0 DUP2 LT ISZERO PUSH2 0x24C JUMPI PUSH1 0x0 DUP1 REVERT JUMPDEST DUP2 ADD SWAP1 DUP1 DUP1 CALLDATALOAD PUSH20 0xFFFFFFFFFFFFFFFFFFFFFFFFFFFFFFFFFFFFFFFF AND SWAP1 PUSH1 0x20 ADD SWAP1 SWAP3 SWAP2 SWAP1 DUP1 CALLDATALOAD SWAP1 PUSH1 0x20 ADD SWAP1 SWAP3 SWAP2 SWAP1 DUP1 CALLDATALOAD SWAP1 PUSH1 0x20 ADD SWAP1 SWAP3 SWAP2 SWAP1 DUP1 CALLDATALOAD SWAP1 PUSH1 0x20 ADD SWAP1 SWAP3 SWAP2 SWAP1 DUP1 CALLDATALOAD ISZERO ISZERO SWAP1 PUSH1 0x20 ADD SWAP1 SWAP3 SWAP2 SWAP1 POP POP POP PUSH2 0x13A6 JUMP JUMPDEST STOP JUMPDEST PUSH2 0x2F0 PUSH1 0x4 DUP1 CALLDATASIZE SUB PUSH1 0x40 DUP2 LT ISZERO PUSH2 0x2BA JUMPI PUSH1 0x0 DUP1 REVERT JUMPDEST DUP2 ADD SWAP1 DUP1 DUP1 CALLDATALOAD PUSH20 0xFFFFFFFFFFFFFFFFFFFFFFFFFFFFFFFFFFFFFFFF AND SWAP1 PUSH1 0x20 ADD SWAP1 SWAP3 SWAP2 SWAP1 DUP1 CALLDATALOAD SWAP1 PUSH1 0x20 ADD SWAP1 SWAP3 SWAP2 SWAP1 POP POP POP PUSH2 0x1BF5 JUMP JUMPDEST PUSH1 0x40 MLOAD DUP1 DUP3 DUP2 MSTORE PUSH1 0x20 ADD SWAP2 POP POP PUSH1 0x40 MLOAD DUP1 SWAP2 SUB SWAP1 RETURN JUMPDEST PUSH2 0x332 PUSH1 0x4 DUP1 CALLDATASIZE SUB PUSH1 0x20 DUP2 LT ISZERO PUSH2 0x31C JUMPI PUSH1 0x0 DUP1 REVERT JUMPDEST DUP2 ADD SWAP1 DUP1 DUP1 CALLDATALOAD SWAP1 PUSH1 0x20 ADD SWAP1 SWAP3 SWAP2 SWAP1 POP POP POP PUSH2 0x1D0E JUMP JUMPDEST STOP JUMPDEST PUSH2 0x36A PUSH1 0x4 DUP1 CALLDATASIZE SUB PUSH1 0x40 DUP2 LT ISZERO PUSH2 0x34A JUMPI PUSH1 0x0 DUP1 REVERT JUMPDEST DUP2 ADD SWAP1 DUP1 DUP1 CALLDATALOAD SWAP1 PUSH1 0x20 ADD SWAP1 SWAP3 SWAP2 SWAP1 DUP1 CALLDATALOAD SWAP1 PUSH1 0x20 ADD SWAP1 SWAP3 SWAP2 SWAP1 POP POP POP PUSH2 0x1EBF JUMP JUMPDEST STOP JUMPDEST PUSH2 0x3D8 PUSH1 0x4 DUP1 CALLDATASIZE SUB PUSH1 0x60 DUP2 LT ISZERO PUSH2 0x382 JUMPI PUSH1 0x0 DUP1 REVERT JUMPDEST DUP2 ADD SWAP1 DUP1 DUP1 CALLDATALOAD PUSH20 0xFFFFFFFFFFFFFFFFFFFFFFFFFFFFFFFFFFFFFFFF AND SWAP1 PUSH1 0x20 ADD SWAP1 SWAP3 SWAP2 SWAP1 DUP1 CALLDATALOAD SWAP1 PUSH1 0x20 ADD SWAP1 SWAP3 SWAP2 SWAP1 DUP1 CALLDATALOAD PUSH20 0xFFFFFFFFFFFFFFFFFFFFFFFFFFFFFFFFFFFFFFFF AND SWAP1 PUSH1 0x20 ADD SWAP1 SWAP3 SWAP2 SWAP1 POP POP POP PUSH2 0x2208 JUMP JUMPDEST PUSH1 0x40 MLOAD DUP1 DUP3 ISZERO ISZERO ISZERO ISZERO DUP2 MSTORE PUSH1 0x20 ADD SWAP2 POP POP PUSH1 0x40 MLOAD DUP1 SWAP2 SUB SWAP1 RETURN JUMPDEST PUSH2 0x448 PUSH1 0x4 DUP1 CALLDATASIZE SUB PUSH1 0x60 DUP2 LT ISZERO PUSH2 0x408 JUMPI PUSH1 0x0 DUP1 REVERT JUMPDEST DUP2 ADD SWAP1 DUP1 DUP1 CALLDATALOAD PUSH20 0xFFFFFFFFFFFFFFFFFFFFFFFFFFFFFFFFFFFFFFFF AND SWAP1 PUSH1 0x20 ADD SWAP1 SWAP3 SWAP2 SWAP1 DUP1 CALLDATALOAD SWAP1 PUSH1 0x20 ADD SWAP1 SWAP3 SWAP2 SWAP1 DUP1 CALLDATALOAD SWAP1 PUSH1 0x20 ADD SWAP1 SWAP3 SWAP2 SWAP1 POP POP POP PUSH2 0x22B9 JUMP JUMPDEST STOP JUMPDEST PUSH2 0x496 PUSH1 0x4 DUP1 CALLDATASIZE SUB PUSH1 0x40 DUP2 LT ISZERO PUSH2 0x460 JUMPI PUSH1 0x0 DUP1 REVERT JUMPDEST DUP2 ADD SWAP1 DUP1 DUP1 CALLDATALOAD PUSH20 0xFFFFFFFFFFFFFFFFFFFFFFFFFFFFFFFFFFFFFFFF AND SWAP1 PUSH1 0x20 ADD SWAP1 SWAP3 SWAP2 SWAP1 DUP1 CALLDATALOAD SWAP1 PUSH1 0x20 ADD SWAP1 SWAP3 SWAP2 SWAP1 POP POP POP PUSH2 0x2844 JUMP JUMPDEST PUSH1 0x40 MLOAD DUP1 DUP8 DUP2 MSTORE PUSH1 0x20 ADD DUP7 DUP2 MSTORE PUSH1 0x20 ADD DUP6 DUP2 MSTORE PUSH1 0x20 ADD DUP5 DUP2 MSTORE PUSH1 0x20 ADD DUP4 DUP2 MSTORE PUSH1 0x20 ADD DUP3 DUP2 MSTORE PUSH1 0x20 ADD SWAP7 POP POP POP POP POP POP POP PUSH1 0x40 MLOAD DUP1 SWAP2 SUB SWAP1 RETURN JUMPDEST PUSH2 0x4D7 PUSH2 0x289A JUMP JUMPDEST PUSH1 0x40 MLOAD DUP1 DUP3 PUSH20 0xFFFFFFFFFFFFFFFFFFFFFFFFFFFFFFFFFFFFFFFF AND PUSH20 0xFFFFFFFFFFFFFFFFFFFFFFFFFFFFFFFFFFFFFFFF AND DUP2 MSTORE PUSH1 0x20 ADD SWAP2 POP POP PUSH1 0x40 MLOAD DUP1 SWAP2 SUB SWAP1 RETURN JUMPDEST PUSH2 0x565 PUSH1 0x4 DUP1 CALLDATASIZE SUB PUSH1 0x40 DUP2 LT ISZERO PUSH2 0x52F JUMPI PUSH1 0x0 DUP1 REVERT JUMPDEST DUP2 ADD SWAP1 DUP1 DUP1 CALLDATALOAD PUSH20 0xFFFFFFFFFFFFFFFFFFFFFFFFFFFFFFFFFFFFFFFF AND SWAP1 PUSH1 0x20 ADD SWAP1 SWAP3 SWAP2 SWAP1 DUP1 CALLDATALOAD SWAP1 PUSH1 0x20 ADD SWAP1 SWAP3 SWAP2 SWAP1 POP POP POP PUSH2 0x28C0 JUMP JUMPDEST PUSH1 0x40 MLOAD DUP1 DUP3 DUP2 MSTORE PUSH1 0x20 ADD SWAP2 POP POP PUSH1 0x40 MLOAD DUP1 SWAP2 SUB SWAP1 RETURN JUMPDEST PUSH2 0x5B1 PUSH1 0x4 DUP1 CALLDATASIZE SUB PUSH1 0x40 DUP2 LT ISZERO PUSH2 0x591 JUMPI PUSH1 0x0 DUP1 REVERT JUMPDEST DUP2 ADD SWAP1 DUP1 DUP1 CALLDATALOAD SWAP1 PUSH1 0x20 ADD SWAP1 SWAP3 SWAP2 SWAP1 DUP1 CALLDATALOAD SWAP1 PUSH1 0x20 ADD SWAP1 SWAP3 SWAP2 SWAP1 POP POP POP PUSH2 0x2996 JUMP JUMPDEST STOP JUMPDEST PUSH2 0x613 PUSH1 0x4 DUP1 CALLDATASIZE SUB PUSH1 0x80 DUP2 LT ISZERO PUSH2 0x5C9 JUMPI PUSH1 0x0 DUP1 REVERT JUMPDEST DUP2 ADD SWAP1 DUP1 DUP1 CALLDATALOAD PUSH20 0xFFFFFFFFFFFFFFFFFFFFFFFFFFFFFFFFFFFFFFFF AND SWAP1 PUSH1 0x20 ADD SWAP1 SWAP3 SWAP2 SWAP1 DUP1 CALLDATALOAD SWAP1 PUSH1 0x20 ADD SWAP1 SWAP3 SWAP2 SWAP1 DUP1 CALLDATALOAD SWAP1 PUSH1 0x20 ADD SWAP1 SWAP3 SWAP2 SWAP1 DUP1 CALLDATALOAD SWAP1 PUSH1 0x20 ADD SWAP1 SWAP3 SWAP2 SWAP1 POP POP POP PUSH2 0x2B2A JUMP JUMPDEST PUSH1 0x40 MLOAD DUP1 DUP3 DUP2 MSTORE PUSH1 0x20 ADD SWAP2 POP POP PUSH1 0x40 MLOAD DUP1 SWAP2 SUB SWAP1 RETURN JUMPDEST PUSH2 0x67F PUSH1 0x4 DUP1 CALLDATASIZE SUB PUSH1 0x60 DUP2 LT ISZERO PUSH2 0x63F JUMPI PUSH1 0x0 DUP1 REVERT JUMPDEST DUP2 ADD SWAP1 DUP1 DUP1 CALLDATALOAD PUSH20 0xFFFFFFFFFFFFFFFFFFFFFFFFFFFFFFFFFFFFFFFF AND SWAP1 PUSH1 0x20 ADD SWAP1 SWAP3 SWAP2 SWAP1 DUP1 CALLDATALOAD SWAP1 PUSH1 0x20 ADD SWAP1 SWAP3 SWAP2 SWAP1 DUP1 CALLDATALOAD SWAP1 PUSH1 0x20 ADD SWAP1 SWAP3 SWAP2 SWAP1 POP POP POP PUSH2 0x2C5A JUMP JUMPDEST PUSH1 0x40 MLOAD DUP1 DUP3 DUP2 MSTORE PUSH1 0x20 ADD SWAP2 POP POP PUSH1 0x40 MLOAD DUP1 SWAP2 SUB SWAP1 RETURN JUMPDEST PUSH2 0x7DF PUSH1 0x4 DUP1 CALLDATASIZE SUB PUSH1 0x40 DUP2 LT ISZERO PUSH2 0x6AB JUMPI PUSH1 0x0 DUP1 REVERT JUMPDEST DUP2 ADD SWAP1 DUP1 DUP1 CALLDATALOAD SWAP1 PUSH1 0x20 ADD SWAP1 PUSH5 0x100000000 DUP2 GT ISZERO PUSH2 0x6C8 JUMPI PUSH1 0x0 DUP1 REVERT JUMPDEST DUP3 ADD DUP4 PUSH1 0x20 DUP3 ADD GT ISZERO PUSH2 0x6DA JUMPI PUSH1 0x0 DUP1 REVERT JUMPDEST DUP1 CALLDATALOAD SWAP1 PUSH1 0x20 ADD SWAP2 DUP5 PUSH1 0x20 DUP4 MUL DUP5 ADD GT PUSH5 0x100000000 DUP4 GT OR ISZERO PUSH2 0x6FC JUMPI PUSH1 0x0 DUP1 REVERT JUMPDEST SWAP2 SWAP1 DUP1 DUP1 PUSH1 0x20 MUL PUSH1 0x20 ADD PUSH1 0x40 MLOAD SWAP1 DUP2 ADD PUSH1 0x40 MSTORE DUP1 SWAP4 SWAP3 SWAP2 SWAP1 DUP2 DUP2 MSTORE PUSH1 0x20 ADD DUP4 DUP4 PUSH1 0x20 MUL DUP1 DUP3 DUP5 CALLDATACOPY PUSH1 0x0 DUP2 DUP5 ADD MSTORE PUSH1 0x1F NOT PUSH1 0x1F DUP3 ADD AND SWAP1 POP DUP1 DUP4 ADD SWAP3 POP POP POP POP POP POP POP SWAP2 SWAP3 SWAP2 SWAP3 SWAP1 DUP1 CALLDATALOAD SWAP1 PUSH1 0x20 ADD SWAP1 PUSH5 0x100000000 DUP2 GT ISZERO PUSH2 0x75C JUMPI PUSH1 0x0 DUP1 REVERT JUMPDEST DUP3 ADD DUP4 PUSH1 0x20 DUP3 ADD GT ISZERO PUSH2 0x76E JUMPI PUSH1 0x0 DUP1 REVERT JUMPDEST DUP1 CALLDATALOAD SWAP1 PUSH1 0x20 ADD SWAP2 DUP5 PUSH1 0x20 DUP4 MUL DUP5 ADD GT PUSH5 0x100000000 DUP4 GT OR ISZERO PUSH2 0x790 JUMPI PUSH1 0x0 DUP1 REVERT JUMPDEST SWAP2 SWAP1 DUP1 DUP1 PUSH1 0x20 MUL PUSH1 0x20 ADD PUSH1 0x40 MLOAD SWAP1 DUP2 ADD PUSH1 0x40 MSTORE DUP1 SWAP4 SWAP3 SWAP2 SWAP1 DUP2 DUP2 MSTORE PUSH1 0x20 ADD DUP4 DUP4 PUSH1 0x20 MUL DUP1 DUP3 DUP5 CALLDATACOPY PUSH1 0x0 DUP2 DUP5 ADD MSTORE PUSH1 0x1F NOT PUSH1 0x1F DUP3 ADD AND SWAP1 POP DUP1 DUP4 ADD SWAP3 POP POP POP POP POP POP POP SWAP2 SWAP3 SWAP2 SWAP3 SWAP1 POP POP POP PUSH2 0x2D4C JUMP JUMPDEST STOP JUMPDEST PUSH2 0x819 PUSH1 0x4 DUP1 CALLDATASIZE SUB PUSH1 0x40 DUP2 LT ISZERO PUSH2 0x7F7 JUMPI PUSH1 0x0 DUP1 REVERT JUMPDEST DUP2 ADD SWAP1 DUP1 DUP1 CALLDATALOAD SWAP1 PUSH1 0x20 ADD SWAP1 SWAP3 SWAP2 SWAP1 DUP1 CALLDATALOAD ISZERO ISZERO SWAP1 PUSH1 0x20 ADD SWAP1 SWAP3 SWAP2 SWAP1 POP POP POP PUSH2 0x2EE3 JUMP JUMPDEST STOP JUMPDEST PUSH2 0x887 PUSH1 0x4 DUP1 CALLDATASIZE SUB PUSH1 0x60 DUP2 LT ISZERO PUSH2 0x831 JUMPI PUSH1 0x0 DUP1 REVERT JUMPDEST DUP2 ADD SWAP1 DUP1 DUP1 CALLDATALOAD PUSH20 0xFFFFFFFFFFFFFFFFFFFFFFFFFFFFFFFFFFFFFFFF AND SWAP1 PUSH1 0x20 ADD SWAP1 SWAP3 SWAP2 SWAP1 DUP1 CALLDATALOAD SWAP1 PUSH1 0x20 ADD SWAP1 SWAP3 SWAP2 SWAP1 DUP1 CALLDATALOAD PUSH20 0xFFFFFFFFFFFFFFFFFFFFFFFFFFFFFFFFFFFFFFFF AND SWAP1 PUSH1 0x20 ADD SWAP1 SWAP3 SWAP2 SWAP1 POP POP POP PUSH2 0x2FDF JUMP JUMPDEST PUSH1 0x40 MLOAD DUP1 DUP3 ISZERO ISZERO ISZERO ISZERO DUP2 MSTORE PUSH1 0x20 ADD SWAP2 POP POP PUSH1 0x40 MLOAD DUP1 SWAP2 SUB SWAP1 RETURN JUMPDEST PUSH2 0x8CD PUSH1 0x4 DUP1 CALLDATASIZE SUB PUSH1 0x20 DUP2 LT ISZERO PUSH2 0x8B7 JUMPI PUSH1 0x0 DUP1 REVERT JUMPDEST DUP2 ADD SWAP1 DUP1 DUP1 CALLDATALOAD SWAP1 PUSH1 0x20 ADD SWAP1 SWAP3 SWAP2 SWAP1 POP POP POP PUSH2 0x3090 JUMP JUMPDEST PUSH1 0x40 MLOAD DUP1 DUP5 ISZERO ISZERO ISZERO ISZERO DUP2 MSTORE PUSH1 0x20 ADD DUP4 DUP2 MSTORE PUSH1 0x20 ADD DUP3 DUP2 MSTORE PUSH1 0x20 ADD SWAP4 POP POP POP POP PUSH1 0x40 MLOAD DUP1 SWAP2 SUB SWAP1 RETURN JUMPDEST PUSH2 0x94B PUSH1 0x4 DUP1 CALLDATASIZE SUB PUSH1 0x60 DUP2 LT ISZERO PUSH2 0x90B JUMPI PUSH1 0x0 DUP1 REVERT JUMPDEST DUP2 ADD SWAP1 DUP1 DUP1 CALLDATALOAD PUSH20 0xFFFFFFFFFFFFFFFFFFFFFFFFFFFFFFFFFFFFFFFF AND SWAP1 PUSH1 0x20 ADD SWAP1 SWAP3 SWAP2 SWAP1 DUP1 CALLDATALOAD SWAP1 PUSH1 0x20 ADD SWAP1 SWAP3 SWAP2 SWAP1 DUP1 CALLDATALOAD SWAP1 PUSH1 0x20 ADD SWAP1 SWAP3 SWAP2 SWAP1 POP POP POP PUSH2 0x30D4 JUMP JUMPDEST STOP JUMPDEST PUSH2 0x999 PUSH1 0x4 DUP1 CALLDATASIZE SUB PUSH1 0x40 DUP2 LT ISZERO PUSH2 0x963 JUMPI PUSH1 0x0 DUP1 REVERT JUMPDEST DUP2 ADD SWAP1 DUP1 DUP1 CALLDATALOAD PUSH20 0xFFFFFFFFFFFFFFFFFFFFFFFFFFFFFFFFFFFFFFFF AND SWAP1 PUSH1 0x20 ADD SWAP1 SWAP3 SWAP2 SWAP1 DUP1 CALLDATALOAD SWAP1 PUSH1 0x20 ADD SWAP1 SWAP3 SWAP2 SWAP1 POP POP POP PUSH2 0x371D JUMP JUMPDEST STOP JUMPDEST PUSH2 0x9F3 PUSH1 0x4 DUP1 CALLDATASIZE SUB PUSH1 0x60 DUP2 LT ISZERO PUSH2 0x9B1 JUMPI PUSH1 0x0 DUP1 REVERT JUMPDEST DUP2 ADD SWAP1 DUP1 DUP1 CALLDATALOAD SWAP1 PUSH1 0x20 ADD SWAP1 SWAP3 SWAP2 SWAP1 DUP1 CALLDATALOAD PUSH20 0xFFFFFFFFFFFFFFFFFFFFFFFFFFFFFFFFFFFFFFFF AND SWAP1 PUSH1 0x20 ADD SWAP1 SWAP3 SWAP2 SWAP1 DUP1 CALLDATALOAD ISZERO ISZERO SWAP1 PUSH1 0x20 ADD SWAP1 SWAP3 SWAP2 SWAP1 POP POP POP PUSH2 0x3914 JUMP JUMPDEST STOP JUMPDEST PUSH2 0x9FD PUSH2 0x3B97 JUMP JUMPDEST PUSH1 0x40 MLOAD DUP1 DUP3 PUSH20 0xFFFFFFFFFFFFFFFFFFFFFFFFFFFFFFFFFFFFFFFF AND PUSH20 0xFFFFFFFFFFFFFFFFFFFFFFFFFFFFFFFFFFFFFFFF AND DUP2 MSTORE PUSH1 0x20 ADD SWAP2 POP POP PUSH1 0x40 MLOAD DUP1 SWAP2 SUB SWAP1 RETURN JUMPDEST PUSH2 0xA95 PUSH1 0x4 DUP1 CALLDATASIZE SUB PUSH1 0x60 DUP2 LT ISZERO PUSH2 0xA55 JUMPI PUSH1 0x0 DUP1 REVERT JUMPDEST DUP2 ADD SWAP1 DUP1 DUP1 CALLDATALOAD PUSH20 0xFFFFFFFFFFFFFFFFFFFFFFFFFFFFFFFFFFFFFFFF AND SWAP1 PUSH1 0x20 ADD SWAP1 SWAP3 SWAP2 SWAP1 DUP1 CALLDATALOAD SWAP1 PUSH1 0x20 ADD SWAP1 SWAP3 SWAP2 SWAP1 DUP1 CALLDATALOAD SWAP1 PUSH1 0x20 ADD SWAP1 SWAP3 SWAP2 SWAP1 POP POP POP PUSH2 0x3BBC JUMP JUMPDEST PUSH1 0x40 MLOAD DUP1 DUP3 DUP2 MSTORE PUSH1 0x20 ADD SWAP2 POP POP PUSH1 0x40 MLOAD DUP1 SWAP2 SUB SWAP1 RETURN JUMPDEST PUSH2 0xAED PUSH1 0x4 DUP1 CALLDATASIZE SUB PUSH1 0x20 DUP2 LT ISZERO PUSH2 0xAC1 JUMPI PUSH1 0x0 DUP1 REVERT JUMPDEST DUP2 ADD SWAP1 DUP1 DUP1 CALLDATALOAD PUSH20 0xFFFFFFFFFFFFFFFFFFFFFFFFFFFFFFFFFFFFFFFF AND SWAP1 PUSH1 0x20 ADD SWAP1 SWAP3 SWAP2 SWAP1 POP POP POP PUSH2 0x3C34 JUMP JUMPDEST PUSH1 0x40 MLOAD DUP1 DUP3 DUP2 MSTORE PUSH1 0x20 ADD SWAP2 POP POP PUSH1 0x40 MLOAD DUP1 SWAP2 SUB SWAP1 RETURN JUMPDEST PUSH2 0xB0B PUSH2 0x3C4C JUMP JUMPDEST PUSH1 0x40 MLOAD DUP1 DUP3 PUSH20 0xFFFFFFFFFFFFFFFFFFFFFFFFFFFFFFFFFFFFFFFF AND PUSH20 0xFFFFFFFFFFFFFFFFFFFFFFFFFFFFFFFFFFFFFFFF AND DUP2 MSTORE PUSH1 0x20 ADD SWAP2 POP POP PUSH1 0x40 MLOAD DUP1 SWAP2 SUB SWAP1 RETURN JUMPDEST DUP4 DUP4 PUSH1 0x0 PUSH1 0x4 PUSH1 0x0 DUP5 PUSH20 0xFFFFFFFFFFFFFFFFFFFFFFFFFFFFFFFFFFFFFFFF AND PUSH20 0xFFFFFFFFFFFFFFFFFFFFFFFFFFFFFFFFFFFFFFFF AND DUP2 MSTORE PUSH1 0x20 ADD SWAP1 DUP2 MSTORE PUSH1 0x20 ADD PUSH1 0x0 KECCAK256 DUP3 DUP2 SLOAD DUP2 LT PUSH2 0xB9B JUMPI INVALID JUMPDEST SWAP1 PUSH1 0x0 MSTORE PUSH1 0x20 PUSH1 0x0 KECCAK256 SWAP1 PUSH1 0xA MUL ADD SWAP1 POP DUP3 PUSH20 0xFFFFFFFFFFFFFFFFFFFFFFFFFFFFFFFFFFFFFFFF AND CALLER PUSH20 0xFFFFFFFFFFFFFFFFFFFFFFFFFFFFFFFFFFFFFFFF AND EQ PUSH2 0xCA0 JUMPI DUP1 PUSH1 0x8 ADD PUSH1 0x0 CALLER PUSH20 0xFFFFFFFFFFFFFFFFFFFFFFFFFFFFFFFFFFFFFFFF AND PUSH20 0xFFFFFFFFFFFFFFFFFFFFFFFFFFFFFFFFFFFFFFFF AND DUP2 MSTORE PUSH1 0x20 ADD SWAP1 DUP2 MSTORE PUSH1 0x20 ADD PUSH1 0x0 KECCAK256 PUSH1 0x0 SWAP1 SLOAD SWAP1 PUSH2 0x100 EXP SWAP1 DIV PUSH1 0xFF AND PUSH2 0xC9F JUMPI PUSH1 0x40 MLOAD PUSH32 0x8C379A000000000000000000000000000000000000000000000000000000000 DUP2 MSTORE PUSH1 0x4 ADD DUP1 DUP1 PUSH1 0x20 ADD DUP3 DUP2 SUB DUP3 MSTORE PUSH1 0x1A DUP2 MSTORE PUSH1 0x20 ADD DUP1 PUSH32 0x6E6F6D696E6174696F6E2073686F756C64206265207468657265000000000000 DUP2 MSTORE POP PUSH1 0x20 ADD SWAP2 POP POP PUSH1 0x40 MLOAD DUP1 SWAP2 SUB SWAP1 REVERT JUMPDEST JUMPDEST PUSH1 0x0 DUP6 GT PUSH2 0xCF9 JUMPI PUSH1 0x40 MLOAD PUSH32 0x8C379A000000000000000000000000000000000000000000000000000000000 DUP2 MSTORE PUSH1 0x4 ADD DUP1 DUP1 PUSH1 0x20 ADD DUP3 DUP2 SUB DUP3 MSTORE PUSH1 0x21 DUP2 MSTORE PUSH1 0x20 ADD DUP1 PUSH2 0x43CA PUSH1 0x21 SWAP2 CODECOPY PUSH1 0x40 ADD SWAP2 POP POP PUSH1 0x40 MLOAD DUP1 SWAP2 SUB SWAP1 REVERT JUMPDEST PUSH1 0x0 PUSH1 0x4 PUSH1 0x0 DUP10 PUSH20 0xFFFFFFFFFFFFFFFFFFFFFFFFFFFFFFFFFFFFFFFF AND PUSH20 0xFFFFFFFFFFFFFFFFFFFFFFFFFFFFFFFFFFFFFFFF AND DUP2 MSTORE PUSH1 0x20 ADD SWAP1 DUP2 MSTORE PUSH1 0x20 ADD PUSH1 0x0 KECCAK256 DUP8 DUP2 SLOAD DUP2 LT PUSH2 0xD45 JUMPI INVALID JUMPDEST SWAP1 PUSH1 0x0 MSTORE PUSH1 0x20 PUSH1 0x0 KECCAK256 SWAP1 PUSH1 0xA MUL ADD SWAP1 POP PUSH1 0x0 PUSH2 0xD61 DUP10 DUP10 PUSH2 0x1BF5 JUMP JUMPDEST SWAP1 POP PUSH1 0xC DUP2 GT ISZERO PUSH2 0xDBD JUMPI PUSH1 0x40 MLOAD PUSH32 0x8C379A000000000000000000000000000000000000000000000000000000000 DUP2 MSTORE PUSH1 0x4 ADD DUP1 DUP1 PUSH1 0x20 ADD DUP3 DUP2 SUB DUP3 MSTORE PUSH1 0x28 DUP2 MSTORE PUSH1 0x20 ADD DUP1 PUSH2 0x43A2 PUSH1 0x28 SWAP2 CODECOPY PUSH1 0x40 ADD SWAP2 POP POP PUSH1 0x40 MLOAD DUP1 SWAP2 SUB SWAP1 REVERT JUMPDEST DUP6 ISZERO PUSH2 0xE5D JUMPI PUSH2 0xE15 DUP8 PUSH1 0x5 PUSH1 0x0 CALLER PUSH20 0xFFFFFFFFFFFFFFFFFFFFFFFFFFFFFFFFFFFFFFFF AND PUSH20 0xFFFFFFFFFFFFFFFFFFFFFFFFFFFFFFFFFFFFFFFF AND DUP2 MSTORE PUSH1 0x20 ADD SWAP1 DUP2 MSTORE PUSH1 0x20 ADD PUSH1 0x0 KECCAK256 SLOAD PUSH2 0x3C72 SWAP1 SWAP2 SWAP1 PUSH4 0xFFFFFFFF AND JUMP JUMPDEST PUSH1 0x5 PUSH1 0x0 CALLER PUSH20 0xFFFFFFFFFFFFFFFFFFFFFFFFFFFFFFFFFFFFFFFF AND PUSH20 0xFFFFFFFFFFFFFFFFFFFFFFFFFFFFFFFFFFFFFFFF AND DUP2 MSTORE PUSH1 0x20 ADD SWAP1 DUP2 MSTORE PUSH1 0x20 ADD PUSH1 0x0 KECCAK256 DUP2 SWAP1 SSTORE POP PUSH2 0xF77 JUMP JUMPDEST PUSH1 0x2 PUSH1 0x0 SWAP1 SLOAD SWAP1 PUSH2 0x100 EXP SWAP1 DIV PUSH20 0xFFFFFFFFFFFFFFFFFFFFFFFFFFFFFFFFFFFFFFFF AND PUSH20 0xFFFFFFFFFFFFFFFFFFFFFFFFFFFFFFFFFFFFFFFF AND PUSH4 0x23B872DD CALLER ADDRESS DUP11 PUSH1 0x40 MLOAD DUP5 PUSH4 0xFFFFFFFF AND PUSH1 0xE0 SHL DUP2 MSTORE PUSH1 0x4 ADD DUP1 DUP5 PUSH20 0xFFFFFFFFFFFFFFFFFFFFFFFFFFFFFFFFFFFFFFFF AND PUSH20 0xFFFFFFFFFFFFFFFFFFFFFFFFFFFFFFFFFFFFFFFF AND DUP2 MSTORE PUSH1 0x20 ADD DUP4 PUSH20 0xFFFFFFFFFFFFFFFFFFFFFFFFFFFFFFFFFFFFFFFF AND PUSH20 0xFFFFFFFFFFFFFFFFFFFFFFFFFFFFFFFFFFFFFFFF AND DUP2 MSTORE PUSH1 0x20 ADD DUP3 DUP2 MSTORE PUSH1 0x20 ADD SWAP4 POP POP POP POP PUSH1 0x20 PUSH1 0x40 MLOAD DUP1 DUP4 SUB DUP2 PUSH1 0x0 DUP8 DUP1 EXTCODESIZE ISZERO DUP1 ISZERO PUSH2 0xF3A JUMPI PUSH1 0x0 DUP1 REVERT JUMPDEST POP GAS CALL ISZERO DUP1 ISZERO PUSH2 0xF4E JUMPI RETURNDATASIZE PUSH1 0x0 DUP1 RETURNDATACOPY RETURNDATASIZE PUSH1 0x0 REVERT JUMPDEST POP POP POP POP PUSH1 0x40 MLOAD RETURNDATASIZE PUSH1 0x20 DUP2 LT ISZERO PUSH2 0xF64 JUMPI PUSH1 0x0 DUP1 REVERT JUMPDEST DUP2 ADD SWAP1 DUP1 DUP1 MLOAD SWAP1 PUSH1 0x20 ADD SWAP1 SWAP3 SWAP2 SWAP1 POP POP POP POP JUMPDEST PUSH1 0x0 PUSH2 0xFA1 DUP9 DUP5 PUSH1 0x6 ADD PUSH1 0x0 DUP6 DUP2 MSTORE PUSH1 0x20 ADD SWAP1 DUP2 MSTORE PUSH1 0x20 ADD PUSH1 0x0 KECCAK256 SLOAD PUSH2 0x3CBC SWAP1 SWAP2 SWAP1 PUSH4 0xFFFFFFFF AND JUMP JUMPDEST SWAP1 POP PUSH1 0x0 PUSH1 0x1 DUP4 SUB SWAP1 POP JUMPDEST PUSH1 0x0 DUP2 GT ISZERO PUSH2 0x105B JUMPI DUP4 PUSH1 0x6 ADD PUSH1 0x0 DUP3 DUP2 MSTORE PUSH1 0x20 ADD SWAP1 DUP2 MSTORE PUSH1 0x20 ADD PUSH1 0x0 KECCAK256 SLOAD PUSH1 0x0 LT DUP1 ISZERO PUSH2 0x1005 JUMPI POP PUSH2 0xFED PUSH1 0x2 DUP6 PUSH1 0x1 ADD SLOAD PUSH2 0x3D44 SWAP1 SWAP2 SWAP1 PUSH4 0xFFFFFFFF AND JUMP JUMPDEST DUP5 PUSH1 0x6 ADD PUSH1 0x0 DUP4 DUP2 MSTORE PUSH1 0x20 ADD SWAP1 DUP2 MSTORE PUSH1 0x20 ADD PUSH1 0x0 KECCAK256 SLOAD LT JUMPDEST ISZERO PUSH2 0x1050 JUMPI PUSH2 0x1032 DUP5 PUSH1 0x6 ADD PUSH1 0x0 DUP4 DUP2 MSTORE PUSH1 0x20 ADD SWAP1 DUP2 MSTORE PUSH1 0x20 ADD PUSH1 0x0 KECCAK256 SLOAD DUP4 PUSH2 0x3CBC SWAP1 SWAP2 SWAP1 PUSH4 0xFFFFFFFF AND JUMP JUMPDEST SWAP2 POP PUSH1 0x0 DUP5 PUSH1 0x6 ADD PUSH1 0x0 DUP4 DUP2 MSTORE PUSH1 0x20 ADD SWAP1 DUP2 MSTORE PUSH1 0x20 ADD PUSH1 0x0 KECCAK256 DUP2 SWAP1 SSTORE POP JUMPDEST PUSH1 0x1 DUP2 SUB SWAP1 POP PUSH2 0xFAC JUMP JUMPDEST PUSH1 0x0 PUSH2 0x1069 DUP6 PUSH1 0x0 DUP7 PUSH2 0x3D8E JUMP JUMPDEST SWAP1 POP PUSH1 0x0 PUSH2 0x108A DUP3 PUSH2 0x107C DUP9 DUP8 DUP10 PUSH2 0x3D8E JUMP JUMPDEST PUSH2 0x3C72 SWAP1 SWAP2 SWAP1 PUSH4 0xFFFFFFFF AND JUMP JUMPDEST SWAP1 POP PUSH1 0x2 PUSH1 0x0 SWAP1 SLOAD SWAP1 PUSH2 0x100 EXP SWAP1 DIV PUSH20 0xFFFFFFFFFFFFFFFFFFFFFFFFFFFFFFFFFFFFFFFF AND PUSH20 0xFFFFFFFFFFFFFFFFFFFFFFFFFFFFFFFFFFFFFFFF AND PUSH4 0x23B872DD PUSH1 0x1 PUSH1 0x0 SWAP1 SLOAD SWAP1 PUSH2 0x100 EXP SWAP1 DIV PUSH20 0xFFFFFFFFFFFFFFFFFFFFFFFFFFFFFFFFFFFFFFFF AND ADDRESS DUP5 PUSH1 0x40 MLOAD DUP5 PUSH4 0xFFFFFFFF AND PUSH1 0xE0 SHL DUP2 MSTORE PUSH1 0x4 ADD DUP1 DUP5 PUSH20 0xFFFFFFFFFFFFFFFFFFFFFFFFFFFFFFFFFFFFFFFF AND PUSH20 0xFFFFFFFFFFFFFFFFFFFFFFFFFFFFFFFFFFFFFFFF AND DUP2 MSTORE PUSH1 0x20 ADD DUP4 PUSH20 0xFFFFFFFFFFFFFFFFFFFFFFFFFFFFFFFFFFFFFFFF AND PUSH20 0xFFFFFFFFFFFFFFFFFFFFFFFFFFFFFFFFFFFFFFFF AND DUP2 MSTORE PUSH1 0x20 ADD DUP3 DUP2 MSTORE PUSH1 0x20 ADD SWAP4 POP POP POP POP PUSH1 0x20 PUSH1 0x40 MLOAD DUP1 DUP4 SUB DUP2 PUSH1 0x0 DUP8 DUP1 EXTCODESIZE ISZERO DUP1 ISZERO PUSH2 0x118B JUMPI PUSH1 0x0 DUP1 REVERT JUMPDEST POP GAS CALL ISZERO DUP1 ISZERO PUSH2 0x119F JUMPI RETURNDATASIZE PUSH1 0x0 DUP1 RETURNDATACOPY RETURNDATASIZE PUSH1 0x0 REVERT JUMPDEST POP POP POP POP PUSH1 0x40 MLOAD RETURNDATASIZE PUSH1 0x20 DUP2 LT ISZERO PUSH2 0x11B5 JUMPI PUSH1 0x0 DUP1 REVERT JUMPDEST DUP2 ADD SWAP1 DUP1 DUP1 MLOAD SWAP1 PUSH1 0x20 ADD SWAP1 SWAP3 SWAP2 SWAP1 POP POP POP POP DUP4 DUP7 PUSH1 0x6 ADD PUSH1 0x0 DUP8 DUP2 MSTORE PUSH1 0x20 ADD SWAP1 DUP2 MSTORE PUSH1 0x20 ADD PUSH1 0x0 KECCAK256 DUP2 SWAP1 SSTORE POP DUP12 DUP14 PUSH20 0xFFFFFFFFFFFFFFFFFFFFFFFFFFFFFFFFFFFFFFFF AND PUSH32 0xA0F7AD829C9CB80662BE76DA1EEFCF008F173427DB87F98A6D935F043F1A12E5 DUP8 DUP15 CALLER DUP16 PUSH1 0x40 MLOAD DUP1 DUP6 DUP2 MSTORE PUSH1 0x20 ADD DUP5 DUP2 MSTORE PUSH1 0x20 ADD DUP4 PUSH20 0xFFFFFFFFFFFFFFFFFFFFFFFFFFFFFFFFFFFFFFFF AND PUSH20 0xFFFFFFFFFFFFFFFFFFFFFFFFFFFFFFFFFFFFFFFF AND DUP2 MSTORE PUSH1 0x20 ADD DUP3 ISZERO ISZERO ISZERO ISZERO DUP2 MSTORE PUSH1 0x20 ADD SWAP5 POP POP POP POP POP PUSH1 0x40 MLOAD DUP1 SWAP2 SUB SWAP1 LOG3 POP POP POP POP POP POP POP POP POP POP POP POP POP JUMP JUMPDEST DUP1 PUSH1 0x4 PUSH1 0x0 CALLER PUSH20 0xFFFFFFFFFFFFFFFFFFFFFFFFFFFFFFFFFFFFFFFF AND PUSH20 0xFFFFFFFFFFFFFFFFFFFFFFFFFFFFFFFFFFFFFFFF AND DUP2 MSTORE PUSH1 0x20 ADD SWAP1 DUP2 MSTORE PUSH1 0x20 ADD PUSH1 0x0 KECCAK256 DUP5 DUP2 SLOAD DUP2 LT PUSH2 0x12D2 JUMPI INVALID JUMPDEST SWAP1 PUSH1 0x0 MSTORE PUSH1 0x20 PUSH1 0x0 KECCAK256 SWAP1 PUSH1 0xA MUL ADD PUSH1 0x8 ADD PUSH1 0x0 DUP5 PUSH20 0xFFFFFFFFFFFFFFFFFFFFFFFFFFFFFFFFFFFFFFFF AND PUSH20 0xFFFFFFFFFFFFFFFFFFFFFFFFFFFFFFFFFFFFFFFF AND DUP2 MSTORE PUSH1 0x20 ADD SWAP1 DUP2 MSTORE PUSH1 0x20 ADD PUSH1 0x0 KECCAK256 PUSH1 0x0 PUSH2 0x100 EXP DUP2 SLOAD DUP2 PUSH1 0xFF MUL NOT AND SWAP1 DUP4 ISZERO ISZERO MUL OR SWAP1 SSTORE POP DUP2 PUSH20 0xFFFFFFFFFFFFFFFFFFFFFFFFFFFFFFFFFFFFFFFF AND DUP4 CALLER PUSH20 0xFFFFFFFFFFFFFFFFFFFFFFFFFFFFFFFFFFFFFFFF AND PUSH32 0x90E4568F920D8BB093366A04150AA0D04957A471196F5E1CDFB0DB3CB83CC5B0 DUP5 PUSH1 0x40 MLOAD DUP1 DUP3 ISZERO ISZERO ISZERO ISZERO DUP2 MSTORE PUSH1 0x20 ADD SWAP2 POP POP PUSH1 0x40 MLOAD DUP1 SWAP2 SUB SWAP1 LOG4 POP POP POP JUMP JUMPDEST PUSH1 0x0 PUSH1 0x3 DUP4 EQ ISZERO PUSH2 0x13DF JUMPI PUSH2 0x13D8 PUSH1 0x64 PUSH2 0x13CA PUSH1 0x1 DUP8 PUSH2 0x3EF5 SWAP1 SWAP2 SWAP1 PUSH4 0xFFFFFFFF AND JUMP JUMPDEST PUSH2 0x3D44 SWAP1 SWAP2 SWAP1 PUSH4 0xFFFFFFFF AND JUMP JUMPDEST SWAP1 POP PUSH2 0x14C4 JUMP JUMPDEST PUSH1 0x6 DUP4 EQ ISZERO PUSH2 0x1416 JUMPI PUSH2 0x140F PUSH1 0x64 PUSH2 0x1401 PUSH1 0x2 DUP8 PUSH2 0x3EF5 SWAP1 SWAP2 SWAP1 PUSH4 0xFFFFFFFF AND JUMP JUMPDEST PUSH2 0x3D44 SWAP1 SWAP2 SWAP1 PUSH4 0xFFFFFFFF AND JUMP JUMPDEST SWAP1 POP PUSH2 0x14C3 JUMP JUMPDEST PUSH1 0xC DUP4 EQ ISZERO PUSH2 0x144D JUMPI PUSH2 0x1446 PUSH1 0x64 PUSH2 0x1438 PUSH1 0x3 DUP8 PUSH2 0x3EF5 SWAP1 SWAP2 SWAP1 PUSH4 0xFFFFFFFF AND JUMP JUMPDEST PUSH2 0x3D44 SWAP1 SWAP2 SWAP1 PUSH4 0xFFFFFFFF AND JUMP JUMPDEST SWAP1 POP PUSH2 0x14C2 JUMP JUMPDEST PUSH1 0x0 PUSH2 0x14C1 JUMPI PUSH1 0x40 MLOAD PUSH32 0x8C379A000000000000000000000000000000000000000000000000000000000 DUP2 MSTORE PUSH1 0x4 ADD DUP1 DUP1 PUSH1 0x20 ADD DUP3 DUP2 SUB DUP3 MSTORE PUSH1 0x15 DUP2 MSTORE PUSH1 0x20 ADD DUP1 PUSH32 0x756E737570706F72746564206672657175656E63790000000000000000000000 DUP2 MSTORE POP PUSH1 0x20 ADD SWAP2 POP POP PUSH1 0x40 MLOAD DUP1 SWAP2 SUB SWAP1 REVERT JUMPDEST JUMPDEST JUMPDEST JUMPDEST PUSH1 0x0 DUP5 GT PUSH2 0x151D JUMPI PUSH1 0x40 MLOAD PUSH32 0x8C379A000000000000000000000000000000000000000000000000000000000 DUP2 MSTORE PUSH1 0x4 ADD DUP1 DUP1 PUSH1 0x20 ADD DUP3 DUP2 SUB DUP3 MSTORE PUSH1 0x21 DUP2 MSTORE PUSH1 0x20 ADD DUP1 PUSH2 0x43CA PUSH1 0x21 SWAP2 CODECOPY PUSH1 0x40 ADD SWAP2 POP POP PUSH1 0x40 MLOAD DUP1 SWAP2 SUB SWAP1 REVERT JUMPDEST PUSH1 0x0 PUSH1 0x4 PUSH1 0x0 DUP9 PUSH20 0xFFFFFFFFFFFFFFFFFFFFFFFFFFFFFFFFFFFFFFFF AND PUSH20 0xFFFFFFFFFFFFFFFFFFFFFFFFFFFFFFFFFFFFFFFF AND DUP2 MSTORE PUSH1 0x20 ADD SWAP1 DUP2 MSTORE PUSH1 0x20 ADD PUSH1 0x0 KECCAK256 DUP7 DUP2 SLOAD DUP2 LT PUSH2 0x1569 JUMPI INVALID JUMPDEST SWAP1 PUSH1 0x0 MSTORE PUSH1 0x20 PUSH1 0x0 KECCAK256 SWAP1 PUSH1 0xA MUL ADD SWAP1 POP PUSH1 0x0 PUSH2 0x1585 DUP9 DUP9 PUSH2 0x1BF5 JUMP JUMPDEST SWAP1 POP PUSH1 0x0 PUSH2 0x15AF PUSH1 0x1 PUSH2 0x15A1 DUP9 DUP6 PUSH2 0x3CBC SWAP1 SWAP2 SWAP1 PUSH4 0xFFFFFFFF AND JUMP JUMPDEST PUSH2 0x3C72 SWAP1 SWAP2 SWAP1 PUSH4 0xFFFFFFFF AND JUMP JUMPDEST SWAP1 POP PUSH1 0xC DUP2 GT ISZERO PUSH2 0x160B JUMPI PUSH1 0x40 MLOAD PUSH32 0x8C379A000000000000000000000000000000000000000000000000000000000 DUP2 MSTORE PUSH1 0x4 ADD DUP1 DUP1 PUSH1 0x20 ADD DUP3 DUP2 SUB DUP3 MSTORE PUSH1 0x28 DUP2 MSTORE PUSH1 0x20 ADD DUP1 PUSH2 0x43A2 PUSH1 0x28 SWAP2 CODECOPY PUSH1 0x40 ADD SWAP2 POP POP PUSH1 0x40 MLOAD DUP1 SWAP2 SUB SWAP1 REVERT JUMPDEST PUSH1 0x0 DUP4 PUSH1 0x6 ADD PUSH1 0x0 DUP5 DUP2 MSTORE PUSH1 0x20 ADD SWAP1 DUP2 MSTORE PUSH1 0x20 ADD PUSH1 0x0 KECCAK256 SLOAD EQ PUSH2 0x1679 JUMPI PUSH1 0x40 MLOAD PUSH32 0x8C379A000000000000000000000000000000000000000000000000000000000 DUP2 MSTORE PUSH1 0x4 ADD DUP1 DUP1 PUSH1 0x20 ADD DUP3 DUP2 SUB DUP3 MSTORE PUSH1 0x23 DUP2 MSTORE PUSH1 0x20 ADD DUP1 PUSH2 0x435E PUSH1 0x23 SWAP2 CODECOPY PUSH1 0x40 ADD SWAP2 POP POP PUSH1 0x40 MLOAD DUP1 SWAP2 SUB SWAP1 REVERT JUMPDEST PUSH1 0x0 PUSH2 0x168E DUP8 DUP10 PUSH2 0x3D44 SWAP1 SWAP2 SWAP1 PUSH4 0xFFFFFFFF AND JUMP JUMPDEST SWAP1 POP DUP4 PUSH1 0x1 ADD SLOAD DUP2 LT ISZERO PUSH2 0x170A JUMPI PUSH1 0x40 MLOAD PUSH32 0x8C379A000000000000000000000000000000000000000000000000000000000 DUP2 MSTORE PUSH1 0x4 ADD DUP1 DUP1 PUSH1 0x20 ADD DUP3 DUP2 SUB DUP3 MSTORE PUSH1 0x1F DUP2 MSTORE PUSH1 0x20 ADD DUP1 PUSH32 0x6465706F736974206E6F742063726F7373696E6720636F6D6D69746D656E7400 DUP2 MSTORE POP PUSH1 0x20 ADD SWAP2 POP POP PUSH1 0x40 MLOAD DUP1 SWAP2 SUB SWAP1 REVERT JUMPDEST PUSH1 0x0 PUSH2 0x1718 DUP6 DUP4 PUSH1 0x1 PUSH2 0x3D8E JUMP JUMPDEST SWAP1 POP DUP7 ISZERO PUSH2 0x17CC JUMPI PUSH2 0x1784 PUSH2 0x1736 DUP8 DUP12 PUSH2 0x3CBC SWAP1 SWAP2 SWAP1 PUSH4 0xFFFFFFFF AND JUMP JUMPDEST PUSH1 0x5 PUSH1 0x0 CALLER PUSH20 0xFFFFFFFFFFFFFFFFFFFFFFFFFFFFFFFFFFFFFFFF AND PUSH20 0xFFFFFFFFFFFFFFFFFFFFFFFFFFFFFFFFFFFFFFFF AND DUP2 MSTORE PUSH1 0x20 ADD SWAP1 DUP2 MSTORE PUSH1 0x20 ADD PUSH1 0x0 KECCAK256 SLOAD PUSH2 0x3C72 SWAP1 SWAP2 SWAP1 PUSH4 0xFFFFFFFF AND JUMP JUMPDEST PUSH1 0x5 PUSH1 0x0 CALLER PUSH20 0xFFFFFFFFFFFFFFFFFFFFFFFFFFFFFFFFFFFFFFFF AND PUSH20 0xFFFFFFFFFFFFFFFFFFFFFFFFFFFFFFFFFFFFFFFF AND DUP2 MSTORE PUSH1 0x20 ADD SWAP1 DUP2 MSTORE PUSH1 0x20 ADD PUSH1 0x0 KECCAK256 DUP2 SWAP1 SSTORE POP PUSH2 0x18F8 JUMP JUMPDEST PUSH1 0x2 PUSH1 0x0 SWAP1 SLOAD SWAP1 PUSH2 0x100 EXP SWAP1 DIV PUSH20 0xFFFFFFFFFFFFFFFFFFFFFFFFFFFFFFFFFFFFFFFF AND PUSH20 0xFFFFFFFFFFFFFFFFFFFFFFFFFFFFFFFFFFFFFFFF AND PUSH4 0x23B872DD CALLER ADDRESS PUSH2 0x181F DUP11 DUP15 PUSH2 0x3CBC SWAP1 SWAP2 SWAP1 PUSH4 0xFFFFFFFF AND JUMP JUMPDEST PUSH1 0x40 MLOAD DUP5 PUSH4 0xFFFFFFFF AND PUSH1 0xE0 SHL DUP2 MSTORE PUSH1 0x4 ADD DUP1 DUP5 PUSH20 0xFFFFFFFFFFFFFFFFFFFFFFFFFFFFFFFFFFFFFFFF AND PUSH20 0xFFFFFFFFFFFFFFFFFFFFFFFFFFFFFFFFFFFFFFFF AND DUP2 MSTORE PUSH1 0x20 ADD DUP4 PUSH20 0xFFFFFFFFFFFFFFFFFFFFFFFFFFFFFFFFFFFFFFFF AND PUSH20 0xFFFFFFFFFFFFFFFFFFFFFFFFFFFFFFFFFFFFFFFF AND DUP2 MSTORE PUSH1 0x20 ADD DUP3 DUP2 MSTORE PUSH1 0x20 ADD SWAP4 POP POP POP POP PUSH1 0x20 PUSH1 0x40 MLOAD DUP1 DUP4 SUB DUP2 PUSH1 0x0 DUP8 DUP1 EXTCODESIZE ISZERO DUP1 ISZERO PUSH2 0x18BB JUMPI PUSH1 0x0 DUP1 REVERT JUMPDEST POP GAS CALL ISZERO DUP1 ISZERO PUSH2 0x18CF JUMPI RETURNDATASIZE PUSH1 0x0 DUP1 RETURNDATACOPY RETURNDATASIZE PUSH1 0x0 REVERT JUMPDEST POP POP POP POP PUSH1 0x40 MLOAD RETURNDATASIZE PUSH1 0x20 DUP2 LT ISZERO PUSH2 0x18E5 JUMPI PUSH1 0x0 DUP1 REVERT JUMPDEST DUP2 ADD SWAP1 DUP1 DUP1 MLOAD SWAP1 PUSH1 0x20 ADD SWAP1 SWAP3 SWAP2 SWAP1 POP POP POP POP JUMPDEST PUSH2 0x196B DUP7 PUSH1 0x5 PUSH1 0x0 DUP1 PUSH1 0x0 SWAP1 SLOAD SWAP1 PUSH2 0x100 EXP SWAP1 DIV PUSH20 0xFFFFFFFFFFFFFFFFFFFFFFFFFFFFFFFFFFFFFFFF AND PUSH20 0xFFFFFFFFFFFFFFFFFFFFFFFFFFFFFFFFFFFFFFFF AND PUSH20 0xFFFFFFFFFFFFFFFFFFFFFFFFFFFFFFFFFFFFFFFF AND DUP2 MSTORE PUSH1 0x20 ADD SWAP1 DUP2 MSTORE PUSH1 0x20 ADD PUSH1 0x0 KECCAK256 SLOAD PUSH2 0x3CBC SWAP1 SWAP2 SWAP1 PUSH4 0xFFFFFFFF AND JUMP JUMPDEST PUSH1 0x5 PUSH1 0x0 DUP1 PUSH1 0x0 SWAP1 SLOAD SWAP1 PUSH2 0x100 EXP SWAP1 DIV PUSH20 0xFFFFFFFFFFFFFFFFFFFFFFFFFFFFFFFFFFFFFFFF AND PUSH20 0xFFFFFFFFFFFFFFFFFFFFFFFFFFFFFFFFFFFFFFFF AND PUSH20 0xFFFFFFFFFFFFFFFFFFFFFFFFFFFFFFFFFFFFFFFF AND DUP2 MSTORE PUSH1 0x20 ADD SWAP1 DUP2 MSTORE PUSH1 0x20 ADD PUSH1 0x0 KECCAK256 DUP2 SWAP1 SSTORE POP PUSH1 0x2 PUSH1 0x0 SWAP1 SLOAD SWAP1 PUSH2 0x100 EXP SWAP1 DIV PUSH20 0xFFFFFFFFFFFFFFFFFFFFFFFFFFFFFFFFFFFFFFFF AND PUSH20 0xFFFFFFFFFFFFFFFFFFFFFFFFFFFFFFFFFFFFFFFF AND PUSH4 0x23B872DD PUSH1 0x1 PUSH1 0x0 SWAP1 SLOAD SWAP1 PUSH2 0x100 EXP SWAP1 DIV PUSH20 0xFFFFFFFFFFFFFFFFFFFFFFFFFFFFFFFFFFFFFFFF AND ADDRESS PUSH2 0x1A44 DUP13 DUP7 PUSH2 0x3EF5 SWAP1 SWAP2 SWAP1 PUSH4 0xFFFFFFFF AND JUMP JUMPDEST PUSH1 0x40 MLOAD DUP5 PUSH4 0xFFFFFFFF AND PUSH1 0xE0 SHL DUP2 MSTORE PUSH1 0x4 ADD DUP1 DUP5 PUSH20 0xFFFFFFFFFFFFFFFFFFFFFFFFFFFFFFFFFFFFFFFF AND PUSH20 0xFFFFFFFFFFFFFFFFFFFFFFFFFFFFFFFFFFFFFFFF AND DUP2 MSTORE PUSH1 0x20 ADD DUP4 PUSH20 0xFFFFFFFFFFFFFFFFFFFFFFFFFFFFFFFFFFFFFFFF AND PUSH20 0xFFFFFFFFFFFFFFFFFFFFFFFFFFFFFFFFFFFFFFFF AND DUP2 MSTORE PUSH1 0x20 ADD DUP3 DUP2 MSTORE PUSH1 0x20 ADD SWAP4 POP POP POP POP PUSH1 0x20 PUSH1 0x40 MLOAD DUP1 DUP4 SUB DUP2 PUSH1 0x0 DUP8 DUP1 EXTCODESIZE ISZERO DUP1 ISZERO PUSH2 0x1AE0 JUMPI PUSH1 0x0 DUP1 REVERT JUMPDEST POP GAS CALL ISZERO DUP1 ISZERO PUSH2 0x1AF4 JUMPI RETURNDATASIZE PUSH1 0x0 DUP1 RETURNDATACOPY RETURNDATASIZE PUSH1 0x0 REVERT JUMPDEST POP POP POP POP PUSH1 0x40 MLOAD RETURNDATASIZE PUSH1 0x20 DUP2 LT ISZERO PUSH2 0x1B0A JUMPI PUSH1 0x0 DUP1 REVERT JUMPDEST DUP2 ADD SWAP1 DUP1 DUP1 MLOAD SWAP1 PUSH1 0x20 ADD SWAP1 SWAP3 SWAP2 SWAP1 POP POP POP POP PUSH1 0x0 DUP5 SWAP1 POP JUMPDEST DUP4 DUP2 GT PUSH2 0x1BE7 JUMPI DUP3 DUP7 PUSH1 0x6 ADD PUSH1 0x0 DUP4 DUP2 MSTORE PUSH1 0x20 ADD SWAP1 DUP2 MSTORE PUSH1 0x20 ADD PUSH1 0x0 KECCAK256 DUP2 SWAP1 SSTORE POP DUP11 DUP13 PUSH20 0xFFFFFFFFFFFFFFFFFFFFFFFFFFFFFFFFFFFFFFFF AND PUSH32 0xA0F7AD829C9CB80662BE76DA1EEFCF008F173427DB87F98A6D935F043F1A12E5 DUP4 DUP7 CALLER DUP14 PUSH1 0x40 MLOAD DUP1 DUP6 DUP2 MSTORE PUSH1 0x20 ADD DUP5 DUP2 MSTORE PUSH1 0x20 ADD DUP4 PUSH20 0xFFFFFFFFFFFFFFFFFFFFFFFFFFFFFFFFFFFFFFFF AND PUSH20 0xFFFFFFFFFFFFFFFFFFFFFFFFFFFFFFFFFFFFFFFF AND DUP2 MSTORE PUSH1 0x20 ADD DUP3 ISZERO ISZERO ISZERO ISZERO DUP2 MSTORE PUSH1 0x20 ADD SWAP5 POP POP POP POP POP PUSH1 0x40 MLOAD DUP1 SWAP2 SUB SWAP1 LOG3 DUP1 DUP1 PUSH1 0x1 ADD SWAP2 POP POP PUSH2 0x1B22 JUMP JUMPDEST POP POP POP POP POP POP POP POP POP POP POP POP JUMP JUMPDEST PUSH1 0x0 PUSH1 0x1 PUSH3 0x282070 PUSH1 0x4 PUSH1 0x0 DUP7 PUSH20 0xFFFFFFFFFFFFFFFFFFFFFFFFFFFFFFFFFFFFFFFF AND PUSH20 0xFFFFFFFFFFFFFFFFFFFFFFFFFFFFFFFFFFFFFFFF AND DUP2 MSTORE PUSH1 0x20 ADD SWAP1 DUP2 MSTORE PUSH1 0x20 ADD PUSH1 0x0 KECCAK256 DUP5 DUP2 SLOAD DUP2 LT PUSH2 0x1C47 JUMPI INVALID JUMPDEST SWAP1 PUSH1 0x0 MSTORE PUSH1 0x20 PUSH1 0x0 KECCAK256 SWAP1 PUSH1 0xA MUL ADD PUSH1 0x2 ADD SLOAD PUSH1 0x2 PUSH1 0x0 SWAP1 SLOAD SWAP1 PUSH2 0x100 EXP SWAP1 DIV PUSH20 0xFFFFFFFFFFFFFFFFFFFFFFFFFFFFFFFFFFFFFFFF AND PUSH20 0xFFFFFFFFFFFFFFFFFFFFFFFFFFFFFFFFFFFFFFFF AND PUSH4 0xB81F90F3 PUSH1 0x40 MLOAD DUP2 PUSH4 0xFFFFFFFF AND PUSH1 0xE0 SHL DUP2 MSTORE PUSH1 0x4 ADD PUSH1 0x20 PUSH1 0x40 MLOAD DUP1 DUP4 SUB DUP2 DUP7 DUP1 EXTCODESIZE ISZERO DUP1 ISZERO PUSH2 0x1CC1 JUMPI PUSH1 0x0 DUP1 REVERT JUMPDEST POP GAS STATICCALL ISZERO DUP1 ISZERO PUSH2 0x1CD5 JUMPI RETURNDATASIZE PUSH1 0x0 DUP1 RETURNDATACOPY RETURNDATASIZE PUSH1 0x0 REVERT JUMPDEST POP POP POP POP PUSH1 0x40 MLOAD RETURNDATASIZE PUSH1 0x20 DUP2 LT ISZERO PUSH2 0x1CEB JUMPI PUSH1 0x0 DUP1 REVERT JUMPDEST DUP2 ADD SWAP1 DUP1 DUP1 MLOAD SWAP1 PUSH1 0x20 ADD SWAP1 SWAP3 SWAP2 SWAP1 POP POP POP SUB DUP2 PUSH2 0x1D04 JUMPI INVALID JUMPDEST DIV ADD SWAP1 POP SWAP3 SWAP2 POP POP JUMP JUMPDEST PUSH1 0x2 PUSH1 0x0 SWAP1 SLOAD SWAP1 PUSH2 0x100 EXP SWAP1 DIV PUSH20 0xFFFFFFFFFFFFFFFFFFFFFFFFFFFFFFFFFFFFFFFF AND PUSH20 0xFFFFFFFFFFFFFFFFFFFFFFFFFFFFFFFFFFFFFFFF AND PUSH4 0x23B872DD CALLER ADDRESS DUP5 PUSH1 0x40 MLOAD DUP5 PUSH4 0xFFFFFFFF AND PUSH1 0xE0 SHL DUP2 MSTORE PUSH1 0x4 ADD DUP1 DUP5 PUSH20 0xFFFFFFFFFFFFFFFFFFFFFFFFFFFFFFFFFFFFFFFF AND PUSH20 0xFFFFFFFFFFFFFFFFFFFFFFFFFFFFFFFFFFFFFFFF AND DUP2 MSTORE PUSH1 0x20 ADD DUP4 PUSH20 0xFFFFFFFFFFFFFFFFFFFFFFFFFFFFFFFFFFFFFFFF AND PUSH20 0xFFFFFFFFFFFFFFFFFFFFFFFFFFFFFFFFFFFFFFFF AND DUP2 MSTORE PUSH1 0x20 ADD DUP3 DUP2 MSTORE PUSH1 0x20 ADD SWAP4 POP POP POP POP PUSH1 0x20 PUSH1 0x40 MLOAD DUP1 DUP4 SUB DUP2 PUSH1 0x0 DUP8 DUP1 EXTCODESIZE ISZERO DUP1 ISZERO PUSH2 0x1DEB JUMPI PUSH1 0x0 DUP1 REVERT JUMPDEST POP GAS CALL ISZERO DUP1 ISZERO PUSH2 0x1DFF JUMPI RETURNDATASIZE PUSH1 0x0 DUP1 RETURNDATACOPY RETURNDATASIZE PUSH1 0x0 REVERT JUMPDEST POP POP POP POP PUSH1 0x40 MLOAD RETURNDATASIZE PUSH1 0x20 DUP2 LT ISZERO PUSH2 0x1E15 JUMPI PUSH1 0x0 DUP1 REVERT JUMPDEST DUP2 ADD SWAP1 DUP1 DUP1 MLOAD SWAP1 PUSH1 0x20 ADD SWAP1 SWAP3 SWAP2 SWAP1 POP POP POP POP PUSH2 0x1E79 DUP2 PUSH1 0x5 PUSH1 0x0 CALLER PUSH20 0xFFFFFFFFFFFFFFFFFFFFFFFFFFFFFFFFFFFFFFFF AND PUSH20 0xFFFFFFFFFFFFFFFFFFFFFFFFFFFFFFFFFFFFFFFF AND DUP2 MSTORE PUSH1 0x20 ADD SWAP1 DUP2 MSTORE PUSH1 0x20 ADD PUSH1 0x0 KECCAK256 SLOAD PUSH2 0x3CBC SWAP1 SWAP2 SWAP1 PUSH4 0xFFFFFFFF AND JUMP JUMPDEST PUSH1 0x5 PUSH1 0x0 CALLER PUSH20 0xFFFFFFFFFFFFFFFFFFFFFFFFFFFFFFFFFFFFFFFF AND PUSH20 0xFFFFFFFFFFFFFFFFFFFFFFFFFFFFFFFFFFFFFFFF AND DUP2 MSTORE PUSH1 0x20 ADD SWAP1 DUP2 MSTORE PUSH1 0x20 ADD PUSH1 0x0 KECCAK256 DUP2 SWAP1 SSTORE POP POP JUMP JUMPDEST PUSH1 0x3 DUP3 DUP2 SLOAD DUP2 LT PUSH2 0x1ECC JUMPI INVALID JUMPDEST SWAP1 PUSH1 0x0 MSTORE PUSH1 0x20 PUSH1 0x0 KECCAK256 SWAP1 PUSH1 0x3 MUL ADD PUSH1 0x0 ADD PUSH1 0x0 SWAP1 SLOAD SWAP1 PUSH2 0x100 EXP SWAP1 DIV PUSH1 0xFF AND PUSH2 0x1F5D JUMPI PUSH1 0x40 MLOAD PUSH32 0x8C379A000000000000000000000000000000000000000000000000000000000 DUP2 MSTORE PUSH1 0x4 ADD DUP1 DUP1 PUSH1 0x20 ADD DUP3 DUP2 SUB DUP3 MSTORE PUSH1 0x16 DUP2 MSTORE PUSH1 0x20 ADD DUP1 PUSH32 0x50455420706C616E206973206E6F742061637469766500000000000000000000 DUP2 MSTORE POP PUSH1 0x20 ADD SWAP2 POP POP PUSH1 0x40 MLOAD DUP1 SWAP2 SUB SWAP1 REVERT JUMPDEST PUSH1 0x3 DUP3 DUP2 SLOAD DUP2 LT PUSH2 0x1F6A JUMPI INVALID JUMPDEST SWAP1 PUSH1 0x0 MSTORE PUSH1 0x20 PUSH1 0x0 KECCAK256 SWAP1 PUSH1 0x3 MUL ADD PUSH1 0x1 ADD SLOAD DUP2 LT ISZERO PUSH2 0x1FF1 JUMPI PUSH1 0x40 MLOAD PUSH32 0x8C379A000000000000000000000000000000000000000000000000000000000 DUP2 MSTORE PUSH1 0x4 ADD DUP1 DUP1 PUSH1 0x20 ADD DUP3 DUP2 SUB DUP3 MSTORE PUSH1 0x1B DUP2 MSTORE PUSH1 0x20 ADD DUP1 PUSH32 0x6C6F77206D6F6E74686C79436F6D6D69746D656E74416D6F756E740000000000 DUP2 MSTORE POP PUSH1 0x20 ADD SWAP2 POP POP PUSH1 0x40 MLOAD DUP1 SWAP2 SUB SWAP1 REVERT JUMPDEST PUSH1 0x4 PUSH1 0x0 CALLER PUSH20 0xFFFFFFFFFFFFFFFFFFFFFFFFFFFFFFFFFFFFFFFF AND PUSH20 0xFFFFFFFFFFFFFFFFFFFFFFFFFFFFFFFFFFFFFFFF AND DUP2 MSTORE PUSH1 0x20 ADD SWAP1 DUP2 MSTORE PUSH1 0x20 ADD PUSH1 0x0 KECCAK256 PUSH1 0x40 MLOAD DUP1 PUSH1 0xC0 ADD PUSH1 0x40 MSTORE DUP1 DUP5 DUP2 MSTORE PUSH1 0x20 ADD DUP4 DUP2 MSTORE PUSH1 0x20 ADD PUSH1 0x2 PUSH1 0x0 SWAP1 SLOAD SWAP1 PUSH2 0x100 EXP SWAP1 DIV PUSH20 0xFFFFFFFFFFFFFFFFFFFFFFFFFFFFFFFFFFFFFFFF AND PUSH20 0xFFFFFFFFFFFFFFFFFFFFFFFFFFFFFFFFFFFFFFFF AND PUSH4 0xB81F90F3 PUSH1 0x40 MLOAD DUP2 PUSH4 0xFFFFFFFF AND PUSH1 0xE0 SHL DUP2 MSTORE PUSH1 0x4 ADD PUSH1 0x20 PUSH1 0x40 MLOAD DUP1 DUP4 SUB DUP2 DUP7 DUP1 EXTCODESIZE ISZERO DUP1 ISZERO PUSH2 0x20AF JUMPI PUSH1 0x0 DUP1 REVERT JUMPDEST POP GAS STATICCALL ISZERO DUP1 ISZERO PUSH2 0x20C3 JUMPI RETURNDATASIZE PUSH1 0x0 DUP1 RETURNDATACOPY RETURNDATASIZE PUSH1 0x0 REVERT JUMPDEST POP POP POP POP PUSH1 0x40 MLOAD RETURNDATASIZE PUSH1 0x20 DUP2 LT ISZERO PUSH2 0x20D9 JUMPI PUSH1 0x0 DUP1 REVERT JUMPDEST DUP2 ADD SWAP1 DUP1 DUP1 MLOAD SWAP1 PUSH1 0x20 ADD SWAP1 SWAP3 SWAP2 SWAP1 POP POP POP DUP2 MSTORE PUSH1 0x20 ADD PUSH1 0x0 DUP2 MSTORE PUSH1 0x20 ADD PUSH1 0x0 DUP2 MSTORE PUSH1 0x20 ADD PUSH1 0x0 DUP2 MSTORE POP SWAP1 DUP1 PUSH1 0x1 DUP2 SLOAD ADD DUP1 DUP3 SSTORE DUP1 SWAP2 POP POP PUSH1 0x1 SWAP1 SUB SWAP1 PUSH1 0x0 MSTORE PUSH1 0x20 PUSH1 0x0 KECCAK256 SWAP1 PUSH1 0xA MUL ADD PUSH1 0x0 SWAP1 SWAP2 SWAP1 SWAP2 SWAP1 SWAP2 POP PUSH1 0x0 DUP3 ADD MLOAD DUP2 PUSH1 0x0 ADD SSTORE PUSH1 0x20 DUP3 ADD MLOAD DUP2 PUSH1 0x1 ADD SSTORE PUSH1 0x40 DUP3 ADD MLOAD DUP2 PUSH1 0x2 ADD SSTORE PUSH1 0x60 DUP3 ADD MLOAD DUP2 PUSH1 0x3 ADD SSTORE PUSH1 0x80 DUP3 ADD MLOAD DUP2 PUSH1 0x4 ADD SSTORE PUSH1 0xA0 DUP3 ADD MLOAD DUP2 PUSH1 0x5 ADD SSTORE POP POP CALLER PUSH20 0xFFFFFFFFFFFFFFFFFFFFFFFFFFFFFFFFFFFFFFFF AND PUSH32 0x4459F0AE7FF9F1DFCB9443FF1A9268613580CDB8B1C0F59A4BD4384B94C99F04 PUSH1 0x1 PUSH1 0x4 PUSH1 0x0 CALLER PUSH20 0xFFFFFFFFFFFFFFFFFFFFFFFFFFFFFFFFFFFFFFFF AND PUSH20 0xFFFFFFFFFFFFFFFFFFFFFFFFFFFFFFFFFFFFFFFF AND DUP2 MSTORE PUSH1 0x20 ADD SWAP1 DUP2 MSTORE PUSH1 0x20 ADD PUSH1 0x0 KECCAK256 DUP1 SLOAD SWAP1 POP SUB DUP4 PUSH1 0x40 MLOAD DUP1 DUP4 DUP2 MSTORE PUSH1 0x20 ADD DUP3 DUP2 MSTORE PUSH1 0x20 ADD SWAP3 POP POP POP PUSH1 0x40 MLOAD DUP1 SWAP2 SUB SWAP1 LOG2 POP POP JUMP JUMPDEST PUSH1 0x0 PUSH1 0x4 PUSH1 0x0 DUP6 PUSH20 0xFFFFFFFFFFFFFFFFFFFFFFFFFFFFFFFFFFFFFFFF AND PUSH20 0xFFFFFFFFFFFFFFFFFFFFFFFFFFFFFFFFFFFFFFFF AND DUP2 MSTORE PUSH1 0x20 ADD SWAP1 DUP2 MSTORE PUSH1 0x20 ADD PUSH1 0x0 KECCAK256 DUP4 DUP2 SLOAD DUP2 LT PUSH2 0x2254 JUMPI INVALID JUMPDEST SWAP1 PUSH1 0x0 MSTORE PUSH1 0x20 PUSH1 0x0 KECCAK256 SWAP1 PUSH1 0xA MUL ADD PUSH1 0x8 ADD PUSH1 0x0 DUP4 PUSH20 0xFFFFFFFFFFFFFFFFFFFFFFFFFFFFFFFFFFFFFFFF AND PUSH20 0xFFFFFFFFFFFFFFFFFFFFFFFFFFFFFFFFFFFFFFFF AND DUP2 MSTORE PUSH1 0x20 ADD SWAP1 DUP2 MSTORE PUSH1 0x20 ADD PUSH1 0x0 KECCAK256 PUSH1 0x0 SWAP1 SLOAD SWAP1 PUSH2 0x100 EXP SWAP1 DIV PUSH1 0xFF AND SWAP1 POP SWAP4 SWAP3 POP POP POP JUMP JUMPDEST DUP3 DUP3 PUSH1 0x0 PUSH1 0x4 PUSH1 0x0 DUP5 PUSH20 0xFFFFFFFFFFFFFFFFFFFFFFFFFFFFFFFFFFFFFFFF AND PUSH20 0xFFFFFFFFFFFFFFFFFFFFFFFFFFFFFFFFFFFFFFFF AND DUP2 MSTORE PUSH1 0x20 ADD SWAP1 DUP2 MSTORE PUSH1 0x20 ADD PUSH1 0x0 KECCAK256 DUP3 DUP2 SLOAD DUP2 LT PUSH2 0x2307 JUMPI INVALID JUMPDEST SWAP1 PUSH1 0x0 MSTORE PUSH1 0x20 PUSH1 0x0 KECCAK256 SWAP1 PUSH1 0xA MUL ADD SWAP1 POP DUP3 PUSH20 0xFFFFFFFFFFFFFFFFFFFFFFFFFFFFFFFFFFFFFFFF AND CALLER PUSH20 0xFFFFFFFFFFFFFFFFFFFFFFFFFFFFFFFFFFFFFFFF AND EQ PUSH2 0x240C JUMPI DUP1 PUSH1 0x8 ADD PUSH1 0x0 CALLER PUSH20 0xFFFFFFFFFFFFFFFFFFFFFFFFFFFFFFFFFFFFFFFF AND PUSH20 0xFFFFFFFFFFFFFFFFFFFFFFFFFFFFFFFFFFFFFFFF AND DUP2 MSTORE PUSH1 0x20 ADD SWAP1 DUP2 MSTORE PUSH1 0x20 ADD PUSH1 0x0 KECCAK256 PUSH1 0x0 SWAP1 SLOAD SWAP1 PUSH2 0x100 EXP SWAP1 DIV PUSH1 0xFF AND PUSH2 0x240B JUMPI PUSH1 0x40 MLOAD PUSH32 0x8C379A000000000000000000000000000000000000000000000000000000000 DUP2 MSTORE PUSH1 0x4 ADD DUP1 DUP1 PUSH1 0x20 ADD DUP3 DUP2 SUB DUP3 MSTORE PUSH1 0x1A DUP2 MSTORE PUSH1 0x20 ADD DUP1 PUSH32 0x6E6F6D696E6174696F6E2073686F756C64206265207468657265000000000000 DUP2 MSTORE POP PUSH1 0x20 ADD SWAP2 POP POP PUSH1 0x40 MLOAD DUP1 SWAP2 SUB SWAP1 REVERT JUMPDEST JUMPDEST PUSH1 0x0 PUSH1 0x4 PUSH1 0x0 DUP9 PUSH20 0xFFFFFFFFFFFFFFFFFFFFFFFFFFFFFFFFFFFFFFFF AND PUSH20 0xFFFFFFFFFFFFFFFFFFFFFFFFFFFFFFFFFFFFFFFF AND DUP2 MSTORE PUSH1 0x20 ADD SWAP1 DUP2 MSTORE PUSH1 0x20 ADD PUSH1 0x0 KECCAK256 DUP7 DUP2 SLOAD DUP2 LT PUSH2 0x2458 JUMPI INVALID JUMPDEST SWAP1 PUSH1 0x0 MSTORE PUSH1 0x20 PUSH1 0x0 KECCAK256 SWAP1 PUSH1 0xA MUL ADD SWAP1 POP PUSH1 0x0 DUP2 PUSH1 0x3 ADD SLOAD SWAP1 POP DUP6 DUP2 LT PUSH2 0x24E6 JUMPI PUSH1 0x40 MLOAD PUSH32 0x8C379A000000000000000000000000000000000000000000000000000000000 DUP2 MSTORE PUSH1 0x4 ADD DUP1 DUP1 PUSH1 0x20 ADD DUP3 DUP2 SUB DUP3 MSTORE PUSH1 0x1A DUP2 MSTORE PUSH1 0x20 ADD DUP1 PUSH32 0x73746172742073686F756C64206265206265666F726520656E64000000000000 DUP2 MSTORE POP PUSH1 0x20 ADD SWAP2 POP POP PUSH1 0x40 MLOAD DUP1 SWAP2 SUB SWAP1 REVERT JUMPDEST PUSH1 0x3C DUP7 GT ISZERO PUSH2 0x255D JUMPI PUSH1 0x40 MLOAD PUSH32 0x8C379A000000000000000000000000000000000000000000000000000000000 DUP2 MSTORE PUSH1 0x4 ADD DUP1 DUP1 PUSH1 0x20 ADD DUP3 DUP2 SUB DUP3 MSTORE PUSH1 0x1A DUP2 MSTORE PUSH1 0x20 ADD DUP1 PUSH32 0x6F6E6C7920363020416E6E756974792077697468647261776C73000000000000 DUP2 MSTORE POP PUSH1 0x20 ADD SWAP2 POP POP PUSH1 0x40 MLOAD DUP1 SWAP2 SUB SWAP1 REVERT JUMPDEST PUSH1 0x0 PUSH2 0x256A DUP10 DUP10 DUP10 PUSH2 0x2C5A JUMP JUMPDEST SWAP1 POP DUP1 PUSH1 0x2 PUSH1 0x0 SWAP1 SLOAD SWAP1 PUSH2 0x100 EXP SWAP1 DIV PUSH20 0xFFFFFFFFFFFFFFFFFFFFFFFFFFFFFFFFFFFFFFFF AND PUSH20 0xFFFFFFFFFFFFFFFFFFFFFFFFFFFFFFFFFFFFFFFF AND PUSH4 0xB81F90F3 PUSH1 0x40 MLOAD DUP2 PUSH4 0xFFFFFFFF AND PUSH1 0xE0 SHL DUP2 MSTORE PUSH1 0x4 ADD PUSH1 0x20 PUSH1 0x40 MLOAD DUP1 DUP4 SUB DUP2 DUP7 DUP1 EXTCODESIZE ISZERO DUP1 ISZERO PUSH2 0x25D5 JUMPI PUSH1 0x0 DUP1 REVERT JUMPDEST POP GAS STATICCALL ISZERO DUP1 ISZERO PUSH2 0x25E9 JUMPI RETURNDATASIZE PUSH1 0x0 DUP1 RETURNDATACOPY RETURNDATASIZE PUSH1 0x0 REVERT JUMPDEST POP POP POP POP PUSH1 0x40 MLOAD RETURNDATASIZE PUSH1 0x20 DUP2 LT ISZERO PUSH2 0x25FF JUMPI PUSH1 0x0 DUP1 REVERT JUMPDEST DUP2 ADD SWAP1 DUP1 DUP1 MLOAD SWAP1 PUSH1 0x20 ADD SWAP1 SWAP3 SWAP2 SWAP1 POP POP POP LT ISZERO PUSH2 0x2684 JUMPI PUSH1 0x40 MLOAD PUSH32 0x8C379A000000000000000000000000000000000000000000000000000000000 DUP2 MSTORE PUSH1 0x4 ADD DUP1 DUP1 PUSH1 0x20 ADD DUP3 DUP2 SUB DUP3 MSTORE PUSH1 0x15 DUP2 MSTORE PUSH1 0x20 ADD DUP1 PUSH32 0x63616E6E6F74207769746864726177206561726C790000000000000000000000 DUP2 MSTORE POP PUSH1 0x20 ADD SWAP2 POP POP PUSH1 0x40 MLOAD DUP1 SWAP2 SUB SWAP1 REVERT JUMPDEST PUSH1 0x0 PUSH2 0x2695 DUP11 DUP11 PUSH1 0x1 DUP7 ADD DUP12 PUSH2 0x2B2A JUMP JUMPDEST SWAP1 POP DUP8 DUP5 PUSH1 0x3 ADD DUP2 SWAP1 SSTORE POP PUSH1 0x0 DUP4 EQ ISZERO PUSH2 0x26B4 JUMPI PUSH2 0x26B3 DUP11 DUP11 PUSH2 0x3F7B JUMP JUMPDEST JUMPDEST PUSH1 0x0 DUP2 EQ PUSH2 0x27A2 JUMPI PUSH1 0x2 PUSH1 0x0 SWAP1 SLOAD SWAP1 PUSH2 0x100 EXP SWAP1 DIV PUSH20 0xFFFFFFFFFFFFFFFFFFFFFFFFFFFFFFFFFFFFFFFF AND PUSH20 0xFFFFFFFFFFFFFFFFFFFFFFFFFFFFFFFFFFFFFFFF AND PUSH4 0xA9059CBB CALLER DUP4 PUSH1 0x40 MLOAD DUP4 PUSH4 0xFFFFFFFF AND PUSH1 0xE0 SHL DUP2 MSTORE PUSH1 0x4 ADD DUP1 DUP4 PUSH20 0xFFFFFFFFFFFFFFFFFFFFFFFFFFFFFFFFFFFFFFFF AND PUSH20 0xFFFFFFFFFFFFFFFFFFFFFFFFFFFFFFFFFFFFFFFF AND DUP2 MSTORE PUSH1 0x20 ADD DUP3 DUP2 MSTORE PUSH1 0x20 ADD SWAP3 POP POP POP PUSH1 0x20 PUSH1 0x40 MLOAD DUP1 DUP4 SUB DUP2 PUSH1 0x0 DUP8 DUP1 EXTCODESIZE ISZERO DUP1 ISZERO PUSH2 0x2765 JUMPI PUSH1 0x0 DUP1 REVERT JUMPDEST POP GAS CALL ISZERO DUP1 ISZERO PUSH2 0x2779 JUMPI RETURNDATASIZE PUSH1 0x0 DUP1 RETURNDATACOPY RETURNDATASIZE PUSH1 0x0 REVERT JUMPDEST POP POP POP POP PUSH1 0x40 MLOAD RETURNDATASIZE PUSH1 0x20 DUP2 LT ISZERO PUSH2 0x278F JUMPI PUSH1 0x0 DUP1 REVERT JUMPDEST DUP2 ADD SWAP1 DUP1 DUP1 MLOAD SWAP1 PUSH1 0x20 ADD SWAP1 SWAP3 SWAP2 SWAP1 POP POP POP POP JUMPDEST DUP9 DUP11 PUSH20 0xFFFFFFFFFFFFFFFFFFFFFFFFFFFFFFFFFFFFFFFF AND PUSH32 0xD662EA67C34EB456A3277BEA947873F932447F3F58FAA13B41F4CA3DEFD32C3A PUSH1 0x1 DUP7 ADD DUP12 DUP6 CALLER PUSH1 0x40 MLOAD DUP1 DUP6 DUP2 MSTORE PUSH1 0x20 ADD DUP5 DUP2 MSTORE PUSH1 0x20 ADD DUP4 DUP2 MSTORE PUSH1 0x20 ADD DUP3 PUSH20 0xFFFFFFFFFFFFFFFFFFFFFFFFFFFFFFFFFFFFFFFF AND PUSH20 0xFFFFFFFFFFFFFFFFFFFFFFFFFFFFFFFFFFFFFFFF AND DUP2 MSTORE PUSH1 0x20 ADD SWAP5 POP POP POP POP POP PUSH1 0x40 MLOAD DUP1 SWAP2 SUB SWAP1 LOG3 POP POP POP POP POP POP POP POP POP POP JUMP JUMPDEST PUSH1 0x4 PUSH1 0x20 MSTORE DUP2 PUSH1 0x0 MSTORE PUSH1 0x40 PUSH1 0x0 KECCAK256 DUP2 DUP2 SLOAD DUP2 LT PUSH2 0x285D JUMPI INVALID JUMPDEST SWAP1 PUSH1 0x0 MSTORE PUSH1 0x20 PUSH1 0x0 KECCAK256 SWAP1 PUSH1 0xA MUL ADD PUSH1 0x0 SWAP2 POP SWAP2 POP POP DUP1 PUSH1 0x0 ADD SLOAD SWAP1 DUP1 PUSH1 0x1 ADD SLOAD SWAP1 DUP1 PUSH1 0x2 ADD SLOAD SWAP1 DUP1 PUSH1 0x3 ADD SLOAD SWAP1 DUP1 PUSH1 0x4 ADD SLOAD SWAP1 DUP1 PUSH1 0x5 ADD SLOAD SWAP1 POP DUP7 JUMP JUMPDEST PUSH1 0x1 PUSH1 0x0 SWAP1 SLOAD SWAP1 PUSH2 0x100 EXP SWAP1 DIV PUSH20 0xFFFFFFFFFFFFFFFFFFFFFFFFFFFFFFFFFFFFFFFF AND DUP2 JUMP JUMPDEST PUSH1 0x0 DUP1 PUSH1 0x4 PUSH1 0x0 DUP6 PUSH20 0xFFFFFFFFFFFFFFFFFFFFFFFFFFFFFFFFFFFFFFFF AND PUSH20 0xFFFFFFFFFFFFFFFFFFFFFFFFFFFFFFFFFFFFFFFF AND DUP2 MSTORE PUSH1 0x20 ADD SWAP1 DUP2 MSTORE PUSH1 0x20 ADD PUSH1 0x0 KECCAK256 DUP4 DUP2 SLOAD DUP2 LT PUSH2 0x290D JUMPI INVALID JUMPDEST SWAP1 PUSH1 0x0 MSTORE PUSH1 0x20 PUSH1 0x0 KECCAK256 SWAP1 PUSH1 0xA MUL ADD SWAP1 POP PUSH1 0x0 DUP1 PUSH1 0x1 SWAP1 POP JUMPDEST PUSH1 0xC DUP2 GT PUSH2 0x2977 JUMPI PUSH1 0x0 PUSH2 0x2952 DUP5 PUSH1 0x6 ADD PUSH1 0x0 DUP5 DUP2 MSTORE PUSH1 0x20 ADD SWAP1 DUP2 MSTORE PUSH1 0x20 ADD PUSH1 0x0 KECCAK256 SLOAD DUP6 PUSH1 0x1 ADD SLOAD PUSH2 0x414C JUMP JUMPDEST SWAP1 POP PUSH2 0x2967 DUP2 DUP5 PUSH2 0x3CBC SWAP1 SWAP2 SWAP1 PUSH4 0xFFFFFFFF AND JUMP JUMPDEST SWAP3 POP POP DUP1 DUP1 PUSH1 0x1 ADD SWAP2 POP POP PUSH2 0x2925 JUMP JUMPDEST POP PUSH2 0x298C PUSH1 0xC DUP3 PUSH2 0x3D44 SWAP1 SWAP2 SWAP1 PUSH4 0xFFFFFFFF AND JUMP JUMPDEST SWAP3 POP POP POP SWAP3 SWAP2 POP POP JUMP JUMPDEST PUSH1 0x0 DUP1 SWAP1 SLOAD SWAP1 PUSH2 0x100 EXP SWAP1 DIV PUSH20 0xFFFFFFFFFFFFFFFFFFFFFFFFFFFFFFFFFFFFFFFF AND PUSH20 0xFFFFFFFFFFFFFFFFFFFFFFFFFFFFFFFFFFFFFFFF AND CALLER PUSH20 0xFFFFFFFFFFFFFFFFFFFFFFFFFFFFFFFFFFFFFFFF AND EQ PUSH2 0x2A58 JUMPI PUSH1 0x40 MLOAD PUSH32 0x8C379A000000000000000000000000000000000000000000000000000000000 DUP2 MSTORE PUSH1 0x4 ADD DUP1 DUP1 PUSH1 0x20 ADD DUP3 DUP2 SUB DUP3 MSTORE PUSH1 0x16 DUP2 MSTORE PUSH1 0x20 ADD DUP1 PUSH32 0x6F6E6C79206465706C6F7965722063616E2063616C6C00000000000000000000 DUP2 MSTORE POP PUSH1 0x20 ADD SWAP2 POP POP PUSH1 0x40 MLOAD DUP1 SWAP2 SUB SWAP1 REVERT JUMPDEST PUSH1 0x3 PUSH1 0x40 MLOAD DUP1 PUSH1 0x60 ADD PUSH1 0x40 MSTORE DUP1 PUSH1 0x1 ISZERO ISZERO DUP2 MSTORE PUSH1 0x20 ADD DUP5 DUP2 MSTORE PUSH1 0x20 ADD DUP4 DUP2 MSTORE POP SWAP1 DUP1 PUSH1 0x1 DUP2 SLOAD ADD DUP1 DUP3 SSTORE DUP1 SWAP2 POP POP PUSH1 0x1 SWAP1 SUB SWAP1 PUSH1 0x0 MSTORE PUSH1 0x20 PUSH1 0x0 KECCAK256 SWAP1 PUSH1 0x3 MUL ADD PUSH1 0x0 SWAP1 SWAP2 SWAP1 SWAP2 SWAP1 SWAP2 POP PUSH1 0x0 DUP3 ADD MLOAD DUP2 PUSH1 0x0 ADD PUSH1 0x0 PUSH2 0x100 EXP DUP2 SLOAD DUP2 PUSH1 0xFF MUL NOT AND SWAP1 DUP4 ISZERO ISZERO MUL OR SWAP1 SSTORE POP PUSH1 0x20 DUP3 ADD MLOAD DUP2 PUSH1 0x1 ADD SSTORE PUSH1 0x40 DUP3 ADD MLOAD DUP2 PUSH1 0x2 ADD SSTORE POP POP PUSH32 0xF47D2A74CDEAC9661BE2D3138ED3F81D11ABCFF723E84A800A60B86EEAF90AFE DUP3 DUP3 PUSH1 0x1 PUSH1 0x3 DUP1 SLOAD SWAP1 POP SUB PUSH1 0x40 MLOAD DUP1 DUP5 DUP2 MSTORE PUSH1 0x20 ADD DUP4 DUP2 MSTORE PUSH1 0x20 ADD DUP3 DUP2 MSTORE PUSH1 0x20 ADD SWAP4 POP POP POP POP PUSH1 0x40 MLOAD DUP1 SWAP2 SUB SWAP1 LOG1 POP POP JUMP JUMPDEST PUSH1 0x0 DUP1 PUSH1 0x4 PUSH1 0x0 DUP8 PUSH20 0xFFFFFFFFFFFFFFFFFFFFFFFFFFFFFFFFFFFFFFFF AND PUSH20 0xFFFFFFFFFFFFFFFFFFFFFFFFFFFFFFFFFFFFFFFF AND DUP2 MSTORE PUSH1 0x20 ADD SWAP1 DUP2 MSTORE PUSH1 0x20 ADD PUSH1 0x0 KECCAK256 DUP6 DUP2 SLOAD DUP2 LT PUSH2 0x2B77 JUMPI INVALID JUMPDEST SWAP1 PUSH1 0x0 MSTORE PUSH1 0x20 PUSH1 0x0 KECCAK256 SWAP1 PUSH1 0xA MUL ADD SWAP1 POP PUSH1 0x0 PUSH1 0x3 DUP3 PUSH1 0x0 ADD SLOAD DUP2 SLOAD DUP2 LT PUSH2 0x2B9A JUMPI INVALID JUMPDEST SWAP1 PUSH1 0x0 MSTORE PUSH1 0x20 PUSH1 0x0 KECCAK256 SWAP1 PUSH1 0x3 MUL ADD SWAP1 POP PUSH1 0x0 DUP1 DUP7 SWAP1 POP JUMPDEST DUP6 DUP2 GT PUSH2 0x2C21 JUMPI PUSH1 0x0 PUSH1 0xC DUP3 DUP2 PUSH2 0x2BC4 JUMPI INVALID JUMPDEST MOD SWAP1 POP PUSH1 0x0 PUSH2 0x2BFB DUP7 PUSH1 0x6 ADD PUSH1 0x0 DUP1 DUP6 EQ PUSH2 0x2BDF JUMPI DUP5 PUSH2 0x2BE2 JUMP JUMPDEST PUSH1 0xC JUMPDEST DUP2 MSTORE PUSH1 0x20 ADD SWAP1 DUP2 MSTORE PUSH1 0x20 ADD PUSH1 0x0 KECCAK256 SLOAD DUP8 PUSH1 0x1 ADD SLOAD PUSH2 0x414C JUMP JUMPDEST SWAP1 POP PUSH2 0x2C10 DUP2 DUP6 PUSH2 0x3CBC SWAP1 SWAP2 SWAP1 PUSH4 0xFFFFFFFF AND JUMP JUMPDEST SWAP4 POP POP POP DUP1 DUP1 PUSH1 0x1 ADD SWAP2 POP POP PUSH2 0x2BB1 JUMP JUMPDEST POP PUSH2 0x2C4D PUSH2 0x3E8 PUSH2 0x2C3F DUP5 PUSH1 0x2 ADD SLOAD DUP5 PUSH2 0x3EF5 SWAP1 SWAP2 SWAP1 PUSH4 0xFFFFFFFF AND JUMP JUMPDEST PUSH2 0x3D44 SWAP1 SWAP2 SWAP1 PUSH4 0xFFFFFFFF AND JUMP JUMPDEST SWAP4 POP POP POP POP SWAP5 SWAP4 POP POP POP POP JUMP JUMPDEST PUSH1 0x0 DUP1 PUSH1 0x4 PUSH1 0x0 DUP7 PUSH20 0xFFFFFFFFFFFFFFFFFFFFFFFFFFFFFFFFFFFFFFFF AND PUSH20 0xFFFFFFFFFFFFFFFFFFFFFFFFFFFFFFFFFFFFFFFF AND DUP2 MSTORE PUSH1 0x20 ADD SWAP1 DUP2 MSTORE PUSH1 0x20 ADD PUSH1 0x0 KECCAK256 DUP5 DUP2 SLOAD DUP2 LT PUSH2 0x2CA7 JUMPI INVALID JUMPDEST SWAP1 PUSH1 0x0 MSTORE PUSH1 0x20 PUSH1 0x0 KECCAK256 SWAP1 PUSH1 0xA MUL ADD SWAP1 POP PUSH1 0x0 PUSH3 0x282070 PUSH1 0x1 DUP6 PUSH1 0xC ADD SUB MUL DUP3 PUSH1 0x2 ADD SLOAD ADD SWAP1 POP DUP6 PUSH20 0xFFFFFFFFFFFFFFFFFFFFFFFFFFFFFFFFFFFFFFFF AND CALLER PUSH20 0xFFFFFFFFFFFFFFFFFFFFFFFFFFFFFFFFFFFFFFFF AND EQ PUSH2 0x2D40 JUMPI PUSH2 0x2D18 PUSH1 0x2 DUP4 PUSH1 0x5 ADD SLOAD PUSH2 0x3D44 SWAP1 SWAP2 SWAP1 PUSH4 0xFFFFFFFF AND JUMP JUMPDEST DUP3 PUSH1 0x4 ADD SLOAD GT ISZERO PUSH2 0x2D33 JUMPI PUSH1 0x6 PUSH3 0x282070 MUL DUP2 ADD SWAP1 POP PUSH2 0x2D3F JUMP JUMPDEST PUSH1 0xC PUSH3 0x282070 MUL DUP2 ADD SWAP1 POP JUMPDEST JUMPDEST DUP1 SWAP3 POP POP POP SWAP4 SWAP3 POP POP POP JUMP JUMPDEST PUSH1 0x0 DUP1 SWAP1 POP JUMPDEST DUP3 MLOAD DUP2 LT ISZERO PUSH2 0x2EDE JUMPI PUSH2 0x2DC0 DUP3 DUP3 DUP2 MLOAD DUP2 LT PUSH2 0x2D6A JUMPI INVALID JUMPDEST PUSH1 0x20 MUL PUSH1 0x20 ADD ADD MLOAD PUSH1 0x5 PUSH1 0x0 CALLER PUSH20 0xFFFFFFFFFFFFFFFFFFFFFFFFFFFFFFFFFFFFFFFF AND PUSH20 0xFFFFFFFFFFFFFFFFFFFFFFFFFFFFFFFFFFFFFFFF AND DUP2 MSTORE PUSH1 0x20 ADD SWAP1 DUP2 MSTORE PUSH1 0x20 ADD PUSH1 0x0 KECCAK256 SLOAD PUSH2 0x3C72 SWAP1 SWAP2 SWAP1 PUSH4 0xFFFFFFFF AND JUMP JUMPDEST PUSH1 0x5 PUSH1 0x0 CALLER PUSH20 0xFFFFFFFFFFFFFFFFFFFFFFFFFFFFFFFFFFFFFFFF AND PUSH20 0xFFFFFFFFFFFFFFFFFFFFFFFFFFFFFFFFFFFFFFFF AND DUP2 MSTORE PUSH1 0x20 ADD SWAP1 DUP2 MSTORE PUSH1 0x20 ADD PUSH1 0x0 KECCAK256 DUP2 SWAP1 SSTORE POP PUSH2 0x2E7B DUP3 DUP3 DUP2 MLOAD DUP2 LT PUSH2 0x2E12 JUMPI INVALID JUMPDEST PUSH1 0x20 MUL PUSH1 0x20 ADD ADD MLOAD PUSH1 0x5 PUSH1 0x0 DUP7 DUP6 DUP2 MLOAD DUP2 LT PUSH2 0x2E2A JUMPI INVALID JUMPDEST PUSH1 0x20 MUL PUSH1 0x20 ADD ADD MLOAD PUSH20 0xFFFFFFFFFFFFFFFFFFFFFFFFFFFFFFFFFFFFFFFF AND PUSH20 0xFFFFFFFFFFFFFFFFFFFFFFFFFFFFFFFFFFFFFFFF AND DUP2 MSTORE PUSH1 0x20 ADD SWAP1 DUP2 MSTORE PUSH1 0x20 ADD PUSH1 0x0 KECCAK256 SLOAD PUSH2 0x3CBC SWAP1 SWAP2 SWAP1 PUSH4 0xFFFFFFFF AND JUMP JUMPDEST PUSH1 0x5 PUSH1 0x0 DUP6 DUP5 DUP2 MLOAD DUP2 LT PUSH2 0x2E8B JUMPI INVALID JUMPDEST PUSH1 0x20 MUL PUSH1 0x20 ADD ADD MLOAD PUSH20 0xFFFFFFFFFFFFFFFFFFFFFFFFFFFFFFFFFFFFFFFF AND PUSH20 0xFFFFFFFFFFFFFFFFFFFFFFFFFFFFFFFFFFFFFFFF AND DUP2 MSTORE PUSH1 0x20 ADD SWAP1 DUP2 MSTORE PUSH1 0x20 ADD PUSH1 0x0 KECCAK256 DUP2 SWAP1 SSTORE POP DUP1 DUP1 PUSH1 0x1 ADD SWAP2 POP POP PUSH2 0x2D52 JUMP JUMPDEST POP POP POP JUMP JUMPDEST PUSH1 0x0 DUP1 SWAP1 SLOAD SWAP1 PUSH2 0x100 EXP SWAP1 DIV PUSH20 0xFFFFFFFFFFFFFFFFFFFFFFFFFFFFFFFFFFFFFFFF AND PUSH20 0xFFFFFFFFFFFFFFFFFFFFFFFFFFFFFFFFFFFFFFFF AND CALLER PUSH20 0xFFFFFFFFFFFFFFFFFFFFFFFFFFFFFFFFFFFFFFFF AND EQ PUSH2 0x2FA5 JUMPI PUSH1 0x40 MLOAD PUSH32 0x8C379A000000000000000000000000000000000000000000000000000000000 DUP2 MSTORE PUSH1 0x4 ADD DUP1 DUP1 PUSH1 0x20 ADD DUP3 DUP2 SUB DUP3 MSTORE PUSH1 0x16 DUP2 MSTORE PUSH1 0x20 ADD DUP1 PUSH32 0x6F6E6C79206465706C6F7965722063616E2063616C6C00000000000000000000 DUP2 MSTORE POP PUSH1 0x20 ADD SWAP2 POP POP PUSH1 0x40 MLOAD DUP1 SWAP2 SUB SWAP1 REVERT JUMPDEST DUP1 PUSH1 0x3 DUP4 DUP2 SLOAD DUP2 LT PUSH2 0x2FB3 JUMPI INVALID JUMPDEST SWAP1 PUSH1 0x0 MSTORE PUSH1 0x20 PUSH1 0x0 KECCAK256 SWAP1 PUSH1 0x3 MUL ADD PUSH1 0x0 ADD PUSH1 0x0 PUSH2 0x100 EXP DUP2 SLOAD DUP2 PUSH1 0xFF MUL NOT AND SWAP1 DUP4 ISZERO ISZERO MUL OR SWAP1 SSTORE POP POP POP JUMP JUMPDEST PUSH1 0x0 PUSH1 0x4 PUSH1 0x0 DUP6 PUSH20 0xFFFFFFFFFFFFFFFFFFFFFFFFFFFFFFFFFFFFFFFF AND PUSH20 0xFFFFFFFFFFFFFFFFFFFFFFFFFFFFFFFFFFFFFFFF AND DUP2 MSTORE PUSH1 0x20 ADD SWAP1 DUP2 MSTORE PUSH1 0x20 ADD PUSH1 0x0 KECCAK256 DUP4 DUP2 SLOAD DUP2 LT PUSH2 0x302B JUMPI INVALID JUMPDEST SWAP1 PUSH1 0x0 MSTORE PUSH1 0x20 PUSH1 0x0 KECCAK256 SWAP1 PUSH1 0xA MUL ADD PUSH1 0x9 ADD PUSH1 0x0 DUP4 PUSH20 0xFFFFFFFFFFFFFFFFFFFFFFFFFFFFFFFFFFFFFFFF AND PUSH20 0xFFFFFFFFFFFFFFFFFFFFFFFFFFFFFFFFFFFFFFFF AND DUP2 MSTORE PUSH1 0x20 ADD SWAP1 DUP2 MSTORE PUSH1 0x20 ADD PUSH1 0x0 KECCAK256 PUSH1 0x0 SWAP1 SLOAD SWAP1 PUSH2 0x100 EXP SWAP1 DIV PUSH1 0xFF AND SWAP1 POP SWAP4 SWAP3 POP POP POP JUMP JUMPDEST PUSH1 0x3 DUP2 DUP2 SLOAD DUP2 LT PUSH2 0x309D JUMPI INVALID JUMPDEST SWAP1 PUSH1 0x0 MSTORE PUSH1 0x20 PUSH1 0x0 KECCAK256 SWAP1 PUSH1 0x3 MUL ADD PUSH1 0x0 SWAP2 POP SWAP1 POP DUP1 PUSH1 0x0 ADD PUSH1 0x0 SWAP1 SLOAD SWAP1 PUSH2 0x100 EXP SWAP1 DIV PUSH1 0xFF AND SWAP1 DUP1 PUSH1 0x1 ADD SLOAD SWAP1 DUP1 PUSH1 0x2 ADD SLOAD SWAP1 POP DUP4 JUMP JUMPDEST DUP3 DUP3 PUSH1 0x0 PUSH1 0x4 PUSH1 0x0 DUP5 PUSH20 0xFFFFFFFFFFFFFFFFFFFFFFFFFFFFFFFFFFFFFFFF AND PUSH20 0xFFFFFFFFFFFFFFFFFFFFFFFFFFFFFFFFFFFFFFFF AND DUP2 MSTORE PUSH1 0x20 ADD SWAP1 DUP2 MSTORE PUSH1 0x20 ADD PUSH1 0x0 KECCAK256 DUP3 DUP2 SLOAD DUP2 LT PUSH2 0x3122 JUMPI INVALID JUMPDEST SWAP1 PUSH1 0x0 MSTORE PUSH1 0x20 PUSH1 0x0 KECCAK256 SWAP1 PUSH1 0xA MUL ADD SWAP1 POP DUP3 PUSH20 0xFFFFFFFFFFFFFFFFFFFFFFFFFFFFFFFFFFFFFFFF AND CALLER PUSH20 0xFFFFFFFFFFFFFFFFFFFFFFFFFFFFFFFFFFFFFFFF AND EQ PUSH2 0x3227 JUMPI DUP1 PUSH1 0x8 ADD PUSH1 0x0 CALLER PUSH20 0xFFFFFFFFFFFFFFFFFFFFFFFFFFFFFFFFFFFFFFFF AND PUSH20 0xFFFFFFFFFFFFFFFFFFFFFFFFFFFFFFFFFFFFFFFF AND DUP2 MSTORE PUSH1 0x20 ADD SWAP1 DUP2 MSTORE PUSH1 0x20 ADD PUSH1 0x0 KECCAK256 PUSH1 0x0 SWAP1 SLOAD SWAP1 PUSH2 0x100 EXP SWAP1 DIV PUSH1 0xFF AND PUSH2 0x3226 JUMPI PUSH1 0x40 MLOAD PUSH32 0x8C379A000000000000000000000000000000000000000000000000000000000 DUP2 MSTORE PUSH1 0x4 ADD DUP1 DUP1 PUSH1 0x20 ADD DUP3 DUP2 SUB DUP3 MSTORE PUSH1 0x1A DUP2 MSTORE PUSH1 0x20 ADD DUP1 PUSH32 0x6E6F6D696E6174696F6E2073686F756C64206265207468657265000000000000 DUP2 MSTORE POP PUSH1 0x20 ADD SWAP2 POP POP PUSH1 0x40 MLOAD DUP1 SWAP2 SUB SWAP1 REVERT JUMPDEST JUMPDEST PUSH1 0x0 PUSH1 0x4 PUSH1 0x0 DUP9 PUSH20 0xFFFFFFFFFFFFFFFFFFFFFFFFFFFFFFFFFFFFFFFF AND PUSH20 0xFFFFFFFFFFFFFFFFFFFFFFFFFFFFFFFFFFFFFFFF AND DUP2 MSTORE PUSH1 0x20 ADD SWAP1 DUP2 MSTORE PUSH1 0x20 ADD PUSH1 0x0 KECCAK256 DUP7 DUP2 SLOAD DUP2 LT PUSH2 0x3273 JUMPI INVALID JUMPDEST SWAP1 PUSH1 0x0 MSTORE PUSH1 0x20 PUSH1 0x0 KECCAK256 SWAP1 PUSH1 0xA MUL ADD SWAP1 POP DUP5 PUSH1 0x1 GT ISZERO DUP1 ISZERO PUSH2 0x3295 JUMPI POP PUSH1 0xC DUP6 GT ISZERO JUMPDEST PUSH2 0x3307 JUMPI PUSH1 0x40 MLOAD PUSH32 0x8C379A000000000000000000000000000000000000000000000000000000000 DUP2 MSTORE PUSH1 0x4 ADD DUP1 DUP1 PUSH1 0x20 ADD DUP3 DUP2 SUB DUP3 MSTORE PUSH1 0x15 DUP2 MSTORE PUSH1 0x20 ADD DUP1 PUSH32 0x69642073686F756C6420626520696E2072616E67650000000000000000000000 DUP2 MSTORE POP PUSH1 0x20 ADD SWAP2 POP POP PUSH1 0x40 MLOAD DUP1 SWAP2 SUB SWAP1 REVERT JUMPDEST DUP1 PUSH1 0x7 ADD PUSH1 0x0 DUP7 DUP2 MSTORE PUSH1 0x20 ADD SWAP1 DUP2 MSTORE PUSH1 0x20 ADD PUSH1 0x0 KECCAK256 PUSH1 0x0 SWAP1 SLOAD SWAP1 PUSH2 0x100 EXP SWAP1 DIV PUSH1 0xFF AND ISZERO PUSH2 0x339D JUMPI PUSH1 0x40 MLOAD PUSH32 0x8C379A000000000000000000000000000000000000000000000000000000000 DUP2 MSTORE PUSH1 0x4 ADD DUP1 DUP1 PUSH1 0x20 ADD DUP3 DUP2 SUB DUP3 MSTORE PUSH1 0x19 DUP2 MSTORE PUSH1 0x20 ADD DUP1 PUSH32 0x626F6F7374657220616C72656164792077697468647261776E00000000000000 DUP2 MSTORE POP PUSH1 0x20 ADD SWAP2 POP POP PUSH1 0x40 MLOAD DUP1 SWAP2 SUB SWAP1 REVERT JUMPDEST DUP1 PUSH1 0x1 ADD SLOAD DUP2 PUSH1 0x6 ADD PUSH1 0x0 DUP8 PUSH1 0xD SUB DUP2 MSTORE PUSH1 0x20 ADD SWAP1 DUP2 MSTORE PUSH1 0x20 ADD PUSH1 0x0 KECCAK256 SLOAD LT ISZERO PUSH2 0x342F JUMPI PUSH1 0x40 MLOAD PUSH32 0x8C379A000000000000000000000000000000000000000000000000000000000 DUP2 MSTORE PUSH1 0x4 ADD DUP1 DUP1 PUSH1 0x20 ADD DUP3 DUP2 SUB DUP3 MSTORE PUSH1 0x13 DUP2 MSTORE PUSH1 0x20 ADD DUP1 PUSH32 0x746172676574206E6F7420616368696576656400000000000000000000000000 DUP2 MSTORE POP PUSH1 0x20 ADD SWAP2 POP POP PUSH1 0x40 MLOAD DUP1 SWAP2 SUB SWAP1 REVERT JUMPDEST PUSH1 0x0 PUSH2 0x3442 DUP9 DUP9 PUSH1 0x1 PUSH1 0x5 DUP11 MUL ADD PUSH2 0x2C5A JUMP JUMPDEST SWAP1 POP DUP1 PUSH1 0x2 PUSH1 0x0 SWAP1 SLOAD SWAP1 PUSH2 0x100 EXP SWAP1 DIV PUSH20 0xFFFFFFFFFFFFFFFFFFFFFFFFFFFFFFFFFFFFFFFF AND PUSH20 0xFFFFFFFFFFFFFFFFFFFFFFFFFFFFFFFFFFFFFFFF AND PUSH4 0xB81F90F3 PUSH1 0x40 MLOAD DUP2 PUSH4 0xFFFFFFFF AND PUSH1 0xE0 SHL DUP2 MSTORE PUSH1 0x4 ADD PUSH1 0x20 PUSH1 0x40 MLOAD DUP1 DUP4 SUB DUP2 DUP7 DUP1 EXTCODESIZE ISZERO DUP1 ISZERO PUSH2 0x34AD JUMPI PUSH1 0x0 DUP1 REVERT JUMPDEST POP GAS STATICCALL ISZERO DUP1 ISZERO PUSH2 0x34C1 JUMPI RETURNDATASIZE PUSH1 0x0 DUP1 RETURNDATACOPY RETURNDATASIZE PUSH1 0x0 REVERT JUMPDEST POP POP POP POP PUSH1 0x40 MLOAD RETURNDATASIZE PUSH1 0x20 DUP2 LT ISZERO PUSH2 0x34D7 JUMPI PUSH1 0x0 DUP1 REVERT JUMPDEST DUP2 ADD SWAP1 DUP1 DUP1 MLOAD SWAP1 PUSH1 0x20 ADD SWAP1 SWAP3 SWAP2 SWAP1 POP POP POP LT ISZERO PUSH2 0x355C JUMPI PUSH1 0x40 MLOAD PUSH32 0x8C379A000000000000000000000000000000000000000000000000000000000 DUP2 MSTORE PUSH1 0x4 ADD DUP1 DUP1 PUSH1 0x20 ADD DUP3 DUP2 SUB DUP3 MSTORE PUSH1 0x15 DUP2 MSTORE PUSH1 0x20 ADD DUP1 PUSH32 0x63616E6E6F74207769746864726177206561726C790000000000000000000000 DUP2 MSTORE POP PUSH1 0x20 ADD SWAP2 POP POP PUSH1 0x40 MLOAD DUP1 SWAP2 SUB SWAP1 REVERT JUMPDEST PUSH1 0x0 PUSH2 0x3568 DUP10 DUP10 PUSH2 0x28C0 JUMP JUMPDEST SWAP1 POP PUSH1 0x1 DUP4 PUSH1 0x7 ADD PUSH1 0x0 DUP10 DUP2 MSTORE PUSH1 0x20 ADD SWAP1 DUP2 MSTORE PUSH1 0x20 ADD PUSH1 0x0 KECCAK256 PUSH1 0x0 PUSH2 0x100 EXP DUP2 SLOAD DUP2 PUSH1 0xFF MUL NOT AND SWAP1 DUP4 ISZERO ISZERO MUL OR SWAP1 SSTORE POP PUSH1 0x0 DUP2 GT ISZERO PUSH2 0x3687 JUMPI PUSH1 0x2 PUSH1 0x0 SWAP1 SLOAD SWAP1 PUSH2 0x100 EXP SWAP1 DIV PUSH20 0xFFFFFFFFFFFFFFFFFFFFFFFFFFFFFFFFFFFFFFFF AND PUSH20 0xFFFFFFFFFFFFFFFFFFFFFFFFFFFFFFFFFFFFFFFF AND PUSH4 0xA9059CBB CALLER DUP4 PUSH1 0x40 MLOAD DUP4 PUSH4 0xFFFFFFFF AND PUSH1 0xE0 SHL DUP2 MSTORE PUSH1 0x4 ADD DUP1 DUP4 PUSH20 0xFFFFFFFFFFFFFFFFFFFFFFFFFFFFFFFFFFFFFFFF AND PUSH20 0xFFFFFFFFFFFFFFFFFFFFFFFFFFFFFFFFFFFFFFFF AND DUP2 MSTORE PUSH1 0x20 ADD DUP3 DUP2 MSTORE PUSH1 0x20 ADD SWAP3 POP POP POP PUSH1 0x20 PUSH1 0x40 MLOAD DUP1 DUP4 SUB DUP2 PUSH1 0x0 DUP8 DUP1 EXTCODESIZE ISZERO DUP1 ISZERO PUSH2 0x364A JUMPI PUSH1 0x0 DUP1 REVERT JUMPDEST POP GAS CALL ISZERO DUP1 ISZERO PUSH2 0x365E JUMPI RETURNDATASIZE PUSH1 0x0 DUP1 RETURNDATACOPY RETURNDATASIZE PUSH1 0x0 REVERT JUMPDEST POP POP POP POP PUSH1 0x40 MLOAD RETURNDATASIZE PUSH1 0x20 DUP2 LT ISZERO PUSH2 0x3674 JUMPI PUSH1 0x0 DUP1 REVERT JUMPDEST DUP2 ADD SWAP1 DUP1 DUP1 MLOAD SWAP1 PUSH1 0x20 ADD SWAP1 SWAP3 SWAP2 SWAP1 POP POP POP POP JUMPDEST DUP8 DUP10 PUSH20 0xFFFFFFFFFFFFFFFFFFFFFFFFFFFFFFFFFFFFFFFF AND PUSH32 0xA1C568EF1602BC58C1E32EA2F1251B87874DCE947F5D4F4DF53677D06D5BF56D DUP10 DUP5 CALLER PUSH1 0x40 MLOAD DUP1 DUP5 DUP2 MSTORE PUSH1 0x20 ADD DUP4 DUP2 MSTORE PUSH1 0x20 ADD DUP3 PUSH20 0xFFFFFFFFFFFFFFFFFFFFFFFFFFFFFFFFFFFFFFFF AND PUSH20 0xFFFFFFFFFFFFFFFFFFFFFFFFFFFFFFFFFFFFFFFF AND DUP2 MSTORE PUSH1 0x20 ADD SWAP4 POP POP POP POP PUSH1 0x40 MLOAD DUP1 SWAP2 SUB SWAP1 LOG3 POP POP POP POP POP POP POP POP POP JUMP JUMPDEST PUSH1 0x0 PUSH1 0x4 PUSH1 0x0 DUP5 PUSH20 0xFFFFFFFFFFFFFFFFFFFFFFFFFFFFFFFFFFFFFFFF AND PUSH20 0xFFFFFFFFFFFFFFFFFFFFFFFFFFFFFFFFFFFFFFFF AND DUP2 MSTORE PUSH1 0x20 ADD SWAP1 DUP2 MSTORE PUSH1 0x20 ADD PUSH1 0x0 KECCAK256 DUP3 DUP2 SLOAD DUP2 LT PUSH2 0x3769 JUMPI INVALID JUMPDEST SWAP1 PUSH1 0x0 MSTORE PUSH1 0x20 PUSH1 0x0 KECCAK256 SWAP1 PUSH1 0xA MUL ADD SWAP1 POP DUP1 PUSH1 0x9 ADD PUSH1 0x0 CALLER PUSH20 0xFFFFFFFFFFFFFFFFFFFFFFFFFFFFFFFFFFFFFFFF AND PUSH20 0xFFFFFFFFFFFFFFFFFFFFFFFFFFFFFFFFFFFFFFFF AND DUP2 MSTORE PUSH1 0x20 ADD SWAP1 DUP2 MSTORE PUSH1 0x20 ADD PUSH1 0x0 KECCAK256 PUSH1 0x0 SWAP1 SLOAD SWAP1 PUSH2 0x100 EXP SWAP1 DIV PUSH1 0xFF AND PUSH2 0x383A JUMPI PUSH1 0x40 MLOAD PUSH32 0x8C379A000000000000000000000000000000000000000000000000000000000 DUP2 MSTORE PUSH1 0x4 ADD DUP1 DUP1 PUSH1 0x20 ADD DUP3 DUP2 SUB DUP3 MSTORE PUSH1 0x20 DUP2 MSTORE PUSH1 0x20 ADD DUP1 PUSH32 0x73686F756C64206265206170706F696E74656520746F206361737420766F7465 DUP2 MSTORE POP PUSH1 0x20 ADD SWAP2 POP POP PUSH1 0x40 MLOAD DUP1 SWAP2 SUB SWAP1 REVERT JUMPDEST PUSH1 0x0 DUP2 PUSH1 0x9 ADD PUSH1 0x0 CALLER PUSH20 0xFFFFFFFFFFFFFFFFFFFFFFFFFFFFFFFFFFFFFFFF AND PUSH20 0xFFFFFFFFFFFFFFFFFFFFFFFFFFFFFFFFFFFFFFFF AND DUP2 MSTORE PUSH1 0x20 ADD SWAP1 DUP2 MSTORE PUSH1 0x20 ADD PUSH1 0x0 KECCAK256 PUSH1 0x0 PUSH2 0x100 EXP DUP2 SLOAD DUP2 PUSH1 0xFF MUL NOT AND SWAP1 DUP4 ISZERO ISZERO MUL OR SWAP1 SSTORE POP PUSH2 0x38AC PUSH1 0x1 DUP3 PUSH1 0x4 ADD SLOAD PUSH2 0x3CBC SWAP1 SWAP2 SWAP1 PUSH4 0xFFFFFFFF AND JUMP JUMPDEST DUP2 PUSH1 0x4 ADD DUP2 SWAP1 SSTORE POP CALLER PUSH20 0xFFFFFFFFFFFFFFFFFFFFFFFFFFFFFFFFFFFFFFFF AND DUP3 DUP5 PUSH20 0xFFFFFFFFFFFFFFFFFFFFFFFFFFFFFFFFFFFFFFFF AND PUSH32 0x57E90B4A498A7310FAB91955C915F3F15A0D1A94B296F824DA9443D524EA2E1B PUSH1 0x40 MLOAD PUSH1 0x40 MLOAD DUP1 SWAP2 SUB SWAP1 LOG4 POP POP POP JUMP JUMPDEST PUSH1 0x0 PUSH1 0x4 PUSH1 0x0 CALLER PUSH20 0xFFFFFFFFFFFFFFFFFFFFFFFFFFFFFFFFFFFFFFFF AND PUSH20 0xFFFFFFFFFFFFFFFFFFFFFFFFFFFFFFFFFFFFFFFF AND DUP2 MSTORE PUSH1 0x20 ADD SWAP1 DUP2 MSTORE PUSH1 0x20 ADD PUSH1 0x0 KECCAK256 DUP5 DUP2 SLOAD DUP2 LT PUSH2 0x3960 JUMPI INVALID JUMPDEST SWAP1 PUSH1 0x0 MSTORE PUSH1 0x20 PUSH1 0x0 KECCAK256 SWAP1 PUSH1 0xA MUL ADD SWAP1 POP DUP1 PUSH1 0x9 ADD PUSH1 0x0 DUP5 PUSH20 0xFFFFFFFFFFFFFFFFFFFFFFFFFFFFFFFFFFFFFFFF AND PUSH20 0xFFFFFFFFFFFFFFFFFFFFFFFFFFFFFFFFFFFFFFFF AND DUP2 MSTORE PUSH1 0x20 ADD SWAP1 DUP2 MSTORE PUSH1 0x20 ADD PUSH1 0x0 KECCAK256 PUSH1 0x0 SWAP1 SLOAD SWAP1 PUSH2 0x100 EXP SWAP1 DIV PUSH1 0xFF AND ISZERO DUP1 ISZERO PUSH2 0x39C9 JUMPI POP DUP2 JUMPDEST ISZERO PUSH2 0x3A4D JUMPI PUSH2 0x39E6 PUSH1 0x1 DUP3 PUSH1 0x5 ADD SLOAD PUSH2 0x3CBC SWAP1 SWAP2 SWAP1 PUSH4 0xFFFFFFFF AND JUMP JUMPDEST DUP2 PUSH1 0x5 ADD DUP2 SWAP1 SSTORE POP PUSH1 0x1 DUP2 PUSH1 0x9 ADD PUSH1 0x0 DUP6 PUSH20 0xFFFFFFFFFFFFFFFFFFFFFFFFFFFFFFFFFFFFFFFF AND PUSH20 0xFFFFFFFFFFFFFFFFFFFFFFFFFFFFFFFFFFFFFFFF AND DUP2 MSTORE PUSH1 0x20 ADD SWAP1 DUP2 MSTORE PUSH1 0x20 ADD PUSH1 0x0 KECCAK256 PUSH1 0x0 PUSH2 0x100 EXP DUP2 SLOAD DUP2 PUSH1 0xFF MUL NOT AND SWAP1 DUP4 ISZERO ISZERO MUL OR SWAP1 SSTORE POP PUSH2 0x3B27 JUMP JUMPDEST DUP1 PUSH1 0x9 ADD PUSH1 0x0 DUP5 PUSH20 0xFFFFFFFFFFFFFFFFFFFFFFFFFFFFFFFFFFFFFFFF AND PUSH20 0xFFFFFFFFFFFFFFFFFFFFFFFFFFFFFFFFFFFFFFFF AND DUP2 MSTORE PUSH1 0x20 ADD SWAP1 DUP2 MSTORE PUSH1 0x20 ADD PUSH1 0x0 KECCAK256 PUSH1 0x0 SWAP1 SLOAD SWAP1 PUSH2 0x100 EXP SWAP1 DIV PUSH1 0xFF AND DUP1 ISZERO PUSH2 0x3AA6 JUMPI POP DUP2 ISZERO JUMPDEST ISZERO PUSH2 0x3B26 JUMPI PUSH1 0x0 DUP2 PUSH1 0x9 ADD PUSH1 0x0 DUP6 PUSH20 0xFFFFFFFFFFFFFFFFFFFFFFFFFFFFFFFFFFFFFFFF AND PUSH20 0xFFFFFFFFFFFFFFFFFFFFFFFFFFFFFFFFFFFFFFFF AND DUP2 MSTORE PUSH1 0x20 ADD SWAP1 DUP2 MSTORE PUSH1 0x20 ADD PUSH1 0x0 KECCAK256 PUSH1 0x0 PUSH2 0x100 EXP DUP2 SLOAD DUP2 PUSH1 0xFF MUL NOT AND SWAP1 DUP4 ISZERO ISZERO MUL OR SWAP1 SSTORE POP PUSH2 0x3B1D PUSH1 0x1 DUP3 PUSH1 0x5 ADD SLOAD PUSH2 0x3C72 SWAP1 SWAP2 SWAP1 PUSH4 0xFFFFFFFF AND JUMP JUMPDEST DUP2 PUSH1 0x5 ADD DUP2 SWAP1 SSTORE POP JUMPDEST JUMPDEST DUP3 PUSH20 0xFFFFFFFFFFFFFFFFFFFFFFFFFFFFFFFFFFFFFFFF AND DUP5 CALLER PUSH20 0xFFFFFFFFFFFFFFFFFFFFFFFFFFFFFFFFFFFFFFFF AND PUSH32 0xF7A6207B27953EFF117F9B7C03E363D41370A45E2B626D2AA32C6A0AC6365782 DUP6 PUSH1 0x40 MLOAD DUP1 DUP3 ISZERO ISZERO ISZERO ISZERO DUP2 MSTORE PUSH1 0x20 ADD SWAP2 POP POP PUSH1 0x40 MLOAD DUP1 SWAP2 SUB SWAP1 LOG4 POP POP POP POP JUMP JUMPDEST PUSH1 0x0 DUP1 SWAP1 SLOAD SWAP1 PUSH2 0x100 EXP SWAP1 DIV PUSH20 0xFFFFFFFFFFFFFFFFFFFFFFFFFFFFFFFFFFFFFFFF AND DUP2 JUMP JUMPDEST PUSH1 0x0 PUSH1 0x4 PUSH1 0x0 DUP6 PUSH20 0xFFFFFFFFFFFFFFFFFFFFFFFFFFFFFFFFFFFFFFFF AND PUSH20 0xFFFFFFFFFFFFFFFFFFFFFFFFFFFFFFFFFFFFFFFF AND DUP2 MSTORE PUSH1 0x20 ADD SWAP1 DUP2 MSTORE PUSH1 0x20 ADD PUSH1 0x0 KECCAK256 DUP4 DUP2 SLOAD DUP2 LT PUSH2 0x3C08 JUMPI INVALID JUMPDEST SWAP1 PUSH1 0x0 MSTORE PUSH1 0x20 PUSH1 0x0 KECCAK256 SWAP1 PUSH1 0xA MUL ADD PUSH1 0x6 ADD PUSH1 0x0 DUP4 DUP2 MSTORE PUSH1 0x20 ADD SWAP1 DUP2 MSTORE PUSH1 0x20 ADD PUSH1 0x0 KECCAK256 SLOAD SWAP1 POP SWAP4 SWAP3 POP POP POP JUMP JUMPDEST PUSH1 0x5 PUSH1 0x20 MSTORE DUP1 PUSH1 0x0 MSTORE PUSH1 0x40 PUSH1 0x0 KECCAK256 PUSH1 0x0 SWAP2 POP SWAP1 POP SLOAD DUP2 JUMP JUMPDEST PUSH1 0x2 PUSH1 0x0 SWAP1 SLOAD SWAP1 PUSH2 0x100 EXP SWAP1 DIV PUSH20 0xFFFFFFFFFFFFFFFFFFFFFFFFFFFFFFFFFFFFFFFF AND DUP2 JUMP JUMPDEST PUSH1 0x0 PUSH2 0x3CB4 DUP4 DUP4 PUSH1 0x40 MLOAD DUP1 PUSH1 0x40 ADD PUSH1 0x40 MSTORE DUP1 PUSH1 0x1E DUP2 MSTORE PUSH1 0x20 ADD PUSH32 0x536166654D6174683A207375627472616374696F6E206F766572666C6F770000 DUP2 MSTORE POP PUSH2 0x41D7 JUMP JUMPDEST SWAP1 POP SWAP3 SWAP2 POP POP JUMP JUMPDEST PUSH1 0x0 DUP1 DUP3 DUP5 ADD SWAP1 POP DUP4 DUP2 LT ISZERO PUSH2 0x3D3A JUMPI PUSH1 0x40 MLOAD PUSH32 0x8C379A000000000000000000000000000000000000000000000000000000000 DUP2 MSTORE PUSH1 0x4 ADD DUP1 DUP1 PUSH1 0x20 ADD DUP3 DUP2 SUB DUP3 MSTORE PUSH1 0x1B DUP2 MSTORE PUSH1 0x20 ADD DUP1 PUSH32 0x536166654D6174683A206164646974696F6E206F766572666C6F770000000000 DUP2 MSTORE POP PUSH1 0x20 ADD SWAP2 POP POP PUSH1 0x40 MLOAD DUP1 SWAP2 SUB SWAP1 REVERT JUMPDEST DUP1 SWAP2 POP POP SWAP3 SWAP2 POP POP JUMP JUMPDEST PUSH1 0x0 PUSH2 0x3D86 DUP4 DUP4 PUSH1 0x40 MLOAD DUP1 PUSH1 0x40 ADD PUSH1 0x40 MSTORE DUP1 PUSH1 0x1A DUP2 MSTORE PUSH1 0x20 ADD PUSH32 0x536166654D6174683A206469766973696F6E206279207A65726F000000000000 DUP2 MSTORE POP PUSH2 0x4297 JUMP JUMPDEST SWAP1 POP SWAP3 SWAP2 POP POP JUMP JUMPDEST PUSH1 0x0 DUP1 DUP5 PUSH1 0x0 ADD SLOAD SWAP1 POP PUSH1 0x0 DUP1 DUP6 EQ ISZERO PUSH2 0x3DBD JUMPI DUP6 PUSH1 0x6 ADD PUSH1 0x0 DUP6 DUP2 MSTORE PUSH1 0x20 ADD SWAP1 DUP2 MSTORE PUSH1 0x20 ADD PUSH1 0x0 KECCAK256 SLOAD PUSH2 0x3DBF JUMP JUMPDEST DUP5 JUMPDEST SWAP1 POP PUSH1 0x0 DUP7 PUSH1 0x1 ADD SLOAD SWAP1 POP PUSH1 0x0 PUSH1 0x3 DUP5 DUP2 SLOAD DUP2 LT PUSH2 0x3DD9 JUMPI INVALID JUMPDEST SWAP1 PUSH1 0x0 MSTORE PUSH1 0x20 PUSH1 0x0 KECCAK256 SWAP1 PUSH1 0x3 MUL ADD SWAP1 POP PUSH1 0x0 DUP3 DUP5 GT ISZERO PUSH2 0x3E38 JUMPI PUSH1 0x0 PUSH2 0x3E08 DUP5 DUP7 PUSH2 0x3C72 SWAP1 SWAP2 SWAP1 PUSH4 0xFFFFFFFF AND JUMP JUMPDEST SWAP1 POP PUSH2 0x3E30 PUSH2 0x3E21 PUSH1 0x2 DUP4 PUSH2 0x3D44 SWAP1 SWAP2 SWAP1 PUSH4 0xFFFFFFFF AND JUMP JUMPDEST DUP6 PUSH2 0x3CBC SWAP1 SWAP2 SWAP1 PUSH4 0xFFFFFFFF AND JUMP JUMPDEST SWAP2 POP POP PUSH2 0x3E57 JUMP JUMPDEST PUSH2 0x3E4C PUSH1 0x2 DUP5 PUSH2 0x3D44 SWAP1 SWAP2 SWAP1 PUSH4 0xFFFFFFFF AND JUMP JUMPDEST DUP5 LT PUSH2 0x3E56 JUMPI DUP4 SWAP1 POP JUMPDEST JUMPDEST PUSH1 0x0 PUSH2 0x3E63 DUP6 DUP6 PUSH2 0x414C JUMP JUMPDEST SWAP1 POP PUSH1 0x0 DUP3 SWAP1 POP PUSH2 0x3E7E PUSH1 0x2 DUP7 PUSH2 0x3D44 SWAP1 SWAP2 SWAP1 PUSH4 0xFFFFFFFF AND JUMP JUMPDEST DUP7 LT ISZERO DUP1 PUSH2 0x3E8C JUMPI POP PUSH1 0xC DUP10 EQ JUMPDEST ISZERO PUSH2 0x3EE4 JUMPI PUSH2 0x3EE1 PUSH2 0x3ED2 PUSH2 0x3E8 PUSH2 0x3EC4 PUSH1 0x5 PUSH2 0x3EB6 DUP10 PUSH1 0x2 ADD SLOAD DUP9 PUSH2 0x3EF5 SWAP1 SWAP2 SWAP1 PUSH4 0xFFFFFFFF AND JUMP JUMPDEST PUSH2 0x3EF5 SWAP1 SWAP2 SWAP1 PUSH4 0xFFFFFFFF AND JUMP JUMPDEST PUSH2 0x3D44 SWAP1 SWAP2 SWAP1 PUSH4 0xFFFFFFFF AND JUMP JUMPDEST DUP3 PUSH2 0x3CBC SWAP1 SWAP2 SWAP1 PUSH4 0xFFFFFFFF AND JUMP JUMPDEST SWAP1 POP JUMPDEST DUP1 SWAP8 POP POP POP POP POP POP POP POP SWAP4 SWAP3 POP POP POP JUMP JUMPDEST PUSH1 0x0 DUP1 DUP4 EQ ISZERO PUSH2 0x3F08 JUMPI PUSH1 0x0 SWAP1 POP PUSH2 0x3F75 JUMP JUMPDEST PUSH1 0x0 DUP3 DUP5 MUL SWAP1 POP DUP3 DUP5 DUP3 DUP2 PUSH2 0x3F19 JUMPI INVALID JUMPDEST DIV EQ PUSH2 0x3F70 JUMPI PUSH1 0x40 MLOAD PUSH32 0x8C379A000000000000000000000000000000000000000000000000000000000 DUP2 MSTORE PUSH1 0x4 ADD DUP1 DUP1 PUSH1 0x20 ADD DUP3 DUP2 SUB DUP3 MSTORE PUSH1 0x21 DUP2 MSTORE PUSH1 0x20 ADD DUP1 PUSH2 0x4381 PUSH1 0x21 SWAP2 CODECOPY PUSH1 0x40 ADD SWAP2 POP POP PUSH1 0x40 MLOAD DUP1 SWAP2 SUB SWAP1 REVERT JUMPDEST DUP1 SWAP2 POP POP JUMPDEST SWAP3 SWAP2 POP POP JUMP JUMPDEST PUSH1 0x0 PUSH1 0x4 PUSH1 0x0 DUP5 PUSH20 0xFFFFFFFFFFFFFFFFFFFFFFFFFFFFFFFFFFFFFFFF AND PUSH20 0xFFFFFFFFFFFFFFFFFFFFFFFFFFFFFFFFFFFFFFFF AND DUP2 MSTORE PUSH1 0x20 ADD SWAP1 DUP2 MSTORE PUSH1 0x20 ADD PUSH1 0x0 KECCAK256 DUP3 DUP2 SLOAD DUP2 LT PUSH2 0x3FC7 JUMPI INVALID JUMPDEST SWAP1 PUSH1 0x0 MSTORE PUSH1 0x20 PUSH1 0x0 KECCAK256 SWAP1 PUSH1 0xA MUL ADD SWAP1 POP PUSH1 0x0 DUP1 PUSH1 0x1 SWAP1 POP JUMPDEST PUSH1 0xC DUP2 GT PUSH2 0x401E JUMPI DUP3 PUSH1 0x1 ADD SLOAD DUP4 PUSH1 0x6 ADD PUSH1 0x0 DUP4 DUP2 MSTORE PUSH1 0x20 ADD SWAP1 DUP2 MSTORE PUSH1 0x20 ADD PUSH1 0x0 KECCAK256 SLOAD LT ISZERO PUSH2 0x4011 JUMPI DUP2 DUP1 PUSH1 0x1 ADD SWAP3 POP POP JUMPDEST DUP1 DUP1 PUSH1 0x1 ADD SWAP2 POP POP PUSH2 0x3FDF JUMP JUMPDEST POP PUSH1 0x0 PUSH2 0x402B DUP6 DUP6 PUSH2 0x28C0 JUMP JUMPDEST SWAP1 POP PUSH1 0x0 PUSH2 0x4042 DUP4 DUP4 PUSH2 0x3EF5 SWAP1 SWAP2 SWAP1 PUSH4 0xFFFFFFFF AND JUMP JUMPDEST SWAP1 POP PUSH1 0x2 PUSH1 0x0 SWAP1 SLOAD SWAP1 PUSH2 0x100 EXP SWAP1 DIV PUSH20 0xFFFFFFFFFFFFFFFFFFFFFFFFFFFFFFFFFFFFFFFF AND PUSH20 0xFFFFFFFFFFFFFFFFFFFFFFFFFFFFFFFFFFFFFFFF AND PUSH4 0x42966C68 DUP3 PUSH1 0x40 MLOAD DUP3 PUSH4 0xFFFFFFFF AND PUSH1 0xE0 SHL DUP2 MSTORE PUSH1 0x4 ADD DUP1 DUP3 DUP2 MSTORE PUSH1 0x20 ADD SWAP2 POP POP PUSH1 0x0 PUSH1 0x40 MLOAD DUP1 DUP4 SUB DUP2 PUSH1 0x0 DUP8 DUP1 EXTCODESIZE ISZERO DUP1 ISZERO PUSH2 0x40B9 JUMPI PUSH1 0x0 DUP1 REVERT JUMPDEST POP GAS CALL ISZERO DUP1 ISZERO PUSH2 0x40CD JUMPI RETURNDATASIZE PUSH1 0x0 DUP1 RETURNDATACOPY RETURNDATASIZE PUSH1 0x0 REVERT JUMPDEST POP POP POP POP PUSH32 0xD5D3899D9EC9513F6566105E58D4A87A89E47BCE6BB44C2ADE5DF7CB3413CCF7 DUP7 DUP7 DUP4 PUSH1 0x40 MLOAD DUP1 DUP5 PUSH20 0xFFFFFFFFFFFFFFFFFFFFFFFFFFFFFFFFFFFFFFFF AND PUSH20 0xFFFFFFFFFFFFFFFFFFFFFFFFFFFFFFFFFFFFFFFF AND DUP2 MSTORE PUSH1 0x20 ADD DUP4 DUP2 MSTORE PUSH1 0x20 ADD DUP3 DUP2 MSTORE PUSH1 0x20 ADD SWAP4 POP POP POP POP PUSH1 0x40 MLOAD DUP1 SWAP2 SUB SWAP1 LOG1 POP POP POP POP POP POP JUMP JUMPDEST PUSH1 0x0 DUP1 DUP3 DUP5 GT ISZERO PUSH2 0x419C JUMPI PUSH1 0x0 PUSH2 0x416C DUP5 DUP7 PUSH2 0x3C72 SWAP1 SWAP2 SWAP1 PUSH4 0xFFFFFFFF AND JUMP JUMPDEST SWAP1 POP PUSH2 0x4194 PUSH2 0x4185 PUSH1 0x2 DUP4 PUSH2 0x3D44 SWAP1 SWAP2 SWAP1 PUSH4 0xFFFFFFFF AND JUMP JUMPDEST DUP6 PUSH2 0x3CBC SWAP1 SWAP2 SWAP1 PUSH4 0xFFFFFFFF AND JUMP JUMPDEST SWAP2 POP POP PUSH2 0x41BB JUMP JUMPDEST PUSH2 0x41B0 PUSH1 0x2 DUP5 PUSH2 0x3D44 SWAP1 SWAP2 SWAP1 PUSH4 0xFFFFFFFF AND JUMP JUMPDEST DUP5 LT PUSH2 0x41BA JUMPI DUP4 SWAP1 POP JUMPDEST JUMPDEST PUSH2 0x41CE DUP2 DUP6 PUSH2 0x3CBC SWAP1 SWAP2 SWAP1 PUSH4 0xFFFFFFFF AND JUMP JUMPDEST SWAP2 POP POP SWAP3 SWAP2 POP POP JUMP JUMPDEST PUSH1 0x0 DUP4 DUP4 GT ISZERO DUP3 SWAP1 PUSH2 0x4284 JUMPI PUSH1 0x40 MLOAD PUSH32 0x8C379A000000000000000000000000000000000000000000000000000000000 DUP2 MSTORE PUSH1 0x4 ADD DUP1 DUP1 PUSH1 0x20 ADD DUP3 DUP2 SUB DUP3 MSTORE DUP4 DUP2 DUP2 MLOAD DUP2 MSTORE PUSH1 0x20 ADD SWAP2 POP DUP1 MLOAD SWAP1 PUSH1 0x20 ADD SWAP1 DUP1 DUP4 DUP4 PUSH1 0x0 JUMPDEST DUP4 DUP2 LT ISZERO PUSH2 0x4249 JUMPI DUP1 DUP3 ADD MLOAD DUP2 DUP5 ADD MSTORE PUSH1 0x20 DUP2 ADD SWAP1 POP PUSH2 0x422E JUMP JUMPDEST POP POP POP POP SWAP1 POP SWAP1 DUP2 ADD SWAP1 PUSH1 0x1F AND DUP1 ISZERO PUSH2 0x4276 JUMPI DUP1 DUP3 SUB DUP1 MLOAD PUSH1 0x1 DUP4 PUSH1 0x20 SUB PUSH2 0x100 EXP SUB NOT AND DUP2 MSTORE PUSH1 0x20 ADD SWAP2 POP JUMPDEST POP SWAP3 POP POP POP PUSH1 0x40 MLOAD DUP1 SWAP2 SUB SWAP1 REVERT JUMPDEST POP PUSH1 0x0 DUP4 DUP6 SUB SWAP1 POP DUP1 SWAP2 POP POP SWAP4 SWAP3 POP POP POP JUMP JUMPDEST PUSH1 0x0 DUP1 DUP4 GT DUP3 SWAP1 PUSH2 0x4343 JUMPI PUSH1 0x40 MLOAD PUSH32 0x8C379A000000000000000000000000000000000000000000000000000000000 DUP2 MSTORE PUSH1 0x4 ADD DUP1 DUP1 PUSH1 0x20 ADD DUP3 DUP2 SUB DUP3 MSTORE DUP4 DUP2 DUP2 MLOAD DUP2 MSTORE PUSH1 0x20 ADD SWAP2 POP DUP1 MLOAD SWAP1 PUSH1 0x20 ADD SWAP1 DUP1 DUP4 DUP4 PUSH1 0x0 JUMPDEST DUP4 DUP2 LT ISZERO PUSH2 0x4308 JUMPI DUP1 DUP3 ADD MLOAD DUP2 DUP5 ADD MSTORE PUSH1 0x20 DUP2 ADD SWAP1 POP PUSH2 0x42ED JUMP JUMPDEST POP POP POP POP SWAP1 POP SWAP1 DUP2 ADD SWAP1 PUSH1 0x1F AND DUP1 ISZERO PUSH2 0x4335 JUMPI DUP1 DUP3 SUB DUP1 MLOAD PUSH1 0x1 DUP4 PUSH1 0x20 SUB PUSH2 0x100 EXP SUB NOT AND DUP2 MSTORE PUSH1 0x20 ADD SWAP2 POP JUMPDEST POP SWAP3 POP POP POP PUSH1 0x40 MLOAD DUP1 SWAP2 SUB SWAP1 REVERT JUMPDEST POP PUSH1 0x0 DUP4 DUP6 DUP2 PUSH2 0x434F JUMPI INVALID JUMPDEST DIV SWAP1 POP DUP1 SWAP2 POP POP SWAP4 SWAP3 POP POP POP JUMP INVALID PUSH2 0x6C6C PUSH16 0x776564206F6E6C7920696E2066726573 PUSH9 0x206D6F6E7468206465 PUSH17 0x6F736974536166654D6174683A206D756C PUSH21 0x69706C69636174696F6E206F766572666C6F776361 PUSH15 0x6E6F74206465706F73697420616674 PUSH6 0x722061636375 PUSH14 0x756C6174696F6E20706572696F64 PUSH5 0x65706F7369 PUSH21 0x20616D6F756E742073686F756C64206265206E6F6E KECCAK256 PUSH27 0x65726FA264697066735822122059DD059EA8F67CF6A2AC18159E5E LOG1 0xB6 PUSH30 0x635182763E761BC23C98037264225564736F6C6343000601003360806040 MSTORE CALLVALUE DUP1 ISZERO PUSH2 0x10 JUMPI PUSH1 0x0 DUP1 REVERT JUMPDEST POP PUSH1 0x40 MLOAD PUSH2 0x8F1 CODESIZE SUB DUP1 PUSH2 0x8F1 DUP4 CODECOPY DUP2 DUP2 ADD PUSH1 0x40 MSTORE PUSH1 0x40 DUP2 LT ISZERO PUSH2 0x33 JUMPI PUSH1 0x0 DUP1 REVERT JUMPDEST DUP2 ADD SWAP1 DUP1 DUP1 MLOAD SWAP1 PUSH1 0x20 ADD SWAP1 SWAP3 SWAP2 SWAP1 DUP1 MLOAD SWAP1 PUSH1 0x20 ADD SWAP1 SWAP3 SWAP2 SWAP1 POP POP POP DUP2 PUSH1 0x1 PUSH1 0x0 PUSH2 0x100 EXP DUP2 SLOAD DUP2 PUSH20 0xFFFFFFFFFFFFFFFFFFFFFFFFFFFFFFFFFFFFFFFF MUL NOT AND SWAP1 DUP4 PUSH20 0xFFFFFFFFFFFFFFFFFFFFFFFFFFFFFFFFFFFFFFFF AND MUL OR SWAP1 SSTORE POP DUP1 PUSH1 0x0 DUP1 PUSH2 0x100 EXP DUP2 SLOAD DUP2 PUSH20 0xFFFFFFFFFFFFFFFFFFFFFFFFFFFFFFFFFFFFFFFF MUL NOT AND SWAP1 DUP4 PUSH20 0xFFFFFFFFFFFFFFFFFFFFFFFFFFFFFFFFFFFFFFFF AND MUL OR SWAP1 SSTORE POP CALLER PUSH1 0x2 PUSH1 0x0 PUSH2 0x100 EXP DUP2 SLOAD DUP2 PUSH20 0xFFFFFFFFFFFFFFFFFFFFFFFFFFFFFFFFFFFFFFFF MUL NOT AND SWAP1 DUP4 PUSH20 0xFFFFFFFFFFFFFFFFFFFFFFFFFFFFFFFFFFFFFFFF AND MUL OR SWAP1 SSTORE POP POP POP PUSH2 0x7D0 DUP1 PUSH2 0x121 PUSH1 0x0 CODECOPY PUSH1 0x0 RETURN INVALID PUSH1 0x80 PUSH1 0x40 MSTORE CALLVALUE DUP1 ISZERO PUSH2 0x10 JUMPI PUSH1 0x0 DUP1 REVERT JUMPDEST POP PUSH1 0x4 CALLDATASIZE LT PUSH2 0x57 JUMPI PUSH1 0x0 CALLDATALOAD PUSH1 0xE0 SHR DUP1 PUSH4 0x3B4D8A7D EQ PUSH2 0x5C JUMPI DUP1 PUSH4 0x9997E137 EQ PUSH2 0x96 JUMPI DUP1 PUSH4 0xBE999705 EQ PUSH2 0xE0 JUMPI DUP1 PUSH4 0xD5F39488 EQ PUSH2 0x10E JUMPI DUP1 PUSH4 0xFC0C546A EQ PUSH2 0x158 JUMPI JUMPDEST PUSH1 0x0 DUP1 REVERT JUMPDEST PUSH2 0x94 PUSH1 0x4 DUP1 CALLDATASIZE SUB PUSH1 0x40 DUP2 LT ISZERO PUSH2 0x72 JUMPI PUSH1 0x0 DUP1 REVERT JUMPDEST DUP2 ADD SWAP1 DUP1 DUP1 CALLDATALOAD ISZERO ISZERO SWAP1 PUSH1 0x20 ADD SWAP1 SWAP3 SWAP2 SWAP1 DUP1 CALLDATALOAD SWAP1 PUSH1 0x20 ADD SWAP1 SWAP3 SWAP2 SWAP1 POP POP POP PUSH2 0x1A2 JUMP JUMPDEST STOP JUMPDEST PUSH2 0x9E PUSH2 0x49B JUMP JUMPDEST PUSH1 0x40 MLOAD DUP1 DUP3 PUSH20 0xFFFFFFFFFFFFFFFFFFFFFFFFFFFFFFFFFFFFFFFF AND PUSH20 0xFFFFFFFFFFFFFFFFFFFFFFFFFFFFFFFFFFFFFFFF AND DUP2 MSTORE PUSH1 0x20 ADD SWAP2 POP POP PUSH1 0x40 MLOAD DUP1 SWAP2 SUB SWAP1 RETURN JUMPDEST PUSH2 0x10C PUSH1 0x4 DUP1 CALLDATASIZE SUB PUSH1 0x20 DUP2 LT ISZERO PUSH2 0xF6 JUMPI PUSH1 0x0 DUP1 REVERT JUMPDEST DUP2 ADD SWAP1 DUP1 DUP1 CALLDATALOAD SWAP1 PUSH1 0x20 ADD SWAP1 SWAP3 SWAP2 SWAP1 POP POP POP PUSH2 0x4C1 JUMP JUMPDEST STOP JUMPDEST PUSH2 0x116 PUSH2 0x74F JUMP JUMPDEST PUSH1 0x40 MLOAD DUP1 DUP3 PUSH20 0xFFFFFFFFFFFFFFFFFFFFFFFFFFFFFFFFFFFFFFFF AND PUSH20 0xFFFFFFFFFFFFFFFFFFFFFFFFFFFFFFFFFFFFFFFF AND DUP2 MSTORE PUSH1 0x20 ADD SWAP2 POP POP PUSH1 0x40 MLOAD DUP1 SWAP2 SUB SWAP1 RETURN JUMPDEST PUSH2 0x160 PUSH2 0x774 JUMP JUMPDEST PUSH1 0x40 MLOAD DUP1 DUP3 PUSH20 0xFFFFFFFFFFFFFFFFFFFFFFFFFFFFFFFFFFFFFFFF AND PUSH20 0xFFFFFFFFFFFFFFFFFFFFFFFFFFFFFFFFFFFFFFFF AND DUP2 MSTORE PUSH1 0x20 ADD SWAP2 POP POP PUSH1 0x40 MLOAD DUP1 SWAP2 SUB SWAP1 RETURN JUMPDEST PUSH1 0x0 DUP1 SWAP1 SLOAD SWAP1 PUSH2 0x100 EXP SWAP1 DIV PUSH20 0xFFFFFFFFFFFFFFFFFFFFFFFFFFFFFFFFFFFFFFFF AND PUSH20 0xFFFFFFFFFFFFFFFFFFFFFFFFFFFFFFFFFFFFFFFF AND CALLER PUSH20 0xFFFFFFFFFFFFFFFFFFFFFFFFFFFFFFFFFFFFFFFF AND EQ PUSH2 0x264 JUMPI PUSH1 0x40 MLOAD PUSH32 0x8C379A000000000000000000000000000000000000000000000000000000000 DUP2 MSTORE PUSH1 0x4 ADD DUP1 DUP1 PUSH1 0x20 ADD DUP3 DUP2 SUB DUP3 MSTORE PUSH1 0x16 DUP2 MSTORE PUSH1 0x20 ADD DUP1 PUSH32 0x6F6E6C79206465706C6F7965722063616E2063616C6C00000000000000000000 DUP2 MSTORE POP PUSH1 0x20 ADD SWAP2 POP POP PUSH1 0x40 MLOAD DUP1 SWAP2 SUB SWAP1 REVERT JUMPDEST DUP2 ISZERO PUSH2 0x347 JUMPI PUSH1 0x1 PUSH1 0x0 SWAP1 SLOAD SWAP1 PUSH2 0x100 EXP SWAP1 DIV PUSH20 0xFFFFFFFFFFFFFFFFFFFFFFFFFFFFFFFFFFFFFFFF AND PUSH20 0xFFFFFFFFFFFFFFFFFFFFFFFFFFFFFFFFFFFFFFFF AND PUSH4 0x70A08231 ADDRESS PUSH1 0x40 MLOAD DUP3 PUSH4 0xFFFFFFFF AND PUSH1 0xE0 SHL DUP2 MSTORE PUSH1 0x4 ADD DUP1 DUP3 PUSH20 0xFFFFFFFFFFFFFFFFFFFFFFFFFFFFFFFFFFFFFFFF AND PUSH20 0xFFFFFFFFFFFFFFFFFFFFFFFFFFFFFFFFFFFFFFFF AND DUP2 MSTORE PUSH1 0x20 ADD SWAP2 POP POP PUSH1 0x20 PUSH1 0x40 MLOAD DUP1 DUP4 SUB DUP2 DUP7 DUP1 EXTCODESIZE ISZERO DUP1 ISZERO PUSH2 0x309 JUMPI PUSH1 0x0 DUP1 REVERT JUMPDEST POP GAS STATICCALL ISZERO DUP1 ISZERO PUSH2 0x31D JUMPI RETURNDATASIZE PUSH1 0x0 DUP1 RETURNDATACOPY RETURNDATASIZE PUSH1 0x0 REVERT JUMPDEST POP POP POP POP PUSH1 0x40 MLOAD RETURNDATASIZE PUSH1 0x20 DUP2 LT ISZERO PUSH2 0x333 JUMPI PUSH1 0x0 DUP1 REVERT JUMPDEST DUP2 ADD SWAP1 DUP1 DUP1 MLOAD SWAP1 PUSH1 0x20 ADD SWAP1 SWAP3 SWAP2 SWAP1 POP POP POP SWAP1 POP JUMPDEST PUSH1 0x1 PUSH1 0x0 SWAP1 SLOAD SWAP1 PUSH2 0x100 EXP SWAP1 DIV PUSH20 0xFFFFFFFFFFFFFFFFFFFFFFFFFFFFFFFFFFFFFFFF AND PUSH20 0xFFFFFFFFFFFFFFFFFFFFFFFFFFFFFFFFFFFFFFFF AND PUSH4 0xA9059CBB CALLER DUP4 PUSH1 0x40 MLOAD DUP4 PUSH4 0xFFFFFFFF AND PUSH1 0xE0 SHL DUP2 MSTORE PUSH1 0x4 ADD DUP1 DUP4 PUSH20 0xFFFFFFFFFFFFFFFFFFFFFFFFFFFFFFFFFFFFFFFF AND PUSH20 0xFFFFFFFFFFFFFFFFFFFFFFFFFFFFFFFFFFFFFFFF AND DUP2 MSTORE PUSH1 0x20 ADD DUP3 DUP2 MSTORE PUSH1 0x20 ADD SWAP3 POP POP POP PUSH1 0x20 PUSH1 0x40 MLOAD DUP1 DUP4 SUB DUP2 PUSH1 0x0 DUP8 DUP1 EXTCODESIZE ISZERO DUP1 ISZERO PUSH2 0x3F0 JUMPI PUSH1 0x0 DUP1 REVERT JUMPDEST POP GAS CALL ISZERO DUP1 ISZERO PUSH2 0x404 JUMPI RETURNDATASIZE PUSH1 0x0 DUP1 RETURNDATACOPY RETURNDATASIZE PUSH1 0x0 REVERT JUMPDEST POP POP POP POP PUSH1 0x40 MLOAD RETURNDATASIZE PUSH1 0x20 DUP2 LT ISZERO PUSH2 0x41A JUMPI PUSH1 0x0 DUP1 REVERT JUMPDEST DUP2 ADD SWAP1 DUP1 DUP1 MLOAD SWAP1 PUSH1 0x20 ADD SWAP1 SWAP3 SWAP2 SWAP1 POP POP POP POP PUSH32 0xEAFF4B37086828766AD3268786972C0CD24259D4C87A80F9D3963A3C3D999B0D CALLER DUP3 PUSH1 0x40 MLOAD DUP1 DUP4 PUSH20 0xFFFFFFFFFFFFFFFFFFFFFFFFFFFFFFFFFFFFFFFF AND PUSH20 0xFFFFFFFFFFFFFFFFFFFFFFFFFFFFFFFFFFFFFFFF AND DUP2 MSTORE PUSH1 0x20 ADD DUP3 DUP2 MSTORE PUSH1 0x20 ADD SWAP3 POP POP POP PUSH1 0x40 MLOAD DUP1 SWAP2 SUB SWAP1 LOG1 POP POP JUMP JUMPDEST PUSH1 0x2 PUSH1 0x0 SWAP1 SLOAD SWAP1 PUSH2 0x100 EXP SWAP1 DIV PUSH20 0xFFFFFFFFFFFFFFFFFFFFFFFFFFFFFFFFFFFFFFFF AND DUP2 JUMP JUMPDEST PUSH1 0x1 PUSH1 0x0 SWAP1 SLOAD SWAP1 PUSH2 0x100 EXP SWAP1 DIV PUSH20 0xFFFFFFFFFFFFFFFFFFFFFFFFFFFFFFFFFFFFFFFF AND PUSH20 0xFFFFFFFFFFFFFFFFFFFFFFFFFFFFFFFFFFFFFFFF AND PUSH4 0x23B872DD CALLER ADDRESS DUP5 PUSH1 0x40 MLOAD DUP5 PUSH4 0xFFFFFFFF AND PUSH1 0xE0 SHL DUP2 MSTORE PUSH1 0x4 ADD DUP1 DUP5 PUSH20 0xFFFFFFFFFFFFFFFFFFFFFFFFFFFFFFFFFFFFFFFF AND PUSH20 0xFFFFFFFFFFFFFFFFFFFFFFFFFFFFFFFFFFFFFFFF AND DUP2 MSTORE PUSH1 0x20 ADD DUP4 PUSH20 0xFFFFFFFFFFFFFFFFFFFFFFFFFFFFFFFFFFFFFFFF AND PUSH20 0xFFFFFFFFFFFFFFFFFFFFFFFFFFFFFFFFFFFFFFFF AND DUP2 MSTORE PUSH1 0x20 ADD DUP3 DUP2 MSTORE PUSH1 0x20 ADD SWAP4 POP POP POP POP PUSH1 0x20 PUSH1 0x40 MLOAD DUP1 DUP4 SUB DUP2 PUSH1 0x0 DUP8 DUP1 EXTCODESIZE ISZERO DUP1 ISZERO PUSH2 0x59E JUMPI PUSH1 0x0 DUP1 REVERT JUMPDEST POP GAS CALL ISZERO DUP1 ISZERO PUSH2 0x5B2 JUMPI RETURNDATASIZE PUSH1 0x0 DUP1 RETURNDATACOPY RETURNDATASIZE PUSH1 0x0 REVERT JUMPDEST POP POP POP POP PUSH1 0x40 MLOAD RETURNDATASIZE PUSH1 0x20 DUP2 LT ISZERO PUSH2 0x5C8 JUMPI PUSH1 0x0 DUP1 REVERT JUMPDEST DUP2 ADD SWAP1 DUP1 DUP1 MLOAD SWAP1 PUSH1 0x20 ADD SWAP1 SWAP3 SWAP2 SWAP1 POP POP POP POP PUSH1 0x1 PUSH1 0x0 SWAP1 SLOAD SWAP1 PUSH2 0x100 EXP SWAP1 DIV PUSH20 0xFFFFFFFFFFFFFFFFFFFFFFFFFFFFFFFFFFFFFFFF AND PUSH20 0xFFFFFFFFFFFFFFFFFFFFFFFFFFFFFFFFFFFFFFFF AND PUSH4 0x95EA7B3 PUSH1 0x2 PUSH1 0x0 SWAP1 SLOAD SWAP1 PUSH2 0x100 EXP SWAP1 DIV PUSH20 0xFFFFFFFFFFFFFFFFFFFFFFFFFFFFFFFFFFFFFFFF AND DUP4 PUSH1 0x40 MLOAD DUP4 PUSH4 0xFFFFFFFF AND PUSH1 0xE0 SHL DUP2 MSTORE PUSH1 0x4 ADD DUP1 DUP4 PUSH20 0xFFFFFFFFFFFFFFFFFFFFFFFFFFFFFFFFFFFFFFFF AND PUSH20 0xFFFFFFFFFFFFFFFFFFFFFFFFFFFFFFFFFFFFFFFF AND DUP2 MSTORE PUSH1 0x20 ADD DUP3 DUP2 MSTORE PUSH1 0x20 ADD SWAP3 POP POP POP PUSH1 0x20 PUSH1 0x40 MLOAD DUP1 DUP4 SUB DUP2 PUSH1 0x0 DUP8 DUP1 EXTCODESIZE ISZERO DUP1 ISZERO PUSH2 0x6A5 JUMPI PUSH1 0x0 DUP1 REVERT JUMPDEST POP GAS CALL ISZERO DUP1 ISZERO PUSH2 0x6B9 JUMPI RETURNDATASIZE PUSH1 0x0 DUP1 RETURNDATACOPY RETURNDATASIZE PUSH1 0x0 REVERT JUMPDEST POP POP POP POP PUSH1 0x40 MLOAD RETURNDATASIZE PUSH1 0x20 DUP2 LT ISZERO PUSH2 0x6CF JUMPI PUSH1 0x0 DUP1 REVERT JUMPDEST DUP2 ADD SWAP1 DUP1 DUP1 MLOAD SWAP1 PUSH1 0x20 ADD SWAP1 SWAP3 SWAP2 SWAP1 POP POP POP POP PUSH32 0x543BA50A5EEC5E6178218E364B1D0F396157B3C8FA278522C2CB7FD99407D474 CALLER DUP3 PUSH1 0x40 MLOAD DUP1 DUP4 PUSH20 0xFFFFFFFFFFFFFFFFFFFFFFFFFFFFFFFFFFFFFFFF AND PUSH20 0xFFFFFFFFFFFFFFFFFFFFFFFFFFFFFFFFFFFFFFFF AND DUP2 MSTORE PUSH1 0x20 ADD DUP3 DUP2 MSTORE PUSH1 0x20 ADD SWAP3 POP POP POP PUSH1 0x40 MLOAD DUP1 SWAP2 SUB SWAP1 LOG1 POP JUMP JUMPDEST PUSH1 0x0 DUP1 SWAP1 SLOAD SWAP1 PUSH2 0x100 EXP SWAP1 DIV PUSH20 0xFFFFFFFFFFFFFFFFFFFFFFFFFFFFFFFFFFFFFFFF AND DUP2 JUMP JUMPDEST PUSH1 0x1 PUSH1 0x0 SWAP1 SLOAD SWAP1 PUSH2 0x100 EXP SWAP1 DIV PUSH20 0xFFFFFFFFFFFFFFFFFFFFFFFFFFFFFFFFFFFFFFFF AND DUP2 JUMP INVALID LOG2 PUSH5 0x6970667358 0x22 SLT KECCAK256 SAR 0xE3 DUP3 0xD7 DUP6 GAS CALLDATALOAD 0xA9 POP 0xEF CALLER 0xE6 0xDB PUSH7 0x4B582D1668CCE9 EXTCODECOPY SWAP2 PUSH7 0xC9598E1F9C2E76 0xD0 PUSH5 0x736F6C6343 STOP MOD ADD STOP CALLER "},"gasEstimates":{"creation":{"codeDepositCost":"3488000","executionCost":"infinite","totalCost":"infinite"},"external":{"addToPrepaid(uint256)":"infinite","appointeeVote(address,uint256)":"infinite","calculatePowerBoosterAmount(address,uint256)":"infinite","createPETPlan(uint256,uint256)":"85638","deployer()":"1097","fundsBucket()":"1142","getDepositMonth(address,uint256)":"infinite","getMonthlyDepositedAmount(address,uint256,uint256)":"2295","getNomineeAllowedTimestamp(address,uint256,uint256)":"infinite","getSumOfMonthlyAnnuity(address,uint256,uint256,uint256)":"infinite","makeDeposit(address,uint256,uint256,bool)":"infinite","makeFrequencyModeDeposit(address,uint256,uint256,uint256,bool)":"infinite","newPET(uint256,uint256)":"infinite","petPlans(uint256)":"3850","pets(address,uint256)":"6330","prepaidES(address)":"1257","sendPrepaidESDifferent(address[],uint256[])":"infinite","token()":"1163","toogleAppointee(uint256,address,bool)":"infinite","toogleNominee(uint256,address,bool)":"24511","updatePlanStatus(uint256,bool)":"22986","viewAppointation(address,uint256,address)":"2406","viewNomination(address,uint256,address)":"2318","withdrawAnnuity(address,uint256,uint256)":"infinite","withdrawPowerBooster(address,uint256,uint256)":"infinite"},"internal":{"_burnPenalisedPowerBoosterTokens(address,uint256)":"infinite","_getBenefitAllocationByDepositAmount(struct TimeAllyPET.PET storage pointer,uint256,uint256)":"infinite","_getTotalDepositedIncludingPET(uint256,uint256)":"infinite"}},"methodIdentifiers":{"addToPrepaid(uint256)":"26f8bea7","appointeeVote(address,uint256)":"a4003ad4","calculatePowerBoosterAmount(address,uint256)":"452f1423","createPETPlan(uint256,uint256)":"45b37ec4","deployer()":"d5f39488","fundsBucket()":"3fd46068","getDepositMonth(address,uint256)":"1fdae4b8","getMonthlyDepositedAmount(address,uint256,uint256)":"f713c79e","getNomineeAllowedTimestamp(address,uint256,uint256)":"4cd963cf","getSumOfMonthlyAnnuity(address,uint256,uint256,uint256)":"47626531","makeDeposit(address,uint256,uint256,bool)":"0c254d63","makeFrequencyModeDeposit(address,uint256,uint256,uint256,bool)":"1615d204","newPET(uint256,uint256)":"29929713","petPlans(uint256)":"95a0373c","pets(address,uint256)":"3ee20a89","prepaidES(address)":"fb0685df","sendPrepaidESDifferent(address[],uint256[])":"51a6349d","token()":"fc0c546a","toogleAppointee(uint256,address,bool)":"ba50531a","toogleNominee(uint256,address,bool)":"0ce57b46","updatePlanStatus(uint256,bool)":"7838e408","viewAppointation(address,uint256,address)":"81423a26","viewNomination(address,uint256,address)":"2e9721b6","withdrawAnnuity(address,uint256,uint256)":"37482ef1","withdrawPowerBooster(address,uint256,uint256)":"9baf14d4"}},"storageLayout":{"storage":[{"astId":747,"contract":"TimeAllyPET.sol:TimeAllyPET","label":"deployer","offset":0,"slot":"0","type":"t_address"},{"astId":749,"contract":"TimeAllyPET.sol:TimeAllyPET","label":"fundsBucket","offset":0,"slot":"1","type":"t_address"},{"astId":751,"contract":"TimeAllyPET.sol:TimeAllyPET","label":"token","offset":0,"slot":"2","type":"t_contract(ERC20)2491"},{"astId":757,"contract":"TimeAllyPET.sol:TimeAllyPET","label":"petPlans","offset":0,"slot":"3","type":"t_array(t_struct(PETPlan)716_storage)dyn_storage"},{"astId":762,"contract":"TimeAllyPET.sol:TimeAllyPET","label":"pets","offset":0,"slot":"4","type":"t_mapping(t_address,t_array(t_struct(PET)745_storage)dyn_storage)"},{"astId":766,"contract":"TimeAllyPET.sol:TimeAllyPET","label":"prepaidES","offset":0,"slot":"5","type":"t_mapping(t_address,t_uint256)"}],"types":{"t_address":{"encoding":"inplace","label":"address","numberOfBytes":"20"},"t_array(t_struct(PET)745_storage)dyn_storage":{"base":"t_struct(PET)745_storage","encoding":"dynamic_array","label":"struct TimeAllyPET.PET[]","numberOfBytes":"32"},"t_array(t_struct(PETPlan)716_storage)dyn_storage":{"base":"t_struct(PETPlan)716_storage","encoding":"dynamic_array","label":"struct TimeAllyPET.PETPlan[]","numberOfBytes":"32"},"t_bool":{"encoding":"inplace","label":"bool","numberOfBytes":"1"},"t_contract(ERC20)2491":{"encoding":"inplace","label":"contract ERC20","numberOfBytes":"20"},"t_mapping(t_address,t_array(t_struct(PET)745_storage)dyn_storage)":{"encoding":"mapping","key":"t_address","label":"mapping(address => struct TimeAllyPET.PET[])","numberOfBytes":"32","value":"t_array(t_struct(PET)745_storage)dyn_storage"},"t_mapping(t_address,t_bool)":{"encoding":"mapping","key":"t_address","label":"mapping(address => bool)","numberOfBytes":"32","value":"t_bool"},"t_mapping(t_address,t_uint256)":{"encoding":"mapping","key":"t_address","label":"mapping(address => uint256)","numberOfBytes":"32","value":"t_uint256"},"t_mapping(t_uint256,t_bool)":{"encoding":"mapping","key":"t_uint256","label":"mapping(uint256 => bool)","numberOfBytes":"32","value":"t_bool"},"t_mapping(t_uint256,t_uint256)":{"encoding":"mapping","key":"t_uint256","label":"mapping(uint256 => uint256)","numberOfBytes":"32","value":"t_uint256"},"t_struct(PET)745_storage":{"encoding":"inplace","label":"struct TimeAllyPET.PET","members":[{"astId":718,"contract":"TimeAllyPET.sol:TimeAllyPET","label":"planId","offset":0,"slot":"0","type":"t_uint256"},{"astId":720,"contract":"TimeAllyPET.sol:TimeAllyPET","label":"monthlyCommitmentAmount","offset":0,"slot":"1","type":"t_uint256"},{"astId":722,"contract":"TimeAllyPET.sol:TimeAllyPET","label":"initTimestamp","offset":0,"slot":"2","type":"t_uint256"},{"astId":724,"contract":"TimeAllyPET.sol:TimeAllyPET","label":"lastAnnuityWithdrawlMonthId","offset":0,"slot":"3","type":"t_uint256"},{"astId":726,"contract":"TimeAllyPET.sol:TimeAllyPET","label":"appointeeVotes","offset":0,"slot":"4","type":"t_uint256"},{"astId":728,"contract":"TimeAllyPET.sol:TimeAllyPET","label":"numberOfAppointees","offset":0,"slot":"5","type":"t_uint256"},{"astId":732,"contract":"TimeAllyPET.sol:TimeAllyPET","label":"monthlyDepositAmount","offset":0,"slot":"6","type":"t_mapping(t_uint256,t_uint256)"},{"astId":736,"contract":"TimeAllyPET.sol:TimeAllyPET","label":"isPowerBoosterWithdrawn","offset":0,"slot":"7","type":"t_mapping(t_uint256,t_bool)"},{"astId":740,"contract":"TimeAllyPET.sol:TimeAllyPET","label":"nominees","offset":0,"slot":"8","type":"t_mapping(t_address,t_bool)"},{"astId":744,"contract":"TimeAllyPET.sol:TimeAllyPET","label":"appointees","offset":0,"slot":"9","type":"t_mapping(t_address,t_bool)"}],"numberOfBytes":"320"},"t_struct(PETPlan)716_storage":{"encoding":"inplace","label":"struct TimeAllyPET.PETPlan","members":[{"astId":711,"contract":"TimeAllyPET.sol:TimeAllyPET","label":"isPlanActive","offset":0,"slot":"0","type":"t_bool"},{"astId":713,"contract":"TimeAllyPET.sol:TimeAllyPET","label":"minimumMonthlyCommitmentAmount","offset":0,"slot":"1","type":"t_uint256"},{"astId":715,"contract":"TimeAllyPET.sol:TimeAllyPET","label":"monthlyBenefitFactorPerThousand","offset":0,"slot":"2","type":"t_uint256"}],"numberOfBytes":"96"},"t_uint256":{"encoding":"inplace","label":"uint256","numberOfBytes":"32"}}},"userdoc":{"methods":{"addToPrepaid(uint256)":{"notice":"this function is used to add ES as prepaid for PET"},"appointeeVote(address,uint256)":{"notice":"this function is used by appointee to vote that nominees can withdraw early"},"calculatePowerBoosterAmount(address,uint256)":{"notice":"calculating power booster amount"},"constructor":"sets up TimeAllyPET contract when deployed and also deploys FundsBucket","createPETPlan(uint256,uint256)":{"notice":"this function is used by deployer to create plans for new PETs"},"getDepositMonth(address,uint256)":{"notice":"this function is used to get the current month of a PET"},"getMonthlyDepositedAmount(address,uint256,uint256)":{"notice":"this function is used to retrive monthly deposit in a PET"},"getNomineeAllowedTimestamp(address,uint256,uint256)":{"notice":"this function is used by contract to get nominee's allowed timestamp"},"getSumOfMonthlyAnnuity(address,uint256,uint256,uint256)":{"notice":"this function is used to get total annuity benefits between two months"},"makeDeposit(address,uint256,uint256,bool)":{"notice":"this function is used by stakers to make deposits to their PETs"},"makeFrequencyModeDeposit(address,uint256,uint256,uint256,bool)":{"notice":"this function is used by stakers to make lum sum deposit"},"newPET(uint256,uint256)":{"notice":"this function is used by anyone to create a new PET"},"sendPrepaidESDifferent(address[],uint256[])":{"notice":"this function is used to send ES as prepaid for PET"},"toogleAppointee(uint256,address,bool)":{"notice":"this function is used to update appointee status of a wallet address in PET"},"toogleNominee(uint256,address,bool)":{"notice":"this function is used to update nominee status of a wallet address in PET"},"updatePlanStatus(uint256,bool)":{"notice":"this function is used by deployer to disable or re-enable a pet plan"},"viewAppointation(address,uint256,address)":{"notice":"this function is used to view appointation"},"viewNomination(address,uint256,address)":{"notice":"this function is used to view nomination"},"withdrawAnnuity(address,uint256,uint256)":{"notice":"this function is used to withdraw annuity benefits"},"withdrawPowerBooster(address,uint256,uint256)":{"notice":"this function is used by staker to withdraw power booster"}},"notice":"Stakes EraSwap tokens with staker"}}