{"abi":[{"constant":true,"inputs":[],"name":"nrtManager","outputs":[{"name":"","type":"address"}],"payable":false,"stateMutability":"view","type":"function"},{"constant":false,"inputs":[{"name":"_addressArray","type":"address[]"},{"name":"_loanIdArray","type":"uint256[]"}],"name":"burnDefaultedLoans","outputs":[],"payable":false,"stateMutability":"nonpayable","type":"function"},{"constant":true,"inputs":[{"name":"","type":"address"},{"name":"","type":"uint256"}],"name":"stakings","outputs":[{"name":"exaEsAmount","type":"uint256"},{"name":"timestamp","type":"uint256"},{"name":"stakingMonth","type":"uint256"},{"name":"stakingPlanId","type":"uint256"},{"name":"status","type":"uint256"},{"name":"loanId","type":"uint256"},{"name":"totalNominationShares","type":"uint256"}],"payable":false,"stateMutability":"view","type":"function"},{"constant":true,"inputs":[{"name":"","type":"uint256"}],"name":"timeAllyMonthlyNRT","outputs":[{"name":"","type":"uint256"}],"payable":false,"stateMutability":"view","type":"function"},{"constant":true,"inputs":[{"name":"_userAddress","type":"address"},{"name":"_stakingId","type":"uint256"},{"name":"_months","type":"uint256[]"}],"name":"seeBenefitOfAStakingByMonths","outputs":[{"name":"","type":"uint256"}],"payable":false,"stateMutability":"view","type":"function"},{"constant":true,"inputs":[{"name":"_userAddress","type":"address"},{"name":"_stakingId","type":"uint256"},{"name":"_nomineeAddress","type":"address"}],"name":"viewNomination","outputs":[{"name":"","type":"uint256"}],"payable":false,"stateMutability":"view","type":"function"},{"constant":true,"inputs":[{"name":"","type":"uint256"}],"name":"totalActiveStakings","outputs":[{"name":"","type":"uint256"}],"payable":false,"stateMutability":"view","type":"function"},{"constant":false,"inputs":[{"name":"_stakingId","type":"uint256"},{"name":"_nomineeAddress","type":"address"}],"name":"removeNominee","outputs":[],"payable":false,"stateMutability":"nonpayable","type":"function"},{"constant":false,"inputs":[{"name":"_exaEsAmount","type":"uint256"}],"name":"topupRewardBucket","outputs":[],"payable":false,"stateMutability":"nonpayable","type":"function"},{"constant":true,"inputs":[],"name":"earthSecondsInMonth","outputs":[{"name":"","type":"uint256"}],"payable":false,"stateMutability":"view","type":"function"},{"constant":true,"inputs":[{"name":"","type":"uint256"}],"name":"stakingPlans","outputs":[{"name":"months","type":"uint256"},{"name":"fractionFrom15","type":"uint256"},{"name":"isUrgentLoanAllowed","type":"bool"}],"payable":false,"stateMutability":"view","type":"function"},{"constant":false,"inputs":[{"name":"_months","type":"uint256"},{"name":"_fractionFrom15","type":"uint256"},{"name":"_isUrgentLoanAllowed","type":"bool"}],"name":"createStakingPlan","outputs":[],"payable":false,"stateMutability":"nonpayable","type":"function"},{"constant":true,"inputs":[{"name":"","type":"address"}],"name":"launchReward","outputs":[{"name":"","type":"uint256"}],"payable":false,"stateMutability":"view","type":"function"},{"constant":false,"inputs":[{"name":"_addresses","type":"address[]"},{"name":"_exaEsAmountArray","type":"uint256[]"}],"name":"giveLaunchReward","outputs":[],"payable":false,"stateMutability":"nonpayable","type":"function"},{"constant":true,"inputs":[],"name":"owner","outputs":[{"name":"","type":"address"}],"payable":false,"stateMutability":"view","type":"function"},{"constant":false,"inputs":[{"name":"_userAddress","type":"address"},{"name":"_stakingId","type":"uint256"}],"name":"nomineeWithdraw","outputs":[],"payable":false,"stateMutability":"nonpayable","type":"function"},{"constant":true,"inputs":[{"name":"","type":"address"},{"name":"","type":"uint256"}],"name":"loans","outputs":[{"name":"exaEsAmount","type":"uint256"},{"name":"timestamp","type":"uint256"},{"name":"loanPlanId","type":"uint256"},{"name":"status","type":"uint256"}],"payable":false,"stateMutability":"view","type":"function"},{"constant":false,"inputs":[{"name":"_stakingId","type":"uint256"},{"name":"_months","type":"uint256[]"}],"name":"withdrawBenefitOfAStakingByMonths","outputs":[],"payable":false,"stateMutability":"nonpayable","type":"function"},{"constant":false,"inputs":[{"name":"_stakingId","type":"uint256"},{"name":"_nomineeAddress","type":"address"},{"name":"_shares","type":"uint256"}],"name":"addNominee","outputs":[],"payable":false,"stateMutability":"nonpayable","type":"function"},{"constant":true,"inputs":[{"name":"_userAddress","type":"address"}],"name":"getNumberOfStakingsByUser","outputs":[{"name":"","type":"uint256"}],"payable":false,"stateMutability":"view","type":"function"},{"constant":true,"inputs":[{"name":"","type":"uint256"}],"name":"loanPlans","outputs":[{"name":"loanMonths","type":"uint256"},{"name":"loanRate","type":"uint256"},{"name":"maxLoanAmountPercent","type":"uint256"}],"payable":false,"stateMutability":"view","type":"function"},{"constant":false,"inputs":[{"name":"_loanPlanId","type":"uint256"},{"name":"_exaEsAmount","type":"uint256"},{"name":"_stakingIds","type":"uint256[]"}],"name":"takeLoanOnSelfStaking","outputs":[],"payable":false,"stateMutability":"nonpayable","type":"function"},{"constant":false,"inputs":[{"name":"_loanMonths","type":"uint256"},{"name":"_loanRate","type":"uint256"},{"name":"_maxLoanAmountPercent","type":"uint256"}],"name":"createLoanPlan","outputs":[],"payable":false,"stateMutability":"nonpayable","type":"function"},{"constant":true,"inputs":[{"name":"_userAddress","type":"address"},{"name":"_stakingId","type":"uint256"},{"name":"_atMonth","type":"uint256"}],"name":"isStakingActive","outputs":[{"name":"","type":"bool"}],"payable":false,"stateMutability":"view","type":"function"},{"constant":false,"inputs":[{"name":"_stakingPlanId","type":"uint256"}],"name":"claimLaunchReward","outputs":[],"payable":false,"stateMutability":"nonpayable","type":"function"},{"constant":true,"inputs":[],"name":"getCurrentMonth","outputs":[{"name":"","type":"uint256"}],"payable":false,"stateMutability":"view","type":"function"},{"constant":false,"inputs":[{"name":"_loanId","type":"uint256"}],"name":"repayLoanSelf","outputs":[],"payable":false,"stateMutability":"nonpayable","type":"function"},{"constant":true,"inputs":[{"name":"_userAddress","type":"address"},{"name":"_stakingIds","type":"uint256[]"},{"name":"_loanPlanId","type":"uint256"}],"name":"seeMaxLoaningAmountOnUserStakings","outputs":[{"name":"","type":"uint256"}],"payable":false,"stateMutability":"view","type":"function"},{"constant":false,"inputs":[{"name":"_exaEsAmount","type":"uint256"},{"name":"_stakingPlanId","type":"uint256"}],"name":"newStaking","outputs":[],"payable":false,"stateMutability":"nonpayable","type":"function"},{"constant":true,"inputs":[],"name":"deployedTimestamp","outputs":[{"name":"","type":"uint256"}],"payable":false,"stateMutability":"view","type":"function"},{"constant":false,"inputs":[{"name":"_timeAllyNRT","type":"uint256"}],"name":"increaseMonth","outputs":[],"payable":false,"stateMutability":"nonpayable","type":"function"},{"constant":false,"inputs":[{"name":"_stakingIds","type":"uint256[]"}],"name":"withdrawExpiredStakings","outputs":[],"payable":false,"stateMutability":"nonpayable","type":"function"},{"constant":true,"inputs":[],"name":"token","outputs":[{"name":"","type":"address"}],"payable":false,"stateMutability":"view","type":"function"},{"inputs":[{"name":"_tokenAddress","type":"address"},{"name":"_nrtAddress","type":"address"}],"payable":false,"stateMutability":"nonpayable","type":"constructor"},{"anonymous":false,"inputs":[{"indexed":true,"name":"_userAddress","type":"address"},{"indexed":true,"name":"_stakePlanId","type":"uint256"},{"indexed":false,"name":"_exaEsAmount","type":"uint256"},{"indexed":false,"name":"_stakingId","type":"uint256"}],"name":"NewStaking","type":"event"},{"anonymous":false,"inputs":[{"indexed":true,"name":"_userAddress","type":"address"},{"indexed":false,"name":"_stakingId","type":"uint256"}],"name":"PrincipalWithdrawl","type":"event"},{"anonymous":false,"inputs":[{"indexed":true,"name":"_userAddress","type":"address"},{"indexed":true,"name":"_stakingId","type":"uint256"},{"indexed":true,"name":"_nomineeAddress","type":"address"}],"name":"NomineeNew","type":"event"},{"anonymous":false,"inputs":[{"indexed":true,"name":"_userAddress","type":"address"},{"indexed":true,"name":"_stakingId","type":"uint256"},{"indexed":true,"name":"_nomineeAddress","type":"address"},{"indexed":false,"name":"_liquid","type":"uint256"},{"indexed":false,"name":"_accrued","type":"uint256"}],"name":"NomineeWithdraw","type":"event"},{"anonymous":false,"inputs":[{"indexed":true,"name":"_userAddress","type":"address"},{"indexed":false,"name":"_stakingId","type":"uint256"},{"indexed":false,"name":"_months","type":"uint256[]"},{"indexed":false,"name":"_halfBenefit","type":"uint256"}],"name":"BenefitWithdrawl","type":"event"},{"anonymous":false,"inputs":[{"indexed":true,"name":"_userAddress","type":"address"},{"indexed":true,"name":"_loanPlanId","type":"uint256"},{"indexed":false,"name":"_exaEsAmount","type":"uint256"},{"indexed":false,"name":"_loanInterest","type":"uint256"},{"indexed":false,"name":"_loanId","type":"uint256"}],"name":"NewLoan","type":"event"},{"anonymous":false,"inputs":[{"indexed":true,"name":"_userAddress","type":"address"},{"indexed":false,"name":"_loanId","type":"uint256"}],"name":"RepayLoan","type":"event"}],"devdoc":{"author":"The EraSwap Team","details":"all require statement message strings are commented to make contract deployable by lower the deploying gas fee","methods":{"addNominee(uint256,address,uint256)":{"details":"shares is compared with total shares issued in a staking to see the percent nominee can withdraw. Nominee can withdraw only after one year past the end of tenure of staking. Upto 1 year past the end of tenure of staking, owner can withdraw principle amount of staking as well as can CRUD nominees. Owner of staking is has this time to withdraw their staking, if they fail to do so, after that nominees are allowed to withdraw. Withdrawl by first nominee will trigger staking into nomination mode and owner of staking cannot withdraw the principle amount as it will be distributed with only nominees and only they can withdraw it.","params":{"_nomineeAddress":"- address of nominee to be added to staking","_shares":"- amount of shares of the staking to the nominee","_stakingId":"- staking id"}},"claimLaunchReward(uint256)":{"params":{"_stakingPlanId":"- rewardee can choose plan while claiming rewards as stakings"}},"constructor":{"params":{"_nrtAddress":"- is NRT Manager contract address","_tokenAddress":"- is EraSwap contract address"}},"createLoanPlan(uint256,uint256,uint256)":{"params":{"_loanMonths":"- number of months or duration of loan, loan taker must repay the loan before this period","_loanRate":"- this is total % of loaning amount charged while taking loan, this charge is sent to luckpool in NRT manager which ends up distributed back to the community again"}},"createStakingPlan(uint256,uint256,bool)":{"params":{"_fractionFrom15":"- NRT fraction (max 15%) benefit to be given to user. rest is sent back to NRT in Luck Pool","_isUrgentLoanAllowed":"- if urgent loan is not allowed then staker can take loan only after 75% of time elapsed","_months":"- is number of staking months of a plan. for eg. 12 months"}},"getCurrentMonth()":{"return":"current month is the TimeAlly month"},"getNumberOfStakingsByUser(address)":{"params":{"_userAddress":"- address of user"},"return":"number of stakings of _userAddress"},"giveLaunchReward(address[],uint256[])":{"params":{"_addresses":"- array of address to send rewards","_exaEsAmountArray":"- array of ExaES amounts sent to each address of _addresses with same index"}},"isStakingActive(address,uint256,uint256)":{"params":{"_atMonth":"- particular month to check staking active","_stakingId":"- staking id","_userAddress":"- address of user"},"return":"true is staking is in correct time frame and also no loan on it"},"newStaking(uint256,uint256)":{"params":{"_exaEsAmount":"- amount of ES tokens (in 18 decimals thats why 'exa') that user wishes to stake","_stakingPlanId":"- plan for staking"}},"nomineeWithdraw(address,uint256)":{"params":{"_stakingId":"- staking id","_userAddress":"- address of user"}},"removeNominee(uint256,address)":{"params":{"_nomineeAddress":"- address of nominee","_stakingId":"- staking id"}},"repayLoanSelf(uint256)":{"details":"need to give allowance before this","params":{"_loanId":"- select loan to repay"}},"seeBenefitOfAStakingByMonths(address,uint256,uint256[])":{"params":{"_months":"- array of months user is interested to see benefits.","_stakingId":"- staking id","_userAddress":"- address of user"},"return":"amount of ExaES of benefits of entered months"},"seeMaxLoaningAmountOnUserStakings(address,uint256[],uint256)":{"params":{"_loanPlanId":"- the loan plan user wishes to take loan.","_stakingIds":"- array of staking ids which should be used to estimate max loan amount","_userAddress":"- address of user"},"return":"max loaning amount"},"takeLoanOnSelfStaking(uint256,uint256,uint256[])":{"params":{"_exaEsAmount":"- loan amount, this will also be the loan repay amount, the interest will first be deducted from this and then amount will be credited","_loanPlanId":"- user can select this plan which defines loan duration and loan interest","_stakingIds":"- staking ids user wishes to encash for taking the loan"}},"topupRewardBucket(uint256)":{"details":"Allowance is required before topup.","params":{"_exaEsAmount":"- amount to add to your rewards for sending rewards to others"}},"viewNomination(address,uint256,address)":{"params":{"_nomineeAddress":"- address of nominee","_stakingId":"- staking id","_userAddress":"- address of staking owner"},"return":"nomination of the nominee"},"withdrawBenefitOfAStakingByMonths(uint256,uint256[])":{"params":{"_months":"- array of months user is interested to withdraw benefits of staking.","_stakingId":"- staking id"}},"withdrawExpiredStakings(uint256[])":{"params":{"_stakingIds":"- input which stakings to withdraw"}}},"title":"TimeAlly Smart Contract"},"evm":{"assembly":"    /* \"TimeAlly.sol\":794:34085  contract TimeAlly {... */\n  mstore(0x40, 0x80)\n    /* \"TimeAlly.sol\":2505:2512  2629744 */\n  0x282070\n    /* \"TimeAlly.sol\":2468:2512  uint256 public earthSecondsInMonth = 2629744 */\n  0x04\n  sstore\n    /* \"TimeAlly.sol\":4722:5021  constructor(address _tokenAddress, address _nrtAddress) public {... */\n  callvalue\n    /* \"--CODEGEN--\":8:17   */\n  dup1\n    /* \"--CODEGEN--\":5:7   */\n  iszero\n  tag_1\n  jumpi\n    /* \"--CODEGEN--\":30:31   */\n  0x00\n    /* \"--CODEGEN--\":27:28   */\n  dup1\n    /* \"--CODEGEN--\":20:32   */\n  revert\n    /* \"--CODEGEN--\":5:7   */\ntag_1:\n    /* \"TimeAlly.sol\":4722:5021  constructor(address _tokenAddress, address _nrtAddress) public {... */\n  pop\n  mload(0x40)\n  sub(codesize, bytecodeSize)\n  dup1\n  bytecodeSize\n  dup4\n  codecopy\n  dup2\n  dup2\n  add\n  0x40\n  mstore\n    /* \"--CODEGEN--\":13:15   */\n  0x40\n    /* \"--CODEGEN--\":8:11   */\n  dup2\n    /* \"--CODEGEN--\":5:16   */\n  lt\n    /* \"--CODEGEN--\":2:4   */\n  iszero\n  tag_2\n  jumpi\n    /* \"--CODEGEN--\":29:30   */\n  0x00\n    /* \"--CODEGEN--\":26:27   */\n  dup1\n    /* \"--CODEGEN--\":19:31   */\n  revert\n    /* \"--CODEGEN--\":2:4   */\ntag_2:\n    /* \"TimeAlly.sol\":4722:5021  constructor(address _tokenAddress, address _nrtAddress) public {... */\n  dup2\n  add\n  swap1\n  dup1\n  dup1\n  mload\n  swap1\n  0x20\n  add\n  swap1\n  swap3\n  swap2\n  swap1\n  dup1\n  mload\n  swap1\n  0x20\n  add\n  swap1\n  swap3\n  swap2\n  swap1\n  pop\n  pop\n  pop\n    /* \"TimeAlly.sol\":4803:4813  msg.sender */\n  caller\n    /* \"TimeAlly.sol\":4795:4800  owner */\n  0x01\n  0x00\n    /* \"TimeAlly.sol\":4795:4813  owner = msg.sender */\n  0x0100\n  exp\n  dup2\n  sload\n  dup2\n  0xffffffffffffffffffffffffffffffffffffffff\n  mul\n  not\n  and\n  swap1\n  dup4\n  0xffffffffffffffffffffffffffffffffffffffff\n  and\n  mul\n  or\n  swap1\n  sstore\n  pop\n    /* \"TimeAlly.sol\":4839:4852  _tokenAddress */\n  dup2\n    /* \"TimeAlly.sol\":4823:4828  token */\n  0x02\n  0x00\n    /* \"TimeAlly.sol\":4823:4853  token = Eraswap(_tokenAddress) */\n  0x0100\n  exp\n  dup2\n  sload\n  dup2\n  0xffffffffffffffffffffffffffffffffffffffff\n  mul\n  not\n  and\n  swap1\n  dup4\n  0xffffffffffffffffffffffffffffffffffffffff\n  and\n  mul\n  or\n  swap1\n  sstore\n  pop\n    /* \"TimeAlly.sol\":4887:4898  _nrtAddress */\n  dup1\n    /* \"TimeAlly.sol\":4863:4873  nrtManager */\n  0x03\n  0x00\n    /* \"TimeAlly.sol\":4863:4899  nrtManager = NRTManager(_nrtAddress) */\n  0x0100\n  exp\n  dup2\n  sload\n  dup2\n  0xffffffffffffffffffffffffffffffffffffffff\n  mul\n  not\n  and\n  swap1\n  dup4\n  0xffffffffffffffffffffffffffffffffffffffff\n  and\n  mul\n  or\n  swap1\n  sstore\n  pop\n    /* \"TimeAlly.sol\":4929:4932  now */\n  timestamp\n    /* \"TimeAlly.sol\":4909:4926  deployedTimestamp */\n  0x00\n    /* \"TimeAlly.sol\":4909:4932  deployedTimestamp = now */\n  dup2\n  swap1\n  sstore\n  pop\n    /* \"TimeAlly.sol\":4942:4960  timeAllyMonthlyNRT */\n  0x0b\n    /* \"TimeAlly.sol\":4966:4967  0 */\n  0x00\n    /* \"TimeAlly.sol\":4942:4968  timeAllyMonthlyNRT.push(0) */\n  swap1\n  dup1\n    /* \"--CODEGEN--\":39:40   */\n  0x01\n    /* \"--CODEGEN--\":33:36   */\n  dup2\n    /* \"--CODEGEN--\":27:37   */\n  sload\n    /* \"--CODEGEN--\":23:41   */\n  add\n    /* \"--CODEGEN--\":57:67   */\n  dup1\n    /* \"--CODEGEN--\":52:55   */\n  dup3\n    /* \"--CODEGEN--\":45:68   */\n  sstore\n    /* \"--CODEGEN--\":79:89   */\n  dup1\n    /* \"--CODEGEN--\":72:89   */\n  swap2\n  pop\n    /* \"--CODEGEN--\":0:93   */\n  pop\n    /* \"TimeAlly.sol\":4942:4968  timeAllyMonthlyNRT.push(0) */\n  swap1\n  0x01\n  dup3\n  sub\n  swap1\n  0x00\n  mstore\n  keccak256(0x00, 0x20)\n  add\n  0x00\n  swap1\n  swap2\n  swap3\n  swap1\n  swap2\n  swap1\n  swap2\n  pop\n  sstore\n  pop\n    /* \"TimeAlly.sol\":4722:5021  constructor(address _tokenAddress, address _nrtAddress) public {... */\n  pop\n  pop\n    /* \"TimeAlly.sol\":794:34085  contract TimeAlly {... */\n  dataSize(sub_0)\n  dup1\n  dataOffset(sub_0)\n  0x00\n  codecopy\n  0x00\n  return\nstop\n\nsub_0: assembly {\n        /* \"TimeAlly.sol\":794:34085  contract TimeAlly {... */\n      mstore(0x40, 0x80)\n      callvalue\n        /* \"--CODEGEN--\":8:17   */\n      dup1\n        /* \"--CODEGEN--\":5:7   */\n      iszero\n      tag_1\n      jumpi\n        /* \"--CODEGEN--\":30:31   */\n      0x00\n        /* \"--CODEGEN--\":27:28   */\n      dup1\n        /* \"--CODEGEN--\":20:32   */\n      revert\n        /* \"--CODEGEN--\":5:7   */\n    tag_1:\n        /* \"TimeAlly.sol\":794:34085  contract TimeAlly {... */\n      pop\n      jumpi(tag_2, lt(calldatasize, 0x04))\n      shr(0xe0, calldataload(0x00))\n      dup1\n      0x98c61c37\n      gt\n      tag_36\n      jumpi\n      dup1\n      0xda9d8aa0\n      gt\n      tag_37\n      jumpi\n      dup1\n      0xe5fd04e6\n      gt\n      tag_38\n      jumpi\n      dup1\n      0xe5fd04e6\n      eq\n      tag_31\n      jumpi\n      dup1\n      0xe6bbe424\n      eq\n      tag_32\n      jumpi\n      dup1\n      0xe78c81c4\n      eq\n      tag_33\n      jumpi\n      dup1\n      0xe83f7843\n      eq\n      tag_34\n      jumpi\n      dup1\n      0xfc0c546a\n      eq\n      tag_35\n      jumpi\n      jump(tag_2)\n    tag_38:\n      dup1\n      0xda9d8aa0\n      eq\n      tag_27\n      jumpi\n      dup1\n      0xddd1b67e\n      eq\n      tag_28\n      jumpi\n      dup1\n      0xdea6cf43\n      eq\n      tag_29\n      jumpi\n      dup1\n      0xdf90f7ce\n      eq\n      tag_30\n      jumpi\n      jump(tag_2)\n    tag_37:\n      dup1\n      0xcc44a2fd\n      gt\n      tag_39\n      jumpi\n      dup1\n      0xcc44a2fd\n      eq\n      tag_23\n      jumpi\n      dup1\n      0xd0e32681\n      eq\n      tag_24\n      jumpi\n      dup1\n      0xd1cf31b3\n      eq\n      tag_25\n      jumpi\n      dup1\n      0xd58424a3\n      eq\n      tag_26\n      jumpi\n      jump(tag_2)\n    tag_39:\n      dup1\n      0x98c61c37\n      eq\n      tag_19\n      jumpi\n      dup1\n      0x9d0b8b44\n      eq\n      tag_20\n      jumpi\n      dup1\n      0xa4c0e90a\n      eq\n      tag_21\n      jumpi\n      dup1\n      0xad998fa0\n      eq\n      tag_22\n      jumpi\n      jump(tag_2)\n    tag_36:\n      dup1\n      0x53fcb2f3\n      gt\n      tag_40\n      jumpi\n      dup1\n      0x7acab857\n      gt\n      tag_41\n      jumpi\n      dup1\n      0x7acab857\n      eq\n      tag_15\n      jumpi\n      dup1\n      0x88c5f296\n      eq\n      tag_16\n      jumpi\n      dup1\n      0x8da5cb5b\n      eq\n      tag_17\n      jumpi\n      dup1\n      0x911e8bc6\n      eq\n      tag_18\n      jumpi\n      jump(tag_2)\n    tag_41:\n      dup1\n      0x53fcb2f3\n      eq\n      tag_11\n      jumpi\n      dup1\n      0x582e7e9e\n      eq\n      tag_12\n      jumpi\n      dup1\n      0x762e7a34\n      eq\n      tag_13\n      jumpi\n      dup1\n      0x778db8d4\n      eq\n      tag_14\n      jumpi\n      jump(tag_2)\n    tag_40:\n      dup1\n      0x2c779774\n      gt\n      tag_42\n      jumpi\n      dup1\n      0x2c779774\n      eq\n      tag_7\n      jumpi\n      dup1\n      0x2e9721b6\n      eq\n      tag_8\n      jumpi\n      dup1\n      0x4ec0692c\n      eq\n      tag_9\n      jumpi\n      dup1\n      0x4f916fb0\n      eq\n      tag_10\n      jumpi\n      jump(tag_2)\n    tag_42:\n      dup1\n      0x0df5202f\n      eq\n      tag_3\n      jumpi\n      dup1\n      0x16d3e966\n      eq\n      tag_4\n      jumpi\n      dup1\n      0x1849d8ea\n      eq\n      tag_5\n      jumpi\n      dup1\n      0x23a15e6b\n      eq\n      tag_6\n      jumpi\n    tag_2:\n      0x00\n      dup1\n      revert\n        /* \"TimeAlly.sol\":2368:2396  NRTManager public nrtManager */\n    tag_3:\n      tag_43\n      tag_44\n      jump\t// in\n    tag_43:\n      mload(0x40)\n      dup1\n      dup3\n      0xffffffffffffffffffffffffffffffffffffffff\n      and\n      0xffffffffffffffffffffffffffffffffffffffff\n      and\n      dup2\n      mstore\n      0x20\n      add\n      swap2\n      pop\n      pop\n      mload(0x40)\n      dup1\n      swap2\n      sub\n      swap1\n      return\n        /* \"TimeAlly.sol\":25067:26495  function burnDefaultedLoans(address[] memory _addressArray, uint256[] memory _loanIdArray) public {... */\n    tag_4:\n      tag_45\n      0x04\n      dup1\n      calldatasize\n      sub\n        /* \"--CODEGEN--\":13:15   */\n      0x40\n        /* \"--CODEGEN--\":8:11   */\n      dup2\n        /* \"--CODEGEN--\":5:16   */\n      lt\n        /* \"--CODEGEN--\":2:4   */\n      iszero\n      tag_46\n      jumpi\n        /* \"--CODEGEN--\":29:30   */\n      0x00\n        /* \"--CODEGEN--\":26:27   */\n      dup1\n        /* \"--CODEGEN--\":19:31   */\n      revert\n        /* \"--CODEGEN--\":2:4   */\n    tag_46:\n        /* \"TimeAlly.sol\":25067:26495  function burnDefaultedLoans(address[] memory _addressArray, uint256[] memory _loanIdArray) public {... */\n      dup2\n      add\n      swap1\n      dup1\n      dup1\n      calldataload\n      swap1\n      0x20\n      add\n      swap1\n        /* \"--CODEGEN--\":21:32   */\n      0x0100000000\n        /* \"--CODEGEN--\":8:19   */\n      dup2\n        /* \"--CODEGEN--\":5:33   */\n      gt\n        /* \"--CODEGEN--\":2:4   */\n      iszero\n      tag_47\n      jumpi\n        /* \"--CODEGEN--\":46:47   */\n      0x00\n        /* \"--CODEGEN--\":43:44   */\n      dup1\n        /* \"--CODEGEN--\":36:48   */\n      revert\n        /* \"--CODEGEN--\":2:4   */\n    tag_47:\n        /* \"TimeAlly.sol\":25067:26495  function burnDefaultedLoans(address[] memory _addressArray, uint256[] memory _loanIdArray) public {... */\n      dup3\n      add\n        /* \"--CODEGEN--\":35:44   */\n      dup4\n        /* \"--CODEGEN--\":28:32   */\n      0x20\n        /* \"--CODEGEN--\":12:26   */\n      dup3\n        /* \"--CODEGEN--\":8:33   */\n      add\n        /* \"--CODEGEN--\":5:45   */\n      gt\n        /* \"--CODEGEN--\":2:4   */\n      iszero\n      tag_48\n      jumpi\n        /* \"--CODEGEN--\":58:59   */\n      0x00\n        /* \"--CODEGEN--\":55:56   */\n      dup1\n        /* \"--CODEGEN--\":48:60   */\n      revert\n        /* \"--CODEGEN--\":2:4   */\n    tag_48:\n        /* \"TimeAlly.sol\":25067:26495  function burnDefaultedLoans(address[] memory _addressArray, uint256[] memory _loanIdArray) public {... */\n      dup1\n      calldataload\n      swap1\n      0x20\n      add\n      swap2\n        /* \"--CODEGEN--\":101:110   */\n      dup5\n        /* \"--CODEGEN--\":95:97   */\n      0x20\n        /* \"--CODEGEN--\":81:93   */\n      dup4\n        /* \"--CODEGEN--\":77:98   */\n      mul\n        /* \"--CODEGEN--\":67:75   */\n      dup5\n        /* \"--CODEGEN--\":63:99   */\n      add\n        /* \"--CODEGEN--\":60:111   */\n      gt\n        /* \"--CODEGEN--\":39:50   */\n      0x0100000000\n        /* \"--CODEGEN--\":25:37   */\n      dup4\n        /* \"--CODEGEN--\":22:51   */\n      gt\n        /* \"--CODEGEN--\":11:119   */\n      or\n        /* \"--CODEGEN--\":8:10   */\n      iszero\n      tag_49\n      jumpi\n        /* \"--CODEGEN--\":132:133   */\n      0x00\n        /* \"--CODEGEN--\":129:130   */\n      dup1\n        /* \"--CODEGEN--\":122:134   */\n      revert\n        /* \"--CODEGEN--\":8:10   */\n    tag_49:\n        /* \"TimeAlly.sol\":25067:26495  function burnDefaultedLoans(address[] memory _addressArray, uint256[] memory _loanIdArray) public {... */\n      swap2\n      swap1\n      dup1\n      dup1\n      0x20\n      mul\n      0x20\n      add\n      mload(0x40)\n      swap1\n      dup2\n      add\n      0x40\n      mstore\n      dup1\n      swap4\n      swap3\n      swap2\n      swap1\n      dup2\n      dup2\n      mstore\n      0x20\n      add\n      dup4\n      dup4\n      0x20\n      mul\n        /* \"--CODEGEN--\":30:33   */\n      dup1\n        /* \"--CODEGEN--\":22:28   */\n      dup3\n        /* \"--CODEGEN--\":14:20   */\n      dup5\n        /* \"--CODEGEN--\":1:34   */\n      calldatacopy\n        /* \"--CODEGEN--\":99:100   */\n      0x00\n        /* \"--CODEGEN--\":93:96   */\n      dup2\n        /* \"--CODEGEN--\":85:91   */\n      dup5\n        /* \"--CODEGEN--\":81:97   */\n      add\n        /* \"--CODEGEN--\":74:101   */\n      mstore\n        /* \"--CODEGEN--\":137:141   */\n      0x1f\n        /* \"--CODEGEN--\":133:142   */\n      not\n        /* \"--CODEGEN--\":126:130   */\n      0x1f\n        /* \"--CODEGEN--\":121:124   */\n      dup3\n        /* \"--CODEGEN--\":117:131   */\n      add\n        /* \"--CODEGEN--\":113:143   */\n      and\n        /* \"--CODEGEN--\":106:143   */\n      swap1\n      pop\n        /* \"--CODEGEN--\":169:172   */\n      dup1\n        /* \"--CODEGEN--\":161:167   */\n      dup4\n        /* \"--CODEGEN--\":157:173   */\n      add\n        /* \"--CODEGEN--\":147:173   */\n      swap3\n      pop\n        /* \"TimeAlly.sol\":25067:26495  function burnDefaultedLoans(address[] memory _addressArray, uint256[] memory _loanIdArray) public {... */\n      pop\n      pop\n      pop\n      pop\n      pop\n      pop\n      swap2\n      swap3\n      swap2\n      swap3\n      swap1\n      dup1\n      calldataload\n      swap1\n      0x20\n      add\n      swap1\n        /* \"--CODEGEN--\":21:32   */\n      0x0100000000\n        /* \"--CODEGEN--\":8:19   */\n      dup2\n        /* \"--CODEGEN--\":5:33   */\n      gt\n        /* \"--CODEGEN--\":2:4   */\n      iszero\n      tag_50\n      jumpi\n        /* \"--CODEGEN--\":46:47   */\n      0x00\n        /* \"--CODEGEN--\":43:44   */\n      dup1\n        /* \"--CODEGEN--\":36:48   */\n      revert\n        /* \"--CODEGEN--\":2:4   */\n    tag_50:\n        /* \"TimeAlly.sol\":25067:26495  function burnDefaultedLoans(address[] memory _addressArray, uint256[] memory _loanIdArray) public {... */\n      dup3\n      add\n        /* \"--CODEGEN--\":35:44   */\n      dup4\n        /* \"--CODEGEN--\":28:32   */\n      0x20\n        /* \"--CODEGEN--\":12:26   */\n      dup3\n        /* \"--CODEGEN--\":8:33   */\n      add\n        /* \"--CODEGEN--\":5:45   */\n      gt\n        /* \"--CODEGEN--\":2:4   */\n      iszero\n      tag_51\n      jumpi\n        /* \"--CODEGEN--\":58:59   */\n      0x00\n        /* \"--CODEGEN--\":55:56   */\n      dup1\n        /* \"--CODEGEN--\":48:60   */\n      revert\n        /* \"--CODEGEN--\":2:4   */\n    tag_51:\n        /* \"TimeAlly.sol\":25067:26495  function burnDefaultedLoans(address[] memory _addressArray, uint256[] memory _loanIdArray) public {... */\n      dup1\n      calldataload\n      swap1\n      0x20\n      add\n      swap2\n        /* \"--CODEGEN--\":101:110   */\n      dup5\n        /* \"--CODEGEN--\":95:97   */\n      0x20\n        /* \"--CODEGEN--\":81:93   */\n      dup4\n        /* \"--CODEGEN--\":77:98   */\n      mul\n        /* \"--CODEGEN--\":67:75   */\n      dup5\n        /* \"--CODEGEN--\":63:99   */\n      add\n        /* \"--CODEGEN--\":60:111   */\n      gt\n        /* \"--CODEGEN--\":39:50   */\n      0x0100000000\n        /* \"--CODEGEN--\":25:37   */\n      dup4\n        /* \"--CODEGEN--\":22:51   */\n      gt\n        /* \"--CODEGEN--\":11:119   */\n      or\n        /* \"--CODEGEN--\":8:10   */\n      iszero\n      tag_52\n      jumpi\n        /* \"--CODEGEN--\":132:133   */\n      0x00\n        /* \"--CODEGEN--\":129:130   */\n      dup1\n        /* \"--CODEGEN--\":122:134   */\n      revert\n        /* \"--CODEGEN--\":8:10   */\n    tag_52:\n        /* \"TimeAlly.sol\":25067:26495  function burnDefaultedLoans(address[] memory _addressArray, uint256[] memory _loanIdArray) public {... */\n      swap2\n      swap1\n      dup1\n      dup1\n      0x20\n      mul\n      0x20\n      add\n      mload(0x40)\n      swap1\n      dup2\n      add\n      0x40\n      mstore\n      dup1\n      swap4\n      swap3\n      swap2\n      swap1\n      dup2\n      dup2\n      mstore\n      0x20\n      add\n      dup4\n      dup4\n      0x20\n      mul\n        /* \"--CODEGEN--\":30:33   */\n      dup1\n        /* \"--CODEGEN--\":22:28   */\n      dup3\n        /* \"--CODEGEN--\":14:20   */\n      dup5\n        /* \"--CODEGEN--\":1:34   */\n      calldatacopy\n        /* \"--CODEGEN--\":99:100   */\n      0x00\n        /* \"--CODEGEN--\":93:96   */\n      dup2\n        /* \"--CODEGEN--\":85:91   */\n      dup5\n        /* \"--CODEGEN--\":81:97   */\n      add\n        /* \"--CODEGEN--\":74:101   */\n      mstore\n        /* \"--CODEGEN--\":137:141   */\n      0x1f\n        /* \"--CODEGEN--\":133:142   */\n      not\n        /* \"--CODEGEN--\":126:130   */\n      0x1f\n        /* \"--CODEGEN--\":121:124   */\n      dup3\n        /* \"--CODEGEN--\":117:131   */\n      add\n        /* \"--CODEGEN--\":113:143   */\n      and\n        /* \"--CODEGEN--\":106:143   */\n      swap1\n      pop\n        /* \"--CODEGEN--\":169:172   */\n      dup1\n        /* \"--CODEGEN--\":161:167   */\n      dup4\n        /* \"--CODEGEN--\":157:173   */\n      add\n        /* \"--CODEGEN--\":147:173   */\n      swap3\n      pop\n        /* \"TimeAlly.sol\":25067:26495  function burnDefaultedLoans(address[] memory _addressArray, uint256[] memory _loanIdArray) public {... */\n      pop\n      pop\n      pop\n      pop\n      pop\n      pop\n      swap2\n      swap3\n      swap2\n      swap3\n      swap1\n      pop\n      pop\n      pop\n      tag_53\n      jump\t// in\n    tag_45:\n      stop\n        /* \"TimeAlly.sol\":2735:2780  mapping(address => Staking[]) public stakings */\n    tag_5:\n      tag_54\n      0x04\n      dup1\n      calldatasize\n      sub\n        /* \"--CODEGEN--\":13:15   */\n      0x40\n        /* \"--CODEGEN--\":8:11   */\n      dup2\n        /* \"--CODEGEN--\":5:16   */\n      lt\n        /* \"--CODEGEN--\":2:4   */\n      iszero\n      tag_55\n      jumpi\n        /* \"--CODEGEN--\":29:30   */\n      0x00\n        /* \"--CODEGEN--\":26:27   */\n      dup1\n        /* \"--CODEGEN--\":19:31   */\n      revert\n        /* \"--CODEGEN--\":2:4   */\n    tag_55:\n        /* \"TimeAlly.sol\":2735:2780  mapping(address => Staking[]) public stakings */\n      dup2\n      add\n      swap1\n      dup1\n      dup1\n      calldataload\n      0xffffffffffffffffffffffffffffffffffffffff\n      and\n      swap1\n      0x20\n      add\n      swap1\n      swap3\n      swap2\n      swap1\n      dup1\n      calldataload\n      swap1\n      0x20\n      add\n      swap1\n      swap3\n      swap2\n      swap1\n      pop\n      pop\n      pop\n      tag_56\n      jump\t// in\n    tag_54:\n      mload(0x40)\n      dup1\n      dup9\n      dup2\n      mstore\n      0x20\n      add\n      dup8\n      dup2\n      mstore\n      0x20\n      add\n      dup7\n      dup2\n      mstore\n      0x20\n      add\n      dup6\n      dup2\n      mstore\n      0x20\n      add\n      dup5\n      dup2\n      mstore\n      0x20\n      add\n      dup4\n      dup2\n      mstore\n      0x20\n      add\n      dup3\n      dup2\n      mstore\n      0x20\n      add\n      swap8\n      pop\n      pop\n      pop\n      pop\n      pop\n      pop\n      pop\n      pop\n      mload(0x40)\n      dup1\n      swap2\n      sub\n      swap1\n      return\n        /* \"TimeAlly.sol\":3142:3177  uint256[] public timeAllyMonthlyNRT */\n    tag_6:\n      tag_57\n      0x04\n      dup1\n      calldatasize\n      sub\n        /* \"--CODEGEN--\":13:15   */\n      0x20\n        /* \"--CODEGEN--\":8:11   */\n      dup2\n        /* \"--CODEGEN--\":5:16   */\n      lt\n        /* \"--CODEGEN--\":2:4   */\n      iszero\n      tag_58\n      jumpi\n        /* \"--CODEGEN--\":29:30   */\n      0x00\n        /* \"--CODEGEN--\":26:27   */\n      dup1\n        /* \"--CODEGEN--\":19:31   */\n      revert\n        /* \"--CODEGEN--\":2:4   */\n    tag_58:\n        /* \"TimeAlly.sol\":3142:3177  uint256[] public timeAllyMonthlyNRT */\n      dup2\n      add\n      swap1\n      dup1\n      dup1\n      calldataload\n      swap1\n      0x20\n      add\n      swap1\n      swap3\n      swap2\n      swap1\n      pop\n      pop\n      pop\n      tag_59\n      jump\t// in\n    tag_57:\n      mload(0x40)\n      dup1\n      dup3\n      dup2\n      mstore\n      0x20\n      add\n      swap2\n      pop\n      pop\n      mload(0x40)\n      dup1\n      swap2\n      sub\n      swap1\n      return\n        /* \"TimeAlly.sol\":13680:15051  function seeBenefitOfAStakingByMonths(... */\n    tag_7:\n      tag_60\n      0x04\n      dup1\n      calldatasize\n      sub\n        /* \"--CODEGEN--\":13:15   */\n      0x60\n        /* \"--CODEGEN--\":8:11   */\n      dup2\n        /* \"--CODEGEN--\":5:16   */\n      lt\n        /* \"--CODEGEN--\":2:4   */\n      iszero\n      tag_61\n      jumpi\n        /* \"--CODEGEN--\":29:30   */\n      0x00\n        /* \"--CODEGEN--\":26:27   */\n      dup1\n        /* \"--CODEGEN--\":19:31   */\n      revert\n        /* \"--CODEGEN--\":2:4   */\n    tag_61:\n        /* \"TimeAlly.sol\":13680:15051  function seeBenefitOfAStakingByMonths(... */\n      dup2\n      add\n      swap1\n      dup1\n      dup1\n      calldataload\n      0xffffffffffffffffffffffffffffffffffffffff\n      and\n      swap1\n      0x20\n      add\n      swap1\n      swap3\n      swap2\n      swap1\n      dup1\n      calldataload\n      swap1\n      0x20\n      add\n      swap1\n      swap3\n      swap2\n      swap1\n      dup1\n      calldataload\n      swap1\n      0x20\n      add\n      swap1\n        /* \"--CODEGEN--\":21:32   */\n      0x0100000000\n        /* \"--CODEGEN--\":8:19   */\n      dup2\n        /* \"--CODEGEN--\":5:33   */\n      gt\n        /* \"--CODEGEN--\":2:4   */\n      iszero\n      tag_62\n      jumpi\n        /* \"--CODEGEN--\":46:47   */\n      0x00\n        /* \"--CODEGEN--\":43:44   */\n      dup1\n        /* \"--CODEGEN--\":36:48   */\n      revert\n        /* \"--CODEGEN--\":2:4   */\n    tag_62:\n        /* \"TimeAlly.sol\":13680:15051  function seeBenefitOfAStakingByMonths(... */\n      dup3\n      add\n        /* \"--CODEGEN--\":35:44   */\n      dup4\n        /* \"--CODEGEN--\":28:32   */\n      0x20\n        /* \"--CODEGEN--\":12:26   */\n      dup3\n        /* \"--CODEGEN--\":8:33   */\n      add\n        /* \"--CODEGEN--\":5:45   */\n      gt\n        /* \"--CODEGEN--\":2:4   */\n      iszero\n      tag_63\n      jumpi\n        /* \"--CODEGEN--\":58:59   */\n      0x00\n        /* \"--CODEGEN--\":55:56   */\n      dup1\n        /* \"--CODEGEN--\":48:60   */\n      revert\n        /* \"--CODEGEN--\":2:4   */\n    tag_63:\n        /* \"TimeAlly.sol\":13680:15051  function seeBenefitOfAStakingByMonths(... */\n      dup1\n      calldataload\n      swap1\n      0x20\n      add\n      swap2\n        /* \"--CODEGEN--\":101:110   */\n      dup5\n        /* \"--CODEGEN--\":95:97   */\n      0x20\n        /* \"--CODEGEN--\":81:93   */\n      dup4\n        /* \"--CODEGEN--\":77:98   */\n      mul\n        /* \"--CODEGEN--\":67:75   */\n      dup5\n        /* \"--CODEGEN--\":63:99   */\n      add\n        /* \"--CODEGEN--\":60:111   */\n      gt\n        /* \"--CODEGEN--\":39:50   */\n      0x0100000000\n        /* \"--CODEGEN--\":25:37   */\n      dup4\n        /* \"--CODEGEN--\":22:51   */\n      gt\n        /* \"--CODEGEN--\":11:119   */\n      or\n        /* \"--CODEGEN--\":8:10   */\n      iszero\n      tag_64\n      jumpi\n        /* \"--CODEGEN--\":132:133   */\n      0x00\n        /* \"--CODEGEN--\":129:130   */\n      dup1\n        /* \"--CODEGEN--\":122:134   */\n      revert\n        /* \"--CODEGEN--\":8:10   */\n    tag_64:\n        /* \"TimeAlly.sol\":13680:15051  function seeBenefitOfAStakingByMonths(... */\n      swap2\n      swap1\n      dup1\n      dup1\n      0x20\n      mul\n      0x20\n      add\n      mload(0x40)\n      swap1\n      dup2\n      add\n      0x40\n      mstore\n      dup1\n      swap4\n      swap3\n      swap2\n      swap1\n      dup2\n      dup2\n      mstore\n      0x20\n      add\n      dup4\n      dup4\n      0x20\n      mul\n        /* \"--CODEGEN--\":30:33   */\n      dup1\n        /* \"--CODEGEN--\":22:28   */\n      dup3\n        /* \"--CODEGEN--\":14:20   */\n      dup5\n        /* \"--CODEGEN--\":1:34   */\n      calldatacopy\n        /* \"--CODEGEN--\":99:100   */\n      0x00\n        /* \"--CODEGEN--\":93:96   */\n      dup2\n        /* \"--CODEGEN--\":85:91   */\n      dup5\n        /* \"--CODEGEN--\":81:97   */\n      add\n        /* \"--CODEGEN--\":74:101   */\n      mstore\n        /* \"--CODEGEN--\":137:141   */\n      0x1f\n        /* \"--CODEGEN--\":133:142   */\n      not\n        /* \"--CODEGEN--\":126:130   */\n      0x1f\n        /* \"--CODEGEN--\":121:124   */\n      dup3\n        /* \"--CODEGEN--\":117:131   */\n      add\n        /* \"--CODEGEN--\":113:143   */\n      and\n        /* \"--CODEGEN--\":106:143   */\n      swap1\n      pop\n        /* \"--CODEGEN--\":169:172   */\n      dup1\n        /* \"--CODEGEN--\":161:167   */\n      dup4\n        /* \"--CODEGEN--\":157:173   */\n      add\n        /* \"--CODEGEN--\":147:173   */\n      swap3\n      pop\n        /* \"TimeAlly.sol\":13680:15051  function seeBenefitOfAStakingByMonths(... */\n      pop\n      pop\n      pop\n      pop\n      pop\n      pop\n      swap2\n      swap3\n      swap2\n      swap3\n      swap1\n      pop\n      pop\n      pop\n      tag_65\n      jump\t// in\n    tag_60:\n      mload(0x40)\n      dup1\n      dup3\n      dup2\n      mstore\n      0x20\n      add\n      swap2\n      pop\n      pop\n      mload(0x40)\n      dup1\n      swap2\n      sub\n      swap1\n      return\n        /* \"TimeAlly.sol\":28322:28529  function viewNomination(address _userAddress, uint256 _stakingId, address _nomineeAddress) public view returns (uint256) {... */\n    tag_8:\n      tag_66\n      0x04\n      dup1\n      calldatasize\n      sub\n        /* \"--CODEGEN--\":13:15   */\n      0x60\n        /* \"--CODEGEN--\":8:11   */\n      dup2\n        /* \"--CODEGEN--\":5:16   */\n      lt\n        /* \"--CODEGEN--\":2:4   */\n      iszero\n      tag_67\n      jumpi\n        /* \"--CODEGEN--\":29:30   */\n      0x00\n        /* \"--CODEGEN--\":26:27   */\n      dup1\n        /* \"--CODEGEN--\":19:31   */\n      revert\n        /* \"--CODEGEN--\":2:4   */\n    tag_67:\n        /* \"TimeAlly.sol\":28322:28529  function viewNomination(address _userAddress, uint256 _stakingId, address _nomineeAddress) public view returns (uint256) {... */\n      dup2\n      add\n      swap1\n      dup1\n      dup1\n      calldataload\n      0xffffffffffffffffffffffffffffffffffffffff\n      and\n      swap1\n      0x20\n      add\n      swap1\n      swap3\n      swap2\n      swap1\n      dup1\n      calldataload\n      swap1\n      0x20\n      add\n      swap1\n      swap3\n      swap2\n      swap1\n      dup1\n      calldataload\n      0xffffffffffffffffffffffffffffffffffffffff\n      and\n      swap1\n      0x20\n      add\n      swap1\n      swap3\n      swap2\n      swap1\n      pop\n      pop\n      pop\n      tag_68\n      jump\t// in\n    tag_66:\n      mload(0x40)\n      dup1\n      dup3\n      dup2\n      mstore\n      0x20\n      add\n      swap2\n      pop\n      pop\n      mload(0x40)\n      dup1\n      swap2\n      sub\n      swap1\n      return\n        /* \"TimeAlly.sol\":2937:2992  mapping (uint256 => uint256) public totalActiveStakings */\n    tag_9:\n      tag_69\n      0x04\n      dup1\n      calldatasize\n      sub\n        /* \"--CODEGEN--\":13:15   */\n      0x20\n        /* \"--CODEGEN--\":8:11   */\n      dup2\n        /* \"--CODEGEN--\":5:16   */\n      lt\n        /* \"--CODEGEN--\":2:4   */\n      iszero\n      tag_70\n      jumpi\n        /* \"--CODEGEN--\":29:30   */\n      0x00\n        /* \"--CODEGEN--\":26:27   */\n      dup1\n        /* \"--CODEGEN--\":19:31   */\n      revert\n        /* \"--CODEGEN--\":2:4   */\n    tag_70:\n        /* \"TimeAlly.sol\":2937:2992  mapping (uint256 => uint256) public totalActiveStakings */\n      dup2\n      add\n      swap1\n      dup1\n      dup1\n      calldataload\n      swap1\n      0x20\n      add\n      swap1\n      swap3\n      swap2\n      swap1\n      pop\n      pop\n      pop\n      tag_71\n      jump\t// in\n    tag_69:\n      mload(0x40)\n      dup1\n      dup3\n      dup2\n      mstore\n      0x20\n      add\n      swap2\n      pop\n      pop\n      mload(0x40)\n      dup1\n      swap2\n      sub\n      swap1\n      return\n        /* \"TimeAlly.sol\":30066:30533  function removeNominee(uint256 _stakingId, address _nomineeAddress) public {... */\n    tag_10:\n      tag_72\n      0x04\n      dup1\n      calldatasize\n      sub\n        /* \"--CODEGEN--\":13:15   */\n      0x40\n        /* \"--CODEGEN--\":8:11   */\n      dup2\n        /* \"--CODEGEN--\":5:16   */\n      lt\n        /* \"--CODEGEN--\":2:4   */\n      iszero\n      tag_73\n      jumpi\n        /* \"--CODEGEN--\":29:30   */\n      0x00\n        /* \"--CODEGEN--\":26:27   */\n      dup1\n        /* \"--CODEGEN--\":19:31   */\n      revert\n        /* \"--CODEGEN--\":2:4   */\n    tag_73:\n        /* \"TimeAlly.sol\":30066:30533  function removeNominee(uint256 _stakingId, address _nomineeAddress) public {... */\n      dup2\n      add\n      swap1\n      dup1\n      dup1\n      calldataload\n      swap1\n      0x20\n      add\n      swap1\n      swap3\n      swap2\n      swap1\n      dup1\n      calldataload\n      0xffffffffffffffffffffffffffffffffffffffff\n      and\n      swap1\n      0x20\n      add\n      swap1\n      swap3\n      swap2\n      swap1\n      pop\n      pop\n      pop\n      tag_74\n      jump\t// in\n    tag_72:\n      stop\n        /* \"TimeAlly.sol\":9274:9494  function topupRewardBucket(uint256 _exaEsAmount) public {... */\n    tag_11:\n      tag_75\n      0x04\n      dup1\n      calldatasize\n      sub\n        /* \"--CODEGEN--\":13:15   */\n      0x20\n        /* \"--CODEGEN--\":8:11   */\n      dup2\n        /* \"--CODEGEN--\":5:16   */\n      lt\n        /* \"--CODEGEN--\":2:4   */\n      iszero\n      tag_76\n      jumpi\n        /* \"--CODEGEN--\":29:30   */\n      0x00\n        /* \"--CODEGEN--\":26:27   */\n      dup1\n        /* \"--CODEGEN--\":19:31   */\n      revert\n        /* \"--CODEGEN--\":2:4   */\n    tag_76:\n        /* \"TimeAlly.sol\":9274:9494  function topupRewardBucket(uint256 _exaEsAmount) public {... */\n      dup2\n      add\n      swap1\n      dup1\n      dup1\n      calldataload\n      swap1\n      0x20\n      add\n      swap1\n      swap3\n      swap2\n      swap1\n      pop\n      pop\n      pop\n      tag_77\n      jump\t// in\n    tag_75:\n      stop\n        /* \"TimeAlly.sol\":2468:2512  uint256 public earthSecondsInMonth = 2629744 */\n    tag_12:\n      tag_78\n      tag_79\n      jump\t// in\n    tag_78:\n      mload(0x40)\n      dup1\n      dup3\n      dup2\n      mstore\n      0x20\n      add\n      swap2\n      pop\n      pop\n      mload(0x40)\n      dup1\n      swap2\n      sub\n      swap1\n      return\n        /* \"TimeAlly.sol\":2632:2665  StakingPlan[] public stakingPlans */\n    tag_13:\n      tag_80\n      0x04\n      dup1\n      calldatasize\n      sub\n        /* \"--CODEGEN--\":13:15   */\n      0x20\n        /* \"--CODEGEN--\":8:11   */\n      dup2\n        /* \"--CODEGEN--\":5:16   */\n      lt\n        /* \"--CODEGEN--\":2:4   */\n      iszero\n      tag_81\n      jumpi\n        /* \"--CODEGEN--\":29:30   */\n      0x00\n        /* \"--CODEGEN--\":26:27   */\n      dup1\n        /* \"--CODEGEN--\":19:31   */\n      revert\n        /* \"--CODEGEN--\":2:4   */\n    tag_81:\n        /* \"TimeAlly.sol\":2632:2665  StakingPlan[] public stakingPlans */\n      dup2\n      add\n      swap1\n      dup1\n      dup1\n      calldataload\n      swap1\n      0x20\n      add\n      swap1\n      swap3\n      swap2\n      swap1\n      pop\n      pop\n      pop\n      tag_82\n      jump\t// in\n    tag_80:\n      mload(0x40)\n      dup1\n      dup5\n      dup2\n      mstore\n      0x20\n      add\n      dup4\n      dup2\n      mstore\n      0x20\n      add\n      dup3\n      iszero\n      iszero\n      iszero\n      iszero\n      dup2\n      mstore\n      0x20\n      add\n      swap4\n      pop\n      pop\n      pop\n      pop\n      mload(0x40)\n      dup1\n      swap2\n      sub\n      swap1\n      return\n        /* \"TimeAlly.sol\":5895:6231  function createStakingPlan(uint256 _months, uint256 _fractionFrom15, bool _isUrgentLoanAllowed) public onlyOwner {... */\n    tag_14:\n      tag_83\n      0x04\n      dup1\n      calldatasize\n      sub\n        /* \"--CODEGEN--\":13:15   */\n      0x60\n        /* \"--CODEGEN--\":8:11   */\n      dup2\n        /* \"--CODEGEN--\":5:16   */\n      lt\n        /* \"--CODEGEN--\":2:4   */\n      iszero\n      tag_84\n      jumpi\n        /* \"--CODEGEN--\":29:30   */\n      0x00\n        /* \"--CODEGEN--\":26:27   */\n      dup1\n        /* \"--CODEGEN--\":19:31   */\n      revert\n        /* \"--CODEGEN--\":2:4   */\n    tag_84:\n        /* \"TimeAlly.sol\":5895:6231  function createStakingPlan(uint256 _months, uint256 _fractionFrom15, bool _isUrgentLoanAllowed) public onlyOwner {... */\n      dup2\n      add\n      swap1\n      dup1\n      dup1\n      calldataload\n      swap1\n      0x20\n      add\n      swap1\n      swap3\n      swap2\n      swap1\n      dup1\n      calldataload\n      swap1\n      0x20\n      add\n      swap1\n      swap3\n      swap2\n      swap1\n      dup1\n      calldataload\n      iszero\n      iszero\n      swap1\n      0x20\n      add\n      swap1\n      swap3\n      swap2\n      swap1\n      pop\n      pop\n      pop\n      tag_85\n      jump\t// in\n    tag_83:\n      stop\n        /* \"TimeAlly.sol\":2831:2878  mapping(address => uint256) public launchReward */\n    tag_15:\n      tag_86\n      0x04\n      dup1\n      calldatasize\n      sub\n        /* \"--CODEGEN--\":13:15   */\n      0x20\n        /* \"--CODEGEN--\":8:11   */\n      dup2\n        /* \"--CODEGEN--\":5:16   */\n      lt\n        /* \"--CODEGEN--\":2:4   */\n      iszero\n      tag_87\n      jumpi\n        /* \"--CODEGEN--\":29:30   */\n      0x00\n        /* \"--CODEGEN--\":26:27   */\n      dup1\n        /* \"--CODEGEN--\":19:31   */\n      revert\n        /* \"--CODEGEN--\":2:4   */\n    tag_87:\n        /* \"TimeAlly.sol\":2831:2878  mapping(address => uint256) public launchReward */\n      dup2\n      add\n      swap1\n      dup1\n      dup1\n      calldataload\n      0xffffffffffffffffffffffffffffffffffffffff\n      and\n      swap1\n      0x20\n      add\n      swap1\n      swap3\n      swap2\n      swap1\n      pop\n      pop\n      pop\n      tag_88\n      jump\t// in\n    tag_86:\n      mload(0x40)\n      dup1\n      dup3\n      dup2\n      mstore\n      0x20\n      add\n      swap2\n      pop\n      pop\n      mload(0x40)\n      dup1\n      swap2\n      sub\n      swap1\n      return\n        /* \"TimeAlly.sol\":9742:10112  function giveLaunchReward(address[] memory _addresses, uint256[] memory _exaEsAmountArray) public onlyOwner {... */\n    tag_16:\n      tag_89\n      0x04\n      dup1\n      calldatasize\n      sub\n        /* \"--CODEGEN--\":13:15   */\n      0x40\n        /* \"--CODEGEN--\":8:11   */\n      dup2\n        /* \"--CODEGEN--\":5:16   */\n      lt\n        /* \"--CODEGEN--\":2:4   */\n      iszero\n      tag_90\n      jumpi\n        /* \"--CODEGEN--\":29:30   */\n      0x00\n        /* \"--CODEGEN--\":26:27   */\n      dup1\n        /* \"--CODEGEN--\":19:31   */\n      revert\n        /* \"--CODEGEN--\":2:4   */\n    tag_90:\n        /* \"TimeAlly.sol\":9742:10112  function giveLaunchReward(address[] memory _addresses, uint256[] memory _exaEsAmountArray) public onlyOwner {... */\n      dup2\n      add\n      swap1\n      dup1\n      dup1\n      calldataload\n      swap1\n      0x20\n      add\n      swap1\n        /* \"--CODEGEN--\":21:32   */\n      0x0100000000\n        /* \"--CODEGEN--\":8:19   */\n      dup2\n        /* \"--CODEGEN--\":5:33   */\n      gt\n        /* \"--CODEGEN--\":2:4   */\n      iszero\n      tag_91\n      jumpi\n        /* \"--CODEGEN--\":46:47   */\n      0x00\n        /* \"--CODEGEN--\":43:44   */\n      dup1\n        /* \"--CODEGEN--\":36:48   */\n      revert\n        /* \"--CODEGEN--\":2:4   */\n    tag_91:\n        /* \"TimeAlly.sol\":9742:10112  function giveLaunchReward(address[] memory _addresses, uint256[] memory _exaEsAmountArray) public onlyOwner {... */\n      dup3\n      add\n        /* \"--CODEGEN--\":35:44   */\n      dup4\n        /* \"--CODEGEN--\":28:32   */\n      0x20\n        /* \"--CODEGEN--\":12:26   */\n      dup3\n        /* \"--CODEGEN--\":8:33   */\n      add\n        /* \"--CODEGEN--\":5:45   */\n      gt\n        /* \"--CODEGEN--\":2:4   */\n      iszero\n      tag_92\n      jumpi\n        /* \"--CODEGEN--\":58:59   */\n      0x00\n        /* \"--CODEGEN--\":55:56   */\n      dup1\n        /* \"--CODEGEN--\":48:60   */\n      revert\n        /* \"--CODEGEN--\":2:4   */\n    tag_92:\n        /* \"TimeAlly.sol\":9742:10112  function giveLaunchReward(address[] memory _addresses, uint256[] memory _exaEsAmountArray) public onlyOwner {... */\n      dup1\n      calldataload\n      swap1\n      0x20\n      add\n      swap2\n        /* \"--CODEGEN--\":101:110   */\n      dup5\n        /* \"--CODEGEN--\":95:97   */\n      0x20\n        /* \"--CODEGEN--\":81:93   */\n      dup4\n        /* \"--CODEGEN--\":77:98   */\n      mul\n        /* \"--CODEGEN--\":67:75   */\n      dup5\n        /* \"--CODEGEN--\":63:99   */\n      add\n        /* \"--CODEGEN--\":60:111   */\n      gt\n        /* \"--CODEGEN--\":39:50   */\n      0x0100000000\n        /* \"--CODEGEN--\":25:37   */\n      dup4\n        /* \"--CODEGEN--\":22:51   */\n      gt\n        /* \"--CODEGEN--\":11:119   */\n      or\n        /* \"--CODEGEN--\":8:10   */\n      iszero\n      tag_93\n      jumpi\n        /* \"--CODEGEN--\":132:133   */\n      0x00\n        /* \"--CODEGEN--\":129:130   */\n      dup1\n        /* \"--CODEGEN--\":122:134   */\n      revert\n        /* \"--CODEGEN--\":8:10   */\n    tag_93:\n        /* \"TimeAlly.sol\":9742:10112  function giveLaunchReward(address[] memory _addresses, uint256[] memory _exaEsAmountArray) public onlyOwner {... */\n      swap2\n      swap1\n      dup1\n      dup1\n      0x20\n      mul\n      0x20\n      add\n      mload(0x40)\n      swap1\n      dup2\n      add\n      0x40\n      mstore\n      dup1\n      swap4\n      swap3\n      swap2\n      swap1\n      dup2\n      dup2\n      mstore\n      0x20\n      add\n      dup4\n      dup4\n      0x20\n      mul\n        /* \"--CODEGEN--\":30:33   */\n      dup1\n        /* \"--CODEGEN--\":22:28   */\n      dup3\n        /* \"--CODEGEN--\":14:20   */\n      dup5\n        /* \"--CODEGEN--\":1:34   */\n      calldatacopy\n        /* \"--CODEGEN--\":99:100   */\n      0x00\n        /* \"--CODEGEN--\":93:96   */\n      dup2\n        /* \"--CODEGEN--\":85:91   */\n      dup5\n        /* \"--CODEGEN--\":81:97   */\n      add\n        /* \"--CODEGEN--\":74:101   */\n      mstore\n        /* \"--CODEGEN--\":137:141   */\n      0x1f\n        /* \"--CODEGEN--\":133:142   */\n      not\n        /* \"--CODEGEN--\":126:130   */\n      0x1f\n        /* \"--CODEGEN--\":121:124   */\n      dup3\n        /* \"--CODEGEN--\":117:131   */\n      add\n        /* \"--CODEGEN--\":113:143   */\n      and\n        /* \"--CODEGEN--\":106:143   */\n      swap1\n      pop\n        /* \"--CODEGEN--\":169:172   */\n      dup1\n        /* \"--CODEGEN--\":161:167   */\n      dup4\n        /* \"--CODEGEN--\":157:173   */\n      add\n        /* \"--CODEGEN--\":147:173   */\n      swap3\n      pop\n        /* \"TimeAlly.sol\":9742:10112  function giveLaunchReward(address[] memory _addresses, uint256[] memory _exaEsAmountArray) public onlyOwner {... */\n      pop\n      pop\n      pop\n      pop\n      pop\n      pop\n      swap2\n      swap3\n      swap2\n      swap3\n      swap1\n      dup1\n      calldataload\n      swap1\n      0x20\n      add\n      swap1\n        /* \"--CODEGEN--\":21:32   */\n      0x0100000000\n        /* \"--CODEGEN--\":8:19   */\n      dup2\n        /* \"--CODEGEN--\":5:33   */\n      gt\n        /* \"--CODEGEN--\":2:4   */\n      iszero\n      tag_94\n      jumpi\n        /* \"--CODEGEN--\":46:47   */\n      0x00\n        /* \"--CODEGEN--\":43:44   */\n      dup1\n        /* \"--CODEGEN--\":36:48   */\n      revert\n        /* \"--CODEGEN--\":2:4   */\n    tag_94:\n        /* \"TimeAlly.sol\":9742:10112  function giveLaunchReward(address[] memory _addresses, uint256[] memory _exaEsAmountArray) public onlyOwner {... */\n      dup3\n      add\n        /* \"--CODEGEN--\":35:44   */\n      dup4\n        /* \"--CODEGEN--\":28:32   */\n      0x20\n        /* \"--CODEGEN--\":12:26   */\n      dup3\n        /* \"--CODEGEN--\":8:33   */\n      add\n        /* \"--CODEGEN--\":5:45   */\n      gt\n        /* \"--CODEGEN--\":2:4   */\n      iszero\n      tag_95\n      jumpi\n        /* \"--CODEGEN--\":58:59   */\n      0x00\n        /* \"--CODEGEN--\":55:56   */\n      dup1\n        /* \"--CODEGEN--\":48:60   */\n      revert\n        /* \"--CODEGEN--\":2:4   */\n    tag_95:\n        /* \"TimeAlly.sol\":9742:10112  function giveLaunchReward(address[] memory _addresses, uint256[] memory _exaEsAmountArray) public onlyOwner {... */\n      dup1\n      calldataload\n      swap1\n      0x20\n      add\n      swap2\n        /* \"--CODEGEN--\":101:110   */\n      dup5\n        /* \"--CODEGEN--\":95:97   */\n      0x20\n        /* \"--CODEGEN--\":81:93   */\n      dup4\n        /* \"--CODEGEN--\":77:98   */\n      mul\n        /* \"--CODEGEN--\":67:75   */\n      dup5\n        /* \"--CODEGEN--\":63:99   */\n      add\n        /* \"--CODEGEN--\":60:111   */\n      gt\n        /* \"--CODEGEN--\":39:50   */\n      0x0100000000\n        /* \"--CODEGEN--\":25:37   */\n      dup4\n        /* \"--CODEGEN--\":22:51   */\n      gt\n        /* \"--CODEGEN--\":11:119   */\n      or\n        /* \"--CODEGEN--\":8:10   */\n      iszero\n      tag_96\n      jumpi\n        /* \"--CODEGEN--\":132:133   */\n      0x00\n        /* \"--CODEGEN--\":129:130   */\n      dup1\n        /* \"--CODEGEN--\":122:134   */\n      revert\n        /* \"--CODEGEN--\":8:10   */\n    tag_96:\n        /* \"TimeAlly.sol\":9742:10112  function giveLaunchReward(address[] memory _addresses, uint256[] memory _exaEsAmountArray) public onlyOwner {... */\n      swap2\n      swap1\n      dup1\n      dup1\n      0x20\n      mul\n      0x20\n      add\n      mload(0x40)\n      swap1\n      dup2\n      add\n      0x40\n      mstore\n      dup1\n      swap4\n      swap3\n      swap2\n      swap1\n      dup2\n      dup2\n      mstore\n      0x20\n      add\n      dup4\n      dup4\n      0x20\n      mul\n        /* \"--CODEGEN--\":30:33   */\n      dup1\n        /* \"--CODEGEN--\":22:28   */\n      dup3\n        /* \"--CODEGEN--\":14:20   */\n      dup5\n        /* \"--CODEGEN--\":1:34   */\n      calldatacopy\n        /* \"--CODEGEN--\":99:100   */\n      0x00\n        /* \"--CODEGEN--\":93:96   */\n      dup2\n        /* \"--CODEGEN--\":85:91   */\n      dup5\n        /* \"--CODEGEN--\":81:97   */\n      add\n        /* \"--CODEGEN--\":74:101   */\n      mstore\n        /* \"--CODEGEN--\":137:141   */\n      0x1f\n        /* \"--CODEGEN--\":133:142   */\n      not\n        /* \"--CODEGEN--\":126:130   */\n      0x1f\n        /* \"--CODEGEN--\":121:124   */\n      dup3\n        /* \"--CODEGEN--\":117:131   */\n      add\n        /* \"--CODEGEN--\":113:143   */\n      and\n        /* \"--CODEGEN--\":106:143   */\n      swap1\n      pop\n        /* \"--CODEGEN--\":169:172   */\n      dup1\n        /* \"--CODEGEN--\":161:167   */\n      dup4\n        /* \"--CODEGEN--\":157:173   */\n      add\n        /* \"--CODEGEN--\":147:173   */\n      swap3\n      pop\n        /* \"TimeAlly.sol\":9742:10112  function giveLaunchReward(address[] memory _addresses, uint256[] memory _exaEsAmountArray) public onlyOwner {... */\n      pop\n      pop\n      pop\n      pop\n      pop\n      pop\n      swap2\n      swap3\n      swap2\n      swap3\n      swap1\n      pop\n      pop\n      pop\n      tag_97\n      jump\t// in\n    tag_89:\n      stop\n        /* \"TimeAlly.sol\":2316:2336  address public owner */\n    tag_17:\n      tag_98\n      tag_99\n      jump\t// in\n    tag_98:\n      mload(0x40)\n      dup1\n      dup3\n      0xffffffffffffffffffffffffffffffffffffffff\n      and\n      0xffffffffffffffffffffffffffffffffffffffff\n      and\n      dup2\n      mstore\n      0x20\n      add\n      swap2\n      pop\n      pop\n      mload(0x40)\n      dup1\n      swap2\n      sub\n      swap1\n      return\n        /* \"TimeAlly.sol\":30755:34083  function nomineeWithdraw(address _userAddress, uint256 _stakingId) public {... */\n    tag_18:\n      tag_100\n      0x04\n      dup1\n      calldatasize\n      sub\n        /* \"--CODEGEN--\":13:15   */\n      0x40\n        /* \"--CODEGEN--\":8:11   */\n      dup2\n        /* \"--CODEGEN--\":5:16   */\n      lt\n        /* \"--CODEGEN--\":2:4   */\n      iszero\n      tag_101\n      jumpi\n        /* \"--CODEGEN--\":29:30   */\n      0x00\n        /* \"--CODEGEN--\":26:27   */\n      dup1\n        /* \"--CODEGEN--\":19:31   */\n      revert\n        /* \"--CODEGEN--\":2:4   */\n    tag_101:\n        /* \"TimeAlly.sol\":30755:34083  function nomineeWithdraw(address _userAddress, uint256 _stakingId) public {... */\n      dup2\n      add\n      swap1\n      dup1\n      dup1\n      calldataload\n      0xffffffffffffffffffffffffffffffffffffffff\n      and\n      swap1\n      0x20\n      add\n      swap1\n      swap3\n      swap2\n      swap1\n      dup1\n      calldataload\n      swap1\n      0x20\n      add\n      swap1\n      swap3\n      swap2\n      swap1\n      pop\n      pop\n      pop\n      tag_102\n      jump\t// in\n    tag_100:\n      stop\n        /* \"TimeAlly.sol\":2786:2825  mapping(address => Loan[]) public loans */\n    tag_19:\n      tag_103\n      0x04\n      dup1\n      calldatasize\n      sub\n        /* \"--CODEGEN--\":13:15   */\n      0x40\n        /* \"--CODEGEN--\":8:11   */\n      dup2\n        /* \"--CODEGEN--\":5:16   */\n      lt\n        /* \"--CODEGEN--\":2:4   */\n      iszero\n      tag_104\n      jumpi\n        /* \"--CODEGEN--\":29:30   */\n      0x00\n        /* \"--CODEGEN--\":26:27   */\n      dup1\n        /* \"--CODEGEN--\":19:31   */\n      revert\n        /* \"--CODEGEN--\":2:4   */\n    tag_104:\n        /* \"TimeAlly.sol\":2786:2825  mapping(address => Loan[]) public loans */\n      dup2\n      add\n      swap1\n      dup1\n      dup1\n      calldataload\n      0xffffffffffffffffffffffffffffffffffffffff\n      and\n      swap1\n      0x20\n      add\n      swap1\n      swap3\n      swap2\n      swap1\n      dup1\n      calldataload\n      swap1\n      0x20\n      add\n      swap1\n      swap3\n      swap2\n      swap1\n      pop\n      pop\n      pop\n      tag_105\n      jump\t// in\n    tag_103:\n      mload(0x40)\n      dup1\n      dup6\n      dup2\n      mstore\n      0x20\n      add\n      dup5\n      dup2\n      mstore\n      0x20\n      add\n      dup4\n      dup2\n      mstore\n      0x20\n      add\n      dup3\n      dup2\n      mstore\n      0x20\n      add\n      swap5\n      pop\n      pop\n      pop\n      pop\n      pop\n      mload(0x40)\n      dup1\n      swap2\n      sub\n      swap1\n      return\n        /* \"TimeAlly.sol\":15281:16996  function withdrawBenefitOfAStakingByMonths(... */\n    tag_20:\n      tag_106\n      0x04\n      dup1\n      calldatasize\n      sub\n        /* \"--CODEGEN--\":13:15   */\n      0x40\n        /* \"--CODEGEN--\":8:11   */\n      dup2\n        /* \"--CODEGEN--\":5:16   */\n      lt\n        /* \"--CODEGEN--\":2:4   */\n      iszero\n      tag_107\n      jumpi\n        /* \"--CODEGEN--\":29:30   */\n      0x00\n        /* \"--CODEGEN--\":26:27   */\n      dup1\n        /* \"--CODEGEN--\":19:31   */\n      revert\n        /* \"--CODEGEN--\":2:4   */\n    tag_107:\n        /* \"TimeAlly.sol\":15281:16996  function withdrawBenefitOfAStakingByMonths(... */\n      dup2\n      add\n      swap1\n      dup1\n      dup1\n      calldataload\n      swap1\n      0x20\n      add\n      swap1\n      swap3\n      swap2\n      swap1\n      dup1\n      calldataload\n      swap1\n      0x20\n      add\n      swap1\n        /* \"--CODEGEN--\":21:32   */\n      0x0100000000\n        /* \"--CODEGEN--\":8:19   */\n      dup2\n        /* \"--CODEGEN--\":5:33   */\n      gt\n        /* \"--CODEGEN--\":2:4   */\n      iszero\n      tag_108\n      jumpi\n        /* \"--CODEGEN--\":46:47   */\n      0x00\n        /* \"--CODEGEN--\":43:44   */\n      dup1\n        /* \"--CODEGEN--\":36:48   */\n      revert\n        /* \"--CODEGEN--\":2:4   */\n    tag_108:\n        /* \"TimeAlly.sol\":15281:16996  function withdrawBenefitOfAStakingByMonths(... */\n      dup3\n      add\n        /* \"--CODEGEN--\":35:44   */\n      dup4\n        /* \"--CODEGEN--\":28:32   */\n      0x20\n        /* \"--CODEGEN--\":12:26   */\n      dup3\n        /* \"--CODEGEN--\":8:33   */\n      add\n        /* \"--CODEGEN--\":5:45   */\n      gt\n        /* \"--CODEGEN--\":2:4   */\n      iszero\n      tag_109\n      jumpi\n        /* \"--CODEGEN--\":58:59   */\n      0x00\n        /* \"--CODEGEN--\":55:56   */\n      dup1\n        /* \"--CODEGEN--\":48:60   */\n      revert\n        /* \"--CODEGEN--\":2:4   */\n    tag_109:\n        /* \"TimeAlly.sol\":15281:16996  function withdrawBenefitOfAStakingByMonths(... */\n      dup1\n      calldataload\n      swap1\n      0x20\n      add\n      swap2\n        /* \"--CODEGEN--\":101:110   */\n      dup5\n        /* \"--CODEGEN--\":95:97   */\n      0x20\n        /* \"--CODEGEN--\":81:93   */\n      dup4\n        /* \"--CODEGEN--\":77:98   */\n      mul\n        /* \"--CODEGEN--\":67:75   */\n      dup5\n        /* \"--CODEGEN--\":63:99   */\n      add\n        /* \"--CODEGEN--\":60:111   */\n      gt\n        /* \"--CODEGEN--\":39:50   */\n      0x0100000000\n        /* \"--CODEGEN--\":25:37   */\n      dup4\n        /* \"--CODEGEN--\":22:51   */\n      gt\n        /* \"--CODEGEN--\":11:119   */\n      or\n        /* \"--CODEGEN--\":8:10   */\n      iszero\n      tag_110\n      jumpi\n        /* \"--CODEGEN--\":132:133   */\n      0x00\n        /* \"--CODEGEN--\":129:130   */\n      dup1\n        /* \"--CODEGEN--\":122:134   */\n      revert\n        /* \"--CODEGEN--\":8:10   */\n    tag_110:\n        /* \"TimeAlly.sol\":15281:16996  function withdrawBenefitOfAStakingByMonths(... */\n      swap2\n      swap1\n      dup1\n      dup1\n      0x20\n      mul\n      0x20\n      add\n      mload(0x40)\n      swap1\n      dup2\n      add\n      0x40\n      mstore\n      dup1\n      swap4\n      swap3\n      swap2\n      swap1\n      dup2\n      dup2\n      mstore\n      0x20\n      add\n      dup4\n      dup4\n      0x20\n      mul\n        /* \"--CODEGEN--\":30:33   */\n      dup1\n        /* \"--CODEGEN--\":22:28   */\n      dup3\n        /* \"--CODEGEN--\":14:20   */\n      dup5\n        /* \"--CODEGEN--\":1:34   */\n      calldatacopy\n        /* \"--CODEGEN--\":99:100   */\n      0x00\n        /* \"--CODEGEN--\":93:96   */\n      dup2\n        /* \"--CODEGEN--\":85:91   */\n      dup5\n        /* \"--CODEGEN--\":81:97   */\n      add\n        /* \"--CODEGEN--\":74:101   */\n      mstore\n        /* \"--CODEGEN--\":137:141   */\n      0x1f\n        /* \"--CODEGEN--\":133:142   */\n      not\n        /* \"--CODEGEN--\":126:130   */\n      0x1f\n        /* \"--CODEGEN--\":121:124   */\n      dup3\n        /* \"--CODEGEN--\":117:131   */\n      add\n        /* \"--CODEGEN--\":113:143   */\n      and\n        /* \"--CODEGEN--\":106:143   */\n      swap1\n      pop\n        /* \"--CODEGEN--\":169:172   */\n      dup1\n        /* \"--CODEGEN--\":161:167   */\n      dup4\n        /* \"--CODEGEN--\":157:173   */\n      add\n        /* \"--CODEGEN--\":147:173   */\n      swap3\n      pop\n        /* \"TimeAlly.sol\":15281:16996  function withdrawBenefitOfAStakingByMonths(... */\n      pop\n      pop\n      pop\n      pop\n      pop\n      pop\n      swap2\n      swap3\n      swap2\n      swap3\n      swap1\n      pop\n      pop\n      pop\n      tag_111\n      jump\t// in\n    tag_106:\n      stop\n        /* \"TimeAlly.sol\":27396:28023  function addNominee(uint256 _stakingId, address _nomineeAddress, uint256 _shares) public {... */\n    tag_21:\n      tag_112\n      0x04\n      dup1\n      calldatasize\n      sub\n        /* \"--CODEGEN--\":13:15   */\n      0x60\n        /* \"--CODEGEN--\":8:11   */\n      dup2\n        /* \"--CODEGEN--\":5:16   */\n      lt\n        /* \"--CODEGEN--\":2:4   */\n      iszero\n      tag_113\n      jumpi\n        /* \"--CODEGEN--\":29:30   */\n      0x00\n        /* \"--CODEGEN--\":26:27   */\n      dup1\n        /* \"--CODEGEN--\":19:31   */\n      revert\n        /* \"--CODEGEN--\":2:4   */\n    tag_113:\n        /* \"TimeAlly.sol\":27396:28023  function addNominee(uint256 _stakingId, address _nomineeAddress, uint256 _shares) public {... */\n      dup2\n      add\n      swap1\n      dup1\n      dup1\n      calldataload\n      swap1\n      0x20\n      add\n      swap1\n      swap3\n      swap2\n      swap1\n      dup1\n      calldataload\n      0xffffffffffffffffffffffffffffffffffffffff\n      and\n      swap1\n      0x20\n      add\n      swap1\n      swap3\n      swap2\n      swap1\n      dup1\n      calldataload\n      swap1\n      0x20\n      add\n      swap1\n      swap3\n      swap2\n      swap1\n      pop\n      pop\n      pop\n      tag_114\n      jump\t// in\n    tag_112:\n      stop\n        /* \"TimeAlly.sol\":8819:8959  function getNumberOfStakingsByUser(address _userAddress) public view returns (uint256) {... */\n    tag_22:\n      tag_115\n      0x04\n      dup1\n      calldatasize\n      sub\n        /* \"--CODEGEN--\":13:15   */\n      0x20\n        /* \"--CODEGEN--\":8:11   */\n      dup2\n        /* \"--CODEGEN--\":5:16   */\n      lt\n        /* \"--CODEGEN--\":2:4   */\n      iszero\n      tag_116\n      jumpi\n        /* \"--CODEGEN--\":29:30   */\n      0x00\n        /* \"--CODEGEN--\":26:27   */\n      dup1\n        /* \"--CODEGEN--\":19:31   */\n      revert\n        /* \"--CODEGEN--\":2:4   */\n    tag_116:\n        /* \"TimeAlly.sol\":8819:8959  function getNumberOfStakingsByUser(address _userAddress) public view returns (uint256) {... */\n      dup2\n      add\n      swap1\n      dup1\n      dup1\n      calldataload\n      0xffffffffffffffffffffffffffffffffffffffff\n      and\n      swap1\n      0x20\n      add\n      swap1\n      swap3\n      swap2\n      swap1\n      pop\n      pop\n      pop\n      tag_117\n      jump\t// in\n    tag_115:\n      mload(0x40)\n      dup1\n      dup3\n      dup2\n      mstore\n      0x20\n      add\n      swap2\n      pop\n      pop\n      mload(0x40)\n      dup1\n      swap2\n      sub\n      swap1\n      return\n        /* \"TimeAlly.sol\":2671:2698  LoanPlan[] public loanPlans */\n    tag_23:\n      tag_118\n      0x04\n      dup1\n      calldatasize\n      sub\n        /* \"--CODEGEN--\":13:15   */\n      0x20\n        /* \"--CODEGEN--\":8:11   */\n      dup2\n        /* \"--CODEGEN--\":5:16   */\n      lt\n        /* \"--CODEGEN--\":2:4   */\n      iszero\n      tag_119\n      jumpi\n        /* \"--CODEGEN--\":29:30   */\n      0x00\n        /* \"--CODEGEN--\":26:27   */\n      dup1\n        /* \"--CODEGEN--\":19:31   */\n      revert\n        /* \"--CODEGEN--\":2:4   */\n    tag_119:\n        /* \"TimeAlly.sol\":2671:2698  LoanPlan[] public loanPlans */\n      dup2\n      add\n      swap1\n      dup1\n      dup1\n      calldataload\n      swap1\n      0x20\n      add\n      swap1\n      swap3\n      swap2\n      swap1\n      pop\n      pop\n      pop\n      tag_120\n      jump\t// in\n    tag_118:\n      mload(0x40)\n      dup1\n      dup5\n      dup2\n      mstore\n      0x20\n      add\n      dup4\n      dup2\n      mstore\n      0x20\n      add\n      dup3\n      dup2\n      mstore\n      0x20\n      add\n      swap4\n      pop\n      pop\n      pop\n      pop\n      mload(0x40)\n      dup1\n      swap2\n      sub\n      swap1\n      return\n        /* \"TimeAlly.sol\":20128:23315  function takeLoanOnSelfStaking(uint256 _loanPlanId, uint256 _exaEsAmount, uint256[] memory _stakingIds) public {... */\n    tag_24:\n      tag_121\n      0x04\n      dup1\n      calldatasize\n      sub\n        /* \"--CODEGEN--\":13:15   */\n      0x60\n        /* \"--CODEGEN--\":8:11   */\n      dup2\n        /* \"--CODEGEN--\":5:16   */\n      lt\n        /* \"--CODEGEN--\":2:4   */\n      iszero\n      tag_122\n      jumpi\n        /* \"--CODEGEN--\":29:30   */\n      0x00\n        /* \"--CODEGEN--\":26:27   */\n      dup1\n        /* \"--CODEGEN--\":19:31   */\n      revert\n        /* \"--CODEGEN--\":2:4   */\n    tag_122:\n        /* \"TimeAlly.sol\":20128:23315  function takeLoanOnSelfStaking(uint256 _loanPlanId, uint256 _exaEsAmount, uint256[] memory _stakingIds) public {... */\n      dup2\n      add\n      swap1\n      dup1\n      dup1\n      calldataload\n      swap1\n      0x20\n      add\n      swap1\n      swap3\n      swap2\n      swap1\n      dup1\n      calldataload\n      swap1\n      0x20\n      add\n      swap1\n      swap3\n      swap2\n      swap1\n      dup1\n      calldataload\n      swap1\n      0x20\n      add\n      swap1\n        /* \"--CODEGEN--\":21:32   */\n      0x0100000000\n        /* \"--CODEGEN--\":8:19   */\n      dup2\n        /* \"--CODEGEN--\":5:33   */\n      gt\n        /* \"--CODEGEN--\":2:4   */\n      iszero\n      tag_123\n      jumpi\n        /* \"--CODEGEN--\":46:47   */\n      0x00\n        /* \"--CODEGEN--\":43:44   */\n      dup1\n        /* \"--CODEGEN--\":36:48   */\n      revert\n        /* \"--CODEGEN--\":2:4   */\n    tag_123:\n        /* \"TimeAlly.sol\":20128:23315  function takeLoanOnSelfStaking(uint256 _loanPlanId, uint256 _exaEsAmount, uint256[] memory _stakingIds) public {... */\n      dup3\n      add\n        /* \"--CODEGEN--\":35:44   */\n      dup4\n        /* \"--CODEGEN--\":28:32   */\n      0x20\n        /* \"--CODEGEN--\":12:26   */\n      dup3\n        /* \"--CODEGEN--\":8:33   */\n      add\n        /* \"--CODEGEN--\":5:45   */\n      gt\n        /* \"--CODEGEN--\":2:4   */\n      iszero\n      tag_124\n      jumpi\n        /* \"--CODEGEN--\":58:59   */\n      0x00\n        /* \"--CODEGEN--\":55:56   */\n      dup1\n        /* \"--CODEGEN--\":48:60   */\n      revert\n        /* \"--CODEGEN--\":2:4   */\n    tag_124:\n        /* \"TimeAlly.sol\":20128:23315  function takeLoanOnSelfStaking(uint256 _loanPlanId, uint256 _exaEsAmount, uint256[] memory _stakingIds) public {... */\n      dup1\n      calldataload\n      swap1\n      0x20\n      add\n      swap2\n        /* \"--CODEGEN--\":101:110   */\n      dup5\n        /* \"--CODEGEN--\":95:97   */\n      0x20\n        /* \"--CODEGEN--\":81:93   */\n      dup4\n        /* \"--CODEGEN--\":77:98   */\n      mul\n        /* \"--CODEGEN--\":67:75   */\n      dup5\n        /* \"--CODEGEN--\":63:99   */\n      add\n        /* \"--CODEGEN--\":60:111   */\n      gt\n        /* \"--CODEGEN--\":39:50   */\n      0x0100000000\n        /* \"--CODEGEN--\":25:37   */\n      dup4\n        /* \"--CODEGEN--\":22:51   */\n      gt\n        /* \"--CODEGEN--\":11:119   */\n      or\n        /* \"--CODEGEN--\":8:10   */\n      iszero\n      tag_125\n      jumpi\n        /* \"--CODEGEN--\":132:133   */\n      0x00\n        /* \"--CODEGEN--\":129:130   */\n      dup1\n        /* \"--CODEGEN--\":122:134   */\n      revert\n        /* \"--CODEGEN--\":8:10   */\n    tag_125:\n        /* \"TimeAlly.sol\":20128:23315  function takeLoanOnSelfStaking(uint256 _loanPlanId, uint256 _exaEsAmount, uint256[] memory _stakingIds) public {... */\n      swap2\n      swap1\n      dup1\n      dup1\n      0x20\n      mul\n      0x20\n      add\n      mload(0x40)\n      swap1\n      dup2\n      add\n      0x40\n      mstore\n      dup1\n      swap4\n      swap3\n      swap2\n      swap1\n      dup2\n      dup2\n      mstore\n      0x20\n      add\n      dup4\n      dup4\n      0x20\n      mul\n        /* \"--CODEGEN--\":30:33   */\n      dup1\n        /* \"--CODEGEN--\":22:28   */\n      dup3\n        /* \"--CODEGEN--\":14:20   */\n      dup5\n        /* \"--CODEGEN--\":1:34   */\n      calldatacopy\n        /* \"--CODEGEN--\":99:100   */\n      0x00\n        /* \"--CODEGEN--\":93:96   */\n      dup2\n        /* \"--CODEGEN--\":85:91   */\n      dup5\n        /* \"--CODEGEN--\":81:97   */\n      add\n        /* \"--CODEGEN--\":74:101   */\n      mstore\n        /* \"--CODEGEN--\":137:141   */\n      0x1f\n        /* \"--CODEGEN--\":133:142   */\n      not\n        /* \"--CODEGEN--\":126:130   */\n      0x1f\n        /* \"--CODEGEN--\":121:124   */\n      dup3\n        /* \"--CODEGEN--\":117:131   */\n      add\n        /* \"--CODEGEN--\":113:143   */\n      and\n        /* \"--CODEGEN--\":106:143   */\n      swap1\n      pop\n        /* \"--CODEGEN--\":169:172   */\n      dup1\n        /* \"--CODEGEN--\":161:167   */\n      dup4\n        /* \"--CODEGEN--\":157:173   */\n      add\n        /* \"--CODEGEN--\":147:173   */\n      swap3\n      pop\n        /* \"TimeAlly.sol\":20128:23315  function takeLoanOnSelfStaking(uint256 _loanPlanId, uint256 _exaEsAmount, uint256[] memory _stakingIds) public {... */\n      pop\n      pop\n      pop\n      pop\n      pop\n      pop\n      swap2\n      swap3\n      swap2\n      swap3\n      swap1\n      pop\n      pop\n      pop\n      tag_126\n      jump\t// in\n    tag_121:\n      stop\n        /* \"TimeAlly.sol\":6620:7068  function createLoanPlan(uint256 _loanMonths, uint256 _loanRate, uint256 _maxLoanAmountPercent) public onlyOwner {... */\n    tag_25:\n      tag_127\n      0x04\n      dup1\n      calldatasize\n      sub\n        /* \"--CODEGEN--\":13:15   */\n      0x60\n        /* \"--CODEGEN--\":8:11   */\n      dup2\n        /* \"--CODEGEN--\":5:16   */\n      lt\n        /* \"--CODEGEN--\":2:4   */\n      iszero\n      tag_128\n      jumpi\n        /* \"--CODEGEN--\":29:30   */\n      0x00\n        /* \"--CODEGEN--\":26:27   */\n      dup1\n        /* \"--CODEGEN--\":19:31   */\n      revert\n        /* \"--CODEGEN--\":2:4   */\n    tag_128:\n        /* \"TimeAlly.sol\":6620:7068  function createLoanPlan(uint256 _loanMonths, uint256 _loanRate, uint256 _maxLoanAmountPercent) public onlyOwner {... */\n      dup2\n      add\n      swap1\n      dup1\n      dup1\n      calldataload\n      swap1\n      0x20\n      add\n      swap1\n      swap3\n      swap2\n      swap1\n      dup1\n      calldataload\n      swap1\n      0x20\n      add\n      swap1\n      swap3\n      swap2\n      swap1\n      dup1\n      calldataload\n      swap1\n      0x20\n      add\n      swap1\n      swap3\n      swap2\n      swap1\n      pop\n      pop\n      pop\n      tag_129\n      jump\t// in\n    tag_127:\n      stop\n        /* \"TimeAlly.sol\":12040:13362  function isStakingActive(... */\n    tag_26:\n      tag_130\n      0x04\n      dup1\n      calldatasize\n      sub\n        /* \"--CODEGEN--\":13:15   */\n      0x60\n        /* \"--CODEGEN--\":8:11   */\n      dup2\n        /* \"--CODEGEN--\":5:16   */\n      lt\n        /* \"--CODEGEN--\":2:4   */\n      iszero\n      tag_131\n      jumpi\n        /* \"--CODEGEN--\":29:30   */\n      0x00\n        /* \"--CODEGEN--\":26:27   */\n      dup1\n        /* \"--CODEGEN--\":19:31   */\n      revert\n        /* \"--CODEGEN--\":2:4   */\n    tag_131:\n        /* \"TimeAlly.sol\":12040:13362  function isStakingActive(... */\n      dup2\n      add\n      swap1\n      dup1\n      dup1\n      calldataload\n      0xffffffffffffffffffffffffffffffffffffffff\n      and\n      swap1\n      0x20\n      add\n      swap1\n      swap3\n      swap2\n      swap1\n      dup1\n      calldataload\n      swap1\n      0x20\n      add\n      swap1\n      swap3\n      swap2\n      swap1\n      dup1\n      calldataload\n      swap1\n      0x20\n      add\n      swap1\n      swap3\n      swap2\n      swap1\n      pop\n      pop\n      pop\n      tag_132\n      jump\t// in\n    tag_130:\n      mload(0x40)\n      dup1\n      dup3\n      iszero\n      iszero\n      iszero\n      iszero\n      dup2\n      mstore\n      0x20\n      add\n      swap2\n      pop\n      pop\n      mload(0x40)\n      dup1\n      swap2\n      sub\n      swap1\n      return\n        /* \"TimeAlly.sol\":10371:11693  function claimLaunchReward(uint256 _stakingPlanId) public {... */\n    tag_27:\n      tag_133\n      0x04\n      dup1\n      calldatasize\n      sub\n        /* \"--CODEGEN--\":13:15   */\n      0x20\n        /* \"--CODEGEN--\":8:11   */\n      dup2\n        /* \"--CODEGEN--\":5:16   */\n      lt\n        /* \"--CODEGEN--\":2:4   */\n      iszero\n      tag_134\n      jumpi\n        /* \"--CODEGEN--\":29:30   */\n      0x00\n        /* \"--CODEGEN--\":26:27   */\n      dup1\n        /* \"--CODEGEN--\":19:31   */\n      revert\n        /* \"--CODEGEN--\":2:4   */\n    tag_134:\n        /* \"TimeAlly.sol\":10371:11693  function claimLaunchReward(uint256 _stakingPlanId) public {... */\n      dup2\n      add\n      swap1\n      dup1\n      dup1\n      calldataload\n      swap1\n      0x20\n      add\n      swap1\n      swap3\n      swap2\n      swap1\n      pop\n      pop\n      pop\n      tag_135\n      jump\t// in\n    tag_133:\n      stop\n        /* \"TimeAlly.sol\":5369:5479  function getCurrentMonth() public view returns (uint256) {... */\n    tag_28:\n      tag_136\n      tag_137\n      jump\t// in\n    tag_136:\n      mload(0x40)\n      dup1\n      dup3\n      dup2\n      mstore\n      0x20\n      add\n      swap2\n      pop\n      pop\n      mload(0x40)\n      dup1\n      swap2\n      sub\n      swap1\n      return\n        /* \"TimeAlly.sol\":23456:25061  function repayLoanSelf(uint256 _loanId) public {... */\n    tag_29:\n      tag_138\n      0x04\n      dup1\n      calldatasize\n      sub\n        /* \"--CODEGEN--\":13:15   */\n      0x20\n        /* \"--CODEGEN--\":8:11   */\n      dup2\n        /* \"--CODEGEN--\":5:16   */\n      lt\n        /* \"--CODEGEN--\":2:4   */\n      iszero\n      tag_139\n      jumpi\n        /* \"--CODEGEN--\":29:30   */\n      0x00\n        /* \"--CODEGEN--\":26:27   */\n      dup1\n        /* \"--CODEGEN--\":19:31   */\n      revert\n        /* \"--CODEGEN--\":2:4   */\n    tag_139:\n        /* \"TimeAlly.sol\":23456:25061  function repayLoanSelf(uint256 _loanId) public {... */\n      dup2\n      add\n      swap1\n      dup1\n      dup1\n      calldataload\n      swap1\n      0x20\n      add\n      swap1\n      swap3\n      swap2\n      swap1\n      pop\n      pop\n      pop\n      tag_140\n      jump\t// in\n    tag_138:\n      stop\n        /* \"TimeAlly.sol\":18200:19703  function seeMaxLoaningAmountOnUserStakings(address _userAddress, uint256[] memory _stakingIds, uint256 _loanPlanId) public view returns (uint256) {... */\n    tag_30:\n      tag_141\n      0x04\n      dup1\n      calldatasize\n      sub\n        /* \"--CODEGEN--\":13:15   */\n      0x60\n        /* \"--CODEGEN--\":8:11   */\n      dup2\n        /* \"--CODEGEN--\":5:16   */\n      lt\n        /* \"--CODEGEN--\":2:4   */\n      iszero\n      tag_142\n      jumpi\n        /* \"--CODEGEN--\":29:30   */\n      0x00\n        /* \"--CODEGEN--\":26:27   */\n      dup1\n        /* \"--CODEGEN--\":19:31   */\n      revert\n        /* \"--CODEGEN--\":2:4   */\n    tag_142:\n        /* \"TimeAlly.sol\":18200:19703  function seeMaxLoaningAmountOnUserStakings(address _userAddress, uint256[] memory _stakingIds, uint256 _loanPlanId) public view returns (uint256) {... */\n      dup2\n      add\n      swap1\n      dup1\n      dup1\n      calldataload\n      0xffffffffffffffffffffffffffffffffffffffff\n      and\n      swap1\n      0x20\n      add\n      swap1\n      swap3\n      swap2\n      swap1\n      dup1\n      calldataload\n      swap1\n      0x20\n      add\n      swap1\n        /* \"--CODEGEN--\":21:32   */\n      0x0100000000\n        /* \"--CODEGEN--\":8:19   */\n      dup2\n        /* \"--CODEGEN--\":5:33   */\n      gt\n        /* \"--CODEGEN--\":2:4   */\n      iszero\n      tag_143\n      jumpi\n        /* \"--CODEGEN--\":46:47   */\n      0x00\n        /* \"--CODEGEN--\":43:44   */\n      dup1\n        /* \"--CODEGEN--\":36:48   */\n      revert\n        /* \"--CODEGEN--\":2:4   */\n    tag_143:\n        /* \"TimeAlly.sol\":18200:19703  function seeMaxLoaningAmountOnUserStakings(address _userAddress, uint256[] memory _stakingIds, uint256 _loanPlanId) public view returns (uint256) {... */\n      dup3\n      add\n        /* \"--CODEGEN--\":35:44   */\n      dup4\n        /* \"--CODEGEN--\":28:32   */\n      0x20\n        /* \"--CODEGEN--\":12:26   */\n      dup3\n        /* \"--CODEGEN--\":8:33   */\n      add\n        /* \"--CODEGEN--\":5:45   */\n      gt\n        /* \"--CODEGEN--\":2:4   */\n      iszero\n      tag_144\n      jumpi\n        /* \"--CODEGEN--\":58:59   */\n      0x00\n        /* \"--CODEGEN--\":55:56   */\n      dup1\n        /* \"--CODEGEN--\":48:60   */\n      revert\n        /* \"--CODEGEN--\":2:4   */\n    tag_144:\n        /* \"TimeAlly.sol\":18200:19703  function seeMaxLoaningAmountOnUserStakings(address _userAddress, uint256[] memory _stakingIds, uint256 _loanPlanId) public view returns (uint256) {... */\n      dup1\n      calldataload\n      swap1\n      0x20\n      add\n      swap2\n        /* \"--CODEGEN--\":101:110   */\n      dup5\n        /* \"--CODEGEN--\":95:97   */\n      0x20\n        /* \"--CODEGEN--\":81:93   */\n      dup4\n        /* \"--CODEGEN--\":77:98   */\n      mul\n        /* \"--CODEGEN--\":67:75   */\n      dup5\n        /* \"--CODEGEN--\":63:99   */\n      add\n        /* \"--CODEGEN--\":60:111   */\n      gt\n        /* \"--CODEGEN--\":39:50   */\n      0x0100000000\n        /* \"--CODEGEN--\":25:37   */\n      dup4\n        /* \"--CODEGEN--\":22:51   */\n      gt\n        /* \"--CODEGEN--\":11:119   */\n      or\n        /* \"--CODEGEN--\":8:10   */\n      iszero\n      tag_145\n      jumpi\n        /* \"--CODEGEN--\":132:133   */\n      0x00\n        /* \"--CODEGEN--\":129:130   */\n      dup1\n        /* \"--CODEGEN--\":122:134   */\n      revert\n        /* \"--CODEGEN--\":8:10   */\n    tag_145:\n        /* \"TimeAlly.sol\":18200:19703  function seeMaxLoaningAmountOnUserStakings(address _userAddress, uint256[] memory _stakingIds, uint256 _loanPlanId) public view returns (uint256) {... */\n      swap2\n      swap1\n      dup1\n      dup1\n      0x20\n      mul\n      0x20\n      add\n      mload(0x40)\n      swap1\n      dup2\n      add\n      0x40\n      mstore\n      dup1\n      swap4\n      swap3\n      swap2\n      swap1\n      dup2\n      dup2\n      mstore\n      0x20\n      add\n      dup4\n      dup4\n      0x20\n      mul\n        /* \"--CODEGEN--\":30:33   */\n      dup1\n        /* \"--CODEGEN--\":22:28   */\n      dup3\n        /* \"--CODEGEN--\":14:20   */\n      dup5\n        /* \"--CODEGEN--\":1:34   */\n      calldatacopy\n        /* \"--CODEGEN--\":99:100   */\n      0x00\n        /* \"--CODEGEN--\":93:96   */\n      dup2\n        /* \"--CODEGEN--\":85:91   */\n      dup5\n        /* \"--CODEGEN--\":81:97   */\n      add\n        /* \"--CODEGEN--\":74:101   */\n      mstore\n        /* \"--CODEGEN--\":137:141   */\n      0x1f\n        /* \"--CODEGEN--\":133:142   */\n      not\n        /* \"--CODEGEN--\":126:130   */\n      0x1f\n        /* \"--CODEGEN--\":121:124   */\n      dup3\n        /* \"--CODEGEN--\":117:131   */\n      add\n        /* \"--CODEGEN--\":113:143   */\n      and\n        /* \"--CODEGEN--\":106:143   */\n      swap1\n      pop\n        /* \"--CODEGEN--\":169:172   */\n      dup1\n        /* \"--CODEGEN--\":161:167   */\n      dup4\n        /* \"--CODEGEN--\":157:173   */\n      add\n        /* \"--CODEGEN--\":147:173   */\n      swap3\n      pop\n        /* \"TimeAlly.sol\":18200:19703  function seeMaxLoaningAmountOnUserStakings(address _userAddress, uint256[] memory _stakingIds, uint256 _loanPlanId) public view returns (uint256) {... */\n      pop\n      pop\n      pop\n      pop\n      pop\n      pop\n      swap2\n      swap3\n      swap2\n      swap3\n      swap1\n      dup1\n      calldataload\n      swap1\n      0x20\n      add\n      swap1\n      swap3\n      swap2\n      swap1\n      pop\n      pop\n      pop\n      tag_146\n      jump\t// in\n    tag_141:\n      mload(0x40)\n      dup1\n      dup3\n      dup2\n      mstore\n      0x20\n      add\n      swap2\n      pop\n      pop\n      mload(0x40)\n      dup1\n      swap2\n      sub\n      swap1\n      return\n        /* \"TimeAlly.sol\":7328:8632  function newStaking(uint256 _exaEsAmount, uint256 _stakingPlanId) public {... */\n    tag_31:\n      tag_147\n      0x04\n      dup1\n      calldatasize\n      sub\n        /* \"--CODEGEN--\":13:15   */\n      0x40\n        /* \"--CODEGEN--\":8:11   */\n      dup2\n        /* \"--CODEGEN--\":5:16   */\n      lt\n        /* \"--CODEGEN--\":2:4   */\n      iszero\n      tag_148\n      jumpi\n        /* \"--CODEGEN--\":29:30   */\n      0x00\n        /* \"--CODEGEN--\":26:27   */\n      dup1\n        /* \"--CODEGEN--\":19:31   */\n      revert\n        /* \"--CODEGEN--\":2:4   */\n    tag_148:\n        /* \"TimeAlly.sol\":7328:8632  function newStaking(uint256 _exaEsAmount, uint256 _stakingPlanId) public {... */\n      dup2\n      add\n      swap1\n      dup1\n      dup1\n      calldataload\n      swap1\n      0x20\n      add\n      swap1\n      swap3\n      swap2\n      swap1\n      dup1\n      calldataload\n      swap1\n      0x20\n      add\n      swap1\n      swap3\n      swap2\n      swap1\n      pop\n      pop\n      pop\n      tag_149\n      jump\t// in\n    tag_147:\n      stop\n        /* \"TimeAlly.sol\":2278:2310  uint256 public deployedTimestamp */\n    tag_32:\n      tag_150\n      tag_151\n      jump\t// in\n    tag_150:\n      mload(0x40)\n      dup1\n      dup3\n      dup2\n      mstore\n      0x20\n      add\n      swap2\n      pop\n      pop\n      mload(0x40)\n      dup1\n      swap2\n      sub\n      swap1\n      return\n        /* \"TimeAlly.sol\":5119:5240  function increaseMonth(uint256 _timeAllyNRT) public onlyNRTManager {... */\n    tag_33:\n      tag_152\n      0x04\n      dup1\n      calldatasize\n      sub\n        /* \"--CODEGEN--\":13:15   */\n      0x20\n        /* \"--CODEGEN--\":8:11   */\n      dup2\n        /* \"--CODEGEN--\":5:16   */\n      lt\n        /* \"--CODEGEN--\":2:4   */\n      iszero\n      tag_153\n      jumpi\n        /* \"--CODEGEN--\":29:30   */\n      0x00\n        /* \"--CODEGEN--\":26:27   */\n      dup1\n        /* \"--CODEGEN--\":19:31   */\n      revert\n        /* \"--CODEGEN--\":2:4   */\n    tag_153:\n        /* \"TimeAlly.sol\":5119:5240  function increaseMonth(uint256 _timeAllyNRT) public onlyNRTManager {... */\n      dup2\n      add\n      swap1\n      dup1\n      dup1\n      calldataload\n      swap1\n      0x20\n      add\n      swap1\n      swap3\n      swap2\n      swap1\n      pop\n      pop\n      pop\n      tag_154\n      jump\t// in\n    tag_152:\n      stop\n        /* \"TimeAlly.sol\":17191:17825  function withdrawExpiredStakings(uint256[] memory _stakingIds) public {... */\n    tag_34:\n      tag_155\n      0x04\n      dup1\n      calldatasize\n      sub\n        /* \"--CODEGEN--\":13:15   */\n      0x20\n        /* \"--CODEGEN--\":8:11   */\n      dup2\n        /* \"--CODEGEN--\":5:16   */\n      lt\n        /* \"--CODEGEN--\":2:4   */\n      iszero\n      tag_156\n      jumpi\n        /* \"--CODEGEN--\":29:30   */\n      0x00\n        /* \"--CODEGEN--\":26:27   */\n      dup1\n        /* \"--CODEGEN--\":19:31   */\n      revert\n        /* \"--CODEGEN--\":2:4   */\n    tag_156:\n        /* \"TimeAlly.sol\":17191:17825  function withdrawExpiredStakings(uint256[] memory _stakingIds) public {... */\n      dup2\n      add\n      swap1\n      dup1\n      dup1\n      calldataload\n      swap1\n      0x20\n      add\n      swap1\n        /* \"--CODEGEN--\":21:32   */\n      0x0100000000\n        /* \"--CODEGEN--\":8:19   */\n      dup2\n        /* \"--CODEGEN--\":5:33   */\n      gt\n        /* \"--CODEGEN--\":2:4   */\n      iszero\n      tag_157\n      jumpi\n        /* \"--CODEGEN--\":46:47   */\n      0x00\n        /* \"--CODEGEN--\":43:44   */\n      dup1\n        /* \"--CODEGEN--\":36:48   */\n      revert\n        /* \"--CODEGEN--\":2:4   */\n    tag_157:\n        /* \"TimeAlly.sol\":17191:17825  function withdrawExpiredStakings(uint256[] memory _stakingIds) public {... */\n      dup3\n      add\n        /* \"--CODEGEN--\":35:44   */\n      dup4\n        /* \"--CODEGEN--\":28:32   */\n      0x20\n        /* \"--CODEGEN--\":12:26   */\n      dup3\n        /* \"--CODEGEN--\":8:33   */\n      add\n        /* \"--CODEGEN--\":5:45   */\n      gt\n        /* \"--CODEGEN--\":2:4   */\n      iszero\n      tag_158\n      jumpi\n        /* \"--CODEGEN--\":58:59   */\n      0x00\n        /* \"--CODEGEN--\":55:56   */\n      dup1\n        /* \"--CODEGEN--\":48:60   */\n      revert\n        /* \"--CODEGEN--\":2:4   */\n    tag_158:\n        /* \"TimeAlly.sol\":17191:17825  function withdrawExpiredStakings(uint256[] memory _stakingIds) public {... */\n      dup1\n      calldataload\n      swap1\n      0x20\n      add\n      swap2\n        /* \"--CODEGEN--\":101:110   */\n      dup5\n        /* \"--CODEGEN--\":95:97   */\n      0x20\n        /* \"--CODEGEN--\":81:93   */\n      dup4\n        /* \"--CODEGEN--\":77:98   */\n      mul\n        /* \"--CODEGEN--\":67:75   */\n      dup5\n        /* \"--CODEGEN--\":63:99   */\n      add\n        /* \"--CODEGEN--\":60:111   */\n      gt\n        /* \"--CODEGEN--\":39:50   */\n      0x0100000000\n        /* \"--CODEGEN--\":25:37   */\n      dup4\n        /* \"--CODEGEN--\":22:51   */\n      gt\n        /* \"--CODEGEN--\":11:119   */\n      or\n        /* \"--CODEGEN--\":8:10   */\n      iszero\n      tag_159\n      jumpi\n        /* \"--CODEGEN--\":132:133   */\n      0x00\n        /* \"--CODEGEN--\":129:130   */\n      dup1\n        /* \"--CODEGEN--\":122:134   */\n      revert\n        /* \"--CODEGEN--\":8:10   */\n    tag_159:\n        /* \"TimeAlly.sol\":17191:17825  function withdrawExpiredStakings(uint256[] memory _stakingIds) public {... */\n      swap2\n      swap1\n      dup1\n      dup1\n      0x20\n      mul\n      0x20\n      add\n      mload(0x40)\n      swap1\n      dup2\n      add\n      0x40\n      mstore\n      dup1\n      swap4\n      swap3\n      swap2\n      swap1\n      dup2\n      dup2\n      mstore\n      0x20\n      add\n      dup4\n      dup4\n      0x20\n      mul\n        /* \"--CODEGEN--\":30:33   */\n      dup1\n        /* \"--CODEGEN--\":22:28   */\n      dup3\n        /* \"--CODEGEN--\":14:20   */\n      dup5\n        /* \"--CODEGEN--\":1:34   */\n      calldatacopy\n        /* \"--CODEGEN--\":99:100   */\n      0x00\n        /* \"--CODEGEN--\":93:96   */\n      dup2\n        /* \"--CODEGEN--\":85:91   */\n      dup5\n        /* \"--CODEGEN--\":81:97   */\n      add\n        /* \"--CODEGEN--\":74:101   */\n      mstore\n        /* \"--CODEGEN--\":137:141   */\n      0x1f\n        /* \"--CODEGEN--\":133:142   */\n      not\n        /* \"--CODEGEN--\":126:130   */\n      0x1f\n        /* \"--CODEGEN--\":121:124   */\n      dup3\n        /* \"--CODEGEN--\":117:131   */\n      add\n        /* \"--CODEGEN--\":113:143   */\n      and\n        /* \"--CODEGEN--\":106:143   */\n      swap1\n      pop\n        /* \"--CODEGEN--\":169:172   */\n      dup1\n        /* \"--CODEGEN--\":161:167   */\n      dup4\n        /* \"--CODEGEN--\":157:173   */\n      add\n        /* \"--CODEGEN--\":147:173   */\n      swap3\n      pop\n        /* \"TimeAlly.sol\":17191:17825  function withdrawExpiredStakings(uint256[] memory _stakingIds) public {... */\n      pop\n      pop\n      pop\n      pop\n      pop\n      pop\n      swap2\n      swap3\n      swap2\n      swap3\n      swap1\n      pop\n      pop\n      pop\n      tag_160\n      jump\t// in\n    tag_155:\n      stop\n        /* \"TimeAlly.sol\":2342:2362  Eraswap public token */\n    tag_35:\n      tag_161\n      tag_162\n      jump\t// in\n    tag_161:\n      mload(0x40)\n      dup1\n      dup3\n      0xffffffffffffffffffffffffffffffffffffffff\n      and\n      0xffffffffffffffffffffffffffffffffffffffff\n      and\n      dup2\n      mstore\n      0x20\n      add\n      swap2\n      pop\n      pop\n      mload(0x40)\n      dup1\n      swap2\n      sub\n      swap1\n      return\n        /* \"TimeAlly.sol\":2368:2396  NRTManager public nrtManager */\n    tag_44:\n      0x03\n      0x00\n      swap1\n      sload\n      swap1\n      0x0100\n      exp\n      swap1\n      div\n      0xffffffffffffffffffffffffffffffffffffffff\n      and\n      dup2\n      jump\t// out\n        /* \"TimeAlly.sol\":25067:26495  function burnDefaultedLoans(address[] memory _addressArray, uint256[] memory _loanIdArray) public {... */\n    tag_53:\n        /* \"TimeAlly.sol\":25175:25196  uint256 _amountToBurn */\n      0x00\n        /* \"TimeAlly.sol\":25210:25219  uint256 i */\n      dup1\n        /* \"TimeAlly.sol\":25222:25223  0 */\n      0x00\n        /* \"TimeAlly.sol\":25210:25223  uint256 i = 0 */\n      swap1\n      pop\n        /* \"TimeAlly.sol\":25206:26339  for(uint256 i = 0; i < _addressArray.length; i++) {... */\n    tag_164:\n        /* \"TimeAlly.sol\":25229:25242  _addressArray */\n      dup4\n        /* \"TimeAlly.sol\":25229:25249  _addressArray.length */\n      mload\n        /* \"TimeAlly.sol\":25225:25226  i */\n      dup2\n        /* \"TimeAlly.sol\":25225:25249  i < _addressArray.length */\n      lt\n        /* \"TimeAlly.sol\":25206:26339  for(uint256 i = 0; i < _addressArray.length; i++) {... */\n      iszero\n      tag_165\n      jumpi\n        /* \"TimeAlly.sol\":25350:25351  1 */\n      0x01\n        /* \"TimeAlly.sol\":25295:25300  loans */\n      0x08\n        /* \"TimeAlly.sol\":25295:25320  loans[ _addressArray[i] ] */\n      0x00\n        /* \"TimeAlly.sol\":25302:25315  _addressArray */\n      dup7\n        /* \"TimeAlly.sol\":25316:25317  i */\n      dup5\n        /* \"TimeAlly.sol\":25302:25318  _addressArray[i] */\n      dup2\n      mload\n      dup2\n      lt\n      tag_167\n      jumpi\n      invalid\n    tag_167:\n      0x20\n      mul\n      0x20\n      add\n      add\n      mload\n        /* \"TimeAlly.sol\":25295:25320  loans[ _addressArray[i] ] */\n      0xffffffffffffffffffffffffffffffffffffffff\n      and\n      0xffffffffffffffffffffffffffffffffffffffff\n      and\n      dup2\n      mstore\n      0x20\n      add\n      swap1\n      dup2\n      mstore\n      0x20\n      add\n      0x00\n      keccak256\n        /* \"TimeAlly.sol\":25322:25334  _loanIdArray */\n      dup5\n        /* \"TimeAlly.sol\":25335:25336  i */\n      dup4\n        /* \"TimeAlly.sol\":25322:25337  _loanIdArray[i] */\n      dup2\n      mload\n      dup2\n      lt\n      tag_168\n      jumpi\n      invalid\n    tag_168:\n      0x20\n      mul\n      0x20\n      add\n      add\n      mload\n        /* \"TimeAlly.sol\":25295:25339  loans[ _addressArray[i] ][ _loanIdArray[i] ] */\n      dup2\n      sload\n      dup2\n      lt\n      tag_169\n      jumpi\n      invalid\n    tag_169:\n      swap1\n      0x00\n      mstore\n      keccak256(0x00, 0x20)\n      swap1\n      0x05\n      mul\n      add\n        /* \"TimeAlly.sol\":25295:25346  loans[ _addressArray[i] ][ _loanIdArray[i] ].status */\n      0x03\n      add\n      sload\n        /* \"TimeAlly.sol\":25295:25351  loans[ _addressArray[i] ][ _loanIdArray[i] ].status == 1 */\n      eq\n        /* \"TimeAlly.sol\":25270:25415  require(... */\n      tag_171\n      jumpi\n      0x00\n      dup1\n      revert\n    tag_171:\n        /* \"TimeAlly.sol\":25549:25653  loanPlans[ loans[ _addressArray[i] ][ _loanIdArray[i] ].loanPlanId ].loanMonths.mul(earthSecondsInMonth) */\n      tag_172\n        /* \"TimeAlly.sol\":25633:25652  earthSecondsInMonth */\n      sload(0x04)\n        /* \"TimeAlly.sol\":25549:25558  loanPlans */\n      0x06\n        /* \"TimeAlly.sol\":25560:25565  loans */\n      0x08\n        /* \"TimeAlly.sol\":25560:25585  loans[ _addressArray[i] ] */\n      0x00\n        /* \"TimeAlly.sol\":25567:25580  _addressArray */\n      dup9\n        /* \"TimeAlly.sol\":25581:25582  i */\n      dup7\n        /* \"TimeAlly.sol\":25567:25583  _addressArray[i] */\n      dup2\n      mload\n      dup2\n      lt\n      tag_173\n      jumpi\n      invalid\n    tag_173:\n      0x20\n      mul\n      0x20\n      add\n      add\n      mload\n        /* \"TimeAlly.sol\":25560:25585  loans[ _addressArray[i] ] */\n      0xffffffffffffffffffffffffffffffffffffffff\n      and\n      0xffffffffffffffffffffffffffffffffffffffff\n      and\n      dup2\n      mstore\n      0x20\n      add\n      swap1\n      dup2\n      mstore\n      0x20\n      add\n      0x00\n      keccak256\n        /* \"TimeAlly.sol\":25587:25599  _loanIdArray */\n      dup7\n        /* \"TimeAlly.sol\":25600:25601  i */\n      dup6\n        /* \"TimeAlly.sol\":25587:25602  _loanIdArray[i] */\n      dup2\n      mload\n      dup2\n      lt\n      tag_174\n      jumpi\n      invalid\n    tag_174:\n      0x20\n      mul\n      0x20\n      add\n      add\n      mload\n        /* \"TimeAlly.sol\":25560:25604  loans[ _addressArray[i] ][ _loanIdArray[i] ] */\n      dup2\n      sload\n      dup2\n      lt\n      tag_175\n      jumpi\n      invalid\n    tag_175:\n      swap1\n      0x00\n      mstore\n      keccak256(0x00, 0x20)\n      swap1\n      0x05\n      mul\n      add\n        /* \"TimeAlly.sol\":25560:25615  loans[ _addressArray[i] ][ _loanIdArray[i] ].loanPlanId */\n      0x02\n      add\n      sload\n        /* \"TimeAlly.sol\":25549:25617  loanPlans[ loans[ _addressArray[i] ][ _loanIdArray[i] ].loanPlanId ] */\n      dup2\n      sload\n      dup2\n      lt\n      tag_177\n      jumpi\n      invalid\n    tag_177:\n      swap1\n      0x00\n      mstore\n      keccak256(0x00, 0x20)\n      swap1\n      0x03\n      mul\n      add\n        /* \"TimeAlly.sol\":25549:25628  loanPlans[ loans[ _addressArray[i] ][ _loanIdArray[i] ].loanPlanId ].loanMonths */\n      0x00\n      add\n      sload\n        /* \"TimeAlly.sol\":25549:25632  loanPlans[ loans[ _addressArray[i] ][ _loanIdArray[i] ].loanPlanId ].loanMonths.mul */\n      tag_179\n      swap1\n        /* \"TimeAlly.sol\":25549:25653  loanPlans[ loans[ _addressArray[i] ][ _loanIdArray[i] ].loanPlanId ].loanMonths.mul(earthSecondsInMonth) */\n      swap2\n      swap1\n      0xffffffff\n      and\n      jump\t// in\n    tag_172:\n        /* \"TimeAlly.sol\":25476:25481  loans */\n      0x08\n        /* \"TimeAlly.sol\":25476:25501  loans[ _addressArray[i] ] */\n      0x00\n        /* \"TimeAlly.sol\":25483:25496  _addressArray */\n      dup7\n        /* \"TimeAlly.sol\":25497:25498  i */\n      dup5\n        /* \"TimeAlly.sol\":25483:25499  _addressArray[i] */\n      dup2\n      mload\n      dup2\n      lt\n      tag_180\n      jumpi\n      invalid\n    tag_180:\n      0x20\n      mul\n      0x20\n      add\n      add\n      mload\n        /* \"TimeAlly.sol\":25476:25501  loans[ _addressArray[i] ] */\n      0xffffffffffffffffffffffffffffffffffffffff\n      and\n      0xffffffffffffffffffffffffffffffffffffffff\n      and\n      dup2\n      mstore\n      0x20\n      add\n      swap1\n      dup2\n      mstore\n      0x20\n      add\n      0x00\n      keccak256\n        /* \"TimeAlly.sol\":25503:25515  _loanIdArray */\n      dup5\n        /* \"TimeAlly.sol\":25516:25517  i */\n      dup4\n        /* \"TimeAlly.sol\":25503:25518  _loanIdArray[i] */\n      dup2\n      mload\n      dup2\n      lt\n      tag_181\n      jumpi\n      invalid\n    tag_181:\n      0x20\n      mul\n      0x20\n      add\n      add\n      mload\n        /* \"TimeAlly.sol\":25476:25520  loans[ _addressArray[i] ][ _loanIdArray[i] ] */\n      dup2\n      sload\n      dup2\n      lt\n      tag_182\n      jumpi\n      invalid\n    tag_182:\n      swap1\n      0x00\n      mstore\n      keccak256(0x00, 0x20)\n      swap1\n      0x05\n      mul\n      add\n        /* \"TimeAlly.sol\":25476:25530  loans[ _addressArray[i] ][ _loanIdArray[i] ].timestamp */\n      0x01\n      add\n      sload\n        /* \"TimeAlly.sol\":25476:25653  loans[ _addressArray[i] ][ _loanIdArray[i] ].timestamp... */\n      add\n        /* \"TimeAlly.sol\":25454:25457  now */\n      timestamp\n        /* \"TimeAlly.sol\":25454:25653  now >... */\n      gt\n        /* \"TimeAlly.sol\":25429:25731  require(... */\n      tag_184\n      jumpi\n      0x00\n      dup1\n      revert\n    tag_184:\n        /* \"TimeAlly.sol\":25745:25780  uint256[] storage _stakingIdsOfLoan */\n      0x00\n        /* \"TimeAlly.sol\":25783:25788  loans */\n      0x08\n        /* \"TimeAlly.sol\":25783:25808  loans[ _addressArray[i] ] */\n      0x00\n        /* \"TimeAlly.sol\":25790:25803  _addressArray */\n      dup7\n        /* \"TimeAlly.sol\":25804:25805  i */\n      dup5\n        /* \"TimeAlly.sol\":25790:25806  _addressArray[i] */\n      dup2\n      mload\n      dup2\n      lt\n      tag_185\n      jumpi\n      invalid\n    tag_185:\n      0x20\n      mul\n      0x20\n      add\n      add\n      mload\n        /* \"TimeAlly.sol\":25783:25808  loans[ _addressArray[i] ] */\n      0xffffffffffffffffffffffffffffffffffffffff\n      and\n      0xffffffffffffffffffffffffffffffffffffffff\n      and\n      dup2\n      mstore\n      0x20\n      add\n      swap1\n      dup2\n      mstore\n      0x20\n      add\n      0x00\n      keccak256\n        /* \"TimeAlly.sol\":25810:25822  _loanIdArray */\n      dup5\n        /* \"TimeAlly.sol\":25823:25824  i */\n      dup4\n        /* \"TimeAlly.sol\":25810:25825  _loanIdArray[i] */\n      dup2\n      mload\n      dup2\n      lt\n      tag_186\n      jumpi\n      invalid\n    tag_186:\n      0x20\n      mul\n      0x20\n      add\n      add\n      mload\n        /* \"TimeAlly.sol\":25783:25827  loans[ _addressArray[i] ][ _loanIdArray[i] ] */\n      dup2\n      sload\n      dup2\n      lt\n      tag_187\n      jumpi\n      invalid\n    tag_187:\n      swap1\n      0x00\n      mstore\n      keccak256(0x00, 0x20)\n      swap1\n      0x05\n      mul\n      add\n        /* \"TimeAlly.sol\":25783:25838  loans[ _addressArray[i] ][ _loanIdArray[i] ].stakingIds */\n      0x04\n      add\n        /* \"TimeAlly.sol\":25745:25838  uint256[] storage _stakingIdsOfLoan = loans[ _addressArray[i] ][ _loanIdArray[i] ].stakingIds */\n      swap1\n      pop\n        /* \"TimeAlly.sol\":25937:25946  uint256 j */\n      0x00\n        /* \"TimeAlly.sol\":25949:25950  0 */\n      dup1\n        /* \"TimeAlly.sol\":25937:25950  uint256 j = 0 */\n      swap1\n      pop\n        /* \"TimeAlly.sol\":25933:26157  for(uint256 j = 0; j < _stakingIdsOfLoan.length; j++) {... */\n    tag_189:\n        /* \"TimeAlly.sol\":25956:25973  _stakingIdsOfLoan */\n      dup2\n        /* \"TimeAlly.sol\":25956:25980  _stakingIdsOfLoan.length */\n      dup1\n      sload\n      swap1\n      pop\n        /* \"TimeAlly.sol\":25952:25953  j */\n      dup2\n        /* \"TimeAlly.sol\":25952:25980  j < _stakingIdsOfLoan.length */\n      lt\n        /* \"TimeAlly.sol\":25933:26157  for(uint256 j = 0; j < _stakingIdsOfLoan.length; j++) {... */\n      iszero\n      tag_190\n      jumpi\n        /* \"TimeAlly.sol\":26021:26142  _amountToBurn.add(... */\n      tag_192\n        /* \"TimeAlly.sol\":26060:26068  stakings */\n      0x07\n        /* \"TimeAlly.sol\":26060:26088  stakings[ _addressArray[i] ] */\n      0x00\n        /* \"TimeAlly.sol\":26070:26083  _addressArray */\n      dup9\n        /* \"TimeAlly.sol\":26084:26085  i */\n      dup7\n        /* \"TimeAlly.sol\":26070:26086  _addressArray[i] */\n      dup2\n      mload\n      dup2\n      lt\n      tag_193\n      jumpi\n      invalid\n    tag_193:\n      0x20\n      mul\n      0x20\n      add\n      add\n      mload\n        /* \"TimeAlly.sol\":26060:26088  stakings[ _addressArray[i] ] */\n      0xffffffffffffffffffffffffffffffffffffffff\n      and\n      0xffffffffffffffffffffffffffffffffffffffff\n      and\n      dup2\n      mstore\n      0x20\n      add\n      swap1\n      dup2\n      mstore\n      0x20\n      add\n      0x00\n      keccak256\n        /* \"TimeAlly.sol\":26090:26107  _stakingIdsOfLoan */\n      dup4\n        /* \"TimeAlly.sol\":26108:26109  j */\n      dup4\n        /* \"TimeAlly.sol\":26090:26110  _stakingIdsOfLoan[j] */\n      dup2\n      sload\n      dup2\n      lt\n      tag_194\n      jumpi\n      invalid\n    tag_194:\n      swap1\n      0x00\n      mstore\n      keccak256(0x00, 0x20)\n      add\n      sload\n        /* \"TimeAlly.sol\":26060:26112  stakings[ _addressArray[i] ][ _stakingIdsOfLoan[j] ] */\n      dup2\n      sload\n      dup2\n      lt\n      tag_196\n      jumpi\n      invalid\n    tag_196:\n      swap1\n      0x00\n      mstore\n      keccak256(0x00, 0x20)\n      swap1\n      0x09\n      mul\n      add\n        /* \"TimeAlly.sol\":26060:26124  stakings[ _addressArray[i] ][ _stakingIdsOfLoan[j] ].exaEsAmount */\n      0x00\n      add\n      sload\n        /* \"TimeAlly.sol\":26021:26034  _amountToBurn */\n      dup6\n        /* \"TimeAlly.sol\":26021:26038  _amountToBurn.add */\n      tag_198\n      swap1\n        /* \"TimeAlly.sol\":26021:26142  _amountToBurn.add(... */\n      swap2\n      swap1\n      0xffffffff\n      and\n      jump\t// in\n    tag_192:\n        /* \"TimeAlly.sol\":26005:26142  _amountToBurn = _amountToBurn.add(... */\n      swap4\n      pop\n        /* \"TimeAlly.sol\":25982:25985  j++ */\n      dup1\n      dup1\n      0x01\n      add\n      swap2\n      pop\n      pop\n        /* \"TimeAlly.sol\":25933:26157  for(uint256 j = 0; j < _stakingIdsOfLoan.length; j++) {... */\n      jump(tag_189)\n    tag_190:\n      pop\n        /* \"TimeAlly.sol\":26223:26328  _amountToBurn.sub(... */\n      tag_199\n        /* \"TimeAlly.sol\":26258:26263  loans */\n      0x08\n        /* \"TimeAlly.sol\":26258:26283  loans[ _addressArray[i] ] */\n      0x00\n        /* \"TimeAlly.sol\":26265:26278  _addressArray */\n      dup8\n        /* \"TimeAlly.sol\":26279:26280  i */\n      dup6\n        /* \"TimeAlly.sol\":26265:26281  _addressArray[i] */\n      dup2\n      mload\n      dup2\n      lt\n      tag_200\n      jumpi\n      invalid\n    tag_200:\n      0x20\n      mul\n      0x20\n      add\n      add\n      mload\n        /* \"TimeAlly.sol\":26258:26283  loans[ _addressArray[i] ] */\n      0xffffffffffffffffffffffffffffffffffffffff\n      and\n      0xffffffffffffffffffffffffffffffffffffffff\n      and\n      dup2\n      mstore\n      0x20\n      add\n      swap1\n      dup2\n      mstore\n      0x20\n      add\n      0x00\n      keccak256\n        /* \"TimeAlly.sol\":26285:26297  _loanIdArray */\n      dup6\n        /* \"TimeAlly.sol\":26298:26299  i */\n      dup5\n        /* \"TimeAlly.sol\":26285:26300  _loanIdArray[i] */\n      dup2\n      mload\n      dup2\n      lt\n      tag_201\n      jumpi\n      invalid\n    tag_201:\n      0x20\n      mul\n      0x20\n      add\n      add\n      mload\n        /* \"TimeAlly.sol\":26258:26302  loans[ _addressArray[i] ][ _loanIdArray[i] ] */\n      dup2\n      sload\n      dup2\n      lt\n      tag_202\n      jumpi\n      invalid\n    tag_202:\n      swap1\n      0x00\n      mstore\n      keccak256(0x00, 0x20)\n      swap1\n      0x05\n      mul\n      add\n        /* \"TimeAlly.sol\":26258:26314  loans[ _addressArray[i] ][ _loanIdArray[i] ].exaEsAmount */\n      0x00\n      add\n      sload\n        /* \"TimeAlly.sol\":26223:26236  _amountToBurn */\n      dup5\n        /* \"TimeAlly.sol\":26223:26240  _amountToBurn.sub */\n      tag_204\n      swap1\n        /* \"TimeAlly.sol\":26223:26328  _amountToBurn.sub(... */\n      swap2\n      swap1\n      0xffffffff\n      and\n      jump\t// in\n    tag_199:\n        /* \"TimeAlly.sol\":26207:26328  _amountToBurn = _amountToBurn.sub(... */\n      swap3\n      pop\n        /* \"TimeAlly.sol\":25206:26339  for(uint256 i = 0; i < _addressArray.length; i++) {... */\n      pop\n        /* \"TimeAlly.sol\":25251:25254  i++ */\n      dup1\n      dup1\n      0x01\n      add\n      swap2\n      pop\n      pop\n        /* \"TimeAlly.sol\":25206:26339  for(uint256 i = 0; i < _addressArray.length; i++) {... */\n      jump(tag_164)\n    tag_165:\n      pop\n        /* \"TimeAlly.sol\":26356:26361  token */\n      0x02\n      0x00\n      swap1\n      sload\n      swap1\n      0x0100\n      exp\n      swap1\n      div\n      0xffffffffffffffffffffffffffffffffffffffff\n      and\n        /* \"TimeAlly.sol\":26356:26370  token.transfer */\n      0xffffffffffffffffffffffffffffffffffffffff\n      and\n      0xa9059cbb\n        /* \"TimeAlly.sol\":26379:26389  nrtManager */\n      0x03\n      0x00\n      swap1\n      sload\n      swap1\n      0x0100\n      exp\n      swap1\n      div\n      0xffffffffffffffffffffffffffffffffffffffff\n      and\n        /* \"TimeAlly.sol\":26392:26405  _amountToBurn */\n      dup4\n        /* \"TimeAlly.sol\":26356:26406  token.transfer(address(nrtManager), _amountToBurn) */\n      mload(0x40)\n      dup4\n      0xffffffff\n      and\n      0xe0\n      shl\n      dup2\n      mstore\n      0x04\n      add\n      dup1\n      dup4\n      0xffffffffffffffffffffffffffffffffffffffff\n      and\n      0xffffffffffffffffffffffffffffffffffffffff\n      and\n      dup2\n      mstore\n      0x20\n      add\n      dup3\n      dup2\n      mstore\n      0x20\n      add\n      swap3\n      pop\n      pop\n      pop\n      0x20\n      mload(0x40)\n      dup1\n      dup4\n      sub\n      dup2\n      0x00\n      dup8\n      dup1\n      extcodesize\n      iszero\n        /* \"--CODEGEN--\":8:17   */\n      dup1\n        /* \"--CODEGEN--\":5:7   */\n      iszero\n      tag_205\n      jumpi\n        /* \"--CODEGEN--\":30:31   */\n      0x00\n        /* \"--CODEGEN--\":27:28   */\n      dup1\n        /* \"--CODEGEN--\":20:32   */\n      revert\n        /* \"--CODEGEN--\":5:7   */\n    tag_205:\n        /* \"TimeAlly.sol\":26356:26406  token.transfer(address(nrtManager), _amountToBurn) */\n      pop\n      gas\n      call\n      iszero\n        /* \"--CODEGEN--\":8:17   */\n      dup1\n        /* \"--CODEGEN--\":5:7   */\n      iszero\n      tag_206\n      jumpi\n        /* \"--CODEGEN--\":45:61   */\n      returndatasize\n        /* \"--CODEGEN--\":42:43   */\n      0x00\n        /* \"--CODEGEN--\":39:40   */\n      dup1\n        /* \"--CODEGEN--\":24:62   */\n      returndatacopy\n        /* \"--CODEGEN--\":77:93   */\n      returndatasize\n        /* \"--CODEGEN--\":74:75   */\n      0x00\n        /* \"--CODEGEN--\":67:94   */\n      revert\n        /* \"--CODEGEN--\":5:7   */\n    tag_206:\n        /* \"TimeAlly.sol\":26356:26406  token.transfer(address(nrtManager), _amountToBurn) */\n      pop\n      pop\n      pop\n      pop\n      mload(0x40)\n      returndatasize\n        /* \"--CODEGEN--\":13:15   */\n      0x20\n        /* \"--CODEGEN--\":8:11   */\n      dup2\n        /* \"--CODEGEN--\":5:16   */\n      lt\n        /* \"--CODEGEN--\":2:4   */\n      iszero\n      tag_207\n      jumpi\n        /* \"--CODEGEN--\":29:30   */\n      0x00\n        /* \"--CODEGEN--\":26:27   */\n      dup1\n        /* \"--CODEGEN--\":19:31   */\n      revert\n        /* \"--CODEGEN--\":2:4   */\n    tag_207:\n        /* \"TimeAlly.sol\":26356:26406  token.transfer(address(nrtManager), _amountToBurn) */\n      dup2\n      add\n      swap1\n      dup1\n      dup1\n      mload\n      swap1\n      0x20\n      add\n      swap1\n      swap3\n      swap2\n      swap1\n      pop\n      pop\n      pop\n        /* \"TimeAlly.sol\":26348:26407  require(token.transfer(address(nrtManager), _amountToBurn)) */\n      tag_208\n      jumpi\n      0x00\n      dup1\n      revert\n    tag_208:\n        /* \"TimeAlly.sol\":26425:26435  nrtManager */\n      0x03\n      0x00\n      swap1\n      sload\n      swap1\n      0x0100\n      exp\n      swap1\n      div\n      0xffffffffffffffffffffffffffffffffffffffff\n      and\n        /* \"TimeAlly.sol\":26425:26449  nrtManager.UpdateBurnBal */\n      0xffffffffffffffffffffffffffffffffffffffff\n      and\n      0x41aaa9b6\n        /* \"TimeAlly.sol\":26450:26463  _amountToBurn */\n      dup3\n        /* \"TimeAlly.sol\":26425:26464  nrtManager.UpdateBurnBal(_amountToBurn) */\n      mload(0x40)\n      dup3\n      0xffffffff\n      and\n      0xe0\n      shl\n      dup2\n      mstore\n      0x04\n      add\n      dup1\n      dup3\n      dup2\n      mstore\n      0x20\n      add\n      swap2\n      pop\n      pop\n      0x20\n      mload(0x40)\n      dup1\n      dup4\n      sub\n      dup2\n      0x00\n      dup8\n      dup1\n      extcodesize\n      iszero\n        /* \"--CODEGEN--\":8:17   */\n      dup1\n        /* \"--CODEGEN--\":5:7   */\n      iszero\n      tag_209\n      jumpi\n        /* \"--CODEGEN--\":30:31   */\n      0x00\n        /* \"--CODEGEN--\":27:28   */\n      dup1\n        /* \"--CODEGEN--\":20:32   */\n      revert\n        /* \"--CODEGEN--\":5:7   */\n    tag_209:\n        /* \"TimeAlly.sol\":26425:26464  nrtManager.UpdateBurnBal(_amountToBurn) */\n      pop\n      gas\n      call\n      iszero\n        /* \"--CODEGEN--\":8:17   */\n      dup1\n        /* \"--CODEGEN--\":5:7   */\n      iszero\n      tag_210\n      jumpi\n        /* \"--CODEGEN--\":45:61   */\n      returndatasize\n        /* \"--CODEGEN--\":42:43   */\n      0x00\n        /* \"--CODEGEN--\":39:40   */\n      dup1\n        /* \"--CODEGEN--\":24:62   */\n      returndatacopy\n        /* \"--CODEGEN--\":77:93   */\n      returndatasize\n        /* \"--CODEGEN--\":74:75   */\n      0x00\n        /* \"--CODEGEN--\":67:94   */\n      revert\n        /* \"--CODEGEN--\":5:7   */\n    tag_210:\n        /* \"TimeAlly.sol\":26425:26464  nrtManager.UpdateBurnBal(_amountToBurn) */\n      pop\n      pop\n      pop\n      pop\n      mload(0x40)\n      returndatasize\n        /* \"--CODEGEN--\":13:15   */\n      0x20\n        /* \"--CODEGEN--\":8:11   */\n      dup2\n        /* \"--CODEGEN--\":5:16   */\n      lt\n        /* \"--CODEGEN--\":2:4   */\n      iszero\n      tag_211\n      jumpi\n        /* \"--CODEGEN--\":29:30   */\n      0x00\n        /* \"--CODEGEN--\":26:27   */\n      dup1\n        /* \"--CODEGEN--\":19:31   */\n      revert\n        /* \"--CODEGEN--\":2:4   */\n    tag_211:\n        /* \"TimeAlly.sol\":26425:26464  nrtManager.UpdateBurnBal(_amountToBurn) */\n      dup2\n      add\n      swap1\n      dup1\n      dup1\n      mload\n      swap1\n      0x20\n      add\n      swap1\n      swap3\n      swap2\n      swap1\n      pop\n      pop\n      pop\n        /* \"TimeAlly.sol\":26417:26465  require(nrtManager.UpdateBurnBal(_amountToBurn)) */\n      tag_212\n      jumpi\n      0x00\n      dup1\n      revert\n    tag_212:\n        /* \"TimeAlly.sol\":25067:26495  function burnDefaultedLoans(address[] memory _addressArray, uint256[] memory _loanIdArray) public {... */\n      pop\n      pop\n      pop\n      jump\t// out\n        /* \"TimeAlly.sol\":2735:2780  mapping(address => Staking[]) public stakings */\n    tag_56:\n      mstore(0x20, 0x07)\n      dup2\n      0x00\n      mstore\n      keccak256(0x00, 0x40)\n      dup2\n      dup2\n      sload\n      dup2\n      lt\n      tag_213\n      jumpi\n      invalid\n    tag_213:\n      swap1\n      0x00\n      mstore\n      keccak256(0x00, 0x20)\n      swap1\n      0x09\n      mul\n      add\n      0x00\n      swap2\n      pop\n      swap2\n      pop\n      pop\n      dup1\n      0x00\n      add\n      sload\n      swap1\n      dup1\n      0x01\n      add\n      sload\n      swap1\n      dup1\n      0x02\n      add\n      sload\n      swap1\n      dup1\n      0x03\n      add\n      sload\n      swap1\n      dup1\n      0x04\n      add\n      sload\n      swap1\n      dup1\n      0x05\n      add\n      sload\n      swap1\n      dup1\n      0x06\n      add\n      sload\n      swap1\n      pop\n      dup8\n      jump\t// out\n        /* \"TimeAlly.sol\":3142:3177  uint256[] public timeAllyMonthlyNRT */\n    tag_59:\n      0x0b\n      dup2\n      dup2\n      sload\n      dup2\n      lt\n      tag_215\n      jumpi\n      invalid\n    tag_215:\n      swap1\n      0x00\n      mstore\n      keccak256(0x00, 0x20)\n      add\n      0x00\n      swap2\n      pop\n      swap1\n      pop\n      sload\n      dup2\n      jump\t// out\n        /* \"TimeAlly.sol\":13680:15051  function seeBenefitOfAStakingByMonths(... */\n    tag_65:\n        /* \"TimeAlly.sol\":13837:13844  uint256 */\n      0x00\n        /* \"TimeAlly.sol\":13856:13882  uint256 benefitOfAllMonths */\n      dup1\n        /* \"TimeAlly.sol\":13896:13905  uint256 i */\n      0x00\n        /* \"TimeAlly.sol\":13908:13909  0 */\n      dup1\n        /* \"TimeAlly.sol\":13896:13909  uint256 i = 0 */\n      swap1\n      pop\n        /* \"TimeAlly.sol\":13892:14899  for(uint256 i = 0; i < _months.length; i++) {... */\n    tag_218:\n        /* \"TimeAlly.sol\":13915:13922  _months */\n      dup4\n        /* \"TimeAlly.sol\":13915:13929  _months.length */\n      mload\n        /* \"TimeAlly.sol\":13911:13912  i */\n      dup2\n        /* \"TimeAlly.sol\":13911:13929  i < _months.length */\n      lt\n        /* \"TimeAlly.sol\":13892:14899  for(uint256 i = 0; i < _months.length; i++) {... */\n      iszero\n      tag_219\n      jumpi\n        /* \"TimeAlly.sol\":14442:14495  isStakingActive(_userAddress, _stakingId, _months[i]) */\n      tag_221\n        /* \"TimeAlly.sol\":14458:14470  _userAddress */\n      dup7\n        /* \"TimeAlly.sol\":14472:14482  _stakingId */\n      dup7\n        /* \"TimeAlly.sol\":14484:14491  _months */\n      dup7\n        /* \"TimeAlly.sol\":14492:14493  i */\n      dup5\n        /* \"TimeAlly.sol\":14484:14494  _months[i] */\n      dup2\n      mload\n      dup2\n      lt\n      tag_222\n      jumpi\n      invalid\n    tag_222:\n      0x20\n      mul\n      0x20\n      add\n      add\n      mload\n        /* \"TimeAlly.sol\":14442:14457  isStakingActive */\n      tag_132\n        /* \"TimeAlly.sol\":14442:14495  isStakingActive(_userAddress, _stakingId, _months[i]) */\n      jump\t// in\n    tag_221:\n        /* \"TimeAlly.sol\":14442:14573  isStakingActive(_userAddress, _stakingId, _months[i])... */\n      dup1\n      iszero\n      tag_223\n      jumpi\n      pop\n        /* \"TimeAlly.sol\":14512:14520  stakings */\n      0x07\n        /* \"TimeAlly.sol\":14512:14534  stakings[_userAddress] */\n      0x00\n        /* \"TimeAlly.sol\":14521:14533  _userAddress */\n      dup8\n        /* \"TimeAlly.sol\":14512:14534  stakings[_userAddress] */\n      0xffffffffffffffffffffffffffffffffffffffff\n      and\n      0xffffffffffffffffffffffffffffffffffffffff\n      and\n      dup2\n      mstore\n      0x20\n      add\n      swap1\n      dup2\n      mstore\n      0x20\n      add\n      0x00\n      keccak256\n        /* \"TimeAlly.sol\":14535:14545  _stakingId */\n      dup6\n        /* \"TimeAlly.sol\":14512:14546  stakings[_userAddress][_stakingId] */\n      dup2\n      sload\n      dup2\n      lt\n      tag_224\n      jumpi\n      invalid\n    tag_224:\n      swap1\n      0x00\n      mstore\n      keccak256(0x00, 0x20)\n      swap1\n      0x09\n      mul\n      add\n        /* \"TimeAlly.sol\":14512:14561  stakings[_userAddress][_stakingId].isMonthClaimed */\n      0x07\n      add\n        /* \"TimeAlly.sol\":14512:14573  stakings[_userAddress][_stakingId].isMonthClaimed[_months[i]] */\n      0x00\n        /* \"TimeAlly.sol\":14562:14569  _months */\n      dup6\n        /* \"TimeAlly.sol\":14570:14571  i */\n      dup4\n        /* \"TimeAlly.sol\":14562:14572  _months[i] */\n      dup2\n      mload\n      dup2\n      lt\n      tag_226\n      jumpi\n      invalid\n    tag_226:\n      0x20\n      mul\n      0x20\n      add\n      add\n      mload\n        /* \"TimeAlly.sol\":14512:14573  stakings[_userAddress][_stakingId].isMonthClaimed[_months[i]] */\n      dup2\n      mstore\n      0x20\n      add\n      swap1\n      dup2\n      mstore\n      0x20\n      add\n      0x00\n      keccak256\n      0x00\n      swap1\n      sload\n      swap1\n      0x0100\n      exp\n      swap1\n      div\n      0xff\n      and\n        /* \"TimeAlly.sol\":14511:14573  !stakings[_userAddress][_stakingId].isMonthClaimed[_months[i]] */\n      iszero\n        /* \"TimeAlly.sol\":14442:14573  isStakingActive(_userAddress, _stakingId, _months[i])... */\n    tag_223:\n        /* \"TimeAlly.sol\":14439:14889  if(isStakingActive(_userAddress, _stakingId, _months[i])... */\n      iszero\n      tag_227\n      jumpi\n        /* \"TimeAlly.sol\":14593:14608  uint256 benefit */\n      0x00\n        /* \"TimeAlly.sol\":14611:14804  stakings[_userAddress][_stakingId].exaEsAmount... */\n      tag_228\n        /* \"TimeAlly.sol\":14770:14789  totalActiveStakings */\n      0x0a\n        /* \"TimeAlly.sol\":14770:14803  totalActiveStakings[ _months[i] ] */\n      0x00\n        /* \"TimeAlly.sol\":14791:14798  _months */\n      dup8\n        /* \"TimeAlly.sol\":14799:14800  i */\n      dup6\n        /* \"TimeAlly.sol\":14791:14801  _months[i] */\n      dup2\n      mload\n      dup2\n      lt\n      tag_229\n      jumpi\n      invalid\n    tag_229:\n      0x20\n      mul\n      0x20\n      add\n      add\n      mload\n        /* \"TimeAlly.sol\":14770:14803  totalActiveStakings[ _months[i] ] */\n      dup2\n      mstore\n      0x20\n      add\n      swap1\n      dup2\n      mstore\n      0x20\n      add\n      0x00\n      keccak256\n      sload\n        /* \"TimeAlly.sol\":14611:14730  stakings[_userAddress][_stakingId].exaEsAmount... */\n      tag_230\n        /* \"TimeAlly.sol\":14697:14715  timeAllyMonthlyNRT */\n      0x0b\n        /* \"TimeAlly.sol\":14717:14724  _months */\n      dup9\n        /* \"TimeAlly.sol\":14725:14726  i */\n      dup7\n        /* \"TimeAlly.sol\":14717:14727  _months[i] */\n      dup2\n      mload\n      dup2\n      lt\n      tag_231\n      jumpi\n      invalid\n    tag_231:\n      0x20\n      mul\n      0x20\n      add\n      add\n      mload\n        /* \"TimeAlly.sol\":14697:14729  timeAllyMonthlyNRT[ _months[i] ] */\n      dup2\n      sload\n      dup2\n      lt\n      tag_232\n      jumpi\n      invalid\n    tag_232:\n      swap1\n      0x00\n      mstore\n      keccak256(0x00, 0x20)\n      add\n      sload\n        /* \"TimeAlly.sol\":14611:14619  stakings */\n      0x07\n        /* \"TimeAlly.sol\":14611:14633  stakings[_userAddress] */\n      0x00\n        /* \"TimeAlly.sol\":14620:14632  _userAddress */\n      dup13\n        /* \"TimeAlly.sol\":14611:14633  stakings[_userAddress] */\n      0xffffffffffffffffffffffffffffffffffffffff\n      and\n      0xffffffffffffffffffffffffffffffffffffffff\n      and\n      dup2\n      mstore\n      0x20\n      add\n      swap1\n      dup2\n      mstore\n      0x20\n      add\n      0x00\n      keccak256\n        /* \"TimeAlly.sol\":14634:14644  _stakingId */\n      dup11\n        /* \"TimeAlly.sol\":14611:14645  stakings[_userAddress][_stakingId] */\n      dup2\n      sload\n      dup2\n      lt\n      tag_234\n      jumpi\n      invalid\n    tag_234:\n      swap1\n      0x00\n      mstore\n      keccak256(0x00, 0x20)\n      swap1\n      0x09\n      mul\n      add\n        /* \"TimeAlly.sol\":14611:14657  stakings[_userAddress][_stakingId].exaEsAmount */\n      0x00\n      add\n      sload\n        /* \"TimeAlly.sol\":14611:14696  stakings[_userAddress][_stakingId].exaEsAmount... */\n      tag_179\n      swap1\n        /* \"TimeAlly.sol\":14611:14730  stakings[_userAddress][_stakingId].exaEsAmount... */\n      swap2\n      swap1\n      0xffffffff\n      and\n      jump\t// in\n    tag_230:\n        /* \"TimeAlly.sol\":14611:14769  stakings[_userAddress][_stakingId].exaEsAmount... */\n      tag_236\n      swap1\n        /* \"TimeAlly.sol\":14611:14804  stakings[_userAddress][_stakingId].exaEsAmount... */\n      swap2\n      swap1\n      0xffffffff\n      and\n      jump\t// in\n    tag_228:\n        /* \"TimeAlly.sol\":14593:14804  uint256 benefit = stakings[_userAddress][_stakingId].exaEsAmount... */\n      swap1\n      pop\n        /* \"TimeAlly.sol\":14843:14874  benefitOfAllMonths.add(benefit) */\n      tag_237\n        /* \"TimeAlly.sol\":14866:14873  benefit */\n      dup2\n        /* \"TimeAlly.sol\":14843:14861  benefitOfAllMonths */\n      dup5\n        /* \"TimeAlly.sol\":14843:14865  benefitOfAllMonths.add */\n      tag_198\n      swap1\n        /* \"TimeAlly.sol\":14843:14874  benefitOfAllMonths.add(benefit) */\n      swap2\n      swap1\n      0xffffffff\n      and\n      jump\t// in\n    tag_237:\n        /* \"TimeAlly.sol\":14822:14874  benefitOfAllMonths = benefitOfAllMonths.add(benefit) */\n      swap3\n      pop\n        /* \"TimeAlly.sol\":14439:14889  if(isStakingActive(_userAddress, _stakingId, _months[i])... */\n      pop\n    tag_227:\n        /* \"TimeAlly.sol\":13931:13934  i++ */\n      dup1\n      dup1\n      0x01\n      add\n      swap2\n      pop\n      pop\n        /* \"TimeAlly.sol\":13892:14899  for(uint256 i = 0; i < _months.length; i++) {... */\n      jump(tag_218)\n    tag_219:\n      pop\n        /* \"TimeAlly.sol\":14915:15044  benefitOfAllMonths.mul(... */\n      tag_238\n        /* \"TimeAlly.sol\":15041:15043  15 */\n      0x0f\n        /* \"TimeAlly.sol\":14915:15036  benefitOfAllMonths.mul(... */\n      tag_239\n        /* \"TimeAlly.sol\":14949:14961  stakingPlans */\n      0x05\n        /* \"TimeAlly.sol\":14962:14970  stakings */\n      0x07\n        /* \"TimeAlly.sol\":14962:14984  stakings[_userAddress] */\n      0x00\n        /* \"TimeAlly.sol\":14971:14983  _userAddress */\n      dup11\n        /* \"TimeAlly.sol\":14962:14984  stakings[_userAddress] */\n      0xffffffffffffffffffffffffffffffffffffffff\n      and\n      0xffffffffffffffffffffffffffffffffffffffff\n      and\n      dup2\n      mstore\n      0x20\n      add\n      swap1\n      dup2\n      mstore\n      0x20\n      add\n      0x00\n      keccak256\n        /* \"TimeAlly.sol\":14985:14995  _stakingId */\n      dup9\n        /* \"TimeAlly.sol\":14962:14996  stakings[_userAddress][_stakingId] */\n      dup2\n      sload\n      dup2\n      lt\n      tag_240\n      jumpi\n      invalid\n    tag_240:\n      swap1\n      0x00\n      mstore\n      keccak256(0x00, 0x20)\n      swap1\n      0x09\n      mul\n      add\n        /* \"TimeAlly.sol\":14962:15010  stakings[_userAddress][_stakingId].stakingPlanId */\n      0x03\n      add\n      sload\n        /* \"TimeAlly.sol\":14949:15011  stakingPlans[stakings[_userAddress][_stakingId].stakingPlanId] */\n      dup2\n      sload\n      dup2\n      lt\n      tag_242\n      jumpi\n      invalid\n    tag_242:\n      swap1\n      0x00\n      mstore\n      keccak256(0x00, 0x20)\n      swap1\n      0x03\n      mul\n      add\n        /* \"TimeAlly.sol\":14949:15026  stakingPlans[stakings[_userAddress][_stakingId].stakingPlanId].fractionFrom15 */\n      0x01\n      add\n      sload\n        /* \"TimeAlly.sol\":14915:14933  benefitOfAllMonths */\n      dup5\n        /* \"TimeAlly.sol\":14915:14937  benefitOfAllMonths.mul */\n      tag_179\n      swap1\n        /* \"TimeAlly.sol\":14915:15036  benefitOfAllMonths.mul(... */\n      swap2\n      swap1\n      0xffffffff\n      and\n      jump\t// in\n    tag_239:\n        /* \"TimeAlly.sol\":14915:15040  benefitOfAllMonths.mul(... */\n      tag_236\n      swap1\n        /* \"TimeAlly.sol\":14915:15044  benefitOfAllMonths.mul(... */\n      swap2\n      swap1\n      0xffffffff\n      and\n      jump\t// in\n    tag_238:\n        /* \"TimeAlly.sol\":14908:15044  return benefitOfAllMonths.mul(... */\n      swap2\n      pop\n      pop\n        /* \"TimeAlly.sol\":13680:15051  function seeBenefitOfAStakingByMonths(... */\n      swap4\n      swap3\n      pop\n      pop\n      pop\n      jump\t// out\n        /* \"TimeAlly.sol\":28322:28529  function viewNomination(address _userAddress, uint256 _stakingId, address _nomineeAddress) public view returns (uint256) {... */\n    tag_68:\n        /* \"TimeAlly.sol\":28434:28441  uint256 */\n      0x00\n        /* \"TimeAlly.sol\":28460:28468  stakings */\n      0x07\n        /* \"TimeAlly.sol\":28460:28482  stakings[_userAddress] */\n      0x00\n        /* \"TimeAlly.sol\":28469:28481  _userAddress */\n      dup6\n        /* \"TimeAlly.sol\":28460:28482  stakings[_userAddress] */\n      0xffffffffffffffffffffffffffffffffffffffff\n      and\n      0xffffffffffffffffffffffffffffffffffffffff\n      and\n      dup2\n      mstore\n      0x20\n      add\n      swap1\n      dup2\n      mstore\n      0x20\n      add\n      0x00\n      keccak256\n        /* \"TimeAlly.sol\":28483:28493  _stakingId */\n      dup4\n        /* \"TimeAlly.sol\":28460:28494  stakings[_userAddress][_stakingId] */\n      dup2\n      sload\n      dup2\n      lt\n      tag_245\n      jumpi\n      invalid\n    tag_245:\n      swap1\n      0x00\n      mstore\n      keccak256(0x00, 0x20)\n      swap1\n      0x09\n      mul\n      add\n        /* \"TimeAlly.sol\":28460:28505  stakings[_userAddress][_stakingId].nomination */\n      0x08\n      add\n        /* \"TimeAlly.sol\":28460:28522  stakings[_userAddress][_stakingId].nomination[_nomineeAddress] */\n      0x00\n        /* \"TimeAlly.sol\":28506:28521  _nomineeAddress */\n      dup4\n        /* \"TimeAlly.sol\":28460:28522  stakings[_userAddress][_stakingId].nomination[_nomineeAddress] */\n      0xffffffffffffffffffffffffffffffffffffffff\n      and\n      0xffffffffffffffffffffffffffffffffffffffff\n      and\n      dup2\n      mstore\n      0x20\n      add\n      swap1\n      dup2\n      mstore\n      0x20\n      add\n      0x00\n      keccak256\n      sload\n        /* \"TimeAlly.sol\":28453:28522  return stakings[_userAddress][_stakingId].nomination[_nomineeAddress] */\n      swap1\n      pop\n        /* \"TimeAlly.sol\":28322:28529  function viewNomination(address _userAddress, uint256 _stakingId, address _nomineeAddress) public view returns (uint256) {... */\n      swap4\n      swap3\n      pop\n      pop\n      pop\n      jump\t// out\n        /* \"TimeAlly.sol\":2937:2992  mapping (uint256 => uint256) public totalActiveStakings */\n    tag_71:\n      mstore(0x20, 0x0a)\n      dup1\n      0x00\n      mstore\n      keccak256(0x00, 0x40)\n      0x00\n      swap2\n      pop\n      swap1\n      pop\n      sload\n      dup2\n      jump\t// out\n        /* \"TimeAlly.sol\":30066:30533  function removeNominee(uint256 _stakingId, address _nomineeAddress) public {... */\n    tag_74:\n        /* \"TimeAlly.sol\":30202:30203  1 */\n      0x01\n        /* \"TimeAlly.sol\":30159:30167  stakings */\n      0x07\n        /* \"TimeAlly.sol\":30159:30179  stakings[msg.sender] */\n      0x00\n        /* \"TimeAlly.sol\":30168:30178  msg.sender */\n      caller\n        /* \"TimeAlly.sol\":30159:30179  stakings[msg.sender] */\n      0xffffffffffffffffffffffffffffffffffffffff\n      and\n      0xffffffffffffffffffffffffffffffffffffffff\n      and\n      dup2\n      mstore\n      0x20\n      add\n      swap1\n      dup2\n      mstore\n      0x20\n      add\n      0x00\n      keccak256\n        /* \"TimeAlly.sol\":30180:30190  _stakingId */\n      dup4\n        /* \"TimeAlly.sol\":30159:30191  stakings[msg.sender][_stakingId] */\n      dup2\n      sload\n      dup2\n      lt\n      tag_248\n      jumpi\n      invalid\n    tag_248:\n      swap1\n      0x00\n      mstore\n      keccak256(0x00, 0x20)\n      swap1\n      0x09\n      mul\n      add\n        /* \"TimeAlly.sol\":30159:30198  stakings[msg.sender][_stakingId].status */\n      0x04\n      add\n      sload\n        /* \"TimeAlly.sol\":30159:30203  stakings[msg.sender][_stakingId].status == 1 */\n      eq\n        /* \"TimeAlly.sol\":30151:30229  require(stakings[msg.sender][_stakingId].status == 1, 'staking should active') */\n      tag_250\n      jumpi\n      mload(0x40)\n      0x08c379a000000000000000000000000000000000000000000000000000000000\n      dup2\n      mstore\n      0x04\n      add\n      dup1\n      dup1\n      0x20\n      add\n      dup3\n      dup2\n      sub\n      dup3\n      mstore\n      0x15\n      dup2\n      mstore\n      0x20\n      add\n      dup1\n      0x7374616b696e672073686f756c64206163746976650000000000000000000000\n      dup2\n      mstore\n      pop\n      0x20\n      add\n      swap2\n      pop\n      pop\n      mload(0x40)\n      dup1\n      swap2\n      sub\n      swap1\n      revert\n    tag_250:\n        /* \"TimeAlly.sol\":30239:30257  uint256 _oldShares */\n      0x00\n        /* \"TimeAlly.sol\":30260:30268  stakings */\n      0x07\n        /* \"TimeAlly.sol\":30260:30280  stakings[msg.sender] */\n      0x00\n        /* \"TimeAlly.sol\":30269:30279  msg.sender */\n      caller\n        /* \"TimeAlly.sol\":30260:30280  stakings[msg.sender] */\n      0xffffffffffffffffffffffffffffffffffffffff\n      and\n      0xffffffffffffffffffffffffffffffffffffffff\n      and\n      dup2\n      mstore\n      0x20\n      add\n      swap1\n      dup2\n      mstore\n      0x20\n      add\n      0x00\n      keccak256\n        /* \"TimeAlly.sol\":30281:30291  _stakingId */\n      dup4\n        /* \"TimeAlly.sol\":30260:30292  stakings[msg.sender][_stakingId] */\n      dup2\n      sload\n      dup2\n      lt\n      tag_251\n      jumpi\n      invalid\n    tag_251:\n      swap1\n      0x00\n      mstore\n      keccak256(0x00, 0x20)\n      swap1\n      0x09\n      mul\n      add\n        /* \"TimeAlly.sol\":30260:30303  stakings[msg.sender][_stakingId].nomination */\n      0x08\n      add\n        /* \"TimeAlly.sol\":30260:30315  stakings[msg.sender][_stakingId].nomination[msg.sender] */\n      0x00\n        /* \"TimeAlly.sol\":30304:30314  msg.sender */\n      caller\n        /* \"TimeAlly.sol\":30260:30315  stakings[msg.sender][_stakingId].nomination[msg.sender] */\n      0xffffffffffffffffffffffffffffffffffffffff\n      and\n      0xffffffffffffffffffffffffffffffffffffffff\n      and\n      dup2\n      mstore\n      0x20\n      add\n      swap1\n      dup2\n      mstore\n      0x20\n      add\n      0x00\n      keccak256\n      sload\n        /* \"TimeAlly.sol\":30239:30315  uint256 _oldShares = stakings[msg.sender][_stakingId].nomination[msg.sender] */\n      swap1\n      pop\n        /* \"TimeAlly.sol\":30388:30389  0 */\n      0x00\n        /* \"TimeAlly.sol\":30325:30333  stakings */\n      0x07\n        /* \"TimeAlly.sol\":30325:30345  stakings[msg.sender] */\n      0x00\n        /* \"TimeAlly.sol\":30334:30344  msg.sender */\n      caller\n        /* \"TimeAlly.sol\":30325:30345  stakings[msg.sender] */\n      0xffffffffffffffffffffffffffffffffffffffff\n      and\n      0xffffffffffffffffffffffffffffffffffffffff\n      and\n      dup2\n      mstore\n      0x20\n      add\n      swap1\n      dup2\n      mstore\n      0x20\n      add\n      0x00\n      keccak256\n        /* \"TimeAlly.sol\":30346:30356  _stakingId */\n      dup5\n        /* \"TimeAlly.sol\":30325:30357  stakings[msg.sender][_stakingId] */\n      dup2\n      sload\n      dup2\n      lt\n      tag_253\n      jumpi\n      invalid\n    tag_253:\n      swap1\n      0x00\n      mstore\n      keccak256(0x00, 0x20)\n      swap1\n      0x09\n      mul\n      add\n        /* \"TimeAlly.sol\":30325:30368  stakings[msg.sender][_stakingId].nomination */\n      0x08\n      add\n        /* \"TimeAlly.sol\":30325:30385  stakings[msg.sender][_stakingId].nomination[_nomineeAddress] */\n      0x00\n        /* \"TimeAlly.sol\":30369:30384  _nomineeAddress */\n      dup5\n        /* \"TimeAlly.sol\":30325:30385  stakings[msg.sender][_stakingId].nomination[_nomineeAddress] */\n      0xffffffffffffffffffffffffffffffffffffffff\n      and\n      0xffffffffffffffffffffffffffffffffffffffff\n      and\n      dup2\n      mstore\n      0x20\n      add\n      swap1\n      dup2\n      mstore\n      0x20\n      add\n      0x00\n      keccak256\n        /* \"TimeAlly.sol\":30325:30389  stakings[msg.sender][_stakingId].nomination[_nomineeAddress] = 0 */\n      dup2\n      swap1\n      sstore\n      pop\n        /* \"TimeAlly.sol\":30456:30526  stakings[msg.sender][_stakingId].totalNominationShares.sub(_oldShares) */\n      tag_255\n        /* \"TimeAlly.sol\":30515:30525  _oldShares */\n      dup2\n        /* \"TimeAlly.sol\":30456:30464  stakings */\n      0x07\n        /* \"TimeAlly.sol\":30456:30476  stakings[msg.sender] */\n      0x00\n        /* \"TimeAlly.sol\":30465:30475  msg.sender */\n      caller\n        /* \"TimeAlly.sol\":30456:30476  stakings[msg.sender] */\n      0xffffffffffffffffffffffffffffffffffffffff\n      and\n      0xffffffffffffffffffffffffffffffffffffffff\n      and\n      dup2\n      mstore\n      0x20\n      add\n      swap1\n      dup2\n      mstore\n      0x20\n      add\n      0x00\n      keccak256\n        /* \"TimeAlly.sol\":30477:30487  _stakingId */\n      dup6\n        /* \"TimeAlly.sol\":30456:30488  stakings[msg.sender][_stakingId] */\n      dup2\n      sload\n      dup2\n      lt\n      tag_256\n      jumpi\n      invalid\n    tag_256:\n      swap1\n      0x00\n      mstore\n      keccak256(0x00, 0x20)\n      swap1\n      0x09\n      mul\n      add\n        /* \"TimeAlly.sol\":30456:30510  stakings[msg.sender][_stakingId].totalNominationShares */\n      0x06\n      add\n      sload\n        /* \"TimeAlly.sol\":30456:30514  stakings[msg.sender][_stakingId].totalNominationShares.sub */\n      tag_204\n      swap1\n        /* \"TimeAlly.sol\":30456:30526  stakings[msg.sender][_stakingId].totalNominationShares.sub(_oldShares) */\n      swap2\n      swap1\n      0xffffffff\n      and\n      jump\t// in\n    tag_255:\n        /* \"TimeAlly.sol\":30399:30407  stakings */\n      0x07\n        /* \"TimeAlly.sol\":30399:30419  stakings[msg.sender] */\n      0x00\n        /* \"TimeAlly.sol\":30408:30418  msg.sender */\n      caller\n        /* \"TimeAlly.sol\":30399:30419  stakings[msg.sender] */\n      0xffffffffffffffffffffffffffffffffffffffff\n      and\n      0xffffffffffffffffffffffffffffffffffffffff\n      and\n      dup2\n      mstore\n      0x20\n      add\n      swap1\n      dup2\n      mstore\n      0x20\n      add\n      0x00\n      keccak256\n        /* \"TimeAlly.sol\":30420:30430  _stakingId */\n      dup5\n        /* \"TimeAlly.sol\":30399:30431  stakings[msg.sender][_stakingId] */\n      dup2\n      sload\n      dup2\n      lt\n      tag_258\n      jumpi\n      invalid\n    tag_258:\n      swap1\n      0x00\n      mstore\n      keccak256(0x00, 0x20)\n      swap1\n      0x09\n      mul\n      add\n        /* \"TimeAlly.sol\":30399:30453  stakings[msg.sender][_stakingId].totalNominationShares */\n      0x06\n      add\n        /* \"TimeAlly.sol\":30399:30526  stakings[msg.sender][_stakingId].totalNominationShares = stakings[msg.sender][_stakingId].totalNominationShares.sub(_oldShares) */\n      dup2\n      swap1\n      sstore\n      pop\n        /* \"TimeAlly.sol\":30066:30533  function removeNominee(uint256 _stakingId, address _nomineeAddress) public {... */\n      pop\n      pop\n      pop\n      jump\t// out\n        /* \"TimeAlly.sol\":9274:9494  function topupRewardBucket(uint256 _exaEsAmount) public {... */\n    tag_77:\n        /* \"TimeAlly.sol\":9348:9353  token */\n      0x02\n      0x00\n      swap1\n      sload\n      swap1\n      0x0100\n      exp\n      swap1\n      div\n      0xffffffffffffffffffffffffffffffffffffffff\n      and\n        /* \"TimeAlly.sol\":9348:9366  token.transferFrom */\n      0xffffffffffffffffffffffffffffffffffffffff\n      and\n      0x23b872dd\n        /* \"TimeAlly.sol\":9367:9377  msg.sender */\n      caller\n        /* \"TimeAlly.sol\":9387:9391  this */\n      address\n        /* \"TimeAlly.sol\":9394:9406  _exaEsAmount */\n      dup5\n        /* \"TimeAlly.sol\":9348:9407  token.transferFrom(msg.sender, address(this), _exaEsAmount) */\n      mload(0x40)\n      dup5\n      0xffffffff\n      and\n      0xe0\n      shl\n      dup2\n      mstore\n      0x04\n      add\n      dup1\n      dup5\n      0xffffffffffffffffffffffffffffffffffffffff\n      and\n      0xffffffffffffffffffffffffffffffffffffffff\n      and\n      dup2\n      mstore\n      0x20\n      add\n      dup4\n      0xffffffffffffffffffffffffffffffffffffffff\n      and\n      0xffffffffffffffffffffffffffffffffffffffff\n      and\n      dup2\n      mstore\n      0x20\n      add\n      dup3\n      dup2\n      mstore\n      0x20\n      add\n      swap4\n      pop\n      pop\n      pop\n      pop\n      0x20\n      mload(0x40)\n      dup1\n      dup4\n      sub\n      dup2\n      0x00\n      dup8\n      dup1\n      extcodesize\n      iszero\n        /* \"--CODEGEN--\":8:17   */\n      dup1\n        /* \"--CODEGEN--\":5:7   */\n      iszero\n      tag_261\n      jumpi\n        /* \"--CODEGEN--\":30:31   */\n      0x00\n        /* \"--CODEGEN--\":27:28   */\n      dup1\n        /* \"--CODEGEN--\":20:32   */\n      revert\n        /* \"--CODEGEN--\":5:7   */\n    tag_261:\n        /* \"TimeAlly.sol\":9348:9407  token.transferFrom(msg.sender, address(this), _exaEsAmount) */\n      pop\n      gas\n      call\n      iszero\n        /* \"--CODEGEN--\":8:17   */\n      dup1\n        /* \"--CODEGEN--\":5:7   */\n      iszero\n      tag_262\n      jumpi\n        /* \"--CODEGEN--\":45:61   */\n      returndatasize\n        /* \"--CODEGEN--\":42:43   */\n      0x00\n        /* \"--CODEGEN--\":39:40   */\n      dup1\n        /* \"--CODEGEN--\":24:62   */\n      returndatacopy\n        /* \"--CODEGEN--\":77:93   */\n      returndatasize\n        /* \"--CODEGEN--\":74:75   */\n      0x00\n        /* \"--CODEGEN--\":67:94   */\n      revert\n        /* \"--CODEGEN--\":5:7   */\n    tag_262:\n        /* \"TimeAlly.sol\":9348:9407  token.transferFrom(msg.sender, address(this), _exaEsAmount) */\n      pop\n      pop\n      pop\n      pop\n      mload(0x40)\n      returndatasize\n        /* \"--CODEGEN--\":13:15   */\n      0x20\n        /* \"--CODEGEN--\":8:11   */\n      dup2\n        /* \"--CODEGEN--\":5:16   */\n      lt\n        /* \"--CODEGEN--\":2:4   */\n      iszero\n      tag_263\n      jumpi\n        /* \"--CODEGEN--\":29:30   */\n      0x00\n        /* \"--CODEGEN--\":26:27   */\n      dup1\n        /* \"--CODEGEN--\":19:31   */\n      revert\n        /* \"--CODEGEN--\":2:4   */\n    tag_263:\n        /* \"TimeAlly.sol\":9348:9407  token.transferFrom(msg.sender, address(this), _exaEsAmount) */\n      dup2\n      add\n      swap1\n      dup1\n      dup1\n      mload\n      swap1\n      0x20\n      add\n      swap1\n      swap3\n      swap2\n      swap1\n      pop\n      pop\n      pop\n        /* \"TimeAlly.sol\":9340:9408  require(token.transferFrom(msg.sender, address(this), _exaEsAmount)) */\n      tag_264\n      jumpi\n      0x00\n      dup1\n      revert\n    tag_264:\n        /* \"TimeAlly.sol\":9445:9487  launchReward[msg.sender].add(_exaEsAmount) */\n      tag_265\n        /* \"TimeAlly.sol\":9474:9486  _exaEsAmount */\n      dup2\n        /* \"TimeAlly.sol\":9445:9457  launchReward */\n      0x09\n        /* \"TimeAlly.sol\":9445:9469  launchReward[msg.sender] */\n      0x00\n        /* \"TimeAlly.sol\":9458:9468  msg.sender */\n      caller\n        /* \"TimeAlly.sol\":9445:9469  launchReward[msg.sender] */\n      0xffffffffffffffffffffffffffffffffffffffff\n      and\n      0xffffffffffffffffffffffffffffffffffffffff\n      and\n      dup2\n      mstore\n      0x20\n      add\n      swap1\n      dup2\n      mstore\n      0x20\n      add\n      0x00\n      keccak256\n      sload\n        /* \"TimeAlly.sol\":9445:9473  launchReward[msg.sender].add */\n      tag_198\n      swap1\n        /* \"TimeAlly.sol\":9445:9487  launchReward[msg.sender].add(_exaEsAmount) */\n      swap2\n      swap1\n      0xffffffff\n      and\n      jump\t// in\n    tag_265:\n        /* \"TimeAlly.sol\":9418:9430  launchReward */\n      0x09\n        /* \"TimeAlly.sol\":9418:9442  launchReward[msg.sender] */\n      0x00\n        /* \"TimeAlly.sol\":9431:9441  msg.sender */\n      caller\n        /* \"TimeAlly.sol\":9418:9442  launchReward[msg.sender] */\n      0xffffffffffffffffffffffffffffffffffffffff\n      and\n      0xffffffffffffffffffffffffffffffffffffffff\n      and\n      dup2\n      mstore\n      0x20\n      add\n      swap1\n      dup2\n      mstore\n      0x20\n      add\n      0x00\n      keccak256\n        /* \"TimeAlly.sol\":9418:9487  launchReward[msg.sender] = launchReward[msg.sender].add(_exaEsAmount) */\n      dup2\n      swap1\n      sstore\n      pop\n        /* \"TimeAlly.sol\":9274:9494  function topupRewardBucket(uint256 _exaEsAmount) public {... */\n      pop\n      jump\t// out\n        /* \"TimeAlly.sol\":2468:2512  uint256 public earthSecondsInMonth = 2629744 */\n    tag_79:\n      sload(0x04)\n      dup2\n      jump\t// out\n        /* \"TimeAlly.sol\":2632:2665  StakingPlan[] public stakingPlans */\n    tag_82:\n      0x05\n      dup2\n      dup2\n      sload\n      dup2\n      lt\n      tag_266\n      jumpi\n      invalid\n    tag_266:\n      swap1\n      0x00\n      mstore\n      keccak256(0x00, 0x20)\n      swap1\n      0x03\n      mul\n      add\n      0x00\n      swap2\n      pop\n      swap1\n      pop\n      dup1\n      0x00\n      add\n      sload\n      swap1\n      dup1\n      0x01\n      add\n      sload\n      swap1\n      dup1\n      0x02\n      add\n      0x00\n      swap1\n      sload\n      swap1\n      0x0100\n      exp\n      swap1\n      div\n      0xff\n      and\n      swap1\n      pop\n      dup4\n      jump\t// out\n        /* \"TimeAlly.sol\":5895:6231  function createStakingPlan(uint256 _months, uint256 _fractionFrom15, bool _isUrgentLoanAllowed) public onlyOwner {... */\n    tag_85:\n        /* \"TimeAlly.sol\":4467:4472  owner */\n      0x01\n      0x00\n      swap1\n      sload\n      swap1\n      0x0100\n      exp\n      swap1\n      div\n      0xffffffffffffffffffffffffffffffffffffffff\n      and\n        /* \"TimeAlly.sol\":4453:4472  msg.sender == owner */\n      0xffffffffffffffffffffffffffffffffffffffff\n      and\n        /* \"TimeAlly.sol\":4453:4463  msg.sender */\n      caller\n        /* \"TimeAlly.sol\":4453:4472  msg.sender == owner */\n      0xffffffffffffffffffffffffffffffffffffffff\n      and\n      eq\n        /* \"TimeAlly.sol\":4434:4522  require(... */\n      tag_269\n      jumpi\n      0x00\n      dup1\n      revert\n    tag_269:\n        /* \"TimeAlly.sol\":6018:6030  stakingPlans */\n      0x05\n        /* \"TimeAlly.sol\":6036:6223  StakingPlan({... */\n      mload(0x40)\n      dup1\n      0x60\n      add\n      0x40\n      mstore\n      dup1\n        /* \"TimeAlly.sol\":6070:6077  _months */\n      dup6\n        /* \"TimeAlly.sol\":6036:6223  StakingPlan({... */\n      dup2\n      mstore\n      0x20\n      add\n        /* \"TimeAlly.sol\":6107:6122  _fractionFrom15 */\n      dup5\n        /* \"TimeAlly.sol\":6036:6223  StakingPlan({... */\n      dup2\n      mstore\n      0x20\n      add\n        /* \"TimeAlly.sol\":6192:6212  _isUrgentLoanAllowed */\n      dup4\n        /* \"TimeAlly.sol\":6036:6223  StakingPlan({... */\n      iszero\n      iszero\n      dup2\n      mstore\n      pop\n        /* \"TimeAlly.sol\":6018:6224  stakingPlans.push(StakingPlan({... */\n      swap1\n      dup1\n        /* \"--CODEGEN--\":39:40   */\n      0x01\n        /* \"--CODEGEN--\":33:36   */\n      dup2\n        /* \"--CODEGEN--\":27:37   */\n      sload\n        /* \"--CODEGEN--\":23:41   */\n      add\n        /* \"--CODEGEN--\":57:67   */\n      dup1\n        /* \"--CODEGEN--\":52:55   */\n      dup3\n        /* \"--CODEGEN--\":45:68   */\n      sstore\n        /* \"--CODEGEN--\":79:89   */\n      dup1\n        /* \"--CODEGEN--\":72:89   */\n      swap2\n      pop\n        /* \"--CODEGEN--\":0:93   */\n      pop\n        /* \"TimeAlly.sol\":6018:6224  stakingPlans.push(StakingPlan({... */\n      swap1\n      0x01\n      dup3\n      sub\n      swap1\n      0x00\n      mstore\n      keccak256(0x00, 0x20)\n      swap1\n      0x03\n      mul\n      add\n      0x00\n      swap1\n      swap2\n      swap3\n      swap1\n      swap2\n      swap1\n      swap2\n      pop\n      0x00\n      dup3\n      add\n      mload\n      dup2\n      0x00\n      add\n      sstore\n      0x20\n      dup3\n      add\n      mload\n      dup2\n      0x01\n      add\n      sstore\n      0x40\n      dup3\n      add\n      mload\n      dup2\n      0x02\n      add\n      exp(0x0100, 0x00)\n      dup2\n      sload\n      dup2\n      0xff\n      mul\n      not\n      and\n      swap1\n      dup4\n      iszero\n      iszero\n      mul\n      or\n      swap1\n      sstore\n      pop\n      pop\n      pop\n      pop\n        /* \"TimeAlly.sol\":5895:6231  function createStakingPlan(uint256 _months, uint256 _fractionFrom15, bool _isUrgentLoanAllowed) public onlyOwner {... */\n      pop\n      pop\n      pop\n      jump\t// out\n        /* \"TimeAlly.sol\":2831:2878  mapping(address => uint256) public launchReward */\n    tag_88:\n      mstore(0x20, 0x09)\n      dup1\n      0x00\n      mstore\n      keccak256(0x00, 0x40)\n      0x00\n      swap2\n      pop\n      swap1\n      pop\n      sload\n      dup2\n      jump\t// out\n        /* \"TimeAlly.sol\":9742:10112  function giveLaunchReward(address[] memory _addresses, uint256[] memory _exaEsAmountArray) public onlyOwner {... */\n    tag_97:\n        /* \"TimeAlly.sol\":4467:4472  owner */\n      0x01\n      0x00\n      swap1\n      sload\n      swap1\n      0x0100\n      exp\n      swap1\n      div\n      0xffffffffffffffffffffffffffffffffffffffff\n      and\n        /* \"TimeAlly.sol\":4453:4472  msg.sender == owner */\n      0xffffffffffffffffffffffffffffffffffffffff\n      and\n        /* \"TimeAlly.sol\":4453:4463  msg.sender */\n      caller\n        /* \"TimeAlly.sol\":4453:4472  msg.sender == owner */\n      0xffffffffffffffffffffffffffffffffffffffff\n      and\n      eq\n        /* \"TimeAlly.sol\":4434:4522  require(... */\n      tag_273\n      jumpi\n      0x00\n      dup1\n      revert\n    tag_273:\n        /* \"TimeAlly.sol\":9864:9873  uint256 i */\n      0x00\n        /* \"TimeAlly.sol\":9876:9877  0 */\n      dup1\n        /* \"TimeAlly.sol\":9864:9877  uint256 i = 0 */\n      swap1\n      pop\n        /* \"TimeAlly.sol\":9860:10106  for(uint256 i = 0; i < _addresses.length; i++) {... */\n    tag_275:\n        /* \"TimeAlly.sol\":9883:9893  _addresses */\n      dup3\n        /* \"TimeAlly.sol\":9883:9900  _addresses.length */\n      mload\n        /* \"TimeAlly.sol\":9879:9880  i */\n      dup2\n        /* \"TimeAlly.sol\":9879:9900  i < _addresses.length */\n      lt\n        /* \"TimeAlly.sol\":9860:10106  for(uint256 i = 0; i < _addresses.length; i++) {... */\n      iszero\n      tag_276\n      jumpi\n        /* \"TimeAlly.sol\":9948:9998  launchReward[msg.sender].sub(_exaEsAmountArray[i]) */\n      tag_278\n        /* \"TimeAlly.sol\":9977:9994  _exaEsAmountArray */\n      dup3\n        /* \"TimeAlly.sol\":9995:9996  i */\n      dup3\n        /* \"TimeAlly.sol\":9977:9997  _exaEsAmountArray[i] */\n      dup2\n      mload\n      dup2\n      lt\n      tag_279\n      jumpi\n      invalid\n    tag_279:\n      0x20\n      mul\n      0x20\n      add\n      add\n      mload\n        /* \"TimeAlly.sol\":9948:9960  launchReward */\n      0x09\n        /* \"TimeAlly.sol\":9948:9972  launchReward[msg.sender] */\n      0x00\n        /* \"TimeAlly.sol\":9961:9971  msg.sender */\n      caller\n        /* \"TimeAlly.sol\":9948:9972  launchReward[msg.sender] */\n      0xffffffffffffffffffffffffffffffffffffffff\n      and\n      0xffffffffffffffffffffffffffffffffffffffff\n      and\n      dup2\n      mstore\n      0x20\n      add\n      swap1\n      dup2\n      mstore\n      0x20\n      add\n      0x00\n      keccak256\n      sload\n        /* \"TimeAlly.sol\":9948:9976  launchReward[msg.sender].sub */\n      tag_204\n      swap1\n        /* \"TimeAlly.sol\":9948:9998  launchReward[msg.sender].sub(_exaEsAmountArray[i]) */\n      swap2\n      swap1\n      0xffffffff\n      and\n      jump\t// in\n    tag_278:\n        /* \"TimeAlly.sol\":9921:9933  launchReward */\n      0x09\n        /* \"TimeAlly.sol\":9921:9945  launchReward[msg.sender] */\n      0x00\n        /* \"TimeAlly.sol\":9934:9944  msg.sender */\n      caller\n        /* \"TimeAlly.sol\":9921:9945  launchReward[msg.sender] */\n      0xffffffffffffffffffffffffffffffffffffffff\n      and\n      0xffffffffffffffffffffffffffffffffffffffff\n      and\n      dup2\n      mstore\n      0x20\n      add\n      swap1\n      dup2\n      mstore\n      0x20\n      add\n      0x00\n      keccak256\n        /* \"TimeAlly.sol\":9921:9998  launchReward[msg.sender] = launchReward[msg.sender].sub(_exaEsAmountArray[i]) */\n      dup2\n      swap1\n      sstore\n      pop\n        /* \"TimeAlly.sol\":10042:10095  launchReward[_addresses[i]].add(_exaEsAmountArray[i]) */\n      tag_280\n        /* \"TimeAlly.sol\":10074:10091  _exaEsAmountArray */\n      dup3\n        /* \"TimeAlly.sol\":10092:10093  i */\n      dup3\n        /* \"TimeAlly.sol\":10074:10094  _exaEsAmountArray[i] */\n      dup2\n      mload\n      dup2\n      lt\n      tag_281\n      jumpi\n      invalid\n    tag_281:\n      0x20\n      mul\n      0x20\n      add\n      add\n      mload\n        /* \"TimeAlly.sol\":10042:10054  launchReward */\n      0x09\n        /* \"TimeAlly.sol\":10042:10069  launchReward[_addresses[i]] */\n      0x00\n        /* \"TimeAlly.sol\":10055:10065  _addresses */\n      dup7\n        /* \"TimeAlly.sol\":10066:10067  i */\n      dup6\n        /* \"TimeAlly.sol\":10055:10068  _addresses[i] */\n      dup2\n      mload\n      dup2\n      lt\n      tag_282\n      jumpi\n      invalid\n    tag_282:\n      0x20\n      mul\n      0x20\n      add\n      add\n      mload\n        /* \"TimeAlly.sol\":10042:10069  launchReward[_addresses[i]] */\n      0xffffffffffffffffffffffffffffffffffffffff\n      and\n      0xffffffffffffffffffffffffffffffffffffffff\n      and\n      dup2\n      mstore\n      0x20\n      add\n      swap1\n      dup2\n      mstore\n      0x20\n      add\n      0x00\n      keccak256\n      sload\n        /* \"TimeAlly.sol\":10042:10073  launchReward[_addresses[i]].add */\n      tag_198\n      swap1\n        /* \"TimeAlly.sol\":10042:10095  launchReward[_addresses[i]].add(_exaEsAmountArray[i]) */\n      swap2\n      swap1\n      0xffffffff\n      and\n      jump\t// in\n    tag_280:\n        /* \"TimeAlly.sol\":10012:10024  launchReward */\n      0x09\n        /* \"TimeAlly.sol\":10012:10039  launchReward[_addresses[i]] */\n      0x00\n        /* \"TimeAlly.sol\":10025:10035  _addresses */\n      dup6\n        /* \"TimeAlly.sol\":10036:10037  i */\n      dup5\n        /* \"TimeAlly.sol\":10025:10038  _addresses[i] */\n      dup2\n      mload\n      dup2\n      lt\n      tag_283\n      jumpi\n      invalid\n    tag_283:\n      0x20\n      mul\n      0x20\n      add\n      add\n      mload\n        /* \"TimeAlly.sol\":10012:10039  launchReward[_addresses[i]] */\n      0xffffffffffffffffffffffffffffffffffffffff\n      and\n      0xffffffffffffffffffffffffffffffffffffffff\n      and\n      dup2\n      mstore\n      0x20\n      add\n      swap1\n      dup2\n      mstore\n      0x20\n      add\n      0x00\n      keccak256\n        /* \"TimeAlly.sol\":10012:10095  launchReward[_addresses[i]] = launchReward[_addresses[i]].add(_exaEsAmountArray[i]) */\n      dup2\n      swap1\n      sstore\n      pop\n        /* \"TimeAlly.sol\":9902:9905  i++ */\n      dup1\n      dup1\n      0x01\n      add\n      swap2\n      pop\n      pop\n        /* \"TimeAlly.sol\":9860:10106  for(uint256 i = 0; i < _addresses.length; i++) {... */\n      jump(tag_275)\n    tag_276:\n      pop\n        /* \"TimeAlly.sol\":9742:10112  function giveLaunchReward(address[] memory _addresses, uint256[] memory _exaEsAmountArray) public onlyOwner {... */\n      pop\n      pop\n      jump\t// out\n        /* \"TimeAlly.sol\":2316:2336  address public owner */\n    tag_99:\n      0x01\n      0x00\n      swap1\n      sload\n      swap1\n      0x0100\n      exp\n      swap1\n      div\n      0xffffffffffffffffffffffffffffffffffffffff\n      and\n      dup2\n      jump\t// out\n        /* \"TimeAlly.sol\":30755:34083  function nomineeWithdraw(address _userAddress, uint256 _stakingId) public {... */\n    tag_102:\n        /* \"TimeAlly.sol\":30869:30888  uint256 currentTime */\n      0x00\n        /* \"TimeAlly.sol\":30891:30894  now */\n      timestamp\n        /* \"TimeAlly.sol\":30869:30894  uint256 currentTime = now */\n      swap1\n      pop\n        /* \"TimeAlly.sol\":31114:31133  earthSecondsInMonth */\n      sload(0x04)\n        /* \"TimeAlly.sol\":31109:31111  12 */\n      0x0c\n        /* \"TimeAlly.sol\":31109:31133  12 * earthSecondsInMonth */\n      mul\n        /* \"TimeAlly.sol\":31067:31086  earthSecondsInMonth */\n      sload(0x04)\n        /* \"TimeAlly.sol\":30995:31007  stakingPlans */\n      0x05\n        /* \"TimeAlly.sol\":31008:31016  stakings */\n      0x07\n        /* \"TimeAlly.sol\":31008:31030  stakings[_userAddress] */\n      0x00\n        /* \"TimeAlly.sol\":31017:31029  _userAddress */\n      dup8\n        /* \"TimeAlly.sol\":31008:31030  stakings[_userAddress] */\n      0xffffffffffffffffffffffffffffffffffffffff\n      and\n      0xffffffffffffffffffffffffffffffffffffffff\n      and\n      dup2\n      mstore\n      0x20\n      add\n      swap1\n      dup2\n      mstore\n      0x20\n      add\n      0x00\n      keccak256\n        /* \"TimeAlly.sol\":31031:31041  _stakingId */\n      dup6\n        /* \"TimeAlly.sol\":31008:31042  stakings[_userAddress][_stakingId] */\n      dup2\n      sload\n      dup2\n      lt\n      tag_285\n      jumpi\n      invalid\n    tag_285:\n      swap1\n      0x00\n      mstore\n      keccak256(0x00, 0x20)\n      swap1\n      0x09\n      mul\n      add\n        /* \"TimeAlly.sol\":31008:31056  stakings[_userAddress][_stakingId].stakingPlanId */\n      0x03\n      add\n      sload\n        /* \"TimeAlly.sol\":30995:31057  stakingPlans[stakings[_userAddress][_stakingId].stakingPlanId] */\n      dup2\n      sload\n      dup2\n      lt\n      tag_287\n      jumpi\n      invalid\n    tag_287:\n      swap1\n      0x00\n      mstore\n      keccak256(0x00, 0x20)\n      swap1\n      0x03\n      mul\n      add\n        /* \"TimeAlly.sol\":30995:31064  stakingPlans[stakings[_userAddress][_stakingId].stakingPlanId].months */\n      0x00\n      add\n      sload\n        /* \"TimeAlly.sol\":30995:31086  stakingPlans[stakings[_userAddress][_stakingId].stakingPlanId].months * earthSecondsInMonth */\n      mul\n        /* \"TimeAlly.sol\":30928:30936  stakings */\n      0x07\n        /* \"TimeAlly.sol\":30928:30950  stakings[_userAddress] */\n      0x00\n        /* \"TimeAlly.sol\":30937:30949  _userAddress */\n      dup7\n        /* \"TimeAlly.sol\":30928:30950  stakings[_userAddress] */\n      0xffffffffffffffffffffffffffffffffffffffff\n      and\n      0xffffffffffffffffffffffffffffffffffffffff\n      and\n      dup2\n      mstore\n      0x20\n      add\n      swap1\n      dup2\n      mstore\n      0x20\n      add\n      0x00\n      keccak256\n        /* \"TimeAlly.sol\":30951:30961  _stakingId */\n      dup5\n        /* \"TimeAlly.sol\":30928:30962  stakings[_userAddress][_stakingId] */\n      dup2\n      sload\n      dup2\n      lt\n      tag_289\n      jumpi\n      invalid\n    tag_289:\n      swap1\n      0x00\n      mstore\n      keccak256(0x00, 0x20)\n      swap1\n      0x09\n      mul\n      add\n        /* \"TimeAlly.sol\":30928:30972  stakings[_userAddress][_stakingId].timestamp */\n      0x01\n      add\n      sload\n        /* \"TimeAlly.sol\":30928:31086  stakings[_userAddress][_stakingId].timestamp... */\n      add\n        /* \"TimeAlly.sol\":30928:31133  stakings[_userAddress][_stakingId].timestamp... */\n      add\n        /* \"TimeAlly.sol\":30913:30924  currentTime */\n      dup2\n        /* \"TimeAlly.sol\":30913:31135  currentTime > (stakings[_userAddress][_stakingId].timestamp... */\n      gt\n        /* \"TimeAlly.sol\":30904:31208  require( currentTime > (stakings[_userAddress][_stakingId].timestamp... */\n      tag_291\n      jumpi\n      0x00\n      dup1\n      revert\n    tag_291:\n        /* \"TimeAlly.sol\":31219:31241  uint256 _nomineeShares */\n      0x00\n        /* \"TimeAlly.sol\":31244:31252  stakings */\n      0x07\n        /* \"TimeAlly.sol\":31244:31266  stakings[_userAddress] */\n      0x00\n        /* \"TimeAlly.sol\":31253:31265  _userAddress */\n      dup6\n        /* \"TimeAlly.sol\":31244:31266  stakings[_userAddress] */\n      0xffffffffffffffffffffffffffffffffffffffff\n      and\n      0xffffffffffffffffffffffffffffffffffffffff\n      and\n      dup2\n      mstore\n      0x20\n      add\n      swap1\n      dup2\n      mstore\n      0x20\n      add\n      0x00\n      keccak256\n        /* \"TimeAlly.sol\":31267:31277  _stakingId */\n      dup4\n        /* \"TimeAlly.sol\":31244:31278  stakings[_userAddress][_stakingId] */\n      dup2\n      sload\n      dup2\n      lt\n      tag_292\n      jumpi\n      invalid\n    tag_292:\n      swap1\n      0x00\n      mstore\n      keccak256(0x00, 0x20)\n      swap1\n      0x09\n      mul\n      add\n        /* \"TimeAlly.sol\":31244:31289  stakings[_userAddress][_stakingId].nomination */\n      0x08\n      add\n        /* \"TimeAlly.sol\":31244:31301  stakings[_userAddress][_stakingId].nomination[msg.sender] */\n      0x00\n        /* \"TimeAlly.sol\":31290:31300  msg.sender */\n      caller\n        /* \"TimeAlly.sol\":31244:31301  stakings[_userAddress][_stakingId].nomination[msg.sender] */\n      0xffffffffffffffffffffffffffffffffffffffff\n      and\n      0xffffffffffffffffffffffffffffffffffffffff\n      and\n      dup2\n      mstore\n      0x20\n      add\n      swap1\n      dup2\n      mstore\n      0x20\n      add\n      0x00\n      keccak256\n      sload\n        /* \"TimeAlly.sol\":31219:31301  uint256 _nomineeShares = stakings[_userAddress][_stakingId].nomination[msg.sender] */\n      swap1\n      pop\n        /* \"TimeAlly.sol\":31336:31337  0 */\n      0x00\n        /* \"TimeAlly.sol\":31319:31333  _nomineeShares */\n      dup2\n        /* \"TimeAlly.sol\":31319:31337  _nomineeShares > 0 */\n      gt\n        /* \"TimeAlly.sol\":31311:31394  require(_nomineeShares > 0... */\n      tag_294\n      jumpi\n      0x00\n      dup1\n      revert\n    tag_294:\n        /* \"TimeAlly.sol\":31544:31545  5 */\n      0x05\n        /* \"TimeAlly.sol\":31499:31507  stakings */\n      0x07\n        /* \"TimeAlly.sol\":31499:31521  stakings[_userAddress] */\n      0x00\n        /* \"TimeAlly.sol\":31508:31520  _userAddress */\n      dup7\n        /* \"TimeAlly.sol\":31499:31521  stakings[_userAddress] */\n      0xffffffffffffffffffffffffffffffffffffffff\n      and\n      0xffffffffffffffffffffffffffffffffffffffff\n      and\n      dup2\n      mstore\n      0x20\n      add\n      swap1\n      dup2\n      mstore\n      0x20\n      add\n      0x00\n      keccak256\n        /* \"TimeAlly.sol\":31522:31532  _stakingId */\n      dup5\n        /* \"TimeAlly.sol\":31499:31533  stakings[_userAddress][_stakingId] */\n      dup2\n      sload\n      dup2\n      lt\n      tag_295\n      jumpi\n      invalid\n    tag_295:\n      swap1\n      0x00\n      mstore\n      keccak256(0x00, 0x20)\n      swap1\n      0x09\n      mul\n      add\n        /* \"TimeAlly.sol\":31499:31540  stakings[_userAddress][_stakingId].status */\n      0x04\n      add\n      sload\n        /* \"TimeAlly.sol\":31499:31545  stakings[_userAddress][_stakingId].status != 5 */\n      eq\n        /* \"TimeAlly.sol\":31496:31617  if(stakings[_userAddress][_stakingId].status != 5) {... */\n      tag_297\n      jumpi\n        /* \"TimeAlly.sol\":31605:31606  5 */\n      0x05\n        /* \"TimeAlly.sol\":31561:31569  stakings */\n      0x07\n        /* \"TimeAlly.sol\":31561:31583  stakings[_userAddress] */\n      0x00\n        /* \"TimeAlly.sol\":31570:31582  _userAddress */\n      dup7\n        /* \"TimeAlly.sol\":31561:31583  stakings[_userAddress] */\n      0xffffffffffffffffffffffffffffffffffffffff\n      and\n      0xffffffffffffffffffffffffffffffffffffffff\n      and\n      dup2\n      mstore\n      0x20\n      add\n      swap1\n      dup2\n      mstore\n      0x20\n      add\n      0x00\n      keccak256\n        /* \"TimeAlly.sol\":31584:31594  _stakingId */\n      dup5\n        /* \"TimeAlly.sol\":31561:31595  stakings[_userAddress][_stakingId] */\n      dup2\n      sload\n      dup2\n      lt\n      tag_298\n      jumpi\n      invalid\n    tag_298:\n      swap1\n      0x00\n      mstore\n      keccak256(0x00, 0x20)\n      swap1\n      0x09\n      mul\n      add\n        /* \"TimeAlly.sol\":31561:31602  stakings[_userAddress][_stakingId].status */\n      0x04\n      add\n        /* \"TimeAlly.sol\":31561:31606  stakings[_userAddress][_stakingId].status = 5 */\n      dup2\n      swap1\n      sstore\n      pop\n        /* \"TimeAlly.sol\":31496:31617  if(stakings[_userAddress][_stakingId].status != 5) {... */\n    tag_297:\n        /* \"TimeAlly.sol\":31663:31700  uint256 _pendingLiquidAmountInStaking */\n      0x00\n        /* \"TimeAlly.sol\":31703:31711  stakings */\n      0x07\n        /* \"TimeAlly.sol\":31703:31725  stakings[_userAddress] */\n      0x00\n        /* \"TimeAlly.sol\":31712:31724  _userAddress */\n      dup7\n        /* \"TimeAlly.sol\":31703:31725  stakings[_userAddress] */\n      0xffffffffffffffffffffffffffffffffffffffff\n      and\n      0xffffffffffffffffffffffffffffffffffffffff\n      and\n      dup2\n      mstore\n      0x20\n      add\n      swap1\n      dup2\n      mstore\n      0x20\n      add\n      0x00\n      keccak256\n        /* \"TimeAlly.sol\":31726:31736  _stakingId */\n      dup5\n        /* \"TimeAlly.sol\":31703:31737  stakings[_userAddress][_stakingId] */\n      dup2\n      sload\n      dup2\n      lt\n      tag_300\n      jumpi\n      invalid\n    tag_300:\n      swap1\n      0x00\n      mstore\n      keccak256(0x00, 0x20)\n      swap1\n      0x09\n      mul\n      add\n        /* \"TimeAlly.sol\":31703:31749  stakings[_userAddress][_stakingId].exaEsAmount */\n      0x00\n      add\n      sload\n        /* \"TimeAlly.sol\":31663:31749  uint256 _pendingLiquidAmountInStaking = stakings[_userAddress][_stakingId].exaEsAmount */\n      swap1\n      pop\n        /* \"TimeAlly.sol\":31759:31797  uint256 _pendingAccruedAmountInStaking */\n      0x00\n        /* \"TimeAlly.sol\":31942:31964  uint256 _stakeEndMonth */\n      dup1\n        /* \"TimeAlly.sol\":32017:32029  stakingPlans */\n      0x05\n        /* \"TimeAlly.sol\":32030:32038  stakings */\n      0x07\n        /* \"TimeAlly.sol\":32030:32052  stakings[_userAddress] */\n      0x00\n        /* \"TimeAlly.sol\":32039:32051  _userAddress */\n      dup10\n        /* \"TimeAlly.sol\":32030:32052  stakings[_userAddress] */\n      0xffffffffffffffffffffffffffffffffffffffff\n      and\n      0xffffffffffffffffffffffffffffffffffffffff\n      and\n      dup2\n      mstore\n      0x20\n      add\n      swap1\n      dup2\n      mstore\n      0x20\n      add\n      0x00\n      keccak256\n        /* \"TimeAlly.sol\":32053:32063  _stakingId */\n      dup8\n        /* \"TimeAlly.sol\":32030:32064  stakings[_userAddress][_stakingId] */\n      dup2\n      sload\n      dup2\n      lt\n      tag_302\n      jumpi\n      invalid\n    tag_302:\n      swap1\n      0x00\n      mstore\n      keccak256(0x00, 0x20)\n      swap1\n      0x09\n      mul\n      add\n        /* \"TimeAlly.sol\":32030:32078  stakings[_userAddress][_stakingId].stakingPlanId */\n      0x03\n      add\n      sload\n        /* \"TimeAlly.sol\":32017:32079  stakingPlans[stakings[_userAddress][_stakingId].stakingPlanId] */\n      dup2\n      sload\n      dup2\n      lt\n      tag_304\n      jumpi\n      invalid\n    tag_304:\n      swap1\n      0x00\n      mstore\n      keccak256(0x00, 0x20)\n      swap1\n      0x03\n      mul\n      add\n        /* \"TimeAlly.sol\":32017:32086  stakingPlans[stakings[_userAddress][_stakingId].stakingPlanId].months */\n      0x00\n      add\n      sload\n        /* \"TimeAlly.sol\":31967:31975  stakings */\n      0x07\n        /* \"TimeAlly.sol\":31967:31989  stakings[_userAddress] */\n      0x00\n        /* \"TimeAlly.sol\":31976:31988  _userAddress */\n      dup10\n        /* \"TimeAlly.sol\":31967:31989  stakings[_userAddress] */\n      0xffffffffffffffffffffffffffffffffffffffff\n      and\n      0xffffffffffffffffffffffffffffffffffffffff\n      and\n      dup2\n      mstore\n      0x20\n      add\n      swap1\n      dup2\n      mstore\n      0x20\n      add\n      0x00\n      keccak256\n        /* \"TimeAlly.sol\":31990:32000  _stakingId */\n      dup8\n        /* \"TimeAlly.sol\":31967:32001  stakings[_userAddress][_stakingId] */\n      dup2\n      sload\n      dup2\n      lt\n      tag_306\n      jumpi\n      invalid\n    tag_306:\n      swap1\n      0x00\n      mstore\n      keccak256(0x00, 0x20)\n      swap1\n      0x09\n      mul\n      add\n        /* \"TimeAlly.sol\":31967:32014  stakings[_userAddress][_stakingId].stakingMonth */\n      0x02\n      add\n      sload\n        /* \"TimeAlly.sol\":31967:32086  stakings[_userAddress][_stakingId].stakingMonth + stakingPlans[stakings[_userAddress][_stakingId].stakingPlanId].months */\n      add\n        /* \"TimeAlly.sol\":31942:32086  uint256 _stakeEndMonth = stakings[_userAddress][_stakingId].stakingMonth + stakingPlans[stakings[_userAddress][_stakingId].stakingPlanId].months */\n      swap1\n      pop\n        /* \"TimeAlly.sol\":32169:32178  uint256 i */\n      0x00\n        /* \"TimeAlly.sol\":32181:32189  stakings */\n      0x07\n        /* \"TimeAlly.sol\":32181:32203  stakings[_userAddress] */\n      0x00\n        /* \"TimeAlly.sol\":32190:32202  _userAddress */\n      dup10\n        /* \"TimeAlly.sol\":32181:32203  stakings[_userAddress] */\n      0xffffffffffffffffffffffffffffffffffffffff\n      and\n      0xffffffffffffffffffffffffffffffffffffffff\n      and\n      dup2\n      mstore\n      0x20\n      add\n      swap1\n      dup2\n      mstore\n      0x20\n      add\n      0x00\n      keccak256\n        /* \"TimeAlly.sol\":32204:32214  _stakingId */\n      dup8\n        /* \"TimeAlly.sol\":32181:32215  stakings[_userAddress][_stakingId] */\n      dup2\n      sload\n      dup2\n      lt\n      tag_311\n      jumpi\n      invalid\n    tag_311:\n      swap1\n      0x00\n      mstore\n      keccak256(0x00, 0x20)\n      swap1\n      0x09\n      mul\n      add\n        /* \"TimeAlly.sol\":32181:32228  stakings[_userAddress][_stakingId].stakingMonth */\n      0x02\n      add\n      sload\n        /* \"TimeAlly.sol\":32169:32228  uint256 i = stakings[_userAddress][_stakingId].stakingMonth */\n      swap1\n      pop\n        /* \"TimeAlly.sol\":32154:33041  for(... */\n    tag_308:\n        /* \"TimeAlly.sol\":32266:32280  _stakeEndMonth */\n      dup2\n        /* \"TimeAlly.sol\":32262:32263  i */\n      dup2\n        /* \"TimeAlly.sol\":32262:32280  i < _stakeEndMonth */\n      lt\n        /* \"TimeAlly.sol\":32154:33041  for(... */\n      iszero\n      tag_309\n      jumpi\n        /* \"TimeAlly.sol\":32324:32332  stakings */\n      0x07\n        /* \"TimeAlly.sol\":32324:32346  stakings[_userAddress] */\n      0x00\n        /* \"TimeAlly.sol\":32333:32345  _userAddress */\n      dup10\n        /* \"TimeAlly.sol\":32324:32346  stakings[_userAddress] */\n      0xffffffffffffffffffffffffffffffffffffffff\n      and\n      0xffffffffffffffffffffffffffffffffffffffff\n      and\n      dup2\n      mstore\n      0x20\n      add\n      swap1\n      dup2\n      mstore\n      0x20\n      add\n      0x00\n      keccak256\n        /* \"TimeAlly.sol\":32347:32357  _stakingId */\n      dup8\n        /* \"TimeAlly.sol\":32324:32358  stakings[_userAddress][_stakingId] */\n      dup2\n      sload\n      dup2\n      lt\n      tag_313\n      jumpi\n      invalid\n    tag_313:\n      swap1\n      0x00\n      mstore\n      keccak256(0x00, 0x20)\n      swap1\n      0x09\n      mul\n      add\n        /* \"TimeAlly.sol\":32324:32373  stakings[_userAddress][_stakingId].isMonthClaimed */\n      0x07\n      add\n        /* \"TimeAlly.sol\":32324:32376  stakings[_userAddress][_stakingId].isMonthClaimed[i] */\n      0x00\n        /* \"TimeAlly.sol\":32374:32375  i */\n      dup3\n        /* \"TimeAlly.sol\":32324:32376  stakings[_userAddress][_stakingId].isMonthClaimed[i] */\n      dup2\n      mstore\n      0x20\n      add\n      swap1\n      dup2\n      mstore\n      0x20\n      add\n      0x00\n      keccak256\n      0x00\n      swap1\n      sload\n      swap1\n      0x0100\n      exp\n      swap1\n      div\n      0xff\n      and\n        /* \"TimeAlly.sol\":32320:33031  if( stakings[_userAddress][_stakingId].isMonthClaimed[i] ) {... */\n      iszero\n      tag_315\n      jumpi\n        /* \"TimeAlly.sol\":32397:32421  uint256 _effectiveAmount */\n      0x00\n        /* \"TimeAlly.sol\":32424:32599  stakings[_userAddress][_stakingId].exaEsAmount... */\n      tag_316\n        /* \"TimeAlly.sol\":32596:32598  15 */\n      0x0f\n        /* \"TimeAlly.sol\":32424:32572  stakings[_userAddress][_stakingId].exaEsAmount... */\n      tag_317\n        /* \"TimeAlly.sol\":32494:32506  stakingPlans */\n      0x05\n        /* \"TimeAlly.sol\":32507:32515  stakings */\n      0x07\n        /* \"TimeAlly.sol\":32507:32529  stakings[_userAddress] */\n      0x00\n        /* \"TimeAlly.sol\":32516:32528  _userAddress */\n      dup15\n        /* \"TimeAlly.sol\":32507:32529  stakings[_userAddress] */\n      0xffffffffffffffffffffffffffffffffffffffff\n      and\n      0xffffffffffffffffffffffffffffffffffffffff\n      and\n      dup2\n      mstore\n      0x20\n      add\n      swap1\n      dup2\n      mstore\n      0x20\n      add\n      0x00\n      keccak256\n        /* \"TimeAlly.sol\":32530:32540  _stakingId */\n      dup13\n        /* \"TimeAlly.sol\":32507:32541  stakings[_userAddress][_stakingId] */\n      dup2\n      sload\n      dup2\n      lt\n      tag_318\n      jumpi\n      invalid\n    tag_318:\n      swap1\n      0x00\n      mstore\n      keccak256(0x00, 0x20)\n      swap1\n      0x09\n      mul\n      add\n        /* \"TimeAlly.sol\":32507:32555  stakings[_userAddress][_stakingId].stakingPlanId */\n      0x03\n      add\n      sload\n        /* \"TimeAlly.sol\":32494:32556  stakingPlans[stakings[_userAddress][_stakingId].stakingPlanId] */\n      dup2\n      sload\n      dup2\n      lt\n      tag_320\n      jumpi\n      invalid\n    tag_320:\n      swap1\n      0x00\n      mstore\n      keccak256(0x00, 0x20)\n      swap1\n      0x03\n      mul\n      add\n        /* \"TimeAlly.sol\":32494:32571  stakingPlans[stakings[_userAddress][_stakingId].stakingPlanId].fractionFrom15 */\n      0x01\n      add\n      sload\n        /* \"TimeAlly.sol\":32424:32432  stakings */\n      0x07\n        /* \"TimeAlly.sol\":32424:32446  stakings[_userAddress] */\n      0x00\n        /* \"TimeAlly.sol\":32433:32445  _userAddress */\n      dup15\n        /* \"TimeAlly.sol\":32424:32446  stakings[_userAddress] */\n      0xffffffffffffffffffffffffffffffffffffffff\n      and\n      0xffffffffffffffffffffffffffffffffffffffff\n      and\n      dup2\n      mstore\n      0x20\n      add\n      swap1\n      dup2\n      mstore\n      0x20\n      add\n      0x00\n      keccak256\n        /* \"TimeAlly.sol\":32447:32457  _stakingId */\n      dup13\n        /* \"TimeAlly.sol\":32424:32458  stakings[_userAddress][_stakingId] */\n      dup2\n      sload\n      dup2\n      lt\n      tag_322\n      jumpi\n      invalid\n    tag_322:\n      swap1\n      0x00\n      mstore\n      keccak256(0x00, 0x20)\n      swap1\n      0x09\n      mul\n      add\n        /* \"TimeAlly.sol\":32424:32470  stakings[_userAddress][_stakingId].exaEsAmount */\n      0x00\n      add\n      sload\n        /* \"TimeAlly.sol\":32424:32493  stakings[_userAddress][_stakingId].exaEsAmount... */\n      tag_179\n      swap1\n        /* \"TimeAlly.sol\":32424:32572  stakings[_userAddress][_stakingId].exaEsAmount... */\n      swap2\n      swap1\n      0xffffffff\n      and\n      jump\t// in\n    tag_317:\n        /* \"TimeAlly.sol\":32424:32595  stakings[_userAddress][_stakingId].exaEsAmount... */\n      tag_236\n      swap1\n        /* \"TimeAlly.sol\":32424:32599  stakings[_userAddress][_stakingId].exaEsAmount... */\n      swap2\n      swap1\n      0xffffffff\n      and\n      jump\t// in\n    tag_316:\n        /* \"TimeAlly.sol\":32397:32599  uint256 _effectiveAmount = stakings[_userAddress][_stakingId].exaEsAmount... */\n      swap1\n      pop\n        /* \"TimeAlly.sol\":32617:32640  uint256 _monthlyBenefit */\n      0x00\n        /* \"TimeAlly.sol\":32643:32800  _effectiveAmount... */\n      tag_324\n        /* \"TimeAlly.sol\":32777:32796  totalActiveStakings */\n      0x0a\n        /* \"TimeAlly.sol\":32777:32799  totalActiveStakings[i] */\n      0x00\n        /* \"TimeAlly.sol\":32797:32798  i */\n      dup6\n        /* \"TimeAlly.sol\":32777:32799  totalActiveStakings[i] */\n      dup2\n      mstore\n      0x20\n      add\n      swap1\n      dup2\n      mstore\n      0x20\n      add\n      0x00\n      keccak256\n      sload\n        /* \"TimeAlly.sol\":32643:32729  _effectiveAmount... */\n      tag_325\n        /* \"TimeAlly.sol\":32707:32725  timeAllyMonthlyNRT */\n      0x0b\n        /* \"TimeAlly.sol\":32726:32727  i */\n      dup7\n        /* \"TimeAlly.sol\":32707:32728  timeAllyMonthlyNRT[i] */\n      dup2\n      sload\n      dup2\n      lt\n      tag_326\n      jumpi\n      invalid\n    tag_326:\n      swap1\n      0x00\n      mstore\n      keccak256(0x00, 0x20)\n      add\n      sload\n        /* \"TimeAlly.sol\":32643:32659  _effectiveAmount */\n      dup6\n        /* \"TimeAlly.sol\":32643:32706  _effectiveAmount... */\n      tag_179\n      swap1\n        /* \"TimeAlly.sol\":32643:32729  _effectiveAmount... */\n      swap2\n      swap1\n      0xffffffff\n      and\n      jump\t// in\n    tag_325:\n        /* \"TimeAlly.sol\":32643:32776  _effectiveAmount... */\n      tag_236\n      swap1\n        /* \"TimeAlly.sol\":32643:32800  _effectiveAmount... */\n      swap2\n      swap1\n      0xffffffff\n      and\n      jump\t// in\n    tag_324:\n        /* \"TimeAlly.sol\":32617:32800  uint256 _monthlyBenefit = _effectiveAmount... */\n      swap1\n      pop\n        /* \"TimeAlly.sol\":32850:32907  _pendingLiquidAmountInStaking.add(_monthlyBenefit.div(2)) */\n      tag_328\n        /* \"TimeAlly.sol\":32884:32906  _monthlyBenefit.div(2) */\n      tag_329\n        /* \"TimeAlly.sol\":32904:32905  2 */\n      0x02\n        /* \"TimeAlly.sol\":32884:32899  _monthlyBenefit */\n      dup4\n        /* \"TimeAlly.sol\":32884:32903  _monthlyBenefit.div */\n      tag_236\n      swap1\n        /* \"TimeAlly.sol\":32884:32906  _monthlyBenefit.div(2) */\n      swap2\n      swap1\n      0xffffffff\n      and\n      jump\t// in\n    tag_329:\n        /* \"TimeAlly.sol\":32850:32879  _pendingLiquidAmountInStaking */\n      dup8\n        /* \"TimeAlly.sol\":32850:32883  _pendingLiquidAmountInStaking.add */\n      tag_198\n      swap1\n        /* \"TimeAlly.sol\":32850:32907  _pendingLiquidAmountInStaking.add(_monthlyBenefit.div(2)) */\n      swap2\n      swap1\n      0xffffffff\n      and\n      jump\t// in\n    tag_328:\n        /* \"TimeAlly.sol\":32818:32907  _pendingLiquidAmountInStaking = _pendingLiquidAmountInStaking.add(_monthlyBenefit.div(2)) */\n      swap6\n      pop\n        /* \"TimeAlly.sol\":32958:33016  _pendingAccruedAmountInStaking.add(_monthlyBenefit.div(2)) */\n      tag_330\n        /* \"TimeAlly.sol\":32993:33015  _monthlyBenefit.div(2) */\n      tag_331\n        /* \"TimeAlly.sol\":33013:33014  2 */\n      0x02\n        /* \"TimeAlly.sol\":32993:33008  _monthlyBenefit */\n      dup4\n        /* \"TimeAlly.sol\":32993:33012  _monthlyBenefit.div */\n      tag_236\n      swap1\n        /* \"TimeAlly.sol\":32993:33015  _monthlyBenefit.div(2) */\n      swap2\n      swap1\n      0xffffffff\n      and\n      jump\t// in\n    tag_331:\n        /* \"TimeAlly.sol\":32958:32988  _pendingAccruedAmountInStaking */\n      dup7\n        /* \"TimeAlly.sol\":32958:32992  _pendingAccruedAmountInStaking.add */\n      tag_198\n      swap1\n        /* \"TimeAlly.sol\":32958:33016  _pendingAccruedAmountInStaking.add(_monthlyBenefit.div(2)) */\n      swap2\n      swap1\n      0xffffffff\n      and\n      jump\t// in\n    tag_330:\n        /* \"TimeAlly.sol\":32925:33016  _pendingAccruedAmountInStaking = _pendingAccruedAmountInStaking.add(_monthlyBenefit.div(2)) */\n      swap5\n      pop\n        /* \"TimeAlly.sol\":32320:33031  if( stakings[_userAddress][_stakingId].isMonthClaimed[i] ) {... */\n      pop\n      pop\n    tag_315:\n        /* \"TimeAlly.sol\":32292:32295  i++ */\n      dup1\n      dup1\n      0x01\n      add\n      swap2\n      pop\n      pop\n        /* \"TimeAlly.sol\":32154:33041  for(... */\n      jump(tag_308)\n    tag_309:\n      pop\n        /* \"TimeAlly.sol\":33321:33322  0 */\n      0x00\n        /* \"TimeAlly.sol\":33261:33269  stakings */\n      0x07\n        /* \"TimeAlly.sol\":33261:33283  stakings[_userAddress] */\n      0x00\n        /* \"TimeAlly.sol\":33270:33282  _userAddress */\n      dup10\n        /* \"TimeAlly.sol\":33261:33283  stakings[_userAddress] */\n      0xffffffffffffffffffffffffffffffffffffffff\n      and\n      0xffffffffffffffffffffffffffffffffffffffff\n      and\n      dup2\n      mstore\n      0x20\n      add\n      swap1\n      dup2\n      mstore\n      0x20\n      add\n      0x00\n      keccak256\n        /* \"TimeAlly.sol\":33284:33294  _stakingId */\n      dup8\n        /* \"TimeAlly.sol\":33261:33295  stakings[_userAddress][_stakingId] */\n      dup2\n      sload\n      dup2\n      lt\n      tag_332\n      jumpi\n      invalid\n    tag_332:\n      swap1\n      0x00\n      mstore\n      keccak256(0x00, 0x20)\n      swap1\n      0x09\n      mul\n      add\n        /* \"TimeAlly.sol\":33261:33306  stakings[_userAddress][_stakingId].nomination */\n      0x08\n      add\n        /* \"TimeAlly.sol\":33261:33318  stakings[_userAddress][_stakingId].nomination[msg.sender] */\n      0x00\n        /* \"TimeAlly.sol\":33307:33317  msg.sender */\n      caller\n        /* \"TimeAlly.sol\":33261:33318  stakings[_userAddress][_stakingId].nomination[msg.sender] */\n      0xffffffffffffffffffffffffffffffffffffffff\n      and\n      0xffffffffffffffffffffffffffffffffffffffff\n      and\n      dup2\n      mstore\n      0x20\n      add\n      swap1\n      dup2\n      mstore\n      0x20\n      add\n      0x00\n      keccak256\n        /* \"TimeAlly.sol\":33261:33322  stakings[_userAddress][_stakingId].nomination[msg.sender] = 0 */\n      dup2\n      swap1\n      sstore\n      pop\n        /* \"TimeAlly.sol\":33333:33360  uint256 _nomineeLiquidShare */\n      0x00\n        /* \"TimeAlly.sol\":33363:33556  _pendingLiquidAmountInStaking... */\n      tag_334\n        /* \"TimeAlly.sol\":33499:33507  stakings */\n      0x07\n        /* \"TimeAlly.sol\":33499:33521  stakings[_userAddress] */\n      0x00\n        /* \"TimeAlly.sol\":33508:33520  _userAddress */\n      dup11\n        /* \"TimeAlly.sol\":33499:33521  stakings[_userAddress] */\n      0xffffffffffffffffffffffffffffffffffffffff\n      and\n      0xffffffffffffffffffffffffffffffffffffffff\n      and\n      dup2\n      mstore\n      0x20\n      add\n      swap1\n      dup2\n      mstore\n      0x20\n      add\n      0x00\n      keccak256\n        /* \"TimeAlly.sol\":33522:33532  _stakingId */\n      dup9\n        /* \"TimeAlly.sol\":33499:33533  stakings[_userAddress][_stakingId] */\n      dup2\n      sload\n      dup2\n      lt\n      tag_335\n      jumpi\n      invalid\n    tag_335:\n      swap1\n      0x00\n      mstore\n      keccak256(0x00, 0x20)\n      swap1\n      0x09\n      mul\n      add\n        /* \"TimeAlly.sol\":33499:33555  stakings[_userAddress][_stakingId].totalNominationShares */\n      0x06\n      add\n      sload\n        /* \"TimeAlly.sol\":33363:33453  _pendingLiquidAmountInStaking... */\n      tag_337\n        /* \"TimeAlly.sol\":33438:33452  _nomineeShares */\n      dup8\n        /* \"TimeAlly.sol\":33363:33392  _pendingLiquidAmountInStaking */\n      dup8\n        /* \"TimeAlly.sol\":33363:33437  _pendingLiquidAmountInStaking... */\n      tag_179\n      swap1\n        /* \"TimeAlly.sol\":33363:33453  _pendingLiquidAmountInStaking... */\n      swap2\n      swap1\n      0xffffffff\n      and\n      jump\t// in\n    tag_337:\n        /* \"TimeAlly.sol\":33363:33498  _pendingLiquidAmountInStaking... */\n      tag_236\n      swap1\n        /* \"TimeAlly.sol\":33363:33556  _pendingLiquidAmountInStaking... */\n      swap2\n      swap1\n      0xffffffff\n      and\n      jump\t// in\n    tag_334:\n        /* \"TimeAlly.sol\":33333:33556  uint256 _nomineeLiquidShare = _pendingLiquidAmountInStaking... */\n      swap1\n      pop\n        /* \"TimeAlly.sol\":33566:33571  token */\n      0x02\n      0x00\n      swap1\n      sload\n      swap1\n      0x0100\n      exp\n      swap1\n      div\n      0xffffffffffffffffffffffffffffffffffffffff\n      and\n        /* \"TimeAlly.sol\":33566:33580  token.transfer */\n      0xffffffffffffffffffffffffffffffffffffffff\n      and\n      0xa9059cbb\n        /* \"TimeAlly.sol\":33581:33591  msg.sender */\n      caller\n        /* \"TimeAlly.sol\":33593:33612  _nomineeLiquidShare */\n      dup4\n        /* \"TimeAlly.sol\":33566:33613  token.transfer(msg.sender, _nomineeLiquidShare) */\n      mload(0x40)\n      dup4\n      0xffffffff\n      and\n      0xe0\n      shl\n      dup2\n      mstore\n      0x04\n      add\n      dup1\n      dup4\n      0xffffffffffffffffffffffffffffffffffffffff\n      and\n      0xffffffffffffffffffffffffffffffffffffffff\n      and\n      dup2\n      mstore\n      0x20\n      add\n      dup3\n      dup2\n      mstore\n      0x20\n      add\n      swap3\n      pop\n      pop\n      pop\n      0x20\n      mload(0x40)\n      dup1\n      dup4\n      sub\n      dup2\n      0x00\n      dup8\n      dup1\n      extcodesize\n      iszero\n        /* \"--CODEGEN--\":8:17   */\n      dup1\n        /* \"--CODEGEN--\":5:7   */\n      iszero\n      tag_338\n      jumpi\n        /* \"--CODEGEN--\":30:31   */\n      0x00\n        /* \"--CODEGEN--\":27:28   */\n      dup1\n        /* \"--CODEGEN--\":20:32   */\n      revert\n        /* \"--CODEGEN--\":5:7   */\n    tag_338:\n        /* \"TimeAlly.sol\":33566:33613  token.transfer(msg.sender, _nomineeLiquidShare) */\n      pop\n      gas\n      call\n      iszero\n        /* \"--CODEGEN--\":8:17   */\n      dup1\n        /* \"--CODEGEN--\":5:7   */\n      iszero\n      tag_339\n      jumpi\n        /* \"--CODEGEN--\":45:61   */\n      returndatasize\n        /* \"--CODEGEN--\":42:43   */\n      0x00\n        /* \"--CODEGEN--\":39:40   */\n      dup1\n        /* \"--CODEGEN--\":24:62   */\n      returndatacopy\n        /* \"--CODEGEN--\":77:93   */\n      returndatasize\n        /* \"--CODEGEN--\":74:75   */\n      0x00\n        /* \"--CODEGEN--\":67:94   */\n      revert\n        /* \"--CODEGEN--\":5:7   */\n    tag_339:\n        /* \"TimeAlly.sol\":33566:33613  token.transfer(msg.sender, _nomineeLiquidShare) */\n      pop\n      pop\n      pop\n      pop\n      mload(0x40)\n      returndatasize\n        /* \"--CODEGEN--\":13:15   */\n      0x20\n        /* \"--CODEGEN--\":8:11   */\n      dup2\n        /* \"--CODEGEN--\":5:16   */\n      lt\n        /* \"--CODEGEN--\":2:4   */\n      iszero\n      tag_340\n      jumpi\n        /* \"--CODEGEN--\":29:30   */\n      0x00\n        /* \"--CODEGEN--\":26:27   */\n      dup1\n        /* \"--CODEGEN--\":19:31   */\n      revert\n        /* \"--CODEGEN--\":2:4   */\n    tag_340:\n        /* \"TimeAlly.sol\":33566:33613  token.transfer(msg.sender, _nomineeLiquidShare) */\n      dup2\n      add\n      swap1\n      dup1\n      dup1\n      mload\n      swap1\n      0x20\n      add\n      swap1\n      swap3\n      swap2\n      swap1\n      pop\n      pop\n      pop\n      pop\n        /* \"TimeAlly.sol\":33624:33652  uint256 _nomineeAccruedShare */\n      0x00\n        /* \"TimeAlly.sol\":33655:33853  _pendingAccruedAmountInStaking... */\n      tag_341\n        /* \"TimeAlly.sol\":33796:33804  stakings */\n      0x07\n        /* \"TimeAlly.sol\":33796:33818  stakings[_userAddress] */\n      0x00\n        /* \"TimeAlly.sol\":33805:33817  _userAddress */\n      dup12\n        /* \"TimeAlly.sol\":33796:33818  stakings[_userAddress] */\n      0xffffffffffffffffffffffffffffffffffffffff\n      and\n      0xffffffffffffffffffffffffffffffffffffffff\n      and\n      dup2\n      mstore\n      0x20\n      add\n      swap1\n      dup2\n      mstore\n      0x20\n      add\n      0x00\n      keccak256\n        /* \"TimeAlly.sol\":33819:33829  _stakingId */\n      dup10\n        /* \"TimeAlly.sol\":33796:33830  stakings[_userAddress][_stakingId] */\n      dup2\n      sload\n      dup2\n      lt\n      tag_342\n      jumpi\n      invalid\n    tag_342:\n      swap1\n      0x00\n      mstore\n      keccak256(0x00, 0x20)\n      swap1\n      0x09\n      mul\n      add\n        /* \"TimeAlly.sol\":33796:33852  stakings[_userAddress][_stakingId].totalNominationShares */\n      0x06\n      add\n      sload\n        /* \"TimeAlly.sol\":33655:33748  _pendingAccruedAmountInStaking... */\n      tag_344\n        /* \"TimeAlly.sol\":33733:33747  _nomineeShares */\n      dup9\n        /* \"TimeAlly.sol\":33655:33685  _pendingAccruedAmountInStaking */\n      dup8\n        /* \"TimeAlly.sol\":33655:33732  _pendingAccruedAmountInStaking... */\n      tag_179\n      swap1\n        /* \"TimeAlly.sol\":33655:33748  _pendingAccruedAmountInStaking... */\n      swap2\n      swap1\n      0xffffffff\n      and\n      jump\t// in\n    tag_344:\n        /* \"TimeAlly.sol\":33655:33795  _pendingAccruedAmountInStaking... */\n      tag_236\n      swap1\n        /* \"TimeAlly.sol\":33655:33853  _pendingAccruedAmountInStaking... */\n      swap2\n      swap1\n      0xffffffff\n      and\n      jump\t// in\n    tag_341:\n        /* \"TimeAlly.sol\":33624:33853  uint256 _nomineeAccruedShare = _pendingAccruedAmountInStaking... */\n      swap1\n      pop\n        /* \"TimeAlly.sol\":33890:33940  launchReward[msg.sender].add(_nomineeAccruedShare) */\n      tag_345\n        /* \"TimeAlly.sol\":33919:33939  _nomineeAccruedShare */\n      dup2\n        /* \"TimeAlly.sol\":33890:33902  launchReward */\n      0x09\n        /* \"TimeAlly.sol\":33890:33914  launchReward[msg.sender] */\n      0x00\n        /* \"TimeAlly.sol\":33903:33913  msg.sender */\n      caller\n        /* \"TimeAlly.sol\":33890:33914  launchReward[msg.sender] */\n      0xffffffffffffffffffffffffffffffffffffffff\n      and\n      0xffffffffffffffffffffffffffffffffffffffff\n      and\n      dup2\n      mstore\n      0x20\n      add\n      swap1\n      dup2\n      mstore\n      0x20\n      add\n      0x00\n      keccak256\n      sload\n        /* \"TimeAlly.sol\":33890:33918  launchReward[msg.sender].add */\n      tag_198\n      swap1\n        /* \"TimeAlly.sol\":33890:33940  launchReward[msg.sender].add(_nomineeAccruedShare) */\n      swap2\n      swap1\n      0xffffffff\n      and\n      jump\t// in\n    tag_345:\n        /* \"TimeAlly.sol\":33863:33875  launchReward */\n      0x09\n        /* \"TimeAlly.sol\":33863:33887  launchReward[msg.sender] */\n      0x00\n        /* \"TimeAlly.sol\":33876:33886  msg.sender */\n      caller\n        /* \"TimeAlly.sol\":33863:33887  launchReward[msg.sender] */\n      0xffffffffffffffffffffffffffffffffffffffff\n      and\n      0xffffffffffffffffffffffffffffffffffffffff\n      and\n      dup2\n      mstore\n      0x20\n      add\n      swap1\n      dup2\n      mstore\n      0x20\n      add\n      0x00\n      keccak256\n        /* \"TimeAlly.sol\":33863:33940  launchReward[msg.sender] = launchReward[msg.sender].add(_nomineeAccruedShare) */\n      dup2\n      swap1\n      sstore\n      pop\n        /* \"TimeAlly.sol\":34022:34032  msg.sender */\n      caller\n        /* \"TimeAlly.sol\":33980:34076  NomineeWithdraw(_userAddress, _stakingId, msg.sender, _nomineeLiquidShare, _nomineeAccruedShare) */\n      0xffffffffffffffffffffffffffffffffffffffff\n      and\n        /* \"TimeAlly.sol\":34010:34020  _stakingId */\n      dup9\n        /* \"TimeAlly.sol\":33996:34008  _userAddress */\n      dup11\n        /* \"TimeAlly.sol\":33980:34076  NomineeWithdraw(_userAddress, _stakingId, msg.sender, _nomineeLiquidShare, _nomineeAccruedShare) */\n      0xffffffffffffffffffffffffffffffffffffffff\n      and\n      0xa54cec59552c7f022eed79ede59f759697aa5787f43b11d61f17bfc5adaffb65\n        /* \"TimeAlly.sol\":34034:34053  _nomineeLiquidShare */\n      dup6\n        /* \"TimeAlly.sol\":34055:34075  _nomineeAccruedShare */\n      dup6\n        /* \"TimeAlly.sol\":33980:34076  NomineeWithdraw(_userAddress, _stakingId, msg.sender, _nomineeLiquidShare, _nomineeAccruedShare) */\n      mload(0x40)\n      dup1\n      dup4\n      dup2\n      mstore\n      0x20\n      add\n      dup3\n      dup2\n      mstore\n      0x20\n      add\n      swap3\n      pop\n      pop\n      pop\n      mload(0x40)\n      dup1\n      swap2\n      sub\n      swap1\n      log4\n        /* \"TimeAlly.sol\":30755:34083  function nomineeWithdraw(address _userAddress, uint256 _stakingId) public {... */\n      pop\n      pop\n      pop\n      pop\n      pop\n      pop\n      pop\n      pop\n      pop\n      jump\t// out\n        /* \"TimeAlly.sol\":2786:2825  mapping(address => Loan[]) public loans */\n    tag_105:\n      mstore(0x20, 0x08)\n      dup2\n      0x00\n      mstore\n      keccak256(0x00, 0x40)\n      dup2\n      dup2\n      sload\n      dup2\n      lt\n      tag_346\n      jumpi\n      invalid\n    tag_346:\n      swap1\n      0x00\n      mstore\n      keccak256(0x00, 0x20)\n      swap1\n      0x05\n      mul\n      add\n      0x00\n      swap2\n      pop\n      swap2\n      pop\n      pop\n      dup1\n      0x00\n      add\n      sload\n      swap1\n      dup1\n      0x01\n      add\n      sload\n      swap1\n      dup1\n      0x02\n      add\n      sload\n      swap1\n      dup1\n      0x03\n      add\n      sload\n      swap1\n      pop\n      dup5\n      jump\t// out\n        /* \"TimeAlly.sol\":15281:16996  function withdrawBenefitOfAStakingByMonths(... */\n    tag_111:\n        /* \"TimeAlly.sol\":15409:15436  uint256 _benefitOfAllMonths */\n      0x00\n        /* \"TimeAlly.sol\":15450:15459  uint256 i */\n      dup1\n        /* \"TimeAlly.sol\":15462:15463  0 */\n      0x00\n        /* \"TimeAlly.sol\":15450:15463  uint256 i = 0 */\n      swap1\n      pop\n        /* \"TimeAlly.sol\":15446:16286  for(uint256 i = 0; i < _months.length; i++) {... */\n    tag_349:\n        /* \"TimeAlly.sol\":15469:15476  _months */\n      dup3\n        /* \"TimeAlly.sol\":15469:15483  _months.length */\n      mload\n        /* \"TimeAlly.sol\":15465:15466  i */\n      dup2\n        /* \"TimeAlly.sol\":15465:15483  i < _months.length */\n      lt\n        /* \"TimeAlly.sol\":15446:16286  for(uint256 i = 0; i < _months.length; i++) {... */\n      iszero\n      tag_350\n      jumpi\n        /* \"TimeAlly.sol\":15746:15797  isStakingActive(msg.sender, _stakingId, _months[i]) */\n      tag_352\n        /* \"TimeAlly.sol\":15762:15772  msg.sender */\n      caller\n        /* \"TimeAlly.sol\":15774:15784  _stakingId */\n      dup6\n        /* \"TimeAlly.sol\":15786:15793  _months */\n      dup6\n        /* \"TimeAlly.sol\":15794:15795  i */\n      dup5\n        /* \"TimeAlly.sol\":15786:15796  _months[i] */\n      dup2\n      mload\n      dup2\n      lt\n      tag_353\n      jumpi\n      invalid\n    tag_353:\n      0x20\n      mul\n      0x20\n      add\n      add\n      mload\n        /* \"TimeAlly.sol\":15746:15761  isStakingActive */\n      tag_132\n        /* \"TimeAlly.sol\":15746:15797  isStakingActive(msg.sender, _stakingId, _months[i]) */\n      jump\t// in\n    tag_352:\n        /* \"TimeAlly.sol\":15746:15873  isStakingActive(msg.sender, _stakingId, _months[i])... */\n      dup1\n      iszero\n      tag_354\n      jumpi\n      pop\n        /* \"TimeAlly.sol\":15814:15822  stakings */\n      0x07\n        /* \"TimeAlly.sol\":15814:15834  stakings[msg.sender] */\n      0x00\n        /* \"TimeAlly.sol\":15823:15833  msg.sender */\n      caller\n        /* \"TimeAlly.sol\":15814:15834  stakings[msg.sender] */\n      0xffffffffffffffffffffffffffffffffffffffff\n      and\n      0xffffffffffffffffffffffffffffffffffffffff\n      and\n      dup2\n      mstore\n      0x20\n      add\n      swap1\n      dup2\n      mstore\n      0x20\n      add\n      0x00\n      keccak256\n        /* \"TimeAlly.sol\":15835:15845  _stakingId */\n      dup5\n        /* \"TimeAlly.sol\":15814:15846  stakings[msg.sender][_stakingId] */\n      dup2\n      sload\n      dup2\n      lt\n      tag_355\n      jumpi\n      invalid\n    tag_355:\n      swap1\n      0x00\n      mstore\n      keccak256(0x00, 0x20)\n      swap1\n      0x09\n      mul\n      add\n        /* \"TimeAlly.sol\":15814:15861  stakings[msg.sender][_stakingId].isMonthClaimed */\n      0x07\n      add\n        /* \"TimeAlly.sol\":15814:15873  stakings[msg.sender][_stakingId].isMonthClaimed[_months[i]] */\n      0x00\n        /* \"TimeAlly.sol\":15862:15869  _months */\n      dup5\n        /* \"TimeAlly.sol\":15870:15871  i */\n      dup4\n        /* \"TimeAlly.sol\":15862:15872  _months[i] */\n      dup2\n      mload\n      dup2\n      lt\n      tag_357\n      jumpi\n      invalid\n    tag_357:\n      0x20\n      mul\n      0x20\n      add\n      add\n      mload\n        /* \"TimeAlly.sol\":15814:15873  stakings[msg.sender][_stakingId].isMonthClaimed[_months[i]] */\n      dup2\n      mstore\n      0x20\n      add\n      swap1\n      dup2\n      mstore\n      0x20\n      add\n      0x00\n      keccak256\n      0x00\n      swap1\n      sload\n      swap1\n      0x0100\n      exp\n      swap1\n      div\n      0xff\n      and\n        /* \"TimeAlly.sol\":15813:15873  !stakings[msg.sender][_stakingId].isMonthClaimed[_months[i]] */\n      iszero\n        /* \"TimeAlly.sol\":15746:15873  isStakingActive(msg.sender, _stakingId, _months[i])... */\n    tag_354:\n        /* \"TimeAlly.sol\":15743:16276  if(isStakingActive(msg.sender, _stakingId, _months[i])... */\n      iszero\n      tag_358\n      jumpi\n        /* \"TimeAlly.sol\":15893:15909  uint256 _benefit */\n      0x00\n        /* \"TimeAlly.sol\":15912:16103  stakings[msg.sender][_stakingId].exaEsAmount... */\n      tag_359\n        /* \"TimeAlly.sol\":16069:16088  totalActiveStakings */\n      0x0a\n        /* \"TimeAlly.sol\":16069:16102  totalActiveStakings[ _months[i] ] */\n      0x00\n        /* \"TimeAlly.sol\":16090:16097  _months */\n      dup7\n        /* \"TimeAlly.sol\":16098:16099  i */\n      dup6\n        /* \"TimeAlly.sol\":16090:16100  _months[i] */\n      dup2\n      mload\n      dup2\n      lt\n      tag_360\n      jumpi\n      invalid\n    tag_360:\n      0x20\n      mul\n      0x20\n      add\n      add\n      mload\n        /* \"TimeAlly.sol\":16069:16102  totalActiveStakings[ _months[i] ] */\n      dup2\n      mstore\n      0x20\n      add\n      swap1\n      dup2\n      mstore\n      0x20\n      add\n      0x00\n      keccak256\n      sload\n        /* \"TimeAlly.sol\":15912:16029  stakings[msg.sender][_stakingId].exaEsAmount... */\n      tag_361\n        /* \"TimeAlly.sol\":15996:16014  timeAllyMonthlyNRT */\n      0x0b\n        /* \"TimeAlly.sol\":16016:16023  _months */\n      dup8\n        /* \"TimeAlly.sol\":16024:16025  i */\n      dup7\n        /* \"TimeAlly.sol\":16016:16026  _months[i] */\n      dup2\n      mload\n      dup2\n      lt\n      tag_362\n      jumpi\n      invalid\n    tag_362:\n      0x20\n      mul\n      0x20\n      add\n      add\n      mload\n        /* \"TimeAlly.sol\":15996:16028  timeAllyMonthlyNRT[ _months[i] ] */\n      dup2\n      sload\n      dup2\n      lt\n      tag_363\n      jumpi\n      invalid\n    tag_363:\n      swap1\n      0x00\n      mstore\n      keccak256(0x00, 0x20)\n      add\n      sload\n        /* \"TimeAlly.sol\":15912:15920  stakings */\n      0x07\n        /* \"TimeAlly.sol\":15912:15932  stakings[msg.sender] */\n      0x00\n        /* \"TimeAlly.sol\":15921:15931  msg.sender */\n      caller\n        /* \"TimeAlly.sol\":15912:15932  stakings[msg.sender] */\n      0xffffffffffffffffffffffffffffffffffffffff\n      and\n      0xffffffffffffffffffffffffffffffffffffffff\n      and\n      dup2\n      mstore\n      0x20\n      add\n      swap1\n      dup2\n      mstore\n      0x20\n      add\n      0x00\n      keccak256\n        /* \"TimeAlly.sol\":15933:15943  _stakingId */\n      dup10\n        /* \"TimeAlly.sol\":15912:15944  stakings[msg.sender][_stakingId] */\n      dup2\n      sload\n      dup2\n      lt\n      tag_365\n      jumpi\n      invalid\n    tag_365:\n      swap1\n      0x00\n      mstore\n      keccak256(0x00, 0x20)\n      swap1\n      0x09\n      mul\n      add\n        /* \"TimeAlly.sol\":15912:15956  stakings[msg.sender][_stakingId].exaEsAmount */\n      0x00\n      add\n      sload\n        /* \"TimeAlly.sol\":15912:15995  stakings[msg.sender][_stakingId].exaEsAmount... */\n      tag_179\n      swap1\n        /* \"TimeAlly.sol\":15912:16029  stakings[msg.sender][_stakingId].exaEsAmount... */\n      swap2\n      swap1\n      0xffffffff\n      and\n      jump\t// in\n    tag_361:\n        /* \"TimeAlly.sol\":15912:16068  stakings[msg.sender][_stakingId].exaEsAmount... */\n      tag_236\n      swap1\n        /* \"TimeAlly.sol\":15912:16103  stakings[msg.sender][_stakingId].exaEsAmount... */\n      swap2\n      swap1\n      0xffffffff\n      and\n      jump\t// in\n    tag_359:\n        /* \"TimeAlly.sol\":15893:16103  uint256 _benefit = stakings[msg.sender][_stakingId].exaEsAmount... */\n      swap1\n      pop\n        /* \"TimeAlly.sol\":16144:16177  _benefitOfAllMonths.add(_benefit) */\n      tag_367\n        /* \"TimeAlly.sol\":16168:16176  _benefit */\n      dup2\n        /* \"TimeAlly.sol\":16144:16163  _benefitOfAllMonths */\n      dup5\n        /* \"TimeAlly.sol\":16144:16167  _benefitOfAllMonths.add */\n      tag_198\n      swap1\n        /* \"TimeAlly.sol\":16144:16177  _benefitOfAllMonths.add(_benefit) */\n      swap2\n      swap1\n      0xffffffff\n      and\n      jump\t// in\n    tag_367:\n        /* \"TimeAlly.sol\":16122:16177  _benefitOfAllMonths = _benefitOfAllMonths.add(_benefit) */\n      swap3\n      pop\n        /* \"TimeAlly.sol\":16257:16261  true */\n      0x01\n        /* \"TimeAlly.sol\":16195:16203  stakings */\n      0x07\n        /* \"TimeAlly.sol\":16195:16215  stakings[msg.sender] */\n      0x00\n        /* \"TimeAlly.sol\":16204:16214  msg.sender */\n      caller\n        /* \"TimeAlly.sol\":16195:16215  stakings[msg.sender] */\n      0xffffffffffffffffffffffffffffffffffffffff\n      and\n      0xffffffffffffffffffffffffffffffffffffffff\n      and\n      dup2\n      mstore\n      0x20\n      add\n      swap1\n      dup2\n      mstore\n      0x20\n      add\n      0x00\n      keccak256\n        /* \"TimeAlly.sol\":16216:16226  _stakingId */\n      dup7\n        /* \"TimeAlly.sol\":16195:16227  stakings[msg.sender][_stakingId] */\n      dup2\n      sload\n      dup2\n      lt\n      tag_368\n      jumpi\n      invalid\n    tag_368:\n      swap1\n      0x00\n      mstore\n      keccak256(0x00, 0x20)\n      swap1\n      0x09\n      mul\n      add\n        /* \"TimeAlly.sol\":16195:16242  stakings[msg.sender][_stakingId].isMonthClaimed */\n      0x07\n      add\n        /* \"TimeAlly.sol\":16195:16254  stakings[msg.sender][_stakingId].isMonthClaimed[_months[i]] */\n      0x00\n        /* \"TimeAlly.sol\":16243:16250  _months */\n      dup7\n        /* \"TimeAlly.sol\":16251:16252  i */\n      dup6\n        /* \"TimeAlly.sol\":16243:16253  _months[i] */\n      dup2\n      mload\n      dup2\n      lt\n      tag_370\n      jumpi\n      invalid\n    tag_370:\n      0x20\n      mul\n      0x20\n      add\n      add\n      mload\n        /* \"TimeAlly.sol\":16195:16254  stakings[msg.sender][_stakingId].isMonthClaimed[_months[i]] */\n      dup2\n      mstore\n      0x20\n      add\n      swap1\n      dup2\n      mstore\n      0x20\n      add\n      0x00\n      keccak256\n      0x00\n        /* \"TimeAlly.sol\":16195:16261  stakings[msg.sender][_stakingId].isMonthClaimed[_months[i]] = true */\n      0x0100\n      exp\n      dup2\n      sload\n      dup2\n      0xff\n      mul\n      not\n      and\n      swap1\n      dup4\n      iszero\n      iszero\n      mul\n      or\n      swap1\n      sstore\n      pop\n        /* \"TimeAlly.sol\":15743:16276  if(isStakingActive(msg.sender, _stakingId, _months[i])... */\n      pop\n    tag_358:\n        /* \"TimeAlly.sol\":15485:15488  i++ */\n      dup1\n      dup1\n      0x01\n      add\n      swap2\n      pop\n      pop\n        /* \"TimeAlly.sol\":15446:16286  for(uint256 i = 0; i < _months.length; i++) {... */\n      jump(tag_349)\n    tag_350:\n      pop\n        /* \"TimeAlly.sol\":16296:16313  uint256 _luckPool */\n      0x00\n        /* \"TimeAlly.sol\":16316:16495  _benefitOfAllMonths... */\n      tag_371\n        /* \"TimeAlly.sol\":16491:16493  15 */\n      0x0f\n        /* \"TimeAlly.sol\":16316:16460  _benefitOfAllMonths... */\n      tag_372\n        /* \"TimeAlly.sol\":16366:16458  uint256(15).sub(stakingPlans[stakings[msg.sender][_stakingId].stakingPlanId].fractionFrom15) */\n      tag_373\n        /* \"TimeAlly.sol\":16382:16394  stakingPlans */\n      0x05\n        /* \"TimeAlly.sol\":16395:16403  stakings */\n      0x07\n        /* \"TimeAlly.sol\":16395:16415  stakings[msg.sender] */\n      0x00\n        /* \"TimeAlly.sol\":16404:16414  msg.sender */\n      caller\n        /* \"TimeAlly.sol\":16395:16415  stakings[msg.sender] */\n      0xffffffffffffffffffffffffffffffffffffffff\n      and\n      0xffffffffffffffffffffffffffffffffffffffff\n      and\n      dup2\n      mstore\n      0x20\n      add\n      swap1\n      dup2\n      mstore\n      0x20\n      add\n      0x00\n      keccak256\n        /* \"TimeAlly.sol\":16416:16426  _stakingId */\n      dup10\n        /* \"TimeAlly.sol\":16395:16427  stakings[msg.sender][_stakingId] */\n      dup2\n      sload\n      dup2\n      lt\n      tag_374\n      jumpi\n      invalid\n    tag_374:\n      swap1\n      0x00\n      mstore\n      keccak256(0x00, 0x20)\n      swap1\n      0x09\n      mul\n      add\n        /* \"TimeAlly.sol\":16395:16441  stakings[msg.sender][_stakingId].stakingPlanId */\n      0x03\n      add\n      sload\n        /* \"TimeAlly.sol\":16382:16442  stakingPlans[stakings[msg.sender][_stakingId].stakingPlanId] */\n      dup2\n      sload\n      dup2\n      lt\n      tag_376\n      jumpi\n      invalid\n    tag_376:\n      swap1\n      0x00\n      mstore\n      keccak256(0x00, 0x20)\n      swap1\n      0x03\n      mul\n      add\n        /* \"TimeAlly.sol\":16382:16457  stakingPlans[stakings[msg.sender][_stakingId].stakingPlanId].fractionFrom15 */\n      0x01\n      add\n      sload\n        /* \"TimeAlly.sol\":16374:16376  15 */\n      0x0f\n        /* \"TimeAlly.sol\":16366:16381  uint256(15).sub */\n      tag_204\n      swap1\n        /* \"TimeAlly.sol\":16366:16458  uint256(15).sub(stakingPlans[stakings[msg.sender][_stakingId].stakingPlanId].fractionFrom15) */\n      swap2\n      swap1\n      0xffffffff\n      and\n      jump\t// in\n    tag_373:\n        /* \"TimeAlly.sol\":16316:16335  _benefitOfAllMonths */\n      dup6\n        /* \"TimeAlly.sol\":16316:16364  _benefitOfAllMonths... */\n      tag_179\n      swap1\n        /* \"TimeAlly.sol\":16316:16460  _benefitOfAllMonths... */\n      swap2\n      swap1\n      0xffffffff\n      and\n      jump\t// in\n    tag_372:\n        /* \"TimeAlly.sol\":16316:16489  _benefitOfAllMonths... */\n      tag_236\n      swap1\n        /* \"TimeAlly.sol\":16316:16495  _benefitOfAllMonths... */\n      swap2\n      swap1\n      0xffffffff\n      and\n      jump\t// in\n    tag_371:\n        /* \"TimeAlly.sol\":16296:16495  uint256 _luckPool = _benefitOfAllMonths... */\n      swap1\n      pop\n        /* \"TimeAlly.sol\":16515:16520  token */\n      0x02\n      0x00\n      swap1\n      sload\n      swap1\n      0x0100\n      exp\n      swap1\n      div\n      0xffffffffffffffffffffffffffffffffffffffff\n      and\n        /* \"TimeAlly.sol\":16515:16529  token.transfer */\n      0xffffffffffffffffffffffffffffffffffffffff\n      and\n      0xa9059cbb\n        /* \"TimeAlly.sol\":16538:16548  nrtManager */\n      0x03\n      0x00\n      swap1\n      sload\n      swap1\n      0x0100\n      exp\n      swap1\n      div\n      0xffffffffffffffffffffffffffffffffffffffff\n      and\n        /* \"TimeAlly.sol\":16551:16560  _luckPool */\n      dup4\n        /* \"TimeAlly.sol\":16515:16561  token.transfer(address(nrtManager), _luckPool) */\n      mload(0x40)\n      dup4\n      0xffffffff\n      and\n      0xe0\n      shl\n      dup2\n      mstore\n      0x04\n      add\n      dup1\n      dup4\n      0xffffffffffffffffffffffffffffffffffffffff\n      and\n      0xffffffffffffffffffffffffffffffffffffffff\n      and\n      dup2\n      mstore\n      0x20\n      add\n      dup3\n      dup2\n      mstore\n      0x20\n      add\n      swap3\n      pop\n      pop\n      pop\n      0x20\n      mload(0x40)\n      dup1\n      dup4\n      sub\n      dup2\n      0x00\n      dup8\n      dup1\n      extcodesize\n      iszero\n        /* \"--CODEGEN--\":8:17   */\n      dup1\n        /* \"--CODEGEN--\":5:7   */\n      iszero\n      tag_378\n      jumpi\n        /* \"--CODEGEN--\":30:31   */\n      0x00\n        /* \"--CODEGEN--\":27:28   */\n      dup1\n        /* \"--CODEGEN--\":20:32   */\n      revert\n        /* \"--CODEGEN--\":5:7   */\n    tag_378:\n        /* \"TimeAlly.sol\":16515:16561  token.transfer(address(nrtManager), _luckPool) */\n      pop\n      gas\n      call\n      iszero\n        /* \"--CODEGEN--\":8:17   */\n      dup1\n        /* \"--CODEGEN--\":5:7   */\n      iszero\n      tag_379\n      jumpi\n        /* \"--CODEGEN--\":45:61   */\n      returndatasize\n        /* \"--CODEGEN--\":42:43   */\n      0x00\n        /* \"--CODEGEN--\":39:40   */\n      dup1\n        /* \"--CODEGEN--\":24:62   */\n      returndatacopy\n        /* \"--CODEGEN--\":77:93   */\n      returndatasize\n        /* \"--CODEGEN--\":74:75   */\n      0x00\n        /* \"--CODEGEN--\":67:94   */\n      revert\n        /* \"--CODEGEN--\":5:7   */\n    tag_379:\n        /* \"TimeAlly.sol\":16515:16561  token.transfer(address(nrtManager), _luckPool) */\n      pop\n      pop\n      pop\n      pop\n      mload(0x40)\n      returndatasize\n        /* \"--CODEGEN--\":13:15   */\n      0x20\n        /* \"--CODEGEN--\":8:11   */\n      dup2\n        /* \"--CODEGEN--\":5:16   */\n      lt\n        /* \"--CODEGEN--\":2:4   */\n      iszero\n      tag_380\n      jumpi\n        /* \"--CODEGEN--\":29:30   */\n      0x00\n        /* \"--CODEGEN--\":26:27   */\n      dup1\n        /* \"--CODEGEN--\":19:31   */\n      revert\n        /* \"--CODEGEN--\":2:4   */\n    tag_380:\n        /* \"TimeAlly.sol\":16515:16561  token.transfer(address(nrtManager), _luckPool) */\n      dup2\n      add\n      swap1\n      dup1\n      dup1\n      mload\n      swap1\n      0x20\n      add\n      swap1\n      swap3\n      swap2\n      swap1\n      pop\n      pop\n      pop\n        /* \"TimeAlly.sol\":16506:16563  require( token.transfer(address(nrtManager), _luckPool) ) */\n      tag_381\n      jumpi\n      0x00\n      dup1\n      revert\n    tag_381:\n        /* \"TimeAlly.sol\":16582:16592  nrtManager */\n      0x03\n      0x00\n      swap1\n      sload\n      swap1\n      0x0100\n      exp\n      swap1\n      div\n      0xffffffffffffffffffffffffffffffffffffffff\n      and\n        /* \"TimeAlly.sol\":16582:16607  nrtManager.UpdateLuckpool */\n      0xffffffffffffffffffffffffffffffffffffffff\n      and\n      0x382e2aab\n        /* \"TimeAlly.sol\":16608:16617  _luckPool */\n      dup3\n        /* \"TimeAlly.sol\":16582:16618  nrtManager.UpdateLuckpool(_luckPool) */\n      mload(0x40)\n      dup3\n      0xffffffff\n      and\n      0xe0\n      shl\n      dup2\n      mstore\n      0x04\n      add\n      dup1\n      dup3\n      dup2\n      mstore\n      0x20\n      add\n      swap2\n      pop\n      pop\n      0x20\n      mload(0x40)\n      dup1\n      dup4\n      sub\n      dup2\n      0x00\n      dup8\n      dup1\n      extcodesize\n      iszero\n        /* \"--CODEGEN--\":8:17   */\n      dup1\n        /* \"--CODEGEN--\":5:7   */\n      iszero\n      tag_382\n      jumpi\n        /* \"--CODEGEN--\":30:31   */\n      0x00\n        /* \"--CODEGEN--\":27:28   */\n      dup1\n        /* \"--CODEGEN--\":20:32   */\n      revert\n        /* \"--CODEGEN--\":5:7   */\n    tag_382:\n        /* \"TimeAlly.sol\":16582:16618  nrtManager.UpdateLuckpool(_luckPool) */\n      pop\n      gas\n      call\n      iszero\n        /* \"--CODEGEN--\":8:17   */\n      dup1\n        /* \"--CODEGEN--\":5:7   */\n      iszero\n      tag_383\n      jumpi\n        /* \"--CODEGEN--\":45:61   */\n      returndatasize\n        /* \"--CODEGEN--\":42:43   */\n      0x00\n        /* \"--CODEGEN--\":39:40   */\n      dup1\n        /* \"--CODEGEN--\":24:62   */\n      returndatacopy\n        /* \"--CODEGEN--\":77:93   */\n      returndatasize\n        /* \"--CODEGEN--\":74:75   */\n      0x00\n        /* \"--CODEGEN--\":67:94   */\n      revert\n        /* \"--CODEGEN--\":5:7   */\n    tag_383:\n        /* \"TimeAlly.sol\":16582:16618  nrtManager.UpdateLuckpool(_luckPool) */\n      pop\n      pop\n      pop\n      pop\n      mload(0x40)\n      returndatasize\n        /* \"--CODEGEN--\":13:15   */\n      0x20\n        /* \"--CODEGEN--\":8:11   */\n      dup2\n        /* \"--CODEGEN--\":5:16   */\n      lt\n        /* \"--CODEGEN--\":2:4   */\n      iszero\n      tag_384\n      jumpi\n        /* \"--CODEGEN--\":29:30   */\n      0x00\n        /* \"--CODEGEN--\":26:27   */\n      dup1\n        /* \"--CODEGEN--\":19:31   */\n      revert\n        /* \"--CODEGEN--\":2:4   */\n    tag_384:\n        /* \"TimeAlly.sol\":16582:16618  nrtManager.UpdateLuckpool(_luckPool) */\n      dup2\n      add\n      swap1\n      dup1\n      dup1\n      mload\n      swap1\n      0x20\n      add\n      swap1\n      swap3\n      swap2\n      swap1\n      pop\n      pop\n      pop\n        /* \"TimeAlly.sol\":16573:16620  require( nrtManager.UpdateLuckpool(_luckPool) ) */\n      tag_385\n      jumpi\n      0x00\n      dup1\n      revert\n    tag_385:\n        /* \"TimeAlly.sol\":16653:16687  _benefitOfAllMonths.sub(_luckPool) */\n      tag_386\n        /* \"TimeAlly.sol\":16677:16686  _luckPool */\n      dup2\n        /* \"TimeAlly.sol\":16653:16672  _benefitOfAllMonths */\n      dup4\n        /* \"TimeAlly.sol\":16653:16676  _benefitOfAllMonths.sub */\n      tag_204\n      swap1\n        /* \"TimeAlly.sol\":16653:16687  _benefitOfAllMonths.sub(_luckPool) */\n      swap2\n      swap1\n      0xffffffff\n      and\n      jump\t// in\n    tag_386:\n        /* \"TimeAlly.sol\":16631:16687  _benefitOfAllMonths = _benefitOfAllMonths.sub(_luckPool) */\n      swap2\n      pop\n        /* \"TimeAlly.sol\":16698:16718  uint256 _halfBenefit */\n      0x00\n        /* \"TimeAlly.sol\":16721:16747  _benefitOfAllMonths.div(2) */\n      tag_387\n        /* \"TimeAlly.sol\":16745:16746  2 */\n      0x02\n        /* \"TimeAlly.sol\":16721:16740  _benefitOfAllMonths */\n      dup5\n        /* \"TimeAlly.sol\":16721:16744  _benefitOfAllMonths.div */\n      tag_236\n      swap1\n        /* \"TimeAlly.sol\":16721:16747  _benefitOfAllMonths.div(2) */\n      swap2\n      swap1\n      0xffffffff\n      and\n      jump\t// in\n    tag_387:\n        /* \"TimeAlly.sol\":16698:16747  uint256 _halfBenefit = _benefitOfAllMonths.div(2) */\n      swap1\n      pop\n        /* \"TimeAlly.sol\":16766:16771  token */\n      0x02\n      0x00\n      swap1\n      sload\n      swap1\n      0x0100\n      exp\n      swap1\n      div\n      0xffffffffffffffffffffffffffffffffffffffff\n      and\n        /* \"TimeAlly.sol\":16766:16780  token.transfer */\n      0xffffffffffffffffffffffffffffffffffffffff\n      and\n      0xa9059cbb\n        /* \"TimeAlly.sol\":16781:16791  msg.sender */\n      caller\n        /* \"TimeAlly.sol\":16793:16805  _halfBenefit */\n      dup4\n        /* \"TimeAlly.sol\":16766:16806  token.transfer(msg.sender, _halfBenefit) */\n      mload(0x40)\n      dup4\n      0xffffffff\n      and\n      0xe0\n      shl\n      dup2\n      mstore\n      0x04\n      add\n      dup1\n      dup4\n      0xffffffffffffffffffffffffffffffffffffffff\n      and\n      0xffffffffffffffffffffffffffffffffffffffff\n      and\n      dup2\n      mstore\n      0x20\n      add\n      dup3\n      dup2\n      mstore\n      0x20\n      add\n      swap3\n      pop\n      pop\n      pop\n      0x20\n      mload(0x40)\n      dup1\n      dup4\n      sub\n      dup2\n      0x00\n      dup8\n      dup1\n      extcodesize\n      iszero\n        /* \"--CODEGEN--\":8:17   */\n      dup1\n        /* \"--CODEGEN--\":5:7   */\n      iszero\n      tag_388\n      jumpi\n        /* \"--CODEGEN--\":30:31   */\n      0x00\n        /* \"--CODEGEN--\":27:28   */\n      dup1\n        /* \"--CODEGEN--\":20:32   */\n      revert\n        /* \"--CODEGEN--\":5:7   */\n    tag_388:\n        /* \"TimeAlly.sol\":16766:16806  token.transfer(msg.sender, _halfBenefit) */\n      pop\n      gas\n      call\n      iszero\n        /* \"--CODEGEN--\":8:17   */\n      dup1\n        /* \"--CODEGEN--\":5:7   */\n      iszero\n      tag_389\n      jumpi\n        /* \"--CODEGEN--\":45:61   */\n      returndatasize\n        /* \"--CODEGEN--\":42:43   */\n      0x00\n        /* \"--CODEGEN--\":39:40   */\n      dup1\n        /* \"--CODEGEN--\":24:62   */\n      returndatacopy\n        /* \"--CODEGEN--\":77:93   */\n      returndatasize\n        /* \"--CODEGEN--\":74:75   */\n      0x00\n        /* \"--CODEGEN--\":67:94   */\n      revert\n        /* \"--CODEGEN--\":5:7   */\n    tag_389:\n        /* \"TimeAlly.sol\":16766:16806  token.transfer(msg.sender, _halfBenefit) */\n      pop\n      pop\n      pop\n      pop\n      mload(0x40)\n      returndatasize\n        /* \"--CODEGEN--\":13:15   */\n      0x20\n        /* \"--CODEGEN--\":8:11   */\n      dup2\n        /* \"--CODEGEN--\":5:16   */\n      lt\n        /* \"--CODEGEN--\":2:4   */\n      iszero\n      tag_390\n      jumpi\n        /* \"--CODEGEN--\":29:30   */\n      0x00\n        /* \"--CODEGEN--\":26:27   */\n      dup1\n        /* \"--CODEGEN--\":19:31   */\n      revert\n        /* \"--CODEGEN--\":2:4   */\n    tag_390:\n        /* \"TimeAlly.sol\":16766:16806  token.transfer(msg.sender, _halfBenefit) */\n      dup2\n      add\n      swap1\n      dup1\n      dup1\n      mload\n      swap1\n      0x20\n      add\n      swap1\n      swap3\n      swap2\n      swap1\n      pop\n      pop\n      pop\n        /* \"TimeAlly.sol\":16757:16808  require( token.transfer(msg.sender, _halfBenefit) ) */\n      tag_391\n      jumpi\n      0x00\n      dup1\n      revert\n    tag_391:\n        /* \"TimeAlly.sol\":16846:16888  launchReward[msg.sender].add(_halfBenefit) */\n      tag_392\n        /* \"TimeAlly.sol\":16875:16887  _halfBenefit */\n      dup2\n        /* \"TimeAlly.sol\":16846:16858  launchReward */\n      0x09\n        /* \"TimeAlly.sol\":16846:16870  launchReward[msg.sender] */\n      0x00\n        /* \"TimeAlly.sol\":16859:16869  msg.sender */\n      caller\n        /* \"TimeAlly.sol\":16846:16870  launchReward[msg.sender] */\n      0xffffffffffffffffffffffffffffffffffffffff\n      and\n      0xffffffffffffffffffffffffffffffffffffffff\n      and\n      dup2\n      mstore\n      0x20\n      add\n      swap1\n      dup2\n      mstore\n      0x20\n      add\n      0x00\n      keccak256\n      sload\n        /* \"TimeAlly.sol\":16846:16874  launchReward[msg.sender].add */\n      tag_198\n      swap1\n        /* \"TimeAlly.sol\":16846:16888  launchReward[msg.sender].add(_halfBenefit) */\n      swap2\n      swap1\n      0xffffffff\n      and\n      jump\t// in\n    tag_392:\n        /* \"TimeAlly.sol\":16819:16831  launchReward */\n      0x09\n        /* \"TimeAlly.sol\":16819:16843  launchReward[msg.sender] */\n      0x00\n        /* \"TimeAlly.sol\":16832:16842  msg.sender */\n      caller\n        /* \"TimeAlly.sol\":16819:16843  launchReward[msg.sender] */\n      0xffffffffffffffffffffffffffffffffffffffff\n      and\n      0xffffffffffffffffffffffffffffffffffffffff\n      and\n      dup2\n      mstore\n      0x20\n      add\n      swap1\n      dup2\n      mstore\n      0x20\n      add\n      0x00\n      keccak256\n        /* \"TimeAlly.sol\":16819:16888  launchReward[msg.sender] = launchReward[msg.sender].add(_halfBenefit) */\n      dup2\n      swap1\n      sstore\n      pop\n        /* \"TimeAlly.sol\":16943:16953  msg.sender */\n      caller\n        /* \"TimeAlly.sol\":16926:16989  BenefitWithdrawl(msg.sender, _stakingId, _months, _halfBenefit) */\n      0xffffffffffffffffffffffffffffffffffffffff\n      and\n      0xecd133e3f2aac41ac2b504cb693ec285651c4563abdf7efea7314a56831730ac\n        /* \"TimeAlly.sol\":16955:16965  _stakingId */\n      dup7\n        /* \"TimeAlly.sol\":16967:16974  _months */\n      dup7\n        /* \"TimeAlly.sol\":16976:16988  _halfBenefit */\n      dup5\n        /* \"TimeAlly.sol\":16926:16989  BenefitWithdrawl(msg.sender, _stakingId, _months, _halfBenefit) */\n      mload(0x40)\n      dup1\n      dup5\n      dup2\n      mstore\n      0x20\n      add\n      dup1\n      0x20\n      add\n      dup4\n      dup2\n      mstore\n      0x20\n      add\n      dup3\n      dup2\n      sub\n      dup3\n      mstore\n      dup5\n      dup2\n      dup2\n      mload\n      dup2\n      mstore\n      0x20\n      add\n      swap2\n      pop\n      dup1\n      mload\n      swap1\n      0x20\n      add\n      swap1\n      0x20\n      mul\n      dup1\n      dup4\n      dup4\n        /* \"--CODEGEN--\":23:24   */\n      0x00\n        /* \"--CODEGEN--\":8:108   */\n    tag_393:\n        /* \"--CODEGEN--\":33:36   */\n      dup4\n        /* \"--CODEGEN--\":30:31   */\n      dup2\n        /* \"--CODEGEN--\":27:37   */\n      lt\n        /* \"--CODEGEN--\":8:108   */\n      iszero\n      tag_395\n      jumpi\n        /* \"--CODEGEN--\":99:100   */\n      dup1\n        /* \"--CODEGEN--\":94:97   */\n      dup3\n        /* \"--CODEGEN--\":90:101   */\n      add\n        /* \"--CODEGEN--\":84:102   */\n      mload\n        /* \"--CODEGEN--\":80:81   */\n      dup2\n        /* \"--CODEGEN--\":75:78   */\n      dup5\n        /* \"--CODEGEN--\":71:82   */\n      add\n        /* \"--CODEGEN--\":64:103   */\n      mstore\n        /* \"--CODEGEN--\":52:54   */\n      0x20\n        /* \"--CODEGEN--\":49:50   */\n      dup2\n        /* \"--CODEGEN--\":45:55   */\n      add\n        /* \"--CODEGEN--\":40:55   */\n      swap1\n      pop\n        /* \"--CODEGEN--\":8:108   */\n      jump(tag_393)\n    tag_395:\n        /* \"--CODEGEN--\":12:26   */\n      pop\n        /* \"TimeAlly.sol\":16926:16989  BenefitWithdrawl(msg.sender, _stakingId, _months, _halfBenefit) */\n      pop\n      pop\n      pop\n      swap1\n      pop\n      add\n      swap5\n      pop\n      pop\n      pop\n      pop\n      pop\n      mload(0x40)\n      dup1\n      swap2\n      sub\n      swap1\n      log2\n        /* \"TimeAlly.sol\":15281:16996  function withdrawBenefitOfAStakingByMonths(... */\n      pop\n      pop\n      pop\n      pop\n      pop\n      jump\t// out\n        /* \"TimeAlly.sol\":27396:28023  function addNominee(uint256 _stakingId, address _nomineeAddress, uint256 _shares) public {... */\n    tag_114:\n        /* \"TimeAlly.sol\":27546:27547  1 */\n      0x01\n        /* \"TimeAlly.sol\":27503:27511  stakings */\n      0x07\n        /* \"TimeAlly.sol\":27503:27523  stakings[msg.sender] */\n      0x00\n        /* \"TimeAlly.sol\":27512:27522  msg.sender */\n      caller\n        /* \"TimeAlly.sol\":27503:27523  stakings[msg.sender] */\n      0xffffffffffffffffffffffffffffffffffffffff\n      and\n      0xffffffffffffffffffffffffffffffffffffffff\n      and\n      dup2\n      mstore\n      0x20\n      add\n      swap1\n      dup2\n      mstore\n      0x20\n      add\n      0x00\n      keccak256\n        /* \"TimeAlly.sol\":27524:27534  _stakingId */\n      dup5\n        /* \"TimeAlly.sol\":27503:27535  stakings[msg.sender][_stakingId] */\n      dup2\n      sload\n      dup2\n      lt\n      tag_397\n      jumpi\n      invalid\n    tag_397:\n      swap1\n      0x00\n      mstore\n      keccak256(0x00, 0x20)\n      swap1\n      0x09\n      mul\n      add\n        /* \"TimeAlly.sol\":27503:27542  stakings[msg.sender][_stakingId].status */\n      0x04\n      add\n      sload\n        /* \"TimeAlly.sol\":27503:27547  stakings[msg.sender][_stakingId].status == 1 */\n      eq\n        /* \"TimeAlly.sol\":27495:27596  require(stakings[msg.sender][_stakingId].status == 1... */\n      tag_399\n      jumpi\n      0x00\n      dup1\n      revert\n    tag_399:\n        /* \"TimeAlly.sol\":27678:27679  0 */\n      0x00\n        /* \"TimeAlly.sol\":27614:27622  stakings */\n      0x07\n        /* \"TimeAlly.sol\":27614:27634  stakings[msg.sender] */\n      0x00\n        /* \"TimeAlly.sol\":27623:27633  msg.sender */\n      caller\n        /* \"TimeAlly.sol\":27614:27634  stakings[msg.sender] */\n      0xffffffffffffffffffffffffffffffffffffffff\n      and\n      0xffffffffffffffffffffffffffffffffffffffff\n      and\n      dup2\n      mstore\n      0x20\n      add\n      swap1\n      dup2\n      mstore\n      0x20\n      add\n      0x00\n      keccak256\n        /* \"TimeAlly.sol\":27635:27645  _stakingId */\n      dup5\n        /* \"TimeAlly.sol\":27614:27646  stakings[msg.sender][_stakingId] */\n      dup2\n      sload\n      dup2\n      lt\n      tag_400\n      jumpi\n      invalid\n    tag_400:\n      swap1\n      0x00\n      mstore\n      keccak256(0x00, 0x20)\n      swap1\n      0x09\n      mul\n      add\n        /* \"TimeAlly.sol\":27614:27657  stakings[msg.sender][_stakingId].nomination */\n      0x08\n      add\n        /* \"TimeAlly.sol\":27614:27674  stakings[msg.sender][_stakingId].nomination[_nomineeAddress] */\n      0x00\n        /* \"TimeAlly.sol\":27658:27673  _nomineeAddress */\n      dup5\n        /* \"TimeAlly.sol\":27614:27674  stakings[msg.sender][_stakingId].nomination[_nomineeAddress] */\n      0xffffffffffffffffffffffffffffffffffffffff\n      and\n      0xffffffffffffffffffffffffffffffffffffffff\n      and\n      dup2\n      mstore\n      0x20\n      add\n      swap1\n      dup2\n      mstore\n      0x20\n      add\n      0x00\n      keccak256\n      sload\n        /* \"TimeAlly.sol\":27614:27679  stakings[msg.sender][_stakingId].nomination[_nomineeAddress] == 0 */\n      eq\n        /* \"TimeAlly.sol\":27606:27736  require(stakings[msg.sender][_stakingId].nomination[_nomineeAddress] == 0... */\n      tag_402\n      jumpi\n      0x00\n      dup1\n      revert\n    tag_402:\n        /* \"TimeAlly.sol\":27803:27870  stakings[msg.sender][_stakingId].totalNominationShares.add(_shares) */\n      tag_403\n        /* \"TimeAlly.sol\":27862:27869  _shares */\n      dup2\n        /* \"TimeAlly.sol\":27803:27811  stakings */\n      0x07\n        /* \"TimeAlly.sol\":27803:27823  stakings[msg.sender] */\n      0x00\n        /* \"TimeAlly.sol\":27812:27822  msg.sender */\n      caller\n        /* \"TimeAlly.sol\":27803:27823  stakings[msg.sender] */\n      0xffffffffffffffffffffffffffffffffffffffff\n      and\n      0xffffffffffffffffffffffffffffffffffffffff\n      and\n      dup2\n      mstore\n      0x20\n      add\n      swap1\n      dup2\n      mstore\n      0x20\n      add\n      0x00\n      keccak256\n        /* \"TimeAlly.sol\":27824:27834  _stakingId */\n      dup6\n        /* \"TimeAlly.sol\":27803:27835  stakings[msg.sender][_stakingId] */\n      dup2\n      sload\n      dup2\n      lt\n      tag_404\n      jumpi\n      invalid\n    tag_404:\n      swap1\n      0x00\n      mstore\n      keccak256(0x00, 0x20)\n      swap1\n      0x09\n      mul\n      add\n        /* \"TimeAlly.sol\":27803:27857  stakings[msg.sender][_stakingId].totalNominationShares */\n      0x06\n      add\n      sload\n        /* \"TimeAlly.sol\":27803:27861  stakings[msg.sender][_stakingId].totalNominationShares.add */\n      tag_198\n      swap1\n        /* \"TimeAlly.sol\":27803:27870  stakings[msg.sender][_stakingId].totalNominationShares.add(_shares) */\n      swap2\n      swap1\n      0xffffffff\n      and\n      jump\t// in\n    tag_403:\n        /* \"TimeAlly.sol\":27746:27754  stakings */\n      0x07\n        /* \"TimeAlly.sol\":27746:27766  stakings[msg.sender] */\n      0x00\n        /* \"TimeAlly.sol\":27755:27765  msg.sender */\n      caller\n        /* \"TimeAlly.sol\":27746:27766  stakings[msg.sender] */\n      0xffffffffffffffffffffffffffffffffffffffff\n      and\n      0xffffffffffffffffffffffffffffffffffffffff\n      and\n      dup2\n      mstore\n      0x20\n      add\n      swap1\n      dup2\n      mstore\n      0x20\n      add\n      0x00\n      keccak256\n        /* \"TimeAlly.sol\":27767:27777  _stakingId */\n      dup5\n        /* \"TimeAlly.sol\":27746:27778  stakings[msg.sender][_stakingId] */\n      dup2\n      sload\n      dup2\n      lt\n      tag_406\n      jumpi\n      invalid\n    tag_406:\n      swap1\n      0x00\n      mstore\n      keccak256(0x00, 0x20)\n      swap1\n      0x09\n      mul\n      add\n        /* \"TimeAlly.sol\":27746:27800  stakings[msg.sender][_stakingId].totalNominationShares */\n      0x06\n      add\n        /* \"TimeAlly.sol\":27746:27870  stakings[msg.sender][_stakingId].totalNominationShares = stakings[msg.sender][_stakingId].totalNominationShares.add(_shares) */\n      dup2\n      swap1\n      sstore\n      pop\n        /* \"TimeAlly.sol\":27943:27950  _shares */\n      dup1\n        /* \"TimeAlly.sol\":27880:27888  stakings */\n      0x07\n        /* \"TimeAlly.sol\":27880:27900  stakings[msg.sender] */\n      0x00\n        /* \"TimeAlly.sol\":27889:27899  msg.sender */\n      caller\n        /* \"TimeAlly.sol\":27880:27900  stakings[msg.sender] */\n      0xffffffffffffffffffffffffffffffffffffffff\n      and\n      0xffffffffffffffffffffffffffffffffffffffff\n      and\n      dup2\n      mstore\n      0x20\n      add\n      swap1\n      dup2\n      mstore\n      0x20\n      add\n      0x00\n      keccak256\n        /* \"TimeAlly.sol\":27901:27911  _stakingId */\n      dup5\n        /* \"TimeAlly.sol\":27880:27912  stakings[msg.sender][_stakingId] */\n      dup2\n      sload\n      dup2\n      lt\n      tag_408\n      jumpi\n      invalid\n    tag_408:\n      swap1\n      0x00\n      mstore\n      keccak256(0x00, 0x20)\n      swap1\n      0x09\n      mul\n      add\n        /* \"TimeAlly.sol\":27880:27923  stakings[msg.sender][_stakingId].nomination */\n      0x08\n      add\n        /* \"TimeAlly.sol\":27880:27940  stakings[msg.sender][_stakingId].nomination[_nomineeAddress] */\n      0x00\n        /* \"TimeAlly.sol\":27924:27939  _nomineeAddress */\n      dup5\n        /* \"TimeAlly.sol\":27880:27940  stakings[msg.sender][_stakingId].nomination[_nomineeAddress] */\n      0xffffffffffffffffffffffffffffffffffffffff\n      and\n      0xffffffffffffffffffffffffffffffffffffffff\n      and\n      dup2\n      mstore\n      0x20\n      add\n      swap1\n      dup2\n      mstore\n      0x20\n      add\n      0x00\n      keccak256\n        /* \"TimeAlly.sol\":27880:27950  stakings[msg.sender][_stakingId].nomination[_nomineeAddress] = _shares */\n      dup2\n      swap1\n      sstore\n      pop\n        /* \"TimeAlly.sol\":28000:28015  _nomineeAddress */\n      dup2\n        /* \"TimeAlly.sol\":27965:28016  NomineeNew(msg.sender, _stakingId, _nomineeAddress) */\n      0xffffffffffffffffffffffffffffffffffffffff\n      and\n        /* \"TimeAlly.sol\":27988:27998  _stakingId */\n      dup4\n        /* \"TimeAlly.sol\":27976:27986  msg.sender */\n      caller\n        /* \"TimeAlly.sol\":27965:28016  NomineeNew(msg.sender, _stakingId, _nomineeAddress) */\n      0xffffffffffffffffffffffffffffffffffffffff\n      and\n      0xc4e7fb51a42ce926bb404f8024c3c91a40af0654d9a96ada67c329b9c9bee4a2\n      mload(0x40)\n      mload(0x40)\n      dup1\n      swap2\n      sub\n      swap1\n      log4\n        /* \"TimeAlly.sol\":27396:28023  function addNominee(uint256 _stakingId, address _nomineeAddress, uint256 _shares) public {... */\n      pop\n      pop\n      pop\n      jump\t// out\n        /* \"TimeAlly.sol\":8819:8959  function getNumberOfStakingsByUser(address _userAddress) public view returns (uint256) {... */\n    tag_117:\n        /* \"TimeAlly.sol\":8897:8904  uint256 */\n      0x00\n        /* \"TimeAlly.sol\":8923:8931  stakings */\n      0x07\n        /* \"TimeAlly.sol\":8923:8945  stakings[_userAddress] */\n      0x00\n        /* \"TimeAlly.sol\":8932:8944  _userAddress */\n      dup4\n        /* \"TimeAlly.sol\":8923:8945  stakings[_userAddress] */\n      0xffffffffffffffffffffffffffffffffffffffff\n      and\n      0xffffffffffffffffffffffffffffffffffffffff\n      and\n      dup2\n      mstore\n      0x20\n      add\n      swap1\n      dup2\n      mstore\n      0x20\n      add\n      0x00\n      keccak256\n        /* \"TimeAlly.sol\":8923:8952  stakings[_userAddress].length */\n      dup1\n      sload\n      swap1\n      pop\n        /* \"TimeAlly.sol\":8916:8952  return stakings[_userAddress].length */\n      swap1\n      pop\n        /* \"TimeAlly.sol\":8819:8959  function getNumberOfStakingsByUser(address _userAddress) public view returns (uint256) {... */\n      swap2\n      swap1\n      pop\n      jump\t// out\n        /* \"TimeAlly.sol\":2671:2698  LoanPlan[] public loanPlans */\n    tag_120:\n      0x06\n      dup2\n      dup2\n      sload\n      dup2\n      lt\n      tag_411\n      jumpi\n      invalid\n    tag_411:\n      swap1\n      0x00\n      mstore\n      keccak256(0x00, 0x20)\n      swap1\n      0x03\n      mul\n      add\n      0x00\n      swap2\n      pop\n      swap1\n      pop\n      dup1\n      0x00\n      add\n      sload\n      swap1\n      dup1\n      0x01\n      add\n      sload\n      swap1\n      dup1\n      0x02\n      add\n      sload\n      swap1\n      pop\n      dup4\n      jump\t// out\n        /* \"TimeAlly.sol\":20128:23315  function takeLoanOnSelfStaking(uint256 _loanPlanId, uint256 _exaEsAmount, uint256[] memory _stakingIds) public {... */\n    tag_126:\n        /* \"TimeAlly.sol\":20477:20498  uint256 _currentMonth */\n      0x00\n        /* \"TimeAlly.sol\":20501:20518  getCurrentMonth() */\n      tag_414\n        /* \"TimeAlly.sol\":20501:20516  getCurrentMonth */\n      tag_137\n        /* \"TimeAlly.sol\":20501:20518  getCurrentMonth() */\n      jump\t// in\n    tag_414:\n        /* \"TimeAlly.sol\":20477:20518  uint256 _currentMonth = getCurrentMonth() */\n      swap1\n      pop\n        /* \"TimeAlly.sol\":20528:20560  uint256 _userStakingsExaEsAmount */\n      0x00\n        /* \"TimeAlly.sol\":20575:20584  uint256 i */\n      dup1\n        /* \"TimeAlly.sol\":20587:20588  0 */\n      0x00\n        /* \"TimeAlly.sol\":20575:20588  uint256 i = 0 */\n      swap1\n      pop\n        /* \"TimeAlly.sol\":20571:22361  for(uint256 i = 0; i < _stakingIds.length; i++) {... */\n    tag_415:\n        /* \"TimeAlly.sol\":20594:20605  _stakingIds */\n      dup4\n        /* \"TimeAlly.sol\":20594:20612  _stakingIds.length */\n      mload\n        /* \"TimeAlly.sol\":20590:20591  i */\n      dup2\n        /* \"TimeAlly.sol\":20590:20612  i < _stakingIds.length */\n      lt\n        /* \"TimeAlly.sol\":20571:22361  for(uint256 i = 0; i < _stakingIds.length; i++) {... */\n      iszero\n      tag_416\n      jumpi\n        /* \"TimeAlly.sol\":20638:20696  isStakingActive(msg.sender, _stakingIds[i], _currentMonth) */\n      tag_418\n        /* \"TimeAlly.sol\":20654:20664  msg.sender */\n      caller\n        /* \"TimeAlly.sol\":20666:20677  _stakingIds */\n      dup6\n        /* \"TimeAlly.sol\":20678:20679  i */\n      dup4\n        /* \"TimeAlly.sol\":20666:20680  _stakingIds[i] */\n      dup2\n      mload\n      dup2\n      lt\n      tag_419\n      jumpi\n      invalid\n    tag_419:\n      0x20\n      mul\n      0x20\n      add\n      add\n      mload\n        /* \"TimeAlly.sol\":20682:20695  _currentMonth */\n      dup6\n        /* \"TimeAlly.sol\":20638:20653  isStakingActive */\n      tag_132\n        /* \"TimeAlly.sol\":20638:20696  isStakingActive(msg.sender, _stakingIds[i], _currentMonth) */\n      jump\t// in\n    tag_418:\n        /* \"TimeAlly.sol\":20638:21154  isStakingActive(msg.sender, _stakingIds[i], _currentMonth)... */\n      dup1\n      iszero\n      tag_420\n      jumpi\n      pop\n        /* \"TimeAlly.sol\":20858:20870  stakingPlans */\n      0x05\n        /* \"TimeAlly.sol\":20872:20880  stakings */\n      0x07\n        /* \"TimeAlly.sol\":20872:20892  stakings[msg.sender] */\n      0x00\n        /* \"TimeAlly.sol\":20881:20891  msg.sender */\n      caller\n        /* \"TimeAlly.sol\":20872:20892  stakings[msg.sender] */\n      0xffffffffffffffffffffffffffffffffffffffff\n      and\n      0xffffffffffffffffffffffffffffffffffffffff\n      and\n      dup2\n      mstore\n      0x20\n      add\n      swap1\n      dup2\n      mstore\n      0x20\n      add\n      0x00\n      keccak256\n        /* \"TimeAlly.sol\":20893:20904  _stakingIds */\n      dup6\n        /* \"TimeAlly.sol\":20905:20906  i */\n      dup4\n        /* \"TimeAlly.sol\":20893:20907  _stakingIds[i] */\n      dup2\n      mload\n      dup2\n      lt\n      tag_421\n      jumpi\n      invalid\n    tag_421:\n      0x20\n      mul\n      0x20\n      add\n      add\n      mload\n        /* \"TimeAlly.sol\":20872:20908  stakings[msg.sender][_stakingIds[i]] */\n      dup2\n      sload\n      dup2\n      lt\n      tag_422\n      jumpi\n      invalid\n    tag_422:\n      swap1\n      0x00\n      mstore\n      keccak256(0x00, 0x20)\n      swap1\n      0x09\n      mul\n      add\n        /* \"TimeAlly.sol\":20872:20922  stakings[msg.sender][_stakingIds[i]].stakingPlanId */\n      0x03\n      add\n      sload\n        /* \"TimeAlly.sol\":20858:20924  stakingPlans[ stakings[msg.sender][_stakingIds[i]].stakingPlanId ] */\n      dup2\n      sload\n      dup2\n      lt\n      tag_424\n      jumpi\n      invalid\n    tag_424:\n      swap1\n      0x00\n      mstore\n      keccak256(0x00, 0x20)\n      swap1\n      0x03\n      mul\n      add\n        /* \"TimeAlly.sol\":20858:20944  stakingPlans[ stakings[msg.sender][_stakingIds[i]].stakingPlanId ].isUrgentLoanAllowed */\n      0x02\n      add\n      0x00\n      swap1\n      sload\n      swap1\n      0x0100\n      exp\n      swap1\n      div\n      0xff\n      and\n        /* \"TimeAlly.sol\":20858:21136  stakingPlans[ stakings[msg.sender][_stakingIds[i]].stakingPlanId ].isUrgentLoanAllowed... */\n      dup1\n      tag_426\n      jumpi\n      pop\n        /* \"TimeAlly.sol\":21021:21136  stakingPlans[ stakings[msg.sender][_stakingIds[i]].stakingPlanId ].months.mul(earthSecondsInMonth).mul(75).div(100) */\n      tag_427\n        /* \"TimeAlly.sol\":21132:21135  100 */\n      0x64\n        /* \"TimeAlly.sol\":21021:21127  stakingPlans[ stakings[msg.sender][_stakingIds[i]].stakingPlanId ].months.mul(earthSecondsInMonth).mul(75) */\n      tag_428\n        /* \"TimeAlly.sol\":21124:21126  75 */\n      0x4b\n        /* \"TimeAlly.sol\":21021:21119  stakingPlans[ stakings[msg.sender][_stakingIds[i]].stakingPlanId ].months.mul(earthSecondsInMonth) */\n      tag_429\n        /* \"TimeAlly.sol\":21099:21118  earthSecondsInMonth */\n      sload(0x04)\n        /* \"TimeAlly.sol\":21021:21033  stakingPlans */\n      0x05\n        /* \"TimeAlly.sol\":21035:21043  stakings */\n      0x07\n        /* \"TimeAlly.sol\":21035:21055  stakings[msg.sender] */\n      0x00\n        /* \"TimeAlly.sol\":21044:21054  msg.sender */\n      caller\n        /* \"TimeAlly.sol\":21035:21055  stakings[msg.sender] */\n      0xffffffffffffffffffffffffffffffffffffffff\n      and\n      0xffffffffffffffffffffffffffffffffffffffff\n      and\n      dup2\n      mstore\n      0x20\n      add\n      swap1\n      dup2\n      mstore\n      0x20\n      add\n      0x00\n      keccak256\n        /* \"TimeAlly.sol\":21056:21067  _stakingIds */\n      dup12\n        /* \"TimeAlly.sol\":21068:21069  i */\n      dup10\n        /* \"TimeAlly.sol\":21056:21070  _stakingIds[i] */\n      dup2\n      mload\n      dup2\n      lt\n      tag_430\n      jumpi\n      invalid\n    tag_430:\n      0x20\n      mul\n      0x20\n      add\n      add\n      mload\n        /* \"TimeAlly.sol\":21035:21071  stakings[msg.sender][_stakingIds[i]] */\n      dup2\n      sload\n      dup2\n      lt\n      tag_431\n      jumpi\n      invalid\n    tag_431:\n      swap1\n      0x00\n      mstore\n      keccak256(0x00, 0x20)\n      swap1\n      0x09\n      mul\n      add\n        /* \"TimeAlly.sol\":21035:21085  stakings[msg.sender][_stakingIds[i]].stakingPlanId */\n      0x03\n      add\n      sload\n        /* \"TimeAlly.sol\":21021:21087  stakingPlans[ stakings[msg.sender][_stakingIds[i]].stakingPlanId ] */\n      dup2\n      sload\n      dup2\n      lt\n      tag_433\n      jumpi\n      invalid\n    tag_433:\n      swap1\n      0x00\n      mstore\n      keccak256(0x00, 0x20)\n      swap1\n      0x03\n      mul\n      add\n        /* \"TimeAlly.sol\":21021:21094  stakingPlans[ stakings[msg.sender][_stakingIds[i]].stakingPlanId ].months */\n      0x00\n      add\n      sload\n        /* \"TimeAlly.sol\":21021:21098  stakingPlans[ stakings[msg.sender][_stakingIds[i]].stakingPlanId ].months.mul */\n      tag_179\n      swap1\n        /* \"TimeAlly.sol\":21021:21119  stakingPlans[ stakings[msg.sender][_stakingIds[i]].stakingPlanId ].months.mul(earthSecondsInMonth) */\n      swap2\n      swap1\n      0xffffffff\n      and\n      jump\t// in\n    tag_429:\n        /* \"TimeAlly.sol\":21021:21123  stakingPlans[ stakings[msg.sender][_stakingIds[i]].stakingPlanId ].months.mul(earthSecondsInMonth).mul */\n      tag_179\n      swap1\n        /* \"TimeAlly.sol\":21021:21127  stakingPlans[ stakings[msg.sender][_stakingIds[i]].stakingPlanId ].months.mul(earthSecondsInMonth).mul(75) */\n      swap2\n      swap1\n      0xffffffff\n      and\n      jump\t// in\n    tag_428:\n        /* \"TimeAlly.sol\":21021:21131  stakingPlans[ stakings[msg.sender][_stakingIds[i]].stakingPlanId ].months.mul(earthSecondsInMonth).mul(75).div */\n      tag_236\n      swap1\n        /* \"TimeAlly.sol\":21021:21136  stakingPlans[ stakings[msg.sender][_stakingIds[i]].stakingPlanId ].months.mul(earthSecondsInMonth).mul(75).div(100) */\n      swap2\n      swap1\n      0xffffffff\n      and\n      jump\t// in\n    tag_427:\n        /* \"TimeAlly.sol\":20972:20980  stakings */\n      0x07\n        /* \"TimeAlly.sol\":20972:20992  stakings[msg.sender] */\n      0x00\n        /* \"TimeAlly.sol\":20981:20991  msg.sender */\n      caller\n        /* \"TimeAlly.sol\":20972:20992  stakings[msg.sender] */\n      0xffffffffffffffffffffffffffffffffffffffff\n      and\n      0xffffffffffffffffffffffffffffffffffffffff\n      and\n      dup2\n      mstore\n      0x20\n      add\n      swap1\n      dup2\n      mstore\n      0x20\n      add\n      0x00\n      keccak256\n        /* \"TimeAlly.sol\":20993:21004  _stakingIds */\n      dup6\n        /* \"TimeAlly.sol\":21005:21006  i */\n      dup4\n        /* \"TimeAlly.sol\":20993:21007  _stakingIds[i] */\n      dup2\n      mload\n      dup2\n      lt\n      tag_435\n      jumpi\n      invalid\n    tag_435:\n      0x20\n      mul\n      0x20\n      add\n      add\n      mload\n        /* \"TimeAlly.sol\":20972:21008  stakings[msg.sender][_stakingIds[i]] */\n      dup2\n      sload\n      dup2\n      lt\n      tag_436\n      jumpi\n      invalid\n    tag_436:\n      swap1\n      0x00\n      mstore\n      keccak256(0x00, 0x20)\n      swap1\n      0x09\n      mul\n      add\n        /* \"TimeAlly.sol\":20972:21018  stakings[msg.sender][_stakingIds[i]].timestamp */\n      0x01\n      add\n      sload\n        /* \"TimeAlly.sol\":20972:21136  stakings[msg.sender][_stakingIds[i]].timestamp + stakingPlans[ stakings[msg.sender][_stakingIds[i]].stakingPlanId ].months.mul(earthSecondsInMonth).mul(75).div(100) */\n      add\n        /* \"TimeAlly.sol\":20966:20969  now */\n      timestamp\n        /* \"TimeAlly.sol\":20966:21136  now > stakings[msg.sender][_stakingIds[i]].timestamp + stakingPlans[ stakings[msg.sender][_stakingIds[i]].stakingPlanId ].months.mul(earthSecondsInMonth).mul(75).div(100) */\n      gt\n        /* \"TimeAlly.sol\":20858:21136  stakingPlans[ stakings[msg.sender][_stakingIds[i]].stakingPlanId ].isUrgentLoanAllowed... */\n    tag_426:\n        /* \"TimeAlly.sol\":20638:21154  isStakingActive(msg.sender, _stakingIds[i], _currentMonth)... */\n    tag_420:\n        /* \"TimeAlly.sol\":20634:22351  if( isStakingActive(msg.sender, _stakingIds[i], _currentMonth)... */\n      iszero\n      tag_438\n      jumpi\n        /* \"TimeAlly.sol\":21261:21516  _userStakingsExaEsAmount... */\n      tag_439\n        /* \"TimeAlly.sol\":21336:21498  stakings[msg.sender][ _stakingIds[i] ].exaEsAmount... */\n      tag_440\n        /* \"TimeAlly.sol\":21494:21497  100 */\n      0x64\n        /* \"TimeAlly.sol\":21336:21462  stakings[msg.sender][ _stakingIds[i] ].exaEsAmount... */\n      tag_441\n        /* \"TimeAlly.sol\":21418:21427  loanPlans */\n      0x06\n        /* \"TimeAlly.sol\":21428:21439  _loanPlanId */\n      dup11\n        /* \"TimeAlly.sol\":21418:21440  loanPlans[_loanPlanId] */\n      dup2\n      sload\n      dup2\n      lt\n      tag_442\n      jumpi\n      invalid\n    tag_442:\n      swap1\n      0x00\n      mstore\n      keccak256(0x00, 0x20)\n      swap1\n      0x03\n      mul\n      add\n        /* \"TimeAlly.sol\":21418:21461  loanPlans[_loanPlanId].maxLoanAmountPercent */\n      0x02\n      add\n      sload\n        /* \"TimeAlly.sol\":21336:21344  stakings */\n      0x07\n        /* \"TimeAlly.sol\":21336:21356  stakings[msg.sender] */\n      0x00\n        /* \"TimeAlly.sol\":21345:21355  msg.sender */\n      caller\n        /* \"TimeAlly.sol\":21336:21356  stakings[msg.sender] */\n      0xffffffffffffffffffffffffffffffffffffffff\n      and\n      0xffffffffffffffffffffffffffffffffffffffff\n      and\n      dup2\n      mstore\n      0x20\n      add\n      swap1\n      dup2\n      mstore\n      0x20\n      add\n      0x00\n      keccak256\n        /* \"TimeAlly.sol\":21358:21369  _stakingIds */\n      dup10\n        /* \"TimeAlly.sol\":21370:21371  i */\n      dup8\n        /* \"TimeAlly.sol\":21358:21372  _stakingIds[i] */\n      dup2\n      mload\n      dup2\n      lt\n      tag_444\n      jumpi\n      invalid\n    tag_444:\n      0x20\n      mul\n      0x20\n      add\n      add\n      mload\n        /* \"TimeAlly.sol\":21336:21374  stakings[msg.sender][ _stakingIds[i] ] */\n      dup2\n      sload\n      dup2\n      lt\n      tag_445\n      jumpi\n      invalid\n    tag_445:\n      swap1\n      0x00\n      mstore\n      keccak256(0x00, 0x20)\n      swap1\n      0x09\n      mul\n      add\n        /* \"TimeAlly.sol\":21336:21386  stakings[msg.sender][ _stakingIds[i] ].exaEsAmount */\n      0x00\n      add\n      sload\n        /* \"TimeAlly.sol\":21336:21417  stakings[msg.sender][ _stakingIds[i] ].exaEsAmount... */\n      tag_179\n      swap1\n        /* \"TimeAlly.sol\":21336:21462  stakings[msg.sender][ _stakingIds[i] ].exaEsAmount... */\n      swap2\n      swap1\n      0xffffffff\n      and\n      jump\t// in\n    tag_441:\n        /* \"TimeAlly.sol\":21336:21493  stakings[msg.sender][ _stakingIds[i] ].exaEsAmount... */\n      tag_236\n      swap1\n        /* \"TimeAlly.sol\":21336:21498  stakings[msg.sender][ _stakingIds[i] ].exaEsAmount... */\n      swap2\n      swap1\n      0xffffffff\n      and\n      jump\t// in\n    tag_440:\n        /* \"TimeAlly.sol\":21261:21285  _userStakingsExaEsAmount */\n      dup4\n        /* \"TimeAlly.sol\":21261:21310  _userStakingsExaEsAmount... */\n      tag_198\n      swap1\n        /* \"TimeAlly.sol\":21261:21516  _userStakingsExaEsAmount... */\n      swap2\n      swap1\n      0xffffffff\n      and\n      jump\t// in\n    tag_439:\n        /* \"TimeAlly.sol\":21234:21516  _userStakingsExaEsAmount = _userStakingsExaEsAmount... */\n      swap2\n      pop\n        /* \"TimeAlly.sol\":21590:21615  uint256 stakingStartMonth */\n      0x00\n        /* \"TimeAlly.sol\":21618:21626  stakings */\n      0x07\n        /* \"TimeAlly.sol\":21618:21638  stakings[msg.sender] */\n      0x00\n        /* \"TimeAlly.sol\":21627:21637  msg.sender */\n      caller\n        /* \"TimeAlly.sol\":21618:21638  stakings[msg.sender] */\n      0xffffffffffffffffffffffffffffffffffffffff\n      and\n      0xffffffffffffffffffffffffffffffffffffffff\n      and\n      dup2\n      mstore\n      0x20\n      add\n      swap1\n      dup2\n      mstore\n      0x20\n      add\n      0x00\n      keccak256\n        /* \"TimeAlly.sol\":21639:21650  _stakingIds */\n      dup6\n        /* \"TimeAlly.sol\":21651:21652  i */\n      dup4\n        /* \"TimeAlly.sol\":21639:21653  _stakingIds[i] */\n      dup2\n      mload\n      dup2\n      lt\n      tag_447\n      jumpi\n      invalid\n    tag_447:\n      0x20\n      mul\n      0x20\n      add\n      add\n      mload\n        /* \"TimeAlly.sol\":21618:21654  stakings[msg.sender][_stakingIds[i]] */\n      dup2\n      sload\n      dup2\n      lt\n      tag_448\n      jumpi\n      invalid\n    tag_448:\n      swap1\n      0x00\n      mstore\n      keccak256(0x00, 0x20)\n      swap1\n      0x09\n      mul\n      add\n        /* \"TimeAlly.sol\":21618:21667  stakings[msg.sender][_stakingIds[i]].stakingMonth */\n      0x02\n      add\n      sload\n        /* \"TimeAlly.sol\":21590:21667  uint256 stakingStartMonth = stakings[msg.sender][_stakingIds[i]].stakingMonth */\n      swap1\n      pop\n        /* \"TimeAlly.sol\":21686:21707  uint256 stakeEndMonth */\n      0x00\n        /* \"TimeAlly.sol\":21730:21742  stakingPlans */\n      0x05\n        /* \"TimeAlly.sol\":21743:21751  stakings */\n      0x07\n        /* \"TimeAlly.sol\":21743:21763  stakings[msg.sender] */\n      0x00\n        /* \"TimeAlly.sol\":21752:21762  msg.sender */\n      caller\n        /* \"TimeAlly.sol\":21743:21763  stakings[msg.sender] */\n      0xffffffffffffffffffffffffffffffffffffffff\n      and\n      0xffffffffffffffffffffffffffffffffffffffff\n      and\n      dup2\n      mstore\n      0x20\n      add\n      swap1\n      dup2\n      mstore\n      0x20\n      add\n      0x00\n      keccak256\n        /* \"TimeAlly.sol\":21764:21775  _stakingIds */\n      dup8\n        /* \"TimeAlly.sol\":21776:21777  i */\n      dup6\n        /* \"TimeAlly.sol\":21764:21778  _stakingIds[i] */\n      dup2\n      mload\n      dup2\n      lt\n      tag_450\n      jumpi\n      invalid\n    tag_450:\n      0x20\n      mul\n      0x20\n      add\n      add\n      mload\n        /* \"TimeAlly.sol\":21743:21779  stakings[msg.sender][_stakingIds[i]] */\n      dup2\n      sload\n      dup2\n      lt\n      tag_451\n      jumpi\n      invalid\n    tag_451:\n      swap1\n      0x00\n      mstore\n      keccak256(0x00, 0x20)\n      swap1\n      0x09\n      mul\n      add\n        /* \"TimeAlly.sol\":21743:21793  stakings[msg.sender][_stakingIds[i]].stakingPlanId */\n      0x03\n      add\n      sload\n        /* \"TimeAlly.sol\":21730:21794  stakingPlans[stakings[msg.sender][_stakingIds[i]].stakingPlanId] */\n      dup2\n      sload\n      dup2\n      lt\n      tag_453\n      jumpi\n      invalid\n    tag_453:\n      swap1\n      0x00\n      mstore\n      keccak256(0x00, 0x20)\n      swap1\n      0x03\n      mul\n      add\n        /* \"TimeAlly.sol\":21730:21801  stakingPlans[stakings[msg.sender][_stakingIds[i]].stakingPlanId].months */\n      0x00\n      add\n      sload\n        /* \"TimeAlly.sol\":21710:21727  stakingStartMonth */\n      dup3\n        /* \"TimeAlly.sol\":21710:21801  stakingStartMonth + stakingPlans[stakings[msg.sender][_stakingIds[i]].stakingPlanId].months */\n      add\n        /* \"TimeAlly.sol\":21686:21801  uint256 stakeEndMonth = stakingStartMonth + stakingPlans[stakings[msg.sender][_stakingIds[i]].stakingPlanId].months */\n      swap1\n      pop\n        /* \"TimeAlly.sol\":21824:21833  uint256 j */\n      0x00\n        /* \"TimeAlly.sol\":21852:21853  1 */\n      0x01\n        /* \"TimeAlly.sol\":21836:21849  _currentMonth */\n      dup7\n        /* \"TimeAlly.sol\":21836:21853  _currentMonth + 1 */\n      add\n        /* \"TimeAlly.sol\":21824:21853  uint256 j = _currentMonth + 1 */\n      swap1\n      pop\n        /* \"TimeAlly.sol\":21820:21998  for(uint256 j = _currentMonth + 1; j <= stakeEndMonth; j++) {... */\n    tag_455:\n        /* \"TimeAlly.sol\":21860:21873  stakeEndMonth */\n      dup2\n        /* \"TimeAlly.sol\":21855:21856  j */\n      dup2\n        /* \"TimeAlly.sol\":21855:21873  j <= stakeEndMonth */\n      gt\n        /* \"TimeAlly.sol\":21820:21998  for(uint256 j = _currentMonth + 1; j <= stakeEndMonth; j++) {... */\n      tag_456\n      jumpi\n        /* \"TimeAlly.sol\":21927:21979  totalActiveStakings[j].sub(_userStakingsExaEsAmount) */\n      tag_458\n        /* \"TimeAlly.sol\":21954:21978  _userStakingsExaEsAmount */\n      dup6\n        /* \"TimeAlly.sol\":21927:21946  totalActiveStakings */\n      0x0a\n        /* \"TimeAlly.sol\":21927:21949  totalActiveStakings[j] */\n      0x00\n        /* \"TimeAlly.sol\":21947:21948  j */\n      dup5\n        /* \"TimeAlly.sol\":21927:21949  totalActiveStakings[j] */\n      dup2\n      mstore\n      0x20\n      add\n      swap1\n      dup2\n      mstore\n      0x20\n      add\n      0x00\n      keccak256\n      sload\n        /* \"TimeAlly.sol\":21927:21953  totalActiveStakings[j].sub */\n      tag_204\n      swap1\n        /* \"TimeAlly.sol\":21927:21979  totalActiveStakings[j].sub(_userStakingsExaEsAmount) */\n      swap2\n      swap1\n      0xffffffff\n      and\n      jump\t// in\n    tag_458:\n        /* \"TimeAlly.sol\":21902:21921  totalActiveStakings */\n      0x0a\n        /* \"TimeAlly.sol\":21902:21924  totalActiveStakings[j] */\n      0x00\n        /* \"TimeAlly.sol\":21922:21923  j */\n      dup4\n        /* \"TimeAlly.sol\":21902:21924  totalActiveStakings[j] */\n      dup2\n      mstore\n      0x20\n      add\n      swap1\n      dup2\n      mstore\n      0x20\n      add\n      0x00\n      keccak256\n        /* \"TimeAlly.sol\":21902:21979  totalActiveStakings[j] = totalActiveStakings[j].sub(_userStakingsExaEsAmount) */\n      dup2\n      swap1\n      sstore\n      pop\n        /* \"TimeAlly.sol\":21875:21878  j++ */\n      dup1\n      dup1\n      0x01\n      add\n      swap2\n      pop\n      pop\n        /* \"TimeAlly.sol\":21820:21998  for(uint256 j = _currentMonth + 1; j <= stakeEndMonth; j++) {... */\n      jump(tag_455)\n    tag_456:\n      pop\n        /* \"TimeAlly.sol\":22067:22076  uint256 j */\n      0x00\n        /* \"TimeAlly.sol\":22079:22080  1 */\n      0x01\n        /* \"TimeAlly.sol\":22067:22080  uint256 j = 1 */\n      swap1\n      pop\n        /* \"TimeAlly.sol\":22063:22337  for(uint256 j = 1; j <= loanPlans[_loanPlanId].loanMonths; j++) {... */\n    tag_459:\n        /* \"TimeAlly.sol\":22087:22096  loanPlans */\n      0x06\n        /* \"TimeAlly.sol\":22097:22108  _loanPlanId */\n      dup10\n        /* \"TimeAlly.sol\":22087:22109  loanPlans[_loanPlanId] */\n      dup2\n      sload\n      dup2\n      lt\n      tag_462\n      jumpi\n      invalid\n    tag_462:\n      swap1\n      0x00\n      mstore\n      keccak256(0x00, 0x20)\n      swap1\n      0x03\n      mul\n      add\n        /* \"TimeAlly.sol\":22087:22120  loanPlans[_loanPlanId].loanMonths */\n      0x00\n      add\n      sload\n        /* \"TimeAlly.sol\":22082:22083  j */\n      dup2\n        /* \"TimeAlly.sol\":22082:22120  j <= loanPlans[_loanPlanId].loanMonths */\n      gt\n        /* \"TimeAlly.sol\":22063:22337  for(uint256 j = 1; j <= loanPlans[_loanPlanId].loanMonths; j++) {... */\n      tag_460\n      jumpi\n        /* \"TimeAlly.sol\":22226:22230  true */\n      0x01\n        /* \"TimeAlly.sol\":22149:22157  stakings */\n      0x07\n        /* \"TimeAlly.sol\":22149:22169  stakings[msg.sender] */\n      0x00\n        /* \"TimeAlly.sol\":22158:22168  msg.sender */\n      caller\n        /* \"TimeAlly.sol\":22149:22169  stakings[msg.sender] */\n      0xffffffffffffffffffffffffffffffffffffffff\n      and\n      0xffffffffffffffffffffffffffffffffffffffff\n      and\n      dup2\n      mstore\n      0x20\n      add\n      swap1\n      dup2\n      mstore\n      0x20\n      add\n      0x00\n      keccak256\n        /* \"TimeAlly.sol\":22171:22182  _stakingIds */\n      dup9\n        /* \"TimeAlly.sol\":22183:22184  i */\n      dup7\n        /* \"TimeAlly.sol\":22171:22185  _stakingIds[i] */\n      dup2\n      mload\n      dup2\n      lt\n      tag_464\n      jumpi\n      invalid\n    tag_464:\n      0x20\n      mul\n      0x20\n      add\n      add\n      mload\n        /* \"TimeAlly.sol\":22149:22187  stakings[msg.sender][ _stakingIds[i] ] */\n      dup2\n      sload\n      dup2\n      lt\n      tag_465\n      jumpi\n      invalid\n    tag_465:\n      swap1\n      0x00\n      mstore\n      keccak256(0x00, 0x20)\n      swap1\n      0x09\n      mul\n      add\n        /* \"TimeAlly.sol\":22149:22202  stakings[msg.sender][ _stakingIds[i] ].isMonthClaimed */\n      0x07\n      add\n        /* \"TimeAlly.sol\":22149:22223  stakings[msg.sender][ _stakingIds[i] ].isMonthClaimed[ _currentMonth + j ] */\n      0x00\n        /* \"TimeAlly.sol\":22220:22221  j */\n      dup4\n        /* \"TimeAlly.sol\":22204:22217  _currentMonth */\n      dup10\n        /* \"TimeAlly.sol\":22204:22221  _currentMonth + j */\n      add\n        /* \"TimeAlly.sol\":22149:22223  stakings[msg.sender][ _stakingIds[i] ].isMonthClaimed[ _currentMonth + j ] */\n      dup2\n      mstore\n      0x20\n      add\n      swap1\n      dup2\n      mstore\n      0x20\n      add\n      0x00\n      keccak256\n      0x00\n        /* \"TimeAlly.sol\":22149:22230  stakings[msg.sender][ _stakingIds[i] ].isMonthClaimed[ _currentMonth + j ] = true */\n      0x0100\n      exp\n      dup2\n      sload\n      dup2\n      0xff\n      mul\n      not\n      and\n      swap1\n      dup4\n      iszero\n      iszero\n      mul\n      or\n      swap1\n      sstore\n      pop\n        /* \"TimeAlly.sol\":22300:22301  2 */\n      0x02\n        /* \"TimeAlly.sol\":22252:22260  stakings */\n      0x07\n        /* \"TimeAlly.sol\":22252:22272  stakings[msg.sender] */\n      0x00\n        /* \"TimeAlly.sol\":22261:22271  msg.sender */\n      caller\n        /* \"TimeAlly.sol\":22252:22272  stakings[msg.sender] */\n      0xffffffffffffffffffffffffffffffffffffffff\n      and\n      0xffffffffffffffffffffffffffffffffffffffff\n      and\n      dup2\n      mstore\n      0x20\n      add\n      swap1\n      dup2\n      mstore\n      0x20\n      add\n      0x00\n      keccak256\n        /* \"TimeAlly.sol\":22274:22285  _stakingIds */\n      dup9\n        /* \"TimeAlly.sol\":22286:22287  i */\n      dup7\n        /* \"TimeAlly.sol\":22274:22288  _stakingIds[i] */\n      dup2\n      mload\n      dup2\n      lt\n      tag_467\n      jumpi\n      invalid\n    tag_467:\n      0x20\n      mul\n      0x20\n      add\n      add\n      mload\n        /* \"TimeAlly.sol\":22252:22290  stakings[msg.sender][ _stakingIds[i] ] */\n      dup2\n      sload\n      dup2\n      lt\n      tag_468\n      jumpi\n      invalid\n    tag_468:\n      swap1\n      0x00\n      mstore\n      keccak256(0x00, 0x20)\n      swap1\n      0x09\n      mul\n      add\n        /* \"TimeAlly.sol\":22252:22297  stakings[msg.sender][ _stakingIds[i] ].status */\n      0x04\n      add\n        /* \"TimeAlly.sol\":22252:22301  stakings[msg.sender][ _stakingIds[i] ].status = 2 */\n      dup2\n      swap1\n      sstore\n      pop\n        /* \"TimeAlly.sol\":22122:22125  j++ */\n      dup1\n      dup1\n      0x01\n      add\n      swap2\n      pop\n      pop\n        /* \"TimeAlly.sol\":22063:22337  for(uint256 j = 1; j <= loanPlans[_loanPlanId].loanMonths; j++) {... */\n      jump(tag_459)\n    tag_460:\n      pop\n        /* \"TimeAlly.sol\":20634:22351  if( isStakingActive(msg.sender, _stakingIds[i], _currentMonth)... */\n      pop\n      pop\n    tag_438:\n        /* \"TimeAlly.sol\":20614:20617  i++ */\n      dup1\n      dup1\n      0x01\n      add\n      swap2\n      pop\n      pop\n        /* \"TimeAlly.sol\":20571:22361  for(uint256 i = 0; i < _stakingIds.length; i++) {... */\n      jump(tag_415)\n    tag_416:\n      pop\n        /* \"TimeAlly.sol\":22371:22396  uint256 _maxLoaningAmount */\n      0x00\n        /* \"TimeAlly.sol\":22399:22423  _userStakingsExaEsAmount */\n      dup2\n        /* \"TimeAlly.sol\":22371:22423  uint256 _maxLoaningAmount = _userStakingsExaEsAmount */\n      swap1\n      pop\n        /* \"TimeAlly.sol\":22452:22469  _maxLoaningAmount */\n      dup1\n        /* \"TimeAlly.sol\":22437:22449  _exaEsAmount */\n      dup6\n        /* \"TimeAlly.sol\":22437:22469  _exaEsAmount > _maxLoaningAmount */\n      gt\n        /* \"TimeAlly.sol\":22434:22583  if(_exaEsAmount > _maxLoaningAmount) {... */\n      iszero\n      tag_470\n      jumpi\n        /* \"TimeAlly.sol\":22493:22498  false */\n      0x00\n        /* \"TimeAlly.sol\":22485:22572  require(false... */\n      tag_471\n      jumpi\n      0x00\n      dup1\n      revert\n    tag_471:\n        /* \"TimeAlly.sol\":22434:22583  if(_exaEsAmount > _maxLoaningAmount) {... */\n    tag_470:\n        /* \"TimeAlly.sol\":22594:22615  uint256 _loanInterest */\n      0x00\n        /* \"TimeAlly.sol\":22618:22676  _exaEsAmount.mul(loanPlans[_loanPlanId].loanRate).div(100) */\n      tag_472\n        /* \"TimeAlly.sol\":22672:22675  100 */\n      0x64\n        /* \"TimeAlly.sol\":22618:22667  _exaEsAmount.mul(loanPlans[_loanPlanId].loanRate) */\n      tag_473\n        /* \"TimeAlly.sol\":22635:22644  loanPlans */\n      0x06\n        /* \"TimeAlly.sol\":22645:22656  _loanPlanId */\n      dup11\n        /* \"TimeAlly.sol\":22635:22657  loanPlans[_loanPlanId] */\n      dup2\n      sload\n      dup2\n      lt\n      tag_474\n      jumpi\n      invalid\n    tag_474:\n      swap1\n      0x00\n      mstore\n      keccak256(0x00, 0x20)\n      swap1\n      0x03\n      mul\n      add\n        /* \"TimeAlly.sol\":22635:22666  loanPlans[_loanPlanId].loanRate */\n      0x01\n      add\n      sload\n        /* \"TimeAlly.sol\":22618:22630  _exaEsAmount */\n      dup10\n        /* \"TimeAlly.sol\":22618:22634  _exaEsAmount.mul */\n      tag_179\n      swap1\n        /* \"TimeAlly.sol\":22618:22667  _exaEsAmount.mul(loanPlans[_loanPlanId].loanRate) */\n      swap2\n      swap1\n      0xffffffff\n      and\n      jump\t// in\n    tag_473:\n        /* \"TimeAlly.sol\":22618:22671  _exaEsAmount.mul(loanPlans[_loanPlanId].loanRate).div */\n      tag_236\n      swap1\n        /* \"TimeAlly.sol\":22618:22676  _exaEsAmount.mul(loanPlans[_loanPlanId].loanRate).div(100) */\n      swap2\n      swap1\n      0xffffffff\n      and\n      jump\t// in\n    tag_472:\n        /* \"TimeAlly.sol\":22594:22676  uint256 _loanInterest = _exaEsAmount.mul(loanPlans[_loanPlanId].loanRate).div(100) */\n      swap1\n      pop\n        /* \"TimeAlly.sol\":22686:22715  uint256 _loanAmountToTransfer */\n      0x00\n        /* \"TimeAlly.sol\":22718:22749  _exaEsAmount.sub(_loanInterest) */\n      tag_476\n        /* \"TimeAlly.sol\":22735:22748  _loanInterest */\n      dup3\n        /* \"TimeAlly.sol\":22718:22730  _exaEsAmount */\n      dup9\n        /* \"TimeAlly.sol\":22718:22734  _exaEsAmount.sub */\n      tag_204\n      swap1\n        /* \"TimeAlly.sol\":22718:22749  _exaEsAmount.sub(_loanInterest) */\n      swap2\n      swap1\n      0xffffffff\n      and\n      jump\t// in\n    tag_476:\n        /* \"TimeAlly.sol\":22686:22749  uint256 _loanAmountToTransfer = _exaEsAmount.sub(_loanInterest) */\n      swap1\n      pop\n        /* \"TimeAlly.sol\":22769:22774  token */\n      0x02\n      0x00\n      swap1\n      sload\n      swap1\n      0x0100\n      exp\n      swap1\n      div\n      0xffffffffffffffffffffffffffffffffffffffff\n      and\n        /* \"TimeAlly.sol\":22769:22783  token.transfer */\n      0xffffffffffffffffffffffffffffffffffffffff\n      and\n      0xa9059cbb\n        /* \"TimeAlly.sol\":22792:22802  nrtManager */\n      0x03\n      0x00\n      swap1\n      sload\n      swap1\n      0x0100\n      exp\n      swap1\n      div\n      0xffffffffffffffffffffffffffffffffffffffff\n      and\n        /* \"TimeAlly.sol\":22805:22818  _loanInterest */\n      dup5\n        /* \"TimeAlly.sol\":22769:22819  token.transfer(address(nrtManager), _loanInterest) */\n      mload(0x40)\n      dup4\n      0xffffffff\n      and\n      0xe0\n      shl\n      dup2\n      mstore\n      0x04\n      add\n      dup1\n      dup4\n      0xffffffffffffffffffffffffffffffffffffffff\n      and\n      0xffffffffffffffffffffffffffffffffffffffff\n      and\n      dup2\n      mstore\n      0x20\n      add\n      dup3\n      dup2\n      mstore\n      0x20\n      add\n      swap3\n      pop\n      pop\n      pop\n      0x20\n      mload(0x40)\n      dup1\n      dup4\n      sub\n      dup2\n      0x00\n      dup8\n      dup1\n      extcodesize\n      iszero\n        /* \"--CODEGEN--\":8:17   */\n      dup1\n        /* \"--CODEGEN--\":5:7   */\n      iszero\n      tag_477\n      jumpi\n        /* \"--CODEGEN--\":30:31   */\n      0x00\n        /* \"--CODEGEN--\":27:28   */\n      dup1\n        /* \"--CODEGEN--\":20:32   */\n      revert\n        /* \"--CODEGEN--\":5:7   */\n    tag_477:\n        /* \"TimeAlly.sol\":22769:22819  token.transfer(address(nrtManager), _loanInterest) */\n      pop\n      gas\n      call\n      iszero\n        /* \"--CODEGEN--\":8:17   */\n      dup1\n        /* \"--CODEGEN--\":5:7   */\n      iszero\n      tag_478\n      jumpi\n        /* \"--CODEGEN--\":45:61   */\n      returndatasize\n        /* \"--CODEGEN--\":42:43   */\n      0x00\n        /* \"--CODEGEN--\":39:40   */\n      dup1\n        /* \"--CODEGEN--\":24:62   */\n      returndatacopy\n        /* \"--CODEGEN--\":77:93   */\n      returndatasize\n        /* \"--CODEGEN--\":74:75   */\n      0x00\n        /* \"--CODEGEN--\":67:94   */\n      revert\n        /* \"--CODEGEN--\":5:7   */\n    tag_478:\n        /* \"TimeAlly.sol\":22769:22819  token.transfer(address(nrtManager), _loanInterest) */\n      pop\n      pop\n      pop\n      pop\n      mload(0x40)\n      returndatasize\n        /* \"--CODEGEN--\":13:15   */\n      0x20\n        /* \"--CODEGEN--\":8:11   */\n      dup2\n        /* \"--CODEGEN--\":5:16   */\n      lt\n        /* \"--CODEGEN--\":2:4   */\n      iszero\n      tag_479\n      jumpi\n        /* \"--CODEGEN--\":29:30   */\n      0x00\n        /* \"--CODEGEN--\":26:27   */\n      dup1\n        /* \"--CODEGEN--\":19:31   */\n      revert\n        /* \"--CODEGEN--\":2:4   */\n    tag_479:\n        /* \"TimeAlly.sol\":22769:22819  token.transfer(address(nrtManager), _loanInterest) */\n      dup2\n      add\n      swap1\n      dup1\n      dup1\n      mload\n      swap1\n      0x20\n      add\n      swap1\n      swap3\n      swap2\n      swap1\n      pop\n      pop\n      pop\n        /* \"TimeAlly.sol\":22760:22821  require( token.transfer(address(nrtManager), _loanInterest) ) */\n      tag_480\n      jumpi\n      0x00\n      dup1\n      revert\n    tag_480:\n        /* \"TimeAlly.sol\":22840:22850  nrtManager */\n      0x03\n      0x00\n      swap1\n      sload\n      swap1\n      0x0100\n      exp\n      swap1\n      div\n      0xffffffffffffffffffffffffffffffffffffffff\n      and\n        /* \"TimeAlly.sol\":22840:22865  nrtManager.UpdateLuckpool */\n      0xffffffffffffffffffffffffffffffffffffffff\n      and\n      0x382e2aab\n        /* \"TimeAlly.sol\":22866:22879  _loanInterest */\n      dup4\n        /* \"TimeAlly.sol\":22840:22880  nrtManager.UpdateLuckpool(_loanInterest) */\n      mload(0x40)\n      dup3\n      0xffffffff\n      and\n      0xe0\n      shl\n      dup2\n      mstore\n      0x04\n      add\n      dup1\n      dup3\n      dup2\n      mstore\n      0x20\n      add\n      swap2\n      pop\n      pop\n      0x20\n      mload(0x40)\n      dup1\n      dup4\n      sub\n      dup2\n      0x00\n      dup8\n      dup1\n      extcodesize\n      iszero\n        /* \"--CODEGEN--\":8:17   */\n      dup1\n        /* \"--CODEGEN--\":5:7   */\n      iszero\n      tag_481\n      jumpi\n        /* \"--CODEGEN--\":30:31   */\n      0x00\n        /* \"--CODEGEN--\":27:28   */\n      dup1\n        /* \"--CODEGEN--\":20:32   */\n      revert\n        /* \"--CODEGEN--\":5:7   */\n    tag_481:\n        /* \"TimeAlly.sol\":22840:22880  nrtManager.UpdateLuckpool(_loanInterest) */\n      pop\n      gas\n      call\n      iszero\n        /* \"--CODEGEN--\":8:17   */\n      dup1\n        /* \"--CODEGEN--\":5:7   */\n      iszero\n      tag_482\n      jumpi\n        /* \"--CODEGEN--\":45:61   */\n      returndatasize\n        /* \"--CODEGEN--\":42:43   */\n      0x00\n        /* \"--CODEGEN--\":39:40   */\n      dup1\n        /* \"--CODEGEN--\":24:62   */\n      returndatacopy\n        /* \"--CODEGEN--\":77:93   */\n      returndatasize\n        /* \"--CODEGEN--\":74:75   */\n      0x00\n        /* \"--CODEGEN--\":67:94   */\n      revert\n        /* \"--CODEGEN--\":5:7   */\n    tag_482:\n        /* \"TimeAlly.sol\":22840:22880  nrtManager.UpdateLuckpool(_loanInterest) */\n      pop\n      pop\n      pop\n      pop\n      mload(0x40)\n      returndatasize\n        /* \"--CODEGEN--\":13:15   */\n      0x20\n        /* \"--CODEGEN--\":8:11   */\n      dup2\n        /* \"--CODEGEN--\":5:16   */\n      lt\n        /* \"--CODEGEN--\":2:4   */\n      iszero\n      tag_483\n      jumpi\n        /* \"--CODEGEN--\":29:30   */\n      0x00\n        /* \"--CODEGEN--\":26:27   */\n      dup1\n        /* \"--CODEGEN--\":19:31   */\n      revert\n        /* \"--CODEGEN--\":2:4   */\n    tag_483:\n        /* \"TimeAlly.sol\":22840:22880  nrtManager.UpdateLuckpool(_loanInterest) */\n      dup2\n      add\n      swap1\n      dup1\n      dup1\n      mload\n      swap1\n      0x20\n      add\n      swap1\n      swap3\n      swap2\n      swap1\n      pop\n      pop\n      pop\n        /* \"TimeAlly.sol\":22831:22882  require( nrtManager.UpdateLuckpool(_loanInterest) ) */\n      tag_484\n      jumpi\n      0x00\n      dup1\n      revert\n    tag_484:\n        /* \"TimeAlly.sol\":22893:22898  loans */\n      0x08\n        /* \"TimeAlly.sol\":22893:22910  loans[msg.sender] */\n      0x00\n        /* \"TimeAlly.sol\":22899:22909  msg.sender */\n      caller\n        /* \"TimeAlly.sol\":22893:22910  loans[msg.sender] */\n      0xffffffffffffffffffffffffffffffffffffffff\n      and\n      0xffffffffffffffffffffffffffffffffffffffff\n      and\n      dup2\n      mstore\n      0x20\n      add\n      swap1\n      dup2\n      mstore\n      0x20\n      add\n      0x00\n      keccak256\n        /* \"TimeAlly.sol\":22916:23096  Loan({... */\n      mload(0x40)\n      dup1\n      0xa0\n      add\n      0x40\n      mstore\n      dup1\n        /* \"TimeAlly.sol\":22948:22960  _exaEsAmount */\n      dup10\n        /* \"TimeAlly.sol\":22916:23096  Loan({... */\n      dup2\n      mstore\n      0x20\n      add\n        /* \"TimeAlly.sol\":22985:22988  now */\n      timestamp\n        /* \"TimeAlly.sol\":22916:23096  Loan({... */\n      dup2\n      mstore\n      0x20\n      add\n        /* \"TimeAlly.sol\":23014:23025  _loanPlanId */\n      dup11\n        /* \"TimeAlly.sol\":22916:23096  Loan({... */\n      dup2\n      mstore\n      0x20\n      add\n        /* \"TimeAlly.sol\":23047:23048  1 */\n      0x01\n        /* \"TimeAlly.sol\":22916:23096  Loan({... */\n      dup2\n      mstore\n      0x20\n      add\n        /* \"TimeAlly.sol\":23074:23085  _stakingIds */\n      dup9\n        /* \"TimeAlly.sol\":22916:23096  Loan({... */\n      dup2\n      mstore\n      pop\n        /* \"TimeAlly.sol\":22893:23097  loans[msg.sender].push(Loan({... */\n      swap1\n      dup1\n        /* \"--CODEGEN--\":39:40   */\n      0x01\n        /* \"--CODEGEN--\":33:36   */\n      dup2\n        /* \"--CODEGEN--\":27:37   */\n      sload\n        /* \"--CODEGEN--\":23:41   */\n      add\n        /* \"--CODEGEN--\":57:67   */\n      dup1\n        /* \"--CODEGEN--\":52:55   */\n      dup3\n        /* \"--CODEGEN--\":45:68   */\n      sstore\n        /* \"--CODEGEN--\":79:89   */\n      dup1\n        /* \"--CODEGEN--\":72:89   */\n      swap2\n      pop\n        /* \"--CODEGEN--\":0:93   */\n      pop\n        /* \"TimeAlly.sol\":22893:23097  loans[msg.sender].push(Loan({... */\n      swap1\n      0x01\n      dup3\n      sub\n      swap1\n      0x00\n      mstore\n      keccak256(0x00, 0x20)\n      swap1\n      0x05\n      mul\n      add\n      0x00\n      swap1\n      swap2\n      swap3\n      swap1\n      swap2\n      swap1\n      swap2\n      pop\n      0x00\n      dup3\n      add\n      mload\n      dup2\n      0x00\n      add\n      sstore\n      0x20\n      dup3\n      add\n      mload\n      dup2\n      0x01\n      add\n      sstore\n      0x40\n      dup3\n      add\n      mload\n      dup2\n      0x02\n      add\n      sstore\n      0x60\n      dup3\n      add\n      mload\n      dup2\n      0x03\n      add\n      sstore\n      0x80\n      dup3\n      add\n      mload\n      dup2\n      0x04\n      add\n      swap1\n      dup1\n      mload\n      swap1\n      0x20\n      add\n      swap1\n      tag_486\n      swap3\n      swap2\n      swap1\n      tag_487\n      jump\t// in\n    tag_486:\n      pop\n      pop\n      pop\n      pop\n        /* \"TimeAlly.sol\":23150:23155  token */\n      0x02\n      0x00\n      swap1\n      sload\n      swap1\n      0x0100\n      exp\n      swap1\n      div\n      0xffffffffffffffffffffffffffffffffffffffff\n      and\n        /* \"TimeAlly.sol\":23150:23164  token.transfer */\n      0xffffffffffffffffffffffffffffffffffffffff\n      and\n      0xa9059cbb\n        /* \"TimeAlly.sol\":23165:23175  msg.sender */\n      caller\n        /* \"TimeAlly.sol\":23177:23198  _loanAmountToTransfer */\n      dup4\n        /* \"TimeAlly.sol\":23150:23199  token.transfer(msg.sender, _loanAmountToTransfer) */\n      mload(0x40)\n      dup4\n      0xffffffff\n      and\n      0xe0\n      shl\n      dup2\n      mstore\n      0x04\n      add\n      dup1\n      dup4\n      0xffffffffffffffffffffffffffffffffffffffff\n      and\n      0xffffffffffffffffffffffffffffffffffffffff\n      and\n      dup2\n      mstore\n      0x20\n      add\n      dup3\n      dup2\n      mstore\n      0x20\n      add\n      swap3\n      pop\n      pop\n      pop\n      0x20\n      mload(0x40)\n      dup1\n      dup4\n      sub\n      dup2\n      0x00\n      dup8\n      dup1\n      extcodesize\n      iszero\n        /* \"--CODEGEN--\":8:17   */\n      dup1\n        /* \"--CODEGEN--\":5:7   */\n      iszero\n      tag_488\n      jumpi\n        /* \"--CODEGEN--\":30:31   */\n      0x00\n        /* \"--CODEGEN--\":27:28   */\n      dup1\n        /* \"--CODEGEN--\":20:32   */\n      revert\n        /* \"--CODEGEN--\":5:7   */\n    tag_488:\n        /* \"TimeAlly.sol\":23150:23199  token.transfer(msg.sender, _loanAmountToTransfer) */\n      pop\n      gas\n      call\n      iszero\n        /* \"--CODEGEN--\":8:17   */\n      dup1\n        /* \"--CODEGEN--\":5:7   */\n      iszero\n      tag_489\n      jumpi\n        /* \"--CODEGEN--\":45:61   */\n      returndatasize\n        /* \"--CODEGEN--\":42:43   */\n      0x00\n        /* \"--CODEGEN--\":39:40   */\n      dup1\n        /* \"--CODEGEN--\":24:62   */\n      returndatacopy\n        /* \"--CODEGEN--\":77:93   */\n      returndatasize\n        /* \"--CODEGEN--\":74:75   */\n      0x00\n        /* \"--CODEGEN--\":67:94   */\n      revert\n        /* \"--CODEGEN--\":5:7   */\n    tag_489:\n        /* \"TimeAlly.sol\":23150:23199  token.transfer(msg.sender, _loanAmountToTransfer) */\n      pop\n      pop\n      pop\n      pop\n      mload(0x40)\n      returndatasize\n        /* \"--CODEGEN--\":13:15   */\n      0x20\n        /* \"--CODEGEN--\":8:11   */\n      dup2\n        /* \"--CODEGEN--\":5:16   */\n      lt\n        /* \"--CODEGEN--\":2:4   */\n      iszero\n      tag_490\n      jumpi\n        /* \"--CODEGEN--\":29:30   */\n      0x00\n        /* \"--CODEGEN--\":26:27   */\n      dup1\n        /* \"--CODEGEN--\":19:31   */\n      revert\n        /* \"--CODEGEN--\":2:4   */\n    tag_490:\n        /* \"TimeAlly.sol\":23150:23199  token.transfer(msg.sender, _loanAmountToTransfer) */\n      dup2\n      add\n      swap1\n      dup1\n      dup1\n      mload\n      swap1\n      0x20\n      add\n      swap1\n      swap3\n      swap2\n      swap1\n      pop\n      pop\n      pop\n        /* \"TimeAlly.sol\":23141:23201  require( token.transfer(msg.sender, _loanAmountToTransfer) ) */\n      tag_491\n      jumpi\n      0x00\n      dup1\n      revert\n    tag_491:\n        /* \"TimeAlly.sol\":23237:23248  _loanPlanId */\n      dup8\n        /* \"TimeAlly.sol\":23225:23235  msg.sender */\n      caller\n        /* \"TimeAlly.sol\":23217:23308  NewLoan(msg.sender, _loanPlanId, _exaEsAmount, _loanInterest, loans[msg.sender].length - 1) */\n      0xffffffffffffffffffffffffffffffffffffffff\n      and\n      0x583f4a449110798c282200ea42774808b8147fa4bcb89a6ca406dd0650e034e7\n        /* \"TimeAlly.sol\":23250:23262  _exaEsAmount */\n      dup10\n        /* \"TimeAlly.sol\":23264:23277  _loanInterest */\n      dup6\n        /* \"TimeAlly.sol\":23306:23307  1 */\n      0x01\n        /* \"TimeAlly.sol\":23279:23284  loans */\n      0x08\n        /* \"TimeAlly.sol\":23279:23296  loans[msg.sender] */\n      0x00\n        /* \"TimeAlly.sol\":23285:23295  msg.sender */\n      caller\n        /* \"TimeAlly.sol\":23279:23296  loans[msg.sender] */\n      0xffffffffffffffffffffffffffffffffffffffff\n      and\n      0xffffffffffffffffffffffffffffffffffffffff\n      and\n      dup2\n      mstore\n      0x20\n      add\n      swap1\n      dup2\n      mstore\n      0x20\n      add\n      0x00\n      keccak256\n        /* \"TimeAlly.sol\":23279:23303  loans[msg.sender].length */\n      dup1\n      sload\n      swap1\n      pop\n        /* \"TimeAlly.sol\":23279:23307  loans[msg.sender].length - 1 */\n      sub\n        /* \"TimeAlly.sol\":23217:23308  NewLoan(msg.sender, _loanPlanId, _exaEsAmount, _loanInterest, loans[msg.sender].length - 1) */\n      mload(0x40)\n      dup1\n      dup5\n      dup2\n      mstore\n      0x20\n      add\n      dup4\n      dup2\n      mstore\n      0x20\n      add\n      dup3\n      dup2\n      mstore\n      0x20\n      add\n      swap4\n      pop\n      pop\n      pop\n      pop\n      mload(0x40)\n      dup1\n      swap2\n      sub\n      swap1\n      log3\n        /* \"TimeAlly.sol\":20128:23315  function takeLoanOnSelfStaking(uint256 _loanPlanId, uint256 _exaEsAmount, uint256[] memory _stakingIds) public {... */\n      pop\n      pop\n      pop\n      pop\n      pop\n      pop\n      pop\n      pop\n      jump\t// out\n        /* \"TimeAlly.sol\":6620:7068  function createLoanPlan(uint256 _loanMonths, uint256 _loanRate, uint256 _maxLoanAmountPercent) public onlyOwner {... */\n    tag_129:\n        /* \"TimeAlly.sol\":4467:4472  owner */\n      0x01\n      0x00\n      swap1\n      sload\n      swap1\n      0x0100\n      exp\n      swap1\n      div\n      0xffffffffffffffffffffffffffffffffffffffff\n      and\n        /* \"TimeAlly.sol\":4453:4472  msg.sender == owner */\n      0xffffffffffffffffffffffffffffffffffffffff\n      and\n        /* \"TimeAlly.sol\":4453:4463  msg.sender */\n      caller\n        /* \"TimeAlly.sol\":4453:4472  msg.sender == owner */\n      0xffffffffffffffffffffffffffffffffffffffff\n      and\n      eq\n        /* \"TimeAlly.sol\":4434:4522  require(... */\n      tag_493\n      jumpi\n      0x00\n      dup1\n      revert\n    tag_493:\n        /* \"TimeAlly.sol\":6775:6778  100 */\n      0x64\n        /* \"TimeAlly.sol\":6750:6771  _maxLoanAmountPercent */\n      dup2\n        /* \"TimeAlly.sol\":6750:6778  _maxLoanAmountPercent <= 100 */\n      gt\n      iszero\n        /* \"TimeAlly.sol\":6742:6888  require(_maxLoanAmountPercent <= 100... */\n      tag_495\n      jumpi\n      0x00\n      dup1\n      revert\n    tag_495:\n        /* \"TimeAlly.sol\":6898:6907  loanPlans */\n      0x06\n        /* \"TimeAlly.sol\":6913:7060  LoanPlan({... */\n      mload(0x40)\n      dup1\n      0x60\n      add\n      0x40\n      mstore\n      dup1\n        /* \"TimeAlly.sol\":6948:6959  _loanMonths */\n      dup6\n        /* \"TimeAlly.sol\":6913:7060  LoanPlan({... */\n      dup2\n      mstore\n      0x20\n      add\n        /* \"TimeAlly.sol\":6983:6992  _loanRate */\n      dup5\n        /* \"TimeAlly.sol\":6913:7060  LoanPlan({... */\n      dup2\n      mstore\n      0x20\n      add\n        /* \"TimeAlly.sol\":7028:7049  _maxLoanAmountPercent */\n      dup4\n        /* \"TimeAlly.sol\":6913:7060  LoanPlan({... */\n      dup2\n      mstore\n      pop\n        /* \"TimeAlly.sol\":6898:7061  loanPlans.push(LoanPlan({... */\n      swap1\n      dup1\n        /* \"--CODEGEN--\":39:40   */\n      0x01\n        /* \"--CODEGEN--\":33:36   */\n      dup2\n        /* \"--CODEGEN--\":27:37   */\n      sload\n        /* \"--CODEGEN--\":23:41   */\n      add\n        /* \"--CODEGEN--\":57:67   */\n      dup1\n        /* \"--CODEGEN--\":52:55   */\n      dup3\n        /* \"--CODEGEN--\":45:68   */\n      sstore\n        /* \"--CODEGEN--\":79:89   */\n      dup1\n        /* \"--CODEGEN--\":72:89   */\n      swap2\n      pop\n        /* \"--CODEGEN--\":0:93   */\n      pop\n        /* \"TimeAlly.sol\":6898:7061  loanPlans.push(LoanPlan({... */\n      swap1\n      0x01\n      dup3\n      sub\n      swap1\n      0x00\n      mstore\n      keccak256(0x00, 0x20)\n      swap1\n      0x03\n      mul\n      add\n      0x00\n      swap1\n      swap2\n      swap3\n      swap1\n      swap2\n      swap1\n      swap2\n      pop\n      0x00\n      dup3\n      add\n      mload\n      dup2\n      0x00\n      add\n      sstore\n      0x20\n      dup3\n      add\n      mload\n      dup2\n      0x01\n      add\n      sstore\n      0x40\n      dup3\n      add\n      mload\n      dup2\n      0x02\n      add\n      sstore\n      pop\n      pop\n      pop\n        /* \"TimeAlly.sol\":6620:7068  function createLoanPlan(uint256 _loanMonths, uint256 _loanRate, uint256 _maxLoanAmountPercent) public onlyOwner {... */\n      pop\n      pop\n      pop\n      jump\t// out\n        /* \"TimeAlly.sol\":12040:13362  function isStakingActive(... */\n    tag_132:\n        /* \"TimeAlly.sol\":12176:12180  bool */\n      0x00\n        /* \"TimeAlly.sol\":12471:12479  _atMonth */\n      dup2\n        /* \"TimeAlly.sol\":12466:12467  1 */\n      0x01\n        /* \"TimeAlly.sol\":12416:12424  stakings */\n      0x07\n        /* \"TimeAlly.sol\":12416:12438  stakings[_userAddress] */\n      0x00\n        /* \"TimeAlly.sol\":12425:12437  _userAddress */\n      dup8\n        /* \"TimeAlly.sol\":12416:12438  stakings[_userAddress] */\n      0xffffffffffffffffffffffffffffffffffffffff\n      and\n      0xffffffffffffffffffffffffffffffffffffffff\n      and\n      dup2\n      mstore\n      0x20\n      add\n      swap1\n      dup2\n      mstore\n      0x20\n      add\n      0x00\n      keccak256\n        /* \"TimeAlly.sol\":12439:12449  _stakingId */\n      dup6\n        /* \"TimeAlly.sol\":12416:12450  stakings[_userAddress][_stakingId] */\n      dup2\n      sload\n      dup2\n      lt\n      tag_498\n      jumpi\n      invalid\n    tag_498:\n      swap1\n      0x00\n      mstore\n      keccak256(0x00, 0x20)\n      swap1\n      0x09\n      mul\n      add\n        /* \"TimeAlly.sol\":12416:12463  stakings[_userAddress][_stakingId].stakingMonth */\n      0x02\n      add\n      sload\n        /* \"TimeAlly.sol\":12416:12467  stakings[_userAddress][_stakingId].stakingMonth + 1 */\n      add\n        /* \"TimeAlly.sol\":12416:12479  stakings[_userAddress][_stakingId].stakingMonth + 1 <= _atMonth */\n      gt\n      iszero\n        /* \"TimeAlly.sol\":12416:12703  stakings[_userAddress][_stakingId].stakingMonth + 1 <= _atMonth... */\n      dup1\n      iszero\n      tag_500\n      jumpi\n      pop\n        /* \"TimeAlly.sol\":12695:12703  _atMonth */\n      dup2\n        /* \"TimeAlly.sol\":12620:12632  stakingPlans */\n      0x05\n        /* \"TimeAlly.sol\":12634:12642  stakings */\n      0x07\n        /* \"TimeAlly.sol\":12634:12656  stakings[_userAddress] */\n      0x00\n        /* \"TimeAlly.sol\":12643:12655  _userAddress */\n      dup8\n        /* \"TimeAlly.sol\":12634:12656  stakings[_userAddress] */\n      0xffffffffffffffffffffffffffffffffffffffff\n      and\n      0xffffffffffffffffffffffffffffffffffffffff\n      and\n      dup2\n      mstore\n      0x20\n      add\n      swap1\n      dup2\n      mstore\n      0x20\n      add\n      0x00\n      keccak256\n        /* \"TimeAlly.sol\":12657:12667  _stakingId */\n      dup6\n        /* \"TimeAlly.sol\":12634:12668  stakings[_userAddress][_stakingId] */\n      dup2\n      sload\n      dup2\n      lt\n      tag_501\n      jumpi\n      invalid\n    tag_501:\n      swap1\n      0x00\n      mstore\n      keccak256(0x00, 0x20)\n      swap1\n      0x09\n      mul\n      add\n        /* \"TimeAlly.sol\":12634:12682  stakings[_userAddress][_stakingId].stakingPlanId */\n      0x03\n      add\n      sload\n        /* \"TimeAlly.sol\":12620:12684  stakingPlans[ stakings[_userAddress][_stakingId].stakingPlanId ] */\n      dup2\n      sload\n      dup2\n      lt\n      tag_503\n      jumpi\n      invalid\n    tag_503:\n      swap1\n      0x00\n      mstore\n      keccak256(0x00, 0x20)\n      swap1\n      0x03\n      mul\n      add\n        /* \"TimeAlly.sol\":12620:12691  stakingPlans[ stakings[_userAddress][_stakingId].stakingPlanId ].months */\n      0x00\n      add\n      sload\n        /* \"TimeAlly.sol\":12570:12578  stakings */\n      0x07\n        /* \"TimeAlly.sol\":12570:12592  stakings[_userAddress] */\n      0x00\n        /* \"TimeAlly.sol\":12579:12591  _userAddress */\n      dup8\n        /* \"TimeAlly.sol\":12570:12592  stakings[_userAddress] */\n      0xffffffffffffffffffffffffffffffffffffffff\n      and\n      0xffffffffffffffffffffffffffffffffffffffff\n      and\n      dup2\n      mstore\n      0x20\n      add\n      swap1\n      dup2\n      mstore\n      0x20\n      add\n      0x00\n      keccak256\n        /* \"TimeAlly.sol\":12593:12603  _stakingId */\n      dup6\n        /* \"TimeAlly.sol\":12570:12604  stakings[_userAddress][_stakingId] */\n      dup2\n      sload\n      dup2\n      lt\n      tag_505\n      jumpi\n      invalid\n    tag_505:\n      swap1\n      0x00\n      mstore\n      keccak256(0x00, 0x20)\n      swap1\n      0x09\n      mul\n      add\n        /* \"TimeAlly.sol\":12570:12617  stakings[_userAddress][_stakingId].stakingMonth */\n      0x02\n      add\n      sload\n        /* \"TimeAlly.sol\":12570:12691  stakings[_userAddress][_stakingId].stakingMonth + stakingPlans[ stakings[_userAddress][_stakingId].stakingPlanId ].months */\n      add\n        /* \"TimeAlly.sol\":12570:12703  stakings[_userAddress][_stakingId].stakingMonth + stakingPlans[ stakings[_userAddress][_stakingId].stakingPlanId ].months >= _atMonth */\n      lt\n      iszero\n        /* \"TimeAlly.sol\":12416:12703  stakings[_userAddress][_stakingId].stakingMonth + 1 <= _atMonth... */\n    tag_500:\n        /* \"TimeAlly.sol\":12416:12821  stakings[_userAddress][_stakingId].stakingMonth + 1 <= _atMonth... */\n      dup1\n      iszero\n      tag_507\n      jumpi\n      pop\n        /* \"TimeAlly.sol\":12820:12821  1 */\n      0x01\n        /* \"TimeAlly.sol\":12775:12783  stakings */\n      0x07\n        /* \"TimeAlly.sol\":12775:12797  stakings[_userAddress] */\n      0x00\n        /* \"TimeAlly.sol\":12784:12796  _userAddress */\n      dup7\n        /* \"TimeAlly.sol\":12775:12797  stakings[_userAddress] */\n      0xffffffffffffffffffffffffffffffffffffffff\n      and\n      0xffffffffffffffffffffffffffffffffffffffff\n      and\n      dup2\n      mstore\n      0x20\n      add\n      swap1\n      dup2\n      mstore\n      0x20\n      add\n      0x00\n      keccak256\n        /* \"TimeAlly.sol\":12798:12808  _stakingId */\n      dup5\n        /* \"TimeAlly.sol\":12775:12809  stakings[_userAddress][_stakingId] */\n      dup2\n      sload\n      dup2\n      lt\n      tag_508\n      jumpi\n      invalid\n    tag_508:\n      swap1\n      0x00\n      mstore\n      keccak256(0x00, 0x20)\n      swap1\n      0x09\n      mul\n      add\n        /* \"TimeAlly.sol\":12775:12816  stakings[_userAddress][_stakingId].status */\n      0x04\n      add\n      sload\n        /* \"TimeAlly.sol\":12775:12821  stakings[_userAddress][_stakingId].status == 1 */\n      eq\n        /* \"TimeAlly.sol\":12416:12821  stakings[_userAddress][_stakingId].stakingMonth + 1 <= _atMonth... */\n    tag_507:\n        /* \"TimeAlly.sol\":12416:13341  stakings[_userAddress][_stakingId].stakingMonth + 1 <= _atMonth... */\n      dup1\n      iszero\n      tag_510\n      jumpi\n      pop\n        /* \"TimeAlly.sol\":13002:13010  _atMonth */\n      dup2\n        /* \"TimeAlly.sol\":12981:12998  getCurrentMonth() */\n      tag_511\n        /* \"TimeAlly.sol\":12981:12996  getCurrentMonth */\n      tag_137\n        /* \"TimeAlly.sol\":12981:12998  getCurrentMonth() */\n      jump\t// in\n    tag_511:\n        /* \"TimeAlly.sol\":12981:13010  getCurrentMonth() != _atMonth */\n      eq\n      iszero\n        /* \"TimeAlly.sol\":12981:13325  getCurrentMonth() != _atMonth... */\n      dup1\n      tag_512\n      jumpi\n      pop\n        /* \"TimeAlly.sol\":13035:13325  stakings[_userAddress][_stakingId].timestamp... */\n      tag_513\n        /* \"TimeAlly.sol\":13140:13297  getCurrentMonth()... */\n      tag_514\n        /* \"TimeAlly.sol\":13277:13296  earthSecondsInMonth */\n      sload(0x04)\n        /* \"TimeAlly.sol\":13140:13241  getCurrentMonth()... */\n      tag_515\n        /* \"TimeAlly.sol\":13193:13201  stakings */\n      0x07\n        /* \"TimeAlly.sol\":13193:13215  stakings[_userAddress] */\n      0x00\n        /* \"TimeAlly.sol\":13202:13214  _userAddress */\n      dup10\n        /* \"TimeAlly.sol\":13193:13215  stakings[_userAddress] */\n      0xffffffffffffffffffffffffffffffffffffffff\n      and\n      0xffffffffffffffffffffffffffffffffffffffff\n      and\n      dup2\n      mstore\n      0x20\n      add\n      swap1\n      dup2\n      mstore\n      0x20\n      add\n      0x00\n      keccak256\n        /* \"TimeAlly.sol\":13216:13226  _stakingId */\n      dup8\n        /* \"TimeAlly.sol\":13193:13227  stakings[_userAddress][_stakingId] */\n      dup2\n      sload\n      dup2\n      lt\n      tag_516\n      jumpi\n      invalid\n    tag_516:\n      swap1\n      0x00\n      mstore\n      keccak256(0x00, 0x20)\n      swap1\n      0x09\n      mul\n      add\n        /* \"TimeAlly.sol\":13193:13240  stakings[_userAddress][_stakingId].stakingMonth */\n      0x02\n      add\n      sload\n        /* \"TimeAlly.sol\":13140:13157  getCurrentMonth() */\n      tag_518\n        /* \"TimeAlly.sol\":13140:13155  getCurrentMonth */\n      tag_137\n        /* \"TimeAlly.sol\":13140:13157  getCurrentMonth() */\n      jump\t// in\n    tag_518:\n        /* \"TimeAlly.sol\":13140:13192  getCurrentMonth()... */\n      tag_204\n      swap1\n        /* \"TimeAlly.sol\":13140:13241  getCurrentMonth()... */\n      swap2\n      swap1\n      0xffffffff\n      and\n      jump\t// in\n    tag_515:\n        /* \"TimeAlly.sol\":13140:13276  getCurrentMonth()... */\n      tag_179\n      swap1\n        /* \"TimeAlly.sol\":13140:13297  getCurrentMonth()... */\n      swap2\n      swap1\n      0xffffffff\n      and\n      jump\t// in\n    tag_514:\n        /* \"TimeAlly.sol\":13035:13043  stakings */\n      0x07\n        /* \"TimeAlly.sol\":13035:13057  stakings[_userAddress] */\n      0x00\n        /* \"TimeAlly.sol\":13044:13056  _userAddress */\n      dup8\n        /* \"TimeAlly.sol\":13035:13057  stakings[_userAddress] */\n      0xffffffffffffffffffffffffffffffffffffffff\n      and\n      0xffffffffffffffffffffffffffffffffffffffff\n      and\n      dup2\n      mstore\n      0x20\n      add\n      swap1\n      dup2\n      mstore\n      0x20\n      add\n      0x00\n      keccak256\n        /* \"TimeAlly.sol\":13058:13068  _stakingId */\n      dup6\n        /* \"TimeAlly.sol\":13035:13069  stakings[_userAddress][_stakingId] */\n      dup2\n      sload\n      dup2\n      lt\n      tag_519\n      jumpi\n      invalid\n    tag_519:\n      swap1\n      0x00\n      mstore\n      keccak256(0x00, 0x20)\n      swap1\n      0x09\n      mul\n      add\n        /* \"TimeAlly.sol\":13035:13079  stakings[_userAddress][_stakingId].timestamp */\n      0x01\n      add\n      sload\n        /* \"TimeAlly.sol\":13035:13110  stakings[_userAddress][_stakingId].timestamp... */\n      tag_198\n      swap1\n        /* \"TimeAlly.sol\":13035:13325  stakings[_userAddress][_stakingId].timestamp... */\n      swap2\n      swap1\n      0xffffffff\n      and\n      jump\t// in\n    tag_513:\n        /* \"TimeAlly.sol\":13028:13031  now */\n      timestamp\n        /* \"TimeAlly.sol\":13028:13325  now >= stakings[_userAddress][_stakingId].timestamp... */\n      lt\n      iszero\n        /* \"TimeAlly.sol\":12981:13325  getCurrentMonth() != _atMonth... */\n    tag_512:\n        /* \"TimeAlly.sol\":12416:13341  stakings[_userAddress][_stakingId].stakingMonth + 1 <= _atMonth... */\n    tag_510:\n        /* \"TimeAlly.sol\":12320:13355  return (... */\n      swap1\n      pop\n        /* \"TimeAlly.sol\":12040:13362  function isStakingActive(... */\n      swap4\n      swap3\n      pop\n      pop\n      pop\n      jump\t// out\n        /* \"TimeAlly.sol\":10371:11693  function claimLaunchReward(uint256 _stakingPlanId) public {... */\n    tag_135:\n        /* \"TimeAlly.sol\":10600:10601  0 */\n      0x00\n        /* \"TimeAlly.sol\":10573:10585  launchReward */\n      0x09\n        /* \"TimeAlly.sol\":10573:10597  launchReward[msg.sender] */\n      0x00\n        /* \"TimeAlly.sol\":10586:10596  msg.sender */\n      caller\n        /* \"TimeAlly.sol\":10573:10597  launchReward[msg.sender] */\n      0xffffffffffffffffffffffffffffffffffffffff\n      and\n      0xffffffffffffffffffffffffffffffffffffffff\n      and\n      dup2\n      mstore\n      0x20\n      add\n      swap1\n      dup2\n      mstore\n      0x20\n      add\n      0x00\n      keccak256\n      sload\n        /* \"TimeAlly.sol\":10573:10601  launchReward[msg.sender] > 0 */\n      gt\n        /* \"TimeAlly.sol\":10565:10663  require(launchReward[msg.sender] > 0... */\n      tag_522\n      jumpi\n      0x00\n      dup1\n      revert\n    tag_522:\n        /* \"TimeAlly.sol\":10673:10687  uint256 reward */\n      0x00\n        /* \"TimeAlly.sol\":10690:10702  launchReward */\n      0x09\n        /* \"TimeAlly.sol\":10690:10714  launchReward[msg.sender] */\n      0x00\n        /* \"TimeAlly.sol\":10703:10713  msg.sender */\n      caller\n        /* \"TimeAlly.sol\":10690:10714  launchReward[msg.sender] */\n      0xffffffffffffffffffffffffffffffffffffffff\n      and\n      0xffffffffffffffffffffffffffffffffffffffff\n      and\n      dup2\n      mstore\n      0x20\n      add\n      swap1\n      dup2\n      mstore\n      0x20\n      add\n      0x00\n      keccak256\n      sload\n        /* \"TimeAlly.sol\":10673:10714  uint256 reward = launchReward[msg.sender] */\n      swap1\n      pop\n        /* \"TimeAlly.sol\":10751:10752  0 */\n      0x00\n        /* \"TimeAlly.sol\":10724:10736  launchReward */\n      0x09\n        /* \"TimeAlly.sol\":10724:10748  launchReward[msg.sender] */\n      0x00\n        /* \"TimeAlly.sol\":10737:10747  msg.sender */\n      caller\n        /* \"TimeAlly.sol\":10724:10748  launchReward[msg.sender] */\n      0xffffffffffffffffffffffffffffffffffffffff\n      and\n      0xffffffffffffffffffffffffffffffffffffffff\n      and\n      dup2\n      mstore\n      0x20\n      add\n      swap1\n      dup2\n      mstore\n      0x20\n      add\n      0x00\n      keccak256\n        /* \"TimeAlly.sol\":10724:10752  launchReward[msg.sender] = 0 */\n      dup2\n      swap1\n      sstore\n      pop\n        /* \"TimeAlly.sol\":10816:10837  uint256 stakeEndMonth */\n      0x00\n        /* \"TimeAlly.sol\":10860:10872  stakingPlans */\n      0x05\n        /* \"TimeAlly.sol\":10873:10887  _stakingPlanId */\n      dup4\n        /* \"TimeAlly.sol\":10860:10888  stakingPlans[_stakingPlanId] */\n      dup2\n      sload\n      dup2\n      lt\n      tag_523\n      jumpi\n      invalid\n    tag_523:\n      swap1\n      0x00\n      mstore\n      keccak256(0x00, 0x20)\n      swap1\n      0x03\n      mul\n      add\n        /* \"TimeAlly.sol\":10860:10895  stakingPlans[_stakingPlanId].months */\n      0x00\n      add\n      sload\n        /* \"TimeAlly.sol\":10840:10857  getCurrentMonth() */\n      tag_525\n        /* \"TimeAlly.sol\":10840:10855  getCurrentMonth */\n      tag_137\n        /* \"TimeAlly.sol\":10840:10857  getCurrentMonth() */\n      jump\t// in\n    tag_525:\n        /* \"TimeAlly.sol\":10840:10895  getCurrentMonth() + stakingPlans[_stakingPlanId].months */\n      add\n        /* \"TimeAlly.sol\":10816:10895  uint256 stakeEndMonth = getCurrentMonth() + stakingPlans[_stakingPlanId].months */\n      swap1\n      pop\n        /* \"TimeAlly.sol\":11051:11064  uint256 month */\n      0x00\n        /* \"TimeAlly.sol\":11087:11088  1 */\n      0x01\n        /* \"TimeAlly.sol\":11067:11084  getCurrentMonth() */\n      tag_529\n        /* \"TimeAlly.sol\":11067:11082  getCurrentMonth */\n      tag_137\n        /* \"TimeAlly.sol\":11067:11084  getCurrentMonth() */\n      jump\t// in\n    tag_529:\n        /* \"TimeAlly.sol\":11067:11088  getCurrentMonth() + 1 */\n      add\n        /* \"TimeAlly.sol\":11051:11088  uint256 month = getCurrentMonth() + 1 */\n      swap1\n      pop\n        /* \"TimeAlly.sol\":11036:11302  for(... */\n    tag_526:\n        /* \"TimeAlly.sol\":11109:11122  stakeEndMonth */\n      dup2\n        /* \"TimeAlly.sol\":11100:11105  month */\n      dup2\n        /* \"TimeAlly.sol\":11100:11122  month <= stakeEndMonth */\n      gt\n        /* \"TimeAlly.sol\":11036:11302  for(... */\n      tag_527\n      jumpi\n        /* \"TimeAlly.sol\":11195:11233  totalActiveStakings[month].add(reward) */\n      tag_530\n        /* \"TimeAlly.sol\":11226:11232  reward */\n      dup4\n        /* \"TimeAlly.sol\":11195:11214  totalActiveStakings */\n      0x0a\n        /* \"TimeAlly.sol\":11195:11221  totalActiveStakings[month] */\n      0x00\n        /* \"TimeAlly.sol\":11215:11220  month */\n      dup5\n        /* \"TimeAlly.sol\":11195:11221  totalActiveStakings[month] */\n      dup2\n      mstore\n      0x20\n      add\n      swap1\n      dup2\n      mstore\n      0x20\n      add\n      0x00\n      keccak256\n      sload\n        /* \"TimeAlly.sol\":11195:11225  totalActiveStakings[month].add */\n      tag_198\n      swap1\n        /* \"TimeAlly.sol\":11195:11233  totalActiveStakings[month].add(reward) */\n      swap2\n      swap1\n      0xffffffff\n      and\n      jump\t// in\n    tag_530:\n        /* \"TimeAlly.sol\":11166:11185  totalActiveStakings */\n      0x0a\n        /* \"TimeAlly.sol\":11166:11192  totalActiveStakings[month] */\n      0x00\n        /* \"TimeAlly.sol\":11186:11191  month */\n      dup4\n        /* \"TimeAlly.sol\":11166:11192  totalActiveStakings[month] */\n      dup2\n      mstore\n      0x20\n      add\n      swap1\n      dup2\n      mstore\n      0x20\n      add\n      0x00\n      keccak256\n        /* \"TimeAlly.sol\":11166:11233  totalActiveStakings[month] = totalActiveStakings[month].add(reward) */\n      dup2\n      swap1\n      sstore\n      pop\n        /* \"TimeAlly.sol\":11134:11141  month++ */\n      dup1\n      dup1\n      0x01\n      add\n      swap2\n      pop\n      pop\n        /* \"TimeAlly.sol\":11036:11302  for(... */\n      jump(tag_526)\n    tag_527:\n      pop\n        /* \"TimeAlly.sol\":11312:11320  stakings */\n      0x07\n        /* \"TimeAlly.sol\":11312:11332  stakings[msg.sender] */\n      0x00\n        /* \"TimeAlly.sol\":11321:11331  msg.sender */\n      caller\n        /* \"TimeAlly.sol\":11312:11332  stakings[msg.sender] */\n      0xffffffffffffffffffffffffffffffffffffffff\n      and\n      0xffffffffffffffffffffffffffffffffffffffff\n      and\n      dup2\n      mstore\n      0x20\n      add\n      swap1\n      dup2\n      mstore\n      0x20\n      add\n      0x00\n      keccak256\n        /* \"TimeAlly.sol\":11338:11590  Staking({... */\n      mload(0x40)\n      dup1\n      0xe0\n      add\n      0x40\n      mstore\n      dup1\n        /* \"TimeAlly.sol\":11373:11379  reward */\n      dup5\n        /* \"TimeAlly.sol\":11338:11590  Staking({... */\n      dup2\n      mstore\n      0x20\n      add\n        /* \"TimeAlly.sol\":11404:11407  now */\n      timestamp\n        /* \"TimeAlly.sol\":11338:11590  Staking({... */\n      dup2\n      mstore\n      0x20\n      add\n        /* \"TimeAlly.sol\":11435:11452  getCurrentMonth() */\n      tag_531\n        /* \"TimeAlly.sol\":11435:11450  getCurrentMonth */\n      tag_137\n        /* \"TimeAlly.sol\":11435:11452  getCurrentMonth() */\n      jump\t// in\n    tag_531:\n        /* \"TimeAlly.sol\":11338:11590  Staking({... */\n      dup2\n      mstore\n      0x20\n      add\n        /* \"TimeAlly.sol\":11481:11495  _stakingPlanId */\n      dup6\n        /* \"TimeAlly.sol\":11338:11590  Staking({... */\n      dup2\n      mstore\n      0x20\n      add\n        /* \"TimeAlly.sol\":11517:11518  1 */\n      0x01\n        /* \"TimeAlly.sol\":11338:11590  Staking({... */\n      dup2\n      mstore\n      0x20\n      add\n        /* \"TimeAlly.sol\":11540:11541  0 */\n      0x00\n        /* \"TimeAlly.sol\":11338:11590  Staking({... */\n      dup2\n      mstore\n      0x20\n      add\n        /* \"TimeAlly.sol\":11578:11579  0 */\n      0x00\n        /* \"TimeAlly.sol\":11338:11590  Staking({... */\n      dup2\n      mstore\n      pop\n        /* \"TimeAlly.sol\":11312:11591  stakings[msg.sender].push(Staking({... */\n      swap1\n      dup1\n        /* \"--CODEGEN--\":39:40   */\n      0x01\n        /* \"--CODEGEN--\":33:36   */\n      dup2\n        /* \"--CODEGEN--\":27:37   */\n      sload\n        /* \"--CODEGEN--\":23:41   */\n      add\n        /* \"--CODEGEN--\":57:67   */\n      dup1\n        /* \"--CODEGEN--\":52:55   */\n      dup3\n        /* \"--CODEGEN--\":45:68   */\n      sstore\n        /* \"--CODEGEN--\":79:89   */\n      dup1\n        /* \"--CODEGEN--\":72:89   */\n      swap2\n      pop\n        /* \"--CODEGEN--\":0:93   */\n      pop\n        /* \"TimeAlly.sol\":11312:11591  stakings[msg.sender].push(Staking({... */\n      swap1\n      0x01\n      dup3\n      sub\n      swap1\n      0x00\n      mstore\n      keccak256(0x00, 0x20)\n      swap1\n      0x09\n      mul\n      add\n      0x00\n      swap1\n      swap2\n      swap3\n      swap1\n      swap2\n      swap1\n      swap2\n      pop\n      0x00\n      dup3\n      add\n      mload\n      dup2\n      0x00\n      add\n      sstore\n      0x20\n      dup3\n      add\n      mload\n      dup2\n      0x01\n      add\n      sstore\n      0x40\n      dup3\n      add\n      mload\n      dup2\n      0x02\n      add\n      sstore\n      0x60\n      dup3\n      add\n      mload\n      dup2\n      0x03\n      add\n      sstore\n      0x80\n      dup3\n      add\n      mload\n      dup2\n      0x04\n      add\n      sstore\n      0xa0\n      dup3\n      add\n      mload\n      dup2\n      0x05\n      add\n      sstore\n      0xc0\n      dup3\n      add\n      mload\n      dup2\n      0x06\n      add\n      sstore\n      pop\n      pop\n      pop\n        /* \"TimeAlly.sol\":11630:11644  _stakingPlanId */\n      dup3\n        /* \"TimeAlly.sol\":11618:11628  msg.sender */\n      caller\n        /* \"TimeAlly.sol\":11607:11686  NewStaking(msg.sender, _stakingPlanId, reward, stakings[msg.sender].length - 1) */\n      0xffffffffffffffffffffffffffffffffffffffff\n      and\n      0x680a0e2e97ad7c29da7985e37b699f19857c055166f801e50d90661eae30fcc3\n        /* \"TimeAlly.sol\":11646:11652  reward */\n      dup5\n        /* \"TimeAlly.sol\":11684:11685  1 */\n      0x01\n        /* \"TimeAlly.sol\":11654:11662  stakings */\n      0x07\n        /* \"TimeAlly.sol\":11654:11674  stakings[msg.sender] */\n      0x00\n        /* \"TimeAlly.sol\":11663:11673  msg.sender */\n      caller\n        /* \"TimeAlly.sol\":11654:11674  stakings[msg.sender] */\n      0xffffffffffffffffffffffffffffffffffffffff\n      and\n      0xffffffffffffffffffffffffffffffffffffffff\n      and\n      dup2\n      mstore\n      0x20\n      add\n      swap1\n      dup2\n      mstore\n      0x20\n      add\n      0x00\n      keccak256\n        /* \"TimeAlly.sol\":11654:11681  stakings[msg.sender].length */\n      dup1\n      sload\n      swap1\n      pop\n        /* \"TimeAlly.sol\":11654:11685  stakings[msg.sender].length - 1 */\n      sub\n        /* \"TimeAlly.sol\":11607:11686  NewStaking(msg.sender, _stakingPlanId, reward, stakings[msg.sender].length - 1) */\n      mload(0x40)\n      dup1\n      dup4\n      dup2\n      mstore\n      0x20\n      add\n      dup3\n      dup2\n      mstore\n      0x20\n      add\n      swap3\n      pop\n      pop\n      pop\n      mload(0x40)\n      dup1\n      swap2\n      sub\n      swap1\n      log3\n        /* \"TimeAlly.sol\":10371:11693  function claimLaunchReward(uint256 _stakingPlanId) public {... */\n      pop\n      pop\n      pop\n      jump\t// out\n        /* \"TimeAlly.sol\":5369:5479  function getCurrentMonth() public view returns (uint256) {... */\n    tag_137:\n        /* \"TimeAlly.sol\":5417:5424  uint256 */\n      0x00\n        /* \"TimeAlly.sol\":5471:5472  1 */\n      0x01\n        /* \"TimeAlly.sol\":5443:5461  timeAllyMonthlyNRT */\n      0x0b\n        /* \"TimeAlly.sol\":5443:5468  timeAllyMonthlyNRT.length */\n      dup1\n      sload\n      swap1\n      pop\n        /* \"TimeAlly.sol\":5443:5472  timeAllyMonthlyNRT.length - 1 */\n      sub\n        /* \"TimeAlly.sol\":5436:5472  return timeAllyMonthlyNRT.length - 1 */\n      swap1\n      pop\n        /* \"TimeAlly.sol\":5369:5479  function getCurrentMonth() public view returns (uint256) {... */\n      swap1\n      jump\t// out\n        /* \"TimeAlly.sol\":23456:25061  function repayLoanSelf(uint256 _loanId) public {... */\n    tag_140:\n        /* \"TimeAlly.sol\":23558:23559  1 */\n      0x01\n        /* \"TimeAlly.sol\":23521:23526  loans */\n      0x08\n        /* \"TimeAlly.sol\":23521:23538  loans[msg.sender] */\n      0x00\n        /* \"TimeAlly.sol\":23527:23537  msg.sender */\n      caller\n        /* \"TimeAlly.sol\":23521:23538  loans[msg.sender] */\n      0xffffffffffffffffffffffffffffffffffffffff\n      and\n      0xffffffffffffffffffffffffffffffffffffffff\n      and\n      dup2\n      mstore\n      0x20\n      add\n      swap1\n      dup2\n      mstore\n      0x20\n      add\n      0x00\n      keccak256\n        /* \"TimeAlly.sol\":23539:23546  _loanId */\n      dup3\n        /* \"TimeAlly.sol\":23521:23547  loans[msg.sender][_loanId] */\n      dup2\n      sload\n      dup2\n      lt\n      tag_535\n      jumpi\n      invalid\n    tag_535:\n      swap1\n      0x00\n      mstore\n      keccak256(0x00, 0x20)\n      swap1\n      0x05\n      mul\n      add\n        /* \"TimeAlly.sol\":23521:23554  loans[msg.sender][_loanId].status */\n      0x03\n      add\n      sload\n        /* \"TimeAlly.sol\":23521:23559  loans[msg.sender][_loanId].status == 1 */\n      eq\n        /* \"TimeAlly.sol\":23513:23615  require(loans[msg.sender][_loanId].status == 1... */\n      tag_537\n      jumpi\n      0x00\n      dup1\n      revert\n    tag_537:\n        /* \"TimeAlly.sol\":23762:23765  now */\n      timestamp\n        /* \"TimeAlly.sol\":23673:23759  loanPlans[ loans[msg.sender][_loanId].loanPlanId ].loanMonths.mul(earthSecondsInMonth) */\n      tag_538\n        /* \"TimeAlly.sol\":23739:23758  earthSecondsInMonth */\n      sload(0x04)\n        /* \"TimeAlly.sol\":23673:23682  loanPlans */\n      0x06\n        /* \"TimeAlly.sol\":23684:23689  loans */\n      0x08\n        /* \"TimeAlly.sol\":23684:23701  loans[msg.sender] */\n      0x00\n        /* \"TimeAlly.sol\":23690:23700  msg.sender */\n      caller\n        /* \"TimeAlly.sol\":23684:23701  loans[msg.sender] */\n      0xffffffffffffffffffffffffffffffffffffffff\n      and\n      0xffffffffffffffffffffffffffffffffffffffff\n      and\n      dup2\n      mstore\n      0x20\n      add\n      swap1\n      dup2\n      mstore\n      0x20\n      add\n      0x00\n      keccak256\n        /* \"TimeAlly.sol\":23702:23709  _loanId */\n      dup6\n        /* \"TimeAlly.sol\":23684:23710  loans[msg.sender][_loanId] */\n      dup2\n      sload\n      dup2\n      lt\n      tag_539\n      jumpi\n      invalid\n    tag_539:\n      swap1\n      0x00\n      mstore\n      keccak256(0x00, 0x20)\n      swap1\n      0x05\n      mul\n      add\n        /* \"TimeAlly.sol\":23684:23721  loans[msg.sender][_loanId].loanPlanId */\n      0x02\n      add\n      sload\n        /* \"TimeAlly.sol\":23673:23723  loanPlans[ loans[msg.sender][_loanId].loanPlanId ] */\n      dup2\n      sload\n      dup2\n      lt\n      tag_541\n      jumpi\n      invalid\n    tag_541:\n      swap1\n      0x00\n      mstore\n      keccak256(0x00, 0x20)\n      swap1\n      0x03\n      mul\n      add\n        /* \"TimeAlly.sol\":23673:23734  loanPlans[ loans[msg.sender][_loanId].loanPlanId ].loanMonths */\n      0x00\n      add\n      sload\n        /* \"TimeAlly.sol\":23673:23738  loanPlans[ loans[msg.sender][_loanId].loanPlanId ].loanMonths.mul */\n      tag_179\n      swap1\n        /* \"TimeAlly.sol\":23673:23759  loanPlans[ loans[msg.sender][_loanId].loanPlanId ].loanMonths.mul(earthSecondsInMonth) */\n      swap2\n      swap1\n      0xffffffff\n      and\n      jump\t// in\n    tag_538:\n        /* \"TimeAlly.sol\":23634:23639  loans */\n      0x08\n        /* \"TimeAlly.sol\":23634:23651  loans[msg.sender] */\n      0x00\n        /* \"TimeAlly.sol\":23640:23650  msg.sender */\n      caller\n        /* \"TimeAlly.sol\":23634:23651  loans[msg.sender] */\n      0xffffffffffffffffffffffffffffffffffffffff\n      and\n      0xffffffffffffffffffffffffffffffffffffffff\n      and\n      dup2\n      mstore\n      0x20\n      add\n      swap1\n      dup2\n      mstore\n      0x20\n      add\n      0x00\n      keccak256\n        /* \"TimeAlly.sol\":23652:23659  _loanId */\n      dup4\n        /* \"TimeAlly.sol\":23634:23660  loans[msg.sender][_loanId] */\n      dup2\n      sload\n      dup2\n      lt\n      tag_543\n      jumpi\n      invalid\n    tag_543:\n      swap1\n      0x00\n      mstore\n      keccak256(0x00, 0x20)\n      swap1\n      0x05\n      mul\n      add\n        /* \"TimeAlly.sol\":23634:23670  loans[msg.sender][_loanId].timestamp */\n      0x01\n      add\n      sload\n        /* \"TimeAlly.sol\":23634:23759  loans[msg.sender][_loanId].timestamp + loanPlans[ loans[msg.sender][_loanId].loanPlanId ].loanMonths.mul(earthSecondsInMonth) */\n      add\n        /* \"TimeAlly.sol\":23634:23765  loans[msg.sender][_loanId].timestamp + loanPlans[ loans[msg.sender][_loanId].loanPlanId ].loanMonths.mul(earthSecondsInMonth) > now */\n      gt\n        /* \"TimeAlly.sol\":23626:23818  require(loans[msg.sender][_loanId].timestamp + loanPlans[ loans[msg.sender][_loanId].loanPlanId ].loanMonths.mul(earthSecondsInMonth) > now... */\n      tag_545\n      jumpi\n      0x00\n      dup1\n      revert\n    tag_545:\n        /* \"TimeAlly.sol\":23837:23842  token */\n      0x02\n      0x00\n      swap1\n      sload\n      swap1\n      0x0100\n      exp\n      swap1\n      div\n      0xffffffffffffffffffffffffffffffffffffffff\n      and\n        /* \"TimeAlly.sol\":23837:23855  token.transferFrom */\n      0xffffffffffffffffffffffffffffffffffffffff\n      and\n      0x23b872dd\n        /* \"TimeAlly.sol\":23856:23866  msg.sender */\n      caller\n        /* \"TimeAlly.sol\":23876:23880  this */\n      address\n        /* \"TimeAlly.sol\":23883:23888  loans */\n      0x08\n        /* \"TimeAlly.sol\":23883:23900  loans[msg.sender] */\n      0x00\n        /* \"TimeAlly.sol\":23889:23899  msg.sender */\n      caller\n        /* \"TimeAlly.sol\":23883:23900  loans[msg.sender] */\n      0xffffffffffffffffffffffffffffffffffffffff\n      and\n      0xffffffffffffffffffffffffffffffffffffffff\n      and\n      dup2\n      mstore\n      0x20\n      add\n      swap1\n      dup2\n      mstore\n      0x20\n      add\n      0x00\n      keccak256\n        /* \"TimeAlly.sol\":23901:23908  _loanId */\n      dup6\n        /* \"TimeAlly.sol\":23883:23909  loans[msg.sender][_loanId] */\n      dup2\n      sload\n      dup2\n      lt\n      tag_546\n      jumpi\n      invalid\n    tag_546:\n      swap1\n      0x00\n      mstore\n      keccak256(0x00, 0x20)\n      swap1\n      0x05\n      mul\n      add\n        /* \"TimeAlly.sol\":23883:23921  loans[msg.sender][_loanId].exaEsAmount */\n      0x00\n      add\n      sload\n        /* \"TimeAlly.sol\":23837:23922  token.transferFrom(msg.sender, address(this), loans[msg.sender][_loanId].exaEsAmount) */\n      mload(0x40)\n      dup5\n      0xffffffff\n      and\n      0xe0\n      shl\n      dup2\n      mstore\n      0x04\n      add\n      dup1\n      dup5\n      0xffffffffffffffffffffffffffffffffffffffff\n      and\n      0xffffffffffffffffffffffffffffffffffffffff\n      and\n      dup2\n      mstore\n      0x20\n      add\n      dup4\n      0xffffffffffffffffffffffffffffffffffffffff\n      and\n      0xffffffffffffffffffffffffffffffffffffffff\n      and\n      dup2\n      mstore\n      0x20\n      add\n      dup3\n      dup2\n      mstore\n      0x20\n      add\n      swap4\n      pop\n      pop\n      pop\n      pop\n      0x20\n      mload(0x40)\n      dup1\n      dup4\n      sub\n      dup2\n      0x00\n      dup8\n      dup1\n      extcodesize\n      iszero\n        /* \"--CODEGEN--\":8:17   */\n      dup1\n        /* \"--CODEGEN--\":5:7   */\n      iszero\n      tag_548\n      jumpi\n        /* \"--CODEGEN--\":30:31   */\n      0x00\n        /* \"--CODEGEN--\":27:28   */\n      dup1\n        /* \"--CODEGEN--\":20:32   */\n      revert\n        /* \"--CODEGEN--\":5:7   */\n    tag_548:\n        /* \"TimeAlly.sol\":23837:23922  token.transferFrom(msg.sender, address(this), loans[msg.sender][_loanId].exaEsAmount) */\n      pop\n      gas\n      call\n      iszero\n        /* \"--CODEGEN--\":8:17   */\n      dup1\n        /* \"--CODEGEN--\":5:7   */\n      iszero\n      tag_549\n      jumpi\n        /* \"--CODEGEN--\":45:61   */\n      returndatasize\n        /* \"--CODEGEN--\":42:43   */\n      0x00\n        /* \"--CODEGEN--\":39:40   */\n      dup1\n        /* \"--CODEGEN--\":24:62   */\n      returndatacopy\n        /* \"--CODEGEN--\":77:93   */\n      returndatasize\n        /* \"--CODEGEN--\":74:75   */\n      0x00\n        /* \"--CODEGEN--\":67:94   */\n      revert\n        /* \"--CODEGEN--\":5:7   */\n    tag_549:\n        /* \"TimeAlly.sol\":23837:23922  token.transferFrom(msg.sender, address(this), loans[msg.sender][_loanId].exaEsAmount) */\n      pop\n      pop\n      pop\n      pop\n      mload(0x40)\n      returndatasize\n        /* \"--CODEGEN--\":13:15   */\n      0x20\n        /* \"--CODEGEN--\":8:11   */\n      dup2\n        /* \"--CODEGEN--\":5:16   */\n      lt\n        /* \"--CODEGEN--\":2:4   */\n      iszero\n      tag_550\n      jumpi\n        /* \"--CODEGEN--\":29:30   */\n      0x00\n        /* \"--CODEGEN--\":26:27   */\n      dup1\n        /* \"--CODEGEN--\":19:31   */\n      revert\n        /* \"--CODEGEN--\":2:4   */\n    tag_550:\n        /* \"TimeAlly.sol\":23837:23922  token.transferFrom(msg.sender, address(this), loans[msg.sender][_loanId].exaEsAmount) */\n      dup2\n      add\n      swap1\n      dup1\n      dup1\n      mload\n      swap1\n      0x20\n      add\n      swap1\n      swap3\n      swap2\n      swap1\n      pop\n      pop\n      pop\n        /* \"TimeAlly.sol\":23829:24014  require(token.transferFrom(msg.sender, address(this), loans[msg.sender][_loanId].exaEsAmount)... */\n      tag_551\n      jumpi\n      0x00\n      dup1\n      revert\n    tag_551:\n        /* \"TimeAlly.sol\":24061:24062  2 */\n      0x02\n        /* \"TimeAlly.sol\":24025:24030  loans */\n      0x08\n        /* \"TimeAlly.sol\":24025:24042  loans[msg.sender] */\n      0x00\n        /* \"TimeAlly.sol\":24031:24041  msg.sender */\n      caller\n        /* \"TimeAlly.sol\":24025:24042  loans[msg.sender] */\n      0xffffffffffffffffffffffffffffffffffffffff\n      and\n      0xffffffffffffffffffffffffffffffffffffffff\n      and\n      dup2\n      mstore\n      0x20\n      add\n      swap1\n      dup2\n      mstore\n      0x20\n      add\n      0x00\n      keccak256\n        /* \"TimeAlly.sol\":24043:24050  _loanId */\n      dup3\n        /* \"TimeAlly.sol\":24025:24051  loans[msg.sender][_loanId] */\n      dup2\n      sload\n      dup2\n      lt\n      tag_552\n      jumpi\n      invalid\n    tag_552:\n      swap1\n      0x00\n      mstore\n      keccak256(0x00, 0x20)\n      swap1\n      0x05\n      mul\n      add\n        /* \"TimeAlly.sol\":24025:24058  loans[msg.sender][_loanId].status */\n      0x03\n      add\n        /* \"TimeAlly.sol\":24025:24062  loans[msg.sender][_loanId].status = 2 */\n      dup2\n      swap1\n      sstore\n      pop\n        /* \"TimeAlly.sol\":24225:24234  uint256 i */\n      0x00\n        /* \"TimeAlly.sol\":24237:24238  0 */\n      dup1\n        /* \"TimeAlly.sol\":24225:24238  uint256 i = 0 */\n      swap1\n      pop\n        /* \"TimeAlly.sol\":24221:24983  for(uint256 i = 0; i < loans[msg.sender][_loanId].stakingIds.length; i++) {... */\n    tag_554:\n        /* \"TimeAlly.sol\":24244:24249  loans */\n      0x08\n        /* \"TimeAlly.sol\":24244:24261  loans[msg.sender] */\n      0x00\n        /* \"TimeAlly.sol\":24250:24260  msg.sender */\n      caller\n        /* \"TimeAlly.sol\":24244:24261  loans[msg.sender] */\n      0xffffffffffffffffffffffffffffffffffffffff\n      and\n      0xffffffffffffffffffffffffffffffffffffffff\n      and\n      dup2\n      mstore\n      0x20\n      add\n      swap1\n      dup2\n      mstore\n      0x20\n      add\n      0x00\n      keccak256\n        /* \"TimeAlly.sol\":24262:24269  _loanId */\n      dup3\n        /* \"TimeAlly.sol\":24244:24270  loans[msg.sender][_loanId] */\n      dup2\n      sload\n      dup2\n      lt\n      tag_557\n      jumpi\n      invalid\n    tag_557:\n      swap1\n      0x00\n      mstore\n      keccak256(0x00, 0x20)\n      swap1\n      0x05\n      mul\n      add\n        /* \"TimeAlly.sol\":24244:24281  loans[msg.sender][_loanId].stakingIds */\n      0x04\n      add\n        /* \"TimeAlly.sol\":24244:24288  loans[msg.sender][_loanId].stakingIds.length */\n      dup1\n      sload\n      swap1\n      pop\n        /* \"TimeAlly.sol\":24240:24241  i */\n      dup2\n        /* \"TimeAlly.sol\":24240:24288  i < loans[msg.sender][_loanId].stakingIds.length */\n      lt\n        /* \"TimeAlly.sol\":24221:24983  for(uint256 i = 0; i < loans[msg.sender][_loanId].stakingIds.length; i++) {... */\n      iszero\n      tag_555\n      jumpi\n        /* \"TimeAlly.sol\":24309:24327  uint256 _stakingId */\n      0x00\n        /* \"TimeAlly.sol\":24330:24335  loans */\n      0x08\n        /* \"TimeAlly.sol\":24330:24347  loans[msg.sender] */\n      0x00\n        /* \"TimeAlly.sol\":24336:24346  msg.sender */\n      caller\n        /* \"TimeAlly.sol\":24330:24347  loans[msg.sender] */\n      0xffffffffffffffffffffffffffffffffffffffff\n      and\n      0xffffffffffffffffffffffffffffffffffffffff\n      and\n      dup2\n      mstore\n      0x20\n      add\n      swap1\n      dup2\n      mstore\n      0x20\n      add\n      0x00\n      keccak256\n        /* \"TimeAlly.sol\":24348:24355  _loanId */\n      dup4\n        /* \"TimeAlly.sol\":24330:24356  loans[msg.sender][_loanId] */\n      dup2\n      sload\n      dup2\n      lt\n      tag_559\n      jumpi\n      invalid\n    tag_559:\n      swap1\n      0x00\n      mstore\n      keccak256(0x00, 0x20)\n      swap1\n      0x05\n      mul\n      add\n        /* \"TimeAlly.sol\":24330:24367  loans[msg.sender][_loanId].stakingIds */\n      0x04\n      add\n        /* \"TimeAlly.sol\":24368:24369  i */\n      dup3\n        /* \"TimeAlly.sol\":24330:24370  loans[msg.sender][_loanId].stakingIds[i] */\n      dup2\n      sload\n      dup2\n      lt\n      tag_561\n      jumpi\n      invalid\n    tag_561:\n      swap1\n      0x00\n      mstore\n      keccak256(0x00, 0x20)\n      add\n      sload\n        /* \"TimeAlly.sol\":24309:24370  uint256 _stakingId = loans[msg.sender][_loanId].stakingIds[i] */\n      swap1\n      pop\n        /* \"TimeAlly.sol\":24427:24428  1 */\n      0x01\n        /* \"TimeAlly.sol\":24385:24393  stakings */\n      0x07\n        /* \"TimeAlly.sol\":24385:24405  stakings[msg.sender] */\n      0x00\n        /* \"TimeAlly.sol\":24394:24404  msg.sender */\n      caller\n        /* \"TimeAlly.sol\":24385:24405  stakings[msg.sender] */\n      0xffffffffffffffffffffffffffffffffffffffff\n      and\n      0xffffffffffffffffffffffffffffffffffffffff\n      and\n      dup2\n      mstore\n      0x20\n      add\n      swap1\n      dup2\n      mstore\n      0x20\n      add\n      0x00\n      keccak256\n        /* \"TimeAlly.sol\":24406:24416  _stakingId */\n      dup3\n        /* \"TimeAlly.sol\":24385:24417  stakings[msg.sender][_stakingId] */\n      dup2\n      sload\n      dup2\n      lt\n      tag_563\n      jumpi\n      invalid\n    tag_563:\n      swap1\n      0x00\n      mstore\n      keccak256(0x00, 0x20)\n      swap1\n      0x09\n      mul\n      add\n        /* \"TimeAlly.sol\":24385:24424  stakings[msg.sender][_stakingId].status */\n      0x04\n      add\n        /* \"TimeAlly.sol\":24385:24428  stakings[msg.sender][_stakingId].status = 1 */\n      dup2\n      swap1\n      sstore\n      pop\n        /* \"TimeAlly.sol\":24443:24468  uint256 stakingStartMonth */\n      0x00\n        /* \"TimeAlly.sol\":24471:24561  stakings[msg.sender][_stakingId].timestamp.sub(deployedTimestamp).div(earthSecondsInMonth) */\n      tag_565\n        /* \"TimeAlly.sol\":24541:24560  earthSecondsInMonth */\n      sload(0x04)\n        /* \"TimeAlly.sol\":24471:24536  stakings[msg.sender][_stakingId].timestamp.sub(deployedTimestamp) */\n      tag_566\n        /* \"TimeAlly.sol\":24518:24535  deployedTimestamp */\n      sload(0x00)\n        /* \"TimeAlly.sol\":24471:24479  stakings */\n      0x07\n        /* \"TimeAlly.sol\":24471:24491  stakings[msg.sender] */\n      0x00\n        /* \"TimeAlly.sol\":24480:24490  msg.sender */\n      caller\n        /* \"TimeAlly.sol\":24471:24491  stakings[msg.sender] */\n      0xffffffffffffffffffffffffffffffffffffffff\n      and\n      0xffffffffffffffffffffffffffffffffffffffff\n      and\n      dup2\n      mstore\n      0x20\n      add\n      swap1\n      dup2\n      mstore\n      0x20\n      add\n      0x00\n      keccak256\n        /* \"TimeAlly.sol\":24492:24502  _stakingId */\n      dup7\n        /* \"TimeAlly.sol\":24471:24503  stakings[msg.sender][_stakingId] */\n      dup2\n      sload\n      dup2\n      lt\n      tag_567\n      jumpi\n      invalid\n    tag_567:\n      swap1\n      0x00\n      mstore\n      keccak256(0x00, 0x20)\n      swap1\n      0x09\n      mul\n      add\n        /* \"TimeAlly.sol\":24471:24513  stakings[msg.sender][_stakingId].timestamp */\n      0x01\n      add\n      sload\n        /* \"TimeAlly.sol\":24471:24517  stakings[msg.sender][_stakingId].timestamp.sub */\n      tag_204\n      swap1\n        /* \"TimeAlly.sol\":24471:24536  stakings[msg.sender][_stakingId].timestamp.sub(deployedTimestamp) */\n      swap2\n      swap1\n      0xffffffff\n      and\n      jump\t// in\n    tag_566:\n        /* \"TimeAlly.sol\":24471:24540  stakings[msg.sender][_stakingId].timestamp.sub(deployedTimestamp).div */\n      tag_236\n      swap1\n        /* \"TimeAlly.sol\":24471:24561  stakings[msg.sender][_stakingId].timestamp.sub(deployedTimestamp).div(earthSecondsInMonth) */\n      swap2\n      swap1\n      0xffffffff\n      and\n      jump\t// in\n    tag_565:\n        /* \"TimeAlly.sol\":24443:24561  uint256 stakingStartMonth = stakings[msg.sender][_stakingId].timestamp.sub(deployedTimestamp).div(earthSecondsInMonth) */\n      swap1\n      pop\n        /* \"TimeAlly.sol\":24576:24597  uint256 stakeEndMonth */\n      0x00\n        /* \"TimeAlly.sol\":24620:24632  stakingPlans */\n      0x05\n        /* \"TimeAlly.sol\":24633:24641  stakings */\n      0x07\n        /* \"TimeAlly.sol\":24633:24653  stakings[msg.sender] */\n      0x00\n        /* \"TimeAlly.sol\":24642:24652  msg.sender */\n      caller\n        /* \"TimeAlly.sol\":24633:24653  stakings[msg.sender] */\n      0xffffffffffffffffffffffffffffffffffffffff\n      and\n      0xffffffffffffffffffffffffffffffffffffffff\n      and\n      dup2\n      mstore\n      0x20\n      add\n      swap1\n      dup2\n      mstore\n      0x20\n      add\n      0x00\n      keccak256\n        /* \"TimeAlly.sol\":24654:24664  _stakingId */\n      dup5\n        /* \"TimeAlly.sol\":24633:24665  stakings[msg.sender][_stakingId] */\n      dup2\n      sload\n      dup2\n      lt\n      tag_569\n      jumpi\n      invalid\n    tag_569:\n      swap1\n      0x00\n      mstore\n      keccak256(0x00, 0x20)\n      swap1\n      0x09\n      mul\n      add\n        /* \"TimeAlly.sol\":24633:24679  stakings[msg.sender][_stakingId].stakingPlanId */\n      0x03\n      add\n      sload\n        /* \"TimeAlly.sol\":24620:24680  stakingPlans[stakings[msg.sender][_stakingId].stakingPlanId] */\n      dup2\n      sload\n      dup2\n      lt\n      tag_571\n      jumpi\n      invalid\n    tag_571:\n      swap1\n      0x00\n      mstore\n      keccak256(0x00, 0x20)\n      swap1\n      0x03\n      mul\n      add\n        /* \"TimeAlly.sol\":24620:24687  stakingPlans[stakings[msg.sender][_stakingId].stakingPlanId].months */\n      0x00\n      add\n      sload\n        /* \"TimeAlly.sol\":24600:24617  stakingStartMonth */\n      dup3\n        /* \"TimeAlly.sol\":24600:24687  stakingStartMonth + stakingPlans[stakings[msg.sender][_stakingId].stakingPlanId].months */\n      add\n        /* \"TimeAlly.sol\":24576:24687  uint256 stakeEndMonth = stakingStartMonth + stakingPlans[stakings[msg.sender][_stakingId].stakingPlanId].months */\n      swap1\n      pop\n        /* \"TimeAlly.sol\":24706:24715  uint256 j */\n      0x00\n        /* \"TimeAlly.sol\":24738:24739  1 */\n      0x01\n        /* \"TimeAlly.sol\":24718:24735  getCurrentMonth() */\n      tag_576\n        /* \"TimeAlly.sol\":24718:24733  getCurrentMonth */\n      tag_137\n        /* \"TimeAlly.sol\":24718:24735  getCurrentMonth() */\n      jump\t// in\n    tag_576:\n        /* \"TimeAlly.sol\":24718:24739  getCurrentMonth() + 1 */\n      add\n        /* \"TimeAlly.sol\":24706:24739  uint256 j = getCurrentMonth() + 1 */\n      swap1\n      pop\n        /* \"TimeAlly.sol\":24702:24973  for(uint256 j = getCurrentMonth() + 1; j <= stakeEndMonth; j++) {... */\n    tag_573:\n        /* \"TimeAlly.sol\":24746:24759  stakeEndMonth */\n      dup2\n        /* \"TimeAlly.sol\":24741:24742  j */\n      dup2\n        /* \"TimeAlly.sol\":24741:24759  j <= stakeEndMonth */\n      gt\n        /* \"TimeAlly.sol\":24702:24973  for(uint256 j = getCurrentMonth() + 1; j <= stakeEndMonth; j++) {... */\n      tag_574\n      jumpi\n        /* \"TimeAlly.sol\":24837:24842  false */\n      0x00\n        /* \"TimeAlly.sol\":24784:24792  stakings */\n      0x07\n        /* \"TimeAlly.sol\":24784:24804  stakings[msg.sender] */\n      0x00\n        /* \"TimeAlly.sol\":24793:24803  msg.sender */\n      caller\n        /* \"TimeAlly.sol\":24784:24804  stakings[msg.sender] */\n      0xffffffffffffffffffffffffffffffffffffffff\n      and\n      0xffffffffffffffffffffffffffffffffffffffff\n      and\n      dup2\n      mstore\n      0x20\n      add\n      swap1\n      dup2\n      mstore\n      0x20\n      add\n      0x00\n      keccak256\n        /* \"TimeAlly.sol\":24805:24815  _stakingId */\n      dup6\n        /* \"TimeAlly.sol\":24784:24816  stakings[msg.sender][_stakingId] */\n      dup2\n      sload\n      dup2\n      lt\n      tag_577\n      jumpi\n      invalid\n    tag_577:\n      swap1\n      0x00\n      mstore\n      keccak256(0x00, 0x20)\n      swap1\n      0x09\n      mul\n      add\n        /* \"TimeAlly.sol\":24784:24831  stakings[msg.sender][_stakingId].isMonthClaimed */\n      0x07\n      add\n        /* \"TimeAlly.sol\":24784:24834  stakings[msg.sender][_stakingId].isMonthClaimed[i] */\n      0x00\n        /* \"TimeAlly.sol\":24832:24833  i */\n      dup8\n        /* \"TimeAlly.sol\":24784:24834  stakings[msg.sender][_stakingId].isMonthClaimed[i] */\n      dup2\n      mstore\n      0x20\n      add\n      swap1\n      dup2\n      mstore\n      0x20\n      add\n      0x00\n      keccak256\n      0x00\n        /* \"TimeAlly.sol\":24784:24842  stakings[msg.sender][_stakingId].isMonthClaimed[i] = false */\n      0x0100\n      exp\n      dup2\n      sload\n      dup2\n      0xff\n      mul\n      not\n      and\n      swap1\n      dup4\n      iszero\n      iszero\n      mul\n      or\n      swap1\n      sstore\n      pop\n        /* \"TimeAlly.sol\":24886:24958  totalActiveStakings[j].add(stakings[msg.sender][_stakingId].exaEsAmount) */\n      tag_579\n        /* \"TimeAlly.sol\":24913:24921  stakings */\n      0x07\n        /* \"TimeAlly.sol\":24913:24933  stakings[msg.sender] */\n      0x00\n        /* \"TimeAlly.sol\":24922:24932  msg.sender */\n      caller\n        /* \"TimeAlly.sol\":24913:24933  stakings[msg.sender] */\n      0xffffffffffffffffffffffffffffffffffffffff\n      and\n      0xffffffffffffffffffffffffffffffffffffffff\n      and\n      dup2\n      mstore\n      0x20\n      add\n      swap1\n      dup2\n      mstore\n      0x20\n      add\n      0x00\n      keccak256\n        /* \"TimeAlly.sol\":24934:24944  _stakingId */\n      dup6\n        /* \"TimeAlly.sol\":24913:24945  stakings[msg.sender][_stakingId] */\n      dup2\n      sload\n      dup2\n      lt\n      tag_580\n      jumpi\n      invalid\n    tag_580:\n      swap1\n      0x00\n      mstore\n      keccak256(0x00, 0x20)\n      swap1\n      0x09\n      mul\n      add\n        /* \"TimeAlly.sol\":24913:24957  stakings[msg.sender][_stakingId].exaEsAmount */\n      0x00\n      add\n      sload\n        /* \"TimeAlly.sol\":24886:24905  totalActiveStakings */\n      0x0a\n        /* \"TimeAlly.sol\":24886:24908  totalActiveStakings[j] */\n      0x00\n        /* \"TimeAlly.sol\":24906:24907  j */\n      dup5\n        /* \"TimeAlly.sol\":24886:24908  totalActiveStakings[j] */\n      dup2\n      mstore\n      0x20\n      add\n      swap1\n      dup2\n      mstore\n      0x20\n      add\n      0x00\n      keccak256\n      sload\n        /* \"TimeAlly.sol\":24886:24912  totalActiveStakings[j].add */\n      tag_198\n      swap1\n        /* \"TimeAlly.sol\":24886:24958  totalActiveStakings[j].add(stakings[msg.sender][_stakingId].exaEsAmount) */\n      swap2\n      swap1\n      0xffffffff\n      and\n      jump\t// in\n    tag_579:\n        /* \"TimeAlly.sol\":24861:24880  totalActiveStakings */\n      0x0a\n        /* \"TimeAlly.sol\":24861:24883  totalActiveStakings[j] */\n      0x00\n        /* \"TimeAlly.sol\":24881:24882  j */\n      dup4\n        /* \"TimeAlly.sol\":24861:24883  totalActiveStakings[j] */\n      dup2\n      mstore\n      0x20\n      add\n      swap1\n      dup2\n      mstore\n      0x20\n      add\n      0x00\n      keccak256\n        /* \"TimeAlly.sol\":24861:24958  totalActiveStakings[j] = totalActiveStakings[j].add(stakings[msg.sender][_stakingId].exaEsAmount) */\n      dup2\n      swap1\n      sstore\n      pop\n        /* \"TimeAlly.sol\":24761:24764  j++ */\n      dup1\n      dup1\n      0x01\n      add\n      swap2\n      pop\n      pop\n        /* \"TimeAlly.sol\":24702:24973  for(uint256 j = getCurrentMonth() + 1; j <= stakeEndMonth; j++) {... */\n      jump(tag_573)\n    tag_574:\n      pop\n        /* \"TimeAlly.sol\":24221:24983  for(uint256 i = 0; i < loans[msg.sender][_loanId].stakingIds.length; i++) {... */\n      pop\n      pop\n      pop\n        /* \"TimeAlly.sol\":24290:24293  i++ */\n      dup1\n      dup1\n      0x01\n      add\n      swap2\n      pop\n      pop\n        /* \"TimeAlly.sol\":24221:24983  for(uint256 i = 0; i < loans[msg.sender][_loanId].stakingIds.length; i++) {... */\n      jump(tag_554)\n    tag_555:\n      pop\n        /* \"TimeAlly.sol\":25034:25044  msg.sender */\n      caller\n        /* \"TimeAlly.sol\":25024:25054  RepayLoan(msg.sender, _loanId) */\n      0xffffffffffffffffffffffffffffffffffffffff\n      and\n      0xe228353b4f08fee02276a1e9e2cddfa948f9fa59f87f7e24c18ad1b420d7966a\n        /* \"TimeAlly.sol\":25046:25053  _loanId */\n      dup3\n        /* \"TimeAlly.sol\":25024:25054  RepayLoan(msg.sender, _loanId) */\n      mload(0x40)\n      dup1\n      dup3\n      dup2\n      mstore\n      0x20\n      add\n      swap2\n      pop\n      pop\n      mload(0x40)\n      dup1\n      swap2\n      sub\n      swap1\n      log2\n        /* \"TimeAlly.sol\":23456:25061  function repayLoanSelf(uint256 _loanId) public {... */\n      pop\n      jump\t// out\n        /* \"TimeAlly.sol\":18200:19703  function seeMaxLoaningAmountOnUserStakings(address _userAddress, uint256[] memory _stakingIds, uint256 _loanPlanId) public view returns (uint256) {... */\n    tag_146:\n        /* \"TimeAlly.sol\":18337:18344  uint256 */\n      0x00\n        /* \"TimeAlly.sol\":18356:18377  uint256 _currentMonth */\n      dup1\n        /* \"TimeAlly.sol\":18380:18397  getCurrentMonth() */\n      tag_583\n        /* \"TimeAlly.sol\":18380:18395  getCurrentMonth */\n      tag_137\n        /* \"TimeAlly.sol\":18380:18397  getCurrentMonth() */\n      jump\t// in\n    tag_583:\n        /* \"TimeAlly.sol\":18356:18397  uint256 _currentMonth = getCurrentMonth() */\n      swap1\n      pop\n        /* \"TimeAlly.sol\":18484:18515  uint256 userStakingsExaEsAmount */\n      0x00\n        /* \"TimeAlly.sol\":18530:18539  uint256 i */\n      dup1\n        /* \"TimeAlly.sol\":18542:18543  0 */\n      0x00\n        /* \"TimeAlly.sol\":18530:18543  uint256 i = 0 */\n      swap1\n      pop\n        /* \"TimeAlly.sol\":18526:19574  for(uint256 i = 0; i < _stakingIds.length; i++) {... */\n    tag_584:\n        /* \"TimeAlly.sol\":18549:18560  _stakingIds */\n      dup6\n        /* \"TimeAlly.sol\":18549:18567  _stakingIds.length */\n      mload\n        /* \"TimeAlly.sol\":18545:18546  i */\n      dup2\n        /* \"TimeAlly.sol\":18545:18567  i < _stakingIds.length */\n      lt\n        /* \"TimeAlly.sol\":18526:19574  for(uint256 i = 0; i < _stakingIds.length; i++) {... */\n      iszero\n      tag_585\n      jumpi\n        /* \"TimeAlly.sol\":18592:18652  isStakingActive(_userAddress, _stakingIds[i], _currentMonth) */\n      tag_587\n        /* \"TimeAlly.sol\":18608:18620  _userAddress */\n      dup8\n        /* \"TimeAlly.sol\":18622:18633  _stakingIds */\n      dup8\n        /* \"TimeAlly.sol\":18634:18635  i */\n      dup4\n        /* \"TimeAlly.sol\":18622:18636  _stakingIds[i] */\n      dup2\n      mload\n      dup2\n      lt\n      tag_588\n      jumpi\n      invalid\n    tag_588:\n      0x20\n      mul\n      0x20\n      add\n      add\n      mload\n        /* \"TimeAlly.sol\":18638:18651  _currentMonth */\n      dup6\n        /* \"TimeAlly.sol\":18592:18607  isStakingActive */\n      tag_132\n        /* \"TimeAlly.sol\":18592:18652  isStakingActive(_userAddress, _stakingIds[i], _currentMonth) */\n      jump\t// in\n    tag_587:\n        /* \"TimeAlly.sol\":18592:19116  isStakingActive(_userAddress, _stakingIds[i], _currentMonth)... */\n      dup1\n      iszero\n      tag_589\n      jumpi\n      pop\n        /* \"TimeAlly.sol\":18814:18826  stakingPlans */\n      0x05\n        /* \"TimeAlly.sol\":18828:18836  stakings */\n      0x07\n        /* \"TimeAlly.sol\":18828:18850  stakings[_userAddress] */\n      0x00\n        /* \"TimeAlly.sol\":18837:18849  _userAddress */\n      dup10\n        /* \"TimeAlly.sol\":18828:18850  stakings[_userAddress] */\n      0xffffffffffffffffffffffffffffffffffffffff\n      and\n      0xffffffffffffffffffffffffffffffffffffffff\n      and\n      dup2\n      mstore\n      0x20\n      add\n      swap1\n      dup2\n      mstore\n      0x20\n      add\n      0x00\n      keccak256\n        /* \"TimeAlly.sol\":18851:18862  _stakingIds */\n      dup8\n        /* \"TimeAlly.sol\":18863:18864  i */\n      dup4\n        /* \"TimeAlly.sol\":18851:18865  _stakingIds[i] */\n      dup2\n      mload\n      dup2\n      lt\n      tag_590\n      jumpi\n      invalid\n    tag_590:\n      0x20\n      mul\n      0x20\n      add\n      add\n      mload\n        /* \"TimeAlly.sol\":18828:18866  stakings[_userAddress][_stakingIds[i]] */\n      dup2\n      sload\n      dup2\n      lt\n      tag_591\n      jumpi\n      invalid\n    tag_591:\n      swap1\n      0x00\n      mstore\n      keccak256(0x00, 0x20)\n      swap1\n      0x09\n      mul\n      add\n        /* \"TimeAlly.sol\":18828:18880  stakings[_userAddress][_stakingIds[i]].stakingPlanId */\n      0x03\n      add\n      sload\n        /* \"TimeAlly.sol\":18814:18882  stakingPlans[ stakings[_userAddress][_stakingIds[i]].stakingPlanId ] */\n      dup2\n      sload\n      dup2\n      lt\n      tag_593\n      jumpi\n      invalid\n    tag_593:\n      swap1\n      0x00\n      mstore\n      keccak256(0x00, 0x20)\n      swap1\n      0x03\n      mul\n      add\n        /* \"TimeAlly.sol\":18814:18902  stakingPlans[ stakings[_userAddress][_stakingIds[i]].stakingPlanId ].isUrgentLoanAllowed */\n      0x02\n      add\n      0x00\n      swap1\n      sload\n      swap1\n      0x0100\n      exp\n      swap1\n      div\n      0xff\n      and\n        /* \"TimeAlly.sol\":18814:19098  stakingPlans[ stakings[_userAddress][_stakingIds[i]].stakingPlanId ].isUrgentLoanAllowed... */\n      dup1\n      tag_595\n      jumpi\n      pop\n        /* \"TimeAlly.sol\":18981:19098  stakingPlans[ stakings[_userAddress][_stakingIds[i]].stakingPlanId ].months.mul(earthSecondsInMonth).mul(75).div(100) */\n      tag_596\n        /* \"TimeAlly.sol\":19094:19097  100 */\n      0x64\n        /* \"TimeAlly.sol\":18981:19089  stakingPlans[ stakings[_userAddress][_stakingIds[i]].stakingPlanId ].months.mul(earthSecondsInMonth).mul(75) */\n      tag_597\n        /* \"TimeAlly.sol\":19086:19088  75 */\n      0x4b\n        /* \"TimeAlly.sol\":18981:19081  stakingPlans[ stakings[_userAddress][_stakingIds[i]].stakingPlanId ].months.mul(earthSecondsInMonth) */\n      tag_598\n        /* \"TimeAlly.sol\":19061:19080  earthSecondsInMonth */\n      sload(0x04)\n        /* \"TimeAlly.sol\":18981:18993  stakingPlans */\n      0x05\n        /* \"TimeAlly.sol\":18995:19003  stakings */\n      0x07\n        /* \"TimeAlly.sol\":18995:19017  stakings[_userAddress] */\n      0x00\n        /* \"TimeAlly.sol\":19004:19016  _userAddress */\n      dup16\n        /* \"TimeAlly.sol\":18995:19017  stakings[_userAddress] */\n      0xffffffffffffffffffffffffffffffffffffffff\n      and\n      0xffffffffffffffffffffffffffffffffffffffff\n      and\n      dup2\n      mstore\n      0x20\n      add\n      swap1\n      dup2\n      mstore\n      0x20\n      add\n      0x00\n      keccak256\n        /* \"TimeAlly.sol\":19018:19029  _stakingIds */\n      dup14\n        /* \"TimeAlly.sol\":19030:19031  i */\n      dup10\n        /* \"TimeAlly.sol\":19018:19032  _stakingIds[i] */\n      dup2\n      mload\n      dup2\n      lt\n      tag_599\n      jumpi\n      invalid\n    tag_599:\n      0x20\n      mul\n      0x20\n      add\n      add\n      mload\n        /* \"TimeAlly.sol\":18995:19033  stakings[_userAddress][_stakingIds[i]] */\n      dup2\n      sload\n      dup2\n      lt\n      tag_600\n      jumpi\n      invalid\n    tag_600:\n      swap1\n      0x00\n      mstore\n      keccak256(0x00, 0x20)\n      swap1\n      0x09\n      mul\n      add\n        /* \"TimeAlly.sol\":18995:19047  stakings[_userAddress][_stakingIds[i]].stakingPlanId */\n      0x03\n      add\n      sload\n        /* \"TimeAlly.sol\":18981:19049  stakingPlans[ stakings[_userAddress][_stakingIds[i]].stakingPlanId ] */\n      dup2\n      sload\n      dup2\n      lt\n      tag_602\n      jumpi\n      invalid\n    tag_602:\n      swap1\n      0x00\n      mstore\n      keccak256(0x00, 0x20)\n      swap1\n      0x03\n      mul\n      add\n        /* \"TimeAlly.sol\":18981:19056  stakingPlans[ stakings[_userAddress][_stakingIds[i]].stakingPlanId ].months */\n      0x00\n      add\n      sload\n        /* \"TimeAlly.sol\":18981:19060  stakingPlans[ stakings[_userAddress][_stakingIds[i]].stakingPlanId ].months.mul */\n      tag_179\n      swap1\n        /* \"TimeAlly.sol\":18981:19081  stakingPlans[ stakings[_userAddress][_stakingIds[i]].stakingPlanId ].months.mul(earthSecondsInMonth) */\n      swap2\n      swap1\n      0xffffffff\n      and\n      jump\t// in\n    tag_598:\n        /* \"TimeAlly.sol\":18981:19085  stakingPlans[ stakings[_userAddress][_stakingIds[i]].stakingPlanId ].months.mul(earthSecondsInMonth).mul */\n      tag_179\n      swap1\n        /* \"TimeAlly.sol\":18981:19089  stakingPlans[ stakings[_userAddress][_stakingIds[i]].stakingPlanId ].months.mul(earthSecondsInMonth).mul(75) */\n      swap2\n      swap1\n      0xffffffff\n      and\n      jump\t// in\n    tag_597:\n        /* \"TimeAlly.sol\":18981:19093  stakingPlans[ stakings[_userAddress][_stakingIds[i]].stakingPlanId ].months.mul(earthSecondsInMonth).mul(75).div */\n      tag_236\n      swap1\n        /* \"TimeAlly.sol\":18981:19098  stakingPlans[ stakings[_userAddress][_stakingIds[i]].stakingPlanId ].months.mul(earthSecondsInMonth).mul(75).div(100) */\n      swap2\n      swap1\n      0xffffffff\n      and\n      jump\t// in\n    tag_596:\n        /* \"TimeAlly.sol\":18930:18938  stakings */\n      0x07\n        /* \"TimeAlly.sol\":18930:18952  stakings[_userAddress] */\n      0x00\n        /* \"TimeAlly.sol\":18939:18951  _userAddress */\n      dup10\n        /* \"TimeAlly.sol\":18930:18952  stakings[_userAddress] */\n      0xffffffffffffffffffffffffffffffffffffffff\n      and\n      0xffffffffffffffffffffffffffffffffffffffff\n      and\n      dup2\n      mstore\n      0x20\n      add\n      swap1\n      dup2\n      mstore\n      0x20\n      add\n      0x00\n      keccak256\n        /* \"TimeAlly.sol\":18953:18964  _stakingIds */\n      dup8\n        /* \"TimeAlly.sol\":18965:18966  i */\n      dup4\n        /* \"TimeAlly.sol\":18953:18967  _stakingIds[i] */\n      dup2\n      mload\n      dup2\n      lt\n      tag_604\n      jumpi\n      invalid\n    tag_604:\n      0x20\n      mul\n      0x20\n      add\n      add\n      mload\n        /* \"TimeAlly.sol\":18930:18968  stakings[_userAddress][_stakingIds[i]] */\n      dup2\n      sload\n      dup2\n      lt\n      tag_605\n      jumpi\n      invalid\n    tag_605:\n      swap1\n      0x00\n      mstore\n      keccak256(0x00, 0x20)\n      swap1\n      0x09\n      mul\n      add\n        /* \"TimeAlly.sol\":18930:18978  stakings[_userAddress][_stakingIds[i]].timestamp */\n      0x01\n      add\n      sload\n        /* \"TimeAlly.sol\":18930:19098  stakings[_userAddress][_stakingIds[i]].timestamp + stakingPlans[ stakings[_userAddress][_stakingIds[i]].stakingPlanId ].months.mul(earthSecondsInMonth).mul(75).div(100) */\n      add\n        /* \"TimeAlly.sol\":18924:18927  now */\n      timestamp\n        /* \"TimeAlly.sol\":18924:19098  now > stakings[_userAddress][_stakingIds[i]].timestamp + stakingPlans[ stakings[_userAddress][_stakingIds[i]].stakingPlanId ].months.mul(earthSecondsInMonth).mul(75).div(100) */\n      gt\n        /* \"TimeAlly.sol\":18814:19098  stakingPlans[ stakings[_userAddress][_stakingIds[i]].stakingPlanId ].isUrgentLoanAllowed... */\n    tag_595:\n        /* \"TimeAlly.sol\":18592:19116  isStakingActive(_userAddress, _stakingIds[i], _currentMonth)... */\n    tag_589:\n        /* \"TimeAlly.sol\":18589:19564  if(isStakingActive(_userAddress, _stakingIds[i], _currentMonth)... */\n      iszero\n      tag_607\n      jumpi\n        /* \"TimeAlly.sol\":19175:19549  userStakingsExaEsAmount... */\n      tag_608\n        /* \"TimeAlly.sol\":19224:19378  stakings[_userAddress][_stakingIds[i]].exaEsAmount... */\n      tag_609\n        /* \"TimeAlly.sol\":19374:19377  100 */\n      0x64\n        /* \"TimeAlly.sol\":19224:19346  stakings[_userAddress][_stakingIds[i]].exaEsAmount... */\n      tag_610\n        /* \"TimeAlly.sol\":19302:19311  loanPlans */\n      0x06\n        /* \"TimeAlly.sol\":19312:19323  _loanPlanId */\n      dup10\n        /* \"TimeAlly.sol\":19302:19324  loanPlans[_loanPlanId] */\n      dup2\n      sload\n      dup2\n      lt\n      tag_611\n      jumpi\n      invalid\n    tag_611:\n      swap1\n      0x00\n      mstore\n      keccak256(0x00, 0x20)\n      swap1\n      0x03\n      mul\n      add\n        /* \"TimeAlly.sol\":19302:19345  loanPlans[_loanPlanId].maxLoanAmountPercent */\n      0x02\n      add\n      sload\n        /* \"TimeAlly.sol\":19224:19232  stakings */\n      0x07\n        /* \"TimeAlly.sol\":19224:19246  stakings[_userAddress] */\n      0x00\n        /* \"TimeAlly.sol\":19233:19245  _userAddress */\n      dup14\n        /* \"TimeAlly.sol\":19224:19246  stakings[_userAddress] */\n      0xffffffffffffffffffffffffffffffffffffffff\n      and\n      0xffffffffffffffffffffffffffffffffffffffff\n      and\n      dup2\n      mstore\n      0x20\n      add\n      swap1\n      dup2\n      mstore\n      0x20\n      add\n      0x00\n      keccak256\n        /* \"TimeAlly.sol\":19247:19258  _stakingIds */\n      dup12\n        /* \"TimeAlly.sol\":19259:19260  i */\n      dup8\n        /* \"TimeAlly.sol\":19247:19261  _stakingIds[i] */\n      dup2\n      mload\n      dup2\n      lt\n      tag_613\n      jumpi\n      invalid\n    tag_613:\n      0x20\n      mul\n      0x20\n      add\n      add\n      mload\n        /* \"TimeAlly.sol\":19224:19262  stakings[_userAddress][_stakingIds[i]] */\n      dup2\n      sload\n      dup2\n      lt\n      tag_614\n      jumpi\n      invalid\n    tag_614:\n      swap1\n      0x00\n      mstore\n      keccak256(0x00, 0x20)\n      swap1\n      0x09\n      mul\n      add\n        /* \"TimeAlly.sol\":19224:19274  stakings[_userAddress][_stakingIds[i]].exaEsAmount */\n      0x00\n      add\n      sload\n        /* \"TimeAlly.sol\":19224:19301  stakings[_userAddress][_stakingIds[i]].exaEsAmount... */\n      tag_179\n      swap1\n        /* \"TimeAlly.sol\":19224:19346  stakings[_userAddress][_stakingIds[i]].exaEsAmount... */\n      swap2\n      swap1\n      0xffffffff\n      and\n      jump\t// in\n    tag_610:\n        /* \"TimeAlly.sol\":19224:19373  stakings[_userAddress][_stakingIds[i]].exaEsAmount... */\n      tag_236\n      swap1\n        /* \"TimeAlly.sol\":19224:19378  stakings[_userAddress][_stakingIds[i]].exaEsAmount... */\n      swap2\n      swap1\n      0xffffffff\n      and\n      jump\t// in\n    tag_609:\n        /* \"TimeAlly.sol\":19175:19198  userStakingsExaEsAmount */\n      dup4\n        /* \"TimeAlly.sol\":19175:19223  userStakingsExaEsAmount... */\n      tag_198\n      swap1\n        /* \"TimeAlly.sol\":19175:19549  userStakingsExaEsAmount... */\n      swap2\n      swap1\n      0xffffffff\n      and\n      jump\t// in\n    tag_608:\n        /* \"TimeAlly.sol\":19149:19549  userStakingsExaEsAmount = userStakingsExaEsAmount... */\n      swap2\n      pop\n        /* \"TimeAlly.sol\":18589:19564  if(isStakingActive(_userAddress, _stakingIds[i], _currentMonth)... */\n    tag_607:\n        /* \"TimeAlly.sol\":18569:18572  i++ */\n      dup1\n      dup1\n      0x01\n      add\n      swap2\n      pop\n      pop\n        /* \"TimeAlly.sol\":18526:19574  for(uint256 i = 0; i < _stakingIds.length; i++) {... */\n      jump(tag_584)\n    tag_585:\n      pop\n        /* \"TimeAlly.sol\":19591:19614  userStakingsExaEsAmount */\n      dup1\n        /* \"TimeAlly.sol\":19584:19614  return userStakingsExaEsAmount */\n      swap3\n      pop\n      pop\n      pop\n        /* \"TimeAlly.sol\":18200:19703  function seeMaxLoaningAmountOnUserStakings(address _userAddress, uint256[] memory _stakingIds, uint256 _loanPlanId) public view returns (uint256) {... */\n      swap4\n      swap3\n      pop\n      pop\n      pop\n      jump\t// out\n        /* \"TimeAlly.sol\":7328:8632  function newStaking(uint256 _exaEsAmount, uint256 _stakingPlanId) public {... */\n    tag_149:\n        /* \"TimeAlly.sol\":7590:7591  0 */\n      0x00\n        /* \"TimeAlly.sol\":7575:7587  _exaEsAmount */\n      dup3\n        /* \"TimeAlly.sol\":7575:7591  _exaEsAmount > 0 */\n      gt\n        /* \"TimeAlly.sol\":7567:7654  require(_exaEsAmount > 0... */\n      tag_617\n      jumpi\n      0x00\n      dup1\n      revert\n    tag_617:\n        /* \"TimeAlly.sol\":7673:7678  token */\n      0x02\n      0x00\n      swap1\n      sload\n      swap1\n      0x0100\n      exp\n      swap1\n      div\n      0xffffffffffffffffffffffffffffffffffffffff\n      and\n        /* \"TimeAlly.sol\":7673:7691  token.transferFrom */\n      0xffffffffffffffffffffffffffffffffffffffff\n      and\n      0x23b872dd\n        /* \"TimeAlly.sol\":7692:7702  msg.sender */\n      caller\n        /* \"TimeAlly.sol\":7712:7716  this */\n      address\n        /* \"TimeAlly.sol\":7719:7731  _exaEsAmount */\n      dup6\n        /* \"TimeAlly.sol\":7673:7732  token.transferFrom(msg.sender, address(this), _exaEsAmount) */\n      mload(0x40)\n      dup5\n      0xffffffff\n      and\n      0xe0\n      shl\n      dup2\n      mstore\n      0x04\n      add\n      dup1\n      dup5\n      0xffffffffffffffffffffffffffffffffffffffff\n      and\n      0xffffffffffffffffffffffffffffffffffffffff\n      and\n      dup2\n      mstore\n      0x20\n      add\n      dup4\n      0xffffffffffffffffffffffffffffffffffffffff\n      and\n      0xffffffffffffffffffffffffffffffffffffffff\n      and\n      dup2\n      mstore\n      0x20\n      add\n      dup3\n      dup2\n      mstore\n      0x20\n      add\n      swap4\n      pop\n      pop\n      pop\n      pop\n      0x20\n      mload(0x40)\n      dup1\n      dup4\n      sub\n      dup2\n      0x00\n      dup8\n      dup1\n      extcodesize\n      iszero\n        /* \"--CODEGEN--\":8:17   */\n      dup1\n        /* \"--CODEGEN--\":5:7   */\n      iszero\n      tag_618\n      jumpi\n        /* \"--CODEGEN--\":30:31   */\n      0x00\n        /* \"--CODEGEN--\":27:28   */\n      dup1\n        /* \"--CODEGEN--\":20:32   */\n      revert\n        /* \"--CODEGEN--\":5:7   */\n    tag_618:\n        /* \"TimeAlly.sol\":7673:7732  token.transferFrom(msg.sender, address(this), _exaEsAmount) */\n      pop\n      gas\n      call\n      iszero\n        /* \"--CODEGEN--\":8:17   */\n      dup1\n        /* \"--CODEGEN--\":5:7   */\n      iszero\n      tag_619\n      jumpi\n        /* \"--CODEGEN--\":45:61   */\n      returndatasize\n        /* \"--CODEGEN--\":42:43   */\n      0x00\n        /* \"--CODEGEN--\":39:40   */\n      dup1\n        /* \"--CODEGEN--\":24:62   */\n      returndatacopy\n        /* \"--CODEGEN--\":77:93   */\n      returndatasize\n        /* \"--CODEGEN--\":74:75   */\n      0x00\n        /* \"--CODEGEN--\":67:94   */\n      revert\n        /* \"--CODEGEN--\":5:7   */\n    tag_619:\n        /* \"TimeAlly.sol\":7673:7732  token.transferFrom(msg.sender, address(this), _exaEsAmount) */\n      pop\n      pop\n      pop\n      pop\n      mload(0x40)\n      returndatasize\n        /* \"--CODEGEN--\":13:15   */\n      0x20\n        /* \"--CODEGEN--\":8:11   */\n      dup2\n        /* \"--CODEGEN--\":5:16   */\n      lt\n        /* \"--CODEGEN--\":2:4   */\n      iszero\n      tag_620\n      jumpi\n        /* \"--CODEGEN--\":29:30   */\n      0x00\n        /* \"--CODEGEN--\":26:27   */\n      dup1\n        /* \"--CODEGEN--\":19:31   */\n      revert\n        /* \"--CODEGEN--\":2:4   */\n    tag_620:\n        /* \"TimeAlly.sol\":7673:7732  token.transferFrom(msg.sender, address(this), _exaEsAmount) */\n      dup2\n      add\n      swap1\n      dup1\n      dup1\n      mload\n      swap1\n      0x20\n      add\n      swap1\n      swap3\n      swap2\n      swap1\n      pop\n      pop\n      pop\n        /* \"TimeAlly.sol\":7665:7785  require(token.transferFrom(msg.sender, address(this), _exaEsAmount)... */\n      tag_621\n      jumpi\n      0x00\n      dup1\n      revert\n    tag_621:\n        /* \"TimeAlly.sol\":7795:7816  uint256 stakeEndMonth */\n      0x00\n        /* \"TimeAlly.sol\":7839:7851  stakingPlans */\n      0x05\n        /* \"TimeAlly.sol\":7852:7866  _stakingPlanId */\n      dup3\n        /* \"TimeAlly.sol\":7839:7867  stakingPlans[_stakingPlanId] */\n      dup2\n      sload\n      dup2\n      lt\n      tag_622\n      jumpi\n      invalid\n    tag_622:\n      swap1\n      0x00\n      mstore\n      keccak256(0x00, 0x20)\n      swap1\n      0x03\n      mul\n      add\n        /* \"TimeAlly.sol\":7839:7874  stakingPlans[_stakingPlanId].months */\n      0x00\n      add\n      sload\n        /* \"TimeAlly.sol\":7819:7836  getCurrentMonth() */\n      tag_624\n        /* \"TimeAlly.sol\":7819:7834  getCurrentMonth */\n      tag_137\n        /* \"TimeAlly.sol\":7819:7836  getCurrentMonth() */\n      jump\t// in\n    tag_624:\n        /* \"TimeAlly.sol\":7819:7874  getCurrentMonth() + stakingPlans[_stakingPlanId].months */\n      add\n        /* \"TimeAlly.sol\":7795:7874  uint256 stakeEndMonth = getCurrentMonth() + stakingPlans[_stakingPlanId].months */\n      swap1\n      pop\n        /* \"TimeAlly.sol\":8030:8043  uint256 month */\n      0x00\n        /* \"TimeAlly.sol\":8066:8067  1 */\n      0x01\n        /* \"TimeAlly.sol\":8046:8063  getCurrentMonth() */\n      tag_628\n        /* \"TimeAlly.sol\":8046:8061  getCurrentMonth */\n      tag_137\n        /* \"TimeAlly.sol\":8046:8063  getCurrentMonth() */\n      jump\t// in\n    tag_628:\n        /* \"TimeAlly.sol\":8046:8067  getCurrentMonth() + 1 */\n      add\n        /* \"TimeAlly.sol\":8030:8067  uint256 month = getCurrentMonth() + 1 */\n      swap1\n      pop\n        /* \"TimeAlly.sol\":8015:8229  for(... */\n    tag_625:\n        /* \"TimeAlly.sol\":8088:8101  stakeEndMonth */\n      dup2\n        /* \"TimeAlly.sol\":8079:8084  month */\n      dup2\n        /* \"TimeAlly.sol\":8079:8101  month <= stakeEndMonth */\n      gt\n        /* \"TimeAlly.sol\":8015:8229  for(... */\n      tag_626\n      jumpi\n        /* \"TimeAlly.sol\":8174:8218  totalActiveStakings[month].add(_exaEsAmount) */\n      tag_629\n        /* \"TimeAlly.sol\":8205:8217  _exaEsAmount */\n      dup5\n        /* \"TimeAlly.sol\":8174:8193  totalActiveStakings */\n      0x0a\n        /* \"TimeAlly.sol\":8174:8200  totalActiveStakings[month] */\n      0x00\n        /* \"TimeAlly.sol\":8194:8199  month */\n      dup5\n        /* \"TimeAlly.sol\":8174:8200  totalActiveStakings[month] */\n      dup2\n      mstore\n      0x20\n      add\n      swap1\n      dup2\n      mstore\n      0x20\n      add\n      0x00\n      keccak256\n      sload\n        /* \"TimeAlly.sol\":8174:8204  totalActiveStakings[month].add */\n      tag_198\n      swap1\n        /* \"TimeAlly.sol\":8174:8218  totalActiveStakings[month].add(_exaEsAmount) */\n      swap2\n      swap1\n      0xffffffff\n      and\n      jump\t// in\n    tag_629:\n        /* \"TimeAlly.sol\":8145:8164  totalActiveStakings */\n      0x0a\n        /* \"TimeAlly.sol\":8145:8171  totalActiveStakings[month] */\n      0x00\n        /* \"TimeAlly.sol\":8165:8170  month */\n      dup4\n        /* \"TimeAlly.sol\":8145:8171  totalActiveStakings[month] */\n      dup2\n      mstore\n      0x20\n      add\n      swap1\n      dup2\n      mstore\n      0x20\n      add\n      0x00\n      keccak256\n        /* \"TimeAlly.sol\":8145:8218  totalActiveStakings[month] = totalActiveStakings[month].add(_exaEsAmount) */\n      dup2\n      swap1\n      sstore\n      pop\n        /* \"TimeAlly.sol\":8113:8120  month++ */\n      dup1\n      dup1\n      0x01\n      add\n      swap2\n      pop\n      pop\n        /* \"TimeAlly.sol\":8015:8229  for(... */\n      jump(tag_625)\n    tag_626:\n      pop\n        /* \"TimeAlly.sol\":8239:8247  stakings */\n      0x07\n        /* \"TimeAlly.sol\":8239:8259  stakings[msg.sender] */\n      0x00\n        /* \"TimeAlly.sol\":8248:8258  msg.sender */\n      caller\n        /* \"TimeAlly.sol\":8239:8259  stakings[msg.sender] */\n      0xffffffffffffffffffffffffffffffffffffffff\n      and\n      0xffffffffffffffffffffffffffffffffffffffff\n      and\n      dup2\n      mstore\n      0x20\n      add\n      swap1\n      dup2\n      mstore\n      0x20\n      add\n      0x00\n      keccak256\n        /* \"TimeAlly.sol\":8265:8523  Staking({... */\n      mload(0x40)\n      dup1\n      0xe0\n      add\n      0x40\n      mstore\n      dup1\n        /* \"TimeAlly.sol\":8300:8312  _exaEsAmount */\n      dup6\n        /* \"TimeAlly.sol\":8265:8523  Staking({... */\n      dup2\n      mstore\n      0x20\n      add\n        /* \"TimeAlly.sol\":8337:8340  now */\n      timestamp\n        /* \"TimeAlly.sol\":8265:8523  Staking({... */\n      dup2\n      mstore\n      0x20\n      add\n        /* \"TimeAlly.sol\":8368:8385  getCurrentMonth() */\n      tag_630\n        /* \"TimeAlly.sol\":8368:8383  getCurrentMonth */\n      tag_137\n        /* \"TimeAlly.sol\":8368:8385  getCurrentMonth() */\n      jump\t// in\n    tag_630:\n        /* \"TimeAlly.sol\":8265:8523  Staking({... */\n      dup2\n      mstore\n      0x20\n      add\n        /* \"TimeAlly.sol\":8414:8428  _stakingPlanId */\n      dup5\n        /* \"TimeAlly.sol\":8265:8523  Staking({... */\n      dup2\n      mstore\n      0x20\n      add\n        /* \"TimeAlly.sol\":8450:8451  1 */\n      0x01\n        /* \"TimeAlly.sol\":8265:8523  Staking({... */\n      dup2\n      mstore\n      0x20\n      add\n        /* \"TimeAlly.sol\":8473:8474  0 */\n      0x00\n        /* \"TimeAlly.sol\":8265:8523  Staking({... */\n      dup2\n      mstore\n      0x20\n      add\n        /* \"TimeAlly.sol\":8511:8512  0 */\n      0x00\n        /* \"TimeAlly.sol\":8265:8523  Staking({... */\n      dup2\n      mstore\n      pop\n        /* \"TimeAlly.sol\":8239:8524  stakings[msg.sender].push(Staking({... */\n      swap1\n      dup1\n        /* \"--CODEGEN--\":39:40   */\n      0x01\n        /* \"--CODEGEN--\":33:36   */\n      dup2\n        /* \"--CODEGEN--\":27:37   */\n      sload\n        /* \"--CODEGEN--\":23:41   */\n      add\n        /* \"--CODEGEN--\":57:67   */\n      dup1\n        /* \"--CODEGEN--\":52:55   */\n      dup3\n        /* \"--CODEGEN--\":45:68   */\n      sstore\n        /* \"--CODEGEN--\":79:89   */\n      dup1\n        /* \"--CODEGEN--\":72:89   */\n      swap2\n      pop\n        /* \"--CODEGEN--\":0:93   */\n      pop\n        /* \"TimeAlly.sol\":8239:8524  stakings[msg.sender].push(Staking({... */\n      swap1\n      0x01\n      dup3\n      sub\n      swap1\n      0x00\n      mstore\n      keccak256(0x00, 0x20)\n      swap1\n      0x09\n      mul\n      add\n      0x00\n      swap1\n      swap2\n      swap3\n      swap1\n      swap2\n      swap1\n      swap2\n      pop\n      0x00\n      dup3\n      add\n      mload\n      dup2\n      0x00\n      add\n      sstore\n      0x20\n      dup3\n      add\n      mload\n      dup2\n      0x01\n      add\n      sstore\n      0x40\n      dup3\n      add\n      mload\n      dup2\n      0x02\n      add\n      sstore\n      0x60\n      dup3\n      add\n      mload\n      dup2\n      0x03\n      add\n      sstore\n      0x80\n      dup3\n      add\n      mload\n      dup2\n      0x04\n      add\n      sstore\n      0xa0\n      dup3\n      add\n      mload\n      dup2\n      0x05\n      add\n      sstore\n      0xc0\n      dup3\n      add\n      mload\n      dup2\n      0x06\n      add\n      sstore\n      pop\n      pop\n      pop\n        /* \"TimeAlly.sol\":8563:8577  _stakingPlanId */\n      dup2\n        /* \"TimeAlly.sol\":8551:8561  msg.sender */\n      caller\n        /* \"TimeAlly.sol\":8540:8625  NewStaking(msg.sender, _stakingPlanId, _exaEsAmount, stakings[msg.sender].length - 1) */\n      0xffffffffffffffffffffffffffffffffffffffff\n      and\n      0x680a0e2e97ad7c29da7985e37b699f19857c055166f801e50d90661eae30fcc3\n        /* \"TimeAlly.sol\":8579:8591  _exaEsAmount */\n      dup6\n        /* \"TimeAlly.sol\":8623:8624  1 */\n      0x01\n        /* \"TimeAlly.sol\":8593:8601  stakings */\n      0x07\n        /* \"TimeAlly.sol\":8593:8613  stakings[msg.sender] */\n      0x00\n        /* \"TimeAlly.sol\":8602:8612  msg.sender */\n      caller\n        /* \"TimeAlly.sol\":8593:8613  stakings[msg.sender] */\n      0xffffffffffffffffffffffffffffffffffffffff\n      and\n      0xffffffffffffffffffffffffffffffffffffffff\n      and\n      dup2\n      mstore\n      0x20\n      add\n      swap1\n      dup2\n      mstore\n      0x20\n      add\n      0x00\n      keccak256\n        /* \"TimeAlly.sol\":8593:8620  stakings[msg.sender].length */\n      dup1\n      sload\n      swap1\n      pop\n        /* \"TimeAlly.sol\":8593:8624  stakings[msg.sender].length - 1 */\n      sub\n        /* \"TimeAlly.sol\":8540:8625  NewStaking(msg.sender, _stakingPlanId, _exaEsAmount, stakings[msg.sender].length - 1) */\n      mload(0x40)\n      dup1\n      dup4\n      dup2\n      mstore\n      0x20\n      add\n      dup3\n      dup2\n      mstore\n      0x20\n      add\n      swap3\n      pop\n      pop\n      pop\n      mload(0x40)\n      dup1\n      swap2\n      sub\n      swap1\n      log3\n        /* \"TimeAlly.sol\":7328:8632  function newStaking(uint256 _exaEsAmount, uint256 _stakingPlanId) public {... */\n      pop\n      pop\n      pop\n      jump\t// out\n        /* \"TimeAlly.sol\":2278:2310  uint256 public deployedTimestamp */\n    tag_151:\n      sload(0x00)\n      dup2\n      jump\t// out\n        /* \"TimeAlly.sol\":5119:5240  function increaseMonth(uint256 _timeAllyNRT) public onlyNRTManager {... */\n    tag_154:\n        /* \"TimeAlly.sol\":4315:4325  nrtManager */\n      0x03\n      0x00\n      swap1\n      sload\n      swap1\n      0x0100\n      exp\n      swap1\n      div\n      0xffffffffffffffffffffffffffffffffffffffff\n      and\n        /* \"TimeAlly.sol\":4293:4326  msg.sender == address(nrtManager) */\n      0xffffffffffffffffffffffffffffffffffffffff\n      and\n        /* \"TimeAlly.sol\":4293:4303  msg.sender */\n      caller\n        /* \"TimeAlly.sol\":4293:4326  msg.sender == address(nrtManager) */\n      0xffffffffffffffffffffffffffffffffffffffff\n      and\n      eq\n        /* \"TimeAlly.sol\":4274:4379  require(... */\n      tag_633\n      jumpi\n      0x00\n      dup1\n      revert\n    tag_633:\n        /* \"TimeAlly.sol\":5196:5214  timeAllyMonthlyNRT */\n      0x0b\n        /* \"TimeAlly.sol\":5220:5232  _timeAllyNRT */\n      dup2\n        /* \"TimeAlly.sol\":5196:5233  timeAllyMonthlyNRT.push(_timeAllyNRT) */\n      swap1\n      dup1\n        /* \"--CODEGEN--\":39:40   */\n      0x01\n        /* \"--CODEGEN--\":33:36   */\n      dup2\n        /* \"--CODEGEN--\":27:37   */\n      sload\n        /* \"--CODEGEN--\":23:41   */\n      add\n        /* \"--CODEGEN--\":57:67   */\n      dup1\n        /* \"--CODEGEN--\":52:55   */\n      dup3\n        /* \"--CODEGEN--\":45:68   */\n      sstore\n        /* \"--CODEGEN--\":79:89   */\n      dup1\n        /* \"--CODEGEN--\":72:89   */\n      swap2\n      pop\n        /* \"--CODEGEN--\":0:93   */\n      pop\n        /* \"TimeAlly.sol\":5196:5233  timeAllyMonthlyNRT.push(_timeAllyNRT) */\n      swap1\n      0x01\n      dup3\n      sub\n      swap1\n      0x00\n      mstore\n      keccak256(0x00, 0x20)\n      add\n      0x00\n      swap1\n      swap2\n      swap3\n      swap1\n      swap2\n      swap1\n      swap2\n      pop\n      sstore\n      pop\n        /* \"TimeAlly.sol\":5119:5240  function increaseMonth(uint256 _timeAllyNRT) public onlyNRTManager {... */\n      pop\n      jump\t// out\n        /* \"TimeAlly.sol\":17191:17825  function withdrawExpiredStakings(uint256[] memory _stakingIds) public {... */\n    tag_160:\n        /* \"TimeAlly.sol\":17275:17284  uint256 i */\n      0x00\n        /* \"TimeAlly.sol\":17287:17288  0 */\n      dup1\n        /* \"TimeAlly.sol\":17275:17288  uint256 i = 0 */\n      swap1\n      pop\n        /* \"TimeAlly.sol\":17271:17819  for(uint256 i = 0; i < _stakingIds.length; i++) {... */\n    tag_637:\n        /* \"TimeAlly.sol\":17294:17305  _stakingIds */\n      dup2\n        /* \"TimeAlly.sol\":17294:17312  _stakingIds.length */\n      mload\n        /* \"TimeAlly.sol\":17290:17291  i */\n      dup2\n        /* \"TimeAlly.sol\":17290:17312  i < _stakingIds.length */\n      lt\n        /* \"TimeAlly.sol\":17271:17819  for(uint256 i = 0; i < _stakingIds.length; i++) {... */\n      iszero\n      tag_638\n      jumpi\n        /* \"TimeAlly.sol\":17348:17519  stakings[msg.sender][_stakingIds[i]].timestamp... */\n      tag_640\n        /* \"TimeAlly.sol\":17420:17518  stakingPlans[ stakings[msg.sender][_stakingIds[i]].stakingPlanId ].months.mul(earthSecondsInMonth) */\n      tag_641\n        /* \"TimeAlly.sol\":17498:17517  earthSecondsInMonth */\n      sload(0x04)\n        /* \"TimeAlly.sol\":17420:17432  stakingPlans */\n      0x05\n        /* \"TimeAlly.sol\":17434:17442  stakings */\n      0x07\n        /* \"TimeAlly.sol\":17434:17454  stakings[msg.sender] */\n      0x00\n        /* \"TimeAlly.sol\":17443:17453  msg.sender */\n      caller\n        /* \"TimeAlly.sol\":17434:17454  stakings[msg.sender] */\n      0xffffffffffffffffffffffffffffffffffffffff\n      and\n      0xffffffffffffffffffffffffffffffffffffffff\n      and\n      dup2\n      mstore\n      0x20\n      add\n      swap1\n      dup2\n      mstore\n      0x20\n      add\n      0x00\n      keccak256\n        /* \"TimeAlly.sol\":17455:17466  _stakingIds */\n      dup7\n        /* \"TimeAlly.sol\":17467:17468  i */\n      dup7\n        /* \"TimeAlly.sol\":17455:17469  _stakingIds[i] */\n      dup2\n      mload\n      dup2\n      lt\n      tag_642\n      jumpi\n      invalid\n    tag_642:\n      0x20\n      mul\n      0x20\n      add\n      add\n      mload\n        /* \"TimeAlly.sol\":17434:17470  stakings[msg.sender][_stakingIds[i]] */\n      dup2\n      sload\n      dup2\n      lt\n      tag_643\n      jumpi\n      invalid\n    tag_643:\n      swap1\n      0x00\n      mstore\n      keccak256(0x00, 0x20)\n      swap1\n      0x09\n      mul\n      add\n        /* \"TimeAlly.sol\":17434:17484  stakings[msg.sender][_stakingIds[i]].stakingPlanId */\n      0x03\n      add\n      sload\n        /* \"TimeAlly.sol\":17420:17486  stakingPlans[ stakings[msg.sender][_stakingIds[i]].stakingPlanId ] */\n      dup2\n      sload\n      dup2\n      lt\n      tag_645\n      jumpi\n      invalid\n    tag_645:\n      swap1\n      0x00\n      mstore\n      keccak256(0x00, 0x20)\n      swap1\n      0x03\n      mul\n      add\n        /* \"TimeAlly.sol\":17420:17493  stakingPlans[ stakings[msg.sender][_stakingIds[i]].stakingPlanId ].months */\n      0x00\n      add\n      sload\n        /* \"TimeAlly.sol\":17420:17497  stakingPlans[ stakings[msg.sender][_stakingIds[i]].stakingPlanId ].months.mul */\n      tag_179\n      swap1\n        /* \"TimeAlly.sol\":17420:17518  stakingPlans[ stakings[msg.sender][_stakingIds[i]].stakingPlanId ].months.mul(earthSecondsInMonth) */\n      swap2\n      swap1\n      0xffffffff\n      and\n      jump\t// in\n    tag_641:\n        /* \"TimeAlly.sol\":17348:17356  stakings */\n      0x07\n        /* \"TimeAlly.sol\":17348:17368  stakings[msg.sender] */\n      0x00\n        /* \"TimeAlly.sol\":17357:17367  msg.sender */\n      caller\n        /* \"TimeAlly.sol\":17348:17368  stakings[msg.sender] */\n      0xffffffffffffffffffffffffffffffffffffffff\n      and\n      0xffffffffffffffffffffffffffffffffffffffff\n      and\n      dup2\n      mstore\n      0x20\n      add\n      swap1\n      dup2\n      mstore\n      0x20\n      add\n      0x00\n      keccak256\n        /* \"TimeAlly.sol\":17369:17380  _stakingIds */\n      dup5\n        /* \"TimeAlly.sol\":17381:17382  i */\n      dup5\n        /* \"TimeAlly.sol\":17369:17383  _stakingIds[i] */\n      dup2\n      mload\n      dup2\n      lt\n      tag_647\n      jumpi\n      invalid\n    tag_647:\n      0x20\n      mul\n      0x20\n      add\n      add\n      mload\n        /* \"TimeAlly.sol\":17348:17384  stakings[msg.sender][_stakingIds[i]] */\n      dup2\n      sload\n      dup2\n      lt\n      tag_648\n      jumpi\n      invalid\n    tag_648:\n      swap1\n      0x00\n      mstore\n      keccak256(0x00, 0x20)\n      swap1\n      0x09\n      mul\n      add\n        /* \"TimeAlly.sol\":17348:17394  stakings[msg.sender][_stakingIds[i]].timestamp */\n      0x01\n      add\n      sload\n        /* \"TimeAlly.sol\":17348:17419  stakings[msg.sender][_stakingIds[i]].timestamp... */\n      tag_198\n      swap1\n        /* \"TimeAlly.sol\":17348:17519  stakings[msg.sender][_stakingIds[i]].timestamp... */\n      swap2\n      swap1\n      0xffffffff\n      and\n      jump\t// in\n    tag_640:\n        /* \"TimeAlly.sol\":17341:17344  now */\n      timestamp\n        /* \"TimeAlly.sol\":17341:17519  now >= stakings[msg.sender][_stakingIds[i]].timestamp... */\n      lt\n      iszero\n        /* \"TimeAlly.sol\":17333:17590  require(now >= stakings[msg.sender][_stakingIds[i]].timestamp... */\n      tag_650\n      jumpi\n      0x00\n      dup1\n      revert\n    tag_650:\n        /* \"TimeAlly.sol\":17650:17651  3 */\n      0x03\n        /* \"TimeAlly.sol\":17604:17612  stakings */\n      0x07\n        /* \"TimeAlly.sol\":17604:17624  stakings[msg.sender] */\n      0x00\n        /* \"TimeAlly.sol\":17613:17623  msg.sender */\n      caller\n        /* \"TimeAlly.sol\":17604:17624  stakings[msg.sender] */\n      0xffffffffffffffffffffffffffffffffffffffff\n      and\n      0xffffffffffffffffffffffffffffffffffffffff\n      and\n      dup2\n      mstore\n      0x20\n      add\n      swap1\n      dup2\n      mstore\n      0x20\n      add\n      0x00\n      keccak256\n        /* \"TimeAlly.sol\":17625:17636  _stakingIds */\n      dup4\n        /* \"TimeAlly.sol\":17637:17638  i */\n      dup4\n        /* \"TimeAlly.sol\":17625:17639  _stakingIds[i] */\n      dup2\n      mload\n      dup2\n      lt\n      tag_651\n      jumpi\n      invalid\n    tag_651:\n      0x20\n      mul\n      0x20\n      add\n      add\n      mload\n        /* \"TimeAlly.sol\":17604:17640  stakings[msg.sender][_stakingIds[i]] */\n      dup2\n      sload\n      dup2\n      lt\n      tag_652\n      jumpi\n      invalid\n    tag_652:\n      swap1\n      0x00\n      mstore\n      keccak256(0x00, 0x20)\n      swap1\n      0x09\n      mul\n      add\n        /* \"TimeAlly.sol\":17604:17647  stakings[msg.sender][_stakingIds[i]].status */\n      0x04\n      add\n        /* \"TimeAlly.sol\":17604:17651  stakings[msg.sender][_stakingIds[i]].status = 3 */\n      dup2\n      swap1\n      sstore\n      pop\n        /* \"TimeAlly.sol\":17666:17671  token */\n      0x02\n      0x00\n      swap1\n      sload\n      swap1\n      0x0100\n      exp\n      swap1\n      div\n      0xffffffffffffffffffffffffffffffffffffffff\n      and\n        /* \"TimeAlly.sol\":17666:17680  token.transfer */\n      0xffffffffffffffffffffffffffffffffffffffff\n      and\n      0xa9059cbb\n        /* \"TimeAlly.sol\":17681:17691  msg.sender */\n      caller\n        /* \"TimeAlly.sol\":17693:17701  stakings */\n      0x07\n        /* \"TimeAlly.sol\":17693:17713  stakings[msg.sender] */\n      0x00\n        /* \"TimeAlly.sol\":17702:17712  msg.sender */\n      caller\n        /* \"TimeAlly.sol\":17693:17713  stakings[msg.sender] */\n      0xffffffffffffffffffffffffffffffffffffffff\n      and\n      0xffffffffffffffffffffffffffffffffffffffff\n      and\n      dup2\n      mstore\n      0x20\n      add\n      swap1\n      dup2\n      mstore\n      0x20\n      add\n      0x00\n      keccak256\n        /* \"TimeAlly.sol\":17714:17725  _stakingIds */\n      dup6\n        /* \"TimeAlly.sol\":17726:17727  i */\n      dup6\n        /* \"TimeAlly.sol\":17714:17728  _stakingIds[i] */\n      dup2\n      mload\n      dup2\n      lt\n      tag_654\n      jumpi\n      invalid\n    tag_654:\n      0x20\n      mul\n      0x20\n      add\n      add\n      mload\n        /* \"TimeAlly.sol\":17693:17729  stakings[msg.sender][_stakingIds[i]] */\n      dup2\n      sload\n      dup2\n      lt\n      tag_655\n      jumpi\n      invalid\n    tag_655:\n      swap1\n      0x00\n      mstore\n      keccak256(0x00, 0x20)\n      swap1\n      0x09\n      mul\n      add\n        /* \"TimeAlly.sol\":17693:17741  stakings[msg.sender][_stakingIds[i]].exaEsAmount */\n      0x00\n      add\n      sload\n        /* \"TimeAlly.sol\":17666:17742  token.transfer(msg.sender, stakings[msg.sender][_stakingIds[i]].exaEsAmount) */\n      mload(0x40)\n      dup4\n      0xffffffff\n      and\n      0xe0\n      shl\n      dup2\n      mstore\n      0x04\n      add\n      dup1\n      dup4\n      0xffffffffffffffffffffffffffffffffffffffff\n      and\n      0xffffffffffffffffffffffffffffffffffffffff\n      and\n      dup2\n      mstore\n      0x20\n      add\n      dup3\n      dup2\n      mstore\n      0x20\n      add\n      swap3\n      pop\n      pop\n      pop\n      0x20\n      mload(0x40)\n      dup1\n      dup4\n      sub\n      dup2\n      0x00\n      dup8\n      dup1\n      extcodesize\n      iszero\n        /* \"--CODEGEN--\":8:17   */\n      dup1\n        /* \"--CODEGEN--\":5:7   */\n      iszero\n      tag_657\n      jumpi\n        /* \"--CODEGEN--\":30:31   */\n      0x00\n        /* \"--CODEGEN--\":27:28   */\n      dup1\n        /* \"--CODEGEN--\":20:32   */\n      revert\n        /* \"--CODEGEN--\":5:7   */\n    tag_657:\n        /* \"TimeAlly.sol\":17666:17742  token.transfer(msg.sender, stakings[msg.sender][_stakingIds[i]].exaEsAmount) */\n      pop\n      gas\n      call\n      iszero\n        /* \"--CODEGEN--\":8:17   */\n      dup1\n        /* \"--CODEGEN--\":5:7   */\n      iszero\n      tag_658\n      jumpi\n        /* \"--CODEGEN--\":45:61   */\n      returndatasize\n        /* \"--CODEGEN--\":42:43   */\n      0x00\n        /* \"--CODEGEN--\":39:40   */\n      dup1\n        /* \"--CODEGEN--\":24:62   */\n      returndatacopy\n        /* \"--CODEGEN--\":77:93   */\n      returndatasize\n        /* \"--CODEGEN--\":74:75   */\n      0x00\n        /* \"--CODEGEN--\":67:94   */\n      revert\n        /* \"--CODEGEN--\":5:7   */\n    tag_658:\n        /* \"TimeAlly.sol\":17666:17742  token.transfer(msg.sender, stakings[msg.sender][_stakingIds[i]].exaEsAmount) */\n      pop\n      pop\n      pop\n      pop\n      mload(0x40)\n      returndatasize\n        /* \"--CODEGEN--\":13:15   */\n      0x20\n        /* \"--CODEGEN--\":8:11   */\n      dup2\n        /* \"--CODEGEN--\":5:16   */\n      lt\n        /* \"--CODEGEN--\":2:4   */\n      iszero\n      tag_659\n      jumpi\n        /* \"--CODEGEN--\":29:30   */\n      0x00\n        /* \"--CODEGEN--\":26:27   */\n      dup1\n        /* \"--CODEGEN--\":19:31   */\n      revert\n        /* \"--CODEGEN--\":2:4   */\n    tag_659:\n        /* \"TimeAlly.sol\":17666:17742  token.transfer(msg.sender, stakings[msg.sender][_stakingIds[i]].exaEsAmount) */\n      dup2\n      add\n      swap1\n      dup1\n      dup1\n      mload\n      swap1\n      0x20\n      add\n      swap1\n      swap3\n      swap2\n      swap1\n      pop\n      pop\n      pop\n      pop\n        /* \"TimeAlly.sol\":17781:17791  msg.sender */\n      caller\n        /* \"TimeAlly.sol\":17762:17808  PrincipalWithdrawl(msg.sender, _stakingIds[i]) */\n      0xffffffffffffffffffffffffffffffffffffffff\n      and\n      0x4854321cc9be1d947b907185d497d36fe671cfb8f0dcbcdc84a01be76f81bff2\n        /* \"TimeAlly.sol\":17793:17804  _stakingIds */\n      dup4\n        /* \"TimeAlly.sol\":17805:17806  i */\n      dup4\n        /* \"TimeAlly.sol\":17793:17807  _stakingIds[i] */\n      dup2\n      mload\n      dup2\n      lt\n      tag_660\n      jumpi\n      invalid\n    tag_660:\n      0x20\n      mul\n      0x20\n      add\n      add\n      mload\n        /* \"TimeAlly.sol\":17762:17808  PrincipalWithdrawl(msg.sender, _stakingIds[i]) */\n      mload(0x40)\n      dup1\n      dup3\n      dup2\n      mstore\n      0x20\n      add\n      swap2\n      pop\n      pop\n      mload(0x40)\n      dup1\n      swap2\n      sub\n      swap1\n      log2\n        /* \"TimeAlly.sol\":17314:17317  i++ */\n      dup1\n      dup1\n      0x01\n      add\n      swap2\n      pop\n      pop\n        /* \"TimeAlly.sol\":17271:17819  for(uint256 i = 0; i < _stakingIds.length; i++) {... */\n      jump(tag_637)\n    tag_638:\n      pop\n        /* \"TimeAlly.sol\":17191:17825  function withdrawExpiredStakings(uint256[] memory _stakingIds) public {... */\n      pop\n      jump\t// out\n        /* \"TimeAlly.sol\":2342:2362  Eraswap public token */\n    tag_162:\n      0x02\n      0x00\n      swap1\n      sload\n      swap1\n      0x0100\n      exp\n      swap1\n      div\n      0xffffffffffffffffffffffffffffffffffffffff\n      and\n      dup2\n      jump\t// out\n        /* \"SafeMath.sol\":231:652  function mul(uint256 a, uint256 b) internal pure returns (uint256) {... */\n    tag_179:\n        /* \"SafeMath.sol\":289:296  uint256 */\n      0x00\n        /* \"SafeMath.sol\":534:535  0 */\n      dup1\n        /* \"SafeMath.sol\":529:530  a */\n      dup4\n        /* \"SafeMath.sol\":529:535  a == 0 */\n      eq\n        /* \"SafeMath.sol\":525:570  if (a == 0) {... */\n      iszero\n      tag_662\n      jumpi\n        /* \"SafeMath.sol\":558:559  0 */\n      0x00\n        /* \"SafeMath.sol\":551:559  return 0 */\n      swap1\n      pop\n      jump(tag_661)\n        /* \"SafeMath.sol\":525:570  if (a == 0) {... */\n    tag_662:\n        /* \"SafeMath.sol\":580:589  uint256 c */\n      0x00\n        /* \"SafeMath.sol\":596:597  b */\n      dup3\n        /* \"SafeMath.sol\":592:593  a */\n      dup5\n        /* \"SafeMath.sol\":592:597  a * b */\n      mul\n        /* \"SafeMath.sol\":580:597  uint256 c = a * b */\n      swap1\n      pop\n        /* \"SafeMath.sol\":624:625  b */\n      dup3\n        /* \"SafeMath.sol\":619:620  a */\n      dup5\n        /* \"SafeMath.sol\":615:616  c */\n      dup3\n        /* \"SafeMath.sol\":615:620  c / a */\n      dup2\n      tag_663\n      jumpi\n      invalid\n    tag_663:\n      div\n        /* \"SafeMath.sol\":615:625  c / a == b */\n      eq\n        /* \"SafeMath.sol\":607:626  require(c / a == b) */\n      tag_664\n      jumpi\n      0x00\n      dup1\n      revert\n    tag_664:\n        /* \"SafeMath.sol\":644:645  c */\n      dup1\n        /* \"SafeMath.sol\":637:645  return c */\n      swap2\n      pop\n      pop\n        /* \"SafeMath.sol\":231:652  function mul(uint256 a, uint256 b) internal pure returns (uint256) {... */\n    tag_661:\n      swap3\n      swap2\n      pop\n      pop\n      jump\t// out\n        /* \"SafeMath.sol\":1439:1584  function add(uint256 a, uint256 b) internal pure returns (uint256) {... */\n    tag_198:\n        /* \"SafeMath.sol\":1497:1504  uint256 */\n      0x00\n        /* \"SafeMath.sol\":1516:1525  uint256 c */\n      dup1\n        /* \"SafeMath.sol\":1532:1533  b */\n      dup3\n        /* \"SafeMath.sol\":1528:1529  a */\n      dup5\n        /* \"SafeMath.sol\":1528:1533  a + b */\n      add\n        /* \"SafeMath.sol\":1516:1533  uint256 c = a + b */\n      swap1\n      pop\n        /* \"SafeMath.sol\":1556:1557  a */\n      dup4\n        /* \"SafeMath.sol\":1551:1552  c */\n      dup2\n        /* \"SafeMath.sol\":1551:1557  c >= a */\n      lt\n      iszero\n        /* \"SafeMath.sol\":1543:1558  require(c >= a) */\n      tag_666\n      jumpi\n      0x00\n      dup1\n      revert\n    tag_666:\n        /* \"SafeMath.sol\":1576:1577  c */\n      dup1\n        /* \"SafeMath.sol\":1569:1577  return c */\n      swap2\n      pop\n      pop\n        /* \"SafeMath.sol\":1439:1584  function add(uint256 a, uint256 b) internal pure returns (uint256) {... */\n      swap3\n      swap2\n      pop\n      pop\n      jump\t// out\n        /* \"SafeMath.sol\":1211:1356  function sub(uint256 a, uint256 b) internal pure returns (uint256) {... */\n    tag_204:\n        /* \"SafeMath.sol\":1269:1276  uint256 */\n      0x00\n        /* \"SafeMath.sol\":1301:1302  a */\n      dup3\n        /* \"SafeMath.sol\":1296:1297  b */\n      dup3\n        /* \"SafeMath.sol\":1296:1302  b <= a */\n      gt\n      iszero\n        /* \"SafeMath.sol\":1288:1303  require(b <= a) */\n      tag_668\n      jumpi\n      0x00\n      dup1\n      revert\n    tag_668:\n        /* \"SafeMath.sol\":1313:1322  uint256 c */\n      0x00\n        /* \"SafeMath.sol\":1329:1330  b */\n      dup3\n        /* \"SafeMath.sol\":1325:1326  a */\n      dup5\n        /* \"SafeMath.sol\":1325:1330  a - b */\n      sub\n        /* \"SafeMath.sol\":1313:1330  uint256 c = a - b */\n      swap1\n      pop\n        /* \"SafeMath.sol\":1348:1349  c */\n      dup1\n        /* \"SafeMath.sol\":1341:1349  return c */\n      swap2\n      pop\n      pop\n        /* \"SafeMath.sol\":1211:1356  function sub(uint256 a, uint256 b) internal pure returns (uint256) {... */\n      swap3\n      swap2\n      pop\n      pop\n      jump\t// out\n        /* \"SafeMath.sol\":782:1078  function div(uint256 a, uint256 b) internal pure returns (uint256) {... */\n    tag_236:\n        /* \"SafeMath.sol\":840:847  uint256 */\n      0x00\n        /* \"SafeMath.sol\":937:938  0 */\n      dup1\n        /* \"SafeMath.sol\":933:934  b */\n      dup3\n        /* \"SafeMath.sol\":933:938  b > 0 */\n      gt\n        /* \"SafeMath.sol\":925:939  require(b > 0) */\n      tag_670\n      jumpi\n      0x00\n      dup1\n      revert\n    tag_670:\n        /* \"SafeMath.sol\":949:958  uint256 c */\n      0x00\n        /* \"SafeMath.sol\":965:966  b */\n      dup3\n        /* \"SafeMath.sol\":961:962  a */\n      dup5\n        /* \"SafeMath.sol\":961:966  a / b */\n      dup2\n      tag_671\n      jumpi\n      invalid\n    tag_671:\n      div\n        /* \"SafeMath.sol\":949:966  uint256 c = a / b */\n      swap1\n      pop\n        /* \"SafeMath.sol\":1070:1071  c */\n      dup1\n        /* \"SafeMath.sol\":1063:1071  return c */\n      swap2\n      pop\n      pop\n        /* \"SafeMath.sol\":782:1078  function div(uint256 a, uint256 b) internal pure returns (uint256) {... */\n      swap3\n      swap2\n      pop\n      pop\n      jump\t// out\n        /* \"TimeAlly.sol\":794:34085  contract TimeAlly {... */\n    tag_487:\n      dup3\n      dup1\n      sload\n      dup3\n      dup3\n      sstore\n      swap1\n      0x00\n      mstore\n      keccak256(0x00, 0x20)\n      swap1\n      dup2\n      add\n      swap3\n      dup3\n      iszero\n      tag_672\n      jumpi\n      swap2\n      0x20\n      mul\n      dup3\n      add\n    tag_673:\n      dup3\n      dup2\n      gt\n      iszero\n      tag_674\n      jumpi\n      dup3\n      mload\n      dup3\n      sstore\n      swap2\n      0x20\n      add\n      swap2\n      swap1\n      0x01\n      add\n      swap1\n      jump(tag_673)\n    tag_674:\n    tag_672:\n      pop\n      swap1\n      pop\n      tag_675\n      swap2\n      swap1\n      tag_676\n      jump\t// in\n    tag_675:\n      pop\n      swap1\n      jump\t// out\n    tag_676:\n      tag_677\n      swap2\n      swap1\n    tag_678:\n      dup1\n      dup3\n      gt\n      iszero\n      tag_679\n      jumpi\n      0x00\n      dup2\n      0x00\n      swap1\n      sstore\n      pop\n      0x01\n      add\n      jump(tag_678)\n    tag_679:\n      pop\n      swap1\n      jump\n    tag_677:\n      swap1\n      jump\t// out\n\n    auxdata: 0xa265627a7a72305820a32608233192f2f73c628fc0ef6b86399dc71a658ca6f2f7a3cfc3313ca0151264736f6c634300050a0032\n}\n","bytecode":{"linkReferences":{},"object":"6080604052622820706004553480156200001857600080fd5b5060405162005b6e38038062005b6e833981810160405260408110156200003e57600080fd5b81019080805190602001909291908051906020019092919050505033600160006101000a81548173ffffffffffffffffffffffffffffffffffffffff021916908373ffffffffffffffffffffffffffffffffffffffff16021790555081600260006101000a81548173ffffffffffffffffffffffffffffffffffffffff021916908373ffffffffffffffffffffffffffffffffffffffff16021790555080600360006101000a81548173ffffffffffffffffffffffffffffffffffffffff021916908373ffffffffffffffffffffffffffffffffffffffff16021790555042600081905550600b600090806001815401808255809150509060018203906000526020600020016000909192909190915055505050615a0c80620001626000396000f3fe608060405234801561001057600080fd5b50600436106101fb5760003560e01c806398c61c371161011a578063da9d8aa0116100ad578063e5fd04e61161007c578063e5fd04e614610eb3578063e6bbe42414610eeb578063e78c81c414610f09578063e83f784314610f37578063fc0c546a14610fef576101fb565b8063da9d8aa014610d43578063ddd1b67e14610d71578063dea6cf4314610d8f578063df90f7ce14610dbd576101fb565b8063cc44a2fd116100e9578063cc44a2fd14610b75578063d0e3268114610bc5578063d1cf31b314610c91578063d58424a314610cd3576101fb565b806398c61c371461098c5780639d0b8b4414610a03578063a4c0e90a14610ac5578063ad998fa014610b1d576101fb565b806353fcb2f3116101925780637acab857116101615780637acab8571461075057806388c5f296146107a85780638da5cb5b146108f4578063911e8bc61461093e576101fb565b806353fcb2f31461066c578063582e7e9e1461069a578063762e7a34146106b8578063778db8d41461070c576101fb565b80632c779774116101ce5780632c779774146104645780632e9721b61461055a5780634ec0692c146105dc5780634f916fb01461061e576101fb565b80630df5202f1461020057806316d3e9661461024a5780631849d8ea1461039657806323a15e6b14610422575b600080fd5b610208611039565b604051808273ffffffffffffffffffffffffffffffffffffffff1673ffffffffffffffffffffffffffffffffffffffff16815260200191505060405180910390f35b6103946004803603604081101561026057600080fd5b810190808035906020019064010000000081111561027d57600080fd5b82018360208201111561028f57600080fd5b803590602001918460208302840111640100000000831117156102b157600080fd5b919080806020026020016040519081016040528093929190818152602001838360200280828437600081840152601f19601f8201169050808301925050505050505091929192908035906020019064010000000081111561031157600080fd5b82018360208201111561032357600080fd5b8035906020019184602083028401116401000000008311171561034557600080fd5b919080806020026020016040519081016040528093929190818152602001838360200280828437600081840152601f19601f82011690508083019250505050505050919291929050505061105f565b005b6103e2600480360360408110156103ac57600080fd5b81019080803573ffffffffffffffffffffffffffffffffffffffff169060200190929190803590602001909291905050506115f0565b6040518088815260200187815260200186815260200185815260200184815260200183815260200182815260200197505050505050505060405180910390f35b61044e6004803603602081101561043857600080fd5b810190808035906020019092919050505061164c565b6040518082815260200191505060405180910390f35b6105446004803603606081101561047a57600080fd5b81019080803573ffffffffffffffffffffffffffffffffffffffff16906020019092919080359060200190929190803590602001906401000000008111156104c157600080fd5b8201836020820111156104d357600080fd5b803590602001918460208302840111640100000000831117156104f557600080fd5b919080806020026020016040519081016040528093929190818152602001838360200280828437600081840152601f19601f82011690508083019250505050505050919291929050505061166d565b6040518082815260200191505060405180910390f35b6105c66004803603606081101561057057600080fd5b81019080803573ffffffffffffffffffffffffffffffffffffffff16906020019092919080359060200190929190803573ffffffffffffffffffffffffffffffffffffffff1690602001909291905050506118da565b6040518082815260200191505060405180910390f35b610608600480360360208110156105f257600080fd5b810190808035906020019092919050505061197e565b6040518082815260200191505060405180910390f35b61066a6004803603604081101561063457600080fd5b8101908080359060200190929190803573ffffffffffffffffffffffffffffffffffffffff169060200190929190505050611996565b005b6106986004803603602081101561068257600080fd5b8101908080359060200190929190505050611c74565b005b6106a2611e2d565b6040518082815260200191505060405180910390f35b6106e4600480360360208110156106ce57600080fd5b8101908080359060200190929190505050611e33565b6040518084815260200183815260200182151515158152602001935050505060405180910390f35b61074e6004803603606081101561072257600080fd5b810190808035906020019092919080359060200190929190803515159060200190929190505050611e77565b005b6107926004803603602081101561076657600080fd5b81019080803573ffffffffffffffffffffffffffffffffffffffff169060200190929190505050611f57565b6040518082815260200191505060405180910390f35b6108f2600480360360408110156107be57600080fd5b81019080803590602001906401000000008111156107db57600080fd5b8201836020820111156107ed57600080fd5b8035906020019184602083028401116401000000008311171561080f57600080fd5b919080806020026020016040519081016040528093929190818152602001838360200280828437600081840152601f19601f8201169050808301925050505050505091929192908035906020019064010000000081111561086f57600080fd5b82018360208201111561088157600080fd5b803590602001918460208302840111640100000000831117156108a357600080fd5b919080806020026020016040519081016040528093929190818152602001838360200280828437600081840152601f19601f820116905080830192505050505050509192919290505050611f6f565b005b6108fc612160565b604051808273ffffffffffffffffffffffffffffffffffffffff1673ffffffffffffffffffffffffffffffffffffffff16815260200191505060405180910390f35b61098a6004803603604081101561095457600080fd5b81019080803573ffffffffffffffffffffffffffffffffffffffff16906020019092919080359060200190929190505050612186565b005b6109d8600480360360408110156109a257600080fd5b81019080803573ffffffffffffffffffffffffffffffffffffffff16906020019092919080359060200190929190505050612b56565b6040518085815260200184815260200183815260200182815260200194505050505060405180910390f35b610ac360048036036040811015610a1957600080fd5b810190808035906020019092919080359060200190640100000000811115610a4057600080fd5b820183602082011115610a5257600080fd5b80359060200191846020830284011164010000000083111715610a7457600080fd5b919080806020026020016040519081016040528093929190818152602001838360200280828437600081840152601f19601f820116905080830192505050505050509192919290505050612ba0565b005b610b1b60048036036060811015610adb57600080fd5b8101908080359060200190929190803573ffffffffffffffffffffffffffffffffffffffff169060200190929190803590602001909291905050506132ce565b005b610b5f60048036036020811015610b3357600080fd5b81019080803573ffffffffffffffffffffffffffffffffffffffff1690602001909291905050506135a5565b6040518082815260200191505060405180910390f35b610ba160048036036020811015610b8b57600080fd5b81019080803590602001909291905050506135f1565b60405180848152602001838152602001828152602001935050505060405180910390f35b610c8f60048036036060811015610bdb57600080fd5b81019080803590602001909291908035906020019092919080359060200190640100000000811115610c0c57600080fd5b820183602082011115610c1e57600080fd5b80359060200191846020830284011164010000000083111715610c4057600080fd5b919080806020026020016040519081016040528093929190818152602001838360200280828437600081840152601f19601f820116905080830192505050505050509192919290505050613628565b005b610cd160048036036060811015610ca757600080fd5b8101908080359060200190929190803590602001909291908035906020019092919050505061407f565b005b610d2960048036036060811015610ce957600080fd5b81019080803573ffffffffffffffffffffffffffffffffffffffff1690602001909291908035906020019092919080359060200190929190505050614155565b604051808215151515815260200191505060405180910390f35b610d6f60048036036020811015610d5957600080fd5b810190808035906020019092919050505061441e565b005b610d79614712565b6040518082815260200191505060405180910390f35b610dbb60048036036020811015610da557600080fd5b8101908080359060200190929190505050614722565b005b610e9d60048036036060811015610dd357600080fd5b81019080803573ffffffffffffffffffffffffffffffffffffffff16906020019092919080359060200190640100000000811115610e1057600080fd5b820183602082011115610e2257600080fd5b80359060200191846020830284011164010000000083111715610e4457600080fd5b919080806020026020016040519081016040528093929190818152602001838360200280828437600081840152601f19601f82011690508083019250505050505050919291929080359060200190929190505050614e4b565b6040518082815260200191505060405180910390f35b610ee960048036036040811015610ec957600080fd5b81019080803590602001909291908035906020019092919050505061514f565b005b610ef361549c565b6040518082815260200191505060405180910390f35b610f3560048036036020811015610f1f57600080fd5b81019080803590602001909291905050506154a2565b005b610fed60048036036020811015610f4d57600080fd5b8101908080359060200190640100000000811115610f6a57600080fd5b820183602082011115610f7c57600080fd5b80359060200191846020830284011164010000000083111715610f9e57600080fd5b919080806020026020016040519081016040528093929190818152602001838360200280828437600081840152601f19601f82011690508083019250505050505050919291929050505061552b565b005b610ff76158a0565b604051808273ffffffffffffffffffffffffffffffffffffffff1673ffffffffffffffffffffffffffffffffffffffff16815260200191505060405180910390f35b600360009054906101000a900473ffffffffffffffffffffffffffffffffffffffff1681565b600080600090505b83518110156114225760016008600086848151811061108257fe5b602002602001015173ffffffffffffffffffffffffffffffffffffffff1673ffffffffffffffffffffffffffffffffffffffff1681526020019081526020016000208483815181106110d057fe5b6020026020010151815481106110e257fe5b906000526020600020906005020160030154146110fe57600080fd5b6111b260045460066008600088868151811061111657fe5b602002602001015173ffffffffffffffffffffffffffffffffffffffff1673ffffffffffffffffffffffffffffffffffffffff16815260200190815260200160002086858151811061116457fe5b60200260200101518154811061117657fe5b9060005260206000209060050201600201548154811061119257fe5b9060005260206000209060030201600001546158c690919063ffffffff16565b600860008684815181106111c257fe5b602002602001015173ffffffffffffffffffffffffffffffffffffffff1673ffffffffffffffffffffffffffffffffffffffff16815260200190815260200160002084838151811061121057fe5b60200260200101518154811061122257fe5b90600052602060002090600502016001015401421161124057600080fd5b60006008600086848151811061125257fe5b602002602001015173ffffffffffffffffffffffffffffffffffffffff1673ffffffffffffffffffffffffffffffffffffffff1681526020019081526020016000208483815181106112a057fe5b6020026020010151815481106112b257fe5b9060005260206000209060050201600401905060008090505b818054905081101561137d5761136e600760008886815181106112ea57fe5b602002602001015173ffffffffffffffffffffffffffffffffffffffff1673ffffffffffffffffffffffffffffffffffffffff16815260200190815260200160002083838154811061133857fe5b90600052602060002001548154811061134d57fe5b9060005260206000209060090201600001548561590090919063ffffffff16565b935080806001019150506112cb565b506114126008600087858151811061139157fe5b602002602001015173ffffffffffffffffffffffffffffffffffffffff1673ffffffffffffffffffffffffffffffffffffffff1681526020019081526020016000208584815181106113df57fe5b6020026020010151815481106113f157fe5b9060005260206000209060050201600001548461591f90919063ffffffff16565b9250508080600101915050611067565b50600260009054906101000a900473ffffffffffffffffffffffffffffffffffffffff1673ffffffffffffffffffffffffffffffffffffffff1663a9059cbb600360009054906101000a900473ffffffffffffffffffffffffffffffffffffffff16836040518363ffffffff1660e01b8152600401808373ffffffffffffffffffffffffffffffffffffffff1673ffffffffffffffffffffffffffffffffffffffff16815260200182815260200192505050602060405180830381600087803b1580156114ee57600080fd5b505af1158015611502573d6000803e3d6000fd5b505050506040513d602081101561151857600080fd5b810190808051906020019092919050505061153257600080fd5b600360009054906101000a900473ffffffffffffffffffffffffffffffffffffffff1673ffffffffffffffffffffffffffffffffffffffff166341aaa9b6826040518263ffffffff1660e01b815260040180828152602001915050602060405180830381600087803b1580156115a757600080fd5b505af11580156115bb573d6000803e3d6000fd5b505050506040513d60208110156115d157600080fd5b81019080805190602001909291905050506115eb57600080fd5b505050565b6007602052816000526040600020818154811061160957fe5b9060005260206000209060090201600091509150508060000154908060010154908060020154908060030154908060040154908060050154908060060154905087565b600b818154811061165957fe5b906000526020600020016000915090505481565b60008060008090505b83518110156118305761169d868686848151811061169057fe5b6020026020010151614155565b80156117335750600760008773ffffffffffffffffffffffffffffffffffffffff1673ffffffffffffffffffffffffffffffffffffffff16815260200190815260200160002085815481106116ee57fe5b9060005260206000209060090201600701600085838151811061170d57fe5b6020026020010151815260200190815260200160002060009054906101000a900460ff16155b1561182357600061180a600a600087858151811061174d57fe5b60200260200101518152602001908152602001600020546117fc600b88868151811061177557fe5b60200260200101518154811061178757fe5b9060005260206000200154600760008c73ffffffffffffffffffffffffffffffffffffffff1673ffffffffffffffffffffffffffffffffffffffff1681526020019081526020016000208a815481106117dc57fe5b9060005260206000209060090201600001546158c690919063ffffffff16565b61593f90919063ffffffff16565b905061181f818461590090919063ffffffff16565b9250505b8080600101915050611676565b506118d0600f6118c26005600760008a73ffffffffffffffffffffffffffffffffffffffff1673ffffffffffffffffffffffffffffffffffffffff168152602001908152602001600020888154811061188557fe5b906000526020600020906009020160030154815481106118a157fe5b906000526020600020906003020160010154846158c690919063ffffffff16565b61593f90919063ffffffff16565b9150509392505050565b6000600760008573ffffffffffffffffffffffffffffffffffffffff1673ffffffffffffffffffffffffffffffffffffffff168152602001908152602001600020838154811061192657fe5b906000526020600020906009020160080160008373ffffffffffffffffffffffffffffffffffffffff1673ffffffffffffffffffffffffffffffffffffffff1681526020019081526020016000205490509392505050565b600a6020528060005260406000206000915090505481565b6001600760003373ffffffffffffffffffffffffffffffffffffffff1673ffffffffffffffffffffffffffffffffffffffff16815260200190815260200160002083815481106119e257fe5b90600052602060002090600902016004015414611a67576040517f08c379a00000000000000000000000000000000000000000000000000000000081526004018080602001828103825260158152602001807f7374616b696e672073686f756c6420616374697665000000000000000000000081525060200191505060405180910390fd5b6000600760003373ffffffffffffffffffffffffffffffffffffffff1673ffffffffffffffffffffffffffffffffffffffff1681526020019081526020016000208381548110611ab357fe5b906000526020600020906009020160080160003373ffffffffffffffffffffffffffffffffffffffff1673ffffffffffffffffffffffffffffffffffffffff1681526020019081526020016000205490506000600760003373ffffffffffffffffffffffffffffffffffffffff1673ffffffffffffffffffffffffffffffffffffffff1681526020019081526020016000208481548110611b5057fe5b906000526020600020906009020160080160008473ffffffffffffffffffffffffffffffffffffffff1673ffffffffffffffffffffffffffffffffffffffff16815260200190815260200160002081905550611c1081600760003373ffffffffffffffffffffffffffffffffffffffff1673ffffffffffffffffffffffffffffffffffffffff1681526020019081526020016000208581548110611bf057fe5b90600052602060002090600902016006015461591f90919063ffffffff16565b600760003373ffffffffffffffffffffffffffffffffffffffff1673ffffffffffffffffffffffffffffffffffffffff1681526020019081526020016000208481548110611c5a57fe5b906000526020600020906009020160060181905550505050565b600260009054906101000a900473ffffffffffffffffffffffffffffffffffffffff1673ffffffffffffffffffffffffffffffffffffffff166323b872dd3330846040518463ffffffff1660e01b8152600401808473ffffffffffffffffffffffffffffffffffffffff1673ffffffffffffffffffffffffffffffffffffffff1681526020018373ffffffffffffffffffffffffffffffffffffffff1673ffffffffffffffffffffffffffffffffffffffff1681526020018281526020019350505050602060405180830381600087803b158015611d5157600080fd5b505af1158015611d65573d6000803e3d6000fd5b505050506040513d6020811015611d7b57600080fd5b8101908080519060200190929190505050611d9557600080fd5b611de781600960003373ffffffffffffffffffffffffffffffffffffffff1673ffffffffffffffffffffffffffffffffffffffff1681526020019081526020016000205461590090919063ffffffff16565b600960003373ffffffffffffffffffffffffffffffffffffffff1673ffffffffffffffffffffffffffffffffffffffff1681526020019081526020016000208190555050565b60045481565b60058181548110611e4057fe5b90600052602060002090600302016000915090508060000154908060010154908060020160009054906101000a900460ff16905083565b600160009054906101000a900473ffffffffffffffffffffffffffffffffffffffff1673ffffffffffffffffffffffffffffffffffffffff163373ffffffffffffffffffffffffffffffffffffffff1614611ed157600080fd5b6005604051806060016040528085815260200184815260200183151581525090806001815401808255809150509060018203906000526020600020906003020160009091929091909150600082015181600001556020820151816001015560408201518160020160006101000a81548160ff021916908315150217905550505050505050565b60096020528060005260406000206000915090505481565b600160009054906101000a900473ffffffffffffffffffffffffffffffffffffffff1673ffffffffffffffffffffffffffffffffffffffff163373ffffffffffffffffffffffffffffffffffffffff1614611fc957600080fd5b60008090505b825181101561215b5761203d828281518110611fe757fe5b6020026020010151600960003373ffffffffffffffffffffffffffffffffffffffff1673ffffffffffffffffffffffffffffffffffffffff1681526020019081526020016000205461591f90919063ffffffff16565b600960003373ffffffffffffffffffffffffffffffffffffffff1673ffffffffffffffffffffffffffffffffffffffff168152602001908152602001600020819055506120f882828151811061208f57fe5b6020026020010151600960008685815181106120a757fe5b602002602001015173ffffffffffffffffffffffffffffffffffffffff1673ffffffffffffffffffffffffffffffffffffffff1681526020019081526020016000205461590090919063ffffffff16565b6009600085848151811061210857fe5b602002602001015173ffffffffffffffffffffffffffffffffffffffff1673ffffffffffffffffffffffffffffffffffffffff168152602001908152602001600020819055508080600101915050611fcf565b505050565b600160009054906101000a900473ffffffffffffffffffffffffffffffffffffffff1681565b6000429050600454600c026004546005600760008773ffffffffffffffffffffffffffffffffffffffff1673ffffffffffffffffffffffffffffffffffffffff16815260200190815260200160002085815481106121e057fe5b906000526020600020906009020160030154815481106121fc57fe5b90600052602060002090600302016000015402600760008673ffffffffffffffffffffffffffffffffffffffff1673ffffffffffffffffffffffffffffffffffffffff168152602001908152602001600020848154811061225957fe5b9060005260206000209060090201600101540101811161227857600080fd5b6000600760008573ffffffffffffffffffffffffffffffffffffffff1673ffffffffffffffffffffffffffffffffffffffff16815260200190815260200160002083815481106122c457fe5b906000526020600020906009020160080160003373ffffffffffffffffffffffffffffffffffffffff1673ffffffffffffffffffffffffffffffffffffffff1681526020019081526020016000205490506000811161232257600080fd5b6005600760008673ffffffffffffffffffffffffffffffffffffffff1673ffffffffffffffffffffffffffffffffffffffff168152602001908152602001600020848154811061236e57fe5b906000526020600020906009020160040154146123e7576005600760008673ffffffffffffffffffffffffffffffffffffffff1673ffffffffffffffffffffffffffffffffffffffff16815260200190815260200160002084815481106123d157fe5b9060005260206000209060090201600401819055505b6000600760008673ffffffffffffffffffffffffffffffffffffffff1673ffffffffffffffffffffffffffffffffffffffff168152602001908152602001600020848154811061243357fe5b90600052602060002090600902016000015490506000806005600760008973ffffffffffffffffffffffffffffffffffffffff1673ffffffffffffffffffffffffffffffffffffffff168152602001908152602001600020878154811061249657fe5b906000526020600020906009020160030154815481106124b257fe5b906000526020600020906003020160000154600760008973ffffffffffffffffffffffffffffffffffffffff1673ffffffffffffffffffffffffffffffffffffffff168152602001908152602001600020878154811061250e57fe5b9060005260206000209060090201600201540190506000600760008973ffffffffffffffffffffffffffffffffffffffff1673ffffffffffffffffffffffffffffffffffffffff168152602001908152602001600020878154811061256f57fe5b90600052602060002090600902016002015490505b818110156127bc57600760008973ffffffffffffffffffffffffffffffffffffffff1673ffffffffffffffffffffffffffffffffffffffff16815260200190815260200160002087815481106125d657fe5b9060005260206000209060090201600701600082815260200190815260200160002060009054906101000a900460ff16156127af576000612707600f6126f96005600760008e73ffffffffffffffffffffffffffffffffffffffff1673ffffffffffffffffffffffffffffffffffffffff1681526020019081526020016000208c8154811061266157fe5b9060005260206000209060090201600301548154811061267d57fe5b906000526020600020906003020160010154600760008e73ffffffffffffffffffffffffffffffffffffffff1673ffffffffffffffffffffffffffffffffffffffff1681526020019081526020016000208c815481106126d957fe5b9060005260206000209060090201600001546158c690919063ffffffff16565b61593f90919063ffffffff16565b9050600061275a600a60008581526020019081526020016000205461274c600b868154811061273257fe5b9060005260206000200154856158c690919063ffffffff16565b61593f90919063ffffffff16565b905061278261277360028361593f90919063ffffffff16565b8761590090919063ffffffff16565b95506127aa61279b60028361593f90919063ffffffff16565b8661590090919063ffffffff16565b945050505b8080600101915050612584565b506000600760008973ffffffffffffffffffffffffffffffffffffffff1673ffffffffffffffffffffffffffffffffffffffff168152602001908152602001600020878154811061280957fe5b906000526020600020906009020160080160003373ffffffffffffffffffffffffffffffffffffffff1673ffffffffffffffffffffffffffffffffffffffff1681526020019081526020016000208190555060006128dd600760008a73ffffffffffffffffffffffffffffffffffffffff1673ffffffffffffffffffffffffffffffffffffffff16815260200190815260200160002088815481106128aa57fe5b9060005260206000209060090201600601546128cf87876158c690919063ffffffff16565b61593f90919063ffffffff16565b9050600260009054906101000a900473ffffffffffffffffffffffffffffffffffffffff1673ffffffffffffffffffffffffffffffffffffffff1663a9059cbb33836040518363ffffffff1660e01b8152600401808373ffffffffffffffffffffffffffffffffffffffff1673ffffffffffffffffffffffffffffffffffffffff16815260200182815260200192505050602060405180830381600087803b15801561298857600080fd5b505af115801561299c573d6000803e3d6000fd5b505050506040513d60208110156129b257600080fd5b8101908080519060200190929190505050506000612a46600760008b73ffffffffffffffffffffffffffffffffffffffff1673ffffffffffffffffffffffffffffffffffffffff1681526020019081526020016000208981548110612a1357fe5b906000526020600020906009020160060154612a3888876158c690919063ffffffff16565b61593f90919063ffffffff16565b9050612a9a81600960003373ffffffffffffffffffffffffffffffffffffffff1673ffffffffffffffffffffffffffffffffffffffff1681526020019081526020016000205461590090919063ffffffff16565b600960003373ffffffffffffffffffffffffffffffffffffffff1673ffffffffffffffffffffffffffffffffffffffff168152602001908152602001600020819055503373ffffffffffffffffffffffffffffffffffffffff16888a73ffffffffffffffffffffffffffffffffffffffff167fa54cec59552c7f022eed79ede59f759697aa5787f43b11d61f17bfc5adaffb658585604051808381526020018281526020019250505060405180910390a4505050505050505050565b60086020528160005260406000208181548110612b6f57fe5b9060005260206000209060050201600091509150508060000154908060010154908060020154908060030154905084565b600080600090505b8251811015612dfa57612bcf3385858481518110612bc257fe5b6020026020010151614155565b8015612c655750600760003373ffffffffffffffffffffffffffffffffffffffff1673ffffffffffffffffffffffffffffffffffffffff1681526020019081526020016000208481548110612c2057fe5b90600052602060002090600902016007016000848381518110612c3f57fe5b6020026020010151815260200190815260200160002060009054906101000a900460ff16155b15612ded576000612d3c600a6000868581518110612c7f57fe5b6020026020010151815260200190815260200160002054612d2e600b878681518110612ca757fe5b602002602001015181548110612cb957fe5b9060005260206000200154600760003373ffffffffffffffffffffffffffffffffffffffff1673ffffffffffffffffffffffffffffffffffffffff1681526020019081526020016000208981548110612d0e57fe5b9060005260206000209060090201600001546158c690919063ffffffff16565b61593f90919063ffffffff16565b9050612d51818461590090919063ffffffff16565b92506001600760003373ffffffffffffffffffffffffffffffffffffffff1673ffffffffffffffffffffffffffffffffffffffff1681526020019081526020016000208681548110612d9f57fe5b90600052602060002090600902016007016000868581518110612dbe57fe5b6020026020010151815260200190815260200160002060006101000a81548160ff021916908315150217905550505b8080600101915050612ba8565b506000612eaf600f612ea1612e926005600760003373ffffffffffffffffffffffffffffffffffffffff1673ffffffffffffffffffffffffffffffffffffffff1681526020019081526020016000208981548110612e5457fe5b90600052602060002090600902016003015481548110612e7057fe5b906000526020600020906003020160010154600f61591f90919063ffffffff16565b856158c690919063ffffffff16565b61593f90919063ffffffff16565b9050600260009054906101000a900473ffffffffffffffffffffffffffffffffffffffff1673ffffffffffffffffffffffffffffffffffffffff1663a9059cbb600360009054906101000a900473ffffffffffffffffffffffffffffffffffffffff16836040518363ffffffff1660e01b8152600401808373ffffffffffffffffffffffffffffffffffffffff1673ffffffffffffffffffffffffffffffffffffffff16815260200182815260200192505050602060405180830381600087803b158015612f7c57600080fd5b505af1158015612f90573d6000803e3d6000fd5b505050506040513d6020811015612fa657600080fd5b8101908080519060200190929190505050612fc057600080fd5b600360009054906101000a900473ffffffffffffffffffffffffffffffffffffffff1673ffffffffffffffffffffffffffffffffffffffff1663382e2aab826040518263ffffffff1660e01b815260040180828152602001915050602060405180830381600087803b15801561303557600080fd5b505af1158015613049573d6000803e3d6000fd5b505050506040513d602081101561305f57600080fd5b810190808051906020019092919050505061307957600080fd5b61308c818361591f90919063ffffffff16565b915060006130a460028461593f90919063ffffffff16565b9050600260009054906101000a900473ffffffffffffffffffffffffffffffffffffffff1673ffffffffffffffffffffffffffffffffffffffff1663a9059cbb33836040518363ffffffff1660e01b8152600401808373ffffffffffffffffffffffffffffffffffffffff1673ffffffffffffffffffffffffffffffffffffffff16815260200182815260200192505050602060405180830381600087803b15801561314f57600080fd5b505af1158015613163573d6000803e3d6000fd5b505050506040513d602081101561317957600080fd5b810190808051906020019092919050505061319357600080fd5b6131e581600960003373ffffffffffffffffffffffffffffffffffffffff1673ffffffffffffffffffffffffffffffffffffffff1681526020019081526020016000205461590090919063ffffffff16565b600960003373ffffffffffffffffffffffffffffffffffffffff1673ffffffffffffffffffffffffffffffffffffffff168152602001908152602001600020819055503373ffffffffffffffffffffffffffffffffffffffff167fecd133e3f2aac41ac2b504cb693ec285651c4563abdf7efea7314a56831730ac8686846040518084815260200180602001838152602001828103825284818151815260200191508051906020019060200280838360005b838110156132b2578082015181840152602081019050613297565b5050505090500194505050505060405180910390a25050505050565b6001600760003373ffffffffffffffffffffffffffffffffffffffff1673ffffffffffffffffffffffffffffffffffffffff168152602001908152602001600020848154811061331a57fe5b9060005260206000209060090201600401541461333657600080fd5b6000600760003373ffffffffffffffffffffffffffffffffffffffff1673ffffffffffffffffffffffffffffffffffffffff168152602001908152602001600020848154811061338257fe5b906000526020600020906009020160080160008473ffffffffffffffffffffffffffffffffffffffff1673ffffffffffffffffffffffffffffffffffffffff16815260200190815260200160002054146133db57600080fd5b61344981600760003373ffffffffffffffffffffffffffffffffffffffff1673ffffffffffffffffffffffffffffffffffffffff168152602001908152602001600020858154811061342957fe5b90600052602060002090600902016006015461590090919063ffffffff16565b600760003373ffffffffffffffffffffffffffffffffffffffff1673ffffffffffffffffffffffffffffffffffffffff168152602001908152602001600020848154811061349357fe5b90600052602060002090600902016006018190555080600760003373ffffffffffffffffffffffffffffffffffffffff1673ffffffffffffffffffffffffffffffffffffffff16815260200190815260200160002084815481106134f357fe5b906000526020600020906009020160080160008473ffffffffffffffffffffffffffffffffffffffff1673ffffffffffffffffffffffffffffffffffffffff168152602001908152602001600020819055508173ffffffffffffffffffffffffffffffffffffffff16833373ffffffffffffffffffffffffffffffffffffffff167fc4e7fb51a42ce926bb404f8024c3c91a40af0654d9a96ada67c329b9c9bee4a260405160405180910390a4505050565b6000600760008373ffffffffffffffffffffffffffffffffffffffff1673ffffffffffffffffffffffffffffffffffffffff168152602001908152602001600020805490509050919050565b600681815481106135fe57fe5b90600052602060002090600302016000915090508060000154908060010154908060020154905083565b6000613632614712565b9050600080600090505b8351811015613bc9576136633385838151811061365557fe5b602002602001015185614155565b801561384557506005600760003373ffffffffffffffffffffffffffffffffffffffff1673ffffffffffffffffffffffffffffffffffffffff1681526020019081526020016000208583815181106136b757fe5b6020026020010151815481106136c957fe5b906000526020600020906009020160030154815481106136e557fe5b906000526020600020906003020160020160009054906101000a900460ff168061384457506137d160646137c3604b6137b56004546005600760003373ffffffffffffffffffffffffffffffffffffffff1673ffffffffffffffffffffffffffffffffffffffff1681526020019081526020016000208b898151811061376757fe5b60200260200101518154811061377957fe5b9060005260206000209060090201600301548154811061379557fe5b9060005260206000209060030201600001546158c690919063ffffffff16565b6158c690919063ffffffff16565b61593f90919063ffffffff16565b600760003373ffffffffffffffffffffffffffffffffffffffff1673ffffffffffffffffffffffffffffffffffffffff16815260200190815260200160002085838151811061381c57fe5b60200260200101518154811061382e57fe5b9060005260206000209060090201600101540142115b5b15613bbc5761390e6138ff60646138f160068a8154811061386257fe5b906000526020600020906003020160020154600760003373ffffffffffffffffffffffffffffffffffffffff1673ffffffffffffffffffffffffffffffffffffffff1681526020019081526020016000208987815181106138bf57fe5b6020026020010151815481106138d157fe5b9060005260206000209060090201600001546158c690919063ffffffff16565b61593f90919063ffffffff16565b8361590090919063ffffffff16565b91506000600760003373ffffffffffffffffffffffffffffffffffffffff1673ffffffffffffffffffffffffffffffffffffffff16815260200190815260200160002085838151811061395d57fe5b60200260200101518154811061396f57fe5b906000526020600020906009020160020154905060006005600760003373ffffffffffffffffffffffffffffffffffffffff1673ffffffffffffffffffffffffffffffffffffffff1681526020019081526020016000208785815181106139d257fe5b6020026020010151815481106139e457fe5b90600052602060002090600902016003015481548110613a0057fe5b9060005260206000209060030201600001548201905060006001860190505b818111613a7057613a4c85600a60008481526020019081526020016000205461591f90919063ffffffff16565b600a6000838152602001908152602001600020819055508080600101915050613a1f565b506000600190505b60068981548110613a8557fe5b9060005260206000209060030201600001548111613bb8576001600760003373ffffffffffffffffffffffffffffffffffffffff1673ffffffffffffffffffffffffffffffffffffffff168152602001908152602001600020888681518110613aea57fe5b602002602001015181548110613afc57fe5b90600052602060002090600902016007016000838901815260200190815260200160002060006101000a81548160ff0219169083151502179055506002600760003373ffffffffffffffffffffffffffffffffffffffff1673ffffffffffffffffffffffffffffffffffffffff168152602001908152602001600020888681518110613b8457fe5b602002602001015181548110613b9657fe5b9060005260206000209060090201600401819055508080600101915050613a78565b5050505b808060010191505061363c565b50600081905080851115613be3576000613be257600080fd5b5b6000613c296064613c1b60068a81548110613bfa57fe5b906000526020600020906003020160010154896158c690919063ffffffff16565b61593f90919063ffffffff16565b90506000613c40828861591f90919063ffffffff16565b9050600260009054906101000a900473ffffffffffffffffffffffffffffffffffffffff1673ffffffffffffffffffffffffffffffffffffffff1663a9059cbb600360009054906101000a900473ffffffffffffffffffffffffffffffffffffffff16846040518363ffffffff1660e01b8152600401808373ffffffffffffffffffffffffffffffffffffffff1673ffffffffffffffffffffffffffffffffffffffff16815260200182815260200192505050602060405180830381600087803b158015613d0d57600080fd5b505af1158015613d21573d6000803e3d6000fd5b505050506040513d6020811015613d3757600080fd5b8101908080519060200190929190505050613d5157600080fd5b600360009054906101000a900473ffffffffffffffffffffffffffffffffffffffff1673ffffffffffffffffffffffffffffffffffffffff1663382e2aab836040518263ffffffff1660e01b815260040180828152602001915050602060405180830381600087803b158015613dc657600080fd5b505af1158015613dda573d6000803e3d6000fd5b505050506040513d6020811015613df057600080fd5b8101908080519060200190929190505050613e0a57600080fd5b600860003373ffffffffffffffffffffffffffffffffffffffff1673ffffffffffffffffffffffffffffffffffffffff1681526020019081526020016000206040518060a001604052808981526020014281526020018a8152602001600181526020018881525090806001815401808255809150509060018203906000526020600020906005020160009091929091909150600082015181600001556020820151816001015560408201518160020155606082015181600301556080820151816004019080519060200190613ee0929190615965565b50505050600260009054906101000a900473ffffffffffffffffffffffffffffffffffffffff1673ffffffffffffffffffffffffffffffffffffffff1663a9059cbb33836040518363ffffffff1660e01b8152600401808373ffffffffffffffffffffffffffffffffffffffff1673ffffffffffffffffffffffffffffffffffffffff16815260200182815260200192505050602060405180830381600087803b158015613f8d57600080fd5b505af1158015613fa1573d6000803e3d6000fd5b505050506040513d6020811015613fb757600080fd5b8101908080519060200190929190505050613fd157600080fd5b873373ffffffffffffffffffffffffffffffffffffffff167f583f4a449110798c282200ea42774808b8147fa4bcb89a6ca406dd0650e034e789856001600860003373ffffffffffffffffffffffffffffffffffffffff1673ffffffffffffffffffffffffffffffffffffffff168152602001908152602001600020805490500360405180848152602001838152602001828152602001935050505060405180910390a35050505050505050565b600160009054906101000a900473ffffffffffffffffffffffffffffffffffffffff1673ffffffffffffffffffffffffffffffffffffffff163373ffffffffffffffffffffffffffffffffffffffff16146140d957600080fd5b60648111156140e757600080fd5b600660405180606001604052808581526020018481526020018381525090806001815401808255809150509060018203906000526020600020906003020160009091929091909150600082015181600001556020820151816001015560408201518160020155505050505050565b6000816001600760008773ffffffffffffffffffffffffffffffffffffffff1673ffffffffffffffffffffffffffffffffffffffff16815260200190815260200160002085815481106141a457fe5b906000526020600020906009020160020154011115801561429b5750816005600760008773ffffffffffffffffffffffffffffffffffffffff1673ffffffffffffffffffffffffffffffffffffffff168152602001908152602001600020858154811061420d57fe5b9060005260206000209060090201600301548154811061422957fe5b906000526020600020906003020160000154600760008773ffffffffffffffffffffffffffffffffffffffff1673ffffffffffffffffffffffffffffffffffffffff168152602001908152602001600020858154811061428557fe5b9060005260206000209060090201600201540110155b801561430257506001600760008673ffffffffffffffffffffffffffffffffffffffff1673ffffffffffffffffffffffffffffffffffffffff16815260200190815260200160002084815481106142ee57fe5b906000526020600020906009020160040154145b8015614415575081614312614712565b14158061441457506144106143a6600454614398600760008973ffffffffffffffffffffffffffffffffffffffff1673ffffffffffffffffffffffffffffffffffffffff168152602001908152602001600020878154811061437057fe5b90600052602060002090600902016002015461438a614712565b61591f90919063ffffffff16565b6158c690919063ffffffff16565b600760008773ffffffffffffffffffffffffffffffffffffffff1673ffffffffffffffffffffffffffffffffffffffff16815260200190815260200160002085815481106143f057fe5b90600052602060002090600902016001015461590090919063ffffffff16565b4210155b5b90509392505050565b6000600960003373ffffffffffffffffffffffffffffffffffffffff1673ffffffffffffffffffffffffffffffffffffffff168152602001908152602001600020541161446a57600080fd5b6000600960003373ffffffffffffffffffffffffffffffffffffffff1673ffffffffffffffffffffffffffffffffffffffff1681526020019081526020016000205490506000600960003373ffffffffffffffffffffffffffffffffffffffff1673ffffffffffffffffffffffffffffffffffffffff1681526020019081526020016000208190555060006005838154811061450257fe5b90600052602060002090600302016000015461451c614712565b0190506000600161452b614712565b0190505b8181116145805761455c83600a60008481526020019081526020016000205461590090919063ffffffff16565b600a600083815260200190815260200160002081905550808060010191505061452f565b50600760003373ffffffffffffffffffffffffffffffffffffffff1673ffffffffffffffffffffffffffffffffffffffff1681526020019081526020016000206040518060e001604052808481526020014281526020016145df614712565b81526020018581526020016001815260200160008152602001600081525090806001815401808255809150509060018203906000526020600020906009020160009091929091909150600082015181600001556020820151816001015560408201518160020155606082015181600301556080820151816004015560a0820151816005015560c08201518160060155505050823373ffffffffffffffffffffffffffffffffffffffff167f680a0e2e97ad7c29da7985e37b699f19857c055166f801e50d90661eae30fcc3846001600760003373ffffffffffffffffffffffffffffffffffffffff1673ffffffffffffffffffffffffffffffffffffffff1681526020019081526020016000208054905003604051808381526020018281526020019250505060405180910390a3505050565b60006001600b8054905003905090565b6001600860003373ffffffffffffffffffffffffffffffffffffffff1673ffffffffffffffffffffffffffffffffffffffff168152602001908152602001600020828154811061476e57fe5b9060005260206000209060050201600301541461478a57600080fd5b426148196004546006600860003373ffffffffffffffffffffffffffffffffffffffff1673ffffffffffffffffffffffffffffffffffffffff16815260200190815260200160002085815481106147dd57fe5b906000526020600020906005020160020154815481106147f957fe5b9060005260206000209060030201600001546158c690919063ffffffff16565b600860003373ffffffffffffffffffffffffffffffffffffffff1673ffffffffffffffffffffffffffffffffffffffff168152602001908152602001600020838154811061486357fe5b906000526020600020906005020160010154011161488057600080fd5b600260009054906101000a900473ffffffffffffffffffffffffffffffffffffffff1673ffffffffffffffffffffffffffffffffffffffff166323b872dd3330600860003373ffffffffffffffffffffffffffffffffffffffff1673ffffffffffffffffffffffffffffffffffffffff168152602001908152602001600020858154811061490a57fe5b9060005260206000209060050201600001546040518463ffffffff1660e01b8152600401808473ffffffffffffffffffffffffffffffffffffffff1673ffffffffffffffffffffffffffffffffffffffff1681526020018373ffffffffffffffffffffffffffffffffffffffff1673ffffffffffffffffffffffffffffffffffffffff1681526020018281526020019350505050602060405180830381600087803b1580156149b857600080fd5b505af11580156149cc573d6000803e3d6000fd5b505050506040513d60208110156149e257600080fd5b81019080805190602001909291905050506149fc57600080fd5b6002600860003373ffffffffffffffffffffffffffffffffffffffff1673ffffffffffffffffffffffffffffffffffffffff1681526020019081526020016000208281548110614a4857fe5b90600052602060002090600502016003018190555060008090505b600860003373ffffffffffffffffffffffffffffffffffffffff1673ffffffffffffffffffffffffffffffffffffffff1681526020019081526020016000208281548110614aad57fe5b906000526020600020906005020160040180549050811015614df9576000600860003373ffffffffffffffffffffffffffffffffffffffff1673ffffffffffffffffffffffffffffffffffffffff1681526020019081526020016000208381548110614b1557fe5b90600052602060002090600502016004018281548110614b3157fe5b906000526020600020015490506001600760003373ffffffffffffffffffffffffffffffffffffffff1673ffffffffffffffffffffffffffffffffffffffff1681526020019081526020016000208281548110614b8a57fe5b9060005260206000209060090201600401819055506000614c25600454614c17600054600760003373ffffffffffffffffffffffffffffffffffffffff1673ffffffffffffffffffffffffffffffffffffffff1681526020019081526020016000208681548110614bf757fe5b90600052602060002090600902016001015461591f90919063ffffffff16565b61593f90919063ffffffff16565b905060006005600760003373ffffffffffffffffffffffffffffffffffffffff1673ffffffffffffffffffffffffffffffffffffffff1681526020019081526020016000208481548110614c7557fe5b90600052602060002090600902016003015481548110614c9157fe5b9060005260206000209060030201600001548201905060006001614cb3614712565b0190505b818111614de8576000600760003373ffffffffffffffffffffffffffffffffffffffff1673ffffffffffffffffffffffffffffffffffffffff1681526020019081526020016000208581548110614d0a57fe5b9060005260206000209060090201600701600087815260200190815260200160002060006101000a81548160ff021916908315150217905550614dc4600760003373ffffffffffffffffffffffffffffffffffffffff1673ffffffffffffffffffffffffffffffffffffffff1681526020019081526020016000208581548110614d9057fe5b906000526020600020906009020160000154600a60008481526020019081526020016000205461590090919063ffffffff16565b600a6000838152602001908152602001600020819055508080600101915050614cb7565b505050508080600101915050614a63565b503373ffffffffffffffffffffffffffffffffffffffff167fe228353b4f08fee02276a1e9e2cddfa948f9fa59f87f7e24c18ad1b420d7966a826040518082815260200191505060405180910390a250565b600080614e56614712565b9050600080600090505b855181101561514257614e8787878381518110614e7957fe5b602002602001015185614155565b801561506957506005600760008973ffffffffffffffffffffffffffffffffffffffff1673ffffffffffffffffffffffffffffffffffffffff168152602001908152602001600020878381518110614edb57fe5b602002602001015181548110614eed57fe5b90600052602060002090600902016003015481548110614f0957fe5b906000526020600020906003020160020160009054906101000a900460ff16806150685750614ff56064614fe7604b614fd96004546005600760008f73ffffffffffffffffffffffffffffffffffffffff1673ffffffffffffffffffffffffffffffffffffffff1681526020019081526020016000208d8981518110614f8b57fe5b602002602001015181548110614f9d57fe5b90600052602060002090600902016003015481548110614fb957fe5b9060005260206000209060030201600001546158c690919063ffffffff16565b6158c690919063ffffffff16565b61593f90919063ffffffff16565b600760008973ffffffffffffffffffffffffffffffffffffffff1673ffffffffffffffffffffffffffffffffffffffff16815260200190815260200160002087838151811061504057fe5b60200260200101518154811061505257fe5b9060005260206000209060090201600101540142115b5b156151355761513261512360646151156006898154811061508657fe5b906000526020600020906003020160020154600760008d73ffffffffffffffffffffffffffffffffffffffff1673ffffffffffffffffffffffffffffffffffffffff1681526020019081526020016000208b87815181106150e357fe5b6020026020010151815481106150f557fe5b9060005260206000209060090201600001546158c690919063ffffffff16565b61593f90919063ffffffff16565b8361590090919063ffffffff16565b91505b8080600101915050614e60565b5080925050509392505050565b6000821161515c57600080fd5b600260009054906101000a900473ffffffffffffffffffffffffffffffffffffffff1673ffffffffffffffffffffffffffffffffffffffff166323b872dd3330856040518463ffffffff1660e01b8152600401808473ffffffffffffffffffffffffffffffffffffffff1673ffffffffffffffffffffffffffffffffffffffff1681526020018373ffffffffffffffffffffffffffffffffffffffff1673ffffffffffffffffffffffffffffffffffffffff1681526020018281526020019350505050602060405180830381600087803b15801561523957600080fd5b505af115801561524d573d6000803e3d6000fd5b505050506040513d602081101561526357600080fd5b810190808051906020019092919050505061527d57600080fd5b60006005828154811061528c57fe5b9060005260206000209060030201600001546152a6614712565b019050600060016152b5614712565b0190505b81811161530a576152e684600a60008481526020019081526020016000205461590090919063ffffffff16565b600a60008381526020019081526020016000208190555080806001019150506152b9565b50600760003373ffffffffffffffffffffffffffffffffffffffff1673ffffffffffffffffffffffffffffffffffffffff1681526020019081526020016000206040518060e00160405280858152602001428152602001615369614712565b81526020018481526020016001815260200160008152602001600081525090806001815401808255809150509060018203906000526020600020906009020160009091929091909150600082015181600001556020820151816001015560408201518160020155606082015181600301556080820151816004015560a0820151816005015560c08201518160060155505050813373ffffffffffffffffffffffffffffffffffffffff167f680a0e2e97ad7c29da7985e37b699f19857c055166f801e50d90661eae30fcc3856001600760003373ffffffffffffffffffffffffffffffffffffffff1673ffffffffffffffffffffffffffffffffffffffff1681526020019081526020016000208054905003604051808381526020018281526020019250505060405180910390a3505050565b60005481565b600360009054906101000a900473ffffffffffffffffffffffffffffffffffffffff1673ffffffffffffffffffffffffffffffffffffffff163373ffffffffffffffffffffffffffffffffffffffff16146154fc57600080fd5b600b81908060018154018082558091505090600182039060005260206000200160009091929091909150555050565b60008090505b815181101561589c5761565b6155de6004546005600760003373ffffffffffffffffffffffffffffffffffffffff1673ffffffffffffffffffffffffffffffffffffffff16815260200190815260200160002086868151811061559057fe5b6020026020010151815481106155a257fe5b906000526020600020906009020160030154815481106155be57fe5b9060005260206000209060030201600001546158c690919063ffffffff16565b600760003373ffffffffffffffffffffffffffffffffffffffff1673ffffffffffffffffffffffffffffffffffffffff16815260200190815260200160002084848151811061562957fe5b60200260200101518154811061563b57fe5b90600052602060002090600902016001015461590090919063ffffffff16565b42101561566757600080fd5b6003600760003373ffffffffffffffffffffffffffffffffffffffff1673ffffffffffffffffffffffffffffffffffffffff1681526020019081526020016000208383815181106156b457fe5b6020026020010151815481106156c657fe5b906000526020600020906009020160040181905550600260009054906101000a900473ffffffffffffffffffffffffffffffffffffffff1673ffffffffffffffffffffffffffffffffffffffff1663a9059cbb33600760003373ffffffffffffffffffffffffffffffffffffffff1673ffffffffffffffffffffffffffffffffffffffff16815260200190815260200160002085858151811061576557fe5b60200260200101518154811061577757fe5b9060005260206000209060090201600001546040518363ffffffff1660e01b8152600401808373ffffffffffffffffffffffffffffffffffffffff1673ffffffffffffffffffffffffffffffffffffffff16815260200182815260200192505050602060405180830381600087803b1580156157f257600080fd5b505af1158015615806573d6000803e3d6000fd5b505050506040513d602081101561581c57600080fd5b8101908080519060200190929190505050503373ffffffffffffffffffffffffffffffffffffffff167f4854321cc9be1d947b907185d497d36fe671cfb8f0dcbcdc84a01be76f81bff283838151811061587257fe5b60200260200101516040518082815260200191505060405180910390a28080600101915050615531565b5050565b600260009054906101000a900473ffffffffffffffffffffffffffffffffffffffff1681565b6000808314156158d957600090506158fa565b60008284029050828482816158ea57fe5b04146158f557600080fd5b809150505b92915050565b60008082840190508381101561591557600080fd5b8091505092915050565b60008282111561592e57600080fd5b600082840390508091505092915050565b600080821161594d57600080fd5b600082848161595857fe5b0490508091505092915050565b8280548282559060005260206000209081019282156159a1579160200282015b828111156159a0578251825591602001919060010190615985565b5b5090506159ae91906159b2565b5090565b6159d491905b808211156159d05760008160009055506001016159b8565b5090565b9056fea265627a7a72305820a32608233192f2f73c628fc0ef6b86399dc71a658ca6f2f7a3cfc3313ca0151264736f6c634300050a0032","opcodes":"PUSH1 0x80 PUSH1 0x40 MSTORE PUSH3 0x282070 PUSH1 0x4 SSTORE CALLVALUE DUP1 ISZERO PUSH3 0x18 JUMPI PUSH1 0x0 DUP1 REVERT JUMPDEST POP PUSH1 0x40 MLOAD PUSH3 0x5B6E CODESIZE SUB DUP1 PUSH3 0x5B6E DUP4 CODECOPY DUP2 DUP2 ADD PUSH1 0x40 MSTORE PUSH1 0x40 DUP2 LT ISZERO PUSH3 0x3E JUMPI PUSH1 0x0 DUP1 REVERT JUMPDEST DUP2 ADD SWAP1 DUP1 DUP1 MLOAD SWAP1 PUSH1 0x20 ADD SWAP1 SWAP3 SWAP2 SWAP1 DUP1 MLOAD SWAP1 PUSH1 0x20 ADD SWAP1 SWAP3 SWAP2 SWAP1 POP POP POP CALLER PUSH1 0x1 PUSH1 0x0 PUSH2 0x100 EXP DUP2 SLOAD DUP2 PUSH20 0xFFFFFFFFFFFFFFFFFFFFFFFFFFFFFFFFFFFFFFFF MUL NOT AND SWAP1 DUP4 PUSH20 0xFFFFFFFFFFFFFFFFFFFFFFFFFFFFFFFFFFFFFFFF AND MUL OR SWAP1 SSTORE POP DUP2 PUSH1 0x2 PUSH1 0x0 PUSH2 0x100 EXP DUP2 SLOAD DUP2 PUSH20 0xFFFFFFFFFFFFFFFFFFFFFFFFFFFFFFFFFFFFFFFF MUL NOT AND SWAP1 DUP4 PUSH20 0xFFFFFFFFFFFFFFFFFFFFFFFFFFFFFFFFFFFFFFFF AND MUL OR SWAP1 SSTORE POP DUP1 PUSH1 0x3 PUSH1 0x0 PUSH2 0x100 EXP DUP2 SLOAD DUP2 PUSH20 0xFFFFFFFFFFFFFFFFFFFFFFFFFFFFFFFFFFFFFFFF MUL NOT AND SWAP1 DUP4 PUSH20 0xFFFFFFFFFFFFFFFFFFFFFFFFFFFFFFFFFFFFFFFF AND MUL OR SWAP1 SSTORE POP TIMESTAMP PUSH1 0x0 DUP2 SWAP1 SSTORE POP PUSH1 0xB PUSH1 0x0 SWAP1 DUP1 PUSH1 0x1 DUP2 SLOAD ADD DUP1 DUP3 SSTORE DUP1 SWAP2 POP POP SWAP1 PUSH1 0x1 DUP3 SUB SWAP1 PUSH1 0x0 MSTORE PUSH1 0x20 PUSH1 0x0 KECCAK256 ADD PUSH1 0x0 SWAP1 SWAP2 SWAP3 SWAP1 SWAP2 SWAP1 SWAP2 POP SSTORE POP POP POP PUSH2 0x5A0C DUP1 PUSH3 0x162 PUSH1 0x0 CODECOPY PUSH1 0x0 RETURN INVALID PUSH1 0x80 PUSH1 0x40 MSTORE CALLVALUE DUP1 ISZERO PUSH2 0x10 JUMPI PUSH1 0x0 DUP1 REVERT JUMPDEST POP PUSH1 0x4 CALLDATASIZE LT PUSH2 0x1FB JUMPI PUSH1 0x0 CALLDATALOAD PUSH1 0xE0 SHR DUP1 PUSH4 0x98C61C37 GT PUSH2 0x11A JUMPI DUP1 PUSH4 0xDA9D8AA0 GT PUSH2 0xAD JUMPI DUP1 PUSH4 0xE5FD04E6 GT PUSH2 0x7C JUMPI DUP1 PUSH4 0xE5FD04E6 EQ PUSH2 0xEB3 JUMPI DUP1 PUSH4 0xE6BBE424 EQ PUSH2 0xEEB JUMPI DUP1 PUSH4 0xE78C81C4 EQ PUSH2 0xF09 JUMPI DUP1 PUSH4 0xE83F7843 EQ PUSH2 0xF37 JUMPI DUP1 PUSH4 0xFC0C546A EQ PUSH2 0xFEF JUMPI PUSH2 0x1FB JUMP JUMPDEST DUP1 PUSH4 0xDA9D8AA0 EQ PUSH2 0xD43 JUMPI DUP1 PUSH4 0xDDD1B67E EQ PUSH2 0xD71 JUMPI DUP1 PUSH4 0xDEA6CF43 EQ PUSH2 0xD8F JUMPI DUP1 PUSH4 0xDF90F7CE EQ PUSH2 0xDBD JUMPI PUSH2 0x1FB JUMP JUMPDEST DUP1 PUSH4 0xCC44A2FD GT PUSH2 0xE9 JUMPI DUP1 PUSH4 0xCC44A2FD EQ PUSH2 0xB75 JUMPI DUP1 PUSH4 0xD0E32681 EQ PUSH2 0xBC5 JUMPI DUP1 PUSH4 0xD1CF31B3 EQ PUSH2 0xC91 JUMPI DUP1 PUSH4 0xD58424A3 EQ PUSH2 0xCD3 JUMPI PUSH2 0x1FB JUMP JUMPDEST DUP1 PUSH4 0x98C61C37 EQ PUSH2 0x98C JUMPI DUP1 PUSH4 0x9D0B8B44 EQ PUSH2 0xA03 JUMPI DUP1 PUSH4 0xA4C0E90A EQ PUSH2 0xAC5 JUMPI DUP1 PUSH4 0xAD998FA0 EQ PUSH2 0xB1D JUMPI PUSH2 0x1FB JUMP JUMPDEST DUP1 PUSH4 0x53FCB2F3 GT PUSH2 0x192 JUMPI DUP1 PUSH4 0x7ACAB857 GT PUSH2 0x161 JUMPI DUP1 PUSH4 0x7ACAB857 EQ PUSH2 0x750 JUMPI DUP1 PUSH4 0x88C5F296 EQ PUSH2 0x7A8 JUMPI DUP1 PUSH4 0x8DA5CB5B EQ PUSH2 0x8F4 JUMPI DUP1 PUSH4 0x911E8BC6 EQ PUSH2 0x93E JUMPI PUSH2 0x1FB JUMP JUMPDEST DUP1 PUSH4 0x53FCB2F3 EQ PUSH2 0x66C JUMPI DUP1 PUSH4 0x582E7E9E EQ PUSH2 0x69A JUMPI DUP1 PUSH4 0x762E7A34 EQ PUSH2 0x6B8 JUMPI DUP1 PUSH4 0x778DB8D4 EQ PUSH2 0x70C JUMPI PUSH2 0x1FB JUMP JUMPDEST DUP1 PUSH4 0x2C779774 GT PUSH2 0x1CE JUMPI DUP1 PUSH4 0x2C779774 EQ PUSH2 0x464 JUMPI DUP1 PUSH4 0x2E9721B6 EQ PUSH2 0x55A JUMPI DUP1 PUSH4 0x4EC0692C EQ PUSH2 0x5DC JUMPI DUP1 PUSH4 0x4F916FB0 EQ PUSH2 0x61E JUMPI PUSH2 0x1FB JUMP JUMPDEST DUP1 PUSH4 0xDF5202F EQ PUSH2 0x200 JUMPI DUP1 PUSH4 0x16D3E966 EQ PUSH2 0x24A JUMPI DUP1 PUSH4 0x1849D8EA EQ PUSH2 0x396 JUMPI DUP1 PUSH4 0x23A15E6B EQ PUSH2 0x422 JUMPI JUMPDEST PUSH1 0x0 DUP1 REVERT JUMPDEST PUSH2 0x208 PUSH2 0x1039 JUMP JUMPDEST PUSH1 0x40 MLOAD DUP1 DUP3 PUSH20 0xFFFFFFFFFFFFFFFFFFFFFFFFFFFFFFFFFFFFFFFF AND PUSH20 0xFFFFFFFFFFFFFFFFFFFFFFFFFFFFFFFFFFFFFFFF AND DUP2 MSTORE PUSH1 0x20 ADD SWAP2 POP POP PUSH1 0x40 MLOAD DUP1 SWAP2 SUB SWAP1 RETURN JUMPDEST PUSH2 0x394 PUSH1 0x4 DUP1 CALLDATASIZE SUB PUSH1 0x40 DUP2 LT ISZERO PUSH2 0x260 JUMPI PUSH1 0x0 DUP1 REVERT JUMPDEST DUP2 ADD SWAP1 DUP1 DUP1 CALLDATALOAD SWAP1 PUSH1 0x20 ADD SWAP1 PUSH5 0x100000000 DUP2 GT ISZERO PUSH2 0x27D JUMPI PUSH1 0x0 DUP1 REVERT JUMPDEST DUP3 ADD DUP4 PUSH1 0x20 DUP3 ADD GT ISZERO PUSH2 0x28F JUMPI PUSH1 0x0 DUP1 REVERT JUMPDEST DUP1 CALLDATALOAD SWAP1 PUSH1 0x20 ADD SWAP2 DUP5 PUSH1 0x20 DUP4 MUL DUP5 ADD GT PUSH5 0x100000000 DUP4 GT OR ISZERO PUSH2 0x2B1 JUMPI PUSH1 0x0 DUP1 REVERT JUMPDEST SWAP2 SWAP1 DUP1 DUP1 PUSH1 0x20 MUL PUSH1 0x20 ADD PUSH1 0x40 MLOAD SWAP1 DUP2 ADD PUSH1 0x40 MSTORE DUP1 SWAP4 SWAP3 SWAP2 SWAP1 DUP2 DUP2 MSTORE PUSH1 0x20 ADD DUP4 DUP4 PUSH1 0x20 MUL DUP1 DUP3 DUP5 CALLDATACOPY PUSH1 0x0 DUP2 DUP5 ADD MSTORE PUSH1 0x1F NOT PUSH1 0x1F DUP3 ADD AND SWAP1 POP DUP1 DUP4 ADD SWAP3 POP POP POP POP POP POP POP SWAP2 SWAP3 SWAP2 SWAP3 SWAP1 DUP1 CALLDATALOAD SWAP1 PUSH1 0x20 ADD SWAP1 PUSH5 0x100000000 DUP2 GT ISZERO PUSH2 0x311 JUMPI PUSH1 0x0 DUP1 REVERT JUMPDEST DUP3 ADD DUP4 PUSH1 0x20 DUP3 ADD GT ISZERO PUSH2 0x323 JUMPI PUSH1 0x0 DUP1 REVERT JUMPDEST DUP1 CALLDATALOAD SWAP1 PUSH1 0x20 ADD SWAP2 DUP5 PUSH1 0x20 DUP4 MUL DUP5 ADD GT PUSH5 0x100000000 DUP4 GT OR ISZERO PUSH2 0x345 JUMPI PUSH1 0x0 DUP1 REVERT JUMPDEST SWAP2 SWAP1 DUP1 DUP1 PUSH1 0x20 MUL PUSH1 0x20 ADD PUSH1 0x40 MLOAD SWAP1 DUP2 ADD PUSH1 0x40 MSTORE DUP1 SWAP4 SWAP3 SWAP2 SWAP1 DUP2 DUP2 MSTORE PUSH1 0x20 ADD DUP4 DUP4 PUSH1 0x20 MUL DUP1 DUP3 DUP5 CALLDATACOPY PUSH1 0x0 DUP2 DUP5 ADD MSTORE PUSH1 0x1F NOT PUSH1 0x1F DUP3 ADD AND SWAP1 POP DUP1 DUP4 ADD SWAP3 POP POP POP POP POP POP POP SWAP2 SWAP3 SWAP2 SWAP3 SWAP1 POP POP POP PUSH2 0x105F JUMP JUMPDEST STOP JUMPDEST PUSH2 0x3E2 PUSH1 0x4 DUP1 CALLDATASIZE SUB PUSH1 0x40 DUP2 LT ISZERO PUSH2 0x3AC JUMPI PUSH1 0x0 DUP1 REVERT JUMPDEST DUP2 ADD SWAP1 DUP1 DUP1 CALLDATALOAD PUSH20 0xFFFFFFFFFFFFFFFFFFFFFFFFFFFFFFFFFFFFFFFF AND SWAP1 PUSH1 0x20 ADD SWAP1 SWAP3 SWAP2 SWAP1 DUP1 CALLDATALOAD SWAP1 PUSH1 0x20 ADD SWAP1 SWAP3 SWAP2 SWAP1 POP POP POP PUSH2 0x15F0 JUMP JUMPDEST PUSH1 0x40 MLOAD DUP1 DUP9 DUP2 MSTORE PUSH1 0x20 ADD DUP8 DUP2 MSTORE PUSH1 0x20 ADD DUP7 DUP2 MSTORE PUSH1 0x20 ADD DUP6 DUP2 MSTORE PUSH1 0x20 ADD DUP5 DUP2 MSTORE PUSH1 0x20 ADD DUP4 DUP2 MSTORE PUSH1 0x20 ADD DUP3 DUP2 MSTORE PUSH1 0x20 ADD SWAP8 POP POP POP POP POP POP POP POP PUSH1 0x40 MLOAD DUP1 SWAP2 SUB SWAP1 RETURN JUMPDEST PUSH2 0x44E PUSH1 0x4 DUP1 CALLDATASIZE SUB PUSH1 0x20 DUP2 LT ISZERO PUSH2 0x438 JUMPI PUSH1 0x0 DUP1 REVERT JUMPDEST DUP2 ADD SWAP1 DUP1 DUP1 CALLDATALOAD SWAP1 PUSH1 0x20 ADD SWAP1 SWAP3 SWAP2 SWAP1 POP POP POP PUSH2 0x164C JUMP JUMPDEST PUSH1 0x40 MLOAD DUP1 DUP3 DUP2 MSTORE PUSH1 0x20 ADD SWAP2 POP POP PUSH1 0x40 MLOAD DUP1 SWAP2 SUB SWAP1 RETURN JUMPDEST PUSH2 0x544 PUSH1 0x4 DUP1 CALLDATASIZE SUB PUSH1 0x60 DUP2 LT ISZERO PUSH2 0x47A JUMPI PUSH1 0x0 DUP1 REVERT JUMPDEST DUP2 ADD SWAP1 DUP1 DUP1 CALLDATALOAD PUSH20 0xFFFFFFFFFFFFFFFFFFFFFFFFFFFFFFFFFFFFFFFF AND SWAP1 PUSH1 0x20 ADD SWAP1 SWAP3 SWAP2 SWAP1 DUP1 CALLDATALOAD SWAP1 PUSH1 0x20 ADD SWAP1 SWAP3 SWAP2 SWAP1 DUP1 CALLDATALOAD SWAP1 PUSH1 0x20 ADD SWAP1 PUSH5 0x100000000 DUP2 GT ISZERO PUSH2 0x4C1 JUMPI PUSH1 0x0 DUP1 REVERT JUMPDEST DUP3 ADD DUP4 PUSH1 0x20 DUP3 ADD GT ISZERO PUSH2 0x4D3 JUMPI PUSH1 0x0 DUP1 REVERT JUMPDEST DUP1 CALLDATALOAD SWAP1 PUSH1 0x20 ADD SWAP2 DUP5 PUSH1 0x20 DUP4 MUL DUP5 ADD GT PUSH5 0x100000000 DUP4 GT OR ISZERO PUSH2 0x4F5 JUMPI PUSH1 0x0 DUP1 REVERT JUMPDEST SWAP2 SWAP1 DUP1 DUP1 PUSH1 0x20 MUL PUSH1 0x20 ADD PUSH1 0x40 MLOAD SWAP1 DUP2 ADD PUSH1 0x40 MSTORE DUP1 SWAP4 SWAP3 SWAP2 SWAP1 DUP2 DUP2 MSTORE PUSH1 0x20 ADD DUP4 DUP4 PUSH1 0x20 MUL DUP1 DUP3 DUP5 CALLDATACOPY PUSH1 0x0 DUP2 DUP5 ADD MSTORE PUSH1 0x1F NOT PUSH1 0x1F DUP3 ADD AND SWAP1 POP DUP1 DUP4 ADD SWAP3 POP POP POP POP POP POP POP SWAP2 SWAP3 SWAP2 SWAP3 SWAP1 POP POP POP PUSH2 0x166D JUMP JUMPDEST PUSH1 0x40 MLOAD DUP1 DUP3 DUP2 MSTORE PUSH1 0x20 ADD SWAP2 POP POP PUSH1 0x40 MLOAD DUP1 SWAP2 SUB SWAP1 RETURN JUMPDEST PUSH2 0x5C6 PUSH1 0x4 DUP1 CALLDATASIZE SUB PUSH1 0x60 DUP2 LT ISZERO PUSH2 0x570 JUMPI PUSH1 0x0 DUP1 REVERT JUMPDEST DUP2 ADD SWAP1 DUP1 DUP1 CALLDATALOAD PUSH20 0xFFFFFFFFFFFFFFFFFFFFFFFFFFFFFFFFFFFFFFFF AND SWAP1 PUSH1 0x20 ADD SWAP1 SWAP3 SWAP2 SWAP1 DUP1 CALLDATALOAD SWAP1 PUSH1 0x20 ADD SWAP1 SWAP3 SWAP2 SWAP1 DUP1 CALLDATALOAD PUSH20 0xFFFFFFFFFFFFFFFFFFFFFFFFFFFFFFFFFFFFFFFF AND SWAP1 PUSH1 0x20 ADD SWAP1 SWAP3 SWAP2 SWAP1 POP POP POP PUSH2 0x18DA JUMP JUMPDEST PUSH1 0x40 MLOAD DUP1 DUP3 DUP2 MSTORE PUSH1 0x20 ADD SWAP2 POP POP PUSH1 0x40 MLOAD DUP1 SWAP2 SUB SWAP1 RETURN JUMPDEST PUSH2 0x608 PUSH1 0x4 DUP1 CALLDATASIZE SUB PUSH1 0x20 DUP2 LT ISZERO PUSH2 0x5F2 JUMPI PUSH1 0x0 DUP1 REVERT JUMPDEST DUP2 ADD SWAP1 DUP1 DUP1 CALLDATALOAD SWAP1 PUSH1 0x20 ADD SWAP1 SWAP3 SWAP2 SWAP1 POP POP POP PUSH2 0x197E JUMP JUMPDEST PUSH1 0x40 MLOAD DUP1 DUP3 DUP2 MSTORE PUSH1 0x20 ADD SWAP2 POP POP PUSH1 0x40 MLOAD DUP1 SWAP2 SUB SWAP1 RETURN JUMPDEST PUSH2 0x66A PUSH1 0x4 DUP1 CALLDATASIZE SUB PUSH1 0x40 DUP2 LT ISZERO PUSH2 0x634 JUMPI PUSH1 0x0 DUP1 REVERT JUMPDEST DUP2 ADD SWAP1 DUP1 DUP1 CALLDATALOAD SWAP1 PUSH1 0x20 ADD SWAP1 SWAP3 SWAP2 SWAP1 DUP1 CALLDATALOAD PUSH20 0xFFFFFFFFFFFFFFFFFFFFFFFFFFFFFFFFFFFFFFFF AND SWAP1 PUSH1 0x20 ADD SWAP1 SWAP3 SWAP2 SWAP1 POP POP POP PUSH2 0x1996 JUMP JUMPDEST STOP JUMPDEST PUSH2 0x698 PUSH1 0x4 DUP1 CALLDATASIZE SUB PUSH1 0x20 DUP2 LT ISZERO PUSH2 0x682 JUMPI PUSH1 0x0 DUP1 REVERT JUMPDEST DUP2 ADD SWAP1 DUP1 DUP1 CALLDATALOAD SWAP1 PUSH1 0x20 ADD SWAP1 SWAP3 SWAP2 SWAP1 POP POP POP PUSH2 0x1C74 JUMP JUMPDEST STOP JUMPDEST PUSH2 0x6A2 PUSH2 0x1E2D JUMP JUMPDEST PUSH1 0x40 MLOAD DUP1 DUP3 DUP2 MSTORE PUSH1 0x20 ADD SWAP2 POP POP PUSH1 0x40 MLOAD DUP1 SWAP2 SUB SWAP1 RETURN JUMPDEST PUSH2 0x6E4 PUSH1 0x4 DUP1 CALLDATASIZE SUB PUSH1 0x20 DUP2 LT ISZERO PUSH2 0x6CE JUMPI PUSH1 0x0 DUP1 REVERT JUMPDEST DUP2 ADD SWAP1 DUP1 DUP1 CALLDATALOAD SWAP1 PUSH1 0x20 ADD SWAP1 SWAP3 SWAP2 SWAP1 POP POP POP PUSH2 0x1E33 JUMP JUMPDEST PUSH1 0x40 MLOAD DUP1 DUP5 DUP2 MSTORE PUSH1 0x20 ADD DUP4 DUP2 MSTORE PUSH1 0x20 ADD DUP3 ISZERO ISZERO ISZERO ISZERO DUP2 MSTORE PUSH1 0x20 ADD SWAP4 POP POP POP POP PUSH1 0x40 MLOAD DUP1 SWAP2 SUB SWAP1 RETURN JUMPDEST PUSH2 0x74E PUSH1 0x4 DUP1 CALLDATASIZE SUB PUSH1 0x60 DUP2 LT ISZERO PUSH2 0x722 JUMPI PUSH1 0x0 DUP1 REVERT JUMPDEST DUP2 ADD SWAP1 DUP1 DUP1 CALLDATALOAD SWAP1 PUSH1 0x20 ADD SWAP1 SWAP3 SWAP2 SWAP1 DUP1 CALLDATALOAD SWAP1 PUSH1 0x20 ADD SWAP1 SWAP3 SWAP2 SWAP1 DUP1 CALLDATALOAD ISZERO ISZERO SWAP1 PUSH1 0x20 ADD SWAP1 SWAP3 SWAP2 SWAP1 POP POP POP PUSH2 0x1E77 JUMP JUMPDEST STOP JUMPDEST PUSH2 0x792 PUSH1 0x4 DUP1 CALLDATASIZE SUB PUSH1 0x20 DUP2 LT ISZERO PUSH2 0x766 JUMPI PUSH1 0x0 DUP1 REVERT JUMPDEST DUP2 ADD SWAP1 DUP1 DUP1 CALLDATALOAD PUSH20 0xFFFFFFFFFFFFFFFFFFFFFFFFFFFFFFFFFFFFFFFF AND SWAP1 PUSH1 0x20 ADD SWAP1 SWAP3 SWAP2 SWAP1 POP POP POP PUSH2 0x1F57 JUMP JUMPDEST PUSH1 0x40 MLOAD DUP1 DUP3 DUP2 MSTORE PUSH1 0x20 ADD SWAP2 POP POP PUSH1 0x40 MLOAD DUP1 SWAP2 SUB SWAP1 RETURN JUMPDEST PUSH2 0x8F2 PUSH1 0x4 DUP1 CALLDATASIZE SUB PUSH1 0x40 DUP2 LT ISZERO PUSH2 0x7BE JUMPI PUSH1 0x0 DUP1 REVERT JUMPDEST DUP2 ADD SWAP1 DUP1 DUP1 CALLDATALOAD SWAP1 PUSH1 0x20 ADD SWAP1 PUSH5 0x100000000 DUP2 GT ISZERO PUSH2 0x7DB JUMPI PUSH1 0x0 DUP1 REVERT JUMPDEST DUP3 ADD DUP4 PUSH1 0x20 DUP3 ADD GT ISZERO PUSH2 0x7ED JUMPI PUSH1 0x0 DUP1 REVERT JUMPDEST DUP1 CALLDATALOAD SWAP1 PUSH1 0x20 ADD SWAP2 DUP5 PUSH1 0x20 DUP4 MUL DUP5 ADD GT PUSH5 0x100000000 DUP4 GT OR ISZERO PUSH2 0x80F JUMPI PUSH1 0x0 DUP1 REVERT JUMPDEST SWAP2 SWAP1 DUP1 DUP1 PUSH1 0x20 MUL PUSH1 0x20 ADD PUSH1 0x40 MLOAD SWAP1 DUP2 ADD PUSH1 0x40 MSTORE DUP1 SWAP4 SWAP3 SWAP2 SWAP1 DUP2 DUP2 MSTORE PUSH1 0x20 ADD DUP4 DUP4 PUSH1 0x20 MUL DUP1 DUP3 DUP5 CALLDATACOPY PUSH1 0x0 DUP2 DUP5 ADD MSTORE PUSH1 0x1F NOT PUSH1 0x1F DUP3 ADD AND SWAP1 POP DUP1 DUP4 ADD SWAP3 POP POP POP POP POP POP POP SWAP2 SWAP3 SWAP2 SWAP3 SWAP1 DUP1 CALLDATALOAD SWAP1 PUSH1 0x20 ADD SWAP1 PUSH5 0x100000000 DUP2 GT ISZERO PUSH2 0x86F JUMPI PUSH1 0x0 DUP1 REVERT JUMPDEST DUP3 ADD DUP4 PUSH1 0x20 DUP3 ADD GT ISZERO PUSH2 0x881 JUMPI PUSH1 0x0 DUP1 REVERT JUMPDEST DUP1 CALLDATALOAD SWAP1 PUSH1 0x20 ADD SWAP2 DUP5 PUSH1 0x20 DUP4 MUL DUP5 ADD GT PUSH5 0x100000000 DUP4 GT OR ISZERO PUSH2 0x8A3 JUMPI PUSH1 0x0 DUP1 REVERT JUMPDEST SWAP2 SWAP1 DUP1 DUP1 PUSH1 0x20 MUL PUSH1 0x20 ADD PUSH1 0x40 MLOAD SWAP1 DUP2 ADD PUSH1 0x40 MSTORE DUP1 SWAP4 SWAP3 SWAP2 SWAP1 DUP2 DUP2 MSTORE PUSH1 0x20 ADD DUP4 DUP4 PUSH1 0x20 MUL DUP1 DUP3 DUP5 CALLDATACOPY PUSH1 0x0 DUP2 DUP5 ADD MSTORE PUSH1 0x1F NOT PUSH1 0x1F DUP3 ADD AND SWAP1 POP DUP1 DUP4 ADD SWAP3 POP POP POP POP POP POP POP SWAP2 SWAP3 SWAP2 SWAP3 SWAP1 POP POP POP PUSH2 0x1F6F JUMP JUMPDEST STOP JUMPDEST PUSH2 0x8FC PUSH2 0x2160 JUMP JUMPDEST PUSH1 0x40 MLOAD DUP1 DUP3 PUSH20 0xFFFFFFFFFFFFFFFFFFFFFFFFFFFFFFFFFFFFFFFF AND PUSH20 0xFFFFFFFFFFFFFFFFFFFFFFFFFFFFFFFFFFFFFFFF AND DUP2 MSTORE PUSH1 0x20 ADD SWAP2 POP POP PUSH1 0x40 MLOAD DUP1 SWAP2 SUB SWAP1 RETURN JUMPDEST PUSH2 0x98A PUSH1 0x4 DUP1 CALLDATASIZE SUB PUSH1 0x40 DUP2 LT ISZERO PUSH2 0x954 JUMPI PUSH1 0x0 DUP1 REVERT JUMPDEST DUP2 ADD SWAP1 DUP1 DUP1 CALLDATALOAD PUSH20 0xFFFFFFFFFFFFFFFFFFFFFFFFFFFFFFFFFFFFFFFF AND SWAP1 PUSH1 0x20 ADD SWAP1 SWAP3 SWAP2 SWAP1 DUP1 CALLDATALOAD SWAP1 PUSH1 0x20 ADD SWAP1 SWAP3 SWAP2 SWAP1 POP POP POP PUSH2 0x2186 JUMP JUMPDEST STOP JUMPDEST PUSH2 0x9D8 PUSH1 0x4 DUP1 CALLDATASIZE SUB PUSH1 0x40 DUP2 LT ISZERO PUSH2 0x9A2 JUMPI PUSH1 0x0 DUP1 REVERT JUMPDEST DUP2 ADD SWAP1 DUP1 DUP1 CALLDATALOAD PUSH20 0xFFFFFFFFFFFFFFFFFFFFFFFFFFFFFFFFFFFFFFFF AND SWAP1 PUSH1 0x20 ADD SWAP1 SWAP3 SWAP2 SWAP1 DUP1 CALLDATALOAD SWAP1 PUSH1 0x20 ADD SWAP1 SWAP3 SWAP2 SWAP1 POP POP POP PUSH2 0x2B56 JUMP JUMPDEST PUSH1 0x40 MLOAD DUP1 DUP6 DUP2 MSTORE PUSH1 0x20 ADD DUP5 DUP2 MSTORE PUSH1 0x20 ADD DUP4 DUP2 MSTORE PUSH1 0x20 ADD DUP3 DUP2 MSTORE PUSH1 0x20 ADD SWAP5 POP POP POP POP POP PUSH1 0x40 MLOAD DUP1 SWAP2 SUB SWAP1 RETURN JUMPDEST PUSH2 0xAC3 PUSH1 0x4 DUP1 CALLDATASIZE SUB PUSH1 0x40 DUP2 LT ISZERO PUSH2 0xA19 JUMPI PUSH1 0x0 DUP1 REVERT JUMPDEST DUP2 ADD SWAP1 DUP1 DUP1 CALLDATALOAD SWAP1 PUSH1 0x20 ADD SWAP1 SWAP3 SWAP2 SWAP1 DUP1 CALLDATALOAD SWAP1 PUSH1 0x20 ADD SWAP1 PUSH5 0x100000000 DUP2 GT ISZERO PUSH2 0xA40 JUMPI PUSH1 0x0 DUP1 REVERT JUMPDEST DUP3 ADD DUP4 PUSH1 0x20 DUP3 ADD GT ISZERO PUSH2 0xA52 JUMPI PUSH1 0x0 DUP1 REVERT JUMPDEST DUP1 CALLDATALOAD SWAP1 PUSH1 0x20 ADD SWAP2 DUP5 PUSH1 0x20 DUP4 MUL DUP5 ADD GT PUSH5 0x100000000 DUP4 GT OR ISZERO PUSH2 0xA74 JUMPI PUSH1 0x0 DUP1 REVERT JUMPDEST SWAP2 SWAP1 DUP1 DUP1 PUSH1 0x20 MUL PUSH1 0x20 ADD PUSH1 0x40 MLOAD SWAP1 DUP2 ADD PUSH1 0x40 MSTORE DUP1 SWAP4 SWAP3 SWAP2 SWAP1 DUP2 DUP2 MSTORE PUSH1 0x20 ADD DUP4 DUP4 PUSH1 0x20 MUL DUP1 DUP3 DUP5 CALLDATACOPY PUSH1 0x0 DUP2 DUP5 ADD MSTORE PUSH1 0x1F NOT PUSH1 0x1F DUP3 ADD AND SWAP1 POP DUP1 DUP4 ADD SWAP3 POP POP POP POP POP POP POP SWAP2 SWAP3 SWAP2 SWAP3 SWAP1 POP POP POP PUSH2 0x2BA0 JUMP JUMPDEST STOP JUMPDEST PUSH2 0xB1B PUSH1 0x4 DUP1 CALLDATASIZE SUB PUSH1 0x60 DUP2 LT ISZERO PUSH2 0xADB JUMPI PUSH1 0x0 DUP1 REVERT JUMPDEST DUP2 ADD SWAP1 DUP1 DUP1 CALLDATALOAD SWAP1 PUSH1 0x20 ADD SWAP1 SWAP3 SWAP2 SWAP1 DUP1 CALLDATALOAD PUSH20 0xFFFFFFFFFFFFFFFFFFFFFFFFFFFFFFFFFFFFFFFF AND SWAP1 PUSH1 0x20 ADD SWAP1 SWAP3 SWAP2 SWAP1 DUP1 CALLDATALOAD SWAP1 PUSH1 0x20 ADD SWAP1 SWAP3 SWAP2 SWAP1 POP POP POP PUSH2 0x32CE JUMP JUMPDEST STOP JUMPDEST PUSH2 0xB5F PUSH1 0x4 DUP1 CALLDATASIZE SUB PUSH1 0x20 DUP2 LT ISZERO PUSH2 0xB33 JUMPI PUSH1 0x0 DUP1 REVERT JUMPDEST DUP2 ADD SWAP1 DUP1 DUP1 CALLDATALOAD PUSH20 0xFFFFFFFFFFFFFFFFFFFFFFFFFFFFFFFFFFFFFFFF AND SWAP1 PUSH1 0x20 ADD SWAP1 SWAP3 SWAP2 SWAP1 POP POP POP PUSH2 0x35A5 JUMP JUMPDEST PUSH1 0x40 MLOAD DUP1 DUP3 DUP2 MSTORE PUSH1 0x20 ADD SWAP2 POP POP PUSH1 0x40 MLOAD DUP1 SWAP2 SUB SWAP1 RETURN JUMPDEST PUSH2 0xBA1 PUSH1 0x4 DUP1 CALLDATASIZE SUB PUSH1 0x20 DUP2 LT ISZERO PUSH2 0xB8B JUMPI PUSH1 0x0 DUP1 REVERT JUMPDEST DUP2 ADD SWAP1 DUP1 DUP1 CALLDATALOAD SWAP1 PUSH1 0x20 ADD SWAP1 SWAP3 SWAP2 SWAP1 POP POP POP PUSH2 0x35F1 JUMP JUMPDEST PUSH1 0x40 MLOAD DUP1 DUP5 DUP2 MSTORE PUSH1 0x20 ADD DUP4 DUP2 MSTORE PUSH1 0x20 ADD DUP3 DUP2 MSTORE PUSH1 0x20 ADD SWAP4 POP POP POP POP PUSH1 0x40 MLOAD DUP1 SWAP2 SUB SWAP1 RETURN JUMPDEST PUSH2 0xC8F PUSH1 0x4 DUP1 CALLDATASIZE SUB PUSH1 0x60 DUP2 LT ISZERO PUSH2 0xBDB JUMPI PUSH1 0x0 DUP1 REVERT JUMPDEST DUP2 ADD SWAP1 DUP1 DUP1 CALLDATALOAD SWAP1 PUSH1 0x20 ADD SWAP1 SWAP3 SWAP2 SWAP1 DUP1 CALLDATALOAD SWAP1 PUSH1 0x20 ADD SWAP1 SWAP3 SWAP2 SWAP1 DUP1 CALLDATALOAD SWAP1 PUSH1 0x20 ADD SWAP1 PUSH5 0x100000000 DUP2 GT ISZERO PUSH2 0xC0C JUMPI PUSH1 0x0 DUP1 REVERT JUMPDEST DUP3 ADD DUP4 PUSH1 0x20 DUP3 ADD GT ISZERO PUSH2 0xC1E JUMPI PUSH1 0x0 DUP1 REVERT JUMPDEST DUP1 CALLDATALOAD SWAP1 PUSH1 0x20 ADD SWAP2 DUP5 PUSH1 0x20 DUP4 MUL DUP5 ADD GT PUSH5 0x100000000 DUP4 GT OR ISZERO PUSH2 0xC40 JUMPI PUSH1 0x0 DUP1 REVERT JUMPDEST SWAP2 SWAP1 DUP1 DUP1 PUSH1 0x20 MUL PUSH1 0x20 ADD PUSH1 0x40 MLOAD SWAP1 DUP2 ADD PUSH1 0x40 MSTORE DUP1 SWAP4 SWAP3 SWAP2 SWAP1 DUP2 DUP2 MSTORE PUSH1 0x20 ADD DUP4 DUP4 PUSH1 0x20 MUL DUP1 DUP3 DUP5 CALLDATACOPY PUSH1 0x0 DUP2 DUP5 ADD MSTORE PUSH1 0x1F NOT PUSH1 0x1F DUP3 ADD AND SWAP1 POP DUP1 DUP4 ADD SWAP3 POP POP POP POP POP POP POP SWAP2 SWAP3 SWAP2 SWAP3 SWAP1 POP POP POP PUSH2 0x3628 JUMP JUMPDEST STOP JUMPDEST PUSH2 0xCD1 PUSH1 0x4 DUP1 CALLDATASIZE SUB PUSH1 0x60 DUP2 LT ISZERO PUSH2 0xCA7 JUMPI PUSH1 0x0 DUP1 REVERT JUMPDEST DUP2 ADD SWAP1 DUP1 DUP1 CALLDATALOAD SWAP1 PUSH1 0x20 ADD SWAP1 SWAP3 SWAP2 SWAP1 DUP1 CALLDATALOAD SWAP1 PUSH1 0x20 ADD SWAP1 SWAP3 SWAP2 SWAP1 DUP1 CALLDATALOAD SWAP1 PUSH1 0x20 ADD SWAP1 SWAP3 SWAP2 SWAP1 POP POP POP PUSH2 0x407F JUMP JUMPDEST STOP JUMPDEST PUSH2 0xD29 PUSH1 0x4 DUP1 CALLDATASIZE SUB PUSH1 0x60 DUP2 LT ISZERO PUSH2 0xCE9 JUMPI PUSH1 0x0 DUP1 REVERT JUMPDEST DUP2 ADD SWAP1 DUP1 DUP1 CALLDATALOAD PUSH20 0xFFFFFFFFFFFFFFFFFFFFFFFFFFFFFFFFFFFFFFFF AND SWAP1 PUSH1 0x20 ADD SWAP1 SWAP3 SWAP2 SWAP1 DUP1 CALLDATALOAD SWAP1 PUSH1 0x20 ADD SWAP1 SWAP3 SWAP2 SWAP1 DUP1 CALLDATALOAD SWAP1 PUSH1 0x20 ADD SWAP1 SWAP3 SWAP2 SWAP1 POP POP POP PUSH2 0x4155 JUMP JUMPDEST PUSH1 0x40 MLOAD DUP1 DUP3 ISZERO ISZERO ISZERO ISZERO DUP2 MSTORE PUSH1 0x20 ADD SWAP2 POP POP PUSH1 0x40 MLOAD DUP1 SWAP2 SUB SWAP1 RETURN JUMPDEST PUSH2 0xD6F PUSH1 0x4 DUP1 CALLDATASIZE SUB PUSH1 0x20 DUP2 LT ISZERO PUSH2 0xD59 JUMPI PUSH1 0x0 DUP1 REVERT JUMPDEST DUP2 ADD SWAP1 DUP1 DUP1 CALLDATALOAD SWAP1 PUSH1 0x20 ADD SWAP1 SWAP3 SWAP2 SWAP1 POP POP POP PUSH2 0x441E JUMP JUMPDEST STOP JUMPDEST PUSH2 0xD79 PUSH2 0x4712 JUMP JUMPDEST PUSH1 0x40 MLOAD DUP1 DUP3 DUP2 MSTORE PUSH1 0x20 ADD SWAP2 POP POP PUSH1 0x40 MLOAD DUP1 SWAP2 SUB SWAP1 RETURN JUMPDEST PUSH2 0xDBB PUSH1 0x4 DUP1 CALLDATASIZE SUB PUSH1 0x20 DUP2 LT ISZERO PUSH2 0xDA5 JUMPI PUSH1 0x0 DUP1 REVERT JUMPDEST DUP2 ADD SWAP1 DUP1 DUP1 CALLDATALOAD SWAP1 PUSH1 0x20 ADD SWAP1 SWAP3 SWAP2 SWAP1 POP POP POP PUSH2 0x4722 JUMP JUMPDEST STOP JUMPDEST PUSH2 0xE9D PUSH1 0x4 DUP1 CALLDATASIZE SUB PUSH1 0x60 DUP2 LT ISZERO PUSH2 0xDD3 JUMPI PUSH1 0x0 DUP1 REVERT JUMPDEST DUP2 ADD SWAP1 DUP1 DUP1 CALLDATALOAD PUSH20 0xFFFFFFFFFFFFFFFFFFFFFFFFFFFFFFFFFFFFFFFF AND SWAP1 PUSH1 0x20 ADD SWAP1 SWAP3 SWAP2 SWAP1 DUP1 CALLDATALOAD SWAP1 PUSH1 0x20 ADD SWAP1 PUSH5 0x100000000 DUP2 GT ISZERO PUSH2 0xE10 JUMPI PUSH1 0x0 DUP1 REVERT JUMPDEST DUP3 ADD DUP4 PUSH1 0x20 DUP3 ADD GT ISZERO PUSH2 0xE22 JUMPI PUSH1 0x0 DUP1 REVERT JUMPDEST DUP1 CALLDATALOAD SWAP1 PUSH1 0x20 ADD SWAP2 DUP5 PUSH1 0x20 DUP4 MUL DUP5 ADD GT PUSH5 0x100000000 DUP4 GT OR ISZERO PUSH2 0xE44 JUMPI PUSH1 0x0 DUP1 REVERT JUMPDEST SWAP2 SWAP1 DUP1 DUP1 PUSH1 0x20 MUL PUSH1 0x20 ADD PUSH1 0x40 MLOAD SWAP1 DUP2 ADD PUSH1 0x40 MSTORE DUP1 SWAP4 SWAP3 SWAP2 SWAP1 DUP2 DUP2 MSTORE PUSH1 0x20 ADD DUP4 DUP4 PUSH1 0x20 MUL DUP1 DUP3 DUP5 CALLDATACOPY PUSH1 0x0 DUP2 DUP5 ADD MSTORE PUSH1 0x1F NOT PUSH1 0x1F DUP3 ADD AND SWAP1 POP DUP1 DUP4 ADD SWAP3 POP POP POP POP POP POP POP SWAP2 SWAP3 SWAP2 SWAP3 SWAP1 DUP1 CALLDATALOAD SWAP1 PUSH1 0x20 ADD SWAP1 SWAP3 SWAP2 SWAP1 POP POP POP PUSH2 0x4E4B JUMP JUMPDEST PUSH1 0x40 MLOAD DUP1 DUP3 DUP2 MSTORE PUSH1 0x20 ADD SWAP2 POP POP PUSH1 0x40 MLOAD DUP1 SWAP2 SUB SWAP1 RETURN JUMPDEST PUSH2 0xEE9 PUSH1 0x4 DUP1 CALLDATASIZE SUB PUSH1 0x40 DUP2 LT ISZERO PUSH2 0xEC9 JUMPI PUSH1 0x0 DUP1 REVERT JUMPDEST DUP2 ADD SWAP1 DUP1 DUP1 CALLDATALOAD SWAP1 PUSH1 0x20 ADD SWAP1 SWAP3 SWAP2 SWAP1 DUP1 CALLDATALOAD SWAP1 PUSH1 0x20 ADD SWAP1 SWAP3 SWAP2 SWAP1 POP POP POP PUSH2 0x514F JUMP JUMPDEST STOP JUMPDEST PUSH2 0xEF3 PUSH2 0x549C JUMP JUMPDEST PUSH1 0x40 MLOAD DUP1 DUP3 DUP2 MSTORE PUSH1 0x20 ADD SWAP2 POP POP PUSH1 0x40 MLOAD DUP1 SWAP2 SUB SWAP1 RETURN JUMPDEST PUSH2 0xF35 PUSH1 0x4 DUP1 CALLDATASIZE SUB PUSH1 0x20 DUP2 LT ISZERO PUSH2 0xF1F JUMPI PUSH1 0x0 DUP1 REVERT JUMPDEST DUP2 ADD SWAP1 DUP1 DUP1 CALLDATALOAD SWAP1 PUSH1 0x20 ADD SWAP1 SWAP3 SWAP2 SWAP1 POP POP POP PUSH2 0x54A2 JUMP JUMPDEST STOP JUMPDEST PUSH2 0xFED PUSH1 0x4 DUP1 CALLDATASIZE SUB PUSH1 0x20 DUP2 LT ISZERO PUSH2 0xF4D JUMPI PUSH1 0x0 DUP1 REVERT JUMPDEST DUP2 ADD SWAP1 DUP1 DUP1 CALLDATALOAD SWAP1 PUSH1 0x20 ADD SWAP1 PUSH5 0x100000000 DUP2 GT ISZERO PUSH2 0xF6A JUMPI PUSH1 0x0 DUP1 REVERT JUMPDEST DUP3 ADD DUP4 PUSH1 0x20 DUP3 ADD GT ISZERO PUSH2 0xF7C JUMPI PUSH1 0x0 DUP1 REVERT JUMPDEST DUP1 CALLDATALOAD SWAP1 PUSH1 0x20 ADD SWAP2 DUP5 PUSH1 0x20 DUP4 MUL DUP5 ADD GT PUSH5 0x100000000 DUP4 GT OR ISZERO PUSH2 0xF9E JUMPI PUSH1 0x0 DUP1 REVERT JUMPDEST SWAP2 SWAP1 DUP1 DUP1 PUSH1 0x20 MUL PUSH1 0x20 ADD PUSH1 0x40 MLOAD SWAP1 DUP2 ADD PUSH1 0x40 MSTORE DUP1 SWAP4 SWAP3 SWAP2 SWAP1 DUP2 DUP2 MSTORE PUSH1 0x20 ADD DUP4 DUP4 PUSH1 0x20 MUL DUP1 DUP3 DUP5 CALLDATACOPY PUSH1 0x0 DUP2 DUP5 ADD MSTORE PUSH1 0x1F NOT PUSH1 0x1F DUP3 ADD AND SWAP1 POP DUP1 DUP4 ADD SWAP3 POP POP POP POP POP POP POP SWAP2 SWAP3 SWAP2 SWAP3 SWAP1 POP POP POP PUSH2 0x552B JUMP JUMPDEST STOP JUMPDEST PUSH2 0xFF7 PUSH2 0x58A0 JUMP JUMPDEST PUSH1 0x40 MLOAD DUP1 DUP3 PUSH20 0xFFFFFFFFFFFFFFFFFFFFFFFFFFFFFFFFFFFFFFFF AND PUSH20 0xFFFFFFFFFFFFFFFFFFFFFFFFFFFFFFFFFFFFFFFF AND DUP2 MSTORE PUSH1 0x20 ADD SWAP2 POP POP PUSH1 0x40 MLOAD DUP1 SWAP2 SUB SWAP1 RETURN JUMPDEST PUSH1 0x3 PUSH1 0x0 SWAP1 SLOAD SWAP1 PUSH2 0x100 EXP SWAP1 DIV PUSH20 0xFFFFFFFFFFFFFFFFFFFFFFFFFFFFFFFFFFFFFFFF AND DUP2 JUMP JUMPDEST PUSH1 0x0 DUP1 PUSH1 0x0 SWAP1 POP JUMPDEST DUP4 MLOAD DUP2 LT ISZERO PUSH2 0x1422 JUMPI PUSH1 0x1 PUSH1 0x8 PUSH1 0x0 DUP7 DUP5 DUP2 MLOAD DUP2 LT PUSH2 0x1082 JUMPI INVALID JUMPDEST PUSH1 0x20 MUL PUSH1 0x20 ADD ADD MLOAD PUSH20 0xFFFFFFFFFFFFFFFFFFFFFFFFFFFFFFFFFFFFFFFF AND PUSH20 0xFFFFFFFFFFFFFFFFFFFFFFFFFFFFFFFFFFFFFFFF AND DUP2 MSTORE PUSH1 0x20 ADD SWAP1 DUP2 MSTORE PUSH1 0x20 ADD PUSH1 0x0 KECCAK256 DUP5 DUP4 DUP2 MLOAD DUP2 LT PUSH2 0x10D0 JUMPI INVALID JUMPDEST PUSH1 0x20 MUL PUSH1 0x20 ADD ADD MLOAD DUP2 SLOAD DUP2 LT PUSH2 0x10E2 JUMPI INVALID JUMPDEST SWAP1 PUSH1 0x0 MSTORE PUSH1 0x20 PUSH1 0x0 KECCAK256 SWAP1 PUSH1 0x5 MUL ADD PUSH1 0x3 ADD SLOAD EQ PUSH2 0x10FE JUMPI PUSH1 0x0 DUP1 REVERT JUMPDEST PUSH2 0x11B2 PUSH1 0x4 SLOAD PUSH1 0x6 PUSH1 0x8 PUSH1 0x0 DUP9 DUP7 DUP2 MLOAD DUP2 LT PUSH2 0x1116 JUMPI INVALID JUMPDEST PUSH1 0x20 MUL PUSH1 0x20 ADD ADD MLOAD PUSH20 0xFFFFFFFFFFFFFFFFFFFFFFFFFFFFFFFFFFFFFFFF AND PUSH20 0xFFFFFFFFFFFFFFFFFFFFFFFFFFFFFFFFFFFFFFFF AND DUP2 MSTORE PUSH1 0x20 ADD SWAP1 DUP2 MSTORE PUSH1 0x20 ADD PUSH1 0x0 KECCAK256 DUP7 DUP6 DUP2 MLOAD DUP2 LT PUSH2 0x1164 JUMPI INVALID JUMPDEST PUSH1 0x20 MUL PUSH1 0x20 ADD ADD MLOAD DUP2 SLOAD DUP2 LT PUSH2 0x1176 JUMPI INVALID JUMPDEST SWAP1 PUSH1 0x0 MSTORE PUSH1 0x20 PUSH1 0x0 KECCAK256 SWAP1 PUSH1 0x5 MUL ADD PUSH1 0x2 ADD SLOAD DUP2 SLOAD DUP2 LT PUSH2 0x1192 JUMPI INVALID JUMPDEST SWAP1 PUSH1 0x0 MSTORE PUSH1 0x20 PUSH1 0x0 KECCAK256 SWAP1 PUSH1 0x3 MUL ADD PUSH1 0x0 ADD SLOAD PUSH2 0x58C6 SWAP1 SWAP2 SWAP1 PUSH4 0xFFFFFFFF AND JUMP JUMPDEST PUSH1 0x8 PUSH1 0x0 DUP7 DUP5 DUP2 MLOAD DUP2 LT PUSH2 0x11C2 JUMPI INVALID JUMPDEST PUSH1 0x20 MUL PUSH1 0x20 ADD ADD MLOAD PUSH20 0xFFFFFFFFFFFFFFFFFFFFFFFFFFFFFFFFFFFFFFFF AND PUSH20 0xFFFFFFFFFFFFFFFFFFFFFFFFFFFFFFFFFFFFFFFF AND DUP2 MSTORE PUSH1 0x20 ADD SWAP1 DUP2 MSTORE PUSH1 0x20 ADD PUSH1 0x0 KECCAK256 DUP5 DUP4 DUP2 MLOAD DUP2 LT PUSH2 0x1210 JUMPI INVALID JUMPDEST PUSH1 0x20 MUL PUSH1 0x20 ADD ADD MLOAD DUP2 SLOAD DUP2 LT PUSH2 0x1222 JUMPI INVALID JUMPDEST SWAP1 PUSH1 0x0 MSTORE PUSH1 0x20 PUSH1 0x0 KECCAK256 SWAP1 PUSH1 0x5 MUL ADD PUSH1 0x1 ADD SLOAD ADD TIMESTAMP GT PUSH2 0x1240 JUMPI PUSH1 0x0 DUP1 REVERT JUMPDEST PUSH1 0x0 PUSH1 0x8 PUSH1 0x0 DUP7 DUP5 DUP2 MLOAD DUP2 LT PUSH2 0x1252 JUMPI INVALID JUMPDEST PUSH1 0x20 MUL PUSH1 0x20 ADD ADD MLOAD PUSH20 0xFFFFFFFFFFFFFFFFFFFFFFFFFFFFFFFFFFFFFFFF AND PUSH20 0xFFFFFFFFFFFFFFFFFFFFFFFFFFFFFFFFFFFFFFFF AND DUP2 MSTORE PUSH1 0x20 ADD SWAP1 DUP2 MSTORE PUSH1 0x20 ADD PUSH1 0x0 KECCAK256 DUP5 DUP4 DUP2 MLOAD DUP2 LT PUSH2 0x12A0 JUMPI INVALID JUMPDEST PUSH1 0x20 MUL PUSH1 0x20 ADD ADD MLOAD DUP2 SLOAD DUP2 LT PUSH2 0x12B2 JUMPI INVALID JUMPDEST SWAP1 PUSH1 0x0 MSTORE PUSH1 0x20 PUSH1 0x0 KECCAK256 SWAP1 PUSH1 0x5 MUL ADD PUSH1 0x4 ADD SWAP1 POP PUSH1 0x0 DUP1 SWAP1 POP JUMPDEST DUP2 DUP1 SLOAD SWAP1 POP DUP2 LT ISZERO PUSH2 0x137D JUMPI PUSH2 0x136E PUSH1 0x7 PUSH1 0x0 DUP9 DUP7 DUP2 MLOAD DUP2 LT PUSH2 0x12EA JUMPI INVALID JUMPDEST PUSH1 0x20 MUL PUSH1 0x20 ADD ADD MLOAD PUSH20 0xFFFFFFFFFFFFFFFFFFFFFFFFFFFFFFFFFFFFFFFF AND PUSH20 0xFFFFFFFFFFFFFFFFFFFFFFFFFFFFFFFFFFFFFFFF AND DUP2 MSTORE PUSH1 0x20 ADD SWAP1 DUP2 MSTORE PUSH1 0x20 ADD PUSH1 0x0 KECCAK256 DUP4 DUP4 DUP2 SLOAD DUP2 LT PUSH2 0x1338 JUMPI INVALID JUMPDEST SWAP1 PUSH1 0x0 MSTORE PUSH1 0x20 PUSH1 0x0 KECCAK256 ADD SLOAD DUP2 SLOAD DUP2 LT PUSH2 0x134D JUMPI INVALID JUMPDEST SWAP1 PUSH1 0x0 MSTORE PUSH1 0x20 PUSH1 0x0 KECCAK256 SWAP1 PUSH1 0x9 MUL ADD PUSH1 0x0 ADD SLOAD DUP6 PUSH2 0x5900 SWAP1 SWAP2 SWAP1 PUSH4 0xFFFFFFFF AND JUMP JUMPDEST SWAP4 POP DUP1 DUP1 PUSH1 0x1 ADD SWAP2 POP POP PUSH2 0x12CB JUMP JUMPDEST POP PUSH2 0x1412 PUSH1 0x8 PUSH1 0x0 DUP8 DUP6 DUP2 MLOAD DUP2 LT PUSH2 0x1391 JUMPI INVALID JUMPDEST PUSH1 0x20 MUL PUSH1 0x20 ADD ADD MLOAD PUSH20 0xFFFFFFFFFFFFFFFFFFFFFFFFFFFFFFFFFFFFFFFF AND PUSH20 0xFFFFFFFFFFFFFFFFFFFFFFFFFFFFFFFFFFFFFFFF AND DUP2 MSTORE PUSH1 0x20 ADD SWAP1 DUP2 MSTORE PUSH1 0x20 ADD PUSH1 0x0 KECCAK256 DUP6 DUP5 DUP2 MLOAD DUP2 LT PUSH2 0x13DF JUMPI INVALID JUMPDEST PUSH1 0x20 MUL PUSH1 0x20 ADD ADD MLOAD DUP2 SLOAD DUP2 LT PUSH2 0x13F1 JUMPI INVALID JUMPDEST SWAP1 PUSH1 0x0 MSTORE PUSH1 0x20 PUSH1 0x0 KECCAK256 SWAP1 PUSH1 0x5 MUL ADD PUSH1 0x0 ADD SLOAD DUP5 PUSH2 0x591F SWAP1 SWAP2 SWAP1 PUSH4 0xFFFFFFFF AND JUMP JUMPDEST SWAP3 POP POP DUP1 DUP1 PUSH1 0x1 ADD SWAP2 POP POP PUSH2 0x1067 JUMP JUMPDEST POP PUSH1 0x2 PUSH1 0x0 SWAP1 SLOAD SWAP1 PUSH2 0x100 EXP SWAP1 DIV PUSH20 0xFFFFFFFFFFFFFFFFFFFFFFFFFFFFFFFFFFFFFFFF AND PUSH20 0xFFFFFFFFFFFFFFFFFFFFFFFFFFFFFFFFFFFFFFFF AND PUSH4 0xA9059CBB PUSH1 0x3 PUSH1 0x0 SWAP1 SLOAD SWAP1 PUSH2 0x100 EXP SWAP1 DIV PUSH20 0xFFFFFFFFFFFFFFFFFFFFFFFFFFFFFFFFFFFFFFFF AND DUP4 PUSH1 0x40 MLOAD DUP4 PUSH4 0xFFFFFFFF AND PUSH1 0xE0 SHL DUP2 MSTORE PUSH1 0x4 ADD DUP1 DUP4 PUSH20 0xFFFFFFFFFFFFFFFFFFFFFFFFFFFFFFFFFFFFFFFF AND PUSH20 0xFFFFFFFFFFFFFFFFFFFFFFFFFFFFFFFFFFFFFFFF AND DUP2 MSTORE PUSH1 0x20 ADD DUP3 DUP2 MSTORE PUSH1 0x20 ADD SWAP3 POP POP POP PUSH1 0x20 PUSH1 0x40 MLOAD DUP1 DUP4 SUB DUP2 PUSH1 0x0 DUP8 DUP1 EXTCODESIZE ISZERO DUP1 ISZERO PUSH2 0x14EE JUMPI PUSH1 0x0 DUP1 REVERT JUMPDEST POP GAS CALL ISZERO DUP1 ISZERO PUSH2 0x1502 JUMPI RETURNDATASIZE PUSH1 0x0 DUP1 RETURNDATACOPY RETURNDATASIZE PUSH1 0x0 REVERT JUMPDEST POP POP POP POP PUSH1 0x40 MLOAD RETURNDATASIZE PUSH1 0x20 DUP2 LT ISZERO PUSH2 0x1518 JUMPI PUSH1 0x0 DUP1 REVERT JUMPDEST DUP2 ADD SWAP1 DUP1 DUP1 MLOAD SWAP1 PUSH1 0x20 ADD SWAP1 SWAP3 SWAP2 SWAP1 POP POP POP PUSH2 0x1532 JUMPI PUSH1 0x0 DUP1 REVERT JUMPDEST PUSH1 0x3 PUSH1 0x0 SWAP1 SLOAD SWAP1 PUSH2 0x100 EXP SWAP1 DIV PUSH20 0xFFFFFFFFFFFFFFFFFFFFFFFFFFFFFFFFFFFFFFFF AND PUSH20 0xFFFFFFFFFFFFFFFFFFFFFFFFFFFFFFFFFFFFFFFF AND PUSH4 0x41AAA9B6 DUP3 PUSH1 0x40 MLOAD DUP3 PUSH4 0xFFFFFFFF AND PUSH1 0xE0 SHL DUP2 MSTORE PUSH1 0x4 ADD DUP1 DUP3 DUP2 MSTORE PUSH1 0x20 ADD SWAP2 POP POP PUSH1 0x20 PUSH1 0x40 MLOAD DUP1 DUP4 SUB DUP2 PUSH1 0x0 DUP8 DUP1 EXTCODESIZE ISZERO DUP1 ISZERO PUSH2 0x15A7 JUMPI PUSH1 0x0 DUP1 REVERT JUMPDEST POP GAS CALL ISZERO DUP1 ISZERO PUSH2 0x15BB JUMPI RETURNDATASIZE PUSH1 0x0 DUP1 RETURNDATACOPY RETURNDATASIZE PUSH1 0x0 REVERT JUMPDEST POP POP POP POP PUSH1 0x40 MLOAD RETURNDATASIZE PUSH1 0x20 DUP2 LT ISZERO PUSH2 0x15D1 JUMPI PUSH1 0x0 DUP1 REVERT JUMPDEST DUP2 ADD SWAP1 DUP1 DUP1 MLOAD SWAP1 PUSH1 0x20 ADD SWAP1 SWAP3 SWAP2 SWAP1 POP POP POP PUSH2 0x15EB JUMPI PUSH1 0x0 DUP1 REVERT JUMPDEST POP POP POP JUMP JUMPDEST PUSH1 0x7 PUSH1 0x20 MSTORE DUP2 PUSH1 0x0 MSTORE PUSH1 0x40 PUSH1 0x0 KECCAK256 DUP2 DUP2 SLOAD DUP2 LT PUSH2 0x1609 JUMPI INVALID JUMPDEST SWAP1 PUSH1 0x0 MSTORE PUSH1 0x20 PUSH1 0x0 KECCAK256 SWAP1 PUSH1 0x9 MUL ADD PUSH1 0x0 SWAP2 POP SWAP2 POP POP DUP1 PUSH1 0x0 ADD SLOAD SWAP1 DUP1 PUSH1 0x1 ADD SLOAD SWAP1 DUP1 PUSH1 0x2 ADD SLOAD SWAP1 DUP1 PUSH1 0x3 ADD SLOAD SWAP1 DUP1 PUSH1 0x4 ADD SLOAD SWAP1 DUP1 PUSH1 0x5 ADD SLOAD SWAP1 DUP1 PUSH1 0x6 ADD SLOAD SWAP1 POP DUP8 JUMP JUMPDEST PUSH1 0xB DUP2 DUP2 SLOAD DUP2 LT PUSH2 0x1659 JUMPI INVALID JUMPDEST SWAP1 PUSH1 0x0 MSTORE PUSH1 0x20 PUSH1 0x0 KECCAK256 ADD PUSH1 0x0 SWAP2 POP SWAP1 POP SLOAD DUP2 JUMP JUMPDEST PUSH1 0x0 DUP1 PUSH1 0x0 DUP1 SWAP1 POP JUMPDEST DUP4 MLOAD DUP2 LT ISZERO PUSH2 0x1830 JUMPI PUSH2 0x169D DUP7 DUP7 DUP7 DUP5 DUP2 MLOAD DUP2 LT PUSH2 0x1690 JUMPI INVALID JUMPDEST PUSH1 0x20 MUL PUSH1 0x20 ADD ADD MLOAD PUSH2 0x4155 JUMP JUMPDEST DUP1 ISZERO PUSH2 0x1733 JUMPI POP PUSH1 0x7 PUSH1 0x0 DUP8 PUSH20 0xFFFFFFFFFFFFFFFFFFFFFFFFFFFFFFFFFFFFFFFF AND PUSH20 0xFFFFFFFFFFFFFFFFFFFFFFFFFFFFFFFFFFFFFFFF AND DUP2 MSTORE PUSH1 0x20 ADD SWAP1 DUP2 MSTORE PUSH1 0x20 ADD PUSH1 0x0 KECCAK256 DUP6 DUP2 SLOAD DUP2 LT PUSH2 0x16EE JUMPI INVALID JUMPDEST SWAP1 PUSH1 0x0 MSTORE PUSH1 0x20 PUSH1 0x0 KECCAK256 SWAP1 PUSH1 0x9 MUL ADD PUSH1 0x7 ADD PUSH1 0x0 DUP6 DUP4 DUP2 MLOAD DUP2 LT PUSH2 0x170D JUMPI INVALID JUMPDEST PUSH1 0x20 MUL PUSH1 0x20 ADD ADD MLOAD DUP2 MSTORE PUSH1 0x20 ADD SWAP1 DUP2 MSTORE PUSH1 0x20 ADD PUSH1 0x0 KECCAK256 PUSH1 0x0 SWAP1 SLOAD SWAP1 PUSH2 0x100 EXP SWAP1 DIV PUSH1 0xFF AND ISZERO JUMPDEST ISZERO PUSH2 0x1823 JUMPI PUSH1 0x0 PUSH2 0x180A PUSH1 0xA PUSH1 0x0 DUP8 DUP6 DUP2 MLOAD DUP2 LT PUSH2 0x174D JUMPI INVALID JUMPDEST PUSH1 0x20 MUL PUSH1 0x20 ADD ADD MLOAD DUP2 MSTORE PUSH1 0x20 ADD SWAP1 DUP2 MSTORE PUSH1 0x20 ADD PUSH1 0x0 KECCAK256 SLOAD PUSH2 0x17FC PUSH1 0xB DUP9 DUP7 DUP2 MLOAD DUP2 LT PUSH2 0x1775 JUMPI INVALID JUMPDEST PUSH1 0x20 MUL PUSH1 0x20 ADD ADD MLOAD DUP2 SLOAD DUP2 LT PUSH2 0x1787 JUMPI INVALID JUMPDEST SWAP1 PUSH1 0x0 MSTORE PUSH1 0x20 PUSH1 0x0 KECCAK256 ADD SLOAD PUSH1 0x7 PUSH1 0x0 DUP13 PUSH20 0xFFFFFFFFFFFFFFFFFFFFFFFFFFFFFFFFFFFFFFFF AND PUSH20 0xFFFFFFFFFFFFFFFFFFFFFFFFFFFFFFFFFFFFFFFF AND DUP2 MSTORE PUSH1 0x20 ADD SWAP1 DUP2 MSTORE PUSH1 0x20 ADD PUSH1 0x0 KECCAK256 DUP11 DUP2 SLOAD DUP2 LT PUSH2 0x17DC JUMPI INVALID JUMPDEST SWAP1 PUSH1 0x0 MSTORE PUSH1 0x20 PUSH1 0x0 KECCAK256 SWAP1 PUSH1 0x9 MUL ADD PUSH1 0x0 ADD SLOAD PUSH2 0x58C6 SWAP1 SWAP2 SWAP1 PUSH4 0xFFFFFFFF AND JUMP JUMPDEST PUSH2 0x593F SWAP1 SWAP2 SWAP1 PUSH4 0xFFFFFFFF AND JUMP JUMPDEST SWAP1 POP PUSH2 0x181F DUP2 DUP5 PUSH2 0x5900 SWAP1 SWAP2 SWAP1 PUSH4 0xFFFFFFFF AND JUMP JUMPDEST SWAP3 POP POP JUMPDEST DUP1 DUP1 PUSH1 0x1 ADD SWAP2 POP POP PUSH2 0x1676 JUMP JUMPDEST POP PUSH2 0x18D0 PUSH1 0xF PUSH2 0x18C2 PUSH1 0x5 PUSH1 0x7 PUSH1 0x0 DUP11 PUSH20 0xFFFFFFFFFFFFFFFFFFFFFFFFFFFFFFFFFFFFFFFF AND PUSH20 0xFFFFFFFFFFFFFFFFFFFFFFFFFFFFFFFFFFFFFFFF AND DUP2 MSTORE PUSH1 0x20 ADD SWAP1 DUP2 MSTORE PUSH1 0x20 ADD PUSH1 0x0 KECCAK256 DUP9 DUP2 SLOAD DUP2 LT PUSH2 0x1885 JUMPI INVALID JUMPDEST SWAP1 PUSH1 0x0 MSTORE PUSH1 0x20 PUSH1 0x0 KECCAK256 SWAP1 PUSH1 0x9 MUL ADD PUSH1 0x3 ADD SLOAD DUP2 SLOAD DUP2 LT PUSH2 0x18A1 JUMPI INVALID JUMPDEST SWAP1 PUSH1 0x0 MSTORE PUSH1 0x20 PUSH1 0x0 KECCAK256 SWAP1 PUSH1 0x3 MUL ADD PUSH1 0x1 ADD SLOAD DUP5 PUSH2 0x58C6 SWAP1 SWAP2 SWAP1 PUSH4 0xFFFFFFFF AND JUMP JUMPDEST PUSH2 0x593F SWAP1 SWAP2 SWAP1 PUSH4 0xFFFFFFFF AND JUMP JUMPDEST SWAP2 POP POP SWAP4 SWAP3 POP POP POP JUMP JUMPDEST PUSH1 0x0 PUSH1 0x7 PUSH1 0x0 DUP6 PUSH20 0xFFFFFFFFFFFFFFFFFFFFFFFFFFFFFFFFFFFFFFFF AND PUSH20 0xFFFFFFFFFFFFFFFFFFFFFFFFFFFFFFFFFFFFFFFF AND DUP2 MSTORE PUSH1 0x20 ADD SWAP1 DUP2 MSTORE PUSH1 0x20 ADD PUSH1 0x0 KECCAK256 DUP4 DUP2 SLOAD DUP2 LT PUSH2 0x1926 JUMPI INVALID JUMPDEST SWAP1 PUSH1 0x0 MSTORE PUSH1 0x20 PUSH1 0x0 KECCAK256 SWAP1 PUSH1 0x9 MUL ADD PUSH1 0x8 ADD PUSH1 0x0 DUP4 PUSH20 0xFFFFFFFFFFFFFFFFFFFFFFFFFFFFFFFFFFFFFFFF AND PUSH20 0xFFFFFFFFFFFFFFFFFFFFFFFFFFFFFFFFFFFFFFFF AND DUP2 MSTORE PUSH1 0x20 ADD SWAP1 DUP2 MSTORE PUSH1 0x20 ADD PUSH1 0x0 KECCAK256 SLOAD SWAP1 POP SWAP4 SWAP3 POP POP POP JUMP JUMPDEST PUSH1 0xA PUSH1 0x20 MSTORE DUP1 PUSH1 0x0 MSTORE PUSH1 0x40 PUSH1 0x0 KECCAK256 PUSH1 0x0 SWAP2 POP SWAP1 POP SLOAD DUP2 JUMP JUMPDEST PUSH1 0x1 PUSH1 0x7 PUSH1 0x0 CALLER PUSH20 0xFFFFFFFFFFFFFFFFFFFFFFFFFFFFFFFFFFFFFFFF AND PUSH20 0xFFFFFFFFFFFFFFFFFFFFFFFFFFFFFFFFFFFFFFFF AND DUP2 MSTORE PUSH1 0x20 ADD SWAP1 DUP2 MSTORE PUSH1 0x20 ADD PUSH1 0x0 KECCAK256 DUP4 DUP2 SLOAD DUP2 LT PUSH2 0x19E2 JUMPI INVALID JUMPDEST SWAP1 PUSH1 0x0 MSTORE PUSH1 0x20 PUSH1 0x0 KECCAK256 SWAP1 PUSH1 0x9 MUL ADD PUSH1 0x4 ADD SLOAD EQ PUSH2 0x1A67 JUMPI PUSH1 0x40 MLOAD PUSH32 0x8C379A000000000000000000000000000000000000000000000000000000000 DUP2 MSTORE PUSH1 0x4 ADD DUP1 DUP1 PUSH1 0x20 ADD DUP3 DUP2 SUB DUP3 MSTORE PUSH1 0x15 DUP2 MSTORE PUSH1 0x20 ADD DUP1 PUSH32 0x7374616B696E672073686F756C64206163746976650000000000000000000000 DUP2 MSTORE POP PUSH1 0x20 ADD SWAP2 POP POP PUSH1 0x40 MLOAD DUP1 SWAP2 SUB SWAP1 REVERT JUMPDEST PUSH1 0x0 PUSH1 0x7 PUSH1 0x0 CALLER PUSH20 0xFFFFFFFFFFFFFFFFFFFFFFFFFFFFFFFFFFFFFFFF AND PUSH20 0xFFFFFFFFFFFFFFFFFFFFFFFFFFFFFFFFFFFFFFFF AND DUP2 MSTORE PUSH1 0x20 ADD SWAP1 DUP2 MSTORE PUSH1 0x20 ADD PUSH1 0x0 KECCAK256 DUP4 DUP2 SLOAD DUP2 LT PUSH2 0x1AB3 JUMPI INVALID JUMPDEST SWAP1 PUSH1 0x0 MSTORE PUSH1 0x20 PUSH1 0x0 KECCAK256 SWAP1 PUSH1 0x9 MUL ADD PUSH1 0x8 ADD PUSH1 0x0 CALLER PUSH20 0xFFFFFFFFFFFFFFFFFFFFFFFFFFFFFFFFFFFFFFFF AND PUSH20 0xFFFFFFFFFFFFFFFFFFFFFFFFFFFFFFFFFFFFFFFF AND DUP2 MSTORE PUSH1 0x20 ADD SWAP1 DUP2 MSTORE PUSH1 0x20 ADD PUSH1 0x0 KECCAK256 SLOAD SWAP1 POP PUSH1 0x0 PUSH1 0x7 PUSH1 0x0 CALLER PUSH20 0xFFFFFFFFFFFFFFFFFFFFFFFFFFFFFFFFFFFFFFFF AND PUSH20 0xFFFFFFFFFFFFFFFFFFFFFFFFFFFFFFFFFFFFFFFF AND DUP2 MSTORE PUSH1 0x20 ADD SWAP1 DUP2 MSTORE PUSH1 0x20 ADD PUSH1 0x0 KECCAK256 DUP5 DUP2 SLOAD DUP2 LT PUSH2 0x1B50 JUMPI INVALID JUMPDEST SWAP1 PUSH1 0x0 MSTORE PUSH1 0x20 PUSH1 0x0 KECCAK256 SWAP1 PUSH1 0x9 MUL ADD PUSH1 0x8 ADD PUSH1 0x0 DUP5 PUSH20 0xFFFFFFFFFFFFFFFFFFFFFFFFFFFFFFFFFFFFFFFF AND PUSH20 0xFFFFFFFFFFFFFFFFFFFFFFFFFFFFFFFFFFFFFFFF AND DUP2 MSTORE PUSH1 0x20 ADD SWAP1 DUP2 MSTORE PUSH1 0x20 ADD PUSH1 0x0 KECCAK256 DUP2 SWAP1 SSTORE POP PUSH2 0x1C10 DUP2 PUSH1 0x7 PUSH1 0x0 CALLER PUSH20 0xFFFFFFFFFFFFFFFFFFFFFFFFFFFFFFFFFFFFFFFF AND PUSH20 0xFFFFFFFFFFFFFFFFFFFFFFFFFFFFFFFFFFFFFFFF AND DUP2 MSTORE PUSH1 0x20 ADD SWAP1 DUP2 MSTORE PUSH1 0x20 ADD PUSH1 0x0 KECCAK256 DUP6 DUP2 SLOAD DUP2 LT PUSH2 0x1BF0 JUMPI INVALID JUMPDEST SWAP1 PUSH1 0x0 MSTORE PUSH1 0x20 PUSH1 0x0 KECCAK256 SWAP1 PUSH1 0x9 MUL ADD PUSH1 0x6 ADD SLOAD PUSH2 0x591F SWAP1 SWAP2 SWAP1 PUSH4 0xFFFFFFFF AND JUMP JUMPDEST PUSH1 0x7 PUSH1 0x0 CALLER PUSH20 0xFFFFFFFFFFFFFFFFFFFFFFFFFFFFFFFFFFFFFFFF AND PUSH20 0xFFFFFFFFFFFFFFFFFFFFFFFFFFFFFFFFFFFFFFFF AND DUP2 MSTORE PUSH1 0x20 ADD SWAP1 DUP2 MSTORE PUSH1 0x20 ADD PUSH1 0x0 KECCAK256 DUP5 DUP2 SLOAD DUP2 LT PUSH2 0x1C5A JUMPI INVALID JUMPDEST SWAP1 PUSH1 0x0 MSTORE PUSH1 0x20 PUSH1 0x0 KECCAK256 SWAP1 PUSH1 0x9 MUL ADD PUSH1 0x6 ADD DUP2 SWAP1 SSTORE POP POP POP POP JUMP JUMPDEST PUSH1 0x2 PUSH1 0x0 SWAP1 SLOAD SWAP1 PUSH2 0x100 EXP SWAP1 DIV PUSH20 0xFFFFFFFFFFFFFFFFFFFFFFFFFFFFFFFFFFFFFFFF AND PUSH20 0xFFFFFFFFFFFFFFFFFFFFFFFFFFFFFFFFFFFFFFFF AND PUSH4 0x23B872DD CALLER ADDRESS DUP5 PUSH1 0x40 MLOAD DUP5 PUSH4 0xFFFFFFFF AND PUSH1 0xE0 SHL DUP2 MSTORE PUSH1 0x4 ADD DUP1 DUP5 PUSH20 0xFFFFFFFFFFFFFFFFFFFFFFFFFFFFFFFFFFFFFFFF AND PUSH20 0xFFFFFFFFFFFFFFFFFFFFFFFFFFFFFFFFFFFFFFFF AND DUP2 MSTORE PUSH1 0x20 ADD DUP4 PUSH20 0xFFFFFFFFFFFFFFFFFFFFFFFFFFFFFFFFFFFFFFFF AND PUSH20 0xFFFFFFFFFFFFFFFFFFFFFFFFFFFFFFFFFFFFFFFF AND DUP2 MSTORE PUSH1 0x20 ADD DUP3 DUP2 MSTORE PUSH1 0x20 ADD SWAP4 POP POP POP POP PUSH1 0x20 PUSH1 0x40 MLOAD DUP1 DUP4 SUB DUP2 PUSH1 0x0 DUP8 DUP1 EXTCODESIZE ISZERO DUP1 ISZERO PUSH2 0x1D51 JUMPI PUSH1 0x0 DUP1 REVERT JUMPDEST POP GAS CALL ISZERO DUP1 ISZERO PUSH2 0x1D65 JUMPI RETURNDATASIZE PUSH1 0x0 DUP1 RETURNDATACOPY RETURNDATASIZE PUSH1 0x0 REVERT JUMPDEST POP POP POP POP PUSH1 0x40 MLOAD RETURNDATASIZE PUSH1 0x20 DUP2 LT ISZERO PUSH2 0x1D7B JUMPI PUSH1 0x0 DUP1 REVERT JUMPDEST DUP2 ADD SWAP1 DUP1 DUP1 MLOAD SWAP1 PUSH1 0x20 ADD SWAP1 SWAP3 SWAP2 SWAP1 POP POP POP PUSH2 0x1D95 JUMPI PUSH1 0x0 DUP1 REVERT JUMPDEST PUSH2 0x1DE7 DUP2 PUSH1 0x9 PUSH1 0x0 CALLER PUSH20 0xFFFFFFFFFFFFFFFFFFFFFFFFFFFFFFFFFFFFFFFF AND PUSH20 0xFFFFFFFFFFFFFFFFFFFFFFFFFFFFFFFFFFFFFFFF AND DUP2 MSTORE PUSH1 0x20 ADD SWAP1 DUP2 MSTORE PUSH1 0x20 ADD PUSH1 0x0 KECCAK256 SLOAD PUSH2 0x5900 SWAP1 SWAP2 SWAP1 PUSH4 0xFFFFFFFF AND JUMP JUMPDEST PUSH1 0x9 PUSH1 0x0 CALLER PUSH20 0xFFFFFFFFFFFFFFFFFFFFFFFFFFFFFFFFFFFFFFFF AND PUSH20 0xFFFFFFFFFFFFFFFFFFFFFFFFFFFFFFFFFFFFFFFF AND DUP2 MSTORE PUSH1 0x20 ADD SWAP1 DUP2 MSTORE PUSH1 0x20 ADD PUSH1 0x0 KECCAK256 DUP2 SWAP1 SSTORE POP POP JUMP JUMPDEST PUSH1 0x4 SLOAD DUP2 JUMP JUMPDEST PUSH1 0x5 DUP2 DUP2 SLOAD DUP2 LT PUSH2 0x1E40 JUMPI INVALID JUMPDEST SWAP1 PUSH1 0x0 MSTORE PUSH1 0x20 PUSH1 0x0 KECCAK256 SWAP1 PUSH1 0x3 MUL ADD PUSH1 0x0 SWAP2 POP SWAP1 POP DUP1 PUSH1 0x0 ADD SLOAD SWAP1 DUP1 PUSH1 0x1 ADD SLOAD SWAP1 DUP1 PUSH1 0x2 ADD PUSH1 0x0 SWAP1 SLOAD SWAP1 PUSH2 0x100 EXP SWAP1 DIV PUSH1 0xFF AND SWAP1 POP DUP4 JUMP JUMPDEST PUSH1 0x1 PUSH1 0x0 SWAP1 SLOAD SWAP1 PUSH2 0x100 EXP SWAP1 DIV PUSH20 0xFFFFFFFFFFFFFFFFFFFFFFFFFFFFFFFFFFFFFFFF AND PUSH20 0xFFFFFFFFFFFFFFFFFFFFFFFFFFFFFFFFFFFFFFFF AND CALLER PUSH20 0xFFFFFFFFFFFFFFFFFFFFFFFFFFFFFFFFFFFFFFFF AND EQ PUSH2 0x1ED1 JUMPI PUSH1 0x0 DUP1 REVERT JUMPDEST PUSH1 0x5 PUSH1 0x40 MLOAD DUP1 PUSH1 0x60 ADD PUSH1 0x40 MSTORE DUP1 DUP6 DUP2 MSTORE PUSH1 0x20 ADD DUP5 DUP2 MSTORE PUSH1 0x20 ADD DUP4 ISZERO ISZERO DUP2 MSTORE POP SWAP1 DUP1 PUSH1 0x1 DUP2 SLOAD ADD DUP1 DUP3 SSTORE DUP1 SWAP2 POP POP SWAP1 PUSH1 0x1 DUP3 SUB SWAP1 PUSH1 0x0 MSTORE PUSH1 0x20 PUSH1 0x0 KECCAK256 SWAP1 PUSH1 0x3 MUL ADD PUSH1 0x0 SWAP1 SWAP2 SWAP3 SWAP1 SWAP2 SWAP1 SWAP2 POP PUSH1 0x0 DUP3 ADD MLOAD DUP2 PUSH1 0x0 ADD SSTORE PUSH1 0x20 DUP3 ADD MLOAD DUP2 PUSH1 0x1 ADD SSTORE PUSH1 0x40 DUP3 ADD MLOAD DUP2 PUSH1 0x2 ADD PUSH1 0x0 PUSH2 0x100 EXP DUP2 SLOAD DUP2 PUSH1 0xFF MUL NOT AND SWAP1 DUP4 ISZERO ISZERO MUL OR SWAP1 SSTORE POP POP POP POP POP POP POP JUMP JUMPDEST PUSH1 0x9 PUSH1 0x20 MSTORE DUP1 PUSH1 0x0 MSTORE PUSH1 0x40 PUSH1 0x0 KECCAK256 PUSH1 0x0 SWAP2 POP SWAP1 POP SLOAD DUP2 JUMP JUMPDEST PUSH1 0x1 PUSH1 0x0 SWAP1 SLOAD SWAP1 PUSH2 0x100 EXP SWAP1 DIV PUSH20 0xFFFFFFFFFFFFFFFFFFFFFFFFFFFFFFFFFFFFFFFF AND PUSH20 0xFFFFFFFFFFFFFFFFFFFFFFFFFFFFFFFFFFFFFFFF AND CALLER PUSH20 0xFFFFFFFFFFFFFFFFFFFFFFFFFFFFFFFFFFFFFFFF AND EQ PUSH2 0x1FC9 JUMPI PUSH1 0x0 DUP1 REVERT JUMPDEST PUSH1 0x0 DUP1 SWAP1 POP JUMPDEST DUP3 MLOAD DUP2 LT ISZERO PUSH2 0x215B JUMPI PUSH2 0x203D DUP3 DUP3 DUP2 MLOAD DUP2 LT PUSH2 0x1FE7 JUMPI INVALID JUMPDEST PUSH1 0x20 MUL PUSH1 0x20 ADD ADD MLOAD PUSH1 0x9 PUSH1 0x0 CALLER PUSH20 0xFFFFFFFFFFFFFFFFFFFFFFFFFFFFFFFFFFFFFFFF AND PUSH20 0xFFFFFFFFFFFFFFFFFFFFFFFFFFFFFFFFFFFFFFFF AND DUP2 MSTORE PUSH1 0x20 ADD SWAP1 DUP2 MSTORE PUSH1 0x20 ADD PUSH1 0x0 KECCAK256 SLOAD PUSH2 0x591F SWAP1 SWAP2 SWAP1 PUSH4 0xFFFFFFFF AND JUMP JUMPDEST PUSH1 0x9 PUSH1 0x0 CALLER PUSH20 0xFFFFFFFFFFFFFFFFFFFFFFFFFFFFFFFFFFFFFFFF AND PUSH20 0xFFFFFFFFFFFFFFFFFFFFFFFFFFFFFFFFFFFFFFFF AND DUP2 MSTORE PUSH1 0x20 ADD SWAP1 DUP2 MSTORE PUSH1 0x20 ADD PUSH1 0x0 KECCAK256 DUP2 SWAP1 SSTORE POP PUSH2 0x20F8 DUP3 DUP3 DUP2 MLOAD DUP2 LT PUSH2 0x208F JUMPI INVALID JUMPDEST PUSH1 0x20 MUL PUSH1 0x20 ADD ADD MLOAD PUSH1 0x9 PUSH1 0x0 DUP7 DUP6 DUP2 MLOAD DUP2 LT PUSH2 0x20A7 JUMPI INVALID JUMPDEST PUSH1 0x20 MUL PUSH1 0x20 ADD ADD MLOAD PUSH20 0xFFFFFFFFFFFFFFFFFFFFFFFFFFFFFFFFFFFFFFFF AND PUSH20 0xFFFFFFFFFFFFFFFFFFFFFFFFFFFFFFFFFFFFFFFF AND DUP2 MSTORE PUSH1 0x20 ADD SWAP1 DUP2 MSTORE PUSH1 0x20 ADD PUSH1 0x0 KECCAK256 SLOAD PUSH2 0x5900 SWAP1 SWAP2 SWAP1 PUSH4 0xFFFFFFFF AND JUMP JUMPDEST PUSH1 0x9 PUSH1 0x0 DUP6 DUP5 DUP2 MLOAD DUP2 LT PUSH2 0x2108 JUMPI INVALID JUMPDEST PUSH1 0x20 MUL PUSH1 0x20 ADD ADD MLOAD PUSH20 0xFFFFFFFFFFFFFFFFFFFFFFFFFFFFFFFFFFFFFFFF AND PUSH20 0xFFFFFFFFFFFFFFFFFFFFFFFFFFFFFFFFFFFFFFFF AND DUP2 MSTORE PUSH1 0x20 ADD SWAP1 DUP2 MSTORE PUSH1 0x20 ADD PUSH1 0x0 KECCAK256 DUP2 SWAP1 SSTORE POP DUP1 DUP1 PUSH1 0x1 ADD SWAP2 POP POP PUSH2 0x1FCF JUMP JUMPDEST POP POP POP JUMP JUMPDEST PUSH1 0x1 PUSH1 0x0 SWAP1 SLOAD SWAP1 PUSH2 0x100 EXP SWAP1 DIV PUSH20 0xFFFFFFFFFFFFFFFFFFFFFFFFFFFFFFFFFFFFFFFF AND DUP2 JUMP JUMPDEST PUSH1 0x0 TIMESTAMP SWAP1 POP PUSH1 0x4 SLOAD PUSH1 0xC MUL PUSH1 0x4 SLOAD PUSH1 0x5 PUSH1 0x7 PUSH1 0x0 DUP8 PUSH20 0xFFFFFFFFFFFFFFFFFFFFFFFFFFFFFFFFFFFFFFFF AND PUSH20 0xFFFFFFFFFFFFFFFFFFFFFFFFFFFFFFFFFFFFFFFF AND DUP2 MSTORE PUSH1 0x20 ADD SWAP1 DUP2 MSTORE PUSH1 0x20 ADD PUSH1 0x0 KECCAK256 DUP6 DUP2 SLOAD DUP2 LT PUSH2 0x21E0 JUMPI INVALID JUMPDEST SWAP1 PUSH1 0x0 MSTORE PUSH1 0x20 PUSH1 0x0 KECCAK256 SWAP1 PUSH1 0x9 MUL ADD PUSH1 0x3 ADD SLOAD DUP2 SLOAD DUP2 LT PUSH2 0x21FC JUMPI INVALID JUMPDEST SWAP1 PUSH1 0x0 MSTORE PUSH1 0x20 PUSH1 0x0 KECCAK256 SWAP1 PUSH1 0x3 MUL ADD PUSH1 0x0 ADD SLOAD MUL PUSH1 0x7 PUSH1 0x0 DUP7 PUSH20 0xFFFFFFFFFFFFFFFFFFFFFFFFFFFFFFFFFFFFFFFF AND PUSH20 0xFFFFFFFFFFFFFFFFFFFFFFFFFFFFFFFFFFFFFFFF AND DUP2 MSTORE PUSH1 0x20 ADD SWAP1 DUP2 MSTORE PUSH1 0x20 ADD PUSH1 0x0 KECCAK256 DUP5 DUP2 SLOAD DUP2 LT PUSH2 0x2259 JUMPI INVALID JUMPDEST SWAP1 PUSH1 0x0 MSTORE PUSH1 0x20 PUSH1 0x0 KECCAK256 SWAP1 PUSH1 0x9 MUL ADD PUSH1 0x1 ADD SLOAD ADD ADD DUP2 GT PUSH2 0x2278 JUMPI PUSH1 0x0 DUP1 REVERT JUMPDEST PUSH1 0x0 PUSH1 0x7 PUSH1 0x0 DUP6 PUSH20 0xFFFFFFFFFFFFFFFFFFFFFFFFFFFFFFFFFFFFFFFF AND PUSH20 0xFFFFFFFFFFFFFFFFFFFFFFFFFFFFFFFFFFFFFFFF AND DUP2 MSTORE PUSH1 0x20 ADD SWAP1 DUP2 MSTORE PUSH1 0x20 ADD PUSH1 0x0 KECCAK256 DUP4 DUP2 SLOAD DUP2 LT PUSH2 0x22C4 JUMPI INVALID JUMPDEST SWAP1 PUSH1 0x0 MSTORE PUSH1 0x20 PUSH1 0x0 KECCAK256 SWAP1 PUSH1 0x9 MUL ADD PUSH1 0x8 ADD PUSH1 0x0 CALLER PUSH20 0xFFFFFFFFFFFFFFFFFFFFFFFFFFFFFFFFFFFFFFFF AND PUSH20 0xFFFFFFFFFFFFFFFFFFFFFFFFFFFFFFFFFFFFFFFF AND DUP2 MSTORE PUSH1 0x20 ADD SWAP1 DUP2 MSTORE PUSH1 0x20 ADD PUSH1 0x0 KECCAK256 SLOAD SWAP1 POP PUSH1 0x0 DUP2 GT PUSH2 0x2322 JUMPI PUSH1 0x0 DUP1 REVERT JUMPDEST PUSH1 0x5 PUSH1 0x7 PUSH1 0x0 DUP7 PUSH20 0xFFFFFFFFFFFFFFFFFFFFFFFFFFFFFFFFFFFFFFFF AND PUSH20 0xFFFFFFFFFFFFFFFFFFFFFFFFFFFFFFFFFFFFFFFF AND DUP2 MSTORE PUSH1 0x20 ADD SWAP1 DUP2 MSTORE PUSH1 0x20 ADD PUSH1 0x0 KECCAK256 DUP5 DUP2 SLOAD DUP2 LT PUSH2 0x236E JUMPI INVALID JUMPDEST SWAP1 PUSH1 0x0 MSTORE PUSH1 0x20 PUSH1 0x0 KECCAK256 SWAP1 PUSH1 0x9 MUL ADD PUSH1 0x4 ADD SLOAD EQ PUSH2 0x23E7 JUMPI PUSH1 0x5 PUSH1 0x7 PUSH1 0x0 DUP7 PUSH20 0xFFFFFFFFFFFFFFFFFFFFFFFFFFFFFFFFFFFFFFFF AND PUSH20 0xFFFFFFFFFFFFFFFFFFFFFFFFFFFFFFFFFFFFFFFF AND DUP2 MSTORE PUSH1 0x20 ADD SWAP1 DUP2 MSTORE PUSH1 0x20 ADD PUSH1 0x0 KECCAK256 DUP5 DUP2 SLOAD DUP2 LT PUSH2 0x23D1 JUMPI INVALID JUMPDEST SWAP1 PUSH1 0x0 MSTORE PUSH1 0x20 PUSH1 0x0 KECCAK256 SWAP1 PUSH1 0x9 MUL ADD PUSH1 0x4 ADD DUP2 SWAP1 SSTORE POP JUMPDEST PUSH1 0x0 PUSH1 0x7 PUSH1 0x0 DUP7 PUSH20 0xFFFFFFFFFFFFFFFFFFFFFFFFFFFFFFFFFFFFFFFF AND PUSH20 0xFFFFFFFFFFFFFFFFFFFFFFFFFFFFFFFFFFFFFFFF AND DUP2 MSTORE PUSH1 0x20 ADD SWAP1 DUP2 MSTORE PUSH1 0x20 ADD PUSH1 0x0 KECCAK256 DUP5 DUP2 SLOAD DUP2 LT PUSH2 0x2433 JUMPI INVALID JUMPDEST SWAP1 PUSH1 0x0 MSTORE PUSH1 0x20 PUSH1 0x0 KECCAK256 SWAP1 PUSH1 0x9 MUL ADD PUSH1 0x0 ADD SLOAD SWAP1 POP PUSH1 0x0 DUP1 PUSH1 0x5 PUSH1 0x7 PUSH1 0x0 DUP10 PUSH20 0xFFFFFFFFFFFFFFFFFFFFFFFFFFFFFFFFFFFFFFFF AND PUSH20 0xFFFFFFFFFFFFFFFFFFFFFFFFFFFFFFFFFFFFFFFF AND DUP2 MSTORE PUSH1 0x20 ADD SWAP1 DUP2 MSTORE PUSH1 0x20 ADD PUSH1 0x0 KECCAK256 DUP8 DUP2 SLOAD DUP2 LT PUSH2 0x2496 JUMPI INVALID JUMPDEST SWAP1 PUSH1 0x0 MSTORE PUSH1 0x20 PUSH1 0x0 KECCAK256 SWAP1 PUSH1 0x9 MUL ADD PUSH1 0x3 ADD SLOAD DUP2 SLOAD DUP2 LT PUSH2 0x24B2 JUMPI INVALID JUMPDEST SWAP1 PUSH1 0x0 MSTORE PUSH1 0x20 PUSH1 0x0 KECCAK256 SWAP1 PUSH1 0x3 MUL ADD PUSH1 0x0 ADD SLOAD PUSH1 0x7 PUSH1 0x0 DUP10 PUSH20 0xFFFFFFFFFFFFFFFFFFFFFFFFFFFFFFFFFFFFFFFF AND PUSH20 0xFFFFFFFFFFFFFFFFFFFFFFFFFFFFFFFFFFFFFFFF AND DUP2 MSTORE PUSH1 0x20 ADD SWAP1 DUP2 MSTORE PUSH1 0x20 ADD PUSH1 0x0 KECCAK256 DUP8 DUP2 SLOAD DUP2 LT PUSH2 0x250E JUMPI INVALID JUMPDEST SWAP1 PUSH1 0x0 MSTORE PUSH1 0x20 PUSH1 0x0 KECCAK256 SWAP1 PUSH1 0x9 MUL ADD PUSH1 0x2 ADD SLOAD ADD SWAP1 POP PUSH1 0x0 PUSH1 0x7 PUSH1 0x0 DUP10 PUSH20 0xFFFFFFFFFFFFFFFFFFFFFFFFFFFFFFFFFFFFFFFF AND PUSH20 0xFFFFFFFFFFFFFFFFFFFFFFFFFFFFFFFFFFFFFFFF AND DUP2 MSTORE PUSH1 0x20 ADD SWAP1 DUP2 MSTORE PUSH1 0x20 ADD PUSH1 0x0 KECCAK256 DUP8 DUP2 SLOAD DUP2 LT PUSH2 0x256F JUMPI INVALID JUMPDEST SWAP1 PUSH1 0x0 MSTORE PUSH1 0x20 PUSH1 0x0 KECCAK256 SWAP1 PUSH1 0x9 MUL ADD PUSH1 0x2 ADD SLOAD SWAP1 POP JUMPDEST DUP2 DUP2 LT ISZERO PUSH2 0x27BC JUMPI PUSH1 0x7 PUSH1 0x0 DUP10 PUSH20 0xFFFFFFFFFFFFFFFFFFFFFFFFFFFFFFFFFFFFFFFF AND PUSH20 0xFFFFFFFFFFFFFFFFFFFFFFFFFFFFFFFFFFFFFFFF AND DUP2 MSTORE PUSH1 0x20 ADD SWAP1 DUP2 MSTORE PUSH1 0x20 ADD PUSH1 0x0 KECCAK256 DUP8 DUP2 SLOAD DUP2 LT PUSH2 0x25D6 JUMPI INVALID JUMPDEST SWAP1 PUSH1 0x0 MSTORE PUSH1 0x20 PUSH1 0x0 KECCAK256 SWAP1 PUSH1 0x9 MUL ADD PUSH1 0x7 ADD PUSH1 0x0 DUP3 DUP2 MSTORE PUSH1 0x20 ADD SWAP1 DUP2 MSTORE PUSH1 0x20 ADD PUSH1 0x0 KECCAK256 PUSH1 0x0 SWAP1 SLOAD SWAP1 PUSH2 0x100 EXP SWAP1 DIV PUSH1 0xFF AND ISZERO PUSH2 0x27AF JUMPI PUSH1 0x0 PUSH2 0x2707 PUSH1 0xF PUSH2 0x26F9 PUSH1 0x5 PUSH1 0x7 PUSH1 0x0 DUP15 PUSH20 0xFFFFFFFFFFFFFFFFFFFFFFFFFFFFFFFFFFFFFFFF AND PUSH20 0xFFFFFFFFFFFFFFFFFFFFFFFFFFFFFFFFFFFFFFFF AND DUP2 MSTORE PUSH1 0x20 ADD SWAP1 DUP2 MSTORE PUSH1 0x20 ADD PUSH1 0x0 KECCAK256 DUP13 DUP2 SLOAD DUP2 LT PUSH2 0x2661 JUMPI INVALID JUMPDEST SWAP1 PUSH1 0x0 MSTORE PUSH1 0x20 PUSH1 0x0 KECCAK256 SWAP1 PUSH1 0x9 MUL ADD PUSH1 0x3 ADD SLOAD DUP2 SLOAD DUP2 LT PUSH2 0x267D JUMPI INVALID JUMPDEST SWAP1 PUSH1 0x0 MSTORE PUSH1 0x20 PUSH1 0x0 KECCAK256 SWAP1 PUSH1 0x3 MUL ADD PUSH1 0x1 ADD SLOAD PUSH1 0x7 PUSH1 0x0 DUP15 PUSH20 0xFFFFFFFFFFFFFFFFFFFFFFFFFFFFFFFFFFFFFFFF AND PUSH20 0xFFFFFFFFFFFFFFFFFFFFFFFFFFFFFFFFFFFFFFFF AND DUP2 MSTORE PUSH1 0x20 ADD SWAP1 DUP2 MSTORE PUSH1 0x20 ADD PUSH1 0x0 KECCAK256 DUP13 DUP2 SLOAD DUP2 LT PUSH2 0x26D9 JUMPI INVALID JUMPDEST SWAP1 PUSH1 0x0 MSTORE PUSH1 0x20 PUSH1 0x0 KECCAK256 SWAP1 PUSH1 0x9 MUL ADD PUSH1 0x0 ADD SLOAD PUSH2 0x58C6 SWAP1 SWAP2 SWAP1 PUSH4 0xFFFFFFFF AND JUMP JUMPDEST PUSH2 0x593F SWAP1 SWAP2 SWAP1 PUSH4 0xFFFFFFFF AND JUMP JUMPDEST SWAP1 POP PUSH1 0x0 PUSH2 0x275A PUSH1 0xA PUSH1 0x0 DUP6 DUP2 MSTORE PUSH1 0x20 ADD SWAP1 DUP2 MSTORE PUSH1 0x20 ADD PUSH1 0x0 KECCAK256 SLOAD PUSH2 0x274C PUSH1 0xB DUP7 DUP2 SLOAD DUP2 LT PUSH2 0x2732 JUMPI INVALID JUMPDEST SWAP1 PUSH1 0x0 MSTORE PUSH1 0x20 PUSH1 0x0 KECCAK256 ADD SLOAD DUP6 PUSH2 0x58C6 SWAP1 SWAP2 SWAP1 PUSH4 0xFFFFFFFF AND JUMP JUMPDEST PUSH2 0x593F SWAP1 SWAP2 SWAP1 PUSH4 0xFFFFFFFF AND JUMP JUMPDEST SWAP1 POP PUSH2 0x2782 PUSH2 0x2773 PUSH1 0x2 DUP4 PUSH2 0x593F SWAP1 SWAP2 SWAP1 PUSH4 0xFFFFFFFF AND JUMP JUMPDEST DUP8 PUSH2 0x5900 SWAP1 SWAP2 SWAP1 PUSH4 0xFFFFFFFF AND JUMP JUMPDEST SWAP6 POP PUSH2 0x27AA PUSH2 0x279B PUSH1 0x2 DUP4 PUSH2 0x593F SWAP1 SWAP2 SWAP1 PUSH4 0xFFFFFFFF AND JUMP JUMPDEST DUP7 PUSH2 0x5900 SWAP1 SWAP2 SWAP1 PUSH4 0xFFFFFFFF AND JUMP JUMPDEST SWAP5 POP POP POP JUMPDEST DUP1 DUP1 PUSH1 0x1 ADD SWAP2 POP POP PUSH2 0x2584 JUMP JUMPDEST POP PUSH1 0x0 PUSH1 0x7 PUSH1 0x0 DUP10 PUSH20 0xFFFFFFFFFFFFFFFFFFFFFFFFFFFFFFFFFFFFFFFF AND PUSH20 0xFFFFFFFFFFFFFFFFFFFFFFFFFFFFFFFFFFFFFFFF AND DUP2 MSTORE PUSH1 0x20 ADD SWAP1 DUP2 MSTORE PUSH1 0x20 ADD PUSH1 0x0 KECCAK256 DUP8 DUP2 SLOAD DUP2 LT PUSH2 0x2809 JUMPI INVALID JUMPDEST SWAP1 PUSH1 0x0 MSTORE PUSH1 0x20 PUSH1 0x0 KECCAK256 SWAP1 PUSH1 0x9 MUL ADD PUSH1 0x8 ADD PUSH1 0x0 CALLER PUSH20 0xFFFFFFFFFFFFFFFFFFFFFFFFFFFFFFFFFFFFFFFF AND PUSH20 0xFFFFFFFFFFFFFFFFFFFFFFFFFFFFFFFFFFFFFFFF AND DUP2 MSTORE PUSH1 0x20 ADD SWAP1 DUP2 MSTORE PUSH1 0x20 ADD PUSH1 0x0 KECCAK256 DUP2 SWAP1 SSTORE POP PUSH1 0x0 PUSH2 0x28DD PUSH1 0x7 PUSH1 0x0 DUP11 PUSH20 0xFFFFFFFFFFFFFFFFFFFFFFFFFFFFFFFFFFFFFFFF AND PUSH20 0xFFFFFFFFFFFFFFFFFFFFFFFFFFFFFFFFFFFFFFFF AND DUP2 MSTORE PUSH1 0x20 ADD SWAP1 DUP2 MSTORE PUSH1 0x20 ADD PUSH1 0x0 KECCAK256 DUP9 DUP2 SLOAD DUP2 LT PUSH2 0x28AA JUMPI INVALID JUMPDEST SWAP1 PUSH1 0x0 MSTORE PUSH1 0x20 PUSH1 0x0 KECCAK256 SWAP1 PUSH1 0x9 MUL ADD PUSH1 0x6 ADD SLOAD PUSH2 0x28CF DUP8 DUP8 PUSH2 0x58C6 SWAP1 SWAP2 SWAP1 PUSH4 0xFFFFFFFF AND JUMP JUMPDEST PUSH2 0x593F SWAP1 SWAP2 SWAP1 PUSH4 0xFFFFFFFF AND JUMP JUMPDEST SWAP1 POP PUSH1 0x2 PUSH1 0x0 SWAP1 SLOAD SWAP1 PUSH2 0x100 EXP SWAP1 DIV PUSH20 0xFFFFFFFFFFFFFFFFFFFFFFFFFFFFFFFFFFFFFFFF AND PUSH20 0xFFFFFFFFFFFFFFFFFFFFFFFFFFFFFFFFFFFFFFFF AND PUSH4 0xA9059CBB CALLER DUP4 PUSH1 0x40 MLOAD DUP4 PUSH4 0xFFFFFFFF AND PUSH1 0xE0 SHL DUP2 MSTORE PUSH1 0x4 ADD DUP1 DUP4 PUSH20 0xFFFFFFFFFFFFFFFFFFFFFFFFFFFFFFFFFFFFFFFF AND PUSH20 0xFFFFFFFFFFFFFFFFFFFFFFFFFFFFFFFFFFFFFFFF AND DUP2 MSTORE PUSH1 0x20 ADD DUP3 DUP2 MSTORE PUSH1 0x20 ADD SWAP3 POP POP POP PUSH1 0x20 PUSH1 0x40 MLOAD DUP1 DUP4 SUB DUP2 PUSH1 0x0 DUP8 DUP1 EXTCODESIZE ISZERO DUP1 ISZERO PUSH2 0x2988 JUMPI PUSH1 0x0 DUP1 REVERT JUMPDEST POP GAS CALL ISZERO DUP1 ISZERO PUSH2 0x299C JUMPI RETURNDATASIZE PUSH1 0x0 DUP1 RETURNDATACOPY RETURNDATASIZE PUSH1 0x0 REVERT JUMPDEST POP POP POP POP PUSH1 0x40 MLOAD RETURNDATASIZE PUSH1 0x20 DUP2 LT ISZERO PUSH2 0x29B2 JUMPI PUSH1 0x0 DUP1 REVERT JUMPDEST DUP2 ADD SWAP1 DUP1 DUP1 MLOAD SWAP1 PUSH1 0x20 ADD SWAP1 SWAP3 SWAP2 SWAP1 POP POP POP POP PUSH1 0x0 PUSH2 0x2A46 PUSH1 0x7 PUSH1 0x0 DUP12 PUSH20 0xFFFFFFFFFFFFFFFFFFFFFFFFFFFFFFFFFFFFFFFF AND PUSH20 0xFFFFFFFFFFFFFFFFFFFFFFFFFFFFFFFFFFFFFFFF AND DUP2 MSTORE PUSH1 0x20 ADD SWAP1 DUP2 MSTORE PUSH1 0x20 ADD PUSH1 0x0 KECCAK256 DUP10 DUP2 SLOAD DUP2 LT PUSH2 0x2A13 JUMPI INVALID JUMPDEST SWAP1 PUSH1 0x0 MSTORE PUSH1 0x20 PUSH1 0x0 KECCAK256 SWAP1 PUSH1 0x9 MUL ADD PUSH1 0x6 ADD SLOAD PUSH2 0x2A38 DUP9 DUP8 PUSH2 0x58C6 SWAP1 SWAP2 SWAP1 PUSH4 0xFFFFFFFF AND JUMP JUMPDEST PUSH2 0x593F SWAP1 SWAP2 SWAP1 PUSH4 0xFFFFFFFF AND JUMP JUMPDEST SWAP1 POP PUSH2 0x2A9A DUP2 PUSH1 0x9 PUSH1 0x0 CALLER PUSH20 0xFFFFFFFFFFFFFFFFFFFFFFFFFFFFFFFFFFFFFFFF AND PUSH20 0xFFFFFFFFFFFFFFFFFFFFFFFFFFFFFFFFFFFFFFFF AND DUP2 MSTORE PUSH1 0x20 ADD SWAP1 DUP2 MSTORE PUSH1 0x20 ADD PUSH1 0x0 KECCAK256 SLOAD PUSH2 0x5900 SWAP1 SWAP2 SWAP1 PUSH4 0xFFFFFFFF AND JUMP JUMPDEST PUSH1 0x9 PUSH1 0x0 CALLER PUSH20 0xFFFFFFFFFFFFFFFFFFFFFFFFFFFFFFFFFFFFFFFF AND PUSH20 0xFFFFFFFFFFFFFFFFFFFFFFFFFFFFFFFFFFFFFFFF AND DUP2 MSTORE PUSH1 0x20 ADD SWAP1 DUP2 MSTORE PUSH1 0x20 ADD PUSH1 0x0 KECCAK256 DUP2 SWAP1 SSTORE POP CALLER PUSH20 0xFFFFFFFFFFFFFFFFFFFFFFFFFFFFFFFFFFFFFFFF AND DUP9 DUP11 PUSH20 0xFFFFFFFFFFFFFFFFFFFFFFFFFFFFFFFFFFFFFFFF AND PUSH32 0xA54CEC59552C7F022EED79EDE59F759697AA5787F43B11D61F17BFC5ADAFFB65 DUP6 DUP6 PUSH1 0x40 MLOAD DUP1 DUP4 DUP2 MSTORE PUSH1 0x20 ADD DUP3 DUP2 MSTORE PUSH1 0x20 ADD SWAP3 POP POP POP PUSH1 0x40 MLOAD DUP1 SWAP2 SUB SWAP1 LOG4 POP POP POP POP POP POP POP POP POP JUMP JUMPDEST PUSH1 0x8 PUSH1 0x20 MSTORE DUP2 PUSH1 0x0 MSTORE PUSH1 0x40 PUSH1 0x0 KECCAK256 DUP2 DUP2 SLOAD DUP2 LT PUSH2 0x2B6F JUMPI INVALID JUMPDEST SWAP1 PUSH1 0x0 MSTORE PUSH1 0x20 PUSH1 0x0 KECCAK256 SWAP1 PUSH1 0x5 MUL ADD PUSH1 0x0 SWAP2 POP SWAP2 POP POP DUP1 PUSH1 0x0 ADD SLOAD SWAP1 DUP1 PUSH1 0x1 ADD SLOAD SWAP1 DUP1 PUSH1 0x2 ADD SLOAD SWAP1 DUP1 PUSH1 0x3 ADD SLOAD SWAP1 POP DUP5 JUMP JUMPDEST PUSH1 0x0 DUP1 PUSH1 0x0 SWAP1 POP JUMPDEST DUP3 MLOAD DUP2 LT ISZERO PUSH2 0x2DFA JUMPI PUSH2 0x2BCF CALLER DUP6 DUP6 DUP5 DUP2 MLOAD DUP2 LT PUSH2 0x2BC2 JUMPI INVALID JUMPDEST PUSH1 0x20 MUL PUSH1 0x20 ADD ADD MLOAD PUSH2 0x4155 JUMP JUMPDEST DUP1 ISZERO PUSH2 0x2C65 JUMPI POP PUSH1 0x7 PUSH1 0x0 CALLER PUSH20 0xFFFFFFFFFFFFFFFFFFFFFFFFFFFFFFFFFFFFFFFF AND PUSH20 0xFFFFFFFFFFFFFFFFFFFFFFFFFFFFFFFFFFFFFFFF AND DUP2 MSTORE PUSH1 0x20 ADD SWAP1 DUP2 MSTORE PUSH1 0x20 ADD PUSH1 0x0 KECCAK256 DUP5 DUP2 SLOAD DUP2 LT PUSH2 0x2C20 JUMPI INVALID JUMPDEST SWAP1 PUSH1 0x0 MSTORE PUSH1 0x20 PUSH1 0x0 KECCAK256 SWAP1 PUSH1 0x9 MUL ADD PUSH1 0x7 ADD PUSH1 0x0 DUP5 DUP4 DUP2 MLOAD DUP2 LT PUSH2 0x2C3F JUMPI INVALID JUMPDEST PUSH1 0x20 MUL PUSH1 0x20 ADD ADD MLOAD DUP2 MSTORE PUSH1 0x20 ADD SWAP1 DUP2 MSTORE PUSH1 0x20 ADD PUSH1 0x0 KECCAK256 PUSH1 0x0 SWAP1 SLOAD SWAP1 PUSH2 0x100 EXP SWAP1 DIV PUSH1 0xFF AND ISZERO JUMPDEST ISZERO PUSH2 0x2DED JUMPI PUSH1 0x0 PUSH2 0x2D3C PUSH1 0xA PUSH1 0x0 DUP7 DUP6 DUP2 MLOAD DUP2 LT PUSH2 0x2C7F JUMPI INVALID JUMPDEST PUSH1 0x20 MUL PUSH1 0x20 ADD ADD MLOAD DUP2 MSTORE PUSH1 0x20 ADD SWAP1 DUP2 MSTORE PUSH1 0x20 ADD PUSH1 0x0 KECCAK256 SLOAD PUSH2 0x2D2E PUSH1 0xB DUP8 DUP7 DUP2 MLOAD DUP2 LT PUSH2 0x2CA7 JUMPI INVALID JUMPDEST PUSH1 0x20 MUL PUSH1 0x20 ADD ADD MLOAD DUP2 SLOAD DUP2 LT PUSH2 0x2CB9 JUMPI INVALID JUMPDEST SWAP1 PUSH1 0x0 MSTORE PUSH1 0x20 PUSH1 0x0 KECCAK256 ADD SLOAD PUSH1 0x7 PUSH1 0x0 CALLER PUSH20 0xFFFFFFFFFFFFFFFFFFFFFFFFFFFFFFFFFFFFFFFF AND PUSH20 0xFFFFFFFFFFFFFFFFFFFFFFFFFFFFFFFFFFFFFFFF AND DUP2 MSTORE PUSH1 0x20 ADD SWAP1 DUP2 MSTORE PUSH1 0x20 ADD PUSH1 0x0 KECCAK256 DUP10 DUP2 SLOAD DUP2 LT PUSH2 0x2D0E JUMPI INVALID JUMPDEST SWAP1 PUSH1 0x0 MSTORE PUSH1 0x20 PUSH1 0x0 KECCAK256 SWAP1 PUSH1 0x9 MUL ADD PUSH1 0x0 ADD SLOAD PUSH2 0x58C6 SWAP1 SWAP2 SWAP1 PUSH4 0xFFFFFFFF AND JUMP JUMPDEST PUSH2 0x593F SWAP1 SWAP2 SWAP1 PUSH4 0xFFFFFFFF AND JUMP JUMPDEST SWAP1 POP PUSH2 0x2D51 DUP2 DUP5 PUSH2 0x5900 SWAP1 SWAP2 SWAP1 PUSH4 0xFFFFFFFF AND JUMP JUMPDEST SWAP3 POP PUSH1 0x1 PUSH1 0x7 PUSH1 0x0 CALLER PUSH20 0xFFFFFFFFFFFFFFFFFFFFFFFFFFFFFFFFFFFFFFFF AND PUSH20 0xFFFFFFFFFFFFFFFFFFFFFFFFFFFFFFFFFFFFFFFF AND DUP2 MSTORE PUSH1 0x20 ADD SWAP1 DUP2 MSTORE PUSH1 0x20 ADD PUSH1 0x0 KECCAK256 DUP7 DUP2 SLOAD DUP2 LT PUSH2 0x2D9F JUMPI INVALID JUMPDEST SWAP1 PUSH1 0x0 MSTORE PUSH1 0x20 PUSH1 0x0 KECCAK256 SWAP1 PUSH1 0x9 MUL ADD PUSH1 0x7 ADD PUSH1 0x0 DUP7 DUP6 DUP2 MLOAD DUP2 LT PUSH2 0x2DBE JUMPI INVALID JUMPDEST PUSH1 0x20 MUL PUSH1 0x20 ADD ADD MLOAD DUP2 MSTORE PUSH1 0x20 ADD SWAP1 DUP2 MSTORE PUSH1 0x20 ADD PUSH1 0x0 KECCAK256 PUSH1 0x0 PUSH2 0x100 EXP DUP2 SLOAD DUP2 PUSH1 0xFF MUL NOT AND SWAP1 DUP4 ISZERO ISZERO MUL OR SWAP1 SSTORE POP POP JUMPDEST DUP1 DUP1 PUSH1 0x1 ADD SWAP2 POP POP PUSH2 0x2BA8 JUMP JUMPDEST POP PUSH1 0x0 PUSH2 0x2EAF PUSH1 0xF PUSH2 0x2EA1 PUSH2 0x2E92 PUSH1 0x5 PUSH1 0x7 PUSH1 0x0 CALLER PUSH20 0xFFFFFFFFFFFFFFFFFFFFFFFFFFFFFFFFFFFFFFFF AND PUSH20 0xFFFFFFFFFFFFFFFFFFFFFFFFFFFFFFFFFFFFFFFF AND DUP2 MSTORE PUSH1 0x20 ADD SWAP1 DUP2 MSTORE PUSH1 0x20 ADD PUSH1 0x0 KECCAK256 DUP10 DUP2 SLOAD DUP2 LT PUSH2 0x2E54 JUMPI INVALID JUMPDEST SWAP1 PUSH1 0x0 MSTORE PUSH1 0x20 PUSH1 0x0 KECCAK256 SWAP1 PUSH1 0x9 MUL ADD PUSH1 0x3 ADD SLOAD DUP2 SLOAD DUP2 LT PUSH2 0x2E70 JUMPI INVALID JUMPDEST SWAP1 PUSH1 0x0 MSTORE PUSH1 0x20 PUSH1 0x0 KECCAK256 SWAP1 PUSH1 0x3 MUL ADD PUSH1 0x1 ADD SLOAD PUSH1 0xF PUSH2 0x591F SWAP1 SWAP2 SWAP1 PUSH4 0xFFFFFFFF AND JUMP JUMPDEST DUP6 PUSH2 0x58C6 SWAP1 SWAP2 SWAP1 PUSH4 0xFFFFFFFF AND JUMP JUMPDEST PUSH2 0x593F SWAP1 SWAP2 SWAP1 PUSH4 0xFFFFFFFF AND JUMP JUMPDEST SWAP1 POP PUSH1 0x2 PUSH1 0x0 SWAP1 SLOAD SWAP1 PUSH2 0x100 EXP SWAP1 DIV PUSH20 0xFFFFFFFFFFFFFFFFFFFFFFFFFFFFFFFFFFFFFFFF AND PUSH20 0xFFFFFFFFFFFFFFFFFFFFFFFFFFFFFFFFFFFFFFFF AND PUSH4 0xA9059CBB PUSH1 0x3 PUSH1 0x0 SWAP1 SLOAD SWAP1 PUSH2 0x100 EXP SWAP1 DIV PUSH20 0xFFFFFFFFFFFFFFFFFFFFFFFFFFFFFFFFFFFFFFFF AND DUP4 PUSH1 0x40 MLOAD DUP4 PUSH4 0xFFFFFFFF AND PUSH1 0xE0 SHL DUP2 MSTORE PUSH1 0x4 ADD DUP1 DUP4 PUSH20 0xFFFFFFFFFFFFFFFFFFFFFFFFFFFFFFFFFFFFFFFF AND PUSH20 0xFFFFFFFFFFFFFFFFFFFFFFFFFFFFFFFFFFFFFFFF AND DUP2 MSTORE PUSH1 0x20 ADD DUP3 DUP2 MSTORE PUSH1 0x20 ADD SWAP3 POP POP POP PUSH1 0x20 PUSH1 0x40 MLOAD DUP1 DUP4 SUB DUP2 PUSH1 0x0 DUP8 DUP1 EXTCODESIZE ISZERO DUP1 ISZERO PUSH2 0x2F7C JUMPI PUSH1 0x0 DUP1 REVERT JUMPDEST POP GAS CALL ISZERO DUP1 ISZERO PUSH2 0x2F90 JUMPI RETURNDATASIZE PUSH1 0x0 DUP1 RETURNDATACOPY RETURNDATASIZE PUSH1 0x0 REVERT JUMPDEST POP POP POP POP PUSH1 0x40 MLOAD RETURNDATASIZE PUSH1 0x20 DUP2 LT ISZERO PUSH2 0x2FA6 JUMPI PUSH1 0x0 DUP1 REVERT JUMPDEST DUP2 ADD SWAP1 DUP1 DUP1 MLOAD SWAP1 PUSH1 0x20 ADD SWAP1 SWAP3 SWAP2 SWAP1 POP POP POP PUSH2 0x2FC0 JUMPI PUSH1 0x0 DUP1 REVERT JUMPDEST PUSH1 0x3 PUSH1 0x0 SWAP1 SLOAD SWAP1 PUSH2 0x100 EXP SWAP1 DIV PUSH20 0xFFFFFFFFFFFFFFFFFFFFFFFFFFFFFFFFFFFFFFFF AND PUSH20 0xFFFFFFFFFFFFFFFFFFFFFFFFFFFFFFFFFFFFFFFF AND PUSH4 0x382E2AAB DUP3 PUSH1 0x40 MLOAD DUP3 PUSH4 0xFFFFFFFF AND PUSH1 0xE0 SHL DUP2 MSTORE PUSH1 0x4 ADD DUP1 DUP3 DUP2 MSTORE PUSH1 0x20 ADD SWAP2 POP POP PUSH1 0x20 PUSH1 0x40 MLOAD DUP1 DUP4 SUB DUP2 PUSH1 0x0 DUP8 DUP1 EXTCODESIZE ISZERO DUP1 ISZERO PUSH2 0x3035 JUMPI PUSH1 0x0 DUP1 REVERT JUMPDEST POP GAS CALL ISZERO DUP1 ISZERO PUSH2 0x3049 JUMPI RETURNDATASIZE PUSH1 0x0 DUP1 RETURNDATACOPY RETURNDATASIZE PUSH1 0x0 REVERT JUMPDEST POP POP POP POP PUSH1 0x40 MLOAD RETURNDATASIZE PUSH1 0x20 DUP2 LT ISZERO PUSH2 0x305F JUMPI PUSH1 0x0 DUP1 REVERT JUMPDEST DUP2 ADD SWAP1 DUP1 DUP1 MLOAD SWAP1 PUSH1 0x20 ADD SWAP1 SWAP3 SWAP2 SWAP1 POP POP POP PUSH2 0x3079 JUMPI PUSH1 0x0 DUP1 REVERT JUMPDEST PUSH2 0x308C DUP2 DUP4 PUSH2 0x591F SWAP1 SWAP2 SWAP1 PUSH4 0xFFFFFFFF AND JUMP JUMPDEST SWAP2 POP PUSH1 0x0 PUSH2 0x30A4 PUSH1 0x2 DUP5 PUSH2 0x593F SWAP1 SWAP2 SWAP1 PUSH4 0xFFFFFFFF AND JUMP JUMPDEST SWAP1 POP PUSH1 0x2 PUSH1 0x0 SWAP1 SLOAD SWAP1 PUSH2 0x100 EXP SWAP1 DIV PUSH20 0xFFFFFFFFFFFFFFFFFFFFFFFFFFFFFFFFFFFFFFFF AND PUSH20 0xFFFFFFFFFFFFFFFFFFFFFFFFFFFFFFFFFFFFFFFF AND PUSH4 0xA9059CBB CALLER DUP4 PUSH1 0x40 MLOAD DUP4 PUSH4 0xFFFFFFFF AND PUSH1 0xE0 SHL DUP2 MSTORE PUSH1 0x4 ADD DUP1 DUP4 PUSH20 0xFFFFFFFFFFFFFFFFFFFFFFFFFFFFFFFFFFFFFFFF AND PUSH20 0xFFFFFFFFFFFFFFFFFFFFFFFFFFFFFFFFFFFFFFFF AND DUP2 MSTORE PUSH1 0x20 ADD DUP3 DUP2 MSTORE PUSH1 0x20 ADD SWAP3 POP POP POP PUSH1 0x20 PUSH1 0x40 MLOAD DUP1 DUP4 SUB DUP2 PUSH1 0x0 DUP8 DUP1 EXTCODESIZE ISZERO DUP1 ISZERO PUSH2 0x314F JUMPI PUSH1 0x0 DUP1 REVERT JUMPDEST POP GAS CALL ISZERO DUP1 ISZERO PUSH2 0x3163 JUMPI RETURNDATASIZE PUSH1 0x0 DUP1 RETURNDATACOPY RETURNDATASIZE PUSH1 0x0 REVERT JUMPDEST POP POP POP POP PUSH1 0x40 MLOAD RETURNDATASIZE PUSH1 0x20 DUP2 LT ISZERO PUSH2 0x3179 JUMPI PUSH1 0x0 DUP1 REVERT JUMPDEST DUP2 ADD SWAP1 DUP1 DUP1 MLOAD SWAP1 PUSH1 0x20 ADD SWAP1 SWAP3 SWAP2 SWAP1 POP POP POP PUSH2 0x3193 JUMPI PUSH1 0x0 DUP1 REVERT JUMPDEST PUSH2 0x31E5 DUP2 PUSH1 0x9 PUSH1 0x0 CALLER PUSH20 0xFFFFFFFFFFFFFFFFFFFFFFFFFFFFFFFFFFFFFFFF AND PUSH20 0xFFFFFFFFFFFFFFFFFFFFFFFFFFFFFFFFFFFFFFFF AND DUP2 MSTORE PUSH1 0x20 ADD SWAP1 DUP2 MSTORE PUSH1 0x20 ADD PUSH1 0x0 KECCAK256 SLOAD PUSH2 0x5900 SWAP1 SWAP2 SWAP1 PUSH4 0xFFFFFFFF AND JUMP JUMPDEST PUSH1 0x9 PUSH1 0x0 CALLER PUSH20 0xFFFFFFFFFFFFFFFFFFFFFFFFFFFFFFFFFFFFFFFF AND PUSH20 0xFFFFFFFFFFFFFFFFFFFFFFFFFFFFFFFFFFFFFFFF AND DUP2 MSTORE PUSH1 0x20 ADD SWAP1 DUP2 MSTORE PUSH1 0x20 ADD PUSH1 0x0 KECCAK256 DUP2 SWAP1 SSTORE POP CALLER PUSH20 0xFFFFFFFFFFFFFFFFFFFFFFFFFFFFFFFFFFFFFFFF AND PUSH32 0xECD133E3F2AAC41AC2B504CB693EC285651C4563ABDF7EFEA7314A56831730AC DUP7 DUP7 DUP5 PUSH1 0x40 MLOAD DUP1 DUP5 DUP2 MSTORE PUSH1 0x20 ADD DUP1 PUSH1 0x20 ADD DUP4 DUP2 MSTORE PUSH1 0x20 ADD DUP3 DUP2 SUB DUP3 MSTORE DUP5 DUP2 DUP2 MLOAD DUP2 MSTORE PUSH1 0x20 ADD SWAP2 POP DUP1 MLOAD SWAP1 PUSH1 0x20 ADD SWAP1 PUSH1 0x20 MUL DUP1 DUP4 DUP4 PUSH1 0x0 JUMPDEST DUP4 DUP2 LT ISZERO PUSH2 0x32B2 JUMPI DUP1 DUP3 ADD MLOAD DUP2 DUP5 ADD MSTORE PUSH1 0x20 DUP2 ADD SWAP1 POP PUSH2 0x3297 JUMP JUMPDEST POP POP POP POP SWAP1 POP ADD SWAP5 POP POP POP POP POP PUSH1 0x40 MLOAD DUP1 SWAP2 SUB SWAP1 LOG2 POP POP POP POP POP JUMP JUMPDEST PUSH1 0x1 PUSH1 0x7 PUSH1 0x0 CALLER PUSH20 0xFFFFFFFFFFFFFFFFFFFFFFFFFFFFFFFFFFFFFFFF AND PUSH20 0xFFFFFFFFFFFFFFFFFFFFFFFFFFFFFFFFFFFFFFFF AND DUP2 MSTORE PUSH1 0x20 ADD SWAP1 DUP2 MSTORE PUSH1 0x20 ADD PUSH1 0x0 KECCAK256 DUP5 DUP2 SLOAD DUP2 LT PUSH2 0x331A JUMPI INVALID JUMPDEST SWAP1 PUSH1 0x0 MSTORE PUSH1 0x20 PUSH1 0x0 KECCAK256 SWAP1 PUSH1 0x9 MUL ADD PUSH1 0x4 ADD SLOAD EQ PUSH2 0x3336 JUMPI PUSH1 0x0 DUP1 REVERT JUMPDEST PUSH1 0x0 PUSH1 0x7 PUSH1 0x0 CALLER PUSH20 0xFFFFFFFFFFFFFFFFFFFFFFFFFFFFFFFFFFFFFFFF AND PUSH20 0xFFFFFFFFFFFFFFFFFFFFFFFFFFFFFFFFFFFFFFFF AND DUP2 MSTORE PUSH1 0x20 ADD SWAP1 DUP2 MSTORE PUSH1 0x20 ADD PUSH1 0x0 KECCAK256 DUP5 DUP2 SLOAD DUP2 LT PUSH2 0x3382 JUMPI INVALID JUMPDEST SWAP1 PUSH1 0x0 MSTORE PUSH1 0x20 PUSH1 0x0 KECCAK256 SWAP1 PUSH1 0x9 MUL ADD PUSH1 0x8 ADD PUSH1 0x0 DUP5 PUSH20 0xFFFFFFFFFFFFFFFFFFFFFFFFFFFFFFFFFFFFFFFF AND PUSH20 0xFFFFFFFFFFFFFFFFFFFFFFFFFFFFFFFFFFFFFFFF AND DUP2 MSTORE PUSH1 0x20 ADD SWAP1 DUP2 MSTORE PUSH1 0x20 ADD PUSH1 0x0 KECCAK256 SLOAD EQ PUSH2 0x33DB JUMPI PUSH1 0x0 DUP1 REVERT JUMPDEST PUSH2 0x3449 DUP2 PUSH1 0x7 PUSH1 0x0 CALLER PUSH20 0xFFFFFFFFFFFFFFFFFFFFFFFFFFFFFFFFFFFFFFFF AND PUSH20 0xFFFFFFFFFFFFFFFFFFFFFFFFFFFFFFFFFFFFFFFF AND DUP2 MSTORE PUSH1 0x20 ADD SWAP1 DUP2 MSTORE PUSH1 0x20 ADD PUSH1 0x0 KECCAK256 DUP6 DUP2 SLOAD DUP2 LT PUSH2 0x3429 JUMPI INVALID JUMPDEST SWAP1 PUSH1 0x0 MSTORE PUSH1 0x20 PUSH1 0x0 KECCAK256 SWAP1 PUSH1 0x9 MUL ADD PUSH1 0x6 ADD SLOAD PUSH2 0x5900 SWAP1 SWAP2 SWAP1 PUSH4 0xFFFFFFFF AND JUMP JUMPDEST PUSH1 0x7 PUSH1 0x0 CALLER PUSH20 0xFFFFFFFFFFFFFFFFFFFFFFFFFFFFFFFFFFFFFFFF AND PUSH20 0xFFFFFFFFFFFFFFFFFFFFFFFFFFFFFFFFFFFFFFFF AND DUP2 MSTORE PUSH1 0x20 ADD SWAP1 DUP2 MSTORE PUSH1 0x20 ADD PUSH1 0x0 KECCAK256 DUP5 DUP2 SLOAD DUP2 LT PUSH2 0x3493 JUMPI INVALID JUMPDEST SWAP1 PUSH1 0x0 MSTORE PUSH1 0x20 PUSH1 0x0 KECCAK256 SWAP1 PUSH1 0x9 MUL ADD PUSH1 0x6 ADD DUP2 SWAP1 SSTORE POP DUP1 PUSH1 0x7 PUSH1 0x0 CALLER PUSH20 0xFFFFFFFFFFFFFFFFFFFFFFFFFFFFFFFFFFFFFFFF AND PUSH20 0xFFFFFFFFFFFFFFFFFFFFFFFFFFFFFFFFFFFFFFFF AND DUP2 MSTORE PUSH1 0x20 ADD SWAP1 DUP2 MSTORE PUSH1 0x20 ADD PUSH1 0x0 KECCAK256 DUP5 DUP2 SLOAD DUP2 LT PUSH2 0x34F3 JUMPI INVALID JUMPDEST SWAP1 PUSH1 0x0 MSTORE PUSH1 0x20 PUSH1 0x0 KECCAK256 SWAP1 PUSH1 0x9 MUL ADD PUSH1 0x8 ADD PUSH1 0x0 DUP5 PUSH20 0xFFFFFFFFFFFFFFFFFFFFFFFFFFFFFFFFFFFFFFFF AND PUSH20 0xFFFFFFFFFFFFFFFFFFFFFFFFFFFFFFFFFFFFFFFF AND DUP2 MSTORE PUSH1 0x20 ADD SWAP1 DUP2 MSTORE PUSH1 0x20 ADD PUSH1 0x0 KECCAK256 DUP2 SWAP1 SSTORE POP DUP2 PUSH20 0xFFFFFFFFFFFFFFFFFFFFFFFFFFFFFFFFFFFFFFFF AND DUP4 CALLER PUSH20 0xFFFFFFFFFFFFFFFFFFFFFFFFFFFFFFFFFFFFFFFF AND PUSH32 0xC4E7FB51A42CE926BB404F8024C3C91A40AF0654D9A96ADA67C329B9C9BEE4A2 PUSH1 0x40 MLOAD PUSH1 0x40 MLOAD DUP1 SWAP2 SUB SWAP1 LOG4 POP POP POP JUMP JUMPDEST PUSH1 0x0 PUSH1 0x7 PUSH1 0x0 DUP4 PUSH20 0xFFFFFFFFFFFFFFFFFFFFFFFFFFFFFFFFFFFFFFFF AND PUSH20 0xFFFFFFFFFFFFFFFFFFFFFFFFFFFFFFFFFFFFFFFF AND DUP2 MSTORE PUSH1 0x20 ADD SWAP1 DUP2 MSTORE PUSH1 0x20 ADD PUSH1 0x0 KECCAK256 DUP1 SLOAD SWAP1 POP SWAP1 POP SWAP2 SWAP1 POP JUMP JUMPDEST PUSH1 0x6 DUP2 DUP2 SLOAD DUP2 LT PUSH2 0x35FE JUMPI INVALID JUMPDEST SWAP1 PUSH1 0x0 MSTORE PUSH1 0x20 PUSH1 0x0 KECCAK256 SWAP1 PUSH1 0x3 MUL ADD PUSH1 0x0 SWAP2 POP SWAP1 POP DUP1 PUSH1 0x0 ADD SLOAD SWAP1 DUP1 PUSH1 0x1 ADD SLOAD SWAP1 DUP1 PUSH1 0x2 ADD SLOAD SWAP1 POP DUP4 JUMP JUMPDEST PUSH1 0x0 PUSH2 0x3632 PUSH2 0x4712 JUMP JUMPDEST SWAP1 POP PUSH1 0x0 DUP1 PUSH1 0x0 SWAP1 POP JUMPDEST DUP4 MLOAD DUP2 LT ISZERO PUSH2 0x3BC9 JUMPI PUSH2 0x3663 CALLER DUP6 DUP4 DUP2 MLOAD DUP2 LT PUSH2 0x3655 JUMPI INVALID JUMPDEST PUSH1 0x20 MUL PUSH1 0x20 ADD ADD MLOAD DUP6 PUSH2 0x4155 JUMP JUMPDEST DUP1 ISZERO PUSH2 0x3845 JUMPI POP PUSH1 0x5 PUSH1 0x7 PUSH1 0x0 CALLER PUSH20 0xFFFFFFFFFFFFFFFFFFFFFFFFFFFFFFFFFFFFFFFF AND PUSH20 0xFFFFFFFFFFFFFFFFFFFFFFFFFFFFFFFFFFFFFFFF AND DUP2 MSTORE PUSH1 0x20 ADD SWAP1 DUP2 MSTORE PUSH1 0x20 ADD PUSH1 0x0 KECCAK256 DUP6 DUP4 DUP2 MLOAD DUP2 LT PUSH2 0x36B7 JUMPI INVALID JUMPDEST PUSH1 0x20 MUL PUSH1 0x20 ADD ADD MLOAD DUP2 SLOAD DUP2 LT PUSH2 0x36C9 JUMPI INVALID JUMPDEST SWAP1 PUSH1 0x0 MSTORE PUSH1 0x20 PUSH1 0x0 KECCAK256 SWAP1 PUSH1 0x9 MUL ADD PUSH1 0x3 ADD SLOAD DUP2 SLOAD DUP2 LT PUSH2 0x36E5 JUMPI INVALID JUMPDEST SWAP1 PUSH1 0x0 MSTORE PUSH1 0x20 PUSH1 0x0 KECCAK256 SWAP1 PUSH1 0x3 MUL ADD PUSH1 0x2 ADD PUSH1 0x0 SWAP1 SLOAD SWAP1 PUSH2 0x100 EXP SWAP1 DIV PUSH1 0xFF AND DUP1 PUSH2 0x3844 JUMPI POP PUSH2 0x37D1 PUSH1 0x64 PUSH2 0x37C3 PUSH1 0x4B PUSH2 0x37B5 PUSH1 0x4 SLOAD PUSH1 0x5 PUSH1 0x7 PUSH1 0x0 CALLER PUSH20 0xFFFFFFFFFFFFFFFFFFFFFFFFFFFFFFFFFFFFFFFF AND PUSH20 0xFFFFFFFFFFFFFFFFFFFFFFFFFFFFFFFFFFFFFFFF AND DUP2 MSTORE PUSH1 0x20 ADD SWAP1 DUP2 MSTORE PUSH1 0x20 ADD PUSH1 0x0 KECCAK256 DUP12 DUP10 DUP2 MLOAD DUP2 LT PUSH2 0x3767 JUMPI INVALID JUMPDEST PUSH1 0x20 MUL PUSH1 0x20 ADD ADD MLOAD DUP2 SLOAD DUP2 LT PUSH2 0x3779 JUMPI INVALID JUMPDEST SWAP1 PUSH1 0x0 MSTORE PUSH1 0x20 PUSH1 0x0 KECCAK256 SWAP1 PUSH1 0x9 MUL ADD PUSH1 0x3 ADD SLOAD DUP2 SLOAD DUP2 LT PUSH2 0x3795 JUMPI INVALID JUMPDEST SWAP1 PUSH1 0x0 MSTORE PUSH1 0x20 PUSH1 0x0 KECCAK256 SWAP1 PUSH1 0x3 MUL ADD PUSH1 0x0 ADD SLOAD PUSH2 0x58C6 SWAP1 SWAP2 SWAP1 PUSH4 0xFFFFFFFF AND JUMP JUMPDEST PUSH2 0x58C6 SWAP1 SWAP2 SWAP1 PUSH4 0xFFFFFFFF AND JUMP JUMPDEST PUSH2 0x593F SWAP1 SWAP2 SWAP1 PUSH4 0xFFFFFFFF AND JUMP JUMPDEST PUSH1 0x7 PUSH1 0x0 CALLER PUSH20 0xFFFFFFFFFFFFFFFFFFFFFFFFFFFFFFFFFFFFFFFF AND PUSH20 0xFFFFFFFFFFFFFFFFFFFFFFFFFFFFFFFFFFFFFFFF AND DUP2 MSTORE PUSH1 0x20 ADD SWAP1 DUP2 MSTORE PUSH1 0x20 ADD PUSH1 0x0 KECCAK256 DUP6 DUP4 DUP2 MLOAD DUP2 LT PUSH2 0x381C JUMPI INVALID JUMPDEST PUSH1 0x20 MUL PUSH1 0x20 ADD ADD MLOAD DUP2 SLOAD DUP2 LT PUSH2 0x382E JUMPI INVALID JUMPDEST SWAP1 PUSH1 0x0 MSTORE PUSH1 0x20 PUSH1 0x0 KECCAK256 SWAP1 PUSH1 0x9 MUL ADD PUSH1 0x1 ADD SLOAD ADD TIMESTAMP GT JUMPDEST JUMPDEST ISZERO PUSH2 0x3BBC JUMPI PUSH2 0x390E PUSH2 0x38FF PUSH1 0x64 PUSH2 0x38F1 PUSH1 0x6 DUP11 DUP2 SLOAD DUP2 LT PUSH2 0x3862 JUMPI INVALID JUMPDEST SWAP1 PUSH1 0x0 MSTORE PUSH1 0x20 PUSH1 0x0 KECCAK256 SWAP1 PUSH1 0x3 MUL ADD PUSH1 0x2 ADD SLOAD PUSH1 0x7 PUSH1 0x0 CALLER PUSH20 0xFFFFFFFFFFFFFFFFFFFFFFFFFFFFFFFFFFFFFFFF AND PUSH20 0xFFFFFFFFFFFFFFFFFFFFFFFFFFFFFFFFFFFFFFFF AND DUP2 MSTORE PUSH1 0x20 ADD SWAP1 DUP2 MSTORE PUSH1 0x20 ADD PUSH1 0x0 KECCAK256 DUP10 DUP8 DUP2 MLOAD DUP2 LT PUSH2 0x38BF JUMPI INVALID JUMPDEST PUSH1 0x20 MUL PUSH1 0x20 ADD ADD MLOAD DUP2 SLOAD DUP2 LT PUSH2 0x38D1 JUMPI INVALID JUMPDEST SWAP1 PUSH1 0x0 MSTORE PUSH1 0x20 PUSH1 0x0 KECCAK256 SWAP1 PUSH1 0x9 MUL ADD PUSH1 0x0 ADD SLOAD PUSH2 0x58C6 SWAP1 SWAP2 SWAP1 PUSH4 0xFFFFFFFF AND JUMP JUMPDEST PUSH2 0x593F SWAP1 SWAP2 SWAP1 PUSH4 0xFFFFFFFF AND JUMP JUMPDEST DUP4 PUSH2 0x5900 SWAP1 SWAP2 SWAP1 PUSH4 0xFFFFFFFF AND JUMP JUMPDEST SWAP2 POP PUSH1 0x0 PUSH1 0x7 PUSH1 0x0 CALLER PUSH20 0xFFFFFFFFFFFFFFFFFFFFFFFFFFFFFFFFFFFFFFFF AND PUSH20 0xFFFFFFFFFFFFFFFFFFFFFFFFFFFFFFFFFFFFFFFF AND DUP2 MSTORE PUSH1 0x20 ADD SWAP1 DUP2 MSTORE PUSH1 0x20 ADD PUSH1 0x0 KECCAK256 DUP6 DUP4 DUP2 MLOAD DUP2 LT PUSH2 0x395D JUMPI INVALID JUMPDEST PUSH1 0x20 MUL PUSH1 0x20 ADD ADD MLOAD DUP2 SLOAD DUP2 LT PUSH2 0x396F JUMPI INVALID JUMPDEST SWAP1 PUSH1 0x0 MSTORE PUSH1 0x20 PUSH1 0x0 KECCAK256 SWAP1 PUSH1 0x9 MUL ADD PUSH1 0x2 ADD SLOAD SWAP1 POP PUSH1 0x0 PUSH1 0x5 PUSH1 0x7 PUSH1 0x0 CALLER PUSH20 0xFFFFFFFFFFFFFFFFFFFFFFFFFFFFFFFFFFFFFFFF AND PUSH20 0xFFFFFFFFFFFFFFFFFFFFFFFFFFFFFFFFFFFFFFFF AND DUP2 MSTORE PUSH1 0x20 ADD SWAP1 DUP2 MSTORE PUSH1 0x20 ADD PUSH1 0x0 KECCAK256 DUP8 DUP6 DUP2 MLOAD DUP2 LT PUSH2 0x39D2 JUMPI INVALID JUMPDEST PUSH1 0x20 MUL PUSH1 0x20 ADD ADD MLOAD DUP2 SLOAD DUP2 LT PUSH2 0x39E4 JUMPI INVALID JUMPDEST SWAP1 PUSH1 0x0 MSTORE PUSH1 0x20 PUSH1 0x0 KECCAK256 SWAP1 PUSH1 0x9 MUL ADD PUSH1 0x3 ADD SLOAD DUP2 SLOAD DUP2 LT PUSH2 0x3A00 JUMPI INVALID JUMPDEST SWAP1 PUSH1 0x0 MSTORE PUSH1 0x20 PUSH1 0x0 KECCAK256 SWAP1 PUSH1 0x3 MUL ADD PUSH1 0x0 ADD SLOAD DUP3 ADD SWAP1 POP PUSH1 0x0 PUSH1 0x1 DUP7 ADD SWAP1 POP JUMPDEST DUP2 DUP2 GT PUSH2 0x3A70 JUMPI PUSH2 0x3A4C DUP6 PUSH1 0xA PUSH1 0x0 DUP5 DUP2 MSTORE PUSH1 0x20 ADD SWAP1 DUP2 MSTORE PUSH1 0x20 ADD PUSH1 0x0 KECCAK256 SLOAD PUSH2 0x591F SWAP1 SWAP2 SWAP1 PUSH4 0xFFFFFFFF AND JUMP JUMPDEST PUSH1 0xA PUSH1 0x0 DUP4 DUP2 MSTORE PUSH1 0x20 ADD SWAP1 DUP2 MSTORE PUSH1 0x20 ADD PUSH1 0x0 KECCAK256 DUP2 SWAP1 SSTORE POP DUP1 DUP1 PUSH1 0x1 ADD SWAP2 POP POP PUSH2 0x3A1F JUMP JUMPDEST POP PUSH1 0x0 PUSH1 0x1 SWAP1 POP JUMPDEST PUSH1 0x6 DUP10 DUP2 SLOAD DUP2 LT PUSH2 0x3A85 JUMPI INVALID JUMPDEST SWAP1 PUSH1 0x0 MSTORE PUSH1 0x20 PUSH1 0x0 KECCAK256 SWAP1 PUSH1 0x3 MUL ADD PUSH1 0x0 ADD SLOAD DUP2 GT PUSH2 0x3BB8 JUMPI PUSH1 0x1 PUSH1 0x7 PUSH1 0x0 CALLER PUSH20 0xFFFFFFFFFFFFFFFFFFFFFFFFFFFFFFFFFFFFFFFF AND PUSH20 0xFFFFFFFFFFFFFFFFFFFFFFFFFFFFFFFFFFFFFFFF AND DUP2 MSTORE PUSH1 0x20 ADD SWAP1 DUP2 MSTORE PUSH1 0x20 ADD PUSH1 0x0 KECCAK256 DUP9 DUP7 DUP2 MLOAD DUP2 LT PUSH2 0x3AEA JUMPI INVALID JUMPDEST PUSH1 0x20 MUL PUSH1 0x20 ADD ADD MLOAD DUP2 SLOAD DUP2 LT PUSH2 0x3AFC JUMPI INVALID JUMPDEST SWAP1 PUSH1 0x0 MSTORE PUSH1 0x20 PUSH1 0x0 KECCAK256 SWAP1 PUSH1 0x9 MUL ADD PUSH1 0x7 ADD PUSH1 0x0 DUP4 DUP10 ADD DUP2 MSTORE PUSH1 0x20 ADD SWAP1 DUP2 MSTORE PUSH1 0x20 ADD PUSH1 0x0 KECCAK256 PUSH1 0x0 PUSH2 0x100 EXP DUP2 SLOAD DUP2 PUSH1 0xFF MUL NOT AND SWAP1 DUP4 ISZERO ISZERO MUL OR SWAP1 SSTORE POP PUSH1 0x2 PUSH1 0x7 PUSH1 0x0 CALLER PUSH20 0xFFFFFFFFFFFFFFFFFFFFFFFFFFFFFFFFFFFFFFFF AND PUSH20 0xFFFFFFFFFFFFFFFFFFFFFFFFFFFFFFFFFFFFFFFF AND DUP2 MSTORE PUSH1 0x20 ADD SWAP1 DUP2 MSTORE PUSH1 0x20 ADD PUSH1 0x0 KECCAK256 DUP9 DUP7 DUP2 MLOAD DUP2 LT PUSH2 0x3B84 JUMPI INVALID JUMPDEST PUSH1 0x20 MUL PUSH1 0x20 ADD ADD MLOAD DUP2 SLOAD DUP2 LT PUSH2 0x3B96 JUMPI INVALID JUMPDEST SWAP1 PUSH1 0x0 MSTORE PUSH1 0x20 PUSH1 0x0 KECCAK256 SWAP1 PUSH1 0x9 MUL ADD PUSH1 0x4 ADD DUP2 SWAP1 SSTORE POP DUP1 DUP1 PUSH1 0x1 ADD SWAP2 POP POP PUSH2 0x3A78 JUMP JUMPDEST POP POP POP JUMPDEST DUP1 DUP1 PUSH1 0x1 ADD SWAP2 POP POP PUSH2 0x363C JUMP JUMPDEST POP PUSH1 0x0 DUP2 SWAP1 POP DUP1 DUP6 GT ISZERO PUSH2 0x3BE3 JUMPI PUSH1 0x0 PUSH2 0x3BE2 JUMPI PUSH1 0x0 DUP1 REVERT JUMPDEST JUMPDEST PUSH1 0x0 PUSH2 0x3C29 PUSH1 0x64 PUSH2 0x3C1B PUSH1 0x6 DUP11 DUP2 SLOAD DUP2 LT PUSH2 0x3BFA JUMPI INVALID JUMPDEST SWAP1 PUSH1 0x0 MSTORE PUSH1 0x20 PUSH1 0x0 KECCAK256 SWAP1 PUSH1 0x3 MUL ADD PUSH1 0x1 ADD SLOAD DUP10 PUSH2 0x58C6 SWAP1 SWAP2 SWAP1 PUSH4 0xFFFFFFFF AND JUMP JUMPDEST PUSH2 0x593F SWAP1 SWAP2 SWAP1 PUSH4 0xFFFFFFFF AND JUMP JUMPDEST SWAP1 POP PUSH1 0x0 PUSH2 0x3C40 DUP3 DUP9 PUSH2 0x591F SWAP1 SWAP2 SWAP1 PUSH4 0xFFFFFFFF AND JUMP JUMPDEST SWAP1 POP PUSH1 0x2 PUSH1 0x0 SWAP1 SLOAD SWAP1 PUSH2 0x100 EXP SWAP1 DIV PUSH20 0xFFFFFFFFFFFFFFFFFFFFFFFFFFFFFFFFFFFFFFFF AND PUSH20 0xFFFFFFFFFFFFFFFFFFFFFFFFFFFFFFFFFFFFFFFF AND PUSH4 0xA9059CBB PUSH1 0x3 PUSH1 0x0 SWAP1 SLOAD SWAP1 PUSH2 0x100 EXP SWAP1 DIV PUSH20 0xFFFFFFFFFFFFFFFFFFFFFFFFFFFFFFFFFFFFFFFF AND DUP5 PUSH1 0x40 MLOAD DUP4 PUSH4 0xFFFFFFFF AND PUSH1 0xE0 SHL DUP2 MSTORE PUSH1 0x4 ADD DUP1 DUP4 PUSH20 0xFFFFFFFFFFFFFFFFFFFFFFFFFFFFFFFFFFFFFFFF AND PUSH20 0xFFFFFFFFFFFFFFFFFFFFFFFFFFFFFFFFFFFFFFFF AND DUP2 MSTORE PUSH1 0x20 ADD DUP3 DUP2 MSTORE PUSH1 0x20 ADD SWAP3 POP POP POP PUSH1 0x20 PUSH1 0x40 MLOAD DUP1 DUP4 SUB DUP2 PUSH1 0x0 DUP8 DUP1 EXTCODESIZE ISZERO DUP1 ISZERO PUSH2 0x3D0D JUMPI PUSH1 0x0 DUP1 REVERT JUMPDEST POP GAS CALL ISZERO DUP1 ISZERO PUSH2 0x3D21 JUMPI RETURNDATASIZE PUSH1 0x0 DUP1 RETURNDATACOPY RETURNDATASIZE PUSH1 0x0 REVERT JUMPDEST POP POP POP POP PUSH1 0x40 MLOAD RETURNDATASIZE PUSH1 0x20 DUP2 LT ISZERO PUSH2 0x3D37 JUMPI PUSH1 0x0 DUP1 REVERT JUMPDEST DUP2 ADD SWAP1 DUP1 DUP1 MLOAD SWAP1 PUSH1 0x20 ADD SWAP1 SWAP3 SWAP2 SWAP1 POP POP POP PUSH2 0x3D51 JUMPI PUSH1 0x0 DUP1 REVERT JUMPDEST PUSH1 0x3 PUSH1 0x0 SWAP1 SLOAD SWAP1 PUSH2 0x100 EXP SWAP1 DIV PUSH20 0xFFFFFFFFFFFFFFFFFFFFFFFFFFFFFFFFFFFFFFFF AND PUSH20 0xFFFFFFFFFFFFFFFFFFFFFFFFFFFFFFFFFFFFFFFF AND PUSH4 0x382E2AAB DUP4 PUSH1 0x40 MLOAD DUP3 PUSH4 0xFFFFFFFF AND PUSH1 0xE0 SHL DUP2 MSTORE PUSH1 0x4 ADD DUP1 DUP3 DUP2 MSTORE PUSH1 0x20 ADD SWAP2 POP POP PUSH1 0x20 PUSH1 0x40 MLOAD DUP1 DUP4 SUB DUP2 PUSH1 0x0 DUP8 DUP1 EXTCODESIZE ISZERO DUP1 ISZERO PUSH2 0x3DC6 JUMPI PUSH1 0x0 DUP1 REVERT JUMPDEST POP GAS CALL ISZERO DUP1 ISZERO PUSH2 0x3DDA JUMPI RETURNDATASIZE PUSH1 0x0 DUP1 RETURNDATACOPY RETURNDATASIZE PUSH1 0x0 REVERT JUMPDEST POP POP POP POP PUSH1 0x40 MLOAD RETURNDATASIZE PUSH1 0x20 DUP2 LT ISZERO PUSH2 0x3DF0 JUMPI PUSH1 0x0 DUP1 REVERT JUMPDEST DUP2 ADD SWAP1 DUP1 DUP1 MLOAD SWAP1 PUSH1 0x20 ADD SWAP1 SWAP3 SWAP2 SWAP1 POP POP POP PUSH2 0x3E0A JUMPI PUSH1 0x0 DUP1 REVERT JUMPDEST PUSH1 0x8 PUSH1 0x0 CALLER PUSH20 0xFFFFFFFFFFFFFFFFFFFFFFFFFFFFFFFFFFFFFFFF AND PUSH20 0xFFFFFFFFFFFFFFFFFFFFFFFFFFFFFFFFFFFFFFFF AND DUP2 MSTORE PUSH1 0x20 ADD SWAP1 DUP2 MSTORE PUSH1 0x20 ADD PUSH1 0x0 KECCAK256 PUSH1 0x40 MLOAD DUP1 PUSH1 0xA0 ADD PUSH1 0x40 MSTORE DUP1 DUP10 DUP2 MSTORE PUSH1 0x20 ADD TIMESTAMP DUP2 MSTORE PUSH1 0x20 ADD DUP11 DUP2 MSTORE PUSH1 0x20 ADD PUSH1 0x1 DUP2 MSTORE PUSH1 0x20 ADD DUP9 DUP2 MSTORE POP SWAP1 DUP1 PUSH1 0x1 DUP2 SLOAD ADD DUP1 DUP3 SSTORE DUP1 SWAP2 POP POP SWAP1 PUSH1 0x1 DUP3 SUB SWAP1 PUSH1 0x0 MSTORE PUSH1 0x20 PUSH1 0x0 KECCAK256 SWAP1 PUSH1 0x5 MUL ADD PUSH1 0x0 SWAP1 SWAP2 SWAP3 SWAP1 SWAP2 SWAP1 SWAP2 POP PUSH1 0x0 DUP3 ADD MLOAD DUP2 PUSH1 0x0 ADD SSTORE PUSH1 0x20 DUP3 ADD MLOAD DUP2 PUSH1 0x1 ADD SSTORE PUSH1 0x40 DUP3 ADD MLOAD DUP2 PUSH1 0x2 ADD SSTORE PUSH1 0x60 DUP3 ADD MLOAD DUP2 PUSH1 0x3 ADD SSTORE PUSH1 0x80 DUP3 ADD MLOAD DUP2 PUSH1 0x4 ADD SWAP1 DUP1 MLOAD SWAP1 PUSH1 0x20 ADD SWAP1 PUSH2 0x3EE0 SWAP3 SWAP2 SWAP1 PUSH2 0x5965 JUMP JUMPDEST POP POP POP POP PUSH1 0x2 PUSH1 0x0 SWAP1 SLOAD SWAP1 PUSH2 0x100 EXP SWAP1 DIV PUSH20 0xFFFFFFFFFFFFFFFFFFFFFFFFFFFFFFFFFFFFFFFF AND PUSH20 0xFFFFFFFFFFFFFFFFFFFFFFFFFFFFFFFFFFFFFFFF AND PUSH4 0xA9059CBB CALLER DUP4 PUSH1 0x40 MLOAD DUP4 PUSH4 0xFFFFFFFF AND PUSH1 0xE0 SHL DUP2 MSTORE PUSH1 0x4 ADD DUP1 DUP4 PUSH20 0xFFFFFFFFFFFFFFFFFFFFFFFFFFFFFFFFFFFFFFFF AND PUSH20 0xFFFFFFFFFFFFFFFFFFFFFFFFFFFFFFFFFFFFFFFF AND DUP2 MSTORE PUSH1 0x20 ADD DUP3 DUP2 MSTORE PUSH1 0x20 ADD SWAP3 POP POP POP PUSH1 0x20 PUSH1 0x40 MLOAD DUP1 DUP4 SUB DUP2 PUSH1 0x0 DUP8 DUP1 EXTCODESIZE ISZERO DUP1 ISZERO PUSH2 0x3F8D JUMPI PUSH1 0x0 DUP1 REVERT JUMPDEST POP GAS CALL ISZERO DUP1 ISZERO PUSH2 0x3FA1 JUMPI RETURNDATASIZE PUSH1 0x0 DUP1 RETURNDATACOPY RETURNDATASIZE PUSH1 0x0 REVERT JUMPDEST POP POP POP POP PUSH1 0x40 MLOAD RETURNDATASIZE PUSH1 0x20 DUP2 LT ISZERO PUSH2 0x3FB7 JUMPI PUSH1 0x0 DUP1 REVERT JUMPDEST DUP2 ADD SWAP1 DUP1 DUP1 MLOAD SWAP1 PUSH1 0x20 ADD SWAP1 SWAP3 SWAP2 SWAP1 POP POP POP PUSH2 0x3FD1 JUMPI PUSH1 0x0 DUP1 REVERT JUMPDEST DUP8 CALLER PUSH20 0xFFFFFFFFFFFFFFFFFFFFFFFFFFFFFFFFFFFFFFFF AND PUSH32 0x583F4A449110798C282200EA42774808B8147FA4BCB89A6CA406DD0650E034E7 DUP10 DUP6 PUSH1 0x1 PUSH1 0x8 PUSH1 0x0 CALLER PUSH20 0xFFFFFFFFFFFFFFFFFFFFFFFFFFFFFFFFFFFFFFFF AND PUSH20 0xFFFFFFFFFFFFFFFFFFFFFFFFFFFFFFFFFFFFFFFF AND DUP2 MSTORE PUSH1 0x20 ADD SWAP1 DUP2 MSTORE PUSH1 0x20 ADD PUSH1 0x0 KECCAK256 DUP1 SLOAD SWAP1 POP SUB PUSH1 0x40 MLOAD DUP1 DUP5 DUP2 MSTORE PUSH1 0x20 ADD DUP4 DUP2 MSTORE PUSH1 0x20 ADD DUP3 DUP2 MSTORE PUSH1 0x20 ADD SWAP4 POP POP POP POP PUSH1 0x40 MLOAD DUP1 SWAP2 SUB SWAP1 LOG3 POP POP POP POP POP POP POP POP JUMP JUMPDEST PUSH1 0x1 PUSH1 0x0 SWAP1 SLOAD SWAP1 PUSH2 0x100 EXP SWAP1 DIV PUSH20 0xFFFFFFFFFFFFFFFFFFFFFFFFFFFFFFFFFFFFFFFF AND PUSH20 0xFFFFFFFFFFFFFFFFFFFFFFFFFFFFFFFFFFFFFFFF AND CALLER PUSH20 0xFFFFFFFFFFFFFFFFFFFFFFFFFFFFFFFFFFFFFFFF AND EQ PUSH2 0x40D9 JUMPI PUSH1 0x0 DUP1 REVERT JUMPDEST PUSH1 0x64 DUP2 GT ISZERO PUSH2 0x40E7 JUMPI PUSH1 0x0 DUP1 REVERT JUMPDEST PUSH1 0x6 PUSH1 0x40 MLOAD DUP1 PUSH1 0x60 ADD PUSH1 0x40 MSTORE DUP1 DUP6 DUP2 MSTORE PUSH1 0x20 ADD DUP5 DUP2 MSTORE PUSH1 0x20 ADD DUP4 DUP2 MSTORE POP SWAP1 DUP1 PUSH1 0x1 DUP2 SLOAD ADD DUP1 DUP3 SSTORE DUP1 SWAP2 POP POP SWAP1 PUSH1 0x1 DUP3 SUB SWAP1 PUSH1 0x0 MSTORE PUSH1 0x20 PUSH1 0x0 KECCAK256 SWAP1 PUSH1 0x3 MUL ADD PUSH1 0x0 SWAP1 SWAP2 SWAP3 SWAP1 SWAP2 SWAP1 SWAP2 POP PUSH1 0x0 DUP3 ADD MLOAD DUP2 PUSH1 0x0 ADD SSTORE PUSH1 0x20 DUP3 ADD MLOAD DUP2 PUSH1 0x1 ADD SSTORE PUSH1 0x40 DUP3 ADD MLOAD DUP2 PUSH1 0x2 ADD SSTORE POP POP POP POP POP POP JUMP JUMPDEST PUSH1 0x0 DUP2 PUSH1 0x1 PUSH1 0x7 PUSH1 0x0 DUP8 PUSH20 0xFFFFFFFFFFFFFFFFFFFFFFFFFFFFFFFFFFFFFFFF AND PUSH20 0xFFFFFFFFFFFFFFFFFFFFFFFFFFFFFFFFFFFFFFFF AND DUP2 MSTORE PUSH1 0x20 ADD SWAP1 DUP2 MSTORE PUSH1 0x20 ADD PUSH1 0x0 KECCAK256 DUP6 DUP2 SLOAD DUP2 LT PUSH2 0x41A4 JUMPI INVALID JUMPDEST SWAP1 PUSH1 0x0 MSTORE PUSH1 0x20 PUSH1 0x0 KECCAK256 SWAP1 PUSH1 0x9 MUL ADD PUSH1 0x2 ADD SLOAD ADD GT ISZERO DUP1 ISZERO PUSH2 0x429B JUMPI POP DUP2 PUSH1 0x5 PUSH1 0x7 PUSH1 0x0 DUP8 PUSH20 0xFFFFFFFFFFFFFFFFFFFFFFFFFFFFFFFFFFFFFFFF AND PUSH20 0xFFFFFFFFFFFFFFFFFFFFFFFFFFFFFFFFFFFFFFFF AND DUP2 MSTORE PUSH1 0x20 ADD SWAP1 DUP2 MSTORE PUSH1 0x20 ADD PUSH1 0x0 KECCAK256 DUP6 DUP2 SLOAD DUP2 LT PUSH2 0x420D JUMPI INVALID JUMPDEST SWAP1 PUSH1 0x0 MSTORE PUSH1 0x20 PUSH1 0x0 KECCAK256 SWAP1 PUSH1 0x9 MUL ADD PUSH1 0x3 ADD SLOAD DUP2 SLOAD DUP2 LT PUSH2 0x4229 JUMPI INVALID JUMPDEST SWAP1 PUSH1 0x0 MSTORE PUSH1 0x20 PUSH1 0x0 KECCAK256 SWAP1 PUSH1 0x3 MUL ADD PUSH1 0x0 ADD SLOAD PUSH1 0x7 PUSH1 0x0 DUP8 PUSH20 0xFFFFFFFFFFFFFFFFFFFFFFFFFFFFFFFFFFFFFFFF AND PUSH20 0xFFFFFFFFFFFFFFFFFFFFFFFFFFFFFFFFFFFFFFFF AND DUP2 MSTORE PUSH1 0x20 ADD SWAP1 DUP2 MSTORE PUSH1 0x20 ADD PUSH1 0x0 KECCAK256 DUP6 DUP2 SLOAD DUP2 LT PUSH2 0x4285 JUMPI INVALID JUMPDEST SWAP1 PUSH1 0x0 MSTORE PUSH1 0x20 PUSH1 0x0 KECCAK256 SWAP1 PUSH1 0x9 MUL ADD PUSH1 0x2 ADD SLOAD ADD LT ISZERO JUMPDEST DUP1 ISZERO PUSH2 0x4302 JUMPI POP PUSH1 0x1 PUSH1 0x7 PUSH1 0x0 DUP7 PUSH20 0xFFFFFFFFFFFFFFFFFFFFFFFFFFFFFFFFFFFFFFFF AND PUSH20 0xFFFFFFFFFFFFFFFFFFFFFFFFFFFFFFFFFFFFFFFF AND DUP2 MSTORE PUSH1 0x20 ADD SWAP1 DUP2 MSTORE PUSH1 0x20 ADD PUSH1 0x0 KECCAK256 DUP5 DUP2 SLOAD DUP2 LT PUSH2 0x42EE JUMPI INVALID JUMPDEST SWAP1 PUSH1 0x0 MSTORE PUSH1 0x20 PUSH1 0x0 KECCAK256 SWAP1 PUSH1 0x9 MUL ADD PUSH1 0x4 ADD SLOAD EQ JUMPDEST DUP1 ISZERO PUSH2 0x4415 JUMPI POP DUP2 PUSH2 0x4312 PUSH2 0x4712 JUMP JUMPDEST EQ ISZERO DUP1 PUSH2 0x4414 JUMPI POP PUSH2 0x4410 PUSH2 0x43A6 PUSH1 0x4 SLOAD PUSH2 0x4398 PUSH1 0x7 PUSH1 0x0 DUP10 PUSH20 0xFFFFFFFFFFFFFFFFFFFFFFFFFFFFFFFFFFFFFFFF AND PUSH20 0xFFFFFFFFFFFFFFFFFFFFFFFFFFFFFFFFFFFFFFFF AND DUP2 MSTORE PUSH1 0x20 ADD SWAP1 DUP2 MSTORE PUSH1 0x20 ADD PUSH1 0x0 KECCAK256 DUP8 DUP2 SLOAD DUP2 LT PUSH2 0x4370 JUMPI INVALID JUMPDEST SWAP1 PUSH1 0x0 MSTORE PUSH1 0x20 PUSH1 0x0 KECCAK256 SWAP1 PUSH1 0x9 MUL ADD PUSH1 0x2 ADD SLOAD PUSH2 0x438A PUSH2 0x4712 JUMP JUMPDEST PUSH2 0x591F SWAP1 SWAP2 SWAP1 PUSH4 0xFFFFFFFF AND JUMP JUMPDEST PUSH2 0x58C6 SWAP1 SWAP2 SWAP1 PUSH4 0xFFFFFFFF AND JUMP JUMPDEST PUSH1 0x7 PUSH1 0x0 DUP8 PUSH20 0xFFFFFFFFFFFFFFFFFFFFFFFFFFFFFFFFFFFFFFFF AND PUSH20 0xFFFFFFFFFFFFFFFFFFFFFFFFFFFFFFFFFFFFFFFF AND DUP2 MSTORE PUSH1 0x20 ADD SWAP1 DUP2 MSTORE PUSH1 0x20 ADD PUSH1 0x0 KECCAK256 DUP6 DUP2 SLOAD DUP2 LT PUSH2 0x43F0 JUMPI INVALID JUMPDEST SWAP1 PUSH1 0x0 MSTORE PUSH1 0x20 PUSH1 0x0 KECCAK256 SWAP1 PUSH1 0x9 MUL ADD PUSH1 0x1 ADD SLOAD PUSH2 0x5900 SWAP1 SWAP2 SWAP1 PUSH4 0xFFFFFFFF AND JUMP JUMPDEST TIMESTAMP LT ISZERO JUMPDEST JUMPDEST SWAP1 POP SWAP4 SWAP3 POP POP POP JUMP JUMPDEST PUSH1 0x0 PUSH1 0x9 PUSH1 0x0 CALLER PUSH20 0xFFFFFFFFFFFFFFFFFFFFFFFFFFFFFFFFFFFFFFFF AND PUSH20 0xFFFFFFFFFFFFFFFFFFFFFFFFFFFFFFFFFFFFFFFF AND DUP2 MSTORE PUSH1 0x20 ADD SWAP1 DUP2 MSTORE PUSH1 0x20 ADD PUSH1 0x0 KECCAK256 SLOAD GT PUSH2 0x446A JUMPI PUSH1 0x0 DUP1 REVERT JUMPDEST PUSH1 0x0 PUSH1 0x9 PUSH1 0x0 CALLER PUSH20 0xFFFFFFFFFFFFFFFFFFFFFFFFFFFFFFFFFFFFFFFF AND PUSH20 0xFFFFFFFFFFFFFFFFFFFFFFFFFFFFFFFFFFFFFFFF AND DUP2 MSTORE PUSH1 0x20 ADD SWAP1 DUP2 MSTORE PUSH1 0x20 ADD PUSH1 0x0 KECCAK256 SLOAD SWAP1 POP PUSH1 0x0 PUSH1 0x9 PUSH1 0x0 CALLER PUSH20 0xFFFFFFFFFFFFFFFFFFFFFFFFFFFFFFFFFFFFFFFF AND PUSH20 0xFFFFFFFFFFFFFFFFFFFFFFFFFFFFFFFFFFFFFFFF AND DUP2 MSTORE PUSH1 0x20 ADD SWAP1 DUP2 MSTORE PUSH1 0x20 ADD PUSH1 0x0 KECCAK256 DUP2 SWAP1 SSTORE POP PUSH1 0x0 PUSH1 0x5 DUP4 DUP2 SLOAD DUP2 LT PUSH2 0x4502 JUMPI INVALID JUMPDEST SWAP1 PUSH1 0x0 MSTORE PUSH1 0x20 PUSH1 0x0 KECCAK256 SWAP1 PUSH1 0x3 MUL ADD PUSH1 0x0 ADD SLOAD PUSH2 0x451C PUSH2 0x4712 JUMP JUMPDEST ADD SWAP1 POP PUSH1 0x0 PUSH1 0x1 PUSH2 0x452B PUSH2 0x4712 JUMP JUMPDEST ADD SWAP1 POP JUMPDEST DUP2 DUP2 GT PUSH2 0x4580 JUMPI PUSH2 0x455C DUP4 PUSH1 0xA PUSH1 0x0 DUP5 DUP2 MSTORE PUSH1 0x20 ADD SWAP1 DUP2 MSTORE PUSH1 0x20 ADD PUSH1 0x0 KECCAK256 SLOAD PUSH2 0x5900 SWAP1 SWAP2 SWAP1 PUSH4 0xFFFFFFFF AND JUMP JUMPDEST PUSH1 0xA PUSH1 0x0 DUP4 DUP2 MSTORE PUSH1 0x20 ADD SWAP1 DUP2 MSTORE PUSH1 0x20 ADD PUSH1 0x0 KECCAK256 DUP2 SWAP1 SSTORE POP DUP1 DUP1 PUSH1 0x1 ADD SWAP2 POP POP PUSH2 0x452F JUMP JUMPDEST POP PUSH1 0x7 PUSH1 0x0 CALLER PUSH20 0xFFFFFFFFFFFFFFFFFFFFFFFFFFFFFFFFFFFFFFFF AND PUSH20 0xFFFFFFFFFFFFFFFFFFFFFFFFFFFFFFFFFFFFFFFF AND DUP2 MSTORE PUSH1 0x20 ADD SWAP1 DUP2 MSTORE PUSH1 0x20 ADD PUSH1 0x0 KECCAK256 PUSH1 0x40 MLOAD DUP1 PUSH1 0xE0 ADD PUSH1 0x40 MSTORE DUP1 DUP5 DUP2 MSTORE PUSH1 0x20 ADD TIMESTAMP DUP2 MSTORE PUSH1 0x20 ADD PUSH2 0x45DF PUSH2 0x4712 JUMP JUMPDEST DUP2 MSTORE PUSH1 0x20 ADD DUP6 DUP2 MSTORE PUSH1 0x20 ADD PUSH1 0x1 DUP2 MSTORE PUSH1 0x20 ADD PUSH1 0x0 DUP2 MSTORE PUSH1 0x20 ADD PUSH1 0x0 DUP2 MSTORE POP SWAP1 DUP1 PUSH1 0x1 DUP2 SLOAD ADD DUP1 DUP3 SSTORE DUP1 SWAP2 POP POP SWAP1 PUSH1 0x1 DUP3 SUB SWAP1 PUSH1 0x0 MSTORE PUSH1 0x20 PUSH1 0x0 KECCAK256 SWAP1 PUSH1 0x9 MUL ADD PUSH1 0x0 SWAP1 SWAP2 SWAP3 SWAP1 SWAP2 SWAP1 SWAP2 POP PUSH1 0x0 DUP3 ADD MLOAD DUP2 PUSH1 0x0 ADD SSTORE PUSH1 0x20 DUP3 ADD MLOAD DUP2 PUSH1 0x1 ADD SSTORE PUSH1 0x40 DUP3 ADD MLOAD DUP2 PUSH1 0x2 ADD SSTORE PUSH1 0x60 DUP3 ADD MLOAD DUP2 PUSH1 0x3 ADD SSTORE PUSH1 0x80 DUP3 ADD MLOAD DUP2 PUSH1 0x4 ADD SSTORE PUSH1 0xA0 DUP3 ADD MLOAD DUP2 PUSH1 0x5 ADD SSTORE PUSH1 0xC0 DUP3 ADD MLOAD DUP2 PUSH1 0x6 ADD SSTORE POP POP POP DUP3 CALLER PUSH20 0xFFFFFFFFFFFFFFFFFFFFFFFFFFFFFFFFFFFFFFFF AND PUSH32 0x680A0E2E97AD7C29DA7985E37B699F19857C055166F801E50D90661EAE30FCC3 DUP5 PUSH1 0x1 PUSH1 0x7 PUSH1 0x0 CALLER PUSH20 0xFFFFFFFFFFFFFFFFFFFFFFFFFFFFFFFFFFFFFFFF AND PUSH20 0xFFFFFFFFFFFFFFFFFFFFFFFFFFFFFFFFFFFFFFFF AND DUP2 MSTORE PUSH1 0x20 ADD SWAP1 DUP2 MSTORE PUSH1 0x20 ADD PUSH1 0x0 KECCAK256 DUP1 SLOAD SWAP1 POP SUB PUSH1 0x40 MLOAD DUP1 DUP4 DUP2 MSTORE PUSH1 0x20 ADD DUP3 DUP2 MSTORE PUSH1 0x20 ADD SWAP3 POP POP POP PUSH1 0x40 MLOAD DUP1 SWAP2 SUB SWAP1 LOG3 POP POP POP JUMP JUMPDEST PUSH1 0x0 PUSH1 0x1 PUSH1 0xB DUP1 SLOAD SWAP1 POP SUB SWAP1 POP SWAP1 JUMP JUMPDEST PUSH1 0x1 PUSH1 0x8 PUSH1 0x0 CALLER PUSH20 0xFFFFFFFFFFFFFFFFFFFFFFFFFFFFFFFFFFFFFFFF AND PUSH20 0xFFFFFFFFFFFFFFFFFFFFFFFFFFFFFFFFFFFFFFFF AND DUP2 MSTORE PUSH1 0x20 ADD SWAP1 DUP2 MSTORE PUSH1 0x20 ADD PUSH1 0x0 KECCAK256 DUP3 DUP2 SLOAD DUP2 LT PUSH2 0x476E JUMPI INVALID JUMPDEST SWAP1 PUSH1 0x0 MSTORE PUSH1 0x20 PUSH1 0x0 KECCAK256 SWAP1 PUSH1 0x5 MUL ADD PUSH1 0x3 ADD SLOAD EQ PUSH2 0x478A JUMPI PUSH1 0x0 DUP1 REVERT JUMPDEST TIMESTAMP PUSH2 0x4819 PUSH1 0x4 SLOAD PUSH1 0x6 PUSH1 0x8 PUSH1 0x0 CALLER PUSH20 0xFFFFFFFFFFFFFFFFFFFFFFFFFFFFFFFFFFFFFFFF AND PUSH20 0xFFFFFFFFFFFFFFFFFFFFFFFFFFFFFFFFFFFFFFFF AND DUP2 MSTORE PUSH1 0x20 ADD SWAP1 DUP2 MSTORE PUSH1 0x20 ADD PUSH1 0x0 KECCAK256 DUP6 DUP2 SLOAD DUP2 LT PUSH2 0x47DD JUMPI INVALID JUMPDEST SWAP1 PUSH1 0x0 MSTORE PUSH1 0x20 PUSH1 0x0 KECCAK256 SWAP1 PUSH1 0x5 MUL ADD PUSH1 0x2 ADD SLOAD DUP2 SLOAD DUP2 LT PUSH2 0x47F9 JUMPI INVALID JUMPDEST SWAP1 PUSH1 0x0 MSTORE PUSH1 0x20 PUSH1 0x0 KECCAK256 SWAP1 PUSH1 0x3 MUL ADD PUSH1 0x0 ADD SLOAD PUSH2 0x58C6 SWAP1 SWAP2 SWAP1 PUSH4 0xFFFFFFFF AND JUMP JUMPDEST PUSH1 0x8 PUSH1 0x0 CALLER PUSH20 0xFFFFFFFFFFFFFFFFFFFFFFFFFFFFFFFFFFFFFFFF AND PUSH20 0xFFFFFFFFFFFFFFFFFFFFFFFFFFFFFFFFFFFFFFFF AND DUP2 MSTORE PUSH1 0x20 ADD SWAP1 DUP2 MSTORE PUSH1 0x20 ADD PUSH1 0x0 KECCAK256 DUP4 DUP2 SLOAD DUP2 LT PUSH2 0x4863 JUMPI INVALID JUMPDEST SWAP1 PUSH1 0x0 MSTORE PUSH1 0x20 PUSH1 0x0 KECCAK256 SWAP1 PUSH1 0x5 MUL ADD PUSH1 0x1 ADD SLOAD ADD GT PUSH2 0x4880 JUMPI PUSH1 0x0 DUP1 REVERT JUMPDEST PUSH1 0x2 PUSH1 0x0 SWAP1 SLOAD SWAP1 PUSH2 0x100 EXP SWAP1 DIV PUSH20 0xFFFFFFFFFFFFFFFFFFFFFFFFFFFFFFFFFFFFFFFF AND PUSH20 0xFFFFFFFFFFFFFFFFFFFFFFFFFFFFFFFFFFFFFFFF AND PUSH4 0x23B872DD CALLER ADDRESS PUSH1 0x8 PUSH1 0x0 CALLER PUSH20 0xFFFFFFFFFFFFFFFFFFFFFFFFFFFFFFFFFFFFFFFF AND PUSH20 0xFFFFFFFFFFFFFFFFFFFFFFFFFFFFFFFFFFFFFFFF AND DUP2 MSTORE PUSH1 0x20 ADD SWAP1 DUP2 MSTORE PUSH1 0x20 ADD PUSH1 0x0 KECCAK256 DUP6 DUP2 SLOAD DUP2 LT PUSH2 0x490A JUMPI INVALID JUMPDEST SWAP1 PUSH1 0x0 MSTORE PUSH1 0x20 PUSH1 0x0 KECCAK256 SWAP1 PUSH1 0x5 MUL ADD PUSH1 0x0 ADD SLOAD PUSH1 0x40 MLOAD DUP5 PUSH4 0xFFFFFFFF AND PUSH1 0xE0 SHL DUP2 MSTORE PUSH1 0x4 ADD DUP1 DUP5 PUSH20 0xFFFFFFFFFFFFFFFFFFFFFFFFFFFFFFFFFFFFFFFF AND PUSH20 0xFFFFFFFFFFFFFFFFFFFFFFFFFFFFFFFFFFFFFFFF AND DUP2 MSTORE PUSH1 0x20 ADD DUP4 PUSH20 0xFFFFFFFFFFFFFFFFFFFFFFFFFFFFFFFFFFFFFFFF AND PUSH20 0xFFFFFFFFFFFFFFFFFFFFFFFFFFFFFFFFFFFFFFFF AND DUP2 MSTORE PUSH1 0x20 ADD DUP3 DUP2 MSTORE PUSH1 0x20 ADD SWAP4 POP POP POP POP PUSH1 0x20 PUSH1 0x40 MLOAD DUP1 DUP4 SUB DUP2 PUSH1 0x0 DUP8 DUP1 EXTCODESIZE ISZERO DUP1 ISZERO PUSH2 0x49B8 JUMPI PUSH1 0x0 DUP1 REVERT JUMPDEST POP GAS CALL ISZERO DUP1 ISZERO PUSH2 0x49CC JUMPI RETURNDATASIZE PUSH1 0x0 DUP1 RETURNDATACOPY RETURNDATASIZE PUSH1 0x0 REVERT JUMPDEST POP POP POP POP PUSH1 0x40 MLOAD RETURNDATASIZE PUSH1 0x20 DUP2 LT ISZERO PUSH2 0x49E2 JUMPI PUSH1 0x0 DUP1 REVERT JUMPDEST DUP2 ADD SWAP1 DUP1 DUP1 MLOAD SWAP1 PUSH1 0x20 ADD SWAP1 SWAP3 SWAP2 SWAP1 POP POP POP PUSH2 0x49FC JUMPI PUSH1 0x0 DUP1 REVERT JUMPDEST PUSH1 0x2 PUSH1 0x8 PUSH1 0x0 CALLER PUSH20 0xFFFFFFFFFFFFFFFFFFFFFFFFFFFFFFFFFFFFFFFF AND PUSH20 0xFFFFFFFFFFFFFFFFFFFFFFFFFFFFFFFFFFFFFFFF AND DUP2 MSTORE PUSH1 0x20 ADD SWAP1 DUP2 MSTORE PUSH1 0x20 ADD PUSH1 0x0 KECCAK256 DUP3 DUP2 SLOAD DUP2 LT PUSH2 0x4A48 JUMPI INVALID JUMPDEST SWAP1 PUSH1 0x0 MSTORE PUSH1 0x20 PUSH1 0x0 KECCAK256 SWAP1 PUSH1 0x5 MUL ADD PUSH1 0x3 ADD DUP2 SWAP1 SSTORE POP PUSH1 0x0 DUP1 SWAP1 POP JUMPDEST PUSH1 0x8 PUSH1 0x0 CALLER PUSH20 0xFFFFFFFFFFFFFFFFFFFFFFFFFFFFFFFFFFFFFFFF AND PUSH20 0xFFFFFFFFFFFFFFFFFFFFFFFFFFFFFFFFFFFFFFFF AND DUP2 MSTORE PUSH1 0x20 ADD SWAP1 DUP2 MSTORE PUSH1 0x20 ADD PUSH1 0x0 KECCAK256 DUP3 DUP2 SLOAD DUP2 LT PUSH2 0x4AAD JUMPI INVALID JUMPDEST SWAP1 PUSH1 0x0 MSTORE PUSH1 0x20 PUSH1 0x0 KECCAK256 SWAP1 PUSH1 0x5 MUL ADD PUSH1 0x4 ADD DUP1 SLOAD SWAP1 POP DUP2 LT ISZERO PUSH2 0x4DF9 JUMPI PUSH1 0x0 PUSH1 0x8 PUSH1 0x0 CALLER PUSH20 0xFFFFFFFFFFFFFFFFFFFFFFFFFFFFFFFFFFFFFFFF AND PUSH20 0xFFFFFFFFFFFFFFFFFFFFFFFFFFFFFFFFFFFFFFFF AND DUP2 MSTORE PUSH1 0x20 ADD SWAP1 DUP2 MSTORE PUSH1 0x20 ADD PUSH1 0x0 KECCAK256 DUP4 DUP2 SLOAD DUP2 LT PUSH2 0x4B15 JUMPI INVALID JUMPDEST SWAP1 PUSH1 0x0 MSTORE PUSH1 0x20 PUSH1 0x0 KECCAK256 SWAP1 PUSH1 0x5 MUL ADD PUSH1 0x4 ADD DUP3 DUP2 SLOAD DUP2 LT PUSH2 0x4B31 JUMPI INVALID JUMPDEST SWAP1 PUSH1 0x0 MSTORE PUSH1 0x20 PUSH1 0x0 KECCAK256 ADD SLOAD SWAP1 POP PUSH1 0x1 PUSH1 0x7 PUSH1 0x0 CALLER PUSH20 0xFFFFFFFFFFFFFFFFFFFFFFFFFFFFFFFFFFFFFFFF AND PUSH20 0xFFFFFFFFFFFFFFFFFFFFFFFFFFFFFFFFFFFFFFFF AND DUP2 MSTORE PUSH1 0x20 ADD SWAP1 DUP2 MSTORE PUSH1 0x20 ADD PUSH1 0x0 KECCAK256 DUP3 DUP2 SLOAD DUP2 LT PUSH2 0x4B8A JUMPI INVALID JUMPDEST SWAP1 PUSH1 0x0 MSTORE PUSH1 0x20 PUSH1 0x0 KECCAK256 SWAP1 PUSH1 0x9 MUL ADD PUSH1 0x4 ADD DUP2 SWAP1 SSTORE POP PUSH1 0x0 PUSH2 0x4C25 PUSH1 0x4 SLOAD PUSH2 0x4C17 PUSH1 0x0 SLOAD PUSH1 0x7 PUSH1 0x0 CALLER PUSH20 0xFFFFFFFFFFFFFFFFFFFFFFFFFFFFFFFFFFFFFFFF AND PUSH20 0xFFFFFFFFFFFFFFFFFFFFFFFFFFFFFFFFFFFFFFFF AND DUP2 MSTORE PUSH1 0x20 ADD SWAP1 DUP2 MSTORE PUSH1 0x20 ADD PUSH1 0x0 KECCAK256 DUP7 DUP2 SLOAD DUP2 LT PUSH2 0x4BF7 JUMPI INVALID JUMPDEST SWAP1 PUSH1 0x0 MSTORE PUSH1 0x20 PUSH1 0x0 KECCAK256 SWAP1 PUSH1 0x9 MUL ADD PUSH1 0x1 ADD SLOAD PUSH2 0x591F SWAP1 SWAP2 SWAP1 PUSH4 0xFFFFFFFF AND JUMP JUMPDEST PUSH2 0x593F SWAP1 SWAP2 SWAP1 PUSH4 0xFFFFFFFF AND JUMP JUMPDEST SWAP1 POP PUSH1 0x0 PUSH1 0x5 PUSH1 0x7 PUSH1 0x0 CALLER PUSH20 0xFFFFFFFFFFFFFFFFFFFFFFFFFFFFFFFFFFFFFFFF AND PUSH20 0xFFFFFFFFFFFFFFFFFFFFFFFFFFFFFFFFFFFFFFFF AND DUP2 MSTORE PUSH1 0x20 ADD SWAP1 DUP2 MSTORE PUSH1 0x20 ADD PUSH1 0x0 KECCAK256 DUP5 DUP2 SLOAD DUP2 LT PUSH2 0x4C75 JUMPI INVALID JUMPDEST SWAP1 PUSH1 0x0 MSTORE PUSH1 0x20 PUSH1 0x0 KECCAK256 SWAP1 PUSH1 0x9 MUL ADD PUSH1 0x3 ADD SLOAD DUP2 SLOAD DUP2 LT PUSH2 0x4C91 JUMPI INVALID JUMPDEST SWAP1 PUSH1 0x0 MSTORE PUSH1 0x20 PUSH1 0x0 KECCAK256 SWAP1 PUSH1 0x3 MUL ADD PUSH1 0x0 ADD SLOAD DUP3 ADD SWAP1 POP PUSH1 0x0 PUSH1 0x1 PUSH2 0x4CB3 PUSH2 0x4712 JUMP JUMPDEST ADD SWAP1 POP JUMPDEST DUP2 DUP2 GT PUSH2 0x4DE8 JUMPI PUSH1 0x0 PUSH1 0x7 PUSH1 0x0 CALLER PUSH20 0xFFFFFFFFFFFFFFFFFFFFFFFFFFFFFFFFFFFFFFFF AND PUSH20 0xFFFFFFFFFFFFFFFFFFFFFFFFFFFFFFFFFFFFFFFF AND DUP2 MSTORE PUSH1 0x20 ADD SWAP1 DUP2 MSTORE PUSH1 0x20 ADD PUSH1 0x0 KECCAK256 DUP6 DUP2 SLOAD DUP2 LT PUSH2 0x4D0A JUMPI INVALID JUMPDEST SWAP1 PUSH1 0x0 MSTORE PUSH1 0x20 PUSH1 0x0 KECCAK256 SWAP1 PUSH1 0x9 MUL ADD PUSH1 0x7 ADD PUSH1 0x0 DUP8 DUP2 MSTORE PUSH1 0x20 ADD SWAP1 DUP2 MSTORE PUSH1 0x20 ADD PUSH1 0x0 KECCAK256 PUSH1 0x0 PUSH2 0x100 EXP DUP2 SLOAD DUP2 PUSH1 0xFF MUL NOT AND SWAP1 DUP4 ISZERO ISZERO MUL OR SWAP1 SSTORE POP PUSH2 0x4DC4 PUSH1 0x7 PUSH1 0x0 CALLER PUSH20 0xFFFFFFFFFFFFFFFFFFFFFFFFFFFFFFFFFFFFFFFF AND PUSH20 0xFFFFFFFFFFFFFFFFFFFFFFFFFFFFFFFFFFFFFFFF AND DUP2 MSTORE PUSH1 0x20 ADD SWAP1 DUP2 MSTORE PUSH1 0x20 ADD PUSH1 0x0 KECCAK256 DUP6 DUP2 SLOAD DUP2 LT PUSH2 0x4D90 JUMPI INVALID JUMPDEST SWAP1 PUSH1 0x0 MSTORE PUSH1 0x20 PUSH1 0x0 KECCAK256 SWAP1 PUSH1 0x9 MUL ADD PUSH1 0x0 ADD SLOAD PUSH1 0xA PUSH1 0x0 DUP5 DUP2 MSTORE PUSH1 0x20 ADD SWAP1 DUP2 MSTORE PUSH1 0x20 ADD PUSH1 0x0 KECCAK256 SLOAD PUSH2 0x5900 SWAP1 SWAP2 SWAP1 PUSH4 0xFFFFFFFF AND JUMP JUMPDEST PUSH1 0xA PUSH1 0x0 DUP4 DUP2 MSTORE PUSH1 0x20 ADD SWAP1 DUP2 MSTORE PUSH1 0x20 ADD PUSH1 0x0 KECCAK256 DUP2 SWAP1 SSTORE POP DUP1 DUP1 PUSH1 0x1 ADD SWAP2 POP POP PUSH2 0x4CB7 JUMP JUMPDEST POP POP POP POP DUP1 DUP1 PUSH1 0x1 ADD SWAP2 POP POP PUSH2 0x4A63 JUMP JUMPDEST POP CALLER PUSH20 0xFFFFFFFFFFFFFFFFFFFFFFFFFFFFFFFFFFFFFFFF AND PUSH32 0xE228353B4F08FEE02276A1E9E2CDDFA948F9FA59F87F7E24C18AD1B420D7966A DUP3 PUSH1 0x40 MLOAD DUP1 DUP3 DUP2 MSTORE PUSH1 0x20 ADD SWAP2 POP POP PUSH1 0x40 MLOAD DUP1 SWAP2 SUB SWAP1 LOG2 POP JUMP JUMPDEST PUSH1 0x0 DUP1 PUSH2 0x4E56 PUSH2 0x4712 JUMP JUMPDEST SWAP1 POP PUSH1 0x0 DUP1 PUSH1 0x0 SWAP1 POP JUMPDEST DUP6 MLOAD DUP2 LT ISZERO PUSH2 0x5142 JUMPI PUSH2 0x4E87 DUP8 DUP8 DUP4 DUP2 MLOAD DUP2 LT PUSH2 0x4E79 JUMPI INVALID JUMPDEST PUSH1 0x20 MUL PUSH1 0x20 ADD ADD MLOAD DUP6 PUSH2 0x4155 JUMP JUMPDEST DUP1 ISZERO PUSH2 0x5069 JUMPI POP PUSH1 0x5 PUSH1 0x7 PUSH1 0x0 DUP10 PUSH20 0xFFFFFFFFFFFFFFFFFFFFFFFFFFFFFFFFFFFFFFFF AND PUSH20 0xFFFFFFFFFFFFFFFFFFFFFFFFFFFFFFFFFFFFFFFF AND DUP2 MSTORE PUSH1 0x20 ADD SWAP1 DUP2 MSTORE PUSH1 0x20 ADD PUSH1 0x0 KECCAK256 DUP8 DUP4 DUP2 MLOAD DUP2 LT PUSH2 0x4EDB JUMPI INVALID JUMPDEST PUSH1 0x20 MUL PUSH1 0x20 ADD ADD MLOAD DUP2 SLOAD DUP2 LT PUSH2 0x4EED JUMPI INVALID JUMPDEST SWAP1 PUSH1 0x0 MSTORE PUSH1 0x20 PUSH1 0x0 KECCAK256 SWAP1 PUSH1 0x9 MUL ADD PUSH1 0x3 ADD SLOAD DUP2 SLOAD DUP2 LT PUSH2 0x4F09 JUMPI INVALID JUMPDEST SWAP1 PUSH1 0x0 MSTORE PUSH1 0x20 PUSH1 0x0 KECCAK256 SWAP1 PUSH1 0x3 MUL ADD PUSH1 0x2 ADD PUSH1 0x0 SWAP1 SLOAD SWAP1 PUSH2 0x100 EXP SWAP1 DIV PUSH1 0xFF AND DUP1 PUSH2 0x5068 JUMPI POP PUSH2 0x4FF5 PUSH1 0x64 PUSH2 0x4FE7 PUSH1 0x4B PUSH2 0x4FD9 PUSH1 0x4 SLOAD PUSH1 0x5 PUSH1 0x7 PUSH1 0x0 DUP16 PUSH20 0xFFFFFFFFFFFFFFFFFFFFFFFFFFFFFFFFFFFFFFFF AND PUSH20 0xFFFFFFFFFFFFFFFFFFFFFFFFFFFFFFFFFFFFFFFF AND DUP2 MSTORE PUSH1 0x20 ADD SWAP1 DUP2 MSTORE PUSH1 0x20 ADD PUSH1 0x0 KECCAK256 DUP14 DUP10 DUP2 MLOAD DUP2 LT PUSH2 0x4F8B JUMPI INVALID JUMPDEST PUSH1 0x20 MUL PUSH1 0x20 ADD ADD MLOAD DUP2 SLOAD DUP2 LT PUSH2 0x4F9D JUMPI INVALID JUMPDEST SWAP1 PUSH1 0x0 MSTORE PUSH1 0x20 PUSH1 0x0 KECCAK256 SWAP1 PUSH1 0x9 MUL ADD PUSH1 0x3 ADD SLOAD DUP2 SLOAD DUP2 LT PUSH2 0x4FB9 JUMPI INVALID JUMPDEST SWAP1 PUSH1 0x0 MSTORE PUSH1 0x20 PUSH1 0x0 KECCAK256 SWAP1 PUSH1 0x3 MUL ADD PUSH1 0x0 ADD SLOAD PUSH2 0x58C6 SWAP1 SWAP2 SWAP1 PUSH4 0xFFFFFFFF AND JUMP JUMPDEST PUSH2 0x58C6 SWAP1 SWAP2 SWAP1 PUSH4 0xFFFFFFFF AND JUMP JUMPDEST PUSH2 0x593F SWAP1 SWAP2 SWAP1 PUSH4 0xFFFFFFFF AND JUMP JUMPDEST PUSH1 0x7 PUSH1 0x0 DUP10 PUSH20 0xFFFFFFFFFFFFFFFFFFFFFFFFFFFFFFFFFFFFFFFF AND PUSH20 0xFFFFFFFFFFFFFFFFFFFFFFFFFFFFFFFFFFFFFFFF AND DUP2 MSTORE PUSH1 0x20 ADD SWAP1 DUP2 MSTORE PUSH1 0x20 ADD PUSH1 0x0 KECCAK256 DUP8 DUP4 DUP2 MLOAD DUP2 LT PUSH2 0x5040 JUMPI INVALID JUMPDEST PUSH1 0x20 MUL PUSH1 0x20 ADD ADD MLOAD DUP2 SLOAD DUP2 LT PUSH2 0x5052 JUMPI INVALID JUMPDEST SWAP1 PUSH1 0x0 MSTORE PUSH1 0x20 PUSH1 0x0 KECCAK256 SWAP1 PUSH1 0x9 MUL ADD PUSH1 0x1 ADD SLOAD ADD TIMESTAMP GT JUMPDEST JUMPDEST ISZERO PUSH2 0x5135 JUMPI PUSH2 0x5132 PUSH2 0x5123 PUSH1 0x64 PUSH2 0x5115 PUSH1 0x6 DUP10 DUP2 SLOAD DUP2 LT PUSH2 0x5086 JUMPI INVALID JUMPDEST SWAP1 PUSH1 0x0 MSTORE PUSH1 0x20 PUSH1 0x0 KECCAK256 SWAP1 PUSH1 0x3 MUL ADD PUSH1 0x2 ADD SLOAD PUSH1 0x7 PUSH1 0x0 DUP14 PUSH20 0xFFFFFFFFFFFFFFFFFFFFFFFFFFFFFFFFFFFFFFFF AND PUSH20 0xFFFFFFFFFFFFFFFFFFFFFFFFFFFFFFFFFFFFFFFF AND DUP2 MSTORE PUSH1 0x20 ADD SWAP1 DUP2 MSTORE PUSH1 0x20 ADD PUSH1 0x0 KECCAK256 DUP12 DUP8 DUP2 MLOAD DUP2 LT PUSH2 0x50E3 JUMPI INVALID JUMPDEST PUSH1 0x20 MUL PUSH1 0x20 ADD ADD MLOAD DUP2 SLOAD DUP2 LT PUSH2 0x50F5 JUMPI INVALID JUMPDEST SWAP1 PUSH1 0x0 MSTORE PUSH1 0x20 PUSH1 0x0 KECCAK256 SWAP1 PUSH1 0x9 MUL ADD PUSH1 0x0 ADD SLOAD PUSH2 0x58C6 SWAP1 SWAP2 SWAP1 PUSH4 0xFFFFFFFF AND JUMP JUMPDEST PUSH2 0x593F SWAP1 SWAP2 SWAP1 PUSH4 0xFFFFFFFF AND JUMP JUMPDEST DUP4 PUSH2 0x5900 SWAP1 SWAP2 SWAP1 PUSH4 0xFFFFFFFF AND JUMP JUMPDEST SWAP2 POP JUMPDEST DUP1 DUP1 PUSH1 0x1 ADD SWAP2 POP POP PUSH2 0x4E60 JUMP JUMPDEST POP DUP1 SWAP3 POP POP POP SWAP4 SWAP3 POP POP POP JUMP JUMPDEST PUSH1 0x0 DUP3 GT PUSH2 0x515C JUMPI PUSH1 0x0 DUP1 REVERT JUMPDEST PUSH1 0x2 PUSH1 0x0 SWAP1 SLOAD SWAP1 PUSH2 0x100 EXP SWAP1 DIV PUSH20 0xFFFFFFFFFFFFFFFFFFFFFFFFFFFFFFFFFFFFFFFF AND PUSH20 0xFFFFFFFFFFFFFFFFFFFFFFFFFFFFFFFFFFFFFFFF AND PUSH4 0x23B872DD CALLER ADDRESS DUP6 PUSH1 0x40 MLOAD DUP5 PUSH4 0xFFFFFFFF AND PUSH1 0xE0 SHL DUP2 MSTORE PUSH1 0x4 ADD DUP1 DUP5 PUSH20 0xFFFFFFFFFFFFFFFFFFFFFFFFFFFFFFFFFFFFFFFF AND PUSH20 0xFFFFFFFFFFFFFFFFFFFFFFFFFFFFFFFFFFFFFFFF AND DUP2 MSTORE PUSH1 0x20 ADD DUP4 PUSH20 0xFFFFFFFFFFFFFFFFFFFFFFFFFFFFFFFFFFFFFFFF AND PUSH20 0xFFFFFFFFFFFFFFFFFFFFFFFFFFFFFFFFFFFFFFFF AND DUP2 MSTORE PUSH1 0x20 ADD DUP3 DUP2 MSTORE PUSH1 0x20 ADD SWAP4 POP POP POP POP PUSH1 0x20 PUSH1 0x40 MLOAD DUP1 DUP4 SUB DUP2 PUSH1 0x0 DUP8 DUP1 EXTCODESIZE ISZERO DUP1 ISZERO PUSH2 0x5239 JUMPI PUSH1 0x0 DUP1 REVERT JUMPDEST POP GAS CALL ISZERO DUP1 ISZERO PUSH2 0x524D JUMPI RETURNDATASIZE PUSH1 0x0 DUP1 RETURNDATACOPY RETURNDATASIZE PUSH1 0x0 REVERT JUMPDEST POP POP POP POP PUSH1 0x40 MLOAD RETURNDATASIZE PUSH1 0x20 DUP2 LT ISZERO PUSH2 0x5263 JUMPI PUSH1 0x0 DUP1 REVERT JUMPDEST DUP2 ADD SWAP1 DUP1 DUP1 MLOAD SWAP1 PUSH1 0x20 ADD SWAP1 SWAP3 SWAP2 SWAP1 POP POP POP PUSH2 0x527D JUMPI PUSH1 0x0 DUP1 REVERT JUMPDEST PUSH1 0x0 PUSH1 0x5 DUP3 DUP2 SLOAD DUP2 LT PUSH2 0x528C JUMPI INVALID JUMPDEST SWAP1 PUSH1 0x0 MSTORE PUSH1 0x20 PUSH1 0x0 KECCAK256 SWAP1 PUSH1 0x3 MUL ADD PUSH1 0x0 ADD SLOAD PUSH2 0x52A6 PUSH2 0x4712 JUMP JUMPDEST ADD SWAP1 POP PUSH1 0x0 PUSH1 0x1 PUSH2 0x52B5 PUSH2 0x4712 JUMP JUMPDEST ADD SWAP1 POP JUMPDEST DUP2 DUP2 GT PUSH2 0x530A JUMPI PUSH2 0x52E6 DUP5 PUSH1 0xA PUSH1 0x0 DUP5 DUP2 MSTORE PUSH1 0x20 ADD SWAP1 DUP2 MSTORE PUSH1 0x20 ADD PUSH1 0x0 KECCAK256 SLOAD PUSH2 0x5900 SWAP1 SWAP2 SWAP1 PUSH4 0xFFFFFFFF AND JUMP JUMPDEST PUSH1 0xA PUSH1 0x0 DUP4 DUP2 MSTORE PUSH1 0x20 ADD SWAP1 DUP2 MSTORE PUSH1 0x20 ADD PUSH1 0x0 KECCAK256 DUP2 SWAP1 SSTORE POP DUP1 DUP1 PUSH1 0x1 ADD SWAP2 POP POP PUSH2 0x52B9 JUMP JUMPDEST POP PUSH1 0x7 PUSH1 0x0 CALLER PUSH20 0xFFFFFFFFFFFFFFFFFFFFFFFFFFFFFFFFFFFFFFFF AND PUSH20 0xFFFFFFFFFFFFFFFFFFFFFFFFFFFFFFFFFFFFFFFF AND DUP2 MSTORE PUSH1 0x20 ADD SWAP1 DUP2 MSTORE PUSH1 0x20 ADD PUSH1 0x0 KECCAK256 PUSH1 0x40 MLOAD DUP1 PUSH1 0xE0 ADD PUSH1 0x40 MSTORE DUP1 DUP6 DUP2 MSTORE PUSH1 0x20 ADD TIMESTAMP DUP2 MSTORE PUSH1 0x20 ADD PUSH2 0x5369 PUSH2 0x4712 JUMP JUMPDEST DUP2 MSTORE PUSH1 0x20 ADD DUP5 DUP2 MSTORE PUSH1 0x20 ADD PUSH1 0x1 DUP2 MSTORE PUSH1 0x20 ADD PUSH1 0x0 DUP2 MSTORE PUSH1 0x20 ADD PUSH1 0x0 DUP2 MSTORE POP SWAP1 DUP1 PUSH1 0x1 DUP2 SLOAD ADD DUP1 DUP3 SSTORE DUP1 SWAP2 POP POP SWAP1 PUSH1 0x1 DUP3 SUB SWAP1 PUSH1 0x0 MSTORE PUSH1 0x20 PUSH1 0x0 KECCAK256 SWAP1 PUSH1 0x9 MUL ADD PUSH1 0x0 SWAP1 SWAP2 SWAP3 SWAP1 SWAP2 SWAP1 SWAP2 POP PUSH1 0x0 DUP3 ADD MLOAD DUP2 PUSH1 0x0 ADD SSTORE PUSH1 0x20 DUP3 ADD MLOAD DUP2 PUSH1 0x1 ADD SSTORE PUSH1 0x40 DUP3 ADD MLOAD DUP2 PUSH1 0x2 ADD SSTORE PUSH1 0x60 DUP3 ADD MLOAD DUP2 PUSH1 0x3 ADD SSTORE PUSH1 0x80 DUP3 ADD MLOAD DUP2 PUSH1 0x4 ADD SSTORE PUSH1 0xA0 DUP3 ADD MLOAD DUP2 PUSH1 0x5 ADD SSTORE PUSH1 0xC0 DUP3 ADD MLOAD DUP2 PUSH1 0x6 ADD SSTORE POP POP POP DUP2 CALLER PUSH20 0xFFFFFFFFFFFFFFFFFFFFFFFFFFFFFFFFFFFFFFFF AND PUSH32 0x680A0E2E97AD7C29DA7985E37B699F19857C055166F801E50D90661EAE30FCC3 DUP6 PUSH1 0x1 PUSH1 0x7 PUSH1 0x0 CALLER PUSH20 0xFFFFFFFFFFFFFFFFFFFFFFFFFFFFFFFFFFFFFFFF AND PUSH20 0xFFFFFFFFFFFFFFFFFFFFFFFFFFFFFFFFFFFFFFFF AND DUP2 MSTORE PUSH1 0x20 ADD SWAP1 DUP2 MSTORE PUSH1 0x20 ADD PUSH1 0x0 KECCAK256 DUP1 SLOAD SWAP1 POP SUB PUSH1 0x40 MLOAD DUP1 DUP4 DUP2 MSTORE PUSH1 0x20 ADD DUP3 DUP2 MSTORE PUSH1 0x20 ADD SWAP3 POP POP POP PUSH1 0x40 MLOAD DUP1 SWAP2 SUB SWAP1 LOG3 POP POP POP JUMP JUMPDEST PUSH1 0x0 SLOAD DUP2 JUMP JUMPDEST PUSH1 0x3 PUSH1 0x0 SWAP1 SLOAD SWAP1 PUSH2 0x100 EXP SWAP1 DIV PUSH20 0xFFFFFFFFFFFFFFFFFFFFFFFFFFFFFFFFFFFFFFFF AND PUSH20 0xFFFFFFFFFFFFFFFFFFFFFFFFFFFFFFFFFFFFFFFF AND CALLER PUSH20 0xFFFFFFFFFFFFFFFFFFFFFFFFFFFFFFFFFFFFFFFF AND EQ PUSH2 0x54FC JUMPI PUSH1 0x0 DUP1 REVERT JUMPDEST PUSH1 0xB DUP2 SWAP1 DUP1 PUSH1 0x1 DUP2 SLOAD ADD DUP1 DUP3 SSTORE DUP1 SWAP2 POP POP SWAP1 PUSH1 0x1 DUP3 SUB SWAP1 PUSH1 0x0 MSTORE PUSH1 0x20 PUSH1 0x0 KECCAK256 ADD PUSH1 0x0 SWAP1 SWAP2 SWAP3 SWAP1 SWAP2 SWAP1 SWAP2 POP SSTORE POP POP JUMP JUMPDEST PUSH1 0x0 DUP1 SWAP1 POP JUMPDEST DUP2 MLOAD DUP2 LT ISZERO PUSH2 0x589C JUMPI PUSH2 0x565B PUSH2 0x55DE PUSH1 0x4 SLOAD PUSH1 0x5 PUSH1 0x7 PUSH1 0x0 CALLER PUSH20 0xFFFFFFFFFFFFFFFFFFFFFFFFFFFFFFFFFFFFFFFF AND PUSH20 0xFFFFFFFFFFFFFFFFFFFFFFFFFFFFFFFFFFFFFFFF AND DUP2 MSTORE PUSH1 0x20 ADD SWAP1 DUP2 MSTORE PUSH1 0x20 ADD PUSH1 0x0 KECCAK256 DUP7 DUP7 DUP2 MLOAD DUP2 LT PUSH2 0x5590 JUMPI INVALID JUMPDEST PUSH1 0x20 MUL PUSH1 0x20 ADD ADD MLOAD DUP2 SLOAD DUP2 LT PUSH2 0x55A2 JUMPI INVALID JUMPDEST SWAP1 PUSH1 0x0 MSTORE PUSH1 0x20 PUSH1 0x0 KECCAK256 SWAP1 PUSH1 0x9 MUL ADD PUSH1 0x3 ADD SLOAD DUP2 SLOAD DUP2 LT PUSH2 0x55BE JUMPI INVALID JUMPDEST SWAP1 PUSH1 0x0 MSTORE PUSH1 0x20 PUSH1 0x0 KECCAK256 SWAP1 PUSH1 0x3 MUL ADD PUSH1 0x0 ADD SLOAD PUSH2 0x58C6 SWAP1 SWAP2 SWAP1 PUSH4 0xFFFFFFFF AND JUMP JUMPDEST PUSH1 0x7 PUSH1 0x0 CALLER PUSH20 0xFFFFFFFFFFFFFFFFFFFFFFFFFFFFFFFFFFFFFFFF AND PUSH20 0xFFFFFFFFFFFFFFFFFFFFFFFFFFFFFFFFFFFFFFFF AND DUP2 MSTORE PUSH1 0x20 ADD SWAP1 DUP2 MSTORE PUSH1 0x20 ADD PUSH1 0x0 KECCAK256 DUP5 DUP5 DUP2 MLOAD DUP2 LT PUSH2 0x5629 JUMPI INVALID JUMPDEST PUSH1 0x20 MUL PUSH1 0x20 ADD ADD MLOAD DUP2 SLOAD DUP2 LT PUSH2 0x563B JUMPI INVALID JUMPDEST SWAP1 PUSH1 0x0 MSTORE PUSH1 0x20 PUSH1 0x0 KECCAK256 SWAP1 PUSH1 0x9 MUL ADD PUSH1 0x1 ADD SLOAD PUSH2 0x5900 SWAP1 SWAP2 SWAP1 PUSH4 0xFFFFFFFF AND JUMP JUMPDEST TIMESTAMP LT ISZERO PUSH2 0x5667 JUMPI PUSH1 0x0 DUP1 REVERT JUMPDEST PUSH1 0x3 PUSH1 0x7 PUSH1 0x0 CALLER PUSH20 0xFFFFFFFFFFFFFFFFFFFFFFFFFFFFFFFFFFFFFFFF AND PUSH20 0xFFFFFFFFFFFFFFFFFFFFFFFFFFFFFFFFFFFFFFFF AND DUP2 MSTORE PUSH1 0x20 ADD SWAP1 DUP2 MSTORE PUSH1 0x20 ADD PUSH1 0x0 KECCAK256 DUP4 DUP4 DUP2 MLOAD DUP2 LT PUSH2 0x56B4 JUMPI INVALID JUMPDEST PUSH1 0x20 MUL PUSH1 0x20 ADD ADD MLOAD DUP2 SLOAD DUP2 LT PUSH2 0x56C6 JUMPI INVALID JUMPDEST SWAP1 PUSH1 0x0 MSTORE PUSH1 0x20 PUSH1 0x0 KECCAK256 SWAP1 PUSH1 0x9 MUL ADD PUSH1 0x4 ADD DUP2 SWAP1 SSTORE POP PUSH1 0x2 PUSH1 0x0 SWAP1 SLOAD SWAP1 PUSH2 0x100 EXP SWAP1 DIV PUSH20 0xFFFFFFFFFFFFFFFFFFFFFFFFFFFFFFFFFFFFFFFF AND PUSH20 0xFFFFFFFFFFFFFFFFFFFFFFFFFFFFFFFFFFFFFFFF AND PUSH4 0xA9059CBB CALLER PUSH1 0x7 PUSH1 0x0 CALLER PUSH20 0xFFFFFFFFFFFFFFFFFFFFFFFFFFFFFFFFFFFFFFFF AND PUSH20 0xFFFFFFFFFFFFFFFFFFFFFFFFFFFFFFFFFFFFFFFF AND DUP2 MSTORE PUSH1 0x20 ADD SWAP1 DUP2 MSTORE PUSH1 0x20 ADD PUSH1 0x0 KECCAK256 DUP6 DUP6 DUP2 MLOAD DUP2 LT PUSH2 0x5765 JUMPI INVALID JUMPDEST PUSH1 0x20 MUL PUSH1 0x20 ADD ADD MLOAD DUP2 SLOAD DUP2 LT PUSH2 0x5777 JUMPI INVALID JUMPDEST SWAP1 PUSH1 0x0 MSTORE PUSH1 0x20 PUSH1 0x0 KECCAK256 SWAP1 PUSH1 0x9 MUL ADD PUSH1 0x0 ADD SLOAD PUSH1 0x40 MLOAD DUP4 PUSH4 0xFFFFFFFF AND PUSH1 0xE0 SHL DUP2 MSTORE PUSH1 0x4 ADD DUP1 DUP4 PUSH20 0xFFFFFFFFFFFFFFFFFFFFFFFFFFFFFFFFFFFFFFFF AND PUSH20 0xFFFFFFFFFFFFFFFFFFFFFFFFFFFFFFFFFFFFFFFF AND DUP2 MSTORE PUSH1 0x20 ADD DUP3 DUP2 MSTORE PUSH1 0x20 ADD SWAP3 POP POP POP PUSH1 0x20 PUSH1 0x40 MLOAD DUP1 DUP4 SUB DUP2 PUSH1 0x0 DUP8 DUP1 EXTCODESIZE ISZERO DUP1 ISZERO PUSH2 0x57F2 JUMPI PUSH1 0x0 DUP1 REVERT JUMPDEST POP GAS CALL ISZERO DUP1 ISZERO PUSH2 0x5806 JUMPI RETURNDATASIZE PUSH1 0x0 DUP1 RETURNDATACOPY RETURNDATASIZE PUSH1 0x0 REVERT JUMPDEST POP POP POP POP PUSH1 0x40 MLOAD RETURNDATASIZE PUSH1 0x20 DUP2 LT ISZERO PUSH2 0x581C JUMPI PUSH1 0x0 DUP1 REVERT JUMPDEST DUP2 ADD SWAP1 DUP1 DUP1 MLOAD SWAP1 PUSH1 0x20 ADD SWAP1 SWAP3 SWAP2 SWAP1 POP POP POP POP CALLER PUSH20 0xFFFFFFFFFFFFFFFFFFFFFFFFFFFFFFFFFFFFFFFF AND PUSH32 0x4854321CC9BE1D947B907185D497D36FE671CFB8F0DCBCDC84A01BE76F81BFF2 DUP4 DUP4 DUP2 MLOAD DUP2 LT PUSH2 0x5872 JUMPI INVALID JUMPDEST PUSH1 0x20 MUL PUSH1 0x20 ADD ADD MLOAD PUSH1 0x40 MLOAD DUP1 DUP3 DUP2 MSTORE PUSH1 0x20 ADD SWAP2 POP POP PUSH1 0x40 MLOAD DUP1 SWAP2 SUB SWAP1 LOG2 DUP1 DUP1 PUSH1 0x1 ADD SWAP2 POP POP PUSH2 0x5531 JUMP JUMPDEST POP POP JUMP JUMPDEST PUSH1 0x2 PUSH1 0x0 SWAP1 SLOAD SWAP1 PUSH2 0x100 EXP SWAP1 DIV PUSH20 0xFFFFFFFFFFFFFFFFFFFFFFFFFFFFFFFFFFFFFFFF AND DUP2 JUMP JUMPDEST PUSH1 0x0 DUP1 DUP4 EQ ISZERO PUSH2 0x58D9 JUMPI PUSH1 0x0 SWAP1 POP PUSH2 0x58FA JUMP JUMPDEST PUSH1 0x0 DUP3 DUP5 MUL SWAP1 POP DUP3 DUP5 DUP3 DUP2 PUSH2 0x58EA JUMPI INVALID JUMPDEST DIV EQ PUSH2 0x58F5 JUMPI PUSH1 0x0 DUP1 REVERT JUMPDEST DUP1 SWAP2 POP POP JUMPDEST SWAP3 SWAP2 POP POP JUMP JUMPDEST PUSH1 0x0 DUP1 DUP3 DUP5 ADD SWAP1 POP DUP4 DUP2 LT ISZERO PUSH2 0x5915 JUMPI PUSH1 0x0 DUP1 REVERT JUMPDEST DUP1 SWAP2 POP POP SWAP3 SWAP2 POP POP JUMP JUMPDEST PUSH1 0x0 DUP3 DUP3 GT ISZERO PUSH2 0x592E JUMPI PUSH1 0x0 DUP1 REVERT JUMPDEST PUSH1 0x0 DUP3 DUP5 SUB SWAP1 POP DUP1 SWAP2 POP POP SWAP3 SWAP2 POP POP JUMP JUMPDEST PUSH1 0x0 DUP1 DUP3 GT PUSH2 0x594D JUMPI PUSH1 0x0 DUP1 REVERT JUMPDEST PUSH1 0x0 DUP3 DUP5 DUP2 PUSH2 0x5958 JUMPI INVALID JUMPDEST DIV SWAP1 POP DUP1 SWAP2 POP POP SWAP3 SWAP2 POP POP JUMP JUMPDEST DUP3 DUP1 SLOAD DUP3 DUP3 SSTORE SWAP1 PUSH1 0x0 MSTORE PUSH1 0x20 PUSH1 0x0 KECCAK256 SWAP1 DUP2 ADD SWAP3 DUP3 ISZERO PUSH2 0x59A1 JUMPI SWAP2 PUSH1 0x20 MUL DUP3 ADD JUMPDEST DUP3 DUP2 GT ISZERO PUSH2 0x59A0 JUMPI DUP3 MLOAD DUP3 SSTORE SWAP2 PUSH1 0x20 ADD SWAP2 SWAP1 PUSH1 0x1 ADD SWAP1 PUSH2 0x5985 JUMP JUMPDEST JUMPDEST POP SWAP1 POP PUSH2 0x59AE SWAP2 SWAP1 PUSH2 0x59B2 JUMP JUMPDEST POP SWAP1 JUMP JUMPDEST PUSH2 0x59D4 SWAP2 SWAP1 JUMPDEST DUP1 DUP3 GT ISZERO PUSH2 0x59D0 JUMPI PUSH1 0x0 DUP2 PUSH1 0x0 SWAP1 SSTORE POP PUSH1 0x1 ADD PUSH2 0x59B8 JUMP JUMPDEST POP SWAP1 JUMP JUMPDEST SWAP1 JUMP INVALID LOG2 PUSH6 0x627A7A723058 KECCAK256 LOG3 0x26 ADDMOD 0x23 BALANCE SWAP3 CALLCODE 0xf7 EXTCODECOPY PUSH3 0x8FC0EF PUSH12 0x86399DC71A658CA6F2F7A3CF 0xc3 BALANCE EXTCODECOPY LOG0 ISZERO SLT PUSH5 0x736F6C6343 STOP SDIV EXP STOP ORIGIN "},"gasEstimates":{"creation":{"codeDepositCost":"4610400","executionCost":"infinite","totalCost":"infinite"},"external":{"addNominee(uint256,address,uint256)":"infinite","burnDefaultedLoans(address[],uint256[])":"infinite","claimLaunchReward(uint256)":"infinite","createLoanPlan(uint256,uint256,uint256)":"81154","createStakingPlan(uint256,uint256,bool)":"81424","deployedTimestamp()":"471","earthSecondsInMonth()":"473","getCurrentMonth()":"494","getNumberOfStakingsByUser(address)":"716","giveLaunchReward(address[],uint256[])":"infinite","increaseMonth(uint256)":"40917","isStakingActive(address,uint256,uint256)":"infinite","launchReward(address)":"614","loanPlans(uint256)":"1314","loans(address,uint256)":"1645","newStaking(uint256,uint256)":"infinite","nomineeWithdraw(address,uint256)":"infinite","nrtManager()":"500","owner()":"542","removeNominee(uint256,address)":"infinite","repayLoanSelf(uint256)":"infinite","seeBenefitOfAStakingByMonths(address,uint256,uint256[])":"infinite","seeMaxLoaningAmountOnUserStakings(address,uint256[],uint256)":"infinite","stakingPlans(uint256)":"1407","stakings(address,uint256)":"2386","takeLoanOnSelfStaking(uint256,uint256,uint256[])":"infinite","timeAllyMonthlyNRT(uint256)":"893","token()":"585","topupRewardBucket(uint256)":"infinite","totalActiveStakings(uint256)":"653","viewNomination(address,uint256,address)":"1115","withdrawBenefitOfAStakingByMonths(uint256,uint256[])":"infinite","withdrawExpiredStakings(uint256[])":"infinite"}},"methodIdentifiers":{"addNominee(uint256,address,uint256)":"a4c0e90a","burnDefaultedLoans(address[],uint256[])":"16d3e966","claimLaunchReward(uint256)":"da9d8aa0","createLoanPlan(uint256,uint256,uint256)":"d1cf31b3","createStakingPlan(uint256,uint256,bool)":"778db8d4","deployedTimestamp()":"e6bbe424","earthSecondsInMonth()":"582e7e9e","getCurrentMonth()":"ddd1b67e","getNumberOfStakingsByUser(address)":"ad998fa0","giveLaunchReward(address[],uint256[])":"88c5f296","increaseMonth(uint256)":"e78c81c4","isStakingActive(address,uint256,uint256)":"d58424a3","launchReward(address)":"7acab857","loanPlans(uint256)":"cc44a2fd","loans(address,uint256)":"98c61c37","newStaking(uint256,uint256)":"e5fd04e6","nomineeWithdraw(address,uint256)":"911e8bc6","nrtManager()":"0df5202f","owner()":"8da5cb5b","removeNominee(uint256,address)":"4f916fb0","repayLoanSelf(uint256)":"dea6cf43","seeBenefitOfAStakingByMonths(address,uint256,uint256[])":"2c779774","seeMaxLoaningAmountOnUserStakings(address,uint256[],uint256)":"df90f7ce","stakingPlans(uint256)":"762e7a34","stakings(address,uint256)":"1849d8ea","takeLoanOnSelfStaking(uint256,uint256,uint256[])":"d0e32681","timeAllyMonthlyNRT(uint256)":"23a15e6b","token()":"fc0c546a","topupRewardBucket(uint256)":"53fcb2f3","totalActiveStakings(uint256)":"4ec0692c","viewNomination(address,uint256,address)":"2e9721b6","withdrawBenefitOfAStakingByMonths(uint256,uint256[])":"9d0b8b44","withdrawExpiredStakings(uint256[])":"e83f7843"}},"userdoc":{"methods":{"addNominee(uint256,address,uint256)":{"notice":"this function is used to add nominee to a staking"},"claimLaunchReward(uint256)":{"notice":"this function is used by rewardees to claim their accrued rewards. This is also used by stakers to restake their 50% benefit received as rewards"},"constructor":"sets up TimeAlly contract when deployed","createLoanPlan(uint256,uint256,uint256)":{"notice":"this function is used by owner to create plans for new loans"},"createStakingPlan(uint256,uint256,bool)":{"notice":"this function is used by owner to create plans for new stakings"},"getCurrentMonth()":{"notice":"TimeAlly month is dependent on the monthly NRT release"},"getNumberOfStakingsByUser(address)":{"notice":"this function is used to see total stakings of any user of TimeAlly"},"giveLaunchReward(address[],uint256[])":{"notice":"this function is used to send rewards to multiple users"},"increaseMonth(uint256)":{"notice":"this function is used by NRT manager to communicate NRT release to TimeAlly"},"isStakingActive(address,uint256,uint256)":{"notice":"used internally to see if staking is active or not. does not include if staking is claimed."},"newStaking(uint256,uint256)":{"notice":"takes ES from user and locks it for a time according to plan selected by user"},"nomineeWithdraw(address,uint256)":{"notice":"this function is used by nominee to withdraw their share of a staking after 1 year of the end of tenure of staking"},"removeNominee(uint256,address)":{"notice":"this function is used to remove nomination of a address"},"repayLoanSelf(uint256)":{"notice":"repay loan functionality"},"seeBenefitOfAStakingByMonths(address,uint256,uint256[])":{"notice":"this function is used for seeing the benefits of a staking of any user"},"seeMaxLoaningAmountOnUserStakings(address,uint256[],uint256)":{"notice":"this function is used to estimate the maximum amount of loan that any user can take with their stakings"},"takeLoanOnSelfStaking(uint256,uint256,uint256[])":{"notice":"this function is used to take loan on multiple stakings"},"topupRewardBucket(uint256)":{"notice":"this function is used to topup reward balance in smart contract. Rewards are transferable. Anyone with reward balance can only claim it as a new staking."},"viewNomination(address,uint256,address)":{"notice":"this function is used to read the nomination of a nominee address of a staking of a user"},"withdrawBenefitOfAStakingByMonths(uint256,uint256[])":{"notice":"this function is used for withdrawing the benefits of a staking of any user"},"withdrawExpiredStakings(uint256[])":{"notice":"this function is used to withdraw the principle amount of multiple stakings which have their tenure completed"}}}}