{"abi":[{"constant":true,"inputs":[],"name":"nrtManager","outputs":[{"name":"","type":"address"}],"payable":false,"stateMutability":"view","type":"function"},{"constant":false,"inputs":[{"name":"_stakingId","type":"uint256"},{"name":"_nomineeAddress","type":"address"},{"name":"_shares","type":"uint256"}],"name":"updateNominee","outputs":[],"payable":false,"stateMutability":"nonpayable","type":"function"},{"constant":true,"inputs":[{"name":"","type":"uint256"}],"name":"timeAllyMonthlyNRT","outputs":[{"name":"","type":"uint256"}],"payable":false,"stateMutability":"view","type":"function"},{"constant":true,"inputs":[{"name":"_userAddress","type":"address"},{"name":"_stakingId","type":"uint256"},{"name":"_nomineeAddress","type":"address"}],"name":"viewNomination","outputs":[{"name":"","type":"uint256"}],"payable":false,"stateMutability":"view","type":"function"},{"constant":true,"inputs":[{"name":"_userAddress","type":"address"},{"name":"_atMonth","type":"uint256"}],"name":"seeShareForUserByMonth","outputs":[{"name":"","type":"uint256"}],"payable":false,"stateMutability":"view","type":"function"},{"constant":true,"inputs":[{"name":"_userAddress","type":"address"},{"name":"_stakingId","type":"uint256"}],"name":"viewStaking","outputs":[{"name":"","type":"uint256"},{"name":"","type":"uint256"},{"name":"","type":"uint256"},{"name":"","type":"uint256"},{"name":"","type":"uint256"},{"name":"","type":"uint256"}],"payable":false,"stateMutability":"view","type":"function"},{"constant":true,"inputs":[],"name":"timeAllyMonthlyNRTArray","outputs":[{"name":"","type":"uint256[]"}],"payable":false,"stateMutability":"view","type":"function"},{"constant":true,"inputs":[{"name":"","type":"uint256"}],"name":"totalActiveStakings","outputs":[{"name":"","type":"uint256"}],"payable":false,"stateMutability":"view","type":"function"},{"constant":false,"inputs":[{"name":"_stakingId","type":"uint256"},{"name":"_nomineeAddress","type":"address"}],"name":"removeNominee","outputs":[],"payable":false,"stateMutability":"nonpayable","type":"function"},{"constant":false,"inputs":[{"name":"_exaEsAmount","type":"uint256"}],"name":"topupRewardBucket","outputs":[],"payable":false,"stateMutability":"nonpayable","type":"function"},{"constant":true,"inputs":[{"name":"","type":"uint256"}],"name":"stakingPlans","outputs":[{"name":"months","type":"uint256"},{"name":"fractionFrom15","type":"uint256"}],"payable":false,"stateMutability":"view","type":"function"},{"constant":true,"inputs":[{"name":"","type":"address"}],"name":"launchReward","outputs":[{"name":"","type":"uint256"}],"payable":false,"stateMutability":"view","type":"function"},{"constant":false,"inputs":[{"name":"_loanMonths","type":"uint256"},{"name":"_loanRate","type":"uint256"}],"name":"createLoanPlan","outputs":[],"payable":false,"stateMutability":"nonpayable","type":"function"},{"constant":false,"inputs":[{"name":"_addresses","type":"address[]"},{"name":"_exaEsAmountArray","type":"uint256[]"}],"name":"giveLaunchReward","outputs":[],"payable":false,"stateMutability":"nonpayable","type":"function"},{"constant":true,"inputs":[],"name":"owner","outputs":[{"name":"","type":"address"}],"payable":false,"stateMutability":"view","type":"function"},{"constant":false,"inputs":[{"name":"_userAddress","type":"address"},{"name":"_stakingId","type":"uint256"}],"name":"nomineeWithdraw","outputs":[],"payable":false,"stateMutability":"nonpayable","type":"function"},{"constant":true,"inputs":[{"name":"_userAddress","type":"address"},{"name":"_stakingId","type":"uint256"},{"name":"_currentMonth","type":"uint256"},{"name":"_atMonth","type":"uint256"}],"name":"isStakingActive","outputs":[{"name":"","type":"bool"}],"payable":false,"stateMutability":"view","type":"function"},{"constant":false,"inputs":[{"name":"_stakingId","type":"uint256"},{"name":"_nomineeAddress","type":"address"},{"name":"_shares","type":"uint256"}],"name":"addNominee","outputs":[],"payable":false,"stateMutability":"nonpayable","type":"function"},{"constant":true,"inputs":[{"name":"_userAddress","type":"address"}],"name":"getNumberOfStakingsByUser","outputs":[{"name":"","type":"uint256"}],"payable":false,"stateMutability":"view","type":"function"},{"constant":false,"inputs":[{"name":"_atMonth","type":"uint256"},{"name":"_accruedPercentage","type":"uint256"}],"name":"withdrawShareForUserByMonth","outputs":[],"payable":false,"stateMutability":"nonpayable","type":"function"},{"constant":true,"inputs":[{"name":"_userAddress","type":"address"},{"name":"_stakingIds","type":"uint256[]"}],"name":"seeMaxLoaningAmountOnUserStakings","outputs":[{"name":"","type":"uint256"}],"payable":false,"stateMutability":"view","type":"function"},{"constant":false,"inputs":[{"name":"_months","type":"uint256"},{"name":"_fractionFrom15","type":"uint256"}],"name":"createStakingPlan","outputs":[],"payable":false,"stateMutability":"nonpayable","type":"function"},{"constant":true,"inputs":[{"name":"","type":"uint256"}],"name":"loanPlans","outputs":[{"name":"loanMonths","type":"uint256"},{"name":"loanRate","type":"uint256"}],"payable":false,"stateMutability":"view","type":"function"},{"constant":false,"inputs":[{"name":"_loanPlanId","type":"uint256"},{"name":"_exaEsAmount","type":"uint256"},{"name":"_stakingIds","type":"uint256[]"}],"name":"takeLoanOnSelfStaking","outputs":[],"payable":false,"stateMutability":"nonpayable","type":"function"},{"constant":false,"inputs":[{"name":"_stakingPlanId","type":"uint256"}],"name":"claimLaunchReward","outputs":[],"payable":false,"stateMutability":"nonpayable","type":"function"},{"constant":true,"inputs":[],"name":"getCurrentMonth","outputs":[{"name":"","type":"uint256"}],"payable":false,"stateMutability":"view","type":"function"},{"constant":false,"inputs":[{"name":"_loanId","type":"uint256"}],"name":"repayLoanSelf","outputs":[],"payable":false,"stateMutability":"nonpayable","type":"function"},{"constant":false,"inputs":[{"name":"_exaEsAmount","type":"uint256"},{"name":"_stakingPlanId","type":"uint256"}],"name":"newStaking","outputs":[],"payable":false,"stateMutability":"nonpayable","type":"function"},{"constant":false,"inputs":[{"name":"_timeAllyNRT","type":"uint256"}],"name":"increaseMonth","outputs":[],"payable":false,"stateMutability":"nonpayable","type":"function"},{"constant":false,"inputs":[{"name":"_stakings","type":"uint256[]"}],"name":"withdrawExpiredStakings","outputs":[],"payable":false,"stateMutability":"nonpayable","type":"function"},{"constant":true,"inputs":[{"name":"_userAddress","type":"address"},{"name":"_atMonth","type":"uint256"}],"name":"userActiveStakingByMonth","outputs":[{"name":"","type":"uint256"}],"payable":false,"stateMutability":"view","type":"function"},{"constant":true,"inputs":[],"name":"token","outputs":[{"name":"","type":"address"}],"payable":false,"stateMutability":"view","type":"function"},{"inputs":[{"name":"_tokenAddress","type":"address"},{"name":"_nrtAddress","type":"address"}],"payable":false,"stateMutability":"nonpayable","type":"constructor"},{"anonymous":false,"inputs":[{"indexed":true,"name":"_userAddress","type":"address"},{"indexed":true,"name":"_stakePlanId","type":"uint256"},{"indexed":false,"name":"_exaEsAmount","type":"uint256"},{"indexed":false,"name":"_stakingId","type":"uint256"}],"name":"NewStaking","type":"event"},{"anonymous":false,"inputs":[{"indexed":true,"name":"_userAddress","type":"address"},{"indexed":true,"name":"_stakingId","type":"uint256"},{"indexed":true,"name":"_nomineeAddress","type":"address"}],"name":"NomineeNew","type":"event"},{"anonymous":false,"inputs":[{"indexed":true,"name":"_userAddress","type":"address"},{"indexed":true,"name":"_stakingId","type":"uint256"},{"indexed":true,"name":"_nomineeAddress","type":"address"},{"indexed":false,"name":"_liquid","type":"uint256"},{"indexed":false,"name":"_accrued","type":"uint256"}],"name":"NomineeWithdraw","type":"event"},{"anonymous":false,"inputs":[{"indexed":true,"name":"_userAddress","type":"address"},{"indexed":false,"name":"_atMonth","type":"uint256"},{"indexed":false,"name":"_accruedPercentage","type":"uint256"},{"indexed":false,"name":"_liquidShare","type":"uint256"},{"indexed":false,"name":"_accruedShare","type":"uint256"}],"name":"BenefitWithdrawl","type":"event"},{"anonymous":false,"inputs":[{"indexed":true,"name":"_userAddress","type":"address"},{"indexed":true,"name":"_loanPlanId","type":"uint256"},{"indexed":false,"name":"_exaEsAmount","type":"uint256"},{"indexed":false,"name":"_loanInterest","type":"uint256"},{"indexed":false,"name":"_loanId","type":"uint256"}],"name":"NewLoan","type":"event"},{"anonymous":false,"inputs":[{"indexed":true,"name":"_userAddress","type":"address"},{"indexed":false,"name":"_loanId","type":"uint256"}],"name":"RepayLoan","type":"event"}],"devdoc":{"author":"The EraSwap Team","methods":{"createStakingPlan(uint256,uint256)":{"params":{"_fractionFrom15":": NRT fraction (max 15%) benefit to be given to user. rest is sent back to NRT in Luck Pool","_months":": is number of staking months of a plan. for eg. 12 months"}},"getCurrentMonth()":{"return":"current month is the TimeAlly month"}},"title":"TimeAlly Smart Contract"},"evm":{"assembly":"    /* \"TimeAlly.sol\":347:28818  contract TimeAlly {... */\n  mstore(0x40, 0x80)\n    /* \"TimeAlly.sol\":1410:1417  2629744 */\n  0x282070\n    /* \"TimeAlly.sol\":1380:1417  uint256 earthSecondsInMonth = 2629744 */\n  0x04\n  sstore\n    /* \"TimeAlly.sol\":3190:3497  constructor(address _tokenAddress, address _nrtAddress) public {... */\n  callvalue\n    /* \"--CODEGEN--\":8:17   */\n  dup1\n    /* \"--CODEGEN--\":5:7   */\n  iszero\n  tag_1\n  jumpi\n    /* \"--CODEGEN--\":30:31   */\n  0x00\n    /* \"--CODEGEN--\":27:28   */\n  dup1\n    /* \"--CODEGEN--\":20:32   */\n  revert\n    /* \"--CODEGEN--\":5:7   */\ntag_1:\n    /* \"TimeAlly.sol\":3190:3497  constructor(address _tokenAddress, address _nrtAddress) public {... */\n  pop\n  mload(0x40)\n  sub(codesize, bytecodeSize)\n  dup1\n  bytecodeSize\n  dup4\n  codecopy\n  dup2\n  dup2\n  add\n  0x40\n  mstore\n    /* \"--CODEGEN--\":13:15   */\n  0x40\n    /* \"--CODEGEN--\":8:11   */\n  dup2\n    /* \"--CODEGEN--\":5:16   */\n  lt\n    /* \"--CODEGEN--\":2:4   */\n  iszero\n  tag_2\n  jumpi\n    /* \"--CODEGEN--\":29:30   */\n  0x00\n    /* \"--CODEGEN--\":26:27   */\n  dup1\n    /* \"--CODEGEN--\":19:31   */\n  revert\n    /* \"--CODEGEN--\":2:4   */\ntag_2:\n    /* \"TimeAlly.sol\":3190:3497  constructor(address _tokenAddress, address _nrtAddress) public {... */\n  dup2\n  add\n  swap1\n  dup1\n  dup1\n  mload\n  swap1\n  0x20\n  add\n  swap1\n  swap3\n  swap2\n  swap1\n  dup1\n  mload\n  swap1\n  0x20\n  add\n  swap1\n  swap3\n  swap2\n  swap1\n  pop\n  pop\n  pop\n    /* \"TimeAlly.sol\":3271:3281  msg.sender */\n  caller\n    /* \"TimeAlly.sol\":3263:3268  owner */\n  0x01\n  0x00\n    /* \"TimeAlly.sol\":3263:3281  owner = msg.sender */\n  0x0100\n  exp\n  dup2\n  sload\n  dup2\n  0xffffffffffffffffffffffffffffffffffffffff\n  mul\n  not\n  and\n  swap1\n  dup4\n  0xffffffffffffffffffffffffffffffffffffffff\n  and\n  mul\n  or\n  swap1\n  sstore\n  pop\n    /* \"TimeAlly.sol\":3307:3320  _tokenAddress */\n  dup2\n    /* \"TimeAlly.sol\":3291:3296  token */\n  0x02\n  0x00\n    /* \"TimeAlly.sol\":3291:3321  token = Eraswap(_tokenAddress) */\n  0x0100\n  exp\n  dup2\n  sload\n  dup2\n  0xffffffffffffffffffffffffffffffffffffffff\n  mul\n  not\n  and\n  swap1\n  dup4\n  0xffffffffffffffffffffffffffffffffffffffff\n  and\n  mul\n  or\n  swap1\n  sstore\n  pop\n    /* \"TimeAlly.sol\":3355:3366  _nrtAddress */\n  dup1\n    /* \"TimeAlly.sol\":3331:3341  nrtManager */\n  0x03\n  0x00\n    /* \"TimeAlly.sol\":3331:3367  nrtManager = NRTManager(_nrtAddress) */\n  0x0100\n  exp\n  dup2\n  sload\n  dup2\n  0xffffffffffffffffffffffffffffffffffffffff\n  mul\n  not\n  and\n  swap1\n  dup4\n  0xffffffffffffffffffffffffffffffffffffffff\n  and\n  mul\n  or\n  swap1\n  sstore\n  pop\n    /* \"TimeAlly.sol\":3397:3402  token */\n  0x02\n  0x00\n  swap1\n  sload\n  swap1\n  0x0100\n  exp\n  swap1\n  div\n  0xffffffffffffffffffffffffffffffffffffffff\n  and\n    /* \"TimeAlly.sol\":3397:3406  token.mou */\n  0xffffffffffffffffffffffffffffffffffffffff\n  and\n  0xb81f90f3\n    /* \"TimeAlly.sol\":3397:3408  token.mou() */\n  mload(0x40)\n  dup2\n  0xffffffff\n  and\n  0xe0\n  shl\n  dup2\n  mstore\n  0x04\n  add\n  0x20\n  mload(0x40)\n  dup1\n  dup4\n  sub\n  dup2\n  dup7\n  dup1\n  extcodesize\n  iszero\n    /* \"--CODEGEN--\":8:17   */\n  dup1\n    /* \"--CODEGEN--\":5:7   */\n  iszero\n  tag_5\n  jumpi\n    /* \"--CODEGEN--\":30:31   */\n  0x00\n    /* \"--CODEGEN--\":27:28   */\n  dup1\n    /* \"--CODEGEN--\":20:32   */\n  revert\n    /* \"--CODEGEN--\":5:7   */\ntag_5:\n    /* \"TimeAlly.sol\":3397:3408  token.mou() */\n  pop\n  gas\n  staticcall\n  iszero\n    /* \"--CODEGEN--\":8:17   */\n  dup1\n    /* \"--CODEGEN--\":5:7   */\n  iszero\n  tag_6\n  jumpi\n    /* \"--CODEGEN--\":45:61   */\n  returndatasize\n    /* \"--CODEGEN--\":42:43   */\n  0x00\n    /* \"--CODEGEN--\":39:40   */\n  dup1\n    /* \"--CODEGEN--\":24:62   */\n  returndatacopy\n    /* \"--CODEGEN--\":77:93   */\n  returndatasize\n    /* \"--CODEGEN--\":74:75   */\n  0x00\n    /* \"--CODEGEN--\":67:94   */\n  revert\n    /* \"--CODEGEN--\":5:7   */\ntag_6:\n    /* \"TimeAlly.sol\":3397:3408  token.mou() */\n  pop\n  pop\n  pop\n  pop\n  mload(0x40)\n  returndatasize\n    /* \"--CODEGEN--\":13:15   */\n  0x20\n    /* \"--CODEGEN--\":8:11   */\n  dup2\n    /* \"--CODEGEN--\":5:16   */\n  lt\n    /* \"--CODEGEN--\":2:4   */\n  iszero\n  tag_7\n  jumpi\n    /* \"--CODEGEN--\":29:30   */\n  0x00\n    /* \"--CODEGEN--\":26:27   */\n  dup1\n    /* \"--CODEGEN--\":19:31   */\n  revert\n    /* \"--CODEGEN--\":2:4   */\ntag_7:\n    /* \"TimeAlly.sol\":3397:3408  token.mou() */\n  dup2\n  add\n  swap1\n  dup1\n  dup1\n  mload\n  swap1\n  0x20\n  add\n  swap1\n  swap3\n  swap2\n  swap1\n  pop\n  pop\n  pop\n    /* \"TimeAlly.sol\":3377:3394  deployedTimestamp */\n  0x00\n    /* \"TimeAlly.sol\":3377:3408  deployedTimestamp = token.mou() */\n  dup2\n  swap1\n  sstore\n  pop\n    /* \"TimeAlly.sol\":3418:3436  timeAllyMonthlyNRT */\n  0x0b\n    /* \"TimeAlly.sol\":3442:3443  0 */\n  0x00\n    /* \"TimeAlly.sol\":3418:3444  timeAllyMonthlyNRT.push(0) */\n  swap1\n  dup1\n    /* \"--CODEGEN--\":39:40   */\n  0x01\n    /* \"--CODEGEN--\":33:36   */\n  dup2\n    /* \"--CODEGEN--\":27:37   */\n  sload\n    /* \"--CODEGEN--\":23:41   */\n  add\n    /* \"--CODEGEN--\":57:67   */\n  dup1\n    /* \"--CODEGEN--\":52:55   */\n  dup3\n    /* \"--CODEGEN--\":45:68   */\n  sstore\n    /* \"--CODEGEN--\":79:89   */\n  dup1\n    /* \"--CODEGEN--\":72:89   */\n  swap2\n  pop\n    /* \"--CODEGEN--\":0:93   */\n  pop\n    /* \"TimeAlly.sol\":3418:3444  timeAllyMonthlyNRT.push(0) */\n  swap1\n  0x01\n  dup3\n  sub\n  swap1\n  0x00\n  mstore\n  keccak256(0x00, 0x20)\n  add\n  0x00\n  swap1\n  swap2\n  swap3\n  swap1\n  swap2\n  swap1\n  swap2\n  pop\n  sstore\n  pop\n    /* \"TimeAlly.sol\":3190:3497  constructor(address _tokenAddress, address _nrtAddress) public {... */\n  pop\n  pop\n    /* \"TimeAlly.sol\":347:28818  contract TimeAlly {... */\n  dataSize(sub_0)\n  dup1\n  dataOffset(sub_0)\n  0x00\n  codecopy\n  0x00\n  return\nstop\n\nsub_0: assembly {\n        /* \"TimeAlly.sol\":347:28818  contract TimeAlly {... */\n      mstore(0x40, 0x80)\n      callvalue\n        /* \"--CODEGEN--\":8:17   */\n      dup1\n        /* \"--CODEGEN--\":5:7   */\n      iszero\n      tag_1\n      jumpi\n        /* \"--CODEGEN--\":30:31   */\n      0x00\n        /* \"--CODEGEN--\":27:28   */\n      dup1\n        /* \"--CODEGEN--\":20:32   */\n      revert\n        /* \"--CODEGEN--\":5:7   */\n    tag_1:\n        /* \"TimeAlly.sol\":347:28818  contract TimeAlly {... */\n      pop\n      jumpi(tag_2, lt(calldatasize, 0x04))\n      shr(0xe0, calldataload(0x00))\n      dup1\n      0x97a332d8\n      gt\n      tag_35\n      jumpi\n      dup1\n      0xda9d8aa0\n      gt\n      tag_36\n      jumpi\n      dup1\n      0xe78c81c4\n      gt\n      tag_37\n      jumpi\n      dup1\n      0xe78c81c4\n      eq\n      tag_31\n      jumpi\n      dup1\n      0xe83f7843\n      eq\n      tag_32\n      jumpi\n      dup1\n      0xeb12f7f5\n      eq\n      tag_33\n      jumpi\n      dup1\n      0xfc0c546a\n      eq\n      tag_34\n      jumpi\n      jump(tag_2)\n    tag_37:\n      dup1\n      0xda9d8aa0\n      eq\n      tag_27\n      jumpi\n      dup1\n      0xddd1b67e\n      eq\n      tag_28\n      jumpi\n      dup1\n      0xdea6cf43\n      eq\n      tag_29\n      jumpi\n      dup1\n      0xe5fd04e6\n      eq\n      tag_30\n      jumpi\n      jump(tag_2)\n    tag_36:\n      dup1\n      0xbe4ad9c3\n      gt\n      tag_38\n      jumpi\n      dup1\n      0xbe4ad9c3\n      eq\n      tag_23\n      jumpi\n      dup1\n      0xc71d5d58\n      eq\n      tag_24\n      jumpi\n      dup1\n      0xcc44a2fd\n      eq\n      tag_25\n      jumpi\n      dup1\n      0xd0e32681\n      eq\n      tag_26\n      jumpi\n      jump(tag_2)\n    tag_38:\n      dup1\n      0x97a332d8\n      eq\n      tag_19\n      jumpi\n      dup1\n      0xa4c0e90a\n      eq\n      tag_20\n      jumpi\n      dup1\n      0xad998fa0\n      eq\n      tag_21\n      jumpi\n      dup1\n      0xbba91dc0\n      eq\n      tag_22\n      jumpi\n      jump(tag_2)\n    tag_35:\n      dup1\n      0x4f916fb0\n      gt\n      tag_39\n      jumpi\n      dup1\n      0x82f97857\n      gt\n      tag_40\n      jumpi\n      dup1\n      0x82f97857\n      eq\n      tag_15\n      jumpi\n      dup1\n      0x88c5f296\n      eq\n      tag_16\n      jumpi\n      dup1\n      0x8da5cb5b\n      eq\n      tag_17\n      jumpi\n      dup1\n      0x911e8bc6\n      eq\n      tag_18\n      jumpi\n      jump(tag_2)\n    tag_40:\n      dup1\n      0x4f916fb0\n      eq\n      tag_11\n      jumpi\n      dup1\n      0x53fcb2f3\n      eq\n      tag_12\n      jumpi\n      dup1\n      0x762e7a34\n      eq\n      tag_13\n      jumpi\n      dup1\n      0x7acab857\n      eq\n      tag_14\n      jumpi\n      jump(tag_2)\n    tag_39:\n      dup1\n      0x2f3b59ea\n      gt\n      tag_41\n      jumpi\n      dup1\n      0x2f3b59ea\n      eq\n      tag_7\n      jumpi\n      dup1\n      0x46a4d6e3\n      eq\n      tag_8\n      jumpi\n      dup1\n      0x497ec40f\n      eq\n      tag_9\n      jumpi\n      dup1\n      0x4ec0692c\n      eq\n      tag_10\n      jumpi\n      jump(tag_2)\n    tag_41:\n      dup1\n      0x0df5202f\n      eq\n      tag_3\n      jumpi\n      dup1\n      0x218e731f\n      eq\n      tag_4\n      jumpi\n      dup1\n      0x23a15e6b\n      eq\n      tag_5\n      jumpi\n      dup1\n      0x2e9721b6\n      eq\n      tag_6\n      jumpi\n    tag_2:\n      0x00\n      dup1\n      revert\n        /* \"TimeAlly.sol\":1280:1308  NRTManager public nrtManager */\n    tag_3:\n      tag_42\n      tag_43\n      jump\t// in\n    tag_42:\n      mload(0x40)\n      dup1\n      dup3\n      0xffffffffffffffffffffffffffffffffffffffff\n      and\n      0xffffffffffffffffffffffffffffffffffffffff\n      and\n      dup2\n      mstore\n      0x20\n      add\n      swap2\n      pop\n      pop\n      mload(0x40)\n      dup1\n      swap2\n      sub\n      swap1\n      return\n        /* \"TimeAlly.sol\":24088:25125  function updateNominee(uint256 _stakingId, address _nomineeAddress, uint256 _shares) public {... */\n    tag_4:\n      tag_44\n      0x04\n      dup1\n      calldatasize\n      sub\n        /* \"--CODEGEN--\":13:15   */\n      0x60\n        /* \"--CODEGEN--\":8:11   */\n      dup2\n        /* \"--CODEGEN--\":5:16   */\n      lt\n        /* \"--CODEGEN--\":2:4   */\n      iszero\n      tag_45\n      jumpi\n        /* \"--CODEGEN--\":29:30   */\n      0x00\n        /* \"--CODEGEN--\":26:27   */\n      dup1\n        /* \"--CODEGEN--\":19:31   */\n      revert\n        /* \"--CODEGEN--\":2:4   */\n    tag_45:\n        /* \"TimeAlly.sol\":24088:25125  function updateNominee(uint256 _stakingId, address _nomineeAddress, uint256 _shares) public {... */\n      dup2\n      add\n      swap1\n      dup1\n      dup1\n      calldataload\n      swap1\n      0x20\n      add\n      swap1\n      swap3\n      swap2\n      swap1\n      dup1\n      calldataload\n      0xffffffffffffffffffffffffffffffffffffffff\n      and\n      swap1\n      0x20\n      add\n      swap1\n      swap3\n      swap2\n      swap1\n      dup1\n      calldataload\n      swap1\n      0x20\n      add\n      swap1\n      swap3\n      swap2\n      swap1\n      pop\n      pop\n      pop\n      tag_46\n      jump\t// in\n    tag_44:\n      stop\n        /* \"TimeAlly.sol\":1920:1955  uint256[] public timeAllyMonthlyNRT */\n    tag_5:\n      tag_47\n      0x04\n      dup1\n      calldatasize\n      sub\n        /* \"--CODEGEN--\":13:15   */\n      0x20\n        /* \"--CODEGEN--\":8:11   */\n      dup2\n        /* \"--CODEGEN--\":5:16   */\n      lt\n        /* \"--CODEGEN--\":2:4   */\n      iszero\n      tag_48\n      jumpi\n        /* \"--CODEGEN--\":29:30   */\n      0x00\n        /* \"--CODEGEN--\":26:27   */\n      dup1\n        /* \"--CODEGEN--\":19:31   */\n      revert\n        /* \"--CODEGEN--\":2:4   */\n    tag_48:\n        /* \"TimeAlly.sol\":1920:1955  uint256[] public timeAllyMonthlyNRT */\n      dup2\n      add\n      swap1\n      dup1\n      dup1\n      calldataload\n      swap1\n      0x20\n      add\n      swap1\n      swap3\n      swap2\n      swap1\n      pop\n      pop\n      pop\n      tag_49\n      jump\t// in\n    tag_47:\n      mload(0x40)\n      dup1\n      dup3\n      dup2\n      mstore\n      0x20\n      add\n      swap2\n      pop\n      pop\n      mload(0x40)\n      dup1\n      swap2\n      sub\n      swap1\n      return\n        /* \"TimeAlly.sol\":23875:24082  function viewNomination(address _userAddress, uint256 _stakingId, address _nomineeAddress) public view returns (uint256) {... */\n    tag_6:\n      tag_50\n      0x04\n      dup1\n      calldatasize\n      sub\n        /* \"--CODEGEN--\":13:15   */\n      0x60\n        /* \"--CODEGEN--\":8:11   */\n      dup2\n        /* \"--CODEGEN--\":5:16   */\n      lt\n        /* \"--CODEGEN--\":2:4   */\n      iszero\n      tag_51\n      jumpi\n        /* \"--CODEGEN--\":29:30   */\n      0x00\n        /* \"--CODEGEN--\":26:27   */\n      dup1\n        /* \"--CODEGEN--\":19:31   */\n      revert\n        /* \"--CODEGEN--\":2:4   */\n    tag_51:\n        /* \"TimeAlly.sol\":23875:24082  function viewNomination(address _userAddress, uint256 _stakingId, address _nomineeAddress) public view returns (uint256) {... */\n      dup2\n      add\n      swap1\n      dup1\n      dup1\n      calldataload\n      0xffffffffffffffffffffffffffffffffffffffff\n      and\n      swap1\n      0x20\n      add\n      swap1\n      swap3\n      swap2\n      swap1\n      dup1\n      calldataload\n      swap1\n      0x20\n      add\n      swap1\n      swap3\n      swap2\n      swap1\n      dup1\n      calldataload\n      0xffffffffffffffffffffffffffffffffffffffff\n      and\n      swap1\n      0x20\n      add\n      swap1\n      swap3\n      swap2\n      swap1\n      pop\n      pop\n      pop\n      tag_52\n      jump\t// in\n    tag_50:\n      mload(0x40)\n      dup1\n      dup3\n      dup2\n      mstore\n      0x20\n      add\n      swap2\n      pop\n      pop\n      mload(0x40)\n      dup1\n      swap2\n      sub\n      swap1\n      return\n        /* \"TimeAlly.sol\":10316:11569  function seeShareForUserByMonth(address _userAddress, uint256 _atMonth) public view returns (uint256) {... */\n    tag_7:\n      tag_53\n      0x04\n      dup1\n      calldatasize\n      sub\n        /* \"--CODEGEN--\":13:15   */\n      0x40\n        /* \"--CODEGEN--\":8:11   */\n      dup2\n        /* \"--CODEGEN--\":5:16   */\n      lt\n        /* \"--CODEGEN--\":2:4   */\n      iszero\n      tag_54\n      jumpi\n        /* \"--CODEGEN--\":29:30   */\n      0x00\n        /* \"--CODEGEN--\":26:27   */\n      dup1\n        /* \"--CODEGEN--\":19:31   */\n      revert\n        /* \"--CODEGEN--\":2:4   */\n    tag_54:\n        /* \"TimeAlly.sol\":10316:11569  function seeShareForUserByMonth(address _userAddress, uint256 _atMonth) public view returns (uint256) {... */\n      dup2\n      add\n      swap1\n      dup1\n      dup1\n      calldataload\n      0xffffffffffffffffffffffffffffffffffffffff\n      and\n      swap1\n      0x20\n      add\n      swap1\n      swap3\n      swap2\n      swap1\n      dup1\n      calldataload\n      swap1\n      0x20\n      add\n      swap1\n      swap3\n      swap2\n      swap1\n      pop\n      pop\n      pop\n      tag_55\n      jump\t// in\n    tag_53:\n      mload(0x40)\n      dup1\n      dup3\n      dup2\n      mstore\n      0x20\n      add\n      swap2\n      pop\n      pop\n      mload(0x40)\n      dup1\n      swap2\n      sub\n      swap1\n      return\n        /* \"TimeAlly.sol\":5979:6603  function viewStaking(... */\n    tag_8:\n      tag_56\n      0x04\n      dup1\n      calldatasize\n      sub\n        /* \"--CODEGEN--\":13:15   */\n      0x40\n        /* \"--CODEGEN--\":8:11   */\n      dup2\n        /* \"--CODEGEN--\":5:16   */\n      lt\n        /* \"--CODEGEN--\":2:4   */\n      iszero\n      tag_57\n      jumpi\n        /* \"--CODEGEN--\":29:30   */\n      0x00\n        /* \"--CODEGEN--\":26:27   */\n      dup1\n        /* \"--CODEGEN--\":19:31   */\n      revert\n        /* \"--CODEGEN--\":2:4   */\n    tag_57:\n        /* \"TimeAlly.sol\":5979:6603  function viewStaking(... */\n      dup2\n      add\n      swap1\n      dup1\n      dup1\n      calldataload\n      0xffffffffffffffffffffffffffffffffffffffff\n      and\n      swap1\n      0x20\n      add\n      swap1\n      swap3\n      swap2\n      swap1\n      dup1\n      calldataload\n      swap1\n      0x20\n      add\n      swap1\n      swap3\n      swap2\n      swap1\n      pop\n      pop\n      pop\n      tag_58\n      jump\t// in\n    tag_56:\n      mload(0x40)\n      dup1\n      dup8\n      dup2\n      mstore\n      0x20\n      add\n      dup7\n      dup2\n      mstore\n      0x20\n      add\n      dup6\n      dup2\n      mstore\n      0x20\n      add\n      dup5\n      dup2\n      mstore\n      0x20\n      add\n      dup4\n      dup2\n      mstore\n      0x20\n      add\n      dup3\n      dup2\n      mstore\n      0x20\n      add\n      swap7\n      pop\n      pop\n      pop\n      pop\n      pop\n      pop\n      pop\n      mload(0x40)\n      dup1\n      swap2\n      sub\n      swap1\n      return\n        /* \"TimeAlly.sol\":17459:17575  function timeAllyMonthlyNRTArray() public view returns (uint256[] memory) {... */\n    tag_9:\n      tag_59\n      tag_60\n      jump\t// in\n    tag_59:\n      mload(0x40)\n      dup1\n      dup1\n      0x20\n      add\n      dup3\n      dup2\n      sub\n      dup3\n      mstore\n      dup4\n      dup2\n      dup2\n      mload\n      dup2\n      mstore\n      0x20\n      add\n      swap2\n      pop\n      dup1\n      mload\n      swap1\n      0x20\n      add\n      swap1\n      0x20\n      mul\n      dup1\n      dup4\n      dup4\n        /* \"--CODEGEN--\":23:24   */\n      0x00\n        /* \"--CODEGEN--\":8:108   */\n    tag_61:\n        /* \"--CODEGEN--\":33:36   */\n      dup4\n        /* \"--CODEGEN--\":30:31   */\n      dup2\n        /* \"--CODEGEN--\":27:37   */\n      lt\n        /* \"--CODEGEN--\":8:108   */\n      iszero\n      tag_63\n      jumpi\n        /* \"--CODEGEN--\":99:100   */\n      dup1\n        /* \"--CODEGEN--\":94:97   */\n      dup3\n        /* \"--CODEGEN--\":90:101   */\n      add\n        /* \"--CODEGEN--\":84:102   */\n      mload\n        /* \"--CODEGEN--\":80:81   */\n      dup2\n        /* \"--CODEGEN--\":75:78   */\n      dup5\n        /* \"--CODEGEN--\":71:82   */\n      add\n        /* \"--CODEGEN--\":64:103   */\n      mstore\n        /* \"--CODEGEN--\":52:54   */\n      0x20\n        /* \"--CODEGEN--\":49:50   */\n      dup2\n        /* \"--CODEGEN--\":45:55   */\n      add\n        /* \"--CODEGEN--\":40:55   */\n      swap1\n      pop\n        /* \"--CODEGEN--\":8:108   */\n      jump(tag_61)\n    tag_63:\n        /* \"--CODEGEN--\":12:26   */\n      pop\n        /* \"TimeAlly.sol\":17459:17575  function timeAllyMonthlyNRTArray() public view returns (uint256[] memory) {... */\n      pop\n      pop\n      pop\n      swap1\n      pop\n      add\n      swap3\n      pop\n      pop\n      pop\n      mload(0x40)\n      dup1\n      swap2\n      sub\n      swap1\n      return\n        /* \"TimeAlly.sol\":1715:1770  mapping (uint256 => uint256) public totalActiveStakings */\n    tag_10:\n      tag_64\n      0x04\n      dup1\n      calldatasize\n      sub\n        /* \"--CODEGEN--\":13:15   */\n      0x20\n        /* \"--CODEGEN--\":8:11   */\n      dup2\n        /* \"--CODEGEN--\":5:16   */\n      lt\n        /* \"--CODEGEN--\":2:4   */\n      iszero\n      tag_65\n      jumpi\n        /* \"--CODEGEN--\":29:30   */\n      0x00\n        /* \"--CODEGEN--\":26:27   */\n      dup1\n        /* \"--CODEGEN--\":19:31   */\n      revert\n        /* \"--CODEGEN--\":2:4   */\n    tag_65:\n        /* \"TimeAlly.sol\":1715:1770  mapping (uint256 => uint256) public totalActiveStakings */\n      dup2\n      add\n      swap1\n      dup1\n      dup1\n      calldataload\n      swap1\n      0x20\n      add\n      swap1\n      swap3\n      swap2\n      swap1\n      pop\n      pop\n      pop\n      tag_66\n      jump\t// in\n    tag_64:\n      mload(0x40)\n      dup1\n      dup3\n      dup2\n      mstore\n      0x20\n      add\n      swap2\n      pop\n      pop\n      mload(0x40)\n      dup1\n      swap2\n      sub\n      swap1\n      return\n        /* \"TimeAlly.sol\":25131:25598  function removeNominee(uint256 _stakingId, address _nomineeAddress) public {... */\n    tag_11:\n      tag_67\n      0x04\n      dup1\n      calldatasize\n      sub\n        /* \"--CODEGEN--\":13:15   */\n      0x40\n        /* \"--CODEGEN--\":8:11   */\n      dup2\n        /* \"--CODEGEN--\":5:16   */\n      lt\n        /* \"--CODEGEN--\":2:4   */\n      iszero\n      tag_68\n      jumpi\n        /* \"--CODEGEN--\":29:30   */\n      0x00\n        /* \"--CODEGEN--\":26:27   */\n      dup1\n        /* \"--CODEGEN--\":19:31   */\n      revert\n        /* \"--CODEGEN--\":2:4   */\n    tag_68:\n        /* \"TimeAlly.sol\":25131:25598  function removeNominee(uint256 _stakingId, address _nomineeAddress) public {... */\n      dup2\n      add\n      swap1\n      dup1\n      dup1\n      calldataload\n      swap1\n      0x20\n      add\n      swap1\n      swap3\n      swap2\n      swap1\n      dup1\n      calldataload\n      0xffffffffffffffffffffffffffffffffffffffff\n      and\n      swap1\n      0x20\n      add\n      swap1\n      swap3\n      swap2\n      swap1\n      pop\n      pop\n      pop\n      tag_69\n      jump\t// in\n    tag_67:\n      stop\n        /* \"TimeAlly.sol\":6609:6898  function topupRewardBucket(uint256 _exaEsAmount) public {... */\n    tag_12:\n      tag_70\n      0x04\n      dup1\n      calldatasize\n      sub\n        /* \"--CODEGEN--\":13:15   */\n      0x20\n        /* \"--CODEGEN--\":8:11   */\n      dup2\n        /* \"--CODEGEN--\":5:16   */\n      lt\n        /* \"--CODEGEN--\":2:4   */\n      iszero\n      tag_71\n      jumpi\n        /* \"--CODEGEN--\":29:30   */\n      0x00\n        /* \"--CODEGEN--\":26:27   */\n      dup1\n        /* \"--CODEGEN--\":19:31   */\n      revert\n        /* \"--CODEGEN--\":2:4   */\n    tag_71:\n        /* \"TimeAlly.sol\":6609:6898  function topupRewardBucket(uint256 _exaEsAmount) public {... */\n      dup2\n      add\n      swap1\n      dup1\n      dup1\n      calldataload\n      swap1\n      0x20\n      add\n      swap1\n      swap3\n      swap2\n      swap1\n      pop\n      pop\n      pop\n      tag_72\n      jump\t// in\n    tag_70:\n      stop\n        /* \"TimeAlly.sol\":1424:1457  StakingPlan[] public stakingPlans */\n    tag_13:\n      tag_73\n      0x04\n      dup1\n      calldatasize\n      sub\n        /* \"--CODEGEN--\":13:15   */\n      0x20\n        /* \"--CODEGEN--\":8:11   */\n      dup2\n        /* \"--CODEGEN--\":5:16   */\n      lt\n        /* \"--CODEGEN--\":2:4   */\n      iszero\n      tag_74\n      jumpi\n        /* \"--CODEGEN--\":29:30   */\n      0x00\n        /* \"--CODEGEN--\":26:27   */\n      dup1\n        /* \"--CODEGEN--\":19:31   */\n      revert\n        /* \"--CODEGEN--\":2:4   */\n    tag_74:\n        /* \"TimeAlly.sol\":1424:1457  StakingPlan[] public stakingPlans */\n      dup2\n      add\n      swap1\n      dup1\n      dup1\n      calldataload\n      swap1\n      0x20\n      add\n      swap1\n      swap3\n      swap2\n      swap1\n      pop\n      pop\n      pop\n      tag_75\n      jump\t// in\n    tag_73:\n      mload(0x40)\n      dup1\n      dup4\n      dup2\n      mstore\n      0x20\n      add\n      dup3\n      dup2\n      mstore\n      0x20\n      add\n      swap3\n      pop\n      pop\n      pop\n      mload(0x40)\n      dup1\n      swap2\n      sub\n      swap1\n      return\n        /* \"TimeAlly.sol\":1609:1656  mapping(address => uint256) public launchReward */\n    tag_14:\n      tag_76\n      0x04\n      dup1\n      calldatasize\n      sub\n        /* \"--CODEGEN--\":13:15   */\n      0x20\n        /* \"--CODEGEN--\":8:11   */\n      dup2\n        /* \"--CODEGEN--\":5:16   */\n      lt\n        /* \"--CODEGEN--\":2:4   */\n      iszero\n      tag_77\n      jumpi\n        /* \"--CODEGEN--\":29:30   */\n      0x00\n        /* \"--CODEGEN--\":26:27   */\n      dup1\n        /* \"--CODEGEN--\":19:31   */\n      revert\n        /* \"--CODEGEN--\":2:4   */\n    tag_77:\n        /* \"TimeAlly.sol\":1609:1656  mapping(address => uint256) public launchReward */\n      dup2\n      add\n      swap1\n      dup1\n      dup1\n      calldataload\n      0xffffffffffffffffffffffffffffffffffffffff\n      and\n      swap1\n      0x20\n      add\n      swap1\n      swap3\n      swap2\n      swap1\n      pop\n      pop\n      pop\n      tag_78\n      jump\t// in\n    tag_76:\n      mload(0x40)\n      dup1\n      dup3\n      dup2\n      mstore\n      0x20\n      add\n      swap2\n      pop\n      pop\n      mload(0x40)\n      dup1\n      swap2\n      sub\n      swap1\n      return\n        /* \"TimeAlly.sol\":4390:4594  function createLoanPlan(uint256 _loanMonths, uint256 _loanRate) public onlyOwner {... */\n    tag_15:\n      tag_79\n      0x04\n      dup1\n      calldatasize\n      sub\n        /* \"--CODEGEN--\":13:15   */\n      0x40\n        /* \"--CODEGEN--\":8:11   */\n      dup2\n        /* \"--CODEGEN--\":5:16   */\n      lt\n        /* \"--CODEGEN--\":2:4   */\n      iszero\n      tag_80\n      jumpi\n        /* \"--CODEGEN--\":29:30   */\n      0x00\n        /* \"--CODEGEN--\":26:27   */\n      dup1\n        /* \"--CODEGEN--\":19:31   */\n      revert\n        /* \"--CODEGEN--\":2:4   */\n    tag_80:\n        /* \"TimeAlly.sol\":4390:4594  function createLoanPlan(uint256 _loanMonths, uint256 _loanRate) public onlyOwner {... */\n      dup2\n      add\n      swap1\n      dup1\n      dup1\n      calldataload\n      swap1\n      0x20\n      add\n      swap1\n      swap3\n      swap2\n      swap1\n      dup1\n      calldataload\n      swap1\n      0x20\n      add\n      swap1\n      swap3\n      swap2\n      swap1\n      pop\n      pop\n      pop\n      tag_81\n      jump\t// in\n    tag_79:\n      stop\n        /* \"TimeAlly.sol\":6904:7274  function giveLaunchReward(address[] memory _addresses, uint256[] memory _exaEsAmountArray) public onlyOwner {... */\n    tag_16:\n      tag_82\n      0x04\n      dup1\n      calldatasize\n      sub\n        /* \"--CODEGEN--\":13:15   */\n      0x40\n        /* \"--CODEGEN--\":8:11   */\n      dup2\n        /* \"--CODEGEN--\":5:16   */\n      lt\n        /* \"--CODEGEN--\":2:4   */\n      iszero\n      tag_83\n      jumpi\n        /* \"--CODEGEN--\":29:30   */\n      0x00\n        /* \"--CODEGEN--\":26:27   */\n      dup1\n        /* \"--CODEGEN--\":19:31   */\n      revert\n        /* \"--CODEGEN--\":2:4   */\n    tag_83:\n        /* \"TimeAlly.sol\":6904:7274  function giveLaunchReward(address[] memory _addresses, uint256[] memory _exaEsAmountArray) public onlyOwner {... */\n      dup2\n      add\n      swap1\n      dup1\n      dup1\n      calldataload\n      swap1\n      0x20\n      add\n      swap1\n        /* \"--CODEGEN--\":21:32   */\n      0x0100000000\n        /* \"--CODEGEN--\":8:19   */\n      dup2\n        /* \"--CODEGEN--\":5:33   */\n      gt\n        /* \"--CODEGEN--\":2:4   */\n      iszero\n      tag_84\n      jumpi\n        /* \"--CODEGEN--\":46:47   */\n      0x00\n        /* \"--CODEGEN--\":43:44   */\n      dup1\n        /* \"--CODEGEN--\":36:48   */\n      revert\n        /* \"--CODEGEN--\":2:4   */\n    tag_84:\n        /* \"TimeAlly.sol\":6904:7274  function giveLaunchReward(address[] memory _addresses, uint256[] memory _exaEsAmountArray) public onlyOwner {... */\n      dup3\n      add\n        /* \"--CODEGEN--\":35:44   */\n      dup4\n        /* \"--CODEGEN--\":28:32   */\n      0x20\n        /* \"--CODEGEN--\":12:26   */\n      dup3\n        /* \"--CODEGEN--\":8:33   */\n      add\n        /* \"--CODEGEN--\":5:45   */\n      gt\n        /* \"--CODEGEN--\":2:4   */\n      iszero\n      tag_85\n      jumpi\n        /* \"--CODEGEN--\":58:59   */\n      0x00\n        /* \"--CODEGEN--\":55:56   */\n      dup1\n        /* \"--CODEGEN--\":48:60   */\n      revert\n        /* \"--CODEGEN--\":2:4   */\n    tag_85:\n        /* \"TimeAlly.sol\":6904:7274  function giveLaunchReward(address[] memory _addresses, uint256[] memory _exaEsAmountArray) public onlyOwner {... */\n      dup1\n      calldataload\n      swap1\n      0x20\n      add\n      swap2\n        /* \"--CODEGEN--\":101:110   */\n      dup5\n        /* \"--CODEGEN--\":95:97   */\n      0x20\n        /* \"--CODEGEN--\":81:93   */\n      dup4\n        /* \"--CODEGEN--\":77:98   */\n      mul\n        /* \"--CODEGEN--\":67:75   */\n      dup5\n        /* \"--CODEGEN--\":63:99   */\n      add\n        /* \"--CODEGEN--\":60:111   */\n      gt\n        /* \"--CODEGEN--\":39:50   */\n      0x0100000000\n        /* \"--CODEGEN--\":25:37   */\n      dup4\n        /* \"--CODEGEN--\":22:51   */\n      gt\n        /* \"--CODEGEN--\":11:119   */\n      or\n        /* \"--CODEGEN--\":8:10   */\n      iszero\n      tag_86\n      jumpi\n        /* \"--CODEGEN--\":132:133   */\n      0x00\n        /* \"--CODEGEN--\":129:130   */\n      dup1\n        /* \"--CODEGEN--\":122:134   */\n      revert\n        /* \"--CODEGEN--\":8:10   */\n    tag_86:\n        /* \"TimeAlly.sol\":6904:7274  function giveLaunchReward(address[] memory _addresses, uint256[] memory _exaEsAmountArray) public onlyOwner {... */\n      swap2\n      swap1\n      dup1\n      dup1\n      0x20\n      mul\n      0x20\n      add\n      mload(0x40)\n      swap1\n      dup2\n      add\n      0x40\n      mstore\n      dup1\n      swap4\n      swap3\n      swap2\n      swap1\n      dup2\n      dup2\n      mstore\n      0x20\n      add\n      dup4\n      dup4\n      0x20\n      mul\n        /* \"--CODEGEN--\":30:33   */\n      dup1\n        /* \"--CODEGEN--\":22:28   */\n      dup3\n        /* \"--CODEGEN--\":14:20   */\n      dup5\n        /* \"--CODEGEN--\":1:34   */\n      calldatacopy\n        /* \"--CODEGEN--\":99:100   */\n      0x00\n        /* \"--CODEGEN--\":93:96   */\n      dup2\n        /* \"--CODEGEN--\":85:91   */\n      dup5\n        /* \"--CODEGEN--\":81:97   */\n      add\n        /* \"--CODEGEN--\":74:101   */\n      mstore\n        /* \"--CODEGEN--\":137:141   */\n      0x1f\n        /* \"--CODEGEN--\":133:142   */\n      not\n        /* \"--CODEGEN--\":126:130   */\n      0x1f\n        /* \"--CODEGEN--\":121:124   */\n      dup3\n        /* \"--CODEGEN--\":117:131   */\n      add\n        /* \"--CODEGEN--\":113:143   */\n      and\n        /* \"--CODEGEN--\":106:143   */\n      swap1\n      pop\n        /* \"--CODEGEN--\":169:172   */\n      dup1\n        /* \"--CODEGEN--\":161:167   */\n      dup4\n        /* \"--CODEGEN--\":157:173   */\n      add\n        /* \"--CODEGEN--\":147:173   */\n      swap3\n      pop\n        /* \"TimeAlly.sol\":6904:7274  function giveLaunchReward(address[] memory _addresses, uint256[] memory _exaEsAmountArray) public onlyOwner {... */\n      pop\n      pop\n      pop\n      pop\n      pop\n      pop\n      swap2\n      swap3\n      swap2\n      swap3\n      swap1\n      dup1\n      calldataload\n      swap1\n      0x20\n      add\n      swap1\n        /* \"--CODEGEN--\":21:32   */\n      0x0100000000\n        /* \"--CODEGEN--\":8:19   */\n      dup2\n        /* \"--CODEGEN--\":5:33   */\n      gt\n        /* \"--CODEGEN--\":2:4   */\n      iszero\n      tag_87\n      jumpi\n        /* \"--CODEGEN--\":46:47   */\n      0x00\n        /* \"--CODEGEN--\":43:44   */\n      dup1\n        /* \"--CODEGEN--\":36:48   */\n      revert\n        /* \"--CODEGEN--\":2:4   */\n    tag_87:\n        /* \"TimeAlly.sol\":6904:7274  function giveLaunchReward(address[] memory _addresses, uint256[] memory _exaEsAmountArray) public onlyOwner {... */\n      dup3\n      add\n        /* \"--CODEGEN--\":35:44   */\n      dup4\n        /* \"--CODEGEN--\":28:32   */\n      0x20\n        /* \"--CODEGEN--\":12:26   */\n      dup3\n        /* \"--CODEGEN--\":8:33   */\n      add\n        /* \"--CODEGEN--\":5:45   */\n      gt\n        /* \"--CODEGEN--\":2:4   */\n      iszero\n      tag_88\n      jumpi\n        /* \"--CODEGEN--\":58:59   */\n      0x00\n        /* \"--CODEGEN--\":55:56   */\n      dup1\n        /* \"--CODEGEN--\":48:60   */\n      revert\n        /* \"--CODEGEN--\":2:4   */\n    tag_88:\n        /* \"TimeAlly.sol\":6904:7274  function giveLaunchReward(address[] memory _addresses, uint256[] memory _exaEsAmountArray) public onlyOwner {... */\n      dup1\n      calldataload\n      swap1\n      0x20\n      add\n      swap2\n        /* \"--CODEGEN--\":101:110   */\n      dup5\n        /* \"--CODEGEN--\":95:97   */\n      0x20\n        /* \"--CODEGEN--\":81:93   */\n      dup4\n        /* \"--CODEGEN--\":77:98   */\n      mul\n        /* \"--CODEGEN--\":67:75   */\n      dup5\n        /* \"--CODEGEN--\":63:99   */\n      add\n        /* \"--CODEGEN--\":60:111   */\n      gt\n        /* \"--CODEGEN--\":39:50   */\n      0x0100000000\n        /* \"--CODEGEN--\":25:37   */\n      dup4\n        /* \"--CODEGEN--\":22:51   */\n      gt\n        /* \"--CODEGEN--\":11:119   */\n      or\n        /* \"--CODEGEN--\":8:10   */\n      iszero\n      tag_89\n      jumpi\n        /* \"--CODEGEN--\":132:133   */\n      0x00\n        /* \"--CODEGEN--\":129:130   */\n      dup1\n        /* \"--CODEGEN--\":122:134   */\n      revert\n        /* \"--CODEGEN--\":8:10   */\n    tag_89:\n        /* \"TimeAlly.sol\":6904:7274  function giveLaunchReward(address[] memory _addresses, uint256[] memory _exaEsAmountArray) public onlyOwner {... */\n      swap2\n      swap1\n      dup1\n      dup1\n      0x20\n      mul\n      0x20\n      add\n      mload(0x40)\n      swap1\n      dup2\n      add\n      0x40\n      mstore\n      dup1\n      swap4\n      swap3\n      swap2\n      swap1\n      dup2\n      dup2\n      mstore\n      0x20\n      add\n      dup4\n      dup4\n      0x20\n      mul\n        /* \"--CODEGEN--\":30:33   */\n      dup1\n        /* \"--CODEGEN--\":22:28   */\n      dup3\n        /* \"--CODEGEN--\":14:20   */\n      dup5\n        /* \"--CODEGEN--\":1:34   */\n      calldatacopy\n        /* \"--CODEGEN--\":99:100   */\n      0x00\n        /* \"--CODEGEN--\":93:96   */\n      dup2\n        /* \"--CODEGEN--\":85:91   */\n      dup5\n        /* \"--CODEGEN--\":81:97   */\n      add\n        /* \"--CODEGEN--\":74:101   */\n      mstore\n        /* \"--CODEGEN--\":137:141   */\n      0x1f\n        /* \"--CODEGEN--\":133:142   */\n      not\n        /* \"--CODEGEN--\":126:130   */\n      0x1f\n        /* \"--CODEGEN--\":121:124   */\n      dup3\n        /* \"--CODEGEN--\":117:131   */\n      add\n        /* \"--CODEGEN--\":113:143   */\n      and\n        /* \"--CODEGEN--\":106:143   */\n      swap1\n      pop\n        /* \"--CODEGEN--\":169:172   */\n      dup1\n        /* \"--CODEGEN--\":161:167   */\n      dup4\n        /* \"--CODEGEN--\":157:173   */\n      add\n        /* \"--CODEGEN--\":147:173   */\n      swap3\n      pop\n        /* \"TimeAlly.sol\":6904:7274  function giveLaunchReward(address[] memory _addresses, uint256[] memory _exaEsAmountArray) public onlyOwner {... */\n      pop\n      pop\n      pop\n      pop\n      pop\n      pop\n      swap2\n      swap3\n      swap2\n      swap3\n      swap1\n      pop\n      pop\n      pop\n      tag_90\n      jump\t// in\n    tag_82:\n      stop\n        /* \"TimeAlly.sol\":1228:1248  address public owner */\n    tag_17:\n      tag_91\n      tag_92\n      jump\t// in\n    tag_91:\n      mload(0x40)\n      dup1\n      dup3\n      0xffffffffffffffffffffffffffffffffffffffff\n      and\n      0xffffffffffffffffffffffffffffffffffffffff\n      and\n      dup2\n      mstore\n      0x20\n      add\n      swap2\n      pop\n      pop\n      mload(0x40)\n      dup1\n      swap2\n      sub\n      swap1\n      return\n        /* \"TimeAlly.sol\":25604:28816  function nomineeWithdraw(address _userAddress, uint256 _stakingId) public {... */\n    tag_18:\n      tag_93\n      0x04\n      dup1\n      calldatasize\n      sub\n        /* \"--CODEGEN--\":13:15   */\n      0x40\n        /* \"--CODEGEN--\":8:11   */\n      dup2\n        /* \"--CODEGEN--\":5:16   */\n      lt\n        /* \"--CODEGEN--\":2:4   */\n      iszero\n      tag_94\n      jumpi\n        /* \"--CODEGEN--\":29:30   */\n      0x00\n        /* \"--CODEGEN--\":26:27   */\n      dup1\n        /* \"--CODEGEN--\":19:31   */\n      revert\n        /* \"--CODEGEN--\":2:4   */\n    tag_94:\n        /* \"TimeAlly.sol\":25604:28816  function nomineeWithdraw(address _userAddress, uint256 _stakingId) public {... */\n      dup2\n      add\n      swap1\n      dup1\n      dup1\n      calldataload\n      0xffffffffffffffffffffffffffffffffffffffff\n      and\n      swap1\n      0x20\n      add\n      swap1\n      swap3\n      swap2\n      swap1\n      dup1\n      calldataload\n      swap1\n      0x20\n      add\n      swap1\n      swap3\n      swap2\n      swap1\n      pop\n      pop\n      pop\n      tag_95\n      jump\t// in\n    tag_93:\n      stop\n        /* \"TimeAlly.sol\":8540:9249  function isStakingActive(address _userAddress, uint256 _stakingId, uint256 _currentMonth, uint256 _atMonth) public view returns (bool) {... */\n    tag_19:\n      tag_96\n      0x04\n      dup1\n      calldatasize\n      sub\n        /* \"--CODEGEN--\":13:16   */\n      0x80\n        /* \"--CODEGEN--\":8:11   */\n      dup2\n        /* \"--CODEGEN--\":5:17   */\n      lt\n        /* \"--CODEGEN--\":2:4   */\n      iszero\n      tag_97\n      jumpi\n        /* \"--CODEGEN--\":30:31   */\n      0x00\n        /* \"--CODEGEN--\":27:28   */\n      dup1\n        /* \"--CODEGEN--\":20:32   */\n      revert\n        /* \"--CODEGEN--\":2:4   */\n    tag_97:\n        /* \"TimeAlly.sol\":8540:9249  function isStakingActive(address _userAddress, uint256 _stakingId, uint256 _currentMonth, uint256 _atMonth) public view returns (bool) {... */\n      dup2\n      add\n      swap1\n      dup1\n      dup1\n      calldataload\n      0xffffffffffffffffffffffffffffffffffffffff\n      and\n      swap1\n      0x20\n      add\n      swap1\n      swap3\n      swap2\n      swap1\n      dup1\n      calldataload\n      swap1\n      0x20\n      add\n      swap1\n      swap3\n      swap2\n      swap1\n      dup1\n      calldataload\n      swap1\n      0x20\n      add\n      swap1\n      swap3\n      swap2\n      swap1\n      dup1\n      calldataload\n      swap1\n      0x20\n      add\n      swap1\n      swap3\n      swap2\n      swap1\n      pop\n      pop\n      pop\n      tag_98\n      jump\t// in\n    tag_96:\n      mload(0x40)\n      dup1\n      dup3\n      iszero\n      iszero\n      iszero\n      iszero\n      dup2\n      mstore\n      0x20\n      add\n      swap2\n      pop\n      pop\n      mload(0x40)\n      dup1\n      swap2\n      sub\n      swap1\n      return\n        /* \"TimeAlly.sol\":23288:23869  function addNominee(uint256 _stakingId, address _nomineeAddress, uint256 _shares) public {... */\n    tag_20:\n      tag_99\n      0x04\n      dup1\n      calldatasize\n      sub\n        /* \"--CODEGEN--\":13:15   */\n      0x60\n        /* \"--CODEGEN--\":8:11   */\n      dup2\n        /* \"--CODEGEN--\":5:16   */\n      lt\n        /* \"--CODEGEN--\":2:4   */\n      iszero\n      tag_100\n      jumpi\n        /* \"--CODEGEN--\":29:30   */\n      0x00\n        /* \"--CODEGEN--\":26:27   */\n      dup1\n        /* \"--CODEGEN--\":19:31   */\n      revert\n        /* \"--CODEGEN--\":2:4   */\n    tag_100:\n        /* \"TimeAlly.sol\":23288:23869  function addNominee(uint256 _stakingId, address _nomineeAddress, uint256 _shares) public {... */\n      dup2\n      add\n      swap1\n      dup1\n      dup1\n      calldataload\n      swap1\n      0x20\n      add\n      swap1\n      swap3\n      swap2\n      swap1\n      dup1\n      calldataload\n      0xffffffffffffffffffffffffffffffffffffffff\n      and\n      swap1\n      0x20\n      add\n      swap1\n      swap3\n      swap2\n      swap1\n      dup1\n      calldataload\n      swap1\n      0x20\n      add\n      swap1\n      swap3\n      swap2\n      swap1\n      pop\n      pop\n      pop\n      tag_101\n      jump\t// in\n    tag_99:\n      stop\n        /* \"TimeAlly.sol\":5804:5944  function getNumberOfStakingsByUser(address _userAddress) public view returns (uint256) {... */\n    tag_21:\n      tag_102\n      0x04\n      dup1\n      calldatasize\n      sub\n        /* \"--CODEGEN--\":13:15   */\n      0x20\n        /* \"--CODEGEN--\":8:11   */\n      dup2\n        /* \"--CODEGEN--\":5:16   */\n      lt\n        /* \"--CODEGEN--\":2:4   */\n      iszero\n      tag_103\n      jumpi\n        /* \"--CODEGEN--\":29:30   */\n      0x00\n        /* \"--CODEGEN--\":26:27   */\n      dup1\n        /* \"--CODEGEN--\":19:31   */\n      revert\n        /* \"--CODEGEN--\":2:4   */\n    tag_103:\n        /* \"TimeAlly.sol\":5804:5944  function getNumberOfStakingsByUser(address _userAddress) public view returns (uint256) {... */\n      dup2\n      add\n      swap1\n      dup1\n      dup1\n      calldataload\n      0xffffffffffffffffffffffffffffffffffffffff\n      and\n      swap1\n      0x20\n      add\n      swap1\n      swap3\n      swap2\n      swap1\n      pop\n      pop\n      pop\n      tag_104\n      jump\t// in\n    tag_102:\n      mload(0x40)\n      dup1\n      dup3\n      dup2\n      mstore\n      0x20\n      add\n      swap2\n      pop\n      pop\n      mload(0x40)\n      dup1\n      swap2\n      sub\n      swap1\n      return\n        /* \"TimeAlly.sol\":11575:13804  function withdrawShareForUserByMonth(uint256 _atMonth, uint256 _accruedPercentage) public {... */\n    tag_22:\n      tag_105\n      0x04\n      dup1\n      calldatasize\n      sub\n        /* \"--CODEGEN--\":13:15   */\n      0x40\n        /* \"--CODEGEN--\":8:11   */\n      dup2\n        /* \"--CODEGEN--\":5:16   */\n      lt\n        /* \"--CODEGEN--\":2:4   */\n      iszero\n      tag_106\n      jumpi\n        /* \"--CODEGEN--\":29:30   */\n      0x00\n        /* \"--CODEGEN--\":26:27   */\n      dup1\n        /* \"--CODEGEN--\":19:31   */\n      revert\n        /* \"--CODEGEN--\":2:4   */\n    tag_106:\n        /* \"TimeAlly.sol\":11575:13804  function withdrawShareForUserByMonth(uint256 _atMonth, uint256 _accruedPercentage) public {... */\n      dup2\n      add\n      swap1\n      dup1\n      dup1\n      calldataload\n      swap1\n      0x20\n      add\n      swap1\n      swap3\n      swap2\n      swap1\n      dup1\n      calldataload\n      swap1\n      0x20\n      add\n      swap1\n      swap3\n      swap2\n      swap1\n      pop\n      pop\n      pop\n      tag_107\n      jump\t// in\n    tag_105:\n      stop\n        /* \"TimeAlly.sol\":17581:18607  function seeMaxLoaningAmountOnUserStakings(address _userAddress, uint256[] memory _stakingIds) public view returns (uint256) {... */\n    tag_23:\n      tag_108\n      0x04\n      dup1\n      calldatasize\n      sub\n        /* \"--CODEGEN--\":13:15   */\n      0x40\n        /* \"--CODEGEN--\":8:11   */\n      dup2\n        /* \"--CODEGEN--\":5:16   */\n      lt\n        /* \"--CODEGEN--\":2:4   */\n      iszero\n      tag_109\n      jumpi\n        /* \"--CODEGEN--\":29:30   */\n      0x00\n        /* \"--CODEGEN--\":26:27   */\n      dup1\n        /* \"--CODEGEN--\":19:31   */\n      revert\n        /* \"--CODEGEN--\":2:4   */\n    tag_109:\n        /* \"TimeAlly.sol\":17581:18607  function seeMaxLoaningAmountOnUserStakings(address _userAddress, uint256[] memory _stakingIds) public view returns (uint256) {... */\n      dup2\n      add\n      swap1\n      dup1\n      dup1\n      calldataload\n      0xffffffffffffffffffffffffffffffffffffffff\n      and\n      swap1\n      0x20\n      add\n      swap1\n      swap3\n      swap2\n      swap1\n      dup1\n      calldataload\n      swap1\n      0x20\n      add\n      swap1\n        /* \"--CODEGEN--\":21:32   */\n      0x0100000000\n        /* \"--CODEGEN--\":8:19   */\n      dup2\n        /* \"--CODEGEN--\":5:33   */\n      gt\n        /* \"--CODEGEN--\":2:4   */\n      iszero\n      tag_110\n      jumpi\n        /* \"--CODEGEN--\":46:47   */\n      0x00\n        /* \"--CODEGEN--\":43:44   */\n      dup1\n        /* \"--CODEGEN--\":36:48   */\n      revert\n        /* \"--CODEGEN--\":2:4   */\n    tag_110:\n        /* \"TimeAlly.sol\":17581:18607  function seeMaxLoaningAmountOnUserStakings(address _userAddress, uint256[] memory _stakingIds) public view returns (uint256) {... */\n      dup3\n      add\n        /* \"--CODEGEN--\":35:44   */\n      dup4\n        /* \"--CODEGEN--\":28:32   */\n      0x20\n        /* \"--CODEGEN--\":12:26   */\n      dup3\n        /* \"--CODEGEN--\":8:33   */\n      add\n        /* \"--CODEGEN--\":5:45   */\n      gt\n        /* \"--CODEGEN--\":2:4   */\n      iszero\n      tag_111\n      jumpi\n        /* \"--CODEGEN--\":58:59   */\n      0x00\n        /* \"--CODEGEN--\":55:56   */\n      dup1\n        /* \"--CODEGEN--\":48:60   */\n      revert\n        /* \"--CODEGEN--\":2:4   */\n    tag_111:\n        /* \"TimeAlly.sol\":17581:18607  function seeMaxLoaningAmountOnUserStakings(address _userAddress, uint256[] memory _stakingIds) public view returns (uint256) {... */\n      dup1\n      calldataload\n      swap1\n      0x20\n      add\n      swap2\n        /* \"--CODEGEN--\":101:110   */\n      dup5\n        /* \"--CODEGEN--\":95:97   */\n      0x20\n        /* \"--CODEGEN--\":81:93   */\n      dup4\n        /* \"--CODEGEN--\":77:98   */\n      mul\n        /* \"--CODEGEN--\":67:75   */\n      dup5\n        /* \"--CODEGEN--\":63:99   */\n      add\n        /* \"--CODEGEN--\":60:111   */\n      gt\n        /* \"--CODEGEN--\":39:50   */\n      0x0100000000\n        /* \"--CODEGEN--\":25:37   */\n      dup4\n        /* \"--CODEGEN--\":22:51   */\n      gt\n        /* \"--CODEGEN--\":11:119   */\n      or\n        /* \"--CODEGEN--\":8:10   */\n      iszero\n      tag_112\n      jumpi\n        /* \"--CODEGEN--\":132:133   */\n      0x00\n        /* \"--CODEGEN--\":129:130   */\n      dup1\n        /* \"--CODEGEN--\":122:134   */\n      revert\n        /* \"--CODEGEN--\":8:10   */\n    tag_112:\n        /* \"TimeAlly.sol\":17581:18607  function seeMaxLoaningAmountOnUserStakings(address _userAddress, uint256[] memory _stakingIds) public view returns (uint256) {... */\n      swap2\n      swap1\n      dup1\n      dup1\n      0x20\n      mul\n      0x20\n      add\n      mload(0x40)\n      swap1\n      dup2\n      add\n      0x40\n      mstore\n      dup1\n      swap4\n      swap3\n      swap2\n      swap1\n      dup2\n      dup2\n      mstore\n      0x20\n      add\n      dup4\n      dup4\n      0x20\n      mul\n        /* \"--CODEGEN--\":30:33   */\n      dup1\n        /* \"--CODEGEN--\":22:28   */\n      dup3\n        /* \"--CODEGEN--\":14:20   */\n      dup5\n        /* \"--CODEGEN--\":1:34   */\n      calldatacopy\n        /* \"--CODEGEN--\":99:100   */\n      0x00\n        /* \"--CODEGEN--\":93:96   */\n      dup2\n        /* \"--CODEGEN--\":85:91   */\n      dup5\n        /* \"--CODEGEN--\":81:97   */\n      add\n        /* \"--CODEGEN--\":74:101   */\n      mstore\n        /* \"--CODEGEN--\":137:141   */\n      0x1f\n        /* \"--CODEGEN--\":133:142   */\n      not\n        /* \"--CODEGEN--\":126:130   */\n      0x1f\n        /* \"--CODEGEN--\":121:124   */\n      dup3\n        /* \"--CODEGEN--\":117:131   */\n      add\n        /* \"--CODEGEN--\":113:143   */\n      and\n        /* \"--CODEGEN--\":106:143   */\n      swap1\n      pop\n        /* \"--CODEGEN--\":169:172   */\n      dup1\n        /* \"--CODEGEN--\":161:167   */\n      dup4\n        /* \"--CODEGEN--\":157:173   */\n      add\n        /* \"--CODEGEN--\":147:173   */\n      swap3\n      pop\n        /* \"TimeAlly.sol\":17581:18607  function seeMaxLoaningAmountOnUserStakings(address _userAddress, uint256[] memory _stakingIds) public view returns (uint256) {... */\n      pop\n      pop\n      pop\n      pop\n      pop\n      pop\n      swap2\n      swap3\n      swap2\n      swap3\n      swap1\n      pop\n      pop\n      pop\n      tag_113\n      jump\t// in\n    tag_108:\n      mload(0x40)\n      dup1\n      dup3\n      dup2\n      mstore\n      0x20\n      add\n      swap2\n      pop\n      pop\n      mload(0x40)\n      dup1\n      swap2\n      sub\n      swap1\n      return\n        /* \"TimeAlly.sol\":4165:4384  function createStakingPlan(uint256 _months, uint256 _fractionFrom15) public onlyOwner {... */\n    tag_24:\n      tag_114\n      0x04\n      dup1\n      calldatasize\n      sub\n        /* \"--CODEGEN--\":13:15   */\n      0x40\n        /* \"--CODEGEN--\":8:11   */\n      dup2\n        /* \"--CODEGEN--\":5:16   */\n      lt\n        /* \"--CODEGEN--\":2:4   */\n      iszero\n      tag_115\n      jumpi\n        /* \"--CODEGEN--\":29:30   */\n      0x00\n        /* \"--CODEGEN--\":26:27   */\n      dup1\n        /* \"--CODEGEN--\":19:31   */\n      revert\n        /* \"--CODEGEN--\":2:4   */\n    tag_115:\n        /* \"TimeAlly.sol\":4165:4384  function createStakingPlan(uint256 _months, uint256 _fractionFrom15) public onlyOwner {... */\n      dup2\n      add\n      swap1\n      dup1\n      dup1\n      calldataload\n      swap1\n      0x20\n      add\n      swap1\n      swap3\n      swap2\n      swap1\n      dup1\n      calldataload\n      swap1\n      0x20\n      add\n      swap1\n      swap3\n      swap2\n      swap1\n      pop\n      pop\n      pop\n      tag_116\n      jump\t// in\n    tag_114:\n      stop\n        /* \"TimeAlly.sol\":1463:1490  LoanPlan[] public loanPlans */\n    tag_25:\n      tag_117\n      0x04\n      dup1\n      calldatasize\n      sub\n        /* \"--CODEGEN--\":13:15   */\n      0x20\n        /* \"--CODEGEN--\":8:11   */\n      dup2\n        /* \"--CODEGEN--\":5:16   */\n      lt\n        /* \"--CODEGEN--\":2:4   */\n      iszero\n      tag_118\n      jumpi\n        /* \"--CODEGEN--\":29:30   */\n      0x00\n        /* \"--CODEGEN--\":26:27   */\n      dup1\n        /* \"--CODEGEN--\":19:31   */\n      revert\n        /* \"--CODEGEN--\":2:4   */\n    tag_118:\n        /* \"TimeAlly.sol\":1463:1490  LoanPlan[] public loanPlans */\n      dup2\n      add\n      swap1\n      dup1\n      dup1\n      calldataload\n      swap1\n      0x20\n      add\n      swap1\n      swap3\n      swap2\n      swap1\n      pop\n      pop\n      pop\n      tag_119\n      jump\t// in\n    tag_117:\n      mload(0x40)\n      dup1\n      dup4\n      dup2\n      mstore\n      0x20\n      add\n      dup3\n      dup2\n      mstore\n      0x20\n      add\n      swap3\n      pop\n      pop\n      pop\n      mload(0x40)\n      dup1\n      swap2\n      sub\n      swap1\n      return\n        /* \"TimeAlly.sol\":18613:21940  function takeLoanOnSelfStaking(uint256 _loanPlanId, uint256 _exaEsAmount, uint256[] memory _stakingIds) public {... */\n    tag_26:\n      tag_120\n      0x04\n      dup1\n      calldatasize\n      sub\n        /* \"--CODEGEN--\":13:15   */\n      0x60\n        /* \"--CODEGEN--\":8:11   */\n      dup2\n        /* \"--CODEGEN--\":5:16   */\n      lt\n        /* \"--CODEGEN--\":2:4   */\n      iszero\n      tag_121\n      jumpi\n        /* \"--CODEGEN--\":29:30   */\n      0x00\n        /* \"--CODEGEN--\":26:27   */\n      dup1\n        /* \"--CODEGEN--\":19:31   */\n      revert\n        /* \"--CODEGEN--\":2:4   */\n    tag_121:\n        /* \"TimeAlly.sol\":18613:21940  function takeLoanOnSelfStaking(uint256 _loanPlanId, uint256 _exaEsAmount, uint256[] memory _stakingIds) public {... */\n      dup2\n      add\n      swap1\n      dup1\n      dup1\n      calldataload\n      swap1\n      0x20\n      add\n      swap1\n      swap3\n      swap2\n      swap1\n      dup1\n      calldataload\n      swap1\n      0x20\n      add\n      swap1\n      swap3\n      swap2\n      swap1\n      dup1\n      calldataload\n      swap1\n      0x20\n      add\n      swap1\n        /* \"--CODEGEN--\":21:32   */\n      0x0100000000\n        /* \"--CODEGEN--\":8:19   */\n      dup2\n        /* \"--CODEGEN--\":5:33   */\n      gt\n        /* \"--CODEGEN--\":2:4   */\n      iszero\n      tag_122\n      jumpi\n        /* \"--CODEGEN--\":46:47   */\n      0x00\n        /* \"--CODEGEN--\":43:44   */\n      dup1\n        /* \"--CODEGEN--\":36:48   */\n      revert\n        /* \"--CODEGEN--\":2:4   */\n    tag_122:\n        /* \"TimeAlly.sol\":18613:21940  function takeLoanOnSelfStaking(uint256 _loanPlanId, uint256 _exaEsAmount, uint256[] memory _stakingIds) public {... */\n      dup3\n      add\n        /* \"--CODEGEN--\":35:44   */\n      dup4\n        /* \"--CODEGEN--\":28:32   */\n      0x20\n        /* \"--CODEGEN--\":12:26   */\n      dup3\n        /* \"--CODEGEN--\":8:33   */\n      add\n        /* \"--CODEGEN--\":5:45   */\n      gt\n        /* \"--CODEGEN--\":2:4   */\n      iszero\n      tag_123\n      jumpi\n        /* \"--CODEGEN--\":58:59   */\n      0x00\n        /* \"--CODEGEN--\":55:56   */\n      dup1\n        /* \"--CODEGEN--\":48:60   */\n      revert\n        /* \"--CODEGEN--\":2:4   */\n    tag_123:\n        /* \"TimeAlly.sol\":18613:21940  function takeLoanOnSelfStaking(uint256 _loanPlanId, uint256 _exaEsAmount, uint256[] memory _stakingIds) public {... */\n      dup1\n      calldataload\n      swap1\n      0x20\n      add\n      swap2\n        /* \"--CODEGEN--\":101:110   */\n      dup5\n        /* \"--CODEGEN--\":95:97   */\n      0x20\n        /* \"--CODEGEN--\":81:93   */\n      dup4\n        /* \"--CODEGEN--\":77:98   */\n      mul\n        /* \"--CODEGEN--\":67:75   */\n      dup5\n        /* \"--CODEGEN--\":63:99   */\n      add\n        /* \"--CODEGEN--\":60:111   */\n      gt\n        /* \"--CODEGEN--\":39:50   */\n      0x0100000000\n        /* \"--CODEGEN--\":25:37   */\n      dup4\n        /* \"--CODEGEN--\":22:51   */\n      gt\n        /* \"--CODEGEN--\":11:119   */\n      or\n        /* \"--CODEGEN--\":8:10   */\n      iszero\n      tag_124\n      jumpi\n        /* \"--CODEGEN--\":132:133   */\n      0x00\n        /* \"--CODEGEN--\":129:130   */\n      dup1\n        /* \"--CODEGEN--\":122:134   */\n      revert\n        /* \"--CODEGEN--\":8:10   */\n    tag_124:\n        /* \"TimeAlly.sol\":18613:21940  function takeLoanOnSelfStaking(uint256 _loanPlanId, uint256 _exaEsAmount, uint256[] memory _stakingIds) public {... */\n      swap2\n      swap1\n      dup1\n      dup1\n      0x20\n      mul\n      0x20\n      add\n      mload(0x40)\n      swap1\n      dup2\n      add\n      0x40\n      mstore\n      dup1\n      swap4\n      swap3\n      swap2\n      swap1\n      dup2\n      dup2\n      mstore\n      0x20\n      add\n      dup4\n      dup4\n      0x20\n      mul\n        /* \"--CODEGEN--\":30:33   */\n      dup1\n        /* \"--CODEGEN--\":22:28   */\n      dup3\n        /* \"--CODEGEN--\":14:20   */\n      dup5\n        /* \"--CODEGEN--\":1:34   */\n      calldatacopy\n        /* \"--CODEGEN--\":99:100   */\n      0x00\n        /* \"--CODEGEN--\":93:96   */\n      dup2\n        /* \"--CODEGEN--\":85:91   */\n      dup5\n        /* \"--CODEGEN--\":81:97   */\n      add\n        /* \"--CODEGEN--\":74:101   */\n      mstore\n        /* \"--CODEGEN--\":137:141   */\n      0x1f\n        /* \"--CODEGEN--\":133:142   */\n      not\n        /* \"--CODEGEN--\":126:130   */\n      0x1f\n        /* \"--CODEGEN--\":121:124   */\n      dup3\n        /* \"--CODEGEN--\":117:131   */\n      add\n        /* \"--CODEGEN--\":113:143   */\n      and\n        /* \"--CODEGEN--\":106:143   */\n      swap1\n      pop\n        /* \"--CODEGEN--\":169:172   */\n      dup1\n        /* \"--CODEGEN--\":161:167   */\n      dup4\n        /* \"--CODEGEN--\":157:173   */\n      add\n        /* \"--CODEGEN--\":147:173   */\n      swap3\n      pop\n        /* \"TimeAlly.sol\":18613:21940  function takeLoanOnSelfStaking(uint256 _loanPlanId, uint256 _exaEsAmount, uint256[] memory _stakingIds) public {... */\n      pop\n      pop\n      pop\n      pop\n      pop\n      pop\n      swap2\n      swap3\n      swap2\n      swap3\n      swap1\n      pop\n      pop\n      pop\n      tag_125\n      jump\t// in\n    tag_120:\n      stop\n        /* \"TimeAlly.sol\":7280:8455  function claimLaunchReward(uint256 _stakingPlanId) public {... */\n    tag_27:\n      tag_126\n      0x04\n      dup1\n      calldatasize\n      sub\n        /* \"--CODEGEN--\":13:15   */\n      0x20\n        /* \"--CODEGEN--\":8:11   */\n      dup2\n        /* \"--CODEGEN--\":5:16   */\n      lt\n        /* \"--CODEGEN--\":2:4   */\n      iszero\n      tag_127\n      jumpi\n        /* \"--CODEGEN--\":29:30   */\n      0x00\n        /* \"--CODEGEN--\":26:27   */\n      dup1\n        /* \"--CODEGEN--\":19:31   */\n      revert\n        /* \"--CODEGEN--\":2:4   */\n    tag_127:\n        /* \"TimeAlly.sol\":7280:8455  function claimLaunchReward(uint256 _stakingPlanId) public {... */\n      dup2\n      add\n      swap1\n      dup1\n      dup1\n      calldataload\n      swap1\n      0x20\n      add\n      swap1\n      swap3\n      swap2\n      swap1\n      pop\n      pop\n      pop\n      tag_128\n      jump\t// in\n    tag_126:\n      stop\n        /* \"TimeAlly.sol\":3846:3956  function getCurrentMonth() public view returns (uint256) {... */\n    tag_28:\n      tag_129\n      tag_130\n      jump\t// in\n    tag_129:\n      mload(0x40)\n      dup1\n      dup3\n      dup2\n      mstore\n      0x20\n      add\n      swap2\n      pop\n      pop\n      mload(0x40)\n      dup1\n      swap2\n      sub\n      swap1\n      return\n        /* \"TimeAlly.sol\":21978:23282  function repayLoanSelf(uint256 _loanId) public {... */\n    tag_29:\n      tag_131\n      0x04\n      dup1\n      calldatasize\n      sub\n        /* \"--CODEGEN--\":13:15   */\n      0x20\n        /* \"--CODEGEN--\":8:11   */\n      dup2\n        /* \"--CODEGEN--\":5:16   */\n      lt\n        /* \"--CODEGEN--\":2:4   */\n      iszero\n      tag_132\n      jumpi\n        /* \"--CODEGEN--\":29:30   */\n      0x00\n        /* \"--CODEGEN--\":26:27   */\n      dup1\n        /* \"--CODEGEN--\":19:31   */\n      revert\n        /* \"--CODEGEN--\":2:4   */\n    tag_132:\n        /* \"TimeAlly.sol\":21978:23282  function repayLoanSelf(uint256 _loanId) public {... */\n      dup2\n      add\n      swap1\n      dup1\n      dup1\n      calldataload\n      swap1\n      0x20\n      add\n      swap1\n      swap3\n      swap2\n      swap1\n      pop\n      pop\n      pop\n      tag_133\n      jump\t// in\n    tag_131:\n      stop\n        /* \"TimeAlly.sol\":4650:5798  function newStaking(uint256 _exaEsAmount, uint256 _stakingPlanId) public {... */\n    tag_30:\n      tag_134\n      0x04\n      dup1\n      calldatasize\n      sub\n        /* \"--CODEGEN--\":13:15   */\n      0x40\n        /* \"--CODEGEN--\":8:11   */\n      dup2\n        /* \"--CODEGEN--\":5:16   */\n      lt\n        /* \"--CODEGEN--\":2:4   */\n      iszero\n      tag_135\n      jumpi\n        /* \"--CODEGEN--\":29:30   */\n      0x00\n        /* \"--CODEGEN--\":26:27   */\n      dup1\n        /* \"--CODEGEN--\":19:31   */\n      revert\n        /* \"--CODEGEN--\":2:4   */\n    tag_135:\n        /* \"TimeAlly.sol\":4650:5798  function newStaking(uint256 _exaEsAmount, uint256 _stakingPlanId) public {... */\n      dup2\n      add\n      swap1\n      dup1\n      dup1\n      calldataload\n      swap1\n      0x20\n      add\n      swap1\n      swap3\n      swap2\n      swap1\n      dup1\n      calldataload\n      swap1\n      0x20\n      add\n      swap1\n      swap3\n      swap2\n      swap1\n      pop\n      pop\n      pop\n      tag_136\n      jump\t// in\n    tag_134:\n      stop\n        /* \"TimeAlly.sol\":3595:3716  function increaseMonth(uint256 _timeAllyNRT) public onlyNRTManager {... */\n    tag_31:\n      tag_137\n      0x04\n      dup1\n      calldatasize\n      sub\n        /* \"--CODEGEN--\":13:15   */\n      0x20\n        /* \"--CODEGEN--\":8:11   */\n      dup2\n        /* \"--CODEGEN--\":5:16   */\n      lt\n        /* \"--CODEGEN--\":2:4   */\n      iszero\n      tag_138\n      jumpi\n        /* \"--CODEGEN--\":29:30   */\n      0x00\n        /* \"--CODEGEN--\":26:27   */\n      dup1\n        /* \"--CODEGEN--\":19:31   */\n      revert\n        /* \"--CODEGEN--\":2:4   */\n    tag_138:\n        /* \"TimeAlly.sol\":3595:3716  function increaseMonth(uint256 _timeAllyNRT) public onlyNRTManager {... */\n      dup2\n      add\n      swap1\n      dup1\n      dup1\n      calldataload\n      swap1\n      0x20\n      add\n      swap1\n      swap3\n      swap2\n      swap1\n      pop\n      pop\n      pop\n      tag_139\n      jump\t// in\n    tag_137:\n      stop\n        /* \"TimeAlly.sol\":14303:15022  function withdrawExpiredStakings(uint256[] memory _stakings) public {... */\n    tag_32:\n      tag_140\n      0x04\n      dup1\n      calldatasize\n      sub\n        /* \"--CODEGEN--\":13:15   */\n      0x20\n        /* \"--CODEGEN--\":8:11   */\n      dup2\n        /* \"--CODEGEN--\":5:16   */\n      lt\n        /* \"--CODEGEN--\":2:4   */\n      iszero\n      tag_141\n      jumpi\n        /* \"--CODEGEN--\":29:30   */\n      0x00\n        /* \"--CODEGEN--\":26:27   */\n      dup1\n        /* \"--CODEGEN--\":19:31   */\n      revert\n        /* \"--CODEGEN--\":2:4   */\n    tag_141:\n        /* \"TimeAlly.sol\":14303:15022  function withdrawExpiredStakings(uint256[] memory _stakings) public {... */\n      dup2\n      add\n      swap1\n      dup1\n      dup1\n      calldataload\n      swap1\n      0x20\n      add\n      swap1\n        /* \"--CODEGEN--\":21:32   */\n      0x0100000000\n        /* \"--CODEGEN--\":8:19   */\n      dup2\n        /* \"--CODEGEN--\":5:33   */\n      gt\n        /* \"--CODEGEN--\":2:4   */\n      iszero\n      tag_142\n      jumpi\n        /* \"--CODEGEN--\":46:47   */\n      0x00\n        /* \"--CODEGEN--\":43:44   */\n      dup1\n        /* \"--CODEGEN--\":36:48   */\n      revert\n        /* \"--CODEGEN--\":2:4   */\n    tag_142:\n        /* \"TimeAlly.sol\":14303:15022  function withdrawExpiredStakings(uint256[] memory _stakings) public {... */\n      dup3\n      add\n        /* \"--CODEGEN--\":35:44   */\n      dup4\n        /* \"--CODEGEN--\":28:32   */\n      0x20\n        /* \"--CODEGEN--\":12:26   */\n      dup3\n        /* \"--CODEGEN--\":8:33   */\n      add\n        /* \"--CODEGEN--\":5:45   */\n      gt\n        /* \"--CODEGEN--\":2:4   */\n      iszero\n      tag_143\n      jumpi\n        /* \"--CODEGEN--\":58:59   */\n      0x00\n        /* \"--CODEGEN--\":55:56   */\n      dup1\n        /* \"--CODEGEN--\":48:60   */\n      revert\n        /* \"--CODEGEN--\":2:4   */\n    tag_143:\n        /* \"TimeAlly.sol\":14303:15022  function withdrawExpiredStakings(uint256[] memory _stakings) public {... */\n      dup1\n      calldataload\n      swap1\n      0x20\n      add\n      swap2\n        /* \"--CODEGEN--\":101:110   */\n      dup5\n        /* \"--CODEGEN--\":95:97   */\n      0x20\n        /* \"--CODEGEN--\":81:93   */\n      dup4\n        /* \"--CODEGEN--\":77:98   */\n      mul\n        /* \"--CODEGEN--\":67:75   */\n      dup5\n        /* \"--CODEGEN--\":63:99   */\n      add\n        /* \"--CODEGEN--\":60:111   */\n      gt\n        /* \"--CODEGEN--\":39:50   */\n      0x0100000000\n        /* \"--CODEGEN--\":25:37   */\n      dup4\n        /* \"--CODEGEN--\":22:51   */\n      gt\n        /* \"--CODEGEN--\":11:119   */\n      or\n        /* \"--CODEGEN--\":8:10   */\n      iszero\n      tag_144\n      jumpi\n        /* \"--CODEGEN--\":132:133   */\n      0x00\n        /* \"--CODEGEN--\":129:130   */\n      dup1\n        /* \"--CODEGEN--\":122:134   */\n      revert\n        /* \"--CODEGEN--\":8:10   */\n    tag_144:\n        /* \"TimeAlly.sol\":14303:15022  function withdrawExpiredStakings(uint256[] memory _stakings) public {... */\n      swap2\n      swap1\n      dup1\n      dup1\n      0x20\n      mul\n      0x20\n      add\n      mload(0x40)\n      swap1\n      dup2\n      add\n      0x40\n      mstore\n      dup1\n      swap4\n      swap3\n      swap2\n      swap1\n      dup2\n      dup2\n      mstore\n      0x20\n      add\n      dup4\n      dup4\n      0x20\n      mul\n        /* \"--CODEGEN--\":30:33   */\n      dup1\n        /* \"--CODEGEN--\":22:28   */\n      dup3\n        /* \"--CODEGEN--\":14:20   */\n      dup5\n        /* \"--CODEGEN--\":1:34   */\n      calldatacopy\n        /* \"--CODEGEN--\":99:100   */\n      0x00\n        /* \"--CODEGEN--\":93:96   */\n      dup2\n        /* \"--CODEGEN--\":85:91   */\n      dup5\n        /* \"--CODEGEN--\":81:97   */\n      add\n        /* \"--CODEGEN--\":74:101   */\n      mstore\n        /* \"--CODEGEN--\":137:141   */\n      0x1f\n        /* \"--CODEGEN--\":133:142   */\n      not\n        /* \"--CODEGEN--\":126:130   */\n      0x1f\n        /* \"--CODEGEN--\":121:124   */\n      dup3\n        /* \"--CODEGEN--\":117:131   */\n      add\n        /* \"--CODEGEN--\":113:143   */\n      and\n        /* \"--CODEGEN--\":106:143   */\n      swap1\n      pop\n        /* \"--CODEGEN--\":169:172   */\n      dup1\n        /* \"--CODEGEN--\":161:167   */\n      dup4\n        /* \"--CODEGEN--\":157:173   */\n      add\n        /* \"--CODEGEN--\":147:173   */\n      swap3\n      pop\n        /* \"TimeAlly.sol\":14303:15022  function withdrawExpiredStakings(uint256[] memory _stakings) public {... */\n      pop\n      pop\n      pop\n      pop\n      pop\n      pop\n      swap2\n      swap3\n      swap2\n      swap3\n      swap1\n      pop\n      pop\n      pop\n      tag_145\n      jump\t// in\n    tag_140:\n      stop\n        /* \"TimeAlly.sol\":9255:10309  function userActiveStakingByMonth(address _userAddress, uint256 _atMonth) public view returns (uint256) {... */\n    tag_33:\n      tag_146\n      0x04\n      dup1\n      calldatasize\n      sub\n        /* \"--CODEGEN--\":13:15   */\n      0x40\n        /* \"--CODEGEN--\":8:11   */\n      dup2\n        /* \"--CODEGEN--\":5:16   */\n      lt\n        /* \"--CODEGEN--\":2:4   */\n      iszero\n      tag_147\n      jumpi\n        /* \"--CODEGEN--\":29:30   */\n      0x00\n        /* \"--CODEGEN--\":26:27   */\n      dup1\n        /* \"--CODEGEN--\":19:31   */\n      revert\n        /* \"--CODEGEN--\":2:4   */\n    tag_147:\n        /* \"TimeAlly.sol\":9255:10309  function userActiveStakingByMonth(address _userAddress, uint256 _atMonth) public view returns (uint256) {... */\n      dup2\n      add\n      swap1\n      dup1\n      dup1\n      calldataload\n      0xffffffffffffffffffffffffffffffffffffffff\n      and\n      swap1\n      0x20\n      add\n      swap1\n      swap3\n      swap2\n      swap1\n      dup1\n      calldataload\n      swap1\n      0x20\n      add\n      swap1\n      swap3\n      swap2\n      swap1\n      pop\n      pop\n      pop\n      tag_148\n      jump\t// in\n    tag_146:\n      mload(0x40)\n      dup1\n      dup3\n      dup2\n      mstore\n      0x20\n      add\n      swap2\n      pop\n      pop\n      mload(0x40)\n      dup1\n      swap2\n      sub\n      swap1\n      return\n        /* \"TimeAlly.sol\":1254:1274  Eraswap public token */\n    tag_34:\n      tag_149\n      tag_150\n      jump\t// in\n    tag_149:\n      mload(0x40)\n      dup1\n      dup3\n      0xffffffffffffffffffffffffffffffffffffffff\n      and\n      0xffffffffffffffffffffffffffffffffffffffff\n      and\n      dup2\n      mstore\n      0x20\n      add\n      swap2\n      pop\n      pop\n      mload(0x40)\n      dup1\n      swap2\n      sub\n      swap1\n      return\n        /* \"TimeAlly.sol\":1280:1308  NRTManager public nrtManager */\n    tag_43:\n      0x03\n      0x00\n      swap1\n      sload\n      swap1\n      0x0100\n      exp\n      swap1\n      div\n      0xffffffffffffffffffffffffffffffffffffffff\n      and\n      dup2\n      jump\t// out\n        /* \"TimeAlly.sol\":24088:25125  function updateNominee(uint256 _stakingId, address _nomineeAddress, uint256 _shares) public {... */\n    tag_46:\n        /* \"TimeAlly.sol\":24241:24242  1 */\n      0x01\n        /* \"TimeAlly.sol\":24198:24206  stakings */\n      0x07\n        /* \"TimeAlly.sol\":24198:24218  stakings[msg.sender] */\n      0x00\n        /* \"TimeAlly.sol\":24207:24217  msg.sender */\n      caller\n        /* \"TimeAlly.sol\":24198:24218  stakings[msg.sender] */\n      0xffffffffffffffffffffffffffffffffffffffff\n      and\n      0xffffffffffffffffffffffffffffffffffffffff\n      and\n      dup2\n      mstore\n      0x20\n      add\n      swap1\n      dup2\n      mstore\n      0x20\n      add\n      0x00\n      keccak256\n        /* \"TimeAlly.sol\":24219:24229  _stakingId */\n      dup5\n        /* \"TimeAlly.sol\":24198:24230  stakings[msg.sender][_stakingId] */\n      dup2\n      sload\n      dup2\n      lt\n      tag_152\n      jumpi\n      invalid\n    tag_152:\n      swap1\n      0x00\n      mstore\n      keccak256(0x00, 0x20)\n      swap1\n      0x08\n      mul\n      add\n        /* \"TimeAlly.sol\":24198:24237  stakings[msg.sender][_stakingId].status */\n      0x03\n      add\n      sload\n        /* \"TimeAlly.sol\":24198:24242  stakings[msg.sender][_stakingId].status == 1 */\n      eq\n        /* \"TimeAlly.sol\":24190:24268  require(stakings[msg.sender][_stakingId].status == 1, 'staking should active') */\n      tag_154\n      jumpi\n      mload(0x40)\n      0x08c379a000000000000000000000000000000000000000000000000000000000\n      dup2\n      mstore\n      0x04\n      add\n      dup1\n      dup1\n      0x20\n      add\n      dup3\n      dup2\n      sub\n      dup3\n      mstore\n      0x15\n      dup2\n      mstore\n      0x20\n      add\n      dup1\n      0x7374616b696e672073686f756c64206163746976650000000000000000000000\n      dup2\n      mstore\n      pop\n      0x20\n      add\n      swap2\n      pop\n      pop\n      mload(0x40)\n      dup1\n      swap2\n      sub\n      swap1\n      revert\n    tag_154:\n        /* \"TimeAlly.sol\":24278:24296  uint256 _oldShares */\n      0x00\n        /* \"TimeAlly.sol\":24299:24307  stakings */\n      0x07\n        /* \"TimeAlly.sol\":24299:24319  stakings[msg.sender] */\n      0x00\n        /* \"TimeAlly.sol\":24308:24318  msg.sender */\n      caller\n        /* \"TimeAlly.sol\":24299:24319  stakings[msg.sender] */\n      0xffffffffffffffffffffffffffffffffffffffff\n      and\n      0xffffffffffffffffffffffffffffffffffffffff\n      and\n      dup2\n      mstore\n      0x20\n      add\n      swap1\n      dup2\n      mstore\n      0x20\n      add\n      0x00\n      keccak256\n        /* \"TimeAlly.sol\":24320:24330  _stakingId */\n      dup5\n        /* \"TimeAlly.sol\":24299:24331  stakings[msg.sender][_stakingId] */\n      dup2\n      sload\n      dup2\n      lt\n      tag_155\n      jumpi\n      invalid\n    tag_155:\n      swap1\n      0x00\n      mstore\n      keccak256(0x00, 0x20)\n      swap1\n      0x08\n      mul\n      add\n        /* \"TimeAlly.sol\":24299:24342  stakings[msg.sender][_stakingId].nomination */\n      0x07\n      add\n        /* \"TimeAlly.sol\":24299:24359  stakings[msg.sender][_stakingId].nomination[_nomineeAddress] */\n      0x00\n        /* \"TimeAlly.sol\":24343:24358  _nomineeAddress */\n      dup5\n        /* \"TimeAlly.sol\":24299:24359  stakings[msg.sender][_stakingId].nomination[_nomineeAddress] */\n      0xffffffffffffffffffffffffffffffffffffffff\n      and\n      0xffffffffffffffffffffffffffffffffffffffff\n      and\n      dup2\n      mstore\n      0x20\n      add\n      swap1\n      dup2\n      mstore\n      0x20\n      add\n      0x00\n      keccak256\n      sload\n        /* \"TimeAlly.sol\":24278:24359  uint256 _oldShares = stakings[msg.sender][_stakingId].nomination[_nomineeAddress] */\n      swap1\n      pop\n        /* \"TimeAlly.sol\":24382:24392  _oldShares */\n      dup1\n        /* \"TimeAlly.sol\":24372:24379  _shares */\n      dup3\n        /* \"TimeAlly.sol\":24372:24392  _shares > _oldShares */\n      gt\n        /* \"TimeAlly.sol\":24369:25119  if(_shares > _oldShares) {... */\n      iszero\n      tag_157\n      jumpi\n        /* \"TimeAlly.sol\":24408:24421  uint256 _diff */\n      0x00\n        /* \"TimeAlly.sol\":24424:24447  _shares.sub(_oldShares) */\n      tag_158\n        /* \"TimeAlly.sol\":24436:24446  _oldShares */\n      dup3\n        /* \"TimeAlly.sol\":24424:24431  _shares */\n      dup5\n        /* \"TimeAlly.sol\":24424:24435  _shares.sub */\n      tag_159\n      swap1\n        /* \"TimeAlly.sol\":24424:24447  _shares.sub(_oldShares) */\n      swap2\n      swap1\n      0xffffffff\n      and\n      jump\t// in\n    tag_158:\n        /* \"TimeAlly.sol\":24408:24447  uint256 _diff = _shares.sub(_oldShares) */\n      swap1\n      pop\n        /* \"TimeAlly.sol\":24518:24583  stakings[msg.sender][_stakingId].totalNominationShares.add(_diff) */\n      tag_160\n        /* \"TimeAlly.sol\":24577:24582  _diff */\n      dup2\n        /* \"TimeAlly.sol\":24518:24526  stakings */\n      0x07\n        /* \"TimeAlly.sol\":24518:24538  stakings[msg.sender] */\n      0x00\n        /* \"TimeAlly.sol\":24527:24537  msg.sender */\n      caller\n        /* \"TimeAlly.sol\":24518:24538  stakings[msg.sender] */\n      0xffffffffffffffffffffffffffffffffffffffff\n      and\n      0xffffffffffffffffffffffffffffffffffffffff\n      and\n      dup2\n      mstore\n      0x20\n      add\n      swap1\n      dup2\n      mstore\n      0x20\n      add\n      0x00\n      keccak256\n        /* \"TimeAlly.sol\":24539:24549  _stakingId */\n      dup8\n        /* \"TimeAlly.sol\":24518:24550  stakings[msg.sender][_stakingId] */\n      dup2\n      sload\n      dup2\n      lt\n      tag_161\n      jumpi\n      invalid\n    tag_161:\n      swap1\n      0x00\n      mstore\n      keccak256(0x00, 0x20)\n      swap1\n      0x08\n      mul\n      add\n        /* \"TimeAlly.sol\":24518:24572  stakings[msg.sender][_stakingId].totalNominationShares */\n      0x05\n      add\n      sload\n        /* \"TimeAlly.sol\":24518:24576  stakings[msg.sender][_stakingId].totalNominationShares.add */\n      tag_163\n      swap1\n        /* \"TimeAlly.sol\":24518:24583  stakings[msg.sender][_stakingId].totalNominationShares.add(_diff) */\n      swap2\n      swap1\n      0xffffffff\n      and\n      jump\t// in\n    tag_160:\n        /* \"TimeAlly.sol\":24461:24469  stakings */\n      0x07\n        /* \"TimeAlly.sol\":24461:24481  stakings[msg.sender] */\n      0x00\n        /* \"TimeAlly.sol\":24470:24480  msg.sender */\n      caller\n        /* \"TimeAlly.sol\":24461:24481  stakings[msg.sender] */\n      0xffffffffffffffffffffffffffffffffffffffff\n      and\n      0xffffffffffffffffffffffffffffffffffffffff\n      and\n      dup2\n      mstore\n      0x20\n      add\n      swap1\n      dup2\n      mstore\n      0x20\n      add\n      0x00\n      keccak256\n        /* \"TimeAlly.sol\":24482:24492  _stakingId */\n      dup7\n        /* \"TimeAlly.sol\":24461:24493  stakings[msg.sender][_stakingId] */\n      dup2\n      sload\n      dup2\n      lt\n      tag_164\n      jumpi\n      invalid\n    tag_164:\n      swap1\n      0x00\n      mstore\n      keccak256(0x00, 0x20)\n      swap1\n      0x08\n      mul\n      add\n        /* \"TimeAlly.sol\":24461:24515  stakings[msg.sender][_stakingId].totalNominationShares */\n      0x05\n      add\n        /* \"TimeAlly.sol\":24461:24583  stakings[msg.sender][_stakingId].totalNominationShares = stakings[msg.sender][_stakingId].totalNominationShares.add(_diff) */\n      dup2\n      swap1\n      sstore\n      pop\n        /* \"TimeAlly.sol\":24660:24731  stakings[msg.sender][_stakingId].nomination[_nomineeAddress].add(_diff) */\n      tag_166\n        /* \"TimeAlly.sol\":24725:24730  _diff */\n      dup2\n        /* \"TimeAlly.sol\":24660:24668  stakings */\n      0x07\n        /* \"TimeAlly.sol\":24660:24680  stakings[msg.sender] */\n      0x00\n        /* \"TimeAlly.sol\":24669:24679  msg.sender */\n      caller\n        /* \"TimeAlly.sol\":24660:24680  stakings[msg.sender] */\n      0xffffffffffffffffffffffffffffffffffffffff\n      and\n      0xffffffffffffffffffffffffffffffffffffffff\n      and\n      dup2\n      mstore\n      0x20\n      add\n      swap1\n      dup2\n      mstore\n      0x20\n      add\n      0x00\n      keccak256\n        /* \"TimeAlly.sol\":24681:24691  _stakingId */\n      dup8\n        /* \"TimeAlly.sol\":24660:24692  stakings[msg.sender][_stakingId] */\n      dup2\n      sload\n      dup2\n      lt\n      tag_167\n      jumpi\n      invalid\n    tag_167:\n      swap1\n      0x00\n      mstore\n      keccak256(0x00, 0x20)\n      swap1\n      0x08\n      mul\n      add\n        /* \"TimeAlly.sol\":24660:24703  stakings[msg.sender][_stakingId].nomination */\n      0x07\n      add\n        /* \"TimeAlly.sol\":24660:24720  stakings[msg.sender][_stakingId].nomination[_nomineeAddress] */\n      0x00\n        /* \"TimeAlly.sol\":24704:24719  _nomineeAddress */\n      dup8\n        /* \"TimeAlly.sol\":24660:24720  stakings[msg.sender][_stakingId].nomination[_nomineeAddress] */\n      0xffffffffffffffffffffffffffffffffffffffff\n      and\n      0xffffffffffffffffffffffffffffffffffffffff\n      and\n      dup2\n      mstore\n      0x20\n      add\n      swap1\n      dup2\n      mstore\n      0x20\n      add\n      0x00\n      keccak256\n      sload\n        /* \"TimeAlly.sol\":24660:24724  stakings[msg.sender][_stakingId].nomination[_nomineeAddress].add */\n      tag_163\n      swap1\n        /* \"TimeAlly.sol\":24660:24731  stakings[msg.sender][_stakingId].nomination[_nomineeAddress].add(_diff) */\n      swap2\n      swap1\n      0xffffffff\n      and\n      jump\t// in\n    tag_166:\n        /* \"TimeAlly.sol\":24597:24605  stakings */\n      0x07\n        /* \"TimeAlly.sol\":24597:24617  stakings[msg.sender] */\n      0x00\n        /* \"TimeAlly.sol\":24606:24616  msg.sender */\n      caller\n        /* \"TimeAlly.sol\":24597:24617  stakings[msg.sender] */\n      0xffffffffffffffffffffffffffffffffffffffff\n      and\n      0xffffffffffffffffffffffffffffffffffffffff\n      and\n      dup2\n      mstore\n      0x20\n      add\n      swap1\n      dup2\n      mstore\n      0x20\n      add\n      0x00\n      keccak256\n        /* \"TimeAlly.sol\":24618:24628  _stakingId */\n      dup7\n        /* \"TimeAlly.sol\":24597:24629  stakings[msg.sender][_stakingId] */\n      dup2\n      sload\n      dup2\n      lt\n      tag_169\n      jumpi\n      invalid\n    tag_169:\n      swap1\n      0x00\n      mstore\n      keccak256(0x00, 0x20)\n      swap1\n      0x08\n      mul\n      add\n        /* \"TimeAlly.sol\":24597:24640  stakings[msg.sender][_stakingId].nomination */\n      0x07\n      add\n        /* \"TimeAlly.sol\":24597:24657  stakings[msg.sender][_stakingId].nomination[_nomineeAddress] */\n      0x00\n        /* \"TimeAlly.sol\":24641:24656  _nomineeAddress */\n      dup7\n        /* \"TimeAlly.sol\":24597:24657  stakings[msg.sender][_stakingId].nomination[_nomineeAddress] */\n      0xffffffffffffffffffffffffffffffffffffffff\n      and\n      0xffffffffffffffffffffffffffffffffffffffff\n      and\n      dup2\n      mstore\n      0x20\n      add\n      swap1\n      dup2\n      mstore\n      0x20\n      add\n      0x00\n      keccak256\n        /* \"TimeAlly.sol\":24597:24731  stakings[msg.sender][_stakingId].nomination[_nomineeAddress] = stakings[msg.sender][_stakingId].nomination[_nomineeAddress].add(_diff) */\n      dup2\n      swap1\n      sstore\n      pop\n        /* \"TimeAlly.sol\":24369:25119  if(_shares > _oldShares) {... */\n      pop\n      jump(tag_171)\n    tag_157:\n        /* \"TimeAlly.sol\":24761:24771  _oldShares */\n      dup1\n        /* \"TimeAlly.sol\":24751:24758  _shares */\n      dup3\n        /* \"TimeAlly.sol\":24751:24771  _shares < _oldShares */\n      lt\n        /* \"TimeAlly.sol\":24748:25119  if(_shares < _oldShares) {... */\n      iszero\n      tag_172\n      jumpi\n        /* \"TimeAlly.sol\":24785:24798  uint256 _diff */\n      0x00\n        /* \"TimeAlly.sol\":24801:24824  _oldShares.sub(_shares) */\n      tag_173\n        /* \"TimeAlly.sol\":24816:24823  _shares */\n      dup4\n        /* \"TimeAlly.sol\":24801:24811  _oldShares */\n      dup4\n        /* \"TimeAlly.sol\":24801:24815  _oldShares.sub */\n      tag_159\n      swap1\n        /* \"TimeAlly.sol\":24801:24824  _oldShares.sub(_shares) */\n      swap2\n      swap1\n      0xffffffff\n      and\n      jump\t// in\n    tag_173:\n        /* \"TimeAlly.sol\":24785:24824  uint256 _diff = _oldShares.sub(_shares) */\n      swap1\n      pop\n        /* \"TimeAlly.sol\":24901:24972  stakings[msg.sender][_stakingId].nomination[_nomineeAddress].sub(_diff) */\n      tag_174\n        /* \"TimeAlly.sol\":24966:24971  _diff */\n      dup2\n        /* \"TimeAlly.sol\":24901:24909  stakings */\n      0x07\n        /* \"TimeAlly.sol\":24901:24921  stakings[msg.sender] */\n      0x00\n        /* \"TimeAlly.sol\":24910:24920  msg.sender */\n      caller\n        /* \"TimeAlly.sol\":24901:24921  stakings[msg.sender] */\n      0xffffffffffffffffffffffffffffffffffffffff\n      and\n      0xffffffffffffffffffffffffffffffffffffffff\n      and\n      dup2\n      mstore\n      0x20\n      add\n      swap1\n      dup2\n      mstore\n      0x20\n      add\n      0x00\n      keccak256\n        /* \"TimeAlly.sol\":24922:24932  _stakingId */\n      dup8\n        /* \"TimeAlly.sol\":24901:24933  stakings[msg.sender][_stakingId] */\n      dup2\n      sload\n      dup2\n      lt\n      tag_175\n      jumpi\n      invalid\n    tag_175:\n      swap1\n      0x00\n      mstore\n      keccak256(0x00, 0x20)\n      swap1\n      0x08\n      mul\n      add\n        /* \"TimeAlly.sol\":24901:24944  stakings[msg.sender][_stakingId].nomination */\n      0x07\n      add\n        /* \"TimeAlly.sol\":24901:24961  stakings[msg.sender][_stakingId].nomination[_nomineeAddress] */\n      0x00\n        /* \"TimeAlly.sol\":24945:24960  _nomineeAddress */\n      dup8\n        /* \"TimeAlly.sol\":24901:24961  stakings[msg.sender][_stakingId].nomination[_nomineeAddress] */\n      0xffffffffffffffffffffffffffffffffffffffff\n      and\n      0xffffffffffffffffffffffffffffffffffffffff\n      and\n      dup2\n      mstore\n      0x20\n      add\n      swap1\n      dup2\n      mstore\n      0x20\n      add\n      0x00\n      keccak256\n      sload\n        /* \"TimeAlly.sol\":24901:24965  stakings[msg.sender][_stakingId].nomination[_nomineeAddress].sub */\n      tag_159\n      swap1\n        /* \"TimeAlly.sol\":24901:24972  stakings[msg.sender][_stakingId].nomination[_nomineeAddress].sub(_diff) */\n      swap2\n      swap1\n      0xffffffff\n      and\n      jump\t// in\n    tag_174:\n        /* \"TimeAlly.sol\":24838:24846  stakings */\n      0x07\n        /* \"TimeAlly.sol\":24838:24858  stakings[msg.sender] */\n      0x00\n        /* \"TimeAlly.sol\":24847:24857  msg.sender */\n      caller\n        /* \"TimeAlly.sol\":24838:24858  stakings[msg.sender] */\n      0xffffffffffffffffffffffffffffffffffffffff\n      and\n      0xffffffffffffffffffffffffffffffffffffffff\n      and\n      dup2\n      mstore\n      0x20\n      add\n      swap1\n      dup2\n      mstore\n      0x20\n      add\n      0x00\n      keccak256\n        /* \"TimeAlly.sol\":24859:24869  _stakingId */\n      dup7\n        /* \"TimeAlly.sol\":24838:24870  stakings[msg.sender][_stakingId] */\n      dup2\n      sload\n      dup2\n      lt\n      tag_177\n      jumpi\n      invalid\n    tag_177:\n      swap1\n      0x00\n      mstore\n      keccak256(0x00, 0x20)\n      swap1\n      0x08\n      mul\n      add\n        /* \"TimeAlly.sol\":24838:24881  stakings[msg.sender][_stakingId].nomination */\n      0x07\n      add\n        /* \"TimeAlly.sol\":24838:24898  stakings[msg.sender][_stakingId].nomination[_nomineeAddress] */\n      0x00\n        /* \"TimeAlly.sol\":24882:24897  _nomineeAddress */\n      dup7\n        /* \"TimeAlly.sol\":24838:24898  stakings[msg.sender][_stakingId].nomination[_nomineeAddress] */\n      0xffffffffffffffffffffffffffffffffffffffff\n      and\n      0xffffffffffffffffffffffffffffffffffffffff\n      and\n      dup2\n      mstore\n      0x20\n      add\n      swap1\n      dup2\n      mstore\n      0x20\n      add\n      0x00\n      keccak256\n        /* \"TimeAlly.sol\":24838:24972  stakings[msg.sender][_stakingId].nomination[_nomineeAddress] = stakings[msg.sender][_stakingId].nomination[_nomineeAddress].sub(_diff) */\n      dup2\n      swap1\n      sstore\n      pop\n        /* \"TimeAlly.sol\":25043:25108  stakings[msg.sender][_stakingId].totalNominationShares.sub(_diff) */\n      tag_179\n        /* \"TimeAlly.sol\":25102:25107  _diff */\n      dup2\n        /* \"TimeAlly.sol\":25043:25051  stakings */\n      0x07\n        /* \"TimeAlly.sol\":25043:25063  stakings[msg.sender] */\n      0x00\n        /* \"TimeAlly.sol\":25052:25062  msg.sender */\n      caller\n        /* \"TimeAlly.sol\":25043:25063  stakings[msg.sender] */\n      0xffffffffffffffffffffffffffffffffffffffff\n      and\n      0xffffffffffffffffffffffffffffffffffffffff\n      and\n      dup2\n      mstore\n      0x20\n      add\n      swap1\n      dup2\n      mstore\n      0x20\n      add\n      0x00\n      keccak256\n        /* \"TimeAlly.sol\":25064:25074  _stakingId */\n      dup8\n        /* \"TimeAlly.sol\":25043:25075  stakings[msg.sender][_stakingId] */\n      dup2\n      sload\n      dup2\n      lt\n      tag_180\n      jumpi\n      invalid\n    tag_180:\n      swap1\n      0x00\n      mstore\n      keccak256(0x00, 0x20)\n      swap1\n      0x08\n      mul\n      add\n        /* \"TimeAlly.sol\":25043:25097  stakings[msg.sender][_stakingId].totalNominationShares */\n      0x05\n      add\n      sload\n        /* \"TimeAlly.sol\":25043:25101  stakings[msg.sender][_stakingId].totalNominationShares.sub */\n      tag_159\n      swap1\n        /* \"TimeAlly.sol\":25043:25108  stakings[msg.sender][_stakingId].totalNominationShares.sub(_diff) */\n      swap2\n      swap1\n      0xffffffff\n      and\n      jump\t// in\n    tag_179:\n        /* \"TimeAlly.sol\":24986:24994  stakings */\n      0x07\n        /* \"TimeAlly.sol\":24986:25006  stakings[msg.sender] */\n      0x00\n        /* \"TimeAlly.sol\":24995:25005  msg.sender */\n      caller\n        /* \"TimeAlly.sol\":24986:25006  stakings[msg.sender] */\n      0xffffffffffffffffffffffffffffffffffffffff\n      and\n      0xffffffffffffffffffffffffffffffffffffffff\n      and\n      dup2\n      mstore\n      0x20\n      add\n      swap1\n      dup2\n      mstore\n      0x20\n      add\n      0x00\n      keccak256\n        /* \"TimeAlly.sol\":25007:25017  _stakingId */\n      dup7\n        /* \"TimeAlly.sol\":24986:25018  stakings[msg.sender][_stakingId] */\n      dup2\n      sload\n      dup2\n      lt\n      tag_182\n      jumpi\n      invalid\n    tag_182:\n      swap1\n      0x00\n      mstore\n      keccak256(0x00, 0x20)\n      swap1\n      0x08\n      mul\n      add\n        /* \"TimeAlly.sol\":24986:25040  stakings[msg.sender][_stakingId].totalNominationShares */\n      0x05\n      add\n        /* \"TimeAlly.sol\":24986:25108  stakings[msg.sender][_stakingId].totalNominationShares = stakings[msg.sender][_stakingId].totalNominationShares.sub(_diff) */\n      dup2\n      swap1\n      sstore\n      pop\n        /* \"TimeAlly.sol\":24748:25119  if(_shares < _oldShares) {... */\n      pop\n    tag_172:\n        /* \"TimeAlly.sol\":24369:25119  if(_shares > _oldShares) {... */\n    tag_171:\n        /* \"TimeAlly.sol\":24088:25125  function updateNominee(uint256 _stakingId, address _nomineeAddress, uint256 _shares) public {... */\n      pop\n      pop\n      pop\n      pop\n      jump\t// out\n        /* \"TimeAlly.sol\":1920:1955  uint256[] public timeAllyMonthlyNRT */\n    tag_49:\n      0x0b\n      dup2\n      dup2\n      sload\n      dup2\n      lt\n      tag_184\n      jumpi\n      invalid\n    tag_184:\n      swap1\n      0x00\n      mstore\n      keccak256(0x00, 0x20)\n      add\n      0x00\n      swap2\n      pop\n      swap1\n      pop\n      sload\n      dup2\n      jump\t// out\n        /* \"TimeAlly.sol\":23875:24082  function viewNomination(address _userAddress, uint256 _stakingId, address _nomineeAddress) public view returns (uint256) {... */\n    tag_52:\n        /* \"TimeAlly.sol\":23987:23994  uint256 */\n      0x00\n        /* \"TimeAlly.sol\":24013:24021  stakings */\n      0x07\n        /* \"TimeAlly.sol\":24013:24035  stakings[_userAddress] */\n      0x00\n        /* \"TimeAlly.sol\":24022:24034  _userAddress */\n      dup6\n        /* \"TimeAlly.sol\":24013:24035  stakings[_userAddress] */\n      0xffffffffffffffffffffffffffffffffffffffff\n      and\n      0xffffffffffffffffffffffffffffffffffffffff\n      and\n      dup2\n      mstore\n      0x20\n      add\n      swap1\n      dup2\n      mstore\n      0x20\n      add\n      0x00\n      keccak256\n        /* \"TimeAlly.sol\":24036:24046  _stakingId */\n      dup4\n        /* \"TimeAlly.sol\":24013:24047  stakings[_userAddress][_stakingId] */\n      dup2\n      sload\n      dup2\n      lt\n      tag_187\n      jumpi\n      invalid\n    tag_187:\n      swap1\n      0x00\n      mstore\n      keccak256(0x00, 0x20)\n      swap1\n      0x08\n      mul\n      add\n        /* \"TimeAlly.sol\":24013:24058  stakings[_userAddress][_stakingId].nomination */\n      0x07\n      add\n        /* \"TimeAlly.sol\":24013:24075  stakings[_userAddress][_stakingId].nomination[_nomineeAddress] */\n      0x00\n        /* \"TimeAlly.sol\":24059:24074  _nomineeAddress */\n      dup4\n        /* \"TimeAlly.sol\":24013:24075  stakings[_userAddress][_stakingId].nomination[_nomineeAddress] */\n      0xffffffffffffffffffffffffffffffffffffffff\n      and\n      0xffffffffffffffffffffffffffffffffffffffff\n      and\n      dup2\n      mstore\n      0x20\n      add\n      swap1\n      dup2\n      mstore\n      0x20\n      add\n      0x00\n      keccak256\n      sload\n        /* \"TimeAlly.sol\":24006:24075  return stakings[_userAddress][_stakingId].nomination[_nomineeAddress] */\n      swap1\n      pop\n        /* \"TimeAlly.sol\":23875:24082  function viewNomination(address _userAddress, uint256 _stakingId, address _nomineeAddress) public view returns (uint256) {... */\n      swap4\n      swap3\n      pop\n      pop\n      pop\n      jump\t// out\n        /* \"TimeAlly.sol\":10316:11569  function seeShareForUserByMonth(address _userAddress, uint256 _atMonth) public view returns (uint256) {... */\n    tag_55:\n        /* \"TimeAlly.sol\":10409:10416  uint256 */\n      0x00\n        /* \"TimeAlly.sol\":10642:10663  uint256 _currentMonth */\n      dup1\n        /* \"TimeAlly.sol\":10666:10683  getCurrentMonth() */\n      tag_190\n        /* \"TimeAlly.sol\":10666:10681  getCurrentMonth */\n      tag_130\n        /* \"TimeAlly.sol\":10666:10683  getCurrentMonth() */\n      jump\t// in\n    tag_190:\n        /* \"TimeAlly.sol\":10642:10683  uint256 _currentMonth = getCurrentMonth() */\n      swap1\n      pop\n        /* \"TimeAlly.sol\":10713:10726  _currentMonth */\n      dup1\n        /* \"TimeAlly.sol\":10701:10709  _atMonth */\n      dup4\n        /* \"TimeAlly.sol\":10701:10726  _atMonth <= _currentMonth */\n      gt\n      iszero\n        /* \"TimeAlly.sol\":10693:10757  require(_atMonth <= _currentMonth, 'cannot see future stakings') */\n      tag_191\n      jumpi\n      mload(0x40)\n      0x08c379a000000000000000000000000000000000000000000000000000000000\n      dup2\n      mstore\n      0x04\n      add\n      dup1\n      dup1\n      0x20\n      add\n      dup3\n      dup2\n      sub\n      dup3\n      mstore\n      0x1a\n      dup2\n      mstore\n      0x20\n      add\n      dup1\n      0x63616e6e6f742073656520667574757265207374616b696e6773000000000000\n      dup2\n      mstore\n      pop\n      0x20\n      add\n      swap2\n      pop\n      pop\n      mload(0x40)\n      dup1\n      swap2\n      sub\n      swap1\n      revert\n    tag_191:\n        /* \"TimeAlly.sol\":10804:10805  0 */\n      0x00\n        /* \"TimeAlly.sol\":10771:10790  totalActiveStakings */\n      0x0a\n        /* \"TimeAlly.sol\":10771:10800  totalActiveStakings[_atMonth] */\n      0x00\n        /* \"TimeAlly.sol\":10791:10799  _atMonth */\n      dup6\n        /* \"TimeAlly.sol\":10771:10800  totalActiveStakings[_atMonth] */\n      dup2\n      mstore\n      0x20\n      add\n      swap1\n      dup2\n      mstore\n      0x20\n      add\n      0x00\n      keccak256\n      sload\n        /* \"TimeAlly.sol\":10771:10805  totalActiveStakings[_atMonth] == 0 */\n      eq\n        /* \"TimeAlly.sol\":10768:10840  if(totalActiveStakings[_atMonth] == 0) {... */\n      iszero\n      tag_192\n      jumpi\n        /* \"TimeAlly.sol\":10828:10829  0 */\n      0x00\n        /* \"TimeAlly.sol\":10821:10829  return 0 */\n      swap2\n      pop\n      pop\n      jump(tag_189)\n        /* \"TimeAlly.sol\":10768:10840  if(totalActiveStakings[_atMonth] == 0) {... */\n    tag_192:\n        /* \"TimeAlly.sol\":10850:10887  uint256 userActiveStakingsExaEsAmount */\n      0x00\n        /* \"TimeAlly.sol\":10902:10911  uint256 i */\n      dup1\n        /* \"TimeAlly.sol\":10914:10915  0 */\n      0x00\n        /* \"TimeAlly.sol\":10902:10915  uint256 i = 0 */\n      swap1\n      pop\n        /* \"TimeAlly.sol\":10898:11447  for(uint256 i = 0; i < stakings[_userAddress].length; i++) {... */\n    tag_193:\n        /* \"TimeAlly.sol\":10921:10929  stakings */\n      0x07\n        /* \"TimeAlly.sol\":10921:10943  stakings[_userAddress] */\n      0x00\n        /* \"TimeAlly.sol\":10930:10942  _userAddress */\n      dup8\n        /* \"TimeAlly.sol\":10921:10943  stakings[_userAddress] */\n      0xffffffffffffffffffffffffffffffffffffffff\n      and\n      0xffffffffffffffffffffffffffffffffffffffff\n      and\n      dup2\n      mstore\n      0x20\n      add\n      swap1\n      dup2\n      mstore\n      0x20\n      add\n      0x00\n      keccak256\n        /* \"TimeAlly.sol\":10921:10950  stakings[_userAddress].length */\n      dup1\n      sload\n      swap1\n      pop\n        /* \"TimeAlly.sol\":10917:10918  i */\n      dup2\n        /* \"TimeAlly.sol\":10917:10950  i < stakings[_userAddress].length */\n      lt\n        /* \"TimeAlly.sol\":10898:11447  for(uint256 i = 0; i < stakings[_userAddress].length; i++) {... */\n      iszero\n      tag_194\n      jumpi\n        /* \"TimeAlly.sol\":10971:10994  StakingPlan memory plan */\n      tag_196\n      tag_197\n      jump\t// in\n    tag_196:\n        /* \"TimeAlly.sol\":10997:11009  stakingPlans */\n      0x05\n        /* \"TimeAlly.sol\":11011:11019  stakings */\n      0x07\n        /* \"TimeAlly.sol\":11011:11033  stakings[_userAddress] */\n      0x00\n        /* \"TimeAlly.sol\":11020:11032  _userAddress */\n      dup10\n        /* \"TimeAlly.sol\":11011:11033  stakings[_userAddress] */\n      0xffffffffffffffffffffffffffffffffffffffff\n      and\n      0xffffffffffffffffffffffffffffffffffffffff\n      and\n      dup2\n      mstore\n      0x20\n      add\n      swap1\n      dup2\n      mstore\n      0x20\n      add\n      0x00\n      keccak256\n        /* \"TimeAlly.sol\":11034:11035  i */\n      dup4\n        /* \"TimeAlly.sol\":11011:11036  stakings[_userAddress][i] */\n      dup2\n      sload\n      dup2\n      lt\n      tag_198\n      jumpi\n      invalid\n    tag_198:\n      swap1\n      0x00\n      mstore\n      keccak256(0x00, 0x20)\n      swap1\n      0x08\n      mul\n      add\n        /* \"TimeAlly.sol\":11011:11050  stakings[_userAddress][i].stakingPlanId */\n      0x02\n      add\n      sload\n        /* \"TimeAlly.sol\":10997:11052  stakingPlans[ stakings[_userAddress][i].stakingPlanId ] */\n      dup2\n      sload\n      dup2\n      lt\n      tag_200\n      jumpi\n      invalid\n    tag_200:\n      swap1\n      0x00\n      mstore\n      keccak256(0x00, 0x20)\n      swap1\n      0x02\n      mul\n      add\n        /* \"TimeAlly.sol\":10971:11052  StakingPlan memory plan = stakingPlans[ stakings[_userAddress][i].stakingPlanId ] */\n      mload(0x40)\n      dup1\n      0x40\n      add\n      0x40\n      mstore\n      swap1\n      dup2\n      0x00\n      dup3\n      add\n      sload\n      dup2\n      mstore\n      0x20\n      add\n      0x01\n      dup3\n      add\n      sload\n      dup2\n      mstore\n      pop\n      pop\n      swap1\n      pop\n        /* \"TimeAlly.sol\":11139:11196  isStakingActive(_userAddress, i, _currentMonth, _atMonth) */\n      tag_202\n        /* \"TimeAlly.sol\":11155:11167  _userAddress */\n      dup8\n        /* \"TimeAlly.sol\":11169:11170  i */\n      dup4\n        /* \"TimeAlly.sol\":11172:11185  _currentMonth */\n      dup7\n        /* \"TimeAlly.sol\":11187:11195  _atMonth */\n      dup10\n        /* \"TimeAlly.sol\":11139:11154  isStakingActive */\n      tag_98\n        /* \"TimeAlly.sol\":11139:11196  isStakingActive(_userAddress, i, _currentMonth, _atMonth) */\n      jump\t// in\n    tag_202:\n        /* \"TimeAlly.sol\":11139:11265  isStakingActive(_userAddress, i, _currentMonth, _atMonth)... */\n      dup1\n      iszero\n      tag_203\n      jumpi\n      pop\n        /* \"TimeAlly.sol\":11215:11223  stakings */\n      0x07\n        /* \"TimeAlly.sol\":11215:11237  stakings[_userAddress] */\n      0x00\n        /* \"TimeAlly.sol\":11224:11236  _userAddress */\n      dup9\n        /* \"TimeAlly.sol\":11215:11237  stakings[_userAddress] */\n      0xffffffffffffffffffffffffffffffffffffffff\n      and\n      0xffffffffffffffffffffffffffffffffffffffff\n      and\n      dup2\n      mstore\n      0x20\n      add\n      swap1\n      dup2\n      mstore\n      0x20\n      add\n      0x00\n      keccak256\n        /* \"TimeAlly.sol\":11238:11239  i */\n      dup3\n        /* \"TimeAlly.sol\":11215:11240  stakings[_userAddress][i] */\n      dup2\n      sload\n      dup2\n      lt\n      tag_204\n      jumpi\n      invalid\n    tag_204:\n      swap1\n      0x00\n      mstore\n      keccak256(0x00, 0x20)\n      swap1\n      0x08\n      mul\n      add\n        /* \"TimeAlly.sol\":11215:11255  stakings[_userAddress][i].isMonthClaimed */\n      0x06\n      add\n        /* \"TimeAlly.sol\":11215:11265  stakings[_userAddress][i].isMonthClaimed[_atMonth] */\n      0x00\n        /* \"TimeAlly.sol\":11256:11264  _atMonth */\n      dup8\n        /* \"TimeAlly.sol\":11215:11265  stakings[_userAddress][i].isMonthClaimed[_atMonth] */\n      dup2\n      mstore\n      0x20\n      add\n      swap1\n      dup2\n      mstore\n      0x20\n      add\n      0x00\n      keccak256\n      0x00\n      swap1\n      sload\n      swap1\n      0x0100\n      exp\n      swap1\n      div\n      0xff\n      and\n        /* \"TimeAlly.sol\":11214:11265  !stakings[_userAddress][i].isMonthClaimed[_atMonth] */\n      iszero\n        /* \"TimeAlly.sol\":11139:11265  isStakingActive(_userAddress, i, _currentMonth, _atMonth)... */\n    tag_203:\n        /* \"TimeAlly.sol\":11136:11437  if(isStakingActive(_userAddress, i, _currentMonth, _atMonth)... */\n      iszero\n      tag_206\n      jumpi\n        /* \"TimeAlly.sol\":11317:11422  userActiveStakingsExaEsAmount.add(stakings[_userAddress][i].exaEsAmount.mul(plan.fractionFrom15).div(15)) */\n      tag_207\n        /* \"TimeAlly.sol\":11351:11421  stakings[_userAddress][i].exaEsAmount.mul(plan.fractionFrom15).div(15) */\n      tag_208\n        /* \"TimeAlly.sol\":11418:11420  15 */\n      0x0f\n        /* \"TimeAlly.sol\":11351:11413  stakings[_userAddress][i].exaEsAmount.mul(plan.fractionFrom15) */\n      tag_209\n        /* \"TimeAlly.sol\":11393:11397  plan */\n      dup5\n        /* \"TimeAlly.sol\":11393:11412  plan.fractionFrom15 */\n      0x20\n      add\n      mload\n        /* \"TimeAlly.sol\":11351:11359  stakings */\n      0x07\n        /* \"TimeAlly.sol\":11351:11373  stakings[_userAddress] */\n      0x00\n        /* \"TimeAlly.sol\":11360:11372  _userAddress */\n      dup14\n        /* \"TimeAlly.sol\":11351:11373  stakings[_userAddress] */\n      0xffffffffffffffffffffffffffffffffffffffff\n      and\n      0xffffffffffffffffffffffffffffffffffffffff\n      and\n      dup2\n      mstore\n      0x20\n      add\n      swap1\n      dup2\n      mstore\n      0x20\n      add\n      0x00\n      keccak256\n        /* \"TimeAlly.sol\":11374:11375  i */\n      dup8\n        /* \"TimeAlly.sol\":11351:11376  stakings[_userAddress][i] */\n      dup2\n      sload\n      dup2\n      lt\n      tag_210\n      jumpi\n      invalid\n    tag_210:\n      swap1\n      0x00\n      mstore\n      keccak256(0x00, 0x20)\n      swap1\n      0x08\n      mul\n      add\n        /* \"TimeAlly.sol\":11351:11388  stakings[_userAddress][i].exaEsAmount */\n      0x00\n      add\n      sload\n        /* \"TimeAlly.sol\":11351:11392  stakings[_userAddress][i].exaEsAmount.mul */\n      tag_212\n      swap1\n        /* \"TimeAlly.sol\":11351:11413  stakings[_userAddress][i].exaEsAmount.mul(plan.fractionFrom15) */\n      swap2\n      swap1\n      0xffffffff\n      and\n      jump\t// in\n    tag_209:\n        /* \"TimeAlly.sol\":11351:11417  stakings[_userAddress][i].exaEsAmount.mul(plan.fractionFrom15).div */\n      tag_213\n      swap1\n        /* \"TimeAlly.sol\":11351:11421  stakings[_userAddress][i].exaEsAmount.mul(plan.fractionFrom15).div(15) */\n      swap2\n      swap1\n      0xffffffff\n      and\n      jump\t// in\n    tag_208:\n        /* \"TimeAlly.sol\":11317:11346  userActiveStakingsExaEsAmount */\n      dup5\n        /* \"TimeAlly.sol\":11317:11350  userActiveStakingsExaEsAmount.add */\n      tag_163\n      swap1\n        /* \"TimeAlly.sol\":11317:11422  userActiveStakingsExaEsAmount.add(stakings[_userAddress][i].exaEsAmount.mul(plan.fractionFrom15).div(15)) */\n      swap2\n      swap1\n      0xffffffff\n      and\n      jump\t// in\n    tag_207:\n        /* \"TimeAlly.sol\":11285:11422  userActiveStakingsExaEsAmount = userActiveStakingsExaEsAmount.add(stakings[_userAddress][i].exaEsAmount.mul(plan.fractionFrom15).div(15)) */\n      swap3\n      pop\n        /* \"TimeAlly.sol\":11136:11437  if(isStakingActive(_userAddress, i, _currentMonth, _atMonth)... */\n    tag_206:\n        /* \"TimeAlly.sol\":10898:11447  for(uint256 i = 0; i < stakings[_userAddress].length; i++) {... */\n      pop\n        /* \"TimeAlly.sol\":10952:10955  i++ */\n      dup1\n      dup1\n      0x01\n      add\n      swap2\n      pop\n      pop\n        /* \"TimeAlly.sol\":10898:11447  for(uint256 i = 0; i < stakings[_userAddress].length; i++) {... */\n      jump(tag_193)\n    tag_194:\n      pop\n        /* \"TimeAlly.sol\":11464:11562  userActiveStakingsExaEsAmount.mul(timeAllyMonthlyNRT[_atMonth]).div(totalActiveStakings[_atMonth]) */\n      tag_214\n        /* \"TimeAlly.sol\":11532:11551  totalActiveStakings */\n      0x0a\n        /* \"TimeAlly.sol\":11532:11561  totalActiveStakings[_atMonth] */\n      0x00\n        /* \"TimeAlly.sol\":11552:11560  _atMonth */\n      dup7\n        /* \"TimeAlly.sol\":11532:11561  totalActiveStakings[_atMonth] */\n      dup2\n      mstore\n      0x20\n      add\n      swap1\n      dup2\n      mstore\n      0x20\n      add\n      0x00\n      keccak256\n      sload\n        /* \"TimeAlly.sol\":11464:11527  userActiveStakingsExaEsAmount.mul(timeAllyMonthlyNRT[_atMonth]) */\n      tag_215\n        /* \"TimeAlly.sol\":11498:11516  timeAllyMonthlyNRT */\n      0x0b\n        /* \"TimeAlly.sol\":11517:11525  _atMonth */\n      dup8\n        /* \"TimeAlly.sol\":11498:11526  timeAllyMonthlyNRT[_atMonth] */\n      dup2\n      sload\n      dup2\n      lt\n      tag_216\n      jumpi\n      invalid\n    tag_216:\n      swap1\n      0x00\n      mstore\n      keccak256(0x00, 0x20)\n      add\n      sload\n        /* \"TimeAlly.sol\":11464:11493  userActiveStakingsExaEsAmount */\n      dup5\n        /* \"TimeAlly.sol\":11464:11497  userActiveStakingsExaEsAmount.mul */\n      tag_212\n      swap1\n        /* \"TimeAlly.sol\":11464:11527  userActiveStakingsExaEsAmount.mul(timeAllyMonthlyNRT[_atMonth]) */\n      swap2\n      swap1\n      0xffffffff\n      and\n      jump\t// in\n    tag_215:\n        /* \"TimeAlly.sol\":11464:11531  userActiveStakingsExaEsAmount.mul(timeAllyMonthlyNRT[_atMonth]).div */\n      tag_213\n      swap1\n        /* \"TimeAlly.sol\":11464:11562  userActiveStakingsExaEsAmount.mul(timeAllyMonthlyNRT[_atMonth]).div(totalActiveStakings[_atMonth]) */\n      swap2\n      swap1\n      0xffffffff\n      and\n      jump\t// in\n    tag_214:\n        /* \"TimeAlly.sol\":11457:11562  return userActiveStakingsExaEsAmount.mul(timeAllyMonthlyNRT[_atMonth]).div(totalActiveStakings[_atMonth]) */\n      swap3\n      pop\n      pop\n      pop\n        /* \"TimeAlly.sol\":10316:11569  function seeShareForUserByMonth(address _userAddress, uint256 _atMonth) public view returns (uint256) {... */\n    tag_189:\n      swap3\n      swap2\n      pop\n      pop\n      jump\t// out\n        /* \"TimeAlly.sol\":5979:6603  function viewStaking(... */\n    tag_58:\n        /* \"TimeAlly.sol\":6085:6092  uint256 */\n      0x00\n        /* \"TimeAlly.sol\":6094:6101  uint256 */\n      dup1\n        /* \"TimeAlly.sol\":6103:6110  uint256 */\n      0x00\n        /* \"TimeAlly.sol\":6112:6119  uint256 */\n      dup1\n        /* \"TimeAlly.sol\":6121:6128  uint256 */\n      0x00\n        /* \"TimeAlly.sol\":6130:6137  uint256 */\n      dup1\n        /* \"TimeAlly.sol\":6170:6178  stakings */\n      0x07\n        /* \"TimeAlly.sol\":6170:6192  stakings[_userAddress] */\n      0x00\n        /* \"TimeAlly.sol\":6179:6191  _userAddress */\n      dup10\n        /* \"TimeAlly.sol\":6170:6192  stakings[_userAddress] */\n      0xffffffffffffffffffffffffffffffffffffffff\n      and\n      0xffffffffffffffffffffffffffffffffffffffff\n      and\n      dup2\n      mstore\n      0x20\n      add\n      swap1\n      dup2\n      mstore\n      0x20\n      add\n      0x00\n      keccak256\n        /* \"TimeAlly.sol\":6193:6203  _stakingId */\n      dup8\n        /* \"TimeAlly.sol\":6170:6204  stakings[_userAddress][_stakingId] */\n      dup2\n      sload\n      dup2\n      lt\n      tag_219\n      jumpi\n      invalid\n    tag_219:\n      swap1\n      0x00\n      mstore\n      keccak256(0x00, 0x20)\n      swap1\n      0x08\n      mul\n      add\n        /* \"TimeAlly.sol\":6170:6216  stakings[_userAddress][_stakingId].exaEsAmount */\n      0x00\n      add\n      sload\n        /* \"TimeAlly.sol\":6230:6238  stakings */\n      0x07\n        /* \"TimeAlly.sol\":6230:6252  stakings[_userAddress] */\n      0x00\n        /* \"TimeAlly.sol\":6239:6251  _userAddress */\n      dup11\n        /* \"TimeAlly.sol\":6230:6252  stakings[_userAddress] */\n      0xffffffffffffffffffffffffffffffffffffffff\n      and\n      0xffffffffffffffffffffffffffffffffffffffff\n      and\n      dup2\n      mstore\n      0x20\n      add\n      swap1\n      dup2\n      mstore\n      0x20\n      add\n      0x00\n      keccak256\n        /* \"TimeAlly.sol\":6253:6263  _stakingId */\n      dup9\n        /* \"TimeAlly.sol\":6230:6264  stakings[_userAddress][_stakingId] */\n      dup2\n      sload\n      dup2\n      lt\n      tag_221\n      jumpi\n      invalid\n    tag_221:\n      swap1\n      0x00\n      mstore\n      keccak256(0x00, 0x20)\n      swap1\n      0x08\n      mul\n      add\n        /* \"TimeAlly.sol\":6230:6274  stakings[_userAddress][_stakingId].timestamp */\n      0x01\n      add\n      sload\n        /* \"TimeAlly.sol\":6288:6296  stakings */\n      0x07\n        /* \"TimeAlly.sol\":6288:6310  stakings[_userAddress] */\n      0x00\n        /* \"TimeAlly.sol\":6297:6309  _userAddress */\n      dup12\n        /* \"TimeAlly.sol\":6288:6310  stakings[_userAddress] */\n      0xffffffffffffffffffffffffffffffffffffffff\n      and\n      0xffffffffffffffffffffffffffffffffffffffff\n      and\n      dup2\n      mstore\n      0x20\n      add\n      swap1\n      dup2\n      mstore\n      0x20\n      add\n      0x00\n      keccak256\n        /* \"TimeAlly.sol\":6311:6321  _stakingId */\n      dup10\n        /* \"TimeAlly.sol\":6288:6322  stakings[_userAddress][_stakingId] */\n      dup2\n      sload\n      dup2\n      lt\n      tag_223\n      jumpi\n      invalid\n    tag_223:\n      swap1\n      0x00\n      mstore\n      keccak256(0x00, 0x20)\n      swap1\n      0x08\n      mul\n      add\n        /* \"TimeAlly.sol\":6288:6336  stakings[_userAddress][_stakingId].stakingPlanId */\n      0x02\n      add\n      sload\n        /* \"TimeAlly.sol\":6350:6358  stakings */\n      0x07\n        /* \"TimeAlly.sol\":6350:6372  stakings[_userAddress] */\n      0x00\n        /* \"TimeAlly.sol\":6359:6371  _userAddress */\n      dup13\n        /* \"TimeAlly.sol\":6350:6372  stakings[_userAddress] */\n      0xffffffffffffffffffffffffffffffffffffffff\n      and\n      0xffffffffffffffffffffffffffffffffffffffff\n      and\n      dup2\n      mstore\n      0x20\n      add\n      swap1\n      dup2\n      mstore\n      0x20\n      add\n      0x00\n      keccak256\n        /* \"TimeAlly.sol\":6373:6383  _stakingId */\n      dup11\n        /* \"TimeAlly.sol\":6350:6384  stakings[_userAddress][_stakingId] */\n      dup2\n      sload\n      dup2\n      lt\n      tag_225\n      jumpi\n      invalid\n    tag_225:\n      swap1\n      0x00\n      mstore\n      keccak256(0x00, 0x20)\n      swap1\n      0x08\n      mul\n      add\n        /* \"TimeAlly.sol\":6350:6391  stakings[_userAddress][_stakingId].status */\n      0x03\n      add\n      sload\n        /* \"TimeAlly.sol\":6475:6483  stakings */\n      0x07\n        /* \"TimeAlly.sol\":6475:6497  stakings[_userAddress] */\n      0x00\n        /* \"TimeAlly.sol\":6484:6496  _userAddress */\n      dup14\n        /* \"TimeAlly.sol\":6475:6497  stakings[_userAddress] */\n      0xffffffffffffffffffffffffffffffffffffffff\n      and\n      0xffffffffffffffffffffffffffffffffffffffff\n      and\n      dup2\n      mstore\n      0x20\n      add\n      swap1\n      dup2\n      mstore\n      0x20\n      add\n      0x00\n      keccak256\n        /* \"TimeAlly.sol\":6498:6508  _stakingId */\n      dup12\n        /* \"TimeAlly.sol\":6475:6509  stakings[_userAddress][_stakingId] */\n      dup2\n      sload\n      dup2\n      lt\n      tag_227\n      jumpi\n      invalid\n    tag_227:\n      swap1\n      0x00\n      mstore\n      keccak256(0x00, 0x20)\n      swap1\n      0x08\n      mul\n      add\n        /* \"TimeAlly.sol\":6475:6516  stakings[_userAddress][_stakingId].loanId */\n      0x04\n      add\n      sload\n        /* \"TimeAlly.sol\":6530:6538  stakings */\n      0x07\n        /* \"TimeAlly.sol\":6530:6552  stakings[_userAddress] */\n      0x00\n        /* \"TimeAlly.sol\":6539:6551  _userAddress */\n      dup15\n        /* \"TimeAlly.sol\":6530:6552  stakings[_userAddress] */\n      0xffffffffffffffffffffffffffffffffffffffff\n      and\n      0xffffffffffffffffffffffffffffffffffffffff\n      and\n      dup2\n      mstore\n      0x20\n      add\n      swap1\n      dup2\n      mstore\n      0x20\n      add\n      0x00\n      keccak256\n        /* \"TimeAlly.sol\":6553:6563  _stakingId */\n      dup13\n        /* \"TimeAlly.sol\":6530:6564  stakings[_userAddress][_stakingId] */\n      dup2\n      sload\n      dup2\n      lt\n      tag_229\n      jumpi\n      invalid\n    tag_229:\n      swap1\n      0x00\n      mstore\n      keccak256(0x00, 0x20)\n      swap1\n      0x08\n      mul\n      add\n        /* \"TimeAlly.sol\":6530:6586  stakings[_userAddress][_stakingId].totalNominationShares */\n      0x05\n      add\n      sload\n        /* \"TimeAlly.sol\":6149:6596  return (... */\n      swap6\n      pop\n      swap6\n      pop\n      swap6\n      pop\n      swap6\n      pop\n      swap6\n      pop\n      swap6\n      pop\n        /* \"TimeAlly.sol\":5979:6603  function viewStaking(... */\n      swap3\n      swap6\n      pop\n      swap3\n      swap6\n      pop\n      swap3\n      swap6\n      jump\t// out\n        /* \"TimeAlly.sol\":17459:17575  function timeAllyMonthlyNRTArray() public view returns (uint256[] memory) {... */\n    tag_60:\n        /* \"TimeAlly.sol\":17515:17531  uint256[] memory */\n      0x60\n        /* \"TimeAlly.sol\":17550:17568  timeAllyMonthlyNRT */\n      0x0b\n        /* \"TimeAlly.sol\":17543:17568  return timeAllyMonthlyNRT */\n      dup1\n      sload\n      dup1\n      0x20\n      mul\n      0x20\n      add\n      mload(0x40)\n      swap1\n      dup2\n      add\n      0x40\n      mstore\n      dup1\n      swap3\n      swap2\n      swap1\n      dup2\n      dup2\n      mstore\n      0x20\n      add\n      dup3\n      dup1\n      sload\n      dup1\n      iszero\n      tag_232\n      jumpi\n      0x20\n      mul\n      dup3\n      add\n      swap2\n      swap1\n      0x00\n      mstore\n      keccak256(0x00, 0x20)\n      swap1\n    tag_233:\n      dup2\n      sload\n      dup2\n      mstore\n      0x20\n      add\n      swap1\n      0x01\n      add\n      swap1\n      dup1\n      dup4\n      gt\n      tag_233\n      jumpi\n    tag_232:\n      pop\n      pop\n      pop\n      pop\n      pop\n      swap1\n      pop\n        /* \"TimeAlly.sol\":17459:17575  function timeAllyMonthlyNRTArray() public view returns (uint256[] memory) {... */\n      swap1\n      jump\t// out\n        /* \"TimeAlly.sol\":1715:1770  mapping (uint256 => uint256) public totalActiveStakings */\n    tag_66:\n      mstore(0x20, 0x0a)\n      dup1\n      0x00\n      mstore\n      keccak256(0x00, 0x40)\n      0x00\n      swap2\n      pop\n      swap1\n      pop\n      sload\n      dup2\n      jump\t// out\n        /* \"TimeAlly.sol\":25131:25598  function removeNominee(uint256 _stakingId, address _nomineeAddress) public {... */\n    tag_69:\n        /* \"TimeAlly.sol\":25267:25268  1 */\n      0x01\n        /* \"TimeAlly.sol\":25224:25232  stakings */\n      0x07\n        /* \"TimeAlly.sol\":25224:25244  stakings[msg.sender] */\n      0x00\n        /* \"TimeAlly.sol\":25233:25243  msg.sender */\n      caller\n        /* \"TimeAlly.sol\":25224:25244  stakings[msg.sender] */\n      0xffffffffffffffffffffffffffffffffffffffff\n      and\n      0xffffffffffffffffffffffffffffffffffffffff\n      and\n      dup2\n      mstore\n      0x20\n      add\n      swap1\n      dup2\n      mstore\n      0x20\n      add\n      0x00\n      keccak256\n        /* \"TimeAlly.sol\":25245:25255  _stakingId */\n      dup4\n        /* \"TimeAlly.sol\":25224:25256  stakings[msg.sender][_stakingId] */\n      dup2\n      sload\n      dup2\n      lt\n      tag_235\n      jumpi\n      invalid\n    tag_235:\n      swap1\n      0x00\n      mstore\n      keccak256(0x00, 0x20)\n      swap1\n      0x08\n      mul\n      add\n        /* \"TimeAlly.sol\":25224:25263  stakings[msg.sender][_stakingId].status */\n      0x03\n      add\n      sload\n        /* \"TimeAlly.sol\":25224:25268  stakings[msg.sender][_stakingId].status == 1 */\n      eq\n        /* \"TimeAlly.sol\":25216:25294  require(stakings[msg.sender][_stakingId].status == 1, 'staking should active') */\n      tag_237\n      jumpi\n      mload(0x40)\n      0x08c379a000000000000000000000000000000000000000000000000000000000\n      dup2\n      mstore\n      0x04\n      add\n      dup1\n      dup1\n      0x20\n      add\n      dup3\n      dup2\n      sub\n      dup3\n      mstore\n      0x15\n      dup2\n      mstore\n      0x20\n      add\n      dup1\n      0x7374616b696e672073686f756c64206163746976650000000000000000000000\n      dup2\n      mstore\n      pop\n      0x20\n      add\n      swap2\n      pop\n      pop\n      mload(0x40)\n      dup1\n      swap2\n      sub\n      swap1\n      revert\n    tag_237:\n        /* \"TimeAlly.sol\":25304:25322  uint256 _oldShares */\n      0x00\n        /* \"TimeAlly.sol\":25325:25333  stakings */\n      0x07\n        /* \"TimeAlly.sol\":25325:25345  stakings[msg.sender] */\n      0x00\n        /* \"TimeAlly.sol\":25334:25344  msg.sender */\n      caller\n        /* \"TimeAlly.sol\":25325:25345  stakings[msg.sender] */\n      0xffffffffffffffffffffffffffffffffffffffff\n      and\n      0xffffffffffffffffffffffffffffffffffffffff\n      and\n      dup2\n      mstore\n      0x20\n      add\n      swap1\n      dup2\n      mstore\n      0x20\n      add\n      0x00\n      keccak256\n        /* \"TimeAlly.sol\":25346:25356  _stakingId */\n      dup4\n        /* \"TimeAlly.sol\":25325:25357  stakings[msg.sender][_stakingId] */\n      dup2\n      sload\n      dup2\n      lt\n      tag_238\n      jumpi\n      invalid\n    tag_238:\n      swap1\n      0x00\n      mstore\n      keccak256(0x00, 0x20)\n      swap1\n      0x08\n      mul\n      add\n        /* \"TimeAlly.sol\":25325:25368  stakings[msg.sender][_stakingId].nomination */\n      0x07\n      add\n        /* \"TimeAlly.sol\":25325:25380  stakings[msg.sender][_stakingId].nomination[msg.sender] */\n      0x00\n        /* \"TimeAlly.sol\":25369:25379  msg.sender */\n      caller\n        /* \"TimeAlly.sol\":25325:25380  stakings[msg.sender][_stakingId].nomination[msg.sender] */\n      0xffffffffffffffffffffffffffffffffffffffff\n      and\n      0xffffffffffffffffffffffffffffffffffffffff\n      and\n      dup2\n      mstore\n      0x20\n      add\n      swap1\n      dup2\n      mstore\n      0x20\n      add\n      0x00\n      keccak256\n      sload\n        /* \"TimeAlly.sol\":25304:25380  uint256 _oldShares = stakings[msg.sender][_stakingId].nomination[msg.sender] */\n      swap1\n      pop\n        /* \"TimeAlly.sol\":25453:25454  0 */\n      0x00\n        /* \"TimeAlly.sol\":25390:25398  stakings */\n      0x07\n        /* \"TimeAlly.sol\":25390:25410  stakings[msg.sender] */\n      0x00\n        /* \"TimeAlly.sol\":25399:25409  msg.sender */\n      caller\n        /* \"TimeAlly.sol\":25390:25410  stakings[msg.sender] */\n      0xffffffffffffffffffffffffffffffffffffffff\n      and\n      0xffffffffffffffffffffffffffffffffffffffff\n      and\n      dup2\n      mstore\n      0x20\n      add\n      swap1\n      dup2\n      mstore\n      0x20\n      add\n      0x00\n      keccak256\n        /* \"TimeAlly.sol\":25411:25421  _stakingId */\n      dup5\n        /* \"TimeAlly.sol\":25390:25422  stakings[msg.sender][_stakingId] */\n      dup2\n      sload\n      dup2\n      lt\n      tag_240\n      jumpi\n      invalid\n    tag_240:\n      swap1\n      0x00\n      mstore\n      keccak256(0x00, 0x20)\n      swap1\n      0x08\n      mul\n      add\n        /* \"TimeAlly.sol\":25390:25433  stakings[msg.sender][_stakingId].nomination */\n      0x07\n      add\n        /* \"TimeAlly.sol\":25390:25450  stakings[msg.sender][_stakingId].nomination[_nomineeAddress] */\n      0x00\n        /* \"TimeAlly.sol\":25434:25449  _nomineeAddress */\n      dup5\n        /* \"TimeAlly.sol\":25390:25450  stakings[msg.sender][_stakingId].nomination[_nomineeAddress] */\n      0xffffffffffffffffffffffffffffffffffffffff\n      and\n      0xffffffffffffffffffffffffffffffffffffffff\n      and\n      dup2\n      mstore\n      0x20\n      add\n      swap1\n      dup2\n      mstore\n      0x20\n      add\n      0x00\n      keccak256\n        /* \"TimeAlly.sol\":25390:25454  stakings[msg.sender][_stakingId].nomination[_nomineeAddress] = 0 */\n      dup2\n      swap1\n      sstore\n      pop\n        /* \"TimeAlly.sol\":25521:25591  stakings[msg.sender][_stakingId].totalNominationShares.sub(_oldShares) */\n      tag_242\n        /* \"TimeAlly.sol\":25580:25590  _oldShares */\n      dup2\n        /* \"TimeAlly.sol\":25521:25529  stakings */\n      0x07\n        /* \"TimeAlly.sol\":25521:25541  stakings[msg.sender] */\n      0x00\n        /* \"TimeAlly.sol\":25530:25540  msg.sender */\n      caller\n        /* \"TimeAlly.sol\":25521:25541  stakings[msg.sender] */\n      0xffffffffffffffffffffffffffffffffffffffff\n      and\n      0xffffffffffffffffffffffffffffffffffffffff\n      and\n      dup2\n      mstore\n      0x20\n      add\n      swap1\n      dup2\n      mstore\n      0x20\n      add\n      0x00\n      keccak256\n        /* \"TimeAlly.sol\":25542:25552  _stakingId */\n      dup6\n        /* \"TimeAlly.sol\":25521:25553  stakings[msg.sender][_stakingId] */\n      dup2\n      sload\n      dup2\n      lt\n      tag_243\n      jumpi\n      invalid\n    tag_243:\n      swap1\n      0x00\n      mstore\n      keccak256(0x00, 0x20)\n      swap1\n      0x08\n      mul\n      add\n        /* \"TimeAlly.sol\":25521:25575  stakings[msg.sender][_stakingId].totalNominationShares */\n      0x05\n      add\n      sload\n        /* \"TimeAlly.sol\":25521:25579  stakings[msg.sender][_stakingId].totalNominationShares.sub */\n      tag_159\n      swap1\n        /* \"TimeAlly.sol\":25521:25591  stakings[msg.sender][_stakingId].totalNominationShares.sub(_oldShares) */\n      swap2\n      swap1\n      0xffffffff\n      and\n      jump\t// in\n    tag_242:\n        /* \"TimeAlly.sol\":25464:25472  stakings */\n      0x07\n        /* \"TimeAlly.sol\":25464:25484  stakings[msg.sender] */\n      0x00\n        /* \"TimeAlly.sol\":25473:25483  msg.sender */\n      caller\n        /* \"TimeAlly.sol\":25464:25484  stakings[msg.sender] */\n      0xffffffffffffffffffffffffffffffffffffffff\n      and\n      0xffffffffffffffffffffffffffffffffffffffff\n      and\n      dup2\n      mstore\n      0x20\n      add\n      swap1\n      dup2\n      mstore\n      0x20\n      add\n      0x00\n      keccak256\n        /* \"TimeAlly.sol\":25485:25495  _stakingId */\n      dup5\n        /* \"TimeAlly.sol\":25464:25496  stakings[msg.sender][_stakingId] */\n      dup2\n      sload\n      dup2\n      lt\n      tag_245\n      jumpi\n      invalid\n    tag_245:\n      swap1\n      0x00\n      mstore\n      keccak256(0x00, 0x20)\n      swap1\n      0x08\n      mul\n      add\n        /* \"TimeAlly.sol\":25464:25518  stakings[msg.sender][_stakingId].totalNominationShares */\n      0x05\n      add\n        /* \"TimeAlly.sol\":25464:25591  stakings[msg.sender][_stakingId].totalNominationShares = stakings[msg.sender][_stakingId].totalNominationShares.sub(_oldShares) */\n      dup2\n      swap1\n      sstore\n      pop\n        /* \"TimeAlly.sol\":25131:25598  function removeNominee(uint256 _stakingId, address _nomineeAddress) public {... */\n      pop\n      pop\n      pop\n      jump\t// out\n        /* \"TimeAlly.sol\":6609:6898  function topupRewardBucket(uint256 _exaEsAmount) public {... */\n    tag_72:\n        /* \"TimeAlly.sol\":6683:6688  token */\n      0x02\n      0x00\n      swap1\n      sload\n      swap1\n      0x0100\n      exp\n      swap1\n      div\n      0xffffffffffffffffffffffffffffffffffffffff\n      and\n        /* \"TimeAlly.sol\":6683:6701  token.transferFrom */\n      0xffffffffffffffffffffffffffffffffffffffff\n      and\n      0x23b872dd\n        /* \"TimeAlly.sol\":6702:6712  msg.sender */\n      caller\n        /* \"TimeAlly.sol\":6722:6726  this */\n      address\n        /* \"TimeAlly.sol\":6729:6741  _exaEsAmount */\n      dup5\n        /* \"TimeAlly.sol\":6683:6742  token.transferFrom(msg.sender, address(this), _exaEsAmount) */\n      mload(0x40)\n      dup5\n      0xffffffff\n      and\n      0xe0\n      shl\n      dup2\n      mstore\n      0x04\n      add\n      dup1\n      dup5\n      0xffffffffffffffffffffffffffffffffffffffff\n      and\n      0xffffffffffffffffffffffffffffffffffffffff\n      and\n      dup2\n      mstore\n      0x20\n      add\n      dup4\n      0xffffffffffffffffffffffffffffffffffffffff\n      and\n      0xffffffffffffffffffffffffffffffffffffffff\n      and\n      dup2\n      mstore\n      0x20\n      add\n      dup3\n      dup2\n      mstore\n      0x20\n      add\n      swap4\n      pop\n      pop\n      pop\n      pop\n      0x20\n      mload(0x40)\n      dup1\n      dup4\n      sub\n      dup2\n      0x00\n      dup8\n      dup1\n      extcodesize\n      iszero\n        /* \"--CODEGEN--\":8:17   */\n      dup1\n        /* \"--CODEGEN--\":5:7   */\n      iszero\n      tag_248\n      jumpi\n        /* \"--CODEGEN--\":30:31   */\n      0x00\n        /* \"--CODEGEN--\":27:28   */\n      dup1\n        /* \"--CODEGEN--\":20:32   */\n      revert\n        /* \"--CODEGEN--\":5:7   */\n    tag_248:\n        /* \"TimeAlly.sol\":6683:6742  token.transferFrom(msg.sender, address(this), _exaEsAmount) */\n      pop\n      gas\n      call\n      iszero\n        /* \"--CODEGEN--\":8:17   */\n      dup1\n        /* \"--CODEGEN--\":5:7   */\n      iszero\n      tag_249\n      jumpi\n        /* \"--CODEGEN--\":45:61   */\n      returndatasize\n        /* \"--CODEGEN--\":42:43   */\n      0x00\n        /* \"--CODEGEN--\":39:40   */\n      dup1\n        /* \"--CODEGEN--\":24:62   */\n      returndatacopy\n        /* \"--CODEGEN--\":77:93   */\n      returndatasize\n        /* \"--CODEGEN--\":74:75   */\n      0x00\n        /* \"--CODEGEN--\":67:94   */\n      revert\n        /* \"--CODEGEN--\":5:7   */\n    tag_249:\n        /* \"TimeAlly.sol\":6683:6742  token.transferFrom(msg.sender, address(this), _exaEsAmount) */\n      pop\n      pop\n      pop\n      pop\n      mload(0x40)\n      returndatasize\n        /* \"--CODEGEN--\":13:15   */\n      0x20\n        /* \"--CODEGEN--\":8:11   */\n      dup2\n        /* \"--CODEGEN--\":5:16   */\n      lt\n        /* \"--CODEGEN--\":2:4   */\n      iszero\n      tag_250\n      jumpi\n        /* \"--CODEGEN--\":29:30   */\n      0x00\n        /* \"--CODEGEN--\":26:27   */\n      dup1\n        /* \"--CODEGEN--\":19:31   */\n      revert\n        /* \"--CODEGEN--\":2:4   */\n    tag_250:\n        /* \"TimeAlly.sol\":6683:6742  token.transferFrom(msg.sender, address(this), _exaEsAmount) */\n      dup2\n      add\n      swap1\n      dup1\n      dup1\n      mload\n      swap1\n      0x20\n      add\n      swap1\n      swap3\n      swap2\n      swap1\n      pop\n      pop\n      pop\n        /* \"TimeAlly.sol\":6675:6743  require(token.transferFrom(msg.sender, address(this), _exaEsAmount)) */\n      tag_251\n      jumpi\n      0x00\n      dup1\n      revert\n    tag_251:\n        /* \"TimeAlly.sol\":6849:6891  launchReward[msg.sender].add(_exaEsAmount) */\n      tag_252\n        /* \"TimeAlly.sol\":6878:6890  _exaEsAmount */\n      dup2\n        /* \"TimeAlly.sol\":6849:6861  launchReward */\n      0x09\n        /* \"TimeAlly.sol\":6849:6873  launchReward[msg.sender] */\n      0x00\n        /* \"TimeAlly.sol\":6862:6872  msg.sender */\n      caller\n        /* \"TimeAlly.sol\":6849:6873  launchReward[msg.sender] */\n      0xffffffffffffffffffffffffffffffffffffffff\n      and\n      0xffffffffffffffffffffffffffffffffffffffff\n      and\n      dup2\n      mstore\n      0x20\n      add\n      swap1\n      dup2\n      mstore\n      0x20\n      add\n      0x00\n      keccak256\n      sload\n        /* \"TimeAlly.sol\":6849:6877  launchReward[msg.sender].add */\n      tag_163\n      swap1\n        /* \"TimeAlly.sol\":6849:6891  launchReward[msg.sender].add(_exaEsAmount) */\n      swap2\n      swap1\n      0xffffffff\n      and\n      jump\t// in\n    tag_252:\n        /* \"TimeAlly.sol\":6822:6834  launchReward */\n      0x09\n        /* \"TimeAlly.sol\":6822:6846  launchReward[msg.sender] */\n      0x00\n        /* \"TimeAlly.sol\":6835:6845  msg.sender */\n      caller\n        /* \"TimeAlly.sol\":6822:6846  launchReward[msg.sender] */\n      0xffffffffffffffffffffffffffffffffffffffff\n      and\n      0xffffffffffffffffffffffffffffffffffffffff\n      and\n      dup2\n      mstore\n      0x20\n      add\n      swap1\n      dup2\n      mstore\n      0x20\n      add\n      0x00\n      keccak256\n        /* \"TimeAlly.sol\":6822:6891  launchReward[msg.sender] = launchReward[msg.sender].add(_exaEsAmount) */\n      dup2\n      swap1\n      sstore\n      pop\n        /* \"TimeAlly.sol\":6609:6898  function topupRewardBucket(uint256 _exaEsAmount) public {... */\n      pop\n      jump\t// out\n        /* \"TimeAlly.sol\":1424:1457  StakingPlan[] public stakingPlans */\n    tag_75:\n      0x05\n      dup2\n      dup2\n      sload\n      dup2\n      lt\n      tag_253\n      jumpi\n      invalid\n    tag_253:\n      swap1\n      0x00\n      mstore\n      keccak256(0x00, 0x20)\n      swap1\n      0x02\n      mul\n      add\n      0x00\n      swap2\n      pop\n      swap1\n      pop\n      dup1\n      0x00\n      add\n      sload\n      swap1\n      dup1\n      0x01\n      add\n      sload\n      swap1\n      pop\n      dup3\n      jump\t// out\n        /* \"TimeAlly.sol\":1609:1656  mapping(address => uint256) public launchReward */\n    tag_78:\n      mstore(0x20, 0x09)\n      dup1\n      0x00\n      mstore\n      keccak256(0x00, 0x40)\n      0x00\n      swap2\n      pop\n      swap1\n      pop\n      sload\n      dup2\n      jump\t// out\n        /* \"TimeAlly.sol\":4390:4594  function createLoanPlan(uint256 _loanMonths, uint256 _loanRate) public onlyOwner {... */\n    tag_81:\n        /* \"TimeAlly.sol\":3134:3139  owner */\n      0x01\n      0x00\n      swap1\n      sload\n      swap1\n      0x0100\n      exp\n      swap1\n      div\n      0xffffffffffffffffffffffffffffffffffffffff\n      and\n        /* \"TimeAlly.sol\":3120:3139  msg.sender == owner */\n      0xffffffffffffffffffffffffffffffffffffffff\n      and\n        /* \"TimeAlly.sol\":3120:3130  msg.sender */\n      caller\n        /* \"TimeAlly.sol\":3120:3139  msg.sender == owner */\n      0xffffffffffffffffffffffffffffffffffffffff\n      and\n      eq\n        /* \"TimeAlly.sol\":3112:3166  require(msg.sender == owner, 'only deployer can call') */\n      tag_256\n      jumpi\n      mload(0x40)\n      0x08c379a000000000000000000000000000000000000000000000000000000000\n      dup2\n      mstore\n      0x04\n      add\n      dup1\n      dup1\n      0x20\n      add\n      dup3\n      dup2\n      sub\n      dup3\n      mstore\n      0x16\n      dup2\n      mstore\n      0x20\n      add\n      dup1\n      0x6f6e6c79206465706c6f7965722063616e2063616c6c00000000000000000000\n      dup2\n      mstore\n      pop\n      0x20\n      add\n      swap2\n      pop\n      pop\n      mload(0x40)\n      dup1\n      swap2\n      sub\n      swap1\n      revert\n    tag_256:\n        /* \"TimeAlly.sol\":4481:4490  loanPlans */\n      0x06\n        /* \"TimeAlly.sol\":4496:4586  LoanPlan({... */\n      mload(0x40)\n      dup1\n      0x40\n      add\n      0x40\n      mstore\n      dup1\n        /* \"TimeAlly.sol\":4531:4542  _loanMonths */\n      dup5\n        /* \"TimeAlly.sol\":4496:4586  LoanPlan({... */\n      dup2\n      mstore\n      0x20\n      add\n        /* \"TimeAlly.sol\":4566:4575  _loanRate */\n      dup4\n        /* \"TimeAlly.sol\":4496:4586  LoanPlan({... */\n      dup2\n      mstore\n      pop\n        /* \"TimeAlly.sol\":4481:4587  loanPlans.push(LoanPlan({... */\n      swap1\n      dup1\n        /* \"--CODEGEN--\":39:40   */\n      0x01\n        /* \"--CODEGEN--\":33:36   */\n      dup2\n        /* \"--CODEGEN--\":27:37   */\n      sload\n        /* \"--CODEGEN--\":23:41   */\n      add\n        /* \"--CODEGEN--\":57:67   */\n      dup1\n        /* \"--CODEGEN--\":52:55   */\n      dup3\n        /* \"--CODEGEN--\":45:68   */\n      sstore\n        /* \"--CODEGEN--\":79:89   */\n      dup1\n        /* \"--CODEGEN--\":72:89   */\n      swap2\n      pop\n        /* \"--CODEGEN--\":0:93   */\n      pop\n        /* \"TimeAlly.sol\":4481:4587  loanPlans.push(LoanPlan({... */\n      swap1\n      0x01\n      dup3\n      sub\n      swap1\n      0x00\n      mstore\n      keccak256(0x00, 0x20)\n      swap1\n      0x02\n      mul\n      add\n      0x00\n      swap1\n      swap2\n      swap3\n      swap1\n      swap2\n      swap1\n      swap2\n      pop\n      0x00\n      dup3\n      add\n      mload\n      dup2\n      0x00\n      add\n      sstore\n      0x20\n      dup3\n      add\n      mload\n      dup2\n      0x01\n      add\n      sstore\n      pop\n      pop\n      pop\n        /* \"TimeAlly.sol\":4390:4594  function createLoanPlan(uint256 _loanMonths, uint256 _loanRate) public onlyOwner {... */\n      pop\n      pop\n      jump\t// out\n        /* \"TimeAlly.sol\":6904:7274  function giveLaunchReward(address[] memory _addresses, uint256[] memory _exaEsAmountArray) public onlyOwner {... */\n    tag_90:\n        /* \"TimeAlly.sol\":3134:3139  owner */\n      0x01\n      0x00\n      swap1\n      sload\n      swap1\n      0x0100\n      exp\n      swap1\n      div\n      0xffffffffffffffffffffffffffffffffffffffff\n      and\n        /* \"TimeAlly.sol\":3120:3139  msg.sender == owner */\n      0xffffffffffffffffffffffffffffffffffffffff\n      and\n        /* \"TimeAlly.sol\":3120:3130  msg.sender */\n      caller\n        /* \"TimeAlly.sol\":3120:3139  msg.sender == owner */\n      0xffffffffffffffffffffffffffffffffffffffff\n      and\n      eq\n        /* \"TimeAlly.sol\":3112:3166  require(msg.sender == owner, 'only deployer can call') */\n      tag_260\n      jumpi\n      mload(0x40)\n      0x08c379a000000000000000000000000000000000000000000000000000000000\n      dup2\n      mstore\n      0x04\n      add\n      dup1\n      dup1\n      0x20\n      add\n      dup3\n      dup2\n      sub\n      dup3\n      mstore\n      0x16\n      dup2\n      mstore\n      0x20\n      add\n      dup1\n      0x6f6e6c79206465706c6f7965722063616e2063616c6c00000000000000000000\n      dup2\n      mstore\n      pop\n      0x20\n      add\n      swap2\n      pop\n      pop\n      mload(0x40)\n      dup1\n      swap2\n      sub\n      swap1\n      revert\n    tag_260:\n        /* \"TimeAlly.sol\":7026:7035  uint256 i */\n      0x00\n        /* \"TimeAlly.sol\":7038:7039  0 */\n      dup1\n        /* \"TimeAlly.sol\":7026:7039  uint256 i = 0 */\n      swap1\n      pop\n        /* \"TimeAlly.sol\":7022:7268  for(uint256 i = 0; i < _addresses.length; i++) {... */\n    tag_262:\n        /* \"TimeAlly.sol\":7045:7055  _addresses */\n      dup3\n        /* \"TimeAlly.sol\":7045:7062  _addresses.length */\n      mload\n        /* \"TimeAlly.sol\":7041:7042  i */\n      dup2\n        /* \"TimeAlly.sol\":7041:7062  i < _addresses.length */\n      lt\n        /* \"TimeAlly.sol\":7022:7268  for(uint256 i = 0; i < _addresses.length; i++) {... */\n      iszero\n      tag_263\n      jumpi\n        /* \"TimeAlly.sol\":7110:7160  launchReward[msg.sender].sub(_exaEsAmountArray[i]) */\n      tag_265\n        /* \"TimeAlly.sol\":7139:7156  _exaEsAmountArray */\n      dup3\n        /* \"TimeAlly.sol\":7157:7158  i */\n      dup3\n        /* \"TimeAlly.sol\":7139:7159  _exaEsAmountArray[i] */\n      dup2\n      mload\n      dup2\n      lt\n      tag_266\n      jumpi\n      invalid\n    tag_266:\n      0x20\n      mul\n      0x20\n      add\n      add\n      mload\n        /* \"TimeAlly.sol\":7110:7122  launchReward */\n      0x09\n        /* \"TimeAlly.sol\":7110:7134  launchReward[msg.sender] */\n      0x00\n        /* \"TimeAlly.sol\":7123:7133  msg.sender */\n      caller\n        /* \"TimeAlly.sol\":7110:7134  launchReward[msg.sender] */\n      0xffffffffffffffffffffffffffffffffffffffff\n      and\n      0xffffffffffffffffffffffffffffffffffffffff\n      and\n      dup2\n      mstore\n      0x20\n      add\n      swap1\n      dup2\n      mstore\n      0x20\n      add\n      0x00\n      keccak256\n      sload\n        /* \"TimeAlly.sol\":7110:7138  launchReward[msg.sender].sub */\n      tag_159\n      swap1\n        /* \"TimeAlly.sol\":7110:7160  launchReward[msg.sender].sub(_exaEsAmountArray[i]) */\n      swap2\n      swap1\n      0xffffffff\n      and\n      jump\t// in\n    tag_265:\n        /* \"TimeAlly.sol\":7083:7095  launchReward */\n      0x09\n        /* \"TimeAlly.sol\":7083:7107  launchReward[msg.sender] */\n      0x00\n        /* \"TimeAlly.sol\":7096:7106  msg.sender */\n      caller\n        /* \"TimeAlly.sol\":7083:7107  launchReward[msg.sender] */\n      0xffffffffffffffffffffffffffffffffffffffff\n      and\n      0xffffffffffffffffffffffffffffffffffffffff\n      and\n      dup2\n      mstore\n      0x20\n      add\n      swap1\n      dup2\n      mstore\n      0x20\n      add\n      0x00\n      keccak256\n        /* \"TimeAlly.sol\":7083:7160  launchReward[msg.sender] = launchReward[msg.sender].sub(_exaEsAmountArray[i]) */\n      dup2\n      swap1\n      sstore\n      pop\n        /* \"TimeAlly.sol\":7204:7257  launchReward[_addresses[i]].add(_exaEsAmountArray[i]) */\n      tag_267\n        /* \"TimeAlly.sol\":7236:7253  _exaEsAmountArray */\n      dup3\n        /* \"TimeAlly.sol\":7254:7255  i */\n      dup3\n        /* \"TimeAlly.sol\":7236:7256  _exaEsAmountArray[i] */\n      dup2\n      mload\n      dup2\n      lt\n      tag_268\n      jumpi\n      invalid\n    tag_268:\n      0x20\n      mul\n      0x20\n      add\n      add\n      mload\n        /* \"TimeAlly.sol\":7204:7216  launchReward */\n      0x09\n        /* \"TimeAlly.sol\":7204:7231  launchReward[_addresses[i]] */\n      0x00\n        /* \"TimeAlly.sol\":7217:7227  _addresses */\n      dup7\n        /* \"TimeAlly.sol\":7228:7229  i */\n      dup6\n        /* \"TimeAlly.sol\":7217:7230  _addresses[i] */\n      dup2\n      mload\n      dup2\n      lt\n      tag_269\n      jumpi\n      invalid\n    tag_269:\n      0x20\n      mul\n      0x20\n      add\n      add\n      mload\n        /* \"TimeAlly.sol\":7204:7231  launchReward[_addresses[i]] */\n      0xffffffffffffffffffffffffffffffffffffffff\n      and\n      0xffffffffffffffffffffffffffffffffffffffff\n      and\n      dup2\n      mstore\n      0x20\n      add\n      swap1\n      dup2\n      mstore\n      0x20\n      add\n      0x00\n      keccak256\n      sload\n        /* \"TimeAlly.sol\":7204:7235  launchReward[_addresses[i]].add */\n      tag_163\n      swap1\n        /* \"TimeAlly.sol\":7204:7257  launchReward[_addresses[i]].add(_exaEsAmountArray[i]) */\n      swap2\n      swap1\n      0xffffffff\n      and\n      jump\t// in\n    tag_267:\n        /* \"TimeAlly.sol\":7174:7186  launchReward */\n      0x09\n        /* \"TimeAlly.sol\":7174:7201  launchReward[_addresses[i]] */\n      0x00\n        /* \"TimeAlly.sol\":7187:7197  _addresses */\n      dup6\n        /* \"TimeAlly.sol\":7198:7199  i */\n      dup5\n        /* \"TimeAlly.sol\":7187:7200  _addresses[i] */\n      dup2\n      mload\n      dup2\n      lt\n      tag_270\n      jumpi\n      invalid\n    tag_270:\n      0x20\n      mul\n      0x20\n      add\n      add\n      mload\n        /* \"TimeAlly.sol\":7174:7201  launchReward[_addresses[i]] */\n      0xffffffffffffffffffffffffffffffffffffffff\n      and\n      0xffffffffffffffffffffffffffffffffffffffff\n      and\n      dup2\n      mstore\n      0x20\n      add\n      swap1\n      dup2\n      mstore\n      0x20\n      add\n      0x00\n      keccak256\n        /* \"TimeAlly.sol\":7174:7257  launchReward[_addresses[i]] = launchReward[_addresses[i]].add(_exaEsAmountArray[i]) */\n      dup2\n      swap1\n      sstore\n      pop\n        /* \"TimeAlly.sol\":7064:7067  i++ */\n      dup1\n      dup1\n      0x01\n      add\n      swap2\n      pop\n      pop\n        /* \"TimeAlly.sol\":7022:7268  for(uint256 i = 0; i < _addresses.length; i++) {... */\n      jump(tag_262)\n    tag_263:\n      pop\n        /* \"TimeAlly.sol\":6904:7274  function giveLaunchReward(address[] memory _addresses, uint256[] memory _exaEsAmountArray) public onlyOwner {... */\n      pop\n      pop\n      jump\t// out\n        /* \"TimeAlly.sol\":1228:1248  address public owner */\n    tag_92:\n      0x01\n      0x00\n      swap1\n      sload\n      swap1\n      0x0100\n      exp\n      swap1\n      div\n      0xffffffffffffffffffffffffffffffffffffffff\n      and\n      dup2\n      jump\t// out\n        /* \"TimeAlly.sol\":25604:28816  function nomineeWithdraw(address _userAddress, uint256 _stakingId) public {... */\n    tag_95:\n        /* \"TimeAlly.sol\":25718:25737  uint256 currentTime */\n      0x00\n        /* \"TimeAlly.sol\":25740:25745  token */\n      0x02\n      0x00\n      swap1\n      sload\n      swap1\n      0x0100\n      exp\n      swap1\n      div\n      0xffffffffffffffffffffffffffffffffffffffff\n      and\n        /* \"TimeAlly.sol\":25740:25749  token.mou */\n      0xffffffffffffffffffffffffffffffffffffffff\n      and\n      0xb81f90f3\n        /* \"TimeAlly.sol\":25740:25751  token.mou() */\n      mload(0x40)\n      dup2\n      0xffffffff\n      and\n      0xe0\n      shl\n      dup2\n      mstore\n      0x04\n      add\n      0x20\n      mload(0x40)\n      dup1\n      dup4\n      sub\n      dup2\n      dup7\n      dup1\n      extcodesize\n      iszero\n        /* \"--CODEGEN--\":8:17   */\n      dup1\n        /* \"--CODEGEN--\":5:7   */\n      iszero\n      tag_272\n      jumpi\n        /* \"--CODEGEN--\":30:31   */\n      0x00\n        /* \"--CODEGEN--\":27:28   */\n      dup1\n        /* \"--CODEGEN--\":20:32   */\n      revert\n        /* \"--CODEGEN--\":5:7   */\n    tag_272:\n        /* \"TimeAlly.sol\":25740:25751  token.mou() */\n      pop\n      gas\n      staticcall\n      iszero\n        /* \"--CODEGEN--\":8:17   */\n      dup1\n        /* \"--CODEGEN--\":5:7   */\n      iszero\n      tag_273\n      jumpi\n        /* \"--CODEGEN--\":45:61   */\n      returndatasize\n        /* \"--CODEGEN--\":42:43   */\n      0x00\n        /* \"--CODEGEN--\":39:40   */\n      dup1\n        /* \"--CODEGEN--\":24:62   */\n      returndatacopy\n        /* \"--CODEGEN--\":77:93   */\n      returndatasize\n        /* \"--CODEGEN--\":74:75   */\n      0x00\n        /* \"--CODEGEN--\":67:94   */\n      revert\n        /* \"--CODEGEN--\":5:7   */\n    tag_273:\n        /* \"TimeAlly.sol\":25740:25751  token.mou() */\n      pop\n      pop\n      pop\n      pop\n      mload(0x40)\n      returndatasize\n        /* \"--CODEGEN--\":13:15   */\n      0x20\n        /* \"--CODEGEN--\":8:11   */\n      dup2\n        /* \"--CODEGEN--\":5:16   */\n      lt\n        /* \"--CODEGEN--\":2:4   */\n      iszero\n      tag_274\n      jumpi\n        /* \"--CODEGEN--\":29:30   */\n      0x00\n        /* \"--CODEGEN--\":26:27   */\n      dup1\n        /* \"--CODEGEN--\":19:31   */\n      revert\n        /* \"--CODEGEN--\":2:4   */\n    tag_274:\n        /* \"TimeAlly.sol\":25740:25751  token.mou() */\n      dup2\n      add\n      swap1\n      dup1\n      dup1\n      mload\n      swap1\n      0x20\n      add\n      swap1\n      swap3\n      swap2\n      swap1\n      pop\n      pop\n      pop\n        /* \"TimeAlly.sol\":25718:25751  uint256 currentTime = token.mou() */\n      swap1\n      pop\n        /* \"TimeAlly.sol\":25971:25990  earthSecondsInMonth */\n      sload(0x04)\n        /* \"TimeAlly.sol\":25966:25968  12 */\n      0x0c\n        /* \"TimeAlly.sol\":25966:25990  12 * earthSecondsInMonth */\n      mul\n        /* \"TimeAlly.sol\":25924:25943  earthSecondsInMonth */\n      sload(0x04)\n        /* \"TimeAlly.sol\":25852:25864  stakingPlans */\n      0x05\n        /* \"TimeAlly.sol\":25865:25873  stakings */\n      0x07\n        /* \"TimeAlly.sol\":25865:25887  stakings[_userAddress] */\n      0x00\n        /* \"TimeAlly.sol\":25874:25886  _userAddress */\n      dup8\n        /* \"TimeAlly.sol\":25865:25887  stakings[_userAddress] */\n      0xffffffffffffffffffffffffffffffffffffffff\n      and\n      0xffffffffffffffffffffffffffffffffffffffff\n      and\n      dup2\n      mstore\n      0x20\n      add\n      swap1\n      dup2\n      mstore\n      0x20\n      add\n      0x00\n      keccak256\n        /* \"TimeAlly.sol\":25888:25898  _stakingId */\n      dup6\n        /* \"TimeAlly.sol\":25865:25899  stakings[_userAddress][_stakingId] */\n      dup2\n      sload\n      dup2\n      lt\n      tag_275\n      jumpi\n      invalid\n    tag_275:\n      swap1\n      0x00\n      mstore\n      keccak256(0x00, 0x20)\n      swap1\n      0x08\n      mul\n      add\n        /* \"TimeAlly.sol\":25865:25913  stakings[_userAddress][_stakingId].stakingPlanId */\n      0x02\n      add\n      sload\n        /* \"TimeAlly.sol\":25852:25914  stakingPlans[stakings[_userAddress][_stakingId].stakingPlanId] */\n      dup2\n      sload\n      dup2\n      lt\n      tag_277\n      jumpi\n      invalid\n    tag_277:\n      swap1\n      0x00\n      mstore\n      keccak256(0x00, 0x20)\n      swap1\n      0x02\n      mul\n      add\n        /* \"TimeAlly.sol\":25852:25921  stakingPlans[stakings[_userAddress][_stakingId].stakingPlanId].months */\n      0x00\n      add\n      sload\n        /* \"TimeAlly.sol\":25852:25943  stakingPlans[stakings[_userAddress][_stakingId].stakingPlanId].months * earthSecondsInMonth */\n      mul\n        /* \"TimeAlly.sol\":25785:25793  stakings */\n      0x07\n        /* \"TimeAlly.sol\":25785:25807  stakings[_userAddress] */\n      0x00\n        /* \"TimeAlly.sol\":25794:25806  _userAddress */\n      dup7\n        /* \"TimeAlly.sol\":25785:25807  stakings[_userAddress] */\n      0xffffffffffffffffffffffffffffffffffffffff\n      and\n      0xffffffffffffffffffffffffffffffffffffffff\n      and\n      dup2\n      mstore\n      0x20\n      add\n      swap1\n      dup2\n      mstore\n      0x20\n      add\n      0x00\n      keccak256\n        /* \"TimeAlly.sol\":25808:25818  _stakingId */\n      dup5\n        /* \"TimeAlly.sol\":25785:25819  stakings[_userAddress][_stakingId] */\n      dup2\n      sload\n      dup2\n      lt\n      tag_279\n      jumpi\n      invalid\n    tag_279:\n      swap1\n      0x00\n      mstore\n      keccak256(0x00, 0x20)\n      swap1\n      0x08\n      mul\n      add\n        /* \"TimeAlly.sol\":25785:25829  stakings[_userAddress][_stakingId].timestamp */\n      0x01\n      add\n      sload\n        /* \"TimeAlly.sol\":25785:25943  stakings[_userAddress][_stakingId].timestamp... */\n      add\n        /* \"TimeAlly.sol\":25785:25990  stakings[_userAddress][_stakingId].timestamp... */\n      add\n        /* \"TimeAlly.sol\":25770:25781  currentTime */\n      dup2\n        /* \"TimeAlly.sol\":25770:25992  currentTime > (stakings[_userAddress][_stakingId].timestamp... */\n      gt\n        /* \"TimeAlly.sol\":25761:26047  require( currentTime > (stakings[_userAddress][_stakingId].timestamp... */\n      tag_281\n      jumpi\n      mload(0x40)\n      0x08c379a000000000000000000000000000000000000000000000000000000000\n      dup2\n      mstore\n      0x04\n      add\n      dup1\n      dup1\n      0x20\n      add\n      dup3\n      dup2\n      sub\n      dup3\n      mstore\n      0x1e\n      dup2\n      mstore\n      0x20\n      add\n      dup1\n      0x63616e6e6f74206e6f6d696e6565207769746864726177206265666f72650000\n      dup2\n      mstore\n      pop\n      0x20\n      add\n      swap2\n      pop\n      pop\n      mload(0x40)\n      dup1\n      swap2\n      sub\n      swap1\n      revert\n    tag_281:\n        /* \"TimeAlly.sol\":26058:26080  uint256 _nomineeShares */\n      0x00\n        /* \"TimeAlly.sol\":26083:26091  stakings */\n      0x07\n        /* \"TimeAlly.sol\":26083:26105  stakings[_userAddress] */\n      0x00\n        /* \"TimeAlly.sol\":26092:26104  _userAddress */\n      dup6\n        /* \"TimeAlly.sol\":26083:26105  stakings[_userAddress] */\n      0xffffffffffffffffffffffffffffffffffffffff\n      and\n      0xffffffffffffffffffffffffffffffffffffffff\n      and\n      dup2\n      mstore\n      0x20\n      add\n      swap1\n      dup2\n      mstore\n      0x20\n      add\n      0x00\n      keccak256\n        /* \"TimeAlly.sol\":26106:26116  _stakingId */\n      dup4\n        /* \"TimeAlly.sol\":26083:26117  stakings[_userAddress][_stakingId] */\n      dup2\n      sload\n      dup2\n      lt\n      tag_282\n      jumpi\n      invalid\n    tag_282:\n      swap1\n      0x00\n      mstore\n      keccak256(0x00, 0x20)\n      swap1\n      0x08\n      mul\n      add\n        /* \"TimeAlly.sol\":26083:26128  stakings[_userAddress][_stakingId].nomination */\n      0x07\n      add\n        /* \"TimeAlly.sol\":26083:26140  stakings[_userAddress][_stakingId].nomination[msg.sender] */\n      0x00\n        /* \"TimeAlly.sol\":26129:26139  msg.sender */\n      caller\n        /* \"TimeAlly.sol\":26083:26140  stakings[_userAddress][_stakingId].nomination[msg.sender] */\n      0xffffffffffffffffffffffffffffffffffffffff\n      and\n      0xffffffffffffffffffffffffffffffffffffffff\n      and\n      dup2\n      mstore\n      0x20\n      add\n      swap1\n      dup2\n      mstore\n      0x20\n      add\n      0x00\n      keccak256\n      sload\n        /* \"TimeAlly.sol\":26058:26140  uint256 _nomineeShares = stakings[_userAddress][_stakingId].nomination[msg.sender] */\n      swap1\n      pop\n        /* \"TimeAlly.sol\":26175:26176  0 */\n      0x00\n        /* \"TimeAlly.sol\":26158:26172  _nomineeShares */\n      dup2\n        /* \"TimeAlly.sol\":26158:26176  _nomineeShares > 0 */\n      gt\n        /* \"TimeAlly.sol\":26150:26210  require(_nomineeShares > 0, 'Not a nominee of this staking') */\n      tag_284\n      jumpi\n      mload(0x40)\n      0x08c379a000000000000000000000000000000000000000000000000000000000\n      dup2\n      mstore\n      0x04\n      add\n      dup1\n      dup1\n      0x20\n      add\n      dup3\n      dup2\n      sub\n      dup3\n      mstore\n      0x1d\n      dup2\n      mstore\n      0x20\n      add\n      dup1\n      0x4e6f742061206e6f6d696e6565206f662074686973207374616b696e67000000\n      dup2\n      mstore\n      pop\n      0x20\n      add\n      swap2\n      pop\n      pop\n      mload(0x40)\n      dup1\n      swap2\n      sub\n      swap1\n      revert\n    tag_284:\n        /* \"TimeAlly.sol\":26360:26361  5 */\n      0x05\n        /* \"TimeAlly.sol\":26315:26323  stakings */\n      0x07\n        /* \"TimeAlly.sol\":26315:26337  stakings[_userAddress] */\n      0x00\n        /* \"TimeAlly.sol\":26324:26336  _userAddress */\n      dup7\n        /* \"TimeAlly.sol\":26315:26337  stakings[_userAddress] */\n      0xffffffffffffffffffffffffffffffffffffffff\n      and\n      0xffffffffffffffffffffffffffffffffffffffff\n      and\n      dup2\n      mstore\n      0x20\n      add\n      swap1\n      dup2\n      mstore\n      0x20\n      add\n      0x00\n      keccak256\n        /* \"TimeAlly.sol\":26338:26348  _stakingId */\n      dup5\n        /* \"TimeAlly.sol\":26315:26349  stakings[_userAddress][_stakingId] */\n      dup2\n      sload\n      dup2\n      lt\n      tag_285\n      jumpi\n      invalid\n    tag_285:\n      swap1\n      0x00\n      mstore\n      keccak256(0x00, 0x20)\n      swap1\n      0x08\n      mul\n      add\n        /* \"TimeAlly.sol\":26315:26356  stakings[_userAddress][_stakingId].status */\n      0x03\n      add\n      sload\n        /* \"TimeAlly.sol\":26315:26361  stakings[_userAddress][_stakingId].status != 5 */\n      eq\n        /* \"TimeAlly.sol\":26312:26433  if(stakings[_userAddress][_stakingId].status != 5) {... */\n      tag_287\n      jumpi\n        /* \"TimeAlly.sol\":26421:26422  5 */\n      0x05\n        /* \"TimeAlly.sol\":26377:26385  stakings */\n      0x07\n        /* \"TimeAlly.sol\":26377:26399  stakings[_userAddress] */\n      0x00\n        /* \"TimeAlly.sol\":26386:26398  _userAddress */\n      dup7\n        /* \"TimeAlly.sol\":26377:26399  stakings[_userAddress] */\n      0xffffffffffffffffffffffffffffffffffffffff\n      and\n      0xffffffffffffffffffffffffffffffffffffffff\n      and\n      dup2\n      mstore\n      0x20\n      add\n      swap1\n      dup2\n      mstore\n      0x20\n      add\n      0x00\n      keccak256\n        /* \"TimeAlly.sol\":26400:26410  _stakingId */\n      dup5\n        /* \"TimeAlly.sol\":26377:26411  stakings[_userAddress][_stakingId] */\n      dup2\n      sload\n      dup2\n      lt\n      tag_288\n      jumpi\n      invalid\n    tag_288:\n      swap1\n      0x00\n      mstore\n      keccak256(0x00, 0x20)\n      swap1\n      0x08\n      mul\n      add\n        /* \"TimeAlly.sol\":26377:26418  stakings[_userAddress][_stakingId].status */\n      0x03\n      add\n        /* \"TimeAlly.sol\":26377:26422  stakings[_userAddress][_stakingId].status = 5 */\n      dup2\n      swap1\n      sstore\n      pop\n        /* \"TimeAlly.sol\":26312:26433  if(stakings[_userAddress][_stakingId].status != 5) {... */\n    tag_287:\n        /* \"TimeAlly.sol\":26479:26516  uint256 _pendingLiquidAmountInStaking */\n      0x00\n        /* \"TimeAlly.sol\":26519:26527  stakings */\n      0x07\n        /* \"TimeAlly.sol\":26519:26541  stakings[_userAddress] */\n      0x00\n        /* \"TimeAlly.sol\":26528:26540  _userAddress */\n      dup7\n        /* \"TimeAlly.sol\":26519:26541  stakings[_userAddress] */\n      0xffffffffffffffffffffffffffffffffffffffff\n      and\n      0xffffffffffffffffffffffffffffffffffffffff\n      and\n      dup2\n      mstore\n      0x20\n      add\n      swap1\n      dup2\n      mstore\n      0x20\n      add\n      0x00\n      keccak256\n        /* \"TimeAlly.sol\":26542:26552  _stakingId */\n      dup5\n        /* \"TimeAlly.sol\":26519:26553  stakings[_userAddress][_stakingId] */\n      dup2\n      sload\n      dup2\n      lt\n      tag_290\n      jumpi\n      invalid\n    tag_290:\n      swap1\n      0x00\n      mstore\n      keccak256(0x00, 0x20)\n      swap1\n      0x08\n      mul\n      add\n        /* \"TimeAlly.sol\":26519:26565  stakings[_userAddress][_stakingId].exaEsAmount */\n      0x00\n      add\n      sload\n        /* \"TimeAlly.sol\":26479:26565  uint256 _pendingLiquidAmountInStaking = stakings[_userAddress][_stakingId].exaEsAmount */\n      swap1\n      pop\n        /* \"TimeAlly.sol\":26575:26613  uint256 _pendingAccruedAmountInStaking */\n      0x00\n        /* \"TimeAlly.sol\":26624:26650  uint256 _stakingStartMonth */\n      dup1\n        /* \"TimeAlly.sol\":26653:26745  stakings[_userAddress][_stakingId].timestamp.sub(deployedTimestamp).div(earthSecondsInMonth) */\n      tag_292\n        /* \"TimeAlly.sol\":26725:26744  earthSecondsInMonth */\n      sload(0x04)\n        /* \"TimeAlly.sol\":26653:26720  stakings[_userAddress][_stakingId].timestamp.sub(deployedTimestamp) */\n      tag_293\n        /* \"TimeAlly.sol\":26702:26719  deployedTimestamp */\n      sload(0x00)\n        /* \"TimeAlly.sol\":26653:26661  stakings */\n      0x07\n        /* \"TimeAlly.sol\":26653:26675  stakings[_userAddress] */\n      0x00\n        /* \"TimeAlly.sol\":26662:26674  _userAddress */\n      dup13\n        /* \"TimeAlly.sol\":26653:26675  stakings[_userAddress] */\n      0xffffffffffffffffffffffffffffffffffffffff\n      and\n      0xffffffffffffffffffffffffffffffffffffffff\n      and\n      dup2\n      mstore\n      0x20\n      add\n      swap1\n      dup2\n      mstore\n      0x20\n      add\n      0x00\n      keccak256\n        /* \"TimeAlly.sol\":26676:26686  _stakingId */\n      dup11\n        /* \"TimeAlly.sol\":26653:26687  stakings[_userAddress][_stakingId] */\n      dup2\n      sload\n      dup2\n      lt\n      tag_294\n      jumpi\n      invalid\n    tag_294:\n      swap1\n      0x00\n      mstore\n      keccak256(0x00, 0x20)\n      swap1\n      0x08\n      mul\n      add\n        /* \"TimeAlly.sol\":26653:26697  stakings[_userAddress][_stakingId].timestamp */\n      0x01\n      add\n      sload\n        /* \"TimeAlly.sol\":26653:26701  stakings[_userAddress][_stakingId].timestamp.sub */\n      tag_159\n      swap1\n        /* \"TimeAlly.sol\":26653:26720  stakings[_userAddress][_stakingId].timestamp.sub(deployedTimestamp) */\n      swap2\n      swap1\n      0xffffffff\n      and\n      jump\t// in\n    tag_293:\n        /* \"TimeAlly.sol\":26653:26724  stakings[_userAddress][_stakingId].timestamp.sub(deployedTimestamp).div */\n      tag_213\n      swap1\n        /* \"TimeAlly.sol\":26653:26745  stakings[_userAddress][_stakingId].timestamp.sub(deployedTimestamp).div(earthSecondsInMonth) */\n      swap2\n      swap1\n      0xffffffff\n      and\n      jump\t// in\n    tag_292:\n        /* \"TimeAlly.sol\":26624:26745  uint256 _stakingStartMonth = stakings[_userAddress][_stakingId].timestamp.sub(deployedTimestamp).div(earthSecondsInMonth) */\n      swap1\n      pop\n        /* \"TimeAlly.sol\":26755:26777  uint256 _stakeEndMonth */\n      0x00\n        /* \"TimeAlly.sol\":26801:26813  stakingPlans */\n      0x05\n        /* \"TimeAlly.sol\":26814:26822  stakings */\n      0x07\n        /* \"TimeAlly.sol\":26814:26836  stakings[_userAddress] */\n      0x00\n        /* \"TimeAlly.sol\":26823:26835  _userAddress */\n      dup11\n        /* \"TimeAlly.sol\":26814:26836  stakings[_userAddress] */\n      0xffffffffffffffffffffffffffffffffffffffff\n      and\n      0xffffffffffffffffffffffffffffffffffffffff\n      and\n      dup2\n      mstore\n      0x20\n      add\n      swap1\n      dup2\n      mstore\n      0x20\n      add\n      0x00\n      keccak256\n        /* \"TimeAlly.sol\":26837:26847  _stakingId */\n      dup9\n        /* \"TimeAlly.sol\":26814:26848  stakings[_userAddress][_stakingId] */\n      dup2\n      sload\n      dup2\n      lt\n      tag_296\n      jumpi\n      invalid\n    tag_296:\n      swap1\n      0x00\n      mstore\n      keccak256(0x00, 0x20)\n      swap1\n      0x08\n      mul\n      add\n        /* \"TimeAlly.sol\":26814:26862  stakings[_userAddress][_stakingId].stakingPlanId */\n      0x02\n      add\n      sload\n        /* \"TimeAlly.sol\":26801:26863  stakingPlans[stakings[_userAddress][_stakingId].stakingPlanId] */\n      dup2\n      sload\n      dup2\n      lt\n      tag_298\n      jumpi\n      invalid\n    tag_298:\n      swap1\n      0x00\n      mstore\n      keccak256(0x00, 0x20)\n      swap1\n      0x02\n      mul\n      add\n        /* \"TimeAlly.sol\":26801:26870  stakingPlans[stakings[_userAddress][_stakingId].stakingPlanId].months */\n      0x00\n      add\n      sload\n        /* \"TimeAlly.sol\":26780:26798  _stakingStartMonth */\n      dup3\n        /* \"TimeAlly.sol\":26780:26870  _stakingStartMonth + stakingPlans[stakings[_userAddress][_stakingId].stakingPlanId].months */\n      add\n        /* \"TimeAlly.sol\":26755:26870  uint256 _stakeEndMonth = _stakingStartMonth + stakingPlans[stakings[_userAddress][_stakingId].stakingPlanId].months */\n      swap1\n      pop\n        /* \"TimeAlly.sol\":26953:26962  uint256 i */\n      0x00\n        /* \"TimeAlly.sol\":26965:26983  _stakingStartMonth */\n      dup3\n        /* \"TimeAlly.sol\":26953:26983  uint256 i = _stakingStartMonth */\n      swap1\n      pop\n        /* \"TimeAlly.sol\":26938:27774  for(... */\n    tag_300:\n        /* \"TimeAlly.sol\":26999:27013  _stakeEndMonth */\n      dup2\n        /* \"TimeAlly.sol\":26995:26996  i */\n      dup2\n        /* \"TimeAlly.sol\":26995:27013  i < _stakeEndMonth */\n      lt\n        /* \"TimeAlly.sol\":26938:27774  for(... */\n      iszero\n      tag_301\n      jumpi\n        /* \"TimeAlly.sol\":27057:27065  stakings */\n      0x07\n        /* \"TimeAlly.sol\":27057:27079  stakings[_userAddress] */\n      0x00\n        /* \"TimeAlly.sol\":27066:27078  _userAddress */\n      dup11\n        /* \"TimeAlly.sol\":27057:27079  stakings[_userAddress] */\n      0xffffffffffffffffffffffffffffffffffffffff\n      and\n      0xffffffffffffffffffffffffffffffffffffffff\n      and\n      dup2\n      mstore\n      0x20\n      add\n      swap1\n      dup2\n      mstore\n      0x20\n      add\n      0x00\n      keccak256\n        /* \"TimeAlly.sol\":27080:27090  _stakingId */\n      dup9\n        /* \"TimeAlly.sol\":27057:27091  stakings[_userAddress][_stakingId] */\n      dup2\n      sload\n      dup2\n      lt\n      tag_303\n      jumpi\n      invalid\n    tag_303:\n      swap1\n      0x00\n      mstore\n      keccak256(0x00, 0x20)\n      swap1\n      0x08\n      mul\n      add\n        /* \"TimeAlly.sol\":27057:27106  stakings[_userAddress][_stakingId].isMonthClaimed */\n      0x06\n      add\n        /* \"TimeAlly.sol\":27057:27109  stakings[_userAddress][_stakingId].isMonthClaimed[i] */\n      0x00\n        /* \"TimeAlly.sol\":27107:27108  i */\n      dup3\n        /* \"TimeAlly.sol\":27057:27109  stakings[_userAddress][_stakingId].isMonthClaimed[i] */\n      dup2\n      mstore\n      0x20\n      add\n      swap1\n      dup2\n      mstore\n      0x20\n      add\n      0x00\n      keccak256\n      0x00\n      swap1\n      sload\n      swap1\n      0x0100\n      exp\n      swap1\n      div\n      0xff\n      and\n        /* \"TimeAlly.sol\":27053:27764  if( stakings[_userAddress][_stakingId].isMonthClaimed[i] ) {... */\n      iszero\n      tag_305\n      jumpi\n        /* \"TimeAlly.sol\":27130:27154  uint256 _effectiveAmount */\n      0x00\n        /* \"TimeAlly.sol\":27157:27332  stakings[_userAddress][_stakingId].exaEsAmount... */\n      tag_306\n        /* \"TimeAlly.sol\":27329:27331  15 */\n      0x0f\n        /* \"TimeAlly.sol\":27157:27305  stakings[_userAddress][_stakingId].exaEsAmount... */\n      tag_307\n        /* \"TimeAlly.sol\":27227:27239  stakingPlans */\n      0x05\n        /* \"TimeAlly.sol\":27240:27248  stakings */\n      0x07\n        /* \"TimeAlly.sol\":27240:27262  stakings[_userAddress] */\n      0x00\n        /* \"TimeAlly.sol\":27249:27261  _userAddress */\n      dup16\n        /* \"TimeAlly.sol\":27240:27262  stakings[_userAddress] */\n      0xffffffffffffffffffffffffffffffffffffffff\n      and\n      0xffffffffffffffffffffffffffffffffffffffff\n      and\n      dup2\n      mstore\n      0x20\n      add\n      swap1\n      dup2\n      mstore\n      0x20\n      add\n      0x00\n      keccak256\n        /* \"TimeAlly.sol\":27263:27273  _stakingId */\n      dup14\n        /* \"TimeAlly.sol\":27240:27274  stakings[_userAddress][_stakingId] */\n      dup2\n      sload\n      dup2\n      lt\n      tag_308\n      jumpi\n      invalid\n    tag_308:\n      swap1\n      0x00\n      mstore\n      keccak256(0x00, 0x20)\n      swap1\n      0x08\n      mul\n      add\n        /* \"TimeAlly.sol\":27240:27288  stakings[_userAddress][_stakingId].stakingPlanId */\n      0x02\n      add\n      sload\n        /* \"TimeAlly.sol\":27227:27289  stakingPlans[stakings[_userAddress][_stakingId].stakingPlanId] */\n      dup2\n      sload\n      dup2\n      lt\n      tag_310\n      jumpi\n      invalid\n    tag_310:\n      swap1\n      0x00\n      mstore\n      keccak256(0x00, 0x20)\n      swap1\n      0x02\n      mul\n      add\n        /* \"TimeAlly.sol\":27227:27304  stakingPlans[stakings[_userAddress][_stakingId].stakingPlanId].fractionFrom15 */\n      0x01\n      add\n      sload\n        /* \"TimeAlly.sol\":27157:27165  stakings */\n      0x07\n        /* \"TimeAlly.sol\":27157:27179  stakings[_userAddress] */\n      0x00\n        /* \"TimeAlly.sol\":27166:27178  _userAddress */\n      dup16\n        /* \"TimeAlly.sol\":27157:27179  stakings[_userAddress] */\n      0xffffffffffffffffffffffffffffffffffffffff\n      and\n      0xffffffffffffffffffffffffffffffffffffffff\n      and\n      dup2\n      mstore\n      0x20\n      add\n      swap1\n      dup2\n      mstore\n      0x20\n      add\n      0x00\n      keccak256\n        /* \"TimeAlly.sol\":27180:27190  _stakingId */\n      dup14\n        /* \"TimeAlly.sol\":27157:27191  stakings[_userAddress][_stakingId] */\n      dup2\n      sload\n      dup2\n      lt\n      tag_312\n      jumpi\n      invalid\n    tag_312:\n      swap1\n      0x00\n      mstore\n      keccak256(0x00, 0x20)\n      swap1\n      0x08\n      mul\n      add\n        /* \"TimeAlly.sol\":27157:27203  stakings[_userAddress][_stakingId].exaEsAmount */\n      0x00\n      add\n      sload\n        /* \"TimeAlly.sol\":27157:27226  stakings[_userAddress][_stakingId].exaEsAmount... */\n      tag_212\n      swap1\n        /* \"TimeAlly.sol\":27157:27305  stakings[_userAddress][_stakingId].exaEsAmount... */\n      swap2\n      swap1\n      0xffffffff\n      and\n      jump\t// in\n    tag_307:\n        /* \"TimeAlly.sol\":27157:27328  stakings[_userAddress][_stakingId].exaEsAmount... */\n      tag_213\n      swap1\n        /* \"TimeAlly.sol\":27157:27332  stakings[_userAddress][_stakingId].exaEsAmount... */\n      swap2\n      swap1\n      0xffffffff\n      and\n      jump\t// in\n    tag_306:\n        /* \"TimeAlly.sol\":27130:27332  uint256 _effectiveAmount = stakings[_userAddress][_stakingId].exaEsAmount... */\n      swap1\n      pop\n        /* \"TimeAlly.sol\":27350:27373  uint256 _monthlyBenefit */\n      0x00\n        /* \"TimeAlly.sol\":27376:27533  _effectiveAmount... */\n      tag_314\n        /* \"TimeAlly.sol\":27510:27529  totalActiveStakings */\n      0x0a\n        /* \"TimeAlly.sol\":27510:27532  totalActiveStakings[i] */\n      0x00\n        /* \"TimeAlly.sol\":27530:27531  i */\n      dup6\n        /* \"TimeAlly.sol\":27510:27532  totalActiveStakings[i] */\n      dup2\n      mstore\n      0x20\n      add\n      swap1\n      dup2\n      mstore\n      0x20\n      add\n      0x00\n      keccak256\n      sload\n        /* \"TimeAlly.sol\":27376:27462  _effectiveAmount... */\n      tag_315\n        /* \"TimeAlly.sol\":27440:27458  timeAllyMonthlyNRT */\n      0x0b\n        /* \"TimeAlly.sol\":27459:27460  i */\n      dup7\n        /* \"TimeAlly.sol\":27440:27461  timeAllyMonthlyNRT[i] */\n      dup2\n      sload\n      dup2\n      lt\n      tag_316\n      jumpi\n      invalid\n    tag_316:\n      swap1\n      0x00\n      mstore\n      keccak256(0x00, 0x20)\n      add\n      sload\n        /* \"TimeAlly.sol\":27376:27392  _effectiveAmount */\n      dup6\n        /* \"TimeAlly.sol\":27376:27439  _effectiveAmount... */\n      tag_212\n      swap1\n        /* \"TimeAlly.sol\":27376:27462  _effectiveAmount... */\n      swap2\n      swap1\n      0xffffffff\n      and\n      jump\t// in\n    tag_315:\n        /* \"TimeAlly.sol\":27376:27509  _effectiveAmount... */\n      tag_213\n      swap1\n        /* \"TimeAlly.sol\":27376:27533  _effectiveAmount... */\n      swap2\n      swap1\n      0xffffffff\n      and\n      jump\t// in\n    tag_314:\n        /* \"TimeAlly.sol\":27350:27533  uint256 _monthlyBenefit = _effectiveAmount... */\n      swap1\n      pop\n        /* \"TimeAlly.sol\":27583:27640  _pendingLiquidAmountInStaking.add(_monthlyBenefit.div(2)) */\n      tag_318\n        /* \"TimeAlly.sol\":27617:27639  _monthlyBenefit.div(2) */\n      tag_319\n        /* \"TimeAlly.sol\":27637:27638  2 */\n      0x02\n        /* \"TimeAlly.sol\":27617:27632  _monthlyBenefit */\n      dup4\n        /* \"TimeAlly.sol\":27617:27636  _monthlyBenefit.div */\n      tag_213\n      swap1\n        /* \"TimeAlly.sol\":27617:27639  _monthlyBenefit.div(2) */\n      swap2\n      swap1\n      0xffffffff\n      and\n      jump\t// in\n    tag_319:\n        /* \"TimeAlly.sol\":27583:27612  _pendingLiquidAmountInStaking */\n      dup9\n        /* \"TimeAlly.sol\":27583:27616  _pendingLiquidAmountInStaking.add */\n      tag_163\n      swap1\n        /* \"TimeAlly.sol\":27583:27640  _pendingLiquidAmountInStaking.add(_monthlyBenefit.div(2)) */\n      swap2\n      swap1\n      0xffffffff\n      and\n      jump\t// in\n    tag_318:\n        /* \"TimeAlly.sol\":27551:27640  _pendingLiquidAmountInStaking = _pendingLiquidAmountInStaking.add(_monthlyBenefit.div(2)) */\n      swap7\n      pop\n        /* \"TimeAlly.sol\":27691:27749  _pendingAccruedAmountInStaking.add(_monthlyBenefit.div(2)) */\n      tag_320\n        /* \"TimeAlly.sol\":27726:27748  _monthlyBenefit.div(2) */\n      tag_321\n        /* \"TimeAlly.sol\":27746:27747  2 */\n      0x02\n        /* \"TimeAlly.sol\":27726:27741  _monthlyBenefit */\n      dup4\n        /* \"TimeAlly.sol\":27726:27745  _monthlyBenefit.div */\n      tag_213\n      swap1\n        /* \"TimeAlly.sol\":27726:27748  _monthlyBenefit.div(2) */\n      swap2\n      swap1\n      0xffffffff\n      and\n      jump\t// in\n    tag_321:\n        /* \"TimeAlly.sol\":27691:27721  _pendingAccruedAmountInStaking */\n      dup8\n        /* \"TimeAlly.sol\":27691:27725  _pendingAccruedAmountInStaking.add */\n      tag_163\n      swap1\n        /* \"TimeAlly.sol\":27691:27749  _pendingAccruedAmountInStaking.add(_monthlyBenefit.div(2)) */\n      swap2\n      swap1\n      0xffffffff\n      and\n      jump\t// in\n    tag_320:\n        /* \"TimeAlly.sol\":27658:27749  _pendingAccruedAmountInStaking = _pendingAccruedAmountInStaking.add(_monthlyBenefit.div(2)) */\n      swap6\n      pop\n        /* \"TimeAlly.sol\":27053:27764  if( stakings[_userAddress][_stakingId].isMonthClaimed[i] ) {... */\n      pop\n      pop\n    tag_305:\n        /* \"TimeAlly.sol\":27025:27028  i++ */\n      dup1\n      dup1\n      0x01\n      add\n      swap2\n      pop\n      pop\n        /* \"TimeAlly.sol\":26938:27774  for(... */\n      jump(tag_300)\n    tag_301:\n      pop\n        /* \"TimeAlly.sol\":28054:28055  0 */\n      0x00\n        /* \"TimeAlly.sol\":27994:28002  stakings */\n      0x07\n        /* \"TimeAlly.sol\":27994:28016  stakings[_userAddress] */\n      0x00\n        /* \"TimeAlly.sol\":28003:28015  _userAddress */\n      dup11\n        /* \"TimeAlly.sol\":27994:28016  stakings[_userAddress] */\n      0xffffffffffffffffffffffffffffffffffffffff\n      and\n      0xffffffffffffffffffffffffffffffffffffffff\n      and\n      dup2\n      mstore\n      0x20\n      add\n      swap1\n      dup2\n      mstore\n      0x20\n      add\n      0x00\n      keccak256\n        /* \"TimeAlly.sol\":28017:28027  _stakingId */\n      dup9\n        /* \"TimeAlly.sol\":27994:28028  stakings[_userAddress][_stakingId] */\n      dup2\n      sload\n      dup2\n      lt\n      tag_322\n      jumpi\n      invalid\n    tag_322:\n      swap1\n      0x00\n      mstore\n      keccak256(0x00, 0x20)\n      swap1\n      0x08\n      mul\n      add\n        /* \"TimeAlly.sol\":27994:28039  stakings[_userAddress][_stakingId].nomination */\n      0x07\n      add\n        /* \"TimeAlly.sol\":27994:28051  stakings[_userAddress][_stakingId].nomination[msg.sender] */\n      0x00\n        /* \"TimeAlly.sol\":28040:28050  msg.sender */\n      caller\n        /* \"TimeAlly.sol\":27994:28051  stakings[_userAddress][_stakingId].nomination[msg.sender] */\n      0xffffffffffffffffffffffffffffffffffffffff\n      and\n      0xffffffffffffffffffffffffffffffffffffffff\n      and\n      dup2\n      mstore\n      0x20\n      add\n      swap1\n      dup2\n      mstore\n      0x20\n      add\n      0x00\n      keccak256\n        /* \"TimeAlly.sol\":27994:28055  stakings[_userAddress][_stakingId].nomination[msg.sender] = 0 */\n      dup2\n      swap1\n      sstore\n      pop\n        /* \"TimeAlly.sol\":28066:28093  uint256 _nomineeLiquidShare */\n      0x00\n        /* \"TimeAlly.sol\":28096:28289  _pendingLiquidAmountInStaking... */\n      tag_324\n        /* \"TimeAlly.sol\":28232:28240  stakings */\n      0x07\n        /* \"TimeAlly.sol\":28232:28254  stakings[_userAddress] */\n      0x00\n        /* \"TimeAlly.sol\":28241:28253  _userAddress */\n      dup12\n        /* \"TimeAlly.sol\":28232:28254  stakings[_userAddress] */\n      0xffffffffffffffffffffffffffffffffffffffff\n      and\n      0xffffffffffffffffffffffffffffffffffffffff\n      and\n      dup2\n      mstore\n      0x20\n      add\n      swap1\n      dup2\n      mstore\n      0x20\n      add\n      0x00\n      keccak256\n        /* \"TimeAlly.sol\":28255:28265  _stakingId */\n      dup10\n        /* \"TimeAlly.sol\":28232:28266  stakings[_userAddress][_stakingId] */\n      dup2\n      sload\n      dup2\n      lt\n      tag_325\n      jumpi\n      invalid\n    tag_325:\n      swap1\n      0x00\n      mstore\n      keccak256(0x00, 0x20)\n      swap1\n      0x08\n      mul\n      add\n        /* \"TimeAlly.sol\":28232:28288  stakings[_userAddress][_stakingId].totalNominationShares */\n      0x05\n      add\n      sload\n        /* \"TimeAlly.sol\":28096:28186  _pendingLiquidAmountInStaking... */\n      tag_327\n        /* \"TimeAlly.sol\":28171:28185  _nomineeShares */\n      dup9\n        /* \"TimeAlly.sol\":28096:28125  _pendingLiquidAmountInStaking */\n      dup9\n        /* \"TimeAlly.sol\":28096:28170  _pendingLiquidAmountInStaking... */\n      tag_212\n      swap1\n        /* \"TimeAlly.sol\":28096:28186  _pendingLiquidAmountInStaking... */\n      swap2\n      swap1\n      0xffffffff\n      and\n      jump\t// in\n    tag_327:\n        /* \"TimeAlly.sol\":28096:28231  _pendingLiquidAmountInStaking... */\n      tag_213\n      swap1\n        /* \"TimeAlly.sol\":28096:28289  _pendingLiquidAmountInStaking... */\n      swap2\n      swap1\n      0xffffffff\n      and\n      jump\t// in\n    tag_324:\n        /* \"TimeAlly.sol\":28066:28289  uint256 _nomineeLiquidShare = _pendingLiquidAmountInStaking... */\n      swap1\n      pop\n        /* \"TimeAlly.sol\":28299:28304  token */\n      0x02\n      0x00\n      swap1\n      sload\n      swap1\n      0x0100\n      exp\n      swap1\n      div\n      0xffffffffffffffffffffffffffffffffffffffff\n      and\n        /* \"TimeAlly.sol\":28299:28313  token.transfer */\n      0xffffffffffffffffffffffffffffffffffffffff\n      and\n      0xa9059cbb\n        /* \"TimeAlly.sol\":28314:28324  msg.sender */\n      caller\n        /* \"TimeAlly.sol\":28326:28345  _nomineeLiquidShare */\n      dup4\n        /* \"TimeAlly.sol\":28299:28346  token.transfer(msg.sender, _nomineeLiquidShare) */\n      mload(0x40)\n      dup4\n      0xffffffff\n      and\n      0xe0\n      shl\n      dup2\n      mstore\n      0x04\n      add\n      dup1\n      dup4\n      0xffffffffffffffffffffffffffffffffffffffff\n      and\n      0xffffffffffffffffffffffffffffffffffffffff\n      and\n      dup2\n      mstore\n      0x20\n      add\n      dup3\n      dup2\n      mstore\n      0x20\n      add\n      swap3\n      pop\n      pop\n      pop\n      0x20\n      mload(0x40)\n      dup1\n      dup4\n      sub\n      dup2\n      0x00\n      dup8\n      dup1\n      extcodesize\n      iszero\n        /* \"--CODEGEN--\":8:17   */\n      dup1\n        /* \"--CODEGEN--\":5:7   */\n      iszero\n      tag_328\n      jumpi\n        /* \"--CODEGEN--\":30:31   */\n      0x00\n        /* \"--CODEGEN--\":27:28   */\n      dup1\n        /* \"--CODEGEN--\":20:32   */\n      revert\n        /* \"--CODEGEN--\":5:7   */\n    tag_328:\n        /* \"TimeAlly.sol\":28299:28346  token.transfer(msg.sender, _nomineeLiquidShare) */\n      pop\n      gas\n      call\n      iszero\n        /* \"--CODEGEN--\":8:17   */\n      dup1\n        /* \"--CODEGEN--\":5:7   */\n      iszero\n      tag_329\n      jumpi\n        /* \"--CODEGEN--\":45:61   */\n      returndatasize\n        /* \"--CODEGEN--\":42:43   */\n      0x00\n        /* \"--CODEGEN--\":39:40   */\n      dup1\n        /* \"--CODEGEN--\":24:62   */\n      returndatacopy\n        /* \"--CODEGEN--\":77:93   */\n      returndatasize\n        /* \"--CODEGEN--\":74:75   */\n      0x00\n        /* \"--CODEGEN--\":67:94   */\n      revert\n        /* \"--CODEGEN--\":5:7   */\n    tag_329:\n        /* \"TimeAlly.sol\":28299:28346  token.transfer(msg.sender, _nomineeLiquidShare) */\n      pop\n      pop\n      pop\n      pop\n      mload(0x40)\n      returndatasize\n        /* \"--CODEGEN--\":13:15   */\n      0x20\n        /* \"--CODEGEN--\":8:11   */\n      dup2\n        /* \"--CODEGEN--\":5:16   */\n      lt\n        /* \"--CODEGEN--\":2:4   */\n      iszero\n      tag_330\n      jumpi\n        /* \"--CODEGEN--\":29:30   */\n      0x00\n        /* \"--CODEGEN--\":26:27   */\n      dup1\n        /* \"--CODEGEN--\":19:31   */\n      revert\n        /* \"--CODEGEN--\":2:4   */\n    tag_330:\n        /* \"TimeAlly.sol\":28299:28346  token.transfer(msg.sender, _nomineeLiquidShare) */\n      dup2\n      add\n      swap1\n      dup1\n      dup1\n      mload\n      swap1\n      0x20\n      add\n      swap1\n      swap3\n      swap2\n      swap1\n      pop\n      pop\n      pop\n      pop\n        /* \"TimeAlly.sol\":28357:28385  uint256 _nomineeAccruedShare */\n      0x00\n        /* \"TimeAlly.sol\":28388:28586  _pendingAccruedAmountInStaking... */\n      tag_331\n        /* \"TimeAlly.sol\":28529:28537  stakings */\n      0x07\n        /* \"TimeAlly.sol\":28529:28551  stakings[_userAddress] */\n      0x00\n        /* \"TimeAlly.sol\":28538:28550  _userAddress */\n      dup13\n        /* \"TimeAlly.sol\":28529:28551  stakings[_userAddress] */\n      0xffffffffffffffffffffffffffffffffffffffff\n      and\n      0xffffffffffffffffffffffffffffffffffffffff\n      and\n      dup2\n      mstore\n      0x20\n      add\n      swap1\n      dup2\n      mstore\n      0x20\n      add\n      0x00\n      keccak256\n        /* \"TimeAlly.sol\":28552:28562  _stakingId */\n      dup11\n        /* \"TimeAlly.sol\":28529:28563  stakings[_userAddress][_stakingId] */\n      dup2\n      sload\n      dup2\n      lt\n      tag_332\n      jumpi\n      invalid\n    tag_332:\n      swap1\n      0x00\n      mstore\n      keccak256(0x00, 0x20)\n      swap1\n      0x08\n      mul\n      add\n        /* \"TimeAlly.sol\":28529:28585  stakings[_userAddress][_stakingId].totalNominationShares */\n      0x05\n      add\n      sload\n        /* \"TimeAlly.sol\":28388:28481  _pendingAccruedAmountInStaking... */\n      tag_334\n        /* \"TimeAlly.sol\":28466:28480  _nomineeShares */\n      dup10\n        /* \"TimeAlly.sol\":28388:28418  _pendingAccruedAmountInStaking */\n      dup9\n        /* \"TimeAlly.sol\":28388:28465  _pendingAccruedAmountInStaking... */\n      tag_212\n      swap1\n        /* \"TimeAlly.sol\":28388:28481  _pendingAccruedAmountInStaking... */\n      swap2\n      swap1\n      0xffffffff\n      and\n      jump\t// in\n    tag_334:\n        /* \"TimeAlly.sol\":28388:28528  _pendingAccruedAmountInStaking... */\n      tag_213\n      swap1\n        /* \"TimeAlly.sol\":28388:28586  _pendingAccruedAmountInStaking... */\n      swap2\n      swap1\n      0xffffffff\n      and\n      jump\t// in\n    tag_331:\n        /* \"TimeAlly.sol\":28357:28586  uint256 _nomineeAccruedShare = _pendingAccruedAmountInStaking... */\n      swap1\n      pop\n        /* \"TimeAlly.sol\":28623:28673  launchReward[msg.sender].add(_nomineeAccruedShare) */\n      tag_335\n        /* \"TimeAlly.sol\":28652:28672  _nomineeAccruedShare */\n      dup2\n        /* \"TimeAlly.sol\":28623:28635  launchReward */\n      0x09\n        /* \"TimeAlly.sol\":28623:28647  launchReward[msg.sender] */\n      0x00\n        /* \"TimeAlly.sol\":28636:28646  msg.sender */\n      caller\n        /* \"TimeAlly.sol\":28623:28647  launchReward[msg.sender] */\n      0xffffffffffffffffffffffffffffffffffffffff\n      and\n      0xffffffffffffffffffffffffffffffffffffffff\n      and\n      dup2\n      mstore\n      0x20\n      add\n      swap1\n      dup2\n      mstore\n      0x20\n      add\n      0x00\n      keccak256\n      sload\n        /* \"TimeAlly.sol\":28623:28651  launchReward[msg.sender].add */\n      tag_163\n      swap1\n        /* \"TimeAlly.sol\":28623:28673  launchReward[msg.sender].add(_nomineeAccruedShare) */\n      swap2\n      swap1\n      0xffffffff\n      and\n      jump\t// in\n    tag_335:\n        /* \"TimeAlly.sol\":28596:28608  launchReward */\n      0x09\n        /* \"TimeAlly.sol\":28596:28620  launchReward[msg.sender] */\n      0x00\n        /* \"TimeAlly.sol\":28609:28619  msg.sender */\n      caller\n        /* \"TimeAlly.sol\":28596:28620  launchReward[msg.sender] */\n      0xffffffffffffffffffffffffffffffffffffffff\n      and\n      0xffffffffffffffffffffffffffffffffffffffff\n      and\n      dup2\n      mstore\n      0x20\n      add\n      swap1\n      dup2\n      mstore\n      0x20\n      add\n      0x00\n      keccak256\n        /* \"TimeAlly.sol\":28596:28673  launchReward[msg.sender] = launchReward[msg.sender].add(_nomineeAccruedShare) */\n      dup2\n      swap1\n      sstore\n      pop\n        /* \"TimeAlly.sol\":28755:28765  msg.sender */\n      caller\n        /* \"TimeAlly.sol\":28713:28809  NomineeWithdraw(_userAddress, _stakingId, msg.sender, _nomineeLiquidShare, _nomineeAccruedShare) */\n      0xffffffffffffffffffffffffffffffffffffffff\n      and\n        /* \"TimeAlly.sol\":28743:28753  _stakingId */\n      dup10\n        /* \"TimeAlly.sol\":28729:28741  _userAddress */\n      dup12\n        /* \"TimeAlly.sol\":28713:28809  NomineeWithdraw(_userAddress, _stakingId, msg.sender, _nomineeLiquidShare, _nomineeAccruedShare) */\n      0xffffffffffffffffffffffffffffffffffffffff\n      and\n      0xa54cec59552c7f022eed79ede59f759697aa5787f43b11d61f17bfc5adaffb65\n        /* \"TimeAlly.sol\":28767:28786  _nomineeLiquidShare */\n      dup6\n        /* \"TimeAlly.sol\":28788:28808  _nomineeAccruedShare */\n      dup6\n        /* \"TimeAlly.sol\":28713:28809  NomineeWithdraw(_userAddress, _stakingId, msg.sender, _nomineeLiquidShare, _nomineeAccruedShare) */\n      mload(0x40)\n      dup1\n      dup4\n      dup2\n      mstore\n      0x20\n      add\n      dup3\n      dup2\n      mstore\n      0x20\n      add\n      swap3\n      pop\n      pop\n      pop\n      mload(0x40)\n      dup1\n      swap2\n      sub\n      swap1\n      log4\n        /* \"TimeAlly.sol\":25604:28816  function nomineeWithdraw(address _userAddress, uint256 _stakingId) public {... */\n      pop\n      pop\n      pop\n      pop\n      pop\n      pop\n      pop\n      pop\n      pop\n      pop\n      jump\t// out\n        /* \"TimeAlly.sol\":8540:9249  function isStakingActive(address _userAddress, uint256 _stakingId, uint256 _currentMonth, uint256 _atMonth) public view returns (bool) {... */\n    tag_98:\n        /* \"TimeAlly.sol\":8669:8673  bool */\n      0x00\n        /* \"TimeAlly.sol\":8683:8703  uint256 stakingMonth */\n      dup1\n        /* \"TimeAlly.sol\":8706:8798  stakings[_userAddress][_stakingId].timestamp.sub(deployedTimestamp).div(earthSecondsInMonth) */\n      tag_337\n        /* \"TimeAlly.sol\":8778:8797  earthSecondsInMonth */\n      sload(0x04)\n        /* \"TimeAlly.sol\":8706:8773  stakings[_userAddress][_stakingId].timestamp.sub(deployedTimestamp) */\n      tag_338\n        /* \"TimeAlly.sol\":8755:8772  deployedTimestamp */\n      sload(0x00)\n        /* \"TimeAlly.sol\":8706:8714  stakings */\n      0x07\n        /* \"TimeAlly.sol\":8706:8728  stakings[_userAddress] */\n      0x00\n        /* \"TimeAlly.sol\":8715:8727  _userAddress */\n      dup12\n        /* \"TimeAlly.sol\":8706:8728  stakings[_userAddress] */\n      0xffffffffffffffffffffffffffffffffffffffff\n      and\n      0xffffffffffffffffffffffffffffffffffffffff\n      and\n      dup2\n      mstore\n      0x20\n      add\n      swap1\n      dup2\n      mstore\n      0x20\n      add\n      0x00\n      keccak256\n        /* \"TimeAlly.sol\":8729:8739  _stakingId */\n      dup10\n        /* \"TimeAlly.sol\":8706:8740  stakings[_userAddress][_stakingId] */\n      dup2\n      sload\n      dup2\n      lt\n      tag_339\n      jumpi\n      invalid\n    tag_339:\n      swap1\n      0x00\n      mstore\n      keccak256(0x00, 0x20)\n      swap1\n      0x08\n      mul\n      add\n        /* \"TimeAlly.sol\":8706:8750  stakings[_userAddress][_stakingId].timestamp */\n      0x01\n      add\n      sload\n        /* \"TimeAlly.sol\":8706:8754  stakings[_userAddress][_stakingId].timestamp.sub */\n      tag_159\n      swap1\n        /* \"TimeAlly.sol\":8706:8773  stakings[_userAddress][_stakingId].timestamp.sub(deployedTimestamp) */\n      swap2\n      swap1\n      0xffffffff\n      and\n      jump\t// in\n    tag_338:\n        /* \"TimeAlly.sol\":8706:8777  stakings[_userAddress][_stakingId].timestamp.sub(deployedTimestamp).div */\n      tag_213\n      swap1\n        /* \"TimeAlly.sol\":8706:8798  stakings[_userAddress][_stakingId].timestamp.sub(deployedTimestamp).div(earthSecondsInMonth) */\n      swap2\n      swap1\n      0xffffffff\n      and\n      jump\t// in\n    tag_337:\n        /* \"TimeAlly.sol\":8683:8798  uint256 stakingMonth = stakings[_userAddress][_stakingId].timestamp.sub(deployedTimestamp).div(earthSecondsInMonth) */\n      swap1\n      pop\n        /* \"TimeAlly.sol\":8844:8852  _atMonth */\n      dup3\n        /* \"TimeAlly.sol\":8839:8840  1 */\n      0x01\n        /* \"TimeAlly.sol\":8824:8836  stakingMonth */\n      dup3\n        /* \"TimeAlly.sol\":8824:8840  stakingMonth + 1 */\n      add\n        /* \"TimeAlly.sol\":8824:8852  stakingMonth + 1 <= _atMonth */\n      gt\n      iszero\n        /* \"TimeAlly.sol\":8824:8954  stakingMonth + 1 <= _atMonth && stakingMonth + stakingPlans[ stakings[_userAddress][_stakingId].stakingPlanId ].months >= _atMonth */\n      dup1\n      iszero\n      tag_341\n      jumpi\n      pop\n        /* \"TimeAlly.sol\":8946:8954  _atMonth */\n      dup3\n        /* \"TimeAlly.sol\":8871:8883  stakingPlans */\n      0x05\n        /* \"TimeAlly.sol\":8885:8893  stakings */\n      0x07\n        /* \"TimeAlly.sol\":8885:8907  stakings[_userAddress] */\n      0x00\n        /* \"TimeAlly.sol\":8894:8906  _userAddress */\n      dup10\n        /* \"TimeAlly.sol\":8885:8907  stakings[_userAddress] */\n      0xffffffffffffffffffffffffffffffffffffffff\n      and\n      0xffffffffffffffffffffffffffffffffffffffff\n      and\n      dup2\n      mstore\n      0x20\n      add\n      swap1\n      dup2\n      mstore\n      0x20\n      add\n      0x00\n      keccak256\n        /* \"TimeAlly.sol\":8908:8918  _stakingId */\n      dup8\n        /* \"TimeAlly.sol\":8885:8919  stakings[_userAddress][_stakingId] */\n      dup2\n      sload\n      dup2\n      lt\n      tag_342\n      jumpi\n      invalid\n    tag_342:\n      swap1\n      0x00\n      mstore\n      keccak256(0x00, 0x20)\n      swap1\n      0x08\n      mul\n      add\n        /* \"TimeAlly.sol\":8885:8933  stakings[_userAddress][_stakingId].stakingPlanId */\n      0x02\n      add\n      sload\n        /* \"TimeAlly.sol\":8871:8935  stakingPlans[ stakings[_userAddress][_stakingId].stakingPlanId ] */\n      dup2\n      sload\n      dup2\n      lt\n      tag_344\n      jumpi\n      invalid\n    tag_344:\n      swap1\n      0x00\n      mstore\n      keccak256(0x00, 0x20)\n      swap1\n      0x02\n      mul\n      add\n        /* \"TimeAlly.sol\":8871:8942  stakingPlans[ stakings[_userAddress][_stakingId].stakingPlanId ].months */\n      0x00\n      add\n      sload\n        /* \"TimeAlly.sol\":8856:8868  stakingMonth */\n      dup3\n        /* \"TimeAlly.sol\":8856:8942  stakingMonth + stakingPlans[ stakings[_userAddress][_stakingId].stakingPlanId ].months */\n      add\n        /* \"TimeAlly.sol\":8856:8954  stakingMonth + stakingPlans[ stakings[_userAddress][_stakingId].stakingPlanId ].months >= _atMonth */\n      lt\n      iszero\n        /* \"TimeAlly.sol\":8824:8954  stakingMonth + 1 <= _atMonth && stakingMonth + stakingPlans[ stakings[_userAddress][_stakingId].stakingPlanId ].months >= _atMonth */\n    tag_341:\n        /* \"TimeAlly.sol\":8824:9012  stakingMonth + 1 <= _atMonth && stakingMonth + stakingPlans[ stakings[_userAddress][_stakingId].stakingPlanId ].months >= _atMonth... */\n      dup1\n      iszero\n      tag_346\n      jumpi\n      pop\n        /* \"TimeAlly.sol\":9011:9012  1 */\n      0x01\n        /* \"TimeAlly.sol\":8966:8974  stakings */\n      0x07\n        /* \"TimeAlly.sol\":8966:8988  stakings[_userAddress] */\n      0x00\n        /* \"TimeAlly.sol\":8975:8987  _userAddress */\n      dup9\n        /* \"TimeAlly.sol\":8966:8988  stakings[_userAddress] */\n      0xffffffffffffffffffffffffffffffffffffffff\n      and\n      0xffffffffffffffffffffffffffffffffffffffff\n      and\n      dup2\n      mstore\n      0x20\n      add\n      swap1\n      dup2\n      mstore\n      0x20\n      add\n      0x00\n      keccak256\n        /* \"TimeAlly.sol\":8989:8999  _stakingId */\n      dup7\n        /* \"TimeAlly.sol\":8966:9000  stakings[_userAddress][_stakingId] */\n      dup2\n      sload\n      dup2\n      lt\n      tag_347\n      jumpi\n      invalid\n    tag_347:\n      swap1\n      0x00\n      mstore\n      keccak256(0x00, 0x20)\n      swap1\n      0x08\n      mul\n      add\n        /* \"TimeAlly.sol\":8966:9007  stakings[_userAddress][_stakingId].status */\n      0x03\n      add\n      sload\n        /* \"TimeAlly.sol\":8966:9012  stakings[_userAddress][_stakingId].status == 1 */\n      eq\n        /* \"TimeAlly.sol\":8824:9012  stakingMonth + 1 <= _atMonth && stakingMonth + stakingPlans[ stakings[_userAddress][_stakingId].stakingPlanId ].months >= _atMonth... */\n    tag_346:\n        /* \"TimeAlly.sol\":8824:9232  stakingMonth + 1 <= _atMonth && stakingMonth + stakingPlans[ stakings[_userAddress][_stakingId].stakingPlanId ].months >= _atMonth... */\n      dup1\n      iszero\n      tag_349\n      jumpi\n      pop\n        /* \"TimeAlly.sol\":9053:9061  _atMonth */\n      dup3\n        /* \"TimeAlly.sol\":9036:9049  _currentMonth */\n      dup5\n        /* \"TimeAlly.sol\":9036:9061  _currentMonth != _atMonth */\n      eq\n      iszero\n        /* \"TimeAlly.sol\":9036:9220  _currentMonth != _atMonth... */\n      dup1\n      tag_350\n      jumpi\n      pop\n        /* \"TimeAlly.sol\":9090:9220  stakings[_userAddress][_stakingId].timestamp... */\n      tag_351\n        /* \"TimeAlly.sol\":9163:9218  (_currentMonth - stakingMonth).mul(earthSecondsInMonth) */\n      tag_352\n        /* \"TimeAlly.sol\":9198:9217  earthSecondsInMonth */\n      sload(0x04)\n        /* \"TimeAlly.sol\":9180:9192  stakingMonth */\n      dup4\n        /* \"TimeAlly.sol\":9164:9177  _currentMonth */\n      dup8\n        /* \"TimeAlly.sol\":9164:9192  _currentMonth - stakingMonth */\n      sub\n        /* \"TimeAlly.sol\":9163:9197  (_currentMonth - stakingMonth).mul */\n      tag_212\n      swap1\n        /* \"TimeAlly.sol\":9163:9218  (_currentMonth - stakingMonth).mul(earthSecondsInMonth) */\n      swap2\n      swap1\n      0xffffffff\n      and\n      jump\t// in\n    tag_352:\n        /* \"TimeAlly.sol\":9090:9098  stakings */\n      0x07\n        /* \"TimeAlly.sol\":9090:9112  stakings[_userAddress] */\n      0x00\n        /* \"TimeAlly.sol\":9099:9111  _userAddress */\n      dup10\n        /* \"TimeAlly.sol\":9090:9112  stakings[_userAddress] */\n      0xffffffffffffffffffffffffffffffffffffffff\n      and\n      0xffffffffffffffffffffffffffffffffffffffff\n      and\n      dup2\n      mstore\n      0x20\n      add\n      swap1\n      dup2\n      mstore\n      0x20\n      add\n      0x00\n      keccak256\n        /* \"TimeAlly.sol\":9113:9123  _stakingId */\n      dup8\n        /* \"TimeAlly.sol\":9090:9124  stakings[_userAddress][_stakingId] */\n      dup2\n      sload\n      dup2\n      lt\n      tag_353\n      jumpi\n      invalid\n    tag_353:\n      swap1\n      0x00\n      mstore\n      keccak256(0x00, 0x20)\n      swap1\n      0x08\n      mul\n      add\n        /* \"TimeAlly.sol\":9090:9134  stakings[_userAddress][_stakingId].timestamp */\n      0x01\n      add\n      sload\n        /* \"TimeAlly.sol\":9090:9161  stakings[_userAddress][_stakingId].timestamp... */\n      tag_163\n      swap1\n        /* \"TimeAlly.sol\":9090:9220  stakings[_userAddress][_stakingId].timestamp... */\n      swap2\n      swap1\n      0xffffffff\n      and\n      jump\t// in\n    tag_351:\n        /* \"TimeAlly.sol\":9075:9080  token */\n      0x02\n      0x00\n      swap1\n      sload\n      swap1\n      0x0100\n      exp\n      swap1\n      div\n      0xffffffffffffffffffffffffffffffffffffffff\n      and\n        /* \"TimeAlly.sol\":9075:9084  token.mou */\n      0xffffffffffffffffffffffffffffffffffffffff\n      and\n      0xb81f90f3\n        /* \"TimeAlly.sol\":9075:9086  token.mou() */\n      mload(0x40)\n      dup2\n      0xffffffff\n      and\n      0xe0\n      shl\n      dup2\n      mstore\n      0x04\n      add\n      0x20\n      mload(0x40)\n      dup1\n      dup4\n      sub\n      dup2\n      dup7\n      dup1\n      extcodesize\n      iszero\n        /* \"--CODEGEN--\":8:17   */\n      dup1\n        /* \"--CODEGEN--\":5:7   */\n      iszero\n      tag_355\n      jumpi\n        /* \"--CODEGEN--\":30:31   */\n      0x00\n        /* \"--CODEGEN--\":27:28   */\n      dup1\n        /* \"--CODEGEN--\":20:32   */\n      revert\n        /* \"--CODEGEN--\":5:7   */\n    tag_355:\n        /* \"TimeAlly.sol\":9075:9086  token.mou() */\n      pop\n      gas\n      staticcall\n      iszero\n        /* \"--CODEGEN--\":8:17   */\n      dup1\n        /* \"--CODEGEN--\":5:7   */\n      iszero\n      tag_356\n      jumpi\n        /* \"--CODEGEN--\":45:61   */\n      returndatasize\n        /* \"--CODEGEN--\":42:43   */\n      0x00\n        /* \"--CODEGEN--\":39:40   */\n      dup1\n        /* \"--CODEGEN--\":24:62   */\n      returndatacopy\n        /* \"--CODEGEN--\":77:93   */\n      returndatasize\n        /* \"--CODEGEN--\":74:75   */\n      0x00\n        /* \"--CODEGEN--\":67:94   */\n      revert\n        /* \"--CODEGEN--\":5:7   */\n    tag_356:\n        /* \"TimeAlly.sol\":9075:9086  token.mou() */\n      pop\n      pop\n      pop\n      pop\n      mload(0x40)\n      returndatasize\n        /* \"--CODEGEN--\":13:15   */\n      0x20\n        /* \"--CODEGEN--\":8:11   */\n      dup2\n        /* \"--CODEGEN--\":5:16   */\n      lt\n        /* \"--CODEGEN--\":2:4   */\n      iszero\n      tag_357\n      jumpi\n        /* \"--CODEGEN--\":29:30   */\n      0x00\n        /* \"--CODEGEN--\":26:27   */\n      dup1\n        /* \"--CODEGEN--\":19:31   */\n      revert\n        /* \"--CODEGEN--\":2:4   */\n    tag_357:\n        /* \"TimeAlly.sol\":9075:9086  token.mou() */\n      dup2\n      add\n      swap1\n      dup1\n      dup1\n      mload\n      swap1\n      0x20\n      add\n      swap1\n      swap3\n      swap2\n      swap1\n      pop\n      pop\n      pop\n        /* \"TimeAlly.sol\":9075:9220  token.mou() >= stakings[_userAddress][_stakingId].timestamp... */\n      lt\n      iszero\n        /* \"TimeAlly.sol\":9036:9220  _currentMonth != _atMonth... */\n    tag_350:\n        /* \"TimeAlly.sol\":8824:9232  stakingMonth + 1 <= _atMonth && stakingMonth + stakingPlans[ stakings[_userAddress][_stakingId].stakingPlanId ].months >= _atMonth... */\n    tag_349:\n        /* \"TimeAlly.sol\":8807:9242  return (... */\n      swap2\n      pop\n      pop\n        /* \"TimeAlly.sol\":8540:9249  function isStakingActive(address _userAddress, uint256 _stakingId, uint256 _currentMonth, uint256 _atMonth) public view returns (bool) {... */\n      swap5\n      swap4\n      pop\n      pop\n      pop\n      pop\n      jump\t// out\n        /* \"TimeAlly.sol\":23288:23869  function addNominee(uint256 _stakingId, address _nomineeAddress, uint256 _shares) public {... */\n    tag_101:\n        /* \"TimeAlly.sol\":23438:23439  1 */\n      0x01\n        /* \"TimeAlly.sol\":23395:23403  stakings */\n      0x07\n        /* \"TimeAlly.sol\":23395:23415  stakings[msg.sender] */\n      0x00\n        /* \"TimeAlly.sol\":23404:23414  msg.sender */\n      caller\n        /* \"TimeAlly.sol\":23395:23415  stakings[msg.sender] */\n      0xffffffffffffffffffffffffffffffffffffffff\n      and\n      0xffffffffffffffffffffffffffffffffffffffff\n      and\n      dup2\n      mstore\n      0x20\n      add\n      swap1\n      dup2\n      mstore\n      0x20\n      add\n      0x00\n      keccak256\n        /* \"TimeAlly.sol\":23416:23426  _stakingId */\n      dup5\n        /* \"TimeAlly.sol\":23395:23427  stakings[msg.sender][_stakingId] */\n      dup2\n      sload\n      dup2\n      lt\n      tag_359\n      jumpi\n      invalid\n    tag_359:\n      swap1\n      0x00\n      mstore\n      keccak256(0x00, 0x20)\n      swap1\n      0x08\n      mul\n      add\n        /* \"TimeAlly.sol\":23395:23434  stakings[msg.sender][_stakingId].status */\n      0x03\n      add\n      sload\n        /* \"TimeAlly.sol\":23395:23439  stakings[msg.sender][_stakingId].status == 1 */\n      eq\n        /* \"TimeAlly.sol\":23387:23465  require(stakings[msg.sender][_stakingId].status == 1, 'staking should active') */\n      tag_361\n      jumpi\n      mload(0x40)\n      0x08c379a000000000000000000000000000000000000000000000000000000000\n      dup2\n      mstore\n      0x04\n      add\n      dup1\n      dup1\n      0x20\n      add\n      dup3\n      dup2\n      sub\n      dup3\n      mstore\n      0x15\n      dup2\n      mstore\n      0x20\n      add\n      dup1\n      0x7374616b696e672073686f756c64206163746976650000000000000000000000\n      dup2\n      mstore\n      pop\n      0x20\n      add\n      swap2\n      pop\n      pop\n      mload(0x40)\n      dup1\n      swap2\n      sub\n      swap1\n      revert\n    tag_361:\n        /* \"TimeAlly.sol\":23547:23548  0 */\n      0x00\n        /* \"TimeAlly.sol\":23483:23491  stakings */\n      0x07\n        /* \"TimeAlly.sol\":23483:23503  stakings[msg.sender] */\n      0x00\n        /* \"TimeAlly.sol\":23492:23502  msg.sender */\n      caller\n        /* \"TimeAlly.sol\":23483:23503  stakings[msg.sender] */\n      0xffffffffffffffffffffffffffffffffffffffff\n      and\n      0xffffffffffffffffffffffffffffffffffffffff\n      and\n      dup2\n      mstore\n      0x20\n      add\n      swap1\n      dup2\n      mstore\n      0x20\n      add\n      0x00\n      keccak256\n        /* \"TimeAlly.sol\":23504:23514  _stakingId */\n      dup5\n        /* \"TimeAlly.sol\":23483:23515  stakings[msg.sender][_stakingId] */\n      dup2\n      sload\n      dup2\n      lt\n      tag_362\n      jumpi\n      invalid\n    tag_362:\n      swap1\n      0x00\n      mstore\n      keccak256(0x00, 0x20)\n      swap1\n      0x08\n      mul\n      add\n        /* \"TimeAlly.sol\":23483:23526  stakings[msg.sender][_stakingId].nomination */\n      0x07\n      add\n        /* \"TimeAlly.sol\":23483:23543  stakings[msg.sender][_stakingId].nomination[_nomineeAddress] */\n      0x00\n        /* \"TimeAlly.sol\":23527:23542  _nomineeAddress */\n      dup5\n        /* \"TimeAlly.sol\":23483:23543  stakings[msg.sender][_stakingId].nomination[_nomineeAddress] */\n      0xffffffffffffffffffffffffffffffffffffffff\n      and\n      0xffffffffffffffffffffffffffffffffffffffff\n      and\n      dup2\n      mstore\n      0x20\n      add\n      swap1\n      dup2\n      mstore\n      0x20\n      add\n      0x00\n      keccak256\n      sload\n        /* \"TimeAlly.sol\":23483:23548  stakings[msg.sender][_stakingId].nomination[_nomineeAddress] == 0 */\n      eq\n        /* \"TimeAlly.sol\":23475:23582  require(stakings[msg.sender][_stakingId].nomination[_nomineeAddress] == 0, 'should not be nominee already') */\n      tag_364\n      jumpi\n      mload(0x40)\n      0x08c379a000000000000000000000000000000000000000000000000000000000\n      dup2\n      mstore\n      0x04\n      add\n      dup1\n      dup1\n      0x20\n      add\n      dup3\n      dup2\n      sub\n      dup3\n      mstore\n      0x1d\n      dup2\n      mstore\n      0x20\n      add\n      dup1\n      0x73686f756c64206e6f74206265206e6f6d696e656520616c7265616479000000\n      dup2\n      mstore\n      pop\n      0x20\n      add\n      swap2\n      pop\n      pop\n      mload(0x40)\n      dup1\n      swap2\n      sub\n      swap1\n      revert\n    tag_364:\n        /* \"TimeAlly.sol\":23649:23716  stakings[msg.sender][_stakingId].totalNominationShares.add(_shares) */\n      tag_365\n        /* \"TimeAlly.sol\":23708:23715  _shares */\n      dup2\n        /* \"TimeAlly.sol\":23649:23657  stakings */\n      0x07\n        /* \"TimeAlly.sol\":23649:23669  stakings[msg.sender] */\n      0x00\n        /* \"TimeAlly.sol\":23658:23668  msg.sender */\n      caller\n        /* \"TimeAlly.sol\":23649:23669  stakings[msg.sender] */\n      0xffffffffffffffffffffffffffffffffffffffff\n      and\n      0xffffffffffffffffffffffffffffffffffffffff\n      and\n      dup2\n      mstore\n      0x20\n      add\n      swap1\n      dup2\n      mstore\n      0x20\n      add\n      0x00\n      keccak256\n        /* \"TimeAlly.sol\":23670:23680  _stakingId */\n      dup6\n        /* \"TimeAlly.sol\":23649:23681  stakings[msg.sender][_stakingId] */\n      dup2\n      sload\n      dup2\n      lt\n      tag_366\n      jumpi\n      invalid\n    tag_366:\n      swap1\n      0x00\n      mstore\n      keccak256(0x00, 0x20)\n      swap1\n      0x08\n      mul\n      add\n        /* \"TimeAlly.sol\":23649:23703  stakings[msg.sender][_stakingId].totalNominationShares */\n      0x05\n      add\n      sload\n        /* \"TimeAlly.sol\":23649:23707  stakings[msg.sender][_stakingId].totalNominationShares.add */\n      tag_163\n      swap1\n        /* \"TimeAlly.sol\":23649:23716  stakings[msg.sender][_stakingId].totalNominationShares.add(_shares) */\n      swap2\n      swap1\n      0xffffffff\n      and\n      jump\t// in\n    tag_365:\n        /* \"TimeAlly.sol\":23592:23600  stakings */\n      0x07\n        /* \"TimeAlly.sol\":23592:23612  stakings[msg.sender] */\n      0x00\n        /* \"TimeAlly.sol\":23601:23611  msg.sender */\n      caller\n        /* \"TimeAlly.sol\":23592:23612  stakings[msg.sender] */\n      0xffffffffffffffffffffffffffffffffffffffff\n      and\n      0xffffffffffffffffffffffffffffffffffffffff\n      and\n      dup2\n      mstore\n      0x20\n      add\n      swap1\n      dup2\n      mstore\n      0x20\n      add\n      0x00\n      keccak256\n        /* \"TimeAlly.sol\":23613:23623  _stakingId */\n      dup5\n        /* \"TimeAlly.sol\":23592:23624  stakings[msg.sender][_stakingId] */\n      dup2\n      sload\n      dup2\n      lt\n      tag_368\n      jumpi\n      invalid\n    tag_368:\n      swap1\n      0x00\n      mstore\n      keccak256(0x00, 0x20)\n      swap1\n      0x08\n      mul\n      add\n        /* \"TimeAlly.sol\":23592:23646  stakings[msg.sender][_stakingId].totalNominationShares */\n      0x05\n      add\n        /* \"TimeAlly.sol\":23592:23716  stakings[msg.sender][_stakingId].totalNominationShares = stakings[msg.sender][_stakingId].totalNominationShares.add(_shares) */\n      dup2\n      swap1\n      sstore\n      pop\n        /* \"TimeAlly.sol\":23789:23796  _shares */\n      dup1\n        /* \"TimeAlly.sol\":23726:23734  stakings */\n      0x07\n        /* \"TimeAlly.sol\":23726:23746  stakings[msg.sender] */\n      0x00\n        /* \"TimeAlly.sol\":23735:23745  msg.sender */\n      caller\n        /* \"TimeAlly.sol\":23726:23746  stakings[msg.sender] */\n      0xffffffffffffffffffffffffffffffffffffffff\n      and\n      0xffffffffffffffffffffffffffffffffffffffff\n      and\n      dup2\n      mstore\n      0x20\n      add\n      swap1\n      dup2\n      mstore\n      0x20\n      add\n      0x00\n      keccak256\n        /* \"TimeAlly.sol\":23747:23757  _stakingId */\n      dup5\n        /* \"TimeAlly.sol\":23726:23758  stakings[msg.sender][_stakingId] */\n      dup2\n      sload\n      dup2\n      lt\n      tag_370\n      jumpi\n      invalid\n    tag_370:\n      swap1\n      0x00\n      mstore\n      keccak256(0x00, 0x20)\n      swap1\n      0x08\n      mul\n      add\n        /* \"TimeAlly.sol\":23726:23769  stakings[msg.sender][_stakingId].nomination */\n      0x07\n      add\n        /* \"TimeAlly.sol\":23726:23786  stakings[msg.sender][_stakingId].nomination[_nomineeAddress] */\n      0x00\n        /* \"TimeAlly.sol\":23770:23785  _nomineeAddress */\n      dup5\n        /* \"TimeAlly.sol\":23726:23786  stakings[msg.sender][_stakingId].nomination[_nomineeAddress] */\n      0xffffffffffffffffffffffffffffffffffffffff\n      and\n      0xffffffffffffffffffffffffffffffffffffffff\n      and\n      dup2\n      mstore\n      0x20\n      add\n      swap1\n      dup2\n      mstore\n      0x20\n      add\n      0x00\n      keccak256\n        /* \"TimeAlly.sol\":23726:23796  stakings[msg.sender][_stakingId].nomination[_nomineeAddress] = _shares */\n      dup2\n      swap1\n      sstore\n      pop\n        /* \"TimeAlly.sol\":23846:23861  _nomineeAddress */\n      dup2\n        /* \"TimeAlly.sol\":23811:23862  NomineeNew(msg.sender, _stakingId, _nomineeAddress) */\n      0xffffffffffffffffffffffffffffffffffffffff\n      and\n        /* \"TimeAlly.sol\":23834:23844  _stakingId */\n      dup4\n        /* \"TimeAlly.sol\":23822:23832  msg.sender */\n      caller\n        /* \"TimeAlly.sol\":23811:23862  NomineeNew(msg.sender, _stakingId, _nomineeAddress) */\n      0xffffffffffffffffffffffffffffffffffffffff\n      and\n      0xc4e7fb51a42ce926bb404f8024c3c91a40af0654d9a96ada67c329b9c9bee4a2\n      mload(0x40)\n      mload(0x40)\n      dup1\n      swap2\n      sub\n      swap1\n      log4\n        /* \"TimeAlly.sol\":23288:23869  function addNominee(uint256 _stakingId, address _nomineeAddress, uint256 _shares) public {... */\n      pop\n      pop\n      pop\n      jump\t// out\n        /* \"TimeAlly.sol\":5804:5944  function getNumberOfStakingsByUser(address _userAddress) public view returns (uint256) {... */\n    tag_104:\n        /* \"TimeAlly.sol\":5882:5889  uint256 */\n      0x00\n        /* \"TimeAlly.sol\":5908:5916  stakings */\n      0x07\n        /* \"TimeAlly.sol\":5908:5930  stakings[_userAddress] */\n      0x00\n        /* \"TimeAlly.sol\":5917:5929  _userAddress */\n      dup4\n        /* \"TimeAlly.sol\":5908:5930  stakings[_userAddress] */\n      0xffffffffffffffffffffffffffffffffffffffff\n      and\n      0xffffffffffffffffffffffffffffffffffffffff\n      and\n      dup2\n      mstore\n      0x20\n      add\n      swap1\n      dup2\n      mstore\n      0x20\n      add\n      0x00\n      keccak256\n        /* \"TimeAlly.sol\":5908:5937  stakings[_userAddress].length */\n      dup1\n      sload\n      swap1\n      pop\n        /* \"TimeAlly.sol\":5901:5937  return stakings[_userAddress].length */\n      swap1\n      pop\n        /* \"TimeAlly.sol\":5804:5944  function getNumberOfStakingsByUser(address _userAddress) public view returns (uint256) {... */\n      swap2\n      swap1\n      pop\n      jump\t// out\n        /* \"TimeAlly.sol\":11575:13804  function withdrawShareForUserByMonth(uint256 _atMonth, uint256 _accruedPercentage) public {... */\n    tag_107:\n        /* \"TimeAlly.sol\":11675:11696  uint256 _currentMonth */\n      0x00\n        /* \"TimeAlly.sol\":11699:11716  getCurrentMonth() */\n      tag_374\n        /* \"TimeAlly.sol\":11699:11714  getCurrentMonth */\n      tag_130\n        /* \"TimeAlly.sol\":11699:11716  getCurrentMonth() */\n      jump\t// in\n    tag_374:\n        /* \"TimeAlly.sol\":11675:11716  uint256 _currentMonth = getCurrentMonth() */\n      swap1\n      pop\n        /* \"TimeAlly.sol\":11752:11760  _atMonth */\n      dup3\n        /* \"TimeAlly.sol\":11735:11748  _currentMonth */\n      dup2\n        /* \"TimeAlly.sol\":11735:11760  _currentMonth >= _atMonth */\n      lt\n      iszero\n        /* \"TimeAlly.sol\":11727:11796  require(_currentMonth >= _atMonth, 'cannot withdraw future stakings') */\n      tag_375\n      jumpi\n      mload(0x40)\n      0x08c379a000000000000000000000000000000000000000000000000000000000\n      dup2\n      mstore\n      0x04\n      add\n      dup1\n      dup1\n      0x20\n      add\n      dup3\n      dup2\n      sub\n      dup3\n      mstore\n      0x1f\n      dup2\n      mstore\n      0x20\n      add\n      dup1\n      0x63616e6e6f7420776974686472617720667574757265207374616b696e677300\n      dup2\n      mstore\n      pop\n      0x20\n      add\n      swap2\n      pop\n      pop\n      mload(0x40)\n      dup1\n      swap2\n      sub\n      swap1\n      revert\n    tag_375:\n        /* \"TimeAlly.sol\":11848:11849  0 */\n      0x00\n        /* \"TimeAlly.sol\":11810:11829  totalActiveStakings */\n      0x0a\n        /* \"TimeAlly.sol\":11810:11844  totalActiveStakings[_currentMonth] */\n      0x00\n        /* \"TimeAlly.sol\":11830:11843  _currentMonth */\n      dup4\n        /* \"TimeAlly.sol\":11810:11844  totalActiveStakings[_currentMonth] */\n      dup2\n      mstore\n      0x20\n      add\n      swap1\n      dup2\n      mstore\n      0x20\n      add\n      0x00\n      keccak256\n      sload\n        /* \"TimeAlly.sol\":11810:11849  totalActiveStakings[_currentMonth] == 0 */\n      eq\n        /* \"TimeAlly.sol\":11807:11934  if(totalActiveStakings[_currentMonth] == 0) {... */\n      iszero\n      tag_376\n      jumpi\n        /* \"TimeAlly.sol\":11873:11878  false */\n      0x00\n        /* \"TimeAlly.sol\":11865:11923  require(false, 'total active stakings should be non zero') */\n      tag_377\n      jumpi\n      mload(0x40)\n      0x08c379a000000000000000000000000000000000000000000000000000000000\n      dup2\n      mstore\n      0x04\n      add\n      dup1\n      dup1\n      0x20\n      add\n      dup3\n      dup2\n      sub\n      dup3\n      mstore\n      0x28\n      dup2\n      mstore\n      0x20\n      add\n      dup1\n      data_befd38e7335fb8237cef118812ecee5a2b8ea845f685bf397227db9c69bef0b5\n      0x28\n      swap2\n      codecopy\n      0x40\n      add\n      swap2\n      pop\n      pop\n      mload(0x40)\n      dup1\n      swap2\n      sub\n      swap1\n      revert\n    tag_377:\n        /* \"TimeAlly.sol\":11807:11934  if(totalActiveStakings[_currentMonth] == 0) {... */\n    tag_376:\n        /* \"TimeAlly.sol\":11974:11976  50 */\n      0x32\n        /* \"TimeAlly.sol\":11952:11970  _accruedPercentage */\n      dup3\n        /* \"TimeAlly.sol\":11952:11976  _accruedPercentage >= 50 */\n      lt\n      iszero\n        /* \"TimeAlly.sol\":11944:12020  require(_accruedPercentage >= 50, 'accruedPercentage should be at least 50') */\n      tag_378\n      jumpi\n      mload(0x40)\n      0x08c379a000000000000000000000000000000000000000000000000000000000\n      dup2\n      mstore\n      0x04\n      add\n      dup1\n      dup1\n      0x20\n      add\n      dup3\n      dup2\n      sub\n      dup3\n      mstore\n      0x27\n      dup2\n      mstore\n      0x20\n      add\n      dup1\n      data_93da6dd610d9fefb6e1313dcbf2bddd65b198696b7b6534428823c79c90920b5\n      0x27\n      swap2\n      codecopy\n      0x40\n      add\n      swap2\n      pop\n      pop\n      mload(0x40)\n      dup1\n      swap2\n      sub\n      swap1\n      revert\n    tag_378:\n        /* \"TimeAlly.sol\":12031:12062  uint256 _totalEffectiveStakings */\n      0x00\n        /* \"TimeAlly.sol\":12072:12089  uint256 _luckPool */\n      dup1\n        /* \"TimeAlly.sol\":12104:12113  uint256 i */\n      0x00\n        /* \"TimeAlly.sol\":12116:12117  0 */\n      dup1\n        /* \"TimeAlly.sol\":12104:12117  uint256 i = 0 */\n      swap1\n      pop\n        /* \"TimeAlly.sol\":12100:12911  for(uint256 i = 0; i < stakings[msg.sender].length; i++) {... */\n    tag_379:\n        /* \"TimeAlly.sol\":12123:12131  stakings */\n      0x07\n        /* \"TimeAlly.sol\":12123:12143  stakings[msg.sender] */\n      0x00\n        /* \"TimeAlly.sol\":12132:12142  msg.sender */\n      caller\n        /* \"TimeAlly.sol\":12123:12143  stakings[msg.sender] */\n      0xffffffffffffffffffffffffffffffffffffffff\n      and\n      0xffffffffffffffffffffffffffffffffffffffff\n      and\n      dup2\n      mstore\n      0x20\n      add\n      swap1\n      dup2\n      mstore\n      0x20\n      add\n      0x00\n      keccak256\n        /* \"TimeAlly.sol\":12123:12150  stakings[msg.sender].length */\n      dup1\n      sload\n      swap1\n      pop\n        /* \"TimeAlly.sol\":12119:12120  i */\n      dup2\n        /* \"TimeAlly.sol\":12119:12150  i < stakings[msg.sender].length */\n      lt\n        /* \"TimeAlly.sol\":12100:12911  for(uint256 i = 0; i < stakings[msg.sender].length; i++) {... */\n      iszero\n      tag_380\n      jumpi\n        /* \"TimeAlly.sol\":12171:12195  StakingPlan memory _plan */\n      tag_382\n      tag_197\n      jump\t// in\n    tag_382:\n        /* \"TimeAlly.sol\":12198:12210  stakingPlans */\n      0x05\n        /* \"TimeAlly.sol\":12212:12220  stakings */\n      0x07\n        /* \"TimeAlly.sol\":12212:12232  stakings[msg.sender] */\n      0x00\n        /* \"TimeAlly.sol\":12221:12231  msg.sender */\n      caller\n        /* \"TimeAlly.sol\":12212:12232  stakings[msg.sender] */\n      0xffffffffffffffffffffffffffffffffffffffff\n      and\n      0xffffffffffffffffffffffffffffffffffffffff\n      and\n      dup2\n      mstore\n      0x20\n      add\n      swap1\n      dup2\n      mstore\n      0x20\n      add\n      0x00\n      keccak256\n        /* \"TimeAlly.sol\":12233:12234  i */\n      dup4\n        /* \"TimeAlly.sol\":12212:12235  stakings[msg.sender][i] */\n      dup2\n      sload\n      dup2\n      lt\n      tag_383\n      jumpi\n      invalid\n    tag_383:\n      swap1\n      0x00\n      mstore\n      keccak256(0x00, 0x20)\n      swap1\n      0x08\n      mul\n      add\n        /* \"TimeAlly.sol\":12212:12249  stakings[msg.sender][i].stakingPlanId */\n      0x02\n      add\n      sload\n        /* \"TimeAlly.sol\":12198:12251  stakingPlans[ stakings[msg.sender][i].stakingPlanId ] */\n      dup2\n      sload\n      dup2\n      lt\n      tag_385\n      jumpi\n      invalid\n    tag_385:\n      swap1\n      0x00\n      mstore\n      keccak256(0x00, 0x20)\n      swap1\n      0x02\n      mul\n      add\n        /* \"TimeAlly.sol\":12171:12251  StakingPlan memory _plan = stakingPlans[ stakings[msg.sender][i].stakingPlanId ] */\n      mload(0x40)\n      dup1\n      0x40\n      add\n      0x40\n      mstore\n      swap1\n      dup2\n      0x00\n      dup3\n      add\n      sload\n      dup2\n      mstore\n      0x20\n      add\n      0x01\n      dup3\n      add\n      sload\n      dup2\n      mstore\n      pop\n      pop\n      swap1\n      pop\n        /* \"TimeAlly.sol\":12338:12393  isStakingActive(msg.sender, i, _currentMonth, _atMonth) */\n      tag_387\n        /* \"TimeAlly.sol\":12354:12364  msg.sender */\n      caller\n        /* \"TimeAlly.sol\":12366:12367  i */\n      dup4\n        /* \"TimeAlly.sol\":12369:12382  _currentMonth */\n      dup8\n        /* \"TimeAlly.sol\":12384:12392  _atMonth */\n      dup11\n        /* \"TimeAlly.sol\":12338:12353  isStakingActive */\n      tag_98\n        /* \"TimeAlly.sol\":12338:12393  isStakingActive(msg.sender, i, _currentMonth, _atMonth) */\n      jump\t// in\n    tag_387:\n        /* \"TimeAlly.sol\":12338:12460  isStakingActive(msg.sender, i, _currentMonth, _atMonth)... */\n      dup1\n      iszero\n      tag_388\n      jumpi\n      pop\n        /* \"TimeAlly.sol\":12412:12420  stakings */\n      0x07\n        /* \"TimeAlly.sol\":12412:12432  stakings[msg.sender] */\n      0x00\n        /* \"TimeAlly.sol\":12421:12431  msg.sender */\n      caller\n        /* \"TimeAlly.sol\":12412:12432  stakings[msg.sender] */\n      0xffffffffffffffffffffffffffffffffffffffff\n      and\n      0xffffffffffffffffffffffffffffffffffffffff\n      and\n      dup2\n      mstore\n      0x20\n      add\n      swap1\n      dup2\n      mstore\n      0x20\n      add\n      0x00\n      keccak256\n        /* \"TimeAlly.sol\":12433:12434  i */\n      dup3\n        /* \"TimeAlly.sol\":12412:12435  stakings[msg.sender][i] */\n      dup2\n      sload\n      dup2\n      lt\n      tag_389\n      jumpi\n      invalid\n    tag_389:\n      swap1\n      0x00\n      mstore\n      keccak256(0x00, 0x20)\n      swap1\n      0x08\n      mul\n      add\n        /* \"TimeAlly.sol\":12412:12450  stakings[msg.sender][i].isMonthClaimed */\n      0x06\n      add\n        /* \"TimeAlly.sol\":12412:12460  stakings[msg.sender][i].isMonthClaimed[_atMonth] */\n      0x00\n        /* \"TimeAlly.sol\":12451:12459  _atMonth */\n      dup9\n        /* \"TimeAlly.sol\":12412:12460  stakings[msg.sender][i].isMonthClaimed[_atMonth] */\n      dup2\n      mstore\n      0x20\n      add\n      swap1\n      dup2\n      mstore\n      0x20\n      add\n      0x00\n      keccak256\n      0x00\n      swap1\n      sload\n      swap1\n      0x0100\n      exp\n      swap1\n      div\n      0xff\n      and\n        /* \"TimeAlly.sol\":12411:12460  !stakings[msg.sender][i].isMonthClaimed[_atMonth] */\n      iszero\n        /* \"TimeAlly.sol\":12338:12460  isStakingActive(msg.sender, i, _currentMonth, _atMonth)... */\n    tag_388:\n        /* \"TimeAlly.sol\":12335:12901  if(isStakingActive(msg.sender, i, _currentMonth, _atMonth)... */\n      iszero\n      tag_391\n      jumpi\n        /* \"TimeAlly.sol\":12575:12579  true */\n      0x01\n        /* \"TimeAlly.sol\":12524:12532  stakings */\n      0x07\n        /* \"TimeAlly.sol\":12524:12544  stakings[msg.sender] */\n      0x00\n        /* \"TimeAlly.sol\":12533:12543  msg.sender */\n      caller\n        /* \"TimeAlly.sol\":12524:12544  stakings[msg.sender] */\n      0xffffffffffffffffffffffffffffffffffffffff\n      and\n      0xffffffffffffffffffffffffffffffffffffffff\n      and\n      dup2\n      mstore\n      0x20\n      add\n      swap1\n      dup2\n      mstore\n      0x20\n      add\n      0x00\n      keccak256\n        /* \"TimeAlly.sol\":12545:12546  i */\n      dup4\n        /* \"TimeAlly.sol\":12524:12547  stakings[msg.sender][i] */\n      dup2\n      sload\n      dup2\n      lt\n      tag_392\n      jumpi\n      invalid\n    tag_392:\n      swap1\n      0x00\n      mstore\n      keccak256(0x00, 0x20)\n      swap1\n      0x08\n      mul\n      add\n        /* \"TimeAlly.sol\":12524:12562  stakings[msg.sender][i].isMonthClaimed */\n      0x06\n      add\n        /* \"TimeAlly.sol\":12524:12572  stakings[msg.sender][i].isMonthClaimed[_atMonth] */\n      0x00\n        /* \"TimeAlly.sol\":12563:12571  _atMonth */\n      dup10\n        /* \"TimeAlly.sol\":12524:12572  stakings[msg.sender][i].isMonthClaimed[_atMonth] */\n      dup2\n      mstore\n      0x20\n      add\n      swap1\n      dup2\n      mstore\n      0x20\n      add\n      0x00\n      keccak256\n      0x00\n        /* \"TimeAlly.sol\":12524:12579  stakings[msg.sender][i].isMonthClaimed[_atMonth] = true */\n      0x0100\n      exp\n      dup2\n      sload\n      dup2\n      0xff\n      mul\n      not\n      and\n      swap1\n      dup4\n      iszero\n      iszero\n      mul\n      or\n      swap1\n      sstore\n      pop\n        /* \"TimeAlly.sol\":12597:12621  uint256 _effectiveAmount */\n      0x00\n        /* \"TimeAlly.sol\":12624:12693  stakings[msg.sender][i].exaEsAmount.mul(_plan.fractionFrom15).div(15) */\n      tag_394\n        /* \"TimeAlly.sol\":12690:12692  15 */\n      0x0f\n        /* \"TimeAlly.sol\":12624:12685  stakings[msg.sender][i].exaEsAmount.mul(_plan.fractionFrom15) */\n      tag_395\n        /* \"TimeAlly.sol\":12664:12669  _plan */\n      dup5\n        /* \"TimeAlly.sol\":12664:12684  _plan.fractionFrom15 */\n      0x20\n      add\n      mload\n        /* \"TimeAlly.sol\":12624:12632  stakings */\n      0x07\n        /* \"TimeAlly.sol\":12624:12644  stakings[msg.sender] */\n      0x00\n        /* \"TimeAlly.sol\":12633:12643  msg.sender */\n      caller\n        /* \"TimeAlly.sol\":12624:12644  stakings[msg.sender] */\n      0xffffffffffffffffffffffffffffffffffffffff\n      and\n      0xffffffffffffffffffffffffffffffffffffffff\n      and\n      dup2\n      mstore\n      0x20\n      add\n      swap1\n      dup2\n      mstore\n      0x20\n      add\n      0x00\n      keccak256\n        /* \"TimeAlly.sol\":12645:12646  i */\n      dup8\n        /* \"TimeAlly.sol\":12624:12647  stakings[msg.sender][i] */\n      dup2\n      sload\n      dup2\n      lt\n      tag_396\n      jumpi\n      invalid\n    tag_396:\n      swap1\n      0x00\n      mstore\n      keccak256(0x00, 0x20)\n      swap1\n      0x08\n      mul\n      add\n        /* \"TimeAlly.sol\":12624:12659  stakings[msg.sender][i].exaEsAmount */\n      0x00\n      add\n      sload\n        /* \"TimeAlly.sol\":12624:12663  stakings[msg.sender][i].exaEsAmount.mul */\n      tag_212\n      swap1\n        /* \"TimeAlly.sol\":12624:12685  stakings[msg.sender][i].exaEsAmount.mul(_plan.fractionFrom15) */\n      swap2\n      swap1\n      0xffffffff\n      and\n      jump\t// in\n    tag_395:\n        /* \"TimeAlly.sol\":12624:12689  stakings[msg.sender][i].exaEsAmount.mul(_plan.fractionFrom15).div */\n      tag_213\n      swap1\n        /* \"TimeAlly.sol\":12624:12693  stakings[msg.sender][i].exaEsAmount.mul(_plan.fractionFrom15).div(15) */\n      swap2\n      swap1\n      0xffffffff\n      and\n      jump\t// in\n    tag_394:\n        /* \"TimeAlly.sol\":12597:12693  uint256 _effectiveAmount = stakings[msg.sender][i].exaEsAmount.mul(_plan.fractionFrom15).div(15) */\n      swap1\n      pop\n        /* \"TimeAlly.sol\":12738:12783  _totalEffectiveStakings.add(_effectiveAmount) */\n      tag_398\n        /* \"TimeAlly.sol\":12766:12782  _effectiveAmount */\n      dup2\n        /* \"TimeAlly.sol\":12738:12761  _totalEffectiveStakings */\n      dup7\n        /* \"TimeAlly.sol\":12738:12765  _totalEffectiveStakings.add */\n      tag_163\n      swap1\n        /* \"TimeAlly.sol\":12738:12783  _totalEffectiveStakings.add(_effectiveAmount) */\n      swap2\n      swap1\n      0xffffffff\n      and\n      jump\t// in\n    tag_398:\n        /* \"TimeAlly.sol\":12712:12783  _totalEffectiveStakings = _totalEffectiveStakings.add(_effectiveAmount) */\n      swap5\n      pop\n        /* \"TimeAlly.sol\":12814:12886  _luckPool.add(stakings[msg.sender][i].exaEsAmount.sub(_effectiveAmount)) */\n      tag_399\n        /* \"TimeAlly.sol\":12828:12885  stakings[msg.sender][i].exaEsAmount.sub(_effectiveAmount) */\n      tag_400\n        /* \"TimeAlly.sol\":12868:12884  _effectiveAmount */\n      dup3\n        /* \"TimeAlly.sol\":12828:12836  stakings */\n      0x07\n        /* \"TimeAlly.sol\":12828:12848  stakings[msg.sender] */\n      0x00\n        /* \"TimeAlly.sol\":12837:12847  msg.sender */\n      caller\n        /* \"TimeAlly.sol\":12828:12848  stakings[msg.sender] */\n      0xffffffffffffffffffffffffffffffffffffffff\n      and\n      0xffffffffffffffffffffffffffffffffffffffff\n      and\n      dup2\n      mstore\n      0x20\n      add\n      swap1\n      dup2\n      mstore\n      0x20\n      add\n      0x00\n      keccak256\n        /* \"TimeAlly.sol\":12849:12850  i */\n      dup7\n        /* \"TimeAlly.sol\":12828:12851  stakings[msg.sender][i] */\n      dup2\n      sload\n      dup2\n      lt\n      tag_401\n      jumpi\n      invalid\n    tag_401:\n      swap1\n      0x00\n      mstore\n      keccak256(0x00, 0x20)\n      swap1\n      0x08\n      mul\n      add\n        /* \"TimeAlly.sol\":12828:12863  stakings[msg.sender][i].exaEsAmount */\n      0x00\n      add\n      sload\n        /* \"TimeAlly.sol\":12828:12867  stakings[msg.sender][i].exaEsAmount.sub */\n      tag_159\n      swap1\n        /* \"TimeAlly.sol\":12828:12885  stakings[msg.sender][i].exaEsAmount.sub(_effectiveAmount) */\n      swap2\n      swap1\n      0xffffffff\n      and\n      jump\t// in\n    tag_400:\n        /* \"TimeAlly.sol\":12814:12823  _luckPool */\n      dup6\n        /* \"TimeAlly.sol\":12814:12827  _luckPool.add */\n      tag_163\n      swap1\n        /* \"TimeAlly.sol\":12814:12886  _luckPool.add(stakings[msg.sender][i].exaEsAmount.sub(_effectiveAmount)) */\n      swap2\n      swap1\n      0xffffffff\n      and\n      jump\t// in\n    tag_399:\n        /* \"TimeAlly.sol\":12802:12886  _luckPool = _luckPool.add(stakings[msg.sender][i].exaEsAmount.sub(_effectiveAmount)) */\n      swap4\n      pop\n        /* \"TimeAlly.sol\":12335:12901  if(isStakingActive(msg.sender, i, _currentMonth, _atMonth)... */\n      pop\n    tag_391:\n        /* \"TimeAlly.sol\":12100:12911  for(uint256 i = 0; i < stakings[msg.sender].length; i++) {... */\n      pop\n        /* \"TimeAlly.sol\":12152:12155  i++ */\n      dup1\n      dup1\n      0x01\n      add\n      swap2\n      pop\n      pop\n        /* \"TimeAlly.sol\":12100:12911  for(uint256 i = 0; i < stakings[msg.sender].length; i++) {... */\n      jump(tag_379)\n    tag_380:\n      pop\n        /* \"TimeAlly.sol\":12921:12937  uint256 _benefit */\n      0x00\n        /* \"TimeAlly.sol\":12940:13108  _totalEffectiveStakings... */\n      tag_403\n        /* \"TimeAlly.sol\":13073:13092  totalActiveStakings */\n      0x0a\n        /* \"TimeAlly.sol\":13073:13107  totalActiveStakings[_currentMonth] */\n      0x00\n        /* \"TimeAlly.sol\":13093:13106  _currentMonth */\n      dup7\n        /* \"TimeAlly.sol\":13073:13107  totalActiveStakings[_currentMonth] */\n      dup2\n      mstore\n      0x20\n      add\n      swap1\n      dup2\n      mstore\n      0x20\n      add\n      0x00\n      keccak256\n      sload\n        /* \"TimeAlly.sol\":12940:13035  _totalEffectiveStakings... */\n      tag_404\n        /* \"TimeAlly.sol\":13001:13019  timeAllyMonthlyNRT */\n      0x0b\n        /* \"TimeAlly.sol\":13020:13033  _currentMonth */\n      dup8\n        /* \"TimeAlly.sol\":13001:13034  timeAllyMonthlyNRT[_currentMonth] */\n      dup2\n      sload\n      dup2\n      lt\n      tag_405\n      jumpi\n      invalid\n    tag_405:\n      swap1\n      0x00\n      mstore\n      keccak256(0x00, 0x20)\n      add\n      sload\n        /* \"TimeAlly.sol\":12940:12963  _totalEffectiveStakings */\n      dup7\n        /* \"TimeAlly.sol\":12940:13000  _totalEffectiveStakings... */\n      tag_212\n      swap1\n        /* \"TimeAlly.sol\":12940:13035  _totalEffectiveStakings... */\n      swap2\n      swap1\n      0xffffffff\n      and\n      jump\t// in\n    tag_404:\n        /* \"TimeAlly.sol\":12940:13072  _totalEffectiveStakings... */\n      tag_213\n      swap1\n        /* \"TimeAlly.sol\":12940:13108  _totalEffectiveStakings... */\n      swap2\n      swap1\n      0xffffffff\n      and\n      jump\t// in\n    tag_403:\n        /* \"TimeAlly.sol\":12921:13108  uint256 _benefit = _totalEffectiveStakings... */\n      swap1\n      pop\n        /* \"TimeAlly.sol\":13194:13217  uint256 _accruedBenefit */\n      0x00\n        /* \"TimeAlly.sol\":13220:13294  _benefit... */\n      tag_407\n        /* \"TimeAlly.sol\":13290:13293  100 */\n      0x64\n        /* \"TimeAlly.sol\":13220:13285  _benefit... */\n      tag_408\n        /* \"TimeAlly.sol\":13266:13284  _accruedPercentage */\n      dup9\n        /* \"TimeAlly.sol\":13220:13228  _benefit */\n      dup6\n        /* \"TimeAlly.sol\":13220:13265  _benefit... */\n      tag_212\n      swap1\n        /* \"TimeAlly.sol\":13220:13285  _benefit... */\n      swap2\n      swap1\n      0xffffffff\n      and\n      jump\t// in\n    tag_408:\n        /* \"TimeAlly.sol\":13220:13289  _benefit... */\n      tag_213\n      swap1\n        /* \"TimeAlly.sol\":13220:13294  _benefit... */\n      swap2\n      swap1\n      0xffffffff\n      and\n      jump\t// in\n    tag_407:\n        /* \"TimeAlly.sol\":13194:13294  uint256 _accruedBenefit = _benefit... */\n      swap1\n      pop\n        /* \"TimeAlly.sol\":13305:13327  uint256 _liquidBenefit */\n      0x00\n        /* \"TimeAlly.sol\":13330:13359  _benefit.sub(_accruedBenefit) */\n      tag_409\n        /* \"TimeAlly.sol\":13343:13358  _accruedBenefit */\n      dup3\n        /* \"TimeAlly.sol\":13330:13338  _benefit */\n      dup5\n        /* \"TimeAlly.sol\":13330:13342  _benefit.sub */\n      tag_159\n      swap1\n        /* \"TimeAlly.sol\":13330:13359  _benefit.sub(_accruedBenefit) */\n      swap2\n      swap1\n      0xffffffff\n      and\n      jump\t// in\n    tag_409:\n        /* \"TimeAlly.sol\":13305:13359  uint256 _liquidBenefit = _benefit.sub(_accruedBenefit) */\n      swap1\n      pop\n        /* \"TimeAlly.sol\":13521:13522  0 */\n      0x00\n        /* \"TimeAlly.sol\":13504:13518  _liquidBenefit */\n      dup2\n        /* \"TimeAlly.sol\":13504:13522  _liquidBenefit > 0 */\n      gt\n        /* \"TimeAlly.sol\":13501:13591  if(_liquidBenefit > 0) {... */\n      iszero\n      tag_410\n      jumpi\n        /* \"TimeAlly.sol\":13538:13543  token */\n      0x02\n      0x00\n      swap1\n      sload\n      swap1\n      0x0100\n      exp\n      swap1\n      div\n      0xffffffffffffffffffffffffffffffffffffffff\n      and\n        /* \"TimeAlly.sol\":13538:13552  token.transfer */\n      0xffffffffffffffffffffffffffffffffffffffff\n      and\n      0xa9059cbb\n        /* \"TimeAlly.sol\":13553:13563  msg.sender */\n      caller\n        /* \"TimeAlly.sol\":13565:13579  _liquidBenefit */\n      dup4\n        /* \"TimeAlly.sol\":13538:13580  token.transfer(msg.sender, _liquidBenefit) */\n      mload(0x40)\n      dup4\n      0xffffffff\n      and\n      0xe0\n      shl\n      dup2\n      mstore\n      0x04\n      add\n      dup1\n      dup4\n      0xffffffffffffffffffffffffffffffffffffffff\n      and\n      0xffffffffffffffffffffffffffffffffffffffff\n      and\n      dup2\n      mstore\n      0x20\n      add\n      dup3\n      dup2\n      mstore\n      0x20\n      add\n      swap3\n      pop\n      pop\n      pop\n      0x20\n      mload(0x40)\n      dup1\n      dup4\n      sub\n      dup2\n      0x00\n      dup8\n      dup1\n      extcodesize\n      iszero\n        /* \"--CODEGEN--\":8:17   */\n      dup1\n        /* \"--CODEGEN--\":5:7   */\n      iszero\n      tag_411\n      jumpi\n        /* \"--CODEGEN--\":30:31   */\n      0x00\n        /* \"--CODEGEN--\":27:28   */\n      dup1\n        /* \"--CODEGEN--\":20:32   */\n      revert\n        /* \"--CODEGEN--\":5:7   */\n    tag_411:\n        /* \"TimeAlly.sol\":13538:13580  token.transfer(msg.sender, _liquidBenefit) */\n      pop\n      gas\n      call\n      iszero\n        /* \"--CODEGEN--\":8:17   */\n      dup1\n        /* \"--CODEGEN--\":5:7   */\n      iszero\n      tag_412\n      jumpi\n        /* \"--CODEGEN--\":45:61   */\n      returndatasize\n        /* \"--CODEGEN--\":42:43   */\n      0x00\n        /* \"--CODEGEN--\":39:40   */\n      dup1\n        /* \"--CODEGEN--\":24:62   */\n      returndatacopy\n        /* \"--CODEGEN--\":77:93   */\n      returndatasize\n        /* \"--CODEGEN--\":74:75   */\n      0x00\n        /* \"--CODEGEN--\":67:94   */\n      revert\n        /* \"--CODEGEN--\":5:7   */\n    tag_412:\n        /* \"TimeAlly.sol\":13538:13580  token.transfer(msg.sender, _liquidBenefit) */\n      pop\n      pop\n      pop\n      pop\n      mload(0x40)\n      returndatasize\n        /* \"--CODEGEN--\":13:15   */\n      0x20\n        /* \"--CODEGEN--\":8:11   */\n      dup2\n        /* \"--CODEGEN--\":5:16   */\n      lt\n        /* \"--CODEGEN--\":2:4   */\n      iszero\n      tag_413\n      jumpi\n        /* \"--CODEGEN--\":29:30   */\n      0x00\n        /* \"--CODEGEN--\":26:27   */\n      dup1\n        /* \"--CODEGEN--\":19:31   */\n      revert\n        /* \"--CODEGEN--\":2:4   */\n    tag_413:\n        /* \"TimeAlly.sol\":13538:13580  token.transfer(msg.sender, _liquidBenefit) */\n      dup2\n      add\n      swap1\n      dup1\n      dup1\n      mload\n      swap1\n      0x20\n      add\n      swap1\n      swap3\n      swap2\n      swap1\n      pop\n      pop\n      pop\n      pop\n        /* \"TimeAlly.sol\":13501:13591  if(_liquidBenefit > 0) {... */\n    tag_410:\n        /* \"TimeAlly.sol\":13752:13797  launchReward[msg.sender].add(_accruedBenefit) */\n      tag_414\n        /* \"TimeAlly.sol\":13781:13796  _accruedBenefit */\n      dup3\n        /* \"TimeAlly.sol\":13752:13764  launchReward */\n      0x09\n        /* \"TimeAlly.sol\":13752:13776  launchReward[msg.sender] */\n      0x00\n        /* \"TimeAlly.sol\":13765:13775  msg.sender */\n      caller\n        /* \"TimeAlly.sol\":13752:13776  launchReward[msg.sender] */\n      0xffffffffffffffffffffffffffffffffffffffff\n      and\n      0xffffffffffffffffffffffffffffffffffffffff\n      and\n      dup2\n      mstore\n      0x20\n      add\n      swap1\n      dup2\n      mstore\n      0x20\n      add\n      0x00\n      keccak256\n      sload\n        /* \"TimeAlly.sol\":13752:13780  launchReward[msg.sender].add */\n      tag_163\n      swap1\n        /* \"TimeAlly.sol\":13752:13797  launchReward[msg.sender].add(_accruedBenefit) */\n      swap2\n      swap1\n      0xffffffff\n      and\n      jump\t// in\n    tag_414:\n        /* \"TimeAlly.sol\":13725:13737  launchReward */\n      0x09\n        /* \"TimeAlly.sol\":13725:13749  launchReward[msg.sender] */\n      0x00\n        /* \"TimeAlly.sol\":13738:13748  msg.sender */\n      caller\n        /* \"TimeAlly.sol\":13725:13749  launchReward[msg.sender] */\n      0xffffffffffffffffffffffffffffffffffffffff\n      and\n      0xffffffffffffffffffffffffffffffffffffffff\n      and\n      dup2\n      mstore\n      0x20\n      add\n      swap1\n      dup2\n      mstore\n      0x20\n      add\n      0x00\n      keccak256\n        /* \"TimeAlly.sol\":13725:13797  launchReward[msg.sender] = launchReward[msg.sender].add(_accruedBenefit) */\n      dup2\n      swap1\n      sstore\n      pop\n        /* \"TimeAlly.sol\":11575:13804  function withdrawShareForUserByMonth(uint256 _atMonth, uint256 _accruedPercentage) public {... */\n      pop\n      pop\n      pop\n      pop\n      pop\n      pop\n      pop\n      pop\n      jump\t// out\n        /* \"TimeAlly.sol\":17581:18607  function seeMaxLoaningAmountOnUserStakings(address _userAddress, uint256[] memory _stakingIds) public view returns (uint256) {... */\n    tag_113:\n        /* \"TimeAlly.sol\":17697:17704  uint256 */\n      0x00\n        /* \"TimeAlly.sol\":17716:17737  uint256 _currentMonth */\n      dup1\n        /* \"TimeAlly.sol\":17740:17757  getCurrentMonth() */\n      tag_416\n        /* \"TimeAlly.sol\":17740:17755  getCurrentMonth */\n      tag_130\n        /* \"TimeAlly.sol\":17740:17757  getCurrentMonth() */\n      jump\t// in\n    tag_416:\n        /* \"TimeAlly.sol\":17716:17757  uint256 _currentMonth = getCurrentMonth() */\n      swap1\n      pop\n        /* \"TimeAlly.sol\":17844:17875  uint256 userStakingsExaEsAmount */\n      0x00\n        /* \"TimeAlly.sol\":17890:17899  uint256 i */\n      dup1\n        /* \"TimeAlly.sol\":17902:17903  0 */\n      0x00\n        /* \"TimeAlly.sol\":17890:17903  uint256 i = 0 */\n      swap1\n      pop\n        /* \"TimeAlly.sol\":17886:18471  for(uint256 i = 0; i < _stakingIds.length; i++) {... */\n    tag_417:\n        /* \"TimeAlly.sol\":17909:17920  _stakingIds */\n      dup5\n        /* \"TimeAlly.sol\":17909:17927  _stakingIds.length */\n      mload\n        /* \"TimeAlly.sol\":17905:17906  i */\n      dup2\n        /* \"TimeAlly.sol\":17905:17927  i < _stakingIds.length */\n      lt\n        /* \"TimeAlly.sol\":17886:18471  for(uint256 i = 0; i < _stakingIds.length; i++) {... */\n      iszero\n      tag_418\n      jumpi\n        /* \"TimeAlly.sol\":17952:18027  isStakingActive(_userAddress, _stakingIds[i], _currentMonth, _currentMonth) */\n      tag_420\n        /* \"TimeAlly.sol\":17968:17980  _userAddress */\n      dup7\n        /* \"TimeAlly.sol\":17982:17993  _stakingIds */\n      dup7\n        /* \"TimeAlly.sol\":17994:17995  i */\n      dup4\n        /* \"TimeAlly.sol\":17982:17996  _stakingIds[i] */\n      dup2\n      mload\n      dup2\n      lt\n      tag_421\n      jumpi\n      invalid\n    tag_421:\n      0x20\n      mul\n      0x20\n      add\n      add\n      mload\n        /* \"TimeAlly.sol\":17998:18011  _currentMonth */\n      dup6\n        /* \"TimeAlly.sol\":18013:18026  _currentMonth */\n      dup7\n        /* \"TimeAlly.sol\":17952:17967  isStakingActive */\n      tag_98\n        /* \"TimeAlly.sol\":17952:18027  isStakingActive(_userAddress, _stakingIds[i], _currentMonth, _currentMonth) */\n      jump\t// in\n    tag_420:\n        /* \"TimeAlly.sol\":17949:18461  if(isStakingActive(_userAddress, _stakingIds[i], _currentMonth, _currentMonth)... */\n      iszero\n      tag_422\n      jumpi\n        /* \"TimeAlly.sol\":18176:18446  userStakingsExaEsAmount... */\n      tag_423\n        /* \"TimeAlly.sol\":18225:18233  stakings */\n      0x07\n        /* \"TimeAlly.sol\":18225:18247  stakings[_userAddress] */\n      0x00\n        /* \"TimeAlly.sol\":18234:18246  _userAddress */\n      dup9\n        /* \"TimeAlly.sol\":18225:18247  stakings[_userAddress] */\n      0xffffffffffffffffffffffffffffffffffffffff\n      and\n      0xffffffffffffffffffffffffffffffffffffffff\n      and\n      dup2\n      mstore\n      0x20\n      add\n      swap1\n      dup2\n      mstore\n      0x20\n      add\n      0x00\n      keccak256\n        /* \"TimeAlly.sol\":18248:18259  _stakingIds */\n      dup7\n        /* \"TimeAlly.sol\":18260:18261  i */\n      dup4\n        /* \"TimeAlly.sol\":18248:18262  _stakingIds[i] */\n      dup2\n      mload\n      dup2\n      lt\n      tag_424\n      jumpi\n      invalid\n    tag_424:\n      0x20\n      mul\n      0x20\n      add\n      add\n      mload\n        /* \"TimeAlly.sol\":18225:18263  stakings[_userAddress][_stakingIds[i]] */\n      dup2\n      sload\n      dup2\n      lt\n      tag_425\n      jumpi\n      invalid\n    tag_425:\n      swap1\n      0x00\n      mstore\n      keccak256(0x00, 0x20)\n      swap1\n      0x08\n      mul\n      add\n        /* \"TimeAlly.sol\":18225:18275  stakings[_userAddress][_stakingIds[i]].exaEsAmount */\n      0x00\n      add\n      sload\n        /* \"TimeAlly.sol\":18176:18199  userStakingsExaEsAmount */\n      dup4\n        /* \"TimeAlly.sol\":18176:18224  userStakingsExaEsAmount... */\n      tag_163\n      swap1\n        /* \"TimeAlly.sol\":18176:18446  userStakingsExaEsAmount... */\n      swap2\n      swap1\n      0xffffffff\n      and\n      jump\t// in\n    tag_423:\n        /* \"TimeAlly.sol\":18150:18446  userStakingsExaEsAmount = userStakingsExaEsAmount... */\n      swap2\n      pop\n        /* \"TimeAlly.sol\":17949:18461  if(isStakingActive(_userAddress, _stakingIds[i], _currentMonth, _currentMonth)... */\n    tag_422:\n        /* \"TimeAlly.sol\":17929:17932  i++ */\n      dup1\n      dup1\n      0x01\n      add\n      swap2\n      pop\n      pop\n        /* \"TimeAlly.sol\":17886:18471  for(uint256 i = 0; i < _stakingIds.length; i++) {... */\n      jump(tag_417)\n    tag_418:\n      pop\n        /* \"TimeAlly.sol\":18488:18518  userStakingsExaEsAmount.div(2) */\n      tag_427\n        /* \"TimeAlly.sol\":18516:18517  2 */\n      0x02\n        /* \"TimeAlly.sol\":18488:18511  userStakingsExaEsAmount */\n      dup3\n        /* \"TimeAlly.sol\":18488:18515  userStakingsExaEsAmount.div */\n      tag_213\n      swap1\n        /* \"TimeAlly.sol\":18488:18518  userStakingsExaEsAmount.div(2) */\n      swap2\n      swap1\n      0xffffffff\n      and\n      jump\t// in\n    tag_427:\n        /* \"TimeAlly.sol\":18481:18518  return userStakingsExaEsAmount.div(2) */\n      swap3\n      pop\n      pop\n      pop\n        /* \"TimeAlly.sol\":17581:18607  function seeMaxLoaningAmountOnUserStakings(address _userAddress, uint256[] memory _stakingIds) public view returns (uint256) {... */\n      swap3\n      swap2\n      pop\n      pop\n      jump\t// out\n        /* \"TimeAlly.sol\":4165:4384  function createStakingPlan(uint256 _months, uint256 _fractionFrom15) public onlyOwner {... */\n    tag_116:\n        /* \"TimeAlly.sol\":3134:3139  owner */\n      0x01\n      0x00\n      swap1\n      sload\n      swap1\n      0x0100\n      exp\n      swap1\n      div\n      0xffffffffffffffffffffffffffffffffffffffff\n      and\n        /* \"TimeAlly.sol\":3120:3139  msg.sender == owner */\n      0xffffffffffffffffffffffffffffffffffffffff\n      and\n        /* \"TimeAlly.sol\":3120:3130  msg.sender */\n      caller\n        /* \"TimeAlly.sol\":3120:3139  msg.sender == owner */\n      0xffffffffffffffffffffffffffffffffffffffff\n      and\n      eq\n        /* \"TimeAlly.sol\":3112:3166  require(msg.sender == owner, 'only deployer can call') */\n      tag_429\n      jumpi\n      mload(0x40)\n      0x08c379a000000000000000000000000000000000000000000000000000000000\n      dup2\n      mstore\n      0x04\n      add\n      dup1\n      dup1\n      0x20\n      add\n      dup3\n      dup2\n      sub\n      dup3\n      mstore\n      0x16\n      dup2\n      mstore\n      0x20\n      add\n      dup1\n      0x6f6e6c79206465706c6f7965722063616e2063616c6c00000000000000000000\n      dup2\n      mstore\n      pop\n      0x20\n      add\n      swap2\n      pop\n      pop\n      mload(0x40)\n      dup1\n      swap2\n      sub\n      swap1\n      revert\n    tag_429:\n        /* \"TimeAlly.sol\":4261:4273  stakingPlans */\n      0x05\n        /* \"TimeAlly.sol\":4279:4376  StakingPlan({... */\n      mload(0x40)\n      dup1\n      0x40\n      add\n      0x40\n      mstore\n      dup1\n        /* \"TimeAlly.sol\":4313:4320  _months */\n      dup5\n        /* \"TimeAlly.sol\":4279:4376  StakingPlan({... */\n      dup2\n      mstore\n      0x20\n      add\n        /* \"TimeAlly.sol\":4350:4365  _fractionFrom15 */\n      dup4\n        /* \"TimeAlly.sol\":4279:4376  StakingPlan({... */\n      dup2\n      mstore\n      pop\n        /* \"TimeAlly.sol\":4261:4377  stakingPlans.push(StakingPlan({... */\n      swap1\n      dup1\n        /* \"--CODEGEN--\":39:40   */\n      0x01\n        /* \"--CODEGEN--\":33:36   */\n      dup2\n        /* \"--CODEGEN--\":27:37   */\n      sload\n        /* \"--CODEGEN--\":23:41   */\n      add\n        /* \"--CODEGEN--\":57:67   */\n      dup1\n        /* \"--CODEGEN--\":52:55   */\n      dup3\n        /* \"--CODEGEN--\":45:68   */\n      sstore\n        /* \"--CODEGEN--\":79:89   */\n      dup1\n        /* \"--CODEGEN--\":72:89   */\n      swap2\n      pop\n        /* \"--CODEGEN--\":0:93   */\n      pop\n        /* \"TimeAlly.sol\":4261:4377  stakingPlans.push(StakingPlan({... */\n      swap1\n      0x01\n      dup3\n      sub\n      swap1\n      0x00\n      mstore\n      keccak256(0x00, 0x20)\n      swap1\n      0x02\n      mul\n      add\n      0x00\n      swap1\n      swap2\n      swap3\n      swap1\n      swap2\n      swap1\n      swap2\n      pop\n      0x00\n      dup3\n      add\n      mload\n      dup2\n      0x00\n      add\n      sstore\n      0x20\n      dup3\n      add\n      mload\n      dup2\n      0x01\n      add\n      sstore\n      pop\n      pop\n      pop\n        /* \"TimeAlly.sol\":4165:4384  function createStakingPlan(uint256 _months, uint256 _fractionFrom15) public onlyOwner {... */\n      pop\n      pop\n      jump\t// out\n        /* \"TimeAlly.sol\":1463:1490  LoanPlan[] public loanPlans */\n    tag_119:\n      0x06\n      dup2\n      dup2\n      sload\n      dup2\n      lt\n      tag_432\n      jumpi\n      invalid\n    tag_432:\n      swap1\n      0x00\n      mstore\n      keccak256(0x00, 0x20)\n      swap1\n      0x02\n      mul\n      add\n      0x00\n      swap2\n      pop\n      swap1\n      pop\n      dup1\n      0x00\n      add\n      sload\n      swap1\n      dup1\n      0x01\n      add\n      sload\n      swap1\n      pop\n      dup3\n      jump\t// out\n        /* \"TimeAlly.sol\":18613:21940  function takeLoanOnSelfStaking(uint256 _loanPlanId, uint256 _exaEsAmount, uint256[] memory _stakingIds) public {... */\n    tag_125:\n        /* \"TimeAlly.sol\":18957:18978  uint256 _currentMonth */\n      0x00\n        /* \"TimeAlly.sol\":18981:18998  getCurrentMonth() */\n      tag_435\n        /* \"TimeAlly.sol\":18981:18996  getCurrentMonth */\n      tag_130\n        /* \"TimeAlly.sol\":18981:18998  getCurrentMonth() */\n      jump\t// in\n    tag_435:\n        /* \"TimeAlly.sol\":18957:18998  uint256 _currentMonth = getCurrentMonth() */\n      swap1\n      pop\n        /* \"TimeAlly.sol\":19008:19040  uint256 _userStakingsExaEsAmount */\n      0x00\n        /* \"TimeAlly.sol\":19055:19064  uint256 i */\n      dup1\n        /* \"TimeAlly.sol\":19067:19068  0 */\n      0x00\n        /* \"TimeAlly.sol\":19055:19068  uint256 i = 0 */\n      swap1\n      pop\n        /* \"TimeAlly.sol\":19051:20450  for(uint256 i = 0; i < _stakingIds.length; i++) {... */\n    tag_436:\n        /* \"TimeAlly.sol\":19074:19085  _stakingIds */\n      dup4\n        /* \"TimeAlly.sol\":19074:19092  _stakingIds.length */\n      mload\n        /* \"TimeAlly.sol\":19070:19071  i */\n      dup2\n        /* \"TimeAlly.sol\":19070:19092  i < _stakingIds.length */\n      lt\n        /* \"TimeAlly.sol\":19051:20450  for(uint256 i = 0; i < _stakingIds.length; i++) {... */\n      iszero\n      tag_437\n      jumpi\n        /* \"TimeAlly.sol\":19118:19191  isStakingActive(msg.sender, _stakingIds[i], _currentMonth, _currentMonth) */\n      tag_439\n        /* \"TimeAlly.sol\":19134:19144  msg.sender */\n      caller\n        /* \"TimeAlly.sol\":19146:19157  _stakingIds */\n      dup6\n        /* \"TimeAlly.sol\":19158:19159  i */\n      dup4\n        /* \"TimeAlly.sol\":19146:19160  _stakingIds[i] */\n      dup2\n      mload\n      dup2\n      lt\n      tag_440\n      jumpi\n      invalid\n    tag_440:\n      0x20\n      mul\n      0x20\n      add\n      add\n      mload\n        /* \"TimeAlly.sol\":19162:19175  _currentMonth */\n      dup6\n        /* \"TimeAlly.sol\":19177:19190  _currentMonth */\n      dup7\n        /* \"TimeAlly.sol\":19118:19133  isStakingActive */\n      tag_98\n        /* \"TimeAlly.sol\":19118:19191  isStakingActive(msg.sender, _stakingIds[i], _currentMonth, _currentMonth) */\n      jump\t// in\n    tag_439:\n        /* \"TimeAlly.sol\":19114:20440  if( isStakingActive(msg.sender, _stakingIds[i], _currentMonth, _currentMonth) ) {... */\n      iszero\n      tag_441\n      jumpi\n        /* \"TimeAlly.sol\":19281:19571  _userStakingsExaEsAmount... */\n      tag_442\n        /* \"TimeAlly.sol\":19356:19553  stakings[msg.sender][ _stakingIds[i] ].exaEsAmount... */\n      tag_443\n        /* \"TimeAlly.sol\":19550:19552  15 */\n      0x0f\n        /* \"TimeAlly.sol\":19356:19520  stakings[msg.sender][ _stakingIds[i] ].exaEsAmount... */\n      tag_444\n        /* \"TimeAlly.sol\":19437:19449  stakingPlans */\n      0x05\n        /* \"TimeAlly.sol\":19451:19459  stakings */\n      0x07\n        /* \"TimeAlly.sol\":19451:19471  stakings[msg.sender] */\n      0x00\n        /* \"TimeAlly.sol\":19460:19470  msg.sender */\n      caller\n        /* \"TimeAlly.sol\":19451:19471  stakings[msg.sender] */\n      0xffffffffffffffffffffffffffffffffffffffff\n      and\n      0xffffffffffffffffffffffffffffffffffffffff\n      and\n      dup2\n      mstore\n      0x20\n      add\n      swap1\n      dup2\n      mstore\n      0x20\n      add\n      0x00\n      keccak256\n        /* \"TimeAlly.sol\":19472:19483  _stakingIds */\n      dup10\n        /* \"TimeAlly.sol\":19484:19485  i */\n      dup8\n        /* \"TimeAlly.sol\":19472:19486  _stakingIds[i] */\n      dup2\n      mload\n      dup2\n      lt\n      tag_445\n      jumpi\n      invalid\n    tag_445:\n      0x20\n      mul\n      0x20\n      add\n      add\n      mload\n        /* \"TimeAlly.sol\":19451:19487  stakings[msg.sender][_stakingIds[i]] */\n      dup2\n      sload\n      dup2\n      lt\n      tag_446\n      jumpi\n      invalid\n    tag_446:\n      swap1\n      0x00\n      mstore\n      keccak256(0x00, 0x20)\n      swap1\n      0x08\n      mul\n      add\n        /* \"TimeAlly.sol\":19451:19501  stakings[msg.sender][_stakingIds[i]].stakingPlanId */\n      0x02\n      add\n      sload\n        /* \"TimeAlly.sol\":19437:19503  stakingPlans[ stakings[msg.sender][_stakingIds[i]].stakingPlanId ] */\n      dup2\n      sload\n      dup2\n      lt\n      tag_448\n      jumpi\n      invalid\n    tag_448:\n      swap1\n      0x00\n      mstore\n      keccak256(0x00, 0x20)\n      swap1\n      0x02\n      mul\n      add\n        /* \"TimeAlly.sol\":19437:19518  stakingPlans[ stakings[msg.sender][_stakingIds[i]].stakingPlanId ].fractionFrom15 */\n      0x01\n      add\n      sload\n        /* \"TimeAlly.sol\":19356:19364  stakings */\n      0x07\n        /* \"TimeAlly.sol\":19356:19376  stakings[msg.sender] */\n      0x00\n        /* \"TimeAlly.sol\":19365:19375  msg.sender */\n      caller\n        /* \"TimeAlly.sol\":19356:19376  stakings[msg.sender] */\n      0xffffffffffffffffffffffffffffffffffffffff\n      and\n      0xffffffffffffffffffffffffffffffffffffffff\n      and\n      dup2\n      mstore\n      0x20\n      add\n      swap1\n      dup2\n      mstore\n      0x20\n      add\n      0x00\n      keccak256\n        /* \"TimeAlly.sol\":19378:19389  _stakingIds */\n      dup10\n        /* \"TimeAlly.sol\":19390:19391  i */\n      dup8\n        /* \"TimeAlly.sol\":19378:19392  _stakingIds[i] */\n      dup2\n      mload\n      dup2\n      lt\n      tag_450\n      jumpi\n      invalid\n    tag_450:\n      0x20\n      mul\n      0x20\n      add\n      add\n      mload\n        /* \"TimeAlly.sol\":19356:19394  stakings[msg.sender][ _stakingIds[i] ] */\n      dup2\n      sload\n      dup2\n      lt\n      tag_451\n      jumpi\n      invalid\n    tag_451:\n      swap1\n      0x00\n      mstore\n      keccak256(0x00, 0x20)\n      swap1\n      0x08\n      mul\n      add\n        /* \"TimeAlly.sol\":19356:19406  stakings[msg.sender][ _stakingIds[i] ].exaEsAmount */\n      0x00\n      add\n      sload\n        /* \"TimeAlly.sol\":19356:19435  stakings[msg.sender][ _stakingIds[i] ].exaEsAmount... */\n      tag_212\n      swap1\n        /* \"TimeAlly.sol\":19356:19520  stakings[msg.sender][ _stakingIds[i] ].exaEsAmount... */\n      swap2\n      swap1\n      0xffffffff\n      and\n      jump\t// in\n    tag_444:\n        /* \"TimeAlly.sol\":19356:19549  stakings[msg.sender][ _stakingIds[i] ].exaEsAmount... */\n      tag_213\n      swap1\n        /* \"TimeAlly.sol\":19356:19553  stakings[msg.sender][ _stakingIds[i] ].exaEsAmount... */\n      swap2\n      swap1\n      0xffffffff\n      and\n      jump\t// in\n    tag_443:\n        /* \"TimeAlly.sol\":19281:19305  _userStakingsExaEsAmount */\n      dup4\n        /* \"TimeAlly.sol\":19281:19330  _userStakingsExaEsAmount... */\n      tag_163\n      swap1\n        /* \"TimeAlly.sol\":19281:19571  _userStakingsExaEsAmount... */\n      swap2\n      swap1\n      0xffffffff\n      and\n      jump\t// in\n    tag_442:\n        /* \"TimeAlly.sol\":19254:19571  _userStakingsExaEsAmount = _userStakingsExaEsAmount... */\n      swap2\n      pop\n        /* \"TimeAlly.sol\":19640:19665  uint256 stakingStartMonth */\n      0x00\n        /* \"TimeAlly.sol\":19668:19762  stakings[msg.sender][_stakingIds[i]].timestamp.sub(deployedTimestamp).div(earthSecondsInMonth) */\n      tag_453\n        /* \"TimeAlly.sol\":19742:19761  earthSecondsInMonth */\n      sload(0x04)\n        /* \"TimeAlly.sol\":19668:19737  stakings[msg.sender][_stakingIds[i]].timestamp.sub(deployedTimestamp) */\n      tag_454\n        /* \"TimeAlly.sol\":19719:19736  deployedTimestamp */\n      sload(0x00)\n        /* \"TimeAlly.sol\":19668:19676  stakings */\n      0x07\n        /* \"TimeAlly.sol\":19668:19688  stakings[msg.sender] */\n      0x00\n        /* \"TimeAlly.sol\":19677:19687  msg.sender */\n      caller\n        /* \"TimeAlly.sol\":19668:19688  stakings[msg.sender] */\n      0xffffffffffffffffffffffffffffffffffffffff\n      and\n      0xffffffffffffffffffffffffffffffffffffffff\n      and\n      dup2\n      mstore\n      0x20\n      add\n      swap1\n      dup2\n      mstore\n      0x20\n      add\n      0x00\n      keccak256\n        /* \"TimeAlly.sol\":19689:19700  _stakingIds */\n      dup10\n        /* \"TimeAlly.sol\":19701:19702  i */\n      dup8\n        /* \"TimeAlly.sol\":19689:19703  _stakingIds[i] */\n      dup2\n      mload\n      dup2\n      lt\n      tag_455\n      jumpi\n      invalid\n    tag_455:\n      0x20\n      mul\n      0x20\n      add\n      add\n      mload\n        /* \"TimeAlly.sol\":19668:19704  stakings[msg.sender][_stakingIds[i]] */\n      dup2\n      sload\n      dup2\n      lt\n      tag_456\n      jumpi\n      invalid\n    tag_456:\n      swap1\n      0x00\n      mstore\n      keccak256(0x00, 0x20)\n      swap1\n      0x08\n      mul\n      add\n        /* \"TimeAlly.sol\":19668:19714  stakings[msg.sender][_stakingIds[i]].timestamp */\n      0x01\n      add\n      sload\n        /* \"TimeAlly.sol\":19668:19718  stakings[msg.sender][_stakingIds[i]].timestamp.sub */\n      tag_159\n      swap1\n        /* \"TimeAlly.sol\":19668:19737  stakings[msg.sender][_stakingIds[i]].timestamp.sub(deployedTimestamp) */\n      swap2\n      swap1\n      0xffffffff\n      and\n      jump\t// in\n    tag_454:\n        /* \"TimeAlly.sol\":19668:19741  stakings[msg.sender][_stakingIds[i]].timestamp.sub(deployedTimestamp).div */\n      tag_213\n      swap1\n        /* \"TimeAlly.sol\":19668:19762  stakings[msg.sender][_stakingIds[i]].timestamp.sub(deployedTimestamp).div(earthSecondsInMonth) */\n      swap2\n      swap1\n      0xffffffff\n      and\n      jump\t// in\n    tag_453:\n        /* \"TimeAlly.sol\":19640:19762  uint256 stakingStartMonth = stakings[msg.sender][_stakingIds[i]].timestamp.sub(deployedTimestamp).div(earthSecondsInMonth) */\n      swap1\n      pop\n        /* \"TimeAlly.sol\":19781:19802  uint256 stakeEndMonth */\n      0x00\n        /* \"TimeAlly.sol\":19825:19837  stakingPlans */\n      0x05\n        /* \"TimeAlly.sol\":19838:19846  stakings */\n      0x07\n        /* \"TimeAlly.sol\":19838:19858  stakings[msg.sender] */\n      0x00\n        /* \"TimeAlly.sol\":19847:19857  msg.sender */\n      caller\n        /* \"TimeAlly.sol\":19838:19858  stakings[msg.sender] */\n      0xffffffffffffffffffffffffffffffffffffffff\n      and\n      0xffffffffffffffffffffffffffffffffffffffff\n      and\n      dup2\n      mstore\n      0x20\n      add\n      swap1\n      dup2\n      mstore\n      0x20\n      add\n      0x00\n      keccak256\n        /* \"TimeAlly.sol\":19859:19870  _stakingIds */\n      dup8\n        /* \"TimeAlly.sol\":19871:19872  i */\n      dup6\n        /* \"TimeAlly.sol\":19859:19873  _stakingIds[i] */\n      dup2\n      mload\n      dup2\n      lt\n      tag_458\n      jumpi\n      invalid\n    tag_458:\n      0x20\n      mul\n      0x20\n      add\n      add\n      mload\n        /* \"TimeAlly.sol\":19838:19874  stakings[msg.sender][_stakingIds[i]] */\n      dup2\n      sload\n      dup2\n      lt\n      tag_459\n      jumpi\n      invalid\n    tag_459:\n      swap1\n      0x00\n      mstore\n      keccak256(0x00, 0x20)\n      swap1\n      0x08\n      mul\n      add\n        /* \"TimeAlly.sol\":19838:19888  stakings[msg.sender][_stakingIds[i]].stakingPlanId */\n      0x02\n      add\n      sload\n        /* \"TimeAlly.sol\":19825:19889  stakingPlans[stakings[msg.sender][_stakingIds[i]].stakingPlanId] */\n      dup2\n      sload\n      dup2\n      lt\n      tag_461\n      jumpi\n      invalid\n    tag_461:\n      swap1\n      0x00\n      mstore\n      keccak256(0x00, 0x20)\n      swap1\n      0x02\n      mul\n      add\n        /* \"TimeAlly.sol\":19825:19896  stakingPlans[stakings[msg.sender][_stakingIds[i]].stakingPlanId].months */\n      0x00\n      add\n      sload\n        /* \"TimeAlly.sol\":19805:19822  stakingStartMonth */\n      dup3\n        /* \"TimeAlly.sol\":19805:19896  stakingStartMonth + stakingPlans[stakings[msg.sender][_stakingIds[i]].stakingPlanId].months */\n      add\n        /* \"TimeAlly.sol\":19781:19896  uint256 stakeEndMonth = stakingStartMonth + stakingPlans[stakings[msg.sender][_stakingIds[i]].stakingPlanId].months */\n      swap1\n      pop\n        /* \"TimeAlly.sol\":19919:19928  uint256 j */\n      0x00\n        /* \"TimeAlly.sol\":19947:19948  1 */\n      0x01\n        /* \"TimeAlly.sol\":19931:19944  _currentMonth */\n      dup7\n        /* \"TimeAlly.sol\":19931:19948  _currentMonth + 1 */\n      add\n        /* \"TimeAlly.sol\":19919:19948  uint256 j = _currentMonth + 1 */\n      swap1\n      pop\n        /* \"TimeAlly.sol\":19915:20093  for(uint256 j = _currentMonth + 1; j <= stakeEndMonth; j++) {... */\n    tag_463:\n        /* \"TimeAlly.sol\":19955:19968  stakeEndMonth */\n      dup2\n        /* \"TimeAlly.sol\":19950:19951  j */\n      dup2\n        /* \"TimeAlly.sol\":19950:19968  j <= stakeEndMonth */\n      gt\n        /* \"TimeAlly.sol\":19915:20093  for(uint256 j = _currentMonth + 1; j <= stakeEndMonth; j++) {... */\n      tag_464\n      jumpi\n        /* \"TimeAlly.sol\":20022:20074  totalActiveStakings[j].sub(_userStakingsExaEsAmount) */\n      tag_466\n        /* \"TimeAlly.sol\":20049:20073  _userStakingsExaEsAmount */\n      dup6\n        /* \"TimeAlly.sol\":20022:20041  totalActiveStakings */\n      0x0a\n        /* \"TimeAlly.sol\":20022:20044  totalActiveStakings[j] */\n      0x00\n        /* \"TimeAlly.sol\":20042:20043  j */\n      dup5\n        /* \"TimeAlly.sol\":20022:20044  totalActiveStakings[j] */\n      dup2\n      mstore\n      0x20\n      add\n      swap1\n      dup2\n      mstore\n      0x20\n      add\n      0x00\n      keccak256\n      sload\n        /* \"TimeAlly.sol\":20022:20048  totalActiveStakings[j].sub */\n      tag_159\n      swap1\n        /* \"TimeAlly.sol\":20022:20074  totalActiveStakings[j].sub(_userStakingsExaEsAmount) */\n      swap2\n      swap1\n      0xffffffff\n      and\n      jump\t// in\n    tag_466:\n        /* \"TimeAlly.sol\":19997:20016  totalActiveStakings */\n      0x0a\n        /* \"TimeAlly.sol\":19997:20019  totalActiveStakings[j] */\n      0x00\n        /* \"TimeAlly.sol\":20017:20018  j */\n      dup4\n        /* \"TimeAlly.sol\":19997:20019  totalActiveStakings[j] */\n      dup2\n      mstore\n      0x20\n      add\n      swap1\n      dup2\n      mstore\n      0x20\n      add\n      0x00\n      keccak256\n        /* \"TimeAlly.sol\":19997:20074  totalActiveStakings[j] = totalActiveStakings[j].sub(_userStakingsExaEsAmount) */\n      dup2\n      swap1\n      sstore\n      pop\n        /* \"TimeAlly.sol\":19970:19973  j++ */\n      dup1\n      dup1\n      0x01\n      add\n      swap2\n      pop\n      pop\n        /* \"TimeAlly.sol\":19915:20093  for(uint256 j = _currentMonth + 1; j <= stakeEndMonth; j++) {... */\n      jump(tag_463)\n    tag_464:\n      pop\n        /* \"TimeAlly.sol\":20156:20165  uint256 j */\n      0x00\n        /* \"TimeAlly.sol\":20168:20169  1 */\n      0x01\n        /* \"TimeAlly.sol\":20156:20169  uint256 j = 1 */\n      swap1\n      pop\n        /* \"TimeAlly.sol\":20152:20426  for(uint256 j = 1; j <= loanPlans[_loanPlanId].loanMonths; j++) {... */\n    tag_467:\n        /* \"TimeAlly.sol\":20176:20185  loanPlans */\n      0x06\n        /* \"TimeAlly.sol\":20186:20197  _loanPlanId */\n      dup10\n        /* \"TimeAlly.sol\":20176:20198  loanPlans[_loanPlanId] */\n      dup2\n      sload\n      dup2\n      lt\n      tag_470\n      jumpi\n      invalid\n    tag_470:\n      swap1\n      0x00\n      mstore\n      keccak256(0x00, 0x20)\n      swap1\n      0x02\n      mul\n      add\n        /* \"TimeAlly.sol\":20176:20209  loanPlans[_loanPlanId].loanMonths */\n      0x00\n      add\n      sload\n        /* \"TimeAlly.sol\":20171:20172  j */\n      dup2\n        /* \"TimeAlly.sol\":20171:20209  j <= loanPlans[_loanPlanId].loanMonths */\n      gt\n        /* \"TimeAlly.sol\":20152:20426  for(uint256 j = 1; j <= loanPlans[_loanPlanId].loanMonths; j++) {... */\n      tag_468\n      jumpi\n        /* \"TimeAlly.sol\":20315:20319  true */\n      0x01\n        /* \"TimeAlly.sol\":20238:20246  stakings */\n      0x07\n        /* \"TimeAlly.sol\":20238:20258  stakings[msg.sender] */\n      0x00\n        /* \"TimeAlly.sol\":20247:20257  msg.sender */\n      caller\n        /* \"TimeAlly.sol\":20238:20258  stakings[msg.sender] */\n      0xffffffffffffffffffffffffffffffffffffffff\n      and\n      0xffffffffffffffffffffffffffffffffffffffff\n      and\n      dup2\n      mstore\n      0x20\n      add\n      swap1\n      dup2\n      mstore\n      0x20\n      add\n      0x00\n      keccak256\n        /* \"TimeAlly.sol\":20260:20271  _stakingIds */\n      dup9\n        /* \"TimeAlly.sol\":20272:20273  i */\n      dup7\n        /* \"TimeAlly.sol\":20260:20274  _stakingIds[i] */\n      dup2\n      mload\n      dup2\n      lt\n      tag_472\n      jumpi\n      invalid\n    tag_472:\n      0x20\n      mul\n      0x20\n      add\n      add\n      mload\n        /* \"TimeAlly.sol\":20238:20276  stakings[msg.sender][ _stakingIds[i] ] */\n      dup2\n      sload\n      dup2\n      lt\n      tag_473\n      jumpi\n      invalid\n    tag_473:\n      swap1\n      0x00\n      mstore\n      keccak256(0x00, 0x20)\n      swap1\n      0x08\n      mul\n      add\n        /* \"TimeAlly.sol\":20238:20291  stakings[msg.sender][ _stakingIds[i] ].isMonthClaimed */\n      0x06\n      add\n        /* \"TimeAlly.sol\":20238:20312  stakings[msg.sender][ _stakingIds[i] ].isMonthClaimed[ _currentMonth + j ] */\n      0x00\n        /* \"TimeAlly.sol\":20309:20310  j */\n      dup4\n        /* \"TimeAlly.sol\":20293:20306  _currentMonth */\n      dup10\n        /* \"TimeAlly.sol\":20293:20310  _currentMonth + j */\n      add\n        /* \"TimeAlly.sol\":20238:20312  stakings[msg.sender][ _stakingIds[i] ].isMonthClaimed[ _currentMonth + j ] */\n      dup2\n      mstore\n      0x20\n      add\n      swap1\n      dup2\n      mstore\n      0x20\n      add\n      0x00\n      keccak256\n      0x00\n        /* \"TimeAlly.sol\":20238:20319  stakings[msg.sender][ _stakingIds[i] ].isMonthClaimed[ _currentMonth + j ] = true */\n      0x0100\n      exp\n      dup2\n      sload\n      dup2\n      0xff\n      mul\n      not\n      and\n      swap1\n      dup4\n      iszero\n      iszero\n      mul\n      or\n      swap1\n      sstore\n      pop\n        /* \"TimeAlly.sol\":20389:20390  2 */\n      0x02\n        /* \"TimeAlly.sol\":20341:20349  stakings */\n      0x07\n        /* \"TimeAlly.sol\":20341:20361  stakings[msg.sender] */\n      0x00\n        /* \"TimeAlly.sol\":20350:20360  msg.sender */\n      caller\n        /* \"TimeAlly.sol\":20341:20361  stakings[msg.sender] */\n      0xffffffffffffffffffffffffffffffffffffffff\n      and\n      0xffffffffffffffffffffffffffffffffffffffff\n      and\n      dup2\n      mstore\n      0x20\n      add\n      swap1\n      dup2\n      mstore\n      0x20\n      add\n      0x00\n      keccak256\n        /* \"TimeAlly.sol\":20363:20374  _stakingIds */\n      dup9\n        /* \"TimeAlly.sol\":20375:20376  i */\n      dup7\n        /* \"TimeAlly.sol\":20363:20377  _stakingIds[i] */\n      dup2\n      mload\n      dup2\n      lt\n      tag_475\n      jumpi\n      invalid\n    tag_475:\n      0x20\n      mul\n      0x20\n      add\n      add\n      mload\n        /* \"TimeAlly.sol\":20341:20379  stakings[msg.sender][ _stakingIds[i] ] */\n      dup2\n      sload\n      dup2\n      lt\n      tag_476\n      jumpi\n      invalid\n    tag_476:\n      swap1\n      0x00\n      mstore\n      keccak256(0x00, 0x20)\n      swap1\n      0x08\n      mul\n      add\n        /* \"TimeAlly.sol\":20341:20386  stakings[msg.sender][ _stakingIds[i] ].status */\n      0x03\n      add\n        /* \"TimeAlly.sol\":20341:20390  stakings[msg.sender][ _stakingIds[i] ].status = 2 */\n      dup2\n      swap1\n      sstore\n      pop\n        /* \"TimeAlly.sol\":20211:20214  j++ */\n      dup1\n      dup1\n      0x01\n      add\n      swap2\n      pop\n      pop\n        /* \"TimeAlly.sol\":20152:20426  for(uint256 j = 1; j <= loanPlans[_loanPlanId].loanMonths; j++) {... */\n      jump(tag_467)\n    tag_468:\n      pop\n        /* \"TimeAlly.sol\":19114:20440  if( isStakingActive(msg.sender, _stakingIds[i], _currentMonth, _currentMonth) ) {... */\n      pop\n      pop\n    tag_441:\n        /* \"TimeAlly.sol\":19094:19097  i++ */\n      dup1\n      dup1\n      0x01\n      add\n      swap2\n      pop\n      pop\n        /* \"TimeAlly.sol\":19051:20450  for(uint256 i = 0; i < _stakingIds.length; i++) {... */\n      jump(tag_436)\n    tag_437:\n      pop\n        /* \"TimeAlly.sol\":20460:20485  uint256 _maxLoaningAmount */\n      0x00\n        /* \"TimeAlly.sol\":20488:20519  _userStakingsExaEsAmount.div(2) */\n      tag_478\n        /* \"TimeAlly.sol\":20517:20518  2 */\n      0x02\n        /* \"TimeAlly.sol\":20488:20512  _userStakingsExaEsAmount */\n      dup4\n        /* \"TimeAlly.sol\":20488:20516  _userStakingsExaEsAmount.div */\n      tag_213\n      swap1\n        /* \"TimeAlly.sol\":20488:20519  _userStakingsExaEsAmount.div(2) */\n      swap2\n      swap1\n      0xffffffff\n      and\n      jump\t// in\n    tag_478:\n        /* \"TimeAlly.sol\":20460:20519  uint256 _maxLoaningAmount = _userStakingsExaEsAmount.div(2) */\n      swap1\n      pop\n        /* \"TimeAlly.sol\":20548:20565  _maxLoaningAmount */\n      dup1\n        /* \"TimeAlly.sol\":20533:20545  _exaEsAmount */\n      dup6\n        /* \"TimeAlly.sol\":20533:20565  _exaEsAmount > _maxLoaningAmount */\n      gt\n        /* \"TimeAlly.sol\":20530:20648  if(_exaEsAmount > _maxLoaningAmount) {... */\n      iszero\n      tag_479\n      jumpi\n        /* \"TimeAlly.sol\":20589:20594  false */\n      0x00\n        /* \"TimeAlly.sol\":20581:20637  require(false, 'cannot loan more than maxLoaningAmount') */\n      tag_480\n      jumpi\n      mload(0x40)\n      0x08c379a000000000000000000000000000000000000000000000000000000000\n      dup2\n      mstore\n      0x04\n      add\n      dup1\n      dup1\n      0x20\n      add\n      dup3\n      dup2\n      sub\n      dup3\n      mstore\n      0x26\n      dup2\n      mstore\n      0x20\n      add\n      dup1\n      data_39460daa7a45684f9dd0ed61ccf993f0ceb0e72e199b722f68f8fd8b9a275c06\n      0x26\n      swap2\n      codecopy\n      0x40\n      add\n      swap2\n      pop\n      pop\n      mload(0x40)\n      dup1\n      swap2\n      sub\n      swap1\n      revert\n    tag_480:\n        /* \"TimeAlly.sol\":20530:20648  if(_exaEsAmount > _maxLoaningAmount) {... */\n    tag_479:\n        /* \"TimeAlly.sol\":20659:20680  uint256 _loanInterest */\n      0x00\n        /* \"TimeAlly.sol\":20683:20741  _exaEsAmount.mul(loanPlans[_loanPlanId].loanRate).div(100) */\n      tag_481\n        /* \"TimeAlly.sol\":20737:20740  100 */\n      0x64\n        /* \"TimeAlly.sol\":20683:20732  _exaEsAmount.mul(loanPlans[_loanPlanId].loanRate) */\n      tag_482\n        /* \"TimeAlly.sol\":20700:20709  loanPlans */\n      0x06\n        /* \"TimeAlly.sol\":20710:20721  _loanPlanId */\n      dup11\n        /* \"TimeAlly.sol\":20700:20722  loanPlans[_loanPlanId] */\n      dup2\n      sload\n      dup2\n      lt\n      tag_483\n      jumpi\n      invalid\n    tag_483:\n      swap1\n      0x00\n      mstore\n      keccak256(0x00, 0x20)\n      swap1\n      0x02\n      mul\n      add\n        /* \"TimeAlly.sol\":20700:20731  loanPlans[_loanPlanId].loanRate */\n      0x01\n      add\n      sload\n        /* \"TimeAlly.sol\":20683:20695  _exaEsAmount */\n      dup10\n        /* \"TimeAlly.sol\":20683:20699  _exaEsAmount.mul */\n      tag_212\n      swap1\n        /* \"TimeAlly.sol\":20683:20732  _exaEsAmount.mul(loanPlans[_loanPlanId].loanRate) */\n      swap2\n      swap1\n      0xffffffff\n      and\n      jump\t// in\n    tag_482:\n        /* \"TimeAlly.sol\":20683:20736  _exaEsAmount.mul(loanPlans[_loanPlanId].loanRate).div */\n      tag_213\n      swap1\n        /* \"TimeAlly.sol\":20683:20741  _exaEsAmount.mul(loanPlans[_loanPlanId].loanRate).div(100) */\n      swap2\n      swap1\n      0xffffffff\n      and\n      jump\t// in\n    tag_481:\n        /* \"TimeAlly.sol\":20659:20741  uint256 _loanInterest = _exaEsAmount.mul(loanPlans[_loanPlanId].loanRate).div(100) */\n      swap1\n      pop\n        /* \"TimeAlly.sol\":20751:20780  uint256 _loanAmountToTransfer */\n      0x00\n        /* \"TimeAlly.sol\":20783:20814  _exaEsAmount.sub(_loanInterest) */\n      tag_485\n        /* \"TimeAlly.sol\":20800:20813  _loanInterest */\n      dup3\n        /* \"TimeAlly.sol\":20783:20795  _exaEsAmount */\n      dup9\n        /* \"TimeAlly.sol\":20783:20799  _exaEsAmount.sub */\n      tag_159\n      swap1\n        /* \"TimeAlly.sol\":20783:20814  _exaEsAmount.sub(_loanInterest) */\n      swap2\n      swap1\n      0xffffffff\n      and\n      jump\t// in\n    tag_485:\n        /* \"TimeAlly.sol\":20751:20814  uint256 _loanAmountToTransfer = _exaEsAmount.sub(_loanInterest) */\n      swap1\n      pop\n        /* \"TimeAlly.sol\":20834:20839  token */\n      0x02\n      0x00\n      swap1\n      sload\n      swap1\n      0x0100\n      exp\n      swap1\n      div\n      0xffffffffffffffffffffffffffffffffffffffff\n      and\n        /* \"TimeAlly.sol\":20834:20848  token.transfer */\n      0xffffffffffffffffffffffffffffffffffffffff\n      and\n      0xa9059cbb\n        /* \"TimeAlly.sol\":20857:20867  nrtManager */\n      0x03\n      0x00\n      swap1\n      sload\n      swap1\n      0x0100\n      exp\n      swap1\n      div\n      0xffffffffffffffffffffffffffffffffffffffff\n      and\n        /* \"TimeAlly.sol\":20870:20883  _loanInterest */\n      dup5\n        /* \"TimeAlly.sol\":20834:20884  token.transfer(address(nrtManager), _loanInterest) */\n      mload(0x40)\n      dup4\n      0xffffffff\n      and\n      0xe0\n      shl\n      dup2\n      mstore\n      0x04\n      add\n      dup1\n      dup4\n      0xffffffffffffffffffffffffffffffffffffffff\n      and\n      0xffffffffffffffffffffffffffffffffffffffff\n      and\n      dup2\n      mstore\n      0x20\n      add\n      dup3\n      dup2\n      mstore\n      0x20\n      add\n      swap3\n      pop\n      pop\n      pop\n      0x20\n      mload(0x40)\n      dup1\n      dup4\n      sub\n      dup2\n      0x00\n      dup8\n      dup1\n      extcodesize\n      iszero\n        /* \"--CODEGEN--\":8:17   */\n      dup1\n        /* \"--CODEGEN--\":5:7   */\n      iszero\n      tag_486\n      jumpi\n        /* \"--CODEGEN--\":30:31   */\n      0x00\n        /* \"--CODEGEN--\":27:28   */\n      dup1\n        /* \"--CODEGEN--\":20:32   */\n      revert\n        /* \"--CODEGEN--\":5:7   */\n    tag_486:\n        /* \"TimeAlly.sol\":20834:20884  token.transfer(address(nrtManager), _loanInterest) */\n      pop\n      gas\n      call\n      iszero\n        /* \"--CODEGEN--\":8:17   */\n      dup1\n        /* \"--CODEGEN--\":5:7   */\n      iszero\n      tag_487\n      jumpi\n        /* \"--CODEGEN--\":45:61   */\n      returndatasize\n        /* \"--CODEGEN--\":42:43   */\n      0x00\n        /* \"--CODEGEN--\":39:40   */\n      dup1\n        /* \"--CODEGEN--\":24:62   */\n      returndatacopy\n        /* \"--CODEGEN--\":77:93   */\n      returndatasize\n        /* \"--CODEGEN--\":74:75   */\n      0x00\n        /* \"--CODEGEN--\":67:94   */\n      revert\n        /* \"--CODEGEN--\":5:7   */\n    tag_487:\n        /* \"TimeAlly.sol\":20834:20884  token.transfer(address(nrtManager), _loanInterest) */\n      pop\n      pop\n      pop\n      pop\n      mload(0x40)\n      returndatasize\n        /* \"--CODEGEN--\":13:15   */\n      0x20\n        /* \"--CODEGEN--\":8:11   */\n      dup2\n        /* \"--CODEGEN--\":5:16   */\n      lt\n        /* \"--CODEGEN--\":2:4   */\n      iszero\n      tag_488\n      jumpi\n        /* \"--CODEGEN--\":29:30   */\n      0x00\n        /* \"--CODEGEN--\":26:27   */\n      dup1\n        /* \"--CODEGEN--\":19:31   */\n      revert\n        /* \"--CODEGEN--\":2:4   */\n    tag_488:\n        /* \"TimeAlly.sol\":20834:20884  token.transfer(address(nrtManager), _loanInterest) */\n      dup2\n      add\n      swap1\n      dup1\n      dup1\n      mload\n      swap1\n      0x20\n      add\n      swap1\n      swap3\n      swap2\n      swap1\n      pop\n      pop\n      pop\n        /* \"TimeAlly.sol\":20825:20886  require( token.transfer(address(nrtManager), _loanInterest) ) */\n      tag_489\n      jumpi\n      0x00\n      dup1\n      revert\n    tag_489:\n        /* \"TimeAlly.sol\":20905:20915  nrtManager */\n      0x03\n      0x00\n      swap1\n      sload\n      swap1\n      0x0100\n      exp\n      swap1\n      div\n      0xffffffffffffffffffffffffffffffffffffffff\n      and\n        /* \"TimeAlly.sol\":20905:20930  nrtManager.UpdateLuckpool */\n      0xffffffffffffffffffffffffffffffffffffffff\n      and\n      0x382e2aab\n        /* \"TimeAlly.sol\":20931:20944  _loanInterest */\n      dup4\n        /* \"TimeAlly.sol\":20905:20945  nrtManager.UpdateLuckpool(_loanInterest) */\n      mload(0x40)\n      dup3\n      0xffffffff\n      and\n      0xe0\n      shl\n      dup2\n      mstore\n      0x04\n      add\n      dup1\n      dup3\n      dup2\n      mstore\n      0x20\n      add\n      swap2\n      pop\n      pop\n      0x20\n      mload(0x40)\n      dup1\n      dup4\n      sub\n      dup2\n      0x00\n      dup8\n      dup1\n      extcodesize\n      iszero\n        /* \"--CODEGEN--\":8:17   */\n      dup1\n        /* \"--CODEGEN--\":5:7   */\n      iszero\n      tag_490\n      jumpi\n        /* \"--CODEGEN--\":30:31   */\n      0x00\n        /* \"--CODEGEN--\":27:28   */\n      dup1\n        /* \"--CODEGEN--\":20:32   */\n      revert\n        /* \"--CODEGEN--\":5:7   */\n    tag_490:\n        /* \"TimeAlly.sol\":20905:20945  nrtManager.UpdateLuckpool(_loanInterest) */\n      pop\n      gas\n      call\n      iszero\n        /* \"--CODEGEN--\":8:17   */\n      dup1\n        /* \"--CODEGEN--\":5:7   */\n      iszero\n      tag_491\n      jumpi\n        /* \"--CODEGEN--\":45:61   */\n      returndatasize\n        /* \"--CODEGEN--\":42:43   */\n      0x00\n        /* \"--CODEGEN--\":39:40   */\n      dup1\n        /* \"--CODEGEN--\":24:62   */\n      returndatacopy\n        /* \"--CODEGEN--\":77:93   */\n      returndatasize\n        /* \"--CODEGEN--\":74:75   */\n      0x00\n        /* \"--CODEGEN--\":67:94   */\n      revert\n        /* \"--CODEGEN--\":5:7   */\n    tag_491:\n        /* \"TimeAlly.sol\":20905:20945  nrtManager.UpdateLuckpool(_loanInterest) */\n      pop\n      pop\n      pop\n      pop\n      mload(0x40)\n      returndatasize\n        /* \"--CODEGEN--\":13:15   */\n      0x20\n        /* \"--CODEGEN--\":8:11   */\n      dup2\n        /* \"--CODEGEN--\":5:16   */\n      lt\n        /* \"--CODEGEN--\":2:4   */\n      iszero\n      tag_492\n      jumpi\n        /* \"--CODEGEN--\":29:30   */\n      0x00\n        /* \"--CODEGEN--\":26:27   */\n      dup1\n        /* \"--CODEGEN--\":19:31   */\n      revert\n        /* \"--CODEGEN--\":2:4   */\n    tag_492:\n        /* \"TimeAlly.sol\":20905:20945  nrtManager.UpdateLuckpool(_loanInterest) */\n      dup2\n      add\n      swap1\n      dup1\n      dup1\n      mload\n      swap1\n      0x20\n      add\n      swap1\n      swap3\n      swap2\n      swap1\n      pop\n      pop\n      pop\n        /* \"TimeAlly.sol\":20896:20947  require( nrtManager.UpdateLuckpool(_loanInterest) ) */\n      tag_493\n      jumpi\n      0x00\n      dup1\n      revert\n    tag_493:\n        /* \"TimeAlly.sol\":21515:21520  loans */\n      0x08\n        /* \"TimeAlly.sol\":21515:21532  loans[msg.sender] */\n      0x00\n        /* \"TimeAlly.sol\":21521:21531  msg.sender */\n      caller\n        /* \"TimeAlly.sol\":21515:21532  loans[msg.sender] */\n      0xffffffffffffffffffffffffffffffffffffffff\n      and\n      0xffffffffffffffffffffffffffffffffffffffff\n      and\n      dup2\n      mstore\n      0x20\n      add\n      swap1\n      dup2\n      mstore\n      0x20\n      add\n      0x00\n      keccak256\n        /* \"TimeAlly.sol\":21538:21726  Loan({... */\n      mload(0x40)\n      dup1\n      0xa0\n      add\n      0x40\n      mstore\n      dup1\n        /* \"TimeAlly.sol\":21570:21582  _exaEsAmount */\n      dup10\n        /* \"TimeAlly.sol\":21538:21726  Loan({... */\n      dup2\n      mstore\n      0x20\n      add\n        /* \"TimeAlly.sol\":21607:21612  token */\n      0x02\n      0x00\n      swap1\n      sload\n      swap1\n      0x0100\n      exp\n      swap1\n      div\n      0xffffffffffffffffffffffffffffffffffffffff\n      and\n        /* \"TimeAlly.sol\":21607:21616  token.mou */\n      0xffffffffffffffffffffffffffffffffffffffff\n      and\n      0xb81f90f3\n        /* \"TimeAlly.sol\":21607:21618  token.mou() */\n      mload(0x40)\n      dup2\n      0xffffffff\n      and\n      0xe0\n      shl\n      dup2\n      mstore\n      0x04\n      add\n      0x20\n      mload(0x40)\n      dup1\n      dup4\n      sub\n      dup2\n      dup7\n      dup1\n      extcodesize\n      iszero\n        /* \"--CODEGEN--\":8:17   */\n      dup1\n        /* \"--CODEGEN--\":5:7   */\n      iszero\n      tag_494\n      jumpi\n        /* \"--CODEGEN--\":30:31   */\n      0x00\n        /* \"--CODEGEN--\":27:28   */\n      dup1\n        /* \"--CODEGEN--\":20:32   */\n      revert\n        /* \"--CODEGEN--\":5:7   */\n    tag_494:\n        /* \"TimeAlly.sol\":21607:21618  token.mou() */\n      pop\n      gas\n      staticcall\n      iszero\n        /* \"--CODEGEN--\":8:17   */\n      dup1\n        /* \"--CODEGEN--\":5:7   */\n      iszero\n      tag_495\n      jumpi\n        /* \"--CODEGEN--\":45:61   */\n      returndatasize\n        /* \"--CODEGEN--\":42:43   */\n      0x00\n        /* \"--CODEGEN--\":39:40   */\n      dup1\n        /* \"--CODEGEN--\":24:62   */\n      returndatacopy\n        /* \"--CODEGEN--\":77:93   */\n      returndatasize\n        /* \"--CODEGEN--\":74:75   */\n      0x00\n        /* \"--CODEGEN--\":67:94   */\n      revert\n        /* \"--CODEGEN--\":5:7   */\n    tag_495:\n        /* \"TimeAlly.sol\":21607:21618  token.mou() */\n      pop\n      pop\n      pop\n      pop\n      mload(0x40)\n      returndatasize\n        /* \"--CODEGEN--\":13:15   */\n      0x20\n        /* \"--CODEGEN--\":8:11   */\n      dup2\n        /* \"--CODEGEN--\":5:16   */\n      lt\n        /* \"--CODEGEN--\":2:4   */\n      iszero\n      tag_496\n      jumpi\n        /* \"--CODEGEN--\":29:30   */\n      0x00\n        /* \"--CODEGEN--\":26:27   */\n      dup1\n        /* \"--CODEGEN--\":19:31   */\n      revert\n        /* \"--CODEGEN--\":2:4   */\n    tag_496:\n        /* \"TimeAlly.sol\":21607:21618  token.mou() */\n      dup2\n      add\n      swap1\n      dup1\n      dup1\n      mload\n      swap1\n      0x20\n      add\n      swap1\n      swap3\n      swap2\n      swap1\n      pop\n      pop\n      pop\n        /* \"TimeAlly.sol\":21538:21726  Loan({... */\n      dup2\n      mstore\n      0x20\n      add\n        /* \"TimeAlly.sol\":21644:21655  _loanPlanId */\n      dup11\n        /* \"TimeAlly.sol\":21538:21726  Loan({... */\n      dup2\n      mstore\n      0x20\n      add\n        /* \"TimeAlly.sol\":21677:21678  1 */\n      0x01\n        /* \"TimeAlly.sol\":21538:21726  Loan({... */\n      dup2\n      mstore\n      0x20\n      add\n        /* \"TimeAlly.sol\":21704:21715  _stakingIds */\n      dup9\n        /* \"TimeAlly.sol\":21538:21726  Loan({... */\n      dup2\n      mstore\n      pop\n        /* \"TimeAlly.sol\":21515:21727  loans[msg.sender].push(Loan({... */\n      swap1\n      dup1\n        /* \"--CODEGEN--\":39:40   */\n      0x01\n        /* \"--CODEGEN--\":33:36   */\n      dup2\n        /* \"--CODEGEN--\":27:37   */\n      sload\n        /* \"--CODEGEN--\":23:41   */\n      add\n        /* \"--CODEGEN--\":57:67   */\n      dup1\n        /* \"--CODEGEN--\":52:55   */\n      dup3\n        /* \"--CODEGEN--\":45:68   */\n      sstore\n        /* \"--CODEGEN--\":79:89   */\n      dup1\n        /* \"--CODEGEN--\":72:89   */\n      swap2\n      pop\n        /* \"--CODEGEN--\":0:93   */\n      pop\n        /* \"TimeAlly.sol\":21515:21727  loans[msg.sender].push(Loan({... */\n      swap1\n      0x01\n      dup3\n      sub\n      swap1\n      0x00\n      mstore\n      keccak256(0x00, 0x20)\n      swap1\n      0x05\n      mul\n      add\n      0x00\n      swap1\n      swap2\n      swap3\n      swap1\n      swap2\n      swap1\n      swap2\n      pop\n      0x00\n      dup3\n      add\n      mload\n      dup2\n      0x00\n      add\n      sstore\n      0x20\n      dup3\n      add\n      mload\n      dup2\n      0x01\n      add\n      sstore\n      0x40\n      dup3\n      add\n      mload\n      dup2\n      0x02\n      add\n      sstore\n      0x60\n      dup3\n      add\n      mload\n      dup2\n      0x03\n      add\n      sstore\n      0x80\n      dup3\n      add\n      mload\n      dup2\n      0x04\n      add\n      swap1\n      dup1\n      mload\n      swap1\n      0x20\n      add\n      swap1\n      tag_498\n      swap3\n      swap2\n      swap1\n      tag_499\n      jump\t// in\n    tag_498:\n      pop\n      pop\n      pop\n      pop\n        /* \"TimeAlly.sol\":21775:21780  token */\n      0x02\n      0x00\n      swap1\n      sload\n      swap1\n      0x0100\n      exp\n      swap1\n      div\n      0xffffffffffffffffffffffffffffffffffffffff\n      and\n        /* \"TimeAlly.sol\":21775:21789  token.transfer */\n      0xffffffffffffffffffffffffffffffffffffffff\n      and\n      0xa9059cbb\n        /* \"TimeAlly.sol\":21790:21800  msg.sender */\n      caller\n        /* \"TimeAlly.sol\":21802:21823  _loanAmountToTransfer */\n      dup4\n        /* \"TimeAlly.sol\":21775:21824  token.transfer(msg.sender, _loanAmountToTransfer) */\n      mload(0x40)\n      dup4\n      0xffffffff\n      and\n      0xe0\n      shl\n      dup2\n      mstore\n      0x04\n      add\n      dup1\n      dup4\n      0xffffffffffffffffffffffffffffffffffffffff\n      and\n      0xffffffffffffffffffffffffffffffffffffffff\n      and\n      dup2\n      mstore\n      0x20\n      add\n      dup3\n      dup2\n      mstore\n      0x20\n      add\n      swap3\n      pop\n      pop\n      pop\n      0x20\n      mload(0x40)\n      dup1\n      dup4\n      sub\n      dup2\n      0x00\n      dup8\n      dup1\n      extcodesize\n      iszero\n        /* \"--CODEGEN--\":8:17   */\n      dup1\n        /* \"--CODEGEN--\":5:7   */\n      iszero\n      tag_500\n      jumpi\n        /* \"--CODEGEN--\":30:31   */\n      0x00\n        /* \"--CODEGEN--\":27:28   */\n      dup1\n        /* \"--CODEGEN--\":20:32   */\n      revert\n        /* \"--CODEGEN--\":5:7   */\n    tag_500:\n        /* \"TimeAlly.sol\":21775:21824  token.transfer(msg.sender, _loanAmountToTransfer) */\n      pop\n      gas\n      call\n      iszero\n        /* \"--CODEGEN--\":8:17   */\n      dup1\n        /* \"--CODEGEN--\":5:7   */\n      iszero\n      tag_501\n      jumpi\n        /* \"--CODEGEN--\":45:61   */\n      returndatasize\n        /* \"--CODEGEN--\":42:43   */\n      0x00\n        /* \"--CODEGEN--\":39:40   */\n      dup1\n        /* \"--CODEGEN--\":24:62   */\n      returndatacopy\n        /* \"--CODEGEN--\":77:93   */\n      returndatasize\n        /* \"--CODEGEN--\":74:75   */\n      0x00\n        /* \"--CODEGEN--\":67:94   */\n      revert\n        /* \"--CODEGEN--\":5:7   */\n    tag_501:\n        /* \"TimeAlly.sol\":21775:21824  token.transfer(msg.sender, _loanAmountToTransfer) */\n      pop\n      pop\n      pop\n      pop\n      mload(0x40)\n      returndatasize\n        /* \"--CODEGEN--\":13:15   */\n      0x20\n        /* \"--CODEGEN--\":8:11   */\n      dup2\n        /* \"--CODEGEN--\":5:16   */\n      lt\n        /* \"--CODEGEN--\":2:4   */\n      iszero\n      tag_502\n      jumpi\n        /* \"--CODEGEN--\":29:30   */\n      0x00\n        /* \"--CODEGEN--\":26:27   */\n      dup1\n        /* \"--CODEGEN--\":19:31   */\n      revert\n        /* \"--CODEGEN--\":2:4   */\n    tag_502:\n        /* \"TimeAlly.sol\":21775:21824  token.transfer(msg.sender, _loanAmountToTransfer) */\n      dup2\n      add\n      swap1\n      dup1\n      dup1\n      mload\n      swap1\n      0x20\n      add\n      swap1\n      swap3\n      swap2\n      swap1\n      pop\n      pop\n      pop\n        /* \"TimeAlly.sol\":21766:21826  require( token.transfer(msg.sender, _loanAmountToTransfer) ) */\n      tag_503\n      jumpi\n      0x00\n      dup1\n      revert\n    tag_503:\n        /* \"TimeAlly.sol\":21862:21873  _loanPlanId */\n      dup8\n        /* \"TimeAlly.sol\":21850:21860  msg.sender */\n      caller\n        /* \"TimeAlly.sol\":21842:21933  NewLoan(msg.sender, _loanPlanId, _exaEsAmount, _loanInterest, loans[msg.sender].length - 1) */\n      0xffffffffffffffffffffffffffffffffffffffff\n      and\n      0x583f4a449110798c282200ea42774808b8147fa4bcb89a6ca406dd0650e034e7\n        /* \"TimeAlly.sol\":21875:21887  _exaEsAmount */\n      dup10\n        /* \"TimeAlly.sol\":21889:21902  _loanInterest */\n      dup6\n        /* \"TimeAlly.sol\":21931:21932  1 */\n      0x01\n        /* \"TimeAlly.sol\":21904:21909  loans */\n      0x08\n        /* \"TimeAlly.sol\":21904:21921  loans[msg.sender] */\n      0x00\n        /* \"TimeAlly.sol\":21910:21920  msg.sender */\n      caller\n        /* \"TimeAlly.sol\":21904:21921  loans[msg.sender] */\n      0xffffffffffffffffffffffffffffffffffffffff\n      and\n      0xffffffffffffffffffffffffffffffffffffffff\n      and\n      dup2\n      mstore\n      0x20\n      add\n      swap1\n      dup2\n      mstore\n      0x20\n      add\n      0x00\n      keccak256\n        /* \"TimeAlly.sol\":21904:21928  loans[msg.sender].length */\n      dup1\n      sload\n      swap1\n      pop\n        /* \"TimeAlly.sol\":21904:21932  loans[msg.sender].length - 1 */\n      sub\n        /* \"TimeAlly.sol\":21842:21933  NewLoan(msg.sender, _loanPlanId, _exaEsAmount, _loanInterest, loans[msg.sender].length - 1) */\n      mload(0x40)\n      dup1\n      dup5\n      dup2\n      mstore\n      0x20\n      add\n      dup4\n      dup2\n      mstore\n      0x20\n      add\n      dup3\n      dup2\n      mstore\n      0x20\n      add\n      swap4\n      pop\n      pop\n      pop\n      pop\n      mload(0x40)\n      dup1\n      swap2\n      sub\n      swap1\n      log3\n        /* \"TimeAlly.sol\":18613:21940  function takeLoanOnSelfStaking(uint256 _loanPlanId, uint256 _exaEsAmount, uint256[] memory _stakingIds) public {... */\n      pop\n      pop\n      pop\n      pop\n      pop\n      pop\n      pop\n      pop\n      jump\t// out\n        /* \"TimeAlly.sol\":7280:8455  function claimLaunchReward(uint256 _stakingPlanId) public {... */\n    tag_128:\n        /* \"TimeAlly.sol\":7383:7384  0 */\n      0x00\n        /* \"TimeAlly.sol\":7356:7368  launchReward */\n      0x09\n        /* \"TimeAlly.sol\":7356:7380  launchReward[msg.sender] */\n      0x00\n        /* \"TimeAlly.sol\":7369:7379  msg.sender */\n      caller\n        /* \"TimeAlly.sol\":7356:7380  launchReward[msg.sender] */\n      0xffffffffffffffffffffffffffffffffffffffff\n      and\n      0xffffffffffffffffffffffffffffffffffffffff\n      and\n      dup2\n      mstore\n      0x20\n      add\n      swap1\n      dup2\n      mstore\n      0x20\n      add\n      0x00\n      keccak256\n      sload\n        /* \"TimeAlly.sol\":7356:7384  launchReward[msg.sender] > 0 */\n      gt\n        /* \"TimeAlly.sol\":7348:7385  require(launchReward[msg.sender] > 0) */\n      tag_505\n      jumpi\n      0x00\n      dup1\n      revert\n    tag_505:\n        /* \"TimeAlly.sol\":7395:7409  uint256 reward */\n      0x00\n        /* \"TimeAlly.sol\":7412:7424  launchReward */\n      0x09\n        /* \"TimeAlly.sol\":7412:7436  launchReward[msg.sender] */\n      0x00\n        /* \"TimeAlly.sol\":7425:7435  msg.sender */\n      caller\n        /* \"TimeAlly.sol\":7412:7436  launchReward[msg.sender] */\n      0xffffffffffffffffffffffffffffffffffffffff\n      and\n      0xffffffffffffffffffffffffffffffffffffffff\n      and\n      dup2\n      mstore\n      0x20\n      add\n      swap1\n      dup2\n      mstore\n      0x20\n      add\n      0x00\n      keccak256\n      sload\n        /* \"TimeAlly.sol\":7395:7436  uint256 reward = launchReward[msg.sender] */\n      swap1\n      pop\n        /* \"TimeAlly.sol\":7473:7474  0 */\n      0x00\n        /* \"TimeAlly.sol\":7446:7458  launchReward */\n      0x09\n        /* \"TimeAlly.sol\":7446:7470  launchReward[msg.sender] */\n      0x00\n        /* \"TimeAlly.sol\":7459:7469  msg.sender */\n      caller\n        /* \"TimeAlly.sol\":7446:7470  launchReward[msg.sender] */\n      0xffffffffffffffffffffffffffffffffffffffff\n      and\n      0xffffffffffffffffffffffffffffffffffffffff\n      and\n      dup2\n      mstore\n      0x20\n      add\n      swap1\n      dup2\n      mstore\n      0x20\n      add\n      0x00\n      keccak256\n        /* \"TimeAlly.sol\":7446:7474  launchReward[msg.sender] = 0 */\n      dup2\n      swap1\n      sstore\n      pop\n        /* \"TimeAlly.sol\":7515:7536  uint256 stakeEndMonth */\n      0x00\n        /* \"TimeAlly.sol\":7563:7575  stakingPlans */\n      0x05\n        /* \"TimeAlly.sol\":7576:7590  _stakingPlanId */\n      dup4\n        /* \"TimeAlly.sol\":7563:7591  stakingPlans[_stakingPlanId] */\n      dup2\n      sload\n      dup2\n      lt\n      tag_506\n      jumpi\n      invalid\n    tag_506:\n      swap1\n      0x00\n      mstore\n      keccak256(0x00, 0x20)\n      swap1\n      0x02\n      mul\n      add\n        /* \"TimeAlly.sol\":7563:7598  stakingPlans[_stakingPlanId].months */\n      0x00\n      add\n      sload\n        /* \"TimeAlly.sol\":7559:7560  1 */\n      0x01\n        /* \"TimeAlly.sol\":7539:7556  getCurrentMonth() */\n      tag_508\n        /* \"TimeAlly.sol\":7539:7554  getCurrentMonth */\n      tag_130\n        /* \"TimeAlly.sol\":7539:7556  getCurrentMonth() */\n      jump\t// in\n    tag_508:\n        /* \"TimeAlly.sol\":7539:7560  getCurrentMonth() + 1 */\n      add\n        /* \"TimeAlly.sol\":7539:7598  getCurrentMonth() + 1 + stakingPlans[_stakingPlanId].months */\n      add\n        /* \"TimeAlly.sol\":7515:7598  uint256 stakeEndMonth = getCurrentMonth() + 1 + stakingPlans[_stakingPlanId].months */\n      swap1\n      pop\n        /* \"TimeAlly.sol\":7729:7742  uint256 month */\n      0x00\n        /* \"TimeAlly.sol\":7765:7766  1 */\n      0x01\n        /* \"TimeAlly.sol\":7745:7762  getCurrentMonth() */\n      tag_512\n        /* \"TimeAlly.sol\":7745:7760  getCurrentMonth */\n      tag_130\n        /* \"TimeAlly.sol\":7745:7762  getCurrentMonth() */\n      jump\t// in\n    tag_512:\n        /* \"TimeAlly.sol\":7745:7766  getCurrentMonth() + 1 */\n      add\n        /* \"TimeAlly.sol\":7729:7766  uint256 month = getCurrentMonth() + 1 */\n      swap1\n      pop\n        /* \"TimeAlly.sol\":7714:7918  for(... */\n    tag_509:\n        /* \"TimeAlly.sol\":7786:7799  stakeEndMonth */\n      dup2\n        /* \"TimeAlly.sol\":7778:7783  month */\n      dup2\n        /* \"TimeAlly.sol\":7778:7799  month < stakeEndMonth */\n      lt\n        /* \"TimeAlly.sol\":7714:7918  for(... */\n      iszero\n      tag_510\n      jumpi\n        /* \"TimeAlly.sol\":7901:7907  reward */\n      dup3\n        /* \"TimeAlly.sol\":7872:7891  totalActiveStakings */\n      0x0a\n        /* \"TimeAlly.sol\":7872:7898  totalActiveStakings[month] */\n      0x00\n        /* \"TimeAlly.sol\":7892:7897  month */\n      dup4\n        /* \"TimeAlly.sol\":7872:7898  totalActiveStakings[month] */\n      dup2\n      mstore\n      0x20\n      add\n      swap1\n      dup2\n      mstore\n      0x20\n      add\n      0x00\n      keccak256\n      sload\n        /* \"TimeAlly.sol\":7872:7907  totalActiveStakings[month] + reward */\n      add\n        /* \"TimeAlly.sol\":7843:7862  totalActiveStakings */\n      0x0a\n        /* \"TimeAlly.sol\":7843:7869  totalActiveStakings[month] */\n      0x00\n        /* \"TimeAlly.sol\":7863:7868  month */\n      dup4\n        /* \"TimeAlly.sol\":7843:7869  totalActiveStakings[month] */\n      dup2\n      mstore\n      0x20\n      add\n      swap1\n      dup2\n      mstore\n      0x20\n      add\n      0x00\n      keccak256\n        /* \"TimeAlly.sol\":7843:7907  totalActiveStakings[month] = totalActiveStakings[month] + reward */\n      dup2\n      swap1\n      sstore\n      pop\n        /* \"TimeAlly.sol\":7811:7818  month++ */\n      dup1\n      dup1\n      0x01\n      add\n      swap2\n      pop\n      pop\n        /* \"TimeAlly.sol\":7714:7918  for(... */\n      jump(tag_509)\n    tag_510:\n      pop\n        /* \"TimeAlly.sol\":7928:7963  Staking[] storage userStakingsArray */\n      0x00\n        /* \"TimeAlly.sol\":7966:7974  stakings */\n      0x07\n        /* \"TimeAlly.sol\":7966:7986  stakings[msg.sender] */\n      0x00\n        /* \"TimeAlly.sol\":7975:7985  msg.sender */\n      caller\n        /* \"TimeAlly.sol\":7966:7986  stakings[msg.sender] */\n      0xffffffffffffffffffffffffffffffffffffffff\n      and\n      0xffffffffffffffffffffffffffffffffffffffff\n      and\n      dup2\n      mstore\n      0x20\n      add\n      swap1\n      dup2\n      mstore\n      0x20\n      add\n      0x00\n      keccak256\n        /* \"TimeAlly.sol\":7928:7986  Staking[] storage userStakingsArray = stakings[msg.sender] */\n      swap1\n      pop\n        /* \"TimeAlly.sol\":7996:8013  userStakingsArray */\n      dup1\n        /* \"TimeAlly.sol\":8019:8355  Staking({... */\n      mload(0x40)\n      dup1\n      0xc0\n      add\n      0x40\n      mstore\n      dup1\n        /* \"TimeAlly.sol\":8054:8060  reward */\n      dup6\n        /* \"TimeAlly.sol\":8019:8355  Staking({... */\n      dup2\n      mstore\n      0x20\n      add\n        /* \"TimeAlly.sol\":8085:8090  token */\n      0x02\n      0x00\n      swap1\n      sload\n      swap1\n      0x0100\n      exp\n      swap1\n      div\n      0xffffffffffffffffffffffffffffffffffffffff\n      and\n        /* \"TimeAlly.sol\":8085:8094  token.mou */\n      0xffffffffffffffffffffffffffffffffffffffff\n      and\n      0xb81f90f3\n        /* \"TimeAlly.sol\":8085:8096  token.mou() */\n      mload(0x40)\n      dup2\n      0xffffffff\n      and\n      0xe0\n      shl\n      dup2\n      mstore\n      0x04\n      add\n      0x20\n      mload(0x40)\n      dup1\n      dup4\n      sub\n      dup2\n      dup7\n      dup1\n      extcodesize\n      iszero\n        /* \"--CODEGEN--\":8:17   */\n      dup1\n        /* \"--CODEGEN--\":5:7   */\n      iszero\n      tag_513\n      jumpi\n        /* \"--CODEGEN--\":30:31   */\n      0x00\n        /* \"--CODEGEN--\":27:28   */\n      dup1\n        /* \"--CODEGEN--\":20:32   */\n      revert\n        /* \"--CODEGEN--\":5:7   */\n    tag_513:\n        /* \"TimeAlly.sol\":8085:8096  token.mou() */\n      pop\n      gas\n      staticcall\n      iszero\n        /* \"--CODEGEN--\":8:17   */\n      dup1\n        /* \"--CODEGEN--\":5:7   */\n      iszero\n      tag_514\n      jumpi\n        /* \"--CODEGEN--\":45:61   */\n      returndatasize\n        /* \"--CODEGEN--\":42:43   */\n      0x00\n        /* \"--CODEGEN--\":39:40   */\n      dup1\n        /* \"--CODEGEN--\":24:62   */\n      returndatacopy\n        /* \"--CODEGEN--\":77:93   */\n      returndatasize\n        /* \"--CODEGEN--\":74:75   */\n      0x00\n        /* \"--CODEGEN--\":67:94   */\n      revert\n        /* \"--CODEGEN--\":5:7   */\n    tag_514:\n        /* \"TimeAlly.sol\":8085:8096  token.mou() */\n      pop\n      pop\n      pop\n      pop\n      mload(0x40)\n      returndatasize\n        /* \"--CODEGEN--\":13:15   */\n      0x20\n        /* \"--CODEGEN--\":8:11   */\n      dup2\n        /* \"--CODEGEN--\":5:16   */\n      lt\n        /* \"--CODEGEN--\":2:4   */\n      iszero\n      tag_515\n      jumpi\n        /* \"--CODEGEN--\":29:30   */\n      0x00\n        /* \"--CODEGEN--\":26:27   */\n      dup1\n        /* \"--CODEGEN--\":19:31   */\n      revert\n        /* \"--CODEGEN--\":2:4   */\n    tag_515:\n        /* \"TimeAlly.sol\":8085:8096  token.mou() */\n      dup2\n      add\n      swap1\n      dup1\n      dup1\n      mload\n      swap1\n      0x20\n      add\n      swap1\n      swap3\n      swap2\n      swap1\n      pop\n      pop\n      pop\n        /* \"TimeAlly.sol\":8019:8355  Staking({... */\n      dup2\n      mstore\n      0x20\n      add\n        /* \"TimeAlly.sol\":8125:8139  _stakingPlanId */\n      dup7\n        /* \"TimeAlly.sol\":8019:8355  Staking({... */\n      dup2\n      mstore\n      0x20\n      add\n        /* \"TimeAlly.sol\":8161:8162  1 */\n      0x01\n        /* \"TimeAlly.sol\":8019:8355  Staking({... */\n      dup2\n      mstore\n      0x20\n      add\n        /* \"TimeAlly.sol\":8222:8223  0 */\n      0x00\n        /* \"TimeAlly.sol\":8019:8355  Staking({... */\n      dup2\n      mstore\n      0x20\n      add\n        /* \"TimeAlly.sol\":8343:8344  0 */\n      0x00\n        /* \"TimeAlly.sol\":8019:8355  Staking({... */\n      dup2\n      mstore\n      pop\n        /* \"TimeAlly.sol\":7996:8356  userStakingsArray.push(Staking({... */\n      swap1\n      dup1\n        /* \"--CODEGEN--\":39:40   */\n      0x01\n        /* \"--CODEGEN--\":33:36   */\n      dup2\n        /* \"--CODEGEN--\":27:37   */\n      sload\n        /* \"--CODEGEN--\":23:41   */\n      add\n        /* \"--CODEGEN--\":57:67   */\n      dup1\n        /* \"--CODEGEN--\":52:55   */\n      dup3\n        /* \"--CODEGEN--\":45:68   */\n      sstore\n        /* \"--CODEGEN--\":79:89   */\n      dup1\n        /* \"--CODEGEN--\":72:89   */\n      swap2\n      pop\n        /* \"--CODEGEN--\":0:93   */\n      pop\n        /* \"TimeAlly.sol\":7996:8356  userStakingsArray.push(Staking({... */\n      swap1\n      0x01\n      dup3\n      sub\n      swap1\n      0x00\n      mstore\n      keccak256(0x00, 0x20)\n      swap1\n      0x08\n      mul\n      add\n      0x00\n      swap1\n      swap2\n      swap3\n      swap1\n      swap2\n      swap1\n      swap2\n      pop\n      0x00\n      dup3\n      add\n      mload\n      dup2\n      0x00\n      add\n      sstore\n      0x20\n      dup3\n      add\n      mload\n      dup2\n      0x01\n      add\n      sstore\n      0x40\n      dup3\n      add\n      mload\n      dup2\n      0x02\n      add\n      sstore\n      0x60\n      dup3\n      add\n      mload\n      dup2\n      0x03\n      add\n      sstore\n      0x80\n      dup3\n      add\n      mload\n      dup2\n      0x04\n      add\n      sstore\n      0xa0\n      dup3\n      add\n      mload\n      dup2\n      0x05\n      add\n      sstore\n      pop\n      pop\n      pop\n        /* \"TimeAlly.sol\":8395:8409  _stakingPlanId */\n      dup4\n        /* \"TimeAlly.sol\":8383:8393  msg.sender */\n      caller\n        /* \"TimeAlly.sol\":8372:8448  NewStaking(msg.sender, _stakingPlanId, reward, userStakingsArray.length - 1) */\n      0xffffffffffffffffffffffffffffffffffffffff\n      and\n      0x680a0e2e97ad7c29da7985e37b699f19857c055166f801e50d90661eae30fcc3\n        /* \"TimeAlly.sol\":8411:8417  reward */\n      dup6\n        /* \"TimeAlly.sol\":8446:8447  1 */\n      0x01\n        /* \"TimeAlly.sol\":8419:8436  userStakingsArray */\n      dup6\n        /* \"TimeAlly.sol\":8419:8443  userStakingsArray.length */\n      dup1\n      sload\n      swap1\n      pop\n        /* \"TimeAlly.sol\":8419:8447  userStakingsArray.length - 1 */\n      sub\n        /* \"TimeAlly.sol\":8372:8448  NewStaking(msg.sender, _stakingPlanId, reward, userStakingsArray.length - 1) */\n      mload(0x40)\n      dup1\n      dup4\n      dup2\n      mstore\n      0x20\n      add\n      dup3\n      dup2\n      mstore\n      0x20\n      add\n      swap3\n      pop\n      pop\n      pop\n      mload(0x40)\n      dup1\n      swap2\n      sub\n      swap1\n      log3\n        /* \"TimeAlly.sol\":7280:8455  function claimLaunchReward(uint256 _stakingPlanId) public {... */\n      pop\n      pop\n      pop\n      pop\n      jump\t// out\n        /* \"TimeAlly.sol\":3846:3956  function getCurrentMonth() public view returns (uint256) {... */\n    tag_130:\n        /* \"TimeAlly.sol\":3894:3901  uint256 */\n      0x00\n        /* \"TimeAlly.sol\":3948:3949  1 */\n      0x01\n        /* \"TimeAlly.sol\":3920:3938  timeAllyMonthlyNRT */\n      0x0b\n        /* \"TimeAlly.sol\":3920:3945  timeAllyMonthlyNRT.length */\n      dup1\n      sload\n      swap1\n      pop\n        /* \"TimeAlly.sol\":3920:3949  timeAllyMonthlyNRT.length - 1 */\n      sub\n        /* \"TimeAlly.sol\":3913:3949  return timeAllyMonthlyNRT.length - 1 */\n      swap1\n      pop\n        /* \"TimeAlly.sol\":3846:3956  function getCurrentMonth() public view returns (uint256) {... */\n      swap1\n      jump\t// out\n        /* \"TimeAlly.sol\":21978:23282  function repayLoanSelf(uint256 _loanId) public {... */\n    tag_133:\n        /* \"TimeAlly.sol\":22080:22081  1 */\n      0x01\n        /* \"TimeAlly.sol\":22043:22048  loans */\n      0x08\n        /* \"TimeAlly.sol\":22043:22060  loans[msg.sender] */\n      0x00\n        /* \"TimeAlly.sol\":22049:22059  msg.sender */\n      caller\n        /* \"TimeAlly.sol\":22043:22060  loans[msg.sender] */\n      0xffffffffffffffffffffffffffffffffffffffff\n      and\n      0xffffffffffffffffffffffffffffffffffffffff\n      and\n      dup2\n      mstore\n      0x20\n      add\n      swap1\n      dup2\n      mstore\n      0x20\n      add\n      0x00\n      keccak256\n        /* \"TimeAlly.sol\":22061:22068  _loanId */\n      dup3\n        /* \"TimeAlly.sol\":22043:22069  loans[msg.sender][_loanId] */\n      dup2\n      sload\n      dup2\n      lt\n      tag_519\n      jumpi\n      invalid\n    tag_519:\n      swap1\n      0x00\n      mstore\n      keccak256(0x00, 0x20)\n      swap1\n      0x05\n      mul\n      add\n        /* \"TimeAlly.sol\":22043:22076  loans[msg.sender][_loanId].status */\n      0x03\n      add\n      sload\n        /* \"TimeAlly.sol\":22043:22081  loans[msg.sender][_loanId].status == 1 */\n      eq\n        /* \"TimeAlly.sol\":22035:22114  require(loans[msg.sender][_loanId].status == 1, 'can only repay pending loans') */\n      tag_521\n      jumpi\n      mload(0x40)\n      0x08c379a000000000000000000000000000000000000000000000000000000000\n      dup2\n      mstore\n      0x04\n      add\n      dup1\n      dup1\n      0x20\n      add\n      dup3\n      dup2\n      sub\n      dup3\n      mstore\n      0x1c\n      dup2\n      mstore\n      0x20\n      add\n      dup1\n      0x63616e206f6e6c792072657061792070656e64696e67206c6f616e7300000000\n      dup2\n      mstore\n      pop\n      0x20\n      add\n      swap2\n      pop\n      pop\n      mload(0x40)\n      dup1\n      swap2\n      sub\n      swap1\n      revert\n    tag_521:\n        /* \"TimeAlly.sol\":22133:22138  token */\n      0x02\n      0x00\n      swap1\n      sload\n      swap1\n      0x0100\n      exp\n      swap1\n      div\n      0xffffffffffffffffffffffffffffffffffffffff\n      and\n        /* \"TimeAlly.sol\":22133:22151  token.transferFrom */\n      0xffffffffffffffffffffffffffffffffffffffff\n      and\n      0x23b872dd\n        /* \"TimeAlly.sol\":22152:22162  msg.sender */\n      caller\n        /* \"TimeAlly.sol\":22172:22176  this */\n      address\n        /* \"TimeAlly.sol\":22179:22184  loans */\n      0x08\n        /* \"TimeAlly.sol\":22179:22196  loans[msg.sender] */\n      0x00\n        /* \"TimeAlly.sol\":22185:22195  msg.sender */\n      caller\n        /* \"TimeAlly.sol\":22179:22196  loans[msg.sender] */\n      0xffffffffffffffffffffffffffffffffffffffff\n      and\n      0xffffffffffffffffffffffffffffffffffffffff\n      and\n      dup2\n      mstore\n      0x20\n      add\n      swap1\n      dup2\n      mstore\n      0x20\n      add\n      0x00\n      keccak256\n        /* \"TimeAlly.sol\":22197:22204  _loanId */\n      dup6\n        /* \"TimeAlly.sol\":22179:22205  loans[msg.sender][_loanId] */\n      dup2\n      sload\n      dup2\n      lt\n      tag_522\n      jumpi\n      invalid\n    tag_522:\n      swap1\n      0x00\n      mstore\n      keccak256(0x00, 0x20)\n      swap1\n      0x05\n      mul\n      add\n        /* \"TimeAlly.sol\":22179:22217  loans[msg.sender][_loanId].exaEsAmount */\n      0x00\n      add\n      sload\n        /* \"TimeAlly.sol\":22133:22218  token.transferFrom(msg.sender, address(this), loans[msg.sender][_loanId].exaEsAmount) */\n      mload(0x40)\n      dup5\n      0xffffffff\n      and\n      0xe0\n      shl\n      dup2\n      mstore\n      0x04\n      add\n      dup1\n      dup5\n      0xffffffffffffffffffffffffffffffffffffffff\n      and\n      0xffffffffffffffffffffffffffffffffffffffff\n      and\n      dup2\n      mstore\n      0x20\n      add\n      dup4\n      0xffffffffffffffffffffffffffffffffffffffff\n      and\n      0xffffffffffffffffffffffffffffffffffffffff\n      and\n      dup2\n      mstore\n      0x20\n      add\n      dup3\n      dup2\n      mstore\n      0x20\n      add\n      swap4\n      pop\n      pop\n      pop\n      pop\n      0x20\n      mload(0x40)\n      dup1\n      dup4\n      sub\n      dup2\n      0x00\n      dup8\n      dup1\n      extcodesize\n      iszero\n        /* \"--CODEGEN--\":8:17   */\n      dup1\n        /* \"--CODEGEN--\":5:7   */\n      iszero\n      tag_524\n      jumpi\n        /* \"--CODEGEN--\":30:31   */\n      0x00\n        /* \"--CODEGEN--\":27:28   */\n      dup1\n        /* \"--CODEGEN--\":20:32   */\n      revert\n        /* \"--CODEGEN--\":5:7   */\n    tag_524:\n        /* \"TimeAlly.sol\":22133:22218  token.transferFrom(msg.sender, address(this), loans[msg.sender][_loanId].exaEsAmount) */\n      pop\n      gas\n      call\n      iszero\n        /* \"--CODEGEN--\":8:17   */\n      dup1\n        /* \"--CODEGEN--\":5:7   */\n      iszero\n      tag_525\n      jumpi\n        /* \"--CODEGEN--\":45:61   */\n      returndatasize\n        /* \"--CODEGEN--\":42:43   */\n      0x00\n        /* \"--CODEGEN--\":39:40   */\n      dup1\n        /* \"--CODEGEN--\":24:62   */\n      returndatacopy\n        /* \"--CODEGEN--\":77:93   */\n      returndatasize\n        /* \"--CODEGEN--\":74:75   */\n      0x00\n        /* \"--CODEGEN--\":67:94   */\n      revert\n        /* \"--CODEGEN--\":5:7   */\n    tag_525:\n        /* \"TimeAlly.sol\":22133:22218  token.transferFrom(msg.sender, address(this), loans[msg.sender][_loanId].exaEsAmount) */\n      pop\n      pop\n      pop\n      pop\n      mload(0x40)\n      returndatasize\n        /* \"--CODEGEN--\":13:15   */\n      0x20\n        /* \"--CODEGEN--\":8:11   */\n      dup2\n        /* \"--CODEGEN--\":5:16   */\n      lt\n        /* \"--CODEGEN--\":2:4   */\n      iszero\n      tag_526\n      jumpi\n        /* \"--CODEGEN--\":29:30   */\n      0x00\n        /* \"--CODEGEN--\":26:27   */\n      dup1\n        /* \"--CODEGEN--\":19:31   */\n      revert\n        /* \"--CODEGEN--\":2:4   */\n    tag_526:\n        /* \"TimeAlly.sol\":22133:22218  token.transferFrom(msg.sender, address(this), loans[msg.sender][_loanId].exaEsAmount) */\n      dup2\n      add\n      swap1\n      dup1\n      dup1\n      mload\n      swap1\n      0x20\n      add\n      swap1\n      swap3\n      swap2\n      swap1\n      pop\n      pop\n      pop\n        /* \"TimeAlly.sol\":22125:22287  require(token.transferFrom(msg.sender, address(this), loans[msg.sender][_loanId].exaEsAmount), 'cannot receive enough tokens, please check if allowance is there') */\n      tag_527\n      jumpi\n      mload(0x40)\n      0x08c379a000000000000000000000000000000000000000000000000000000000\n      dup2\n      mstore\n      0x04\n      add\n      dup1\n      dup1\n      0x20\n      add\n      dup3\n      dup2\n      sub\n      dup3\n      mstore\n      0x40\n      dup2\n      mstore\n      0x20\n      add\n      dup1\n      data_9dc458dbb6ce1791a3f9802dbdb820884214d2513b45f4efec23e9f5109e79ae\n      0x40\n      swap2\n      codecopy\n      0x40\n      add\n      swap2\n      pop\n      pop\n      mload(0x40)\n      dup1\n      swap2\n      sub\n      swap1\n      revert\n    tag_527:\n        /* \"TimeAlly.sol\":22334:22335  2 */\n      0x02\n        /* \"TimeAlly.sol\":22298:22303  loans */\n      0x08\n        /* \"TimeAlly.sol\":22298:22315  loans[msg.sender] */\n      0x00\n        /* \"TimeAlly.sol\":22304:22314  msg.sender */\n      caller\n        /* \"TimeAlly.sol\":22298:22315  loans[msg.sender] */\n      0xffffffffffffffffffffffffffffffffffffffff\n      and\n      0xffffffffffffffffffffffffffffffffffffffff\n      and\n      dup2\n      mstore\n      0x20\n      add\n      swap1\n      dup2\n      mstore\n      0x20\n      add\n      0x00\n      keccak256\n        /* \"TimeAlly.sol\":22316:22323  _loanId */\n      dup3\n        /* \"TimeAlly.sol\":22298:22324  loans[msg.sender][_loanId] */\n      dup2\n      sload\n      dup2\n      lt\n      tag_528\n      jumpi\n      invalid\n    tag_528:\n      swap1\n      0x00\n      mstore\n      keccak256(0x00, 0x20)\n      swap1\n      0x05\n      mul\n      add\n        /* \"TimeAlly.sol\":22298:22331  loans[msg.sender][_loanId].status */\n      0x03\n      add\n        /* \"TimeAlly.sol\":22298:22335  loans[msg.sender][_loanId].status = 2 */\n      dup2\n      swap1\n      sstore\n      pop\n        /* \"TimeAlly.sol\":22517:22526  uint256 i */\n      0x00\n        /* \"TimeAlly.sol\":22529:22530  0 */\n      dup1\n        /* \"TimeAlly.sol\":22517:22530  uint256 i = 0 */\n      swap1\n      pop\n        /* \"TimeAlly.sol\":22513:23275  for(uint256 i = 0; i < loans[msg.sender][_loanId].stakingIds.length; i++) {... */\n    tag_530:\n        /* \"TimeAlly.sol\":22536:22541  loans */\n      0x08\n        /* \"TimeAlly.sol\":22536:22553  loans[msg.sender] */\n      0x00\n        /* \"TimeAlly.sol\":22542:22552  msg.sender */\n      caller\n        /* \"TimeAlly.sol\":22536:22553  loans[msg.sender] */\n      0xffffffffffffffffffffffffffffffffffffffff\n      and\n      0xffffffffffffffffffffffffffffffffffffffff\n      and\n      dup2\n      mstore\n      0x20\n      add\n      swap1\n      dup2\n      mstore\n      0x20\n      add\n      0x00\n      keccak256\n        /* \"TimeAlly.sol\":22554:22561  _loanId */\n      dup3\n        /* \"TimeAlly.sol\":22536:22562  loans[msg.sender][_loanId] */\n      dup2\n      sload\n      dup2\n      lt\n      tag_533\n      jumpi\n      invalid\n    tag_533:\n      swap1\n      0x00\n      mstore\n      keccak256(0x00, 0x20)\n      swap1\n      0x05\n      mul\n      add\n        /* \"TimeAlly.sol\":22536:22573  loans[msg.sender][_loanId].stakingIds */\n      0x04\n      add\n        /* \"TimeAlly.sol\":22536:22580  loans[msg.sender][_loanId].stakingIds.length */\n      dup1\n      sload\n      swap1\n      pop\n        /* \"TimeAlly.sol\":22532:22533  i */\n      dup2\n        /* \"TimeAlly.sol\":22532:22580  i < loans[msg.sender][_loanId].stakingIds.length */\n      lt\n        /* \"TimeAlly.sol\":22513:23275  for(uint256 i = 0; i < loans[msg.sender][_loanId].stakingIds.length; i++) {... */\n      iszero\n      tag_531\n      jumpi\n        /* \"TimeAlly.sol\":22601:22619  uint256 _stakingId */\n      0x00\n        /* \"TimeAlly.sol\":22622:22627  loans */\n      0x08\n        /* \"TimeAlly.sol\":22622:22639  loans[msg.sender] */\n      0x00\n        /* \"TimeAlly.sol\":22628:22638  msg.sender */\n      caller\n        /* \"TimeAlly.sol\":22622:22639  loans[msg.sender] */\n      0xffffffffffffffffffffffffffffffffffffffff\n      and\n      0xffffffffffffffffffffffffffffffffffffffff\n      and\n      dup2\n      mstore\n      0x20\n      add\n      swap1\n      dup2\n      mstore\n      0x20\n      add\n      0x00\n      keccak256\n        /* \"TimeAlly.sol\":22640:22647  _loanId */\n      dup4\n        /* \"TimeAlly.sol\":22622:22648  loans[msg.sender][_loanId] */\n      dup2\n      sload\n      dup2\n      lt\n      tag_535\n      jumpi\n      invalid\n    tag_535:\n      swap1\n      0x00\n      mstore\n      keccak256(0x00, 0x20)\n      swap1\n      0x05\n      mul\n      add\n        /* \"TimeAlly.sol\":22622:22659  loans[msg.sender][_loanId].stakingIds */\n      0x04\n      add\n        /* \"TimeAlly.sol\":22660:22661  i */\n      dup3\n        /* \"TimeAlly.sol\":22622:22662  loans[msg.sender][_loanId].stakingIds[i] */\n      dup2\n      sload\n      dup2\n      lt\n      tag_537\n      jumpi\n      invalid\n    tag_537:\n      swap1\n      0x00\n      mstore\n      keccak256(0x00, 0x20)\n      add\n      sload\n        /* \"TimeAlly.sol\":22601:22662  uint256 _stakingId = loans[msg.sender][_loanId].stakingIds[i] */\n      swap1\n      pop\n        /* \"TimeAlly.sol\":22719:22720  1 */\n      0x01\n        /* \"TimeAlly.sol\":22677:22685  stakings */\n      0x07\n        /* \"TimeAlly.sol\":22677:22697  stakings[msg.sender] */\n      0x00\n        /* \"TimeAlly.sol\":22686:22696  msg.sender */\n      caller\n        /* \"TimeAlly.sol\":22677:22697  stakings[msg.sender] */\n      0xffffffffffffffffffffffffffffffffffffffff\n      and\n      0xffffffffffffffffffffffffffffffffffffffff\n      and\n      dup2\n      mstore\n      0x20\n      add\n      swap1\n      dup2\n      mstore\n      0x20\n      add\n      0x00\n      keccak256\n        /* \"TimeAlly.sol\":22698:22708  _stakingId */\n      dup3\n        /* \"TimeAlly.sol\":22677:22709  stakings[msg.sender][_stakingId] */\n      dup2\n      sload\n      dup2\n      lt\n      tag_539\n      jumpi\n      invalid\n    tag_539:\n      swap1\n      0x00\n      mstore\n      keccak256(0x00, 0x20)\n      swap1\n      0x08\n      mul\n      add\n        /* \"TimeAlly.sol\":22677:22716  stakings[msg.sender][_stakingId].status */\n      0x03\n      add\n        /* \"TimeAlly.sol\":22677:22720  stakings[msg.sender][_stakingId].status = 1 */\n      dup2\n      swap1\n      sstore\n      pop\n        /* \"TimeAlly.sol\":22735:22760  uint256 stakingStartMonth */\n      0x00\n        /* \"TimeAlly.sol\":22763:22853  stakings[msg.sender][_stakingId].timestamp.sub(deployedTimestamp).div(earthSecondsInMonth) */\n      tag_541\n        /* \"TimeAlly.sol\":22833:22852  earthSecondsInMonth */\n      sload(0x04)\n        /* \"TimeAlly.sol\":22763:22828  stakings[msg.sender][_stakingId].timestamp.sub(deployedTimestamp) */\n      tag_542\n        /* \"TimeAlly.sol\":22810:22827  deployedTimestamp */\n      sload(0x00)\n        /* \"TimeAlly.sol\":22763:22771  stakings */\n      0x07\n        /* \"TimeAlly.sol\":22763:22783  stakings[msg.sender] */\n      0x00\n        /* \"TimeAlly.sol\":22772:22782  msg.sender */\n      caller\n        /* \"TimeAlly.sol\":22763:22783  stakings[msg.sender] */\n      0xffffffffffffffffffffffffffffffffffffffff\n      and\n      0xffffffffffffffffffffffffffffffffffffffff\n      and\n      dup2\n      mstore\n      0x20\n      add\n      swap1\n      dup2\n      mstore\n      0x20\n      add\n      0x00\n      keccak256\n        /* \"TimeAlly.sol\":22784:22794  _stakingId */\n      dup7\n        /* \"TimeAlly.sol\":22763:22795  stakings[msg.sender][_stakingId] */\n      dup2\n      sload\n      dup2\n      lt\n      tag_543\n      jumpi\n      invalid\n    tag_543:\n      swap1\n      0x00\n      mstore\n      keccak256(0x00, 0x20)\n      swap1\n      0x08\n      mul\n      add\n        /* \"TimeAlly.sol\":22763:22805  stakings[msg.sender][_stakingId].timestamp */\n      0x01\n      add\n      sload\n        /* \"TimeAlly.sol\":22763:22809  stakings[msg.sender][_stakingId].timestamp.sub */\n      tag_159\n      swap1\n        /* \"TimeAlly.sol\":22763:22828  stakings[msg.sender][_stakingId].timestamp.sub(deployedTimestamp) */\n      swap2\n      swap1\n      0xffffffff\n      and\n      jump\t// in\n    tag_542:\n        /* \"TimeAlly.sol\":22763:22832  stakings[msg.sender][_stakingId].timestamp.sub(deployedTimestamp).div */\n      tag_213\n      swap1\n        /* \"TimeAlly.sol\":22763:22853  stakings[msg.sender][_stakingId].timestamp.sub(deployedTimestamp).div(earthSecondsInMonth) */\n      swap2\n      swap1\n      0xffffffff\n      and\n      jump\t// in\n    tag_541:\n        /* \"TimeAlly.sol\":22735:22853  uint256 stakingStartMonth = stakings[msg.sender][_stakingId].timestamp.sub(deployedTimestamp).div(earthSecondsInMonth) */\n      swap1\n      pop\n        /* \"TimeAlly.sol\":22868:22889  uint256 stakeEndMonth */\n      0x00\n        /* \"TimeAlly.sol\":22912:22924  stakingPlans */\n      0x05\n        /* \"TimeAlly.sol\":22925:22933  stakings */\n      0x07\n        /* \"TimeAlly.sol\":22925:22945  stakings[msg.sender] */\n      0x00\n        /* \"TimeAlly.sol\":22934:22944  msg.sender */\n      caller\n        /* \"TimeAlly.sol\":22925:22945  stakings[msg.sender] */\n      0xffffffffffffffffffffffffffffffffffffffff\n      and\n      0xffffffffffffffffffffffffffffffffffffffff\n      and\n      dup2\n      mstore\n      0x20\n      add\n      swap1\n      dup2\n      mstore\n      0x20\n      add\n      0x00\n      keccak256\n        /* \"TimeAlly.sol\":22946:22956  _stakingId */\n      dup5\n        /* \"TimeAlly.sol\":22925:22957  stakings[msg.sender][_stakingId] */\n      dup2\n      sload\n      dup2\n      lt\n      tag_545\n      jumpi\n      invalid\n    tag_545:\n      swap1\n      0x00\n      mstore\n      keccak256(0x00, 0x20)\n      swap1\n      0x08\n      mul\n      add\n        /* \"TimeAlly.sol\":22925:22971  stakings[msg.sender][_stakingId].stakingPlanId */\n      0x02\n      add\n      sload\n        /* \"TimeAlly.sol\":22912:22972  stakingPlans[stakings[msg.sender][_stakingId].stakingPlanId] */\n      dup2\n      sload\n      dup2\n      lt\n      tag_547\n      jumpi\n      invalid\n    tag_547:\n      swap1\n      0x00\n      mstore\n      keccak256(0x00, 0x20)\n      swap1\n      0x02\n      mul\n      add\n        /* \"TimeAlly.sol\":22912:22979  stakingPlans[stakings[msg.sender][_stakingId].stakingPlanId].months */\n      0x00\n      add\n      sload\n        /* \"TimeAlly.sol\":22892:22909  stakingStartMonth */\n      dup3\n        /* \"TimeAlly.sol\":22892:22979  stakingStartMonth + stakingPlans[stakings[msg.sender][_stakingId].stakingPlanId].months */\n      add\n        /* \"TimeAlly.sol\":22868:22979  uint256 stakeEndMonth = stakingStartMonth + stakingPlans[stakings[msg.sender][_stakingId].stakingPlanId].months */\n      swap1\n      pop\n        /* \"TimeAlly.sol\":22998:23007  uint256 j */\n      0x00\n        /* \"TimeAlly.sol\":23030:23031  1 */\n      0x01\n        /* \"TimeAlly.sol\":23010:23027  getCurrentMonth() */\n      tag_552\n        /* \"TimeAlly.sol\":23010:23025  getCurrentMonth */\n      tag_130\n        /* \"TimeAlly.sol\":23010:23027  getCurrentMonth() */\n      jump\t// in\n    tag_552:\n        /* \"TimeAlly.sol\":23010:23031  getCurrentMonth() + 1 */\n      add\n        /* \"TimeAlly.sol\":22998:23031  uint256 j = getCurrentMonth() + 1 */\n      swap1\n      pop\n        /* \"TimeAlly.sol\":22994:23265  for(uint256 j = getCurrentMonth() + 1; j <= stakeEndMonth; j++) {... */\n    tag_549:\n        /* \"TimeAlly.sol\":23038:23051  stakeEndMonth */\n      dup2\n        /* \"TimeAlly.sol\":23033:23034  j */\n      dup2\n        /* \"TimeAlly.sol\":23033:23051  j <= stakeEndMonth */\n      gt\n        /* \"TimeAlly.sol\":22994:23265  for(uint256 j = getCurrentMonth() + 1; j <= stakeEndMonth; j++) {... */\n      tag_550\n      jumpi\n        /* \"TimeAlly.sol\":23129:23134  false */\n      0x00\n        /* \"TimeAlly.sol\":23076:23084  stakings */\n      0x07\n        /* \"TimeAlly.sol\":23076:23096  stakings[msg.sender] */\n      0x00\n        /* \"TimeAlly.sol\":23085:23095  msg.sender */\n      caller\n        /* \"TimeAlly.sol\":23076:23096  stakings[msg.sender] */\n      0xffffffffffffffffffffffffffffffffffffffff\n      and\n      0xffffffffffffffffffffffffffffffffffffffff\n      and\n      dup2\n      mstore\n      0x20\n      add\n      swap1\n      dup2\n      mstore\n      0x20\n      add\n      0x00\n      keccak256\n        /* \"TimeAlly.sol\":23097:23107  _stakingId */\n      dup6\n        /* \"TimeAlly.sol\":23076:23108  stakings[msg.sender][_stakingId] */\n      dup2\n      sload\n      dup2\n      lt\n      tag_553\n      jumpi\n      invalid\n    tag_553:\n      swap1\n      0x00\n      mstore\n      keccak256(0x00, 0x20)\n      swap1\n      0x08\n      mul\n      add\n        /* \"TimeAlly.sol\":23076:23123  stakings[msg.sender][_stakingId].isMonthClaimed */\n      0x06\n      add\n        /* \"TimeAlly.sol\":23076:23126  stakings[msg.sender][_stakingId].isMonthClaimed[i] */\n      0x00\n        /* \"TimeAlly.sol\":23124:23125  i */\n      dup8\n        /* \"TimeAlly.sol\":23076:23126  stakings[msg.sender][_stakingId].isMonthClaimed[i] */\n      dup2\n      mstore\n      0x20\n      add\n      swap1\n      dup2\n      mstore\n      0x20\n      add\n      0x00\n      keccak256\n      0x00\n        /* \"TimeAlly.sol\":23076:23134  stakings[msg.sender][_stakingId].isMonthClaimed[i] = false */\n      0x0100\n      exp\n      dup2\n      sload\n      dup2\n      0xff\n      mul\n      not\n      and\n      swap1\n      dup4\n      iszero\n      iszero\n      mul\n      or\n      swap1\n      sstore\n      pop\n        /* \"TimeAlly.sol\":23178:23250  totalActiveStakings[j].add(stakings[msg.sender][_stakingId].exaEsAmount) */\n      tag_555\n        /* \"TimeAlly.sol\":23205:23213  stakings */\n      0x07\n        /* \"TimeAlly.sol\":23205:23225  stakings[msg.sender] */\n      0x00\n        /* \"TimeAlly.sol\":23214:23224  msg.sender */\n      caller\n        /* \"TimeAlly.sol\":23205:23225  stakings[msg.sender] */\n      0xffffffffffffffffffffffffffffffffffffffff\n      and\n      0xffffffffffffffffffffffffffffffffffffffff\n      and\n      dup2\n      mstore\n      0x20\n      add\n      swap1\n      dup2\n      mstore\n      0x20\n      add\n      0x00\n      keccak256\n        /* \"TimeAlly.sol\":23226:23236  _stakingId */\n      dup6\n        /* \"TimeAlly.sol\":23205:23237  stakings[msg.sender][_stakingId] */\n      dup2\n      sload\n      dup2\n      lt\n      tag_556\n      jumpi\n      invalid\n    tag_556:\n      swap1\n      0x00\n      mstore\n      keccak256(0x00, 0x20)\n      swap1\n      0x08\n      mul\n      add\n        /* \"TimeAlly.sol\":23205:23249  stakings[msg.sender][_stakingId].exaEsAmount */\n      0x00\n      add\n      sload\n        /* \"TimeAlly.sol\":23178:23197  totalActiveStakings */\n      0x0a\n        /* \"TimeAlly.sol\":23178:23200  totalActiveStakings[j] */\n      0x00\n        /* \"TimeAlly.sol\":23198:23199  j */\n      dup5\n        /* \"TimeAlly.sol\":23178:23200  totalActiveStakings[j] */\n      dup2\n      mstore\n      0x20\n      add\n      swap1\n      dup2\n      mstore\n      0x20\n      add\n      0x00\n      keccak256\n      sload\n        /* \"TimeAlly.sol\":23178:23204  totalActiveStakings[j].add */\n      tag_163\n      swap1\n        /* \"TimeAlly.sol\":23178:23250  totalActiveStakings[j].add(stakings[msg.sender][_stakingId].exaEsAmount) */\n      swap2\n      swap1\n      0xffffffff\n      and\n      jump\t// in\n    tag_555:\n        /* \"TimeAlly.sol\":23153:23172  totalActiveStakings */\n      0x0a\n        /* \"TimeAlly.sol\":23153:23175  totalActiveStakings[j] */\n      0x00\n        /* \"TimeAlly.sol\":23173:23174  j */\n      dup4\n        /* \"TimeAlly.sol\":23153:23175  totalActiveStakings[j] */\n      dup2\n      mstore\n      0x20\n      add\n      swap1\n      dup2\n      mstore\n      0x20\n      add\n      0x00\n      keccak256\n        /* \"TimeAlly.sol\":23153:23250  totalActiveStakings[j] = totalActiveStakings[j].add(stakings[msg.sender][_stakingId].exaEsAmount) */\n      dup2\n      swap1\n      sstore\n      pop\n        /* \"TimeAlly.sol\":23053:23056  j++ */\n      dup1\n      dup1\n      0x01\n      add\n      swap2\n      pop\n      pop\n        /* \"TimeAlly.sol\":22994:23265  for(uint256 j = getCurrentMonth() + 1; j <= stakeEndMonth; j++) {... */\n      jump(tag_549)\n    tag_550:\n      pop\n        /* \"TimeAlly.sol\":22513:23275  for(uint256 i = 0; i < loans[msg.sender][_loanId].stakingIds.length; i++) {... */\n      pop\n      pop\n      pop\n        /* \"TimeAlly.sol\":22582:22585  i++ */\n      dup1\n      dup1\n      0x01\n      add\n      swap2\n      pop\n      pop\n        /* \"TimeAlly.sol\":22513:23275  for(uint256 i = 0; i < loans[msg.sender][_loanId].stakingIds.length; i++) {... */\n      jump(tag_530)\n    tag_531:\n      pop\n        /* \"TimeAlly.sol\":21978:23282  function repayLoanSelf(uint256 _loanId) public {... */\n      pop\n      jump\t// out\n        /* \"TimeAlly.sol\":4650:5798  function newStaking(uint256 _exaEsAmount, uint256 _stakingPlanId) public {... */\n    tag_136:\n        /* \"TimeAlly.sol\":4741:4746  token */\n      0x02\n      0x00\n      swap1\n      sload\n      swap1\n      0x0100\n      exp\n      swap1\n      div\n      0xffffffffffffffffffffffffffffffffffffffff\n      and\n        /* \"TimeAlly.sol\":4741:4759  token.transferFrom */\n      0xffffffffffffffffffffffffffffffffffffffff\n      and\n      0x23b872dd\n        /* \"TimeAlly.sol\":4760:4770  msg.sender */\n      caller\n        /* \"TimeAlly.sol\":4780:4784  this */\n      address\n        /* \"TimeAlly.sol\":4787:4799  _exaEsAmount */\n      dup6\n        /* \"TimeAlly.sol\":4741:4800  token.transferFrom(msg.sender, address(this), _exaEsAmount) */\n      mload(0x40)\n      dup5\n      0xffffffff\n      and\n      0xe0\n      shl\n      dup2\n      mstore\n      0x04\n      add\n      dup1\n      dup5\n      0xffffffffffffffffffffffffffffffffffffffff\n      and\n      0xffffffffffffffffffffffffffffffffffffffff\n      and\n      dup2\n      mstore\n      0x20\n      add\n      dup4\n      0xffffffffffffffffffffffffffffffffffffffff\n      and\n      0xffffffffffffffffffffffffffffffffffffffff\n      and\n      dup2\n      mstore\n      0x20\n      add\n      dup3\n      dup2\n      mstore\n      0x20\n      add\n      swap4\n      pop\n      pop\n      pop\n      pop\n      0x20\n      mload(0x40)\n      dup1\n      dup4\n      sub\n      dup2\n      0x00\n      dup8\n      dup1\n      extcodesize\n      iszero\n        /* \"--CODEGEN--\":8:17   */\n      dup1\n        /* \"--CODEGEN--\":5:7   */\n      iszero\n      tag_559\n      jumpi\n        /* \"--CODEGEN--\":30:31   */\n      0x00\n        /* \"--CODEGEN--\":27:28   */\n      dup1\n        /* \"--CODEGEN--\":20:32   */\n      revert\n        /* \"--CODEGEN--\":5:7   */\n    tag_559:\n        /* \"TimeAlly.sol\":4741:4800  token.transferFrom(msg.sender, address(this), _exaEsAmount) */\n      pop\n      gas\n      call\n      iszero\n        /* \"--CODEGEN--\":8:17   */\n      dup1\n        /* \"--CODEGEN--\":5:7   */\n      iszero\n      tag_560\n      jumpi\n        /* \"--CODEGEN--\":45:61   */\n      returndatasize\n        /* \"--CODEGEN--\":42:43   */\n      0x00\n        /* \"--CODEGEN--\":39:40   */\n      dup1\n        /* \"--CODEGEN--\":24:62   */\n      returndatacopy\n        /* \"--CODEGEN--\":77:93   */\n      returndatasize\n        /* \"--CODEGEN--\":74:75   */\n      0x00\n        /* \"--CODEGEN--\":67:94   */\n      revert\n        /* \"--CODEGEN--\":5:7   */\n    tag_560:\n        /* \"TimeAlly.sol\":4741:4800  token.transferFrom(msg.sender, address(this), _exaEsAmount) */\n      pop\n      pop\n      pop\n      pop\n      mload(0x40)\n      returndatasize\n        /* \"--CODEGEN--\":13:15   */\n      0x20\n        /* \"--CODEGEN--\":8:11   */\n      dup2\n        /* \"--CODEGEN--\":5:16   */\n      lt\n        /* \"--CODEGEN--\":2:4   */\n      iszero\n      tag_561\n      jumpi\n        /* \"--CODEGEN--\":29:30   */\n      0x00\n        /* \"--CODEGEN--\":26:27   */\n      dup1\n        /* \"--CODEGEN--\":19:31   */\n      revert\n        /* \"--CODEGEN--\":2:4   */\n    tag_561:\n        /* \"TimeAlly.sol\":4741:4800  token.transferFrom(msg.sender, address(this), _exaEsAmount) */\n      dup2\n      add\n      swap1\n      dup1\n      dup1\n      mload\n      swap1\n      0x20\n      add\n      swap1\n      swap3\n      swap2\n      swap1\n      pop\n      pop\n      pop\n        /* \"TimeAlly.sol\":4733:4830  require(token.transferFrom(msg.sender, address(this), _exaEsAmount), 'could not transfer tokens') */\n      tag_562\n      jumpi\n      mload(0x40)\n      0x08c379a000000000000000000000000000000000000000000000000000000000\n      dup2\n      mstore\n      0x04\n      add\n      dup1\n      dup1\n      0x20\n      add\n      dup3\n      dup2\n      sub\n      dup3\n      mstore\n      0x19\n      dup2\n      mstore\n      0x20\n      add\n      dup1\n      0x636f756c64206e6f74207472616e7366657220746f6b656e7300000000000000\n      dup2\n      mstore\n      pop\n      0x20\n      add\n      swap2\n      pop\n      pop\n      mload(0x40)\n      dup1\n      swap2\n      sub\n      swap1\n      revert\n    tag_562:\n        /* \"TimeAlly.sol\":4840:4861  uint256 stakeEndMonth */\n      0x00\n        /* \"TimeAlly.sol\":4888:4900  stakingPlans */\n      0x05\n        /* \"TimeAlly.sol\":4901:4915  _stakingPlanId */\n      dup3\n        /* \"TimeAlly.sol\":4888:4916  stakingPlans[_stakingPlanId] */\n      dup2\n      sload\n      dup2\n      lt\n      tag_563\n      jumpi\n      invalid\n    tag_563:\n      swap1\n      0x00\n      mstore\n      keccak256(0x00, 0x20)\n      swap1\n      0x02\n      mul\n      add\n        /* \"TimeAlly.sol\":4888:4923  stakingPlans[_stakingPlanId].months */\n      0x00\n      add\n      sload\n        /* \"TimeAlly.sol\":4884:4885  1 */\n      0x01\n        /* \"TimeAlly.sol\":4864:4881  getCurrentMonth() */\n      tag_565\n        /* \"TimeAlly.sol\":4864:4879  getCurrentMonth */\n      tag_130\n        /* \"TimeAlly.sol\":4864:4881  getCurrentMonth() */\n      jump\t// in\n    tag_565:\n        /* \"TimeAlly.sol\":4864:4885  getCurrentMonth() + 1 */\n      add\n        /* \"TimeAlly.sol\":4864:4923  getCurrentMonth() + 1 + stakingPlans[_stakingPlanId].months */\n      add\n        /* \"TimeAlly.sol\":4840:4923  uint256 stakeEndMonth = getCurrentMonth() + 1 + stakingPlans[_stakingPlanId].months */\n      swap1\n      pop\n        /* \"TimeAlly.sol\":5054:5067  uint256 month */\n      0x00\n        /* \"TimeAlly.sol\":5090:5091  1 */\n      0x01\n        /* \"TimeAlly.sol\":5070:5087  getCurrentMonth() */\n      tag_569\n        /* \"TimeAlly.sol\":5070:5085  getCurrentMonth */\n      tag_130\n        /* \"TimeAlly.sol\":5070:5087  getCurrentMonth() */\n      jump\t// in\n    tag_569:\n        /* \"TimeAlly.sol\":5070:5091  getCurrentMonth() + 1 */\n      add\n        /* \"TimeAlly.sol\":5054:5091  uint256 month = getCurrentMonth() + 1 */\n      swap1\n      pop\n        /* \"TimeAlly.sol\":5039:5249  for(... */\n    tag_566:\n        /* \"TimeAlly.sol\":5111:5124  stakeEndMonth */\n      dup2\n        /* \"TimeAlly.sol\":5103:5108  month */\n      dup2\n        /* \"TimeAlly.sol\":5103:5124  month < stakeEndMonth */\n      lt\n        /* \"TimeAlly.sol\":5039:5249  for(... */\n      iszero\n      tag_567\n      jumpi\n        /* \"TimeAlly.sol\":5226:5238  _exaEsAmount */\n      dup4\n        /* \"TimeAlly.sol\":5197:5216  totalActiveStakings */\n      0x0a\n        /* \"TimeAlly.sol\":5197:5223  totalActiveStakings[month] */\n      0x00\n        /* \"TimeAlly.sol\":5217:5222  month */\n      dup4\n        /* \"TimeAlly.sol\":5197:5223  totalActiveStakings[month] */\n      dup2\n      mstore\n      0x20\n      add\n      swap1\n      dup2\n      mstore\n      0x20\n      add\n      0x00\n      keccak256\n      sload\n        /* \"TimeAlly.sol\":5197:5238  totalActiveStakings[month] + _exaEsAmount */\n      add\n        /* \"TimeAlly.sol\":5168:5187  totalActiveStakings */\n      0x0a\n        /* \"TimeAlly.sol\":5168:5194  totalActiveStakings[month] */\n      0x00\n        /* \"TimeAlly.sol\":5188:5193  month */\n      dup4\n        /* \"TimeAlly.sol\":5168:5194  totalActiveStakings[month] */\n      dup2\n      mstore\n      0x20\n      add\n      swap1\n      dup2\n      mstore\n      0x20\n      add\n      0x00\n      keccak256\n        /* \"TimeAlly.sol\":5168:5238  totalActiveStakings[month] = totalActiveStakings[month] + _exaEsAmount */\n      dup2\n      swap1\n      sstore\n      pop\n        /* \"TimeAlly.sol\":5136:5143  month++ */\n      dup1\n      dup1\n      0x01\n      add\n      swap2\n      pop\n      pop\n        /* \"TimeAlly.sol\":5039:5249  for(... */\n      jump(tag_566)\n    tag_567:\n      pop\n        /* \"TimeAlly.sol\":5259:5294  Staking[] storage userStakingsArray */\n      0x00\n        /* \"TimeAlly.sol\":5297:5305  stakings */\n      0x07\n        /* \"TimeAlly.sol\":5297:5317  stakings[msg.sender] */\n      0x00\n        /* \"TimeAlly.sol\":5306:5316  msg.sender */\n      caller\n        /* \"TimeAlly.sol\":5297:5317  stakings[msg.sender] */\n      0xffffffffffffffffffffffffffffffffffffffff\n      and\n      0xffffffffffffffffffffffffffffffffffffffff\n      and\n      dup2\n      mstore\n      0x20\n      add\n      swap1\n      dup2\n      mstore\n      0x20\n      add\n      0x00\n      keccak256\n        /* \"TimeAlly.sol\":5259:5317  Staking[] storage userStakingsArray = stakings[msg.sender] */\n      swap1\n      pop\n        /* \"TimeAlly.sol\":5327:5344  userStakingsArray */\n      dup1\n        /* \"TimeAlly.sol\":5350:5692  Staking({... */\n      mload(0x40)\n      dup1\n      0xc0\n      add\n      0x40\n      mstore\n      dup1\n        /* \"TimeAlly.sol\":5385:5397  _exaEsAmount */\n      dup7\n        /* \"TimeAlly.sol\":5350:5692  Staking({... */\n      dup2\n      mstore\n      0x20\n      add\n        /* \"TimeAlly.sol\":5422:5427  token */\n      0x02\n      0x00\n      swap1\n      sload\n      swap1\n      0x0100\n      exp\n      swap1\n      div\n      0xffffffffffffffffffffffffffffffffffffffff\n      and\n        /* \"TimeAlly.sol\":5422:5431  token.mou */\n      0xffffffffffffffffffffffffffffffffffffffff\n      and\n      0xb81f90f3\n        /* \"TimeAlly.sol\":5422:5433  token.mou() */\n      mload(0x40)\n      dup2\n      0xffffffff\n      and\n      0xe0\n      shl\n      dup2\n      mstore\n      0x04\n      add\n      0x20\n      mload(0x40)\n      dup1\n      dup4\n      sub\n      dup2\n      dup7\n      dup1\n      extcodesize\n      iszero\n        /* \"--CODEGEN--\":8:17   */\n      dup1\n        /* \"--CODEGEN--\":5:7   */\n      iszero\n      tag_570\n      jumpi\n        /* \"--CODEGEN--\":30:31   */\n      0x00\n        /* \"--CODEGEN--\":27:28   */\n      dup1\n        /* \"--CODEGEN--\":20:32   */\n      revert\n        /* \"--CODEGEN--\":5:7   */\n    tag_570:\n        /* \"TimeAlly.sol\":5422:5433  token.mou() */\n      pop\n      gas\n      staticcall\n      iszero\n        /* \"--CODEGEN--\":8:17   */\n      dup1\n        /* \"--CODEGEN--\":5:7   */\n      iszero\n      tag_571\n      jumpi\n        /* \"--CODEGEN--\":45:61   */\n      returndatasize\n        /* \"--CODEGEN--\":42:43   */\n      0x00\n        /* \"--CODEGEN--\":39:40   */\n      dup1\n        /* \"--CODEGEN--\":24:62   */\n      returndatacopy\n        /* \"--CODEGEN--\":77:93   */\n      returndatasize\n        /* \"--CODEGEN--\":74:75   */\n      0x00\n        /* \"--CODEGEN--\":67:94   */\n      revert\n        /* \"--CODEGEN--\":5:7   */\n    tag_571:\n        /* \"TimeAlly.sol\":5422:5433  token.mou() */\n      pop\n      pop\n      pop\n      pop\n      mload(0x40)\n      returndatasize\n        /* \"--CODEGEN--\":13:15   */\n      0x20\n        /* \"--CODEGEN--\":8:11   */\n      dup2\n        /* \"--CODEGEN--\":5:16   */\n      lt\n        /* \"--CODEGEN--\":2:4   */\n      iszero\n      tag_572\n      jumpi\n        /* \"--CODEGEN--\":29:30   */\n      0x00\n        /* \"--CODEGEN--\":26:27   */\n      dup1\n        /* \"--CODEGEN--\":19:31   */\n      revert\n        /* \"--CODEGEN--\":2:4   */\n    tag_572:\n        /* \"TimeAlly.sol\":5422:5433  token.mou() */\n      dup2\n      add\n      swap1\n      dup1\n      dup1\n      mload\n      swap1\n      0x20\n      add\n      swap1\n      swap3\n      swap2\n      swap1\n      pop\n      pop\n      pop\n        /* \"TimeAlly.sol\":5350:5692  Staking({... */\n      dup2\n      mstore\n      0x20\n      add\n        /* \"TimeAlly.sol\":5462:5476  _stakingPlanId */\n      dup6\n        /* \"TimeAlly.sol\":5350:5692  Staking({... */\n      dup2\n      mstore\n      0x20\n      add\n        /* \"TimeAlly.sol\":5498:5499  1 */\n      0x01\n        /* \"TimeAlly.sol\":5350:5692  Staking({... */\n      dup2\n      mstore\n      0x20\n      add\n        /* \"TimeAlly.sol\":5559:5560  0 */\n      0x00\n        /* \"TimeAlly.sol\":5350:5692  Staking({... */\n      dup2\n      mstore\n      0x20\n      add\n        /* \"TimeAlly.sol\":5680:5681  0 */\n      0x00\n        /* \"TimeAlly.sol\":5350:5692  Staking({... */\n      dup2\n      mstore\n      pop\n        /* \"TimeAlly.sol\":5327:5693  userStakingsArray.push(Staking({... */\n      swap1\n      dup1\n        /* \"--CODEGEN--\":39:40   */\n      0x01\n        /* \"--CODEGEN--\":33:36   */\n      dup2\n        /* \"--CODEGEN--\":27:37   */\n      sload\n        /* \"--CODEGEN--\":23:41   */\n      add\n        /* \"--CODEGEN--\":57:67   */\n      dup1\n        /* \"--CODEGEN--\":52:55   */\n      dup3\n        /* \"--CODEGEN--\":45:68   */\n      sstore\n        /* \"--CODEGEN--\":79:89   */\n      dup1\n        /* \"--CODEGEN--\":72:89   */\n      swap2\n      pop\n        /* \"--CODEGEN--\":0:93   */\n      pop\n        /* \"TimeAlly.sol\":5327:5693  userStakingsArray.push(Staking({... */\n      swap1\n      0x01\n      dup3\n      sub\n      swap1\n      0x00\n      mstore\n      keccak256(0x00, 0x20)\n      swap1\n      0x08\n      mul\n      add\n      0x00\n      swap1\n      swap2\n      swap3\n      swap1\n      swap2\n      swap1\n      swap2\n      pop\n      0x00\n      dup3\n      add\n      mload\n      dup2\n      0x00\n      add\n      sstore\n      0x20\n      dup3\n      add\n      mload\n      dup2\n      0x01\n      add\n      sstore\n      0x40\n      dup3\n      add\n      mload\n      dup2\n      0x02\n      add\n      sstore\n      0x60\n      dup3\n      add\n      mload\n      dup2\n      0x03\n      add\n      sstore\n      0x80\n      dup3\n      add\n      mload\n      dup2\n      0x04\n      add\n      sstore\n      0xa0\n      dup3\n      add\n      mload\n      dup2\n      0x05\n      add\n      sstore\n      pop\n      pop\n      pop\n        /* \"TimeAlly.sol\":5732:5746  _stakingPlanId */\n      dup3\n        /* \"TimeAlly.sol\":5720:5730  msg.sender */\n      caller\n        /* \"TimeAlly.sol\":5709:5791  NewStaking(msg.sender, _stakingPlanId, _exaEsAmount, userStakingsArray.length - 1) */\n      0xffffffffffffffffffffffffffffffffffffffff\n      and\n      0x680a0e2e97ad7c29da7985e37b699f19857c055166f801e50d90661eae30fcc3\n        /* \"TimeAlly.sol\":5748:5760  _exaEsAmount */\n      dup7\n        /* \"TimeAlly.sol\":5789:5790  1 */\n      0x01\n        /* \"TimeAlly.sol\":5762:5779  userStakingsArray */\n      dup6\n        /* \"TimeAlly.sol\":5762:5786  userStakingsArray.length */\n      dup1\n      sload\n      swap1\n      pop\n        /* \"TimeAlly.sol\":5762:5790  userStakingsArray.length - 1 */\n      sub\n        /* \"TimeAlly.sol\":5709:5791  NewStaking(msg.sender, _stakingPlanId, _exaEsAmount, userStakingsArray.length - 1) */\n      mload(0x40)\n      dup1\n      dup4\n      dup2\n      mstore\n      0x20\n      add\n      dup3\n      dup2\n      mstore\n      0x20\n      add\n      swap3\n      pop\n      pop\n      pop\n      mload(0x40)\n      dup1\n      swap2\n      sub\n      swap1\n      log3\n        /* \"TimeAlly.sol\":4650:5798  function newStaking(uint256 _exaEsAmount, uint256 _stakingPlanId) public {... */\n      pop\n      pop\n      pop\n      pop\n      jump\t// out\n        /* \"TimeAlly.sol\":3595:3716  function increaseMonth(uint256 _timeAllyNRT) public onlyNRTManager {... */\n    tag_139:\n        /* \"TimeAlly.sol\":3016:3026  nrtManager */\n      0x03\n      0x00\n      swap1\n      sload\n      swap1\n      0x0100\n      exp\n      swap1\n      div\n      0xffffffffffffffffffffffffffffffffffffffff\n      and\n        /* \"TimeAlly.sol\":2994:3027  msg.sender == address(nrtManager) */\n      0xffffffffffffffffffffffffffffffffffffffff\n      and\n        /* \"TimeAlly.sol\":2994:3004  msg.sender */\n      caller\n        /* \"TimeAlly.sol\":2994:3027  msg.sender == address(nrtManager) */\n      0xffffffffffffffffffffffffffffffffffffffff\n      and\n      eq\n        /* \"TimeAlly.sol\":2986:3057  require(msg.sender == address(nrtManager), 'only NRT manager can call') */\n      tag_575\n      jumpi\n      mload(0x40)\n      0x08c379a000000000000000000000000000000000000000000000000000000000\n      dup2\n      mstore\n      0x04\n      add\n      dup1\n      dup1\n      0x20\n      add\n      dup3\n      dup2\n      sub\n      dup3\n      mstore\n      0x19\n      dup2\n      mstore\n      0x20\n      add\n      dup1\n      0x6f6e6c79204e5254206d616e616765722063616e2063616c6c00000000000000\n      dup2\n      mstore\n      pop\n      0x20\n      add\n      swap2\n      pop\n      pop\n      mload(0x40)\n      dup1\n      swap2\n      sub\n      swap1\n      revert\n    tag_575:\n        /* \"TimeAlly.sol\":3672:3690  timeAllyMonthlyNRT */\n      0x0b\n        /* \"TimeAlly.sol\":3696:3708  _timeAllyNRT */\n      dup2\n        /* \"TimeAlly.sol\":3672:3709  timeAllyMonthlyNRT.push(_timeAllyNRT) */\n      swap1\n      dup1\n        /* \"--CODEGEN--\":39:40   */\n      0x01\n        /* \"--CODEGEN--\":33:36   */\n      dup2\n        /* \"--CODEGEN--\":27:37   */\n      sload\n        /* \"--CODEGEN--\":23:41   */\n      add\n        /* \"--CODEGEN--\":57:67   */\n      dup1\n        /* \"--CODEGEN--\":52:55   */\n      dup3\n        /* \"--CODEGEN--\":45:68   */\n      sstore\n        /* \"--CODEGEN--\":79:89   */\n      dup1\n        /* \"--CODEGEN--\":72:89   */\n      swap2\n      pop\n        /* \"--CODEGEN--\":0:93   */\n      pop\n        /* \"TimeAlly.sol\":3672:3709  timeAllyMonthlyNRT.push(_timeAllyNRT) */\n      swap1\n      0x01\n      dup3\n      sub\n      swap1\n      0x00\n      mstore\n      keccak256(0x00, 0x20)\n      add\n      0x00\n      swap1\n      swap2\n      swap3\n      swap1\n      swap2\n      swap1\n      swap2\n      pop\n      sstore\n      pop\n        /* \"TimeAlly.sol\":3595:3716  function increaseMonth(uint256 _timeAllyNRT) public onlyNRTManager {... */\n      pop\n      jump\t// out\n        /* \"TimeAlly.sol\":14303:15022  function withdrawExpiredStakings(uint256[] memory _stakings) public {... */\n    tag_145:\n        /* \"TimeAlly.sol\":14385:14394  uint256 i */\n      0x00\n        /* \"TimeAlly.sol\":14397:14398  0 */\n      dup1\n        /* \"TimeAlly.sol\":14385:14398  uint256 i = 0 */\n      swap1\n      pop\n        /* \"TimeAlly.sol\":14381:15016  for(uint256 i = 0; i < _stakings.length; i++) {... */\n    tag_579:\n        /* \"TimeAlly.sol\":14404:14413  _stakings */\n      dup2\n        /* \"TimeAlly.sol\":14404:14420  _stakings.length */\n      mload\n        /* \"TimeAlly.sol\":14400:14401  i */\n      dup2\n        /* \"TimeAlly.sol\":14400:14420  i < _stakings.length */\n      lt\n        /* \"TimeAlly.sol\":14381:15016  for(uint256 i = 0; i < _stakings.length; i++) {... */\n      iszero\n      tag_580\n      jumpi\n        /* \"TimeAlly.sol\":14485:14486  3 */\n      0x03\n        /* \"TimeAlly.sol\":14441:14449  stakings */\n      0x07\n        /* \"TimeAlly.sol\":14441:14461  stakings[msg.sender] */\n      0x00\n        /* \"TimeAlly.sol\":14450:14460  msg.sender */\n      caller\n        /* \"TimeAlly.sol\":14441:14461  stakings[msg.sender] */\n      0xffffffffffffffffffffffffffffffffffffffff\n      and\n      0xffffffffffffffffffffffffffffffffffffffff\n      and\n      dup2\n      mstore\n      0x20\n      add\n      swap1\n      dup2\n      mstore\n      0x20\n      add\n      0x00\n      keccak256\n        /* \"TimeAlly.sol\":14462:14471  _stakings */\n      dup4\n        /* \"TimeAlly.sol\":14472:14473  i */\n      dup4\n        /* \"TimeAlly.sol\":14462:14474  _stakings[i] */\n      dup2\n      mload\n      dup2\n      lt\n      tag_582\n      jumpi\n      invalid\n    tag_582:\n      0x20\n      mul\n      0x20\n      add\n      add\n      mload\n        /* \"TimeAlly.sol\":14441:14475  stakings[msg.sender][_stakings[i]] */\n      dup2\n      sload\n      dup2\n      lt\n      tag_583\n      jumpi\n      invalid\n    tag_583:\n      swap1\n      0x00\n      mstore\n      keccak256(0x00, 0x20)\n      swap1\n      0x08\n      mul\n      add\n        /* \"TimeAlly.sol\":14441:14482  stakings[msg.sender][_stakings[i]].status */\n      0x03\n      add\n        /* \"TimeAlly.sol\":14441:14486  stakings[msg.sender][_stakings[i]].status = 3 */\n      dup2\n      swap1\n      sstore\n      pop\n        /* \"TimeAlly.sol\":14931:14936  token */\n      0x02\n      0x00\n      swap1\n      sload\n      swap1\n      0x0100\n      exp\n      swap1\n      div\n      0xffffffffffffffffffffffffffffffffffffffff\n      and\n        /* \"TimeAlly.sol\":14931:14945  token.transfer */\n      0xffffffffffffffffffffffffffffffffffffffff\n      and\n      0xa9059cbb\n        /* \"TimeAlly.sol\":14946:14956  msg.sender */\n      caller\n        /* \"TimeAlly.sol\":14958:14966  stakings */\n      0x07\n        /* \"TimeAlly.sol\":14958:14978  stakings[msg.sender] */\n      0x00\n        /* \"TimeAlly.sol\":14967:14977  msg.sender */\n      caller\n        /* \"TimeAlly.sol\":14958:14978  stakings[msg.sender] */\n      0xffffffffffffffffffffffffffffffffffffffff\n      and\n      0xffffffffffffffffffffffffffffffffffffffff\n      and\n      dup2\n      mstore\n      0x20\n      add\n      swap1\n      dup2\n      mstore\n      0x20\n      add\n      0x00\n      keccak256\n        /* \"TimeAlly.sol\":14979:14988  _stakings */\n      dup6\n        /* \"TimeAlly.sol\":14989:14990  i */\n      dup6\n        /* \"TimeAlly.sol\":14979:14991  _stakings[i] */\n      dup2\n      mload\n      dup2\n      lt\n      tag_585\n      jumpi\n      invalid\n    tag_585:\n      0x20\n      mul\n      0x20\n      add\n      add\n      mload\n        /* \"TimeAlly.sol\":14958:14992  stakings[msg.sender][_stakings[i]] */\n      dup2\n      sload\n      dup2\n      lt\n      tag_586\n      jumpi\n      invalid\n    tag_586:\n      swap1\n      0x00\n      mstore\n      keccak256(0x00, 0x20)\n      swap1\n      0x08\n      mul\n      add\n        /* \"TimeAlly.sol\":14958:15004  stakings[msg.sender][_stakings[i]].exaEsAmount */\n      0x00\n      add\n      sload\n        /* \"TimeAlly.sol\":14931:15005  token.transfer(msg.sender, stakings[msg.sender][_stakings[i]].exaEsAmount) */\n      mload(0x40)\n      dup4\n      0xffffffff\n      and\n      0xe0\n      shl\n      dup2\n      mstore\n      0x04\n      add\n      dup1\n      dup4\n      0xffffffffffffffffffffffffffffffffffffffff\n      and\n      0xffffffffffffffffffffffffffffffffffffffff\n      and\n      dup2\n      mstore\n      0x20\n      add\n      dup3\n      dup2\n      mstore\n      0x20\n      add\n      swap3\n      pop\n      pop\n      pop\n      0x20\n      mload(0x40)\n      dup1\n      dup4\n      sub\n      dup2\n      0x00\n      dup8\n      dup1\n      extcodesize\n      iszero\n        /* \"--CODEGEN--\":8:17   */\n      dup1\n        /* \"--CODEGEN--\":5:7   */\n      iszero\n      tag_588\n      jumpi\n        /* \"--CODEGEN--\":30:31   */\n      0x00\n        /* \"--CODEGEN--\":27:28   */\n      dup1\n        /* \"--CODEGEN--\":20:32   */\n      revert\n        /* \"--CODEGEN--\":5:7   */\n    tag_588:\n        /* \"TimeAlly.sol\":14931:15005  token.transfer(msg.sender, stakings[msg.sender][_stakings[i]].exaEsAmount) */\n      pop\n      gas\n      call\n      iszero\n        /* \"--CODEGEN--\":8:17   */\n      dup1\n        /* \"--CODEGEN--\":5:7   */\n      iszero\n      tag_589\n      jumpi\n        /* \"--CODEGEN--\":45:61   */\n      returndatasize\n        /* \"--CODEGEN--\":42:43   */\n      0x00\n        /* \"--CODEGEN--\":39:40   */\n      dup1\n        /* \"--CODEGEN--\":24:62   */\n      returndatacopy\n        /* \"--CODEGEN--\":77:93   */\n      returndatasize\n        /* \"--CODEGEN--\":74:75   */\n      0x00\n        /* \"--CODEGEN--\":67:94   */\n      revert\n        /* \"--CODEGEN--\":5:7   */\n    tag_589:\n        /* \"TimeAlly.sol\":14931:15005  token.transfer(msg.sender, stakings[msg.sender][_stakings[i]].exaEsAmount) */\n      pop\n      pop\n      pop\n      pop\n      mload(0x40)\n      returndatasize\n        /* \"--CODEGEN--\":13:15   */\n      0x20\n        /* \"--CODEGEN--\":8:11   */\n      dup2\n        /* \"--CODEGEN--\":5:16   */\n      lt\n        /* \"--CODEGEN--\":2:4   */\n      iszero\n      tag_590\n      jumpi\n        /* \"--CODEGEN--\":29:30   */\n      0x00\n        /* \"--CODEGEN--\":26:27   */\n      dup1\n        /* \"--CODEGEN--\":19:31   */\n      revert\n        /* \"--CODEGEN--\":2:4   */\n    tag_590:\n        /* \"TimeAlly.sol\":14931:15005  token.transfer(msg.sender, stakings[msg.sender][_stakings[i]].exaEsAmount) */\n      dup2\n      add\n      swap1\n      dup1\n      dup1\n      mload\n      swap1\n      0x20\n      add\n      swap1\n      swap3\n      swap2\n      swap1\n      pop\n      pop\n      pop\n      pop\n        /* \"TimeAlly.sol\":14422:14425  i++ */\n      dup1\n      dup1\n      0x01\n      add\n      swap2\n      pop\n      pop\n        /* \"TimeAlly.sol\":14381:15016  for(uint256 i = 0; i < _stakings.length; i++) {... */\n      jump(tag_579)\n    tag_580:\n      pop\n        /* \"TimeAlly.sol\":14303:15022  function withdrawExpiredStakings(uint256[] memory _stakings) public {... */\n      pop\n      jump\t// out\n        /* \"TimeAlly.sol\":9255:10309  function userActiveStakingByMonth(address _userAddress, uint256 _atMonth) public view returns (uint256) {... */\n    tag_148:\n        /* \"TimeAlly.sol\":9350:9357  uint256 */\n      0x00\n        /* \"TimeAlly.sol\":9583:9604  uint256 _currentMonth */\n      dup1\n        /* \"TimeAlly.sol\":9607:9624  getCurrentMonth() */\n      tag_592\n        /* \"TimeAlly.sol\":9607:9622  getCurrentMonth */\n      tag_130\n        /* \"TimeAlly.sol\":9607:9624  getCurrentMonth() */\n      jump\t// in\n    tag_592:\n        /* \"TimeAlly.sol\":9583:9624  uint256 _currentMonth = getCurrentMonth() */\n      swap1\n      pop\n        /* \"TimeAlly.sol\":9659:9667  _atMonth */\n      dup3\n        /* \"TimeAlly.sol\":9642:9655  _currentMonth */\n      dup2\n        /* \"TimeAlly.sol\":9642:9667  _currentMonth >= _atMonth */\n      lt\n      iszero\n        /* \"TimeAlly.sol\":9634:9698  require(_currentMonth >= _atMonth, 'cannot see future stakings') */\n      tag_593\n      jumpi\n      mload(0x40)\n      0x08c379a000000000000000000000000000000000000000000000000000000000\n      dup2\n      mstore\n      0x04\n      add\n      dup1\n      dup1\n      0x20\n      add\n      dup3\n      dup2\n      sub\n      dup3\n      mstore\n      0x1a\n      dup2\n      mstore\n      0x20\n      add\n      dup1\n      0x63616e6e6f742073656520667574757265207374616b696e6773000000000000\n      dup2\n      mstore\n      pop\n      0x20\n      add\n      swap2\n      pop\n      pop\n      mload(0x40)\n      dup1\n      swap2\n      sub\n      swap1\n      revert\n    tag_593:\n        /* \"TimeAlly.sol\":9709:9746  uint256 userActiveStakingsExaEsAmount */\n      0x00\n        /* \"TimeAlly.sol\":9761:9770  uint256 i */\n      dup1\n        /* \"TimeAlly.sol\":9773:9774  0 */\n      0x00\n        /* \"TimeAlly.sol\":9761:9774  uint256 i = 0 */\n      swap1\n      pop\n        /* \"TimeAlly.sol\":9757:10256  for(uint256 i = 0; i < stakings[_userAddress].length; i++) {... */\n    tag_594:\n        /* \"TimeAlly.sol\":9780:9788  stakings */\n      0x07\n        /* \"TimeAlly.sol\":9780:9802  stakings[_userAddress] */\n      0x00\n        /* \"TimeAlly.sol\":9789:9801  _userAddress */\n      dup8\n        /* \"TimeAlly.sol\":9780:9802  stakings[_userAddress] */\n      0xffffffffffffffffffffffffffffffffffffffff\n      and\n      0xffffffffffffffffffffffffffffffffffffffff\n      and\n      dup2\n      mstore\n      0x20\n      add\n      swap1\n      dup2\n      mstore\n      0x20\n      add\n      0x00\n      keccak256\n        /* \"TimeAlly.sol\":9780:9809  stakings[_userAddress].length */\n      dup1\n      sload\n      swap1\n      pop\n        /* \"TimeAlly.sol\":9776:9777  i */\n      dup2\n        /* \"TimeAlly.sol\":9776:9809  i < stakings[_userAddress].length */\n      lt\n        /* \"TimeAlly.sol\":9757:10256  for(uint256 i = 0; i < stakings[_userAddress].length; i++) {... */\n      iszero\n      tag_595\n      jumpi\n        /* \"TimeAlly.sol\":9903:9960  isStakingActive(_userAddress, i, _currentMonth, _atMonth) */\n      tag_597\n        /* \"TimeAlly.sol\":9919:9931  _userAddress */\n      dup7\n        /* \"TimeAlly.sol\":9933:9934  i */\n      dup3\n        /* \"TimeAlly.sol\":9936:9949  _currentMonth */\n      dup6\n        /* \"TimeAlly.sol\":9951:9959  _atMonth */\n      dup9\n        /* \"TimeAlly.sol\":9903:9918  isStakingActive */\n      tag_98\n        /* \"TimeAlly.sol\":9903:9960  isStakingActive(_userAddress, i, _currentMonth, _atMonth) */\n      jump\t// in\n    tag_597:\n        /* \"TimeAlly.sol\":9900:10246  if(isStakingActive(_userAddress, i, _currentMonth, _atMonth)) {... */\n      iszero\n      tag_598\n      jumpi\n        /* \"TimeAlly.sol\":10012:10231  userActiveStakingsExaEsAmount... */\n      tag_599\n        /* \"TimeAlly.sol\":10067:10230  stakings[_userAddress][i].exaEsAmount... */\n      tag_600\n        /* \"TimeAlly.sol\":10227:10229  15 */\n      0x0f\n        /* \"TimeAlly.sol\":10067:10201  stakings[_userAddress][i].exaEsAmount... */\n      tag_601\n        /* \"TimeAlly.sol\":10130:10142  stakingPlans */\n      0x05\n        /* \"TimeAlly.sol\":10144:10152  stakings */\n      0x07\n        /* \"TimeAlly.sol\":10144:10166  stakings[_userAddress] */\n      0x00\n        /* \"TimeAlly.sol\":10153:10165  _userAddress */\n      dup13\n        /* \"TimeAlly.sol\":10144:10166  stakings[_userAddress] */\n      0xffffffffffffffffffffffffffffffffffffffff\n      and\n      0xffffffffffffffffffffffffffffffffffffffff\n      and\n      dup2\n      mstore\n      0x20\n      add\n      swap1\n      dup2\n      mstore\n      0x20\n      add\n      0x00\n      keccak256\n        /* \"TimeAlly.sol\":10167:10168  i */\n      dup7\n        /* \"TimeAlly.sol\":10144:10169  stakings[_userAddress][i] */\n      dup2\n      sload\n      dup2\n      lt\n      tag_602\n      jumpi\n      invalid\n    tag_602:\n      swap1\n      0x00\n      mstore\n      keccak256(0x00, 0x20)\n      swap1\n      0x08\n      mul\n      add\n        /* \"TimeAlly.sol\":10144:10183  stakings[_userAddress][i].stakingPlanId */\n      0x02\n      add\n      sload\n        /* \"TimeAlly.sol\":10130:10185  stakingPlans[ stakings[_userAddress][i].stakingPlanId ] */\n      dup2\n      sload\n      dup2\n      lt\n      tag_604\n      jumpi\n      invalid\n    tag_604:\n      swap1\n      0x00\n      mstore\n      keccak256(0x00, 0x20)\n      swap1\n      0x02\n      mul\n      add\n        /* \"TimeAlly.sol\":10130:10200  stakingPlans[ stakings[_userAddress][i].stakingPlanId ].fractionFrom15 */\n      0x01\n      add\n      sload\n        /* \"TimeAlly.sol\":10067:10075  stakings */\n      0x07\n        /* \"TimeAlly.sol\":10067:10089  stakings[_userAddress] */\n      0x00\n        /* \"TimeAlly.sol\":10076:10088  _userAddress */\n      dup13\n        /* \"TimeAlly.sol\":10067:10089  stakings[_userAddress] */\n      0xffffffffffffffffffffffffffffffffffffffff\n      and\n      0xffffffffffffffffffffffffffffffffffffffff\n      and\n      dup2\n      mstore\n      0x20\n      add\n      swap1\n      dup2\n      mstore\n      0x20\n      add\n      0x00\n      keccak256\n        /* \"TimeAlly.sol\":10090:10091  i */\n      dup7\n        /* \"TimeAlly.sol\":10067:10092  stakings[_userAddress][i] */\n      dup2\n      sload\n      dup2\n      lt\n      tag_606\n      jumpi\n      invalid\n    tag_606:\n      swap1\n      0x00\n      mstore\n      keccak256(0x00, 0x20)\n      swap1\n      0x08\n      mul\n      add\n        /* \"TimeAlly.sol\":10067:10104  stakings[_userAddress][i].exaEsAmount */\n      0x00\n      add\n      sload\n        /* \"TimeAlly.sol\":10067:10129  stakings[_userAddress][i].exaEsAmount... */\n      tag_212\n      swap1\n        /* \"TimeAlly.sol\":10067:10201  stakings[_userAddress][i].exaEsAmount... */\n      swap2\n      swap1\n      0xffffffff\n      and\n      jump\t// in\n    tag_601:\n        /* \"TimeAlly.sol\":10067:10226  stakings[_userAddress][i].exaEsAmount... */\n      tag_213\n      swap1\n        /* \"TimeAlly.sol\":10067:10230  stakings[_userAddress][i].exaEsAmount... */\n      swap2\n      swap1\n      0xffffffff\n      and\n      jump\t// in\n    tag_600:\n        /* \"TimeAlly.sol\":10012:10041  userActiveStakingsExaEsAmount */\n      dup4\n        /* \"TimeAlly.sol\":10012:10066  userActiveStakingsExaEsAmount... */\n      tag_163\n      swap1\n        /* \"TimeAlly.sol\":10012:10231  userActiveStakingsExaEsAmount... */\n      swap2\n      swap1\n      0xffffffff\n      and\n      jump\t// in\n    tag_599:\n        /* \"TimeAlly.sol\":9980:10231  userActiveStakingsExaEsAmount = userActiveStakingsExaEsAmount... */\n      swap2\n      pop\n        /* \"TimeAlly.sol\":9900:10246  if(isStakingActive(_userAddress, i, _currentMonth, _atMonth)) {... */\n    tag_598:\n        /* \"TimeAlly.sol\":9811:9814  i++ */\n      dup1\n      dup1\n      0x01\n      add\n      swap2\n      pop\n      pop\n        /* \"TimeAlly.sol\":9757:10256  for(uint256 i = 0; i < stakings[_userAddress].length; i++) {... */\n      jump(tag_594)\n    tag_595:\n      pop\n        /* \"TimeAlly.sol\":10273:10302  userActiveStakingsExaEsAmount */\n      dup1\n        /* \"TimeAlly.sol\":10266:10302  return userActiveStakingsExaEsAmount */\n      swap3\n      pop\n      pop\n      pop\n        /* \"TimeAlly.sol\":9255:10309  function userActiveStakingByMonth(address _userAddress, uint256 _atMonth) public view returns (uint256) {... */\n      swap3\n      swap2\n      pop\n      pop\n      jump\t// out\n        /* \"TimeAlly.sol\":1254:1274  Eraswap public token */\n    tag_150:\n      0x02\n      0x00\n      swap1\n      sload\n      swap1\n      0x0100\n      exp\n      swap1\n      div\n      0xffffffffffffffffffffffffffffffffffffffff\n      and\n      dup2\n      jump\t// out\n        /* \"SafeMath.sol\":1211:1356  function sub(uint256 a, uint256 b) internal pure returns (uint256) {... */\n    tag_159:\n        /* \"SafeMath.sol\":1269:1276  uint256 */\n      0x00\n        /* \"SafeMath.sol\":1301:1302  a */\n      dup3\n        /* \"SafeMath.sol\":1296:1297  b */\n      dup3\n        /* \"SafeMath.sol\":1296:1302  b <= a */\n      gt\n      iszero\n        /* \"SafeMath.sol\":1288:1303  require(b <= a) */\n      tag_609\n      jumpi\n      0x00\n      dup1\n      revert\n    tag_609:\n        /* \"SafeMath.sol\":1313:1322  uint256 c */\n      0x00\n        /* \"SafeMath.sol\":1329:1330  b */\n      dup3\n        /* \"SafeMath.sol\":1325:1326  a */\n      dup5\n        /* \"SafeMath.sol\":1325:1330  a - b */\n      sub\n        /* \"SafeMath.sol\":1313:1330  uint256 c = a - b */\n      swap1\n      pop\n        /* \"SafeMath.sol\":1348:1349  c */\n      dup1\n        /* \"SafeMath.sol\":1341:1349  return c */\n      swap2\n      pop\n      pop\n        /* \"SafeMath.sol\":1211:1356  function sub(uint256 a, uint256 b) internal pure returns (uint256) {... */\n      swap3\n      swap2\n      pop\n      pop\n      jump\t// out\n        /* \"SafeMath.sol\":1439:1584  function add(uint256 a, uint256 b) internal pure returns (uint256) {... */\n    tag_163:\n        /* \"SafeMath.sol\":1497:1504  uint256 */\n      0x00\n        /* \"SafeMath.sol\":1516:1525  uint256 c */\n      dup1\n        /* \"SafeMath.sol\":1532:1533  b */\n      dup3\n        /* \"SafeMath.sol\":1528:1529  a */\n      dup5\n        /* \"SafeMath.sol\":1528:1533  a + b */\n      add\n        /* \"SafeMath.sol\":1516:1533  uint256 c = a + b */\n      swap1\n      pop\n        /* \"SafeMath.sol\":1556:1557  a */\n      dup4\n        /* \"SafeMath.sol\":1551:1552  c */\n      dup2\n        /* \"SafeMath.sol\":1551:1557  c >= a */\n      lt\n      iszero\n        /* \"SafeMath.sol\":1543:1558  require(c >= a) */\n      tag_611\n      jumpi\n      0x00\n      dup1\n      revert\n    tag_611:\n        /* \"SafeMath.sol\":1576:1577  c */\n      dup1\n        /* \"SafeMath.sol\":1569:1577  return c */\n      swap2\n      pop\n      pop\n        /* \"SafeMath.sol\":1439:1584  function add(uint256 a, uint256 b) internal pure returns (uint256) {... */\n      swap3\n      swap2\n      pop\n      pop\n      jump\t// out\n        /* \"SafeMath.sol\":231:652  function mul(uint256 a, uint256 b) internal pure returns (uint256) {... */\n    tag_212:\n        /* \"SafeMath.sol\":289:296  uint256 */\n      0x00\n        /* \"SafeMath.sol\":534:535  0 */\n      dup1\n        /* \"SafeMath.sol\":529:530  a */\n      dup4\n        /* \"SafeMath.sol\":529:535  a == 0 */\n      eq\n        /* \"SafeMath.sol\":525:570  if (a == 0) {... */\n      iszero\n      tag_613\n      jumpi\n        /* \"SafeMath.sol\":558:559  0 */\n      0x00\n        /* \"SafeMath.sol\":551:559  return 0 */\n      swap1\n      pop\n      jump(tag_612)\n        /* \"SafeMath.sol\":525:570  if (a == 0) {... */\n    tag_613:\n        /* \"SafeMath.sol\":580:589  uint256 c */\n      0x00\n        /* \"SafeMath.sol\":596:597  b */\n      dup3\n        /* \"SafeMath.sol\":592:593  a */\n      dup5\n        /* \"SafeMath.sol\":592:597  a * b */\n      mul\n        /* \"SafeMath.sol\":580:597  uint256 c = a * b */\n      swap1\n      pop\n        /* \"SafeMath.sol\":624:625  b */\n      dup3\n        /* \"SafeMath.sol\":619:620  a */\n      dup5\n        /* \"SafeMath.sol\":615:616  c */\n      dup3\n        /* \"SafeMath.sol\":615:620  c / a */\n      dup2\n      tag_614\n      jumpi\n      invalid\n    tag_614:\n      div\n        /* \"SafeMath.sol\":615:625  c / a == b */\n      eq\n        /* \"SafeMath.sol\":607:626  require(c / a == b) */\n      tag_615\n      jumpi\n      0x00\n      dup1\n      revert\n    tag_615:\n        /* \"SafeMath.sol\":644:645  c */\n      dup1\n        /* \"SafeMath.sol\":637:645  return c */\n      swap2\n      pop\n      pop\n        /* \"SafeMath.sol\":231:652  function mul(uint256 a, uint256 b) internal pure returns (uint256) {... */\n    tag_612:\n      swap3\n      swap2\n      pop\n      pop\n      jump\t// out\n        /* \"SafeMath.sol\":782:1078  function div(uint256 a, uint256 b) internal pure returns (uint256) {... */\n    tag_213:\n        /* \"SafeMath.sol\":840:847  uint256 */\n      0x00\n        /* \"SafeMath.sol\":937:938  0 */\n      dup1\n        /* \"SafeMath.sol\":933:934  b */\n      dup3\n        /* \"SafeMath.sol\":933:938  b > 0 */\n      gt\n        /* \"SafeMath.sol\":925:939  require(b > 0) */\n      tag_617\n      jumpi\n      0x00\n      dup1\n      revert\n    tag_617:\n        /* \"SafeMath.sol\":949:958  uint256 c */\n      0x00\n        /* \"SafeMath.sol\":965:966  b */\n      dup3\n        /* \"SafeMath.sol\":961:962  a */\n      dup5\n        /* \"SafeMath.sol\":961:966  a / b */\n      dup2\n      tag_618\n      jumpi\n      invalid\n    tag_618:\n      div\n        /* \"SafeMath.sol\":949:966  uint256 c = a / b */\n      swap1\n      pop\n        /* \"SafeMath.sol\":1070:1071  c */\n      dup1\n        /* \"SafeMath.sol\":1063:1071  return c */\n      swap2\n      pop\n      pop\n        /* \"SafeMath.sol\":782:1078  function div(uint256 a, uint256 b) internal pure returns (uint256) {... */\n      swap3\n      swap2\n      pop\n      pop\n      jump\t// out\n        /* \"TimeAlly.sol\":347:28818  contract TimeAlly {... */\n    tag_197:\n      mload(0x40)\n      dup1\n      0x40\n      add\n      0x40\n      mstore\n      dup1\n      0x00\n      dup2\n      mstore\n      0x20\n      add\n      0x00\n      dup2\n      mstore\n      pop\n      swap1\n      jump\t// out\n    tag_499:\n      dup3\n      dup1\n      sload\n      dup3\n      dup3\n      sstore\n      swap1\n      0x00\n      mstore\n      keccak256(0x00, 0x20)\n      swap1\n      dup2\n      add\n      swap3\n      dup3\n      iszero\n      tag_619\n      jumpi\n      swap2\n      0x20\n      mul\n      dup3\n      add\n    tag_620:\n      dup3\n      dup2\n      gt\n      iszero\n      tag_621\n      jumpi\n      dup3\n      mload\n      dup3\n      sstore\n      swap2\n      0x20\n      add\n      swap2\n      swap1\n      0x01\n      add\n      swap1\n      jump(tag_620)\n    tag_621:\n    tag_619:\n      pop\n      swap1\n      pop\n      tag_622\n      swap2\n      swap1\n      tag_623\n      jump\t// in\n    tag_622:\n      pop\n      swap1\n      jump\t// out\n    tag_623:\n      tag_624\n      swap2\n      swap1\n    tag_625:\n      dup1\n      dup3\n      gt\n      iszero\n      tag_626\n      jumpi\n      0x00\n      dup2\n      0x00\n      swap1\n      sstore\n      pop\n      0x01\n      add\n      jump(tag_625)\n    tag_626:\n      pop\n      swap1\n      jump\n    tag_624:\n      swap1\n      jump\t// out\n    stop\n    data_39460daa7a45684f9dd0ed61ccf993f0ceb0e72e199b722f68f8fd8b9a275c06 63616e6e6f74206c6f616e206d6f7265207468616e206d61784c6f616e696e67416d6f756e74\n    data_93da6dd610d9fefb6e1313dcbf2bddd65b198696b7b6534428823c79c90920b5 6163637275656450657263656e746167652073686f756c64206265206174206c65617374203530\n    data_9dc458dbb6ce1791a3f9802dbdb820884214d2513b45f4efec23e9f5109e79ae 63616e6e6f74207265636569766520656e6f75676820746f6b656e732c20706c6561736520636865636b20696620616c6c6f77616e6365206973207468657265\n    data_befd38e7335fb8237cef118812ecee5a2b8ea845f685bf397227db9c69bef0b5 746f74616c20616374697665207374616b696e67732073686f756c64206265206e6f6e207a65726f\n\n    auxdata: 0xa265627a7a7230582079aacf260b00364a1631f29761b017c21827f72def2dafe3e9498757c8851d7064736f6c634300050a0032\n}\n","bytecode":{"linkReferences":{},"object":"6080604052622820706004553480156200001857600080fd5b5060405162005efe38038062005efe833981810160405260408110156200003e57600080fd5b81019080805190602001909291908051906020019092919050505033600160006101000a81548173ffffffffffffffffffffffffffffffffffffffff021916908373ffffffffffffffffffffffffffffffffffffffff16021790555081600260006101000a81548173ffffffffffffffffffffffffffffffffffffffff021916908373ffffffffffffffffffffffffffffffffffffffff16021790555080600360006101000a81548173ffffffffffffffffffffffffffffffffffffffff021916908373ffffffffffffffffffffffffffffffffffffffff160217905550600260009054906101000a900473ffffffffffffffffffffffffffffffffffffffff1673ffffffffffffffffffffffffffffffffffffffff1663b81f90f36040518163ffffffff1660e01b815260040160206040518083038186803b1580156200018557600080fd5b505afa1580156200019a573d6000803e3d6000fd5b505050506040513d6020811015620001b157600080fd5b8101908080519060200190929190505050600081905550600b600090806001815401808255809150509060018203906000526020600020016000909192909190915055505050615cf780620002076000396000f3fe608060405234801561001057600080fd5b50600436106101f05760003560e01c806397a332d81161010f578063da9d8aa0116100a2578063e78c81c411610071578063e78c81c414610c69578063e83f784314610c97578063eb12f7f514610d4f578063fc0c546a14610db1576101f0565b8063da9d8aa014610bb7578063ddd1b67e14610be5578063dea6cf4314610c03578063e5fd04e614610c31576101f0565b8063be4ad9c3116100de578063be4ad9c31461097e578063c71d5d5814610a6a578063cc44a2fd14610aa2578063d0e3268114610aeb576101f0565b806397a332d81461081c578063a4c0e90a14610896578063ad998fa0146108ee578063bba91dc014610946576101f0565b80634f916fb01161018757806382f978571161015657806382f978571461060057806388c5f296146106385780638da5cb5b14610784578063911e8bc6146107ce576101f0565b80634f916fb0146104e357806353fcb2f314610531578063762e7a341461055f5780637acab857146105a8576101f0565b80632f3b59ea116101c35780632f3b59ea1461035b57806346a4d6e3146103bd578063497ec40f146104425780634ec0692c146104a1576101f0565b80630df5202f146101f5578063218e731f1461023f57806323a15e6b146102975780632e9721b6146102d9575b600080fd5b6101fd610dfb565b604051808273ffffffffffffffffffffffffffffffffffffffff1673ffffffffffffffffffffffffffffffffffffffff16815260200191505060405180910390f35b6102956004803603606081101561025557600080fd5b8101908080359060200190929190803573ffffffffffffffffffffffffffffffffffffffff16906020019092919080359060200190929190505050610e21565b005b6102c3600480360360208110156102ad57600080fd5b8101908080359060200190929190505050611404565b6040518082815260200191505060405180910390f35b610345600480360360608110156102ef57600080fd5b81019080803573ffffffffffffffffffffffffffffffffffffffff16906020019092919080359060200190929190803573ffffffffffffffffffffffffffffffffffffffff169060200190929190505050611425565b6040518082815260200191505060405180910390f35b6103a76004803603604081101561037157600080fd5b81019080803573ffffffffffffffffffffffffffffffffffffffff169060200190929190803590602001909291905050506114c9565b6040518082815260200191505060405180910390f35b610409600480360360408110156103d357600080fd5b81019080803573ffffffffffffffffffffffffffffffffffffffff169060200190929190803590602001909291905050506117fa565b60405180878152602001868152602001858152602001848152602001838152602001828152602001965050505050505060405180910390f35b61044a611a41565b6040518080602001828103825283818151815260200191508051906020019060200280838360005b8381101561048d578082015181840152602081019050610472565b505050509050019250505060405180910390f35b6104cd600480360360208110156104b757600080fd5b8101908080359060200190929190505050611a99565b6040518082815260200191505060405180910390f35b61052f600480360360408110156104f957600080fd5b8101908080359060200190929190803573ffffffffffffffffffffffffffffffffffffffff169060200190929190505050611ab1565b005b61055d6004803603602081101561054757600080fd5b8101908080359060200190929190505050611d8f565b005b61058b6004803603602081101561057557600080fd5b8101908080359060200190929190505050611f48565b604051808381526020018281526020019250505060405180910390f35b6105ea600480360360208110156105be57600080fd5b81019080803573ffffffffffffffffffffffffffffffffffffffff169060200190929190505050611f79565b6040518082815260200191505060405180910390f35b6106366004803603604081101561061657600080fd5b810190808035906020019092919080359060200190929190505050611f91565b005b6107826004803603604081101561064e57600080fd5b810190808035906020019064010000000081111561066b57600080fd5b82018360208201111561067d57600080fd5b8035906020019184602083028401116401000000008311171561069f57600080fd5b919080806020026020016040519081016040528093929190818152602001838360200280828437600081840152601f19601f820116905080830192505050505050509192919290803590602001906401000000008111156106ff57600080fd5b82018360208201111561071157600080fd5b8035906020019184602083028401116401000000008311171561073357600080fd5b919080806020026020016040519081016040528093929190818152602001838360200280828437600081840152601f19601f8201169050808301925050505050505091929192905050506120b1565b005b61078c61230b565b604051808273ffffffffffffffffffffffffffffffffffffffff1673ffffffffffffffffffffffffffffffffffffffff16815260200191505060405180910390f35b61081a600480360360408110156107e457600080fd5b81019080803573ffffffffffffffffffffffffffffffffffffffff16906020019092919080359060200190929190505050612331565b005b61087c6004803603608081101561083257600080fd5b81019080803573ffffffffffffffffffffffffffffffffffffffff169060200190929190803590602001909291908035906020019092919080359060200190929190505050612e48565b604051808215151515815260200191505060405180910390f35b6108ec600480360360608110156108ac57600080fd5b8101908080359060200190929190803573ffffffffffffffffffffffffffffffffffffffff1690602001909291908035906020019092919050505061310d565b005b6109306004803603602081101561090457600080fd5b81019080803573ffffffffffffffffffffffffffffffffffffffff1690602001909291905050506134b6565b6040518082815260200191505060405180910390f35b61097c6004803603604081101561095c57600080fd5b810190808035906020019092919080359060200190929190505050613502565b005b610a546004803603604081101561099457600080fd5b81019080803573ffffffffffffffffffffffffffffffffffffffff169060200190929190803590602001906401000000008111156109d157600080fd5b8201836020820111156109e357600080fd5b80359060200191846020830284011164010000000083111715610a0557600080fd5b919080806020026020016040519081016040528093929190818152602001838360200280828437600081840152601f19601f820116905080830192505050505050509192919290505050613bb0565b6040518082815260200191505060405180910390f35b610aa060048036036040811015610a8057600080fd5b810190808035906020019092919080359060200190929190505050613ca2565b005b610ace60048036036020811015610ab857600080fd5b8101908080359060200190929190505050613dc2565b604051808381526020018281526020019250505060405180910390f35b610bb560048036036060811015610b0157600080fd5b81019080803590602001909291908035906020019092919080359060200190640100000000811115610b3257600080fd5b820183602082011115610b4457600080fd5b80359060200191846020830284011164010000000083111715610b6657600080fd5b919080806020026020016040519081016040528093929190818152602001838360200280828437600081840152601f19601f820116905080830192505050505050509192919290505050613df3565b005b610be360048036036020811015610bcd57600080fd5b8101908080359060200190929190505050614800565b005b610bed614b3b565b6040518082815260200191505060405180910390f35b610c2f60048036036020811015610c1957600080fd5b8101908080359060200190929190505050614b4b565b005b610c6760048036036040811015610c4757600080fd5b8101908080359060200190929190803590602001909291905050506151e5565b005b610c9560048036036020811015610c7f57600080fd5b81019080803590602001909291905050506155d5565b005b610d4d60048036036020811015610cad57600080fd5b8101908080359060200190640100000000811115610cca57600080fd5b820183602082011115610cdc57600080fd5b80359060200191846020830284011164010000000083111715610cfe57600080fd5b919080806020026020016040519081016040528093929190818152602001838360200280828437600081840152601f19601f8201169050808301925050505050505091929192905050506156c7565b005b610d9b60048036036040811015610d6557600080fd5b81019080803573ffffffffffffffffffffffffffffffffffffffff169060200190929190803590602001909291905050506158ae565b6040518082815260200191505060405180910390f35b610db9615abc565b604051808273ffffffffffffffffffffffffffffffffffffffff1673ffffffffffffffffffffffffffffffffffffffff16815260200191505060405180910390f35b600360009054906101000a900473ffffffffffffffffffffffffffffffffffffffff1681565b6001600760003373ffffffffffffffffffffffffffffffffffffffff1673ffffffffffffffffffffffffffffffffffffffff1681526020019081526020016000208481548110610e6d57fe5b90600052602060002090600802016003015414610ef2576040517f08c379a00000000000000000000000000000000000000000000000000000000081526004018080602001828103825260158152602001807f7374616b696e672073686f756c6420616374697665000000000000000000000081525060200191505060405180910390fd5b6000600760003373ffffffffffffffffffffffffffffffffffffffff1673ffffffffffffffffffffffffffffffffffffffff1681526020019081526020016000208481548110610f3e57fe5b906000526020600020906008020160070160008473ffffffffffffffffffffffffffffffffffffffff1673ffffffffffffffffffffffffffffffffffffffff168152602001908152602001600020549050808211156111c8576000610fac8284615ae290919063ffffffff16565b905061101c81600760003373ffffffffffffffffffffffffffffffffffffffff1673ffffffffffffffffffffffffffffffffffffffff1681526020019081526020016000208781548110610ffc57fe5b906000526020600020906008020160050154615b0290919063ffffffff16565b600760003373ffffffffffffffffffffffffffffffffffffffff1673ffffffffffffffffffffffffffffffffffffffff168152602001908152602001600020868154811061106657fe5b90600052602060002090600802016005018190555061112681600760003373ffffffffffffffffffffffffffffffffffffffff1673ffffffffffffffffffffffffffffffffffffffff16815260200190815260200160002087815481106110c957fe5b906000526020600020906008020160070160008773ffffffffffffffffffffffffffffffffffffffff1673ffffffffffffffffffffffffffffffffffffffff16815260200190815260200160002054615b0290919063ffffffff16565b600760003373ffffffffffffffffffffffffffffffffffffffff1673ffffffffffffffffffffffffffffffffffffffff168152602001908152602001600020868154811061117057fe5b906000526020600020906008020160070160008673ffffffffffffffffffffffffffffffffffffffff1673ffffffffffffffffffffffffffffffffffffffff16815260200190815260200160002081905550506113fe565b808210156113fd5760006111e58383615ae290919063ffffffff16565b905061129281600760003373ffffffffffffffffffffffffffffffffffffffff1673ffffffffffffffffffffffffffffffffffffffff168152602001908152602001600020878154811061123557fe5b906000526020600020906008020160070160008773ffffffffffffffffffffffffffffffffffffffff1673ffffffffffffffffffffffffffffffffffffffff16815260200190815260200160002054615ae290919063ffffffff16565b600760003373ffffffffffffffffffffffffffffffffffffffff1673ffffffffffffffffffffffffffffffffffffffff16815260200190815260200160002086815481106112dc57fe5b906000526020600020906008020160070160008673ffffffffffffffffffffffffffffffffffffffff1673ffffffffffffffffffffffffffffffffffffffff1681526020019081526020016000208190555061139c81600760003373ffffffffffffffffffffffffffffffffffffffff1673ffffffffffffffffffffffffffffffffffffffff168152602001908152602001600020878154811061137c57fe5b906000526020600020906008020160050154615ae290919063ffffffff16565b600760003373ffffffffffffffffffffffffffffffffffffffff1673ffffffffffffffffffffffffffffffffffffffff16815260200190815260200160002086815481106113e657fe5b906000526020600020906008020160050181905550505b5b50505050565b600b818154811061141157fe5b906000526020600020016000915090505481565b6000600760008573ffffffffffffffffffffffffffffffffffffffff1673ffffffffffffffffffffffffffffffffffffffff168152602001908152602001600020838154811061147157fe5b906000526020600020906008020160070160008373ffffffffffffffffffffffffffffffffffffffff1673ffffffffffffffffffffffffffffffffffffffff1681526020019081526020016000205490509392505050565b6000806114d4614b3b565b90508083111561154c576040517f08c379a000000000000000000000000000000000000000000000000000000000815260040180806020018281038252601a8152602001807f63616e6e6f742073656520667574757265207374616b696e677300000000000081525060200191505060405180910390fd5b6000600a60008581526020019081526020016000205414156115725760009150506117f4565b600080600090505b600760008773ffffffffffffffffffffffffffffffffffffffff1673ffffffffffffffffffffffffffffffffffffffff1681526020019081526020016000208054905081101561179f576115cc615b81565b6005600760008973ffffffffffffffffffffffffffffffffffffffff1673ffffffffffffffffffffffffffffffffffffffff168152602001908152602001600020838154811061161857fe5b9060005260206000209060080201600201548154811061163457fe5b906000526020600020906002020160405180604001604052908160008201548152602001600182015481525050905061166f87838689612e48565b80156116f25750600760008873ffffffffffffffffffffffffffffffffffffffff1673ffffffffffffffffffffffffffffffffffffffff16815260200190815260200160002082815481106116c057fe5b9060005260206000209060080201600601600087815260200190815260200160002060009054906101000a900460ff16155b156117915761178e61177f600f6117718460200151600760008d73ffffffffffffffffffffffffffffffffffffffff1673ffffffffffffffffffffffffffffffffffffffff168152602001908152602001600020878154811061175157fe5b906000526020600020906008020160000154615b2190919063ffffffff16565b615b5b90919063ffffffff16565b84615b0290919063ffffffff16565b92505b50808060010191505061157a565b506117ef600a6000868152602001908152602001600020546117e1600b87815481106117c757fe5b906000526020600020015484615b2190919063ffffffff16565b615b5b90919063ffffffff16565b925050505b92915050565b600080600080600080600760008973ffffffffffffffffffffffffffffffffffffffff1673ffffffffffffffffffffffffffffffffffffffff168152602001908152602001600020878154811061184d57fe5b906000526020600020906008020160000154600760008a73ffffffffffffffffffffffffffffffffffffffff1673ffffffffffffffffffffffffffffffffffffffff16815260200190815260200160002088815481106118a957fe5b906000526020600020906008020160010154600760008b73ffffffffffffffffffffffffffffffffffffffff1673ffffffffffffffffffffffffffffffffffffffff168152602001908152602001600020898154811061190557fe5b906000526020600020906008020160020154600760008c73ffffffffffffffffffffffffffffffffffffffff1673ffffffffffffffffffffffffffffffffffffffff1681526020019081526020016000208a8154811061196157fe5b906000526020600020906008020160030154600760008d73ffffffffffffffffffffffffffffffffffffffff1673ffffffffffffffffffffffffffffffffffffffff1681526020019081526020016000208b815481106119bd57fe5b906000526020600020906008020160040154600760008e73ffffffffffffffffffffffffffffffffffffffff1673ffffffffffffffffffffffffffffffffffffffff1681526020019081526020016000208c81548110611a1957fe5b9060005260206000209060080201600501549550955095509550955095509295509295509295565b6060600b805480602002602001604051908101604052809291908181526020018280548015611a8f57602002820191906000526020600020905b815481526020019060010190808311611a7b575b5050505050905090565b600a6020528060005260406000206000915090505481565b6001600760003373ffffffffffffffffffffffffffffffffffffffff1673ffffffffffffffffffffffffffffffffffffffff1681526020019081526020016000208381548110611afd57fe5b90600052602060002090600802016003015414611b82576040517f08c379a00000000000000000000000000000000000000000000000000000000081526004018080602001828103825260158152602001807f7374616b696e672073686f756c6420616374697665000000000000000000000081525060200191505060405180910390fd5b6000600760003373ffffffffffffffffffffffffffffffffffffffff1673ffffffffffffffffffffffffffffffffffffffff1681526020019081526020016000208381548110611bce57fe5b906000526020600020906008020160070160003373ffffffffffffffffffffffffffffffffffffffff1673ffffffffffffffffffffffffffffffffffffffff1681526020019081526020016000205490506000600760003373ffffffffffffffffffffffffffffffffffffffff1673ffffffffffffffffffffffffffffffffffffffff1681526020019081526020016000208481548110611c6b57fe5b906000526020600020906008020160070160008473ffffffffffffffffffffffffffffffffffffffff1673ffffffffffffffffffffffffffffffffffffffff16815260200190815260200160002081905550611d2b81600760003373ffffffffffffffffffffffffffffffffffffffff1673ffffffffffffffffffffffffffffffffffffffff1681526020019081526020016000208581548110611d0b57fe5b906000526020600020906008020160050154615ae290919063ffffffff16565b600760003373ffffffffffffffffffffffffffffffffffffffff1673ffffffffffffffffffffffffffffffffffffffff1681526020019081526020016000208481548110611d7557fe5b906000526020600020906008020160050181905550505050565b600260009054906101000a900473ffffffffffffffffffffffffffffffffffffffff1673ffffffffffffffffffffffffffffffffffffffff166323b872dd3330846040518463ffffffff1660e01b8152600401808473ffffffffffffffffffffffffffffffffffffffff1673ffffffffffffffffffffffffffffffffffffffff1681526020018373ffffffffffffffffffffffffffffffffffffffff1673ffffffffffffffffffffffffffffffffffffffff1681526020018281526020019350505050602060405180830381600087803b158015611e6c57600080fd5b505af1158015611e80573d6000803e3d6000fd5b505050506040513d6020811015611e9657600080fd5b8101908080519060200190929190505050611eb057600080fd5b611f0281600960003373ffffffffffffffffffffffffffffffffffffffff1673ffffffffffffffffffffffffffffffffffffffff16815260200190815260200160002054615b0290919063ffffffff16565b600960003373ffffffffffffffffffffffffffffffffffffffff1673ffffffffffffffffffffffffffffffffffffffff1681526020019081526020016000208190555050565b60058181548110611f5557fe5b90600052602060002090600202016000915090508060000154908060010154905082565b60096020528060005260406000206000915090505481565b600160009054906101000a900473ffffffffffffffffffffffffffffffffffffffff1673ffffffffffffffffffffffffffffffffffffffff163373ffffffffffffffffffffffffffffffffffffffff1614612054576040517f08c379a00000000000000000000000000000000000000000000000000000000081526004018080602001828103825260168152602001807f6f6e6c79206465706c6f7965722063616e2063616c6c0000000000000000000081525060200191505060405180910390fd5b60066040518060400160405280848152602001838152509080600181540180825580915050906001820390600052602060002090600202016000909192909190915060008201518160000155602082015181600101555050505050565b600160009054906101000a900473ffffffffffffffffffffffffffffffffffffffff1673ffffffffffffffffffffffffffffffffffffffff163373ffffffffffffffffffffffffffffffffffffffff1614612174576040517f08c379a00000000000000000000000000000000000000000000000000000000081526004018080602001828103825260168152602001807f6f6e6c79206465706c6f7965722063616e2063616c6c0000000000000000000081525060200191505060405180910390fd5b60008090505b8251811015612306576121e882828151811061219257fe5b6020026020010151600960003373ffffffffffffffffffffffffffffffffffffffff1673ffffffffffffffffffffffffffffffffffffffff16815260200190815260200160002054615ae290919063ffffffff16565b600960003373ffffffffffffffffffffffffffffffffffffffff1673ffffffffffffffffffffffffffffffffffffffff168152602001908152602001600020819055506122a382828151811061223a57fe5b60200260200101516009600086858151811061225257fe5b602002602001015173ffffffffffffffffffffffffffffffffffffffff1673ffffffffffffffffffffffffffffffffffffffff16815260200190815260200160002054615b0290919063ffffffff16565b600960008584815181106122b357fe5b602002602001015173ffffffffffffffffffffffffffffffffffffffff1673ffffffffffffffffffffffffffffffffffffffff16815260200190815260200160002081905550808060010191505061217a565b505050565b600160009054906101000a900473ffffffffffffffffffffffffffffffffffffffff1681565b6000600260009054906101000a900473ffffffffffffffffffffffffffffffffffffffff1673ffffffffffffffffffffffffffffffffffffffff1663b81f90f36040518163ffffffff1660e01b815260040160206040518083038186803b15801561239b57600080fd5b505afa1580156123af573d6000803e3d6000fd5b505050506040513d60208110156123c557600080fd5b81019080805190602001909291905050509050600454600c026004546005600760008773ffffffffffffffffffffffffffffffffffffffff1673ffffffffffffffffffffffffffffffffffffffff168152602001908152602001600020858154811061242d57fe5b9060005260206000209060080201600201548154811061244957fe5b90600052602060002090600202016000015402600760008673ffffffffffffffffffffffffffffffffffffffff1673ffffffffffffffffffffffffffffffffffffffff16815260200190815260200160002084815481106124a657fe5b9060005260206000209060080201600101540101811161252e576040517f08c379a000000000000000000000000000000000000000000000000000000000815260040180806020018281038252601e8152602001807f63616e6e6f74206e6f6d696e6565207769746864726177206265666f7265000081525060200191505060405180910390fd5b6000600760008573ffffffffffffffffffffffffffffffffffffffff1673ffffffffffffffffffffffffffffffffffffffff168152602001908152602001600020838154811061257a57fe5b906000526020600020906008020160070160003373ffffffffffffffffffffffffffffffffffffffff1673ffffffffffffffffffffffffffffffffffffffff16815260200190815260200160002054905060008111612641576040517f08c379a000000000000000000000000000000000000000000000000000000000815260040180806020018281038252601d8152602001807f4e6f742061206e6f6d696e6565206f662074686973207374616b696e6700000081525060200191505060405180910390fd5b6005600760008673ffffffffffffffffffffffffffffffffffffffff1673ffffffffffffffffffffffffffffffffffffffff168152602001908152602001600020848154811061268d57fe5b90600052602060002090600802016003015414612706576005600760008673ffffffffffffffffffffffffffffffffffffffff1673ffffffffffffffffffffffffffffffffffffffff16815260200190815260200160002084815481106126f057fe5b9060005260206000209060080201600301819055505b6000600760008673ffffffffffffffffffffffffffffffffffffffff1673ffffffffffffffffffffffffffffffffffffffff168152602001908152602001600020848154811061275257fe5b90600052602060002090600802016000015490506000806127ed6004546127df600054600760008c73ffffffffffffffffffffffffffffffffffffffff1673ffffffffffffffffffffffffffffffffffffffff1681526020019081526020016000208a815481106127bf57fe5b906000526020600020906008020160010154615ae290919063ffffffff16565b615b5b90919063ffffffff16565b905060006005600760008a73ffffffffffffffffffffffffffffffffffffffff1673ffffffffffffffffffffffffffffffffffffffff168152602001908152602001600020888154811061283d57fe5b9060005260206000209060080201600201548154811061285957fe5b9060005260206000209060020201600001548201905060008290505b81811015612aad57600760008a73ffffffffffffffffffffffffffffffffffffffff1673ffffffffffffffffffffffffffffffffffffffff16815260200190815260200160002088815481106128c757fe5b9060005260206000209060080201600601600082815260200190815260200160002060009054906101000a900460ff1615612aa05760006129f8600f6129ea6005600760008f73ffffffffffffffffffffffffffffffffffffffff1673ffffffffffffffffffffffffffffffffffffffff1681526020019081526020016000208d8154811061295257fe5b9060005260206000209060080201600201548154811061296e57fe5b906000526020600020906002020160010154600760008f73ffffffffffffffffffffffffffffffffffffffff1673ffffffffffffffffffffffffffffffffffffffff1681526020019081526020016000208d815481106129ca57fe5b906000526020600020906008020160000154615b2190919063ffffffff16565b615b5b90919063ffffffff16565b90506000612a4b600a600085815260200190815260200160002054612a3d600b8681548110612a2357fe5b906000526020600020015485615b2190919063ffffffff16565b615b5b90919063ffffffff16565b9050612a73612a64600283615b5b90919063ffffffff16565b88615b0290919063ffffffff16565b9650612a9b612a8c600283615b5b90919063ffffffff16565b87615b0290919063ffffffff16565b955050505b8080600101915050612875565b506000600760008a73ffffffffffffffffffffffffffffffffffffffff1673ffffffffffffffffffffffffffffffffffffffff1681526020019081526020016000208881548110612afa57fe5b906000526020600020906008020160070160003373ffffffffffffffffffffffffffffffffffffffff1673ffffffffffffffffffffffffffffffffffffffff168152602001908152602001600020819055506000612bce600760008b73ffffffffffffffffffffffffffffffffffffffff1673ffffffffffffffffffffffffffffffffffffffff1681526020019081526020016000208981548110612b9b57fe5b906000526020600020906008020160050154612bc08888615b2190919063ffffffff16565b615b5b90919063ffffffff16565b9050600260009054906101000a900473ffffffffffffffffffffffffffffffffffffffff1673ffffffffffffffffffffffffffffffffffffffff1663a9059cbb33836040518363ffffffff1660e01b8152600401808373ffffffffffffffffffffffffffffffffffffffff1673ffffffffffffffffffffffffffffffffffffffff16815260200182815260200192505050602060405180830381600087803b158015612c7957600080fd5b505af1158015612c8d573d6000803e3d6000fd5b505050506040513d6020811015612ca357600080fd5b8101908080519060200190929190505050506000612d37600760008c73ffffffffffffffffffffffffffffffffffffffff1673ffffffffffffffffffffffffffffffffffffffff1681526020019081526020016000208a81548110612d0457fe5b906000526020600020906008020160050154612d298988615b2190919063ffffffff16565b615b5b90919063ffffffff16565b9050612d8b81600960003373ffffffffffffffffffffffffffffffffffffffff1673ffffffffffffffffffffffffffffffffffffffff16815260200190815260200160002054615b0290919063ffffffff16565b600960003373ffffffffffffffffffffffffffffffffffffffff1673ffffffffffffffffffffffffffffffffffffffff168152602001908152602001600020819055503373ffffffffffffffffffffffffffffffffffffffff16898b73ffffffffffffffffffffffffffffffffffffffff167fa54cec59552c7f022eed79ede59f759697aa5787f43b11d61f17bfc5adaffb658585604051808381526020018281526020019250505060405180910390a450505050505050505050565b600080612ecf600454612ec1600054600760008b73ffffffffffffffffffffffffffffffffffffffff1673ffffffffffffffffffffffffffffffffffffffff1681526020019081526020016000208981548110612ea157fe5b906000526020600020906008020160010154615ae290919063ffffffff16565b615b5b90919063ffffffff16565b9050826001820111158015612f5f5750826005600760008973ffffffffffffffffffffffffffffffffffffffff1673ffffffffffffffffffffffffffffffffffffffff1681526020019081526020016000208781548110612f2c57fe5b90600052602060002090600802016002015481548110612f4857fe5b906000526020600020906002020160000154820110155b8015612fc657506001600760008873ffffffffffffffffffffffffffffffffffffffff1673ffffffffffffffffffffffffffffffffffffffff1681526020019081526020016000208681548110612fb257fe5b906000526020600020906008020160030154145b801561310257508284141580613101575061305b612ff1600454838703615b2190919063ffffffff16565b600760008973ffffffffffffffffffffffffffffffffffffffff1673ffffffffffffffffffffffffffffffffffffffff168152602001908152602001600020878154811061303b57fe5b906000526020600020906008020160010154615b0290919063ffffffff16565b600260009054906101000a900473ffffffffffffffffffffffffffffffffffffffff1673ffffffffffffffffffffffffffffffffffffffff1663b81f90f36040518163ffffffff1660e01b815260040160206040518083038186803b1580156130c357600080fd5b505afa1580156130d7573d6000803e3d6000fd5b505050506040513d60208110156130ed57600080fd5b810190808051906020019092919050505010155b5b915050949350505050565b6001600760003373ffffffffffffffffffffffffffffffffffffffff1673ffffffffffffffffffffffffffffffffffffffff168152602001908152602001600020848154811061315957fe5b906000526020600020906008020160030154146131de576040517f08c379a00000000000000000000000000000000000000000000000000000000081526004018080602001828103825260158152602001807f7374616b696e672073686f756c6420616374697665000000000000000000000081525060200191505060405180910390fd5b6000600760003373ffffffffffffffffffffffffffffffffffffffff1673ffffffffffffffffffffffffffffffffffffffff168152602001908152602001600020848154811061322a57fe5b906000526020600020906008020160070160008473ffffffffffffffffffffffffffffffffffffffff1673ffffffffffffffffffffffffffffffffffffffff16815260200190815260200160002054146132ec576040517f08c379a000000000000000000000000000000000000000000000000000000000815260040180806020018281038252601d8152602001807f73686f756c64206e6f74206265206e6f6d696e656520616c726561647900000081525060200191505060405180910390fd5b61335a81600760003373ffffffffffffffffffffffffffffffffffffffff1673ffffffffffffffffffffffffffffffffffffffff168152602001908152602001600020858154811061333a57fe5b906000526020600020906008020160050154615b0290919063ffffffff16565b600760003373ffffffffffffffffffffffffffffffffffffffff1673ffffffffffffffffffffffffffffffffffffffff16815260200190815260200160002084815481106133a457fe5b90600052602060002090600802016005018190555080600760003373ffffffffffffffffffffffffffffffffffffffff1673ffffffffffffffffffffffffffffffffffffffff168152602001908152602001600020848154811061340457fe5b906000526020600020906008020160070160008473ffffffffffffffffffffffffffffffffffffffff1673ffffffffffffffffffffffffffffffffffffffff168152602001908152602001600020819055508173ffffffffffffffffffffffffffffffffffffffff16833373ffffffffffffffffffffffffffffffffffffffff167fc4e7fb51a42ce926bb404f8024c3c91a40af0654d9a96ada67c329b9c9bee4a260405160405180910390a4505050565b6000600760008373ffffffffffffffffffffffffffffffffffffffff1673ffffffffffffffffffffffffffffffffffffffff168152602001908152602001600020805490509050919050565b600061350c614b3b565b905082811015613584576040517f08c379a000000000000000000000000000000000000000000000000000000000815260040180806020018281038252601f8152602001807f63616e6e6f7420776974686472617720667574757265207374616b696e67730081525060200191505060405180910390fd5b6000600a60008381526020019081526020016000205414156135f85760006135f7576040517f08c379a0000000000000000000000000000000000000000000000000000000008152600401808060200182810382526028815260200180615c9b6028913960400191505060405180910390fd5b5b6032821015613652576040517f08c379a0000000000000000000000000000000000000000000000000000000008152600401808060200182810382526027815260200180615c346027913960400191505060405180910390fd5b60008060008090505b600760003373ffffffffffffffffffffffffffffffffffffffff1673ffffffffffffffffffffffffffffffffffffffff1681526020019081526020016000208054905081101561398d576136ad615b81565b6005600760003373ffffffffffffffffffffffffffffffffffffffff1673ffffffffffffffffffffffffffffffffffffffff16815260200190815260200160002083815481106136f957fe5b9060005260206000209060080201600201548154811061371557fe5b90600052602060002090600202016040518060400160405290816000820154815260200160018201548152505090506137503383878a612e48565b80156137d35750600760003373ffffffffffffffffffffffffffffffffffffffff1673ffffffffffffffffffffffffffffffffffffffff16815260200190815260200160002082815481106137a157fe5b9060005260206000209060080201600601600088815260200190815260200160002060009054906101000a900460ff16155b1561397f576001600760003373ffffffffffffffffffffffffffffffffffffffff1673ffffffffffffffffffffffffffffffffffffffff168152602001908152602001600020838154811061382457fe5b9060005260206000209060080201600601600089815260200190815260200160002060006101000a81548160ff02191690831515021790555060006138e4600f6138d68460200151600760003373ffffffffffffffffffffffffffffffffffffffff1673ffffffffffffffffffffffffffffffffffffffff16815260200190815260200160002087815481106138b657fe5b906000526020600020906008020160000154615b2190919063ffffffff16565b615b5b90919063ffffffff16565b90506138f98186615b0290919063ffffffff16565b945061397b61396c82600760003373ffffffffffffffffffffffffffffffffffffffff1673ffffffffffffffffffffffffffffffffffffffff168152602001908152602001600020868154811061394c57fe5b906000526020600020906008020160000154615ae290919063ffffffff16565b85615b0290919063ffffffff16565b9350505b50808060010191505061365b565b5060006139df600a6000868152602001908152602001600020546139d1600b87815481106139b757fe5b906000526020600020015486615b2190919063ffffffff16565b615b5b90919063ffffffff16565b90506000613a0960646139fb8885615b2190919063ffffffff16565b615b5b90919063ffffffff16565b90506000613a208284615ae290919063ffffffff16565b90506000811115613b1157600260009054906101000a900473ffffffffffffffffffffffffffffffffffffffff1673ffffffffffffffffffffffffffffffffffffffff1663a9059cbb33836040518363ffffffff1660e01b8152600401808373ffffffffffffffffffffffffffffffffffffffff1673ffffffffffffffffffffffffffffffffffffffff16815260200182815260200192505050602060405180830381600087803b158015613ad457600080fd5b505af1158015613ae8573d6000803e3d6000fd5b505050506040513d6020811015613afe57600080fd5b8101908080519060200190929190505050505b613b6382600960003373ffffffffffffffffffffffffffffffffffffffff1673ffffffffffffffffffffffffffffffffffffffff16815260200190815260200160002054615b0290919063ffffffff16565b600960003373ffffffffffffffffffffffffffffffffffffffff1673ffffffffffffffffffffffffffffffffffffffff168152602001908152602001600020819055505050505050505050565b600080613bbb614b3b565b9050600080600090505b8451811015613c8357613bed86868381518110613bde57fe5b60200260200101518586612e48565b15613c7657613c73600760008873ffffffffffffffffffffffffffffffffffffffff1673ffffffffffffffffffffffffffffffffffffffff168152602001908152602001600020868381518110613c4057fe5b602002602001015181548110613c5257fe5b90600052602060002090600802016000015483615b0290919063ffffffff16565b91505b8080600101915050613bc5565b50613c98600282615b5b90919063ffffffff16565b9250505092915050565b600160009054906101000a900473ffffffffffffffffffffffffffffffffffffffff1673ffffffffffffffffffffffffffffffffffffffff163373ffffffffffffffffffffffffffffffffffffffff1614613d65576040517f08c379a00000000000000000000000000000000000000000000000000000000081526004018080602001828103825260168152602001807f6f6e6c79206465706c6f7965722063616e2063616c6c0000000000000000000081525060200191505060405180910390fd5b60056040518060400160405280848152602001838152509080600181540180825580915050906001820390600052602060002090600202016000909192909190915060008201518160000155602082015181600101555050505050565b60068181548110613dcf57fe5b90600052602060002090600202016000915090508060000154908060010154905082565b6000613dfd614b3b565b9050600080600090505b835181101561424957613e2f33858381518110613e2057fe5b60200260200101518586612e48565b1561423c57613f66613f57600f613f496005600760003373ffffffffffffffffffffffffffffffffffffffff1673ffffffffffffffffffffffffffffffffffffffff168152602001908152602001600020898781518110613e8c57fe5b602002602001015181548110613e9e57fe5b90600052602060002090600802016002015481548110613eba57fe5b906000526020600020906002020160010154600760003373ffffffffffffffffffffffffffffffffffffffff1673ffffffffffffffffffffffffffffffffffffffff168152602001908152602001600020898781518110613f1757fe5b602002602001015181548110613f2957fe5b906000526020600020906008020160000154615b2190919063ffffffff16565b615b5b90919063ffffffff16565b83615b0290919063ffffffff16565b91506000614001600454613ff3600054600760003373ffffffffffffffffffffffffffffffffffffffff1673ffffffffffffffffffffffffffffffffffffffff168152602001908152602001600020898781518110613fc157fe5b602002602001015181548110613fd357fe5b906000526020600020906008020160010154615ae290919063ffffffff16565b615b5b90919063ffffffff16565b905060006005600760003373ffffffffffffffffffffffffffffffffffffffff1673ffffffffffffffffffffffffffffffffffffffff16815260200190815260200160002087858151811061405257fe5b60200260200101518154811061406457fe5b9060005260206000209060080201600201548154811061408057fe5b9060005260206000209060020201600001548201905060006001860190505b8181116140f0576140cc85600a600084815260200190815260200160002054615ae290919063ffffffff16565b600a600083815260200190815260200160002081905550808060010191505061409f565b506000600190505b6006898154811061410557fe5b9060005260206000209060020201600001548111614238576001600760003373ffffffffffffffffffffffffffffffffffffffff1673ffffffffffffffffffffffffffffffffffffffff16815260200190815260200160002088868151811061416a57fe5b60200260200101518154811061417c57fe5b90600052602060002090600802016006016000838901815260200190815260200160002060006101000a81548160ff0219169083151502179055506002600760003373ffffffffffffffffffffffffffffffffffffffff1673ffffffffffffffffffffffffffffffffffffffff16815260200190815260200160002088868151811061420457fe5b60200260200101518154811061421657fe5b90600052602060002090600802016003018190555080806001019150506140f8565b5050505b8080600101915050613e07565b506000614260600283615b5b90919063ffffffff16565b9050808511156142c25760006142c1576040517f08c379a0000000000000000000000000000000000000000000000000000000008152600401808060200182810382526026815260200180615c0e6026913960400191505060405180910390fd5b5b600061430860646142fa60068a815481106142d957fe5b90600052602060002090600202016001015489615b2190919063ffffffff16565b615b5b90919063ffffffff16565b9050600061431f8288615ae290919063ffffffff16565b9050600260009054906101000a900473ffffffffffffffffffffffffffffffffffffffff1673ffffffffffffffffffffffffffffffffffffffff1663a9059cbb600360009054906101000a900473ffffffffffffffffffffffffffffffffffffffff16846040518363ffffffff1660e01b8152600401808373ffffffffffffffffffffffffffffffffffffffff1673ffffffffffffffffffffffffffffffffffffffff16815260200182815260200192505050602060405180830381600087803b1580156143ec57600080fd5b505af1158015614400573d6000803e3d6000fd5b505050506040513d602081101561441657600080fd5b810190808051906020019092919050505061443057600080fd5b600360009054906101000a900473ffffffffffffffffffffffffffffffffffffffff1673ffffffffffffffffffffffffffffffffffffffff1663382e2aab836040518263ffffffff1660e01b815260040180828152602001915050602060405180830381600087803b1580156144a557600080fd5b505af11580156144b9573d6000803e3d6000fd5b505050506040513d60208110156144cf57600080fd5b81019080805190602001909291905050506144e957600080fd5b600860003373ffffffffffffffffffffffffffffffffffffffff1673ffffffffffffffffffffffffffffffffffffffff1681526020019081526020016000206040518060a00160405280898152602001600260009054906101000a900473ffffffffffffffffffffffffffffffffffffffff1673ffffffffffffffffffffffffffffffffffffffff1663b81f90f36040518163ffffffff1660e01b815260040160206040518083038186803b1580156145a157600080fd5b505afa1580156145b5573d6000803e3d6000fd5b505050506040513d60208110156145cb57600080fd5b810190808051906020019092919050505081526020018a8152602001600181526020018881525090806001815401808255809150509060018203906000526020600020906005020160009091929091909150600082015181600001556020820151816001015560408201518160020155606082015181600301556080820151816004019080519060200190614661929190615b9b565b50505050600260009054906101000a900473ffffffffffffffffffffffffffffffffffffffff1673ffffffffffffffffffffffffffffffffffffffff1663a9059cbb33836040518363ffffffff1660e01b8152600401808373ffffffffffffffffffffffffffffffffffffffff1673ffffffffffffffffffffffffffffffffffffffff16815260200182815260200192505050602060405180830381600087803b15801561470e57600080fd5b505af1158015614722573d6000803e3d6000fd5b505050506040513d602081101561473857600080fd5b810190808051906020019092919050505061475257600080fd5b873373ffffffffffffffffffffffffffffffffffffffff167f583f4a449110798c282200ea42774808b8147fa4bcb89a6ca406dd0650e034e789856001600860003373ffffffffffffffffffffffffffffffffffffffff1673ffffffffffffffffffffffffffffffffffffffff168152602001908152602001600020805490500360405180848152602001838152602001828152602001935050505060405180910390a35050505050505050565b6000600960003373ffffffffffffffffffffffffffffffffffffffff1673ffffffffffffffffffffffffffffffffffffffff168152602001908152602001600020541161484c57600080fd5b6000600960003373ffffffffffffffffffffffffffffffffffffffff1673ffffffffffffffffffffffffffffffffffffffff1681526020019081526020016000205490506000600960003373ffffffffffffffffffffffffffffffffffffffff1673ffffffffffffffffffffffffffffffffffffffff168152602001908152602001600020819055506000600583815481106148e457fe5b9060005260206000209060020201600001546001614900614b3b565b0101905060006001614910614b3b565b0190505b818110156149565782600a60008381526020019081526020016000205401600a6000838152602001908152602001600020819055508080600101915050614914565b506000600760003373ffffffffffffffffffffffffffffffffffffffff1673ffffffffffffffffffffffffffffffffffffffff1681526020019081526020016000209050806040518060c00160405280858152602001600260009054906101000a900473ffffffffffffffffffffffffffffffffffffffff1673ffffffffffffffffffffffffffffffffffffffff1663b81f90f36040518163ffffffff1660e01b815260040160206040518083038186803b158015614a1457600080fd5b505afa158015614a28573d6000803e3d6000fd5b505050506040513d6020811015614a3e57600080fd5b810190808051906020019092919050505081526020018681526020016001815260200160008152602001600081525090806001815401808255809150509060018203906000526020600020906008020160009091929091909150600082015181600001556020820151816001015560408201518160020155606082015181600301556080820151816004015560a08201518160050155505050833373ffffffffffffffffffffffffffffffffffffffff167f680a0e2e97ad7c29da7985e37b699f19857c055166f801e50d90661eae30fcc3856001858054905003604051808381526020018281526020019250505060405180910390a350505050565b60006001600b8054905003905090565b6001600860003373ffffffffffffffffffffffffffffffffffffffff1673ffffffffffffffffffffffffffffffffffffffff1681526020019081526020016000208281548110614b9757fe5b90600052602060002090600502016003015414614c1c576040517f08c379a000000000000000000000000000000000000000000000000000000000815260040180806020018281038252601c8152602001807f63616e206f6e6c792072657061792070656e64696e67206c6f616e730000000081525060200191505060405180910390fd5b600260009054906101000a900473ffffffffffffffffffffffffffffffffffffffff1673ffffffffffffffffffffffffffffffffffffffff166323b872dd3330600860003373ffffffffffffffffffffffffffffffffffffffff1673ffffffffffffffffffffffffffffffffffffffff1681526020019081526020016000208581548110614ca657fe5b9060005260206000209060050201600001546040518463ffffffff1660e01b8152600401808473ffffffffffffffffffffffffffffffffffffffff1673ffffffffffffffffffffffffffffffffffffffff1681526020018373ffffffffffffffffffffffffffffffffffffffff1673ffffffffffffffffffffffffffffffffffffffff1681526020018281526020019350505050602060405180830381600087803b158015614d5457600080fd5b505af1158015614d68573d6000803e3d6000fd5b505050506040513d6020811015614d7e57600080fd5b8101908080519060200190929190505050614de4576040517f08c379a0000000000000000000000000000000000000000000000000000000008152600401808060200182810382526040815260200180615c5b6040913960400191505060405180910390fd5b6002600860003373ffffffffffffffffffffffffffffffffffffffff1673ffffffffffffffffffffffffffffffffffffffff1681526020019081526020016000208281548110614e3057fe5b90600052602060002090600502016003018190555060008090505b600860003373ffffffffffffffffffffffffffffffffffffffff1673ffffffffffffffffffffffffffffffffffffffff1681526020019081526020016000208281548110614e9557fe5b9060005260206000209060050201600401805490508110156151e1576000600860003373ffffffffffffffffffffffffffffffffffffffff1673ffffffffffffffffffffffffffffffffffffffff1681526020019081526020016000208381548110614efd57fe5b90600052602060002090600502016004018281548110614f1957fe5b906000526020600020015490506001600760003373ffffffffffffffffffffffffffffffffffffffff1673ffffffffffffffffffffffffffffffffffffffff1681526020019081526020016000208281548110614f7257fe5b906000526020600020906008020160030181905550600061500d600454614fff600054600760003373ffffffffffffffffffffffffffffffffffffffff1673ffffffffffffffffffffffffffffffffffffffff1681526020019081526020016000208681548110614fdf57fe5b906000526020600020906008020160010154615ae290919063ffffffff16565b615b5b90919063ffffffff16565b905060006005600760003373ffffffffffffffffffffffffffffffffffffffff1673ffffffffffffffffffffffffffffffffffffffff168152602001908152602001600020848154811061505d57fe5b9060005260206000209060080201600201548154811061507957fe5b906000526020600020906002020160000154820190506000600161509b614b3b565b0190505b8181116151d0576000600760003373ffffffffffffffffffffffffffffffffffffffff1673ffffffffffffffffffffffffffffffffffffffff16815260200190815260200160002085815481106150f257fe5b9060005260206000209060080201600601600087815260200190815260200160002060006101000a81548160ff0219169083151502179055506151ac600760003373ffffffffffffffffffffffffffffffffffffffff1673ffffffffffffffffffffffffffffffffffffffff168152602001908152602001600020858154811061517857fe5b906000526020600020906008020160000154600a600084815260200190815260200160002054615b0290919063ffffffff16565b600a600083815260200190815260200160002081905550808060010191505061509f565b505050508080600101915050614e4b565b5050565b600260009054906101000a900473ffffffffffffffffffffffffffffffffffffffff1673ffffffffffffffffffffffffffffffffffffffff166323b872dd3330856040518463ffffffff1660e01b8152600401808473ffffffffffffffffffffffffffffffffffffffff1673ffffffffffffffffffffffffffffffffffffffff1681526020018373ffffffffffffffffffffffffffffffffffffffff1673ffffffffffffffffffffffffffffffffffffffff1681526020018281526020019350505050602060405180830381600087803b1580156152c257600080fd5b505af11580156152d6573d6000803e3d6000fd5b505050506040513d60208110156152ec57600080fd5b810190808051906020019092919050505061536f576040517f08c379a00000000000000000000000000000000000000000000000000000000081526004018080602001828103825260198152602001807f636f756c64206e6f74207472616e7366657220746f6b656e730000000000000081525060200191505060405180910390fd5b60006005828154811061537e57fe5b906000526020600020906002020160000154600161539a614b3b565b01019050600060016153aa614b3b565b0190505b818110156153f05783600a60008381526020019081526020016000205401600a60008381526020019081526020016000208190555080806001019150506153ae565b506000600760003373ffffffffffffffffffffffffffffffffffffffff1673ffffffffffffffffffffffffffffffffffffffff1681526020019081526020016000209050806040518060c00160405280868152602001600260009054906101000a900473ffffffffffffffffffffffffffffffffffffffff1673ffffffffffffffffffffffffffffffffffffffff1663b81f90f36040518163ffffffff1660e01b815260040160206040518083038186803b1580156154ae57600080fd5b505afa1580156154c2573d6000803e3d6000fd5b505050506040513d60208110156154d857600080fd5b810190808051906020019092919050505081526020018581526020016001815260200160008152602001600081525090806001815401808255809150509060018203906000526020600020906008020160009091929091909150600082015181600001556020820151816001015560408201518160020155606082015181600301556080820151816004015560a08201518160050155505050823373ffffffffffffffffffffffffffffffffffffffff167f680a0e2e97ad7c29da7985e37b699f19857c055166f801e50d90661eae30fcc3866001858054905003604051808381526020018281526020019250505060405180910390a350505050565b600360009054906101000a900473ffffffffffffffffffffffffffffffffffffffff1673ffffffffffffffffffffffffffffffffffffffff163373ffffffffffffffffffffffffffffffffffffffff1614615698576040517f08c379a00000000000000000000000000000000000000000000000000000000081526004018080602001828103825260198152602001807f6f6e6c79204e5254206d616e616765722063616e2063616c6c0000000000000081525060200191505060405180910390fd5b600b81908060018154018082558091505090600182039060005260206000200160009091929091909150555050565b60008090505b81518110156158aa576003600760003373ffffffffffffffffffffffffffffffffffffffff1673ffffffffffffffffffffffffffffffffffffffff16815260200190815260200160002083838151811061572357fe5b60200260200101518154811061573557fe5b906000526020600020906008020160030181905550600260009054906101000a900473ffffffffffffffffffffffffffffffffffffffff1673ffffffffffffffffffffffffffffffffffffffff1663a9059cbb33600760003373ffffffffffffffffffffffffffffffffffffffff1673ffffffffffffffffffffffffffffffffffffffff1681526020019081526020016000208585815181106157d457fe5b6020026020010151815481106157e657fe5b9060005260206000209060080201600001546040518363ffffffff1660e01b8152600401808373ffffffffffffffffffffffffffffffffffffffff1673ffffffffffffffffffffffffffffffffffffffff16815260200182815260200192505050602060405180830381600087803b15801561586157600080fd5b505af1158015615875573d6000803e3d6000fd5b505050506040513d602081101561588b57600080fd5b81019080805190602001909291905050505080806001019150506156cd565b5050565b6000806158b9614b3b565b905082811015615931576040517f08c379a000000000000000000000000000000000000000000000000000000000815260040180806020018281038252601a8152602001807f63616e6e6f742073656520667574757265207374616b696e677300000000000081525060200191505060405180910390fd5b600080600090505b600760008773ffffffffffffffffffffffffffffffffffffffff1673ffffffffffffffffffffffffffffffffffffffff16815260200190815260200160002080549050811015615ab05761598f86828588612e48565b15615aa357615aa0615a91600f615a836005600760008c73ffffffffffffffffffffffffffffffffffffffff1673ffffffffffffffffffffffffffffffffffffffff16815260200190815260200160002086815481106159eb57fe5b90600052602060002090600802016002015481548110615a0757fe5b906000526020600020906002020160010154600760008c73ffffffffffffffffffffffffffffffffffffffff1673ffffffffffffffffffffffffffffffffffffffff1681526020019081526020016000208681548110615a6357fe5b906000526020600020906008020160000154615b2190919063ffffffff16565b615b5b90919063ffffffff16565b83615b0290919063ffffffff16565b91505b8080600101915050615939565b50809250505092915050565b600260009054906101000a900473ffffffffffffffffffffffffffffffffffffffff1681565b600082821115615af157600080fd5b600082840390508091505092915050565b600080828401905083811015615b1757600080fd5b8091505092915050565b600080831415615b345760009050615b55565b6000828402905082848281615b4557fe5b0414615b5057600080fd5b809150505b92915050565b6000808211615b6957600080fd5b6000828481615b7457fe5b0490508091505092915050565b604051806040016040528060008152602001600081525090565b828054828255906000526020600020908101928215615bd7579160200282015b82811115615bd6578251825591602001919060010190615bbb565b5b509050615be49190615be8565b5090565b615c0a91905b80821115615c06576000816000905550600101615bee565b5090565b9056fe63616e6e6f74206c6f616e206d6f7265207468616e206d61784c6f616e696e67416d6f756e746163637275656450657263656e746167652073686f756c64206265206174206c6561737420353063616e6e6f74207265636569766520656e6f75676820746f6b656e732c20706c6561736520636865636b20696620616c6c6f77616e6365206973207468657265746f74616c20616374697665207374616b696e67732073686f756c64206265206e6f6e207a65726fa265627a7a7230582079aacf260b00364a1631f29761b017c21827f72def2dafe3e9498757c8851d7064736f6c634300050a0032","opcodes":"PUSH1 0x80 PUSH1 0x40 MSTORE PUSH3 0x282070 PUSH1 0x4 SSTORE CALLVALUE DUP1 ISZERO PUSH3 0x18 JUMPI PUSH1 0x0 DUP1 REVERT JUMPDEST POP PUSH1 0x40 MLOAD PUSH3 0x5EFE CODESIZE SUB DUP1 PUSH3 0x5EFE DUP4 CODECOPY DUP2 DUP2 ADD PUSH1 0x40 MSTORE PUSH1 0x40 DUP2 LT ISZERO PUSH3 0x3E JUMPI PUSH1 0x0 DUP1 REVERT JUMPDEST DUP2 ADD SWAP1 DUP1 DUP1 MLOAD SWAP1 PUSH1 0x20 ADD SWAP1 SWAP3 SWAP2 SWAP1 DUP1 MLOAD SWAP1 PUSH1 0x20 ADD SWAP1 SWAP3 SWAP2 SWAP1 POP POP POP CALLER PUSH1 0x1 PUSH1 0x0 PUSH2 0x100 EXP DUP2 SLOAD DUP2 PUSH20 0xFFFFFFFFFFFFFFFFFFFFFFFFFFFFFFFFFFFFFFFF MUL NOT AND SWAP1 DUP4 PUSH20 0xFFFFFFFFFFFFFFFFFFFFFFFFFFFFFFFFFFFFFFFF AND MUL OR SWAP1 SSTORE POP DUP2 PUSH1 0x2 PUSH1 0x0 PUSH2 0x100 EXP DUP2 SLOAD DUP2 PUSH20 0xFFFFFFFFFFFFFFFFFFFFFFFFFFFFFFFFFFFFFFFF MUL NOT AND SWAP1 DUP4 PUSH20 0xFFFFFFFFFFFFFFFFFFFFFFFFFFFFFFFFFFFFFFFF AND MUL OR SWAP1 SSTORE POP DUP1 PUSH1 0x3 PUSH1 0x0 PUSH2 0x100 EXP DUP2 SLOAD DUP2 PUSH20 0xFFFFFFFFFFFFFFFFFFFFFFFFFFFFFFFFFFFFFFFF MUL NOT AND SWAP1 DUP4 PUSH20 0xFFFFFFFFFFFFFFFFFFFFFFFFFFFFFFFFFFFFFFFF AND MUL OR SWAP1 SSTORE POP PUSH1 0x2 PUSH1 0x0 SWAP1 SLOAD SWAP1 PUSH2 0x100 EXP SWAP1 DIV PUSH20 0xFFFFFFFFFFFFFFFFFFFFFFFFFFFFFFFFFFFFFFFF AND PUSH20 0xFFFFFFFFFFFFFFFFFFFFFFFFFFFFFFFFFFFFFFFF AND PUSH4 0xB81F90F3 PUSH1 0x40 MLOAD DUP2 PUSH4 0xFFFFFFFF AND PUSH1 0xE0 SHL DUP2 MSTORE PUSH1 0x4 ADD PUSH1 0x20 PUSH1 0x40 MLOAD DUP1 DUP4 SUB DUP2 DUP7 DUP1 EXTCODESIZE ISZERO DUP1 ISZERO PUSH3 0x185 JUMPI PUSH1 0x0 DUP1 REVERT JUMPDEST POP GAS STATICCALL ISZERO DUP1 ISZERO PUSH3 0x19A JUMPI RETURNDATASIZE PUSH1 0x0 DUP1 RETURNDATACOPY RETURNDATASIZE PUSH1 0x0 REVERT JUMPDEST POP POP POP POP PUSH1 0x40 MLOAD RETURNDATASIZE PUSH1 0x20 DUP2 LT ISZERO PUSH3 0x1B1 JUMPI PUSH1 0x0 DUP1 REVERT JUMPDEST DUP2 ADD SWAP1 DUP1 DUP1 MLOAD SWAP1 PUSH1 0x20 ADD SWAP1 SWAP3 SWAP2 SWAP1 POP POP POP PUSH1 0x0 DUP2 SWAP1 SSTORE POP PUSH1 0xB PUSH1 0x0 SWAP1 DUP1 PUSH1 0x1 DUP2 SLOAD ADD DUP1 DUP3 SSTORE DUP1 SWAP2 POP POP SWAP1 PUSH1 0x1 DUP3 SUB SWAP1 PUSH1 0x0 MSTORE PUSH1 0x20 PUSH1 0x0 KECCAK256 ADD PUSH1 0x0 SWAP1 SWAP2 SWAP3 SWAP1 SWAP2 SWAP1 SWAP2 POP SSTORE POP POP POP PUSH2 0x5CF7 DUP1 PUSH3 0x207 PUSH1 0x0 CODECOPY PUSH1 0x0 RETURN INVALID PUSH1 0x80 PUSH1 0x40 MSTORE CALLVALUE DUP1 ISZERO PUSH2 0x10 JUMPI PUSH1 0x0 DUP1 REVERT JUMPDEST POP PUSH1 0x4 CALLDATASIZE LT PUSH2 0x1F0 JUMPI PUSH1 0x0 CALLDATALOAD PUSH1 0xE0 SHR DUP1 PUSH4 0x97A332D8 GT PUSH2 0x10F JUMPI DUP1 PUSH4 0xDA9D8AA0 GT PUSH2 0xA2 JUMPI DUP1 PUSH4 0xE78C81C4 GT PUSH2 0x71 JUMPI DUP1 PUSH4 0xE78C81C4 EQ PUSH2 0xC69 JUMPI DUP1 PUSH4 0xE83F7843 EQ PUSH2 0xC97 JUMPI DUP1 PUSH4 0xEB12F7F5 EQ PUSH2 0xD4F JUMPI DUP1 PUSH4 0xFC0C546A EQ PUSH2 0xDB1 JUMPI PUSH2 0x1F0 JUMP JUMPDEST DUP1 PUSH4 0xDA9D8AA0 EQ PUSH2 0xBB7 JUMPI DUP1 PUSH4 0xDDD1B67E EQ PUSH2 0xBE5 JUMPI DUP1 PUSH4 0xDEA6CF43 EQ PUSH2 0xC03 JUMPI DUP1 PUSH4 0xE5FD04E6 EQ PUSH2 0xC31 JUMPI PUSH2 0x1F0 JUMP JUMPDEST DUP1 PUSH4 0xBE4AD9C3 GT PUSH2 0xDE JUMPI DUP1 PUSH4 0xBE4AD9C3 EQ PUSH2 0x97E JUMPI DUP1 PUSH4 0xC71D5D58 EQ PUSH2 0xA6A JUMPI DUP1 PUSH4 0xCC44A2FD EQ PUSH2 0xAA2 JUMPI DUP1 PUSH4 0xD0E32681 EQ PUSH2 0xAEB JUMPI PUSH2 0x1F0 JUMP JUMPDEST DUP1 PUSH4 0x97A332D8 EQ PUSH2 0x81C JUMPI DUP1 PUSH4 0xA4C0E90A EQ PUSH2 0x896 JUMPI DUP1 PUSH4 0xAD998FA0 EQ PUSH2 0x8EE JUMPI DUP1 PUSH4 0xBBA91DC0 EQ PUSH2 0x946 JUMPI PUSH2 0x1F0 JUMP JUMPDEST DUP1 PUSH4 0x4F916FB0 GT PUSH2 0x187 JUMPI DUP1 PUSH4 0x82F97857 GT PUSH2 0x156 JUMPI DUP1 PUSH4 0x82F97857 EQ PUSH2 0x600 JUMPI DUP1 PUSH4 0x88C5F296 EQ PUSH2 0x638 JUMPI DUP1 PUSH4 0x8DA5CB5B EQ PUSH2 0x784 JUMPI DUP1 PUSH4 0x911E8BC6 EQ PUSH2 0x7CE JUMPI PUSH2 0x1F0 JUMP JUMPDEST DUP1 PUSH4 0x4F916FB0 EQ PUSH2 0x4E3 JUMPI DUP1 PUSH4 0x53FCB2F3 EQ PUSH2 0x531 JUMPI DUP1 PUSH4 0x762E7A34 EQ PUSH2 0x55F JUMPI DUP1 PUSH4 0x7ACAB857 EQ PUSH2 0x5A8 JUMPI PUSH2 0x1F0 JUMP JUMPDEST DUP1 PUSH4 0x2F3B59EA GT PUSH2 0x1C3 JUMPI DUP1 PUSH4 0x2F3B59EA EQ PUSH2 0x35B JUMPI DUP1 PUSH4 0x46A4D6E3 EQ PUSH2 0x3BD JUMPI DUP1 PUSH4 0x497EC40F EQ PUSH2 0x442 JUMPI DUP1 PUSH4 0x4EC0692C EQ PUSH2 0x4A1 JUMPI PUSH2 0x1F0 JUMP JUMPDEST DUP1 PUSH4 0xDF5202F EQ PUSH2 0x1F5 JUMPI DUP1 PUSH4 0x218E731F EQ PUSH2 0x23F JUMPI DUP1 PUSH4 0x23A15E6B EQ PUSH2 0x297 JUMPI DUP1 PUSH4 0x2E9721B6 EQ PUSH2 0x2D9 JUMPI JUMPDEST PUSH1 0x0 DUP1 REVERT JUMPDEST PUSH2 0x1FD PUSH2 0xDFB JUMP JUMPDEST PUSH1 0x40 MLOAD DUP1 DUP3 PUSH20 0xFFFFFFFFFFFFFFFFFFFFFFFFFFFFFFFFFFFFFFFF AND PUSH20 0xFFFFFFFFFFFFFFFFFFFFFFFFFFFFFFFFFFFFFFFF AND DUP2 MSTORE PUSH1 0x20 ADD SWAP2 POP POP PUSH1 0x40 MLOAD DUP1 SWAP2 SUB SWAP1 RETURN JUMPDEST PUSH2 0x295 PUSH1 0x4 DUP1 CALLDATASIZE SUB PUSH1 0x60 DUP2 LT ISZERO PUSH2 0x255 JUMPI PUSH1 0x0 DUP1 REVERT JUMPDEST DUP2 ADD SWAP1 DUP1 DUP1 CALLDATALOAD SWAP1 PUSH1 0x20 ADD SWAP1 SWAP3 SWAP2 SWAP1 DUP1 CALLDATALOAD PUSH20 0xFFFFFFFFFFFFFFFFFFFFFFFFFFFFFFFFFFFFFFFF AND SWAP1 PUSH1 0x20 ADD SWAP1 SWAP3 SWAP2 SWAP1 DUP1 CALLDATALOAD SWAP1 PUSH1 0x20 ADD SWAP1 SWAP3 SWAP2 SWAP1 POP POP POP PUSH2 0xE21 JUMP JUMPDEST STOP JUMPDEST PUSH2 0x2C3 PUSH1 0x4 DUP1 CALLDATASIZE SUB PUSH1 0x20 DUP2 LT ISZERO PUSH2 0x2AD JUMPI PUSH1 0x0 DUP1 REVERT JUMPDEST DUP2 ADD SWAP1 DUP1 DUP1 CALLDATALOAD SWAP1 PUSH1 0x20 ADD SWAP1 SWAP3 SWAP2 SWAP1 POP POP POP PUSH2 0x1404 JUMP JUMPDEST PUSH1 0x40 MLOAD DUP1 DUP3 DUP2 MSTORE PUSH1 0x20 ADD SWAP2 POP POP PUSH1 0x40 MLOAD DUP1 SWAP2 SUB SWAP1 RETURN JUMPDEST PUSH2 0x345 PUSH1 0x4 DUP1 CALLDATASIZE SUB PUSH1 0x60 DUP2 LT ISZERO PUSH2 0x2EF JUMPI PUSH1 0x0 DUP1 REVERT JUMPDEST DUP2 ADD SWAP1 DUP1 DUP1 CALLDATALOAD PUSH20 0xFFFFFFFFFFFFFFFFFFFFFFFFFFFFFFFFFFFFFFFF AND SWAP1 PUSH1 0x20 ADD SWAP1 SWAP3 SWAP2 SWAP1 DUP1 CALLDATALOAD SWAP1 PUSH1 0x20 ADD SWAP1 SWAP3 SWAP2 SWAP1 DUP1 CALLDATALOAD PUSH20 0xFFFFFFFFFFFFFFFFFFFFFFFFFFFFFFFFFFFFFFFF AND SWAP1 PUSH1 0x20 ADD SWAP1 SWAP3 SWAP2 SWAP1 POP POP POP PUSH2 0x1425 JUMP JUMPDEST PUSH1 0x40 MLOAD DUP1 DUP3 DUP2 MSTORE PUSH1 0x20 ADD SWAP2 POP POP PUSH1 0x40 MLOAD DUP1 SWAP2 SUB SWAP1 RETURN JUMPDEST PUSH2 0x3A7 PUSH1 0x4 DUP1 CALLDATASIZE SUB PUSH1 0x40 DUP2 LT ISZERO PUSH2 0x371 JUMPI PUSH1 0x0 DUP1 REVERT JUMPDEST DUP2 ADD SWAP1 DUP1 DUP1 CALLDATALOAD PUSH20 0xFFFFFFFFFFFFFFFFFFFFFFFFFFFFFFFFFFFFFFFF AND SWAP1 PUSH1 0x20 ADD SWAP1 SWAP3 SWAP2 SWAP1 DUP1 CALLDATALOAD SWAP1 PUSH1 0x20 ADD SWAP1 SWAP3 SWAP2 SWAP1 POP POP POP PUSH2 0x14C9 JUMP JUMPDEST PUSH1 0x40 MLOAD DUP1 DUP3 DUP2 MSTORE PUSH1 0x20 ADD SWAP2 POP POP PUSH1 0x40 MLOAD DUP1 SWAP2 SUB SWAP1 RETURN JUMPDEST PUSH2 0x409 PUSH1 0x4 DUP1 CALLDATASIZE SUB PUSH1 0x40 DUP2 LT ISZERO PUSH2 0x3D3 JUMPI PUSH1 0x0 DUP1 REVERT JUMPDEST DUP2 ADD SWAP1 DUP1 DUP1 CALLDATALOAD PUSH20 0xFFFFFFFFFFFFFFFFFFFFFFFFFFFFFFFFFFFFFFFF AND SWAP1 PUSH1 0x20 ADD SWAP1 SWAP3 SWAP2 SWAP1 DUP1 CALLDATALOAD SWAP1 PUSH1 0x20 ADD SWAP1 SWAP3 SWAP2 SWAP1 POP POP POP PUSH2 0x17FA JUMP JUMPDEST PUSH1 0x40 MLOAD DUP1 DUP8 DUP2 MSTORE PUSH1 0x20 ADD DUP7 DUP2 MSTORE PUSH1 0x20 ADD DUP6 DUP2 MSTORE PUSH1 0x20 ADD DUP5 DUP2 MSTORE PUSH1 0x20 ADD DUP4 DUP2 MSTORE PUSH1 0x20 ADD DUP3 DUP2 MSTORE PUSH1 0x20 ADD SWAP7 POP POP POP POP POP POP POP PUSH1 0x40 MLOAD DUP1 SWAP2 SUB SWAP1 RETURN JUMPDEST PUSH2 0x44A PUSH2 0x1A41 JUMP JUMPDEST PUSH1 0x40 MLOAD DUP1 DUP1 PUSH1 0x20 ADD DUP3 DUP2 SUB DUP3 MSTORE DUP4 DUP2 DUP2 MLOAD DUP2 MSTORE PUSH1 0x20 ADD SWAP2 POP DUP1 MLOAD SWAP1 PUSH1 0x20 ADD SWAP1 PUSH1 0x20 MUL DUP1 DUP4 DUP4 PUSH1 0x0 JUMPDEST DUP4 DUP2 LT ISZERO PUSH2 0x48D JUMPI DUP1 DUP3 ADD MLOAD DUP2 DUP5 ADD MSTORE PUSH1 0x20 DUP2 ADD SWAP1 POP PUSH2 0x472 JUMP JUMPDEST POP POP POP POP SWAP1 POP ADD SWAP3 POP POP POP PUSH1 0x40 MLOAD DUP1 SWAP2 SUB SWAP1 RETURN JUMPDEST PUSH2 0x4CD PUSH1 0x4 DUP1 CALLDATASIZE SUB PUSH1 0x20 DUP2 LT ISZERO PUSH2 0x4B7 JUMPI PUSH1 0x0 DUP1 REVERT JUMPDEST DUP2 ADD SWAP1 DUP1 DUP1 CALLDATALOAD SWAP1 PUSH1 0x20 ADD SWAP1 SWAP3 SWAP2 SWAP1 POP POP POP PUSH2 0x1A99 JUMP JUMPDEST PUSH1 0x40 MLOAD DUP1 DUP3 DUP2 MSTORE PUSH1 0x20 ADD SWAP2 POP POP PUSH1 0x40 MLOAD DUP1 SWAP2 SUB SWAP1 RETURN JUMPDEST PUSH2 0x52F PUSH1 0x4 DUP1 CALLDATASIZE SUB PUSH1 0x40 DUP2 LT ISZERO PUSH2 0x4F9 JUMPI PUSH1 0x0 DUP1 REVERT JUMPDEST DUP2 ADD SWAP1 DUP1 DUP1 CALLDATALOAD SWAP1 PUSH1 0x20 ADD SWAP1 SWAP3 SWAP2 SWAP1 DUP1 CALLDATALOAD PUSH20 0xFFFFFFFFFFFFFFFFFFFFFFFFFFFFFFFFFFFFFFFF AND SWAP1 PUSH1 0x20 ADD SWAP1 SWAP3 SWAP2 SWAP1 POP POP POP PUSH2 0x1AB1 JUMP JUMPDEST STOP JUMPDEST PUSH2 0x55D PUSH1 0x4 DUP1 CALLDATASIZE SUB PUSH1 0x20 DUP2 LT ISZERO PUSH2 0x547 JUMPI PUSH1 0x0 DUP1 REVERT JUMPDEST DUP2 ADD SWAP1 DUP1 DUP1 CALLDATALOAD SWAP1 PUSH1 0x20 ADD SWAP1 SWAP3 SWAP2 SWAP1 POP POP POP PUSH2 0x1D8F JUMP JUMPDEST STOP JUMPDEST PUSH2 0x58B PUSH1 0x4 DUP1 CALLDATASIZE SUB PUSH1 0x20 DUP2 LT ISZERO PUSH2 0x575 JUMPI PUSH1 0x0 DUP1 REVERT JUMPDEST DUP2 ADD SWAP1 DUP1 DUP1 CALLDATALOAD SWAP1 PUSH1 0x20 ADD SWAP1 SWAP3 SWAP2 SWAP1 POP POP POP PUSH2 0x1F48 JUMP JUMPDEST PUSH1 0x40 MLOAD DUP1 DUP4 DUP2 MSTORE PUSH1 0x20 ADD DUP3 DUP2 MSTORE PUSH1 0x20 ADD SWAP3 POP POP POP PUSH1 0x40 MLOAD DUP1 SWAP2 SUB SWAP1 RETURN JUMPDEST PUSH2 0x5EA PUSH1 0x4 DUP1 CALLDATASIZE SUB PUSH1 0x20 DUP2 LT ISZERO PUSH2 0x5BE JUMPI PUSH1 0x0 DUP1 REVERT JUMPDEST DUP2 ADD SWAP1 DUP1 DUP1 CALLDATALOAD PUSH20 0xFFFFFFFFFFFFFFFFFFFFFFFFFFFFFFFFFFFFFFFF AND SWAP1 PUSH1 0x20 ADD SWAP1 SWAP3 SWAP2 SWAP1 POP POP POP PUSH2 0x1F79 JUMP JUMPDEST PUSH1 0x40 MLOAD DUP1 DUP3 DUP2 MSTORE PUSH1 0x20 ADD SWAP2 POP POP PUSH1 0x40 MLOAD DUP1 SWAP2 SUB SWAP1 RETURN JUMPDEST PUSH2 0x636 PUSH1 0x4 DUP1 CALLDATASIZE SUB PUSH1 0x40 DUP2 LT ISZERO PUSH2 0x616 JUMPI PUSH1 0x0 DUP1 REVERT JUMPDEST DUP2 ADD SWAP1 DUP1 DUP1 CALLDATALOAD SWAP1 PUSH1 0x20 ADD SWAP1 SWAP3 SWAP2 SWAP1 DUP1 CALLDATALOAD SWAP1 PUSH1 0x20 ADD SWAP1 SWAP3 SWAP2 SWAP1 POP POP POP PUSH2 0x1F91 JUMP JUMPDEST STOP JUMPDEST PUSH2 0x782 PUSH1 0x4 DUP1 CALLDATASIZE SUB PUSH1 0x40 DUP2 LT ISZERO PUSH2 0x64E JUMPI PUSH1 0x0 DUP1 REVERT JUMPDEST DUP2 ADD SWAP1 DUP1 DUP1 CALLDATALOAD SWAP1 PUSH1 0x20 ADD SWAP1 PUSH5 0x100000000 DUP2 GT ISZERO PUSH2 0x66B JUMPI PUSH1 0x0 DUP1 REVERT JUMPDEST DUP3 ADD DUP4 PUSH1 0x20 DUP3 ADD GT ISZERO PUSH2 0x67D JUMPI PUSH1 0x0 DUP1 REVERT JUMPDEST DUP1 CALLDATALOAD SWAP1 PUSH1 0x20 ADD SWAP2 DUP5 PUSH1 0x20 DUP4 MUL DUP5 ADD GT PUSH5 0x100000000 DUP4 GT OR ISZERO PUSH2 0x69F JUMPI PUSH1 0x0 DUP1 REVERT JUMPDEST SWAP2 SWAP1 DUP1 DUP1 PUSH1 0x20 MUL PUSH1 0x20 ADD PUSH1 0x40 MLOAD SWAP1 DUP2 ADD PUSH1 0x40 MSTORE DUP1 SWAP4 SWAP3 SWAP2 SWAP1 DUP2 DUP2 MSTORE PUSH1 0x20 ADD DUP4 DUP4 PUSH1 0x20 MUL DUP1 DUP3 DUP5 CALLDATACOPY PUSH1 0x0 DUP2 DUP5 ADD MSTORE PUSH1 0x1F NOT PUSH1 0x1F DUP3 ADD AND SWAP1 POP DUP1 DUP4 ADD SWAP3 POP POP POP POP POP POP POP SWAP2 SWAP3 SWAP2 SWAP3 SWAP1 DUP1 CALLDATALOAD SWAP1 PUSH1 0x20 ADD SWAP1 PUSH5 0x100000000 DUP2 GT ISZERO PUSH2 0x6FF JUMPI PUSH1 0x0 DUP1 REVERT JUMPDEST DUP3 ADD DUP4 PUSH1 0x20 DUP3 ADD GT ISZERO PUSH2 0x711 JUMPI PUSH1 0x0 DUP1 REVERT JUMPDEST DUP1 CALLDATALOAD SWAP1 PUSH1 0x20 ADD SWAP2 DUP5 PUSH1 0x20 DUP4 MUL DUP5 ADD GT PUSH5 0x100000000 DUP4 GT OR ISZERO PUSH2 0x733 JUMPI PUSH1 0x0 DUP1 REVERT JUMPDEST SWAP2 SWAP1 DUP1 DUP1 PUSH1 0x20 MUL PUSH1 0x20 ADD PUSH1 0x40 MLOAD SWAP1 DUP2 ADD PUSH1 0x40 MSTORE DUP1 SWAP4 SWAP3 SWAP2 SWAP1 DUP2 DUP2 MSTORE PUSH1 0x20 ADD DUP4 DUP4 PUSH1 0x20 MUL DUP1 DUP3 DUP5 CALLDATACOPY PUSH1 0x0 DUP2 DUP5 ADD MSTORE PUSH1 0x1F NOT PUSH1 0x1F DUP3 ADD AND SWAP1 POP DUP1 DUP4 ADD SWAP3 POP POP POP POP POP POP POP SWAP2 SWAP3 SWAP2 SWAP3 SWAP1 POP POP POP PUSH2 0x20B1 JUMP JUMPDEST STOP JUMPDEST PUSH2 0x78C PUSH2 0x230B JUMP JUMPDEST PUSH1 0x40 MLOAD DUP1 DUP3 PUSH20 0xFFFFFFFFFFFFFFFFFFFFFFFFFFFFFFFFFFFFFFFF AND PUSH20 0xFFFFFFFFFFFFFFFFFFFFFFFFFFFFFFFFFFFFFFFF AND DUP2 MSTORE PUSH1 0x20 ADD SWAP2 POP POP PUSH1 0x40 MLOAD DUP1 SWAP2 SUB SWAP1 RETURN JUMPDEST PUSH2 0x81A PUSH1 0x4 DUP1 CALLDATASIZE SUB PUSH1 0x40 DUP2 LT ISZERO PUSH2 0x7E4 JUMPI PUSH1 0x0 DUP1 REVERT JUMPDEST DUP2 ADD SWAP1 DUP1 DUP1 CALLDATALOAD PUSH20 0xFFFFFFFFFFFFFFFFFFFFFFFFFFFFFFFFFFFFFFFF AND SWAP1 PUSH1 0x20 ADD SWAP1 SWAP3 SWAP2 SWAP1 DUP1 CALLDATALOAD SWAP1 PUSH1 0x20 ADD SWAP1 SWAP3 SWAP2 SWAP1 POP POP POP PUSH2 0x2331 JUMP JUMPDEST STOP JUMPDEST PUSH2 0x87C PUSH1 0x4 DUP1 CALLDATASIZE SUB PUSH1 0x80 DUP2 LT ISZERO PUSH2 0x832 JUMPI PUSH1 0x0 DUP1 REVERT JUMPDEST DUP2 ADD SWAP1 DUP1 DUP1 CALLDATALOAD PUSH20 0xFFFFFFFFFFFFFFFFFFFFFFFFFFFFFFFFFFFFFFFF AND SWAP1 PUSH1 0x20 ADD SWAP1 SWAP3 SWAP2 SWAP1 DUP1 CALLDATALOAD SWAP1 PUSH1 0x20 ADD SWAP1 SWAP3 SWAP2 SWAP1 DUP1 CALLDATALOAD SWAP1 PUSH1 0x20 ADD SWAP1 SWAP3 SWAP2 SWAP1 DUP1 CALLDATALOAD SWAP1 PUSH1 0x20 ADD SWAP1 SWAP3 SWAP2 SWAP1 POP POP POP PUSH2 0x2E48 JUMP JUMPDEST PUSH1 0x40 MLOAD DUP1 DUP3 ISZERO ISZERO ISZERO ISZERO DUP2 MSTORE PUSH1 0x20 ADD SWAP2 POP POP PUSH1 0x40 MLOAD DUP1 SWAP2 SUB SWAP1 RETURN JUMPDEST PUSH2 0x8EC PUSH1 0x4 DUP1 CALLDATASIZE SUB PUSH1 0x60 DUP2 LT ISZERO PUSH2 0x8AC JUMPI PUSH1 0x0 DUP1 REVERT JUMPDEST DUP2 ADD SWAP1 DUP1 DUP1 CALLDATALOAD SWAP1 PUSH1 0x20 ADD SWAP1 SWAP3 SWAP2 SWAP1 DUP1 CALLDATALOAD PUSH20 0xFFFFFFFFFFFFFFFFFFFFFFFFFFFFFFFFFFFFFFFF AND SWAP1 PUSH1 0x20 ADD SWAP1 SWAP3 SWAP2 SWAP1 DUP1 CALLDATALOAD SWAP1 PUSH1 0x20 ADD SWAP1 SWAP3 SWAP2 SWAP1 POP POP POP PUSH2 0x310D JUMP JUMPDEST STOP JUMPDEST PUSH2 0x930 PUSH1 0x4 DUP1 CALLDATASIZE SUB PUSH1 0x20 DUP2 LT ISZERO PUSH2 0x904 JUMPI PUSH1 0x0 DUP1 REVERT JUMPDEST DUP2 ADD SWAP1 DUP1 DUP1 CALLDATALOAD PUSH20 0xFFFFFFFFFFFFFFFFFFFFFFFFFFFFFFFFFFFFFFFF AND SWAP1 PUSH1 0x20 ADD SWAP1 SWAP3 SWAP2 SWAP1 POP POP POP PUSH2 0x34B6 JUMP JUMPDEST PUSH1 0x40 MLOAD DUP1 DUP3 DUP2 MSTORE PUSH1 0x20 ADD SWAP2 POP POP PUSH1 0x40 MLOAD DUP1 SWAP2 SUB SWAP1 RETURN JUMPDEST PUSH2 0x97C PUSH1 0x4 DUP1 CALLDATASIZE SUB PUSH1 0x40 DUP2 LT ISZERO PUSH2 0x95C JUMPI PUSH1 0x0 DUP1 REVERT JUMPDEST DUP2 ADD SWAP1 DUP1 DUP1 CALLDATALOAD SWAP1 PUSH1 0x20 ADD SWAP1 SWAP3 SWAP2 SWAP1 DUP1 CALLDATALOAD SWAP1 PUSH1 0x20 ADD SWAP1 SWAP3 SWAP2 SWAP1 POP POP POP PUSH2 0x3502 JUMP JUMPDEST STOP JUMPDEST PUSH2 0xA54 PUSH1 0x4 DUP1 CALLDATASIZE SUB PUSH1 0x40 DUP2 LT ISZERO PUSH2 0x994 JUMPI PUSH1 0x0 DUP1 REVERT JUMPDEST DUP2 ADD SWAP1 DUP1 DUP1 CALLDATALOAD PUSH20 0xFFFFFFFFFFFFFFFFFFFFFFFFFFFFFFFFFFFFFFFF AND SWAP1 PUSH1 0x20 ADD SWAP1 SWAP3 SWAP2 SWAP1 DUP1 CALLDATALOAD SWAP1 PUSH1 0x20 ADD SWAP1 PUSH5 0x100000000 DUP2 GT ISZERO PUSH2 0x9D1 JUMPI PUSH1 0x0 DUP1 REVERT JUMPDEST DUP3 ADD DUP4 PUSH1 0x20 DUP3 ADD GT ISZERO PUSH2 0x9E3 JUMPI PUSH1 0x0 DUP1 REVERT JUMPDEST DUP1 CALLDATALOAD SWAP1 PUSH1 0x20 ADD SWAP2 DUP5 PUSH1 0x20 DUP4 MUL DUP5 ADD GT PUSH5 0x100000000 DUP4 GT OR ISZERO PUSH2 0xA05 JUMPI PUSH1 0x0 DUP1 REVERT JUMPDEST SWAP2 SWAP1 DUP1 DUP1 PUSH1 0x20 MUL PUSH1 0x20 ADD PUSH1 0x40 MLOAD SWAP1 DUP2 ADD PUSH1 0x40 MSTORE DUP1 SWAP4 SWAP3 SWAP2 SWAP1 DUP2 DUP2 MSTORE PUSH1 0x20 ADD DUP4 DUP4 PUSH1 0x20 MUL DUP1 DUP3 DUP5 CALLDATACOPY PUSH1 0x0 DUP2 DUP5 ADD MSTORE PUSH1 0x1F NOT PUSH1 0x1F DUP3 ADD AND SWAP1 POP DUP1 DUP4 ADD SWAP3 POP POP POP POP POP POP POP SWAP2 SWAP3 SWAP2 SWAP3 SWAP1 POP POP POP PUSH2 0x3BB0 JUMP JUMPDEST PUSH1 0x40 MLOAD DUP1 DUP3 DUP2 MSTORE PUSH1 0x20 ADD SWAP2 POP POP PUSH1 0x40 MLOAD DUP1 SWAP2 SUB SWAP1 RETURN JUMPDEST PUSH2 0xAA0 PUSH1 0x4 DUP1 CALLDATASIZE SUB PUSH1 0x40 DUP2 LT ISZERO PUSH2 0xA80 JUMPI PUSH1 0x0 DUP1 REVERT JUMPDEST DUP2 ADD SWAP1 DUP1 DUP1 CALLDATALOAD SWAP1 PUSH1 0x20 ADD SWAP1 SWAP3 SWAP2 SWAP1 DUP1 CALLDATALOAD SWAP1 PUSH1 0x20 ADD SWAP1 SWAP3 SWAP2 SWAP1 POP POP POP PUSH2 0x3CA2 JUMP JUMPDEST STOP JUMPDEST PUSH2 0xACE PUSH1 0x4 DUP1 CALLDATASIZE SUB PUSH1 0x20 DUP2 LT ISZERO PUSH2 0xAB8 JUMPI PUSH1 0x0 DUP1 REVERT JUMPDEST DUP2 ADD SWAP1 DUP1 DUP1 CALLDATALOAD SWAP1 PUSH1 0x20 ADD SWAP1 SWAP3 SWAP2 SWAP1 POP POP POP PUSH2 0x3DC2 JUMP JUMPDEST PUSH1 0x40 MLOAD DUP1 DUP4 DUP2 MSTORE PUSH1 0x20 ADD DUP3 DUP2 MSTORE PUSH1 0x20 ADD SWAP3 POP POP POP PUSH1 0x40 MLOAD DUP1 SWAP2 SUB SWAP1 RETURN JUMPDEST PUSH2 0xBB5 PUSH1 0x4 DUP1 CALLDATASIZE SUB PUSH1 0x60 DUP2 LT ISZERO PUSH2 0xB01 JUMPI PUSH1 0x0 DUP1 REVERT JUMPDEST DUP2 ADD SWAP1 DUP1 DUP1 CALLDATALOAD SWAP1 PUSH1 0x20 ADD SWAP1 SWAP3 SWAP2 SWAP1 DUP1 CALLDATALOAD SWAP1 PUSH1 0x20 ADD SWAP1 SWAP3 SWAP2 SWAP1 DUP1 CALLDATALOAD SWAP1 PUSH1 0x20 ADD SWAP1 PUSH5 0x100000000 DUP2 GT ISZERO PUSH2 0xB32 JUMPI PUSH1 0x0 DUP1 REVERT JUMPDEST DUP3 ADD DUP4 PUSH1 0x20 DUP3 ADD GT ISZERO PUSH2 0xB44 JUMPI PUSH1 0x0 DUP1 REVERT JUMPDEST DUP1 CALLDATALOAD SWAP1 PUSH1 0x20 ADD SWAP2 DUP5 PUSH1 0x20 DUP4 MUL DUP5 ADD GT PUSH5 0x100000000 DUP4 GT OR ISZERO PUSH2 0xB66 JUMPI PUSH1 0x0 DUP1 REVERT JUMPDEST SWAP2 SWAP1 DUP1 DUP1 PUSH1 0x20 MUL PUSH1 0x20 ADD PUSH1 0x40 MLOAD SWAP1 DUP2 ADD PUSH1 0x40 MSTORE DUP1 SWAP4 SWAP3 SWAP2 SWAP1 DUP2 DUP2 MSTORE PUSH1 0x20 ADD DUP4 DUP4 PUSH1 0x20 MUL DUP1 DUP3 DUP5 CALLDATACOPY PUSH1 0x0 DUP2 DUP5 ADD MSTORE PUSH1 0x1F NOT PUSH1 0x1F DUP3 ADD AND SWAP1 POP DUP1 DUP4 ADD SWAP3 POP POP POP POP POP POP POP SWAP2 SWAP3 SWAP2 SWAP3 SWAP1 POP POP POP PUSH2 0x3DF3 JUMP JUMPDEST STOP JUMPDEST PUSH2 0xBE3 PUSH1 0x4 DUP1 CALLDATASIZE SUB PUSH1 0x20 DUP2 LT ISZERO PUSH2 0xBCD JUMPI PUSH1 0x0 DUP1 REVERT JUMPDEST DUP2 ADD SWAP1 DUP1 DUP1 CALLDATALOAD SWAP1 PUSH1 0x20 ADD SWAP1 SWAP3 SWAP2 SWAP1 POP POP POP PUSH2 0x4800 JUMP JUMPDEST STOP JUMPDEST PUSH2 0xBED PUSH2 0x4B3B JUMP JUMPDEST PUSH1 0x40 MLOAD DUP1 DUP3 DUP2 MSTORE PUSH1 0x20 ADD SWAP2 POP POP PUSH1 0x40 MLOAD DUP1 SWAP2 SUB SWAP1 RETURN JUMPDEST PUSH2 0xC2F PUSH1 0x4 DUP1 CALLDATASIZE SUB PUSH1 0x20 DUP2 LT ISZERO PUSH2 0xC19 JUMPI PUSH1 0x0 DUP1 REVERT JUMPDEST DUP2 ADD SWAP1 DUP1 DUP1 CALLDATALOAD SWAP1 PUSH1 0x20 ADD SWAP1 SWAP3 SWAP2 SWAP1 POP POP POP PUSH2 0x4B4B JUMP JUMPDEST STOP JUMPDEST PUSH2 0xC67 PUSH1 0x4 DUP1 CALLDATASIZE SUB PUSH1 0x40 DUP2 LT ISZERO PUSH2 0xC47 JUMPI PUSH1 0x0 DUP1 REVERT JUMPDEST DUP2 ADD SWAP1 DUP1 DUP1 CALLDATALOAD SWAP1 PUSH1 0x20 ADD SWAP1 SWAP3 SWAP2 SWAP1 DUP1 CALLDATALOAD SWAP1 PUSH1 0x20 ADD SWAP1 SWAP3 SWAP2 SWAP1 POP POP POP PUSH2 0x51E5 JUMP JUMPDEST STOP JUMPDEST PUSH2 0xC95 PUSH1 0x4 DUP1 CALLDATASIZE SUB PUSH1 0x20 DUP2 LT ISZERO PUSH2 0xC7F JUMPI PUSH1 0x0 DUP1 REVERT JUMPDEST DUP2 ADD SWAP1 DUP1 DUP1 CALLDATALOAD SWAP1 PUSH1 0x20 ADD SWAP1 SWAP3 SWAP2 SWAP1 POP POP POP PUSH2 0x55D5 JUMP JUMPDEST STOP JUMPDEST PUSH2 0xD4D PUSH1 0x4 DUP1 CALLDATASIZE SUB PUSH1 0x20 DUP2 LT ISZERO PUSH2 0xCAD JUMPI PUSH1 0x0 DUP1 REVERT JUMPDEST DUP2 ADD SWAP1 DUP1 DUP1 CALLDATALOAD SWAP1 PUSH1 0x20 ADD SWAP1 PUSH5 0x100000000 DUP2 GT ISZERO PUSH2 0xCCA JUMPI PUSH1 0x0 DUP1 REVERT JUMPDEST DUP3 ADD DUP4 PUSH1 0x20 DUP3 ADD GT ISZERO PUSH2 0xCDC JUMPI PUSH1 0x0 DUP1 REVERT JUMPDEST DUP1 CALLDATALOAD SWAP1 PUSH1 0x20 ADD SWAP2 DUP5 PUSH1 0x20 DUP4 MUL DUP5 ADD GT PUSH5 0x100000000 DUP4 GT OR ISZERO PUSH2 0xCFE JUMPI PUSH1 0x0 DUP1 REVERT JUMPDEST SWAP2 SWAP1 DUP1 DUP1 PUSH1 0x20 MUL PUSH1 0x20 ADD PUSH1 0x40 MLOAD SWAP1 DUP2 ADD PUSH1 0x40 MSTORE DUP1 SWAP4 SWAP3 SWAP2 SWAP1 DUP2 DUP2 MSTORE PUSH1 0x20 ADD DUP4 DUP4 PUSH1 0x20 MUL DUP1 DUP3 DUP5 CALLDATACOPY PUSH1 0x0 DUP2 DUP5 ADD MSTORE PUSH1 0x1F NOT PUSH1 0x1F DUP3 ADD AND SWAP1 POP DUP1 DUP4 ADD SWAP3 POP POP POP POP POP POP POP SWAP2 SWAP3 SWAP2 SWAP3 SWAP1 POP POP POP PUSH2 0x56C7 JUMP JUMPDEST STOP JUMPDEST PUSH2 0xD9B PUSH1 0x4 DUP1 CALLDATASIZE SUB PUSH1 0x40 DUP2 LT ISZERO PUSH2 0xD65 JUMPI PUSH1 0x0 DUP1 REVERT JUMPDEST DUP2 ADD SWAP1 DUP1 DUP1 CALLDATALOAD PUSH20 0xFFFFFFFFFFFFFFFFFFFFFFFFFFFFFFFFFFFFFFFF AND SWAP1 PUSH1 0x20 ADD SWAP1 SWAP3 SWAP2 SWAP1 DUP1 CALLDATALOAD SWAP1 PUSH1 0x20 ADD SWAP1 SWAP3 SWAP2 SWAP1 POP POP POP PUSH2 0x58AE JUMP JUMPDEST PUSH1 0x40 MLOAD DUP1 DUP3 DUP2 MSTORE PUSH1 0x20 ADD SWAP2 POP POP PUSH1 0x40 MLOAD DUP1 SWAP2 SUB SWAP1 RETURN JUMPDEST PUSH2 0xDB9 PUSH2 0x5ABC JUMP JUMPDEST PUSH1 0x40 MLOAD DUP1 DUP3 PUSH20 0xFFFFFFFFFFFFFFFFFFFFFFFFFFFFFFFFFFFFFFFF AND PUSH20 0xFFFFFFFFFFFFFFFFFFFFFFFFFFFFFFFFFFFFFFFF AND DUP2 MSTORE PUSH1 0x20 ADD SWAP2 POP POP PUSH1 0x40 MLOAD DUP1 SWAP2 SUB SWAP1 RETURN JUMPDEST PUSH1 0x3 PUSH1 0x0 SWAP1 SLOAD SWAP1 PUSH2 0x100 EXP SWAP1 DIV PUSH20 0xFFFFFFFFFFFFFFFFFFFFFFFFFFFFFFFFFFFFFFFF AND DUP2 JUMP JUMPDEST PUSH1 0x1 PUSH1 0x7 PUSH1 0x0 CALLER PUSH20 0xFFFFFFFFFFFFFFFFFFFFFFFFFFFFFFFFFFFFFFFF AND PUSH20 0xFFFFFFFFFFFFFFFFFFFFFFFFFFFFFFFFFFFFFFFF AND DUP2 MSTORE PUSH1 0x20 ADD SWAP1 DUP2 MSTORE PUSH1 0x20 ADD PUSH1 0x0 KECCAK256 DUP5 DUP2 SLOAD DUP2 LT PUSH2 0xE6D JUMPI INVALID JUMPDEST SWAP1 PUSH1 0x0 MSTORE PUSH1 0x20 PUSH1 0x0 KECCAK256 SWAP1 PUSH1 0x8 MUL ADD PUSH1 0x3 ADD SLOAD EQ PUSH2 0xEF2 JUMPI PUSH1 0x40 MLOAD PUSH32 0x8C379A000000000000000000000000000000000000000000000000000000000 DUP2 MSTORE PUSH1 0x4 ADD DUP1 DUP1 PUSH1 0x20 ADD DUP3 DUP2 SUB DUP3 MSTORE PUSH1 0x15 DUP2 MSTORE PUSH1 0x20 ADD DUP1 PUSH32 0x7374616B696E672073686F756C64206163746976650000000000000000000000 DUP2 MSTORE POP PUSH1 0x20 ADD SWAP2 POP POP PUSH1 0x40 MLOAD DUP1 SWAP2 SUB SWAP1 REVERT JUMPDEST PUSH1 0x0 PUSH1 0x7 PUSH1 0x0 CALLER PUSH20 0xFFFFFFFFFFFFFFFFFFFFFFFFFFFFFFFFFFFFFFFF AND PUSH20 0xFFFFFFFFFFFFFFFFFFFFFFFFFFFFFFFFFFFFFFFF AND DUP2 MSTORE PUSH1 0x20 ADD SWAP1 DUP2 MSTORE PUSH1 0x20 ADD PUSH1 0x0 KECCAK256 DUP5 DUP2 SLOAD DUP2 LT PUSH2 0xF3E JUMPI INVALID JUMPDEST SWAP1 PUSH1 0x0 MSTORE PUSH1 0x20 PUSH1 0x0 KECCAK256 SWAP1 PUSH1 0x8 MUL ADD PUSH1 0x7 ADD PUSH1 0x0 DUP5 PUSH20 0xFFFFFFFFFFFFFFFFFFFFFFFFFFFFFFFFFFFFFFFF AND PUSH20 0xFFFFFFFFFFFFFFFFFFFFFFFFFFFFFFFFFFFFFFFF AND DUP2 MSTORE PUSH1 0x20 ADD SWAP1 DUP2 MSTORE PUSH1 0x20 ADD PUSH1 0x0 KECCAK256 SLOAD SWAP1 POP DUP1 DUP3 GT ISZERO PUSH2 0x11C8 JUMPI PUSH1 0x0 PUSH2 0xFAC DUP3 DUP5 PUSH2 0x5AE2 SWAP1 SWAP2 SWAP1 PUSH4 0xFFFFFFFF AND JUMP JUMPDEST SWAP1 POP PUSH2 0x101C DUP2 PUSH1 0x7 PUSH1 0x0 CALLER PUSH20 0xFFFFFFFFFFFFFFFFFFFFFFFFFFFFFFFFFFFFFFFF AND PUSH20 0xFFFFFFFFFFFFFFFFFFFFFFFFFFFFFFFFFFFFFFFF AND DUP2 MSTORE PUSH1 0x20 ADD SWAP1 DUP2 MSTORE PUSH1 0x20 ADD PUSH1 0x0 KECCAK256 DUP8 DUP2 SLOAD DUP2 LT PUSH2 0xFFC JUMPI INVALID JUMPDEST SWAP1 PUSH1 0x0 MSTORE PUSH1 0x20 PUSH1 0x0 KECCAK256 SWAP1 PUSH1 0x8 MUL ADD PUSH1 0x5 ADD SLOAD PUSH2 0x5B02 SWAP1 SWAP2 SWAP1 PUSH4 0xFFFFFFFF AND JUMP JUMPDEST PUSH1 0x7 PUSH1 0x0 CALLER PUSH20 0xFFFFFFFFFFFFFFFFFFFFFFFFFFFFFFFFFFFFFFFF AND PUSH20 0xFFFFFFFFFFFFFFFFFFFFFFFFFFFFFFFFFFFFFFFF AND DUP2 MSTORE PUSH1 0x20 ADD SWAP1 DUP2 MSTORE PUSH1 0x20 ADD PUSH1 0x0 KECCAK256 DUP7 DUP2 SLOAD DUP2 LT PUSH2 0x1066 JUMPI INVALID JUMPDEST SWAP1 PUSH1 0x0 MSTORE PUSH1 0x20 PUSH1 0x0 KECCAK256 SWAP1 PUSH1 0x8 MUL ADD PUSH1 0x5 ADD DUP2 SWAP1 SSTORE POP PUSH2 0x1126 DUP2 PUSH1 0x7 PUSH1 0x0 CALLER PUSH20 0xFFFFFFFFFFFFFFFFFFFFFFFFFFFFFFFFFFFFFFFF AND PUSH20 0xFFFFFFFFFFFFFFFFFFFFFFFFFFFFFFFFFFFFFFFF AND DUP2 MSTORE PUSH1 0x20 ADD SWAP1 DUP2 MSTORE PUSH1 0x20 ADD PUSH1 0x0 KECCAK256 DUP8 DUP2 SLOAD DUP2 LT PUSH2 0x10C9 JUMPI INVALID JUMPDEST SWAP1 PUSH1 0x0 MSTORE PUSH1 0x20 PUSH1 0x0 KECCAK256 SWAP1 PUSH1 0x8 MUL ADD PUSH1 0x7 ADD PUSH1 0x0 DUP8 PUSH20 0xFFFFFFFFFFFFFFFFFFFFFFFFFFFFFFFFFFFFFFFF AND PUSH20 0xFFFFFFFFFFFFFFFFFFFFFFFFFFFFFFFFFFFFFFFF AND DUP2 MSTORE PUSH1 0x20 ADD SWAP1 DUP2 MSTORE PUSH1 0x20 ADD PUSH1 0x0 KECCAK256 SLOAD PUSH2 0x5B02 SWAP1 SWAP2 SWAP1 PUSH4 0xFFFFFFFF AND JUMP JUMPDEST PUSH1 0x7 PUSH1 0x0 CALLER PUSH20 0xFFFFFFFFFFFFFFFFFFFFFFFFFFFFFFFFFFFFFFFF AND PUSH20 0xFFFFFFFFFFFFFFFFFFFFFFFFFFFFFFFFFFFFFFFF AND DUP2 MSTORE PUSH1 0x20 ADD SWAP1 DUP2 MSTORE PUSH1 0x20 ADD PUSH1 0x0 KECCAK256 DUP7 DUP2 SLOAD DUP2 LT PUSH2 0x1170 JUMPI INVALID JUMPDEST SWAP1 PUSH1 0x0 MSTORE PUSH1 0x20 PUSH1 0x0 KECCAK256 SWAP1 PUSH1 0x8 MUL ADD PUSH1 0x7 ADD PUSH1 0x0 DUP7 PUSH20 0xFFFFFFFFFFFFFFFFFFFFFFFFFFFFFFFFFFFFFFFF AND PUSH20 0xFFFFFFFFFFFFFFFFFFFFFFFFFFFFFFFFFFFFFFFF AND DUP2 MSTORE PUSH1 0x20 ADD SWAP1 DUP2 MSTORE PUSH1 0x20 ADD PUSH1 0x0 KECCAK256 DUP2 SWAP1 SSTORE POP POP PUSH2 0x13FE JUMP JUMPDEST DUP1 DUP3 LT ISZERO PUSH2 0x13FD JUMPI PUSH1 0x0 PUSH2 0x11E5 DUP4 DUP4 PUSH2 0x5AE2 SWAP1 SWAP2 SWAP1 PUSH4 0xFFFFFFFF AND JUMP JUMPDEST SWAP1 POP PUSH2 0x1292 DUP2 PUSH1 0x7 PUSH1 0x0 CALLER PUSH20 0xFFFFFFFFFFFFFFFFFFFFFFFFFFFFFFFFFFFFFFFF AND PUSH20 0xFFFFFFFFFFFFFFFFFFFFFFFFFFFFFFFFFFFFFFFF AND DUP2 MSTORE PUSH1 0x20 ADD SWAP1 DUP2 MSTORE PUSH1 0x20 ADD PUSH1 0x0 KECCAK256 DUP8 DUP2 SLOAD DUP2 LT PUSH2 0x1235 JUMPI INVALID JUMPDEST SWAP1 PUSH1 0x0 MSTORE PUSH1 0x20 PUSH1 0x0 KECCAK256 SWAP1 PUSH1 0x8 MUL ADD PUSH1 0x7 ADD PUSH1 0x0 DUP8 PUSH20 0xFFFFFFFFFFFFFFFFFFFFFFFFFFFFFFFFFFFFFFFF AND PUSH20 0xFFFFFFFFFFFFFFFFFFFFFFFFFFFFFFFFFFFFFFFF AND DUP2 MSTORE PUSH1 0x20 ADD SWAP1 DUP2 MSTORE PUSH1 0x20 ADD PUSH1 0x0 KECCAK256 SLOAD PUSH2 0x5AE2 SWAP1 SWAP2 SWAP1 PUSH4 0xFFFFFFFF AND JUMP JUMPDEST PUSH1 0x7 PUSH1 0x0 CALLER PUSH20 0xFFFFFFFFFFFFFFFFFFFFFFFFFFFFFFFFFFFFFFFF AND PUSH20 0xFFFFFFFFFFFFFFFFFFFFFFFFFFFFFFFFFFFFFFFF AND DUP2 MSTORE PUSH1 0x20 ADD SWAP1 DUP2 MSTORE PUSH1 0x20 ADD PUSH1 0x0 KECCAK256 DUP7 DUP2 SLOAD DUP2 LT PUSH2 0x12DC JUMPI INVALID JUMPDEST SWAP1 PUSH1 0x0 MSTORE PUSH1 0x20 PUSH1 0x0 KECCAK256 SWAP1 PUSH1 0x8 MUL ADD PUSH1 0x7 ADD PUSH1 0x0 DUP7 PUSH20 0xFFFFFFFFFFFFFFFFFFFFFFFFFFFFFFFFFFFFFFFF AND PUSH20 0xFFFFFFFFFFFFFFFFFFFFFFFFFFFFFFFFFFFFFFFF AND DUP2 MSTORE PUSH1 0x20 ADD SWAP1 DUP2 MSTORE PUSH1 0x20 ADD PUSH1 0x0 KECCAK256 DUP2 SWAP1 SSTORE POP PUSH2 0x139C DUP2 PUSH1 0x7 PUSH1 0x0 CALLER PUSH20 0xFFFFFFFFFFFFFFFFFFFFFFFFFFFFFFFFFFFFFFFF AND PUSH20 0xFFFFFFFFFFFFFFFFFFFFFFFFFFFFFFFFFFFFFFFF AND DUP2 MSTORE PUSH1 0x20 ADD SWAP1 DUP2 MSTORE PUSH1 0x20 ADD PUSH1 0x0 KECCAK256 DUP8 DUP2 SLOAD DUP2 LT PUSH2 0x137C JUMPI INVALID JUMPDEST SWAP1 PUSH1 0x0 MSTORE PUSH1 0x20 PUSH1 0x0 KECCAK256 SWAP1 PUSH1 0x8 MUL ADD PUSH1 0x5 ADD SLOAD PUSH2 0x5AE2 SWAP1 SWAP2 SWAP1 PUSH4 0xFFFFFFFF AND JUMP JUMPDEST PUSH1 0x7 PUSH1 0x0 CALLER PUSH20 0xFFFFFFFFFFFFFFFFFFFFFFFFFFFFFFFFFFFFFFFF AND PUSH20 0xFFFFFFFFFFFFFFFFFFFFFFFFFFFFFFFFFFFFFFFF AND DUP2 MSTORE PUSH1 0x20 ADD SWAP1 DUP2 MSTORE PUSH1 0x20 ADD PUSH1 0x0 KECCAK256 DUP7 DUP2 SLOAD DUP2 LT PUSH2 0x13E6 JUMPI INVALID JUMPDEST SWAP1 PUSH1 0x0 MSTORE PUSH1 0x20 PUSH1 0x0 KECCAK256 SWAP1 PUSH1 0x8 MUL ADD PUSH1 0x5 ADD DUP2 SWAP1 SSTORE POP POP JUMPDEST JUMPDEST POP POP POP POP JUMP JUMPDEST PUSH1 0xB DUP2 DUP2 SLOAD DUP2 LT PUSH2 0x1411 JUMPI INVALID JUMPDEST SWAP1 PUSH1 0x0 MSTORE PUSH1 0x20 PUSH1 0x0 KECCAK256 ADD PUSH1 0x0 SWAP2 POP SWAP1 POP SLOAD DUP2 JUMP JUMPDEST PUSH1 0x0 PUSH1 0x7 PUSH1 0x0 DUP6 PUSH20 0xFFFFFFFFFFFFFFFFFFFFFFFFFFFFFFFFFFFFFFFF AND PUSH20 0xFFFFFFFFFFFFFFFFFFFFFFFFFFFFFFFFFFFFFFFF AND DUP2 MSTORE PUSH1 0x20 ADD SWAP1 DUP2 MSTORE PUSH1 0x20 ADD PUSH1 0x0 KECCAK256 DUP4 DUP2 SLOAD DUP2 LT PUSH2 0x1471 JUMPI INVALID JUMPDEST SWAP1 PUSH1 0x0 MSTORE PUSH1 0x20 PUSH1 0x0 KECCAK256 SWAP1 PUSH1 0x8 MUL ADD PUSH1 0x7 ADD PUSH1 0x0 DUP4 PUSH20 0xFFFFFFFFFFFFFFFFFFFFFFFFFFFFFFFFFFFFFFFF AND PUSH20 0xFFFFFFFFFFFFFFFFFFFFFFFFFFFFFFFFFFFFFFFF AND DUP2 MSTORE PUSH1 0x20 ADD SWAP1 DUP2 MSTORE PUSH1 0x20 ADD PUSH1 0x0 KECCAK256 SLOAD SWAP1 POP SWAP4 SWAP3 POP POP POP JUMP JUMPDEST PUSH1 0x0 DUP1 PUSH2 0x14D4 PUSH2 0x4B3B JUMP JUMPDEST SWAP1 POP DUP1 DUP4 GT ISZERO PUSH2 0x154C JUMPI PUSH1 0x40 MLOAD PUSH32 0x8C379A000000000000000000000000000000000000000000000000000000000 DUP2 MSTORE PUSH1 0x4 ADD DUP1 DUP1 PUSH1 0x20 ADD DUP3 DUP2 SUB DUP3 MSTORE PUSH1 0x1A DUP2 MSTORE PUSH1 0x20 ADD DUP1 PUSH32 0x63616E6E6F742073656520667574757265207374616B696E6773000000000000 DUP2 MSTORE POP PUSH1 0x20 ADD SWAP2 POP POP PUSH1 0x40 MLOAD DUP1 SWAP2 SUB SWAP1 REVERT JUMPDEST PUSH1 0x0 PUSH1 0xA PUSH1 0x0 DUP6 DUP2 MSTORE PUSH1 0x20 ADD SWAP1 DUP2 MSTORE PUSH1 0x20 ADD PUSH1 0x0 KECCAK256 SLOAD EQ ISZERO PUSH2 0x1572 JUMPI PUSH1 0x0 SWAP2 POP POP PUSH2 0x17F4 JUMP JUMPDEST PUSH1 0x0 DUP1 PUSH1 0x0 SWAP1 POP JUMPDEST PUSH1 0x7 PUSH1 0x0 DUP8 PUSH20 0xFFFFFFFFFFFFFFFFFFFFFFFFFFFFFFFFFFFFFFFF AND PUSH20 0xFFFFFFFFFFFFFFFFFFFFFFFFFFFFFFFFFFFFFFFF AND DUP2 MSTORE PUSH1 0x20 ADD SWAP1 DUP2 MSTORE PUSH1 0x20 ADD PUSH1 0x0 KECCAK256 DUP1 SLOAD SWAP1 POP DUP2 LT ISZERO PUSH2 0x179F JUMPI PUSH2 0x15CC PUSH2 0x5B81 JUMP JUMPDEST PUSH1 0x5 PUSH1 0x7 PUSH1 0x0 DUP10 PUSH20 0xFFFFFFFFFFFFFFFFFFFFFFFFFFFFFFFFFFFFFFFF AND PUSH20 0xFFFFFFFFFFFFFFFFFFFFFFFFFFFFFFFFFFFFFFFF AND DUP2 MSTORE PUSH1 0x20 ADD SWAP1 DUP2 MSTORE PUSH1 0x20 ADD PUSH1 0x0 KECCAK256 DUP4 DUP2 SLOAD DUP2 LT PUSH2 0x1618 JUMPI INVALID JUMPDEST SWAP1 PUSH1 0x0 MSTORE PUSH1 0x20 PUSH1 0x0 KECCAK256 SWAP1 PUSH1 0x8 MUL ADD PUSH1 0x2 ADD SLOAD DUP2 SLOAD DUP2 LT PUSH2 0x1634 JUMPI INVALID JUMPDEST SWAP1 PUSH1 0x0 MSTORE PUSH1 0x20 PUSH1 0x0 KECCAK256 SWAP1 PUSH1 0x2 MUL ADD PUSH1 0x40 MLOAD DUP1 PUSH1 0x40 ADD PUSH1 0x40 MSTORE SWAP1 DUP2 PUSH1 0x0 DUP3 ADD SLOAD DUP2 MSTORE PUSH1 0x20 ADD PUSH1 0x1 DUP3 ADD SLOAD DUP2 MSTORE POP POP SWAP1 POP PUSH2 0x166F DUP8 DUP4 DUP7 DUP10 PUSH2 0x2E48 JUMP JUMPDEST DUP1 ISZERO PUSH2 0x16F2 JUMPI POP PUSH1 0x7 PUSH1 0x0 DUP9 PUSH20 0xFFFFFFFFFFFFFFFFFFFFFFFFFFFFFFFFFFFFFFFF AND PUSH20 0xFFFFFFFFFFFFFFFFFFFFFFFFFFFFFFFFFFFFFFFF AND DUP2 MSTORE PUSH1 0x20 ADD SWAP1 DUP2 MSTORE PUSH1 0x20 ADD PUSH1 0x0 KECCAK256 DUP3 DUP2 SLOAD DUP2 LT PUSH2 0x16C0 JUMPI INVALID JUMPDEST SWAP1 PUSH1 0x0 MSTORE PUSH1 0x20 PUSH1 0x0 KECCAK256 SWAP1 PUSH1 0x8 MUL ADD PUSH1 0x6 ADD PUSH1 0x0 DUP8 DUP2 MSTORE PUSH1 0x20 ADD SWAP1 DUP2 MSTORE PUSH1 0x20 ADD PUSH1 0x0 KECCAK256 PUSH1 0x0 SWAP1 SLOAD SWAP1 PUSH2 0x100 EXP SWAP1 DIV PUSH1 0xFF AND ISZERO JUMPDEST ISZERO PUSH2 0x1791 JUMPI PUSH2 0x178E PUSH2 0x177F PUSH1 0xF PUSH2 0x1771 DUP5 PUSH1 0x20 ADD MLOAD PUSH1 0x7 PUSH1 0x0 DUP14 PUSH20 0xFFFFFFFFFFFFFFFFFFFFFFFFFFFFFFFFFFFFFFFF AND PUSH20 0xFFFFFFFFFFFFFFFFFFFFFFFFFFFFFFFFFFFFFFFF AND DUP2 MSTORE PUSH1 0x20 ADD SWAP1 DUP2 MSTORE PUSH1 0x20 ADD PUSH1 0x0 KECCAK256 DUP8 DUP2 SLOAD DUP2 LT PUSH2 0x1751 JUMPI INVALID JUMPDEST SWAP1 PUSH1 0x0 MSTORE PUSH1 0x20 PUSH1 0x0 KECCAK256 SWAP1 PUSH1 0x8 MUL ADD PUSH1 0x0 ADD SLOAD PUSH2 0x5B21 SWAP1 SWAP2 SWAP1 PUSH4 0xFFFFFFFF AND JUMP JUMPDEST PUSH2 0x5B5B SWAP1 SWAP2 SWAP1 PUSH4 0xFFFFFFFF AND JUMP JUMPDEST DUP5 PUSH2 0x5B02 SWAP1 SWAP2 SWAP1 PUSH4 0xFFFFFFFF AND JUMP JUMPDEST SWAP3 POP JUMPDEST POP DUP1 DUP1 PUSH1 0x1 ADD SWAP2 POP POP PUSH2 0x157A JUMP JUMPDEST POP PUSH2 0x17EF PUSH1 0xA PUSH1 0x0 DUP7 DUP2 MSTORE PUSH1 0x20 ADD SWAP1 DUP2 MSTORE PUSH1 0x20 ADD PUSH1 0x0 KECCAK256 SLOAD PUSH2 0x17E1 PUSH1 0xB DUP8 DUP2 SLOAD DUP2 LT PUSH2 0x17C7 JUMPI INVALID JUMPDEST SWAP1 PUSH1 0x0 MSTORE PUSH1 0x20 PUSH1 0x0 KECCAK256 ADD SLOAD DUP5 PUSH2 0x5B21 SWAP1 SWAP2 SWAP1 PUSH4 0xFFFFFFFF AND JUMP JUMPDEST PUSH2 0x5B5B SWAP1 SWAP2 SWAP1 PUSH4 0xFFFFFFFF AND JUMP JUMPDEST SWAP3 POP POP POP JUMPDEST SWAP3 SWAP2 POP POP JUMP JUMPDEST PUSH1 0x0 DUP1 PUSH1 0x0 DUP1 PUSH1 0x0 DUP1 PUSH1 0x7 PUSH1 0x0 DUP10 PUSH20 0xFFFFFFFFFFFFFFFFFFFFFFFFFFFFFFFFFFFFFFFF AND PUSH20 0xFFFFFFFFFFFFFFFFFFFFFFFFFFFFFFFFFFFFFFFF AND DUP2 MSTORE PUSH1 0x20 ADD SWAP1 DUP2 MSTORE PUSH1 0x20 ADD PUSH1 0x0 KECCAK256 DUP8 DUP2 SLOAD DUP2 LT PUSH2 0x184D JUMPI INVALID JUMPDEST SWAP1 PUSH1 0x0 MSTORE PUSH1 0x20 PUSH1 0x0 KECCAK256 SWAP1 PUSH1 0x8 MUL ADD PUSH1 0x0 ADD SLOAD PUSH1 0x7 PUSH1 0x0 DUP11 PUSH20 0xFFFFFFFFFFFFFFFFFFFFFFFFFFFFFFFFFFFFFFFF AND PUSH20 0xFFFFFFFFFFFFFFFFFFFFFFFFFFFFFFFFFFFFFFFF AND DUP2 MSTORE PUSH1 0x20 ADD SWAP1 DUP2 MSTORE PUSH1 0x20 ADD PUSH1 0x0 KECCAK256 DUP9 DUP2 SLOAD DUP2 LT PUSH2 0x18A9 JUMPI INVALID JUMPDEST SWAP1 PUSH1 0x0 MSTORE PUSH1 0x20 PUSH1 0x0 KECCAK256 SWAP1 PUSH1 0x8 MUL ADD PUSH1 0x1 ADD SLOAD PUSH1 0x7 PUSH1 0x0 DUP12 PUSH20 0xFFFFFFFFFFFFFFFFFFFFFFFFFFFFFFFFFFFFFFFF AND PUSH20 0xFFFFFFFFFFFFFFFFFFFFFFFFFFFFFFFFFFFFFFFF AND DUP2 MSTORE PUSH1 0x20 ADD SWAP1 DUP2 MSTORE PUSH1 0x20 ADD PUSH1 0x0 KECCAK256 DUP10 DUP2 SLOAD DUP2 LT PUSH2 0x1905 JUMPI INVALID JUMPDEST SWAP1 PUSH1 0x0 MSTORE PUSH1 0x20 PUSH1 0x0 KECCAK256 SWAP1 PUSH1 0x8 MUL ADD PUSH1 0x2 ADD SLOAD PUSH1 0x7 PUSH1 0x0 DUP13 PUSH20 0xFFFFFFFFFFFFFFFFFFFFFFFFFFFFFFFFFFFFFFFF AND PUSH20 0xFFFFFFFFFFFFFFFFFFFFFFFFFFFFFFFFFFFFFFFF AND DUP2 MSTORE PUSH1 0x20 ADD SWAP1 DUP2 MSTORE PUSH1 0x20 ADD PUSH1 0x0 KECCAK256 DUP11 DUP2 SLOAD DUP2 LT PUSH2 0x1961 JUMPI INVALID JUMPDEST SWAP1 PUSH1 0x0 MSTORE PUSH1 0x20 PUSH1 0x0 KECCAK256 SWAP1 PUSH1 0x8 MUL ADD PUSH1 0x3 ADD SLOAD PUSH1 0x7 PUSH1 0x0 DUP14 PUSH20 0xFFFFFFFFFFFFFFFFFFFFFFFFFFFFFFFFFFFFFFFF AND PUSH20 0xFFFFFFFFFFFFFFFFFFFFFFFFFFFFFFFFFFFFFFFF AND DUP2 MSTORE PUSH1 0x20 ADD SWAP1 DUP2 MSTORE PUSH1 0x20 ADD PUSH1 0x0 KECCAK256 DUP12 DUP2 SLOAD DUP2 LT PUSH2 0x19BD JUMPI INVALID JUMPDEST SWAP1 PUSH1 0x0 MSTORE PUSH1 0x20 PUSH1 0x0 KECCAK256 SWAP1 PUSH1 0x8 MUL ADD PUSH1 0x4 ADD SLOAD PUSH1 0x7 PUSH1 0x0 DUP15 PUSH20 0xFFFFFFFFFFFFFFFFFFFFFFFFFFFFFFFFFFFFFFFF AND PUSH20 0xFFFFFFFFFFFFFFFFFFFFFFFFFFFFFFFFFFFFFFFF AND DUP2 MSTORE PUSH1 0x20 ADD SWAP1 DUP2 MSTORE PUSH1 0x20 ADD PUSH1 0x0 KECCAK256 DUP13 DUP2 SLOAD DUP2 LT PUSH2 0x1A19 JUMPI INVALID JUMPDEST SWAP1 PUSH1 0x0 MSTORE PUSH1 0x20 PUSH1 0x0 KECCAK256 SWAP1 PUSH1 0x8 MUL ADD PUSH1 0x5 ADD SLOAD SWAP6 POP SWAP6 POP SWAP6 POP SWAP6 POP SWAP6 POP SWAP6 POP SWAP3 SWAP6 POP SWAP3 SWAP6 POP SWAP3 SWAP6 JUMP JUMPDEST PUSH1 0x60 PUSH1 0xB DUP1 SLOAD DUP1 PUSH1 0x20 MUL PUSH1 0x20 ADD PUSH1 0x40 MLOAD SWAP1 DUP2 ADD PUSH1 0x40 MSTORE DUP1 SWAP3 SWAP2 SWAP1 DUP2 DUP2 MSTORE PUSH1 0x20 ADD DUP3 DUP1 SLOAD DUP1 ISZERO PUSH2 0x1A8F JUMPI PUSH1 0x20 MUL DUP3 ADD SWAP2 SWAP1 PUSH1 0x0 MSTORE PUSH1 0x20 PUSH1 0x0 KECCAK256 SWAP1 JUMPDEST DUP2 SLOAD DUP2 MSTORE PUSH1 0x20 ADD SWAP1 PUSH1 0x1 ADD SWAP1 DUP1 DUP4 GT PUSH2 0x1A7B JUMPI JUMPDEST POP POP POP POP POP SWAP1 POP SWAP1 JUMP JUMPDEST PUSH1 0xA PUSH1 0x20 MSTORE DUP1 PUSH1 0x0 MSTORE PUSH1 0x40 PUSH1 0x0 KECCAK256 PUSH1 0x0 SWAP2 POP SWAP1 POP SLOAD DUP2 JUMP JUMPDEST PUSH1 0x1 PUSH1 0x7 PUSH1 0x0 CALLER PUSH20 0xFFFFFFFFFFFFFFFFFFFFFFFFFFFFFFFFFFFFFFFF AND PUSH20 0xFFFFFFFFFFFFFFFFFFFFFFFFFFFFFFFFFFFFFFFF AND DUP2 MSTORE PUSH1 0x20 ADD SWAP1 DUP2 MSTORE PUSH1 0x20 ADD PUSH1 0x0 KECCAK256 DUP4 DUP2 SLOAD DUP2 LT PUSH2 0x1AFD JUMPI INVALID JUMPDEST SWAP1 PUSH1 0x0 MSTORE PUSH1 0x20 PUSH1 0x0 KECCAK256 SWAP1 PUSH1 0x8 MUL ADD PUSH1 0x3 ADD SLOAD EQ PUSH2 0x1B82 JUMPI PUSH1 0x40 MLOAD PUSH32 0x8C379A000000000000000000000000000000000000000000000000000000000 DUP2 MSTORE PUSH1 0x4 ADD DUP1 DUP1 PUSH1 0x20 ADD DUP3 DUP2 SUB DUP3 MSTORE PUSH1 0x15 DUP2 MSTORE PUSH1 0x20 ADD DUP1 PUSH32 0x7374616B696E672073686F756C64206163746976650000000000000000000000 DUP2 MSTORE POP PUSH1 0x20 ADD SWAP2 POP POP PUSH1 0x40 MLOAD DUP1 SWAP2 SUB SWAP1 REVERT JUMPDEST PUSH1 0x0 PUSH1 0x7 PUSH1 0x0 CALLER PUSH20 0xFFFFFFFFFFFFFFFFFFFFFFFFFFFFFFFFFFFFFFFF AND PUSH20 0xFFFFFFFFFFFFFFFFFFFFFFFFFFFFFFFFFFFFFFFF AND DUP2 MSTORE PUSH1 0x20 ADD SWAP1 DUP2 MSTORE PUSH1 0x20 ADD PUSH1 0x0 KECCAK256 DUP4 DUP2 SLOAD DUP2 LT PUSH2 0x1BCE JUMPI INVALID JUMPDEST SWAP1 PUSH1 0x0 MSTORE PUSH1 0x20 PUSH1 0x0 KECCAK256 SWAP1 PUSH1 0x8 MUL ADD PUSH1 0x7 ADD PUSH1 0x0 CALLER PUSH20 0xFFFFFFFFFFFFFFFFFFFFFFFFFFFFFFFFFFFFFFFF AND PUSH20 0xFFFFFFFFFFFFFFFFFFFFFFFFFFFFFFFFFFFFFFFF AND DUP2 MSTORE PUSH1 0x20 ADD SWAP1 DUP2 MSTORE PUSH1 0x20 ADD PUSH1 0x0 KECCAK256 SLOAD SWAP1 POP PUSH1 0x0 PUSH1 0x7 PUSH1 0x0 CALLER PUSH20 0xFFFFFFFFFFFFFFFFFFFFFFFFFFFFFFFFFFFFFFFF AND PUSH20 0xFFFFFFFFFFFFFFFFFFFFFFFFFFFFFFFFFFFFFFFF AND DUP2 MSTORE PUSH1 0x20 ADD SWAP1 DUP2 MSTORE PUSH1 0x20 ADD PUSH1 0x0 KECCAK256 DUP5 DUP2 SLOAD DUP2 LT PUSH2 0x1C6B JUMPI INVALID JUMPDEST SWAP1 PUSH1 0x0 MSTORE PUSH1 0x20 PUSH1 0x0 KECCAK256 SWAP1 PUSH1 0x8 MUL ADD PUSH1 0x7 ADD PUSH1 0x0 DUP5 PUSH20 0xFFFFFFFFFFFFFFFFFFFFFFFFFFFFFFFFFFFFFFFF AND PUSH20 0xFFFFFFFFFFFFFFFFFFFFFFFFFFFFFFFFFFFFFFFF AND DUP2 MSTORE PUSH1 0x20 ADD SWAP1 DUP2 MSTORE PUSH1 0x20 ADD PUSH1 0x0 KECCAK256 DUP2 SWAP1 SSTORE POP PUSH2 0x1D2B DUP2 PUSH1 0x7 PUSH1 0x0 CALLER PUSH20 0xFFFFFFFFFFFFFFFFFFFFFFFFFFFFFFFFFFFFFFFF AND PUSH20 0xFFFFFFFFFFFFFFFFFFFFFFFFFFFFFFFFFFFFFFFF AND DUP2 MSTORE PUSH1 0x20 ADD SWAP1 DUP2 MSTORE PUSH1 0x20 ADD PUSH1 0x0 KECCAK256 DUP6 DUP2 SLOAD DUP2 LT PUSH2 0x1D0B JUMPI INVALID JUMPDEST SWAP1 PUSH1 0x0 MSTORE PUSH1 0x20 PUSH1 0x0 KECCAK256 SWAP1 PUSH1 0x8 MUL ADD PUSH1 0x5 ADD SLOAD PUSH2 0x5AE2 SWAP1 SWAP2 SWAP1 PUSH4 0xFFFFFFFF AND JUMP JUMPDEST PUSH1 0x7 PUSH1 0x0 CALLER PUSH20 0xFFFFFFFFFFFFFFFFFFFFFFFFFFFFFFFFFFFFFFFF AND PUSH20 0xFFFFFFFFFFFFFFFFFFFFFFFFFFFFFFFFFFFFFFFF AND DUP2 MSTORE PUSH1 0x20 ADD SWAP1 DUP2 MSTORE PUSH1 0x20 ADD PUSH1 0x0 KECCAK256 DUP5 DUP2 SLOAD DUP2 LT PUSH2 0x1D75 JUMPI INVALID JUMPDEST SWAP1 PUSH1 0x0 MSTORE PUSH1 0x20 PUSH1 0x0 KECCAK256 SWAP1 PUSH1 0x8 MUL ADD PUSH1 0x5 ADD DUP2 SWAP1 SSTORE POP POP POP POP JUMP JUMPDEST PUSH1 0x2 PUSH1 0x0 SWAP1 SLOAD SWAP1 PUSH2 0x100 EXP SWAP1 DIV PUSH20 0xFFFFFFFFFFFFFFFFFFFFFFFFFFFFFFFFFFFFFFFF AND PUSH20 0xFFFFFFFFFFFFFFFFFFFFFFFFFFFFFFFFFFFFFFFF AND PUSH4 0x23B872DD CALLER ADDRESS DUP5 PUSH1 0x40 MLOAD DUP5 PUSH4 0xFFFFFFFF AND PUSH1 0xE0 SHL DUP2 MSTORE PUSH1 0x4 ADD DUP1 DUP5 PUSH20 0xFFFFFFFFFFFFFFFFFFFFFFFFFFFFFFFFFFFFFFFF AND PUSH20 0xFFFFFFFFFFFFFFFFFFFFFFFFFFFFFFFFFFFFFFFF AND DUP2 MSTORE PUSH1 0x20 ADD DUP4 PUSH20 0xFFFFFFFFFFFFFFFFFFFFFFFFFFFFFFFFFFFFFFFF AND PUSH20 0xFFFFFFFFFFFFFFFFFFFFFFFFFFFFFFFFFFFFFFFF AND DUP2 MSTORE PUSH1 0x20 ADD DUP3 DUP2 MSTORE PUSH1 0x20 ADD SWAP4 POP POP POP POP PUSH1 0x20 PUSH1 0x40 MLOAD DUP1 DUP4 SUB DUP2 PUSH1 0x0 DUP8 DUP1 EXTCODESIZE ISZERO DUP1 ISZERO PUSH2 0x1E6C JUMPI PUSH1 0x0 DUP1 REVERT JUMPDEST POP GAS CALL ISZERO DUP1 ISZERO PUSH2 0x1E80 JUMPI RETURNDATASIZE PUSH1 0x0 DUP1 RETURNDATACOPY RETURNDATASIZE PUSH1 0x0 REVERT JUMPDEST POP POP POP POP PUSH1 0x40 MLOAD RETURNDATASIZE PUSH1 0x20 DUP2 LT ISZERO PUSH2 0x1E96 JUMPI PUSH1 0x0 DUP1 REVERT JUMPDEST DUP2 ADD SWAP1 DUP1 DUP1 MLOAD SWAP1 PUSH1 0x20 ADD SWAP1 SWAP3 SWAP2 SWAP1 POP POP POP PUSH2 0x1EB0 JUMPI PUSH1 0x0 DUP1 REVERT JUMPDEST PUSH2 0x1F02 DUP2 PUSH1 0x9 PUSH1 0x0 CALLER PUSH20 0xFFFFFFFFFFFFFFFFFFFFFFFFFFFFFFFFFFFFFFFF AND PUSH20 0xFFFFFFFFFFFFFFFFFFFFFFFFFFFFFFFFFFFFFFFF AND DUP2 MSTORE PUSH1 0x20 ADD SWAP1 DUP2 MSTORE PUSH1 0x20 ADD PUSH1 0x0 KECCAK256 SLOAD PUSH2 0x5B02 SWAP1 SWAP2 SWAP1 PUSH4 0xFFFFFFFF AND JUMP JUMPDEST PUSH1 0x9 PUSH1 0x0 CALLER PUSH20 0xFFFFFFFFFFFFFFFFFFFFFFFFFFFFFFFFFFFFFFFF AND PUSH20 0xFFFFFFFFFFFFFFFFFFFFFFFFFFFFFFFFFFFFFFFF AND DUP2 MSTORE PUSH1 0x20 ADD SWAP1 DUP2 MSTORE PUSH1 0x20 ADD PUSH1 0x0 KECCAK256 DUP2 SWAP1 SSTORE POP POP JUMP JUMPDEST PUSH1 0x5 DUP2 DUP2 SLOAD DUP2 LT PUSH2 0x1F55 JUMPI INVALID JUMPDEST SWAP1 PUSH1 0x0 MSTORE PUSH1 0x20 PUSH1 0x0 KECCAK256 SWAP1 PUSH1 0x2 MUL ADD PUSH1 0x0 SWAP2 POP SWAP1 POP DUP1 PUSH1 0x0 ADD SLOAD SWAP1 DUP1 PUSH1 0x1 ADD SLOAD SWAP1 POP DUP3 JUMP JUMPDEST PUSH1 0x9 PUSH1 0x20 MSTORE DUP1 PUSH1 0x0 MSTORE PUSH1 0x40 PUSH1 0x0 KECCAK256 PUSH1 0x0 SWAP2 POP SWAP1 POP SLOAD DUP2 JUMP JUMPDEST PUSH1 0x1 PUSH1 0x0 SWAP1 SLOAD SWAP1 PUSH2 0x100 EXP SWAP1 DIV PUSH20 0xFFFFFFFFFFFFFFFFFFFFFFFFFFFFFFFFFFFFFFFF AND PUSH20 0xFFFFFFFFFFFFFFFFFFFFFFFFFFFFFFFFFFFFFFFF AND CALLER PUSH20 0xFFFFFFFFFFFFFFFFFFFFFFFFFFFFFFFFFFFFFFFF AND EQ PUSH2 0x2054 JUMPI PUSH1 0x40 MLOAD PUSH32 0x8C379A000000000000000000000000000000000000000000000000000000000 DUP2 MSTORE PUSH1 0x4 ADD DUP1 DUP1 PUSH1 0x20 ADD DUP3 DUP2 SUB DUP3 MSTORE PUSH1 0x16 DUP2 MSTORE PUSH1 0x20 ADD DUP1 PUSH32 0x6F6E6C79206465706C6F7965722063616E2063616C6C00000000000000000000 DUP2 MSTORE POP PUSH1 0x20 ADD SWAP2 POP POP PUSH1 0x40 MLOAD DUP1 SWAP2 SUB SWAP1 REVERT JUMPDEST PUSH1 0x6 PUSH1 0x40 MLOAD DUP1 PUSH1 0x40 ADD PUSH1 0x40 MSTORE DUP1 DUP5 DUP2 MSTORE PUSH1 0x20 ADD DUP4 DUP2 MSTORE POP SWAP1 DUP1 PUSH1 0x1 DUP2 SLOAD ADD DUP1 DUP3 SSTORE DUP1 SWAP2 POP POP SWAP1 PUSH1 0x1 DUP3 SUB SWAP1 PUSH1 0x0 MSTORE PUSH1 0x20 PUSH1 0x0 KECCAK256 SWAP1 PUSH1 0x2 MUL ADD PUSH1 0x0 SWAP1 SWAP2 SWAP3 SWAP1 SWAP2 SWAP1 SWAP2 POP PUSH1 0x0 DUP3 ADD MLOAD DUP2 PUSH1 0x0 ADD SSTORE PUSH1 0x20 DUP3 ADD MLOAD DUP2 PUSH1 0x1 ADD SSTORE POP POP POP POP POP JUMP JUMPDEST PUSH1 0x1 PUSH1 0x0 SWAP1 SLOAD SWAP1 PUSH2 0x100 EXP SWAP1 DIV PUSH20 0xFFFFFFFFFFFFFFFFFFFFFFFFFFFFFFFFFFFFFFFF AND PUSH20 0xFFFFFFFFFFFFFFFFFFFFFFFFFFFFFFFFFFFFFFFF AND CALLER PUSH20 0xFFFFFFFFFFFFFFFFFFFFFFFFFFFFFFFFFFFFFFFF AND EQ PUSH2 0x2174 JUMPI PUSH1 0x40 MLOAD PUSH32 0x8C379A000000000000000000000000000000000000000000000000000000000 DUP2 MSTORE PUSH1 0x4 ADD DUP1 DUP1 PUSH1 0x20 ADD DUP3 DUP2 SUB DUP3 MSTORE PUSH1 0x16 DUP2 MSTORE PUSH1 0x20 ADD DUP1 PUSH32 0x6F6E6C79206465706C6F7965722063616E2063616C6C00000000000000000000 DUP2 MSTORE POP PUSH1 0x20 ADD SWAP2 POP POP PUSH1 0x40 MLOAD DUP1 SWAP2 SUB SWAP1 REVERT JUMPDEST PUSH1 0x0 DUP1 SWAP1 POP JUMPDEST DUP3 MLOAD DUP2 LT ISZERO PUSH2 0x2306 JUMPI PUSH2 0x21E8 DUP3 DUP3 DUP2 MLOAD DUP2 LT PUSH2 0x2192 JUMPI INVALID JUMPDEST PUSH1 0x20 MUL PUSH1 0x20 ADD ADD MLOAD PUSH1 0x9 PUSH1 0x0 CALLER PUSH20 0xFFFFFFFFFFFFFFFFFFFFFFFFFFFFFFFFFFFFFFFF AND PUSH20 0xFFFFFFFFFFFFFFFFFFFFFFFFFFFFFFFFFFFFFFFF AND DUP2 MSTORE PUSH1 0x20 ADD SWAP1 DUP2 MSTORE PUSH1 0x20 ADD PUSH1 0x0 KECCAK256 SLOAD PUSH2 0x5AE2 SWAP1 SWAP2 SWAP1 PUSH4 0xFFFFFFFF AND JUMP JUMPDEST PUSH1 0x9 PUSH1 0x0 CALLER PUSH20 0xFFFFFFFFFFFFFFFFFFFFFFFFFFFFFFFFFFFFFFFF AND PUSH20 0xFFFFFFFFFFFFFFFFFFFFFFFFFFFFFFFFFFFFFFFF AND DUP2 MSTORE PUSH1 0x20 ADD SWAP1 DUP2 MSTORE PUSH1 0x20 ADD PUSH1 0x0 KECCAK256 DUP2 SWAP1 SSTORE POP PUSH2 0x22A3 DUP3 DUP3 DUP2 MLOAD DUP2 LT PUSH2 0x223A JUMPI INVALID JUMPDEST PUSH1 0x20 MUL PUSH1 0x20 ADD ADD MLOAD PUSH1 0x9 PUSH1 0x0 DUP7 DUP6 DUP2 MLOAD DUP2 LT PUSH2 0x2252 JUMPI INVALID JUMPDEST PUSH1 0x20 MUL PUSH1 0x20 ADD ADD MLOAD PUSH20 0xFFFFFFFFFFFFFFFFFFFFFFFFFFFFFFFFFFFFFFFF AND PUSH20 0xFFFFFFFFFFFFFFFFFFFFFFFFFFFFFFFFFFFFFFFF AND DUP2 MSTORE PUSH1 0x20 ADD SWAP1 DUP2 MSTORE PUSH1 0x20 ADD PUSH1 0x0 KECCAK256 SLOAD PUSH2 0x5B02 SWAP1 SWAP2 SWAP1 PUSH4 0xFFFFFFFF AND JUMP JUMPDEST PUSH1 0x9 PUSH1 0x0 DUP6 DUP5 DUP2 MLOAD DUP2 LT PUSH2 0x22B3 JUMPI INVALID JUMPDEST PUSH1 0x20 MUL PUSH1 0x20 ADD ADD MLOAD PUSH20 0xFFFFFFFFFFFFFFFFFFFFFFFFFFFFFFFFFFFFFFFF AND PUSH20 0xFFFFFFFFFFFFFFFFFFFFFFFFFFFFFFFFFFFFFFFF AND DUP2 MSTORE PUSH1 0x20 ADD SWAP1 DUP2 MSTORE PUSH1 0x20 ADD PUSH1 0x0 KECCAK256 DUP2 SWAP1 SSTORE POP DUP1 DUP1 PUSH1 0x1 ADD SWAP2 POP POP PUSH2 0x217A JUMP JUMPDEST POP POP POP JUMP JUMPDEST PUSH1 0x1 PUSH1 0x0 SWAP1 SLOAD SWAP1 PUSH2 0x100 EXP SWAP1 DIV PUSH20 0xFFFFFFFFFFFFFFFFFFFFFFFFFFFFFFFFFFFFFFFF AND DUP2 JUMP JUMPDEST PUSH1 0x0 PUSH1 0x2 PUSH1 0x0 SWAP1 SLOAD SWAP1 PUSH2 0x100 EXP SWAP1 DIV PUSH20 0xFFFFFFFFFFFFFFFFFFFFFFFFFFFFFFFFFFFFFFFF AND PUSH20 0xFFFFFFFFFFFFFFFFFFFFFFFFFFFFFFFFFFFFFFFF AND PUSH4 0xB81F90F3 PUSH1 0x40 MLOAD DUP2 PUSH4 0xFFFFFFFF AND PUSH1 0xE0 SHL DUP2 MSTORE PUSH1 0x4 ADD PUSH1 0x20 PUSH1 0x40 MLOAD DUP1 DUP4 SUB DUP2 DUP7 DUP1 EXTCODESIZE ISZERO DUP1 ISZERO PUSH2 0x239B JUMPI PUSH1 0x0 DUP1 REVERT JUMPDEST POP GAS STATICCALL ISZERO DUP1 ISZERO PUSH2 0x23AF JUMPI RETURNDATASIZE PUSH1 0x0 DUP1 RETURNDATACOPY RETURNDATASIZE PUSH1 0x0 REVERT JUMPDEST POP POP POP POP PUSH1 0x40 MLOAD RETURNDATASIZE PUSH1 0x20 DUP2 LT ISZERO PUSH2 0x23C5 JUMPI PUSH1 0x0 DUP1 REVERT JUMPDEST DUP2 ADD SWAP1 DUP1 DUP1 MLOAD SWAP1 PUSH1 0x20 ADD SWAP1 SWAP3 SWAP2 SWAP1 POP POP POP SWAP1 POP PUSH1 0x4 SLOAD PUSH1 0xC MUL PUSH1 0x4 SLOAD PUSH1 0x5 PUSH1 0x7 PUSH1 0x0 DUP8 PUSH20 0xFFFFFFFFFFFFFFFFFFFFFFFFFFFFFFFFFFFFFFFF AND PUSH20 0xFFFFFFFFFFFFFFFFFFFFFFFFFFFFFFFFFFFFFFFF AND DUP2 MSTORE PUSH1 0x20 ADD SWAP1 DUP2 MSTORE PUSH1 0x20 ADD PUSH1 0x0 KECCAK256 DUP6 DUP2 SLOAD DUP2 LT PUSH2 0x242D JUMPI INVALID JUMPDEST SWAP1 PUSH1 0x0 MSTORE PUSH1 0x20 PUSH1 0x0 KECCAK256 SWAP1 PUSH1 0x8 MUL ADD PUSH1 0x2 ADD SLOAD DUP2 SLOAD DUP2 LT PUSH2 0x2449 JUMPI INVALID JUMPDEST SWAP1 PUSH1 0x0 MSTORE PUSH1 0x20 PUSH1 0x0 KECCAK256 SWAP1 PUSH1 0x2 MUL ADD PUSH1 0x0 ADD SLOAD MUL PUSH1 0x7 PUSH1 0x0 DUP7 PUSH20 0xFFFFFFFFFFFFFFFFFFFFFFFFFFFFFFFFFFFFFFFF AND PUSH20 0xFFFFFFFFFFFFFFFFFFFFFFFFFFFFFFFFFFFFFFFF AND DUP2 MSTORE PUSH1 0x20 ADD SWAP1 DUP2 MSTORE PUSH1 0x20 ADD PUSH1 0x0 KECCAK256 DUP5 DUP2 SLOAD DUP2 LT PUSH2 0x24A6 JUMPI INVALID JUMPDEST SWAP1 PUSH1 0x0 MSTORE PUSH1 0x20 PUSH1 0x0 KECCAK256 SWAP1 PUSH1 0x8 MUL ADD PUSH1 0x1 ADD SLOAD ADD ADD DUP2 GT PUSH2 0x252E JUMPI PUSH1 0x40 MLOAD PUSH32 0x8C379A000000000000000000000000000000000000000000000000000000000 DUP2 MSTORE PUSH1 0x4 ADD DUP1 DUP1 PUSH1 0x20 ADD DUP3 DUP2 SUB DUP3 MSTORE PUSH1 0x1E DUP2 MSTORE PUSH1 0x20 ADD DUP1 PUSH32 0x63616E6E6F74206E6F6D696E6565207769746864726177206265666F72650000 DUP2 MSTORE POP PUSH1 0x20 ADD SWAP2 POP POP PUSH1 0x40 MLOAD DUP1 SWAP2 SUB SWAP1 REVERT JUMPDEST PUSH1 0x0 PUSH1 0x7 PUSH1 0x0 DUP6 PUSH20 0xFFFFFFFFFFFFFFFFFFFFFFFFFFFFFFFFFFFFFFFF AND PUSH20 0xFFFFFFFFFFFFFFFFFFFFFFFFFFFFFFFFFFFFFFFF AND DUP2 MSTORE PUSH1 0x20 ADD SWAP1 DUP2 MSTORE PUSH1 0x20 ADD PUSH1 0x0 KECCAK256 DUP4 DUP2 SLOAD DUP2 LT PUSH2 0x257A JUMPI INVALID JUMPDEST SWAP1 PUSH1 0x0 MSTORE PUSH1 0x20 PUSH1 0x0 KECCAK256 SWAP1 PUSH1 0x8 MUL ADD PUSH1 0x7 ADD PUSH1 0x0 CALLER PUSH20 0xFFFFFFFFFFFFFFFFFFFFFFFFFFFFFFFFFFFFFFFF AND PUSH20 0xFFFFFFFFFFFFFFFFFFFFFFFFFFFFFFFFFFFFFFFF AND DUP2 MSTORE PUSH1 0x20 ADD SWAP1 DUP2 MSTORE PUSH1 0x20 ADD PUSH1 0x0 KECCAK256 SLOAD SWAP1 POP PUSH1 0x0 DUP2 GT PUSH2 0x2641 JUMPI PUSH1 0x40 MLOAD PUSH32 0x8C379A000000000000000000000000000000000000000000000000000000000 DUP2 MSTORE PUSH1 0x4 ADD DUP1 DUP1 PUSH1 0x20 ADD DUP3 DUP2 SUB DUP3 MSTORE PUSH1 0x1D DUP2 MSTORE PUSH1 0x20 ADD DUP1 PUSH32 0x4E6F742061206E6F6D696E6565206F662074686973207374616B696E67000000 DUP2 MSTORE POP PUSH1 0x20 ADD SWAP2 POP POP PUSH1 0x40 MLOAD DUP1 SWAP2 SUB SWAP1 REVERT JUMPDEST PUSH1 0x5 PUSH1 0x7 PUSH1 0x0 DUP7 PUSH20 0xFFFFFFFFFFFFFFFFFFFFFFFFFFFFFFFFFFFFFFFF AND PUSH20 0xFFFFFFFFFFFFFFFFFFFFFFFFFFFFFFFFFFFFFFFF AND DUP2 MSTORE PUSH1 0x20 ADD SWAP1 DUP2 MSTORE PUSH1 0x20 ADD PUSH1 0x0 KECCAK256 DUP5 DUP2 SLOAD DUP2 LT PUSH2 0x268D JUMPI INVALID JUMPDEST SWAP1 PUSH1 0x0 MSTORE PUSH1 0x20 PUSH1 0x0 KECCAK256 SWAP1 PUSH1 0x8 MUL ADD PUSH1 0x3 ADD SLOAD EQ PUSH2 0x2706 JUMPI PUSH1 0x5 PUSH1 0x7 PUSH1 0x0 DUP7 PUSH20 0xFFFFFFFFFFFFFFFFFFFFFFFFFFFFFFFFFFFFFFFF AND PUSH20 0xFFFFFFFFFFFFFFFFFFFFFFFFFFFFFFFFFFFFFFFF AND DUP2 MSTORE PUSH1 0x20 ADD SWAP1 DUP2 MSTORE PUSH1 0x20 ADD PUSH1 0x0 KECCAK256 DUP5 DUP2 SLOAD DUP2 LT PUSH2 0x26F0 JUMPI INVALID JUMPDEST SWAP1 PUSH1 0x0 MSTORE PUSH1 0x20 PUSH1 0x0 KECCAK256 SWAP1 PUSH1 0x8 MUL ADD PUSH1 0x3 ADD DUP2 SWAP1 SSTORE POP JUMPDEST PUSH1 0x0 PUSH1 0x7 PUSH1 0x0 DUP7 PUSH20 0xFFFFFFFFFFFFFFFFFFFFFFFFFFFFFFFFFFFFFFFF AND PUSH20 0xFFFFFFFFFFFFFFFFFFFFFFFFFFFFFFFFFFFFFFFF AND DUP2 MSTORE PUSH1 0x20 ADD SWAP1 DUP2 MSTORE PUSH1 0x20 ADD PUSH1 0x0 KECCAK256 DUP5 DUP2 SLOAD DUP2 LT PUSH2 0x2752 JUMPI INVALID JUMPDEST SWAP1 PUSH1 0x0 MSTORE PUSH1 0x20 PUSH1 0x0 KECCAK256 SWAP1 PUSH1 0x8 MUL ADD PUSH1 0x0 ADD SLOAD SWAP1 POP PUSH1 0x0 DUP1 PUSH2 0x27ED PUSH1 0x4 SLOAD PUSH2 0x27DF PUSH1 0x0 SLOAD PUSH1 0x7 PUSH1 0x0 DUP13 PUSH20 0xFFFFFFFFFFFFFFFFFFFFFFFFFFFFFFFFFFFFFFFF AND PUSH20 0xFFFFFFFFFFFFFFFFFFFFFFFFFFFFFFFFFFFFFFFF AND DUP2 MSTORE PUSH1 0x20 ADD SWAP1 DUP2 MSTORE PUSH1 0x20 ADD PUSH1 0x0 KECCAK256 DUP11 DUP2 SLOAD DUP2 LT PUSH2 0x27BF JUMPI INVALID JUMPDEST SWAP1 PUSH1 0x0 MSTORE PUSH1 0x20 PUSH1 0x0 KECCAK256 SWAP1 PUSH1 0x8 MUL ADD PUSH1 0x1 ADD SLOAD PUSH2 0x5AE2 SWAP1 SWAP2 SWAP1 PUSH4 0xFFFFFFFF AND JUMP JUMPDEST PUSH2 0x5B5B SWAP1 SWAP2 SWAP1 PUSH4 0xFFFFFFFF AND JUMP JUMPDEST SWAP1 POP PUSH1 0x0 PUSH1 0x5 PUSH1 0x7 PUSH1 0x0 DUP11 PUSH20 0xFFFFFFFFFFFFFFFFFFFFFFFFFFFFFFFFFFFFFFFF AND PUSH20 0xFFFFFFFFFFFFFFFFFFFFFFFFFFFFFFFFFFFFFFFF AND DUP2 MSTORE PUSH1 0x20 ADD SWAP1 DUP2 MSTORE PUSH1 0x20 ADD PUSH1 0x0 KECCAK256 DUP9 DUP2 SLOAD DUP2 LT PUSH2 0x283D JUMPI INVALID JUMPDEST SWAP1 PUSH1 0x0 MSTORE PUSH1 0x20 PUSH1 0x0 KECCAK256 SWAP1 PUSH1 0x8 MUL ADD PUSH1 0x2 ADD SLOAD DUP2 SLOAD DUP2 LT PUSH2 0x2859 JUMPI INVALID JUMPDEST SWAP1 PUSH1 0x0 MSTORE PUSH1 0x20 PUSH1 0x0 KECCAK256 SWAP1 PUSH1 0x2 MUL ADD PUSH1 0x0 ADD SLOAD DUP3 ADD SWAP1 POP PUSH1 0x0 DUP3 SWAP1 POP JUMPDEST DUP2 DUP2 LT ISZERO PUSH2 0x2AAD JUMPI PUSH1 0x7 PUSH1 0x0 DUP11 PUSH20 0xFFFFFFFFFFFFFFFFFFFFFFFFFFFFFFFFFFFFFFFF AND PUSH20 0xFFFFFFFFFFFFFFFFFFFFFFFFFFFFFFFFFFFFFFFF AND DUP2 MSTORE PUSH1 0x20 ADD SWAP1 DUP2 MSTORE PUSH1 0x20 ADD PUSH1 0x0 KECCAK256 DUP9 DUP2 SLOAD DUP2 LT PUSH2 0x28C7 JUMPI INVALID JUMPDEST SWAP1 PUSH1 0x0 MSTORE PUSH1 0x20 PUSH1 0x0 KECCAK256 SWAP1 PUSH1 0x8 MUL ADD PUSH1 0x6 ADD PUSH1 0x0 DUP3 DUP2 MSTORE PUSH1 0x20 ADD SWAP1 DUP2 MSTORE PUSH1 0x20 ADD PUSH1 0x0 KECCAK256 PUSH1 0x0 SWAP1 SLOAD SWAP1 PUSH2 0x100 EXP SWAP1 DIV PUSH1 0xFF AND ISZERO PUSH2 0x2AA0 JUMPI PUSH1 0x0 PUSH2 0x29F8 PUSH1 0xF PUSH2 0x29EA PUSH1 0x5 PUSH1 0x7 PUSH1 0x0 DUP16 PUSH20 0xFFFFFFFFFFFFFFFFFFFFFFFFFFFFFFFFFFFFFFFF AND PUSH20 0xFFFFFFFFFFFFFFFFFFFFFFFFFFFFFFFFFFFFFFFF AND DUP2 MSTORE PUSH1 0x20 ADD SWAP1 DUP2 MSTORE PUSH1 0x20 ADD PUSH1 0x0 KECCAK256 DUP14 DUP2 SLOAD DUP2 LT PUSH2 0x2952 JUMPI INVALID JUMPDEST SWAP1 PUSH1 0x0 MSTORE PUSH1 0x20 PUSH1 0x0 KECCAK256 SWAP1 PUSH1 0x8 MUL ADD PUSH1 0x2 ADD SLOAD DUP2 SLOAD DUP2 LT PUSH2 0x296E JUMPI INVALID JUMPDEST SWAP1 PUSH1 0x0 MSTORE PUSH1 0x20 PUSH1 0x0 KECCAK256 SWAP1 PUSH1 0x2 MUL ADD PUSH1 0x1 ADD SLOAD PUSH1 0x7 PUSH1 0x0 DUP16 PUSH20 0xFFFFFFFFFFFFFFFFFFFFFFFFFFFFFFFFFFFFFFFF AND PUSH20 0xFFFFFFFFFFFFFFFFFFFFFFFFFFFFFFFFFFFFFFFF AND DUP2 MSTORE PUSH1 0x20 ADD SWAP1 DUP2 MSTORE PUSH1 0x20 ADD PUSH1 0x0 KECCAK256 DUP14 DUP2 SLOAD DUP2 LT PUSH2 0x29CA JUMPI INVALID JUMPDEST SWAP1 PUSH1 0x0 MSTORE PUSH1 0x20 PUSH1 0x0 KECCAK256 SWAP1 PUSH1 0x8 MUL ADD PUSH1 0x0 ADD SLOAD PUSH2 0x5B21 SWAP1 SWAP2 SWAP1 PUSH4 0xFFFFFFFF AND JUMP JUMPDEST PUSH2 0x5B5B SWAP1 SWAP2 SWAP1 PUSH4 0xFFFFFFFF AND JUMP JUMPDEST SWAP1 POP PUSH1 0x0 PUSH2 0x2A4B PUSH1 0xA PUSH1 0x0 DUP6 DUP2 MSTORE PUSH1 0x20 ADD SWAP1 DUP2 MSTORE PUSH1 0x20 ADD PUSH1 0x0 KECCAK256 SLOAD PUSH2 0x2A3D PUSH1 0xB DUP7 DUP2 SLOAD DUP2 LT PUSH2 0x2A23 JUMPI INVALID JUMPDEST SWAP1 PUSH1 0x0 MSTORE PUSH1 0x20 PUSH1 0x0 KECCAK256 ADD SLOAD DUP6 PUSH2 0x5B21 SWAP1 SWAP2 SWAP1 PUSH4 0xFFFFFFFF AND JUMP JUMPDEST PUSH2 0x5B5B SWAP1 SWAP2 SWAP1 PUSH4 0xFFFFFFFF AND JUMP JUMPDEST SWAP1 POP PUSH2 0x2A73 PUSH2 0x2A64 PUSH1 0x2 DUP4 PUSH2 0x5B5B SWAP1 SWAP2 SWAP1 PUSH4 0xFFFFFFFF AND JUMP JUMPDEST DUP9 PUSH2 0x5B02 SWAP1 SWAP2 SWAP1 PUSH4 0xFFFFFFFF AND JUMP JUMPDEST SWAP7 POP PUSH2 0x2A9B PUSH2 0x2A8C PUSH1 0x2 DUP4 PUSH2 0x5B5B SWAP1 SWAP2 SWAP1 PUSH4 0xFFFFFFFF AND JUMP JUMPDEST DUP8 PUSH2 0x5B02 SWAP1 SWAP2 SWAP1 PUSH4 0xFFFFFFFF AND JUMP JUMPDEST SWAP6 POP POP POP JUMPDEST DUP1 DUP1 PUSH1 0x1 ADD SWAP2 POP POP PUSH2 0x2875 JUMP JUMPDEST POP PUSH1 0x0 PUSH1 0x7 PUSH1 0x0 DUP11 PUSH20 0xFFFFFFFFFFFFFFFFFFFFFFFFFFFFFFFFFFFFFFFF AND PUSH20 0xFFFFFFFFFFFFFFFFFFFFFFFFFFFFFFFFFFFFFFFF AND DUP2 MSTORE PUSH1 0x20 ADD SWAP1 DUP2 MSTORE PUSH1 0x20 ADD PUSH1 0x0 KECCAK256 DUP9 DUP2 SLOAD DUP2 LT PUSH2 0x2AFA JUMPI INVALID JUMPDEST SWAP1 PUSH1 0x0 MSTORE PUSH1 0x20 PUSH1 0x0 KECCAK256 SWAP1 PUSH1 0x8 MUL ADD PUSH1 0x7 ADD PUSH1 0x0 CALLER PUSH20 0xFFFFFFFFFFFFFFFFFFFFFFFFFFFFFFFFFFFFFFFF AND PUSH20 0xFFFFFFFFFFFFFFFFFFFFFFFFFFFFFFFFFFFFFFFF AND DUP2 MSTORE PUSH1 0x20 ADD SWAP1 DUP2 MSTORE PUSH1 0x20 ADD PUSH1 0x0 KECCAK256 DUP2 SWAP1 SSTORE POP PUSH1 0x0 PUSH2 0x2BCE PUSH1 0x7 PUSH1 0x0 DUP12 PUSH20 0xFFFFFFFFFFFFFFFFFFFFFFFFFFFFFFFFFFFFFFFF AND PUSH20 0xFFFFFFFFFFFFFFFFFFFFFFFFFFFFFFFFFFFFFFFF AND DUP2 MSTORE PUSH1 0x20 ADD SWAP1 DUP2 MSTORE PUSH1 0x20 ADD PUSH1 0x0 KECCAK256 DUP10 DUP2 SLOAD DUP2 LT PUSH2 0x2B9B JUMPI INVALID JUMPDEST SWAP1 PUSH1 0x0 MSTORE PUSH1 0x20 PUSH1 0x0 KECCAK256 SWAP1 PUSH1 0x8 MUL ADD PUSH1 0x5 ADD SLOAD PUSH2 0x2BC0 DUP9 DUP9 PUSH2 0x5B21 SWAP1 SWAP2 SWAP1 PUSH4 0xFFFFFFFF AND JUMP JUMPDEST PUSH2 0x5B5B SWAP1 SWAP2 SWAP1 PUSH4 0xFFFFFFFF AND JUMP JUMPDEST SWAP1 POP PUSH1 0x2 PUSH1 0x0 SWAP1 SLOAD SWAP1 PUSH2 0x100 EXP SWAP1 DIV PUSH20 0xFFFFFFFFFFFFFFFFFFFFFFFFFFFFFFFFFFFFFFFF AND PUSH20 0xFFFFFFFFFFFFFFFFFFFFFFFFFFFFFFFFFFFFFFFF AND PUSH4 0xA9059CBB CALLER DUP4 PUSH1 0x40 MLOAD DUP4 PUSH4 0xFFFFFFFF AND PUSH1 0xE0 SHL DUP2 MSTORE PUSH1 0x4 ADD DUP1 DUP4 PUSH20 0xFFFFFFFFFFFFFFFFFFFFFFFFFFFFFFFFFFFFFFFF AND PUSH20 0xFFFFFFFFFFFFFFFFFFFFFFFFFFFFFFFFFFFFFFFF AND DUP2 MSTORE PUSH1 0x20 ADD DUP3 DUP2 MSTORE PUSH1 0x20 ADD SWAP3 POP POP POP PUSH1 0x20 PUSH1 0x40 MLOAD DUP1 DUP4 SUB DUP2 PUSH1 0x0 DUP8 DUP1 EXTCODESIZE ISZERO DUP1 ISZERO PUSH2 0x2C79 JUMPI PUSH1 0x0 DUP1 REVERT JUMPDEST POP GAS CALL ISZERO DUP1 ISZERO PUSH2 0x2C8D JUMPI RETURNDATASIZE PUSH1 0x0 DUP1 RETURNDATACOPY RETURNDATASIZE PUSH1 0x0 REVERT JUMPDEST POP POP POP POP PUSH1 0x40 MLOAD RETURNDATASIZE PUSH1 0x20 DUP2 LT ISZERO PUSH2 0x2CA3 JUMPI PUSH1 0x0 DUP1 REVERT JUMPDEST DUP2 ADD SWAP1 DUP1 DUP1 MLOAD SWAP1 PUSH1 0x20 ADD SWAP1 SWAP3 SWAP2 SWAP1 POP POP POP POP PUSH1 0x0 PUSH2 0x2D37 PUSH1 0x7 PUSH1 0x0 DUP13 PUSH20 0xFFFFFFFFFFFFFFFFFFFFFFFFFFFFFFFFFFFFFFFF AND PUSH20 0xFFFFFFFFFFFFFFFFFFFFFFFFFFFFFFFFFFFFFFFF AND DUP2 MSTORE PUSH1 0x20 ADD SWAP1 DUP2 MSTORE PUSH1 0x20 ADD PUSH1 0x0 KECCAK256 DUP11 DUP2 SLOAD DUP2 LT PUSH2 0x2D04 JUMPI INVALID JUMPDEST SWAP1 PUSH1 0x0 MSTORE PUSH1 0x20 PUSH1 0x0 KECCAK256 SWAP1 PUSH1 0x8 MUL ADD PUSH1 0x5 ADD SLOAD PUSH2 0x2D29 DUP10 DUP9 PUSH2 0x5B21 SWAP1 SWAP2 SWAP1 PUSH4 0xFFFFFFFF AND JUMP JUMPDEST PUSH2 0x5B5B SWAP1 SWAP2 SWAP1 PUSH4 0xFFFFFFFF AND JUMP JUMPDEST SWAP1 POP PUSH2 0x2D8B DUP2 PUSH1 0x9 PUSH1 0x0 CALLER PUSH20 0xFFFFFFFFFFFFFFFFFFFFFFFFFFFFFFFFFFFFFFFF AND PUSH20 0xFFFFFFFFFFFFFFFFFFFFFFFFFFFFFFFFFFFFFFFF AND DUP2 MSTORE PUSH1 0x20 ADD SWAP1 DUP2 MSTORE PUSH1 0x20 ADD PUSH1 0x0 KECCAK256 SLOAD PUSH2 0x5B02 SWAP1 SWAP2 SWAP1 PUSH4 0xFFFFFFFF AND JUMP JUMPDEST PUSH1 0x9 PUSH1 0x0 CALLER PUSH20 0xFFFFFFFFFFFFFFFFFFFFFFFFFFFFFFFFFFFFFFFF AND PUSH20 0xFFFFFFFFFFFFFFFFFFFFFFFFFFFFFFFFFFFFFFFF AND DUP2 MSTORE PUSH1 0x20 ADD SWAP1 DUP2 MSTORE PUSH1 0x20 ADD PUSH1 0x0 KECCAK256 DUP2 SWAP1 SSTORE POP CALLER PUSH20 0xFFFFFFFFFFFFFFFFFFFFFFFFFFFFFFFFFFFFFFFF AND DUP10 DUP12 PUSH20 0xFFFFFFFFFFFFFFFFFFFFFFFFFFFFFFFFFFFFFFFF AND PUSH32 0xA54CEC59552C7F022EED79EDE59F759697AA5787F43B11D61F17BFC5ADAFFB65 DUP6 DUP6 PUSH1 0x40 MLOAD DUP1 DUP4 DUP2 MSTORE PUSH1 0x20 ADD DUP3 DUP2 MSTORE PUSH1 0x20 ADD SWAP3 POP POP POP PUSH1 0x40 MLOAD DUP1 SWAP2 SUB SWAP1 LOG4 POP POP POP POP POP POP POP POP POP POP JUMP JUMPDEST PUSH1 0x0 DUP1 PUSH2 0x2ECF PUSH1 0x4 SLOAD PUSH2 0x2EC1 PUSH1 0x0 SLOAD PUSH1 0x7 PUSH1 0x0 DUP12 PUSH20 0xFFFFFFFFFFFFFFFFFFFFFFFFFFFFFFFFFFFFFFFF AND PUSH20 0xFFFFFFFFFFFFFFFFFFFFFFFFFFFFFFFFFFFFFFFF AND DUP2 MSTORE PUSH1 0x20 ADD SWAP1 DUP2 MSTORE PUSH1 0x20 ADD PUSH1 0x0 KECCAK256 DUP10 DUP2 SLOAD DUP2 LT PUSH2 0x2EA1 JUMPI INVALID JUMPDEST SWAP1 PUSH1 0x0 MSTORE PUSH1 0x20 PUSH1 0x0 KECCAK256 SWAP1 PUSH1 0x8 MUL ADD PUSH1 0x1 ADD SLOAD PUSH2 0x5AE2 SWAP1 SWAP2 SWAP1 PUSH4 0xFFFFFFFF AND JUMP JUMPDEST PUSH2 0x5B5B SWAP1 SWAP2 SWAP1 PUSH4 0xFFFFFFFF AND JUMP JUMPDEST SWAP1 POP DUP3 PUSH1 0x1 DUP3 ADD GT ISZERO DUP1 ISZERO PUSH2 0x2F5F JUMPI POP DUP3 PUSH1 0x5 PUSH1 0x7 PUSH1 0x0 DUP10 PUSH20 0xFFFFFFFFFFFFFFFFFFFFFFFFFFFFFFFFFFFFFFFF AND PUSH20 0xFFFFFFFFFFFFFFFFFFFFFFFFFFFFFFFFFFFFFFFF AND DUP2 MSTORE PUSH1 0x20 ADD SWAP1 DUP2 MSTORE PUSH1 0x20 ADD PUSH1 0x0 KECCAK256 DUP8 DUP2 SLOAD DUP2 LT PUSH2 0x2F2C JUMPI INVALID JUMPDEST SWAP1 PUSH1 0x0 MSTORE PUSH1 0x20 PUSH1 0x0 KECCAK256 SWAP1 PUSH1 0x8 MUL ADD PUSH1 0x2 ADD SLOAD DUP2 SLOAD DUP2 LT PUSH2 0x2F48 JUMPI INVALID JUMPDEST SWAP1 PUSH1 0x0 MSTORE PUSH1 0x20 PUSH1 0x0 KECCAK256 SWAP1 PUSH1 0x2 MUL ADD PUSH1 0x0 ADD SLOAD DUP3 ADD LT ISZERO JUMPDEST DUP1 ISZERO PUSH2 0x2FC6 JUMPI POP PUSH1 0x1 PUSH1 0x7 PUSH1 0x0 DUP9 PUSH20 0xFFFFFFFFFFFFFFFFFFFFFFFFFFFFFFFFFFFFFFFF AND PUSH20 0xFFFFFFFFFFFFFFFFFFFFFFFFFFFFFFFFFFFFFFFF AND DUP2 MSTORE PUSH1 0x20 ADD SWAP1 DUP2 MSTORE PUSH1 0x20 ADD PUSH1 0x0 KECCAK256 DUP7 DUP2 SLOAD DUP2 LT PUSH2 0x2FB2 JUMPI INVALID JUMPDEST SWAP1 PUSH1 0x0 MSTORE PUSH1 0x20 PUSH1 0x0 KECCAK256 SWAP1 PUSH1 0x8 MUL ADD PUSH1 0x3 ADD SLOAD EQ JUMPDEST DUP1 ISZERO PUSH2 0x3102 JUMPI POP DUP3 DUP5 EQ ISZERO DUP1 PUSH2 0x3101 JUMPI POP PUSH2 0x305B PUSH2 0x2FF1 PUSH1 0x4 SLOAD DUP4 DUP8 SUB PUSH2 0x5B21 SWAP1 SWAP2 SWAP1 PUSH4 0xFFFFFFFF AND JUMP JUMPDEST PUSH1 0x7 PUSH1 0x0 DUP10 PUSH20 0xFFFFFFFFFFFFFFFFFFFFFFFFFFFFFFFFFFFFFFFF AND PUSH20 0xFFFFFFFFFFFFFFFFFFFFFFFFFFFFFFFFFFFFFFFF AND DUP2 MSTORE PUSH1 0x20 ADD SWAP1 DUP2 MSTORE PUSH1 0x20 ADD PUSH1 0x0 KECCAK256 DUP8 DUP2 SLOAD DUP2 LT PUSH2 0x303B JUMPI INVALID JUMPDEST SWAP1 PUSH1 0x0 MSTORE PUSH1 0x20 PUSH1 0x0 KECCAK256 SWAP1 PUSH1 0x8 MUL ADD PUSH1 0x1 ADD SLOAD PUSH2 0x5B02 SWAP1 SWAP2 SWAP1 PUSH4 0xFFFFFFFF AND JUMP JUMPDEST PUSH1 0x2 PUSH1 0x0 SWAP1 SLOAD SWAP1 PUSH2 0x100 EXP SWAP1 DIV PUSH20 0xFFFFFFFFFFFFFFFFFFFFFFFFFFFFFFFFFFFFFFFF AND PUSH20 0xFFFFFFFFFFFFFFFFFFFFFFFFFFFFFFFFFFFFFFFF AND PUSH4 0xB81F90F3 PUSH1 0x40 MLOAD DUP2 PUSH4 0xFFFFFFFF AND PUSH1 0xE0 SHL DUP2 MSTORE PUSH1 0x4 ADD PUSH1 0x20 PUSH1 0x40 MLOAD DUP1 DUP4 SUB DUP2 DUP7 DUP1 EXTCODESIZE ISZERO DUP1 ISZERO PUSH2 0x30C3 JUMPI PUSH1 0x0 DUP1 REVERT JUMPDEST POP GAS STATICCALL ISZERO DUP1 ISZERO PUSH2 0x30D7 JUMPI RETURNDATASIZE PUSH1 0x0 DUP1 RETURNDATACOPY RETURNDATASIZE PUSH1 0x0 REVERT JUMPDEST POP POP POP POP PUSH1 0x40 MLOAD RETURNDATASIZE PUSH1 0x20 DUP2 LT ISZERO PUSH2 0x30ED JUMPI PUSH1 0x0 DUP1 REVERT JUMPDEST DUP2 ADD SWAP1 DUP1 DUP1 MLOAD SWAP1 PUSH1 0x20 ADD SWAP1 SWAP3 SWAP2 SWAP1 POP POP POP LT ISZERO JUMPDEST JUMPDEST SWAP2 POP POP SWAP5 SWAP4 POP POP POP POP JUMP JUMPDEST PUSH1 0x1 PUSH1 0x7 PUSH1 0x0 CALLER PUSH20 0xFFFFFFFFFFFFFFFFFFFFFFFFFFFFFFFFFFFFFFFF AND PUSH20 0xFFFFFFFFFFFFFFFFFFFFFFFFFFFFFFFFFFFFFFFF AND DUP2 MSTORE PUSH1 0x20 ADD SWAP1 DUP2 MSTORE PUSH1 0x20 ADD PUSH1 0x0 KECCAK256 DUP5 DUP2 SLOAD DUP2 LT PUSH2 0x3159 JUMPI INVALID JUMPDEST SWAP1 PUSH1 0x0 MSTORE PUSH1 0x20 PUSH1 0x0 KECCAK256 SWAP1 PUSH1 0x8 MUL ADD PUSH1 0x3 ADD SLOAD EQ PUSH2 0x31DE JUMPI PUSH1 0x40 MLOAD PUSH32 0x8C379A000000000000000000000000000000000000000000000000000000000 DUP2 MSTORE PUSH1 0x4 ADD DUP1 DUP1 PUSH1 0x20 ADD DUP3 DUP2 SUB DUP3 MSTORE PUSH1 0x15 DUP2 MSTORE PUSH1 0x20 ADD DUP1 PUSH32 0x7374616B696E672073686F756C64206163746976650000000000000000000000 DUP2 MSTORE POP PUSH1 0x20 ADD SWAP2 POP POP PUSH1 0x40 MLOAD DUP1 SWAP2 SUB SWAP1 REVERT JUMPDEST PUSH1 0x0 PUSH1 0x7 PUSH1 0x0 CALLER PUSH20 0xFFFFFFFFFFFFFFFFFFFFFFFFFFFFFFFFFFFFFFFF AND PUSH20 0xFFFFFFFFFFFFFFFFFFFFFFFFFFFFFFFFFFFFFFFF AND DUP2 MSTORE PUSH1 0x20 ADD SWAP1 DUP2 MSTORE PUSH1 0x20 ADD PUSH1 0x0 KECCAK256 DUP5 DUP2 SLOAD DUP2 LT PUSH2 0x322A JUMPI INVALID JUMPDEST SWAP1 PUSH1 0x0 MSTORE PUSH1 0x20 PUSH1 0x0 KECCAK256 SWAP1 PUSH1 0x8 MUL ADD PUSH1 0x7 ADD PUSH1 0x0 DUP5 PUSH20 0xFFFFFFFFFFFFFFFFFFFFFFFFFFFFFFFFFFFFFFFF AND PUSH20 0xFFFFFFFFFFFFFFFFFFFFFFFFFFFFFFFFFFFFFFFF AND DUP2 MSTORE PUSH1 0x20 ADD SWAP1 DUP2 MSTORE PUSH1 0x20 ADD PUSH1 0x0 KECCAK256 SLOAD EQ PUSH2 0x32EC JUMPI PUSH1 0x40 MLOAD PUSH32 0x8C379A000000000000000000000000000000000000000000000000000000000 DUP2 MSTORE PUSH1 0x4 ADD DUP1 DUP1 PUSH1 0x20 ADD DUP3 DUP2 SUB DUP3 MSTORE PUSH1 0x1D DUP2 MSTORE PUSH1 0x20 ADD DUP1 PUSH32 0x73686F756C64206E6F74206265206E6F6D696E656520616C7265616479000000 DUP2 MSTORE POP PUSH1 0x20 ADD SWAP2 POP POP PUSH1 0x40 MLOAD DUP1 SWAP2 SUB SWAP1 REVERT JUMPDEST PUSH2 0x335A DUP2 PUSH1 0x7 PUSH1 0x0 CALLER PUSH20 0xFFFFFFFFFFFFFFFFFFFFFFFFFFFFFFFFFFFFFFFF AND PUSH20 0xFFFFFFFFFFFFFFFFFFFFFFFFFFFFFFFFFFFFFFFF AND DUP2 MSTORE PUSH1 0x20 ADD SWAP1 DUP2 MSTORE PUSH1 0x20 ADD PUSH1 0x0 KECCAK256 DUP6 DUP2 SLOAD DUP2 LT PUSH2 0x333A JUMPI INVALID JUMPDEST SWAP1 PUSH1 0x0 MSTORE PUSH1 0x20 PUSH1 0x0 KECCAK256 SWAP1 PUSH1 0x8 MUL ADD PUSH1 0x5 ADD SLOAD PUSH2 0x5B02 SWAP1 SWAP2 SWAP1 PUSH4 0xFFFFFFFF AND JUMP JUMPDEST PUSH1 0x7 PUSH1 0x0 CALLER PUSH20 0xFFFFFFFFFFFFFFFFFFFFFFFFFFFFFFFFFFFFFFFF AND PUSH20 0xFFFFFFFFFFFFFFFFFFFFFFFFFFFFFFFFFFFFFFFF AND DUP2 MSTORE PUSH1 0x20 ADD SWAP1 DUP2 MSTORE PUSH1 0x20 ADD PUSH1 0x0 KECCAK256 DUP5 DUP2 SLOAD DUP2 LT PUSH2 0x33A4 JUMPI INVALID JUMPDEST SWAP1 PUSH1 0x0 MSTORE PUSH1 0x20 PUSH1 0x0 KECCAK256 SWAP1 PUSH1 0x8 MUL ADD PUSH1 0x5 ADD DUP2 SWAP1 SSTORE POP DUP1 PUSH1 0x7 PUSH1 0x0 CALLER PUSH20 0xFFFFFFFFFFFFFFFFFFFFFFFFFFFFFFFFFFFFFFFF AND PUSH20 0xFFFFFFFFFFFFFFFFFFFFFFFFFFFFFFFFFFFFFFFF AND DUP2 MSTORE PUSH1 0x20 ADD SWAP1 DUP2 MSTORE PUSH1 0x20 ADD PUSH1 0x0 KECCAK256 DUP5 DUP2 SLOAD DUP2 LT PUSH2 0x3404 JUMPI INVALID JUMPDEST SWAP1 PUSH1 0x0 MSTORE PUSH1 0x20 PUSH1 0x0 KECCAK256 SWAP1 PUSH1 0x8 MUL ADD PUSH1 0x7 ADD PUSH1 0x0 DUP5 PUSH20 0xFFFFFFFFFFFFFFFFFFFFFFFFFFFFFFFFFFFFFFFF AND PUSH20 0xFFFFFFFFFFFFFFFFFFFFFFFFFFFFFFFFFFFFFFFF AND DUP2 MSTORE PUSH1 0x20 ADD SWAP1 DUP2 MSTORE PUSH1 0x20 ADD PUSH1 0x0 KECCAK256 DUP2 SWAP1 SSTORE POP DUP2 PUSH20 0xFFFFFFFFFFFFFFFFFFFFFFFFFFFFFFFFFFFFFFFF AND DUP4 CALLER PUSH20 0xFFFFFFFFFFFFFFFFFFFFFFFFFFFFFFFFFFFFFFFF AND PUSH32 0xC4E7FB51A42CE926BB404F8024C3C91A40AF0654D9A96ADA67C329B9C9BEE4A2 PUSH1 0x40 MLOAD PUSH1 0x40 MLOAD DUP1 SWAP2 SUB SWAP1 LOG4 POP POP POP JUMP JUMPDEST PUSH1 0x0 PUSH1 0x7 PUSH1 0x0 DUP4 PUSH20 0xFFFFFFFFFFFFFFFFFFFFFFFFFFFFFFFFFFFFFFFF AND PUSH20 0xFFFFFFFFFFFFFFFFFFFFFFFFFFFFFFFFFFFFFFFF AND DUP2 MSTORE PUSH1 0x20 ADD SWAP1 DUP2 MSTORE PUSH1 0x20 ADD PUSH1 0x0 KECCAK256 DUP1 SLOAD SWAP1 POP SWAP1 POP SWAP2 SWAP1 POP JUMP JUMPDEST PUSH1 0x0 PUSH2 0x350C PUSH2 0x4B3B JUMP JUMPDEST SWAP1 POP DUP3 DUP2 LT ISZERO PUSH2 0x3584 JUMPI PUSH1 0x40 MLOAD PUSH32 0x8C379A000000000000000000000000000000000000000000000000000000000 DUP2 MSTORE PUSH1 0x4 ADD DUP1 DUP1 PUSH1 0x20 ADD DUP3 DUP2 SUB DUP3 MSTORE PUSH1 0x1F DUP2 MSTORE PUSH1 0x20 ADD DUP1 PUSH32 0x63616E6E6F7420776974686472617720667574757265207374616B696E677300 DUP2 MSTORE POP PUSH1 0x20 ADD SWAP2 POP POP PUSH1 0x40 MLOAD DUP1 SWAP2 SUB SWAP1 REVERT JUMPDEST PUSH1 0x0 PUSH1 0xA PUSH1 0x0 DUP4 DUP2 MSTORE PUSH1 0x20 ADD SWAP1 DUP2 MSTORE PUSH1 0x20 ADD PUSH1 0x0 KECCAK256 SLOAD EQ ISZERO PUSH2 0x35F8 JUMPI PUSH1 0x0 PUSH2 0x35F7 JUMPI PUSH1 0x40 MLOAD PUSH32 0x8C379A000000000000000000000000000000000000000000000000000000000 DUP2 MSTORE PUSH1 0x4 ADD DUP1 DUP1 PUSH1 0x20 ADD DUP3 DUP2 SUB DUP3 MSTORE PUSH1 0x28 DUP2 MSTORE PUSH1 0x20 ADD DUP1 PUSH2 0x5C9B PUSH1 0x28 SWAP2 CODECOPY PUSH1 0x40 ADD SWAP2 POP POP PUSH1 0x40 MLOAD DUP1 SWAP2 SUB SWAP1 REVERT JUMPDEST JUMPDEST PUSH1 0x32 DUP3 LT ISZERO PUSH2 0x3652 JUMPI PUSH1 0x40 MLOAD PUSH32 0x8C379A000000000000000000000000000000000000000000000000000000000 DUP2 MSTORE PUSH1 0x4 ADD DUP1 DUP1 PUSH1 0x20 ADD DUP3 DUP2 SUB DUP3 MSTORE PUSH1 0x27 DUP2 MSTORE PUSH1 0x20 ADD DUP1 PUSH2 0x5C34 PUSH1 0x27 SWAP2 CODECOPY PUSH1 0x40 ADD SWAP2 POP POP PUSH1 0x40 MLOAD DUP1 SWAP2 SUB SWAP1 REVERT JUMPDEST PUSH1 0x0 DUP1 PUSH1 0x0 DUP1 SWAP1 POP JUMPDEST PUSH1 0x7 PUSH1 0x0 CALLER PUSH20 0xFFFFFFFFFFFFFFFFFFFFFFFFFFFFFFFFFFFFFFFF AND PUSH20 0xFFFFFFFFFFFFFFFFFFFFFFFFFFFFFFFFFFFFFFFF AND DUP2 MSTORE PUSH1 0x20 ADD SWAP1 DUP2 MSTORE PUSH1 0x20 ADD PUSH1 0x0 KECCAK256 DUP1 SLOAD SWAP1 POP DUP2 LT ISZERO PUSH2 0x398D JUMPI PUSH2 0x36AD PUSH2 0x5B81 JUMP JUMPDEST PUSH1 0x5 PUSH1 0x7 PUSH1 0x0 CALLER PUSH20 0xFFFFFFFFFFFFFFFFFFFFFFFFFFFFFFFFFFFFFFFF AND PUSH20 0xFFFFFFFFFFFFFFFFFFFFFFFFFFFFFFFFFFFFFFFF AND DUP2 MSTORE PUSH1 0x20 ADD SWAP1 DUP2 MSTORE PUSH1 0x20 ADD PUSH1 0x0 KECCAK256 DUP4 DUP2 SLOAD DUP2 LT PUSH2 0x36F9 JUMPI INVALID JUMPDEST SWAP1 PUSH1 0x0 MSTORE PUSH1 0x20 PUSH1 0x0 KECCAK256 SWAP1 PUSH1 0x8 MUL ADD PUSH1 0x2 ADD SLOAD DUP2 SLOAD DUP2 LT PUSH2 0x3715 JUMPI INVALID JUMPDEST SWAP1 PUSH1 0x0 MSTORE PUSH1 0x20 PUSH1 0x0 KECCAK256 SWAP1 PUSH1 0x2 MUL ADD PUSH1 0x40 MLOAD DUP1 PUSH1 0x40 ADD PUSH1 0x40 MSTORE SWAP1 DUP2 PUSH1 0x0 DUP3 ADD SLOAD DUP2 MSTORE PUSH1 0x20 ADD PUSH1 0x1 DUP3 ADD SLOAD DUP2 MSTORE POP POP SWAP1 POP PUSH2 0x3750 CALLER DUP4 DUP8 DUP11 PUSH2 0x2E48 JUMP JUMPDEST DUP1 ISZERO PUSH2 0x37D3 JUMPI POP PUSH1 0x7 PUSH1 0x0 CALLER PUSH20 0xFFFFFFFFFFFFFFFFFFFFFFFFFFFFFFFFFFFFFFFF AND PUSH20 0xFFFFFFFFFFFFFFFFFFFFFFFFFFFFFFFFFFFFFFFF AND DUP2 MSTORE PUSH1 0x20 ADD SWAP1 DUP2 MSTORE PUSH1 0x20 ADD PUSH1 0x0 KECCAK256 DUP3 DUP2 SLOAD DUP2 LT PUSH2 0x37A1 JUMPI INVALID JUMPDEST SWAP1 PUSH1 0x0 MSTORE PUSH1 0x20 PUSH1 0x0 KECCAK256 SWAP1 PUSH1 0x8 MUL ADD PUSH1 0x6 ADD PUSH1 0x0 DUP9 DUP2 MSTORE PUSH1 0x20 ADD SWAP1 DUP2 MSTORE PUSH1 0x20 ADD PUSH1 0x0 KECCAK256 PUSH1 0x0 SWAP1 SLOAD SWAP1 PUSH2 0x100 EXP SWAP1 DIV PUSH1 0xFF AND ISZERO JUMPDEST ISZERO PUSH2 0x397F JUMPI PUSH1 0x1 PUSH1 0x7 PUSH1 0x0 CALLER PUSH20 0xFFFFFFFFFFFFFFFFFFFFFFFFFFFFFFFFFFFFFFFF AND PUSH20 0xFFFFFFFFFFFFFFFFFFFFFFFFFFFFFFFFFFFFFFFF AND DUP2 MSTORE PUSH1 0x20 ADD SWAP1 DUP2 MSTORE PUSH1 0x20 ADD PUSH1 0x0 KECCAK256 DUP4 DUP2 SLOAD DUP2 LT PUSH2 0x3824 JUMPI INVALID JUMPDEST SWAP1 PUSH1 0x0 MSTORE PUSH1 0x20 PUSH1 0x0 KECCAK256 SWAP1 PUSH1 0x8 MUL ADD PUSH1 0x6 ADD PUSH1 0x0 DUP10 DUP2 MSTORE PUSH1 0x20 ADD SWAP1 DUP2 MSTORE PUSH1 0x20 ADD PUSH1 0x0 KECCAK256 PUSH1 0x0 PUSH2 0x100 EXP DUP2 SLOAD DUP2 PUSH1 0xFF MUL NOT AND SWAP1 DUP4 ISZERO ISZERO MUL OR SWAP1 SSTORE POP PUSH1 0x0 PUSH2 0x38E4 PUSH1 0xF PUSH2 0x38D6 DUP5 PUSH1 0x20 ADD MLOAD PUSH1 0x7 PUSH1 0x0 CALLER PUSH20 0xFFFFFFFFFFFFFFFFFFFFFFFFFFFFFFFFFFFFFFFF AND PUSH20 0xFFFFFFFFFFFFFFFFFFFFFFFFFFFFFFFFFFFFFFFF AND DUP2 MSTORE PUSH1 0x20 ADD SWAP1 DUP2 MSTORE PUSH1 0x20 ADD PUSH1 0x0 KECCAK256 DUP8 DUP2 SLOAD DUP2 LT PUSH2 0x38B6 JUMPI INVALID JUMPDEST SWAP1 PUSH1 0x0 MSTORE PUSH1 0x20 PUSH1 0x0 KECCAK256 SWAP1 PUSH1 0x8 MUL ADD PUSH1 0x0 ADD SLOAD PUSH2 0x5B21 SWAP1 SWAP2 SWAP1 PUSH4 0xFFFFFFFF AND JUMP JUMPDEST PUSH2 0x5B5B SWAP1 SWAP2 SWAP1 PUSH4 0xFFFFFFFF AND JUMP JUMPDEST SWAP1 POP PUSH2 0x38F9 DUP2 DUP7 PUSH2 0x5B02 SWAP1 SWAP2 SWAP1 PUSH4 0xFFFFFFFF AND JUMP JUMPDEST SWAP5 POP PUSH2 0x397B PUSH2 0x396C DUP3 PUSH1 0x7 PUSH1 0x0 CALLER PUSH20 0xFFFFFFFFFFFFFFFFFFFFFFFFFFFFFFFFFFFFFFFF AND PUSH20 0xFFFFFFFFFFFFFFFFFFFFFFFFFFFFFFFFFFFFFFFF AND DUP2 MSTORE PUSH1 0x20 ADD SWAP1 DUP2 MSTORE PUSH1 0x20 ADD PUSH1 0x0 KECCAK256 DUP7 DUP2 SLOAD DUP2 LT PUSH2 0x394C JUMPI INVALID JUMPDEST SWAP1 PUSH1 0x0 MSTORE PUSH1 0x20 PUSH1 0x0 KECCAK256 SWAP1 PUSH1 0x8 MUL ADD PUSH1 0x0 ADD SLOAD PUSH2 0x5AE2 SWAP1 SWAP2 SWAP1 PUSH4 0xFFFFFFFF AND JUMP JUMPDEST DUP6 PUSH2 0x5B02 SWAP1 SWAP2 SWAP1 PUSH4 0xFFFFFFFF AND JUMP JUMPDEST SWAP4 POP POP JUMPDEST POP DUP1 DUP1 PUSH1 0x1 ADD SWAP2 POP POP PUSH2 0x365B JUMP JUMPDEST POP PUSH1 0x0 PUSH2 0x39DF PUSH1 0xA PUSH1 0x0 DUP7 DUP2 MSTORE PUSH1 0x20 ADD SWAP1 DUP2 MSTORE PUSH1 0x20 ADD PUSH1 0x0 KECCAK256 SLOAD PUSH2 0x39D1 PUSH1 0xB DUP8 DUP2 SLOAD DUP2 LT PUSH2 0x39B7 JUMPI INVALID JUMPDEST SWAP1 PUSH1 0x0 MSTORE PUSH1 0x20 PUSH1 0x0 KECCAK256 ADD SLOAD DUP7 PUSH2 0x5B21 SWAP1 SWAP2 SWAP1 PUSH4 0xFFFFFFFF AND JUMP JUMPDEST PUSH2 0x5B5B SWAP1 SWAP2 SWAP1 PUSH4 0xFFFFFFFF AND JUMP JUMPDEST SWAP1 POP PUSH1 0x0 PUSH2 0x3A09 PUSH1 0x64 PUSH2 0x39FB DUP9 DUP6 PUSH2 0x5B21 SWAP1 SWAP2 SWAP1 PUSH4 0xFFFFFFFF AND JUMP JUMPDEST PUSH2 0x5B5B SWAP1 SWAP2 SWAP1 PUSH4 0xFFFFFFFF AND JUMP JUMPDEST SWAP1 POP PUSH1 0x0 PUSH2 0x3A20 DUP3 DUP5 PUSH2 0x5AE2 SWAP1 SWAP2 SWAP1 PUSH4 0xFFFFFFFF AND JUMP JUMPDEST SWAP1 POP PUSH1 0x0 DUP2 GT ISZERO PUSH2 0x3B11 JUMPI PUSH1 0x2 PUSH1 0x0 SWAP1 SLOAD SWAP1 PUSH2 0x100 EXP SWAP1 DIV PUSH20 0xFFFFFFFFFFFFFFFFFFFFFFFFFFFFFFFFFFFFFFFF AND PUSH20 0xFFFFFFFFFFFFFFFFFFFFFFFFFFFFFFFFFFFFFFFF AND PUSH4 0xA9059CBB CALLER DUP4 PUSH1 0x40 MLOAD DUP4 PUSH4 0xFFFFFFFF AND PUSH1 0xE0 SHL DUP2 MSTORE PUSH1 0x4 ADD DUP1 DUP4 PUSH20 0xFFFFFFFFFFFFFFFFFFFFFFFFFFFFFFFFFFFFFFFF AND PUSH20 0xFFFFFFFFFFFFFFFFFFFFFFFFFFFFFFFFFFFFFFFF AND DUP2 MSTORE PUSH1 0x20 ADD DUP3 DUP2 MSTORE PUSH1 0x20 ADD SWAP3 POP POP POP PUSH1 0x20 PUSH1 0x40 MLOAD DUP1 DUP4 SUB DUP2 PUSH1 0x0 DUP8 DUP1 EXTCODESIZE ISZERO DUP1 ISZERO PUSH2 0x3AD4 JUMPI PUSH1 0x0 DUP1 REVERT JUMPDEST POP GAS CALL ISZERO DUP1 ISZERO PUSH2 0x3AE8 JUMPI RETURNDATASIZE PUSH1 0x0 DUP1 RETURNDATACOPY RETURNDATASIZE PUSH1 0x0 REVERT JUMPDEST POP POP POP POP PUSH1 0x40 MLOAD RETURNDATASIZE PUSH1 0x20 DUP2 LT ISZERO PUSH2 0x3AFE JUMPI PUSH1 0x0 DUP1 REVERT JUMPDEST DUP2 ADD SWAP1 DUP1 DUP1 MLOAD SWAP1 PUSH1 0x20 ADD SWAP1 SWAP3 SWAP2 SWAP1 POP POP POP POP JUMPDEST PUSH2 0x3B63 DUP3 PUSH1 0x9 PUSH1 0x0 CALLER PUSH20 0xFFFFFFFFFFFFFFFFFFFFFFFFFFFFFFFFFFFFFFFF AND PUSH20 0xFFFFFFFFFFFFFFFFFFFFFFFFFFFFFFFFFFFFFFFF AND DUP2 MSTORE PUSH1 0x20 ADD SWAP1 DUP2 MSTORE PUSH1 0x20 ADD PUSH1 0x0 KECCAK256 SLOAD PUSH2 0x5B02 SWAP1 SWAP2 SWAP1 PUSH4 0xFFFFFFFF AND JUMP JUMPDEST PUSH1 0x9 PUSH1 0x0 CALLER PUSH20 0xFFFFFFFFFFFFFFFFFFFFFFFFFFFFFFFFFFFFFFFF AND PUSH20 0xFFFFFFFFFFFFFFFFFFFFFFFFFFFFFFFFFFFFFFFF AND DUP2 MSTORE PUSH1 0x20 ADD SWAP1 DUP2 MSTORE PUSH1 0x20 ADD PUSH1 0x0 KECCAK256 DUP2 SWAP1 SSTORE POP POP POP POP POP POP POP POP POP JUMP JUMPDEST PUSH1 0x0 DUP1 PUSH2 0x3BBB PUSH2 0x4B3B JUMP JUMPDEST SWAP1 POP PUSH1 0x0 DUP1 PUSH1 0x0 SWAP1 POP JUMPDEST DUP5 MLOAD DUP2 LT ISZERO PUSH2 0x3C83 JUMPI PUSH2 0x3BED DUP7 DUP7 DUP4 DUP2 MLOAD DUP2 LT PUSH2 0x3BDE JUMPI INVALID JUMPDEST PUSH1 0x20 MUL PUSH1 0x20 ADD ADD MLOAD DUP6 DUP7 PUSH2 0x2E48 JUMP JUMPDEST ISZERO PUSH2 0x3C76 JUMPI PUSH2 0x3C73 PUSH1 0x7 PUSH1 0x0 DUP9 PUSH20 0xFFFFFFFFFFFFFFFFFFFFFFFFFFFFFFFFFFFFFFFF AND PUSH20 0xFFFFFFFFFFFFFFFFFFFFFFFFFFFFFFFFFFFFFFFF AND DUP2 MSTORE PUSH1 0x20 ADD SWAP1 DUP2 MSTORE PUSH1 0x20 ADD PUSH1 0x0 KECCAK256 DUP7 DUP4 DUP2 MLOAD DUP2 LT PUSH2 0x3C40 JUMPI INVALID JUMPDEST PUSH1 0x20 MUL PUSH1 0x20 ADD ADD MLOAD DUP2 SLOAD DUP2 LT PUSH2 0x3C52 JUMPI INVALID JUMPDEST SWAP1 PUSH1 0x0 MSTORE PUSH1 0x20 PUSH1 0x0 KECCAK256 SWAP1 PUSH1 0x8 MUL ADD PUSH1 0x0 ADD SLOAD DUP4 PUSH2 0x5B02 SWAP1 SWAP2 SWAP1 PUSH4 0xFFFFFFFF AND JUMP JUMPDEST SWAP2 POP JUMPDEST DUP1 DUP1 PUSH1 0x1 ADD SWAP2 POP POP PUSH2 0x3BC5 JUMP JUMPDEST POP PUSH2 0x3C98 PUSH1 0x2 DUP3 PUSH2 0x5B5B SWAP1 SWAP2 SWAP1 PUSH4 0xFFFFFFFF AND JUMP JUMPDEST SWAP3 POP POP POP SWAP3 SWAP2 POP POP JUMP JUMPDEST PUSH1 0x1 PUSH1 0x0 SWAP1 SLOAD SWAP1 PUSH2 0x100 EXP SWAP1 DIV PUSH20 0xFFFFFFFFFFFFFFFFFFFFFFFFFFFFFFFFFFFFFFFF AND PUSH20 0xFFFFFFFFFFFFFFFFFFFFFFFFFFFFFFFFFFFFFFFF AND CALLER PUSH20 0xFFFFFFFFFFFFFFFFFFFFFFFFFFFFFFFFFFFFFFFF AND EQ PUSH2 0x3D65 JUMPI PUSH1 0x40 MLOAD PUSH32 0x8C379A000000000000000000000000000000000000000000000000000000000 DUP2 MSTORE PUSH1 0x4 ADD DUP1 DUP1 PUSH1 0x20 ADD DUP3 DUP2 SUB DUP3 MSTORE PUSH1 0x16 DUP2 MSTORE PUSH1 0x20 ADD DUP1 PUSH32 0x6F6E6C79206465706C6F7965722063616E2063616C6C00000000000000000000 DUP2 MSTORE POP PUSH1 0x20 ADD SWAP2 POP POP PUSH1 0x40 MLOAD DUP1 SWAP2 SUB SWAP1 REVERT JUMPDEST PUSH1 0x5 PUSH1 0x40 MLOAD DUP1 PUSH1 0x40 ADD PUSH1 0x40 MSTORE DUP1 DUP5 DUP2 MSTORE PUSH1 0x20 ADD DUP4 DUP2 MSTORE POP SWAP1 DUP1 PUSH1 0x1 DUP2 SLOAD ADD DUP1 DUP3 SSTORE DUP1 SWAP2 POP POP SWAP1 PUSH1 0x1 DUP3 SUB SWAP1 PUSH1 0x0 MSTORE PUSH1 0x20 PUSH1 0x0 KECCAK256 SWAP1 PUSH1 0x2 MUL ADD PUSH1 0x0 SWAP1 SWAP2 SWAP3 SWAP1 SWAP2 SWAP1 SWAP2 POP PUSH1 0x0 DUP3 ADD MLOAD DUP2 PUSH1 0x0 ADD SSTORE PUSH1 0x20 DUP3 ADD MLOAD DUP2 PUSH1 0x1 ADD SSTORE POP POP POP POP POP JUMP JUMPDEST PUSH1 0x6 DUP2 DUP2 SLOAD DUP2 LT PUSH2 0x3DCF JUMPI INVALID JUMPDEST SWAP1 PUSH1 0x0 MSTORE PUSH1 0x20 PUSH1 0x0 KECCAK256 SWAP1 PUSH1 0x2 MUL ADD PUSH1 0x0 SWAP2 POP SWAP1 POP DUP1 PUSH1 0x0 ADD SLOAD SWAP1 DUP1 PUSH1 0x1 ADD SLOAD SWAP1 POP DUP3 JUMP JUMPDEST PUSH1 0x0 PUSH2 0x3DFD PUSH2 0x4B3B JUMP JUMPDEST SWAP1 POP PUSH1 0x0 DUP1 PUSH1 0x0 SWAP1 POP JUMPDEST DUP4 MLOAD DUP2 LT ISZERO PUSH2 0x4249 JUMPI PUSH2 0x3E2F CALLER DUP6 DUP4 DUP2 MLOAD DUP2 LT PUSH2 0x3E20 JUMPI INVALID JUMPDEST PUSH1 0x20 MUL PUSH1 0x20 ADD ADD MLOAD DUP6 DUP7 PUSH2 0x2E48 JUMP JUMPDEST ISZERO PUSH2 0x423C JUMPI PUSH2 0x3F66 PUSH2 0x3F57 PUSH1 0xF PUSH2 0x3F49 PUSH1 0x5 PUSH1 0x7 PUSH1 0x0 CALLER PUSH20 0xFFFFFFFFFFFFFFFFFFFFFFFFFFFFFFFFFFFFFFFF AND PUSH20 0xFFFFFFFFFFFFFFFFFFFFFFFFFFFFFFFFFFFFFFFF AND DUP2 MSTORE PUSH1 0x20 ADD SWAP1 DUP2 MSTORE PUSH1 0x20 ADD PUSH1 0x0 KECCAK256 DUP10 DUP8 DUP2 MLOAD DUP2 LT PUSH2 0x3E8C JUMPI INVALID JUMPDEST PUSH1 0x20 MUL PUSH1 0x20 ADD ADD MLOAD DUP2 SLOAD DUP2 LT PUSH2 0x3E9E JUMPI INVALID JUMPDEST SWAP1 PUSH1 0x0 MSTORE PUSH1 0x20 PUSH1 0x0 KECCAK256 SWAP1 PUSH1 0x8 MUL ADD PUSH1 0x2 ADD SLOAD DUP2 SLOAD DUP2 LT PUSH2 0x3EBA JUMPI INVALID JUMPDEST SWAP1 PUSH1 0x0 MSTORE PUSH1 0x20 PUSH1 0x0 KECCAK256 SWAP1 PUSH1 0x2 MUL ADD PUSH1 0x1 ADD SLOAD PUSH1 0x7 PUSH1 0x0 CALLER PUSH20 0xFFFFFFFFFFFFFFFFFFFFFFFFFFFFFFFFFFFFFFFF AND PUSH20 0xFFFFFFFFFFFFFFFFFFFFFFFFFFFFFFFFFFFFFFFF AND DUP2 MSTORE PUSH1 0x20 ADD SWAP1 DUP2 MSTORE PUSH1 0x20 ADD PUSH1 0x0 KECCAK256 DUP10 DUP8 DUP2 MLOAD DUP2 LT PUSH2 0x3F17 JUMPI INVALID JUMPDEST PUSH1 0x20 MUL PUSH1 0x20 ADD ADD MLOAD DUP2 SLOAD DUP2 LT PUSH2 0x3F29 JUMPI INVALID JUMPDEST SWAP1 PUSH1 0x0 MSTORE PUSH1 0x20 PUSH1 0x0 KECCAK256 SWAP1 PUSH1 0x8 MUL ADD PUSH1 0x0 ADD SLOAD PUSH2 0x5B21 SWAP1 SWAP2 SWAP1 PUSH4 0xFFFFFFFF AND JUMP JUMPDEST PUSH2 0x5B5B SWAP1 SWAP2 SWAP1 PUSH4 0xFFFFFFFF AND JUMP JUMPDEST DUP4 PUSH2 0x5B02 SWAP1 SWAP2 SWAP1 PUSH4 0xFFFFFFFF AND JUMP JUMPDEST SWAP2 POP PUSH1 0x0 PUSH2 0x4001 PUSH1 0x4 SLOAD PUSH2 0x3FF3 PUSH1 0x0 SLOAD PUSH1 0x7 PUSH1 0x0 CALLER PUSH20 0xFFFFFFFFFFFFFFFFFFFFFFFFFFFFFFFFFFFFFFFF AND PUSH20 0xFFFFFFFFFFFFFFFFFFFFFFFFFFFFFFFFFFFFFFFF AND DUP2 MSTORE PUSH1 0x20 ADD SWAP1 DUP2 MSTORE PUSH1 0x20 ADD PUSH1 0x0 KECCAK256 DUP10 DUP8 DUP2 MLOAD DUP2 LT PUSH2 0x3FC1 JUMPI INVALID JUMPDEST PUSH1 0x20 MUL PUSH1 0x20 ADD ADD MLOAD DUP2 SLOAD DUP2 LT PUSH2 0x3FD3 JUMPI INVALID JUMPDEST SWAP1 PUSH1 0x0 MSTORE PUSH1 0x20 PUSH1 0x0 KECCAK256 SWAP1 PUSH1 0x8 MUL ADD PUSH1 0x1 ADD SLOAD PUSH2 0x5AE2 SWAP1 SWAP2 SWAP1 PUSH4 0xFFFFFFFF AND JUMP JUMPDEST PUSH2 0x5B5B SWAP1 SWAP2 SWAP1 PUSH4 0xFFFFFFFF AND JUMP JUMPDEST SWAP1 POP PUSH1 0x0 PUSH1 0x5 PUSH1 0x7 PUSH1 0x0 CALLER PUSH20 0xFFFFFFFFFFFFFFFFFFFFFFFFFFFFFFFFFFFFFFFF AND PUSH20 0xFFFFFFFFFFFFFFFFFFFFFFFFFFFFFFFFFFFFFFFF AND DUP2 MSTORE PUSH1 0x20 ADD SWAP1 DUP2 MSTORE PUSH1 0x20 ADD PUSH1 0x0 KECCAK256 DUP8 DUP6 DUP2 MLOAD DUP2 LT PUSH2 0x4052 JUMPI INVALID JUMPDEST PUSH1 0x20 MUL PUSH1 0x20 ADD ADD MLOAD DUP2 SLOAD DUP2 LT PUSH2 0x4064 JUMPI INVALID JUMPDEST SWAP1 PUSH1 0x0 MSTORE PUSH1 0x20 PUSH1 0x0 KECCAK256 SWAP1 PUSH1 0x8 MUL ADD PUSH1 0x2 ADD SLOAD DUP2 SLOAD DUP2 LT PUSH2 0x4080 JUMPI INVALID JUMPDEST SWAP1 PUSH1 0x0 MSTORE PUSH1 0x20 PUSH1 0x0 KECCAK256 SWAP1 PUSH1 0x2 MUL ADD PUSH1 0x0 ADD SLOAD DUP3 ADD SWAP1 POP PUSH1 0x0 PUSH1 0x1 DUP7 ADD SWAP1 POP JUMPDEST DUP2 DUP2 GT PUSH2 0x40F0 JUMPI PUSH2 0x40CC DUP6 PUSH1 0xA PUSH1 0x0 DUP5 DUP2 MSTORE PUSH1 0x20 ADD SWAP1 DUP2 MSTORE PUSH1 0x20 ADD PUSH1 0x0 KECCAK256 SLOAD PUSH2 0x5AE2 SWAP1 SWAP2 SWAP1 PUSH4 0xFFFFFFFF AND JUMP JUMPDEST PUSH1 0xA PUSH1 0x0 DUP4 DUP2 MSTORE PUSH1 0x20 ADD SWAP1 DUP2 MSTORE PUSH1 0x20 ADD PUSH1 0x0 KECCAK256 DUP2 SWAP1 SSTORE POP DUP1 DUP1 PUSH1 0x1 ADD SWAP2 POP POP PUSH2 0x409F JUMP JUMPDEST POP PUSH1 0x0 PUSH1 0x1 SWAP1 POP JUMPDEST PUSH1 0x6 DUP10 DUP2 SLOAD DUP2 LT PUSH2 0x4105 JUMPI INVALID JUMPDEST SWAP1 PUSH1 0x0 MSTORE PUSH1 0x20 PUSH1 0x0 KECCAK256 SWAP1 PUSH1 0x2 MUL ADD PUSH1 0x0 ADD SLOAD DUP2 GT PUSH2 0x4238 JUMPI PUSH1 0x1 PUSH1 0x7 PUSH1 0x0 CALLER PUSH20 0xFFFFFFFFFFFFFFFFFFFFFFFFFFFFFFFFFFFFFFFF AND PUSH20 0xFFFFFFFFFFFFFFFFFFFFFFFFFFFFFFFFFFFFFFFF AND DUP2 MSTORE PUSH1 0x20 ADD SWAP1 DUP2 MSTORE PUSH1 0x20 ADD PUSH1 0x0 KECCAK256 DUP9 DUP7 DUP2 MLOAD DUP2 LT PUSH2 0x416A JUMPI INVALID JUMPDEST PUSH1 0x20 MUL PUSH1 0x20 ADD ADD MLOAD DUP2 SLOAD DUP2 LT PUSH2 0x417C JUMPI INVALID JUMPDEST SWAP1 PUSH1 0x0 MSTORE PUSH1 0x20 PUSH1 0x0 KECCAK256 SWAP1 PUSH1 0x8 MUL ADD PUSH1 0x6 ADD PUSH1 0x0 DUP4 DUP10 ADD DUP2 MSTORE PUSH1 0x20 ADD SWAP1 DUP2 MSTORE PUSH1 0x20 ADD PUSH1 0x0 KECCAK256 PUSH1 0x0 PUSH2 0x100 EXP DUP2 SLOAD DUP2 PUSH1 0xFF MUL NOT AND SWAP1 DUP4 ISZERO ISZERO MUL OR SWAP1 SSTORE POP PUSH1 0x2 PUSH1 0x7 PUSH1 0x0 CALLER PUSH20 0xFFFFFFFFFFFFFFFFFFFFFFFFFFFFFFFFFFFFFFFF AND PUSH20 0xFFFFFFFFFFFFFFFFFFFFFFFFFFFFFFFFFFFFFFFF AND DUP2 MSTORE PUSH1 0x20 ADD SWAP1 DUP2 MSTORE PUSH1 0x20 ADD PUSH1 0x0 KECCAK256 DUP9 DUP7 DUP2 MLOAD DUP2 LT PUSH2 0x4204 JUMPI INVALID JUMPDEST PUSH1 0x20 MUL PUSH1 0x20 ADD ADD MLOAD DUP2 SLOAD DUP2 LT PUSH2 0x4216 JUMPI INVALID JUMPDEST SWAP1 PUSH1 0x0 MSTORE PUSH1 0x20 PUSH1 0x0 KECCAK256 SWAP1 PUSH1 0x8 MUL ADD PUSH1 0x3 ADD DUP2 SWAP1 SSTORE POP DUP1 DUP1 PUSH1 0x1 ADD SWAP2 POP POP PUSH2 0x40F8 JUMP JUMPDEST POP POP POP JUMPDEST DUP1 DUP1 PUSH1 0x1 ADD SWAP2 POP POP PUSH2 0x3E07 JUMP JUMPDEST POP PUSH1 0x0 PUSH2 0x4260 PUSH1 0x2 DUP4 PUSH2 0x5B5B SWAP1 SWAP2 SWAP1 PUSH4 0xFFFFFFFF AND JUMP JUMPDEST SWAP1 POP DUP1 DUP6 GT ISZERO PUSH2 0x42C2 JUMPI PUSH1 0x0 PUSH2 0x42C1 JUMPI PUSH1 0x40 MLOAD PUSH32 0x8C379A000000000000000000000000000000000000000000000000000000000 DUP2 MSTORE PUSH1 0x4 ADD DUP1 DUP1 PUSH1 0x20 ADD DUP3 DUP2 SUB DUP3 MSTORE PUSH1 0x26 DUP2 MSTORE PUSH1 0x20 ADD DUP1 PUSH2 0x5C0E PUSH1 0x26 SWAP2 CODECOPY PUSH1 0x40 ADD SWAP2 POP POP PUSH1 0x40 MLOAD DUP1 SWAP2 SUB SWAP1 REVERT JUMPDEST JUMPDEST PUSH1 0x0 PUSH2 0x4308 PUSH1 0x64 PUSH2 0x42FA PUSH1 0x6 DUP11 DUP2 SLOAD DUP2 LT PUSH2 0x42D9 JUMPI INVALID JUMPDEST SWAP1 PUSH1 0x0 MSTORE PUSH1 0x20 PUSH1 0x0 KECCAK256 SWAP1 PUSH1 0x2 MUL ADD PUSH1 0x1 ADD SLOAD DUP10 PUSH2 0x5B21 SWAP1 SWAP2 SWAP1 PUSH4 0xFFFFFFFF AND JUMP JUMPDEST PUSH2 0x5B5B SWAP1 SWAP2 SWAP1 PUSH4 0xFFFFFFFF AND JUMP JUMPDEST SWAP1 POP PUSH1 0x0 PUSH2 0x431F DUP3 DUP9 PUSH2 0x5AE2 SWAP1 SWAP2 SWAP1 PUSH4 0xFFFFFFFF AND JUMP JUMPDEST SWAP1 POP PUSH1 0x2 PUSH1 0x0 SWAP1 SLOAD SWAP1 PUSH2 0x100 EXP SWAP1 DIV PUSH20 0xFFFFFFFFFFFFFFFFFFFFFFFFFFFFFFFFFFFFFFFF AND PUSH20 0xFFFFFFFFFFFFFFFFFFFFFFFFFFFFFFFFFFFFFFFF AND PUSH4 0xA9059CBB PUSH1 0x3 PUSH1 0x0 SWAP1 SLOAD SWAP1 PUSH2 0x100 EXP SWAP1 DIV PUSH20 0xFFFFFFFFFFFFFFFFFFFFFFFFFFFFFFFFFFFFFFFF AND DUP5 PUSH1 0x40 MLOAD DUP4 PUSH4 0xFFFFFFFF AND PUSH1 0xE0 SHL DUP2 MSTORE PUSH1 0x4 ADD DUP1 DUP4 PUSH20 0xFFFFFFFFFFFFFFFFFFFFFFFFFFFFFFFFFFFFFFFF AND PUSH20 0xFFFFFFFFFFFFFFFFFFFFFFFFFFFFFFFFFFFFFFFF AND DUP2 MSTORE PUSH1 0x20 ADD DUP3 DUP2 MSTORE PUSH1 0x20 ADD SWAP3 POP POP POP PUSH1 0x20 PUSH1 0x40 MLOAD DUP1 DUP4 SUB DUP2 PUSH1 0x0 DUP8 DUP1 EXTCODESIZE ISZERO DUP1 ISZERO PUSH2 0x43EC JUMPI PUSH1 0x0 DUP1 REVERT JUMPDEST POP GAS CALL ISZERO DUP1 ISZERO PUSH2 0x4400 JUMPI RETURNDATASIZE PUSH1 0x0 DUP1 RETURNDATACOPY RETURNDATASIZE PUSH1 0x0 REVERT JUMPDEST POP POP POP POP PUSH1 0x40 MLOAD RETURNDATASIZE PUSH1 0x20 DUP2 LT ISZERO PUSH2 0x4416 JUMPI PUSH1 0x0 DUP1 REVERT JUMPDEST DUP2 ADD SWAP1 DUP1 DUP1 MLOAD SWAP1 PUSH1 0x20 ADD SWAP1 SWAP3 SWAP2 SWAP1 POP POP POP PUSH2 0x4430 JUMPI PUSH1 0x0 DUP1 REVERT JUMPDEST PUSH1 0x3 PUSH1 0x0 SWAP1 SLOAD SWAP1 PUSH2 0x100 EXP SWAP1 DIV PUSH20 0xFFFFFFFFFFFFFFFFFFFFFFFFFFFFFFFFFFFFFFFF AND PUSH20 0xFFFFFFFFFFFFFFFFFFFFFFFFFFFFFFFFFFFFFFFF AND PUSH4 0x382E2AAB DUP4 PUSH1 0x40 MLOAD DUP3 PUSH4 0xFFFFFFFF AND PUSH1 0xE0 SHL DUP2 MSTORE PUSH1 0x4 ADD DUP1 DUP3 DUP2 MSTORE PUSH1 0x20 ADD SWAP2 POP POP PUSH1 0x20 PUSH1 0x40 MLOAD DUP1 DUP4 SUB DUP2 PUSH1 0x0 DUP8 DUP1 EXTCODESIZE ISZERO DUP1 ISZERO PUSH2 0x44A5 JUMPI PUSH1 0x0 DUP1 REVERT JUMPDEST POP GAS CALL ISZERO DUP1 ISZERO PUSH2 0x44B9 JUMPI RETURNDATASIZE PUSH1 0x0 DUP1 RETURNDATACOPY RETURNDATASIZE PUSH1 0x0 REVERT JUMPDEST POP POP POP POP PUSH1 0x40 MLOAD RETURNDATASIZE PUSH1 0x20 DUP2 LT ISZERO PUSH2 0x44CF JUMPI PUSH1 0x0 DUP1 REVERT JUMPDEST DUP2 ADD SWAP1 DUP1 DUP1 MLOAD SWAP1 PUSH1 0x20 ADD SWAP1 SWAP3 SWAP2 SWAP1 POP POP POP PUSH2 0x44E9 JUMPI PUSH1 0x0 DUP1 REVERT JUMPDEST PUSH1 0x8 PUSH1 0x0 CALLER PUSH20 0xFFFFFFFFFFFFFFFFFFFFFFFFFFFFFFFFFFFFFFFF AND PUSH20 0xFFFFFFFFFFFFFFFFFFFFFFFFFFFFFFFFFFFFFFFF AND DUP2 MSTORE PUSH1 0x20 ADD SWAP1 DUP2 MSTORE PUSH1 0x20 ADD PUSH1 0x0 KECCAK256 PUSH1 0x40 MLOAD DUP1 PUSH1 0xA0 ADD PUSH1 0x40 MSTORE DUP1 DUP10 DUP2 MSTORE PUSH1 0x20 ADD PUSH1 0x2 PUSH1 0x0 SWAP1 SLOAD SWAP1 PUSH2 0x100 EXP SWAP1 DIV PUSH20 0xFFFFFFFFFFFFFFFFFFFFFFFFFFFFFFFFFFFFFFFF AND PUSH20 0xFFFFFFFFFFFFFFFFFFFFFFFFFFFFFFFFFFFFFFFF AND PUSH4 0xB81F90F3 PUSH1 0x40 MLOAD DUP2 PUSH4 0xFFFFFFFF AND PUSH1 0xE0 SHL DUP2 MSTORE PUSH1 0x4 ADD PUSH1 0x20 PUSH1 0x40 MLOAD DUP1 DUP4 SUB DUP2 DUP7 DUP1 EXTCODESIZE ISZERO DUP1 ISZERO PUSH2 0x45A1 JUMPI PUSH1 0x0 DUP1 REVERT JUMPDEST POP GAS STATICCALL ISZERO DUP1 ISZERO PUSH2 0x45B5 JUMPI RETURNDATASIZE PUSH1 0x0 DUP1 RETURNDATACOPY RETURNDATASIZE PUSH1 0x0 REVERT JUMPDEST POP POP POP POP PUSH1 0x40 MLOAD RETURNDATASIZE PUSH1 0x20 DUP2 LT ISZERO PUSH2 0x45CB JUMPI PUSH1 0x0 DUP1 REVERT JUMPDEST DUP2 ADD SWAP1 DUP1 DUP1 MLOAD SWAP1 PUSH1 0x20 ADD SWAP1 SWAP3 SWAP2 SWAP1 POP POP POP DUP2 MSTORE PUSH1 0x20 ADD DUP11 DUP2 MSTORE PUSH1 0x20 ADD PUSH1 0x1 DUP2 MSTORE PUSH1 0x20 ADD DUP9 DUP2 MSTORE POP SWAP1 DUP1 PUSH1 0x1 DUP2 SLOAD ADD DUP1 DUP3 SSTORE DUP1 SWAP2 POP POP SWAP1 PUSH1 0x1 DUP3 SUB SWAP1 PUSH1 0x0 MSTORE PUSH1 0x20 PUSH1 0x0 KECCAK256 SWAP1 PUSH1 0x5 MUL ADD PUSH1 0x0 SWAP1 SWAP2 SWAP3 SWAP1 SWAP2 SWAP1 SWAP2 POP PUSH1 0x0 DUP3 ADD MLOAD DUP2 PUSH1 0x0 ADD SSTORE PUSH1 0x20 DUP3 ADD MLOAD DUP2 PUSH1 0x1 ADD SSTORE PUSH1 0x40 DUP3 ADD MLOAD DUP2 PUSH1 0x2 ADD SSTORE PUSH1 0x60 DUP3 ADD MLOAD DUP2 PUSH1 0x3 ADD SSTORE PUSH1 0x80 DUP3 ADD MLOAD DUP2 PUSH1 0x4 ADD SWAP1 DUP1 MLOAD SWAP1 PUSH1 0x20 ADD SWAP1 PUSH2 0x4661 SWAP3 SWAP2 SWAP1 PUSH2 0x5B9B JUMP JUMPDEST POP POP POP POP PUSH1 0x2 PUSH1 0x0 SWAP1 SLOAD SWAP1 PUSH2 0x100 EXP SWAP1 DIV PUSH20 0xFFFFFFFFFFFFFFFFFFFFFFFFFFFFFFFFFFFFFFFF AND PUSH20 0xFFFFFFFFFFFFFFFFFFFFFFFFFFFFFFFFFFFFFFFF AND PUSH4 0xA9059CBB CALLER DUP4 PUSH1 0x40 MLOAD DUP4 PUSH4 0xFFFFFFFF AND PUSH1 0xE0 SHL DUP2 MSTORE PUSH1 0x4 ADD DUP1 DUP4 PUSH20 0xFFFFFFFFFFFFFFFFFFFFFFFFFFFFFFFFFFFFFFFF AND PUSH20 0xFFFFFFFFFFFFFFFFFFFFFFFFFFFFFFFFFFFFFFFF AND DUP2 MSTORE PUSH1 0x20 ADD DUP3 DUP2 MSTORE PUSH1 0x20 ADD SWAP3 POP POP POP PUSH1 0x20 PUSH1 0x40 MLOAD DUP1 DUP4 SUB DUP2 PUSH1 0x0 DUP8 DUP1 EXTCODESIZE ISZERO DUP1 ISZERO PUSH2 0x470E JUMPI PUSH1 0x0 DUP1 REVERT JUMPDEST POP GAS CALL ISZERO DUP1 ISZERO PUSH2 0x4722 JUMPI RETURNDATASIZE PUSH1 0x0 DUP1 RETURNDATACOPY RETURNDATASIZE PUSH1 0x0 REVERT JUMPDEST POP POP POP POP PUSH1 0x40 MLOAD RETURNDATASIZE PUSH1 0x20 DUP2 LT ISZERO PUSH2 0x4738 JUMPI PUSH1 0x0 DUP1 REVERT JUMPDEST DUP2 ADD SWAP1 DUP1 DUP1 MLOAD SWAP1 PUSH1 0x20 ADD SWAP1 SWAP3 SWAP2 SWAP1 POP POP POP PUSH2 0x4752 JUMPI PUSH1 0x0 DUP1 REVERT JUMPDEST DUP8 CALLER PUSH20 0xFFFFFFFFFFFFFFFFFFFFFFFFFFFFFFFFFFFFFFFF AND PUSH32 0x583F4A449110798C282200EA42774808B8147FA4BCB89A6CA406DD0650E034E7 DUP10 DUP6 PUSH1 0x1 PUSH1 0x8 PUSH1 0x0 CALLER PUSH20 0xFFFFFFFFFFFFFFFFFFFFFFFFFFFFFFFFFFFFFFFF AND PUSH20 0xFFFFFFFFFFFFFFFFFFFFFFFFFFFFFFFFFFFFFFFF AND DUP2 MSTORE PUSH1 0x20 ADD SWAP1 DUP2 MSTORE PUSH1 0x20 ADD PUSH1 0x0 KECCAK256 DUP1 SLOAD SWAP1 POP SUB PUSH1 0x40 MLOAD DUP1 DUP5 DUP2 MSTORE PUSH1 0x20 ADD DUP4 DUP2 MSTORE PUSH1 0x20 ADD DUP3 DUP2 MSTORE PUSH1 0x20 ADD SWAP4 POP POP POP POP PUSH1 0x40 MLOAD DUP1 SWAP2 SUB SWAP1 LOG3 POP POP POP POP POP POP POP POP JUMP JUMPDEST PUSH1 0x0 PUSH1 0x9 PUSH1 0x0 CALLER PUSH20 0xFFFFFFFFFFFFFFFFFFFFFFFFFFFFFFFFFFFFFFFF AND PUSH20 0xFFFFFFFFFFFFFFFFFFFFFFFFFFFFFFFFFFFFFFFF AND DUP2 MSTORE PUSH1 0x20 ADD SWAP1 DUP2 MSTORE PUSH1 0x20 ADD PUSH1 0x0 KECCAK256 SLOAD GT PUSH2 0x484C JUMPI PUSH1 0x0 DUP1 REVERT JUMPDEST PUSH1 0x0 PUSH1 0x9 PUSH1 0x0 CALLER PUSH20 0xFFFFFFFFFFFFFFFFFFFFFFFFFFFFFFFFFFFFFFFF AND PUSH20 0xFFFFFFFFFFFFFFFFFFFFFFFFFFFFFFFFFFFFFFFF AND DUP2 MSTORE PUSH1 0x20 ADD SWAP1 DUP2 MSTORE PUSH1 0x20 ADD PUSH1 0x0 KECCAK256 SLOAD SWAP1 POP PUSH1 0x0 PUSH1 0x9 PUSH1 0x0 CALLER PUSH20 0xFFFFFFFFFFFFFFFFFFFFFFFFFFFFFFFFFFFFFFFF AND PUSH20 0xFFFFFFFFFFFFFFFFFFFFFFFFFFFFFFFFFFFFFFFF AND DUP2 MSTORE PUSH1 0x20 ADD SWAP1 DUP2 MSTORE PUSH1 0x20 ADD PUSH1 0x0 KECCAK256 DUP2 SWAP1 SSTORE POP PUSH1 0x0 PUSH1 0x5 DUP4 DUP2 SLOAD DUP2 LT PUSH2 0x48E4 JUMPI INVALID JUMPDEST SWAP1 PUSH1 0x0 MSTORE PUSH1 0x20 PUSH1 0x0 KECCAK256 SWAP1 PUSH1 0x2 MUL ADD PUSH1 0x0 ADD SLOAD PUSH1 0x1 PUSH2 0x4900 PUSH2 0x4B3B JUMP JUMPDEST ADD ADD SWAP1 POP PUSH1 0x0 PUSH1 0x1 PUSH2 0x4910 PUSH2 0x4B3B JUMP JUMPDEST ADD SWAP1 POP JUMPDEST DUP2 DUP2 LT ISZERO PUSH2 0x4956 JUMPI DUP3 PUSH1 0xA PUSH1 0x0 DUP4 DUP2 MSTORE PUSH1 0x20 ADD SWAP1 DUP2 MSTORE PUSH1 0x20 ADD PUSH1 0x0 KECCAK256 SLOAD ADD PUSH1 0xA PUSH1 0x0 DUP4 DUP2 MSTORE PUSH1 0x20 ADD SWAP1 DUP2 MSTORE PUSH1 0x20 ADD PUSH1 0x0 KECCAK256 DUP2 SWAP1 SSTORE POP DUP1 DUP1 PUSH1 0x1 ADD SWAP2 POP POP PUSH2 0x4914 JUMP JUMPDEST POP PUSH1 0x0 PUSH1 0x7 PUSH1 0x0 CALLER PUSH20 0xFFFFFFFFFFFFFFFFFFFFFFFFFFFFFFFFFFFFFFFF AND PUSH20 0xFFFFFFFFFFFFFFFFFFFFFFFFFFFFFFFFFFFFFFFF AND DUP2 MSTORE PUSH1 0x20 ADD SWAP1 DUP2 MSTORE PUSH1 0x20 ADD PUSH1 0x0 KECCAK256 SWAP1 POP DUP1 PUSH1 0x40 MLOAD DUP1 PUSH1 0xC0 ADD PUSH1 0x40 MSTORE DUP1 DUP6 DUP2 MSTORE PUSH1 0x20 ADD PUSH1 0x2 PUSH1 0x0 SWAP1 SLOAD SWAP1 PUSH2 0x100 EXP SWAP1 DIV PUSH20 0xFFFFFFFFFFFFFFFFFFFFFFFFFFFFFFFFFFFFFFFF AND PUSH20 0xFFFFFFFFFFFFFFFFFFFFFFFFFFFFFFFFFFFFFFFF AND PUSH4 0xB81F90F3 PUSH1 0x40 MLOAD DUP2 PUSH4 0xFFFFFFFF AND PUSH1 0xE0 SHL DUP2 MSTORE PUSH1 0x4 ADD PUSH1 0x20 PUSH1 0x40 MLOAD DUP1 DUP4 SUB DUP2 DUP7 DUP1 EXTCODESIZE ISZERO DUP1 ISZERO PUSH2 0x4A14 JUMPI PUSH1 0x0 DUP1 REVERT JUMPDEST POP GAS STATICCALL ISZERO DUP1 ISZERO PUSH2 0x4A28 JUMPI RETURNDATASIZE PUSH1 0x0 DUP1 RETURNDATACOPY RETURNDATASIZE PUSH1 0x0 REVERT JUMPDEST POP POP POP POP PUSH1 0x40 MLOAD RETURNDATASIZE PUSH1 0x20 DUP2 LT ISZERO PUSH2 0x4A3E JUMPI PUSH1 0x0 DUP1 REVERT JUMPDEST DUP2 ADD SWAP1 DUP1 DUP1 MLOAD SWAP1 PUSH1 0x20 ADD SWAP1 SWAP3 SWAP2 SWAP1 POP POP POP DUP2 MSTORE PUSH1 0x20 ADD DUP7 DUP2 MSTORE PUSH1 0x20 ADD PUSH1 0x1 DUP2 MSTORE PUSH1 0x20 ADD PUSH1 0x0 DUP2 MSTORE PUSH1 0x20 ADD PUSH1 0x0 DUP2 MSTORE POP SWAP1 DUP1 PUSH1 0x1 DUP2 SLOAD ADD DUP1 DUP3 SSTORE DUP1 SWAP2 POP POP SWAP1 PUSH1 0x1 DUP3 SUB SWAP1 PUSH1 0x0 MSTORE PUSH1 0x20 PUSH1 0x0 KECCAK256 SWAP1 PUSH1 0x8 MUL ADD PUSH1 0x0 SWAP1 SWAP2 SWAP3 SWAP1 SWAP2 SWAP1 SWAP2 POP PUSH1 0x0 DUP3 ADD MLOAD DUP2 PUSH1 0x0 ADD SSTORE PUSH1 0x20 DUP3 ADD MLOAD DUP2 PUSH1 0x1 ADD SSTORE PUSH1 0x40 DUP3 ADD MLOAD DUP2 PUSH1 0x2 ADD SSTORE PUSH1 0x60 DUP3 ADD MLOAD DUP2 PUSH1 0x3 ADD SSTORE PUSH1 0x80 DUP3 ADD MLOAD DUP2 PUSH1 0x4 ADD SSTORE PUSH1 0xA0 DUP3 ADD MLOAD DUP2 PUSH1 0x5 ADD SSTORE POP POP POP DUP4 CALLER PUSH20 0xFFFFFFFFFFFFFFFFFFFFFFFFFFFFFFFFFFFFFFFF AND PUSH32 0x680A0E2E97AD7C29DA7985E37B699F19857C055166F801E50D90661EAE30FCC3 DUP6 PUSH1 0x1 DUP6 DUP1 SLOAD SWAP1 POP SUB PUSH1 0x40 MLOAD DUP1 DUP4 DUP2 MSTORE PUSH1 0x20 ADD DUP3 DUP2 MSTORE PUSH1 0x20 ADD SWAP3 POP POP POP PUSH1 0x40 MLOAD DUP1 SWAP2 SUB SWAP1 LOG3 POP POP POP POP JUMP JUMPDEST PUSH1 0x0 PUSH1 0x1 PUSH1 0xB DUP1 SLOAD SWAP1 POP SUB SWAP1 POP SWAP1 JUMP JUMPDEST PUSH1 0x1 PUSH1 0x8 PUSH1 0x0 CALLER PUSH20 0xFFFFFFFFFFFFFFFFFFFFFFFFFFFFFFFFFFFFFFFF AND PUSH20 0xFFFFFFFFFFFFFFFFFFFFFFFFFFFFFFFFFFFFFFFF AND DUP2 MSTORE PUSH1 0x20 ADD SWAP1 DUP2 MSTORE PUSH1 0x20 ADD PUSH1 0x0 KECCAK256 DUP3 DUP2 SLOAD DUP2 LT PUSH2 0x4B97 JUMPI INVALID JUMPDEST SWAP1 PUSH1 0x0 MSTORE PUSH1 0x20 PUSH1 0x0 KECCAK256 SWAP1 PUSH1 0x5 MUL ADD PUSH1 0x3 ADD SLOAD EQ PUSH2 0x4C1C JUMPI PUSH1 0x40 MLOAD PUSH32 0x8C379A000000000000000000000000000000000000000000000000000000000 DUP2 MSTORE PUSH1 0x4 ADD DUP1 DUP1 PUSH1 0x20 ADD DUP3 DUP2 SUB DUP3 MSTORE PUSH1 0x1C DUP2 MSTORE PUSH1 0x20 ADD DUP1 PUSH32 0x63616E206F6E6C792072657061792070656E64696E67206C6F616E7300000000 DUP2 MSTORE POP PUSH1 0x20 ADD SWAP2 POP POP PUSH1 0x40 MLOAD DUP1 SWAP2 SUB SWAP1 REVERT JUMPDEST PUSH1 0x2 PUSH1 0x0 SWAP1 SLOAD SWAP1 PUSH2 0x100 EXP SWAP1 DIV PUSH20 0xFFFFFFFFFFFFFFFFFFFFFFFFFFFFFFFFFFFFFFFF AND PUSH20 0xFFFFFFFFFFFFFFFFFFFFFFFFFFFFFFFFFFFFFFFF AND PUSH4 0x23B872DD CALLER ADDRESS PUSH1 0x8 PUSH1 0x0 CALLER PUSH20 0xFFFFFFFFFFFFFFFFFFFFFFFFFFFFFFFFFFFFFFFF AND PUSH20 0xFFFFFFFFFFFFFFFFFFFFFFFFFFFFFFFFFFFFFFFF AND DUP2 MSTORE PUSH1 0x20 ADD SWAP1 DUP2 MSTORE PUSH1 0x20 ADD PUSH1 0x0 KECCAK256 DUP6 DUP2 SLOAD DUP2 LT PUSH2 0x4CA6 JUMPI INVALID JUMPDEST SWAP1 PUSH1 0x0 MSTORE PUSH1 0x20 PUSH1 0x0 KECCAK256 SWAP1 PUSH1 0x5 MUL ADD PUSH1 0x0 ADD SLOAD PUSH1 0x40 MLOAD DUP5 PUSH4 0xFFFFFFFF AND PUSH1 0xE0 SHL DUP2 MSTORE PUSH1 0x4 ADD DUP1 DUP5 PUSH20 0xFFFFFFFFFFFFFFFFFFFFFFFFFFFFFFFFFFFFFFFF AND PUSH20 0xFFFFFFFFFFFFFFFFFFFFFFFFFFFFFFFFFFFFFFFF AND DUP2 MSTORE PUSH1 0x20 ADD DUP4 PUSH20 0xFFFFFFFFFFFFFFFFFFFFFFFFFFFFFFFFFFFFFFFF AND PUSH20 0xFFFFFFFFFFFFFFFFFFFFFFFFFFFFFFFFFFFFFFFF AND DUP2 MSTORE PUSH1 0x20 ADD DUP3 DUP2 MSTORE PUSH1 0x20 ADD SWAP4 POP POP POP POP PUSH1 0x20 PUSH1 0x40 MLOAD DUP1 DUP4 SUB DUP2 PUSH1 0x0 DUP8 DUP1 EXTCODESIZE ISZERO DUP1 ISZERO PUSH2 0x4D54 JUMPI PUSH1 0x0 DUP1 REVERT JUMPDEST POP GAS CALL ISZERO DUP1 ISZERO PUSH2 0x4D68 JUMPI RETURNDATASIZE PUSH1 0x0 DUP1 RETURNDATACOPY RETURNDATASIZE PUSH1 0x0 REVERT JUMPDEST POP POP POP POP PUSH1 0x40 MLOAD RETURNDATASIZE PUSH1 0x20 DUP2 LT ISZERO PUSH2 0x4D7E JUMPI PUSH1 0x0 DUP1 REVERT JUMPDEST DUP2 ADD SWAP1 DUP1 DUP1 MLOAD SWAP1 PUSH1 0x20 ADD SWAP1 SWAP3 SWAP2 SWAP1 POP POP POP PUSH2 0x4DE4 JUMPI PUSH1 0x40 MLOAD PUSH32 0x8C379A000000000000000000000000000000000000000000000000000000000 DUP2 MSTORE PUSH1 0x4 ADD DUP1 DUP1 PUSH1 0x20 ADD DUP3 DUP2 SUB DUP3 MSTORE PUSH1 0x40 DUP2 MSTORE PUSH1 0x20 ADD DUP1 PUSH2 0x5C5B PUSH1 0x40 SWAP2 CODECOPY PUSH1 0x40 ADD SWAP2 POP POP PUSH1 0x40 MLOAD DUP1 SWAP2 SUB SWAP1 REVERT JUMPDEST PUSH1 0x2 PUSH1 0x8 PUSH1 0x0 CALLER PUSH20 0xFFFFFFFFFFFFFFFFFFFFFFFFFFFFFFFFFFFFFFFF AND PUSH20 0xFFFFFFFFFFFFFFFFFFFFFFFFFFFFFFFFFFFFFFFF AND DUP2 MSTORE PUSH1 0x20 ADD SWAP1 DUP2 MSTORE PUSH1 0x20 ADD PUSH1 0x0 KECCAK256 DUP3 DUP2 SLOAD DUP2 LT PUSH2 0x4E30 JUMPI INVALID JUMPDEST SWAP1 PUSH1 0x0 MSTORE PUSH1 0x20 PUSH1 0x0 KECCAK256 SWAP1 PUSH1 0x5 MUL ADD PUSH1 0x3 ADD DUP2 SWAP1 SSTORE POP PUSH1 0x0 DUP1 SWAP1 POP JUMPDEST PUSH1 0x8 PUSH1 0x0 CALLER PUSH20 0xFFFFFFFFFFFFFFFFFFFFFFFFFFFFFFFFFFFFFFFF AND PUSH20 0xFFFFFFFFFFFFFFFFFFFFFFFFFFFFFFFFFFFFFFFF AND DUP2 MSTORE PUSH1 0x20 ADD SWAP1 DUP2 MSTORE PUSH1 0x20 ADD PUSH1 0x0 KECCAK256 DUP3 DUP2 SLOAD DUP2 LT PUSH2 0x4E95 JUMPI INVALID JUMPDEST SWAP1 PUSH1 0x0 MSTORE PUSH1 0x20 PUSH1 0x0 KECCAK256 SWAP1 PUSH1 0x5 MUL ADD PUSH1 0x4 ADD DUP1 SLOAD SWAP1 POP DUP2 LT ISZERO PUSH2 0x51E1 JUMPI PUSH1 0x0 PUSH1 0x8 PUSH1 0x0 CALLER PUSH20 0xFFFFFFFFFFFFFFFFFFFFFFFFFFFFFFFFFFFFFFFF AND PUSH20 0xFFFFFFFFFFFFFFFFFFFFFFFFFFFFFFFFFFFFFFFF AND DUP2 MSTORE PUSH1 0x20 ADD SWAP1 DUP2 MSTORE PUSH1 0x20 ADD PUSH1 0x0 KECCAK256 DUP4 DUP2 SLOAD DUP2 LT PUSH2 0x4EFD JUMPI INVALID JUMPDEST SWAP1 PUSH1 0x0 MSTORE PUSH1 0x20 PUSH1 0x0 KECCAK256 SWAP1 PUSH1 0x5 MUL ADD PUSH1 0x4 ADD DUP3 DUP2 SLOAD DUP2 LT PUSH2 0x4F19 JUMPI INVALID JUMPDEST SWAP1 PUSH1 0x0 MSTORE PUSH1 0x20 PUSH1 0x0 KECCAK256 ADD SLOAD SWAP1 POP PUSH1 0x1 PUSH1 0x7 PUSH1 0x0 CALLER PUSH20 0xFFFFFFFFFFFFFFFFFFFFFFFFFFFFFFFFFFFFFFFF AND PUSH20 0xFFFFFFFFFFFFFFFFFFFFFFFFFFFFFFFFFFFFFFFF AND DUP2 MSTORE PUSH1 0x20 ADD SWAP1 DUP2 MSTORE PUSH1 0x20 ADD PUSH1 0x0 KECCAK256 DUP3 DUP2 SLOAD DUP2 LT PUSH2 0x4F72 JUMPI INVALID JUMPDEST SWAP1 PUSH1 0x0 MSTORE PUSH1 0x20 PUSH1 0x0 KECCAK256 SWAP1 PUSH1 0x8 MUL ADD PUSH1 0x3 ADD DUP2 SWAP1 SSTORE POP PUSH1 0x0 PUSH2 0x500D PUSH1 0x4 SLOAD PUSH2 0x4FFF PUSH1 0x0 SLOAD PUSH1 0x7 PUSH1 0x0 CALLER PUSH20 0xFFFFFFFFFFFFFFFFFFFFFFFFFFFFFFFFFFFFFFFF AND PUSH20 0xFFFFFFFFFFFFFFFFFFFFFFFFFFFFFFFFFFFFFFFF AND DUP2 MSTORE PUSH1 0x20 ADD SWAP1 DUP2 MSTORE PUSH1 0x20 ADD PUSH1 0x0 KECCAK256 DUP7 DUP2 SLOAD DUP2 LT PUSH2 0x4FDF JUMPI INVALID JUMPDEST SWAP1 PUSH1 0x0 MSTORE PUSH1 0x20 PUSH1 0x0 KECCAK256 SWAP1 PUSH1 0x8 MUL ADD PUSH1 0x1 ADD SLOAD PUSH2 0x5AE2 SWAP1 SWAP2 SWAP1 PUSH4 0xFFFFFFFF AND JUMP JUMPDEST PUSH2 0x5B5B SWAP1 SWAP2 SWAP1 PUSH4 0xFFFFFFFF AND JUMP JUMPDEST SWAP1 POP PUSH1 0x0 PUSH1 0x5 PUSH1 0x7 PUSH1 0x0 CALLER PUSH20 0xFFFFFFFFFFFFFFFFFFFFFFFFFFFFFFFFFFFFFFFF AND PUSH20 0xFFFFFFFFFFFFFFFFFFFFFFFFFFFFFFFFFFFFFFFF AND DUP2 MSTORE PUSH1 0x20 ADD SWAP1 DUP2 MSTORE PUSH1 0x20 ADD PUSH1 0x0 KECCAK256 DUP5 DUP2 SLOAD DUP2 LT PUSH2 0x505D JUMPI INVALID JUMPDEST SWAP1 PUSH1 0x0 MSTORE PUSH1 0x20 PUSH1 0x0 KECCAK256 SWAP1 PUSH1 0x8 MUL ADD PUSH1 0x2 ADD SLOAD DUP2 SLOAD DUP2 LT PUSH2 0x5079 JUMPI INVALID JUMPDEST SWAP1 PUSH1 0x0 MSTORE PUSH1 0x20 PUSH1 0x0 KECCAK256 SWAP1 PUSH1 0x2 MUL ADD PUSH1 0x0 ADD SLOAD DUP3 ADD SWAP1 POP PUSH1 0x0 PUSH1 0x1 PUSH2 0x509B PUSH2 0x4B3B JUMP JUMPDEST ADD SWAP1 POP JUMPDEST DUP2 DUP2 GT PUSH2 0x51D0 JUMPI PUSH1 0x0 PUSH1 0x7 PUSH1 0x0 CALLER PUSH20 0xFFFFFFFFFFFFFFFFFFFFFFFFFFFFFFFFFFFFFFFF AND PUSH20 0xFFFFFFFFFFFFFFFFFFFFFFFFFFFFFFFFFFFFFFFF AND DUP2 MSTORE PUSH1 0x20 ADD SWAP1 DUP2 MSTORE PUSH1 0x20 ADD PUSH1 0x0 KECCAK256 DUP6 DUP2 SLOAD DUP2 LT PUSH2 0x50F2 JUMPI INVALID JUMPDEST SWAP1 PUSH1 0x0 MSTORE PUSH1 0x20 PUSH1 0x0 KECCAK256 SWAP1 PUSH1 0x8 MUL ADD PUSH1 0x6 ADD PUSH1 0x0 DUP8 DUP2 MSTORE PUSH1 0x20 ADD SWAP1 DUP2 MSTORE PUSH1 0x20 ADD PUSH1 0x0 KECCAK256 PUSH1 0x0 PUSH2 0x100 EXP DUP2 SLOAD DUP2 PUSH1 0xFF MUL NOT AND SWAP1 DUP4 ISZERO ISZERO MUL OR SWAP1 SSTORE POP PUSH2 0x51AC PUSH1 0x7 PUSH1 0x0 CALLER PUSH20 0xFFFFFFFFFFFFFFFFFFFFFFFFFFFFFFFFFFFFFFFF AND PUSH20 0xFFFFFFFFFFFFFFFFFFFFFFFFFFFFFFFFFFFFFFFF AND DUP2 MSTORE PUSH1 0x20 ADD SWAP1 DUP2 MSTORE PUSH1 0x20 ADD PUSH1 0x0 KECCAK256 DUP6 DUP2 SLOAD DUP2 LT PUSH2 0x5178 JUMPI INVALID JUMPDEST SWAP1 PUSH1 0x0 MSTORE PUSH1 0x20 PUSH1 0x0 KECCAK256 SWAP1 PUSH1 0x8 MUL ADD PUSH1 0x0 ADD SLOAD PUSH1 0xA PUSH1 0x0 DUP5 DUP2 MSTORE PUSH1 0x20 ADD SWAP1 DUP2 MSTORE PUSH1 0x20 ADD PUSH1 0x0 KECCAK256 SLOAD PUSH2 0x5B02 SWAP1 SWAP2 SWAP1 PUSH4 0xFFFFFFFF AND JUMP JUMPDEST PUSH1 0xA PUSH1 0x0 DUP4 DUP2 MSTORE PUSH1 0x20 ADD SWAP1 DUP2 MSTORE PUSH1 0x20 ADD PUSH1 0x0 KECCAK256 DUP2 SWAP1 SSTORE POP DUP1 DUP1 PUSH1 0x1 ADD SWAP2 POP POP PUSH2 0x509F JUMP JUMPDEST POP POP POP POP DUP1 DUP1 PUSH1 0x1 ADD SWAP2 POP POP PUSH2 0x4E4B JUMP JUMPDEST POP POP JUMP JUMPDEST PUSH1 0x2 PUSH1 0x0 SWAP1 SLOAD SWAP1 PUSH2 0x100 EXP SWAP1 DIV PUSH20 0xFFFFFFFFFFFFFFFFFFFFFFFFFFFFFFFFFFFFFFFF AND PUSH20 0xFFFFFFFFFFFFFFFFFFFFFFFFFFFFFFFFFFFFFFFF AND PUSH4 0x23B872DD CALLER ADDRESS DUP6 PUSH1 0x40 MLOAD DUP5 PUSH4 0xFFFFFFFF AND PUSH1 0xE0 SHL DUP2 MSTORE PUSH1 0x4 ADD DUP1 DUP5 PUSH20 0xFFFFFFFFFFFFFFFFFFFFFFFFFFFFFFFFFFFFFFFF AND PUSH20 0xFFFFFFFFFFFFFFFFFFFFFFFFFFFFFFFFFFFFFFFF AND DUP2 MSTORE PUSH1 0x20 ADD DUP4 PUSH20 0xFFFFFFFFFFFFFFFFFFFFFFFFFFFFFFFFFFFFFFFF AND PUSH20 0xFFFFFFFFFFFFFFFFFFFFFFFFFFFFFFFFFFFFFFFF AND DUP2 MSTORE PUSH1 0x20 ADD DUP3 DUP2 MSTORE PUSH1 0x20 ADD SWAP4 POP POP POP POP PUSH1 0x20 PUSH1 0x40 MLOAD DUP1 DUP4 SUB DUP2 PUSH1 0x0 DUP8 DUP1 EXTCODESIZE ISZERO DUP1 ISZERO PUSH2 0x52C2 JUMPI PUSH1 0x0 DUP1 REVERT JUMPDEST POP GAS CALL ISZERO DUP1 ISZERO PUSH2 0x52D6 JUMPI RETURNDATASIZE PUSH1 0x0 DUP1 RETURNDATACOPY RETURNDATASIZE PUSH1 0x0 REVERT JUMPDEST POP POP POP POP PUSH1 0x40 MLOAD RETURNDATASIZE PUSH1 0x20 DUP2 LT ISZERO PUSH2 0x52EC JUMPI PUSH1 0x0 DUP1 REVERT JUMPDEST DUP2 ADD SWAP1 DUP1 DUP1 MLOAD SWAP1 PUSH1 0x20 ADD SWAP1 SWAP3 SWAP2 SWAP1 POP POP POP PUSH2 0x536F JUMPI PUSH1 0x40 MLOAD PUSH32 0x8C379A000000000000000000000000000000000000000000000000000000000 DUP2 MSTORE PUSH1 0x4 ADD DUP1 DUP1 PUSH1 0x20 ADD DUP3 DUP2 SUB DUP3 MSTORE PUSH1 0x19 DUP2 MSTORE PUSH1 0x20 ADD DUP1 PUSH32 0x636F756C64206E6F74207472616E7366657220746F6B656E7300000000000000 DUP2 MSTORE POP PUSH1 0x20 ADD SWAP2 POP POP PUSH1 0x40 MLOAD DUP1 SWAP2 SUB SWAP1 REVERT JUMPDEST PUSH1 0x0 PUSH1 0x5 DUP3 DUP2 SLOAD DUP2 LT PUSH2 0x537E JUMPI INVALID JUMPDEST SWAP1 PUSH1 0x0 MSTORE PUSH1 0x20 PUSH1 0x0 KECCAK256 SWAP1 PUSH1 0x2 MUL ADD PUSH1 0x0 ADD SLOAD PUSH1 0x1 PUSH2 0x539A PUSH2 0x4B3B JUMP JUMPDEST ADD ADD SWAP1 POP PUSH1 0x0 PUSH1 0x1 PUSH2 0x53AA PUSH2 0x4B3B JUMP JUMPDEST ADD SWAP1 POP JUMPDEST DUP2 DUP2 LT ISZERO PUSH2 0x53F0 JUMPI DUP4 PUSH1 0xA PUSH1 0x0 DUP4 DUP2 MSTORE PUSH1 0x20 ADD SWAP1 DUP2 MSTORE PUSH1 0x20 ADD PUSH1 0x0 KECCAK256 SLOAD ADD PUSH1 0xA PUSH1 0x0 DUP4 DUP2 MSTORE PUSH1 0x20 ADD SWAP1 DUP2 MSTORE PUSH1 0x20 ADD PUSH1 0x0 KECCAK256 DUP2 SWAP1 SSTORE POP DUP1 DUP1 PUSH1 0x1 ADD SWAP2 POP POP PUSH2 0x53AE JUMP JUMPDEST POP PUSH1 0x0 PUSH1 0x7 PUSH1 0x0 CALLER PUSH20 0xFFFFFFFFFFFFFFFFFFFFFFFFFFFFFFFFFFFFFFFF AND PUSH20 0xFFFFFFFFFFFFFFFFFFFFFFFFFFFFFFFFFFFFFFFF AND DUP2 MSTORE PUSH1 0x20 ADD SWAP1 DUP2 MSTORE PUSH1 0x20 ADD PUSH1 0x0 KECCAK256 SWAP1 POP DUP1 PUSH1 0x40 MLOAD DUP1 PUSH1 0xC0 ADD PUSH1 0x40 MSTORE DUP1 DUP7 DUP2 MSTORE PUSH1 0x20 ADD PUSH1 0x2 PUSH1 0x0 SWAP1 SLOAD SWAP1 PUSH2 0x100 EXP SWAP1 DIV PUSH20 0xFFFFFFFFFFFFFFFFFFFFFFFFFFFFFFFFFFFFFFFF AND PUSH20 0xFFFFFFFFFFFFFFFFFFFFFFFFFFFFFFFFFFFFFFFF AND PUSH4 0xB81F90F3 PUSH1 0x40 MLOAD DUP2 PUSH4 0xFFFFFFFF AND PUSH1 0xE0 SHL DUP2 MSTORE PUSH1 0x4 ADD PUSH1 0x20 PUSH1 0x40 MLOAD DUP1 DUP4 SUB DUP2 DUP7 DUP1 EXTCODESIZE ISZERO DUP1 ISZERO PUSH2 0x54AE JUMPI PUSH1 0x0 DUP1 REVERT JUMPDEST POP GAS STATICCALL ISZERO DUP1 ISZERO PUSH2 0x54C2 JUMPI RETURNDATASIZE PUSH1 0x0 DUP1 RETURNDATACOPY RETURNDATASIZE PUSH1 0x0 REVERT JUMPDEST POP POP POP POP PUSH1 0x40 MLOAD RETURNDATASIZE PUSH1 0x20 DUP2 LT ISZERO PUSH2 0x54D8 JUMPI PUSH1 0x0 DUP1 REVERT JUMPDEST DUP2 ADD SWAP1 DUP1 DUP1 MLOAD SWAP1 PUSH1 0x20 ADD SWAP1 SWAP3 SWAP2 SWAP1 POP POP POP DUP2 MSTORE PUSH1 0x20 ADD DUP6 DUP2 MSTORE PUSH1 0x20 ADD PUSH1 0x1 DUP2 MSTORE PUSH1 0x20 ADD PUSH1 0x0 DUP2 MSTORE PUSH1 0x20 ADD PUSH1 0x0 DUP2 MSTORE POP SWAP1 DUP1 PUSH1 0x1 DUP2 SLOAD ADD DUP1 DUP3 SSTORE DUP1 SWAP2 POP POP SWAP1 PUSH1 0x1 DUP3 SUB SWAP1 PUSH1 0x0 MSTORE PUSH1 0x20 PUSH1 0x0 KECCAK256 SWAP1 PUSH1 0x8 MUL ADD PUSH1 0x0 SWAP1 SWAP2 SWAP3 SWAP1 SWAP2 SWAP1 SWAP2 POP PUSH1 0x0 DUP3 ADD MLOAD DUP2 PUSH1 0x0 ADD SSTORE PUSH1 0x20 DUP3 ADD MLOAD DUP2 PUSH1 0x1 ADD SSTORE PUSH1 0x40 DUP3 ADD MLOAD DUP2 PUSH1 0x2 ADD SSTORE PUSH1 0x60 DUP3 ADD MLOAD DUP2 PUSH1 0x3 ADD SSTORE PUSH1 0x80 DUP3 ADD MLOAD DUP2 PUSH1 0x4 ADD SSTORE PUSH1 0xA0 DUP3 ADD MLOAD DUP2 PUSH1 0x5 ADD SSTORE POP POP POP DUP3 CALLER PUSH20 0xFFFFFFFFFFFFFFFFFFFFFFFFFFFFFFFFFFFFFFFF AND PUSH32 0x680A0E2E97AD7C29DA7985E37B699F19857C055166F801E50D90661EAE30FCC3 DUP7 PUSH1 0x1 DUP6 DUP1 SLOAD SWAP1 POP SUB PUSH1 0x40 MLOAD DUP1 DUP4 DUP2 MSTORE PUSH1 0x20 ADD DUP3 DUP2 MSTORE PUSH1 0x20 ADD SWAP3 POP POP POP PUSH1 0x40 MLOAD DUP1 SWAP2 SUB SWAP1 LOG3 POP POP POP POP JUMP JUMPDEST PUSH1 0x3 PUSH1 0x0 SWAP1 SLOAD SWAP1 PUSH2 0x100 EXP SWAP1 DIV PUSH20 0xFFFFFFFFFFFFFFFFFFFFFFFFFFFFFFFFFFFFFFFF AND PUSH20 0xFFFFFFFFFFFFFFFFFFFFFFFFFFFFFFFFFFFFFFFF AND CALLER PUSH20 0xFFFFFFFFFFFFFFFFFFFFFFFFFFFFFFFFFFFFFFFF AND EQ PUSH2 0x5698 JUMPI PUSH1 0x40 MLOAD PUSH32 0x8C379A000000000000000000000000000000000000000000000000000000000 DUP2 MSTORE PUSH1 0x4 ADD DUP1 DUP1 PUSH1 0x20 ADD DUP3 DUP2 SUB DUP3 MSTORE PUSH1 0x19 DUP2 MSTORE PUSH1 0x20 ADD DUP1 PUSH32 0x6F6E6C79204E5254206D616E616765722063616E2063616C6C00000000000000 DUP2 MSTORE POP PUSH1 0x20 ADD SWAP2 POP POP PUSH1 0x40 MLOAD DUP1 SWAP2 SUB SWAP1 REVERT JUMPDEST PUSH1 0xB DUP2 SWAP1 DUP1 PUSH1 0x1 DUP2 SLOAD ADD DUP1 DUP3 SSTORE DUP1 SWAP2 POP POP SWAP1 PUSH1 0x1 DUP3 SUB SWAP1 PUSH1 0x0 MSTORE PUSH1 0x20 PUSH1 0x0 KECCAK256 ADD PUSH1 0x0 SWAP1 SWAP2 SWAP3 SWAP1 SWAP2 SWAP1 SWAP2 POP SSTORE POP POP JUMP JUMPDEST PUSH1 0x0 DUP1 SWAP1 POP JUMPDEST DUP2 MLOAD DUP2 LT ISZERO PUSH2 0x58AA JUMPI PUSH1 0x3 PUSH1 0x7 PUSH1 0x0 CALLER PUSH20 0xFFFFFFFFFFFFFFFFFFFFFFFFFFFFFFFFFFFFFFFF AND PUSH20 0xFFFFFFFFFFFFFFFFFFFFFFFFFFFFFFFFFFFFFFFF AND DUP2 MSTORE PUSH1 0x20 ADD SWAP1 DUP2 MSTORE PUSH1 0x20 ADD PUSH1 0x0 KECCAK256 DUP4 DUP4 DUP2 MLOAD DUP2 LT PUSH2 0x5723 JUMPI INVALID JUMPDEST PUSH1 0x20 MUL PUSH1 0x20 ADD ADD MLOAD DUP2 SLOAD DUP2 LT PUSH2 0x5735 JUMPI INVALID JUMPDEST SWAP1 PUSH1 0x0 MSTORE PUSH1 0x20 PUSH1 0x0 KECCAK256 SWAP1 PUSH1 0x8 MUL ADD PUSH1 0x3 ADD DUP2 SWAP1 SSTORE POP PUSH1 0x2 PUSH1 0x0 SWAP1 SLOAD SWAP1 PUSH2 0x100 EXP SWAP1 DIV PUSH20 0xFFFFFFFFFFFFFFFFFFFFFFFFFFFFFFFFFFFFFFFF AND PUSH20 0xFFFFFFFFFFFFFFFFFFFFFFFFFFFFFFFFFFFFFFFF AND PUSH4 0xA9059CBB CALLER PUSH1 0x7 PUSH1 0x0 CALLER PUSH20 0xFFFFFFFFFFFFFFFFFFFFFFFFFFFFFFFFFFFFFFFF AND PUSH20 0xFFFFFFFFFFFFFFFFFFFFFFFFFFFFFFFFFFFFFFFF AND DUP2 MSTORE PUSH1 0x20 ADD SWAP1 DUP2 MSTORE PUSH1 0x20 ADD PUSH1 0x0 KECCAK256 DUP6 DUP6 DUP2 MLOAD DUP2 LT PUSH2 0x57D4 JUMPI INVALID JUMPDEST PUSH1 0x20 MUL PUSH1 0x20 ADD ADD MLOAD DUP2 SLOAD DUP2 LT PUSH2 0x57E6 JUMPI INVALID JUMPDEST SWAP1 PUSH1 0x0 MSTORE PUSH1 0x20 PUSH1 0x0 KECCAK256 SWAP1 PUSH1 0x8 MUL ADD PUSH1 0x0 ADD SLOAD PUSH1 0x40 MLOAD DUP4 PUSH4 0xFFFFFFFF AND PUSH1 0xE0 SHL DUP2 MSTORE PUSH1 0x4 ADD DUP1 DUP4 PUSH20 0xFFFFFFFFFFFFFFFFFFFFFFFFFFFFFFFFFFFFFFFF AND PUSH20 0xFFFFFFFFFFFFFFFFFFFFFFFFFFFFFFFFFFFFFFFF AND DUP2 MSTORE PUSH1 0x20 ADD DUP3 DUP2 MSTORE PUSH1 0x20 ADD SWAP3 POP POP POP PUSH1 0x20 PUSH1 0x40 MLOAD DUP1 DUP4 SUB DUP2 PUSH1 0x0 DUP8 DUP1 EXTCODESIZE ISZERO DUP1 ISZERO PUSH2 0x5861 JUMPI PUSH1 0x0 DUP1 REVERT JUMPDEST POP GAS CALL ISZERO DUP1 ISZERO PUSH2 0x5875 JUMPI RETURNDATASIZE PUSH1 0x0 DUP1 RETURNDATACOPY RETURNDATASIZE PUSH1 0x0 REVERT JUMPDEST POP POP POP POP PUSH1 0x40 MLOAD RETURNDATASIZE PUSH1 0x20 DUP2 LT ISZERO PUSH2 0x588B JUMPI PUSH1 0x0 DUP1 REVERT JUMPDEST DUP2 ADD SWAP1 DUP1 DUP1 MLOAD SWAP1 PUSH1 0x20 ADD SWAP1 SWAP3 SWAP2 SWAP1 POP POP POP POP DUP1 DUP1 PUSH1 0x1 ADD SWAP2 POP POP PUSH2 0x56CD JUMP JUMPDEST POP POP JUMP JUMPDEST PUSH1 0x0 DUP1 PUSH2 0x58B9 PUSH2 0x4B3B JUMP JUMPDEST SWAP1 POP DUP3 DUP2 LT ISZERO PUSH2 0x5931 JUMPI PUSH1 0x40 MLOAD PUSH32 0x8C379A000000000000000000000000000000000000000000000000000000000 DUP2 MSTORE PUSH1 0x4 ADD DUP1 DUP1 PUSH1 0x20 ADD DUP3 DUP2 SUB DUP3 MSTORE PUSH1 0x1A DUP2 MSTORE PUSH1 0x20 ADD DUP1 PUSH32 0x63616E6E6F742073656520667574757265207374616B696E6773000000000000 DUP2 MSTORE POP PUSH1 0x20 ADD SWAP2 POP POP PUSH1 0x40 MLOAD DUP1 SWAP2 SUB SWAP1 REVERT JUMPDEST PUSH1 0x0 DUP1 PUSH1 0x0 SWAP1 POP JUMPDEST PUSH1 0x7 PUSH1 0x0 DUP8 PUSH20 0xFFFFFFFFFFFFFFFFFFFFFFFFFFFFFFFFFFFFFFFF AND PUSH20 0xFFFFFFFFFFFFFFFFFFFFFFFFFFFFFFFFFFFFFFFF AND DUP2 MSTORE PUSH1 0x20 ADD SWAP1 DUP2 MSTORE PUSH1 0x20 ADD PUSH1 0x0 KECCAK256 DUP1 SLOAD SWAP1 POP DUP2 LT ISZERO PUSH2 0x5AB0 JUMPI PUSH2 0x598F DUP7 DUP3 DUP6 DUP9 PUSH2 0x2E48 JUMP JUMPDEST ISZERO PUSH2 0x5AA3 JUMPI PUSH2 0x5AA0 PUSH2 0x5A91 PUSH1 0xF PUSH2 0x5A83 PUSH1 0x5 PUSH1 0x7 PUSH1 0x0 DUP13 PUSH20 0xFFFFFFFFFFFFFFFFFFFFFFFFFFFFFFFFFFFFFFFF AND PUSH20 0xFFFFFFFFFFFFFFFFFFFFFFFFFFFFFFFFFFFFFFFF AND DUP2 MSTORE PUSH1 0x20 ADD SWAP1 DUP2 MSTORE PUSH1 0x20 ADD PUSH1 0x0 KECCAK256 DUP7 DUP2 SLOAD DUP2 LT PUSH2 0x59EB JUMPI INVALID JUMPDEST SWAP1 PUSH1 0x0 MSTORE PUSH1 0x20 PUSH1 0x0 KECCAK256 SWAP1 PUSH1 0x8 MUL ADD PUSH1 0x2 ADD SLOAD DUP2 SLOAD DUP2 LT PUSH2 0x5A07 JUMPI INVALID JUMPDEST SWAP1 PUSH1 0x0 MSTORE PUSH1 0x20 PUSH1 0x0 KECCAK256 SWAP1 PUSH1 0x2 MUL ADD PUSH1 0x1 ADD SLOAD PUSH1 0x7 PUSH1 0x0 DUP13 PUSH20 0xFFFFFFFFFFFFFFFFFFFFFFFFFFFFFFFFFFFFFFFF AND PUSH20 0xFFFFFFFFFFFFFFFFFFFFFFFFFFFFFFFFFFFFFFFF AND DUP2 MSTORE PUSH1 0x20 ADD SWAP1 DUP2 MSTORE PUSH1 0x20 ADD PUSH1 0x0 KECCAK256 DUP7 DUP2 SLOAD DUP2 LT PUSH2 0x5A63 JUMPI INVALID JUMPDEST SWAP1 PUSH1 0x0 MSTORE PUSH1 0x20 PUSH1 0x0 KECCAK256 SWAP1 PUSH1 0x8 MUL ADD PUSH1 0x0 ADD SLOAD PUSH2 0x5B21 SWAP1 SWAP2 SWAP1 PUSH4 0xFFFFFFFF AND JUMP JUMPDEST PUSH2 0x5B5B SWAP1 SWAP2 SWAP1 PUSH4 0xFFFFFFFF AND JUMP JUMPDEST DUP4 PUSH2 0x5B02 SWAP1 SWAP2 SWAP1 PUSH4 0xFFFFFFFF AND JUMP JUMPDEST SWAP2 POP JUMPDEST DUP1 DUP1 PUSH1 0x1 ADD SWAP2 POP POP PUSH2 0x5939 JUMP JUMPDEST POP DUP1 SWAP3 POP POP POP SWAP3 SWAP2 POP POP JUMP JUMPDEST PUSH1 0x2 PUSH1 0x0 SWAP1 SLOAD SWAP1 PUSH2 0x100 EXP SWAP1 DIV PUSH20 0xFFFFFFFFFFFFFFFFFFFFFFFFFFFFFFFFFFFFFFFF AND DUP2 JUMP JUMPDEST PUSH1 0x0 DUP3 DUP3 GT ISZERO PUSH2 0x5AF1 JUMPI PUSH1 0x0 DUP1 REVERT JUMPDEST PUSH1 0x0 DUP3 DUP5 SUB SWAP1 POP DUP1 SWAP2 POP POP SWAP3 SWAP2 POP POP JUMP JUMPDEST PUSH1 0x0 DUP1 DUP3 DUP5 ADD SWAP1 POP DUP4 DUP2 LT ISZERO PUSH2 0x5B17 JUMPI PUSH1 0x0 DUP1 REVERT JUMPDEST DUP1 SWAP2 POP POP SWAP3 SWAP2 POP POP JUMP JUMPDEST PUSH1 0x0 DUP1 DUP4 EQ ISZERO PUSH2 0x5B34 JUMPI PUSH1 0x0 SWAP1 POP PUSH2 0x5B55 JUMP JUMPDEST PUSH1 0x0 DUP3 DUP5 MUL SWAP1 POP DUP3 DUP5 DUP3 DUP2 PUSH2 0x5B45 JUMPI INVALID JUMPDEST DIV EQ PUSH2 0x5B50 JUMPI PUSH1 0x0 DUP1 REVERT JUMPDEST DUP1 SWAP2 POP POP JUMPDEST SWAP3 SWAP2 POP POP JUMP JUMPDEST PUSH1 0x0 DUP1 DUP3 GT PUSH2 0x5B69 JUMPI PUSH1 0x0 DUP1 REVERT JUMPDEST PUSH1 0x0 DUP3 DUP5 DUP2 PUSH2 0x5B74 JUMPI INVALID JUMPDEST DIV SWAP1 POP DUP1 SWAP2 POP POP SWAP3 SWAP2 POP POP JUMP JUMPDEST PUSH1 0x40 MLOAD DUP1 PUSH1 0x40 ADD PUSH1 0x40 MSTORE DUP1 PUSH1 0x0 DUP2 MSTORE PUSH1 0x20 ADD PUSH1 0x0 DUP2 MSTORE POP SWAP1 JUMP JUMPDEST DUP3 DUP1 SLOAD DUP3 DUP3 SSTORE SWAP1 PUSH1 0x0 MSTORE PUSH1 0x20 PUSH1 0x0 KECCAK256 SWAP1 DUP2 ADD SWAP3 DUP3 ISZERO PUSH2 0x5BD7 JUMPI SWAP2 PUSH1 0x20 MUL DUP3 ADD JUMPDEST DUP3 DUP2 GT ISZERO PUSH2 0x5BD6 JUMPI DUP3 MLOAD DUP3 SSTORE SWAP2 PUSH1 0x20 ADD SWAP2 SWAP1 PUSH1 0x1 ADD SWAP1 PUSH2 0x5BBB JUMP JUMPDEST JUMPDEST POP SWAP1 POP PUSH2 0x5BE4 SWAP2 SWAP1 PUSH2 0x5BE8 JUMP JUMPDEST POP SWAP1 JUMP JUMPDEST PUSH2 0x5C0A SWAP2 SWAP1 JUMPDEST DUP1 DUP3 GT ISZERO PUSH2 0x5C06 JUMPI PUSH1 0x0 DUP2 PUSH1 0x0 SWAP1 SSTORE POP PUSH1 0x1 ADD PUSH2 0x5BEE JUMP JUMPDEST POP SWAP1 JUMP JUMPDEST SWAP1 JUMP INVALID PUSH4 0x616E6E6F PUSH21 0x206C6F616E206D6F7265207468616E206D61784C6F PUSH2 0x6E69 PUSH15 0x67416D6F756E746163637275656450 PUSH6 0x7263656E7461 PUSH8 0x652073686F756C64 KECCAK256 PUSH3 0x652061 PUSH21 0x206C6561737420353063616E6E6F74207265636569 PUSH23 0x6520656E6F75676820746F6B656E732C20706C65617365 KECCAK256 PUSH4 0x6865636B KECCAK256 PUSH10 0x6620616C6C6F77616E63 PUSH6 0x206973207468 PUSH6 0x7265746F7461 PUSH13 0x20616374697665207374616B69 PUSH15 0x67732073686F756C64206265206E6F PUSH15 0x207A65726FA265627A7A7230582079 0xaa 0xcf 0x26 SIGNEXTEND STOP CALLDATASIZE 0x4a AND BALANCE CALLCODE SWAP8 PUSH2 0xB017 0xc2 XOR 0x27 0xf7 0x2d 0xef 0x2d 0xaf 0xe3 0xe9 0x49 DUP8 JUMPI 0xc8 DUP6 SAR PUSH17 0x64736F6C634300050A0032000000000000 "},"gasEstimates":{"creation":{"codeDepositCost":"4759800","executionCost":"infinite","totalCost":"infinite"},"external":{"addNominee(uint256,address,uint256)":"infinite","claimLaunchReward(uint256)":"infinite","createLoanPlan(uint256,uint256)":"61016","createStakingPlan(uint256,uint256)":"61038","getCurrentMonth()":"494","getNumberOfStakingsByUser(address)":"694","giveLaunchReward(address[],uint256[])":"infinite","increaseMonth(uint256)":"40873","isStakingActive(address,uint256,uint256,uint256)":"infinite","launchReward(address)":"681","loanPlans(uint256)":"1126","newStaking(uint256,uint256)":"infinite","nomineeWithdraw(address,uint256)":"infinite","nrtManager()":"500","owner()":"542","removeNominee(uint256,address)":"infinite","repayLoanSelf(uint256)":"infinite","seeMaxLoaningAmountOnUserStakings(address,uint256[])":"infinite","seeShareForUserByMonth(address,uint256)":"infinite","stakingPlans(uint256)":"1127","takeLoanOnSelfStaking(uint256,uint256,uint256[])":"infinite","timeAllyMonthlyNRT(uint256)":"871","timeAllyMonthlyNRTArray()":"infinite","token()":"563","topupRewardBucket(uint256)":"infinite","totalActiveStakings(uint256)":"675","updateNominee(uint256,address,uint256)":"infinite","userActiveStakingByMonth(address,uint256)":"infinite","viewNomination(address,uint256,address)":"1160","viewStaking(address,uint256)":"4092","withdrawExpiredStakings(uint256[])":"infinite","withdrawShareForUserByMonth(uint256,uint256)":"infinite"}},"methodIdentifiers":{"addNominee(uint256,address,uint256)":"a4c0e90a","claimLaunchReward(uint256)":"da9d8aa0","createLoanPlan(uint256,uint256)":"82f97857","createStakingPlan(uint256,uint256)":"c71d5d58","getCurrentMonth()":"ddd1b67e","getNumberOfStakingsByUser(address)":"ad998fa0","giveLaunchReward(address[],uint256[])":"88c5f296","increaseMonth(uint256)":"e78c81c4","isStakingActive(address,uint256,uint256,uint256)":"97a332d8","launchReward(address)":"7acab857","loanPlans(uint256)":"cc44a2fd","newStaking(uint256,uint256)":"e5fd04e6","nomineeWithdraw(address,uint256)":"911e8bc6","nrtManager()":"0df5202f","owner()":"8da5cb5b","removeNominee(uint256,address)":"4f916fb0","repayLoanSelf(uint256)":"dea6cf43","seeMaxLoaningAmountOnUserStakings(address,uint256[])":"be4ad9c3","seeShareForUserByMonth(address,uint256)":"2f3b59ea","stakingPlans(uint256)":"762e7a34","takeLoanOnSelfStaking(uint256,uint256,uint256[])":"d0e32681","timeAllyMonthlyNRT(uint256)":"23a15e6b","timeAllyMonthlyNRTArray()":"497ec40f","token()":"fc0c546a","topupRewardBucket(uint256)":"53fcb2f3","totalActiveStakings(uint256)":"4ec0692c","updateNominee(uint256,address,uint256)":"218e731f","userActiveStakingByMonth(address,uint256)":"eb12f7f5","viewNomination(address,uint256,address)":"2e9721b6","viewStaking(address,uint256)":"46a4d6e3","withdrawExpiredStakings(uint256[])":"e83f7843","withdrawShareForUserByMonth(uint256,uint256)":"bba91dc0"}},"userdoc":{"methods":{"getCurrentMonth()":{"notice":"TimeAlly month is dependent on the monthly NRT release."},"increaseMonth(uint256)":{"notice":"this function is used by NRT manager to communicate NRT release to TimeAlly"}}}}