{"abi":[{"constant":true,"inputs":[],"name":"nrtManager","outputs":[{"name":"","type":"address"}],"payable":false,"stateMutability":"view","type":"function"},{"constant":false,"inputs":[{"name":"_addressArray","type":"address[]"},{"name":"_loanIdArray","type":"uint256[]"}],"name":"burnDefaultedLoans","outputs":[],"payable":false,"stateMutability":"nonpayable","type":"function"},{"constant":true,"inputs":[{"name":"","type":"address"},{"name":"","type":"uint256"}],"name":"stakings","outputs":[{"name":"exaEsAmount","type":"uint256"},{"name":"timestamp","type":"uint256"},{"name":"stakingMonth","type":"uint256"},{"name":"stakingPlanId","type":"uint256"},{"name":"status","type":"uint256"},{"name":"loanId","type":"uint256"},{"name":"totalNominationShares","type":"uint256"}],"payable":false,"stateMutability":"view","type":"function"},{"constant":true,"inputs":[{"name":"","type":"uint256"}],"name":"timeAllyMonthlyNRT","outputs":[{"name":"","type":"uint256"}],"payable":false,"stateMutability":"view","type":"function"},{"constant":true,"inputs":[{"name":"_userAddress","type":"address"},{"name":"_stakingId","type":"uint256"},{"name":"_months","type":"uint256[]"}],"name":"seeBenefitOfAStakingByMonths","outputs":[{"name":"","type":"uint256"}],"payable":false,"stateMutability":"view","type":"function"},{"constant":true,"inputs":[{"name":"_userAddress","type":"address"},{"name":"_stakingId","type":"uint256"},{"name":"_nomineeAddress","type":"address"}],"name":"viewNomination","outputs":[{"name":"","type":"uint256"}],"payable":false,"stateMutability":"view","type":"function"},{"constant":true,"inputs":[{"name":"","type":"uint256"}],"name":"totalActiveStakings","outputs":[{"name":"","type":"uint256"}],"payable":false,"stateMutability":"view","type":"function"},{"constant":false,"inputs":[{"name":"_stakingId","type":"uint256"},{"name":"_nomineeAddress","type":"address"}],"name":"removeNominee","outputs":[],"payable":false,"stateMutability":"nonpayable","type":"function"},{"constant":false,"inputs":[{"name":"_exaEsAmount","type":"uint256"}],"name":"topupRewardBucket","outputs":[],"payable":false,"stateMutability":"nonpayable","type":"function"},{"constant":true,"inputs":[{"name":"","type":"uint256"}],"name":"stakingPlans","outputs":[{"name":"months","type":"uint256"},{"name":"fractionFrom15","type":"uint256"},{"name":"isUrgentLoanAllowed","type":"bool"}],"payable":false,"stateMutability":"view","type":"function"},{"constant":false,"inputs":[{"name":"_months","type":"uint256"},{"name":"_fractionFrom15","type":"uint256"},{"name":"_isUrgentLoanAllowed","type":"bool"}],"name":"createStakingPlan","outputs":[],"payable":false,"stateMutability":"nonpayable","type":"function"},{"constant":true,"inputs":[{"name":"","type":"address"}],"name":"launchReward","outputs":[{"name":"","type":"uint256"}],"payable":false,"stateMutability":"view","type":"function"},{"constant":false,"inputs":[{"name":"_addresses","type":"address[]"},{"name":"_exaEsAmountArray","type":"uint256[]"}],"name":"giveLaunchReward","outputs":[],"payable":false,"stateMutability":"nonpayable","type":"function"},{"constant":true,"inputs":[],"name":"owner","outputs":[{"name":"","type":"address"}],"payable":false,"stateMutability":"view","type":"function"},{"constant":false,"inputs":[{"name":"_userAddress","type":"address"},{"name":"_stakingId","type":"uint256"}],"name":"nomineeWithdraw","outputs":[],"payable":false,"stateMutability":"nonpayable","type":"function"},{"constant":true,"inputs":[{"name":"","type":"address"},{"name":"","type":"uint256"}],"name":"loans","outputs":[{"name":"exaEsAmount","type":"uint256"},{"name":"timestamp","type":"uint256"},{"name":"loanPlanId","type":"uint256"},{"name":"status","type":"uint256"}],"payable":false,"stateMutability":"view","type":"function"},{"constant":false,"inputs":[{"name":"_stakingId","type":"uint256"},{"name":"_months","type":"uint256[]"}],"name":"withdrawBenefitOfAStakingByMonths","outputs":[],"payable":false,"stateMutability":"nonpayable","type":"function"},{"constant":false,"inputs":[{"name":"_stakingId","type":"uint256"},{"name":"_nomineeAddress","type":"address"},{"name":"_shares","type":"uint256"}],"name":"addNominee","outputs":[],"payable":false,"stateMutability":"nonpayable","type":"function"},{"constant":true,"inputs":[{"name":"_userAddress","type":"address"}],"name":"getNumberOfStakingsByUser","outputs":[{"name":"","type":"uint256"}],"payable":false,"stateMutability":"view","type":"function"},{"constant":true,"inputs":[{"name":"","type":"uint256"}],"name":"loanPlans","outputs":[{"name":"loanMonths","type":"uint256"},{"name":"loanRate","type":"uint256"},{"name":"maxLoanAmountPercent","type":"uint256"}],"payable":false,"stateMutability":"view","type":"function"},{"constant":false,"inputs":[{"name":"_loanPlanId","type":"uint256"},{"name":"_exaEsAmount","type":"uint256"},{"name":"_stakingIds","type":"uint256[]"}],"name":"takeLoanOnSelfStaking","outputs":[],"payable":false,"stateMutability":"nonpayable","type":"function"},{"constant":false,"inputs":[{"name":"_loanMonths","type":"uint256"},{"name":"_loanRate","type":"uint256"},{"name":"_maxLoanAmountPercent","type":"uint256"}],"name":"createLoanPlan","outputs":[],"payable":false,"stateMutability":"nonpayable","type":"function"},{"constant":true,"inputs":[{"name":"_userAddress","type":"address"},{"name":"_stakingId","type":"uint256"},{"name":"_atMonth","type":"uint256"}],"name":"isStakingActive","outputs":[{"name":"","type":"bool"}],"payable":false,"stateMutability":"view","type":"function"},{"constant":false,"inputs":[{"name":"_stakingPlanId","type":"uint256"}],"name":"claimLaunchReward","outputs":[],"payable":false,"stateMutability":"nonpayable","type":"function"},{"constant":true,"inputs":[],"name":"getCurrentMonth","outputs":[{"name":"","type":"uint256"}],"payable":false,"stateMutability":"view","type":"function"},{"constant":false,"inputs":[{"name":"_loanId","type":"uint256"}],"name":"repayLoanSelf","outputs":[],"payable":false,"stateMutability":"nonpayable","type":"function"},{"constant":true,"inputs":[{"name":"_userAddress","type":"address"},{"name":"_stakingIds","type":"uint256[]"},{"name":"_loanPlanId","type":"uint256"}],"name":"seeMaxLoaningAmountOnUserStakings","outputs":[{"name":"","type":"uint256"}],"payable":false,"stateMutability":"view","type":"function"},{"constant":false,"inputs":[{"name":"_exaEsAmount","type":"uint256"},{"name":"_stakingPlanId","type":"uint256"}],"name":"newStaking","outputs":[],"payable":false,"stateMutability":"nonpayable","type":"function"},{"constant":false,"inputs":[{"name":"_timeAllyNRT","type":"uint256"}],"name":"increaseMonth","outputs":[],"payable":false,"stateMutability":"nonpayable","type":"function"},{"constant":false,"inputs":[{"name":"_stakingIds","type":"uint256[]"}],"name":"withdrawExpiredStakings","outputs":[],"payable":false,"stateMutability":"nonpayable","type":"function"},{"constant":true,"inputs":[],"name":"token","outputs":[{"name":"","type":"address"}],"payable":false,"stateMutability":"view","type":"function"},{"inputs":[{"name":"_tokenAddress","type":"address"},{"name":"_nrtAddress","type":"address"}],"payable":false,"stateMutability":"nonpayable","type":"constructor"},{"anonymous":false,"inputs":[{"indexed":true,"name":"_userAddress","type":"address"},{"indexed":true,"name":"_stakePlanId","type":"uint256"},{"indexed":false,"name":"_exaEsAmount","type":"uint256"},{"indexed":false,"name":"_stakingId","type":"uint256"}],"name":"NewStaking","type":"event"},{"anonymous":false,"inputs":[{"indexed":true,"name":"_userAddress","type":"address"},{"indexed":false,"name":"_stakingId","type":"uint256"}],"name":"PrincipalWithdrawl","type":"event"},{"anonymous":false,"inputs":[{"indexed":true,"name":"_userAddress","type":"address"},{"indexed":true,"name":"_stakingId","type":"uint256"},{"indexed":true,"name":"_nomineeAddress","type":"address"}],"name":"NomineeNew","type":"event"},{"anonymous":false,"inputs":[{"indexed":true,"name":"_userAddress","type":"address"},{"indexed":true,"name":"_stakingId","type":"uint256"},{"indexed":true,"name":"_nomineeAddress","type":"address"},{"indexed":false,"name":"_liquid","type":"uint256"},{"indexed":false,"name":"_accrued","type":"uint256"}],"name":"NomineeWithdraw","type":"event"},{"anonymous":false,"inputs":[{"indexed":true,"name":"_userAddress","type":"address"},{"indexed":false,"name":"_months","type":"uint256[]"},{"indexed":false,"name":"_halfBenefit","type":"uint256"}],"name":"BenefitWithdrawl","type":"event"},{"anonymous":false,"inputs":[{"indexed":true,"name":"_userAddress","type":"address"},{"indexed":true,"name":"_loanPlanId","type":"uint256"},{"indexed":false,"name":"_exaEsAmount","type":"uint256"},{"indexed":false,"name":"_loanInterest","type":"uint256"},{"indexed":false,"name":"_loanId","type":"uint256"}],"name":"NewLoan","type":"event"},{"anonymous":false,"inputs":[{"indexed":true,"name":"_userAddress","type":"address"},{"indexed":false,"name":"_loanId","type":"uint256"}],"name":"RepayLoan","type":"event"}],"devdoc":{"author":"The EraSwap Team","details":"all require statement message strings are commented to make contract deployable by lower the deploying gas fee","methods":{"addNominee(uint256,address,uint256)":{"details":"shares is compared with total shares issued in a staking to see the percent nominee can withdraw. Nominee can withdraw only after one year past the end of tenure of staking. Upto 1 year past the end of tenure of staking, owner can withdraw principle amount of staking as well as can CRUD nominees. Owner of staking is has this time to withdraw their staking, if they fail to do so, after that nominees are allowed to withdraw. Withdrawl by first nominee will trigger staking into nomination mode and owner of staking cannot withdraw the principle amount as it will be distributed with only nominees and only they can withdraw it.","params":{"_nomineeAddress":"- address of nominee to be added to staking","_shares":"- amount of shares of the staking to the nominee","_stakingId":"- staking id"}},"claimLaunchReward(uint256)":{"params":{"_stakingPlanId":"- rewardee can choose plan while claiming rewards as stakings"}},"constructor":{"params":{"_nrtAddress":"- is NRT Manager contract address","_tokenAddress":"- is EraSwap contract address"}},"createLoanPlan(uint256,uint256,uint256)":{"params":{"_loanMonths":"- number of months or duration of loan, loan taker must repay the loan before this period","_loanRate":"- this is total % of loaning amount charged while taking loan, this charge is sent to luckpool in NRT manager which ends up distributed back to the community again"}},"createStakingPlan(uint256,uint256,bool)":{"params":{"_fractionFrom15":"- NRT fraction (max 15%) benefit to be given to user. rest is sent back to NRT in Luck Pool","_isUrgentLoanAllowed":"- if urgent loan is not allowed then staker can take loan only after 75% of time elapsed","_months":"- is number of staking months of a plan. for eg. 12 months"}},"getCurrentMonth()":{"return":"current month is the TimeAlly month"},"getNumberOfStakingsByUser(address)":{"params":{"_userAddress":"- address of user"},"return":"number of stakings of _userAddress"},"giveLaunchReward(address[],uint256[])":{"params":{"_addresses":"- array of address to send rewards","_exaEsAmountArray":"- array of ExaES amounts sent to each address of _addresses with same index"}},"isStakingActive(address,uint256,uint256)":{"params":{"_atMonth":"- particular month to check staking active","_stakingId":"- staking id","_userAddress":"- address of user"},"return":"true is staking is in correct time frame and also no loan on it"},"newStaking(uint256,uint256)":{"params":{"_exaEsAmount":"- amount of ES tokens (in 18 decimals thats why 'exa') that user wishes to stake","_stakingPlanId":"- plan for staking"}},"nomineeWithdraw(address,uint256)":{"params":{"_stakingId":"- staking id","_userAddress":"- address of user"}},"removeNominee(uint256,address)":{"params":{"_nomineeAddress":"- address of nominee","_stakingId":"- staking id"}},"repayLoanSelf(uint256)":{"details":"need to give allowance before this","params":{"_loanId":"- select loan to repay"}},"seeBenefitOfAStakingByMonths(address,uint256,uint256[])":{"params":{"_months":"- array of months user is interested to see benefits.","_stakingId":"- staking id","_userAddress":"- address of user"},"return":"amount of ExaES of benefits of entered months"},"seeMaxLoaningAmountOnUserStakings(address,uint256[],uint256)":{"params":{"_loanPlanId":"- the loan plan user wishes to take loan.","_stakingIds":"- array of staking ids which should be used to estimate max loan amount","_userAddress":"- address of user"},"return":"max loaning amount"},"takeLoanOnSelfStaking(uint256,uint256,uint256[])":{"params":{"_exaEsAmount":"- loan amount, this will also be the loan repay amount, the interest will first be deducted from this and then amount will be credited","_loanPlanId":"- user can select this plan which defines loan duration and loan interest","_stakingIds":"- staking ids user wishes to encash for taking the loan"}},"topupRewardBucket(uint256)":{"details":"Allowance is required before topup.","params":{"_exaEsAmount":"- amount to add to your rewards for sending rewards to others"}},"viewNomination(address,uint256,address)":{"params":{"_nomineeAddress":"- address of nominee","_stakingId":"- staking id","_userAddress":"- address of staking owner"},"return":"nomination of the nominee"},"withdrawBenefitOfAStakingByMonths(uint256,uint256[])":{"params":{"_months":"- array of months user is interested to withdraw benefits of staking.","_stakingId":"- staking id"}},"withdrawExpiredStakings(uint256[])":{"params":{"_stakingIds":"- input which stakings to withdraw"}}},"title":"TimeAlly Smart Contract"},"evm":{"assembly":"    /* \"TimeAlly.sol\":794:45401  contract TimeAlly {... */\n  mstore(0x40, 0x80)\n    /* \"TimeAlly.sol\":2491:2498  2629744 */\n  0x282070\n    /* \"TimeAlly.sol\":2461:2498  uint256 earthSecondsInMonth = 2629744 */\n  0x04\n  sstore\n    /* \"TimeAlly.sol\":4680:4987  constructor(address _tokenAddress, address _nrtAddress) public {... */\n  callvalue\n    /* \"--CODEGEN--\":8:17   */\n  dup1\n    /* \"--CODEGEN--\":5:7   */\n  iszero\n  tag_1\n  jumpi\n    /* \"--CODEGEN--\":30:31   */\n  0x00\n    /* \"--CODEGEN--\":27:28   */\n  dup1\n    /* \"--CODEGEN--\":20:32   */\n  revert\n    /* \"--CODEGEN--\":5:7   */\ntag_1:\n    /* \"TimeAlly.sol\":4680:4987  constructor(address _tokenAddress, address _nrtAddress) public {... */\n  pop\n  mload(0x40)\n  sub(codesize, bytecodeSize)\n  dup1\n  bytecodeSize\n  dup4\n  codecopy\n  dup2\n  dup2\n  add\n  0x40\n  mstore\n    /* \"--CODEGEN--\":13:15   */\n  0x40\n    /* \"--CODEGEN--\":8:11   */\n  dup2\n    /* \"--CODEGEN--\":5:16   */\n  lt\n    /* \"--CODEGEN--\":2:4   */\n  iszero\n  tag_2\n  jumpi\n    /* \"--CODEGEN--\":29:30   */\n  0x00\n    /* \"--CODEGEN--\":26:27   */\n  dup1\n    /* \"--CODEGEN--\":19:31   */\n  revert\n    /* \"--CODEGEN--\":2:4   */\ntag_2:\n    /* \"TimeAlly.sol\":4680:4987  constructor(address _tokenAddress, address _nrtAddress) public {... */\n  dup2\n  add\n  swap1\n  dup1\n  dup1\n  mload\n  swap1\n  0x20\n  add\n  swap1\n  swap3\n  swap2\n  swap1\n  dup1\n  mload\n  swap1\n  0x20\n  add\n  swap1\n  swap3\n  swap2\n  swap1\n  pop\n  pop\n  pop\n    /* \"TimeAlly.sol\":4761:4771  msg.sender */\n  caller\n    /* \"TimeAlly.sol\":4753:4758  owner */\n  0x01\n  0x00\n    /* \"TimeAlly.sol\":4753:4771  owner = msg.sender */\n  0x0100\n  exp\n  dup2\n  sload\n  dup2\n  0xffffffffffffffffffffffffffffffffffffffff\n  mul\n  not\n  and\n  swap1\n  dup4\n  0xffffffffffffffffffffffffffffffffffffffff\n  and\n  mul\n  or\n  swap1\n  sstore\n  pop\n    /* \"TimeAlly.sol\":4797:4810  _tokenAddress */\n  dup2\n    /* \"TimeAlly.sol\":4781:4786  token */\n  0x02\n  0x00\n    /* \"TimeAlly.sol\":4781:4811  token = Eraswap(_tokenAddress) */\n  0x0100\n  exp\n  dup2\n  sload\n  dup2\n  0xffffffffffffffffffffffffffffffffffffffff\n  mul\n  not\n  and\n  swap1\n  dup4\n  0xffffffffffffffffffffffffffffffffffffffff\n  and\n  mul\n  or\n  swap1\n  sstore\n  pop\n    /* \"TimeAlly.sol\":4845:4856  _nrtAddress */\n  dup1\n    /* \"TimeAlly.sol\":4821:4831  nrtManager */\n  0x03\n  0x00\n    /* \"TimeAlly.sol\":4821:4857  nrtManager = NRTManager(_nrtAddress) */\n  0x0100\n  exp\n  dup2\n  sload\n  dup2\n  0xffffffffffffffffffffffffffffffffffffffff\n  mul\n  not\n  and\n  swap1\n  dup4\n  0xffffffffffffffffffffffffffffffffffffffff\n  and\n  mul\n  or\n  swap1\n  sstore\n  pop\n    /* \"TimeAlly.sol\":4887:4892  token */\n  0x02\n  0x00\n  swap1\n  sload\n  swap1\n  0x0100\n  exp\n  swap1\n  div\n  0xffffffffffffffffffffffffffffffffffffffff\n  and\n    /* \"TimeAlly.sol\":4887:4896  token.mou */\n  0xffffffffffffffffffffffffffffffffffffffff\n  and\n  0xb81f90f3\n    /* \"TimeAlly.sol\":4887:4898  token.mou() */\n  mload(0x40)\n  dup2\n  0xffffffff\n  and\n  0xe0\n  shl\n  dup2\n  mstore\n  0x04\n  add\n  0x20\n  mload(0x40)\n  dup1\n  dup4\n  sub\n  dup2\n  dup7\n  dup1\n  extcodesize\n  iszero\n    /* \"--CODEGEN--\":8:17   */\n  dup1\n    /* \"--CODEGEN--\":5:7   */\n  iszero\n  tag_5\n  jumpi\n    /* \"--CODEGEN--\":30:31   */\n  0x00\n    /* \"--CODEGEN--\":27:28   */\n  dup1\n    /* \"--CODEGEN--\":20:32   */\n  revert\n    /* \"--CODEGEN--\":5:7   */\ntag_5:\n    /* \"TimeAlly.sol\":4887:4898  token.mou() */\n  pop\n  gas\n  staticcall\n  iszero\n    /* \"--CODEGEN--\":8:17   */\n  dup1\n    /* \"--CODEGEN--\":5:7   */\n  iszero\n  tag_6\n  jumpi\n    /* \"--CODEGEN--\":45:61   */\n  returndatasize\n    /* \"--CODEGEN--\":42:43   */\n  0x00\n    /* \"--CODEGEN--\":39:40   */\n  dup1\n    /* \"--CODEGEN--\":24:62   */\n  returndatacopy\n    /* \"--CODEGEN--\":77:93   */\n  returndatasize\n    /* \"--CODEGEN--\":74:75   */\n  0x00\n    /* \"--CODEGEN--\":67:94   */\n  revert\n    /* \"--CODEGEN--\":5:7   */\ntag_6:\n    /* \"TimeAlly.sol\":4887:4898  token.mou() */\n  pop\n  pop\n  pop\n  pop\n  mload(0x40)\n  returndatasize\n    /* \"--CODEGEN--\":13:15   */\n  0x20\n    /* \"--CODEGEN--\":8:11   */\n  dup2\n    /* \"--CODEGEN--\":5:16   */\n  lt\n    /* \"--CODEGEN--\":2:4   */\n  iszero\n  tag_7\n  jumpi\n    /* \"--CODEGEN--\":29:30   */\n  0x00\n    /* \"--CODEGEN--\":26:27   */\n  dup1\n    /* \"--CODEGEN--\":19:31   */\n  revert\n    /* \"--CODEGEN--\":2:4   */\ntag_7:\n    /* \"TimeAlly.sol\":4887:4898  token.mou() */\n  dup2\n  add\n  swap1\n  dup1\n  dup1\n  mload\n  swap1\n  0x20\n  add\n  swap1\n  swap3\n  swap2\n  swap1\n  pop\n  pop\n  pop\n    /* \"TimeAlly.sol\":4867:4884  deployedTimestamp */\n  0x00\n    /* \"TimeAlly.sol\":4867:4898  deployedTimestamp = token.mou() */\n  dup2\n  swap1\n  sstore\n  pop\n    /* \"TimeAlly.sol\":4908:4926  timeAllyMonthlyNRT */\n  0x0b\n    /* \"TimeAlly.sol\":4932:4933  0 */\n  0x00\n    /* \"TimeAlly.sol\":4908:4934  timeAllyMonthlyNRT.push(0) */\n  swap1\n  dup1\n    /* \"--CODEGEN--\":39:40   */\n  0x01\n    /* \"--CODEGEN--\":33:36   */\n  dup2\n    /* \"--CODEGEN--\":27:37   */\n  sload\n    /* \"--CODEGEN--\":23:41   */\n  add\n    /* \"--CODEGEN--\":57:67   */\n  dup1\n    /* \"--CODEGEN--\":52:55   */\n  dup3\n    /* \"--CODEGEN--\":45:68   */\n  sstore\n    /* \"--CODEGEN--\":79:89   */\n  dup1\n    /* \"--CODEGEN--\":72:89   */\n  swap2\n  pop\n    /* \"--CODEGEN--\":0:93   */\n  pop\n    /* \"TimeAlly.sol\":4908:4934  timeAllyMonthlyNRT.push(0) */\n  swap1\n  0x01\n  dup3\n  sub\n  swap1\n  0x00\n  mstore\n  keccak256(0x00, 0x20)\n  add\n  0x00\n  swap1\n  swap2\n  swap3\n  swap1\n  swap2\n  swap1\n  swap2\n  pop\n  sstore\n  pop\n    /* \"TimeAlly.sol\":4680:4987  constructor(address _tokenAddress, address _nrtAddress) public {... */\n  pop\n  pop\n    /* \"TimeAlly.sol\":794:45401  contract TimeAlly {... */\n  dataSize(sub_0)\n  dup1\n  dataOffset(sub_0)\n  0x00\n  codecopy\n  0x00\n  return\nstop\n\nsub_0: assembly {\n        /* \"TimeAlly.sol\":794:45401  contract TimeAlly {... */\n      mstore(0x40, 0x80)\n      callvalue\n        /* \"--CODEGEN--\":8:17   */\n      dup1\n        /* \"--CODEGEN--\":5:7   */\n      iszero\n      tag_1\n      jumpi\n        /* \"--CODEGEN--\":30:31   */\n      0x00\n        /* \"--CODEGEN--\":27:28   */\n      dup1\n        /* \"--CODEGEN--\":20:32   */\n      revert\n        /* \"--CODEGEN--\":5:7   */\n    tag_1:\n        /* \"TimeAlly.sol\":794:45401  contract TimeAlly {... */\n      pop\n      jumpi(tag_2, lt(calldatasize, 0x04))\n      shr(0xe0, calldataload(0x00))\n      dup1\n      0x98c61c37\n      gt\n      tag_34\n      jumpi\n      dup1\n      0xda9d8aa0\n      gt\n      tag_35\n      jumpi\n      dup1\n      0xe5fd04e6\n      gt\n      tag_36\n      jumpi\n      dup1\n      0xe5fd04e6\n      eq\n      tag_30\n      jumpi\n      dup1\n      0xe78c81c4\n      eq\n      tag_31\n      jumpi\n      dup1\n      0xe83f7843\n      eq\n      tag_32\n      jumpi\n      dup1\n      0xfc0c546a\n      eq\n      tag_33\n      jumpi\n      jump(tag_2)\n    tag_36:\n      dup1\n      0xda9d8aa0\n      eq\n      tag_26\n      jumpi\n      dup1\n      0xddd1b67e\n      eq\n      tag_27\n      jumpi\n      dup1\n      0xdea6cf43\n      eq\n      tag_28\n      jumpi\n      dup1\n      0xdf90f7ce\n      eq\n      tag_29\n      jumpi\n      jump(tag_2)\n    tag_35:\n      dup1\n      0xcc44a2fd\n      gt\n      tag_37\n      jumpi\n      dup1\n      0xcc44a2fd\n      eq\n      tag_22\n      jumpi\n      dup1\n      0xd0e32681\n      eq\n      tag_23\n      jumpi\n      dup1\n      0xd1cf31b3\n      eq\n      tag_24\n      jumpi\n      dup1\n      0xd58424a3\n      eq\n      tag_25\n      jumpi\n      jump(tag_2)\n    tag_37:\n      dup1\n      0x98c61c37\n      eq\n      tag_18\n      jumpi\n      dup1\n      0x9d0b8b44\n      eq\n      tag_19\n      jumpi\n      dup1\n      0xa4c0e90a\n      eq\n      tag_20\n      jumpi\n      dup1\n      0xad998fa0\n      eq\n      tag_21\n      jumpi\n      jump(tag_2)\n    tag_34:\n      dup1\n      0x4f916fb0\n      gt\n      tag_38\n      jumpi\n      dup1\n      0x7acab857\n      gt\n      tag_39\n      jumpi\n      dup1\n      0x7acab857\n      eq\n      tag_14\n      jumpi\n      dup1\n      0x88c5f296\n      eq\n      tag_15\n      jumpi\n      dup1\n      0x8da5cb5b\n      eq\n      tag_16\n      jumpi\n      dup1\n      0x911e8bc6\n      eq\n      tag_17\n      jumpi\n      jump(tag_2)\n    tag_39:\n      dup1\n      0x4f916fb0\n      eq\n      tag_10\n      jumpi\n      dup1\n      0x53fcb2f3\n      eq\n      tag_11\n      jumpi\n      dup1\n      0x762e7a34\n      eq\n      tag_12\n      jumpi\n      dup1\n      0x778db8d4\n      eq\n      tag_13\n      jumpi\n      jump(tag_2)\n    tag_38:\n      dup1\n      0x23a15e6b\n      gt\n      tag_40\n      jumpi\n      dup1\n      0x23a15e6b\n      eq\n      tag_6\n      jumpi\n      dup1\n      0x2c779774\n      eq\n      tag_7\n      jumpi\n      dup1\n      0x2e9721b6\n      eq\n      tag_8\n      jumpi\n      dup1\n      0x4ec0692c\n      eq\n      tag_9\n      jumpi\n      jump(tag_2)\n    tag_40:\n      dup1\n      0x0df5202f\n      eq\n      tag_3\n      jumpi\n      dup1\n      0x16d3e966\n      eq\n      tag_4\n      jumpi\n      dup1\n      0x1849d8ea\n      eq\n      tag_5\n      jumpi\n    tag_2:\n      0x00\n      dup1\n      revert\n        /* \"TimeAlly.sol\":2361:2389  NRTManager public nrtManager */\n    tag_3:\n      tag_41\n      tag_42\n      jump\t// in\n    tag_41:\n      mload(0x40)\n      dup1\n      dup3\n      0xffffffffffffffffffffffffffffffffffffffff\n      and\n      0xffffffffffffffffffffffffffffffffffffffff\n      and\n      dup2\n      mstore\n      0x20\n      add\n      swap2\n      pop\n      pop\n      mload(0x40)\n      dup1\n      swap2\n      sub\n      swap1\n      return\n        /* \"TimeAlly.sol\":36361:37797  function burnDefaultedLoans(address[] memory _addressArray, uint256[] memory _loanIdArray) public {... */\n    tag_4:\n      tag_43\n      0x04\n      dup1\n      calldatasize\n      sub\n        /* \"--CODEGEN--\":13:15   */\n      0x40\n        /* \"--CODEGEN--\":8:11   */\n      dup2\n        /* \"--CODEGEN--\":5:16   */\n      lt\n        /* \"--CODEGEN--\":2:4   */\n      iszero\n      tag_44\n      jumpi\n        /* \"--CODEGEN--\":29:30   */\n      0x00\n        /* \"--CODEGEN--\":26:27   */\n      dup1\n        /* \"--CODEGEN--\":19:31   */\n      revert\n        /* \"--CODEGEN--\":2:4   */\n    tag_44:\n        /* \"TimeAlly.sol\":36361:37797  function burnDefaultedLoans(address[] memory _addressArray, uint256[] memory _loanIdArray) public {... */\n      dup2\n      add\n      swap1\n      dup1\n      dup1\n      calldataload\n      swap1\n      0x20\n      add\n      swap1\n        /* \"--CODEGEN--\":21:32   */\n      0x0100000000\n        /* \"--CODEGEN--\":8:19   */\n      dup2\n        /* \"--CODEGEN--\":5:33   */\n      gt\n        /* \"--CODEGEN--\":2:4   */\n      iszero\n      tag_45\n      jumpi\n        /* \"--CODEGEN--\":46:47   */\n      0x00\n        /* \"--CODEGEN--\":43:44   */\n      dup1\n        /* \"--CODEGEN--\":36:48   */\n      revert\n        /* \"--CODEGEN--\":2:4   */\n    tag_45:\n        /* \"TimeAlly.sol\":36361:37797  function burnDefaultedLoans(address[] memory _addressArray, uint256[] memory _loanIdArray) public {... */\n      dup3\n      add\n        /* \"--CODEGEN--\":35:44   */\n      dup4\n        /* \"--CODEGEN--\":28:32   */\n      0x20\n        /* \"--CODEGEN--\":12:26   */\n      dup3\n        /* \"--CODEGEN--\":8:33   */\n      add\n        /* \"--CODEGEN--\":5:45   */\n      gt\n        /* \"--CODEGEN--\":2:4   */\n      iszero\n      tag_46\n      jumpi\n        /* \"--CODEGEN--\":58:59   */\n      0x00\n        /* \"--CODEGEN--\":55:56   */\n      dup1\n        /* \"--CODEGEN--\":48:60   */\n      revert\n        /* \"--CODEGEN--\":2:4   */\n    tag_46:\n        /* \"TimeAlly.sol\":36361:37797  function burnDefaultedLoans(address[] memory _addressArray, uint256[] memory _loanIdArray) public {... */\n      dup1\n      calldataload\n      swap1\n      0x20\n      add\n      swap2\n        /* \"--CODEGEN--\":101:110   */\n      dup5\n        /* \"--CODEGEN--\":95:97   */\n      0x20\n        /* \"--CODEGEN--\":81:93   */\n      dup4\n        /* \"--CODEGEN--\":77:98   */\n      mul\n        /* \"--CODEGEN--\":67:75   */\n      dup5\n        /* \"--CODEGEN--\":63:99   */\n      add\n        /* \"--CODEGEN--\":60:111   */\n      gt\n        /* \"--CODEGEN--\":39:50   */\n      0x0100000000\n        /* \"--CODEGEN--\":25:37   */\n      dup4\n        /* \"--CODEGEN--\":22:51   */\n      gt\n        /* \"--CODEGEN--\":11:119   */\n      or\n        /* \"--CODEGEN--\":8:10   */\n      iszero\n      tag_47\n      jumpi\n        /* \"--CODEGEN--\":132:133   */\n      0x00\n        /* \"--CODEGEN--\":129:130   */\n      dup1\n        /* \"--CODEGEN--\":122:134   */\n      revert\n        /* \"--CODEGEN--\":8:10   */\n    tag_47:\n        /* \"TimeAlly.sol\":36361:37797  function burnDefaultedLoans(address[] memory _addressArray, uint256[] memory _loanIdArray) public {... */\n      swap2\n      swap1\n      dup1\n      dup1\n      0x20\n      mul\n      0x20\n      add\n      mload(0x40)\n      swap1\n      dup2\n      add\n      0x40\n      mstore\n      dup1\n      swap4\n      swap3\n      swap2\n      swap1\n      dup2\n      dup2\n      mstore\n      0x20\n      add\n      dup4\n      dup4\n      0x20\n      mul\n        /* \"--CODEGEN--\":30:33   */\n      dup1\n        /* \"--CODEGEN--\":22:28   */\n      dup3\n        /* \"--CODEGEN--\":14:20   */\n      dup5\n        /* \"--CODEGEN--\":1:34   */\n      calldatacopy\n        /* \"--CODEGEN--\":99:100   */\n      0x00\n        /* \"--CODEGEN--\":93:96   */\n      dup2\n        /* \"--CODEGEN--\":85:91   */\n      dup5\n        /* \"--CODEGEN--\":81:97   */\n      add\n        /* \"--CODEGEN--\":74:101   */\n      mstore\n        /* \"--CODEGEN--\":137:141   */\n      0x1f\n        /* \"--CODEGEN--\":133:142   */\n      not\n        /* \"--CODEGEN--\":126:130   */\n      0x1f\n        /* \"--CODEGEN--\":121:124   */\n      dup3\n        /* \"--CODEGEN--\":117:131   */\n      add\n        /* \"--CODEGEN--\":113:143   */\n      and\n        /* \"--CODEGEN--\":106:143   */\n      swap1\n      pop\n        /* \"--CODEGEN--\":169:172   */\n      dup1\n        /* \"--CODEGEN--\":161:167   */\n      dup4\n        /* \"--CODEGEN--\":157:173   */\n      add\n        /* \"--CODEGEN--\":147:173   */\n      swap3\n      pop\n        /* \"TimeAlly.sol\":36361:37797  function burnDefaultedLoans(address[] memory _addressArray, uint256[] memory _loanIdArray) public {... */\n      pop\n      pop\n      pop\n      pop\n      pop\n      pop\n      swap2\n      swap3\n      swap2\n      swap3\n      swap1\n      dup1\n      calldataload\n      swap1\n      0x20\n      add\n      swap1\n        /* \"--CODEGEN--\":21:32   */\n      0x0100000000\n        /* \"--CODEGEN--\":8:19   */\n      dup2\n        /* \"--CODEGEN--\":5:33   */\n      gt\n        /* \"--CODEGEN--\":2:4   */\n      iszero\n      tag_48\n      jumpi\n        /* \"--CODEGEN--\":46:47   */\n      0x00\n        /* \"--CODEGEN--\":43:44   */\n      dup1\n        /* \"--CODEGEN--\":36:48   */\n      revert\n        /* \"--CODEGEN--\":2:4   */\n    tag_48:\n        /* \"TimeAlly.sol\":36361:37797  function burnDefaultedLoans(address[] memory _addressArray, uint256[] memory _loanIdArray) public {... */\n      dup3\n      add\n        /* \"--CODEGEN--\":35:44   */\n      dup4\n        /* \"--CODEGEN--\":28:32   */\n      0x20\n        /* \"--CODEGEN--\":12:26   */\n      dup3\n        /* \"--CODEGEN--\":8:33   */\n      add\n        /* \"--CODEGEN--\":5:45   */\n      gt\n        /* \"--CODEGEN--\":2:4   */\n      iszero\n      tag_49\n      jumpi\n        /* \"--CODEGEN--\":58:59   */\n      0x00\n        /* \"--CODEGEN--\":55:56   */\n      dup1\n        /* \"--CODEGEN--\":48:60   */\n      revert\n        /* \"--CODEGEN--\":2:4   */\n    tag_49:\n        /* \"TimeAlly.sol\":36361:37797  function burnDefaultedLoans(address[] memory _addressArray, uint256[] memory _loanIdArray) public {... */\n      dup1\n      calldataload\n      swap1\n      0x20\n      add\n      swap2\n        /* \"--CODEGEN--\":101:110   */\n      dup5\n        /* \"--CODEGEN--\":95:97   */\n      0x20\n        /* \"--CODEGEN--\":81:93   */\n      dup4\n        /* \"--CODEGEN--\":77:98   */\n      mul\n        /* \"--CODEGEN--\":67:75   */\n      dup5\n        /* \"--CODEGEN--\":63:99   */\n      add\n        /* \"--CODEGEN--\":60:111   */\n      gt\n        /* \"--CODEGEN--\":39:50   */\n      0x0100000000\n        /* \"--CODEGEN--\":25:37   */\n      dup4\n        /* \"--CODEGEN--\":22:51   */\n      gt\n        /* \"--CODEGEN--\":11:119   */\n      or\n        /* \"--CODEGEN--\":8:10   */\n      iszero\n      tag_50\n      jumpi\n        /* \"--CODEGEN--\":132:133   */\n      0x00\n        /* \"--CODEGEN--\":129:130   */\n      dup1\n        /* \"--CODEGEN--\":122:134   */\n      revert\n        /* \"--CODEGEN--\":8:10   */\n    tag_50:\n        /* \"TimeAlly.sol\":36361:37797  function burnDefaultedLoans(address[] memory _addressArray, uint256[] memory _loanIdArray) public {... */\n      swap2\n      swap1\n      dup1\n      dup1\n      0x20\n      mul\n      0x20\n      add\n      mload(0x40)\n      swap1\n      dup2\n      add\n      0x40\n      mstore\n      dup1\n      swap4\n      swap3\n      swap2\n      swap1\n      dup2\n      dup2\n      mstore\n      0x20\n      add\n      dup4\n      dup4\n      0x20\n      mul\n        /* \"--CODEGEN--\":30:33   */\n      dup1\n        /* \"--CODEGEN--\":22:28   */\n      dup3\n        /* \"--CODEGEN--\":14:20   */\n      dup5\n        /* \"--CODEGEN--\":1:34   */\n      calldatacopy\n        /* \"--CODEGEN--\":99:100   */\n      0x00\n        /* \"--CODEGEN--\":93:96   */\n      dup2\n        /* \"--CODEGEN--\":85:91   */\n      dup5\n        /* \"--CODEGEN--\":81:97   */\n      add\n        /* \"--CODEGEN--\":74:101   */\n      mstore\n        /* \"--CODEGEN--\":137:141   */\n      0x1f\n        /* \"--CODEGEN--\":133:142   */\n      not\n        /* \"--CODEGEN--\":126:130   */\n      0x1f\n        /* \"--CODEGEN--\":121:124   */\n      dup3\n        /* \"--CODEGEN--\":117:131   */\n      add\n        /* \"--CODEGEN--\":113:143   */\n      and\n        /* \"--CODEGEN--\":106:143   */\n      swap1\n      pop\n        /* \"--CODEGEN--\":169:172   */\n      dup1\n        /* \"--CODEGEN--\":161:167   */\n      dup4\n        /* \"--CODEGEN--\":157:173   */\n      add\n        /* \"--CODEGEN--\":147:173   */\n      swap3\n      pop\n        /* \"TimeAlly.sol\":36361:37797  function burnDefaultedLoans(address[] memory _addressArray, uint256[] memory _loanIdArray) public {... */\n      pop\n      pop\n      pop\n      pop\n      pop\n      pop\n      swap2\n      swap3\n      swap2\n      swap3\n      swap1\n      pop\n      pop\n      pop\n      tag_51\n      jump\t// in\n    tag_43:\n      stop\n        /* \"TimeAlly.sol\":2721:2766  mapping(address => Staking[]) public stakings */\n    tag_5:\n      tag_52\n      0x04\n      dup1\n      calldatasize\n      sub\n        /* \"--CODEGEN--\":13:15   */\n      0x40\n        /* \"--CODEGEN--\":8:11   */\n      dup2\n        /* \"--CODEGEN--\":5:16   */\n      lt\n        /* \"--CODEGEN--\":2:4   */\n      iszero\n      tag_53\n      jumpi\n        /* \"--CODEGEN--\":29:30   */\n      0x00\n        /* \"--CODEGEN--\":26:27   */\n      dup1\n        /* \"--CODEGEN--\":19:31   */\n      revert\n        /* \"--CODEGEN--\":2:4   */\n    tag_53:\n        /* \"TimeAlly.sol\":2721:2766  mapping(address => Staking[]) public stakings */\n      dup2\n      add\n      swap1\n      dup1\n      dup1\n      calldataload\n      0xffffffffffffffffffffffffffffffffffffffff\n      and\n      swap1\n      0x20\n      add\n      swap1\n      swap3\n      swap2\n      swap1\n      dup1\n      calldataload\n      swap1\n      0x20\n      add\n      swap1\n      swap3\n      swap2\n      swap1\n      pop\n      pop\n      pop\n      tag_54\n      jump\t// in\n    tag_52:\n      mload(0x40)\n      dup1\n      dup9\n      dup2\n      mstore\n      0x20\n      add\n      dup8\n      dup2\n      mstore\n      0x20\n      add\n      dup7\n      dup2\n      mstore\n      0x20\n      add\n      dup6\n      dup2\n      mstore\n      0x20\n      add\n      dup5\n      dup2\n      mstore\n      0x20\n      add\n      dup4\n      dup2\n      mstore\n      0x20\n      add\n      dup3\n      dup2\n      mstore\n      0x20\n      add\n      swap8\n      pop\n      pop\n      pop\n      pop\n      pop\n      pop\n      pop\n      pop\n      mload(0x40)\n      dup1\n      swap2\n      sub\n      swap1\n      return\n        /* \"TimeAlly.sol\":3128:3163  uint256[] public timeAllyMonthlyNRT */\n    tag_6:\n      tag_55\n      0x04\n      dup1\n      calldatasize\n      sub\n        /* \"--CODEGEN--\":13:15   */\n      0x20\n        /* \"--CODEGEN--\":8:11   */\n      dup2\n        /* \"--CODEGEN--\":5:16   */\n      lt\n        /* \"--CODEGEN--\":2:4   */\n      iszero\n      tag_56\n      jumpi\n        /* \"--CODEGEN--\":29:30   */\n      0x00\n        /* \"--CODEGEN--\":26:27   */\n      dup1\n        /* \"--CODEGEN--\":19:31   */\n      revert\n        /* \"--CODEGEN--\":2:4   */\n    tag_56:\n        /* \"TimeAlly.sol\":3128:3163  uint256[] public timeAllyMonthlyNRT */\n      dup2\n      add\n      swap1\n      dup1\n      dup1\n      calldataload\n      swap1\n      0x20\n      add\n      swap1\n      swap3\n      swap2\n      swap1\n      pop\n      pop\n      pop\n      tag_57\n      jump\t// in\n    tag_55:\n      mload(0x40)\n      dup1\n      dup3\n      dup2\n      mstore\n      0x20\n      add\n      swap2\n      pop\n      pop\n      mload(0x40)\n      dup1\n      swap2\n      sub\n      swap1\n      return\n        /* \"TimeAlly.sol\":21590:22961  function seeBenefitOfAStakingByMonths(... */\n    tag_7:\n      tag_58\n      0x04\n      dup1\n      calldatasize\n      sub\n        /* \"--CODEGEN--\":13:15   */\n      0x60\n        /* \"--CODEGEN--\":8:11   */\n      dup2\n        /* \"--CODEGEN--\":5:16   */\n      lt\n        /* \"--CODEGEN--\":2:4   */\n      iszero\n      tag_59\n      jumpi\n        /* \"--CODEGEN--\":29:30   */\n      0x00\n        /* \"--CODEGEN--\":26:27   */\n      dup1\n        /* \"--CODEGEN--\":19:31   */\n      revert\n        /* \"--CODEGEN--\":2:4   */\n    tag_59:\n        /* \"TimeAlly.sol\":21590:22961  function seeBenefitOfAStakingByMonths(... */\n      dup2\n      add\n      swap1\n      dup1\n      dup1\n      calldataload\n      0xffffffffffffffffffffffffffffffffffffffff\n      and\n      swap1\n      0x20\n      add\n      swap1\n      swap3\n      swap2\n      swap1\n      dup1\n      calldataload\n      swap1\n      0x20\n      add\n      swap1\n      swap3\n      swap2\n      swap1\n      dup1\n      calldataload\n      swap1\n      0x20\n      add\n      swap1\n        /* \"--CODEGEN--\":21:32   */\n      0x0100000000\n        /* \"--CODEGEN--\":8:19   */\n      dup2\n        /* \"--CODEGEN--\":5:33   */\n      gt\n        /* \"--CODEGEN--\":2:4   */\n      iszero\n      tag_60\n      jumpi\n        /* \"--CODEGEN--\":46:47   */\n      0x00\n        /* \"--CODEGEN--\":43:44   */\n      dup1\n        /* \"--CODEGEN--\":36:48   */\n      revert\n        /* \"--CODEGEN--\":2:4   */\n    tag_60:\n        /* \"TimeAlly.sol\":21590:22961  function seeBenefitOfAStakingByMonths(... */\n      dup3\n      add\n        /* \"--CODEGEN--\":35:44   */\n      dup4\n        /* \"--CODEGEN--\":28:32   */\n      0x20\n        /* \"--CODEGEN--\":12:26   */\n      dup3\n        /* \"--CODEGEN--\":8:33   */\n      add\n        /* \"--CODEGEN--\":5:45   */\n      gt\n        /* \"--CODEGEN--\":2:4   */\n      iszero\n      tag_61\n      jumpi\n        /* \"--CODEGEN--\":58:59   */\n      0x00\n        /* \"--CODEGEN--\":55:56   */\n      dup1\n        /* \"--CODEGEN--\":48:60   */\n      revert\n        /* \"--CODEGEN--\":2:4   */\n    tag_61:\n        /* \"TimeAlly.sol\":21590:22961  function seeBenefitOfAStakingByMonths(... */\n      dup1\n      calldataload\n      swap1\n      0x20\n      add\n      swap2\n        /* \"--CODEGEN--\":101:110   */\n      dup5\n        /* \"--CODEGEN--\":95:97   */\n      0x20\n        /* \"--CODEGEN--\":81:93   */\n      dup4\n        /* \"--CODEGEN--\":77:98   */\n      mul\n        /* \"--CODEGEN--\":67:75   */\n      dup5\n        /* \"--CODEGEN--\":63:99   */\n      add\n        /* \"--CODEGEN--\":60:111   */\n      gt\n        /* \"--CODEGEN--\":39:50   */\n      0x0100000000\n        /* \"--CODEGEN--\":25:37   */\n      dup4\n        /* \"--CODEGEN--\":22:51   */\n      gt\n        /* \"--CODEGEN--\":11:119   */\n      or\n        /* \"--CODEGEN--\":8:10   */\n      iszero\n      tag_62\n      jumpi\n        /* \"--CODEGEN--\":132:133   */\n      0x00\n        /* \"--CODEGEN--\":129:130   */\n      dup1\n        /* \"--CODEGEN--\":122:134   */\n      revert\n        /* \"--CODEGEN--\":8:10   */\n    tag_62:\n        /* \"TimeAlly.sol\":21590:22961  function seeBenefitOfAStakingByMonths(... */\n      swap2\n      swap1\n      dup1\n      dup1\n      0x20\n      mul\n      0x20\n      add\n      mload(0x40)\n      swap1\n      dup2\n      add\n      0x40\n      mstore\n      dup1\n      swap4\n      swap3\n      swap2\n      swap1\n      dup2\n      dup2\n      mstore\n      0x20\n      add\n      dup4\n      dup4\n      0x20\n      mul\n        /* \"--CODEGEN--\":30:33   */\n      dup1\n        /* \"--CODEGEN--\":22:28   */\n      dup3\n        /* \"--CODEGEN--\":14:20   */\n      dup5\n        /* \"--CODEGEN--\":1:34   */\n      calldatacopy\n        /* \"--CODEGEN--\":99:100   */\n      0x00\n        /* \"--CODEGEN--\":93:96   */\n      dup2\n        /* \"--CODEGEN--\":85:91   */\n      dup5\n        /* \"--CODEGEN--\":81:97   */\n      add\n        /* \"--CODEGEN--\":74:101   */\n      mstore\n        /* \"--CODEGEN--\":137:141   */\n      0x1f\n        /* \"--CODEGEN--\":133:142   */\n      not\n        /* \"--CODEGEN--\":126:130   */\n      0x1f\n        /* \"--CODEGEN--\":121:124   */\n      dup3\n        /* \"--CODEGEN--\":117:131   */\n      add\n        /* \"--CODEGEN--\":113:143   */\n      and\n        /* \"--CODEGEN--\":106:143   */\n      swap1\n      pop\n        /* \"--CODEGEN--\":169:172   */\n      dup1\n        /* \"--CODEGEN--\":161:167   */\n      dup4\n        /* \"--CODEGEN--\":157:173   */\n      add\n        /* \"--CODEGEN--\":147:173   */\n      swap3\n      pop\n        /* \"TimeAlly.sol\":21590:22961  function seeBenefitOfAStakingByMonths(... */\n      pop\n      pop\n      pop\n      pop\n      pop\n      pop\n      swap2\n      swap3\n      swap2\n      swap3\n      swap1\n      pop\n      pop\n      pop\n      tag_63\n      jump\t// in\n    tag_58:\n      mload(0x40)\n      dup1\n      dup3\n      dup2\n      mstore\n      0x20\n      add\n      swap2\n      pop\n      pop\n      mload(0x40)\n      dup1\n      swap2\n      sub\n      swap1\n      return\n        /* \"TimeAlly.sol\":39624:39831  function viewNomination(address _userAddress, uint256 _stakingId, address _nomineeAddress) public view returns (uint256) {... */\n    tag_8:\n      tag_64\n      0x04\n      dup1\n      calldatasize\n      sub\n        /* \"--CODEGEN--\":13:15   */\n      0x60\n        /* \"--CODEGEN--\":8:11   */\n      dup2\n        /* \"--CODEGEN--\":5:16   */\n      lt\n        /* \"--CODEGEN--\":2:4   */\n      iszero\n      tag_65\n      jumpi\n        /* \"--CODEGEN--\":29:30   */\n      0x00\n        /* \"--CODEGEN--\":26:27   */\n      dup1\n        /* \"--CODEGEN--\":19:31   */\n      revert\n        /* \"--CODEGEN--\":2:4   */\n    tag_65:\n        /* \"TimeAlly.sol\":39624:39831  function viewNomination(address _userAddress, uint256 _stakingId, address _nomineeAddress) public view returns (uint256) {... */\n      dup2\n      add\n      swap1\n      dup1\n      dup1\n      calldataload\n      0xffffffffffffffffffffffffffffffffffffffff\n      and\n      swap1\n      0x20\n      add\n      swap1\n      swap3\n      swap2\n      swap1\n      dup1\n      calldataload\n      swap1\n      0x20\n      add\n      swap1\n      swap3\n      swap2\n      swap1\n      dup1\n      calldataload\n      0xffffffffffffffffffffffffffffffffffffffff\n      and\n      swap1\n      0x20\n      add\n      swap1\n      swap3\n      swap2\n      swap1\n      pop\n      pop\n      pop\n      tag_66\n      jump\t// in\n    tag_64:\n      mload(0x40)\n      dup1\n      dup3\n      dup2\n      mstore\n      0x20\n      add\n      swap2\n      pop\n      pop\n      mload(0x40)\n      dup1\n      swap2\n      sub\n      swap1\n      return\n        /* \"TimeAlly.sol\":2923:2978  mapping (uint256 => uint256) public totalActiveStakings */\n    tag_9:\n      tag_67\n      0x04\n      dup1\n      calldatasize\n      sub\n        /* \"--CODEGEN--\":13:15   */\n      0x20\n        /* \"--CODEGEN--\":8:11   */\n      dup2\n        /* \"--CODEGEN--\":5:16   */\n      lt\n        /* \"--CODEGEN--\":2:4   */\n      iszero\n      tag_68\n      jumpi\n        /* \"--CODEGEN--\":29:30   */\n      0x00\n        /* \"--CODEGEN--\":26:27   */\n      dup1\n        /* \"--CODEGEN--\":19:31   */\n      revert\n        /* \"--CODEGEN--\":2:4   */\n    tag_68:\n        /* \"TimeAlly.sol\":2923:2978  mapping (uint256 => uint256) public totalActiveStakings */\n      dup2\n      add\n      swap1\n      dup1\n      dup1\n      calldataload\n      swap1\n      0x20\n      add\n      swap1\n      swap3\n      swap2\n      swap1\n      pop\n      pop\n      pop\n      tag_69\n      jump\t// in\n    tag_67:\n      mload(0x40)\n      dup1\n      dup3\n      dup2\n      mstore\n      0x20\n      add\n      swap2\n      pop\n      pop\n      mload(0x40)\n      dup1\n      swap2\n      sub\n      swap1\n      return\n        /* \"TimeAlly.sol\":41368:41835  function removeNominee(uint256 _stakingId, address _nomineeAddress) public {... */\n    tag_10:\n      tag_70\n      0x04\n      dup1\n      calldatasize\n      sub\n        /* \"--CODEGEN--\":13:15   */\n      0x40\n        /* \"--CODEGEN--\":8:11   */\n      dup2\n        /* \"--CODEGEN--\":5:16   */\n      lt\n        /* \"--CODEGEN--\":2:4   */\n      iszero\n      tag_71\n      jumpi\n        /* \"--CODEGEN--\":29:30   */\n      0x00\n        /* \"--CODEGEN--\":26:27   */\n      dup1\n        /* \"--CODEGEN--\":19:31   */\n      revert\n        /* \"--CODEGEN--\":2:4   */\n    tag_71:\n        /* \"TimeAlly.sol\":41368:41835  function removeNominee(uint256 _stakingId, address _nomineeAddress) public {... */\n      dup2\n      add\n      swap1\n      dup1\n      dup1\n      calldataload\n      swap1\n      0x20\n      add\n      swap1\n      swap3\n      swap2\n      swap1\n      dup1\n      calldataload\n      0xffffffffffffffffffffffffffffffffffffffff\n      and\n      swap1\n      0x20\n      add\n      swap1\n      swap3\n      swap2\n      swap1\n      pop\n      pop\n      pop\n      tag_72\n      jump\t// in\n    tag_70:\n      stop\n        /* \"TimeAlly.sol\":10631:10851  function topupRewardBucket(uint256 _exaEsAmount) public {... */\n    tag_11:\n      tag_73\n      0x04\n      dup1\n      calldatasize\n      sub\n        /* \"--CODEGEN--\":13:15   */\n      0x20\n        /* \"--CODEGEN--\":8:11   */\n      dup2\n        /* \"--CODEGEN--\":5:16   */\n      lt\n        /* \"--CODEGEN--\":2:4   */\n      iszero\n      tag_74\n      jumpi\n        /* \"--CODEGEN--\":29:30   */\n      0x00\n        /* \"--CODEGEN--\":26:27   */\n      dup1\n        /* \"--CODEGEN--\":19:31   */\n      revert\n        /* \"--CODEGEN--\":2:4   */\n    tag_74:\n        /* \"TimeAlly.sol\":10631:10851  function topupRewardBucket(uint256 _exaEsAmount) public {... */\n      dup2\n      add\n      swap1\n      dup1\n      dup1\n      calldataload\n      swap1\n      0x20\n      add\n      swap1\n      swap3\n      swap2\n      swap1\n      pop\n      pop\n      pop\n      tag_75\n      jump\t// in\n    tag_73:\n      stop\n        /* \"TimeAlly.sol\":2618:2651  StakingPlan[] public stakingPlans */\n    tag_12:\n      tag_76\n      0x04\n      dup1\n      calldatasize\n      sub\n        /* \"--CODEGEN--\":13:15   */\n      0x20\n        /* \"--CODEGEN--\":8:11   */\n      dup2\n        /* \"--CODEGEN--\":5:16   */\n      lt\n        /* \"--CODEGEN--\":2:4   */\n      iszero\n      tag_77\n      jumpi\n        /* \"--CODEGEN--\":29:30   */\n      0x00\n        /* \"--CODEGEN--\":26:27   */\n      dup1\n        /* \"--CODEGEN--\":19:31   */\n      revert\n        /* \"--CODEGEN--\":2:4   */\n    tag_77:\n        /* \"TimeAlly.sol\":2618:2651  StakingPlan[] public stakingPlans */\n      dup2\n      add\n      swap1\n      dup1\n      dup1\n      calldataload\n      swap1\n      0x20\n      add\n      swap1\n      swap3\n      swap2\n      swap1\n      pop\n      pop\n      pop\n      tag_78\n      jump\t// in\n    tag_76:\n      mload(0x40)\n      dup1\n      dup5\n      dup2\n      mstore\n      0x20\n      add\n      dup4\n      dup2\n      mstore\n      0x20\n      add\n      dup3\n      iszero\n      iszero\n      iszero\n      iszero\n      dup2\n      mstore\n      0x20\n      add\n      swap4\n      pop\n      pop\n      pop\n      pop\n      mload(0x40)\n      dup1\n      swap2\n      sub\n      swap1\n      return\n        /* \"TimeAlly.sol\":5861:6197  function createStakingPlan(uint256 _months, uint256 _fractionFrom15, bool _isUrgentLoanAllowed) public onlyOwner {... */\n    tag_13:\n      tag_79\n      0x04\n      dup1\n      calldatasize\n      sub\n        /* \"--CODEGEN--\":13:15   */\n      0x60\n        /* \"--CODEGEN--\":8:11   */\n      dup2\n        /* \"--CODEGEN--\":5:16   */\n      lt\n        /* \"--CODEGEN--\":2:4   */\n      iszero\n      tag_80\n      jumpi\n        /* \"--CODEGEN--\":29:30   */\n      0x00\n        /* \"--CODEGEN--\":26:27   */\n      dup1\n        /* \"--CODEGEN--\":19:31   */\n      revert\n        /* \"--CODEGEN--\":2:4   */\n    tag_80:\n        /* \"TimeAlly.sol\":5861:6197  function createStakingPlan(uint256 _months, uint256 _fractionFrom15, bool _isUrgentLoanAllowed) public onlyOwner {... */\n      dup2\n      add\n      swap1\n      dup1\n      dup1\n      calldataload\n      swap1\n      0x20\n      add\n      swap1\n      swap3\n      swap2\n      swap1\n      dup1\n      calldataload\n      swap1\n      0x20\n      add\n      swap1\n      swap3\n      swap2\n      swap1\n      dup1\n      calldataload\n      iszero\n      iszero\n      swap1\n      0x20\n      add\n      swap1\n      swap3\n      swap2\n      swap1\n      pop\n      pop\n      pop\n      tag_81\n      jump\t// in\n    tag_79:\n      stop\n        /* \"TimeAlly.sol\":2817:2864  mapping(address => uint256) public launchReward */\n    tag_14:\n      tag_82\n      0x04\n      dup1\n      calldatasize\n      sub\n        /* \"--CODEGEN--\":13:15   */\n      0x20\n        /* \"--CODEGEN--\":8:11   */\n      dup2\n        /* \"--CODEGEN--\":5:16   */\n      lt\n        /* \"--CODEGEN--\":2:4   */\n      iszero\n      tag_83\n      jumpi\n        /* \"--CODEGEN--\":29:30   */\n      0x00\n        /* \"--CODEGEN--\":26:27   */\n      dup1\n        /* \"--CODEGEN--\":19:31   */\n      revert\n        /* \"--CODEGEN--\":2:4   */\n    tag_83:\n        /* \"TimeAlly.sol\":2817:2864  mapping(address => uint256) public launchReward */\n      dup2\n      add\n      swap1\n      dup1\n      dup1\n      calldataload\n      0xffffffffffffffffffffffffffffffffffffffff\n      and\n      swap1\n      0x20\n      add\n      swap1\n      swap3\n      swap2\n      swap1\n      pop\n      pop\n      pop\n      tag_84\n      jump\t// in\n    tag_82:\n      mload(0x40)\n      dup1\n      dup3\n      dup2\n      mstore\n      0x20\n      add\n      swap2\n      pop\n      pop\n      mload(0x40)\n      dup1\n      swap2\n      sub\n      swap1\n      return\n        /* \"TimeAlly.sol\":11099:11469  function giveLaunchReward(address[] memory _addresses, uint256[] memory _exaEsAmountArray) public onlyOwner {... */\n    tag_15:\n      tag_85\n      0x04\n      dup1\n      calldatasize\n      sub\n        /* \"--CODEGEN--\":13:15   */\n      0x40\n        /* \"--CODEGEN--\":8:11   */\n      dup2\n        /* \"--CODEGEN--\":5:16   */\n      lt\n        /* \"--CODEGEN--\":2:4   */\n      iszero\n      tag_86\n      jumpi\n        /* \"--CODEGEN--\":29:30   */\n      0x00\n        /* \"--CODEGEN--\":26:27   */\n      dup1\n        /* \"--CODEGEN--\":19:31   */\n      revert\n        /* \"--CODEGEN--\":2:4   */\n    tag_86:\n        /* \"TimeAlly.sol\":11099:11469  function giveLaunchReward(address[] memory _addresses, uint256[] memory _exaEsAmountArray) public onlyOwner {... */\n      dup2\n      add\n      swap1\n      dup1\n      dup1\n      calldataload\n      swap1\n      0x20\n      add\n      swap1\n        /* \"--CODEGEN--\":21:32   */\n      0x0100000000\n        /* \"--CODEGEN--\":8:19   */\n      dup2\n        /* \"--CODEGEN--\":5:33   */\n      gt\n        /* \"--CODEGEN--\":2:4   */\n      iszero\n      tag_87\n      jumpi\n        /* \"--CODEGEN--\":46:47   */\n      0x00\n        /* \"--CODEGEN--\":43:44   */\n      dup1\n        /* \"--CODEGEN--\":36:48   */\n      revert\n        /* \"--CODEGEN--\":2:4   */\n    tag_87:\n        /* \"TimeAlly.sol\":11099:11469  function giveLaunchReward(address[] memory _addresses, uint256[] memory _exaEsAmountArray) public onlyOwner {... */\n      dup3\n      add\n        /* \"--CODEGEN--\":35:44   */\n      dup4\n        /* \"--CODEGEN--\":28:32   */\n      0x20\n        /* \"--CODEGEN--\":12:26   */\n      dup3\n        /* \"--CODEGEN--\":8:33   */\n      add\n        /* \"--CODEGEN--\":5:45   */\n      gt\n        /* \"--CODEGEN--\":2:4   */\n      iszero\n      tag_88\n      jumpi\n        /* \"--CODEGEN--\":58:59   */\n      0x00\n        /* \"--CODEGEN--\":55:56   */\n      dup1\n        /* \"--CODEGEN--\":48:60   */\n      revert\n        /* \"--CODEGEN--\":2:4   */\n    tag_88:\n        /* \"TimeAlly.sol\":11099:11469  function giveLaunchReward(address[] memory _addresses, uint256[] memory _exaEsAmountArray) public onlyOwner {... */\n      dup1\n      calldataload\n      swap1\n      0x20\n      add\n      swap2\n        /* \"--CODEGEN--\":101:110   */\n      dup5\n        /* \"--CODEGEN--\":95:97   */\n      0x20\n        /* \"--CODEGEN--\":81:93   */\n      dup4\n        /* \"--CODEGEN--\":77:98   */\n      mul\n        /* \"--CODEGEN--\":67:75   */\n      dup5\n        /* \"--CODEGEN--\":63:99   */\n      add\n        /* \"--CODEGEN--\":60:111   */\n      gt\n        /* \"--CODEGEN--\":39:50   */\n      0x0100000000\n        /* \"--CODEGEN--\":25:37   */\n      dup4\n        /* \"--CODEGEN--\":22:51   */\n      gt\n        /* \"--CODEGEN--\":11:119   */\n      or\n        /* \"--CODEGEN--\":8:10   */\n      iszero\n      tag_89\n      jumpi\n        /* \"--CODEGEN--\":132:133   */\n      0x00\n        /* \"--CODEGEN--\":129:130   */\n      dup1\n        /* \"--CODEGEN--\":122:134   */\n      revert\n        /* \"--CODEGEN--\":8:10   */\n    tag_89:\n        /* \"TimeAlly.sol\":11099:11469  function giveLaunchReward(address[] memory _addresses, uint256[] memory _exaEsAmountArray) public onlyOwner {... */\n      swap2\n      swap1\n      dup1\n      dup1\n      0x20\n      mul\n      0x20\n      add\n      mload(0x40)\n      swap1\n      dup2\n      add\n      0x40\n      mstore\n      dup1\n      swap4\n      swap3\n      swap2\n      swap1\n      dup2\n      dup2\n      mstore\n      0x20\n      add\n      dup4\n      dup4\n      0x20\n      mul\n        /* \"--CODEGEN--\":30:33   */\n      dup1\n        /* \"--CODEGEN--\":22:28   */\n      dup3\n        /* \"--CODEGEN--\":14:20   */\n      dup5\n        /* \"--CODEGEN--\":1:34   */\n      calldatacopy\n        /* \"--CODEGEN--\":99:100   */\n      0x00\n        /* \"--CODEGEN--\":93:96   */\n      dup2\n        /* \"--CODEGEN--\":85:91   */\n      dup5\n        /* \"--CODEGEN--\":81:97   */\n      add\n        /* \"--CODEGEN--\":74:101   */\n      mstore\n        /* \"--CODEGEN--\":137:141   */\n      0x1f\n        /* \"--CODEGEN--\":133:142   */\n      not\n        /* \"--CODEGEN--\":126:130   */\n      0x1f\n        /* \"--CODEGEN--\":121:124   */\n      dup3\n        /* \"--CODEGEN--\":117:131   */\n      add\n        /* \"--CODEGEN--\":113:143   */\n      and\n        /* \"--CODEGEN--\":106:143   */\n      swap1\n      pop\n        /* \"--CODEGEN--\":169:172   */\n      dup1\n        /* \"--CODEGEN--\":161:167   */\n      dup4\n        /* \"--CODEGEN--\":157:173   */\n      add\n        /* \"--CODEGEN--\":147:173   */\n      swap3\n      pop\n        /* \"TimeAlly.sol\":11099:11469  function giveLaunchReward(address[] memory _addresses, uint256[] memory _exaEsAmountArray) public onlyOwner {... */\n      pop\n      pop\n      pop\n      pop\n      pop\n      pop\n      swap2\n      swap3\n      swap2\n      swap3\n      swap1\n      dup1\n      calldataload\n      swap1\n      0x20\n      add\n      swap1\n        /* \"--CODEGEN--\":21:32   */\n      0x0100000000\n        /* \"--CODEGEN--\":8:19   */\n      dup2\n        /* \"--CODEGEN--\":5:33   */\n      gt\n        /* \"--CODEGEN--\":2:4   */\n      iszero\n      tag_90\n      jumpi\n        /* \"--CODEGEN--\":46:47   */\n      0x00\n        /* \"--CODEGEN--\":43:44   */\n      dup1\n        /* \"--CODEGEN--\":36:48   */\n      revert\n        /* \"--CODEGEN--\":2:4   */\n    tag_90:\n        /* \"TimeAlly.sol\":11099:11469  function giveLaunchReward(address[] memory _addresses, uint256[] memory _exaEsAmountArray) public onlyOwner {... */\n      dup3\n      add\n        /* \"--CODEGEN--\":35:44   */\n      dup4\n        /* \"--CODEGEN--\":28:32   */\n      0x20\n        /* \"--CODEGEN--\":12:26   */\n      dup3\n        /* \"--CODEGEN--\":8:33   */\n      add\n        /* \"--CODEGEN--\":5:45   */\n      gt\n        /* \"--CODEGEN--\":2:4   */\n      iszero\n      tag_91\n      jumpi\n        /* \"--CODEGEN--\":58:59   */\n      0x00\n        /* \"--CODEGEN--\":55:56   */\n      dup1\n        /* \"--CODEGEN--\":48:60   */\n      revert\n        /* \"--CODEGEN--\":2:4   */\n    tag_91:\n        /* \"TimeAlly.sol\":11099:11469  function giveLaunchReward(address[] memory _addresses, uint256[] memory _exaEsAmountArray) public onlyOwner {... */\n      dup1\n      calldataload\n      swap1\n      0x20\n      add\n      swap2\n        /* \"--CODEGEN--\":101:110   */\n      dup5\n        /* \"--CODEGEN--\":95:97   */\n      0x20\n        /* \"--CODEGEN--\":81:93   */\n      dup4\n        /* \"--CODEGEN--\":77:98   */\n      mul\n        /* \"--CODEGEN--\":67:75   */\n      dup5\n        /* \"--CODEGEN--\":63:99   */\n      add\n        /* \"--CODEGEN--\":60:111   */\n      gt\n        /* \"--CODEGEN--\":39:50   */\n      0x0100000000\n        /* \"--CODEGEN--\":25:37   */\n      dup4\n        /* \"--CODEGEN--\":22:51   */\n      gt\n        /* \"--CODEGEN--\":11:119   */\n      or\n        /* \"--CODEGEN--\":8:10   */\n      iszero\n      tag_92\n      jumpi\n        /* \"--CODEGEN--\":132:133   */\n      0x00\n        /* \"--CODEGEN--\":129:130   */\n      dup1\n        /* \"--CODEGEN--\":122:134   */\n      revert\n        /* \"--CODEGEN--\":8:10   */\n    tag_92:\n        /* \"TimeAlly.sol\":11099:11469  function giveLaunchReward(address[] memory _addresses, uint256[] memory _exaEsAmountArray) public onlyOwner {... */\n      swap2\n      swap1\n      dup1\n      dup1\n      0x20\n      mul\n      0x20\n      add\n      mload(0x40)\n      swap1\n      dup2\n      add\n      0x40\n      mstore\n      dup1\n      swap4\n      swap3\n      swap2\n      swap1\n      dup2\n      dup2\n      mstore\n      0x20\n      add\n      dup4\n      dup4\n      0x20\n      mul\n        /* \"--CODEGEN--\":30:33   */\n      dup1\n        /* \"--CODEGEN--\":22:28   */\n      dup3\n        /* \"--CODEGEN--\":14:20   */\n      dup5\n        /* \"--CODEGEN--\":1:34   */\n      calldatacopy\n        /* \"--CODEGEN--\":99:100   */\n      0x00\n        /* \"--CODEGEN--\":93:96   */\n      dup2\n        /* \"--CODEGEN--\":85:91   */\n      dup5\n        /* \"--CODEGEN--\":81:97   */\n      add\n        /* \"--CODEGEN--\":74:101   */\n      mstore\n        /* \"--CODEGEN--\":137:141   */\n      0x1f\n        /* \"--CODEGEN--\":133:142   */\n      not\n        /* \"--CODEGEN--\":126:130   */\n      0x1f\n        /* \"--CODEGEN--\":121:124   */\n      dup3\n        /* \"--CODEGEN--\":117:131   */\n      add\n        /* \"--CODEGEN--\":113:143   */\n      and\n        /* \"--CODEGEN--\":106:143   */\n      swap1\n      pop\n        /* \"--CODEGEN--\":169:172   */\n      dup1\n        /* \"--CODEGEN--\":161:167   */\n      dup4\n        /* \"--CODEGEN--\":157:173   */\n      add\n        /* \"--CODEGEN--\":147:173   */\n      swap3\n      pop\n        /* \"TimeAlly.sol\":11099:11469  function giveLaunchReward(address[] memory _addresses, uint256[] memory _exaEsAmountArray) public onlyOwner {... */\n      pop\n      pop\n      pop\n      pop\n      pop\n      pop\n      swap2\n      swap3\n      swap2\n      swap3\n      swap1\n      pop\n      pop\n      pop\n      tag_93\n      jump\t// in\n    tag_85:\n      stop\n        /* \"TimeAlly.sol\":2309:2329  address public owner */\n    tag_16:\n      tag_94\n      tag_95\n      jump\t// in\n    tag_94:\n      mload(0x40)\n      dup1\n      dup3\n      0xffffffffffffffffffffffffffffffffffffffff\n      and\n      0xffffffffffffffffffffffffffffffffffffffff\n      and\n      dup2\n      mstore\n      0x20\n      add\n      swap2\n      pop\n      pop\n      mload(0x40)\n      dup1\n      swap2\n      sub\n      swap1\n      return\n        /* \"TimeAlly.sol\":42057:45399  function nomineeWithdraw(address _userAddress, uint256 _stakingId) public {... */\n    tag_17:\n      tag_96\n      0x04\n      dup1\n      calldatasize\n      sub\n        /* \"--CODEGEN--\":13:15   */\n      0x40\n        /* \"--CODEGEN--\":8:11   */\n      dup2\n        /* \"--CODEGEN--\":5:16   */\n      lt\n        /* \"--CODEGEN--\":2:4   */\n      iszero\n      tag_97\n      jumpi\n        /* \"--CODEGEN--\":29:30   */\n      0x00\n        /* \"--CODEGEN--\":26:27   */\n      dup1\n        /* \"--CODEGEN--\":19:31   */\n      revert\n        /* \"--CODEGEN--\":2:4   */\n    tag_97:\n        /* \"TimeAlly.sol\":42057:45399  function nomineeWithdraw(address _userAddress, uint256 _stakingId) public {... */\n      dup2\n      add\n      swap1\n      dup1\n      dup1\n      calldataload\n      0xffffffffffffffffffffffffffffffffffffffff\n      and\n      swap1\n      0x20\n      add\n      swap1\n      swap3\n      swap2\n      swap1\n      dup1\n      calldataload\n      swap1\n      0x20\n      add\n      swap1\n      swap3\n      swap2\n      swap1\n      pop\n      pop\n      pop\n      tag_98\n      jump\t// in\n    tag_96:\n      stop\n        /* \"TimeAlly.sol\":2772:2811  mapping(address => Loan[]) public loans */\n    tag_18:\n      tag_99\n      0x04\n      dup1\n      calldatasize\n      sub\n        /* \"--CODEGEN--\":13:15   */\n      0x40\n        /* \"--CODEGEN--\":8:11   */\n      dup2\n        /* \"--CODEGEN--\":5:16   */\n      lt\n        /* \"--CODEGEN--\":2:4   */\n      iszero\n      tag_100\n      jumpi\n        /* \"--CODEGEN--\":29:30   */\n      0x00\n        /* \"--CODEGEN--\":26:27   */\n      dup1\n        /* \"--CODEGEN--\":19:31   */\n      revert\n        /* \"--CODEGEN--\":2:4   */\n    tag_100:\n        /* \"TimeAlly.sol\":2772:2811  mapping(address => Loan[]) public loans */\n      dup2\n      add\n      swap1\n      dup1\n      dup1\n      calldataload\n      0xffffffffffffffffffffffffffffffffffffffff\n      and\n      swap1\n      0x20\n      add\n      swap1\n      swap3\n      swap2\n      swap1\n      dup1\n      calldataload\n      swap1\n      0x20\n      add\n      swap1\n      swap3\n      swap2\n      swap1\n      pop\n      pop\n      pop\n      tag_101\n      jump\t// in\n    tag_99:\n      mload(0x40)\n      dup1\n      dup6\n      dup2\n      mstore\n      0x20\n      add\n      dup5\n      dup2\n      mstore\n      0x20\n      add\n      dup4\n      dup2\n      mstore\n      0x20\n      add\n      dup3\n      dup2\n      mstore\n      0x20\n      add\n      swap5\n      pop\n      pop\n      pop\n      pop\n      pop\n      mload(0x40)\n      dup1\n      swap2\n      sub\n      swap1\n      return\n        /* \"TimeAlly.sol\":23191:24894  function withdrawBenefitOfAStakingByMonths(... */\n    tag_19:\n      tag_102\n      0x04\n      dup1\n      calldatasize\n      sub\n        /* \"--CODEGEN--\":13:15   */\n      0x40\n        /* \"--CODEGEN--\":8:11   */\n      dup2\n        /* \"--CODEGEN--\":5:16   */\n      lt\n        /* \"--CODEGEN--\":2:4   */\n      iszero\n      tag_103\n      jumpi\n        /* \"--CODEGEN--\":29:30   */\n      0x00\n        /* \"--CODEGEN--\":26:27   */\n      dup1\n        /* \"--CODEGEN--\":19:31   */\n      revert\n        /* \"--CODEGEN--\":2:4   */\n    tag_103:\n        /* \"TimeAlly.sol\":23191:24894  function withdrawBenefitOfAStakingByMonths(... */\n      dup2\n      add\n      swap1\n      dup1\n      dup1\n      calldataload\n      swap1\n      0x20\n      add\n      swap1\n      swap3\n      swap2\n      swap1\n      dup1\n      calldataload\n      swap1\n      0x20\n      add\n      swap1\n        /* \"--CODEGEN--\":21:32   */\n      0x0100000000\n        /* \"--CODEGEN--\":8:19   */\n      dup2\n        /* \"--CODEGEN--\":5:33   */\n      gt\n        /* \"--CODEGEN--\":2:4   */\n      iszero\n      tag_104\n      jumpi\n        /* \"--CODEGEN--\":46:47   */\n      0x00\n        /* \"--CODEGEN--\":43:44   */\n      dup1\n        /* \"--CODEGEN--\":36:48   */\n      revert\n        /* \"--CODEGEN--\":2:4   */\n    tag_104:\n        /* \"TimeAlly.sol\":23191:24894  function withdrawBenefitOfAStakingByMonths(... */\n      dup3\n      add\n        /* \"--CODEGEN--\":35:44   */\n      dup4\n        /* \"--CODEGEN--\":28:32   */\n      0x20\n        /* \"--CODEGEN--\":12:26   */\n      dup3\n        /* \"--CODEGEN--\":8:33   */\n      add\n        /* \"--CODEGEN--\":5:45   */\n      gt\n        /* \"--CODEGEN--\":2:4   */\n      iszero\n      tag_105\n      jumpi\n        /* \"--CODEGEN--\":58:59   */\n      0x00\n        /* \"--CODEGEN--\":55:56   */\n      dup1\n        /* \"--CODEGEN--\":48:60   */\n      revert\n        /* \"--CODEGEN--\":2:4   */\n    tag_105:\n        /* \"TimeAlly.sol\":23191:24894  function withdrawBenefitOfAStakingByMonths(... */\n      dup1\n      calldataload\n      swap1\n      0x20\n      add\n      swap2\n        /* \"--CODEGEN--\":101:110   */\n      dup5\n        /* \"--CODEGEN--\":95:97   */\n      0x20\n        /* \"--CODEGEN--\":81:93   */\n      dup4\n        /* \"--CODEGEN--\":77:98   */\n      mul\n        /* \"--CODEGEN--\":67:75   */\n      dup5\n        /* \"--CODEGEN--\":63:99   */\n      add\n        /* \"--CODEGEN--\":60:111   */\n      gt\n        /* \"--CODEGEN--\":39:50   */\n      0x0100000000\n        /* \"--CODEGEN--\":25:37   */\n      dup4\n        /* \"--CODEGEN--\":22:51   */\n      gt\n        /* \"--CODEGEN--\":11:119   */\n      or\n        /* \"--CODEGEN--\":8:10   */\n      iszero\n      tag_106\n      jumpi\n        /* \"--CODEGEN--\":132:133   */\n      0x00\n        /* \"--CODEGEN--\":129:130   */\n      dup1\n        /* \"--CODEGEN--\":122:134   */\n      revert\n        /* \"--CODEGEN--\":8:10   */\n    tag_106:\n        /* \"TimeAlly.sol\":23191:24894  function withdrawBenefitOfAStakingByMonths(... */\n      swap2\n      swap1\n      dup1\n      dup1\n      0x20\n      mul\n      0x20\n      add\n      mload(0x40)\n      swap1\n      dup2\n      add\n      0x40\n      mstore\n      dup1\n      swap4\n      swap3\n      swap2\n      swap1\n      dup2\n      dup2\n      mstore\n      0x20\n      add\n      dup4\n      dup4\n      0x20\n      mul\n        /* \"--CODEGEN--\":30:33   */\n      dup1\n        /* \"--CODEGEN--\":22:28   */\n      dup3\n        /* \"--CODEGEN--\":14:20   */\n      dup5\n        /* \"--CODEGEN--\":1:34   */\n      calldatacopy\n        /* \"--CODEGEN--\":99:100   */\n      0x00\n        /* \"--CODEGEN--\":93:96   */\n      dup2\n        /* \"--CODEGEN--\":85:91   */\n      dup5\n        /* \"--CODEGEN--\":81:97   */\n      add\n        /* \"--CODEGEN--\":74:101   */\n      mstore\n        /* \"--CODEGEN--\":137:141   */\n      0x1f\n        /* \"--CODEGEN--\":133:142   */\n      not\n        /* \"--CODEGEN--\":126:130   */\n      0x1f\n        /* \"--CODEGEN--\":121:124   */\n      dup3\n        /* \"--CODEGEN--\":117:131   */\n      add\n        /* \"--CODEGEN--\":113:143   */\n      and\n        /* \"--CODEGEN--\":106:143   */\n      swap1\n      pop\n        /* \"--CODEGEN--\":169:172   */\n      dup1\n        /* \"--CODEGEN--\":161:167   */\n      dup4\n        /* \"--CODEGEN--\":157:173   */\n      add\n        /* \"--CODEGEN--\":147:173   */\n      swap3\n      pop\n        /* \"TimeAlly.sol\":23191:24894  function withdrawBenefitOfAStakingByMonths(... */\n      pop\n      pop\n      pop\n      pop\n      pop\n      pop\n      swap2\n      swap3\n      swap2\n      swap3\n      swap1\n      pop\n      pop\n      pop\n      tag_107\n      jump\t// in\n    tag_102:\n      stop\n        /* \"TimeAlly.sol\":38698:39325  function addNominee(uint256 _stakingId, address _nomineeAddress, uint256 _shares) public {... */\n    tag_20:\n      tag_108\n      0x04\n      dup1\n      calldatasize\n      sub\n        /* \"--CODEGEN--\":13:15   */\n      0x60\n        /* \"--CODEGEN--\":8:11   */\n      dup2\n        /* \"--CODEGEN--\":5:16   */\n      lt\n        /* \"--CODEGEN--\":2:4   */\n      iszero\n      tag_109\n      jumpi\n        /* \"--CODEGEN--\":29:30   */\n      0x00\n        /* \"--CODEGEN--\":26:27   */\n      dup1\n        /* \"--CODEGEN--\":19:31   */\n      revert\n        /* \"--CODEGEN--\":2:4   */\n    tag_109:\n        /* \"TimeAlly.sol\":38698:39325  function addNominee(uint256 _stakingId, address _nomineeAddress, uint256 _shares) public {... */\n      dup2\n      add\n      swap1\n      dup1\n      dup1\n      calldataload\n      swap1\n      0x20\n      add\n      swap1\n      swap3\n      swap2\n      swap1\n      dup1\n      calldataload\n      0xffffffffffffffffffffffffffffffffffffffff\n      and\n      swap1\n      0x20\n      add\n      swap1\n      swap3\n      swap2\n      swap1\n      dup1\n      calldataload\n      swap1\n      0x20\n      add\n      swap1\n      swap3\n      swap2\n      swap1\n      pop\n      pop\n      pop\n      tag_110\n      jump\t// in\n    tag_108:\n      stop\n        /* \"TimeAlly.sol\":9414:9554  function getNumberOfStakingsByUser(address _userAddress) public view returns (uint256) {... */\n    tag_21:\n      tag_111\n      0x04\n      dup1\n      calldatasize\n      sub\n        /* \"--CODEGEN--\":13:15   */\n      0x20\n        /* \"--CODEGEN--\":8:11   */\n      dup2\n        /* \"--CODEGEN--\":5:16   */\n      lt\n        /* \"--CODEGEN--\":2:4   */\n      iszero\n      tag_112\n      jumpi\n        /* \"--CODEGEN--\":29:30   */\n      0x00\n        /* \"--CODEGEN--\":26:27   */\n      dup1\n        /* \"--CODEGEN--\":19:31   */\n      revert\n        /* \"--CODEGEN--\":2:4   */\n    tag_112:\n        /* \"TimeAlly.sol\":9414:9554  function getNumberOfStakingsByUser(address _userAddress) public view returns (uint256) {... */\n      dup2\n      add\n      swap1\n      dup1\n      dup1\n      calldataload\n      0xffffffffffffffffffffffffffffffffffffffff\n      and\n      swap1\n      0x20\n      add\n      swap1\n      swap3\n      swap2\n      swap1\n      pop\n      pop\n      pop\n      tag_113\n      jump\t// in\n    tag_111:\n      mload(0x40)\n      dup1\n      dup3\n      dup2\n      mstore\n      0x20\n      add\n      swap2\n      pop\n      pop\n      mload(0x40)\n      dup1\n      swap2\n      sub\n      swap1\n      return\n        /* \"TimeAlly.sol\":2657:2684  LoanPlan[] public loanPlans */\n    tag_22:\n      tag_114\n      0x04\n      dup1\n      calldatasize\n      sub\n        /* \"--CODEGEN--\":13:15   */\n      0x20\n        /* \"--CODEGEN--\":8:11   */\n      dup2\n        /* \"--CODEGEN--\":5:16   */\n      lt\n        /* \"--CODEGEN--\":2:4   */\n      iszero\n      tag_115\n      jumpi\n        /* \"--CODEGEN--\":29:30   */\n      0x00\n        /* \"--CODEGEN--\":26:27   */\n      dup1\n        /* \"--CODEGEN--\":19:31   */\n      revert\n        /* \"--CODEGEN--\":2:4   */\n    tag_115:\n        /* \"TimeAlly.sol\":2657:2684  LoanPlan[] public loanPlans */\n      dup2\n      add\n      swap1\n      dup1\n      dup1\n      calldataload\n      swap1\n      0x20\n      add\n      swap1\n      swap3\n      swap2\n      swap1\n      pop\n      pop\n      pop\n      tag_116\n      jump\t// in\n    tag_114:\n      mload(0x40)\n      dup1\n      dup5\n      dup2\n      mstore\n      0x20\n      add\n      dup4\n      dup2\n      mstore\n      0x20\n      add\n      dup3\n      dup2\n      mstore\n      0x20\n      add\n      swap4\n      pop\n      pop\n      pop\n      pop\n      mload(0x40)\n      dup1\n      swap2\n      sub\n      swap1\n      return\n        /* \"TimeAlly.sol\":31398:34601  function takeLoanOnSelfStaking(uint256 _loanPlanId, uint256 _exaEsAmount, uint256[] memory _stakingIds) public {... */\n    tag_23:\n      tag_117\n      0x04\n      dup1\n      calldatasize\n      sub\n        /* \"--CODEGEN--\":13:15   */\n      0x60\n        /* \"--CODEGEN--\":8:11   */\n      dup2\n        /* \"--CODEGEN--\":5:16   */\n      lt\n        /* \"--CODEGEN--\":2:4   */\n      iszero\n      tag_118\n      jumpi\n        /* \"--CODEGEN--\":29:30   */\n      0x00\n        /* \"--CODEGEN--\":26:27   */\n      dup1\n        /* \"--CODEGEN--\":19:31   */\n      revert\n        /* \"--CODEGEN--\":2:4   */\n    tag_118:\n        /* \"TimeAlly.sol\":31398:34601  function takeLoanOnSelfStaking(uint256 _loanPlanId, uint256 _exaEsAmount, uint256[] memory _stakingIds) public {... */\n      dup2\n      add\n      swap1\n      dup1\n      dup1\n      calldataload\n      swap1\n      0x20\n      add\n      swap1\n      swap3\n      swap2\n      swap1\n      dup1\n      calldataload\n      swap1\n      0x20\n      add\n      swap1\n      swap3\n      swap2\n      swap1\n      dup1\n      calldataload\n      swap1\n      0x20\n      add\n      swap1\n        /* \"--CODEGEN--\":21:32   */\n      0x0100000000\n        /* \"--CODEGEN--\":8:19   */\n      dup2\n        /* \"--CODEGEN--\":5:33   */\n      gt\n        /* \"--CODEGEN--\":2:4   */\n      iszero\n      tag_119\n      jumpi\n        /* \"--CODEGEN--\":46:47   */\n      0x00\n        /* \"--CODEGEN--\":43:44   */\n      dup1\n        /* \"--CODEGEN--\":36:48   */\n      revert\n        /* \"--CODEGEN--\":2:4   */\n    tag_119:\n        /* \"TimeAlly.sol\":31398:34601  function takeLoanOnSelfStaking(uint256 _loanPlanId, uint256 _exaEsAmount, uint256[] memory _stakingIds) public {... */\n      dup3\n      add\n        /* \"--CODEGEN--\":35:44   */\n      dup4\n        /* \"--CODEGEN--\":28:32   */\n      0x20\n        /* \"--CODEGEN--\":12:26   */\n      dup3\n        /* \"--CODEGEN--\":8:33   */\n      add\n        /* \"--CODEGEN--\":5:45   */\n      gt\n        /* \"--CODEGEN--\":2:4   */\n      iszero\n      tag_120\n      jumpi\n        /* \"--CODEGEN--\":58:59   */\n      0x00\n        /* \"--CODEGEN--\":55:56   */\n      dup1\n        /* \"--CODEGEN--\":48:60   */\n      revert\n        /* \"--CODEGEN--\":2:4   */\n    tag_120:\n        /* \"TimeAlly.sol\":31398:34601  function takeLoanOnSelfStaking(uint256 _loanPlanId, uint256 _exaEsAmount, uint256[] memory _stakingIds) public {... */\n      dup1\n      calldataload\n      swap1\n      0x20\n      add\n      swap2\n        /* \"--CODEGEN--\":101:110   */\n      dup5\n        /* \"--CODEGEN--\":95:97   */\n      0x20\n        /* \"--CODEGEN--\":81:93   */\n      dup4\n        /* \"--CODEGEN--\":77:98   */\n      mul\n        /* \"--CODEGEN--\":67:75   */\n      dup5\n        /* \"--CODEGEN--\":63:99   */\n      add\n        /* \"--CODEGEN--\":60:111   */\n      gt\n        /* \"--CODEGEN--\":39:50   */\n      0x0100000000\n        /* \"--CODEGEN--\":25:37   */\n      dup4\n        /* \"--CODEGEN--\":22:51   */\n      gt\n        /* \"--CODEGEN--\":11:119   */\n      or\n        /* \"--CODEGEN--\":8:10   */\n      iszero\n      tag_121\n      jumpi\n        /* \"--CODEGEN--\":132:133   */\n      0x00\n        /* \"--CODEGEN--\":129:130   */\n      dup1\n        /* \"--CODEGEN--\":122:134   */\n      revert\n        /* \"--CODEGEN--\":8:10   */\n    tag_121:\n        /* \"TimeAlly.sol\":31398:34601  function takeLoanOnSelfStaking(uint256 _loanPlanId, uint256 _exaEsAmount, uint256[] memory _stakingIds) public {... */\n      swap2\n      swap1\n      dup1\n      dup1\n      0x20\n      mul\n      0x20\n      add\n      mload(0x40)\n      swap1\n      dup2\n      add\n      0x40\n      mstore\n      dup1\n      swap4\n      swap3\n      swap2\n      swap1\n      dup2\n      dup2\n      mstore\n      0x20\n      add\n      dup4\n      dup4\n      0x20\n      mul\n        /* \"--CODEGEN--\":30:33   */\n      dup1\n        /* \"--CODEGEN--\":22:28   */\n      dup3\n        /* \"--CODEGEN--\":14:20   */\n      dup5\n        /* \"--CODEGEN--\":1:34   */\n      calldatacopy\n        /* \"--CODEGEN--\":99:100   */\n      0x00\n        /* \"--CODEGEN--\":93:96   */\n      dup2\n        /* \"--CODEGEN--\":85:91   */\n      dup5\n        /* \"--CODEGEN--\":81:97   */\n      add\n        /* \"--CODEGEN--\":74:101   */\n      mstore\n        /* \"--CODEGEN--\":137:141   */\n      0x1f\n        /* \"--CODEGEN--\":133:142   */\n      not\n        /* \"--CODEGEN--\":126:130   */\n      0x1f\n        /* \"--CODEGEN--\":121:124   */\n      dup3\n        /* \"--CODEGEN--\":117:131   */\n      add\n        /* \"--CODEGEN--\":113:143   */\n      and\n        /* \"--CODEGEN--\":106:143   */\n      swap1\n      pop\n        /* \"--CODEGEN--\":169:172   */\n      dup1\n        /* \"--CODEGEN--\":161:167   */\n      dup4\n        /* \"--CODEGEN--\":157:173   */\n      add\n        /* \"--CODEGEN--\":147:173   */\n      swap3\n      pop\n        /* \"TimeAlly.sol\":31398:34601  function takeLoanOnSelfStaking(uint256 _loanPlanId, uint256 _exaEsAmount, uint256[] memory _stakingIds) public {... */\n      pop\n      pop\n      pop\n      pop\n      pop\n      pop\n      swap2\n      swap3\n      swap2\n      swap3\n      swap1\n      pop\n      pop\n      pop\n      tag_122\n      jump\t// in\n    tag_117:\n      stop\n        /* \"TimeAlly.sol\":6586:7034  function createLoanPlan(uint256 _loanMonths, uint256 _loanRate, uint256 _maxLoanAmountPercent) public onlyOwner {... */\n    tag_24:\n      tag_123\n      0x04\n      dup1\n      calldatasize\n      sub\n        /* \"--CODEGEN--\":13:15   */\n      0x60\n        /* \"--CODEGEN--\":8:11   */\n      dup2\n        /* \"--CODEGEN--\":5:16   */\n      lt\n        /* \"--CODEGEN--\":2:4   */\n      iszero\n      tag_124\n      jumpi\n        /* \"--CODEGEN--\":29:30   */\n      0x00\n        /* \"--CODEGEN--\":26:27   */\n      dup1\n        /* \"--CODEGEN--\":19:31   */\n      revert\n        /* \"--CODEGEN--\":2:4   */\n    tag_124:\n        /* \"TimeAlly.sol\":6586:7034  function createLoanPlan(uint256 _loanMonths, uint256 _loanRate, uint256 _maxLoanAmountPercent) public onlyOwner {... */\n      dup2\n      add\n      swap1\n      dup1\n      dup1\n      calldataload\n      swap1\n      0x20\n      add\n      swap1\n      swap3\n      swap2\n      swap1\n      dup1\n      calldataload\n      swap1\n      0x20\n      add\n      swap1\n      swap3\n      swap2\n      swap1\n      dup1\n      calldataload\n      swap1\n      0x20\n      add\n      swap1\n      swap3\n      swap2\n      swap1\n      pop\n      pop\n      pop\n      tag_125\n      jump\t// in\n    tag_123:\n      stop\n        /* \"TimeAlly.sol\":13654:14984  function isStakingActive(... */\n    tag_25:\n      tag_126\n      0x04\n      dup1\n      calldatasize\n      sub\n        /* \"--CODEGEN--\":13:15   */\n      0x60\n        /* \"--CODEGEN--\":8:11   */\n      dup2\n        /* \"--CODEGEN--\":5:16   */\n      lt\n        /* \"--CODEGEN--\":2:4   */\n      iszero\n      tag_127\n      jumpi\n        /* \"--CODEGEN--\":29:30   */\n      0x00\n        /* \"--CODEGEN--\":26:27   */\n      dup1\n        /* \"--CODEGEN--\":19:31   */\n      revert\n        /* \"--CODEGEN--\":2:4   */\n    tag_127:\n        /* \"TimeAlly.sol\":13654:14984  function isStakingActive(... */\n      dup2\n      add\n      swap1\n      dup1\n      dup1\n      calldataload\n      0xffffffffffffffffffffffffffffffffffffffff\n      and\n      swap1\n      0x20\n      add\n      swap1\n      swap3\n      swap2\n      swap1\n      dup1\n      calldataload\n      swap1\n      0x20\n      add\n      swap1\n      swap3\n      swap2\n      swap1\n      dup1\n      calldataload\n      swap1\n      0x20\n      add\n      swap1\n      swap3\n      swap2\n      swap1\n      pop\n      pop\n      pop\n      tag_128\n      jump\t// in\n    tag_126:\n      mload(0x40)\n      dup1\n      dup3\n      iszero\n      iszero\n      iszero\n      iszero\n      dup2\n      mstore\n      0x20\n      add\n      swap2\n      pop\n      pop\n      mload(0x40)\n      dup1\n      swap2\n      sub\n      swap1\n      return\n        /* \"TimeAlly.sol\":11728:13055  function claimLaunchReward(uint256 _stakingPlanId) public {... */\n    tag_26:\n      tag_129\n      0x04\n      dup1\n      calldatasize\n      sub\n        /* \"--CODEGEN--\":13:15   */\n      0x20\n        /* \"--CODEGEN--\":8:11   */\n      dup2\n        /* \"--CODEGEN--\":5:16   */\n      lt\n        /* \"--CODEGEN--\":2:4   */\n      iszero\n      tag_130\n      jumpi\n        /* \"--CODEGEN--\":29:30   */\n      0x00\n        /* \"--CODEGEN--\":26:27   */\n      dup1\n        /* \"--CODEGEN--\":19:31   */\n      revert\n        /* \"--CODEGEN--\":2:4   */\n    tag_130:\n        /* \"TimeAlly.sol\":11728:13055  function claimLaunchReward(uint256 _stakingPlanId) public {... */\n      dup2\n      add\n      swap1\n      dup1\n      dup1\n      calldataload\n      swap1\n      0x20\n      add\n      swap1\n      swap3\n      swap2\n      swap1\n      pop\n      pop\n      pop\n      tag_131\n      jump\t// in\n    tag_129:\n      stop\n        /* \"TimeAlly.sol\":5335:5445  function getCurrentMonth() public view returns (uint256) {... */\n    tag_27:\n      tag_132\n      tag_133\n      jump\t// in\n    tag_132:\n      mload(0x40)\n      dup1\n      dup3\n      dup2\n      mstore\n      0x20\n      add\n      swap2\n      pop\n      pop\n      mload(0x40)\n      dup1\n      swap2\n      sub\n      swap1\n      return\n        /* \"TimeAlly.sol\":34742:36355  function repayLoanSelf(uint256 _loanId) public {... */\n    tag_28:\n      tag_134\n      0x04\n      dup1\n      calldatasize\n      sub\n        /* \"--CODEGEN--\":13:15   */\n      0x20\n        /* \"--CODEGEN--\":8:11   */\n      dup2\n        /* \"--CODEGEN--\":5:16   */\n      lt\n        /* \"--CODEGEN--\":2:4   */\n      iszero\n      tag_135\n      jumpi\n        /* \"--CODEGEN--\":29:30   */\n      0x00\n        /* \"--CODEGEN--\":26:27   */\n      dup1\n        /* \"--CODEGEN--\":19:31   */\n      revert\n        /* \"--CODEGEN--\":2:4   */\n    tag_135:\n        /* \"TimeAlly.sol\":34742:36355  function repayLoanSelf(uint256 _loanId) public {... */\n      dup2\n      add\n      swap1\n      dup1\n      dup1\n      calldataload\n      swap1\n      0x20\n      add\n      swap1\n      swap3\n      swap2\n      swap1\n      pop\n      pop\n      pop\n      tag_136\n      jump\t// in\n    tag_134:\n      stop\n        /* \"TimeAlly.sol\":29372:30973  function seeMaxLoaningAmountOnUserStakings(address _userAddress, uint256[] memory _stakingIds, uint256 _loanPlanId) public view returns (uint256) {... */\n    tag_29:\n      tag_137\n      0x04\n      dup1\n      calldatasize\n      sub\n        /* \"--CODEGEN--\":13:15   */\n      0x60\n        /* \"--CODEGEN--\":8:11   */\n      dup2\n        /* \"--CODEGEN--\":5:16   */\n      lt\n        /* \"--CODEGEN--\":2:4   */\n      iszero\n      tag_138\n      jumpi\n        /* \"--CODEGEN--\":29:30   */\n      0x00\n        /* \"--CODEGEN--\":26:27   */\n      dup1\n        /* \"--CODEGEN--\":19:31   */\n      revert\n        /* \"--CODEGEN--\":2:4   */\n    tag_138:\n        /* \"TimeAlly.sol\":29372:30973  function seeMaxLoaningAmountOnUserStakings(address _userAddress, uint256[] memory _stakingIds, uint256 _loanPlanId) public view returns (uint256) {... */\n      dup2\n      add\n      swap1\n      dup1\n      dup1\n      calldataload\n      0xffffffffffffffffffffffffffffffffffffffff\n      and\n      swap1\n      0x20\n      add\n      swap1\n      swap3\n      swap2\n      swap1\n      dup1\n      calldataload\n      swap1\n      0x20\n      add\n      swap1\n        /* \"--CODEGEN--\":21:32   */\n      0x0100000000\n        /* \"--CODEGEN--\":8:19   */\n      dup2\n        /* \"--CODEGEN--\":5:33   */\n      gt\n        /* \"--CODEGEN--\":2:4   */\n      iszero\n      tag_139\n      jumpi\n        /* \"--CODEGEN--\":46:47   */\n      0x00\n        /* \"--CODEGEN--\":43:44   */\n      dup1\n        /* \"--CODEGEN--\":36:48   */\n      revert\n        /* \"--CODEGEN--\":2:4   */\n    tag_139:\n        /* \"TimeAlly.sol\":29372:30973  function seeMaxLoaningAmountOnUserStakings(address _userAddress, uint256[] memory _stakingIds, uint256 _loanPlanId) public view returns (uint256) {... */\n      dup3\n      add\n        /* \"--CODEGEN--\":35:44   */\n      dup4\n        /* \"--CODEGEN--\":28:32   */\n      0x20\n        /* \"--CODEGEN--\":12:26   */\n      dup3\n        /* \"--CODEGEN--\":8:33   */\n      add\n        /* \"--CODEGEN--\":5:45   */\n      gt\n        /* \"--CODEGEN--\":2:4   */\n      iszero\n      tag_140\n      jumpi\n        /* \"--CODEGEN--\":58:59   */\n      0x00\n        /* \"--CODEGEN--\":55:56   */\n      dup1\n        /* \"--CODEGEN--\":48:60   */\n      revert\n        /* \"--CODEGEN--\":2:4   */\n    tag_140:\n        /* \"TimeAlly.sol\":29372:30973  function seeMaxLoaningAmountOnUserStakings(address _userAddress, uint256[] memory _stakingIds, uint256 _loanPlanId) public view returns (uint256) {... */\n      dup1\n      calldataload\n      swap1\n      0x20\n      add\n      swap2\n        /* \"--CODEGEN--\":101:110   */\n      dup5\n        /* \"--CODEGEN--\":95:97   */\n      0x20\n        /* \"--CODEGEN--\":81:93   */\n      dup4\n        /* \"--CODEGEN--\":77:98   */\n      mul\n        /* \"--CODEGEN--\":67:75   */\n      dup5\n        /* \"--CODEGEN--\":63:99   */\n      add\n        /* \"--CODEGEN--\":60:111   */\n      gt\n        /* \"--CODEGEN--\":39:50   */\n      0x0100000000\n        /* \"--CODEGEN--\":25:37   */\n      dup4\n        /* \"--CODEGEN--\":22:51   */\n      gt\n        /* \"--CODEGEN--\":11:119   */\n      or\n        /* \"--CODEGEN--\":8:10   */\n      iszero\n      tag_141\n      jumpi\n        /* \"--CODEGEN--\":132:133   */\n      0x00\n        /* \"--CODEGEN--\":129:130   */\n      dup1\n        /* \"--CODEGEN--\":122:134   */\n      revert\n        /* \"--CODEGEN--\":8:10   */\n    tag_141:\n        /* \"TimeAlly.sol\":29372:30973  function seeMaxLoaningAmountOnUserStakings(address _userAddress, uint256[] memory _stakingIds, uint256 _loanPlanId) public view returns (uint256) {... */\n      swap2\n      swap1\n      dup1\n      dup1\n      0x20\n      mul\n      0x20\n      add\n      mload(0x40)\n      swap1\n      dup2\n      add\n      0x40\n      mstore\n      dup1\n      swap4\n      swap3\n      swap2\n      swap1\n      dup2\n      dup2\n      mstore\n      0x20\n      add\n      dup4\n      dup4\n      0x20\n      mul\n        /* \"--CODEGEN--\":30:33   */\n      dup1\n        /* \"--CODEGEN--\":22:28   */\n      dup3\n        /* \"--CODEGEN--\":14:20   */\n      dup5\n        /* \"--CODEGEN--\":1:34   */\n      calldatacopy\n        /* \"--CODEGEN--\":99:100   */\n      0x00\n        /* \"--CODEGEN--\":93:96   */\n      dup2\n        /* \"--CODEGEN--\":85:91   */\n      dup5\n        /* \"--CODEGEN--\":81:97   */\n      add\n        /* \"--CODEGEN--\":74:101   */\n      mstore\n        /* \"--CODEGEN--\":137:141   */\n      0x1f\n        /* \"--CODEGEN--\":133:142   */\n      not\n        /* \"--CODEGEN--\":126:130   */\n      0x1f\n        /* \"--CODEGEN--\":121:124   */\n      dup3\n        /* \"--CODEGEN--\":117:131   */\n      add\n        /* \"--CODEGEN--\":113:143   */\n      and\n        /* \"--CODEGEN--\":106:143   */\n      swap1\n      pop\n        /* \"--CODEGEN--\":169:172   */\n      dup1\n        /* \"--CODEGEN--\":161:167   */\n      dup4\n        /* \"--CODEGEN--\":157:173   */\n      add\n        /* \"--CODEGEN--\":147:173   */\n      swap3\n      pop\n        /* \"TimeAlly.sol\":29372:30973  function seeMaxLoaningAmountOnUserStakings(address _userAddress, uint256[] memory _stakingIds, uint256 _loanPlanId) public view returns (uint256) {... */\n      pop\n      pop\n      pop\n      pop\n      pop\n      pop\n      swap2\n      swap3\n      swap2\n      swap3\n      swap1\n      dup1\n      calldataload\n      swap1\n      0x20\n      add\n      swap1\n      swap3\n      swap2\n      swap1\n      pop\n      pop\n      pop\n      tag_142\n      jump\t// in\n    tag_137:\n      mload(0x40)\n      dup1\n      dup3\n      dup2\n      mstore\n      0x20\n      add\n      swap2\n      pop\n      pop\n      mload(0x40)\n      dup1\n      swap2\n      sub\n      swap1\n      return\n        /* \"TimeAlly.sol\":7792:9227  function newStaking(uint256 _exaEsAmount, uint256 _stakingPlanId) public {... */\n    tag_30:\n      tag_143\n      0x04\n      dup1\n      calldatasize\n      sub\n        /* \"--CODEGEN--\":13:15   */\n      0x40\n        /* \"--CODEGEN--\":8:11   */\n      dup2\n        /* \"--CODEGEN--\":5:16   */\n      lt\n        /* \"--CODEGEN--\":2:4   */\n      iszero\n      tag_144\n      jumpi\n        /* \"--CODEGEN--\":29:30   */\n      0x00\n        /* \"--CODEGEN--\":26:27   */\n      dup1\n        /* \"--CODEGEN--\":19:31   */\n      revert\n        /* \"--CODEGEN--\":2:4   */\n    tag_144:\n        /* \"TimeAlly.sol\":7792:9227  function newStaking(uint256 _exaEsAmount, uint256 _stakingPlanId) public {... */\n      dup2\n      add\n      swap1\n      dup1\n      dup1\n      calldataload\n      swap1\n      0x20\n      add\n      swap1\n      swap3\n      swap2\n      swap1\n      dup1\n      calldataload\n      swap1\n      0x20\n      add\n      swap1\n      swap3\n      swap2\n      swap1\n      pop\n      pop\n      pop\n      tag_145\n      jump\t// in\n    tag_143:\n      stop\n        /* \"TimeAlly.sol\":5085:5206  function increaseMonth(uint256 _timeAllyNRT) public onlyNRTManager {... */\n    tag_31:\n      tag_146\n      0x04\n      dup1\n      calldatasize\n      sub\n        /* \"--CODEGEN--\":13:15   */\n      0x20\n        /* \"--CODEGEN--\":8:11   */\n      dup2\n        /* \"--CODEGEN--\":5:16   */\n      lt\n        /* \"--CODEGEN--\":2:4   */\n      iszero\n      tag_147\n      jumpi\n        /* \"--CODEGEN--\":29:30   */\n      0x00\n        /* \"--CODEGEN--\":26:27   */\n      dup1\n        /* \"--CODEGEN--\":19:31   */\n      revert\n        /* \"--CODEGEN--\":2:4   */\n    tag_147:\n        /* \"TimeAlly.sol\":5085:5206  function increaseMonth(uint256 _timeAllyNRT) public onlyNRTManager {... */\n      dup2\n      add\n      swap1\n      dup1\n      dup1\n      calldataload\n      swap1\n      0x20\n      add\n      swap1\n      swap3\n      swap2\n      swap1\n      pop\n      pop\n      pop\n      tag_148\n      jump\t// in\n    tag_146:\n      stop\n        /* \"TimeAlly.sol\":25528:26633  function withdrawExpiredStakings(uint256[] memory _stakingIds) public {... */\n    tag_32:\n      tag_149\n      0x04\n      dup1\n      calldatasize\n      sub\n        /* \"--CODEGEN--\":13:15   */\n      0x20\n        /* \"--CODEGEN--\":8:11   */\n      dup2\n        /* \"--CODEGEN--\":5:16   */\n      lt\n        /* \"--CODEGEN--\":2:4   */\n      iszero\n      tag_150\n      jumpi\n        /* \"--CODEGEN--\":29:30   */\n      0x00\n        /* \"--CODEGEN--\":26:27   */\n      dup1\n        /* \"--CODEGEN--\":19:31   */\n      revert\n        /* \"--CODEGEN--\":2:4   */\n    tag_150:\n        /* \"TimeAlly.sol\":25528:26633  function withdrawExpiredStakings(uint256[] memory _stakingIds) public {... */\n      dup2\n      add\n      swap1\n      dup1\n      dup1\n      calldataload\n      swap1\n      0x20\n      add\n      swap1\n        /* \"--CODEGEN--\":21:32   */\n      0x0100000000\n        /* \"--CODEGEN--\":8:19   */\n      dup2\n        /* \"--CODEGEN--\":5:33   */\n      gt\n        /* \"--CODEGEN--\":2:4   */\n      iszero\n      tag_151\n      jumpi\n        /* \"--CODEGEN--\":46:47   */\n      0x00\n        /* \"--CODEGEN--\":43:44   */\n      dup1\n        /* \"--CODEGEN--\":36:48   */\n      revert\n        /* \"--CODEGEN--\":2:4   */\n    tag_151:\n        /* \"TimeAlly.sol\":25528:26633  function withdrawExpiredStakings(uint256[] memory _stakingIds) public {... */\n      dup3\n      add\n        /* \"--CODEGEN--\":35:44   */\n      dup4\n        /* \"--CODEGEN--\":28:32   */\n      0x20\n        /* \"--CODEGEN--\":12:26   */\n      dup3\n        /* \"--CODEGEN--\":8:33   */\n      add\n        /* \"--CODEGEN--\":5:45   */\n      gt\n        /* \"--CODEGEN--\":2:4   */\n      iszero\n      tag_152\n      jumpi\n        /* \"--CODEGEN--\":58:59   */\n      0x00\n        /* \"--CODEGEN--\":55:56   */\n      dup1\n        /* \"--CODEGEN--\":48:60   */\n      revert\n        /* \"--CODEGEN--\":2:4   */\n    tag_152:\n        /* \"TimeAlly.sol\":25528:26633  function withdrawExpiredStakings(uint256[] memory _stakingIds) public {... */\n      dup1\n      calldataload\n      swap1\n      0x20\n      add\n      swap2\n        /* \"--CODEGEN--\":101:110   */\n      dup5\n        /* \"--CODEGEN--\":95:97   */\n      0x20\n        /* \"--CODEGEN--\":81:93   */\n      dup4\n        /* \"--CODEGEN--\":77:98   */\n      mul\n        /* \"--CODEGEN--\":67:75   */\n      dup5\n        /* \"--CODEGEN--\":63:99   */\n      add\n        /* \"--CODEGEN--\":60:111   */\n      gt\n        /* \"--CODEGEN--\":39:50   */\n      0x0100000000\n        /* \"--CODEGEN--\":25:37   */\n      dup4\n        /* \"--CODEGEN--\":22:51   */\n      gt\n        /* \"--CODEGEN--\":11:119   */\n      or\n        /* \"--CODEGEN--\":8:10   */\n      iszero\n      tag_153\n      jumpi\n        /* \"--CODEGEN--\":132:133   */\n      0x00\n        /* \"--CODEGEN--\":129:130   */\n      dup1\n        /* \"--CODEGEN--\":122:134   */\n      revert\n        /* \"--CODEGEN--\":8:10   */\n    tag_153:\n        /* \"TimeAlly.sol\":25528:26633  function withdrawExpiredStakings(uint256[] memory _stakingIds) public {... */\n      swap2\n      swap1\n      dup1\n      dup1\n      0x20\n      mul\n      0x20\n      add\n      mload(0x40)\n      swap1\n      dup2\n      add\n      0x40\n      mstore\n      dup1\n      swap4\n      swap3\n      swap2\n      swap1\n      dup2\n      dup2\n      mstore\n      0x20\n      add\n      dup4\n      dup4\n      0x20\n      mul\n        /* \"--CODEGEN--\":30:33   */\n      dup1\n        /* \"--CODEGEN--\":22:28   */\n      dup3\n        /* \"--CODEGEN--\":14:20   */\n      dup5\n        /* \"--CODEGEN--\":1:34   */\n      calldatacopy\n        /* \"--CODEGEN--\":99:100   */\n      0x00\n        /* \"--CODEGEN--\":93:96   */\n      dup2\n        /* \"--CODEGEN--\":85:91   */\n      dup5\n        /* \"--CODEGEN--\":81:97   */\n      add\n        /* \"--CODEGEN--\":74:101   */\n      mstore\n        /* \"--CODEGEN--\":137:141   */\n      0x1f\n        /* \"--CODEGEN--\":133:142   */\n      not\n        /* \"--CODEGEN--\":126:130   */\n      0x1f\n        /* \"--CODEGEN--\":121:124   */\n      dup3\n        /* \"--CODEGEN--\":117:131   */\n      add\n        /* \"--CODEGEN--\":113:143   */\n      and\n        /* \"--CODEGEN--\":106:143   */\n      swap1\n      pop\n        /* \"--CODEGEN--\":169:172   */\n      dup1\n        /* \"--CODEGEN--\":161:167   */\n      dup4\n        /* \"--CODEGEN--\":157:173   */\n      add\n        /* \"--CODEGEN--\":147:173   */\n      swap3\n      pop\n        /* \"TimeAlly.sol\":25528:26633  function withdrawExpiredStakings(uint256[] memory _stakingIds) public {... */\n      pop\n      pop\n      pop\n      pop\n      pop\n      pop\n      swap2\n      swap3\n      swap2\n      swap3\n      swap1\n      pop\n      pop\n      pop\n      tag_154\n      jump\t// in\n    tag_149:\n      stop\n        /* \"TimeAlly.sol\":2335:2355  Eraswap public token */\n    tag_33:\n      tag_155\n      tag_156\n      jump\t// in\n    tag_155:\n      mload(0x40)\n      dup1\n      dup3\n      0xffffffffffffffffffffffffffffffffffffffff\n      and\n      0xffffffffffffffffffffffffffffffffffffffff\n      and\n      dup2\n      mstore\n      0x20\n      add\n      swap2\n      pop\n      pop\n      mload(0x40)\n      dup1\n      swap2\n      sub\n      swap1\n      return\n        /* \"TimeAlly.sol\":2361:2389  NRTManager public nrtManager */\n    tag_42:\n      0x03\n      0x00\n      swap1\n      sload\n      swap1\n      0x0100\n      exp\n      swap1\n      div\n      0xffffffffffffffffffffffffffffffffffffffff\n      and\n      dup2\n      jump\t// out\n        /* \"TimeAlly.sol\":36361:37797  function burnDefaultedLoans(address[] memory _addressArray, uint256[] memory _loanIdArray) public {... */\n    tag_51:\n        /* \"TimeAlly.sol\":36469:36490  uint256 _amountToBurn */\n      0x00\n        /* \"TimeAlly.sol\":36504:36513  uint256 i */\n      dup1\n        /* \"TimeAlly.sol\":36516:36517  0 */\n      0x00\n        /* \"TimeAlly.sol\":36504:36517  uint256 i = 0 */\n      swap1\n      pop\n        /* \"TimeAlly.sol\":36500:37641  for(uint256 i = 0; i < _addressArray.length; i++) {... */\n    tag_158:\n        /* \"TimeAlly.sol\":36523:36536  _addressArray */\n      dup4\n        /* \"TimeAlly.sol\":36523:36543  _addressArray.length */\n      mload\n        /* \"TimeAlly.sol\":36519:36520  i */\n      dup2\n        /* \"TimeAlly.sol\":36519:36543  i < _addressArray.length */\n      lt\n        /* \"TimeAlly.sol\":36500:37641  for(uint256 i = 0; i < _addressArray.length; i++) {... */\n      iszero\n      tag_159\n      jumpi\n        /* \"TimeAlly.sol\":36644:36645  1 */\n      0x01\n        /* \"TimeAlly.sol\":36589:36594  loans */\n      0x08\n        /* \"TimeAlly.sol\":36589:36614  loans[ _addressArray[i] ] */\n      0x00\n        /* \"TimeAlly.sol\":36596:36609  _addressArray */\n      dup7\n        /* \"TimeAlly.sol\":36610:36611  i */\n      dup5\n        /* \"TimeAlly.sol\":36596:36612  _addressArray[i] */\n      dup2\n      mload\n      dup2\n      lt\n      tag_161\n      jumpi\n      invalid\n    tag_161:\n      0x20\n      mul\n      0x20\n      add\n      add\n      mload\n        /* \"TimeAlly.sol\":36589:36614  loans[ _addressArray[i] ] */\n      0xffffffffffffffffffffffffffffffffffffffff\n      and\n      0xffffffffffffffffffffffffffffffffffffffff\n      and\n      dup2\n      mstore\n      0x20\n      add\n      swap1\n      dup2\n      mstore\n      0x20\n      add\n      0x00\n      keccak256\n        /* \"TimeAlly.sol\":36616:36628  _loanIdArray */\n      dup5\n        /* \"TimeAlly.sol\":36629:36630  i */\n      dup4\n        /* \"TimeAlly.sol\":36616:36631  _loanIdArray[i] */\n      dup2\n      mload\n      dup2\n      lt\n      tag_162\n      jumpi\n      invalid\n    tag_162:\n      0x20\n      mul\n      0x20\n      add\n      add\n      mload\n        /* \"TimeAlly.sol\":36589:36633  loans[ _addressArray[i] ][ _loanIdArray[i] ] */\n      dup2\n      sload\n      dup2\n      lt\n      tag_163\n      jumpi\n      invalid\n    tag_163:\n      swap1\n      0x00\n      mstore\n      keccak256(0x00, 0x20)\n      swap1\n      0x05\n      mul\n      add\n        /* \"TimeAlly.sol\":36589:36640  loans[ _addressArray[i] ][ _loanIdArray[i] ].status */\n      0x03\n      add\n      sload\n        /* \"TimeAlly.sol\":36589:36645  loans[ _addressArray[i] ][ _loanIdArray[i] ].status == 1 */\n      eq\n        /* \"TimeAlly.sol\":36564:36709  require(... */\n      tag_165\n      jumpi\n      0x00\n      dup1\n      revert\n    tag_165:\n        /* \"TimeAlly.sol\":36851:36955  loanPlans[ loans[ _addressArray[i] ][ _loanIdArray[i] ].loanPlanId ].loanMonths.mul(earthSecondsInMonth) */\n      tag_166\n        /* \"TimeAlly.sol\":36935:36954  earthSecondsInMonth */\n      sload(0x04)\n        /* \"TimeAlly.sol\":36851:36860  loanPlans */\n      0x06\n        /* \"TimeAlly.sol\":36862:36867  loans */\n      0x08\n        /* \"TimeAlly.sol\":36862:36887  loans[ _addressArray[i] ] */\n      0x00\n        /* \"TimeAlly.sol\":36869:36882  _addressArray */\n      dup9\n        /* \"TimeAlly.sol\":36883:36884  i */\n      dup7\n        /* \"TimeAlly.sol\":36869:36885  _addressArray[i] */\n      dup2\n      mload\n      dup2\n      lt\n      tag_167\n      jumpi\n      invalid\n    tag_167:\n      0x20\n      mul\n      0x20\n      add\n      add\n      mload\n        /* \"TimeAlly.sol\":36862:36887  loans[ _addressArray[i] ] */\n      0xffffffffffffffffffffffffffffffffffffffff\n      and\n      0xffffffffffffffffffffffffffffffffffffffff\n      and\n      dup2\n      mstore\n      0x20\n      add\n      swap1\n      dup2\n      mstore\n      0x20\n      add\n      0x00\n      keccak256\n        /* \"TimeAlly.sol\":36889:36901  _loanIdArray */\n      dup7\n        /* \"TimeAlly.sol\":36902:36903  i */\n      dup6\n        /* \"TimeAlly.sol\":36889:36904  _loanIdArray[i] */\n      dup2\n      mload\n      dup2\n      lt\n      tag_168\n      jumpi\n      invalid\n    tag_168:\n      0x20\n      mul\n      0x20\n      add\n      add\n      mload\n        /* \"TimeAlly.sol\":36862:36906  loans[ _addressArray[i] ][ _loanIdArray[i] ] */\n      dup2\n      sload\n      dup2\n      lt\n      tag_169\n      jumpi\n      invalid\n    tag_169:\n      swap1\n      0x00\n      mstore\n      keccak256(0x00, 0x20)\n      swap1\n      0x05\n      mul\n      add\n        /* \"TimeAlly.sol\":36862:36917  loans[ _addressArray[i] ][ _loanIdArray[i] ].loanPlanId */\n      0x02\n      add\n      sload\n        /* \"TimeAlly.sol\":36851:36919  loanPlans[ loans[ _addressArray[i] ][ _loanIdArray[i] ].loanPlanId ] */\n      dup2\n      sload\n      dup2\n      lt\n      tag_171\n      jumpi\n      invalid\n    tag_171:\n      swap1\n      0x00\n      mstore\n      keccak256(0x00, 0x20)\n      swap1\n      0x03\n      mul\n      add\n        /* \"TimeAlly.sol\":36851:36930  loanPlans[ loans[ _addressArray[i] ][ _loanIdArray[i] ].loanPlanId ].loanMonths */\n      0x00\n      add\n      sload\n        /* \"TimeAlly.sol\":36851:36934  loanPlans[ loans[ _addressArray[i] ][ _loanIdArray[i] ].loanPlanId ].loanMonths.mul */\n      tag_173\n      swap1\n        /* \"TimeAlly.sol\":36851:36955  loanPlans[ loans[ _addressArray[i] ][ _loanIdArray[i] ].loanPlanId ].loanMonths.mul(earthSecondsInMonth) */\n      swap2\n      swap1\n      0xffffffff\n      and\n      jump\t// in\n    tag_166:\n        /* \"TimeAlly.sol\":36778:36783  loans */\n      0x08\n        /* \"TimeAlly.sol\":36778:36803  loans[ _addressArray[i] ] */\n      0x00\n        /* \"TimeAlly.sol\":36785:36798  _addressArray */\n      dup7\n        /* \"TimeAlly.sol\":36799:36800  i */\n      dup5\n        /* \"TimeAlly.sol\":36785:36801  _addressArray[i] */\n      dup2\n      mload\n      dup2\n      lt\n      tag_174\n      jumpi\n      invalid\n    tag_174:\n      0x20\n      mul\n      0x20\n      add\n      add\n      mload\n        /* \"TimeAlly.sol\":36778:36803  loans[ _addressArray[i] ] */\n      0xffffffffffffffffffffffffffffffffffffffff\n      and\n      0xffffffffffffffffffffffffffffffffffffffff\n      and\n      dup2\n      mstore\n      0x20\n      add\n      swap1\n      dup2\n      mstore\n      0x20\n      add\n      0x00\n      keccak256\n        /* \"TimeAlly.sol\":36805:36817  _loanIdArray */\n      dup5\n        /* \"TimeAlly.sol\":36818:36819  i */\n      dup4\n        /* \"TimeAlly.sol\":36805:36820  _loanIdArray[i] */\n      dup2\n      mload\n      dup2\n      lt\n      tag_175\n      jumpi\n      invalid\n    tag_175:\n      0x20\n      mul\n      0x20\n      add\n      add\n      mload\n        /* \"TimeAlly.sol\":36778:36822  loans[ _addressArray[i] ][ _loanIdArray[i] ] */\n      dup2\n      sload\n      dup2\n      lt\n      tag_176\n      jumpi\n      invalid\n    tag_176:\n      swap1\n      0x00\n      mstore\n      keccak256(0x00, 0x20)\n      swap1\n      0x05\n      mul\n      add\n        /* \"TimeAlly.sol\":36778:36832  loans[ _addressArray[i] ][ _loanIdArray[i] ].timestamp */\n      0x01\n      add\n      sload\n        /* \"TimeAlly.sol\":36778:36955  loans[ _addressArray[i] ][ _loanIdArray[i] ].timestamp... */\n      add\n        /* \"TimeAlly.sol\":36748:36753  token */\n      0x02\n      0x00\n      swap1\n      sload\n      swap1\n      0x0100\n      exp\n      swap1\n      div\n      0xffffffffffffffffffffffffffffffffffffffff\n      and\n        /* \"TimeAlly.sol\":36748:36757  token.mou */\n      0xffffffffffffffffffffffffffffffffffffffff\n      and\n      0xb81f90f3\n        /* \"TimeAlly.sol\":36748:36759  token.mou() */\n      mload(0x40)\n      dup2\n      0xffffffff\n      and\n      0xe0\n      shl\n      dup2\n      mstore\n      0x04\n      add\n      0x20\n      mload(0x40)\n      dup1\n      dup4\n      sub\n      dup2\n      dup7\n      dup1\n      extcodesize\n      iszero\n        /* \"--CODEGEN--\":8:17   */\n      dup1\n        /* \"--CODEGEN--\":5:7   */\n      iszero\n      tag_178\n      jumpi\n        /* \"--CODEGEN--\":30:31   */\n      0x00\n        /* \"--CODEGEN--\":27:28   */\n      dup1\n        /* \"--CODEGEN--\":20:32   */\n      revert\n        /* \"--CODEGEN--\":5:7   */\n    tag_178:\n        /* \"TimeAlly.sol\":36748:36759  token.mou() */\n      pop\n      gas\n      staticcall\n      iszero\n        /* \"--CODEGEN--\":8:17   */\n      dup1\n        /* \"--CODEGEN--\":5:7   */\n      iszero\n      tag_179\n      jumpi\n        /* \"--CODEGEN--\":45:61   */\n      returndatasize\n        /* \"--CODEGEN--\":42:43   */\n      0x00\n        /* \"--CODEGEN--\":39:40   */\n      dup1\n        /* \"--CODEGEN--\":24:62   */\n      returndatacopy\n        /* \"--CODEGEN--\":77:93   */\n      returndatasize\n        /* \"--CODEGEN--\":74:75   */\n      0x00\n        /* \"--CODEGEN--\":67:94   */\n      revert\n        /* \"--CODEGEN--\":5:7   */\n    tag_179:\n        /* \"TimeAlly.sol\":36748:36759  token.mou() */\n      pop\n      pop\n      pop\n      pop\n      mload(0x40)\n      returndatasize\n        /* \"--CODEGEN--\":13:15   */\n      0x20\n        /* \"--CODEGEN--\":8:11   */\n      dup2\n        /* \"--CODEGEN--\":5:16   */\n      lt\n        /* \"--CODEGEN--\":2:4   */\n      iszero\n      tag_180\n      jumpi\n        /* \"--CODEGEN--\":29:30   */\n      0x00\n        /* \"--CODEGEN--\":26:27   */\n      dup1\n        /* \"--CODEGEN--\":19:31   */\n      revert\n        /* \"--CODEGEN--\":2:4   */\n    tag_180:\n        /* \"TimeAlly.sol\":36748:36759  token.mou() */\n      dup2\n      add\n      swap1\n      dup1\n      dup1\n      mload\n      swap1\n      0x20\n      add\n      swap1\n      swap3\n      swap2\n      swap1\n      pop\n      pop\n      pop\n        /* \"TimeAlly.sol\":36748:36955  token.mou() >... */\n      gt\n        /* \"TimeAlly.sol\":36723:37033  require(... */\n      tag_181\n      jumpi\n      0x00\n      dup1\n      revert\n    tag_181:\n        /* \"TimeAlly.sol\":37047:37082  uint256[] storage _stakingIdsOfLoan */\n      0x00\n        /* \"TimeAlly.sol\":37085:37090  loans */\n      0x08\n        /* \"TimeAlly.sol\":37085:37110  loans[ _addressArray[i] ] */\n      0x00\n        /* \"TimeAlly.sol\":37092:37105  _addressArray */\n      dup7\n        /* \"TimeAlly.sol\":37106:37107  i */\n      dup5\n        /* \"TimeAlly.sol\":37092:37108  _addressArray[i] */\n      dup2\n      mload\n      dup2\n      lt\n      tag_182\n      jumpi\n      invalid\n    tag_182:\n      0x20\n      mul\n      0x20\n      add\n      add\n      mload\n        /* \"TimeAlly.sol\":37085:37110  loans[ _addressArray[i] ] */\n      0xffffffffffffffffffffffffffffffffffffffff\n      and\n      0xffffffffffffffffffffffffffffffffffffffff\n      and\n      dup2\n      mstore\n      0x20\n      add\n      swap1\n      dup2\n      mstore\n      0x20\n      add\n      0x00\n      keccak256\n        /* \"TimeAlly.sol\":37112:37124  _loanIdArray */\n      dup5\n        /* \"TimeAlly.sol\":37125:37126  i */\n      dup4\n        /* \"TimeAlly.sol\":37112:37127  _loanIdArray[i] */\n      dup2\n      mload\n      dup2\n      lt\n      tag_183\n      jumpi\n      invalid\n    tag_183:\n      0x20\n      mul\n      0x20\n      add\n      add\n      mload\n        /* \"TimeAlly.sol\":37085:37129  loans[ _addressArray[i] ][ _loanIdArray[i] ] */\n      dup2\n      sload\n      dup2\n      lt\n      tag_184\n      jumpi\n      invalid\n    tag_184:\n      swap1\n      0x00\n      mstore\n      keccak256(0x00, 0x20)\n      swap1\n      0x05\n      mul\n      add\n        /* \"TimeAlly.sol\":37085:37140  loans[ _addressArray[i] ][ _loanIdArray[i] ].stakingIds */\n      0x04\n      add\n        /* \"TimeAlly.sol\":37047:37140  uint256[] storage _stakingIdsOfLoan = loans[ _addressArray[i] ][ _loanIdArray[i] ].stakingIds */\n      swap1\n      pop\n        /* \"TimeAlly.sol\":37239:37248  uint256 j */\n      0x00\n        /* \"TimeAlly.sol\":37251:37252  0 */\n      dup1\n        /* \"TimeAlly.sol\":37239:37252  uint256 j = 0 */\n      swap1\n      pop\n        /* \"TimeAlly.sol\":37235:37459  for(uint256 j = 0; j < _stakingIdsOfLoan.length; j++) {... */\n    tag_186:\n        /* \"TimeAlly.sol\":37258:37275  _stakingIdsOfLoan */\n      dup2\n        /* \"TimeAlly.sol\":37258:37282  _stakingIdsOfLoan.length */\n      dup1\n      sload\n      swap1\n      pop\n        /* \"TimeAlly.sol\":37254:37255  j */\n      dup2\n        /* \"TimeAlly.sol\":37254:37282  j < _stakingIdsOfLoan.length */\n      lt\n        /* \"TimeAlly.sol\":37235:37459  for(uint256 j = 0; j < _stakingIdsOfLoan.length; j++) {... */\n      iszero\n      tag_187\n      jumpi\n        /* \"TimeAlly.sol\":37323:37444  _amountToBurn.add(... */\n      tag_189\n        /* \"TimeAlly.sol\":37362:37370  stakings */\n      0x07\n        /* \"TimeAlly.sol\":37362:37390  stakings[ _addressArray[i] ] */\n      0x00\n        /* \"TimeAlly.sol\":37372:37385  _addressArray */\n      dup9\n        /* \"TimeAlly.sol\":37386:37387  i */\n      dup7\n        /* \"TimeAlly.sol\":37372:37388  _addressArray[i] */\n      dup2\n      mload\n      dup2\n      lt\n      tag_190\n      jumpi\n      invalid\n    tag_190:\n      0x20\n      mul\n      0x20\n      add\n      add\n      mload\n        /* \"TimeAlly.sol\":37362:37390  stakings[ _addressArray[i] ] */\n      0xffffffffffffffffffffffffffffffffffffffff\n      and\n      0xffffffffffffffffffffffffffffffffffffffff\n      and\n      dup2\n      mstore\n      0x20\n      add\n      swap1\n      dup2\n      mstore\n      0x20\n      add\n      0x00\n      keccak256\n        /* \"TimeAlly.sol\":37392:37409  _stakingIdsOfLoan */\n      dup4\n        /* \"TimeAlly.sol\":37410:37411  j */\n      dup4\n        /* \"TimeAlly.sol\":37392:37412  _stakingIdsOfLoan[j] */\n      dup2\n      sload\n      dup2\n      lt\n      tag_191\n      jumpi\n      invalid\n    tag_191:\n      swap1\n      0x00\n      mstore\n      keccak256(0x00, 0x20)\n      add\n      sload\n        /* \"TimeAlly.sol\":37362:37414  stakings[ _addressArray[i] ][ _stakingIdsOfLoan[j] ] */\n      dup2\n      sload\n      dup2\n      lt\n      tag_193\n      jumpi\n      invalid\n    tag_193:\n      swap1\n      0x00\n      mstore\n      keccak256(0x00, 0x20)\n      swap1\n      0x09\n      mul\n      add\n        /* \"TimeAlly.sol\":37362:37426  stakings[ _addressArray[i] ][ _stakingIdsOfLoan[j] ].exaEsAmount */\n      0x00\n      add\n      sload\n        /* \"TimeAlly.sol\":37323:37336  _amountToBurn */\n      dup6\n        /* \"TimeAlly.sol\":37323:37340  _amountToBurn.add */\n      tag_195\n      swap1\n        /* \"TimeAlly.sol\":37323:37444  _amountToBurn.add(... */\n      swap2\n      swap1\n      0xffffffff\n      and\n      jump\t// in\n    tag_189:\n        /* \"TimeAlly.sol\":37307:37444  _amountToBurn = _amountToBurn.add(... */\n      swap4\n      pop\n        /* \"TimeAlly.sol\":37284:37287  j++ */\n      dup1\n      dup1\n      0x01\n      add\n      swap2\n      pop\n      pop\n        /* \"TimeAlly.sol\":37235:37459  for(uint256 j = 0; j < _stakingIdsOfLoan.length; j++) {... */\n      jump(tag_186)\n    tag_187:\n      pop\n        /* \"TimeAlly.sol\":37525:37630  _amountToBurn.sub(... */\n      tag_196\n        /* \"TimeAlly.sol\":37560:37565  loans */\n      0x08\n        /* \"TimeAlly.sol\":37560:37585  loans[ _addressArray[i] ] */\n      0x00\n        /* \"TimeAlly.sol\":37567:37580  _addressArray */\n      dup8\n        /* \"TimeAlly.sol\":37581:37582  i */\n      dup6\n        /* \"TimeAlly.sol\":37567:37583  _addressArray[i] */\n      dup2\n      mload\n      dup2\n      lt\n      tag_197\n      jumpi\n      invalid\n    tag_197:\n      0x20\n      mul\n      0x20\n      add\n      add\n      mload\n        /* \"TimeAlly.sol\":37560:37585  loans[ _addressArray[i] ] */\n      0xffffffffffffffffffffffffffffffffffffffff\n      and\n      0xffffffffffffffffffffffffffffffffffffffff\n      and\n      dup2\n      mstore\n      0x20\n      add\n      swap1\n      dup2\n      mstore\n      0x20\n      add\n      0x00\n      keccak256\n        /* \"TimeAlly.sol\":37587:37599  _loanIdArray */\n      dup6\n        /* \"TimeAlly.sol\":37600:37601  i */\n      dup5\n        /* \"TimeAlly.sol\":37587:37602  _loanIdArray[i] */\n      dup2\n      mload\n      dup2\n      lt\n      tag_198\n      jumpi\n      invalid\n    tag_198:\n      0x20\n      mul\n      0x20\n      add\n      add\n      mload\n        /* \"TimeAlly.sol\":37560:37604  loans[ _addressArray[i] ][ _loanIdArray[i] ] */\n      dup2\n      sload\n      dup2\n      lt\n      tag_199\n      jumpi\n      invalid\n    tag_199:\n      swap1\n      0x00\n      mstore\n      keccak256(0x00, 0x20)\n      swap1\n      0x05\n      mul\n      add\n        /* \"TimeAlly.sol\":37560:37616  loans[ _addressArray[i] ][ _loanIdArray[i] ].exaEsAmount */\n      0x00\n      add\n      sload\n        /* \"TimeAlly.sol\":37525:37538  _amountToBurn */\n      dup5\n        /* \"TimeAlly.sol\":37525:37542  _amountToBurn.sub */\n      tag_201\n      swap1\n        /* \"TimeAlly.sol\":37525:37630  _amountToBurn.sub(... */\n      swap2\n      swap1\n      0xffffffff\n      and\n      jump\t// in\n    tag_196:\n        /* \"TimeAlly.sol\":37509:37630  _amountToBurn = _amountToBurn.sub(... */\n      swap3\n      pop\n        /* \"TimeAlly.sol\":36500:37641  for(uint256 i = 0; i < _addressArray.length; i++) {... */\n      pop\n        /* \"TimeAlly.sol\":36545:36548  i++ */\n      dup1\n      dup1\n      0x01\n      add\n      swap2\n      pop\n      pop\n        /* \"TimeAlly.sol\":36500:37641  for(uint256 i = 0; i < _addressArray.length; i++) {... */\n      jump(tag_158)\n    tag_159:\n      pop\n        /* \"TimeAlly.sol\":37658:37663  token */\n      0x02\n      0x00\n      swap1\n      sload\n      swap1\n      0x0100\n      exp\n      swap1\n      div\n      0xffffffffffffffffffffffffffffffffffffffff\n      and\n        /* \"TimeAlly.sol\":37658:37672  token.transfer */\n      0xffffffffffffffffffffffffffffffffffffffff\n      and\n      0xa9059cbb\n        /* \"TimeAlly.sol\":37681:37691  nrtManager */\n      0x03\n      0x00\n      swap1\n      sload\n      swap1\n      0x0100\n      exp\n      swap1\n      div\n      0xffffffffffffffffffffffffffffffffffffffff\n      and\n        /* \"TimeAlly.sol\":37694:37707  _amountToBurn */\n      dup4\n        /* \"TimeAlly.sol\":37658:37708  token.transfer(address(nrtManager), _amountToBurn) */\n      mload(0x40)\n      dup4\n      0xffffffff\n      and\n      0xe0\n      shl\n      dup2\n      mstore\n      0x04\n      add\n      dup1\n      dup4\n      0xffffffffffffffffffffffffffffffffffffffff\n      and\n      0xffffffffffffffffffffffffffffffffffffffff\n      and\n      dup2\n      mstore\n      0x20\n      add\n      dup3\n      dup2\n      mstore\n      0x20\n      add\n      swap3\n      pop\n      pop\n      pop\n      0x20\n      mload(0x40)\n      dup1\n      dup4\n      sub\n      dup2\n      0x00\n      dup8\n      dup1\n      extcodesize\n      iszero\n        /* \"--CODEGEN--\":8:17   */\n      dup1\n        /* \"--CODEGEN--\":5:7   */\n      iszero\n      tag_202\n      jumpi\n        /* \"--CODEGEN--\":30:31   */\n      0x00\n        /* \"--CODEGEN--\":27:28   */\n      dup1\n        /* \"--CODEGEN--\":20:32   */\n      revert\n        /* \"--CODEGEN--\":5:7   */\n    tag_202:\n        /* \"TimeAlly.sol\":37658:37708  token.transfer(address(nrtManager), _amountToBurn) */\n      pop\n      gas\n      call\n      iszero\n        /* \"--CODEGEN--\":8:17   */\n      dup1\n        /* \"--CODEGEN--\":5:7   */\n      iszero\n      tag_203\n      jumpi\n        /* \"--CODEGEN--\":45:61   */\n      returndatasize\n        /* \"--CODEGEN--\":42:43   */\n      0x00\n        /* \"--CODEGEN--\":39:40   */\n      dup1\n        /* \"--CODEGEN--\":24:62   */\n      returndatacopy\n        /* \"--CODEGEN--\":77:93   */\n      returndatasize\n        /* \"--CODEGEN--\":74:75   */\n      0x00\n        /* \"--CODEGEN--\":67:94   */\n      revert\n        /* \"--CODEGEN--\":5:7   */\n    tag_203:\n        /* \"TimeAlly.sol\":37658:37708  token.transfer(address(nrtManager), _amountToBurn) */\n      pop\n      pop\n      pop\n      pop\n      mload(0x40)\n      returndatasize\n        /* \"--CODEGEN--\":13:15   */\n      0x20\n        /* \"--CODEGEN--\":8:11   */\n      dup2\n        /* \"--CODEGEN--\":5:16   */\n      lt\n        /* \"--CODEGEN--\":2:4   */\n      iszero\n      tag_204\n      jumpi\n        /* \"--CODEGEN--\":29:30   */\n      0x00\n        /* \"--CODEGEN--\":26:27   */\n      dup1\n        /* \"--CODEGEN--\":19:31   */\n      revert\n        /* \"--CODEGEN--\":2:4   */\n    tag_204:\n        /* \"TimeAlly.sol\":37658:37708  token.transfer(address(nrtManager), _amountToBurn) */\n      dup2\n      add\n      swap1\n      dup1\n      dup1\n      mload\n      swap1\n      0x20\n      add\n      swap1\n      swap3\n      swap2\n      swap1\n      pop\n      pop\n      pop\n        /* \"TimeAlly.sol\":37650:37709  require(token.transfer(address(nrtManager), _amountToBurn)) */\n      tag_205\n      jumpi\n      0x00\n      dup1\n      revert\n    tag_205:\n        /* \"TimeAlly.sol\":37727:37737  nrtManager */\n      0x03\n      0x00\n      swap1\n      sload\n      swap1\n      0x0100\n      exp\n      swap1\n      div\n      0xffffffffffffffffffffffffffffffffffffffff\n      and\n        /* \"TimeAlly.sol\":37727:37751  nrtManager.UpdateBurnBal */\n      0xffffffffffffffffffffffffffffffffffffffff\n      and\n      0x41aaa9b6\n        /* \"TimeAlly.sol\":37752:37765  _amountToBurn */\n      dup3\n        /* \"TimeAlly.sol\":37727:37766  nrtManager.UpdateBurnBal(_amountToBurn) */\n      mload(0x40)\n      dup3\n      0xffffffff\n      and\n      0xe0\n      shl\n      dup2\n      mstore\n      0x04\n      add\n      dup1\n      dup3\n      dup2\n      mstore\n      0x20\n      add\n      swap2\n      pop\n      pop\n      0x20\n      mload(0x40)\n      dup1\n      dup4\n      sub\n      dup2\n      0x00\n      dup8\n      dup1\n      extcodesize\n      iszero\n        /* \"--CODEGEN--\":8:17   */\n      dup1\n        /* \"--CODEGEN--\":5:7   */\n      iszero\n      tag_206\n      jumpi\n        /* \"--CODEGEN--\":30:31   */\n      0x00\n        /* \"--CODEGEN--\":27:28   */\n      dup1\n        /* \"--CODEGEN--\":20:32   */\n      revert\n        /* \"--CODEGEN--\":5:7   */\n    tag_206:\n        /* \"TimeAlly.sol\":37727:37766  nrtManager.UpdateBurnBal(_amountToBurn) */\n      pop\n      gas\n      call\n      iszero\n        /* \"--CODEGEN--\":8:17   */\n      dup1\n        /* \"--CODEGEN--\":5:7   */\n      iszero\n      tag_207\n      jumpi\n        /* \"--CODEGEN--\":45:61   */\n      returndatasize\n        /* \"--CODEGEN--\":42:43   */\n      0x00\n        /* \"--CODEGEN--\":39:40   */\n      dup1\n        /* \"--CODEGEN--\":24:62   */\n      returndatacopy\n        /* \"--CODEGEN--\":77:93   */\n      returndatasize\n        /* \"--CODEGEN--\":74:75   */\n      0x00\n        /* \"--CODEGEN--\":67:94   */\n      revert\n        /* \"--CODEGEN--\":5:7   */\n    tag_207:\n        /* \"TimeAlly.sol\":37727:37766  nrtManager.UpdateBurnBal(_amountToBurn) */\n      pop\n      pop\n      pop\n      pop\n      mload(0x40)\n      returndatasize\n        /* \"--CODEGEN--\":13:15   */\n      0x20\n        /* \"--CODEGEN--\":8:11   */\n      dup2\n        /* \"--CODEGEN--\":5:16   */\n      lt\n        /* \"--CODEGEN--\":2:4   */\n      iszero\n      tag_208\n      jumpi\n        /* \"--CODEGEN--\":29:30   */\n      0x00\n        /* \"--CODEGEN--\":26:27   */\n      dup1\n        /* \"--CODEGEN--\":19:31   */\n      revert\n        /* \"--CODEGEN--\":2:4   */\n    tag_208:\n        /* \"TimeAlly.sol\":37727:37766  nrtManager.UpdateBurnBal(_amountToBurn) */\n      dup2\n      add\n      swap1\n      dup1\n      dup1\n      mload\n      swap1\n      0x20\n      add\n      swap1\n      swap3\n      swap2\n      swap1\n      pop\n      pop\n      pop\n        /* \"TimeAlly.sol\":37719:37767  require(nrtManager.UpdateBurnBal(_amountToBurn)) */\n      tag_209\n      jumpi\n      0x00\n      dup1\n      revert\n    tag_209:\n        /* \"TimeAlly.sol\":36361:37797  function burnDefaultedLoans(address[] memory _addressArray, uint256[] memory _loanIdArray) public {... */\n      pop\n      pop\n      pop\n      jump\t// out\n        /* \"TimeAlly.sol\":2721:2766  mapping(address => Staking[]) public stakings */\n    tag_54:\n      mstore(0x20, 0x07)\n      dup2\n      0x00\n      mstore\n      keccak256(0x00, 0x40)\n      dup2\n      dup2\n      sload\n      dup2\n      lt\n      tag_210\n      jumpi\n      invalid\n    tag_210:\n      swap1\n      0x00\n      mstore\n      keccak256(0x00, 0x20)\n      swap1\n      0x09\n      mul\n      add\n      0x00\n      swap2\n      pop\n      swap2\n      pop\n      pop\n      dup1\n      0x00\n      add\n      sload\n      swap1\n      dup1\n      0x01\n      add\n      sload\n      swap1\n      dup1\n      0x02\n      add\n      sload\n      swap1\n      dup1\n      0x03\n      add\n      sload\n      swap1\n      dup1\n      0x04\n      add\n      sload\n      swap1\n      dup1\n      0x05\n      add\n      sload\n      swap1\n      dup1\n      0x06\n      add\n      sload\n      swap1\n      pop\n      dup8\n      jump\t// out\n        /* \"TimeAlly.sol\":3128:3163  uint256[] public timeAllyMonthlyNRT */\n    tag_57:\n      0x0b\n      dup2\n      dup2\n      sload\n      dup2\n      lt\n      tag_212\n      jumpi\n      invalid\n    tag_212:\n      swap1\n      0x00\n      mstore\n      keccak256(0x00, 0x20)\n      add\n      0x00\n      swap2\n      pop\n      swap1\n      pop\n      sload\n      dup2\n      jump\t// out\n        /* \"TimeAlly.sol\":21590:22961  function seeBenefitOfAStakingByMonths(... */\n    tag_63:\n        /* \"TimeAlly.sol\":21747:21754  uint256 */\n      0x00\n        /* \"TimeAlly.sol\":21766:21792  uint256 benefitOfAllMonths */\n      dup1\n        /* \"TimeAlly.sol\":21806:21815  uint256 i */\n      0x00\n        /* \"TimeAlly.sol\":21818:21819  0 */\n      dup1\n        /* \"TimeAlly.sol\":21806:21819  uint256 i = 0 */\n      swap1\n      pop\n        /* \"TimeAlly.sol\":21802:22809  for(uint256 i = 0; i < _months.length; i++) {... */\n    tag_215:\n        /* \"TimeAlly.sol\":21825:21832  _months */\n      dup4\n        /* \"TimeAlly.sol\":21825:21839  _months.length */\n      mload\n        /* \"TimeAlly.sol\":21821:21822  i */\n      dup2\n        /* \"TimeAlly.sol\":21821:21839  i < _months.length */\n      lt\n        /* \"TimeAlly.sol\":21802:22809  for(uint256 i = 0; i < _months.length; i++) {... */\n      iszero\n      tag_216\n      jumpi\n        /* \"TimeAlly.sol\":22352:22405  isStakingActive(_userAddress, _stakingId, _months[i]) */\n      tag_218\n        /* \"TimeAlly.sol\":22368:22380  _userAddress */\n      dup7\n        /* \"TimeAlly.sol\":22382:22392  _stakingId */\n      dup7\n        /* \"TimeAlly.sol\":22394:22401  _months */\n      dup7\n        /* \"TimeAlly.sol\":22402:22403  i */\n      dup5\n        /* \"TimeAlly.sol\":22394:22404  _months[i] */\n      dup2\n      mload\n      dup2\n      lt\n      tag_219\n      jumpi\n      invalid\n    tag_219:\n      0x20\n      mul\n      0x20\n      add\n      add\n      mload\n        /* \"TimeAlly.sol\":22352:22367  isStakingActive */\n      tag_128\n        /* \"TimeAlly.sol\":22352:22405  isStakingActive(_userAddress, _stakingId, _months[i]) */\n      jump\t// in\n    tag_218:\n        /* \"TimeAlly.sol\":22352:22483  isStakingActive(_userAddress, _stakingId, _months[i])... */\n      dup1\n      iszero\n      tag_220\n      jumpi\n      pop\n        /* \"TimeAlly.sol\":22422:22430  stakings */\n      0x07\n        /* \"TimeAlly.sol\":22422:22444  stakings[_userAddress] */\n      0x00\n        /* \"TimeAlly.sol\":22431:22443  _userAddress */\n      dup8\n        /* \"TimeAlly.sol\":22422:22444  stakings[_userAddress] */\n      0xffffffffffffffffffffffffffffffffffffffff\n      and\n      0xffffffffffffffffffffffffffffffffffffffff\n      and\n      dup2\n      mstore\n      0x20\n      add\n      swap1\n      dup2\n      mstore\n      0x20\n      add\n      0x00\n      keccak256\n        /* \"TimeAlly.sol\":22445:22455  _stakingId */\n      dup6\n        /* \"TimeAlly.sol\":22422:22456  stakings[_userAddress][_stakingId] */\n      dup2\n      sload\n      dup2\n      lt\n      tag_221\n      jumpi\n      invalid\n    tag_221:\n      swap1\n      0x00\n      mstore\n      keccak256(0x00, 0x20)\n      swap1\n      0x09\n      mul\n      add\n        /* \"TimeAlly.sol\":22422:22471  stakings[_userAddress][_stakingId].isMonthClaimed */\n      0x07\n      add\n        /* \"TimeAlly.sol\":22422:22483  stakings[_userAddress][_stakingId].isMonthClaimed[_months[i]] */\n      0x00\n        /* \"TimeAlly.sol\":22472:22479  _months */\n      dup6\n        /* \"TimeAlly.sol\":22480:22481  i */\n      dup4\n        /* \"TimeAlly.sol\":22472:22482  _months[i] */\n      dup2\n      mload\n      dup2\n      lt\n      tag_223\n      jumpi\n      invalid\n    tag_223:\n      0x20\n      mul\n      0x20\n      add\n      add\n      mload\n        /* \"TimeAlly.sol\":22422:22483  stakings[_userAddress][_stakingId].isMonthClaimed[_months[i]] */\n      dup2\n      mstore\n      0x20\n      add\n      swap1\n      dup2\n      mstore\n      0x20\n      add\n      0x00\n      keccak256\n      0x00\n      swap1\n      sload\n      swap1\n      0x0100\n      exp\n      swap1\n      div\n      0xff\n      and\n        /* \"TimeAlly.sol\":22421:22483  !stakings[_userAddress][_stakingId].isMonthClaimed[_months[i]] */\n      iszero\n        /* \"TimeAlly.sol\":22352:22483  isStakingActive(_userAddress, _stakingId, _months[i])... */\n    tag_220:\n        /* \"TimeAlly.sol\":22349:22799  if(isStakingActive(_userAddress, _stakingId, _months[i])... */\n      iszero\n      tag_224\n      jumpi\n        /* \"TimeAlly.sol\":22503:22518  uint256 benefit */\n      0x00\n        /* \"TimeAlly.sol\":22521:22714  stakings[_userAddress][_stakingId].exaEsAmount... */\n      tag_225\n        /* \"TimeAlly.sol\":22680:22699  totalActiveStakings */\n      0x0a\n        /* \"TimeAlly.sol\":22680:22713  totalActiveStakings[ _months[i] ] */\n      0x00\n        /* \"TimeAlly.sol\":22701:22708  _months */\n      dup8\n        /* \"TimeAlly.sol\":22709:22710  i */\n      dup6\n        /* \"TimeAlly.sol\":22701:22711  _months[i] */\n      dup2\n      mload\n      dup2\n      lt\n      tag_226\n      jumpi\n      invalid\n    tag_226:\n      0x20\n      mul\n      0x20\n      add\n      add\n      mload\n        /* \"TimeAlly.sol\":22680:22713  totalActiveStakings[ _months[i] ] */\n      dup2\n      mstore\n      0x20\n      add\n      swap1\n      dup2\n      mstore\n      0x20\n      add\n      0x00\n      keccak256\n      sload\n        /* \"TimeAlly.sol\":22521:22640  stakings[_userAddress][_stakingId].exaEsAmount... */\n      tag_227\n        /* \"TimeAlly.sol\":22607:22625  timeAllyMonthlyNRT */\n      0x0b\n        /* \"TimeAlly.sol\":22627:22634  _months */\n      dup9\n        /* \"TimeAlly.sol\":22635:22636  i */\n      dup7\n        /* \"TimeAlly.sol\":22627:22637  _months[i] */\n      dup2\n      mload\n      dup2\n      lt\n      tag_228\n      jumpi\n      invalid\n    tag_228:\n      0x20\n      mul\n      0x20\n      add\n      add\n      mload\n        /* \"TimeAlly.sol\":22607:22639  timeAllyMonthlyNRT[ _months[i] ] */\n      dup2\n      sload\n      dup2\n      lt\n      tag_229\n      jumpi\n      invalid\n    tag_229:\n      swap1\n      0x00\n      mstore\n      keccak256(0x00, 0x20)\n      add\n      sload\n        /* \"TimeAlly.sol\":22521:22529  stakings */\n      0x07\n        /* \"TimeAlly.sol\":22521:22543  stakings[_userAddress] */\n      0x00\n        /* \"TimeAlly.sol\":22530:22542  _userAddress */\n      dup13\n        /* \"TimeAlly.sol\":22521:22543  stakings[_userAddress] */\n      0xffffffffffffffffffffffffffffffffffffffff\n      and\n      0xffffffffffffffffffffffffffffffffffffffff\n      and\n      dup2\n      mstore\n      0x20\n      add\n      swap1\n      dup2\n      mstore\n      0x20\n      add\n      0x00\n      keccak256\n        /* \"TimeAlly.sol\":22544:22554  _stakingId */\n      dup11\n        /* \"TimeAlly.sol\":22521:22555  stakings[_userAddress][_stakingId] */\n      dup2\n      sload\n      dup2\n      lt\n      tag_231\n      jumpi\n      invalid\n    tag_231:\n      swap1\n      0x00\n      mstore\n      keccak256(0x00, 0x20)\n      swap1\n      0x09\n      mul\n      add\n        /* \"TimeAlly.sol\":22521:22567  stakings[_userAddress][_stakingId].exaEsAmount */\n      0x00\n      add\n      sload\n        /* \"TimeAlly.sol\":22521:22606  stakings[_userAddress][_stakingId].exaEsAmount... */\n      tag_173\n      swap1\n        /* \"TimeAlly.sol\":22521:22640  stakings[_userAddress][_stakingId].exaEsAmount... */\n      swap2\n      swap1\n      0xffffffff\n      and\n      jump\t// in\n    tag_227:\n        /* \"TimeAlly.sol\":22521:22679  stakings[_userAddress][_stakingId].exaEsAmount... */\n      tag_233\n      swap1\n        /* \"TimeAlly.sol\":22521:22714  stakings[_userAddress][_stakingId].exaEsAmount... */\n      swap2\n      swap1\n      0xffffffff\n      and\n      jump\t// in\n    tag_225:\n        /* \"TimeAlly.sol\":22503:22714  uint256 benefit = stakings[_userAddress][_stakingId].exaEsAmount... */\n      swap1\n      pop\n        /* \"TimeAlly.sol\":22753:22784  benefitOfAllMonths.add(benefit) */\n      tag_234\n        /* \"TimeAlly.sol\":22776:22783  benefit */\n      dup2\n        /* \"TimeAlly.sol\":22753:22771  benefitOfAllMonths */\n      dup5\n        /* \"TimeAlly.sol\":22753:22775  benefitOfAllMonths.add */\n      tag_195\n      swap1\n        /* \"TimeAlly.sol\":22753:22784  benefitOfAllMonths.add(benefit) */\n      swap2\n      swap1\n      0xffffffff\n      and\n      jump\t// in\n    tag_234:\n        /* \"TimeAlly.sol\":22732:22784  benefitOfAllMonths = benefitOfAllMonths.add(benefit) */\n      swap3\n      pop\n        /* \"TimeAlly.sol\":22349:22799  if(isStakingActive(_userAddress, _stakingId, _months[i])... */\n      pop\n    tag_224:\n        /* \"TimeAlly.sol\":21841:21844  i++ */\n      dup1\n      dup1\n      0x01\n      add\n      swap2\n      pop\n      pop\n        /* \"TimeAlly.sol\":21802:22809  for(uint256 i = 0; i < _months.length; i++) {... */\n      jump(tag_215)\n    tag_216:\n      pop\n        /* \"TimeAlly.sol\":22825:22954  benefitOfAllMonths.mul(... */\n      tag_235\n        /* \"TimeAlly.sol\":22951:22953  15 */\n      0x0f\n        /* \"TimeAlly.sol\":22825:22946  benefitOfAllMonths.mul(... */\n      tag_236\n        /* \"TimeAlly.sol\":22859:22871  stakingPlans */\n      0x05\n        /* \"TimeAlly.sol\":22872:22880  stakings */\n      0x07\n        /* \"TimeAlly.sol\":22872:22894  stakings[_userAddress] */\n      0x00\n        /* \"TimeAlly.sol\":22881:22893  _userAddress */\n      dup11\n        /* \"TimeAlly.sol\":22872:22894  stakings[_userAddress] */\n      0xffffffffffffffffffffffffffffffffffffffff\n      and\n      0xffffffffffffffffffffffffffffffffffffffff\n      and\n      dup2\n      mstore\n      0x20\n      add\n      swap1\n      dup2\n      mstore\n      0x20\n      add\n      0x00\n      keccak256\n        /* \"TimeAlly.sol\":22895:22905  _stakingId */\n      dup9\n        /* \"TimeAlly.sol\":22872:22906  stakings[_userAddress][_stakingId] */\n      dup2\n      sload\n      dup2\n      lt\n      tag_237\n      jumpi\n      invalid\n    tag_237:\n      swap1\n      0x00\n      mstore\n      keccak256(0x00, 0x20)\n      swap1\n      0x09\n      mul\n      add\n        /* \"TimeAlly.sol\":22872:22920  stakings[_userAddress][_stakingId].stakingPlanId */\n      0x03\n      add\n      sload\n        /* \"TimeAlly.sol\":22859:22921  stakingPlans[stakings[_userAddress][_stakingId].stakingPlanId] */\n      dup2\n      sload\n      dup2\n      lt\n      tag_239\n      jumpi\n      invalid\n    tag_239:\n      swap1\n      0x00\n      mstore\n      keccak256(0x00, 0x20)\n      swap1\n      0x03\n      mul\n      add\n        /* \"TimeAlly.sol\":22859:22936  stakingPlans[stakings[_userAddress][_stakingId].stakingPlanId].fractionFrom15 */\n      0x01\n      add\n      sload\n        /* \"TimeAlly.sol\":22825:22843  benefitOfAllMonths */\n      dup5\n        /* \"TimeAlly.sol\":22825:22847  benefitOfAllMonths.mul */\n      tag_173\n      swap1\n        /* \"TimeAlly.sol\":22825:22946  benefitOfAllMonths.mul(... */\n      swap2\n      swap1\n      0xffffffff\n      and\n      jump\t// in\n    tag_236:\n        /* \"TimeAlly.sol\":22825:22950  benefitOfAllMonths.mul(... */\n      tag_233\n      swap1\n        /* \"TimeAlly.sol\":22825:22954  benefitOfAllMonths.mul(... */\n      swap2\n      swap1\n      0xffffffff\n      and\n      jump\t// in\n    tag_235:\n        /* \"TimeAlly.sol\":22818:22954  return benefitOfAllMonths.mul(... */\n      swap2\n      pop\n      pop\n        /* \"TimeAlly.sol\":21590:22961  function seeBenefitOfAStakingByMonths(... */\n      swap4\n      swap3\n      pop\n      pop\n      pop\n      jump\t// out\n        /* \"TimeAlly.sol\":39624:39831  function viewNomination(address _userAddress, uint256 _stakingId, address _nomineeAddress) public view returns (uint256) {... */\n    tag_66:\n        /* \"TimeAlly.sol\":39736:39743  uint256 */\n      0x00\n        /* \"TimeAlly.sol\":39762:39770  stakings */\n      0x07\n        /* \"TimeAlly.sol\":39762:39784  stakings[_userAddress] */\n      0x00\n        /* \"TimeAlly.sol\":39771:39783  _userAddress */\n      dup6\n        /* \"TimeAlly.sol\":39762:39784  stakings[_userAddress] */\n      0xffffffffffffffffffffffffffffffffffffffff\n      and\n      0xffffffffffffffffffffffffffffffffffffffff\n      and\n      dup2\n      mstore\n      0x20\n      add\n      swap1\n      dup2\n      mstore\n      0x20\n      add\n      0x00\n      keccak256\n        /* \"TimeAlly.sol\":39785:39795  _stakingId */\n      dup4\n        /* \"TimeAlly.sol\":39762:39796  stakings[_userAddress][_stakingId] */\n      dup2\n      sload\n      dup2\n      lt\n      tag_242\n      jumpi\n      invalid\n    tag_242:\n      swap1\n      0x00\n      mstore\n      keccak256(0x00, 0x20)\n      swap1\n      0x09\n      mul\n      add\n        /* \"TimeAlly.sol\":39762:39807  stakings[_userAddress][_stakingId].nomination */\n      0x08\n      add\n        /* \"TimeAlly.sol\":39762:39824  stakings[_userAddress][_stakingId].nomination[_nomineeAddress] */\n      0x00\n        /* \"TimeAlly.sol\":39808:39823  _nomineeAddress */\n      dup4\n        /* \"TimeAlly.sol\":39762:39824  stakings[_userAddress][_stakingId].nomination[_nomineeAddress] */\n      0xffffffffffffffffffffffffffffffffffffffff\n      and\n      0xffffffffffffffffffffffffffffffffffffffff\n      and\n      dup2\n      mstore\n      0x20\n      add\n      swap1\n      dup2\n      mstore\n      0x20\n      add\n      0x00\n      keccak256\n      sload\n        /* \"TimeAlly.sol\":39755:39824  return stakings[_userAddress][_stakingId].nomination[_nomineeAddress] */\n      swap1\n      pop\n        /* \"TimeAlly.sol\":39624:39831  function viewNomination(address _userAddress, uint256 _stakingId, address _nomineeAddress) public view returns (uint256) {... */\n      swap4\n      swap3\n      pop\n      pop\n      pop\n      jump\t// out\n        /* \"TimeAlly.sol\":2923:2978  mapping (uint256 => uint256) public totalActiveStakings */\n    tag_69:\n      mstore(0x20, 0x0a)\n      dup1\n      0x00\n      mstore\n      keccak256(0x00, 0x40)\n      0x00\n      swap2\n      pop\n      swap1\n      pop\n      sload\n      dup2\n      jump\t// out\n        /* \"TimeAlly.sol\":41368:41835  function removeNominee(uint256 _stakingId, address _nomineeAddress) public {... */\n    tag_72:\n        /* \"TimeAlly.sol\":41504:41505  1 */\n      0x01\n        /* \"TimeAlly.sol\":41461:41469  stakings */\n      0x07\n        /* \"TimeAlly.sol\":41461:41481  stakings[msg.sender] */\n      0x00\n        /* \"TimeAlly.sol\":41470:41480  msg.sender */\n      caller\n        /* \"TimeAlly.sol\":41461:41481  stakings[msg.sender] */\n      0xffffffffffffffffffffffffffffffffffffffff\n      and\n      0xffffffffffffffffffffffffffffffffffffffff\n      and\n      dup2\n      mstore\n      0x20\n      add\n      swap1\n      dup2\n      mstore\n      0x20\n      add\n      0x00\n      keccak256\n        /* \"TimeAlly.sol\":41482:41492  _stakingId */\n      dup4\n        /* \"TimeAlly.sol\":41461:41493  stakings[msg.sender][_stakingId] */\n      dup2\n      sload\n      dup2\n      lt\n      tag_245\n      jumpi\n      invalid\n    tag_245:\n      swap1\n      0x00\n      mstore\n      keccak256(0x00, 0x20)\n      swap1\n      0x09\n      mul\n      add\n        /* \"TimeAlly.sol\":41461:41500  stakings[msg.sender][_stakingId].status */\n      0x04\n      add\n      sload\n        /* \"TimeAlly.sol\":41461:41505  stakings[msg.sender][_stakingId].status == 1 */\n      eq\n        /* \"TimeAlly.sol\":41453:41531  require(stakings[msg.sender][_stakingId].status == 1, 'staking should active') */\n      tag_247\n      jumpi\n      mload(0x40)\n      0x08c379a000000000000000000000000000000000000000000000000000000000\n      dup2\n      mstore\n      0x04\n      add\n      dup1\n      dup1\n      0x20\n      add\n      dup3\n      dup2\n      sub\n      dup3\n      mstore\n      0x15\n      dup2\n      mstore\n      0x20\n      add\n      dup1\n      0x7374616b696e672073686f756c64206163746976650000000000000000000000\n      dup2\n      mstore\n      pop\n      0x20\n      add\n      swap2\n      pop\n      pop\n      mload(0x40)\n      dup1\n      swap2\n      sub\n      swap1\n      revert\n    tag_247:\n        /* \"TimeAlly.sol\":41541:41559  uint256 _oldShares */\n      0x00\n        /* \"TimeAlly.sol\":41562:41570  stakings */\n      0x07\n        /* \"TimeAlly.sol\":41562:41582  stakings[msg.sender] */\n      0x00\n        /* \"TimeAlly.sol\":41571:41581  msg.sender */\n      caller\n        /* \"TimeAlly.sol\":41562:41582  stakings[msg.sender] */\n      0xffffffffffffffffffffffffffffffffffffffff\n      and\n      0xffffffffffffffffffffffffffffffffffffffff\n      and\n      dup2\n      mstore\n      0x20\n      add\n      swap1\n      dup2\n      mstore\n      0x20\n      add\n      0x00\n      keccak256\n        /* \"TimeAlly.sol\":41583:41593  _stakingId */\n      dup4\n        /* \"TimeAlly.sol\":41562:41594  stakings[msg.sender][_stakingId] */\n      dup2\n      sload\n      dup2\n      lt\n      tag_248\n      jumpi\n      invalid\n    tag_248:\n      swap1\n      0x00\n      mstore\n      keccak256(0x00, 0x20)\n      swap1\n      0x09\n      mul\n      add\n        /* \"TimeAlly.sol\":41562:41605  stakings[msg.sender][_stakingId].nomination */\n      0x08\n      add\n        /* \"TimeAlly.sol\":41562:41617  stakings[msg.sender][_stakingId].nomination[msg.sender] */\n      0x00\n        /* \"TimeAlly.sol\":41606:41616  msg.sender */\n      caller\n        /* \"TimeAlly.sol\":41562:41617  stakings[msg.sender][_stakingId].nomination[msg.sender] */\n      0xffffffffffffffffffffffffffffffffffffffff\n      and\n      0xffffffffffffffffffffffffffffffffffffffff\n      and\n      dup2\n      mstore\n      0x20\n      add\n      swap1\n      dup2\n      mstore\n      0x20\n      add\n      0x00\n      keccak256\n      sload\n        /* \"TimeAlly.sol\":41541:41617  uint256 _oldShares = stakings[msg.sender][_stakingId].nomination[msg.sender] */\n      swap1\n      pop\n        /* \"TimeAlly.sol\":41690:41691  0 */\n      0x00\n        /* \"TimeAlly.sol\":41627:41635  stakings */\n      0x07\n        /* \"TimeAlly.sol\":41627:41647  stakings[msg.sender] */\n      0x00\n        /* \"TimeAlly.sol\":41636:41646  msg.sender */\n      caller\n        /* \"TimeAlly.sol\":41627:41647  stakings[msg.sender] */\n      0xffffffffffffffffffffffffffffffffffffffff\n      and\n      0xffffffffffffffffffffffffffffffffffffffff\n      and\n      dup2\n      mstore\n      0x20\n      add\n      swap1\n      dup2\n      mstore\n      0x20\n      add\n      0x00\n      keccak256\n        /* \"TimeAlly.sol\":41648:41658  _stakingId */\n      dup5\n        /* \"TimeAlly.sol\":41627:41659  stakings[msg.sender][_stakingId] */\n      dup2\n      sload\n      dup2\n      lt\n      tag_250\n      jumpi\n      invalid\n    tag_250:\n      swap1\n      0x00\n      mstore\n      keccak256(0x00, 0x20)\n      swap1\n      0x09\n      mul\n      add\n        /* \"TimeAlly.sol\":41627:41670  stakings[msg.sender][_stakingId].nomination */\n      0x08\n      add\n        /* \"TimeAlly.sol\":41627:41687  stakings[msg.sender][_stakingId].nomination[_nomineeAddress] */\n      0x00\n        /* \"TimeAlly.sol\":41671:41686  _nomineeAddress */\n      dup5\n        /* \"TimeAlly.sol\":41627:41687  stakings[msg.sender][_stakingId].nomination[_nomineeAddress] */\n      0xffffffffffffffffffffffffffffffffffffffff\n      and\n      0xffffffffffffffffffffffffffffffffffffffff\n      and\n      dup2\n      mstore\n      0x20\n      add\n      swap1\n      dup2\n      mstore\n      0x20\n      add\n      0x00\n      keccak256\n        /* \"TimeAlly.sol\":41627:41691  stakings[msg.sender][_stakingId].nomination[_nomineeAddress] = 0 */\n      dup2\n      swap1\n      sstore\n      pop\n        /* \"TimeAlly.sol\":41758:41828  stakings[msg.sender][_stakingId].totalNominationShares.sub(_oldShares) */\n      tag_252\n        /* \"TimeAlly.sol\":41817:41827  _oldShares */\n      dup2\n        /* \"TimeAlly.sol\":41758:41766  stakings */\n      0x07\n        /* \"TimeAlly.sol\":41758:41778  stakings[msg.sender] */\n      0x00\n        /* \"TimeAlly.sol\":41767:41777  msg.sender */\n      caller\n        /* \"TimeAlly.sol\":41758:41778  stakings[msg.sender] */\n      0xffffffffffffffffffffffffffffffffffffffff\n      and\n      0xffffffffffffffffffffffffffffffffffffffff\n      and\n      dup2\n      mstore\n      0x20\n      add\n      swap1\n      dup2\n      mstore\n      0x20\n      add\n      0x00\n      keccak256\n        /* \"TimeAlly.sol\":41779:41789  _stakingId */\n      dup6\n        /* \"TimeAlly.sol\":41758:41790  stakings[msg.sender][_stakingId] */\n      dup2\n      sload\n      dup2\n      lt\n      tag_253\n      jumpi\n      invalid\n    tag_253:\n      swap1\n      0x00\n      mstore\n      keccak256(0x00, 0x20)\n      swap1\n      0x09\n      mul\n      add\n        /* \"TimeAlly.sol\":41758:41812  stakings[msg.sender][_stakingId].totalNominationShares */\n      0x06\n      add\n      sload\n        /* \"TimeAlly.sol\":41758:41816  stakings[msg.sender][_stakingId].totalNominationShares.sub */\n      tag_201\n      swap1\n        /* \"TimeAlly.sol\":41758:41828  stakings[msg.sender][_stakingId].totalNominationShares.sub(_oldShares) */\n      swap2\n      swap1\n      0xffffffff\n      and\n      jump\t// in\n    tag_252:\n        /* \"TimeAlly.sol\":41701:41709  stakings */\n      0x07\n        /* \"TimeAlly.sol\":41701:41721  stakings[msg.sender] */\n      0x00\n        /* \"TimeAlly.sol\":41710:41720  msg.sender */\n      caller\n        /* \"TimeAlly.sol\":41701:41721  stakings[msg.sender] */\n      0xffffffffffffffffffffffffffffffffffffffff\n      and\n      0xffffffffffffffffffffffffffffffffffffffff\n      and\n      dup2\n      mstore\n      0x20\n      add\n      swap1\n      dup2\n      mstore\n      0x20\n      add\n      0x00\n      keccak256\n        /* \"TimeAlly.sol\":41722:41732  _stakingId */\n      dup5\n        /* \"TimeAlly.sol\":41701:41733  stakings[msg.sender][_stakingId] */\n      dup2\n      sload\n      dup2\n      lt\n      tag_255\n      jumpi\n      invalid\n    tag_255:\n      swap1\n      0x00\n      mstore\n      keccak256(0x00, 0x20)\n      swap1\n      0x09\n      mul\n      add\n        /* \"TimeAlly.sol\":41701:41755  stakings[msg.sender][_stakingId].totalNominationShares */\n      0x06\n      add\n        /* \"TimeAlly.sol\":41701:41828  stakings[msg.sender][_stakingId].totalNominationShares = stakings[msg.sender][_stakingId].totalNominationShares.sub(_oldShares) */\n      dup2\n      swap1\n      sstore\n      pop\n        /* \"TimeAlly.sol\":41368:41835  function removeNominee(uint256 _stakingId, address _nomineeAddress) public {... */\n      pop\n      pop\n      pop\n      jump\t// out\n        /* \"TimeAlly.sol\":10631:10851  function topupRewardBucket(uint256 _exaEsAmount) public {... */\n    tag_75:\n        /* \"TimeAlly.sol\":10705:10710  token */\n      0x02\n      0x00\n      swap1\n      sload\n      swap1\n      0x0100\n      exp\n      swap1\n      div\n      0xffffffffffffffffffffffffffffffffffffffff\n      and\n        /* \"TimeAlly.sol\":10705:10723  token.transferFrom */\n      0xffffffffffffffffffffffffffffffffffffffff\n      and\n      0x23b872dd\n        /* \"TimeAlly.sol\":10724:10734  msg.sender */\n      caller\n        /* \"TimeAlly.sol\":10744:10748  this */\n      address\n        /* \"TimeAlly.sol\":10751:10763  _exaEsAmount */\n      dup5\n        /* \"TimeAlly.sol\":10705:10764  token.transferFrom(msg.sender, address(this), _exaEsAmount) */\n      mload(0x40)\n      dup5\n      0xffffffff\n      and\n      0xe0\n      shl\n      dup2\n      mstore\n      0x04\n      add\n      dup1\n      dup5\n      0xffffffffffffffffffffffffffffffffffffffff\n      and\n      0xffffffffffffffffffffffffffffffffffffffff\n      and\n      dup2\n      mstore\n      0x20\n      add\n      dup4\n      0xffffffffffffffffffffffffffffffffffffffff\n      and\n      0xffffffffffffffffffffffffffffffffffffffff\n      and\n      dup2\n      mstore\n      0x20\n      add\n      dup3\n      dup2\n      mstore\n      0x20\n      add\n      swap4\n      pop\n      pop\n      pop\n      pop\n      0x20\n      mload(0x40)\n      dup1\n      dup4\n      sub\n      dup2\n      0x00\n      dup8\n      dup1\n      extcodesize\n      iszero\n        /* \"--CODEGEN--\":8:17   */\n      dup1\n        /* \"--CODEGEN--\":5:7   */\n      iszero\n      tag_258\n      jumpi\n        /* \"--CODEGEN--\":30:31   */\n      0x00\n        /* \"--CODEGEN--\":27:28   */\n      dup1\n        /* \"--CODEGEN--\":20:32   */\n      revert\n        /* \"--CODEGEN--\":5:7   */\n    tag_258:\n        /* \"TimeAlly.sol\":10705:10764  token.transferFrom(msg.sender, address(this), _exaEsAmount) */\n      pop\n      gas\n      call\n      iszero\n        /* \"--CODEGEN--\":8:17   */\n      dup1\n        /* \"--CODEGEN--\":5:7   */\n      iszero\n      tag_259\n      jumpi\n        /* \"--CODEGEN--\":45:61   */\n      returndatasize\n        /* \"--CODEGEN--\":42:43   */\n      0x00\n        /* \"--CODEGEN--\":39:40   */\n      dup1\n        /* \"--CODEGEN--\":24:62   */\n      returndatacopy\n        /* \"--CODEGEN--\":77:93   */\n      returndatasize\n        /* \"--CODEGEN--\":74:75   */\n      0x00\n        /* \"--CODEGEN--\":67:94   */\n      revert\n        /* \"--CODEGEN--\":5:7   */\n    tag_259:\n        /* \"TimeAlly.sol\":10705:10764  token.transferFrom(msg.sender, address(this), _exaEsAmount) */\n      pop\n      pop\n      pop\n      pop\n      mload(0x40)\n      returndatasize\n        /* \"--CODEGEN--\":13:15   */\n      0x20\n        /* \"--CODEGEN--\":8:11   */\n      dup2\n        /* \"--CODEGEN--\":5:16   */\n      lt\n        /* \"--CODEGEN--\":2:4   */\n      iszero\n      tag_260\n      jumpi\n        /* \"--CODEGEN--\":29:30   */\n      0x00\n        /* \"--CODEGEN--\":26:27   */\n      dup1\n        /* \"--CODEGEN--\":19:31   */\n      revert\n        /* \"--CODEGEN--\":2:4   */\n    tag_260:\n        /* \"TimeAlly.sol\":10705:10764  token.transferFrom(msg.sender, address(this), _exaEsAmount) */\n      dup2\n      add\n      swap1\n      dup1\n      dup1\n      mload\n      swap1\n      0x20\n      add\n      swap1\n      swap3\n      swap2\n      swap1\n      pop\n      pop\n      pop\n        /* \"TimeAlly.sol\":10697:10765  require(token.transferFrom(msg.sender, address(this), _exaEsAmount)) */\n      tag_261\n      jumpi\n      0x00\n      dup1\n      revert\n    tag_261:\n        /* \"TimeAlly.sol\":10802:10844  launchReward[msg.sender].add(_exaEsAmount) */\n      tag_262\n        /* \"TimeAlly.sol\":10831:10843  _exaEsAmount */\n      dup2\n        /* \"TimeAlly.sol\":10802:10814  launchReward */\n      0x09\n        /* \"TimeAlly.sol\":10802:10826  launchReward[msg.sender] */\n      0x00\n        /* \"TimeAlly.sol\":10815:10825  msg.sender */\n      caller\n        /* \"TimeAlly.sol\":10802:10826  launchReward[msg.sender] */\n      0xffffffffffffffffffffffffffffffffffffffff\n      and\n      0xffffffffffffffffffffffffffffffffffffffff\n      and\n      dup2\n      mstore\n      0x20\n      add\n      swap1\n      dup2\n      mstore\n      0x20\n      add\n      0x00\n      keccak256\n      sload\n        /* \"TimeAlly.sol\":10802:10830  launchReward[msg.sender].add */\n      tag_195\n      swap1\n        /* \"TimeAlly.sol\":10802:10844  launchReward[msg.sender].add(_exaEsAmount) */\n      swap2\n      swap1\n      0xffffffff\n      and\n      jump\t// in\n    tag_262:\n        /* \"TimeAlly.sol\":10775:10787  launchReward */\n      0x09\n        /* \"TimeAlly.sol\":10775:10799  launchReward[msg.sender] */\n      0x00\n        /* \"TimeAlly.sol\":10788:10798  msg.sender */\n      caller\n        /* \"TimeAlly.sol\":10775:10799  launchReward[msg.sender] */\n      0xffffffffffffffffffffffffffffffffffffffff\n      and\n      0xffffffffffffffffffffffffffffffffffffffff\n      and\n      dup2\n      mstore\n      0x20\n      add\n      swap1\n      dup2\n      mstore\n      0x20\n      add\n      0x00\n      keccak256\n        /* \"TimeAlly.sol\":10775:10844  launchReward[msg.sender] = launchReward[msg.sender].add(_exaEsAmount) */\n      dup2\n      swap1\n      sstore\n      pop\n        /* \"TimeAlly.sol\":10631:10851  function topupRewardBucket(uint256 _exaEsAmount) public {... */\n      pop\n      jump\t// out\n        /* \"TimeAlly.sol\":2618:2651  StakingPlan[] public stakingPlans */\n    tag_78:\n      0x05\n      dup2\n      dup2\n      sload\n      dup2\n      lt\n      tag_263\n      jumpi\n      invalid\n    tag_263:\n      swap1\n      0x00\n      mstore\n      keccak256(0x00, 0x20)\n      swap1\n      0x03\n      mul\n      add\n      0x00\n      swap2\n      pop\n      swap1\n      pop\n      dup1\n      0x00\n      add\n      sload\n      swap1\n      dup1\n      0x01\n      add\n      sload\n      swap1\n      dup1\n      0x02\n      add\n      0x00\n      swap1\n      sload\n      swap1\n      0x0100\n      exp\n      swap1\n      div\n      0xff\n      and\n      swap1\n      pop\n      dup4\n      jump\t// out\n        /* \"TimeAlly.sol\":5861:6197  function createStakingPlan(uint256 _months, uint256 _fractionFrom15, bool _isUrgentLoanAllowed) public onlyOwner {... */\n    tag_81:\n        /* \"TimeAlly.sol\":4425:4430  owner */\n      0x01\n      0x00\n      swap1\n      sload\n      swap1\n      0x0100\n      exp\n      swap1\n      div\n      0xffffffffffffffffffffffffffffffffffffffff\n      and\n        /* \"TimeAlly.sol\":4411:4430  msg.sender == owner */\n      0xffffffffffffffffffffffffffffffffffffffff\n      and\n        /* \"TimeAlly.sol\":4411:4421  msg.sender */\n      caller\n        /* \"TimeAlly.sol\":4411:4430  msg.sender == owner */\n      0xffffffffffffffffffffffffffffffffffffffff\n      and\n      eq\n        /* \"TimeAlly.sol\":4392:4480  require(... */\n      tag_266\n      jumpi\n      0x00\n      dup1\n      revert\n    tag_266:\n        /* \"TimeAlly.sol\":5984:5996  stakingPlans */\n      0x05\n        /* \"TimeAlly.sol\":6002:6189  StakingPlan({... */\n      mload(0x40)\n      dup1\n      0x60\n      add\n      0x40\n      mstore\n      dup1\n        /* \"TimeAlly.sol\":6036:6043  _months */\n      dup6\n        /* \"TimeAlly.sol\":6002:6189  StakingPlan({... */\n      dup2\n      mstore\n      0x20\n      add\n        /* \"TimeAlly.sol\":6073:6088  _fractionFrom15 */\n      dup5\n        /* \"TimeAlly.sol\":6002:6189  StakingPlan({... */\n      dup2\n      mstore\n      0x20\n      add\n        /* \"TimeAlly.sol\":6158:6178  _isUrgentLoanAllowed */\n      dup4\n        /* \"TimeAlly.sol\":6002:6189  StakingPlan({... */\n      iszero\n      iszero\n      dup2\n      mstore\n      pop\n        /* \"TimeAlly.sol\":5984:6190  stakingPlans.push(StakingPlan({... */\n      swap1\n      dup1\n        /* \"--CODEGEN--\":39:40   */\n      0x01\n        /* \"--CODEGEN--\":33:36   */\n      dup2\n        /* \"--CODEGEN--\":27:37   */\n      sload\n        /* \"--CODEGEN--\":23:41   */\n      add\n        /* \"--CODEGEN--\":57:67   */\n      dup1\n        /* \"--CODEGEN--\":52:55   */\n      dup3\n        /* \"--CODEGEN--\":45:68   */\n      sstore\n        /* \"--CODEGEN--\":79:89   */\n      dup1\n        /* \"--CODEGEN--\":72:89   */\n      swap2\n      pop\n        /* \"--CODEGEN--\":0:93   */\n      pop\n        /* \"TimeAlly.sol\":5984:6190  stakingPlans.push(StakingPlan({... */\n      swap1\n      0x01\n      dup3\n      sub\n      swap1\n      0x00\n      mstore\n      keccak256(0x00, 0x20)\n      swap1\n      0x03\n      mul\n      add\n      0x00\n      swap1\n      swap2\n      swap3\n      swap1\n      swap2\n      swap1\n      swap2\n      pop\n      0x00\n      dup3\n      add\n      mload\n      dup2\n      0x00\n      add\n      sstore\n      0x20\n      dup3\n      add\n      mload\n      dup2\n      0x01\n      add\n      sstore\n      0x40\n      dup3\n      add\n      mload\n      dup2\n      0x02\n      add\n      exp(0x0100, 0x00)\n      dup2\n      sload\n      dup2\n      0xff\n      mul\n      not\n      and\n      swap1\n      dup4\n      iszero\n      iszero\n      mul\n      or\n      swap1\n      sstore\n      pop\n      pop\n      pop\n      pop\n        /* \"TimeAlly.sol\":5861:6197  function createStakingPlan(uint256 _months, uint256 _fractionFrom15, bool _isUrgentLoanAllowed) public onlyOwner {... */\n      pop\n      pop\n      pop\n      jump\t// out\n        /* \"TimeAlly.sol\":2817:2864  mapping(address => uint256) public launchReward */\n    tag_84:\n      mstore(0x20, 0x09)\n      dup1\n      0x00\n      mstore\n      keccak256(0x00, 0x40)\n      0x00\n      swap2\n      pop\n      swap1\n      pop\n      sload\n      dup2\n      jump\t// out\n        /* \"TimeAlly.sol\":11099:11469  function giveLaunchReward(address[] memory _addresses, uint256[] memory _exaEsAmountArray) public onlyOwner {... */\n    tag_93:\n        /* \"TimeAlly.sol\":4425:4430  owner */\n      0x01\n      0x00\n      swap1\n      sload\n      swap1\n      0x0100\n      exp\n      swap1\n      div\n      0xffffffffffffffffffffffffffffffffffffffff\n      and\n        /* \"TimeAlly.sol\":4411:4430  msg.sender == owner */\n      0xffffffffffffffffffffffffffffffffffffffff\n      and\n        /* \"TimeAlly.sol\":4411:4421  msg.sender */\n      caller\n        /* \"TimeAlly.sol\":4411:4430  msg.sender == owner */\n      0xffffffffffffffffffffffffffffffffffffffff\n      and\n      eq\n        /* \"TimeAlly.sol\":4392:4480  require(... */\n      tag_270\n      jumpi\n      0x00\n      dup1\n      revert\n    tag_270:\n        /* \"TimeAlly.sol\":11221:11230  uint256 i */\n      0x00\n        /* \"TimeAlly.sol\":11233:11234  0 */\n      dup1\n        /* \"TimeAlly.sol\":11221:11234  uint256 i = 0 */\n      swap1\n      pop\n        /* \"TimeAlly.sol\":11217:11463  for(uint256 i = 0; i < _addresses.length; i++) {... */\n    tag_272:\n        /* \"TimeAlly.sol\":11240:11250  _addresses */\n      dup3\n        /* \"TimeAlly.sol\":11240:11257  _addresses.length */\n      mload\n        /* \"TimeAlly.sol\":11236:11237  i */\n      dup2\n        /* \"TimeAlly.sol\":11236:11257  i < _addresses.length */\n      lt\n        /* \"TimeAlly.sol\":11217:11463  for(uint256 i = 0; i < _addresses.length; i++) {... */\n      iszero\n      tag_273\n      jumpi\n        /* \"TimeAlly.sol\":11305:11355  launchReward[msg.sender].sub(_exaEsAmountArray[i]) */\n      tag_275\n        /* \"TimeAlly.sol\":11334:11351  _exaEsAmountArray */\n      dup3\n        /* \"TimeAlly.sol\":11352:11353  i */\n      dup3\n        /* \"TimeAlly.sol\":11334:11354  _exaEsAmountArray[i] */\n      dup2\n      mload\n      dup2\n      lt\n      tag_276\n      jumpi\n      invalid\n    tag_276:\n      0x20\n      mul\n      0x20\n      add\n      add\n      mload\n        /* \"TimeAlly.sol\":11305:11317  launchReward */\n      0x09\n        /* \"TimeAlly.sol\":11305:11329  launchReward[msg.sender] */\n      0x00\n        /* \"TimeAlly.sol\":11318:11328  msg.sender */\n      caller\n        /* \"TimeAlly.sol\":11305:11329  launchReward[msg.sender] */\n      0xffffffffffffffffffffffffffffffffffffffff\n      and\n      0xffffffffffffffffffffffffffffffffffffffff\n      and\n      dup2\n      mstore\n      0x20\n      add\n      swap1\n      dup2\n      mstore\n      0x20\n      add\n      0x00\n      keccak256\n      sload\n        /* \"TimeAlly.sol\":11305:11333  launchReward[msg.sender].sub */\n      tag_201\n      swap1\n        /* \"TimeAlly.sol\":11305:11355  launchReward[msg.sender].sub(_exaEsAmountArray[i]) */\n      swap2\n      swap1\n      0xffffffff\n      and\n      jump\t// in\n    tag_275:\n        /* \"TimeAlly.sol\":11278:11290  launchReward */\n      0x09\n        /* \"TimeAlly.sol\":11278:11302  launchReward[msg.sender] */\n      0x00\n        /* \"TimeAlly.sol\":11291:11301  msg.sender */\n      caller\n        /* \"TimeAlly.sol\":11278:11302  launchReward[msg.sender] */\n      0xffffffffffffffffffffffffffffffffffffffff\n      and\n      0xffffffffffffffffffffffffffffffffffffffff\n      and\n      dup2\n      mstore\n      0x20\n      add\n      swap1\n      dup2\n      mstore\n      0x20\n      add\n      0x00\n      keccak256\n        /* \"TimeAlly.sol\":11278:11355  launchReward[msg.sender] = launchReward[msg.sender].sub(_exaEsAmountArray[i]) */\n      dup2\n      swap1\n      sstore\n      pop\n        /* \"TimeAlly.sol\":11399:11452  launchReward[_addresses[i]].add(_exaEsAmountArray[i]) */\n      tag_277\n        /* \"TimeAlly.sol\":11431:11448  _exaEsAmountArray */\n      dup3\n        /* \"TimeAlly.sol\":11449:11450  i */\n      dup3\n        /* \"TimeAlly.sol\":11431:11451  _exaEsAmountArray[i] */\n      dup2\n      mload\n      dup2\n      lt\n      tag_278\n      jumpi\n      invalid\n    tag_278:\n      0x20\n      mul\n      0x20\n      add\n      add\n      mload\n        /* \"TimeAlly.sol\":11399:11411  launchReward */\n      0x09\n        /* \"TimeAlly.sol\":11399:11426  launchReward[_addresses[i]] */\n      0x00\n        /* \"TimeAlly.sol\":11412:11422  _addresses */\n      dup7\n        /* \"TimeAlly.sol\":11423:11424  i */\n      dup6\n        /* \"TimeAlly.sol\":11412:11425  _addresses[i] */\n      dup2\n      mload\n      dup2\n      lt\n      tag_279\n      jumpi\n      invalid\n    tag_279:\n      0x20\n      mul\n      0x20\n      add\n      add\n      mload\n        /* \"TimeAlly.sol\":11399:11426  launchReward[_addresses[i]] */\n      0xffffffffffffffffffffffffffffffffffffffff\n      and\n      0xffffffffffffffffffffffffffffffffffffffff\n      and\n      dup2\n      mstore\n      0x20\n      add\n      swap1\n      dup2\n      mstore\n      0x20\n      add\n      0x00\n      keccak256\n      sload\n        /* \"TimeAlly.sol\":11399:11430  launchReward[_addresses[i]].add */\n      tag_195\n      swap1\n        /* \"TimeAlly.sol\":11399:11452  launchReward[_addresses[i]].add(_exaEsAmountArray[i]) */\n      swap2\n      swap1\n      0xffffffff\n      and\n      jump\t// in\n    tag_277:\n        /* \"TimeAlly.sol\":11369:11381  launchReward */\n      0x09\n        /* \"TimeAlly.sol\":11369:11396  launchReward[_addresses[i]] */\n      0x00\n        /* \"TimeAlly.sol\":11382:11392  _addresses */\n      dup6\n        /* \"TimeAlly.sol\":11393:11394  i */\n      dup5\n        /* \"TimeAlly.sol\":11382:11395  _addresses[i] */\n      dup2\n      mload\n      dup2\n      lt\n      tag_280\n      jumpi\n      invalid\n    tag_280:\n      0x20\n      mul\n      0x20\n      add\n      add\n      mload\n        /* \"TimeAlly.sol\":11369:11396  launchReward[_addresses[i]] */\n      0xffffffffffffffffffffffffffffffffffffffff\n      and\n      0xffffffffffffffffffffffffffffffffffffffff\n      and\n      dup2\n      mstore\n      0x20\n      add\n      swap1\n      dup2\n      mstore\n      0x20\n      add\n      0x00\n      keccak256\n        /* \"TimeAlly.sol\":11369:11452  launchReward[_addresses[i]] = launchReward[_addresses[i]].add(_exaEsAmountArray[i]) */\n      dup2\n      swap1\n      sstore\n      pop\n        /* \"TimeAlly.sol\":11259:11262  i++ */\n      dup1\n      dup1\n      0x01\n      add\n      swap2\n      pop\n      pop\n        /* \"TimeAlly.sol\":11217:11463  for(uint256 i = 0; i < _addresses.length; i++) {... */\n      jump(tag_272)\n    tag_273:\n      pop\n        /* \"TimeAlly.sol\":11099:11469  function giveLaunchReward(address[] memory _addresses, uint256[] memory _exaEsAmountArray) public onlyOwner {... */\n      pop\n      pop\n      jump\t// out\n        /* \"TimeAlly.sol\":2309:2329  address public owner */\n    tag_95:\n      0x01\n      0x00\n      swap1\n      sload\n      swap1\n      0x0100\n      exp\n      swap1\n      div\n      0xffffffffffffffffffffffffffffffffffffffff\n      and\n      dup2\n      jump\t// out\n        /* \"TimeAlly.sol\":42057:45399  function nomineeWithdraw(address _userAddress, uint256 _stakingId) public {... */\n    tag_98:\n        /* \"TimeAlly.sol\":42171:42190  uint256 currentTime */\n      0x00\n        /* \"TimeAlly.sol\":42193:42198  token */\n      0x02\n      0x00\n      swap1\n      sload\n      swap1\n      0x0100\n      exp\n      swap1\n      div\n      0xffffffffffffffffffffffffffffffffffffffff\n      and\n        /* \"TimeAlly.sol\":42193:42202  token.mou */\n      0xffffffffffffffffffffffffffffffffffffffff\n      and\n      0xb81f90f3\n        /* \"TimeAlly.sol\":42193:42204  token.mou() */\n      mload(0x40)\n      dup2\n      0xffffffff\n      and\n      0xe0\n      shl\n      dup2\n      mstore\n      0x04\n      add\n      0x20\n      mload(0x40)\n      dup1\n      dup4\n      sub\n      dup2\n      dup7\n      dup1\n      extcodesize\n      iszero\n        /* \"--CODEGEN--\":8:17   */\n      dup1\n        /* \"--CODEGEN--\":5:7   */\n      iszero\n      tag_282\n      jumpi\n        /* \"--CODEGEN--\":30:31   */\n      0x00\n        /* \"--CODEGEN--\":27:28   */\n      dup1\n        /* \"--CODEGEN--\":20:32   */\n      revert\n        /* \"--CODEGEN--\":5:7   */\n    tag_282:\n        /* \"TimeAlly.sol\":42193:42204  token.mou() */\n      pop\n      gas\n      staticcall\n      iszero\n        /* \"--CODEGEN--\":8:17   */\n      dup1\n        /* \"--CODEGEN--\":5:7   */\n      iszero\n      tag_283\n      jumpi\n        /* \"--CODEGEN--\":45:61   */\n      returndatasize\n        /* \"--CODEGEN--\":42:43   */\n      0x00\n        /* \"--CODEGEN--\":39:40   */\n      dup1\n        /* \"--CODEGEN--\":24:62   */\n      returndatacopy\n        /* \"--CODEGEN--\":77:93   */\n      returndatasize\n        /* \"--CODEGEN--\":74:75   */\n      0x00\n        /* \"--CODEGEN--\":67:94   */\n      revert\n        /* \"--CODEGEN--\":5:7   */\n    tag_283:\n        /* \"TimeAlly.sol\":42193:42204  token.mou() */\n      pop\n      pop\n      pop\n      pop\n      mload(0x40)\n      returndatasize\n        /* \"--CODEGEN--\":13:15   */\n      0x20\n        /* \"--CODEGEN--\":8:11   */\n      dup2\n        /* \"--CODEGEN--\":5:16   */\n      lt\n        /* \"--CODEGEN--\":2:4   */\n      iszero\n      tag_284\n      jumpi\n        /* \"--CODEGEN--\":29:30   */\n      0x00\n        /* \"--CODEGEN--\":26:27   */\n      dup1\n        /* \"--CODEGEN--\":19:31   */\n      revert\n        /* \"--CODEGEN--\":2:4   */\n    tag_284:\n        /* \"TimeAlly.sol\":42193:42204  token.mou() */\n      dup2\n      add\n      swap1\n      dup1\n      dup1\n      mload\n      swap1\n      0x20\n      add\n      swap1\n      swap3\n      swap2\n      swap1\n      pop\n      pop\n      pop\n        /* \"TimeAlly.sol\":42171:42204  uint256 currentTime = token.mou() */\n      swap1\n      pop\n        /* \"TimeAlly.sol\":42424:42443  earthSecondsInMonth */\n      sload(0x04)\n        /* \"TimeAlly.sol\":42419:42421  12 */\n      0x0c\n        /* \"TimeAlly.sol\":42419:42443  12 * earthSecondsInMonth */\n      mul\n        /* \"TimeAlly.sol\":42377:42396  earthSecondsInMonth */\n      sload(0x04)\n        /* \"TimeAlly.sol\":42305:42317  stakingPlans */\n      0x05\n        /* \"TimeAlly.sol\":42318:42326  stakings */\n      0x07\n        /* \"TimeAlly.sol\":42318:42340  stakings[_userAddress] */\n      0x00\n        /* \"TimeAlly.sol\":42327:42339  _userAddress */\n      dup8\n        /* \"TimeAlly.sol\":42318:42340  stakings[_userAddress] */\n      0xffffffffffffffffffffffffffffffffffffffff\n      and\n      0xffffffffffffffffffffffffffffffffffffffff\n      and\n      dup2\n      mstore\n      0x20\n      add\n      swap1\n      dup2\n      mstore\n      0x20\n      add\n      0x00\n      keccak256\n        /* \"TimeAlly.sol\":42341:42351  _stakingId */\n      dup6\n        /* \"TimeAlly.sol\":42318:42352  stakings[_userAddress][_stakingId] */\n      dup2\n      sload\n      dup2\n      lt\n      tag_285\n      jumpi\n      invalid\n    tag_285:\n      swap1\n      0x00\n      mstore\n      keccak256(0x00, 0x20)\n      swap1\n      0x09\n      mul\n      add\n        /* \"TimeAlly.sol\":42318:42366  stakings[_userAddress][_stakingId].stakingPlanId */\n      0x03\n      add\n      sload\n        /* \"TimeAlly.sol\":42305:42367  stakingPlans[stakings[_userAddress][_stakingId].stakingPlanId] */\n      dup2\n      sload\n      dup2\n      lt\n      tag_287\n      jumpi\n      invalid\n    tag_287:\n      swap1\n      0x00\n      mstore\n      keccak256(0x00, 0x20)\n      swap1\n      0x03\n      mul\n      add\n        /* \"TimeAlly.sol\":42305:42374  stakingPlans[stakings[_userAddress][_stakingId].stakingPlanId].months */\n      0x00\n      add\n      sload\n        /* \"TimeAlly.sol\":42305:42396  stakingPlans[stakings[_userAddress][_stakingId].stakingPlanId].months * earthSecondsInMonth */\n      mul\n        /* \"TimeAlly.sol\":42238:42246  stakings */\n      0x07\n        /* \"TimeAlly.sol\":42238:42260  stakings[_userAddress] */\n      0x00\n        /* \"TimeAlly.sol\":42247:42259  _userAddress */\n      dup7\n        /* \"TimeAlly.sol\":42238:42260  stakings[_userAddress] */\n      0xffffffffffffffffffffffffffffffffffffffff\n      and\n      0xffffffffffffffffffffffffffffffffffffffff\n      and\n      dup2\n      mstore\n      0x20\n      add\n      swap1\n      dup2\n      mstore\n      0x20\n      add\n      0x00\n      keccak256\n        /* \"TimeAlly.sol\":42261:42271  _stakingId */\n      dup5\n        /* \"TimeAlly.sol\":42238:42272  stakings[_userAddress][_stakingId] */\n      dup2\n      sload\n      dup2\n      lt\n      tag_289\n      jumpi\n      invalid\n    tag_289:\n      swap1\n      0x00\n      mstore\n      keccak256(0x00, 0x20)\n      swap1\n      0x09\n      mul\n      add\n        /* \"TimeAlly.sol\":42238:42282  stakings[_userAddress][_stakingId].timestamp */\n      0x01\n      add\n      sload\n        /* \"TimeAlly.sol\":42238:42396  stakings[_userAddress][_stakingId].timestamp... */\n      add\n        /* \"TimeAlly.sol\":42238:42443  stakings[_userAddress][_stakingId].timestamp... */\n      add\n        /* \"TimeAlly.sol\":42223:42234  currentTime */\n      dup2\n        /* \"TimeAlly.sol\":42223:42445  currentTime > (stakings[_userAddress][_stakingId].timestamp... */\n      gt\n        /* \"TimeAlly.sol\":42214:42524  require( currentTime > (stakings[_userAddress][_stakingId].timestamp... */\n      tag_291\n      jumpi\n      0x00\n      dup1\n      revert\n    tag_291:\n        /* \"TimeAlly.sol\":42535:42557  uint256 _nomineeShares */\n      0x00\n        /* \"TimeAlly.sol\":42560:42568  stakings */\n      0x07\n        /* \"TimeAlly.sol\":42560:42582  stakings[_userAddress] */\n      0x00\n        /* \"TimeAlly.sol\":42569:42581  _userAddress */\n      dup6\n        /* \"TimeAlly.sol\":42560:42582  stakings[_userAddress] */\n      0xffffffffffffffffffffffffffffffffffffffff\n      and\n      0xffffffffffffffffffffffffffffffffffffffff\n      and\n      dup2\n      mstore\n      0x20\n      add\n      swap1\n      dup2\n      mstore\n      0x20\n      add\n      0x00\n      keccak256\n        /* \"TimeAlly.sol\":42583:42593  _stakingId */\n      dup4\n        /* \"TimeAlly.sol\":42560:42594  stakings[_userAddress][_stakingId] */\n      dup2\n      sload\n      dup2\n      lt\n      tag_292\n      jumpi\n      invalid\n    tag_292:\n      swap1\n      0x00\n      mstore\n      keccak256(0x00, 0x20)\n      swap1\n      0x09\n      mul\n      add\n        /* \"TimeAlly.sol\":42560:42605  stakings[_userAddress][_stakingId].nomination */\n      0x08\n      add\n        /* \"TimeAlly.sol\":42560:42617  stakings[_userAddress][_stakingId].nomination[msg.sender] */\n      0x00\n        /* \"TimeAlly.sol\":42606:42616  msg.sender */\n      caller\n        /* \"TimeAlly.sol\":42560:42617  stakings[_userAddress][_stakingId].nomination[msg.sender] */\n      0xffffffffffffffffffffffffffffffffffffffff\n      and\n      0xffffffffffffffffffffffffffffffffffffffff\n      and\n      dup2\n      mstore\n      0x20\n      add\n      swap1\n      dup2\n      mstore\n      0x20\n      add\n      0x00\n      keccak256\n      sload\n        /* \"TimeAlly.sol\":42535:42617  uint256 _nomineeShares = stakings[_userAddress][_stakingId].nomination[msg.sender] */\n      swap1\n      pop\n        /* \"TimeAlly.sol\":42652:42653  0 */\n      0x00\n        /* \"TimeAlly.sol\":42635:42649  _nomineeShares */\n      dup2\n        /* \"TimeAlly.sol\":42635:42653  _nomineeShares > 0 */\n      gt\n        /* \"TimeAlly.sol\":42627:42710  require(_nomineeShares > 0... */\n      tag_294\n      jumpi\n      0x00\n      dup1\n      revert\n    tag_294:\n        /* \"TimeAlly.sol\":42860:42861  5 */\n      0x05\n        /* \"TimeAlly.sol\":42815:42823  stakings */\n      0x07\n        /* \"TimeAlly.sol\":42815:42837  stakings[_userAddress] */\n      0x00\n        /* \"TimeAlly.sol\":42824:42836  _userAddress */\n      dup7\n        /* \"TimeAlly.sol\":42815:42837  stakings[_userAddress] */\n      0xffffffffffffffffffffffffffffffffffffffff\n      and\n      0xffffffffffffffffffffffffffffffffffffffff\n      and\n      dup2\n      mstore\n      0x20\n      add\n      swap1\n      dup2\n      mstore\n      0x20\n      add\n      0x00\n      keccak256\n        /* \"TimeAlly.sol\":42838:42848  _stakingId */\n      dup5\n        /* \"TimeAlly.sol\":42815:42849  stakings[_userAddress][_stakingId] */\n      dup2\n      sload\n      dup2\n      lt\n      tag_295\n      jumpi\n      invalid\n    tag_295:\n      swap1\n      0x00\n      mstore\n      keccak256(0x00, 0x20)\n      swap1\n      0x09\n      mul\n      add\n        /* \"TimeAlly.sol\":42815:42856  stakings[_userAddress][_stakingId].status */\n      0x04\n      add\n      sload\n        /* \"TimeAlly.sol\":42815:42861  stakings[_userAddress][_stakingId].status != 5 */\n      eq\n        /* \"TimeAlly.sol\":42812:42933  if(stakings[_userAddress][_stakingId].status != 5) {... */\n      tag_297\n      jumpi\n        /* \"TimeAlly.sol\":42921:42922  5 */\n      0x05\n        /* \"TimeAlly.sol\":42877:42885  stakings */\n      0x07\n        /* \"TimeAlly.sol\":42877:42899  stakings[_userAddress] */\n      0x00\n        /* \"TimeAlly.sol\":42886:42898  _userAddress */\n      dup7\n        /* \"TimeAlly.sol\":42877:42899  stakings[_userAddress] */\n      0xffffffffffffffffffffffffffffffffffffffff\n      and\n      0xffffffffffffffffffffffffffffffffffffffff\n      and\n      dup2\n      mstore\n      0x20\n      add\n      swap1\n      dup2\n      mstore\n      0x20\n      add\n      0x00\n      keccak256\n        /* \"TimeAlly.sol\":42900:42910  _stakingId */\n      dup5\n        /* \"TimeAlly.sol\":42877:42911  stakings[_userAddress][_stakingId] */\n      dup2\n      sload\n      dup2\n      lt\n      tag_298\n      jumpi\n      invalid\n    tag_298:\n      swap1\n      0x00\n      mstore\n      keccak256(0x00, 0x20)\n      swap1\n      0x09\n      mul\n      add\n        /* \"TimeAlly.sol\":42877:42918  stakings[_userAddress][_stakingId].status */\n      0x04\n      add\n        /* \"TimeAlly.sol\":42877:42922  stakings[_userAddress][_stakingId].status = 5 */\n      dup2\n      swap1\n      sstore\n      pop\n        /* \"TimeAlly.sol\":42812:42933  if(stakings[_userAddress][_stakingId].status != 5) {... */\n    tag_297:\n        /* \"TimeAlly.sol\":42979:43016  uint256 _pendingLiquidAmountInStaking */\n      0x00\n        /* \"TimeAlly.sol\":43019:43027  stakings */\n      0x07\n        /* \"TimeAlly.sol\":43019:43041  stakings[_userAddress] */\n      0x00\n        /* \"TimeAlly.sol\":43028:43040  _userAddress */\n      dup7\n        /* \"TimeAlly.sol\":43019:43041  stakings[_userAddress] */\n      0xffffffffffffffffffffffffffffffffffffffff\n      and\n      0xffffffffffffffffffffffffffffffffffffffff\n      and\n      dup2\n      mstore\n      0x20\n      add\n      swap1\n      dup2\n      mstore\n      0x20\n      add\n      0x00\n      keccak256\n        /* \"TimeAlly.sol\":43042:43052  _stakingId */\n      dup5\n        /* \"TimeAlly.sol\":43019:43053  stakings[_userAddress][_stakingId] */\n      dup2\n      sload\n      dup2\n      lt\n      tag_300\n      jumpi\n      invalid\n    tag_300:\n      swap1\n      0x00\n      mstore\n      keccak256(0x00, 0x20)\n      swap1\n      0x09\n      mul\n      add\n        /* \"TimeAlly.sol\":43019:43065  stakings[_userAddress][_stakingId].exaEsAmount */\n      0x00\n      add\n      sload\n        /* \"TimeAlly.sol\":42979:43065  uint256 _pendingLiquidAmountInStaking = stakings[_userAddress][_stakingId].exaEsAmount */\n      swap1\n      pop\n        /* \"TimeAlly.sol\":43075:43113  uint256 _pendingAccruedAmountInStaking */\n      0x00\n        /* \"TimeAlly.sol\":43258:43280  uint256 _stakeEndMonth */\n      dup1\n        /* \"TimeAlly.sol\":43333:43345  stakingPlans */\n      0x05\n        /* \"TimeAlly.sol\":43346:43354  stakings */\n      0x07\n        /* \"TimeAlly.sol\":43346:43368  stakings[_userAddress] */\n      0x00\n        /* \"TimeAlly.sol\":43355:43367  _userAddress */\n      dup10\n        /* \"TimeAlly.sol\":43346:43368  stakings[_userAddress] */\n      0xffffffffffffffffffffffffffffffffffffffff\n      and\n      0xffffffffffffffffffffffffffffffffffffffff\n      and\n      dup2\n      mstore\n      0x20\n      add\n      swap1\n      dup2\n      mstore\n      0x20\n      add\n      0x00\n      keccak256\n        /* \"TimeAlly.sol\":43369:43379  _stakingId */\n      dup8\n        /* \"TimeAlly.sol\":43346:43380  stakings[_userAddress][_stakingId] */\n      dup2\n      sload\n      dup2\n      lt\n      tag_302\n      jumpi\n      invalid\n    tag_302:\n      swap1\n      0x00\n      mstore\n      keccak256(0x00, 0x20)\n      swap1\n      0x09\n      mul\n      add\n        /* \"TimeAlly.sol\":43346:43394  stakings[_userAddress][_stakingId].stakingPlanId */\n      0x03\n      add\n      sload\n        /* \"TimeAlly.sol\":43333:43395  stakingPlans[stakings[_userAddress][_stakingId].stakingPlanId] */\n      dup2\n      sload\n      dup2\n      lt\n      tag_304\n      jumpi\n      invalid\n    tag_304:\n      swap1\n      0x00\n      mstore\n      keccak256(0x00, 0x20)\n      swap1\n      0x03\n      mul\n      add\n        /* \"TimeAlly.sol\":43333:43402  stakingPlans[stakings[_userAddress][_stakingId].stakingPlanId].months */\n      0x00\n      add\n      sload\n        /* \"TimeAlly.sol\":43283:43291  stakings */\n      0x07\n        /* \"TimeAlly.sol\":43283:43305  stakings[_userAddress] */\n      0x00\n        /* \"TimeAlly.sol\":43292:43304  _userAddress */\n      dup10\n        /* \"TimeAlly.sol\":43283:43305  stakings[_userAddress] */\n      0xffffffffffffffffffffffffffffffffffffffff\n      and\n      0xffffffffffffffffffffffffffffffffffffffff\n      and\n      dup2\n      mstore\n      0x20\n      add\n      swap1\n      dup2\n      mstore\n      0x20\n      add\n      0x00\n      keccak256\n        /* \"TimeAlly.sol\":43306:43316  _stakingId */\n      dup8\n        /* \"TimeAlly.sol\":43283:43317  stakings[_userAddress][_stakingId] */\n      dup2\n      sload\n      dup2\n      lt\n      tag_306\n      jumpi\n      invalid\n    tag_306:\n      swap1\n      0x00\n      mstore\n      keccak256(0x00, 0x20)\n      swap1\n      0x09\n      mul\n      add\n        /* \"TimeAlly.sol\":43283:43330  stakings[_userAddress][_stakingId].stakingMonth */\n      0x02\n      add\n      sload\n        /* \"TimeAlly.sol\":43283:43402  stakings[_userAddress][_stakingId].stakingMonth + stakingPlans[stakings[_userAddress][_stakingId].stakingPlanId].months */\n      add\n        /* \"TimeAlly.sol\":43258:43402  uint256 _stakeEndMonth = stakings[_userAddress][_stakingId].stakingMonth + stakingPlans[stakings[_userAddress][_stakingId].stakingPlanId].months */\n      swap1\n      pop\n        /* \"TimeAlly.sol\":43485:43494  uint256 i */\n      0x00\n        /* \"TimeAlly.sol\":43497:43505  stakings */\n      0x07\n        /* \"TimeAlly.sol\":43497:43519  stakings[_userAddress] */\n      0x00\n        /* \"TimeAlly.sol\":43506:43518  _userAddress */\n      dup10\n        /* \"TimeAlly.sol\":43497:43519  stakings[_userAddress] */\n      0xffffffffffffffffffffffffffffffffffffffff\n      and\n      0xffffffffffffffffffffffffffffffffffffffff\n      and\n      dup2\n      mstore\n      0x20\n      add\n      swap1\n      dup2\n      mstore\n      0x20\n      add\n      0x00\n      keccak256\n        /* \"TimeAlly.sol\":43520:43530  _stakingId */\n      dup8\n        /* \"TimeAlly.sol\":43497:43531  stakings[_userAddress][_stakingId] */\n      dup2\n      sload\n      dup2\n      lt\n      tag_311\n      jumpi\n      invalid\n    tag_311:\n      swap1\n      0x00\n      mstore\n      keccak256(0x00, 0x20)\n      swap1\n      0x09\n      mul\n      add\n        /* \"TimeAlly.sol\":43497:43544  stakings[_userAddress][_stakingId].stakingMonth */\n      0x02\n      add\n      sload\n        /* \"TimeAlly.sol\":43485:43544  uint256 i = stakings[_userAddress][_stakingId].stakingMonth */\n      swap1\n      pop\n        /* \"TimeAlly.sol\":43470:44357  for(... */\n    tag_308:\n        /* \"TimeAlly.sol\":43582:43596  _stakeEndMonth */\n      dup2\n        /* \"TimeAlly.sol\":43578:43579  i */\n      dup2\n        /* \"TimeAlly.sol\":43578:43596  i < _stakeEndMonth */\n      lt\n        /* \"TimeAlly.sol\":43470:44357  for(... */\n      iszero\n      tag_309\n      jumpi\n        /* \"TimeAlly.sol\":43640:43648  stakings */\n      0x07\n        /* \"TimeAlly.sol\":43640:43662  stakings[_userAddress] */\n      0x00\n        /* \"TimeAlly.sol\":43649:43661  _userAddress */\n      dup10\n        /* \"TimeAlly.sol\":43640:43662  stakings[_userAddress] */\n      0xffffffffffffffffffffffffffffffffffffffff\n      and\n      0xffffffffffffffffffffffffffffffffffffffff\n      and\n      dup2\n      mstore\n      0x20\n      add\n      swap1\n      dup2\n      mstore\n      0x20\n      add\n      0x00\n      keccak256\n        /* \"TimeAlly.sol\":43663:43673  _stakingId */\n      dup8\n        /* \"TimeAlly.sol\":43640:43674  stakings[_userAddress][_stakingId] */\n      dup2\n      sload\n      dup2\n      lt\n      tag_313\n      jumpi\n      invalid\n    tag_313:\n      swap1\n      0x00\n      mstore\n      keccak256(0x00, 0x20)\n      swap1\n      0x09\n      mul\n      add\n        /* \"TimeAlly.sol\":43640:43689  stakings[_userAddress][_stakingId].isMonthClaimed */\n      0x07\n      add\n        /* \"TimeAlly.sol\":43640:43692  stakings[_userAddress][_stakingId].isMonthClaimed[i] */\n      0x00\n        /* \"TimeAlly.sol\":43690:43691  i */\n      dup3\n        /* \"TimeAlly.sol\":43640:43692  stakings[_userAddress][_stakingId].isMonthClaimed[i] */\n      dup2\n      mstore\n      0x20\n      add\n      swap1\n      dup2\n      mstore\n      0x20\n      add\n      0x00\n      keccak256\n      0x00\n      swap1\n      sload\n      swap1\n      0x0100\n      exp\n      swap1\n      div\n      0xff\n      and\n        /* \"TimeAlly.sol\":43636:44347  if( stakings[_userAddress][_stakingId].isMonthClaimed[i] ) {... */\n      iszero\n      tag_315\n      jumpi\n        /* \"TimeAlly.sol\":43713:43737  uint256 _effectiveAmount */\n      0x00\n        /* \"TimeAlly.sol\":43740:43915  stakings[_userAddress][_stakingId].exaEsAmount... */\n      tag_316\n        /* \"TimeAlly.sol\":43912:43914  15 */\n      0x0f\n        /* \"TimeAlly.sol\":43740:43888  stakings[_userAddress][_stakingId].exaEsAmount... */\n      tag_317\n        /* \"TimeAlly.sol\":43810:43822  stakingPlans */\n      0x05\n        /* \"TimeAlly.sol\":43823:43831  stakings */\n      0x07\n        /* \"TimeAlly.sol\":43823:43845  stakings[_userAddress] */\n      0x00\n        /* \"TimeAlly.sol\":43832:43844  _userAddress */\n      dup15\n        /* \"TimeAlly.sol\":43823:43845  stakings[_userAddress] */\n      0xffffffffffffffffffffffffffffffffffffffff\n      and\n      0xffffffffffffffffffffffffffffffffffffffff\n      and\n      dup2\n      mstore\n      0x20\n      add\n      swap1\n      dup2\n      mstore\n      0x20\n      add\n      0x00\n      keccak256\n        /* \"TimeAlly.sol\":43846:43856  _stakingId */\n      dup13\n        /* \"TimeAlly.sol\":43823:43857  stakings[_userAddress][_stakingId] */\n      dup2\n      sload\n      dup2\n      lt\n      tag_318\n      jumpi\n      invalid\n    tag_318:\n      swap1\n      0x00\n      mstore\n      keccak256(0x00, 0x20)\n      swap1\n      0x09\n      mul\n      add\n        /* \"TimeAlly.sol\":43823:43871  stakings[_userAddress][_stakingId].stakingPlanId */\n      0x03\n      add\n      sload\n        /* \"TimeAlly.sol\":43810:43872  stakingPlans[stakings[_userAddress][_stakingId].stakingPlanId] */\n      dup2\n      sload\n      dup2\n      lt\n      tag_320\n      jumpi\n      invalid\n    tag_320:\n      swap1\n      0x00\n      mstore\n      keccak256(0x00, 0x20)\n      swap1\n      0x03\n      mul\n      add\n        /* \"TimeAlly.sol\":43810:43887  stakingPlans[stakings[_userAddress][_stakingId].stakingPlanId].fractionFrom15 */\n      0x01\n      add\n      sload\n        /* \"TimeAlly.sol\":43740:43748  stakings */\n      0x07\n        /* \"TimeAlly.sol\":43740:43762  stakings[_userAddress] */\n      0x00\n        /* \"TimeAlly.sol\":43749:43761  _userAddress */\n      dup15\n        /* \"TimeAlly.sol\":43740:43762  stakings[_userAddress] */\n      0xffffffffffffffffffffffffffffffffffffffff\n      and\n      0xffffffffffffffffffffffffffffffffffffffff\n      and\n      dup2\n      mstore\n      0x20\n      add\n      swap1\n      dup2\n      mstore\n      0x20\n      add\n      0x00\n      keccak256\n        /* \"TimeAlly.sol\":43763:43773  _stakingId */\n      dup13\n        /* \"TimeAlly.sol\":43740:43774  stakings[_userAddress][_stakingId] */\n      dup2\n      sload\n      dup2\n      lt\n      tag_322\n      jumpi\n      invalid\n    tag_322:\n      swap1\n      0x00\n      mstore\n      keccak256(0x00, 0x20)\n      swap1\n      0x09\n      mul\n      add\n        /* \"TimeAlly.sol\":43740:43786  stakings[_userAddress][_stakingId].exaEsAmount */\n      0x00\n      add\n      sload\n        /* \"TimeAlly.sol\":43740:43809  stakings[_userAddress][_stakingId].exaEsAmount... */\n      tag_173\n      swap1\n        /* \"TimeAlly.sol\":43740:43888  stakings[_userAddress][_stakingId].exaEsAmount... */\n      swap2\n      swap1\n      0xffffffff\n      and\n      jump\t// in\n    tag_317:\n        /* \"TimeAlly.sol\":43740:43911  stakings[_userAddress][_stakingId].exaEsAmount... */\n      tag_233\n      swap1\n        /* \"TimeAlly.sol\":43740:43915  stakings[_userAddress][_stakingId].exaEsAmount... */\n      swap2\n      swap1\n      0xffffffff\n      and\n      jump\t// in\n    tag_316:\n        /* \"TimeAlly.sol\":43713:43915  uint256 _effectiveAmount = stakings[_userAddress][_stakingId].exaEsAmount... */\n      swap1\n      pop\n        /* \"TimeAlly.sol\":43933:43956  uint256 _monthlyBenefit */\n      0x00\n        /* \"TimeAlly.sol\":43959:44116  _effectiveAmount... */\n      tag_324\n        /* \"TimeAlly.sol\":44093:44112  totalActiveStakings */\n      0x0a\n        /* \"TimeAlly.sol\":44093:44115  totalActiveStakings[i] */\n      0x00\n        /* \"TimeAlly.sol\":44113:44114  i */\n      dup6\n        /* \"TimeAlly.sol\":44093:44115  totalActiveStakings[i] */\n      dup2\n      mstore\n      0x20\n      add\n      swap1\n      dup2\n      mstore\n      0x20\n      add\n      0x00\n      keccak256\n      sload\n        /* \"TimeAlly.sol\":43959:44045  _effectiveAmount... */\n      tag_325\n        /* \"TimeAlly.sol\":44023:44041  timeAllyMonthlyNRT */\n      0x0b\n        /* \"TimeAlly.sol\":44042:44043  i */\n      dup7\n        /* \"TimeAlly.sol\":44023:44044  timeAllyMonthlyNRT[i] */\n      dup2\n      sload\n      dup2\n      lt\n      tag_326\n      jumpi\n      invalid\n    tag_326:\n      swap1\n      0x00\n      mstore\n      keccak256(0x00, 0x20)\n      add\n      sload\n        /* \"TimeAlly.sol\":43959:43975  _effectiveAmount */\n      dup6\n        /* \"TimeAlly.sol\":43959:44022  _effectiveAmount... */\n      tag_173\n      swap1\n        /* \"TimeAlly.sol\":43959:44045  _effectiveAmount... */\n      swap2\n      swap1\n      0xffffffff\n      and\n      jump\t// in\n    tag_325:\n        /* \"TimeAlly.sol\":43959:44092  _effectiveAmount... */\n      tag_233\n      swap1\n        /* \"TimeAlly.sol\":43959:44116  _effectiveAmount... */\n      swap2\n      swap1\n      0xffffffff\n      and\n      jump\t// in\n    tag_324:\n        /* \"TimeAlly.sol\":43933:44116  uint256 _monthlyBenefit = _effectiveAmount... */\n      swap1\n      pop\n        /* \"TimeAlly.sol\":44166:44223  _pendingLiquidAmountInStaking.add(_monthlyBenefit.div(2)) */\n      tag_328\n        /* \"TimeAlly.sol\":44200:44222  _monthlyBenefit.div(2) */\n      tag_329\n        /* \"TimeAlly.sol\":44220:44221  2 */\n      0x02\n        /* \"TimeAlly.sol\":44200:44215  _monthlyBenefit */\n      dup4\n        /* \"TimeAlly.sol\":44200:44219  _monthlyBenefit.div */\n      tag_233\n      swap1\n        /* \"TimeAlly.sol\":44200:44222  _monthlyBenefit.div(2) */\n      swap2\n      swap1\n      0xffffffff\n      and\n      jump\t// in\n    tag_329:\n        /* \"TimeAlly.sol\":44166:44195  _pendingLiquidAmountInStaking */\n      dup8\n        /* \"TimeAlly.sol\":44166:44199  _pendingLiquidAmountInStaking.add */\n      tag_195\n      swap1\n        /* \"TimeAlly.sol\":44166:44223  _pendingLiquidAmountInStaking.add(_monthlyBenefit.div(2)) */\n      swap2\n      swap1\n      0xffffffff\n      and\n      jump\t// in\n    tag_328:\n        /* \"TimeAlly.sol\":44134:44223  _pendingLiquidAmountInStaking = _pendingLiquidAmountInStaking.add(_monthlyBenefit.div(2)) */\n      swap6\n      pop\n        /* \"TimeAlly.sol\":44274:44332  _pendingAccruedAmountInStaking.add(_monthlyBenefit.div(2)) */\n      tag_330\n        /* \"TimeAlly.sol\":44309:44331  _monthlyBenefit.div(2) */\n      tag_331\n        /* \"TimeAlly.sol\":44329:44330  2 */\n      0x02\n        /* \"TimeAlly.sol\":44309:44324  _monthlyBenefit */\n      dup4\n        /* \"TimeAlly.sol\":44309:44328  _monthlyBenefit.div */\n      tag_233\n      swap1\n        /* \"TimeAlly.sol\":44309:44331  _monthlyBenefit.div(2) */\n      swap2\n      swap1\n      0xffffffff\n      and\n      jump\t// in\n    tag_331:\n        /* \"TimeAlly.sol\":44274:44304  _pendingAccruedAmountInStaking */\n      dup7\n        /* \"TimeAlly.sol\":44274:44308  _pendingAccruedAmountInStaking.add */\n      tag_195\n      swap1\n        /* \"TimeAlly.sol\":44274:44332  _pendingAccruedAmountInStaking.add(_monthlyBenefit.div(2)) */\n      swap2\n      swap1\n      0xffffffff\n      and\n      jump\t// in\n    tag_330:\n        /* \"TimeAlly.sol\":44241:44332  _pendingAccruedAmountInStaking = _pendingAccruedAmountInStaking.add(_monthlyBenefit.div(2)) */\n      swap5\n      pop\n        /* \"TimeAlly.sol\":43636:44347  if( stakings[_userAddress][_stakingId].isMonthClaimed[i] ) {... */\n      pop\n      pop\n    tag_315:\n        /* \"TimeAlly.sol\":43608:43611  i++ */\n      dup1\n      dup1\n      0x01\n      add\n      swap2\n      pop\n      pop\n        /* \"TimeAlly.sol\":43470:44357  for(... */\n      jump(tag_308)\n    tag_309:\n      pop\n        /* \"TimeAlly.sol\":44637:44638  0 */\n      0x00\n        /* \"TimeAlly.sol\":44577:44585  stakings */\n      0x07\n        /* \"TimeAlly.sol\":44577:44599  stakings[_userAddress] */\n      0x00\n        /* \"TimeAlly.sol\":44586:44598  _userAddress */\n      dup10\n        /* \"TimeAlly.sol\":44577:44599  stakings[_userAddress] */\n      0xffffffffffffffffffffffffffffffffffffffff\n      and\n      0xffffffffffffffffffffffffffffffffffffffff\n      and\n      dup2\n      mstore\n      0x20\n      add\n      swap1\n      dup2\n      mstore\n      0x20\n      add\n      0x00\n      keccak256\n        /* \"TimeAlly.sol\":44600:44610  _stakingId */\n      dup8\n        /* \"TimeAlly.sol\":44577:44611  stakings[_userAddress][_stakingId] */\n      dup2\n      sload\n      dup2\n      lt\n      tag_332\n      jumpi\n      invalid\n    tag_332:\n      swap1\n      0x00\n      mstore\n      keccak256(0x00, 0x20)\n      swap1\n      0x09\n      mul\n      add\n        /* \"TimeAlly.sol\":44577:44622  stakings[_userAddress][_stakingId].nomination */\n      0x08\n      add\n        /* \"TimeAlly.sol\":44577:44634  stakings[_userAddress][_stakingId].nomination[msg.sender] */\n      0x00\n        /* \"TimeAlly.sol\":44623:44633  msg.sender */\n      caller\n        /* \"TimeAlly.sol\":44577:44634  stakings[_userAddress][_stakingId].nomination[msg.sender] */\n      0xffffffffffffffffffffffffffffffffffffffff\n      and\n      0xffffffffffffffffffffffffffffffffffffffff\n      and\n      dup2\n      mstore\n      0x20\n      add\n      swap1\n      dup2\n      mstore\n      0x20\n      add\n      0x00\n      keccak256\n        /* \"TimeAlly.sol\":44577:44638  stakings[_userAddress][_stakingId].nomination[msg.sender] = 0 */\n      dup2\n      swap1\n      sstore\n      pop\n        /* \"TimeAlly.sol\":44649:44676  uint256 _nomineeLiquidShare */\n      0x00\n        /* \"TimeAlly.sol\":44679:44872  _pendingLiquidAmountInStaking... */\n      tag_334\n        /* \"TimeAlly.sol\":44815:44823  stakings */\n      0x07\n        /* \"TimeAlly.sol\":44815:44837  stakings[_userAddress] */\n      0x00\n        /* \"TimeAlly.sol\":44824:44836  _userAddress */\n      dup11\n        /* \"TimeAlly.sol\":44815:44837  stakings[_userAddress] */\n      0xffffffffffffffffffffffffffffffffffffffff\n      and\n      0xffffffffffffffffffffffffffffffffffffffff\n      and\n      dup2\n      mstore\n      0x20\n      add\n      swap1\n      dup2\n      mstore\n      0x20\n      add\n      0x00\n      keccak256\n        /* \"TimeAlly.sol\":44838:44848  _stakingId */\n      dup9\n        /* \"TimeAlly.sol\":44815:44849  stakings[_userAddress][_stakingId] */\n      dup2\n      sload\n      dup2\n      lt\n      tag_335\n      jumpi\n      invalid\n    tag_335:\n      swap1\n      0x00\n      mstore\n      keccak256(0x00, 0x20)\n      swap1\n      0x09\n      mul\n      add\n        /* \"TimeAlly.sol\":44815:44871  stakings[_userAddress][_stakingId].totalNominationShares */\n      0x06\n      add\n      sload\n        /* \"TimeAlly.sol\":44679:44769  _pendingLiquidAmountInStaking... */\n      tag_337\n        /* \"TimeAlly.sol\":44754:44768  _nomineeShares */\n      dup8\n        /* \"TimeAlly.sol\":44679:44708  _pendingLiquidAmountInStaking */\n      dup8\n        /* \"TimeAlly.sol\":44679:44753  _pendingLiquidAmountInStaking... */\n      tag_173\n      swap1\n        /* \"TimeAlly.sol\":44679:44769  _pendingLiquidAmountInStaking... */\n      swap2\n      swap1\n      0xffffffff\n      and\n      jump\t// in\n    tag_337:\n        /* \"TimeAlly.sol\":44679:44814  _pendingLiquidAmountInStaking... */\n      tag_233\n      swap1\n        /* \"TimeAlly.sol\":44679:44872  _pendingLiquidAmountInStaking... */\n      swap2\n      swap1\n      0xffffffff\n      and\n      jump\t// in\n    tag_334:\n        /* \"TimeAlly.sol\":44649:44872  uint256 _nomineeLiquidShare = _pendingLiquidAmountInStaking... */\n      swap1\n      pop\n        /* \"TimeAlly.sol\":44882:44887  token */\n      0x02\n      0x00\n      swap1\n      sload\n      swap1\n      0x0100\n      exp\n      swap1\n      div\n      0xffffffffffffffffffffffffffffffffffffffff\n      and\n        /* \"TimeAlly.sol\":44882:44896  token.transfer */\n      0xffffffffffffffffffffffffffffffffffffffff\n      and\n      0xa9059cbb\n        /* \"TimeAlly.sol\":44897:44907  msg.sender */\n      caller\n        /* \"TimeAlly.sol\":44909:44928  _nomineeLiquidShare */\n      dup4\n        /* \"TimeAlly.sol\":44882:44929  token.transfer(msg.sender, _nomineeLiquidShare) */\n      mload(0x40)\n      dup4\n      0xffffffff\n      and\n      0xe0\n      shl\n      dup2\n      mstore\n      0x04\n      add\n      dup1\n      dup4\n      0xffffffffffffffffffffffffffffffffffffffff\n      and\n      0xffffffffffffffffffffffffffffffffffffffff\n      and\n      dup2\n      mstore\n      0x20\n      add\n      dup3\n      dup2\n      mstore\n      0x20\n      add\n      swap3\n      pop\n      pop\n      pop\n      0x20\n      mload(0x40)\n      dup1\n      dup4\n      sub\n      dup2\n      0x00\n      dup8\n      dup1\n      extcodesize\n      iszero\n        /* \"--CODEGEN--\":8:17   */\n      dup1\n        /* \"--CODEGEN--\":5:7   */\n      iszero\n      tag_338\n      jumpi\n        /* \"--CODEGEN--\":30:31   */\n      0x00\n        /* \"--CODEGEN--\":27:28   */\n      dup1\n        /* \"--CODEGEN--\":20:32   */\n      revert\n        /* \"--CODEGEN--\":5:7   */\n    tag_338:\n        /* \"TimeAlly.sol\":44882:44929  token.transfer(msg.sender, _nomineeLiquidShare) */\n      pop\n      gas\n      call\n      iszero\n        /* \"--CODEGEN--\":8:17   */\n      dup1\n        /* \"--CODEGEN--\":5:7   */\n      iszero\n      tag_339\n      jumpi\n        /* \"--CODEGEN--\":45:61   */\n      returndatasize\n        /* \"--CODEGEN--\":42:43   */\n      0x00\n        /* \"--CODEGEN--\":39:40   */\n      dup1\n        /* \"--CODEGEN--\":24:62   */\n      returndatacopy\n        /* \"--CODEGEN--\":77:93   */\n      returndatasize\n        /* \"--CODEGEN--\":74:75   */\n      0x00\n        /* \"--CODEGEN--\":67:94   */\n      revert\n        /* \"--CODEGEN--\":5:7   */\n    tag_339:\n        /* \"TimeAlly.sol\":44882:44929  token.transfer(msg.sender, _nomineeLiquidShare) */\n      pop\n      pop\n      pop\n      pop\n      mload(0x40)\n      returndatasize\n        /* \"--CODEGEN--\":13:15   */\n      0x20\n        /* \"--CODEGEN--\":8:11   */\n      dup2\n        /* \"--CODEGEN--\":5:16   */\n      lt\n        /* \"--CODEGEN--\":2:4   */\n      iszero\n      tag_340\n      jumpi\n        /* \"--CODEGEN--\":29:30   */\n      0x00\n        /* \"--CODEGEN--\":26:27   */\n      dup1\n        /* \"--CODEGEN--\":19:31   */\n      revert\n        /* \"--CODEGEN--\":2:4   */\n    tag_340:\n        /* \"TimeAlly.sol\":44882:44929  token.transfer(msg.sender, _nomineeLiquidShare) */\n      dup2\n      add\n      swap1\n      dup1\n      dup1\n      mload\n      swap1\n      0x20\n      add\n      swap1\n      swap3\n      swap2\n      swap1\n      pop\n      pop\n      pop\n      pop\n        /* \"TimeAlly.sol\":44940:44968  uint256 _nomineeAccruedShare */\n      0x00\n        /* \"TimeAlly.sol\":44971:45169  _pendingAccruedAmountInStaking... */\n      tag_341\n        /* \"TimeAlly.sol\":45112:45120  stakings */\n      0x07\n        /* \"TimeAlly.sol\":45112:45134  stakings[_userAddress] */\n      0x00\n        /* \"TimeAlly.sol\":45121:45133  _userAddress */\n      dup12\n        /* \"TimeAlly.sol\":45112:45134  stakings[_userAddress] */\n      0xffffffffffffffffffffffffffffffffffffffff\n      and\n      0xffffffffffffffffffffffffffffffffffffffff\n      and\n      dup2\n      mstore\n      0x20\n      add\n      swap1\n      dup2\n      mstore\n      0x20\n      add\n      0x00\n      keccak256\n        /* \"TimeAlly.sol\":45135:45145  _stakingId */\n      dup10\n        /* \"TimeAlly.sol\":45112:45146  stakings[_userAddress][_stakingId] */\n      dup2\n      sload\n      dup2\n      lt\n      tag_342\n      jumpi\n      invalid\n    tag_342:\n      swap1\n      0x00\n      mstore\n      keccak256(0x00, 0x20)\n      swap1\n      0x09\n      mul\n      add\n        /* \"TimeAlly.sol\":45112:45168  stakings[_userAddress][_stakingId].totalNominationShares */\n      0x06\n      add\n      sload\n        /* \"TimeAlly.sol\":44971:45064  _pendingAccruedAmountInStaking... */\n      tag_344\n        /* \"TimeAlly.sol\":45049:45063  _nomineeShares */\n      dup9\n        /* \"TimeAlly.sol\":44971:45001  _pendingAccruedAmountInStaking */\n      dup8\n        /* \"TimeAlly.sol\":44971:45048  _pendingAccruedAmountInStaking... */\n      tag_173\n      swap1\n        /* \"TimeAlly.sol\":44971:45064  _pendingAccruedAmountInStaking... */\n      swap2\n      swap1\n      0xffffffff\n      and\n      jump\t// in\n    tag_344:\n        /* \"TimeAlly.sol\":44971:45111  _pendingAccruedAmountInStaking... */\n      tag_233\n      swap1\n        /* \"TimeAlly.sol\":44971:45169  _pendingAccruedAmountInStaking... */\n      swap2\n      swap1\n      0xffffffff\n      and\n      jump\t// in\n    tag_341:\n        /* \"TimeAlly.sol\":44940:45169  uint256 _nomineeAccruedShare = _pendingAccruedAmountInStaking... */\n      swap1\n      pop\n        /* \"TimeAlly.sol\":45206:45256  launchReward[msg.sender].add(_nomineeAccruedShare) */\n      tag_345\n        /* \"TimeAlly.sol\":45235:45255  _nomineeAccruedShare */\n      dup2\n        /* \"TimeAlly.sol\":45206:45218  launchReward */\n      0x09\n        /* \"TimeAlly.sol\":45206:45230  launchReward[msg.sender] */\n      0x00\n        /* \"TimeAlly.sol\":45219:45229  msg.sender */\n      caller\n        /* \"TimeAlly.sol\":45206:45230  launchReward[msg.sender] */\n      0xffffffffffffffffffffffffffffffffffffffff\n      and\n      0xffffffffffffffffffffffffffffffffffffffff\n      and\n      dup2\n      mstore\n      0x20\n      add\n      swap1\n      dup2\n      mstore\n      0x20\n      add\n      0x00\n      keccak256\n      sload\n        /* \"TimeAlly.sol\":45206:45234  launchReward[msg.sender].add */\n      tag_195\n      swap1\n        /* \"TimeAlly.sol\":45206:45256  launchReward[msg.sender].add(_nomineeAccruedShare) */\n      swap2\n      swap1\n      0xffffffff\n      and\n      jump\t// in\n    tag_345:\n        /* \"TimeAlly.sol\":45179:45191  launchReward */\n      0x09\n        /* \"TimeAlly.sol\":45179:45203  launchReward[msg.sender] */\n      0x00\n        /* \"TimeAlly.sol\":45192:45202  msg.sender */\n      caller\n        /* \"TimeAlly.sol\":45179:45203  launchReward[msg.sender] */\n      0xffffffffffffffffffffffffffffffffffffffff\n      and\n      0xffffffffffffffffffffffffffffffffffffffff\n      and\n      dup2\n      mstore\n      0x20\n      add\n      swap1\n      dup2\n      mstore\n      0x20\n      add\n      0x00\n      keccak256\n        /* \"TimeAlly.sol\":45179:45256  launchReward[msg.sender] = launchReward[msg.sender].add(_nomineeAccruedShare) */\n      dup2\n      swap1\n      sstore\n      pop\n        /* \"TimeAlly.sol\":45338:45348  msg.sender */\n      caller\n        /* \"TimeAlly.sol\":45296:45392  NomineeWithdraw(_userAddress, _stakingId, msg.sender, _nomineeLiquidShare, _nomineeAccruedShare) */\n      0xffffffffffffffffffffffffffffffffffffffff\n      and\n        /* \"TimeAlly.sol\":45326:45336  _stakingId */\n      dup9\n        /* \"TimeAlly.sol\":45312:45324  _userAddress */\n      dup11\n        /* \"TimeAlly.sol\":45296:45392  NomineeWithdraw(_userAddress, _stakingId, msg.sender, _nomineeLiquidShare, _nomineeAccruedShare) */\n      0xffffffffffffffffffffffffffffffffffffffff\n      and\n      0xa54cec59552c7f022eed79ede59f759697aa5787f43b11d61f17bfc5adaffb65\n        /* \"TimeAlly.sol\":45350:45369  _nomineeLiquidShare */\n      dup6\n        /* \"TimeAlly.sol\":45371:45391  _nomineeAccruedShare */\n      dup6\n        /* \"TimeAlly.sol\":45296:45392  NomineeWithdraw(_userAddress, _stakingId, msg.sender, _nomineeLiquidShare, _nomineeAccruedShare) */\n      mload(0x40)\n      dup1\n      dup4\n      dup2\n      mstore\n      0x20\n      add\n      dup3\n      dup2\n      mstore\n      0x20\n      add\n      swap3\n      pop\n      pop\n      pop\n      mload(0x40)\n      dup1\n      swap2\n      sub\n      swap1\n      log4\n        /* \"TimeAlly.sol\":42057:45399  function nomineeWithdraw(address _userAddress, uint256 _stakingId) public {... */\n      pop\n      pop\n      pop\n      pop\n      pop\n      pop\n      pop\n      pop\n      pop\n      jump\t// out\n        /* \"TimeAlly.sol\":2772:2811  mapping(address => Loan[]) public loans */\n    tag_101:\n      mstore(0x20, 0x08)\n      dup2\n      0x00\n      mstore\n      keccak256(0x00, 0x40)\n      dup2\n      dup2\n      sload\n      dup2\n      lt\n      tag_346\n      jumpi\n      invalid\n    tag_346:\n      swap1\n      0x00\n      mstore\n      keccak256(0x00, 0x20)\n      swap1\n      0x05\n      mul\n      add\n      0x00\n      swap2\n      pop\n      swap2\n      pop\n      pop\n      dup1\n      0x00\n      add\n      sload\n      swap1\n      dup1\n      0x01\n      add\n      sload\n      swap1\n      dup1\n      0x02\n      add\n      sload\n      swap1\n      dup1\n      0x03\n      add\n      sload\n      swap1\n      pop\n      dup5\n      jump\t// out\n        /* \"TimeAlly.sol\":23191:24894  function withdrawBenefitOfAStakingByMonths(... */\n    tag_107:\n        /* \"TimeAlly.sol\":23319:23346  uint256 _benefitOfAllMonths */\n      0x00\n        /* \"TimeAlly.sol\":23360:23369  uint256 i */\n      dup1\n        /* \"TimeAlly.sol\":23372:23373  0 */\n      0x00\n        /* \"TimeAlly.sol\":23360:23373  uint256 i = 0 */\n      swap1\n      pop\n        /* \"TimeAlly.sol\":23356:24196  for(uint256 i = 0; i < _months.length; i++) {... */\n    tag_349:\n        /* \"TimeAlly.sol\":23379:23386  _months */\n      dup3\n        /* \"TimeAlly.sol\":23379:23393  _months.length */\n      mload\n        /* \"TimeAlly.sol\":23375:23376  i */\n      dup2\n        /* \"TimeAlly.sol\":23375:23393  i < _months.length */\n      lt\n        /* \"TimeAlly.sol\":23356:24196  for(uint256 i = 0; i < _months.length; i++) {... */\n      iszero\n      tag_350\n      jumpi\n        /* \"TimeAlly.sol\":23656:23707  isStakingActive(msg.sender, _stakingId, _months[i]) */\n      tag_352\n        /* \"TimeAlly.sol\":23672:23682  msg.sender */\n      caller\n        /* \"TimeAlly.sol\":23684:23694  _stakingId */\n      dup6\n        /* \"TimeAlly.sol\":23696:23703  _months */\n      dup6\n        /* \"TimeAlly.sol\":23704:23705  i */\n      dup5\n        /* \"TimeAlly.sol\":23696:23706  _months[i] */\n      dup2\n      mload\n      dup2\n      lt\n      tag_353\n      jumpi\n      invalid\n    tag_353:\n      0x20\n      mul\n      0x20\n      add\n      add\n      mload\n        /* \"TimeAlly.sol\":23656:23671  isStakingActive */\n      tag_128\n        /* \"TimeAlly.sol\":23656:23707  isStakingActive(msg.sender, _stakingId, _months[i]) */\n      jump\t// in\n    tag_352:\n        /* \"TimeAlly.sol\":23656:23783  isStakingActive(msg.sender, _stakingId, _months[i])... */\n      dup1\n      iszero\n      tag_354\n      jumpi\n      pop\n        /* \"TimeAlly.sol\":23724:23732  stakings */\n      0x07\n        /* \"TimeAlly.sol\":23724:23744  stakings[msg.sender] */\n      0x00\n        /* \"TimeAlly.sol\":23733:23743  msg.sender */\n      caller\n        /* \"TimeAlly.sol\":23724:23744  stakings[msg.sender] */\n      0xffffffffffffffffffffffffffffffffffffffff\n      and\n      0xffffffffffffffffffffffffffffffffffffffff\n      and\n      dup2\n      mstore\n      0x20\n      add\n      swap1\n      dup2\n      mstore\n      0x20\n      add\n      0x00\n      keccak256\n        /* \"TimeAlly.sol\":23745:23755  _stakingId */\n      dup5\n        /* \"TimeAlly.sol\":23724:23756  stakings[msg.sender][_stakingId] */\n      dup2\n      sload\n      dup2\n      lt\n      tag_355\n      jumpi\n      invalid\n    tag_355:\n      swap1\n      0x00\n      mstore\n      keccak256(0x00, 0x20)\n      swap1\n      0x09\n      mul\n      add\n        /* \"TimeAlly.sol\":23724:23771  stakings[msg.sender][_stakingId].isMonthClaimed */\n      0x07\n      add\n        /* \"TimeAlly.sol\":23724:23783  stakings[msg.sender][_stakingId].isMonthClaimed[_months[i]] */\n      0x00\n        /* \"TimeAlly.sol\":23772:23779  _months */\n      dup5\n        /* \"TimeAlly.sol\":23780:23781  i */\n      dup4\n        /* \"TimeAlly.sol\":23772:23782  _months[i] */\n      dup2\n      mload\n      dup2\n      lt\n      tag_357\n      jumpi\n      invalid\n    tag_357:\n      0x20\n      mul\n      0x20\n      add\n      add\n      mload\n        /* \"TimeAlly.sol\":23724:23783  stakings[msg.sender][_stakingId].isMonthClaimed[_months[i]] */\n      dup2\n      mstore\n      0x20\n      add\n      swap1\n      dup2\n      mstore\n      0x20\n      add\n      0x00\n      keccak256\n      0x00\n      swap1\n      sload\n      swap1\n      0x0100\n      exp\n      swap1\n      div\n      0xff\n      and\n        /* \"TimeAlly.sol\":23723:23783  !stakings[msg.sender][_stakingId].isMonthClaimed[_months[i]] */\n      iszero\n        /* \"TimeAlly.sol\":23656:23783  isStakingActive(msg.sender, _stakingId, _months[i])... */\n    tag_354:\n        /* \"TimeAlly.sol\":23653:24186  if(isStakingActive(msg.sender, _stakingId, _months[i])... */\n      iszero\n      tag_358\n      jumpi\n        /* \"TimeAlly.sol\":23803:23819  uint256 _benefit */\n      0x00\n        /* \"TimeAlly.sol\":23822:24013  stakings[msg.sender][_stakingId].exaEsAmount... */\n      tag_359\n        /* \"TimeAlly.sol\":23979:23998  totalActiveStakings */\n      0x0a\n        /* \"TimeAlly.sol\":23979:24012  totalActiveStakings[ _months[i] ] */\n      0x00\n        /* \"TimeAlly.sol\":24000:24007  _months */\n      dup7\n        /* \"TimeAlly.sol\":24008:24009  i */\n      dup6\n        /* \"TimeAlly.sol\":24000:24010  _months[i] */\n      dup2\n      mload\n      dup2\n      lt\n      tag_360\n      jumpi\n      invalid\n    tag_360:\n      0x20\n      mul\n      0x20\n      add\n      add\n      mload\n        /* \"TimeAlly.sol\":23979:24012  totalActiveStakings[ _months[i] ] */\n      dup2\n      mstore\n      0x20\n      add\n      swap1\n      dup2\n      mstore\n      0x20\n      add\n      0x00\n      keccak256\n      sload\n        /* \"TimeAlly.sol\":23822:23939  stakings[msg.sender][_stakingId].exaEsAmount... */\n      tag_361\n        /* \"TimeAlly.sol\":23906:23924  timeAllyMonthlyNRT */\n      0x0b\n        /* \"TimeAlly.sol\":23926:23933  _months */\n      dup8\n        /* \"TimeAlly.sol\":23934:23935  i */\n      dup7\n        /* \"TimeAlly.sol\":23926:23936  _months[i] */\n      dup2\n      mload\n      dup2\n      lt\n      tag_362\n      jumpi\n      invalid\n    tag_362:\n      0x20\n      mul\n      0x20\n      add\n      add\n      mload\n        /* \"TimeAlly.sol\":23906:23938  timeAllyMonthlyNRT[ _months[i] ] */\n      dup2\n      sload\n      dup2\n      lt\n      tag_363\n      jumpi\n      invalid\n    tag_363:\n      swap1\n      0x00\n      mstore\n      keccak256(0x00, 0x20)\n      add\n      sload\n        /* \"TimeAlly.sol\":23822:23830  stakings */\n      0x07\n        /* \"TimeAlly.sol\":23822:23842  stakings[msg.sender] */\n      0x00\n        /* \"TimeAlly.sol\":23831:23841  msg.sender */\n      caller\n        /* \"TimeAlly.sol\":23822:23842  stakings[msg.sender] */\n      0xffffffffffffffffffffffffffffffffffffffff\n      and\n      0xffffffffffffffffffffffffffffffffffffffff\n      and\n      dup2\n      mstore\n      0x20\n      add\n      swap1\n      dup2\n      mstore\n      0x20\n      add\n      0x00\n      keccak256\n        /* \"TimeAlly.sol\":23843:23853  _stakingId */\n      dup10\n        /* \"TimeAlly.sol\":23822:23854  stakings[msg.sender][_stakingId] */\n      dup2\n      sload\n      dup2\n      lt\n      tag_365\n      jumpi\n      invalid\n    tag_365:\n      swap1\n      0x00\n      mstore\n      keccak256(0x00, 0x20)\n      swap1\n      0x09\n      mul\n      add\n        /* \"TimeAlly.sol\":23822:23866  stakings[msg.sender][_stakingId].exaEsAmount */\n      0x00\n      add\n      sload\n        /* \"TimeAlly.sol\":23822:23905  stakings[msg.sender][_stakingId].exaEsAmount... */\n      tag_173\n      swap1\n        /* \"TimeAlly.sol\":23822:23939  stakings[msg.sender][_stakingId].exaEsAmount... */\n      swap2\n      swap1\n      0xffffffff\n      and\n      jump\t// in\n    tag_361:\n        /* \"TimeAlly.sol\":23822:23978  stakings[msg.sender][_stakingId].exaEsAmount... */\n      tag_233\n      swap1\n        /* \"TimeAlly.sol\":23822:24013  stakings[msg.sender][_stakingId].exaEsAmount... */\n      swap2\n      swap1\n      0xffffffff\n      and\n      jump\t// in\n    tag_359:\n        /* \"TimeAlly.sol\":23803:24013  uint256 _benefit = stakings[msg.sender][_stakingId].exaEsAmount... */\n      swap1\n      pop\n        /* \"TimeAlly.sol\":24054:24087  _benefitOfAllMonths.add(_benefit) */\n      tag_367\n        /* \"TimeAlly.sol\":24078:24086  _benefit */\n      dup2\n        /* \"TimeAlly.sol\":24054:24073  _benefitOfAllMonths */\n      dup5\n        /* \"TimeAlly.sol\":24054:24077  _benefitOfAllMonths.add */\n      tag_195\n      swap1\n        /* \"TimeAlly.sol\":24054:24087  _benefitOfAllMonths.add(_benefit) */\n      swap2\n      swap1\n      0xffffffff\n      and\n      jump\t// in\n    tag_367:\n        /* \"TimeAlly.sol\":24032:24087  _benefitOfAllMonths = _benefitOfAllMonths.add(_benefit) */\n      swap3\n      pop\n        /* \"TimeAlly.sol\":24167:24171  true */\n      0x01\n        /* \"TimeAlly.sol\":24105:24113  stakings */\n      0x07\n        /* \"TimeAlly.sol\":24105:24125  stakings[msg.sender] */\n      0x00\n        /* \"TimeAlly.sol\":24114:24124  msg.sender */\n      caller\n        /* \"TimeAlly.sol\":24105:24125  stakings[msg.sender] */\n      0xffffffffffffffffffffffffffffffffffffffff\n      and\n      0xffffffffffffffffffffffffffffffffffffffff\n      and\n      dup2\n      mstore\n      0x20\n      add\n      swap1\n      dup2\n      mstore\n      0x20\n      add\n      0x00\n      keccak256\n        /* \"TimeAlly.sol\":24126:24136  _stakingId */\n      dup7\n        /* \"TimeAlly.sol\":24105:24137  stakings[msg.sender][_stakingId] */\n      dup2\n      sload\n      dup2\n      lt\n      tag_368\n      jumpi\n      invalid\n    tag_368:\n      swap1\n      0x00\n      mstore\n      keccak256(0x00, 0x20)\n      swap1\n      0x09\n      mul\n      add\n        /* \"TimeAlly.sol\":24105:24152  stakings[msg.sender][_stakingId].isMonthClaimed */\n      0x07\n      add\n        /* \"TimeAlly.sol\":24105:24164  stakings[msg.sender][_stakingId].isMonthClaimed[_months[i]] */\n      0x00\n        /* \"TimeAlly.sol\":24153:24160  _months */\n      dup7\n        /* \"TimeAlly.sol\":24161:24162  i */\n      dup6\n        /* \"TimeAlly.sol\":24153:24163  _months[i] */\n      dup2\n      mload\n      dup2\n      lt\n      tag_370\n      jumpi\n      invalid\n    tag_370:\n      0x20\n      mul\n      0x20\n      add\n      add\n      mload\n        /* \"TimeAlly.sol\":24105:24164  stakings[msg.sender][_stakingId].isMonthClaimed[_months[i]] */\n      dup2\n      mstore\n      0x20\n      add\n      swap1\n      dup2\n      mstore\n      0x20\n      add\n      0x00\n      keccak256\n      0x00\n        /* \"TimeAlly.sol\":24105:24171  stakings[msg.sender][_stakingId].isMonthClaimed[_months[i]] = true */\n      0x0100\n      exp\n      dup2\n      sload\n      dup2\n      0xff\n      mul\n      not\n      and\n      swap1\n      dup4\n      iszero\n      iszero\n      mul\n      or\n      swap1\n      sstore\n      pop\n        /* \"TimeAlly.sol\":23653:24186  if(isStakingActive(msg.sender, _stakingId, _months[i])... */\n      pop\n    tag_358:\n        /* \"TimeAlly.sol\":23395:23398  i++ */\n      dup1\n      dup1\n      0x01\n      add\n      swap2\n      pop\n      pop\n        /* \"TimeAlly.sol\":23356:24196  for(uint256 i = 0; i < _months.length; i++) {... */\n      jump(tag_349)\n    tag_350:\n      pop\n        /* \"TimeAlly.sol\":24206:24223  uint256 _luckPool */\n      0x00\n        /* \"TimeAlly.sol\":24226:24405  _benefitOfAllMonths... */\n      tag_371\n        /* \"TimeAlly.sol\":24401:24403  15 */\n      0x0f\n        /* \"TimeAlly.sol\":24226:24370  _benefitOfAllMonths... */\n      tag_372\n        /* \"TimeAlly.sol\":24276:24368  uint256(15).sub(stakingPlans[stakings[msg.sender][_stakingId].stakingPlanId].fractionFrom15) */\n      tag_373\n        /* \"TimeAlly.sol\":24292:24304  stakingPlans */\n      0x05\n        /* \"TimeAlly.sol\":24305:24313  stakings */\n      0x07\n        /* \"TimeAlly.sol\":24305:24325  stakings[msg.sender] */\n      0x00\n        /* \"TimeAlly.sol\":24314:24324  msg.sender */\n      caller\n        /* \"TimeAlly.sol\":24305:24325  stakings[msg.sender] */\n      0xffffffffffffffffffffffffffffffffffffffff\n      and\n      0xffffffffffffffffffffffffffffffffffffffff\n      and\n      dup2\n      mstore\n      0x20\n      add\n      swap1\n      dup2\n      mstore\n      0x20\n      add\n      0x00\n      keccak256\n        /* \"TimeAlly.sol\":24326:24336  _stakingId */\n      dup10\n        /* \"TimeAlly.sol\":24305:24337  stakings[msg.sender][_stakingId] */\n      dup2\n      sload\n      dup2\n      lt\n      tag_374\n      jumpi\n      invalid\n    tag_374:\n      swap1\n      0x00\n      mstore\n      keccak256(0x00, 0x20)\n      swap1\n      0x09\n      mul\n      add\n        /* \"TimeAlly.sol\":24305:24351  stakings[msg.sender][_stakingId].stakingPlanId */\n      0x03\n      add\n      sload\n        /* \"TimeAlly.sol\":24292:24352  stakingPlans[stakings[msg.sender][_stakingId].stakingPlanId] */\n      dup2\n      sload\n      dup2\n      lt\n      tag_376\n      jumpi\n      invalid\n    tag_376:\n      swap1\n      0x00\n      mstore\n      keccak256(0x00, 0x20)\n      swap1\n      0x03\n      mul\n      add\n        /* \"TimeAlly.sol\":24292:24367  stakingPlans[stakings[msg.sender][_stakingId].stakingPlanId].fractionFrom15 */\n      0x01\n      add\n      sload\n        /* \"TimeAlly.sol\":24284:24286  15 */\n      0x0f\n        /* \"TimeAlly.sol\":24276:24291  uint256(15).sub */\n      tag_201\n      swap1\n        /* \"TimeAlly.sol\":24276:24368  uint256(15).sub(stakingPlans[stakings[msg.sender][_stakingId].stakingPlanId].fractionFrom15) */\n      swap2\n      swap1\n      0xffffffff\n      and\n      jump\t// in\n    tag_373:\n        /* \"TimeAlly.sol\":24226:24245  _benefitOfAllMonths */\n      dup6\n        /* \"TimeAlly.sol\":24226:24274  _benefitOfAllMonths... */\n      tag_173\n      swap1\n        /* \"TimeAlly.sol\":24226:24370  _benefitOfAllMonths... */\n      swap2\n      swap1\n      0xffffffff\n      and\n      jump\t// in\n    tag_372:\n        /* \"TimeAlly.sol\":24226:24399  _benefitOfAllMonths... */\n      tag_233\n      swap1\n        /* \"TimeAlly.sol\":24226:24405  _benefitOfAllMonths... */\n      swap2\n      swap1\n      0xffffffff\n      and\n      jump\t// in\n    tag_371:\n        /* \"TimeAlly.sol\":24206:24405  uint256 _luckPool = _benefitOfAllMonths... */\n      swap1\n      pop\n        /* \"TimeAlly.sol\":24425:24430  token */\n      0x02\n      0x00\n      swap1\n      sload\n      swap1\n      0x0100\n      exp\n      swap1\n      div\n      0xffffffffffffffffffffffffffffffffffffffff\n      and\n        /* \"TimeAlly.sol\":24425:24439  token.transfer */\n      0xffffffffffffffffffffffffffffffffffffffff\n      and\n      0xa9059cbb\n        /* \"TimeAlly.sol\":24448:24458  nrtManager */\n      0x03\n      0x00\n      swap1\n      sload\n      swap1\n      0x0100\n      exp\n      swap1\n      div\n      0xffffffffffffffffffffffffffffffffffffffff\n      and\n        /* \"TimeAlly.sol\":24461:24470  _luckPool */\n      dup4\n        /* \"TimeAlly.sol\":24425:24471  token.transfer(address(nrtManager), _luckPool) */\n      mload(0x40)\n      dup4\n      0xffffffff\n      and\n      0xe0\n      shl\n      dup2\n      mstore\n      0x04\n      add\n      dup1\n      dup4\n      0xffffffffffffffffffffffffffffffffffffffff\n      and\n      0xffffffffffffffffffffffffffffffffffffffff\n      and\n      dup2\n      mstore\n      0x20\n      add\n      dup3\n      dup2\n      mstore\n      0x20\n      add\n      swap3\n      pop\n      pop\n      pop\n      0x20\n      mload(0x40)\n      dup1\n      dup4\n      sub\n      dup2\n      0x00\n      dup8\n      dup1\n      extcodesize\n      iszero\n        /* \"--CODEGEN--\":8:17   */\n      dup1\n        /* \"--CODEGEN--\":5:7   */\n      iszero\n      tag_378\n      jumpi\n        /* \"--CODEGEN--\":30:31   */\n      0x00\n        /* \"--CODEGEN--\":27:28   */\n      dup1\n        /* \"--CODEGEN--\":20:32   */\n      revert\n        /* \"--CODEGEN--\":5:7   */\n    tag_378:\n        /* \"TimeAlly.sol\":24425:24471  token.transfer(address(nrtManager), _luckPool) */\n      pop\n      gas\n      call\n      iszero\n        /* \"--CODEGEN--\":8:17   */\n      dup1\n        /* \"--CODEGEN--\":5:7   */\n      iszero\n      tag_379\n      jumpi\n        /* \"--CODEGEN--\":45:61   */\n      returndatasize\n        /* \"--CODEGEN--\":42:43   */\n      0x00\n        /* \"--CODEGEN--\":39:40   */\n      dup1\n        /* \"--CODEGEN--\":24:62   */\n      returndatacopy\n        /* \"--CODEGEN--\":77:93   */\n      returndatasize\n        /* \"--CODEGEN--\":74:75   */\n      0x00\n        /* \"--CODEGEN--\":67:94   */\n      revert\n        /* \"--CODEGEN--\":5:7   */\n    tag_379:\n        /* \"TimeAlly.sol\":24425:24471  token.transfer(address(nrtManager), _luckPool) */\n      pop\n      pop\n      pop\n      pop\n      mload(0x40)\n      returndatasize\n        /* \"--CODEGEN--\":13:15   */\n      0x20\n        /* \"--CODEGEN--\":8:11   */\n      dup2\n        /* \"--CODEGEN--\":5:16   */\n      lt\n        /* \"--CODEGEN--\":2:4   */\n      iszero\n      tag_380\n      jumpi\n        /* \"--CODEGEN--\":29:30   */\n      0x00\n        /* \"--CODEGEN--\":26:27   */\n      dup1\n        /* \"--CODEGEN--\":19:31   */\n      revert\n        /* \"--CODEGEN--\":2:4   */\n    tag_380:\n        /* \"TimeAlly.sol\":24425:24471  token.transfer(address(nrtManager), _luckPool) */\n      dup2\n      add\n      swap1\n      dup1\n      dup1\n      mload\n      swap1\n      0x20\n      add\n      swap1\n      swap3\n      swap2\n      swap1\n      pop\n      pop\n      pop\n        /* \"TimeAlly.sol\":24416:24473  require( token.transfer(address(nrtManager), _luckPool) ) */\n      tag_381\n      jumpi\n      0x00\n      dup1\n      revert\n    tag_381:\n        /* \"TimeAlly.sol\":24492:24502  nrtManager */\n      0x03\n      0x00\n      swap1\n      sload\n      swap1\n      0x0100\n      exp\n      swap1\n      div\n      0xffffffffffffffffffffffffffffffffffffffff\n      and\n        /* \"TimeAlly.sol\":24492:24517  nrtManager.UpdateLuckpool */\n      0xffffffffffffffffffffffffffffffffffffffff\n      and\n      0x382e2aab\n        /* \"TimeAlly.sol\":24518:24527  _luckPool */\n      dup3\n        /* \"TimeAlly.sol\":24492:24528  nrtManager.UpdateLuckpool(_luckPool) */\n      mload(0x40)\n      dup3\n      0xffffffff\n      and\n      0xe0\n      shl\n      dup2\n      mstore\n      0x04\n      add\n      dup1\n      dup3\n      dup2\n      mstore\n      0x20\n      add\n      swap2\n      pop\n      pop\n      0x20\n      mload(0x40)\n      dup1\n      dup4\n      sub\n      dup2\n      0x00\n      dup8\n      dup1\n      extcodesize\n      iszero\n        /* \"--CODEGEN--\":8:17   */\n      dup1\n        /* \"--CODEGEN--\":5:7   */\n      iszero\n      tag_382\n      jumpi\n        /* \"--CODEGEN--\":30:31   */\n      0x00\n        /* \"--CODEGEN--\":27:28   */\n      dup1\n        /* \"--CODEGEN--\":20:32   */\n      revert\n        /* \"--CODEGEN--\":5:7   */\n    tag_382:\n        /* \"TimeAlly.sol\":24492:24528  nrtManager.UpdateLuckpool(_luckPool) */\n      pop\n      gas\n      call\n      iszero\n        /* \"--CODEGEN--\":8:17   */\n      dup1\n        /* \"--CODEGEN--\":5:7   */\n      iszero\n      tag_383\n      jumpi\n        /* \"--CODEGEN--\":45:61   */\n      returndatasize\n        /* \"--CODEGEN--\":42:43   */\n      0x00\n        /* \"--CODEGEN--\":39:40   */\n      dup1\n        /* \"--CODEGEN--\":24:62   */\n      returndatacopy\n        /* \"--CODEGEN--\":77:93   */\n      returndatasize\n        /* \"--CODEGEN--\":74:75   */\n      0x00\n        /* \"--CODEGEN--\":67:94   */\n      revert\n        /* \"--CODEGEN--\":5:7   */\n    tag_383:\n        /* \"TimeAlly.sol\":24492:24528  nrtManager.UpdateLuckpool(_luckPool) */\n      pop\n      pop\n      pop\n      pop\n      mload(0x40)\n      returndatasize\n        /* \"--CODEGEN--\":13:15   */\n      0x20\n        /* \"--CODEGEN--\":8:11   */\n      dup2\n        /* \"--CODEGEN--\":5:16   */\n      lt\n        /* \"--CODEGEN--\":2:4   */\n      iszero\n      tag_384\n      jumpi\n        /* \"--CODEGEN--\":29:30   */\n      0x00\n        /* \"--CODEGEN--\":26:27   */\n      dup1\n        /* \"--CODEGEN--\":19:31   */\n      revert\n        /* \"--CODEGEN--\":2:4   */\n    tag_384:\n        /* \"TimeAlly.sol\":24492:24528  nrtManager.UpdateLuckpool(_luckPool) */\n      dup2\n      add\n      swap1\n      dup1\n      dup1\n      mload\n      swap1\n      0x20\n      add\n      swap1\n      swap3\n      swap2\n      swap1\n      pop\n      pop\n      pop\n        /* \"TimeAlly.sol\":24483:24530  require( nrtManager.UpdateLuckpool(_luckPool) ) */\n      tag_385\n      jumpi\n      0x00\n      dup1\n      revert\n    tag_385:\n        /* \"TimeAlly.sol\":24563:24597  _benefitOfAllMonths.sub(_luckPool) */\n      tag_386\n        /* \"TimeAlly.sol\":24587:24596  _luckPool */\n      dup2\n        /* \"TimeAlly.sol\":24563:24582  _benefitOfAllMonths */\n      dup4\n        /* \"TimeAlly.sol\":24563:24586  _benefitOfAllMonths.sub */\n      tag_201\n      swap1\n        /* \"TimeAlly.sol\":24563:24597  _benefitOfAllMonths.sub(_luckPool) */\n      swap2\n      swap1\n      0xffffffff\n      and\n      jump\t// in\n    tag_386:\n        /* \"TimeAlly.sol\":24541:24597  _benefitOfAllMonths = _benefitOfAllMonths.sub(_luckPool) */\n      swap2\n      pop\n        /* \"TimeAlly.sol\":24608:24628  uint256 _halfBenefit */\n      0x00\n        /* \"TimeAlly.sol\":24631:24657  _benefitOfAllMonths.div(2) */\n      tag_387\n        /* \"TimeAlly.sol\":24655:24656  2 */\n      0x02\n        /* \"TimeAlly.sol\":24631:24650  _benefitOfAllMonths */\n      dup5\n        /* \"TimeAlly.sol\":24631:24654  _benefitOfAllMonths.div */\n      tag_233\n      swap1\n        /* \"TimeAlly.sol\":24631:24657  _benefitOfAllMonths.div(2) */\n      swap2\n      swap1\n      0xffffffff\n      and\n      jump\t// in\n    tag_387:\n        /* \"TimeAlly.sol\":24608:24657  uint256 _halfBenefit = _benefitOfAllMonths.div(2) */\n      swap1\n      pop\n        /* \"TimeAlly.sol\":24676:24681  token */\n      0x02\n      0x00\n      swap1\n      sload\n      swap1\n      0x0100\n      exp\n      swap1\n      div\n      0xffffffffffffffffffffffffffffffffffffffff\n      and\n        /* \"TimeAlly.sol\":24676:24690  token.transfer */\n      0xffffffffffffffffffffffffffffffffffffffff\n      and\n      0xa9059cbb\n        /* \"TimeAlly.sol\":24691:24701  msg.sender */\n      caller\n        /* \"TimeAlly.sol\":24703:24715  _halfBenefit */\n      dup4\n        /* \"TimeAlly.sol\":24676:24716  token.transfer(msg.sender, _halfBenefit) */\n      mload(0x40)\n      dup4\n      0xffffffff\n      and\n      0xe0\n      shl\n      dup2\n      mstore\n      0x04\n      add\n      dup1\n      dup4\n      0xffffffffffffffffffffffffffffffffffffffff\n      and\n      0xffffffffffffffffffffffffffffffffffffffff\n      and\n      dup2\n      mstore\n      0x20\n      add\n      dup3\n      dup2\n      mstore\n      0x20\n      add\n      swap3\n      pop\n      pop\n      pop\n      0x20\n      mload(0x40)\n      dup1\n      dup4\n      sub\n      dup2\n      0x00\n      dup8\n      dup1\n      extcodesize\n      iszero\n        /* \"--CODEGEN--\":8:17   */\n      dup1\n        /* \"--CODEGEN--\":5:7   */\n      iszero\n      tag_388\n      jumpi\n        /* \"--CODEGEN--\":30:31   */\n      0x00\n        /* \"--CODEGEN--\":27:28   */\n      dup1\n        /* \"--CODEGEN--\":20:32   */\n      revert\n        /* \"--CODEGEN--\":5:7   */\n    tag_388:\n        /* \"TimeAlly.sol\":24676:24716  token.transfer(msg.sender, _halfBenefit) */\n      pop\n      gas\n      call\n      iszero\n        /* \"--CODEGEN--\":8:17   */\n      dup1\n        /* \"--CODEGEN--\":5:7   */\n      iszero\n      tag_389\n      jumpi\n        /* \"--CODEGEN--\":45:61   */\n      returndatasize\n        /* \"--CODEGEN--\":42:43   */\n      0x00\n        /* \"--CODEGEN--\":39:40   */\n      dup1\n        /* \"--CODEGEN--\":24:62   */\n      returndatacopy\n        /* \"--CODEGEN--\":77:93   */\n      returndatasize\n        /* \"--CODEGEN--\":74:75   */\n      0x00\n        /* \"--CODEGEN--\":67:94   */\n      revert\n        /* \"--CODEGEN--\":5:7   */\n    tag_389:\n        /* \"TimeAlly.sol\":24676:24716  token.transfer(msg.sender, _halfBenefit) */\n      pop\n      pop\n      pop\n      pop\n      mload(0x40)\n      returndatasize\n        /* \"--CODEGEN--\":13:15   */\n      0x20\n        /* \"--CODEGEN--\":8:11   */\n      dup2\n        /* \"--CODEGEN--\":5:16   */\n      lt\n        /* \"--CODEGEN--\":2:4   */\n      iszero\n      tag_390\n      jumpi\n        /* \"--CODEGEN--\":29:30   */\n      0x00\n        /* \"--CODEGEN--\":26:27   */\n      dup1\n        /* \"--CODEGEN--\":19:31   */\n      revert\n        /* \"--CODEGEN--\":2:4   */\n    tag_390:\n        /* \"TimeAlly.sol\":24676:24716  token.transfer(msg.sender, _halfBenefit) */\n      dup2\n      add\n      swap1\n      dup1\n      dup1\n      mload\n      swap1\n      0x20\n      add\n      swap1\n      swap3\n      swap2\n      swap1\n      pop\n      pop\n      pop\n        /* \"TimeAlly.sol\":24667:24718  require( token.transfer(msg.sender, _halfBenefit) ) */\n      tag_391\n      jumpi\n      0x00\n      dup1\n      revert\n    tag_391:\n        /* \"TimeAlly.sol\":24756:24798  launchReward[msg.sender].add(_halfBenefit) */\n      tag_392\n        /* \"TimeAlly.sol\":24785:24797  _halfBenefit */\n      dup2\n        /* \"TimeAlly.sol\":24756:24768  launchReward */\n      0x09\n        /* \"TimeAlly.sol\":24756:24780  launchReward[msg.sender] */\n      0x00\n        /* \"TimeAlly.sol\":24769:24779  msg.sender */\n      caller\n        /* \"TimeAlly.sol\":24756:24780  launchReward[msg.sender] */\n      0xffffffffffffffffffffffffffffffffffffffff\n      and\n      0xffffffffffffffffffffffffffffffffffffffff\n      and\n      dup2\n      mstore\n      0x20\n      add\n      swap1\n      dup2\n      mstore\n      0x20\n      add\n      0x00\n      keccak256\n      sload\n        /* \"TimeAlly.sol\":24756:24784  launchReward[msg.sender].add */\n      tag_195\n      swap1\n        /* \"TimeAlly.sol\":24756:24798  launchReward[msg.sender].add(_halfBenefit) */\n      swap2\n      swap1\n      0xffffffff\n      and\n      jump\t// in\n    tag_392:\n        /* \"TimeAlly.sol\":24729:24741  launchReward */\n      0x09\n        /* \"TimeAlly.sol\":24729:24753  launchReward[msg.sender] */\n      0x00\n        /* \"TimeAlly.sol\":24742:24752  msg.sender */\n      caller\n        /* \"TimeAlly.sol\":24729:24753  launchReward[msg.sender] */\n      0xffffffffffffffffffffffffffffffffffffffff\n      and\n      0xffffffffffffffffffffffffffffffffffffffff\n      and\n      dup2\n      mstore\n      0x20\n      add\n      swap1\n      dup2\n      mstore\n      0x20\n      add\n      0x00\n      keccak256\n        /* \"TimeAlly.sol\":24729:24798  launchReward[msg.sender] = launchReward[msg.sender].add(_halfBenefit) */\n      dup2\n      swap1\n      sstore\n      pop\n        /* \"TimeAlly.sol\":24853:24863  msg.sender */\n      caller\n        /* \"TimeAlly.sol\":24836:24887  BenefitWithdrawl(msg.sender, _months, _halfBenefit) */\n      0xffffffffffffffffffffffffffffffffffffffff\n      and\n      0xc175c46cbac099c5f7ce60e88a74274b428ae1c2e5efeb1ef48b13ff384a4c\n        /* \"TimeAlly.sol\":24865:24872  _months */\n      dup6\n        /* \"TimeAlly.sol\":24874:24886  _halfBenefit */\n      dup4\n        /* \"TimeAlly.sol\":24836:24887  BenefitWithdrawl(msg.sender, _months, _halfBenefit) */\n      mload(0x40)\n      dup1\n      dup1\n      0x20\n      add\n      dup4\n      dup2\n      mstore\n      0x20\n      add\n      dup3\n      dup2\n      sub\n      dup3\n      mstore\n      dup5\n      dup2\n      dup2\n      mload\n      dup2\n      mstore\n      0x20\n      add\n      swap2\n      pop\n      dup1\n      mload\n      swap1\n      0x20\n      add\n      swap1\n      0x20\n      mul\n      dup1\n      dup4\n      dup4\n        /* \"--CODEGEN--\":23:24   */\n      0x00\n        /* \"--CODEGEN--\":8:108   */\n    tag_393:\n        /* \"--CODEGEN--\":33:36   */\n      dup4\n        /* \"--CODEGEN--\":30:31   */\n      dup2\n        /* \"--CODEGEN--\":27:37   */\n      lt\n        /* \"--CODEGEN--\":8:108   */\n      iszero\n      tag_395\n      jumpi\n        /* \"--CODEGEN--\":99:100   */\n      dup1\n        /* \"--CODEGEN--\":94:97   */\n      dup3\n        /* \"--CODEGEN--\":90:101   */\n      add\n        /* \"--CODEGEN--\":84:102   */\n      mload\n        /* \"--CODEGEN--\":80:81   */\n      dup2\n        /* \"--CODEGEN--\":75:78   */\n      dup5\n        /* \"--CODEGEN--\":71:82   */\n      add\n        /* \"--CODEGEN--\":64:103   */\n      mstore\n        /* \"--CODEGEN--\":52:54   */\n      0x20\n        /* \"--CODEGEN--\":49:50   */\n      dup2\n        /* \"--CODEGEN--\":45:55   */\n      add\n        /* \"--CODEGEN--\":40:55   */\n      swap1\n      pop\n        /* \"--CODEGEN--\":8:108   */\n      jump(tag_393)\n    tag_395:\n        /* \"--CODEGEN--\":12:26   */\n      pop\n        /* \"TimeAlly.sol\":24836:24887  BenefitWithdrawl(msg.sender, _months, _halfBenefit) */\n      pop\n      pop\n      pop\n      swap1\n      pop\n      add\n      swap4\n      pop\n      pop\n      pop\n      pop\n      mload(0x40)\n      dup1\n      swap2\n      sub\n      swap1\n      log2\n        /* \"TimeAlly.sol\":23191:24894  function withdrawBenefitOfAStakingByMonths(... */\n      pop\n      pop\n      pop\n      pop\n      pop\n      jump\t// out\n        /* \"TimeAlly.sol\":38698:39325  function addNominee(uint256 _stakingId, address _nomineeAddress, uint256 _shares) public {... */\n    tag_110:\n        /* \"TimeAlly.sol\":38848:38849  1 */\n      0x01\n        /* \"TimeAlly.sol\":38805:38813  stakings */\n      0x07\n        /* \"TimeAlly.sol\":38805:38825  stakings[msg.sender] */\n      0x00\n        /* \"TimeAlly.sol\":38814:38824  msg.sender */\n      caller\n        /* \"TimeAlly.sol\":38805:38825  stakings[msg.sender] */\n      0xffffffffffffffffffffffffffffffffffffffff\n      and\n      0xffffffffffffffffffffffffffffffffffffffff\n      and\n      dup2\n      mstore\n      0x20\n      add\n      swap1\n      dup2\n      mstore\n      0x20\n      add\n      0x00\n      keccak256\n        /* \"TimeAlly.sol\":38826:38836  _stakingId */\n      dup5\n        /* \"TimeAlly.sol\":38805:38837  stakings[msg.sender][_stakingId] */\n      dup2\n      sload\n      dup2\n      lt\n      tag_397\n      jumpi\n      invalid\n    tag_397:\n      swap1\n      0x00\n      mstore\n      keccak256(0x00, 0x20)\n      swap1\n      0x09\n      mul\n      add\n        /* \"TimeAlly.sol\":38805:38844  stakings[msg.sender][_stakingId].status */\n      0x04\n      add\n      sload\n        /* \"TimeAlly.sol\":38805:38849  stakings[msg.sender][_stakingId].status == 1 */\n      eq\n        /* \"TimeAlly.sol\":38797:38898  require(stakings[msg.sender][_stakingId].status == 1... */\n      tag_399\n      jumpi\n      0x00\n      dup1\n      revert\n    tag_399:\n        /* \"TimeAlly.sol\":38980:38981  0 */\n      0x00\n        /* \"TimeAlly.sol\":38916:38924  stakings */\n      0x07\n        /* \"TimeAlly.sol\":38916:38936  stakings[msg.sender] */\n      0x00\n        /* \"TimeAlly.sol\":38925:38935  msg.sender */\n      caller\n        /* \"TimeAlly.sol\":38916:38936  stakings[msg.sender] */\n      0xffffffffffffffffffffffffffffffffffffffff\n      and\n      0xffffffffffffffffffffffffffffffffffffffff\n      and\n      dup2\n      mstore\n      0x20\n      add\n      swap1\n      dup2\n      mstore\n      0x20\n      add\n      0x00\n      keccak256\n        /* \"TimeAlly.sol\":38937:38947  _stakingId */\n      dup5\n        /* \"TimeAlly.sol\":38916:38948  stakings[msg.sender][_stakingId] */\n      dup2\n      sload\n      dup2\n      lt\n      tag_400\n      jumpi\n      invalid\n    tag_400:\n      swap1\n      0x00\n      mstore\n      keccak256(0x00, 0x20)\n      swap1\n      0x09\n      mul\n      add\n        /* \"TimeAlly.sol\":38916:38959  stakings[msg.sender][_stakingId].nomination */\n      0x08\n      add\n        /* \"TimeAlly.sol\":38916:38976  stakings[msg.sender][_stakingId].nomination[_nomineeAddress] */\n      0x00\n        /* \"TimeAlly.sol\":38960:38975  _nomineeAddress */\n      dup5\n        /* \"TimeAlly.sol\":38916:38976  stakings[msg.sender][_stakingId].nomination[_nomineeAddress] */\n      0xffffffffffffffffffffffffffffffffffffffff\n      and\n      0xffffffffffffffffffffffffffffffffffffffff\n      and\n      dup2\n      mstore\n      0x20\n      add\n      swap1\n      dup2\n      mstore\n      0x20\n      add\n      0x00\n      keccak256\n      sload\n        /* \"TimeAlly.sol\":38916:38981  stakings[msg.sender][_stakingId].nomination[_nomineeAddress] == 0 */\n      eq\n        /* \"TimeAlly.sol\":38908:39038  require(stakings[msg.sender][_stakingId].nomination[_nomineeAddress] == 0... */\n      tag_402\n      jumpi\n      0x00\n      dup1\n      revert\n    tag_402:\n        /* \"TimeAlly.sol\":39105:39172  stakings[msg.sender][_stakingId].totalNominationShares.add(_shares) */\n      tag_403\n        /* \"TimeAlly.sol\":39164:39171  _shares */\n      dup2\n        /* \"TimeAlly.sol\":39105:39113  stakings */\n      0x07\n        /* \"TimeAlly.sol\":39105:39125  stakings[msg.sender] */\n      0x00\n        /* \"TimeAlly.sol\":39114:39124  msg.sender */\n      caller\n        /* \"TimeAlly.sol\":39105:39125  stakings[msg.sender] */\n      0xffffffffffffffffffffffffffffffffffffffff\n      and\n      0xffffffffffffffffffffffffffffffffffffffff\n      and\n      dup2\n      mstore\n      0x20\n      add\n      swap1\n      dup2\n      mstore\n      0x20\n      add\n      0x00\n      keccak256\n        /* \"TimeAlly.sol\":39126:39136  _stakingId */\n      dup6\n        /* \"TimeAlly.sol\":39105:39137  stakings[msg.sender][_stakingId] */\n      dup2\n      sload\n      dup2\n      lt\n      tag_404\n      jumpi\n      invalid\n    tag_404:\n      swap1\n      0x00\n      mstore\n      keccak256(0x00, 0x20)\n      swap1\n      0x09\n      mul\n      add\n        /* \"TimeAlly.sol\":39105:39159  stakings[msg.sender][_stakingId].totalNominationShares */\n      0x06\n      add\n      sload\n        /* \"TimeAlly.sol\":39105:39163  stakings[msg.sender][_stakingId].totalNominationShares.add */\n      tag_195\n      swap1\n        /* \"TimeAlly.sol\":39105:39172  stakings[msg.sender][_stakingId].totalNominationShares.add(_shares) */\n      swap2\n      swap1\n      0xffffffff\n      and\n      jump\t// in\n    tag_403:\n        /* \"TimeAlly.sol\":39048:39056  stakings */\n      0x07\n        /* \"TimeAlly.sol\":39048:39068  stakings[msg.sender] */\n      0x00\n        /* \"TimeAlly.sol\":39057:39067  msg.sender */\n      caller\n        /* \"TimeAlly.sol\":39048:39068  stakings[msg.sender] */\n      0xffffffffffffffffffffffffffffffffffffffff\n      and\n      0xffffffffffffffffffffffffffffffffffffffff\n      and\n      dup2\n      mstore\n      0x20\n      add\n      swap1\n      dup2\n      mstore\n      0x20\n      add\n      0x00\n      keccak256\n        /* \"TimeAlly.sol\":39069:39079  _stakingId */\n      dup5\n        /* \"TimeAlly.sol\":39048:39080  stakings[msg.sender][_stakingId] */\n      dup2\n      sload\n      dup2\n      lt\n      tag_406\n      jumpi\n      invalid\n    tag_406:\n      swap1\n      0x00\n      mstore\n      keccak256(0x00, 0x20)\n      swap1\n      0x09\n      mul\n      add\n        /* \"TimeAlly.sol\":39048:39102  stakings[msg.sender][_stakingId].totalNominationShares */\n      0x06\n      add\n        /* \"TimeAlly.sol\":39048:39172  stakings[msg.sender][_stakingId].totalNominationShares = stakings[msg.sender][_stakingId].totalNominationShares.add(_shares) */\n      dup2\n      swap1\n      sstore\n      pop\n        /* \"TimeAlly.sol\":39245:39252  _shares */\n      dup1\n        /* \"TimeAlly.sol\":39182:39190  stakings */\n      0x07\n        /* \"TimeAlly.sol\":39182:39202  stakings[msg.sender] */\n      0x00\n        /* \"TimeAlly.sol\":39191:39201  msg.sender */\n      caller\n        /* \"TimeAlly.sol\":39182:39202  stakings[msg.sender] */\n      0xffffffffffffffffffffffffffffffffffffffff\n      and\n      0xffffffffffffffffffffffffffffffffffffffff\n      and\n      dup2\n      mstore\n      0x20\n      add\n      swap1\n      dup2\n      mstore\n      0x20\n      add\n      0x00\n      keccak256\n        /* \"TimeAlly.sol\":39203:39213  _stakingId */\n      dup5\n        /* \"TimeAlly.sol\":39182:39214  stakings[msg.sender][_stakingId] */\n      dup2\n      sload\n      dup2\n      lt\n      tag_408\n      jumpi\n      invalid\n    tag_408:\n      swap1\n      0x00\n      mstore\n      keccak256(0x00, 0x20)\n      swap1\n      0x09\n      mul\n      add\n        /* \"TimeAlly.sol\":39182:39225  stakings[msg.sender][_stakingId].nomination */\n      0x08\n      add\n        /* \"TimeAlly.sol\":39182:39242  stakings[msg.sender][_stakingId].nomination[_nomineeAddress] */\n      0x00\n        /* \"TimeAlly.sol\":39226:39241  _nomineeAddress */\n      dup5\n        /* \"TimeAlly.sol\":39182:39242  stakings[msg.sender][_stakingId].nomination[_nomineeAddress] */\n      0xffffffffffffffffffffffffffffffffffffffff\n      and\n      0xffffffffffffffffffffffffffffffffffffffff\n      and\n      dup2\n      mstore\n      0x20\n      add\n      swap1\n      dup2\n      mstore\n      0x20\n      add\n      0x00\n      keccak256\n        /* \"TimeAlly.sol\":39182:39252  stakings[msg.sender][_stakingId].nomination[_nomineeAddress] = _shares */\n      dup2\n      swap1\n      sstore\n      pop\n        /* \"TimeAlly.sol\":39302:39317  _nomineeAddress */\n      dup2\n        /* \"TimeAlly.sol\":39267:39318  NomineeNew(msg.sender, _stakingId, _nomineeAddress) */\n      0xffffffffffffffffffffffffffffffffffffffff\n      and\n        /* \"TimeAlly.sol\":39290:39300  _stakingId */\n      dup4\n        /* \"TimeAlly.sol\":39278:39288  msg.sender */\n      caller\n        /* \"TimeAlly.sol\":39267:39318  NomineeNew(msg.sender, _stakingId, _nomineeAddress) */\n      0xffffffffffffffffffffffffffffffffffffffff\n      and\n      0xc4e7fb51a42ce926bb404f8024c3c91a40af0654d9a96ada67c329b9c9bee4a2\n      mload(0x40)\n      mload(0x40)\n      dup1\n      swap2\n      sub\n      swap1\n      log4\n        /* \"TimeAlly.sol\":38698:39325  function addNominee(uint256 _stakingId, address _nomineeAddress, uint256 _shares) public {... */\n      pop\n      pop\n      pop\n      jump\t// out\n        /* \"TimeAlly.sol\":9414:9554  function getNumberOfStakingsByUser(address _userAddress) public view returns (uint256) {... */\n    tag_113:\n        /* \"TimeAlly.sol\":9492:9499  uint256 */\n      0x00\n        /* \"TimeAlly.sol\":9518:9526  stakings */\n      0x07\n        /* \"TimeAlly.sol\":9518:9540  stakings[_userAddress] */\n      0x00\n        /* \"TimeAlly.sol\":9527:9539  _userAddress */\n      dup4\n        /* \"TimeAlly.sol\":9518:9540  stakings[_userAddress] */\n      0xffffffffffffffffffffffffffffffffffffffff\n      and\n      0xffffffffffffffffffffffffffffffffffffffff\n      and\n      dup2\n      mstore\n      0x20\n      add\n      swap1\n      dup2\n      mstore\n      0x20\n      add\n      0x00\n      keccak256\n        /* \"TimeAlly.sol\":9518:9547  stakings[_userAddress].length */\n      dup1\n      sload\n      swap1\n      pop\n        /* \"TimeAlly.sol\":9511:9547  return stakings[_userAddress].length */\n      swap1\n      pop\n        /* \"TimeAlly.sol\":9414:9554  function getNumberOfStakingsByUser(address _userAddress) public view returns (uint256) {... */\n      swap2\n      swap1\n      pop\n      jump\t// out\n        /* \"TimeAlly.sol\":2657:2684  LoanPlan[] public loanPlans */\n    tag_116:\n      0x06\n      dup2\n      dup2\n      sload\n      dup2\n      lt\n      tag_411\n      jumpi\n      invalid\n    tag_411:\n      swap1\n      0x00\n      mstore\n      keccak256(0x00, 0x20)\n      swap1\n      0x03\n      mul\n      add\n      0x00\n      swap2\n      pop\n      swap1\n      pop\n      dup1\n      0x00\n      add\n      sload\n      swap1\n      dup1\n      0x01\n      add\n      sload\n      swap1\n      dup1\n      0x02\n      add\n      sload\n      swap1\n      pop\n      dup4\n      jump\t// out\n        /* \"TimeAlly.sol\":31398:34601  function takeLoanOnSelfStaking(uint256 _loanPlanId, uint256 _exaEsAmount, uint256[] memory _stakingIds) public {... */\n    tag_122:\n        /* \"TimeAlly.sol\":31747:31768  uint256 _currentMonth */\n      0x00\n        /* \"TimeAlly.sol\":31771:31788  getCurrentMonth() */\n      tag_414\n        /* \"TimeAlly.sol\":31771:31786  getCurrentMonth */\n      tag_133\n        /* \"TimeAlly.sol\":31771:31788  getCurrentMonth() */\n      jump\t// in\n    tag_414:\n        /* \"TimeAlly.sol\":31747:31788  uint256 _currentMonth = getCurrentMonth() */\n      swap1\n      pop\n        /* \"TimeAlly.sol\":31798:31830  uint256 _userStakingsExaEsAmount */\n      0x00\n        /* \"TimeAlly.sol\":31845:31854  uint256 i */\n      dup1\n        /* \"TimeAlly.sol\":31857:31858  0 */\n      0x00\n        /* \"TimeAlly.sol\":31845:31858  uint256 i = 0 */\n      swap1\n      pop\n        /* \"TimeAlly.sol\":31841:33639  for(uint256 i = 0; i < _stakingIds.length; i++) {... */\n    tag_415:\n        /* \"TimeAlly.sol\":31864:31875  _stakingIds */\n      dup4\n        /* \"TimeAlly.sol\":31864:31882  _stakingIds.length */\n      mload\n        /* \"TimeAlly.sol\":31860:31861  i */\n      dup2\n        /* \"TimeAlly.sol\":31860:31882  i < _stakingIds.length */\n      lt\n        /* \"TimeAlly.sol\":31841:33639  for(uint256 i = 0; i < _stakingIds.length; i++) {... */\n      iszero\n      tag_416\n      jumpi\n        /* \"TimeAlly.sol\":31908:31966  isStakingActive(msg.sender, _stakingIds[i], _currentMonth) */\n      tag_418\n        /* \"TimeAlly.sol\":31924:31934  msg.sender */\n      caller\n        /* \"TimeAlly.sol\":31936:31947  _stakingIds */\n      dup6\n        /* \"TimeAlly.sol\":31948:31949  i */\n      dup4\n        /* \"TimeAlly.sol\":31936:31950  _stakingIds[i] */\n      dup2\n      mload\n      dup2\n      lt\n      tag_419\n      jumpi\n      invalid\n    tag_419:\n      0x20\n      mul\n      0x20\n      add\n      add\n      mload\n        /* \"TimeAlly.sol\":31952:31965  _currentMonth */\n      dup6\n        /* \"TimeAlly.sol\":31908:31923  isStakingActive */\n      tag_128\n        /* \"TimeAlly.sol\":31908:31966  isStakingActive(msg.sender, _stakingIds[i], _currentMonth) */\n      jump\t// in\n    tag_418:\n        /* \"TimeAlly.sol\":31908:32432  isStakingActive(msg.sender, _stakingIds[i], _currentMonth)... */\n      dup1\n      iszero\n      tag_420\n      jumpi\n      pop\n        /* \"TimeAlly.sol\":32128:32140  stakingPlans */\n      0x05\n        /* \"TimeAlly.sol\":32142:32150  stakings */\n      0x07\n        /* \"TimeAlly.sol\":32142:32162  stakings[msg.sender] */\n      0x00\n        /* \"TimeAlly.sol\":32151:32161  msg.sender */\n      caller\n        /* \"TimeAlly.sol\":32142:32162  stakings[msg.sender] */\n      0xffffffffffffffffffffffffffffffffffffffff\n      and\n      0xffffffffffffffffffffffffffffffffffffffff\n      and\n      dup2\n      mstore\n      0x20\n      add\n      swap1\n      dup2\n      mstore\n      0x20\n      add\n      0x00\n      keccak256\n        /* \"TimeAlly.sol\":32163:32174  _stakingIds */\n      dup6\n        /* \"TimeAlly.sol\":32175:32176  i */\n      dup4\n        /* \"TimeAlly.sol\":32163:32177  _stakingIds[i] */\n      dup2\n      mload\n      dup2\n      lt\n      tag_421\n      jumpi\n      invalid\n    tag_421:\n      0x20\n      mul\n      0x20\n      add\n      add\n      mload\n        /* \"TimeAlly.sol\":32142:32178  stakings[msg.sender][_stakingIds[i]] */\n      dup2\n      sload\n      dup2\n      lt\n      tag_422\n      jumpi\n      invalid\n    tag_422:\n      swap1\n      0x00\n      mstore\n      keccak256(0x00, 0x20)\n      swap1\n      0x09\n      mul\n      add\n        /* \"TimeAlly.sol\":32142:32192  stakings[msg.sender][_stakingIds[i]].stakingPlanId */\n      0x03\n      add\n      sload\n        /* \"TimeAlly.sol\":32128:32194  stakingPlans[ stakings[msg.sender][_stakingIds[i]].stakingPlanId ] */\n      dup2\n      sload\n      dup2\n      lt\n      tag_424\n      jumpi\n      invalid\n    tag_424:\n      swap1\n      0x00\n      mstore\n      keccak256(0x00, 0x20)\n      swap1\n      0x03\n      mul\n      add\n        /* \"TimeAlly.sol\":32128:32214  stakingPlans[ stakings[msg.sender][_stakingIds[i]].stakingPlanId ].isUrgentLoanAllowed */\n      0x02\n      add\n      0x00\n      swap1\n      sload\n      swap1\n      0x0100\n      exp\n      swap1\n      div\n      0xff\n      and\n        /* \"TimeAlly.sol\":32128:32414  stakingPlans[ stakings[msg.sender][_stakingIds[i]].stakingPlanId ].isUrgentLoanAllowed... */\n      dup1\n      tag_426\n      jumpi\n      pop\n        /* \"TimeAlly.sol\":32299:32414  stakingPlans[ stakings[msg.sender][_stakingIds[i]].stakingPlanId ].months.mul(earthSecondsInMonth).mul(75).div(100) */\n      tag_427\n        /* \"TimeAlly.sol\":32410:32413  100 */\n      0x64\n        /* \"TimeAlly.sol\":32299:32405  stakingPlans[ stakings[msg.sender][_stakingIds[i]].stakingPlanId ].months.mul(earthSecondsInMonth).mul(75) */\n      tag_428\n        /* \"TimeAlly.sol\":32402:32404  75 */\n      0x4b\n        /* \"TimeAlly.sol\":32299:32397  stakingPlans[ stakings[msg.sender][_stakingIds[i]].stakingPlanId ].months.mul(earthSecondsInMonth) */\n      tag_429\n        /* \"TimeAlly.sol\":32377:32396  earthSecondsInMonth */\n      sload(0x04)\n        /* \"TimeAlly.sol\":32299:32311  stakingPlans */\n      0x05\n        /* \"TimeAlly.sol\":32313:32321  stakings */\n      0x07\n        /* \"TimeAlly.sol\":32313:32333  stakings[msg.sender] */\n      0x00\n        /* \"TimeAlly.sol\":32322:32332  msg.sender */\n      caller\n        /* \"TimeAlly.sol\":32313:32333  stakings[msg.sender] */\n      0xffffffffffffffffffffffffffffffffffffffff\n      and\n      0xffffffffffffffffffffffffffffffffffffffff\n      and\n      dup2\n      mstore\n      0x20\n      add\n      swap1\n      dup2\n      mstore\n      0x20\n      add\n      0x00\n      keccak256\n        /* \"TimeAlly.sol\":32334:32345  _stakingIds */\n      dup12\n        /* \"TimeAlly.sol\":32346:32347  i */\n      dup10\n        /* \"TimeAlly.sol\":32334:32348  _stakingIds[i] */\n      dup2\n      mload\n      dup2\n      lt\n      tag_430\n      jumpi\n      invalid\n    tag_430:\n      0x20\n      mul\n      0x20\n      add\n      add\n      mload\n        /* \"TimeAlly.sol\":32313:32349  stakings[msg.sender][_stakingIds[i]] */\n      dup2\n      sload\n      dup2\n      lt\n      tag_431\n      jumpi\n      invalid\n    tag_431:\n      swap1\n      0x00\n      mstore\n      keccak256(0x00, 0x20)\n      swap1\n      0x09\n      mul\n      add\n        /* \"TimeAlly.sol\":32313:32363  stakings[msg.sender][_stakingIds[i]].stakingPlanId */\n      0x03\n      add\n      sload\n        /* \"TimeAlly.sol\":32299:32365  stakingPlans[ stakings[msg.sender][_stakingIds[i]].stakingPlanId ] */\n      dup2\n      sload\n      dup2\n      lt\n      tag_433\n      jumpi\n      invalid\n    tag_433:\n      swap1\n      0x00\n      mstore\n      keccak256(0x00, 0x20)\n      swap1\n      0x03\n      mul\n      add\n        /* \"TimeAlly.sol\":32299:32372  stakingPlans[ stakings[msg.sender][_stakingIds[i]].stakingPlanId ].months */\n      0x00\n      add\n      sload\n        /* \"TimeAlly.sol\":32299:32376  stakingPlans[ stakings[msg.sender][_stakingIds[i]].stakingPlanId ].months.mul */\n      tag_173\n      swap1\n        /* \"TimeAlly.sol\":32299:32397  stakingPlans[ stakings[msg.sender][_stakingIds[i]].stakingPlanId ].months.mul(earthSecondsInMonth) */\n      swap2\n      swap1\n      0xffffffff\n      and\n      jump\t// in\n    tag_429:\n        /* \"TimeAlly.sol\":32299:32401  stakingPlans[ stakings[msg.sender][_stakingIds[i]].stakingPlanId ].months.mul(earthSecondsInMonth).mul */\n      tag_173\n      swap1\n        /* \"TimeAlly.sol\":32299:32405  stakingPlans[ stakings[msg.sender][_stakingIds[i]].stakingPlanId ].months.mul(earthSecondsInMonth).mul(75) */\n      swap2\n      swap1\n      0xffffffff\n      and\n      jump\t// in\n    tag_428:\n        /* \"TimeAlly.sol\":32299:32409  stakingPlans[ stakings[msg.sender][_stakingIds[i]].stakingPlanId ].months.mul(earthSecondsInMonth).mul(75).div */\n      tag_233\n      swap1\n        /* \"TimeAlly.sol\":32299:32414  stakingPlans[ stakings[msg.sender][_stakingIds[i]].stakingPlanId ].months.mul(earthSecondsInMonth).mul(75).div(100) */\n      swap2\n      swap1\n      0xffffffff\n      and\n      jump\t// in\n    tag_427:\n        /* \"TimeAlly.sol\":32250:32258  stakings */\n      0x07\n        /* \"TimeAlly.sol\":32250:32270  stakings[msg.sender] */\n      0x00\n        /* \"TimeAlly.sol\":32259:32269  msg.sender */\n      caller\n        /* \"TimeAlly.sol\":32250:32270  stakings[msg.sender] */\n      0xffffffffffffffffffffffffffffffffffffffff\n      and\n      0xffffffffffffffffffffffffffffffffffffffff\n      and\n      dup2\n      mstore\n      0x20\n      add\n      swap1\n      dup2\n      mstore\n      0x20\n      add\n      0x00\n      keccak256\n        /* \"TimeAlly.sol\":32271:32282  _stakingIds */\n      dup6\n        /* \"TimeAlly.sol\":32283:32284  i */\n      dup4\n        /* \"TimeAlly.sol\":32271:32285  _stakingIds[i] */\n      dup2\n      mload\n      dup2\n      lt\n      tag_435\n      jumpi\n      invalid\n    tag_435:\n      0x20\n      mul\n      0x20\n      add\n      add\n      mload\n        /* \"TimeAlly.sol\":32250:32286  stakings[msg.sender][_stakingIds[i]] */\n      dup2\n      sload\n      dup2\n      lt\n      tag_436\n      jumpi\n      invalid\n    tag_436:\n      swap1\n      0x00\n      mstore\n      keccak256(0x00, 0x20)\n      swap1\n      0x09\n      mul\n      add\n        /* \"TimeAlly.sol\":32250:32296  stakings[msg.sender][_stakingIds[i]].timestamp */\n      0x01\n      add\n      sload\n        /* \"TimeAlly.sol\":32250:32414  stakings[msg.sender][_stakingIds[i]].timestamp + stakingPlans[ stakings[msg.sender][_stakingIds[i]].stakingPlanId ].months.mul(earthSecondsInMonth).mul(75).div(100) */\n      add\n        /* \"TimeAlly.sol\":32236:32241  token */\n      0x02\n      0x00\n      swap1\n      sload\n      swap1\n      0x0100\n      exp\n      swap1\n      div\n      0xffffffffffffffffffffffffffffffffffffffff\n      and\n        /* \"TimeAlly.sol\":32236:32245  token.mou */\n      0xffffffffffffffffffffffffffffffffffffffff\n      and\n      0xb81f90f3\n        /* \"TimeAlly.sol\":32236:32247  token.mou() */\n      mload(0x40)\n      dup2\n      0xffffffff\n      and\n      0xe0\n      shl\n      dup2\n      mstore\n      0x04\n      add\n      0x20\n      mload(0x40)\n      dup1\n      dup4\n      sub\n      dup2\n      dup7\n      dup1\n      extcodesize\n      iszero\n        /* \"--CODEGEN--\":8:17   */\n      dup1\n        /* \"--CODEGEN--\":5:7   */\n      iszero\n      tag_438\n      jumpi\n        /* \"--CODEGEN--\":30:31   */\n      0x00\n        /* \"--CODEGEN--\":27:28   */\n      dup1\n        /* \"--CODEGEN--\":20:32   */\n      revert\n        /* \"--CODEGEN--\":5:7   */\n    tag_438:\n        /* \"TimeAlly.sol\":32236:32247  token.mou() */\n      pop\n      gas\n      staticcall\n      iszero\n        /* \"--CODEGEN--\":8:17   */\n      dup1\n        /* \"--CODEGEN--\":5:7   */\n      iszero\n      tag_439\n      jumpi\n        /* \"--CODEGEN--\":45:61   */\n      returndatasize\n        /* \"--CODEGEN--\":42:43   */\n      0x00\n        /* \"--CODEGEN--\":39:40   */\n      dup1\n        /* \"--CODEGEN--\":24:62   */\n      returndatacopy\n        /* \"--CODEGEN--\":77:93   */\n      returndatasize\n        /* \"--CODEGEN--\":74:75   */\n      0x00\n        /* \"--CODEGEN--\":67:94   */\n      revert\n        /* \"--CODEGEN--\":5:7   */\n    tag_439:\n        /* \"TimeAlly.sol\":32236:32247  token.mou() */\n      pop\n      pop\n      pop\n      pop\n      mload(0x40)\n      returndatasize\n        /* \"--CODEGEN--\":13:15   */\n      0x20\n        /* \"--CODEGEN--\":8:11   */\n      dup2\n        /* \"--CODEGEN--\":5:16   */\n      lt\n        /* \"--CODEGEN--\":2:4   */\n      iszero\n      tag_440\n      jumpi\n        /* \"--CODEGEN--\":29:30   */\n      0x00\n        /* \"--CODEGEN--\":26:27   */\n      dup1\n        /* \"--CODEGEN--\":19:31   */\n      revert\n        /* \"--CODEGEN--\":2:4   */\n    tag_440:\n        /* \"TimeAlly.sol\":32236:32247  token.mou() */\n      dup2\n      add\n      swap1\n      dup1\n      dup1\n      mload\n      swap1\n      0x20\n      add\n      swap1\n      swap3\n      swap2\n      swap1\n      pop\n      pop\n      pop\n        /* \"TimeAlly.sol\":32236:32414  token.mou() > stakings[msg.sender][_stakingIds[i]].timestamp + stakingPlans[ stakings[msg.sender][_stakingIds[i]].stakingPlanId ].months.mul(earthSecondsInMonth).mul(75).div(100) */\n      gt\n        /* \"TimeAlly.sol\":32128:32414  stakingPlans[ stakings[msg.sender][_stakingIds[i]].stakingPlanId ].isUrgentLoanAllowed... */\n    tag_426:\n        /* \"TimeAlly.sol\":31908:32432  isStakingActive(msg.sender, _stakingIds[i], _currentMonth)... */\n    tag_420:\n        /* \"TimeAlly.sol\":31904:33629  if( isStakingActive(msg.sender, _stakingIds[i], _currentMonth)... */\n      iszero\n      tag_441\n      jumpi\n        /* \"TimeAlly.sol\":32539:32794  _userStakingsExaEsAmount... */\n      tag_442\n        /* \"TimeAlly.sol\":32614:32776  stakings[msg.sender][ _stakingIds[i] ].exaEsAmount... */\n      tag_443\n        /* \"TimeAlly.sol\":32772:32775  100 */\n      0x64\n        /* \"TimeAlly.sol\":32614:32740  stakings[msg.sender][ _stakingIds[i] ].exaEsAmount... */\n      tag_444\n        /* \"TimeAlly.sol\":32696:32705  loanPlans */\n      0x06\n        /* \"TimeAlly.sol\":32706:32717  _loanPlanId */\n      dup11\n        /* \"TimeAlly.sol\":32696:32718  loanPlans[_loanPlanId] */\n      dup2\n      sload\n      dup2\n      lt\n      tag_445\n      jumpi\n      invalid\n    tag_445:\n      swap1\n      0x00\n      mstore\n      keccak256(0x00, 0x20)\n      swap1\n      0x03\n      mul\n      add\n        /* \"TimeAlly.sol\":32696:32739  loanPlans[_loanPlanId].maxLoanAmountPercent */\n      0x02\n      add\n      sload\n        /* \"TimeAlly.sol\":32614:32622  stakings */\n      0x07\n        /* \"TimeAlly.sol\":32614:32634  stakings[msg.sender] */\n      0x00\n        /* \"TimeAlly.sol\":32623:32633  msg.sender */\n      caller\n        /* \"TimeAlly.sol\":32614:32634  stakings[msg.sender] */\n      0xffffffffffffffffffffffffffffffffffffffff\n      and\n      0xffffffffffffffffffffffffffffffffffffffff\n      and\n      dup2\n      mstore\n      0x20\n      add\n      swap1\n      dup2\n      mstore\n      0x20\n      add\n      0x00\n      keccak256\n        /* \"TimeAlly.sol\":32636:32647  _stakingIds */\n      dup10\n        /* \"TimeAlly.sol\":32648:32649  i */\n      dup8\n        /* \"TimeAlly.sol\":32636:32650  _stakingIds[i] */\n      dup2\n      mload\n      dup2\n      lt\n      tag_447\n      jumpi\n      invalid\n    tag_447:\n      0x20\n      mul\n      0x20\n      add\n      add\n      mload\n        /* \"TimeAlly.sol\":32614:32652  stakings[msg.sender][ _stakingIds[i] ] */\n      dup2\n      sload\n      dup2\n      lt\n      tag_448\n      jumpi\n      invalid\n    tag_448:\n      swap1\n      0x00\n      mstore\n      keccak256(0x00, 0x20)\n      swap1\n      0x09\n      mul\n      add\n        /* \"TimeAlly.sol\":32614:32664  stakings[msg.sender][ _stakingIds[i] ].exaEsAmount */\n      0x00\n      add\n      sload\n        /* \"TimeAlly.sol\":32614:32695  stakings[msg.sender][ _stakingIds[i] ].exaEsAmount... */\n      tag_173\n      swap1\n        /* \"TimeAlly.sol\":32614:32740  stakings[msg.sender][ _stakingIds[i] ].exaEsAmount... */\n      swap2\n      swap1\n      0xffffffff\n      and\n      jump\t// in\n    tag_444:\n        /* \"TimeAlly.sol\":32614:32771  stakings[msg.sender][ _stakingIds[i] ].exaEsAmount... */\n      tag_233\n      swap1\n        /* \"TimeAlly.sol\":32614:32776  stakings[msg.sender][ _stakingIds[i] ].exaEsAmount... */\n      swap2\n      swap1\n      0xffffffff\n      and\n      jump\t// in\n    tag_443:\n        /* \"TimeAlly.sol\":32539:32563  _userStakingsExaEsAmount */\n      dup4\n        /* \"TimeAlly.sol\":32539:32588  _userStakingsExaEsAmount... */\n      tag_195\n      swap1\n        /* \"TimeAlly.sol\":32539:32794  _userStakingsExaEsAmount... */\n      swap2\n      swap1\n      0xffffffff\n      and\n      jump\t// in\n    tag_442:\n        /* \"TimeAlly.sol\":32512:32794  _userStakingsExaEsAmount = _userStakingsExaEsAmount... */\n      swap2\n      pop\n        /* \"TimeAlly.sol\":32868:32893  uint256 stakingStartMonth */\n      0x00\n        /* \"TimeAlly.sol\":32896:32904  stakings */\n      0x07\n        /* \"TimeAlly.sol\":32896:32916  stakings[msg.sender] */\n      0x00\n        /* \"TimeAlly.sol\":32905:32915  msg.sender */\n      caller\n        /* \"TimeAlly.sol\":32896:32916  stakings[msg.sender] */\n      0xffffffffffffffffffffffffffffffffffffffff\n      and\n      0xffffffffffffffffffffffffffffffffffffffff\n      and\n      dup2\n      mstore\n      0x20\n      add\n      swap1\n      dup2\n      mstore\n      0x20\n      add\n      0x00\n      keccak256\n        /* \"TimeAlly.sol\":32917:32928  _stakingIds */\n      dup6\n        /* \"TimeAlly.sol\":32929:32930  i */\n      dup4\n        /* \"TimeAlly.sol\":32917:32931  _stakingIds[i] */\n      dup2\n      mload\n      dup2\n      lt\n      tag_450\n      jumpi\n      invalid\n    tag_450:\n      0x20\n      mul\n      0x20\n      add\n      add\n      mload\n        /* \"TimeAlly.sol\":32896:32932  stakings[msg.sender][_stakingIds[i]] */\n      dup2\n      sload\n      dup2\n      lt\n      tag_451\n      jumpi\n      invalid\n    tag_451:\n      swap1\n      0x00\n      mstore\n      keccak256(0x00, 0x20)\n      swap1\n      0x09\n      mul\n      add\n        /* \"TimeAlly.sol\":32896:32945  stakings[msg.sender][_stakingIds[i]].stakingMonth */\n      0x02\n      add\n      sload\n        /* \"TimeAlly.sol\":32868:32945  uint256 stakingStartMonth = stakings[msg.sender][_stakingIds[i]].stakingMonth */\n      swap1\n      pop\n        /* \"TimeAlly.sol\":32964:32985  uint256 stakeEndMonth */\n      0x00\n        /* \"TimeAlly.sol\":33008:33020  stakingPlans */\n      0x05\n        /* \"TimeAlly.sol\":33021:33029  stakings */\n      0x07\n        /* \"TimeAlly.sol\":33021:33041  stakings[msg.sender] */\n      0x00\n        /* \"TimeAlly.sol\":33030:33040  msg.sender */\n      caller\n        /* \"TimeAlly.sol\":33021:33041  stakings[msg.sender] */\n      0xffffffffffffffffffffffffffffffffffffffff\n      and\n      0xffffffffffffffffffffffffffffffffffffffff\n      and\n      dup2\n      mstore\n      0x20\n      add\n      swap1\n      dup2\n      mstore\n      0x20\n      add\n      0x00\n      keccak256\n        /* \"TimeAlly.sol\":33042:33053  _stakingIds */\n      dup8\n        /* \"TimeAlly.sol\":33054:33055  i */\n      dup6\n        /* \"TimeAlly.sol\":33042:33056  _stakingIds[i] */\n      dup2\n      mload\n      dup2\n      lt\n      tag_453\n      jumpi\n      invalid\n    tag_453:\n      0x20\n      mul\n      0x20\n      add\n      add\n      mload\n        /* \"TimeAlly.sol\":33021:33057  stakings[msg.sender][_stakingIds[i]] */\n      dup2\n      sload\n      dup2\n      lt\n      tag_454\n      jumpi\n      invalid\n    tag_454:\n      swap1\n      0x00\n      mstore\n      keccak256(0x00, 0x20)\n      swap1\n      0x09\n      mul\n      add\n        /* \"TimeAlly.sol\":33021:33071  stakings[msg.sender][_stakingIds[i]].stakingPlanId */\n      0x03\n      add\n      sload\n        /* \"TimeAlly.sol\":33008:33072  stakingPlans[stakings[msg.sender][_stakingIds[i]].stakingPlanId] */\n      dup2\n      sload\n      dup2\n      lt\n      tag_456\n      jumpi\n      invalid\n    tag_456:\n      swap1\n      0x00\n      mstore\n      keccak256(0x00, 0x20)\n      swap1\n      0x03\n      mul\n      add\n        /* \"TimeAlly.sol\":33008:33079  stakingPlans[stakings[msg.sender][_stakingIds[i]].stakingPlanId].months */\n      0x00\n      add\n      sload\n        /* \"TimeAlly.sol\":32988:33005  stakingStartMonth */\n      dup3\n        /* \"TimeAlly.sol\":32988:33079  stakingStartMonth + stakingPlans[stakings[msg.sender][_stakingIds[i]].stakingPlanId].months */\n      add\n        /* \"TimeAlly.sol\":32964:33079  uint256 stakeEndMonth = stakingStartMonth + stakingPlans[stakings[msg.sender][_stakingIds[i]].stakingPlanId].months */\n      swap1\n      pop\n        /* \"TimeAlly.sol\":33102:33111  uint256 j */\n      0x00\n        /* \"TimeAlly.sol\":33130:33131  1 */\n      0x01\n        /* \"TimeAlly.sol\":33114:33127  _currentMonth */\n      dup7\n        /* \"TimeAlly.sol\":33114:33131  _currentMonth + 1 */\n      add\n        /* \"TimeAlly.sol\":33102:33131  uint256 j = _currentMonth + 1 */\n      swap1\n      pop\n        /* \"TimeAlly.sol\":33098:33276  for(uint256 j = _currentMonth + 1; j <= stakeEndMonth; j++) {... */\n    tag_458:\n        /* \"TimeAlly.sol\":33138:33151  stakeEndMonth */\n      dup2\n        /* \"TimeAlly.sol\":33133:33134  j */\n      dup2\n        /* \"TimeAlly.sol\":33133:33151  j <= stakeEndMonth */\n      gt\n        /* \"TimeAlly.sol\":33098:33276  for(uint256 j = _currentMonth + 1; j <= stakeEndMonth; j++) {... */\n      tag_459\n      jumpi\n        /* \"TimeAlly.sol\":33205:33257  totalActiveStakings[j].sub(_userStakingsExaEsAmount) */\n      tag_461\n        /* \"TimeAlly.sol\":33232:33256  _userStakingsExaEsAmount */\n      dup6\n        /* \"TimeAlly.sol\":33205:33224  totalActiveStakings */\n      0x0a\n        /* \"TimeAlly.sol\":33205:33227  totalActiveStakings[j] */\n      0x00\n        /* \"TimeAlly.sol\":33225:33226  j */\n      dup5\n        /* \"TimeAlly.sol\":33205:33227  totalActiveStakings[j] */\n      dup2\n      mstore\n      0x20\n      add\n      swap1\n      dup2\n      mstore\n      0x20\n      add\n      0x00\n      keccak256\n      sload\n        /* \"TimeAlly.sol\":33205:33231  totalActiveStakings[j].sub */\n      tag_201\n      swap1\n        /* \"TimeAlly.sol\":33205:33257  totalActiveStakings[j].sub(_userStakingsExaEsAmount) */\n      swap2\n      swap1\n      0xffffffff\n      and\n      jump\t// in\n    tag_461:\n        /* \"TimeAlly.sol\":33180:33199  totalActiveStakings */\n      0x0a\n        /* \"TimeAlly.sol\":33180:33202  totalActiveStakings[j] */\n      0x00\n        /* \"TimeAlly.sol\":33200:33201  j */\n      dup4\n        /* \"TimeAlly.sol\":33180:33202  totalActiveStakings[j] */\n      dup2\n      mstore\n      0x20\n      add\n      swap1\n      dup2\n      mstore\n      0x20\n      add\n      0x00\n      keccak256\n        /* \"TimeAlly.sol\":33180:33257  totalActiveStakings[j] = totalActiveStakings[j].sub(_userStakingsExaEsAmount) */\n      dup2\n      swap1\n      sstore\n      pop\n        /* \"TimeAlly.sol\":33153:33156  j++ */\n      dup1\n      dup1\n      0x01\n      add\n      swap2\n      pop\n      pop\n        /* \"TimeAlly.sol\":33098:33276  for(uint256 j = _currentMonth + 1; j <= stakeEndMonth; j++) {... */\n      jump(tag_458)\n    tag_459:\n      pop\n        /* \"TimeAlly.sol\":33345:33354  uint256 j */\n      0x00\n        /* \"TimeAlly.sol\":33357:33358  1 */\n      0x01\n        /* \"TimeAlly.sol\":33345:33358  uint256 j = 1 */\n      swap1\n      pop\n        /* \"TimeAlly.sol\":33341:33615  for(uint256 j = 1; j <= loanPlans[_loanPlanId].loanMonths; j++) {... */\n    tag_462:\n        /* \"TimeAlly.sol\":33365:33374  loanPlans */\n      0x06\n        /* \"TimeAlly.sol\":33375:33386  _loanPlanId */\n      dup10\n        /* \"TimeAlly.sol\":33365:33387  loanPlans[_loanPlanId] */\n      dup2\n      sload\n      dup2\n      lt\n      tag_465\n      jumpi\n      invalid\n    tag_465:\n      swap1\n      0x00\n      mstore\n      keccak256(0x00, 0x20)\n      swap1\n      0x03\n      mul\n      add\n        /* \"TimeAlly.sol\":33365:33398  loanPlans[_loanPlanId].loanMonths */\n      0x00\n      add\n      sload\n        /* \"TimeAlly.sol\":33360:33361  j */\n      dup2\n        /* \"TimeAlly.sol\":33360:33398  j <= loanPlans[_loanPlanId].loanMonths */\n      gt\n        /* \"TimeAlly.sol\":33341:33615  for(uint256 j = 1; j <= loanPlans[_loanPlanId].loanMonths; j++) {... */\n      tag_463\n      jumpi\n        /* \"TimeAlly.sol\":33504:33508  true */\n      0x01\n        /* \"TimeAlly.sol\":33427:33435  stakings */\n      0x07\n        /* \"TimeAlly.sol\":33427:33447  stakings[msg.sender] */\n      0x00\n        /* \"TimeAlly.sol\":33436:33446  msg.sender */\n      caller\n        /* \"TimeAlly.sol\":33427:33447  stakings[msg.sender] */\n      0xffffffffffffffffffffffffffffffffffffffff\n      and\n      0xffffffffffffffffffffffffffffffffffffffff\n      and\n      dup2\n      mstore\n      0x20\n      add\n      swap1\n      dup2\n      mstore\n      0x20\n      add\n      0x00\n      keccak256\n        /* \"TimeAlly.sol\":33449:33460  _stakingIds */\n      dup9\n        /* \"TimeAlly.sol\":33461:33462  i */\n      dup7\n        /* \"TimeAlly.sol\":33449:33463  _stakingIds[i] */\n      dup2\n      mload\n      dup2\n      lt\n      tag_467\n      jumpi\n      invalid\n    tag_467:\n      0x20\n      mul\n      0x20\n      add\n      add\n      mload\n        /* \"TimeAlly.sol\":33427:33465  stakings[msg.sender][ _stakingIds[i] ] */\n      dup2\n      sload\n      dup2\n      lt\n      tag_468\n      jumpi\n      invalid\n    tag_468:\n      swap1\n      0x00\n      mstore\n      keccak256(0x00, 0x20)\n      swap1\n      0x09\n      mul\n      add\n        /* \"TimeAlly.sol\":33427:33480  stakings[msg.sender][ _stakingIds[i] ].isMonthClaimed */\n      0x07\n      add\n        /* \"TimeAlly.sol\":33427:33501  stakings[msg.sender][ _stakingIds[i] ].isMonthClaimed[ _currentMonth + j ] */\n      0x00\n        /* \"TimeAlly.sol\":33498:33499  j */\n      dup4\n        /* \"TimeAlly.sol\":33482:33495  _currentMonth */\n      dup10\n        /* \"TimeAlly.sol\":33482:33499  _currentMonth + j */\n      add\n        /* \"TimeAlly.sol\":33427:33501  stakings[msg.sender][ _stakingIds[i] ].isMonthClaimed[ _currentMonth + j ] */\n      dup2\n      mstore\n      0x20\n      add\n      swap1\n      dup2\n      mstore\n      0x20\n      add\n      0x00\n      keccak256\n      0x00\n        /* \"TimeAlly.sol\":33427:33508  stakings[msg.sender][ _stakingIds[i] ].isMonthClaimed[ _currentMonth + j ] = true */\n      0x0100\n      exp\n      dup2\n      sload\n      dup2\n      0xff\n      mul\n      not\n      and\n      swap1\n      dup4\n      iszero\n      iszero\n      mul\n      or\n      swap1\n      sstore\n      pop\n        /* \"TimeAlly.sol\":33578:33579  2 */\n      0x02\n        /* \"TimeAlly.sol\":33530:33538  stakings */\n      0x07\n        /* \"TimeAlly.sol\":33530:33550  stakings[msg.sender] */\n      0x00\n        /* \"TimeAlly.sol\":33539:33549  msg.sender */\n      caller\n        /* \"TimeAlly.sol\":33530:33550  stakings[msg.sender] */\n      0xffffffffffffffffffffffffffffffffffffffff\n      and\n      0xffffffffffffffffffffffffffffffffffffffff\n      and\n      dup2\n      mstore\n      0x20\n      add\n      swap1\n      dup2\n      mstore\n      0x20\n      add\n      0x00\n      keccak256\n        /* \"TimeAlly.sol\":33552:33563  _stakingIds */\n      dup9\n        /* \"TimeAlly.sol\":33564:33565  i */\n      dup7\n        /* \"TimeAlly.sol\":33552:33566  _stakingIds[i] */\n      dup2\n      mload\n      dup2\n      lt\n      tag_470\n      jumpi\n      invalid\n    tag_470:\n      0x20\n      mul\n      0x20\n      add\n      add\n      mload\n        /* \"TimeAlly.sol\":33530:33568  stakings[msg.sender][ _stakingIds[i] ] */\n      dup2\n      sload\n      dup2\n      lt\n      tag_471\n      jumpi\n      invalid\n    tag_471:\n      swap1\n      0x00\n      mstore\n      keccak256(0x00, 0x20)\n      swap1\n      0x09\n      mul\n      add\n        /* \"TimeAlly.sol\":33530:33575  stakings[msg.sender][ _stakingIds[i] ].status */\n      0x04\n      add\n        /* \"TimeAlly.sol\":33530:33579  stakings[msg.sender][ _stakingIds[i] ].status = 2 */\n      dup2\n      swap1\n      sstore\n      pop\n        /* \"TimeAlly.sol\":33400:33403  j++ */\n      dup1\n      dup1\n      0x01\n      add\n      swap2\n      pop\n      pop\n        /* \"TimeAlly.sol\":33341:33615  for(uint256 j = 1; j <= loanPlans[_loanPlanId].loanMonths; j++) {... */\n      jump(tag_462)\n    tag_463:\n      pop\n        /* \"TimeAlly.sol\":31904:33629  if( isStakingActive(msg.sender, _stakingIds[i], _currentMonth)... */\n      pop\n      pop\n    tag_441:\n        /* \"TimeAlly.sol\":31884:31887  i++ */\n      dup1\n      dup1\n      0x01\n      add\n      swap2\n      pop\n      pop\n        /* \"TimeAlly.sol\":31841:33639  for(uint256 i = 0; i < _stakingIds.length; i++) {... */\n      jump(tag_415)\n    tag_416:\n      pop\n        /* \"TimeAlly.sol\":33649:33674  uint256 _maxLoaningAmount */\n      0x00\n        /* \"TimeAlly.sol\":33677:33701  _userStakingsExaEsAmount */\n      dup2\n        /* \"TimeAlly.sol\":33649:33701  uint256 _maxLoaningAmount = _userStakingsExaEsAmount */\n      swap1\n      pop\n        /* \"TimeAlly.sol\":33730:33747  _maxLoaningAmount */\n      dup1\n        /* \"TimeAlly.sol\":33715:33727  _exaEsAmount */\n      dup6\n        /* \"TimeAlly.sol\":33715:33747  _exaEsAmount > _maxLoaningAmount */\n      gt\n        /* \"TimeAlly.sol\":33712:33861  if(_exaEsAmount > _maxLoaningAmount) {... */\n      iszero\n      tag_473\n      jumpi\n        /* \"TimeAlly.sol\":33771:33776  false */\n      0x00\n        /* \"TimeAlly.sol\":33763:33850  require(false... */\n      tag_474\n      jumpi\n      0x00\n      dup1\n      revert\n    tag_474:\n        /* \"TimeAlly.sol\":33712:33861  if(_exaEsAmount > _maxLoaningAmount) {... */\n    tag_473:\n        /* \"TimeAlly.sol\":33872:33893  uint256 _loanInterest */\n      0x00\n        /* \"TimeAlly.sol\":33896:33954  _exaEsAmount.mul(loanPlans[_loanPlanId].loanRate).div(100) */\n      tag_475\n        /* \"TimeAlly.sol\":33950:33953  100 */\n      0x64\n        /* \"TimeAlly.sol\":33896:33945  _exaEsAmount.mul(loanPlans[_loanPlanId].loanRate) */\n      tag_476\n        /* \"TimeAlly.sol\":33913:33922  loanPlans */\n      0x06\n        /* \"TimeAlly.sol\":33923:33934  _loanPlanId */\n      dup11\n        /* \"TimeAlly.sol\":33913:33935  loanPlans[_loanPlanId] */\n      dup2\n      sload\n      dup2\n      lt\n      tag_477\n      jumpi\n      invalid\n    tag_477:\n      swap1\n      0x00\n      mstore\n      keccak256(0x00, 0x20)\n      swap1\n      0x03\n      mul\n      add\n        /* \"TimeAlly.sol\":33913:33944  loanPlans[_loanPlanId].loanRate */\n      0x01\n      add\n      sload\n        /* \"TimeAlly.sol\":33896:33908  _exaEsAmount */\n      dup10\n        /* \"TimeAlly.sol\":33896:33912  _exaEsAmount.mul */\n      tag_173\n      swap1\n        /* \"TimeAlly.sol\":33896:33945  _exaEsAmount.mul(loanPlans[_loanPlanId].loanRate) */\n      swap2\n      swap1\n      0xffffffff\n      and\n      jump\t// in\n    tag_476:\n        /* \"TimeAlly.sol\":33896:33949  _exaEsAmount.mul(loanPlans[_loanPlanId].loanRate).div */\n      tag_233\n      swap1\n        /* \"TimeAlly.sol\":33896:33954  _exaEsAmount.mul(loanPlans[_loanPlanId].loanRate).div(100) */\n      swap2\n      swap1\n      0xffffffff\n      and\n      jump\t// in\n    tag_475:\n        /* \"TimeAlly.sol\":33872:33954  uint256 _loanInterest = _exaEsAmount.mul(loanPlans[_loanPlanId].loanRate).div(100) */\n      swap1\n      pop\n        /* \"TimeAlly.sol\":33964:33993  uint256 _loanAmountToTransfer */\n      0x00\n        /* \"TimeAlly.sol\":33996:34027  _exaEsAmount.sub(_loanInterest) */\n      tag_479\n        /* \"TimeAlly.sol\":34013:34026  _loanInterest */\n      dup3\n        /* \"TimeAlly.sol\":33996:34008  _exaEsAmount */\n      dup9\n        /* \"TimeAlly.sol\":33996:34012  _exaEsAmount.sub */\n      tag_201\n      swap1\n        /* \"TimeAlly.sol\":33996:34027  _exaEsAmount.sub(_loanInterest) */\n      swap2\n      swap1\n      0xffffffff\n      and\n      jump\t// in\n    tag_479:\n        /* \"TimeAlly.sol\":33964:34027  uint256 _loanAmountToTransfer = _exaEsAmount.sub(_loanInterest) */\n      swap1\n      pop\n        /* \"TimeAlly.sol\":34047:34052  token */\n      0x02\n      0x00\n      swap1\n      sload\n      swap1\n      0x0100\n      exp\n      swap1\n      div\n      0xffffffffffffffffffffffffffffffffffffffff\n      and\n        /* \"TimeAlly.sol\":34047:34061  token.transfer */\n      0xffffffffffffffffffffffffffffffffffffffff\n      and\n      0xa9059cbb\n        /* \"TimeAlly.sol\":34070:34080  nrtManager */\n      0x03\n      0x00\n      swap1\n      sload\n      swap1\n      0x0100\n      exp\n      swap1\n      div\n      0xffffffffffffffffffffffffffffffffffffffff\n      and\n        /* \"TimeAlly.sol\":34083:34096  _loanInterest */\n      dup5\n        /* \"TimeAlly.sol\":34047:34097  token.transfer(address(nrtManager), _loanInterest) */\n      mload(0x40)\n      dup4\n      0xffffffff\n      and\n      0xe0\n      shl\n      dup2\n      mstore\n      0x04\n      add\n      dup1\n      dup4\n      0xffffffffffffffffffffffffffffffffffffffff\n      and\n      0xffffffffffffffffffffffffffffffffffffffff\n      and\n      dup2\n      mstore\n      0x20\n      add\n      dup3\n      dup2\n      mstore\n      0x20\n      add\n      swap3\n      pop\n      pop\n      pop\n      0x20\n      mload(0x40)\n      dup1\n      dup4\n      sub\n      dup2\n      0x00\n      dup8\n      dup1\n      extcodesize\n      iszero\n        /* \"--CODEGEN--\":8:17   */\n      dup1\n        /* \"--CODEGEN--\":5:7   */\n      iszero\n      tag_480\n      jumpi\n        /* \"--CODEGEN--\":30:31   */\n      0x00\n        /* \"--CODEGEN--\":27:28   */\n      dup1\n        /* \"--CODEGEN--\":20:32   */\n      revert\n        /* \"--CODEGEN--\":5:7   */\n    tag_480:\n        /* \"TimeAlly.sol\":34047:34097  token.transfer(address(nrtManager), _loanInterest) */\n      pop\n      gas\n      call\n      iszero\n        /* \"--CODEGEN--\":8:17   */\n      dup1\n        /* \"--CODEGEN--\":5:7   */\n      iszero\n      tag_481\n      jumpi\n        /* \"--CODEGEN--\":45:61   */\n      returndatasize\n        /* \"--CODEGEN--\":42:43   */\n      0x00\n        /* \"--CODEGEN--\":39:40   */\n      dup1\n        /* \"--CODEGEN--\":24:62   */\n      returndatacopy\n        /* \"--CODEGEN--\":77:93   */\n      returndatasize\n        /* \"--CODEGEN--\":74:75   */\n      0x00\n        /* \"--CODEGEN--\":67:94   */\n      revert\n        /* \"--CODEGEN--\":5:7   */\n    tag_481:\n        /* \"TimeAlly.sol\":34047:34097  token.transfer(address(nrtManager), _loanInterest) */\n      pop\n      pop\n      pop\n      pop\n      mload(0x40)\n      returndatasize\n        /* \"--CODEGEN--\":13:15   */\n      0x20\n        /* \"--CODEGEN--\":8:11   */\n      dup2\n        /* \"--CODEGEN--\":5:16   */\n      lt\n        /* \"--CODEGEN--\":2:4   */\n      iszero\n      tag_482\n      jumpi\n        /* \"--CODEGEN--\":29:30   */\n      0x00\n        /* \"--CODEGEN--\":26:27   */\n      dup1\n        /* \"--CODEGEN--\":19:31   */\n      revert\n        /* \"--CODEGEN--\":2:4   */\n    tag_482:\n        /* \"TimeAlly.sol\":34047:34097  token.transfer(address(nrtManager), _loanInterest) */\n      dup2\n      add\n      swap1\n      dup1\n      dup1\n      mload\n      swap1\n      0x20\n      add\n      swap1\n      swap3\n      swap2\n      swap1\n      pop\n      pop\n      pop\n        /* \"TimeAlly.sol\":34038:34099  require( token.transfer(address(nrtManager), _loanInterest) ) */\n      tag_483\n      jumpi\n      0x00\n      dup1\n      revert\n    tag_483:\n        /* \"TimeAlly.sol\":34118:34128  nrtManager */\n      0x03\n      0x00\n      swap1\n      sload\n      swap1\n      0x0100\n      exp\n      swap1\n      div\n      0xffffffffffffffffffffffffffffffffffffffff\n      and\n        /* \"TimeAlly.sol\":34118:34143  nrtManager.UpdateLuckpool */\n      0xffffffffffffffffffffffffffffffffffffffff\n      and\n      0x382e2aab\n        /* \"TimeAlly.sol\":34144:34157  _loanInterest */\n      dup4\n        /* \"TimeAlly.sol\":34118:34158  nrtManager.UpdateLuckpool(_loanInterest) */\n      mload(0x40)\n      dup3\n      0xffffffff\n      and\n      0xe0\n      shl\n      dup2\n      mstore\n      0x04\n      add\n      dup1\n      dup3\n      dup2\n      mstore\n      0x20\n      add\n      swap2\n      pop\n      pop\n      0x20\n      mload(0x40)\n      dup1\n      dup4\n      sub\n      dup2\n      0x00\n      dup8\n      dup1\n      extcodesize\n      iszero\n        /* \"--CODEGEN--\":8:17   */\n      dup1\n        /* \"--CODEGEN--\":5:7   */\n      iszero\n      tag_484\n      jumpi\n        /* \"--CODEGEN--\":30:31   */\n      0x00\n        /* \"--CODEGEN--\":27:28   */\n      dup1\n        /* \"--CODEGEN--\":20:32   */\n      revert\n        /* \"--CODEGEN--\":5:7   */\n    tag_484:\n        /* \"TimeAlly.sol\":34118:34158  nrtManager.UpdateLuckpool(_loanInterest) */\n      pop\n      gas\n      call\n      iszero\n        /* \"--CODEGEN--\":8:17   */\n      dup1\n        /* \"--CODEGEN--\":5:7   */\n      iszero\n      tag_485\n      jumpi\n        /* \"--CODEGEN--\":45:61   */\n      returndatasize\n        /* \"--CODEGEN--\":42:43   */\n      0x00\n        /* \"--CODEGEN--\":39:40   */\n      dup1\n        /* \"--CODEGEN--\":24:62   */\n      returndatacopy\n        /* \"--CODEGEN--\":77:93   */\n      returndatasize\n        /* \"--CODEGEN--\":74:75   */\n      0x00\n        /* \"--CODEGEN--\":67:94   */\n      revert\n        /* \"--CODEGEN--\":5:7   */\n    tag_485:\n        /* \"TimeAlly.sol\":34118:34158  nrtManager.UpdateLuckpool(_loanInterest) */\n      pop\n      pop\n      pop\n      pop\n      mload(0x40)\n      returndatasize\n        /* \"--CODEGEN--\":13:15   */\n      0x20\n        /* \"--CODEGEN--\":8:11   */\n      dup2\n        /* \"--CODEGEN--\":5:16   */\n      lt\n        /* \"--CODEGEN--\":2:4   */\n      iszero\n      tag_486\n      jumpi\n        /* \"--CODEGEN--\":29:30   */\n      0x00\n        /* \"--CODEGEN--\":26:27   */\n      dup1\n        /* \"--CODEGEN--\":19:31   */\n      revert\n        /* \"--CODEGEN--\":2:4   */\n    tag_486:\n        /* \"TimeAlly.sol\":34118:34158  nrtManager.UpdateLuckpool(_loanInterest) */\n      dup2\n      add\n      swap1\n      dup1\n      dup1\n      mload\n      swap1\n      0x20\n      add\n      swap1\n      swap3\n      swap2\n      swap1\n      pop\n      pop\n      pop\n        /* \"TimeAlly.sol\":34109:34160  require( nrtManager.UpdateLuckpool(_loanInterest) ) */\n      tag_487\n      jumpi\n      0x00\n      dup1\n      revert\n    tag_487:\n        /* \"TimeAlly.sol\":34171:34176  loans */\n      0x08\n        /* \"TimeAlly.sol\":34171:34188  loans[msg.sender] */\n      0x00\n        /* \"TimeAlly.sol\":34177:34187  msg.sender */\n      caller\n        /* \"TimeAlly.sol\":34171:34188  loans[msg.sender] */\n      0xffffffffffffffffffffffffffffffffffffffff\n      and\n      0xffffffffffffffffffffffffffffffffffffffff\n      and\n      dup2\n      mstore\n      0x20\n      add\n      swap1\n      dup2\n      mstore\n      0x20\n      add\n      0x00\n      keccak256\n        /* \"TimeAlly.sol\":34194:34382  Loan({... */\n      mload(0x40)\n      dup1\n      0xa0\n      add\n      0x40\n      mstore\n      dup1\n        /* \"TimeAlly.sol\":34226:34238  _exaEsAmount */\n      dup10\n        /* \"TimeAlly.sol\":34194:34382  Loan({... */\n      dup2\n      mstore\n      0x20\n      add\n        /* \"TimeAlly.sol\":34263:34268  token */\n      0x02\n      0x00\n      swap1\n      sload\n      swap1\n      0x0100\n      exp\n      swap1\n      div\n      0xffffffffffffffffffffffffffffffffffffffff\n      and\n        /* \"TimeAlly.sol\":34263:34272  token.mou */\n      0xffffffffffffffffffffffffffffffffffffffff\n      and\n      0xb81f90f3\n        /* \"TimeAlly.sol\":34263:34274  token.mou() */\n      mload(0x40)\n      dup2\n      0xffffffff\n      and\n      0xe0\n      shl\n      dup2\n      mstore\n      0x04\n      add\n      0x20\n      mload(0x40)\n      dup1\n      dup4\n      sub\n      dup2\n      dup7\n      dup1\n      extcodesize\n      iszero\n        /* \"--CODEGEN--\":8:17   */\n      dup1\n        /* \"--CODEGEN--\":5:7   */\n      iszero\n      tag_488\n      jumpi\n        /* \"--CODEGEN--\":30:31   */\n      0x00\n        /* \"--CODEGEN--\":27:28   */\n      dup1\n        /* \"--CODEGEN--\":20:32   */\n      revert\n        /* \"--CODEGEN--\":5:7   */\n    tag_488:\n        /* \"TimeAlly.sol\":34263:34274  token.mou() */\n      pop\n      gas\n      staticcall\n      iszero\n        /* \"--CODEGEN--\":8:17   */\n      dup1\n        /* \"--CODEGEN--\":5:7   */\n      iszero\n      tag_489\n      jumpi\n        /* \"--CODEGEN--\":45:61   */\n      returndatasize\n        /* \"--CODEGEN--\":42:43   */\n      0x00\n        /* \"--CODEGEN--\":39:40   */\n      dup1\n        /* \"--CODEGEN--\":24:62   */\n      returndatacopy\n        /* \"--CODEGEN--\":77:93   */\n      returndatasize\n        /* \"--CODEGEN--\":74:75   */\n      0x00\n        /* \"--CODEGEN--\":67:94   */\n      revert\n        /* \"--CODEGEN--\":5:7   */\n    tag_489:\n        /* \"TimeAlly.sol\":34263:34274  token.mou() */\n      pop\n      pop\n      pop\n      pop\n      mload(0x40)\n      returndatasize\n        /* \"--CODEGEN--\":13:15   */\n      0x20\n        /* \"--CODEGEN--\":8:11   */\n      dup2\n        /* \"--CODEGEN--\":5:16   */\n      lt\n        /* \"--CODEGEN--\":2:4   */\n      iszero\n      tag_490\n      jumpi\n        /* \"--CODEGEN--\":29:30   */\n      0x00\n        /* \"--CODEGEN--\":26:27   */\n      dup1\n        /* \"--CODEGEN--\":19:31   */\n      revert\n        /* \"--CODEGEN--\":2:4   */\n    tag_490:\n        /* \"TimeAlly.sol\":34263:34274  token.mou() */\n      dup2\n      add\n      swap1\n      dup1\n      dup1\n      mload\n      swap1\n      0x20\n      add\n      swap1\n      swap3\n      swap2\n      swap1\n      pop\n      pop\n      pop\n        /* \"TimeAlly.sol\":34194:34382  Loan({... */\n      dup2\n      mstore\n      0x20\n      add\n        /* \"TimeAlly.sol\":34300:34311  _loanPlanId */\n      dup11\n        /* \"TimeAlly.sol\":34194:34382  Loan({... */\n      dup2\n      mstore\n      0x20\n      add\n        /* \"TimeAlly.sol\":34333:34334  1 */\n      0x01\n        /* \"TimeAlly.sol\":34194:34382  Loan({... */\n      dup2\n      mstore\n      0x20\n      add\n        /* \"TimeAlly.sol\":34360:34371  _stakingIds */\n      dup9\n        /* \"TimeAlly.sol\":34194:34382  Loan({... */\n      dup2\n      mstore\n      pop\n        /* \"TimeAlly.sol\":34171:34383  loans[msg.sender].push(Loan({... */\n      swap1\n      dup1\n        /* \"--CODEGEN--\":39:40   */\n      0x01\n        /* \"--CODEGEN--\":33:36   */\n      dup2\n        /* \"--CODEGEN--\":27:37   */\n      sload\n        /* \"--CODEGEN--\":23:41   */\n      add\n        /* \"--CODEGEN--\":57:67   */\n      dup1\n        /* \"--CODEGEN--\":52:55   */\n      dup3\n        /* \"--CODEGEN--\":45:68   */\n      sstore\n        /* \"--CODEGEN--\":79:89   */\n      dup1\n        /* \"--CODEGEN--\":72:89   */\n      swap2\n      pop\n        /* \"--CODEGEN--\":0:93   */\n      pop\n        /* \"TimeAlly.sol\":34171:34383  loans[msg.sender].push(Loan({... */\n      swap1\n      0x01\n      dup3\n      sub\n      swap1\n      0x00\n      mstore\n      keccak256(0x00, 0x20)\n      swap1\n      0x05\n      mul\n      add\n      0x00\n      swap1\n      swap2\n      swap3\n      swap1\n      swap2\n      swap1\n      swap2\n      pop\n      0x00\n      dup3\n      add\n      mload\n      dup2\n      0x00\n      add\n      sstore\n      0x20\n      dup3\n      add\n      mload\n      dup2\n      0x01\n      add\n      sstore\n      0x40\n      dup3\n      add\n      mload\n      dup2\n      0x02\n      add\n      sstore\n      0x60\n      dup3\n      add\n      mload\n      dup2\n      0x03\n      add\n      sstore\n      0x80\n      dup3\n      add\n      mload\n      dup2\n      0x04\n      add\n      swap1\n      dup1\n      mload\n      swap1\n      0x20\n      add\n      swap1\n      tag_492\n      swap3\n      swap2\n      swap1\n      tag_493\n      jump\t// in\n    tag_492:\n      pop\n      pop\n      pop\n      pop\n        /* \"TimeAlly.sol\":34436:34441  token */\n      0x02\n      0x00\n      swap1\n      sload\n      swap1\n      0x0100\n      exp\n      swap1\n      div\n      0xffffffffffffffffffffffffffffffffffffffff\n      and\n        /* \"TimeAlly.sol\":34436:34450  token.transfer */\n      0xffffffffffffffffffffffffffffffffffffffff\n      and\n      0xa9059cbb\n        /* \"TimeAlly.sol\":34451:34461  msg.sender */\n      caller\n        /* \"TimeAlly.sol\":34463:34484  _loanAmountToTransfer */\n      dup4\n        /* \"TimeAlly.sol\":34436:34485  token.transfer(msg.sender, _loanAmountToTransfer) */\n      mload(0x40)\n      dup4\n      0xffffffff\n      and\n      0xe0\n      shl\n      dup2\n      mstore\n      0x04\n      add\n      dup1\n      dup4\n      0xffffffffffffffffffffffffffffffffffffffff\n      and\n      0xffffffffffffffffffffffffffffffffffffffff\n      and\n      dup2\n      mstore\n      0x20\n      add\n      dup3\n      dup2\n      mstore\n      0x20\n      add\n      swap3\n      pop\n      pop\n      pop\n      0x20\n      mload(0x40)\n      dup1\n      dup4\n      sub\n      dup2\n      0x00\n      dup8\n      dup1\n      extcodesize\n      iszero\n        /* \"--CODEGEN--\":8:17   */\n      dup1\n        /* \"--CODEGEN--\":5:7   */\n      iszero\n      tag_494\n      jumpi\n        /* \"--CODEGEN--\":30:31   */\n      0x00\n        /* \"--CODEGEN--\":27:28   */\n      dup1\n        /* \"--CODEGEN--\":20:32   */\n      revert\n        /* \"--CODEGEN--\":5:7   */\n    tag_494:\n        /* \"TimeAlly.sol\":34436:34485  token.transfer(msg.sender, _loanAmountToTransfer) */\n      pop\n      gas\n      call\n      iszero\n        /* \"--CODEGEN--\":8:17   */\n      dup1\n        /* \"--CODEGEN--\":5:7   */\n      iszero\n      tag_495\n      jumpi\n        /* \"--CODEGEN--\":45:61   */\n      returndatasize\n        /* \"--CODEGEN--\":42:43   */\n      0x00\n        /* \"--CODEGEN--\":39:40   */\n      dup1\n        /* \"--CODEGEN--\":24:62   */\n      returndatacopy\n        /* \"--CODEGEN--\":77:93   */\n      returndatasize\n        /* \"--CODEGEN--\":74:75   */\n      0x00\n        /* \"--CODEGEN--\":67:94   */\n      revert\n        /* \"--CODEGEN--\":5:7   */\n    tag_495:\n        /* \"TimeAlly.sol\":34436:34485  token.transfer(msg.sender, _loanAmountToTransfer) */\n      pop\n      pop\n      pop\n      pop\n      mload(0x40)\n      returndatasize\n        /* \"--CODEGEN--\":13:15   */\n      0x20\n        /* \"--CODEGEN--\":8:11   */\n      dup2\n        /* \"--CODEGEN--\":5:16   */\n      lt\n        /* \"--CODEGEN--\":2:4   */\n      iszero\n      tag_496\n      jumpi\n        /* \"--CODEGEN--\":29:30   */\n      0x00\n        /* \"--CODEGEN--\":26:27   */\n      dup1\n        /* \"--CODEGEN--\":19:31   */\n      revert\n        /* \"--CODEGEN--\":2:4   */\n    tag_496:\n        /* \"TimeAlly.sol\":34436:34485  token.transfer(msg.sender, _loanAmountToTransfer) */\n      dup2\n      add\n      swap1\n      dup1\n      dup1\n      mload\n      swap1\n      0x20\n      add\n      swap1\n      swap3\n      swap2\n      swap1\n      pop\n      pop\n      pop\n        /* \"TimeAlly.sol\":34427:34487  require( token.transfer(msg.sender, _loanAmountToTransfer) ) */\n      tag_497\n      jumpi\n      0x00\n      dup1\n      revert\n    tag_497:\n        /* \"TimeAlly.sol\":34523:34534  _loanPlanId */\n      dup8\n        /* \"TimeAlly.sol\":34511:34521  msg.sender */\n      caller\n        /* \"TimeAlly.sol\":34503:34594  NewLoan(msg.sender, _loanPlanId, _exaEsAmount, _loanInterest, loans[msg.sender].length - 1) */\n      0xffffffffffffffffffffffffffffffffffffffff\n      and\n      0x583f4a449110798c282200ea42774808b8147fa4bcb89a6ca406dd0650e034e7\n        /* \"TimeAlly.sol\":34536:34548  _exaEsAmount */\n      dup10\n        /* \"TimeAlly.sol\":34550:34563  _loanInterest */\n      dup6\n        /* \"TimeAlly.sol\":34592:34593  1 */\n      0x01\n        /* \"TimeAlly.sol\":34565:34570  loans */\n      0x08\n        /* \"TimeAlly.sol\":34565:34582  loans[msg.sender] */\n      0x00\n        /* \"TimeAlly.sol\":34571:34581  msg.sender */\n      caller\n        /* \"TimeAlly.sol\":34565:34582  loans[msg.sender] */\n      0xffffffffffffffffffffffffffffffffffffffff\n      and\n      0xffffffffffffffffffffffffffffffffffffffff\n      and\n      dup2\n      mstore\n      0x20\n      add\n      swap1\n      dup2\n      mstore\n      0x20\n      add\n      0x00\n      keccak256\n        /* \"TimeAlly.sol\":34565:34589  loans[msg.sender].length */\n      dup1\n      sload\n      swap1\n      pop\n        /* \"TimeAlly.sol\":34565:34593  loans[msg.sender].length - 1 */\n      sub\n        /* \"TimeAlly.sol\":34503:34594  NewLoan(msg.sender, _loanPlanId, _exaEsAmount, _loanInterest, loans[msg.sender].length - 1) */\n      mload(0x40)\n      dup1\n      dup5\n      dup2\n      mstore\n      0x20\n      add\n      dup4\n      dup2\n      mstore\n      0x20\n      add\n      dup3\n      dup2\n      mstore\n      0x20\n      add\n      swap4\n      pop\n      pop\n      pop\n      pop\n      mload(0x40)\n      dup1\n      swap2\n      sub\n      swap1\n      log3\n        /* \"TimeAlly.sol\":31398:34601  function takeLoanOnSelfStaking(uint256 _loanPlanId, uint256 _exaEsAmount, uint256[] memory _stakingIds) public {... */\n      pop\n      pop\n      pop\n      pop\n      pop\n      pop\n      pop\n      pop\n      jump\t// out\n        /* \"TimeAlly.sol\":6586:7034  function createLoanPlan(uint256 _loanMonths, uint256 _loanRate, uint256 _maxLoanAmountPercent) public onlyOwner {... */\n    tag_125:\n        /* \"TimeAlly.sol\":4425:4430  owner */\n      0x01\n      0x00\n      swap1\n      sload\n      swap1\n      0x0100\n      exp\n      swap1\n      div\n      0xffffffffffffffffffffffffffffffffffffffff\n      and\n        /* \"TimeAlly.sol\":4411:4430  msg.sender == owner */\n      0xffffffffffffffffffffffffffffffffffffffff\n      and\n        /* \"TimeAlly.sol\":4411:4421  msg.sender */\n      caller\n        /* \"TimeAlly.sol\":4411:4430  msg.sender == owner */\n      0xffffffffffffffffffffffffffffffffffffffff\n      and\n      eq\n        /* \"TimeAlly.sol\":4392:4480  require(... */\n      tag_499\n      jumpi\n      0x00\n      dup1\n      revert\n    tag_499:\n        /* \"TimeAlly.sol\":6741:6744  100 */\n      0x64\n        /* \"TimeAlly.sol\":6716:6737  _maxLoanAmountPercent */\n      dup2\n        /* \"TimeAlly.sol\":6716:6744  _maxLoanAmountPercent <= 100 */\n      gt\n      iszero\n        /* \"TimeAlly.sol\":6708:6854  require(_maxLoanAmountPercent <= 100... */\n      tag_501\n      jumpi\n      0x00\n      dup1\n      revert\n    tag_501:\n        /* \"TimeAlly.sol\":6864:6873  loanPlans */\n      0x06\n        /* \"TimeAlly.sol\":6879:7026  LoanPlan({... */\n      mload(0x40)\n      dup1\n      0x60\n      add\n      0x40\n      mstore\n      dup1\n        /* \"TimeAlly.sol\":6914:6925  _loanMonths */\n      dup6\n        /* \"TimeAlly.sol\":6879:7026  LoanPlan({... */\n      dup2\n      mstore\n      0x20\n      add\n        /* \"TimeAlly.sol\":6949:6958  _loanRate */\n      dup5\n        /* \"TimeAlly.sol\":6879:7026  LoanPlan({... */\n      dup2\n      mstore\n      0x20\n      add\n        /* \"TimeAlly.sol\":6994:7015  _maxLoanAmountPercent */\n      dup4\n        /* \"TimeAlly.sol\":6879:7026  LoanPlan({... */\n      dup2\n      mstore\n      pop\n        /* \"TimeAlly.sol\":6864:7027  loanPlans.push(LoanPlan({... */\n      swap1\n      dup1\n        /* \"--CODEGEN--\":39:40   */\n      0x01\n        /* \"--CODEGEN--\":33:36   */\n      dup2\n        /* \"--CODEGEN--\":27:37   */\n      sload\n        /* \"--CODEGEN--\":23:41   */\n      add\n        /* \"--CODEGEN--\":57:67   */\n      dup1\n        /* \"--CODEGEN--\":52:55   */\n      dup3\n        /* \"--CODEGEN--\":45:68   */\n      sstore\n        /* \"--CODEGEN--\":79:89   */\n      dup1\n        /* \"--CODEGEN--\":72:89   */\n      swap2\n      pop\n        /* \"--CODEGEN--\":0:93   */\n      pop\n        /* \"TimeAlly.sol\":6864:7027  loanPlans.push(LoanPlan({... */\n      swap1\n      0x01\n      dup3\n      sub\n      swap1\n      0x00\n      mstore\n      keccak256(0x00, 0x20)\n      swap1\n      0x03\n      mul\n      add\n      0x00\n      swap1\n      swap2\n      swap3\n      swap1\n      swap2\n      swap1\n      swap2\n      pop\n      0x00\n      dup3\n      add\n      mload\n      dup2\n      0x00\n      add\n      sstore\n      0x20\n      dup3\n      add\n      mload\n      dup2\n      0x01\n      add\n      sstore\n      0x40\n      dup3\n      add\n      mload\n      dup2\n      0x02\n      add\n      sstore\n      pop\n      pop\n      pop\n        /* \"TimeAlly.sol\":6586:7034  function createLoanPlan(uint256 _loanMonths, uint256 _loanRate, uint256 _maxLoanAmountPercent) public onlyOwner {... */\n      pop\n      pop\n      pop\n      jump\t// out\n        /* \"TimeAlly.sol\":13654:14984  function isStakingActive(... */\n    tag_128:\n        /* \"TimeAlly.sol\":13790:13794  bool */\n      0x00\n        /* \"TimeAlly.sol\":14085:14093  _atMonth */\n      dup2\n        /* \"TimeAlly.sol\":14080:14081  1 */\n      0x01\n        /* \"TimeAlly.sol\":14030:14038  stakings */\n      0x07\n        /* \"TimeAlly.sol\":14030:14052  stakings[_userAddress] */\n      0x00\n        /* \"TimeAlly.sol\":14039:14051  _userAddress */\n      dup8\n        /* \"TimeAlly.sol\":14030:14052  stakings[_userAddress] */\n      0xffffffffffffffffffffffffffffffffffffffff\n      and\n      0xffffffffffffffffffffffffffffffffffffffff\n      and\n      dup2\n      mstore\n      0x20\n      add\n      swap1\n      dup2\n      mstore\n      0x20\n      add\n      0x00\n      keccak256\n        /* \"TimeAlly.sol\":14053:14063  _stakingId */\n      dup6\n        /* \"TimeAlly.sol\":14030:14064  stakings[_userAddress][_stakingId] */\n      dup2\n      sload\n      dup2\n      lt\n      tag_504\n      jumpi\n      invalid\n    tag_504:\n      swap1\n      0x00\n      mstore\n      keccak256(0x00, 0x20)\n      swap1\n      0x09\n      mul\n      add\n        /* \"TimeAlly.sol\":14030:14077  stakings[_userAddress][_stakingId].stakingMonth */\n      0x02\n      add\n      sload\n        /* \"TimeAlly.sol\":14030:14081  stakings[_userAddress][_stakingId].stakingMonth + 1 */\n      add\n        /* \"TimeAlly.sol\":14030:14093  stakings[_userAddress][_stakingId].stakingMonth + 1 <= _atMonth */\n      gt\n      iszero\n        /* \"TimeAlly.sol\":14030:14317  stakings[_userAddress][_stakingId].stakingMonth + 1 <= _atMonth... */\n      dup1\n      iszero\n      tag_506\n      jumpi\n      pop\n        /* \"TimeAlly.sol\":14309:14317  _atMonth */\n      dup2\n        /* \"TimeAlly.sol\":14234:14246  stakingPlans */\n      0x05\n        /* \"TimeAlly.sol\":14248:14256  stakings */\n      0x07\n        /* \"TimeAlly.sol\":14248:14270  stakings[_userAddress] */\n      0x00\n        /* \"TimeAlly.sol\":14257:14269  _userAddress */\n      dup8\n        /* \"TimeAlly.sol\":14248:14270  stakings[_userAddress] */\n      0xffffffffffffffffffffffffffffffffffffffff\n      and\n      0xffffffffffffffffffffffffffffffffffffffff\n      and\n      dup2\n      mstore\n      0x20\n      add\n      swap1\n      dup2\n      mstore\n      0x20\n      add\n      0x00\n      keccak256\n        /* \"TimeAlly.sol\":14271:14281  _stakingId */\n      dup6\n        /* \"TimeAlly.sol\":14248:14282  stakings[_userAddress][_stakingId] */\n      dup2\n      sload\n      dup2\n      lt\n      tag_507\n      jumpi\n      invalid\n    tag_507:\n      swap1\n      0x00\n      mstore\n      keccak256(0x00, 0x20)\n      swap1\n      0x09\n      mul\n      add\n        /* \"TimeAlly.sol\":14248:14296  stakings[_userAddress][_stakingId].stakingPlanId */\n      0x03\n      add\n      sload\n        /* \"TimeAlly.sol\":14234:14298  stakingPlans[ stakings[_userAddress][_stakingId].stakingPlanId ] */\n      dup2\n      sload\n      dup2\n      lt\n      tag_509\n      jumpi\n      invalid\n    tag_509:\n      swap1\n      0x00\n      mstore\n      keccak256(0x00, 0x20)\n      swap1\n      0x03\n      mul\n      add\n        /* \"TimeAlly.sol\":14234:14305  stakingPlans[ stakings[_userAddress][_stakingId].stakingPlanId ].months */\n      0x00\n      add\n      sload\n        /* \"TimeAlly.sol\":14184:14192  stakings */\n      0x07\n        /* \"TimeAlly.sol\":14184:14206  stakings[_userAddress] */\n      0x00\n        /* \"TimeAlly.sol\":14193:14205  _userAddress */\n      dup8\n        /* \"TimeAlly.sol\":14184:14206  stakings[_userAddress] */\n      0xffffffffffffffffffffffffffffffffffffffff\n      and\n      0xffffffffffffffffffffffffffffffffffffffff\n      and\n      dup2\n      mstore\n      0x20\n      add\n      swap1\n      dup2\n      mstore\n      0x20\n      add\n      0x00\n      keccak256\n        /* \"TimeAlly.sol\":14207:14217  _stakingId */\n      dup6\n        /* \"TimeAlly.sol\":14184:14218  stakings[_userAddress][_stakingId] */\n      dup2\n      sload\n      dup2\n      lt\n      tag_511\n      jumpi\n      invalid\n    tag_511:\n      swap1\n      0x00\n      mstore\n      keccak256(0x00, 0x20)\n      swap1\n      0x09\n      mul\n      add\n        /* \"TimeAlly.sol\":14184:14231  stakings[_userAddress][_stakingId].stakingMonth */\n      0x02\n      add\n      sload\n        /* \"TimeAlly.sol\":14184:14305  stakings[_userAddress][_stakingId].stakingMonth + stakingPlans[ stakings[_userAddress][_stakingId].stakingPlanId ].months */\n      add\n        /* \"TimeAlly.sol\":14184:14317  stakings[_userAddress][_stakingId].stakingMonth + stakingPlans[ stakings[_userAddress][_stakingId].stakingPlanId ].months >= _atMonth */\n      lt\n      iszero\n        /* \"TimeAlly.sol\":14030:14317  stakings[_userAddress][_stakingId].stakingMonth + 1 <= _atMonth... */\n    tag_506:\n        /* \"TimeAlly.sol\":14030:14435  stakings[_userAddress][_stakingId].stakingMonth + 1 <= _atMonth... */\n      dup1\n      iszero\n      tag_513\n      jumpi\n      pop\n        /* \"TimeAlly.sol\":14434:14435  1 */\n      0x01\n        /* \"TimeAlly.sol\":14389:14397  stakings */\n      0x07\n        /* \"TimeAlly.sol\":14389:14411  stakings[_userAddress] */\n      0x00\n        /* \"TimeAlly.sol\":14398:14410  _userAddress */\n      dup7\n        /* \"TimeAlly.sol\":14389:14411  stakings[_userAddress] */\n      0xffffffffffffffffffffffffffffffffffffffff\n      and\n      0xffffffffffffffffffffffffffffffffffffffff\n      and\n      dup2\n      mstore\n      0x20\n      add\n      swap1\n      dup2\n      mstore\n      0x20\n      add\n      0x00\n      keccak256\n        /* \"TimeAlly.sol\":14412:14422  _stakingId */\n      dup5\n        /* \"TimeAlly.sol\":14389:14423  stakings[_userAddress][_stakingId] */\n      dup2\n      sload\n      dup2\n      lt\n      tag_514\n      jumpi\n      invalid\n    tag_514:\n      swap1\n      0x00\n      mstore\n      keccak256(0x00, 0x20)\n      swap1\n      0x09\n      mul\n      add\n        /* \"TimeAlly.sol\":14389:14430  stakings[_userAddress][_stakingId].status */\n      0x04\n      add\n      sload\n        /* \"TimeAlly.sol\":14389:14435  stakings[_userAddress][_stakingId].status == 1 */\n      eq\n        /* \"TimeAlly.sol\":14030:14435  stakings[_userAddress][_stakingId].stakingMonth + 1 <= _atMonth... */\n    tag_513:\n        /* \"TimeAlly.sol\":14030:14963  stakings[_userAddress][_stakingId].stakingMonth + 1 <= _atMonth... */\n      dup1\n      iszero\n      tag_516\n      jumpi\n      pop\n        /* \"TimeAlly.sol\":14616:14624  _atMonth */\n      dup2\n        /* \"TimeAlly.sol\":14595:14612  getCurrentMonth() */\n      tag_517\n        /* \"TimeAlly.sol\":14595:14610  getCurrentMonth */\n      tag_133\n        /* \"TimeAlly.sol\":14595:14612  getCurrentMonth() */\n      jump\t// in\n    tag_517:\n        /* \"TimeAlly.sol\":14595:14624  getCurrentMonth() != _atMonth */\n      eq\n      iszero\n        /* \"TimeAlly.sol\":14595:14947  getCurrentMonth() != _atMonth... */\n      dup1\n      tag_518\n      jumpi\n      pop\n        /* \"TimeAlly.sol\":14657:14947  stakings[_userAddress][_stakingId].timestamp... */\n      tag_519\n        /* \"TimeAlly.sol\":14762:14919  getCurrentMonth()... */\n      tag_520\n        /* \"TimeAlly.sol\":14899:14918  earthSecondsInMonth */\n      sload(0x04)\n        /* \"TimeAlly.sol\":14762:14863  getCurrentMonth()... */\n      tag_521\n        /* \"TimeAlly.sol\":14815:14823  stakings */\n      0x07\n        /* \"TimeAlly.sol\":14815:14837  stakings[_userAddress] */\n      0x00\n        /* \"TimeAlly.sol\":14824:14836  _userAddress */\n      dup10\n        /* \"TimeAlly.sol\":14815:14837  stakings[_userAddress] */\n      0xffffffffffffffffffffffffffffffffffffffff\n      and\n      0xffffffffffffffffffffffffffffffffffffffff\n      and\n      dup2\n      mstore\n      0x20\n      add\n      swap1\n      dup2\n      mstore\n      0x20\n      add\n      0x00\n      keccak256\n        /* \"TimeAlly.sol\":14838:14848  _stakingId */\n      dup8\n        /* \"TimeAlly.sol\":14815:14849  stakings[_userAddress][_stakingId] */\n      dup2\n      sload\n      dup2\n      lt\n      tag_522\n      jumpi\n      invalid\n    tag_522:\n      swap1\n      0x00\n      mstore\n      keccak256(0x00, 0x20)\n      swap1\n      0x09\n      mul\n      add\n        /* \"TimeAlly.sol\":14815:14862  stakings[_userAddress][_stakingId].stakingMonth */\n      0x02\n      add\n      sload\n        /* \"TimeAlly.sol\":14762:14779  getCurrentMonth() */\n      tag_524\n        /* \"TimeAlly.sol\":14762:14777  getCurrentMonth */\n      tag_133\n        /* \"TimeAlly.sol\":14762:14779  getCurrentMonth() */\n      jump\t// in\n    tag_524:\n        /* \"TimeAlly.sol\":14762:14814  getCurrentMonth()... */\n      tag_201\n      swap1\n        /* \"TimeAlly.sol\":14762:14863  getCurrentMonth()... */\n      swap2\n      swap1\n      0xffffffff\n      and\n      jump\t// in\n    tag_521:\n        /* \"TimeAlly.sol\":14762:14898  getCurrentMonth()... */\n      tag_173\n      swap1\n        /* \"TimeAlly.sol\":14762:14919  getCurrentMonth()... */\n      swap2\n      swap1\n      0xffffffff\n      and\n      jump\t// in\n    tag_520:\n        /* \"TimeAlly.sol\":14657:14665  stakings */\n      0x07\n        /* \"TimeAlly.sol\":14657:14679  stakings[_userAddress] */\n      0x00\n        /* \"TimeAlly.sol\":14666:14678  _userAddress */\n      dup8\n        /* \"TimeAlly.sol\":14657:14679  stakings[_userAddress] */\n      0xffffffffffffffffffffffffffffffffffffffff\n      and\n      0xffffffffffffffffffffffffffffffffffffffff\n      and\n      dup2\n      mstore\n      0x20\n      add\n      swap1\n      dup2\n      mstore\n      0x20\n      add\n      0x00\n      keccak256\n        /* \"TimeAlly.sol\":14680:14690  _stakingId */\n      dup6\n        /* \"TimeAlly.sol\":14657:14691  stakings[_userAddress][_stakingId] */\n      dup2\n      sload\n      dup2\n      lt\n      tag_525\n      jumpi\n      invalid\n    tag_525:\n      swap1\n      0x00\n      mstore\n      keccak256(0x00, 0x20)\n      swap1\n      0x09\n      mul\n      add\n        /* \"TimeAlly.sol\":14657:14701  stakings[_userAddress][_stakingId].timestamp */\n      0x01\n      add\n      sload\n        /* \"TimeAlly.sol\":14657:14732  stakings[_userAddress][_stakingId].timestamp... */\n      tag_195\n      swap1\n        /* \"TimeAlly.sol\":14657:14947  stakings[_userAddress][_stakingId].timestamp... */\n      swap2\n      swap1\n      0xffffffff\n      and\n      jump\t// in\n    tag_519:\n        /* \"TimeAlly.sol\":14642:14647  token */\n      0x02\n      0x00\n      swap1\n      sload\n      swap1\n      0x0100\n      exp\n      swap1\n      div\n      0xffffffffffffffffffffffffffffffffffffffff\n      and\n        /* \"TimeAlly.sol\":14642:14651  token.mou */\n      0xffffffffffffffffffffffffffffffffffffffff\n      and\n      0xb81f90f3\n        /* \"TimeAlly.sol\":14642:14653  token.mou() */\n      mload(0x40)\n      dup2\n      0xffffffff\n      and\n      0xe0\n      shl\n      dup2\n      mstore\n      0x04\n      add\n      0x20\n      mload(0x40)\n      dup1\n      dup4\n      sub\n      dup2\n      dup7\n      dup1\n      extcodesize\n      iszero\n        /* \"--CODEGEN--\":8:17   */\n      dup1\n        /* \"--CODEGEN--\":5:7   */\n      iszero\n      tag_527\n      jumpi\n        /* \"--CODEGEN--\":30:31   */\n      0x00\n        /* \"--CODEGEN--\":27:28   */\n      dup1\n        /* \"--CODEGEN--\":20:32   */\n      revert\n        /* \"--CODEGEN--\":5:7   */\n    tag_527:\n        /* \"TimeAlly.sol\":14642:14653  token.mou() */\n      pop\n      gas\n      staticcall\n      iszero\n        /* \"--CODEGEN--\":8:17   */\n      dup1\n        /* \"--CODEGEN--\":5:7   */\n      iszero\n      tag_528\n      jumpi\n        /* \"--CODEGEN--\":45:61   */\n      returndatasize\n        /* \"--CODEGEN--\":42:43   */\n      0x00\n        /* \"--CODEGEN--\":39:40   */\n      dup1\n        /* \"--CODEGEN--\":24:62   */\n      returndatacopy\n        /* \"--CODEGEN--\":77:93   */\n      returndatasize\n        /* \"--CODEGEN--\":74:75   */\n      0x00\n        /* \"--CODEGEN--\":67:94   */\n      revert\n        /* \"--CODEGEN--\":5:7   */\n    tag_528:\n        /* \"TimeAlly.sol\":14642:14653  token.mou() */\n      pop\n      pop\n      pop\n      pop\n      mload(0x40)\n      returndatasize\n        /* \"--CODEGEN--\":13:15   */\n      0x20\n        /* \"--CODEGEN--\":8:11   */\n      dup2\n        /* \"--CODEGEN--\":5:16   */\n      lt\n        /* \"--CODEGEN--\":2:4   */\n      iszero\n      tag_529\n      jumpi\n        /* \"--CODEGEN--\":29:30   */\n      0x00\n        /* \"--CODEGEN--\":26:27   */\n      dup1\n        /* \"--CODEGEN--\":19:31   */\n      revert\n        /* \"--CODEGEN--\":2:4   */\n    tag_529:\n        /* \"TimeAlly.sol\":14642:14653  token.mou() */\n      dup2\n      add\n      swap1\n      dup1\n      dup1\n      mload\n      swap1\n      0x20\n      add\n      swap1\n      swap3\n      swap2\n      swap1\n      pop\n      pop\n      pop\n        /* \"TimeAlly.sol\":14642:14947  token.mou() >= stakings[_userAddress][_stakingId].timestamp... */\n      lt\n      iszero\n        /* \"TimeAlly.sol\":14595:14947  getCurrentMonth() != _atMonth... */\n    tag_518:\n        /* \"TimeAlly.sol\":14030:14963  stakings[_userAddress][_stakingId].stakingMonth + 1 <= _atMonth... */\n    tag_516:\n        /* \"TimeAlly.sol\":13934:14977  return (... */\n      swap1\n      pop\n        /* \"TimeAlly.sol\":13654:14984  function isStakingActive(... */\n      swap4\n      swap3\n      pop\n      pop\n      pop\n      jump\t// out\n        /* \"TimeAlly.sol\":11728:13055  function claimLaunchReward(uint256 _stakingPlanId) public {... */\n    tag_131:\n        /* \"TimeAlly.sol\":11957:11958  0 */\n      0x00\n        /* \"TimeAlly.sol\":11930:11942  launchReward */\n      0x09\n        /* \"TimeAlly.sol\":11930:11954  launchReward[msg.sender] */\n      0x00\n        /* \"TimeAlly.sol\":11943:11953  msg.sender */\n      caller\n        /* \"TimeAlly.sol\":11930:11954  launchReward[msg.sender] */\n      0xffffffffffffffffffffffffffffffffffffffff\n      and\n      0xffffffffffffffffffffffffffffffffffffffff\n      and\n      dup2\n      mstore\n      0x20\n      add\n      swap1\n      dup2\n      mstore\n      0x20\n      add\n      0x00\n      keccak256\n      sload\n        /* \"TimeAlly.sol\":11930:11958  launchReward[msg.sender] > 0 */\n      gt\n        /* \"TimeAlly.sol\":11922:12020  require(launchReward[msg.sender] > 0... */\n      tag_531\n      jumpi\n      0x00\n      dup1\n      revert\n    tag_531:\n        /* \"TimeAlly.sol\":12030:12044  uint256 reward */\n      0x00\n        /* \"TimeAlly.sol\":12047:12059  launchReward */\n      0x09\n        /* \"TimeAlly.sol\":12047:12071  launchReward[msg.sender] */\n      0x00\n        /* \"TimeAlly.sol\":12060:12070  msg.sender */\n      caller\n        /* \"TimeAlly.sol\":12047:12071  launchReward[msg.sender] */\n      0xffffffffffffffffffffffffffffffffffffffff\n      and\n      0xffffffffffffffffffffffffffffffffffffffff\n      and\n      dup2\n      mstore\n      0x20\n      add\n      swap1\n      dup2\n      mstore\n      0x20\n      add\n      0x00\n      keccak256\n      sload\n        /* \"TimeAlly.sol\":12030:12071  uint256 reward = launchReward[msg.sender] */\n      swap1\n      pop\n        /* \"TimeAlly.sol\":12108:12109  0 */\n      0x00\n        /* \"TimeAlly.sol\":12081:12093  launchReward */\n      0x09\n        /* \"TimeAlly.sol\":12081:12105  launchReward[msg.sender] */\n      0x00\n        /* \"TimeAlly.sol\":12094:12104  msg.sender */\n      caller\n        /* \"TimeAlly.sol\":12081:12105  launchReward[msg.sender] */\n      0xffffffffffffffffffffffffffffffffffffffff\n      and\n      0xffffffffffffffffffffffffffffffffffffffff\n      and\n      dup2\n      mstore\n      0x20\n      add\n      swap1\n      dup2\n      mstore\n      0x20\n      add\n      0x00\n      keccak256\n        /* \"TimeAlly.sol\":12081:12109  launchReward[msg.sender] = 0 */\n      dup2\n      swap1\n      sstore\n      pop\n        /* \"TimeAlly.sol\":12173:12194  uint256 stakeEndMonth */\n      0x00\n        /* \"TimeAlly.sol\":12217:12229  stakingPlans */\n      0x05\n        /* \"TimeAlly.sol\":12230:12244  _stakingPlanId */\n      dup4\n        /* \"TimeAlly.sol\":12217:12245  stakingPlans[_stakingPlanId] */\n      dup2\n      sload\n      dup2\n      lt\n      tag_532\n      jumpi\n      invalid\n    tag_532:\n      swap1\n      0x00\n      mstore\n      keccak256(0x00, 0x20)\n      swap1\n      0x03\n      mul\n      add\n        /* \"TimeAlly.sol\":12217:12252  stakingPlans[_stakingPlanId].months */\n      0x00\n      add\n      sload\n        /* \"TimeAlly.sol\":12197:12214  getCurrentMonth() */\n      tag_534\n        /* \"TimeAlly.sol\":12197:12212  getCurrentMonth */\n      tag_133\n        /* \"TimeAlly.sol\":12197:12214  getCurrentMonth() */\n      jump\t// in\n    tag_534:\n        /* \"TimeAlly.sol\":12197:12252  getCurrentMonth() + stakingPlans[_stakingPlanId].months */\n      add\n        /* \"TimeAlly.sol\":12173:12252  uint256 stakeEndMonth = getCurrentMonth() + stakingPlans[_stakingPlanId].months */\n      swap1\n      pop\n        /* \"TimeAlly.sol\":12408:12421  uint256 month */\n      0x00\n        /* \"TimeAlly.sol\":12444:12445  1 */\n      0x01\n        /* \"TimeAlly.sol\":12424:12441  getCurrentMonth() */\n      tag_538\n        /* \"TimeAlly.sol\":12424:12439  getCurrentMonth */\n      tag_133\n        /* \"TimeAlly.sol\":12424:12441  getCurrentMonth() */\n      jump\t// in\n    tag_538:\n        /* \"TimeAlly.sol\":12424:12445  getCurrentMonth() + 1 */\n      add\n        /* \"TimeAlly.sol\":12408:12445  uint256 month = getCurrentMonth() + 1 */\n      swap1\n      pop\n        /* \"TimeAlly.sol\":12393:12656  for(... */\n    tag_535:\n        /* \"TimeAlly.sol\":12466:12479  stakeEndMonth */\n      dup2\n        /* \"TimeAlly.sol\":12457:12462  month */\n      dup2\n        /* \"TimeAlly.sol\":12457:12479  month <= stakeEndMonth */\n      gt\n        /* \"TimeAlly.sol\":12393:12656  for(... */\n      tag_536\n      jumpi\n        /* \"TimeAlly.sol\":12581:12587  reward */\n      dup3\n        /* \"TimeAlly.sol\":12552:12571  totalActiveStakings */\n      0x0a\n        /* \"TimeAlly.sol\":12552:12578  totalActiveStakings[month] */\n      0x00\n        /* \"TimeAlly.sol\":12572:12577  month */\n      dup4\n        /* \"TimeAlly.sol\":12552:12578  totalActiveStakings[month] */\n      dup2\n      mstore\n      0x20\n      add\n      swap1\n      dup2\n      mstore\n      0x20\n      add\n      0x00\n      keccak256\n      sload\n        /* \"TimeAlly.sol\":12552:12587  totalActiveStakings[month] + reward */\n      add\n        /* \"TimeAlly.sol\":12523:12542  totalActiveStakings */\n      0x0a\n        /* \"TimeAlly.sol\":12523:12549  totalActiveStakings[month] */\n      0x00\n        /* \"TimeAlly.sol\":12543:12548  month */\n      dup4\n        /* \"TimeAlly.sol\":12523:12549  totalActiveStakings[month] */\n      dup2\n      mstore\n      0x20\n      add\n      swap1\n      dup2\n      mstore\n      0x20\n      add\n      0x00\n      keccak256\n        /* \"TimeAlly.sol\":12523:12587  totalActiveStakings[month] = totalActiveStakings[month] + reward */\n      dup2\n      swap1\n      sstore\n      pop\n        /* \"TimeAlly.sol\":12491:12498  month++ */\n      dup1\n      dup1\n      0x01\n      add\n      swap2\n      pop\n      pop\n        /* \"TimeAlly.sol\":12393:12656  for(... */\n      jump(tag_535)\n    tag_536:\n      pop\n        /* \"TimeAlly.sol\":12666:12674  stakings */\n      0x07\n        /* \"TimeAlly.sol\":12666:12686  stakings[msg.sender] */\n      0x00\n        /* \"TimeAlly.sol\":12675:12685  msg.sender */\n      caller\n        /* \"TimeAlly.sol\":12666:12686  stakings[msg.sender] */\n      0xffffffffffffffffffffffffffffffffffffffff\n      and\n      0xffffffffffffffffffffffffffffffffffffffff\n      and\n      dup2\n      mstore\n      0x20\n      add\n      swap1\n      dup2\n      mstore\n      0x20\n      add\n      0x00\n      keccak256\n        /* \"TimeAlly.sol\":12692:12952  Staking({... */\n      mload(0x40)\n      dup1\n      0xe0\n      add\n      0x40\n      mstore\n      dup1\n        /* \"TimeAlly.sol\":12727:12733  reward */\n      dup5\n        /* \"TimeAlly.sol\":12692:12952  Staking({... */\n      dup2\n      mstore\n      0x20\n      add\n        /* \"TimeAlly.sol\":12758:12763  token */\n      0x02\n      0x00\n      swap1\n      sload\n      swap1\n      0x0100\n      exp\n      swap1\n      div\n      0xffffffffffffffffffffffffffffffffffffffff\n      and\n        /* \"TimeAlly.sol\":12758:12767  token.mou */\n      0xffffffffffffffffffffffffffffffffffffffff\n      and\n      0xb81f90f3\n        /* \"TimeAlly.sol\":12758:12769  token.mou() */\n      mload(0x40)\n      dup2\n      0xffffffff\n      and\n      0xe0\n      shl\n      dup2\n      mstore\n      0x04\n      add\n      0x20\n      mload(0x40)\n      dup1\n      dup4\n      sub\n      dup2\n      dup7\n      dup1\n      extcodesize\n      iszero\n        /* \"--CODEGEN--\":8:17   */\n      dup1\n        /* \"--CODEGEN--\":5:7   */\n      iszero\n      tag_539\n      jumpi\n        /* \"--CODEGEN--\":30:31   */\n      0x00\n        /* \"--CODEGEN--\":27:28   */\n      dup1\n        /* \"--CODEGEN--\":20:32   */\n      revert\n        /* \"--CODEGEN--\":5:7   */\n    tag_539:\n        /* \"TimeAlly.sol\":12758:12769  token.mou() */\n      pop\n      gas\n      staticcall\n      iszero\n        /* \"--CODEGEN--\":8:17   */\n      dup1\n        /* \"--CODEGEN--\":5:7   */\n      iszero\n      tag_540\n      jumpi\n        /* \"--CODEGEN--\":45:61   */\n      returndatasize\n        /* \"--CODEGEN--\":42:43   */\n      0x00\n        /* \"--CODEGEN--\":39:40   */\n      dup1\n        /* \"--CODEGEN--\":24:62   */\n      returndatacopy\n        /* \"--CODEGEN--\":77:93   */\n      returndatasize\n        /* \"--CODEGEN--\":74:75   */\n      0x00\n        /* \"--CODEGEN--\":67:94   */\n      revert\n        /* \"--CODEGEN--\":5:7   */\n    tag_540:\n        /* \"TimeAlly.sol\":12758:12769  token.mou() */\n      pop\n      pop\n      pop\n      pop\n      mload(0x40)\n      returndatasize\n        /* \"--CODEGEN--\":13:15   */\n      0x20\n        /* \"--CODEGEN--\":8:11   */\n      dup2\n        /* \"--CODEGEN--\":5:16   */\n      lt\n        /* \"--CODEGEN--\":2:4   */\n      iszero\n      tag_541\n      jumpi\n        /* \"--CODEGEN--\":29:30   */\n      0x00\n        /* \"--CODEGEN--\":26:27   */\n      dup1\n        /* \"--CODEGEN--\":19:31   */\n      revert\n        /* \"--CODEGEN--\":2:4   */\n    tag_541:\n        /* \"TimeAlly.sol\":12758:12769  token.mou() */\n      dup2\n      add\n      swap1\n      dup1\n      dup1\n      mload\n      swap1\n      0x20\n      add\n      swap1\n      swap3\n      swap2\n      swap1\n      pop\n      pop\n      pop\n        /* \"TimeAlly.sol\":12692:12952  Staking({... */\n      dup2\n      mstore\n      0x20\n      add\n        /* \"TimeAlly.sol\":12797:12814  getCurrentMonth() */\n      tag_542\n        /* \"TimeAlly.sol\":12797:12812  getCurrentMonth */\n      tag_133\n        /* \"TimeAlly.sol\":12797:12814  getCurrentMonth() */\n      jump\t// in\n    tag_542:\n        /* \"TimeAlly.sol\":12692:12952  Staking({... */\n      dup2\n      mstore\n      0x20\n      add\n        /* \"TimeAlly.sol\":12843:12857  _stakingPlanId */\n      dup6\n        /* \"TimeAlly.sol\":12692:12952  Staking({... */\n      dup2\n      mstore\n      0x20\n      add\n        /* \"TimeAlly.sol\":12879:12880  1 */\n      0x01\n        /* \"TimeAlly.sol\":12692:12952  Staking({... */\n      dup2\n      mstore\n      0x20\n      add\n        /* \"TimeAlly.sol\":12902:12903  0 */\n      0x00\n        /* \"TimeAlly.sol\":12692:12952  Staking({... */\n      dup2\n      mstore\n      0x20\n      add\n        /* \"TimeAlly.sol\":12940:12941  0 */\n      0x00\n        /* \"TimeAlly.sol\":12692:12952  Staking({... */\n      dup2\n      mstore\n      pop\n        /* \"TimeAlly.sol\":12666:12953  stakings[msg.sender].push(Staking({... */\n      swap1\n      dup1\n        /* \"--CODEGEN--\":39:40   */\n      0x01\n        /* \"--CODEGEN--\":33:36   */\n      dup2\n        /* \"--CODEGEN--\":27:37   */\n      sload\n        /* \"--CODEGEN--\":23:41   */\n      add\n        /* \"--CODEGEN--\":57:67   */\n      dup1\n        /* \"--CODEGEN--\":52:55   */\n      dup3\n        /* \"--CODEGEN--\":45:68   */\n      sstore\n        /* \"--CODEGEN--\":79:89   */\n      dup1\n        /* \"--CODEGEN--\":72:89   */\n      swap2\n      pop\n        /* \"--CODEGEN--\":0:93   */\n      pop\n        /* \"TimeAlly.sol\":12666:12953  stakings[msg.sender].push(Staking({... */\n      swap1\n      0x01\n      dup3\n      sub\n      swap1\n      0x00\n      mstore\n      keccak256(0x00, 0x20)\n      swap1\n      0x09\n      mul\n      add\n      0x00\n      swap1\n      swap2\n      swap3\n      swap1\n      swap2\n      swap1\n      swap2\n      pop\n      0x00\n      dup3\n      add\n      mload\n      dup2\n      0x00\n      add\n      sstore\n      0x20\n      dup3\n      add\n      mload\n      dup2\n      0x01\n      add\n      sstore\n      0x40\n      dup3\n      add\n      mload\n      dup2\n      0x02\n      add\n      sstore\n      0x60\n      dup3\n      add\n      mload\n      dup2\n      0x03\n      add\n      sstore\n      0x80\n      dup3\n      add\n      mload\n      dup2\n      0x04\n      add\n      sstore\n      0xa0\n      dup3\n      add\n      mload\n      dup2\n      0x05\n      add\n      sstore\n      0xc0\n      dup3\n      add\n      mload\n      dup2\n      0x06\n      add\n      sstore\n      pop\n      pop\n      pop\n        /* \"TimeAlly.sol\":12992:13006  _stakingPlanId */\n      dup3\n        /* \"TimeAlly.sol\":12980:12990  msg.sender */\n      caller\n        /* \"TimeAlly.sol\":12969:13048  NewStaking(msg.sender, _stakingPlanId, reward, stakings[msg.sender].length - 1) */\n      0xffffffffffffffffffffffffffffffffffffffff\n      and\n      0x680a0e2e97ad7c29da7985e37b699f19857c055166f801e50d90661eae30fcc3\n        /* \"TimeAlly.sol\":13008:13014  reward */\n      dup5\n        /* \"TimeAlly.sol\":13046:13047  1 */\n      0x01\n        /* \"TimeAlly.sol\":13016:13024  stakings */\n      0x07\n        /* \"TimeAlly.sol\":13016:13036  stakings[msg.sender] */\n      0x00\n        /* \"TimeAlly.sol\":13025:13035  msg.sender */\n      caller\n        /* \"TimeAlly.sol\":13016:13036  stakings[msg.sender] */\n      0xffffffffffffffffffffffffffffffffffffffff\n      and\n      0xffffffffffffffffffffffffffffffffffffffff\n      and\n      dup2\n      mstore\n      0x20\n      add\n      swap1\n      dup2\n      mstore\n      0x20\n      add\n      0x00\n      keccak256\n        /* \"TimeAlly.sol\":13016:13043  stakings[msg.sender].length */\n      dup1\n      sload\n      swap1\n      pop\n        /* \"TimeAlly.sol\":13016:13047  stakings[msg.sender].length - 1 */\n      sub\n        /* \"TimeAlly.sol\":12969:13048  NewStaking(msg.sender, _stakingPlanId, reward, stakings[msg.sender].length - 1) */\n      mload(0x40)\n      dup1\n      dup4\n      dup2\n      mstore\n      0x20\n      add\n      dup3\n      dup2\n      mstore\n      0x20\n      add\n      swap3\n      pop\n      pop\n      pop\n      mload(0x40)\n      dup1\n      swap2\n      sub\n      swap1\n      log3\n        /* \"TimeAlly.sol\":11728:13055  function claimLaunchReward(uint256 _stakingPlanId) public {... */\n      pop\n      pop\n      pop\n      jump\t// out\n        /* \"TimeAlly.sol\":5335:5445  function getCurrentMonth() public view returns (uint256) {... */\n    tag_133:\n        /* \"TimeAlly.sol\":5383:5390  uint256 */\n      0x00\n        /* \"TimeAlly.sol\":5437:5438  1 */\n      0x01\n        /* \"TimeAlly.sol\":5409:5427  timeAllyMonthlyNRT */\n      0x0b\n        /* \"TimeAlly.sol\":5409:5434  timeAllyMonthlyNRT.length */\n      dup1\n      sload\n      swap1\n      pop\n        /* \"TimeAlly.sol\":5409:5438  timeAllyMonthlyNRT.length - 1 */\n      sub\n        /* \"TimeAlly.sol\":5402:5438  return timeAllyMonthlyNRT.length - 1 */\n      swap1\n      pop\n        /* \"TimeAlly.sol\":5335:5445  function getCurrentMonth() public view returns (uint256) {... */\n      swap1\n      jump\t// out\n        /* \"TimeAlly.sol\":34742:36355  function repayLoanSelf(uint256 _loanId) public {... */\n    tag_136:\n        /* \"TimeAlly.sol\":34844:34845  1 */\n      0x01\n        /* \"TimeAlly.sol\":34807:34812  loans */\n      0x08\n        /* \"TimeAlly.sol\":34807:34824  loans[msg.sender] */\n      0x00\n        /* \"TimeAlly.sol\":34813:34823  msg.sender */\n      caller\n        /* \"TimeAlly.sol\":34807:34824  loans[msg.sender] */\n      0xffffffffffffffffffffffffffffffffffffffff\n      and\n      0xffffffffffffffffffffffffffffffffffffffff\n      and\n      dup2\n      mstore\n      0x20\n      add\n      swap1\n      dup2\n      mstore\n      0x20\n      add\n      0x00\n      keccak256\n        /* \"TimeAlly.sol\":34825:34832  _loanId */\n      dup3\n        /* \"TimeAlly.sol\":34807:34833  loans[msg.sender][_loanId] */\n      dup2\n      sload\n      dup2\n      lt\n      tag_546\n      jumpi\n      invalid\n    tag_546:\n      swap1\n      0x00\n      mstore\n      keccak256(0x00, 0x20)\n      swap1\n      0x05\n      mul\n      add\n        /* \"TimeAlly.sol\":34807:34840  loans[msg.sender][_loanId].status */\n      0x03\n      add\n      sload\n        /* \"TimeAlly.sol\":34807:34845  loans[msg.sender][_loanId].status == 1 */\n      eq\n        /* \"TimeAlly.sol\":34799:34901  require(loans[msg.sender][_loanId].status == 1... */\n      tag_548\n      jumpi\n      0x00\n      dup1\n      revert\n    tag_548:\n        /* \"TimeAlly.sol\":35048:35053  token */\n      0x02\n      0x00\n      swap1\n      sload\n      swap1\n      0x0100\n      exp\n      swap1\n      div\n      0xffffffffffffffffffffffffffffffffffffffff\n      and\n        /* \"TimeAlly.sol\":35048:35057  token.mou */\n      0xffffffffffffffffffffffffffffffffffffffff\n      and\n      0xb81f90f3\n        /* \"TimeAlly.sol\":35048:35059  token.mou() */\n      mload(0x40)\n      dup2\n      0xffffffff\n      and\n      0xe0\n      shl\n      dup2\n      mstore\n      0x04\n      add\n      0x20\n      mload(0x40)\n      dup1\n      dup4\n      sub\n      dup2\n      dup7\n      dup1\n      extcodesize\n      iszero\n        /* \"--CODEGEN--\":8:17   */\n      dup1\n        /* \"--CODEGEN--\":5:7   */\n      iszero\n      tag_549\n      jumpi\n        /* \"--CODEGEN--\":30:31   */\n      0x00\n        /* \"--CODEGEN--\":27:28   */\n      dup1\n        /* \"--CODEGEN--\":20:32   */\n      revert\n        /* \"--CODEGEN--\":5:7   */\n    tag_549:\n        /* \"TimeAlly.sol\":35048:35059  token.mou() */\n      pop\n      gas\n      staticcall\n      iszero\n        /* \"--CODEGEN--\":8:17   */\n      dup1\n        /* \"--CODEGEN--\":5:7   */\n      iszero\n      tag_550\n      jumpi\n        /* \"--CODEGEN--\":45:61   */\n      returndatasize\n        /* \"--CODEGEN--\":42:43   */\n      0x00\n        /* \"--CODEGEN--\":39:40   */\n      dup1\n        /* \"--CODEGEN--\":24:62   */\n      returndatacopy\n        /* \"--CODEGEN--\":77:93   */\n      returndatasize\n        /* \"--CODEGEN--\":74:75   */\n      0x00\n        /* \"--CODEGEN--\":67:94   */\n      revert\n        /* \"--CODEGEN--\":5:7   */\n    tag_550:\n        /* \"TimeAlly.sol\":35048:35059  token.mou() */\n      pop\n      pop\n      pop\n      pop\n      mload(0x40)\n      returndatasize\n        /* \"--CODEGEN--\":13:15   */\n      0x20\n        /* \"--CODEGEN--\":8:11   */\n      dup2\n        /* \"--CODEGEN--\":5:16   */\n      lt\n        /* \"--CODEGEN--\":2:4   */\n      iszero\n      tag_551\n      jumpi\n        /* \"--CODEGEN--\":29:30   */\n      0x00\n        /* \"--CODEGEN--\":26:27   */\n      dup1\n        /* \"--CODEGEN--\":19:31   */\n      revert\n        /* \"--CODEGEN--\":2:4   */\n    tag_551:\n        /* \"TimeAlly.sol\":35048:35059  token.mou() */\n      dup2\n      add\n      swap1\n      dup1\n      dup1\n      mload\n      swap1\n      0x20\n      add\n      swap1\n      swap3\n      swap2\n      swap1\n      pop\n      pop\n      pop\n        /* \"TimeAlly.sol\":34959:35045  loanPlans[ loans[msg.sender][_loanId].loanPlanId ].loanMonths.mul(earthSecondsInMonth) */\n      tag_552\n        /* \"TimeAlly.sol\":35025:35044  earthSecondsInMonth */\n      sload(0x04)\n        /* \"TimeAlly.sol\":34959:34968  loanPlans */\n      0x06\n        /* \"TimeAlly.sol\":34970:34975  loans */\n      0x08\n        /* \"TimeAlly.sol\":34970:34987  loans[msg.sender] */\n      0x00\n        /* \"TimeAlly.sol\":34976:34986  msg.sender */\n      caller\n        /* \"TimeAlly.sol\":34970:34987  loans[msg.sender] */\n      0xffffffffffffffffffffffffffffffffffffffff\n      and\n      0xffffffffffffffffffffffffffffffffffffffff\n      and\n      dup2\n      mstore\n      0x20\n      add\n      swap1\n      dup2\n      mstore\n      0x20\n      add\n      0x00\n      keccak256\n        /* \"TimeAlly.sol\":34988:34995  _loanId */\n      dup6\n        /* \"TimeAlly.sol\":34970:34996  loans[msg.sender][_loanId] */\n      dup2\n      sload\n      dup2\n      lt\n      tag_553\n      jumpi\n      invalid\n    tag_553:\n      swap1\n      0x00\n      mstore\n      keccak256(0x00, 0x20)\n      swap1\n      0x05\n      mul\n      add\n        /* \"TimeAlly.sol\":34970:35007  loans[msg.sender][_loanId].loanPlanId */\n      0x02\n      add\n      sload\n        /* \"TimeAlly.sol\":34959:35009  loanPlans[ loans[msg.sender][_loanId].loanPlanId ] */\n      dup2\n      sload\n      dup2\n      lt\n      tag_555\n      jumpi\n      invalid\n    tag_555:\n      swap1\n      0x00\n      mstore\n      keccak256(0x00, 0x20)\n      swap1\n      0x03\n      mul\n      add\n        /* \"TimeAlly.sol\":34959:35020  loanPlans[ loans[msg.sender][_loanId].loanPlanId ].loanMonths */\n      0x00\n      add\n      sload\n        /* \"TimeAlly.sol\":34959:35024  loanPlans[ loans[msg.sender][_loanId].loanPlanId ].loanMonths.mul */\n      tag_173\n      swap1\n        /* \"TimeAlly.sol\":34959:35045  loanPlans[ loans[msg.sender][_loanId].loanPlanId ].loanMonths.mul(earthSecondsInMonth) */\n      swap2\n      swap1\n      0xffffffff\n      and\n      jump\t// in\n    tag_552:\n        /* \"TimeAlly.sol\":34920:34925  loans */\n      0x08\n        /* \"TimeAlly.sol\":34920:34937  loans[msg.sender] */\n      0x00\n        /* \"TimeAlly.sol\":34926:34936  msg.sender */\n      caller\n        /* \"TimeAlly.sol\":34920:34937  loans[msg.sender] */\n      0xffffffffffffffffffffffffffffffffffffffff\n      and\n      0xffffffffffffffffffffffffffffffffffffffff\n      and\n      dup2\n      mstore\n      0x20\n      add\n      swap1\n      dup2\n      mstore\n      0x20\n      add\n      0x00\n      keccak256\n        /* \"TimeAlly.sol\":34938:34945  _loanId */\n      dup4\n        /* \"TimeAlly.sol\":34920:34946  loans[msg.sender][_loanId] */\n      dup2\n      sload\n      dup2\n      lt\n      tag_557\n      jumpi\n      invalid\n    tag_557:\n      swap1\n      0x00\n      mstore\n      keccak256(0x00, 0x20)\n      swap1\n      0x05\n      mul\n      add\n        /* \"TimeAlly.sol\":34920:34956  loans[msg.sender][_loanId].timestamp */\n      0x01\n      add\n      sload\n        /* \"TimeAlly.sol\":34920:35045  loans[msg.sender][_loanId].timestamp + loanPlans[ loans[msg.sender][_loanId].loanPlanId ].loanMonths.mul(earthSecondsInMonth) */\n      add\n        /* \"TimeAlly.sol\":34920:35059  loans[msg.sender][_loanId].timestamp + loanPlans[ loans[msg.sender][_loanId].loanPlanId ].loanMonths.mul(earthSecondsInMonth) > token.mou() */\n      gt\n        /* \"TimeAlly.sol\":34912:35112  require(loans[msg.sender][_loanId].timestamp + loanPlans[ loans[msg.sender][_loanId].loanPlanId ].loanMonths.mul(earthSecondsInMonth) > token.mou()... */\n      tag_559\n      jumpi\n      0x00\n      dup1\n      revert\n    tag_559:\n        /* \"TimeAlly.sol\":35131:35136  token */\n      0x02\n      0x00\n      swap1\n      sload\n      swap1\n      0x0100\n      exp\n      swap1\n      div\n      0xffffffffffffffffffffffffffffffffffffffff\n      and\n        /* \"TimeAlly.sol\":35131:35149  token.transferFrom */\n      0xffffffffffffffffffffffffffffffffffffffff\n      and\n      0x23b872dd\n        /* \"TimeAlly.sol\":35150:35160  msg.sender */\n      caller\n        /* \"TimeAlly.sol\":35170:35174  this */\n      address\n        /* \"TimeAlly.sol\":35177:35182  loans */\n      0x08\n        /* \"TimeAlly.sol\":35177:35194  loans[msg.sender] */\n      0x00\n        /* \"TimeAlly.sol\":35183:35193  msg.sender */\n      caller\n        /* \"TimeAlly.sol\":35177:35194  loans[msg.sender] */\n      0xffffffffffffffffffffffffffffffffffffffff\n      and\n      0xffffffffffffffffffffffffffffffffffffffff\n      and\n      dup2\n      mstore\n      0x20\n      add\n      swap1\n      dup2\n      mstore\n      0x20\n      add\n      0x00\n      keccak256\n        /* \"TimeAlly.sol\":35195:35202  _loanId */\n      dup6\n        /* \"TimeAlly.sol\":35177:35203  loans[msg.sender][_loanId] */\n      dup2\n      sload\n      dup2\n      lt\n      tag_560\n      jumpi\n      invalid\n    tag_560:\n      swap1\n      0x00\n      mstore\n      keccak256(0x00, 0x20)\n      swap1\n      0x05\n      mul\n      add\n        /* \"TimeAlly.sol\":35177:35215  loans[msg.sender][_loanId].exaEsAmount */\n      0x00\n      add\n      sload\n        /* \"TimeAlly.sol\":35131:35216  token.transferFrom(msg.sender, address(this), loans[msg.sender][_loanId].exaEsAmount) */\n      mload(0x40)\n      dup5\n      0xffffffff\n      and\n      0xe0\n      shl\n      dup2\n      mstore\n      0x04\n      add\n      dup1\n      dup5\n      0xffffffffffffffffffffffffffffffffffffffff\n      and\n      0xffffffffffffffffffffffffffffffffffffffff\n      and\n      dup2\n      mstore\n      0x20\n      add\n      dup4\n      0xffffffffffffffffffffffffffffffffffffffff\n      and\n      0xffffffffffffffffffffffffffffffffffffffff\n      and\n      dup2\n      mstore\n      0x20\n      add\n      dup3\n      dup2\n      mstore\n      0x20\n      add\n      swap4\n      pop\n      pop\n      pop\n      pop\n      0x20\n      mload(0x40)\n      dup1\n      dup4\n      sub\n      dup2\n      0x00\n      dup8\n      dup1\n      extcodesize\n      iszero\n        /* \"--CODEGEN--\":8:17   */\n      dup1\n        /* \"--CODEGEN--\":5:7   */\n      iszero\n      tag_562\n      jumpi\n        /* \"--CODEGEN--\":30:31   */\n      0x00\n        /* \"--CODEGEN--\":27:28   */\n      dup1\n        /* \"--CODEGEN--\":20:32   */\n      revert\n        /* \"--CODEGEN--\":5:7   */\n    tag_562:\n        /* \"TimeAlly.sol\":35131:35216  token.transferFrom(msg.sender, address(this), loans[msg.sender][_loanId].exaEsAmount) */\n      pop\n      gas\n      call\n      iszero\n        /* \"--CODEGEN--\":8:17   */\n      dup1\n        /* \"--CODEGEN--\":5:7   */\n      iszero\n      tag_563\n      jumpi\n        /* \"--CODEGEN--\":45:61   */\n      returndatasize\n        /* \"--CODEGEN--\":42:43   */\n      0x00\n        /* \"--CODEGEN--\":39:40   */\n      dup1\n        /* \"--CODEGEN--\":24:62   */\n      returndatacopy\n        /* \"--CODEGEN--\":77:93   */\n      returndatasize\n        /* \"--CODEGEN--\":74:75   */\n      0x00\n        /* \"--CODEGEN--\":67:94   */\n      revert\n        /* \"--CODEGEN--\":5:7   */\n    tag_563:\n        /* \"TimeAlly.sol\":35131:35216  token.transferFrom(msg.sender, address(this), loans[msg.sender][_loanId].exaEsAmount) */\n      pop\n      pop\n      pop\n      pop\n      mload(0x40)\n      returndatasize\n        /* \"--CODEGEN--\":13:15   */\n      0x20\n        /* \"--CODEGEN--\":8:11   */\n      dup2\n        /* \"--CODEGEN--\":5:16   */\n      lt\n        /* \"--CODEGEN--\":2:4   */\n      iszero\n      tag_564\n      jumpi\n        /* \"--CODEGEN--\":29:30   */\n      0x00\n        /* \"--CODEGEN--\":26:27   */\n      dup1\n        /* \"--CODEGEN--\":19:31   */\n      revert\n        /* \"--CODEGEN--\":2:4   */\n    tag_564:\n        /* \"TimeAlly.sol\":35131:35216  token.transferFrom(msg.sender, address(this), loans[msg.sender][_loanId].exaEsAmount) */\n      dup2\n      add\n      swap1\n      dup1\n      dup1\n      mload\n      swap1\n      0x20\n      add\n      swap1\n      swap3\n      swap2\n      swap1\n      pop\n      pop\n      pop\n        /* \"TimeAlly.sol\":35123:35308  require(token.transferFrom(msg.sender, address(this), loans[msg.sender][_loanId].exaEsAmount)... */\n      tag_565\n      jumpi\n      0x00\n      dup1\n      revert\n    tag_565:\n        /* \"TimeAlly.sol\":35355:35356  2 */\n      0x02\n        /* \"TimeAlly.sol\":35319:35324  loans */\n      0x08\n        /* \"TimeAlly.sol\":35319:35336  loans[msg.sender] */\n      0x00\n        /* \"TimeAlly.sol\":35325:35335  msg.sender */\n      caller\n        /* \"TimeAlly.sol\":35319:35336  loans[msg.sender] */\n      0xffffffffffffffffffffffffffffffffffffffff\n      and\n      0xffffffffffffffffffffffffffffffffffffffff\n      and\n      dup2\n      mstore\n      0x20\n      add\n      swap1\n      dup2\n      mstore\n      0x20\n      add\n      0x00\n      keccak256\n        /* \"TimeAlly.sol\":35337:35344  _loanId */\n      dup3\n        /* \"TimeAlly.sol\":35319:35345  loans[msg.sender][_loanId] */\n      dup2\n      sload\n      dup2\n      lt\n      tag_566\n      jumpi\n      invalid\n    tag_566:\n      swap1\n      0x00\n      mstore\n      keccak256(0x00, 0x20)\n      swap1\n      0x05\n      mul\n      add\n        /* \"TimeAlly.sol\":35319:35352  loans[msg.sender][_loanId].status */\n      0x03\n      add\n        /* \"TimeAlly.sol\":35319:35356  loans[msg.sender][_loanId].status = 2 */\n      dup2\n      swap1\n      sstore\n      pop\n        /* \"TimeAlly.sol\":35519:35528  uint256 i */\n      0x00\n        /* \"TimeAlly.sol\":35531:35532  0 */\n      dup1\n        /* \"TimeAlly.sol\":35519:35532  uint256 i = 0 */\n      swap1\n      pop\n        /* \"TimeAlly.sol\":35515:36277  for(uint256 i = 0; i < loans[msg.sender][_loanId].stakingIds.length; i++) {... */\n    tag_568:\n        /* \"TimeAlly.sol\":35538:35543  loans */\n      0x08\n        /* \"TimeAlly.sol\":35538:35555  loans[msg.sender] */\n      0x00\n        /* \"TimeAlly.sol\":35544:35554  msg.sender */\n      caller\n        /* \"TimeAlly.sol\":35538:35555  loans[msg.sender] */\n      0xffffffffffffffffffffffffffffffffffffffff\n      and\n      0xffffffffffffffffffffffffffffffffffffffff\n      and\n      dup2\n      mstore\n      0x20\n      add\n      swap1\n      dup2\n      mstore\n      0x20\n      add\n      0x00\n      keccak256\n        /* \"TimeAlly.sol\":35556:35563  _loanId */\n      dup3\n        /* \"TimeAlly.sol\":35538:35564  loans[msg.sender][_loanId] */\n      dup2\n      sload\n      dup2\n      lt\n      tag_571\n      jumpi\n      invalid\n    tag_571:\n      swap1\n      0x00\n      mstore\n      keccak256(0x00, 0x20)\n      swap1\n      0x05\n      mul\n      add\n        /* \"TimeAlly.sol\":35538:35575  loans[msg.sender][_loanId].stakingIds */\n      0x04\n      add\n        /* \"TimeAlly.sol\":35538:35582  loans[msg.sender][_loanId].stakingIds.length */\n      dup1\n      sload\n      swap1\n      pop\n        /* \"TimeAlly.sol\":35534:35535  i */\n      dup2\n        /* \"TimeAlly.sol\":35534:35582  i < loans[msg.sender][_loanId].stakingIds.length */\n      lt\n        /* \"TimeAlly.sol\":35515:36277  for(uint256 i = 0; i < loans[msg.sender][_loanId].stakingIds.length; i++) {... */\n      iszero\n      tag_569\n      jumpi\n        /* \"TimeAlly.sol\":35603:35621  uint256 _stakingId */\n      0x00\n        /* \"TimeAlly.sol\":35624:35629  loans */\n      0x08\n        /* \"TimeAlly.sol\":35624:35641  loans[msg.sender] */\n      0x00\n        /* \"TimeAlly.sol\":35630:35640  msg.sender */\n      caller\n        /* \"TimeAlly.sol\":35624:35641  loans[msg.sender] */\n      0xffffffffffffffffffffffffffffffffffffffff\n      and\n      0xffffffffffffffffffffffffffffffffffffffff\n      and\n      dup2\n      mstore\n      0x20\n      add\n      swap1\n      dup2\n      mstore\n      0x20\n      add\n      0x00\n      keccak256\n        /* \"TimeAlly.sol\":35642:35649  _loanId */\n      dup4\n        /* \"TimeAlly.sol\":35624:35650  loans[msg.sender][_loanId] */\n      dup2\n      sload\n      dup2\n      lt\n      tag_573\n      jumpi\n      invalid\n    tag_573:\n      swap1\n      0x00\n      mstore\n      keccak256(0x00, 0x20)\n      swap1\n      0x05\n      mul\n      add\n        /* \"TimeAlly.sol\":35624:35661  loans[msg.sender][_loanId].stakingIds */\n      0x04\n      add\n        /* \"TimeAlly.sol\":35662:35663  i */\n      dup3\n        /* \"TimeAlly.sol\":35624:35664  loans[msg.sender][_loanId].stakingIds[i] */\n      dup2\n      sload\n      dup2\n      lt\n      tag_575\n      jumpi\n      invalid\n    tag_575:\n      swap1\n      0x00\n      mstore\n      keccak256(0x00, 0x20)\n      add\n      sload\n        /* \"TimeAlly.sol\":35603:35664  uint256 _stakingId = loans[msg.sender][_loanId].stakingIds[i] */\n      swap1\n      pop\n        /* \"TimeAlly.sol\":35721:35722  1 */\n      0x01\n        /* \"TimeAlly.sol\":35679:35687  stakings */\n      0x07\n        /* \"TimeAlly.sol\":35679:35699  stakings[msg.sender] */\n      0x00\n        /* \"TimeAlly.sol\":35688:35698  msg.sender */\n      caller\n        /* \"TimeAlly.sol\":35679:35699  stakings[msg.sender] */\n      0xffffffffffffffffffffffffffffffffffffffff\n      and\n      0xffffffffffffffffffffffffffffffffffffffff\n      and\n      dup2\n      mstore\n      0x20\n      add\n      swap1\n      dup2\n      mstore\n      0x20\n      add\n      0x00\n      keccak256\n        /* \"TimeAlly.sol\":35700:35710  _stakingId */\n      dup3\n        /* \"TimeAlly.sol\":35679:35711  stakings[msg.sender][_stakingId] */\n      dup2\n      sload\n      dup2\n      lt\n      tag_577\n      jumpi\n      invalid\n    tag_577:\n      swap1\n      0x00\n      mstore\n      keccak256(0x00, 0x20)\n      swap1\n      0x09\n      mul\n      add\n        /* \"TimeAlly.sol\":35679:35718  stakings[msg.sender][_stakingId].status */\n      0x04\n      add\n        /* \"TimeAlly.sol\":35679:35722  stakings[msg.sender][_stakingId].status = 1 */\n      dup2\n      swap1\n      sstore\n      pop\n        /* \"TimeAlly.sol\":35737:35762  uint256 stakingStartMonth */\n      0x00\n        /* \"TimeAlly.sol\":35765:35855  stakings[msg.sender][_stakingId].timestamp.sub(deployedTimestamp).div(earthSecondsInMonth) */\n      tag_579\n        /* \"TimeAlly.sol\":35835:35854  earthSecondsInMonth */\n      sload(0x04)\n        /* \"TimeAlly.sol\":35765:35830  stakings[msg.sender][_stakingId].timestamp.sub(deployedTimestamp) */\n      tag_580\n        /* \"TimeAlly.sol\":35812:35829  deployedTimestamp */\n      sload(0x00)\n        /* \"TimeAlly.sol\":35765:35773  stakings */\n      0x07\n        /* \"TimeAlly.sol\":35765:35785  stakings[msg.sender] */\n      0x00\n        /* \"TimeAlly.sol\":35774:35784  msg.sender */\n      caller\n        /* \"TimeAlly.sol\":35765:35785  stakings[msg.sender] */\n      0xffffffffffffffffffffffffffffffffffffffff\n      and\n      0xffffffffffffffffffffffffffffffffffffffff\n      and\n      dup2\n      mstore\n      0x20\n      add\n      swap1\n      dup2\n      mstore\n      0x20\n      add\n      0x00\n      keccak256\n        /* \"TimeAlly.sol\":35786:35796  _stakingId */\n      dup7\n        /* \"TimeAlly.sol\":35765:35797  stakings[msg.sender][_stakingId] */\n      dup2\n      sload\n      dup2\n      lt\n      tag_581\n      jumpi\n      invalid\n    tag_581:\n      swap1\n      0x00\n      mstore\n      keccak256(0x00, 0x20)\n      swap1\n      0x09\n      mul\n      add\n        /* \"TimeAlly.sol\":35765:35807  stakings[msg.sender][_stakingId].timestamp */\n      0x01\n      add\n      sload\n        /* \"TimeAlly.sol\":35765:35811  stakings[msg.sender][_stakingId].timestamp.sub */\n      tag_201\n      swap1\n        /* \"TimeAlly.sol\":35765:35830  stakings[msg.sender][_stakingId].timestamp.sub(deployedTimestamp) */\n      swap2\n      swap1\n      0xffffffff\n      and\n      jump\t// in\n    tag_580:\n        /* \"TimeAlly.sol\":35765:35834  stakings[msg.sender][_stakingId].timestamp.sub(deployedTimestamp).div */\n      tag_233\n      swap1\n        /* \"TimeAlly.sol\":35765:35855  stakings[msg.sender][_stakingId].timestamp.sub(deployedTimestamp).div(earthSecondsInMonth) */\n      swap2\n      swap1\n      0xffffffff\n      and\n      jump\t// in\n    tag_579:\n        /* \"TimeAlly.sol\":35737:35855  uint256 stakingStartMonth = stakings[msg.sender][_stakingId].timestamp.sub(deployedTimestamp).div(earthSecondsInMonth) */\n      swap1\n      pop\n        /* \"TimeAlly.sol\":35870:35891  uint256 stakeEndMonth */\n      0x00\n        /* \"TimeAlly.sol\":35914:35926  stakingPlans */\n      0x05\n        /* \"TimeAlly.sol\":35927:35935  stakings */\n      0x07\n        /* \"TimeAlly.sol\":35927:35947  stakings[msg.sender] */\n      0x00\n        /* \"TimeAlly.sol\":35936:35946  msg.sender */\n      caller\n        /* \"TimeAlly.sol\":35927:35947  stakings[msg.sender] */\n      0xffffffffffffffffffffffffffffffffffffffff\n      and\n      0xffffffffffffffffffffffffffffffffffffffff\n      and\n      dup2\n      mstore\n      0x20\n      add\n      swap1\n      dup2\n      mstore\n      0x20\n      add\n      0x00\n      keccak256\n        /* \"TimeAlly.sol\":35948:35958  _stakingId */\n      dup5\n        /* \"TimeAlly.sol\":35927:35959  stakings[msg.sender][_stakingId] */\n      dup2\n      sload\n      dup2\n      lt\n      tag_583\n      jumpi\n      invalid\n    tag_583:\n      swap1\n      0x00\n      mstore\n      keccak256(0x00, 0x20)\n      swap1\n      0x09\n      mul\n      add\n        /* \"TimeAlly.sol\":35927:35973  stakings[msg.sender][_stakingId].stakingPlanId */\n      0x03\n      add\n      sload\n        /* \"TimeAlly.sol\":35914:35974  stakingPlans[stakings[msg.sender][_stakingId].stakingPlanId] */\n      dup2\n      sload\n      dup2\n      lt\n      tag_585\n      jumpi\n      invalid\n    tag_585:\n      swap1\n      0x00\n      mstore\n      keccak256(0x00, 0x20)\n      swap1\n      0x03\n      mul\n      add\n        /* \"TimeAlly.sol\":35914:35981  stakingPlans[stakings[msg.sender][_stakingId].stakingPlanId].months */\n      0x00\n      add\n      sload\n        /* \"TimeAlly.sol\":35894:35911  stakingStartMonth */\n      dup3\n        /* \"TimeAlly.sol\":35894:35981  stakingStartMonth + stakingPlans[stakings[msg.sender][_stakingId].stakingPlanId].months */\n      add\n        /* \"TimeAlly.sol\":35870:35981  uint256 stakeEndMonth = stakingStartMonth + stakingPlans[stakings[msg.sender][_stakingId].stakingPlanId].months */\n      swap1\n      pop\n        /* \"TimeAlly.sol\":36000:36009  uint256 j */\n      0x00\n        /* \"TimeAlly.sol\":36032:36033  1 */\n      0x01\n        /* \"TimeAlly.sol\":36012:36029  getCurrentMonth() */\n      tag_590\n        /* \"TimeAlly.sol\":36012:36027  getCurrentMonth */\n      tag_133\n        /* \"TimeAlly.sol\":36012:36029  getCurrentMonth() */\n      jump\t// in\n    tag_590:\n        /* \"TimeAlly.sol\":36012:36033  getCurrentMonth() + 1 */\n      add\n        /* \"TimeAlly.sol\":36000:36033  uint256 j = getCurrentMonth() + 1 */\n      swap1\n      pop\n        /* \"TimeAlly.sol\":35996:36267  for(uint256 j = getCurrentMonth() + 1; j <= stakeEndMonth; j++) {... */\n    tag_587:\n        /* \"TimeAlly.sol\":36040:36053  stakeEndMonth */\n      dup2\n        /* \"TimeAlly.sol\":36035:36036  j */\n      dup2\n        /* \"TimeAlly.sol\":36035:36053  j <= stakeEndMonth */\n      gt\n        /* \"TimeAlly.sol\":35996:36267  for(uint256 j = getCurrentMonth() + 1; j <= stakeEndMonth; j++) {... */\n      tag_588\n      jumpi\n        /* \"TimeAlly.sol\":36131:36136  false */\n      0x00\n        /* \"TimeAlly.sol\":36078:36086  stakings */\n      0x07\n        /* \"TimeAlly.sol\":36078:36098  stakings[msg.sender] */\n      0x00\n        /* \"TimeAlly.sol\":36087:36097  msg.sender */\n      caller\n        /* \"TimeAlly.sol\":36078:36098  stakings[msg.sender] */\n      0xffffffffffffffffffffffffffffffffffffffff\n      and\n      0xffffffffffffffffffffffffffffffffffffffff\n      and\n      dup2\n      mstore\n      0x20\n      add\n      swap1\n      dup2\n      mstore\n      0x20\n      add\n      0x00\n      keccak256\n        /* \"TimeAlly.sol\":36099:36109  _stakingId */\n      dup6\n        /* \"TimeAlly.sol\":36078:36110  stakings[msg.sender][_stakingId] */\n      dup2\n      sload\n      dup2\n      lt\n      tag_591\n      jumpi\n      invalid\n    tag_591:\n      swap1\n      0x00\n      mstore\n      keccak256(0x00, 0x20)\n      swap1\n      0x09\n      mul\n      add\n        /* \"TimeAlly.sol\":36078:36125  stakings[msg.sender][_stakingId].isMonthClaimed */\n      0x07\n      add\n        /* \"TimeAlly.sol\":36078:36128  stakings[msg.sender][_stakingId].isMonthClaimed[i] */\n      0x00\n        /* \"TimeAlly.sol\":36126:36127  i */\n      dup8\n        /* \"TimeAlly.sol\":36078:36128  stakings[msg.sender][_stakingId].isMonthClaimed[i] */\n      dup2\n      mstore\n      0x20\n      add\n      swap1\n      dup2\n      mstore\n      0x20\n      add\n      0x00\n      keccak256\n      0x00\n        /* \"TimeAlly.sol\":36078:36136  stakings[msg.sender][_stakingId].isMonthClaimed[i] = false */\n      0x0100\n      exp\n      dup2\n      sload\n      dup2\n      0xff\n      mul\n      not\n      and\n      swap1\n      dup4\n      iszero\n      iszero\n      mul\n      or\n      swap1\n      sstore\n      pop\n        /* \"TimeAlly.sol\":36180:36252  totalActiveStakings[j].add(stakings[msg.sender][_stakingId].exaEsAmount) */\n      tag_593\n        /* \"TimeAlly.sol\":36207:36215  stakings */\n      0x07\n        /* \"TimeAlly.sol\":36207:36227  stakings[msg.sender] */\n      0x00\n        /* \"TimeAlly.sol\":36216:36226  msg.sender */\n      caller\n        /* \"TimeAlly.sol\":36207:36227  stakings[msg.sender] */\n      0xffffffffffffffffffffffffffffffffffffffff\n      and\n      0xffffffffffffffffffffffffffffffffffffffff\n      and\n      dup2\n      mstore\n      0x20\n      add\n      swap1\n      dup2\n      mstore\n      0x20\n      add\n      0x00\n      keccak256\n        /* \"TimeAlly.sol\":36228:36238  _stakingId */\n      dup6\n        /* \"TimeAlly.sol\":36207:36239  stakings[msg.sender][_stakingId] */\n      dup2\n      sload\n      dup2\n      lt\n      tag_594\n      jumpi\n      invalid\n    tag_594:\n      swap1\n      0x00\n      mstore\n      keccak256(0x00, 0x20)\n      swap1\n      0x09\n      mul\n      add\n        /* \"TimeAlly.sol\":36207:36251  stakings[msg.sender][_stakingId].exaEsAmount */\n      0x00\n      add\n      sload\n        /* \"TimeAlly.sol\":36180:36199  totalActiveStakings */\n      0x0a\n        /* \"TimeAlly.sol\":36180:36202  totalActiveStakings[j] */\n      0x00\n        /* \"TimeAlly.sol\":36200:36201  j */\n      dup5\n        /* \"TimeAlly.sol\":36180:36202  totalActiveStakings[j] */\n      dup2\n      mstore\n      0x20\n      add\n      swap1\n      dup2\n      mstore\n      0x20\n      add\n      0x00\n      keccak256\n      sload\n        /* \"TimeAlly.sol\":36180:36206  totalActiveStakings[j].add */\n      tag_195\n      swap1\n        /* \"TimeAlly.sol\":36180:36252  totalActiveStakings[j].add(stakings[msg.sender][_stakingId].exaEsAmount) */\n      swap2\n      swap1\n      0xffffffff\n      and\n      jump\t// in\n    tag_593:\n        /* \"TimeAlly.sol\":36155:36174  totalActiveStakings */\n      0x0a\n        /* \"TimeAlly.sol\":36155:36177  totalActiveStakings[j] */\n      0x00\n        /* \"TimeAlly.sol\":36175:36176  j */\n      dup4\n        /* \"TimeAlly.sol\":36155:36177  totalActiveStakings[j] */\n      dup2\n      mstore\n      0x20\n      add\n      swap1\n      dup2\n      mstore\n      0x20\n      add\n      0x00\n      keccak256\n        /* \"TimeAlly.sol\":36155:36252  totalActiveStakings[j] = totalActiveStakings[j].add(stakings[msg.sender][_stakingId].exaEsAmount) */\n      dup2\n      swap1\n      sstore\n      pop\n        /* \"TimeAlly.sol\":36055:36058  j++ */\n      dup1\n      dup1\n      0x01\n      add\n      swap2\n      pop\n      pop\n        /* \"TimeAlly.sol\":35996:36267  for(uint256 j = getCurrentMonth() + 1; j <= stakeEndMonth; j++) {... */\n      jump(tag_587)\n    tag_588:\n      pop\n        /* \"TimeAlly.sol\":35515:36277  for(uint256 i = 0; i < loans[msg.sender][_loanId].stakingIds.length; i++) {... */\n      pop\n      pop\n      pop\n        /* \"TimeAlly.sol\":35584:35587  i++ */\n      dup1\n      dup1\n      0x01\n      add\n      swap2\n      pop\n      pop\n        /* \"TimeAlly.sol\":35515:36277  for(uint256 i = 0; i < loans[msg.sender][_loanId].stakingIds.length; i++) {... */\n      jump(tag_568)\n    tag_569:\n      pop\n        /* \"TimeAlly.sol\":36328:36338  msg.sender */\n      caller\n        /* \"TimeAlly.sol\":36318:36348  RepayLoan(msg.sender, _loanId) */\n      0xffffffffffffffffffffffffffffffffffffffff\n      and\n      0xe228353b4f08fee02276a1e9e2cddfa948f9fa59f87f7e24c18ad1b420d7966a\n        /* \"TimeAlly.sol\":36340:36347  _loanId */\n      dup3\n        /* \"TimeAlly.sol\":36318:36348  RepayLoan(msg.sender, _loanId) */\n      mload(0x40)\n      dup1\n      dup3\n      dup2\n      mstore\n      0x20\n      add\n      swap2\n      pop\n      pop\n      mload(0x40)\n      dup1\n      swap2\n      sub\n      swap1\n      log2\n        /* \"TimeAlly.sol\":34742:36355  function repayLoanSelf(uint256 _loanId) public {... */\n      pop\n      jump\t// out\n        /* \"TimeAlly.sol\":29372:30973  function seeMaxLoaningAmountOnUserStakings(address _userAddress, uint256[] memory _stakingIds, uint256 _loanPlanId) public view returns (uint256) {... */\n    tag_142:\n        /* \"TimeAlly.sol\":29509:29516  uint256 */\n      0x00\n        /* \"TimeAlly.sol\":29528:29549  uint256 _currentMonth */\n      dup1\n        /* \"TimeAlly.sol\":29552:29569  getCurrentMonth() */\n      tag_597\n        /* \"TimeAlly.sol\":29552:29567  getCurrentMonth */\n      tag_133\n        /* \"TimeAlly.sol\":29552:29569  getCurrentMonth() */\n      jump\t// in\n    tag_597:\n        /* \"TimeAlly.sol\":29528:29569  uint256 _currentMonth = getCurrentMonth() */\n      swap1\n      pop\n        /* \"TimeAlly.sol\":29656:29687  uint256 userStakingsExaEsAmount */\n      0x00\n        /* \"TimeAlly.sol\":29702:29711  uint256 i */\n      dup1\n        /* \"TimeAlly.sol\":29714:29715  0 */\n      0x00\n        /* \"TimeAlly.sol\":29702:29715  uint256 i = 0 */\n      swap1\n      pop\n        /* \"TimeAlly.sol\":29698:30844  for(uint256 i = 0; i < _stakingIds.length; i++) {... */\n    tag_598:\n        /* \"TimeAlly.sol\":29721:29732  _stakingIds */\n      dup6\n        /* \"TimeAlly.sol\":29721:29739  _stakingIds.length */\n      mload\n        /* \"TimeAlly.sol\":29717:29718  i */\n      dup2\n        /* \"TimeAlly.sol\":29717:29739  i < _stakingIds.length */\n      lt\n        /* \"TimeAlly.sol\":29698:30844  for(uint256 i = 0; i < _stakingIds.length; i++) {... */\n      iszero\n      tag_599\n      jumpi\n        /* \"TimeAlly.sol\":29764:29824  isStakingActive(_userAddress, _stakingIds[i], _currentMonth) */\n      tag_601\n        /* \"TimeAlly.sol\":29780:29792  _userAddress */\n      dup8\n        /* \"TimeAlly.sol\":29794:29805  _stakingIds */\n      dup8\n        /* \"TimeAlly.sol\":29806:29807  i */\n      dup4\n        /* \"TimeAlly.sol\":29794:29808  _stakingIds[i] */\n      dup2\n      mload\n      dup2\n      lt\n      tag_602\n      jumpi\n      invalid\n    tag_602:\n      0x20\n      mul\n      0x20\n      add\n      add\n      mload\n        /* \"TimeAlly.sol\":29810:29823  _currentMonth */\n      dup6\n        /* \"TimeAlly.sol\":29764:29779  isStakingActive */\n      tag_128\n        /* \"TimeAlly.sol\":29764:29824  isStakingActive(_userAddress, _stakingIds[i], _currentMonth) */\n      jump\t// in\n    tag_601:\n        /* \"TimeAlly.sol\":29764:30296  isStakingActive(_userAddress, _stakingIds[i], _currentMonth)... */\n      dup1\n      iszero\n      tag_603\n      jumpi\n      pop\n        /* \"TimeAlly.sol\":29986:29998  stakingPlans */\n      0x05\n        /* \"TimeAlly.sol\":30000:30008  stakings */\n      0x07\n        /* \"TimeAlly.sol\":30000:30022  stakings[_userAddress] */\n      0x00\n        /* \"TimeAlly.sol\":30009:30021  _userAddress */\n      dup10\n        /* \"TimeAlly.sol\":30000:30022  stakings[_userAddress] */\n      0xffffffffffffffffffffffffffffffffffffffff\n      and\n      0xffffffffffffffffffffffffffffffffffffffff\n      and\n      dup2\n      mstore\n      0x20\n      add\n      swap1\n      dup2\n      mstore\n      0x20\n      add\n      0x00\n      keccak256\n        /* \"TimeAlly.sol\":30023:30034  _stakingIds */\n      dup8\n        /* \"TimeAlly.sol\":30035:30036  i */\n      dup4\n        /* \"TimeAlly.sol\":30023:30037  _stakingIds[i] */\n      dup2\n      mload\n      dup2\n      lt\n      tag_604\n      jumpi\n      invalid\n    tag_604:\n      0x20\n      mul\n      0x20\n      add\n      add\n      mload\n        /* \"TimeAlly.sol\":30000:30038  stakings[_userAddress][_stakingIds[i]] */\n      dup2\n      sload\n      dup2\n      lt\n      tag_605\n      jumpi\n      invalid\n    tag_605:\n      swap1\n      0x00\n      mstore\n      keccak256(0x00, 0x20)\n      swap1\n      0x09\n      mul\n      add\n        /* \"TimeAlly.sol\":30000:30052  stakings[_userAddress][_stakingIds[i]].stakingPlanId */\n      0x03\n      add\n      sload\n        /* \"TimeAlly.sol\":29986:30054  stakingPlans[ stakings[_userAddress][_stakingIds[i]].stakingPlanId ] */\n      dup2\n      sload\n      dup2\n      lt\n      tag_607\n      jumpi\n      invalid\n    tag_607:\n      swap1\n      0x00\n      mstore\n      keccak256(0x00, 0x20)\n      swap1\n      0x03\n      mul\n      add\n        /* \"TimeAlly.sol\":29986:30074  stakingPlans[ stakings[_userAddress][_stakingIds[i]].stakingPlanId ].isUrgentLoanAllowed */\n      0x02\n      add\n      0x00\n      swap1\n      sload\n      swap1\n      0x0100\n      exp\n      swap1\n      div\n      0xff\n      and\n        /* \"TimeAlly.sol\":29986:30278  stakingPlans[ stakings[_userAddress][_stakingIds[i]].stakingPlanId ].isUrgentLoanAllowed... */\n      dup1\n      tag_609\n      jumpi\n      pop\n        /* \"TimeAlly.sol\":30161:30278  stakingPlans[ stakings[_userAddress][_stakingIds[i]].stakingPlanId ].months.mul(earthSecondsInMonth).mul(75).div(100) */\n      tag_610\n        /* \"TimeAlly.sol\":30274:30277  100 */\n      0x64\n        /* \"TimeAlly.sol\":30161:30269  stakingPlans[ stakings[_userAddress][_stakingIds[i]].stakingPlanId ].months.mul(earthSecondsInMonth).mul(75) */\n      tag_611\n        /* \"TimeAlly.sol\":30266:30268  75 */\n      0x4b\n        /* \"TimeAlly.sol\":30161:30261  stakingPlans[ stakings[_userAddress][_stakingIds[i]].stakingPlanId ].months.mul(earthSecondsInMonth) */\n      tag_612\n        /* \"TimeAlly.sol\":30241:30260  earthSecondsInMonth */\n      sload(0x04)\n        /* \"TimeAlly.sol\":30161:30173  stakingPlans */\n      0x05\n        /* \"TimeAlly.sol\":30175:30183  stakings */\n      0x07\n        /* \"TimeAlly.sol\":30175:30197  stakings[_userAddress] */\n      0x00\n        /* \"TimeAlly.sol\":30184:30196  _userAddress */\n      dup16\n        /* \"TimeAlly.sol\":30175:30197  stakings[_userAddress] */\n      0xffffffffffffffffffffffffffffffffffffffff\n      and\n      0xffffffffffffffffffffffffffffffffffffffff\n      and\n      dup2\n      mstore\n      0x20\n      add\n      swap1\n      dup2\n      mstore\n      0x20\n      add\n      0x00\n      keccak256\n        /* \"TimeAlly.sol\":30198:30209  _stakingIds */\n      dup14\n        /* \"TimeAlly.sol\":30210:30211  i */\n      dup10\n        /* \"TimeAlly.sol\":30198:30212  _stakingIds[i] */\n      dup2\n      mload\n      dup2\n      lt\n      tag_613\n      jumpi\n      invalid\n    tag_613:\n      0x20\n      mul\n      0x20\n      add\n      add\n      mload\n        /* \"TimeAlly.sol\":30175:30213  stakings[_userAddress][_stakingIds[i]] */\n      dup2\n      sload\n      dup2\n      lt\n      tag_614\n      jumpi\n      invalid\n    tag_614:\n      swap1\n      0x00\n      mstore\n      keccak256(0x00, 0x20)\n      swap1\n      0x09\n      mul\n      add\n        /* \"TimeAlly.sol\":30175:30227  stakings[_userAddress][_stakingIds[i]].stakingPlanId */\n      0x03\n      add\n      sload\n        /* \"TimeAlly.sol\":30161:30229  stakingPlans[ stakings[_userAddress][_stakingIds[i]].stakingPlanId ] */\n      dup2\n      sload\n      dup2\n      lt\n      tag_616\n      jumpi\n      invalid\n    tag_616:\n      swap1\n      0x00\n      mstore\n      keccak256(0x00, 0x20)\n      swap1\n      0x03\n      mul\n      add\n        /* \"TimeAlly.sol\":30161:30236  stakingPlans[ stakings[_userAddress][_stakingIds[i]].stakingPlanId ].months */\n      0x00\n      add\n      sload\n        /* \"TimeAlly.sol\":30161:30240  stakingPlans[ stakings[_userAddress][_stakingIds[i]].stakingPlanId ].months.mul */\n      tag_173\n      swap1\n        /* \"TimeAlly.sol\":30161:30261  stakingPlans[ stakings[_userAddress][_stakingIds[i]].stakingPlanId ].months.mul(earthSecondsInMonth) */\n      swap2\n      swap1\n      0xffffffff\n      and\n      jump\t// in\n    tag_612:\n        /* \"TimeAlly.sol\":30161:30265  stakingPlans[ stakings[_userAddress][_stakingIds[i]].stakingPlanId ].months.mul(earthSecondsInMonth).mul */\n      tag_173\n      swap1\n        /* \"TimeAlly.sol\":30161:30269  stakingPlans[ stakings[_userAddress][_stakingIds[i]].stakingPlanId ].months.mul(earthSecondsInMonth).mul(75) */\n      swap2\n      swap1\n      0xffffffff\n      and\n      jump\t// in\n    tag_611:\n        /* \"TimeAlly.sol\":30161:30273  stakingPlans[ stakings[_userAddress][_stakingIds[i]].stakingPlanId ].months.mul(earthSecondsInMonth).mul(75).div */\n      tag_233\n      swap1\n        /* \"TimeAlly.sol\":30161:30278  stakingPlans[ stakings[_userAddress][_stakingIds[i]].stakingPlanId ].months.mul(earthSecondsInMonth).mul(75).div(100) */\n      swap2\n      swap1\n      0xffffffff\n      and\n      jump\t// in\n    tag_610:\n        /* \"TimeAlly.sol\":30110:30118  stakings */\n      0x07\n        /* \"TimeAlly.sol\":30110:30132  stakings[_userAddress] */\n      0x00\n        /* \"TimeAlly.sol\":30119:30131  _userAddress */\n      dup10\n        /* \"TimeAlly.sol\":30110:30132  stakings[_userAddress] */\n      0xffffffffffffffffffffffffffffffffffffffff\n      and\n      0xffffffffffffffffffffffffffffffffffffffff\n      and\n      dup2\n      mstore\n      0x20\n      add\n      swap1\n      dup2\n      mstore\n      0x20\n      add\n      0x00\n      keccak256\n        /* \"TimeAlly.sol\":30133:30144  _stakingIds */\n      dup8\n        /* \"TimeAlly.sol\":30145:30146  i */\n      dup4\n        /* \"TimeAlly.sol\":30133:30147  _stakingIds[i] */\n      dup2\n      mload\n      dup2\n      lt\n      tag_618\n      jumpi\n      invalid\n    tag_618:\n      0x20\n      mul\n      0x20\n      add\n      add\n      mload\n        /* \"TimeAlly.sol\":30110:30148  stakings[_userAddress][_stakingIds[i]] */\n      dup2\n      sload\n      dup2\n      lt\n      tag_619\n      jumpi\n      invalid\n    tag_619:\n      swap1\n      0x00\n      mstore\n      keccak256(0x00, 0x20)\n      swap1\n      0x09\n      mul\n      add\n        /* \"TimeAlly.sol\":30110:30158  stakings[_userAddress][_stakingIds[i]].timestamp */\n      0x01\n      add\n      sload\n        /* \"TimeAlly.sol\":30110:30278  stakings[_userAddress][_stakingIds[i]].timestamp + stakingPlans[ stakings[_userAddress][_stakingIds[i]].stakingPlanId ].months.mul(earthSecondsInMonth).mul(75).div(100) */\n      add\n        /* \"TimeAlly.sol\":30096:30101  token */\n      0x02\n      0x00\n      swap1\n      sload\n      swap1\n      0x0100\n      exp\n      swap1\n      div\n      0xffffffffffffffffffffffffffffffffffffffff\n      and\n        /* \"TimeAlly.sol\":30096:30105  token.mou */\n      0xffffffffffffffffffffffffffffffffffffffff\n      and\n      0xb81f90f3\n        /* \"TimeAlly.sol\":30096:30107  token.mou() */\n      mload(0x40)\n      dup2\n      0xffffffff\n      and\n      0xe0\n      shl\n      dup2\n      mstore\n      0x04\n      add\n      0x20\n      mload(0x40)\n      dup1\n      dup4\n      sub\n      dup2\n      dup7\n      dup1\n      extcodesize\n      iszero\n        /* \"--CODEGEN--\":8:17   */\n      dup1\n        /* \"--CODEGEN--\":5:7   */\n      iszero\n      tag_621\n      jumpi\n        /* \"--CODEGEN--\":30:31   */\n      0x00\n        /* \"--CODEGEN--\":27:28   */\n      dup1\n        /* \"--CODEGEN--\":20:32   */\n      revert\n        /* \"--CODEGEN--\":5:7   */\n    tag_621:\n        /* \"TimeAlly.sol\":30096:30107  token.mou() */\n      pop\n      gas\n      staticcall\n      iszero\n        /* \"--CODEGEN--\":8:17   */\n      dup1\n        /* \"--CODEGEN--\":5:7   */\n      iszero\n      tag_622\n      jumpi\n        /* \"--CODEGEN--\":45:61   */\n      returndatasize\n        /* \"--CODEGEN--\":42:43   */\n      0x00\n        /* \"--CODEGEN--\":39:40   */\n      dup1\n        /* \"--CODEGEN--\":24:62   */\n      returndatacopy\n        /* \"--CODEGEN--\":77:93   */\n      returndatasize\n        /* \"--CODEGEN--\":74:75   */\n      0x00\n        /* \"--CODEGEN--\":67:94   */\n      revert\n        /* \"--CODEGEN--\":5:7   */\n    tag_622:\n        /* \"TimeAlly.sol\":30096:30107  token.mou() */\n      pop\n      pop\n      pop\n      pop\n      mload(0x40)\n      returndatasize\n        /* \"--CODEGEN--\":13:15   */\n      0x20\n        /* \"--CODEGEN--\":8:11   */\n      dup2\n        /* \"--CODEGEN--\":5:16   */\n      lt\n        /* \"--CODEGEN--\":2:4   */\n      iszero\n      tag_623\n      jumpi\n        /* \"--CODEGEN--\":29:30   */\n      0x00\n        /* \"--CODEGEN--\":26:27   */\n      dup1\n        /* \"--CODEGEN--\":19:31   */\n      revert\n        /* \"--CODEGEN--\":2:4   */\n    tag_623:\n        /* \"TimeAlly.sol\":30096:30107  token.mou() */\n      dup2\n      add\n      swap1\n      dup1\n      dup1\n      mload\n      swap1\n      0x20\n      add\n      swap1\n      swap3\n      swap2\n      swap1\n      pop\n      pop\n      pop\n        /* \"TimeAlly.sol\":30096:30278  token.mou() > stakings[_userAddress][_stakingIds[i]].timestamp + stakingPlans[ stakings[_userAddress][_stakingIds[i]].stakingPlanId ].months.mul(earthSecondsInMonth).mul(75).div(100) */\n      gt\n        /* \"TimeAlly.sol\":29986:30278  stakingPlans[ stakings[_userAddress][_stakingIds[i]].stakingPlanId ].isUrgentLoanAllowed... */\n    tag_609:\n        /* \"TimeAlly.sol\":29764:30296  isStakingActive(_userAddress, _stakingIds[i], _currentMonth)... */\n    tag_603:\n        /* \"TimeAlly.sol\":29761:30834  if(isStakingActive(_userAddress, _stakingIds[i], _currentMonth)... */\n      iszero\n      tag_624\n      jumpi\n        /* \"TimeAlly.sol\":30445:30819  userStakingsExaEsAmount... */\n      tag_625\n        /* \"TimeAlly.sol\":30494:30648  stakings[_userAddress][_stakingIds[i]].exaEsAmount... */\n      tag_626\n        /* \"TimeAlly.sol\":30644:30647  100 */\n      0x64\n        /* \"TimeAlly.sol\":30494:30616  stakings[_userAddress][_stakingIds[i]].exaEsAmount... */\n      tag_627\n        /* \"TimeAlly.sol\":30572:30581  loanPlans */\n      0x06\n        /* \"TimeAlly.sol\":30582:30593  _loanPlanId */\n      dup10\n        /* \"TimeAlly.sol\":30572:30594  loanPlans[_loanPlanId] */\n      dup2\n      sload\n      dup2\n      lt\n      tag_628\n      jumpi\n      invalid\n    tag_628:\n      swap1\n      0x00\n      mstore\n      keccak256(0x00, 0x20)\n      swap1\n      0x03\n      mul\n      add\n        /* \"TimeAlly.sol\":30572:30615  loanPlans[_loanPlanId].maxLoanAmountPercent */\n      0x02\n      add\n      sload\n        /* \"TimeAlly.sol\":30494:30502  stakings */\n      0x07\n        /* \"TimeAlly.sol\":30494:30516  stakings[_userAddress] */\n      0x00\n        /* \"TimeAlly.sol\":30503:30515  _userAddress */\n      dup14\n        /* \"TimeAlly.sol\":30494:30516  stakings[_userAddress] */\n      0xffffffffffffffffffffffffffffffffffffffff\n      and\n      0xffffffffffffffffffffffffffffffffffffffff\n      and\n      dup2\n      mstore\n      0x20\n      add\n      swap1\n      dup2\n      mstore\n      0x20\n      add\n      0x00\n      keccak256\n        /* \"TimeAlly.sol\":30517:30528  _stakingIds */\n      dup12\n        /* \"TimeAlly.sol\":30529:30530  i */\n      dup8\n        /* \"TimeAlly.sol\":30517:30531  _stakingIds[i] */\n      dup2\n      mload\n      dup2\n      lt\n      tag_630\n      jumpi\n      invalid\n    tag_630:\n      0x20\n      mul\n      0x20\n      add\n      add\n      mload\n        /* \"TimeAlly.sol\":30494:30532  stakings[_userAddress][_stakingIds[i]] */\n      dup2\n      sload\n      dup2\n      lt\n      tag_631\n      jumpi\n      invalid\n    tag_631:\n      swap1\n      0x00\n      mstore\n      keccak256(0x00, 0x20)\n      swap1\n      0x09\n      mul\n      add\n        /* \"TimeAlly.sol\":30494:30544  stakings[_userAddress][_stakingIds[i]].exaEsAmount */\n      0x00\n      add\n      sload\n        /* \"TimeAlly.sol\":30494:30571  stakings[_userAddress][_stakingIds[i]].exaEsAmount... */\n      tag_173\n      swap1\n        /* \"TimeAlly.sol\":30494:30616  stakings[_userAddress][_stakingIds[i]].exaEsAmount... */\n      swap2\n      swap1\n      0xffffffff\n      and\n      jump\t// in\n    tag_627:\n        /* \"TimeAlly.sol\":30494:30643  stakings[_userAddress][_stakingIds[i]].exaEsAmount... */\n      tag_233\n      swap1\n        /* \"TimeAlly.sol\":30494:30648  stakings[_userAddress][_stakingIds[i]].exaEsAmount... */\n      swap2\n      swap1\n      0xffffffff\n      and\n      jump\t// in\n    tag_626:\n        /* \"TimeAlly.sol\":30445:30468  userStakingsExaEsAmount */\n      dup4\n        /* \"TimeAlly.sol\":30445:30493  userStakingsExaEsAmount... */\n      tag_195\n      swap1\n        /* \"TimeAlly.sol\":30445:30819  userStakingsExaEsAmount... */\n      swap2\n      swap1\n      0xffffffff\n      and\n      jump\t// in\n    tag_625:\n        /* \"TimeAlly.sol\":30419:30819  userStakingsExaEsAmount = userStakingsExaEsAmount... */\n      swap2\n      pop\n        /* \"TimeAlly.sol\":29761:30834  if(isStakingActive(_userAddress, _stakingIds[i], _currentMonth)... */\n    tag_624:\n        /* \"TimeAlly.sol\":29741:29744  i++ */\n      dup1\n      dup1\n      0x01\n      add\n      swap2\n      pop\n      pop\n        /* \"TimeAlly.sol\":29698:30844  for(uint256 i = 0; i < _stakingIds.length; i++) {... */\n      jump(tag_598)\n    tag_599:\n      pop\n        /* \"TimeAlly.sol\":30861:30884  userStakingsExaEsAmount */\n      dup1\n        /* \"TimeAlly.sol\":30854:30884  return userStakingsExaEsAmount */\n      swap3\n      pop\n      pop\n      pop\n        /* \"TimeAlly.sol\":29372:30973  function seeMaxLoaningAmountOnUserStakings(address _userAddress, uint256[] memory _stakingIds, uint256 _loanPlanId) public view returns (uint256) {... */\n      swap4\n      swap3\n      pop\n      pop\n      pop\n      jump\t// out\n        /* \"TimeAlly.sol\":7792:9227  function newStaking(uint256 _exaEsAmount, uint256 _stakingPlanId) public {... */\n    tag_145:\n        /* \"TimeAlly.sol\":8054:8055  0 */\n      0x00\n        /* \"TimeAlly.sol\":8039:8051  _exaEsAmount */\n      dup3\n        /* \"TimeAlly.sol\":8039:8055  _exaEsAmount > 0 */\n      gt\n        /* \"TimeAlly.sol\":8031:8118  require(_exaEsAmount > 0... */\n      tag_634\n      jumpi\n      0x00\n      dup1\n      revert\n    tag_634:\n        /* \"TimeAlly.sol\":8263:8268  token */\n      0x02\n      0x00\n      swap1\n      sload\n      swap1\n      0x0100\n      exp\n      swap1\n      div\n      0xffffffffffffffffffffffffffffffffffffffff\n      and\n        /* \"TimeAlly.sol\":8263:8281  token.transferFrom */\n      0xffffffffffffffffffffffffffffffffffffffff\n      and\n      0x23b872dd\n        /* \"TimeAlly.sol\":8282:8292  msg.sender */\n      caller\n        /* \"TimeAlly.sol\":8302:8306  this */\n      address\n        /* \"TimeAlly.sol\":8309:8321  _exaEsAmount */\n      dup6\n        /* \"TimeAlly.sol\":8263:8322  token.transferFrom(msg.sender, address(this), _exaEsAmount) */\n      mload(0x40)\n      dup5\n      0xffffffff\n      and\n      0xe0\n      shl\n      dup2\n      mstore\n      0x04\n      add\n      dup1\n      dup5\n      0xffffffffffffffffffffffffffffffffffffffff\n      and\n      0xffffffffffffffffffffffffffffffffffffffff\n      and\n      dup2\n      mstore\n      0x20\n      add\n      dup4\n      0xffffffffffffffffffffffffffffffffffffffff\n      and\n      0xffffffffffffffffffffffffffffffffffffffff\n      and\n      dup2\n      mstore\n      0x20\n      add\n      dup3\n      dup2\n      mstore\n      0x20\n      add\n      swap4\n      pop\n      pop\n      pop\n      pop\n      0x20\n      mload(0x40)\n      dup1\n      dup4\n      sub\n      dup2\n      0x00\n      dup8\n      dup1\n      extcodesize\n      iszero\n        /* \"--CODEGEN--\":8:17   */\n      dup1\n        /* \"--CODEGEN--\":5:7   */\n      iszero\n      tag_635\n      jumpi\n        /* \"--CODEGEN--\":30:31   */\n      0x00\n        /* \"--CODEGEN--\":27:28   */\n      dup1\n        /* \"--CODEGEN--\":20:32   */\n      revert\n        /* \"--CODEGEN--\":5:7   */\n    tag_635:\n        /* \"TimeAlly.sol\":8263:8322  token.transferFrom(msg.sender, address(this), _exaEsAmount) */\n      pop\n      gas\n      call\n      iszero\n        /* \"--CODEGEN--\":8:17   */\n      dup1\n        /* \"--CODEGEN--\":5:7   */\n      iszero\n      tag_636\n      jumpi\n        /* \"--CODEGEN--\":45:61   */\n      returndatasize\n        /* \"--CODEGEN--\":42:43   */\n      0x00\n        /* \"--CODEGEN--\":39:40   */\n      dup1\n        /* \"--CODEGEN--\":24:62   */\n      returndatacopy\n        /* \"--CODEGEN--\":77:93   */\n      returndatasize\n        /* \"--CODEGEN--\":74:75   */\n      0x00\n        /* \"--CODEGEN--\":67:94   */\n      revert\n        /* \"--CODEGEN--\":5:7   */\n    tag_636:\n        /* \"TimeAlly.sol\":8263:8322  token.transferFrom(msg.sender, address(this), _exaEsAmount) */\n      pop\n      pop\n      pop\n      pop\n      mload(0x40)\n      returndatasize\n        /* \"--CODEGEN--\":13:15   */\n      0x20\n        /* \"--CODEGEN--\":8:11   */\n      dup2\n        /* \"--CODEGEN--\":5:16   */\n      lt\n        /* \"--CODEGEN--\":2:4   */\n      iszero\n      tag_637\n      jumpi\n        /* \"--CODEGEN--\":29:30   */\n      0x00\n        /* \"--CODEGEN--\":26:27   */\n      dup1\n        /* \"--CODEGEN--\":19:31   */\n      revert\n        /* \"--CODEGEN--\":2:4   */\n    tag_637:\n        /* \"TimeAlly.sol\":8263:8322  token.transferFrom(msg.sender, address(this), _exaEsAmount) */\n      dup2\n      add\n      swap1\n      dup1\n      dup1\n      mload\n      swap1\n      0x20\n      add\n      swap1\n      swap3\n      swap2\n      swap1\n      pop\n      pop\n      pop\n        /* \"TimeAlly.sol\":8255:8375  require(token.transferFrom(msg.sender, address(this), _exaEsAmount)... */\n      tag_638\n      jumpi\n      0x00\n      dup1\n      revert\n    tag_638:\n        /* \"TimeAlly.sol\":8385:8406  uint256 stakeEndMonth */\n      0x00\n        /* \"TimeAlly.sol\":8429:8441  stakingPlans */\n      0x05\n        /* \"TimeAlly.sol\":8442:8456  _stakingPlanId */\n      dup3\n        /* \"TimeAlly.sol\":8429:8457  stakingPlans[_stakingPlanId] */\n      dup2\n      sload\n      dup2\n      lt\n      tag_639\n      jumpi\n      invalid\n    tag_639:\n      swap1\n      0x00\n      mstore\n      keccak256(0x00, 0x20)\n      swap1\n      0x03\n      mul\n      add\n        /* \"TimeAlly.sol\":8429:8464  stakingPlans[_stakingPlanId].months */\n      0x00\n      add\n      sload\n        /* \"TimeAlly.sol\":8409:8426  getCurrentMonth() */\n      tag_641\n        /* \"TimeAlly.sol\":8409:8424  getCurrentMonth */\n      tag_133\n        /* \"TimeAlly.sol\":8409:8426  getCurrentMonth() */\n      jump\t// in\n    tag_641:\n        /* \"TimeAlly.sol\":8409:8464  getCurrentMonth() + stakingPlans[_stakingPlanId].months */\n      add\n        /* \"TimeAlly.sol\":8385:8464  uint256 stakeEndMonth = getCurrentMonth() + stakingPlans[_stakingPlanId].months */\n      swap1\n      pop\n        /* \"TimeAlly.sol\":8620:8633  uint256 month */\n      0x00\n        /* \"TimeAlly.sol\":8656:8657  1 */\n      0x01\n        /* \"TimeAlly.sol\":8636:8653  getCurrentMonth() */\n      tag_645\n        /* \"TimeAlly.sol\":8636:8651  getCurrentMonth */\n      tag_133\n        /* \"TimeAlly.sol\":8636:8653  getCurrentMonth() */\n      jump\t// in\n    tag_645:\n        /* \"TimeAlly.sol\":8636:8657  getCurrentMonth() + 1 */\n      add\n        /* \"TimeAlly.sol\":8620:8657  uint256 month = getCurrentMonth() + 1 */\n      swap1\n      pop\n        /* \"TimeAlly.sol\":8605:8816  for(... */\n    tag_642:\n        /* \"TimeAlly.sol\":8678:8691  stakeEndMonth */\n      dup2\n        /* \"TimeAlly.sol\":8669:8674  month */\n      dup2\n        /* \"TimeAlly.sol\":8669:8691  month <= stakeEndMonth */\n      gt\n        /* \"TimeAlly.sol\":8605:8816  for(... */\n      tag_643\n      jumpi\n        /* \"TimeAlly.sol\":8793:8805  _exaEsAmount */\n      dup4\n        /* \"TimeAlly.sol\":8764:8783  totalActiveStakings */\n      0x0a\n        /* \"TimeAlly.sol\":8764:8790  totalActiveStakings[month] */\n      0x00\n        /* \"TimeAlly.sol\":8784:8789  month */\n      dup4\n        /* \"TimeAlly.sol\":8764:8790  totalActiveStakings[month] */\n      dup2\n      mstore\n      0x20\n      add\n      swap1\n      dup2\n      mstore\n      0x20\n      add\n      0x00\n      keccak256\n      sload\n        /* \"TimeAlly.sol\":8764:8805  totalActiveStakings[month] + _exaEsAmount */\n      add\n        /* \"TimeAlly.sol\":8735:8754  totalActiveStakings */\n      0x0a\n        /* \"TimeAlly.sol\":8735:8761  totalActiveStakings[month] */\n      0x00\n        /* \"TimeAlly.sol\":8755:8760  month */\n      dup4\n        /* \"TimeAlly.sol\":8735:8761  totalActiveStakings[month] */\n      dup2\n      mstore\n      0x20\n      add\n      swap1\n      dup2\n      mstore\n      0x20\n      add\n      0x00\n      keccak256\n        /* \"TimeAlly.sol\":8735:8805  totalActiveStakings[month] = totalActiveStakings[month] + _exaEsAmount */\n      dup2\n      swap1\n      sstore\n      pop\n        /* \"TimeAlly.sol\":8703:8710  month++ */\n      dup1\n      dup1\n      0x01\n      add\n      swap2\n      pop\n      pop\n        /* \"TimeAlly.sol\":8605:8816  for(... */\n      jump(tag_642)\n    tag_643:\n      pop\n        /* \"TimeAlly.sol\":8826:8834  stakings */\n      0x07\n        /* \"TimeAlly.sol\":8826:8846  stakings[msg.sender] */\n      0x00\n        /* \"TimeAlly.sol\":8835:8845  msg.sender */\n      caller\n        /* \"TimeAlly.sol\":8826:8846  stakings[msg.sender] */\n      0xffffffffffffffffffffffffffffffffffffffff\n      and\n      0xffffffffffffffffffffffffffffffffffffffff\n      and\n      dup2\n      mstore\n      0x20\n      add\n      swap1\n      dup2\n      mstore\n      0x20\n      add\n      0x00\n      keccak256\n        /* \"TimeAlly.sol\":8852:9118  Staking({... */\n      mload(0x40)\n      dup1\n      0xe0\n      add\n      0x40\n      mstore\n      dup1\n        /* \"TimeAlly.sol\":8887:8899  _exaEsAmount */\n      dup6\n        /* \"TimeAlly.sol\":8852:9118  Staking({... */\n      dup2\n      mstore\n      0x20\n      add\n        /* \"TimeAlly.sol\":8924:8929  token */\n      0x02\n      0x00\n      swap1\n      sload\n      swap1\n      0x0100\n      exp\n      swap1\n      div\n      0xffffffffffffffffffffffffffffffffffffffff\n      and\n        /* \"TimeAlly.sol\":8924:8933  token.mou */\n      0xffffffffffffffffffffffffffffffffffffffff\n      and\n      0xb81f90f3\n        /* \"TimeAlly.sol\":8924:8935  token.mou() */\n      mload(0x40)\n      dup2\n      0xffffffff\n      and\n      0xe0\n      shl\n      dup2\n      mstore\n      0x04\n      add\n      0x20\n      mload(0x40)\n      dup1\n      dup4\n      sub\n      dup2\n      dup7\n      dup1\n      extcodesize\n      iszero\n        /* \"--CODEGEN--\":8:17   */\n      dup1\n        /* \"--CODEGEN--\":5:7   */\n      iszero\n      tag_646\n      jumpi\n        /* \"--CODEGEN--\":30:31   */\n      0x00\n        /* \"--CODEGEN--\":27:28   */\n      dup1\n        /* \"--CODEGEN--\":20:32   */\n      revert\n        /* \"--CODEGEN--\":5:7   */\n    tag_646:\n        /* \"TimeAlly.sol\":8924:8935  token.mou() */\n      pop\n      gas\n      staticcall\n      iszero\n        /* \"--CODEGEN--\":8:17   */\n      dup1\n        /* \"--CODEGEN--\":5:7   */\n      iszero\n      tag_647\n      jumpi\n        /* \"--CODEGEN--\":45:61   */\n      returndatasize\n        /* \"--CODEGEN--\":42:43   */\n      0x00\n        /* \"--CODEGEN--\":39:40   */\n      dup1\n        /* \"--CODEGEN--\":24:62   */\n      returndatacopy\n        /* \"--CODEGEN--\":77:93   */\n      returndatasize\n        /* \"--CODEGEN--\":74:75   */\n      0x00\n        /* \"--CODEGEN--\":67:94   */\n      revert\n        /* \"--CODEGEN--\":5:7   */\n    tag_647:\n        /* \"TimeAlly.sol\":8924:8935  token.mou() */\n      pop\n      pop\n      pop\n      pop\n      mload(0x40)\n      returndatasize\n        /* \"--CODEGEN--\":13:15   */\n      0x20\n        /* \"--CODEGEN--\":8:11   */\n      dup2\n        /* \"--CODEGEN--\":5:16   */\n      lt\n        /* \"--CODEGEN--\":2:4   */\n      iszero\n      tag_648\n      jumpi\n        /* \"--CODEGEN--\":29:30   */\n      0x00\n        /* \"--CODEGEN--\":26:27   */\n      dup1\n        /* \"--CODEGEN--\":19:31   */\n      revert\n        /* \"--CODEGEN--\":2:4   */\n    tag_648:\n        /* \"TimeAlly.sol\":8924:8935  token.mou() */\n      dup2\n      add\n      swap1\n      dup1\n      dup1\n      mload\n      swap1\n      0x20\n      add\n      swap1\n      swap3\n      swap2\n      swap1\n      pop\n      pop\n      pop\n        /* \"TimeAlly.sol\":8852:9118  Staking({... */\n      dup2\n      mstore\n      0x20\n      add\n        /* \"TimeAlly.sol\":8963:8980  getCurrentMonth() */\n      tag_649\n        /* \"TimeAlly.sol\":8963:8978  getCurrentMonth */\n      tag_133\n        /* \"TimeAlly.sol\":8963:8980  getCurrentMonth() */\n      jump\t// in\n    tag_649:\n        /* \"TimeAlly.sol\":8852:9118  Staking({... */\n      dup2\n      mstore\n      0x20\n      add\n        /* \"TimeAlly.sol\":9009:9023  _stakingPlanId */\n      dup5\n        /* \"TimeAlly.sol\":8852:9118  Staking({... */\n      dup2\n      mstore\n      0x20\n      add\n        /* \"TimeAlly.sol\":9045:9046  1 */\n      0x01\n        /* \"TimeAlly.sol\":8852:9118  Staking({... */\n      dup2\n      mstore\n      0x20\n      add\n        /* \"TimeAlly.sol\":9068:9069  0 */\n      0x00\n        /* \"TimeAlly.sol\":8852:9118  Staking({... */\n      dup2\n      mstore\n      0x20\n      add\n        /* \"TimeAlly.sol\":9106:9107  0 */\n      0x00\n        /* \"TimeAlly.sol\":8852:9118  Staking({... */\n      dup2\n      mstore\n      pop\n        /* \"TimeAlly.sol\":8826:9119  stakings[msg.sender].push(Staking({... */\n      swap1\n      dup1\n        /* \"--CODEGEN--\":39:40   */\n      0x01\n        /* \"--CODEGEN--\":33:36   */\n      dup2\n        /* \"--CODEGEN--\":27:37   */\n      sload\n        /* \"--CODEGEN--\":23:41   */\n      add\n        /* \"--CODEGEN--\":57:67   */\n      dup1\n        /* \"--CODEGEN--\":52:55   */\n      dup3\n        /* \"--CODEGEN--\":45:68   */\n      sstore\n        /* \"--CODEGEN--\":79:89   */\n      dup1\n        /* \"--CODEGEN--\":72:89   */\n      swap2\n      pop\n        /* \"--CODEGEN--\":0:93   */\n      pop\n        /* \"TimeAlly.sol\":8826:9119  stakings[msg.sender].push(Staking({... */\n      swap1\n      0x01\n      dup3\n      sub\n      swap1\n      0x00\n      mstore\n      keccak256(0x00, 0x20)\n      swap1\n      0x09\n      mul\n      add\n      0x00\n      swap1\n      swap2\n      swap3\n      swap1\n      swap2\n      swap1\n      swap2\n      pop\n      0x00\n      dup3\n      add\n      mload\n      dup2\n      0x00\n      add\n      sstore\n      0x20\n      dup3\n      add\n      mload\n      dup2\n      0x01\n      add\n      sstore\n      0x40\n      dup3\n      add\n      mload\n      dup2\n      0x02\n      add\n      sstore\n      0x60\n      dup3\n      add\n      mload\n      dup2\n      0x03\n      add\n      sstore\n      0x80\n      dup3\n      add\n      mload\n      dup2\n      0x04\n      add\n      sstore\n      0xa0\n      dup3\n      add\n      mload\n      dup2\n      0x05\n      add\n      sstore\n      0xc0\n      dup3\n      add\n      mload\n      dup2\n      0x06\n      add\n      sstore\n      pop\n      pop\n      pop\n        /* \"TimeAlly.sol\":9158:9172  _stakingPlanId */\n      dup2\n        /* \"TimeAlly.sol\":9146:9156  msg.sender */\n      caller\n        /* \"TimeAlly.sol\":9135:9220  NewStaking(msg.sender, _stakingPlanId, _exaEsAmount, stakings[msg.sender].length - 1) */\n      0xffffffffffffffffffffffffffffffffffffffff\n      and\n      0x680a0e2e97ad7c29da7985e37b699f19857c055166f801e50d90661eae30fcc3\n        /* \"TimeAlly.sol\":9174:9186  _exaEsAmount */\n      dup6\n        /* \"TimeAlly.sol\":9218:9219  1 */\n      0x01\n        /* \"TimeAlly.sol\":9188:9196  stakings */\n      0x07\n        /* \"TimeAlly.sol\":9188:9208  stakings[msg.sender] */\n      0x00\n        /* \"TimeAlly.sol\":9197:9207  msg.sender */\n      caller\n        /* \"TimeAlly.sol\":9188:9208  stakings[msg.sender] */\n      0xffffffffffffffffffffffffffffffffffffffff\n      and\n      0xffffffffffffffffffffffffffffffffffffffff\n      and\n      dup2\n      mstore\n      0x20\n      add\n      swap1\n      dup2\n      mstore\n      0x20\n      add\n      0x00\n      keccak256\n        /* \"TimeAlly.sol\":9188:9215  stakings[msg.sender].length */\n      dup1\n      sload\n      swap1\n      pop\n        /* \"TimeAlly.sol\":9188:9219  stakings[msg.sender].length - 1 */\n      sub\n        /* \"TimeAlly.sol\":9135:9220  NewStaking(msg.sender, _stakingPlanId, _exaEsAmount, stakings[msg.sender].length - 1) */\n      mload(0x40)\n      dup1\n      dup4\n      dup2\n      mstore\n      0x20\n      add\n      dup3\n      dup2\n      mstore\n      0x20\n      add\n      swap3\n      pop\n      pop\n      pop\n      mload(0x40)\n      dup1\n      swap2\n      sub\n      swap1\n      log3\n        /* \"TimeAlly.sol\":7792:9227  function newStaking(uint256 _exaEsAmount, uint256 _stakingPlanId) public {... */\n      pop\n      pop\n      pop\n      jump\t// out\n        /* \"TimeAlly.sol\":5085:5206  function increaseMonth(uint256 _timeAllyNRT) public onlyNRTManager {... */\n    tag_148:\n        /* \"TimeAlly.sol\":4273:4283  nrtManager */\n      0x03\n      0x00\n      swap1\n      sload\n      swap1\n      0x0100\n      exp\n      swap1\n      div\n      0xffffffffffffffffffffffffffffffffffffffff\n      and\n        /* \"TimeAlly.sol\":4251:4284  msg.sender == address(nrtManager) */\n      0xffffffffffffffffffffffffffffffffffffffff\n      and\n        /* \"TimeAlly.sol\":4251:4261  msg.sender */\n      caller\n        /* \"TimeAlly.sol\":4251:4284  msg.sender == address(nrtManager) */\n      0xffffffffffffffffffffffffffffffffffffffff\n      and\n      eq\n        /* \"TimeAlly.sol\":4232:4337  require(... */\n      tag_652\n      jumpi\n      0x00\n      dup1\n      revert\n    tag_652:\n        /* \"TimeAlly.sol\":5162:5180  timeAllyMonthlyNRT */\n      0x0b\n        /* \"TimeAlly.sol\":5186:5198  _timeAllyNRT */\n      dup2\n        /* \"TimeAlly.sol\":5162:5199  timeAllyMonthlyNRT.push(_timeAllyNRT) */\n      swap1\n      dup1\n        /* \"--CODEGEN--\":39:40   */\n      0x01\n        /* \"--CODEGEN--\":33:36   */\n      dup2\n        /* \"--CODEGEN--\":27:37   */\n      sload\n        /* \"--CODEGEN--\":23:41   */\n      add\n        /* \"--CODEGEN--\":57:67   */\n      dup1\n        /* \"--CODEGEN--\":52:55   */\n      dup3\n        /* \"--CODEGEN--\":45:68   */\n      sstore\n        /* \"--CODEGEN--\":79:89   */\n      dup1\n        /* \"--CODEGEN--\":72:89   */\n      swap2\n      pop\n        /* \"--CODEGEN--\":0:93   */\n      pop\n        /* \"TimeAlly.sol\":5162:5199  timeAllyMonthlyNRT.push(_timeAllyNRT) */\n      swap1\n      0x01\n      dup3\n      sub\n      swap1\n      0x00\n      mstore\n      keccak256(0x00, 0x20)\n      add\n      0x00\n      swap1\n      swap2\n      swap3\n      swap1\n      swap2\n      swap1\n      swap2\n      pop\n      sstore\n      pop\n        /* \"TimeAlly.sol\":5085:5206  function increaseMonth(uint256 _timeAllyNRT) public onlyNRTManager {... */\n      pop\n      jump\t// out\n        /* \"TimeAlly.sol\":25528:26633  function withdrawExpiredStakings(uint256[] memory _stakingIds) public {... */\n    tag_154:\n        /* \"TimeAlly.sol\":25612:25621  uint256 i */\n      0x00\n        /* \"TimeAlly.sol\":25624:25625  0 */\n      dup1\n        /* \"TimeAlly.sol\":25612:25625  uint256 i = 0 */\n      swap1\n      pop\n        /* \"TimeAlly.sol\":25608:26627  for(uint256 i = 0; i < _stakingIds.length; i++) {... */\n    tag_656:\n        /* \"TimeAlly.sol\":25631:25642  _stakingIds */\n      dup2\n        /* \"TimeAlly.sol\":25631:25649  _stakingIds.length */\n      mload\n        /* \"TimeAlly.sol\":25627:25628  i */\n      dup2\n        /* \"TimeAlly.sol\":25627:25649  i < _stakingIds.length */\n      lt\n        /* \"TimeAlly.sol\":25608:26627  for(uint256 i = 0; i < _stakingIds.length; i++) {... */\n      iszero\n      tag_657\n      jumpi\n        /* \"TimeAlly.sol\":25693:25864  stakings[msg.sender][_stakingIds[i]].timestamp... */\n      tag_659\n        /* \"TimeAlly.sol\":25765:25863  stakingPlans[ stakings[msg.sender][_stakingIds[i]].stakingPlanId ].months.mul(earthSecondsInMonth) */\n      tag_660\n        /* \"TimeAlly.sol\":25843:25862  earthSecondsInMonth */\n      sload(0x04)\n        /* \"TimeAlly.sol\":25765:25777  stakingPlans */\n      0x05\n        /* \"TimeAlly.sol\":25779:25787  stakings */\n      0x07\n        /* \"TimeAlly.sol\":25779:25799  stakings[msg.sender] */\n      0x00\n        /* \"TimeAlly.sol\":25788:25798  msg.sender */\n      caller\n        /* \"TimeAlly.sol\":25779:25799  stakings[msg.sender] */\n      0xffffffffffffffffffffffffffffffffffffffff\n      and\n      0xffffffffffffffffffffffffffffffffffffffff\n      and\n      dup2\n      mstore\n      0x20\n      add\n      swap1\n      dup2\n      mstore\n      0x20\n      add\n      0x00\n      keccak256\n        /* \"TimeAlly.sol\":25800:25811  _stakingIds */\n      dup7\n        /* \"TimeAlly.sol\":25812:25813  i */\n      dup7\n        /* \"TimeAlly.sol\":25800:25814  _stakingIds[i] */\n      dup2\n      mload\n      dup2\n      lt\n      tag_661\n      jumpi\n      invalid\n    tag_661:\n      0x20\n      mul\n      0x20\n      add\n      add\n      mload\n        /* \"TimeAlly.sol\":25779:25815  stakings[msg.sender][_stakingIds[i]] */\n      dup2\n      sload\n      dup2\n      lt\n      tag_662\n      jumpi\n      invalid\n    tag_662:\n      swap1\n      0x00\n      mstore\n      keccak256(0x00, 0x20)\n      swap1\n      0x09\n      mul\n      add\n        /* \"TimeAlly.sol\":25779:25829  stakings[msg.sender][_stakingIds[i]].stakingPlanId */\n      0x03\n      add\n      sload\n        /* \"TimeAlly.sol\":25765:25831  stakingPlans[ stakings[msg.sender][_stakingIds[i]].stakingPlanId ] */\n      dup2\n      sload\n      dup2\n      lt\n      tag_664\n      jumpi\n      invalid\n    tag_664:\n      swap1\n      0x00\n      mstore\n      keccak256(0x00, 0x20)\n      swap1\n      0x03\n      mul\n      add\n        /* \"TimeAlly.sol\":25765:25838  stakingPlans[ stakings[msg.sender][_stakingIds[i]].stakingPlanId ].months */\n      0x00\n      add\n      sload\n        /* \"TimeAlly.sol\":25765:25842  stakingPlans[ stakings[msg.sender][_stakingIds[i]].stakingPlanId ].months.mul */\n      tag_173\n      swap1\n        /* \"TimeAlly.sol\":25765:25863  stakingPlans[ stakings[msg.sender][_stakingIds[i]].stakingPlanId ].months.mul(earthSecondsInMonth) */\n      swap2\n      swap1\n      0xffffffff\n      and\n      jump\t// in\n    tag_660:\n        /* \"TimeAlly.sol\":25693:25701  stakings */\n      0x07\n        /* \"TimeAlly.sol\":25693:25713  stakings[msg.sender] */\n      0x00\n        /* \"TimeAlly.sol\":25702:25712  msg.sender */\n      caller\n        /* \"TimeAlly.sol\":25693:25713  stakings[msg.sender] */\n      0xffffffffffffffffffffffffffffffffffffffff\n      and\n      0xffffffffffffffffffffffffffffffffffffffff\n      and\n      dup2\n      mstore\n      0x20\n      add\n      swap1\n      dup2\n      mstore\n      0x20\n      add\n      0x00\n      keccak256\n        /* \"TimeAlly.sol\":25714:25725  _stakingIds */\n      dup5\n        /* \"TimeAlly.sol\":25726:25727  i */\n      dup5\n        /* \"TimeAlly.sol\":25714:25728  _stakingIds[i] */\n      dup2\n      mload\n      dup2\n      lt\n      tag_666\n      jumpi\n      invalid\n    tag_666:\n      0x20\n      mul\n      0x20\n      add\n      add\n      mload\n        /* \"TimeAlly.sol\":25693:25729  stakings[msg.sender][_stakingIds[i]] */\n      dup2\n      sload\n      dup2\n      lt\n      tag_667\n      jumpi\n      invalid\n    tag_667:\n      swap1\n      0x00\n      mstore\n      keccak256(0x00, 0x20)\n      swap1\n      0x09\n      mul\n      add\n        /* \"TimeAlly.sol\":25693:25739  stakings[msg.sender][_stakingIds[i]].timestamp */\n      0x01\n      add\n      sload\n        /* \"TimeAlly.sol\":25693:25764  stakings[msg.sender][_stakingIds[i]].timestamp... */\n      tag_195\n      swap1\n        /* \"TimeAlly.sol\":25693:25864  stakings[msg.sender][_stakingIds[i]].timestamp... */\n      swap2\n      swap1\n      0xffffffff\n      and\n      jump\t// in\n    tag_659:\n        /* \"TimeAlly.sol\":25678:25683  token */\n      0x02\n      0x00\n      swap1\n      sload\n      swap1\n      0x0100\n      exp\n      swap1\n      div\n      0xffffffffffffffffffffffffffffffffffffffff\n      and\n        /* \"TimeAlly.sol\":25678:25687  token.mou */\n      0xffffffffffffffffffffffffffffffffffffffff\n      and\n      0xb81f90f3\n        /* \"TimeAlly.sol\":25678:25689  token.mou() */\n      mload(0x40)\n      dup2\n      0xffffffff\n      and\n      0xe0\n      shl\n      dup2\n      mstore\n      0x04\n      add\n      0x20\n      mload(0x40)\n      dup1\n      dup4\n      sub\n      dup2\n      dup7\n      dup1\n      extcodesize\n      iszero\n        /* \"--CODEGEN--\":8:17   */\n      dup1\n        /* \"--CODEGEN--\":5:7   */\n      iszero\n      tag_669\n      jumpi\n        /* \"--CODEGEN--\":30:31   */\n      0x00\n        /* \"--CODEGEN--\":27:28   */\n      dup1\n        /* \"--CODEGEN--\":20:32   */\n      revert\n        /* \"--CODEGEN--\":5:7   */\n    tag_669:\n        /* \"TimeAlly.sol\":25678:25689  token.mou() */\n      pop\n      gas\n      staticcall\n      iszero\n        /* \"--CODEGEN--\":8:17   */\n      dup1\n        /* \"--CODEGEN--\":5:7   */\n      iszero\n      tag_670\n      jumpi\n        /* \"--CODEGEN--\":45:61   */\n      returndatasize\n        /* \"--CODEGEN--\":42:43   */\n      0x00\n        /* \"--CODEGEN--\":39:40   */\n      dup1\n        /* \"--CODEGEN--\":24:62   */\n      returndatacopy\n        /* \"--CODEGEN--\":77:93   */\n      returndatasize\n        /* \"--CODEGEN--\":74:75   */\n      0x00\n        /* \"--CODEGEN--\":67:94   */\n      revert\n        /* \"--CODEGEN--\":5:7   */\n    tag_670:\n        /* \"TimeAlly.sol\":25678:25689  token.mou() */\n      pop\n      pop\n      pop\n      pop\n      mload(0x40)\n      returndatasize\n        /* \"--CODEGEN--\":13:15   */\n      0x20\n        /* \"--CODEGEN--\":8:11   */\n      dup2\n        /* \"--CODEGEN--\":5:16   */\n      lt\n        /* \"--CODEGEN--\":2:4   */\n      iszero\n      tag_671\n      jumpi\n        /* \"--CODEGEN--\":29:30   */\n      0x00\n        /* \"--CODEGEN--\":26:27   */\n      dup1\n        /* \"--CODEGEN--\":19:31   */\n      revert\n        /* \"--CODEGEN--\":2:4   */\n    tag_671:\n        /* \"TimeAlly.sol\":25678:25689  token.mou() */\n      dup2\n      add\n      swap1\n      dup1\n      dup1\n      mload\n      swap1\n      0x20\n      add\n      swap1\n      swap3\n      swap2\n      swap1\n      pop\n      pop\n      pop\n        /* \"TimeAlly.sol\":25678:25864  token.mou() >= stakings[msg.sender][_stakingIds[i]].timestamp... */\n      lt\n      iszero\n        /* \"TimeAlly.sol\":25670:25935  require(token.mou() >= stakings[msg.sender][_stakingIds[i]].timestamp... */\n      tag_672\n      jumpi\n      0x00\n      dup1\n      revert\n    tag_672:\n        /* \"TimeAlly.sol\":25995:25996  3 */\n      0x03\n        /* \"TimeAlly.sol\":25949:25957  stakings */\n      0x07\n        /* \"TimeAlly.sol\":25949:25969  stakings[msg.sender] */\n      0x00\n        /* \"TimeAlly.sol\":25958:25968  msg.sender */\n      caller\n        /* \"TimeAlly.sol\":25949:25969  stakings[msg.sender] */\n      0xffffffffffffffffffffffffffffffffffffffff\n      and\n      0xffffffffffffffffffffffffffffffffffffffff\n      and\n      dup2\n      mstore\n      0x20\n      add\n      swap1\n      dup2\n      mstore\n      0x20\n      add\n      0x00\n      keccak256\n        /* \"TimeAlly.sol\":25970:25981  _stakingIds */\n      dup4\n        /* \"TimeAlly.sol\":25982:25983  i */\n      dup4\n        /* \"TimeAlly.sol\":25970:25984  _stakingIds[i] */\n      dup2\n      mload\n      dup2\n      lt\n      tag_673\n      jumpi\n      invalid\n    tag_673:\n      0x20\n      mul\n      0x20\n      add\n      add\n      mload\n        /* \"TimeAlly.sol\":25949:25985  stakings[msg.sender][_stakingIds[i]] */\n      dup2\n      sload\n      dup2\n      lt\n      tag_674\n      jumpi\n      invalid\n    tag_674:\n      swap1\n      0x00\n      mstore\n      keccak256(0x00, 0x20)\n      swap1\n      0x09\n      mul\n      add\n        /* \"TimeAlly.sol\":25949:25992  stakings[msg.sender][_stakingIds[i]].status */\n      0x04\n      add\n        /* \"TimeAlly.sol\":25949:25996  stakings[msg.sender][_stakingIds[i]].status = 3 */\n      dup2\n      swap1\n      sstore\n      pop\n        /* \"TimeAlly.sol\":26441:26446  token */\n      0x02\n      0x00\n      swap1\n      sload\n      swap1\n      0x0100\n      exp\n      swap1\n      div\n      0xffffffffffffffffffffffffffffffffffffffff\n      and\n        /* \"TimeAlly.sol\":26441:26455  token.transfer */\n      0xffffffffffffffffffffffffffffffffffffffff\n      and\n      0xa9059cbb\n        /* \"TimeAlly.sol\":26456:26466  msg.sender */\n      caller\n        /* \"TimeAlly.sol\":26468:26476  stakings */\n      0x07\n        /* \"TimeAlly.sol\":26468:26488  stakings[msg.sender] */\n      0x00\n        /* \"TimeAlly.sol\":26477:26487  msg.sender */\n      caller\n        /* \"TimeAlly.sol\":26468:26488  stakings[msg.sender] */\n      0xffffffffffffffffffffffffffffffffffffffff\n      and\n      0xffffffffffffffffffffffffffffffffffffffff\n      and\n      dup2\n      mstore\n      0x20\n      add\n      swap1\n      dup2\n      mstore\n      0x20\n      add\n      0x00\n      keccak256\n        /* \"TimeAlly.sol\":26489:26500  _stakingIds */\n      dup6\n        /* \"TimeAlly.sol\":26501:26502  i */\n      dup6\n        /* \"TimeAlly.sol\":26489:26503  _stakingIds[i] */\n      dup2\n      mload\n      dup2\n      lt\n      tag_676\n      jumpi\n      invalid\n    tag_676:\n      0x20\n      mul\n      0x20\n      add\n      add\n      mload\n        /* \"TimeAlly.sol\":26468:26504  stakings[msg.sender][_stakingIds[i]] */\n      dup2\n      sload\n      dup2\n      lt\n      tag_677\n      jumpi\n      invalid\n    tag_677:\n      swap1\n      0x00\n      mstore\n      keccak256(0x00, 0x20)\n      swap1\n      0x09\n      mul\n      add\n        /* \"TimeAlly.sol\":26468:26516  stakings[msg.sender][_stakingIds[i]].exaEsAmount */\n      0x00\n      add\n      sload\n        /* \"TimeAlly.sol\":26441:26517  token.transfer(msg.sender, stakings[msg.sender][_stakingIds[i]].exaEsAmount) */\n      mload(0x40)\n      dup4\n      0xffffffff\n      and\n      0xe0\n      shl\n      dup2\n      mstore\n      0x04\n      add\n      dup1\n      dup4\n      0xffffffffffffffffffffffffffffffffffffffff\n      and\n      0xffffffffffffffffffffffffffffffffffffffff\n      and\n      dup2\n      mstore\n      0x20\n      add\n      dup3\n      dup2\n      mstore\n      0x20\n      add\n      swap3\n      pop\n      pop\n      pop\n      0x20\n      mload(0x40)\n      dup1\n      dup4\n      sub\n      dup2\n      0x00\n      dup8\n      dup1\n      extcodesize\n      iszero\n        /* \"--CODEGEN--\":8:17   */\n      dup1\n        /* \"--CODEGEN--\":5:7   */\n      iszero\n      tag_679\n      jumpi\n        /* \"--CODEGEN--\":30:31   */\n      0x00\n        /* \"--CODEGEN--\":27:28   */\n      dup1\n        /* \"--CODEGEN--\":20:32   */\n      revert\n        /* \"--CODEGEN--\":5:7   */\n    tag_679:\n        /* \"TimeAlly.sol\":26441:26517  token.transfer(msg.sender, stakings[msg.sender][_stakingIds[i]].exaEsAmount) */\n      pop\n      gas\n      call\n      iszero\n        /* \"--CODEGEN--\":8:17   */\n      dup1\n        /* \"--CODEGEN--\":5:7   */\n      iszero\n      tag_680\n      jumpi\n        /* \"--CODEGEN--\":45:61   */\n      returndatasize\n        /* \"--CODEGEN--\":42:43   */\n      0x00\n        /* \"--CODEGEN--\":39:40   */\n      dup1\n        /* \"--CODEGEN--\":24:62   */\n      returndatacopy\n        /* \"--CODEGEN--\":77:93   */\n      returndatasize\n        /* \"--CODEGEN--\":74:75   */\n      0x00\n        /* \"--CODEGEN--\":67:94   */\n      revert\n        /* \"--CODEGEN--\":5:7   */\n    tag_680:\n        /* \"TimeAlly.sol\":26441:26517  token.transfer(msg.sender, stakings[msg.sender][_stakingIds[i]].exaEsAmount) */\n      pop\n      pop\n      pop\n      pop\n      mload(0x40)\n      returndatasize\n        /* \"--CODEGEN--\":13:15   */\n      0x20\n        /* \"--CODEGEN--\":8:11   */\n      dup2\n        /* \"--CODEGEN--\":5:16   */\n      lt\n        /* \"--CODEGEN--\":2:4   */\n      iszero\n      tag_681\n      jumpi\n        /* \"--CODEGEN--\":29:30   */\n      0x00\n        /* \"--CODEGEN--\":26:27   */\n      dup1\n        /* \"--CODEGEN--\":19:31   */\n      revert\n        /* \"--CODEGEN--\":2:4   */\n    tag_681:\n        /* \"TimeAlly.sol\":26441:26517  token.transfer(msg.sender, stakings[msg.sender][_stakingIds[i]].exaEsAmount) */\n      dup2\n      add\n      swap1\n      dup1\n      dup1\n      mload\n      swap1\n      0x20\n      add\n      swap1\n      swap3\n      swap2\n      swap1\n      pop\n      pop\n      pop\n      pop\n        /* \"TimeAlly.sol\":26589:26599  msg.sender */\n      caller\n        /* \"TimeAlly.sol\":26570:26616  PrincipalWithdrawl(msg.sender, _stakingIds[i]) */\n      0xffffffffffffffffffffffffffffffffffffffff\n      and\n      0x4854321cc9be1d947b907185d497d36fe671cfb8f0dcbcdc84a01be76f81bff2\n        /* \"TimeAlly.sol\":26601:26612  _stakingIds */\n      dup4\n        /* \"TimeAlly.sol\":26613:26614  i */\n      dup4\n        /* \"TimeAlly.sol\":26601:26615  _stakingIds[i] */\n      dup2\n      mload\n      dup2\n      lt\n      tag_682\n      jumpi\n      invalid\n    tag_682:\n      0x20\n      mul\n      0x20\n      add\n      add\n      mload\n        /* \"TimeAlly.sol\":26570:26616  PrincipalWithdrawl(msg.sender, _stakingIds[i]) */\n      mload(0x40)\n      dup1\n      dup3\n      dup2\n      mstore\n      0x20\n      add\n      swap2\n      pop\n      pop\n      mload(0x40)\n      dup1\n      swap2\n      sub\n      swap1\n      log2\n        /* \"TimeAlly.sol\":25651:25654  i++ */\n      dup1\n      dup1\n      0x01\n      add\n      swap2\n      pop\n      pop\n        /* \"TimeAlly.sol\":25608:26627  for(uint256 i = 0; i < _stakingIds.length; i++) {... */\n      jump(tag_656)\n    tag_657:\n      pop\n        /* \"TimeAlly.sol\":25528:26633  function withdrawExpiredStakings(uint256[] memory _stakingIds) public {... */\n      pop\n      jump\t// out\n        /* \"TimeAlly.sol\":2335:2355  Eraswap public token */\n    tag_156:\n      0x02\n      0x00\n      swap1\n      sload\n      swap1\n      0x0100\n      exp\n      swap1\n      div\n      0xffffffffffffffffffffffffffffffffffffffff\n      and\n      dup2\n      jump\t// out\n        /* \"SafeMath.sol\":231:652  function mul(uint256 a, uint256 b) internal pure returns (uint256) {... */\n    tag_173:\n        /* \"SafeMath.sol\":289:296  uint256 */\n      0x00\n        /* \"SafeMath.sol\":534:535  0 */\n      dup1\n        /* \"SafeMath.sol\":529:530  a */\n      dup4\n        /* \"SafeMath.sol\":529:535  a == 0 */\n      eq\n        /* \"SafeMath.sol\":525:570  if (a == 0) {... */\n      iszero\n      tag_684\n      jumpi\n        /* \"SafeMath.sol\":558:559  0 */\n      0x00\n        /* \"SafeMath.sol\":551:559  return 0 */\n      swap1\n      pop\n      jump(tag_683)\n        /* \"SafeMath.sol\":525:570  if (a == 0) {... */\n    tag_684:\n        /* \"SafeMath.sol\":580:589  uint256 c */\n      0x00\n        /* \"SafeMath.sol\":596:597  b */\n      dup3\n        /* \"SafeMath.sol\":592:593  a */\n      dup5\n        /* \"SafeMath.sol\":592:597  a * b */\n      mul\n        /* \"SafeMath.sol\":580:597  uint256 c = a * b */\n      swap1\n      pop\n        /* \"SafeMath.sol\":624:625  b */\n      dup3\n        /* \"SafeMath.sol\":619:620  a */\n      dup5\n        /* \"SafeMath.sol\":615:616  c */\n      dup3\n        /* \"SafeMath.sol\":615:620  c / a */\n      dup2\n      tag_685\n      jumpi\n      invalid\n    tag_685:\n      div\n        /* \"SafeMath.sol\":615:625  c / a == b */\n      eq\n        /* \"SafeMath.sol\":607:626  require(c / a == b) */\n      tag_686\n      jumpi\n      0x00\n      dup1\n      revert\n    tag_686:\n        /* \"SafeMath.sol\":644:645  c */\n      dup1\n        /* \"SafeMath.sol\":637:645  return c */\n      swap2\n      pop\n      pop\n        /* \"SafeMath.sol\":231:652  function mul(uint256 a, uint256 b) internal pure returns (uint256) {... */\n    tag_683:\n      swap3\n      swap2\n      pop\n      pop\n      jump\t// out\n        /* \"SafeMath.sol\":1439:1584  function add(uint256 a, uint256 b) internal pure returns (uint256) {... */\n    tag_195:\n        /* \"SafeMath.sol\":1497:1504  uint256 */\n      0x00\n        /* \"SafeMath.sol\":1516:1525  uint256 c */\n      dup1\n        /* \"SafeMath.sol\":1532:1533  b */\n      dup3\n        /* \"SafeMath.sol\":1528:1529  a */\n      dup5\n        /* \"SafeMath.sol\":1528:1533  a + b */\n      add\n        /* \"SafeMath.sol\":1516:1533  uint256 c = a + b */\n      swap1\n      pop\n        /* \"SafeMath.sol\":1556:1557  a */\n      dup4\n        /* \"SafeMath.sol\":1551:1552  c */\n      dup2\n        /* \"SafeMath.sol\":1551:1557  c >= a */\n      lt\n      iszero\n        /* \"SafeMath.sol\":1543:1558  require(c >= a) */\n      tag_688\n      jumpi\n      0x00\n      dup1\n      revert\n    tag_688:\n        /* \"SafeMath.sol\":1576:1577  c */\n      dup1\n        /* \"SafeMath.sol\":1569:1577  return c */\n      swap2\n      pop\n      pop\n        /* \"SafeMath.sol\":1439:1584  function add(uint256 a, uint256 b) internal pure returns (uint256) {... */\n      swap3\n      swap2\n      pop\n      pop\n      jump\t// out\n        /* \"SafeMath.sol\":1211:1356  function sub(uint256 a, uint256 b) internal pure returns (uint256) {... */\n    tag_201:\n        /* \"SafeMath.sol\":1269:1276  uint256 */\n      0x00\n        /* \"SafeMath.sol\":1301:1302  a */\n      dup3\n        /* \"SafeMath.sol\":1296:1297  b */\n      dup3\n        /* \"SafeMath.sol\":1296:1302  b <= a */\n      gt\n      iszero\n        /* \"SafeMath.sol\":1288:1303  require(b <= a) */\n      tag_690\n      jumpi\n      0x00\n      dup1\n      revert\n    tag_690:\n        /* \"SafeMath.sol\":1313:1322  uint256 c */\n      0x00\n        /* \"SafeMath.sol\":1329:1330  b */\n      dup3\n        /* \"SafeMath.sol\":1325:1326  a */\n      dup5\n        /* \"SafeMath.sol\":1325:1330  a - b */\n      sub\n        /* \"SafeMath.sol\":1313:1330  uint256 c = a - b */\n      swap1\n      pop\n        /* \"SafeMath.sol\":1348:1349  c */\n      dup1\n        /* \"SafeMath.sol\":1341:1349  return c */\n      swap2\n      pop\n      pop\n        /* \"SafeMath.sol\":1211:1356  function sub(uint256 a, uint256 b) internal pure returns (uint256) {... */\n      swap3\n      swap2\n      pop\n      pop\n      jump\t// out\n        /* \"SafeMath.sol\":782:1078  function div(uint256 a, uint256 b) internal pure returns (uint256) {... */\n    tag_233:\n        /* \"SafeMath.sol\":840:847  uint256 */\n      0x00\n        /* \"SafeMath.sol\":937:938  0 */\n      dup1\n        /* \"SafeMath.sol\":933:934  b */\n      dup3\n        /* \"SafeMath.sol\":933:938  b > 0 */\n      gt\n        /* \"SafeMath.sol\":925:939  require(b > 0) */\n      tag_692\n      jumpi\n      0x00\n      dup1\n      revert\n    tag_692:\n        /* \"SafeMath.sol\":949:958  uint256 c */\n      0x00\n        /* \"SafeMath.sol\":965:966  b */\n      dup3\n        /* \"SafeMath.sol\":961:962  a */\n      dup5\n        /* \"SafeMath.sol\":961:966  a / b */\n      dup2\n      tag_693\n      jumpi\n      invalid\n    tag_693:\n      div\n        /* \"SafeMath.sol\":949:966  uint256 c = a / b */\n      swap1\n      pop\n        /* \"SafeMath.sol\":1070:1071  c */\n      dup1\n        /* \"SafeMath.sol\":1063:1071  return c */\n      swap2\n      pop\n      pop\n        /* \"SafeMath.sol\":782:1078  function div(uint256 a, uint256 b) internal pure returns (uint256) {... */\n      swap3\n      swap2\n      pop\n      pop\n      jump\t// out\n        /* \"TimeAlly.sol\":794:45401  contract TimeAlly {... */\n    tag_493:\n      dup3\n      dup1\n      sload\n      dup3\n      dup3\n      sstore\n      swap1\n      0x00\n      mstore\n      keccak256(0x00, 0x20)\n      swap1\n      dup2\n      add\n      swap3\n      dup3\n      iszero\n      tag_694\n      jumpi\n      swap2\n      0x20\n      mul\n      dup3\n      add\n    tag_695:\n      dup3\n      dup2\n      gt\n      iszero\n      tag_696\n      jumpi\n      dup3\n      mload\n      dup3\n      sstore\n      swap2\n      0x20\n      add\n      swap2\n      swap1\n      0x01\n      add\n      swap1\n      jump(tag_695)\n    tag_696:\n    tag_694:\n      pop\n      swap1\n      pop\n      tag_697\n      swap2\n      swap1\n      tag_698\n      jump\t// in\n    tag_697:\n      pop\n      swap1\n      jump\t// out\n    tag_698:\n      tag_699\n      swap2\n      swap1\n    tag_700:\n      dup1\n      dup3\n      gt\n      iszero\n      tag_701\n      jumpi\n      0x00\n      dup2\n      0x00\n      swap1\n      sstore\n      pop\n      0x01\n      add\n      jump(tag_700)\n    tag_701:\n      pop\n      swap1\n      jump\n    tag_699:\n      swap1\n      jump\t// out\n\n    auxdata: 0xa265627a7a7230582057020b880586707f935486e05c84e269d0dc1e7d3a0ec7de37857f62517886f364736f6c634300050a0032\n}\n","bytecode":{"linkReferences":{},"object":"6080604052622820706004553480156200001857600080fd5b50604051620061e0380380620061e0833981810160405260408110156200003e57600080fd5b81019080805190602001909291908051906020019092919050505033600160006101000a81548173ffffffffffffffffffffffffffffffffffffffff021916908373ffffffffffffffffffffffffffffffffffffffff16021790555081600260006101000a81548173ffffffffffffffffffffffffffffffffffffffff021916908373ffffffffffffffffffffffffffffffffffffffff16021790555080600360006101000a81548173ffffffffffffffffffffffffffffffffffffffff021916908373ffffffffffffffffffffffffffffffffffffffff160217905550600260009054906101000a900473ffffffffffffffffffffffffffffffffffffffff1673ffffffffffffffffffffffffffffffffffffffff1663b81f90f36040518163ffffffff1660e01b815260040160206040518083038186803b1580156200018557600080fd5b505afa1580156200019a573d6000803e3d6000fd5b505050506040513d6020811015620001b157600080fd5b8101908080519060200190929190505050600081905550600b600090806001815401808255809150509060018203906000526020600020016000909192909190915055505050615fd980620002076000396000f3fe608060405234801561001057600080fd5b50600436106101e55760003560e01c806398c61c371161010f578063da9d8aa0116100a2578063e5fd04e611610071578063e5fd04e614610e7f578063e78c81c414610eb7578063e83f784314610ee5578063fc0c546a14610f9d576101e5565b8063da9d8aa014610d0f578063ddd1b67e14610d3d578063dea6cf4314610d5b578063df90f7ce14610d89576101e5565b8063cc44a2fd116100de578063cc44a2fd14610b41578063d0e3268114610b91578063d1cf31b314610c5d578063d58424a314610c9f576101e5565b806398c61c37146109585780639d0b8b44146109cf578063a4c0e90a14610a91578063ad998fa014610ae9576101e5565b80634f916fb0116101875780637acab857116101565780637acab8571461071c57806388c5f296146107745780638da5cb5b146108c0578063911e8bc61461090a576101e5565b80634f916fb01461060857806353fcb2f314610656578063762e7a3414610684578063778db8d4146106d8576101e5565b806323a15e6b116101c357806323a15e6b1461040c5780632c7797741461044e5780632e9721b6146105445780634ec0692c146105c6576101e5565b80630df5202f146101ea57806316d3e966146102345780631849d8ea14610380575b600080fd5b6101f2610fe7565b604051808273ffffffffffffffffffffffffffffffffffffffff1673ffffffffffffffffffffffffffffffffffffffff16815260200191505060405180910390f35b61037e6004803603604081101561024a57600080fd5b810190808035906020019064010000000081111561026757600080fd5b82018360208201111561027957600080fd5b8035906020019184602083028401116401000000008311171561029b57600080fd5b919080806020026020016040519081016040528093929190818152602001838360200280828437600081840152601f19601f820116905080830192505050505050509192919290803590602001906401000000008111156102fb57600080fd5b82018360208201111561030d57600080fd5b8035906020019184602083028401116401000000008311171561032f57600080fd5b919080806020026020016040519081016040528093929190818152602001838360200280828437600081840152601f19601f82011690508083019250505050505050919291929050505061100d565b005b6103cc6004803603604081101561039657600080fd5b81019080803573ffffffffffffffffffffffffffffffffffffffff16906020019092919080359060200190929190505050611640565b6040518088815260200187815260200186815260200185815260200184815260200183815260200182815260200197505050505050505060405180910390f35b6104386004803603602081101561042257600080fd5b810190808035906020019092919050505061169c565b6040518082815260200191505060405180910390f35b61052e6004803603606081101561046457600080fd5b81019080803573ffffffffffffffffffffffffffffffffffffffff16906020019092919080359060200190929190803590602001906401000000008111156104ab57600080fd5b8201836020820111156104bd57600080fd5b803590602001918460208302840111640100000000831117156104df57600080fd5b919080806020026020016040519081016040528093929190818152602001838360200280828437600081840152601f19601f8201169050808301925050505050505091929192905050506116bd565b6040518082815260200191505060405180910390f35b6105b06004803603606081101561055a57600080fd5b81019080803573ffffffffffffffffffffffffffffffffffffffff16906020019092919080359060200190929190803573ffffffffffffffffffffffffffffffffffffffff16906020019092919050505061192a565b6040518082815260200191505060405180910390f35b6105f2600480360360208110156105dc57600080fd5b81019080803590602001909291905050506119ce565b6040518082815260200191505060405180910390f35b6106546004803603604081101561061e57600080fd5b8101908080359060200190929190803573ffffffffffffffffffffffffffffffffffffffff1690602001909291905050506119e6565b005b6106826004803603602081101561066c57600080fd5b8101908080359060200190929190505050611cc4565b005b6106b06004803603602081101561069a57600080fd5b8101908080359060200190929190505050611e7d565b6040518084815260200183815260200182151515158152602001935050505060405180910390f35b61071a600480360360608110156106ee57600080fd5b810190808035906020019092919080359060200190929190803515159060200190929190505050611ec1565b005b61075e6004803603602081101561073257600080fd5b81019080803573ffffffffffffffffffffffffffffffffffffffff169060200190929190505050611fa1565b6040518082815260200191505060405180910390f35b6108be6004803603604081101561078a57600080fd5b81019080803590602001906401000000008111156107a757600080fd5b8201836020820111156107b957600080fd5b803590602001918460208302840111640100000000831117156107db57600080fd5b919080806020026020016040519081016040528093929190818152602001838360200280828437600081840152601f19601f8201169050808301925050505050505091929192908035906020019064010000000081111561083b57600080fd5b82018360208201111561084d57600080fd5b8035906020019184602083028401116401000000008311171561086f57600080fd5b919080806020026020016040519081016040528093929190818152602001838360200280828437600081840152601f19601f820116905080830192505050505050509192919290505050611fb9565b005b6108c86121aa565b604051808273ffffffffffffffffffffffffffffffffffffffff1673ffffffffffffffffffffffffffffffffffffffff16815260200191505060405180910390f35b6109566004803603604081101561092057600080fd5b81019080803573ffffffffffffffffffffffffffffffffffffffff169060200190929190803590602001909291905050506121d0565b005b6109a46004803603604081101561096e57600080fd5b81019080803573ffffffffffffffffffffffffffffffffffffffff16906020019092919080359060200190929190505050612c42565b6040518085815260200184815260200183815260200182815260200194505050505060405180910390f35b610a8f600480360360408110156109e557600080fd5b810190808035906020019092919080359060200190640100000000811115610a0c57600080fd5b820183602082011115610a1e57600080fd5b80359060200191846020830284011164010000000083111715610a4057600080fd5b919080806020026020016040519081016040528093929190818152602001838360200280828437600081840152601f19601f820116905080830192505050505050509192919290505050612c8c565b005b610ae760048036036060811015610aa757600080fd5b8101908080359060200190929190803573ffffffffffffffffffffffffffffffffffffffff169060200190929190803590602001909291905050506133b1565b005b610b2b60048036036020811015610aff57600080fd5b81019080803573ffffffffffffffffffffffffffffffffffffffff169060200190929190505050613688565b6040518082815260200191505060405180910390f35b610b6d60048036036020811015610b5757600080fd5b81019080803590602001909291905050506136d4565b60405180848152602001838152602001828152602001935050505060405180910390f35b610c5b60048036036060811015610ba757600080fd5b81019080803590602001909291908035906020019092919080359060200190640100000000811115610bd857600080fd5b820183602082011115610bea57600080fd5b80359060200191846020830284011164010000000083111715610c0c57600080fd5b919080806020026020016040519081016040528093929190818152602001838360200280828437600081840152601f19601f82011690508083019250505050505050919291929050505061370b565b005b610c9d60048036036060811015610c7357600080fd5b810190808035906020019092919080359060200190929190803590602001909291905050506142a6565b005b610cf560048036036060811015610cb557600080fd5b81019080803573ffffffffffffffffffffffffffffffffffffffff169060200190929190803590602001909291908035906020019092919050505061437c565b604051808215151515815260200191505060405180910390f35b610d3b60048036036020811015610d2557600080fd5b81019080803590602001909291905050506146e7565b005b610d45614a6d565b6040518082815260200191505060405180910390f35b610d8760048036036020811015610d7157600080fd5b8101908080359060200190929190505050614a7d565b005b610e6960048036036060811015610d9f57600080fd5b81019080803573ffffffffffffffffffffffffffffffffffffffff16906020019092919080359060200190640100000000811115610ddc57600080fd5b820183602082011115610dee57600080fd5b80359060200191846020830284011164010000000083111715610e1057600080fd5b919080806020026020016040519081016040528093929190818152602001838360200280828437600081840152601f19601f82011690508083019250505050505050919291929080359060200190929190505050615248565b6040518082815260200191505060405180910390f35b610eb560048036036040811015610e9557600080fd5b8101908080359060200190929190803590602001909291905050506155ee565b005b610ee360048036036020811015610ecd57600080fd5b81019080803590602001909291905050506159cd565b005b610f9b60048036036020811015610efb57600080fd5b8101908080359060200190640100000000811115610f1857600080fd5b820183602082011115610f2a57600080fd5b80359060200191846020830284011164010000000083111715610f4c57600080fd5b919080806020026020016040519081016040528093929190818152602001838360200280828437600081840152601f19601f820116905080830192505050505050509192919290505050615a56565b005b610fa5615e6d565b604051808273ffffffffffffffffffffffffffffffffffffffff1673ffffffffffffffffffffffffffffffffffffffff16815260200191505060405180910390f35b600360009054906101000a900473ffffffffffffffffffffffffffffffffffffffff1681565b600080600090505b83518110156114725760016008600086848151811061103057fe5b602002602001015173ffffffffffffffffffffffffffffffffffffffff1673ffffffffffffffffffffffffffffffffffffffff16815260200190815260200160002084838151811061107e57fe5b60200260200101518154811061109057fe5b906000526020600020906005020160030154146110ac57600080fd5b6111606004546006600860008886815181106110c457fe5b602002602001015173ffffffffffffffffffffffffffffffffffffffff1673ffffffffffffffffffffffffffffffffffffffff16815260200190815260200160002086858151811061111257fe5b60200260200101518154811061112457fe5b9060005260206000209060050201600201548154811061114057fe5b906000526020600020906003020160000154615e9390919063ffffffff16565b6008600086848151811061117057fe5b602002602001015173ffffffffffffffffffffffffffffffffffffffff1673ffffffffffffffffffffffffffffffffffffffff1681526020019081526020016000208483815181106111be57fe5b6020026020010151815481106111d057fe5b90600052602060002090600502016001015401600260009054906101000a900473ffffffffffffffffffffffffffffffffffffffff1673ffffffffffffffffffffffffffffffffffffffff1663b81f90f36040518163ffffffff1660e01b815260040160206040518083038186803b15801561124b57600080fd5b505afa15801561125f573d6000803e3d6000fd5b505050506040513d602081101561127557600080fd5b81019080805190602001909291905050501161129057600080fd5b6000600860008684815181106112a257fe5b602002602001015173ffffffffffffffffffffffffffffffffffffffff1673ffffffffffffffffffffffffffffffffffffffff1681526020019081526020016000208483815181106112f057fe5b60200260200101518154811061130257fe5b9060005260206000209060050201600401905060008090505b81805490508110156113cd576113be6007600088868151811061133a57fe5b602002602001015173ffffffffffffffffffffffffffffffffffffffff1673ffffffffffffffffffffffffffffffffffffffff16815260200190815260200160002083838154811061138857fe5b90600052602060002001548154811061139d57fe5b90600052602060002090600902016000015485615ecd90919063ffffffff16565b9350808060010191505061131b565b50611462600860008785815181106113e157fe5b602002602001015173ffffffffffffffffffffffffffffffffffffffff1673ffffffffffffffffffffffffffffffffffffffff16815260200190815260200160002085848151811061142f57fe5b60200260200101518154811061144157fe5b90600052602060002090600502016000015484615eec90919063ffffffff16565b9250508080600101915050611015565b50600260009054906101000a900473ffffffffffffffffffffffffffffffffffffffff1673ffffffffffffffffffffffffffffffffffffffff1663a9059cbb600360009054906101000a900473ffffffffffffffffffffffffffffffffffffffff16836040518363ffffffff1660e01b8152600401808373ffffffffffffffffffffffffffffffffffffffff1673ffffffffffffffffffffffffffffffffffffffff16815260200182815260200192505050602060405180830381600087803b15801561153e57600080fd5b505af1158015611552573d6000803e3d6000fd5b505050506040513d602081101561156857600080fd5b810190808051906020019092919050505061158257600080fd5b600360009054906101000a900473ffffffffffffffffffffffffffffffffffffffff1673ffffffffffffffffffffffffffffffffffffffff166341aaa9b6826040518263ffffffff1660e01b815260040180828152602001915050602060405180830381600087803b1580156115f757600080fd5b505af115801561160b573d6000803e3d6000fd5b505050506040513d602081101561162157600080fd5b810190808051906020019092919050505061163b57600080fd5b505050565b6007602052816000526040600020818154811061165957fe5b9060005260206000209060090201600091509150508060000154908060010154908060020154908060030154908060040154908060050154908060060154905087565b600b81815481106116a957fe5b906000526020600020016000915090505481565b60008060008090505b8351811015611880576116ed86868684815181106116e057fe5b602002602001015161437c565b80156117835750600760008773ffffffffffffffffffffffffffffffffffffffff1673ffffffffffffffffffffffffffffffffffffffff168152602001908152602001600020858154811061173e57fe5b9060005260206000209060090201600701600085838151811061175d57fe5b6020026020010151815260200190815260200160002060009054906101000a900460ff16155b1561187357600061185a600a600087858151811061179d57fe5b602002602001015181526020019081526020016000205461184c600b8886815181106117c557fe5b6020026020010151815481106117d757fe5b9060005260206000200154600760008c73ffffffffffffffffffffffffffffffffffffffff1673ffffffffffffffffffffffffffffffffffffffff1681526020019081526020016000208a8154811061182c57fe5b906000526020600020906009020160000154615e9390919063ffffffff16565b615f0c90919063ffffffff16565b905061186f8184615ecd90919063ffffffff16565b9250505b80806001019150506116c6565b50611920600f6119126005600760008a73ffffffffffffffffffffffffffffffffffffffff1673ffffffffffffffffffffffffffffffffffffffff16815260200190815260200160002088815481106118d557fe5b906000526020600020906009020160030154815481106118f157fe5b90600052602060002090600302016001015484615e9390919063ffffffff16565b615f0c90919063ffffffff16565b9150509392505050565b6000600760008573ffffffffffffffffffffffffffffffffffffffff1673ffffffffffffffffffffffffffffffffffffffff168152602001908152602001600020838154811061197657fe5b906000526020600020906009020160080160008373ffffffffffffffffffffffffffffffffffffffff1673ffffffffffffffffffffffffffffffffffffffff1681526020019081526020016000205490509392505050565b600a6020528060005260406000206000915090505481565b6001600760003373ffffffffffffffffffffffffffffffffffffffff1673ffffffffffffffffffffffffffffffffffffffff1681526020019081526020016000208381548110611a3257fe5b90600052602060002090600902016004015414611ab7576040517f08c379a00000000000000000000000000000000000000000000000000000000081526004018080602001828103825260158152602001807f7374616b696e672073686f756c6420616374697665000000000000000000000081525060200191505060405180910390fd5b6000600760003373ffffffffffffffffffffffffffffffffffffffff1673ffffffffffffffffffffffffffffffffffffffff1681526020019081526020016000208381548110611b0357fe5b906000526020600020906009020160080160003373ffffffffffffffffffffffffffffffffffffffff1673ffffffffffffffffffffffffffffffffffffffff1681526020019081526020016000205490506000600760003373ffffffffffffffffffffffffffffffffffffffff1673ffffffffffffffffffffffffffffffffffffffff1681526020019081526020016000208481548110611ba057fe5b906000526020600020906009020160080160008473ffffffffffffffffffffffffffffffffffffffff1673ffffffffffffffffffffffffffffffffffffffff16815260200190815260200160002081905550611c6081600760003373ffffffffffffffffffffffffffffffffffffffff1673ffffffffffffffffffffffffffffffffffffffff1681526020019081526020016000208581548110611c4057fe5b906000526020600020906009020160060154615eec90919063ffffffff16565b600760003373ffffffffffffffffffffffffffffffffffffffff1673ffffffffffffffffffffffffffffffffffffffff1681526020019081526020016000208481548110611caa57fe5b906000526020600020906009020160060181905550505050565b600260009054906101000a900473ffffffffffffffffffffffffffffffffffffffff1673ffffffffffffffffffffffffffffffffffffffff166323b872dd3330846040518463ffffffff1660e01b8152600401808473ffffffffffffffffffffffffffffffffffffffff1673ffffffffffffffffffffffffffffffffffffffff1681526020018373ffffffffffffffffffffffffffffffffffffffff1673ffffffffffffffffffffffffffffffffffffffff1681526020018281526020019350505050602060405180830381600087803b158015611da157600080fd5b505af1158015611db5573d6000803e3d6000fd5b505050506040513d6020811015611dcb57600080fd5b8101908080519060200190929190505050611de557600080fd5b611e3781600960003373ffffffffffffffffffffffffffffffffffffffff1673ffffffffffffffffffffffffffffffffffffffff16815260200190815260200160002054615ecd90919063ffffffff16565b600960003373ffffffffffffffffffffffffffffffffffffffff1673ffffffffffffffffffffffffffffffffffffffff1681526020019081526020016000208190555050565b60058181548110611e8a57fe5b90600052602060002090600302016000915090508060000154908060010154908060020160009054906101000a900460ff16905083565b600160009054906101000a900473ffffffffffffffffffffffffffffffffffffffff1673ffffffffffffffffffffffffffffffffffffffff163373ffffffffffffffffffffffffffffffffffffffff1614611f1b57600080fd5b6005604051806060016040528085815260200184815260200183151581525090806001815401808255809150509060018203906000526020600020906003020160009091929091909150600082015181600001556020820151816001015560408201518160020160006101000a81548160ff021916908315150217905550505050505050565b60096020528060005260406000206000915090505481565b600160009054906101000a900473ffffffffffffffffffffffffffffffffffffffff1673ffffffffffffffffffffffffffffffffffffffff163373ffffffffffffffffffffffffffffffffffffffff161461201357600080fd5b60008090505b82518110156121a55761208782828151811061203157fe5b6020026020010151600960003373ffffffffffffffffffffffffffffffffffffffff1673ffffffffffffffffffffffffffffffffffffffff16815260200190815260200160002054615eec90919063ffffffff16565b600960003373ffffffffffffffffffffffffffffffffffffffff1673ffffffffffffffffffffffffffffffffffffffff168152602001908152602001600020819055506121428282815181106120d957fe5b6020026020010151600960008685815181106120f157fe5b602002602001015173ffffffffffffffffffffffffffffffffffffffff1673ffffffffffffffffffffffffffffffffffffffff16815260200190815260200160002054615ecd90919063ffffffff16565b6009600085848151811061215257fe5b602002602001015173ffffffffffffffffffffffffffffffffffffffff1673ffffffffffffffffffffffffffffffffffffffff168152602001908152602001600020819055508080600101915050612019565b505050565b600160009054906101000a900473ffffffffffffffffffffffffffffffffffffffff1681565b6000600260009054906101000a900473ffffffffffffffffffffffffffffffffffffffff1673ffffffffffffffffffffffffffffffffffffffff1663b81f90f36040518163ffffffff1660e01b815260040160206040518083038186803b15801561223a57600080fd5b505afa15801561224e573d6000803e3d6000fd5b505050506040513d602081101561226457600080fd5b81019080805190602001909291905050509050600454600c026004546005600760008773ffffffffffffffffffffffffffffffffffffffff1673ffffffffffffffffffffffffffffffffffffffff16815260200190815260200160002085815481106122cc57fe5b906000526020600020906009020160030154815481106122e857fe5b90600052602060002090600302016000015402600760008673ffffffffffffffffffffffffffffffffffffffff1673ffffffffffffffffffffffffffffffffffffffff168152602001908152602001600020848154811061234557fe5b9060005260206000209060090201600101540101811161236457600080fd5b6000600760008573ffffffffffffffffffffffffffffffffffffffff1673ffffffffffffffffffffffffffffffffffffffff16815260200190815260200160002083815481106123b057fe5b906000526020600020906009020160080160003373ffffffffffffffffffffffffffffffffffffffff1673ffffffffffffffffffffffffffffffffffffffff1681526020019081526020016000205490506000811161240e57600080fd5b6005600760008673ffffffffffffffffffffffffffffffffffffffff1673ffffffffffffffffffffffffffffffffffffffff168152602001908152602001600020848154811061245a57fe5b906000526020600020906009020160040154146124d3576005600760008673ffffffffffffffffffffffffffffffffffffffff1673ffffffffffffffffffffffffffffffffffffffff16815260200190815260200160002084815481106124bd57fe5b9060005260206000209060090201600401819055505b6000600760008673ffffffffffffffffffffffffffffffffffffffff1673ffffffffffffffffffffffffffffffffffffffff168152602001908152602001600020848154811061251f57fe5b90600052602060002090600902016000015490506000806005600760008973ffffffffffffffffffffffffffffffffffffffff1673ffffffffffffffffffffffffffffffffffffffff168152602001908152602001600020878154811061258257fe5b9060005260206000209060090201600301548154811061259e57fe5b906000526020600020906003020160000154600760008973ffffffffffffffffffffffffffffffffffffffff1673ffffffffffffffffffffffffffffffffffffffff16815260200190815260200160002087815481106125fa57fe5b9060005260206000209060090201600201540190506000600760008973ffffffffffffffffffffffffffffffffffffffff1673ffffffffffffffffffffffffffffffffffffffff168152602001908152602001600020878154811061265b57fe5b90600052602060002090600902016002015490505b818110156128a857600760008973ffffffffffffffffffffffffffffffffffffffff1673ffffffffffffffffffffffffffffffffffffffff16815260200190815260200160002087815481106126c257fe5b9060005260206000209060090201600701600082815260200190815260200160002060009054906101000a900460ff161561289b5760006127f3600f6127e56005600760008e73ffffffffffffffffffffffffffffffffffffffff1673ffffffffffffffffffffffffffffffffffffffff1681526020019081526020016000208c8154811061274d57fe5b9060005260206000209060090201600301548154811061276957fe5b906000526020600020906003020160010154600760008e73ffffffffffffffffffffffffffffffffffffffff1673ffffffffffffffffffffffffffffffffffffffff1681526020019081526020016000208c815481106127c557fe5b906000526020600020906009020160000154615e9390919063ffffffff16565b615f0c90919063ffffffff16565b90506000612846600a600085815260200190815260200160002054612838600b868154811061281e57fe5b906000526020600020015485615e9390919063ffffffff16565b615f0c90919063ffffffff16565b905061286e61285f600283615f0c90919063ffffffff16565b87615ecd90919063ffffffff16565b9550612896612887600283615f0c90919063ffffffff16565b86615ecd90919063ffffffff16565b945050505b8080600101915050612670565b506000600760008973ffffffffffffffffffffffffffffffffffffffff1673ffffffffffffffffffffffffffffffffffffffff16815260200190815260200160002087815481106128f557fe5b906000526020600020906009020160080160003373ffffffffffffffffffffffffffffffffffffffff1673ffffffffffffffffffffffffffffffffffffffff1681526020019081526020016000208190555060006129c9600760008a73ffffffffffffffffffffffffffffffffffffffff1673ffffffffffffffffffffffffffffffffffffffff168152602001908152602001600020888154811061299657fe5b9060005260206000209060090201600601546129bb8787615e9390919063ffffffff16565b615f0c90919063ffffffff16565b9050600260009054906101000a900473ffffffffffffffffffffffffffffffffffffffff1673ffffffffffffffffffffffffffffffffffffffff1663a9059cbb33836040518363ffffffff1660e01b8152600401808373ffffffffffffffffffffffffffffffffffffffff1673ffffffffffffffffffffffffffffffffffffffff16815260200182815260200192505050602060405180830381600087803b158015612a7457600080fd5b505af1158015612a88573d6000803e3d6000fd5b505050506040513d6020811015612a9e57600080fd5b8101908080519060200190929190505050506000612b32600760008b73ffffffffffffffffffffffffffffffffffffffff1673ffffffffffffffffffffffffffffffffffffffff1681526020019081526020016000208981548110612aff57fe5b906000526020600020906009020160060154612b248887615e9390919063ffffffff16565b615f0c90919063ffffffff16565b9050612b8681600960003373ffffffffffffffffffffffffffffffffffffffff1673ffffffffffffffffffffffffffffffffffffffff16815260200190815260200160002054615ecd90919063ffffffff16565b600960003373ffffffffffffffffffffffffffffffffffffffff1673ffffffffffffffffffffffffffffffffffffffff168152602001908152602001600020819055503373ffffffffffffffffffffffffffffffffffffffff16888a73ffffffffffffffffffffffffffffffffffffffff167fa54cec59552c7f022eed79ede59f759697aa5787f43b11d61f17bfc5adaffb658585604051808381526020018281526020019250505060405180910390a4505050505050505050565b60086020528160005260406000208181548110612c5b57fe5b9060005260206000209060050201600091509150508060000154908060010154908060020154908060030154905084565b600080600090505b8251811015612ee657612cbb3385858481518110612cae57fe5b602002602001015161437c565b8015612d515750600760003373ffffffffffffffffffffffffffffffffffffffff1673ffffffffffffffffffffffffffffffffffffffff1681526020019081526020016000208481548110612d0c57fe5b90600052602060002090600902016007016000848381518110612d2b57fe5b6020026020010151815260200190815260200160002060009054906101000a900460ff16155b15612ed9576000612e28600a6000868581518110612d6b57fe5b6020026020010151815260200190815260200160002054612e1a600b878681518110612d9357fe5b602002602001015181548110612da557fe5b9060005260206000200154600760003373ffffffffffffffffffffffffffffffffffffffff1673ffffffffffffffffffffffffffffffffffffffff1681526020019081526020016000208981548110612dfa57fe5b906000526020600020906009020160000154615e9390919063ffffffff16565b615f0c90919063ffffffff16565b9050612e3d8184615ecd90919063ffffffff16565b92506001600760003373ffffffffffffffffffffffffffffffffffffffff1673ffffffffffffffffffffffffffffffffffffffff1681526020019081526020016000208681548110612e8b57fe5b90600052602060002090600902016007016000868581518110612eaa57fe5b6020026020010151815260200190815260200160002060006101000a81548160ff021916908315150217905550505b8080600101915050612c94565b506000612f9b600f612f8d612f7e6005600760003373ffffffffffffffffffffffffffffffffffffffff1673ffffffffffffffffffffffffffffffffffffffff1681526020019081526020016000208981548110612f4057fe5b90600052602060002090600902016003015481548110612f5c57fe5b906000526020600020906003020160010154600f615eec90919063ffffffff16565b85615e9390919063ffffffff16565b615f0c90919063ffffffff16565b9050600260009054906101000a900473ffffffffffffffffffffffffffffffffffffffff1673ffffffffffffffffffffffffffffffffffffffff1663a9059cbb600360009054906101000a900473ffffffffffffffffffffffffffffffffffffffff16836040518363ffffffff1660e01b8152600401808373ffffffffffffffffffffffffffffffffffffffff1673ffffffffffffffffffffffffffffffffffffffff16815260200182815260200192505050602060405180830381600087803b15801561306857600080fd5b505af115801561307c573d6000803e3d6000fd5b505050506040513d602081101561309257600080fd5b81019080805190602001909291905050506130ac57600080fd5b600360009054906101000a900473ffffffffffffffffffffffffffffffffffffffff1673ffffffffffffffffffffffffffffffffffffffff1663382e2aab826040518263ffffffff1660e01b815260040180828152602001915050602060405180830381600087803b15801561312157600080fd5b505af1158015613135573d6000803e3d6000fd5b505050506040513d602081101561314b57600080fd5b810190808051906020019092919050505061316557600080fd5b6131788183615eec90919063ffffffff16565b91506000613190600284615f0c90919063ffffffff16565b9050600260009054906101000a900473ffffffffffffffffffffffffffffffffffffffff1673ffffffffffffffffffffffffffffffffffffffff1663a9059cbb33836040518363ffffffff1660e01b8152600401808373ffffffffffffffffffffffffffffffffffffffff1673ffffffffffffffffffffffffffffffffffffffff16815260200182815260200192505050602060405180830381600087803b15801561323b57600080fd5b505af115801561324f573d6000803e3d6000fd5b505050506040513d602081101561326557600080fd5b810190808051906020019092919050505061327f57600080fd5b6132d181600960003373ffffffffffffffffffffffffffffffffffffffff1673ffffffffffffffffffffffffffffffffffffffff16815260200190815260200160002054615ecd90919063ffffffff16565b600960003373ffffffffffffffffffffffffffffffffffffffff1673ffffffffffffffffffffffffffffffffffffffff168152602001908152602001600020819055503373ffffffffffffffffffffffffffffffffffffffff167ec175c46cbac099c5f7ce60e88a74274b428ae1c2e5efeb1ef48b13ff384a4c85836040518080602001838152602001828103825284818151815260200191508051906020019060200280838360005b8381101561339657808201518184015260208101905061337b565b50505050905001935050505060405180910390a25050505050565b6001600760003373ffffffffffffffffffffffffffffffffffffffff1673ffffffffffffffffffffffffffffffffffffffff16815260200190815260200160002084815481106133fd57fe5b9060005260206000209060090201600401541461341957600080fd5b6000600760003373ffffffffffffffffffffffffffffffffffffffff1673ffffffffffffffffffffffffffffffffffffffff168152602001908152602001600020848154811061346557fe5b906000526020600020906009020160080160008473ffffffffffffffffffffffffffffffffffffffff1673ffffffffffffffffffffffffffffffffffffffff16815260200190815260200160002054146134be57600080fd5b61352c81600760003373ffffffffffffffffffffffffffffffffffffffff1673ffffffffffffffffffffffffffffffffffffffff168152602001908152602001600020858154811061350c57fe5b906000526020600020906009020160060154615ecd90919063ffffffff16565b600760003373ffffffffffffffffffffffffffffffffffffffff1673ffffffffffffffffffffffffffffffffffffffff168152602001908152602001600020848154811061357657fe5b90600052602060002090600902016006018190555080600760003373ffffffffffffffffffffffffffffffffffffffff1673ffffffffffffffffffffffffffffffffffffffff16815260200190815260200160002084815481106135d657fe5b906000526020600020906009020160080160008473ffffffffffffffffffffffffffffffffffffffff1673ffffffffffffffffffffffffffffffffffffffff168152602001908152602001600020819055508173ffffffffffffffffffffffffffffffffffffffff16833373ffffffffffffffffffffffffffffffffffffffff167fc4e7fb51a42ce926bb404f8024c3c91a40af0654d9a96ada67c329b9c9bee4a260405160405180910390a4505050565b6000600760008373ffffffffffffffffffffffffffffffffffffffff1673ffffffffffffffffffffffffffffffffffffffff168152602001908152602001600020805490509050919050565b600681815481106136e157fe5b90600052602060002090600302016000915090508060000154908060010154908060020154905083565b6000613715614a6d565b9050600080600090505b8351811015613d4e576137463385838151811061373857fe5b60200260200101518561437c565b80156139ca57506005600760003373ffffffffffffffffffffffffffffffffffffffff1673ffffffffffffffffffffffffffffffffffffffff16815260200190815260200160002085838151811061379a57fe5b6020026020010151815481106137ac57fe5b906000526020600020906009020160030154815481106137c857fe5b906000526020600020906003020160020160009054906101000a900460ff16806139c957506138b460646138a6604b6138986004546005600760003373ffffffffffffffffffffffffffffffffffffffff1673ffffffffffffffffffffffffffffffffffffffff1681526020019081526020016000208b898151811061384a57fe5b60200260200101518154811061385c57fe5b9060005260206000209060090201600301548154811061387857fe5b906000526020600020906003020160000154615e9390919063ffffffff16565b615e9390919063ffffffff16565b615f0c90919063ffffffff16565b600760003373ffffffffffffffffffffffffffffffffffffffff1673ffffffffffffffffffffffffffffffffffffffff1681526020019081526020016000208583815181106138ff57fe5b60200260200101518154811061391157fe5b90600052602060002090600902016001015401600260009054906101000a900473ffffffffffffffffffffffffffffffffffffffff1673ffffffffffffffffffffffffffffffffffffffff1663b81f90f36040518163ffffffff1660e01b815260040160206040518083038186803b15801561398c57600080fd5b505afa1580156139a0573d6000803e3d6000fd5b505050506040513d60208110156139b657600080fd5b8101908080519060200190929190505050115b5b15613d4157613a93613a846064613a7660068a815481106139e757fe5b906000526020600020906003020160020154600760003373ffffffffffffffffffffffffffffffffffffffff1673ffffffffffffffffffffffffffffffffffffffff168152602001908152602001600020898781518110613a4457fe5b602002602001015181548110613a5657fe5b906000526020600020906009020160000154615e9390919063ffffffff16565b615f0c90919063ffffffff16565b83615ecd90919063ffffffff16565b91506000600760003373ffffffffffffffffffffffffffffffffffffffff1673ffffffffffffffffffffffffffffffffffffffff168152602001908152602001600020858381518110613ae257fe5b602002602001015181548110613af457fe5b906000526020600020906009020160020154905060006005600760003373ffffffffffffffffffffffffffffffffffffffff1673ffffffffffffffffffffffffffffffffffffffff168152602001908152602001600020878581518110613b5757fe5b602002602001015181548110613b6957fe5b90600052602060002090600902016003015481548110613b8557fe5b9060005260206000209060030201600001548201905060006001860190505b818111613bf557613bd185600a600084815260200190815260200160002054615eec90919063ffffffff16565b600a6000838152602001908152602001600020819055508080600101915050613ba4565b506000600190505b60068981548110613c0a57fe5b9060005260206000209060030201600001548111613d3d576001600760003373ffffffffffffffffffffffffffffffffffffffff1673ffffffffffffffffffffffffffffffffffffffff168152602001908152602001600020888681518110613c6f57fe5b602002602001015181548110613c8157fe5b90600052602060002090600902016007016000838901815260200190815260200160002060006101000a81548160ff0219169083151502179055506002600760003373ffffffffffffffffffffffffffffffffffffffff1673ffffffffffffffffffffffffffffffffffffffff168152602001908152602001600020888681518110613d0957fe5b602002602001015181548110613d1b57fe5b9060005260206000209060090201600401819055508080600101915050613bfd565b5050505b808060010191505061371f565b50600081905080851115613d68576000613d6757600080fd5b5b6000613dae6064613da060068a81548110613d7f57fe5b90600052602060002090600302016001015489615e9390919063ffffffff16565b615f0c90919063ffffffff16565b90506000613dc58288615eec90919063ffffffff16565b9050600260009054906101000a900473ffffffffffffffffffffffffffffffffffffffff1673ffffffffffffffffffffffffffffffffffffffff1663a9059cbb600360009054906101000a900473ffffffffffffffffffffffffffffffffffffffff16846040518363ffffffff1660e01b8152600401808373ffffffffffffffffffffffffffffffffffffffff1673ffffffffffffffffffffffffffffffffffffffff16815260200182815260200192505050602060405180830381600087803b158015613e9257600080fd5b505af1158015613ea6573d6000803e3d6000fd5b505050506040513d6020811015613ebc57600080fd5b8101908080519060200190929190505050613ed657600080fd5b600360009054906101000a900473ffffffffffffffffffffffffffffffffffffffff1673ffffffffffffffffffffffffffffffffffffffff1663382e2aab836040518263ffffffff1660e01b815260040180828152602001915050602060405180830381600087803b158015613f4b57600080fd5b505af1158015613f5f573d6000803e3d6000fd5b505050506040513d6020811015613f7557600080fd5b8101908080519060200190929190505050613f8f57600080fd5b600860003373ffffffffffffffffffffffffffffffffffffffff1673ffffffffffffffffffffffffffffffffffffffff1681526020019081526020016000206040518060a00160405280898152602001600260009054906101000a900473ffffffffffffffffffffffffffffffffffffffff1673ffffffffffffffffffffffffffffffffffffffff1663b81f90f36040518163ffffffff1660e01b815260040160206040518083038186803b15801561404757600080fd5b505afa15801561405b573d6000803e3d6000fd5b505050506040513d602081101561407157600080fd5b810190808051906020019092919050505081526020018a8152602001600181526020018881525090806001815401808255809150509060018203906000526020600020906005020160009091929091909150600082015181600001556020820151816001015560408201518160020155606082015181600301556080820151816004019080519060200190614107929190615f32565b50505050600260009054906101000a900473ffffffffffffffffffffffffffffffffffffffff1673ffffffffffffffffffffffffffffffffffffffff1663a9059cbb33836040518363ffffffff1660e01b8152600401808373ffffffffffffffffffffffffffffffffffffffff1673ffffffffffffffffffffffffffffffffffffffff16815260200182815260200192505050602060405180830381600087803b1580156141b457600080fd5b505af11580156141c8573d6000803e3d6000fd5b505050506040513d60208110156141de57600080fd5b81019080805190602001909291905050506141f857600080fd5b873373ffffffffffffffffffffffffffffffffffffffff167f583f4a449110798c282200ea42774808b8147fa4bcb89a6ca406dd0650e034e789856001600860003373ffffffffffffffffffffffffffffffffffffffff1673ffffffffffffffffffffffffffffffffffffffff168152602001908152602001600020805490500360405180848152602001838152602001828152602001935050505060405180910390a35050505050505050565b600160009054906101000a900473ffffffffffffffffffffffffffffffffffffffff1673ffffffffffffffffffffffffffffffffffffffff163373ffffffffffffffffffffffffffffffffffffffff161461430057600080fd5b606481111561430e57600080fd5b600660405180606001604052808581526020018481526020018381525090806001815401808255809150509060018203906000526020600020906003020160009091929091909150600082015181600001556020820151816001015560408201518160020155505050505050565b6000816001600760008773ffffffffffffffffffffffffffffffffffffffff1673ffffffffffffffffffffffffffffffffffffffff16815260200190815260200160002085815481106143cb57fe5b90600052602060002090600902016002015401111580156144c25750816005600760008773ffffffffffffffffffffffffffffffffffffffff1673ffffffffffffffffffffffffffffffffffffffff168152602001908152602001600020858154811061443457fe5b9060005260206000209060090201600301548154811061445057fe5b906000526020600020906003020160000154600760008773ffffffffffffffffffffffffffffffffffffffff1673ffffffffffffffffffffffffffffffffffffffff16815260200190815260200160002085815481106144ac57fe5b9060005260206000209060090201600201540110155b801561452957506001600760008673ffffffffffffffffffffffffffffffffffffffff1673ffffffffffffffffffffffffffffffffffffffff168152602001908152602001600020848154811061451557fe5b906000526020600020906009020160040154145b80156146de575081614539614a6d565b1415806146dd57506146376145cd6004546145bf600760008973ffffffffffffffffffffffffffffffffffffffff1673ffffffffffffffffffffffffffffffffffffffff168152602001908152602001600020878154811061459757fe5b9060005260206000209060090201600201546145b1614a6d565b615eec90919063ffffffff16565b615e9390919063ffffffff16565b600760008773ffffffffffffffffffffffffffffffffffffffff1673ffffffffffffffffffffffffffffffffffffffff168152602001908152602001600020858154811061461757fe5b906000526020600020906009020160010154615ecd90919063ffffffff16565b600260009054906101000a900473ffffffffffffffffffffffffffffffffffffffff1673ffffffffffffffffffffffffffffffffffffffff1663b81f90f36040518163ffffffff1660e01b815260040160206040518083038186803b15801561469f57600080fd5b505afa1580156146b3573d6000803e3d6000fd5b505050506040513d60208110156146c957600080fd5b810190808051906020019092919050505010155b5b90509392505050565b6000600960003373ffffffffffffffffffffffffffffffffffffffff1673ffffffffffffffffffffffffffffffffffffffff168152602001908152602001600020541161473357600080fd5b6000600960003373ffffffffffffffffffffffffffffffffffffffff1673ffffffffffffffffffffffffffffffffffffffff1681526020019081526020016000205490506000600960003373ffffffffffffffffffffffffffffffffffffffff1673ffffffffffffffffffffffffffffffffffffffff168152602001908152602001600020819055506000600583815481106147cb57fe5b9060005260206000209060030201600001546147e5614a6d565b019050600060016147f4614a6d565b0190505b8181116148395782600a60008381526020019081526020016000205401600a60008381526020019081526020016000208190555080806001019150506147f8565b50600760003373ffffffffffffffffffffffffffffffffffffffff1673ffffffffffffffffffffffffffffffffffffffff1681526020019081526020016000206040518060e00160405280848152602001600260009054906101000a900473ffffffffffffffffffffffffffffffffffffffff1673ffffffffffffffffffffffffffffffffffffffff1663b81f90f36040518163ffffffff1660e01b815260040160206040518083038186803b1580156148f257600080fd5b505afa158015614906573d6000803e3d6000fd5b505050506040513d602081101561491c57600080fd5b8101908080519060200190929190505050815260200161493a614a6d565b81526020018581526020016001815260200160008152602001600081525090806001815401808255809150509060018203906000526020600020906009020160009091929091909150600082015181600001556020820151816001015560408201518160020155606082015181600301556080820151816004015560a0820151816005015560c08201518160060155505050823373ffffffffffffffffffffffffffffffffffffffff167f680a0e2e97ad7c29da7985e37b699f19857c055166f801e50d90661eae30fcc3846001600760003373ffffffffffffffffffffffffffffffffffffffff1673ffffffffffffffffffffffffffffffffffffffff1681526020019081526020016000208054905003604051808381526020018281526020019250505060405180910390a3505050565b60006001600b8054905003905090565b6001600860003373ffffffffffffffffffffffffffffffffffffffff1673ffffffffffffffffffffffffffffffffffffffff1681526020019081526020016000208281548110614ac957fe5b90600052602060002090600502016003015414614ae557600080fd5b600260009054906101000a900473ffffffffffffffffffffffffffffffffffffffff1673ffffffffffffffffffffffffffffffffffffffff1663b81f90f36040518163ffffffff1660e01b815260040160206040518083038186803b158015614b4d57600080fd5b505afa158015614b61573d6000803e3d6000fd5b505050506040513d6020811015614b7757600080fd5b8101908080519060200190929190505050614c166004546006600860003373ffffffffffffffffffffffffffffffffffffffff1673ffffffffffffffffffffffffffffffffffffffff1681526020019081526020016000208581548110614bda57fe5b90600052602060002090600502016002015481548110614bf657fe5b906000526020600020906003020160000154615e9390919063ffffffff16565b600860003373ffffffffffffffffffffffffffffffffffffffff1673ffffffffffffffffffffffffffffffffffffffff1681526020019081526020016000208381548110614c6057fe5b9060005260206000209060050201600101540111614c7d57600080fd5b600260009054906101000a900473ffffffffffffffffffffffffffffffffffffffff1673ffffffffffffffffffffffffffffffffffffffff166323b872dd3330600860003373ffffffffffffffffffffffffffffffffffffffff1673ffffffffffffffffffffffffffffffffffffffff1681526020019081526020016000208581548110614d0757fe5b9060005260206000209060050201600001546040518463ffffffff1660e01b8152600401808473ffffffffffffffffffffffffffffffffffffffff1673ffffffffffffffffffffffffffffffffffffffff1681526020018373ffffffffffffffffffffffffffffffffffffffff1673ffffffffffffffffffffffffffffffffffffffff1681526020018281526020019350505050602060405180830381600087803b158015614db557600080fd5b505af1158015614dc9573d6000803e3d6000fd5b505050506040513d6020811015614ddf57600080fd5b8101908080519060200190929190505050614df957600080fd5b6002600860003373ffffffffffffffffffffffffffffffffffffffff1673ffffffffffffffffffffffffffffffffffffffff1681526020019081526020016000208281548110614e4557fe5b90600052602060002090600502016003018190555060008090505b600860003373ffffffffffffffffffffffffffffffffffffffff1673ffffffffffffffffffffffffffffffffffffffff1681526020019081526020016000208281548110614eaa57fe5b9060005260206000209060050201600401805490508110156151f6576000600860003373ffffffffffffffffffffffffffffffffffffffff1673ffffffffffffffffffffffffffffffffffffffff1681526020019081526020016000208381548110614f1257fe5b90600052602060002090600502016004018281548110614f2e57fe5b906000526020600020015490506001600760003373ffffffffffffffffffffffffffffffffffffffff1673ffffffffffffffffffffffffffffffffffffffff1681526020019081526020016000208281548110614f8757fe5b9060005260206000209060090201600401819055506000615022600454615014600054600760003373ffffffffffffffffffffffffffffffffffffffff1673ffffffffffffffffffffffffffffffffffffffff1681526020019081526020016000208681548110614ff457fe5b906000526020600020906009020160010154615eec90919063ffffffff16565b615f0c90919063ffffffff16565b905060006005600760003373ffffffffffffffffffffffffffffffffffffffff1673ffffffffffffffffffffffffffffffffffffffff168152602001908152602001600020848154811061507257fe5b9060005260206000209060090201600301548154811061508e57fe5b90600052602060002090600302016000015482019050600060016150b0614a6d565b0190505b8181116151e5576000600760003373ffffffffffffffffffffffffffffffffffffffff1673ffffffffffffffffffffffffffffffffffffffff168152602001908152602001600020858154811061510757fe5b9060005260206000209060090201600701600087815260200190815260200160002060006101000a81548160ff0219169083151502179055506151c1600760003373ffffffffffffffffffffffffffffffffffffffff1673ffffffffffffffffffffffffffffffffffffffff168152602001908152602001600020858154811061518d57fe5b906000526020600020906009020160000154600a600084815260200190815260200160002054615ecd90919063ffffffff16565b600a60008381526020019081526020016000208190555080806001019150506150b4565b505050508080600101915050614e60565b503373ffffffffffffffffffffffffffffffffffffffff167fe228353b4f08fee02276a1e9e2cddfa948f9fa59f87f7e24c18ad1b420d7966a826040518082815260200191505060405180910390a250565b600080615253614a6d565b9050600080600090505b85518110156155e1576152848787838151811061527657fe5b60200260200101518561437c565b801561550857506005600760008973ffffffffffffffffffffffffffffffffffffffff1673ffffffffffffffffffffffffffffffffffffffff1681526020019081526020016000208783815181106152d857fe5b6020026020010151815481106152ea57fe5b9060005260206000209060090201600301548154811061530657fe5b906000526020600020906003020160020160009054906101000a900460ff168061550757506153f260646153e4604b6153d66004546005600760008f73ffffffffffffffffffffffffffffffffffffffff1673ffffffffffffffffffffffffffffffffffffffff1681526020019081526020016000208d898151811061538857fe5b60200260200101518154811061539a57fe5b906000526020600020906009020160030154815481106153b657fe5b906000526020600020906003020160000154615e9390919063ffffffff16565b615e9390919063ffffffff16565b615f0c90919063ffffffff16565b600760008973ffffffffffffffffffffffffffffffffffffffff1673ffffffffffffffffffffffffffffffffffffffff16815260200190815260200160002087838151811061543d57fe5b60200260200101518154811061544f57fe5b90600052602060002090600902016001015401600260009054906101000a900473ffffffffffffffffffffffffffffffffffffffff1673ffffffffffffffffffffffffffffffffffffffff1663b81f90f36040518163ffffffff1660e01b815260040160206040518083038186803b1580156154ca57600080fd5b505afa1580156154de573d6000803e3d6000fd5b505050506040513d60208110156154f457600080fd5b8101908080519060200190929190505050115b5b156155d4576155d16155c260646155b46006898154811061552557fe5b906000526020600020906003020160020154600760008d73ffffffffffffffffffffffffffffffffffffffff1673ffffffffffffffffffffffffffffffffffffffff1681526020019081526020016000208b878151811061558257fe5b60200260200101518154811061559457fe5b906000526020600020906009020160000154615e9390919063ffffffff16565b615f0c90919063ffffffff16565b83615ecd90919063ffffffff16565b91505b808060010191505061525d565b5080925050509392505050565b600082116155fb57600080fd5b600260009054906101000a900473ffffffffffffffffffffffffffffffffffffffff1673ffffffffffffffffffffffffffffffffffffffff166323b872dd3330856040518463ffffffff1660e01b8152600401808473ffffffffffffffffffffffffffffffffffffffff1673ffffffffffffffffffffffffffffffffffffffff1681526020018373ffffffffffffffffffffffffffffffffffffffff1673ffffffffffffffffffffffffffffffffffffffff1681526020018281526020019350505050602060405180830381600087803b1580156156d857600080fd5b505af11580156156ec573d6000803e3d6000fd5b505050506040513d602081101561570257600080fd5b810190808051906020019092919050505061571c57600080fd5b60006005828154811061572b57fe5b906000526020600020906003020160000154615745614a6d565b01905060006001615754614a6d565b0190505b8181116157995783600a60008381526020019081526020016000205401600a6000838152602001908152602001600020819055508080600101915050615758565b50600760003373ffffffffffffffffffffffffffffffffffffffff1673ffffffffffffffffffffffffffffffffffffffff1681526020019081526020016000206040518060e00160405280858152602001600260009054906101000a900473ffffffffffffffffffffffffffffffffffffffff1673ffffffffffffffffffffffffffffffffffffffff1663b81f90f36040518163ffffffff1660e01b815260040160206040518083038186803b15801561585257600080fd5b505afa158015615866573d6000803e3d6000fd5b505050506040513d602081101561587c57600080fd5b8101908080519060200190929190505050815260200161589a614a6d565b81526020018481526020016001815260200160008152602001600081525090806001815401808255809150509060018203906000526020600020906009020160009091929091909150600082015181600001556020820151816001015560408201518160020155606082015181600301556080820151816004015560a0820151816005015560c08201518160060155505050813373ffffffffffffffffffffffffffffffffffffffff167f680a0e2e97ad7c29da7985e37b699f19857c055166f801e50d90661eae30fcc3856001600760003373ffffffffffffffffffffffffffffffffffffffff1673ffffffffffffffffffffffffffffffffffffffff1681526020019081526020016000208054905003604051808381526020018281526020019250505060405180910390a3505050565b600360009054906101000a900473ffffffffffffffffffffffffffffffffffffffff1673ffffffffffffffffffffffffffffffffffffffff163373ffffffffffffffffffffffffffffffffffffffff1614615a2757600080fd5b600b81908060018154018082558091505090600182039060005260206000200160009091929091909150555050565b60008090505b8151811015615e6957615b86615b096004546005600760003373ffffffffffffffffffffffffffffffffffffffff1673ffffffffffffffffffffffffffffffffffffffff168152602001908152602001600020868681518110615abb57fe5b602002602001015181548110615acd57fe5b90600052602060002090600902016003015481548110615ae957fe5b906000526020600020906003020160000154615e9390919063ffffffff16565b600760003373ffffffffffffffffffffffffffffffffffffffff1673ffffffffffffffffffffffffffffffffffffffff168152602001908152602001600020848481518110615b5457fe5b602002602001015181548110615b6657fe5b906000526020600020906009020160010154615ecd90919063ffffffff16565b600260009054906101000a900473ffffffffffffffffffffffffffffffffffffffff1673ffffffffffffffffffffffffffffffffffffffff1663b81f90f36040518163ffffffff1660e01b815260040160206040518083038186803b158015615bee57600080fd5b505afa158015615c02573d6000803e3d6000fd5b505050506040513d6020811015615c1857600080fd5b81019080805190602001909291905050501015615c3457600080fd5b6003600760003373ffffffffffffffffffffffffffffffffffffffff1673ffffffffffffffffffffffffffffffffffffffff168152602001908152602001600020838381518110615c8157fe5b602002602001015181548110615c9357fe5b906000526020600020906009020160040181905550600260009054906101000a900473ffffffffffffffffffffffffffffffffffffffff1673ffffffffffffffffffffffffffffffffffffffff1663a9059cbb33600760003373ffffffffffffffffffffffffffffffffffffffff1673ffffffffffffffffffffffffffffffffffffffff168152602001908152602001600020858581518110615d3257fe5b602002602001015181548110615d4457fe5b9060005260206000209060090201600001546040518363ffffffff1660e01b8152600401808373ffffffffffffffffffffffffffffffffffffffff1673ffffffffffffffffffffffffffffffffffffffff16815260200182815260200192505050602060405180830381600087803b158015615dbf57600080fd5b505af1158015615dd3573d6000803e3d6000fd5b505050506040513d6020811015615de957600080fd5b8101908080519060200190929190505050503373ffffffffffffffffffffffffffffffffffffffff167f4854321cc9be1d947b907185d497d36fe671cfb8f0dcbcdc84a01be76f81bff2838381518110615e3f57fe5b60200260200101516040518082815260200191505060405180910390a28080600101915050615a5c565b5050565b600260009054906101000a900473ffffffffffffffffffffffffffffffffffffffff1681565b600080831415615ea65760009050615ec7565b6000828402905082848281615eb757fe5b0414615ec257600080fd5b809150505b92915050565b600080828401905083811015615ee257600080fd5b8091505092915050565b600082821115615efb57600080fd5b600082840390508091505092915050565b6000808211615f1a57600080fd5b6000828481615f2557fe5b0490508091505092915050565b828054828255906000526020600020908101928215615f6e579160200282015b82811115615f6d578251825591602001919060010190615f52565b5b509050615f7b9190615f7f565b5090565b615fa191905b80821115615f9d576000816000905550600101615f85565b5090565b9056fea265627a7a7230582057020b880586707f935486e05c84e269d0dc1e7d3a0ec7de37857f62517886f364736f6c634300050a0032","opcodes":"PUSH1 0x80 PUSH1 0x40 MSTORE PUSH3 0x282070 PUSH1 0x4 SSTORE CALLVALUE DUP1 ISZERO PUSH3 0x18 JUMPI PUSH1 0x0 DUP1 REVERT JUMPDEST POP PUSH1 0x40 MLOAD PUSH3 0x61E0 CODESIZE SUB DUP1 PUSH3 0x61E0 DUP4 CODECOPY DUP2 DUP2 ADD PUSH1 0x40 MSTORE PUSH1 0x40 DUP2 LT ISZERO PUSH3 0x3E JUMPI PUSH1 0x0 DUP1 REVERT JUMPDEST DUP2 ADD SWAP1 DUP1 DUP1 MLOAD SWAP1 PUSH1 0x20 ADD SWAP1 SWAP3 SWAP2 SWAP1 DUP1 MLOAD SWAP1 PUSH1 0x20 ADD SWAP1 SWAP3 SWAP2 SWAP1 POP POP POP CALLER PUSH1 0x1 PUSH1 0x0 PUSH2 0x100 EXP DUP2 SLOAD DUP2 PUSH20 0xFFFFFFFFFFFFFFFFFFFFFFFFFFFFFFFFFFFFFFFF MUL NOT AND SWAP1 DUP4 PUSH20 0xFFFFFFFFFFFFFFFFFFFFFFFFFFFFFFFFFFFFFFFF AND MUL OR SWAP1 SSTORE POP DUP2 PUSH1 0x2 PUSH1 0x0 PUSH2 0x100 EXP DUP2 SLOAD DUP2 PUSH20 0xFFFFFFFFFFFFFFFFFFFFFFFFFFFFFFFFFFFFFFFF MUL NOT AND SWAP1 DUP4 PUSH20 0xFFFFFFFFFFFFFFFFFFFFFFFFFFFFFFFFFFFFFFFF AND MUL OR SWAP1 SSTORE POP DUP1 PUSH1 0x3 PUSH1 0x0 PUSH2 0x100 EXP DUP2 SLOAD DUP2 PUSH20 0xFFFFFFFFFFFFFFFFFFFFFFFFFFFFFFFFFFFFFFFF MUL NOT AND SWAP1 DUP4 PUSH20 0xFFFFFFFFFFFFFFFFFFFFFFFFFFFFFFFFFFFFFFFF AND MUL OR SWAP1 SSTORE POP PUSH1 0x2 PUSH1 0x0 SWAP1 SLOAD SWAP1 PUSH2 0x100 EXP SWAP1 DIV PUSH20 0xFFFFFFFFFFFFFFFFFFFFFFFFFFFFFFFFFFFFFFFF AND PUSH20 0xFFFFFFFFFFFFFFFFFFFFFFFFFFFFFFFFFFFFFFFF AND PUSH4 0xB81F90F3 PUSH1 0x40 MLOAD DUP2 PUSH4 0xFFFFFFFF AND PUSH1 0xE0 SHL DUP2 MSTORE PUSH1 0x4 ADD PUSH1 0x20 PUSH1 0x40 MLOAD DUP1 DUP4 SUB DUP2 DUP7 DUP1 EXTCODESIZE ISZERO DUP1 ISZERO PUSH3 0x185 JUMPI PUSH1 0x0 DUP1 REVERT JUMPDEST POP GAS STATICCALL ISZERO DUP1 ISZERO PUSH3 0x19A JUMPI RETURNDATASIZE PUSH1 0x0 DUP1 RETURNDATACOPY RETURNDATASIZE PUSH1 0x0 REVERT JUMPDEST POP POP POP POP PUSH1 0x40 MLOAD RETURNDATASIZE PUSH1 0x20 DUP2 LT ISZERO PUSH3 0x1B1 JUMPI PUSH1 0x0 DUP1 REVERT JUMPDEST DUP2 ADD SWAP1 DUP1 DUP1 MLOAD SWAP1 PUSH1 0x20 ADD SWAP1 SWAP3 SWAP2 SWAP1 POP POP POP PUSH1 0x0 DUP2 SWAP1 SSTORE POP PUSH1 0xB PUSH1 0x0 SWAP1 DUP1 PUSH1 0x1 DUP2 SLOAD ADD DUP1 DUP3 SSTORE DUP1 SWAP2 POP POP SWAP1 PUSH1 0x1 DUP3 SUB SWAP1 PUSH1 0x0 MSTORE PUSH1 0x20 PUSH1 0x0 KECCAK256 ADD PUSH1 0x0 SWAP1 SWAP2 SWAP3 SWAP1 SWAP2 SWAP1 SWAP2 POP SSTORE POP POP POP PUSH2 0x5FD9 DUP1 PUSH3 0x207 PUSH1 0x0 CODECOPY PUSH1 0x0 RETURN INVALID PUSH1 0x80 PUSH1 0x40 MSTORE CALLVALUE DUP1 ISZERO PUSH2 0x10 JUMPI PUSH1 0x0 DUP1 REVERT JUMPDEST POP PUSH1 0x4 CALLDATASIZE LT PUSH2 0x1E5 JUMPI PUSH1 0x0 CALLDATALOAD PUSH1 0xE0 SHR DUP1 PUSH4 0x98C61C37 GT PUSH2 0x10F JUMPI DUP1 PUSH4 0xDA9D8AA0 GT PUSH2 0xA2 JUMPI DUP1 PUSH4 0xE5FD04E6 GT PUSH2 0x71 JUMPI DUP1 PUSH4 0xE5FD04E6 EQ PUSH2 0xE7F JUMPI DUP1 PUSH4 0xE78C81C4 EQ PUSH2 0xEB7 JUMPI DUP1 PUSH4 0xE83F7843 EQ PUSH2 0xEE5 JUMPI DUP1 PUSH4 0xFC0C546A EQ PUSH2 0xF9D JUMPI PUSH2 0x1E5 JUMP JUMPDEST DUP1 PUSH4 0xDA9D8AA0 EQ PUSH2 0xD0F JUMPI DUP1 PUSH4 0xDDD1B67E EQ PUSH2 0xD3D JUMPI DUP1 PUSH4 0xDEA6CF43 EQ PUSH2 0xD5B JUMPI DUP1 PUSH4 0xDF90F7CE EQ PUSH2 0xD89 JUMPI PUSH2 0x1E5 JUMP JUMPDEST DUP1 PUSH4 0xCC44A2FD GT PUSH2 0xDE JUMPI DUP1 PUSH4 0xCC44A2FD EQ PUSH2 0xB41 JUMPI DUP1 PUSH4 0xD0E32681 EQ PUSH2 0xB91 JUMPI DUP1 PUSH4 0xD1CF31B3 EQ PUSH2 0xC5D JUMPI DUP1 PUSH4 0xD58424A3 EQ PUSH2 0xC9F JUMPI PUSH2 0x1E5 JUMP JUMPDEST DUP1 PUSH4 0x98C61C37 EQ PUSH2 0x958 JUMPI DUP1 PUSH4 0x9D0B8B44 EQ PUSH2 0x9CF JUMPI DUP1 PUSH4 0xA4C0E90A EQ PUSH2 0xA91 JUMPI DUP1 PUSH4 0xAD998FA0 EQ PUSH2 0xAE9 JUMPI PUSH2 0x1E5 JUMP JUMPDEST DUP1 PUSH4 0x4F916FB0 GT PUSH2 0x187 JUMPI DUP1 PUSH4 0x7ACAB857 GT PUSH2 0x156 JUMPI DUP1 PUSH4 0x7ACAB857 EQ PUSH2 0x71C JUMPI DUP1 PUSH4 0x88C5F296 EQ PUSH2 0x774 JUMPI DUP1 PUSH4 0x8DA5CB5B EQ PUSH2 0x8C0 JUMPI DUP1 PUSH4 0x911E8BC6 EQ PUSH2 0x90A JUMPI PUSH2 0x1E5 JUMP JUMPDEST DUP1 PUSH4 0x4F916FB0 EQ PUSH2 0x608 JUMPI DUP1 PUSH4 0x53FCB2F3 EQ PUSH2 0x656 JUMPI DUP1 PUSH4 0x762E7A34 EQ PUSH2 0x684 JUMPI DUP1 PUSH4 0x778DB8D4 EQ PUSH2 0x6D8 JUMPI PUSH2 0x1E5 JUMP JUMPDEST DUP1 PUSH4 0x23A15E6B GT PUSH2 0x1C3 JUMPI DUP1 PUSH4 0x23A15E6B EQ PUSH2 0x40C JUMPI DUP1 PUSH4 0x2C779774 EQ PUSH2 0x44E JUMPI DUP1 PUSH4 0x2E9721B6 EQ PUSH2 0x544 JUMPI DUP1 PUSH4 0x4EC0692C EQ PUSH2 0x5C6 JUMPI PUSH2 0x1E5 JUMP JUMPDEST DUP1 PUSH4 0xDF5202F EQ PUSH2 0x1EA JUMPI DUP1 PUSH4 0x16D3E966 EQ PUSH2 0x234 JUMPI DUP1 PUSH4 0x1849D8EA EQ PUSH2 0x380 JUMPI JUMPDEST PUSH1 0x0 DUP1 REVERT JUMPDEST PUSH2 0x1F2 PUSH2 0xFE7 JUMP JUMPDEST PUSH1 0x40 MLOAD DUP1 DUP3 PUSH20 0xFFFFFFFFFFFFFFFFFFFFFFFFFFFFFFFFFFFFFFFF AND PUSH20 0xFFFFFFFFFFFFFFFFFFFFFFFFFFFFFFFFFFFFFFFF AND DUP2 MSTORE PUSH1 0x20 ADD SWAP2 POP POP PUSH1 0x40 MLOAD DUP1 SWAP2 SUB SWAP1 RETURN JUMPDEST PUSH2 0x37E PUSH1 0x4 DUP1 CALLDATASIZE SUB PUSH1 0x40 DUP2 LT ISZERO PUSH2 0x24A JUMPI PUSH1 0x0 DUP1 REVERT JUMPDEST DUP2 ADD SWAP1 DUP1 DUP1 CALLDATALOAD SWAP1 PUSH1 0x20 ADD SWAP1 PUSH5 0x100000000 DUP2 GT ISZERO PUSH2 0x267 JUMPI PUSH1 0x0 DUP1 REVERT JUMPDEST DUP3 ADD DUP4 PUSH1 0x20 DUP3 ADD GT ISZERO PUSH2 0x279 JUMPI PUSH1 0x0 DUP1 REVERT JUMPDEST DUP1 CALLDATALOAD SWAP1 PUSH1 0x20 ADD SWAP2 DUP5 PUSH1 0x20 DUP4 MUL DUP5 ADD GT PUSH5 0x100000000 DUP4 GT OR ISZERO PUSH2 0x29B JUMPI PUSH1 0x0 DUP1 REVERT JUMPDEST SWAP2 SWAP1 DUP1 DUP1 PUSH1 0x20 MUL PUSH1 0x20 ADD PUSH1 0x40 MLOAD SWAP1 DUP2 ADD PUSH1 0x40 MSTORE DUP1 SWAP4 SWAP3 SWAP2 SWAP1 DUP2 DUP2 MSTORE PUSH1 0x20 ADD DUP4 DUP4 PUSH1 0x20 MUL DUP1 DUP3 DUP5 CALLDATACOPY PUSH1 0x0 DUP2 DUP5 ADD MSTORE PUSH1 0x1F NOT PUSH1 0x1F DUP3 ADD AND SWAP1 POP DUP1 DUP4 ADD SWAP3 POP POP POP POP POP POP POP SWAP2 SWAP3 SWAP2 SWAP3 SWAP1 DUP1 CALLDATALOAD SWAP1 PUSH1 0x20 ADD SWAP1 PUSH5 0x100000000 DUP2 GT ISZERO PUSH2 0x2FB JUMPI PUSH1 0x0 DUP1 REVERT JUMPDEST DUP3 ADD DUP4 PUSH1 0x20 DUP3 ADD GT ISZERO PUSH2 0x30D JUMPI PUSH1 0x0 DUP1 REVERT JUMPDEST DUP1 CALLDATALOAD SWAP1 PUSH1 0x20 ADD SWAP2 DUP5 PUSH1 0x20 DUP4 MUL DUP5 ADD GT PUSH5 0x100000000 DUP4 GT OR ISZERO PUSH2 0x32F JUMPI PUSH1 0x0 DUP1 REVERT JUMPDEST SWAP2 SWAP1 DUP1 DUP1 PUSH1 0x20 MUL PUSH1 0x20 ADD PUSH1 0x40 MLOAD SWAP1 DUP2 ADD PUSH1 0x40 MSTORE DUP1 SWAP4 SWAP3 SWAP2 SWAP1 DUP2 DUP2 MSTORE PUSH1 0x20 ADD DUP4 DUP4 PUSH1 0x20 MUL DUP1 DUP3 DUP5 CALLDATACOPY PUSH1 0x0 DUP2 DUP5 ADD MSTORE PUSH1 0x1F NOT PUSH1 0x1F DUP3 ADD AND SWAP1 POP DUP1 DUP4 ADD SWAP3 POP POP POP POP POP POP POP SWAP2 SWAP3 SWAP2 SWAP3 SWAP1 POP POP POP PUSH2 0x100D JUMP JUMPDEST STOP JUMPDEST PUSH2 0x3CC PUSH1 0x4 DUP1 CALLDATASIZE SUB PUSH1 0x40 DUP2 LT ISZERO PUSH2 0x396 JUMPI PUSH1 0x0 DUP1 REVERT JUMPDEST DUP2 ADD SWAP1 DUP1 DUP1 CALLDATALOAD PUSH20 0xFFFFFFFFFFFFFFFFFFFFFFFFFFFFFFFFFFFFFFFF AND SWAP1 PUSH1 0x20 ADD SWAP1 SWAP3 SWAP2 SWAP1 DUP1 CALLDATALOAD SWAP1 PUSH1 0x20 ADD SWAP1 SWAP3 SWAP2 SWAP1 POP POP POP PUSH2 0x1640 JUMP JUMPDEST PUSH1 0x40 MLOAD DUP1 DUP9 DUP2 MSTORE PUSH1 0x20 ADD DUP8 DUP2 MSTORE PUSH1 0x20 ADD DUP7 DUP2 MSTORE PUSH1 0x20 ADD DUP6 DUP2 MSTORE PUSH1 0x20 ADD DUP5 DUP2 MSTORE PUSH1 0x20 ADD DUP4 DUP2 MSTORE PUSH1 0x20 ADD DUP3 DUP2 MSTORE PUSH1 0x20 ADD SWAP8 POP POP POP POP POP POP POP POP PUSH1 0x40 MLOAD DUP1 SWAP2 SUB SWAP1 RETURN JUMPDEST PUSH2 0x438 PUSH1 0x4 DUP1 CALLDATASIZE SUB PUSH1 0x20 DUP2 LT ISZERO PUSH2 0x422 JUMPI PUSH1 0x0 DUP1 REVERT JUMPDEST DUP2 ADD SWAP1 DUP1 DUP1 CALLDATALOAD SWAP1 PUSH1 0x20 ADD SWAP1 SWAP3 SWAP2 SWAP1 POP POP POP PUSH2 0x169C JUMP JUMPDEST PUSH1 0x40 MLOAD DUP1 DUP3 DUP2 MSTORE PUSH1 0x20 ADD SWAP2 POP POP PUSH1 0x40 MLOAD DUP1 SWAP2 SUB SWAP1 RETURN JUMPDEST PUSH2 0x52E PUSH1 0x4 DUP1 CALLDATASIZE SUB PUSH1 0x60 DUP2 LT ISZERO PUSH2 0x464 JUMPI PUSH1 0x0 DUP1 REVERT JUMPDEST DUP2 ADD SWAP1 DUP1 DUP1 CALLDATALOAD PUSH20 0xFFFFFFFFFFFFFFFFFFFFFFFFFFFFFFFFFFFFFFFF AND SWAP1 PUSH1 0x20 ADD SWAP1 SWAP3 SWAP2 SWAP1 DUP1 CALLDATALOAD SWAP1 PUSH1 0x20 ADD SWAP1 SWAP3 SWAP2 SWAP1 DUP1 CALLDATALOAD SWAP1 PUSH1 0x20 ADD SWAP1 PUSH5 0x100000000 DUP2 GT ISZERO PUSH2 0x4AB JUMPI PUSH1 0x0 DUP1 REVERT JUMPDEST DUP3 ADD DUP4 PUSH1 0x20 DUP3 ADD GT ISZERO PUSH2 0x4BD JUMPI PUSH1 0x0 DUP1 REVERT JUMPDEST DUP1 CALLDATALOAD SWAP1 PUSH1 0x20 ADD SWAP2 DUP5 PUSH1 0x20 DUP4 MUL DUP5 ADD GT PUSH5 0x100000000 DUP4 GT OR ISZERO PUSH2 0x4DF JUMPI PUSH1 0x0 DUP1 REVERT JUMPDEST SWAP2 SWAP1 DUP1 DUP1 PUSH1 0x20 MUL PUSH1 0x20 ADD PUSH1 0x40 MLOAD SWAP1 DUP2 ADD PUSH1 0x40 MSTORE DUP1 SWAP4 SWAP3 SWAP2 SWAP1 DUP2 DUP2 MSTORE PUSH1 0x20 ADD DUP4 DUP4 PUSH1 0x20 MUL DUP1 DUP3 DUP5 CALLDATACOPY PUSH1 0x0 DUP2 DUP5 ADD MSTORE PUSH1 0x1F NOT PUSH1 0x1F DUP3 ADD AND SWAP1 POP DUP1 DUP4 ADD SWAP3 POP POP POP POP POP POP POP SWAP2 SWAP3 SWAP2 SWAP3 SWAP1 POP POP POP PUSH2 0x16BD JUMP JUMPDEST PUSH1 0x40 MLOAD DUP1 DUP3 DUP2 MSTORE PUSH1 0x20 ADD SWAP2 POP POP PUSH1 0x40 MLOAD DUP1 SWAP2 SUB SWAP1 RETURN JUMPDEST PUSH2 0x5B0 PUSH1 0x4 DUP1 CALLDATASIZE SUB PUSH1 0x60 DUP2 LT ISZERO PUSH2 0x55A JUMPI PUSH1 0x0 DUP1 REVERT JUMPDEST DUP2 ADD SWAP1 DUP1 DUP1 CALLDATALOAD PUSH20 0xFFFFFFFFFFFFFFFFFFFFFFFFFFFFFFFFFFFFFFFF AND SWAP1 PUSH1 0x20 ADD SWAP1 SWAP3 SWAP2 SWAP1 DUP1 CALLDATALOAD SWAP1 PUSH1 0x20 ADD SWAP1 SWAP3 SWAP2 SWAP1 DUP1 CALLDATALOAD PUSH20 0xFFFFFFFFFFFFFFFFFFFFFFFFFFFFFFFFFFFFFFFF AND SWAP1 PUSH1 0x20 ADD SWAP1 SWAP3 SWAP2 SWAP1 POP POP POP PUSH2 0x192A JUMP JUMPDEST PUSH1 0x40 MLOAD DUP1 DUP3 DUP2 MSTORE PUSH1 0x20 ADD SWAP2 POP POP PUSH1 0x40 MLOAD DUP1 SWAP2 SUB SWAP1 RETURN JUMPDEST PUSH2 0x5F2 PUSH1 0x4 DUP1 CALLDATASIZE SUB PUSH1 0x20 DUP2 LT ISZERO PUSH2 0x5DC JUMPI PUSH1 0x0 DUP1 REVERT JUMPDEST DUP2 ADD SWAP1 DUP1 DUP1 CALLDATALOAD SWAP1 PUSH1 0x20 ADD SWAP1 SWAP3 SWAP2 SWAP1 POP POP POP PUSH2 0x19CE JUMP JUMPDEST PUSH1 0x40 MLOAD DUP1 DUP3 DUP2 MSTORE PUSH1 0x20 ADD SWAP2 POP POP PUSH1 0x40 MLOAD DUP1 SWAP2 SUB SWAP1 RETURN JUMPDEST PUSH2 0x654 PUSH1 0x4 DUP1 CALLDATASIZE SUB PUSH1 0x40 DUP2 LT ISZERO PUSH2 0x61E JUMPI PUSH1 0x0 DUP1 REVERT JUMPDEST DUP2 ADD SWAP1 DUP1 DUP1 CALLDATALOAD SWAP1 PUSH1 0x20 ADD SWAP1 SWAP3 SWAP2 SWAP1 DUP1 CALLDATALOAD PUSH20 0xFFFFFFFFFFFFFFFFFFFFFFFFFFFFFFFFFFFFFFFF AND SWAP1 PUSH1 0x20 ADD SWAP1 SWAP3 SWAP2 SWAP1 POP POP POP PUSH2 0x19E6 JUMP JUMPDEST STOP JUMPDEST PUSH2 0x682 PUSH1 0x4 DUP1 CALLDATASIZE SUB PUSH1 0x20 DUP2 LT ISZERO PUSH2 0x66C JUMPI PUSH1 0x0 DUP1 REVERT JUMPDEST DUP2 ADD SWAP1 DUP1 DUP1 CALLDATALOAD SWAP1 PUSH1 0x20 ADD SWAP1 SWAP3 SWAP2 SWAP1 POP POP POP PUSH2 0x1CC4 JUMP JUMPDEST STOP JUMPDEST PUSH2 0x6B0 PUSH1 0x4 DUP1 CALLDATASIZE SUB PUSH1 0x20 DUP2 LT ISZERO PUSH2 0x69A JUMPI PUSH1 0x0 DUP1 REVERT JUMPDEST DUP2 ADD SWAP1 DUP1 DUP1 CALLDATALOAD SWAP1 PUSH1 0x20 ADD SWAP1 SWAP3 SWAP2 SWAP1 POP POP POP PUSH2 0x1E7D JUMP JUMPDEST PUSH1 0x40 MLOAD DUP1 DUP5 DUP2 MSTORE PUSH1 0x20 ADD DUP4 DUP2 MSTORE PUSH1 0x20 ADD DUP3 ISZERO ISZERO ISZERO ISZERO DUP2 MSTORE PUSH1 0x20 ADD SWAP4 POP POP POP POP PUSH1 0x40 MLOAD DUP1 SWAP2 SUB SWAP1 RETURN JUMPDEST PUSH2 0x71A PUSH1 0x4 DUP1 CALLDATASIZE SUB PUSH1 0x60 DUP2 LT ISZERO PUSH2 0x6EE JUMPI PUSH1 0x0 DUP1 REVERT JUMPDEST DUP2 ADD SWAP1 DUP1 DUP1 CALLDATALOAD SWAP1 PUSH1 0x20 ADD SWAP1 SWAP3 SWAP2 SWAP1 DUP1 CALLDATALOAD SWAP1 PUSH1 0x20 ADD SWAP1 SWAP3 SWAP2 SWAP1 DUP1 CALLDATALOAD ISZERO ISZERO SWAP1 PUSH1 0x20 ADD SWAP1 SWAP3 SWAP2 SWAP1 POP POP POP PUSH2 0x1EC1 JUMP JUMPDEST STOP JUMPDEST PUSH2 0x75E PUSH1 0x4 DUP1 CALLDATASIZE SUB PUSH1 0x20 DUP2 LT ISZERO PUSH2 0x732 JUMPI PUSH1 0x0 DUP1 REVERT JUMPDEST DUP2 ADD SWAP1 DUP1 DUP1 CALLDATALOAD PUSH20 0xFFFFFFFFFFFFFFFFFFFFFFFFFFFFFFFFFFFFFFFF AND SWAP1 PUSH1 0x20 ADD SWAP1 SWAP3 SWAP2 SWAP1 POP POP POP PUSH2 0x1FA1 JUMP JUMPDEST PUSH1 0x40 MLOAD DUP1 DUP3 DUP2 MSTORE PUSH1 0x20 ADD SWAP2 POP POP PUSH1 0x40 MLOAD DUP1 SWAP2 SUB SWAP1 RETURN JUMPDEST PUSH2 0x8BE PUSH1 0x4 DUP1 CALLDATASIZE SUB PUSH1 0x40 DUP2 LT ISZERO PUSH2 0x78A JUMPI PUSH1 0x0 DUP1 REVERT JUMPDEST DUP2 ADD SWAP1 DUP1 DUP1 CALLDATALOAD SWAP1 PUSH1 0x20 ADD SWAP1 PUSH5 0x100000000 DUP2 GT ISZERO PUSH2 0x7A7 JUMPI PUSH1 0x0 DUP1 REVERT JUMPDEST DUP3 ADD DUP4 PUSH1 0x20 DUP3 ADD GT ISZERO PUSH2 0x7B9 JUMPI PUSH1 0x0 DUP1 REVERT JUMPDEST DUP1 CALLDATALOAD SWAP1 PUSH1 0x20 ADD SWAP2 DUP5 PUSH1 0x20 DUP4 MUL DUP5 ADD GT PUSH5 0x100000000 DUP4 GT OR ISZERO PUSH2 0x7DB JUMPI PUSH1 0x0 DUP1 REVERT JUMPDEST SWAP2 SWAP1 DUP1 DUP1 PUSH1 0x20 MUL PUSH1 0x20 ADD PUSH1 0x40 MLOAD SWAP1 DUP2 ADD PUSH1 0x40 MSTORE DUP1 SWAP4 SWAP3 SWAP2 SWAP1 DUP2 DUP2 MSTORE PUSH1 0x20 ADD DUP4 DUP4 PUSH1 0x20 MUL DUP1 DUP3 DUP5 CALLDATACOPY PUSH1 0x0 DUP2 DUP5 ADD MSTORE PUSH1 0x1F NOT PUSH1 0x1F DUP3 ADD AND SWAP1 POP DUP1 DUP4 ADD SWAP3 POP POP POP POP POP POP POP SWAP2 SWAP3 SWAP2 SWAP3 SWAP1 DUP1 CALLDATALOAD SWAP1 PUSH1 0x20 ADD SWAP1 PUSH5 0x100000000 DUP2 GT ISZERO PUSH2 0x83B JUMPI PUSH1 0x0 DUP1 REVERT JUMPDEST DUP3 ADD DUP4 PUSH1 0x20 DUP3 ADD GT ISZERO PUSH2 0x84D JUMPI PUSH1 0x0 DUP1 REVERT JUMPDEST DUP1 CALLDATALOAD SWAP1 PUSH1 0x20 ADD SWAP2 DUP5 PUSH1 0x20 DUP4 MUL DUP5 ADD GT PUSH5 0x100000000 DUP4 GT OR ISZERO PUSH2 0x86F JUMPI PUSH1 0x0 DUP1 REVERT JUMPDEST SWAP2 SWAP1 DUP1 DUP1 PUSH1 0x20 MUL PUSH1 0x20 ADD PUSH1 0x40 MLOAD SWAP1 DUP2 ADD PUSH1 0x40 MSTORE DUP1 SWAP4 SWAP3 SWAP2 SWAP1 DUP2 DUP2 MSTORE PUSH1 0x20 ADD DUP4 DUP4 PUSH1 0x20 MUL DUP1 DUP3 DUP5 CALLDATACOPY PUSH1 0x0 DUP2 DUP5 ADD MSTORE PUSH1 0x1F NOT PUSH1 0x1F DUP3 ADD AND SWAP1 POP DUP1 DUP4 ADD SWAP3 POP POP POP POP POP POP POP SWAP2 SWAP3 SWAP2 SWAP3 SWAP1 POP POP POP PUSH2 0x1FB9 JUMP JUMPDEST STOP JUMPDEST PUSH2 0x8C8 PUSH2 0x21AA JUMP JUMPDEST PUSH1 0x40 MLOAD DUP1 DUP3 PUSH20 0xFFFFFFFFFFFFFFFFFFFFFFFFFFFFFFFFFFFFFFFF AND PUSH20 0xFFFFFFFFFFFFFFFFFFFFFFFFFFFFFFFFFFFFFFFF AND DUP2 MSTORE PUSH1 0x20 ADD SWAP2 POP POP PUSH1 0x40 MLOAD DUP1 SWAP2 SUB SWAP1 RETURN JUMPDEST PUSH2 0x956 PUSH1 0x4 DUP1 CALLDATASIZE SUB PUSH1 0x40 DUP2 LT ISZERO PUSH2 0x920 JUMPI PUSH1 0x0 DUP1 REVERT JUMPDEST DUP2 ADD SWAP1 DUP1 DUP1 CALLDATALOAD PUSH20 0xFFFFFFFFFFFFFFFFFFFFFFFFFFFFFFFFFFFFFFFF AND SWAP1 PUSH1 0x20 ADD SWAP1 SWAP3 SWAP2 SWAP1 DUP1 CALLDATALOAD SWAP1 PUSH1 0x20 ADD SWAP1 SWAP3 SWAP2 SWAP1 POP POP POP PUSH2 0x21D0 JUMP JUMPDEST STOP JUMPDEST PUSH2 0x9A4 PUSH1 0x4 DUP1 CALLDATASIZE SUB PUSH1 0x40 DUP2 LT ISZERO PUSH2 0x96E JUMPI PUSH1 0x0 DUP1 REVERT JUMPDEST DUP2 ADD SWAP1 DUP1 DUP1 CALLDATALOAD PUSH20 0xFFFFFFFFFFFFFFFFFFFFFFFFFFFFFFFFFFFFFFFF AND SWAP1 PUSH1 0x20 ADD SWAP1 SWAP3 SWAP2 SWAP1 DUP1 CALLDATALOAD SWAP1 PUSH1 0x20 ADD SWAP1 SWAP3 SWAP2 SWAP1 POP POP POP PUSH2 0x2C42 JUMP JUMPDEST PUSH1 0x40 MLOAD DUP1 DUP6 DUP2 MSTORE PUSH1 0x20 ADD DUP5 DUP2 MSTORE PUSH1 0x20 ADD DUP4 DUP2 MSTORE PUSH1 0x20 ADD DUP3 DUP2 MSTORE PUSH1 0x20 ADD SWAP5 POP POP POP POP POP PUSH1 0x40 MLOAD DUP1 SWAP2 SUB SWAP1 RETURN JUMPDEST PUSH2 0xA8F PUSH1 0x4 DUP1 CALLDATASIZE SUB PUSH1 0x40 DUP2 LT ISZERO PUSH2 0x9E5 JUMPI PUSH1 0x0 DUP1 REVERT JUMPDEST DUP2 ADD SWAP1 DUP1 DUP1 CALLDATALOAD SWAP1 PUSH1 0x20 ADD SWAP1 SWAP3 SWAP2 SWAP1 DUP1 CALLDATALOAD SWAP1 PUSH1 0x20 ADD SWAP1 PUSH5 0x100000000 DUP2 GT ISZERO PUSH2 0xA0C JUMPI PUSH1 0x0 DUP1 REVERT JUMPDEST DUP3 ADD DUP4 PUSH1 0x20 DUP3 ADD GT ISZERO PUSH2 0xA1E JUMPI PUSH1 0x0 DUP1 REVERT JUMPDEST DUP1 CALLDATALOAD SWAP1 PUSH1 0x20 ADD SWAP2 DUP5 PUSH1 0x20 DUP4 MUL DUP5 ADD GT PUSH5 0x100000000 DUP4 GT OR ISZERO PUSH2 0xA40 JUMPI PUSH1 0x0 DUP1 REVERT JUMPDEST SWAP2 SWAP1 DUP1 DUP1 PUSH1 0x20 MUL PUSH1 0x20 ADD PUSH1 0x40 MLOAD SWAP1 DUP2 ADD PUSH1 0x40 MSTORE DUP1 SWAP4 SWAP3 SWAP2 SWAP1 DUP2 DUP2 MSTORE PUSH1 0x20 ADD DUP4 DUP4 PUSH1 0x20 MUL DUP1 DUP3 DUP5 CALLDATACOPY PUSH1 0x0 DUP2 DUP5 ADD MSTORE PUSH1 0x1F NOT PUSH1 0x1F DUP3 ADD AND SWAP1 POP DUP1 DUP4 ADD SWAP3 POP POP POP POP POP POP POP SWAP2 SWAP3 SWAP2 SWAP3 SWAP1 POP POP POP PUSH2 0x2C8C JUMP JUMPDEST STOP JUMPDEST PUSH2 0xAE7 PUSH1 0x4 DUP1 CALLDATASIZE SUB PUSH1 0x60 DUP2 LT ISZERO PUSH2 0xAA7 JUMPI PUSH1 0x0 DUP1 REVERT JUMPDEST DUP2 ADD SWAP1 DUP1 DUP1 CALLDATALOAD SWAP1 PUSH1 0x20 ADD SWAP1 SWAP3 SWAP2 SWAP1 DUP1 CALLDATALOAD PUSH20 0xFFFFFFFFFFFFFFFFFFFFFFFFFFFFFFFFFFFFFFFF AND SWAP1 PUSH1 0x20 ADD SWAP1 SWAP3 SWAP2 SWAP1 DUP1 CALLDATALOAD SWAP1 PUSH1 0x20 ADD SWAP1 SWAP3 SWAP2 SWAP1 POP POP POP PUSH2 0x33B1 JUMP JUMPDEST STOP JUMPDEST PUSH2 0xB2B PUSH1 0x4 DUP1 CALLDATASIZE SUB PUSH1 0x20 DUP2 LT ISZERO PUSH2 0xAFF JUMPI PUSH1 0x0 DUP1 REVERT JUMPDEST DUP2 ADD SWAP1 DUP1 DUP1 CALLDATALOAD PUSH20 0xFFFFFFFFFFFFFFFFFFFFFFFFFFFFFFFFFFFFFFFF AND SWAP1 PUSH1 0x20 ADD SWAP1 SWAP3 SWAP2 SWAP1 POP POP POP PUSH2 0x3688 JUMP JUMPDEST PUSH1 0x40 MLOAD DUP1 DUP3 DUP2 MSTORE PUSH1 0x20 ADD SWAP2 POP POP PUSH1 0x40 MLOAD DUP1 SWAP2 SUB SWAP1 RETURN JUMPDEST PUSH2 0xB6D PUSH1 0x4 DUP1 CALLDATASIZE SUB PUSH1 0x20 DUP2 LT ISZERO PUSH2 0xB57 JUMPI PUSH1 0x0 DUP1 REVERT JUMPDEST DUP2 ADD SWAP1 DUP1 DUP1 CALLDATALOAD SWAP1 PUSH1 0x20 ADD SWAP1 SWAP3 SWAP2 SWAP1 POP POP POP PUSH2 0x36D4 JUMP JUMPDEST PUSH1 0x40 MLOAD DUP1 DUP5 DUP2 MSTORE PUSH1 0x20 ADD DUP4 DUP2 MSTORE PUSH1 0x20 ADD DUP3 DUP2 MSTORE PUSH1 0x20 ADD SWAP4 POP POP POP POP PUSH1 0x40 MLOAD DUP1 SWAP2 SUB SWAP1 RETURN JUMPDEST PUSH2 0xC5B PUSH1 0x4 DUP1 CALLDATASIZE SUB PUSH1 0x60 DUP2 LT ISZERO PUSH2 0xBA7 JUMPI PUSH1 0x0 DUP1 REVERT JUMPDEST DUP2 ADD SWAP1 DUP1 DUP1 CALLDATALOAD SWAP1 PUSH1 0x20 ADD SWAP1 SWAP3 SWAP2 SWAP1 DUP1 CALLDATALOAD SWAP1 PUSH1 0x20 ADD SWAP1 SWAP3 SWAP2 SWAP1 DUP1 CALLDATALOAD SWAP1 PUSH1 0x20 ADD SWAP1 PUSH5 0x100000000 DUP2 GT ISZERO PUSH2 0xBD8 JUMPI PUSH1 0x0 DUP1 REVERT JUMPDEST DUP3 ADD DUP4 PUSH1 0x20 DUP3 ADD GT ISZERO PUSH2 0xBEA JUMPI PUSH1 0x0 DUP1 REVERT JUMPDEST DUP1 CALLDATALOAD SWAP1 PUSH1 0x20 ADD SWAP2 DUP5 PUSH1 0x20 DUP4 MUL DUP5 ADD GT PUSH5 0x100000000 DUP4 GT OR ISZERO PUSH2 0xC0C JUMPI PUSH1 0x0 DUP1 REVERT JUMPDEST SWAP2 SWAP1 DUP1 DUP1 PUSH1 0x20 MUL PUSH1 0x20 ADD PUSH1 0x40 MLOAD SWAP1 DUP2 ADD PUSH1 0x40 MSTORE DUP1 SWAP4 SWAP3 SWAP2 SWAP1 DUP2 DUP2 MSTORE PUSH1 0x20 ADD DUP4 DUP4 PUSH1 0x20 MUL DUP1 DUP3 DUP5 CALLDATACOPY PUSH1 0x0 DUP2 DUP5 ADD MSTORE PUSH1 0x1F NOT PUSH1 0x1F DUP3 ADD AND SWAP1 POP DUP1 DUP4 ADD SWAP3 POP POP POP POP POP POP POP SWAP2 SWAP3 SWAP2 SWAP3 SWAP1 POP POP POP PUSH2 0x370B JUMP JUMPDEST STOP JUMPDEST PUSH2 0xC9D PUSH1 0x4 DUP1 CALLDATASIZE SUB PUSH1 0x60 DUP2 LT ISZERO PUSH2 0xC73 JUMPI PUSH1 0x0 DUP1 REVERT JUMPDEST DUP2 ADD SWAP1 DUP1 DUP1 CALLDATALOAD SWAP1 PUSH1 0x20 ADD SWAP1 SWAP3 SWAP2 SWAP1 DUP1 CALLDATALOAD SWAP1 PUSH1 0x20 ADD SWAP1 SWAP3 SWAP2 SWAP1 DUP1 CALLDATALOAD SWAP1 PUSH1 0x20 ADD SWAP1 SWAP3 SWAP2 SWAP1 POP POP POP PUSH2 0x42A6 JUMP JUMPDEST STOP JUMPDEST PUSH2 0xCF5 PUSH1 0x4 DUP1 CALLDATASIZE SUB PUSH1 0x60 DUP2 LT ISZERO PUSH2 0xCB5 JUMPI PUSH1 0x0 DUP1 REVERT JUMPDEST DUP2 ADD SWAP1 DUP1 DUP1 CALLDATALOAD PUSH20 0xFFFFFFFFFFFFFFFFFFFFFFFFFFFFFFFFFFFFFFFF AND SWAP1 PUSH1 0x20 ADD SWAP1 SWAP3 SWAP2 SWAP1 DUP1 CALLDATALOAD SWAP1 PUSH1 0x20 ADD SWAP1 SWAP3 SWAP2 SWAP1 DUP1 CALLDATALOAD SWAP1 PUSH1 0x20 ADD SWAP1 SWAP3 SWAP2 SWAP1 POP POP POP PUSH2 0x437C JUMP JUMPDEST PUSH1 0x40 MLOAD DUP1 DUP3 ISZERO ISZERO ISZERO ISZERO DUP2 MSTORE PUSH1 0x20 ADD SWAP2 POP POP PUSH1 0x40 MLOAD DUP1 SWAP2 SUB SWAP1 RETURN JUMPDEST PUSH2 0xD3B PUSH1 0x4 DUP1 CALLDATASIZE SUB PUSH1 0x20 DUP2 LT ISZERO PUSH2 0xD25 JUMPI PUSH1 0x0 DUP1 REVERT JUMPDEST DUP2 ADD SWAP1 DUP1 DUP1 CALLDATALOAD SWAP1 PUSH1 0x20 ADD SWAP1 SWAP3 SWAP2 SWAP1 POP POP POP PUSH2 0x46E7 JUMP JUMPDEST STOP JUMPDEST PUSH2 0xD45 PUSH2 0x4A6D JUMP JUMPDEST PUSH1 0x40 MLOAD DUP1 DUP3 DUP2 MSTORE PUSH1 0x20 ADD SWAP2 POP POP PUSH1 0x40 MLOAD DUP1 SWAP2 SUB SWAP1 RETURN JUMPDEST PUSH2 0xD87 PUSH1 0x4 DUP1 CALLDATASIZE SUB PUSH1 0x20 DUP2 LT ISZERO PUSH2 0xD71 JUMPI PUSH1 0x0 DUP1 REVERT JUMPDEST DUP2 ADD SWAP1 DUP1 DUP1 CALLDATALOAD SWAP1 PUSH1 0x20 ADD SWAP1 SWAP3 SWAP2 SWAP1 POP POP POP PUSH2 0x4A7D JUMP JUMPDEST STOP JUMPDEST PUSH2 0xE69 PUSH1 0x4 DUP1 CALLDATASIZE SUB PUSH1 0x60 DUP2 LT ISZERO PUSH2 0xD9F JUMPI PUSH1 0x0 DUP1 REVERT JUMPDEST DUP2 ADD SWAP1 DUP1 DUP1 CALLDATALOAD PUSH20 0xFFFFFFFFFFFFFFFFFFFFFFFFFFFFFFFFFFFFFFFF AND SWAP1 PUSH1 0x20 ADD SWAP1 SWAP3 SWAP2 SWAP1 DUP1 CALLDATALOAD SWAP1 PUSH1 0x20 ADD SWAP1 PUSH5 0x100000000 DUP2 GT ISZERO PUSH2 0xDDC JUMPI PUSH1 0x0 DUP1 REVERT JUMPDEST DUP3 ADD DUP4 PUSH1 0x20 DUP3 ADD GT ISZERO PUSH2 0xDEE JUMPI PUSH1 0x0 DUP1 REVERT JUMPDEST DUP1 CALLDATALOAD SWAP1 PUSH1 0x20 ADD SWAP2 DUP5 PUSH1 0x20 DUP4 MUL DUP5 ADD GT PUSH5 0x100000000 DUP4 GT OR ISZERO PUSH2 0xE10 JUMPI PUSH1 0x0 DUP1 REVERT JUMPDEST SWAP2 SWAP1 DUP1 DUP1 PUSH1 0x20 MUL PUSH1 0x20 ADD PUSH1 0x40 MLOAD SWAP1 DUP2 ADD PUSH1 0x40 MSTORE DUP1 SWAP4 SWAP3 SWAP2 SWAP1 DUP2 DUP2 MSTORE PUSH1 0x20 ADD DUP4 DUP4 PUSH1 0x20 MUL DUP1 DUP3 DUP5 CALLDATACOPY PUSH1 0x0 DUP2 DUP5 ADD MSTORE PUSH1 0x1F NOT PUSH1 0x1F DUP3 ADD AND SWAP1 POP DUP1 DUP4 ADD SWAP3 POP POP POP POP POP POP POP SWAP2 SWAP3 SWAP2 SWAP3 SWAP1 DUP1 CALLDATALOAD SWAP1 PUSH1 0x20 ADD SWAP1 SWAP3 SWAP2 SWAP1 POP POP POP PUSH2 0x5248 JUMP JUMPDEST PUSH1 0x40 MLOAD DUP1 DUP3 DUP2 MSTORE PUSH1 0x20 ADD SWAP2 POP POP PUSH1 0x40 MLOAD DUP1 SWAP2 SUB SWAP1 RETURN JUMPDEST PUSH2 0xEB5 PUSH1 0x4 DUP1 CALLDATASIZE SUB PUSH1 0x40 DUP2 LT ISZERO PUSH2 0xE95 JUMPI PUSH1 0x0 DUP1 REVERT JUMPDEST DUP2 ADD SWAP1 DUP1 DUP1 CALLDATALOAD SWAP1 PUSH1 0x20 ADD SWAP1 SWAP3 SWAP2 SWAP1 DUP1 CALLDATALOAD SWAP1 PUSH1 0x20 ADD SWAP1 SWAP3 SWAP2 SWAP1 POP POP POP PUSH2 0x55EE JUMP JUMPDEST STOP JUMPDEST PUSH2 0xEE3 PUSH1 0x4 DUP1 CALLDATASIZE SUB PUSH1 0x20 DUP2 LT ISZERO PUSH2 0xECD JUMPI PUSH1 0x0 DUP1 REVERT JUMPDEST DUP2 ADD SWAP1 DUP1 DUP1 CALLDATALOAD SWAP1 PUSH1 0x20 ADD SWAP1 SWAP3 SWAP2 SWAP1 POP POP POP PUSH2 0x59CD JUMP JUMPDEST STOP JUMPDEST PUSH2 0xF9B PUSH1 0x4 DUP1 CALLDATASIZE SUB PUSH1 0x20 DUP2 LT ISZERO PUSH2 0xEFB JUMPI PUSH1 0x0 DUP1 REVERT JUMPDEST DUP2 ADD SWAP1 DUP1 DUP1 CALLDATALOAD SWAP1 PUSH1 0x20 ADD SWAP1 PUSH5 0x100000000 DUP2 GT ISZERO PUSH2 0xF18 JUMPI PUSH1 0x0 DUP1 REVERT JUMPDEST DUP3 ADD DUP4 PUSH1 0x20 DUP3 ADD GT ISZERO PUSH2 0xF2A JUMPI PUSH1 0x0 DUP1 REVERT JUMPDEST DUP1 CALLDATALOAD SWAP1 PUSH1 0x20 ADD SWAP2 DUP5 PUSH1 0x20 DUP4 MUL DUP5 ADD GT PUSH5 0x100000000 DUP4 GT OR ISZERO PUSH2 0xF4C JUMPI PUSH1 0x0 DUP1 REVERT JUMPDEST SWAP2 SWAP1 DUP1 DUP1 PUSH1 0x20 MUL PUSH1 0x20 ADD PUSH1 0x40 MLOAD SWAP1 DUP2 ADD PUSH1 0x40 MSTORE DUP1 SWAP4 SWAP3 SWAP2 SWAP1 DUP2 DUP2 MSTORE PUSH1 0x20 ADD DUP4 DUP4 PUSH1 0x20 MUL DUP1 DUP3 DUP5 CALLDATACOPY PUSH1 0x0 DUP2 DUP5 ADD MSTORE PUSH1 0x1F NOT PUSH1 0x1F DUP3 ADD AND SWAP1 POP DUP1 DUP4 ADD SWAP3 POP POP POP POP POP POP POP SWAP2 SWAP3 SWAP2 SWAP3 SWAP1 POP POP POP PUSH2 0x5A56 JUMP JUMPDEST STOP JUMPDEST PUSH2 0xFA5 PUSH2 0x5E6D JUMP JUMPDEST PUSH1 0x40 MLOAD DUP1 DUP3 PUSH20 0xFFFFFFFFFFFFFFFFFFFFFFFFFFFFFFFFFFFFFFFF AND PUSH20 0xFFFFFFFFFFFFFFFFFFFFFFFFFFFFFFFFFFFFFFFF AND DUP2 MSTORE PUSH1 0x20 ADD SWAP2 POP POP PUSH1 0x40 MLOAD DUP1 SWAP2 SUB SWAP1 RETURN JUMPDEST PUSH1 0x3 PUSH1 0x0 SWAP1 SLOAD SWAP1 PUSH2 0x100 EXP SWAP1 DIV PUSH20 0xFFFFFFFFFFFFFFFFFFFFFFFFFFFFFFFFFFFFFFFF AND DUP2 JUMP JUMPDEST PUSH1 0x0 DUP1 PUSH1 0x0 SWAP1 POP JUMPDEST DUP4 MLOAD DUP2 LT ISZERO PUSH2 0x1472 JUMPI PUSH1 0x1 PUSH1 0x8 PUSH1 0x0 DUP7 DUP5 DUP2 MLOAD DUP2 LT PUSH2 0x1030 JUMPI INVALID JUMPDEST PUSH1 0x20 MUL PUSH1 0x20 ADD ADD MLOAD PUSH20 0xFFFFFFFFFFFFFFFFFFFFFFFFFFFFFFFFFFFFFFFF AND PUSH20 0xFFFFFFFFFFFFFFFFFFFFFFFFFFFFFFFFFFFFFFFF AND DUP2 MSTORE PUSH1 0x20 ADD SWAP1 DUP2 MSTORE PUSH1 0x20 ADD PUSH1 0x0 KECCAK256 DUP5 DUP4 DUP2 MLOAD DUP2 LT PUSH2 0x107E JUMPI INVALID JUMPDEST PUSH1 0x20 MUL PUSH1 0x20 ADD ADD MLOAD DUP2 SLOAD DUP2 LT PUSH2 0x1090 JUMPI INVALID JUMPDEST SWAP1 PUSH1 0x0 MSTORE PUSH1 0x20 PUSH1 0x0 KECCAK256 SWAP1 PUSH1 0x5 MUL ADD PUSH1 0x3 ADD SLOAD EQ PUSH2 0x10AC JUMPI PUSH1 0x0 DUP1 REVERT JUMPDEST PUSH2 0x1160 PUSH1 0x4 SLOAD PUSH1 0x6 PUSH1 0x8 PUSH1 0x0 DUP9 DUP7 DUP2 MLOAD DUP2 LT PUSH2 0x10C4 JUMPI INVALID JUMPDEST PUSH1 0x20 MUL PUSH1 0x20 ADD ADD MLOAD PUSH20 0xFFFFFFFFFFFFFFFFFFFFFFFFFFFFFFFFFFFFFFFF AND PUSH20 0xFFFFFFFFFFFFFFFFFFFFFFFFFFFFFFFFFFFFFFFF AND DUP2 MSTORE PUSH1 0x20 ADD SWAP1 DUP2 MSTORE PUSH1 0x20 ADD PUSH1 0x0 KECCAK256 DUP7 DUP6 DUP2 MLOAD DUP2 LT PUSH2 0x1112 JUMPI INVALID JUMPDEST PUSH1 0x20 MUL PUSH1 0x20 ADD ADD MLOAD DUP2 SLOAD DUP2 LT PUSH2 0x1124 JUMPI INVALID JUMPDEST SWAP1 PUSH1 0x0 MSTORE PUSH1 0x20 PUSH1 0x0 KECCAK256 SWAP1 PUSH1 0x5 MUL ADD PUSH1 0x2 ADD SLOAD DUP2 SLOAD DUP2 LT PUSH2 0x1140 JUMPI INVALID JUMPDEST SWAP1 PUSH1 0x0 MSTORE PUSH1 0x20 PUSH1 0x0 KECCAK256 SWAP1 PUSH1 0x3 MUL ADD PUSH1 0x0 ADD SLOAD PUSH2 0x5E93 SWAP1 SWAP2 SWAP1 PUSH4 0xFFFFFFFF AND JUMP JUMPDEST PUSH1 0x8 PUSH1 0x0 DUP7 DUP5 DUP2 MLOAD DUP2 LT PUSH2 0x1170 JUMPI INVALID JUMPDEST PUSH1 0x20 MUL PUSH1 0x20 ADD ADD MLOAD PUSH20 0xFFFFFFFFFFFFFFFFFFFFFFFFFFFFFFFFFFFFFFFF AND PUSH20 0xFFFFFFFFFFFFFFFFFFFFFFFFFFFFFFFFFFFFFFFF AND DUP2 MSTORE PUSH1 0x20 ADD SWAP1 DUP2 MSTORE PUSH1 0x20 ADD PUSH1 0x0 KECCAK256 DUP5 DUP4 DUP2 MLOAD DUP2 LT PUSH2 0x11BE JUMPI INVALID JUMPDEST PUSH1 0x20 MUL PUSH1 0x20 ADD ADD MLOAD DUP2 SLOAD DUP2 LT PUSH2 0x11D0 JUMPI INVALID JUMPDEST SWAP1 PUSH1 0x0 MSTORE PUSH1 0x20 PUSH1 0x0 KECCAK256 SWAP1 PUSH1 0x5 MUL ADD PUSH1 0x1 ADD SLOAD ADD PUSH1 0x2 PUSH1 0x0 SWAP1 SLOAD SWAP1 PUSH2 0x100 EXP SWAP1 DIV PUSH20 0xFFFFFFFFFFFFFFFFFFFFFFFFFFFFFFFFFFFFFFFF AND PUSH20 0xFFFFFFFFFFFFFFFFFFFFFFFFFFFFFFFFFFFFFFFF AND PUSH4 0xB81F90F3 PUSH1 0x40 MLOAD DUP2 PUSH4 0xFFFFFFFF AND PUSH1 0xE0 SHL DUP2 MSTORE PUSH1 0x4 ADD PUSH1 0x20 PUSH1 0x40 MLOAD DUP1 DUP4 SUB DUP2 DUP7 DUP1 EXTCODESIZE ISZERO DUP1 ISZERO PUSH2 0x124B JUMPI PUSH1 0x0 DUP1 REVERT JUMPDEST POP GAS STATICCALL ISZERO DUP1 ISZERO PUSH2 0x125F JUMPI RETURNDATASIZE PUSH1 0x0 DUP1 RETURNDATACOPY RETURNDATASIZE PUSH1 0x0 REVERT JUMPDEST POP POP POP POP PUSH1 0x40 MLOAD RETURNDATASIZE PUSH1 0x20 DUP2 LT ISZERO PUSH2 0x1275 JUMPI PUSH1 0x0 DUP1 REVERT JUMPDEST DUP2 ADD SWAP1 DUP1 DUP1 MLOAD SWAP1 PUSH1 0x20 ADD SWAP1 SWAP3 SWAP2 SWAP1 POP POP POP GT PUSH2 0x1290 JUMPI PUSH1 0x0 DUP1 REVERT JUMPDEST PUSH1 0x0 PUSH1 0x8 PUSH1 0x0 DUP7 DUP5 DUP2 MLOAD DUP2 LT PUSH2 0x12A2 JUMPI INVALID JUMPDEST PUSH1 0x20 MUL PUSH1 0x20 ADD ADD MLOAD PUSH20 0xFFFFFFFFFFFFFFFFFFFFFFFFFFFFFFFFFFFFFFFF AND PUSH20 0xFFFFFFFFFFFFFFFFFFFFFFFFFFFFFFFFFFFFFFFF AND DUP2 MSTORE PUSH1 0x20 ADD SWAP1 DUP2 MSTORE PUSH1 0x20 ADD PUSH1 0x0 KECCAK256 DUP5 DUP4 DUP2 MLOAD DUP2 LT PUSH2 0x12F0 JUMPI INVALID JUMPDEST PUSH1 0x20 MUL PUSH1 0x20 ADD ADD MLOAD DUP2 SLOAD DUP2 LT PUSH2 0x1302 JUMPI INVALID JUMPDEST SWAP1 PUSH1 0x0 MSTORE PUSH1 0x20 PUSH1 0x0 KECCAK256 SWAP1 PUSH1 0x5 MUL ADD PUSH1 0x4 ADD SWAP1 POP PUSH1 0x0 DUP1 SWAP1 POP JUMPDEST DUP2 DUP1 SLOAD SWAP1 POP DUP2 LT ISZERO PUSH2 0x13CD JUMPI PUSH2 0x13BE PUSH1 0x7 PUSH1 0x0 DUP9 DUP7 DUP2 MLOAD DUP2 LT PUSH2 0x133A JUMPI INVALID JUMPDEST PUSH1 0x20 MUL PUSH1 0x20 ADD ADD MLOAD PUSH20 0xFFFFFFFFFFFFFFFFFFFFFFFFFFFFFFFFFFFFFFFF AND PUSH20 0xFFFFFFFFFFFFFFFFFFFFFFFFFFFFFFFFFFFFFFFF AND DUP2 MSTORE PUSH1 0x20 ADD SWAP1 DUP2 MSTORE PUSH1 0x20 ADD PUSH1 0x0 KECCAK256 DUP4 DUP4 DUP2 SLOAD DUP2 LT PUSH2 0x1388 JUMPI INVALID JUMPDEST SWAP1 PUSH1 0x0 MSTORE PUSH1 0x20 PUSH1 0x0 KECCAK256 ADD SLOAD DUP2 SLOAD DUP2 LT PUSH2 0x139D JUMPI INVALID JUMPDEST SWAP1 PUSH1 0x0 MSTORE PUSH1 0x20 PUSH1 0x0 KECCAK256 SWAP1 PUSH1 0x9 MUL ADD PUSH1 0x0 ADD SLOAD DUP6 PUSH2 0x5ECD SWAP1 SWAP2 SWAP1 PUSH4 0xFFFFFFFF AND JUMP JUMPDEST SWAP4 POP DUP1 DUP1 PUSH1 0x1 ADD SWAP2 POP POP PUSH2 0x131B JUMP JUMPDEST POP PUSH2 0x1462 PUSH1 0x8 PUSH1 0x0 DUP8 DUP6 DUP2 MLOAD DUP2 LT PUSH2 0x13E1 JUMPI INVALID JUMPDEST PUSH1 0x20 MUL PUSH1 0x20 ADD ADD MLOAD PUSH20 0xFFFFFFFFFFFFFFFFFFFFFFFFFFFFFFFFFFFFFFFF AND PUSH20 0xFFFFFFFFFFFFFFFFFFFFFFFFFFFFFFFFFFFFFFFF AND DUP2 MSTORE PUSH1 0x20 ADD SWAP1 DUP2 MSTORE PUSH1 0x20 ADD PUSH1 0x0 KECCAK256 DUP6 DUP5 DUP2 MLOAD DUP2 LT PUSH2 0x142F JUMPI INVALID JUMPDEST PUSH1 0x20 MUL PUSH1 0x20 ADD ADD MLOAD DUP2 SLOAD DUP2 LT PUSH2 0x1441 JUMPI INVALID JUMPDEST SWAP1 PUSH1 0x0 MSTORE PUSH1 0x20 PUSH1 0x0 KECCAK256 SWAP1 PUSH1 0x5 MUL ADD PUSH1 0x0 ADD SLOAD DUP5 PUSH2 0x5EEC SWAP1 SWAP2 SWAP1 PUSH4 0xFFFFFFFF AND JUMP JUMPDEST SWAP3 POP POP DUP1 DUP1 PUSH1 0x1 ADD SWAP2 POP POP PUSH2 0x1015 JUMP JUMPDEST POP PUSH1 0x2 PUSH1 0x0 SWAP1 SLOAD SWAP1 PUSH2 0x100 EXP SWAP1 DIV PUSH20 0xFFFFFFFFFFFFFFFFFFFFFFFFFFFFFFFFFFFFFFFF AND PUSH20 0xFFFFFFFFFFFFFFFFFFFFFFFFFFFFFFFFFFFFFFFF AND PUSH4 0xA9059CBB PUSH1 0x3 PUSH1 0x0 SWAP1 SLOAD SWAP1 PUSH2 0x100 EXP SWAP1 DIV PUSH20 0xFFFFFFFFFFFFFFFFFFFFFFFFFFFFFFFFFFFFFFFF AND DUP4 PUSH1 0x40 MLOAD DUP4 PUSH4 0xFFFFFFFF AND PUSH1 0xE0 SHL DUP2 MSTORE PUSH1 0x4 ADD DUP1 DUP4 PUSH20 0xFFFFFFFFFFFFFFFFFFFFFFFFFFFFFFFFFFFFFFFF AND PUSH20 0xFFFFFFFFFFFFFFFFFFFFFFFFFFFFFFFFFFFFFFFF AND DUP2 MSTORE PUSH1 0x20 ADD DUP3 DUP2 MSTORE PUSH1 0x20 ADD SWAP3 POP POP POP PUSH1 0x20 PUSH1 0x40 MLOAD DUP1 DUP4 SUB DUP2 PUSH1 0x0 DUP8 DUP1 EXTCODESIZE ISZERO DUP1 ISZERO PUSH2 0x153E JUMPI PUSH1 0x0 DUP1 REVERT JUMPDEST POP GAS CALL ISZERO DUP1 ISZERO PUSH2 0x1552 JUMPI RETURNDATASIZE PUSH1 0x0 DUP1 RETURNDATACOPY RETURNDATASIZE PUSH1 0x0 REVERT JUMPDEST POP POP POP POP PUSH1 0x40 MLOAD RETURNDATASIZE PUSH1 0x20 DUP2 LT ISZERO PUSH2 0x1568 JUMPI PUSH1 0x0 DUP1 REVERT JUMPDEST DUP2 ADD SWAP1 DUP1 DUP1 MLOAD SWAP1 PUSH1 0x20 ADD SWAP1 SWAP3 SWAP2 SWAP1 POP POP POP PUSH2 0x1582 JUMPI PUSH1 0x0 DUP1 REVERT JUMPDEST PUSH1 0x3 PUSH1 0x0 SWAP1 SLOAD SWAP1 PUSH2 0x100 EXP SWAP1 DIV PUSH20 0xFFFFFFFFFFFFFFFFFFFFFFFFFFFFFFFFFFFFFFFF AND PUSH20 0xFFFFFFFFFFFFFFFFFFFFFFFFFFFFFFFFFFFFFFFF AND PUSH4 0x41AAA9B6 DUP3 PUSH1 0x40 MLOAD DUP3 PUSH4 0xFFFFFFFF AND PUSH1 0xE0 SHL DUP2 MSTORE PUSH1 0x4 ADD DUP1 DUP3 DUP2 MSTORE PUSH1 0x20 ADD SWAP2 POP POP PUSH1 0x20 PUSH1 0x40 MLOAD DUP1 DUP4 SUB DUP2 PUSH1 0x0 DUP8 DUP1 EXTCODESIZE ISZERO DUP1 ISZERO PUSH2 0x15F7 JUMPI PUSH1 0x0 DUP1 REVERT JUMPDEST POP GAS CALL ISZERO DUP1 ISZERO PUSH2 0x160B JUMPI RETURNDATASIZE PUSH1 0x0 DUP1 RETURNDATACOPY RETURNDATASIZE PUSH1 0x0 REVERT JUMPDEST POP POP POP POP PUSH1 0x40 MLOAD RETURNDATASIZE PUSH1 0x20 DUP2 LT ISZERO PUSH2 0x1621 JUMPI PUSH1 0x0 DUP1 REVERT JUMPDEST DUP2 ADD SWAP1 DUP1 DUP1 MLOAD SWAP1 PUSH1 0x20 ADD SWAP1 SWAP3 SWAP2 SWAP1 POP POP POP PUSH2 0x163B JUMPI PUSH1 0x0 DUP1 REVERT JUMPDEST POP POP POP JUMP JUMPDEST PUSH1 0x7 PUSH1 0x20 MSTORE DUP2 PUSH1 0x0 MSTORE PUSH1 0x40 PUSH1 0x0 KECCAK256 DUP2 DUP2 SLOAD DUP2 LT PUSH2 0x1659 JUMPI INVALID JUMPDEST SWAP1 PUSH1 0x0 MSTORE PUSH1 0x20 PUSH1 0x0 KECCAK256 SWAP1 PUSH1 0x9 MUL ADD PUSH1 0x0 SWAP2 POP SWAP2 POP POP DUP1 PUSH1 0x0 ADD SLOAD SWAP1 DUP1 PUSH1 0x1 ADD SLOAD SWAP1 DUP1 PUSH1 0x2 ADD SLOAD SWAP1 DUP1 PUSH1 0x3 ADD SLOAD SWAP1 DUP1 PUSH1 0x4 ADD SLOAD SWAP1 DUP1 PUSH1 0x5 ADD SLOAD SWAP1 DUP1 PUSH1 0x6 ADD SLOAD SWAP1 POP DUP8 JUMP JUMPDEST PUSH1 0xB DUP2 DUP2 SLOAD DUP2 LT PUSH2 0x16A9 JUMPI INVALID JUMPDEST SWAP1 PUSH1 0x0 MSTORE PUSH1 0x20 PUSH1 0x0 KECCAK256 ADD PUSH1 0x0 SWAP2 POP SWAP1 POP SLOAD DUP2 JUMP JUMPDEST PUSH1 0x0 DUP1 PUSH1 0x0 DUP1 SWAP1 POP JUMPDEST DUP4 MLOAD DUP2 LT ISZERO PUSH2 0x1880 JUMPI PUSH2 0x16ED DUP7 DUP7 DUP7 DUP5 DUP2 MLOAD DUP2 LT PUSH2 0x16E0 JUMPI INVALID JUMPDEST PUSH1 0x20 MUL PUSH1 0x20 ADD ADD MLOAD PUSH2 0x437C JUMP JUMPDEST DUP1 ISZERO PUSH2 0x1783 JUMPI POP PUSH1 0x7 PUSH1 0x0 DUP8 PUSH20 0xFFFFFFFFFFFFFFFFFFFFFFFFFFFFFFFFFFFFFFFF AND PUSH20 0xFFFFFFFFFFFFFFFFFFFFFFFFFFFFFFFFFFFFFFFF AND DUP2 MSTORE PUSH1 0x20 ADD SWAP1 DUP2 MSTORE PUSH1 0x20 ADD PUSH1 0x0 KECCAK256 DUP6 DUP2 SLOAD DUP2 LT PUSH2 0x173E JUMPI INVALID JUMPDEST SWAP1 PUSH1 0x0 MSTORE PUSH1 0x20 PUSH1 0x0 KECCAK256 SWAP1 PUSH1 0x9 MUL ADD PUSH1 0x7 ADD PUSH1 0x0 DUP6 DUP4 DUP2 MLOAD DUP2 LT PUSH2 0x175D JUMPI INVALID JUMPDEST PUSH1 0x20 MUL PUSH1 0x20 ADD ADD MLOAD DUP2 MSTORE PUSH1 0x20 ADD SWAP1 DUP2 MSTORE PUSH1 0x20 ADD PUSH1 0x0 KECCAK256 PUSH1 0x0 SWAP1 SLOAD SWAP1 PUSH2 0x100 EXP SWAP1 DIV PUSH1 0xFF AND ISZERO JUMPDEST ISZERO PUSH2 0x1873 JUMPI PUSH1 0x0 PUSH2 0x185A PUSH1 0xA PUSH1 0x0 DUP8 DUP6 DUP2 MLOAD DUP2 LT PUSH2 0x179D JUMPI INVALID JUMPDEST PUSH1 0x20 MUL PUSH1 0x20 ADD ADD MLOAD DUP2 MSTORE PUSH1 0x20 ADD SWAP1 DUP2 MSTORE PUSH1 0x20 ADD PUSH1 0x0 KECCAK256 SLOAD PUSH2 0x184C PUSH1 0xB DUP9 DUP7 DUP2 MLOAD DUP2 LT PUSH2 0x17C5 JUMPI INVALID JUMPDEST PUSH1 0x20 MUL PUSH1 0x20 ADD ADD MLOAD DUP2 SLOAD DUP2 LT PUSH2 0x17D7 JUMPI INVALID JUMPDEST SWAP1 PUSH1 0x0 MSTORE PUSH1 0x20 PUSH1 0x0 KECCAK256 ADD SLOAD PUSH1 0x7 PUSH1 0x0 DUP13 PUSH20 0xFFFFFFFFFFFFFFFFFFFFFFFFFFFFFFFFFFFFFFFF AND PUSH20 0xFFFFFFFFFFFFFFFFFFFFFFFFFFFFFFFFFFFFFFFF AND DUP2 MSTORE PUSH1 0x20 ADD SWAP1 DUP2 MSTORE PUSH1 0x20 ADD PUSH1 0x0 KECCAK256 DUP11 DUP2 SLOAD DUP2 LT PUSH2 0x182C JUMPI INVALID JUMPDEST SWAP1 PUSH1 0x0 MSTORE PUSH1 0x20 PUSH1 0x0 KECCAK256 SWAP1 PUSH1 0x9 MUL ADD PUSH1 0x0 ADD SLOAD PUSH2 0x5E93 SWAP1 SWAP2 SWAP1 PUSH4 0xFFFFFFFF AND JUMP JUMPDEST PUSH2 0x5F0C SWAP1 SWAP2 SWAP1 PUSH4 0xFFFFFFFF AND JUMP JUMPDEST SWAP1 POP PUSH2 0x186F DUP2 DUP5 PUSH2 0x5ECD SWAP1 SWAP2 SWAP1 PUSH4 0xFFFFFFFF AND JUMP JUMPDEST SWAP3 POP POP JUMPDEST DUP1 DUP1 PUSH1 0x1 ADD SWAP2 POP POP PUSH2 0x16C6 JUMP JUMPDEST POP PUSH2 0x1920 PUSH1 0xF PUSH2 0x1912 PUSH1 0x5 PUSH1 0x7 PUSH1 0x0 DUP11 PUSH20 0xFFFFFFFFFFFFFFFFFFFFFFFFFFFFFFFFFFFFFFFF AND PUSH20 0xFFFFFFFFFFFFFFFFFFFFFFFFFFFFFFFFFFFFFFFF AND DUP2 MSTORE PUSH1 0x20 ADD SWAP1 DUP2 MSTORE PUSH1 0x20 ADD PUSH1 0x0 KECCAK256 DUP9 DUP2 SLOAD DUP2 LT PUSH2 0x18D5 JUMPI INVALID JUMPDEST SWAP1 PUSH1 0x0 MSTORE PUSH1 0x20 PUSH1 0x0 KECCAK256 SWAP1 PUSH1 0x9 MUL ADD PUSH1 0x3 ADD SLOAD DUP2 SLOAD DUP2 LT PUSH2 0x18F1 JUMPI INVALID JUMPDEST SWAP1 PUSH1 0x0 MSTORE PUSH1 0x20 PUSH1 0x0 KECCAK256 SWAP1 PUSH1 0x3 MUL ADD PUSH1 0x1 ADD SLOAD DUP5 PUSH2 0x5E93 SWAP1 SWAP2 SWAP1 PUSH4 0xFFFFFFFF AND JUMP JUMPDEST PUSH2 0x5F0C SWAP1 SWAP2 SWAP1 PUSH4 0xFFFFFFFF AND JUMP JUMPDEST SWAP2 POP POP SWAP4 SWAP3 POP POP POP JUMP JUMPDEST PUSH1 0x0 PUSH1 0x7 PUSH1 0x0 DUP6 PUSH20 0xFFFFFFFFFFFFFFFFFFFFFFFFFFFFFFFFFFFFFFFF AND PUSH20 0xFFFFFFFFFFFFFFFFFFFFFFFFFFFFFFFFFFFFFFFF AND DUP2 MSTORE PUSH1 0x20 ADD SWAP1 DUP2 MSTORE PUSH1 0x20 ADD PUSH1 0x0 KECCAK256 DUP4 DUP2 SLOAD DUP2 LT PUSH2 0x1976 JUMPI INVALID JUMPDEST SWAP1 PUSH1 0x0 MSTORE PUSH1 0x20 PUSH1 0x0 KECCAK256 SWAP1 PUSH1 0x9 MUL ADD PUSH1 0x8 ADD PUSH1 0x0 DUP4 PUSH20 0xFFFFFFFFFFFFFFFFFFFFFFFFFFFFFFFFFFFFFFFF AND PUSH20 0xFFFFFFFFFFFFFFFFFFFFFFFFFFFFFFFFFFFFFFFF AND DUP2 MSTORE PUSH1 0x20 ADD SWAP1 DUP2 MSTORE PUSH1 0x20 ADD PUSH1 0x0 KECCAK256 SLOAD SWAP1 POP SWAP4 SWAP3 POP POP POP JUMP JUMPDEST PUSH1 0xA PUSH1 0x20 MSTORE DUP1 PUSH1 0x0 MSTORE PUSH1 0x40 PUSH1 0x0 KECCAK256 PUSH1 0x0 SWAP2 POP SWAP1 POP SLOAD DUP2 JUMP JUMPDEST PUSH1 0x1 PUSH1 0x7 PUSH1 0x0 CALLER PUSH20 0xFFFFFFFFFFFFFFFFFFFFFFFFFFFFFFFFFFFFFFFF AND PUSH20 0xFFFFFFFFFFFFFFFFFFFFFFFFFFFFFFFFFFFFFFFF AND DUP2 MSTORE PUSH1 0x20 ADD SWAP1 DUP2 MSTORE PUSH1 0x20 ADD PUSH1 0x0 KECCAK256 DUP4 DUP2 SLOAD DUP2 LT PUSH2 0x1A32 JUMPI INVALID JUMPDEST SWAP1 PUSH1 0x0 MSTORE PUSH1 0x20 PUSH1 0x0 KECCAK256 SWAP1 PUSH1 0x9 MUL ADD PUSH1 0x4 ADD SLOAD EQ PUSH2 0x1AB7 JUMPI PUSH1 0x40 MLOAD PUSH32 0x8C379A000000000000000000000000000000000000000000000000000000000 DUP2 MSTORE PUSH1 0x4 ADD DUP1 DUP1 PUSH1 0x20 ADD DUP3 DUP2 SUB DUP3 MSTORE PUSH1 0x15 DUP2 MSTORE PUSH1 0x20 ADD DUP1 PUSH32 0x7374616B696E672073686F756C64206163746976650000000000000000000000 DUP2 MSTORE POP PUSH1 0x20 ADD SWAP2 POP POP PUSH1 0x40 MLOAD DUP1 SWAP2 SUB SWAP1 REVERT JUMPDEST PUSH1 0x0 PUSH1 0x7 PUSH1 0x0 CALLER PUSH20 0xFFFFFFFFFFFFFFFFFFFFFFFFFFFFFFFFFFFFFFFF AND PUSH20 0xFFFFFFFFFFFFFFFFFFFFFFFFFFFFFFFFFFFFFFFF AND DUP2 MSTORE PUSH1 0x20 ADD SWAP1 DUP2 MSTORE PUSH1 0x20 ADD PUSH1 0x0 KECCAK256 DUP4 DUP2 SLOAD DUP2 LT PUSH2 0x1B03 JUMPI INVALID JUMPDEST SWAP1 PUSH1 0x0 MSTORE PUSH1 0x20 PUSH1 0x0 KECCAK256 SWAP1 PUSH1 0x9 MUL ADD PUSH1 0x8 ADD PUSH1 0x0 CALLER PUSH20 0xFFFFFFFFFFFFFFFFFFFFFFFFFFFFFFFFFFFFFFFF AND PUSH20 0xFFFFFFFFFFFFFFFFFFFFFFFFFFFFFFFFFFFFFFFF AND DUP2 MSTORE PUSH1 0x20 ADD SWAP1 DUP2 MSTORE PUSH1 0x20 ADD PUSH1 0x0 KECCAK256 SLOAD SWAP1 POP PUSH1 0x0 PUSH1 0x7 PUSH1 0x0 CALLER PUSH20 0xFFFFFFFFFFFFFFFFFFFFFFFFFFFFFFFFFFFFFFFF AND PUSH20 0xFFFFFFFFFFFFFFFFFFFFFFFFFFFFFFFFFFFFFFFF AND DUP2 MSTORE PUSH1 0x20 ADD SWAP1 DUP2 MSTORE PUSH1 0x20 ADD PUSH1 0x0 KECCAK256 DUP5 DUP2 SLOAD DUP2 LT PUSH2 0x1BA0 JUMPI INVALID JUMPDEST SWAP1 PUSH1 0x0 MSTORE PUSH1 0x20 PUSH1 0x0 KECCAK256 SWAP1 PUSH1 0x9 MUL ADD PUSH1 0x8 ADD PUSH1 0x0 DUP5 PUSH20 0xFFFFFFFFFFFFFFFFFFFFFFFFFFFFFFFFFFFFFFFF AND PUSH20 0xFFFFFFFFFFFFFFFFFFFFFFFFFFFFFFFFFFFFFFFF AND DUP2 MSTORE PUSH1 0x20 ADD SWAP1 DUP2 MSTORE PUSH1 0x20 ADD PUSH1 0x0 KECCAK256 DUP2 SWAP1 SSTORE POP PUSH2 0x1C60 DUP2 PUSH1 0x7 PUSH1 0x0 CALLER PUSH20 0xFFFFFFFFFFFFFFFFFFFFFFFFFFFFFFFFFFFFFFFF AND PUSH20 0xFFFFFFFFFFFFFFFFFFFFFFFFFFFFFFFFFFFFFFFF AND DUP2 MSTORE PUSH1 0x20 ADD SWAP1 DUP2 MSTORE PUSH1 0x20 ADD PUSH1 0x0 KECCAK256 DUP6 DUP2 SLOAD DUP2 LT PUSH2 0x1C40 JUMPI INVALID JUMPDEST SWAP1 PUSH1 0x0 MSTORE PUSH1 0x20 PUSH1 0x0 KECCAK256 SWAP1 PUSH1 0x9 MUL ADD PUSH1 0x6 ADD SLOAD PUSH2 0x5EEC SWAP1 SWAP2 SWAP1 PUSH4 0xFFFFFFFF AND JUMP JUMPDEST PUSH1 0x7 PUSH1 0x0 CALLER PUSH20 0xFFFFFFFFFFFFFFFFFFFFFFFFFFFFFFFFFFFFFFFF AND PUSH20 0xFFFFFFFFFFFFFFFFFFFFFFFFFFFFFFFFFFFFFFFF AND DUP2 MSTORE PUSH1 0x20 ADD SWAP1 DUP2 MSTORE PUSH1 0x20 ADD PUSH1 0x0 KECCAK256 DUP5 DUP2 SLOAD DUP2 LT PUSH2 0x1CAA JUMPI INVALID JUMPDEST SWAP1 PUSH1 0x0 MSTORE PUSH1 0x20 PUSH1 0x0 KECCAK256 SWAP1 PUSH1 0x9 MUL ADD PUSH1 0x6 ADD DUP2 SWAP1 SSTORE POP POP POP POP JUMP JUMPDEST PUSH1 0x2 PUSH1 0x0 SWAP1 SLOAD SWAP1 PUSH2 0x100 EXP SWAP1 DIV PUSH20 0xFFFFFFFFFFFFFFFFFFFFFFFFFFFFFFFFFFFFFFFF AND PUSH20 0xFFFFFFFFFFFFFFFFFFFFFFFFFFFFFFFFFFFFFFFF AND PUSH4 0x23B872DD CALLER ADDRESS DUP5 PUSH1 0x40 MLOAD DUP5 PUSH4 0xFFFFFFFF AND PUSH1 0xE0 SHL DUP2 MSTORE PUSH1 0x4 ADD DUP1 DUP5 PUSH20 0xFFFFFFFFFFFFFFFFFFFFFFFFFFFFFFFFFFFFFFFF AND PUSH20 0xFFFFFFFFFFFFFFFFFFFFFFFFFFFFFFFFFFFFFFFF AND DUP2 MSTORE PUSH1 0x20 ADD DUP4 PUSH20 0xFFFFFFFFFFFFFFFFFFFFFFFFFFFFFFFFFFFFFFFF AND PUSH20 0xFFFFFFFFFFFFFFFFFFFFFFFFFFFFFFFFFFFFFFFF AND DUP2 MSTORE PUSH1 0x20 ADD DUP3 DUP2 MSTORE PUSH1 0x20 ADD SWAP4 POP POP POP POP PUSH1 0x20 PUSH1 0x40 MLOAD DUP1 DUP4 SUB DUP2 PUSH1 0x0 DUP8 DUP1 EXTCODESIZE ISZERO DUP1 ISZERO PUSH2 0x1DA1 JUMPI PUSH1 0x0 DUP1 REVERT JUMPDEST POP GAS CALL ISZERO DUP1 ISZERO PUSH2 0x1DB5 JUMPI RETURNDATASIZE PUSH1 0x0 DUP1 RETURNDATACOPY RETURNDATASIZE PUSH1 0x0 REVERT JUMPDEST POP POP POP POP PUSH1 0x40 MLOAD RETURNDATASIZE PUSH1 0x20 DUP2 LT ISZERO PUSH2 0x1DCB JUMPI PUSH1 0x0 DUP1 REVERT JUMPDEST DUP2 ADD SWAP1 DUP1 DUP1 MLOAD SWAP1 PUSH1 0x20 ADD SWAP1 SWAP3 SWAP2 SWAP1 POP POP POP PUSH2 0x1DE5 JUMPI PUSH1 0x0 DUP1 REVERT JUMPDEST PUSH2 0x1E37 DUP2 PUSH1 0x9 PUSH1 0x0 CALLER PUSH20 0xFFFFFFFFFFFFFFFFFFFFFFFFFFFFFFFFFFFFFFFF AND PUSH20 0xFFFFFFFFFFFFFFFFFFFFFFFFFFFFFFFFFFFFFFFF AND DUP2 MSTORE PUSH1 0x20 ADD SWAP1 DUP2 MSTORE PUSH1 0x20 ADD PUSH1 0x0 KECCAK256 SLOAD PUSH2 0x5ECD SWAP1 SWAP2 SWAP1 PUSH4 0xFFFFFFFF AND JUMP JUMPDEST PUSH1 0x9 PUSH1 0x0 CALLER PUSH20 0xFFFFFFFFFFFFFFFFFFFFFFFFFFFFFFFFFFFFFFFF AND PUSH20 0xFFFFFFFFFFFFFFFFFFFFFFFFFFFFFFFFFFFFFFFF AND DUP2 MSTORE PUSH1 0x20 ADD SWAP1 DUP2 MSTORE PUSH1 0x20 ADD PUSH1 0x0 KECCAK256 DUP2 SWAP1 SSTORE POP POP JUMP JUMPDEST PUSH1 0x5 DUP2 DUP2 SLOAD DUP2 LT PUSH2 0x1E8A JUMPI INVALID JUMPDEST SWAP1 PUSH1 0x0 MSTORE PUSH1 0x20 PUSH1 0x0 KECCAK256 SWAP1 PUSH1 0x3 MUL ADD PUSH1 0x0 SWAP2 POP SWAP1 POP DUP1 PUSH1 0x0 ADD SLOAD SWAP1 DUP1 PUSH1 0x1 ADD SLOAD SWAP1 DUP1 PUSH1 0x2 ADD PUSH1 0x0 SWAP1 SLOAD SWAP1 PUSH2 0x100 EXP SWAP1 DIV PUSH1 0xFF AND SWAP1 POP DUP4 JUMP JUMPDEST PUSH1 0x1 PUSH1 0x0 SWAP1 SLOAD SWAP1 PUSH2 0x100 EXP SWAP1 DIV PUSH20 0xFFFFFFFFFFFFFFFFFFFFFFFFFFFFFFFFFFFFFFFF AND PUSH20 0xFFFFFFFFFFFFFFFFFFFFFFFFFFFFFFFFFFFFFFFF AND CALLER PUSH20 0xFFFFFFFFFFFFFFFFFFFFFFFFFFFFFFFFFFFFFFFF AND EQ PUSH2 0x1F1B JUMPI PUSH1 0x0 DUP1 REVERT JUMPDEST PUSH1 0x5 PUSH1 0x40 MLOAD DUP1 PUSH1 0x60 ADD PUSH1 0x40 MSTORE DUP1 DUP6 DUP2 MSTORE PUSH1 0x20 ADD DUP5 DUP2 MSTORE PUSH1 0x20 ADD DUP4 ISZERO ISZERO DUP2 MSTORE POP SWAP1 DUP1 PUSH1 0x1 DUP2 SLOAD ADD DUP1 DUP3 SSTORE DUP1 SWAP2 POP POP SWAP1 PUSH1 0x1 DUP3 SUB SWAP1 PUSH1 0x0 MSTORE PUSH1 0x20 PUSH1 0x0 KECCAK256 SWAP1 PUSH1 0x3 MUL ADD PUSH1 0x0 SWAP1 SWAP2 SWAP3 SWAP1 SWAP2 SWAP1 SWAP2 POP PUSH1 0x0 DUP3 ADD MLOAD DUP2 PUSH1 0x0 ADD SSTORE PUSH1 0x20 DUP3 ADD MLOAD DUP2 PUSH1 0x1 ADD SSTORE PUSH1 0x40 DUP3 ADD MLOAD DUP2 PUSH1 0x2 ADD PUSH1 0x0 PUSH2 0x100 EXP DUP2 SLOAD DUP2 PUSH1 0xFF MUL NOT AND SWAP1 DUP4 ISZERO ISZERO MUL OR SWAP1 SSTORE POP POP POP POP POP POP POP JUMP JUMPDEST PUSH1 0x9 PUSH1 0x20 MSTORE DUP1 PUSH1 0x0 MSTORE PUSH1 0x40 PUSH1 0x0 KECCAK256 PUSH1 0x0 SWAP2 POP SWAP1 POP SLOAD DUP2 JUMP JUMPDEST PUSH1 0x1 PUSH1 0x0 SWAP1 SLOAD SWAP1 PUSH2 0x100 EXP SWAP1 DIV PUSH20 0xFFFFFFFFFFFFFFFFFFFFFFFFFFFFFFFFFFFFFFFF AND PUSH20 0xFFFFFFFFFFFFFFFFFFFFFFFFFFFFFFFFFFFFFFFF AND CALLER PUSH20 0xFFFFFFFFFFFFFFFFFFFFFFFFFFFFFFFFFFFFFFFF AND EQ PUSH2 0x2013 JUMPI PUSH1 0x0 DUP1 REVERT JUMPDEST PUSH1 0x0 DUP1 SWAP1 POP JUMPDEST DUP3 MLOAD DUP2 LT ISZERO PUSH2 0x21A5 JUMPI PUSH2 0x2087 DUP3 DUP3 DUP2 MLOAD DUP2 LT PUSH2 0x2031 JUMPI INVALID JUMPDEST PUSH1 0x20 MUL PUSH1 0x20 ADD ADD MLOAD PUSH1 0x9 PUSH1 0x0 CALLER PUSH20 0xFFFFFFFFFFFFFFFFFFFFFFFFFFFFFFFFFFFFFFFF AND PUSH20 0xFFFFFFFFFFFFFFFFFFFFFFFFFFFFFFFFFFFFFFFF AND DUP2 MSTORE PUSH1 0x20 ADD SWAP1 DUP2 MSTORE PUSH1 0x20 ADD PUSH1 0x0 KECCAK256 SLOAD PUSH2 0x5EEC SWAP1 SWAP2 SWAP1 PUSH4 0xFFFFFFFF AND JUMP JUMPDEST PUSH1 0x9 PUSH1 0x0 CALLER PUSH20 0xFFFFFFFFFFFFFFFFFFFFFFFFFFFFFFFFFFFFFFFF AND PUSH20 0xFFFFFFFFFFFFFFFFFFFFFFFFFFFFFFFFFFFFFFFF AND DUP2 MSTORE PUSH1 0x20 ADD SWAP1 DUP2 MSTORE PUSH1 0x20 ADD PUSH1 0x0 KECCAK256 DUP2 SWAP1 SSTORE POP PUSH2 0x2142 DUP3 DUP3 DUP2 MLOAD DUP2 LT PUSH2 0x20D9 JUMPI INVALID JUMPDEST PUSH1 0x20 MUL PUSH1 0x20 ADD ADD MLOAD PUSH1 0x9 PUSH1 0x0 DUP7 DUP6 DUP2 MLOAD DUP2 LT PUSH2 0x20F1 JUMPI INVALID JUMPDEST PUSH1 0x20 MUL PUSH1 0x20 ADD ADD MLOAD PUSH20 0xFFFFFFFFFFFFFFFFFFFFFFFFFFFFFFFFFFFFFFFF AND PUSH20 0xFFFFFFFFFFFFFFFFFFFFFFFFFFFFFFFFFFFFFFFF AND DUP2 MSTORE PUSH1 0x20 ADD SWAP1 DUP2 MSTORE PUSH1 0x20 ADD PUSH1 0x0 KECCAK256 SLOAD PUSH2 0x5ECD SWAP1 SWAP2 SWAP1 PUSH4 0xFFFFFFFF AND JUMP JUMPDEST PUSH1 0x9 PUSH1 0x0 DUP6 DUP5 DUP2 MLOAD DUP2 LT PUSH2 0x2152 JUMPI INVALID JUMPDEST PUSH1 0x20 MUL PUSH1 0x20 ADD ADD MLOAD PUSH20 0xFFFFFFFFFFFFFFFFFFFFFFFFFFFFFFFFFFFFFFFF AND PUSH20 0xFFFFFFFFFFFFFFFFFFFFFFFFFFFFFFFFFFFFFFFF AND DUP2 MSTORE PUSH1 0x20 ADD SWAP1 DUP2 MSTORE PUSH1 0x20 ADD PUSH1 0x0 KECCAK256 DUP2 SWAP1 SSTORE POP DUP1 DUP1 PUSH1 0x1 ADD SWAP2 POP POP PUSH2 0x2019 JUMP JUMPDEST POP POP POP JUMP JUMPDEST PUSH1 0x1 PUSH1 0x0 SWAP1 SLOAD SWAP1 PUSH2 0x100 EXP SWAP1 DIV PUSH20 0xFFFFFFFFFFFFFFFFFFFFFFFFFFFFFFFFFFFFFFFF AND DUP2 JUMP JUMPDEST PUSH1 0x0 PUSH1 0x2 PUSH1 0x0 SWAP1 SLOAD SWAP1 PUSH2 0x100 EXP SWAP1 DIV PUSH20 0xFFFFFFFFFFFFFFFFFFFFFFFFFFFFFFFFFFFFFFFF AND PUSH20 0xFFFFFFFFFFFFFFFFFFFFFFFFFFFFFFFFFFFFFFFF AND PUSH4 0xB81F90F3 PUSH1 0x40 MLOAD DUP2 PUSH4 0xFFFFFFFF AND PUSH1 0xE0 SHL DUP2 MSTORE PUSH1 0x4 ADD PUSH1 0x20 PUSH1 0x40 MLOAD DUP1 DUP4 SUB DUP2 DUP7 DUP1 EXTCODESIZE ISZERO DUP1 ISZERO PUSH2 0x223A JUMPI PUSH1 0x0 DUP1 REVERT JUMPDEST POP GAS STATICCALL ISZERO DUP1 ISZERO PUSH2 0x224E JUMPI RETURNDATASIZE PUSH1 0x0 DUP1 RETURNDATACOPY RETURNDATASIZE PUSH1 0x0 REVERT JUMPDEST POP POP POP POP PUSH1 0x40 MLOAD RETURNDATASIZE PUSH1 0x20 DUP2 LT ISZERO PUSH2 0x2264 JUMPI PUSH1 0x0 DUP1 REVERT JUMPDEST DUP2 ADD SWAP1 DUP1 DUP1 MLOAD SWAP1 PUSH1 0x20 ADD SWAP1 SWAP3 SWAP2 SWAP1 POP POP POP SWAP1 POP PUSH1 0x4 SLOAD PUSH1 0xC MUL PUSH1 0x4 SLOAD PUSH1 0x5 PUSH1 0x7 PUSH1 0x0 DUP8 PUSH20 0xFFFFFFFFFFFFFFFFFFFFFFFFFFFFFFFFFFFFFFFF AND PUSH20 0xFFFFFFFFFFFFFFFFFFFFFFFFFFFFFFFFFFFFFFFF AND DUP2 MSTORE PUSH1 0x20 ADD SWAP1 DUP2 MSTORE PUSH1 0x20 ADD PUSH1 0x0 KECCAK256 DUP6 DUP2 SLOAD DUP2 LT PUSH2 0x22CC JUMPI INVALID JUMPDEST SWAP1 PUSH1 0x0 MSTORE PUSH1 0x20 PUSH1 0x0 KECCAK256 SWAP1 PUSH1 0x9 MUL ADD PUSH1 0x3 ADD SLOAD DUP2 SLOAD DUP2 LT PUSH2 0x22E8 JUMPI INVALID JUMPDEST SWAP1 PUSH1 0x0 MSTORE PUSH1 0x20 PUSH1 0x0 KECCAK256 SWAP1 PUSH1 0x3 MUL ADD PUSH1 0x0 ADD SLOAD MUL PUSH1 0x7 PUSH1 0x0 DUP7 PUSH20 0xFFFFFFFFFFFFFFFFFFFFFFFFFFFFFFFFFFFFFFFF AND PUSH20 0xFFFFFFFFFFFFFFFFFFFFFFFFFFFFFFFFFFFFFFFF AND DUP2 MSTORE PUSH1 0x20 ADD SWAP1 DUP2 MSTORE PUSH1 0x20 ADD PUSH1 0x0 KECCAK256 DUP5 DUP2 SLOAD DUP2 LT PUSH2 0x2345 JUMPI INVALID JUMPDEST SWAP1 PUSH1 0x0 MSTORE PUSH1 0x20 PUSH1 0x0 KECCAK256 SWAP1 PUSH1 0x9 MUL ADD PUSH1 0x1 ADD SLOAD ADD ADD DUP2 GT PUSH2 0x2364 JUMPI PUSH1 0x0 DUP1 REVERT JUMPDEST PUSH1 0x0 PUSH1 0x7 PUSH1 0x0 DUP6 PUSH20 0xFFFFFFFFFFFFFFFFFFFFFFFFFFFFFFFFFFFFFFFF AND PUSH20 0xFFFFFFFFFFFFFFFFFFFFFFFFFFFFFFFFFFFFFFFF AND DUP2 MSTORE PUSH1 0x20 ADD SWAP1 DUP2 MSTORE PUSH1 0x20 ADD PUSH1 0x0 KECCAK256 DUP4 DUP2 SLOAD DUP2 LT PUSH2 0x23B0 JUMPI INVALID JUMPDEST SWAP1 PUSH1 0x0 MSTORE PUSH1 0x20 PUSH1 0x0 KECCAK256 SWAP1 PUSH1 0x9 MUL ADD PUSH1 0x8 ADD PUSH1 0x0 CALLER PUSH20 0xFFFFFFFFFFFFFFFFFFFFFFFFFFFFFFFFFFFFFFFF AND PUSH20 0xFFFFFFFFFFFFFFFFFFFFFFFFFFFFFFFFFFFFFFFF AND DUP2 MSTORE PUSH1 0x20 ADD SWAP1 DUP2 MSTORE PUSH1 0x20 ADD PUSH1 0x0 KECCAK256 SLOAD SWAP1 POP PUSH1 0x0 DUP2 GT PUSH2 0x240E JUMPI PUSH1 0x0 DUP1 REVERT JUMPDEST PUSH1 0x5 PUSH1 0x7 PUSH1 0x0 DUP7 PUSH20 0xFFFFFFFFFFFFFFFFFFFFFFFFFFFFFFFFFFFFFFFF AND PUSH20 0xFFFFFFFFFFFFFFFFFFFFFFFFFFFFFFFFFFFFFFFF AND DUP2 MSTORE PUSH1 0x20 ADD SWAP1 DUP2 MSTORE PUSH1 0x20 ADD PUSH1 0x0 KECCAK256 DUP5 DUP2 SLOAD DUP2 LT PUSH2 0x245A JUMPI INVALID JUMPDEST SWAP1 PUSH1 0x0 MSTORE PUSH1 0x20 PUSH1 0x0 KECCAK256 SWAP1 PUSH1 0x9 MUL ADD PUSH1 0x4 ADD SLOAD EQ PUSH2 0x24D3 JUMPI PUSH1 0x5 PUSH1 0x7 PUSH1 0x0 DUP7 PUSH20 0xFFFFFFFFFFFFFFFFFFFFFFFFFFFFFFFFFFFFFFFF AND PUSH20 0xFFFFFFFFFFFFFFFFFFFFFFFFFFFFFFFFFFFFFFFF AND DUP2 MSTORE PUSH1 0x20 ADD SWAP1 DUP2 MSTORE PUSH1 0x20 ADD PUSH1 0x0 KECCAK256 DUP5 DUP2 SLOAD DUP2 LT PUSH2 0x24BD JUMPI INVALID JUMPDEST SWAP1 PUSH1 0x0 MSTORE PUSH1 0x20 PUSH1 0x0 KECCAK256 SWAP1 PUSH1 0x9 MUL ADD PUSH1 0x4 ADD DUP2 SWAP1 SSTORE POP JUMPDEST PUSH1 0x0 PUSH1 0x7 PUSH1 0x0 DUP7 PUSH20 0xFFFFFFFFFFFFFFFFFFFFFFFFFFFFFFFFFFFFFFFF AND PUSH20 0xFFFFFFFFFFFFFFFFFFFFFFFFFFFFFFFFFFFFFFFF AND DUP2 MSTORE PUSH1 0x20 ADD SWAP1 DUP2 MSTORE PUSH1 0x20 ADD PUSH1 0x0 KECCAK256 DUP5 DUP2 SLOAD DUP2 LT PUSH2 0x251F JUMPI INVALID JUMPDEST SWAP1 PUSH1 0x0 MSTORE PUSH1 0x20 PUSH1 0x0 KECCAK256 SWAP1 PUSH1 0x9 MUL ADD PUSH1 0x0 ADD SLOAD SWAP1 POP PUSH1 0x0 DUP1 PUSH1 0x5 PUSH1 0x7 PUSH1 0x0 DUP10 PUSH20 0xFFFFFFFFFFFFFFFFFFFFFFFFFFFFFFFFFFFFFFFF AND PUSH20 0xFFFFFFFFFFFFFFFFFFFFFFFFFFFFFFFFFFFFFFFF AND DUP2 MSTORE PUSH1 0x20 ADD SWAP1 DUP2 MSTORE PUSH1 0x20 ADD PUSH1 0x0 KECCAK256 DUP8 DUP2 SLOAD DUP2 LT PUSH2 0x2582 JUMPI INVALID JUMPDEST SWAP1 PUSH1 0x0 MSTORE PUSH1 0x20 PUSH1 0x0 KECCAK256 SWAP1 PUSH1 0x9 MUL ADD PUSH1 0x3 ADD SLOAD DUP2 SLOAD DUP2 LT PUSH2 0x259E JUMPI INVALID JUMPDEST SWAP1 PUSH1 0x0 MSTORE PUSH1 0x20 PUSH1 0x0 KECCAK256 SWAP1 PUSH1 0x3 MUL ADD PUSH1 0x0 ADD SLOAD PUSH1 0x7 PUSH1 0x0 DUP10 PUSH20 0xFFFFFFFFFFFFFFFFFFFFFFFFFFFFFFFFFFFFFFFF AND PUSH20 0xFFFFFFFFFFFFFFFFFFFFFFFFFFFFFFFFFFFFFFFF AND DUP2 MSTORE PUSH1 0x20 ADD SWAP1 DUP2 MSTORE PUSH1 0x20 ADD PUSH1 0x0 KECCAK256 DUP8 DUP2 SLOAD DUP2 LT PUSH2 0x25FA JUMPI INVALID JUMPDEST SWAP1 PUSH1 0x0 MSTORE PUSH1 0x20 PUSH1 0x0 KECCAK256 SWAP1 PUSH1 0x9 MUL ADD PUSH1 0x2 ADD SLOAD ADD SWAP1 POP PUSH1 0x0 PUSH1 0x7 PUSH1 0x0 DUP10 PUSH20 0xFFFFFFFFFFFFFFFFFFFFFFFFFFFFFFFFFFFFFFFF AND PUSH20 0xFFFFFFFFFFFFFFFFFFFFFFFFFFFFFFFFFFFFFFFF AND DUP2 MSTORE PUSH1 0x20 ADD SWAP1 DUP2 MSTORE PUSH1 0x20 ADD PUSH1 0x0 KECCAK256 DUP8 DUP2 SLOAD DUP2 LT PUSH2 0x265B JUMPI INVALID JUMPDEST SWAP1 PUSH1 0x0 MSTORE PUSH1 0x20 PUSH1 0x0 KECCAK256 SWAP1 PUSH1 0x9 MUL ADD PUSH1 0x2 ADD SLOAD SWAP1 POP JUMPDEST DUP2 DUP2 LT ISZERO PUSH2 0x28A8 JUMPI PUSH1 0x7 PUSH1 0x0 DUP10 PUSH20 0xFFFFFFFFFFFFFFFFFFFFFFFFFFFFFFFFFFFFFFFF AND PUSH20 0xFFFFFFFFFFFFFFFFFFFFFFFFFFFFFFFFFFFFFFFF AND DUP2 MSTORE PUSH1 0x20 ADD SWAP1 DUP2 MSTORE PUSH1 0x20 ADD PUSH1 0x0 KECCAK256 DUP8 DUP2 SLOAD DUP2 LT PUSH2 0x26C2 JUMPI INVALID JUMPDEST SWAP1 PUSH1 0x0 MSTORE PUSH1 0x20 PUSH1 0x0 KECCAK256 SWAP1 PUSH1 0x9 MUL ADD PUSH1 0x7 ADD PUSH1 0x0 DUP3 DUP2 MSTORE PUSH1 0x20 ADD SWAP1 DUP2 MSTORE PUSH1 0x20 ADD PUSH1 0x0 KECCAK256 PUSH1 0x0 SWAP1 SLOAD SWAP1 PUSH2 0x100 EXP SWAP1 DIV PUSH1 0xFF AND ISZERO PUSH2 0x289B JUMPI PUSH1 0x0 PUSH2 0x27F3 PUSH1 0xF PUSH2 0x27E5 PUSH1 0x5 PUSH1 0x7 PUSH1 0x0 DUP15 PUSH20 0xFFFFFFFFFFFFFFFFFFFFFFFFFFFFFFFFFFFFFFFF AND PUSH20 0xFFFFFFFFFFFFFFFFFFFFFFFFFFFFFFFFFFFFFFFF AND DUP2 MSTORE PUSH1 0x20 ADD SWAP1 DUP2 MSTORE PUSH1 0x20 ADD PUSH1 0x0 KECCAK256 DUP13 DUP2 SLOAD DUP2 LT PUSH2 0x274D JUMPI INVALID JUMPDEST SWAP1 PUSH1 0x0 MSTORE PUSH1 0x20 PUSH1 0x0 KECCAK256 SWAP1 PUSH1 0x9 MUL ADD PUSH1 0x3 ADD SLOAD DUP2 SLOAD DUP2 LT PUSH2 0x2769 JUMPI INVALID JUMPDEST SWAP1 PUSH1 0x0 MSTORE PUSH1 0x20 PUSH1 0x0 KECCAK256 SWAP1 PUSH1 0x3 MUL ADD PUSH1 0x1 ADD SLOAD PUSH1 0x7 PUSH1 0x0 DUP15 PUSH20 0xFFFFFFFFFFFFFFFFFFFFFFFFFFFFFFFFFFFFFFFF AND PUSH20 0xFFFFFFFFFFFFFFFFFFFFFFFFFFFFFFFFFFFFFFFF AND DUP2 MSTORE PUSH1 0x20 ADD SWAP1 DUP2 MSTORE PUSH1 0x20 ADD PUSH1 0x0 KECCAK256 DUP13 DUP2 SLOAD DUP2 LT PUSH2 0x27C5 JUMPI INVALID JUMPDEST SWAP1 PUSH1 0x0 MSTORE PUSH1 0x20 PUSH1 0x0 KECCAK256 SWAP1 PUSH1 0x9 MUL ADD PUSH1 0x0 ADD SLOAD PUSH2 0x5E93 SWAP1 SWAP2 SWAP1 PUSH4 0xFFFFFFFF AND JUMP JUMPDEST PUSH2 0x5F0C SWAP1 SWAP2 SWAP1 PUSH4 0xFFFFFFFF AND JUMP JUMPDEST SWAP1 POP PUSH1 0x0 PUSH2 0x2846 PUSH1 0xA PUSH1 0x0 DUP6 DUP2 MSTORE PUSH1 0x20 ADD SWAP1 DUP2 MSTORE PUSH1 0x20 ADD PUSH1 0x0 KECCAK256 SLOAD PUSH2 0x2838 PUSH1 0xB DUP7 DUP2 SLOAD DUP2 LT PUSH2 0x281E JUMPI INVALID JUMPDEST SWAP1 PUSH1 0x0 MSTORE PUSH1 0x20 PUSH1 0x0 KECCAK256 ADD SLOAD DUP6 PUSH2 0x5E93 SWAP1 SWAP2 SWAP1 PUSH4 0xFFFFFFFF AND JUMP JUMPDEST PUSH2 0x5F0C SWAP1 SWAP2 SWAP1 PUSH4 0xFFFFFFFF AND JUMP JUMPDEST SWAP1 POP PUSH2 0x286E PUSH2 0x285F PUSH1 0x2 DUP4 PUSH2 0x5F0C SWAP1 SWAP2 SWAP1 PUSH4 0xFFFFFFFF AND JUMP JUMPDEST DUP8 PUSH2 0x5ECD SWAP1 SWAP2 SWAP1 PUSH4 0xFFFFFFFF AND JUMP JUMPDEST SWAP6 POP PUSH2 0x2896 PUSH2 0x2887 PUSH1 0x2 DUP4 PUSH2 0x5F0C SWAP1 SWAP2 SWAP1 PUSH4 0xFFFFFFFF AND JUMP JUMPDEST DUP7 PUSH2 0x5ECD SWAP1 SWAP2 SWAP1 PUSH4 0xFFFFFFFF AND JUMP JUMPDEST SWAP5 POP POP POP JUMPDEST DUP1 DUP1 PUSH1 0x1 ADD SWAP2 POP POP PUSH2 0x2670 JUMP JUMPDEST POP PUSH1 0x0 PUSH1 0x7 PUSH1 0x0 DUP10 PUSH20 0xFFFFFFFFFFFFFFFFFFFFFFFFFFFFFFFFFFFFFFFF AND PUSH20 0xFFFFFFFFFFFFFFFFFFFFFFFFFFFFFFFFFFFFFFFF AND DUP2 MSTORE PUSH1 0x20 ADD SWAP1 DUP2 MSTORE PUSH1 0x20 ADD PUSH1 0x0 KECCAK256 DUP8 DUP2 SLOAD DUP2 LT PUSH2 0x28F5 JUMPI INVALID JUMPDEST SWAP1 PUSH1 0x0 MSTORE PUSH1 0x20 PUSH1 0x0 KECCAK256 SWAP1 PUSH1 0x9 MUL ADD PUSH1 0x8 ADD PUSH1 0x0 CALLER PUSH20 0xFFFFFFFFFFFFFFFFFFFFFFFFFFFFFFFFFFFFFFFF AND PUSH20 0xFFFFFFFFFFFFFFFFFFFFFFFFFFFFFFFFFFFFFFFF AND DUP2 MSTORE PUSH1 0x20 ADD SWAP1 DUP2 MSTORE PUSH1 0x20 ADD PUSH1 0x0 KECCAK256 DUP2 SWAP1 SSTORE POP PUSH1 0x0 PUSH2 0x29C9 PUSH1 0x7 PUSH1 0x0 DUP11 PUSH20 0xFFFFFFFFFFFFFFFFFFFFFFFFFFFFFFFFFFFFFFFF AND PUSH20 0xFFFFFFFFFFFFFFFFFFFFFFFFFFFFFFFFFFFFFFFF AND DUP2 MSTORE PUSH1 0x20 ADD SWAP1 DUP2 MSTORE PUSH1 0x20 ADD PUSH1 0x0 KECCAK256 DUP9 DUP2 SLOAD DUP2 LT PUSH2 0x2996 JUMPI INVALID JUMPDEST SWAP1 PUSH1 0x0 MSTORE PUSH1 0x20 PUSH1 0x0 KECCAK256 SWAP1 PUSH1 0x9 MUL ADD PUSH1 0x6 ADD SLOAD PUSH2 0x29BB DUP8 DUP8 PUSH2 0x5E93 SWAP1 SWAP2 SWAP1 PUSH4 0xFFFFFFFF AND JUMP JUMPDEST PUSH2 0x5F0C SWAP1 SWAP2 SWAP1 PUSH4 0xFFFFFFFF AND JUMP JUMPDEST SWAP1 POP PUSH1 0x2 PUSH1 0x0 SWAP1 SLOAD SWAP1 PUSH2 0x100 EXP SWAP1 DIV PUSH20 0xFFFFFFFFFFFFFFFFFFFFFFFFFFFFFFFFFFFFFFFF AND PUSH20 0xFFFFFFFFFFFFFFFFFFFFFFFFFFFFFFFFFFFFFFFF AND PUSH4 0xA9059CBB CALLER DUP4 PUSH1 0x40 MLOAD DUP4 PUSH4 0xFFFFFFFF AND PUSH1 0xE0 SHL DUP2 MSTORE PUSH1 0x4 ADD DUP1 DUP4 PUSH20 0xFFFFFFFFFFFFFFFFFFFFFFFFFFFFFFFFFFFFFFFF AND PUSH20 0xFFFFFFFFFFFFFFFFFFFFFFFFFFFFFFFFFFFFFFFF AND DUP2 MSTORE PUSH1 0x20 ADD DUP3 DUP2 MSTORE PUSH1 0x20 ADD SWAP3 POP POP POP PUSH1 0x20 PUSH1 0x40 MLOAD DUP1 DUP4 SUB DUP2 PUSH1 0x0 DUP8 DUP1 EXTCODESIZE ISZERO DUP1 ISZERO PUSH2 0x2A74 JUMPI PUSH1 0x0 DUP1 REVERT JUMPDEST POP GAS CALL ISZERO DUP1 ISZERO PUSH2 0x2A88 JUMPI RETURNDATASIZE PUSH1 0x0 DUP1 RETURNDATACOPY RETURNDATASIZE PUSH1 0x0 REVERT JUMPDEST POP POP POP POP PUSH1 0x40 MLOAD RETURNDATASIZE PUSH1 0x20 DUP2 LT ISZERO PUSH2 0x2A9E JUMPI PUSH1 0x0 DUP1 REVERT JUMPDEST DUP2 ADD SWAP1 DUP1 DUP1 MLOAD SWAP1 PUSH1 0x20 ADD SWAP1 SWAP3 SWAP2 SWAP1 POP POP POP POP PUSH1 0x0 PUSH2 0x2B32 PUSH1 0x7 PUSH1 0x0 DUP12 PUSH20 0xFFFFFFFFFFFFFFFFFFFFFFFFFFFFFFFFFFFFFFFF AND PUSH20 0xFFFFFFFFFFFFFFFFFFFFFFFFFFFFFFFFFFFFFFFF AND DUP2 MSTORE PUSH1 0x20 ADD SWAP1 DUP2 MSTORE PUSH1 0x20 ADD PUSH1 0x0 KECCAK256 DUP10 DUP2 SLOAD DUP2 LT PUSH2 0x2AFF JUMPI INVALID JUMPDEST SWAP1 PUSH1 0x0 MSTORE PUSH1 0x20 PUSH1 0x0 KECCAK256 SWAP1 PUSH1 0x9 MUL ADD PUSH1 0x6 ADD SLOAD PUSH2 0x2B24 DUP9 DUP8 PUSH2 0x5E93 SWAP1 SWAP2 SWAP1 PUSH4 0xFFFFFFFF AND JUMP JUMPDEST PUSH2 0x5F0C SWAP1 SWAP2 SWAP1 PUSH4 0xFFFFFFFF AND JUMP JUMPDEST SWAP1 POP PUSH2 0x2B86 DUP2 PUSH1 0x9 PUSH1 0x0 CALLER PUSH20 0xFFFFFFFFFFFFFFFFFFFFFFFFFFFFFFFFFFFFFFFF AND PUSH20 0xFFFFFFFFFFFFFFFFFFFFFFFFFFFFFFFFFFFFFFFF AND DUP2 MSTORE PUSH1 0x20 ADD SWAP1 DUP2 MSTORE PUSH1 0x20 ADD PUSH1 0x0 KECCAK256 SLOAD PUSH2 0x5ECD SWAP1 SWAP2 SWAP1 PUSH4 0xFFFFFFFF AND JUMP JUMPDEST PUSH1 0x9 PUSH1 0x0 CALLER PUSH20 0xFFFFFFFFFFFFFFFFFFFFFFFFFFFFFFFFFFFFFFFF AND PUSH20 0xFFFFFFFFFFFFFFFFFFFFFFFFFFFFFFFFFFFFFFFF AND DUP2 MSTORE PUSH1 0x20 ADD SWAP1 DUP2 MSTORE PUSH1 0x20 ADD PUSH1 0x0 KECCAK256 DUP2 SWAP1 SSTORE POP CALLER PUSH20 0xFFFFFFFFFFFFFFFFFFFFFFFFFFFFFFFFFFFFFFFF AND DUP9 DUP11 PUSH20 0xFFFFFFFFFFFFFFFFFFFFFFFFFFFFFFFFFFFFFFFF AND PUSH32 0xA54CEC59552C7F022EED79EDE59F759697AA5787F43B11D61F17BFC5ADAFFB65 DUP6 DUP6 PUSH1 0x40 MLOAD DUP1 DUP4 DUP2 MSTORE PUSH1 0x20 ADD DUP3 DUP2 MSTORE PUSH1 0x20 ADD SWAP3 POP POP POP PUSH1 0x40 MLOAD DUP1 SWAP2 SUB SWAP1 LOG4 POP POP POP POP POP POP POP POP POP JUMP JUMPDEST PUSH1 0x8 PUSH1 0x20 MSTORE DUP2 PUSH1 0x0 MSTORE PUSH1 0x40 PUSH1 0x0 KECCAK256 DUP2 DUP2 SLOAD DUP2 LT PUSH2 0x2C5B JUMPI INVALID JUMPDEST SWAP1 PUSH1 0x0 MSTORE PUSH1 0x20 PUSH1 0x0 KECCAK256 SWAP1 PUSH1 0x5 MUL ADD PUSH1 0x0 SWAP2 POP SWAP2 POP POP DUP1 PUSH1 0x0 ADD SLOAD SWAP1 DUP1 PUSH1 0x1 ADD SLOAD SWAP1 DUP1 PUSH1 0x2 ADD SLOAD SWAP1 DUP1 PUSH1 0x3 ADD SLOAD SWAP1 POP DUP5 JUMP JUMPDEST PUSH1 0x0 DUP1 PUSH1 0x0 SWAP1 POP JUMPDEST DUP3 MLOAD DUP2 LT ISZERO PUSH2 0x2EE6 JUMPI PUSH2 0x2CBB CALLER DUP6 DUP6 DUP5 DUP2 MLOAD DUP2 LT PUSH2 0x2CAE JUMPI INVALID JUMPDEST PUSH1 0x20 MUL PUSH1 0x20 ADD ADD MLOAD PUSH2 0x437C JUMP JUMPDEST DUP1 ISZERO PUSH2 0x2D51 JUMPI POP PUSH1 0x7 PUSH1 0x0 CALLER PUSH20 0xFFFFFFFFFFFFFFFFFFFFFFFFFFFFFFFFFFFFFFFF AND PUSH20 0xFFFFFFFFFFFFFFFFFFFFFFFFFFFFFFFFFFFFFFFF AND DUP2 MSTORE PUSH1 0x20 ADD SWAP1 DUP2 MSTORE PUSH1 0x20 ADD PUSH1 0x0 KECCAK256 DUP5 DUP2 SLOAD DUP2 LT PUSH2 0x2D0C JUMPI INVALID JUMPDEST SWAP1 PUSH1 0x0 MSTORE PUSH1 0x20 PUSH1 0x0 KECCAK256 SWAP1 PUSH1 0x9 MUL ADD PUSH1 0x7 ADD PUSH1 0x0 DUP5 DUP4 DUP2 MLOAD DUP2 LT PUSH2 0x2D2B JUMPI INVALID JUMPDEST PUSH1 0x20 MUL PUSH1 0x20 ADD ADD MLOAD DUP2 MSTORE PUSH1 0x20 ADD SWAP1 DUP2 MSTORE PUSH1 0x20 ADD PUSH1 0x0 KECCAK256 PUSH1 0x0 SWAP1 SLOAD SWAP1 PUSH2 0x100 EXP SWAP1 DIV PUSH1 0xFF AND ISZERO JUMPDEST ISZERO PUSH2 0x2ED9 JUMPI PUSH1 0x0 PUSH2 0x2E28 PUSH1 0xA PUSH1 0x0 DUP7 DUP6 DUP2 MLOAD DUP2 LT PUSH2 0x2D6B JUMPI INVALID JUMPDEST PUSH1 0x20 MUL PUSH1 0x20 ADD ADD MLOAD DUP2 MSTORE PUSH1 0x20 ADD SWAP1 DUP2 MSTORE PUSH1 0x20 ADD PUSH1 0x0 KECCAK256 SLOAD PUSH2 0x2E1A PUSH1 0xB DUP8 DUP7 DUP2 MLOAD DUP2 LT PUSH2 0x2D93 JUMPI INVALID JUMPDEST PUSH1 0x20 MUL PUSH1 0x20 ADD ADD MLOAD DUP2 SLOAD DUP2 LT PUSH2 0x2DA5 JUMPI INVALID JUMPDEST SWAP1 PUSH1 0x0 MSTORE PUSH1 0x20 PUSH1 0x0 KECCAK256 ADD SLOAD PUSH1 0x7 PUSH1 0x0 CALLER PUSH20 0xFFFFFFFFFFFFFFFFFFFFFFFFFFFFFFFFFFFFFFFF AND PUSH20 0xFFFFFFFFFFFFFFFFFFFFFFFFFFFFFFFFFFFFFFFF AND DUP2 MSTORE PUSH1 0x20 ADD SWAP1 DUP2 MSTORE PUSH1 0x20 ADD PUSH1 0x0 KECCAK256 DUP10 DUP2 SLOAD DUP2 LT PUSH2 0x2DFA JUMPI INVALID JUMPDEST SWAP1 PUSH1 0x0 MSTORE PUSH1 0x20 PUSH1 0x0 KECCAK256 SWAP1 PUSH1 0x9 MUL ADD PUSH1 0x0 ADD SLOAD PUSH2 0x5E93 SWAP1 SWAP2 SWAP1 PUSH4 0xFFFFFFFF AND JUMP JUMPDEST PUSH2 0x5F0C SWAP1 SWAP2 SWAP1 PUSH4 0xFFFFFFFF AND JUMP JUMPDEST SWAP1 POP PUSH2 0x2E3D DUP2 DUP5 PUSH2 0x5ECD SWAP1 SWAP2 SWAP1 PUSH4 0xFFFFFFFF AND JUMP JUMPDEST SWAP3 POP PUSH1 0x1 PUSH1 0x7 PUSH1 0x0 CALLER PUSH20 0xFFFFFFFFFFFFFFFFFFFFFFFFFFFFFFFFFFFFFFFF AND PUSH20 0xFFFFFFFFFFFFFFFFFFFFFFFFFFFFFFFFFFFFFFFF AND DUP2 MSTORE PUSH1 0x20 ADD SWAP1 DUP2 MSTORE PUSH1 0x20 ADD PUSH1 0x0 KECCAK256 DUP7 DUP2 SLOAD DUP2 LT PUSH2 0x2E8B JUMPI INVALID JUMPDEST SWAP1 PUSH1 0x0 MSTORE PUSH1 0x20 PUSH1 0x0 KECCAK256 SWAP1 PUSH1 0x9 MUL ADD PUSH1 0x7 ADD PUSH1 0x0 DUP7 DUP6 DUP2 MLOAD DUP2 LT PUSH2 0x2EAA JUMPI INVALID JUMPDEST PUSH1 0x20 MUL PUSH1 0x20 ADD ADD MLOAD DUP2 MSTORE PUSH1 0x20 ADD SWAP1 DUP2 MSTORE PUSH1 0x20 ADD PUSH1 0x0 KECCAK256 PUSH1 0x0 PUSH2 0x100 EXP DUP2 SLOAD DUP2 PUSH1 0xFF MUL NOT AND SWAP1 DUP4 ISZERO ISZERO MUL OR SWAP1 SSTORE POP POP JUMPDEST DUP1 DUP1 PUSH1 0x1 ADD SWAP2 POP POP PUSH2 0x2C94 JUMP JUMPDEST POP PUSH1 0x0 PUSH2 0x2F9B PUSH1 0xF PUSH2 0x2F8D PUSH2 0x2F7E PUSH1 0x5 PUSH1 0x7 PUSH1 0x0 CALLER PUSH20 0xFFFFFFFFFFFFFFFFFFFFFFFFFFFFFFFFFFFFFFFF AND PUSH20 0xFFFFFFFFFFFFFFFFFFFFFFFFFFFFFFFFFFFFFFFF AND DUP2 MSTORE PUSH1 0x20 ADD SWAP1 DUP2 MSTORE PUSH1 0x20 ADD PUSH1 0x0 KECCAK256 DUP10 DUP2 SLOAD DUP2 LT PUSH2 0x2F40 JUMPI INVALID JUMPDEST SWAP1 PUSH1 0x0 MSTORE PUSH1 0x20 PUSH1 0x0 KECCAK256 SWAP1 PUSH1 0x9 MUL ADD PUSH1 0x3 ADD SLOAD DUP2 SLOAD DUP2 LT PUSH2 0x2F5C JUMPI INVALID JUMPDEST SWAP1 PUSH1 0x0 MSTORE PUSH1 0x20 PUSH1 0x0 KECCAK256 SWAP1 PUSH1 0x3 MUL ADD PUSH1 0x1 ADD SLOAD PUSH1 0xF PUSH2 0x5EEC SWAP1 SWAP2 SWAP1 PUSH4 0xFFFFFFFF AND JUMP JUMPDEST DUP6 PUSH2 0x5E93 SWAP1 SWAP2 SWAP1 PUSH4 0xFFFFFFFF AND JUMP JUMPDEST PUSH2 0x5F0C SWAP1 SWAP2 SWAP1 PUSH4 0xFFFFFFFF AND JUMP JUMPDEST SWAP1 POP PUSH1 0x2 PUSH1 0x0 SWAP1 SLOAD SWAP1 PUSH2 0x100 EXP SWAP1 DIV PUSH20 0xFFFFFFFFFFFFFFFFFFFFFFFFFFFFFFFFFFFFFFFF AND PUSH20 0xFFFFFFFFFFFFFFFFFFFFFFFFFFFFFFFFFFFFFFFF AND PUSH4 0xA9059CBB PUSH1 0x3 PUSH1 0x0 SWAP1 SLOAD SWAP1 PUSH2 0x100 EXP SWAP1 DIV PUSH20 0xFFFFFFFFFFFFFFFFFFFFFFFFFFFFFFFFFFFFFFFF AND DUP4 PUSH1 0x40 MLOAD DUP4 PUSH4 0xFFFFFFFF AND PUSH1 0xE0 SHL DUP2 MSTORE PUSH1 0x4 ADD DUP1 DUP4 PUSH20 0xFFFFFFFFFFFFFFFFFFFFFFFFFFFFFFFFFFFFFFFF AND PUSH20 0xFFFFFFFFFFFFFFFFFFFFFFFFFFFFFFFFFFFFFFFF AND DUP2 MSTORE PUSH1 0x20 ADD DUP3 DUP2 MSTORE PUSH1 0x20 ADD SWAP3 POP POP POP PUSH1 0x20 PUSH1 0x40 MLOAD DUP1 DUP4 SUB DUP2 PUSH1 0x0 DUP8 DUP1 EXTCODESIZE ISZERO DUP1 ISZERO PUSH2 0x3068 JUMPI PUSH1 0x0 DUP1 REVERT JUMPDEST POP GAS CALL ISZERO DUP1 ISZERO PUSH2 0x307C JUMPI RETURNDATASIZE PUSH1 0x0 DUP1 RETURNDATACOPY RETURNDATASIZE PUSH1 0x0 REVERT JUMPDEST POP POP POP POP PUSH1 0x40 MLOAD RETURNDATASIZE PUSH1 0x20 DUP2 LT ISZERO PUSH2 0x3092 JUMPI PUSH1 0x0 DUP1 REVERT JUMPDEST DUP2 ADD SWAP1 DUP1 DUP1 MLOAD SWAP1 PUSH1 0x20 ADD SWAP1 SWAP3 SWAP2 SWAP1 POP POP POP PUSH2 0x30AC JUMPI PUSH1 0x0 DUP1 REVERT JUMPDEST PUSH1 0x3 PUSH1 0x0 SWAP1 SLOAD SWAP1 PUSH2 0x100 EXP SWAP1 DIV PUSH20 0xFFFFFFFFFFFFFFFFFFFFFFFFFFFFFFFFFFFFFFFF AND PUSH20 0xFFFFFFFFFFFFFFFFFFFFFFFFFFFFFFFFFFFFFFFF AND PUSH4 0x382E2AAB DUP3 PUSH1 0x40 MLOAD DUP3 PUSH4 0xFFFFFFFF AND PUSH1 0xE0 SHL DUP2 MSTORE PUSH1 0x4 ADD DUP1 DUP3 DUP2 MSTORE PUSH1 0x20 ADD SWAP2 POP POP PUSH1 0x20 PUSH1 0x40 MLOAD DUP1 DUP4 SUB DUP2 PUSH1 0x0 DUP8 DUP1 EXTCODESIZE ISZERO DUP1 ISZERO PUSH2 0x3121 JUMPI PUSH1 0x0 DUP1 REVERT JUMPDEST POP GAS CALL ISZERO DUP1 ISZERO PUSH2 0x3135 JUMPI RETURNDATASIZE PUSH1 0x0 DUP1 RETURNDATACOPY RETURNDATASIZE PUSH1 0x0 REVERT JUMPDEST POP POP POP POP PUSH1 0x40 MLOAD RETURNDATASIZE PUSH1 0x20 DUP2 LT ISZERO PUSH2 0x314B JUMPI PUSH1 0x0 DUP1 REVERT JUMPDEST DUP2 ADD SWAP1 DUP1 DUP1 MLOAD SWAP1 PUSH1 0x20 ADD SWAP1 SWAP3 SWAP2 SWAP1 POP POP POP PUSH2 0x3165 JUMPI PUSH1 0x0 DUP1 REVERT JUMPDEST PUSH2 0x3178 DUP2 DUP4 PUSH2 0x5EEC SWAP1 SWAP2 SWAP1 PUSH4 0xFFFFFFFF AND JUMP JUMPDEST SWAP2 POP PUSH1 0x0 PUSH2 0x3190 PUSH1 0x2 DUP5 PUSH2 0x5F0C SWAP1 SWAP2 SWAP1 PUSH4 0xFFFFFFFF AND JUMP JUMPDEST SWAP1 POP PUSH1 0x2 PUSH1 0x0 SWAP1 SLOAD SWAP1 PUSH2 0x100 EXP SWAP1 DIV PUSH20 0xFFFFFFFFFFFFFFFFFFFFFFFFFFFFFFFFFFFFFFFF AND PUSH20 0xFFFFFFFFFFFFFFFFFFFFFFFFFFFFFFFFFFFFFFFF AND PUSH4 0xA9059CBB CALLER DUP4 PUSH1 0x40 MLOAD DUP4 PUSH4 0xFFFFFFFF AND PUSH1 0xE0 SHL DUP2 MSTORE PUSH1 0x4 ADD DUP1 DUP4 PUSH20 0xFFFFFFFFFFFFFFFFFFFFFFFFFFFFFFFFFFFFFFFF AND PUSH20 0xFFFFFFFFFFFFFFFFFFFFFFFFFFFFFFFFFFFFFFFF AND DUP2 MSTORE PUSH1 0x20 ADD DUP3 DUP2 MSTORE PUSH1 0x20 ADD SWAP3 POP POP POP PUSH1 0x20 PUSH1 0x40 MLOAD DUP1 DUP4 SUB DUP2 PUSH1 0x0 DUP8 DUP1 EXTCODESIZE ISZERO DUP1 ISZERO PUSH2 0x323B JUMPI PUSH1 0x0 DUP1 REVERT JUMPDEST POP GAS CALL ISZERO DUP1 ISZERO PUSH2 0x324F JUMPI RETURNDATASIZE PUSH1 0x0 DUP1 RETURNDATACOPY RETURNDATASIZE PUSH1 0x0 REVERT JUMPDEST POP POP POP POP PUSH1 0x40 MLOAD RETURNDATASIZE PUSH1 0x20 DUP2 LT ISZERO PUSH2 0x3265 JUMPI PUSH1 0x0 DUP1 REVERT JUMPDEST DUP2 ADD SWAP1 DUP1 DUP1 MLOAD SWAP1 PUSH1 0x20 ADD SWAP1 SWAP3 SWAP2 SWAP1 POP POP POP PUSH2 0x327F JUMPI PUSH1 0x0 DUP1 REVERT JUMPDEST PUSH2 0x32D1 DUP2 PUSH1 0x9 PUSH1 0x0 CALLER PUSH20 0xFFFFFFFFFFFFFFFFFFFFFFFFFFFFFFFFFFFFFFFF AND PUSH20 0xFFFFFFFFFFFFFFFFFFFFFFFFFFFFFFFFFFFFFFFF AND DUP2 MSTORE PUSH1 0x20 ADD SWAP1 DUP2 MSTORE PUSH1 0x20 ADD PUSH1 0x0 KECCAK256 SLOAD PUSH2 0x5ECD SWAP1 SWAP2 SWAP1 PUSH4 0xFFFFFFFF AND JUMP JUMPDEST PUSH1 0x9 PUSH1 0x0 CALLER PUSH20 0xFFFFFFFFFFFFFFFFFFFFFFFFFFFFFFFFFFFFFFFF AND PUSH20 0xFFFFFFFFFFFFFFFFFFFFFFFFFFFFFFFFFFFFFFFF AND DUP2 MSTORE PUSH1 0x20 ADD SWAP1 DUP2 MSTORE PUSH1 0x20 ADD PUSH1 0x0 KECCAK256 DUP2 SWAP1 SSTORE POP CALLER PUSH20 0xFFFFFFFFFFFFFFFFFFFFFFFFFFFFFFFFFFFFFFFF AND PUSH31 0xC175C46CBAC099C5F7CE60E88A74274B428AE1C2E5EFEB1EF48B13FF384A4C DUP6 DUP4 PUSH1 0x40 MLOAD DUP1 DUP1 PUSH1 0x20 ADD DUP4 DUP2 MSTORE PUSH1 0x20 ADD DUP3 DUP2 SUB DUP3 MSTORE DUP5 DUP2 DUP2 MLOAD DUP2 MSTORE PUSH1 0x20 ADD SWAP2 POP DUP1 MLOAD SWAP1 PUSH1 0x20 ADD SWAP1 PUSH1 0x20 MUL DUP1 DUP4 DUP4 PUSH1 0x0 JUMPDEST DUP4 DUP2 LT ISZERO PUSH2 0x3396 JUMPI DUP1 DUP3 ADD MLOAD DUP2 DUP5 ADD MSTORE PUSH1 0x20 DUP2 ADD SWAP1 POP PUSH2 0x337B JUMP JUMPDEST POP POP POP POP SWAP1 POP ADD SWAP4 POP POP POP POP PUSH1 0x40 MLOAD DUP1 SWAP2 SUB SWAP1 LOG2 POP POP POP POP POP JUMP JUMPDEST PUSH1 0x1 PUSH1 0x7 PUSH1 0x0 CALLER PUSH20 0xFFFFFFFFFFFFFFFFFFFFFFFFFFFFFFFFFFFFFFFF AND PUSH20 0xFFFFFFFFFFFFFFFFFFFFFFFFFFFFFFFFFFFFFFFF AND DUP2 MSTORE PUSH1 0x20 ADD SWAP1 DUP2 MSTORE PUSH1 0x20 ADD PUSH1 0x0 KECCAK256 DUP5 DUP2 SLOAD DUP2 LT PUSH2 0x33FD JUMPI INVALID JUMPDEST SWAP1 PUSH1 0x0 MSTORE PUSH1 0x20 PUSH1 0x0 KECCAK256 SWAP1 PUSH1 0x9 MUL ADD PUSH1 0x4 ADD SLOAD EQ PUSH2 0x3419 JUMPI PUSH1 0x0 DUP1 REVERT JUMPDEST PUSH1 0x0 PUSH1 0x7 PUSH1 0x0 CALLER PUSH20 0xFFFFFFFFFFFFFFFFFFFFFFFFFFFFFFFFFFFFFFFF AND PUSH20 0xFFFFFFFFFFFFFFFFFFFFFFFFFFFFFFFFFFFFFFFF AND DUP2 MSTORE PUSH1 0x20 ADD SWAP1 DUP2 MSTORE PUSH1 0x20 ADD PUSH1 0x0 KECCAK256 DUP5 DUP2 SLOAD DUP2 LT PUSH2 0x3465 JUMPI INVALID JUMPDEST SWAP1 PUSH1 0x0 MSTORE PUSH1 0x20 PUSH1 0x0 KECCAK256 SWAP1 PUSH1 0x9 MUL ADD PUSH1 0x8 ADD PUSH1 0x0 DUP5 PUSH20 0xFFFFFFFFFFFFFFFFFFFFFFFFFFFFFFFFFFFFFFFF AND PUSH20 0xFFFFFFFFFFFFFFFFFFFFFFFFFFFFFFFFFFFFFFFF AND DUP2 MSTORE PUSH1 0x20 ADD SWAP1 DUP2 MSTORE PUSH1 0x20 ADD PUSH1 0x0 KECCAK256 SLOAD EQ PUSH2 0x34BE JUMPI PUSH1 0x0 DUP1 REVERT JUMPDEST PUSH2 0x352C DUP2 PUSH1 0x7 PUSH1 0x0 CALLER PUSH20 0xFFFFFFFFFFFFFFFFFFFFFFFFFFFFFFFFFFFFFFFF AND PUSH20 0xFFFFFFFFFFFFFFFFFFFFFFFFFFFFFFFFFFFFFFFF AND DUP2 MSTORE PUSH1 0x20 ADD SWAP1 DUP2 MSTORE PUSH1 0x20 ADD PUSH1 0x0 KECCAK256 DUP6 DUP2 SLOAD DUP2 LT PUSH2 0x350C JUMPI INVALID JUMPDEST SWAP1 PUSH1 0x0 MSTORE PUSH1 0x20 PUSH1 0x0 KECCAK256 SWAP1 PUSH1 0x9 MUL ADD PUSH1 0x6 ADD SLOAD PUSH2 0x5ECD SWAP1 SWAP2 SWAP1 PUSH4 0xFFFFFFFF AND JUMP JUMPDEST PUSH1 0x7 PUSH1 0x0 CALLER PUSH20 0xFFFFFFFFFFFFFFFFFFFFFFFFFFFFFFFFFFFFFFFF AND PUSH20 0xFFFFFFFFFFFFFFFFFFFFFFFFFFFFFFFFFFFFFFFF AND DUP2 MSTORE PUSH1 0x20 ADD SWAP1 DUP2 MSTORE PUSH1 0x20 ADD PUSH1 0x0 KECCAK256 DUP5 DUP2 SLOAD DUP2 LT PUSH2 0x3576 JUMPI INVALID JUMPDEST SWAP1 PUSH1 0x0 MSTORE PUSH1 0x20 PUSH1 0x0 KECCAK256 SWAP1 PUSH1 0x9 MUL ADD PUSH1 0x6 ADD DUP2 SWAP1 SSTORE POP DUP1 PUSH1 0x7 PUSH1 0x0 CALLER PUSH20 0xFFFFFFFFFFFFFFFFFFFFFFFFFFFFFFFFFFFFFFFF AND PUSH20 0xFFFFFFFFFFFFFFFFFFFFFFFFFFFFFFFFFFFFFFFF AND DUP2 MSTORE PUSH1 0x20 ADD SWAP1 DUP2 MSTORE PUSH1 0x20 ADD PUSH1 0x0 KECCAK256 DUP5 DUP2 SLOAD DUP2 LT PUSH2 0x35D6 JUMPI INVALID JUMPDEST SWAP1 PUSH1 0x0 MSTORE PUSH1 0x20 PUSH1 0x0 KECCAK256 SWAP1 PUSH1 0x9 MUL ADD PUSH1 0x8 ADD PUSH1 0x0 DUP5 PUSH20 0xFFFFFFFFFFFFFFFFFFFFFFFFFFFFFFFFFFFFFFFF AND PUSH20 0xFFFFFFFFFFFFFFFFFFFFFFFFFFFFFFFFFFFFFFFF AND DUP2 MSTORE PUSH1 0x20 ADD SWAP1 DUP2 MSTORE PUSH1 0x20 ADD PUSH1 0x0 KECCAK256 DUP2 SWAP1 SSTORE POP DUP2 PUSH20 0xFFFFFFFFFFFFFFFFFFFFFFFFFFFFFFFFFFFFFFFF AND DUP4 CALLER PUSH20 0xFFFFFFFFFFFFFFFFFFFFFFFFFFFFFFFFFFFFFFFF AND PUSH32 0xC4E7FB51A42CE926BB404F8024C3C91A40AF0654D9A96ADA67C329B9C9BEE4A2 PUSH1 0x40 MLOAD PUSH1 0x40 MLOAD DUP1 SWAP2 SUB SWAP1 LOG4 POP POP POP JUMP JUMPDEST PUSH1 0x0 PUSH1 0x7 PUSH1 0x0 DUP4 PUSH20 0xFFFFFFFFFFFFFFFFFFFFFFFFFFFFFFFFFFFFFFFF AND PUSH20 0xFFFFFFFFFFFFFFFFFFFFFFFFFFFFFFFFFFFFFFFF AND DUP2 MSTORE PUSH1 0x20 ADD SWAP1 DUP2 MSTORE PUSH1 0x20 ADD PUSH1 0x0 KECCAK256 DUP1 SLOAD SWAP1 POP SWAP1 POP SWAP2 SWAP1 POP JUMP JUMPDEST PUSH1 0x6 DUP2 DUP2 SLOAD DUP2 LT PUSH2 0x36E1 JUMPI INVALID JUMPDEST SWAP1 PUSH1 0x0 MSTORE PUSH1 0x20 PUSH1 0x0 KECCAK256 SWAP1 PUSH1 0x3 MUL ADD PUSH1 0x0 SWAP2 POP SWAP1 POP DUP1 PUSH1 0x0 ADD SLOAD SWAP1 DUP1 PUSH1 0x1 ADD SLOAD SWAP1 DUP1 PUSH1 0x2 ADD SLOAD SWAP1 POP DUP4 JUMP JUMPDEST PUSH1 0x0 PUSH2 0x3715 PUSH2 0x4A6D JUMP JUMPDEST SWAP1 POP PUSH1 0x0 DUP1 PUSH1 0x0 SWAP1 POP JUMPDEST DUP4 MLOAD DUP2 LT ISZERO PUSH2 0x3D4E JUMPI PUSH2 0x3746 CALLER DUP6 DUP4 DUP2 MLOAD DUP2 LT PUSH2 0x3738 JUMPI INVALID JUMPDEST PUSH1 0x20 MUL PUSH1 0x20 ADD ADD MLOAD DUP6 PUSH2 0x437C JUMP JUMPDEST DUP1 ISZERO PUSH2 0x39CA JUMPI POP PUSH1 0x5 PUSH1 0x7 PUSH1 0x0 CALLER PUSH20 0xFFFFFFFFFFFFFFFFFFFFFFFFFFFFFFFFFFFFFFFF AND PUSH20 0xFFFFFFFFFFFFFFFFFFFFFFFFFFFFFFFFFFFFFFFF AND DUP2 MSTORE PUSH1 0x20 ADD SWAP1 DUP2 MSTORE PUSH1 0x20 ADD PUSH1 0x0 KECCAK256 DUP6 DUP4 DUP2 MLOAD DUP2 LT PUSH2 0x379A JUMPI INVALID JUMPDEST PUSH1 0x20 MUL PUSH1 0x20 ADD ADD MLOAD DUP2 SLOAD DUP2 LT PUSH2 0x37AC JUMPI INVALID JUMPDEST SWAP1 PUSH1 0x0 MSTORE PUSH1 0x20 PUSH1 0x0 KECCAK256 SWAP1 PUSH1 0x9 MUL ADD PUSH1 0x3 ADD SLOAD DUP2 SLOAD DUP2 LT PUSH2 0x37C8 JUMPI INVALID JUMPDEST SWAP1 PUSH1 0x0 MSTORE PUSH1 0x20 PUSH1 0x0 KECCAK256 SWAP1 PUSH1 0x3 MUL ADD PUSH1 0x2 ADD PUSH1 0x0 SWAP1 SLOAD SWAP1 PUSH2 0x100 EXP SWAP1 DIV PUSH1 0xFF AND DUP1 PUSH2 0x39C9 JUMPI POP PUSH2 0x38B4 PUSH1 0x64 PUSH2 0x38A6 PUSH1 0x4B PUSH2 0x3898 PUSH1 0x4 SLOAD PUSH1 0x5 PUSH1 0x7 PUSH1 0x0 CALLER PUSH20 0xFFFFFFFFFFFFFFFFFFFFFFFFFFFFFFFFFFFFFFFF AND PUSH20 0xFFFFFFFFFFFFFFFFFFFFFFFFFFFFFFFFFFFFFFFF AND DUP2 MSTORE PUSH1 0x20 ADD SWAP1 DUP2 MSTORE PUSH1 0x20 ADD PUSH1 0x0 KECCAK256 DUP12 DUP10 DUP2 MLOAD DUP2 LT PUSH2 0x384A JUMPI INVALID JUMPDEST PUSH1 0x20 MUL PUSH1 0x20 ADD ADD MLOAD DUP2 SLOAD DUP2 LT PUSH2 0x385C JUMPI INVALID JUMPDEST SWAP1 PUSH1 0x0 MSTORE PUSH1 0x20 PUSH1 0x0 KECCAK256 SWAP1 PUSH1 0x9 MUL ADD PUSH1 0x3 ADD SLOAD DUP2 SLOAD DUP2 LT PUSH2 0x3878 JUMPI INVALID JUMPDEST SWAP1 PUSH1 0x0 MSTORE PUSH1 0x20 PUSH1 0x0 KECCAK256 SWAP1 PUSH1 0x3 MUL ADD PUSH1 0x0 ADD SLOAD PUSH2 0x5E93 SWAP1 SWAP2 SWAP1 PUSH4 0xFFFFFFFF AND JUMP JUMPDEST PUSH2 0x5E93 SWAP1 SWAP2 SWAP1 PUSH4 0xFFFFFFFF AND JUMP JUMPDEST PUSH2 0x5F0C SWAP1 SWAP2 SWAP1 PUSH4 0xFFFFFFFF AND JUMP JUMPDEST PUSH1 0x7 PUSH1 0x0 CALLER PUSH20 0xFFFFFFFFFFFFFFFFFFFFFFFFFFFFFFFFFFFFFFFF AND PUSH20 0xFFFFFFFFFFFFFFFFFFFFFFFFFFFFFFFFFFFFFFFF AND DUP2 MSTORE PUSH1 0x20 ADD SWAP1 DUP2 MSTORE PUSH1 0x20 ADD PUSH1 0x0 KECCAK256 DUP6 DUP4 DUP2 MLOAD DUP2 LT PUSH2 0x38FF JUMPI INVALID JUMPDEST PUSH1 0x20 MUL PUSH1 0x20 ADD ADD MLOAD DUP2 SLOAD DUP2 LT PUSH2 0x3911 JUMPI INVALID JUMPDEST SWAP1 PUSH1 0x0 MSTORE PUSH1 0x20 PUSH1 0x0 KECCAK256 SWAP1 PUSH1 0x9 MUL ADD PUSH1 0x1 ADD SLOAD ADD PUSH1 0x2 PUSH1 0x0 SWAP1 SLOAD SWAP1 PUSH2 0x100 EXP SWAP1 DIV PUSH20 0xFFFFFFFFFFFFFFFFFFFFFFFFFFFFFFFFFFFFFFFF AND PUSH20 0xFFFFFFFFFFFFFFFFFFFFFFFFFFFFFFFFFFFFFFFF AND PUSH4 0xB81F90F3 PUSH1 0x40 MLOAD DUP2 PUSH4 0xFFFFFFFF AND PUSH1 0xE0 SHL DUP2 MSTORE PUSH1 0x4 ADD PUSH1 0x20 PUSH1 0x40 MLOAD DUP1 DUP4 SUB DUP2 DUP7 DUP1 EXTCODESIZE ISZERO DUP1 ISZERO PUSH2 0x398C JUMPI PUSH1 0x0 DUP1 REVERT JUMPDEST POP GAS STATICCALL ISZERO DUP1 ISZERO PUSH2 0x39A0 JUMPI RETURNDATASIZE PUSH1 0x0 DUP1 RETURNDATACOPY RETURNDATASIZE PUSH1 0x0 REVERT JUMPDEST POP POP POP POP PUSH1 0x40 MLOAD RETURNDATASIZE PUSH1 0x20 DUP2 LT ISZERO PUSH2 0x39B6 JUMPI PUSH1 0x0 DUP1 REVERT JUMPDEST DUP2 ADD SWAP1 DUP1 DUP1 MLOAD SWAP1 PUSH1 0x20 ADD SWAP1 SWAP3 SWAP2 SWAP1 POP POP POP GT JUMPDEST JUMPDEST ISZERO PUSH2 0x3D41 JUMPI PUSH2 0x3A93 PUSH2 0x3A84 PUSH1 0x64 PUSH2 0x3A76 PUSH1 0x6 DUP11 DUP2 SLOAD DUP2 LT PUSH2 0x39E7 JUMPI INVALID JUMPDEST SWAP1 PUSH1 0x0 MSTORE PUSH1 0x20 PUSH1 0x0 KECCAK256 SWAP1 PUSH1 0x3 MUL ADD PUSH1 0x2 ADD SLOAD PUSH1 0x7 PUSH1 0x0 CALLER PUSH20 0xFFFFFFFFFFFFFFFFFFFFFFFFFFFFFFFFFFFFFFFF AND PUSH20 0xFFFFFFFFFFFFFFFFFFFFFFFFFFFFFFFFFFFFFFFF AND DUP2 MSTORE PUSH1 0x20 ADD SWAP1 DUP2 MSTORE PUSH1 0x20 ADD PUSH1 0x0 KECCAK256 DUP10 DUP8 DUP2 MLOAD DUP2 LT PUSH2 0x3A44 JUMPI INVALID JUMPDEST PUSH1 0x20 MUL PUSH1 0x20 ADD ADD MLOAD DUP2 SLOAD DUP2 LT PUSH2 0x3A56 JUMPI INVALID JUMPDEST SWAP1 PUSH1 0x0 MSTORE PUSH1 0x20 PUSH1 0x0 KECCAK256 SWAP1 PUSH1 0x9 MUL ADD PUSH1 0x0 ADD SLOAD PUSH2 0x5E93 SWAP1 SWAP2 SWAP1 PUSH4 0xFFFFFFFF AND JUMP JUMPDEST PUSH2 0x5F0C SWAP1 SWAP2 SWAP1 PUSH4 0xFFFFFFFF AND JUMP JUMPDEST DUP4 PUSH2 0x5ECD SWAP1 SWAP2 SWAP1 PUSH4 0xFFFFFFFF AND JUMP JUMPDEST SWAP2 POP PUSH1 0x0 PUSH1 0x7 PUSH1 0x0 CALLER PUSH20 0xFFFFFFFFFFFFFFFFFFFFFFFFFFFFFFFFFFFFFFFF AND PUSH20 0xFFFFFFFFFFFFFFFFFFFFFFFFFFFFFFFFFFFFFFFF AND DUP2 MSTORE PUSH1 0x20 ADD SWAP1 DUP2 MSTORE PUSH1 0x20 ADD PUSH1 0x0 KECCAK256 DUP6 DUP4 DUP2 MLOAD DUP2 LT PUSH2 0x3AE2 JUMPI INVALID JUMPDEST PUSH1 0x20 MUL PUSH1 0x20 ADD ADD MLOAD DUP2 SLOAD DUP2 LT PUSH2 0x3AF4 JUMPI INVALID JUMPDEST SWAP1 PUSH1 0x0 MSTORE PUSH1 0x20 PUSH1 0x0 KECCAK256 SWAP1 PUSH1 0x9 MUL ADD PUSH1 0x2 ADD SLOAD SWAP1 POP PUSH1 0x0 PUSH1 0x5 PUSH1 0x7 PUSH1 0x0 CALLER PUSH20 0xFFFFFFFFFFFFFFFFFFFFFFFFFFFFFFFFFFFFFFFF AND PUSH20 0xFFFFFFFFFFFFFFFFFFFFFFFFFFFFFFFFFFFFFFFF AND DUP2 MSTORE PUSH1 0x20 ADD SWAP1 DUP2 MSTORE PUSH1 0x20 ADD PUSH1 0x0 KECCAK256 DUP8 DUP6 DUP2 MLOAD DUP2 LT PUSH2 0x3B57 JUMPI INVALID JUMPDEST PUSH1 0x20 MUL PUSH1 0x20 ADD ADD MLOAD DUP2 SLOAD DUP2 LT PUSH2 0x3B69 JUMPI INVALID JUMPDEST SWAP1 PUSH1 0x0 MSTORE PUSH1 0x20 PUSH1 0x0 KECCAK256 SWAP1 PUSH1 0x9 MUL ADD PUSH1 0x3 ADD SLOAD DUP2 SLOAD DUP2 LT PUSH2 0x3B85 JUMPI INVALID JUMPDEST SWAP1 PUSH1 0x0 MSTORE PUSH1 0x20 PUSH1 0x0 KECCAK256 SWAP1 PUSH1 0x3 MUL ADD PUSH1 0x0 ADD SLOAD DUP3 ADD SWAP1 POP PUSH1 0x0 PUSH1 0x1 DUP7 ADD SWAP1 POP JUMPDEST DUP2 DUP2 GT PUSH2 0x3BF5 JUMPI PUSH2 0x3BD1 DUP6 PUSH1 0xA PUSH1 0x0 DUP5 DUP2 MSTORE PUSH1 0x20 ADD SWAP1 DUP2 MSTORE PUSH1 0x20 ADD PUSH1 0x0 KECCAK256 SLOAD PUSH2 0x5EEC SWAP1 SWAP2 SWAP1 PUSH4 0xFFFFFFFF AND JUMP JUMPDEST PUSH1 0xA PUSH1 0x0 DUP4 DUP2 MSTORE PUSH1 0x20 ADD SWAP1 DUP2 MSTORE PUSH1 0x20 ADD PUSH1 0x0 KECCAK256 DUP2 SWAP1 SSTORE POP DUP1 DUP1 PUSH1 0x1 ADD SWAP2 POP POP PUSH2 0x3BA4 JUMP JUMPDEST POP PUSH1 0x0 PUSH1 0x1 SWAP1 POP JUMPDEST PUSH1 0x6 DUP10 DUP2 SLOAD DUP2 LT PUSH2 0x3C0A JUMPI INVALID JUMPDEST SWAP1 PUSH1 0x0 MSTORE PUSH1 0x20 PUSH1 0x0 KECCAK256 SWAP1 PUSH1 0x3 MUL ADD PUSH1 0x0 ADD SLOAD DUP2 GT PUSH2 0x3D3D JUMPI PUSH1 0x1 PUSH1 0x7 PUSH1 0x0 CALLER PUSH20 0xFFFFFFFFFFFFFFFFFFFFFFFFFFFFFFFFFFFFFFFF AND PUSH20 0xFFFFFFFFFFFFFFFFFFFFFFFFFFFFFFFFFFFFFFFF AND DUP2 MSTORE PUSH1 0x20 ADD SWAP1 DUP2 MSTORE PUSH1 0x20 ADD PUSH1 0x0 KECCAK256 DUP9 DUP7 DUP2 MLOAD DUP2 LT PUSH2 0x3C6F JUMPI INVALID JUMPDEST PUSH1 0x20 MUL PUSH1 0x20 ADD ADD MLOAD DUP2 SLOAD DUP2 LT PUSH2 0x3C81 JUMPI INVALID JUMPDEST SWAP1 PUSH1 0x0 MSTORE PUSH1 0x20 PUSH1 0x0 KECCAK256 SWAP1 PUSH1 0x9 MUL ADD PUSH1 0x7 ADD PUSH1 0x0 DUP4 DUP10 ADD DUP2 MSTORE PUSH1 0x20 ADD SWAP1 DUP2 MSTORE PUSH1 0x20 ADD PUSH1 0x0 KECCAK256 PUSH1 0x0 PUSH2 0x100 EXP DUP2 SLOAD DUP2 PUSH1 0xFF MUL NOT AND SWAP1 DUP4 ISZERO ISZERO MUL OR SWAP1 SSTORE POP PUSH1 0x2 PUSH1 0x7 PUSH1 0x0 CALLER PUSH20 0xFFFFFFFFFFFFFFFFFFFFFFFFFFFFFFFFFFFFFFFF AND PUSH20 0xFFFFFFFFFFFFFFFFFFFFFFFFFFFFFFFFFFFFFFFF AND DUP2 MSTORE PUSH1 0x20 ADD SWAP1 DUP2 MSTORE PUSH1 0x20 ADD PUSH1 0x0 KECCAK256 DUP9 DUP7 DUP2 MLOAD DUP2 LT PUSH2 0x3D09 JUMPI INVALID JUMPDEST PUSH1 0x20 MUL PUSH1 0x20 ADD ADD MLOAD DUP2 SLOAD DUP2 LT PUSH2 0x3D1B JUMPI INVALID JUMPDEST SWAP1 PUSH1 0x0 MSTORE PUSH1 0x20 PUSH1 0x0 KECCAK256 SWAP1 PUSH1 0x9 MUL ADD PUSH1 0x4 ADD DUP2 SWAP1 SSTORE POP DUP1 DUP1 PUSH1 0x1 ADD SWAP2 POP POP PUSH2 0x3BFD JUMP JUMPDEST POP POP POP JUMPDEST DUP1 DUP1 PUSH1 0x1 ADD SWAP2 POP POP PUSH2 0x371F JUMP JUMPDEST POP PUSH1 0x0 DUP2 SWAP1 POP DUP1 DUP6 GT ISZERO PUSH2 0x3D68 JUMPI PUSH1 0x0 PUSH2 0x3D67 JUMPI PUSH1 0x0 DUP1 REVERT JUMPDEST JUMPDEST PUSH1 0x0 PUSH2 0x3DAE PUSH1 0x64 PUSH2 0x3DA0 PUSH1 0x6 DUP11 DUP2 SLOAD DUP2 LT PUSH2 0x3D7F JUMPI INVALID JUMPDEST SWAP1 PUSH1 0x0 MSTORE PUSH1 0x20 PUSH1 0x0 KECCAK256 SWAP1 PUSH1 0x3 MUL ADD PUSH1 0x1 ADD SLOAD DUP10 PUSH2 0x5E93 SWAP1 SWAP2 SWAP1 PUSH4 0xFFFFFFFF AND JUMP JUMPDEST PUSH2 0x5F0C SWAP1 SWAP2 SWAP1 PUSH4 0xFFFFFFFF AND JUMP JUMPDEST SWAP1 POP PUSH1 0x0 PUSH2 0x3DC5 DUP3 DUP9 PUSH2 0x5EEC SWAP1 SWAP2 SWAP1 PUSH4 0xFFFFFFFF AND JUMP JUMPDEST SWAP1 POP PUSH1 0x2 PUSH1 0x0 SWAP1 SLOAD SWAP1 PUSH2 0x100 EXP SWAP1 DIV PUSH20 0xFFFFFFFFFFFFFFFFFFFFFFFFFFFFFFFFFFFFFFFF AND PUSH20 0xFFFFFFFFFFFFFFFFFFFFFFFFFFFFFFFFFFFFFFFF AND PUSH4 0xA9059CBB PUSH1 0x3 PUSH1 0x0 SWAP1 SLOAD SWAP1 PUSH2 0x100 EXP SWAP1 DIV PUSH20 0xFFFFFFFFFFFFFFFFFFFFFFFFFFFFFFFFFFFFFFFF AND DUP5 PUSH1 0x40 MLOAD DUP4 PUSH4 0xFFFFFFFF AND PUSH1 0xE0 SHL DUP2 MSTORE PUSH1 0x4 ADD DUP1 DUP4 PUSH20 0xFFFFFFFFFFFFFFFFFFFFFFFFFFFFFFFFFFFFFFFF AND PUSH20 0xFFFFFFFFFFFFFFFFFFFFFFFFFFFFFFFFFFFFFFFF AND DUP2 MSTORE PUSH1 0x20 ADD DUP3 DUP2 MSTORE PUSH1 0x20 ADD SWAP3 POP POP POP PUSH1 0x20 PUSH1 0x40 MLOAD DUP1 DUP4 SUB DUP2 PUSH1 0x0 DUP8 DUP1 EXTCODESIZE ISZERO DUP1 ISZERO PUSH2 0x3E92 JUMPI PUSH1 0x0 DUP1 REVERT JUMPDEST POP GAS CALL ISZERO DUP1 ISZERO PUSH2 0x3EA6 JUMPI RETURNDATASIZE PUSH1 0x0 DUP1 RETURNDATACOPY RETURNDATASIZE PUSH1 0x0 REVERT JUMPDEST POP POP POP POP PUSH1 0x40 MLOAD RETURNDATASIZE PUSH1 0x20 DUP2 LT ISZERO PUSH2 0x3EBC JUMPI PUSH1 0x0 DUP1 REVERT JUMPDEST DUP2 ADD SWAP1 DUP1 DUP1 MLOAD SWAP1 PUSH1 0x20 ADD SWAP1 SWAP3 SWAP2 SWAP1 POP POP POP PUSH2 0x3ED6 JUMPI PUSH1 0x0 DUP1 REVERT JUMPDEST PUSH1 0x3 PUSH1 0x0 SWAP1 SLOAD SWAP1 PUSH2 0x100 EXP SWAP1 DIV PUSH20 0xFFFFFFFFFFFFFFFFFFFFFFFFFFFFFFFFFFFFFFFF AND PUSH20 0xFFFFFFFFFFFFFFFFFFFFFFFFFFFFFFFFFFFFFFFF AND PUSH4 0x382E2AAB DUP4 PUSH1 0x40 MLOAD DUP3 PUSH4 0xFFFFFFFF AND PUSH1 0xE0 SHL DUP2 MSTORE PUSH1 0x4 ADD DUP1 DUP3 DUP2 MSTORE PUSH1 0x20 ADD SWAP2 POP POP PUSH1 0x20 PUSH1 0x40 MLOAD DUP1 DUP4 SUB DUP2 PUSH1 0x0 DUP8 DUP1 EXTCODESIZE ISZERO DUP1 ISZERO PUSH2 0x3F4B JUMPI PUSH1 0x0 DUP1 REVERT JUMPDEST POP GAS CALL ISZERO DUP1 ISZERO PUSH2 0x3F5F JUMPI RETURNDATASIZE PUSH1 0x0 DUP1 RETURNDATACOPY RETURNDATASIZE PUSH1 0x0 REVERT JUMPDEST POP POP POP POP PUSH1 0x40 MLOAD RETURNDATASIZE PUSH1 0x20 DUP2 LT ISZERO PUSH2 0x3F75 JUMPI PUSH1 0x0 DUP1 REVERT JUMPDEST DUP2 ADD SWAP1 DUP1 DUP1 MLOAD SWAP1 PUSH1 0x20 ADD SWAP1 SWAP3 SWAP2 SWAP1 POP POP POP PUSH2 0x3F8F JUMPI PUSH1 0x0 DUP1 REVERT JUMPDEST PUSH1 0x8 PUSH1 0x0 CALLER PUSH20 0xFFFFFFFFFFFFFFFFFFFFFFFFFFFFFFFFFFFFFFFF AND PUSH20 0xFFFFFFFFFFFFFFFFFFFFFFFFFFFFFFFFFFFFFFFF AND DUP2 MSTORE PUSH1 0x20 ADD SWAP1 DUP2 MSTORE PUSH1 0x20 ADD PUSH1 0x0 KECCAK256 PUSH1 0x40 MLOAD DUP1 PUSH1 0xA0 ADD PUSH1 0x40 MSTORE DUP1 DUP10 DUP2 MSTORE PUSH1 0x20 ADD PUSH1 0x2 PUSH1 0x0 SWAP1 SLOAD SWAP1 PUSH2 0x100 EXP SWAP1 DIV PUSH20 0xFFFFFFFFFFFFFFFFFFFFFFFFFFFFFFFFFFFFFFFF AND PUSH20 0xFFFFFFFFFFFFFFFFFFFFFFFFFFFFFFFFFFFFFFFF AND PUSH4 0xB81F90F3 PUSH1 0x40 MLOAD DUP2 PUSH4 0xFFFFFFFF AND PUSH1 0xE0 SHL DUP2 MSTORE PUSH1 0x4 ADD PUSH1 0x20 PUSH1 0x40 MLOAD DUP1 DUP4 SUB DUP2 DUP7 DUP1 EXTCODESIZE ISZERO DUP1 ISZERO PUSH2 0x4047 JUMPI PUSH1 0x0 DUP1 REVERT JUMPDEST POP GAS STATICCALL ISZERO DUP1 ISZERO PUSH2 0x405B JUMPI RETURNDATASIZE PUSH1 0x0 DUP1 RETURNDATACOPY RETURNDATASIZE PUSH1 0x0 REVERT JUMPDEST POP POP POP POP PUSH1 0x40 MLOAD RETURNDATASIZE PUSH1 0x20 DUP2 LT ISZERO PUSH2 0x4071 JUMPI PUSH1 0x0 DUP1 REVERT JUMPDEST DUP2 ADD SWAP1 DUP1 DUP1 MLOAD SWAP1 PUSH1 0x20 ADD SWAP1 SWAP3 SWAP2 SWAP1 POP POP POP DUP2 MSTORE PUSH1 0x20 ADD DUP11 DUP2 MSTORE PUSH1 0x20 ADD PUSH1 0x1 DUP2 MSTORE PUSH1 0x20 ADD DUP9 DUP2 MSTORE POP SWAP1 DUP1 PUSH1 0x1 DUP2 SLOAD ADD DUP1 DUP3 SSTORE DUP1 SWAP2 POP POP SWAP1 PUSH1 0x1 DUP3 SUB SWAP1 PUSH1 0x0 MSTORE PUSH1 0x20 PUSH1 0x0 KECCAK256 SWAP1 PUSH1 0x5 MUL ADD PUSH1 0x0 SWAP1 SWAP2 SWAP3 SWAP1 SWAP2 SWAP1 SWAP2 POP PUSH1 0x0 DUP3 ADD MLOAD DUP2 PUSH1 0x0 ADD SSTORE PUSH1 0x20 DUP3 ADD MLOAD DUP2 PUSH1 0x1 ADD SSTORE PUSH1 0x40 DUP3 ADD MLOAD DUP2 PUSH1 0x2 ADD SSTORE PUSH1 0x60 DUP3 ADD MLOAD DUP2 PUSH1 0x3 ADD SSTORE PUSH1 0x80 DUP3 ADD MLOAD DUP2 PUSH1 0x4 ADD SWAP1 DUP1 MLOAD SWAP1 PUSH1 0x20 ADD SWAP1 PUSH2 0x4107 SWAP3 SWAP2 SWAP1 PUSH2 0x5F32 JUMP JUMPDEST POP POP POP POP PUSH1 0x2 PUSH1 0x0 SWAP1 SLOAD SWAP1 PUSH2 0x100 EXP SWAP1 DIV PUSH20 0xFFFFFFFFFFFFFFFFFFFFFFFFFFFFFFFFFFFFFFFF AND PUSH20 0xFFFFFFFFFFFFFFFFFFFFFFFFFFFFFFFFFFFFFFFF AND PUSH4 0xA9059CBB CALLER DUP4 PUSH1 0x40 MLOAD DUP4 PUSH4 0xFFFFFFFF AND PUSH1 0xE0 SHL DUP2 MSTORE PUSH1 0x4 ADD DUP1 DUP4 PUSH20 0xFFFFFFFFFFFFFFFFFFFFFFFFFFFFFFFFFFFFFFFF AND PUSH20 0xFFFFFFFFFFFFFFFFFFFFFFFFFFFFFFFFFFFFFFFF AND DUP2 MSTORE PUSH1 0x20 ADD DUP3 DUP2 MSTORE PUSH1 0x20 ADD SWAP3 POP POP POP PUSH1 0x20 PUSH1 0x40 MLOAD DUP1 DUP4 SUB DUP2 PUSH1 0x0 DUP8 DUP1 EXTCODESIZE ISZERO DUP1 ISZERO PUSH2 0x41B4 JUMPI PUSH1 0x0 DUP1 REVERT JUMPDEST POP GAS CALL ISZERO DUP1 ISZERO PUSH2 0x41C8 JUMPI RETURNDATASIZE PUSH1 0x0 DUP1 RETURNDATACOPY RETURNDATASIZE PUSH1 0x0 REVERT JUMPDEST POP POP POP POP PUSH1 0x40 MLOAD RETURNDATASIZE PUSH1 0x20 DUP2 LT ISZERO PUSH2 0x41DE JUMPI PUSH1 0x0 DUP1 REVERT JUMPDEST DUP2 ADD SWAP1 DUP1 DUP1 MLOAD SWAP1 PUSH1 0x20 ADD SWAP1 SWAP3 SWAP2 SWAP1 POP POP POP PUSH2 0x41F8 JUMPI PUSH1 0x0 DUP1 REVERT JUMPDEST DUP8 CALLER PUSH20 0xFFFFFFFFFFFFFFFFFFFFFFFFFFFFFFFFFFFFFFFF AND PUSH32 0x583F4A449110798C282200EA42774808B8147FA4BCB89A6CA406DD0650E034E7 DUP10 DUP6 PUSH1 0x1 PUSH1 0x8 PUSH1 0x0 CALLER PUSH20 0xFFFFFFFFFFFFFFFFFFFFFFFFFFFFFFFFFFFFFFFF AND PUSH20 0xFFFFFFFFFFFFFFFFFFFFFFFFFFFFFFFFFFFFFFFF AND DUP2 MSTORE PUSH1 0x20 ADD SWAP1 DUP2 MSTORE PUSH1 0x20 ADD PUSH1 0x0 KECCAK256 DUP1 SLOAD SWAP1 POP SUB PUSH1 0x40 MLOAD DUP1 DUP5 DUP2 MSTORE PUSH1 0x20 ADD DUP4 DUP2 MSTORE PUSH1 0x20 ADD DUP3 DUP2 MSTORE PUSH1 0x20 ADD SWAP4 POP POP POP POP PUSH1 0x40 MLOAD DUP1 SWAP2 SUB SWAP1 LOG3 POP POP POP POP POP POP POP POP JUMP JUMPDEST PUSH1 0x1 PUSH1 0x0 SWAP1 SLOAD SWAP1 PUSH2 0x100 EXP SWAP1 DIV PUSH20 0xFFFFFFFFFFFFFFFFFFFFFFFFFFFFFFFFFFFFFFFF AND PUSH20 0xFFFFFFFFFFFFFFFFFFFFFFFFFFFFFFFFFFFFFFFF AND CALLER PUSH20 0xFFFFFFFFFFFFFFFFFFFFFFFFFFFFFFFFFFFFFFFF AND EQ PUSH2 0x4300 JUMPI PUSH1 0x0 DUP1 REVERT JUMPDEST PUSH1 0x64 DUP2 GT ISZERO PUSH2 0x430E JUMPI PUSH1 0x0 DUP1 REVERT JUMPDEST PUSH1 0x6 PUSH1 0x40 MLOAD DUP1 PUSH1 0x60 ADD PUSH1 0x40 MSTORE DUP1 DUP6 DUP2 MSTORE PUSH1 0x20 ADD DUP5 DUP2 MSTORE PUSH1 0x20 ADD DUP4 DUP2 MSTORE POP SWAP1 DUP1 PUSH1 0x1 DUP2 SLOAD ADD DUP1 DUP3 SSTORE DUP1 SWAP2 POP POP SWAP1 PUSH1 0x1 DUP3 SUB SWAP1 PUSH1 0x0 MSTORE PUSH1 0x20 PUSH1 0x0 KECCAK256 SWAP1 PUSH1 0x3 MUL ADD PUSH1 0x0 SWAP1 SWAP2 SWAP3 SWAP1 SWAP2 SWAP1 SWAP2 POP PUSH1 0x0 DUP3 ADD MLOAD DUP2 PUSH1 0x0 ADD SSTORE PUSH1 0x20 DUP3 ADD MLOAD DUP2 PUSH1 0x1 ADD SSTORE PUSH1 0x40 DUP3 ADD MLOAD DUP2 PUSH1 0x2 ADD SSTORE POP POP POP POP POP POP JUMP JUMPDEST PUSH1 0x0 DUP2 PUSH1 0x1 PUSH1 0x7 PUSH1 0x0 DUP8 PUSH20 0xFFFFFFFFFFFFFFFFFFFFFFFFFFFFFFFFFFFFFFFF AND PUSH20 0xFFFFFFFFFFFFFFFFFFFFFFFFFFFFFFFFFFFFFFFF AND DUP2 MSTORE PUSH1 0x20 ADD SWAP1 DUP2 MSTORE PUSH1 0x20 ADD PUSH1 0x0 KECCAK256 DUP6 DUP2 SLOAD DUP2 LT PUSH2 0x43CB JUMPI INVALID JUMPDEST SWAP1 PUSH1 0x0 MSTORE PUSH1 0x20 PUSH1 0x0 KECCAK256 SWAP1 PUSH1 0x9 MUL ADD PUSH1 0x2 ADD SLOAD ADD GT ISZERO DUP1 ISZERO PUSH2 0x44C2 JUMPI POP DUP2 PUSH1 0x5 PUSH1 0x7 PUSH1 0x0 DUP8 PUSH20 0xFFFFFFFFFFFFFFFFFFFFFFFFFFFFFFFFFFFFFFFF AND PUSH20 0xFFFFFFFFFFFFFFFFFFFFFFFFFFFFFFFFFFFFFFFF AND DUP2 MSTORE PUSH1 0x20 ADD SWAP1 DUP2 MSTORE PUSH1 0x20 ADD PUSH1 0x0 KECCAK256 DUP6 DUP2 SLOAD DUP2 LT PUSH2 0x4434 JUMPI INVALID JUMPDEST SWAP1 PUSH1 0x0 MSTORE PUSH1 0x20 PUSH1 0x0 KECCAK256 SWAP1 PUSH1 0x9 MUL ADD PUSH1 0x3 ADD SLOAD DUP2 SLOAD DUP2 LT PUSH2 0x4450 JUMPI INVALID JUMPDEST SWAP1 PUSH1 0x0 MSTORE PUSH1 0x20 PUSH1 0x0 KECCAK256 SWAP1 PUSH1 0x3 MUL ADD PUSH1 0x0 ADD SLOAD PUSH1 0x7 PUSH1 0x0 DUP8 PUSH20 0xFFFFFFFFFFFFFFFFFFFFFFFFFFFFFFFFFFFFFFFF AND PUSH20 0xFFFFFFFFFFFFFFFFFFFFFFFFFFFFFFFFFFFFFFFF AND DUP2 MSTORE PUSH1 0x20 ADD SWAP1 DUP2 MSTORE PUSH1 0x20 ADD PUSH1 0x0 KECCAK256 DUP6 DUP2 SLOAD DUP2 LT PUSH2 0x44AC JUMPI INVALID JUMPDEST SWAP1 PUSH1 0x0 MSTORE PUSH1 0x20 PUSH1 0x0 KECCAK256 SWAP1 PUSH1 0x9 MUL ADD PUSH1 0x2 ADD SLOAD ADD LT ISZERO JUMPDEST DUP1 ISZERO PUSH2 0x4529 JUMPI POP PUSH1 0x1 PUSH1 0x7 PUSH1 0x0 DUP7 PUSH20 0xFFFFFFFFFFFFFFFFFFFFFFFFFFFFFFFFFFFFFFFF AND PUSH20 0xFFFFFFFFFFFFFFFFFFFFFFFFFFFFFFFFFFFFFFFF AND DUP2 MSTORE PUSH1 0x20 ADD SWAP1 DUP2 MSTORE PUSH1 0x20 ADD PUSH1 0x0 KECCAK256 DUP5 DUP2 SLOAD DUP2 LT PUSH2 0x4515 JUMPI INVALID JUMPDEST SWAP1 PUSH1 0x0 MSTORE PUSH1 0x20 PUSH1 0x0 KECCAK256 SWAP1 PUSH1 0x9 MUL ADD PUSH1 0x4 ADD SLOAD EQ JUMPDEST DUP1 ISZERO PUSH2 0x46DE JUMPI POP DUP2 PUSH2 0x4539 PUSH2 0x4A6D JUMP JUMPDEST EQ ISZERO DUP1 PUSH2 0x46DD JUMPI POP PUSH2 0x4637 PUSH2 0x45CD PUSH1 0x4 SLOAD PUSH2 0x45BF PUSH1 0x7 PUSH1 0x0 DUP10 PUSH20 0xFFFFFFFFFFFFFFFFFFFFFFFFFFFFFFFFFFFFFFFF AND PUSH20 0xFFFFFFFFFFFFFFFFFFFFFFFFFFFFFFFFFFFFFFFF AND DUP2 MSTORE PUSH1 0x20 ADD SWAP1 DUP2 MSTORE PUSH1 0x20 ADD PUSH1 0x0 KECCAK256 DUP8 DUP2 SLOAD DUP2 LT PUSH2 0x4597 JUMPI INVALID JUMPDEST SWAP1 PUSH1 0x0 MSTORE PUSH1 0x20 PUSH1 0x0 KECCAK256 SWAP1 PUSH1 0x9 MUL ADD PUSH1 0x2 ADD SLOAD PUSH2 0x45B1 PUSH2 0x4A6D JUMP JUMPDEST PUSH2 0x5EEC SWAP1 SWAP2 SWAP1 PUSH4 0xFFFFFFFF AND JUMP JUMPDEST PUSH2 0x5E93 SWAP1 SWAP2 SWAP1 PUSH4 0xFFFFFFFF AND JUMP JUMPDEST PUSH1 0x7 PUSH1 0x0 DUP8 PUSH20 0xFFFFFFFFFFFFFFFFFFFFFFFFFFFFFFFFFFFFFFFF AND PUSH20 0xFFFFFFFFFFFFFFFFFFFFFFFFFFFFFFFFFFFFFFFF AND DUP2 MSTORE PUSH1 0x20 ADD SWAP1 DUP2 MSTORE PUSH1 0x20 ADD PUSH1 0x0 KECCAK256 DUP6 DUP2 SLOAD DUP2 LT PUSH2 0x4617 JUMPI INVALID JUMPDEST SWAP1 PUSH1 0x0 MSTORE PUSH1 0x20 PUSH1 0x0 KECCAK256 SWAP1 PUSH1 0x9 MUL ADD PUSH1 0x1 ADD SLOAD PUSH2 0x5ECD SWAP1 SWAP2 SWAP1 PUSH4 0xFFFFFFFF AND JUMP JUMPDEST PUSH1 0x2 PUSH1 0x0 SWAP1 SLOAD SWAP1 PUSH2 0x100 EXP SWAP1 DIV PUSH20 0xFFFFFFFFFFFFFFFFFFFFFFFFFFFFFFFFFFFFFFFF AND PUSH20 0xFFFFFFFFFFFFFFFFFFFFFFFFFFFFFFFFFFFFFFFF AND PUSH4 0xB81F90F3 PUSH1 0x40 MLOAD DUP2 PUSH4 0xFFFFFFFF AND PUSH1 0xE0 SHL DUP2 MSTORE PUSH1 0x4 ADD PUSH1 0x20 PUSH1 0x40 MLOAD DUP1 DUP4 SUB DUP2 DUP7 DUP1 EXTCODESIZE ISZERO DUP1 ISZERO PUSH2 0x469F JUMPI PUSH1 0x0 DUP1 REVERT JUMPDEST POP GAS STATICCALL ISZERO DUP1 ISZERO PUSH2 0x46B3 JUMPI RETURNDATASIZE PUSH1 0x0 DUP1 RETURNDATACOPY RETURNDATASIZE PUSH1 0x0 REVERT JUMPDEST POP POP POP POP PUSH1 0x40 MLOAD RETURNDATASIZE PUSH1 0x20 DUP2 LT ISZERO PUSH2 0x46C9 JUMPI PUSH1 0x0 DUP1 REVERT JUMPDEST DUP2 ADD SWAP1 DUP1 DUP1 MLOAD SWAP1 PUSH1 0x20 ADD SWAP1 SWAP3 SWAP2 SWAP1 POP POP POP LT ISZERO JUMPDEST JUMPDEST SWAP1 POP SWAP4 SWAP3 POP POP POP JUMP JUMPDEST PUSH1 0x0 PUSH1 0x9 PUSH1 0x0 CALLER PUSH20 0xFFFFFFFFFFFFFFFFFFFFFFFFFFFFFFFFFFFFFFFF AND PUSH20 0xFFFFFFFFFFFFFFFFFFFFFFFFFFFFFFFFFFFFFFFF AND DUP2 MSTORE PUSH1 0x20 ADD SWAP1 DUP2 MSTORE PUSH1 0x20 ADD PUSH1 0x0 KECCAK256 SLOAD GT PUSH2 0x4733 JUMPI PUSH1 0x0 DUP1 REVERT JUMPDEST PUSH1 0x0 PUSH1 0x9 PUSH1 0x0 CALLER PUSH20 0xFFFFFFFFFFFFFFFFFFFFFFFFFFFFFFFFFFFFFFFF AND PUSH20 0xFFFFFFFFFFFFFFFFFFFFFFFFFFFFFFFFFFFFFFFF AND DUP2 MSTORE PUSH1 0x20 ADD SWAP1 DUP2 MSTORE PUSH1 0x20 ADD PUSH1 0x0 KECCAK256 SLOAD SWAP1 POP PUSH1 0x0 PUSH1 0x9 PUSH1 0x0 CALLER PUSH20 0xFFFFFFFFFFFFFFFFFFFFFFFFFFFFFFFFFFFFFFFF AND PUSH20 0xFFFFFFFFFFFFFFFFFFFFFFFFFFFFFFFFFFFFFFFF AND DUP2 MSTORE PUSH1 0x20 ADD SWAP1 DUP2 MSTORE PUSH1 0x20 ADD PUSH1 0x0 KECCAK256 DUP2 SWAP1 SSTORE POP PUSH1 0x0 PUSH1 0x5 DUP4 DUP2 SLOAD DUP2 LT PUSH2 0x47CB JUMPI INVALID JUMPDEST SWAP1 PUSH1 0x0 MSTORE PUSH1 0x20 PUSH1 0x0 KECCAK256 SWAP1 PUSH1 0x3 MUL ADD PUSH1 0x0 ADD SLOAD PUSH2 0x47E5 PUSH2 0x4A6D JUMP JUMPDEST ADD SWAP1 POP PUSH1 0x0 PUSH1 0x1 PUSH2 0x47F4 PUSH2 0x4A6D JUMP JUMPDEST ADD SWAP1 POP JUMPDEST DUP2 DUP2 GT PUSH2 0x4839 JUMPI DUP3 PUSH1 0xA PUSH1 0x0 DUP4 DUP2 MSTORE PUSH1 0x20 ADD SWAP1 DUP2 MSTORE PUSH1 0x20 ADD PUSH1 0x0 KECCAK256 SLOAD ADD PUSH1 0xA PUSH1 0x0 DUP4 DUP2 MSTORE PUSH1 0x20 ADD SWAP1 DUP2 MSTORE PUSH1 0x20 ADD PUSH1 0x0 KECCAK256 DUP2 SWAP1 SSTORE POP DUP1 DUP1 PUSH1 0x1 ADD SWAP2 POP POP PUSH2 0x47F8 JUMP JUMPDEST POP PUSH1 0x7 PUSH1 0x0 CALLER PUSH20 0xFFFFFFFFFFFFFFFFFFFFFFFFFFFFFFFFFFFFFFFF AND PUSH20 0xFFFFFFFFFFFFFFFFFFFFFFFFFFFFFFFFFFFFFFFF AND DUP2 MSTORE PUSH1 0x20 ADD SWAP1 DUP2 MSTORE PUSH1 0x20 ADD PUSH1 0x0 KECCAK256 PUSH1 0x40 MLOAD DUP1 PUSH1 0xE0 ADD PUSH1 0x40 MSTORE DUP1 DUP5 DUP2 MSTORE PUSH1 0x20 ADD PUSH1 0x2 PUSH1 0x0 SWAP1 SLOAD SWAP1 PUSH2 0x100 EXP SWAP1 DIV PUSH20 0xFFFFFFFFFFFFFFFFFFFFFFFFFFFFFFFFFFFFFFFF AND PUSH20 0xFFFFFFFFFFFFFFFFFFFFFFFFFFFFFFFFFFFFFFFF AND PUSH4 0xB81F90F3 PUSH1 0x40 MLOAD DUP2 PUSH4 0xFFFFFFFF AND PUSH1 0xE0 SHL DUP2 MSTORE PUSH1 0x4 ADD PUSH1 0x20 PUSH1 0x40 MLOAD DUP1 DUP4 SUB DUP2 DUP7 DUP1 EXTCODESIZE ISZERO DUP1 ISZERO PUSH2 0x48F2 JUMPI PUSH1 0x0 DUP1 REVERT JUMPDEST POP GAS STATICCALL ISZERO DUP1 ISZERO PUSH2 0x4906 JUMPI RETURNDATASIZE PUSH1 0x0 DUP1 RETURNDATACOPY RETURNDATASIZE PUSH1 0x0 REVERT JUMPDEST POP POP POP POP PUSH1 0x40 MLOAD RETURNDATASIZE PUSH1 0x20 DUP2 LT ISZERO PUSH2 0x491C JUMPI PUSH1 0x0 DUP1 REVERT JUMPDEST DUP2 ADD SWAP1 DUP1 DUP1 MLOAD SWAP1 PUSH1 0x20 ADD SWAP1 SWAP3 SWAP2 SWAP1 POP POP POP DUP2 MSTORE PUSH1 0x20 ADD PUSH2 0x493A PUSH2 0x4A6D JUMP JUMPDEST DUP2 MSTORE PUSH1 0x20 ADD DUP6 DUP2 MSTORE PUSH1 0x20 ADD PUSH1 0x1 DUP2 MSTORE PUSH1 0x20 ADD PUSH1 0x0 DUP2 MSTORE PUSH1 0x20 ADD PUSH1 0x0 DUP2 MSTORE POP SWAP1 DUP1 PUSH1 0x1 DUP2 SLOAD ADD DUP1 DUP3 SSTORE DUP1 SWAP2 POP POP SWAP1 PUSH1 0x1 DUP3 SUB SWAP1 PUSH1 0x0 MSTORE PUSH1 0x20 PUSH1 0x0 KECCAK256 SWAP1 PUSH1 0x9 MUL ADD PUSH1 0x0 SWAP1 SWAP2 SWAP3 SWAP1 SWAP2 SWAP1 SWAP2 POP PUSH1 0x0 DUP3 ADD MLOAD DUP2 PUSH1 0x0 ADD SSTORE PUSH1 0x20 DUP3 ADD MLOAD DUP2 PUSH1 0x1 ADD SSTORE PUSH1 0x40 DUP3 ADD MLOAD DUP2 PUSH1 0x2 ADD SSTORE PUSH1 0x60 DUP3 ADD MLOAD DUP2 PUSH1 0x3 ADD SSTORE PUSH1 0x80 DUP3 ADD MLOAD DUP2 PUSH1 0x4 ADD SSTORE PUSH1 0xA0 DUP3 ADD MLOAD DUP2 PUSH1 0x5 ADD SSTORE PUSH1 0xC0 DUP3 ADD MLOAD DUP2 PUSH1 0x6 ADD SSTORE POP POP POP DUP3 CALLER PUSH20 0xFFFFFFFFFFFFFFFFFFFFFFFFFFFFFFFFFFFFFFFF AND PUSH32 0x680A0E2E97AD7C29DA7985E37B699F19857C055166F801E50D90661EAE30FCC3 DUP5 PUSH1 0x1 PUSH1 0x7 PUSH1 0x0 CALLER PUSH20 0xFFFFFFFFFFFFFFFFFFFFFFFFFFFFFFFFFFFFFFFF AND PUSH20 0xFFFFFFFFFFFFFFFFFFFFFFFFFFFFFFFFFFFFFFFF AND DUP2 MSTORE PUSH1 0x20 ADD SWAP1 DUP2 MSTORE PUSH1 0x20 ADD PUSH1 0x0 KECCAK256 DUP1 SLOAD SWAP1 POP SUB PUSH1 0x40 MLOAD DUP1 DUP4 DUP2 MSTORE PUSH1 0x20 ADD DUP3 DUP2 MSTORE PUSH1 0x20 ADD SWAP3 POP POP POP PUSH1 0x40 MLOAD DUP1 SWAP2 SUB SWAP1 LOG3 POP POP POP JUMP JUMPDEST PUSH1 0x0 PUSH1 0x1 PUSH1 0xB DUP1 SLOAD SWAP1 POP SUB SWAP1 POP SWAP1 JUMP JUMPDEST PUSH1 0x1 PUSH1 0x8 PUSH1 0x0 CALLER PUSH20 0xFFFFFFFFFFFFFFFFFFFFFFFFFFFFFFFFFFFFFFFF AND PUSH20 0xFFFFFFFFFFFFFFFFFFFFFFFFFFFFFFFFFFFFFFFF AND DUP2 MSTORE PUSH1 0x20 ADD SWAP1 DUP2 MSTORE PUSH1 0x20 ADD PUSH1 0x0 KECCAK256 DUP3 DUP2 SLOAD DUP2 LT PUSH2 0x4AC9 JUMPI INVALID JUMPDEST SWAP1 PUSH1 0x0 MSTORE PUSH1 0x20 PUSH1 0x0 KECCAK256 SWAP1 PUSH1 0x5 MUL ADD PUSH1 0x3 ADD SLOAD EQ PUSH2 0x4AE5 JUMPI PUSH1 0x0 DUP1 REVERT JUMPDEST PUSH1 0x2 PUSH1 0x0 SWAP1 SLOAD SWAP1 PUSH2 0x100 EXP SWAP1 DIV PUSH20 0xFFFFFFFFFFFFFFFFFFFFFFFFFFFFFFFFFFFFFFFF AND PUSH20 0xFFFFFFFFFFFFFFFFFFFFFFFFFFFFFFFFFFFFFFFF AND PUSH4 0xB81F90F3 PUSH1 0x40 MLOAD DUP2 PUSH4 0xFFFFFFFF AND PUSH1 0xE0 SHL DUP2 MSTORE PUSH1 0x4 ADD PUSH1 0x20 PUSH1 0x40 MLOAD DUP1 DUP4 SUB DUP2 DUP7 DUP1 EXTCODESIZE ISZERO DUP1 ISZERO PUSH2 0x4B4D JUMPI PUSH1 0x0 DUP1 REVERT JUMPDEST POP GAS STATICCALL ISZERO DUP1 ISZERO PUSH2 0x4B61 JUMPI RETURNDATASIZE PUSH1 0x0 DUP1 RETURNDATACOPY RETURNDATASIZE PUSH1 0x0 REVERT JUMPDEST POP POP POP POP PUSH1 0x40 MLOAD RETURNDATASIZE PUSH1 0x20 DUP2 LT ISZERO PUSH2 0x4B77 JUMPI PUSH1 0x0 DUP1 REVERT JUMPDEST DUP2 ADD SWAP1 DUP1 DUP1 MLOAD SWAP1 PUSH1 0x20 ADD SWAP1 SWAP3 SWAP2 SWAP1 POP POP POP PUSH2 0x4C16 PUSH1 0x4 SLOAD PUSH1 0x6 PUSH1 0x8 PUSH1 0x0 CALLER PUSH20 0xFFFFFFFFFFFFFFFFFFFFFFFFFFFFFFFFFFFFFFFF AND PUSH20 0xFFFFFFFFFFFFFFFFFFFFFFFFFFFFFFFFFFFFFFFF AND DUP2 MSTORE PUSH1 0x20 ADD SWAP1 DUP2 MSTORE PUSH1 0x20 ADD PUSH1 0x0 KECCAK256 DUP6 DUP2 SLOAD DUP2 LT PUSH2 0x4BDA JUMPI INVALID JUMPDEST SWAP1 PUSH1 0x0 MSTORE PUSH1 0x20 PUSH1 0x0 KECCAK256 SWAP1 PUSH1 0x5 MUL ADD PUSH1 0x2 ADD SLOAD DUP2 SLOAD DUP2 LT PUSH2 0x4BF6 JUMPI INVALID JUMPDEST SWAP1 PUSH1 0x0 MSTORE PUSH1 0x20 PUSH1 0x0 KECCAK256 SWAP1 PUSH1 0x3 MUL ADD PUSH1 0x0 ADD SLOAD PUSH2 0x5E93 SWAP1 SWAP2 SWAP1 PUSH4 0xFFFFFFFF AND JUMP JUMPDEST PUSH1 0x8 PUSH1 0x0 CALLER PUSH20 0xFFFFFFFFFFFFFFFFFFFFFFFFFFFFFFFFFFFFFFFF AND PUSH20 0xFFFFFFFFFFFFFFFFFFFFFFFFFFFFFFFFFFFFFFFF AND DUP2 MSTORE PUSH1 0x20 ADD SWAP1 DUP2 MSTORE PUSH1 0x20 ADD PUSH1 0x0 KECCAK256 DUP4 DUP2 SLOAD DUP2 LT PUSH2 0x4C60 JUMPI INVALID JUMPDEST SWAP1 PUSH1 0x0 MSTORE PUSH1 0x20 PUSH1 0x0 KECCAK256 SWAP1 PUSH1 0x5 MUL ADD PUSH1 0x1 ADD SLOAD ADD GT PUSH2 0x4C7D JUMPI PUSH1 0x0 DUP1 REVERT JUMPDEST PUSH1 0x2 PUSH1 0x0 SWAP1 SLOAD SWAP1 PUSH2 0x100 EXP SWAP1 DIV PUSH20 0xFFFFFFFFFFFFFFFFFFFFFFFFFFFFFFFFFFFFFFFF AND PUSH20 0xFFFFFFFFFFFFFFFFFFFFFFFFFFFFFFFFFFFFFFFF AND PUSH4 0x23B872DD CALLER ADDRESS PUSH1 0x8 PUSH1 0x0 CALLER PUSH20 0xFFFFFFFFFFFFFFFFFFFFFFFFFFFFFFFFFFFFFFFF AND PUSH20 0xFFFFFFFFFFFFFFFFFFFFFFFFFFFFFFFFFFFFFFFF AND DUP2 MSTORE PUSH1 0x20 ADD SWAP1 DUP2 MSTORE PUSH1 0x20 ADD PUSH1 0x0 KECCAK256 DUP6 DUP2 SLOAD DUP2 LT PUSH2 0x4D07 JUMPI INVALID JUMPDEST SWAP1 PUSH1 0x0 MSTORE PUSH1 0x20 PUSH1 0x0 KECCAK256 SWAP1 PUSH1 0x5 MUL ADD PUSH1 0x0 ADD SLOAD PUSH1 0x40 MLOAD DUP5 PUSH4 0xFFFFFFFF AND PUSH1 0xE0 SHL DUP2 MSTORE PUSH1 0x4 ADD DUP1 DUP5 PUSH20 0xFFFFFFFFFFFFFFFFFFFFFFFFFFFFFFFFFFFFFFFF AND PUSH20 0xFFFFFFFFFFFFFFFFFFFFFFFFFFFFFFFFFFFFFFFF AND DUP2 MSTORE PUSH1 0x20 ADD DUP4 PUSH20 0xFFFFFFFFFFFFFFFFFFFFFFFFFFFFFFFFFFFFFFFF AND PUSH20 0xFFFFFFFFFFFFFFFFFFFFFFFFFFFFFFFFFFFFFFFF AND DUP2 MSTORE PUSH1 0x20 ADD DUP3 DUP2 MSTORE PUSH1 0x20 ADD SWAP4 POP POP POP POP PUSH1 0x20 PUSH1 0x40 MLOAD DUP1 DUP4 SUB DUP2 PUSH1 0x0 DUP8 DUP1 EXTCODESIZE ISZERO DUP1 ISZERO PUSH2 0x4DB5 JUMPI PUSH1 0x0 DUP1 REVERT JUMPDEST POP GAS CALL ISZERO DUP1 ISZERO PUSH2 0x4DC9 JUMPI RETURNDATASIZE PUSH1 0x0 DUP1 RETURNDATACOPY RETURNDATASIZE PUSH1 0x0 REVERT JUMPDEST POP POP POP POP PUSH1 0x40 MLOAD RETURNDATASIZE PUSH1 0x20 DUP2 LT ISZERO PUSH2 0x4DDF JUMPI PUSH1 0x0 DUP1 REVERT JUMPDEST DUP2 ADD SWAP1 DUP1 DUP1 MLOAD SWAP1 PUSH1 0x20 ADD SWAP1 SWAP3 SWAP2 SWAP1 POP POP POP PUSH2 0x4DF9 JUMPI PUSH1 0x0 DUP1 REVERT JUMPDEST PUSH1 0x2 PUSH1 0x8 PUSH1 0x0 CALLER PUSH20 0xFFFFFFFFFFFFFFFFFFFFFFFFFFFFFFFFFFFFFFFF AND PUSH20 0xFFFFFFFFFFFFFFFFFFFFFFFFFFFFFFFFFFFFFFFF AND DUP2 MSTORE PUSH1 0x20 ADD SWAP1 DUP2 MSTORE PUSH1 0x20 ADD PUSH1 0x0 KECCAK256 DUP3 DUP2 SLOAD DUP2 LT PUSH2 0x4E45 JUMPI INVALID JUMPDEST SWAP1 PUSH1 0x0 MSTORE PUSH1 0x20 PUSH1 0x0 KECCAK256 SWAP1 PUSH1 0x5 MUL ADD PUSH1 0x3 ADD DUP2 SWAP1 SSTORE POP PUSH1 0x0 DUP1 SWAP1 POP JUMPDEST PUSH1 0x8 PUSH1 0x0 CALLER PUSH20 0xFFFFFFFFFFFFFFFFFFFFFFFFFFFFFFFFFFFFFFFF AND PUSH20 0xFFFFFFFFFFFFFFFFFFFFFFFFFFFFFFFFFFFFFFFF AND DUP2 MSTORE PUSH1 0x20 ADD SWAP1 DUP2 MSTORE PUSH1 0x20 ADD PUSH1 0x0 KECCAK256 DUP3 DUP2 SLOAD DUP2 LT PUSH2 0x4EAA JUMPI INVALID JUMPDEST SWAP1 PUSH1 0x0 MSTORE PUSH1 0x20 PUSH1 0x0 KECCAK256 SWAP1 PUSH1 0x5 MUL ADD PUSH1 0x4 ADD DUP1 SLOAD SWAP1 POP DUP2 LT ISZERO PUSH2 0x51F6 JUMPI PUSH1 0x0 PUSH1 0x8 PUSH1 0x0 CALLER PUSH20 0xFFFFFFFFFFFFFFFFFFFFFFFFFFFFFFFFFFFFFFFF AND PUSH20 0xFFFFFFFFFFFFFFFFFFFFFFFFFFFFFFFFFFFFFFFF AND DUP2 MSTORE PUSH1 0x20 ADD SWAP1 DUP2 MSTORE PUSH1 0x20 ADD PUSH1 0x0 KECCAK256 DUP4 DUP2 SLOAD DUP2 LT PUSH2 0x4F12 JUMPI INVALID JUMPDEST SWAP1 PUSH1 0x0 MSTORE PUSH1 0x20 PUSH1 0x0 KECCAK256 SWAP1 PUSH1 0x5 MUL ADD PUSH1 0x4 ADD DUP3 DUP2 SLOAD DUP2 LT PUSH2 0x4F2E JUMPI INVALID JUMPDEST SWAP1 PUSH1 0x0 MSTORE PUSH1 0x20 PUSH1 0x0 KECCAK256 ADD SLOAD SWAP1 POP PUSH1 0x1 PUSH1 0x7 PUSH1 0x0 CALLER PUSH20 0xFFFFFFFFFFFFFFFFFFFFFFFFFFFFFFFFFFFFFFFF AND PUSH20 0xFFFFFFFFFFFFFFFFFFFFFFFFFFFFFFFFFFFFFFFF AND DUP2 MSTORE PUSH1 0x20 ADD SWAP1 DUP2 MSTORE PUSH1 0x20 ADD PUSH1 0x0 KECCAK256 DUP3 DUP2 SLOAD DUP2 LT PUSH2 0x4F87 JUMPI INVALID JUMPDEST SWAP1 PUSH1 0x0 MSTORE PUSH1 0x20 PUSH1 0x0 KECCAK256 SWAP1 PUSH1 0x9 MUL ADD PUSH1 0x4 ADD DUP2 SWAP1 SSTORE POP PUSH1 0x0 PUSH2 0x5022 PUSH1 0x4 SLOAD PUSH2 0x5014 PUSH1 0x0 SLOAD PUSH1 0x7 PUSH1 0x0 CALLER PUSH20 0xFFFFFFFFFFFFFFFFFFFFFFFFFFFFFFFFFFFFFFFF AND PUSH20 0xFFFFFFFFFFFFFFFFFFFFFFFFFFFFFFFFFFFFFFFF AND DUP2 MSTORE PUSH1 0x20 ADD SWAP1 DUP2 MSTORE PUSH1 0x20 ADD PUSH1 0x0 KECCAK256 DUP7 DUP2 SLOAD DUP2 LT PUSH2 0x4FF4 JUMPI INVALID JUMPDEST SWAP1 PUSH1 0x0 MSTORE PUSH1 0x20 PUSH1 0x0 KECCAK256 SWAP1 PUSH1 0x9 MUL ADD PUSH1 0x1 ADD SLOAD PUSH2 0x5EEC SWAP1 SWAP2 SWAP1 PUSH4 0xFFFFFFFF AND JUMP JUMPDEST PUSH2 0x5F0C SWAP1 SWAP2 SWAP1 PUSH4 0xFFFFFFFF AND JUMP JUMPDEST SWAP1 POP PUSH1 0x0 PUSH1 0x5 PUSH1 0x7 PUSH1 0x0 CALLER PUSH20 0xFFFFFFFFFFFFFFFFFFFFFFFFFFFFFFFFFFFFFFFF AND PUSH20 0xFFFFFFFFFFFFFFFFFFFFFFFFFFFFFFFFFFFFFFFF AND DUP2 MSTORE PUSH1 0x20 ADD SWAP1 DUP2 MSTORE PUSH1 0x20 ADD PUSH1 0x0 KECCAK256 DUP5 DUP2 SLOAD DUP2 LT PUSH2 0x5072 JUMPI INVALID JUMPDEST SWAP1 PUSH1 0x0 MSTORE PUSH1 0x20 PUSH1 0x0 KECCAK256 SWAP1 PUSH1 0x9 MUL ADD PUSH1 0x3 ADD SLOAD DUP2 SLOAD DUP2 LT PUSH2 0x508E JUMPI INVALID JUMPDEST SWAP1 PUSH1 0x0 MSTORE PUSH1 0x20 PUSH1 0x0 KECCAK256 SWAP1 PUSH1 0x3 MUL ADD PUSH1 0x0 ADD SLOAD DUP3 ADD SWAP1 POP PUSH1 0x0 PUSH1 0x1 PUSH2 0x50B0 PUSH2 0x4A6D JUMP JUMPDEST ADD SWAP1 POP JUMPDEST DUP2 DUP2 GT PUSH2 0x51E5 JUMPI PUSH1 0x0 PUSH1 0x7 PUSH1 0x0 CALLER PUSH20 0xFFFFFFFFFFFFFFFFFFFFFFFFFFFFFFFFFFFFFFFF AND PUSH20 0xFFFFFFFFFFFFFFFFFFFFFFFFFFFFFFFFFFFFFFFF AND DUP2 MSTORE PUSH1 0x20 ADD SWAP1 DUP2 MSTORE PUSH1 0x20 ADD PUSH1 0x0 KECCAK256 DUP6 DUP2 SLOAD DUP2 LT PUSH2 0x5107 JUMPI INVALID JUMPDEST SWAP1 PUSH1 0x0 MSTORE PUSH1 0x20 PUSH1 0x0 KECCAK256 SWAP1 PUSH1 0x9 MUL ADD PUSH1 0x7 ADD PUSH1 0x0 DUP8 DUP2 MSTORE PUSH1 0x20 ADD SWAP1 DUP2 MSTORE PUSH1 0x20 ADD PUSH1 0x0 KECCAK256 PUSH1 0x0 PUSH2 0x100 EXP DUP2 SLOAD DUP2 PUSH1 0xFF MUL NOT AND SWAP1 DUP4 ISZERO ISZERO MUL OR SWAP1 SSTORE POP PUSH2 0x51C1 PUSH1 0x7 PUSH1 0x0 CALLER PUSH20 0xFFFFFFFFFFFFFFFFFFFFFFFFFFFFFFFFFFFFFFFF AND PUSH20 0xFFFFFFFFFFFFFFFFFFFFFFFFFFFFFFFFFFFFFFFF AND DUP2 MSTORE PUSH1 0x20 ADD SWAP1 DUP2 MSTORE PUSH1 0x20 ADD PUSH1 0x0 KECCAK256 DUP6 DUP2 SLOAD DUP2 LT PUSH2 0x518D JUMPI INVALID JUMPDEST SWAP1 PUSH1 0x0 MSTORE PUSH1 0x20 PUSH1 0x0 KECCAK256 SWAP1 PUSH1 0x9 MUL ADD PUSH1 0x0 ADD SLOAD PUSH1 0xA PUSH1 0x0 DUP5 DUP2 MSTORE PUSH1 0x20 ADD SWAP1 DUP2 MSTORE PUSH1 0x20 ADD PUSH1 0x0 KECCAK256 SLOAD PUSH2 0x5ECD SWAP1 SWAP2 SWAP1 PUSH4 0xFFFFFFFF AND JUMP JUMPDEST PUSH1 0xA PUSH1 0x0 DUP4 DUP2 MSTORE PUSH1 0x20 ADD SWAP1 DUP2 MSTORE PUSH1 0x20 ADD PUSH1 0x0 KECCAK256 DUP2 SWAP1 SSTORE POP DUP1 DUP1 PUSH1 0x1 ADD SWAP2 POP POP PUSH2 0x50B4 JUMP JUMPDEST POP POP POP POP DUP1 DUP1 PUSH1 0x1 ADD SWAP2 POP POP PUSH2 0x4E60 JUMP JUMPDEST POP CALLER PUSH20 0xFFFFFFFFFFFFFFFFFFFFFFFFFFFFFFFFFFFFFFFF AND PUSH32 0xE228353B4F08FEE02276A1E9E2CDDFA948F9FA59F87F7E24C18AD1B420D7966A DUP3 PUSH1 0x40 MLOAD DUP1 DUP3 DUP2 MSTORE PUSH1 0x20 ADD SWAP2 POP POP PUSH1 0x40 MLOAD DUP1 SWAP2 SUB SWAP1 LOG2 POP JUMP JUMPDEST PUSH1 0x0 DUP1 PUSH2 0x5253 PUSH2 0x4A6D JUMP JUMPDEST SWAP1 POP PUSH1 0x0 DUP1 PUSH1 0x0 SWAP1 POP JUMPDEST DUP6 MLOAD DUP2 LT ISZERO PUSH2 0x55E1 JUMPI PUSH2 0x5284 DUP8 DUP8 DUP4 DUP2 MLOAD DUP2 LT PUSH2 0x5276 JUMPI INVALID JUMPDEST PUSH1 0x20 MUL PUSH1 0x20 ADD ADD MLOAD DUP6 PUSH2 0x437C JUMP JUMPDEST DUP1 ISZERO PUSH2 0x5508 JUMPI POP PUSH1 0x5 PUSH1 0x7 PUSH1 0x0 DUP10 PUSH20 0xFFFFFFFFFFFFFFFFFFFFFFFFFFFFFFFFFFFFFFFF AND PUSH20 0xFFFFFFFFFFFFFFFFFFFFFFFFFFFFFFFFFFFFFFFF AND DUP2 MSTORE PUSH1 0x20 ADD SWAP1 DUP2 MSTORE PUSH1 0x20 ADD PUSH1 0x0 KECCAK256 DUP8 DUP4 DUP2 MLOAD DUP2 LT PUSH2 0x52D8 JUMPI INVALID JUMPDEST PUSH1 0x20 MUL PUSH1 0x20 ADD ADD MLOAD DUP2 SLOAD DUP2 LT PUSH2 0x52EA JUMPI INVALID JUMPDEST SWAP1 PUSH1 0x0 MSTORE PUSH1 0x20 PUSH1 0x0 KECCAK256 SWAP1 PUSH1 0x9 MUL ADD PUSH1 0x3 ADD SLOAD DUP2 SLOAD DUP2 LT PUSH2 0x5306 JUMPI INVALID JUMPDEST SWAP1 PUSH1 0x0 MSTORE PUSH1 0x20 PUSH1 0x0 KECCAK256 SWAP1 PUSH1 0x3 MUL ADD PUSH1 0x2 ADD PUSH1 0x0 SWAP1 SLOAD SWAP1 PUSH2 0x100 EXP SWAP1 DIV PUSH1 0xFF AND DUP1 PUSH2 0x5507 JUMPI POP PUSH2 0x53F2 PUSH1 0x64 PUSH2 0x53E4 PUSH1 0x4B PUSH2 0x53D6 PUSH1 0x4 SLOAD PUSH1 0x5 PUSH1 0x7 PUSH1 0x0 DUP16 PUSH20 0xFFFFFFFFFFFFFFFFFFFFFFFFFFFFFFFFFFFFFFFF AND PUSH20 0xFFFFFFFFFFFFFFFFFFFFFFFFFFFFFFFFFFFFFFFF AND DUP2 MSTORE PUSH1 0x20 ADD SWAP1 DUP2 MSTORE PUSH1 0x20 ADD PUSH1 0x0 KECCAK256 DUP14 DUP10 DUP2 MLOAD DUP2 LT PUSH2 0x5388 JUMPI INVALID JUMPDEST PUSH1 0x20 MUL PUSH1 0x20 ADD ADD MLOAD DUP2 SLOAD DUP2 LT PUSH2 0x539A JUMPI INVALID JUMPDEST SWAP1 PUSH1 0x0 MSTORE PUSH1 0x20 PUSH1 0x0 KECCAK256 SWAP1 PUSH1 0x9 MUL ADD PUSH1 0x3 ADD SLOAD DUP2 SLOAD DUP2 LT PUSH2 0x53B6 JUMPI INVALID JUMPDEST SWAP1 PUSH1 0x0 MSTORE PUSH1 0x20 PUSH1 0x0 KECCAK256 SWAP1 PUSH1 0x3 MUL ADD PUSH1 0x0 ADD SLOAD PUSH2 0x5E93 SWAP1 SWAP2 SWAP1 PUSH4 0xFFFFFFFF AND JUMP JUMPDEST PUSH2 0x5E93 SWAP1 SWAP2 SWAP1 PUSH4 0xFFFFFFFF AND JUMP JUMPDEST PUSH2 0x5F0C SWAP1 SWAP2 SWAP1 PUSH4 0xFFFFFFFF AND JUMP JUMPDEST PUSH1 0x7 PUSH1 0x0 DUP10 PUSH20 0xFFFFFFFFFFFFFFFFFFFFFFFFFFFFFFFFFFFFFFFF AND PUSH20 0xFFFFFFFFFFFFFFFFFFFFFFFFFFFFFFFFFFFFFFFF AND DUP2 MSTORE PUSH1 0x20 ADD SWAP1 DUP2 MSTORE PUSH1 0x20 ADD PUSH1 0x0 KECCAK256 DUP8 DUP4 DUP2 MLOAD DUP2 LT PUSH2 0x543D JUMPI INVALID JUMPDEST PUSH1 0x20 MUL PUSH1 0x20 ADD ADD MLOAD DUP2 SLOAD DUP2 LT PUSH2 0x544F JUMPI INVALID JUMPDEST SWAP1 PUSH1 0x0 MSTORE PUSH1 0x20 PUSH1 0x0 KECCAK256 SWAP1 PUSH1 0x9 MUL ADD PUSH1 0x1 ADD SLOAD ADD PUSH1 0x2 PUSH1 0x0 SWAP1 SLOAD SWAP1 PUSH2 0x100 EXP SWAP1 DIV PUSH20 0xFFFFFFFFFFFFFFFFFFFFFFFFFFFFFFFFFFFFFFFF AND PUSH20 0xFFFFFFFFFFFFFFFFFFFFFFFFFFFFFFFFFFFFFFFF AND PUSH4 0xB81F90F3 PUSH1 0x40 MLOAD DUP2 PUSH4 0xFFFFFFFF AND PUSH1 0xE0 SHL DUP2 MSTORE PUSH1 0x4 ADD PUSH1 0x20 PUSH1 0x40 MLOAD DUP1 DUP4 SUB DUP2 DUP7 DUP1 EXTCODESIZE ISZERO DUP1 ISZERO PUSH2 0x54CA JUMPI PUSH1 0x0 DUP1 REVERT JUMPDEST POP GAS STATICCALL ISZERO DUP1 ISZERO PUSH2 0x54DE JUMPI RETURNDATASIZE PUSH1 0x0 DUP1 RETURNDATACOPY RETURNDATASIZE PUSH1 0x0 REVERT JUMPDEST POP POP POP POP PUSH1 0x40 MLOAD RETURNDATASIZE PUSH1 0x20 DUP2 LT ISZERO PUSH2 0x54F4 JUMPI PUSH1 0x0 DUP1 REVERT JUMPDEST DUP2 ADD SWAP1 DUP1 DUP1 MLOAD SWAP1 PUSH1 0x20 ADD SWAP1 SWAP3 SWAP2 SWAP1 POP POP POP GT JUMPDEST JUMPDEST ISZERO PUSH2 0x55D4 JUMPI PUSH2 0x55D1 PUSH2 0x55C2 PUSH1 0x64 PUSH2 0x55B4 PUSH1 0x6 DUP10 DUP2 SLOAD DUP2 LT PUSH2 0x5525 JUMPI INVALID JUMPDEST SWAP1 PUSH1 0x0 MSTORE PUSH1 0x20 PUSH1 0x0 KECCAK256 SWAP1 PUSH1 0x3 MUL ADD PUSH1 0x2 ADD SLOAD PUSH1 0x7 PUSH1 0x0 DUP14 PUSH20 0xFFFFFFFFFFFFFFFFFFFFFFFFFFFFFFFFFFFFFFFF AND PUSH20 0xFFFFFFFFFFFFFFFFFFFFFFFFFFFFFFFFFFFFFFFF AND DUP2 MSTORE PUSH1 0x20 ADD SWAP1 DUP2 MSTORE PUSH1 0x20 ADD PUSH1 0x0 KECCAK256 DUP12 DUP8 DUP2 MLOAD DUP2 LT PUSH2 0x5582 JUMPI INVALID JUMPDEST PUSH1 0x20 MUL PUSH1 0x20 ADD ADD MLOAD DUP2 SLOAD DUP2 LT PUSH2 0x5594 JUMPI INVALID JUMPDEST SWAP1 PUSH1 0x0 MSTORE PUSH1 0x20 PUSH1 0x0 KECCAK256 SWAP1 PUSH1 0x9 MUL ADD PUSH1 0x0 ADD SLOAD PUSH2 0x5E93 SWAP1 SWAP2 SWAP1 PUSH4 0xFFFFFFFF AND JUMP JUMPDEST PUSH2 0x5F0C SWAP1 SWAP2 SWAP1 PUSH4 0xFFFFFFFF AND JUMP JUMPDEST DUP4 PUSH2 0x5ECD SWAP1 SWAP2 SWAP1 PUSH4 0xFFFFFFFF AND JUMP JUMPDEST SWAP2 POP JUMPDEST DUP1 DUP1 PUSH1 0x1 ADD SWAP2 POP POP PUSH2 0x525D JUMP JUMPDEST POP DUP1 SWAP3 POP POP POP SWAP4 SWAP3 POP POP POP JUMP JUMPDEST PUSH1 0x0 DUP3 GT PUSH2 0x55FB JUMPI PUSH1 0x0 DUP1 REVERT JUMPDEST PUSH1 0x2 PUSH1 0x0 SWAP1 SLOAD SWAP1 PUSH2 0x100 EXP SWAP1 DIV PUSH20 0xFFFFFFFFFFFFFFFFFFFFFFFFFFFFFFFFFFFFFFFF AND PUSH20 0xFFFFFFFFFFFFFFFFFFFFFFFFFFFFFFFFFFFFFFFF AND PUSH4 0x23B872DD CALLER ADDRESS DUP6 PUSH1 0x40 MLOAD DUP5 PUSH4 0xFFFFFFFF AND PUSH1 0xE0 SHL DUP2 MSTORE PUSH1 0x4 ADD DUP1 DUP5 PUSH20 0xFFFFFFFFFFFFFFFFFFFFFFFFFFFFFFFFFFFFFFFF AND PUSH20 0xFFFFFFFFFFFFFFFFFFFFFFFFFFFFFFFFFFFFFFFF AND DUP2 MSTORE PUSH1 0x20 ADD DUP4 PUSH20 0xFFFFFFFFFFFFFFFFFFFFFFFFFFFFFFFFFFFFFFFF AND PUSH20 0xFFFFFFFFFFFFFFFFFFFFFFFFFFFFFFFFFFFFFFFF AND DUP2 MSTORE PUSH1 0x20 ADD DUP3 DUP2 MSTORE PUSH1 0x20 ADD SWAP4 POP POP POP POP PUSH1 0x20 PUSH1 0x40 MLOAD DUP1 DUP4 SUB DUP2 PUSH1 0x0 DUP8 DUP1 EXTCODESIZE ISZERO DUP1 ISZERO PUSH2 0x56D8 JUMPI PUSH1 0x0 DUP1 REVERT JUMPDEST POP GAS CALL ISZERO DUP1 ISZERO PUSH2 0x56EC JUMPI RETURNDATASIZE PUSH1 0x0 DUP1 RETURNDATACOPY RETURNDATASIZE PUSH1 0x0 REVERT JUMPDEST POP POP POP POP PUSH1 0x40 MLOAD RETURNDATASIZE PUSH1 0x20 DUP2 LT ISZERO PUSH2 0x5702 JUMPI PUSH1 0x0 DUP1 REVERT JUMPDEST DUP2 ADD SWAP1 DUP1 DUP1 MLOAD SWAP1 PUSH1 0x20 ADD SWAP1 SWAP3 SWAP2 SWAP1 POP POP POP PUSH2 0x571C JUMPI PUSH1 0x0 DUP1 REVERT JUMPDEST PUSH1 0x0 PUSH1 0x5 DUP3 DUP2 SLOAD DUP2 LT PUSH2 0x572B JUMPI INVALID JUMPDEST SWAP1 PUSH1 0x0 MSTORE PUSH1 0x20 PUSH1 0x0 KECCAK256 SWAP1 PUSH1 0x3 MUL ADD PUSH1 0x0 ADD SLOAD PUSH2 0x5745 PUSH2 0x4A6D JUMP JUMPDEST ADD SWAP1 POP PUSH1 0x0 PUSH1 0x1 PUSH2 0x5754 PUSH2 0x4A6D JUMP JUMPDEST ADD SWAP1 POP JUMPDEST DUP2 DUP2 GT PUSH2 0x5799 JUMPI DUP4 PUSH1 0xA PUSH1 0x0 DUP4 DUP2 MSTORE PUSH1 0x20 ADD SWAP1 DUP2 MSTORE PUSH1 0x20 ADD PUSH1 0x0 KECCAK256 SLOAD ADD PUSH1 0xA PUSH1 0x0 DUP4 DUP2 MSTORE PUSH1 0x20 ADD SWAP1 DUP2 MSTORE PUSH1 0x20 ADD PUSH1 0x0 KECCAK256 DUP2 SWAP1 SSTORE POP DUP1 DUP1 PUSH1 0x1 ADD SWAP2 POP POP PUSH2 0x5758 JUMP JUMPDEST POP PUSH1 0x7 PUSH1 0x0 CALLER PUSH20 0xFFFFFFFFFFFFFFFFFFFFFFFFFFFFFFFFFFFFFFFF AND PUSH20 0xFFFFFFFFFFFFFFFFFFFFFFFFFFFFFFFFFFFFFFFF AND DUP2 MSTORE PUSH1 0x20 ADD SWAP1 DUP2 MSTORE PUSH1 0x20 ADD PUSH1 0x0 KECCAK256 PUSH1 0x40 MLOAD DUP1 PUSH1 0xE0 ADD PUSH1 0x40 MSTORE DUP1 DUP6 DUP2 MSTORE PUSH1 0x20 ADD PUSH1 0x2 PUSH1 0x0 SWAP1 SLOAD SWAP1 PUSH2 0x100 EXP SWAP1 DIV PUSH20 0xFFFFFFFFFFFFFFFFFFFFFFFFFFFFFFFFFFFFFFFF AND PUSH20 0xFFFFFFFFFFFFFFFFFFFFFFFFFFFFFFFFFFFFFFFF AND PUSH4 0xB81F90F3 PUSH1 0x40 MLOAD DUP2 PUSH4 0xFFFFFFFF AND PUSH1 0xE0 SHL DUP2 MSTORE PUSH1 0x4 ADD PUSH1 0x20 PUSH1 0x40 MLOAD DUP1 DUP4 SUB DUP2 DUP7 DUP1 EXTCODESIZE ISZERO DUP1 ISZERO PUSH2 0x5852 JUMPI PUSH1 0x0 DUP1 REVERT JUMPDEST POP GAS STATICCALL ISZERO DUP1 ISZERO PUSH2 0x5866 JUMPI RETURNDATASIZE PUSH1 0x0 DUP1 RETURNDATACOPY RETURNDATASIZE PUSH1 0x0 REVERT JUMPDEST POP POP POP POP PUSH1 0x40 MLOAD RETURNDATASIZE PUSH1 0x20 DUP2 LT ISZERO PUSH2 0x587C JUMPI PUSH1 0x0 DUP1 REVERT JUMPDEST DUP2 ADD SWAP1 DUP1 DUP1 MLOAD SWAP1 PUSH1 0x20 ADD SWAP1 SWAP3 SWAP2 SWAP1 POP POP POP DUP2 MSTORE PUSH1 0x20 ADD PUSH2 0x589A PUSH2 0x4A6D JUMP JUMPDEST DUP2 MSTORE PUSH1 0x20 ADD DUP5 DUP2 MSTORE PUSH1 0x20 ADD PUSH1 0x1 DUP2 MSTORE PUSH1 0x20 ADD PUSH1 0x0 DUP2 MSTORE PUSH1 0x20 ADD PUSH1 0x0 DUP2 MSTORE POP SWAP1 DUP1 PUSH1 0x1 DUP2 SLOAD ADD DUP1 DUP3 SSTORE DUP1 SWAP2 POP POP SWAP1 PUSH1 0x1 DUP3 SUB SWAP1 PUSH1 0x0 MSTORE PUSH1 0x20 PUSH1 0x0 KECCAK256 SWAP1 PUSH1 0x9 MUL ADD PUSH1 0x0 SWAP1 SWAP2 SWAP3 SWAP1 SWAP2 SWAP1 SWAP2 POP PUSH1 0x0 DUP3 ADD MLOAD DUP2 PUSH1 0x0 ADD SSTORE PUSH1 0x20 DUP3 ADD MLOAD DUP2 PUSH1 0x1 ADD SSTORE PUSH1 0x40 DUP3 ADD MLOAD DUP2 PUSH1 0x2 ADD SSTORE PUSH1 0x60 DUP3 ADD MLOAD DUP2 PUSH1 0x3 ADD SSTORE PUSH1 0x80 DUP3 ADD MLOAD DUP2 PUSH1 0x4 ADD SSTORE PUSH1 0xA0 DUP3 ADD MLOAD DUP2 PUSH1 0x5 ADD SSTORE PUSH1 0xC0 DUP3 ADD MLOAD DUP2 PUSH1 0x6 ADD SSTORE POP POP POP DUP2 CALLER PUSH20 0xFFFFFFFFFFFFFFFFFFFFFFFFFFFFFFFFFFFFFFFF AND PUSH32 0x680A0E2E97AD7C29DA7985E37B699F19857C055166F801E50D90661EAE30FCC3 DUP6 PUSH1 0x1 PUSH1 0x7 PUSH1 0x0 CALLER PUSH20 0xFFFFFFFFFFFFFFFFFFFFFFFFFFFFFFFFFFFFFFFF AND PUSH20 0xFFFFFFFFFFFFFFFFFFFFFFFFFFFFFFFFFFFFFFFF AND DUP2 MSTORE PUSH1 0x20 ADD SWAP1 DUP2 MSTORE PUSH1 0x20 ADD PUSH1 0x0 KECCAK256 DUP1 SLOAD SWAP1 POP SUB PUSH1 0x40 MLOAD DUP1 DUP4 DUP2 MSTORE PUSH1 0x20 ADD DUP3 DUP2 MSTORE PUSH1 0x20 ADD SWAP3 POP POP POP PUSH1 0x40 MLOAD DUP1 SWAP2 SUB SWAP1 LOG3 POP POP POP JUMP JUMPDEST PUSH1 0x3 PUSH1 0x0 SWAP1 SLOAD SWAP1 PUSH2 0x100 EXP SWAP1 DIV PUSH20 0xFFFFFFFFFFFFFFFFFFFFFFFFFFFFFFFFFFFFFFFF AND PUSH20 0xFFFFFFFFFFFFFFFFFFFFFFFFFFFFFFFFFFFFFFFF AND CALLER PUSH20 0xFFFFFFFFFFFFFFFFFFFFFFFFFFFFFFFFFFFFFFFF AND EQ PUSH2 0x5A27 JUMPI PUSH1 0x0 DUP1 REVERT JUMPDEST PUSH1 0xB DUP2 SWAP1 DUP1 PUSH1 0x1 DUP2 SLOAD ADD DUP1 DUP3 SSTORE DUP1 SWAP2 POP POP SWAP1 PUSH1 0x1 DUP3 SUB SWAP1 PUSH1 0x0 MSTORE PUSH1 0x20 PUSH1 0x0 KECCAK256 ADD PUSH1 0x0 SWAP1 SWAP2 SWAP3 SWAP1 SWAP2 SWAP1 SWAP2 POP SSTORE POP POP JUMP JUMPDEST PUSH1 0x0 DUP1 SWAP1 POP JUMPDEST DUP2 MLOAD DUP2 LT ISZERO PUSH2 0x5E69 JUMPI PUSH2 0x5B86 PUSH2 0x5B09 PUSH1 0x4 SLOAD PUSH1 0x5 PUSH1 0x7 PUSH1 0x0 CALLER PUSH20 0xFFFFFFFFFFFFFFFFFFFFFFFFFFFFFFFFFFFFFFFF AND PUSH20 0xFFFFFFFFFFFFFFFFFFFFFFFFFFFFFFFFFFFFFFFF AND DUP2 MSTORE PUSH1 0x20 ADD SWAP1 DUP2 MSTORE PUSH1 0x20 ADD PUSH1 0x0 KECCAK256 DUP7 DUP7 DUP2 MLOAD DUP2 LT PUSH2 0x5ABB JUMPI INVALID JUMPDEST PUSH1 0x20 MUL PUSH1 0x20 ADD ADD MLOAD DUP2 SLOAD DUP2 LT PUSH2 0x5ACD JUMPI INVALID JUMPDEST SWAP1 PUSH1 0x0 MSTORE PUSH1 0x20 PUSH1 0x0 KECCAK256 SWAP1 PUSH1 0x9 MUL ADD PUSH1 0x3 ADD SLOAD DUP2 SLOAD DUP2 LT PUSH2 0x5AE9 JUMPI INVALID JUMPDEST SWAP1 PUSH1 0x0 MSTORE PUSH1 0x20 PUSH1 0x0 KECCAK256 SWAP1 PUSH1 0x3 MUL ADD PUSH1 0x0 ADD SLOAD PUSH2 0x5E93 SWAP1 SWAP2 SWAP1 PUSH4 0xFFFFFFFF AND JUMP JUMPDEST PUSH1 0x7 PUSH1 0x0 CALLER PUSH20 0xFFFFFFFFFFFFFFFFFFFFFFFFFFFFFFFFFFFFFFFF AND PUSH20 0xFFFFFFFFFFFFFFFFFFFFFFFFFFFFFFFFFFFFFFFF AND DUP2 MSTORE PUSH1 0x20 ADD SWAP1 DUP2 MSTORE PUSH1 0x20 ADD PUSH1 0x0 KECCAK256 DUP5 DUP5 DUP2 MLOAD DUP2 LT PUSH2 0x5B54 JUMPI INVALID JUMPDEST PUSH1 0x20 MUL PUSH1 0x20 ADD ADD MLOAD DUP2 SLOAD DUP2 LT PUSH2 0x5B66 JUMPI INVALID JUMPDEST SWAP1 PUSH1 0x0 MSTORE PUSH1 0x20 PUSH1 0x0 KECCAK256 SWAP1 PUSH1 0x9 MUL ADD PUSH1 0x1 ADD SLOAD PUSH2 0x5ECD SWAP1 SWAP2 SWAP1 PUSH4 0xFFFFFFFF AND JUMP JUMPDEST PUSH1 0x2 PUSH1 0x0 SWAP1 SLOAD SWAP1 PUSH2 0x100 EXP SWAP1 DIV PUSH20 0xFFFFFFFFFFFFFFFFFFFFFFFFFFFFFFFFFFFFFFFF AND PUSH20 0xFFFFFFFFFFFFFFFFFFFFFFFFFFFFFFFFFFFFFFFF AND PUSH4 0xB81F90F3 PUSH1 0x40 MLOAD DUP2 PUSH4 0xFFFFFFFF AND PUSH1 0xE0 SHL DUP2 MSTORE PUSH1 0x4 ADD PUSH1 0x20 PUSH1 0x40 MLOAD DUP1 DUP4 SUB DUP2 DUP7 DUP1 EXTCODESIZE ISZERO DUP1 ISZERO PUSH2 0x5BEE JUMPI PUSH1 0x0 DUP1 REVERT JUMPDEST POP GAS STATICCALL ISZERO DUP1 ISZERO PUSH2 0x5C02 JUMPI RETURNDATASIZE PUSH1 0x0 DUP1 RETURNDATACOPY RETURNDATASIZE PUSH1 0x0 REVERT JUMPDEST POP POP POP POP PUSH1 0x40 MLOAD RETURNDATASIZE PUSH1 0x20 DUP2 LT ISZERO PUSH2 0x5C18 JUMPI PUSH1 0x0 DUP1 REVERT JUMPDEST DUP2 ADD SWAP1 DUP1 DUP1 MLOAD SWAP1 PUSH1 0x20 ADD SWAP1 SWAP3 SWAP2 SWAP1 POP POP POP LT ISZERO PUSH2 0x5C34 JUMPI PUSH1 0x0 DUP1 REVERT JUMPDEST PUSH1 0x3 PUSH1 0x7 PUSH1 0x0 CALLER PUSH20 0xFFFFFFFFFFFFFFFFFFFFFFFFFFFFFFFFFFFFFFFF AND PUSH20 0xFFFFFFFFFFFFFFFFFFFFFFFFFFFFFFFFFFFFFFFF AND DUP2 MSTORE PUSH1 0x20 ADD SWAP1 DUP2 MSTORE PUSH1 0x20 ADD PUSH1 0x0 KECCAK256 DUP4 DUP4 DUP2 MLOAD DUP2 LT PUSH2 0x5C81 JUMPI INVALID JUMPDEST PUSH1 0x20 MUL PUSH1 0x20 ADD ADD MLOAD DUP2 SLOAD DUP2 LT PUSH2 0x5C93 JUMPI INVALID JUMPDEST SWAP1 PUSH1 0x0 MSTORE PUSH1 0x20 PUSH1 0x0 KECCAK256 SWAP1 PUSH1 0x9 MUL ADD PUSH1 0x4 ADD DUP2 SWAP1 SSTORE POP PUSH1 0x2 PUSH1 0x0 SWAP1 SLOAD SWAP1 PUSH2 0x100 EXP SWAP1 DIV PUSH20 0xFFFFFFFFFFFFFFFFFFFFFFFFFFFFFFFFFFFFFFFF AND PUSH20 0xFFFFFFFFFFFFFFFFFFFFFFFFFFFFFFFFFFFFFFFF AND PUSH4 0xA9059CBB CALLER PUSH1 0x7 PUSH1 0x0 CALLER PUSH20 0xFFFFFFFFFFFFFFFFFFFFFFFFFFFFFFFFFFFFFFFF AND PUSH20 0xFFFFFFFFFFFFFFFFFFFFFFFFFFFFFFFFFFFFFFFF AND DUP2 MSTORE PUSH1 0x20 ADD SWAP1 DUP2 MSTORE PUSH1 0x20 ADD PUSH1 0x0 KECCAK256 DUP6 DUP6 DUP2 MLOAD DUP2 LT PUSH2 0x5D32 JUMPI INVALID JUMPDEST PUSH1 0x20 MUL PUSH1 0x20 ADD ADD MLOAD DUP2 SLOAD DUP2 LT PUSH2 0x5D44 JUMPI INVALID JUMPDEST SWAP1 PUSH1 0x0 MSTORE PUSH1 0x20 PUSH1 0x0 KECCAK256 SWAP1 PUSH1 0x9 MUL ADD PUSH1 0x0 ADD SLOAD PUSH1 0x40 MLOAD DUP4 PUSH4 0xFFFFFFFF AND PUSH1 0xE0 SHL DUP2 MSTORE PUSH1 0x4 ADD DUP1 DUP4 PUSH20 0xFFFFFFFFFFFFFFFFFFFFFFFFFFFFFFFFFFFFFFFF AND PUSH20 0xFFFFFFFFFFFFFFFFFFFFFFFFFFFFFFFFFFFFFFFF AND DUP2 MSTORE PUSH1 0x20 ADD DUP3 DUP2 MSTORE PUSH1 0x20 ADD SWAP3 POP POP POP PUSH1 0x20 PUSH1 0x40 MLOAD DUP1 DUP4 SUB DUP2 PUSH1 0x0 DUP8 DUP1 EXTCODESIZE ISZERO DUP1 ISZERO PUSH2 0x5DBF JUMPI PUSH1 0x0 DUP1 REVERT JUMPDEST POP GAS CALL ISZERO DUP1 ISZERO PUSH2 0x5DD3 JUMPI RETURNDATASIZE PUSH1 0x0 DUP1 RETURNDATACOPY RETURNDATASIZE PUSH1 0x0 REVERT JUMPDEST POP POP POP POP PUSH1 0x40 MLOAD RETURNDATASIZE PUSH1 0x20 DUP2 LT ISZERO PUSH2 0x5DE9 JUMPI PUSH1 0x0 DUP1 REVERT JUMPDEST DUP2 ADD SWAP1 DUP1 DUP1 MLOAD SWAP1 PUSH1 0x20 ADD SWAP1 SWAP3 SWAP2 SWAP1 POP POP POP POP CALLER PUSH20 0xFFFFFFFFFFFFFFFFFFFFFFFFFFFFFFFFFFFFFFFF AND PUSH32 0x4854321CC9BE1D947B907185D497D36FE671CFB8F0DCBCDC84A01BE76F81BFF2 DUP4 DUP4 DUP2 MLOAD DUP2 LT PUSH2 0x5E3F JUMPI INVALID JUMPDEST PUSH1 0x20 MUL PUSH1 0x20 ADD ADD MLOAD PUSH1 0x40 MLOAD DUP1 DUP3 DUP2 MSTORE PUSH1 0x20 ADD SWAP2 POP POP PUSH1 0x40 MLOAD DUP1 SWAP2 SUB SWAP1 LOG2 DUP1 DUP1 PUSH1 0x1 ADD SWAP2 POP POP PUSH2 0x5A5C JUMP JUMPDEST POP POP JUMP JUMPDEST PUSH1 0x2 PUSH1 0x0 SWAP1 SLOAD SWAP1 PUSH2 0x100 EXP SWAP1 DIV PUSH20 0xFFFFFFFFFFFFFFFFFFFFFFFFFFFFFFFFFFFFFFFF AND DUP2 JUMP JUMPDEST PUSH1 0x0 DUP1 DUP4 EQ ISZERO PUSH2 0x5EA6 JUMPI PUSH1 0x0 SWAP1 POP PUSH2 0x5EC7 JUMP JUMPDEST PUSH1 0x0 DUP3 DUP5 MUL SWAP1 POP DUP3 DUP5 DUP3 DUP2 PUSH2 0x5EB7 JUMPI INVALID JUMPDEST DIV EQ PUSH2 0x5EC2 JUMPI PUSH1 0x0 DUP1 REVERT JUMPDEST DUP1 SWAP2 POP POP JUMPDEST SWAP3 SWAP2 POP POP JUMP JUMPDEST PUSH1 0x0 DUP1 DUP3 DUP5 ADD SWAP1 POP DUP4 DUP2 LT ISZERO PUSH2 0x5EE2 JUMPI PUSH1 0x0 DUP1 REVERT JUMPDEST DUP1 SWAP2 POP POP SWAP3 SWAP2 POP POP JUMP JUMPDEST PUSH1 0x0 DUP3 DUP3 GT ISZERO PUSH2 0x5EFB JUMPI PUSH1 0x0 DUP1 REVERT JUMPDEST PUSH1 0x0 DUP3 DUP5 SUB SWAP1 POP DUP1 SWAP2 POP POP SWAP3 SWAP2 POP POP JUMP JUMPDEST PUSH1 0x0 DUP1 DUP3 GT PUSH2 0x5F1A JUMPI PUSH1 0x0 DUP1 REVERT JUMPDEST PUSH1 0x0 DUP3 DUP5 DUP2 PUSH2 0x5F25 JUMPI INVALID JUMPDEST DIV SWAP1 POP DUP1 SWAP2 POP POP SWAP3 SWAP2 POP POP JUMP JUMPDEST DUP3 DUP1 SLOAD DUP3 DUP3 SSTORE SWAP1 PUSH1 0x0 MSTORE PUSH1 0x20 PUSH1 0x0 KECCAK256 SWAP1 DUP2 ADD SWAP3 DUP3 ISZERO PUSH2 0x5F6E JUMPI SWAP2 PUSH1 0x20 MUL DUP3 ADD JUMPDEST DUP3 DUP2 GT ISZERO PUSH2 0x5F6D JUMPI DUP3 MLOAD DUP3 SSTORE SWAP2 PUSH1 0x20 ADD SWAP2 SWAP1 PUSH1 0x1 ADD SWAP1 PUSH2 0x5F52 JUMP JUMPDEST JUMPDEST POP SWAP1 POP PUSH2 0x5F7B SWAP2 SWAP1 PUSH2 0x5F7F JUMP JUMPDEST POP SWAP1 JUMP JUMPDEST PUSH2 0x5FA1 SWAP2 SWAP1 JUMPDEST DUP1 DUP3 GT ISZERO PUSH2 0x5F9D JUMPI PUSH1 0x0 DUP2 PUSH1 0x0 SWAP1 SSTORE POP PUSH1 0x1 ADD PUSH2 0x5F85 JUMP JUMPDEST POP SWAP1 JUMP JUMPDEST SWAP1 JUMP INVALID LOG2 PUSH6 0x627A7A723058 KECCAK256 JUMPI MUL SIGNEXTEND DUP9 SDIV DUP7 PUSH17 0x7F935486E05C84E269D0DC1E7D3A0EC7DE CALLDATACOPY DUP6 PUSH32 0x62517886F364736F6C634300050A003200000000000000000000000000000000 "},"gasEstimates":{"creation":{"codeDepositCost":"4907400","executionCost":"infinite","totalCost":"infinite"},"external":{"addNominee(uint256,address,uint256)":"infinite","burnDefaultedLoans(address[],uint256[])":"infinite","claimLaunchReward(uint256)":"infinite","createLoanPlan(uint256,uint256,uint256)":"81154","createStakingPlan(uint256,uint256,bool)":"81424","getCurrentMonth()":"494","getNumberOfStakingsByUser(address)":"716","giveLaunchReward(address[],uint256[])":"infinite","increaseMonth(uint256)":"40895","isStakingActive(address,uint256,uint256)":"infinite","launchReward(address)":"614","loanPlans(uint256)":"1314","loans(address,uint256)":"1645","newStaking(uint256,uint256)":"infinite","nomineeWithdraw(address,uint256)":"infinite","nrtManager()":"500","owner()":"542","removeNominee(uint256,address)":"infinite","repayLoanSelf(uint256)":"infinite","seeBenefitOfAStakingByMonths(address,uint256,uint256[])":"infinite","seeMaxLoaningAmountOnUserStakings(address,uint256[],uint256)":"infinite","stakingPlans(uint256)":"1407","stakings(address,uint256)":"2386","takeLoanOnSelfStaking(uint256,uint256,uint256[])":"infinite","timeAllyMonthlyNRT(uint256)":"826","token()":"563","topupRewardBucket(uint256)":"infinite","totalActiveStakings(uint256)":"675","viewNomination(address,uint256,address)":"1137","withdrawBenefitOfAStakingByMonths(uint256,uint256[])":"infinite","withdrawExpiredStakings(uint256[])":"infinite"}},"methodIdentifiers":{"addNominee(uint256,address,uint256)":"a4c0e90a","burnDefaultedLoans(address[],uint256[])":"16d3e966","claimLaunchReward(uint256)":"da9d8aa0","createLoanPlan(uint256,uint256,uint256)":"d1cf31b3","createStakingPlan(uint256,uint256,bool)":"778db8d4","getCurrentMonth()":"ddd1b67e","getNumberOfStakingsByUser(address)":"ad998fa0","giveLaunchReward(address[],uint256[])":"88c5f296","increaseMonth(uint256)":"e78c81c4","isStakingActive(address,uint256,uint256)":"d58424a3","launchReward(address)":"7acab857","loanPlans(uint256)":"cc44a2fd","loans(address,uint256)":"98c61c37","newStaking(uint256,uint256)":"e5fd04e6","nomineeWithdraw(address,uint256)":"911e8bc6","nrtManager()":"0df5202f","owner()":"8da5cb5b","removeNominee(uint256,address)":"4f916fb0","repayLoanSelf(uint256)":"dea6cf43","seeBenefitOfAStakingByMonths(address,uint256,uint256[])":"2c779774","seeMaxLoaningAmountOnUserStakings(address,uint256[],uint256)":"df90f7ce","stakingPlans(uint256)":"762e7a34","stakings(address,uint256)":"1849d8ea","takeLoanOnSelfStaking(uint256,uint256,uint256[])":"d0e32681","timeAllyMonthlyNRT(uint256)":"23a15e6b","token()":"fc0c546a","topupRewardBucket(uint256)":"53fcb2f3","totalActiveStakings(uint256)":"4ec0692c","viewNomination(address,uint256,address)":"2e9721b6","withdrawBenefitOfAStakingByMonths(uint256,uint256[])":"9d0b8b44","withdrawExpiredStakings(uint256[])":"e83f7843"}},"userdoc":{"methods":{"addNominee(uint256,address,uint256)":{"notice":"this function is used to add nominee to a staking"},"claimLaunchReward(uint256)":{"notice":"this function is used by rewardees to claim their accrued rewards. This is also used by stakers to restake their 50% benefit received as rewards"},"constructor":"sets up TimeAlly contract when deployed","createLoanPlan(uint256,uint256,uint256)":{"notice":"this function is used by owner to create plans for new loans"},"createStakingPlan(uint256,uint256,bool)":{"notice":"this function is used by owner to create plans for new stakings"},"getCurrentMonth()":{"notice":"TimeAlly month is dependent on the monthly NRT release"},"getNumberOfStakingsByUser(address)":{"notice":"this function is used to see total stakings of any user of TimeAlly"},"giveLaunchReward(address[],uint256[])":{"notice":"this function is used to send rewards to multiple users"},"increaseMonth(uint256)":{"notice":"this function is used by NRT manager to communicate NRT release to TimeAlly"},"isStakingActive(address,uint256,uint256)":{"notice":"used internally to see if staking is active or not. does not include if staking is claimed."},"newStaking(uint256,uint256)":{"notice":"takes ES from user and locks it for a time according to plan selected by user"},"nomineeWithdraw(address,uint256)":{"notice":"this function is used by nominee to withdraw their share of a staking after 1 year of the end of tenure of staking"},"removeNominee(uint256,address)":{"notice":"this function is used to remove nomination of a address"},"repayLoanSelf(uint256)":{"notice":"repay loan functionality"},"seeBenefitOfAStakingByMonths(address,uint256,uint256[])":{"notice":"this function is used for seeing the benefits of a staking of any user"},"seeMaxLoaningAmountOnUserStakings(address,uint256[],uint256)":{"notice":"this function is used to estimate the maximum amount of loan that any user can take with their stakings"},"takeLoanOnSelfStaking(uint256,uint256,uint256[])":{"notice":"this function is used to take loan on multiple stakings"},"topupRewardBucket(uint256)":{"notice":"this function is used to topup reward balance in smart contract. Rewards are transferable. Anyone with reward balance can only claim it as a new staking."},"viewNomination(address,uint256,address)":{"notice":"this function is used to read the nomination of a nominee address of a staking of a user"},"withdrawBenefitOfAStakingByMonths(uint256,uint256[])":{"notice":"this function is used for withdrawing the benefits of a staking of any user"},"withdrawExpiredStakings(uint256[])":{"notice":"this function is used to withdraw the principle amount of multiple stakings which have their tenure completed"}}}}