{"abi":[{"inputs":[{"internalType":"contract ERC20","name":"_token","type":"address"}],"payable":false,"stateMutability":"nonpayable","type":"constructor"},{"anonymous":false,"inputs":[{"indexed":true,"internalType":"address","name":"_staker","type":"address"},{"indexed":true,"internalType":"uint256","name":"_sipId","type":"uint256"},{"indexed":true,"internalType":"address","name":"_appointeeAddress","type":"address"},{"indexed":false,"internalType":"bool","name":"_appointeeStatus","type":"bool"}],"name":"AppointeeUpdated","type":"event"},{"anonymous":false,"inputs":[{"indexed":true,"internalType":"address","name":"_staker","type":"address"},{"indexed":true,"internalType":"uint256","name":"_sipId","type":"uint256"},{"indexed":true,"internalType":"address","name":"_appointeeAddress","type":"address"}],"name":"AppointeeVoted","type":"event"},{"anonymous":false,"inputs":[{"indexed":true,"internalType":"address","name":"_staker","type":"address"},{"indexed":true,"internalType":"uint256","name":"_sipId","type":"uint256"},{"indexed":false,"internalType":"uint256","name":"_fromMonthId","type":"uint256"},{"indexed":false,"internalType":"uint256","name":"_toMonthId","type":"uint256"},{"indexed":false,"internalType":"uint256","name":"_withdrawlAmount","type":"uint256"},{"indexed":false,"internalType":"address","name":"_withdrawnBy","type":"address"}],"name":"BenefitWithdrawl","type":"event"},{"anonymous":false,"inputs":[{"indexed":false,"internalType":"uint256","name":"_depositAmount","type":"uint256"}],"name":"FundsDeposited","type":"event"},{"anonymous":false,"inputs":[{"indexed":false,"internalType":"uint256","name":"_withdrawlAmount","type":"uint256"}],"name":"FundsWithdrawn","type":"event"},{"anonymous":false,"inputs":[{"indexed":true,"internalType":"address","name":"_staker","type":"address"},{"indexed":true,"internalType":"uint256","name":"_sipId","type":"uint256"},{"indexed":false,"internalType":"uint256","name":"_monthId","type":"uint256"},{"indexed":false,"internalType":"uint256","name":"_depositAmount","type":"uint256"},{"indexed":false,"internalType":"uint256","name":"_benefitQueued","type":"uint256"},{"indexed":false,"internalType":"address","name":"_depositedBy","type":"address"}],"name":"NewDeposit","type":"event"},{"anonymous":false,"inputs":[{"indexed":true,"internalType":"address","name":"_staker","type":"address"},{"indexed":false,"internalType":"uint256","name":"_sipId","type":"uint256"},{"indexed":false,"internalType":"uint256","name":"_monthlyCommitmentAmount","type":"uint256"}],"name":"NewSIP","type":"event"},{"anonymous":false,"inputs":[{"indexed":true,"internalType":"address","name":"_staker","type":"address"},{"indexed":true,"internalType":"uint256","name":"_sipId","type":"uint256"},{"indexed":true,"internalType":"address","name":"_nomineeAddress","type":"address"},{"indexed":false,"internalType":"bool","name":"_nomineeStatus","type":"bool"}],"name":"NomineeUpdated","type":"event"},{"anonymous":false,"inputs":[{"indexed":true,"internalType":"address","name":"_staker","type":"address"},{"indexed":true,"internalType":"uint256","name":"_sipId","type":"uint256"},{"indexed":false,"internalType":"uint256","name":"_boosterSerial","type":"uint256"},{"indexed":false,"internalType":"uint256","name":"_withdrawlAmount","type":"uint256"},{"indexed":false,"internalType":"address","name":"_withdrawnBy","type":"address"}],"name":"PowerBoosterWithdrawl","type":"event"},{"constant":true,"inputs":[],"name":"EARTH_SECONDS_IN_MONTH","outputs":[{"internalType":"uint256","name":"","type":"uint256"}],"payable":false,"stateMutability":"view","type":"function"},{"constant":false,"inputs":[{"internalType":"uint256","name":"_depositAmount","type":"uint256"}],"name":"addFunds","outputs":[],"payable":false,"stateMutability":"nonpayable","type":"function"},{"constant":false,"inputs":[{"internalType":"uint256","name":"_amount","type":"uint256"}],"name":"addToPrepaid","outputs":[],"payable":false,"stateMutability":"nonpayable","type":"function"},{"constant":false,"inputs":[{"internalType":"address","name":"_stakerAddress","type":"address"},{"internalType":"uint256","name":"_sipId","type":"uint256"}],"name":"appointeeVote","outputs":[],"payable":false,"stateMutability":"nonpayable","type":"function"},{"constant":false,"inputs":[{"internalType":"uint256","name":"_minimumMonthlyCommitmentAmount","type":"uint256"},{"internalType":"uint256","name":"_accumulationPeriodMonths","type":"uint256"},{"internalType":"uint256","name":"_benefitPeriodYears","type":"uint256"},{"internalType":"uint256","name":"_gracePeriodSeconds","type":"uint256"},{"internalType":"uint256","name":"_monthlyBenefitFactor","type":"uint256"},{"internalType":"uint256","name":"_gracePenaltyFactor","type":"uint256"},{"internalType":"uint256","name":"_defaultPenaltyFactor","type":"uint256"}],"name":"createSIPPlan","outputs":[],"payable":false,"stateMutability":"nonpayable","type":"function"},{"constant":true,"inputs":[],"name":"fundsDeposit","outputs":[{"internalType":"uint256","name":"","type":"uint256"}],"payable":false,"stateMutability":"view","type":"function"},{"constant":true,"inputs":[{"internalType":"address","name":"_stakerAddress","type":"address"},{"internalType":"uint256","name":"_sipId","type":"uint256"},{"internalType":"uint256","name":"_monthId","type":"uint256"}],"name":"getDepositDoneStatus","outputs":[{"internalType":"uint256","name":"","type":"uint256"}],"payable":false,"stateMutability":"view","type":"function"},{"constant":true,"inputs":[{"internalType":"address","name":"_stakerAddress","type":"address"},{"internalType":"uint256","name":"_sipId","type":"uint256"},{"internalType":"uint256","name":"_monthId","type":"uint256"}],"name":"getDepositStatus","outputs":[{"internalType":"uint256","name":"","type":"uint256"}],"payable":false,"stateMutability":"view","type":"function"},{"constant":true,"inputs":[{"internalType":"address","name":"_stakerAddress","type":"address"},{"internalType":"uint256","name":"_sipId","type":"uint256"},{"internalType":"uint256","name":"_withdrawlMonthId","type":"uint256"},{"internalType":"bool","name":"_isNomineeWithdrawing","type":"bool"}],"name":"getPendingWithdrawlAmount","outputs":[{"internalType":"uint256","name":"","type":"uint256"}],"payable":false,"stateMutability":"view","type":"function"},{"constant":false,"inputs":[{"internalType":"address","name":"_stakerAddress","type":"address"},{"internalType":"uint256","name":"_sipId","type":"uint256"},{"internalType":"uint256","name":"_depositAmount","type":"uint256"},{"internalType":"uint256","name":"_monthId","type":"uint256"},{"internalType":"bool","name":"_usePrepaidES","type":"bool"}],"name":"monthlyDeposit","outputs":[],"payable":false,"stateMutability":"nonpayable","type":"function"},{"constant":false,"inputs":[{"internalType":"uint256","name":"_planId","type":"uint256"},{"internalType":"uint256","name":"_monthlyCommitmentAmount","type":"uint256"},{"internalType":"bool","name":"_usePrepaidES","type":"bool"}],"name":"newSIP","outputs":[],"payable":false,"stateMutability":"nonpayable","type":"function"},{"constant":true,"inputs":[],"name":"owner","outputs":[{"internalType":"address","name":"","type":"address"}],"payable":false,"stateMutability":"view","type":"function"},{"constant":true,"inputs":[],"name":"pendingBenefitAmountOfAllStakers","outputs":[{"internalType":"uint256","name":"","type":"uint256"}],"payable":false,"stateMutability":"view","type":"function"},{"constant":true,"inputs":[{"internalType":"address","name":"","type":"address"}],"name":"prepaidES","outputs":[{"internalType":"uint256","name":"","type":"uint256"}],"payable":false,"stateMutability":"view","type":"function"},{"constant":false,"inputs":[{"internalType":"address[]","name":"_addresses","type":"address[]"},{"internalType":"uint256[]","name":"_amounts","type":"uint256[]"}],"name":"sendPrepaidESDifferent","outputs":[],"payable":false,"stateMutability":"nonpayable","type":"function"},{"constant":true,"inputs":[{"internalType":"uint256","name":"","type":"uint256"}],"name":"sipPlans","outputs":[{"internalType":"bool","name":"isPlanActive","type":"bool"},{"internalType":"uint256","name":"minimumMonthlyCommitmentAmount","type":"uint256"},{"internalType":"uint256","name":"accumulationPeriodMonths","type":"uint256"},{"internalType":"uint256","name":"benefitPeriodYears","type":"uint256"},{"internalType":"uint256","name":"gracePeriodSeconds","type":"uint256"},{"internalType":"uint256","name":"monthlyBenefitFactor","type":"uint256"},{"internalType":"uint256","name":"gracePenaltyFactor","type":"uint256"},{"internalType":"uint256","name":"defaultPenaltyFactor","type":"uint256"}],"payable":false,"stateMutability":"view","type":"function"},{"constant":true,"inputs":[{"internalType":"address","name":"","type":"address"},{"internalType":"uint256","name":"","type":"uint256"}],"name":"sips","outputs":[{"internalType":"uint256","name":"planId","type":"uint256"},{"internalType":"uint256","name":"stakingTimestamp","type":"uint256"},{"internalType":"uint256","name":"monthlyCommitmentAmount","type":"uint256"},{"internalType":"uint256","name":"totalDeposited","type":"uint256"},{"internalType":"uint256","name":"lastWithdrawlMonthId","type":"uint256"},{"internalType":"uint256","name":"powerBoosterWithdrawls","type":"uint256"},{"internalType":"uint256","name":"numberOfAppointees","type":"uint256"},{"internalType":"uint256","name":"appointeeVotes","type":"uint256"}],"payable":false,"stateMutability":"view","type":"function"},{"constant":true,"inputs":[],"name":"token","outputs":[{"internalType":"contract ERC20","name":"","type":"address"}],"payable":false,"stateMutability":"view","type":"function"},{"constant":false,"inputs":[{"internalType":"uint256","name":"_sipId","type":"uint256"},{"internalType":"address","name":"_appointeeAddress","type":"address"},{"internalType":"bool","name":"_newAppointeeStatus","type":"bool"}],"name":"toogleAppointee","outputs":[],"payable":false,"stateMutability":"nonpayable","type":"function"},{"constant":false,"inputs":[{"internalType":"uint256","name":"_sipId","type":"uint256"},{"internalType":"address","name":"_nomineeAddress","type":"address"},{"internalType":"bool","name":"_newNomineeStatus","type":"bool"}],"name":"toogleNominee","outputs":[],"payable":false,"stateMutability":"nonpayable","type":"function"},{"constant":false,"inputs":[{"internalType":"uint256","name":"_planId","type":"uint256"},{"internalType":"bool","name":"_newStatus","type":"bool"}],"name":"updatePlanStatus","outputs":[],"payable":false,"stateMutability":"nonpayable","type":"function"},{"constant":true,"inputs":[{"internalType":"address","name":"_stakerAddress","type":"address"},{"internalType":"uint256","name":"_sipId","type":"uint256"},{"internalType":"address","name":"_appointeeAddress","type":"address"}],"name":"viewAppointation","outputs":[{"internalType":"bool","name":"","type":"bool"}],"payable":false,"stateMutability":"view","type":"function"},{"constant":true,"inputs":[{"internalType":"address","name":"_stakerAddress","type":"address"},{"internalType":"uint256","name":"_sipId","type":"uint256"},{"internalType":"uint256","name":"_depositMonthId","type":"uint256"}],"name":"viewMonthlyBenefitAmount","outputs":[{"internalType":"uint256","name":"","type":"uint256"}],"payable":false,"stateMutability":"view","type":"function"},{"constant":true,"inputs":[{"internalType":"address","name":"_stakerAddress","type":"address"},{"internalType":"uint256","name":"_sipId","type":"uint256"},{"internalType":"address","name":"_nomineeAddress","type":"address"}],"name":"viewNomination","outputs":[{"internalType":"bool","name":"","type":"bool"}],"payable":false,"stateMutability":"view","type":"function"},{"constant":false,"inputs":[{"internalType":"address","name":"_stakerAddress","type":"address"},{"internalType":"uint256","name":"_sipId","type":"uint256"},{"internalType":"uint256","name":"_withdrawlMonthId","type":"uint256"}],"name":"withdrawBenefit","outputs":[],"payable":false,"stateMutability":"nonpayable","type":"function"},{"constant":false,"inputs":[{"internalType":"uint256","name":"_withdrawlAmount","type":"uint256"}],"name":"withdrawFunds","outputs":[],"payable":false,"stateMutability":"nonpayable","type":"function"},{"constant":false,"inputs":[{"internalType":"address","name":"_stakerAddress","type":"address"},{"internalType":"uint256","name":"_sipId","type":"uint256"}],"name":"withdrawPowerBooster","outputs":[],"payable":false,"stateMutability":"nonpayable","type":"function"}],"devdoc":{"author":"The EraSwap Team","methods":{"addFunds(uint256)":{"details":"ERC20 approve is required to be done for this contract earlier","params":{"_depositAmount":": amount in exaES to deposit"}},"addToPrepaid(uint256)":{"details":"ERC20 approve needs to be done","params":{"_amount":": ES to deposit"}},"appointeeVote(address,uint256)":{"details":"need to be appointee, set by staker themselves","params":{"_sipId":": id of SIP in staker portfolio.","_stakerAddress":": address of initiater of this SIP."}},"constructor":{"params":{"_token":": is EraSwap ERC20 Smart Contract Address"}},"createSIPPlan(uint256,uint256,uint256,uint256,uint256,uint256,uint256)":{"params":{"_accumulationPeriodMonths":": number of months to deposit commitment amount","_benefitPeriodYears":": number of years of benefit","_defaultPenaltyFactor":": due to missing deposits, this is per 1000","_gracePenaltyFactor":": due to late deposits, this is per 1000","_gracePeriodSeconds":": grace allowance to stakers to deposit monthly","_minimumMonthlyCommitmentAmount":": minimum SIP monthly amount in exaES","_monthlyBenefitFactor":": this is per 1000; i.e 200 for 20%"}},"getDepositDoneStatus(address,uint256,uint256)":{"params":{"_monthId":": deposit month id starts from 1 upto as per plan","_sipId":": id of SIP in staker portfolio.","_stakerAddress":": address of initiater of this SIP."},"return":"0 => no deposit, 1 => grace deposit, 2 => on time deposit"},"getDepositStatus(address,uint256,uint256)":{"details":"it is used in deposit function require statement.","params":{"_monthId":": deposit month id to calculate status for","_sipId":": id of SIP in staker portfolio.","_stakerAddress":": address of initiater of this SIP."},"return":"0 => too late, 1 => its grace time, 2 => on time"},"getPendingWithdrawlAmount(address,uint256,uint256,bool)":{"params":{"_isNomineeWithdrawing":": different status in case of nominee withdrawl","_sipId":": id of SIP in staker portfolio.","_stakerAddress":": address of initiater of this SIP.","_withdrawlMonthId":": withdrawl month id upto which to calculate returns for"},"return":"gives available withdrawl amount upto the withdrawl month id"},"monthlyDeposit(address,uint256,uint256,uint256,bool)":{"details":"ERC20 approve is required to be done for this contract earlier, also  fundsDeposit should be enough otherwise contract will not accept  Also, deposit can also be done by any nominee of this SIP.","params":{"_depositAmount":": amount to deposit,","_monthId":": specify the month to deposit","_sipId":": id of SIP in staker address portfolio","_stakerAddress":": address of staker who has an SIP","_usePrepaidES":": should prepaidES be used."}},"newSIP(uint256,uint256,bool)":{"details":"ERC20 approve is required to be done for this contract earlier, also  fundsDeposit should be enough otherwise contract will not accept","params":{"_monthlyCommitmentAmount":": needs to be more than minimum specified in plan.","_planId":": choose a SIP plan","_usePrepaidES":": should prepaidES be used."}},"sendPrepaidESDifferent(address[],uint256[])":{"params":{"_addresses":": address array to send prepaid ES for SIP","_amounts":": prepaid ES for SIP amounts to send to corresponding addresses"}},"toogleAppointee(uint256,address,bool)":{"params":{"_appointeeAddress":": eth wallet address of appointee.","_newAppointeeStatus":": true or false, should this have appointee rights or not.","_sipId":": id of SIP in staker portfolio."}},"toogleNominee(uint256,address,bool)":{"params":{"_newNomineeStatus":": true or false, whether this should be a nominee or not.","_nomineeAddress":": eth wallet address of nominee.","_sipId":": id of SIP in staker portfolio."}},"viewAppointation(address,uint256,address)":{"params":{"_appointeeAddress":": eth wallet address of apointee.","_sipId":": id of SIP in staker portfolio.","_stakerAddress":": address of initiater of this SIP."},"return":"tells whether this address is a appointee or not"},"viewNomination(address,uint256,address)":{"params":{"_nomineeAddress":": eth wallet address of nominee.","_sipId":": id of SIP in staker portfolio.","_stakerAddress":": address of initiater of this SIP."},"return":"tells whether this address is a nominee or not"},"withdrawBenefit(address,uint256,uint256)":{"details":"withdraw can be done by any nominee of this SIP.","params":{"_sipId":": id of SIP in staker address portfolio.","_stakerAddress":": address of initiater of this SIP.","_withdrawlMonthId":": withdraw month id starts from 1 upto as per plan."}},"withdrawFunds(uint256)":{"params":{"_withdrawlAmount":": amount in exaES to withdraw"}},"withdrawPowerBooster(address,uint256)":{"details":"withdraw can be done by any nominee of this SIP.","params":{"_sipId":": id of SIP in staker address portfolio.","_stakerAddress":": address of initiater of this SIP."}}},"title":"TimeAlly Super Goal Achiever Plan (TSGAP)"},"evm":{"assembly":"    /* \"TimeAllySIP.sol\":1620:29554  contract TimeAllySIP {... */\n  mstore(0x40, 0x80)\n    /* \"TimeAllySIP.sol\":2911:2918  2629744 */\n  0x282070\n    /* \"TimeAllySIP.sol\":2871:2918  uint256 public EARTH_SECONDS_IN_MONTH = 2629744 */\n  0x02\n  sstore\n    /* \"TimeAllySIP.sol\":6384:6466  constructor(ERC20 _token) public {... */\n  callvalue\n    /* \"--CODEGEN--\":8:17   */\n  dup1\n    /* \"--CODEGEN--\":5:7   */\n  iszero\n  tag_1\n  jumpi\n    /* \"--CODEGEN--\":30:31   */\n  0x00\n    /* \"--CODEGEN--\":27:28   */\n  dup1\n    /* \"--CODEGEN--\":20:32   */\n  revert\n    /* \"--CODEGEN--\":5:7   */\ntag_1:\n    /* \"TimeAllySIP.sol\":6384:6466  constructor(ERC20 _token) public {... */\n  pop\n  mload(0x40)\n  sub(codesize, bytecodeSize)\n  dup1\n  bytecodeSize\n  dup4\n  codecopy\n  dup2\n  dup2\n  add\n  0x40\n  mstore\n    /* \"--CODEGEN--\":13:15   */\n  0x20\n    /* \"--CODEGEN--\":8:11   */\n  dup2\n    /* \"--CODEGEN--\":5:16   */\n  lt\n    /* \"--CODEGEN--\":2:4   */\n  iszero\n  tag_2\n  jumpi\n    /* \"--CODEGEN--\":29:30   */\n  0x00\n    /* \"--CODEGEN--\":26:27   */\n  dup1\n    /* \"--CODEGEN--\":19:31   */\n  revert\n    /* \"--CODEGEN--\":2:4   */\ntag_2:\n    /* \"TimeAllySIP.sol\":6384:6466  constructor(ERC20 _token) public {... */\n  dup2\n  add\n  swap1\n  dup1\n  dup1\n  mload\n  swap1\n  0x20\n  add\n  swap1\n  swap3\n  swap2\n  swap1\n  pop\n  pop\n  pop\n    /* \"TimeAllySIP.sol\":6431:6441  msg.sender */\n  caller\n    /* \"TimeAllySIP.sol\":6423:6428  owner */\n  0x00\n  dup1\n    /* \"TimeAllySIP.sol\":6423:6441  owner = msg.sender */\n  0x0100\n  exp\n  dup2\n  sload\n  dup2\n  0xffffffffffffffffffffffffffffffffffffffff\n  mul\n  not\n  and\n  swap1\n  dup4\n  0xffffffffffffffffffffffffffffffffffffffff\n  and\n  mul\n  or\n  swap1\n  sstore\n  pop\n    /* \"TimeAllySIP.sol\":6455:6461  _token */\n  dup1\n    /* \"TimeAllySIP.sol\":6447:6452  token */\n  0x01\n  0x00\n    /* \"TimeAllySIP.sol\":6447:6461  token = _token */\n  0x0100\n  exp\n  dup2\n  sload\n  dup2\n  0xffffffffffffffffffffffffffffffffffffffff\n  mul\n  not\n  and\n  swap1\n  dup4\n  0xffffffffffffffffffffffffffffffffffffffff\n  and\n  mul\n  or\n  swap1\n  sstore\n  pop\n    /* \"TimeAllySIP.sol\":6384:6466  constructor(ERC20 _token) public {... */\n  pop\n    /* \"TimeAllySIP.sol\":1620:29554  contract TimeAllySIP {... */\n  dataSize(sub_0)\n  dup1\n  dataOffset(sub_0)\n  0x00\n  codecopy\n  0x00\n  return\nstop\n\nsub_0: assembly {\n        /* \"TimeAllySIP.sol\":1620:29554  contract TimeAllySIP {... */\n      mstore(0x40, 0x80)\n      callvalue\n        /* \"--CODEGEN--\":8:17   */\n      dup1\n        /* \"--CODEGEN--\":5:7   */\n      iszero\n      tag_1\n      jumpi\n        /* \"--CODEGEN--\":30:31   */\n      0x00\n        /* \"--CODEGEN--\":27:28   */\n      dup1\n        /* \"--CODEGEN--\":20:32   */\n      revert\n        /* \"--CODEGEN--\":5:7   */\n    tag_1:\n        /* \"TimeAllySIP.sol\":1620:29554  contract TimeAllySIP {... */\n      pop\n      jumpi(tag_2, lt(calldatasize, 0x04))\n      shr(0xe0, calldataload(0x00))\n      dup1\n      0x8da5cb5b\n      gt\n      tag_30\n      jumpi\n      dup1\n      0xbe999705\n      gt\n      tag_31\n      jumpi\n      dup1\n      0xf29de4c3\n      gt\n      tag_32\n      jumpi\n      dup1\n      0xf29de4c3\n      eq\n      tag_26\n      jumpi\n      dup1\n      0xf926b17a\n      eq\n      tag_27\n      jumpi\n      dup1\n      0xfb0685df\n      eq\n      tag_28\n      jumpi\n      dup1\n      0xfc0c546a\n      eq\n      tag_29\n      jumpi\n      jump(tag_2)\n    tag_32:\n      dup1\n      0xbe999705\n      eq\n      tag_23\n      jumpi\n      dup1\n      0xc2809700\n      eq\n      tag_24\n      jumpi\n      dup1\n      0xef4ffe57\n      eq\n      tag_25\n      jumpi\n      jump(tag_2)\n    tag_31:\n      dup1\n      0xa4003ad4\n      gt\n      tag_33\n      jumpi\n      dup1\n      0xa4003ad4\n      eq\n      tag_19\n      jumpi\n      dup1\n      0xad8f6a74\n      eq\n      tag_20\n      jumpi\n      dup1\n      0xb3918922\n      eq\n      tag_21\n      jumpi\n      dup1\n      0xba50531a\n      eq\n      tag_22\n      jumpi\n      jump(tag_2)\n    tag_33:\n      dup1\n      0x8da5cb5b\n      eq\n      tag_16\n      jumpi\n      dup1\n      0x94bb9064\n      eq\n      tag_17\n      jumpi\n      dup1\n      0x9b3017c1\n      eq\n      tag_18\n      jumpi\n      jump(tag_2)\n    tag_30:\n      dup1\n      0x26d9767b\n      gt\n      tag_34\n      jumpi\n      dup1\n      0x2e9721b6\n      gt\n      tag_35\n      jumpi\n      dup1\n      0x2e9721b6\n      eq\n      tag_12\n      jumpi\n      dup1\n      0x51a6349d\n      eq\n      tag_13\n      jumpi\n      dup1\n      0x7838e408\n      eq\n      tag_14\n      jumpi\n      dup1\n      0x81423a26\n      eq\n      tag_15\n      jumpi\n      jump(tag_2)\n    tag_35:\n      dup1\n      0x26d9767b\n      eq\n      tag_9\n      jumpi\n      dup1\n      0x26f8bea7\n      eq\n      tag_10\n      jumpi\n      dup1\n      0x295226c5\n      eq\n      tag_11\n      jumpi\n      jump(tag_2)\n    tag_34:\n      dup1\n      0x07f71149\n      eq\n      tag_3\n      jumpi\n      dup1\n      0x0ce57b46\n      eq\n      tag_4\n      jumpi\n      dup1\n      0x1272d8d4\n      eq\n      tag_5\n      jumpi\n      dup1\n      0x13dcc452\n      eq\n      tag_6\n      jumpi\n      dup1\n      0x155dd5ee\n      eq\n      tag_7\n      jumpi\n      dup1\n      0x2393768d\n      eq\n      tag_8\n      jumpi\n    tag_2:\n      0x00\n      dup1\n      revert\n        /* \"TimeAllySIP.sol\":16536:17819  function withdrawBenefit(... */\n    tag_3:\n      tag_36\n      0x04\n      dup1\n      calldatasize\n      sub\n        /* \"--CODEGEN--\":13:15   */\n      0x60\n        /* \"--CODEGEN--\":8:11   */\n      dup2\n        /* \"--CODEGEN--\":5:16   */\n      lt\n        /* \"--CODEGEN--\":2:4   */\n      iszero\n      tag_37\n      jumpi\n        /* \"--CODEGEN--\":29:30   */\n      0x00\n        /* \"--CODEGEN--\":26:27   */\n      dup1\n        /* \"--CODEGEN--\":19:31   */\n      revert\n        /* \"--CODEGEN--\":2:4   */\n    tag_37:\n        /* \"TimeAllySIP.sol\":16536:17819  function withdrawBenefit(... */\n      dup2\n      add\n      swap1\n      dup1\n      dup1\n      calldataload\n      0xffffffffffffffffffffffffffffffffffffffff\n      and\n      swap1\n      0x20\n      add\n      swap1\n      swap3\n      swap2\n      swap1\n      dup1\n      calldataload\n      swap1\n      0x20\n      add\n      swap1\n      swap3\n      swap2\n      swap1\n      dup1\n      calldataload\n      swap1\n      0x20\n      add\n      swap1\n      swap3\n      swap2\n      swap1\n      pop\n      pop\n      pop\n      tag_38\n      jump\t// in\n    tag_36:\n      stop\n        /* \"TimeAllySIP.sol\":21503:21878  function toogleNominee(... */\n    tag_4:\n      tag_39\n      0x04\n      dup1\n      calldatasize\n      sub\n        /* \"--CODEGEN--\":13:15   */\n      0x60\n        /* \"--CODEGEN--\":8:11   */\n      dup2\n        /* \"--CODEGEN--\":5:16   */\n      lt\n        /* \"--CODEGEN--\":2:4   */\n      iszero\n      tag_40\n      jumpi\n        /* \"--CODEGEN--\":29:30   */\n      0x00\n        /* \"--CODEGEN--\":26:27   */\n      dup1\n        /* \"--CODEGEN--\":19:31   */\n      revert\n        /* \"--CODEGEN--\":2:4   */\n    tag_40:\n        /* \"TimeAllySIP.sol\":21503:21878  function toogleNominee(... */\n      dup2\n      add\n      swap1\n      dup1\n      dup1\n      calldataload\n      swap1\n      0x20\n      add\n      swap1\n      swap3\n      swap2\n      swap1\n      dup1\n      calldataload\n      0xffffffffffffffffffffffffffffffffffffffff\n      and\n      swap1\n      0x20\n      add\n      swap1\n      swap3\n      swap2\n      swap1\n      dup1\n      calldataload\n      iszero\n      iszero\n      swap1\n      0x20\n      add\n      swap1\n      swap3\n      swap2\n      swap1\n      pop\n      pop\n      pop\n      tag_41\n      jump\t// in\n    tag_39:\n      stop\n        /* \"TimeAllySIP.sol\":2871:2918  uint256 public EARTH_SECONDS_IN_MONTH = 2629744 */\n    tag_5:\n      tag_42\n      tag_43\n      jump\t// in\n    tag_42:\n      mload(0x40)\n      dup1\n      dup3\n      dup2\n      mstore\n      0x20\n      add\n      swap2\n      pop\n      pop\n      mload(0x40)\n      dup1\n      swap2\n      sub\n      swap1\n      return\n        /* \"TimeAllySIP.sol\":3443:3470  uint256 public fundsDeposit */\n    tag_6:\n      tag_44\n      tag_45\n      jump\t// in\n    tag_44:\n      mload(0x40)\n      dup1\n      dup3\n      dup2\n      mstore\n      0x20\n      add\n      swap2\n      pop\n      pop\n      mload(0x40)\n      dup1\n      swap2\n      sub\n      swap1\n      return\n        /* \"TimeAllySIP.sol\":8811:9371  function withdrawFunds(uint256 _withdrawlAmount) public onlyOwner {... */\n    tag_7:\n      tag_46\n      0x04\n      dup1\n      calldatasize\n      sub\n        /* \"--CODEGEN--\":13:15   */\n      0x20\n        /* \"--CODEGEN--\":8:11   */\n      dup2\n        /* \"--CODEGEN--\":5:16   */\n      lt\n        /* \"--CODEGEN--\":2:4   */\n      iszero\n      tag_47\n      jumpi\n        /* \"--CODEGEN--\":29:30   */\n      0x00\n        /* \"--CODEGEN--\":26:27   */\n      dup1\n        /* \"--CODEGEN--\":19:31   */\n      revert\n        /* \"--CODEGEN--\":2:4   */\n    tag_47:\n        /* \"TimeAllySIP.sol\":8811:9371  function withdrawFunds(uint256 _withdrawlAmount) public onlyOwner {... */\n      dup2\n      add\n      swap1\n      dup1\n      dup1\n      calldataload\n      swap1\n      0x20\n      add\n      swap1\n      swap3\n      swap2\n      swap1\n      pop\n      pop\n      pop\n      tag_48\n      jump\t// in\n    tag_46:\n      stop\n        /* \"TimeAllySIP.sol\":3115:3162  uint256 public pendingBenefitAmountOfAllStakers */\n    tag_8:\n      tag_49\n      tag_50\n      jump\t// in\n    tag_49:\n      mload(0x40)\n      dup1\n      dup3\n      dup2\n      mstore\n      0x20\n      add\n      swap2\n      pop\n      pop\n      mload(0x40)\n      dup1\n      swap2\n      sub\n      swap1\n      return\n        /* \"TimeAllySIP.sol\":18066:21210  function withdrawPowerBooster(... */\n    tag_9:\n      tag_51\n      0x04\n      dup1\n      calldatasize\n      sub\n        /* \"--CODEGEN--\":13:15   */\n      0x40\n        /* \"--CODEGEN--\":8:11   */\n      dup2\n        /* \"--CODEGEN--\":5:16   */\n      lt\n        /* \"--CODEGEN--\":2:4   */\n      iszero\n      tag_52\n      jumpi\n        /* \"--CODEGEN--\":29:30   */\n      0x00\n        /* \"--CODEGEN--\":26:27   */\n      dup1\n        /* \"--CODEGEN--\":19:31   */\n      revert\n        /* \"--CODEGEN--\":2:4   */\n    tag_52:\n        /* \"TimeAllySIP.sol\":18066:21210  function withdrawPowerBooster(... */\n      dup2\n      add\n      swap1\n      dup1\n      dup1\n      calldataload\n      0xffffffffffffffffffffffffffffffffffffffff\n      and\n      swap1\n      0x20\n      add\n      swap1\n      swap3\n      swap2\n      swap1\n      dup1\n      calldataload\n      swap1\n      0x20\n      add\n      swap1\n      swap3\n      swap2\n      swap1\n      pop\n      pop\n      pop\n      tag_53\n      jump\t// in\n    tag_51:\n      stop\n        /* \"TimeAllySIP.sol\":9518:9702  function addToPrepaid(uint256 _amount) public {... */\n    tag_10:\n      tag_54\n      0x04\n      dup1\n      calldatasize\n      sub\n        /* \"--CODEGEN--\":13:15   */\n      0x20\n        /* \"--CODEGEN--\":8:11   */\n      dup2\n        /* \"--CODEGEN--\":5:16   */\n      lt\n        /* \"--CODEGEN--\":2:4   */\n      iszero\n      tag_55\n      jumpi\n        /* \"--CODEGEN--\":29:30   */\n      0x00\n        /* \"--CODEGEN--\":26:27   */\n      dup1\n        /* \"--CODEGEN--\":19:31   */\n      revert\n        /* \"--CODEGEN--\":2:4   */\n    tag_55:\n        /* \"TimeAllySIP.sol\":9518:9702  function addToPrepaid(uint256 _amount) public {... */\n      dup2\n      add\n      swap1\n      dup1\n      dup1\n      calldataload\n      swap1\n      0x20\n      add\n      swap1\n      swap3\n      swap2\n      swap1\n      pop\n      pop\n      pop\n      tag_56\n      jump\t// in\n    tag_54:\n      stop\n        /* \"TimeAllySIP.sol\":7074:7878  function createSIPPlan(... */\n    tag_11:\n      tag_57\n      0x04\n      dup1\n      calldatasize\n      sub\n        /* \"--CODEGEN--\":13:16   */\n      0xe0\n        /* \"--CODEGEN--\":8:11   */\n      dup2\n        /* \"--CODEGEN--\":5:17   */\n      lt\n        /* \"--CODEGEN--\":2:4   */\n      iszero\n      tag_58\n      jumpi\n        /* \"--CODEGEN--\":30:31   */\n      0x00\n        /* \"--CODEGEN--\":27:28   */\n      dup1\n        /* \"--CODEGEN--\":20:32   */\n      revert\n        /* \"--CODEGEN--\":2:4   */\n    tag_58:\n        /* \"TimeAllySIP.sol\":7074:7878  function createSIPPlan(... */\n      dup2\n      add\n      swap1\n      dup1\n      dup1\n      calldataload\n      swap1\n      0x20\n      add\n      swap1\n      swap3\n      swap2\n      swap1\n      dup1\n      calldataload\n      swap1\n      0x20\n      add\n      swap1\n      swap3\n      swap2\n      swap1\n      dup1\n      calldataload\n      swap1\n      0x20\n      add\n      swap1\n      swap3\n      swap2\n      swap1\n      dup1\n      calldataload\n      swap1\n      0x20\n      add\n      swap1\n      swap3\n      swap2\n      swap1\n      dup1\n      calldataload\n      swap1\n      0x20\n      add\n      swap1\n      swap3\n      swap2\n      swap1\n      dup1\n      calldataload\n      swap1\n      0x20\n      add\n      swap1\n      swap3\n      swap2\n      swap1\n      dup1\n      calldataload\n      swap1\n      0x20\n      add\n      swap1\n      swap3\n      swap2\n      swap1\n      pop\n      pop\n      pop\n      tag_59\n      jump\t// in\n    tag_57:\n      stop\n        /* \"TimeAllySIP.sol\":28833:29037  function viewNomination(... */\n    tag_12:\n      tag_60\n      0x04\n      dup1\n      calldatasize\n      sub\n        /* \"--CODEGEN--\":13:15   */\n      0x60\n        /* \"--CODEGEN--\":8:11   */\n      dup2\n        /* \"--CODEGEN--\":5:16   */\n      lt\n        /* \"--CODEGEN--\":2:4   */\n      iszero\n      tag_61\n      jumpi\n        /* \"--CODEGEN--\":29:30   */\n      0x00\n        /* \"--CODEGEN--\":26:27   */\n      dup1\n        /* \"--CODEGEN--\":19:31   */\n      revert\n        /* \"--CODEGEN--\":2:4   */\n    tag_61:\n        /* \"TimeAllySIP.sol\":28833:29037  function viewNomination(... */\n      dup2\n      add\n      swap1\n      dup1\n      dup1\n      calldataload\n      0xffffffffffffffffffffffffffffffffffffffff\n      and\n      swap1\n      0x20\n      add\n      swap1\n      swap3\n      swap2\n      swap1\n      dup1\n      calldataload\n      swap1\n      0x20\n      add\n      swap1\n      swap3\n      swap2\n      swap1\n      dup1\n      calldataload\n      0xffffffffffffffffffffffffffffffffffffffff\n      and\n      swap1\n      0x20\n      add\n      swap1\n      swap3\n      swap2\n      swap1\n      pop\n      pop\n      pop\n      tag_62\n      jump\t// in\n    tag_60:\n      mload(0x40)\n      dup1\n      dup3\n      iszero\n      iszero\n      iszero\n      iszero\n      dup2\n      mstore\n      0x20\n      add\n      swap2\n      pop\n      pop\n      mload(0x40)\n      dup1\n      swap2\n      sub\n      swap1\n      return\n        /* \"TimeAllySIP.sol\":9923:10240  function sendPrepaidESDifferent(... */\n    tag_13:\n      tag_63\n      0x04\n      dup1\n      calldatasize\n      sub\n        /* \"--CODEGEN--\":13:15   */\n      0x40\n        /* \"--CODEGEN--\":8:11   */\n      dup2\n        /* \"--CODEGEN--\":5:16   */\n      lt\n        /* \"--CODEGEN--\":2:4   */\n      iszero\n      tag_64\n      jumpi\n        /* \"--CODEGEN--\":29:30   */\n      0x00\n        /* \"--CODEGEN--\":26:27   */\n      dup1\n        /* \"--CODEGEN--\":19:31   */\n      revert\n        /* \"--CODEGEN--\":2:4   */\n    tag_64:\n        /* \"TimeAllySIP.sol\":9923:10240  function sendPrepaidESDifferent(... */\n      dup2\n      add\n      swap1\n      dup1\n      dup1\n      calldataload\n      swap1\n      0x20\n      add\n      swap1\n        /* \"--CODEGEN--\":21:32   */\n      0x0100000000\n        /* \"--CODEGEN--\":8:19   */\n      dup2\n        /* \"--CODEGEN--\":5:33   */\n      gt\n        /* \"--CODEGEN--\":2:4   */\n      iszero\n      tag_65\n      jumpi\n        /* \"--CODEGEN--\":46:47   */\n      0x00\n        /* \"--CODEGEN--\":43:44   */\n      dup1\n        /* \"--CODEGEN--\":36:48   */\n      revert\n        /* \"--CODEGEN--\":2:4   */\n    tag_65:\n        /* \"TimeAllySIP.sol\":9923:10240  function sendPrepaidESDifferent(... */\n      dup3\n      add\n        /* \"--CODEGEN--\":35:44   */\n      dup4\n        /* \"--CODEGEN--\":28:32   */\n      0x20\n        /* \"--CODEGEN--\":12:26   */\n      dup3\n        /* \"--CODEGEN--\":8:33   */\n      add\n        /* \"--CODEGEN--\":5:45   */\n      gt\n        /* \"--CODEGEN--\":2:4   */\n      iszero\n      tag_66\n      jumpi\n        /* \"--CODEGEN--\":58:59   */\n      0x00\n        /* \"--CODEGEN--\":55:56   */\n      dup1\n        /* \"--CODEGEN--\":48:60   */\n      revert\n        /* \"--CODEGEN--\":2:4   */\n    tag_66:\n        /* \"TimeAllySIP.sol\":9923:10240  function sendPrepaidESDifferent(... */\n      dup1\n      calldataload\n      swap1\n      0x20\n      add\n      swap2\n        /* \"--CODEGEN--\":101:110   */\n      dup5\n        /* \"--CODEGEN--\":95:97   */\n      0x20\n        /* \"--CODEGEN--\":81:93   */\n      dup4\n        /* \"--CODEGEN--\":77:98   */\n      mul\n        /* \"--CODEGEN--\":67:75   */\n      dup5\n        /* \"--CODEGEN--\":63:99   */\n      add\n        /* \"--CODEGEN--\":60:111   */\n      gt\n        /* \"--CODEGEN--\":39:50   */\n      0x0100000000\n        /* \"--CODEGEN--\":25:37   */\n      dup4\n        /* \"--CODEGEN--\":22:51   */\n      gt\n        /* \"--CODEGEN--\":11:119   */\n      or\n        /* \"--CODEGEN--\":8:10   */\n      iszero\n      tag_67\n      jumpi\n        /* \"--CODEGEN--\":132:133   */\n      0x00\n        /* \"--CODEGEN--\":129:130   */\n      dup1\n        /* \"--CODEGEN--\":122:134   */\n      revert\n        /* \"--CODEGEN--\":8:10   */\n    tag_67:\n        /* \"TimeAllySIP.sol\":9923:10240  function sendPrepaidESDifferent(... */\n      swap2\n      swap1\n      dup1\n      dup1\n      0x20\n      mul\n      0x20\n      add\n      mload(0x40)\n      swap1\n      dup2\n      add\n      0x40\n      mstore\n      dup1\n      swap4\n      swap3\n      swap2\n      swap1\n      dup2\n      dup2\n      mstore\n      0x20\n      add\n      dup4\n      dup4\n      0x20\n      mul\n        /* \"--CODEGEN--\":30:33   */\n      dup1\n        /* \"--CODEGEN--\":22:28   */\n      dup3\n        /* \"--CODEGEN--\":14:20   */\n      dup5\n        /* \"--CODEGEN--\":1:34   */\n      calldatacopy\n        /* \"--CODEGEN--\":99:100   */\n      0x00\n        /* \"--CODEGEN--\":93:96   */\n      dup2\n        /* \"--CODEGEN--\":85:91   */\n      dup5\n        /* \"--CODEGEN--\":81:97   */\n      add\n        /* \"--CODEGEN--\":74:101   */\n      mstore\n        /* \"--CODEGEN--\":137:141   */\n      0x1f\n        /* \"--CODEGEN--\":133:142   */\n      not\n        /* \"--CODEGEN--\":126:130   */\n      0x1f\n        /* \"--CODEGEN--\":121:124   */\n      dup3\n        /* \"--CODEGEN--\":117:131   */\n      add\n        /* \"--CODEGEN--\":113:143   */\n      and\n        /* \"--CODEGEN--\":106:143   */\n      swap1\n      pop\n        /* \"--CODEGEN--\":169:172   */\n      dup1\n        /* \"--CODEGEN--\":161:167   */\n      dup4\n        /* \"--CODEGEN--\":157:173   */\n      add\n        /* \"--CODEGEN--\":147:173   */\n      swap3\n      pop\n        /* \"TimeAllySIP.sol\":9923:10240  function sendPrepaidESDifferent(... */\n      pop\n      pop\n      pop\n      pop\n      pop\n      pop\n      swap2\n      swap3\n      swap2\n      swap3\n      swap1\n      dup1\n      calldataload\n      swap1\n      0x20\n      add\n      swap1\n        /* \"--CODEGEN--\":21:32   */\n      0x0100000000\n        /* \"--CODEGEN--\":8:19   */\n      dup2\n        /* \"--CODEGEN--\":5:33   */\n      gt\n        /* \"--CODEGEN--\":2:4   */\n      iszero\n      tag_68\n      jumpi\n        /* \"--CODEGEN--\":46:47   */\n      0x00\n        /* \"--CODEGEN--\":43:44   */\n      dup1\n        /* \"--CODEGEN--\":36:48   */\n      revert\n        /* \"--CODEGEN--\":2:4   */\n    tag_68:\n        /* \"TimeAllySIP.sol\":9923:10240  function sendPrepaidESDifferent(... */\n      dup3\n      add\n        /* \"--CODEGEN--\":35:44   */\n      dup4\n        /* \"--CODEGEN--\":28:32   */\n      0x20\n        /* \"--CODEGEN--\":12:26   */\n      dup3\n        /* \"--CODEGEN--\":8:33   */\n      add\n        /* \"--CODEGEN--\":5:45   */\n      gt\n        /* \"--CODEGEN--\":2:4   */\n      iszero\n      tag_69\n      jumpi\n        /* \"--CODEGEN--\":58:59   */\n      0x00\n        /* \"--CODEGEN--\":55:56   */\n      dup1\n        /* \"--CODEGEN--\":48:60   */\n      revert\n        /* \"--CODEGEN--\":2:4   */\n    tag_69:\n        /* \"TimeAllySIP.sol\":9923:10240  function sendPrepaidESDifferent(... */\n      dup1\n      calldataload\n      swap1\n      0x20\n      add\n      swap2\n        /* \"--CODEGEN--\":101:110   */\n      dup5\n        /* \"--CODEGEN--\":95:97   */\n      0x20\n        /* \"--CODEGEN--\":81:93   */\n      dup4\n        /* \"--CODEGEN--\":77:98   */\n      mul\n        /* \"--CODEGEN--\":67:75   */\n      dup5\n        /* \"--CODEGEN--\":63:99   */\n      add\n        /* \"--CODEGEN--\":60:111   */\n      gt\n        /* \"--CODEGEN--\":39:50   */\n      0x0100000000\n        /* \"--CODEGEN--\":25:37   */\n      dup4\n        /* \"--CODEGEN--\":22:51   */\n      gt\n        /* \"--CODEGEN--\":11:119   */\n      or\n        /* \"--CODEGEN--\":8:10   */\n      iszero\n      tag_70\n      jumpi\n        /* \"--CODEGEN--\":132:133   */\n      0x00\n        /* \"--CODEGEN--\":129:130   */\n      dup1\n        /* \"--CODEGEN--\":122:134   */\n      revert\n        /* \"--CODEGEN--\":8:10   */\n    tag_70:\n        /* \"TimeAllySIP.sol\":9923:10240  function sendPrepaidESDifferent(... */\n      swap2\n      swap1\n      dup1\n      dup1\n      0x20\n      mul\n      0x20\n      add\n      mload(0x40)\n      swap1\n      dup2\n      add\n      0x40\n      mstore\n      dup1\n      swap4\n      swap3\n      swap2\n      swap1\n      dup2\n      dup2\n      mstore\n      0x20\n      add\n      dup4\n      dup4\n      0x20\n      mul\n        /* \"--CODEGEN--\":30:33   */\n      dup1\n        /* \"--CODEGEN--\":22:28   */\n      dup3\n        /* \"--CODEGEN--\":14:20   */\n      dup5\n        /* \"--CODEGEN--\":1:34   */\n      calldatacopy\n        /* \"--CODEGEN--\":99:100   */\n      0x00\n        /* \"--CODEGEN--\":93:96   */\n      dup2\n        /* \"--CODEGEN--\":85:91   */\n      dup5\n        /* \"--CODEGEN--\":81:97   */\n      add\n        /* \"--CODEGEN--\":74:101   */\n      mstore\n        /* \"--CODEGEN--\":137:141   */\n      0x1f\n        /* \"--CODEGEN--\":133:142   */\n      not\n        /* \"--CODEGEN--\":126:130   */\n      0x1f\n        /* \"--CODEGEN--\":121:124   */\n      dup3\n        /* \"--CODEGEN--\":117:131   */\n      add\n        /* \"--CODEGEN--\":113:143   */\n      and\n        /* \"--CODEGEN--\":106:143   */\n      swap1\n      pop\n        /* \"--CODEGEN--\":169:172   */\n      dup1\n        /* \"--CODEGEN--\":161:167   */\n      dup4\n        /* \"--CODEGEN--\":157:173   */\n      add\n        /* \"--CODEGEN--\":147:173   */\n      swap3\n      pop\n        /* \"TimeAllySIP.sol\":9923:10240  function sendPrepaidESDifferent(... */\n      pop\n      pop\n      pop\n      pop\n      pop\n      pop\n      swap2\n      swap3\n      swap2\n      swap3\n      swap1\n      pop\n      pop\n      pop\n      tag_71\n      jump\t// in\n    tag_63:\n      stop\n        /* \"TimeAllySIP.sol\":7882:8013  function updatePlanStatus(uint256 _planId, bool _newStatus) public onlyOwner {... */\n    tag_14:\n      tag_72\n      0x04\n      dup1\n      calldatasize\n      sub\n        /* \"--CODEGEN--\":13:15   */\n      0x40\n        /* \"--CODEGEN--\":8:11   */\n      dup2\n        /* \"--CODEGEN--\":5:16   */\n      lt\n        /* \"--CODEGEN--\":2:4   */\n      iszero\n      tag_73\n      jumpi\n        /* \"--CODEGEN--\":29:30   */\n      0x00\n        /* \"--CODEGEN--\":26:27   */\n      dup1\n        /* \"--CODEGEN--\":19:31   */\n      revert\n        /* \"--CODEGEN--\":2:4   */\n    tag_73:\n        /* \"TimeAllySIP.sol\":7882:8013  function updatePlanStatus(uint256 _planId, bool _newStatus) public onlyOwner {... */\n      dup2\n      add\n      swap1\n      dup1\n      dup1\n      calldataload\n      swap1\n      0x20\n      add\n      swap1\n      swap3\n      swap2\n      swap1\n      dup1\n      calldataload\n      iszero\n      iszero\n      swap1\n      0x20\n      add\n      swap1\n      swap3\n      swap2\n      swap1\n      pop\n      pop\n      pop\n      tag_74\n      jump\t// in\n    tag_72:\n      stop\n        /* \"TimeAllySIP.sol\":29340:29552  function viewAppointation(... */\n    tag_15:\n      tag_75\n      0x04\n      dup1\n      calldatasize\n      sub\n        /* \"--CODEGEN--\":13:15   */\n      0x60\n        /* \"--CODEGEN--\":8:11   */\n      dup2\n        /* \"--CODEGEN--\":5:16   */\n      lt\n        /* \"--CODEGEN--\":2:4   */\n      iszero\n      tag_76\n      jumpi\n        /* \"--CODEGEN--\":29:30   */\n      0x00\n        /* \"--CODEGEN--\":26:27   */\n      dup1\n        /* \"--CODEGEN--\":19:31   */\n      revert\n        /* \"--CODEGEN--\":2:4   */\n    tag_76:\n        /* \"TimeAllySIP.sol\":29340:29552  function viewAppointation(... */\n      dup2\n      add\n      swap1\n      dup1\n      dup1\n      calldataload\n      0xffffffffffffffffffffffffffffffffffffffff\n      and\n      swap1\n      0x20\n      add\n      swap1\n      swap3\n      swap2\n      swap1\n      dup1\n      calldataload\n      swap1\n      0x20\n      add\n      swap1\n      swap3\n      swap2\n      swap1\n      dup1\n      calldataload\n      0xffffffffffffffffffffffffffffffffffffffff\n      and\n      swap1\n      0x20\n      add\n      swap1\n      swap3\n      swap2\n      swap1\n      pop\n      pop\n      pop\n      tag_77\n      jump\t// in\n    tag_75:\n      mload(0x40)\n      dup1\n      dup3\n      iszero\n      iszero\n      iszero\n      iszero\n      dup2\n      mstore\n      0x20\n      add\n      swap2\n      pop\n      pop\n      mload(0x40)\n      dup1\n      swap2\n      sub\n      swap1\n      return\n        /* \"TimeAllySIP.sol\":2761:2781  address public owner */\n    tag_16:\n      tag_78\n      tag_79\n      jump\t// in\n    tag_78:\n      mload(0x40)\n      dup1\n      dup3\n      0xffffffffffffffffffffffffffffffffffffffff\n      and\n      0xffffffffffffffffffffffffffffffffffffffff\n      and\n      dup2\n      mstore\n      0x20\n      add\n      swap2\n      pop\n      pop\n      mload(0x40)\n      dup1\n      swap2\n      sub\n      swap1\n      return\n        /* \"TimeAllySIP.sol\":24821:25892  function getDepositStatus(... */\n    tag_17:\n      tag_80\n      0x04\n      dup1\n      calldatasize\n      sub\n        /* \"--CODEGEN--\":13:15   */\n      0x60\n        /* \"--CODEGEN--\":8:11   */\n      dup2\n        /* \"--CODEGEN--\":5:16   */\n      lt\n        /* \"--CODEGEN--\":2:4   */\n      iszero\n      tag_81\n      jumpi\n        /* \"--CODEGEN--\":29:30   */\n      0x00\n        /* \"--CODEGEN--\":26:27   */\n      dup1\n        /* \"--CODEGEN--\":19:31   */\n      revert\n        /* \"--CODEGEN--\":2:4   */\n    tag_81:\n        /* \"TimeAllySIP.sol\":24821:25892  function getDepositStatus(... */\n      dup2\n      add\n      swap1\n      dup1\n      dup1\n      calldataload\n      0xffffffffffffffffffffffffffffffffffffffff\n      and\n      swap1\n      0x20\n      add\n      swap1\n      swap3\n      swap2\n      swap1\n      dup1\n      calldataload\n      swap1\n      0x20\n      add\n      swap1\n      swap3\n      swap2\n      swap1\n      dup1\n      calldataload\n      swap1\n      0x20\n      add\n      swap1\n      swap3\n      swap2\n      swap1\n      pop\n      pop\n      pop\n      tag_82\n      jump\t// in\n    tag_80:\n      mload(0x40)\n      dup1\n      dup3\n      dup2\n      mstore\n      0x20\n      add\n      swap2\n      pop\n      pop\n      mload(0x40)\n      dup1\n      swap2\n      sub\n      swap1\n      return\n        /* \"TimeAllySIP.sol\":26346:28304  function getPendingWithdrawlAmount(... */\n    tag_18:\n      tag_83\n      0x04\n      dup1\n      calldatasize\n      sub\n        /* \"--CODEGEN--\":13:16   */\n      0x80\n        /* \"--CODEGEN--\":8:11   */\n      dup2\n        /* \"--CODEGEN--\":5:17   */\n      lt\n        /* \"--CODEGEN--\":2:4   */\n      iszero\n      tag_84\n      jumpi\n        /* \"--CODEGEN--\":30:31   */\n      0x00\n        /* \"--CODEGEN--\":27:28   */\n      dup1\n        /* \"--CODEGEN--\":20:32   */\n      revert\n        /* \"--CODEGEN--\":2:4   */\n    tag_84:\n        /* \"TimeAllySIP.sol\":26346:28304  function getPendingWithdrawlAmount(... */\n      dup2\n      add\n      swap1\n      dup1\n      dup1\n      calldataload\n      0xffffffffffffffffffffffffffffffffffffffff\n      and\n      swap1\n      0x20\n      add\n      swap1\n      swap3\n      swap2\n      swap1\n      dup1\n      calldataload\n      swap1\n      0x20\n      add\n      swap1\n      swap3\n      swap2\n      swap1\n      dup1\n      calldataload\n      swap1\n      0x20\n      add\n      swap1\n      swap3\n      swap2\n      swap1\n      dup1\n      calldataload\n      iszero\n      iszero\n      swap1\n      0x20\n      add\n      swap1\n      swap3\n      swap2\n      swap1\n      pop\n      pop\n      pop\n      tag_85\n      jump\t// in\n    tag_83:\n      mload(0x40)\n      dup1\n      dup3\n      dup2\n      mstore\n      0x20\n      add\n      swap2\n      pop\n      pop\n      mload(0x40)\n      dup1\n      swap2\n      sub\n      swap1\n      return\n        /* \"TimeAllySIP.sol\":23277:23872  function appointeeVote(... */\n    tag_19:\n      tag_86\n      0x04\n      dup1\n      calldatasize\n      sub\n        /* \"--CODEGEN--\":13:15   */\n      0x40\n        /* \"--CODEGEN--\":8:11   */\n      dup2\n        /* \"--CODEGEN--\":5:16   */\n      lt\n        /* \"--CODEGEN--\":2:4   */\n      iszero\n      tag_87\n      jumpi\n        /* \"--CODEGEN--\":29:30   */\n      0x00\n        /* \"--CODEGEN--\":26:27   */\n      dup1\n        /* \"--CODEGEN--\":19:31   */\n      revert\n        /* \"--CODEGEN--\":2:4   */\n    tag_87:\n        /* \"TimeAllySIP.sol\":23277:23872  function appointeeVote(... */\n      dup2\n      add\n      swap1\n      dup1\n      dup1\n      calldataload\n      0xffffffffffffffffffffffffffffffffffffffff\n      and\n      swap1\n      0x20\n      add\n      swap1\n      swap3\n      swap2\n      swap1\n      dup1\n      calldataload\n      swap1\n      0x20\n      add\n      swap1\n      swap3\n      swap2\n      swap1\n      pop\n      pop\n      pop\n      tag_88\n      jump\t// in\n    tag_86:\n      stop\n        /* \"TimeAllySIP.sol\":10661:13370  function newSIP(... */\n    tag_20:\n      tag_89\n      0x04\n      dup1\n      calldatasize\n      sub\n        /* \"--CODEGEN--\":13:15   */\n      0x60\n        /* \"--CODEGEN--\":8:11   */\n      dup2\n        /* \"--CODEGEN--\":5:16   */\n      lt\n        /* \"--CODEGEN--\":2:4   */\n      iszero\n      tag_90\n      jumpi\n        /* \"--CODEGEN--\":29:30   */\n      0x00\n        /* \"--CODEGEN--\":26:27   */\n      dup1\n        /* \"--CODEGEN--\":19:31   */\n      revert\n        /* \"--CODEGEN--\":2:4   */\n    tag_90:\n        /* \"TimeAllySIP.sol\":10661:13370  function newSIP(... */\n      dup2\n      add\n      swap1\n      dup1\n      dup1\n      calldataload\n      swap1\n      0x20\n      add\n      swap1\n      swap3\n      swap2\n      swap1\n      dup1\n      calldataload\n      swap1\n      0x20\n      add\n      swap1\n      swap3\n      swap2\n      swap1\n      dup1\n      calldataload\n      iszero\n      iszero\n      swap1\n      0x20\n      add\n      swap1\n      swap3\n      swap2\n      swap1\n      pop\n      pop\n      pop\n      tag_91\n      jump\t// in\n    tag_89:\n      stop\n        /* \"TimeAllySIP.sol\":28308:28537  function viewMonthlyBenefitAmount(... */\n    tag_21:\n      tag_92\n      0x04\n      dup1\n      calldatasize\n      sub\n        /* \"--CODEGEN--\":13:15   */\n      0x60\n        /* \"--CODEGEN--\":8:11   */\n      dup2\n        /* \"--CODEGEN--\":5:16   */\n      lt\n        /* \"--CODEGEN--\":2:4   */\n      iszero\n      tag_93\n      jumpi\n        /* \"--CODEGEN--\":29:30   */\n      0x00\n        /* \"--CODEGEN--\":26:27   */\n      dup1\n        /* \"--CODEGEN--\":19:31   */\n      revert\n        /* \"--CODEGEN--\":2:4   */\n    tag_93:\n        /* \"TimeAllySIP.sol\":28308:28537  function viewMonthlyBenefitAmount(... */\n      dup2\n      add\n      swap1\n      dup1\n      dup1\n      calldataload\n      0xffffffffffffffffffffffffffffffffffffffff\n      and\n      swap1\n      0x20\n      add\n      swap1\n      swap3\n      swap2\n      swap1\n      dup1\n      calldataload\n      swap1\n      0x20\n      add\n      swap1\n      swap3\n      swap2\n      swap1\n      dup1\n      calldataload\n      swap1\n      0x20\n      add\n      swap1\n      swap3\n      swap2\n      swap1\n      pop\n      pop\n      pop\n      tag_94\n      jump\t// in\n    tag_92:\n      mload(0x40)\n      dup1\n      dup3\n      dup2\n      mstore\n      0x20\n      add\n      swap2\n      pop\n      pop\n      mload(0x40)\n      dup1\n      swap2\n      sub\n      swap1\n      return\n        /* \"TimeAllySIP.sol\":22180:23010  function toogleAppointee(... */\n    tag_22:\n      tag_95\n      0x04\n      dup1\n      calldatasize\n      sub\n        /* \"--CODEGEN--\":13:15   */\n      0x60\n        /* \"--CODEGEN--\":8:11   */\n      dup2\n        /* \"--CODEGEN--\":5:16   */\n      lt\n        /* \"--CODEGEN--\":2:4   */\n      iszero\n      tag_96\n      jumpi\n        /* \"--CODEGEN--\":29:30   */\n      0x00\n        /* \"--CODEGEN--\":26:27   */\n      dup1\n        /* \"--CODEGEN--\":19:31   */\n      revert\n        /* \"--CODEGEN--\":2:4   */\n    tag_96:\n        /* \"TimeAllySIP.sol\":22180:23010  function toogleAppointee(... */\n      dup2\n      add\n      swap1\n      dup1\n      dup1\n      calldataload\n      swap1\n      0x20\n      add\n      swap1\n      swap3\n      swap2\n      swap1\n      dup1\n      calldataload\n      0xffffffffffffffffffffffffffffffffffffffff\n      and\n      swap1\n      0x20\n      add\n      swap1\n      swap3\n      swap2\n      swap1\n      dup1\n      calldataload\n      iszero\n      iszero\n      swap1\n      0x20\n      add\n      swap1\n      swap3\n      swap2\n      swap1\n      pop\n      pop\n      pop\n      tag_97\n      jump\t// in\n    tag_95:\n      stop\n        /* \"TimeAllySIP.sol\":8222:8663  function addFunds(uint256 _depositAmount) public {... */\n    tag_23:\n      tag_98\n      0x04\n      dup1\n      calldatasize\n      sub\n        /* \"--CODEGEN--\":13:15   */\n      0x20\n        /* \"--CODEGEN--\":8:11   */\n      dup2\n        /* \"--CODEGEN--\":5:16   */\n      lt\n        /* \"--CODEGEN--\":2:4   */\n      iszero\n      tag_99\n      jumpi\n        /* \"--CODEGEN--\":29:30   */\n      0x00\n        /* \"--CODEGEN--\":26:27   */\n      dup1\n        /* \"--CODEGEN--\":19:31   */\n      revert\n        /* \"--CODEGEN--\":2:4   */\n    tag_99:\n        /* \"TimeAllySIP.sol\":8222:8663  function addFunds(uint256 _depositAmount) public {... */\n      dup2\n      add\n      swap1\n      dup1\n      dup1\n      calldataload\n      swap1\n      0x20\n      add\n      swap1\n      swap3\n      swap2\n      swap1\n      pop\n      pop\n      pop\n      tag_100\n      jump\t// in\n    tag_98:\n      stop\n        /* \"TimeAllySIP.sol\":13943:16209  function monthlyDeposit(... */\n    tag_24:\n      tag_101\n      0x04\n      dup1\n      calldatasize\n      sub\n        /* \"--CODEGEN--\":13:16   */\n      0xa0\n        /* \"--CODEGEN--\":8:11   */\n      dup2\n        /* \"--CODEGEN--\":5:17   */\n      lt\n        /* \"--CODEGEN--\":2:4   */\n      iszero\n      tag_102\n      jumpi\n        /* \"--CODEGEN--\":30:31   */\n      0x00\n        /* \"--CODEGEN--\":27:28   */\n      dup1\n        /* \"--CODEGEN--\":20:32   */\n      revert\n        /* \"--CODEGEN--\":2:4   */\n    tag_102:\n        /* \"TimeAllySIP.sol\":13943:16209  function monthlyDeposit(... */\n      dup2\n      add\n      swap1\n      dup1\n      dup1\n      calldataload\n      0xffffffffffffffffffffffffffffffffffffffff\n      and\n      swap1\n      0x20\n      add\n      swap1\n      swap3\n      swap2\n      swap1\n      dup1\n      calldataload\n      swap1\n      0x20\n      add\n      swap1\n      swap3\n      swap2\n      swap1\n      dup1\n      calldataload\n      swap1\n      0x20\n      add\n      swap1\n      swap3\n      swap2\n      swap1\n      dup1\n      calldataload\n      swap1\n      0x20\n      add\n      swap1\n      swap3\n      swap2\n      swap1\n      dup1\n      calldataload\n      iszero\n      iszero\n      swap1\n      0x20\n      add\n      swap1\n      swap3\n      swap2\n      swap1\n      pop\n      pop\n      pop\n      tag_103\n      jump\t// in\n    tag_101:\n      stop\n        /* \"TimeAllySIP.sol\":3531:3556  SIPPlan[] public sipPlans */\n    tag_25:\n      tag_104\n      0x04\n      dup1\n      calldatasize\n      sub\n        /* \"--CODEGEN--\":13:15   */\n      0x20\n        /* \"--CODEGEN--\":8:11   */\n      dup2\n        /* \"--CODEGEN--\":5:16   */\n      lt\n        /* \"--CODEGEN--\":2:4   */\n      iszero\n      tag_105\n      jumpi\n        /* \"--CODEGEN--\":29:30   */\n      0x00\n        /* \"--CODEGEN--\":26:27   */\n      dup1\n        /* \"--CODEGEN--\":19:31   */\n      revert\n        /* \"--CODEGEN--\":2:4   */\n    tag_105:\n        /* \"TimeAllySIP.sol\":3531:3556  SIPPlan[] public sipPlans */\n      dup2\n      add\n      swap1\n      dup1\n      dup1\n      calldataload\n      swap1\n      0x20\n      add\n      swap1\n      swap3\n      swap2\n      swap1\n      pop\n      pop\n      pop\n      tag_106\n      jump\t// in\n    tag_104:\n      mload(0x40)\n      dup1\n      dup10\n      iszero\n      iszero\n      iszero\n      iszero\n      dup2\n      mstore\n      0x20\n      add\n      dup9\n      dup2\n      mstore\n      0x20\n      add\n      dup8\n      dup2\n      mstore\n      0x20\n      add\n      dup7\n      dup2\n      mstore\n      0x20\n      add\n      dup6\n      dup2\n      mstore\n      0x20\n      add\n      dup5\n      dup2\n      mstore\n      0x20\n      add\n      dup4\n      dup2\n      mstore\n      0x20\n      add\n      dup3\n      dup2\n      mstore\n      0x20\n      add\n      swap9\n      pop\n      pop\n      pop\n      pop\n      pop\n      pop\n      pop\n      pop\n      pop\n      mload(0x40)\n      dup1\n      swap2\n      sub\n      swap1\n      return\n        /* \"TimeAllySIP.sol\":24220:24424  function getDepositDoneStatus(... */\n    tag_26:\n      tag_107\n      0x04\n      dup1\n      calldatasize\n      sub\n        /* \"--CODEGEN--\":13:15   */\n      0x60\n        /* \"--CODEGEN--\":8:11   */\n      dup2\n        /* \"--CODEGEN--\":5:16   */\n      lt\n        /* \"--CODEGEN--\":2:4   */\n      iszero\n      tag_108\n      jumpi\n        /* \"--CODEGEN--\":29:30   */\n      0x00\n        /* \"--CODEGEN--\":26:27   */\n      dup1\n        /* \"--CODEGEN--\":19:31   */\n      revert\n        /* \"--CODEGEN--\":2:4   */\n    tag_108:\n        /* \"TimeAllySIP.sol\":24220:24424  function getDepositDoneStatus(... */\n      dup2\n      add\n      swap1\n      dup1\n      dup1\n      calldataload\n      0xffffffffffffffffffffffffffffffffffffffff\n      and\n      swap1\n      0x20\n      add\n      swap1\n      swap3\n      swap2\n      swap1\n      dup1\n      calldataload\n      swap1\n      0x20\n      add\n      swap1\n      swap3\n      swap2\n      swap1\n      dup1\n      calldataload\n      swap1\n      0x20\n      add\n      swap1\n      swap3\n      swap2\n      swap1\n      pop\n      pop\n      pop\n      tag_109\n      jump\t// in\n    tag_107:\n      mload(0x40)\n      dup1\n      dup3\n      dup2\n      mstore\n      0x20\n      add\n      swap2\n      pop\n      pop\n      mload(0x40)\n      dup1\n      swap2\n      sub\n      swap1\n      return\n        /* \"TimeAllySIP.sol\":3630:3667  mapping(address => SIP[]) public sips */\n    tag_27:\n      tag_110\n      0x04\n      dup1\n      calldatasize\n      sub\n        /* \"--CODEGEN--\":13:15   */\n      0x40\n        /* \"--CODEGEN--\":8:11   */\n      dup2\n        /* \"--CODEGEN--\":5:16   */\n      lt\n        /* \"--CODEGEN--\":2:4   */\n      iszero\n      tag_111\n      jumpi\n        /* \"--CODEGEN--\":29:30   */\n      0x00\n        /* \"--CODEGEN--\":26:27   */\n      dup1\n        /* \"--CODEGEN--\":19:31   */\n      revert\n        /* \"--CODEGEN--\":2:4   */\n    tag_111:\n        /* \"TimeAllySIP.sol\":3630:3667  mapping(address => SIP[]) public sips */\n      dup2\n      add\n      swap1\n      dup1\n      dup1\n      calldataload\n      0xffffffffffffffffffffffffffffffffffffffff\n      and\n      swap1\n      0x20\n      add\n      swap1\n      swap3\n      swap2\n      swap1\n      dup1\n      calldataload\n      swap1\n      0x20\n      add\n      swap1\n      swap3\n      swap2\n      swap1\n      pop\n      pop\n      pop\n      tag_112\n      jump\t// in\n    tag_110:\n      mload(0x40)\n      dup1\n      dup10\n      dup2\n      mstore\n      0x20\n      add\n      dup9\n      dup2\n      mstore\n      0x20\n      add\n      dup8\n      dup2\n      mstore\n      0x20\n      add\n      dup7\n      dup2\n      mstore\n      0x20\n      add\n      dup6\n      dup2\n      mstore\n      0x20\n      add\n      dup5\n      dup2\n      mstore\n      0x20\n      add\n      dup4\n      dup2\n      mstore\n      0x20\n      add\n      dup3\n      dup2\n      mstore\n      0x20\n      add\n      swap9\n      pop\n      pop\n      pop\n      pop\n      pop\n      pop\n      pop\n      pop\n      pop\n      mload(0x40)\n      dup1\n      swap2\n      sub\n      swap1\n      return\n        /* \"TimeAllySIP.sol\":3766:3810  mapping(address => uint256) public prepaidES */\n    tag_28:\n      tag_113\n      0x04\n      dup1\n      calldatasize\n      sub\n        /* \"--CODEGEN--\":13:15   */\n      0x20\n        /* \"--CODEGEN--\":8:11   */\n      dup2\n        /* \"--CODEGEN--\":5:16   */\n      lt\n        /* \"--CODEGEN--\":2:4   */\n      iszero\n      tag_114\n      jumpi\n        /* \"--CODEGEN--\":29:30   */\n      0x00\n        /* \"--CODEGEN--\":26:27   */\n      dup1\n        /* \"--CODEGEN--\":19:31   */\n      revert\n        /* \"--CODEGEN--\":2:4   */\n    tag_114:\n        /* \"TimeAllySIP.sol\":3766:3810  mapping(address => uint256) public prepaidES */\n      dup2\n      add\n      swap1\n      dup1\n      dup1\n      calldataload\n      0xffffffffffffffffffffffffffffffffffffffff\n      and\n      swap1\n      0x20\n      add\n      swap1\n      swap3\n      swap2\n      swap1\n      pop\n      pop\n      pop\n      tag_115\n      jump\t// in\n    tag_113:\n      mload(0x40)\n      dup1\n      dup3\n      dup2\n      mstore\n      0x20\n      add\n      swap2\n      pop\n      pop\n      mload(0x40)\n      dup1\n      swap2\n      sub\n      swap1\n      return\n        /* \"TimeAllySIP.sol\":2785:2803  ERC20 public token */\n    tag_29:\n      tag_116\n      tag_117\n      jump\t// in\n    tag_116:\n      mload(0x40)\n      dup1\n      dup3\n      0xffffffffffffffffffffffffffffffffffffffff\n      and\n      0xffffffffffffffffffffffffffffffffffffffff\n      and\n      dup2\n      mstore\n      0x20\n      add\n      swap2\n      pop\n      pop\n      mload(0x40)\n      dup1\n      swap2\n      sub\n      swap1\n      return\n        /* \"TimeAllySIP.sol\":16536:17819  function withdrawBenefit(... */\n    tag_38:\n        /* \"TimeAllySIP.sol\":16663:16677  _stakerAddress */\n      dup3\n        /* \"TimeAllySIP.sol\":16679:16685  _sipId */\n      dup3\n        /* \"TimeAllySIP.sol\":6006:6022  SIP storage _sip */\n      0x00\n        /* \"TimeAllySIP.sol\":6025:6029  sips */\n      0x06\n        /* \"TimeAllySIP.sol\":6025:6045  sips[_stakerAddress] */\n      0x00\n        /* \"TimeAllySIP.sol\":6030:6044  _stakerAddress */\n      dup5\n        /* \"TimeAllySIP.sol\":6025:6045  sips[_stakerAddress] */\n      0xffffffffffffffffffffffffffffffffffffffff\n      and\n      0xffffffffffffffffffffffffffffffffffffffff\n      and\n      dup2\n      mstore\n      0x20\n      add\n      swap1\n      dup2\n      mstore\n      0x20\n      add\n      0x00\n      keccak256\n        /* \"TimeAllySIP.sol\":6046:6052  _sipId */\n      dup3\n        /* \"TimeAllySIP.sol\":6025:6053  sips[_stakerAddress][_sipId] */\n      dup2\n      sload\n      dup2\n      lt\n      tag_119\n      jumpi\n      invalid\n    tag_119:\n      swap1\n      0x00\n      mstore\n      keccak256(0x00, 0x20)\n      swap1\n      0x0c\n      mul\n      add\n        /* \"TimeAllySIP.sol\":6006:6053  SIP storage _sip = sips[_stakerAddress][_sipId] */\n      swap1\n      pop\n        /* \"TimeAllySIP.sol\":6156:6170  _stakerAddress */\n      dup3\n        /* \"TimeAllySIP.sol\":6142:6170  msg.sender != _stakerAddress */\n      0xffffffffffffffffffffffffffffffffffffffff\n      and\n        /* \"TimeAllySIP.sol\":6142:6152  msg.sender */\n      caller\n        /* \"TimeAllySIP.sol\":6142:6170  msg.sender != _stakerAddress */\n      0xffffffffffffffffffffffffffffffffffffffff\n      and\n      eq\n        /* \"TimeAllySIP.sol\":6139:6251  if(msg.sender != _stakerAddress) {... */\n      tag_121\n      jumpi\n        /* \"TimeAllySIP.sol\":6188:6192  _sip */\n      dup1\n        /* \"TimeAllySIP.sol\":6188:6201  _sip.nominees */\n      0x0a\n      add\n        /* \"TimeAllySIP.sol\":6188:6213  _sip.nominees[msg.sender] */\n      0x00\n        /* \"TimeAllySIP.sol\":6202:6212  msg.sender */\n      caller\n        /* \"TimeAllySIP.sol\":6188:6213  _sip.nominees[msg.sender] */\n      0xffffffffffffffffffffffffffffffffffffffff\n      and\n      0xffffffffffffffffffffffffffffffffffffffff\n      and\n      dup2\n      mstore\n      0x20\n      add\n      swap1\n      dup2\n      mstore\n      0x20\n      add\n      0x00\n      keccak256\n      0x00\n      swap1\n      sload\n      swap1\n      0x0100\n      exp\n      swap1\n      div\n      0xff\n      and\n        /* \"TimeAllySIP.sol\":6180:6244  require(_sip.nominees[msg.sender], 'nomination should be there') */\n      tag_122\n      jumpi\n      mload(0x40)\n      0x08c379a000000000000000000000000000000000000000000000000000000000\n      dup2\n      mstore\n      0x04\n      add\n      dup1\n      dup1\n      0x20\n      add\n      dup3\n      dup2\n      sub\n      dup3\n      mstore\n      0x1a\n      dup2\n      mstore\n      0x20\n      add\n      dup1\n      0x6e6f6d696e6174696f6e2073686f756c64206265207468657265000000000000\n      dup2\n      mstore\n      pop\n      0x20\n      add\n      swap2\n      pop\n      pop\n      mload(0x40)\n      dup1\n      swap2\n      sub\n      swap1\n      revert\n    tag_122:\n        /* \"TimeAllySIP.sol\":6139:6251  if(msg.sender != _stakerAddress) {... */\n    tag_121:\n        /* \"TimeAllySIP.sol\":16776:16800  uint256 _withdrawlAmount */\n      0x00\n        /* \"TimeAllySIP.sol\":16803:16962  getPendingWithdrawlAmount(... */\n      tag_124\n        /* \"TimeAllySIP.sol\":16836:16850  _stakerAddress */\n      dup8\n        /* \"TimeAllySIP.sol\":16858:16864  _sipId */\n      dup8\n        /* \"TimeAllySIP.sol\":16872:16889  _withdrawlMonthId */\n      dup8\n        /* \"TimeAllySIP.sol\":16911:16925  _stakerAddress */\n      dup11\n        /* \"TimeAllySIP.sol\":16897:16925  msg.sender != _stakerAddress */\n      0xffffffffffffffffffffffffffffffffffffffff\n      and\n        /* \"TimeAllySIP.sol\":16897:16907  msg.sender */\n      caller\n        /* \"TimeAllySIP.sol\":16897:16925  msg.sender != _stakerAddress */\n      0xffffffffffffffffffffffffffffffffffffffff\n      and\n      eq\n      iszero\n        /* \"TimeAllySIP.sol\":16803:16828  getPendingWithdrawlAmount */\n      tag_85\n        /* \"TimeAllySIP.sol\":16803:16962  getPendingWithdrawlAmount(... */\n      jump\t// in\n    tag_124:\n        /* \"TimeAllySIP.sol\":16776:16962  uint256 _withdrawlAmount = getPendingWithdrawlAmount(... */\n      swap1\n      pop\n        /* \"TimeAllySIP.sol\":16969:16985  SIP storage _sip */\n      0x00\n        /* \"TimeAllySIP.sol\":16988:16992  sips */\n      0x06\n        /* \"TimeAllySIP.sol\":16988:17008  sips[_stakerAddress] */\n      0x00\n        /* \"TimeAllySIP.sol\":16993:17007  _stakerAddress */\n      dup10\n        /* \"TimeAllySIP.sol\":16988:17008  sips[_stakerAddress] */\n      0xffffffffffffffffffffffffffffffffffffffff\n      and\n      0xffffffffffffffffffffffffffffffffffffffff\n      and\n      dup2\n      mstore\n      0x20\n      add\n      swap1\n      dup2\n      mstore\n      0x20\n      add\n      0x00\n      keccak256\n        /* \"TimeAllySIP.sol\":17009:17015  _sipId */\n      dup8\n        /* \"TimeAllySIP.sol\":16988:17016  sips[_stakerAddress][_sipId] */\n      dup2\n      sload\n      dup2\n      lt\n      tag_125\n      jumpi\n      invalid\n    tag_125:\n      swap1\n      0x00\n      mstore\n      keccak256(0x00, 0x20)\n      swap1\n      0x0c\n      mul\n      add\n        /* \"TimeAllySIP.sol\":16969:17016  SIP storage _sip = sips[_stakerAddress][_sipId] */\n      swap1\n      pop\n        /* \"TimeAllySIP.sol\":17100:17129  uint256 _lastWithdrawlMonthId */\n      0x00\n        /* \"TimeAllySIP.sol\":17132:17136  _sip */\n      dup2\n        /* \"TimeAllySIP.sol\":17132:17157  _sip.lastWithdrawlMonthId */\n      0x04\n      add\n      sload\n        /* \"TimeAllySIP.sol\":17100:17157  uint256 _lastWithdrawlMonthId = _sip.lastWithdrawlMonthId */\n      swap1\n      pop\n        /* \"TimeAllySIP.sol\":17191:17208  _withdrawlMonthId */\n      dup7\n        /* \"TimeAllySIP.sol\":17163:17167  _sip */\n      dup3\n        /* \"TimeAllySIP.sol\":17163:17188  _sip.lastWithdrawlMonthId */\n      0x04\n      add\n        /* \"TimeAllySIP.sol\":17163:17208  _sip.lastWithdrawlMonthId = _withdrawlMonthId */\n      dup2\n      swap1\n      sstore\n      pop\n        /* \"TimeAllySIP.sol\":17292:17346  pendingBenefitAmountOfAllStakers.sub(_withdrawlAmount) */\n      tag_127\n        /* \"TimeAllySIP.sol\":17329:17345  _withdrawlAmount */\n      dup4\n        /* \"TimeAllySIP.sol\":17292:17324  pendingBenefitAmountOfAllStakers */\n      sload(0x03)\n        /* \"TimeAllySIP.sol\":17292:17328  pendingBenefitAmountOfAllStakers.sub */\n      tag_128\n      swap1\n        /* \"TimeAllySIP.sol\":17292:17346  pendingBenefitAmountOfAllStakers.sub(_withdrawlAmount) */\n      swap2\n      swap1\n      0xffffffff\n      and\n      jump\t// in\n    tag_127:\n        /* \"TimeAllySIP.sol\":17257:17289  pendingBenefitAmountOfAllStakers */\n      0x03\n        /* \"TimeAllySIP.sol\":17257:17346  pendingBenefitAmountOfAllStakers = pendingBenefitAmountOfAllStakers.sub(_withdrawlAmount) */\n      dup2\n      swap1\n      sstore\n      pop\n        /* \"TimeAllySIP.sol\":17406:17440  fundsDeposit.sub(_withdrawlAmount) */\n      tag_129\n        /* \"TimeAllySIP.sol\":17423:17439  _withdrawlAmount */\n      dup4\n        /* \"TimeAllySIP.sol\":17406:17418  fundsDeposit */\n      sload(0x04)\n        /* \"TimeAllySIP.sol\":17406:17422  fundsDeposit.sub */\n      tag_128\n      swap1\n        /* \"TimeAllySIP.sol\":17406:17440  fundsDeposit.sub(_withdrawlAmount) */\n      swap2\n      swap1\n      0xffffffff\n      and\n      jump\t// in\n    tag_129:\n        /* \"TimeAllySIP.sol\":17391:17403  fundsDeposit */\n      0x04\n        /* \"TimeAllySIP.sol\":17391:17440  fundsDeposit = fundsDeposit.sub(_withdrawlAmount) */\n      dup2\n      swap1\n      sstore\n      pop\n        /* \"TimeAllySIP.sol\":17531:17532  0 */\n      0x00\n        /* \"TimeAllySIP.sol\":17512:17528  _withdrawlAmount */\n      dup4\n        /* \"TimeAllySIP.sol\":17512:17532  _withdrawlAmount > 0 */\n      gt\n        /* \"TimeAllySIP.sol\":17509:17593  if(_withdrawlAmount > 0) {... */\n      iszero\n      tag_130\n      jumpi\n        /* \"TimeAllySIP.sol\":17542:17547  token */\n      0x01\n      0x00\n      swap1\n      sload\n      swap1\n      0x0100\n      exp\n      swap1\n      div\n      0xffffffffffffffffffffffffffffffffffffffff\n      and\n        /* \"TimeAllySIP.sol\":17542:17556  token.transfer */\n      0xffffffffffffffffffffffffffffffffffffffff\n      and\n      0xa9059cbb\n        /* \"TimeAllySIP.sol\":17557:17567  msg.sender */\n      caller\n        /* \"TimeAllySIP.sol\":17569:17585  _withdrawlAmount */\n      dup6\n        /* \"TimeAllySIP.sol\":17542:17586  token.transfer(msg.sender, _withdrawlAmount) */\n      mload(0x40)\n      dup4\n      0xffffffff\n      and\n      0xe0\n      shl\n      dup2\n      mstore\n      0x04\n      add\n      dup1\n      dup4\n      0xffffffffffffffffffffffffffffffffffffffff\n      and\n      0xffffffffffffffffffffffffffffffffffffffff\n      and\n      dup2\n      mstore\n      0x20\n      add\n      dup3\n      dup2\n      mstore\n      0x20\n      add\n      swap3\n      pop\n      pop\n      pop\n      0x20\n      mload(0x40)\n      dup1\n      dup4\n      sub\n      dup2\n      0x00\n      dup8\n      dup1\n      extcodesize\n      iszero\n        /* \"--CODEGEN--\":8:17   */\n      dup1\n        /* \"--CODEGEN--\":5:7   */\n      iszero\n      tag_131\n      jumpi\n        /* \"--CODEGEN--\":30:31   */\n      0x00\n        /* \"--CODEGEN--\":27:28   */\n      dup1\n        /* \"--CODEGEN--\":20:32   */\n      revert\n        /* \"--CODEGEN--\":5:7   */\n    tag_131:\n        /* \"TimeAllySIP.sol\":17542:17586  token.transfer(msg.sender, _withdrawlAmount) */\n      pop\n      gas\n      call\n      iszero\n        /* \"--CODEGEN--\":8:17   */\n      dup1\n        /* \"--CODEGEN--\":5:7   */\n      iszero\n      tag_132\n      jumpi\n        /* \"--CODEGEN--\":45:61   */\n      returndatasize\n        /* \"--CODEGEN--\":42:43   */\n      0x00\n        /* \"--CODEGEN--\":39:40   */\n      dup1\n        /* \"--CODEGEN--\":24:62   */\n      returndatacopy\n        /* \"--CODEGEN--\":77:93   */\n      returndatasize\n        /* \"--CODEGEN--\":74:75   */\n      0x00\n        /* \"--CODEGEN--\":67:94   */\n      revert\n        /* \"--CODEGEN--\":5:7   */\n    tag_132:\n        /* \"TimeAllySIP.sol\":17542:17586  token.transfer(msg.sender, _withdrawlAmount) */\n      pop\n      pop\n      pop\n      pop\n      mload(0x40)\n      returndatasize\n        /* \"--CODEGEN--\":13:15   */\n      0x20\n        /* \"--CODEGEN--\":8:11   */\n      dup2\n        /* \"--CODEGEN--\":5:16   */\n      lt\n        /* \"--CODEGEN--\":2:4   */\n      iszero\n      tag_133\n      jumpi\n        /* \"--CODEGEN--\":29:30   */\n      0x00\n        /* \"--CODEGEN--\":26:27   */\n      dup1\n        /* \"--CODEGEN--\":19:31   */\n      revert\n        /* \"--CODEGEN--\":2:4   */\n    tag_133:\n        /* \"TimeAllySIP.sol\":17542:17586  token.transfer(msg.sender, _withdrawlAmount) */\n      dup2\n      add\n      swap1\n      dup1\n      dup1\n      mload\n      swap1\n      0x20\n      add\n      swap1\n      swap3\n      swap2\n      swap1\n      pop\n      pop\n      pop\n      pop\n        /* \"TimeAllySIP.sol\":17509:17593  if(_withdrawlAmount > 0) {... */\n    tag_130:\n        /* \"TimeAllySIP.sol\":17702:17708  _sipId */\n      dup8\n        /* \"TimeAllySIP.sol\":17680:17694  _stakerAddress */\n      dup10\n        /* \"TimeAllySIP.sol\":17656:17814  BenefitWithdrawl(... */\n      0xffffffffffffffffffffffffffffffffffffffff\n      and\n      0x8f4915db3c6bafb045a8ca029a06c4d1638daddb07e111ed35abf34f81b6a855\n        /* \"TimeAllySIP.sol\":17740:17741  1 */\n      0x01\n        /* \"TimeAllySIP.sol\":17716:17737  _lastWithdrawlMonthId */\n      dup5\n        /* \"TimeAllySIP.sol\":17716:17741  _lastWithdrawlMonthId + 1 */\n      add\n        /* \"TimeAllySIP.sol\":17749:17766  _withdrawlMonthId */\n      dup11\n        /* \"TimeAllySIP.sol\":17774:17790  _withdrawlAmount */\n      dup8\n        /* \"TimeAllySIP.sol\":17798:17808  msg.sender */\n      caller\n        /* \"TimeAllySIP.sol\":17656:17814  BenefitWithdrawl(... */\n      mload(0x40)\n      dup1\n      dup6\n      dup2\n      mstore\n      0x20\n      add\n      dup5\n      dup2\n      mstore\n      0x20\n      add\n      dup4\n      dup2\n      mstore\n      0x20\n      add\n      dup3\n      0xffffffffffffffffffffffffffffffffffffffff\n      and\n      0xffffffffffffffffffffffffffffffffffffffff\n      and\n      dup2\n      mstore\n      0x20\n      add\n      swap5\n      pop\n      pop\n      pop\n      pop\n      pop\n      mload(0x40)\n      dup1\n      swap2\n      sub\n      swap1\n      log3\n        /* \"TimeAllySIP.sol\":6256:6257  _ */\n      pop\n      pop\n      pop\n        /* \"TimeAllySIP.sol\":16536:17819  function withdrawBenefit(... */\n      pop\n      pop\n      pop\n      pop\n      pop\n      pop\n      jump\t// out\n        /* \"TimeAllySIP.sol\":21503:21878  function toogleNominee(... */\n    tag_41:\n        /* \"TimeAllySIP.sol\":21714:21731  _newNomineeStatus */\n      dup1\n        /* \"TimeAllySIP.sol\":21661:21665  sips */\n      0x06\n        /* \"TimeAllySIP.sol\":21661:21677  sips[msg.sender] */\n      0x00\n        /* \"TimeAllySIP.sol\":21666:21676  msg.sender */\n      caller\n        /* \"TimeAllySIP.sol\":21661:21677  sips[msg.sender] */\n      0xffffffffffffffffffffffffffffffffffffffff\n      and\n      0xffffffffffffffffffffffffffffffffffffffff\n      and\n      dup2\n      mstore\n      0x20\n      add\n      swap1\n      dup2\n      mstore\n      0x20\n      add\n      0x00\n      keccak256\n        /* \"TimeAllySIP.sol\":21678:21684  _sipId */\n      dup5\n        /* \"TimeAllySIP.sol\":21661:21685  sips[msg.sender][_sipId] */\n      dup2\n      sload\n      dup2\n      lt\n      tag_135\n      jumpi\n      invalid\n    tag_135:\n      swap1\n      0x00\n      mstore\n      keccak256(0x00, 0x20)\n      swap1\n      0x0c\n      mul\n      add\n        /* \"TimeAllySIP.sol\":21661:21694  sips[msg.sender][_sipId].nominees */\n      0x0a\n      add\n        /* \"TimeAllySIP.sol\":21661:21711  sips[msg.sender][_sipId].nominees[_nomineeAddress] */\n      0x00\n        /* \"TimeAllySIP.sol\":21695:21710  _nomineeAddress */\n      dup5\n        /* \"TimeAllySIP.sol\":21661:21711  sips[msg.sender][_sipId].nominees[_nomineeAddress] */\n      0xffffffffffffffffffffffffffffffffffffffff\n      and\n      0xffffffffffffffffffffffffffffffffffffffff\n      and\n      dup2\n      mstore\n      0x20\n      add\n      swap1\n      dup2\n      mstore\n      0x20\n      add\n      0x00\n      keccak256\n      0x00\n        /* \"TimeAllySIP.sol\":21661:21731  sips[msg.sender][_sipId].nominees[_nomineeAddress] = _newNomineeStatus */\n      0x0100\n      exp\n      dup2\n      sload\n      dup2\n      0xff\n      mul\n      not\n      and\n      swap1\n      dup4\n      iszero\n      iszero\n      mul\n      or\n      swap1\n      sstore\n      pop\n        /* \"TimeAllySIP.sol\":21838:21853  _nomineeAddress */\n      dup2\n        /* \"TimeAllySIP.sol\":21803:21873  NomineeUpdated(msg.sender, _sipId, _nomineeAddress, _newNomineeStatus) */\n      0xffffffffffffffffffffffffffffffffffffffff\n      and\n        /* \"TimeAllySIP.sol\":21830:21836  _sipId */\n      dup4\n        /* \"TimeAllySIP.sol\":21818:21828  msg.sender */\n      caller\n        /* \"TimeAllySIP.sol\":21803:21873  NomineeUpdated(msg.sender, _sipId, _nomineeAddress, _newNomineeStatus) */\n      0xffffffffffffffffffffffffffffffffffffffff\n      and\n      0x90e4568f920d8bb093366a04150aa0d04957a471196f5e1cdfb0db3cb83cc5b0\n        /* \"TimeAllySIP.sol\":21855:21872  _newNomineeStatus */\n      dup5\n        /* \"TimeAllySIP.sol\":21803:21873  NomineeUpdated(msg.sender, _sipId, _nomineeAddress, _newNomineeStatus) */\n      mload(0x40)\n      dup1\n      dup3\n      iszero\n      iszero\n      iszero\n      iszero\n      dup2\n      mstore\n      0x20\n      add\n      swap2\n      pop\n      pop\n      mload(0x40)\n      dup1\n      swap2\n      sub\n      swap1\n      log4\n        /* \"TimeAllySIP.sol\":21503:21878  function toogleNominee(... */\n      pop\n      pop\n      pop\n      jump\t// out\n        /* \"TimeAllySIP.sol\":2871:2918  uint256 public EARTH_SECONDS_IN_MONTH = 2629744 */\n    tag_43:\n      sload(0x02)\n      dup2\n      jump\t// out\n        /* \"TimeAllySIP.sol\":3443:3470  uint256 public fundsDeposit */\n    tag_45:\n      sload(0x04)\n      dup2\n      jump\t// out\n        /* \"TimeAllySIP.sol\":8811:9371  function withdrawFunds(uint256 _withdrawlAmount) public onlyOwner {... */\n    tag_48:\n        /* \"TimeAllySIP.sol\":5811:5816  owner */\n      0x00\n      dup1\n      swap1\n      sload\n      swap1\n      0x0100\n      exp\n      swap1\n      div\n      0xffffffffffffffffffffffffffffffffffffffff\n      and\n        /* \"TimeAllySIP.sol\":5797:5816  msg.sender == owner */\n      0xffffffffffffffffffffffffffffffffffffffff\n      and\n        /* \"TimeAllySIP.sol\":5797:5807  msg.sender */\n      caller\n        /* \"TimeAllySIP.sol\":5797:5816  msg.sender == owner */\n      0xffffffffffffffffffffffffffffffffffffffff\n      and\n      eq\n        /* \"TimeAllySIP.sol\":5789:5843  require(msg.sender == owner, 'only deployer can call') */\n      tag_138\n      jumpi\n      mload(0x40)\n      0x08c379a000000000000000000000000000000000000000000000000000000000\n      dup2\n      mstore\n      0x04\n      add\n      dup1\n      dup1\n      0x20\n      add\n      dup3\n      dup2\n      sub\n      dup3\n      mstore\n      0x16\n      dup2\n      mstore\n      0x20\n      add\n      dup1\n      0x6f6e6c79206465706c6f7965722063616e2063616c6c00000000000000000000\n      dup2\n      mstore\n      pop\n      0x20\n      add\n      swap2\n      pop\n      pop\n      mload(0x40)\n      dup1\n      swap2\n      sub\n      swap1\n      revert\n    tag_138:\n        /* \"TimeAllySIP.sol\":9013:9029  _withdrawlAmount */\n      dup1\n        /* \"TimeAllySIP.sol\":8959:9009  fundsDeposit.sub(pendingBenefitAmountOfAllStakers) */\n      tag_140\n        /* \"TimeAllySIP.sol\":8976:9008  pendingBenefitAmountOfAllStakers */\n      sload(0x03)\n        /* \"TimeAllySIP.sol\":8959:8971  fundsDeposit */\n      sload(0x04)\n        /* \"TimeAllySIP.sol\":8959:8975  fundsDeposit.sub */\n      tag_128\n      swap1\n        /* \"TimeAllySIP.sol\":8959:9009  fundsDeposit.sub(pendingBenefitAmountOfAllStakers) */\n      swap2\n      swap1\n      0xffffffff\n      and\n      jump\t// in\n    tag_140:\n        /* \"TimeAllySIP.sol\":8959:9029  fundsDeposit.sub(pendingBenefitAmountOfAllStakers) >= _withdrawlAmount */\n      lt\n      iszero\n        /* \"TimeAllySIP.sol\":8944:9074  require(... */\n      tag_141\n      jumpi\n      mload(0x40)\n      0x08c379a000000000000000000000000000000000000000000000000000000000\n      dup2\n      mstore\n      0x04\n      add\n      dup1\n      dup1\n      0x20\n      add\n      dup3\n      dup2\n      sub\n      dup3\n      mstore\n      0x1c\n      dup2\n      mstore\n      0x20\n      add\n      dup1\n      0x63616e6e6f74207769746864726177206578636573732066756e647300000000\n      dup2\n      mstore\n      pop\n      0x20\n      add\n      swap2\n      pop\n      pop\n      mload(0x40)\n      dup1\n      swap2\n      sub\n      swap1\n      revert\n    tag_141:\n        /* \"TimeAllySIP.sol\":9145:9179  fundsDeposit.sub(_withdrawlAmount) */\n      tag_142\n        /* \"TimeAllySIP.sol\":9162:9178  _withdrawlAmount */\n      dup2\n        /* \"TimeAllySIP.sol\":9145:9157  fundsDeposit */\n      sload(0x04)\n        /* \"TimeAllySIP.sol\":9145:9161  fundsDeposit.sub */\n      tag_128\n      swap1\n        /* \"TimeAllySIP.sol\":9145:9179  fundsDeposit.sub(_withdrawlAmount) */\n      swap2\n      swap1\n      0xffffffff\n      and\n      jump\t// in\n    tag_142:\n        /* \"TimeAllySIP.sol\":9130:9142  fundsDeposit */\n      0x04\n        /* \"TimeAllySIP.sol\":9130:9179  fundsDeposit = fundsDeposit.sub(_withdrawlAmount) */\n      dup2\n      swap1\n      sstore\n      pop\n        /* \"TimeAllySIP.sol\":9232:9237  token */\n      0x01\n      0x00\n      swap1\n      sload\n      swap1\n      0x0100\n      exp\n      swap1\n      div\n      0xffffffffffffffffffffffffffffffffffffffff\n      and\n        /* \"TimeAllySIP.sol\":9232:9246  token.transfer */\n      0xffffffffffffffffffffffffffffffffffffffff\n      and\n      0xa9059cbb\n        /* \"TimeAllySIP.sol\":9247:9257  msg.sender */\n      caller\n        /* \"TimeAllySIP.sol\":9259:9275  _withdrawlAmount */\n      dup4\n        /* \"TimeAllySIP.sol\":9232:9276  token.transfer(msg.sender, _withdrawlAmount) */\n      mload(0x40)\n      dup4\n      0xffffffff\n      and\n      0xe0\n      shl\n      dup2\n      mstore\n      0x04\n      add\n      dup1\n      dup4\n      0xffffffffffffffffffffffffffffffffffffffff\n      and\n      0xffffffffffffffffffffffffffffffffffffffff\n      and\n      dup2\n      mstore\n      0x20\n      add\n      dup3\n      dup2\n      mstore\n      0x20\n      add\n      swap3\n      pop\n      pop\n      pop\n      0x20\n      mload(0x40)\n      dup1\n      dup4\n      sub\n      dup2\n      0x00\n      dup8\n      dup1\n      extcodesize\n      iszero\n        /* \"--CODEGEN--\":8:17   */\n      dup1\n        /* \"--CODEGEN--\":5:7   */\n      iszero\n      tag_143\n      jumpi\n        /* \"--CODEGEN--\":30:31   */\n      0x00\n        /* \"--CODEGEN--\":27:28   */\n      dup1\n        /* \"--CODEGEN--\":20:32   */\n      revert\n        /* \"--CODEGEN--\":5:7   */\n    tag_143:\n        /* \"TimeAllySIP.sol\":9232:9276  token.transfer(msg.sender, _withdrawlAmount) */\n      pop\n      gas\n      call\n      iszero\n        /* \"--CODEGEN--\":8:17   */\n      dup1\n        /* \"--CODEGEN--\":5:7   */\n      iszero\n      tag_144\n      jumpi\n        /* \"--CODEGEN--\":45:61   */\n      returndatasize\n        /* \"--CODEGEN--\":42:43   */\n      0x00\n        /* \"--CODEGEN--\":39:40   */\n      dup1\n        /* \"--CODEGEN--\":24:62   */\n      returndatacopy\n        /* \"--CODEGEN--\":77:93   */\n      returndatasize\n        /* \"--CODEGEN--\":74:75   */\n      0x00\n        /* \"--CODEGEN--\":67:94   */\n      revert\n        /* \"--CODEGEN--\":5:7   */\n    tag_144:\n        /* \"TimeAllySIP.sol\":9232:9276  token.transfer(msg.sender, _withdrawlAmount) */\n      pop\n      pop\n      pop\n      pop\n      mload(0x40)\n      returndatasize\n        /* \"--CODEGEN--\":13:15   */\n      0x20\n        /* \"--CODEGEN--\":8:11   */\n      dup2\n        /* \"--CODEGEN--\":5:16   */\n      lt\n        /* \"--CODEGEN--\":2:4   */\n      iszero\n      tag_145\n      jumpi\n        /* \"--CODEGEN--\":29:30   */\n      0x00\n        /* \"--CODEGEN--\":26:27   */\n      dup1\n        /* \"--CODEGEN--\":19:31   */\n      revert\n        /* \"--CODEGEN--\":2:4   */\n    tag_145:\n        /* \"TimeAllySIP.sol\":9232:9276  token.transfer(msg.sender, _withdrawlAmount) */\n      dup2\n      add\n      swap1\n      dup1\n      dup1\n      mload\n      swap1\n      0x20\n      add\n      swap1\n      swap3\n      swap2\n      swap1\n      pop\n      pop\n      pop\n      pop\n        /* \"TimeAllySIP.sol\":9334:9366  FundsWithdrawn(_withdrawlAmount) */\n      0x4a37b25aab49761ecf63117fe82b98d750917451133cf797507bc9fb5b96044a\n        /* \"TimeAllySIP.sol\":9349:9365  _withdrawlAmount */\n      dup2\n        /* \"TimeAllySIP.sol\":9334:9366  FundsWithdrawn(_withdrawlAmount) */\n      mload(0x40)\n      dup1\n      dup3\n      dup2\n      mstore\n      0x20\n      add\n      swap2\n      pop\n      pop\n      mload(0x40)\n      dup1\n      swap2\n      sub\n      swap1\n      log1\n        /* \"TimeAllySIP.sol\":8811:9371  function withdrawFunds(uint256 _withdrawlAmount) public onlyOwner {... */\n      pop\n      jump\t// out\n        /* \"TimeAllySIP.sol\":3115:3162  uint256 public pendingBenefitAmountOfAllStakers */\n    tag_50:\n      sload(0x03)\n      dup2\n      jump\t// out\n        /* \"TimeAllySIP.sol\":18066:21210  function withdrawPowerBooster(... */\n    tag_53:\n        /* \"TimeAllySIP.sol\":18167:18181  _stakerAddress */\n      dup2\n        /* \"TimeAllySIP.sol\":18183:18189  _sipId */\n      dup2\n        /* \"TimeAllySIP.sol\":6006:6022  SIP storage _sip */\n      0x00\n        /* \"TimeAllySIP.sol\":6025:6029  sips */\n      0x06\n        /* \"TimeAllySIP.sol\":6025:6045  sips[_stakerAddress] */\n      0x00\n        /* \"TimeAllySIP.sol\":6030:6044  _stakerAddress */\n      dup5\n        /* \"TimeAllySIP.sol\":6025:6045  sips[_stakerAddress] */\n      0xffffffffffffffffffffffffffffffffffffffff\n      and\n      0xffffffffffffffffffffffffffffffffffffffff\n      and\n      dup2\n      mstore\n      0x20\n      add\n      swap1\n      dup2\n      mstore\n      0x20\n      add\n      0x00\n      keccak256\n        /* \"TimeAllySIP.sol\":6046:6052  _sipId */\n      dup3\n        /* \"TimeAllySIP.sol\":6025:6053  sips[_stakerAddress][_sipId] */\n      dup2\n      sload\n      dup2\n      lt\n      tag_147\n      jumpi\n      invalid\n    tag_147:\n      swap1\n      0x00\n      mstore\n      keccak256(0x00, 0x20)\n      swap1\n      0x0c\n      mul\n      add\n        /* \"TimeAllySIP.sol\":6006:6053  SIP storage _sip = sips[_stakerAddress][_sipId] */\n      swap1\n      pop\n        /* \"TimeAllySIP.sol\":6156:6170  _stakerAddress */\n      dup3\n        /* \"TimeAllySIP.sol\":6142:6170  msg.sender != _stakerAddress */\n      0xffffffffffffffffffffffffffffffffffffffff\n      and\n        /* \"TimeAllySIP.sol\":6142:6152  msg.sender */\n      caller\n        /* \"TimeAllySIP.sol\":6142:6170  msg.sender != _stakerAddress */\n      0xffffffffffffffffffffffffffffffffffffffff\n      and\n      eq\n        /* \"TimeAllySIP.sol\":6139:6251  if(msg.sender != _stakerAddress) {... */\n      tag_149\n      jumpi\n        /* \"TimeAllySIP.sol\":6188:6192  _sip */\n      dup1\n        /* \"TimeAllySIP.sol\":6188:6201  _sip.nominees */\n      0x0a\n      add\n        /* \"TimeAllySIP.sol\":6188:6213  _sip.nominees[msg.sender] */\n      0x00\n        /* \"TimeAllySIP.sol\":6202:6212  msg.sender */\n      caller\n        /* \"TimeAllySIP.sol\":6188:6213  _sip.nominees[msg.sender] */\n      0xffffffffffffffffffffffffffffffffffffffff\n      and\n      0xffffffffffffffffffffffffffffffffffffffff\n      and\n      dup2\n      mstore\n      0x20\n      add\n      swap1\n      dup2\n      mstore\n      0x20\n      add\n      0x00\n      keccak256\n      0x00\n      swap1\n      sload\n      swap1\n      0x0100\n      exp\n      swap1\n      div\n      0xff\n      and\n        /* \"TimeAllySIP.sol\":6180:6244  require(_sip.nominees[msg.sender], 'nomination should be there') */\n      tag_150\n      jumpi\n      mload(0x40)\n      0x08c379a000000000000000000000000000000000000000000000000000000000\n      dup2\n      mstore\n      0x04\n      add\n      dup1\n      dup1\n      0x20\n      add\n      dup3\n      dup2\n      sub\n      dup3\n      mstore\n      0x1a\n      dup2\n      mstore\n      0x20\n      add\n      dup1\n      0x6e6f6d696e6174696f6e2073686f756c64206265207468657265000000000000\n      dup2\n      mstore\n      pop\n      0x20\n      add\n      swap2\n      pop\n      pop\n      mload(0x40)\n      dup1\n      swap2\n      sub\n      swap1\n      revert\n    tag_150:\n        /* \"TimeAllySIP.sol\":6139:6251  if(msg.sender != _stakerAddress) {... */\n    tag_149:\n        /* \"TimeAllySIP.sol\":18197:18213  SIP storage _sip */\n      0x00\n        /* \"TimeAllySIP.sol\":18216:18220  sips */\n      0x06\n        /* \"TimeAllySIP.sol\":18216:18236  sips[_stakerAddress] */\n      0x00\n        /* \"TimeAllySIP.sol\":18221:18235  _stakerAddress */\n      dup8\n        /* \"TimeAllySIP.sol\":18216:18236  sips[_stakerAddress] */\n      0xffffffffffffffffffffffffffffffffffffffff\n      and\n      0xffffffffffffffffffffffffffffffffffffffff\n      and\n      dup2\n      mstore\n      0x20\n      add\n      swap1\n      dup2\n      mstore\n      0x20\n      add\n      0x00\n      keccak256\n        /* \"TimeAllySIP.sol\":18237:18243  _sipId */\n      dup6\n        /* \"TimeAllySIP.sol\":18216:18244  sips[_stakerAddress][_sipId] */\n      dup2\n      sload\n      dup2\n      lt\n      tag_152\n      jumpi\n      invalid\n    tag_152:\n      swap1\n      0x00\n      mstore\n      keccak256(0x00, 0x20)\n      swap1\n      0x0c\n      mul\n      add\n        /* \"TimeAllySIP.sol\":18197:18244  SIP storage _sip = sips[_stakerAddress][_sipId] */\n      swap1\n      pop\n        /* \"TimeAllySIP.sol\":18372:18399  uint256 _powerBoosterSerial */\n      0x00\n        /* \"TimeAllySIP.sol\":18432:18433  1 */\n      0x01\n        /* \"TimeAllySIP.sol\":18402:18406  _sip */\n      dup3\n        /* \"TimeAllySIP.sol\":18402:18429  _sip.powerBoosterWithdrawls */\n      0x05\n      add\n      sload\n        /* \"TimeAllySIP.sol\":18402:18433  _sip.powerBoosterWithdrawls + 1 */\n      add\n        /* \"TimeAllySIP.sol\":18372:18433  uint256 _powerBoosterSerial = _sip.powerBoosterWithdrawls + 1 */\n      swap1\n      pop\n        /* \"TimeAllySIP.sol\":18527:18528  3 */\n      0x03\n        /* \"TimeAllySIP.sol\":18504:18523  _powerBoosterSerial */\n      dup2\n        /* \"TimeAllySIP.sol\":18504:18528  _powerBoosterSerial <= 3 */\n      gt\n      iszero\n        /* \"TimeAllySIP.sol\":18496:18554  require(_powerBoosterSerial <= 3, 'only 3 power boosters') */\n      tag_154\n      jumpi\n      mload(0x40)\n      0x08c379a000000000000000000000000000000000000000000000000000000000\n      dup2\n      mstore\n      0x04\n      add\n      dup1\n      dup1\n      0x20\n      add\n      dup3\n      dup2\n      sub\n      dup3\n      mstore\n      0x15\n      dup2\n      mstore\n      0x20\n      add\n      dup1\n      0x6f6e6c79203320706f77657220626f6f73746572730000000000000000000000\n      dup2\n      mstore\n      pop\n      0x20\n      add\n      swap2\n      pop\n      pop\n      mload(0x40)\n      dup1\n      swap2\n      sub\n      swap1\n      revert\n    tag_154:\n        /* \"TimeAllySIP.sol\":18664:18689  uint256 _allowedTimestamp */\n      0x00\n        /* \"TimeAllySIP.sol\":18905:18927  EARTH_SECONDS_IN_MONTH */\n      sload(0x02)\n        /* \"TimeAllySIP.sol\":18901:18902  3 */\n      0x03\n        /* \"TimeAllySIP.sol\":18879:18898  _powerBoosterSerial */\n      dup4\n        /* \"TimeAllySIP.sol\":18854:18876  EARTH_SECONDS_IN_MONTH */\n      sload(0x02)\n        /* \"TimeAllySIP.sol\":18849:18851  12 */\n      0x0c\n        /* \"TimeAllySIP.sol\":18804:18812  sipPlans */\n      0x05\n        /* \"TimeAllySIP.sol\":18814:18818  _sip */\n      dup9\n        /* \"TimeAllySIP.sol\":18814:18825  _sip.planId */\n      0x00\n      add\n      sload\n        /* \"TimeAllySIP.sol\":18804:18827  sipPlans[ _sip.planId ] */\n      dup2\n      sload\n      dup2\n      lt\n      tag_155\n      jumpi\n      invalid\n    tag_155:\n      swap1\n      0x00\n      mstore\n      keccak256(0x00, 0x20)\n      swap1\n      0x08\n      mul\n      add\n        /* \"TimeAllySIP.sol\":18804:18846  sipPlans[ _sip.planId ].benefitPeriodYears */\n      0x03\n      add\n      sload\n        /* \"TimeAllySIP.sol\":18804:18851  sipPlans[ _sip.planId ].benefitPeriodYears * 12 */\n      mul\n        /* \"TimeAllySIP.sol\":18804:18876  sipPlans[ _sip.planId ].benefitPeriodYears * 12 * EARTH_SECONDS_IN_MONTH */\n      mul\n        /* \"TimeAllySIP.sol\":18804:18898  sipPlans[ _sip.planId ].benefitPeriodYears * 12 * EARTH_SECONDS_IN_MONTH * _powerBoosterSerial */\n      mul\n        /* \"TimeAllySIP.sol\":18804:18902  sipPlans[ _sip.planId ].benefitPeriodYears * 12 * EARTH_SECONDS_IN_MONTH * _powerBoosterSerial / 3 */\n      dup2\n      tag_157\n      jumpi\n      invalid\n    tag_157:\n      div\n        /* \"TimeAllySIP.sol\":18773:18795  EARTH_SECONDS_IN_MONTH */\n      sload(0x02)\n        /* \"TimeAllySIP.sol\":18722:18730  sipPlans */\n      0x05\n        /* \"TimeAllySIP.sol\":18732:18736  _sip */\n      dup7\n        /* \"TimeAllySIP.sol\":18732:18743  _sip.planId */\n      0x00\n      add\n      sload\n        /* \"TimeAllySIP.sol\":18722:18745  sipPlans[ _sip.planId ] */\n      dup2\n      sload\n      dup2\n      lt\n      tag_158\n      jumpi\n      invalid\n    tag_158:\n      swap1\n      0x00\n      mstore\n      keccak256(0x00, 0x20)\n      swap1\n      0x08\n      mul\n      add\n        /* \"TimeAllySIP.sol\":18722:18770  sipPlans[ _sip.planId ].accumulationPeriodMonths */\n      0x02\n      add\n      sload\n        /* \"TimeAllySIP.sol\":18722:18795  sipPlans[ _sip.planId ].accumulationPeriodMonths * EARTH_SECONDS_IN_MONTH */\n      mul\n        /* \"TimeAllySIP.sol\":18692:18696  _sip */\n      dup6\n        /* \"TimeAllySIP.sol\":18692:18713  _sip.stakingTimestamp */\n      0x01\n      add\n      sload\n        /* \"TimeAllySIP.sol\":18692:18795  _sip.stakingTimestamp... */\n      add\n        /* \"TimeAllySIP.sol\":18692:18902  _sip.stakingTimestamp... */\n      add\n        /* \"TimeAllySIP.sol\":18692:18927  _sip.stakingTimestamp... */\n      sub\n        /* \"TimeAllySIP.sol\":18664:18927  uint256 _allowedTimestamp = _sip.stakingTimestamp... */\n      swap1\n      pop\n        /* \"TimeAllySIP.sol\":19009:19023  _stakerAddress */\n      dup8\n        /* \"TimeAllySIP.sol\":18995:19023  msg.sender != _stakerAddress */\n      0xffffffffffffffffffffffffffffffffffffffff\n      and\n        /* \"TimeAllySIP.sol\":18995:19005  msg.sender */\n      caller\n        /* \"TimeAllySIP.sol\":18995:19023  msg.sender != _stakerAddress */\n      0xffffffffffffffffffffffffffffffffffffffff\n      and\n      eq\n        /* \"TimeAllySIP.sol\":18992:19397  if(msg.sender != _stakerAddress) {... */\n      tag_160\n      jumpi\n        /* \"TimeAllySIP.sol\":19058:19088  _sip.numberOfAppointees.div(2) */\n      tag_161\n        /* \"TimeAllySIP.sol\":19086:19087  2 */\n      0x02\n        /* \"TimeAllySIP.sol\":19058:19062  _sip */\n      dup5\n        /* \"TimeAllySIP.sol\":19058:19081  _sip.numberOfAppointees */\n      0x06\n      add\n      sload\n        /* \"TimeAllySIP.sol\":19058:19085  _sip.numberOfAppointees.div */\n      tag_162\n      swap1\n        /* \"TimeAllySIP.sol\":19058:19088  _sip.numberOfAppointees.div(2) */\n      swap2\n      swap1\n      0xffffffff\n      and\n      jump\t// in\n    tag_161:\n        /* \"TimeAllySIP.sol\":19036:19040  _sip */\n      dup4\n        /* \"TimeAllySIP.sol\":19036:19055  _sip.appointeeVotes */\n      0x07\n      add\n      sload\n        /* \"TimeAllySIP.sol\":19036:19088  _sip.appointeeVotes > _sip.numberOfAppointees.div(2) */\n      gt\n        /* \"TimeAllySIP.sol\":19033:19391  if(_sip.appointeeVotes > _sip.numberOfAppointees.div(2)) {... */\n      iszero\n      tag_163\n      jumpi\n        /* \"TimeAllySIP.sol\":19228:19229  6 */\n      0x06\n        /* \"TimeAllySIP.sol\":19203:19225  EARTH_SECONDS_IN_MONTH */\n      sload(0x02)\n        /* \"TimeAllySIP.sol\":19203:19229  EARTH_SECONDS_IN_MONTH * 6 */\n      mul\n        /* \"TimeAllySIP.sol\":19182:19229  _allowedTimestamp += EARTH_SECONDS_IN_MONTH * 6 */\n      dup2\n      add\n      swap1\n      pop\n        /* \"TimeAllySIP.sol\":19033:19391  if(_sip.appointeeVotes > _sip.numberOfAppointees.div(2)) {... */\n      jump(tag_164)\n    tag_163:\n        /* \"TimeAllySIP.sol\":19380:19382  12 */\n      0x0c\n        /* \"TimeAllySIP.sol\":19355:19377  EARTH_SECONDS_IN_MONTH */\n      sload(0x02)\n        /* \"TimeAllySIP.sol\":19355:19382  EARTH_SECONDS_IN_MONTH * 12 */\n      mul\n        /* \"TimeAllySIP.sol\":19334:19382  _allowedTimestamp += EARTH_SECONDS_IN_MONTH * 12 */\n      dup2\n      add\n      swap1\n      pop\n        /* \"TimeAllySIP.sol\":19033:19391  if(_sip.appointeeVotes > _sip.numberOfAppointees.div(2)) {... */\n    tag_164:\n        /* \"TimeAllySIP.sol\":18992:19397  if(msg.sender != _stakerAddress) {... */\n    tag_160:\n        /* \"TimeAllySIP.sol\":19461:19478  _allowedTimestamp */\n      dup1\n        /* \"TimeAllySIP.sol\":19455:19458  now */\n      timestamp\n        /* \"TimeAllySIP.sol\":19455:19478  now > _allowedTimestamp */\n      gt\n        /* \"TimeAllySIP.sol\":19447:19504  require(now > _allowedTimestamp, 'cannot withdraw early') */\n      tag_165\n      jumpi\n      mload(0x40)\n      0x08c379a000000000000000000000000000000000000000000000000000000000\n      dup2\n      mstore\n      0x04\n      add\n      dup1\n      dup1\n      0x20\n      add\n      dup3\n      dup2\n      sub\n      dup3\n      mstore\n      0x15\n      dup2\n      mstore\n      0x20\n      add\n      dup1\n      0x63616e6e6f74207769746864726177206561726c790000000000000000000000\n      dup2\n      mstore\n      pop\n      0x20\n      add\n      swap2\n      pop\n      pop\n      mload(0x40)\n      dup1\n      swap2\n      sub\n      swap1\n      revert\n    tag_165:\n        /* \"TimeAllySIP.sol\":19597:19616  _powerBoosterSerial */\n      dup2\n        /* \"TimeAllySIP.sol\":19567:19571  _sip */\n      dup4\n        /* \"TimeAllySIP.sol\":19567:19594  _sip.powerBoosterWithdrawls */\n      0x05\n      add\n        /* \"TimeAllySIP.sol\":19567:19616  _sip.powerBoosterWithdrawls = _powerBoosterSerial */\n      dup2\n      swap1\n      sstore\n      pop\n        /* \"TimeAllySIP.sol\":19672:19699  uint256 _powerBoosterAmount */\n      0x00\n        /* \"TimeAllySIP.sol\":19702:19728  _sip.totalDeposited.div(3) */\n      tag_166\n        /* \"TimeAllySIP.sol\":19726:19727  3 */\n      0x03\n        /* \"TimeAllySIP.sol\":19702:19706  _sip */\n      dup6\n        /* \"TimeAllySIP.sol\":19702:19721  _sip.totalDeposited */\n      0x03\n      add\n      sload\n        /* \"TimeAllySIP.sol\":19702:19725  _sip.totalDeposited.div */\n      tag_162\n      swap1\n        /* \"TimeAllySIP.sol\":19702:19728  _sip.totalDeposited.div(3) */\n      swap2\n      swap1\n      0xffffffff\n      and\n      jump\t// in\n    tag_166:\n        /* \"TimeAllySIP.sol\":19672:19728  uint256 _powerBoosterAmount = _sip.totalDeposited.div(3) */\n      swap1\n      pop\n        /* \"TimeAllySIP.sol\":19855:19856  1 */\n      0x01\n        /* \"TimeAllySIP.sol\":19832:19851  _powerBoosterSerial */\n      dup4\n        /* \"TimeAllySIP.sol\":19832:19856  _powerBoosterSerial == 1 */\n      eq\n        /* \"TimeAllySIP.sol\":19829:20888  if(_powerBoosterSerial == 1) {... */\n      iszero\n      tag_167\n      jumpi\n        /* \"TimeAllySIP.sol\":19866:19893  uint256 _totalPenaltyFactor */\n      0x00\n        /* \"TimeAllySIP.sol\":19905:19914  uint256 i */\n      dup1\n        /* \"TimeAllySIP.sol\":19917:19918  1 */\n      0x01\n        /* \"TimeAllySIP.sol\":19905:19918  uint256 i = 1 */\n      swap1\n      pop\n        /* \"TimeAllySIP.sol\":19901:20333  for(uint256 i = 1; i <= sipPlans[ _sip.planId ].accumulationPeriodMonths; i++) {... */\n    tag_168:\n        /* \"TimeAllySIP.sol\":19925:19933  sipPlans */\n      0x05\n        /* \"TimeAllySIP.sol\":19935:19939  _sip */\n      dup7\n        /* \"TimeAllySIP.sol\":19935:19946  _sip.planId */\n      0x00\n      add\n      sload\n        /* \"TimeAllySIP.sol\":19925:19948  sipPlans[ _sip.planId ] */\n      dup2\n      sload\n      dup2\n      lt\n      tag_171\n      jumpi\n      invalid\n    tag_171:\n      swap1\n      0x00\n      mstore\n      keccak256(0x00, 0x20)\n      swap1\n      0x08\n      mul\n      add\n        /* \"TimeAllySIP.sol\":19925:19973  sipPlans[ _sip.planId ].accumulationPeriodMonths */\n      0x02\n      add\n      sload\n        /* \"TimeAllySIP.sol\":19920:19921  i */\n      dup2\n        /* \"TimeAllySIP.sol\":19920:19973  i <= sipPlans[ _sip.planId ].accumulationPeriodMonths */\n      gt\n        /* \"TimeAllySIP.sol\":19901:20333  for(uint256 i = 1; i <= sipPlans[ _sip.planId ].accumulationPeriodMonths; i++) {... */\n      tag_169\n      jumpi\n        /* \"TimeAllySIP.sol\":20018:20019  0 */\n      0x00\n        /* \"TimeAllySIP.sol\":19993:19997  _sip */\n      dup7\n        /* \"TimeAllySIP.sol\":19993:20011  _sip.depositStatus */\n      0x08\n      add\n        /* \"TimeAllySIP.sol\":19993:20014  _sip.depositStatus[i] */\n      0x00\n        /* \"TimeAllySIP.sol\":20012:20013  i */\n      dup4\n        /* \"TimeAllySIP.sol\":19993:20014  _sip.depositStatus[i] */\n      dup2\n      mstore\n      0x20\n      add\n      swap1\n      dup2\n      mstore\n      0x20\n      add\n      0x00\n      keccak256\n      sload\n        /* \"TimeAllySIP.sol\":19993:20019  _sip.depositStatus[i] == 0 */\n      eq\n        /* \"TimeAllySIP.sol\":19990:20325  if(_sip.depositStatus[i] == 0) {... */\n      iszero\n      tag_173\n      jumpi\n        /* \"TimeAllySIP.sol\":20099:20107  sipPlans */\n      0x05\n        /* \"TimeAllySIP.sol\":20109:20113  _sip */\n      dup7\n        /* \"TimeAllySIP.sol\":20109:20120  _sip.planId */\n      0x00\n      add\n      sload\n        /* \"TimeAllySIP.sol\":20099:20122  sipPlans[ _sip.planId ] */\n      dup2\n      sload\n      dup2\n      lt\n      tag_174\n      jumpi\n      invalid\n    tag_174:\n      swap1\n      0x00\n      mstore\n      keccak256(0x00, 0x20)\n      swap1\n      0x08\n      mul\n      add\n        /* \"TimeAllySIP.sol\":20099:20143  sipPlans[ _sip.planId ].defaultPenaltyFactor */\n      0x07\n      add\n      sload\n        /* \"TimeAllySIP.sol\":20076:20143  _totalPenaltyFactor += sipPlans[ _sip.planId ].defaultPenaltyFactor */\n      dup3\n      add\n      swap2\n      pop\n        /* \"TimeAllySIP.sol\":19990:20325  if(_sip.depositStatus[i] == 0) {... */\n      jump(tag_176)\n    tag_173:\n        /* \"TimeAllySIP.sol\":20188:20189  1 */\n      0x01\n        /* \"TimeAllySIP.sol\":20163:20167  _sip */\n      dup7\n        /* \"TimeAllySIP.sol\":20163:20181  _sip.depositStatus */\n      0x08\n      add\n        /* \"TimeAllySIP.sol\":20163:20184  _sip.depositStatus[i] */\n      0x00\n        /* \"TimeAllySIP.sol\":20182:20183  i */\n      dup4\n        /* \"TimeAllySIP.sol\":20163:20184  _sip.depositStatus[i] */\n      dup2\n      mstore\n      0x20\n      add\n      swap1\n      dup2\n      mstore\n      0x20\n      add\n      0x00\n      keccak256\n      sload\n        /* \"TimeAllySIP.sol\":20163:20189  _sip.depositStatus[i] == 1 */\n      eq\n        /* \"TimeAllySIP.sol\":20160:20325  if(_sip.depositStatus[i] == 1) {... */\n      iszero\n      tag_177\n      jumpi\n        /* \"TimeAllySIP.sol\":20272:20280  sipPlans */\n      0x05\n        /* \"TimeAllySIP.sol\":20282:20286  _sip */\n      dup7\n        /* \"TimeAllySIP.sol\":20282:20293  _sip.planId */\n      0x00\n      add\n      sload\n        /* \"TimeAllySIP.sol\":20272:20295  sipPlans[ _sip.planId ] */\n      dup2\n      sload\n      dup2\n      lt\n      tag_178\n      jumpi\n      invalid\n    tag_178:\n      swap1\n      0x00\n      mstore\n      keccak256(0x00, 0x20)\n      swap1\n      0x08\n      mul\n      add\n        /* \"TimeAllySIP.sol\":20272:20314  sipPlans[ _sip.planId ].gracePenaltyFactor */\n      0x06\n      add\n      sload\n        /* \"TimeAllySIP.sol\":20249:20314  _totalPenaltyFactor += sipPlans[ _sip.planId ].gracePenaltyFactor */\n      dup3\n      add\n      swap2\n      pop\n        /* \"TimeAllySIP.sol\":20160:20325  if(_sip.depositStatus[i] == 1) {... */\n    tag_177:\n        /* \"TimeAllySIP.sol\":19990:20325  if(_sip.depositStatus[i] == 0) {... */\n    tag_176:\n        /* \"TimeAllySIP.sol\":19975:19978  i++ */\n      dup1\n      dup1\n      0x01\n      add\n      swap2\n      pop\n      pop\n        /* \"TimeAllySIP.sol\":19901:20333  for(uint256 i = 1; i <= sipPlans[ _sip.planId ].accumulationPeriodMonths; i++) {... */\n      jump(tag_168)\n    tag_169:\n      pop\n        /* \"TimeAllySIP.sol\":20340:20362  uint256 _penaltyAmount */\n      0x00\n        /* \"TimeAllySIP.sol\":20365:20419  _powerBoosterAmount.mul(_totalPenaltyFactor).div(1000) */\n      tag_180\n        /* \"TimeAllySIP.sol\":20414:20418  1000 */\n      0x03e8\n        /* \"TimeAllySIP.sol\":20365:20409  _powerBoosterAmount.mul(_totalPenaltyFactor) */\n      tag_181\n        /* \"TimeAllySIP.sol\":20389:20408  _totalPenaltyFactor */\n      dup5\n        /* \"TimeAllySIP.sol\":20365:20384  _powerBoosterAmount */\n      dup7\n        /* \"TimeAllySIP.sol\":20365:20388  _powerBoosterAmount.mul */\n      tag_182\n      swap1\n        /* \"TimeAllySIP.sol\":20365:20409  _powerBoosterAmount.mul(_totalPenaltyFactor) */\n      swap2\n      swap1\n      0xffffffff\n      and\n      jump\t// in\n    tag_181:\n        /* \"TimeAllySIP.sol\":20365:20413  _powerBoosterAmount.mul(_totalPenaltyFactor).div */\n      tag_162\n      swap1\n        /* \"TimeAllySIP.sol\":20365:20419  _powerBoosterAmount.mul(_totalPenaltyFactor).div(1000) */\n      swap2\n      swap1\n      0xffffffff\n      and\n      jump\t// in\n    tag_180:\n        /* \"TimeAllySIP.sol\":20340:20419  uint256 _penaltyAmount = _powerBoosterAmount.mul(_totalPenaltyFactor).div(1000) */\n      swap1\n      pop\n        /* \"TimeAllySIP.sol\":20513:20514  0 */\n      0x00\n        /* \"TimeAllySIP.sol\":20496:20510  _penaltyAmount */\n      dup2\n        /* \"TimeAllySIP.sol\":20496:20514  _penaltyAmount > 0 */\n      gt\n        /* \"TimeAllySIP.sol\":20493:20882  if(_penaltyAmount > 0) {... */\n      iszero\n      tag_183\n      jumpi\n        /* \"TimeAllySIP.sol\":20597:20629  fundsDeposit.add(_penaltyAmount) */\n      tag_184\n        /* \"TimeAllySIP.sol\":20614:20628  _penaltyAmount */\n      dup2\n        /* \"TimeAllySIP.sol\":20597:20609  fundsDeposit */\n      sload(0x04)\n        /* \"TimeAllySIP.sol\":20597:20613  fundsDeposit.add */\n      tag_185\n      swap1\n        /* \"TimeAllySIP.sol\":20597:20629  fundsDeposit.add(_penaltyAmount) */\n      swap2\n      swap1\n      0xffffffff\n      and\n      jump\t// in\n    tag_184:\n        /* \"TimeAllySIP.sol\":20582:20594  fundsDeposit */\n      0x04\n        /* \"TimeAllySIP.sol\":20582:20629  fundsDeposit = fundsDeposit.add(_penaltyAmount) */\n      dup2\n      swap1\n      sstore\n      pop\n        /* \"TimeAllySIP.sol\":20705:20735  FundsDeposited(_penaltyAmount) */\n      0x7cb5d45c1071f219bd2da1ea101758715bd52f23f2a707f2d9a0387dea18d906\n        /* \"TimeAllySIP.sol\":20720:20734  _penaltyAmount */\n      dup2\n        /* \"TimeAllySIP.sol\":20705:20735  FundsDeposited(_penaltyAmount) */\n      mload(0x40)\n      dup1\n      dup3\n      dup2\n      mstore\n      0x20\n      add\n      swap2\n      pop\n      pop\n      mload(0x40)\n      dup1\n      swap2\n      sub\n      swap1\n      log1\n        /* \"TimeAllySIP.sol\":20834:20873  _powerBoosterAmount.sub(_penaltyAmount) */\n      tag_186\n        /* \"TimeAllySIP.sol\":20858:20872  _penaltyAmount */\n      dup2\n        /* \"TimeAllySIP.sol\":20834:20853  _powerBoosterAmount */\n      dup5\n        /* \"TimeAllySIP.sol\":20834:20857  _powerBoosterAmount.sub */\n      tag_128\n      swap1\n        /* \"TimeAllySIP.sol\":20834:20873  _powerBoosterAmount.sub(_penaltyAmount) */\n      swap2\n      swap1\n      0xffffffff\n      and\n      jump\t// in\n    tag_186:\n        /* \"TimeAllySIP.sol\":20812:20873  _powerBoosterAmount = _powerBoosterAmount.sub(_penaltyAmount) */\n      swap3\n      pop\n        /* \"TimeAllySIP.sol\":20493:20882  if(_penaltyAmount > 0) {... */\n    tag_183:\n        /* \"TimeAllySIP.sol\":19829:20888  if(_powerBoosterSerial == 1) {... */\n      pop\n      pop\n    tag_167:\n        /* \"TimeAllySIP.sol\":20953:20958  token */\n      0x01\n      0x00\n      swap1\n      sload\n      swap1\n      0x0100\n      exp\n      swap1\n      div\n      0xffffffffffffffffffffffffffffffffffffffff\n      and\n        /* \"TimeAllySIP.sol\":20953:20967  token.transfer */\n      0xffffffffffffffffffffffffffffffffffffffff\n      and\n      0xa9059cbb\n        /* \"TimeAllySIP.sol\":20968:20978  msg.sender */\n      caller\n        /* \"TimeAllySIP.sol\":20980:20999  _powerBoosterAmount */\n      dup4\n        /* \"TimeAllySIP.sol\":20953:21000  token.transfer(msg.sender, _powerBoosterAmount) */\n      mload(0x40)\n      dup4\n      0xffffffff\n      and\n      0xe0\n      shl\n      dup2\n      mstore\n      0x04\n      add\n      dup1\n      dup4\n      0xffffffffffffffffffffffffffffffffffffffff\n      and\n      0xffffffffffffffffffffffffffffffffffffffff\n      and\n      dup2\n      mstore\n      0x20\n      add\n      dup3\n      dup2\n      mstore\n      0x20\n      add\n      swap3\n      pop\n      pop\n      pop\n      0x20\n      mload(0x40)\n      dup1\n      dup4\n      sub\n      dup2\n      0x00\n      dup8\n      dup1\n      extcodesize\n      iszero\n        /* \"--CODEGEN--\":8:17   */\n      dup1\n        /* \"--CODEGEN--\":5:7   */\n      iszero\n      tag_187\n      jumpi\n        /* \"--CODEGEN--\":30:31   */\n      0x00\n        /* \"--CODEGEN--\":27:28   */\n      dup1\n        /* \"--CODEGEN--\":20:32   */\n      revert\n        /* \"--CODEGEN--\":5:7   */\n    tag_187:\n        /* \"TimeAllySIP.sol\":20953:21000  token.transfer(msg.sender, _powerBoosterAmount) */\n      pop\n      gas\n      call\n      iszero\n        /* \"--CODEGEN--\":8:17   */\n      dup1\n        /* \"--CODEGEN--\":5:7   */\n      iszero\n      tag_188\n      jumpi\n        /* \"--CODEGEN--\":45:61   */\n      returndatasize\n        /* \"--CODEGEN--\":42:43   */\n      0x00\n        /* \"--CODEGEN--\":39:40   */\n      dup1\n        /* \"--CODEGEN--\":24:62   */\n      returndatacopy\n        /* \"--CODEGEN--\":77:93   */\n      returndatasize\n        /* \"--CODEGEN--\":74:75   */\n      0x00\n        /* \"--CODEGEN--\":67:94   */\n      revert\n        /* \"--CODEGEN--\":5:7   */\n    tag_188:\n        /* \"TimeAllySIP.sol\":20953:21000  token.transfer(msg.sender, _powerBoosterAmount) */\n      pop\n      pop\n      pop\n      pop\n      mload(0x40)\n      returndatasize\n        /* \"--CODEGEN--\":13:15   */\n      0x20\n        /* \"--CODEGEN--\":8:11   */\n      dup2\n        /* \"--CODEGEN--\":5:16   */\n      lt\n        /* \"--CODEGEN--\":2:4   */\n      iszero\n      tag_189\n      jumpi\n        /* \"--CODEGEN--\":29:30   */\n      0x00\n        /* \"--CODEGEN--\":26:27   */\n      dup1\n        /* \"--CODEGEN--\":19:31   */\n      revert\n        /* \"--CODEGEN--\":2:4   */\n    tag_189:\n        /* \"TimeAllySIP.sol\":20953:21000  token.transfer(msg.sender, _powerBoosterAmount) */\n      dup2\n      add\n      swap1\n      dup1\n      dup1\n      mload\n      swap1\n      0x20\n      add\n      swap1\n      swap3\n      swap2\n      swap1\n      pop\n      pop\n      pop\n      pop\n        /* \"TimeAllySIP.sol\":21121:21127  _sipId */\n      dup8\n        /* \"TimeAllySIP.sol\":21099:21113  _stakerAddress */\n      dup10\n        /* \"TimeAllySIP.sol\":21070:21205  PowerBoosterWithdrawl(... */\n      0xffffffffffffffffffffffffffffffffffffffff\n      and\n      0xa1c568ef1602bc58c1e32ea2f1251b87874dce947f5d4f4df53677d06d5bf56d\n        /* \"TimeAllySIP.sol\":21135:21154  _powerBoosterSerial */\n      dup6\n        /* \"TimeAllySIP.sol\":21162:21181  _powerBoosterAmount */\n      dup5\n        /* \"TimeAllySIP.sol\":21189:21199  msg.sender */\n      caller\n        /* \"TimeAllySIP.sol\":21070:21205  PowerBoosterWithdrawl(... */\n      mload(0x40)\n      dup1\n      dup5\n      dup2\n      mstore\n      0x20\n      add\n      dup4\n      dup2\n      mstore\n      0x20\n      add\n      dup3\n      0xffffffffffffffffffffffffffffffffffffffff\n      and\n      0xffffffffffffffffffffffffffffffffffffffff\n      and\n      dup2\n      mstore\n      0x20\n      add\n      swap4\n      pop\n      pop\n      pop\n      pop\n      mload(0x40)\n      dup1\n      swap2\n      sub\n      swap1\n      log3\n        /* \"TimeAllySIP.sol\":6256:6257  _ */\n      pop\n      pop\n      pop\n      pop\n        /* \"TimeAllySIP.sol\":18066:21210  function withdrawPowerBooster(... */\n      pop\n      pop\n      pop\n      pop\n      pop\n      jump\t// out\n        /* \"TimeAllySIP.sol\":9518:9702  function addToPrepaid(uint256 _amount) public {... */\n    tag_56:\n        /* \"TimeAllySIP.sol\":9578:9583  token */\n      0x01\n      0x00\n      swap1\n      sload\n      swap1\n      0x0100\n      exp\n      swap1\n      div\n      0xffffffffffffffffffffffffffffffffffffffff\n      and\n        /* \"TimeAllySIP.sol\":9578:9596  token.transferFrom */\n      0xffffffffffffffffffffffffffffffffffffffff\n      and\n      0x23b872dd\n        /* \"TimeAllySIP.sol\":9597:9607  msg.sender */\n      caller\n        /* \"TimeAllySIP.sol\":9617:9621  this */\n      address\n        /* \"TimeAllySIP.sol\":9624:9631  _amount */\n      dup5\n        /* \"TimeAllySIP.sol\":9578:9632  token.transferFrom(msg.sender, address(this), _amount) */\n      mload(0x40)\n      dup5\n      0xffffffff\n      and\n      0xe0\n      shl\n      dup2\n      mstore\n      0x04\n      add\n      dup1\n      dup5\n      0xffffffffffffffffffffffffffffffffffffffff\n      and\n      0xffffffffffffffffffffffffffffffffffffffff\n      and\n      dup2\n      mstore\n      0x20\n      add\n      dup4\n      0xffffffffffffffffffffffffffffffffffffffff\n      and\n      0xffffffffffffffffffffffffffffffffffffffff\n      and\n      dup2\n      mstore\n      0x20\n      add\n      dup3\n      dup2\n      mstore\n      0x20\n      add\n      swap4\n      pop\n      pop\n      pop\n      pop\n      0x20\n      mload(0x40)\n      dup1\n      dup4\n      sub\n      dup2\n      0x00\n      dup8\n      dup1\n      extcodesize\n      iszero\n        /* \"--CODEGEN--\":8:17   */\n      dup1\n        /* \"--CODEGEN--\":5:7   */\n      iszero\n      tag_191\n      jumpi\n        /* \"--CODEGEN--\":30:31   */\n      0x00\n        /* \"--CODEGEN--\":27:28   */\n      dup1\n        /* \"--CODEGEN--\":20:32   */\n      revert\n        /* \"--CODEGEN--\":5:7   */\n    tag_191:\n        /* \"TimeAllySIP.sol\":9578:9632  token.transferFrom(msg.sender, address(this), _amount) */\n      pop\n      gas\n      call\n      iszero\n        /* \"--CODEGEN--\":8:17   */\n      dup1\n        /* \"--CODEGEN--\":5:7   */\n      iszero\n      tag_192\n      jumpi\n        /* \"--CODEGEN--\":45:61   */\n      returndatasize\n        /* \"--CODEGEN--\":42:43   */\n      0x00\n        /* \"--CODEGEN--\":39:40   */\n      dup1\n        /* \"--CODEGEN--\":24:62   */\n      returndatacopy\n        /* \"--CODEGEN--\":77:93   */\n      returndatasize\n        /* \"--CODEGEN--\":74:75   */\n      0x00\n        /* \"--CODEGEN--\":67:94   */\n      revert\n        /* \"--CODEGEN--\":5:7   */\n    tag_192:\n        /* \"TimeAllySIP.sol\":9578:9632  token.transferFrom(msg.sender, address(this), _amount) */\n      pop\n      pop\n      pop\n      pop\n      mload(0x40)\n      returndatasize\n        /* \"--CODEGEN--\":13:15   */\n      0x20\n        /* \"--CODEGEN--\":8:11   */\n      dup2\n        /* \"--CODEGEN--\":5:16   */\n      lt\n        /* \"--CODEGEN--\":2:4   */\n      iszero\n      tag_193\n      jumpi\n        /* \"--CODEGEN--\":29:30   */\n      0x00\n        /* \"--CODEGEN--\":26:27   */\n      dup1\n        /* \"--CODEGEN--\":19:31   */\n      revert\n        /* \"--CODEGEN--\":2:4   */\n    tag_193:\n        /* \"TimeAllySIP.sol\":9578:9632  token.transferFrom(msg.sender, address(this), _amount) */\n      dup2\n      add\n      swap1\n      dup1\n      dup1\n      mload\n      swap1\n      0x20\n      add\n      swap1\n      swap3\n      swap2\n      swap1\n      pop\n      pop\n      pop\n        /* \"TimeAllySIP.sol\":9570:9633  require(token.transferFrom(msg.sender, address(this), _amount)) */\n      tag_194\n      jumpi\n      0x00\n      dup1\n      revert\n    tag_194:\n        /* \"TimeAllySIP.sol\":9663:9697  prepaidES[msg.sender].add(_amount) */\n      tag_195\n        /* \"TimeAllySIP.sol\":9689:9696  _amount */\n      dup2\n        /* \"TimeAllySIP.sol\":9663:9672  prepaidES */\n      0x07\n        /* \"TimeAllySIP.sol\":9663:9684  prepaidES[msg.sender] */\n      0x00\n        /* \"TimeAllySIP.sol\":9673:9683  msg.sender */\n      caller\n        /* \"TimeAllySIP.sol\":9663:9684  prepaidES[msg.sender] */\n      0xffffffffffffffffffffffffffffffffffffffff\n      and\n      0xffffffffffffffffffffffffffffffffffffffff\n      and\n      dup2\n      mstore\n      0x20\n      add\n      swap1\n      dup2\n      mstore\n      0x20\n      add\n      0x00\n      keccak256\n      sload\n        /* \"TimeAllySIP.sol\":9663:9688  prepaidES[msg.sender].add */\n      tag_185\n      swap1\n        /* \"TimeAllySIP.sol\":9663:9697  prepaidES[msg.sender].add(_amount) */\n      swap2\n      swap1\n      0xffffffff\n      and\n      jump\t// in\n    tag_195:\n        /* \"TimeAllySIP.sol\":9639:9648  prepaidES */\n      0x07\n        /* \"TimeAllySIP.sol\":9639:9660  prepaidES[msg.sender] */\n      0x00\n        /* \"TimeAllySIP.sol\":9649:9659  msg.sender */\n      caller\n        /* \"TimeAllySIP.sol\":9639:9660  prepaidES[msg.sender] */\n      0xffffffffffffffffffffffffffffffffffffffff\n      and\n      0xffffffffffffffffffffffffffffffffffffffff\n      and\n      dup2\n      mstore\n      0x20\n      add\n      swap1\n      dup2\n      mstore\n      0x20\n      add\n      0x00\n      keccak256\n        /* \"TimeAllySIP.sol\":9639:9697  prepaidES[msg.sender] = prepaidES[msg.sender].add(_amount) */\n      dup2\n      swap1\n      sstore\n      pop\n        /* \"TimeAllySIP.sol\":9518:9702  function addToPrepaid(uint256 _amount) public {... */\n      pop\n      jump\t// out\n        /* \"TimeAllySIP.sol\":7074:7878  function createSIPPlan(... */\n    tag_59:\n        /* \"TimeAllySIP.sol\":5811:5816  owner */\n      0x00\n      dup1\n      swap1\n      sload\n      swap1\n      0x0100\n      exp\n      swap1\n      div\n      0xffffffffffffffffffffffffffffffffffffffff\n      and\n        /* \"TimeAllySIP.sol\":5797:5816  msg.sender == owner */\n      0xffffffffffffffffffffffffffffffffffffffff\n      and\n        /* \"TimeAllySIP.sol\":5797:5807  msg.sender */\n      caller\n        /* \"TimeAllySIP.sol\":5797:5816  msg.sender == owner */\n      0xffffffffffffffffffffffffffffffffffffffff\n      and\n      eq\n        /* \"TimeAllySIP.sol\":5789:5843  require(msg.sender == owner, 'only deployer can call') */\n      tag_197\n      jumpi\n      mload(0x40)\n      0x08c379a000000000000000000000000000000000000000000000000000000000\n      dup2\n      mstore\n      0x04\n      add\n      dup1\n      dup1\n      0x20\n      add\n      dup3\n      dup2\n      sub\n      dup3\n      mstore\n      0x16\n      dup2\n      mstore\n      0x20\n      add\n      dup1\n      0x6f6e6c79206465706c6f7965722063616e2063616c6c00000000000000000000\n      dup2\n      mstore\n      pop\n      0x20\n      add\n      swap2\n      pop\n      pop\n      mload(0x40)\n      dup1\n      swap2\n      sub\n      swap1\n      revert\n    tag_197:\n        /* \"TimeAllySIP.sol\":7444:7452  sipPlans */\n      0x05\n        /* \"TimeAllySIP.sol\":7458:7872  SIPPlan({... */\n      mload(0x40)\n      dup1\n      0x0100\n      add\n      0x40\n      mstore\n      dup1\n        /* \"TimeAllySIP.sol\":7488:7492  true */\n      0x01\n        /* \"TimeAllySIP.sol\":7458:7872  SIPPlan({... */\n      iszero\n      iszero\n      dup2\n      mstore\n      0x20\n      add\n        /* \"TimeAllySIP.sol\":7532:7563  _minimumMonthlyCommitmentAmount */\n      dup10\n        /* \"TimeAllySIP.sol\":7458:7872  SIPPlan({... */\n      dup2\n      mstore\n      0x20\n      add\n        /* \"TimeAllySIP.sol\":7597:7622  _accumulationPeriodMonths */\n      dup9\n        /* \"TimeAllySIP.sol\":7458:7872  SIPPlan({... */\n      dup2\n      mstore\n      0x20\n      add\n        /* \"TimeAllySIP.sol\":7650:7669  _benefitPeriodYears */\n      dup8\n        /* \"TimeAllySIP.sol\":7458:7872  SIPPlan({... */\n      dup2\n      mstore\n      0x20\n      add\n        /* \"TimeAllySIP.sol\":7697:7716  _gracePeriodSeconds */\n      dup7\n        /* \"TimeAllySIP.sol\":7458:7872  SIPPlan({... */\n      dup2\n      mstore\n      0x20\n      add\n        /* \"TimeAllySIP.sol\":7746:7767  _monthlyBenefitFactor */\n      dup6\n        /* \"TimeAllySIP.sol\":7458:7872  SIPPlan({... */\n      dup2\n      mstore\n      0x20\n      add\n        /* \"TimeAllySIP.sol\":7795:7814  _gracePenaltyFactor */\n      dup5\n        /* \"TimeAllySIP.sol\":7458:7872  SIPPlan({... */\n      dup2\n      mstore\n      0x20\n      add\n        /* \"TimeAllySIP.sol\":7844:7865  _defaultPenaltyFactor */\n      dup4\n        /* \"TimeAllySIP.sol\":7458:7872  SIPPlan({... */\n      dup2\n      mstore\n      pop\n        /* \"TimeAllySIP.sol\":7444:7873  sipPlans.push(SIPPlan({... */\n      swap1\n      dup1\n        /* \"--CODEGEN--\":39:40   */\n      0x01\n        /* \"--CODEGEN--\":33:36   */\n      dup2\n        /* \"--CODEGEN--\":27:37   */\n      sload\n        /* \"--CODEGEN--\":23:41   */\n      add\n        /* \"--CODEGEN--\":57:67   */\n      dup1\n        /* \"--CODEGEN--\":52:55   */\n      dup3\n        /* \"--CODEGEN--\":45:68   */\n      sstore\n        /* \"--CODEGEN--\":79:89   */\n      dup1\n        /* \"--CODEGEN--\":72:89   */\n      swap2\n      pop\n        /* \"--CODEGEN--\":0:93   */\n      pop\n        /* \"TimeAllySIP.sol\":7444:7873  sipPlans.push(SIPPlan({... */\n      swap1\n      0x01\n      dup3\n      sub\n      swap1\n      0x00\n      mstore\n      keccak256(0x00, 0x20)\n      swap1\n      0x08\n      mul\n      add\n      0x00\n      swap1\n      swap2\n      swap3\n      swap1\n      swap2\n      swap1\n      swap2\n      pop\n      0x00\n      dup3\n      add\n      mload\n      dup2\n      0x00\n      add\n      exp(0x0100, 0x00)\n      dup2\n      sload\n      dup2\n      0xff\n      mul\n      not\n      and\n      swap1\n      dup4\n      iszero\n      iszero\n      mul\n      or\n      swap1\n      sstore\n      pop\n      0x20\n      dup3\n      add\n      mload\n      dup2\n      0x01\n      add\n      sstore\n      0x40\n      dup3\n      add\n      mload\n      dup2\n      0x02\n      add\n      sstore\n      0x60\n      dup3\n      add\n      mload\n      dup2\n      0x03\n      add\n      sstore\n      0x80\n      dup3\n      add\n      mload\n      dup2\n      0x04\n      add\n      sstore\n      0xa0\n      dup3\n      add\n      mload\n      dup2\n      0x05\n      add\n      sstore\n      0xc0\n      dup3\n      add\n      mload\n      dup2\n      0x06\n      add\n      sstore\n      0xe0\n      dup3\n      add\n      mload\n      dup2\n      0x07\n      add\n      sstore\n      pop\n      pop\n      pop\n        /* \"TimeAllySIP.sol\":7074:7878  function createSIPPlan(... */\n      pop\n      pop\n      pop\n      pop\n      pop\n      pop\n      pop\n      jump\t// out\n        /* \"TimeAllySIP.sol\":28833:29037  function viewNomination(... */\n    tag_62:\n        /* \"TimeAllySIP.sol\":28959:28963  bool */\n      0x00\n        /* \"TimeAllySIP.sol\":28978:28982  sips */\n      0x06\n        /* \"TimeAllySIP.sol\":28978:28998  sips[_stakerAddress] */\n      0x00\n        /* \"TimeAllySIP.sol\":28983:28997  _stakerAddress */\n      dup6\n        /* \"TimeAllySIP.sol\":28978:28998  sips[_stakerAddress] */\n      0xffffffffffffffffffffffffffffffffffffffff\n      and\n      0xffffffffffffffffffffffffffffffffffffffff\n      and\n      dup2\n      mstore\n      0x20\n      add\n      swap1\n      dup2\n      mstore\n      0x20\n      add\n      0x00\n      keccak256\n        /* \"TimeAllySIP.sol\":28999:29005  _sipId */\n      dup4\n        /* \"TimeAllySIP.sol\":28978:29006  sips[_stakerAddress][_sipId] */\n      dup2\n      sload\n      dup2\n      lt\n      tag_201\n      jumpi\n      invalid\n    tag_201:\n      swap1\n      0x00\n      mstore\n      keccak256(0x00, 0x20)\n      swap1\n      0x0c\n      mul\n      add\n        /* \"TimeAllySIP.sol\":28978:29015  sips[_stakerAddress][_sipId].nominees */\n      0x0a\n      add\n        /* \"TimeAllySIP.sol\":28978:29032  sips[_stakerAddress][_sipId].nominees[_nomineeAddress] */\n      0x00\n        /* \"TimeAllySIP.sol\":29016:29031  _nomineeAddress */\n      dup4\n        /* \"TimeAllySIP.sol\":28978:29032  sips[_stakerAddress][_sipId].nominees[_nomineeAddress] */\n      0xffffffffffffffffffffffffffffffffffffffff\n      and\n      0xffffffffffffffffffffffffffffffffffffffff\n      and\n      dup2\n      mstore\n      0x20\n      add\n      swap1\n      dup2\n      mstore\n      0x20\n      add\n      0x00\n      keccak256\n      0x00\n      swap1\n      sload\n      swap1\n      0x0100\n      exp\n      swap1\n      div\n      0xff\n      and\n        /* \"TimeAllySIP.sol\":28971:29032  return sips[_stakerAddress][_sipId].nominees[_nomineeAddress] */\n      swap1\n      pop\n        /* \"TimeAllySIP.sol\":28833:29037  function viewNomination(... */\n      swap4\n      swap3\n      pop\n      pop\n      pop\n      jump\t// out\n        /* \"TimeAllySIP.sol\":9923:10240  function sendPrepaidESDifferent(... */\n    tag_71:\n        /* \"TimeAllySIP.sol\":10040:10049  uint256 i */\n      0x00\n        /* \"TimeAllySIP.sol\":10052:10053  0 */\n      dup1\n        /* \"TimeAllySIP.sol\":10040:10053  uint256 i = 0 */\n      swap1\n      pop\n        /* \"TimeAllySIP.sol\":10036:10236  for(uint256 i = 0; i < _addresses.length; i++) {... */\n    tag_204:\n        /* \"TimeAllySIP.sol\":10059:10069  _addresses */\n      dup3\n        /* \"TimeAllySIP.sol\":10059:10076  _addresses.length */\n      mload\n        /* \"TimeAllySIP.sol\":10055:10056  i */\n      dup2\n        /* \"TimeAllySIP.sol\":10055:10076  i < _addresses.length */\n      lt\n        /* \"TimeAllySIP.sol\":10036:10236  for(uint256 i = 0; i < _addresses.length; i++) {... */\n      iszero\n      tag_205\n      jumpi\n        /* \"TimeAllySIP.sol\":10115:10153  prepaidES[msg.sender].sub(_amounts[i]) */\n      tag_207\n        /* \"TimeAllySIP.sol\":10141:10149  _amounts */\n      dup3\n        /* \"TimeAllySIP.sol\":10150:10151  i */\n      dup3\n        /* \"TimeAllySIP.sol\":10141:10152  _amounts[i] */\n      dup2\n      mload\n      dup2\n      lt\n      tag_208\n      jumpi\n      invalid\n    tag_208:\n      0x20\n      mul\n      0x20\n      add\n      add\n      mload\n        /* \"TimeAllySIP.sol\":10115:10124  prepaidES */\n      0x07\n        /* \"TimeAllySIP.sol\":10115:10136  prepaidES[msg.sender] */\n      0x00\n        /* \"TimeAllySIP.sol\":10125:10135  msg.sender */\n      caller\n        /* \"TimeAllySIP.sol\":10115:10136  prepaidES[msg.sender] */\n      0xffffffffffffffffffffffffffffffffffffffff\n      and\n      0xffffffffffffffffffffffffffffffffffffffff\n      and\n      dup2\n      mstore\n      0x20\n      add\n      swap1\n      dup2\n      mstore\n      0x20\n      add\n      0x00\n      keccak256\n      sload\n        /* \"TimeAllySIP.sol\":10115:10140  prepaidES[msg.sender].sub */\n      tag_128\n      swap1\n        /* \"TimeAllySIP.sol\":10115:10153  prepaidES[msg.sender].sub(_amounts[i]) */\n      swap2\n      swap1\n      0xffffffff\n      and\n      jump\t// in\n    tag_207:\n        /* \"TimeAllySIP.sol\":10091:10100  prepaidES */\n      0x07\n        /* \"TimeAllySIP.sol\":10091:10112  prepaidES[msg.sender] */\n      0x00\n        /* \"TimeAllySIP.sol\":10101:10111  msg.sender */\n      caller\n        /* \"TimeAllySIP.sol\":10091:10112  prepaidES[msg.sender] */\n      0xffffffffffffffffffffffffffffffffffffffff\n      and\n      0xffffffffffffffffffffffffffffffffffffffff\n      and\n      dup2\n      mstore\n      0x20\n      add\n      swap1\n      dup2\n      mstore\n      0x20\n      add\n      0x00\n      keccak256\n        /* \"TimeAllySIP.sol\":10091:10153  prepaidES[msg.sender] = prepaidES[msg.sender].sub(_amounts[i]) */\n      dup2\n      swap1\n      sstore\n      pop\n        /* \"TimeAllySIP.sol\":10188:10229  prepaidES[_addresses[i]].add(_amounts[i]) */\n      tag_209\n        /* \"TimeAllySIP.sol\":10217:10225  _amounts */\n      dup3\n        /* \"TimeAllySIP.sol\":10226:10227  i */\n      dup3\n        /* \"TimeAllySIP.sol\":10217:10228  _amounts[i] */\n      dup2\n      mload\n      dup2\n      lt\n      tag_210\n      jumpi\n      invalid\n    tag_210:\n      0x20\n      mul\n      0x20\n      add\n      add\n      mload\n        /* \"TimeAllySIP.sol\":10188:10197  prepaidES */\n      0x07\n        /* \"TimeAllySIP.sol\":10188:10212  prepaidES[_addresses[i]] */\n      0x00\n        /* \"TimeAllySIP.sol\":10198:10208  _addresses */\n      dup7\n        /* \"TimeAllySIP.sol\":10209:10210  i */\n      dup6\n        /* \"TimeAllySIP.sol\":10198:10211  _addresses[i] */\n      dup2\n      mload\n      dup2\n      lt\n      tag_211\n      jumpi\n      invalid\n    tag_211:\n      0x20\n      mul\n      0x20\n      add\n      add\n      mload\n        /* \"TimeAllySIP.sol\":10188:10212  prepaidES[_addresses[i]] */\n      0xffffffffffffffffffffffffffffffffffffffff\n      and\n      0xffffffffffffffffffffffffffffffffffffffff\n      and\n      dup2\n      mstore\n      0x20\n      add\n      swap1\n      dup2\n      mstore\n      0x20\n      add\n      0x00\n      keccak256\n      sload\n        /* \"TimeAllySIP.sol\":10188:10216  prepaidES[_addresses[i]].add */\n      tag_185\n      swap1\n        /* \"TimeAllySIP.sol\":10188:10229  prepaidES[_addresses[i]].add(_amounts[i]) */\n      swap2\n      swap1\n      0xffffffff\n      and\n      jump\t// in\n    tag_209:\n        /* \"TimeAllySIP.sol\":10161:10170  prepaidES */\n      0x07\n        /* \"TimeAllySIP.sol\":10161:10185  prepaidES[_addresses[i]] */\n      0x00\n        /* \"TimeAllySIP.sol\":10171:10181  _addresses */\n      dup6\n        /* \"TimeAllySIP.sol\":10182:10183  i */\n      dup5\n        /* \"TimeAllySIP.sol\":10171:10184  _addresses[i] */\n      dup2\n      mload\n      dup2\n      lt\n      tag_212\n      jumpi\n      invalid\n    tag_212:\n      0x20\n      mul\n      0x20\n      add\n      add\n      mload\n        /* \"TimeAllySIP.sol\":10161:10185  prepaidES[_addresses[i]] */\n      0xffffffffffffffffffffffffffffffffffffffff\n      and\n      0xffffffffffffffffffffffffffffffffffffffff\n      and\n      dup2\n      mstore\n      0x20\n      add\n      swap1\n      dup2\n      mstore\n      0x20\n      add\n      0x00\n      keccak256\n        /* \"TimeAllySIP.sol\":10161:10229  prepaidES[_addresses[i]] = prepaidES[_addresses[i]].add(_amounts[i]) */\n      dup2\n      swap1\n      sstore\n      pop\n        /* \"TimeAllySIP.sol\":10078:10081  i++ */\n      dup1\n      dup1\n      0x01\n      add\n      swap2\n      pop\n      pop\n        /* \"TimeAllySIP.sol\":10036:10236  for(uint256 i = 0; i < _addresses.length; i++) {... */\n      jump(tag_204)\n    tag_205:\n      pop\n        /* \"TimeAllySIP.sol\":9923:10240  function sendPrepaidESDifferent(... */\n      pop\n      pop\n      jump\t// out\n        /* \"TimeAllySIP.sol\":7882:8013  function updatePlanStatus(uint256 _planId, bool _newStatus) public onlyOwner {... */\n    tag_74:\n        /* \"TimeAllySIP.sol\":5811:5816  owner */\n      0x00\n      dup1\n      swap1\n      sload\n      swap1\n      0x0100\n      exp\n      swap1\n      div\n      0xffffffffffffffffffffffffffffffffffffffff\n      and\n        /* \"TimeAllySIP.sol\":5797:5816  msg.sender == owner */\n      0xffffffffffffffffffffffffffffffffffffffff\n      and\n        /* \"TimeAllySIP.sol\":5797:5807  msg.sender */\n      caller\n        /* \"TimeAllySIP.sol\":5797:5816  msg.sender == owner */\n      0xffffffffffffffffffffffffffffffffffffffff\n      and\n      eq\n        /* \"TimeAllySIP.sol\":5789:5843  require(msg.sender == owner, 'only deployer can call') */\n      tag_214\n      jumpi\n      mload(0x40)\n      0x08c379a000000000000000000000000000000000000000000000000000000000\n      dup2\n      mstore\n      0x04\n      add\n      dup1\n      dup1\n      0x20\n      add\n      dup3\n      dup2\n      sub\n      dup3\n      mstore\n      0x16\n      dup2\n      mstore\n      0x20\n      add\n      dup1\n      0x6f6e6c79206465706c6f7965722063616e2063616c6c00000000000000000000\n      dup2\n      mstore\n      pop\n      0x20\n      add\n      swap2\n      pop\n      pop\n      mload(0x40)\n      dup1\n      swap2\n      sub\n      swap1\n      revert\n    tag_214:\n        /* \"TimeAllySIP.sol\":7998:8008  _newStatus */\n      dup1\n        /* \"TimeAllySIP.sol\":7965:7973  sipPlans */\n      0x05\n        /* \"TimeAllySIP.sol\":7974:7981  _planId */\n      dup4\n        /* \"TimeAllySIP.sol\":7965:7982  sipPlans[_planId] */\n      dup2\n      sload\n      dup2\n      lt\n      tag_216\n      jumpi\n      invalid\n    tag_216:\n      swap1\n      0x00\n      mstore\n      keccak256(0x00, 0x20)\n      swap1\n      0x08\n      mul\n      add\n        /* \"TimeAllySIP.sol\":7965:7995  sipPlans[_planId].isPlanActive */\n      0x00\n      add\n      0x00\n        /* \"TimeAllySIP.sol\":7965:8008  sipPlans[_planId].isPlanActive = _newStatus */\n      0x0100\n      exp\n      dup2\n      sload\n      dup2\n      0xff\n      mul\n      not\n      and\n      swap1\n      dup4\n      iszero\n      iszero\n      mul\n      or\n      swap1\n      sstore\n      pop\n        /* \"TimeAllySIP.sol\":7882:8013  function updatePlanStatus(uint256 _planId, bool _newStatus) public onlyOwner {... */\n      pop\n      pop\n      jump\t// out\n        /* \"TimeAllySIP.sol\":29340:29552  function viewAppointation(... */\n    tag_77:\n        /* \"TimeAllySIP.sol\":29470:29474  bool */\n      0x00\n        /* \"TimeAllySIP.sol\":29489:29493  sips */\n      0x06\n        /* \"TimeAllySIP.sol\":29489:29509  sips[_stakerAddress] */\n      0x00\n        /* \"TimeAllySIP.sol\":29494:29508  _stakerAddress */\n      dup6\n        /* \"TimeAllySIP.sol\":29489:29509  sips[_stakerAddress] */\n      0xffffffffffffffffffffffffffffffffffffffff\n      and\n      0xffffffffffffffffffffffffffffffffffffffff\n      and\n      dup2\n      mstore\n      0x20\n      add\n      swap1\n      dup2\n      mstore\n      0x20\n      add\n      0x00\n      keccak256\n        /* \"TimeAllySIP.sol\":29510:29516  _sipId */\n      dup4\n        /* \"TimeAllySIP.sol\":29489:29517  sips[_stakerAddress][_sipId] */\n      dup2\n      sload\n      dup2\n      lt\n      tag_219\n      jumpi\n      invalid\n    tag_219:\n      swap1\n      0x00\n      mstore\n      keccak256(0x00, 0x20)\n      swap1\n      0x0c\n      mul\n      add\n        /* \"TimeAllySIP.sol\":29489:29528  sips[_stakerAddress][_sipId].appointees */\n      0x0b\n      add\n        /* \"TimeAllySIP.sol\":29489:29547  sips[_stakerAddress][_sipId].appointees[_appointeeAddress] */\n      0x00\n        /* \"TimeAllySIP.sol\":29529:29546  _appointeeAddress */\n      dup4\n        /* \"TimeAllySIP.sol\":29489:29547  sips[_stakerAddress][_sipId].appointees[_appointeeAddress] */\n      0xffffffffffffffffffffffffffffffffffffffff\n      and\n      0xffffffffffffffffffffffffffffffffffffffff\n      and\n      dup2\n      mstore\n      0x20\n      add\n      swap1\n      dup2\n      mstore\n      0x20\n      add\n      0x00\n      keccak256\n      0x00\n      swap1\n      sload\n      swap1\n      0x0100\n      exp\n      swap1\n      div\n      0xff\n      and\n        /* \"TimeAllySIP.sol\":29482:29547  return sips[_stakerAddress][_sipId].appointees[_appointeeAddress] */\n      swap1\n      pop\n        /* \"TimeAllySIP.sol\":29340:29552  function viewAppointation(... */\n      swap4\n      swap3\n      pop\n      pop\n      pop\n      jump\t// out\n        /* \"TimeAllySIP.sol\":2761:2781  address public owner */\n    tag_79:\n      0x00\n      dup1\n      swap1\n      sload\n      swap1\n      0x0100\n      exp\n      swap1\n      div\n      0xffffffffffffffffffffffffffffffffffffffff\n      and\n      dup2\n      jump\t// out\n        /* \"TimeAllySIP.sol\":24821:25892  function getDepositStatus(... */\n    tag_82:\n        /* \"TimeAllySIP.sol\":24942:24949  uint256 */\n      0x00\n        /* \"TimeAllySIP.sol\":24957:24973  SIP storage _sip */\n      dup1\n        /* \"TimeAllySIP.sol\":24976:24980  sips */\n      0x06\n        /* \"TimeAllySIP.sol\":24976:24996  sips[_stakerAddress] */\n      0x00\n        /* \"TimeAllySIP.sol\":24981:24995  _stakerAddress */\n      dup7\n        /* \"TimeAllySIP.sol\":24976:24996  sips[_stakerAddress] */\n      0xffffffffffffffffffffffffffffffffffffffff\n      and\n      0xffffffffffffffffffffffffffffffffffffffff\n      and\n      dup2\n      mstore\n      0x20\n      add\n      swap1\n      dup2\n      mstore\n      0x20\n      add\n      0x00\n      keccak256\n        /* \"TimeAllySIP.sol\":24997:25003  _sipId */\n      dup5\n        /* \"TimeAllySIP.sol\":24976:25004  sips[_stakerAddress][_sipId] */\n      dup2\n      sload\n      dup2\n      lt\n      tag_222\n      jumpi\n      invalid\n    tag_222:\n      swap1\n      0x00\n      mstore\n      keccak256(0x00, 0x20)\n      swap1\n      0x0c\n      mul\n      add\n        /* \"TimeAllySIP.sol\":24957:25004  SIP storage _sip = sips[_stakerAddress][_sipId] */\n      swap1\n      pop\n        /* \"TimeAllySIP.sol\":25109:25110  1 */\n      0x01\n        /* \"TimeAllySIP.sol\":25097:25105  _monthId */\n      dup4\n        /* \"TimeAllySIP.sol\":25097:25110  _monthId >= 1 */\n      lt\n      iszero\n        /* \"TimeAllySIP.sol\":25097:25182  _monthId >= 1 && _monthId... */\n      dup1\n      iszero\n      tag_224\n      jumpi\n      pop\n        /* \"TimeAllySIP.sol\":25134:25142  sipPlans */\n      0x05\n        /* \"TimeAllySIP.sol\":25144:25148  _sip */\n      dup2\n        /* \"TimeAllySIP.sol\":25144:25155  _sip.planId */\n      0x00\n      add\n      sload\n        /* \"TimeAllySIP.sol\":25134:25157  sipPlans[ _sip.planId ] */\n      dup2\n      sload\n      dup2\n      lt\n      tag_225\n      jumpi\n      invalid\n    tag_225:\n      swap1\n      0x00\n      mstore\n      keccak256(0x00, 0x20)\n      swap1\n      0x08\n      mul\n      add\n        /* \"TimeAllySIP.sol\":25134:25182  sipPlans[ _sip.planId ].accumulationPeriodMonths */\n      0x02\n      add\n      sload\n        /* \"TimeAllySIP.sol\":25114:25122  _monthId */\n      dup4\n        /* \"TimeAllySIP.sol\":25114:25182  _monthId... */\n      gt\n      iszero\n        /* \"TimeAllySIP.sol\":25097:25182  _monthId >= 1 && _monthId... */\n    tag_224:\n        /* \"TimeAllySIP.sol\":25082:25220  require(... */\n      tag_227\n      jumpi\n      mload(0x40)\n      0x08c379a000000000000000000000000000000000000000000000000000000000\n      dup2\n      mstore\n      0x04\n      add\n      dup1\n      dup1\n      0x20\n      add\n      dup3\n      dup2\n      sub\n      dup3\n      mstore\n      0x15\n      dup2\n      mstore\n      0x20\n      add\n      dup1\n      0x696e76616c6964206465706f736974206d6f6e74680000000000000000000000\n      dup2\n      mstore\n      pop\n      0x20\n      add\n      swap2\n      pop\n      pop\n      mload(0x40)\n      dup1\n      swap2\n      sub\n      swap1\n      revert\n    tag_227:\n        /* \"TimeAllySIP.sol\":25288:25311  uint256 onTimeTimestamp */\n      0x00\n        /* \"TimeAllySIP.sol\":25375:25376  1 */\n      0x01\n        /* \"TimeAllySIP.sol\":25364:25372  _monthId */\n      dup5\n        /* \"TimeAllySIP.sol\":25364:25376  _monthId - 1 */\n      sub\n        /* \"TimeAllySIP.sol\":25338:25360  EARTH_SECONDS_IN_MONTH */\n      sload(0x02)\n        /* \"TimeAllySIP.sol\":25338:25377  EARTH_SECONDS_IN_MONTH * (_monthId - 1) */\n      mul\n        /* \"TimeAllySIP.sol\":25314:25318  _sip */\n      dup3\n        /* \"TimeAllySIP.sol\":25314:25335  _sip.stakingTimestamp */\n      0x01\n      add\n      sload\n        /* \"TimeAllySIP.sol\":25314:25377  _sip.stakingTimestamp + EARTH_SECONDS_IN_MONTH * (_monthId - 1) */\n      add\n        /* \"TimeAllySIP.sol\":25288:25377  uint256 onTimeTimestamp = _sip.stakingTimestamp + EARTH_SECONDS_IN_MONTH * (_monthId - 1) */\n      swap1\n      pop\n        /* \"TimeAllySIP.sol\":25474:25496  EARTH_SECONDS_IN_MONTH */\n      sload(0x02)\n        /* \"TimeAllySIP.sol\":25456:25471  onTimeTimestamp */\n      dup2\n        /* \"TimeAllySIP.sol\":25456:25496  onTimeTimestamp - EARTH_SECONDS_IN_MONTH */\n      sub\n        /* \"TimeAllySIP.sol\":25450:25453  now */\n      timestamp\n        /* \"TimeAllySIP.sol\":25450:25496  now < onTimeTimestamp - EARTH_SECONDS_IN_MONTH */\n      lt\n        /* \"TimeAllySIP.sol\":25447:25888  if(now < onTimeTimestamp - EARTH_SECONDS_IN_MONTH) {... */\n      iszero\n      tag_228\n      jumpi\n        /* \"TimeAllySIP.sol\":25513:25514  0 */\n      0x00\n        /* \"TimeAllySIP.sol\":25506:25514  return 0 */\n      swap3\n      pop\n      pop\n      pop\n      jump(tag_221)\n        /* \"TimeAllySIP.sol\":25447:25888  if(now < onTimeTimestamp - EARTH_SECONDS_IN_MONTH) {... */\n    tag_228:\n        /* \"TimeAllySIP.sol\":25602:25605  now */\n      timestamp\n        /* \"TimeAllySIP.sol\":25583:25598  onTimeTimestamp */\n      dup2\n        /* \"TimeAllySIP.sol\":25583:25605  onTimeTimestamp >= now */\n      lt\n        /* \"TimeAllySIP.sol\":25580:25888  if(onTimeTimestamp >= now) {... */\n      tag_230\n      jumpi\n        /* \"TimeAllySIP.sol\":25622:25623  2 */\n      0x02\n        /* \"TimeAllySIP.sol\":25615:25623  return 2 */\n      swap3\n      pop\n      pop\n      pop\n      jump(tag_221)\n        /* \"TimeAllySIP.sol\":25580:25888  if(onTimeTimestamp >= now) {... */\n    tag_230:\n        /* \"TimeAllySIP.sol\":25739:25742  now */\n      timestamp\n        /* \"TimeAllySIP.sol\":25693:25701  sipPlans */\n      0x05\n        /* \"TimeAllySIP.sol\":25703:25707  _sip */\n      dup4\n        /* \"TimeAllySIP.sol\":25703:25714  _sip.planId */\n      0x00\n      add\n      sload\n        /* \"TimeAllySIP.sol\":25693:25716  sipPlans[ _sip.planId ] */\n      dup2\n      sload\n      dup2\n      lt\n      tag_232\n      jumpi\n      invalid\n    tag_232:\n      swap1\n      0x00\n      mstore\n      keccak256(0x00, 0x20)\n      swap1\n      0x08\n      mul\n      add\n        /* \"TimeAllySIP.sol\":25693:25735  sipPlans[ _sip.planId ].gracePeriodSeconds */\n      0x04\n      add\n      sload\n        /* \"TimeAllySIP.sol\":25675:25690  onTimeTimestamp */\n      dup3\n        /* \"TimeAllySIP.sol\":25675:25735  onTimeTimestamp + sipPlans[ _sip.planId ].gracePeriodSeconds */\n      add\n        /* \"TimeAllySIP.sol\":25675:25742  onTimeTimestamp + sipPlans[ _sip.planId ].gracePeriodSeconds >= now */\n      lt\n        /* \"TimeAllySIP.sol\":25672:25888  if(onTimeTimestamp + sipPlans[ _sip.planId ].gracePeriodSeconds >= now) {... */\n      tag_234\n      jumpi\n        /* \"TimeAllySIP.sol\":25759:25760  1 */\n      0x01\n        /* \"TimeAllySIP.sol\":25752:25760  return 1 */\n      swap3\n      pop\n      pop\n      pop\n      jump(tag_221)\n        /* \"TimeAllySIP.sol\":25672:25888  if(onTimeTimestamp + sipPlans[ _sip.planId ].gracePeriodSeconds >= now) {... */\n    tag_234:\n        /* \"TimeAllySIP.sol\":25833:25834  0 */\n      0x00\n        /* \"TimeAllySIP.sol\":25826:25834  return 0 */\n      swap3\n      pop\n      pop\n      pop\n        /* \"TimeAllySIP.sol\":24821:25892  function getDepositStatus(... */\n    tag_221:\n      swap4\n      swap3\n      pop\n      pop\n      pop\n      jump\t// out\n        /* \"TimeAllySIP.sol\":26346:28304  function getPendingWithdrawlAmount(... */\n    tag_85:\n        /* \"TimeAllySIP.sol\":26517:26524  uint256 */\n      0x00\n        /* \"TimeAllySIP.sol\":26532:26548  SIP storage _sip */\n      dup1\n        /* \"TimeAllySIP.sol\":26551:26555  sips */\n      0x06\n        /* \"TimeAllySIP.sol\":26551:26571  sips[_stakerAddress] */\n      0x00\n        /* \"TimeAllySIP.sol\":26556:26570  _stakerAddress */\n      dup8\n        /* \"TimeAllySIP.sol\":26551:26571  sips[_stakerAddress] */\n      0xffffffffffffffffffffffffffffffffffffffff\n      and\n      0xffffffffffffffffffffffffffffffffffffffff\n      and\n      dup2\n      mstore\n      0x20\n      add\n      swap1\n      dup2\n      mstore\n      0x20\n      add\n      0x00\n      keccak256\n        /* \"TimeAllySIP.sol\":26572:26578  _sipId */\n      dup6\n        /* \"TimeAllySIP.sol\":26551:26579  sips[_stakerAddress][_sipId] */\n      dup2\n      sload\n      dup2\n      lt\n      tag_237\n      jumpi\n      invalid\n    tag_237:\n      swap1\n      0x00\n      mstore\n      keccak256(0x00, 0x20)\n      swap1\n      0x0c\n      mul\n      add\n        /* \"TimeAllySIP.sol\":26532:26579  SIP storage _sip = sips[_stakerAddress][_sipId] */\n      swap1\n      pop\n        /* \"TimeAllySIP.sol\":26682:26683  0 */\n      0x00\n        /* \"TimeAllySIP.sol\":26662:26679  _withdrawlMonthId */\n      dup5\n        /* \"TimeAllySIP.sol\":26662:26683  _withdrawlMonthId > 0 */\n      gt\n        /* \"TimeAllySIP.sol\":26662:26755  _withdrawlMonthId > 0 && _withdrawlMonthId <= sipPlans[ _sip.planId ].benefitPeriodYears * 12 */\n      dup1\n      iszero\n      tag_239\n      jumpi\n      pop\n        /* \"TimeAllySIP.sol\":26753:26755  12 */\n      0x0c\n        /* \"TimeAllySIP.sol\":26708:26716  sipPlans */\n      0x05\n        /* \"TimeAllySIP.sol\":26718:26722  _sip */\n      dup3\n        /* \"TimeAllySIP.sol\":26718:26729  _sip.planId */\n      0x00\n      add\n      sload\n        /* \"TimeAllySIP.sol\":26708:26731  sipPlans[ _sip.planId ] */\n      dup2\n      sload\n      dup2\n      lt\n      tag_240\n      jumpi\n      invalid\n    tag_240:\n      swap1\n      0x00\n      mstore\n      keccak256(0x00, 0x20)\n      swap1\n      0x08\n      mul\n      add\n        /* \"TimeAllySIP.sol\":26708:26750  sipPlans[ _sip.planId ].benefitPeriodYears */\n      0x03\n      add\n      sload\n        /* \"TimeAllySIP.sol\":26708:26755  sipPlans[ _sip.planId ].benefitPeriodYears * 12 */\n      mul\n        /* \"TimeAllySIP.sol\":26687:26704  _withdrawlMonthId */\n      dup5\n        /* \"TimeAllySIP.sol\":26687:26755  _withdrawlMonthId <= sipPlans[ _sip.planId ].benefitPeriodYears * 12 */\n      gt\n      iszero\n        /* \"TimeAllySIP.sol\":26662:26755  _withdrawlMonthId > 0 && _withdrawlMonthId <= sipPlans[ _sip.planId ].benefitPeriodYears * 12 */\n    tag_239:\n        /* \"TimeAllySIP.sol\":26647:26794  require(... */\n      tag_242\n      jumpi\n      mload(0x40)\n      0x08c379a000000000000000000000000000000000000000000000000000000000\n      dup2\n      mstore\n      0x04\n      add\n      dup1\n      dup1\n      0x20\n      add\n      dup3\n      dup2\n      sub\n      dup3\n      mstore\n      0x16\n      dup2\n      mstore\n      0x20\n      add\n      dup1\n      0x696e76616c6964207769746864726177206d6f6e746800000000000000000000\n      dup2\n      mstore\n      pop\n      0x20\n      add\n      swap2\n      pop\n      pop\n      mload(0x40)\n      dup1\n      swap2\n      sub\n      swap1\n      revert\n    tag_242:\n        /* \"TimeAllySIP.sol\":26909:26913  _sip */\n      dup1\n        /* \"TimeAllySIP.sol\":26909:26934  _sip.lastWithdrawlMonthId */\n      0x04\n      add\n      sload\n        /* \"TimeAllySIP.sol\":26889:26906  _withdrawlMonthId */\n      dup5\n        /* \"TimeAllySIP.sol\":26889:26934  _withdrawlMonthId > _sip.lastWithdrawlMonthId */\n      gt\n        /* \"TimeAllySIP.sol\":26874:26972  require(... */\n      tag_243\n      jumpi\n      mload(0x40)\n      0x08c379a000000000000000000000000000000000000000000000000000000000\n      dup2\n      mstore\n      0x04\n      add\n      dup1\n      dup1\n      0x20\n      add\n      dup3\n      dup2\n      sub\n      dup3\n      mstore\n      0x15\n      dup2\n      mstore\n      0x20\n      add\n      dup1\n      0x63616e6e6f7420776974686472617720616761696e0000000000000000000000\n      dup2\n      mstore\n      pop\n      0x20\n      add\n      swap2\n      pop\n      pop\n      mload(0x40)\n      dup1\n      swap2\n      sub\n      swap1\n      revert\n    tag_243:\n        /* \"TimeAllySIP.sol\":27029:27062  uint256 withdrawlAllowedTimestamp */\n      0x00\n        /* \"TimeAllySIP.sol\":27223:27224  1 */\n      0x01\n        /* \"TimeAllySIP.sol\":27203:27220  _withdrawlMonthId */\n      dup6\n        /* \"TimeAllySIP.sol\":27140:27148  sipPlans */\n      0x05\n        /* \"TimeAllySIP.sol\":27150:27154  _sip */\n      dup5\n        /* \"TimeAllySIP.sol\":27150:27161  _sip.planId */\n      0x00\n      add\n      sload\n        /* \"TimeAllySIP.sol\":27140:27163  sipPlans[ _sip.planId ] */\n      dup2\n      sload\n      dup2\n      lt\n      tag_244\n      jumpi\n      invalid\n    tag_244:\n      swap1\n      0x00\n      mstore\n      keccak256(0x00, 0x20)\n      swap1\n      0x08\n      mul\n      add\n        /* \"TimeAllySIP.sol\":27140:27188  sipPlans[ _sip.planId ].accumulationPeriodMonths */\n      0x02\n      add\n      sload\n        /* \"TimeAllySIP.sol\":27140:27220  sipPlans[ _sip.planId ].accumulationPeriodMonths... */\n      add\n        /* \"TimeAllySIP.sol\":27140:27224  sipPlans[ _sip.planId ].accumulationPeriodMonths... */\n      sub\n        /* \"TimeAllySIP.sol\":27103:27125  EARTH_SECONDS_IN_MONTH */\n      sload(0x02)\n        /* \"TimeAllySIP.sol\":27103:27234  EARTH_SECONDS_IN_MONTH * (... */\n      mul\n        /* \"TimeAllySIP.sol\":27071:27075  _sip */\n      dup3\n        /* \"TimeAllySIP.sol\":27071:27092  _sip.stakingTimestamp */\n      0x01\n      add\n      sload\n        /* \"TimeAllySIP.sol\":27071:27234  _sip.stakingTimestamp... */\n      add\n        /* \"TimeAllySIP.sol\":27029:27234  uint256 withdrawlAllowedTimestamp... */\n      swap1\n      pop\n        /* \"TimeAllySIP.sol\":27311:27332  _isNomineeWithdrawing */\n      dup4\n        /* \"TimeAllySIP.sol\":27308:27722  if(_isNomineeWithdrawing) {... */\n      iszero\n      tag_246\n      jumpi\n        /* \"TimeAllySIP.sol\":27367:27397  _sip.numberOfAppointees.div(2) */\n      tag_247\n        /* \"TimeAllySIP.sol\":27395:27396  2 */\n      0x02\n        /* \"TimeAllySIP.sol\":27367:27371  _sip */\n      dup4\n        /* \"TimeAllySIP.sol\":27367:27390  _sip.numberOfAppointees */\n      0x06\n      add\n      sload\n        /* \"TimeAllySIP.sol\":27367:27394  _sip.numberOfAppointees.div */\n      tag_162\n      swap1\n        /* \"TimeAllySIP.sol\":27367:27397  _sip.numberOfAppointees.div(2) */\n      swap2\n      swap1\n      0xffffffff\n      and\n      jump\t// in\n    tag_247:\n        /* \"TimeAllySIP.sol\":27345:27349  _sip */\n      dup3\n        /* \"TimeAllySIP.sol\":27345:27364  _sip.appointeeVotes */\n      0x07\n      add\n      sload\n        /* \"TimeAllySIP.sol\":27345:27397  _sip.appointeeVotes > _sip.numberOfAppointees.div(2) */\n      gt\n        /* \"TimeAllySIP.sol\":27342:27716  if(_sip.appointeeVotes > _sip.numberOfAppointees.div(2)) {... */\n      iszero\n      tag_248\n      jumpi\n        /* \"TimeAllySIP.sol\":27545:27546  6 */\n      0x06\n        /* \"TimeAllySIP.sol\":27520:27542  EARTH_SECONDS_IN_MONTH */\n      sload(0x02)\n        /* \"TimeAllySIP.sol\":27520:27546  EARTH_SECONDS_IN_MONTH * 6 */\n      mul\n        /* \"TimeAllySIP.sol\":27491:27546  withdrawlAllowedTimestamp += EARTH_SECONDS_IN_MONTH * 6 */\n      dup2\n      add\n      swap1\n      pop\n        /* \"TimeAllySIP.sol\":27342:27716  if(_sip.appointeeVotes > _sip.numberOfAppointees.div(2)) {... */\n      jump(tag_249)\n    tag_248:\n        /* \"TimeAllySIP.sol\":27705:27707  12 */\n      0x0c\n        /* \"TimeAllySIP.sol\":27680:27702  EARTH_SECONDS_IN_MONTH */\n      sload(0x02)\n        /* \"TimeAllySIP.sol\":27680:27707  EARTH_SECONDS_IN_MONTH * 12 */\n      mul\n        /* \"TimeAllySIP.sol\":27651:27707  withdrawlAllowedTimestamp += EARTH_SECONDS_IN_MONTH * 12 */\n      dup2\n      add\n      swap1\n      pop\n        /* \"TimeAllySIP.sol\":27342:27716  if(_sip.appointeeVotes > _sip.numberOfAppointees.div(2)) {... */\n    tag_249:\n        /* \"TimeAllySIP.sol\":27308:27722  if(_isNomineeWithdrawing) {... */\n    tag_246:\n        /* \"TimeAllySIP.sol\":27787:27812  withdrawlAllowedTimestamp */\n      dup1\n        /* \"TimeAllySIP.sol\":27780:27783  now */\n      timestamp\n        /* \"TimeAllySIP.sol\":27780:27812  now >= withdrawlAllowedTimestamp */\n      lt\n      iszero\n        /* \"TimeAllySIP.sol\":27772:27850  require(now >= withdrawlAllowedTimestamp... */\n      tag_250\n      jumpi\n      mload(0x40)\n      0x08c379a000000000000000000000000000000000000000000000000000000000\n      dup2\n      mstore\n      0x04\n      add\n      dup1\n      dup1\n      0x20\n      add\n      dup3\n      dup2\n      sub\n      dup3\n      mstore\n      0x15\n      dup2\n      mstore\n      0x20\n      add\n      dup1\n      0x63616e6e6f74207769746864726177206561726c790000000000000000000000\n      dup2\n      mstore\n      pop\n      0x20\n      add\n      swap2\n      pop\n      pop\n      mload(0x40)\n      dup1\n      swap2\n      sub\n      swap1\n      revert\n    tag_250:\n        /* \"TimeAllySIP.sol\":27899:27921  uint256 _benefitToGive */\n      0x00\n        /* \"TimeAllySIP.sol\":27931:27941  uint256 _i */\n      dup1\n        /* \"TimeAllySIP.sol\":27972:27973  1 */\n      0x01\n        /* \"TimeAllySIP.sol\":27944:27948  _sip */\n      dup5\n        /* \"TimeAllySIP.sol\":27944:27969  _sip.lastWithdrawlMonthId */\n      0x04\n      add\n      sload\n        /* \"TimeAllySIP.sol\":27944:27973  _sip.lastWithdrawlMonthId + 1 */\n      add\n        /* \"TimeAllySIP.sol\":27931:27973  uint256 _i = _sip.lastWithdrawlMonthId + 1 */\n      swap1\n      pop\n        /* \"TimeAllySIP.sol\":27927:28272  for(uint256 _i = _sip.lastWithdrawlMonthId + 1; _i <= _withdrawlMonthId; _i++) {... */\n    tag_251:\n        /* \"TimeAllySIP.sol\":27981:27998  _withdrawlMonthId */\n      dup7\n        /* \"TimeAllySIP.sol\":27975:27977  _i */\n      dup2\n        /* \"TimeAllySIP.sol\":27975:27998  _i <= _withdrawlMonthId */\n      gt\n        /* \"TimeAllySIP.sol\":27927:28272  for(uint256 _i = _sip.lastWithdrawlMonthId + 1; _i <= _withdrawlMonthId; _i++) {... */\n      tag_252\n      jumpi\n        /* \"TimeAllySIP.sol\":28014:28030  uint256 _modulus */\n      0x00\n        /* \"TimeAllySIP.sol\":28036:28044  sipPlans */\n      0x05\n        /* \"TimeAllySIP.sol\":28046:28050  _sip */\n      dup6\n        /* \"TimeAllySIP.sol\":28046:28057  _sip.planId */\n      0x00\n      add\n      sload\n        /* \"TimeAllySIP.sol\":28036:28059  sipPlans[ _sip.planId ] */\n      dup2\n      sload\n      dup2\n      lt\n      tag_254\n      jumpi\n      invalid\n    tag_254:\n      swap1\n      0x00\n      mstore\n      keccak256(0x00, 0x20)\n      swap1\n      0x08\n      mul\n      add\n        /* \"TimeAllySIP.sol\":28036:28084  sipPlans[ _sip.planId ].accumulationPeriodMonths */\n      0x02\n      add\n      sload\n        /* \"TimeAllySIP.sol\":28033:28035  _i */\n      dup3\n        /* \"TimeAllySIP.sol\":28033:28084  _i%sipPlans[ _sip.planId ].accumulationPeriodMonths */\n      dup2\n      tag_256\n      jumpi\n      invalid\n    tag_256:\n      mod\n        /* \"TimeAllySIP.sol\":28014:28084  uint256 _modulus = _i%sipPlans[ _sip.planId ].accumulationPeriodMonths */\n      swap1\n      pop\n        /* \"TimeAllySIP.sol\":28107:28108  0 */\n      0x00\n        /* \"TimeAllySIP.sol\":28095:28103  _modulus */\n      dup2\n        /* \"TimeAllySIP.sol\":28095:28108  _modulus == 0 */\n      eq\n        /* \"TimeAllySIP.sol\":28092:28169  if(_modulus == 0) _modulus = sipPlans[ _sip.planId ].accumulationPeriodMonths */\n      iszero\n      tag_257\n      jumpi\n        /* \"TimeAllySIP.sol\":28121:28129  sipPlans */\n      0x05\n        /* \"TimeAllySIP.sol\":28131:28135  _sip */\n      dup6\n        /* \"TimeAllySIP.sol\":28131:28142  _sip.planId */\n      0x00\n      add\n      sload\n        /* \"TimeAllySIP.sol\":28121:28144  sipPlans[ _sip.planId ] */\n      dup2\n      sload\n      dup2\n      lt\n      tag_258\n      jumpi\n      invalid\n    tag_258:\n      swap1\n      0x00\n      mstore\n      keccak256(0x00, 0x20)\n      swap1\n      0x08\n      mul\n      add\n        /* \"TimeAllySIP.sol\":28121:28169  sipPlans[ _sip.planId ].accumulationPeriodMonths */\n      0x02\n      add\n      sload\n        /* \"TimeAllySIP.sol\":28110:28169  _modulus = sipPlans[ _sip.planId ].accumulationPeriodMonths */\n      swap1\n      pop\n        /* \"TimeAllySIP.sol\":28092:28169  if(_modulus == 0) _modulus = sipPlans[ _sip.planId ].accumulationPeriodMonths */\n    tag_257:\n        /* \"TimeAllySIP.sol\":28194:28265  _benefitToGive.add(... */\n      tag_260\n        /* \"TimeAllySIP.sol\":28222:28226  _sip */\n      dup6\n        /* \"TimeAllySIP.sol\":28222:28247  _sip.monthlyBenefitAmount */\n      0x09\n      add\n        /* \"TimeAllySIP.sol\":28222:28257  _sip.monthlyBenefitAmount[_modulus] */\n      0x00\n        /* \"TimeAllySIP.sol\":28248:28256  _modulus */\n      dup4\n        /* \"TimeAllySIP.sol\":28222:28257  _sip.monthlyBenefitAmount[_modulus] */\n      dup2\n      mstore\n      0x20\n      add\n      swap1\n      dup2\n      mstore\n      0x20\n      add\n      0x00\n      keccak256\n      sload\n        /* \"TimeAllySIP.sol\":28194:28208  _benefitToGive */\n      dup5\n        /* \"TimeAllySIP.sol\":28194:28212  _benefitToGive.add */\n      tag_185\n      swap1\n        /* \"TimeAllySIP.sol\":28194:28265  _benefitToGive.add(... */\n      swap2\n      swap1\n      0xffffffff\n      and\n      jump\t// in\n    tag_260:\n        /* \"TimeAllySIP.sol\":28177:28265  _benefitToGive = _benefitToGive.add(... */\n      swap3\n      pop\n        /* \"TimeAllySIP.sol\":27927:28272  for(uint256 _i = _sip.lastWithdrawlMonthId + 1; _i <= _withdrawlMonthId; _i++) {... */\n      pop\n        /* \"TimeAllySIP.sol\":28000:28004  _i++ */\n      dup1\n      dup1\n      0x01\n      add\n      swap2\n      pop\n      pop\n        /* \"TimeAllySIP.sol\":27927:28272  for(uint256 _i = _sip.lastWithdrawlMonthId + 1; _i <= _withdrawlMonthId; _i++) {... */\n      jump(tag_251)\n    tag_252:\n      pop\n        /* \"TimeAllySIP.sol\":28285:28299  _benefitToGive */\n      dup1\n        /* \"TimeAllySIP.sol\":28278:28299  return _benefitToGive */\n      swap4\n      pop\n      pop\n      pop\n      pop\n        /* \"TimeAllySIP.sol\":26346:28304  function getPendingWithdrawlAmount(... */\n      swap5\n      swap4\n      pop\n      pop\n      pop\n      pop\n      jump\t// out\n        /* \"TimeAllySIP.sol\":23277:23872  function appointeeVote(... */\n    tag_88:\n        /* \"TimeAllySIP.sol\":23365:23381  SIP storage _sip */\n      0x00\n        /* \"TimeAllySIP.sol\":23384:23388  sips */\n      0x06\n        /* \"TimeAllySIP.sol\":23384:23404  sips[_stakerAddress] */\n      0x00\n        /* \"TimeAllySIP.sol\":23389:23403  _stakerAddress */\n      dup5\n        /* \"TimeAllySIP.sol\":23384:23404  sips[_stakerAddress] */\n      0xffffffffffffffffffffffffffffffffffffffff\n      and\n      0xffffffffffffffffffffffffffffffffffffffff\n      and\n      dup2\n      mstore\n      0x20\n      add\n      swap1\n      dup2\n      mstore\n      0x20\n      add\n      0x00\n      keccak256\n        /* \"TimeAllySIP.sol\":23405:23411  _sipId */\n      dup3\n        /* \"TimeAllySIP.sol\":23384:23412  sips[_stakerAddress][_sipId] */\n      dup2\n      sload\n      dup2\n      lt\n      tag_262\n      jumpi\n      invalid\n    tag_262:\n      swap1\n      0x00\n      mstore\n      keccak256(0x00, 0x20)\n      swap1\n      0x0c\n      mul\n      add\n        /* \"TimeAllySIP.sol\":23365:23412  SIP storage _sip = sips[_stakerAddress][_sipId] */\n      swap1\n      pop\n        /* \"TimeAllySIP.sol\":23491:23495  _sip */\n      dup1\n        /* \"TimeAllySIP.sol\":23491:23506  _sip.appointees */\n      0x0b\n      add\n        /* \"TimeAllySIP.sol\":23491:23518  _sip.appointees[msg.sender] */\n      0x00\n        /* \"TimeAllySIP.sol\":23507:23517  msg.sender */\n      caller\n        /* \"TimeAllySIP.sol\":23491:23518  _sip.appointees[msg.sender] */\n      0xffffffffffffffffffffffffffffffffffffffff\n      and\n      0xffffffffffffffffffffffffffffffffffffffff\n      and\n      dup2\n      mstore\n      0x20\n      add\n      swap1\n      dup2\n      mstore\n      0x20\n      add\n      0x00\n      keccak256\n      0x00\n      swap1\n      sload\n      swap1\n      0x0100\n      exp\n      swap1\n      div\n      0xff\n      and\n        /* \"TimeAllySIP.sol\":23483:23567  require(_sip.appointees[msg.sender]... */\n      tag_264\n      jumpi\n      mload(0x40)\n      0x08c379a000000000000000000000000000000000000000000000000000000000\n      dup2\n      mstore\n      0x04\n      add\n      dup1\n      dup1\n      0x20\n      add\n      dup3\n      dup2\n      sub\n      dup3\n      mstore\n      0x20\n      dup2\n      mstore\n      0x20\n      add\n      dup1\n      0x73686f756c64206265206170706f696e74656520746f206361737420766f7465\n      dup2\n      mstore\n      pop\n      0x20\n      add\n      swap2\n      pop\n      pop\n      mload(0x40)\n      dup1\n      swap2\n      sub\n      swap1\n      revert\n    tag_264:\n        /* \"TimeAllySIP.sol\":23662:23667  false */\n      0x00\n        /* \"TimeAllySIP.sol\":23632:23636  _sip */\n      dup2\n        /* \"TimeAllySIP.sol\":23632:23647  _sip.appointees */\n      0x0b\n      add\n        /* \"TimeAllySIP.sol\":23632:23659  _sip.appointees[msg.sender] */\n      0x00\n        /* \"TimeAllySIP.sol\":23648:23658  msg.sender */\n      caller\n        /* \"TimeAllySIP.sol\":23632:23659  _sip.appointees[msg.sender] */\n      0xffffffffffffffffffffffffffffffffffffffff\n      and\n      0xffffffffffffffffffffffffffffffffffffffff\n      and\n      dup2\n      mstore\n      0x20\n      add\n      swap1\n      dup2\n      mstore\n      0x20\n      add\n      0x00\n      keccak256\n      0x00\n        /* \"TimeAllySIP.sol\":23632:23667  _sip.appointees[msg.sender] = false */\n      0x0100\n      exp\n      dup2\n      sload\n      dup2\n      0xff\n      mul\n      not\n      and\n      swap1\n      dup4\n      iszero\n      iszero\n      mul\n      or\n      swap1\n      sstore\n      pop\n        /* \"TimeAllySIP.sol\":23733:23759  _sip.appointeeVotes.add(1) */\n      tag_265\n        /* \"TimeAllySIP.sol\":23757:23758  1 */\n      0x01\n        /* \"TimeAllySIP.sol\":23733:23737  _sip */\n      dup3\n        /* \"TimeAllySIP.sol\":23733:23752  _sip.appointeeVotes */\n      0x07\n      add\n      sload\n        /* \"TimeAllySIP.sol\":23733:23756  _sip.appointeeVotes.add */\n      tag_185\n      swap1\n        /* \"TimeAllySIP.sol\":23733:23759  _sip.appointeeVotes.add(1) */\n      swap2\n      swap1\n      0xffffffff\n      and\n      jump\t// in\n    tag_265:\n        /* \"TimeAllySIP.sol\":23711:23715  _sip */\n      dup2\n        /* \"TimeAllySIP.sol\":23711:23730  _sip.appointeeVotes */\n      0x07\n      add\n        /* \"TimeAllySIP.sol\":23711:23759  _sip.appointeeVotes = _sip.appointeeVotes.add(1) */\n      dup2\n      swap1\n      sstore\n      pop\n        /* \"TimeAllySIP.sol\":23856:23866  msg.sender */\n      caller\n        /* \"TimeAllySIP.sol\":23817:23867  AppointeeVoted(_stakerAddress, _sipId, msg.sender) */\n      0xffffffffffffffffffffffffffffffffffffffff\n      and\n        /* \"TimeAllySIP.sol\":23848:23854  _sipId */\n      dup3\n        /* \"TimeAllySIP.sol\":23832:23846  _stakerAddress */\n      dup5\n        /* \"TimeAllySIP.sol\":23817:23867  AppointeeVoted(_stakerAddress, _sipId, msg.sender) */\n      0xffffffffffffffffffffffffffffffffffffffff\n      and\n      0x57e90b4a498a7310fab91955c915f3f15a0d1a94b296f824da9443d524ea2e1b\n      mload(0x40)\n      mload(0x40)\n      dup1\n      swap2\n      sub\n      swap1\n      log4\n        /* \"TimeAllySIP.sol\":23277:23872  function appointeeVote(... */\n      pop\n      pop\n      pop\n      jump\t// out\n        /* \"TimeAllySIP.sol\":10661:13370  function newSIP(... */\n    tag_91:\n        /* \"TimeAllySIP.sol\":10845:10853  sipPlans */\n      0x05\n        /* \"TimeAllySIP.sol\":10854:10861  _planId */\n      dup4\n        /* \"TimeAllySIP.sol\":10845:10862  sipPlans[_planId] */\n      dup2\n      sload\n      dup2\n      lt\n      tag_267\n      jumpi\n      invalid\n    tag_267:\n      swap1\n      0x00\n      mstore\n      keccak256(0x00, 0x20)\n      swap1\n      0x08\n      mul\n      add\n        /* \"TimeAllySIP.sol\":10845:10875  sipPlans[_planId].isPlanActive */\n      0x00\n      add\n      0x00\n      swap1\n      sload\n      swap1\n      0x0100\n      exp\n      swap1\n      div\n      0xff\n      and\n        /* \"TimeAllySIP.sol\":10830:10914  require(... */\n      tag_269\n      jumpi\n      mload(0x40)\n      0x08c379a000000000000000000000000000000000000000000000000000000000\n      dup2\n      mstore\n      0x04\n      add\n      dup1\n      dup1\n      0x20\n      add\n      dup3\n      dup2\n      sub\n      dup3\n      mstore\n      0x16\n      dup2\n      mstore\n      0x20\n      add\n      dup1\n      0x73697020706c616e206973206e6f742061637469766500000000000000000000\n      dup2\n      mstore\n      pop\n      0x20\n      add\n      swap2\n      pop\n      pop\n      mload(0x40)\n      dup1\n      swap2\n      sub\n      swap1\n      revert\n    tag_269:\n        /* \"TimeAllySIP.sol\":11027:11035  sipPlans */\n      0x05\n        /* \"TimeAllySIP.sol\":11036:11043  _planId */\n      dup4\n        /* \"TimeAllySIP.sol\":11027:11044  sipPlans[_planId] */\n      dup2\n      sload\n      dup2\n      lt\n      tag_270\n      jumpi\n      invalid\n    tag_270:\n      swap1\n      0x00\n      mstore\n      keccak256(0x00, 0x20)\n      swap1\n      0x08\n      mul\n      add\n        /* \"TimeAllySIP.sol\":11027:11075  sipPlans[_planId].minimumMonthlyCommitmentAmount */\n      0x01\n      add\n      sload\n        /* \"TimeAllySIP.sol\":10999:11023  _monthlyCommitmentAmount */\n      dup3\n        /* \"TimeAllySIP.sol\":10999:11075  _monthlyCommitmentAmount >= sipPlans[_planId].minimumMonthlyCommitmentAmount */\n      lt\n      iszero\n        /* \"TimeAllySIP.sol\":10984:11124  require(... */\n      tag_272\n      jumpi\n      mload(0x40)\n      0x08c379a000000000000000000000000000000000000000000000000000000000\n      dup2\n      mstore\n      0x04\n      add\n      dup1\n      dup1\n      0x20\n      add\n      dup3\n      dup2\n      sub\n      dup3\n      mstore\n      0x20\n      dup2\n      mstore\n      0x20\n      add\n      dup1\n      0x616d6f756e742073686f756c642062652061746c65617374206d696e696d756d\n      dup2\n      mstore\n      pop\n      0x20\n      add\n      swap2\n      pop\n      pop\n      mload(0x40)\n      dup1\n      swap2\n      sub\n      swap1\n      revert\n    tag_272:\n        /* \"TimeAllySIP.sol\":11220:11247  uint256 _singleMonthBenefit */\n      0x00\n        /* \"TimeAllySIP.sol\":11250:11344  _monthlyCommitmentAmount... */\n      tag_273\n        /* \"TimeAllySIP.sol\":11339:11343  1000 */\n      0x03e8\n        /* \"TimeAllySIP.sol\":11250:11327  _monthlyCommitmentAmount... */\n      tag_274\n        /* \"TimeAllySIP.sol\":11286:11294  sipPlans */\n      0x05\n        /* \"TimeAllySIP.sol\":11296:11303  _planId */\n      dup8\n        /* \"TimeAllySIP.sol\":11286:11305  sipPlans[ _planId ] */\n      dup2\n      sload\n      dup2\n      lt\n      tag_275\n      jumpi\n      invalid\n    tag_275:\n      swap1\n      0x00\n      mstore\n      keccak256(0x00, 0x20)\n      swap1\n      0x08\n      mul\n      add\n        /* \"TimeAllySIP.sol\":11286:11326  sipPlans[ _planId ].monthlyBenefitFactor */\n      0x05\n      add\n      sload\n        /* \"TimeAllySIP.sol\":11250:11274  _monthlyCommitmentAmount */\n      dup7\n        /* \"TimeAllySIP.sol\":11250:11285  _monthlyCommitmentAmount... */\n      tag_182\n      swap1\n        /* \"TimeAllySIP.sol\":11250:11327  _monthlyCommitmentAmount... */\n      swap2\n      swap1\n      0xffffffff\n      and\n      jump\t// in\n    tag_274:\n        /* \"TimeAllySIP.sol\":11250:11338  _monthlyCommitmentAmount... */\n      tag_162\n      swap1\n        /* \"TimeAllySIP.sol\":11250:11344  _monthlyCommitmentAmount... */\n      swap2\n      swap1\n      0xffffffff\n      and\n      jump\t// in\n    tag_273:\n        /* \"TimeAllySIP.sol\":11220:11344  uint256 _singleMonthBenefit = _monthlyCommitmentAmount... */\n      swap1\n      pop\n        /* \"TimeAllySIP.sol\":11351:11377  uint256 _benefitsToBeGiven */\n      0x00\n        /* \"TimeAllySIP.sol\":11380:11450  _singleMonthBenefit... */\n      tag_277\n        /* \"TimeAllySIP.sol\":11411:11419  sipPlans */\n      0x05\n        /* \"TimeAllySIP.sol\":11421:11428  _planId */\n      dup7\n        /* \"TimeAllySIP.sol\":11411:11430  sipPlans[ _planId ] */\n      dup2\n      sload\n      dup2\n      lt\n      tag_278\n      jumpi\n      invalid\n    tag_278:\n      swap1\n      0x00\n      mstore\n      keccak256(0x00, 0x20)\n      swap1\n      0x08\n      mul\n      add\n        /* \"TimeAllySIP.sol\":11411:11449  sipPlans[ _planId ].benefitPeriodYears */\n      0x03\n      add\n      sload\n        /* \"TimeAllySIP.sol\":11380:11399  _singleMonthBenefit */\n      dup4\n        /* \"TimeAllySIP.sol\":11380:11410  _singleMonthBenefit... */\n      tag_182\n      swap1\n        /* \"TimeAllySIP.sol\":11380:11450  _singleMonthBenefit... */\n      swap2\n      swap1\n      0xffffffff\n      and\n      jump\t// in\n    tag_277:\n        /* \"TimeAllySIP.sol\":11351:11450  uint256 _benefitsToBeGiven = _singleMonthBenefit... */\n      swap1\n      pop\n        /* \"TimeAllySIP.sol\":11563:11619  _benefitsToBeGiven.add(pendingBenefitAmountOfAllStakers) */\n      tag_280\n        /* \"TimeAllySIP.sol\":11586:11618  pendingBenefitAmountOfAllStakers */\n      sload(0x03)\n        /* \"TimeAllySIP.sol\":11563:11581  _benefitsToBeGiven */\n      dup3\n        /* \"TimeAllySIP.sol\":11563:11585  _benefitsToBeGiven.add */\n      tag_185\n      swap1\n        /* \"TimeAllySIP.sol\":11563:11619  _benefitsToBeGiven.add(pendingBenefitAmountOfAllStakers) */\n      swap2\n      swap1\n      0xffffffff\n      and\n      jump\t// in\n    tag_280:\n        /* \"TimeAllySIP.sol\":11547:11559  fundsDeposit */\n      sload(0x04)\n        /* \"TimeAllySIP.sol\":11547:11619  fundsDeposit >= _benefitsToBeGiven.add(pendingBenefitAmountOfAllStakers) */\n      lt\n      iszero\n        /* \"TimeAllySIP.sol\":11532:11689  require(... */\n      tag_281\n      jumpi\n      mload(0x40)\n      0x08c379a000000000000000000000000000000000000000000000000000000000\n      dup2\n      mstore\n      0x04\n      add\n      dup1\n      dup1\n      0x20\n      add\n      dup3\n      dup2\n      sub\n      dup3\n      mstore\n      0x35\n      dup2\n      mstore\n      0x20\n      add\n      dup1\n      data_5a7f347d75f88622755607b0e61ed343c96ad258fbc1be577e77f6e09bcd0a54\n      0x35\n      swap2\n      codecopy\n      0x40\n      add\n      swap2\n      pop\n      pop\n      mload(0x40)\n      dup1\n      swap2\n      sub\n      swap1\n      revert\n    tag_281:\n        /* \"TimeAllySIP.sol\":11781:11794  _usePrepaidES */\n      dup3\n        /* \"TimeAllySIP.sol\":11778:12133  if(_usePrepaidES) {... */\n      iszero\n      tag_282\n      jumpi\n        /* \"TimeAllySIP.sol\":11880:11931  prepaidES[msg.sender].sub(_monthlyCommitmentAmount) */\n      tag_283\n        /* \"TimeAllySIP.sol\":11906:11930  _monthlyCommitmentAmount */\n      dup5\n        /* \"TimeAllySIP.sol\":11880:11889  prepaidES */\n      0x07\n        /* \"TimeAllySIP.sol\":11880:11901  prepaidES[msg.sender] */\n      0x00\n        /* \"TimeAllySIP.sol\":11890:11900  msg.sender */\n      caller\n        /* \"TimeAllySIP.sol\":11880:11901  prepaidES[msg.sender] */\n      0xffffffffffffffffffffffffffffffffffffffff\n      and\n      0xffffffffffffffffffffffffffffffffffffffff\n      and\n      dup2\n      mstore\n      0x20\n      add\n      swap1\n      dup2\n      mstore\n      0x20\n      add\n      0x00\n      keccak256\n      sload\n        /* \"TimeAllySIP.sol\":11880:11905  prepaidES[msg.sender].sub */\n      tag_128\n      swap1\n        /* \"TimeAllySIP.sol\":11880:11931  prepaidES[msg.sender].sub(_monthlyCommitmentAmount) */\n      swap2\n      swap1\n      0xffffffff\n      and\n      jump\t// in\n    tag_283:\n        /* \"TimeAllySIP.sol\":11856:11865  prepaidES */\n      0x07\n        /* \"TimeAllySIP.sol\":11856:11877  prepaidES[msg.sender] */\n      0x00\n        /* \"TimeAllySIP.sol\":11866:11876  msg.sender */\n      caller\n        /* \"TimeAllySIP.sol\":11856:11877  prepaidES[msg.sender] */\n      0xffffffffffffffffffffffffffffffffffffffff\n      and\n      0xffffffffffffffffffffffffffffffffffffffff\n      and\n      dup2\n      mstore\n      0x20\n      add\n      swap1\n      dup2\n      mstore\n      0x20\n      add\n      0x00\n      keccak256\n        /* \"TimeAllySIP.sol\":11856:11931  prepaidES[msg.sender] = prepaidES[msg.sender].sub(_monthlyCommitmentAmount) */\n      dup2\n      swap1\n      sstore\n      pop\n        /* \"TimeAllySIP.sol\":11778:12133  if(_usePrepaidES) {... */\n      jump(tag_284)\n    tag_282:\n        /* \"TimeAllySIP.sol\":12054:12059  token */\n      0x01\n      0x00\n      swap1\n      sload\n      swap1\n      0x0100\n      exp\n      swap1\n      div\n      0xffffffffffffffffffffffffffffffffffffffff\n      and\n        /* \"TimeAllySIP.sol\":12054:12072  token.transferFrom */\n      0xffffffffffffffffffffffffffffffffffffffff\n      and\n      0x23b872dd\n        /* \"TimeAllySIP.sol\":12073:12083  msg.sender */\n      caller\n        /* \"TimeAllySIP.sol\":12093:12097  this */\n      address\n        /* \"TimeAllySIP.sol\":12100:12124  _monthlyCommitmentAmount */\n      dup8\n        /* \"TimeAllySIP.sol\":12054:12125  token.transferFrom(msg.sender, address(this), _monthlyCommitmentAmount) */\n      mload(0x40)\n      dup5\n      0xffffffff\n      and\n      0xe0\n      shl\n      dup2\n      mstore\n      0x04\n      add\n      dup1\n      dup5\n      0xffffffffffffffffffffffffffffffffffffffff\n      and\n      0xffffffffffffffffffffffffffffffffffffffff\n      and\n      dup2\n      mstore\n      0x20\n      add\n      dup4\n      0xffffffffffffffffffffffffffffffffffffffff\n      and\n      0xffffffffffffffffffffffffffffffffffffffff\n      and\n      dup2\n      mstore\n      0x20\n      add\n      dup3\n      dup2\n      mstore\n      0x20\n      add\n      swap4\n      pop\n      pop\n      pop\n      pop\n      0x20\n      mload(0x40)\n      dup1\n      dup4\n      sub\n      dup2\n      0x00\n      dup8\n      dup1\n      extcodesize\n      iszero\n        /* \"--CODEGEN--\":8:17   */\n      dup1\n        /* \"--CODEGEN--\":5:7   */\n      iszero\n      tag_285\n      jumpi\n        /* \"--CODEGEN--\":30:31   */\n      0x00\n        /* \"--CODEGEN--\":27:28   */\n      dup1\n        /* \"--CODEGEN--\":20:32   */\n      revert\n        /* \"--CODEGEN--\":5:7   */\n    tag_285:\n        /* \"TimeAllySIP.sol\":12054:12125  token.transferFrom(msg.sender, address(this), _monthlyCommitmentAmount) */\n      pop\n      gas\n      call\n      iszero\n        /* \"--CODEGEN--\":8:17   */\n      dup1\n        /* \"--CODEGEN--\":5:7   */\n      iszero\n      tag_286\n      jumpi\n        /* \"--CODEGEN--\":45:61   */\n      returndatasize\n        /* \"--CODEGEN--\":42:43   */\n      0x00\n        /* \"--CODEGEN--\":39:40   */\n      dup1\n        /* \"--CODEGEN--\":24:62   */\n      returndatacopy\n        /* \"--CODEGEN--\":77:93   */\n      returndatasize\n        /* \"--CODEGEN--\":74:75   */\n      0x00\n        /* \"--CODEGEN--\":67:94   */\n      revert\n        /* \"--CODEGEN--\":5:7   */\n    tag_286:\n        /* \"TimeAllySIP.sol\":12054:12125  token.transferFrom(msg.sender, address(this), _monthlyCommitmentAmount) */\n      pop\n      pop\n      pop\n      pop\n      mload(0x40)\n      returndatasize\n        /* \"--CODEGEN--\":13:15   */\n      0x20\n        /* \"--CODEGEN--\":8:11   */\n      dup2\n        /* \"--CODEGEN--\":5:16   */\n      lt\n        /* \"--CODEGEN--\":2:4   */\n      iszero\n      tag_287\n      jumpi\n        /* \"--CODEGEN--\":29:30   */\n      0x00\n        /* \"--CODEGEN--\":26:27   */\n      dup1\n        /* \"--CODEGEN--\":19:31   */\n      revert\n        /* \"--CODEGEN--\":2:4   */\n    tag_287:\n        /* \"TimeAllySIP.sol\":12054:12125  token.transferFrom(msg.sender, address(this), _monthlyCommitmentAmount) */\n      dup2\n      add\n      swap1\n      dup1\n      dup1\n      mload\n      swap1\n      0x20\n      add\n      swap1\n      swap3\n      swap2\n      swap1\n      pop\n      pop\n      pop\n        /* \"TimeAllySIP.sol\":12046:12126  require(token.transferFrom(msg.sender, address(this), _monthlyCommitmentAmount)) */\n      tag_288\n      jumpi\n      0x00\n      dup1\n      revert\n    tag_288:\n        /* \"TimeAllySIP.sol\":11778:12133  if(_usePrepaidES) {... */\n    tag_284:\n        /* \"TimeAllySIP.sol\":12197:12201  sips */\n      0x06\n        /* \"TimeAllySIP.sol\":12197:12213  sips[msg.sender] */\n      0x00\n        /* \"TimeAllySIP.sol\":12202:12212  msg.sender */\n      caller\n        /* \"TimeAllySIP.sol\":12197:12213  sips[msg.sender] */\n      0xffffffffffffffffffffffffffffffffffffffff\n      and\n      0xffffffffffffffffffffffffffffffffffffffff\n      and\n      dup2\n      mstore\n      0x20\n      add\n      swap1\n      dup2\n      mstore\n      0x20\n      add\n      0x00\n      keccak256\n        /* \"TimeAllySIP.sol\":12219:12546  SIP({... */\n      mload(0x40)\n      dup1\n      0x0100\n      add\n      0x40\n      mstore\n      dup1\n        /* \"TimeAllySIP.sol\":12239:12246  _planId */\n      dup8\n        /* \"TimeAllySIP.sol\":12219:12546  SIP({... */\n      dup2\n      mstore\n      0x20\n      add\n        /* \"TimeAllySIP.sol\":12272:12275  now */\n      timestamp\n        /* \"TimeAllySIP.sol\":12219:12546  SIP({... */\n      dup2\n      mstore\n      0x20\n      add\n        /* \"TimeAllySIP.sol\":12308:12332  _monthlyCommitmentAmount */\n      dup7\n        /* \"TimeAllySIP.sol\":12219:12546  SIP({... */\n      dup2\n      mstore\n      0x20\n      add\n        /* \"TimeAllySIP.sol\":12356:12380  _monthlyCommitmentAmount */\n      dup7\n        /* \"TimeAllySIP.sol\":12219:12546  SIP({... */\n      dup2\n      mstore\n      0x20\n      add\n        /* \"TimeAllySIP.sol\":12410:12411  0 */\n      0x00\n        /* \"TimeAllySIP.sol\":12219:12546  SIP({... */\n      dup2\n      mstore\n      0x20\n      add\n        /* \"TimeAllySIP.sol\":12484:12485  0 */\n      0x00\n        /* \"TimeAllySIP.sol\":12219:12546  SIP({... */\n      dup2\n      mstore\n      0x20\n      add\n        /* \"TimeAllySIP.sol\":12513:12514  0 */\n      0x00\n        /* \"TimeAllySIP.sol\":12219:12546  SIP({... */\n      dup2\n      mstore\n      0x20\n      add\n        /* \"TimeAllySIP.sol\":12538:12539  0 */\n      0x00\n        /* \"TimeAllySIP.sol\":12219:12546  SIP({... */\n      dup2\n      mstore\n      pop\n        /* \"TimeAllySIP.sol\":12197:12547  sips[msg.sender].push(SIP({... */\n      swap1\n      dup1\n        /* \"--CODEGEN--\":39:40   */\n      0x01\n        /* \"--CODEGEN--\":33:36   */\n      dup2\n        /* \"--CODEGEN--\":27:37   */\n      sload\n        /* \"--CODEGEN--\":23:41   */\n      add\n        /* \"--CODEGEN--\":57:67   */\n      dup1\n        /* \"--CODEGEN--\":52:55   */\n      dup3\n        /* \"--CODEGEN--\":45:68   */\n      sstore\n        /* \"--CODEGEN--\":79:89   */\n      dup1\n        /* \"--CODEGEN--\":72:89   */\n      swap2\n      pop\n        /* \"--CODEGEN--\":0:93   */\n      pop\n        /* \"TimeAllySIP.sol\":12197:12547  sips[msg.sender].push(SIP({... */\n      swap1\n      0x01\n      dup3\n      sub\n      swap1\n      0x00\n      mstore\n      keccak256(0x00, 0x20)\n      swap1\n      0x0c\n      mul\n      add\n      0x00\n      swap1\n      swap2\n      swap3\n      swap1\n      swap2\n      swap1\n      swap2\n      pop\n      0x00\n      dup3\n      add\n      mload\n      dup2\n      0x00\n      add\n      sstore\n      0x20\n      dup3\n      add\n      mload\n      dup2\n      0x01\n      add\n      sstore\n      0x40\n      dup3\n      add\n      mload\n      dup2\n      0x02\n      add\n      sstore\n      0x60\n      dup3\n      add\n      mload\n      dup2\n      0x03\n      add\n      sstore\n      0x80\n      dup3\n      add\n      mload\n      dup2\n      0x04\n      add\n      sstore\n      0xa0\n      dup3\n      add\n      mload\n      dup2\n      0x05\n      add\n      sstore\n      0xc0\n      dup3\n      add\n      mload\n      dup2\n      0x06\n      add\n      sstore\n      0xe0\n      dup3\n      add\n      mload\n      dup2\n      0x07\n      add\n      sstore\n      pop\n      pop\n      pop\n        /* \"TimeAllySIP.sol\":12643:12657  uint256 _sipId */\n      0x00\n        /* \"TimeAllySIP.sol\":12686:12687  1 */\n      0x01\n        /* \"TimeAllySIP.sol\":12660:12664  sips */\n      0x06\n        /* \"TimeAllySIP.sol\":12660:12676  sips[msg.sender] */\n      0x00\n        /* \"TimeAllySIP.sol\":12665:12675  msg.sender */\n      caller\n        /* \"TimeAllySIP.sol\":12660:12676  sips[msg.sender] */\n      0xffffffffffffffffffffffffffffffffffffffff\n      and\n      0xffffffffffffffffffffffffffffffffffffffff\n      and\n      dup2\n      mstore\n      0x20\n      add\n      swap1\n      dup2\n      mstore\n      0x20\n      add\n      0x00\n      keccak256\n        /* \"TimeAllySIP.sol\":12660:12683  sips[msg.sender].length */\n      dup1\n      sload\n      swap1\n      pop\n        /* \"TimeAllySIP.sol\":12660:12687  sips[msg.sender].length - 1 */\n      sub\n        /* \"TimeAllySIP.sol\":12643:12687  uint256 _sipId = sips[msg.sender].length - 1 */\n      swap1\n      pop\n        /* \"TimeAllySIP.sol\":12783:12784  2 */\n      0x02\n        /* \"TimeAllySIP.sol\":12739:12743  sips */\n      0x06\n        /* \"TimeAllySIP.sol\":12739:12755  sips[msg.sender] */\n      0x00\n        /* \"TimeAllySIP.sol\":12744:12754  msg.sender */\n      caller\n        /* \"TimeAllySIP.sol\":12739:12755  sips[msg.sender] */\n      0xffffffffffffffffffffffffffffffffffffffff\n      and\n      0xffffffffffffffffffffffffffffffffffffffff\n      and\n      dup2\n      mstore\n      0x20\n      add\n      swap1\n      dup2\n      mstore\n      0x20\n      add\n      0x00\n      keccak256\n        /* \"TimeAllySIP.sol\":12756:12762  _sipId */\n      dup3\n        /* \"TimeAllySIP.sol\":12739:12763  sips[msg.sender][_sipId] */\n      dup2\n      sload\n      dup2\n      lt\n      tag_290\n      jumpi\n      invalid\n    tag_290:\n      swap1\n      0x00\n      mstore\n      keccak256(0x00, 0x20)\n      swap1\n      0x0c\n      mul\n      add\n        /* \"TimeAllySIP.sol\":12739:12777  sips[msg.sender][_sipId].depositStatus */\n      0x08\n      add\n        /* \"TimeAllySIP.sol\":12739:12780  sips[msg.sender][_sipId].depositStatus[1] */\n      0x00\n        /* \"TimeAllySIP.sol\":12778:12779  1 */\n      0x01\n        /* \"TimeAllySIP.sol\":12739:12780  sips[msg.sender][_sipId].depositStatus[1] */\n      dup2\n      mstore\n      0x20\n      add\n      swap1\n      dup2\n      mstore\n      0x20\n      add\n      0x00\n      keccak256\n        /* \"TimeAllySIP.sol\":12739:12784  sips[msg.sender][_sipId].depositStatus[1] = 2 */\n      dup2\n      swap1\n      sstore\n      pop\n        /* \"TimeAllySIP.sol\":12841:12860  _singleMonthBenefit */\n      dup3\n        /* \"TimeAllySIP.sol\":12790:12794  sips */\n      0x06\n        /* \"TimeAllySIP.sol\":12790:12806  sips[msg.sender] */\n      0x00\n        /* \"TimeAllySIP.sol\":12795:12805  msg.sender */\n      caller\n        /* \"TimeAllySIP.sol\":12790:12806  sips[msg.sender] */\n      0xffffffffffffffffffffffffffffffffffffffff\n      and\n      0xffffffffffffffffffffffffffffffffffffffff\n      and\n      dup2\n      mstore\n      0x20\n      add\n      swap1\n      dup2\n      mstore\n      0x20\n      add\n      0x00\n      keccak256\n        /* \"TimeAllySIP.sol\":12807:12813  _sipId */\n      dup3\n        /* \"TimeAllySIP.sol\":12790:12814  sips[msg.sender][_sipId] */\n      dup2\n      sload\n      dup2\n      lt\n      tag_292\n      jumpi\n      invalid\n    tag_292:\n      swap1\n      0x00\n      mstore\n      keccak256(0x00, 0x20)\n      swap1\n      0x0c\n      mul\n      add\n        /* \"TimeAllySIP.sol\":12790:12835  sips[msg.sender][_sipId].monthlyBenefitAmount */\n      0x09\n      add\n        /* \"TimeAllySIP.sol\":12790:12838  sips[msg.sender][_sipId].monthlyBenefitAmount[1] */\n      0x00\n        /* \"TimeAllySIP.sol\":12836:12837  1 */\n      0x01\n        /* \"TimeAllySIP.sol\":12790:12838  sips[msg.sender][_sipId].monthlyBenefitAmount[1] */\n      dup2\n      mstore\n      0x20\n      add\n      swap1\n      dup2\n      mstore\n      0x20\n      add\n      0x00\n      keccak256\n        /* \"TimeAllySIP.sol\":12790:12860  sips[msg.sender][_sipId].monthlyBenefitAmount[1] = _singleMonthBenefit */\n      dup2\n      swap1\n      sstore\n      pop\n        /* \"TimeAllySIP.sol\":12948:13016  pendingBenefitAmountOfAllStakers.add(... */\n      tag_294\n        /* \"TimeAllySIP.sol\":12992:13010  _benefitsToBeGiven */\n      dup3\n        /* \"TimeAllySIP.sol\":12948:12980  pendingBenefitAmountOfAllStakers */\n      sload(0x03)\n        /* \"TimeAllySIP.sol\":12948:12984  pendingBenefitAmountOfAllStakers.add */\n      tag_185\n      swap1\n        /* \"TimeAllySIP.sol\":12948:13016  pendingBenefitAmountOfAllStakers.add(... */\n      swap2\n      swap1\n      0xffffffff\n      and\n      jump\t// in\n    tag_294:\n        /* \"TimeAllySIP.sol\":12913:12945  pendingBenefitAmountOfAllStakers */\n      0x03\n        /* \"TimeAllySIP.sol\":12913:13016  pendingBenefitAmountOfAllStakers = pendingBenefitAmountOfAllStakers.add(... */\n      dup2\n      swap1\n      sstore\n      pop\n        /* \"TimeAllySIP.sol\":13089:13099  msg.sender */\n      caller\n        /* \"TimeAllySIP.sol\":13075:13172  NewSIP(... */\n      0xffffffffffffffffffffffffffffffffffffffff\n      and\n      0x1dec97fc36aa6dfa81b208ec37b3ac8dae30717f0622f9cfb2e7223dc95326ec\n        /* \"TimeAllySIP.sol\":13133:13134  1 */\n      0x01\n        /* \"TimeAllySIP.sol\":13107:13111  sips */\n      0x06\n        /* \"TimeAllySIP.sol\":13107:13123  sips[msg.sender] */\n      0x00\n        /* \"TimeAllySIP.sol\":13112:13122  msg.sender */\n      caller\n        /* \"TimeAllySIP.sol\":13107:13123  sips[msg.sender] */\n      0xffffffffffffffffffffffffffffffffffffffff\n      and\n      0xffffffffffffffffffffffffffffffffffffffff\n      and\n      dup2\n      mstore\n      0x20\n      add\n      swap1\n      dup2\n      mstore\n      0x20\n      add\n      0x00\n      keccak256\n        /* \"TimeAllySIP.sol\":13107:13130  sips[msg.sender].length */\n      dup1\n      sload\n      swap1\n      pop\n        /* \"TimeAllySIP.sol\":13107:13134  sips[msg.sender].length - 1 */\n      sub\n        /* \"TimeAllySIP.sol\":13142:13166  _monthlyCommitmentAmount */\n      dup8\n        /* \"TimeAllySIP.sol\":13075:13172  NewSIP(... */\n      mload(0x40)\n      dup1\n      dup4\n      dup2\n      mstore\n      0x20\n      add\n      dup3\n      dup2\n      mstore\n      0x20\n      add\n      swap3\n      pop\n      pop\n      pop\n      mload(0x40)\n      dup1\n      swap2\n      sub\n      swap1\n      log2\n        /* \"TimeAllySIP.sol\":13268:13274  _sipId */\n      dup1\n        /* \"TimeAllySIP.sol\":13250:13260  msg.sender */\n      caller\n        /* \"TimeAllySIP.sol\":13232:13365  NewDeposit(... */\n      0xffffffffffffffffffffffffffffffffffffffff\n      and\n      0xbaf4c88598102708c4215d5d3767268130627355850b7ece9bdfdc32fd2941f0\n        /* \"TimeAllySIP.sol\":13282:13283  1 */\n      0x01\n        /* \"TimeAllySIP.sol\":13291:13315  _monthlyCommitmentAmount */\n      dup9\n        /* \"TimeAllySIP.sol\":13323:13341  _benefitsToBeGiven */\n      dup7\n        /* \"TimeAllySIP.sol\":13349:13359  msg.sender */\n      caller\n        /* \"TimeAllySIP.sol\":13232:13365  NewDeposit(... */\n      mload(0x40)\n      dup1\n      dup6\n      dup2\n      mstore\n      0x20\n      add\n      dup5\n      dup2\n      mstore\n      0x20\n      add\n      dup4\n      dup2\n      mstore\n      0x20\n      add\n      dup3\n      0xffffffffffffffffffffffffffffffffffffffff\n      and\n      0xffffffffffffffffffffffffffffffffffffffff\n      and\n      dup2\n      mstore\n      0x20\n      add\n      swap5\n      pop\n      pop\n      pop\n      pop\n      pop\n      mload(0x40)\n      dup1\n      swap2\n      sub\n      swap1\n      log3\n        /* \"TimeAllySIP.sol\":10661:13370  function newSIP(... */\n      pop\n      pop\n      pop\n      pop\n      pop\n      pop\n      jump\t// out\n        /* \"TimeAllySIP.sol\":28308:28537  function viewMonthlyBenefitAmount(... */\n    tag_94:\n        /* \"TimeAllySIP.sol\":28444:28451  uint256 */\n      0x00\n        /* \"TimeAllySIP.sol\":28466:28470  sips */\n      0x06\n        /* \"TimeAllySIP.sol\":28466:28486  sips[_stakerAddress] */\n      0x00\n        /* \"TimeAllySIP.sol\":28471:28485  _stakerAddress */\n      dup6\n        /* \"TimeAllySIP.sol\":28466:28486  sips[_stakerAddress] */\n      0xffffffffffffffffffffffffffffffffffffffff\n      and\n      0xffffffffffffffffffffffffffffffffffffffff\n      and\n      dup2\n      mstore\n      0x20\n      add\n      swap1\n      dup2\n      mstore\n      0x20\n      add\n      0x00\n      keccak256\n        /* \"TimeAllySIP.sol\":28487:28493  _sipId */\n      dup4\n        /* \"TimeAllySIP.sol\":28466:28494  sips[_stakerAddress][_sipId] */\n      dup2\n      sload\n      dup2\n      lt\n      tag_296\n      jumpi\n      invalid\n    tag_296:\n      swap1\n      0x00\n      mstore\n      keccak256(0x00, 0x20)\n      swap1\n      0x0c\n      mul\n      add\n        /* \"TimeAllySIP.sol\":28466:28515  sips[_stakerAddress][_sipId].monthlyBenefitAmount */\n      0x09\n      add\n        /* \"TimeAllySIP.sol\":28466:28532  sips[_stakerAddress][_sipId].monthlyBenefitAmount[_depositMonthId] */\n      0x00\n        /* \"TimeAllySIP.sol\":28516:28531  _depositMonthId */\n      dup4\n        /* \"TimeAllySIP.sol\":28466:28532  sips[_stakerAddress][_sipId].monthlyBenefitAmount[_depositMonthId] */\n      dup2\n      mstore\n      0x20\n      add\n      swap1\n      dup2\n      mstore\n      0x20\n      add\n      0x00\n      keccak256\n      sload\n        /* \"TimeAllySIP.sol\":28459:28532  return sips[_stakerAddress][_sipId].monthlyBenefitAmount[_depositMonthId] */\n      swap1\n      pop\n        /* \"TimeAllySIP.sol\":28308:28537  function viewMonthlyBenefitAmount(... */\n      swap4\n      swap3\n      pop\n      pop\n      pop\n      jump\t// out\n        /* \"TimeAllySIP.sol\":22180:23010  function toogleAppointee(... */\n    tag_97:\n        /* \"TimeAllySIP.sol\":22303:22319  SIP storage _sip */\n      0x00\n        /* \"TimeAllySIP.sol\":22322:22326  sips */\n      0x06\n        /* \"TimeAllySIP.sol\":22322:22338  sips[msg.sender] */\n      0x00\n        /* \"TimeAllySIP.sol\":22327:22337  msg.sender */\n      caller\n        /* \"TimeAllySIP.sol\":22322:22338  sips[msg.sender] */\n      0xffffffffffffffffffffffffffffffffffffffff\n      and\n      0xffffffffffffffffffffffffffffffffffffffff\n      and\n      dup2\n      mstore\n      0x20\n      add\n      swap1\n      dup2\n      mstore\n      0x20\n      add\n      0x00\n      keccak256\n        /* \"TimeAllySIP.sol\":22339:22345  _sipId */\n      dup5\n        /* \"TimeAllySIP.sol\":22322:22346  sips[msg.sender][_sipId] */\n      dup2\n      sload\n      dup2\n      lt\n      tag_299\n      jumpi\n      invalid\n    tag_299:\n      swap1\n      0x00\n      mstore\n      keccak256(0x00, 0x20)\n      swap1\n      0x0c\n      mul\n      add\n        /* \"TimeAllySIP.sol\":22303:22346  SIP storage _sip = sips[msg.sender][_sipId] */\n      swap1\n      pop\n        /* \"TimeAllySIP.sol\":22451:22455  _sip */\n      dup1\n        /* \"TimeAllySIP.sol\":22451:22466  _sip.appointees */\n      0x0b\n      add\n        /* \"TimeAllySIP.sol\":22451:22485  _sip.appointees[_appointeeAddress] */\n      0x00\n        /* \"TimeAllySIP.sol\":22467:22484  _appointeeAddress */\n      dup5\n        /* \"TimeAllySIP.sol\":22451:22485  _sip.appointees[_appointeeAddress] */\n      0xffffffffffffffffffffffffffffffffffffffff\n      and\n      0xffffffffffffffffffffffffffffffffffffffff\n      and\n      dup2\n      mstore\n      0x20\n      add\n      swap1\n      dup2\n      mstore\n      0x20\n      add\n      0x00\n      keccak256\n      0x00\n      swap1\n      sload\n      swap1\n      0x0100\n      exp\n      swap1\n      div\n      0xff\n      and\n        /* \"TimeAllySIP.sol\":22450:22485  !_sip.appointees[_appointeeAddress] */\n      iszero\n        /* \"TimeAllySIP.sol\":22450:22508  !_sip.appointees[_appointeeAddress] && _newAppointeeStatus */\n      dup1\n      iszero\n      tag_301\n      jumpi\n      pop\n        /* \"TimeAllySIP.sol\":22489:22508  _newAppointeeStatus */\n      dup2\n        /* \"TimeAllySIP.sol\":22450:22508  !_sip.appointees[_appointeeAddress] && _newAppointeeStatus */\n    tag_301:\n        /* \"TimeAllySIP.sol\":22447:22918  if(!_sip.appointees[_appointeeAddress] && _newAppointeeStatus) {... */\n      iszero\n      tag_302\n      jumpi\n        /* \"TimeAllySIP.sol\":22544:22574  _sip.numberOfAppointees.add(1) */\n      tag_303\n        /* \"TimeAllySIP.sol\":22572:22573  1 */\n      0x01\n        /* \"TimeAllySIP.sol\":22544:22548  _sip */\n      dup3\n        /* \"TimeAllySIP.sol\":22544:22567  _sip.numberOfAppointees */\n      0x06\n      add\n      sload\n        /* \"TimeAllySIP.sol\":22544:22571  _sip.numberOfAppointees.add */\n      tag_185\n      swap1\n        /* \"TimeAllySIP.sol\":22544:22574  _sip.numberOfAppointees.add(1) */\n      swap2\n      swap1\n      0xffffffff\n      and\n      jump\t// in\n    tag_303:\n        /* \"TimeAllySIP.sol\":22518:22522  _sip */\n      dup2\n        /* \"TimeAllySIP.sol\":22518:22541  _sip.numberOfAppointees */\n      0x06\n      add\n        /* \"TimeAllySIP.sol\":22518:22574  _sip.numberOfAppointees = _sip.numberOfAppointees.add(1) */\n      dup2\n      swap1\n      sstore\n      pop\n        /* \"TimeAllySIP.sol\":22619:22623  true */\n      0x01\n        /* \"TimeAllySIP.sol\":22582:22586  _sip */\n      dup2\n        /* \"TimeAllySIP.sol\":22582:22597  _sip.appointees */\n      0x0b\n      add\n        /* \"TimeAllySIP.sol\":22582:22616  _sip.appointees[_appointeeAddress] */\n      0x00\n        /* \"TimeAllySIP.sol\":22598:22615  _appointeeAddress */\n      dup6\n        /* \"TimeAllySIP.sol\":22582:22616  _sip.appointees[_appointeeAddress] */\n      0xffffffffffffffffffffffffffffffffffffffff\n      and\n      0xffffffffffffffffffffffffffffffffffffffff\n      and\n      dup2\n      mstore\n      0x20\n      add\n      swap1\n      dup2\n      mstore\n      0x20\n      add\n      0x00\n      keccak256\n      0x00\n        /* \"TimeAllySIP.sol\":22582:22623  _sip.appointees[_appointeeAddress] = true */\n      0x0100\n      exp\n      dup2\n      sload\n      dup2\n      0xff\n      mul\n      not\n      and\n      swap1\n      dup4\n      iszero\n      iszero\n      mul\n      or\n      swap1\n      sstore\n      pop\n        /* \"TimeAllySIP.sol\":22447:22918  if(!_sip.appointees[_appointeeAddress] && _newAppointeeStatus) {... */\n      jump(tag_304)\n    tag_302:\n        /* \"TimeAllySIP.sol\":22737:22741  _sip */\n      dup1\n        /* \"TimeAllySIP.sol\":22737:22752  _sip.appointees */\n      0x0b\n      add\n        /* \"TimeAllySIP.sol\":22737:22771  _sip.appointees[_appointeeAddress] */\n      0x00\n        /* \"TimeAllySIP.sol\":22753:22770  _appointeeAddress */\n      dup5\n        /* \"TimeAllySIP.sol\":22737:22771  _sip.appointees[_appointeeAddress] */\n      0xffffffffffffffffffffffffffffffffffffffff\n      and\n      0xffffffffffffffffffffffffffffffffffffffff\n      and\n      dup2\n      mstore\n      0x20\n      add\n      swap1\n      dup2\n      mstore\n      0x20\n      add\n      0x00\n      keccak256\n      0x00\n      swap1\n      sload\n      swap1\n      0x0100\n      exp\n      swap1\n      div\n      0xff\n      and\n        /* \"TimeAllySIP.sol\":22737:22795  _sip.appointees[_appointeeAddress] && !_newAppointeeStatus */\n      dup1\n      iszero\n      tag_305\n      jumpi\n      pop\n        /* \"TimeAllySIP.sol\":22776:22795  _newAppointeeStatus */\n      dup2\n        /* \"TimeAllySIP.sol\":22775:22795  !_newAppointeeStatus */\n      iszero\n        /* \"TimeAllySIP.sol\":22737:22795  _sip.appointees[_appointeeAddress] && !_newAppointeeStatus */\n    tag_305:\n        /* \"TimeAllySIP.sol\":22734:22918  if(_sip.appointees[_appointeeAddress] && !_newAppointeeStatus) {... */\n      iszero\n      tag_306\n      jumpi\n        /* \"TimeAllySIP.sol\":22842:22847  false */\n      0x00\n        /* \"TimeAllySIP.sol\":22805:22809  _sip */\n      dup2\n        /* \"TimeAllySIP.sol\":22805:22820  _sip.appointees */\n      0x0b\n      add\n        /* \"TimeAllySIP.sol\":22805:22839  _sip.appointees[_appointeeAddress] */\n      0x00\n        /* \"TimeAllySIP.sol\":22821:22838  _appointeeAddress */\n      dup6\n        /* \"TimeAllySIP.sol\":22805:22839  _sip.appointees[_appointeeAddress] */\n      0xffffffffffffffffffffffffffffffffffffffff\n      and\n      0xffffffffffffffffffffffffffffffffffffffff\n      and\n      dup2\n      mstore\n      0x20\n      add\n      swap1\n      dup2\n      mstore\n      0x20\n      add\n      0x00\n      keccak256\n      0x00\n        /* \"TimeAllySIP.sol\":22805:22847  _sip.appointees[_appointeeAddress] = false */\n      0x0100\n      exp\n      dup2\n      sload\n      dup2\n      0xff\n      mul\n      not\n      and\n      swap1\n      dup4\n      iszero\n      iszero\n      mul\n      or\n      swap1\n      sstore\n      pop\n        /* \"TimeAllySIP.sol\":22881:22911  _sip.numberOfAppointees.sub(1) */\n      tag_307\n        /* \"TimeAllySIP.sol\":22909:22910  1 */\n      0x01\n        /* \"TimeAllySIP.sol\":22881:22885  _sip */\n      dup3\n        /* \"TimeAllySIP.sol\":22881:22904  _sip.numberOfAppointees */\n      0x06\n      add\n      sload\n        /* \"TimeAllySIP.sol\":22881:22908  _sip.numberOfAppointees.sub */\n      tag_128\n      swap1\n        /* \"TimeAllySIP.sol\":22881:22911  _sip.numberOfAppointees.sub(1) */\n      swap2\n      swap1\n      0xffffffff\n      and\n      jump\t// in\n    tag_307:\n        /* \"TimeAllySIP.sol\":22855:22859  _sip */\n      dup2\n        /* \"TimeAllySIP.sol\":22855:22878  _sip.numberOfAppointees */\n      0x06\n      add\n        /* \"TimeAllySIP.sol\":22855:22911  _sip.numberOfAppointees = _sip.numberOfAppointees.sub(1) */\n      dup2\n      swap1\n      sstore\n      pop\n        /* \"TimeAllySIP.sol\":22734:22918  if(_sip.appointees[_appointeeAddress] && !_newAppointeeStatus) {... */\n    tag_306:\n        /* \"TimeAllySIP.sol\":22447:22918  if(!_sip.appointees[_appointeeAddress] && _newAppointeeStatus) {... */\n    tag_304:\n        /* \"TimeAllySIP.sol\":22966:22983  _appointeeAddress */\n      dup3\n        /* \"TimeAllySIP.sol\":22929:23005  AppointeeUpdated(msg.sender, _sipId, _appointeeAddress, _newAppointeeStatus) */\n      0xffffffffffffffffffffffffffffffffffffffff\n      and\n        /* \"TimeAllySIP.sol\":22958:22964  _sipId */\n      dup5\n        /* \"TimeAllySIP.sol\":22946:22956  msg.sender */\n      caller\n        /* \"TimeAllySIP.sol\":22929:23005  AppointeeUpdated(msg.sender, _sipId, _appointeeAddress, _newAppointeeStatus) */\n      0xffffffffffffffffffffffffffffffffffffffff\n      and\n      0xf7a6207b27953eff117f9b7c03e363d41370a45e2b626d2aa32c6a0ac6365782\n        /* \"TimeAllySIP.sol\":22985:23004  _newAppointeeStatus */\n      dup6\n        /* \"TimeAllySIP.sol\":22929:23005  AppointeeUpdated(msg.sender, _sipId, _appointeeAddress, _newAppointeeStatus) */\n      mload(0x40)\n      dup1\n      dup3\n      iszero\n      iszero\n      iszero\n      iszero\n      dup2\n      mstore\n      0x20\n      add\n      swap2\n      pop\n      pop\n      mload(0x40)\n      dup1\n      swap2\n      sub\n      swap1\n      log4\n        /* \"TimeAllySIP.sol\":22180:23010  function toogleAppointee(... */\n      pop\n      pop\n      pop\n      pop\n      jump\t// out\n        /* \"TimeAllySIP.sol\":8222:8663  function addFunds(uint256 _depositAmount) public {... */\n    tag_100:\n        /* \"TimeAllySIP.sol\":8352:8357  token */\n      0x01\n      0x00\n      swap1\n      sload\n      swap1\n      0x0100\n      exp\n      swap1\n      div\n      0xffffffffffffffffffffffffffffffffffffffff\n      and\n        /* \"TimeAllySIP.sol\":8352:8370  token.transferFrom */\n      0xffffffffffffffffffffffffffffffffffffffff\n      and\n      0x23b872dd\n        /* \"TimeAllySIP.sol\":8371:8381  msg.sender */\n      caller\n        /* \"TimeAllySIP.sol\":8391:8395  this */\n      address\n        /* \"TimeAllySIP.sol\":8398:8412  _depositAmount */\n      dup5\n        /* \"TimeAllySIP.sol\":8352:8413  token.transferFrom(msg.sender, address(this), _depositAmount) */\n      mload(0x40)\n      dup5\n      0xffffffff\n      and\n      0xe0\n      shl\n      dup2\n      mstore\n      0x04\n      add\n      dup1\n      dup5\n      0xffffffffffffffffffffffffffffffffffffffff\n      and\n      0xffffffffffffffffffffffffffffffffffffffff\n      and\n      dup2\n      mstore\n      0x20\n      add\n      dup4\n      0xffffffffffffffffffffffffffffffffffffffff\n      and\n      0xffffffffffffffffffffffffffffffffffffffff\n      and\n      dup2\n      mstore\n      0x20\n      add\n      dup3\n      dup2\n      mstore\n      0x20\n      add\n      swap4\n      pop\n      pop\n      pop\n      pop\n      0x20\n      mload(0x40)\n      dup1\n      dup4\n      sub\n      dup2\n      0x00\n      dup8\n      dup1\n      extcodesize\n      iszero\n        /* \"--CODEGEN--\":8:17   */\n      dup1\n        /* \"--CODEGEN--\":5:7   */\n      iszero\n      tag_309\n      jumpi\n        /* \"--CODEGEN--\":30:31   */\n      0x00\n        /* \"--CODEGEN--\":27:28   */\n      dup1\n        /* \"--CODEGEN--\":20:32   */\n      revert\n        /* \"--CODEGEN--\":5:7   */\n    tag_309:\n        /* \"TimeAllySIP.sol\":8352:8413  token.transferFrom(msg.sender, address(this), _depositAmount) */\n      pop\n      gas\n      call\n      iszero\n        /* \"--CODEGEN--\":8:17   */\n      dup1\n        /* \"--CODEGEN--\":5:7   */\n      iszero\n      tag_310\n      jumpi\n        /* \"--CODEGEN--\":45:61   */\n      returndatasize\n        /* \"--CODEGEN--\":42:43   */\n      0x00\n        /* \"--CODEGEN--\":39:40   */\n      dup1\n        /* \"--CODEGEN--\":24:62   */\n      returndatacopy\n        /* \"--CODEGEN--\":77:93   */\n      returndatasize\n        /* \"--CODEGEN--\":74:75   */\n      0x00\n        /* \"--CODEGEN--\":67:94   */\n      revert\n        /* \"--CODEGEN--\":5:7   */\n    tag_310:\n        /* \"TimeAllySIP.sol\":8352:8413  token.transferFrom(msg.sender, address(this), _depositAmount) */\n      pop\n      pop\n      pop\n      pop\n      mload(0x40)\n      returndatasize\n        /* \"--CODEGEN--\":13:15   */\n      0x20\n        /* \"--CODEGEN--\":8:11   */\n      dup2\n        /* \"--CODEGEN--\":5:16   */\n      lt\n        /* \"--CODEGEN--\":2:4   */\n      iszero\n      tag_311\n      jumpi\n        /* \"--CODEGEN--\":29:30   */\n      0x00\n        /* \"--CODEGEN--\":26:27   */\n      dup1\n        /* \"--CODEGEN--\":19:31   */\n      revert\n        /* \"--CODEGEN--\":2:4   */\n    tag_311:\n        /* \"TimeAllySIP.sol\":8352:8413  token.transferFrom(msg.sender, address(this), _depositAmount) */\n      dup2\n      add\n      swap1\n      dup1\n      dup1\n      mload\n      swap1\n      0x20\n      add\n      swap1\n      swap3\n      swap2\n      swap1\n      pop\n      pop\n      pop\n        /* \"TimeAllySIP.sol\":8337:8457  require(... */\n      tag_312\n      jumpi\n      mload(0x40)\n      0x08c379a000000000000000000000000000000000000000000000000000000000\n      dup2\n      mstore\n      0x04\n      add\n      dup1\n      dup1\n      0x20\n      add\n      dup3\n      dup2\n      sub\n      dup3\n      mstore\n      0x1b\n      dup2\n      mstore\n      0x20\n      add\n      dup1\n      0x746f6b656e732073686f756c64206265207472616e7366657265640000000000\n      dup2\n      mstore\n      pop\n      0x20\n      add\n      swap2\n      pop\n      pop\n      mload(0x40)\n      dup1\n      swap2\n      sub\n      swap1\n      revert\n    tag_312:\n        /* \"TimeAllySIP.sol\":8528:8560  fundsDeposit.add(_depositAmount) */\n      tag_313\n        /* \"TimeAllySIP.sol\":8545:8559  _depositAmount */\n      dup2\n        /* \"TimeAllySIP.sol\":8528:8540  fundsDeposit */\n      sload(0x04)\n        /* \"TimeAllySIP.sol\":8528:8544  fundsDeposit.add */\n      tag_185\n      swap1\n        /* \"TimeAllySIP.sol\":8528:8560  fundsDeposit.add(_depositAmount) */\n      swap2\n      swap1\n      0xffffffff\n      and\n      jump\t// in\n    tag_313:\n        /* \"TimeAllySIP.sol\":8513:8525  fundsDeposit */\n      0x04\n        /* \"TimeAllySIP.sol\":8513:8560  fundsDeposit = fundsDeposit.add(_depositAmount) */\n      dup2\n      swap1\n      sstore\n      pop\n        /* \"TimeAllySIP.sol\":8628:8658  FundsDeposited(_depositAmount) */\n      0x7cb5d45c1071f219bd2da1ea101758715bd52f23f2a707f2d9a0387dea18d906\n        /* \"TimeAllySIP.sol\":8643:8657  _depositAmount */\n      dup2\n        /* \"TimeAllySIP.sol\":8628:8658  FundsDeposited(_depositAmount) */\n      mload(0x40)\n      dup1\n      dup3\n      dup2\n      mstore\n      0x20\n      add\n      swap2\n      pop\n      pop\n      mload(0x40)\n      dup1\n      swap2\n      sub\n      swap1\n      log1\n        /* \"TimeAllySIP.sol\":8222:8663  function addFunds(uint256 _depositAmount) public {... */\n      pop\n      jump\t// out\n        /* \"TimeAllySIP.sol\":13943:16209  function monthlyDeposit(... */\n    tag_103:\n        /* \"TimeAllySIP.sol\":14112:14126  _stakerAddress */\n      dup5\n        /* \"TimeAllySIP.sol\":14128:14134  _sipId */\n      dup5\n        /* \"TimeAllySIP.sol\":6006:6022  SIP storage _sip */\n      0x00\n        /* \"TimeAllySIP.sol\":6025:6029  sips */\n      0x06\n        /* \"TimeAllySIP.sol\":6025:6045  sips[_stakerAddress] */\n      0x00\n        /* \"TimeAllySIP.sol\":6030:6044  _stakerAddress */\n      dup5\n        /* \"TimeAllySIP.sol\":6025:6045  sips[_stakerAddress] */\n      0xffffffffffffffffffffffffffffffffffffffff\n      and\n      0xffffffffffffffffffffffffffffffffffffffff\n      and\n      dup2\n      mstore\n      0x20\n      add\n      swap1\n      dup2\n      mstore\n      0x20\n      add\n      0x00\n      keccak256\n        /* \"TimeAllySIP.sol\":6046:6052  _sipId */\n      dup3\n        /* \"TimeAllySIP.sol\":6025:6053  sips[_stakerAddress][_sipId] */\n      dup2\n      sload\n      dup2\n      lt\n      tag_315\n      jumpi\n      invalid\n    tag_315:\n      swap1\n      0x00\n      mstore\n      keccak256(0x00, 0x20)\n      swap1\n      0x0c\n      mul\n      add\n        /* \"TimeAllySIP.sol\":6006:6053  SIP storage _sip = sips[_stakerAddress][_sipId] */\n      swap1\n      pop\n        /* \"TimeAllySIP.sol\":6156:6170  _stakerAddress */\n      dup3\n        /* \"TimeAllySIP.sol\":6142:6170  msg.sender != _stakerAddress */\n      0xffffffffffffffffffffffffffffffffffffffff\n      and\n        /* \"TimeAllySIP.sol\":6142:6152  msg.sender */\n      caller\n        /* \"TimeAllySIP.sol\":6142:6170  msg.sender != _stakerAddress */\n      0xffffffffffffffffffffffffffffffffffffffff\n      and\n      eq\n        /* \"TimeAllySIP.sol\":6139:6251  if(msg.sender != _stakerAddress) {... */\n      tag_317\n      jumpi\n        /* \"TimeAllySIP.sol\":6188:6192  _sip */\n      dup1\n        /* \"TimeAllySIP.sol\":6188:6201  _sip.nominees */\n      0x0a\n      add\n        /* \"TimeAllySIP.sol\":6188:6213  _sip.nominees[msg.sender] */\n      0x00\n        /* \"TimeAllySIP.sol\":6202:6212  msg.sender */\n      caller\n        /* \"TimeAllySIP.sol\":6188:6213  _sip.nominees[msg.sender] */\n      0xffffffffffffffffffffffffffffffffffffffff\n      and\n      0xffffffffffffffffffffffffffffffffffffffff\n      and\n      dup2\n      mstore\n      0x20\n      add\n      swap1\n      dup2\n      mstore\n      0x20\n      add\n      0x00\n      keccak256\n      0x00\n      swap1\n      sload\n      swap1\n      0x0100\n      exp\n      swap1\n      div\n      0xff\n      and\n        /* \"TimeAllySIP.sol\":6180:6244  require(_sip.nominees[msg.sender], 'nomination should be there') */\n      tag_318\n      jumpi\n      mload(0x40)\n      0x08c379a000000000000000000000000000000000000000000000000000000000\n      dup2\n      mstore\n      0x04\n      add\n      dup1\n      dup1\n      0x20\n      add\n      dup3\n      dup2\n      sub\n      dup3\n      mstore\n      0x1a\n      dup2\n      mstore\n      0x20\n      add\n      dup1\n      0x6e6f6d696e6174696f6e2073686f756c64206265207468657265000000000000\n      dup2\n      mstore\n      pop\n      0x20\n      add\n      swap2\n      pop\n      pop\n      mload(0x40)\n      dup1\n      swap2\n      sub\n      swap1\n      revert\n    tag_318:\n        /* \"TimeAllySIP.sol\":6139:6251  if(msg.sender != _stakerAddress) {... */\n    tag_317:\n        /* \"TimeAllySIP.sol\":14142:14158  SIP storage _sip */\n      0x00\n        /* \"TimeAllySIP.sol\":14161:14165  sips */\n      0x06\n        /* \"TimeAllySIP.sol\":14161:14181  sips[_stakerAddress] */\n      0x00\n        /* \"TimeAllySIP.sol\":14166:14180  _stakerAddress */\n      dup11\n        /* \"TimeAllySIP.sol\":14161:14181  sips[_stakerAddress] */\n      0xffffffffffffffffffffffffffffffffffffffff\n      and\n      0xffffffffffffffffffffffffffffffffffffffff\n      and\n      dup2\n      mstore\n      0x20\n      add\n      swap1\n      dup2\n      mstore\n      0x20\n      add\n      0x00\n      keccak256\n        /* \"TimeAllySIP.sol\":14182:14188  _sipId */\n      dup9\n        /* \"TimeAllySIP.sol\":14161:14189  sips[_stakerAddress][_sipId] */\n      dup2\n      sload\n      dup2\n      lt\n      tag_320\n      jumpi\n      invalid\n    tag_320:\n      swap1\n      0x00\n      mstore\n      keccak256(0x00, 0x20)\n      swap1\n      0x0c\n      mul\n      add\n        /* \"TimeAllySIP.sol\":14142:14189  SIP storage _sip = sips[_stakerAddress][_sipId] */\n      swap1\n      pop\n        /* \"TimeAllySIP.sol\":14228:14232  _sip */\n      dup1\n        /* \"TimeAllySIP.sol\":14228:14256  _sip.monthlyCommitmentAmount */\n      0x02\n      add\n      sload\n        /* \"TimeAllySIP.sol\":14210:14224  _depositAmount */\n      dup8\n        /* \"TimeAllySIP.sol\":14210:14256  _depositAmount >= _sip.monthlyCommitmentAmount */\n      lt\n      iszero\n        /* \"TimeAllySIP.sol\":14195:14311  require(... */\n      tag_322\n      jumpi\n      mload(0x40)\n      0x08c379a000000000000000000000000000000000000000000000000000000000\n      dup2\n      mstore\n      0x04\n      add\n      dup1\n      dup1\n      0x20\n      add\n      dup3\n      dup2\n      sub\n      dup3\n      mstore\n      0x26\n      dup2\n      mstore\n      0x20\n      add\n      dup1\n      data_9c5671fbe7325ac18b46fc94e6063ecafd5a4a15681b363f5d37ce08ea0b8f61\n      0x26\n      swap2\n      codecopy\n      0x40\n      add\n      swap2\n      pop\n      pop\n      mload(0x40)\n      dup1\n      swap2\n      sub\n      swap1\n      revert\n    tag_322:\n        /* \"TimeAllySIP.sol\":14449:14450  0 */\n      0x00\n        /* \"TimeAllySIP.sol\":14417:14421  _sip */\n      dup2\n        /* \"TimeAllySIP.sol\":14417:14435  _sip.depositStatus */\n      0x08\n      add\n        /* \"TimeAllySIP.sol\":14417:14445  _sip.depositStatus[_monthId] */\n      0x00\n        /* \"TimeAllySIP.sol\":14436:14444  _monthId */\n      dup9\n        /* \"TimeAllySIP.sol\":14417:14445  _sip.depositStatus[_monthId] */\n      dup2\n      mstore\n      0x20\n      add\n      swap1\n      dup2\n      mstore\n      0x20\n      add\n      0x00\n      keccak256\n      sload\n        /* \"TimeAllySIP.sol\":14417:14450  _sip.depositStatus[_monthId] == 0 */\n      eq\n        /* \"TimeAllySIP.sol\":14402:14487  require(... */\n      tag_323\n      jumpi\n      mload(0x40)\n      0x08c379a000000000000000000000000000000000000000000000000000000000\n      dup2\n      mstore\n      0x04\n      add\n      dup1\n      dup1\n      0x20\n      add\n      dup3\n      dup2\n      sub\n      dup3\n      mstore\n      0x14\n      dup2\n      mstore\n      0x20\n      add\n      dup1\n      0x63616e6e6f74206465706f73697420616761696e000000000000000000000000\n      dup2\n      mstore\n      pop\n      0x20\n      add\n      swap2\n      pop\n      pop\n      mload(0x40)\n      dup1\n      swap2\n      sub\n      swap1\n      revert\n    tag_323:\n        /* \"TimeAllySIP.sol\":14577:14604  uint256 _singleMonthBenefit */\n      0x00\n        /* \"TimeAllySIP.sol\":14607:14695  _depositAmount... */\n      tag_324\n        /* \"TimeAllySIP.sol\":14690:14694  1000 */\n      0x03e8\n        /* \"TimeAllySIP.sol\":14607:14678  _depositAmount... */\n      tag_325\n        /* \"TimeAllySIP.sol\":14633:14641  sipPlans */\n      0x05\n        /* \"TimeAllySIP.sol\":14643:14647  _sip */\n      dup6\n        /* \"TimeAllySIP.sol\":14643:14654  _sip.planId */\n      0x00\n      add\n      sload\n        /* \"TimeAllySIP.sol\":14633:14656  sipPlans[ _sip.planId ] */\n      dup2\n      sload\n      dup2\n      lt\n      tag_326\n      jumpi\n      invalid\n    tag_326:\n      swap1\n      0x00\n      mstore\n      keccak256(0x00, 0x20)\n      swap1\n      0x08\n      mul\n      add\n        /* \"TimeAllySIP.sol\":14633:14677  sipPlans[ _sip.planId ].monthlyBenefitFactor */\n      0x05\n      add\n      sload\n        /* \"TimeAllySIP.sol\":14607:14621  _depositAmount */\n      dup12\n        /* \"TimeAllySIP.sol\":14607:14632  _depositAmount... */\n      tag_182\n      swap1\n        /* \"TimeAllySIP.sol\":14607:14678  _depositAmount... */\n      swap2\n      swap1\n      0xffffffff\n      and\n      jump\t// in\n    tag_325:\n        /* \"TimeAllySIP.sol\":14607:14689  _depositAmount... */\n      tag_162\n      swap1\n        /* \"TimeAllySIP.sol\":14607:14695  _depositAmount... */\n      swap2\n      swap1\n      0xffffffff\n      and\n      jump\t// in\n    tag_324:\n        /* \"TimeAllySIP.sol\":14577:14695  uint256 _singleMonthBenefit = _depositAmount... */\n      swap1\n      pop\n        /* \"TimeAllySIP.sol\":14702:14728  uint256 _benefitsToBeGiven */\n      0x00\n        /* \"TimeAllySIP.sol\":14731:14805  _singleMonthBenefit... */\n      tag_328\n        /* \"TimeAllySIP.sol\":14762:14770  sipPlans */\n      0x05\n        /* \"TimeAllySIP.sol\":14772:14776  _sip */\n      dup5\n        /* \"TimeAllySIP.sol\":14772:14783  _sip.planId */\n      0x00\n      add\n      sload\n        /* \"TimeAllySIP.sol\":14762:14785  sipPlans[ _sip.planId ] */\n      dup2\n      sload\n      dup2\n      lt\n      tag_329\n      jumpi\n      invalid\n    tag_329:\n      swap1\n      0x00\n      mstore\n      keccak256(0x00, 0x20)\n      swap1\n      0x08\n      mul\n      add\n        /* \"TimeAllySIP.sol\":14762:14804  sipPlans[ _sip.planId ].benefitPeriodYears */\n      0x03\n      add\n      sload\n        /* \"TimeAllySIP.sol\":14731:14750  _singleMonthBenefit */\n      dup4\n        /* \"TimeAllySIP.sol\":14731:14761  _singleMonthBenefit... */\n      tag_182\n      swap1\n        /* \"TimeAllySIP.sol\":14731:14805  _singleMonthBenefit... */\n      swap2\n      swap1\n      0xffffffff\n      and\n      jump\t// in\n    tag_328:\n        /* \"TimeAllySIP.sol\":14702:14805  uint256 _benefitsToBeGiven = _singleMonthBenefit... */\n      swap1\n      pop\n        /* \"TimeAllySIP.sol\":14910:14966  _benefitsToBeGiven.add(pendingBenefitAmountOfAllStakers) */\n      tag_331\n        /* \"TimeAllySIP.sol\":14933:14965  pendingBenefitAmountOfAllStakers */\n      sload(0x03)\n        /* \"TimeAllySIP.sol\":14910:14928  _benefitsToBeGiven */\n      dup3\n        /* \"TimeAllySIP.sol\":14910:14932  _benefitsToBeGiven.add */\n      tag_185\n      swap1\n        /* \"TimeAllySIP.sol\":14910:14966  _benefitsToBeGiven.add(pendingBenefitAmountOfAllStakers) */\n      swap2\n      swap1\n      0xffffffff\n      and\n      jump\t// in\n    tag_331:\n        /* \"TimeAllySIP.sol\":14894:14906  fundsDeposit */\n      sload(0x04)\n        /* \"TimeAllySIP.sol\":14894:14966  fundsDeposit >= _benefitsToBeGiven.add(pendingBenefitAmountOfAllStakers) */\n      lt\n      iszero\n        /* \"TimeAllySIP.sol\":14879:15018  require(... */\n      tag_332\n      jumpi\n      mload(0x40)\n      0x08c379a000000000000000000000000000000000000000000000000000000000\n      dup2\n      mstore\n      0x04\n      add\n      dup1\n      dup1\n      0x20\n      add\n      dup3\n      dup2\n      sub\n      dup3\n      mstore\n      0x23\n      dup2\n      mstore\n      0x20\n      add\n      dup1\n      data_1ed4c5a626955f79ae434eb1205332592ca7c398b87a33918d99477c1feef678\n      0x23\n      swap2\n      codecopy\n      0x40\n      add\n      swap2\n      pop\n      pop\n      mload(0x40)\n      dup1\n      swap2\n      sub\n      swap1\n      revert\n    tag_332:\n        /* \"TimeAllySIP.sol\":15095:15117  uint256 _depositStatus */\n      0x00\n        /* \"TimeAllySIP.sol\":15120:15170  getDepositStatus(_stakerAddress, _sipId, _monthId) */\n      tag_333\n        /* \"TimeAllySIP.sol\":15137:15151  _stakerAddress */\n      dup13\n        /* \"TimeAllySIP.sol\":15153:15159  _sipId */\n      dup13\n        /* \"TimeAllySIP.sol\":15161:15169  _monthId */\n      dup12\n        /* \"TimeAllySIP.sol\":15120:15136  getDepositStatus */\n      tag_82\n        /* \"TimeAllySIP.sol\":15120:15170  getDepositStatus(_stakerAddress, _sipId, _monthId) */\n      jump\t// in\n    tag_333:\n        /* \"TimeAllySIP.sol\":15095:15170  uint256 _depositStatus = getDepositStatus(_stakerAddress, _sipId, _monthId) */\n      swap1\n      pop\n        /* \"TimeAllySIP.sol\":15201:15202  0 */\n      0x00\n        /* \"TimeAllySIP.sol\":15184:15198  _depositStatus */\n      dup2\n        /* \"TimeAllySIP.sol\":15184:15202  _depositStatus > 0 */\n      gt\n        /* \"TimeAllySIP.sol\":15176:15240  require(_depositStatus > 0, 'grace period elapsed or too early') */\n      tag_334\n      jumpi\n      mload(0x40)\n      0x08c379a000000000000000000000000000000000000000000000000000000000\n      dup2\n      mstore\n      0x04\n      add\n      dup1\n      dup1\n      0x20\n      add\n      dup3\n      dup2\n      sub\n      dup3\n      mstore\n      0x21\n      dup2\n      mstore\n      0x20\n      add\n      dup1\n      data_03fd12cc1e83f0add881327c75791a0246e8ebc9eefe5c518ed172fe66fc682c\n      0x21\n      swap2\n      codecopy\n      0x40\n      add\n      swap2\n      pop\n      pop\n      mload(0x40)\n      dup1\n      swap2\n      sub\n      swap1\n      revert\n    tag_334:\n        /* \"TimeAllySIP.sol\":15332:15345  _usePrepaidES */\n      dup8\n        /* \"TimeAllySIP.sol\":15329:15630  if(_usePrepaidES) {... */\n      iszero\n      tag_335\n      jumpi\n        /* \"TimeAllySIP.sol\":15431:15472  prepaidES[msg.sender].sub(_depositAmount) */\n      tag_336\n        /* \"TimeAllySIP.sol\":15457:15471  _depositAmount */\n      dup11\n        /* \"TimeAllySIP.sol\":15431:15440  prepaidES */\n      0x07\n        /* \"TimeAllySIP.sol\":15431:15452  prepaidES[msg.sender] */\n      0x00\n        /* \"TimeAllySIP.sol\":15441:15451  msg.sender */\n      caller\n        /* \"TimeAllySIP.sol\":15431:15452  prepaidES[msg.sender] */\n      0xffffffffffffffffffffffffffffffffffffffff\n      and\n      0xffffffffffffffffffffffffffffffffffffffff\n      and\n      dup2\n      mstore\n      0x20\n      add\n      swap1\n      dup2\n      mstore\n      0x20\n      add\n      0x00\n      keccak256\n      sload\n        /* \"TimeAllySIP.sol\":15431:15456  prepaidES[msg.sender].sub */\n      tag_128\n      swap1\n        /* \"TimeAllySIP.sol\":15431:15472  prepaidES[msg.sender].sub(_depositAmount) */\n      swap2\n      swap1\n      0xffffffff\n      and\n      jump\t// in\n    tag_336:\n        /* \"TimeAllySIP.sol\":15407:15416  prepaidES */\n      0x07\n        /* \"TimeAllySIP.sol\":15407:15428  prepaidES[msg.sender] */\n      0x00\n        /* \"TimeAllySIP.sol\":15417:15427  msg.sender */\n      caller\n        /* \"TimeAllySIP.sol\":15407:15428  prepaidES[msg.sender] */\n      0xffffffffffffffffffffffffffffffffffffffff\n      and\n      0xffffffffffffffffffffffffffffffffffffffff\n      and\n      dup2\n      mstore\n      0x20\n      add\n      swap1\n      dup2\n      mstore\n      0x20\n      add\n      0x00\n      keccak256\n        /* \"TimeAllySIP.sol\":15407:15472  prepaidES[msg.sender] = prepaidES[msg.sender].sub(_depositAmount) */\n      dup2\n      swap1\n      sstore\n      pop\n        /* \"TimeAllySIP.sol\":15329:15630  if(_usePrepaidES) {... */\n      jump(tag_337)\n    tag_335:\n        /* \"TimeAllySIP.sol\":15561:15566  token */\n      0x01\n      0x00\n      swap1\n      sload\n      swap1\n      0x0100\n      exp\n      swap1\n      div\n      0xffffffffffffffffffffffffffffffffffffffff\n      and\n        /* \"TimeAllySIP.sol\":15561:15579  token.transferFrom */\n      0xffffffffffffffffffffffffffffffffffffffff\n      and\n      0x23b872dd\n        /* \"TimeAllySIP.sol\":15580:15590  msg.sender */\n      caller\n        /* \"TimeAllySIP.sol\":15600:15604  this */\n      address\n        /* \"TimeAllySIP.sol\":15607:15621  _depositAmount */\n      dup14\n        /* \"TimeAllySIP.sol\":15561:15622  token.transferFrom(msg.sender, address(this), _depositAmount) */\n      mload(0x40)\n      dup5\n      0xffffffff\n      and\n      0xe0\n      shl\n      dup2\n      mstore\n      0x04\n      add\n      dup1\n      dup5\n      0xffffffffffffffffffffffffffffffffffffffff\n      and\n      0xffffffffffffffffffffffffffffffffffffffff\n      and\n      dup2\n      mstore\n      0x20\n      add\n      dup4\n      0xffffffffffffffffffffffffffffffffffffffff\n      and\n      0xffffffffffffffffffffffffffffffffffffffff\n      and\n      dup2\n      mstore\n      0x20\n      add\n      dup3\n      dup2\n      mstore\n      0x20\n      add\n      swap4\n      pop\n      pop\n      pop\n      pop\n      0x20\n      mload(0x40)\n      dup1\n      dup4\n      sub\n      dup2\n      0x00\n      dup8\n      dup1\n      extcodesize\n      iszero\n        /* \"--CODEGEN--\":8:17   */\n      dup1\n        /* \"--CODEGEN--\":5:7   */\n      iszero\n      tag_338\n      jumpi\n        /* \"--CODEGEN--\":30:31   */\n      0x00\n        /* \"--CODEGEN--\":27:28   */\n      dup1\n        /* \"--CODEGEN--\":20:32   */\n      revert\n        /* \"--CODEGEN--\":5:7   */\n    tag_338:\n        /* \"TimeAllySIP.sol\":15561:15622  token.transferFrom(msg.sender, address(this), _depositAmount) */\n      pop\n      gas\n      call\n      iszero\n        /* \"--CODEGEN--\":8:17   */\n      dup1\n        /* \"--CODEGEN--\":5:7   */\n      iszero\n      tag_339\n      jumpi\n        /* \"--CODEGEN--\":45:61   */\n      returndatasize\n        /* \"--CODEGEN--\":42:43   */\n      0x00\n        /* \"--CODEGEN--\":39:40   */\n      dup1\n        /* \"--CODEGEN--\":24:62   */\n      returndatacopy\n        /* \"--CODEGEN--\":77:93   */\n      returndatasize\n        /* \"--CODEGEN--\":74:75   */\n      0x00\n        /* \"--CODEGEN--\":67:94   */\n      revert\n        /* \"--CODEGEN--\":5:7   */\n    tag_339:\n        /* \"TimeAllySIP.sol\":15561:15622  token.transferFrom(msg.sender, address(this), _depositAmount) */\n      pop\n      pop\n      pop\n      pop\n      mload(0x40)\n      returndatasize\n        /* \"--CODEGEN--\":13:15   */\n      0x20\n        /* \"--CODEGEN--\":8:11   */\n      dup2\n        /* \"--CODEGEN--\":5:16   */\n      lt\n        /* \"--CODEGEN--\":2:4   */\n      iszero\n      tag_340\n      jumpi\n        /* \"--CODEGEN--\":29:30   */\n      0x00\n        /* \"--CODEGEN--\":26:27   */\n      dup1\n        /* \"--CODEGEN--\":19:31   */\n      revert\n        /* \"--CODEGEN--\":2:4   */\n    tag_340:\n        /* \"TimeAllySIP.sol\":15561:15622  token.transferFrom(msg.sender, address(this), _depositAmount) */\n      dup2\n      add\n      swap1\n      dup1\n      dup1\n      mload\n      swap1\n      0x20\n      add\n      swap1\n      swap3\n      swap2\n      swap1\n      pop\n      pop\n      pop\n        /* \"TimeAllySIP.sol\":15553:15623  require(token.transferFrom(msg.sender, address(this), _depositAmount)) */\n      tag_341\n      jumpi\n      0x00\n      dup1\n      revert\n    tag_341:\n        /* \"TimeAllySIP.sol\":15329:15630  if(_usePrepaidES) {... */\n    tag_337:\n        /* \"TimeAllySIP.sol\":15707:15721  _depositStatus */\n      dup1\n        /* \"TimeAllySIP.sol\":15676:15680  _sip */\n      dup5\n        /* \"TimeAllySIP.sol\":15676:15694  _sip.depositStatus */\n      0x08\n      add\n        /* \"TimeAllySIP.sol\":15676:15704  _sip.depositStatus[_monthId] */\n      0x00\n        /* \"TimeAllySIP.sol\":15695:15703  _monthId */\n      dup12\n        /* \"TimeAllySIP.sol\":15676:15704  _sip.depositStatus[_monthId] */\n      dup2\n      mstore\n      0x20\n      add\n      swap1\n      dup2\n      mstore\n      0x20\n      add\n      0x00\n      keccak256\n        /* \"TimeAllySIP.sol\":15676:15721  _sip.depositStatus[_monthId] = _depositStatus */\n      dup2\n      swap1\n      sstore\n      pop\n        /* \"TimeAllySIP.sol\":15765:15784  _singleMonthBenefit */\n      dup3\n        /* \"TimeAllySIP.sol\":15727:15731  _sip */\n      dup5\n        /* \"TimeAllySIP.sol\":15727:15752  _sip.monthlyBenefitAmount */\n      0x09\n      add\n        /* \"TimeAllySIP.sol\":15727:15762  _sip.monthlyBenefitAmount[_monthId] */\n      0x00\n        /* \"TimeAllySIP.sol\":15753:15761  _monthId */\n      dup12\n        /* \"TimeAllySIP.sol\":15727:15762  _sip.monthlyBenefitAmount[_monthId] */\n      dup2\n      mstore\n      0x20\n      add\n      swap1\n      dup2\n      mstore\n      0x20\n      add\n      0x00\n      keccak256\n        /* \"TimeAllySIP.sol\":15727:15784  _sip.monthlyBenefitAmount[_monthId] = _singleMonthBenefit */\n      dup2\n      swap1\n      sstore\n      pop\n        /* \"TimeAllySIP.sol\":15860:15899  _sip.totalDeposited.add(_depositAmount) */\n      tag_342\n        /* \"TimeAllySIP.sol\":15884:15898  _depositAmount */\n      dup11\n        /* \"TimeAllySIP.sol\":15860:15864  _sip */\n      dup6\n        /* \"TimeAllySIP.sol\":15860:15879  _sip.totalDeposited */\n      0x03\n      add\n      sload\n        /* \"TimeAllySIP.sol\":15860:15883  _sip.totalDeposited.add */\n      tag_185\n      swap1\n        /* \"TimeAllySIP.sol\":15860:15899  _sip.totalDeposited.add(_depositAmount) */\n      swap2\n      swap1\n      0xffffffff\n      and\n      jump\t// in\n    tag_342:\n        /* \"TimeAllySIP.sol\":15838:15842  _sip */\n      dup5\n        /* \"TimeAllySIP.sol\":15838:15857  _sip.totalDeposited */\n      0x03\n      add\n        /* \"TimeAllySIP.sol\":15838:15899  _sip.totalDeposited = _sip.totalDeposited.add(_depositAmount) */\n      dup2\n      swap1\n      sstore\n      pop\n        /* \"TimeAllySIP.sol\":15984:16052  pendingBenefitAmountOfAllStakers.add(... */\n      tag_343\n        /* \"TimeAllySIP.sol\":16028:16046  _benefitsToBeGiven */\n      dup3\n        /* \"TimeAllySIP.sol\":15984:16016  pendingBenefitAmountOfAllStakers */\n      sload(0x03)\n        /* \"TimeAllySIP.sol\":15984:16020  pendingBenefitAmountOfAllStakers.add */\n      tag_185\n      swap1\n        /* \"TimeAllySIP.sol\":15984:16052  pendingBenefitAmountOfAllStakers.add(... */\n      swap2\n      swap1\n      0xffffffff\n      and\n      jump\t// in\n    tag_343:\n        /* \"TimeAllySIP.sol\":15949:15981  pendingBenefitAmountOfAllStakers */\n      0x03\n        /* \"TimeAllySIP.sol\":15949:16052  pendingBenefitAmountOfAllStakers = pendingBenefitAmountOfAllStakers.add(... */\n      dup2\n      swap1\n      sstore\n      pop\n        /* \"TimeAllySIP.sol\":16139:16145  _sipId */\n      dup11\n        /* \"TimeAllySIP.sol\":16123:16137  _stakerAddress */\n      dup13\n        /* \"TimeAllySIP.sol\":16112:16204  NewDeposit(_stakerAddress, _sipId, _monthId, _depositAmount, _benefitsToBeGiven, msg.sender) */\n      0xffffffffffffffffffffffffffffffffffffffff\n      and\n      0xbaf4c88598102708c4215d5d3767268130627355850b7ece9bdfdc32fd2941f0\n        /* \"TimeAllySIP.sol\":16147:16155  _monthId */\n      dup12\n        /* \"TimeAllySIP.sol\":16157:16171  _depositAmount */\n      dup14\n        /* \"TimeAllySIP.sol\":16173:16191  _benefitsToBeGiven */\n      dup7\n        /* \"TimeAllySIP.sol\":16193:16203  msg.sender */\n      caller\n        /* \"TimeAllySIP.sol\":16112:16204  NewDeposit(_stakerAddress, _sipId, _monthId, _depositAmount, _benefitsToBeGiven, msg.sender) */\n      mload(0x40)\n      dup1\n      dup6\n      dup2\n      mstore\n      0x20\n      add\n      dup5\n      dup2\n      mstore\n      0x20\n      add\n      dup4\n      dup2\n      mstore\n      0x20\n      add\n      dup3\n      0xffffffffffffffffffffffffffffffffffffffff\n      and\n      0xffffffffffffffffffffffffffffffffffffffff\n      and\n      dup2\n      mstore\n      0x20\n      add\n      swap5\n      pop\n      pop\n      pop\n      pop\n      pop\n      mload(0x40)\n      dup1\n      swap2\n      sub\n      swap1\n      log3\n        /* \"TimeAllySIP.sol\":6256:6257  _ */\n      pop\n      pop\n      pop\n      pop\n        /* \"TimeAllySIP.sol\":13943:16209  function monthlyDeposit(... */\n      pop\n      pop\n      pop\n      pop\n      pop\n      pop\n      pop\n      pop\n      jump\t// out\n        /* \"TimeAllySIP.sol\":3531:3556  SIPPlan[] public sipPlans */\n    tag_106:\n      0x05\n      dup2\n      dup2\n      sload\n      dup2\n      lt\n      tag_344\n      jumpi\n      invalid\n    tag_344:\n      swap1\n      0x00\n      mstore\n      keccak256(0x00, 0x20)\n      swap1\n      0x08\n      mul\n      add\n      0x00\n      swap2\n      pop\n      swap1\n      pop\n      dup1\n      0x00\n      add\n      0x00\n      swap1\n      sload\n      swap1\n      0x0100\n      exp\n      swap1\n      div\n      0xff\n      and\n      swap1\n      dup1\n      0x01\n      add\n      sload\n      swap1\n      dup1\n      0x02\n      add\n      sload\n      swap1\n      dup1\n      0x03\n      add\n      sload\n      swap1\n      dup1\n      0x04\n      add\n      sload\n      swap1\n      dup1\n      0x05\n      add\n      sload\n      swap1\n      dup1\n      0x06\n      add\n      sload\n      swap1\n      dup1\n      0x07\n      add\n      sload\n      swap1\n      pop\n      dup9\n      jump\t// out\n        /* \"TimeAllySIP.sol\":24220:24424  function getDepositDoneStatus(... */\n    tag_109:\n        /* \"TimeAllySIP.sol\":24345:24352  uint256 */\n      0x00\n        /* \"TimeAllySIP.sol\":24367:24371  sips */\n      0x06\n        /* \"TimeAllySIP.sol\":24367:24387  sips[_stakerAddress] */\n      0x00\n        /* \"TimeAllySIP.sol\":24372:24386  _stakerAddress */\n      dup6\n        /* \"TimeAllySIP.sol\":24367:24387  sips[_stakerAddress] */\n      0xffffffffffffffffffffffffffffffffffffffff\n      and\n      0xffffffffffffffffffffffffffffffffffffffff\n      and\n      dup2\n      mstore\n      0x20\n      add\n      swap1\n      dup2\n      mstore\n      0x20\n      add\n      0x00\n      keccak256\n        /* \"TimeAllySIP.sol\":24388:24394  _sipId */\n      dup4\n        /* \"TimeAllySIP.sol\":24367:24395  sips[_stakerAddress][_sipId] */\n      dup2\n      sload\n      dup2\n      lt\n      tag_347\n      jumpi\n      invalid\n    tag_347:\n      swap1\n      0x00\n      mstore\n      keccak256(0x00, 0x20)\n      swap1\n      0x0c\n      mul\n      add\n        /* \"TimeAllySIP.sol\":24367:24409  sips[_stakerAddress][_sipId].depositStatus */\n      0x08\n      add\n        /* \"TimeAllySIP.sol\":24367:24419  sips[_stakerAddress][_sipId].depositStatus[_monthId] */\n      0x00\n        /* \"TimeAllySIP.sol\":24410:24418  _monthId */\n      dup4\n        /* \"TimeAllySIP.sol\":24367:24419  sips[_stakerAddress][_sipId].depositStatus[_monthId] */\n      dup2\n      mstore\n      0x20\n      add\n      swap1\n      dup2\n      mstore\n      0x20\n      add\n      0x00\n      keccak256\n      sload\n        /* \"TimeAllySIP.sol\":24360:24419  return sips[_stakerAddress][_sipId].depositStatus[_monthId] */\n      swap1\n      pop\n        /* \"TimeAllySIP.sol\":24220:24424  function getDepositDoneStatus(... */\n      swap4\n      swap3\n      pop\n      pop\n      pop\n      jump\t// out\n        /* \"TimeAllySIP.sol\":3630:3667  mapping(address => SIP[]) public sips */\n    tag_112:\n      mstore(0x20, 0x06)\n      dup2\n      0x00\n      mstore\n      keccak256(0x00, 0x40)\n      dup2\n      dup2\n      sload\n      dup2\n      lt\n      tag_349\n      jumpi\n      invalid\n    tag_349:\n      swap1\n      0x00\n      mstore\n      keccak256(0x00, 0x20)\n      swap1\n      0x0c\n      mul\n      add\n      0x00\n      swap2\n      pop\n      swap2\n      pop\n      pop\n      dup1\n      0x00\n      add\n      sload\n      swap1\n      dup1\n      0x01\n      add\n      sload\n      swap1\n      dup1\n      0x02\n      add\n      sload\n      swap1\n      dup1\n      0x03\n      add\n      sload\n      swap1\n      dup1\n      0x04\n      add\n      sload\n      swap1\n      dup1\n      0x05\n      add\n      sload\n      swap1\n      dup1\n      0x06\n      add\n      sload\n      swap1\n      dup1\n      0x07\n      add\n      sload\n      swap1\n      pop\n      dup9\n      jump\t// out\n        /* \"TimeAllySIP.sol\":3766:3810  mapping(address => uint256) public prepaidES */\n    tag_115:\n      mstore(0x20, 0x07)\n      dup1\n      0x00\n      mstore\n      keccak256(0x00, 0x40)\n      0x00\n      swap2\n      pop\n      swap1\n      pop\n      sload\n      dup2\n      jump\t// out\n        /* \"TimeAllySIP.sol\":2785:2803  ERC20 public token */\n    tag_117:\n      0x01\n      0x00\n      swap1\n      sload\n      swap1\n      0x0100\n      exp\n      swap1\n      div\n      0xffffffffffffffffffffffffffffffffffffffff\n      and\n      dup2\n      jump\t// out\n        /* \"SafeMath.sol\":1274:1408  function sub(uint256 a, uint256 b) internal pure returns (uint256) {... */\n    tag_128:\n        /* \"SafeMath.sol\":1332:1339  uint256 */\n      0x00\n        /* \"SafeMath.sol\":1358:1401  sub(a, b, \"SafeMath: subtraction overflow\") */\n      tag_352\n        /* \"SafeMath.sol\":1362:1363  a */\n      dup4\n        /* \"SafeMath.sol\":1365:1366  b */\n      dup4\n        /* \"SafeMath.sol\":1358:1401  sub(a, b, \"SafeMath: subtraction overflow\") */\n      mload(0x40)\n      dup1\n      0x40\n      add\n      0x40\n      mstore\n      dup1\n      0x1e\n      dup2\n      mstore\n      0x20\n      add\n      0x536166654d6174683a207375627472616374696f6e206f766572666c6f770000\n      dup2\n      mstore\n      pop\n        /* \"SafeMath.sol\":1358:1361  sub */\n      tag_353\n        /* \"SafeMath.sol\":1358:1401  sub(a, b, \"SafeMath: subtraction overflow\") */\n      jump\t// in\n    tag_352:\n        /* \"SafeMath.sol\":1351:1401  return sub(a, b, \"SafeMath: subtraction overflow\") */\n      swap1\n      pop\n        /* \"SafeMath.sol\":1274:1408  function sub(uint256 a, uint256 b) internal pure returns (uint256) {... */\n      swap3\n      swap2\n      pop\n      pop\n      jump\t// out\n        /* \"SafeMath.sol\":3185:3315  function div(uint256 a, uint256 b) internal pure returns (uint256) {... */\n    tag_162:\n        /* \"SafeMath.sol\":3243:3250  uint256 */\n      0x00\n        /* \"SafeMath.sol\":3269:3308  div(a, b, \"SafeMath: division by zero\") */\n      tag_355\n        /* \"SafeMath.sol\":3273:3274  a */\n      dup4\n        /* \"SafeMath.sol\":3276:3277  b */\n      dup4\n        /* \"SafeMath.sol\":3269:3308  div(a, b, \"SafeMath: division by zero\") */\n      mload(0x40)\n      dup1\n      0x40\n      add\n      0x40\n      mstore\n      dup1\n      0x1a\n      dup2\n      mstore\n      0x20\n      add\n      0x536166654d6174683a206469766973696f6e206279207a65726f000000000000\n      dup2\n      mstore\n      pop\n        /* \"SafeMath.sol\":3269:3272  div */\n      tag_356\n        /* \"SafeMath.sol\":3269:3308  div(a, b, \"SafeMath: division by zero\") */\n      jump\t// in\n    tag_355:\n        /* \"SafeMath.sol\":3262:3308  return div(a, b, \"SafeMath: division by zero\") */\n      swap1\n      pop\n        /* \"SafeMath.sol\":3185:3315  function div(uint256 a, uint256 b) internal pure returns (uint256) {... */\n      swap3\n      swap2\n      pop\n      pop\n      jump\t// out\n        /* \"SafeMath.sol\":2271:2730  function mul(uint256 a, uint256 b) internal pure returns (uint256) {... */\n    tag_182:\n        /* \"SafeMath.sol\":2329:2336  uint256 */\n      0x00\n        /* \"SafeMath.sol\":2575:2576  0 */\n      dup1\n        /* \"SafeMath.sol\":2570:2571  a */\n      dup4\n        /* \"SafeMath.sol\":2570:2576  a == 0 */\n      eq\n        /* \"SafeMath.sol\":2566:2611  if (a == 0) {... */\n      iszero\n      tag_358\n      jumpi\n        /* \"SafeMath.sol\":2599:2600  0 */\n      0x00\n        /* \"SafeMath.sol\":2592:2600  return 0 */\n      swap1\n      pop\n      jump(tag_357)\n        /* \"SafeMath.sol\":2566:2611  if (a == 0) {... */\n    tag_358:\n        /* \"SafeMath.sol\":2621:2630  uint256 c */\n      0x00\n        /* \"SafeMath.sol\":2637:2638  b */\n      dup3\n        /* \"SafeMath.sol\":2633:2634  a */\n      dup5\n        /* \"SafeMath.sol\":2633:2638  a * b */\n      mul\n        /* \"SafeMath.sol\":2621:2638  uint256 c = a * b */\n      swap1\n      pop\n        /* \"SafeMath.sol\":2665:2666  b */\n      dup3\n        /* \"SafeMath.sol\":2660:2661  a */\n      dup5\n        /* \"SafeMath.sol\":2656:2657  c */\n      dup3\n        /* \"SafeMath.sol\":2656:2661  c / a */\n      dup2\n      tag_359\n      jumpi\n      invalid\n    tag_359:\n      div\n        /* \"SafeMath.sol\":2656:2666  c / a == b */\n      eq\n        /* \"SafeMath.sol\":2648:2704  require(c / a == b, \"SafeMath: multiplication overflow\") */\n      tag_360\n      jumpi\n      mload(0x40)\n      0x08c379a000000000000000000000000000000000000000000000000000000000\n      dup2\n      mstore\n      0x04\n      add\n      dup1\n      dup1\n      0x20\n      add\n      dup3\n      dup2\n      sub\n      dup3\n      mstore\n      0x21\n      dup2\n      mstore\n      0x20\n      add\n      dup1\n      data_9113bb53c2876a3805b2c9242029423fc540a728243ce887ab24c82cf119fba3\n      0x21\n      swap2\n      codecopy\n      0x40\n      add\n      swap2\n      pop\n      pop\n      mload(0x40)\n      dup1\n      swap2\n      sub\n      swap1\n      revert\n    tag_360:\n        /* \"SafeMath.sol\":2722:2723  c */\n      dup1\n        /* \"SafeMath.sol\":2715:2723  return c */\n      swap2\n      pop\n      pop\n        /* \"SafeMath.sol\":2271:2730  function mul(uint256 a, uint256 b) internal pure returns (uint256) {... */\n    tag_357:\n      swap3\n      swap2\n      pop\n      pop\n      jump\t// out\n        /* \"SafeMath.sol\":834:1010  function add(uint256 a, uint256 b) internal pure returns (uint256) {... */\n    tag_185:\n        /* \"SafeMath.sol\":892:899  uint256 */\n      0x00\n        /* \"SafeMath.sol\":911:920  uint256 c */\n      dup1\n        /* \"SafeMath.sol\":927:928  b */\n      dup3\n        /* \"SafeMath.sol\":923:924  a */\n      dup5\n        /* \"SafeMath.sol\":923:928  a + b */\n      add\n        /* \"SafeMath.sol\":911:928  uint256 c = a + b */\n      swap1\n      pop\n        /* \"SafeMath.sol\":951:952  a */\n      dup4\n        /* \"SafeMath.sol\":946:947  c */\n      dup2\n        /* \"SafeMath.sol\":946:952  c >= a */\n      lt\n      iszero\n        /* \"SafeMath.sol\":938:984  require(c >= a, \"SafeMath: addition overflow\") */\n      tag_362\n      jumpi\n      mload(0x40)\n      0x08c379a000000000000000000000000000000000000000000000000000000000\n      dup2\n      mstore\n      0x04\n      add\n      dup1\n      dup1\n      0x20\n      add\n      dup3\n      dup2\n      sub\n      dup3\n      mstore\n      0x1b\n      dup2\n      mstore\n      0x20\n      add\n      dup1\n      0x536166654d6174683a206164646974696f6e206f766572666c6f770000000000\n      dup2\n      mstore\n      pop\n      0x20\n      add\n      swap2\n      pop\n      pop\n      mload(0x40)\n      dup1\n      swap2\n      sub\n      swap1\n      revert\n    tag_362:\n        /* \"SafeMath.sol\":1002:1003  c */\n      dup1\n        /* \"SafeMath.sol\":995:1003  return c */\n      swap2\n      pop\n      pop\n        /* \"SafeMath.sol\":834:1010  function add(uint256 a, uint256 b) internal pure returns (uint256) {... */\n      swap3\n      swap2\n      pop\n      pop\n      jump\t// out\n        /* \"SafeMath.sol\":1844:2031  function sub(uint256 a, uint256 b, string memory errorMessage) internal pure returns (uint256) {... */\n    tag_353:\n        /* \"SafeMath.sol\":1930:1937  uint256 */\n      0x00\n        /* \"SafeMath.sol\":1962:1963  a */\n      dup4\n        /* \"SafeMath.sol\":1957:1958  b */\n      dup4\n        /* \"SafeMath.sol\":1957:1963  b <= a */\n      gt\n      iszero\n        /* \"SafeMath.sol\":1965:1977  errorMessage */\n      dup3\n        /* \"SafeMath.sol\":1949:1978  require(b <= a, errorMessage) */\n      swap1\n      tag_364\n      jumpi\n      mload(0x40)\n      0x08c379a000000000000000000000000000000000000000000000000000000000\n      dup2\n      mstore\n      0x04\n      add\n      dup1\n      dup1\n      0x20\n      add\n      dup3\n      dup2\n      sub\n      dup3\n      mstore\n      dup4\n      dup2\n      dup2\n      mload\n      dup2\n      mstore\n      0x20\n      add\n      swap2\n      pop\n      dup1\n      mload\n      swap1\n      0x20\n      add\n      swap1\n      dup1\n      dup4\n      dup4\n        /* \"--CODEGEN--\":23:24   */\n      0x00\n        /* \"--CODEGEN--\":8:108   */\n    tag_365:\n        /* \"--CODEGEN--\":33:36   */\n      dup4\n        /* \"--CODEGEN--\":30:31   */\n      dup2\n        /* \"--CODEGEN--\":27:37   */\n      lt\n        /* \"--CODEGEN--\":8:108   */\n      iszero\n      tag_367\n      jumpi\n        /* \"--CODEGEN--\":99:100   */\n      dup1\n        /* \"--CODEGEN--\":94:97   */\n      dup3\n        /* \"--CODEGEN--\":90:101   */\n      add\n        /* \"--CODEGEN--\":84:102   */\n      mload\n        /* \"--CODEGEN--\":80:81   */\n      dup2\n        /* \"--CODEGEN--\":75:78   */\n      dup5\n        /* \"--CODEGEN--\":71:82   */\n      add\n        /* \"--CODEGEN--\":64:103   */\n      mstore\n        /* \"--CODEGEN--\":52:54   */\n      0x20\n        /* \"--CODEGEN--\":49:50   */\n      dup2\n        /* \"--CODEGEN--\":45:55   */\n      add\n        /* \"--CODEGEN--\":40:55   */\n      swap1\n      pop\n        /* \"--CODEGEN--\":8:108   */\n      jump(tag_365)\n    tag_367:\n        /* \"--CODEGEN--\":12:26   */\n      pop\n        /* \"SafeMath.sol\":1949:1978  require(b <= a, errorMessage) */\n      pop\n      pop\n      pop\n      swap1\n      pop\n      swap1\n      dup2\n      add\n      swap1\n      0x1f\n      and\n      dup1\n      iszero\n      tag_368\n      jumpi\n      dup1\n      dup3\n      sub\n      dup1\n      mload\n      0x01\n      dup4\n      0x20\n      sub\n      0x0100\n      exp\n      sub\n      not\n      and\n      dup2\n      mstore\n      0x20\n      add\n      swap2\n      pop\n    tag_368:\n      pop\n      swap3\n      pop\n      pop\n      pop\n      mload(0x40)\n      dup1\n      swap2\n      sub\n      swap1\n      revert\n    tag_364:\n      pop\n        /* \"SafeMath.sol\":1988:1997  uint256 c */\n      0x00\n        /* \"SafeMath.sol\":2004:2005  b */\n      dup4\n        /* \"SafeMath.sol\":2000:2001  a */\n      dup6\n        /* \"SafeMath.sol\":2000:2005  a - b */\n      sub\n        /* \"SafeMath.sol\":1988:2005  uint256 c = a - b */\n      swap1\n      pop\n        /* \"SafeMath.sol\":2023:2024  c */\n      dup1\n        /* \"SafeMath.sol\":2016:2024  return c */\n      swap2\n      pop\n      pop\n        /* \"SafeMath.sol\":1844:2031  function sub(uint256 a, uint256 b, string memory errorMessage) internal pure returns (uint256) {... */\n      swap4\n      swap3\n      pop\n      pop\n      pop\n      jump\t// out\n        /* \"SafeMath.sol\":3936:4274  function div(uint256 a, uint256 b, string memory errorMessage) internal pure returns (uint256) {... */\n    tag_356:\n        /* \"SafeMath.sol\":4022:4029  uint256 */\n      0x00\n        /* \"SafeMath.sol\":4119:4120  0 */\n      dup1\n        /* \"SafeMath.sol\":4115:4116  b */\n      dup4\n        /* \"SafeMath.sol\":4115:4120  b > 0 */\n      gt\n        /* \"SafeMath.sol\":4122:4134  errorMessage */\n      dup3\n        /* \"SafeMath.sol\":4107:4135  require(b > 0, errorMessage) */\n      swap1\n      tag_370\n      jumpi\n      mload(0x40)\n      0x08c379a000000000000000000000000000000000000000000000000000000000\n      dup2\n      mstore\n      0x04\n      add\n      dup1\n      dup1\n      0x20\n      add\n      dup3\n      dup2\n      sub\n      dup3\n      mstore\n      dup4\n      dup2\n      dup2\n      mload\n      dup2\n      mstore\n      0x20\n      add\n      swap2\n      pop\n      dup1\n      mload\n      swap1\n      0x20\n      add\n      swap1\n      dup1\n      dup4\n      dup4\n        /* \"--CODEGEN--\":23:24   */\n      0x00\n        /* \"--CODEGEN--\":8:108   */\n    tag_371:\n        /* \"--CODEGEN--\":33:36   */\n      dup4\n        /* \"--CODEGEN--\":30:31   */\n      dup2\n        /* \"--CODEGEN--\":27:37   */\n      lt\n        /* \"--CODEGEN--\":8:108   */\n      iszero\n      tag_373\n      jumpi\n        /* \"--CODEGEN--\":99:100   */\n      dup1\n        /* \"--CODEGEN--\":94:97   */\n      dup3\n        /* \"--CODEGEN--\":90:101   */\n      add\n        /* \"--CODEGEN--\":84:102   */\n      mload\n        /* \"--CODEGEN--\":80:81   */\n      dup2\n        /* \"--CODEGEN--\":75:78   */\n      dup5\n        /* \"--CODEGEN--\":71:82   */\n      add\n        /* \"--CODEGEN--\":64:103   */\n      mstore\n        /* \"--CODEGEN--\":52:54   */\n      0x20\n        /* \"--CODEGEN--\":49:50   */\n      dup2\n        /* \"--CODEGEN--\":45:55   */\n      add\n        /* \"--CODEGEN--\":40:55   */\n      swap1\n      pop\n        /* \"--CODEGEN--\":8:108   */\n      jump(tag_371)\n    tag_373:\n        /* \"--CODEGEN--\":12:26   */\n      pop\n        /* \"SafeMath.sol\":4107:4135  require(b > 0, errorMessage) */\n      pop\n      pop\n      pop\n      swap1\n      pop\n      swap1\n      dup2\n      add\n      swap1\n      0x1f\n      and\n      dup1\n      iszero\n      tag_374\n      jumpi\n      dup1\n      dup3\n      sub\n      dup1\n      mload\n      0x01\n      dup4\n      0x20\n      sub\n      0x0100\n      exp\n      sub\n      not\n      and\n      dup2\n      mstore\n      0x20\n      add\n      swap2\n      pop\n    tag_374:\n      pop\n      swap3\n      pop\n      pop\n      pop\n      mload(0x40)\n      dup1\n      swap2\n      sub\n      swap1\n      revert\n    tag_370:\n      pop\n        /* \"SafeMath.sol\":4145:4154  uint256 c */\n      0x00\n        /* \"SafeMath.sol\":4161:4162  b */\n      dup4\n        /* \"SafeMath.sol\":4157:4158  a */\n      dup6\n        /* \"SafeMath.sol\":4157:4162  a / b */\n      dup2\n      tag_375\n      jumpi\n      invalid\n    tag_375:\n      div\n        /* \"SafeMath.sol\":4145:4162  uint256 c = a / b */\n      swap1\n      pop\n        /* \"SafeMath.sol\":4266:4267  c */\n      dup1\n        /* \"SafeMath.sol\":4259:4267  return c */\n      swap2\n      pop\n      pop\n        /* \"SafeMath.sol\":3936:4274  function div(uint256 a, uint256 b, string memory errorMessage) internal pure returns (uint256) {... */\n      swap4\n      swap3\n      pop\n      pop\n      pop\n      jump\t// out\n    stop\n    data_03fd12cc1e83f0add881327c75791a0246e8ebc9eefe5c518ed172fe66fc682c 677261636520706572696f6420656c6170736564206f7220746f6f206561726c79\n    data_1ed4c5a626955f79ae434eb1205332592ca7c398b87a33918d99477c1feef678 656e6f7567682066756e64732073686f756c6420626520746865726520696e20534950\n    data_5a7f347d75f88622755607b0e61ed343c96ad258fbc1be577e77f6e09bcd0a54 656e6f7567682066756e647320666f722062656e65666974732073686f756c6420626520746865726520696e20636f6e7472616374\n    data_9113bb53c2876a3805b2c9242029423fc540a728243ce887ab24c82cf119fba3 536166654d6174683a206d756c7469706c69636174696f6e206f766572666c6f77\n    data_9c5671fbe7325ac18b46fc94e6063ecafd5a4a15681b363f5d37ce08ea0b8f61 6465706f7369742063616e6e6f74206265206c657373207468616e20636f6d6d69746d656e74\n\n    auxdata: 0xa265627a7a723158200c370901447ce5cd33ddaf8049b18a43ec31f518a4ad2eb4a077bd1dc8153b9464736f6c634300050c0032\n}\n","bytecode":{"linkReferences":{},"object":"60806040526228207060025534801561001757600080fd5b506040516141353803806141358339818101604052602081101561003a57600080fd5b8101908080519060200190929190505050336000806101000a81548173ffffffffffffffffffffffffffffffffffffffff021916908373ffffffffffffffffffffffffffffffffffffffff16021790555080600160006101000a81548173ffffffffffffffffffffffffffffffffffffffff021916908373ffffffffffffffffffffffffffffffffffffffff16021790555050614059806100dc6000396000f3fe608060405234801561001057600080fd5b50600436106101a95760003560e01c80638da5cb5b116100f9578063be99970511610097578063f29de4c311610071578063f29de4c3146109f9578063f926b17a14610a65578063fb0685df14610af8578063fc0c546a14610b50576101a9565b8063be999705146108e6578063c280970014610914578063ef4ffe5714610982576101a9565b8063a4003ad4116100d3578063a4003ad41461078e578063ad8f6a74146107dc578063b391892214610820578063ba50531a1461088c576101a9565b80638da5cb5b1461066057806394bb9064146106aa5780639b3017c114610716576101a9565b806326d9767b116101665780632e9721b6116101405780632e9721b6146103ce57806351a6349d146104545780637838e408146105a057806381423a26146105da576101a9565b806326d9767b146102e857806326f8bea714610336578063295226c514610364576101a9565b806307f71149146101ae5780630ce57b46146102065780631272d8d41461026057806313dcc4521461027e578063155dd5ee1461029c5780632393768d146102ca575b600080fd5b610204600480360360608110156101c457600080fd5b81019080803573ffffffffffffffffffffffffffffffffffffffff1690602001909291908035906020019092919080359060200190929190505050610b9a565b005b61025e6004803603606081101561021c57600080fd5b8101908080359060200190929190803573ffffffffffffffffffffffffffffffffffffffff169060200190929190803515159060200190929190505050610f60565b005b61026861107f565b6040518082815260200191505060405180910390f35b610286611085565b6040518082815260200191505060405180910390f35b6102c8600480360360208110156102b257600080fd5b810190808035906020019092919050505061108b565b005b6102d2611313565b6040518082815260200191505060405180910390f35b610334600480360360408110156102fe57600080fd5b81019080803573ffffffffffffffffffffffffffffffffffffffff16906020019092919080359060200190929190505050611319565b005b6103626004803603602081101561034c57600080fd5b81019080803590602001909291905050506119b5565b005b6103cc600480360360e081101561037a57600080fd5b8101908080359060200190929190803590602001909291908035906020019092919080359060200190929190803590602001909291908035906020019092919080359060200190929190505050611b6e565b005b61043a600480360360608110156103e457600080fd5b81019080803573ffffffffffffffffffffffffffffffffffffffff16906020019092919080359060200190929190803573ffffffffffffffffffffffffffffffffffffffff169060200190929190505050611d0c565b604051808215151515815260200191505060405180910390f35b61059e6004803603604081101561046a57600080fd5b810190808035906020019064010000000081111561048757600080fd5b82018360208201111561049957600080fd5b803590602001918460208302840111640100000000831117156104bb57600080fd5b919080806020026020016040519081016040528093929190818152602001838360200280828437600081840152601f19601f8201169050808301925050505050505091929192908035906020019064010000000081111561051b57600080fd5b82018360208201111561052d57600080fd5b8035906020019184602083028401116401000000008311171561054f57600080fd5b919080806020026020016040519081016040528093929190818152602001838360200280828437600081840152601f19601f820116905080830192505050505050509192919290505050611dbd565b005b6105d8600480360360408110156105b657600080fd5b8101908080359060200190929190803515159060200190929190505050611f54565b005b610646600480360360608110156105f057600080fd5b81019080803573ffffffffffffffffffffffffffffffffffffffff16906020019092919080359060200190929190803573ffffffffffffffffffffffffffffffffffffffff169060200190929190505050612050565b604051808215151515815260200191505060405180910390f35b610668612101565b604051808273ffffffffffffffffffffffffffffffffffffffff1673ffffffffffffffffffffffffffffffffffffffff16815260200191505060405180910390f35b610700600480360360608110156106c057600080fd5b81019080803573ffffffffffffffffffffffffffffffffffffffff1690602001909291908035906020019092919080359060200190929190505050612126565b6040518082815260200191505060405180910390f35b6107786004803603608081101561072c57600080fd5b81019080803573ffffffffffffffffffffffffffffffffffffffff16906020019092919080359060200190929190803590602001909291908035151590602001909291905050506122a7565b6040518082815260200191505060405180910390f35b6107da600480360360408110156107a457600080fd5b81019080803573ffffffffffffffffffffffffffffffffffffffff169060200190929190803590602001909291905050506125cf565b005b61081e600480360360608110156107f257600080fd5b8101908080359060200190929190803590602001909291908035151590602001909291905050506127c6565b005b6108766004803603606081101561083657600080fd5b81019080803573ffffffffffffffffffffffffffffffffffffffff1690602001909291908035906020019092919080359060200190929190505050612f23565b6040518082815260200191505060405180910390f35b6108e4600480360360608110156108a257600080fd5b8101908080359060200190929190803573ffffffffffffffffffffffffffffffffffffffff169060200190929190803515159060200190929190505050612f9b565b005b610912600480360360208110156108fc57600080fd5b810190808035906020019092919050505061321e565b005b610980600480360360a081101561092a57600080fd5b81019080803573ffffffffffffffffffffffffffffffffffffffff1690602001909291908035906020019092919080359060200190929190803590602001909291908035151590602001909291905050506133fd565b005b6109ae6004803603602081101561099857600080fd5b8101908080359060200190929190505050613ac2565b60405180891515151581526020018881526020018781526020018681526020018581526020018481526020018381526020018281526020019850505050505050505060405180910390f35b610a4f60048036036060811015610a0f57600080fd5b81019080803573ffffffffffffffffffffffffffffffffffffffff1690602001909291908035906020019092919080359060200190929190505050613b24565b6040518082815260200191505060405180910390f35b610ab160048036036040811015610a7b57600080fd5b81019080803573ffffffffffffffffffffffffffffffffffffffff16906020019092919080359060200190929190505050613b9c565b604051808981526020018881526020018781526020018681526020018581526020018481526020018381526020018281526020019850505050505050505060405180910390f35b610b3a60048036036020811015610b0e57600080fd5b81019080803573ffffffffffffffffffffffffffffffffffffffff169060200190929190505050613bfe565b6040518082815260200191505060405180910390f35b610b58613c16565b604051808273ffffffffffffffffffffffffffffffffffffffff1673ffffffffffffffffffffffffffffffffffffffff16815260200191505060405180910390f35b82826000600660008473ffffffffffffffffffffffffffffffffffffffff1673ffffffffffffffffffffffffffffffffffffffff1681526020019081526020016000208281548110610be857fe5b90600052602060002090600c020190508273ffffffffffffffffffffffffffffffffffffffff163373ffffffffffffffffffffffffffffffffffffffff1614610ced5780600a0160003373ffffffffffffffffffffffffffffffffffffffff1673ffffffffffffffffffffffffffffffffffffffff16815260200190815260200160002060009054906101000a900460ff16610cec576040517f08c379a000000000000000000000000000000000000000000000000000000000815260040180806020018281038252601a8152602001807f6e6f6d696e6174696f6e2073686f756c6420626520746865726500000000000081525060200191505060405180910390fd5b5b6000610d2a8787878a73ffffffffffffffffffffffffffffffffffffffff163373ffffffffffffffffffffffffffffffffffffffff1614156122a7565b90506000600660008973ffffffffffffffffffffffffffffffffffffffff1673ffffffffffffffffffffffffffffffffffffffff1681526020019081526020016000208781548110610d7857fe5b90600052602060002090600c02019050600081600401549050868260040181905550610daf83600354613c3c90919063ffffffff16565b600381905550610dca83600454613c3c90919063ffffffff16565b6004819055506000831115610ebf57600160009054906101000a900473ffffffffffffffffffffffffffffffffffffffff1673ffffffffffffffffffffffffffffffffffffffff1663a9059cbb33856040518363ffffffff1660e01b8152600401808373ffffffffffffffffffffffffffffffffffffffff1673ffffffffffffffffffffffffffffffffffffffff16815260200182815260200192505050602060405180830381600087803b158015610e8257600080fd5b505af1158015610e96573d6000803e3d6000fd5b505050506040513d6020811015610eac57600080fd5b8101908080519060200190929190505050505b878973ffffffffffffffffffffffffffffffffffffffff167f8f4915db3c6bafb045a8ca029a06c4d1638daddb07e111ed35abf34f81b6a855600184018a8733604051808581526020018481526020018381526020018273ffffffffffffffffffffffffffffffffffffffff1673ffffffffffffffffffffffffffffffffffffffff16815260200194505050505060405180910390a3505050505050505050565b80600660003373ffffffffffffffffffffffffffffffffffffffff1673ffffffffffffffffffffffffffffffffffffffff1681526020019081526020016000208481548110610fab57fe5b90600052602060002090600c0201600a0160008473ffffffffffffffffffffffffffffffffffffffff1673ffffffffffffffffffffffffffffffffffffffff16815260200190815260200160002060006101000a81548160ff0219169083151502179055508173ffffffffffffffffffffffffffffffffffffffff16833373ffffffffffffffffffffffffffffffffffffffff167f90e4568f920d8bb093366a04150aa0d04957a471196f5e1cdfb0db3cb83cc5b084604051808215151515815260200191505060405180910390a4505050565b60025481565b60045481565b6000809054906101000a900473ffffffffffffffffffffffffffffffffffffffff1673ffffffffffffffffffffffffffffffffffffffff163373ffffffffffffffffffffffffffffffffffffffff161461114d576040517f08c379a00000000000000000000000000000000000000000000000000000000081526004018080602001828103825260168152602001807f6f6e6c79206465706c6f7965722063616e2063616c6c0000000000000000000081525060200191505060405180910390fd5b80611165600354600454613c3c90919063ffffffff16565b10156111d9576040517f08c379a000000000000000000000000000000000000000000000000000000000815260040180806020018281038252601c8152602001807f63616e6e6f74207769746864726177206578636573732066756e64730000000081525060200191505060405180910390fd5b6111ee81600454613c3c90919063ffffffff16565b600481905550600160009054906101000a900473ffffffffffffffffffffffffffffffffffffffff1673ffffffffffffffffffffffffffffffffffffffff1663a9059cbb33836040518363ffffffff1660e01b8152600401808373ffffffffffffffffffffffffffffffffffffffff1673ffffffffffffffffffffffffffffffffffffffff16815260200182815260200192505050602060405180830381600087803b15801561129d57600080fd5b505af11580156112b1573d6000803e3d6000fd5b505050506040513d60208110156112c757600080fd5b8101908080519060200190929190505050507f4a37b25aab49761ecf63117fe82b98d750917451133cf797507bc9fb5b96044a816040518082815260200191505060405180910390a150565b60035481565b81816000600660008473ffffffffffffffffffffffffffffffffffffffff1673ffffffffffffffffffffffffffffffffffffffff168152602001908152602001600020828154811061136757fe5b90600052602060002090600c020190508273ffffffffffffffffffffffffffffffffffffffff163373ffffffffffffffffffffffffffffffffffffffff161461146c5780600a0160003373ffffffffffffffffffffffffffffffffffffffff1673ffffffffffffffffffffffffffffffffffffffff16815260200190815260200160002060009054906101000a900460ff1661146b576040517f08c379a000000000000000000000000000000000000000000000000000000000815260040180806020018281038252601a8152602001807f6e6f6d696e6174696f6e2073686f756c6420626520746865726500000000000081525060200191505060405180910390fd5b5b6000600660008773ffffffffffffffffffffffffffffffffffffffff1673ffffffffffffffffffffffffffffffffffffffff16815260200190815260200160002085815481106114b857fe5b90600052602060002090600c02019050600060018260050154019050600381111561154b576040517f08c379a00000000000000000000000000000000000000000000000000000000081526004018080602001828103825260158152602001807f6f6e6c79203320706f77657220626f6f7374657273000000000000000000000081525060200191505060405180910390fd5b6000600254600383600254600c600588600001548154811061156957fe5b9060005260206000209060080201600301540202028161158557fe5b04600254600586600001548154811061159a57fe5b90600052602060002090600802016002015402856001015401010390508773ffffffffffffffffffffffffffffffffffffffff163373ffffffffffffffffffffffffffffffffffffffff16146116285761160260028460060154613c8690919063ffffffff16565b8360070154111561161c5760066002540281019050611627565b600c60025402810190505b5b80421161169d576040517f08c379a00000000000000000000000000000000000000000000000000000000081526004018080602001828103825260158152602001807f63616e6e6f74207769746864726177206561726c79000000000000000000000081525060200191505060405180910390fd5b81836005018190555060006116c060038560030154613c8690919063ffffffff16565b9050600183141561183a57600080600190505b60058660000154815481106116e457fe5b906000526020600020906008020160020154811161179a57600086600801600083815260200190815260200160002054141561174657600586600001548154811061172b57fe5b9060005260206000209060080201600701548201915061178d565b600186600801600083815260200190815260200160002054141561178c57600586600001548154811061177557fe5b906000526020600020906008020160060154820191505b5b80806001019150506116d3565b5060006117c46103e86117b68486613cd090919063ffffffff16565b613c8690919063ffffffff16565b90506000811115611837576117e481600454613d5690919063ffffffff16565b6004819055507f7cb5d45c1071f219bd2da1ea101758715bd52f23f2a707f2d9a0387dea18d906816040518082815260200191505060405180910390a16118348184613c3c90919063ffffffff16565b92505b50505b600160009054906101000a900473ffffffffffffffffffffffffffffffffffffffff1673ffffffffffffffffffffffffffffffffffffffff1663a9059cbb33836040518363ffffffff1660e01b8152600401808373ffffffffffffffffffffffffffffffffffffffff1673ffffffffffffffffffffffffffffffffffffffff16815260200182815260200192505050602060405180830381600087803b1580156118e357600080fd5b505af11580156118f7573d6000803e3d6000fd5b505050506040513d602081101561190d57600080fd5b810190808051906020019092919050505050878973ffffffffffffffffffffffffffffffffffffffff167fa1c568ef1602bc58c1e32ea2f1251b87874dce947f5d4f4df53677d06d5bf56d858433604051808481526020018381526020018273ffffffffffffffffffffffffffffffffffffffff1673ffffffffffffffffffffffffffffffffffffffff168152602001935050505060405180910390a3505050505050505050565b600160009054906101000a900473ffffffffffffffffffffffffffffffffffffffff1673ffffffffffffffffffffffffffffffffffffffff166323b872dd3330846040518463ffffffff1660e01b8152600401808473ffffffffffffffffffffffffffffffffffffffff1673ffffffffffffffffffffffffffffffffffffffff1681526020018373ffffffffffffffffffffffffffffffffffffffff1673ffffffffffffffffffffffffffffffffffffffff1681526020018281526020019350505050602060405180830381600087803b158015611a9257600080fd5b505af1158015611aa6573d6000803e3d6000fd5b505050506040513d6020811015611abc57600080fd5b8101908080519060200190929190505050611ad657600080fd5b611b2881600760003373ffffffffffffffffffffffffffffffffffffffff1673ffffffffffffffffffffffffffffffffffffffff16815260200190815260200160002054613d5690919063ffffffff16565b600760003373ffffffffffffffffffffffffffffffffffffffff1673ffffffffffffffffffffffffffffffffffffffff1681526020019081526020016000208190555050565b6000809054906101000a900473ffffffffffffffffffffffffffffffffffffffff1673ffffffffffffffffffffffffffffffffffffffff163373ffffffffffffffffffffffffffffffffffffffff1614611c30576040517f08c379a00000000000000000000000000000000000000000000000000000000081526004018080602001828103825260168152602001807f6f6e6c79206465706c6f7965722063616e2063616c6c0000000000000000000081525060200191505060405180910390fd5b6005604051806101000160405280600115158152602001898152602001888152602001878152602001868152602001858152602001848152602001838152509080600181540180825580915050906001820390600052602060002090600802016000909192909190915060008201518160000160006101000a81548160ff0219169083151502179055506020820151816001015560408201518160020155606082015181600301556080820151816004015560a0820151816005015560c0820151816006015560e0820151816007015550505050505050505050565b6000600660008573ffffffffffffffffffffffffffffffffffffffff1673ffffffffffffffffffffffffffffffffffffffff1681526020019081526020016000208381548110611d5857fe5b90600052602060002090600c0201600a0160008373ffffffffffffffffffffffffffffffffffffffff1673ffffffffffffffffffffffffffffffffffffffff16815260200190815260200160002060009054906101000a900460ff1690509392505050565b60008090505b8251811015611f4f57611e31828281518110611ddb57fe5b6020026020010151600760003373ffffffffffffffffffffffffffffffffffffffff1673ffffffffffffffffffffffffffffffffffffffff16815260200190815260200160002054613c3c90919063ffffffff16565b600760003373ffffffffffffffffffffffffffffffffffffffff1673ffffffffffffffffffffffffffffffffffffffff16815260200190815260200160002081905550611eec828281518110611e8357fe5b602002602001015160076000868581518110611e9b57fe5b602002602001015173ffffffffffffffffffffffffffffffffffffffff1673ffffffffffffffffffffffffffffffffffffffff16815260200190815260200160002054613d5690919063ffffffff16565b60076000858481518110611efc57fe5b602002602001015173ffffffffffffffffffffffffffffffffffffffff1673ffffffffffffffffffffffffffffffffffffffff168152602001908152602001600020819055508080600101915050611dc3565b505050565b6000809054906101000a900473ffffffffffffffffffffffffffffffffffffffff1673ffffffffffffffffffffffffffffffffffffffff163373ffffffffffffffffffffffffffffffffffffffff1614612016576040517f08c379a00000000000000000000000000000000000000000000000000000000081526004018080602001828103825260168152602001807f6f6e6c79206465706c6f7965722063616e2063616c6c0000000000000000000081525060200191505060405180910390fd5b806005838154811061202457fe5b906000526020600020906008020160000160006101000a81548160ff0219169083151502179055505050565b6000600660008573ffffffffffffffffffffffffffffffffffffffff1673ffffffffffffffffffffffffffffffffffffffff168152602001908152602001600020838154811061209c57fe5b90600052602060002090600c0201600b0160008373ffffffffffffffffffffffffffffffffffffffff1673ffffffffffffffffffffffffffffffffffffffff16815260200190815260200160002060009054906101000a900460ff1690509392505050565b6000809054906101000a900473ffffffffffffffffffffffffffffffffffffffff1681565b600080600660008673ffffffffffffffffffffffffffffffffffffffff1673ffffffffffffffffffffffffffffffffffffffff168152602001908152602001600020848154811061217357fe5b90600052602060002090600c02019050600183101580156121b6575060058160000154815481106121a057fe5b9060005260206000209060080201600201548311155b612228576040517f08c379a00000000000000000000000000000000000000000000000000000000081526004018080602001828103825260158152602001807f696e76616c6964206465706f736974206d6f6e7468000000000000000000000081525060200191505060405180910390fd5b6000600184036002540282600101540190506002548103421015612251576000925050506122a0565b428110612263576002925050506122a0565b42600583600001548154811061227557fe5b906000526020600020906008020160040154820110612299576001925050506122a0565b6000925050505b9392505050565b600080600660008773ffffffffffffffffffffffffffffffffffffffff1673ffffffffffffffffffffffffffffffffffffffff16815260200190815260200160002085815481106122f457fe5b90600052602060002090600c020190506000841180156123395750600c600582600001548154811061232257fe5b906000526020600020906008020160030154028411155b6123ab576040517f08c379a00000000000000000000000000000000000000000000000000000000081526004018080602001828103825260168152602001807f696e76616c6964207769746864726177206d6f6e74680000000000000000000081525060200191505060405180910390fd5b80600401548411612424576040517f08c379a00000000000000000000000000000000000000000000000000000000081526004018080602001828103825260158152602001807f63616e6e6f7420776974686472617720616761696e000000000000000000000081525060200191505060405180910390fd5b6000600185600584600001548154811061243a57fe5b9060005260206000209060080201600201540103600254028260010154019050831561249e5761247860028360060154613c8690919063ffffffff16565b82600701541115612492576006600254028101905061249d565b600c60025402810190505b5b80421015612514576040517f08c379a00000000000000000000000000000000000000000000000000000000081526004018080602001828103825260158152602001807f63616e6e6f74207769746864726177206561726c79000000000000000000000081525060200191505060405180910390fd5b600080600184600401540190505b8681116125c0576000600585600001548154811061253c57fe5b906000526020600020906008020160020154828161255657fe5b069050600081141561258857600585600001548154811061257357fe5b90600052602060002090600802016002015490505b6125b08560090160008381526020019081526020016000205484613d5690919063ffffffff16565b9250508080600101915050612522565b50809350505050949350505050565b6000600660008473ffffffffffffffffffffffffffffffffffffffff1673ffffffffffffffffffffffffffffffffffffffff168152602001908152602001600020828154811061261b57fe5b90600052602060002090600c0201905080600b0160003373ffffffffffffffffffffffffffffffffffffffff1673ffffffffffffffffffffffffffffffffffffffff16815260200190815260200160002060009054906101000a900460ff166126ec576040517f08c379a00000000000000000000000000000000000000000000000000000000081526004018080602001828103825260208152602001807f73686f756c64206265206170706f696e74656520746f206361737420766f746581525060200191505060405180910390fd5b600081600b0160003373ffffffffffffffffffffffffffffffffffffffff1673ffffffffffffffffffffffffffffffffffffffff16815260200190815260200160002060006101000a81548160ff02191690831515021790555061275e60018260070154613d5690919063ffffffff16565b81600701819055503373ffffffffffffffffffffffffffffffffffffffff16828473ffffffffffffffffffffffffffffffffffffffff167f57e90b4a498a7310fab91955c915f3f15a0d1a94b296f824da9443d524ea2e1b60405160405180910390a4505050565b600583815481106127d357fe5b906000526020600020906008020160000160009054906101000a900460ff16612864576040517f08c379a00000000000000000000000000000000000000000000000000000000081526004018080602001828103825260168152602001807f73697020706c616e206973206e6f74206163746976650000000000000000000081525060200191505060405180910390fd5b6005838154811061287157fe5b9060005260206000209060080201600101548210156128f8576040517f08c379a00000000000000000000000000000000000000000000000000000000081526004018080602001828103825260208152602001807f616d6f756e742073686f756c642062652061746c65617374206d696e696d756d81525060200191505060405180910390fd5b600061293f6103e86129316005878154811061291057fe5b90600052602060002090600802016005015486613cd090919063ffffffff16565b613c8690919063ffffffff16565b905060006129746005868154811061295357fe5b90600052602060002090600802016003015483613cd090919063ffffffff16565b905061298b60035482613d5690919063ffffffff16565b60045410156129e5576040517f08c379a0000000000000000000000000000000000000000000000000000000008152600401808060200182810382526035815260200180613fa96035913960400191505060405180910390fd5b8215612a8557612a3d84600760003373ffffffffffffffffffffffffffffffffffffffff1673ffffffffffffffffffffffffffffffffffffffff16815260200190815260200160002054613c3c90919063ffffffff16565b600760003373ffffffffffffffffffffffffffffffffffffffff1673ffffffffffffffffffffffffffffffffffffffff16815260200190815260200160002081905550612ba7565b600160009054906101000a900473ffffffffffffffffffffffffffffffffffffffff1673ffffffffffffffffffffffffffffffffffffffff166323b872dd3330876040518463ffffffff1660e01b8152600401808473ffffffffffffffffffffffffffffffffffffffff1673ffffffffffffffffffffffffffffffffffffffff1681526020018373ffffffffffffffffffffffffffffffffffffffff1673ffffffffffffffffffffffffffffffffffffffff1681526020018281526020019350505050602060405180830381600087803b158015612b6257600080fd5b505af1158015612b76573d6000803e3d6000fd5b505050506040513d6020811015612b8c57600080fd5b8101908080519060200190929190505050612ba657600080fd5b5b600660003373ffffffffffffffffffffffffffffffffffffffff1673ffffffffffffffffffffffffffffffffffffffff16815260200190815260200160002060405180610100016040528087815260200142815260200186815260200186815260200160008152602001600081526020016000815260200160008152509080600181540180825580915050906001820390600052602060002090600c020160009091929091909150600082015181600001556020820151816001015560408201518160020155606082015181600301556080820151816004015560a0820151816005015560c0820151816006015560e0820151816007015550505060006001600660003373ffffffffffffffffffffffffffffffffffffffff1673ffffffffffffffffffffffffffffffffffffffff168152602001908152602001600020805490500390506002600660003373ffffffffffffffffffffffffffffffffffffffff1673ffffffffffffffffffffffffffffffffffffffff1681526020019081526020016000208281548110612d3857fe5b90600052602060002090600c02016008016000600181526020019081526020016000208190555082600660003373ffffffffffffffffffffffffffffffffffffffff1673ffffffffffffffffffffffffffffffffffffffff1681526020019081526020016000208281548110612daa57fe5b90600052602060002090600c020160090160006001815260200190815260200160002081905550612de682600354613d5690919063ffffffff16565b6003819055503373ffffffffffffffffffffffffffffffffffffffff167f1dec97fc36aa6dfa81b208ec37b3ac8dae30717f0622f9cfb2e7223dc95326ec6001600660003373ffffffffffffffffffffffffffffffffffffffff1673ffffffffffffffffffffffffffffffffffffffff168152602001908152602001600020805490500387604051808381526020018281526020019250505060405180910390a2803373ffffffffffffffffffffffffffffffffffffffff167fbaf4c88598102708c4215d5d3767268130627355850b7ece9bdfdc32fd2941f06001888633604051808581526020018481526020018381526020018273ffffffffffffffffffffffffffffffffffffffff1673ffffffffffffffffffffffffffffffffffffffff16815260200194505050505060405180910390a3505050505050565b6000600660008573ffffffffffffffffffffffffffffffffffffffff1673ffffffffffffffffffffffffffffffffffffffff1681526020019081526020016000208381548110612f6f57fe5b90600052602060002090600c020160090160008381526020019081526020016000205490509392505050565b6000600660003373ffffffffffffffffffffffffffffffffffffffff1673ffffffffffffffffffffffffffffffffffffffff1681526020019081526020016000208481548110612fe757fe5b90600052602060002090600c0201905080600b0160008473ffffffffffffffffffffffffffffffffffffffff1673ffffffffffffffffffffffffffffffffffffffff16815260200190815260200160002060009054906101000a900460ff161580156130505750815b156130d45761306d60018260060154613d5690919063ffffffff16565b8160060181905550600181600b0160008573ffffffffffffffffffffffffffffffffffffffff1673ffffffffffffffffffffffffffffffffffffffff16815260200190815260200160002060006101000a81548160ff0219169083151502179055506131ae565b80600b0160008473ffffffffffffffffffffffffffffffffffffffff1673ffffffffffffffffffffffffffffffffffffffff16815260200190815260200160002060009054906101000a900460ff16801561312d575081155b156131ad57600081600b0160008573ffffffffffffffffffffffffffffffffffffffff1673ffffffffffffffffffffffffffffffffffffffff16815260200190815260200160002060006101000a81548160ff0219169083151502179055506131a460018260060154613c3c90919063ffffffff16565b81600601819055505b5b8273ffffffffffffffffffffffffffffffffffffffff16843373ffffffffffffffffffffffffffffffffffffffff167ff7a6207b27953eff117f9b7c03e363d41370a45e2b626d2aa32c6a0ac636578285604051808215151515815260200191505060405180910390a450505050565b600160009054906101000a900473ffffffffffffffffffffffffffffffffffffffff1673ffffffffffffffffffffffffffffffffffffffff166323b872dd3330846040518463ffffffff1660e01b8152600401808473ffffffffffffffffffffffffffffffffffffffff1673ffffffffffffffffffffffffffffffffffffffff1681526020018373ffffffffffffffffffffffffffffffffffffffff1673ffffffffffffffffffffffffffffffffffffffff1681526020018281526020019350505050602060405180830381600087803b1580156132fb57600080fd5b505af115801561330f573d6000803e3d6000fd5b505050506040513d602081101561332557600080fd5b81019080805190602001909291905050506133a8576040517f08c379a000000000000000000000000000000000000000000000000000000000815260040180806020018281038252601b8152602001807f746f6b656e732073686f756c64206265207472616e736665726564000000000081525060200191505060405180910390fd5b6133bd81600454613d5690919063ffffffff16565b6004819055507f7cb5d45c1071f219bd2da1ea101758715bd52f23f2a707f2d9a0387dea18d906816040518082815260200191505060405180910390a150565b84846000600660008473ffffffffffffffffffffffffffffffffffffffff1673ffffffffffffffffffffffffffffffffffffffff168152602001908152602001600020828154811061344b57fe5b90600052602060002090600c020190508273ffffffffffffffffffffffffffffffffffffffff163373ffffffffffffffffffffffffffffffffffffffff16146135505780600a0160003373ffffffffffffffffffffffffffffffffffffffff1673ffffffffffffffffffffffffffffffffffffffff16815260200190815260200160002060009054906101000a900460ff1661354f576040517f08c379a000000000000000000000000000000000000000000000000000000000815260040180806020018281038252601a8152602001807f6e6f6d696e6174696f6e2073686f756c6420626520746865726500000000000081525060200191505060405180910390fd5b5b6000600660008a73ffffffffffffffffffffffffffffffffffffffff1673ffffffffffffffffffffffffffffffffffffffff168152602001908152602001600020888154811061359c57fe5b90600052602060002090600c020190508060020154871015613609576040517f08c379a0000000000000000000000000000000000000000000000000000000008152600401808060200182810382526026815260200180613fff6026913960400191505060405180910390fd5b60008160080160008881526020019081526020016000205414613694576040517f08c379a00000000000000000000000000000000000000000000000000000000081526004018080602001828103825260148152602001807f63616e6e6f74206465706f73697420616761696e00000000000000000000000081525060200191505060405180910390fd5b60006136df6103e86136d160058560000154815481106136b057fe5b9060005260206000209060080201600501548b613cd090919063ffffffff16565b613c8690919063ffffffff16565b9050600061371860058460000154815481106136f757fe5b90600052602060002090600802016003015483613cd090919063ffffffff16565b905061372f60035482613d5690919063ffffffff16565b6004541015613789576040517f08c379a0000000000000000000000000000000000000000000000000000000008152600401808060200182810382526023815260200180613f866023913960400191505060405180910390fd5b60006137968c8c8b612126565b9050600081116137f1576040517f08c379a0000000000000000000000000000000000000000000000000000000008152600401808060200182810382526021815260200180613f656021913960400191505060405180910390fd5b8715613891576138498a600760003373ffffffffffffffffffffffffffffffffffffffff1673ffffffffffffffffffffffffffffffffffffffff16815260200190815260200160002054613c3c90919063ffffffff16565b600760003373ffffffffffffffffffffffffffffffffffffffff1673ffffffffffffffffffffffffffffffffffffffff168152602001908152602001600020819055506139b3565b600160009054906101000a900473ffffffffffffffffffffffffffffffffffffffff1673ffffffffffffffffffffffffffffffffffffffff166323b872dd33308d6040518463ffffffff1660e01b8152600401808473ffffffffffffffffffffffffffffffffffffffff1673ffffffffffffffffffffffffffffffffffffffff1681526020018373ffffffffffffffffffffffffffffffffffffffff1673ffffffffffffffffffffffffffffffffffffffff1681526020018281526020019350505050602060405180830381600087803b15801561396e57600080fd5b505af1158015613982573d6000803e3d6000fd5b505050506040513d602081101561399857600080fd5b81019080805190602001909291905050506139b257600080fd5b5b808460080160008b815260200190815260200160002081905550828460090160008b8152602001908152602001600020819055506139fe8a8560030154613d5690919063ffffffff16565b8460030181905550613a1b82600354613d5690919063ffffffff16565b6003819055508a8c73ffffffffffffffffffffffffffffffffffffffff167fbaf4c88598102708c4215d5d3767268130627355850b7ece9bdfdc32fd2941f08b8d8633604051808581526020018481526020018381526020018273ffffffffffffffffffffffffffffffffffffffff1673ffffffffffffffffffffffffffffffffffffffff16815260200194505050505060405180910390a3505050505050505050505050565b60058181548110613acf57fe5b90600052602060002090600802016000915090508060000160009054906101000a900460ff16908060010154908060020154908060030154908060040154908060050154908060060154908060070154905088565b6000600660008573ffffffffffffffffffffffffffffffffffffffff1673ffffffffffffffffffffffffffffffffffffffff1681526020019081526020016000208381548110613b7057fe5b90600052602060002090600c020160080160008381526020019081526020016000205490509392505050565b60066020528160005260406000208181548110613bb557fe5b90600052602060002090600c0201600091509150508060000154908060010154908060020154908060030154908060040154908060050154908060060154908060070154905088565b60076020528060005260406000206000915090505481565b600160009054906101000a900473ffffffffffffffffffffffffffffffffffffffff1681565b6000613c7e83836040518060400160405280601e81526020017f536166654d6174683a207375627472616374696f6e206f766572666c6f770000815250613dde565b905092915050565b6000613cc883836040518060400160405280601a81526020017f536166654d6174683a206469766973696f6e206279207a65726f000000000000815250613e9e565b905092915050565b600080831415613ce35760009050613d50565b6000828402905082848281613cf457fe5b0414613d4b576040517f08c379a0000000000000000000000000000000000000000000000000000000008152600401808060200182810382526021815260200180613fde6021913960400191505060405180910390fd5b809150505b92915050565b600080828401905083811015613dd4576040517f08c379a000000000000000000000000000000000000000000000000000000000815260040180806020018281038252601b8152602001807f536166654d6174683a206164646974696f6e206f766572666c6f77000000000081525060200191505060405180910390fd5b8091505092915050565b6000838311158290613e8b576040517f08c379a00000000000000000000000000000000000000000000000000000000081526004018080602001828103825283818151815260200191508051906020019080838360005b83811015613e50578082015181840152602081019050613e35565b50505050905090810190601f168015613e7d5780820380516001836020036101000a031916815260200191505b509250505060405180910390fd5b5060008385039050809150509392505050565b60008083118290613f4a576040517f08c379a00000000000000000000000000000000000000000000000000000000081526004018080602001828103825283818151815260200191508051906020019080838360005b83811015613f0f578082015181840152602081019050613ef4565b50505050905090810190601f168015613f3c5780820380516001836020036101000a031916815260200191505b509250505060405180910390fd5b506000838581613f5657fe5b04905080915050939250505056fe677261636520706572696f6420656c6170736564206f7220746f6f206561726c79656e6f7567682066756e64732073686f756c6420626520746865726520696e20534950656e6f7567682066756e647320666f722062656e65666974732073686f756c6420626520746865726520696e20636f6e7472616374536166654d6174683a206d756c7469706c69636174696f6e206f766572666c6f776465706f7369742063616e6e6f74206265206c657373207468616e20636f6d6d69746d656e74a265627a7a723158200c370901447ce5cd33ddaf8049b18a43ec31f518a4ad2eb4a077bd1dc8153b9464736f6c634300050c0032","opcodes":"PUSH1 0x80 PUSH1 0x40 MSTORE PUSH3 0x282070 PUSH1 0x2 SSTORE CALLVALUE DUP1 ISZERO PUSH2 0x17 JUMPI PUSH1 0x0 DUP1 REVERT JUMPDEST POP PUSH1 0x40 MLOAD PUSH2 0x4135 CODESIZE SUB DUP1 PUSH2 0x4135 DUP4 CODECOPY DUP2 DUP2 ADD PUSH1 0x40 MSTORE PUSH1 0x20 DUP2 LT ISZERO PUSH2 0x3A JUMPI PUSH1 0x0 DUP1 REVERT JUMPDEST DUP2 ADD SWAP1 DUP1 DUP1 MLOAD SWAP1 PUSH1 0x20 ADD SWAP1 SWAP3 SWAP2 SWAP1 POP POP POP CALLER PUSH1 0x0 DUP1 PUSH2 0x100 EXP DUP2 SLOAD DUP2 PUSH20 0xFFFFFFFFFFFFFFFFFFFFFFFFFFFFFFFFFFFFFFFF MUL NOT AND SWAP1 DUP4 PUSH20 0xFFFFFFFFFFFFFFFFFFFFFFFFFFFFFFFFFFFFFFFF AND MUL OR SWAP1 SSTORE POP DUP1 PUSH1 0x1 PUSH1 0x0 PUSH2 0x100 EXP DUP2 SLOAD DUP2 PUSH20 0xFFFFFFFFFFFFFFFFFFFFFFFFFFFFFFFFFFFFFFFF MUL NOT AND SWAP1 DUP4 PUSH20 0xFFFFFFFFFFFFFFFFFFFFFFFFFFFFFFFFFFFFFFFF AND MUL OR SWAP1 SSTORE POP POP PUSH2 0x4059 DUP1 PUSH2 0xDC PUSH1 0x0 CODECOPY PUSH1 0x0 RETURN INVALID PUSH1 0x80 PUSH1 0x40 MSTORE CALLVALUE DUP1 ISZERO PUSH2 0x10 JUMPI PUSH1 0x0 DUP1 REVERT JUMPDEST POP PUSH1 0x4 CALLDATASIZE LT PUSH2 0x1A9 JUMPI PUSH1 0x0 CALLDATALOAD PUSH1 0xE0 SHR DUP1 PUSH4 0x8DA5CB5B GT PUSH2 0xF9 JUMPI DUP1 PUSH4 0xBE999705 GT PUSH2 0x97 JUMPI DUP1 PUSH4 0xF29DE4C3 GT PUSH2 0x71 JUMPI DUP1 PUSH4 0xF29DE4C3 EQ PUSH2 0x9F9 JUMPI DUP1 PUSH4 0xF926B17A EQ PUSH2 0xA65 JUMPI DUP1 PUSH4 0xFB0685DF EQ PUSH2 0xAF8 JUMPI DUP1 PUSH4 0xFC0C546A EQ PUSH2 0xB50 JUMPI PUSH2 0x1A9 JUMP JUMPDEST DUP1 PUSH4 0xBE999705 EQ PUSH2 0x8E6 JUMPI DUP1 PUSH4 0xC2809700 EQ PUSH2 0x914 JUMPI DUP1 PUSH4 0xEF4FFE57 EQ PUSH2 0x982 JUMPI PUSH2 0x1A9 JUMP JUMPDEST DUP1 PUSH4 0xA4003AD4 GT PUSH2 0xD3 JUMPI DUP1 PUSH4 0xA4003AD4 EQ PUSH2 0x78E JUMPI DUP1 PUSH4 0xAD8F6A74 EQ PUSH2 0x7DC JUMPI DUP1 PUSH4 0xB3918922 EQ PUSH2 0x820 JUMPI DUP1 PUSH4 0xBA50531A EQ PUSH2 0x88C JUMPI PUSH2 0x1A9 JUMP JUMPDEST DUP1 PUSH4 0x8DA5CB5B EQ PUSH2 0x660 JUMPI DUP1 PUSH4 0x94BB9064 EQ PUSH2 0x6AA JUMPI DUP1 PUSH4 0x9B3017C1 EQ PUSH2 0x716 JUMPI PUSH2 0x1A9 JUMP JUMPDEST DUP1 PUSH4 0x26D9767B GT PUSH2 0x166 JUMPI DUP1 PUSH4 0x2E9721B6 GT PUSH2 0x140 JUMPI DUP1 PUSH4 0x2E9721B6 EQ PUSH2 0x3CE JUMPI DUP1 PUSH4 0x51A6349D EQ PUSH2 0x454 JUMPI DUP1 PUSH4 0x7838E408 EQ PUSH2 0x5A0 JUMPI DUP1 PUSH4 0x81423A26 EQ PUSH2 0x5DA JUMPI PUSH2 0x1A9 JUMP JUMPDEST DUP1 PUSH4 0x26D9767B EQ PUSH2 0x2E8 JUMPI DUP1 PUSH4 0x26F8BEA7 EQ PUSH2 0x336 JUMPI DUP1 PUSH4 0x295226C5 EQ PUSH2 0x364 JUMPI PUSH2 0x1A9 JUMP JUMPDEST DUP1 PUSH4 0x7F71149 EQ PUSH2 0x1AE JUMPI DUP1 PUSH4 0xCE57B46 EQ PUSH2 0x206 JUMPI DUP1 PUSH4 0x1272D8D4 EQ PUSH2 0x260 JUMPI DUP1 PUSH4 0x13DCC452 EQ PUSH2 0x27E JUMPI DUP1 PUSH4 0x155DD5EE EQ PUSH2 0x29C JUMPI DUP1 PUSH4 0x2393768D EQ PUSH2 0x2CA JUMPI JUMPDEST PUSH1 0x0 DUP1 REVERT JUMPDEST PUSH2 0x204 PUSH1 0x4 DUP1 CALLDATASIZE SUB PUSH1 0x60 DUP2 LT ISZERO PUSH2 0x1C4 JUMPI PUSH1 0x0 DUP1 REVERT JUMPDEST DUP2 ADD SWAP1 DUP1 DUP1 CALLDATALOAD PUSH20 0xFFFFFFFFFFFFFFFFFFFFFFFFFFFFFFFFFFFFFFFF AND SWAP1 PUSH1 0x20 ADD SWAP1 SWAP3 SWAP2 SWAP1 DUP1 CALLDATALOAD SWAP1 PUSH1 0x20 ADD SWAP1 SWAP3 SWAP2 SWAP1 DUP1 CALLDATALOAD SWAP1 PUSH1 0x20 ADD SWAP1 SWAP3 SWAP2 SWAP1 POP POP POP PUSH2 0xB9A JUMP JUMPDEST STOP JUMPDEST PUSH2 0x25E PUSH1 0x4 DUP1 CALLDATASIZE SUB PUSH1 0x60 DUP2 LT ISZERO PUSH2 0x21C JUMPI PUSH1 0x0 DUP1 REVERT JUMPDEST DUP2 ADD SWAP1 DUP1 DUP1 CALLDATALOAD SWAP1 PUSH1 0x20 ADD SWAP1 SWAP3 SWAP2 SWAP1 DUP1 CALLDATALOAD PUSH20 0xFFFFFFFFFFFFFFFFFFFFFFFFFFFFFFFFFFFFFFFF AND SWAP1 PUSH1 0x20 ADD SWAP1 SWAP3 SWAP2 SWAP1 DUP1 CALLDATALOAD ISZERO ISZERO SWAP1 PUSH1 0x20 ADD SWAP1 SWAP3 SWAP2 SWAP1 POP POP POP PUSH2 0xF60 JUMP JUMPDEST STOP JUMPDEST PUSH2 0x268 PUSH2 0x107F JUMP JUMPDEST PUSH1 0x40 MLOAD DUP1 DUP3 DUP2 MSTORE PUSH1 0x20 ADD SWAP2 POP POP PUSH1 0x40 MLOAD DUP1 SWAP2 SUB SWAP1 RETURN JUMPDEST PUSH2 0x286 PUSH2 0x1085 JUMP JUMPDEST PUSH1 0x40 MLOAD DUP1 DUP3 DUP2 MSTORE PUSH1 0x20 ADD SWAP2 POP POP PUSH1 0x40 MLOAD DUP1 SWAP2 SUB SWAP1 RETURN JUMPDEST PUSH2 0x2C8 PUSH1 0x4 DUP1 CALLDATASIZE SUB PUSH1 0x20 DUP2 LT ISZERO PUSH2 0x2B2 JUMPI PUSH1 0x0 DUP1 REVERT JUMPDEST DUP2 ADD SWAP1 DUP1 DUP1 CALLDATALOAD SWAP1 PUSH1 0x20 ADD SWAP1 SWAP3 SWAP2 SWAP1 POP POP POP PUSH2 0x108B JUMP JUMPDEST STOP JUMPDEST PUSH2 0x2D2 PUSH2 0x1313 JUMP JUMPDEST PUSH1 0x40 MLOAD DUP1 DUP3 DUP2 MSTORE PUSH1 0x20 ADD SWAP2 POP POP PUSH1 0x40 MLOAD DUP1 SWAP2 SUB SWAP1 RETURN JUMPDEST PUSH2 0x334 PUSH1 0x4 DUP1 CALLDATASIZE SUB PUSH1 0x40 DUP2 LT ISZERO PUSH2 0x2FE JUMPI PUSH1 0x0 DUP1 REVERT JUMPDEST DUP2 ADD SWAP1 DUP1 DUP1 CALLDATALOAD PUSH20 0xFFFFFFFFFFFFFFFFFFFFFFFFFFFFFFFFFFFFFFFF AND SWAP1 PUSH1 0x20 ADD SWAP1 SWAP3 SWAP2 SWAP1 DUP1 CALLDATALOAD SWAP1 PUSH1 0x20 ADD SWAP1 SWAP3 SWAP2 SWAP1 POP POP POP PUSH2 0x1319 JUMP JUMPDEST STOP JUMPDEST PUSH2 0x362 PUSH1 0x4 DUP1 CALLDATASIZE SUB PUSH1 0x20 DUP2 LT ISZERO PUSH2 0x34C JUMPI PUSH1 0x0 DUP1 REVERT JUMPDEST DUP2 ADD SWAP1 DUP1 DUP1 CALLDATALOAD SWAP1 PUSH1 0x20 ADD SWAP1 SWAP3 SWAP2 SWAP1 POP POP POP PUSH2 0x19B5 JUMP JUMPDEST STOP JUMPDEST PUSH2 0x3CC PUSH1 0x4 DUP1 CALLDATASIZE SUB PUSH1 0xE0 DUP2 LT ISZERO PUSH2 0x37A JUMPI PUSH1 0x0 DUP1 REVERT JUMPDEST DUP2 ADD SWAP1 DUP1 DUP1 CALLDATALOAD SWAP1 PUSH1 0x20 ADD SWAP1 SWAP3 SWAP2 SWAP1 DUP1 CALLDATALOAD SWAP1 PUSH1 0x20 ADD SWAP1 SWAP3 SWAP2 SWAP1 DUP1 CALLDATALOAD SWAP1 PUSH1 0x20 ADD SWAP1 SWAP3 SWAP2 SWAP1 DUP1 CALLDATALOAD SWAP1 PUSH1 0x20 ADD SWAP1 SWAP3 SWAP2 SWAP1 DUP1 CALLDATALOAD SWAP1 PUSH1 0x20 ADD SWAP1 SWAP3 SWAP2 SWAP1 DUP1 CALLDATALOAD SWAP1 PUSH1 0x20 ADD SWAP1 SWAP3 SWAP2 SWAP1 DUP1 CALLDATALOAD SWAP1 PUSH1 0x20 ADD SWAP1 SWAP3 SWAP2 SWAP1 POP POP POP PUSH2 0x1B6E JUMP JUMPDEST STOP JUMPDEST PUSH2 0x43A PUSH1 0x4 DUP1 CALLDATASIZE SUB PUSH1 0x60 DUP2 LT ISZERO PUSH2 0x3E4 JUMPI PUSH1 0x0 DUP1 REVERT JUMPDEST DUP2 ADD SWAP1 DUP1 DUP1 CALLDATALOAD PUSH20 0xFFFFFFFFFFFFFFFFFFFFFFFFFFFFFFFFFFFFFFFF AND SWAP1 PUSH1 0x20 ADD SWAP1 SWAP3 SWAP2 SWAP1 DUP1 CALLDATALOAD SWAP1 PUSH1 0x20 ADD SWAP1 SWAP3 SWAP2 SWAP1 DUP1 CALLDATALOAD PUSH20 0xFFFFFFFFFFFFFFFFFFFFFFFFFFFFFFFFFFFFFFFF AND SWAP1 PUSH1 0x20 ADD SWAP1 SWAP3 SWAP2 SWAP1 POP POP POP PUSH2 0x1D0C JUMP JUMPDEST PUSH1 0x40 MLOAD DUP1 DUP3 ISZERO ISZERO ISZERO ISZERO DUP2 MSTORE PUSH1 0x20 ADD SWAP2 POP POP PUSH1 0x40 MLOAD DUP1 SWAP2 SUB SWAP1 RETURN JUMPDEST PUSH2 0x59E PUSH1 0x4 DUP1 CALLDATASIZE SUB PUSH1 0x40 DUP2 LT ISZERO PUSH2 0x46A JUMPI PUSH1 0x0 DUP1 REVERT JUMPDEST DUP2 ADD SWAP1 DUP1 DUP1 CALLDATALOAD SWAP1 PUSH1 0x20 ADD SWAP1 PUSH5 0x100000000 DUP2 GT ISZERO PUSH2 0x487 JUMPI PUSH1 0x0 DUP1 REVERT JUMPDEST DUP3 ADD DUP4 PUSH1 0x20 DUP3 ADD GT ISZERO PUSH2 0x499 JUMPI PUSH1 0x0 DUP1 REVERT JUMPDEST DUP1 CALLDATALOAD SWAP1 PUSH1 0x20 ADD SWAP2 DUP5 PUSH1 0x20 DUP4 MUL DUP5 ADD GT PUSH5 0x100000000 DUP4 GT OR ISZERO PUSH2 0x4BB JUMPI PUSH1 0x0 DUP1 REVERT JUMPDEST SWAP2 SWAP1 DUP1 DUP1 PUSH1 0x20 MUL PUSH1 0x20 ADD PUSH1 0x40 MLOAD SWAP1 DUP2 ADD PUSH1 0x40 MSTORE DUP1 SWAP4 SWAP3 SWAP2 SWAP1 DUP2 DUP2 MSTORE PUSH1 0x20 ADD DUP4 DUP4 PUSH1 0x20 MUL DUP1 DUP3 DUP5 CALLDATACOPY PUSH1 0x0 DUP2 DUP5 ADD MSTORE PUSH1 0x1F NOT PUSH1 0x1F DUP3 ADD AND SWAP1 POP DUP1 DUP4 ADD SWAP3 POP POP POP POP POP POP POP SWAP2 SWAP3 SWAP2 SWAP3 SWAP1 DUP1 CALLDATALOAD SWAP1 PUSH1 0x20 ADD SWAP1 PUSH5 0x100000000 DUP2 GT ISZERO PUSH2 0x51B JUMPI PUSH1 0x0 DUP1 REVERT JUMPDEST DUP3 ADD DUP4 PUSH1 0x20 DUP3 ADD GT ISZERO PUSH2 0x52D JUMPI PUSH1 0x0 DUP1 REVERT JUMPDEST DUP1 CALLDATALOAD SWAP1 PUSH1 0x20 ADD SWAP2 DUP5 PUSH1 0x20 DUP4 MUL DUP5 ADD GT PUSH5 0x100000000 DUP4 GT OR ISZERO PUSH2 0x54F JUMPI PUSH1 0x0 DUP1 REVERT JUMPDEST SWAP2 SWAP1 DUP1 DUP1 PUSH1 0x20 MUL PUSH1 0x20 ADD PUSH1 0x40 MLOAD SWAP1 DUP2 ADD PUSH1 0x40 MSTORE DUP1 SWAP4 SWAP3 SWAP2 SWAP1 DUP2 DUP2 MSTORE PUSH1 0x20 ADD DUP4 DUP4 PUSH1 0x20 MUL DUP1 DUP3 DUP5 CALLDATACOPY PUSH1 0x0 DUP2 DUP5 ADD MSTORE PUSH1 0x1F NOT PUSH1 0x1F DUP3 ADD AND SWAP1 POP DUP1 DUP4 ADD SWAP3 POP POP POP POP POP POP POP SWAP2 SWAP3 SWAP2 SWAP3 SWAP1 POP POP POP PUSH2 0x1DBD JUMP JUMPDEST STOP JUMPDEST PUSH2 0x5D8 PUSH1 0x4 DUP1 CALLDATASIZE SUB PUSH1 0x40 DUP2 LT ISZERO PUSH2 0x5B6 JUMPI PUSH1 0x0 DUP1 REVERT JUMPDEST DUP2 ADD SWAP1 DUP1 DUP1 CALLDATALOAD SWAP1 PUSH1 0x20 ADD SWAP1 SWAP3 SWAP2 SWAP1 DUP1 CALLDATALOAD ISZERO ISZERO SWAP1 PUSH1 0x20 ADD SWAP1 SWAP3 SWAP2 SWAP1 POP POP POP PUSH2 0x1F54 JUMP JUMPDEST STOP JUMPDEST PUSH2 0x646 PUSH1 0x4 DUP1 CALLDATASIZE SUB PUSH1 0x60 DUP2 LT ISZERO PUSH2 0x5F0 JUMPI PUSH1 0x0 DUP1 REVERT JUMPDEST DUP2 ADD SWAP1 DUP1 DUP1 CALLDATALOAD PUSH20 0xFFFFFFFFFFFFFFFFFFFFFFFFFFFFFFFFFFFFFFFF AND SWAP1 PUSH1 0x20 ADD SWAP1 SWAP3 SWAP2 SWAP1 DUP1 CALLDATALOAD SWAP1 PUSH1 0x20 ADD SWAP1 SWAP3 SWAP2 SWAP1 DUP1 CALLDATALOAD PUSH20 0xFFFFFFFFFFFFFFFFFFFFFFFFFFFFFFFFFFFFFFFF AND SWAP1 PUSH1 0x20 ADD SWAP1 SWAP3 SWAP2 SWAP1 POP POP POP PUSH2 0x2050 JUMP JUMPDEST PUSH1 0x40 MLOAD DUP1 DUP3 ISZERO ISZERO ISZERO ISZERO DUP2 MSTORE PUSH1 0x20 ADD SWAP2 POP POP PUSH1 0x40 MLOAD DUP1 SWAP2 SUB SWAP1 RETURN JUMPDEST PUSH2 0x668 PUSH2 0x2101 JUMP JUMPDEST PUSH1 0x40 MLOAD DUP1 DUP3 PUSH20 0xFFFFFFFFFFFFFFFFFFFFFFFFFFFFFFFFFFFFFFFF AND PUSH20 0xFFFFFFFFFFFFFFFFFFFFFFFFFFFFFFFFFFFFFFFF AND DUP2 MSTORE PUSH1 0x20 ADD SWAP2 POP POP PUSH1 0x40 MLOAD DUP1 SWAP2 SUB SWAP1 RETURN JUMPDEST PUSH2 0x700 PUSH1 0x4 DUP1 CALLDATASIZE SUB PUSH1 0x60 DUP2 LT ISZERO PUSH2 0x6C0 JUMPI PUSH1 0x0 DUP1 REVERT JUMPDEST DUP2 ADD SWAP1 DUP1 DUP1 CALLDATALOAD PUSH20 0xFFFFFFFFFFFFFFFFFFFFFFFFFFFFFFFFFFFFFFFF AND SWAP1 PUSH1 0x20 ADD SWAP1 SWAP3 SWAP2 SWAP1 DUP1 CALLDATALOAD SWAP1 PUSH1 0x20 ADD SWAP1 SWAP3 SWAP2 SWAP1 DUP1 CALLDATALOAD SWAP1 PUSH1 0x20 ADD SWAP1 SWAP3 SWAP2 SWAP1 POP POP POP PUSH2 0x2126 JUMP JUMPDEST PUSH1 0x40 MLOAD DUP1 DUP3 DUP2 MSTORE PUSH1 0x20 ADD SWAP2 POP POP PUSH1 0x40 MLOAD DUP1 SWAP2 SUB SWAP1 RETURN JUMPDEST PUSH2 0x778 PUSH1 0x4 DUP1 CALLDATASIZE SUB PUSH1 0x80 DUP2 LT ISZERO PUSH2 0x72C JUMPI PUSH1 0x0 DUP1 REVERT JUMPDEST DUP2 ADD SWAP1 DUP1 DUP1 CALLDATALOAD PUSH20 0xFFFFFFFFFFFFFFFFFFFFFFFFFFFFFFFFFFFFFFFF AND SWAP1 PUSH1 0x20 ADD SWAP1 SWAP3 SWAP2 SWAP1 DUP1 CALLDATALOAD SWAP1 PUSH1 0x20 ADD SWAP1 SWAP3 SWAP2 SWAP1 DUP1 CALLDATALOAD SWAP1 PUSH1 0x20 ADD SWAP1 SWAP3 SWAP2 SWAP1 DUP1 CALLDATALOAD ISZERO ISZERO SWAP1 PUSH1 0x20 ADD SWAP1 SWAP3 SWAP2 SWAP1 POP POP POP PUSH2 0x22A7 JUMP JUMPDEST PUSH1 0x40 MLOAD DUP1 DUP3 DUP2 MSTORE PUSH1 0x20 ADD SWAP2 POP POP PUSH1 0x40 MLOAD DUP1 SWAP2 SUB SWAP1 RETURN JUMPDEST PUSH2 0x7DA PUSH1 0x4 DUP1 CALLDATASIZE SUB PUSH1 0x40 DUP2 LT ISZERO PUSH2 0x7A4 JUMPI PUSH1 0x0 DUP1 REVERT JUMPDEST DUP2 ADD SWAP1 DUP1 DUP1 CALLDATALOAD PUSH20 0xFFFFFFFFFFFFFFFFFFFFFFFFFFFFFFFFFFFFFFFF AND SWAP1 PUSH1 0x20 ADD SWAP1 SWAP3 SWAP2 SWAP1 DUP1 CALLDATALOAD SWAP1 PUSH1 0x20 ADD SWAP1 SWAP3 SWAP2 SWAP1 POP POP POP PUSH2 0x25CF JUMP JUMPDEST STOP JUMPDEST PUSH2 0x81E PUSH1 0x4 DUP1 CALLDATASIZE SUB PUSH1 0x60 DUP2 LT ISZERO PUSH2 0x7F2 JUMPI PUSH1 0x0 DUP1 REVERT JUMPDEST DUP2 ADD SWAP1 DUP1 DUP1 CALLDATALOAD SWAP1 PUSH1 0x20 ADD SWAP1 SWAP3 SWAP2 SWAP1 DUP1 CALLDATALOAD SWAP1 PUSH1 0x20 ADD SWAP1 SWAP3 SWAP2 SWAP1 DUP1 CALLDATALOAD ISZERO ISZERO SWAP1 PUSH1 0x20 ADD SWAP1 SWAP3 SWAP2 SWAP1 POP POP POP PUSH2 0x27C6 JUMP JUMPDEST STOP JUMPDEST PUSH2 0x876 PUSH1 0x4 DUP1 CALLDATASIZE SUB PUSH1 0x60 DUP2 LT ISZERO PUSH2 0x836 JUMPI PUSH1 0x0 DUP1 REVERT JUMPDEST DUP2 ADD SWAP1 DUP1 DUP1 CALLDATALOAD PUSH20 0xFFFFFFFFFFFFFFFFFFFFFFFFFFFFFFFFFFFFFFFF AND SWAP1 PUSH1 0x20 ADD SWAP1 SWAP3 SWAP2 SWAP1 DUP1 CALLDATALOAD SWAP1 PUSH1 0x20 ADD SWAP1 SWAP3 SWAP2 SWAP1 DUP1 CALLDATALOAD SWAP1 PUSH1 0x20 ADD SWAP1 SWAP3 SWAP2 SWAP1 POP POP POP PUSH2 0x2F23 JUMP JUMPDEST PUSH1 0x40 MLOAD DUP1 DUP3 DUP2 MSTORE PUSH1 0x20 ADD SWAP2 POP POP PUSH1 0x40 MLOAD DUP1 SWAP2 SUB SWAP1 RETURN JUMPDEST PUSH2 0x8E4 PUSH1 0x4 DUP1 CALLDATASIZE SUB PUSH1 0x60 DUP2 LT ISZERO PUSH2 0x8A2 JUMPI PUSH1 0x0 DUP1 REVERT JUMPDEST DUP2 ADD SWAP1 DUP1 DUP1 CALLDATALOAD SWAP1 PUSH1 0x20 ADD SWAP1 SWAP3 SWAP2 SWAP1 DUP1 CALLDATALOAD PUSH20 0xFFFFFFFFFFFFFFFFFFFFFFFFFFFFFFFFFFFFFFFF AND SWAP1 PUSH1 0x20 ADD SWAP1 SWAP3 SWAP2 SWAP1 DUP1 CALLDATALOAD ISZERO ISZERO SWAP1 PUSH1 0x20 ADD SWAP1 SWAP3 SWAP2 SWAP1 POP POP POP PUSH2 0x2F9B JUMP JUMPDEST STOP JUMPDEST PUSH2 0x912 PUSH1 0x4 DUP1 CALLDATASIZE SUB PUSH1 0x20 DUP2 LT ISZERO PUSH2 0x8FC JUMPI PUSH1 0x0 DUP1 REVERT JUMPDEST DUP2 ADD SWAP1 DUP1 DUP1 CALLDATALOAD SWAP1 PUSH1 0x20 ADD SWAP1 SWAP3 SWAP2 SWAP1 POP POP POP PUSH2 0x321E JUMP JUMPDEST STOP JUMPDEST PUSH2 0x980 PUSH1 0x4 DUP1 CALLDATASIZE SUB PUSH1 0xA0 DUP2 LT ISZERO PUSH2 0x92A JUMPI PUSH1 0x0 DUP1 REVERT JUMPDEST DUP2 ADD SWAP1 DUP1 DUP1 CALLDATALOAD PUSH20 0xFFFFFFFFFFFFFFFFFFFFFFFFFFFFFFFFFFFFFFFF AND SWAP1 PUSH1 0x20 ADD SWAP1 SWAP3 SWAP2 SWAP1 DUP1 CALLDATALOAD SWAP1 PUSH1 0x20 ADD SWAP1 SWAP3 SWAP2 SWAP1 DUP1 CALLDATALOAD SWAP1 PUSH1 0x20 ADD SWAP1 SWAP3 SWAP2 SWAP1 DUP1 CALLDATALOAD SWAP1 PUSH1 0x20 ADD SWAP1 SWAP3 SWAP2 SWAP1 DUP1 CALLDATALOAD ISZERO ISZERO SWAP1 PUSH1 0x20 ADD SWAP1 SWAP3 SWAP2 SWAP1 POP POP POP PUSH2 0x33FD JUMP JUMPDEST STOP JUMPDEST PUSH2 0x9AE PUSH1 0x4 DUP1 CALLDATASIZE SUB PUSH1 0x20 DUP2 LT ISZERO PUSH2 0x998 JUMPI PUSH1 0x0 DUP1 REVERT JUMPDEST DUP2 ADD SWAP1 DUP1 DUP1 CALLDATALOAD SWAP1 PUSH1 0x20 ADD SWAP1 SWAP3 SWAP2 SWAP1 POP POP POP PUSH2 0x3AC2 JUMP JUMPDEST PUSH1 0x40 MLOAD DUP1 DUP10 ISZERO ISZERO ISZERO ISZERO DUP2 MSTORE PUSH1 0x20 ADD DUP9 DUP2 MSTORE PUSH1 0x20 ADD DUP8 DUP2 MSTORE PUSH1 0x20 ADD DUP7 DUP2 MSTORE PUSH1 0x20 ADD DUP6 DUP2 MSTORE PUSH1 0x20 ADD DUP5 DUP2 MSTORE PUSH1 0x20 ADD DUP4 DUP2 MSTORE PUSH1 0x20 ADD DUP3 DUP2 MSTORE PUSH1 0x20 ADD SWAP9 POP POP POP POP POP POP POP POP POP PUSH1 0x40 MLOAD DUP1 SWAP2 SUB SWAP1 RETURN JUMPDEST PUSH2 0xA4F PUSH1 0x4 DUP1 CALLDATASIZE SUB PUSH1 0x60 DUP2 LT ISZERO PUSH2 0xA0F JUMPI PUSH1 0x0 DUP1 REVERT JUMPDEST DUP2 ADD SWAP1 DUP1 DUP1 CALLDATALOAD PUSH20 0xFFFFFFFFFFFFFFFFFFFFFFFFFFFFFFFFFFFFFFFF AND SWAP1 PUSH1 0x20 ADD SWAP1 SWAP3 SWAP2 SWAP1 DUP1 CALLDATALOAD SWAP1 PUSH1 0x20 ADD SWAP1 SWAP3 SWAP2 SWAP1 DUP1 CALLDATALOAD SWAP1 PUSH1 0x20 ADD SWAP1 SWAP3 SWAP2 SWAP1 POP POP POP PUSH2 0x3B24 JUMP JUMPDEST PUSH1 0x40 MLOAD DUP1 DUP3 DUP2 MSTORE PUSH1 0x20 ADD SWAP2 POP POP PUSH1 0x40 MLOAD DUP1 SWAP2 SUB SWAP1 RETURN JUMPDEST PUSH2 0xAB1 PUSH1 0x4 DUP1 CALLDATASIZE SUB PUSH1 0x40 DUP2 LT ISZERO PUSH2 0xA7B JUMPI PUSH1 0x0 DUP1 REVERT JUMPDEST DUP2 ADD SWAP1 DUP1 DUP1 CALLDATALOAD PUSH20 0xFFFFFFFFFFFFFFFFFFFFFFFFFFFFFFFFFFFFFFFF AND SWAP1 PUSH1 0x20 ADD SWAP1 SWAP3 SWAP2 SWAP1 DUP1 CALLDATALOAD SWAP1 PUSH1 0x20 ADD SWAP1 SWAP3 SWAP2 SWAP1 POP POP POP PUSH2 0x3B9C JUMP JUMPDEST PUSH1 0x40 MLOAD DUP1 DUP10 DUP2 MSTORE PUSH1 0x20 ADD DUP9 DUP2 MSTORE PUSH1 0x20 ADD DUP8 DUP2 MSTORE PUSH1 0x20 ADD DUP7 DUP2 MSTORE PUSH1 0x20 ADD DUP6 DUP2 MSTORE PUSH1 0x20 ADD DUP5 DUP2 MSTORE PUSH1 0x20 ADD DUP4 DUP2 MSTORE PUSH1 0x20 ADD DUP3 DUP2 MSTORE PUSH1 0x20 ADD SWAP9 POP POP POP POP POP POP POP POP POP PUSH1 0x40 MLOAD DUP1 SWAP2 SUB SWAP1 RETURN JUMPDEST PUSH2 0xB3A PUSH1 0x4 DUP1 CALLDATASIZE SUB PUSH1 0x20 DUP2 LT ISZERO PUSH2 0xB0E JUMPI PUSH1 0x0 DUP1 REVERT JUMPDEST DUP2 ADD SWAP1 DUP1 DUP1 CALLDATALOAD PUSH20 0xFFFFFFFFFFFFFFFFFFFFFFFFFFFFFFFFFFFFFFFF AND SWAP1 PUSH1 0x20 ADD SWAP1 SWAP3 SWAP2 SWAP1 POP POP POP PUSH2 0x3BFE JUMP JUMPDEST PUSH1 0x40 MLOAD DUP1 DUP3 DUP2 MSTORE PUSH1 0x20 ADD SWAP2 POP POP PUSH1 0x40 MLOAD DUP1 SWAP2 SUB SWAP1 RETURN JUMPDEST PUSH2 0xB58 PUSH2 0x3C16 JUMP JUMPDEST PUSH1 0x40 MLOAD DUP1 DUP3 PUSH20 0xFFFFFFFFFFFFFFFFFFFFFFFFFFFFFFFFFFFFFFFF AND PUSH20 0xFFFFFFFFFFFFFFFFFFFFFFFFFFFFFFFFFFFFFFFF AND DUP2 MSTORE PUSH1 0x20 ADD SWAP2 POP POP PUSH1 0x40 MLOAD DUP1 SWAP2 SUB SWAP1 RETURN JUMPDEST DUP3 DUP3 PUSH1 0x0 PUSH1 0x6 PUSH1 0x0 DUP5 PUSH20 0xFFFFFFFFFFFFFFFFFFFFFFFFFFFFFFFFFFFFFFFF AND PUSH20 0xFFFFFFFFFFFFFFFFFFFFFFFFFFFFFFFFFFFFFFFF AND DUP2 MSTORE PUSH1 0x20 ADD SWAP1 DUP2 MSTORE PUSH1 0x20 ADD PUSH1 0x0 KECCAK256 DUP3 DUP2 SLOAD DUP2 LT PUSH2 0xBE8 JUMPI INVALID JUMPDEST SWAP1 PUSH1 0x0 MSTORE PUSH1 0x20 PUSH1 0x0 KECCAK256 SWAP1 PUSH1 0xC MUL ADD SWAP1 POP DUP3 PUSH20 0xFFFFFFFFFFFFFFFFFFFFFFFFFFFFFFFFFFFFFFFF AND CALLER PUSH20 0xFFFFFFFFFFFFFFFFFFFFFFFFFFFFFFFFFFFFFFFF AND EQ PUSH2 0xCED JUMPI DUP1 PUSH1 0xA ADD PUSH1 0x0 CALLER PUSH20 0xFFFFFFFFFFFFFFFFFFFFFFFFFFFFFFFFFFFFFFFF AND PUSH20 0xFFFFFFFFFFFFFFFFFFFFFFFFFFFFFFFFFFFFFFFF AND DUP2 MSTORE PUSH1 0x20 ADD SWAP1 DUP2 MSTORE PUSH1 0x20 ADD PUSH1 0x0 KECCAK256 PUSH1 0x0 SWAP1 SLOAD SWAP1 PUSH2 0x100 EXP SWAP1 DIV PUSH1 0xFF AND PUSH2 0xCEC JUMPI PUSH1 0x40 MLOAD PUSH32 0x8C379A000000000000000000000000000000000000000000000000000000000 DUP2 MSTORE PUSH1 0x4 ADD DUP1 DUP1 PUSH1 0x20 ADD DUP3 DUP2 SUB DUP3 MSTORE PUSH1 0x1A DUP2 MSTORE PUSH1 0x20 ADD DUP1 PUSH32 0x6E6F6D696E6174696F6E2073686F756C64206265207468657265000000000000 DUP2 MSTORE POP PUSH1 0x20 ADD SWAP2 POP POP PUSH1 0x40 MLOAD DUP1 SWAP2 SUB SWAP1 REVERT JUMPDEST JUMPDEST PUSH1 0x0 PUSH2 0xD2A DUP8 DUP8 DUP8 DUP11 PUSH20 0xFFFFFFFFFFFFFFFFFFFFFFFFFFFFFFFFFFFFFFFF AND CALLER PUSH20 0xFFFFFFFFFFFFFFFFFFFFFFFFFFFFFFFFFFFFFFFF AND EQ ISZERO PUSH2 0x22A7 JUMP JUMPDEST SWAP1 POP PUSH1 0x0 PUSH1 0x6 PUSH1 0x0 DUP10 PUSH20 0xFFFFFFFFFFFFFFFFFFFFFFFFFFFFFFFFFFFFFFFF AND PUSH20 0xFFFFFFFFFFFFFFFFFFFFFFFFFFFFFFFFFFFFFFFF AND DUP2 MSTORE PUSH1 0x20 ADD SWAP1 DUP2 MSTORE PUSH1 0x20 ADD PUSH1 0x0 KECCAK256 DUP8 DUP2 SLOAD DUP2 LT PUSH2 0xD78 JUMPI INVALID JUMPDEST SWAP1 PUSH1 0x0 MSTORE PUSH1 0x20 PUSH1 0x0 KECCAK256 SWAP1 PUSH1 0xC MUL ADD SWAP1 POP PUSH1 0x0 DUP2 PUSH1 0x4 ADD SLOAD SWAP1 POP DUP7 DUP3 PUSH1 0x4 ADD DUP2 SWAP1 SSTORE POP PUSH2 0xDAF DUP4 PUSH1 0x3 SLOAD PUSH2 0x3C3C SWAP1 SWAP2 SWAP1 PUSH4 0xFFFFFFFF AND JUMP JUMPDEST PUSH1 0x3 DUP2 SWAP1 SSTORE POP PUSH2 0xDCA DUP4 PUSH1 0x4 SLOAD PUSH2 0x3C3C SWAP1 SWAP2 SWAP1 PUSH4 0xFFFFFFFF AND JUMP JUMPDEST PUSH1 0x4 DUP2 SWAP1 SSTORE POP PUSH1 0x0 DUP4 GT ISZERO PUSH2 0xEBF JUMPI PUSH1 0x1 PUSH1 0x0 SWAP1 SLOAD SWAP1 PUSH2 0x100 EXP SWAP1 DIV PUSH20 0xFFFFFFFFFFFFFFFFFFFFFFFFFFFFFFFFFFFFFFFF AND PUSH20 0xFFFFFFFFFFFFFFFFFFFFFFFFFFFFFFFFFFFFFFFF AND PUSH4 0xA9059CBB CALLER DUP6 PUSH1 0x40 MLOAD DUP4 PUSH4 0xFFFFFFFF AND PUSH1 0xE0 SHL DUP2 MSTORE PUSH1 0x4 ADD DUP1 DUP4 PUSH20 0xFFFFFFFFFFFFFFFFFFFFFFFFFFFFFFFFFFFFFFFF AND PUSH20 0xFFFFFFFFFFFFFFFFFFFFFFFFFFFFFFFFFFFFFFFF AND DUP2 MSTORE PUSH1 0x20 ADD DUP3 DUP2 MSTORE PUSH1 0x20 ADD SWAP3 POP POP POP PUSH1 0x20 PUSH1 0x40 MLOAD DUP1 DUP4 SUB DUP2 PUSH1 0x0 DUP8 DUP1 EXTCODESIZE ISZERO DUP1 ISZERO PUSH2 0xE82 JUMPI PUSH1 0x0 DUP1 REVERT JUMPDEST POP GAS CALL ISZERO DUP1 ISZERO PUSH2 0xE96 JUMPI RETURNDATASIZE PUSH1 0x0 DUP1 RETURNDATACOPY RETURNDATASIZE PUSH1 0x0 REVERT JUMPDEST POP POP POP POP PUSH1 0x40 MLOAD RETURNDATASIZE PUSH1 0x20 DUP2 LT ISZERO PUSH2 0xEAC JUMPI PUSH1 0x0 DUP1 REVERT JUMPDEST DUP2 ADD SWAP1 DUP1 DUP1 MLOAD SWAP1 PUSH1 0x20 ADD SWAP1 SWAP3 SWAP2 SWAP1 POP POP POP POP JUMPDEST DUP8 DUP10 PUSH20 0xFFFFFFFFFFFFFFFFFFFFFFFFFFFFFFFFFFFFFFFF AND PUSH32 0x8F4915DB3C6BAFB045A8CA029A06C4D1638DADDB07E111ED35ABF34F81B6A855 PUSH1 0x1 DUP5 ADD DUP11 DUP8 CALLER PUSH1 0x40 MLOAD DUP1 DUP6 DUP2 MSTORE PUSH1 0x20 ADD DUP5 DUP2 MSTORE PUSH1 0x20 ADD DUP4 DUP2 MSTORE PUSH1 0x20 ADD DUP3 PUSH20 0xFFFFFFFFFFFFFFFFFFFFFFFFFFFFFFFFFFFFFFFF AND PUSH20 0xFFFFFFFFFFFFFFFFFFFFFFFFFFFFFFFFFFFFFFFF AND DUP2 MSTORE PUSH1 0x20 ADD SWAP5 POP POP POP POP POP PUSH1 0x40 MLOAD DUP1 SWAP2 SUB SWAP1 LOG3 POP POP POP POP POP POP POP POP POP JUMP JUMPDEST DUP1 PUSH1 0x6 PUSH1 0x0 CALLER PUSH20 0xFFFFFFFFFFFFFFFFFFFFFFFFFFFFFFFFFFFFFFFF AND PUSH20 0xFFFFFFFFFFFFFFFFFFFFFFFFFFFFFFFFFFFFFFFF AND DUP2 MSTORE PUSH1 0x20 ADD SWAP1 DUP2 MSTORE PUSH1 0x20 ADD PUSH1 0x0 KECCAK256 DUP5 DUP2 SLOAD DUP2 LT PUSH2 0xFAB JUMPI INVALID JUMPDEST SWAP1 PUSH1 0x0 MSTORE PUSH1 0x20 PUSH1 0x0 KECCAK256 SWAP1 PUSH1 0xC MUL ADD PUSH1 0xA ADD PUSH1 0x0 DUP5 PUSH20 0xFFFFFFFFFFFFFFFFFFFFFFFFFFFFFFFFFFFFFFFF AND PUSH20 0xFFFFFFFFFFFFFFFFFFFFFFFFFFFFFFFFFFFFFFFF AND DUP2 MSTORE PUSH1 0x20 ADD SWAP1 DUP2 MSTORE PUSH1 0x20 ADD PUSH1 0x0 KECCAK256 PUSH1 0x0 PUSH2 0x100 EXP DUP2 SLOAD DUP2 PUSH1 0xFF MUL NOT AND SWAP1 DUP4 ISZERO ISZERO MUL OR SWAP1 SSTORE POP DUP2 PUSH20 0xFFFFFFFFFFFFFFFFFFFFFFFFFFFFFFFFFFFFFFFF AND DUP4 CALLER PUSH20 0xFFFFFFFFFFFFFFFFFFFFFFFFFFFFFFFFFFFFFFFF AND PUSH32 0x90E4568F920D8BB093366A04150AA0D04957A471196F5E1CDFB0DB3CB83CC5B0 DUP5 PUSH1 0x40 MLOAD DUP1 DUP3 ISZERO ISZERO ISZERO ISZERO DUP2 MSTORE PUSH1 0x20 ADD SWAP2 POP POP PUSH1 0x40 MLOAD DUP1 SWAP2 SUB SWAP1 LOG4 POP POP POP JUMP JUMPDEST PUSH1 0x2 SLOAD DUP2 JUMP JUMPDEST PUSH1 0x4 SLOAD DUP2 JUMP JUMPDEST PUSH1 0x0 DUP1 SWAP1 SLOAD SWAP1 PUSH2 0x100 EXP SWAP1 DIV PUSH20 0xFFFFFFFFFFFFFFFFFFFFFFFFFFFFFFFFFFFFFFFF AND PUSH20 0xFFFFFFFFFFFFFFFFFFFFFFFFFFFFFFFFFFFFFFFF AND CALLER PUSH20 0xFFFFFFFFFFFFFFFFFFFFFFFFFFFFFFFFFFFFFFFF AND EQ PUSH2 0x114D JUMPI PUSH1 0x40 MLOAD PUSH32 0x8C379A000000000000000000000000000000000000000000000000000000000 DUP2 MSTORE PUSH1 0x4 ADD DUP1 DUP1 PUSH1 0x20 ADD DUP3 DUP2 SUB DUP3 MSTORE PUSH1 0x16 DUP2 MSTORE PUSH1 0x20 ADD DUP1 PUSH32 0x6F6E6C79206465706C6F7965722063616E2063616C6C00000000000000000000 DUP2 MSTORE POP PUSH1 0x20 ADD SWAP2 POP POP PUSH1 0x40 MLOAD DUP1 SWAP2 SUB SWAP1 REVERT JUMPDEST DUP1 PUSH2 0x1165 PUSH1 0x3 SLOAD PUSH1 0x4 SLOAD PUSH2 0x3C3C SWAP1 SWAP2 SWAP1 PUSH4 0xFFFFFFFF AND JUMP JUMPDEST LT ISZERO PUSH2 0x11D9 JUMPI PUSH1 0x40 MLOAD PUSH32 0x8C379A000000000000000000000000000000000000000000000000000000000 DUP2 MSTORE PUSH1 0x4 ADD DUP1 DUP1 PUSH1 0x20 ADD DUP3 DUP2 SUB DUP3 MSTORE PUSH1 0x1C DUP2 MSTORE PUSH1 0x20 ADD DUP1 PUSH32 0x63616E6E6F74207769746864726177206578636573732066756E647300000000 DUP2 MSTORE POP PUSH1 0x20 ADD SWAP2 POP POP PUSH1 0x40 MLOAD DUP1 SWAP2 SUB SWAP1 REVERT JUMPDEST PUSH2 0x11EE DUP2 PUSH1 0x4 SLOAD PUSH2 0x3C3C SWAP1 SWAP2 SWAP1 PUSH4 0xFFFFFFFF AND JUMP JUMPDEST PUSH1 0x4 DUP2 SWAP1 SSTORE POP PUSH1 0x1 PUSH1 0x0 SWAP1 SLOAD SWAP1 PUSH2 0x100 EXP SWAP1 DIV PUSH20 0xFFFFFFFFFFFFFFFFFFFFFFFFFFFFFFFFFFFFFFFF AND PUSH20 0xFFFFFFFFFFFFFFFFFFFFFFFFFFFFFFFFFFFFFFFF AND PUSH4 0xA9059CBB CALLER DUP4 PUSH1 0x40 MLOAD DUP4 PUSH4 0xFFFFFFFF AND PUSH1 0xE0 SHL DUP2 MSTORE PUSH1 0x4 ADD DUP1 DUP4 PUSH20 0xFFFFFFFFFFFFFFFFFFFFFFFFFFFFFFFFFFFFFFFF AND PUSH20 0xFFFFFFFFFFFFFFFFFFFFFFFFFFFFFFFFFFFFFFFF AND DUP2 MSTORE PUSH1 0x20 ADD DUP3 DUP2 MSTORE PUSH1 0x20 ADD SWAP3 POP POP POP PUSH1 0x20 PUSH1 0x40 MLOAD DUP1 DUP4 SUB DUP2 PUSH1 0x0 DUP8 DUP1 EXTCODESIZE ISZERO DUP1 ISZERO PUSH2 0x129D JUMPI PUSH1 0x0 DUP1 REVERT JUMPDEST POP GAS CALL ISZERO DUP1 ISZERO PUSH2 0x12B1 JUMPI RETURNDATASIZE PUSH1 0x0 DUP1 RETURNDATACOPY RETURNDATASIZE PUSH1 0x0 REVERT JUMPDEST POP POP POP POP PUSH1 0x40 MLOAD RETURNDATASIZE PUSH1 0x20 DUP2 LT ISZERO PUSH2 0x12C7 JUMPI PUSH1 0x0 DUP1 REVERT JUMPDEST DUP2 ADD SWAP1 DUP1 DUP1 MLOAD SWAP1 PUSH1 0x20 ADD SWAP1 SWAP3 SWAP2 SWAP1 POP POP POP POP PUSH32 0x4A37B25AAB49761ECF63117FE82B98D750917451133CF797507BC9FB5B96044A DUP2 PUSH1 0x40 MLOAD DUP1 DUP3 DUP2 MSTORE PUSH1 0x20 ADD SWAP2 POP POP PUSH1 0x40 MLOAD DUP1 SWAP2 SUB SWAP1 LOG1 POP JUMP JUMPDEST PUSH1 0x3 SLOAD DUP2 JUMP JUMPDEST DUP2 DUP2 PUSH1 0x0 PUSH1 0x6 PUSH1 0x0 DUP5 PUSH20 0xFFFFFFFFFFFFFFFFFFFFFFFFFFFFFFFFFFFFFFFF AND PUSH20 0xFFFFFFFFFFFFFFFFFFFFFFFFFFFFFFFFFFFFFFFF AND DUP2 MSTORE PUSH1 0x20 ADD SWAP1 DUP2 MSTORE PUSH1 0x20 ADD PUSH1 0x0 KECCAK256 DUP3 DUP2 SLOAD DUP2 LT PUSH2 0x1367 JUMPI INVALID JUMPDEST SWAP1 PUSH1 0x0 MSTORE PUSH1 0x20 PUSH1 0x0 KECCAK256 SWAP1 PUSH1 0xC MUL ADD SWAP1 POP DUP3 PUSH20 0xFFFFFFFFFFFFFFFFFFFFFFFFFFFFFFFFFFFFFFFF AND CALLER PUSH20 0xFFFFFFFFFFFFFFFFFFFFFFFFFFFFFFFFFFFFFFFF AND EQ PUSH2 0x146C JUMPI DUP1 PUSH1 0xA ADD PUSH1 0x0 CALLER PUSH20 0xFFFFFFFFFFFFFFFFFFFFFFFFFFFFFFFFFFFFFFFF AND PUSH20 0xFFFFFFFFFFFFFFFFFFFFFFFFFFFFFFFFFFFFFFFF AND DUP2 MSTORE PUSH1 0x20 ADD SWAP1 DUP2 MSTORE PUSH1 0x20 ADD PUSH1 0x0 KECCAK256 PUSH1 0x0 SWAP1 SLOAD SWAP1 PUSH2 0x100 EXP SWAP1 DIV PUSH1 0xFF AND PUSH2 0x146B JUMPI PUSH1 0x40 MLOAD PUSH32 0x8C379A000000000000000000000000000000000000000000000000000000000 DUP2 MSTORE PUSH1 0x4 ADD DUP1 DUP1 PUSH1 0x20 ADD DUP3 DUP2 SUB DUP3 MSTORE PUSH1 0x1A DUP2 MSTORE PUSH1 0x20 ADD DUP1 PUSH32 0x6E6F6D696E6174696F6E2073686F756C64206265207468657265000000000000 DUP2 MSTORE POP PUSH1 0x20 ADD SWAP2 POP POP PUSH1 0x40 MLOAD DUP1 SWAP2 SUB SWAP1 REVERT JUMPDEST JUMPDEST PUSH1 0x0 PUSH1 0x6 PUSH1 0x0 DUP8 PUSH20 0xFFFFFFFFFFFFFFFFFFFFFFFFFFFFFFFFFFFFFFFF AND PUSH20 0xFFFFFFFFFFFFFFFFFFFFFFFFFFFFFFFFFFFFFFFF AND DUP2 MSTORE PUSH1 0x20 ADD SWAP1 DUP2 MSTORE PUSH1 0x20 ADD PUSH1 0x0 KECCAK256 DUP6 DUP2 SLOAD DUP2 LT PUSH2 0x14B8 JUMPI INVALID JUMPDEST SWAP1 PUSH1 0x0 MSTORE PUSH1 0x20 PUSH1 0x0 KECCAK256 SWAP1 PUSH1 0xC MUL ADD SWAP1 POP PUSH1 0x0 PUSH1 0x1 DUP3 PUSH1 0x5 ADD SLOAD ADD SWAP1 POP PUSH1 0x3 DUP2 GT ISZERO PUSH2 0x154B JUMPI PUSH1 0x40 MLOAD PUSH32 0x8C379A000000000000000000000000000000000000000000000000000000000 DUP2 MSTORE PUSH1 0x4 ADD DUP1 DUP1 PUSH1 0x20 ADD DUP3 DUP2 SUB DUP3 MSTORE PUSH1 0x15 DUP2 MSTORE PUSH1 0x20 ADD DUP1 PUSH32 0x6F6E6C79203320706F77657220626F6F73746572730000000000000000000000 DUP2 MSTORE POP PUSH1 0x20 ADD SWAP2 POP POP PUSH1 0x40 MLOAD DUP1 SWAP2 SUB SWAP1 REVERT JUMPDEST PUSH1 0x0 PUSH1 0x2 SLOAD PUSH1 0x3 DUP4 PUSH1 0x2 SLOAD PUSH1 0xC PUSH1 0x5 DUP9 PUSH1 0x0 ADD SLOAD DUP2 SLOAD DUP2 LT PUSH2 0x1569 JUMPI INVALID JUMPDEST SWAP1 PUSH1 0x0 MSTORE PUSH1 0x20 PUSH1 0x0 KECCAK256 SWAP1 PUSH1 0x8 MUL ADD PUSH1 0x3 ADD SLOAD MUL MUL MUL DUP2 PUSH2 0x1585 JUMPI INVALID JUMPDEST DIV PUSH1 0x2 SLOAD PUSH1 0x5 DUP7 PUSH1 0x0 ADD SLOAD DUP2 SLOAD DUP2 LT PUSH2 0x159A JUMPI INVALID JUMPDEST SWAP1 PUSH1 0x0 MSTORE PUSH1 0x20 PUSH1 0x0 KECCAK256 SWAP1 PUSH1 0x8 MUL ADD PUSH1 0x2 ADD SLOAD MUL DUP6 PUSH1 0x1 ADD SLOAD ADD ADD SUB SWAP1 POP DUP8 PUSH20 0xFFFFFFFFFFFFFFFFFFFFFFFFFFFFFFFFFFFFFFFF AND CALLER PUSH20 0xFFFFFFFFFFFFFFFFFFFFFFFFFFFFFFFFFFFFFFFF AND EQ PUSH2 0x1628 JUMPI PUSH2 0x1602 PUSH1 0x2 DUP5 PUSH1 0x6 ADD SLOAD PUSH2 0x3C86 SWAP1 SWAP2 SWAP1 PUSH4 0xFFFFFFFF AND JUMP JUMPDEST DUP4 PUSH1 0x7 ADD SLOAD GT ISZERO PUSH2 0x161C JUMPI PUSH1 0x6 PUSH1 0x2 SLOAD MUL DUP2 ADD SWAP1 POP PUSH2 0x1627 JUMP JUMPDEST PUSH1 0xC PUSH1 0x2 SLOAD MUL DUP2 ADD SWAP1 POP JUMPDEST JUMPDEST DUP1 TIMESTAMP GT PUSH2 0x169D JUMPI PUSH1 0x40 MLOAD PUSH32 0x8C379A000000000000000000000000000000000000000000000000000000000 DUP2 MSTORE PUSH1 0x4 ADD DUP1 DUP1 PUSH1 0x20 ADD DUP3 DUP2 SUB DUP3 MSTORE PUSH1 0x15 DUP2 MSTORE PUSH1 0x20 ADD DUP1 PUSH32 0x63616E6E6F74207769746864726177206561726C790000000000000000000000 DUP2 MSTORE POP PUSH1 0x20 ADD SWAP2 POP POP PUSH1 0x40 MLOAD DUP1 SWAP2 SUB SWAP1 REVERT JUMPDEST DUP2 DUP4 PUSH1 0x5 ADD DUP2 SWAP1 SSTORE POP PUSH1 0x0 PUSH2 0x16C0 PUSH1 0x3 DUP6 PUSH1 0x3 ADD SLOAD PUSH2 0x3C86 SWAP1 SWAP2 SWAP1 PUSH4 0xFFFFFFFF AND JUMP JUMPDEST SWAP1 POP PUSH1 0x1 DUP4 EQ ISZERO PUSH2 0x183A JUMPI PUSH1 0x0 DUP1 PUSH1 0x1 SWAP1 POP JUMPDEST PUSH1 0x5 DUP7 PUSH1 0x0 ADD SLOAD DUP2 SLOAD DUP2 LT PUSH2 0x16E4 JUMPI INVALID JUMPDEST SWAP1 PUSH1 0x0 MSTORE PUSH1 0x20 PUSH1 0x0 KECCAK256 SWAP1 PUSH1 0x8 MUL ADD PUSH1 0x2 ADD SLOAD DUP2 GT PUSH2 0x179A JUMPI PUSH1 0x0 DUP7 PUSH1 0x8 ADD PUSH1 0x0 DUP4 DUP2 MSTORE PUSH1 0x20 ADD SWAP1 DUP2 MSTORE PUSH1 0x20 ADD PUSH1 0x0 KECCAK256 SLOAD EQ ISZERO PUSH2 0x1746 JUMPI PUSH1 0x5 DUP7 PUSH1 0x0 ADD SLOAD DUP2 SLOAD DUP2 LT PUSH2 0x172B JUMPI INVALID JUMPDEST SWAP1 PUSH1 0x0 MSTORE PUSH1 0x20 PUSH1 0x0 KECCAK256 SWAP1 PUSH1 0x8 MUL ADD PUSH1 0x7 ADD SLOAD DUP3 ADD SWAP2 POP PUSH2 0x178D JUMP JUMPDEST PUSH1 0x1 DUP7 PUSH1 0x8 ADD PUSH1 0x0 DUP4 DUP2 MSTORE PUSH1 0x20 ADD SWAP1 DUP2 MSTORE PUSH1 0x20 ADD PUSH1 0x0 KECCAK256 SLOAD EQ ISZERO PUSH2 0x178C JUMPI PUSH1 0x5 DUP7 PUSH1 0x0 ADD SLOAD DUP2 SLOAD DUP2 LT PUSH2 0x1775 JUMPI INVALID JUMPDEST SWAP1 PUSH1 0x0 MSTORE PUSH1 0x20 PUSH1 0x0 KECCAK256 SWAP1 PUSH1 0x8 MUL ADD PUSH1 0x6 ADD SLOAD DUP3 ADD SWAP2 POP JUMPDEST JUMPDEST DUP1 DUP1 PUSH1 0x1 ADD SWAP2 POP POP PUSH2 0x16D3 JUMP JUMPDEST POP PUSH1 0x0 PUSH2 0x17C4 PUSH2 0x3E8 PUSH2 0x17B6 DUP5 DUP7 PUSH2 0x3CD0 SWAP1 SWAP2 SWAP1 PUSH4 0xFFFFFFFF AND JUMP JUMPDEST PUSH2 0x3C86 SWAP1 SWAP2 SWAP1 PUSH4 0xFFFFFFFF AND JUMP JUMPDEST SWAP1 POP PUSH1 0x0 DUP2 GT ISZERO PUSH2 0x1837 JUMPI PUSH2 0x17E4 DUP2 PUSH1 0x4 SLOAD PUSH2 0x3D56 SWAP1 SWAP2 SWAP1 PUSH4 0xFFFFFFFF AND JUMP JUMPDEST PUSH1 0x4 DUP2 SWAP1 SSTORE POP PUSH32 0x7CB5D45C1071F219BD2DA1EA101758715BD52F23F2A707F2D9A0387DEA18D906 DUP2 PUSH1 0x40 MLOAD DUP1 DUP3 DUP2 MSTORE PUSH1 0x20 ADD SWAP2 POP POP PUSH1 0x40 MLOAD DUP1 SWAP2 SUB SWAP1 LOG1 PUSH2 0x1834 DUP2 DUP5 PUSH2 0x3C3C SWAP1 SWAP2 SWAP1 PUSH4 0xFFFFFFFF AND JUMP JUMPDEST SWAP3 POP JUMPDEST POP POP JUMPDEST PUSH1 0x1 PUSH1 0x0 SWAP1 SLOAD SWAP1 PUSH2 0x100 EXP SWAP1 DIV PUSH20 0xFFFFFFFFFFFFFFFFFFFFFFFFFFFFFFFFFFFFFFFF AND PUSH20 0xFFFFFFFFFFFFFFFFFFFFFFFFFFFFFFFFFFFFFFFF AND PUSH4 0xA9059CBB CALLER DUP4 PUSH1 0x40 MLOAD DUP4 PUSH4 0xFFFFFFFF AND PUSH1 0xE0 SHL DUP2 MSTORE PUSH1 0x4 ADD DUP1 DUP4 PUSH20 0xFFFFFFFFFFFFFFFFFFFFFFFFFFFFFFFFFFFFFFFF AND PUSH20 0xFFFFFFFFFFFFFFFFFFFFFFFFFFFFFFFFFFFFFFFF AND DUP2 MSTORE PUSH1 0x20 ADD DUP3 DUP2 MSTORE PUSH1 0x20 ADD SWAP3 POP POP POP PUSH1 0x20 PUSH1 0x40 MLOAD DUP1 DUP4 SUB DUP2 PUSH1 0x0 DUP8 DUP1 EXTCODESIZE ISZERO DUP1 ISZERO PUSH2 0x18E3 JUMPI PUSH1 0x0 DUP1 REVERT JUMPDEST POP GAS CALL ISZERO DUP1 ISZERO PUSH2 0x18F7 JUMPI RETURNDATASIZE PUSH1 0x0 DUP1 RETURNDATACOPY RETURNDATASIZE PUSH1 0x0 REVERT JUMPDEST POP POP POP POP PUSH1 0x40 MLOAD RETURNDATASIZE PUSH1 0x20 DUP2 LT ISZERO PUSH2 0x190D JUMPI PUSH1 0x0 DUP1 REVERT JUMPDEST DUP2 ADD SWAP1 DUP1 DUP1 MLOAD SWAP1 PUSH1 0x20 ADD SWAP1 SWAP3 SWAP2 SWAP1 POP POP POP POP DUP8 DUP10 PUSH20 0xFFFFFFFFFFFFFFFFFFFFFFFFFFFFFFFFFFFFFFFF AND PUSH32 0xA1C568EF1602BC58C1E32EA2F1251B87874DCE947F5D4F4DF53677D06D5BF56D DUP6 DUP5 CALLER PUSH1 0x40 MLOAD DUP1 DUP5 DUP2 MSTORE PUSH1 0x20 ADD DUP4 DUP2 MSTORE PUSH1 0x20 ADD DUP3 PUSH20 0xFFFFFFFFFFFFFFFFFFFFFFFFFFFFFFFFFFFFFFFF AND PUSH20 0xFFFFFFFFFFFFFFFFFFFFFFFFFFFFFFFFFFFFFFFF AND DUP2 MSTORE PUSH1 0x20 ADD SWAP4 POP POP POP POP PUSH1 0x40 MLOAD DUP1 SWAP2 SUB SWAP1 LOG3 POP POP POP POP POP POP POP POP POP JUMP JUMPDEST PUSH1 0x1 PUSH1 0x0 SWAP1 SLOAD SWAP1 PUSH2 0x100 EXP SWAP1 DIV PUSH20 0xFFFFFFFFFFFFFFFFFFFFFFFFFFFFFFFFFFFFFFFF AND PUSH20 0xFFFFFFFFFFFFFFFFFFFFFFFFFFFFFFFFFFFFFFFF AND PUSH4 0x23B872DD CALLER ADDRESS DUP5 PUSH1 0x40 MLOAD DUP5 PUSH4 0xFFFFFFFF AND PUSH1 0xE0 SHL DUP2 MSTORE PUSH1 0x4 ADD DUP1 DUP5 PUSH20 0xFFFFFFFFFFFFFFFFFFFFFFFFFFFFFFFFFFFFFFFF AND PUSH20 0xFFFFFFFFFFFFFFFFFFFFFFFFFFFFFFFFFFFFFFFF AND DUP2 MSTORE PUSH1 0x20 ADD DUP4 PUSH20 0xFFFFFFFFFFFFFFFFFFFFFFFFFFFFFFFFFFFFFFFF AND PUSH20 0xFFFFFFFFFFFFFFFFFFFFFFFFFFFFFFFFFFFFFFFF AND DUP2 MSTORE PUSH1 0x20 ADD DUP3 DUP2 MSTORE PUSH1 0x20 ADD SWAP4 POP POP POP POP PUSH1 0x20 PUSH1 0x40 MLOAD DUP1 DUP4 SUB DUP2 PUSH1 0x0 DUP8 DUP1 EXTCODESIZE ISZERO DUP1 ISZERO PUSH2 0x1A92 JUMPI PUSH1 0x0 DUP1 REVERT JUMPDEST POP GAS CALL ISZERO DUP1 ISZERO PUSH2 0x1AA6 JUMPI RETURNDATASIZE PUSH1 0x0 DUP1 RETURNDATACOPY RETURNDATASIZE PUSH1 0x0 REVERT JUMPDEST POP POP POP POP PUSH1 0x40 MLOAD RETURNDATASIZE PUSH1 0x20 DUP2 LT ISZERO PUSH2 0x1ABC JUMPI PUSH1 0x0 DUP1 REVERT JUMPDEST DUP2 ADD SWAP1 DUP1 DUP1 MLOAD SWAP1 PUSH1 0x20 ADD SWAP1 SWAP3 SWAP2 SWAP1 POP POP POP PUSH2 0x1AD6 JUMPI PUSH1 0x0 DUP1 REVERT JUMPDEST PUSH2 0x1B28 DUP2 PUSH1 0x7 PUSH1 0x0 CALLER PUSH20 0xFFFFFFFFFFFFFFFFFFFFFFFFFFFFFFFFFFFFFFFF AND PUSH20 0xFFFFFFFFFFFFFFFFFFFFFFFFFFFFFFFFFFFFFFFF AND DUP2 MSTORE PUSH1 0x20 ADD SWAP1 DUP2 MSTORE PUSH1 0x20 ADD PUSH1 0x0 KECCAK256 SLOAD PUSH2 0x3D56 SWAP1 SWAP2 SWAP1 PUSH4 0xFFFFFFFF AND JUMP JUMPDEST PUSH1 0x7 PUSH1 0x0 CALLER PUSH20 0xFFFFFFFFFFFFFFFFFFFFFFFFFFFFFFFFFFFFFFFF AND PUSH20 0xFFFFFFFFFFFFFFFFFFFFFFFFFFFFFFFFFFFFFFFF AND DUP2 MSTORE PUSH1 0x20 ADD SWAP1 DUP2 MSTORE PUSH1 0x20 ADD PUSH1 0x0 KECCAK256 DUP2 SWAP1 SSTORE POP POP JUMP JUMPDEST PUSH1 0x0 DUP1 SWAP1 SLOAD SWAP1 PUSH2 0x100 EXP SWAP1 DIV PUSH20 0xFFFFFFFFFFFFFFFFFFFFFFFFFFFFFFFFFFFFFFFF AND PUSH20 0xFFFFFFFFFFFFFFFFFFFFFFFFFFFFFFFFFFFFFFFF AND CALLER PUSH20 0xFFFFFFFFFFFFFFFFFFFFFFFFFFFFFFFFFFFFFFFF AND EQ PUSH2 0x1C30 JUMPI PUSH1 0x40 MLOAD PUSH32 0x8C379A000000000000000000000000000000000000000000000000000000000 DUP2 MSTORE PUSH1 0x4 ADD DUP1 DUP1 PUSH1 0x20 ADD DUP3 DUP2 SUB DUP3 MSTORE PUSH1 0x16 DUP2 MSTORE PUSH1 0x20 ADD DUP1 PUSH32 0x6F6E6C79206465706C6F7965722063616E2063616C6C00000000000000000000 DUP2 MSTORE POP PUSH1 0x20 ADD SWAP2 POP POP PUSH1 0x40 MLOAD DUP1 SWAP2 SUB SWAP1 REVERT JUMPDEST PUSH1 0x5 PUSH1 0x40 MLOAD DUP1 PUSH2 0x100 ADD PUSH1 0x40 MSTORE DUP1 PUSH1 0x1 ISZERO ISZERO DUP2 MSTORE PUSH1 0x20 ADD DUP10 DUP2 MSTORE PUSH1 0x20 ADD DUP9 DUP2 MSTORE PUSH1 0x20 ADD DUP8 DUP2 MSTORE PUSH1 0x20 ADD DUP7 DUP2 MSTORE PUSH1 0x20 ADD DUP6 DUP2 MSTORE PUSH1 0x20 ADD DUP5 DUP2 MSTORE PUSH1 0x20 ADD DUP4 DUP2 MSTORE POP SWAP1 DUP1 PUSH1 0x1 DUP2 SLOAD ADD DUP1 DUP3 SSTORE DUP1 SWAP2 POP POP SWAP1 PUSH1 0x1 DUP3 SUB SWAP1 PUSH1 0x0 MSTORE PUSH1 0x20 PUSH1 0x0 KECCAK256 SWAP1 PUSH1 0x8 MUL ADD PUSH1 0x0 SWAP1 SWAP2 SWAP3 SWAP1 SWAP2 SWAP1 SWAP2 POP PUSH1 0x0 DUP3 ADD MLOAD DUP2 PUSH1 0x0 ADD PUSH1 0x0 PUSH2 0x100 EXP DUP2 SLOAD DUP2 PUSH1 0xFF MUL NOT AND SWAP1 DUP4 ISZERO ISZERO MUL OR SWAP1 SSTORE POP PUSH1 0x20 DUP3 ADD MLOAD DUP2 PUSH1 0x1 ADD SSTORE PUSH1 0x40 DUP3 ADD MLOAD DUP2 PUSH1 0x2 ADD SSTORE PUSH1 0x60 DUP3 ADD MLOAD DUP2 PUSH1 0x3 ADD SSTORE PUSH1 0x80 DUP3 ADD MLOAD DUP2 PUSH1 0x4 ADD SSTORE PUSH1 0xA0 DUP3 ADD MLOAD DUP2 PUSH1 0x5 ADD SSTORE PUSH1 0xC0 DUP3 ADD MLOAD DUP2 PUSH1 0x6 ADD SSTORE PUSH1 0xE0 DUP3 ADD MLOAD DUP2 PUSH1 0x7 ADD SSTORE POP POP POP POP POP POP POP POP POP POP JUMP JUMPDEST PUSH1 0x0 PUSH1 0x6 PUSH1 0x0 DUP6 PUSH20 0xFFFFFFFFFFFFFFFFFFFFFFFFFFFFFFFFFFFFFFFF AND PUSH20 0xFFFFFFFFFFFFFFFFFFFFFFFFFFFFFFFFFFFFFFFF AND DUP2 MSTORE PUSH1 0x20 ADD SWAP1 DUP2 MSTORE PUSH1 0x20 ADD PUSH1 0x0 KECCAK256 DUP4 DUP2 SLOAD DUP2 LT PUSH2 0x1D58 JUMPI INVALID JUMPDEST SWAP1 PUSH1 0x0 MSTORE PUSH1 0x20 PUSH1 0x0 KECCAK256 SWAP1 PUSH1 0xC MUL ADD PUSH1 0xA ADD PUSH1 0x0 DUP4 PUSH20 0xFFFFFFFFFFFFFFFFFFFFFFFFFFFFFFFFFFFFFFFF AND PUSH20 0xFFFFFFFFFFFFFFFFFFFFFFFFFFFFFFFFFFFFFFFF AND DUP2 MSTORE PUSH1 0x20 ADD SWAP1 DUP2 MSTORE PUSH1 0x20 ADD PUSH1 0x0 KECCAK256 PUSH1 0x0 SWAP1 SLOAD SWAP1 PUSH2 0x100 EXP SWAP1 DIV PUSH1 0xFF AND SWAP1 POP SWAP4 SWAP3 POP POP POP JUMP JUMPDEST PUSH1 0x0 DUP1 SWAP1 POP JUMPDEST DUP3 MLOAD DUP2 LT ISZERO PUSH2 0x1F4F JUMPI PUSH2 0x1E31 DUP3 DUP3 DUP2 MLOAD DUP2 LT PUSH2 0x1DDB JUMPI INVALID JUMPDEST PUSH1 0x20 MUL PUSH1 0x20 ADD ADD MLOAD PUSH1 0x7 PUSH1 0x0 CALLER PUSH20 0xFFFFFFFFFFFFFFFFFFFFFFFFFFFFFFFFFFFFFFFF AND PUSH20 0xFFFFFFFFFFFFFFFFFFFFFFFFFFFFFFFFFFFFFFFF AND DUP2 MSTORE PUSH1 0x20 ADD SWAP1 DUP2 MSTORE PUSH1 0x20 ADD PUSH1 0x0 KECCAK256 SLOAD PUSH2 0x3C3C SWAP1 SWAP2 SWAP1 PUSH4 0xFFFFFFFF AND JUMP JUMPDEST PUSH1 0x7 PUSH1 0x0 CALLER PUSH20 0xFFFFFFFFFFFFFFFFFFFFFFFFFFFFFFFFFFFFFFFF AND PUSH20 0xFFFFFFFFFFFFFFFFFFFFFFFFFFFFFFFFFFFFFFFF AND DUP2 MSTORE PUSH1 0x20 ADD SWAP1 DUP2 MSTORE PUSH1 0x20 ADD PUSH1 0x0 KECCAK256 DUP2 SWAP1 SSTORE POP PUSH2 0x1EEC DUP3 DUP3 DUP2 MLOAD DUP2 LT PUSH2 0x1E83 JUMPI INVALID JUMPDEST PUSH1 0x20 MUL PUSH1 0x20 ADD ADD MLOAD PUSH1 0x7 PUSH1 0x0 DUP7 DUP6 DUP2 MLOAD DUP2 LT PUSH2 0x1E9B JUMPI INVALID JUMPDEST PUSH1 0x20 MUL PUSH1 0x20 ADD ADD MLOAD PUSH20 0xFFFFFFFFFFFFFFFFFFFFFFFFFFFFFFFFFFFFFFFF AND PUSH20 0xFFFFFFFFFFFFFFFFFFFFFFFFFFFFFFFFFFFFFFFF AND DUP2 MSTORE PUSH1 0x20 ADD SWAP1 DUP2 MSTORE PUSH1 0x20 ADD PUSH1 0x0 KECCAK256 SLOAD PUSH2 0x3D56 SWAP1 SWAP2 SWAP1 PUSH4 0xFFFFFFFF AND JUMP JUMPDEST PUSH1 0x7 PUSH1 0x0 DUP6 DUP5 DUP2 MLOAD DUP2 LT PUSH2 0x1EFC JUMPI INVALID JUMPDEST PUSH1 0x20 MUL PUSH1 0x20 ADD ADD MLOAD PUSH20 0xFFFFFFFFFFFFFFFFFFFFFFFFFFFFFFFFFFFFFFFF AND PUSH20 0xFFFFFFFFFFFFFFFFFFFFFFFFFFFFFFFFFFFFFFFF AND DUP2 MSTORE PUSH1 0x20 ADD SWAP1 DUP2 MSTORE PUSH1 0x20 ADD PUSH1 0x0 KECCAK256 DUP2 SWAP1 SSTORE POP DUP1 DUP1 PUSH1 0x1 ADD SWAP2 POP POP PUSH2 0x1DC3 JUMP JUMPDEST POP POP POP JUMP JUMPDEST PUSH1 0x0 DUP1 SWAP1 SLOAD SWAP1 PUSH2 0x100 EXP SWAP1 DIV PUSH20 0xFFFFFFFFFFFFFFFFFFFFFFFFFFFFFFFFFFFFFFFF AND PUSH20 0xFFFFFFFFFFFFFFFFFFFFFFFFFFFFFFFFFFFFFFFF AND CALLER PUSH20 0xFFFFFFFFFFFFFFFFFFFFFFFFFFFFFFFFFFFFFFFF AND EQ PUSH2 0x2016 JUMPI PUSH1 0x40 MLOAD PUSH32 0x8C379A000000000000000000000000000000000000000000000000000000000 DUP2 MSTORE PUSH1 0x4 ADD DUP1 DUP1 PUSH1 0x20 ADD DUP3 DUP2 SUB DUP3 MSTORE PUSH1 0x16 DUP2 MSTORE PUSH1 0x20 ADD DUP1 PUSH32 0x6F6E6C79206465706C6F7965722063616E2063616C6C00000000000000000000 DUP2 MSTORE POP PUSH1 0x20 ADD SWAP2 POP POP PUSH1 0x40 MLOAD DUP1 SWAP2 SUB SWAP1 REVERT JUMPDEST DUP1 PUSH1 0x5 DUP4 DUP2 SLOAD DUP2 LT PUSH2 0x2024 JUMPI INVALID JUMPDEST SWAP1 PUSH1 0x0 MSTORE PUSH1 0x20 PUSH1 0x0 KECCAK256 SWAP1 PUSH1 0x8 MUL ADD PUSH1 0x0 ADD PUSH1 0x0 PUSH2 0x100 EXP DUP2 SLOAD DUP2 PUSH1 0xFF MUL NOT AND SWAP1 DUP4 ISZERO ISZERO MUL OR SWAP1 SSTORE POP POP POP JUMP JUMPDEST PUSH1 0x0 PUSH1 0x6 PUSH1 0x0 DUP6 PUSH20 0xFFFFFFFFFFFFFFFFFFFFFFFFFFFFFFFFFFFFFFFF AND PUSH20 0xFFFFFFFFFFFFFFFFFFFFFFFFFFFFFFFFFFFFFFFF AND DUP2 MSTORE PUSH1 0x20 ADD SWAP1 DUP2 MSTORE PUSH1 0x20 ADD PUSH1 0x0 KECCAK256 DUP4 DUP2 SLOAD DUP2 LT PUSH2 0x209C JUMPI INVALID JUMPDEST SWAP1 PUSH1 0x0 MSTORE PUSH1 0x20 PUSH1 0x0 KECCAK256 SWAP1 PUSH1 0xC MUL ADD PUSH1 0xB ADD PUSH1 0x0 DUP4 PUSH20 0xFFFFFFFFFFFFFFFFFFFFFFFFFFFFFFFFFFFFFFFF AND PUSH20 0xFFFFFFFFFFFFFFFFFFFFFFFFFFFFFFFFFFFFFFFF AND DUP2 MSTORE PUSH1 0x20 ADD SWAP1 DUP2 MSTORE PUSH1 0x20 ADD PUSH1 0x0 KECCAK256 PUSH1 0x0 SWAP1 SLOAD SWAP1 PUSH2 0x100 EXP SWAP1 DIV PUSH1 0xFF AND SWAP1 POP SWAP4 SWAP3 POP POP POP JUMP JUMPDEST PUSH1 0x0 DUP1 SWAP1 SLOAD SWAP1 PUSH2 0x100 EXP SWAP1 DIV PUSH20 0xFFFFFFFFFFFFFFFFFFFFFFFFFFFFFFFFFFFFFFFF AND DUP2 JUMP JUMPDEST PUSH1 0x0 DUP1 PUSH1 0x6 PUSH1 0x0 DUP7 PUSH20 0xFFFFFFFFFFFFFFFFFFFFFFFFFFFFFFFFFFFFFFFF AND PUSH20 0xFFFFFFFFFFFFFFFFFFFFFFFFFFFFFFFFFFFFFFFF AND DUP2 MSTORE PUSH1 0x20 ADD SWAP1 DUP2 MSTORE PUSH1 0x20 ADD PUSH1 0x0 KECCAK256 DUP5 DUP2 SLOAD DUP2 LT PUSH2 0x2173 JUMPI INVALID JUMPDEST SWAP1 PUSH1 0x0 MSTORE PUSH1 0x20 PUSH1 0x0 KECCAK256 SWAP1 PUSH1 0xC MUL ADD SWAP1 POP PUSH1 0x1 DUP4 LT ISZERO DUP1 ISZERO PUSH2 0x21B6 JUMPI POP PUSH1 0x5 DUP2 PUSH1 0x0 ADD SLOAD DUP2 SLOAD DUP2 LT PUSH2 0x21A0 JUMPI INVALID JUMPDEST SWAP1 PUSH1 0x0 MSTORE PUSH1 0x20 PUSH1 0x0 KECCAK256 SWAP1 PUSH1 0x8 MUL ADD PUSH1 0x2 ADD SLOAD DUP4 GT ISZERO JUMPDEST PUSH2 0x2228 JUMPI PUSH1 0x40 MLOAD PUSH32 0x8C379A000000000000000000000000000000000000000000000000000000000 DUP2 MSTORE PUSH1 0x4 ADD DUP1 DUP1 PUSH1 0x20 ADD DUP3 DUP2 SUB DUP3 MSTORE PUSH1 0x15 DUP2 MSTORE PUSH1 0x20 ADD DUP1 PUSH32 0x696E76616C6964206465706F736974206D6F6E74680000000000000000000000 DUP2 MSTORE POP PUSH1 0x20 ADD SWAP2 POP POP PUSH1 0x40 MLOAD DUP1 SWAP2 SUB SWAP1 REVERT JUMPDEST PUSH1 0x0 PUSH1 0x1 DUP5 SUB PUSH1 0x2 SLOAD MUL DUP3 PUSH1 0x1 ADD SLOAD ADD SWAP1 POP PUSH1 0x2 SLOAD DUP2 SUB TIMESTAMP LT ISZERO PUSH2 0x2251 JUMPI PUSH1 0x0 SWAP3 POP POP POP PUSH2 0x22A0 JUMP JUMPDEST TIMESTAMP DUP2 LT PUSH2 0x2263 JUMPI PUSH1 0x2 SWAP3 POP POP POP PUSH2 0x22A0 JUMP JUMPDEST TIMESTAMP PUSH1 0x5 DUP4 PUSH1 0x0 ADD SLOAD DUP2 SLOAD DUP2 LT PUSH2 0x2275 JUMPI INVALID JUMPDEST SWAP1 PUSH1 0x0 MSTORE PUSH1 0x20 PUSH1 0x0 KECCAK256 SWAP1 PUSH1 0x8 MUL ADD PUSH1 0x4 ADD SLOAD DUP3 ADD LT PUSH2 0x2299 JUMPI PUSH1 0x1 SWAP3 POP POP POP PUSH2 0x22A0 JUMP JUMPDEST PUSH1 0x0 SWAP3 POP POP POP JUMPDEST SWAP4 SWAP3 POP POP POP JUMP JUMPDEST PUSH1 0x0 DUP1 PUSH1 0x6 PUSH1 0x0 DUP8 PUSH20 0xFFFFFFFFFFFFFFFFFFFFFFFFFFFFFFFFFFFFFFFF AND PUSH20 0xFFFFFFFFFFFFFFFFFFFFFFFFFFFFFFFFFFFFFFFF AND DUP2 MSTORE PUSH1 0x20 ADD SWAP1 DUP2 MSTORE PUSH1 0x20 ADD PUSH1 0x0 KECCAK256 DUP6 DUP2 SLOAD DUP2 LT PUSH2 0x22F4 JUMPI INVALID JUMPDEST SWAP1 PUSH1 0x0 MSTORE PUSH1 0x20 PUSH1 0x0 KECCAK256 SWAP1 PUSH1 0xC MUL ADD SWAP1 POP PUSH1 0x0 DUP5 GT DUP1 ISZERO PUSH2 0x2339 JUMPI POP PUSH1 0xC PUSH1 0x5 DUP3 PUSH1 0x0 ADD SLOAD DUP2 SLOAD DUP2 LT PUSH2 0x2322 JUMPI INVALID JUMPDEST SWAP1 PUSH1 0x0 MSTORE PUSH1 0x20 PUSH1 0x0 KECCAK256 SWAP1 PUSH1 0x8 MUL ADD PUSH1 0x3 ADD SLOAD MUL DUP5 GT ISZERO JUMPDEST PUSH2 0x23AB JUMPI PUSH1 0x40 MLOAD PUSH32 0x8C379A000000000000000000000000000000000000000000000000000000000 DUP2 MSTORE PUSH1 0x4 ADD DUP1 DUP1 PUSH1 0x20 ADD DUP3 DUP2 SUB DUP3 MSTORE PUSH1 0x16 DUP2 MSTORE PUSH1 0x20 ADD DUP1 PUSH32 0x696E76616C6964207769746864726177206D6F6E746800000000000000000000 DUP2 MSTORE POP PUSH1 0x20 ADD SWAP2 POP POP PUSH1 0x40 MLOAD DUP1 SWAP2 SUB SWAP1 REVERT JUMPDEST DUP1 PUSH1 0x4 ADD SLOAD DUP5 GT PUSH2 0x2424 JUMPI PUSH1 0x40 MLOAD PUSH32 0x8C379A000000000000000000000000000000000000000000000000000000000 DUP2 MSTORE PUSH1 0x4 ADD DUP1 DUP1 PUSH1 0x20 ADD DUP3 DUP2 SUB DUP3 MSTORE PUSH1 0x15 DUP2 MSTORE PUSH1 0x20 ADD DUP1 PUSH32 0x63616E6E6F7420776974686472617720616761696E0000000000000000000000 DUP2 MSTORE POP PUSH1 0x20 ADD SWAP2 POP POP PUSH1 0x40 MLOAD DUP1 SWAP2 SUB SWAP1 REVERT JUMPDEST PUSH1 0x0 PUSH1 0x1 DUP6 PUSH1 0x5 DUP5 PUSH1 0x0 ADD SLOAD DUP2 SLOAD DUP2 LT PUSH2 0x243A JUMPI INVALID JUMPDEST SWAP1 PUSH1 0x0 MSTORE PUSH1 0x20 PUSH1 0x0 KECCAK256 SWAP1 PUSH1 0x8 MUL ADD PUSH1 0x2 ADD SLOAD ADD SUB PUSH1 0x2 SLOAD MUL DUP3 PUSH1 0x1 ADD SLOAD ADD SWAP1 POP DUP4 ISZERO PUSH2 0x249E JUMPI PUSH2 0x2478 PUSH1 0x2 DUP4 PUSH1 0x6 ADD SLOAD PUSH2 0x3C86 SWAP1 SWAP2 SWAP1 PUSH4 0xFFFFFFFF AND JUMP JUMPDEST DUP3 PUSH1 0x7 ADD SLOAD GT ISZERO PUSH2 0x2492 JUMPI PUSH1 0x6 PUSH1 0x2 SLOAD MUL DUP2 ADD SWAP1 POP PUSH2 0x249D JUMP JUMPDEST PUSH1 0xC PUSH1 0x2 SLOAD MUL DUP2 ADD SWAP1 POP JUMPDEST JUMPDEST DUP1 TIMESTAMP LT ISZERO PUSH2 0x2514 JUMPI PUSH1 0x40 MLOAD PUSH32 0x8C379A000000000000000000000000000000000000000000000000000000000 DUP2 MSTORE PUSH1 0x4 ADD DUP1 DUP1 PUSH1 0x20 ADD DUP3 DUP2 SUB DUP3 MSTORE PUSH1 0x15 DUP2 MSTORE PUSH1 0x20 ADD DUP1 PUSH32 0x63616E6E6F74207769746864726177206561726C790000000000000000000000 DUP2 MSTORE POP PUSH1 0x20 ADD SWAP2 POP POP PUSH1 0x40 MLOAD DUP1 SWAP2 SUB SWAP1 REVERT JUMPDEST PUSH1 0x0 DUP1 PUSH1 0x1 DUP5 PUSH1 0x4 ADD SLOAD ADD SWAP1 POP JUMPDEST DUP7 DUP2 GT PUSH2 0x25C0 JUMPI PUSH1 0x0 PUSH1 0x5 DUP6 PUSH1 0x0 ADD SLOAD DUP2 SLOAD DUP2 LT PUSH2 0x253C JUMPI INVALID JUMPDEST SWAP1 PUSH1 0x0 MSTORE PUSH1 0x20 PUSH1 0x0 KECCAK256 SWAP1 PUSH1 0x8 MUL ADD PUSH1 0x2 ADD SLOAD DUP3 DUP2 PUSH2 0x2556 JUMPI INVALID JUMPDEST MOD SWAP1 POP PUSH1 0x0 DUP2 EQ ISZERO PUSH2 0x2588 JUMPI PUSH1 0x5 DUP6 PUSH1 0x0 ADD SLOAD DUP2 SLOAD DUP2 LT PUSH2 0x2573 JUMPI INVALID JUMPDEST SWAP1 PUSH1 0x0 MSTORE PUSH1 0x20 PUSH1 0x0 KECCAK256 SWAP1 PUSH1 0x8 MUL ADD PUSH1 0x2 ADD SLOAD SWAP1 POP JUMPDEST PUSH2 0x25B0 DUP6 PUSH1 0x9 ADD PUSH1 0x0 DUP4 DUP2 MSTORE PUSH1 0x20 ADD SWAP1 DUP2 MSTORE PUSH1 0x20 ADD PUSH1 0x0 KECCAK256 SLOAD DUP5 PUSH2 0x3D56 SWAP1 SWAP2 SWAP1 PUSH4 0xFFFFFFFF AND JUMP JUMPDEST SWAP3 POP POP DUP1 DUP1 PUSH1 0x1 ADD SWAP2 POP POP PUSH2 0x2522 JUMP JUMPDEST POP DUP1 SWAP4 POP POP POP POP SWAP5 SWAP4 POP POP POP POP JUMP JUMPDEST PUSH1 0x0 PUSH1 0x6 PUSH1 0x0 DUP5 PUSH20 0xFFFFFFFFFFFFFFFFFFFFFFFFFFFFFFFFFFFFFFFF AND PUSH20 0xFFFFFFFFFFFFFFFFFFFFFFFFFFFFFFFFFFFFFFFF AND DUP2 MSTORE PUSH1 0x20 ADD SWAP1 DUP2 MSTORE PUSH1 0x20 ADD PUSH1 0x0 KECCAK256 DUP3 DUP2 SLOAD DUP2 LT PUSH2 0x261B JUMPI INVALID JUMPDEST SWAP1 PUSH1 0x0 MSTORE PUSH1 0x20 PUSH1 0x0 KECCAK256 SWAP1 PUSH1 0xC MUL ADD SWAP1 POP DUP1 PUSH1 0xB ADD PUSH1 0x0 CALLER PUSH20 0xFFFFFFFFFFFFFFFFFFFFFFFFFFFFFFFFFFFFFFFF AND PUSH20 0xFFFFFFFFFFFFFFFFFFFFFFFFFFFFFFFFFFFFFFFF AND DUP2 MSTORE PUSH1 0x20 ADD SWAP1 DUP2 MSTORE PUSH1 0x20 ADD PUSH1 0x0 KECCAK256 PUSH1 0x0 SWAP1 SLOAD SWAP1 PUSH2 0x100 EXP SWAP1 DIV PUSH1 0xFF AND PUSH2 0x26EC JUMPI PUSH1 0x40 MLOAD PUSH32 0x8C379A000000000000000000000000000000000000000000000000000000000 DUP2 MSTORE PUSH1 0x4 ADD DUP1 DUP1 PUSH1 0x20 ADD DUP3 DUP2 SUB DUP3 MSTORE PUSH1 0x20 DUP2 MSTORE PUSH1 0x20 ADD DUP1 PUSH32 0x73686F756C64206265206170706F696E74656520746F206361737420766F7465 DUP2 MSTORE POP PUSH1 0x20 ADD SWAP2 POP POP PUSH1 0x40 MLOAD DUP1 SWAP2 SUB SWAP1 REVERT JUMPDEST PUSH1 0x0 DUP2 PUSH1 0xB ADD PUSH1 0x0 CALLER PUSH20 0xFFFFFFFFFFFFFFFFFFFFFFFFFFFFFFFFFFFFFFFF AND PUSH20 0xFFFFFFFFFFFFFFFFFFFFFFFFFFFFFFFFFFFFFFFF AND DUP2 MSTORE PUSH1 0x20 ADD SWAP1 DUP2 MSTORE PUSH1 0x20 ADD PUSH1 0x0 KECCAK256 PUSH1 0x0 PUSH2 0x100 EXP DUP2 SLOAD DUP2 PUSH1 0xFF MUL NOT AND SWAP1 DUP4 ISZERO ISZERO MUL OR SWAP1 SSTORE POP PUSH2 0x275E PUSH1 0x1 DUP3 PUSH1 0x7 ADD SLOAD PUSH2 0x3D56 SWAP1 SWAP2 SWAP1 PUSH4 0xFFFFFFFF AND JUMP JUMPDEST DUP2 PUSH1 0x7 ADD DUP2 SWAP1 SSTORE POP CALLER PUSH20 0xFFFFFFFFFFFFFFFFFFFFFFFFFFFFFFFFFFFFFFFF AND DUP3 DUP5 PUSH20 0xFFFFFFFFFFFFFFFFFFFFFFFFFFFFFFFFFFFFFFFF AND PUSH32 0x57E90B4A498A7310FAB91955C915F3F15A0D1A94B296F824DA9443D524EA2E1B PUSH1 0x40 MLOAD PUSH1 0x40 MLOAD DUP1 SWAP2 SUB SWAP1 LOG4 POP POP POP JUMP JUMPDEST PUSH1 0x5 DUP4 DUP2 SLOAD DUP2 LT PUSH2 0x27D3 JUMPI INVALID JUMPDEST SWAP1 PUSH1 0x0 MSTORE PUSH1 0x20 PUSH1 0x0 KECCAK256 SWAP1 PUSH1 0x8 MUL ADD PUSH1 0x0 ADD PUSH1 0x0 SWAP1 SLOAD SWAP1 PUSH2 0x100 EXP SWAP1 DIV PUSH1 0xFF AND PUSH2 0x2864 JUMPI PUSH1 0x40 MLOAD PUSH32 0x8C379A000000000000000000000000000000000000000000000000000000000 DUP2 MSTORE PUSH1 0x4 ADD DUP1 DUP1 PUSH1 0x20 ADD DUP3 DUP2 SUB DUP3 MSTORE PUSH1 0x16 DUP2 MSTORE PUSH1 0x20 ADD DUP1 PUSH32 0x73697020706C616E206973206E6F742061637469766500000000000000000000 DUP2 MSTORE POP PUSH1 0x20 ADD SWAP2 POP POP PUSH1 0x40 MLOAD DUP1 SWAP2 SUB SWAP1 REVERT JUMPDEST PUSH1 0x5 DUP4 DUP2 SLOAD DUP2 LT PUSH2 0x2871 JUMPI INVALID JUMPDEST SWAP1 PUSH1 0x0 MSTORE PUSH1 0x20 PUSH1 0x0 KECCAK256 SWAP1 PUSH1 0x8 MUL ADD PUSH1 0x1 ADD SLOAD DUP3 LT ISZERO PUSH2 0x28F8 JUMPI PUSH1 0x40 MLOAD PUSH32 0x8C379A000000000000000000000000000000000000000000000000000000000 DUP2 MSTORE PUSH1 0x4 ADD DUP1 DUP1 PUSH1 0x20 ADD DUP3 DUP2 SUB DUP3 MSTORE PUSH1 0x20 DUP2 MSTORE PUSH1 0x20 ADD DUP1 PUSH32 0x616D6F756E742073686F756C642062652061746C65617374206D696E696D756D DUP2 MSTORE POP PUSH1 0x20 ADD SWAP2 POP POP PUSH1 0x40 MLOAD DUP1 SWAP2 SUB SWAP1 REVERT JUMPDEST PUSH1 0x0 PUSH2 0x293F PUSH2 0x3E8 PUSH2 0x2931 PUSH1 0x5 DUP8 DUP2 SLOAD DUP2 LT PUSH2 0x2910 JUMPI INVALID JUMPDEST SWAP1 PUSH1 0x0 MSTORE PUSH1 0x20 PUSH1 0x0 KECCAK256 SWAP1 PUSH1 0x8 MUL ADD PUSH1 0x5 ADD SLOAD DUP7 PUSH2 0x3CD0 SWAP1 SWAP2 SWAP1 PUSH4 0xFFFFFFFF AND JUMP JUMPDEST PUSH2 0x3C86 SWAP1 SWAP2 SWAP1 PUSH4 0xFFFFFFFF AND JUMP JUMPDEST SWAP1 POP PUSH1 0x0 PUSH2 0x2974 PUSH1 0x5 DUP7 DUP2 SLOAD DUP2 LT PUSH2 0x2953 JUMPI INVALID JUMPDEST SWAP1 PUSH1 0x0 MSTORE PUSH1 0x20 PUSH1 0x0 KECCAK256 SWAP1 PUSH1 0x8 MUL ADD PUSH1 0x3 ADD SLOAD DUP4 PUSH2 0x3CD0 SWAP1 SWAP2 SWAP1 PUSH4 0xFFFFFFFF AND JUMP JUMPDEST SWAP1 POP PUSH2 0x298B PUSH1 0x3 SLOAD DUP3 PUSH2 0x3D56 SWAP1 SWAP2 SWAP1 PUSH4 0xFFFFFFFF AND JUMP JUMPDEST PUSH1 0x4 SLOAD LT ISZERO PUSH2 0x29E5 JUMPI PUSH1 0x40 MLOAD PUSH32 0x8C379A000000000000000000000000000000000000000000000000000000000 DUP2 MSTORE PUSH1 0x4 ADD DUP1 DUP1 PUSH1 0x20 ADD DUP3 DUP2 SUB DUP3 MSTORE PUSH1 0x35 DUP2 MSTORE PUSH1 0x20 ADD DUP1 PUSH2 0x3FA9 PUSH1 0x35 SWAP2 CODECOPY PUSH1 0x40 ADD SWAP2 POP POP PUSH1 0x40 MLOAD DUP1 SWAP2 SUB SWAP1 REVERT JUMPDEST DUP3 ISZERO PUSH2 0x2A85 JUMPI PUSH2 0x2A3D DUP5 PUSH1 0x7 PUSH1 0x0 CALLER PUSH20 0xFFFFFFFFFFFFFFFFFFFFFFFFFFFFFFFFFFFFFFFF AND PUSH20 0xFFFFFFFFFFFFFFFFFFFFFFFFFFFFFFFFFFFFFFFF AND DUP2 MSTORE PUSH1 0x20 ADD SWAP1 DUP2 MSTORE PUSH1 0x20 ADD PUSH1 0x0 KECCAK256 SLOAD PUSH2 0x3C3C SWAP1 SWAP2 SWAP1 PUSH4 0xFFFFFFFF AND JUMP JUMPDEST PUSH1 0x7 PUSH1 0x0 CALLER PUSH20 0xFFFFFFFFFFFFFFFFFFFFFFFFFFFFFFFFFFFFFFFF AND PUSH20 0xFFFFFFFFFFFFFFFFFFFFFFFFFFFFFFFFFFFFFFFF AND DUP2 MSTORE PUSH1 0x20 ADD SWAP1 DUP2 MSTORE PUSH1 0x20 ADD PUSH1 0x0 KECCAK256 DUP2 SWAP1 SSTORE POP PUSH2 0x2BA7 JUMP JUMPDEST PUSH1 0x1 PUSH1 0x0 SWAP1 SLOAD SWAP1 PUSH2 0x100 EXP SWAP1 DIV PUSH20 0xFFFFFFFFFFFFFFFFFFFFFFFFFFFFFFFFFFFFFFFF AND PUSH20 0xFFFFFFFFFFFFFFFFFFFFFFFFFFFFFFFFFFFFFFFF AND PUSH4 0x23B872DD CALLER ADDRESS DUP8 PUSH1 0x40 MLOAD DUP5 PUSH4 0xFFFFFFFF AND PUSH1 0xE0 SHL DUP2 MSTORE PUSH1 0x4 ADD DUP1 DUP5 PUSH20 0xFFFFFFFFFFFFFFFFFFFFFFFFFFFFFFFFFFFFFFFF AND PUSH20 0xFFFFFFFFFFFFFFFFFFFFFFFFFFFFFFFFFFFFFFFF AND DUP2 MSTORE PUSH1 0x20 ADD DUP4 PUSH20 0xFFFFFFFFFFFFFFFFFFFFFFFFFFFFFFFFFFFFFFFF AND PUSH20 0xFFFFFFFFFFFFFFFFFFFFFFFFFFFFFFFFFFFFFFFF AND DUP2 MSTORE PUSH1 0x20 ADD DUP3 DUP2 MSTORE PUSH1 0x20 ADD SWAP4 POP POP POP POP PUSH1 0x20 PUSH1 0x40 MLOAD DUP1 DUP4 SUB DUP2 PUSH1 0x0 DUP8 DUP1 EXTCODESIZE ISZERO DUP1 ISZERO PUSH2 0x2B62 JUMPI PUSH1 0x0 DUP1 REVERT JUMPDEST POP GAS CALL ISZERO DUP1 ISZERO PUSH2 0x2B76 JUMPI RETURNDATASIZE PUSH1 0x0 DUP1 RETURNDATACOPY RETURNDATASIZE PUSH1 0x0 REVERT JUMPDEST POP POP POP POP PUSH1 0x40 MLOAD RETURNDATASIZE PUSH1 0x20 DUP2 LT ISZERO PUSH2 0x2B8C JUMPI PUSH1 0x0 DUP1 REVERT JUMPDEST DUP2 ADD SWAP1 DUP1 DUP1 MLOAD SWAP1 PUSH1 0x20 ADD SWAP1 SWAP3 SWAP2 SWAP1 POP POP POP PUSH2 0x2BA6 JUMPI PUSH1 0x0 DUP1 REVERT JUMPDEST JUMPDEST PUSH1 0x6 PUSH1 0x0 CALLER PUSH20 0xFFFFFFFFFFFFFFFFFFFFFFFFFFFFFFFFFFFFFFFF AND PUSH20 0xFFFFFFFFFFFFFFFFFFFFFFFFFFFFFFFFFFFFFFFF AND DUP2 MSTORE PUSH1 0x20 ADD SWAP1 DUP2 MSTORE PUSH1 0x20 ADD PUSH1 0x0 KECCAK256 PUSH1 0x40 MLOAD DUP1 PUSH2 0x100 ADD PUSH1 0x40 MSTORE DUP1 DUP8 DUP2 MSTORE PUSH1 0x20 ADD TIMESTAMP DUP2 MSTORE PUSH1 0x20 ADD DUP7 DUP2 MSTORE PUSH1 0x20 ADD DUP7 DUP2 MSTORE PUSH1 0x20 ADD PUSH1 0x0 DUP2 MSTORE PUSH1 0x20 ADD PUSH1 0x0 DUP2 MSTORE PUSH1 0x20 ADD PUSH1 0x0 DUP2 MSTORE PUSH1 0x20 ADD PUSH1 0x0 DUP2 MSTORE POP SWAP1 DUP1 PUSH1 0x1 DUP2 SLOAD ADD DUP1 DUP3 SSTORE DUP1 SWAP2 POP POP SWAP1 PUSH1 0x1 DUP3 SUB SWAP1 PUSH1 0x0 MSTORE PUSH1 0x20 PUSH1 0x0 KECCAK256 SWAP1 PUSH1 0xC MUL ADD PUSH1 0x0 SWAP1 SWAP2 SWAP3 SWAP1 SWAP2 SWAP1 SWAP2 POP PUSH1 0x0 DUP3 ADD MLOAD DUP2 PUSH1 0x0 ADD SSTORE PUSH1 0x20 DUP3 ADD MLOAD DUP2 PUSH1 0x1 ADD SSTORE PUSH1 0x40 DUP3 ADD MLOAD DUP2 PUSH1 0x2 ADD SSTORE PUSH1 0x60 DUP3 ADD MLOAD DUP2 PUSH1 0x3 ADD SSTORE PUSH1 0x80 DUP3 ADD MLOAD DUP2 PUSH1 0x4 ADD SSTORE PUSH1 0xA0 DUP3 ADD MLOAD DUP2 PUSH1 0x5 ADD SSTORE PUSH1 0xC0 DUP3 ADD MLOAD DUP2 PUSH1 0x6 ADD SSTORE PUSH1 0xE0 DUP3 ADD MLOAD DUP2 PUSH1 0x7 ADD SSTORE POP POP POP PUSH1 0x0 PUSH1 0x1 PUSH1 0x6 PUSH1 0x0 CALLER PUSH20 0xFFFFFFFFFFFFFFFFFFFFFFFFFFFFFFFFFFFFFFFF AND PUSH20 0xFFFFFFFFFFFFFFFFFFFFFFFFFFFFFFFFFFFFFFFF AND DUP2 MSTORE PUSH1 0x20 ADD SWAP1 DUP2 MSTORE PUSH1 0x20 ADD PUSH1 0x0 KECCAK256 DUP1 SLOAD SWAP1 POP SUB SWAP1 POP PUSH1 0x2 PUSH1 0x6 PUSH1 0x0 CALLER PUSH20 0xFFFFFFFFFFFFFFFFFFFFFFFFFFFFFFFFFFFFFFFF AND PUSH20 0xFFFFFFFFFFFFFFFFFFFFFFFFFFFFFFFFFFFFFFFF AND DUP2 MSTORE PUSH1 0x20 ADD SWAP1 DUP2 MSTORE PUSH1 0x20 ADD PUSH1 0x0 KECCAK256 DUP3 DUP2 SLOAD DUP2 LT PUSH2 0x2D38 JUMPI INVALID JUMPDEST SWAP1 PUSH1 0x0 MSTORE PUSH1 0x20 PUSH1 0x0 KECCAK256 SWAP1 PUSH1 0xC MUL ADD PUSH1 0x8 ADD PUSH1 0x0 PUSH1 0x1 DUP2 MSTORE PUSH1 0x20 ADD SWAP1 DUP2 MSTORE PUSH1 0x20 ADD PUSH1 0x0 KECCAK256 DUP2 SWAP1 SSTORE POP DUP3 PUSH1 0x6 PUSH1 0x0 CALLER PUSH20 0xFFFFFFFFFFFFFFFFFFFFFFFFFFFFFFFFFFFFFFFF AND PUSH20 0xFFFFFFFFFFFFFFFFFFFFFFFFFFFFFFFFFFFFFFFF AND DUP2 MSTORE PUSH1 0x20 ADD SWAP1 DUP2 MSTORE PUSH1 0x20 ADD PUSH1 0x0 KECCAK256 DUP3 DUP2 SLOAD DUP2 LT PUSH2 0x2DAA JUMPI INVALID JUMPDEST SWAP1 PUSH1 0x0 MSTORE PUSH1 0x20 PUSH1 0x0 KECCAK256 SWAP1 PUSH1 0xC MUL ADD PUSH1 0x9 ADD PUSH1 0x0 PUSH1 0x1 DUP2 MSTORE PUSH1 0x20 ADD SWAP1 DUP2 MSTORE PUSH1 0x20 ADD PUSH1 0x0 KECCAK256 DUP2 SWAP1 SSTORE POP PUSH2 0x2DE6 DUP3 PUSH1 0x3 SLOAD PUSH2 0x3D56 SWAP1 SWAP2 SWAP1 PUSH4 0xFFFFFFFF AND JUMP JUMPDEST PUSH1 0x3 DUP2 SWAP1 SSTORE POP CALLER PUSH20 0xFFFFFFFFFFFFFFFFFFFFFFFFFFFFFFFFFFFFFFFF AND PUSH32 0x1DEC97FC36AA6DFA81B208EC37B3AC8DAE30717F0622F9CFB2E7223DC95326EC PUSH1 0x1 PUSH1 0x6 PUSH1 0x0 CALLER PUSH20 0xFFFFFFFFFFFFFFFFFFFFFFFFFFFFFFFFFFFFFFFF AND PUSH20 0xFFFFFFFFFFFFFFFFFFFFFFFFFFFFFFFFFFFFFFFF AND DUP2 MSTORE PUSH1 0x20 ADD SWAP1 DUP2 MSTORE PUSH1 0x20 ADD PUSH1 0x0 KECCAK256 DUP1 SLOAD SWAP1 POP SUB DUP8 PUSH1 0x40 MLOAD DUP1 DUP4 DUP2 MSTORE PUSH1 0x20 ADD DUP3 DUP2 MSTORE PUSH1 0x20 ADD SWAP3 POP POP POP PUSH1 0x40 MLOAD DUP1 SWAP2 SUB SWAP1 LOG2 DUP1 CALLER PUSH20 0xFFFFFFFFFFFFFFFFFFFFFFFFFFFFFFFFFFFFFFFF AND PUSH32 0xBAF4C88598102708C4215D5D3767268130627355850B7ECE9BDFDC32FD2941F0 PUSH1 0x1 DUP9 DUP7 CALLER PUSH1 0x40 MLOAD DUP1 DUP6 DUP2 MSTORE PUSH1 0x20 ADD DUP5 DUP2 MSTORE PUSH1 0x20 ADD DUP4 DUP2 MSTORE PUSH1 0x20 ADD DUP3 PUSH20 0xFFFFFFFFFFFFFFFFFFFFFFFFFFFFFFFFFFFFFFFF AND PUSH20 0xFFFFFFFFFFFFFFFFFFFFFFFFFFFFFFFFFFFFFFFF AND DUP2 MSTORE PUSH1 0x20 ADD SWAP5 POP POP POP POP POP PUSH1 0x40 MLOAD DUP1 SWAP2 SUB SWAP1 LOG3 POP POP POP POP POP POP JUMP JUMPDEST PUSH1 0x0 PUSH1 0x6 PUSH1 0x0 DUP6 PUSH20 0xFFFFFFFFFFFFFFFFFFFFFFFFFFFFFFFFFFFFFFFF AND PUSH20 0xFFFFFFFFFFFFFFFFFFFFFFFFFFFFFFFFFFFFFFFF AND DUP2 MSTORE PUSH1 0x20 ADD SWAP1 DUP2 MSTORE PUSH1 0x20 ADD PUSH1 0x0 KECCAK256 DUP4 DUP2 SLOAD DUP2 LT PUSH2 0x2F6F JUMPI INVALID JUMPDEST SWAP1 PUSH1 0x0 MSTORE PUSH1 0x20 PUSH1 0x0 KECCAK256 SWAP1 PUSH1 0xC MUL ADD PUSH1 0x9 ADD PUSH1 0x0 DUP4 DUP2 MSTORE PUSH1 0x20 ADD SWAP1 DUP2 MSTORE PUSH1 0x20 ADD PUSH1 0x0 KECCAK256 SLOAD SWAP1 POP SWAP4 SWAP3 POP POP POP JUMP JUMPDEST PUSH1 0x0 PUSH1 0x6 PUSH1 0x0 CALLER PUSH20 0xFFFFFFFFFFFFFFFFFFFFFFFFFFFFFFFFFFFFFFFF AND PUSH20 0xFFFFFFFFFFFFFFFFFFFFFFFFFFFFFFFFFFFFFFFF AND DUP2 MSTORE PUSH1 0x20 ADD SWAP1 DUP2 MSTORE PUSH1 0x20 ADD PUSH1 0x0 KECCAK256 DUP5 DUP2 SLOAD DUP2 LT PUSH2 0x2FE7 JUMPI INVALID JUMPDEST SWAP1 PUSH1 0x0 MSTORE PUSH1 0x20 PUSH1 0x0 KECCAK256 SWAP1 PUSH1 0xC MUL ADD SWAP1 POP DUP1 PUSH1 0xB ADD PUSH1 0x0 DUP5 PUSH20 0xFFFFFFFFFFFFFFFFFFFFFFFFFFFFFFFFFFFFFFFF AND PUSH20 0xFFFFFFFFFFFFFFFFFFFFFFFFFFFFFFFFFFFFFFFF AND DUP2 MSTORE PUSH1 0x20 ADD SWAP1 DUP2 MSTORE PUSH1 0x20 ADD PUSH1 0x0 KECCAK256 PUSH1 0x0 SWAP1 SLOAD SWAP1 PUSH2 0x100 EXP SWAP1 DIV PUSH1 0xFF AND ISZERO DUP1 ISZERO PUSH2 0x3050 JUMPI POP DUP2 JUMPDEST ISZERO PUSH2 0x30D4 JUMPI PUSH2 0x306D PUSH1 0x1 DUP3 PUSH1 0x6 ADD SLOAD PUSH2 0x3D56 SWAP1 SWAP2 SWAP1 PUSH4 0xFFFFFFFF AND JUMP JUMPDEST DUP2 PUSH1 0x6 ADD DUP2 SWAP1 SSTORE POP PUSH1 0x1 DUP2 PUSH1 0xB ADD PUSH1 0x0 DUP6 PUSH20 0xFFFFFFFFFFFFFFFFFFFFFFFFFFFFFFFFFFFFFFFF AND PUSH20 0xFFFFFFFFFFFFFFFFFFFFFFFFFFFFFFFFFFFFFFFF AND DUP2 MSTORE PUSH1 0x20 ADD SWAP1 DUP2 MSTORE PUSH1 0x20 ADD PUSH1 0x0 KECCAK256 PUSH1 0x0 PUSH2 0x100 EXP DUP2 SLOAD DUP2 PUSH1 0xFF MUL NOT AND SWAP1 DUP4 ISZERO ISZERO MUL OR SWAP1 SSTORE POP PUSH2 0x31AE JUMP JUMPDEST DUP1 PUSH1 0xB ADD PUSH1 0x0 DUP5 PUSH20 0xFFFFFFFFFFFFFFFFFFFFFFFFFFFFFFFFFFFFFFFF AND PUSH20 0xFFFFFFFFFFFFFFFFFFFFFFFFFFFFFFFFFFFFFFFF AND DUP2 MSTORE PUSH1 0x20 ADD SWAP1 DUP2 MSTORE PUSH1 0x20 ADD PUSH1 0x0 KECCAK256 PUSH1 0x0 SWAP1 SLOAD SWAP1 PUSH2 0x100 EXP SWAP1 DIV PUSH1 0xFF AND DUP1 ISZERO PUSH2 0x312D JUMPI POP DUP2 ISZERO JUMPDEST ISZERO PUSH2 0x31AD JUMPI PUSH1 0x0 DUP2 PUSH1 0xB ADD PUSH1 0x0 DUP6 PUSH20 0xFFFFFFFFFFFFFFFFFFFFFFFFFFFFFFFFFFFFFFFF AND PUSH20 0xFFFFFFFFFFFFFFFFFFFFFFFFFFFFFFFFFFFFFFFF AND DUP2 MSTORE PUSH1 0x20 ADD SWAP1 DUP2 MSTORE PUSH1 0x20 ADD PUSH1 0x0 KECCAK256 PUSH1 0x0 PUSH2 0x100 EXP DUP2 SLOAD DUP2 PUSH1 0xFF MUL NOT AND SWAP1 DUP4 ISZERO ISZERO MUL OR SWAP1 SSTORE POP PUSH2 0x31A4 PUSH1 0x1 DUP3 PUSH1 0x6 ADD SLOAD PUSH2 0x3C3C SWAP1 SWAP2 SWAP1 PUSH4 0xFFFFFFFF AND JUMP JUMPDEST DUP2 PUSH1 0x6 ADD DUP2 SWAP1 SSTORE POP JUMPDEST JUMPDEST DUP3 PUSH20 0xFFFFFFFFFFFFFFFFFFFFFFFFFFFFFFFFFFFFFFFF AND DUP5 CALLER PUSH20 0xFFFFFFFFFFFFFFFFFFFFFFFFFFFFFFFFFFFFFFFF AND PUSH32 0xF7A6207B27953EFF117F9B7C03E363D41370A45E2B626D2AA32C6A0AC6365782 DUP6 PUSH1 0x40 MLOAD DUP1 DUP3 ISZERO ISZERO ISZERO ISZERO DUP2 MSTORE PUSH1 0x20 ADD SWAP2 POP POP PUSH1 0x40 MLOAD DUP1 SWAP2 SUB SWAP1 LOG4 POP POP POP POP JUMP JUMPDEST PUSH1 0x1 PUSH1 0x0 SWAP1 SLOAD SWAP1 PUSH2 0x100 EXP SWAP1 DIV PUSH20 0xFFFFFFFFFFFFFFFFFFFFFFFFFFFFFFFFFFFFFFFF AND PUSH20 0xFFFFFFFFFFFFFFFFFFFFFFFFFFFFFFFFFFFFFFFF AND PUSH4 0x23B872DD CALLER ADDRESS DUP5 PUSH1 0x40 MLOAD DUP5 PUSH4 0xFFFFFFFF AND PUSH1 0xE0 SHL DUP2 MSTORE PUSH1 0x4 ADD DUP1 DUP5 PUSH20 0xFFFFFFFFFFFFFFFFFFFFFFFFFFFFFFFFFFFFFFFF AND PUSH20 0xFFFFFFFFFFFFFFFFFFFFFFFFFFFFFFFFFFFFFFFF AND DUP2 MSTORE PUSH1 0x20 ADD DUP4 PUSH20 0xFFFFFFFFFFFFFFFFFFFFFFFFFFFFFFFFFFFFFFFF AND PUSH20 0xFFFFFFFFFFFFFFFFFFFFFFFFFFFFFFFFFFFFFFFF AND DUP2 MSTORE PUSH1 0x20 ADD DUP3 DUP2 MSTORE PUSH1 0x20 ADD SWAP4 POP POP POP POP PUSH1 0x20 PUSH1 0x40 MLOAD DUP1 DUP4 SUB DUP2 PUSH1 0x0 DUP8 DUP1 EXTCODESIZE ISZERO DUP1 ISZERO PUSH2 0x32FB JUMPI PUSH1 0x0 DUP1 REVERT JUMPDEST POP GAS CALL ISZERO DUP1 ISZERO PUSH2 0x330F JUMPI RETURNDATASIZE PUSH1 0x0 DUP1 RETURNDATACOPY RETURNDATASIZE PUSH1 0x0 REVERT JUMPDEST POP POP POP POP PUSH1 0x40 MLOAD RETURNDATASIZE PUSH1 0x20 DUP2 LT ISZERO PUSH2 0x3325 JUMPI PUSH1 0x0 DUP1 REVERT JUMPDEST DUP2 ADD SWAP1 DUP1 DUP1 MLOAD SWAP1 PUSH1 0x20 ADD SWAP1 SWAP3 SWAP2 SWAP1 POP POP POP PUSH2 0x33A8 JUMPI PUSH1 0x40 MLOAD PUSH32 0x8C379A000000000000000000000000000000000000000000000000000000000 DUP2 MSTORE PUSH1 0x4 ADD DUP1 DUP1 PUSH1 0x20 ADD DUP3 DUP2 SUB DUP3 MSTORE PUSH1 0x1B DUP2 MSTORE PUSH1 0x20 ADD DUP1 PUSH32 0x746F6B656E732073686F756C64206265207472616E7366657265640000000000 DUP2 MSTORE POP PUSH1 0x20 ADD SWAP2 POP POP PUSH1 0x40 MLOAD DUP1 SWAP2 SUB SWAP1 REVERT JUMPDEST PUSH2 0x33BD DUP2 PUSH1 0x4 SLOAD PUSH2 0x3D56 SWAP1 SWAP2 SWAP1 PUSH4 0xFFFFFFFF AND JUMP JUMPDEST PUSH1 0x4 DUP2 SWAP1 SSTORE POP PUSH32 0x7CB5D45C1071F219BD2DA1EA101758715BD52F23F2A707F2D9A0387DEA18D906 DUP2 PUSH1 0x40 MLOAD DUP1 DUP3 DUP2 MSTORE PUSH1 0x20 ADD SWAP2 POP POP PUSH1 0x40 MLOAD DUP1 SWAP2 SUB SWAP1 LOG1 POP JUMP JUMPDEST DUP5 DUP5 PUSH1 0x0 PUSH1 0x6 PUSH1 0x0 DUP5 PUSH20 0xFFFFFFFFFFFFFFFFFFFFFFFFFFFFFFFFFFFFFFFF AND PUSH20 0xFFFFFFFFFFFFFFFFFFFFFFFFFFFFFFFFFFFFFFFF AND DUP2 MSTORE PUSH1 0x20 ADD SWAP1 DUP2 MSTORE PUSH1 0x20 ADD PUSH1 0x0 KECCAK256 DUP3 DUP2 SLOAD DUP2 LT PUSH2 0x344B JUMPI INVALID JUMPDEST SWAP1 PUSH1 0x0 MSTORE PUSH1 0x20 PUSH1 0x0 KECCAK256 SWAP1 PUSH1 0xC MUL ADD SWAP1 POP DUP3 PUSH20 0xFFFFFFFFFFFFFFFFFFFFFFFFFFFFFFFFFFFFFFFF AND CALLER PUSH20 0xFFFFFFFFFFFFFFFFFFFFFFFFFFFFFFFFFFFFFFFF AND EQ PUSH2 0x3550 JUMPI DUP1 PUSH1 0xA ADD PUSH1 0x0 CALLER PUSH20 0xFFFFFFFFFFFFFFFFFFFFFFFFFFFFFFFFFFFFFFFF AND PUSH20 0xFFFFFFFFFFFFFFFFFFFFFFFFFFFFFFFFFFFFFFFF AND DUP2 MSTORE PUSH1 0x20 ADD SWAP1 DUP2 MSTORE PUSH1 0x20 ADD PUSH1 0x0 KECCAK256 PUSH1 0x0 SWAP1 SLOAD SWAP1 PUSH2 0x100 EXP SWAP1 DIV PUSH1 0xFF AND PUSH2 0x354F JUMPI PUSH1 0x40 MLOAD PUSH32 0x8C379A000000000000000000000000000000000000000000000000000000000 DUP2 MSTORE PUSH1 0x4 ADD DUP1 DUP1 PUSH1 0x20 ADD DUP3 DUP2 SUB DUP3 MSTORE PUSH1 0x1A DUP2 MSTORE PUSH1 0x20 ADD DUP1 PUSH32 0x6E6F6D696E6174696F6E2073686F756C64206265207468657265000000000000 DUP2 MSTORE POP PUSH1 0x20 ADD SWAP2 POP POP PUSH1 0x40 MLOAD DUP1 SWAP2 SUB SWAP1 REVERT JUMPDEST JUMPDEST PUSH1 0x0 PUSH1 0x6 PUSH1 0x0 DUP11 PUSH20 0xFFFFFFFFFFFFFFFFFFFFFFFFFFFFFFFFFFFFFFFF AND PUSH20 0xFFFFFFFFFFFFFFFFFFFFFFFFFFFFFFFFFFFFFFFF AND DUP2 MSTORE PUSH1 0x20 ADD SWAP1 DUP2 MSTORE PUSH1 0x20 ADD PUSH1 0x0 KECCAK256 DUP9 DUP2 SLOAD DUP2 LT PUSH2 0x359C JUMPI INVALID JUMPDEST SWAP1 PUSH1 0x0 MSTORE PUSH1 0x20 PUSH1 0x0 KECCAK256 SWAP1 PUSH1 0xC MUL ADD SWAP1 POP DUP1 PUSH1 0x2 ADD SLOAD DUP8 LT ISZERO PUSH2 0x3609 JUMPI PUSH1 0x40 MLOAD PUSH32 0x8C379A000000000000000000000000000000000000000000000000000000000 DUP2 MSTORE PUSH1 0x4 ADD DUP1 DUP1 PUSH1 0x20 ADD DUP3 DUP2 SUB DUP3 MSTORE PUSH1 0x26 DUP2 MSTORE PUSH1 0x20 ADD DUP1 PUSH2 0x3FFF PUSH1 0x26 SWAP2 CODECOPY PUSH1 0x40 ADD SWAP2 POP POP PUSH1 0x40 MLOAD DUP1 SWAP2 SUB SWAP1 REVERT JUMPDEST PUSH1 0x0 DUP2 PUSH1 0x8 ADD PUSH1 0x0 DUP9 DUP2 MSTORE PUSH1 0x20 ADD SWAP1 DUP2 MSTORE PUSH1 0x20 ADD PUSH1 0x0 KECCAK256 SLOAD EQ PUSH2 0x3694 JUMPI PUSH1 0x40 MLOAD PUSH32 0x8C379A000000000000000000000000000000000000000000000000000000000 DUP2 MSTORE PUSH1 0x4 ADD DUP1 DUP1 PUSH1 0x20 ADD DUP3 DUP2 SUB DUP3 MSTORE PUSH1 0x14 DUP2 MSTORE PUSH1 0x20 ADD DUP1 PUSH32 0x63616E6E6F74206465706F73697420616761696E000000000000000000000000 DUP2 MSTORE POP PUSH1 0x20 ADD SWAP2 POP POP PUSH1 0x40 MLOAD DUP1 SWAP2 SUB SWAP1 REVERT JUMPDEST PUSH1 0x0 PUSH2 0x36DF PUSH2 0x3E8 PUSH2 0x36D1 PUSH1 0x5 DUP6 PUSH1 0x0 ADD SLOAD DUP2 SLOAD DUP2 LT PUSH2 0x36B0 JUMPI INVALID JUMPDEST SWAP1 PUSH1 0x0 MSTORE PUSH1 0x20 PUSH1 0x0 KECCAK256 SWAP1 PUSH1 0x8 MUL ADD PUSH1 0x5 ADD SLOAD DUP12 PUSH2 0x3CD0 SWAP1 SWAP2 SWAP1 PUSH4 0xFFFFFFFF AND JUMP JUMPDEST PUSH2 0x3C86 SWAP1 SWAP2 SWAP1 PUSH4 0xFFFFFFFF AND JUMP JUMPDEST SWAP1 POP PUSH1 0x0 PUSH2 0x3718 PUSH1 0x5 DUP5 PUSH1 0x0 ADD SLOAD DUP2 SLOAD DUP2 LT PUSH2 0x36F7 JUMPI INVALID JUMPDEST SWAP1 PUSH1 0x0 MSTORE PUSH1 0x20 PUSH1 0x0 KECCAK256 SWAP1 PUSH1 0x8 MUL ADD PUSH1 0x3 ADD SLOAD DUP4 PUSH2 0x3CD0 SWAP1 SWAP2 SWAP1 PUSH4 0xFFFFFFFF AND JUMP JUMPDEST SWAP1 POP PUSH2 0x372F PUSH1 0x3 SLOAD DUP3 PUSH2 0x3D56 SWAP1 SWAP2 SWAP1 PUSH4 0xFFFFFFFF AND JUMP JUMPDEST PUSH1 0x4 SLOAD LT ISZERO PUSH2 0x3789 JUMPI PUSH1 0x40 MLOAD PUSH32 0x8C379A000000000000000000000000000000000000000000000000000000000 DUP2 MSTORE PUSH1 0x4 ADD DUP1 DUP1 PUSH1 0x20 ADD DUP3 DUP2 SUB DUP3 MSTORE PUSH1 0x23 DUP2 MSTORE PUSH1 0x20 ADD DUP1 PUSH2 0x3F86 PUSH1 0x23 SWAP2 CODECOPY PUSH1 0x40 ADD SWAP2 POP POP PUSH1 0x40 MLOAD DUP1 SWAP2 SUB SWAP1 REVERT JUMPDEST PUSH1 0x0 PUSH2 0x3796 DUP13 DUP13 DUP12 PUSH2 0x2126 JUMP JUMPDEST SWAP1 POP PUSH1 0x0 DUP2 GT PUSH2 0x37F1 JUMPI PUSH1 0x40 MLOAD PUSH32 0x8C379A000000000000000000000000000000000000000000000000000000000 DUP2 MSTORE PUSH1 0x4 ADD DUP1 DUP1 PUSH1 0x20 ADD DUP3 DUP2 SUB DUP3 MSTORE PUSH1 0x21 DUP2 MSTORE PUSH1 0x20 ADD DUP1 PUSH2 0x3F65 PUSH1 0x21 SWAP2 CODECOPY PUSH1 0x40 ADD SWAP2 POP POP PUSH1 0x40 MLOAD DUP1 SWAP2 SUB SWAP1 REVERT JUMPDEST DUP8 ISZERO PUSH2 0x3891 JUMPI PUSH2 0x3849 DUP11 PUSH1 0x7 PUSH1 0x0 CALLER PUSH20 0xFFFFFFFFFFFFFFFFFFFFFFFFFFFFFFFFFFFFFFFF AND PUSH20 0xFFFFFFFFFFFFFFFFFFFFFFFFFFFFFFFFFFFFFFFF AND DUP2 MSTORE PUSH1 0x20 ADD SWAP1 DUP2 MSTORE PUSH1 0x20 ADD PUSH1 0x0 KECCAK256 SLOAD PUSH2 0x3C3C SWAP1 SWAP2 SWAP1 PUSH4 0xFFFFFFFF AND JUMP JUMPDEST PUSH1 0x7 PUSH1 0x0 CALLER PUSH20 0xFFFFFFFFFFFFFFFFFFFFFFFFFFFFFFFFFFFFFFFF AND PUSH20 0xFFFFFFFFFFFFFFFFFFFFFFFFFFFFFFFFFFFFFFFF AND DUP2 MSTORE PUSH1 0x20 ADD SWAP1 DUP2 MSTORE PUSH1 0x20 ADD PUSH1 0x0 KECCAK256 DUP2 SWAP1 SSTORE POP PUSH2 0x39B3 JUMP JUMPDEST PUSH1 0x1 PUSH1 0x0 SWAP1 SLOAD SWAP1 PUSH2 0x100 EXP SWAP1 DIV PUSH20 0xFFFFFFFFFFFFFFFFFFFFFFFFFFFFFFFFFFFFFFFF AND PUSH20 0xFFFFFFFFFFFFFFFFFFFFFFFFFFFFFFFFFFFFFFFF AND PUSH4 0x23B872DD CALLER ADDRESS DUP14 PUSH1 0x40 MLOAD DUP5 PUSH4 0xFFFFFFFF AND PUSH1 0xE0 SHL DUP2 MSTORE PUSH1 0x4 ADD DUP1 DUP5 PUSH20 0xFFFFFFFFFFFFFFFFFFFFFFFFFFFFFFFFFFFFFFFF AND PUSH20 0xFFFFFFFFFFFFFFFFFFFFFFFFFFFFFFFFFFFFFFFF AND DUP2 MSTORE PUSH1 0x20 ADD DUP4 PUSH20 0xFFFFFFFFFFFFFFFFFFFFFFFFFFFFFFFFFFFFFFFF AND PUSH20 0xFFFFFFFFFFFFFFFFFFFFFFFFFFFFFFFFFFFFFFFF AND DUP2 MSTORE PUSH1 0x20 ADD DUP3 DUP2 MSTORE PUSH1 0x20 ADD SWAP4 POP POP POP POP PUSH1 0x20 PUSH1 0x40 MLOAD DUP1 DUP4 SUB DUP2 PUSH1 0x0 DUP8 DUP1 EXTCODESIZE ISZERO DUP1 ISZERO PUSH2 0x396E JUMPI PUSH1 0x0 DUP1 REVERT JUMPDEST POP GAS CALL ISZERO DUP1 ISZERO PUSH2 0x3982 JUMPI RETURNDATASIZE PUSH1 0x0 DUP1 RETURNDATACOPY RETURNDATASIZE PUSH1 0x0 REVERT JUMPDEST POP POP POP POP PUSH1 0x40 MLOAD RETURNDATASIZE PUSH1 0x20 DUP2 LT ISZERO PUSH2 0x3998 JUMPI PUSH1 0x0 DUP1 REVERT JUMPDEST DUP2 ADD SWAP1 DUP1 DUP1 MLOAD SWAP1 PUSH1 0x20 ADD SWAP1 SWAP3 SWAP2 SWAP1 POP POP POP PUSH2 0x39B2 JUMPI PUSH1 0x0 DUP1 REVERT JUMPDEST JUMPDEST DUP1 DUP5 PUSH1 0x8 ADD PUSH1 0x0 DUP12 DUP2 MSTORE PUSH1 0x20 ADD SWAP1 DUP2 MSTORE PUSH1 0x20 ADD PUSH1 0x0 KECCAK256 DUP2 SWAP1 SSTORE POP DUP3 DUP5 PUSH1 0x9 ADD PUSH1 0x0 DUP12 DUP2 MSTORE PUSH1 0x20 ADD SWAP1 DUP2 MSTORE PUSH1 0x20 ADD PUSH1 0x0 KECCAK256 DUP2 SWAP1 SSTORE POP PUSH2 0x39FE DUP11 DUP6 PUSH1 0x3 ADD SLOAD PUSH2 0x3D56 SWAP1 SWAP2 SWAP1 PUSH4 0xFFFFFFFF AND JUMP JUMPDEST DUP5 PUSH1 0x3 ADD DUP2 SWAP1 SSTORE POP PUSH2 0x3A1B DUP3 PUSH1 0x3 SLOAD PUSH2 0x3D56 SWAP1 SWAP2 SWAP1 PUSH4 0xFFFFFFFF AND JUMP JUMPDEST PUSH1 0x3 DUP2 SWAP1 SSTORE POP DUP11 DUP13 PUSH20 0xFFFFFFFFFFFFFFFFFFFFFFFFFFFFFFFFFFFFFFFF AND PUSH32 0xBAF4C88598102708C4215D5D3767268130627355850B7ECE9BDFDC32FD2941F0 DUP12 DUP14 DUP7 CALLER PUSH1 0x40 MLOAD DUP1 DUP6 DUP2 MSTORE PUSH1 0x20 ADD DUP5 DUP2 MSTORE PUSH1 0x20 ADD DUP4 DUP2 MSTORE PUSH1 0x20 ADD DUP3 PUSH20 0xFFFFFFFFFFFFFFFFFFFFFFFFFFFFFFFFFFFFFFFF AND PUSH20 0xFFFFFFFFFFFFFFFFFFFFFFFFFFFFFFFFFFFFFFFF AND DUP2 MSTORE PUSH1 0x20 ADD SWAP5 POP POP POP POP POP PUSH1 0x40 MLOAD DUP1 SWAP2 SUB SWAP1 LOG3 POP POP POP POP POP POP POP POP POP POP POP POP JUMP JUMPDEST PUSH1 0x5 DUP2 DUP2 SLOAD DUP2 LT PUSH2 0x3ACF JUMPI INVALID JUMPDEST SWAP1 PUSH1 0x0 MSTORE PUSH1 0x20 PUSH1 0x0 KECCAK256 SWAP1 PUSH1 0x8 MUL ADD PUSH1 0x0 SWAP2 POP SWAP1 POP DUP1 PUSH1 0x0 ADD PUSH1 0x0 SWAP1 SLOAD SWAP1 PUSH2 0x100 EXP SWAP1 DIV PUSH1 0xFF AND SWAP1 DUP1 PUSH1 0x1 ADD SLOAD SWAP1 DUP1 PUSH1 0x2 ADD SLOAD SWAP1 DUP1 PUSH1 0x3 ADD SLOAD SWAP1 DUP1 PUSH1 0x4 ADD SLOAD SWAP1 DUP1 PUSH1 0x5 ADD SLOAD SWAP1 DUP1 PUSH1 0x6 ADD SLOAD SWAP1 DUP1 PUSH1 0x7 ADD SLOAD SWAP1 POP DUP9 JUMP JUMPDEST PUSH1 0x0 PUSH1 0x6 PUSH1 0x0 DUP6 PUSH20 0xFFFFFFFFFFFFFFFFFFFFFFFFFFFFFFFFFFFFFFFF AND PUSH20 0xFFFFFFFFFFFFFFFFFFFFFFFFFFFFFFFFFFFFFFFF AND DUP2 MSTORE PUSH1 0x20 ADD SWAP1 DUP2 MSTORE PUSH1 0x20 ADD PUSH1 0x0 KECCAK256 DUP4 DUP2 SLOAD DUP2 LT PUSH2 0x3B70 JUMPI INVALID JUMPDEST SWAP1 PUSH1 0x0 MSTORE PUSH1 0x20 PUSH1 0x0 KECCAK256 SWAP1 PUSH1 0xC MUL ADD PUSH1 0x8 ADD PUSH1 0x0 DUP4 DUP2 MSTORE PUSH1 0x20 ADD SWAP1 DUP2 MSTORE PUSH1 0x20 ADD PUSH1 0x0 KECCAK256 SLOAD SWAP1 POP SWAP4 SWAP3 POP POP POP JUMP JUMPDEST PUSH1 0x6 PUSH1 0x20 MSTORE DUP2 PUSH1 0x0 MSTORE PUSH1 0x40 PUSH1 0x0 KECCAK256 DUP2 DUP2 SLOAD DUP2 LT PUSH2 0x3BB5 JUMPI INVALID JUMPDEST SWAP1 PUSH1 0x0 MSTORE PUSH1 0x20 PUSH1 0x0 KECCAK256 SWAP1 PUSH1 0xC MUL ADD PUSH1 0x0 SWAP2 POP SWAP2 POP POP DUP1 PUSH1 0x0 ADD SLOAD SWAP1 DUP1 PUSH1 0x1 ADD SLOAD SWAP1 DUP1 PUSH1 0x2 ADD SLOAD SWAP1 DUP1 PUSH1 0x3 ADD SLOAD SWAP1 DUP1 PUSH1 0x4 ADD SLOAD SWAP1 DUP1 PUSH1 0x5 ADD SLOAD SWAP1 DUP1 PUSH1 0x6 ADD SLOAD SWAP1 DUP1 PUSH1 0x7 ADD SLOAD SWAP1 POP DUP9 JUMP JUMPDEST PUSH1 0x7 PUSH1 0x20 MSTORE DUP1 PUSH1 0x0 MSTORE PUSH1 0x40 PUSH1 0x0 KECCAK256 PUSH1 0x0 SWAP2 POP SWAP1 POP SLOAD DUP2 JUMP JUMPDEST PUSH1 0x1 PUSH1 0x0 SWAP1 SLOAD SWAP1 PUSH2 0x100 EXP SWAP1 DIV PUSH20 0xFFFFFFFFFFFFFFFFFFFFFFFFFFFFFFFFFFFFFFFF AND DUP2 JUMP JUMPDEST PUSH1 0x0 PUSH2 0x3C7E DUP4 DUP4 PUSH1 0x40 MLOAD DUP1 PUSH1 0x40 ADD PUSH1 0x40 MSTORE DUP1 PUSH1 0x1E DUP2 MSTORE PUSH1 0x20 ADD PUSH32 0x536166654D6174683A207375627472616374696F6E206F766572666C6F770000 DUP2 MSTORE POP PUSH2 0x3DDE JUMP JUMPDEST SWAP1 POP SWAP3 SWAP2 POP POP JUMP JUMPDEST PUSH1 0x0 PUSH2 0x3CC8 DUP4 DUP4 PUSH1 0x40 MLOAD DUP1 PUSH1 0x40 ADD PUSH1 0x40 MSTORE DUP1 PUSH1 0x1A DUP2 MSTORE PUSH1 0x20 ADD PUSH32 0x536166654D6174683A206469766973696F6E206279207A65726F000000000000 DUP2 MSTORE POP PUSH2 0x3E9E JUMP JUMPDEST SWAP1 POP SWAP3 SWAP2 POP POP JUMP JUMPDEST PUSH1 0x0 DUP1 DUP4 EQ ISZERO PUSH2 0x3CE3 JUMPI PUSH1 0x0 SWAP1 POP PUSH2 0x3D50 JUMP JUMPDEST PUSH1 0x0 DUP3 DUP5 MUL SWAP1 POP DUP3 DUP5 DUP3 DUP2 PUSH2 0x3CF4 JUMPI INVALID JUMPDEST DIV EQ PUSH2 0x3D4B JUMPI PUSH1 0x40 MLOAD PUSH32 0x8C379A000000000000000000000000000000000000000000000000000000000 DUP2 MSTORE PUSH1 0x4 ADD DUP1 DUP1 PUSH1 0x20 ADD DUP3 DUP2 SUB DUP3 MSTORE PUSH1 0x21 DUP2 MSTORE PUSH1 0x20 ADD DUP1 PUSH2 0x3FDE PUSH1 0x21 SWAP2 CODECOPY PUSH1 0x40 ADD SWAP2 POP POP PUSH1 0x40 MLOAD DUP1 SWAP2 SUB SWAP1 REVERT JUMPDEST DUP1 SWAP2 POP POP JUMPDEST SWAP3 SWAP2 POP POP JUMP JUMPDEST PUSH1 0x0 DUP1 DUP3 DUP5 ADD SWAP1 POP DUP4 DUP2 LT ISZERO PUSH2 0x3DD4 JUMPI PUSH1 0x40 MLOAD PUSH32 0x8C379A000000000000000000000000000000000000000000000000000000000 DUP2 MSTORE PUSH1 0x4 ADD DUP1 DUP1 PUSH1 0x20 ADD DUP3 DUP2 SUB DUP3 MSTORE PUSH1 0x1B DUP2 MSTORE PUSH1 0x20 ADD DUP1 PUSH32 0x536166654D6174683A206164646974696F6E206F766572666C6F770000000000 DUP2 MSTORE POP PUSH1 0x20 ADD SWAP2 POP POP PUSH1 0x40 MLOAD DUP1 SWAP2 SUB SWAP1 REVERT JUMPDEST DUP1 SWAP2 POP POP SWAP3 SWAP2 POP POP JUMP JUMPDEST PUSH1 0x0 DUP4 DUP4 GT ISZERO DUP3 SWAP1 PUSH2 0x3E8B JUMPI PUSH1 0x40 MLOAD PUSH32 0x8C379A000000000000000000000000000000000000000000000000000000000 DUP2 MSTORE PUSH1 0x4 ADD DUP1 DUP1 PUSH1 0x20 ADD DUP3 DUP2 SUB DUP3 MSTORE DUP4 DUP2 DUP2 MLOAD DUP2 MSTORE PUSH1 0x20 ADD SWAP2 POP DUP1 MLOAD SWAP1 PUSH1 0x20 ADD SWAP1 DUP1 DUP4 DUP4 PUSH1 0x0 JUMPDEST DUP4 DUP2 LT ISZERO PUSH2 0x3E50 JUMPI DUP1 DUP3 ADD MLOAD DUP2 DUP5 ADD MSTORE PUSH1 0x20 DUP2 ADD SWAP1 POP PUSH2 0x3E35 JUMP JUMPDEST POP POP POP POP SWAP1 POP SWAP1 DUP2 ADD SWAP1 PUSH1 0x1F AND DUP1 ISZERO PUSH2 0x3E7D JUMPI DUP1 DUP3 SUB DUP1 MLOAD PUSH1 0x1 DUP4 PUSH1 0x20 SUB PUSH2 0x100 EXP SUB NOT AND DUP2 MSTORE PUSH1 0x20 ADD SWAP2 POP JUMPDEST POP SWAP3 POP POP POP PUSH1 0x40 MLOAD DUP1 SWAP2 SUB SWAP1 REVERT JUMPDEST POP PUSH1 0x0 DUP4 DUP6 SUB SWAP1 POP DUP1 SWAP2 POP POP SWAP4 SWAP3 POP POP POP JUMP JUMPDEST PUSH1 0x0 DUP1 DUP4 GT DUP3 SWAP1 PUSH2 0x3F4A JUMPI PUSH1 0x40 MLOAD PUSH32 0x8C379A000000000000000000000000000000000000000000000000000000000 DUP2 MSTORE PUSH1 0x4 ADD DUP1 DUP1 PUSH1 0x20 ADD DUP3 DUP2 SUB DUP3 MSTORE DUP4 DUP2 DUP2 MLOAD DUP2 MSTORE PUSH1 0x20 ADD SWAP2 POP DUP1 MLOAD SWAP1 PUSH1 0x20 ADD SWAP1 DUP1 DUP4 DUP4 PUSH1 0x0 JUMPDEST DUP4 DUP2 LT ISZERO PUSH2 0x3F0F JUMPI DUP1 DUP3 ADD MLOAD DUP2 DUP5 ADD MSTORE PUSH1 0x20 DUP2 ADD SWAP1 POP PUSH2 0x3EF4 JUMP JUMPDEST POP POP POP POP SWAP1 POP SWAP1 DUP2 ADD SWAP1 PUSH1 0x1F AND DUP1 ISZERO PUSH2 0x3F3C JUMPI DUP1 DUP3 SUB DUP1 MLOAD PUSH1 0x1 DUP4 PUSH1 0x20 SUB PUSH2 0x100 EXP SUB NOT AND DUP2 MSTORE PUSH1 0x20 ADD SWAP2 POP JUMPDEST POP SWAP3 POP POP POP PUSH1 0x40 MLOAD DUP1 SWAP2 SUB SWAP1 REVERT JUMPDEST POP PUSH1 0x0 DUP4 DUP6 DUP2 PUSH2 0x3F56 JUMPI INVALID JUMPDEST DIV SWAP1 POP DUP1 SWAP2 POP POP SWAP4 SWAP3 POP POP POP JUMP INVALID PUSH8 0x7261636520706572 PUSH10 0x6F6420656C6170736564 KECCAK256 PUSH16 0x7220746F6F206561726C79656E6F7567 PUSH9 0x2066756E6473207368 PUSH16 0x756C6420626520746865726520696E20 MSTORE8 0x49 POP PUSH6 0x6E6F75676820 PUSH7 0x756E647320666F PUSH19 0x2062656E65666974732073686F756C64206265 KECCAK256 PUSH21 0x6865726520696E20636F6E7472616374536166654D PUSH2 0x7468 GASPRICE KECCAK256 PUSH14 0x756C7469706C69636174696F6E20 PUSH16 0x766572666C6F776465706F7369742063 PUSH2 0x6E6E PUSH16 0x74206265206C657373207468616E2063 PUSH16 0x6D6D69746D656E74A265627A7A723158 KECCAK256 0xc CALLDATACOPY MULMOD ADD DIFFICULTY PUSH29 0xE5CD33DDAF8049B18A43EC31F518A4AD2EB4A077BD1DC8153B9464736F PUSH13 0x634300050C0032000000000000 "},"gasEstimates":{"creation":{"codeDepositCost":"3294600","executionCost":"infinite","totalCost":"infinite"},"external":{"EARTH_SECONDS_IN_MONTH()":"473","addFunds(uint256)":"infinite","addToPrepaid(uint256)":"infinite","appointeeVote(address,uint256)":"infinite","createSIPPlan(uint256,uint256,uint256,uint256,uint256,uint256,uint256)":"181707","fundsDeposit()":"495","getDepositDoneStatus(address,uint256,uint256)":"1073","getDepositStatus(address,uint256,uint256)":"3023","getPendingWithdrawlAmount(address,uint256,uint256,bool)":"infinite","monthlyDeposit(address,uint256,uint256,uint256,bool)":"infinite","newSIP(uint256,uint256,bool)":"infinite","owner()":"499","pendingBenefitAmountOfAllStakers()":"539","prepaidES(address)":"657","sendPrepaidESDifferent(address[],uint256[])":"infinite","sipPlans(uint256)":"2566","sips(address,uint256)":"2593","token()":"563","toogleAppointee(uint256,address,bool)":"infinite","toogleNominee(uint256,address,bool)":"23311","updatePlanStatus(uint256,bool)":"21186","viewAppointation(address,uint256,address)":"1206","viewMonthlyBenefitAmount(address,uint256,uint256)":"1118","viewNomination(address,uint256,address)":"1140","withdrawBenefit(address,uint256,uint256)":"infinite","withdrawFunds(uint256)":"infinite","withdrawPowerBooster(address,uint256)":"infinite"}},"methodIdentifiers":{"EARTH_SECONDS_IN_MONTH()":"1272d8d4","addFunds(uint256)":"be999705","addToPrepaid(uint256)":"26f8bea7","appointeeVote(address,uint256)":"a4003ad4","createSIPPlan(uint256,uint256,uint256,uint256,uint256,uint256,uint256)":"295226c5","fundsDeposit()":"13dcc452","getDepositDoneStatus(address,uint256,uint256)":"f29de4c3","getDepositStatus(address,uint256,uint256)":"94bb9064","getPendingWithdrawlAmount(address,uint256,uint256,bool)":"9b3017c1","monthlyDeposit(address,uint256,uint256,uint256,bool)":"c2809700","newSIP(uint256,uint256,bool)":"ad8f6a74","owner()":"8da5cb5b","pendingBenefitAmountOfAllStakers()":"2393768d","prepaidES(address)":"fb0685df","sendPrepaidESDifferent(address[],uint256[])":"51a6349d","sipPlans(uint256)":"ef4ffe57","sips(address,uint256)":"f926b17a","token()":"fc0c546a","toogleAppointee(uint256,address,bool)":"ba50531a","toogleNominee(uint256,address,bool)":"0ce57b46","updatePlanStatus(uint256,bool)":"7838e408","viewAppointation(address,uint256,address)":"81423a26","viewMonthlyBenefitAmount(address,uint256,uint256)":"b3918922","viewNomination(address,uint256,address)":"2e9721b6","withdrawBenefit(address,uint256,uint256)":"07f71149","withdrawFunds(uint256)":"155dd5ee","withdrawPowerBooster(address,uint256)":"26d9767b"}},"userdoc":{"methods":{"addFunds(uint256)":{"notice":"this function is used by donors to add funds to fundsDeposit"},"addToPrepaid(uint256)":{"notice":"this function is used to add ES as prepaid for SIP"},"appointeeVote(address,uint256)":{"notice":"this function is used by appointee to vote that nominees can withdraw early"},"constructor":"sets up TimeAllySIP contract when deployed","createSIPPlan(uint256,uint256,uint256,uint256,uint256,uint256,uint256)":{"notice":"this function is used by owner to create plans for new SIPs"},"getDepositDoneStatus(address,uint256,uint256)":{"notice":"this function is used to read all time deposit status of any staker SIP"},"getDepositStatus(address,uint256,uint256)":{"notice":"this function is used to calculate deposit status according to current time"},"getPendingWithdrawlAmount(address,uint256,uint256,bool)":{"notice":"this function is used to get avalilable withdrawls upto a withdrawl month id"},"monthlyDeposit(address,uint256,uint256,uint256,bool)":{"notice":"this function is used to do monthly commitment deposit of SIP"},"newSIP(uint256,uint256,bool)":{"notice":"this function is used to initiate a new SIP along with first deposit"},"sendPrepaidESDifferent(address[],uint256[])":{"notice":"this function is used to send ES as prepaid for SIP"},"toogleAppointee(uint256,address,bool)":{"notice":"this function is used to update appointee status of a wallet address in SIP"},"toogleNominee(uint256,address,bool)":{"notice":"this function is used to update nominee status of a wallet address in SIP"},"viewAppointation(address,uint256,address)":{"notice":"this function is used to view appointation"},"viewNomination(address,uint256,address)":{"notice":"this function is used to view nomination"},"withdrawBenefit(address,uint256,uint256)":{"notice":"this function is used to withdraw benefits."},"withdrawFunds(uint256)":{"notice":"this is used by owner to withdraw ES that are not allocated to any SIP"},"withdrawPowerBooster(address,uint256)":{"notice":"this functin is used to withdraw powerbooster"}},"notice":"The benefits are transparently stored in advance in this contract"}}