{"abi":[{"constant":true,"inputs":[],"name":"nrtManager","outputs":[{"name":"","type":"address"}],"payable":false,"stateMutability":"view","type":"function"},{"constant":false,"inputs":[{"name":"_stakingId","type":"uint256"},{"name":"_nomineeAddress","type":"address"},{"name":"_shares","type":"uint256"}],"name":"updateNominee","outputs":[],"payable":false,"stateMutability":"nonpayable","type":"function"},{"constant":true,"inputs":[{"name":"","type":"uint256"}],"name":"timeAllyMonthlyNRT","outputs":[{"name":"","type":"uint256"}],"payable":false,"stateMutability":"view","type":"function"},{"constant":true,"inputs":[{"name":"_userAddress","type":"address"},{"name":"_stakingId","type":"uint256"},{"name":"_nomineeAddress","type":"address"}],"name":"viewNomination","outputs":[{"name":"","type":"uint256"}],"payable":false,"stateMutability":"view","type":"function"},{"constant":true,"inputs":[{"name":"_userAddress","type":"address"},{"name":"_atMonth","type":"uint256"}],"name":"seeShareForUserByMonth","outputs":[{"name":"","type":"uint256"}],"payable":false,"stateMutability":"view","type":"function"},{"constant":false,"inputs":[{"name":"_atMonth","type":"uint256"},{"name":"_accruedPercentage","type":"uint256"},{"name":"_stakeAccruedNow","type":"bool"},{"name":"_accruedsStakingPlan","type":"uint256"}],"name":"withdrawShareForUserByMonth","outputs":[],"payable":false,"stateMutability":"nonpayable","type":"function"},{"constant":true,"inputs":[{"name":"_userAddress","type":"address"},{"name":"_stakingId","type":"uint256"}],"name":"viewStaking","outputs":[{"name":"","type":"uint256"},{"name":"","type":"uint256"},{"name":"","type":"uint256"},{"name":"","type":"uint256"},{"name":"","type":"uint256"},{"name":"","type":"uint256"}],"payable":false,"stateMutability":"view","type":"function"},{"constant":true,"inputs":[],"name":"timeAllyMonthlyNRTArray","outputs":[{"name":"","type":"uint256[]"}],"payable":false,"stateMutability":"view","type":"function"},{"constant":true,"inputs":[{"name":"","type":"uint256"}],"name":"totalActiveStakings","outputs":[{"name":"","type":"uint256"}],"payable":false,"stateMutability":"view","type":"function"},{"constant":false,"inputs":[{"name":"_stakingId","type":"uint256"},{"name":"_nomineeAddress","type":"address"}],"name":"removeNominee","outputs":[],"payable":false,"stateMutability":"nonpayable","type":"function"},{"constant":false,"inputs":[{"name":"_exaEsAmount","type":"uint256"}],"name":"topupRewardBucket","outputs":[],"payable":false,"stateMutability":"nonpayable","type":"function"},{"constant":true,"inputs":[{"name":"","type":"uint256"}],"name":"stakingPlans","outputs":[{"name":"months","type":"uint256"},{"name":"fractionFrom15","type":"uint256"}],"payable":false,"stateMutability":"view","type":"function"},{"constant":true,"inputs":[{"name":"","type":"address"}],"name":"launchReward","outputs":[{"name":"","type":"uint256"}],"payable":false,"stateMutability":"view","type":"function"},{"constant":false,"inputs":[{"name":"_loanMonths","type":"uint256"},{"name":"_loanRate","type":"uint256"}],"name":"createLoanPlan","outputs":[],"payable":false,"stateMutability":"nonpayable","type":"function"},{"constant":false,"inputs":[{"name":"_addresses","type":"address[]"},{"name":"_exaEsAmountArray","type":"uint256[]"}],"name":"giveLaunchReward","outputs":[],"payable":false,"stateMutability":"nonpayable","type":"function"},{"constant":true,"inputs":[],"name":"owner","outputs":[{"name":"","type":"address"}],"payable":false,"stateMutability":"view","type":"function"},{"constant":false,"inputs":[{"name":"_userAddress","type":"address"},{"name":"_stakingId","type":"uint256"}],"name":"nomineeWithdraw","outputs":[],"payable":false,"stateMutability":"nonpayable","type":"function"},{"constant":true,"inputs":[{"name":"_userAddress","type":"address"},{"name":"_stakingId","type":"uint256"},{"name":"_currentMonth","type":"uint256"},{"name":"_atMonth","type":"uint256"}],"name":"isStakingActive","outputs":[{"name":"","type":"bool"}],"payable":false,"stateMutability":"view","type":"function"},{"constant":false,"inputs":[{"name":"_stakingId","type":"uint256"},{"name":"_nomineeAddress","type":"address"},{"name":"_shares","type":"uint256"}],"name":"addNominee","outputs":[],"payable":false,"stateMutability":"nonpayable","type":"function"},{"constant":true,"inputs":[{"name":"_userAddress","type":"address"}],"name":"getNumberOfStakingsByUser","outputs":[{"name":"","type":"uint256"}],"payable":false,"stateMutability":"view","type":"function"},{"constant":true,"inputs":[{"name":"_userAddress","type":"address"},{"name":"_stakingIds","type":"uint256[]"}],"name":"seeMaxLoaningAmountOnUserStakings","outputs":[{"name":"","type":"uint256"}],"payable":false,"stateMutability":"view","type":"function"},{"constant":false,"inputs":[{"name":"_months","type":"uint256"},{"name":"_fractionFrom15","type":"uint256"}],"name":"createStakingPlan","outputs":[],"payable":false,"stateMutability":"nonpayable","type":"function"},{"constant":true,"inputs":[{"name":"","type":"uint256"}],"name":"loanPlans","outputs":[{"name":"loanMonths","type":"uint256"},{"name":"loanRate","type":"uint256"}],"payable":false,"stateMutability":"view","type":"function"},{"constant":false,"inputs":[{"name":"_loanPlanId","type":"uint256"},{"name":"_exaEsAmount","type":"uint256"},{"name":"_stakingIds","type":"uint256[]"}],"name":"takeLoanOnSelfStaking","outputs":[],"payable":false,"stateMutability":"nonpayable","type":"function"},{"constant":false,"inputs":[{"name":"_stakingPlanId","type":"uint256"}],"name":"claimLaunchReward","outputs":[],"payable":false,"stateMutability":"nonpayable","type":"function"},{"constant":true,"inputs":[],"name":"getCurrentMonth","outputs":[{"name":"","type":"uint256"}],"payable":false,"stateMutability":"view","type":"function"},{"constant":false,"inputs":[{"name":"_loanId","type":"uint256"}],"name":"repayLoanSelf","outputs":[],"payable":false,"stateMutability":"nonpayable","type":"function"},{"constant":false,"inputs":[{"name":"_exaEsAmount","type":"uint256"},{"name":"_stakingPlanId","type":"uint256"}],"name":"newStaking","outputs":[],"payable":false,"stateMutability":"nonpayable","type":"function"},{"constant":false,"inputs":[{"name":"_timeAllyNRT","type":"uint256"}],"name":"increaseMonth","outputs":[],"payable":false,"stateMutability":"nonpayable","type":"function"},{"constant":false,"inputs":[{"name":"_stakings","type":"uint256[]"}],"name":"withdrawExpiredStakings","outputs":[],"payable":false,"stateMutability":"nonpayable","type":"function"},{"constant":true,"inputs":[{"name":"_userAddress","type":"address"},{"name":"_atMonth","type":"uint256"}],"name":"userActiveStakingByMonth","outputs":[{"name":"","type":"uint256"}],"payable":false,"stateMutability":"view","type":"function"},{"constant":true,"inputs":[],"name":"token","outputs":[{"name":"","type":"address"}],"payable":false,"stateMutability":"view","type":"function"},{"inputs":[{"name":"_tokenAddress","type":"address"},{"name":"_nrtAddress","type":"address"}],"payable":false,"stateMutability":"nonpayable","type":"constructor"},{"anonymous":false,"inputs":[{"indexed":true,"name":"_staker","type":"address"},{"indexed":true,"name":"_stakePlanId","type":"uint256"},{"indexed":false,"name":"_exaEsAmount","type":"uint256"},{"indexed":false,"name":"_stakingId","type":"uint256"}],"name":"NewStaking","type":"event"},{"anonymous":false,"inputs":[{"indexed":true,"name":"_userAddress","type":"address"},{"indexed":true,"name":"_stakingId","type":"uint256"},{"indexed":true,"name":"_nomineeAddress","type":"address"}],"name":"NomineeNew","type":"event"},{"anonymous":false,"inputs":[{"indexed":true,"name":"_userAddress","type":"address"},{"indexed":true,"name":"_stakingId","type":"uint256"},{"indexed":true,"name":"_nomineeAddress","type":"address"},{"indexed":false,"name":"_liquid","type":"uint256"},{"indexed":false,"name":"_accrued","type":"uint256"}],"name":"NomineeWithdraw","type":"event"},{"anonymous":false,"inputs":[{"indexed":true,"name":"_userAddress","type":"address"},{"indexed":false,"name":"_atMonth","type":"uint256"},{"indexed":false,"name":"_accruedPercentage","type":"uint256"},{"indexed":false,"name":"_liquidShare","type":"uint256"},{"indexed":false,"name":"_accruedShare","type":"uint256"}],"name":"BenefitWithdrawl","type":"event"},{"anonymous":false,"inputs":[{"indexed":true,"name":"_loaner","type":"address"},{"indexed":true,"name":"_loanPlanId","type":"uint256"},{"indexed":false,"name":"_exaEsAmount","type":"uint256"},{"indexed":false,"name":"_loanInterest","type":"uint256"},{"indexed":false,"name":"_loanId","type":"uint256"}],"name":"NewLoan","type":"event"},{"anonymous":false,"inputs":[{"indexed":true,"name":"_userAddress","type":"address"},{"indexed":false,"name":"_loanId","type":"uint256"}],"name":"RepayLoan","type":"event"}],"devdoc":{"methods":{}},"evm":{"assembly":"    /* \"TimeAlly.sol\":245:28170  contract TimeAlly {... */\n  mstore(0x40, 0x80)\n    /* \"TimeAlly.sol\":1263:1270  2629744 */\n  0x282070\n    /* \"TimeAlly.sol\":1233:1270  uint256 earthSecondsInMonth = 2629744 */\n  0x04\n  sstore\n    /* \"TimeAlly.sol\":3109:3370  constructor(address _tokenAddress, address _nrtAddress) public {... */\n  callvalue\n    /* \"--CODEGEN--\":8:17   */\n  dup1\n    /* \"--CODEGEN--\":5:7   */\n  iszero\n  tag_1\n  jumpi\n    /* \"--CODEGEN--\":30:31   */\n  0x00\n    /* \"--CODEGEN--\":27:28   */\n  dup1\n    /* \"--CODEGEN--\":20:32   */\n  revert\n    /* \"--CODEGEN--\":5:7   */\ntag_1:\n    /* \"TimeAlly.sol\":3109:3370  constructor(address _tokenAddress, address _nrtAddress) public {... */\n  pop\n  mload(0x40)\n  sub(codesize, bytecodeSize)\n  dup1\n  bytecodeSize\n  dup4\n  codecopy\n  dup2\n  dup2\n  add\n  0x40\n  mstore\n    /* \"--CODEGEN--\":13:15   */\n  0x40\n    /* \"--CODEGEN--\":8:11   */\n  dup2\n    /* \"--CODEGEN--\":5:16   */\n  lt\n    /* \"--CODEGEN--\":2:4   */\n  iszero\n  tag_2\n  jumpi\n    /* \"--CODEGEN--\":29:30   */\n  0x00\n    /* \"--CODEGEN--\":26:27   */\n  dup1\n    /* \"--CODEGEN--\":19:31   */\n  revert\n    /* \"--CODEGEN--\":2:4   */\ntag_2:\n    /* \"TimeAlly.sol\":3109:3370  constructor(address _tokenAddress, address _nrtAddress) public {... */\n  dup2\n  add\n  swap1\n  dup1\n  dup1\n  mload\n  swap1\n  0x20\n  add\n  swap1\n  swap3\n  swap2\n  swap1\n  dup1\n  mload\n  swap1\n  0x20\n  add\n  swap1\n  swap3\n  swap2\n  swap1\n  pop\n  pop\n  pop\n    /* \"TimeAlly.sol\":3190:3200  msg.sender */\n  caller\n    /* \"TimeAlly.sol\":3182:3187  owner */\n  0x00\n  dup1\n    /* \"TimeAlly.sol\":3182:3200  owner = msg.sender */\n  0x0100\n  exp\n  dup2\n  sload\n  dup2\n  0xffffffffffffffffffffffffffffffffffffffff\n  mul\n  not\n  and\n  swap1\n  dup4\n  0xffffffffffffffffffffffffffffffffffffffff\n  and\n  mul\n  or\n  swap1\n  sstore\n  pop\n    /* \"TimeAlly.sol\":3226:3239  _tokenAddress */\n  dup2\n    /* \"TimeAlly.sol\":3210:3215  token */\n  0x01\n  0x00\n    /* \"TimeAlly.sol\":3210:3240  token = Eraswap(_tokenAddress) */\n  0x0100\n  exp\n  dup2\n  sload\n  dup2\n  0xffffffffffffffffffffffffffffffffffffffff\n  mul\n  not\n  and\n  swap1\n  dup4\n  0xffffffffffffffffffffffffffffffffffffffff\n  and\n  mul\n  or\n  swap1\n  sstore\n  pop\n    /* \"TimeAlly.sol\":3274:3285  _nrtAddress */\n  dup1\n    /* \"TimeAlly.sol\":3250:3260  nrtManager */\n  0x02\n  0x00\n    /* \"TimeAlly.sol\":3250:3286  nrtManager = NRTManager(_nrtAddress) */\n  0x0100\n  exp\n  dup2\n  sload\n  dup2\n  0xffffffffffffffffffffffffffffffffffffffff\n  mul\n  not\n  and\n  swap1\n  dup4\n  0xffffffffffffffffffffffffffffffffffffffff\n  and\n  mul\n  or\n  swap1\n  sstore\n  pop\n    /* \"TimeAlly.sol\":3316:3321  token */\n  0x01\n  0x00\n  swap1\n  sload\n  swap1\n  0x0100\n  exp\n  swap1\n  div\n  0xffffffffffffffffffffffffffffffffffffffff\n  and\n    /* \"TimeAlly.sol\":3316:3325  token.mou */\n  0xffffffffffffffffffffffffffffffffffffffff\n  and\n  0xb81f90f3\n    /* \"TimeAlly.sol\":3316:3327  token.mou() */\n  mload(0x40)\n  dup2\n  0xffffffff\n  and\n  0xe0\n  shl\n  dup2\n  mstore\n  0x04\n  add\n  0x20\n  mload(0x40)\n  dup1\n  dup4\n  sub\n  dup2\n  dup7\n  dup1\n  extcodesize\n  iszero\n    /* \"--CODEGEN--\":8:17   */\n  dup1\n    /* \"--CODEGEN--\":5:7   */\n  iszero\n  tag_5\n  jumpi\n    /* \"--CODEGEN--\":30:31   */\n  0x00\n    /* \"--CODEGEN--\":27:28   */\n  dup1\n    /* \"--CODEGEN--\":20:32   */\n  revert\n    /* \"--CODEGEN--\":5:7   */\ntag_5:\n    /* \"TimeAlly.sol\":3316:3327  token.mou() */\n  pop\n  gas\n  staticcall\n  iszero\n    /* \"--CODEGEN--\":8:17   */\n  dup1\n    /* \"--CODEGEN--\":5:7   */\n  iszero\n  tag_6\n  jumpi\n    /* \"--CODEGEN--\":45:61   */\n  returndatasize\n    /* \"--CODEGEN--\":42:43   */\n  0x00\n    /* \"--CODEGEN--\":39:40   */\n  dup1\n    /* \"--CODEGEN--\":24:62   */\n  returndatacopy\n    /* \"--CODEGEN--\":77:93   */\n  returndatasize\n    /* \"--CODEGEN--\":74:75   */\n  0x00\n    /* \"--CODEGEN--\":67:94   */\n  revert\n    /* \"--CODEGEN--\":5:7   */\ntag_6:\n    /* \"TimeAlly.sol\":3316:3327  token.mou() */\n  pop\n  pop\n  pop\n  pop\n  mload(0x40)\n  returndatasize\n    /* \"--CODEGEN--\":13:15   */\n  0x20\n    /* \"--CODEGEN--\":8:11   */\n  dup2\n    /* \"--CODEGEN--\":5:16   */\n  lt\n    /* \"--CODEGEN--\":2:4   */\n  iszero\n  tag_7\n  jumpi\n    /* \"--CODEGEN--\":29:30   */\n  0x00\n    /* \"--CODEGEN--\":26:27   */\n  dup1\n    /* \"--CODEGEN--\":19:31   */\n  revert\n    /* \"--CODEGEN--\":2:4   */\ntag_7:\n    /* \"TimeAlly.sol\":3316:3327  token.mou() */\n  dup2\n  add\n  swap1\n  dup1\n  dup1\n  mload\n  swap1\n  0x20\n  add\n  swap1\n  swap3\n  swap2\n  swap1\n  pop\n  pop\n  pop\n    /* \"TimeAlly.sol\":3296:3313  deployedTimestamp */\n  0x03\n    /* \"TimeAlly.sol\":3296:3327  deployedTimestamp = token.mou() */\n  dup2\n  swap1\n  sstore\n  pop\n    /* \"TimeAlly.sol\":3337:3355  timeAllyMonthlyNRT */\n  0x05\n    /* \"TimeAlly.sol\":3361:3362  0 */\n  0x00\n    /* \"TimeAlly.sol\":3337:3363  timeAllyMonthlyNRT.push(0) */\n  swap1\n  dup1\n    /* \"--CODEGEN--\":39:40   */\n  0x01\n    /* \"--CODEGEN--\":33:36   */\n  dup2\n    /* \"--CODEGEN--\":27:37   */\n  sload\n    /* \"--CODEGEN--\":23:41   */\n  add\n    /* \"--CODEGEN--\":57:67   */\n  dup1\n    /* \"--CODEGEN--\":52:55   */\n  dup3\n    /* \"--CODEGEN--\":45:68   */\n  sstore\n    /* \"--CODEGEN--\":79:89   */\n  dup1\n    /* \"--CODEGEN--\":72:89   */\n  swap2\n  pop\n    /* \"--CODEGEN--\":0:93   */\n  pop\n    /* \"TimeAlly.sol\":3337:3363  timeAllyMonthlyNRT.push(0) */\n  swap1\n  0x01\n  dup3\n  sub\n  swap1\n  0x00\n  mstore\n  keccak256(0x00, 0x20)\n  add\n  0x00\n  swap1\n  swap2\n  swap3\n  swap1\n  swap2\n  swap1\n  swap2\n  pop\n  sstore\n  pop\n    /* \"TimeAlly.sol\":3109:3370  constructor(address _tokenAddress, address _nrtAddress) public {... */\n  pop\n  pop\n    /* \"TimeAlly.sol\":245:28170  contract TimeAlly {... */\n  dataSize(sub_0)\n  dup1\n  dataOffset(sub_0)\n  0x00\n  codecopy\n  0x00\n  return\nstop\n\nsub_0: assembly {\n        /* \"TimeAlly.sol\":245:28170  contract TimeAlly {... */\n      mstore(0x40, 0x80)\n      callvalue\n        /* \"--CODEGEN--\":8:17   */\n      dup1\n        /* \"--CODEGEN--\":5:7   */\n      iszero\n      tag_1\n      jumpi\n        /* \"--CODEGEN--\":30:31   */\n      0x00\n        /* \"--CODEGEN--\":27:28   */\n      dup1\n        /* \"--CODEGEN--\":20:32   */\n      revert\n        /* \"--CODEGEN--\":5:7   */\n    tag_1:\n        /* \"TimeAlly.sol\":245:28170  contract TimeAlly {... */\n      pop\n      jumpi(tag_2, lt(calldatasize, 0x04))\n      shr(0xe0, calldataload(0x00))\n      dup1\n      0x911e8bc6\n      gt\n      tag_35\n      jumpi\n      dup1\n      0xda9d8aa0\n      gt\n      tag_36\n      jumpi\n      dup1\n      0xe78c81c4\n      gt\n      tag_37\n      jumpi\n      dup1\n      0xe78c81c4\n      eq\n      tag_31\n      jumpi\n      dup1\n      0xe83f7843\n      eq\n      tag_32\n      jumpi\n      dup1\n      0xeb12f7f5\n      eq\n      tag_33\n      jumpi\n      dup1\n      0xfc0c546a\n      eq\n      tag_34\n      jumpi\n      jump(tag_2)\n    tag_37:\n      dup1\n      0xda9d8aa0\n      eq\n      tag_27\n      jumpi\n      dup1\n      0xddd1b67e\n      eq\n      tag_28\n      jumpi\n      dup1\n      0xdea6cf43\n      eq\n      tag_29\n      jumpi\n      dup1\n      0xe5fd04e6\n      eq\n      tag_30\n      jumpi\n      jump(tag_2)\n    tag_36:\n      dup1\n      0xbe4ad9c3\n      gt\n      tag_38\n      jumpi\n      dup1\n      0xbe4ad9c3\n      eq\n      tag_23\n      jumpi\n      dup1\n      0xc71d5d58\n      eq\n      tag_24\n      jumpi\n      dup1\n      0xcc44a2fd\n      eq\n      tag_25\n      jumpi\n      dup1\n      0xd0e32681\n      eq\n      tag_26\n      jumpi\n      jump(tag_2)\n    tag_38:\n      dup1\n      0x911e8bc6\n      eq\n      tag_19\n      jumpi\n      dup1\n      0x97a332d8\n      eq\n      tag_20\n      jumpi\n      dup1\n      0xa4c0e90a\n      eq\n      tag_21\n      jumpi\n      dup1\n      0xad998fa0\n      eq\n      tag_22\n      jumpi\n      jump(tag_2)\n    tag_35:\n      dup1\n      0x4ec0692c\n      gt\n      tag_39\n      jumpi\n      dup1\n      0x7acab857\n      gt\n      tag_40\n      jumpi\n      dup1\n      0x7acab857\n      eq\n      tag_15\n      jumpi\n      dup1\n      0x82f97857\n      eq\n      tag_16\n      jumpi\n      dup1\n      0x88c5f296\n      eq\n      tag_17\n      jumpi\n      dup1\n      0x8da5cb5b\n      eq\n      tag_18\n      jumpi\n      jump(tag_2)\n    tag_40:\n      dup1\n      0x4ec0692c\n      eq\n      tag_11\n      jumpi\n      dup1\n      0x4f916fb0\n      eq\n      tag_12\n      jumpi\n      dup1\n      0x53fcb2f3\n      eq\n      tag_13\n      jumpi\n      dup1\n      0x762e7a34\n      eq\n      tag_14\n      jumpi\n      jump(tag_2)\n    tag_39:\n      dup1\n      0x2f3b59ea\n      gt\n      tag_41\n      jumpi\n      dup1\n      0x2f3b59ea\n      eq\n      tag_7\n      jumpi\n      dup1\n      0x35f406ab\n      eq\n      tag_8\n      jumpi\n      dup1\n      0x46a4d6e3\n      eq\n      tag_9\n      jumpi\n      dup1\n      0x497ec40f\n      eq\n      tag_10\n      jumpi\n      jump(tag_2)\n    tag_41:\n      dup1\n      0x0df5202f\n      eq\n      tag_3\n      jumpi\n      dup1\n      0x218e731f\n      eq\n      tag_4\n      jumpi\n      dup1\n      0x23a15e6b\n      eq\n      tag_5\n      jumpi\n      dup1\n      0x2e9721b6\n      eq\n      tag_6\n      jumpi\n    tag_2:\n      0x00\n      dup1\n      revert\n        /* \"TimeAlly.sol\":1167:1195  NRTManager public nrtManager */\n    tag_3:\n      tag_42\n      tag_43\n      jump\t// in\n    tag_42:\n      mload(0x40)\n      dup1\n      dup3\n      0xffffffffffffffffffffffffffffffffffffffff\n      and\n      0xffffffffffffffffffffffffffffffffffffffff\n      and\n      dup2\n      mstore\n      0x20\n      add\n      swap2\n      pop\n      pop\n      mload(0x40)\n      dup1\n      swap2\n      sub\n      swap1\n      return\n        /* \"TimeAlly.sol\":23440:24477  function updateNominee(uint256 _stakingId, address _nomineeAddress, uint256 _shares) public {... */\n    tag_4:\n      tag_44\n      0x04\n      dup1\n      calldatasize\n      sub\n        /* \"--CODEGEN--\":13:15   */\n      0x60\n        /* \"--CODEGEN--\":8:11   */\n      dup2\n        /* \"--CODEGEN--\":5:16   */\n      lt\n        /* \"--CODEGEN--\":2:4   */\n      iszero\n      tag_45\n      jumpi\n        /* \"--CODEGEN--\":29:30   */\n      0x00\n        /* \"--CODEGEN--\":26:27   */\n      dup1\n        /* \"--CODEGEN--\":19:31   */\n      revert\n        /* \"--CODEGEN--\":2:4   */\n    tag_45:\n        /* \"TimeAlly.sol\":23440:24477  function updateNominee(uint256 _stakingId, address _nomineeAddress, uint256 _shares) public {... */\n      dup2\n      add\n      swap1\n      dup1\n      dup1\n      calldataload\n      swap1\n      0x20\n      add\n      swap1\n      swap3\n      swap2\n      swap1\n      dup1\n      calldataload\n      0xffffffffffffffffffffffffffffffffffffffff\n      and\n      swap1\n      0x20\n      add\n      swap1\n      swap3\n      swap2\n      swap1\n      dup1\n      calldataload\n      swap1\n      0x20\n      add\n      swap1\n      swap3\n      swap2\n      swap1\n      pop\n      pop\n      pop\n      tag_46\n      jump\t// in\n    tag_44:\n      stop\n        /* \"TimeAlly.sol\":1312:1347  uint256[] public timeAllyMonthlyNRT */\n    tag_5:\n      tag_47\n      0x04\n      dup1\n      calldatasize\n      sub\n        /* \"--CODEGEN--\":13:15   */\n      0x20\n        /* \"--CODEGEN--\":8:11   */\n      dup2\n        /* \"--CODEGEN--\":5:16   */\n      lt\n        /* \"--CODEGEN--\":2:4   */\n      iszero\n      tag_48\n      jumpi\n        /* \"--CODEGEN--\":29:30   */\n      0x00\n        /* \"--CODEGEN--\":26:27   */\n      dup1\n        /* \"--CODEGEN--\":19:31   */\n      revert\n        /* \"--CODEGEN--\":2:4   */\n    tag_48:\n        /* \"TimeAlly.sol\":1312:1347  uint256[] public timeAllyMonthlyNRT */\n      dup2\n      add\n      swap1\n      dup1\n      dup1\n      calldataload\n      swap1\n      0x20\n      add\n      swap1\n      swap3\n      swap2\n      swap1\n      pop\n      pop\n      pop\n      tag_49\n      jump\t// in\n    tag_47:\n      mload(0x40)\n      dup1\n      dup3\n      dup2\n      mstore\n      0x20\n      add\n      swap2\n      pop\n      pop\n      mload(0x40)\n      dup1\n      swap2\n      sub\n      swap1\n      return\n        /* \"TimeAlly.sol\":23227:23434  function viewNomination(address _userAddress, uint256 _stakingId, address _nomineeAddress) public view returns (uint256) {... */\n    tag_6:\n      tag_50\n      0x04\n      dup1\n      calldatasize\n      sub\n        /* \"--CODEGEN--\":13:15   */\n      0x60\n        /* \"--CODEGEN--\":8:11   */\n      dup2\n        /* \"--CODEGEN--\":5:16   */\n      lt\n        /* \"--CODEGEN--\":2:4   */\n      iszero\n      tag_51\n      jumpi\n        /* \"--CODEGEN--\":29:30   */\n      0x00\n        /* \"--CODEGEN--\":26:27   */\n      dup1\n        /* \"--CODEGEN--\":19:31   */\n      revert\n        /* \"--CODEGEN--\":2:4   */\n    tag_51:\n        /* \"TimeAlly.sol\":23227:23434  function viewNomination(address _userAddress, uint256 _stakingId, address _nomineeAddress) public view returns (uint256) {... */\n      dup2\n      add\n      swap1\n      dup1\n      dup1\n      calldataload\n      0xffffffffffffffffffffffffffffffffffffffff\n      and\n      swap1\n      0x20\n      add\n      swap1\n      swap3\n      swap2\n      swap1\n      dup1\n      calldataload\n      swap1\n      0x20\n      add\n      swap1\n      swap3\n      swap2\n      swap1\n      dup1\n      calldataload\n      0xffffffffffffffffffffffffffffffffffffffff\n      and\n      swap1\n      0x20\n      add\n      swap1\n      swap3\n      swap2\n      swap1\n      pop\n      pop\n      pop\n      tag_52\n      jump\t// in\n    tag_50:\n      mload(0x40)\n      dup1\n      dup3\n      dup2\n      mstore\n      0x20\n      add\n      swap2\n      pop\n      pop\n      mload(0x40)\n      dup1\n      swap2\n      sub\n      swap1\n      return\n        /* \"TimeAlly.sol\":9679:10932  function seeShareForUserByMonth(address _userAddress, uint256 _atMonth) public view returns (uint256) {... */\n    tag_7:\n      tag_53\n      0x04\n      dup1\n      calldatasize\n      sub\n        /* \"--CODEGEN--\":13:15   */\n      0x40\n        /* \"--CODEGEN--\":8:11   */\n      dup2\n        /* \"--CODEGEN--\":5:16   */\n      lt\n        /* \"--CODEGEN--\":2:4   */\n      iszero\n      tag_54\n      jumpi\n        /* \"--CODEGEN--\":29:30   */\n      0x00\n        /* \"--CODEGEN--\":26:27   */\n      dup1\n        /* \"--CODEGEN--\":19:31   */\n      revert\n        /* \"--CODEGEN--\":2:4   */\n    tag_54:\n        /* \"TimeAlly.sol\":9679:10932  function seeShareForUserByMonth(address _userAddress, uint256 _atMonth) public view returns (uint256) {... */\n      dup2\n      add\n      swap1\n      dup1\n      dup1\n      calldataload\n      0xffffffffffffffffffffffffffffffffffffffff\n      and\n      swap1\n      0x20\n      add\n      swap1\n      swap3\n      swap2\n      swap1\n      dup1\n      calldataload\n      swap1\n      0x20\n      add\n      swap1\n      swap3\n      swap2\n      swap1\n      pop\n      pop\n      pop\n      tag_55\n      jump\t// in\n    tag_53:\n      mload(0x40)\n      dup1\n      dup3\n      dup2\n      mstore\n      0x20\n      add\n      swap2\n      pop\n      pop\n      mload(0x40)\n      dup1\n      swap2\n      sub\n      swap1\n      return\n        /* \"TimeAlly.sol\":10938:13180  function withdrawShareForUserByMonth(uint256 _atMonth, uint256 _accruedPercentage, bool _stakeAccruedNow, uint256 _accruedsStakingPlan) public {... */\n    tag_8:\n      tag_56\n      0x04\n      dup1\n      calldatasize\n      sub\n        /* \"--CODEGEN--\":13:16   */\n      0x80\n        /* \"--CODEGEN--\":8:11   */\n      dup2\n        /* \"--CODEGEN--\":5:17   */\n      lt\n        /* \"--CODEGEN--\":2:4   */\n      iszero\n      tag_57\n      jumpi\n        /* \"--CODEGEN--\":30:31   */\n      0x00\n        /* \"--CODEGEN--\":27:28   */\n      dup1\n        /* \"--CODEGEN--\":20:32   */\n      revert\n        /* \"--CODEGEN--\":2:4   */\n    tag_57:\n        /* \"TimeAlly.sol\":10938:13180  function withdrawShareForUserByMonth(uint256 _atMonth, uint256 _accruedPercentage, bool _stakeAccruedNow, uint256 _accruedsStakingPlan) public {... */\n      dup2\n      add\n      swap1\n      dup1\n      dup1\n      calldataload\n      swap1\n      0x20\n      add\n      swap1\n      swap3\n      swap2\n      swap1\n      dup1\n      calldataload\n      swap1\n      0x20\n      add\n      swap1\n      swap3\n      swap2\n      swap1\n      dup1\n      calldataload\n      iszero\n      iszero\n      swap1\n      0x20\n      add\n      swap1\n      swap3\n      swap2\n      swap1\n      dup1\n      calldataload\n      swap1\n      0x20\n      add\n      swap1\n      swap3\n      swap2\n      swap1\n      pop\n      pop\n      pop\n      tag_58\n      jump\t// in\n    tag_56:\n      stop\n        /* \"TimeAlly.sol\":5424:5975  function viewStaking(... */\n    tag_9:\n      tag_59\n      0x04\n      dup1\n      calldatasize\n      sub\n        /* \"--CODEGEN--\":13:15   */\n      0x40\n        /* \"--CODEGEN--\":8:11   */\n      dup2\n        /* \"--CODEGEN--\":5:16   */\n      lt\n        /* \"--CODEGEN--\":2:4   */\n      iszero\n      tag_60\n      jumpi\n        /* \"--CODEGEN--\":29:30   */\n      0x00\n        /* \"--CODEGEN--\":26:27   */\n      dup1\n        /* \"--CODEGEN--\":19:31   */\n      revert\n        /* \"--CODEGEN--\":2:4   */\n    tag_60:\n        /* \"TimeAlly.sol\":5424:5975  function viewStaking(... */\n      dup2\n      add\n      swap1\n      dup1\n      dup1\n      calldataload\n      0xffffffffffffffffffffffffffffffffffffffff\n      and\n      swap1\n      0x20\n      add\n      swap1\n      swap3\n      swap2\n      swap1\n      dup1\n      calldataload\n      swap1\n      0x20\n      add\n      swap1\n      swap3\n      swap2\n      swap1\n      pop\n      pop\n      pop\n      tag_61\n      jump\t// in\n    tag_59:\n      mload(0x40)\n      dup1\n      dup8\n      dup2\n      mstore\n      0x20\n      add\n      dup7\n      dup2\n      mstore\n      0x20\n      add\n      dup6\n      dup2\n      mstore\n      0x20\n      add\n      dup5\n      dup2\n      mstore\n      0x20\n      add\n      dup4\n      dup2\n      mstore\n      0x20\n      add\n      dup3\n      dup2\n      mstore\n      0x20\n      add\n      swap7\n      pop\n      pop\n      pop\n      pop\n      pop\n      pop\n      pop\n      mload(0x40)\n      dup1\n      swap2\n      sub\n      swap1\n      return\n        /* \"TimeAlly.sol\":16811:16927  function timeAllyMonthlyNRTArray() public view returns (uint256[] memory) {... */\n    tag_10:\n      tag_62\n      tag_63\n      jump\t// in\n    tag_62:\n      mload(0x40)\n      dup1\n      dup1\n      0x20\n      add\n      dup3\n      dup2\n      sub\n      dup3\n      mstore\n      dup4\n      dup2\n      dup2\n      mload\n      dup2\n      mstore\n      0x20\n      add\n      swap2\n      pop\n      dup1\n      mload\n      swap1\n      0x20\n      add\n      swap1\n      0x20\n      mul\n      dup1\n      dup4\n      dup4\n        /* \"--CODEGEN--\":23:24   */\n      0x00\n        /* \"--CODEGEN--\":8:108   */\n    tag_64:\n        /* \"--CODEGEN--\":33:36   */\n      dup4\n        /* \"--CODEGEN--\":30:31   */\n      dup2\n        /* \"--CODEGEN--\":27:37   */\n      lt\n        /* \"--CODEGEN--\":8:108   */\n      iszero\n      tag_66\n      jumpi\n        /* \"--CODEGEN--\":99:100   */\n      dup1\n        /* \"--CODEGEN--\":94:97   */\n      dup3\n        /* \"--CODEGEN--\":90:101   */\n      add\n        /* \"--CODEGEN--\":84:102   */\n      mload\n        /* \"--CODEGEN--\":80:81   */\n      dup2\n        /* \"--CODEGEN--\":75:78   */\n      dup5\n        /* \"--CODEGEN--\":71:82   */\n      add\n        /* \"--CODEGEN--\":64:103   */\n      mstore\n        /* \"--CODEGEN--\":52:54   */\n      0x20\n        /* \"--CODEGEN--\":49:50   */\n      dup2\n        /* \"--CODEGEN--\":45:55   */\n      add\n        /* \"--CODEGEN--\":40:55   */\n      swap1\n      pop\n        /* \"--CODEGEN--\":8:108   */\n      jump(tag_64)\n    tag_66:\n        /* \"--CODEGEN--\":12:26   */\n      pop\n        /* \"TimeAlly.sol\":16811:16927  function timeAllyMonthlyNRTArray() public view returns (uint256[] memory) {... */\n      pop\n      pop\n      pop\n      swap1\n      pop\n      add\n      swap3\n      pop\n      pop\n      pop\n      mload(0x40)\n      dup1\n      swap2\n      sub\n      swap1\n      return\n        /* \"TimeAlly.sol\":1711:1766  mapping (uint256 => uint256) public totalActiveStakings */\n    tag_11:\n      tag_67\n      0x04\n      dup1\n      calldatasize\n      sub\n        /* \"--CODEGEN--\":13:15   */\n      0x20\n        /* \"--CODEGEN--\":8:11   */\n      dup2\n        /* \"--CODEGEN--\":5:16   */\n      lt\n        /* \"--CODEGEN--\":2:4   */\n      iszero\n      tag_68\n      jumpi\n        /* \"--CODEGEN--\":29:30   */\n      0x00\n        /* \"--CODEGEN--\":26:27   */\n      dup1\n        /* \"--CODEGEN--\":19:31   */\n      revert\n        /* \"--CODEGEN--\":2:4   */\n    tag_68:\n        /* \"TimeAlly.sol\":1711:1766  mapping (uint256 => uint256) public totalActiveStakings */\n      dup2\n      add\n      swap1\n      dup1\n      dup1\n      calldataload\n      swap1\n      0x20\n      add\n      swap1\n      swap3\n      swap2\n      swap1\n      pop\n      pop\n      pop\n      tag_69\n      jump\t// in\n    tag_67:\n      mload(0x40)\n      dup1\n      dup3\n      dup2\n      mstore\n      0x20\n      add\n      swap2\n      pop\n      pop\n      mload(0x40)\n      dup1\n      swap2\n      sub\n      swap1\n      return\n        /* \"TimeAlly.sol\":24483:24950  function removeNominee(uint256 _stakingId, address _nomineeAddress) public {... */\n    tag_12:\n      tag_70\n      0x04\n      dup1\n      calldatasize\n      sub\n        /* \"--CODEGEN--\":13:15   */\n      0x40\n        /* \"--CODEGEN--\":8:11   */\n      dup2\n        /* \"--CODEGEN--\":5:16   */\n      lt\n        /* \"--CODEGEN--\":2:4   */\n      iszero\n      tag_71\n      jumpi\n        /* \"--CODEGEN--\":29:30   */\n      0x00\n        /* \"--CODEGEN--\":26:27   */\n      dup1\n        /* \"--CODEGEN--\":19:31   */\n      revert\n        /* \"--CODEGEN--\":2:4   */\n    tag_71:\n        /* \"TimeAlly.sol\":24483:24950  function removeNominee(uint256 _stakingId, address _nomineeAddress) public {... */\n      dup2\n      add\n      swap1\n      dup1\n      dup1\n      calldataload\n      swap1\n      0x20\n      add\n      swap1\n      swap3\n      swap2\n      swap1\n      dup1\n      calldataload\n      0xffffffffffffffffffffffffffffffffffffffff\n      and\n      swap1\n      0x20\n      add\n      swap1\n      swap3\n      swap2\n      swap1\n      pop\n      pop\n      pop\n      tag_72\n      jump\t// in\n    tag_70:\n      stop\n        /* \"TimeAlly.sol\":5981:6270  function topupRewardBucket(uint256 _exaEsAmount) public {... */\n    tag_13:\n      tag_73\n      0x04\n      dup1\n      calldatasize\n      sub\n        /* \"--CODEGEN--\":13:15   */\n      0x20\n        /* \"--CODEGEN--\":8:11   */\n      dup2\n        /* \"--CODEGEN--\":5:16   */\n      lt\n        /* \"--CODEGEN--\":2:4   */\n      iszero\n      tag_74\n      jumpi\n        /* \"--CODEGEN--\":29:30   */\n      0x00\n        /* \"--CODEGEN--\":26:27   */\n      dup1\n        /* \"--CODEGEN--\":19:31   */\n      revert\n        /* \"--CODEGEN--\":2:4   */\n    tag_74:\n        /* \"TimeAlly.sol\":5981:6270  function topupRewardBucket(uint256 _exaEsAmount) public {... */\n      dup2\n      add\n      swap1\n      dup1\n      dup1\n      calldataload\n      swap1\n      0x20\n      add\n      swap1\n      swap3\n      swap2\n      swap1\n      pop\n      pop\n      pop\n      tag_75\n      jump\t// in\n    tag_73:\n      stop\n        /* \"TimeAlly.sol\":1461:1494  StakingPlan[] public stakingPlans */\n    tag_14:\n      tag_76\n      0x04\n      dup1\n      calldatasize\n      sub\n        /* \"--CODEGEN--\":13:15   */\n      0x20\n        /* \"--CODEGEN--\":8:11   */\n      dup2\n        /* \"--CODEGEN--\":5:16   */\n      lt\n        /* \"--CODEGEN--\":2:4   */\n      iszero\n      tag_77\n      jumpi\n        /* \"--CODEGEN--\":29:30   */\n      0x00\n        /* \"--CODEGEN--\":26:27   */\n      dup1\n        /* \"--CODEGEN--\":19:31   */\n      revert\n        /* \"--CODEGEN--\":2:4   */\n    tag_77:\n        /* \"TimeAlly.sol\":1461:1494  StakingPlan[] public stakingPlans */\n      dup2\n      add\n      swap1\n      dup1\n      dup1\n      calldataload\n      swap1\n      0x20\n      add\n      swap1\n      swap3\n      swap2\n      swap1\n      pop\n      pop\n      pop\n      tag_78\n      jump\t// in\n    tag_76:\n      mload(0x40)\n      dup1\n      dup4\n      dup2\n      mstore\n      0x20\n      add\n      dup3\n      dup2\n      mstore\n      0x20\n      add\n      swap3\n      pop\n      pop\n      pop\n      mload(0x40)\n      dup1\n      swap2\n      sub\n      swap1\n      return\n        /* \"TimeAlly.sol\":1807:1854  mapping(address => uint256) public launchReward */\n    tag_15:\n      tag_79\n      0x04\n      dup1\n      calldatasize\n      sub\n        /* \"--CODEGEN--\":13:15   */\n      0x20\n        /* \"--CODEGEN--\":8:11   */\n      dup2\n        /* \"--CODEGEN--\":5:16   */\n      lt\n        /* \"--CODEGEN--\":2:4   */\n      iszero\n      tag_80\n      jumpi\n        /* \"--CODEGEN--\":29:30   */\n      0x00\n        /* \"--CODEGEN--\":26:27   */\n      dup1\n        /* \"--CODEGEN--\":19:31   */\n      revert\n        /* \"--CODEGEN--\":2:4   */\n    tag_80:\n        /* \"TimeAlly.sol\":1807:1854  mapping(address => uint256) public launchReward */\n      dup2\n      add\n      swap1\n      dup1\n      dup1\n      calldataload\n      0xffffffffffffffffffffffffffffffffffffffff\n      and\n      swap1\n      0x20\n      add\n      swap1\n      swap3\n      swap2\n      swap1\n      pop\n      pop\n      pop\n      tag_81\n      jump\t// in\n    tag_79:\n      mload(0x40)\n      dup1\n      dup3\n      dup2\n      mstore\n      0x20\n      add\n      swap2\n      pop\n      pop\n      mload(0x40)\n      dup1\n      swap2\n      sub\n      swap1\n      return\n        /* \"TimeAlly.sol\":3844:4048  function createLoanPlan(uint256 _loanMonths, uint256 _loanRate) public onlyOwner {... */\n    tag_16:\n      tag_82\n      0x04\n      dup1\n      calldatasize\n      sub\n        /* \"--CODEGEN--\":13:15   */\n      0x40\n        /* \"--CODEGEN--\":8:11   */\n      dup2\n        /* \"--CODEGEN--\":5:16   */\n      lt\n        /* \"--CODEGEN--\":2:4   */\n      iszero\n      tag_83\n      jumpi\n        /* \"--CODEGEN--\":29:30   */\n      0x00\n        /* \"--CODEGEN--\":26:27   */\n      dup1\n        /* \"--CODEGEN--\":19:31   */\n      revert\n        /* \"--CODEGEN--\":2:4   */\n    tag_83:\n        /* \"TimeAlly.sol\":3844:4048  function createLoanPlan(uint256 _loanMonths, uint256 _loanRate) public onlyOwner {... */\n      dup2\n      add\n      swap1\n      dup1\n      dup1\n      calldataload\n      swap1\n      0x20\n      add\n      swap1\n      swap3\n      swap2\n      swap1\n      dup1\n      calldataload\n      swap1\n      0x20\n      add\n      swap1\n      swap3\n      swap2\n      swap1\n      pop\n      pop\n      pop\n      tag_84\n      jump\t// in\n    tag_82:\n      stop\n        /* \"TimeAlly.sol\":6276:6646  function giveLaunchReward(address[] memory _addresses, uint256[] memory _exaEsAmountArray) public onlyOwner {... */\n    tag_17:\n      tag_85\n      0x04\n      dup1\n      calldatasize\n      sub\n        /* \"--CODEGEN--\":13:15   */\n      0x40\n        /* \"--CODEGEN--\":8:11   */\n      dup2\n        /* \"--CODEGEN--\":5:16   */\n      lt\n        /* \"--CODEGEN--\":2:4   */\n      iszero\n      tag_86\n      jumpi\n        /* \"--CODEGEN--\":29:30   */\n      0x00\n        /* \"--CODEGEN--\":26:27   */\n      dup1\n        /* \"--CODEGEN--\":19:31   */\n      revert\n        /* \"--CODEGEN--\":2:4   */\n    tag_86:\n        /* \"TimeAlly.sol\":6276:6646  function giveLaunchReward(address[] memory _addresses, uint256[] memory _exaEsAmountArray) public onlyOwner {... */\n      dup2\n      add\n      swap1\n      dup1\n      dup1\n      calldataload\n      swap1\n      0x20\n      add\n      swap1\n        /* \"--CODEGEN--\":21:32   */\n      0x0100000000\n        /* \"--CODEGEN--\":8:19   */\n      dup2\n        /* \"--CODEGEN--\":5:33   */\n      gt\n        /* \"--CODEGEN--\":2:4   */\n      iszero\n      tag_87\n      jumpi\n        /* \"--CODEGEN--\":46:47   */\n      0x00\n        /* \"--CODEGEN--\":43:44   */\n      dup1\n        /* \"--CODEGEN--\":36:48   */\n      revert\n        /* \"--CODEGEN--\":2:4   */\n    tag_87:\n        /* \"TimeAlly.sol\":6276:6646  function giveLaunchReward(address[] memory _addresses, uint256[] memory _exaEsAmountArray) public onlyOwner {... */\n      dup3\n      add\n        /* \"--CODEGEN--\":35:44   */\n      dup4\n        /* \"--CODEGEN--\":28:32   */\n      0x20\n        /* \"--CODEGEN--\":12:26   */\n      dup3\n        /* \"--CODEGEN--\":8:33   */\n      add\n        /* \"--CODEGEN--\":5:45   */\n      gt\n        /* \"--CODEGEN--\":2:4   */\n      iszero\n      tag_88\n      jumpi\n        /* \"--CODEGEN--\":58:59   */\n      0x00\n        /* \"--CODEGEN--\":55:56   */\n      dup1\n        /* \"--CODEGEN--\":48:60   */\n      revert\n        /* \"--CODEGEN--\":2:4   */\n    tag_88:\n        /* \"TimeAlly.sol\":6276:6646  function giveLaunchReward(address[] memory _addresses, uint256[] memory _exaEsAmountArray) public onlyOwner {... */\n      dup1\n      calldataload\n      swap1\n      0x20\n      add\n      swap2\n        /* \"--CODEGEN--\":101:110   */\n      dup5\n        /* \"--CODEGEN--\":95:97   */\n      0x20\n        /* \"--CODEGEN--\":81:93   */\n      dup4\n        /* \"--CODEGEN--\":77:98   */\n      mul\n        /* \"--CODEGEN--\":67:75   */\n      dup5\n        /* \"--CODEGEN--\":63:99   */\n      add\n        /* \"--CODEGEN--\":60:111   */\n      gt\n        /* \"--CODEGEN--\":39:50   */\n      0x0100000000\n        /* \"--CODEGEN--\":25:37   */\n      dup4\n        /* \"--CODEGEN--\":22:51   */\n      gt\n        /* \"--CODEGEN--\":11:119   */\n      or\n        /* \"--CODEGEN--\":8:10   */\n      iszero\n      tag_89\n      jumpi\n        /* \"--CODEGEN--\":132:133   */\n      0x00\n        /* \"--CODEGEN--\":129:130   */\n      dup1\n        /* \"--CODEGEN--\":122:134   */\n      revert\n        /* \"--CODEGEN--\":8:10   */\n    tag_89:\n        /* \"TimeAlly.sol\":6276:6646  function giveLaunchReward(address[] memory _addresses, uint256[] memory _exaEsAmountArray) public onlyOwner {... */\n      swap2\n      swap1\n      dup1\n      dup1\n      0x20\n      mul\n      0x20\n      add\n      mload(0x40)\n      swap1\n      dup2\n      add\n      0x40\n      mstore\n      dup1\n      swap4\n      swap3\n      swap2\n      swap1\n      dup2\n      dup2\n      mstore\n      0x20\n      add\n      dup4\n      dup4\n      0x20\n      mul\n        /* \"--CODEGEN--\":30:33   */\n      dup1\n        /* \"--CODEGEN--\":22:28   */\n      dup3\n        /* \"--CODEGEN--\":14:20   */\n      dup5\n        /* \"--CODEGEN--\":1:34   */\n      calldatacopy\n        /* \"--CODEGEN--\":99:100   */\n      0x00\n        /* \"--CODEGEN--\":93:96   */\n      dup2\n        /* \"--CODEGEN--\":85:91   */\n      dup5\n        /* \"--CODEGEN--\":81:97   */\n      add\n        /* \"--CODEGEN--\":74:101   */\n      mstore\n        /* \"--CODEGEN--\":137:141   */\n      0x1f\n        /* \"--CODEGEN--\":133:142   */\n      not\n        /* \"--CODEGEN--\":126:130   */\n      0x1f\n        /* \"--CODEGEN--\":121:124   */\n      dup3\n        /* \"--CODEGEN--\":117:131   */\n      add\n        /* \"--CODEGEN--\":113:143   */\n      and\n        /* \"--CODEGEN--\":106:143   */\n      swap1\n      pop\n        /* \"--CODEGEN--\":169:172   */\n      dup1\n        /* \"--CODEGEN--\":161:167   */\n      dup4\n        /* \"--CODEGEN--\":157:173   */\n      add\n        /* \"--CODEGEN--\":147:173   */\n      swap3\n      pop\n        /* \"TimeAlly.sol\":6276:6646  function giveLaunchReward(address[] memory _addresses, uint256[] memory _exaEsAmountArray) public onlyOwner {... */\n      pop\n      pop\n      pop\n      pop\n      pop\n      pop\n      swap2\n      swap3\n      swap2\n      swap3\n      swap1\n      dup1\n      calldataload\n      swap1\n      0x20\n      add\n      swap1\n        /* \"--CODEGEN--\":21:32   */\n      0x0100000000\n        /* \"--CODEGEN--\":8:19   */\n      dup2\n        /* \"--CODEGEN--\":5:33   */\n      gt\n        /* \"--CODEGEN--\":2:4   */\n      iszero\n      tag_90\n      jumpi\n        /* \"--CODEGEN--\":46:47   */\n      0x00\n        /* \"--CODEGEN--\":43:44   */\n      dup1\n        /* \"--CODEGEN--\":36:48   */\n      revert\n        /* \"--CODEGEN--\":2:4   */\n    tag_90:\n        /* \"TimeAlly.sol\":6276:6646  function giveLaunchReward(address[] memory _addresses, uint256[] memory _exaEsAmountArray) public onlyOwner {... */\n      dup3\n      add\n        /* \"--CODEGEN--\":35:44   */\n      dup4\n        /* \"--CODEGEN--\":28:32   */\n      0x20\n        /* \"--CODEGEN--\":12:26   */\n      dup3\n        /* \"--CODEGEN--\":8:33   */\n      add\n        /* \"--CODEGEN--\":5:45   */\n      gt\n        /* \"--CODEGEN--\":2:4   */\n      iszero\n      tag_91\n      jumpi\n        /* \"--CODEGEN--\":58:59   */\n      0x00\n        /* \"--CODEGEN--\":55:56   */\n      dup1\n        /* \"--CODEGEN--\":48:60   */\n      revert\n        /* \"--CODEGEN--\":2:4   */\n    tag_91:\n        /* \"TimeAlly.sol\":6276:6646  function giveLaunchReward(address[] memory _addresses, uint256[] memory _exaEsAmountArray) public onlyOwner {... */\n      dup1\n      calldataload\n      swap1\n      0x20\n      add\n      swap2\n        /* \"--CODEGEN--\":101:110   */\n      dup5\n        /* \"--CODEGEN--\":95:97   */\n      0x20\n        /* \"--CODEGEN--\":81:93   */\n      dup4\n        /* \"--CODEGEN--\":77:98   */\n      mul\n        /* \"--CODEGEN--\":67:75   */\n      dup5\n        /* \"--CODEGEN--\":63:99   */\n      add\n        /* \"--CODEGEN--\":60:111   */\n      gt\n        /* \"--CODEGEN--\":39:50   */\n      0x0100000000\n        /* \"--CODEGEN--\":25:37   */\n      dup4\n        /* \"--CODEGEN--\":22:51   */\n      gt\n        /* \"--CODEGEN--\":11:119   */\n      or\n        /* \"--CODEGEN--\":8:10   */\n      iszero\n      tag_92\n      jumpi\n        /* \"--CODEGEN--\":132:133   */\n      0x00\n        /* \"--CODEGEN--\":129:130   */\n      dup1\n        /* \"--CODEGEN--\":122:134   */\n      revert\n        /* \"--CODEGEN--\":8:10   */\n    tag_92:\n        /* \"TimeAlly.sol\":6276:6646  function giveLaunchReward(address[] memory _addresses, uint256[] memory _exaEsAmountArray) public onlyOwner {... */\n      swap2\n      swap1\n      dup1\n      dup1\n      0x20\n      mul\n      0x20\n      add\n      mload(0x40)\n      swap1\n      dup2\n      add\n      0x40\n      mstore\n      dup1\n      swap4\n      swap3\n      swap2\n      swap1\n      dup2\n      dup2\n      mstore\n      0x20\n      add\n      dup4\n      dup4\n      0x20\n      mul\n        /* \"--CODEGEN--\":30:33   */\n      dup1\n        /* \"--CODEGEN--\":22:28   */\n      dup3\n        /* \"--CODEGEN--\":14:20   */\n      dup5\n        /* \"--CODEGEN--\":1:34   */\n      calldatacopy\n        /* \"--CODEGEN--\":99:100   */\n      0x00\n        /* \"--CODEGEN--\":93:96   */\n      dup2\n        /* \"--CODEGEN--\":85:91   */\n      dup5\n        /* \"--CODEGEN--\":81:97   */\n      add\n        /* \"--CODEGEN--\":74:101   */\n      mstore\n        /* \"--CODEGEN--\":137:141   */\n      0x1f\n        /* \"--CODEGEN--\":133:142   */\n      not\n        /* \"--CODEGEN--\":126:130   */\n      0x1f\n        /* \"--CODEGEN--\":121:124   */\n      dup3\n        /* \"--CODEGEN--\":117:131   */\n      add\n        /* \"--CODEGEN--\":113:143   */\n      and\n        /* \"--CODEGEN--\":106:143   */\n      swap1\n      pop\n        /* \"--CODEGEN--\":169:172   */\n      dup1\n        /* \"--CODEGEN--\":161:167   */\n      dup4\n        /* \"--CODEGEN--\":157:173   */\n      add\n        /* \"--CODEGEN--\":147:173   */\n      swap3\n      pop\n        /* \"TimeAlly.sol\":6276:6646  function giveLaunchReward(address[] memory _addresses, uint256[] memory _exaEsAmountArray) public onlyOwner {... */\n      pop\n      pop\n      pop\n      pop\n      pop\n      pop\n      swap2\n      swap3\n      swap2\n      swap3\n      swap1\n      pop\n      pop\n      pop\n      tag_93\n      jump\t// in\n    tag_85:\n      stop\n        /* \"TimeAlly.sol\":1115:1135  address public owner */\n    tag_18:\n      tag_94\n      tag_95\n      jump\t// in\n    tag_94:\n      mload(0x40)\n      dup1\n      dup3\n      0xffffffffffffffffffffffffffffffffffffffff\n      and\n      0xffffffffffffffffffffffffffffffffffffffff\n      and\n      dup2\n      mstore\n      0x20\n      add\n      swap2\n      pop\n      pop\n      mload(0x40)\n      dup1\n      swap2\n      sub\n      swap1\n      return\n        /* \"TimeAlly.sol\":24956:28168  function nomineeWithdraw(address _userAddress, uint256 _stakingId) public {... */\n    tag_19:\n      tag_96\n      0x04\n      dup1\n      calldatasize\n      sub\n        /* \"--CODEGEN--\":13:15   */\n      0x40\n        /* \"--CODEGEN--\":8:11   */\n      dup2\n        /* \"--CODEGEN--\":5:16   */\n      lt\n        /* \"--CODEGEN--\":2:4   */\n      iszero\n      tag_97\n      jumpi\n        /* \"--CODEGEN--\":29:30   */\n      0x00\n        /* \"--CODEGEN--\":26:27   */\n      dup1\n        /* \"--CODEGEN--\":19:31   */\n      revert\n        /* \"--CODEGEN--\":2:4   */\n    tag_97:\n        /* \"TimeAlly.sol\":24956:28168  function nomineeWithdraw(address _userAddress, uint256 _stakingId) public {... */\n      dup2\n      add\n      swap1\n      dup1\n      dup1\n      calldataload\n      0xffffffffffffffffffffffffffffffffffffffff\n      and\n      swap1\n      0x20\n      add\n      swap1\n      swap3\n      swap2\n      swap1\n      dup1\n      calldataload\n      swap1\n      0x20\n      add\n      swap1\n      swap3\n      swap2\n      swap1\n      pop\n      pop\n      pop\n      tag_98\n      jump\t// in\n    tag_96:\n      stop\n        /* \"TimeAlly.sol\":7903:8612  function isStakingActive(address _userAddress, uint256 _stakingId, uint256 _currentMonth, uint256 _atMonth) public view returns (bool) {... */\n    tag_20:\n      tag_99\n      0x04\n      dup1\n      calldatasize\n      sub\n        /* \"--CODEGEN--\":13:16   */\n      0x80\n        /* \"--CODEGEN--\":8:11   */\n      dup2\n        /* \"--CODEGEN--\":5:17   */\n      lt\n        /* \"--CODEGEN--\":2:4   */\n      iszero\n      tag_100\n      jumpi\n        /* \"--CODEGEN--\":30:31   */\n      0x00\n        /* \"--CODEGEN--\":27:28   */\n      dup1\n        /* \"--CODEGEN--\":20:32   */\n      revert\n        /* \"--CODEGEN--\":2:4   */\n    tag_100:\n        /* \"TimeAlly.sol\":7903:8612  function isStakingActive(address _userAddress, uint256 _stakingId, uint256 _currentMonth, uint256 _atMonth) public view returns (bool) {... */\n      dup2\n      add\n      swap1\n      dup1\n      dup1\n      calldataload\n      0xffffffffffffffffffffffffffffffffffffffff\n      and\n      swap1\n      0x20\n      add\n      swap1\n      swap3\n      swap2\n      swap1\n      dup1\n      calldataload\n      swap1\n      0x20\n      add\n      swap1\n      swap3\n      swap2\n      swap1\n      dup1\n      calldataload\n      swap1\n      0x20\n      add\n      swap1\n      swap3\n      swap2\n      swap1\n      dup1\n      calldataload\n      swap1\n      0x20\n      add\n      swap1\n      swap3\n      swap2\n      swap1\n      pop\n      pop\n      pop\n      tag_101\n      jump\t// in\n    tag_99:\n      mload(0x40)\n      dup1\n      dup3\n      iszero\n      iszero\n      iszero\n      iszero\n      dup2\n      mstore\n      0x20\n      add\n      swap2\n      pop\n      pop\n      mload(0x40)\n      dup1\n      swap2\n      sub\n      swap1\n      return\n        /* \"TimeAlly.sol\":22640:23221  function addNominee(uint256 _stakingId, address _nomineeAddress, uint256 _shares) public {... */\n    tag_21:\n      tag_102\n      0x04\n      dup1\n      calldatasize\n      sub\n        /* \"--CODEGEN--\":13:15   */\n      0x60\n        /* \"--CODEGEN--\":8:11   */\n      dup2\n        /* \"--CODEGEN--\":5:16   */\n      lt\n        /* \"--CODEGEN--\":2:4   */\n      iszero\n      tag_103\n      jumpi\n        /* \"--CODEGEN--\":29:30   */\n      0x00\n        /* \"--CODEGEN--\":26:27   */\n      dup1\n        /* \"--CODEGEN--\":19:31   */\n      revert\n        /* \"--CODEGEN--\":2:4   */\n    tag_103:\n        /* \"TimeAlly.sol\":22640:23221  function addNominee(uint256 _stakingId, address _nomineeAddress, uint256 _shares) public {... */\n      dup2\n      add\n      swap1\n      dup1\n      dup1\n      calldataload\n      swap1\n      0x20\n      add\n      swap1\n      swap3\n      swap2\n      swap1\n      dup1\n      calldataload\n      0xffffffffffffffffffffffffffffffffffffffff\n      and\n      swap1\n      0x20\n      add\n      swap1\n      swap3\n      swap2\n      swap1\n      dup1\n      calldataload\n      swap1\n      0x20\n      add\n      swap1\n      swap3\n      swap2\n      swap1\n      pop\n      pop\n      pop\n      tag_104\n      jump\t// in\n    tag_102:\n      stop\n        /* \"TimeAlly.sol\":5249:5389  function getNumberOfStakingsByUser(address _userAddress) public view returns (uint256) {... */\n    tag_22:\n      tag_105\n      0x04\n      dup1\n      calldatasize\n      sub\n        /* \"--CODEGEN--\":13:15   */\n      0x20\n        /* \"--CODEGEN--\":8:11   */\n      dup2\n        /* \"--CODEGEN--\":5:16   */\n      lt\n        /* \"--CODEGEN--\":2:4   */\n      iszero\n      tag_106\n      jumpi\n        /* \"--CODEGEN--\":29:30   */\n      0x00\n        /* \"--CODEGEN--\":26:27   */\n      dup1\n        /* \"--CODEGEN--\":19:31   */\n      revert\n        /* \"--CODEGEN--\":2:4   */\n    tag_106:\n        /* \"TimeAlly.sol\":5249:5389  function getNumberOfStakingsByUser(address _userAddress) public view returns (uint256) {... */\n      dup2\n      add\n      swap1\n      dup1\n      dup1\n      calldataload\n      0xffffffffffffffffffffffffffffffffffffffff\n      and\n      swap1\n      0x20\n      add\n      swap1\n      swap3\n      swap2\n      swap1\n      pop\n      pop\n      pop\n      tag_107\n      jump\t// in\n    tag_105:\n      mload(0x40)\n      dup1\n      dup3\n      dup2\n      mstore\n      0x20\n      add\n      swap2\n      pop\n      pop\n      mload(0x40)\n      dup1\n      swap2\n      sub\n      swap1\n      return\n        /* \"TimeAlly.sol\":16933:17959  function seeMaxLoaningAmountOnUserStakings(address _userAddress, uint256[] memory _stakingIds) public view returns (uint256) {... */\n    tag_23:\n      tag_108\n      0x04\n      dup1\n      calldatasize\n      sub\n        /* \"--CODEGEN--\":13:15   */\n      0x40\n        /* \"--CODEGEN--\":8:11   */\n      dup2\n        /* \"--CODEGEN--\":5:16   */\n      lt\n        /* \"--CODEGEN--\":2:4   */\n      iszero\n      tag_109\n      jumpi\n        /* \"--CODEGEN--\":29:30   */\n      0x00\n        /* \"--CODEGEN--\":26:27   */\n      dup1\n        /* \"--CODEGEN--\":19:31   */\n      revert\n        /* \"--CODEGEN--\":2:4   */\n    tag_109:\n        /* \"TimeAlly.sol\":16933:17959  function seeMaxLoaningAmountOnUserStakings(address _userAddress, uint256[] memory _stakingIds) public view returns (uint256) {... */\n      dup2\n      add\n      swap1\n      dup1\n      dup1\n      calldataload\n      0xffffffffffffffffffffffffffffffffffffffff\n      and\n      swap1\n      0x20\n      add\n      swap1\n      swap3\n      swap2\n      swap1\n      dup1\n      calldataload\n      swap1\n      0x20\n      add\n      swap1\n        /* \"--CODEGEN--\":21:32   */\n      0x0100000000\n        /* \"--CODEGEN--\":8:19   */\n      dup2\n        /* \"--CODEGEN--\":5:33   */\n      gt\n        /* \"--CODEGEN--\":2:4   */\n      iszero\n      tag_110\n      jumpi\n        /* \"--CODEGEN--\":46:47   */\n      0x00\n        /* \"--CODEGEN--\":43:44   */\n      dup1\n        /* \"--CODEGEN--\":36:48   */\n      revert\n        /* \"--CODEGEN--\":2:4   */\n    tag_110:\n        /* \"TimeAlly.sol\":16933:17959  function seeMaxLoaningAmountOnUserStakings(address _userAddress, uint256[] memory _stakingIds) public view returns (uint256) {... */\n      dup3\n      add\n        /* \"--CODEGEN--\":35:44   */\n      dup4\n        /* \"--CODEGEN--\":28:32   */\n      0x20\n        /* \"--CODEGEN--\":12:26   */\n      dup3\n        /* \"--CODEGEN--\":8:33   */\n      add\n        /* \"--CODEGEN--\":5:45   */\n      gt\n        /* \"--CODEGEN--\":2:4   */\n      iszero\n      tag_111\n      jumpi\n        /* \"--CODEGEN--\":58:59   */\n      0x00\n        /* \"--CODEGEN--\":55:56   */\n      dup1\n        /* \"--CODEGEN--\":48:60   */\n      revert\n        /* \"--CODEGEN--\":2:4   */\n    tag_111:\n        /* \"TimeAlly.sol\":16933:17959  function seeMaxLoaningAmountOnUserStakings(address _userAddress, uint256[] memory _stakingIds) public view returns (uint256) {... */\n      dup1\n      calldataload\n      swap1\n      0x20\n      add\n      swap2\n        /* \"--CODEGEN--\":101:110   */\n      dup5\n        /* \"--CODEGEN--\":95:97   */\n      0x20\n        /* \"--CODEGEN--\":81:93   */\n      dup4\n        /* \"--CODEGEN--\":77:98   */\n      mul\n        /* \"--CODEGEN--\":67:75   */\n      dup5\n        /* \"--CODEGEN--\":63:99   */\n      add\n        /* \"--CODEGEN--\":60:111   */\n      gt\n        /* \"--CODEGEN--\":39:50   */\n      0x0100000000\n        /* \"--CODEGEN--\":25:37   */\n      dup4\n        /* \"--CODEGEN--\":22:51   */\n      gt\n        /* \"--CODEGEN--\":11:119   */\n      or\n        /* \"--CODEGEN--\":8:10   */\n      iszero\n      tag_112\n      jumpi\n        /* \"--CODEGEN--\":132:133   */\n      0x00\n        /* \"--CODEGEN--\":129:130   */\n      dup1\n        /* \"--CODEGEN--\":122:134   */\n      revert\n        /* \"--CODEGEN--\":8:10   */\n    tag_112:\n        /* \"TimeAlly.sol\":16933:17959  function seeMaxLoaningAmountOnUserStakings(address _userAddress, uint256[] memory _stakingIds) public view returns (uint256) {... */\n      swap2\n      swap1\n      dup1\n      dup1\n      0x20\n      mul\n      0x20\n      add\n      mload(0x40)\n      swap1\n      dup2\n      add\n      0x40\n      mstore\n      dup1\n      swap4\n      swap3\n      swap2\n      swap1\n      dup2\n      dup2\n      mstore\n      0x20\n      add\n      dup4\n      dup4\n      0x20\n      mul\n        /* \"--CODEGEN--\":30:33   */\n      dup1\n        /* \"--CODEGEN--\":22:28   */\n      dup3\n        /* \"--CODEGEN--\":14:20   */\n      dup5\n        /* \"--CODEGEN--\":1:34   */\n      calldatacopy\n        /* \"--CODEGEN--\":99:100   */\n      0x00\n        /* \"--CODEGEN--\":93:96   */\n      dup2\n        /* \"--CODEGEN--\":85:91   */\n      dup5\n        /* \"--CODEGEN--\":81:97   */\n      add\n        /* \"--CODEGEN--\":74:101   */\n      mstore\n        /* \"--CODEGEN--\":137:141   */\n      0x1f\n        /* \"--CODEGEN--\":133:142   */\n      not\n        /* \"--CODEGEN--\":126:130   */\n      0x1f\n        /* \"--CODEGEN--\":121:124   */\n      dup3\n        /* \"--CODEGEN--\":117:131   */\n      add\n        /* \"--CODEGEN--\":113:143   */\n      and\n        /* \"--CODEGEN--\":106:143   */\n      swap1\n      pop\n        /* \"--CODEGEN--\":169:172   */\n      dup1\n        /* \"--CODEGEN--\":161:167   */\n      dup4\n        /* \"--CODEGEN--\":157:173   */\n      add\n        /* \"--CODEGEN--\":147:173   */\n      swap3\n      pop\n        /* \"TimeAlly.sol\":16933:17959  function seeMaxLoaningAmountOnUserStakings(address _userAddress, uint256[] memory _stakingIds) public view returns (uint256) {... */\n      pop\n      pop\n      pop\n      pop\n      pop\n      pop\n      swap2\n      swap3\n      swap2\n      swap3\n      swap1\n      pop\n      pop\n      pop\n      tag_113\n      jump\t// in\n    tag_108:\n      mload(0x40)\n      dup1\n      dup3\n      dup2\n      mstore\n      0x20\n      add\n      swap2\n      pop\n      pop\n      mload(0x40)\n      dup1\n      swap2\n      sub\n      swap1\n      return\n        /* \"TimeAlly.sol\":3619:3838  function createStakingPlan(uint256 _months, uint256 _fractionFrom15) public onlyOwner {... */\n    tag_24:\n      tag_114\n      0x04\n      dup1\n      calldatasize\n      sub\n        /* \"--CODEGEN--\":13:15   */\n      0x40\n        /* \"--CODEGEN--\":8:11   */\n      dup2\n        /* \"--CODEGEN--\":5:16   */\n      lt\n        /* \"--CODEGEN--\":2:4   */\n      iszero\n      tag_115\n      jumpi\n        /* \"--CODEGEN--\":29:30   */\n      0x00\n        /* \"--CODEGEN--\":26:27   */\n      dup1\n        /* \"--CODEGEN--\":19:31   */\n      revert\n        /* \"--CODEGEN--\":2:4   */\n    tag_115:\n        /* \"TimeAlly.sol\":3619:3838  function createStakingPlan(uint256 _months, uint256 _fractionFrom15) public onlyOwner {... */\n      dup2\n      add\n      swap1\n      dup1\n      dup1\n      calldataload\n      swap1\n      0x20\n      add\n      swap1\n      swap3\n      swap2\n      swap1\n      dup1\n      calldataload\n      swap1\n      0x20\n      add\n      swap1\n      swap3\n      swap2\n      swap1\n      pop\n      pop\n      pop\n      tag_116\n      jump\t// in\n    tag_114:\n      stop\n        /* \"TimeAlly.sol\":1500:1527  LoanPlan[] public loanPlans */\n    tag_25:\n      tag_117\n      0x04\n      dup1\n      calldatasize\n      sub\n        /* \"--CODEGEN--\":13:15   */\n      0x20\n        /* \"--CODEGEN--\":8:11   */\n      dup2\n        /* \"--CODEGEN--\":5:16   */\n      lt\n        /* \"--CODEGEN--\":2:4   */\n      iszero\n      tag_118\n      jumpi\n        /* \"--CODEGEN--\":29:30   */\n      0x00\n        /* \"--CODEGEN--\":26:27   */\n      dup1\n        /* \"--CODEGEN--\":19:31   */\n      revert\n        /* \"--CODEGEN--\":2:4   */\n    tag_118:\n        /* \"TimeAlly.sol\":1500:1527  LoanPlan[] public loanPlans */\n      dup2\n      add\n      swap1\n      dup1\n      dup1\n      calldataload\n      swap1\n      0x20\n      add\n      swap1\n      swap3\n      swap2\n      swap1\n      pop\n      pop\n      pop\n      tag_119\n      jump\t// in\n    tag_117:\n      mload(0x40)\n      dup1\n      dup4\n      dup2\n      mstore\n      0x20\n      add\n      dup3\n      dup2\n      mstore\n      0x20\n      add\n      swap3\n      pop\n      pop\n      pop\n      mload(0x40)\n      dup1\n      swap2\n      sub\n      swap1\n      return\n        /* \"TimeAlly.sol\":17965:21292  function takeLoanOnSelfStaking(uint256 _loanPlanId, uint256 _exaEsAmount, uint256[] memory _stakingIds) public {... */\n    tag_26:\n      tag_120\n      0x04\n      dup1\n      calldatasize\n      sub\n        /* \"--CODEGEN--\":13:15   */\n      0x60\n        /* \"--CODEGEN--\":8:11   */\n      dup2\n        /* \"--CODEGEN--\":5:16   */\n      lt\n        /* \"--CODEGEN--\":2:4   */\n      iszero\n      tag_121\n      jumpi\n        /* \"--CODEGEN--\":29:30   */\n      0x00\n        /* \"--CODEGEN--\":26:27   */\n      dup1\n        /* \"--CODEGEN--\":19:31   */\n      revert\n        /* \"--CODEGEN--\":2:4   */\n    tag_121:\n        /* \"TimeAlly.sol\":17965:21292  function takeLoanOnSelfStaking(uint256 _loanPlanId, uint256 _exaEsAmount, uint256[] memory _stakingIds) public {... */\n      dup2\n      add\n      swap1\n      dup1\n      dup1\n      calldataload\n      swap1\n      0x20\n      add\n      swap1\n      swap3\n      swap2\n      swap1\n      dup1\n      calldataload\n      swap1\n      0x20\n      add\n      swap1\n      swap3\n      swap2\n      swap1\n      dup1\n      calldataload\n      swap1\n      0x20\n      add\n      swap1\n        /* \"--CODEGEN--\":21:32   */\n      0x0100000000\n        /* \"--CODEGEN--\":8:19   */\n      dup2\n        /* \"--CODEGEN--\":5:33   */\n      gt\n        /* \"--CODEGEN--\":2:4   */\n      iszero\n      tag_122\n      jumpi\n        /* \"--CODEGEN--\":46:47   */\n      0x00\n        /* \"--CODEGEN--\":43:44   */\n      dup1\n        /* \"--CODEGEN--\":36:48   */\n      revert\n        /* \"--CODEGEN--\":2:4   */\n    tag_122:\n        /* \"TimeAlly.sol\":17965:21292  function takeLoanOnSelfStaking(uint256 _loanPlanId, uint256 _exaEsAmount, uint256[] memory _stakingIds) public {... */\n      dup3\n      add\n        /* \"--CODEGEN--\":35:44   */\n      dup4\n        /* \"--CODEGEN--\":28:32   */\n      0x20\n        /* \"--CODEGEN--\":12:26   */\n      dup3\n        /* \"--CODEGEN--\":8:33   */\n      add\n        /* \"--CODEGEN--\":5:45   */\n      gt\n        /* \"--CODEGEN--\":2:4   */\n      iszero\n      tag_123\n      jumpi\n        /* \"--CODEGEN--\":58:59   */\n      0x00\n        /* \"--CODEGEN--\":55:56   */\n      dup1\n        /* \"--CODEGEN--\":48:60   */\n      revert\n        /* \"--CODEGEN--\":2:4   */\n    tag_123:\n        /* \"TimeAlly.sol\":17965:21292  function takeLoanOnSelfStaking(uint256 _loanPlanId, uint256 _exaEsAmount, uint256[] memory _stakingIds) public {... */\n      dup1\n      calldataload\n      swap1\n      0x20\n      add\n      swap2\n        /* \"--CODEGEN--\":101:110   */\n      dup5\n        /* \"--CODEGEN--\":95:97   */\n      0x20\n        /* \"--CODEGEN--\":81:93   */\n      dup4\n        /* \"--CODEGEN--\":77:98   */\n      mul\n        /* \"--CODEGEN--\":67:75   */\n      dup5\n        /* \"--CODEGEN--\":63:99   */\n      add\n        /* \"--CODEGEN--\":60:111   */\n      gt\n        /* \"--CODEGEN--\":39:50   */\n      0x0100000000\n        /* \"--CODEGEN--\":25:37   */\n      dup4\n        /* \"--CODEGEN--\":22:51   */\n      gt\n        /* \"--CODEGEN--\":11:119   */\n      or\n        /* \"--CODEGEN--\":8:10   */\n      iszero\n      tag_124\n      jumpi\n        /* \"--CODEGEN--\":132:133   */\n      0x00\n        /* \"--CODEGEN--\":129:130   */\n      dup1\n        /* \"--CODEGEN--\":122:134   */\n      revert\n        /* \"--CODEGEN--\":8:10   */\n    tag_124:\n        /* \"TimeAlly.sol\":17965:21292  function takeLoanOnSelfStaking(uint256 _loanPlanId, uint256 _exaEsAmount, uint256[] memory _stakingIds) public {... */\n      swap2\n      swap1\n      dup1\n      dup1\n      0x20\n      mul\n      0x20\n      add\n      mload(0x40)\n      swap1\n      dup2\n      add\n      0x40\n      mstore\n      dup1\n      swap4\n      swap3\n      swap2\n      swap1\n      dup2\n      dup2\n      mstore\n      0x20\n      add\n      dup4\n      dup4\n      0x20\n      mul\n        /* \"--CODEGEN--\":30:33   */\n      dup1\n        /* \"--CODEGEN--\":22:28   */\n      dup3\n        /* \"--CODEGEN--\":14:20   */\n      dup5\n        /* \"--CODEGEN--\":1:34   */\n      calldatacopy\n        /* \"--CODEGEN--\":99:100   */\n      0x00\n        /* \"--CODEGEN--\":93:96   */\n      dup2\n        /* \"--CODEGEN--\":85:91   */\n      dup5\n        /* \"--CODEGEN--\":81:97   */\n      add\n        /* \"--CODEGEN--\":74:101   */\n      mstore\n        /* \"--CODEGEN--\":137:141   */\n      0x1f\n        /* \"--CODEGEN--\":133:142   */\n      not\n        /* \"--CODEGEN--\":126:130   */\n      0x1f\n        /* \"--CODEGEN--\":121:124   */\n      dup3\n        /* \"--CODEGEN--\":117:131   */\n      add\n        /* \"--CODEGEN--\":113:143   */\n      and\n        /* \"--CODEGEN--\":106:143   */\n      swap1\n      pop\n        /* \"--CODEGEN--\":169:172   */\n      dup1\n        /* \"--CODEGEN--\":161:167   */\n      dup4\n        /* \"--CODEGEN--\":157:173   */\n      add\n        /* \"--CODEGEN--\":147:173   */\n      swap3\n      pop\n        /* \"TimeAlly.sol\":17965:21292  function takeLoanOnSelfStaking(uint256 _loanPlanId, uint256 _exaEsAmount, uint256[] memory _stakingIds) public {... */\n      pop\n      pop\n      pop\n      pop\n      pop\n      pop\n      swap2\n      swap3\n      swap2\n      swap3\n      swap1\n      pop\n      pop\n      pop\n      tag_125\n      jump\t// in\n    tag_120:\n      stop\n        /* \"TimeAlly.sol\":6652:7818  function claimLaunchReward(uint256 _stakingPlanId) public {... */\n    tag_27:\n      tag_126\n      0x04\n      dup1\n      calldatasize\n      sub\n        /* \"--CODEGEN--\":13:15   */\n      0x20\n        /* \"--CODEGEN--\":8:11   */\n      dup2\n        /* \"--CODEGEN--\":5:16   */\n      lt\n        /* \"--CODEGEN--\":2:4   */\n      iszero\n      tag_127\n      jumpi\n        /* \"--CODEGEN--\":29:30   */\n      0x00\n        /* \"--CODEGEN--\":26:27   */\n      dup1\n        /* \"--CODEGEN--\":19:31   */\n      revert\n        /* \"--CODEGEN--\":2:4   */\n    tag_127:\n        /* \"TimeAlly.sol\":6652:7818  function claimLaunchReward(uint256 _stakingPlanId) public {... */\n      dup2\n      add\n      swap1\n      dup1\n      dup1\n      calldataload\n      swap1\n      0x20\n      add\n      swap1\n      swap3\n      swap2\n      swap1\n      pop\n      pop\n      pop\n      tag_128\n      jump\t// in\n    tag_126:\n      stop\n        /* \"TimeAlly.sol\":3503:3613  function getCurrentMonth() public view returns (uint256) {... */\n    tag_28:\n      tag_129\n      tag_130\n      jump\t// in\n    tag_129:\n      mload(0x40)\n      dup1\n      dup3\n      dup2\n      mstore\n      0x20\n      add\n      swap2\n      pop\n      pop\n      mload(0x40)\n      dup1\n      swap2\n      sub\n      swap1\n      return\n        /* \"TimeAlly.sol\":21330:22634  function repayLoanSelf(uint256 _loanId) public {... */\n    tag_29:\n      tag_131\n      0x04\n      dup1\n      calldatasize\n      sub\n        /* \"--CODEGEN--\":13:15   */\n      0x20\n        /* \"--CODEGEN--\":8:11   */\n      dup2\n        /* \"--CODEGEN--\":5:16   */\n      lt\n        /* \"--CODEGEN--\":2:4   */\n      iszero\n      tag_132\n      jumpi\n        /* \"--CODEGEN--\":29:30   */\n      0x00\n        /* \"--CODEGEN--\":26:27   */\n      dup1\n        /* \"--CODEGEN--\":19:31   */\n      revert\n        /* \"--CODEGEN--\":2:4   */\n    tag_132:\n        /* \"TimeAlly.sol\":21330:22634  function repayLoanSelf(uint256 _loanId) public {... */\n      dup2\n      add\n      swap1\n      dup1\n      dup1\n      calldataload\n      swap1\n      0x20\n      add\n      swap1\n      swap3\n      swap2\n      swap1\n      pop\n      pop\n      pop\n      tag_133\n      jump\t// in\n    tag_131:\n      stop\n        /* \"TimeAlly.sol\":4104:5243  function newStaking(uint256 _exaEsAmount, uint256 _stakingPlanId) public {... */\n    tag_30:\n      tag_134\n      0x04\n      dup1\n      calldatasize\n      sub\n        /* \"--CODEGEN--\":13:15   */\n      0x40\n        /* \"--CODEGEN--\":8:11   */\n      dup2\n        /* \"--CODEGEN--\":5:16   */\n      lt\n        /* \"--CODEGEN--\":2:4   */\n      iszero\n      tag_135\n      jumpi\n        /* \"--CODEGEN--\":29:30   */\n      0x00\n        /* \"--CODEGEN--\":26:27   */\n      dup1\n        /* \"--CODEGEN--\":19:31   */\n      revert\n        /* \"--CODEGEN--\":2:4   */\n    tag_135:\n        /* \"TimeAlly.sol\":4104:5243  function newStaking(uint256 _exaEsAmount, uint256 _stakingPlanId) public {... */\n      dup2\n      add\n      swap1\n      dup1\n      dup1\n      calldataload\n      swap1\n      0x20\n      add\n      swap1\n      swap3\n      swap2\n      swap1\n      dup1\n      calldataload\n      swap1\n      0x20\n      add\n      swap1\n      swap3\n      swap2\n      swap1\n      pop\n      pop\n      pop\n      tag_136\n      jump\t// in\n    tag_134:\n      stop\n        /* \"TimeAlly.sol\":3376:3497  function increaseMonth(uint256 _timeAllyNRT) public onlyNRTManager {... */\n    tag_31:\n      tag_137\n      0x04\n      dup1\n      calldatasize\n      sub\n        /* \"--CODEGEN--\":13:15   */\n      0x20\n        /* \"--CODEGEN--\":8:11   */\n      dup2\n        /* \"--CODEGEN--\":5:16   */\n      lt\n        /* \"--CODEGEN--\":2:4   */\n      iszero\n      tag_138\n      jumpi\n        /* \"--CODEGEN--\":29:30   */\n      0x00\n        /* \"--CODEGEN--\":26:27   */\n      dup1\n        /* \"--CODEGEN--\":19:31   */\n      revert\n        /* \"--CODEGEN--\":2:4   */\n    tag_138:\n        /* \"TimeAlly.sol\":3376:3497  function increaseMonth(uint256 _timeAllyNRT) public onlyNRTManager {... */\n      dup2\n      add\n      swap1\n      dup1\n      dup1\n      calldataload\n      swap1\n      0x20\n      add\n      swap1\n      swap3\n      swap2\n      swap1\n      pop\n      pop\n      pop\n      tag_139\n      jump\t// in\n    tag_137:\n      stop\n        /* \"TimeAlly.sol\":13679:14374  function withdrawExpiredStakings(uint256[] memory _stakings) public {... */\n    tag_32:\n      tag_140\n      0x04\n      dup1\n      calldatasize\n      sub\n        /* \"--CODEGEN--\":13:15   */\n      0x20\n        /* \"--CODEGEN--\":8:11   */\n      dup2\n        /* \"--CODEGEN--\":5:16   */\n      lt\n        /* \"--CODEGEN--\":2:4   */\n      iszero\n      tag_141\n      jumpi\n        /* \"--CODEGEN--\":29:30   */\n      0x00\n        /* \"--CODEGEN--\":26:27   */\n      dup1\n        /* \"--CODEGEN--\":19:31   */\n      revert\n        /* \"--CODEGEN--\":2:4   */\n    tag_141:\n        /* \"TimeAlly.sol\":13679:14374  function withdrawExpiredStakings(uint256[] memory _stakings) public {... */\n      dup2\n      add\n      swap1\n      dup1\n      dup1\n      calldataload\n      swap1\n      0x20\n      add\n      swap1\n        /* \"--CODEGEN--\":21:32   */\n      0x0100000000\n        /* \"--CODEGEN--\":8:19   */\n      dup2\n        /* \"--CODEGEN--\":5:33   */\n      gt\n        /* \"--CODEGEN--\":2:4   */\n      iszero\n      tag_142\n      jumpi\n        /* \"--CODEGEN--\":46:47   */\n      0x00\n        /* \"--CODEGEN--\":43:44   */\n      dup1\n        /* \"--CODEGEN--\":36:48   */\n      revert\n        /* \"--CODEGEN--\":2:4   */\n    tag_142:\n        /* \"TimeAlly.sol\":13679:14374  function withdrawExpiredStakings(uint256[] memory _stakings) public {... */\n      dup3\n      add\n        /* \"--CODEGEN--\":35:44   */\n      dup4\n        /* \"--CODEGEN--\":28:32   */\n      0x20\n        /* \"--CODEGEN--\":12:26   */\n      dup3\n        /* \"--CODEGEN--\":8:33   */\n      add\n        /* \"--CODEGEN--\":5:45   */\n      gt\n        /* \"--CODEGEN--\":2:4   */\n      iszero\n      tag_143\n      jumpi\n        /* \"--CODEGEN--\":58:59   */\n      0x00\n        /* \"--CODEGEN--\":55:56   */\n      dup1\n        /* \"--CODEGEN--\":48:60   */\n      revert\n        /* \"--CODEGEN--\":2:4   */\n    tag_143:\n        /* \"TimeAlly.sol\":13679:14374  function withdrawExpiredStakings(uint256[] memory _stakings) public {... */\n      dup1\n      calldataload\n      swap1\n      0x20\n      add\n      swap2\n        /* \"--CODEGEN--\":101:110   */\n      dup5\n        /* \"--CODEGEN--\":95:97   */\n      0x20\n        /* \"--CODEGEN--\":81:93   */\n      dup4\n        /* \"--CODEGEN--\":77:98   */\n      mul\n        /* \"--CODEGEN--\":67:75   */\n      dup5\n        /* \"--CODEGEN--\":63:99   */\n      add\n        /* \"--CODEGEN--\":60:111   */\n      gt\n        /* \"--CODEGEN--\":39:50   */\n      0x0100000000\n        /* \"--CODEGEN--\":25:37   */\n      dup4\n        /* \"--CODEGEN--\":22:51   */\n      gt\n        /* \"--CODEGEN--\":11:119   */\n      or\n        /* \"--CODEGEN--\":8:10   */\n      iszero\n      tag_144\n      jumpi\n        /* \"--CODEGEN--\":132:133   */\n      0x00\n        /* \"--CODEGEN--\":129:130   */\n      dup1\n        /* \"--CODEGEN--\":122:134   */\n      revert\n        /* \"--CODEGEN--\":8:10   */\n    tag_144:\n        /* \"TimeAlly.sol\":13679:14374  function withdrawExpiredStakings(uint256[] memory _stakings) public {... */\n      swap2\n      swap1\n      dup1\n      dup1\n      0x20\n      mul\n      0x20\n      add\n      mload(0x40)\n      swap1\n      dup2\n      add\n      0x40\n      mstore\n      dup1\n      swap4\n      swap3\n      swap2\n      swap1\n      dup2\n      dup2\n      mstore\n      0x20\n      add\n      dup4\n      dup4\n      0x20\n      mul\n        /* \"--CODEGEN--\":30:33   */\n      dup1\n        /* \"--CODEGEN--\":22:28   */\n      dup3\n        /* \"--CODEGEN--\":14:20   */\n      dup5\n        /* \"--CODEGEN--\":1:34   */\n      calldatacopy\n        /* \"--CODEGEN--\":99:100   */\n      0x00\n        /* \"--CODEGEN--\":93:96   */\n      dup2\n        /* \"--CODEGEN--\":85:91   */\n      dup5\n        /* \"--CODEGEN--\":81:97   */\n      add\n        /* \"--CODEGEN--\":74:101   */\n      mstore\n        /* \"--CODEGEN--\":137:141   */\n      0x1f\n        /* \"--CODEGEN--\":133:142   */\n      not\n        /* \"--CODEGEN--\":126:130   */\n      0x1f\n        /* \"--CODEGEN--\":121:124   */\n      dup3\n        /* \"--CODEGEN--\":117:131   */\n      add\n        /* \"--CODEGEN--\":113:143   */\n      and\n        /* \"--CODEGEN--\":106:143   */\n      swap1\n      pop\n        /* \"--CODEGEN--\":169:172   */\n      dup1\n        /* \"--CODEGEN--\":161:167   */\n      dup4\n        /* \"--CODEGEN--\":157:173   */\n      add\n        /* \"--CODEGEN--\":147:173   */\n      swap3\n      pop\n        /* \"TimeAlly.sol\":13679:14374  function withdrawExpiredStakings(uint256[] memory _stakings) public {... */\n      pop\n      pop\n      pop\n      pop\n      pop\n      pop\n      swap2\n      swap3\n      swap2\n      swap3\n      swap1\n      pop\n      pop\n      pop\n      tag_145\n      jump\t// in\n    tag_140:\n      stop\n        /* \"TimeAlly.sol\":8618:9672  function userActiveStakingByMonth(address _userAddress, uint256 _atMonth) public view returns (uint256) {... */\n    tag_33:\n      tag_146\n      0x04\n      dup1\n      calldatasize\n      sub\n        /* \"--CODEGEN--\":13:15   */\n      0x40\n        /* \"--CODEGEN--\":8:11   */\n      dup2\n        /* \"--CODEGEN--\":5:16   */\n      lt\n        /* \"--CODEGEN--\":2:4   */\n      iszero\n      tag_147\n      jumpi\n        /* \"--CODEGEN--\":29:30   */\n      0x00\n        /* \"--CODEGEN--\":26:27   */\n      dup1\n        /* \"--CODEGEN--\":19:31   */\n      revert\n        /* \"--CODEGEN--\":2:4   */\n    tag_147:\n        /* \"TimeAlly.sol\":8618:9672  function userActiveStakingByMonth(address _userAddress, uint256 _atMonth) public view returns (uint256) {... */\n      dup2\n      add\n      swap1\n      dup1\n      dup1\n      calldataload\n      0xffffffffffffffffffffffffffffffffffffffff\n      and\n      swap1\n      0x20\n      add\n      swap1\n      swap3\n      swap2\n      swap1\n      dup1\n      calldataload\n      swap1\n      0x20\n      add\n      swap1\n      swap3\n      swap2\n      swap1\n      pop\n      pop\n      pop\n      tag_148\n      jump\t// in\n    tag_146:\n      mload(0x40)\n      dup1\n      dup3\n      dup2\n      mstore\n      0x20\n      add\n      swap2\n      pop\n      pop\n      mload(0x40)\n      dup1\n      swap2\n      sub\n      swap1\n      return\n        /* \"TimeAlly.sol\":1141:1161  Eraswap public token */\n    tag_34:\n      tag_149\n      tag_150\n      jump\t// in\n    tag_149:\n      mload(0x40)\n      dup1\n      dup3\n      0xffffffffffffffffffffffffffffffffffffffff\n      and\n      0xffffffffffffffffffffffffffffffffffffffff\n      and\n      dup2\n      mstore\n      0x20\n      add\n      swap2\n      pop\n      pop\n      mload(0x40)\n      dup1\n      swap2\n      sub\n      swap1\n      return\n        /* \"TimeAlly.sol\":1167:1195  NRTManager public nrtManager */\n    tag_43:\n      0x02\n      0x00\n      swap1\n      sload\n      swap1\n      0x0100\n      exp\n      swap1\n      div\n      0xffffffffffffffffffffffffffffffffffffffff\n      and\n      dup2\n      jump\t// out\n        /* \"TimeAlly.sol\":23440:24477  function updateNominee(uint256 _stakingId, address _nomineeAddress, uint256 _shares) public {... */\n    tag_46:\n        /* \"TimeAlly.sol\":23593:23594  1 */\n      0x01\n        /* \"TimeAlly.sol\":23550:23558  stakings */\n      0x08\n        /* \"TimeAlly.sol\":23550:23570  stakings[msg.sender] */\n      0x00\n        /* \"TimeAlly.sol\":23559:23569  msg.sender */\n      caller\n        /* \"TimeAlly.sol\":23550:23570  stakings[msg.sender] */\n      0xffffffffffffffffffffffffffffffffffffffff\n      and\n      0xffffffffffffffffffffffffffffffffffffffff\n      and\n      dup2\n      mstore\n      0x20\n      add\n      swap1\n      dup2\n      mstore\n      0x20\n      add\n      0x00\n      keccak256\n        /* \"TimeAlly.sol\":23571:23581  _stakingId */\n      dup5\n        /* \"TimeAlly.sol\":23550:23582  stakings[msg.sender][_stakingId] */\n      dup2\n      sload\n      dup2\n      lt\n      tag_152\n      jumpi\n      invalid\n    tag_152:\n      swap1\n      0x00\n      mstore\n      keccak256(0x00, 0x20)\n      swap1\n      0x0b\n      mul\n      add\n        /* \"TimeAlly.sol\":23550:23589  stakings[msg.sender][_stakingId].status */\n      0x03\n      add\n      sload\n        /* \"TimeAlly.sol\":23550:23594  stakings[msg.sender][_stakingId].status == 1 */\n      eq\n        /* \"TimeAlly.sol\":23542:23620  require(stakings[msg.sender][_stakingId].status == 1, 'staking should active') */\n      tag_154\n      jumpi\n      mload(0x40)\n      0x08c379a000000000000000000000000000000000000000000000000000000000\n      dup2\n      mstore\n      0x04\n      add\n      dup1\n      dup1\n      0x20\n      add\n      dup3\n      dup2\n      sub\n      dup3\n      mstore\n      0x15\n      dup2\n      mstore\n      0x20\n      add\n      dup1\n      0x7374616b696e672073686f756c64206163746976650000000000000000000000\n      dup2\n      mstore\n      pop\n      0x20\n      add\n      swap2\n      pop\n      pop\n      mload(0x40)\n      dup1\n      swap2\n      sub\n      swap1\n      revert\n    tag_154:\n        /* \"TimeAlly.sol\":23630:23648  uint256 _oldShares */\n      0x00\n        /* \"TimeAlly.sol\":23651:23659  stakings */\n      0x08\n        /* \"TimeAlly.sol\":23651:23671  stakings[msg.sender] */\n      0x00\n        /* \"TimeAlly.sol\":23660:23670  msg.sender */\n      caller\n        /* \"TimeAlly.sol\":23651:23671  stakings[msg.sender] */\n      0xffffffffffffffffffffffffffffffffffffffff\n      and\n      0xffffffffffffffffffffffffffffffffffffffff\n      and\n      dup2\n      mstore\n      0x20\n      add\n      swap1\n      dup2\n      mstore\n      0x20\n      add\n      0x00\n      keccak256\n        /* \"TimeAlly.sol\":23672:23682  _stakingId */\n      dup5\n        /* \"TimeAlly.sol\":23651:23683  stakings[msg.sender][_stakingId] */\n      dup2\n      sload\n      dup2\n      lt\n      tag_155\n      jumpi\n      invalid\n    tag_155:\n      swap1\n      0x00\n      mstore\n      keccak256(0x00, 0x20)\n      swap1\n      0x0b\n      mul\n      add\n        /* \"TimeAlly.sol\":23651:23694  stakings[msg.sender][_stakingId].nomination */\n      0x0a\n      add\n        /* \"TimeAlly.sol\":23651:23711  stakings[msg.sender][_stakingId].nomination[_nomineeAddress] */\n      0x00\n        /* \"TimeAlly.sol\":23695:23710  _nomineeAddress */\n      dup5\n        /* \"TimeAlly.sol\":23651:23711  stakings[msg.sender][_stakingId].nomination[_nomineeAddress] */\n      0xffffffffffffffffffffffffffffffffffffffff\n      and\n      0xffffffffffffffffffffffffffffffffffffffff\n      and\n      dup2\n      mstore\n      0x20\n      add\n      swap1\n      dup2\n      mstore\n      0x20\n      add\n      0x00\n      keccak256\n      sload\n        /* \"TimeAlly.sol\":23630:23711  uint256 _oldShares = stakings[msg.sender][_stakingId].nomination[_nomineeAddress] */\n      swap1\n      pop\n        /* \"TimeAlly.sol\":23734:23744  _oldShares */\n      dup1\n        /* \"TimeAlly.sol\":23724:23731  _shares */\n      dup3\n        /* \"TimeAlly.sol\":23724:23744  _shares > _oldShares */\n      gt\n        /* \"TimeAlly.sol\":23721:24471  if(_shares > _oldShares) {... */\n      iszero\n      tag_157\n      jumpi\n        /* \"TimeAlly.sol\":23760:23773  uint256 _diff */\n      0x00\n        /* \"TimeAlly.sol\":23776:23799  _shares.sub(_oldShares) */\n      tag_158\n        /* \"TimeAlly.sol\":23788:23798  _oldShares */\n      dup3\n        /* \"TimeAlly.sol\":23776:23783  _shares */\n      dup5\n        /* \"TimeAlly.sol\":23776:23787  _shares.sub */\n      tag_159\n      swap1\n        /* \"TimeAlly.sol\":23776:23799  _shares.sub(_oldShares) */\n      swap2\n      swap1\n      0xffffffff\n      and\n      jump\t// in\n    tag_158:\n        /* \"TimeAlly.sol\":23760:23799  uint256 _diff = _shares.sub(_oldShares) */\n      swap1\n      pop\n        /* \"TimeAlly.sol\":23870:23935  stakings[msg.sender][_stakingId].totalNominationShares.add(_diff) */\n      tag_160\n        /* \"TimeAlly.sol\":23929:23934  _diff */\n      dup2\n        /* \"TimeAlly.sol\":23870:23878  stakings */\n      0x08\n        /* \"TimeAlly.sol\":23870:23890  stakings[msg.sender] */\n      0x00\n        /* \"TimeAlly.sol\":23879:23889  msg.sender */\n      caller\n        /* \"TimeAlly.sol\":23870:23890  stakings[msg.sender] */\n      0xffffffffffffffffffffffffffffffffffffffff\n      and\n      0xffffffffffffffffffffffffffffffffffffffff\n      and\n      dup2\n      mstore\n      0x20\n      add\n      swap1\n      dup2\n      mstore\n      0x20\n      add\n      0x00\n      keccak256\n        /* \"TimeAlly.sol\":23891:23901  _stakingId */\n      dup8\n        /* \"TimeAlly.sol\":23870:23902  stakings[msg.sender][_stakingId] */\n      dup2\n      sload\n      dup2\n      lt\n      tag_161\n      jumpi\n      invalid\n    tag_161:\n      swap1\n      0x00\n      mstore\n      keccak256(0x00, 0x20)\n      swap1\n      0x0b\n      mul\n      add\n        /* \"TimeAlly.sol\":23870:23924  stakings[msg.sender][_stakingId].totalNominationShares */\n      0x09\n      add\n      sload\n        /* \"TimeAlly.sol\":23870:23928  stakings[msg.sender][_stakingId].totalNominationShares.add */\n      tag_163\n      swap1\n        /* \"TimeAlly.sol\":23870:23935  stakings[msg.sender][_stakingId].totalNominationShares.add(_diff) */\n      swap2\n      swap1\n      0xffffffff\n      and\n      jump\t// in\n    tag_160:\n        /* \"TimeAlly.sol\":23813:23821  stakings */\n      0x08\n        /* \"TimeAlly.sol\":23813:23833  stakings[msg.sender] */\n      0x00\n        /* \"TimeAlly.sol\":23822:23832  msg.sender */\n      caller\n        /* \"TimeAlly.sol\":23813:23833  stakings[msg.sender] */\n      0xffffffffffffffffffffffffffffffffffffffff\n      and\n      0xffffffffffffffffffffffffffffffffffffffff\n      and\n      dup2\n      mstore\n      0x20\n      add\n      swap1\n      dup2\n      mstore\n      0x20\n      add\n      0x00\n      keccak256\n        /* \"TimeAlly.sol\":23834:23844  _stakingId */\n      dup7\n        /* \"TimeAlly.sol\":23813:23845  stakings[msg.sender][_stakingId] */\n      dup2\n      sload\n      dup2\n      lt\n      tag_164\n      jumpi\n      invalid\n    tag_164:\n      swap1\n      0x00\n      mstore\n      keccak256(0x00, 0x20)\n      swap1\n      0x0b\n      mul\n      add\n        /* \"TimeAlly.sol\":23813:23867  stakings[msg.sender][_stakingId].totalNominationShares */\n      0x09\n      add\n        /* \"TimeAlly.sol\":23813:23935  stakings[msg.sender][_stakingId].totalNominationShares = stakings[msg.sender][_stakingId].totalNominationShares.add(_diff) */\n      dup2\n      swap1\n      sstore\n      pop\n        /* \"TimeAlly.sol\":24012:24083  stakings[msg.sender][_stakingId].nomination[_nomineeAddress].add(_diff) */\n      tag_166\n        /* \"TimeAlly.sol\":24077:24082  _diff */\n      dup2\n        /* \"TimeAlly.sol\":24012:24020  stakings */\n      0x08\n        /* \"TimeAlly.sol\":24012:24032  stakings[msg.sender] */\n      0x00\n        /* \"TimeAlly.sol\":24021:24031  msg.sender */\n      caller\n        /* \"TimeAlly.sol\":24012:24032  stakings[msg.sender] */\n      0xffffffffffffffffffffffffffffffffffffffff\n      and\n      0xffffffffffffffffffffffffffffffffffffffff\n      and\n      dup2\n      mstore\n      0x20\n      add\n      swap1\n      dup2\n      mstore\n      0x20\n      add\n      0x00\n      keccak256\n        /* \"TimeAlly.sol\":24033:24043  _stakingId */\n      dup8\n        /* \"TimeAlly.sol\":24012:24044  stakings[msg.sender][_stakingId] */\n      dup2\n      sload\n      dup2\n      lt\n      tag_167\n      jumpi\n      invalid\n    tag_167:\n      swap1\n      0x00\n      mstore\n      keccak256(0x00, 0x20)\n      swap1\n      0x0b\n      mul\n      add\n        /* \"TimeAlly.sol\":24012:24055  stakings[msg.sender][_stakingId].nomination */\n      0x0a\n      add\n        /* \"TimeAlly.sol\":24012:24072  stakings[msg.sender][_stakingId].nomination[_nomineeAddress] */\n      0x00\n        /* \"TimeAlly.sol\":24056:24071  _nomineeAddress */\n      dup8\n        /* \"TimeAlly.sol\":24012:24072  stakings[msg.sender][_stakingId].nomination[_nomineeAddress] */\n      0xffffffffffffffffffffffffffffffffffffffff\n      and\n      0xffffffffffffffffffffffffffffffffffffffff\n      and\n      dup2\n      mstore\n      0x20\n      add\n      swap1\n      dup2\n      mstore\n      0x20\n      add\n      0x00\n      keccak256\n      sload\n        /* \"TimeAlly.sol\":24012:24076  stakings[msg.sender][_stakingId].nomination[_nomineeAddress].add */\n      tag_163\n      swap1\n        /* \"TimeAlly.sol\":24012:24083  stakings[msg.sender][_stakingId].nomination[_nomineeAddress].add(_diff) */\n      swap2\n      swap1\n      0xffffffff\n      and\n      jump\t// in\n    tag_166:\n        /* \"TimeAlly.sol\":23949:23957  stakings */\n      0x08\n        /* \"TimeAlly.sol\":23949:23969  stakings[msg.sender] */\n      0x00\n        /* \"TimeAlly.sol\":23958:23968  msg.sender */\n      caller\n        /* \"TimeAlly.sol\":23949:23969  stakings[msg.sender] */\n      0xffffffffffffffffffffffffffffffffffffffff\n      and\n      0xffffffffffffffffffffffffffffffffffffffff\n      and\n      dup2\n      mstore\n      0x20\n      add\n      swap1\n      dup2\n      mstore\n      0x20\n      add\n      0x00\n      keccak256\n        /* \"TimeAlly.sol\":23970:23980  _stakingId */\n      dup7\n        /* \"TimeAlly.sol\":23949:23981  stakings[msg.sender][_stakingId] */\n      dup2\n      sload\n      dup2\n      lt\n      tag_169\n      jumpi\n      invalid\n    tag_169:\n      swap1\n      0x00\n      mstore\n      keccak256(0x00, 0x20)\n      swap1\n      0x0b\n      mul\n      add\n        /* \"TimeAlly.sol\":23949:23992  stakings[msg.sender][_stakingId].nomination */\n      0x0a\n      add\n        /* \"TimeAlly.sol\":23949:24009  stakings[msg.sender][_stakingId].nomination[_nomineeAddress] */\n      0x00\n        /* \"TimeAlly.sol\":23993:24008  _nomineeAddress */\n      dup7\n        /* \"TimeAlly.sol\":23949:24009  stakings[msg.sender][_stakingId].nomination[_nomineeAddress] */\n      0xffffffffffffffffffffffffffffffffffffffff\n      and\n      0xffffffffffffffffffffffffffffffffffffffff\n      and\n      dup2\n      mstore\n      0x20\n      add\n      swap1\n      dup2\n      mstore\n      0x20\n      add\n      0x00\n      keccak256\n        /* \"TimeAlly.sol\":23949:24083  stakings[msg.sender][_stakingId].nomination[_nomineeAddress] = stakings[msg.sender][_stakingId].nomination[_nomineeAddress].add(_diff) */\n      dup2\n      swap1\n      sstore\n      pop\n        /* \"TimeAlly.sol\":23721:24471  if(_shares > _oldShares) {... */\n      pop\n      jump(tag_171)\n    tag_157:\n        /* \"TimeAlly.sol\":24113:24123  _oldShares */\n      dup1\n        /* \"TimeAlly.sol\":24103:24110  _shares */\n      dup3\n        /* \"TimeAlly.sol\":24103:24123  _shares < _oldShares */\n      lt\n        /* \"TimeAlly.sol\":24100:24471  if(_shares < _oldShares) {... */\n      iszero\n      tag_172\n      jumpi\n        /* \"TimeAlly.sol\":24137:24150  uint256 _diff */\n      0x00\n        /* \"TimeAlly.sol\":24153:24176  _oldShares.sub(_shares) */\n      tag_173\n        /* \"TimeAlly.sol\":24168:24175  _shares */\n      dup4\n        /* \"TimeAlly.sol\":24153:24163  _oldShares */\n      dup4\n        /* \"TimeAlly.sol\":24153:24167  _oldShares.sub */\n      tag_159\n      swap1\n        /* \"TimeAlly.sol\":24153:24176  _oldShares.sub(_shares) */\n      swap2\n      swap1\n      0xffffffff\n      and\n      jump\t// in\n    tag_173:\n        /* \"TimeAlly.sol\":24137:24176  uint256 _diff = _oldShares.sub(_shares) */\n      swap1\n      pop\n        /* \"TimeAlly.sol\":24253:24324  stakings[msg.sender][_stakingId].nomination[_nomineeAddress].sub(_diff) */\n      tag_174\n        /* \"TimeAlly.sol\":24318:24323  _diff */\n      dup2\n        /* \"TimeAlly.sol\":24253:24261  stakings */\n      0x08\n        /* \"TimeAlly.sol\":24253:24273  stakings[msg.sender] */\n      0x00\n        /* \"TimeAlly.sol\":24262:24272  msg.sender */\n      caller\n        /* \"TimeAlly.sol\":24253:24273  stakings[msg.sender] */\n      0xffffffffffffffffffffffffffffffffffffffff\n      and\n      0xffffffffffffffffffffffffffffffffffffffff\n      and\n      dup2\n      mstore\n      0x20\n      add\n      swap1\n      dup2\n      mstore\n      0x20\n      add\n      0x00\n      keccak256\n        /* \"TimeAlly.sol\":24274:24284  _stakingId */\n      dup8\n        /* \"TimeAlly.sol\":24253:24285  stakings[msg.sender][_stakingId] */\n      dup2\n      sload\n      dup2\n      lt\n      tag_175\n      jumpi\n      invalid\n    tag_175:\n      swap1\n      0x00\n      mstore\n      keccak256(0x00, 0x20)\n      swap1\n      0x0b\n      mul\n      add\n        /* \"TimeAlly.sol\":24253:24296  stakings[msg.sender][_stakingId].nomination */\n      0x0a\n      add\n        /* \"TimeAlly.sol\":24253:24313  stakings[msg.sender][_stakingId].nomination[_nomineeAddress] */\n      0x00\n        /* \"TimeAlly.sol\":24297:24312  _nomineeAddress */\n      dup8\n        /* \"TimeAlly.sol\":24253:24313  stakings[msg.sender][_stakingId].nomination[_nomineeAddress] */\n      0xffffffffffffffffffffffffffffffffffffffff\n      and\n      0xffffffffffffffffffffffffffffffffffffffff\n      and\n      dup2\n      mstore\n      0x20\n      add\n      swap1\n      dup2\n      mstore\n      0x20\n      add\n      0x00\n      keccak256\n      sload\n        /* \"TimeAlly.sol\":24253:24317  stakings[msg.sender][_stakingId].nomination[_nomineeAddress].sub */\n      tag_159\n      swap1\n        /* \"TimeAlly.sol\":24253:24324  stakings[msg.sender][_stakingId].nomination[_nomineeAddress].sub(_diff) */\n      swap2\n      swap1\n      0xffffffff\n      and\n      jump\t// in\n    tag_174:\n        /* \"TimeAlly.sol\":24190:24198  stakings */\n      0x08\n        /* \"TimeAlly.sol\":24190:24210  stakings[msg.sender] */\n      0x00\n        /* \"TimeAlly.sol\":24199:24209  msg.sender */\n      caller\n        /* \"TimeAlly.sol\":24190:24210  stakings[msg.sender] */\n      0xffffffffffffffffffffffffffffffffffffffff\n      and\n      0xffffffffffffffffffffffffffffffffffffffff\n      and\n      dup2\n      mstore\n      0x20\n      add\n      swap1\n      dup2\n      mstore\n      0x20\n      add\n      0x00\n      keccak256\n        /* \"TimeAlly.sol\":24211:24221  _stakingId */\n      dup7\n        /* \"TimeAlly.sol\":24190:24222  stakings[msg.sender][_stakingId] */\n      dup2\n      sload\n      dup2\n      lt\n      tag_177\n      jumpi\n      invalid\n    tag_177:\n      swap1\n      0x00\n      mstore\n      keccak256(0x00, 0x20)\n      swap1\n      0x0b\n      mul\n      add\n        /* \"TimeAlly.sol\":24190:24233  stakings[msg.sender][_stakingId].nomination */\n      0x0a\n      add\n        /* \"TimeAlly.sol\":24190:24250  stakings[msg.sender][_stakingId].nomination[_nomineeAddress] */\n      0x00\n        /* \"TimeAlly.sol\":24234:24249  _nomineeAddress */\n      dup7\n        /* \"TimeAlly.sol\":24190:24250  stakings[msg.sender][_stakingId].nomination[_nomineeAddress] */\n      0xffffffffffffffffffffffffffffffffffffffff\n      and\n      0xffffffffffffffffffffffffffffffffffffffff\n      and\n      dup2\n      mstore\n      0x20\n      add\n      swap1\n      dup2\n      mstore\n      0x20\n      add\n      0x00\n      keccak256\n        /* \"TimeAlly.sol\":24190:24324  stakings[msg.sender][_stakingId].nomination[_nomineeAddress] = stakings[msg.sender][_stakingId].nomination[_nomineeAddress].sub(_diff) */\n      dup2\n      swap1\n      sstore\n      pop\n        /* \"TimeAlly.sol\":24395:24460  stakings[msg.sender][_stakingId].totalNominationShares.sub(_diff) */\n      tag_179\n        /* \"TimeAlly.sol\":24454:24459  _diff */\n      dup2\n        /* \"TimeAlly.sol\":24395:24403  stakings */\n      0x08\n        /* \"TimeAlly.sol\":24395:24415  stakings[msg.sender] */\n      0x00\n        /* \"TimeAlly.sol\":24404:24414  msg.sender */\n      caller\n        /* \"TimeAlly.sol\":24395:24415  stakings[msg.sender] */\n      0xffffffffffffffffffffffffffffffffffffffff\n      and\n      0xffffffffffffffffffffffffffffffffffffffff\n      and\n      dup2\n      mstore\n      0x20\n      add\n      swap1\n      dup2\n      mstore\n      0x20\n      add\n      0x00\n      keccak256\n        /* \"TimeAlly.sol\":24416:24426  _stakingId */\n      dup8\n        /* \"TimeAlly.sol\":24395:24427  stakings[msg.sender][_stakingId] */\n      dup2\n      sload\n      dup2\n      lt\n      tag_180\n      jumpi\n      invalid\n    tag_180:\n      swap1\n      0x00\n      mstore\n      keccak256(0x00, 0x20)\n      swap1\n      0x0b\n      mul\n      add\n        /* \"TimeAlly.sol\":24395:24449  stakings[msg.sender][_stakingId].totalNominationShares */\n      0x09\n      add\n      sload\n        /* \"TimeAlly.sol\":24395:24453  stakings[msg.sender][_stakingId].totalNominationShares.sub */\n      tag_159\n      swap1\n        /* \"TimeAlly.sol\":24395:24460  stakings[msg.sender][_stakingId].totalNominationShares.sub(_diff) */\n      swap2\n      swap1\n      0xffffffff\n      and\n      jump\t// in\n    tag_179:\n        /* \"TimeAlly.sol\":24338:24346  stakings */\n      0x08\n        /* \"TimeAlly.sol\":24338:24358  stakings[msg.sender] */\n      0x00\n        /* \"TimeAlly.sol\":24347:24357  msg.sender */\n      caller\n        /* \"TimeAlly.sol\":24338:24358  stakings[msg.sender] */\n      0xffffffffffffffffffffffffffffffffffffffff\n      and\n      0xffffffffffffffffffffffffffffffffffffffff\n      and\n      dup2\n      mstore\n      0x20\n      add\n      swap1\n      dup2\n      mstore\n      0x20\n      add\n      0x00\n      keccak256\n        /* \"TimeAlly.sol\":24359:24369  _stakingId */\n      dup7\n        /* \"TimeAlly.sol\":24338:24370  stakings[msg.sender][_stakingId] */\n      dup2\n      sload\n      dup2\n      lt\n      tag_182\n      jumpi\n      invalid\n    tag_182:\n      swap1\n      0x00\n      mstore\n      keccak256(0x00, 0x20)\n      swap1\n      0x0b\n      mul\n      add\n        /* \"TimeAlly.sol\":24338:24392  stakings[msg.sender][_stakingId].totalNominationShares */\n      0x09\n      add\n        /* \"TimeAlly.sol\":24338:24460  stakings[msg.sender][_stakingId].totalNominationShares = stakings[msg.sender][_stakingId].totalNominationShares.sub(_diff) */\n      dup2\n      swap1\n      sstore\n      pop\n        /* \"TimeAlly.sol\":24100:24471  if(_shares < _oldShares) {... */\n      pop\n    tag_172:\n        /* \"TimeAlly.sol\":23721:24471  if(_shares > _oldShares) {... */\n    tag_171:\n        /* \"TimeAlly.sol\":23440:24477  function updateNominee(uint256 _stakingId, address _nomineeAddress, uint256 _shares) public {... */\n      pop\n      pop\n      pop\n      pop\n      jump\t// out\n        /* \"TimeAlly.sol\":1312:1347  uint256[] public timeAllyMonthlyNRT */\n    tag_49:\n      0x05\n      dup2\n      dup2\n      sload\n      dup2\n      lt\n      tag_184\n      jumpi\n      invalid\n    tag_184:\n      swap1\n      0x00\n      mstore\n      keccak256(0x00, 0x20)\n      add\n      0x00\n      swap2\n      pop\n      swap1\n      pop\n      sload\n      dup2\n      jump\t// out\n        /* \"TimeAlly.sol\":23227:23434  function viewNomination(address _userAddress, uint256 _stakingId, address _nomineeAddress) public view returns (uint256) {... */\n    tag_52:\n        /* \"TimeAlly.sol\":23339:23346  uint256 */\n      0x00\n        /* \"TimeAlly.sol\":23365:23373  stakings */\n      0x08\n        /* \"TimeAlly.sol\":23365:23387  stakings[_userAddress] */\n      0x00\n        /* \"TimeAlly.sol\":23374:23386  _userAddress */\n      dup6\n        /* \"TimeAlly.sol\":23365:23387  stakings[_userAddress] */\n      0xffffffffffffffffffffffffffffffffffffffff\n      and\n      0xffffffffffffffffffffffffffffffffffffffff\n      and\n      dup2\n      mstore\n      0x20\n      add\n      swap1\n      dup2\n      mstore\n      0x20\n      add\n      0x00\n      keccak256\n        /* \"TimeAlly.sol\":23388:23398  _stakingId */\n      dup4\n        /* \"TimeAlly.sol\":23365:23399  stakings[_userAddress][_stakingId] */\n      dup2\n      sload\n      dup2\n      lt\n      tag_187\n      jumpi\n      invalid\n    tag_187:\n      swap1\n      0x00\n      mstore\n      keccak256(0x00, 0x20)\n      swap1\n      0x0b\n      mul\n      add\n        /* \"TimeAlly.sol\":23365:23410  stakings[_userAddress][_stakingId].nomination */\n      0x0a\n      add\n        /* \"TimeAlly.sol\":23365:23427  stakings[_userAddress][_stakingId].nomination[_nomineeAddress] */\n      0x00\n        /* \"TimeAlly.sol\":23411:23426  _nomineeAddress */\n      dup4\n        /* \"TimeAlly.sol\":23365:23427  stakings[_userAddress][_stakingId].nomination[_nomineeAddress] */\n      0xffffffffffffffffffffffffffffffffffffffff\n      and\n      0xffffffffffffffffffffffffffffffffffffffff\n      and\n      dup2\n      mstore\n      0x20\n      add\n      swap1\n      dup2\n      mstore\n      0x20\n      add\n      0x00\n      keccak256\n      sload\n        /* \"TimeAlly.sol\":23358:23427  return stakings[_userAddress][_stakingId].nomination[_nomineeAddress] */\n      swap1\n      pop\n        /* \"TimeAlly.sol\":23227:23434  function viewNomination(address _userAddress, uint256 _stakingId, address _nomineeAddress) public view returns (uint256) {... */\n      swap4\n      swap3\n      pop\n      pop\n      pop\n      jump\t// out\n        /* \"TimeAlly.sol\":9679:10932  function seeShareForUserByMonth(address _userAddress, uint256 _atMonth) public view returns (uint256) {... */\n    tag_55:\n        /* \"TimeAlly.sol\":9772:9779  uint256 */\n      0x00\n        /* \"TimeAlly.sol\":10005:10026  uint256 _currentMonth */\n      dup1\n        /* \"TimeAlly.sol\":10029:10046  getCurrentMonth() */\n      tag_190\n        /* \"TimeAlly.sol\":10029:10044  getCurrentMonth */\n      tag_130\n        /* \"TimeAlly.sol\":10029:10046  getCurrentMonth() */\n      jump\t// in\n    tag_190:\n        /* \"TimeAlly.sol\":10005:10046  uint256 _currentMonth = getCurrentMonth() */\n      swap1\n      pop\n        /* \"TimeAlly.sol\":10076:10089  _currentMonth */\n      dup1\n        /* \"TimeAlly.sol\":10064:10072  _atMonth */\n      dup4\n        /* \"TimeAlly.sol\":10064:10089  _atMonth <= _currentMonth */\n      gt\n      iszero\n        /* \"TimeAlly.sol\":10056:10120  require(_atMonth <= _currentMonth, 'cannot see future stakings') */\n      tag_191\n      jumpi\n      mload(0x40)\n      0x08c379a000000000000000000000000000000000000000000000000000000000\n      dup2\n      mstore\n      0x04\n      add\n      dup1\n      dup1\n      0x20\n      add\n      dup3\n      dup2\n      sub\n      dup3\n      mstore\n      0x1a\n      dup2\n      mstore\n      0x20\n      add\n      dup1\n      0x63616e6e6f742073656520667574757265207374616b696e6773000000000000\n      dup2\n      mstore\n      pop\n      0x20\n      add\n      swap2\n      pop\n      pop\n      mload(0x40)\n      dup1\n      swap2\n      sub\n      swap1\n      revert\n    tag_191:\n        /* \"TimeAlly.sol\":10167:10168  0 */\n      0x00\n        /* \"TimeAlly.sol\":10134:10153  totalActiveStakings */\n      0x0a\n        /* \"TimeAlly.sol\":10134:10163  totalActiveStakings[_atMonth] */\n      0x00\n        /* \"TimeAlly.sol\":10154:10162  _atMonth */\n      dup6\n        /* \"TimeAlly.sol\":10134:10163  totalActiveStakings[_atMonth] */\n      dup2\n      mstore\n      0x20\n      add\n      swap1\n      dup2\n      mstore\n      0x20\n      add\n      0x00\n      keccak256\n      sload\n        /* \"TimeAlly.sol\":10134:10168  totalActiveStakings[_atMonth] == 0 */\n      eq\n        /* \"TimeAlly.sol\":10131:10203  if(totalActiveStakings[_atMonth] == 0) {... */\n      iszero\n      tag_192\n      jumpi\n        /* \"TimeAlly.sol\":10191:10192  0 */\n      0x00\n        /* \"TimeAlly.sol\":10184:10192  return 0 */\n      swap2\n      pop\n      pop\n      jump(tag_189)\n        /* \"TimeAlly.sol\":10131:10203  if(totalActiveStakings[_atMonth] == 0) {... */\n    tag_192:\n        /* \"TimeAlly.sol\":10213:10250  uint256 userActiveStakingsExaEsAmount */\n      0x00\n        /* \"TimeAlly.sol\":10265:10274  uint256 i */\n      dup1\n        /* \"TimeAlly.sol\":10277:10278  0 */\n      0x00\n        /* \"TimeAlly.sol\":10265:10278  uint256 i = 0 */\n      swap1\n      pop\n        /* \"TimeAlly.sol\":10261:10810  for(uint256 i = 0; i < stakings[_userAddress].length; i++) {... */\n    tag_193:\n        /* \"TimeAlly.sol\":10284:10292  stakings */\n      0x08\n        /* \"TimeAlly.sol\":10284:10306  stakings[_userAddress] */\n      0x00\n        /* \"TimeAlly.sol\":10293:10305  _userAddress */\n      dup8\n        /* \"TimeAlly.sol\":10284:10306  stakings[_userAddress] */\n      0xffffffffffffffffffffffffffffffffffffffff\n      and\n      0xffffffffffffffffffffffffffffffffffffffff\n      and\n      dup2\n      mstore\n      0x20\n      add\n      swap1\n      dup2\n      mstore\n      0x20\n      add\n      0x00\n      keccak256\n        /* \"TimeAlly.sol\":10284:10313  stakings[_userAddress].length */\n      dup1\n      sload\n      swap1\n      pop\n        /* \"TimeAlly.sol\":10280:10281  i */\n      dup2\n        /* \"TimeAlly.sol\":10280:10313  i < stakings[_userAddress].length */\n      lt\n        /* \"TimeAlly.sol\":10261:10810  for(uint256 i = 0; i < stakings[_userAddress].length; i++) {... */\n      iszero\n      tag_194\n      jumpi\n        /* \"TimeAlly.sol\":10334:10357  StakingPlan memory plan */\n      tag_196\n      tag_197\n      jump\t// in\n    tag_196:\n        /* \"TimeAlly.sol\":10360:10372  stakingPlans */\n      0x06\n        /* \"TimeAlly.sol\":10374:10382  stakings */\n      0x08\n        /* \"TimeAlly.sol\":10374:10396  stakings[_userAddress] */\n      0x00\n        /* \"TimeAlly.sol\":10383:10395  _userAddress */\n      dup10\n        /* \"TimeAlly.sol\":10374:10396  stakings[_userAddress] */\n      0xffffffffffffffffffffffffffffffffffffffff\n      and\n      0xffffffffffffffffffffffffffffffffffffffff\n      and\n      dup2\n      mstore\n      0x20\n      add\n      swap1\n      dup2\n      mstore\n      0x20\n      add\n      0x00\n      keccak256\n        /* \"TimeAlly.sol\":10397:10398  i */\n      dup4\n        /* \"TimeAlly.sol\":10374:10399  stakings[_userAddress][i] */\n      dup2\n      sload\n      dup2\n      lt\n      tag_198\n      jumpi\n      invalid\n    tag_198:\n      swap1\n      0x00\n      mstore\n      keccak256(0x00, 0x20)\n      swap1\n      0x0b\n      mul\n      add\n        /* \"TimeAlly.sol\":10374:10413  stakings[_userAddress][i].stakingPlanId */\n      0x02\n      add\n      sload\n        /* \"TimeAlly.sol\":10360:10415  stakingPlans[ stakings[_userAddress][i].stakingPlanId ] */\n      dup2\n      sload\n      dup2\n      lt\n      tag_200\n      jumpi\n      invalid\n    tag_200:\n      swap1\n      0x00\n      mstore\n      keccak256(0x00, 0x20)\n      swap1\n      0x02\n      mul\n      add\n        /* \"TimeAlly.sol\":10334:10415  StakingPlan memory plan = stakingPlans[ stakings[_userAddress][i].stakingPlanId ] */\n      mload(0x40)\n      dup1\n      0x40\n      add\n      0x40\n      mstore\n      swap1\n      dup2\n      0x00\n      dup3\n      add\n      sload\n      dup2\n      mstore\n      0x20\n      add\n      0x01\n      dup3\n      add\n      sload\n      dup2\n      mstore\n      pop\n      pop\n      swap1\n      pop\n        /* \"TimeAlly.sol\":10502:10559  isStakingActive(_userAddress, i, _currentMonth, _atMonth) */\n      tag_202\n        /* \"TimeAlly.sol\":10518:10530  _userAddress */\n      dup8\n        /* \"TimeAlly.sol\":10532:10533  i */\n      dup4\n        /* \"TimeAlly.sol\":10535:10548  _currentMonth */\n      dup7\n        /* \"TimeAlly.sol\":10550:10558  _atMonth */\n      dup10\n        /* \"TimeAlly.sol\":10502:10517  isStakingActive */\n      tag_101\n        /* \"TimeAlly.sol\":10502:10559  isStakingActive(_userAddress, i, _currentMonth, _atMonth) */\n      jump\t// in\n    tag_202:\n        /* \"TimeAlly.sol\":10502:10628  isStakingActive(_userAddress, i, _currentMonth, _atMonth)... */\n      dup1\n      iszero\n      tag_203\n      jumpi\n      pop\n        /* \"TimeAlly.sol\":10578:10586  stakings */\n      0x08\n        /* \"TimeAlly.sol\":10578:10600  stakings[_userAddress] */\n      0x00\n        /* \"TimeAlly.sol\":10587:10599  _userAddress */\n      dup9\n        /* \"TimeAlly.sol\":10578:10600  stakings[_userAddress] */\n      0xffffffffffffffffffffffffffffffffffffffff\n      and\n      0xffffffffffffffffffffffffffffffffffffffff\n      and\n      dup2\n      mstore\n      0x20\n      add\n      swap1\n      dup2\n      mstore\n      0x20\n      add\n      0x00\n      keccak256\n        /* \"TimeAlly.sol\":10601:10602  i */\n      dup3\n        /* \"TimeAlly.sol\":10578:10603  stakings[_userAddress][i] */\n      dup2\n      sload\n      dup2\n      lt\n      tag_204\n      jumpi\n      invalid\n    tag_204:\n      swap1\n      0x00\n      mstore\n      keccak256(0x00, 0x20)\n      swap1\n      0x0b\n      mul\n      add\n        /* \"TimeAlly.sol\":10578:10618  stakings[_userAddress][i].isMonthClaimed */\n      0x06\n      add\n        /* \"TimeAlly.sol\":10578:10628  stakings[_userAddress][i].isMonthClaimed[_atMonth] */\n      0x00\n        /* \"TimeAlly.sol\":10619:10627  _atMonth */\n      dup8\n        /* \"TimeAlly.sol\":10578:10628  stakings[_userAddress][i].isMonthClaimed[_atMonth] */\n      dup2\n      mstore\n      0x20\n      add\n      swap1\n      dup2\n      mstore\n      0x20\n      add\n      0x00\n      keccak256\n      0x00\n      swap1\n      sload\n      swap1\n      0x0100\n      exp\n      swap1\n      div\n      0xff\n      and\n        /* \"TimeAlly.sol\":10577:10628  !stakings[_userAddress][i].isMonthClaimed[_atMonth] */\n      iszero\n        /* \"TimeAlly.sol\":10502:10628  isStakingActive(_userAddress, i, _currentMonth, _atMonth)... */\n    tag_203:\n        /* \"TimeAlly.sol\":10499:10800  if(isStakingActive(_userAddress, i, _currentMonth, _atMonth)... */\n      iszero\n      tag_206\n      jumpi\n        /* \"TimeAlly.sol\":10680:10785  userActiveStakingsExaEsAmount.add(stakings[_userAddress][i].exaEsAmount.mul(plan.fractionFrom15).div(15)) */\n      tag_207\n        /* \"TimeAlly.sol\":10714:10784  stakings[_userAddress][i].exaEsAmount.mul(plan.fractionFrom15).div(15) */\n      tag_208\n        /* \"TimeAlly.sol\":10781:10783  15 */\n      0x0f\n        /* \"TimeAlly.sol\":10714:10776  stakings[_userAddress][i].exaEsAmount.mul(plan.fractionFrom15) */\n      tag_209\n        /* \"TimeAlly.sol\":10756:10760  plan */\n      dup5\n        /* \"TimeAlly.sol\":10756:10775  plan.fractionFrom15 */\n      0x20\n      add\n      mload\n        /* \"TimeAlly.sol\":10714:10722  stakings */\n      0x08\n        /* \"TimeAlly.sol\":10714:10736  stakings[_userAddress] */\n      0x00\n        /* \"TimeAlly.sol\":10723:10735  _userAddress */\n      dup14\n        /* \"TimeAlly.sol\":10714:10736  stakings[_userAddress] */\n      0xffffffffffffffffffffffffffffffffffffffff\n      and\n      0xffffffffffffffffffffffffffffffffffffffff\n      and\n      dup2\n      mstore\n      0x20\n      add\n      swap1\n      dup2\n      mstore\n      0x20\n      add\n      0x00\n      keccak256\n        /* \"TimeAlly.sol\":10737:10738  i */\n      dup8\n        /* \"TimeAlly.sol\":10714:10739  stakings[_userAddress][i] */\n      dup2\n      sload\n      dup2\n      lt\n      tag_210\n      jumpi\n      invalid\n    tag_210:\n      swap1\n      0x00\n      mstore\n      keccak256(0x00, 0x20)\n      swap1\n      0x0b\n      mul\n      add\n        /* \"TimeAlly.sol\":10714:10751  stakings[_userAddress][i].exaEsAmount */\n      0x00\n      add\n      sload\n        /* \"TimeAlly.sol\":10714:10755  stakings[_userAddress][i].exaEsAmount.mul */\n      tag_212\n      swap1\n        /* \"TimeAlly.sol\":10714:10776  stakings[_userAddress][i].exaEsAmount.mul(plan.fractionFrom15) */\n      swap2\n      swap1\n      0xffffffff\n      and\n      jump\t// in\n    tag_209:\n        /* \"TimeAlly.sol\":10714:10780  stakings[_userAddress][i].exaEsAmount.mul(plan.fractionFrom15).div */\n      tag_213\n      swap1\n        /* \"TimeAlly.sol\":10714:10784  stakings[_userAddress][i].exaEsAmount.mul(plan.fractionFrom15).div(15) */\n      swap2\n      swap1\n      0xffffffff\n      and\n      jump\t// in\n    tag_208:\n        /* \"TimeAlly.sol\":10680:10709  userActiveStakingsExaEsAmount */\n      dup5\n        /* \"TimeAlly.sol\":10680:10713  userActiveStakingsExaEsAmount.add */\n      tag_163\n      swap1\n        /* \"TimeAlly.sol\":10680:10785  userActiveStakingsExaEsAmount.add(stakings[_userAddress][i].exaEsAmount.mul(plan.fractionFrom15).div(15)) */\n      swap2\n      swap1\n      0xffffffff\n      and\n      jump\t// in\n    tag_207:\n        /* \"TimeAlly.sol\":10648:10785  userActiveStakingsExaEsAmount = userActiveStakingsExaEsAmount.add(stakings[_userAddress][i].exaEsAmount.mul(plan.fractionFrom15).div(15)) */\n      swap3\n      pop\n        /* \"TimeAlly.sol\":10499:10800  if(isStakingActive(_userAddress, i, _currentMonth, _atMonth)... */\n    tag_206:\n        /* \"TimeAlly.sol\":10261:10810  for(uint256 i = 0; i < stakings[_userAddress].length; i++) {... */\n      pop\n        /* \"TimeAlly.sol\":10315:10318  i++ */\n      dup1\n      dup1\n      0x01\n      add\n      swap2\n      pop\n      pop\n        /* \"TimeAlly.sol\":10261:10810  for(uint256 i = 0; i < stakings[_userAddress].length; i++) {... */\n      jump(tag_193)\n    tag_194:\n      pop\n        /* \"TimeAlly.sol\":10827:10925  userActiveStakingsExaEsAmount.mul(timeAllyMonthlyNRT[_atMonth]).div(totalActiveStakings[_atMonth]) */\n      tag_214\n        /* \"TimeAlly.sol\":10895:10914  totalActiveStakings */\n      0x0a\n        /* \"TimeAlly.sol\":10895:10924  totalActiveStakings[_atMonth] */\n      0x00\n        /* \"TimeAlly.sol\":10915:10923  _atMonth */\n      dup7\n        /* \"TimeAlly.sol\":10895:10924  totalActiveStakings[_atMonth] */\n      dup2\n      mstore\n      0x20\n      add\n      swap1\n      dup2\n      mstore\n      0x20\n      add\n      0x00\n      keccak256\n      sload\n        /* \"TimeAlly.sol\":10827:10890  userActiveStakingsExaEsAmount.mul(timeAllyMonthlyNRT[_atMonth]) */\n      tag_215\n        /* \"TimeAlly.sol\":10861:10879  timeAllyMonthlyNRT */\n      0x05\n        /* \"TimeAlly.sol\":10880:10888  _atMonth */\n      dup8\n        /* \"TimeAlly.sol\":10861:10889  timeAllyMonthlyNRT[_atMonth] */\n      dup2\n      sload\n      dup2\n      lt\n      tag_216\n      jumpi\n      invalid\n    tag_216:\n      swap1\n      0x00\n      mstore\n      keccak256(0x00, 0x20)\n      add\n      sload\n        /* \"TimeAlly.sol\":10827:10856  userActiveStakingsExaEsAmount */\n      dup5\n        /* \"TimeAlly.sol\":10827:10860  userActiveStakingsExaEsAmount.mul */\n      tag_212\n      swap1\n        /* \"TimeAlly.sol\":10827:10890  userActiveStakingsExaEsAmount.mul(timeAllyMonthlyNRT[_atMonth]) */\n      swap2\n      swap1\n      0xffffffff\n      and\n      jump\t// in\n    tag_215:\n        /* \"TimeAlly.sol\":10827:10894  userActiveStakingsExaEsAmount.mul(timeAllyMonthlyNRT[_atMonth]).div */\n      tag_213\n      swap1\n        /* \"TimeAlly.sol\":10827:10925  userActiveStakingsExaEsAmount.mul(timeAllyMonthlyNRT[_atMonth]).div(totalActiveStakings[_atMonth]) */\n      swap2\n      swap1\n      0xffffffff\n      and\n      jump\t// in\n    tag_214:\n        /* \"TimeAlly.sol\":10820:10925  return userActiveStakingsExaEsAmount.mul(timeAllyMonthlyNRT[_atMonth]).div(totalActiveStakings[_atMonth]) */\n      swap3\n      pop\n      pop\n      pop\n        /* \"TimeAlly.sol\":9679:10932  function seeShareForUserByMonth(address _userAddress, uint256 _atMonth) public view returns (uint256) {... */\n    tag_189:\n      swap3\n      swap2\n      pop\n      pop\n      jump\t// out\n        /* \"TimeAlly.sol\":10938:13180  function withdrawShareForUserByMonth(uint256 _atMonth, uint256 _accruedPercentage, bool _stakeAccruedNow, uint256 _accruedsStakingPlan) public {... */\n    tag_58:\n        /* \"TimeAlly.sol\":11091:11112  uint256 _currentMonth */\n      0x00\n        /* \"TimeAlly.sol\":11115:11132  getCurrentMonth() */\n      tag_219\n        /* \"TimeAlly.sol\":11115:11130  getCurrentMonth */\n      tag_130\n        /* \"TimeAlly.sol\":11115:11132  getCurrentMonth() */\n      jump\t// in\n    tag_219:\n        /* \"TimeAlly.sol\":11091:11132  uint256 _currentMonth = getCurrentMonth() */\n      swap1\n      pop\n        /* \"TimeAlly.sol\":11168:11176  _atMonth */\n      dup5\n        /* \"TimeAlly.sol\":11151:11164  _currentMonth */\n      dup2\n        /* \"TimeAlly.sol\":11151:11176  _currentMonth >= _atMonth */\n      lt\n      iszero\n        /* \"TimeAlly.sol\":11143:11212  require(_currentMonth >= _atMonth, 'cannot withdraw future stakings') */\n      tag_220\n      jumpi\n      mload(0x40)\n      0x08c379a000000000000000000000000000000000000000000000000000000000\n      dup2\n      mstore\n      0x04\n      add\n      dup1\n      dup1\n      0x20\n      add\n      dup3\n      dup2\n      sub\n      dup3\n      mstore\n      0x1f\n      dup2\n      mstore\n      0x20\n      add\n      dup1\n      0x63616e6e6f7420776974686472617720667574757265207374616b696e677300\n      dup2\n      mstore\n      pop\n      0x20\n      add\n      swap2\n      pop\n      pop\n      mload(0x40)\n      dup1\n      swap2\n      sub\n      swap1\n      revert\n    tag_220:\n        /* \"TimeAlly.sol\":11264:11265  0 */\n      0x00\n        /* \"TimeAlly.sol\":11226:11245  totalActiveStakings */\n      0x0a\n        /* \"TimeAlly.sol\":11226:11260  totalActiveStakings[_currentMonth] */\n      0x00\n        /* \"TimeAlly.sol\":11246:11259  _currentMonth */\n      dup4\n        /* \"TimeAlly.sol\":11226:11260  totalActiveStakings[_currentMonth] */\n      dup2\n      mstore\n      0x20\n      add\n      swap1\n      dup2\n      mstore\n      0x20\n      add\n      0x00\n      keccak256\n      sload\n        /* \"TimeAlly.sol\":11226:11265  totalActiveStakings[_currentMonth] == 0 */\n      eq\n        /* \"TimeAlly.sol\":11223:11350  if(totalActiveStakings[_currentMonth] == 0) {... */\n      iszero\n      tag_221\n      jumpi\n        /* \"TimeAlly.sol\":11289:11294  false */\n      0x00\n        /* \"TimeAlly.sol\":11281:11339  require(false, 'total active stakings should be non zero') */\n      tag_222\n      jumpi\n      mload(0x40)\n      0x08c379a000000000000000000000000000000000000000000000000000000000\n      dup2\n      mstore\n      0x04\n      add\n      dup1\n      dup1\n      0x20\n      add\n      dup3\n      dup2\n      sub\n      dup3\n      mstore\n      0x28\n      dup2\n      mstore\n      0x20\n      add\n      dup1\n      data_befd38e7335fb8237cef118812ecee5a2b8ea845f685bf397227db9c69bef0b5\n      0x28\n      swap2\n      codecopy\n      0x40\n      add\n      swap2\n      pop\n      pop\n      mload(0x40)\n      dup1\n      swap2\n      sub\n      swap1\n      revert\n    tag_222:\n        /* \"TimeAlly.sol\":11223:11350  if(totalActiveStakings[_currentMonth] == 0) {... */\n    tag_221:\n        /* \"TimeAlly.sol\":11390:11392  50 */\n      0x32\n        /* \"TimeAlly.sol\":11368:11386  _accruedPercentage */\n      dup5\n        /* \"TimeAlly.sol\":11368:11392  _accruedPercentage >= 50 */\n      lt\n      iszero\n        /* \"TimeAlly.sol\":11360:11436  require(_accruedPercentage >= 50, 'accruedPercentage should be at least 50') */\n      tag_223\n      jumpi\n      mload(0x40)\n      0x08c379a000000000000000000000000000000000000000000000000000000000\n      dup2\n      mstore\n      0x04\n      add\n      dup1\n      dup1\n      0x20\n      add\n      dup3\n      dup2\n      sub\n      dup3\n      mstore\n      0x27\n      dup2\n      mstore\n      0x20\n      add\n      dup1\n      data_93da6dd610d9fefb6e1313dcbf2bddd65b198696b7b6534428823c79c90920b5\n      0x27\n      swap2\n      codecopy\n      0x40\n      add\n      swap2\n      pop\n      pop\n      mload(0x40)\n      dup1\n      swap2\n      sub\n      swap1\n      revert\n    tag_223:\n        /* \"TimeAlly.sol\":11447:11485  uint256 _userActiveStakingsExaEsAmount */\n      0x00\n        /* \"TimeAlly.sol\":11495:11528  uint256 _shareTotalCurrentAccrued */\n      dup1\n        /* \"TimeAlly.sol\":11543:11552  uint256 i */\n      0x00\n        /* \"TimeAlly.sol\":11555:11556  0 */\n      dup1\n        /* \"TimeAlly.sol\":11543:11556  uint256 i = 0 */\n      swap1\n      pop\n        /* \"TimeAlly.sol\":11539:12682  for(uint256 i = 0; i < stakings[msg.sender].length; i++) {... */\n    tag_224:\n        /* \"TimeAlly.sol\":11562:11570  stakings */\n      0x08\n        /* \"TimeAlly.sol\":11562:11582  stakings[msg.sender] */\n      0x00\n        /* \"TimeAlly.sol\":11571:11581  msg.sender */\n      caller\n        /* \"TimeAlly.sol\":11562:11582  stakings[msg.sender] */\n      0xffffffffffffffffffffffffffffffffffffffff\n      and\n      0xffffffffffffffffffffffffffffffffffffffff\n      and\n      dup2\n      mstore\n      0x20\n      add\n      swap1\n      dup2\n      mstore\n      0x20\n      add\n      0x00\n      keccak256\n        /* \"TimeAlly.sol\":11562:11589  stakings[msg.sender].length */\n      dup1\n      sload\n      swap1\n      pop\n        /* \"TimeAlly.sol\":11558:11559  i */\n      dup2\n        /* \"TimeAlly.sol\":11558:11589  i < stakings[msg.sender].length */\n      lt\n        /* \"TimeAlly.sol\":11539:12682  for(uint256 i = 0; i < stakings[msg.sender].length; i++) {... */\n      iszero\n      tag_225\n      jumpi\n        /* \"TimeAlly.sol\":11610:11634  StakingPlan memory _plan */\n      tag_227\n      tag_197\n      jump\t// in\n    tag_227:\n        /* \"TimeAlly.sol\":11637:11649  stakingPlans */\n      0x06\n        /* \"TimeAlly.sol\":11651:11659  stakings */\n      0x08\n        /* \"TimeAlly.sol\":11651:11671  stakings[msg.sender] */\n      0x00\n        /* \"TimeAlly.sol\":11660:11670  msg.sender */\n      caller\n        /* \"TimeAlly.sol\":11651:11671  stakings[msg.sender] */\n      0xffffffffffffffffffffffffffffffffffffffff\n      and\n      0xffffffffffffffffffffffffffffffffffffffff\n      and\n      dup2\n      mstore\n      0x20\n      add\n      swap1\n      dup2\n      mstore\n      0x20\n      add\n      0x00\n      keccak256\n        /* \"TimeAlly.sol\":11672:11673  i */\n      dup4\n        /* \"TimeAlly.sol\":11651:11674  stakings[msg.sender][i] */\n      dup2\n      sload\n      dup2\n      lt\n      tag_228\n      jumpi\n      invalid\n    tag_228:\n      swap1\n      0x00\n      mstore\n      keccak256(0x00, 0x20)\n      swap1\n      0x0b\n      mul\n      add\n        /* \"TimeAlly.sol\":11651:11688  stakings[msg.sender][i].stakingPlanId */\n      0x02\n      add\n      sload\n        /* \"TimeAlly.sol\":11637:11690  stakingPlans[ stakings[msg.sender][i].stakingPlanId ] */\n      dup2\n      sload\n      dup2\n      lt\n      tag_230\n      jumpi\n      invalid\n    tag_230:\n      swap1\n      0x00\n      mstore\n      keccak256(0x00, 0x20)\n      swap1\n      0x02\n      mul\n      add\n        /* \"TimeAlly.sol\":11610:11690  StakingPlan memory _plan = stakingPlans[ stakings[msg.sender][i].stakingPlanId ] */\n      mload(0x40)\n      dup1\n      0x40\n      add\n      0x40\n      mstore\n      swap1\n      dup2\n      0x00\n      dup3\n      add\n      sload\n      dup2\n      mstore\n      0x20\n      add\n      0x01\n      dup3\n      add\n      sload\n      dup2\n      mstore\n      pop\n      pop\n      swap1\n      pop\n        /* \"TimeAlly.sol\":11777:11832  isStakingActive(msg.sender, i, _currentMonth, _atMonth) */\n      tag_232\n        /* \"TimeAlly.sol\":11793:11803  msg.sender */\n      caller\n        /* \"TimeAlly.sol\":11805:11806  i */\n      dup4\n        /* \"TimeAlly.sol\":11808:11821  _currentMonth */\n      dup8\n        /* \"TimeAlly.sol\":11823:11831  _atMonth */\n      dup13\n        /* \"TimeAlly.sol\":11777:11792  isStakingActive */\n      tag_101\n        /* \"TimeAlly.sol\":11777:11832  isStakingActive(msg.sender, i, _currentMonth, _atMonth) */\n      jump\t// in\n    tag_232:\n        /* \"TimeAlly.sol\":11777:11899  isStakingActive(msg.sender, i, _currentMonth, _atMonth)... */\n      dup1\n      iszero\n      tag_233\n      jumpi\n      pop\n        /* \"TimeAlly.sol\":11851:11859  stakings */\n      0x08\n        /* \"TimeAlly.sol\":11851:11871  stakings[msg.sender] */\n      0x00\n        /* \"TimeAlly.sol\":11860:11870  msg.sender */\n      caller\n        /* \"TimeAlly.sol\":11851:11871  stakings[msg.sender] */\n      0xffffffffffffffffffffffffffffffffffffffff\n      and\n      0xffffffffffffffffffffffffffffffffffffffff\n      and\n      dup2\n      mstore\n      0x20\n      add\n      swap1\n      dup2\n      mstore\n      0x20\n      add\n      0x00\n      keccak256\n        /* \"TimeAlly.sol\":11872:11873  i */\n      dup3\n        /* \"TimeAlly.sol\":11851:11874  stakings[msg.sender][i] */\n      dup2\n      sload\n      dup2\n      lt\n      tag_234\n      jumpi\n      invalid\n    tag_234:\n      swap1\n      0x00\n      mstore\n      keccak256(0x00, 0x20)\n      swap1\n      0x0b\n      mul\n      add\n        /* \"TimeAlly.sol\":11851:11889  stakings[msg.sender][i].isMonthClaimed */\n      0x06\n      add\n        /* \"TimeAlly.sol\":11851:11899  stakings[msg.sender][i].isMonthClaimed[_atMonth] */\n      0x00\n        /* \"TimeAlly.sol\":11890:11898  _atMonth */\n      dup11\n        /* \"TimeAlly.sol\":11851:11899  stakings[msg.sender][i].isMonthClaimed[_atMonth] */\n      dup2\n      mstore\n      0x20\n      add\n      swap1\n      dup2\n      mstore\n      0x20\n      add\n      0x00\n      keccak256\n      0x00\n      swap1\n      sload\n      swap1\n      0x0100\n      exp\n      swap1\n      div\n      0xff\n      and\n        /* \"TimeAlly.sol\":11850:11899  !stakings[msg.sender][i].isMonthClaimed[_atMonth] */\n      iszero\n        /* \"TimeAlly.sol\":11777:11899  isStakingActive(msg.sender, i, _currentMonth, _atMonth)... */\n    tag_233:\n        /* \"TimeAlly.sol\":11774:12672  if(isStakingActive(msg.sender, i, _currentMonth, _atMonth)... */\n      iszero\n      tag_236\n      jumpi\n        /* \"TimeAlly.sol\":11970:11974  true */\n      0x01\n        /* \"TimeAlly.sol\":11919:11927  stakings */\n      0x08\n        /* \"TimeAlly.sol\":11919:11939  stakings[msg.sender] */\n      0x00\n        /* \"TimeAlly.sol\":11928:11938  msg.sender */\n      caller\n        /* \"TimeAlly.sol\":11919:11939  stakings[msg.sender] */\n      0xffffffffffffffffffffffffffffffffffffffff\n      and\n      0xffffffffffffffffffffffffffffffffffffffff\n      and\n      dup2\n      mstore\n      0x20\n      add\n      swap1\n      dup2\n      mstore\n      0x20\n      add\n      0x00\n      keccak256\n        /* \"TimeAlly.sol\":11940:11941  i */\n      dup4\n        /* \"TimeAlly.sol\":11919:11942  stakings[msg.sender][i] */\n      dup2\n      sload\n      dup2\n      lt\n      tag_237\n      jumpi\n      invalid\n    tag_237:\n      swap1\n      0x00\n      mstore\n      keccak256(0x00, 0x20)\n      swap1\n      0x0b\n      mul\n      add\n        /* \"TimeAlly.sol\":11919:11957  stakings[msg.sender][i].isMonthClaimed */\n      0x06\n      add\n        /* \"TimeAlly.sol\":11919:11967  stakings[msg.sender][i].isMonthClaimed[_atMonth] */\n      0x00\n        /* \"TimeAlly.sol\":11958:11966  _atMonth */\n      dup12\n        /* \"TimeAlly.sol\":11919:11967  stakings[msg.sender][i].isMonthClaimed[_atMonth] */\n      dup2\n      mstore\n      0x20\n      add\n      swap1\n      dup2\n      mstore\n      0x20\n      add\n      0x00\n      keccak256\n      0x00\n        /* \"TimeAlly.sol\":11919:11974  stakings[msg.sender][i].isMonthClaimed[_atMonth] = true */\n      0x0100\n      exp\n      dup2\n      sload\n      dup2\n      0xff\n      mul\n      not\n      and\n      swap1\n      dup4\n      iszero\n      iszero\n      mul\n      or\n      swap1\n      sstore\n      pop\n        /* \"TimeAlly.sol\":12063:12087  uint256 _effectiveAmount */\n      0x00\n        /* \"TimeAlly.sol\":12090:12159  stakings[msg.sender][i].exaEsAmount.mul(_plan.fractionFrom15).div(15) */\n      tag_239\n        /* \"TimeAlly.sol\":12156:12158  15 */\n      0x0f\n        /* \"TimeAlly.sol\":12090:12151  stakings[msg.sender][i].exaEsAmount.mul(_plan.fractionFrom15) */\n      tag_240\n        /* \"TimeAlly.sol\":12130:12135  _plan */\n      dup5\n        /* \"TimeAlly.sol\":12130:12150  _plan.fractionFrom15 */\n      0x20\n      add\n      mload\n        /* \"TimeAlly.sol\":12090:12098  stakings */\n      0x08\n        /* \"TimeAlly.sol\":12090:12110  stakings[msg.sender] */\n      0x00\n        /* \"TimeAlly.sol\":12099:12109  msg.sender */\n      caller\n        /* \"TimeAlly.sol\":12090:12110  stakings[msg.sender] */\n      0xffffffffffffffffffffffffffffffffffffffff\n      and\n      0xffffffffffffffffffffffffffffffffffffffff\n      and\n      dup2\n      mstore\n      0x20\n      add\n      swap1\n      dup2\n      mstore\n      0x20\n      add\n      0x00\n      keccak256\n        /* \"TimeAlly.sol\":12111:12112  i */\n      dup8\n        /* \"TimeAlly.sol\":12090:12113  stakings[msg.sender][i] */\n      dup2\n      sload\n      dup2\n      lt\n      tag_241\n      jumpi\n      invalid\n    tag_241:\n      swap1\n      0x00\n      mstore\n      keccak256(0x00, 0x20)\n      swap1\n      0x0b\n      mul\n      add\n        /* \"TimeAlly.sol\":12090:12125  stakings[msg.sender][i].exaEsAmount */\n      0x00\n      add\n      sload\n        /* \"TimeAlly.sol\":12090:12129  stakings[msg.sender][i].exaEsAmount.mul */\n      tag_212\n      swap1\n        /* \"TimeAlly.sol\":12090:12151  stakings[msg.sender][i].exaEsAmount.mul(_plan.fractionFrom15) */\n      swap2\n      swap1\n      0xffffffff\n      and\n      jump\t// in\n    tag_240:\n        /* \"TimeAlly.sol\":12090:12155  stakings[msg.sender][i].exaEsAmount.mul(_plan.fractionFrom15).div */\n      tag_213\n      swap1\n        /* \"TimeAlly.sol\":12090:12159  stakings[msg.sender][i].exaEsAmount.mul(_plan.fractionFrom15).div(15) */\n      swap2\n      swap1\n      0xffffffff\n      and\n      jump\t// in\n    tag_239:\n        /* \"TimeAlly.sol\":12063:12159  uint256 _effectiveAmount = stakings[msg.sender][i].exaEsAmount.mul(_plan.fractionFrom15).div(15) */\n      swap1\n      pop\n        /* \"TimeAlly.sol\":12177:12198  uint256 _accruedShare */\n      0x00\n        /* \"TimeAlly.sol\":12201:12250  _effectiveAmount.mul(_accruedPercentage).div(100) */\n      tag_243\n        /* \"TimeAlly.sol\":12246:12249  100 */\n      0x64\n        /* \"TimeAlly.sol\":12201:12241  _effectiveAmount.mul(_accruedPercentage) */\n      tag_244\n        /* \"TimeAlly.sol\":12222:12240  _accruedPercentage */\n      dup13\n        /* \"TimeAlly.sol\":12201:12217  _effectiveAmount */\n      dup6\n        /* \"TimeAlly.sol\":12201:12221  _effectiveAmount.mul */\n      tag_212\n      swap1\n        /* \"TimeAlly.sol\":12201:12241  _effectiveAmount.mul(_accruedPercentage) */\n      swap2\n      swap1\n      0xffffffff\n      and\n      jump\t// in\n    tag_244:\n        /* \"TimeAlly.sol\":12201:12245  _effectiveAmount.mul(_accruedPercentage).div */\n      tag_213\n      swap1\n        /* \"TimeAlly.sol\":12201:12250  _effectiveAmount.mul(_accruedPercentage).div(100) */\n      swap2\n      swap1\n      0xffffffff\n      and\n      jump\t// in\n    tag_243:\n        /* \"TimeAlly.sol\":12177:12250  uint256 _accruedShare = _effectiveAmount.mul(_accruedPercentage).div(100) */\n      swap1\n      pop\n        /* \"TimeAlly.sol\":12271:12287  _stakeAccruedNow */\n      dup9\n        /* \"TimeAlly.sol\":12268:12555  if(_stakeAccruedNow) {... */\n      iszero\n      tag_245\n      jumpi\n        /* \"TimeAlly.sol\":12356:12417  stakings[msg.sender][i].accruedExaEsAmount.add(_accruedShare) */\n      tag_246\n        /* \"TimeAlly.sol\":12403:12416  _accruedShare */\n      dup2\n        /* \"TimeAlly.sol\":12356:12364  stakings */\n      0x08\n        /* \"TimeAlly.sol\":12356:12376  stakings[msg.sender] */\n      0x00\n        /* \"TimeAlly.sol\":12365:12375  msg.sender */\n      caller\n        /* \"TimeAlly.sol\":12356:12376  stakings[msg.sender] */\n      0xffffffffffffffffffffffffffffffffffffffff\n      and\n      0xffffffffffffffffffffffffffffffffffffffff\n      and\n      dup2\n      mstore\n      0x20\n      add\n      swap1\n      dup2\n      mstore\n      0x20\n      add\n      0x00\n      keccak256\n        /* \"TimeAlly.sol\":12377:12378  i */\n      dup7\n        /* \"TimeAlly.sol\":12356:12379  stakings[msg.sender][i] */\n      dup2\n      sload\n      dup2\n      lt\n      tag_247\n      jumpi\n      invalid\n    tag_247:\n      swap1\n      0x00\n      mstore\n      keccak256(0x00, 0x20)\n      swap1\n      0x0b\n      mul\n      add\n        /* \"TimeAlly.sol\":12356:12398  stakings[msg.sender][i].accruedExaEsAmount */\n      0x04\n      add\n      sload\n        /* \"TimeAlly.sol\":12356:12402  stakings[msg.sender][i].accruedExaEsAmount.add */\n      tag_163\n      swap1\n        /* \"TimeAlly.sol\":12356:12417  stakings[msg.sender][i].accruedExaEsAmount.add(_accruedShare) */\n      swap2\n      swap1\n      0xffffffff\n      and\n      jump\t// in\n    tag_246:\n        /* \"TimeAlly.sol\":12311:12319  stakings */\n      0x08\n        /* \"TimeAlly.sol\":12311:12331  stakings[msg.sender] */\n      0x00\n        /* \"TimeAlly.sol\":12320:12330  msg.sender */\n      caller\n        /* \"TimeAlly.sol\":12311:12331  stakings[msg.sender] */\n      0xffffffffffffffffffffffffffffffffffffffff\n      and\n      0xffffffffffffffffffffffffffffffffffffffff\n      and\n      dup2\n      mstore\n      0x20\n      add\n      swap1\n      dup2\n      mstore\n      0x20\n      add\n      0x00\n      keccak256\n        /* \"TimeAlly.sol\":12332:12333  i */\n      dup6\n        /* \"TimeAlly.sol\":12311:12334  stakings[msg.sender][i] */\n      dup2\n      sload\n      dup2\n      lt\n      tag_249\n      jumpi\n      invalid\n    tag_249:\n      swap1\n      0x00\n      mstore\n      keccak256(0x00, 0x20)\n      swap1\n      0x0b\n      mul\n      add\n        /* \"TimeAlly.sol\":12311:12353  stakings[msg.sender][i].accruedExaEsAmount */\n      0x04\n      add\n        /* \"TimeAlly.sol\":12311:12417  stakings[msg.sender][i].accruedExaEsAmount = stakings[msg.sender][i].accruedExaEsAmount.add(_accruedShare) */\n      dup2\n      swap1\n      sstore\n      pop\n        /* \"TimeAlly.sol\":12268:12555  if(_stakeAccruedNow) {... */\n      jump(tag_251)\n    tag_245:\n        /* \"TimeAlly.sol\":12492:12536  _shareTotalCurrentAccrued.add(_accruedShare) */\n      tag_252\n        /* \"TimeAlly.sol\":12522:12535  _accruedShare */\n      dup2\n        /* \"TimeAlly.sol\":12492:12517  _shareTotalCurrentAccrued */\n      dup7\n        /* \"TimeAlly.sol\":12492:12521  _shareTotalCurrentAccrued.add */\n      tag_163\n      swap1\n        /* \"TimeAlly.sol\":12492:12536  _shareTotalCurrentAccrued.add(_accruedShare) */\n      swap2\n      swap1\n      0xffffffff\n      and\n      jump\t// in\n    tag_252:\n        /* \"TimeAlly.sol\":12464:12536  _shareTotalCurrentAccrued = _shareTotalCurrentAccrued.add(_accruedShare) */\n      swap5\n      pop\n        /* \"TimeAlly.sol\":12268:12555  if(_stakeAccruedNow) {... */\n    tag_251:\n        /* \"TimeAlly.sol\":12605:12657  _userActiveStakingsExaEsAmount.add(_effectiveAmount) */\n      tag_253\n        /* \"TimeAlly.sol\":12640:12656  _effectiveAmount */\n      dup3\n        /* \"TimeAlly.sol\":12605:12635  _userActiveStakingsExaEsAmount */\n      dup8\n        /* \"TimeAlly.sol\":12605:12639  _userActiveStakingsExaEsAmount.add */\n      tag_163\n      swap1\n        /* \"TimeAlly.sol\":12605:12657  _userActiveStakingsExaEsAmount.add(_effectiveAmount) */\n      swap2\n      swap1\n      0xffffffff\n      and\n      jump\t// in\n    tag_253:\n        /* \"TimeAlly.sol\":12572:12657  _userActiveStakingsExaEsAmount = _userActiveStakingsExaEsAmount.add(_effectiveAmount) */\n      swap6\n      pop\n        /* \"TimeAlly.sol\":11774:12672  if(isStakingActive(msg.sender, i, _currentMonth, _atMonth)... */\n      pop\n      pop\n    tag_236:\n        /* \"TimeAlly.sol\":11539:12682  for(uint256 i = 0; i < stakings[msg.sender].length; i++) {... */\n      pop\n        /* \"TimeAlly.sol\":11591:11594  i++ */\n      dup1\n      dup1\n      0x01\n      add\n      swap2\n      pop\n      pop\n        /* \"TimeAlly.sol\":11539:12682  for(uint256 i = 0; i < stakings[msg.sender].length; i++) {... */\n      jump(tag_224)\n    tag_225:\n      pop\n        /* \"TimeAlly.sol\":12692:12712  uint256 _liquidShare */\n      0x00\n        /* \"TimeAlly.sol\":12715:12962  _userActiveStakingsExaEsAmount... */\n      tag_254\n        /* \"TimeAlly.sol\":12958:12961  100 */\n      0x64\n        /* \"TimeAlly.sol\":12715:12953  _userActiveStakingsExaEsAmount... */\n      tag_255\n        /* \"TimeAlly.sol\":12934:12952  _accruedPercentage */\n      dup10\n        /* \"TimeAlly.sol\":12928:12931  100 */\n      0x64\n        /* \"TimeAlly.sol\":12928:12952  100 - _accruedPercentage */\n      sub\n        /* \"TimeAlly.sol\":12715:12890  _userActiveStakingsExaEsAmount... */\n      tag_256\n        /* \"TimeAlly.sol\":12855:12874  totalActiveStakings */\n      0x0a\n        /* \"TimeAlly.sol\":12855:12889  totalActiveStakings[_currentMonth] */\n      0x00\n        /* \"TimeAlly.sol\":12875:12888  _currentMonth */\n      dup11\n        /* \"TimeAlly.sol\":12855:12889  totalActiveStakings[_currentMonth] */\n      dup2\n      mstore\n      0x20\n      add\n      swap1\n      dup2\n      mstore\n      0x20\n      add\n      0x00\n      keccak256\n      sload\n        /* \"TimeAlly.sol\":12715:12817  _userActiveStakingsExaEsAmount... */\n      tag_257\n        /* \"TimeAlly.sol\":12783:12801  timeAllyMonthlyNRT */\n      0x05\n        /* \"TimeAlly.sol\":12802:12815  _currentMonth */\n      dup12\n        /* \"TimeAlly.sol\":12783:12816  timeAllyMonthlyNRT[_currentMonth] */\n      dup2\n      sload\n      dup2\n      lt\n      tag_258\n      jumpi\n      invalid\n    tag_258:\n      swap1\n      0x00\n      mstore\n      keccak256(0x00, 0x20)\n      add\n      sload\n        /* \"TimeAlly.sol\":12715:12745  _userActiveStakingsExaEsAmount */\n      dup11\n        /* \"TimeAlly.sol\":12715:12782  _userActiveStakingsExaEsAmount... */\n      tag_212\n      swap1\n        /* \"TimeAlly.sol\":12715:12817  _userActiveStakingsExaEsAmount... */\n      swap2\n      swap1\n      0xffffffff\n      and\n      jump\t// in\n    tag_257:\n        /* \"TimeAlly.sol\":12715:12854  _userActiveStakingsExaEsAmount... */\n      tag_213\n      swap1\n        /* \"TimeAlly.sol\":12715:12890  _userActiveStakingsExaEsAmount... */\n      swap2\n      swap1\n      0xffffffff\n      and\n      jump\t// in\n    tag_256:\n        /* \"TimeAlly.sol\":12715:12927  _userActiveStakingsExaEsAmount... */\n      tag_212\n      swap1\n        /* \"TimeAlly.sol\":12715:12953  _userActiveStakingsExaEsAmount... */\n      swap2\n      swap1\n      0xffffffff\n      and\n      jump\t// in\n    tag_255:\n        /* \"TimeAlly.sol\":12715:12957  _userActiveStakingsExaEsAmount... */\n      tag_213\n      swap1\n        /* \"TimeAlly.sol\":12715:12962  _userActiveStakingsExaEsAmount... */\n      swap2\n      swap1\n      0xffffffff\n      and\n      jump\t// in\n    tag_254:\n        /* \"TimeAlly.sol\":12692:12962  uint256 _liquidShare = _userActiveStakingsExaEsAmount... */\n      swap1\n      pop\n        /* \"TimeAlly.sol\":12991:12992  0 */\n      0x00\n        /* \"TimeAlly.sol\":12976:12988  _liquidShare */\n      dup2\n        /* \"TimeAlly.sol\":12976:12992  _liquidShare > 0 */\n      gt\n        /* \"TimeAlly.sol\":12973:13059  if(_liquidShare > 0) {... */\n      iszero\n      tag_260\n      jumpi\n        /* \"TimeAlly.sol\":13008:13013  token */\n      0x01\n      0x00\n      swap1\n      sload\n      swap1\n      0x0100\n      exp\n      swap1\n      div\n      0xffffffffffffffffffffffffffffffffffffffff\n      and\n        /* \"TimeAlly.sol\":13008:13022  token.transfer */\n      0xffffffffffffffffffffffffffffffffffffffff\n      and\n      0xa9059cbb\n        /* \"TimeAlly.sol\":13023:13033  msg.sender */\n      caller\n        /* \"TimeAlly.sol\":13035:13047  _liquidShare */\n      dup4\n        /* \"TimeAlly.sol\":13008:13048  token.transfer(msg.sender, _liquidShare) */\n      mload(0x40)\n      dup4\n      0xffffffff\n      and\n      0xe0\n      shl\n      dup2\n      mstore\n      0x04\n      add\n      dup1\n      dup4\n      0xffffffffffffffffffffffffffffffffffffffff\n      and\n      0xffffffffffffffffffffffffffffffffffffffff\n      and\n      dup2\n      mstore\n      0x20\n      add\n      dup3\n      dup2\n      mstore\n      0x20\n      add\n      swap3\n      pop\n      pop\n      pop\n      0x20\n      mload(0x40)\n      dup1\n      dup4\n      sub\n      dup2\n      0x00\n      dup8\n      dup1\n      extcodesize\n      iszero\n        /* \"--CODEGEN--\":8:17   */\n      dup1\n        /* \"--CODEGEN--\":5:7   */\n      iszero\n      tag_261\n      jumpi\n        /* \"--CODEGEN--\":30:31   */\n      0x00\n        /* \"--CODEGEN--\":27:28   */\n      dup1\n        /* \"--CODEGEN--\":20:32   */\n      revert\n        /* \"--CODEGEN--\":5:7   */\n    tag_261:\n        /* \"TimeAlly.sol\":13008:13048  token.transfer(msg.sender, _liquidShare) */\n      pop\n      gas\n      call\n      iszero\n        /* \"--CODEGEN--\":8:17   */\n      dup1\n        /* \"--CODEGEN--\":5:7   */\n      iszero\n      tag_262\n      jumpi\n        /* \"--CODEGEN--\":45:61   */\n      returndatasize\n        /* \"--CODEGEN--\":42:43   */\n      0x00\n        /* \"--CODEGEN--\":39:40   */\n      dup1\n        /* \"--CODEGEN--\":24:62   */\n      returndatacopy\n        /* \"--CODEGEN--\":77:93   */\n      returndatasize\n        /* \"--CODEGEN--\":74:75   */\n      0x00\n        /* \"--CODEGEN--\":67:94   */\n      revert\n        /* \"--CODEGEN--\":5:7   */\n    tag_262:\n        /* \"TimeAlly.sol\":13008:13048  token.transfer(msg.sender, _liquidShare) */\n      pop\n      pop\n      pop\n      pop\n      mload(0x40)\n      returndatasize\n        /* \"--CODEGEN--\":13:15   */\n      0x20\n        /* \"--CODEGEN--\":8:11   */\n      dup2\n        /* \"--CODEGEN--\":5:16   */\n      lt\n        /* \"--CODEGEN--\":2:4   */\n      iszero\n      tag_263\n      jumpi\n        /* \"--CODEGEN--\":29:30   */\n      0x00\n        /* \"--CODEGEN--\":26:27   */\n      dup1\n        /* \"--CODEGEN--\":19:31   */\n      revert\n        /* \"--CODEGEN--\":2:4   */\n    tag_263:\n        /* \"TimeAlly.sol\":13008:13048  token.transfer(msg.sender, _liquidShare) */\n      dup2\n      add\n      swap1\n      dup1\n      dup1\n      mload\n      swap1\n      0x20\n      add\n      swap1\n      swap3\n      swap2\n      swap1\n      pop\n      pop\n      pop\n      pop\n        /* \"TimeAlly.sol\":12973:13059  if(_liquidShare > 0) {... */\n    tag_260:\n        /* \"TimeAlly.sol\":13072:13088  _stakeAccruedNow */\n      dup6\n        /* \"TimeAlly.sol\":13069:13174  if(_stakeAccruedNow) {... */\n      iszero\n      tag_264\n      jumpi\n        /* \"TimeAlly.sol\":13104:13163  newStaking(_shareTotalCurrentAccrued, _accruedsStakingPlan) */\n      tag_265\n        /* \"TimeAlly.sol\":13115:13140  _shareTotalCurrentAccrued */\n      dup3\n        /* \"TimeAlly.sol\":13142:13162  _accruedsStakingPlan */\n      dup7\n        /* \"TimeAlly.sol\":13104:13114  newStaking */\n      tag_136\n        /* \"TimeAlly.sol\":13104:13163  newStaking(_shareTotalCurrentAccrued, _accruedsStakingPlan) */\n      jump\t// in\n    tag_265:\n        /* \"TimeAlly.sol\":13069:13174  if(_stakeAccruedNow) {... */\n    tag_264:\n        /* \"TimeAlly.sol\":10938:13180  function withdrawShareForUserByMonth(uint256 _atMonth, uint256 _accruedPercentage, bool _stakeAccruedNow, uint256 _accruedsStakingPlan) public {... */\n      pop\n      pop\n      pop\n      pop\n      pop\n      pop\n      pop\n      pop\n      jump\t// out\n        /* \"TimeAlly.sol\":5424:5975  function viewStaking(... */\n    tag_61:\n        /* \"TimeAlly.sol\":5530:5537  uint256 */\n      0x00\n        /* \"TimeAlly.sol\":5539:5546  uint256 */\n      dup1\n        /* \"TimeAlly.sol\":5548:5555  uint256 */\n      0x00\n        /* \"TimeAlly.sol\":5557:5564  uint256 */\n      dup1\n        /* \"TimeAlly.sol\":5566:5573  uint256 */\n      0x00\n        /* \"TimeAlly.sol\":5575:5582  uint256 */\n      dup1\n        /* \"TimeAlly.sol\":5615:5623  stakings */\n      0x08\n        /* \"TimeAlly.sol\":5615:5637  stakings[_userAddress] */\n      0x00\n        /* \"TimeAlly.sol\":5624:5636  _userAddress */\n      dup10\n        /* \"TimeAlly.sol\":5615:5637  stakings[_userAddress] */\n      0xffffffffffffffffffffffffffffffffffffffff\n      and\n      0xffffffffffffffffffffffffffffffffffffffff\n      and\n      dup2\n      mstore\n      0x20\n      add\n      swap1\n      dup2\n      mstore\n      0x20\n      add\n      0x00\n      keccak256\n        /* \"TimeAlly.sol\":5638:5648  _stakingId */\n      dup8\n        /* \"TimeAlly.sol\":5615:5649  stakings[_userAddress][_stakingId] */\n      dup2\n      sload\n      dup2\n      lt\n      tag_267\n      jumpi\n      invalid\n    tag_267:\n      swap1\n      0x00\n      mstore\n      keccak256(0x00, 0x20)\n      swap1\n      0x0b\n      mul\n      add\n        /* \"TimeAlly.sol\":5615:5661  stakings[_userAddress][_stakingId].exaEsAmount */\n      0x00\n      add\n      sload\n        /* \"TimeAlly.sol\":5675:5683  stakings */\n      0x08\n        /* \"TimeAlly.sol\":5675:5697  stakings[_userAddress] */\n      0x00\n        /* \"TimeAlly.sol\":5684:5696  _userAddress */\n      dup11\n        /* \"TimeAlly.sol\":5675:5697  stakings[_userAddress] */\n      0xffffffffffffffffffffffffffffffffffffffff\n      and\n      0xffffffffffffffffffffffffffffffffffffffff\n      and\n      dup2\n      mstore\n      0x20\n      add\n      swap1\n      dup2\n      mstore\n      0x20\n      add\n      0x00\n      keccak256\n        /* \"TimeAlly.sol\":5698:5708  _stakingId */\n      dup9\n        /* \"TimeAlly.sol\":5675:5709  stakings[_userAddress][_stakingId] */\n      dup2\n      sload\n      dup2\n      lt\n      tag_269\n      jumpi\n      invalid\n    tag_269:\n      swap1\n      0x00\n      mstore\n      keccak256(0x00, 0x20)\n      swap1\n      0x0b\n      mul\n      add\n        /* \"TimeAlly.sol\":5675:5719  stakings[_userAddress][_stakingId].timestamp */\n      0x01\n      add\n      sload\n        /* \"TimeAlly.sol\":5733:5741  stakings */\n      0x08\n        /* \"TimeAlly.sol\":5733:5755  stakings[_userAddress] */\n      0x00\n        /* \"TimeAlly.sol\":5742:5754  _userAddress */\n      dup12\n        /* \"TimeAlly.sol\":5733:5755  stakings[_userAddress] */\n      0xffffffffffffffffffffffffffffffffffffffff\n      and\n      0xffffffffffffffffffffffffffffffffffffffff\n      and\n      dup2\n      mstore\n      0x20\n      add\n      swap1\n      dup2\n      mstore\n      0x20\n      add\n      0x00\n      keccak256\n        /* \"TimeAlly.sol\":5756:5766  _stakingId */\n      dup10\n        /* \"TimeAlly.sol\":5733:5767  stakings[_userAddress][_stakingId] */\n      dup2\n      sload\n      dup2\n      lt\n      tag_271\n      jumpi\n      invalid\n    tag_271:\n      swap1\n      0x00\n      mstore\n      keccak256(0x00, 0x20)\n      swap1\n      0x0b\n      mul\n      add\n        /* \"TimeAlly.sol\":5733:5781  stakings[_userAddress][_stakingId].stakingPlanId */\n      0x02\n      add\n      sload\n        /* \"TimeAlly.sol\":5795:5803  stakings */\n      0x08\n        /* \"TimeAlly.sol\":5795:5817  stakings[_userAddress] */\n      0x00\n        /* \"TimeAlly.sol\":5804:5816  _userAddress */\n      dup13\n        /* \"TimeAlly.sol\":5795:5817  stakings[_userAddress] */\n      0xffffffffffffffffffffffffffffffffffffffff\n      and\n      0xffffffffffffffffffffffffffffffffffffffff\n      and\n      dup2\n      mstore\n      0x20\n      add\n      swap1\n      dup2\n      mstore\n      0x20\n      add\n      0x00\n      keccak256\n        /* \"TimeAlly.sol\":5818:5828  _stakingId */\n      dup11\n        /* \"TimeAlly.sol\":5795:5829  stakings[_userAddress][_stakingId] */\n      dup2\n      sload\n      dup2\n      lt\n      tag_273\n      jumpi\n      invalid\n    tag_273:\n      swap1\n      0x00\n      mstore\n      keccak256(0x00, 0x20)\n      swap1\n      0x0b\n      mul\n      add\n        /* \"TimeAlly.sol\":5795:5836  stakings[_userAddress][_stakingId].status */\n      0x03\n      add\n      sload\n        /* \"TimeAlly.sol\":5850:5858  stakings */\n      0x08\n        /* \"TimeAlly.sol\":5850:5872  stakings[_userAddress] */\n      0x00\n        /* \"TimeAlly.sol\":5859:5871  _userAddress */\n      dup14\n        /* \"TimeAlly.sol\":5850:5872  stakings[_userAddress] */\n      0xffffffffffffffffffffffffffffffffffffffff\n      and\n      0xffffffffffffffffffffffffffffffffffffffff\n      and\n      dup2\n      mstore\n      0x20\n      add\n      swap1\n      dup2\n      mstore\n      0x20\n      add\n      0x00\n      keccak256\n        /* \"TimeAlly.sol\":5873:5883  _stakingId */\n      dup12\n        /* \"TimeAlly.sol\":5850:5884  stakings[_userAddress][_stakingId] */\n      dup2\n      sload\n      dup2\n      lt\n      tag_275\n      jumpi\n      invalid\n    tag_275:\n      swap1\n      0x00\n      mstore\n      keccak256(0x00, 0x20)\n      swap1\n      0x0b\n      mul\n      add\n        /* \"TimeAlly.sol\":5850:5903  stakings[_userAddress][_stakingId].accruedExaEsAmount */\n      0x04\n      add\n      sload\n        /* \"TimeAlly.sol\":5917:5925  stakings */\n      0x08\n        /* \"TimeAlly.sol\":5917:5939  stakings[_userAddress] */\n      0x00\n        /* \"TimeAlly.sol\":5926:5938  _userAddress */\n      dup15\n        /* \"TimeAlly.sol\":5917:5939  stakings[_userAddress] */\n      0xffffffffffffffffffffffffffffffffffffffff\n      and\n      0xffffffffffffffffffffffffffffffffffffffff\n      and\n      dup2\n      mstore\n      0x20\n      add\n      swap1\n      dup2\n      mstore\n      0x20\n      add\n      0x00\n      keccak256\n        /* \"TimeAlly.sol\":5940:5950  _stakingId */\n      dup13\n        /* \"TimeAlly.sol\":5917:5951  stakings[_userAddress][_stakingId] */\n      dup2\n      sload\n      dup2\n      lt\n      tag_277\n      jumpi\n      invalid\n    tag_277:\n      swap1\n      0x00\n      mstore\n      keccak256(0x00, 0x20)\n      swap1\n      0x0b\n      mul\n      add\n        /* \"TimeAlly.sol\":5917:5958  stakings[_userAddress][_stakingId].loanId */\n      0x05\n      add\n      sload\n        /* \"TimeAlly.sol\":5594:5968  return (... */\n      swap6\n      pop\n      swap6\n      pop\n      swap6\n      pop\n      swap6\n      pop\n      swap6\n      pop\n      swap6\n      pop\n        /* \"TimeAlly.sol\":5424:5975  function viewStaking(... */\n      swap3\n      swap6\n      pop\n      swap3\n      swap6\n      pop\n      swap3\n      swap6\n      jump\t// out\n        /* \"TimeAlly.sol\":16811:16927  function timeAllyMonthlyNRTArray() public view returns (uint256[] memory) {... */\n    tag_63:\n        /* \"TimeAlly.sol\":16867:16883  uint256[] memory */\n      0x60\n        /* \"TimeAlly.sol\":16902:16920  timeAllyMonthlyNRT */\n      0x05\n        /* \"TimeAlly.sol\":16895:16920  return timeAllyMonthlyNRT */\n      dup1\n      sload\n      dup1\n      0x20\n      mul\n      0x20\n      add\n      mload(0x40)\n      swap1\n      dup2\n      add\n      0x40\n      mstore\n      dup1\n      swap3\n      swap2\n      swap1\n      dup2\n      dup2\n      mstore\n      0x20\n      add\n      dup3\n      dup1\n      sload\n      dup1\n      iszero\n      tag_280\n      jumpi\n      0x20\n      mul\n      dup3\n      add\n      swap2\n      swap1\n      0x00\n      mstore\n      keccak256(0x00, 0x20)\n      swap1\n    tag_281:\n      dup2\n      sload\n      dup2\n      mstore\n      0x20\n      add\n      swap1\n      0x01\n      add\n      swap1\n      dup1\n      dup4\n      gt\n      tag_281\n      jumpi\n    tag_280:\n      pop\n      pop\n      pop\n      pop\n      pop\n      swap1\n      pop\n        /* \"TimeAlly.sol\":16811:16927  function timeAllyMonthlyNRTArray() public view returns (uint256[] memory) {... */\n      swap1\n      jump\t// out\n        /* \"TimeAlly.sol\":1711:1766  mapping (uint256 => uint256) public totalActiveStakings */\n    tag_69:\n      mstore(0x20, 0x0a)\n      dup1\n      0x00\n      mstore\n      keccak256(0x00, 0x40)\n      0x00\n      swap2\n      pop\n      swap1\n      pop\n      sload\n      dup2\n      jump\t// out\n        /* \"TimeAlly.sol\":24483:24950  function removeNominee(uint256 _stakingId, address _nomineeAddress) public {... */\n    tag_72:\n        /* \"TimeAlly.sol\":24619:24620  1 */\n      0x01\n        /* \"TimeAlly.sol\":24576:24584  stakings */\n      0x08\n        /* \"TimeAlly.sol\":24576:24596  stakings[msg.sender] */\n      0x00\n        /* \"TimeAlly.sol\":24585:24595  msg.sender */\n      caller\n        /* \"TimeAlly.sol\":24576:24596  stakings[msg.sender] */\n      0xffffffffffffffffffffffffffffffffffffffff\n      and\n      0xffffffffffffffffffffffffffffffffffffffff\n      and\n      dup2\n      mstore\n      0x20\n      add\n      swap1\n      dup2\n      mstore\n      0x20\n      add\n      0x00\n      keccak256\n        /* \"TimeAlly.sol\":24597:24607  _stakingId */\n      dup4\n        /* \"TimeAlly.sol\":24576:24608  stakings[msg.sender][_stakingId] */\n      dup2\n      sload\n      dup2\n      lt\n      tag_283\n      jumpi\n      invalid\n    tag_283:\n      swap1\n      0x00\n      mstore\n      keccak256(0x00, 0x20)\n      swap1\n      0x0b\n      mul\n      add\n        /* \"TimeAlly.sol\":24576:24615  stakings[msg.sender][_stakingId].status */\n      0x03\n      add\n      sload\n        /* \"TimeAlly.sol\":24576:24620  stakings[msg.sender][_stakingId].status == 1 */\n      eq\n        /* \"TimeAlly.sol\":24568:24646  require(stakings[msg.sender][_stakingId].status == 1, 'staking should active') */\n      tag_285\n      jumpi\n      mload(0x40)\n      0x08c379a000000000000000000000000000000000000000000000000000000000\n      dup2\n      mstore\n      0x04\n      add\n      dup1\n      dup1\n      0x20\n      add\n      dup3\n      dup2\n      sub\n      dup3\n      mstore\n      0x15\n      dup2\n      mstore\n      0x20\n      add\n      dup1\n      0x7374616b696e672073686f756c64206163746976650000000000000000000000\n      dup2\n      mstore\n      pop\n      0x20\n      add\n      swap2\n      pop\n      pop\n      mload(0x40)\n      dup1\n      swap2\n      sub\n      swap1\n      revert\n    tag_285:\n        /* \"TimeAlly.sol\":24656:24674  uint256 _oldShares */\n      0x00\n        /* \"TimeAlly.sol\":24677:24685  stakings */\n      0x08\n        /* \"TimeAlly.sol\":24677:24697  stakings[msg.sender] */\n      0x00\n        /* \"TimeAlly.sol\":24686:24696  msg.sender */\n      caller\n        /* \"TimeAlly.sol\":24677:24697  stakings[msg.sender] */\n      0xffffffffffffffffffffffffffffffffffffffff\n      and\n      0xffffffffffffffffffffffffffffffffffffffff\n      and\n      dup2\n      mstore\n      0x20\n      add\n      swap1\n      dup2\n      mstore\n      0x20\n      add\n      0x00\n      keccak256\n        /* \"TimeAlly.sol\":24698:24708  _stakingId */\n      dup4\n        /* \"TimeAlly.sol\":24677:24709  stakings[msg.sender][_stakingId] */\n      dup2\n      sload\n      dup2\n      lt\n      tag_286\n      jumpi\n      invalid\n    tag_286:\n      swap1\n      0x00\n      mstore\n      keccak256(0x00, 0x20)\n      swap1\n      0x0b\n      mul\n      add\n        /* \"TimeAlly.sol\":24677:24720  stakings[msg.sender][_stakingId].nomination */\n      0x0a\n      add\n        /* \"TimeAlly.sol\":24677:24732  stakings[msg.sender][_stakingId].nomination[msg.sender] */\n      0x00\n        /* \"TimeAlly.sol\":24721:24731  msg.sender */\n      caller\n        /* \"TimeAlly.sol\":24677:24732  stakings[msg.sender][_stakingId].nomination[msg.sender] */\n      0xffffffffffffffffffffffffffffffffffffffff\n      and\n      0xffffffffffffffffffffffffffffffffffffffff\n      and\n      dup2\n      mstore\n      0x20\n      add\n      swap1\n      dup2\n      mstore\n      0x20\n      add\n      0x00\n      keccak256\n      sload\n        /* \"TimeAlly.sol\":24656:24732  uint256 _oldShares = stakings[msg.sender][_stakingId].nomination[msg.sender] */\n      swap1\n      pop\n        /* \"TimeAlly.sol\":24805:24806  0 */\n      0x00\n        /* \"TimeAlly.sol\":24742:24750  stakings */\n      0x08\n        /* \"TimeAlly.sol\":24742:24762  stakings[msg.sender] */\n      0x00\n        /* \"TimeAlly.sol\":24751:24761  msg.sender */\n      caller\n        /* \"TimeAlly.sol\":24742:24762  stakings[msg.sender] */\n      0xffffffffffffffffffffffffffffffffffffffff\n      and\n      0xffffffffffffffffffffffffffffffffffffffff\n      and\n      dup2\n      mstore\n      0x20\n      add\n      swap1\n      dup2\n      mstore\n      0x20\n      add\n      0x00\n      keccak256\n        /* \"TimeAlly.sol\":24763:24773  _stakingId */\n      dup5\n        /* \"TimeAlly.sol\":24742:24774  stakings[msg.sender][_stakingId] */\n      dup2\n      sload\n      dup2\n      lt\n      tag_288\n      jumpi\n      invalid\n    tag_288:\n      swap1\n      0x00\n      mstore\n      keccak256(0x00, 0x20)\n      swap1\n      0x0b\n      mul\n      add\n        /* \"TimeAlly.sol\":24742:24785  stakings[msg.sender][_stakingId].nomination */\n      0x0a\n      add\n        /* \"TimeAlly.sol\":24742:24802  stakings[msg.sender][_stakingId].nomination[_nomineeAddress] */\n      0x00\n        /* \"TimeAlly.sol\":24786:24801  _nomineeAddress */\n      dup5\n        /* \"TimeAlly.sol\":24742:24802  stakings[msg.sender][_stakingId].nomination[_nomineeAddress] */\n      0xffffffffffffffffffffffffffffffffffffffff\n      and\n      0xffffffffffffffffffffffffffffffffffffffff\n      and\n      dup2\n      mstore\n      0x20\n      add\n      swap1\n      dup2\n      mstore\n      0x20\n      add\n      0x00\n      keccak256\n        /* \"TimeAlly.sol\":24742:24806  stakings[msg.sender][_stakingId].nomination[_nomineeAddress] = 0 */\n      dup2\n      swap1\n      sstore\n      pop\n        /* \"TimeAlly.sol\":24873:24943  stakings[msg.sender][_stakingId].totalNominationShares.sub(_oldShares) */\n      tag_290\n        /* \"TimeAlly.sol\":24932:24942  _oldShares */\n      dup2\n        /* \"TimeAlly.sol\":24873:24881  stakings */\n      0x08\n        /* \"TimeAlly.sol\":24873:24893  stakings[msg.sender] */\n      0x00\n        /* \"TimeAlly.sol\":24882:24892  msg.sender */\n      caller\n        /* \"TimeAlly.sol\":24873:24893  stakings[msg.sender] */\n      0xffffffffffffffffffffffffffffffffffffffff\n      and\n      0xffffffffffffffffffffffffffffffffffffffff\n      and\n      dup2\n      mstore\n      0x20\n      add\n      swap1\n      dup2\n      mstore\n      0x20\n      add\n      0x00\n      keccak256\n        /* \"TimeAlly.sol\":24894:24904  _stakingId */\n      dup6\n        /* \"TimeAlly.sol\":24873:24905  stakings[msg.sender][_stakingId] */\n      dup2\n      sload\n      dup2\n      lt\n      tag_291\n      jumpi\n      invalid\n    tag_291:\n      swap1\n      0x00\n      mstore\n      keccak256(0x00, 0x20)\n      swap1\n      0x0b\n      mul\n      add\n        /* \"TimeAlly.sol\":24873:24927  stakings[msg.sender][_stakingId].totalNominationShares */\n      0x09\n      add\n      sload\n        /* \"TimeAlly.sol\":24873:24931  stakings[msg.sender][_stakingId].totalNominationShares.sub */\n      tag_159\n      swap1\n        /* \"TimeAlly.sol\":24873:24943  stakings[msg.sender][_stakingId].totalNominationShares.sub(_oldShares) */\n      swap2\n      swap1\n      0xffffffff\n      and\n      jump\t// in\n    tag_290:\n        /* \"TimeAlly.sol\":24816:24824  stakings */\n      0x08\n        /* \"TimeAlly.sol\":24816:24836  stakings[msg.sender] */\n      0x00\n        /* \"TimeAlly.sol\":24825:24835  msg.sender */\n      caller\n        /* \"TimeAlly.sol\":24816:24836  stakings[msg.sender] */\n      0xffffffffffffffffffffffffffffffffffffffff\n      and\n      0xffffffffffffffffffffffffffffffffffffffff\n      and\n      dup2\n      mstore\n      0x20\n      add\n      swap1\n      dup2\n      mstore\n      0x20\n      add\n      0x00\n      keccak256\n        /* \"TimeAlly.sol\":24837:24847  _stakingId */\n      dup5\n        /* \"TimeAlly.sol\":24816:24848  stakings[msg.sender][_stakingId] */\n      dup2\n      sload\n      dup2\n      lt\n      tag_293\n      jumpi\n      invalid\n    tag_293:\n      swap1\n      0x00\n      mstore\n      keccak256(0x00, 0x20)\n      swap1\n      0x0b\n      mul\n      add\n        /* \"TimeAlly.sol\":24816:24870  stakings[msg.sender][_stakingId].totalNominationShares */\n      0x09\n      add\n        /* \"TimeAlly.sol\":24816:24943  stakings[msg.sender][_stakingId].totalNominationShares = stakings[msg.sender][_stakingId].totalNominationShares.sub(_oldShares) */\n      dup2\n      swap1\n      sstore\n      pop\n        /* \"TimeAlly.sol\":24483:24950  function removeNominee(uint256 _stakingId, address _nomineeAddress) public {... */\n      pop\n      pop\n      pop\n      jump\t// out\n        /* \"TimeAlly.sol\":5981:6270  function topupRewardBucket(uint256 _exaEsAmount) public {... */\n    tag_75:\n        /* \"TimeAlly.sol\":6055:6060  token */\n      0x01\n      0x00\n      swap1\n      sload\n      swap1\n      0x0100\n      exp\n      swap1\n      div\n      0xffffffffffffffffffffffffffffffffffffffff\n      and\n        /* \"TimeAlly.sol\":6055:6073  token.transferFrom */\n      0xffffffffffffffffffffffffffffffffffffffff\n      and\n      0x23b872dd\n        /* \"TimeAlly.sol\":6074:6084  msg.sender */\n      caller\n        /* \"TimeAlly.sol\":6094:6098  this */\n      address\n        /* \"TimeAlly.sol\":6101:6113  _exaEsAmount */\n      dup5\n        /* \"TimeAlly.sol\":6055:6114  token.transferFrom(msg.sender, address(this), _exaEsAmount) */\n      mload(0x40)\n      dup5\n      0xffffffff\n      and\n      0xe0\n      shl\n      dup2\n      mstore\n      0x04\n      add\n      dup1\n      dup5\n      0xffffffffffffffffffffffffffffffffffffffff\n      and\n      0xffffffffffffffffffffffffffffffffffffffff\n      and\n      dup2\n      mstore\n      0x20\n      add\n      dup4\n      0xffffffffffffffffffffffffffffffffffffffff\n      and\n      0xffffffffffffffffffffffffffffffffffffffff\n      and\n      dup2\n      mstore\n      0x20\n      add\n      dup3\n      dup2\n      mstore\n      0x20\n      add\n      swap4\n      pop\n      pop\n      pop\n      pop\n      0x20\n      mload(0x40)\n      dup1\n      dup4\n      sub\n      dup2\n      0x00\n      dup8\n      dup1\n      extcodesize\n      iszero\n        /* \"--CODEGEN--\":8:17   */\n      dup1\n        /* \"--CODEGEN--\":5:7   */\n      iszero\n      tag_296\n      jumpi\n        /* \"--CODEGEN--\":30:31   */\n      0x00\n        /* \"--CODEGEN--\":27:28   */\n      dup1\n        /* \"--CODEGEN--\":20:32   */\n      revert\n        /* \"--CODEGEN--\":5:7   */\n    tag_296:\n        /* \"TimeAlly.sol\":6055:6114  token.transferFrom(msg.sender, address(this), _exaEsAmount) */\n      pop\n      gas\n      call\n      iszero\n        /* \"--CODEGEN--\":8:17   */\n      dup1\n        /* \"--CODEGEN--\":5:7   */\n      iszero\n      tag_297\n      jumpi\n        /* \"--CODEGEN--\":45:61   */\n      returndatasize\n        /* \"--CODEGEN--\":42:43   */\n      0x00\n        /* \"--CODEGEN--\":39:40   */\n      dup1\n        /* \"--CODEGEN--\":24:62   */\n      returndatacopy\n        /* \"--CODEGEN--\":77:93   */\n      returndatasize\n        /* \"--CODEGEN--\":74:75   */\n      0x00\n        /* \"--CODEGEN--\":67:94   */\n      revert\n        /* \"--CODEGEN--\":5:7   */\n    tag_297:\n        /* \"TimeAlly.sol\":6055:6114  token.transferFrom(msg.sender, address(this), _exaEsAmount) */\n      pop\n      pop\n      pop\n      pop\n      mload(0x40)\n      returndatasize\n        /* \"--CODEGEN--\":13:15   */\n      0x20\n        /* \"--CODEGEN--\":8:11   */\n      dup2\n        /* \"--CODEGEN--\":5:16   */\n      lt\n        /* \"--CODEGEN--\":2:4   */\n      iszero\n      tag_298\n      jumpi\n        /* \"--CODEGEN--\":29:30   */\n      0x00\n        /* \"--CODEGEN--\":26:27   */\n      dup1\n        /* \"--CODEGEN--\":19:31   */\n      revert\n        /* \"--CODEGEN--\":2:4   */\n    tag_298:\n        /* \"TimeAlly.sol\":6055:6114  token.transferFrom(msg.sender, address(this), _exaEsAmount) */\n      dup2\n      add\n      swap1\n      dup1\n      dup1\n      mload\n      swap1\n      0x20\n      add\n      swap1\n      swap3\n      swap2\n      swap1\n      pop\n      pop\n      pop\n        /* \"TimeAlly.sol\":6047:6115  require(token.transferFrom(msg.sender, address(this), _exaEsAmount)) */\n      tag_299\n      jumpi\n      0x00\n      dup1\n      revert\n    tag_299:\n        /* \"TimeAlly.sol\":6221:6263  launchReward[msg.sender].add(_exaEsAmount) */\n      tag_300\n        /* \"TimeAlly.sol\":6250:6262  _exaEsAmount */\n      dup2\n        /* \"TimeAlly.sol\":6221:6233  launchReward */\n      0x0b\n        /* \"TimeAlly.sol\":6221:6245  launchReward[msg.sender] */\n      0x00\n        /* \"TimeAlly.sol\":6234:6244  msg.sender */\n      caller\n        /* \"TimeAlly.sol\":6221:6245  launchReward[msg.sender] */\n      0xffffffffffffffffffffffffffffffffffffffff\n      and\n      0xffffffffffffffffffffffffffffffffffffffff\n      and\n      dup2\n      mstore\n      0x20\n      add\n      swap1\n      dup2\n      mstore\n      0x20\n      add\n      0x00\n      keccak256\n      sload\n        /* \"TimeAlly.sol\":6221:6249  launchReward[msg.sender].add */\n      tag_163\n      swap1\n        /* \"TimeAlly.sol\":6221:6263  launchReward[msg.sender].add(_exaEsAmount) */\n      swap2\n      swap1\n      0xffffffff\n      and\n      jump\t// in\n    tag_300:\n        /* \"TimeAlly.sol\":6194:6206  launchReward */\n      0x0b\n        /* \"TimeAlly.sol\":6194:6218  launchReward[msg.sender] */\n      0x00\n        /* \"TimeAlly.sol\":6207:6217  msg.sender */\n      caller\n        /* \"TimeAlly.sol\":6194:6218  launchReward[msg.sender] */\n      0xffffffffffffffffffffffffffffffffffffffff\n      and\n      0xffffffffffffffffffffffffffffffffffffffff\n      and\n      dup2\n      mstore\n      0x20\n      add\n      swap1\n      dup2\n      mstore\n      0x20\n      add\n      0x00\n      keccak256\n        /* \"TimeAlly.sol\":6194:6263  launchReward[msg.sender] = launchReward[msg.sender].add(_exaEsAmount) */\n      dup2\n      swap1\n      sstore\n      pop\n        /* \"TimeAlly.sol\":5981:6270  function topupRewardBucket(uint256 _exaEsAmount) public {... */\n      pop\n      jump\t// out\n        /* \"TimeAlly.sol\":1461:1494  StakingPlan[] public stakingPlans */\n    tag_78:\n      0x06\n      dup2\n      dup2\n      sload\n      dup2\n      lt\n      tag_301\n      jumpi\n      invalid\n    tag_301:\n      swap1\n      0x00\n      mstore\n      keccak256(0x00, 0x20)\n      swap1\n      0x02\n      mul\n      add\n      0x00\n      swap2\n      pop\n      swap1\n      pop\n      dup1\n      0x00\n      add\n      sload\n      swap1\n      dup1\n      0x01\n      add\n      sload\n      swap1\n      pop\n      dup3\n      jump\t// out\n        /* \"TimeAlly.sol\":1807:1854  mapping(address => uint256) public launchReward */\n    tag_81:\n      mstore(0x20, 0x0b)\n      dup1\n      0x00\n      mstore\n      keccak256(0x00, 0x40)\n      0x00\n      swap2\n      pop\n      swap1\n      pop\n      sload\n      dup2\n      jump\t// out\n        /* \"TimeAlly.sol\":3844:4048  function createLoanPlan(uint256 _loanMonths, uint256 _loanRate) public onlyOwner {... */\n    tag_84:\n        /* \"TimeAlly.sol\":3053:3058  owner */\n      0x00\n      dup1\n      swap1\n      sload\n      swap1\n      0x0100\n      exp\n      swap1\n      div\n      0xffffffffffffffffffffffffffffffffffffffff\n      and\n        /* \"TimeAlly.sol\":3039:3058  msg.sender == owner */\n      0xffffffffffffffffffffffffffffffffffffffff\n      and\n        /* \"TimeAlly.sol\":3039:3049  msg.sender */\n      caller\n        /* \"TimeAlly.sol\":3039:3058  msg.sender == owner */\n      0xffffffffffffffffffffffffffffffffffffffff\n      and\n      eq\n        /* \"TimeAlly.sol\":3031:3085  require(msg.sender == owner, 'only deployer can call') */\n      tag_304\n      jumpi\n      mload(0x40)\n      0x08c379a000000000000000000000000000000000000000000000000000000000\n      dup2\n      mstore\n      0x04\n      add\n      dup1\n      dup1\n      0x20\n      add\n      dup3\n      dup2\n      sub\n      dup3\n      mstore\n      0x16\n      dup2\n      mstore\n      0x20\n      add\n      dup1\n      0x6f6e6c79206465706c6f7965722063616e2063616c6c00000000000000000000\n      dup2\n      mstore\n      pop\n      0x20\n      add\n      swap2\n      pop\n      pop\n      mload(0x40)\n      dup1\n      swap2\n      sub\n      swap1\n      revert\n    tag_304:\n        /* \"TimeAlly.sol\":3935:3944  loanPlans */\n      0x07\n        /* \"TimeAlly.sol\":3950:4040  LoanPlan({... */\n      mload(0x40)\n      dup1\n      0x40\n      add\n      0x40\n      mstore\n      dup1\n        /* \"TimeAlly.sol\":3985:3996  _loanMonths */\n      dup5\n        /* \"TimeAlly.sol\":3950:4040  LoanPlan({... */\n      dup2\n      mstore\n      0x20\n      add\n        /* \"TimeAlly.sol\":4020:4029  _loanRate */\n      dup4\n        /* \"TimeAlly.sol\":3950:4040  LoanPlan({... */\n      dup2\n      mstore\n      pop\n        /* \"TimeAlly.sol\":3935:4041  loanPlans.push(LoanPlan({... */\n      swap1\n      dup1\n        /* \"--CODEGEN--\":39:40   */\n      0x01\n        /* \"--CODEGEN--\":33:36   */\n      dup2\n        /* \"--CODEGEN--\":27:37   */\n      sload\n        /* \"--CODEGEN--\":23:41   */\n      add\n        /* \"--CODEGEN--\":57:67   */\n      dup1\n        /* \"--CODEGEN--\":52:55   */\n      dup3\n        /* \"--CODEGEN--\":45:68   */\n      sstore\n        /* \"--CODEGEN--\":79:89   */\n      dup1\n        /* \"--CODEGEN--\":72:89   */\n      swap2\n      pop\n        /* \"--CODEGEN--\":0:93   */\n      pop\n        /* \"TimeAlly.sol\":3935:4041  loanPlans.push(LoanPlan({... */\n      swap1\n      0x01\n      dup3\n      sub\n      swap1\n      0x00\n      mstore\n      keccak256(0x00, 0x20)\n      swap1\n      0x02\n      mul\n      add\n      0x00\n      swap1\n      swap2\n      swap3\n      swap1\n      swap2\n      swap1\n      swap2\n      pop\n      0x00\n      dup3\n      add\n      mload\n      dup2\n      0x00\n      add\n      sstore\n      0x20\n      dup3\n      add\n      mload\n      dup2\n      0x01\n      add\n      sstore\n      pop\n      pop\n      pop\n        /* \"TimeAlly.sol\":3844:4048  function createLoanPlan(uint256 _loanMonths, uint256 _loanRate) public onlyOwner {... */\n      pop\n      pop\n      jump\t// out\n        /* \"TimeAlly.sol\":6276:6646  function giveLaunchReward(address[] memory _addresses, uint256[] memory _exaEsAmountArray) public onlyOwner {... */\n    tag_93:\n        /* \"TimeAlly.sol\":3053:3058  owner */\n      0x00\n      dup1\n      swap1\n      sload\n      swap1\n      0x0100\n      exp\n      swap1\n      div\n      0xffffffffffffffffffffffffffffffffffffffff\n      and\n        /* \"TimeAlly.sol\":3039:3058  msg.sender == owner */\n      0xffffffffffffffffffffffffffffffffffffffff\n      and\n        /* \"TimeAlly.sol\":3039:3049  msg.sender */\n      caller\n        /* \"TimeAlly.sol\":3039:3058  msg.sender == owner */\n      0xffffffffffffffffffffffffffffffffffffffff\n      and\n      eq\n        /* \"TimeAlly.sol\":3031:3085  require(msg.sender == owner, 'only deployer can call') */\n      tag_308\n      jumpi\n      mload(0x40)\n      0x08c379a000000000000000000000000000000000000000000000000000000000\n      dup2\n      mstore\n      0x04\n      add\n      dup1\n      dup1\n      0x20\n      add\n      dup3\n      dup2\n      sub\n      dup3\n      mstore\n      0x16\n      dup2\n      mstore\n      0x20\n      add\n      dup1\n      0x6f6e6c79206465706c6f7965722063616e2063616c6c00000000000000000000\n      dup2\n      mstore\n      pop\n      0x20\n      add\n      swap2\n      pop\n      pop\n      mload(0x40)\n      dup1\n      swap2\n      sub\n      swap1\n      revert\n    tag_308:\n        /* \"TimeAlly.sol\":6398:6407  uint256 i */\n      0x00\n        /* \"TimeAlly.sol\":6410:6411  0 */\n      dup1\n        /* \"TimeAlly.sol\":6398:6411  uint256 i = 0 */\n      swap1\n      pop\n        /* \"TimeAlly.sol\":6394:6640  for(uint256 i = 0; i < _addresses.length; i++) {... */\n    tag_310:\n        /* \"TimeAlly.sol\":6417:6427  _addresses */\n      dup3\n        /* \"TimeAlly.sol\":6417:6434  _addresses.length */\n      mload\n        /* \"TimeAlly.sol\":6413:6414  i */\n      dup2\n        /* \"TimeAlly.sol\":6413:6434  i < _addresses.length */\n      lt\n        /* \"TimeAlly.sol\":6394:6640  for(uint256 i = 0; i < _addresses.length; i++) {... */\n      iszero\n      tag_311\n      jumpi\n        /* \"TimeAlly.sol\":6482:6532  launchReward[msg.sender].sub(_exaEsAmountArray[i]) */\n      tag_313\n        /* \"TimeAlly.sol\":6511:6528  _exaEsAmountArray */\n      dup3\n        /* \"TimeAlly.sol\":6529:6530  i */\n      dup3\n        /* \"TimeAlly.sol\":6511:6531  _exaEsAmountArray[i] */\n      dup2\n      mload\n      dup2\n      lt\n      tag_314\n      jumpi\n      invalid\n    tag_314:\n      0x20\n      mul\n      0x20\n      add\n      add\n      mload\n        /* \"TimeAlly.sol\":6482:6494  launchReward */\n      0x0b\n        /* \"TimeAlly.sol\":6482:6506  launchReward[msg.sender] */\n      0x00\n        /* \"TimeAlly.sol\":6495:6505  msg.sender */\n      caller\n        /* \"TimeAlly.sol\":6482:6506  launchReward[msg.sender] */\n      0xffffffffffffffffffffffffffffffffffffffff\n      and\n      0xffffffffffffffffffffffffffffffffffffffff\n      and\n      dup2\n      mstore\n      0x20\n      add\n      swap1\n      dup2\n      mstore\n      0x20\n      add\n      0x00\n      keccak256\n      sload\n        /* \"TimeAlly.sol\":6482:6510  launchReward[msg.sender].sub */\n      tag_159\n      swap1\n        /* \"TimeAlly.sol\":6482:6532  launchReward[msg.sender].sub(_exaEsAmountArray[i]) */\n      swap2\n      swap1\n      0xffffffff\n      and\n      jump\t// in\n    tag_313:\n        /* \"TimeAlly.sol\":6455:6467  launchReward */\n      0x0b\n        /* \"TimeAlly.sol\":6455:6479  launchReward[msg.sender] */\n      0x00\n        /* \"TimeAlly.sol\":6468:6478  msg.sender */\n      caller\n        /* \"TimeAlly.sol\":6455:6479  launchReward[msg.sender] */\n      0xffffffffffffffffffffffffffffffffffffffff\n      and\n      0xffffffffffffffffffffffffffffffffffffffff\n      and\n      dup2\n      mstore\n      0x20\n      add\n      swap1\n      dup2\n      mstore\n      0x20\n      add\n      0x00\n      keccak256\n        /* \"TimeAlly.sol\":6455:6532  launchReward[msg.sender] = launchReward[msg.sender].sub(_exaEsAmountArray[i]) */\n      dup2\n      swap1\n      sstore\n      pop\n        /* \"TimeAlly.sol\":6576:6629  launchReward[_addresses[i]].add(_exaEsAmountArray[i]) */\n      tag_315\n        /* \"TimeAlly.sol\":6608:6625  _exaEsAmountArray */\n      dup3\n        /* \"TimeAlly.sol\":6626:6627  i */\n      dup3\n        /* \"TimeAlly.sol\":6608:6628  _exaEsAmountArray[i] */\n      dup2\n      mload\n      dup2\n      lt\n      tag_316\n      jumpi\n      invalid\n    tag_316:\n      0x20\n      mul\n      0x20\n      add\n      add\n      mload\n        /* \"TimeAlly.sol\":6576:6588  launchReward */\n      0x0b\n        /* \"TimeAlly.sol\":6576:6603  launchReward[_addresses[i]] */\n      0x00\n        /* \"TimeAlly.sol\":6589:6599  _addresses */\n      dup7\n        /* \"TimeAlly.sol\":6600:6601  i */\n      dup6\n        /* \"TimeAlly.sol\":6589:6602  _addresses[i] */\n      dup2\n      mload\n      dup2\n      lt\n      tag_317\n      jumpi\n      invalid\n    tag_317:\n      0x20\n      mul\n      0x20\n      add\n      add\n      mload\n        /* \"TimeAlly.sol\":6576:6603  launchReward[_addresses[i]] */\n      0xffffffffffffffffffffffffffffffffffffffff\n      and\n      0xffffffffffffffffffffffffffffffffffffffff\n      and\n      dup2\n      mstore\n      0x20\n      add\n      swap1\n      dup2\n      mstore\n      0x20\n      add\n      0x00\n      keccak256\n      sload\n        /* \"TimeAlly.sol\":6576:6607  launchReward[_addresses[i]].add */\n      tag_163\n      swap1\n        /* \"TimeAlly.sol\":6576:6629  launchReward[_addresses[i]].add(_exaEsAmountArray[i]) */\n      swap2\n      swap1\n      0xffffffff\n      and\n      jump\t// in\n    tag_315:\n        /* \"TimeAlly.sol\":6546:6558  launchReward */\n      0x0b\n        /* \"TimeAlly.sol\":6546:6573  launchReward[_addresses[i]] */\n      0x00\n        /* \"TimeAlly.sol\":6559:6569  _addresses */\n      dup6\n        /* \"TimeAlly.sol\":6570:6571  i */\n      dup5\n        /* \"TimeAlly.sol\":6559:6572  _addresses[i] */\n      dup2\n      mload\n      dup2\n      lt\n      tag_318\n      jumpi\n      invalid\n    tag_318:\n      0x20\n      mul\n      0x20\n      add\n      add\n      mload\n        /* \"TimeAlly.sol\":6546:6573  launchReward[_addresses[i]] */\n      0xffffffffffffffffffffffffffffffffffffffff\n      and\n      0xffffffffffffffffffffffffffffffffffffffff\n      and\n      dup2\n      mstore\n      0x20\n      add\n      swap1\n      dup2\n      mstore\n      0x20\n      add\n      0x00\n      keccak256\n        /* \"TimeAlly.sol\":6546:6629  launchReward[_addresses[i]] = launchReward[_addresses[i]].add(_exaEsAmountArray[i]) */\n      dup2\n      swap1\n      sstore\n      pop\n        /* \"TimeAlly.sol\":6436:6439  i++ */\n      dup1\n      dup1\n      0x01\n      add\n      swap2\n      pop\n      pop\n        /* \"TimeAlly.sol\":6394:6640  for(uint256 i = 0; i < _addresses.length; i++) {... */\n      jump(tag_310)\n    tag_311:\n      pop\n        /* \"TimeAlly.sol\":6276:6646  function giveLaunchReward(address[] memory _addresses, uint256[] memory _exaEsAmountArray) public onlyOwner {... */\n      pop\n      pop\n      jump\t// out\n        /* \"TimeAlly.sol\":1115:1135  address public owner */\n    tag_95:\n      0x00\n      dup1\n      swap1\n      sload\n      swap1\n      0x0100\n      exp\n      swap1\n      div\n      0xffffffffffffffffffffffffffffffffffffffff\n      and\n      dup2\n      jump\t// out\n        /* \"TimeAlly.sol\":24956:28168  function nomineeWithdraw(address _userAddress, uint256 _stakingId) public {... */\n    tag_98:\n        /* \"TimeAlly.sol\":25070:25089  uint256 currentTime */\n      0x00\n        /* \"TimeAlly.sol\":25092:25097  token */\n      0x01\n      0x00\n      swap1\n      sload\n      swap1\n      0x0100\n      exp\n      swap1\n      div\n      0xffffffffffffffffffffffffffffffffffffffff\n      and\n        /* \"TimeAlly.sol\":25092:25101  token.mou */\n      0xffffffffffffffffffffffffffffffffffffffff\n      and\n      0xb81f90f3\n        /* \"TimeAlly.sol\":25092:25103  token.mou() */\n      mload(0x40)\n      dup2\n      0xffffffff\n      and\n      0xe0\n      shl\n      dup2\n      mstore\n      0x04\n      add\n      0x20\n      mload(0x40)\n      dup1\n      dup4\n      sub\n      dup2\n      dup7\n      dup1\n      extcodesize\n      iszero\n        /* \"--CODEGEN--\":8:17   */\n      dup1\n        /* \"--CODEGEN--\":5:7   */\n      iszero\n      tag_320\n      jumpi\n        /* \"--CODEGEN--\":30:31   */\n      0x00\n        /* \"--CODEGEN--\":27:28   */\n      dup1\n        /* \"--CODEGEN--\":20:32   */\n      revert\n        /* \"--CODEGEN--\":5:7   */\n    tag_320:\n        /* \"TimeAlly.sol\":25092:25103  token.mou() */\n      pop\n      gas\n      staticcall\n      iszero\n        /* \"--CODEGEN--\":8:17   */\n      dup1\n        /* \"--CODEGEN--\":5:7   */\n      iszero\n      tag_321\n      jumpi\n        /* \"--CODEGEN--\":45:61   */\n      returndatasize\n        /* \"--CODEGEN--\":42:43   */\n      0x00\n        /* \"--CODEGEN--\":39:40   */\n      dup1\n        /* \"--CODEGEN--\":24:62   */\n      returndatacopy\n        /* \"--CODEGEN--\":77:93   */\n      returndatasize\n        /* \"--CODEGEN--\":74:75   */\n      0x00\n        /* \"--CODEGEN--\":67:94   */\n      revert\n        /* \"--CODEGEN--\":5:7   */\n    tag_321:\n        /* \"TimeAlly.sol\":25092:25103  token.mou() */\n      pop\n      pop\n      pop\n      pop\n      mload(0x40)\n      returndatasize\n        /* \"--CODEGEN--\":13:15   */\n      0x20\n        /* \"--CODEGEN--\":8:11   */\n      dup2\n        /* \"--CODEGEN--\":5:16   */\n      lt\n        /* \"--CODEGEN--\":2:4   */\n      iszero\n      tag_322\n      jumpi\n        /* \"--CODEGEN--\":29:30   */\n      0x00\n        /* \"--CODEGEN--\":26:27   */\n      dup1\n        /* \"--CODEGEN--\":19:31   */\n      revert\n        /* \"--CODEGEN--\":2:4   */\n    tag_322:\n        /* \"TimeAlly.sol\":25092:25103  token.mou() */\n      dup2\n      add\n      swap1\n      dup1\n      dup1\n      mload\n      swap1\n      0x20\n      add\n      swap1\n      swap3\n      swap2\n      swap1\n      pop\n      pop\n      pop\n        /* \"TimeAlly.sol\":25070:25103  uint256 currentTime = token.mou() */\n      swap1\n      pop\n        /* \"TimeAlly.sol\":25323:25342  earthSecondsInMonth */\n      sload(0x04)\n        /* \"TimeAlly.sol\":25318:25320  12 */\n      0x0c\n        /* \"TimeAlly.sol\":25318:25342  12 * earthSecondsInMonth */\n      mul\n        /* \"TimeAlly.sol\":25276:25295  earthSecondsInMonth */\n      sload(0x04)\n        /* \"TimeAlly.sol\":25204:25216  stakingPlans */\n      0x06\n        /* \"TimeAlly.sol\":25217:25225  stakings */\n      0x08\n        /* \"TimeAlly.sol\":25217:25239  stakings[_userAddress] */\n      0x00\n        /* \"TimeAlly.sol\":25226:25238  _userAddress */\n      dup8\n        /* \"TimeAlly.sol\":25217:25239  stakings[_userAddress] */\n      0xffffffffffffffffffffffffffffffffffffffff\n      and\n      0xffffffffffffffffffffffffffffffffffffffff\n      and\n      dup2\n      mstore\n      0x20\n      add\n      swap1\n      dup2\n      mstore\n      0x20\n      add\n      0x00\n      keccak256\n        /* \"TimeAlly.sol\":25240:25250  _stakingId */\n      dup6\n        /* \"TimeAlly.sol\":25217:25251  stakings[_userAddress][_stakingId] */\n      dup2\n      sload\n      dup2\n      lt\n      tag_323\n      jumpi\n      invalid\n    tag_323:\n      swap1\n      0x00\n      mstore\n      keccak256(0x00, 0x20)\n      swap1\n      0x0b\n      mul\n      add\n        /* \"TimeAlly.sol\":25217:25265  stakings[_userAddress][_stakingId].stakingPlanId */\n      0x02\n      add\n      sload\n        /* \"TimeAlly.sol\":25204:25266  stakingPlans[stakings[_userAddress][_stakingId].stakingPlanId] */\n      dup2\n      sload\n      dup2\n      lt\n      tag_325\n      jumpi\n      invalid\n    tag_325:\n      swap1\n      0x00\n      mstore\n      keccak256(0x00, 0x20)\n      swap1\n      0x02\n      mul\n      add\n        /* \"TimeAlly.sol\":25204:25273  stakingPlans[stakings[_userAddress][_stakingId].stakingPlanId].months */\n      0x00\n      add\n      sload\n        /* \"TimeAlly.sol\":25204:25295  stakingPlans[stakings[_userAddress][_stakingId].stakingPlanId].months * earthSecondsInMonth */\n      mul\n        /* \"TimeAlly.sol\":25137:25145  stakings */\n      0x08\n        /* \"TimeAlly.sol\":25137:25159  stakings[_userAddress] */\n      0x00\n        /* \"TimeAlly.sol\":25146:25158  _userAddress */\n      dup7\n        /* \"TimeAlly.sol\":25137:25159  stakings[_userAddress] */\n      0xffffffffffffffffffffffffffffffffffffffff\n      and\n      0xffffffffffffffffffffffffffffffffffffffff\n      and\n      dup2\n      mstore\n      0x20\n      add\n      swap1\n      dup2\n      mstore\n      0x20\n      add\n      0x00\n      keccak256\n        /* \"TimeAlly.sol\":25160:25170  _stakingId */\n      dup5\n        /* \"TimeAlly.sol\":25137:25171  stakings[_userAddress][_stakingId] */\n      dup2\n      sload\n      dup2\n      lt\n      tag_327\n      jumpi\n      invalid\n    tag_327:\n      swap1\n      0x00\n      mstore\n      keccak256(0x00, 0x20)\n      swap1\n      0x0b\n      mul\n      add\n        /* \"TimeAlly.sol\":25137:25181  stakings[_userAddress][_stakingId].timestamp */\n      0x01\n      add\n      sload\n        /* \"TimeAlly.sol\":25137:25295  stakings[_userAddress][_stakingId].timestamp... */\n      add\n        /* \"TimeAlly.sol\":25137:25342  stakings[_userAddress][_stakingId].timestamp... */\n      add\n        /* \"TimeAlly.sol\":25122:25133  currentTime */\n      dup2\n        /* \"TimeAlly.sol\":25122:25344  currentTime > (stakings[_userAddress][_stakingId].timestamp... */\n      gt\n        /* \"TimeAlly.sol\":25113:25399  require( currentTime > (stakings[_userAddress][_stakingId].timestamp... */\n      tag_329\n      jumpi\n      mload(0x40)\n      0x08c379a000000000000000000000000000000000000000000000000000000000\n      dup2\n      mstore\n      0x04\n      add\n      dup1\n      dup1\n      0x20\n      add\n      dup3\n      dup2\n      sub\n      dup3\n      mstore\n      0x1e\n      dup2\n      mstore\n      0x20\n      add\n      dup1\n      0x63616e6e6f74206e6f6d696e6565207769746864726177206265666f72650000\n      dup2\n      mstore\n      pop\n      0x20\n      add\n      swap2\n      pop\n      pop\n      mload(0x40)\n      dup1\n      swap2\n      sub\n      swap1\n      revert\n    tag_329:\n        /* \"TimeAlly.sol\":25410:25432  uint256 _nomineeShares */\n      0x00\n        /* \"TimeAlly.sol\":25435:25443  stakings */\n      0x08\n        /* \"TimeAlly.sol\":25435:25457  stakings[_userAddress] */\n      0x00\n        /* \"TimeAlly.sol\":25444:25456  _userAddress */\n      dup6\n        /* \"TimeAlly.sol\":25435:25457  stakings[_userAddress] */\n      0xffffffffffffffffffffffffffffffffffffffff\n      and\n      0xffffffffffffffffffffffffffffffffffffffff\n      and\n      dup2\n      mstore\n      0x20\n      add\n      swap1\n      dup2\n      mstore\n      0x20\n      add\n      0x00\n      keccak256\n        /* \"TimeAlly.sol\":25458:25468  _stakingId */\n      dup4\n        /* \"TimeAlly.sol\":25435:25469  stakings[_userAddress][_stakingId] */\n      dup2\n      sload\n      dup2\n      lt\n      tag_330\n      jumpi\n      invalid\n    tag_330:\n      swap1\n      0x00\n      mstore\n      keccak256(0x00, 0x20)\n      swap1\n      0x0b\n      mul\n      add\n        /* \"TimeAlly.sol\":25435:25480  stakings[_userAddress][_stakingId].nomination */\n      0x0a\n      add\n        /* \"TimeAlly.sol\":25435:25492  stakings[_userAddress][_stakingId].nomination[msg.sender] */\n      0x00\n        /* \"TimeAlly.sol\":25481:25491  msg.sender */\n      caller\n        /* \"TimeAlly.sol\":25435:25492  stakings[_userAddress][_stakingId].nomination[msg.sender] */\n      0xffffffffffffffffffffffffffffffffffffffff\n      and\n      0xffffffffffffffffffffffffffffffffffffffff\n      and\n      dup2\n      mstore\n      0x20\n      add\n      swap1\n      dup2\n      mstore\n      0x20\n      add\n      0x00\n      keccak256\n      sload\n        /* \"TimeAlly.sol\":25410:25492  uint256 _nomineeShares = stakings[_userAddress][_stakingId].nomination[msg.sender] */\n      swap1\n      pop\n        /* \"TimeAlly.sol\":25527:25528  0 */\n      0x00\n        /* \"TimeAlly.sol\":25510:25524  _nomineeShares */\n      dup2\n        /* \"TimeAlly.sol\":25510:25528  _nomineeShares > 0 */\n      gt\n        /* \"TimeAlly.sol\":25502:25562  require(_nomineeShares > 0, 'Not a nominee of this staking') */\n      tag_332\n      jumpi\n      mload(0x40)\n      0x08c379a000000000000000000000000000000000000000000000000000000000\n      dup2\n      mstore\n      0x04\n      add\n      dup1\n      dup1\n      0x20\n      add\n      dup3\n      dup2\n      sub\n      dup3\n      mstore\n      0x1d\n      dup2\n      mstore\n      0x20\n      add\n      dup1\n      0x4e6f742061206e6f6d696e6565206f662074686973207374616b696e67000000\n      dup2\n      mstore\n      pop\n      0x20\n      add\n      swap2\n      pop\n      pop\n      mload(0x40)\n      dup1\n      swap2\n      sub\n      swap1\n      revert\n    tag_332:\n        /* \"TimeAlly.sol\":25712:25713  5 */\n      0x05\n        /* \"TimeAlly.sol\":25667:25675  stakings */\n      0x08\n        /* \"TimeAlly.sol\":25667:25689  stakings[_userAddress] */\n      0x00\n        /* \"TimeAlly.sol\":25676:25688  _userAddress */\n      dup7\n        /* \"TimeAlly.sol\":25667:25689  stakings[_userAddress] */\n      0xffffffffffffffffffffffffffffffffffffffff\n      and\n      0xffffffffffffffffffffffffffffffffffffffff\n      and\n      dup2\n      mstore\n      0x20\n      add\n      swap1\n      dup2\n      mstore\n      0x20\n      add\n      0x00\n      keccak256\n        /* \"TimeAlly.sol\":25690:25700  _stakingId */\n      dup5\n        /* \"TimeAlly.sol\":25667:25701  stakings[_userAddress][_stakingId] */\n      dup2\n      sload\n      dup2\n      lt\n      tag_333\n      jumpi\n      invalid\n    tag_333:\n      swap1\n      0x00\n      mstore\n      keccak256(0x00, 0x20)\n      swap1\n      0x0b\n      mul\n      add\n        /* \"TimeAlly.sol\":25667:25708  stakings[_userAddress][_stakingId].status */\n      0x03\n      add\n      sload\n        /* \"TimeAlly.sol\":25667:25713  stakings[_userAddress][_stakingId].status != 5 */\n      eq\n        /* \"TimeAlly.sol\":25664:25785  if(stakings[_userAddress][_stakingId].status != 5) {... */\n      tag_335\n      jumpi\n        /* \"TimeAlly.sol\":25773:25774  5 */\n      0x05\n        /* \"TimeAlly.sol\":25729:25737  stakings */\n      0x08\n        /* \"TimeAlly.sol\":25729:25751  stakings[_userAddress] */\n      0x00\n        /* \"TimeAlly.sol\":25738:25750  _userAddress */\n      dup7\n        /* \"TimeAlly.sol\":25729:25751  stakings[_userAddress] */\n      0xffffffffffffffffffffffffffffffffffffffff\n      and\n      0xffffffffffffffffffffffffffffffffffffffff\n      and\n      dup2\n      mstore\n      0x20\n      add\n      swap1\n      dup2\n      mstore\n      0x20\n      add\n      0x00\n      keccak256\n        /* \"TimeAlly.sol\":25752:25762  _stakingId */\n      dup5\n        /* \"TimeAlly.sol\":25729:25763  stakings[_userAddress][_stakingId] */\n      dup2\n      sload\n      dup2\n      lt\n      tag_336\n      jumpi\n      invalid\n    tag_336:\n      swap1\n      0x00\n      mstore\n      keccak256(0x00, 0x20)\n      swap1\n      0x0b\n      mul\n      add\n        /* \"TimeAlly.sol\":25729:25770  stakings[_userAddress][_stakingId].status */\n      0x03\n      add\n        /* \"TimeAlly.sol\":25729:25774  stakings[_userAddress][_stakingId].status = 5 */\n      dup2\n      swap1\n      sstore\n      pop\n        /* \"TimeAlly.sol\":25664:25785  if(stakings[_userAddress][_stakingId].status != 5) {... */\n    tag_335:\n        /* \"TimeAlly.sol\":25831:25868  uint256 _pendingLiquidAmountInStaking */\n      0x00\n        /* \"TimeAlly.sol\":25871:25879  stakings */\n      0x08\n        /* \"TimeAlly.sol\":25871:25893  stakings[_userAddress] */\n      0x00\n        /* \"TimeAlly.sol\":25880:25892  _userAddress */\n      dup7\n        /* \"TimeAlly.sol\":25871:25893  stakings[_userAddress] */\n      0xffffffffffffffffffffffffffffffffffffffff\n      and\n      0xffffffffffffffffffffffffffffffffffffffff\n      and\n      dup2\n      mstore\n      0x20\n      add\n      swap1\n      dup2\n      mstore\n      0x20\n      add\n      0x00\n      keccak256\n        /* \"TimeAlly.sol\":25894:25904  _stakingId */\n      dup5\n        /* \"TimeAlly.sol\":25871:25905  stakings[_userAddress][_stakingId] */\n      dup2\n      sload\n      dup2\n      lt\n      tag_338\n      jumpi\n      invalid\n    tag_338:\n      swap1\n      0x00\n      mstore\n      keccak256(0x00, 0x20)\n      swap1\n      0x0b\n      mul\n      add\n        /* \"TimeAlly.sol\":25871:25917  stakings[_userAddress][_stakingId].exaEsAmount */\n      0x00\n      add\n      sload\n        /* \"TimeAlly.sol\":25831:25917  uint256 _pendingLiquidAmountInStaking = stakings[_userAddress][_stakingId].exaEsAmount */\n      swap1\n      pop\n        /* \"TimeAlly.sol\":25927:25965  uint256 _pendingAccruedAmountInStaking */\n      0x00\n        /* \"TimeAlly.sol\":25976:26002  uint256 _stakingStartMonth */\n      dup1\n        /* \"TimeAlly.sol\":26005:26097  stakings[_userAddress][_stakingId].timestamp.sub(deployedTimestamp).div(earthSecondsInMonth) */\n      tag_340\n        /* \"TimeAlly.sol\":26077:26096  earthSecondsInMonth */\n      sload(0x04)\n        /* \"TimeAlly.sol\":26005:26072  stakings[_userAddress][_stakingId].timestamp.sub(deployedTimestamp) */\n      tag_341\n        /* \"TimeAlly.sol\":26054:26071  deployedTimestamp */\n      sload(0x03)\n        /* \"TimeAlly.sol\":26005:26013  stakings */\n      0x08\n        /* \"TimeAlly.sol\":26005:26027  stakings[_userAddress] */\n      0x00\n        /* \"TimeAlly.sol\":26014:26026  _userAddress */\n      dup13\n        /* \"TimeAlly.sol\":26005:26027  stakings[_userAddress] */\n      0xffffffffffffffffffffffffffffffffffffffff\n      and\n      0xffffffffffffffffffffffffffffffffffffffff\n      and\n      dup2\n      mstore\n      0x20\n      add\n      swap1\n      dup2\n      mstore\n      0x20\n      add\n      0x00\n      keccak256\n        /* \"TimeAlly.sol\":26028:26038  _stakingId */\n      dup11\n        /* \"TimeAlly.sol\":26005:26039  stakings[_userAddress][_stakingId] */\n      dup2\n      sload\n      dup2\n      lt\n      tag_342\n      jumpi\n      invalid\n    tag_342:\n      swap1\n      0x00\n      mstore\n      keccak256(0x00, 0x20)\n      swap1\n      0x0b\n      mul\n      add\n        /* \"TimeAlly.sol\":26005:26049  stakings[_userAddress][_stakingId].timestamp */\n      0x01\n      add\n      sload\n        /* \"TimeAlly.sol\":26005:26053  stakings[_userAddress][_stakingId].timestamp.sub */\n      tag_159\n      swap1\n        /* \"TimeAlly.sol\":26005:26072  stakings[_userAddress][_stakingId].timestamp.sub(deployedTimestamp) */\n      swap2\n      swap1\n      0xffffffff\n      and\n      jump\t// in\n    tag_341:\n        /* \"TimeAlly.sol\":26005:26076  stakings[_userAddress][_stakingId].timestamp.sub(deployedTimestamp).div */\n      tag_213\n      swap1\n        /* \"TimeAlly.sol\":26005:26097  stakings[_userAddress][_stakingId].timestamp.sub(deployedTimestamp).div(earthSecondsInMonth) */\n      swap2\n      swap1\n      0xffffffff\n      and\n      jump\t// in\n    tag_340:\n        /* \"TimeAlly.sol\":25976:26097  uint256 _stakingStartMonth = stakings[_userAddress][_stakingId].timestamp.sub(deployedTimestamp).div(earthSecondsInMonth) */\n      swap1\n      pop\n        /* \"TimeAlly.sol\":26107:26129  uint256 _stakeEndMonth */\n      0x00\n        /* \"TimeAlly.sol\":26153:26165  stakingPlans */\n      0x06\n        /* \"TimeAlly.sol\":26166:26174  stakings */\n      0x08\n        /* \"TimeAlly.sol\":26166:26188  stakings[_userAddress] */\n      0x00\n        /* \"TimeAlly.sol\":26175:26187  _userAddress */\n      dup11\n        /* \"TimeAlly.sol\":26166:26188  stakings[_userAddress] */\n      0xffffffffffffffffffffffffffffffffffffffff\n      and\n      0xffffffffffffffffffffffffffffffffffffffff\n      and\n      dup2\n      mstore\n      0x20\n      add\n      swap1\n      dup2\n      mstore\n      0x20\n      add\n      0x00\n      keccak256\n        /* \"TimeAlly.sol\":26189:26199  _stakingId */\n      dup9\n        /* \"TimeAlly.sol\":26166:26200  stakings[_userAddress][_stakingId] */\n      dup2\n      sload\n      dup2\n      lt\n      tag_344\n      jumpi\n      invalid\n    tag_344:\n      swap1\n      0x00\n      mstore\n      keccak256(0x00, 0x20)\n      swap1\n      0x0b\n      mul\n      add\n        /* \"TimeAlly.sol\":26166:26214  stakings[_userAddress][_stakingId].stakingPlanId */\n      0x02\n      add\n      sload\n        /* \"TimeAlly.sol\":26153:26215  stakingPlans[stakings[_userAddress][_stakingId].stakingPlanId] */\n      dup2\n      sload\n      dup2\n      lt\n      tag_346\n      jumpi\n      invalid\n    tag_346:\n      swap1\n      0x00\n      mstore\n      keccak256(0x00, 0x20)\n      swap1\n      0x02\n      mul\n      add\n        /* \"TimeAlly.sol\":26153:26222  stakingPlans[stakings[_userAddress][_stakingId].stakingPlanId].months */\n      0x00\n      add\n      sload\n        /* \"TimeAlly.sol\":26132:26150  _stakingStartMonth */\n      dup3\n        /* \"TimeAlly.sol\":26132:26222  _stakingStartMonth + stakingPlans[stakings[_userAddress][_stakingId].stakingPlanId].months */\n      add\n        /* \"TimeAlly.sol\":26107:26222  uint256 _stakeEndMonth = _stakingStartMonth + stakingPlans[stakings[_userAddress][_stakingId].stakingPlanId].months */\n      swap1\n      pop\n        /* \"TimeAlly.sol\":26305:26314  uint256 i */\n      0x00\n        /* \"TimeAlly.sol\":26317:26335  _stakingStartMonth */\n      dup3\n        /* \"TimeAlly.sol\":26305:26335  uint256 i = _stakingStartMonth */\n      swap1\n      pop\n        /* \"TimeAlly.sol\":26290:27126  for(... */\n    tag_348:\n        /* \"TimeAlly.sol\":26351:26365  _stakeEndMonth */\n      dup2\n        /* \"TimeAlly.sol\":26347:26348  i */\n      dup2\n        /* \"TimeAlly.sol\":26347:26365  i < _stakeEndMonth */\n      lt\n        /* \"TimeAlly.sol\":26290:27126  for(... */\n      iszero\n      tag_349\n      jumpi\n        /* \"TimeAlly.sol\":26409:26417  stakings */\n      0x08\n        /* \"TimeAlly.sol\":26409:26431  stakings[_userAddress] */\n      0x00\n        /* \"TimeAlly.sol\":26418:26430  _userAddress */\n      dup11\n        /* \"TimeAlly.sol\":26409:26431  stakings[_userAddress] */\n      0xffffffffffffffffffffffffffffffffffffffff\n      and\n      0xffffffffffffffffffffffffffffffffffffffff\n      and\n      dup2\n      mstore\n      0x20\n      add\n      swap1\n      dup2\n      mstore\n      0x20\n      add\n      0x00\n      keccak256\n        /* \"TimeAlly.sol\":26432:26442  _stakingId */\n      dup9\n        /* \"TimeAlly.sol\":26409:26443  stakings[_userAddress][_stakingId] */\n      dup2\n      sload\n      dup2\n      lt\n      tag_351\n      jumpi\n      invalid\n    tag_351:\n      swap1\n      0x00\n      mstore\n      keccak256(0x00, 0x20)\n      swap1\n      0x0b\n      mul\n      add\n        /* \"TimeAlly.sol\":26409:26458  stakings[_userAddress][_stakingId].isMonthClaimed */\n      0x06\n      add\n        /* \"TimeAlly.sol\":26409:26461  stakings[_userAddress][_stakingId].isMonthClaimed[i] */\n      0x00\n        /* \"TimeAlly.sol\":26459:26460  i */\n      dup3\n        /* \"TimeAlly.sol\":26409:26461  stakings[_userAddress][_stakingId].isMonthClaimed[i] */\n      dup2\n      mstore\n      0x20\n      add\n      swap1\n      dup2\n      mstore\n      0x20\n      add\n      0x00\n      keccak256\n      0x00\n      swap1\n      sload\n      swap1\n      0x0100\n      exp\n      swap1\n      div\n      0xff\n      and\n        /* \"TimeAlly.sol\":26405:27116  if( stakings[_userAddress][_stakingId].isMonthClaimed[i] ) {... */\n      iszero\n      tag_353\n      jumpi\n        /* \"TimeAlly.sol\":26482:26506  uint256 _effectiveAmount */\n      0x00\n        /* \"TimeAlly.sol\":26509:26684  stakings[_userAddress][_stakingId].exaEsAmount... */\n      tag_354\n        /* \"TimeAlly.sol\":26681:26683  15 */\n      0x0f\n        /* \"TimeAlly.sol\":26509:26657  stakings[_userAddress][_stakingId].exaEsAmount... */\n      tag_355\n        /* \"TimeAlly.sol\":26579:26591  stakingPlans */\n      0x06\n        /* \"TimeAlly.sol\":26592:26600  stakings */\n      0x08\n        /* \"TimeAlly.sol\":26592:26614  stakings[_userAddress] */\n      0x00\n        /* \"TimeAlly.sol\":26601:26613  _userAddress */\n      dup16\n        /* \"TimeAlly.sol\":26592:26614  stakings[_userAddress] */\n      0xffffffffffffffffffffffffffffffffffffffff\n      and\n      0xffffffffffffffffffffffffffffffffffffffff\n      and\n      dup2\n      mstore\n      0x20\n      add\n      swap1\n      dup2\n      mstore\n      0x20\n      add\n      0x00\n      keccak256\n        /* \"TimeAlly.sol\":26615:26625  _stakingId */\n      dup14\n        /* \"TimeAlly.sol\":26592:26626  stakings[_userAddress][_stakingId] */\n      dup2\n      sload\n      dup2\n      lt\n      tag_356\n      jumpi\n      invalid\n    tag_356:\n      swap1\n      0x00\n      mstore\n      keccak256(0x00, 0x20)\n      swap1\n      0x0b\n      mul\n      add\n        /* \"TimeAlly.sol\":26592:26640  stakings[_userAddress][_stakingId].stakingPlanId */\n      0x02\n      add\n      sload\n        /* \"TimeAlly.sol\":26579:26641  stakingPlans[stakings[_userAddress][_stakingId].stakingPlanId] */\n      dup2\n      sload\n      dup2\n      lt\n      tag_358\n      jumpi\n      invalid\n    tag_358:\n      swap1\n      0x00\n      mstore\n      keccak256(0x00, 0x20)\n      swap1\n      0x02\n      mul\n      add\n        /* \"TimeAlly.sol\":26579:26656  stakingPlans[stakings[_userAddress][_stakingId].stakingPlanId].fractionFrom15 */\n      0x01\n      add\n      sload\n        /* \"TimeAlly.sol\":26509:26517  stakings */\n      0x08\n        /* \"TimeAlly.sol\":26509:26531  stakings[_userAddress] */\n      0x00\n        /* \"TimeAlly.sol\":26518:26530  _userAddress */\n      dup16\n        /* \"TimeAlly.sol\":26509:26531  stakings[_userAddress] */\n      0xffffffffffffffffffffffffffffffffffffffff\n      and\n      0xffffffffffffffffffffffffffffffffffffffff\n      and\n      dup2\n      mstore\n      0x20\n      add\n      swap1\n      dup2\n      mstore\n      0x20\n      add\n      0x00\n      keccak256\n        /* \"TimeAlly.sol\":26532:26542  _stakingId */\n      dup14\n        /* \"TimeAlly.sol\":26509:26543  stakings[_userAddress][_stakingId] */\n      dup2\n      sload\n      dup2\n      lt\n      tag_360\n      jumpi\n      invalid\n    tag_360:\n      swap1\n      0x00\n      mstore\n      keccak256(0x00, 0x20)\n      swap1\n      0x0b\n      mul\n      add\n        /* \"TimeAlly.sol\":26509:26555  stakings[_userAddress][_stakingId].exaEsAmount */\n      0x00\n      add\n      sload\n        /* \"TimeAlly.sol\":26509:26578  stakings[_userAddress][_stakingId].exaEsAmount... */\n      tag_212\n      swap1\n        /* \"TimeAlly.sol\":26509:26657  stakings[_userAddress][_stakingId].exaEsAmount... */\n      swap2\n      swap1\n      0xffffffff\n      and\n      jump\t// in\n    tag_355:\n        /* \"TimeAlly.sol\":26509:26680  stakings[_userAddress][_stakingId].exaEsAmount... */\n      tag_213\n      swap1\n        /* \"TimeAlly.sol\":26509:26684  stakings[_userAddress][_stakingId].exaEsAmount... */\n      swap2\n      swap1\n      0xffffffff\n      and\n      jump\t// in\n    tag_354:\n        /* \"TimeAlly.sol\":26482:26684  uint256 _effectiveAmount = stakings[_userAddress][_stakingId].exaEsAmount... */\n      swap1\n      pop\n        /* \"TimeAlly.sol\":26702:26725  uint256 _monthlyBenefit */\n      0x00\n        /* \"TimeAlly.sol\":26728:26885  _effectiveAmount... */\n      tag_362\n        /* \"TimeAlly.sol\":26862:26881  totalActiveStakings */\n      0x0a\n        /* \"TimeAlly.sol\":26862:26884  totalActiveStakings[i] */\n      0x00\n        /* \"TimeAlly.sol\":26882:26883  i */\n      dup6\n        /* \"TimeAlly.sol\":26862:26884  totalActiveStakings[i] */\n      dup2\n      mstore\n      0x20\n      add\n      swap1\n      dup2\n      mstore\n      0x20\n      add\n      0x00\n      keccak256\n      sload\n        /* \"TimeAlly.sol\":26728:26814  _effectiveAmount... */\n      tag_363\n        /* \"TimeAlly.sol\":26792:26810  timeAllyMonthlyNRT */\n      0x05\n        /* \"TimeAlly.sol\":26811:26812  i */\n      dup7\n        /* \"TimeAlly.sol\":26792:26813  timeAllyMonthlyNRT[i] */\n      dup2\n      sload\n      dup2\n      lt\n      tag_364\n      jumpi\n      invalid\n    tag_364:\n      swap1\n      0x00\n      mstore\n      keccak256(0x00, 0x20)\n      add\n      sload\n        /* \"TimeAlly.sol\":26728:26744  _effectiveAmount */\n      dup6\n        /* \"TimeAlly.sol\":26728:26791  _effectiveAmount... */\n      tag_212\n      swap1\n        /* \"TimeAlly.sol\":26728:26814  _effectiveAmount... */\n      swap2\n      swap1\n      0xffffffff\n      and\n      jump\t// in\n    tag_363:\n        /* \"TimeAlly.sol\":26728:26861  _effectiveAmount... */\n      tag_213\n      swap1\n        /* \"TimeAlly.sol\":26728:26885  _effectiveAmount... */\n      swap2\n      swap1\n      0xffffffff\n      and\n      jump\t// in\n    tag_362:\n        /* \"TimeAlly.sol\":26702:26885  uint256 _monthlyBenefit = _effectiveAmount... */\n      swap1\n      pop\n        /* \"TimeAlly.sol\":26935:26992  _pendingLiquidAmountInStaking.add(_monthlyBenefit.div(2)) */\n      tag_366\n        /* \"TimeAlly.sol\":26969:26991  _monthlyBenefit.div(2) */\n      tag_367\n        /* \"TimeAlly.sol\":26989:26990  2 */\n      0x02\n        /* \"TimeAlly.sol\":26969:26984  _monthlyBenefit */\n      dup4\n        /* \"TimeAlly.sol\":26969:26988  _monthlyBenefit.div */\n      tag_213\n      swap1\n        /* \"TimeAlly.sol\":26969:26991  _monthlyBenefit.div(2) */\n      swap2\n      swap1\n      0xffffffff\n      and\n      jump\t// in\n    tag_367:\n        /* \"TimeAlly.sol\":26935:26964  _pendingLiquidAmountInStaking */\n      dup9\n        /* \"TimeAlly.sol\":26935:26968  _pendingLiquidAmountInStaking.add */\n      tag_163\n      swap1\n        /* \"TimeAlly.sol\":26935:26992  _pendingLiquidAmountInStaking.add(_monthlyBenefit.div(2)) */\n      swap2\n      swap1\n      0xffffffff\n      and\n      jump\t// in\n    tag_366:\n        /* \"TimeAlly.sol\":26903:26992  _pendingLiquidAmountInStaking = _pendingLiquidAmountInStaking.add(_monthlyBenefit.div(2)) */\n      swap7\n      pop\n        /* \"TimeAlly.sol\":27043:27101  _pendingAccruedAmountInStaking.add(_monthlyBenefit.div(2)) */\n      tag_368\n        /* \"TimeAlly.sol\":27078:27100  _monthlyBenefit.div(2) */\n      tag_369\n        /* \"TimeAlly.sol\":27098:27099  2 */\n      0x02\n        /* \"TimeAlly.sol\":27078:27093  _monthlyBenefit */\n      dup4\n        /* \"TimeAlly.sol\":27078:27097  _monthlyBenefit.div */\n      tag_213\n      swap1\n        /* \"TimeAlly.sol\":27078:27100  _monthlyBenefit.div(2) */\n      swap2\n      swap1\n      0xffffffff\n      and\n      jump\t// in\n    tag_369:\n        /* \"TimeAlly.sol\":27043:27073  _pendingAccruedAmountInStaking */\n      dup8\n        /* \"TimeAlly.sol\":27043:27077  _pendingAccruedAmountInStaking.add */\n      tag_163\n      swap1\n        /* \"TimeAlly.sol\":27043:27101  _pendingAccruedAmountInStaking.add(_monthlyBenefit.div(2)) */\n      swap2\n      swap1\n      0xffffffff\n      and\n      jump\t// in\n    tag_368:\n        /* \"TimeAlly.sol\":27010:27101  _pendingAccruedAmountInStaking = _pendingAccruedAmountInStaking.add(_monthlyBenefit.div(2)) */\n      swap6\n      pop\n        /* \"TimeAlly.sol\":26405:27116  if( stakings[_userAddress][_stakingId].isMonthClaimed[i] ) {... */\n      pop\n      pop\n    tag_353:\n        /* \"TimeAlly.sol\":26377:26380  i++ */\n      dup1\n      dup1\n      0x01\n      add\n      swap2\n      pop\n      pop\n        /* \"TimeAlly.sol\":26290:27126  for(... */\n      jump(tag_348)\n    tag_349:\n      pop\n        /* \"TimeAlly.sol\":27406:27407  0 */\n      0x00\n        /* \"TimeAlly.sol\":27346:27354  stakings */\n      0x08\n        /* \"TimeAlly.sol\":27346:27368  stakings[_userAddress] */\n      0x00\n        /* \"TimeAlly.sol\":27355:27367  _userAddress */\n      dup11\n        /* \"TimeAlly.sol\":27346:27368  stakings[_userAddress] */\n      0xffffffffffffffffffffffffffffffffffffffff\n      and\n      0xffffffffffffffffffffffffffffffffffffffff\n      and\n      dup2\n      mstore\n      0x20\n      add\n      swap1\n      dup2\n      mstore\n      0x20\n      add\n      0x00\n      keccak256\n        /* \"TimeAlly.sol\":27369:27379  _stakingId */\n      dup9\n        /* \"TimeAlly.sol\":27346:27380  stakings[_userAddress][_stakingId] */\n      dup2\n      sload\n      dup2\n      lt\n      tag_370\n      jumpi\n      invalid\n    tag_370:\n      swap1\n      0x00\n      mstore\n      keccak256(0x00, 0x20)\n      swap1\n      0x0b\n      mul\n      add\n        /* \"TimeAlly.sol\":27346:27391  stakings[_userAddress][_stakingId].nomination */\n      0x0a\n      add\n        /* \"TimeAlly.sol\":27346:27403  stakings[_userAddress][_stakingId].nomination[msg.sender] */\n      0x00\n        /* \"TimeAlly.sol\":27392:27402  msg.sender */\n      caller\n        /* \"TimeAlly.sol\":27346:27403  stakings[_userAddress][_stakingId].nomination[msg.sender] */\n      0xffffffffffffffffffffffffffffffffffffffff\n      and\n      0xffffffffffffffffffffffffffffffffffffffff\n      and\n      dup2\n      mstore\n      0x20\n      add\n      swap1\n      dup2\n      mstore\n      0x20\n      add\n      0x00\n      keccak256\n        /* \"TimeAlly.sol\":27346:27407  stakings[_userAddress][_stakingId].nomination[msg.sender] = 0 */\n      dup2\n      swap1\n      sstore\n      pop\n        /* \"TimeAlly.sol\":27418:27445  uint256 _nomineeLiquidShare */\n      0x00\n        /* \"TimeAlly.sol\":27448:27641  _pendingLiquidAmountInStaking... */\n      tag_372\n        /* \"TimeAlly.sol\":27584:27592  stakings */\n      0x08\n        /* \"TimeAlly.sol\":27584:27606  stakings[_userAddress] */\n      0x00\n        /* \"TimeAlly.sol\":27593:27605  _userAddress */\n      dup12\n        /* \"TimeAlly.sol\":27584:27606  stakings[_userAddress] */\n      0xffffffffffffffffffffffffffffffffffffffff\n      and\n      0xffffffffffffffffffffffffffffffffffffffff\n      and\n      dup2\n      mstore\n      0x20\n      add\n      swap1\n      dup2\n      mstore\n      0x20\n      add\n      0x00\n      keccak256\n        /* \"TimeAlly.sol\":27607:27617  _stakingId */\n      dup10\n        /* \"TimeAlly.sol\":27584:27618  stakings[_userAddress][_stakingId] */\n      dup2\n      sload\n      dup2\n      lt\n      tag_373\n      jumpi\n      invalid\n    tag_373:\n      swap1\n      0x00\n      mstore\n      keccak256(0x00, 0x20)\n      swap1\n      0x0b\n      mul\n      add\n        /* \"TimeAlly.sol\":27584:27640  stakings[_userAddress][_stakingId].totalNominationShares */\n      0x09\n      add\n      sload\n        /* \"TimeAlly.sol\":27448:27538  _pendingLiquidAmountInStaking... */\n      tag_375\n        /* \"TimeAlly.sol\":27523:27537  _nomineeShares */\n      dup9\n        /* \"TimeAlly.sol\":27448:27477  _pendingLiquidAmountInStaking */\n      dup9\n        /* \"TimeAlly.sol\":27448:27522  _pendingLiquidAmountInStaking... */\n      tag_212\n      swap1\n        /* \"TimeAlly.sol\":27448:27538  _pendingLiquidAmountInStaking... */\n      swap2\n      swap1\n      0xffffffff\n      and\n      jump\t// in\n    tag_375:\n        /* \"TimeAlly.sol\":27448:27583  _pendingLiquidAmountInStaking... */\n      tag_213\n      swap1\n        /* \"TimeAlly.sol\":27448:27641  _pendingLiquidAmountInStaking... */\n      swap2\n      swap1\n      0xffffffff\n      and\n      jump\t// in\n    tag_372:\n        /* \"TimeAlly.sol\":27418:27641  uint256 _nomineeLiquidShare = _pendingLiquidAmountInStaking... */\n      swap1\n      pop\n        /* \"TimeAlly.sol\":27651:27656  token */\n      0x01\n      0x00\n      swap1\n      sload\n      swap1\n      0x0100\n      exp\n      swap1\n      div\n      0xffffffffffffffffffffffffffffffffffffffff\n      and\n        /* \"TimeAlly.sol\":27651:27665  token.transfer */\n      0xffffffffffffffffffffffffffffffffffffffff\n      and\n      0xa9059cbb\n        /* \"TimeAlly.sol\":27666:27676  msg.sender */\n      caller\n        /* \"TimeAlly.sol\":27678:27697  _nomineeLiquidShare */\n      dup4\n        /* \"TimeAlly.sol\":27651:27698  token.transfer(msg.sender, _nomineeLiquidShare) */\n      mload(0x40)\n      dup4\n      0xffffffff\n      and\n      0xe0\n      shl\n      dup2\n      mstore\n      0x04\n      add\n      dup1\n      dup4\n      0xffffffffffffffffffffffffffffffffffffffff\n      and\n      0xffffffffffffffffffffffffffffffffffffffff\n      and\n      dup2\n      mstore\n      0x20\n      add\n      dup3\n      dup2\n      mstore\n      0x20\n      add\n      swap3\n      pop\n      pop\n      pop\n      0x20\n      mload(0x40)\n      dup1\n      dup4\n      sub\n      dup2\n      0x00\n      dup8\n      dup1\n      extcodesize\n      iszero\n        /* \"--CODEGEN--\":8:17   */\n      dup1\n        /* \"--CODEGEN--\":5:7   */\n      iszero\n      tag_376\n      jumpi\n        /* \"--CODEGEN--\":30:31   */\n      0x00\n        /* \"--CODEGEN--\":27:28   */\n      dup1\n        /* \"--CODEGEN--\":20:32   */\n      revert\n        /* \"--CODEGEN--\":5:7   */\n    tag_376:\n        /* \"TimeAlly.sol\":27651:27698  token.transfer(msg.sender, _nomineeLiquidShare) */\n      pop\n      gas\n      call\n      iszero\n        /* \"--CODEGEN--\":8:17   */\n      dup1\n        /* \"--CODEGEN--\":5:7   */\n      iszero\n      tag_377\n      jumpi\n        /* \"--CODEGEN--\":45:61   */\n      returndatasize\n        /* \"--CODEGEN--\":42:43   */\n      0x00\n        /* \"--CODEGEN--\":39:40   */\n      dup1\n        /* \"--CODEGEN--\":24:62   */\n      returndatacopy\n        /* \"--CODEGEN--\":77:93   */\n      returndatasize\n        /* \"--CODEGEN--\":74:75   */\n      0x00\n        /* \"--CODEGEN--\":67:94   */\n      revert\n        /* \"--CODEGEN--\":5:7   */\n    tag_377:\n        /* \"TimeAlly.sol\":27651:27698  token.transfer(msg.sender, _nomineeLiquidShare) */\n      pop\n      pop\n      pop\n      pop\n      mload(0x40)\n      returndatasize\n        /* \"--CODEGEN--\":13:15   */\n      0x20\n        /* \"--CODEGEN--\":8:11   */\n      dup2\n        /* \"--CODEGEN--\":5:16   */\n      lt\n        /* \"--CODEGEN--\":2:4   */\n      iszero\n      tag_378\n      jumpi\n        /* \"--CODEGEN--\":29:30   */\n      0x00\n        /* \"--CODEGEN--\":26:27   */\n      dup1\n        /* \"--CODEGEN--\":19:31   */\n      revert\n        /* \"--CODEGEN--\":2:4   */\n    tag_378:\n        /* \"TimeAlly.sol\":27651:27698  token.transfer(msg.sender, _nomineeLiquidShare) */\n      dup2\n      add\n      swap1\n      dup1\n      dup1\n      mload\n      swap1\n      0x20\n      add\n      swap1\n      swap3\n      swap2\n      swap1\n      pop\n      pop\n      pop\n      pop\n        /* \"TimeAlly.sol\":27709:27737  uint256 _nomineeAccruedShare */\n      0x00\n        /* \"TimeAlly.sol\":27740:27938  _pendingAccruedAmountInStaking... */\n      tag_379\n        /* \"TimeAlly.sol\":27881:27889  stakings */\n      0x08\n        /* \"TimeAlly.sol\":27881:27903  stakings[_userAddress] */\n      0x00\n        /* \"TimeAlly.sol\":27890:27902  _userAddress */\n      dup13\n        /* \"TimeAlly.sol\":27881:27903  stakings[_userAddress] */\n      0xffffffffffffffffffffffffffffffffffffffff\n      and\n      0xffffffffffffffffffffffffffffffffffffffff\n      and\n      dup2\n      mstore\n      0x20\n      add\n      swap1\n      dup2\n      mstore\n      0x20\n      add\n      0x00\n      keccak256\n        /* \"TimeAlly.sol\":27904:27914  _stakingId */\n      dup11\n        /* \"TimeAlly.sol\":27881:27915  stakings[_userAddress][_stakingId] */\n      dup2\n      sload\n      dup2\n      lt\n      tag_380\n      jumpi\n      invalid\n    tag_380:\n      swap1\n      0x00\n      mstore\n      keccak256(0x00, 0x20)\n      swap1\n      0x0b\n      mul\n      add\n        /* \"TimeAlly.sol\":27881:27937  stakings[_userAddress][_stakingId].totalNominationShares */\n      0x09\n      add\n      sload\n        /* \"TimeAlly.sol\":27740:27833  _pendingAccruedAmountInStaking... */\n      tag_382\n        /* \"TimeAlly.sol\":27818:27832  _nomineeShares */\n      dup10\n        /* \"TimeAlly.sol\":27740:27770  _pendingAccruedAmountInStaking */\n      dup9\n        /* \"TimeAlly.sol\":27740:27817  _pendingAccruedAmountInStaking... */\n      tag_212\n      swap1\n        /* \"TimeAlly.sol\":27740:27833  _pendingAccruedAmountInStaking... */\n      swap2\n      swap1\n      0xffffffff\n      and\n      jump\t// in\n    tag_382:\n        /* \"TimeAlly.sol\":27740:27880  _pendingAccruedAmountInStaking... */\n      tag_213\n      swap1\n        /* \"TimeAlly.sol\":27740:27938  _pendingAccruedAmountInStaking... */\n      swap2\n      swap1\n      0xffffffff\n      and\n      jump\t// in\n    tag_379:\n        /* \"TimeAlly.sol\":27709:27938  uint256 _nomineeAccruedShare = _pendingAccruedAmountInStaking... */\n      swap1\n      pop\n        /* \"TimeAlly.sol\":27975:28025  launchReward[msg.sender].add(_nomineeAccruedShare) */\n      tag_383\n        /* \"TimeAlly.sol\":28004:28024  _nomineeAccruedShare */\n      dup2\n        /* \"TimeAlly.sol\":27975:27987  launchReward */\n      0x0b\n        /* \"TimeAlly.sol\":27975:27999  launchReward[msg.sender] */\n      0x00\n        /* \"TimeAlly.sol\":27988:27998  msg.sender */\n      caller\n        /* \"TimeAlly.sol\":27975:27999  launchReward[msg.sender] */\n      0xffffffffffffffffffffffffffffffffffffffff\n      and\n      0xffffffffffffffffffffffffffffffffffffffff\n      and\n      dup2\n      mstore\n      0x20\n      add\n      swap1\n      dup2\n      mstore\n      0x20\n      add\n      0x00\n      keccak256\n      sload\n        /* \"TimeAlly.sol\":27975:28003  launchReward[msg.sender].add */\n      tag_163\n      swap1\n        /* \"TimeAlly.sol\":27975:28025  launchReward[msg.sender].add(_nomineeAccruedShare) */\n      swap2\n      swap1\n      0xffffffff\n      and\n      jump\t// in\n    tag_383:\n        /* \"TimeAlly.sol\":27948:27960  launchReward */\n      0x0b\n        /* \"TimeAlly.sol\":27948:27972  launchReward[msg.sender] */\n      0x00\n        /* \"TimeAlly.sol\":27961:27971  msg.sender */\n      caller\n        /* \"TimeAlly.sol\":27948:27972  launchReward[msg.sender] */\n      0xffffffffffffffffffffffffffffffffffffffff\n      and\n      0xffffffffffffffffffffffffffffffffffffffff\n      and\n      dup2\n      mstore\n      0x20\n      add\n      swap1\n      dup2\n      mstore\n      0x20\n      add\n      0x00\n      keccak256\n        /* \"TimeAlly.sol\":27948:28025  launchReward[msg.sender] = launchReward[msg.sender].add(_nomineeAccruedShare) */\n      dup2\n      swap1\n      sstore\n      pop\n        /* \"TimeAlly.sol\":28107:28117  msg.sender */\n      caller\n        /* \"TimeAlly.sol\":28065:28161  NomineeWithdraw(_userAddress, _stakingId, msg.sender, _nomineeLiquidShare, _nomineeAccruedShare) */\n      0xffffffffffffffffffffffffffffffffffffffff\n      and\n        /* \"TimeAlly.sol\":28095:28105  _stakingId */\n      dup10\n        /* \"TimeAlly.sol\":28081:28093  _userAddress */\n      dup12\n        /* \"TimeAlly.sol\":28065:28161  NomineeWithdraw(_userAddress, _stakingId, msg.sender, _nomineeLiquidShare, _nomineeAccruedShare) */\n      0xffffffffffffffffffffffffffffffffffffffff\n      and\n      0xa54cec59552c7f022eed79ede59f759697aa5787f43b11d61f17bfc5adaffb65\n        /* \"TimeAlly.sol\":28119:28138  _nomineeLiquidShare */\n      dup6\n        /* \"TimeAlly.sol\":28140:28160  _nomineeAccruedShare */\n      dup6\n        /* \"TimeAlly.sol\":28065:28161  NomineeWithdraw(_userAddress, _stakingId, msg.sender, _nomineeLiquidShare, _nomineeAccruedShare) */\n      mload(0x40)\n      dup1\n      dup4\n      dup2\n      mstore\n      0x20\n      add\n      dup3\n      dup2\n      mstore\n      0x20\n      add\n      swap3\n      pop\n      pop\n      pop\n      mload(0x40)\n      dup1\n      swap2\n      sub\n      swap1\n      log4\n        /* \"TimeAlly.sol\":24956:28168  function nomineeWithdraw(address _userAddress, uint256 _stakingId) public {... */\n      pop\n      pop\n      pop\n      pop\n      pop\n      pop\n      pop\n      pop\n      pop\n      pop\n      jump\t// out\n        /* \"TimeAlly.sol\":7903:8612  function isStakingActive(address _userAddress, uint256 _stakingId, uint256 _currentMonth, uint256 _atMonth) public view returns (bool) {... */\n    tag_101:\n        /* \"TimeAlly.sol\":8032:8036  bool */\n      0x00\n        /* \"TimeAlly.sol\":8046:8066  uint256 stakingMonth */\n      dup1\n        /* \"TimeAlly.sol\":8069:8161  stakings[_userAddress][_stakingId].timestamp.sub(deployedTimestamp).div(earthSecondsInMonth) */\n      tag_385\n        /* \"TimeAlly.sol\":8141:8160  earthSecondsInMonth */\n      sload(0x04)\n        /* \"TimeAlly.sol\":8069:8136  stakings[_userAddress][_stakingId].timestamp.sub(deployedTimestamp) */\n      tag_386\n        /* \"TimeAlly.sol\":8118:8135  deployedTimestamp */\n      sload(0x03)\n        /* \"TimeAlly.sol\":8069:8077  stakings */\n      0x08\n        /* \"TimeAlly.sol\":8069:8091  stakings[_userAddress] */\n      0x00\n        /* \"TimeAlly.sol\":8078:8090  _userAddress */\n      dup12\n        /* \"TimeAlly.sol\":8069:8091  stakings[_userAddress] */\n      0xffffffffffffffffffffffffffffffffffffffff\n      and\n      0xffffffffffffffffffffffffffffffffffffffff\n      and\n      dup2\n      mstore\n      0x20\n      add\n      swap1\n      dup2\n      mstore\n      0x20\n      add\n      0x00\n      keccak256\n        /* \"TimeAlly.sol\":8092:8102  _stakingId */\n      dup10\n        /* \"TimeAlly.sol\":8069:8103  stakings[_userAddress][_stakingId] */\n      dup2\n      sload\n      dup2\n      lt\n      tag_387\n      jumpi\n      invalid\n    tag_387:\n      swap1\n      0x00\n      mstore\n      keccak256(0x00, 0x20)\n      swap1\n      0x0b\n      mul\n      add\n        /* \"TimeAlly.sol\":8069:8113  stakings[_userAddress][_stakingId].timestamp */\n      0x01\n      add\n      sload\n        /* \"TimeAlly.sol\":8069:8117  stakings[_userAddress][_stakingId].timestamp.sub */\n      tag_159\n      swap1\n        /* \"TimeAlly.sol\":8069:8136  stakings[_userAddress][_stakingId].timestamp.sub(deployedTimestamp) */\n      swap2\n      swap1\n      0xffffffff\n      and\n      jump\t// in\n    tag_386:\n        /* \"TimeAlly.sol\":8069:8140  stakings[_userAddress][_stakingId].timestamp.sub(deployedTimestamp).div */\n      tag_213\n      swap1\n        /* \"TimeAlly.sol\":8069:8161  stakings[_userAddress][_stakingId].timestamp.sub(deployedTimestamp).div(earthSecondsInMonth) */\n      swap2\n      swap1\n      0xffffffff\n      and\n      jump\t// in\n    tag_385:\n        /* \"TimeAlly.sol\":8046:8161  uint256 stakingMonth = stakings[_userAddress][_stakingId].timestamp.sub(deployedTimestamp).div(earthSecondsInMonth) */\n      swap1\n      pop\n        /* \"TimeAlly.sol\":8207:8215  _atMonth */\n      dup3\n        /* \"TimeAlly.sol\":8202:8203  1 */\n      0x01\n        /* \"TimeAlly.sol\":8187:8199  stakingMonth */\n      dup3\n        /* \"TimeAlly.sol\":8187:8203  stakingMonth + 1 */\n      add\n        /* \"TimeAlly.sol\":8187:8215  stakingMonth + 1 <= _atMonth */\n      gt\n      iszero\n        /* \"TimeAlly.sol\":8187:8317  stakingMonth + 1 <= _atMonth && stakingMonth + stakingPlans[ stakings[_userAddress][_stakingId].stakingPlanId ].months >= _atMonth */\n      dup1\n      iszero\n      tag_389\n      jumpi\n      pop\n        /* \"TimeAlly.sol\":8309:8317  _atMonth */\n      dup3\n        /* \"TimeAlly.sol\":8234:8246  stakingPlans */\n      0x06\n        /* \"TimeAlly.sol\":8248:8256  stakings */\n      0x08\n        /* \"TimeAlly.sol\":8248:8270  stakings[_userAddress] */\n      0x00\n        /* \"TimeAlly.sol\":8257:8269  _userAddress */\n      dup10\n        /* \"TimeAlly.sol\":8248:8270  stakings[_userAddress] */\n      0xffffffffffffffffffffffffffffffffffffffff\n      and\n      0xffffffffffffffffffffffffffffffffffffffff\n      and\n      dup2\n      mstore\n      0x20\n      add\n      swap1\n      dup2\n      mstore\n      0x20\n      add\n      0x00\n      keccak256\n        /* \"TimeAlly.sol\":8271:8281  _stakingId */\n      dup8\n        /* \"TimeAlly.sol\":8248:8282  stakings[_userAddress][_stakingId] */\n      dup2\n      sload\n      dup2\n      lt\n      tag_390\n      jumpi\n      invalid\n    tag_390:\n      swap1\n      0x00\n      mstore\n      keccak256(0x00, 0x20)\n      swap1\n      0x0b\n      mul\n      add\n        /* \"TimeAlly.sol\":8248:8296  stakings[_userAddress][_stakingId].stakingPlanId */\n      0x02\n      add\n      sload\n        /* \"TimeAlly.sol\":8234:8298  stakingPlans[ stakings[_userAddress][_stakingId].stakingPlanId ] */\n      dup2\n      sload\n      dup2\n      lt\n      tag_392\n      jumpi\n      invalid\n    tag_392:\n      swap1\n      0x00\n      mstore\n      keccak256(0x00, 0x20)\n      swap1\n      0x02\n      mul\n      add\n        /* \"TimeAlly.sol\":8234:8305  stakingPlans[ stakings[_userAddress][_stakingId].stakingPlanId ].months */\n      0x00\n      add\n      sload\n        /* \"TimeAlly.sol\":8219:8231  stakingMonth */\n      dup3\n        /* \"TimeAlly.sol\":8219:8305  stakingMonth + stakingPlans[ stakings[_userAddress][_stakingId].stakingPlanId ].months */\n      add\n        /* \"TimeAlly.sol\":8219:8317  stakingMonth + stakingPlans[ stakings[_userAddress][_stakingId].stakingPlanId ].months >= _atMonth */\n      lt\n      iszero\n        /* \"TimeAlly.sol\":8187:8317  stakingMonth + 1 <= _atMonth && stakingMonth + stakingPlans[ stakings[_userAddress][_stakingId].stakingPlanId ].months >= _atMonth */\n    tag_389:\n        /* \"TimeAlly.sol\":8187:8375  stakingMonth + 1 <= _atMonth && stakingMonth + stakingPlans[ stakings[_userAddress][_stakingId].stakingPlanId ].months >= _atMonth... */\n      dup1\n      iszero\n      tag_394\n      jumpi\n      pop\n        /* \"TimeAlly.sol\":8374:8375  1 */\n      0x01\n        /* \"TimeAlly.sol\":8329:8337  stakings */\n      0x08\n        /* \"TimeAlly.sol\":8329:8351  stakings[_userAddress] */\n      0x00\n        /* \"TimeAlly.sol\":8338:8350  _userAddress */\n      dup9\n        /* \"TimeAlly.sol\":8329:8351  stakings[_userAddress] */\n      0xffffffffffffffffffffffffffffffffffffffff\n      and\n      0xffffffffffffffffffffffffffffffffffffffff\n      and\n      dup2\n      mstore\n      0x20\n      add\n      swap1\n      dup2\n      mstore\n      0x20\n      add\n      0x00\n      keccak256\n        /* \"TimeAlly.sol\":8352:8362  _stakingId */\n      dup7\n        /* \"TimeAlly.sol\":8329:8363  stakings[_userAddress][_stakingId] */\n      dup2\n      sload\n      dup2\n      lt\n      tag_395\n      jumpi\n      invalid\n    tag_395:\n      swap1\n      0x00\n      mstore\n      keccak256(0x00, 0x20)\n      swap1\n      0x0b\n      mul\n      add\n        /* \"TimeAlly.sol\":8329:8370  stakings[_userAddress][_stakingId].status */\n      0x03\n      add\n      sload\n        /* \"TimeAlly.sol\":8329:8375  stakings[_userAddress][_stakingId].status == 1 */\n      eq\n        /* \"TimeAlly.sol\":8187:8375  stakingMonth + 1 <= _atMonth && stakingMonth + stakingPlans[ stakings[_userAddress][_stakingId].stakingPlanId ].months >= _atMonth... */\n    tag_394:\n        /* \"TimeAlly.sol\":8187:8595  stakingMonth + 1 <= _atMonth && stakingMonth + stakingPlans[ stakings[_userAddress][_stakingId].stakingPlanId ].months >= _atMonth... */\n      dup1\n      iszero\n      tag_397\n      jumpi\n      pop\n        /* \"TimeAlly.sol\":8416:8424  _atMonth */\n      dup3\n        /* \"TimeAlly.sol\":8399:8412  _currentMonth */\n      dup5\n        /* \"TimeAlly.sol\":8399:8424  _currentMonth != _atMonth */\n      eq\n      iszero\n        /* \"TimeAlly.sol\":8399:8583  _currentMonth != _atMonth... */\n      dup1\n      tag_398\n      jumpi\n      pop\n        /* \"TimeAlly.sol\":8453:8583  stakings[_userAddress][_stakingId].timestamp... */\n      tag_399\n        /* \"TimeAlly.sol\":8526:8581  (_currentMonth - stakingMonth).mul(earthSecondsInMonth) */\n      tag_400\n        /* \"TimeAlly.sol\":8561:8580  earthSecondsInMonth */\n      sload(0x04)\n        /* \"TimeAlly.sol\":8543:8555  stakingMonth */\n      dup4\n        /* \"TimeAlly.sol\":8527:8540  _currentMonth */\n      dup8\n        /* \"TimeAlly.sol\":8527:8555  _currentMonth - stakingMonth */\n      sub\n        /* \"TimeAlly.sol\":8526:8560  (_currentMonth - stakingMonth).mul */\n      tag_212\n      swap1\n        /* \"TimeAlly.sol\":8526:8581  (_currentMonth - stakingMonth).mul(earthSecondsInMonth) */\n      swap2\n      swap1\n      0xffffffff\n      and\n      jump\t// in\n    tag_400:\n        /* \"TimeAlly.sol\":8453:8461  stakings */\n      0x08\n        /* \"TimeAlly.sol\":8453:8475  stakings[_userAddress] */\n      0x00\n        /* \"TimeAlly.sol\":8462:8474  _userAddress */\n      dup10\n        /* \"TimeAlly.sol\":8453:8475  stakings[_userAddress] */\n      0xffffffffffffffffffffffffffffffffffffffff\n      and\n      0xffffffffffffffffffffffffffffffffffffffff\n      and\n      dup2\n      mstore\n      0x20\n      add\n      swap1\n      dup2\n      mstore\n      0x20\n      add\n      0x00\n      keccak256\n        /* \"TimeAlly.sol\":8476:8486  _stakingId */\n      dup8\n        /* \"TimeAlly.sol\":8453:8487  stakings[_userAddress][_stakingId] */\n      dup2\n      sload\n      dup2\n      lt\n      tag_401\n      jumpi\n      invalid\n    tag_401:\n      swap1\n      0x00\n      mstore\n      keccak256(0x00, 0x20)\n      swap1\n      0x0b\n      mul\n      add\n        /* \"TimeAlly.sol\":8453:8497  stakings[_userAddress][_stakingId].timestamp */\n      0x01\n      add\n      sload\n        /* \"TimeAlly.sol\":8453:8524  stakings[_userAddress][_stakingId].timestamp... */\n      tag_163\n      swap1\n        /* \"TimeAlly.sol\":8453:8583  stakings[_userAddress][_stakingId].timestamp... */\n      swap2\n      swap1\n      0xffffffff\n      and\n      jump\t// in\n    tag_399:\n        /* \"TimeAlly.sol\":8438:8443  token */\n      0x01\n      0x00\n      swap1\n      sload\n      swap1\n      0x0100\n      exp\n      swap1\n      div\n      0xffffffffffffffffffffffffffffffffffffffff\n      and\n        /* \"TimeAlly.sol\":8438:8447  token.mou */\n      0xffffffffffffffffffffffffffffffffffffffff\n      and\n      0xb81f90f3\n        /* \"TimeAlly.sol\":8438:8449  token.mou() */\n      mload(0x40)\n      dup2\n      0xffffffff\n      and\n      0xe0\n      shl\n      dup2\n      mstore\n      0x04\n      add\n      0x20\n      mload(0x40)\n      dup1\n      dup4\n      sub\n      dup2\n      dup7\n      dup1\n      extcodesize\n      iszero\n        /* \"--CODEGEN--\":8:17   */\n      dup1\n        /* \"--CODEGEN--\":5:7   */\n      iszero\n      tag_403\n      jumpi\n        /* \"--CODEGEN--\":30:31   */\n      0x00\n        /* \"--CODEGEN--\":27:28   */\n      dup1\n        /* \"--CODEGEN--\":20:32   */\n      revert\n        /* \"--CODEGEN--\":5:7   */\n    tag_403:\n        /* \"TimeAlly.sol\":8438:8449  token.mou() */\n      pop\n      gas\n      staticcall\n      iszero\n        /* \"--CODEGEN--\":8:17   */\n      dup1\n        /* \"--CODEGEN--\":5:7   */\n      iszero\n      tag_404\n      jumpi\n        /* \"--CODEGEN--\":45:61   */\n      returndatasize\n        /* \"--CODEGEN--\":42:43   */\n      0x00\n        /* \"--CODEGEN--\":39:40   */\n      dup1\n        /* \"--CODEGEN--\":24:62   */\n      returndatacopy\n        /* \"--CODEGEN--\":77:93   */\n      returndatasize\n        /* \"--CODEGEN--\":74:75   */\n      0x00\n        /* \"--CODEGEN--\":67:94   */\n      revert\n        /* \"--CODEGEN--\":5:7   */\n    tag_404:\n        /* \"TimeAlly.sol\":8438:8449  token.mou() */\n      pop\n      pop\n      pop\n      pop\n      mload(0x40)\n      returndatasize\n        /* \"--CODEGEN--\":13:15   */\n      0x20\n        /* \"--CODEGEN--\":8:11   */\n      dup2\n        /* \"--CODEGEN--\":5:16   */\n      lt\n        /* \"--CODEGEN--\":2:4   */\n      iszero\n      tag_405\n      jumpi\n        /* \"--CODEGEN--\":29:30   */\n      0x00\n        /* \"--CODEGEN--\":26:27   */\n      dup1\n        /* \"--CODEGEN--\":19:31   */\n      revert\n        /* \"--CODEGEN--\":2:4   */\n    tag_405:\n        /* \"TimeAlly.sol\":8438:8449  token.mou() */\n      dup2\n      add\n      swap1\n      dup1\n      dup1\n      mload\n      swap1\n      0x20\n      add\n      swap1\n      swap3\n      swap2\n      swap1\n      pop\n      pop\n      pop\n        /* \"TimeAlly.sol\":8438:8583  token.mou() >= stakings[_userAddress][_stakingId].timestamp... */\n      lt\n      iszero\n        /* \"TimeAlly.sol\":8399:8583  _currentMonth != _atMonth... */\n    tag_398:\n        /* \"TimeAlly.sol\":8187:8595  stakingMonth + 1 <= _atMonth && stakingMonth + stakingPlans[ stakings[_userAddress][_stakingId].stakingPlanId ].months >= _atMonth... */\n    tag_397:\n        /* \"TimeAlly.sol\":8170:8605  return (... */\n      swap2\n      pop\n      pop\n        /* \"TimeAlly.sol\":7903:8612  function isStakingActive(address _userAddress, uint256 _stakingId, uint256 _currentMonth, uint256 _atMonth) public view returns (bool) {... */\n      swap5\n      swap4\n      pop\n      pop\n      pop\n      pop\n      jump\t// out\n        /* \"TimeAlly.sol\":22640:23221  function addNominee(uint256 _stakingId, address _nomineeAddress, uint256 _shares) public {... */\n    tag_104:\n        /* \"TimeAlly.sol\":22790:22791  1 */\n      0x01\n        /* \"TimeAlly.sol\":22747:22755  stakings */\n      0x08\n        /* \"TimeAlly.sol\":22747:22767  stakings[msg.sender] */\n      0x00\n        /* \"TimeAlly.sol\":22756:22766  msg.sender */\n      caller\n        /* \"TimeAlly.sol\":22747:22767  stakings[msg.sender] */\n      0xffffffffffffffffffffffffffffffffffffffff\n      and\n      0xffffffffffffffffffffffffffffffffffffffff\n      and\n      dup2\n      mstore\n      0x20\n      add\n      swap1\n      dup2\n      mstore\n      0x20\n      add\n      0x00\n      keccak256\n        /* \"TimeAlly.sol\":22768:22778  _stakingId */\n      dup5\n        /* \"TimeAlly.sol\":22747:22779  stakings[msg.sender][_stakingId] */\n      dup2\n      sload\n      dup2\n      lt\n      tag_407\n      jumpi\n      invalid\n    tag_407:\n      swap1\n      0x00\n      mstore\n      keccak256(0x00, 0x20)\n      swap1\n      0x0b\n      mul\n      add\n        /* \"TimeAlly.sol\":22747:22786  stakings[msg.sender][_stakingId].status */\n      0x03\n      add\n      sload\n        /* \"TimeAlly.sol\":22747:22791  stakings[msg.sender][_stakingId].status == 1 */\n      eq\n        /* \"TimeAlly.sol\":22739:22817  require(stakings[msg.sender][_stakingId].status == 1, 'staking should active') */\n      tag_409\n      jumpi\n      mload(0x40)\n      0x08c379a000000000000000000000000000000000000000000000000000000000\n      dup2\n      mstore\n      0x04\n      add\n      dup1\n      dup1\n      0x20\n      add\n      dup3\n      dup2\n      sub\n      dup3\n      mstore\n      0x15\n      dup2\n      mstore\n      0x20\n      add\n      dup1\n      0x7374616b696e672073686f756c64206163746976650000000000000000000000\n      dup2\n      mstore\n      pop\n      0x20\n      add\n      swap2\n      pop\n      pop\n      mload(0x40)\n      dup1\n      swap2\n      sub\n      swap1\n      revert\n    tag_409:\n        /* \"TimeAlly.sol\":22899:22900  0 */\n      0x00\n        /* \"TimeAlly.sol\":22835:22843  stakings */\n      0x08\n        /* \"TimeAlly.sol\":22835:22855  stakings[msg.sender] */\n      0x00\n        /* \"TimeAlly.sol\":22844:22854  msg.sender */\n      caller\n        /* \"TimeAlly.sol\":22835:22855  stakings[msg.sender] */\n      0xffffffffffffffffffffffffffffffffffffffff\n      and\n      0xffffffffffffffffffffffffffffffffffffffff\n      and\n      dup2\n      mstore\n      0x20\n      add\n      swap1\n      dup2\n      mstore\n      0x20\n      add\n      0x00\n      keccak256\n        /* \"TimeAlly.sol\":22856:22866  _stakingId */\n      dup5\n        /* \"TimeAlly.sol\":22835:22867  stakings[msg.sender][_stakingId] */\n      dup2\n      sload\n      dup2\n      lt\n      tag_410\n      jumpi\n      invalid\n    tag_410:\n      swap1\n      0x00\n      mstore\n      keccak256(0x00, 0x20)\n      swap1\n      0x0b\n      mul\n      add\n        /* \"TimeAlly.sol\":22835:22878  stakings[msg.sender][_stakingId].nomination */\n      0x0a\n      add\n        /* \"TimeAlly.sol\":22835:22895  stakings[msg.sender][_stakingId].nomination[_nomineeAddress] */\n      0x00\n        /* \"TimeAlly.sol\":22879:22894  _nomineeAddress */\n      dup5\n        /* \"TimeAlly.sol\":22835:22895  stakings[msg.sender][_stakingId].nomination[_nomineeAddress] */\n      0xffffffffffffffffffffffffffffffffffffffff\n      and\n      0xffffffffffffffffffffffffffffffffffffffff\n      and\n      dup2\n      mstore\n      0x20\n      add\n      swap1\n      dup2\n      mstore\n      0x20\n      add\n      0x00\n      keccak256\n      sload\n        /* \"TimeAlly.sol\":22835:22900  stakings[msg.sender][_stakingId].nomination[_nomineeAddress] == 0 */\n      eq\n        /* \"TimeAlly.sol\":22827:22934  require(stakings[msg.sender][_stakingId].nomination[_nomineeAddress] == 0, 'should not be nominee already') */\n      tag_412\n      jumpi\n      mload(0x40)\n      0x08c379a000000000000000000000000000000000000000000000000000000000\n      dup2\n      mstore\n      0x04\n      add\n      dup1\n      dup1\n      0x20\n      add\n      dup3\n      dup2\n      sub\n      dup3\n      mstore\n      0x1d\n      dup2\n      mstore\n      0x20\n      add\n      dup1\n      0x73686f756c64206e6f74206265206e6f6d696e656520616c7265616479000000\n      dup2\n      mstore\n      pop\n      0x20\n      add\n      swap2\n      pop\n      pop\n      mload(0x40)\n      dup1\n      swap2\n      sub\n      swap1\n      revert\n    tag_412:\n        /* \"TimeAlly.sol\":23001:23068  stakings[msg.sender][_stakingId].totalNominationShares.add(_shares) */\n      tag_413\n        /* \"TimeAlly.sol\":23060:23067  _shares */\n      dup2\n        /* \"TimeAlly.sol\":23001:23009  stakings */\n      0x08\n        /* \"TimeAlly.sol\":23001:23021  stakings[msg.sender] */\n      0x00\n        /* \"TimeAlly.sol\":23010:23020  msg.sender */\n      caller\n        /* \"TimeAlly.sol\":23001:23021  stakings[msg.sender] */\n      0xffffffffffffffffffffffffffffffffffffffff\n      and\n      0xffffffffffffffffffffffffffffffffffffffff\n      and\n      dup2\n      mstore\n      0x20\n      add\n      swap1\n      dup2\n      mstore\n      0x20\n      add\n      0x00\n      keccak256\n        /* \"TimeAlly.sol\":23022:23032  _stakingId */\n      dup6\n        /* \"TimeAlly.sol\":23001:23033  stakings[msg.sender][_stakingId] */\n      dup2\n      sload\n      dup2\n      lt\n      tag_414\n      jumpi\n      invalid\n    tag_414:\n      swap1\n      0x00\n      mstore\n      keccak256(0x00, 0x20)\n      swap1\n      0x0b\n      mul\n      add\n        /* \"TimeAlly.sol\":23001:23055  stakings[msg.sender][_stakingId].totalNominationShares */\n      0x09\n      add\n      sload\n        /* \"TimeAlly.sol\":23001:23059  stakings[msg.sender][_stakingId].totalNominationShares.add */\n      tag_163\n      swap1\n        /* \"TimeAlly.sol\":23001:23068  stakings[msg.sender][_stakingId].totalNominationShares.add(_shares) */\n      swap2\n      swap1\n      0xffffffff\n      and\n      jump\t// in\n    tag_413:\n        /* \"TimeAlly.sol\":22944:22952  stakings */\n      0x08\n        /* \"TimeAlly.sol\":22944:22964  stakings[msg.sender] */\n      0x00\n        /* \"TimeAlly.sol\":22953:22963  msg.sender */\n      caller\n        /* \"TimeAlly.sol\":22944:22964  stakings[msg.sender] */\n      0xffffffffffffffffffffffffffffffffffffffff\n      and\n      0xffffffffffffffffffffffffffffffffffffffff\n      and\n      dup2\n      mstore\n      0x20\n      add\n      swap1\n      dup2\n      mstore\n      0x20\n      add\n      0x00\n      keccak256\n        /* \"TimeAlly.sol\":22965:22975  _stakingId */\n      dup5\n        /* \"TimeAlly.sol\":22944:22976  stakings[msg.sender][_stakingId] */\n      dup2\n      sload\n      dup2\n      lt\n      tag_416\n      jumpi\n      invalid\n    tag_416:\n      swap1\n      0x00\n      mstore\n      keccak256(0x00, 0x20)\n      swap1\n      0x0b\n      mul\n      add\n        /* \"TimeAlly.sol\":22944:22998  stakings[msg.sender][_stakingId].totalNominationShares */\n      0x09\n      add\n        /* \"TimeAlly.sol\":22944:23068  stakings[msg.sender][_stakingId].totalNominationShares = stakings[msg.sender][_stakingId].totalNominationShares.add(_shares) */\n      dup2\n      swap1\n      sstore\n      pop\n        /* \"TimeAlly.sol\":23141:23148  _shares */\n      dup1\n        /* \"TimeAlly.sol\":23078:23086  stakings */\n      0x08\n        /* \"TimeAlly.sol\":23078:23098  stakings[msg.sender] */\n      0x00\n        /* \"TimeAlly.sol\":23087:23097  msg.sender */\n      caller\n        /* \"TimeAlly.sol\":23078:23098  stakings[msg.sender] */\n      0xffffffffffffffffffffffffffffffffffffffff\n      and\n      0xffffffffffffffffffffffffffffffffffffffff\n      and\n      dup2\n      mstore\n      0x20\n      add\n      swap1\n      dup2\n      mstore\n      0x20\n      add\n      0x00\n      keccak256\n        /* \"TimeAlly.sol\":23099:23109  _stakingId */\n      dup5\n        /* \"TimeAlly.sol\":23078:23110  stakings[msg.sender][_stakingId] */\n      dup2\n      sload\n      dup2\n      lt\n      tag_418\n      jumpi\n      invalid\n    tag_418:\n      swap1\n      0x00\n      mstore\n      keccak256(0x00, 0x20)\n      swap1\n      0x0b\n      mul\n      add\n        /* \"TimeAlly.sol\":23078:23121  stakings[msg.sender][_stakingId].nomination */\n      0x0a\n      add\n        /* \"TimeAlly.sol\":23078:23138  stakings[msg.sender][_stakingId].nomination[_nomineeAddress] */\n      0x00\n        /* \"TimeAlly.sol\":23122:23137  _nomineeAddress */\n      dup5\n        /* \"TimeAlly.sol\":23078:23138  stakings[msg.sender][_stakingId].nomination[_nomineeAddress] */\n      0xffffffffffffffffffffffffffffffffffffffff\n      and\n      0xffffffffffffffffffffffffffffffffffffffff\n      and\n      dup2\n      mstore\n      0x20\n      add\n      swap1\n      dup2\n      mstore\n      0x20\n      add\n      0x00\n      keccak256\n        /* \"TimeAlly.sol\":23078:23148  stakings[msg.sender][_stakingId].nomination[_nomineeAddress] = _shares */\n      dup2\n      swap1\n      sstore\n      pop\n        /* \"TimeAlly.sol\":23198:23213  _nomineeAddress */\n      dup2\n        /* \"TimeAlly.sol\":23163:23214  NomineeNew(msg.sender, _stakingId, _nomineeAddress) */\n      0xffffffffffffffffffffffffffffffffffffffff\n      and\n        /* \"TimeAlly.sol\":23186:23196  _stakingId */\n      dup4\n        /* \"TimeAlly.sol\":23174:23184  msg.sender */\n      caller\n        /* \"TimeAlly.sol\":23163:23214  NomineeNew(msg.sender, _stakingId, _nomineeAddress) */\n      0xffffffffffffffffffffffffffffffffffffffff\n      and\n      0xc4e7fb51a42ce926bb404f8024c3c91a40af0654d9a96ada67c329b9c9bee4a2\n      mload(0x40)\n      mload(0x40)\n      dup1\n      swap2\n      sub\n      swap1\n      log4\n        /* \"TimeAlly.sol\":22640:23221  function addNominee(uint256 _stakingId, address _nomineeAddress, uint256 _shares) public {... */\n      pop\n      pop\n      pop\n      jump\t// out\n        /* \"TimeAlly.sol\":5249:5389  function getNumberOfStakingsByUser(address _userAddress) public view returns (uint256) {... */\n    tag_107:\n        /* \"TimeAlly.sol\":5327:5334  uint256 */\n      0x00\n        /* \"TimeAlly.sol\":5353:5361  stakings */\n      0x08\n        /* \"TimeAlly.sol\":5353:5375  stakings[_userAddress] */\n      0x00\n        /* \"TimeAlly.sol\":5362:5374  _userAddress */\n      dup4\n        /* \"TimeAlly.sol\":5353:5375  stakings[_userAddress] */\n      0xffffffffffffffffffffffffffffffffffffffff\n      and\n      0xffffffffffffffffffffffffffffffffffffffff\n      and\n      dup2\n      mstore\n      0x20\n      add\n      swap1\n      dup2\n      mstore\n      0x20\n      add\n      0x00\n      keccak256\n        /* \"TimeAlly.sol\":5353:5382  stakings[_userAddress].length */\n      dup1\n      sload\n      swap1\n      pop\n        /* \"TimeAlly.sol\":5346:5382  return stakings[_userAddress].length */\n      swap1\n      pop\n        /* \"TimeAlly.sol\":5249:5389  function getNumberOfStakingsByUser(address _userAddress) public view returns (uint256) {... */\n      swap2\n      swap1\n      pop\n      jump\t// out\n        /* \"TimeAlly.sol\":16933:17959  function seeMaxLoaningAmountOnUserStakings(address _userAddress, uint256[] memory _stakingIds) public view returns (uint256) {... */\n    tag_113:\n        /* \"TimeAlly.sol\":17049:17056  uint256 */\n      0x00\n        /* \"TimeAlly.sol\":17068:17089  uint256 _currentMonth */\n      dup1\n        /* \"TimeAlly.sol\":17092:17109  getCurrentMonth() */\n      tag_422\n        /* \"TimeAlly.sol\":17092:17107  getCurrentMonth */\n      tag_130\n        /* \"TimeAlly.sol\":17092:17109  getCurrentMonth() */\n      jump\t// in\n    tag_422:\n        /* \"TimeAlly.sol\":17068:17109  uint256 _currentMonth = getCurrentMonth() */\n      swap1\n      pop\n        /* \"TimeAlly.sol\":17196:17227  uint256 userStakingsExaEsAmount */\n      0x00\n        /* \"TimeAlly.sol\":17242:17251  uint256 i */\n      dup1\n        /* \"TimeAlly.sol\":17254:17255  0 */\n      0x00\n        /* \"TimeAlly.sol\":17242:17255  uint256 i = 0 */\n      swap1\n      pop\n        /* \"TimeAlly.sol\":17238:17823  for(uint256 i = 0; i < _stakingIds.length; i++) {... */\n    tag_423:\n        /* \"TimeAlly.sol\":17261:17272  _stakingIds */\n      dup5\n        /* \"TimeAlly.sol\":17261:17279  _stakingIds.length */\n      mload\n        /* \"TimeAlly.sol\":17257:17258  i */\n      dup2\n        /* \"TimeAlly.sol\":17257:17279  i < _stakingIds.length */\n      lt\n        /* \"TimeAlly.sol\":17238:17823  for(uint256 i = 0; i < _stakingIds.length; i++) {... */\n      iszero\n      tag_424\n      jumpi\n        /* \"TimeAlly.sol\":17304:17379  isStakingActive(_userAddress, _stakingIds[i], _currentMonth, _currentMonth) */\n      tag_426\n        /* \"TimeAlly.sol\":17320:17332  _userAddress */\n      dup7\n        /* \"TimeAlly.sol\":17334:17345  _stakingIds */\n      dup7\n        /* \"TimeAlly.sol\":17346:17347  i */\n      dup4\n        /* \"TimeAlly.sol\":17334:17348  _stakingIds[i] */\n      dup2\n      mload\n      dup2\n      lt\n      tag_427\n      jumpi\n      invalid\n    tag_427:\n      0x20\n      mul\n      0x20\n      add\n      add\n      mload\n        /* \"TimeAlly.sol\":17350:17363  _currentMonth */\n      dup6\n        /* \"TimeAlly.sol\":17365:17378  _currentMonth */\n      dup7\n        /* \"TimeAlly.sol\":17304:17319  isStakingActive */\n      tag_101\n        /* \"TimeAlly.sol\":17304:17379  isStakingActive(_userAddress, _stakingIds[i], _currentMonth, _currentMonth) */\n      jump\t// in\n    tag_426:\n        /* \"TimeAlly.sol\":17301:17813  if(isStakingActive(_userAddress, _stakingIds[i], _currentMonth, _currentMonth)... */\n      iszero\n      tag_428\n      jumpi\n        /* \"TimeAlly.sol\":17528:17798  userStakingsExaEsAmount... */\n      tag_429\n        /* \"TimeAlly.sol\":17577:17585  stakings */\n      0x08\n        /* \"TimeAlly.sol\":17577:17599  stakings[_userAddress] */\n      0x00\n        /* \"TimeAlly.sol\":17586:17598  _userAddress */\n      dup9\n        /* \"TimeAlly.sol\":17577:17599  stakings[_userAddress] */\n      0xffffffffffffffffffffffffffffffffffffffff\n      and\n      0xffffffffffffffffffffffffffffffffffffffff\n      and\n      dup2\n      mstore\n      0x20\n      add\n      swap1\n      dup2\n      mstore\n      0x20\n      add\n      0x00\n      keccak256\n        /* \"TimeAlly.sol\":17600:17611  _stakingIds */\n      dup7\n        /* \"TimeAlly.sol\":17612:17613  i */\n      dup4\n        /* \"TimeAlly.sol\":17600:17614  _stakingIds[i] */\n      dup2\n      mload\n      dup2\n      lt\n      tag_430\n      jumpi\n      invalid\n    tag_430:\n      0x20\n      mul\n      0x20\n      add\n      add\n      mload\n        /* \"TimeAlly.sol\":17577:17615  stakings[_userAddress][_stakingIds[i]] */\n      dup2\n      sload\n      dup2\n      lt\n      tag_431\n      jumpi\n      invalid\n    tag_431:\n      swap1\n      0x00\n      mstore\n      keccak256(0x00, 0x20)\n      swap1\n      0x0b\n      mul\n      add\n        /* \"TimeAlly.sol\":17577:17627  stakings[_userAddress][_stakingIds[i]].exaEsAmount */\n      0x00\n      add\n      sload\n        /* \"TimeAlly.sol\":17528:17551  userStakingsExaEsAmount */\n      dup4\n        /* \"TimeAlly.sol\":17528:17576  userStakingsExaEsAmount... */\n      tag_163\n      swap1\n        /* \"TimeAlly.sol\":17528:17798  userStakingsExaEsAmount... */\n      swap2\n      swap1\n      0xffffffff\n      and\n      jump\t// in\n    tag_429:\n        /* \"TimeAlly.sol\":17502:17798  userStakingsExaEsAmount = userStakingsExaEsAmount... */\n      swap2\n      pop\n        /* \"TimeAlly.sol\":17301:17813  if(isStakingActive(_userAddress, _stakingIds[i], _currentMonth, _currentMonth)... */\n    tag_428:\n        /* \"TimeAlly.sol\":17281:17284  i++ */\n      dup1\n      dup1\n      0x01\n      add\n      swap2\n      pop\n      pop\n        /* \"TimeAlly.sol\":17238:17823  for(uint256 i = 0; i < _stakingIds.length; i++) {... */\n      jump(tag_423)\n    tag_424:\n      pop\n        /* \"TimeAlly.sol\":17840:17870  userStakingsExaEsAmount.div(2) */\n      tag_433\n        /* \"TimeAlly.sol\":17868:17869  2 */\n      0x02\n        /* \"TimeAlly.sol\":17840:17863  userStakingsExaEsAmount */\n      dup3\n        /* \"TimeAlly.sol\":17840:17867  userStakingsExaEsAmount.div */\n      tag_213\n      swap1\n        /* \"TimeAlly.sol\":17840:17870  userStakingsExaEsAmount.div(2) */\n      swap2\n      swap1\n      0xffffffff\n      and\n      jump\t// in\n    tag_433:\n        /* \"TimeAlly.sol\":17833:17870  return userStakingsExaEsAmount.div(2) */\n      swap3\n      pop\n      pop\n      pop\n        /* \"TimeAlly.sol\":16933:17959  function seeMaxLoaningAmountOnUserStakings(address _userAddress, uint256[] memory _stakingIds) public view returns (uint256) {... */\n      swap3\n      swap2\n      pop\n      pop\n      jump\t// out\n        /* \"TimeAlly.sol\":3619:3838  function createStakingPlan(uint256 _months, uint256 _fractionFrom15) public onlyOwner {... */\n    tag_116:\n        /* \"TimeAlly.sol\":3053:3058  owner */\n      0x00\n      dup1\n      swap1\n      sload\n      swap1\n      0x0100\n      exp\n      swap1\n      div\n      0xffffffffffffffffffffffffffffffffffffffff\n      and\n        /* \"TimeAlly.sol\":3039:3058  msg.sender == owner */\n      0xffffffffffffffffffffffffffffffffffffffff\n      and\n        /* \"TimeAlly.sol\":3039:3049  msg.sender */\n      caller\n        /* \"TimeAlly.sol\":3039:3058  msg.sender == owner */\n      0xffffffffffffffffffffffffffffffffffffffff\n      and\n      eq\n        /* \"TimeAlly.sol\":3031:3085  require(msg.sender == owner, 'only deployer can call') */\n      tag_435\n      jumpi\n      mload(0x40)\n      0x08c379a000000000000000000000000000000000000000000000000000000000\n      dup2\n      mstore\n      0x04\n      add\n      dup1\n      dup1\n      0x20\n      add\n      dup3\n      dup2\n      sub\n      dup3\n      mstore\n      0x16\n      dup2\n      mstore\n      0x20\n      add\n      dup1\n      0x6f6e6c79206465706c6f7965722063616e2063616c6c00000000000000000000\n      dup2\n      mstore\n      pop\n      0x20\n      add\n      swap2\n      pop\n      pop\n      mload(0x40)\n      dup1\n      swap2\n      sub\n      swap1\n      revert\n    tag_435:\n        /* \"TimeAlly.sol\":3715:3727  stakingPlans */\n      0x06\n        /* \"TimeAlly.sol\":3733:3830  StakingPlan({... */\n      mload(0x40)\n      dup1\n      0x40\n      add\n      0x40\n      mstore\n      dup1\n        /* \"TimeAlly.sol\":3767:3774  _months */\n      dup5\n        /* \"TimeAlly.sol\":3733:3830  StakingPlan({... */\n      dup2\n      mstore\n      0x20\n      add\n        /* \"TimeAlly.sol\":3804:3819  _fractionFrom15 */\n      dup4\n        /* \"TimeAlly.sol\":3733:3830  StakingPlan({... */\n      dup2\n      mstore\n      pop\n        /* \"TimeAlly.sol\":3715:3831  stakingPlans.push(StakingPlan({... */\n      swap1\n      dup1\n        /* \"--CODEGEN--\":39:40   */\n      0x01\n        /* \"--CODEGEN--\":33:36   */\n      dup2\n        /* \"--CODEGEN--\":27:37   */\n      sload\n        /* \"--CODEGEN--\":23:41   */\n      add\n        /* \"--CODEGEN--\":57:67   */\n      dup1\n        /* \"--CODEGEN--\":52:55   */\n      dup3\n        /* \"--CODEGEN--\":45:68   */\n      sstore\n        /* \"--CODEGEN--\":79:89   */\n      dup1\n        /* \"--CODEGEN--\":72:89   */\n      swap2\n      pop\n        /* \"--CODEGEN--\":0:93   */\n      pop\n        /* \"TimeAlly.sol\":3715:3831  stakingPlans.push(StakingPlan({... */\n      swap1\n      0x01\n      dup3\n      sub\n      swap1\n      0x00\n      mstore\n      keccak256(0x00, 0x20)\n      swap1\n      0x02\n      mul\n      add\n      0x00\n      swap1\n      swap2\n      swap3\n      swap1\n      swap2\n      swap1\n      swap2\n      pop\n      0x00\n      dup3\n      add\n      mload\n      dup2\n      0x00\n      add\n      sstore\n      0x20\n      dup3\n      add\n      mload\n      dup2\n      0x01\n      add\n      sstore\n      pop\n      pop\n      pop\n        /* \"TimeAlly.sol\":3619:3838  function createStakingPlan(uint256 _months, uint256 _fractionFrom15) public onlyOwner {... */\n      pop\n      pop\n      jump\t// out\n        /* \"TimeAlly.sol\":1500:1527  LoanPlan[] public loanPlans */\n    tag_119:\n      0x07\n      dup2\n      dup2\n      sload\n      dup2\n      lt\n      tag_438\n      jumpi\n      invalid\n    tag_438:\n      swap1\n      0x00\n      mstore\n      keccak256(0x00, 0x20)\n      swap1\n      0x02\n      mul\n      add\n      0x00\n      swap2\n      pop\n      swap1\n      pop\n      dup1\n      0x00\n      add\n      sload\n      swap1\n      dup1\n      0x01\n      add\n      sload\n      swap1\n      pop\n      dup3\n      jump\t// out\n        /* \"TimeAlly.sol\":17965:21292  function takeLoanOnSelfStaking(uint256 _loanPlanId, uint256 _exaEsAmount, uint256[] memory _stakingIds) public {... */\n    tag_125:\n        /* \"TimeAlly.sol\":18309:18330  uint256 _currentMonth */\n      0x00\n        /* \"TimeAlly.sol\":18333:18350  getCurrentMonth() */\n      tag_441\n        /* \"TimeAlly.sol\":18333:18348  getCurrentMonth */\n      tag_130\n        /* \"TimeAlly.sol\":18333:18350  getCurrentMonth() */\n      jump\t// in\n    tag_441:\n        /* \"TimeAlly.sol\":18309:18350  uint256 _currentMonth = getCurrentMonth() */\n      swap1\n      pop\n        /* \"TimeAlly.sol\":18360:18392  uint256 _userStakingsExaEsAmount */\n      0x00\n        /* \"TimeAlly.sol\":18407:18416  uint256 i */\n      dup1\n        /* \"TimeAlly.sol\":18419:18420  0 */\n      0x00\n        /* \"TimeAlly.sol\":18407:18420  uint256 i = 0 */\n      swap1\n      pop\n        /* \"TimeAlly.sol\":18403:19802  for(uint256 i = 0; i < _stakingIds.length; i++) {... */\n    tag_442:\n        /* \"TimeAlly.sol\":18426:18437  _stakingIds */\n      dup4\n        /* \"TimeAlly.sol\":18426:18444  _stakingIds.length */\n      mload\n        /* \"TimeAlly.sol\":18422:18423  i */\n      dup2\n        /* \"TimeAlly.sol\":18422:18444  i < _stakingIds.length */\n      lt\n        /* \"TimeAlly.sol\":18403:19802  for(uint256 i = 0; i < _stakingIds.length; i++) {... */\n      iszero\n      tag_443\n      jumpi\n        /* \"TimeAlly.sol\":18470:18543  isStakingActive(msg.sender, _stakingIds[i], _currentMonth, _currentMonth) */\n      tag_445\n        /* \"TimeAlly.sol\":18486:18496  msg.sender */\n      caller\n        /* \"TimeAlly.sol\":18498:18509  _stakingIds */\n      dup6\n        /* \"TimeAlly.sol\":18510:18511  i */\n      dup4\n        /* \"TimeAlly.sol\":18498:18512  _stakingIds[i] */\n      dup2\n      mload\n      dup2\n      lt\n      tag_446\n      jumpi\n      invalid\n    tag_446:\n      0x20\n      mul\n      0x20\n      add\n      add\n      mload\n        /* \"TimeAlly.sol\":18514:18527  _currentMonth */\n      dup6\n        /* \"TimeAlly.sol\":18529:18542  _currentMonth */\n      dup7\n        /* \"TimeAlly.sol\":18470:18485  isStakingActive */\n      tag_101\n        /* \"TimeAlly.sol\":18470:18543  isStakingActive(msg.sender, _stakingIds[i], _currentMonth, _currentMonth) */\n      jump\t// in\n    tag_445:\n        /* \"TimeAlly.sol\":18466:19792  if( isStakingActive(msg.sender, _stakingIds[i], _currentMonth, _currentMonth) ) {... */\n      iszero\n      tag_447\n      jumpi\n        /* \"TimeAlly.sol\":18633:18923  _userStakingsExaEsAmount... */\n      tag_448\n        /* \"TimeAlly.sol\":18708:18905  stakings[msg.sender][ _stakingIds[i] ].exaEsAmount... */\n      tag_449\n        /* \"TimeAlly.sol\":18902:18904  15 */\n      0x0f\n        /* \"TimeAlly.sol\":18708:18872  stakings[msg.sender][ _stakingIds[i] ].exaEsAmount... */\n      tag_450\n        /* \"TimeAlly.sol\":18789:18801  stakingPlans */\n      0x06\n        /* \"TimeAlly.sol\":18803:18811  stakings */\n      0x08\n        /* \"TimeAlly.sol\":18803:18823  stakings[msg.sender] */\n      0x00\n        /* \"TimeAlly.sol\":18812:18822  msg.sender */\n      caller\n        /* \"TimeAlly.sol\":18803:18823  stakings[msg.sender] */\n      0xffffffffffffffffffffffffffffffffffffffff\n      and\n      0xffffffffffffffffffffffffffffffffffffffff\n      and\n      dup2\n      mstore\n      0x20\n      add\n      swap1\n      dup2\n      mstore\n      0x20\n      add\n      0x00\n      keccak256\n        /* \"TimeAlly.sol\":18824:18835  _stakingIds */\n      dup10\n        /* \"TimeAlly.sol\":18836:18837  i */\n      dup8\n        /* \"TimeAlly.sol\":18824:18838  _stakingIds[i] */\n      dup2\n      mload\n      dup2\n      lt\n      tag_451\n      jumpi\n      invalid\n    tag_451:\n      0x20\n      mul\n      0x20\n      add\n      add\n      mload\n        /* \"TimeAlly.sol\":18803:18839  stakings[msg.sender][_stakingIds[i]] */\n      dup2\n      sload\n      dup2\n      lt\n      tag_452\n      jumpi\n      invalid\n    tag_452:\n      swap1\n      0x00\n      mstore\n      keccak256(0x00, 0x20)\n      swap1\n      0x0b\n      mul\n      add\n        /* \"TimeAlly.sol\":18803:18853  stakings[msg.sender][_stakingIds[i]].stakingPlanId */\n      0x02\n      add\n      sload\n        /* \"TimeAlly.sol\":18789:18855  stakingPlans[ stakings[msg.sender][_stakingIds[i]].stakingPlanId ] */\n      dup2\n      sload\n      dup2\n      lt\n      tag_454\n      jumpi\n      invalid\n    tag_454:\n      swap1\n      0x00\n      mstore\n      keccak256(0x00, 0x20)\n      swap1\n      0x02\n      mul\n      add\n        /* \"TimeAlly.sol\":18789:18870  stakingPlans[ stakings[msg.sender][_stakingIds[i]].stakingPlanId ].fractionFrom15 */\n      0x01\n      add\n      sload\n        /* \"TimeAlly.sol\":18708:18716  stakings */\n      0x08\n        /* \"TimeAlly.sol\":18708:18728  stakings[msg.sender] */\n      0x00\n        /* \"TimeAlly.sol\":18717:18727  msg.sender */\n      caller\n        /* \"TimeAlly.sol\":18708:18728  stakings[msg.sender] */\n      0xffffffffffffffffffffffffffffffffffffffff\n      and\n      0xffffffffffffffffffffffffffffffffffffffff\n      and\n      dup2\n      mstore\n      0x20\n      add\n      swap1\n      dup2\n      mstore\n      0x20\n      add\n      0x00\n      keccak256\n        /* \"TimeAlly.sol\":18730:18741  _stakingIds */\n      dup10\n        /* \"TimeAlly.sol\":18742:18743  i */\n      dup8\n        /* \"TimeAlly.sol\":18730:18744  _stakingIds[i] */\n      dup2\n      mload\n      dup2\n      lt\n      tag_456\n      jumpi\n      invalid\n    tag_456:\n      0x20\n      mul\n      0x20\n      add\n      add\n      mload\n        /* \"TimeAlly.sol\":18708:18746  stakings[msg.sender][ _stakingIds[i] ] */\n      dup2\n      sload\n      dup2\n      lt\n      tag_457\n      jumpi\n      invalid\n    tag_457:\n      swap1\n      0x00\n      mstore\n      keccak256(0x00, 0x20)\n      swap1\n      0x0b\n      mul\n      add\n        /* \"TimeAlly.sol\":18708:18758  stakings[msg.sender][ _stakingIds[i] ].exaEsAmount */\n      0x00\n      add\n      sload\n        /* \"TimeAlly.sol\":18708:18787  stakings[msg.sender][ _stakingIds[i] ].exaEsAmount... */\n      tag_212\n      swap1\n        /* \"TimeAlly.sol\":18708:18872  stakings[msg.sender][ _stakingIds[i] ].exaEsAmount... */\n      swap2\n      swap1\n      0xffffffff\n      and\n      jump\t// in\n    tag_450:\n        /* \"TimeAlly.sol\":18708:18901  stakings[msg.sender][ _stakingIds[i] ].exaEsAmount... */\n      tag_213\n      swap1\n        /* \"TimeAlly.sol\":18708:18905  stakings[msg.sender][ _stakingIds[i] ].exaEsAmount... */\n      swap2\n      swap1\n      0xffffffff\n      and\n      jump\t// in\n    tag_449:\n        /* \"TimeAlly.sol\":18633:18657  _userStakingsExaEsAmount */\n      dup4\n        /* \"TimeAlly.sol\":18633:18682  _userStakingsExaEsAmount... */\n      tag_163\n      swap1\n        /* \"TimeAlly.sol\":18633:18923  _userStakingsExaEsAmount... */\n      swap2\n      swap1\n      0xffffffff\n      and\n      jump\t// in\n    tag_448:\n        /* \"TimeAlly.sol\":18606:18923  _userStakingsExaEsAmount = _userStakingsExaEsAmount... */\n      swap2\n      pop\n        /* \"TimeAlly.sol\":18992:19017  uint256 stakingStartMonth */\n      0x00\n        /* \"TimeAlly.sol\":19020:19114  stakings[msg.sender][_stakingIds[i]].timestamp.sub(deployedTimestamp).div(earthSecondsInMonth) */\n      tag_459\n        /* \"TimeAlly.sol\":19094:19113  earthSecondsInMonth */\n      sload(0x04)\n        /* \"TimeAlly.sol\":19020:19089  stakings[msg.sender][_stakingIds[i]].timestamp.sub(deployedTimestamp) */\n      tag_460\n        /* \"TimeAlly.sol\":19071:19088  deployedTimestamp */\n      sload(0x03)\n        /* \"TimeAlly.sol\":19020:19028  stakings */\n      0x08\n        /* \"TimeAlly.sol\":19020:19040  stakings[msg.sender] */\n      0x00\n        /* \"TimeAlly.sol\":19029:19039  msg.sender */\n      caller\n        /* \"TimeAlly.sol\":19020:19040  stakings[msg.sender] */\n      0xffffffffffffffffffffffffffffffffffffffff\n      and\n      0xffffffffffffffffffffffffffffffffffffffff\n      and\n      dup2\n      mstore\n      0x20\n      add\n      swap1\n      dup2\n      mstore\n      0x20\n      add\n      0x00\n      keccak256\n        /* \"TimeAlly.sol\":19041:19052  _stakingIds */\n      dup10\n        /* \"TimeAlly.sol\":19053:19054  i */\n      dup8\n        /* \"TimeAlly.sol\":19041:19055  _stakingIds[i] */\n      dup2\n      mload\n      dup2\n      lt\n      tag_461\n      jumpi\n      invalid\n    tag_461:\n      0x20\n      mul\n      0x20\n      add\n      add\n      mload\n        /* \"TimeAlly.sol\":19020:19056  stakings[msg.sender][_stakingIds[i]] */\n      dup2\n      sload\n      dup2\n      lt\n      tag_462\n      jumpi\n      invalid\n    tag_462:\n      swap1\n      0x00\n      mstore\n      keccak256(0x00, 0x20)\n      swap1\n      0x0b\n      mul\n      add\n        /* \"TimeAlly.sol\":19020:19066  stakings[msg.sender][_stakingIds[i]].timestamp */\n      0x01\n      add\n      sload\n        /* \"TimeAlly.sol\":19020:19070  stakings[msg.sender][_stakingIds[i]].timestamp.sub */\n      tag_159\n      swap1\n        /* \"TimeAlly.sol\":19020:19089  stakings[msg.sender][_stakingIds[i]].timestamp.sub(deployedTimestamp) */\n      swap2\n      swap1\n      0xffffffff\n      and\n      jump\t// in\n    tag_460:\n        /* \"TimeAlly.sol\":19020:19093  stakings[msg.sender][_stakingIds[i]].timestamp.sub(deployedTimestamp).div */\n      tag_213\n      swap1\n        /* \"TimeAlly.sol\":19020:19114  stakings[msg.sender][_stakingIds[i]].timestamp.sub(deployedTimestamp).div(earthSecondsInMonth) */\n      swap2\n      swap1\n      0xffffffff\n      and\n      jump\t// in\n    tag_459:\n        /* \"TimeAlly.sol\":18992:19114  uint256 stakingStartMonth = stakings[msg.sender][_stakingIds[i]].timestamp.sub(deployedTimestamp).div(earthSecondsInMonth) */\n      swap1\n      pop\n        /* \"TimeAlly.sol\":19133:19154  uint256 stakeEndMonth */\n      0x00\n        /* \"TimeAlly.sol\":19177:19189  stakingPlans */\n      0x06\n        /* \"TimeAlly.sol\":19190:19198  stakings */\n      0x08\n        /* \"TimeAlly.sol\":19190:19210  stakings[msg.sender] */\n      0x00\n        /* \"TimeAlly.sol\":19199:19209  msg.sender */\n      caller\n        /* \"TimeAlly.sol\":19190:19210  stakings[msg.sender] */\n      0xffffffffffffffffffffffffffffffffffffffff\n      and\n      0xffffffffffffffffffffffffffffffffffffffff\n      and\n      dup2\n      mstore\n      0x20\n      add\n      swap1\n      dup2\n      mstore\n      0x20\n      add\n      0x00\n      keccak256\n        /* \"TimeAlly.sol\":19211:19222  _stakingIds */\n      dup8\n        /* \"TimeAlly.sol\":19223:19224  i */\n      dup6\n        /* \"TimeAlly.sol\":19211:19225  _stakingIds[i] */\n      dup2\n      mload\n      dup2\n      lt\n      tag_464\n      jumpi\n      invalid\n    tag_464:\n      0x20\n      mul\n      0x20\n      add\n      add\n      mload\n        /* \"TimeAlly.sol\":19190:19226  stakings[msg.sender][_stakingIds[i]] */\n      dup2\n      sload\n      dup2\n      lt\n      tag_465\n      jumpi\n      invalid\n    tag_465:\n      swap1\n      0x00\n      mstore\n      keccak256(0x00, 0x20)\n      swap1\n      0x0b\n      mul\n      add\n        /* \"TimeAlly.sol\":19190:19240  stakings[msg.sender][_stakingIds[i]].stakingPlanId */\n      0x02\n      add\n      sload\n        /* \"TimeAlly.sol\":19177:19241  stakingPlans[stakings[msg.sender][_stakingIds[i]].stakingPlanId] */\n      dup2\n      sload\n      dup2\n      lt\n      tag_467\n      jumpi\n      invalid\n    tag_467:\n      swap1\n      0x00\n      mstore\n      keccak256(0x00, 0x20)\n      swap1\n      0x02\n      mul\n      add\n        /* \"TimeAlly.sol\":19177:19248  stakingPlans[stakings[msg.sender][_stakingIds[i]].stakingPlanId].months */\n      0x00\n      add\n      sload\n        /* \"TimeAlly.sol\":19157:19174  stakingStartMonth */\n      dup3\n        /* \"TimeAlly.sol\":19157:19248  stakingStartMonth + stakingPlans[stakings[msg.sender][_stakingIds[i]].stakingPlanId].months */\n      add\n        /* \"TimeAlly.sol\":19133:19248  uint256 stakeEndMonth = stakingStartMonth + stakingPlans[stakings[msg.sender][_stakingIds[i]].stakingPlanId].months */\n      swap1\n      pop\n        /* \"TimeAlly.sol\":19271:19280  uint256 j */\n      0x00\n        /* \"TimeAlly.sol\":19299:19300  1 */\n      0x01\n        /* \"TimeAlly.sol\":19283:19296  _currentMonth */\n      dup7\n        /* \"TimeAlly.sol\":19283:19300  _currentMonth + 1 */\n      add\n        /* \"TimeAlly.sol\":19271:19300  uint256 j = _currentMonth + 1 */\n      swap1\n      pop\n        /* \"TimeAlly.sol\":19267:19445  for(uint256 j = _currentMonth + 1; j <= stakeEndMonth; j++) {... */\n    tag_469:\n        /* \"TimeAlly.sol\":19307:19320  stakeEndMonth */\n      dup2\n        /* \"TimeAlly.sol\":19302:19303  j */\n      dup2\n        /* \"TimeAlly.sol\":19302:19320  j <= stakeEndMonth */\n      gt\n        /* \"TimeAlly.sol\":19267:19445  for(uint256 j = _currentMonth + 1; j <= stakeEndMonth; j++) {... */\n      tag_470\n      jumpi\n        /* \"TimeAlly.sol\":19374:19426  totalActiveStakings[j].sub(_userStakingsExaEsAmount) */\n      tag_472\n        /* \"TimeAlly.sol\":19401:19425  _userStakingsExaEsAmount */\n      dup6\n        /* \"TimeAlly.sol\":19374:19393  totalActiveStakings */\n      0x0a\n        /* \"TimeAlly.sol\":19374:19396  totalActiveStakings[j] */\n      0x00\n        /* \"TimeAlly.sol\":19394:19395  j */\n      dup5\n        /* \"TimeAlly.sol\":19374:19396  totalActiveStakings[j] */\n      dup2\n      mstore\n      0x20\n      add\n      swap1\n      dup2\n      mstore\n      0x20\n      add\n      0x00\n      keccak256\n      sload\n        /* \"TimeAlly.sol\":19374:19400  totalActiveStakings[j].sub */\n      tag_159\n      swap1\n        /* \"TimeAlly.sol\":19374:19426  totalActiveStakings[j].sub(_userStakingsExaEsAmount) */\n      swap2\n      swap1\n      0xffffffff\n      and\n      jump\t// in\n    tag_472:\n        /* \"TimeAlly.sol\":19349:19368  totalActiveStakings */\n      0x0a\n        /* \"TimeAlly.sol\":19349:19371  totalActiveStakings[j] */\n      0x00\n        /* \"TimeAlly.sol\":19369:19370  j */\n      dup4\n        /* \"TimeAlly.sol\":19349:19371  totalActiveStakings[j] */\n      dup2\n      mstore\n      0x20\n      add\n      swap1\n      dup2\n      mstore\n      0x20\n      add\n      0x00\n      keccak256\n        /* \"TimeAlly.sol\":19349:19426  totalActiveStakings[j] = totalActiveStakings[j].sub(_userStakingsExaEsAmount) */\n      dup2\n      swap1\n      sstore\n      pop\n        /* \"TimeAlly.sol\":19322:19325  j++ */\n      dup1\n      dup1\n      0x01\n      add\n      swap2\n      pop\n      pop\n        /* \"TimeAlly.sol\":19267:19445  for(uint256 j = _currentMonth + 1; j <= stakeEndMonth; j++) {... */\n      jump(tag_469)\n    tag_470:\n      pop\n        /* \"TimeAlly.sol\":19508:19517  uint256 j */\n      0x00\n        /* \"TimeAlly.sol\":19520:19521  1 */\n      0x01\n        /* \"TimeAlly.sol\":19508:19521  uint256 j = 1 */\n      swap1\n      pop\n        /* \"TimeAlly.sol\":19504:19778  for(uint256 j = 1; j <= loanPlans[_loanPlanId].loanMonths; j++) {... */\n    tag_473:\n        /* \"TimeAlly.sol\":19528:19537  loanPlans */\n      0x07\n        /* \"TimeAlly.sol\":19538:19549  _loanPlanId */\n      dup10\n        /* \"TimeAlly.sol\":19528:19550  loanPlans[_loanPlanId] */\n      dup2\n      sload\n      dup2\n      lt\n      tag_476\n      jumpi\n      invalid\n    tag_476:\n      swap1\n      0x00\n      mstore\n      keccak256(0x00, 0x20)\n      swap1\n      0x02\n      mul\n      add\n        /* \"TimeAlly.sol\":19528:19561  loanPlans[_loanPlanId].loanMonths */\n      0x00\n      add\n      sload\n        /* \"TimeAlly.sol\":19523:19524  j */\n      dup2\n        /* \"TimeAlly.sol\":19523:19561  j <= loanPlans[_loanPlanId].loanMonths */\n      gt\n        /* \"TimeAlly.sol\":19504:19778  for(uint256 j = 1; j <= loanPlans[_loanPlanId].loanMonths; j++) {... */\n      tag_474\n      jumpi\n        /* \"TimeAlly.sol\":19667:19671  true */\n      0x01\n        /* \"TimeAlly.sol\":19590:19598  stakings */\n      0x08\n        /* \"TimeAlly.sol\":19590:19610  stakings[msg.sender] */\n      0x00\n        /* \"TimeAlly.sol\":19599:19609  msg.sender */\n      caller\n        /* \"TimeAlly.sol\":19590:19610  stakings[msg.sender] */\n      0xffffffffffffffffffffffffffffffffffffffff\n      and\n      0xffffffffffffffffffffffffffffffffffffffff\n      and\n      dup2\n      mstore\n      0x20\n      add\n      swap1\n      dup2\n      mstore\n      0x20\n      add\n      0x00\n      keccak256\n        /* \"TimeAlly.sol\":19612:19623  _stakingIds */\n      dup9\n        /* \"TimeAlly.sol\":19624:19625  i */\n      dup7\n        /* \"TimeAlly.sol\":19612:19626  _stakingIds[i] */\n      dup2\n      mload\n      dup2\n      lt\n      tag_478\n      jumpi\n      invalid\n    tag_478:\n      0x20\n      mul\n      0x20\n      add\n      add\n      mload\n        /* \"TimeAlly.sol\":19590:19628  stakings[msg.sender][ _stakingIds[i] ] */\n      dup2\n      sload\n      dup2\n      lt\n      tag_479\n      jumpi\n      invalid\n    tag_479:\n      swap1\n      0x00\n      mstore\n      keccak256(0x00, 0x20)\n      swap1\n      0x0b\n      mul\n      add\n        /* \"TimeAlly.sol\":19590:19643  stakings[msg.sender][ _stakingIds[i] ].isMonthClaimed */\n      0x06\n      add\n        /* \"TimeAlly.sol\":19590:19664  stakings[msg.sender][ _stakingIds[i] ].isMonthClaimed[ _currentMonth + j ] */\n      0x00\n        /* \"TimeAlly.sol\":19661:19662  j */\n      dup4\n        /* \"TimeAlly.sol\":19645:19658  _currentMonth */\n      dup10\n        /* \"TimeAlly.sol\":19645:19662  _currentMonth + j */\n      add\n        /* \"TimeAlly.sol\":19590:19664  stakings[msg.sender][ _stakingIds[i] ].isMonthClaimed[ _currentMonth + j ] */\n      dup2\n      mstore\n      0x20\n      add\n      swap1\n      dup2\n      mstore\n      0x20\n      add\n      0x00\n      keccak256\n      0x00\n        /* \"TimeAlly.sol\":19590:19671  stakings[msg.sender][ _stakingIds[i] ].isMonthClaimed[ _currentMonth + j ] = true */\n      0x0100\n      exp\n      dup2\n      sload\n      dup2\n      0xff\n      mul\n      not\n      and\n      swap1\n      dup4\n      iszero\n      iszero\n      mul\n      or\n      swap1\n      sstore\n      pop\n        /* \"TimeAlly.sol\":19741:19742  2 */\n      0x02\n        /* \"TimeAlly.sol\":19693:19701  stakings */\n      0x08\n        /* \"TimeAlly.sol\":19693:19713  stakings[msg.sender] */\n      0x00\n        /* \"TimeAlly.sol\":19702:19712  msg.sender */\n      caller\n        /* \"TimeAlly.sol\":19693:19713  stakings[msg.sender] */\n      0xffffffffffffffffffffffffffffffffffffffff\n      and\n      0xffffffffffffffffffffffffffffffffffffffff\n      and\n      dup2\n      mstore\n      0x20\n      add\n      swap1\n      dup2\n      mstore\n      0x20\n      add\n      0x00\n      keccak256\n        /* \"TimeAlly.sol\":19715:19726  _stakingIds */\n      dup9\n        /* \"TimeAlly.sol\":19727:19728  i */\n      dup7\n        /* \"TimeAlly.sol\":19715:19729  _stakingIds[i] */\n      dup2\n      mload\n      dup2\n      lt\n      tag_481\n      jumpi\n      invalid\n    tag_481:\n      0x20\n      mul\n      0x20\n      add\n      add\n      mload\n        /* \"TimeAlly.sol\":19693:19731  stakings[msg.sender][ _stakingIds[i] ] */\n      dup2\n      sload\n      dup2\n      lt\n      tag_482\n      jumpi\n      invalid\n    tag_482:\n      swap1\n      0x00\n      mstore\n      keccak256(0x00, 0x20)\n      swap1\n      0x0b\n      mul\n      add\n        /* \"TimeAlly.sol\":19693:19738  stakings[msg.sender][ _stakingIds[i] ].status */\n      0x03\n      add\n        /* \"TimeAlly.sol\":19693:19742  stakings[msg.sender][ _stakingIds[i] ].status = 2 */\n      dup2\n      swap1\n      sstore\n      pop\n        /* \"TimeAlly.sol\":19563:19566  j++ */\n      dup1\n      dup1\n      0x01\n      add\n      swap2\n      pop\n      pop\n        /* \"TimeAlly.sol\":19504:19778  for(uint256 j = 1; j <= loanPlans[_loanPlanId].loanMonths; j++) {... */\n      jump(tag_473)\n    tag_474:\n      pop\n        /* \"TimeAlly.sol\":18466:19792  if( isStakingActive(msg.sender, _stakingIds[i], _currentMonth, _currentMonth) ) {... */\n      pop\n      pop\n    tag_447:\n        /* \"TimeAlly.sol\":18446:18449  i++ */\n      dup1\n      dup1\n      0x01\n      add\n      swap2\n      pop\n      pop\n        /* \"TimeAlly.sol\":18403:19802  for(uint256 i = 0; i < _stakingIds.length; i++) {... */\n      jump(tag_442)\n    tag_443:\n      pop\n        /* \"TimeAlly.sol\":19812:19837  uint256 _maxLoaningAmount */\n      0x00\n        /* \"TimeAlly.sol\":19840:19871  _userStakingsExaEsAmount.div(2) */\n      tag_484\n        /* \"TimeAlly.sol\":19869:19870  2 */\n      0x02\n        /* \"TimeAlly.sol\":19840:19864  _userStakingsExaEsAmount */\n      dup4\n        /* \"TimeAlly.sol\":19840:19868  _userStakingsExaEsAmount.div */\n      tag_213\n      swap1\n        /* \"TimeAlly.sol\":19840:19871  _userStakingsExaEsAmount.div(2) */\n      swap2\n      swap1\n      0xffffffff\n      and\n      jump\t// in\n    tag_484:\n        /* \"TimeAlly.sol\":19812:19871  uint256 _maxLoaningAmount = _userStakingsExaEsAmount.div(2) */\n      swap1\n      pop\n        /* \"TimeAlly.sol\":19900:19917  _maxLoaningAmount */\n      dup1\n        /* \"TimeAlly.sol\":19885:19897  _exaEsAmount */\n      dup6\n        /* \"TimeAlly.sol\":19885:19917  _exaEsAmount > _maxLoaningAmount */\n      gt\n        /* \"TimeAlly.sol\":19882:20000  if(_exaEsAmount > _maxLoaningAmount) {... */\n      iszero\n      tag_485\n      jumpi\n        /* \"TimeAlly.sol\":19941:19946  false */\n      0x00\n        /* \"TimeAlly.sol\":19933:19989  require(false, 'cannot loan more than maxLoaningAmount') */\n      tag_486\n      jumpi\n      mload(0x40)\n      0x08c379a000000000000000000000000000000000000000000000000000000000\n      dup2\n      mstore\n      0x04\n      add\n      dup1\n      dup1\n      0x20\n      add\n      dup3\n      dup2\n      sub\n      dup3\n      mstore\n      0x26\n      dup2\n      mstore\n      0x20\n      add\n      dup1\n      data_39460daa7a45684f9dd0ed61ccf993f0ceb0e72e199b722f68f8fd8b9a275c06\n      0x26\n      swap2\n      codecopy\n      0x40\n      add\n      swap2\n      pop\n      pop\n      mload(0x40)\n      dup1\n      swap2\n      sub\n      swap1\n      revert\n    tag_486:\n        /* \"TimeAlly.sol\":19882:20000  if(_exaEsAmount > _maxLoaningAmount) {... */\n    tag_485:\n        /* \"TimeAlly.sol\":20011:20032  uint256 _loanInterest */\n      0x00\n        /* \"TimeAlly.sol\":20035:20093  _exaEsAmount.mul(loanPlans[_loanPlanId].loanRate).div(100) */\n      tag_487\n        /* \"TimeAlly.sol\":20089:20092  100 */\n      0x64\n        /* \"TimeAlly.sol\":20035:20084  _exaEsAmount.mul(loanPlans[_loanPlanId].loanRate) */\n      tag_488\n        /* \"TimeAlly.sol\":20052:20061  loanPlans */\n      0x07\n        /* \"TimeAlly.sol\":20062:20073  _loanPlanId */\n      dup11\n        /* \"TimeAlly.sol\":20052:20074  loanPlans[_loanPlanId] */\n      dup2\n      sload\n      dup2\n      lt\n      tag_489\n      jumpi\n      invalid\n    tag_489:\n      swap1\n      0x00\n      mstore\n      keccak256(0x00, 0x20)\n      swap1\n      0x02\n      mul\n      add\n        /* \"TimeAlly.sol\":20052:20083  loanPlans[_loanPlanId].loanRate */\n      0x01\n      add\n      sload\n        /* \"TimeAlly.sol\":20035:20047  _exaEsAmount */\n      dup10\n        /* \"TimeAlly.sol\":20035:20051  _exaEsAmount.mul */\n      tag_212\n      swap1\n        /* \"TimeAlly.sol\":20035:20084  _exaEsAmount.mul(loanPlans[_loanPlanId].loanRate) */\n      swap2\n      swap1\n      0xffffffff\n      and\n      jump\t// in\n    tag_488:\n        /* \"TimeAlly.sol\":20035:20088  _exaEsAmount.mul(loanPlans[_loanPlanId].loanRate).div */\n      tag_213\n      swap1\n        /* \"TimeAlly.sol\":20035:20093  _exaEsAmount.mul(loanPlans[_loanPlanId].loanRate).div(100) */\n      swap2\n      swap1\n      0xffffffff\n      and\n      jump\t// in\n    tag_487:\n        /* \"TimeAlly.sol\":20011:20093  uint256 _loanInterest = _exaEsAmount.mul(loanPlans[_loanPlanId].loanRate).div(100) */\n      swap1\n      pop\n        /* \"TimeAlly.sol\":20103:20132  uint256 _loanAmountToTransfer */\n      0x00\n        /* \"TimeAlly.sol\":20135:20166  _exaEsAmount.sub(_loanInterest) */\n      tag_491\n        /* \"TimeAlly.sol\":20152:20165  _loanInterest */\n      dup3\n        /* \"TimeAlly.sol\":20135:20147  _exaEsAmount */\n      dup9\n        /* \"TimeAlly.sol\":20135:20151  _exaEsAmount.sub */\n      tag_159\n      swap1\n        /* \"TimeAlly.sol\":20135:20166  _exaEsAmount.sub(_loanInterest) */\n      swap2\n      swap1\n      0xffffffff\n      and\n      jump\t// in\n    tag_491:\n        /* \"TimeAlly.sol\":20103:20166  uint256 _loanAmountToTransfer = _exaEsAmount.sub(_loanInterest) */\n      swap1\n      pop\n        /* \"TimeAlly.sol\":20186:20191  token */\n      0x01\n      0x00\n      swap1\n      sload\n      swap1\n      0x0100\n      exp\n      swap1\n      div\n      0xffffffffffffffffffffffffffffffffffffffff\n      and\n        /* \"TimeAlly.sol\":20186:20200  token.transfer */\n      0xffffffffffffffffffffffffffffffffffffffff\n      and\n      0xa9059cbb\n        /* \"TimeAlly.sol\":20209:20219  nrtManager */\n      0x02\n      0x00\n      swap1\n      sload\n      swap1\n      0x0100\n      exp\n      swap1\n      div\n      0xffffffffffffffffffffffffffffffffffffffff\n      and\n        /* \"TimeAlly.sol\":20222:20235  _loanInterest */\n      dup5\n        /* \"TimeAlly.sol\":20186:20236  token.transfer(address(nrtManager), _loanInterest) */\n      mload(0x40)\n      dup4\n      0xffffffff\n      and\n      0xe0\n      shl\n      dup2\n      mstore\n      0x04\n      add\n      dup1\n      dup4\n      0xffffffffffffffffffffffffffffffffffffffff\n      and\n      0xffffffffffffffffffffffffffffffffffffffff\n      and\n      dup2\n      mstore\n      0x20\n      add\n      dup3\n      dup2\n      mstore\n      0x20\n      add\n      swap3\n      pop\n      pop\n      pop\n      0x20\n      mload(0x40)\n      dup1\n      dup4\n      sub\n      dup2\n      0x00\n      dup8\n      dup1\n      extcodesize\n      iszero\n        /* \"--CODEGEN--\":8:17   */\n      dup1\n        /* \"--CODEGEN--\":5:7   */\n      iszero\n      tag_492\n      jumpi\n        /* \"--CODEGEN--\":30:31   */\n      0x00\n        /* \"--CODEGEN--\":27:28   */\n      dup1\n        /* \"--CODEGEN--\":20:32   */\n      revert\n        /* \"--CODEGEN--\":5:7   */\n    tag_492:\n        /* \"TimeAlly.sol\":20186:20236  token.transfer(address(nrtManager), _loanInterest) */\n      pop\n      gas\n      call\n      iszero\n        /* \"--CODEGEN--\":8:17   */\n      dup1\n        /* \"--CODEGEN--\":5:7   */\n      iszero\n      tag_493\n      jumpi\n        /* \"--CODEGEN--\":45:61   */\n      returndatasize\n        /* \"--CODEGEN--\":42:43   */\n      0x00\n        /* \"--CODEGEN--\":39:40   */\n      dup1\n        /* \"--CODEGEN--\":24:62   */\n      returndatacopy\n        /* \"--CODEGEN--\":77:93   */\n      returndatasize\n        /* \"--CODEGEN--\":74:75   */\n      0x00\n        /* \"--CODEGEN--\":67:94   */\n      revert\n        /* \"--CODEGEN--\":5:7   */\n    tag_493:\n        /* \"TimeAlly.sol\":20186:20236  token.transfer(address(nrtManager), _loanInterest) */\n      pop\n      pop\n      pop\n      pop\n      mload(0x40)\n      returndatasize\n        /* \"--CODEGEN--\":13:15   */\n      0x20\n        /* \"--CODEGEN--\":8:11   */\n      dup2\n        /* \"--CODEGEN--\":5:16   */\n      lt\n        /* \"--CODEGEN--\":2:4   */\n      iszero\n      tag_494\n      jumpi\n        /* \"--CODEGEN--\":29:30   */\n      0x00\n        /* \"--CODEGEN--\":26:27   */\n      dup1\n        /* \"--CODEGEN--\":19:31   */\n      revert\n        /* \"--CODEGEN--\":2:4   */\n    tag_494:\n        /* \"TimeAlly.sol\":20186:20236  token.transfer(address(nrtManager), _loanInterest) */\n      dup2\n      add\n      swap1\n      dup1\n      dup1\n      mload\n      swap1\n      0x20\n      add\n      swap1\n      swap3\n      swap2\n      swap1\n      pop\n      pop\n      pop\n        /* \"TimeAlly.sol\":20177:20238  require( token.transfer(address(nrtManager), _loanInterest) ) */\n      tag_495\n      jumpi\n      0x00\n      dup1\n      revert\n    tag_495:\n        /* \"TimeAlly.sol\":20257:20267  nrtManager */\n      0x02\n      0x00\n      swap1\n      sload\n      swap1\n      0x0100\n      exp\n      swap1\n      div\n      0xffffffffffffffffffffffffffffffffffffffff\n      and\n        /* \"TimeAlly.sol\":20257:20282  nrtManager.UpdateLuckpool */\n      0xffffffffffffffffffffffffffffffffffffffff\n      and\n      0x382e2aab\n        /* \"TimeAlly.sol\":20283:20296  _loanInterest */\n      dup4\n        /* \"TimeAlly.sol\":20257:20297  nrtManager.UpdateLuckpool(_loanInterest) */\n      mload(0x40)\n      dup3\n      0xffffffff\n      and\n      0xe0\n      shl\n      dup2\n      mstore\n      0x04\n      add\n      dup1\n      dup3\n      dup2\n      mstore\n      0x20\n      add\n      swap2\n      pop\n      pop\n      0x20\n      mload(0x40)\n      dup1\n      dup4\n      sub\n      dup2\n      0x00\n      dup8\n      dup1\n      extcodesize\n      iszero\n        /* \"--CODEGEN--\":8:17   */\n      dup1\n        /* \"--CODEGEN--\":5:7   */\n      iszero\n      tag_496\n      jumpi\n        /* \"--CODEGEN--\":30:31   */\n      0x00\n        /* \"--CODEGEN--\":27:28   */\n      dup1\n        /* \"--CODEGEN--\":20:32   */\n      revert\n        /* \"--CODEGEN--\":5:7   */\n    tag_496:\n        /* \"TimeAlly.sol\":20257:20297  nrtManager.UpdateLuckpool(_loanInterest) */\n      pop\n      gas\n      call\n      iszero\n        /* \"--CODEGEN--\":8:17   */\n      dup1\n        /* \"--CODEGEN--\":5:7   */\n      iszero\n      tag_497\n      jumpi\n        /* \"--CODEGEN--\":45:61   */\n      returndatasize\n        /* \"--CODEGEN--\":42:43   */\n      0x00\n        /* \"--CODEGEN--\":39:40   */\n      dup1\n        /* \"--CODEGEN--\":24:62   */\n      returndatacopy\n        /* \"--CODEGEN--\":77:93   */\n      returndatasize\n        /* \"--CODEGEN--\":74:75   */\n      0x00\n        /* \"--CODEGEN--\":67:94   */\n      revert\n        /* \"--CODEGEN--\":5:7   */\n    tag_497:\n        /* \"TimeAlly.sol\":20257:20297  nrtManager.UpdateLuckpool(_loanInterest) */\n      pop\n      pop\n      pop\n      pop\n      mload(0x40)\n      returndatasize\n        /* \"--CODEGEN--\":13:15   */\n      0x20\n        /* \"--CODEGEN--\":8:11   */\n      dup2\n        /* \"--CODEGEN--\":5:16   */\n      lt\n        /* \"--CODEGEN--\":2:4   */\n      iszero\n      tag_498\n      jumpi\n        /* \"--CODEGEN--\":29:30   */\n      0x00\n        /* \"--CODEGEN--\":26:27   */\n      dup1\n        /* \"--CODEGEN--\":19:31   */\n      revert\n        /* \"--CODEGEN--\":2:4   */\n    tag_498:\n        /* \"TimeAlly.sol\":20257:20297  nrtManager.UpdateLuckpool(_loanInterest) */\n      dup2\n      add\n      swap1\n      dup1\n      dup1\n      mload\n      swap1\n      0x20\n      add\n      swap1\n      swap3\n      swap2\n      swap1\n      pop\n      pop\n      pop\n        /* \"TimeAlly.sol\":20248:20299  require( nrtManager.UpdateLuckpool(_loanInterest) ) */\n      tag_499\n      jumpi\n      0x00\n      dup1\n      revert\n    tag_499:\n        /* \"TimeAlly.sol\":20867:20872  loans */\n      0x09\n        /* \"TimeAlly.sol\":20867:20884  loans[msg.sender] */\n      0x00\n        /* \"TimeAlly.sol\":20873:20883  msg.sender */\n      caller\n        /* \"TimeAlly.sol\":20867:20884  loans[msg.sender] */\n      0xffffffffffffffffffffffffffffffffffffffff\n      and\n      0xffffffffffffffffffffffffffffffffffffffff\n      and\n      dup2\n      mstore\n      0x20\n      add\n      swap1\n      dup2\n      mstore\n      0x20\n      add\n      0x00\n      keccak256\n        /* \"TimeAlly.sol\":20890:21078  Loan({... */\n      mload(0x40)\n      dup1\n      0xa0\n      add\n      0x40\n      mstore\n      dup1\n        /* \"TimeAlly.sol\":20922:20934  _exaEsAmount */\n      dup10\n        /* \"TimeAlly.sol\":20890:21078  Loan({... */\n      dup2\n      mstore\n      0x20\n      add\n        /* \"TimeAlly.sol\":20959:20964  token */\n      0x01\n      0x00\n      swap1\n      sload\n      swap1\n      0x0100\n      exp\n      swap1\n      div\n      0xffffffffffffffffffffffffffffffffffffffff\n      and\n        /* \"TimeAlly.sol\":20959:20968  token.mou */\n      0xffffffffffffffffffffffffffffffffffffffff\n      and\n      0xb81f90f3\n        /* \"TimeAlly.sol\":20959:20970  token.mou() */\n      mload(0x40)\n      dup2\n      0xffffffff\n      and\n      0xe0\n      shl\n      dup2\n      mstore\n      0x04\n      add\n      0x20\n      mload(0x40)\n      dup1\n      dup4\n      sub\n      dup2\n      dup7\n      dup1\n      extcodesize\n      iszero\n        /* \"--CODEGEN--\":8:17   */\n      dup1\n        /* \"--CODEGEN--\":5:7   */\n      iszero\n      tag_500\n      jumpi\n        /* \"--CODEGEN--\":30:31   */\n      0x00\n        /* \"--CODEGEN--\":27:28   */\n      dup1\n        /* \"--CODEGEN--\":20:32   */\n      revert\n        /* \"--CODEGEN--\":5:7   */\n    tag_500:\n        /* \"TimeAlly.sol\":20959:20970  token.mou() */\n      pop\n      gas\n      staticcall\n      iszero\n        /* \"--CODEGEN--\":8:17   */\n      dup1\n        /* \"--CODEGEN--\":5:7   */\n      iszero\n      tag_501\n      jumpi\n        /* \"--CODEGEN--\":45:61   */\n      returndatasize\n        /* \"--CODEGEN--\":42:43   */\n      0x00\n        /* \"--CODEGEN--\":39:40   */\n      dup1\n        /* \"--CODEGEN--\":24:62   */\n      returndatacopy\n        /* \"--CODEGEN--\":77:93   */\n      returndatasize\n        /* \"--CODEGEN--\":74:75   */\n      0x00\n        /* \"--CODEGEN--\":67:94   */\n      revert\n        /* \"--CODEGEN--\":5:7   */\n    tag_501:\n        /* \"TimeAlly.sol\":20959:20970  token.mou() */\n      pop\n      pop\n      pop\n      pop\n      mload(0x40)\n      returndatasize\n        /* \"--CODEGEN--\":13:15   */\n      0x20\n        /* \"--CODEGEN--\":8:11   */\n      dup2\n        /* \"--CODEGEN--\":5:16   */\n      lt\n        /* \"--CODEGEN--\":2:4   */\n      iszero\n      tag_502\n      jumpi\n        /* \"--CODEGEN--\":29:30   */\n      0x00\n        /* \"--CODEGEN--\":26:27   */\n      dup1\n        /* \"--CODEGEN--\":19:31   */\n      revert\n        /* \"--CODEGEN--\":2:4   */\n    tag_502:\n        /* \"TimeAlly.sol\":20959:20970  token.mou() */\n      dup2\n      add\n      swap1\n      dup1\n      dup1\n      mload\n      swap1\n      0x20\n      add\n      swap1\n      swap3\n      swap2\n      swap1\n      pop\n      pop\n      pop\n        /* \"TimeAlly.sol\":20890:21078  Loan({... */\n      dup2\n      mstore\n      0x20\n      add\n        /* \"TimeAlly.sol\":20996:21007  _loanPlanId */\n      dup11\n        /* \"TimeAlly.sol\":20890:21078  Loan({... */\n      dup2\n      mstore\n      0x20\n      add\n        /* \"TimeAlly.sol\":21029:21030  1 */\n      0x01\n        /* \"TimeAlly.sol\":20890:21078  Loan({... */\n      dup2\n      mstore\n      0x20\n      add\n        /* \"TimeAlly.sol\":21056:21067  _stakingIds */\n      dup9\n        /* \"TimeAlly.sol\":20890:21078  Loan({... */\n      dup2\n      mstore\n      pop\n        /* \"TimeAlly.sol\":20867:21079  loans[msg.sender].push(Loan({... */\n      swap1\n      dup1\n        /* \"--CODEGEN--\":39:40   */\n      0x01\n        /* \"--CODEGEN--\":33:36   */\n      dup2\n        /* \"--CODEGEN--\":27:37   */\n      sload\n        /* \"--CODEGEN--\":23:41   */\n      add\n        /* \"--CODEGEN--\":57:67   */\n      dup1\n        /* \"--CODEGEN--\":52:55   */\n      dup3\n        /* \"--CODEGEN--\":45:68   */\n      sstore\n        /* \"--CODEGEN--\":79:89   */\n      dup1\n        /* \"--CODEGEN--\":72:89   */\n      swap2\n      pop\n        /* \"--CODEGEN--\":0:93   */\n      pop\n        /* \"TimeAlly.sol\":20867:21079  loans[msg.sender].push(Loan({... */\n      swap1\n      0x01\n      dup3\n      sub\n      swap1\n      0x00\n      mstore\n      keccak256(0x00, 0x20)\n      swap1\n      0x05\n      mul\n      add\n      0x00\n      swap1\n      swap2\n      swap3\n      swap1\n      swap2\n      swap1\n      swap2\n      pop\n      0x00\n      dup3\n      add\n      mload\n      dup2\n      0x00\n      add\n      sstore\n      0x20\n      dup3\n      add\n      mload\n      dup2\n      0x01\n      add\n      sstore\n      0x40\n      dup3\n      add\n      mload\n      dup2\n      0x02\n      add\n      sstore\n      0x60\n      dup3\n      add\n      mload\n      dup2\n      0x03\n      add\n      sstore\n      0x80\n      dup3\n      add\n      mload\n      dup2\n      0x04\n      add\n      swap1\n      dup1\n      mload\n      swap1\n      0x20\n      add\n      swap1\n      tag_504\n      swap3\n      swap2\n      swap1\n      tag_505\n      jump\t// in\n    tag_504:\n      pop\n      pop\n      pop\n      pop\n        /* \"TimeAlly.sol\":21127:21132  token */\n      0x01\n      0x00\n      swap1\n      sload\n      swap1\n      0x0100\n      exp\n      swap1\n      div\n      0xffffffffffffffffffffffffffffffffffffffff\n      and\n        /* \"TimeAlly.sol\":21127:21141  token.transfer */\n      0xffffffffffffffffffffffffffffffffffffffff\n      and\n      0xa9059cbb\n        /* \"TimeAlly.sol\":21142:21152  msg.sender */\n      caller\n        /* \"TimeAlly.sol\":21154:21175  _loanAmountToTransfer */\n      dup4\n        /* \"TimeAlly.sol\":21127:21176  token.transfer(msg.sender, _loanAmountToTransfer) */\n      mload(0x40)\n      dup4\n      0xffffffff\n      and\n      0xe0\n      shl\n      dup2\n      mstore\n      0x04\n      add\n      dup1\n      dup4\n      0xffffffffffffffffffffffffffffffffffffffff\n      and\n      0xffffffffffffffffffffffffffffffffffffffff\n      and\n      dup2\n      mstore\n      0x20\n      add\n      dup3\n      dup2\n      mstore\n      0x20\n      add\n      swap3\n      pop\n      pop\n      pop\n      0x20\n      mload(0x40)\n      dup1\n      dup4\n      sub\n      dup2\n      0x00\n      dup8\n      dup1\n      extcodesize\n      iszero\n        /* \"--CODEGEN--\":8:17   */\n      dup1\n        /* \"--CODEGEN--\":5:7   */\n      iszero\n      tag_506\n      jumpi\n        /* \"--CODEGEN--\":30:31   */\n      0x00\n        /* \"--CODEGEN--\":27:28   */\n      dup1\n        /* \"--CODEGEN--\":20:32   */\n      revert\n        /* \"--CODEGEN--\":5:7   */\n    tag_506:\n        /* \"TimeAlly.sol\":21127:21176  token.transfer(msg.sender, _loanAmountToTransfer) */\n      pop\n      gas\n      call\n      iszero\n        /* \"--CODEGEN--\":8:17   */\n      dup1\n        /* \"--CODEGEN--\":5:7   */\n      iszero\n      tag_507\n      jumpi\n        /* \"--CODEGEN--\":45:61   */\n      returndatasize\n        /* \"--CODEGEN--\":42:43   */\n      0x00\n        /* \"--CODEGEN--\":39:40   */\n      dup1\n        /* \"--CODEGEN--\":24:62   */\n      returndatacopy\n        /* \"--CODEGEN--\":77:93   */\n      returndatasize\n        /* \"--CODEGEN--\":74:75   */\n      0x00\n        /* \"--CODEGEN--\":67:94   */\n      revert\n        /* \"--CODEGEN--\":5:7   */\n    tag_507:\n        /* \"TimeAlly.sol\":21127:21176  token.transfer(msg.sender, _loanAmountToTransfer) */\n      pop\n      pop\n      pop\n      pop\n      mload(0x40)\n      returndatasize\n        /* \"--CODEGEN--\":13:15   */\n      0x20\n        /* \"--CODEGEN--\":8:11   */\n      dup2\n        /* \"--CODEGEN--\":5:16   */\n      lt\n        /* \"--CODEGEN--\":2:4   */\n      iszero\n      tag_508\n      jumpi\n        /* \"--CODEGEN--\":29:30   */\n      0x00\n        /* \"--CODEGEN--\":26:27   */\n      dup1\n        /* \"--CODEGEN--\":19:31   */\n      revert\n        /* \"--CODEGEN--\":2:4   */\n    tag_508:\n        /* \"TimeAlly.sol\":21127:21176  token.transfer(msg.sender, _loanAmountToTransfer) */\n      dup2\n      add\n      swap1\n      dup1\n      dup1\n      mload\n      swap1\n      0x20\n      add\n      swap1\n      swap3\n      swap2\n      swap1\n      pop\n      pop\n      pop\n        /* \"TimeAlly.sol\":21118:21178  require( token.transfer(msg.sender, _loanAmountToTransfer) ) */\n      tag_509\n      jumpi\n      0x00\n      dup1\n      revert\n    tag_509:\n        /* \"TimeAlly.sol\":21214:21225  _loanPlanId */\n      dup8\n        /* \"TimeAlly.sol\":21202:21212  msg.sender */\n      caller\n        /* \"TimeAlly.sol\":21194:21285  NewLoan(msg.sender, _loanPlanId, _exaEsAmount, _loanInterest, loans[msg.sender].length - 1) */\n      0xffffffffffffffffffffffffffffffffffffffff\n      and\n      0x583f4a449110798c282200ea42774808b8147fa4bcb89a6ca406dd0650e034e7\n        /* \"TimeAlly.sol\":21227:21239  _exaEsAmount */\n      dup10\n        /* \"TimeAlly.sol\":21241:21254  _loanInterest */\n      dup6\n        /* \"TimeAlly.sol\":21283:21284  1 */\n      0x01\n        /* \"TimeAlly.sol\":21256:21261  loans */\n      0x09\n        /* \"TimeAlly.sol\":21256:21273  loans[msg.sender] */\n      0x00\n        /* \"TimeAlly.sol\":21262:21272  msg.sender */\n      caller\n        /* \"TimeAlly.sol\":21256:21273  loans[msg.sender] */\n      0xffffffffffffffffffffffffffffffffffffffff\n      and\n      0xffffffffffffffffffffffffffffffffffffffff\n      and\n      dup2\n      mstore\n      0x20\n      add\n      swap1\n      dup2\n      mstore\n      0x20\n      add\n      0x00\n      keccak256\n        /* \"TimeAlly.sol\":21256:21280  loans[msg.sender].length */\n      dup1\n      sload\n      swap1\n      pop\n        /* \"TimeAlly.sol\":21256:21284  loans[msg.sender].length - 1 */\n      sub\n        /* \"TimeAlly.sol\":21194:21285  NewLoan(msg.sender, _loanPlanId, _exaEsAmount, _loanInterest, loans[msg.sender].length - 1) */\n      mload(0x40)\n      dup1\n      dup5\n      dup2\n      mstore\n      0x20\n      add\n      dup4\n      dup2\n      mstore\n      0x20\n      add\n      dup3\n      dup2\n      mstore\n      0x20\n      add\n      swap4\n      pop\n      pop\n      pop\n      pop\n      mload(0x40)\n      dup1\n      swap2\n      sub\n      swap1\n      log3\n        /* \"TimeAlly.sol\":17965:21292  function takeLoanOnSelfStaking(uint256 _loanPlanId, uint256 _exaEsAmount, uint256[] memory _stakingIds) public {... */\n      pop\n      pop\n      pop\n      pop\n      pop\n      pop\n      pop\n      pop\n      jump\t// out\n        /* \"TimeAlly.sol\":6652:7818  function claimLaunchReward(uint256 _stakingPlanId) public {... */\n    tag_128:\n        /* \"TimeAlly.sol\":6755:6756  0 */\n      0x00\n        /* \"TimeAlly.sol\":6728:6740  launchReward */\n      0x0b\n        /* \"TimeAlly.sol\":6728:6752  launchReward[msg.sender] */\n      0x00\n        /* \"TimeAlly.sol\":6741:6751  msg.sender */\n      caller\n        /* \"TimeAlly.sol\":6728:6752  launchReward[msg.sender] */\n      0xffffffffffffffffffffffffffffffffffffffff\n      and\n      0xffffffffffffffffffffffffffffffffffffffff\n      and\n      dup2\n      mstore\n      0x20\n      add\n      swap1\n      dup2\n      mstore\n      0x20\n      add\n      0x00\n      keccak256\n      sload\n        /* \"TimeAlly.sol\":6728:6756  launchReward[msg.sender] > 0 */\n      gt\n        /* \"TimeAlly.sol\":6720:6757  require(launchReward[msg.sender] > 0) */\n      tag_511\n      jumpi\n      0x00\n      dup1\n      revert\n    tag_511:\n        /* \"TimeAlly.sol\":6767:6781  uint256 reward */\n      0x00\n        /* \"TimeAlly.sol\":6784:6796  launchReward */\n      0x0b\n        /* \"TimeAlly.sol\":6784:6808  launchReward[msg.sender] */\n      0x00\n        /* \"TimeAlly.sol\":6797:6807  msg.sender */\n      caller\n        /* \"TimeAlly.sol\":6784:6808  launchReward[msg.sender] */\n      0xffffffffffffffffffffffffffffffffffffffff\n      and\n      0xffffffffffffffffffffffffffffffffffffffff\n      and\n      dup2\n      mstore\n      0x20\n      add\n      swap1\n      dup2\n      mstore\n      0x20\n      add\n      0x00\n      keccak256\n      sload\n        /* \"TimeAlly.sol\":6767:6808  uint256 reward = launchReward[msg.sender] */\n      swap1\n      pop\n        /* \"TimeAlly.sol\":6845:6846  0 */\n      0x00\n        /* \"TimeAlly.sol\":6818:6830  launchReward */\n      0x0b\n        /* \"TimeAlly.sol\":6818:6842  launchReward[msg.sender] */\n      0x00\n        /* \"TimeAlly.sol\":6831:6841  msg.sender */\n      caller\n        /* \"TimeAlly.sol\":6818:6842  launchReward[msg.sender] */\n      0xffffffffffffffffffffffffffffffffffffffff\n      and\n      0xffffffffffffffffffffffffffffffffffffffff\n      and\n      dup2\n      mstore\n      0x20\n      add\n      swap1\n      dup2\n      mstore\n      0x20\n      add\n      0x00\n      keccak256\n        /* \"TimeAlly.sol\":6818:6846  launchReward[msg.sender] = 0 */\n      dup2\n      swap1\n      sstore\n      pop\n        /* \"TimeAlly.sol\":6887:6908  uint256 stakeEndMonth */\n      0x00\n        /* \"TimeAlly.sol\":6935:6947  stakingPlans */\n      0x06\n        /* \"TimeAlly.sol\":6948:6962  _stakingPlanId */\n      dup4\n        /* \"TimeAlly.sol\":6935:6963  stakingPlans[_stakingPlanId] */\n      dup2\n      sload\n      dup2\n      lt\n      tag_512\n      jumpi\n      invalid\n    tag_512:\n      swap1\n      0x00\n      mstore\n      keccak256(0x00, 0x20)\n      swap1\n      0x02\n      mul\n      add\n        /* \"TimeAlly.sol\":6935:6970  stakingPlans[_stakingPlanId].months */\n      0x00\n      add\n      sload\n        /* \"TimeAlly.sol\":6931:6932  1 */\n      0x01\n        /* \"TimeAlly.sol\":6911:6928  getCurrentMonth() */\n      tag_514\n        /* \"TimeAlly.sol\":6911:6926  getCurrentMonth */\n      tag_130\n        /* \"TimeAlly.sol\":6911:6928  getCurrentMonth() */\n      jump\t// in\n    tag_514:\n        /* \"TimeAlly.sol\":6911:6932  getCurrentMonth() + 1 */\n      add\n        /* \"TimeAlly.sol\":6911:6970  getCurrentMonth() + 1 + stakingPlans[_stakingPlanId].months */\n      add\n        /* \"TimeAlly.sol\":6887:6970  uint256 stakeEndMonth = getCurrentMonth() + 1 + stakingPlans[_stakingPlanId].months */\n      swap1\n      pop\n        /* \"TimeAlly.sol\":7101:7114  uint256 month */\n      0x00\n        /* \"TimeAlly.sol\":7137:7138  1 */\n      0x01\n        /* \"TimeAlly.sol\":7117:7134  getCurrentMonth() */\n      tag_518\n        /* \"TimeAlly.sol\":7117:7132  getCurrentMonth */\n      tag_130\n        /* \"TimeAlly.sol\":7117:7134  getCurrentMonth() */\n      jump\t// in\n    tag_518:\n        /* \"TimeAlly.sol\":7117:7138  getCurrentMonth() + 1 */\n      add\n        /* \"TimeAlly.sol\":7101:7138  uint256 month = getCurrentMonth() + 1 */\n      swap1\n      pop\n        /* \"TimeAlly.sol\":7086:7290  for(... */\n    tag_515:\n        /* \"TimeAlly.sol\":7158:7171  stakeEndMonth */\n      dup2\n        /* \"TimeAlly.sol\":7150:7155  month */\n      dup2\n        /* \"TimeAlly.sol\":7150:7171  month < stakeEndMonth */\n      lt\n        /* \"TimeAlly.sol\":7086:7290  for(... */\n      iszero\n      tag_516\n      jumpi\n        /* \"TimeAlly.sol\":7273:7279  reward */\n      dup3\n        /* \"TimeAlly.sol\":7244:7263  totalActiveStakings */\n      0x0a\n        /* \"TimeAlly.sol\":7244:7270  totalActiveStakings[month] */\n      0x00\n        /* \"TimeAlly.sol\":7264:7269  month */\n      dup4\n        /* \"TimeAlly.sol\":7244:7270  totalActiveStakings[month] */\n      dup2\n      mstore\n      0x20\n      add\n      swap1\n      dup2\n      mstore\n      0x20\n      add\n      0x00\n      keccak256\n      sload\n        /* \"TimeAlly.sol\":7244:7279  totalActiveStakings[month] + reward */\n      add\n        /* \"TimeAlly.sol\":7215:7234  totalActiveStakings */\n      0x0a\n        /* \"TimeAlly.sol\":7215:7241  totalActiveStakings[month] */\n      0x00\n        /* \"TimeAlly.sol\":7235:7240  month */\n      dup4\n        /* \"TimeAlly.sol\":7215:7241  totalActiveStakings[month] */\n      dup2\n      mstore\n      0x20\n      add\n      swap1\n      dup2\n      mstore\n      0x20\n      add\n      0x00\n      keccak256\n        /* \"TimeAlly.sol\":7215:7279  totalActiveStakings[month] = totalActiveStakings[month] + reward */\n      dup2\n      swap1\n      sstore\n      pop\n        /* \"TimeAlly.sol\":7183:7190  month++ */\n      dup1\n      dup1\n      0x01\n      add\n      swap2\n      pop\n      pop\n        /* \"TimeAlly.sol\":7086:7290  for(... */\n      jump(tag_515)\n    tag_516:\n      pop\n        /* \"TimeAlly.sol\":7300:7335  Staking[] storage userStakingsArray */\n      0x00\n        /* \"TimeAlly.sol\":7338:7346  stakings */\n      0x08\n        /* \"TimeAlly.sol\":7338:7358  stakings[msg.sender] */\n      0x00\n        /* \"TimeAlly.sol\":7347:7357  msg.sender */\n      caller\n        /* \"TimeAlly.sol\":7338:7358  stakings[msg.sender] */\n      0xffffffffffffffffffffffffffffffffffffffff\n      and\n      0xffffffffffffffffffffffffffffffffffffffff\n      and\n      dup2\n      mstore\n      0x20\n      add\n      swap1\n      dup2\n      mstore\n      0x20\n      add\n      0x00\n      keccak256\n        /* \"TimeAlly.sol\":7300:7358  Staking[] storage userStakingsArray = stakings[msg.sender] */\n      swap1\n      pop\n        /* \"TimeAlly.sol\":7368:7385  userStakingsArray */\n      dup1\n        /* \"TimeAlly.sol\":7391:7718  Staking({... */\n      mload(0x40)\n      dup1\n      0x0120\n      add\n      0x40\n      mstore\n      dup1\n        /* \"TimeAlly.sol\":7426:7432  reward */\n      dup6\n        /* \"TimeAlly.sol\":7391:7718  Staking({... */\n      dup2\n      mstore\n      0x20\n      add\n        /* \"TimeAlly.sol\":7457:7462  token */\n      0x01\n      0x00\n      swap1\n      sload\n      swap1\n      0x0100\n      exp\n      swap1\n      div\n      0xffffffffffffffffffffffffffffffffffffffff\n      and\n        /* \"TimeAlly.sol\":7457:7466  token.mou */\n      0xffffffffffffffffffffffffffffffffffffffff\n      and\n      0xb81f90f3\n        /* \"TimeAlly.sol\":7457:7468  token.mou() */\n      mload(0x40)\n      dup2\n      0xffffffff\n      and\n      0xe0\n      shl\n      dup2\n      mstore\n      0x04\n      add\n      0x20\n      mload(0x40)\n      dup1\n      dup4\n      sub\n      dup2\n      dup7\n      dup1\n      extcodesize\n      iszero\n        /* \"--CODEGEN--\":8:17   */\n      dup1\n        /* \"--CODEGEN--\":5:7   */\n      iszero\n      tag_519\n      jumpi\n        /* \"--CODEGEN--\":30:31   */\n      0x00\n        /* \"--CODEGEN--\":27:28   */\n      dup1\n        /* \"--CODEGEN--\":20:32   */\n      revert\n        /* \"--CODEGEN--\":5:7   */\n    tag_519:\n        /* \"TimeAlly.sol\":7457:7468  token.mou() */\n      pop\n      gas\n      staticcall\n      iszero\n        /* \"--CODEGEN--\":8:17   */\n      dup1\n        /* \"--CODEGEN--\":5:7   */\n      iszero\n      tag_520\n      jumpi\n        /* \"--CODEGEN--\":45:61   */\n      returndatasize\n        /* \"--CODEGEN--\":42:43   */\n      0x00\n        /* \"--CODEGEN--\":39:40   */\n      dup1\n        /* \"--CODEGEN--\":24:62   */\n      returndatacopy\n        /* \"--CODEGEN--\":77:93   */\n      returndatasize\n        /* \"--CODEGEN--\":74:75   */\n      0x00\n        /* \"--CODEGEN--\":67:94   */\n      revert\n        /* \"--CODEGEN--\":5:7   */\n    tag_520:\n        /* \"TimeAlly.sol\":7457:7468  token.mou() */\n      pop\n      pop\n      pop\n      pop\n      mload(0x40)\n      returndatasize\n        /* \"--CODEGEN--\":13:15   */\n      0x20\n        /* \"--CODEGEN--\":8:11   */\n      dup2\n        /* \"--CODEGEN--\":5:16   */\n      lt\n        /* \"--CODEGEN--\":2:4   */\n      iszero\n      tag_521\n      jumpi\n        /* \"--CODEGEN--\":29:30   */\n      0x00\n        /* \"--CODEGEN--\":26:27   */\n      dup1\n        /* \"--CODEGEN--\":19:31   */\n      revert\n        /* \"--CODEGEN--\":2:4   */\n    tag_521:\n        /* \"TimeAlly.sol\":7457:7468  token.mou() */\n      dup2\n      add\n      swap1\n      dup1\n      dup1\n      mload\n      swap1\n      0x20\n      add\n      swap1\n      swap3\n      swap2\n      swap1\n      pop\n      pop\n      pop\n        /* \"TimeAlly.sol\":7391:7718  Staking({... */\n      dup2\n      mstore\n      0x20\n      add\n        /* \"TimeAlly.sol\":7497:7511  _stakingPlanId */\n      dup7\n        /* \"TimeAlly.sol\":7391:7718  Staking({... */\n      dup2\n      mstore\n      0x20\n      add\n        /* \"TimeAlly.sol\":7533:7534  1 */\n      0x01\n        /* \"TimeAlly.sol\":7391:7718  Staking({... */\n      dup2\n      mstore\n      0x20\n      add\n        /* \"TimeAlly.sol\":7568:7569  0 */\n      0x00\n        /* \"TimeAlly.sol\":7391:7718  Staking({... */\n      dup2\n      mstore\n      0x20\n      add\n        /* \"TimeAlly.sol\":7591:7592  0 */\n      0x00\n        /* \"TimeAlly.sol\":7391:7718  Staking({... */\n      dup2\n      mstore\n      0x20\n      add\n        /* \"TimeAlly.sol\":7630:7631  0 */\n      0x00\n        /* \"TimeAlly.sol\":7391:7718  Staking({... */\n      dup2\n      mstore\n      0x20\n      add\n        /* \"TimeAlly.sol\":7668:7669  0 */\n      0x00\n        /* \"TimeAlly.sol\":7391:7718  Staking({... */\n      dup2\n      mstore\n      0x20\n      add\n        /* \"TimeAlly.sol\":7706:7707  0 */\n      0x00\n        /* \"TimeAlly.sol\":7391:7718  Staking({... */\n      dup2\n      mstore\n      pop\n        /* \"TimeAlly.sol\":7368:7719  userStakingsArray.push(Staking({... */\n      swap1\n      dup1\n        /* \"--CODEGEN--\":39:40   */\n      0x01\n        /* \"--CODEGEN--\":33:36   */\n      dup2\n        /* \"--CODEGEN--\":27:37   */\n      sload\n        /* \"--CODEGEN--\":23:41   */\n      add\n        /* \"--CODEGEN--\":57:67   */\n      dup1\n        /* \"--CODEGEN--\":52:55   */\n      dup3\n        /* \"--CODEGEN--\":45:68   */\n      sstore\n        /* \"--CODEGEN--\":79:89   */\n      dup1\n        /* \"--CODEGEN--\":72:89   */\n      swap2\n      pop\n        /* \"--CODEGEN--\":0:93   */\n      pop\n        /* \"TimeAlly.sol\":7368:7719  userStakingsArray.push(Staking({... */\n      swap1\n      0x01\n      dup3\n      sub\n      swap1\n      0x00\n      mstore\n      keccak256(0x00, 0x20)\n      swap1\n      0x0b\n      mul\n      add\n      0x00\n      swap1\n      swap2\n      swap3\n      swap1\n      swap2\n      swap1\n      swap2\n      pop\n      0x00\n      dup3\n      add\n      mload\n      dup2\n      0x00\n      add\n      sstore\n      0x20\n      dup3\n      add\n      mload\n      dup2\n      0x01\n      add\n      sstore\n      0x40\n      dup3\n      add\n      mload\n      dup2\n      0x02\n      add\n      sstore\n      0x60\n      dup3\n      add\n      mload\n      dup2\n      0x03\n      add\n      sstore\n      0x80\n      dup3\n      add\n      mload\n      dup2\n      0x04\n      add\n      sstore\n      0xa0\n      dup3\n      add\n      mload\n      dup2\n      0x05\n      add\n      sstore\n      0xc0\n      dup3\n      add\n      mload\n      dup2\n      0x07\n      add\n      sstore\n      0xe0\n      dup3\n      add\n      mload\n      dup2\n      0x08\n      add\n      sstore\n      0x0100\n      dup3\n      add\n      mload\n      dup2\n      0x09\n      add\n      sstore\n      pop\n      pop\n      pop\n        /* \"TimeAlly.sol\":7758:7772  _stakingPlanId */\n      dup4\n        /* \"TimeAlly.sol\":7746:7756  msg.sender */\n      caller\n        /* \"TimeAlly.sol\":7735:7811  NewStaking(msg.sender, _stakingPlanId, reward, userStakingsArray.length - 1) */\n      0xffffffffffffffffffffffffffffffffffffffff\n      and\n      0x680a0e2e97ad7c29da7985e37b699f19857c055166f801e50d90661eae30fcc3\n        /* \"TimeAlly.sol\":7774:7780  reward */\n      dup6\n        /* \"TimeAlly.sol\":7809:7810  1 */\n      0x01\n        /* \"TimeAlly.sol\":7782:7799  userStakingsArray */\n      dup6\n        /* \"TimeAlly.sol\":7782:7806  userStakingsArray.length */\n      dup1\n      sload\n      swap1\n      pop\n        /* \"TimeAlly.sol\":7782:7810  userStakingsArray.length - 1 */\n      sub\n        /* \"TimeAlly.sol\":7735:7811  NewStaking(msg.sender, _stakingPlanId, reward, userStakingsArray.length - 1) */\n      mload(0x40)\n      dup1\n      dup4\n      dup2\n      mstore\n      0x20\n      add\n      dup3\n      dup2\n      mstore\n      0x20\n      add\n      swap3\n      pop\n      pop\n      pop\n      mload(0x40)\n      dup1\n      swap2\n      sub\n      swap1\n      log3\n        /* \"TimeAlly.sol\":6652:7818  function claimLaunchReward(uint256 _stakingPlanId) public {... */\n      pop\n      pop\n      pop\n      pop\n      jump\t// out\n        /* \"TimeAlly.sol\":3503:3613  function getCurrentMonth() public view returns (uint256) {... */\n    tag_130:\n        /* \"TimeAlly.sol\":3551:3558  uint256 */\n      0x00\n        /* \"TimeAlly.sol\":3605:3606  1 */\n      0x01\n        /* \"TimeAlly.sol\":3577:3595  timeAllyMonthlyNRT */\n      0x05\n        /* \"TimeAlly.sol\":3577:3602  timeAllyMonthlyNRT.length */\n      dup1\n      sload\n      swap1\n      pop\n        /* \"TimeAlly.sol\":3577:3606  timeAllyMonthlyNRT.length - 1 */\n      sub\n        /* \"TimeAlly.sol\":3570:3606  return timeAllyMonthlyNRT.length - 1 */\n      swap1\n      pop\n        /* \"TimeAlly.sol\":3503:3613  function getCurrentMonth() public view returns (uint256) {... */\n      swap1\n      jump\t// out\n        /* \"TimeAlly.sol\":21330:22634  function repayLoanSelf(uint256 _loanId) public {... */\n    tag_133:\n        /* \"TimeAlly.sol\":21432:21433  1 */\n      0x01\n        /* \"TimeAlly.sol\":21395:21400  loans */\n      0x09\n        /* \"TimeAlly.sol\":21395:21412  loans[msg.sender] */\n      0x00\n        /* \"TimeAlly.sol\":21401:21411  msg.sender */\n      caller\n        /* \"TimeAlly.sol\":21395:21412  loans[msg.sender] */\n      0xffffffffffffffffffffffffffffffffffffffff\n      and\n      0xffffffffffffffffffffffffffffffffffffffff\n      and\n      dup2\n      mstore\n      0x20\n      add\n      swap1\n      dup2\n      mstore\n      0x20\n      add\n      0x00\n      keccak256\n        /* \"TimeAlly.sol\":21413:21420  _loanId */\n      dup3\n        /* \"TimeAlly.sol\":21395:21421  loans[msg.sender][_loanId] */\n      dup2\n      sload\n      dup2\n      lt\n      tag_525\n      jumpi\n      invalid\n    tag_525:\n      swap1\n      0x00\n      mstore\n      keccak256(0x00, 0x20)\n      swap1\n      0x05\n      mul\n      add\n        /* \"TimeAlly.sol\":21395:21428  loans[msg.sender][_loanId].status */\n      0x03\n      add\n      sload\n        /* \"TimeAlly.sol\":21395:21433  loans[msg.sender][_loanId].status == 1 */\n      eq\n        /* \"TimeAlly.sol\":21387:21466  require(loans[msg.sender][_loanId].status == 1, 'can only repay pending loans') */\n      tag_527\n      jumpi\n      mload(0x40)\n      0x08c379a000000000000000000000000000000000000000000000000000000000\n      dup2\n      mstore\n      0x04\n      add\n      dup1\n      dup1\n      0x20\n      add\n      dup3\n      dup2\n      sub\n      dup3\n      mstore\n      0x1c\n      dup2\n      mstore\n      0x20\n      add\n      dup1\n      0x63616e206f6e6c792072657061792070656e64696e67206c6f616e7300000000\n      dup2\n      mstore\n      pop\n      0x20\n      add\n      swap2\n      pop\n      pop\n      mload(0x40)\n      dup1\n      swap2\n      sub\n      swap1\n      revert\n    tag_527:\n        /* \"TimeAlly.sol\":21485:21490  token */\n      0x01\n      0x00\n      swap1\n      sload\n      swap1\n      0x0100\n      exp\n      swap1\n      div\n      0xffffffffffffffffffffffffffffffffffffffff\n      and\n        /* \"TimeAlly.sol\":21485:21503  token.transferFrom */\n      0xffffffffffffffffffffffffffffffffffffffff\n      and\n      0x23b872dd\n        /* \"TimeAlly.sol\":21504:21514  msg.sender */\n      caller\n        /* \"TimeAlly.sol\":21524:21528  this */\n      address\n        /* \"TimeAlly.sol\":21531:21536  loans */\n      0x09\n        /* \"TimeAlly.sol\":21531:21548  loans[msg.sender] */\n      0x00\n        /* \"TimeAlly.sol\":21537:21547  msg.sender */\n      caller\n        /* \"TimeAlly.sol\":21531:21548  loans[msg.sender] */\n      0xffffffffffffffffffffffffffffffffffffffff\n      and\n      0xffffffffffffffffffffffffffffffffffffffff\n      and\n      dup2\n      mstore\n      0x20\n      add\n      swap1\n      dup2\n      mstore\n      0x20\n      add\n      0x00\n      keccak256\n        /* \"TimeAlly.sol\":21549:21556  _loanId */\n      dup6\n        /* \"TimeAlly.sol\":21531:21557  loans[msg.sender][_loanId] */\n      dup2\n      sload\n      dup2\n      lt\n      tag_528\n      jumpi\n      invalid\n    tag_528:\n      swap1\n      0x00\n      mstore\n      keccak256(0x00, 0x20)\n      swap1\n      0x05\n      mul\n      add\n        /* \"TimeAlly.sol\":21531:21569  loans[msg.sender][_loanId].exaEsAmount */\n      0x00\n      add\n      sload\n        /* \"TimeAlly.sol\":21485:21570  token.transferFrom(msg.sender, address(this), loans[msg.sender][_loanId].exaEsAmount) */\n      mload(0x40)\n      dup5\n      0xffffffff\n      and\n      0xe0\n      shl\n      dup2\n      mstore\n      0x04\n      add\n      dup1\n      dup5\n      0xffffffffffffffffffffffffffffffffffffffff\n      and\n      0xffffffffffffffffffffffffffffffffffffffff\n      and\n      dup2\n      mstore\n      0x20\n      add\n      dup4\n      0xffffffffffffffffffffffffffffffffffffffff\n      and\n      0xffffffffffffffffffffffffffffffffffffffff\n      and\n      dup2\n      mstore\n      0x20\n      add\n      dup3\n      dup2\n      mstore\n      0x20\n      add\n      swap4\n      pop\n      pop\n      pop\n      pop\n      0x20\n      mload(0x40)\n      dup1\n      dup4\n      sub\n      dup2\n      0x00\n      dup8\n      dup1\n      extcodesize\n      iszero\n        /* \"--CODEGEN--\":8:17   */\n      dup1\n        /* \"--CODEGEN--\":5:7   */\n      iszero\n      tag_530\n      jumpi\n        /* \"--CODEGEN--\":30:31   */\n      0x00\n        /* \"--CODEGEN--\":27:28   */\n      dup1\n        /* \"--CODEGEN--\":20:32   */\n      revert\n        /* \"--CODEGEN--\":5:7   */\n    tag_530:\n        /* \"TimeAlly.sol\":21485:21570  token.transferFrom(msg.sender, address(this), loans[msg.sender][_loanId].exaEsAmount) */\n      pop\n      gas\n      call\n      iszero\n        /* \"--CODEGEN--\":8:17   */\n      dup1\n        /* \"--CODEGEN--\":5:7   */\n      iszero\n      tag_531\n      jumpi\n        /* \"--CODEGEN--\":45:61   */\n      returndatasize\n        /* \"--CODEGEN--\":42:43   */\n      0x00\n        /* \"--CODEGEN--\":39:40   */\n      dup1\n        /* \"--CODEGEN--\":24:62   */\n      returndatacopy\n        /* \"--CODEGEN--\":77:93   */\n      returndatasize\n        /* \"--CODEGEN--\":74:75   */\n      0x00\n        /* \"--CODEGEN--\":67:94   */\n      revert\n        /* \"--CODEGEN--\":5:7   */\n    tag_531:\n        /* \"TimeAlly.sol\":21485:21570  token.transferFrom(msg.sender, address(this), loans[msg.sender][_loanId].exaEsAmount) */\n      pop\n      pop\n      pop\n      pop\n      mload(0x40)\n      returndatasize\n        /* \"--CODEGEN--\":13:15   */\n      0x20\n        /* \"--CODEGEN--\":8:11   */\n      dup2\n        /* \"--CODEGEN--\":5:16   */\n      lt\n        /* \"--CODEGEN--\":2:4   */\n      iszero\n      tag_532\n      jumpi\n        /* \"--CODEGEN--\":29:30   */\n      0x00\n        /* \"--CODEGEN--\":26:27   */\n      dup1\n        /* \"--CODEGEN--\":19:31   */\n      revert\n        /* \"--CODEGEN--\":2:4   */\n    tag_532:\n        /* \"TimeAlly.sol\":21485:21570  token.transferFrom(msg.sender, address(this), loans[msg.sender][_loanId].exaEsAmount) */\n      dup2\n      add\n      swap1\n      dup1\n      dup1\n      mload\n      swap1\n      0x20\n      add\n      swap1\n      swap3\n      swap2\n      swap1\n      pop\n      pop\n      pop\n        /* \"TimeAlly.sol\":21477:21639  require(token.transferFrom(msg.sender, address(this), loans[msg.sender][_loanId].exaEsAmount), 'cannot receive enough tokens, please check if allowance is there') */\n      tag_533\n      jumpi\n      mload(0x40)\n      0x08c379a000000000000000000000000000000000000000000000000000000000\n      dup2\n      mstore\n      0x04\n      add\n      dup1\n      dup1\n      0x20\n      add\n      dup3\n      dup2\n      sub\n      dup3\n      mstore\n      0x40\n      dup2\n      mstore\n      0x20\n      add\n      dup1\n      data_9dc458dbb6ce1791a3f9802dbdb820884214d2513b45f4efec23e9f5109e79ae\n      0x40\n      swap2\n      codecopy\n      0x40\n      add\n      swap2\n      pop\n      pop\n      mload(0x40)\n      dup1\n      swap2\n      sub\n      swap1\n      revert\n    tag_533:\n        /* \"TimeAlly.sol\":21686:21687  2 */\n      0x02\n        /* \"TimeAlly.sol\":21650:21655  loans */\n      0x09\n        /* \"TimeAlly.sol\":21650:21667  loans[msg.sender] */\n      0x00\n        /* \"TimeAlly.sol\":21656:21666  msg.sender */\n      caller\n        /* \"TimeAlly.sol\":21650:21667  loans[msg.sender] */\n      0xffffffffffffffffffffffffffffffffffffffff\n      and\n      0xffffffffffffffffffffffffffffffffffffffff\n      and\n      dup2\n      mstore\n      0x20\n      add\n      swap1\n      dup2\n      mstore\n      0x20\n      add\n      0x00\n      keccak256\n        /* \"TimeAlly.sol\":21668:21675  _loanId */\n      dup3\n        /* \"TimeAlly.sol\":21650:21676  loans[msg.sender][_loanId] */\n      dup2\n      sload\n      dup2\n      lt\n      tag_534\n      jumpi\n      invalid\n    tag_534:\n      swap1\n      0x00\n      mstore\n      keccak256(0x00, 0x20)\n      swap1\n      0x05\n      mul\n      add\n        /* \"TimeAlly.sol\":21650:21683  loans[msg.sender][_loanId].status */\n      0x03\n      add\n        /* \"TimeAlly.sol\":21650:21687  loans[msg.sender][_loanId].status = 2 */\n      dup2\n      swap1\n      sstore\n      pop\n        /* \"TimeAlly.sol\":21869:21878  uint256 i */\n      0x00\n        /* \"TimeAlly.sol\":21881:21882  0 */\n      dup1\n        /* \"TimeAlly.sol\":21869:21882  uint256 i = 0 */\n      swap1\n      pop\n        /* \"TimeAlly.sol\":21865:22627  for(uint256 i = 0; i < loans[msg.sender][_loanId].stakingIds.length; i++) {... */\n    tag_536:\n        /* \"TimeAlly.sol\":21888:21893  loans */\n      0x09\n        /* \"TimeAlly.sol\":21888:21905  loans[msg.sender] */\n      0x00\n        /* \"TimeAlly.sol\":21894:21904  msg.sender */\n      caller\n        /* \"TimeAlly.sol\":21888:21905  loans[msg.sender] */\n      0xffffffffffffffffffffffffffffffffffffffff\n      and\n      0xffffffffffffffffffffffffffffffffffffffff\n      and\n      dup2\n      mstore\n      0x20\n      add\n      swap1\n      dup2\n      mstore\n      0x20\n      add\n      0x00\n      keccak256\n        /* \"TimeAlly.sol\":21906:21913  _loanId */\n      dup3\n        /* \"TimeAlly.sol\":21888:21914  loans[msg.sender][_loanId] */\n      dup2\n      sload\n      dup2\n      lt\n      tag_539\n      jumpi\n      invalid\n    tag_539:\n      swap1\n      0x00\n      mstore\n      keccak256(0x00, 0x20)\n      swap1\n      0x05\n      mul\n      add\n        /* \"TimeAlly.sol\":21888:21925  loans[msg.sender][_loanId].stakingIds */\n      0x04\n      add\n        /* \"TimeAlly.sol\":21888:21932  loans[msg.sender][_loanId].stakingIds.length */\n      dup1\n      sload\n      swap1\n      pop\n        /* \"TimeAlly.sol\":21884:21885  i */\n      dup2\n        /* \"TimeAlly.sol\":21884:21932  i < loans[msg.sender][_loanId].stakingIds.length */\n      lt\n        /* \"TimeAlly.sol\":21865:22627  for(uint256 i = 0; i < loans[msg.sender][_loanId].stakingIds.length; i++) {... */\n      iszero\n      tag_537\n      jumpi\n        /* \"TimeAlly.sol\":21953:21971  uint256 _stakingId */\n      0x00\n        /* \"TimeAlly.sol\":21974:21979  loans */\n      0x09\n        /* \"TimeAlly.sol\":21974:21991  loans[msg.sender] */\n      0x00\n        /* \"TimeAlly.sol\":21980:21990  msg.sender */\n      caller\n        /* \"TimeAlly.sol\":21974:21991  loans[msg.sender] */\n      0xffffffffffffffffffffffffffffffffffffffff\n      and\n      0xffffffffffffffffffffffffffffffffffffffff\n      and\n      dup2\n      mstore\n      0x20\n      add\n      swap1\n      dup2\n      mstore\n      0x20\n      add\n      0x00\n      keccak256\n        /* \"TimeAlly.sol\":21992:21999  _loanId */\n      dup4\n        /* \"TimeAlly.sol\":21974:22000  loans[msg.sender][_loanId] */\n      dup2\n      sload\n      dup2\n      lt\n      tag_541\n      jumpi\n      invalid\n    tag_541:\n      swap1\n      0x00\n      mstore\n      keccak256(0x00, 0x20)\n      swap1\n      0x05\n      mul\n      add\n        /* \"TimeAlly.sol\":21974:22011  loans[msg.sender][_loanId].stakingIds */\n      0x04\n      add\n        /* \"TimeAlly.sol\":22012:22013  i */\n      dup3\n        /* \"TimeAlly.sol\":21974:22014  loans[msg.sender][_loanId].stakingIds[i] */\n      dup2\n      sload\n      dup2\n      lt\n      tag_543\n      jumpi\n      invalid\n    tag_543:\n      swap1\n      0x00\n      mstore\n      keccak256(0x00, 0x20)\n      add\n      sload\n        /* \"TimeAlly.sol\":21953:22014  uint256 _stakingId = loans[msg.sender][_loanId].stakingIds[i] */\n      swap1\n      pop\n        /* \"TimeAlly.sol\":22071:22072  1 */\n      0x01\n        /* \"TimeAlly.sol\":22029:22037  stakings */\n      0x08\n        /* \"TimeAlly.sol\":22029:22049  stakings[msg.sender] */\n      0x00\n        /* \"TimeAlly.sol\":22038:22048  msg.sender */\n      caller\n        /* \"TimeAlly.sol\":22029:22049  stakings[msg.sender] */\n      0xffffffffffffffffffffffffffffffffffffffff\n      and\n      0xffffffffffffffffffffffffffffffffffffffff\n      and\n      dup2\n      mstore\n      0x20\n      add\n      swap1\n      dup2\n      mstore\n      0x20\n      add\n      0x00\n      keccak256\n        /* \"TimeAlly.sol\":22050:22060  _stakingId */\n      dup3\n        /* \"TimeAlly.sol\":22029:22061  stakings[msg.sender][_stakingId] */\n      dup2\n      sload\n      dup2\n      lt\n      tag_545\n      jumpi\n      invalid\n    tag_545:\n      swap1\n      0x00\n      mstore\n      keccak256(0x00, 0x20)\n      swap1\n      0x0b\n      mul\n      add\n        /* \"TimeAlly.sol\":22029:22068  stakings[msg.sender][_stakingId].status */\n      0x03\n      add\n        /* \"TimeAlly.sol\":22029:22072  stakings[msg.sender][_stakingId].status = 1 */\n      dup2\n      swap1\n      sstore\n      pop\n        /* \"TimeAlly.sol\":22087:22112  uint256 stakingStartMonth */\n      0x00\n        /* \"TimeAlly.sol\":22115:22205  stakings[msg.sender][_stakingId].timestamp.sub(deployedTimestamp).div(earthSecondsInMonth) */\n      tag_547\n        /* \"TimeAlly.sol\":22185:22204  earthSecondsInMonth */\n      sload(0x04)\n        /* \"TimeAlly.sol\":22115:22180  stakings[msg.sender][_stakingId].timestamp.sub(deployedTimestamp) */\n      tag_548\n        /* \"TimeAlly.sol\":22162:22179  deployedTimestamp */\n      sload(0x03)\n        /* \"TimeAlly.sol\":22115:22123  stakings */\n      0x08\n        /* \"TimeAlly.sol\":22115:22135  stakings[msg.sender] */\n      0x00\n        /* \"TimeAlly.sol\":22124:22134  msg.sender */\n      caller\n        /* \"TimeAlly.sol\":22115:22135  stakings[msg.sender] */\n      0xffffffffffffffffffffffffffffffffffffffff\n      and\n      0xffffffffffffffffffffffffffffffffffffffff\n      and\n      dup2\n      mstore\n      0x20\n      add\n      swap1\n      dup2\n      mstore\n      0x20\n      add\n      0x00\n      keccak256\n        /* \"TimeAlly.sol\":22136:22146  _stakingId */\n      dup7\n        /* \"TimeAlly.sol\":22115:22147  stakings[msg.sender][_stakingId] */\n      dup2\n      sload\n      dup2\n      lt\n      tag_549\n      jumpi\n      invalid\n    tag_549:\n      swap1\n      0x00\n      mstore\n      keccak256(0x00, 0x20)\n      swap1\n      0x0b\n      mul\n      add\n        /* \"TimeAlly.sol\":22115:22157  stakings[msg.sender][_stakingId].timestamp */\n      0x01\n      add\n      sload\n        /* \"TimeAlly.sol\":22115:22161  stakings[msg.sender][_stakingId].timestamp.sub */\n      tag_159\n      swap1\n        /* \"TimeAlly.sol\":22115:22180  stakings[msg.sender][_stakingId].timestamp.sub(deployedTimestamp) */\n      swap2\n      swap1\n      0xffffffff\n      and\n      jump\t// in\n    tag_548:\n        /* \"TimeAlly.sol\":22115:22184  stakings[msg.sender][_stakingId].timestamp.sub(deployedTimestamp).div */\n      tag_213\n      swap1\n        /* \"TimeAlly.sol\":22115:22205  stakings[msg.sender][_stakingId].timestamp.sub(deployedTimestamp).div(earthSecondsInMonth) */\n      swap2\n      swap1\n      0xffffffff\n      and\n      jump\t// in\n    tag_547:\n        /* \"TimeAlly.sol\":22087:22205  uint256 stakingStartMonth = stakings[msg.sender][_stakingId].timestamp.sub(deployedTimestamp).div(earthSecondsInMonth) */\n      swap1\n      pop\n        /* \"TimeAlly.sol\":22220:22241  uint256 stakeEndMonth */\n      0x00\n        /* \"TimeAlly.sol\":22264:22276  stakingPlans */\n      0x06\n        /* \"TimeAlly.sol\":22277:22285  stakings */\n      0x08\n        /* \"TimeAlly.sol\":22277:22297  stakings[msg.sender] */\n      0x00\n        /* \"TimeAlly.sol\":22286:22296  msg.sender */\n      caller\n        /* \"TimeAlly.sol\":22277:22297  stakings[msg.sender] */\n      0xffffffffffffffffffffffffffffffffffffffff\n      and\n      0xffffffffffffffffffffffffffffffffffffffff\n      and\n      dup2\n      mstore\n      0x20\n      add\n      swap1\n      dup2\n      mstore\n      0x20\n      add\n      0x00\n      keccak256\n        /* \"TimeAlly.sol\":22298:22308  _stakingId */\n      dup5\n        /* \"TimeAlly.sol\":22277:22309  stakings[msg.sender][_stakingId] */\n      dup2\n      sload\n      dup2\n      lt\n      tag_551\n      jumpi\n      invalid\n    tag_551:\n      swap1\n      0x00\n      mstore\n      keccak256(0x00, 0x20)\n      swap1\n      0x0b\n      mul\n      add\n        /* \"TimeAlly.sol\":22277:22323  stakings[msg.sender][_stakingId].stakingPlanId */\n      0x02\n      add\n      sload\n        /* \"TimeAlly.sol\":22264:22324  stakingPlans[stakings[msg.sender][_stakingId].stakingPlanId] */\n      dup2\n      sload\n      dup2\n      lt\n      tag_553\n      jumpi\n      invalid\n    tag_553:\n      swap1\n      0x00\n      mstore\n      keccak256(0x00, 0x20)\n      swap1\n      0x02\n      mul\n      add\n        /* \"TimeAlly.sol\":22264:22331  stakingPlans[stakings[msg.sender][_stakingId].stakingPlanId].months */\n      0x00\n      add\n      sload\n        /* \"TimeAlly.sol\":22244:22261  stakingStartMonth */\n      dup3\n        /* \"TimeAlly.sol\":22244:22331  stakingStartMonth + stakingPlans[stakings[msg.sender][_stakingId].stakingPlanId].months */\n      add\n        /* \"TimeAlly.sol\":22220:22331  uint256 stakeEndMonth = stakingStartMonth + stakingPlans[stakings[msg.sender][_stakingId].stakingPlanId].months */\n      swap1\n      pop\n        /* \"TimeAlly.sol\":22350:22359  uint256 j */\n      0x00\n        /* \"TimeAlly.sol\":22382:22383  1 */\n      0x01\n        /* \"TimeAlly.sol\":22362:22379  getCurrentMonth() */\n      tag_558\n        /* \"TimeAlly.sol\":22362:22377  getCurrentMonth */\n      tag_130\n        /* \"TimeAlly.sol\":22362:22379  getCurrentMonth() */\n      jump\t// in\n    tag_558:\n        /* \"TimeAlly.sol\":22362:22383  getCurrentMonth() + 1 */\n      add\n        /* \"TimeAlly.sol\":22350:22383  uint256 j = getCurrentMonth() + 1 */\n      swap1\n      pop\n        /* \"TimeAlly.sol\":22346:22617  for(uint256 j = getCurrentMonth() + 1; j <= stakeEndMonth; j++) {... */\n    tag_555:\n        /* \"TimeAlly.sol\":22390:22403  stakeEndMonth */\n      dup2\n        /* \"TimeAlly.sol\":22385:22386  j */\n      dup2\n        /* \"TimeAlly.sol\":22385:22403  j <= stakeEndMonth */\n      gt\n        /* \"TimeAlly.sol\":22346:22617  for(uint256 j = getCurrentMonth() + 1; j <= stakeEndMonth; j++) {... */\n      tag_556\n      jumpi\n        /* \"TimeAlly.sol\":22481:22486  false */\n      0x00\n        /* \"TimeAlly.sol\":22428:22436  stakings */\n      0x08\n        /* \"TimeAlly.sol\":22428:22448  stakings[msg.sender] */\n      0x00\n        /* \"TimeAlly.sol\":22437:22447  msg.sender */\n      caller\n        /* \"TimeAlly.sol\":22428:22448  stakings[msg.sender] */\n      0xffffffffffffffffffffffffffffffffffffffff\n      and\n      0xffffffffffffffffffffffffffffffffffffffff\n      and\n      dup2\n      mstore\n      0x20\n      add\n      swap1\n      dup2\n      mstore\n      0x20\n      add\n      0x00\n      keccak256\n        /* \"TimeAlly.sol\":22449:22459  _stakingId */\n      dup6\n        /* \"TimeAlly.sol\":22428:22460  stakings[msg.sender][_stakingId] */\n      dup2\n      sload\n      dup2\n      lt\n      tag_559\n      jumpi\n      invalid\n    tag_559:\n      swap1\n      0x00\n      mstore\n      keccak256(0x00, 0x20)\n      swap1\n      0x0b\n      mul\n      add\n        /* \"TimeAlly.sol\":22428:22475  stakings[msg.sender][_stakingId].isMonthClaimed */\n      0x06\n      add\n        /* \"TimeAlly.sol\":22428:22478  stakings[msg.sender][_stakingId].isMonthClaimed[i] */\n      0x00\n        /* \"TimeAlly.sol\":22476:22477  i */\n      dup8\n        /* \"TimeAlly.sol\":22428:22478  stakings[msg.sender][_stakingId].isMonthClaimed[i] */\n      dup2\n      mstore\n      0x20\n      add\n      swap1\n      dup2\n      mstore\n      0x20\n      add\n      0x00\n      keccak256\n      0x00\n        /* \"TimeAlly.sol\":22428:22486  stakings[msg.sender][_stakingId].isMonthClaimed[i] = false */\n      0x0100\n      exp\n      dup2\n      sload\n      dup2\n      0xff\n      mul\n      not\n      and\n      swap1\n      dup4\n      iszero\n      iszero\n      mul\n      or\n      swap1\n      sstore\n      pop\n        /* \"TimeAlly.sol\":22530:22602  totalActiveStakings[j].add(stakings[msg.sender][_stakingId].exaEsAmount) */\n      tag_561\n        /* \"TimeAlly.sol\":22557:22565  stakings */\n      0x08\n        /* \"TimeAlly.sol\":22557:22577  stakings[msg.sender] */\n      0x00\n        /* \"TimeAlly.sol\":22566:22576  msg.sender */\n      caller\n        /* \"TimeAlly.sol\":22557:22577  stakings[msg.sender] */\n      0xffffffffffffffffffffffffffffffffffffffff\n      and\n      0xffffffffffffffffffffffffffffffffffffffff\n      and\n      dup2\n      mstore\n      0x20\n      add\n      swap1\n      dup2\n      mstore\n      0x20\n      add\n      0x00\n      keccak256\n        /* \"TimeAlly.sol\":22578:22588  _stakingId */\n      dup6\n        /* \"TimeAlly.sol\":22557:22589  stakings[msg.sender][_stakingId] */\n      dup2\n      sload\n      dup2\n      lt\n      tag_562\n      jumpi\n      invalid\n    tag_562:\n      swap1\n      0x00\n      mstore\n      keccak256(0x00, 0x20)\n      swap1\n      0x0b\n      mul\n      add\n        /* \"TimeAlly.sol\":22557:22601  stakings[msg.sender][_stakingId].exaEsAmount */\n      0x00\n      add\n      sload\n        /* \"TimeAlly.sol\":22530:22549  totalActiveStakings */\n      0x0a\n        /* \"TimeAlly.sol\":22530:22552  totalActiveStakings[j] */\n      0x00\n        /* \"TimeAlly.sol\":22550:22551  j */\n      dup5\n        /* \"TimeAlly.sol\":22530:22552  totalActiveStakings[j] */\n      dup2\n      mstore\n      0x20\n      add\n      swap1\n      dup2\n      mstore\n      0x20\n      add\n      0x00\n      keccak256\n      sload\n        /* \"TimeAlly.sol\":22530:22556  totalActiveStakings[j].add */\n      tag_163\n      swap1\n        /* \"TimeAlly.sol\":22530:22602  totalActiveStakings[j].add(stakings[msg.sender][_stakingId].exaEsAmount) */\n      swap2\n      swap1\n      0xffffffff\n      and\n      jump\t// in\n    tag_561:\n        /* \"TimeAlly.sol\":22505:22524  totalActiveStakings */\n      0x0a\n        /* \"TimeAlly.sol\":22505:22527  totalActiveStakings[j] */\n      0x00\n        /* \"TimeAlly.sol\":22525:22526  j */\n      dup4\n        /* \"TimeAlly.sol\":22505:22527  totalActiveStakings[j] */\n      dup2\n      mstore\n      0x20\n      add\n      swap1\n      dup2\n      mstore\n      0x20\n      add\n      0x00\n      keccak256\n        /* \"TimeAlly.sol\":22505:22602  totalActiveStakings[j] = totalActiveStakings[j].add(stakings[msg.sender][_stakingId].exaEsAmount) */\n      dup2\n      swap1\n      sstore\n      pop\n        /* \"TimeAlly.sol\":22405:22408  j++ */\n      dup1\n      dup1\n      0x01\n      add\n      swap2\n      pop\n      pop\n        /* \"TimeAlly.sol\":22346:22617  for(uint256 j = getCurrentMonth() + 1; j <= stakeEndMonth; j++) {... */\n      jump(tag_555)\n    tag_556:\n      pop\n        /* \"TimeAlly.sol\":21865:22627  for(uint256 i = 0; i < loans[msg.sender][_loanId].stakingIds.length; i++) {... */\n      pop\n      pop\n      pop\n        /* \"TimeAlly.sol\":21934:21937  i++ */\n      dup1\n      dup1\n      0x01\n      add\n      swap2\n      pop\n      pop\n        /* \"TimeAlly.sol\":21865:22627  for(uint256 i = 0; i < loans[msg.sender][_loanId].stakingIds.length; i++) {... */\n      jump(tag_536)\n    tag_537:\n      pop\n        /* \"TimeAlly.sol\":21330:22634  function repayLoanSelf(uint256 _loanId) public {... */\n      pop\n      jump\t// out\n        /* \"TimeAlly.sol\":4104:5243  function newStaking(uint256 _exaEsAmount, uint256 _stakingPlanId) public {... */\n    tag_136:\n        /* \"TimeAlly.sol\":4195:4200  token */\n      0x01\n      0x00\n      swap1\n      sload\n      swap1\n      0x0100\n      exp\n      swap1\n      div\n      0xffffffffffffffffffffffffffffffffffffffff\n      and\n        /* \"TimeAlly.sol\":4195:4213  token.transferFrom */\n      0xffffffffffffffffffffffffffffffffffffffff\n      and\n      0x23b872dd\n        /* \"TimeAlly.sol\":4214:4224  msg.sender */\n      caller\n        /* \"TimeAlly.sol\":4234:4238  this */\n      address\n        /* \"TimeAlly.sol\":4241:4253  _exaEsAmount */\n      dup6\n        /* \"TimeAlly.sol\":4195:4254  token.transferFrom(msg.sender, address(this), _exaEsAmount) */\n      mload(0x40)\n      dup5\n      0xffffffff\n      and\n      0xe0\n      shl\n      dup2\n      mstore\n      0x04\n      add\n      dup1\n      dup5\n      0xffffffffffffffffffffffffffffffffffffffff\n      and\n      0xffffffffffffffffffffffffffffffffffffffff\n      and\n      dup2\n      mstore\n      0x20\n      add\n      dup4\n      0xffffffffffffffffffffffffffffffffffffffff\n      and\n      0xffffffffffffffffffffffffffffffffffffffff\n      and\n      dup2\n      mstore\n      0x20\n      add\n      dup3\n      dup2\n      mstore\n      0x20\n      add\n      swap4\n      pop\n      pop\n      pop\n      pop\n      0x20\n      mload(0x40)\n      dup1\n      dup4\n      sub\n      dup2\n      0x00\n      dup8\n      dup1\n      extcodesize\n      iszero\n        /* \"--CODEGEN--\":8:17   */\n      dup1\n        /* \"--CODEGEN--\":5:7   */\n      iszero\n      tag_565\n      jumpi\n        /* \"--CODEGEN--\":30:31   */\n      0x00\n        /* \"--CODEGEN--\":27:28   */\n      dup1\n        /* \"--CODEGEN--\":20:32   */\n      revert\n        /* \"--CODEGEN--\":5:7   */\n    tag_565:\n        /* \"TimeAlly.sol\":4195:4254  token.transferFrom(msg.sender, address(this), _exaEsAmount) */\n      pop\n      gas\n      call\n      iszero\n        /* \"--CODEGEN--\":8:17   */\n      dup1\n        /* \"--CODEGEN--\":5:7   */\n      iszero\n      tag_566\n      jumpi\n        /* \"--CODEGEN--\":45:61   */\n      returndatasize\n        /* \"--CODEGEN--\":42:43   */\n      0x00\n        /* \"--CODEGEN--\":39:40   */\n      dup1\n        /* \"--CODEGEN--\":24:62   */\n      returndatacopy\n        /* \"--CODEGEN--\":77:93   */\n      returndatasize\n        /* \"--CODEGEN--\":74:75   */\n      0x00\n        /* \"--CODEGEN--\":67:94   */\n      revert\n        /* \"--CODEGEN--\":5:7   */\n    tag_566:\n        /* \"TimeAlly.sol\":4195:4254  token.transferFrom(msg.sender, address(this), _exaEsAmount) */\n      pop\n      pop\n      pop\n      pop\n      mload(0x40)\n      returndatasize\n        /* \"--CODEGEN--\":13:15   */\n      0x20\n        /* \"--CODEGEN--\":8:11   */\n      dup2\n        /* \"--CODEGEN--\":5:16   */\n      lt\n        /* \"--CODEGEN--\":2:4   */\n      iszero\n      tag_567\n      jumpi\n        /* \"--CODEGEN--\":29:30   */\n      0x00\n        /* \"--CODEGEN--\":26:27   */\n      dup1\n        /* \"--CODEGEN--\":19:31   */\n      revert\n        /* \"--CODEGEN--\":2:4   */\n    tag_567:\n        /* \"TimeAlly.sol\":4195:4254  token.transferFrom(msg.sender, address(this), _exaEsAmount) */\n      dup2\n      add\n      swap1\n      dup1\n      dup1\n      mload\n      swap1\n      0x20\n      add\n      swap1\n      swap3\n      swap2\n      swap1\n      pop\n      pop\n      pop\n        /* \"TimeAlly.sol\":4187:4284  require(token.transferFrom(msg.sender, address(this), _exaEsAmount), 'could not transfer tokens') */\n      tag_568\n      jumpi\n      mload(0x40)\n      0x08c379a000000000000000000000000000000000000000000000000000000000\n      dup2\n      mstore\n      0x04\n      add\n      dup1\n      dup1\n      0x20\n      add\n      dup3\n      dup2\n      sub\n      dup3\n      mstore\n      0x19\n      dup2\n      mstore\n      0x20\n      add\n      dup1\n      0x636f756c64206e6f74207472616e7366657220746f6b656e7300000000000000\n      dup2\n      mstore\n      pop\n      0x20\n      add\n      swap2\n      pop\n      pop\n      mload(0x40)\n      dup1\n      swap2\n      sub\n      swap1\n      revert\n    tag_568:\n        /* \"TimeAlly.sol\":4294:4315  uint256 stakeEndMonth */\n      0x00\n        /* \"TimeAlly.sol\":4342:4354  stakingPlans */\n      0x06\n        /* \"TimeAlly.sol\":4355:4369  _stakingPlanId */\n      dup3\n        /* \"TimeAlly.sol\":4342:4370  stakingPlans[_stakingPlanId] */\n      dup2\n      sload\n      dup2\n      lt\n      tag_569\n      jumpi\n      invalid\n    tag_569:\n      swap1\n      0x00\n      mstore\n      keccak256(0x00, 0x20)\n      swap1\n      0x02\n      mul\n      add\n        /* \"TimeAlly.sol\":4342:4377  stakingPlans[_stakingPlanId].months */\n      0x00\n      add\n      sload\n        /* \"TimeAlly.sol\":4338:4339  1 */\n      0x01\n        /* \"TimeAlly.sol\":4318:4335  getCurrentMonth() */\n      tag_571\n        /* \"TimeAlly.sol\":4318:4333  getCurrentMonth */\n      tag_130\n        /* \"TimeAlly.sol\":4318:4335  getCurrentMonth() */\n      jump\t// in\n    tag_571:\n        /* \"TimeAlly.sol\":4318:4339  getCurrentMonth() + 1 */\n      add\n        /* \"TimeAlly.sol\":4318:4377  getCurrentMonth() + 1 + stakingPlans[_stakingPlanId].months */\n      add\n        /* \"TimeAlly.sol\":4294:4377  uint256 stakeEndMonth = getCurrentMonth() + 1 + stakingPlans[_stakingPlanId].months */\n      swap1\n      pop\n        /* \"TimeAlly.sol\":4508:4521  uint256 month */\n      0x00\n        /* \"TimeAlly.sol\":4544:4545  1 */\n      0x01\n        /* \"TimeAlly.sol\":4524:4541  getCurrentMonth() */\n      tag_575\n        /* \"TimeAlly.sol\":4524:4539  getCurrentMonth */\n      tag_130\n        /* \"TimeAlly.sol\":4524:4541  getCurrentMonth() */\n      jump\t// in\n    tag_575:\n        /* \"TimeAlly.sol\":4524:4545  getCurrentMonth() + 1 */\n      add\n        /* \"TimeAlly.sol\":4508:4545  uint256 month = getCurrentMonth() + 1 */\n      swap1\n      pop\n        /* \"TimeAlly.sol\":4493:4703  for(... */\n    tag_572:\n        /* \"TimeAlly.sol\":4565:4578  stakeEndMonth */\n      dup2\n        /* \"TimeAlly.sol\":4557:4562  month */\n      dup2\n        /* \"TimeAlly.sol\":4557:4578  month < stakeEndMonth */\n      lt\n        /* \"TimeAlly.sol\":4493:4703  for(... */\n      iszero\n      tag_573\n      jumpi\n        /* \"TimeAlly.sol\":4680:4692  _exaEsAmount */\n      dup4\n        /* \"TimeAlly.sol\":4651:4670  totalActiveStakings */\n      0x0a\n        /* \"TimeAlly.sol\":4651:4677  totalActiveStakings[month] */\n      0x00\n        /* \"TimeAlly.sol\":4671:4676  month */\n      dup4\n        /* \"TimeAlly.sol\":4651:4677  totalActiveStakings[month] */\n      dup2\n      mstore\n      0x20\n      add\n      swap1\n      dup2\n      mstore\n      0x20\n      add\n      0x00\n      keccak256\n      sload\n        /* \"TimeAlly.sol\":4651:4692  totalActiveStakings[month] + _exaEsAmount */\n      add\n        /* \"TimeAlly.sol\":4622:4641  totalActiveStakings */\n      0x0a\n        /* \"TimeAlly.sol\":4622:4648  totalActiveStakings[month] */\n      0x00\n        /* \"TimeAlly.sol\":4642:4647  month */\n      dup4\n        /* \"TimeAlly.sol\":4622:4648  totalActiveStakings[month] */\n      dup2\n      mstore\n      0x20\n      add\n      swap1\n      dup2\n      mstore\n      0x20\n      add\n      0x00\n      keccak256\n        /* \"TimeAlly.sol\":4622:4692  totalActiveStakings[month] = totalActiveStakings[month] + _exaEsAmount */\n      dup2\n      swap1\n      sstore\n      pop\n        /* \"TimeAlly.sol\":4590:4597  month++ */\n      dup1\n      dup1\n      0x01\n      add\n      swap2\n      pop\n      pop\n        /* \"TimeAlly.sol\":4493:4703  for(... */\n      jump(tag_572)\n    tag_573:\n      pop\n        /* \"TimeAlly.sol\":4713:4748  Staking[] storage userStakingsArray */\n      0x00\n        /* \"TimeAlly.sol\":4751:4759  stakings */\n      0x08\n        /* \"TimeAlly.sol\":4751:4771  stakings[msg.sender] */\n      0x00\n        /* \"TimeAlly.sol\":4760:4770  msg.sender */\n      caller\n        /* \"TimeAlly.sol\":4751:4771  stakings[msg.sender] */\n      0xffffffffffffffffffffffffffffffffffffffff\n      and\n      0xffffffffffffffffffffffffffffffffffffffff\n      and\n      dup2\n      mstore\n      0x20\n      add\n      swap1\n      dup2\n      mstore\n      0x20\n      add\n      0x00\n      keccak256\n        /* \"TimeAlly.sol\":4713:4771  Staking[] storage userStakingsArray = stakings[msg.sender] */\n      swap1\n      pop\n        /* \"TimeAlly.sol\":4781:4798  userStakingsArray */\n      dup1\n        /* \"TimeAlly.sol\":4804:5137  Staking({... */\n      mload(0x40)\n      dup1\n      0x0120\n      add\n      0x40\n      mstore\n      dup1\n        /* \"TimeAlly.sol\":4839:4851  _exaEsAmount */\n      dup7\n        /* \"TimeAlly.sol\":4804:5137  Staking({... */\n      dup2\n      mstore\n      0x20\n      add\n        /* \"TimeAlly.sol\":4876:4881  token */\n      0x01\n      0x00\n      swap1\n      sload\n      swap1\n      0x0100\n      exp\n      swap1\n      div\n      0xffffffffffffffffffffffffffffffffffffffff\n      and\n        /* \"TimeAlly.sol\":4876:4885  token.mou */\n      0xffffffffffffffffffffffffffffffffffffffff\n      and\n      0xb81f90f3\n        /* \"TimeAlly.sol\":4876:4887  token.mou() */\n      mload(0x40)\n      dup2\n      0xffffffff\n      and\n      0xe0\n      shl\n      dup2\n      mstore\n      0x04\n      add\n      0x20\n      mload(0x40)\n      dup1\n      dup4\n      sub\n      dup2\n      dup7\n      dup1\n      extcodesize\n      iszero\n        /* \"--CODEGEN--\":8:17   */\n      dup1\n        /* \"--CODEGEN--\":5:7   */\n      iszero\n      tag_576\n      jumpi\n        /* \"--CODEGEN--\":30:31   */\n      0x00\n        /* \"--CODEGEN--\":27:28   */\n      dup1\n        /* \"--CODEGEN--\":20:32   */\n      revert\n        /* \"--CODEGEN--\":5:7   */\n    tag_576:\n        /* \"TimeAlly.sol\":4876:4887  token.mou() */\n      pop\n      gas\n      staticcall\n      iszero\n        /* \"--CODEGEN--\":8:17   */\n      dup1\n        /* \"--CODEGEN--\":5:7   */\n      iszero\n      tag_577\n      jumpi\n        /* \"--CODEGEN--\":45:61   */\n      returndatasize\n        /* \"--CODEGEN--\":42:43   */\n      0x00\n        /* \"--CODEGEN--\":39:40   */\n      dup1\n        /* \"--CODEGEN--\":24:62   */\n      returndatacopy\n        /* \"--CODEGEN--\":77:93   */\n      returndatasize\n        /* \"--CODEGEN--\":74:75   */\n      0x00\n        /* \"--CODEGEN--\":67:94   */\n      revert\n        /* \"--CODEGEN--\":5:7   */\n    tag_577:\n        /* \"TimeAlly.sol\":4876:4887  token.mou() */\n      pop\n      pop\n      pop\n      pop\n      mload(0x40)\n      returndatasize\n        /* \"--CODEGEN--\":13:15   */\n      0x20\n        /* \"--CODEGEN--\":8:11   */\n      dup2\n        /* \"--CODEGEN--\":5:16   */\n      lt\n        /* \"--CODEGEN--\":2:4   */\n      iszero\n      tag_578\n      jumpi\n        /* \"--CODEGEN--\":29:30   */\n      0x00\n        /* \"--CODEGEN--\":26:27   */\n      dup1\n        /* \"--CODEGEN--\":19:31   */\n      revert\n        /* \"--CODEGEN--\":2:4   */\n    tag_578:\n        /* \"TimeAlly.sol\":4876:4887  token.mou() */\n      dup2\n      add\n      swap1\n      dup1\n      dup1\n      mload\n      swap1\n      0x20\n      add\n      swap1\n      swap3\n      swap2\n      swap1\n      pop\n      pop\n      pop\n        /* \"TimeAlly.sol\":4804:5137  Staking({... */\n      dup2\n      mstore\n      0x20\n      add\n        /* \"TimeAlly.sol\":4916:4930  _stakingPlanId */\n      dup6\n        /* \"TimeAlly.sol\":4804:5137  Staking({... */\n      dup2\n      mstore\n      0x20\n      add\n        /* \"TimeAlly.sol\":4952:4953  1 */\n      0x01\n        /* \"TimeAlly.sol\":4804:5137  Staking({... */\n      dup2\n      mstore\n      0x20\n      add\n        /* \"TimeAlly.sol\":4987:4988  0 */\n      0x00\n        /* \"TimeAlly.sol\":4804:5137  Staking({... */\n      dup2\n      mstore\n      0x20\n      add\n        /* \"TimeAlly.sol\":5010:5011  0 */\n      0x00\n        /* \"TimeAlly.sol\":4804:5137  Staking({... */\n      dup2\n      mstore\n      0x20\n      add\n        /* \"TimeAlly.sol\":5049:5050  0 */\n      0x00\n        /* \"TimeAlly.sol\":4804:5137  Staking({... */\n      dup2\n      mstore\n      0x20\n      add\n        /* \"TimeAlly.sol\":5087:5088  0 */\n      0x00\n        /* \"TimeAlly.sol\":4804:5137  Staking({... */\n      dup2\n      mstore\n      0x20\n      add\n        /* \"TimeAlly.sol\":5125:5126  0 */\n      0x00\n        /* \"TimeAlly.sol\":4804:5137  Staking({... */\n      dup2\n      mstore\n      pop\n        /* \"TimeAlly.sol\":4781:5138  userStakingsArray.push(Staking({... */\n      swap1\n      dup1\n        /* \"--CODEGEN--\":39:40   */\n      0x01\n        /* \"--CODEGEN--\":33:36   */\n      dup2\n        /* \"--CODEGEN--\":27:37   */\n      sload\n        /* \"--CODEGEN--\":23:41   */\n      add\n        /* \"--CODEGEN--\":57:67   */\n      dup1\n        /* \"--CODEGEN--\":52:55   */\n      dup3\n        /* \"--CODEGEN--\":45:68   */\n      sstore\n        /* \"--CODEGEN--\":79:89   */\n      dup1\n        /* \"--CODEGEN--\":72:89   */\n      swap2\n      pop\n        /* \"--CODEGEN--\":0:93   */\n      pop\n        /* \"TimeAlly.sol\":4781:5138  userStakingsArray.push(Staking({... */\n      swap1\n      0x01\n      dup3\n      sub\n      swap1\n      0x00\n      mstore\n      keccak256(0x00, 0x20)\n      swap1\n      0x0b\n      mul\n      add\n      0x00\n      swap1\n      swap2\n      swap3\n      swap1\n      swap2\n      swap1\n      swap2\n      pop\n      0x00\n      dup3\n      add\n      mload\n      dup2\n      0x00\n      add\n      sstore\n      0x20\n      dup3\n      add\n      mload\n      dup2\n      0x01\n      add\n      sstore\n      0x40\n      dup3\n      add\n      mload\n      dup2\n      0x02\n      add\n      sstore\n      0x60\n      dup3\n      add\n      mload\n      dup2\n      0x03\n      add\n      sstore\n      0x80\n      dup3\n      add\n      mload\n      dup2\n      0x04\n      add\n      sstore\n      0xa0\n      dup3\n      add\n      mload\n      dup2\n      0x05\n      add\n      sstore\n      0xc0\n      dup3\n      add\n      mload\n      dup2\n      0x07\n      add\n      sstore\n      0xe0\n      dup3\n      add\n      mload\n      dup2\n      0x08\n      add\n      sstore\n      0x0100\n      dup3\n      add\n      mload\n      dup2\n      0x09\n      add\n      sstore\n      pop\n      pop\n      pop\n        /* \"TimeAlly.sol\":5177:5191  _stakingPlanId */\n      dup3\n        /* \"TimeAlly.sol\":5165:5175  msg.sender */\n      caller\n        /* \"TimeAlly.sol\":5154:5236  NewStaking(msg.sender, _stakingPlanId, _exaEsAmount, userStakingsArray.length - 1) */\n      0xffffffffffffffffffffffffffffffffffffffff\n      and\n      0x680a0e2e97ad7c29da7985e37b699f19857c055166f801e50d90661eae30fcc3\n        /* \"TimeAlly.sol\":5193:5205  _exaEsAmount */\n      dup7\n        /* \"TimeAlly.sol\":5234:5235  1 */\n      0x01\n        /* \"TimeAlly.sol\":5207:5224  userStakingsArray */\n      dup6\n        /* \"TimeAlly.sol\":5207:5231  userStakingsArray.length */\n      dup1\n      sload\n      swap1\n      pop\n        /* \"TimeAlly.sol\":5207:5235  userStakingsArray.length - 1 */\n      sub\n        /* \"TimeAlly.sol\":5154:5236  NewStaking(msg.sender, _stakingPlanId, _exaEsAmount, userStakingsArray.length - 1) */\n      mload(0x40)\n      dup1\n      dup4\n      dup2\n      mstore\n      0x20\n      add\n      dup3\n      dup2\n      mstore\n      0x20\n      add\n      swap3\n      pop\n      pop\n      pop\n      mload(0x40)\n      dup1\n      swap2\n      sub\n      swap1\n      log3\n        /* \"TimeAlly.sol\":4104:5243  function newStaking(uint256 _exaEsAmount, uint256 _stakingPlanId) public {... */\n      pop\n      pop\n      pop\n      pop\n      jump\t// out\n        /* \"TimeAlly.sol\":3376:3497  function increaseMonth(uint256 _timeAllyNRT) public onlyNRTManager {... */\n    tag_139:\n        /* \"TimeAlly.sol\":2935:2945  nrtManager */\n      0x02\n      0x00\n      swap1\n      sload\n      swap1\n      0x0100\n      exp\n      swap1\n      div\n      0xffffffffffffffffffffffffffffffffffffffff\n      and\n        /* \"TimeAlly.sol\":2913:2946  msg.sender == address(nrtManager) */\n      0xffffffffffffffffffffffffffffffffffffffff\n      and\n        /* \"TimeAlly.sol\":2913:2923  msg.sender */\n      caller\n        /* \"TimeAlly.sol\":2913:2946  msg.sender == address(nrtManager) */\n      0xffffffffffffffffffffffffffffffffffffffff\n      and\n      eq\n        /* \"TimeAlly.sol\":2905:2976  require(msg.sender == address(nrtManager), 'only NRT manager can call') */\n      tag_581\n      jumpi\n      mload(0x40)\n      0x08c379a000000000000000000000000000000000000000000000000000000000\n      dup2\n      mstore\n      0x04\n      add\n      dup1\n      dup1\n      0x20\n      add\n      dup3\n      dup2\n      sub\n      dup3\n      mstore\n      0x19\n      dup2\n      mstore\n      0x20\n      add\n      dup1\n      0x6f6e6c79204e5254206d616e616765722063616e2063616c6c00000000000000\n      dup2\n      mstore\n      pop\n      0x20\n      add\n      swap2\n      pop\n      pop\n      mload(0x40)\n      dup1\n      swap2\n      sub\n      swap1\n      revert\n    tag_581:\n        /* \"TimeAlly.sol\":3453:3471  timeAllyMonthlyNRT */\n      0x05\n        /* \"TimeAlly.sol\":3477:3489  _timeAllyNRT */\n      dup2\n        /* \"TimeAlly.sol\":3453:3490  timeAllyMonthlyNRT.push(_timeAllyNRT) */\n      swap1\n      dup1\n        /* \"--CODEGEN--\":39:40   */\n      0x01\n        /* \"--CODEGEN--\":33:36   */\n      dup2\n        /* \"--CODEGEN--\":27:37   */\n      sload\n        /* \"--CODEGEN--\":23:41   */\n      add\n        /* \"--CODEGEN--\":57:67   */\n      dup1\n        /* \"--CODEGEN--\":52:55   */\n      dup3\n        /* \"--CODEGEN--\":45:68   */\n      sstore\n        /* \"--CODEGEN--\":79:89   */\n      dup1\n        /* \"--CODEGEN--\":72:89   */\n      swap2\n      pop\n        /* \"--CODEGEN--\":0:93   */\n      pop\n        /* \"TimeAlly.sol\":3453:3490  timeAllyMonthlyNRT.push(_timeAllyNRT) */\n      swap1\n      0x01\n      dup3\n      sub\n      swap1\n      0x00\n      mstore\n      keccak256(0x00, 0x20)\n      add\n      0x00\n      swap1\n      swap2\n      swap3\n      swap1\n      swap2\n      swap1\n      swap2\n      pop\n      sstore\n      pop\n        /* \"TimeAlly.sol\":3376:3497  function increaseMonth(uint256 _timeAllyNRT) public onlyNRTManager {... */\n      pop\n      jump\t// out\n        /* \"TimeAlly.sol\":13679:14374  function withdrawExpiredStakings(uint256[] memory _stakings) public {... */\n    tag_145:\n        /* \"TimeAlly.sol\":13761:13770  uint256 i */\n      0x00\n        /* \"TimeAlly.sol\":13773:13774  0 */\n      dup1\n        /* \"TimeAlly.sol\":13761:13774  uint256 i = 0 */\n      swap1\n      pop\n        /* \"TimeAlly.sol\":13757:14368  for(uint256 i = 0; i < _stakings.length; i++) {... */\n    tag_585:\n        /* \"TimeAlly.sol\":13780:13789  _stakings */\n      dup2\n        /* \"TimeAlly.sol\":13780:13796  _stakings.length */\n      mload\n        /* \"TimeAlly.sol\":13776:13777  i */\n      dup2\n        /* \"TimeAlly.sol\":13776:13796  i < _stakings.length */\n      lt\n        /* \"TimeAlly.sol\":13757:14368  for(uint256 i = 0; i < _stakings.length; i++) {... */\n      iszero\n      tag_586\n      jumpi\n        /* \"TimeAlly.sol\":13861:13862  3 */\n      0x03\n        /* \"TimeAlly.sol\":13817:13825  stakings */\n      0x08\n        /* \"TimeAlly.sol\":13817:13837  stakings[msg.sender] */\n      0x00\n        /* \"TimeAlly.sol\":13826:13836  msg.sender */\n      caller\n        /* \"TimeAlly.sol\":13817:13837  stakings[msg.sender] */\n      0xffffffffffffffffffffffffffffffffffffffff\n      and\n      0xffffffffffffffffffffffffffffffffffffffff\n      and\n      dup2\n      mstore\n      0x20\n      add\n      swap1\n      dup2\n      mstore\n      0x20\n      add\n      0x00\n      keccak256\n        /* \"TimeAlly.sol\":13838:13847  _stakings */\n      dup4\n        /* \"TimeAlly.sol\":13848:13849  i */\n      dup4\n        /* \"TimeAlly.sol\":13838:13850  _stakings[i] */\n      dup2\n      mload\n      dup2\n      lt\n      tag_588\n      jumpi\n      invalid\n    tag_588:\n      0x20\n      mul\n      0x20\n      add\n      add\n      mload\n        /* \"TimeAlly.sol\":13817:13851  stakings[msg.sender][_stakings[i]] */\n      dup2\n      sload\n      dup2\n      lt\n      tag_589\n      jumpi\n      invalid\n    tag_589:\n      swap1\n      0x00\n      mstore\n      keccak256(0x00, 0x20)\n      swap1\n      0x0b\n      mul\n      add\n        /* \"TimeAlly.sol\":13817:13858  stakings[msg.sender][_stakings[i]].status */\n      0x03\n      add\n        /* \"TimeAlly.sol\":13817:13862  stakings[msg.sender][_stakings[i]].status = 3 */\n      dup2\n      swap1\n      sstore\n      pop\n        /* \"TimeAlly.sol\":13936:13937  0 */\n      0x00\n        /* \"TimeAlly.sol\":13880:13888  stakings */\n      0x08\n        /* \"TimeAlly.sol\":13880:13900  stakings[msg.sender] */\n      0x00\n        /* \"TimeAlly.sol\":13889:13899  msg.sender */\n      caller\n        /* \"TimeAlly.sol\":13880:13900  stakings[msg.sender] */\n      0xffffffffffffffffffffffffffffffffffffffff\n      and\n      0xffffffffffffffffffffffffffffffffffffffff\n      and\n      dup2\n      mstore\n      0x20\n      add\n      swap1\n      dup2\n      mstore\n      0x20\n      add\n      0x00\n      keccak256\n        /* \"TimeAlly.sol\":13901:13910  _stakings */\n      dup4\n        /* \"TimeAlly.sol\":13911:13912  i */\n      dup4\n        /* \"TimeAlly.sol\":13901:13913  _stakings[i] */\n      dup2\n      mload\n      dup2\n      lt\n      tag_591\n      jumpi\n      invalid\n    tag_591:\n      0x20\n      mul\n      0x20\n      add\n      add\n      mload\n        /* \"TimeAlly.sol\":13880:13914  stakings[msg.sender][_stakings[i]] */\n      dup2\n      sload\n      dup2\n      lt\n      tag_592\n      jumpi\n      invalid\n    tag_592:\n      swap1\n      0x00\n      mstore\n      keccak256(0x00, 0x20)\n      swap1\n      0x0b\n      mul\n      add\n        /* \"TimeAlly.sol\":13880:13933  stakings[msg.sender][_stakings[i]].accruedExaEsAmount */\n      0x04\n      add\n      sload\n        /* \"TimeAlly.sol\":13880:13937  stakings[msg.sender][_stakings[i]].accruedExaEsAmount > 0 */\n      gt\n        /* \"TimeAlly.sol\":13877:14269  if(stakings[msg.sender][_stakings[i]].accruedExaEsAmount > 0) {... */\n      iszero\n      tag_594\n      jumpi\n        /* \"TimeAlly.sol\":13955:13981  uint256 accruedExaEsAmount */\n      0x00\n        /* \"TimeAlly.sol\":13984:13992  stakings */\n      0x08\n        /* \"TimeAlly.sol\":13984:14004  stakings[msg.sender] */\n      0x00\n        /* \"TimeAlly.sol\":13993:14003  msg.sender */\n      caller\n        /* \"TimeAlly.sol\":13984:14004  stakings[msg.sender] */\n      0xffffffffffffffffffffffffffffffffffffffff\n      and\n      0xffffffffffffffffffffffffffffffffffffffff\n      and\n      dup2\n      mstore\n      0x20\n      add\n      swap1\n      dup2\n      mstore\n      0x20\n      add\n      0x00\n      keccak256\n        /* \"TimeAlly.sol\":14005:14014  _stakings */\n      dup4\n        /* \"TimeAlly.sol\":14015:14016  i */\n      dup4\n        /* \"TimeAlly.sol\":14005:14017  _stakings[i] */\n      dup2\n      mload\n      dup2\n      lt\n      tag_595\n      jumpi\n      invalid\n    tag_595:\n      0x20\n      mul\n      0x20\n      add\n      add\n      mload\n        /* \"TimeAlly.sol\":13984:14018  stakings[msg.sender][_stakings[i]] */\n      dup2\n      sload\n      dup2\n      lt\n      tag_596\n      jumpi\n      invalid\n    tag_596:\n      swap1\n      0x00\n      mstore\n      keccak256(0x00, 0x20)\n      swap1\n      0x0b\n      mul\n      add\n        /* \"TimeAlly.sol\":13984:14037  stakings[msg.sender][_stakings[i]].accruedExaEsAmount */\n      0x04\n      add\n      sload\n        /* \"TimeAlly.sol\":13955:14037  uint256 accruedExaEsAmount = stakings[msg.sender][_stakings[i]].accruedExaEsAmount */\n      swap1\n      pop\n        /* \"TimeAlly.sol\":14109:14110  0 */\n      0x00\n        /* \"TimeAlly.sol\":14053:14061  stakings */\n      0x08\n        /* \"TimeAlly.sol\":14053:14073  stakings[msg.sender] */\n      0x00\n        /* \"TimeAlly.sol\":14062:14072  msg.sender */\n      caller\n        /* \"TimeAlly.sol\":14053:14073  stakings[msg.sender] */\n      0xffffffffffffffffffffffffffffffffffffffff\n      and\n      0xffffffffffffffffffffffffffffffffffffffff\n      and\n      dup2\n      mstore\n      0x20\n      add\n      swap1\n      dup2\n      mstore\n      0x20\n      add\n      0x00\n      keccak256\n        /* \"TimeAlly.sol\":14074:14083  _stakings */\n      dup5\n        /* \"TimeAlly.sol\":14084:14085  i */\n      dup5\n        /* \"TimeAlly.sol\":14074:14086  _stakings[i] */\n      dup2\n      mload\n      dup2\n      lt\n      tag_598\n      jumpi\n      invalid\n    tag_598:\n      0x20\n      mul\n      0x20\n      add\n      add\n      mload\n        /* \"TimeAlly.sol\":14053:14087  stakings[msg.sender][_stakings[i]] */\n      dup2\n      sload\n      dup2\n      lt\n      tag_599\n      jumpi\n      invalid\n    tag_599:\n      swap1\n      0x00\n      mstore\n      keccak256(0x00, 0x20)\n      swap1\n      0x0b\n      mul\n      add\n        /* \"TimeAlly.sol\":14053:14106  stakings[msg.sender][_stakings[i]].accruedExaEsAmount */\n      0x04\n      add\n        /* \"TimeAlly.sol\":14053:14110  stakings[msg.sender][_stakings[i]].accruedExaEsAmount = 0 */\n      dup2\n      swap1\n      sstore\n      pop\n        /* \"TimeAlly.sol\":14126:14254  newStaking(... */\n      tag_601\n        /* \"TimeAlly.sol\":14154:14172  accruedExaEsAmount */\n      dup2\n        /* \"TimeAlly.sol\":14190:14198  stakings */\n      0x08\n        /* \"TimeAlly.sol\":14190:14210  stakings[msg.sender] */\n      0x00\n        /* \"TimeAlly.sol\":14199:14209  msg.sender */\n      caller\n        /* \"TimeAlly.sol\":14190:14210  stakings[msg.sender] */\n      0xffffffffffffffffffffffffffffffffffffffff\n      and\n      0xffffffffffffffffffffffffffffffffffffffff\n      and\n      dup2\n      mstore\n      0x20\n      add\n      swap1\n      dup2\n      mstore\n      0x20\n      add\n      0x00\n      keccak256\n        /* \"TimeAlly.sol\":14211:14220  _stakings */\n      dup6\n        /* \"TimeAlly.sol\":14221:14222  i */\n      dup6\n        /* \"TimeAlly.sol\":14211:14223  _stakings[i] */\n      dup2\n      mload\n      dup2\n      lt\n      tag_602\n      jumpi\n      invalid\n    tag_602:\n      0x20\n      mul\n      0x20\n      add\n      add\n      mload\n        /* \"TimeAlly.sol\":14190:14224  stakings[msg.sender][_stakings[i]] */\n      dup2\n      sload\n      dup2\n      lt\n      tag_603\n      jumpi\n      invalid\n    tag_603:\n      swap1\n      0x00\n      mstore\n      keccak256(0x00, 0x20)\n      swap1\n      0x0b\n      mul\n      add\n        /* \"TimeAlly.sol\":14190:14238  stakings[msg.sender][_stakings[i]].stakingPlanId */\n      0x02\n      add\n      sload\n        /* \"TimeAlly.sol\":14126:14136  newStaking */\n      tag_136\n        /* \"TimeAlly.sol\":14126:14254  newStaking(... */\n      jump\t// in\n    tag_601:\n        /* \"TimeAlly.sol\":13877:14269  if(stakings[msg.sender][_stakings[i]].accruedExaEsAmount > 0) {... */\n      pop\n    tag_594:\n        /* \"TimeAlly.sol\":14283:14288  token */\n      0x01\n      0x00\n      swap1\n      sload\n      swap1\n      0x0100\n      exp\n      swap1\n      div\n      0xffffffffffffffffffffffffffffffffffffffff\n      and\n        /* \"TimeAlly.sol\":14283:14297  token.transfer */\n      0xffffffffffffffffffffffffffffffffffffffff\n      and\n      0xa9059cbb\n        /* \"TimeAlly.sol\":14298:14308  msg.sender */\n      caller\n        /* \"TimeAlly.sol\":14310:14318  stakings */\n      0x08\n        /* \"TimeAlly.sol\":14310:14330  stakings[msg.sender] */\n      0x00\n        /* \"TimeAlly.sol\":14319:14329  msg.sender */\n      caller\n        /* \"TimeAlly.sol\":14310:14330  stakings[msg.sender] */\n      0xffffffffffffffffffffffffffffffffffffffff\n      and\n      0xffffffffffffffffffffffffffffffffffffffff\n      and\n      dup2\n      mstore\n      0x20\n      add\n      swap1\n      dup2\n      mstore\n      0x20\n      add\n      0x00\n      keccak256\n        /* \"TimeAlly.sol\":14331:14340  _stakings */\n      dup6\n        /* \"TimeAlly.sol\":14341:14342  i */\n      dup6\n        /* \"TimeAlly.sol\":14331:14343  _stakings[i] */\n      dup2\n      mload\n      dup2\n      lt\n      tag_605\n      jumpi\n      invalid\n    tag_605:\n      0x20\n      mul\n      0x20\n      add\n      add\n      mload\n        /* \"TimeAlly.sol\":14310:14344  stakings[msg.sender][_stakings[i]] */\n      dup2\n      sload\n      dup2\n      lt\n      tag_606\n      jumpi\n      invalid\n    tag_606:\n      swap1\n      0x00\n      mstore\n      keccak256(0x00, 0x20)\n      swap1\n      0x0b\n      mul\n      add\n        /* \"TimeAlly.sol\":14310:14356  stakings[msg.sender][_stakings[i]].exaEsAmount */\n      0x00\n      add\n      sload\n        /* \"TimeAlly.sol\":14283:14357  token.transfer(msg.sender, stakings[msg.sender][_stakings[i]].exaEsAmount) */\n      mload(0x40)\n      dup4\n      0xffffffff\n      and\n      0xe0\n      shl\n      dup2\n      mstore\n      0x04\n      add\n      dup1\n      dup4\n      0xffffffffffffffffffffffffffffffffffffffff\n      and\n      0xffffffffffffffffffffffffffffffffffffffff\n      and\n      dup2\n      mstore\n      0x20\n      add\n      dup3\n      dup2\n      mstore\n      0x20\n      add\n      swap3\n      pop\n      pop\n      pop\n      0x20\n      mload(0x40)\n      dup1\n      dup4\n      sub\n      dup2\n      0x00\n      dup8\n      dup1\n      extcodesize\n      iszero\n        /* \"--CODEGEN--\":8:17   */\n      dup1\n        /* \"--CODEGEN--\":5:7   */\n      iszero\n      tag_608\n      jumpi\n        /* \"--CODEGEN--\":30:31   */\n      0x00\n        /* \"--CODEGEN--\":27:28   */\n      dup1\n        /* \"--CODEGEN--\":20:32   */\n      revert\n        /* \"--CODEGEN--\":5:7   */\n    tag_608:\n        /* \"TimeAlly.sol\":14283:14357  token.transfer(msg.sender, stakings[msg.sender][_stakings[i]].exaEsAmount) */\n      pop\n      gas\n      call\n      iszero\n        /* \"--CODEGEN--\":8:17   */\n      dup1\n        /* \"--CODEGEN--\":5:7   */\n      iszero\n      tag_609\n      jumpi\n        /* \"--CODEGEN--\":45:61   */\n      returndatasize\n        /* \"--CODEGEN--\":42:43   */\n      0x00\n        /* \"--CODEGEN--\":39:40   */\n      dup1\n        /* \"--CODEGEN--\":24:62   */\n      returndatacopy\n        /* \"--CODEGEN--\":77:93   */\n      returndatasize\n        /* \"--CODEGEN--\":74:75   */\n      0x00\n        /* \"--CODEGEN--\":67:94   */\n      revert\n        /* \"--CODEGEN--\":5:7   */\n    tag_609:\n        /* \"TimeAlly.sol\":14283:14357  token.transfer(msg.sender, stakings[msg.sender][_stakings[i]].exaEsAmount) */\n      pop\n      pop\n      pop\n      pop\n      mload(0x40)\n      returndatasize\n        /* \"--CODEGEN--\":13:15   */\n      0x20\n        /* \"--CODEGEN--\":8:11   */\n      dup2\n        /* \"--CODEGEN--\":5:16   */\n      lt\n        /* \"--CODEGEN--\":2:4   */\n      iszero\n      tag_610\n      jumpi\n        /* \"--CODEGEN--\":29:30   */\n      0x00\n        /* \"--CODEGEN--\":26:27   */\n      dup1\n        /* \"--CODEGEN--\":19:31   */\n      revert\n        /* \"--CODEGEN--\":2:4   */\n    tag_610:\n        /* \"TimeAlly.sol\":14283:14357  token.transfer(msg.sender, stakings[msg.sender][_stakings[i]].exaEsAmount) */\n      dup2\n      add\n      swap1\n      dup1\n      dup1\n      mload\n      swap1\n      0x20\n      add\n      swap1\n      swap3\n      swap2\n      swap1\n      pop\n      pop\n      pop\n      pop\n        /* \"TimeAlly.sol\":13798:13801  i++ */\n      dup1\n      dup1\n      0x01\n      add\n      swap2\n      pop\n      pop\n        /* \"TimeAlly.sol\":13757:14368  for(uint256 i = 0; i < _stakings.length; i++) {... */\n      jump(tag_585)\n    tag_586:\n      pop\n        /* \"TimeAlly.sol\":13679:14374  function withdrawExpiredStakings(uint256[] memory _stakings) public {... */\n      pop\n      jump\t// out\n        /* \"TimeAlly.sol\":8618:9672  function userActiveStakingByMonth(address _userAddress, uint256 _atMonth) public view returns (uint256) {... */\n    tag_148:\n        /* \"TimeAlly.sol\":8713:8720  uint256 */\n      0x00\n        /* \"TimeAlly.sol\":8946:8967  uint256 _currentMonth */\n      dup1\n        /* \"TimeAlly.sol\":8970:8987  getCurrentMonth() */\n      tag_612\n        /* \"TimeAlly.sol\":8970:8985  getCurrentMonth */\n      tag_130\n        /* \"TimeAlly.sol\":8970:8987  getCurrentMonth() */\n      jump\t// in\n    tag_612:\n        /* \"TimeAlly.sol\":8946:8987  uint256 _currentMonth = getCurrentMonth() */\n      swap1\n      pop\n        /* \"TimeAlly.sol\":9022:9030  _atMonth */\n      dup3\n        /* \"TimeAlly.sol\":9005:9018  _currentMonth */\n      dup2\n        /* \"TimeAlly.sol\":9005:9030  _currentMonth >= _atMonth */\n      lt\n      iszero\n        /* \"TimeAlly.sol\":8997:9061  require(_currentMonth >= _atMonth, 'cannot see future stakings') */\n      tag_613\n      jumpi\n      mload(0x40)\n      0x08c379a000000000000000000000000000000000000000000000000000000000\n      dup2\n      mstore\n      0x04\n      add\n      dup1\n      dup1\n      0x20\n      add\n      dup3\n      dup2\n      sub\n      dup3\n      mstore\n      0x1a\n      dup2\n      mstore\n      0x20\n      add\n      dup1\n      0x63616e6e6f742073656520667574757265207374616b696e6773000000000000\n      dup2\n      mstore\n      pop\n      0x20\n      add\n      swap2\n      pop\n      pop\n      mload(0x40)\n      dup1\n      swap2\n      sub\n      swap1\n      revert\n    tag_613:\n        /* \"TimeAlly.sol\":9072:9109  uint256 userActiveStakingsExaEsAmount */\n      0x00\n        /* \"TimeAlly.sol\":9124:9133  uint256 i */\n      dup1\n        /* \"TimeAlly.sol\":9136:9137  0 */\n      0x00\n        /* \"TimeAlly.sol\":9124:9137  uint256 i = 0 */\n      swap1\n      pop\n        /* \"TimeAlly.sol\":9120:9619  for(uint256 i = 0; i < stakings[_userAddress].length; i++) {... */\n    tag_614:\n        /* \"TimeAlly.sol\":9143:9151  stakings */\n      0x08\n        /* \"TimeAlly.sol\":9143:9165  stakings[_userAddress] */\n      0x00\n        /* \"TimeAlly.sol\":9152:9164  _userAddress */\n      dup8\n        /* \"TimeAlly.sol\":9143:9165  stakings[_userAddress] */\n      0xffffffffffffffffffffffffffffffffffffffff\n      and\n      0xffffffffffffffffffffffffffffffffffffffff\n      and\n      dup2\n      mstore\n      0x20\n      add\n      swap1\n      dup2\n      mstore\n      0x20\n      add\n      0x00\n      keccak256\n        /* \"TimeAlly.sol\":9143:9172  stakings[_userAddress].length */\n      dup1\n      sload\n      swap1\n      pop\n        /* \"TimeAlly.sol\":9139:9140  i */\n      dup2\n        /* \"TimeAlly.sol\":9139:9172  i < stakings[_userAddress].length */\n      lt\n        /* \"TimeAlly.sol\":9120:9619  for(uint256 i = 0; i < stakings[_userAddress].length; i++) {... */\n      iszero\n      tag_615\n      jumpi\n        /* \"TimeAlly.sol\":9266:9323  isStakingActive(_userAddress, i, _currentMonth, _atMonth) */\n      tag_617\n        /* \"TimeAlly.sol\":9282:9294  _userAddress */\n      dup7\n        /* \"TimeAlly.sol\":9296:9297  i */\n      dup3\n        /* \"TimeAlly.sol\":9299:9312  _currentMonth */\n      dup6\n        /* \"TimeAlly.sol\":9314:9322  _atMonth */\n      dup9\n        /* \"TimeAlly.sol\":9266:9281  isStakingActive */\n      tag_101\n        /* \"TimeAlly.sol\":9266:9323  isStakingActive(_userAddress, i, _currentMonth, _atMonth) */\n      jump\t// in\n    tag_617:\n        /* \"TimeAlly.sol\":9263:9609  if(isStakingActive(_userAddress, i, _currentMonth, _atMonth)) {... */\n      iszero\n      tag_618\n      jumpi\n        /* \"TimeAlly.sol\":9375:9594  userActiveStakingsExaEsAmount... */\n      tag_619\n        /* \"TimeAlly.sol\":9430:9593  stakings[_userAddress][i].exaEsAmount... */\n      tag_620\n        /* \"TimeAlly.sol\":9590:9592  15 */\n      0x0f\n        /* \"TimeAlly.sol\":9430:9564  stakings[_userAddress][i].exaEsAmount... */\n      tag_621\n        /* \"TimeAlly.sol\":9493:9505  stakingPlans */\n      0x06\n        /* \"TimeAlly.sol\":9507:9515  stakings */\n      0x08\n        /* \"TimeAlly.sol\":9507:9529  stakings[_userAddress] */\n      0x00\n        /* \"TimeAlly.sol\":9516:9528  _userAddress */\n      dup13\n        /* \"TimeAlly.sol\":9507:9529  stakings[_userAddress] */\n      0xffffffffffffffffffffffffffffffffffffffff\n      and\n      0xffffffffffffffffffffffffffffffffffffffff\n      and\n      dup2\n      mstore\n      0x20\n      add\n      swap1\n      dup2\n      mstore\n      0x20\n      add\n      0x00\n      keccak256\n        /* \"TimeAlly.sol\":9530:9531  i */\n      dup7\n        /* \"TimeAlly.sol\":9507:9532  stakings[_userAddress][i] */\n      dup2\n      sload\n      dup2\n      lt\n      tag_622\n      jumpi\n      invalid\n    tag_622:\n      swap1\n      0x00\n      mstore\n      keccak256(0x00, 0x20)\n      swap1\n      0x0b\n      mul\n      add\n        /* \"TimeAlly.sol\":9507:9546  stakings[_userAddress][i].stakingPlanId */\n      0x02\n      add\n      sload\n        /* \"TimeAlly.sol\":9493:9548  stakingPlans[ stakings[_userAddress][i].stakingPlanId ] */\n      dup2\n      sload\n      dup2\n      lt\n      tag_624\n      jumpi\n      invalid\n    tag_624:\n      swap1\n      0x00\n      mstore\n      keccak256(0x00, 0x20)\n      swap1\n      0x02\n      mul\n      add\n        /* \"TimeAlly.sol\":9493:9563  stakingPlans[ stakings[_userAddress][i].stakingPlanId ].fractionFrom15 */\n      0x01\n      add\n      sload\n        /* \"TimeAlly.sol\":9430:9438  stakings */\n      0x08\n        /* \"TimeAlly.sol\":9430:9452  stakings[_userAddress] */\n      0x00\n        /* \"TimeAlly.sol\":9439:9451  _userAddress */\n      dup13\n        /* \"TimeAlly.sol\":9430:9452  stakings[_userAddress] */\n      0xffffffffffffffffffffffffffffffffffffffff\n      and\n      0xffffffffffffffffffffffffffffffffffffffff\n      and\n      dup2\n      mstore\n      0x20\n      add\n      swap1\n      dup2\n      mstore\n      0x20\n      add\n      0x00\n      keccak256\n        /* \"TimeAlly.sol\":9453:9454  i */\n      dup7\n        /* \"TimeAlly.sol\":9430:9455  stakings[_userAddress][i] */\n      dup2\n      sload\n      dup2\n      lt\n      tag_626\n      jumpi\n      invalid\n    tag_626:\n      swap1\n      0x00\n      mstore\n      keccak256(0x00, 0x20)\n      swap1\n      0x0b\n      mul\n      add\n        /* \"TimeAlly.sol\":9430:9467  stakings[_userAddress][i].exaEsAmount */\n      0x00\n      add\n      sload\n        /* \"TimeAlly.sol\":9430:9492  stakings[_userAddress][i].exaEsAmount... */\n      tag_212\n      swap1\n        /* \"TimeAlly.sol\":9430:9564  stakings[_userAddress][i].exaEsAmount... */\n      swap2\n      swap1\n      0xffffffff\n      and\n      jump\t// in\n    tag_621:\n        /* \"TimeAlly.sol\":9430:9589  stakings[_userAddress][i].exaEsAmount... */\n      tag_213\n      swap1\n        /* \"TimeAlly.sol\":9430:9593  stakings[_userAddress][i].exaEsAmount... */\n      swap2\n      swap1\n      0xffffffff\n      and\n      jump\t// in\n    tag_620:\n        /* \"TimeAlly.sol\":9375:9404  userActiveStakingsExaEsAmount */\n      dup4\n        /* \"TimeAlly.sol\":9375:9429  userActiveStakingsExaEsAmount... */\n      tag_163\n      swap1\n        /* \"TimeAlly.sol\":9375:9594  userActiveStakingsExaEsAmount... */\n      swap2\n      swap1\n      0xffffffff\n      and\n      jump\t// in\n    tag_619:\n        /* \"TimeAlly.sol\":9343:9594  userActiveStakingsExaEsAmount = userActiveStakingsExaEsAmount... */\n      swap2\n      pop\n        /* \"TimeAlly.sol\":9263:9609  if(isStakingActive(_userAddress, i, _currentMonth, _atMonth)) {... */\n    tag_618:\n        /* \"TimeAlly.sol\":9174:9177  i++ */\n      dup1\n      dup1\n      0x01\n      add\n      swap2\n      pop\n      pop\n        /* \"TimeAlly.sol\":9120:9619  for(uint256 i = 0; i < stakings[_userAddress].length; i++) {... */\n      jump(tag_614)\n    tag_615:\n      pop\n        /* \"TimeAlly.sol\":9636:9665  userActiveStakingsExaEsAmount */\n      dup1\n        /* \"TimeAlly.sol\":9629:9665  return userActiveStakingsExaEsAmount */\n      swap3\n      pop\n      pop\n      pop\n        /* \"TimeAlly.sol\":8618:9672  function userActiveStakingByMonth(address _userAddress, uint256 _atMonth) public view returns (uint256) {... */\n      swap3\n      swap2\n      pop\n      pop\n      jump\t// out\n        /* \"TimeAlly.sol\":1141:1161  Eraswap public token */\n    tag_150:\n      0x01\n      0x00\n      swap1\n      sload\n      swap1\n      0x0100\n      exp\n      swap1\n      div\n      0xffffffffffffffffffffffffffffffffffffffff\n      and\n      dup2\n      jump\t// out\n        /* \"SafeMath.sol\":1211:1356  function sub(uint256 a, uint256 b) internal pure returns (uint256) {... */\n    tag_159:\n        /* \"SafeMath.sol\":1269:1276  uint256 */\n      0x00\n        /* \"SafeMath.sol\":1301:1302  a */\n      dup3\n        /* \"SafeMath.sol\":1296:1297  b */\n      dup3\n        /* \"SafeMath.sol\":1296:1302  b <= a */\n      gt\n      iszero\n        /* \"SafeMath.sol\":1288:1303  require(b <= a) */\n      tag_629\n      jumpi\n      0x00\n      dup1\n      revert\n    tag_629:\n        /* \"SafeMath.sol\":1313:1322  uint256 c */\n      0x00\n        /* \"SafeMath.sol\":1329:1330  b */\n      dup3\n        /* \"SafeMath.sol\":1325:1326  a */\n      dup5\n        /* \"SafeMath.sol\":1325:1330  a - b */\n      sub\n        /* \"SafeMath.sol\":1313:1330  uint256 c = a - b */\n      swap1\n      pop\n        /* \"SafeMath.sol\":1348:1349  c */\n      dup1\n        /* \"SafeMath.sol\":1341:1349  return c */\n      swap2\n      pop\n      pop\n        /* \"SafeMath.sol\":1211:1356  function sub(uint256 a, uint256 b) internal pure returns (uint256) {... */\n      swap3\n      swap2\n      pop\n      pop\n      jump\t// out\n        /* \"SafeMath.sol\":1439:1584  function add(uint256 a, uint256 b) internal pure returns (uint256) {... */\n    tag_163:\n        /* \"SafeMath.sol\":1497:1504  uint256 */\n      0x00\n        /* \"SafeMath.sol\":1516:1525  uint256 c */\n      dup1\n        /* \"SafeMath.sol\":1532:1533  b */\n      dup3\n        /* \"SafeMath.sol\":1528:1529  a */\n      dup5\n        /* \"SafeMath.sol\":1528:1533  a + b */\n      add\n        /* \"SafeMath.sol\":1516:1533  uint256 c = a + b */\n      swap1\n      pop\n        /* \"SafeMath.sol\":1556:1557  a */\n      dup4\n        /* \"SafeMath.sol\":1551:1552  c */\n      dup2\n        /* \"SafeMath.sol\":1551:1557  c >= a */\n      lt\n      iszero\n        /* \"SafeMath.sol\":1543:1558  require(c >= a) */\n      tag_631\n      jumpi\n      0x00\n      dup1\n      revert\n    tag_631:\n        /* \"SafeMath.sol\":1576:1577  c */\n      dup1\n        /* \"SafeMath.sol\":1569:1577  return c */\n      swap2\n      pop\n      pop\n        /* \"SafeMath.sol\":1439:1584  function add(uint256 a, uint256 b) internal pure returns (uint256) {... */\n      swap3\n      swap2\n      pop\n      pop\n      jump\t// out\n        /* \"SafeMath.sol\":231:652  function mul(uint256 a, uint256 b) internal pure returns (uint256) {... */\n    tag_212:\n        /* \"SafeMath.sol\":289:296  uint256 */\n      0x00\n        /* \"SafeMath.sol\":534:535  0 */\n      dup1\n        /* \"SafeMath.sol\":529:530  a */\n      dup4\n        /* \"SafeMath.sol\":529:535  a == 0 */\n      eq\n        /* \"SafeMath.sol\":525:570  if (a == 0) {... */\n      iszero\n      tag_633\n      jumpi\n        /* \"SafeMath.sol\":558:559  0 */\n      0x00\n        /* \"SafeMath.sol\":551:559  return 0 */\n      swap1\n      pop\n      jump(tag_632)\n        /* \"SafeMath.sol\":525:570  if (a == 0) {... */\n    tag_633:\n        /* \"SafeMath.sol\":580:589  uint256 c */\n      0x00\n        /* \"SafeMath.sol\":596:597  b */\n      dup3\n        /* \"SafeMath.sol\":592:593  a */\n      dup5\n        /* \"SafeMath.sol\":592:597  a * b */\n      mul\n        /* \"SafeMath.sol\":580:597  uint256 c = a * b */\n      swap1\n      pop\n        /* \"SafeMath.sol\":624:625  b */\n      dup3\n        /* \"SafeMath.sol\":619:620  a */\n      dup5\n        /* \"SafeMath.sol\":615:616  c */\n      dup3\n        /* \"SafeMath.sol\":615:620  c / a */\n      dup2\n      tag_634\n      jumpi\n      invalid\n    tag_634:\n      div\n        /* \"SafeMath.sol\":615:625  c / a == b */\n      eq\n        /* \"SafeMath.sol\":607:626  require(c / a == b) */\n      tag_635\n      jumpi\n      0x00\n      dup1\n      revert\n    tag_635:\n        /* \"SafeMath.sol\":644:645  c */\n      dup1\n        /* \"SafeMath.sol\":637:645  return c */\n      swap2\n      pop\n      pop\n        /* \"SafeMath.sol\":231:652  function mul(uint256 a, uint256 b) internal pure returns (uint256) {... */\n    tag_632:\n      swap3\n      swap2\n      pop\n      pop\n      jump\t// out\n        /* \"SafeMath.sol\":782:1078  function div(uint256 a, uint256 b) internal pure returns (uint256) {... */\n    tag_213:\n        /* \"SafeMath.sol\":840:847  uint256 */\n      0x00\n        /* \"SafeMath.sol\":937:938  0 */\n      dup1\n        /* \"SafeMath.sol\":933:934  b */\n      dup3\n        /* \"SafeMath.sol\":933:938  b > 0 */\n      gt\n        /* \"SafeMath.sol\":925:939  require(b > 0) */\n      tag_637\n      jumpi\n      0x00\n      dup1\n      revert\n    tag_637:\n        /* \"SafeMath.sol\":949:958  uint256 c */\n      0x00\n        /* \"SafeMath.sol\":965:966  b */\n      dup3\n        /* \"SafeMath.sol\":961:962  a */\n      dup5\n        /* \"SafeMath.sol\":961:966  a / b */\n      dup2\n      tag_638\n      jumpi\n      invalid\n    tag_638:\n      div\n        /* \"SafeMath.sol\":949:966  uint256 c = a / b */\n      swap1\n      pop\n        /* \"SafeMath.sol\":1070:1071  c */\n      dup1\n        /* \"SafeMath.sol\":1063:1071  return c */\n      swap2\n      pop\n      pop\n        /* \"SafeMath.sol\":782:1078  function div(uint256 a, uint256 b) internal pure returns (uint256) {... */\n      swap3\n      swap2\n      pop\n      pop\n      jump\t// out\n        /* \"TimeAlly.sol\":245:28170  contract TimeAlly {... */\n    tag_197:\n      mload(0x40)\n      dup1\n      0x40\n      add\n      0x40\n      mstore\n      dup1\n      0x00\n      dup2\n      mstore\n      0x20\n      add\n      0x00\n      dup2\n      mstore\n      pop\n      swap1\n      jump\t// out\n    tag_505:\n      dup3\n      dup1\n      sload\n      dup3\n      dup3\n      sstore\n      swap1\n      0x00\n      mstore\n      keccak256(0x00, 0x20)\n      swap1\n      dup2\n      add\n      swap3\n      dup3\n      iszero\n      tag_639\n      jumpi\n      swap2\n      0x20\n      mul\n      dup3\n      add\n    tag_640:\n      dup3\n      dup2\n      gt\n      iszero\n      tag_641\n      jumpi\n      dup3\n      mload\n      dup3\n      sstore\n      swap2\n      0x20\n      add\n      swap2\n      swap1\n      0x01\n      add\n      swap1\n      jump(tag_640)\n    tag_641:\n    tag_639:\n      pop\n      swap1\n      pop\n      tag_642\n      swap2\n      swap1\n      tag_643\n      jump\t// in\n    tag_642:\n      pop\n      swap1\n      jump\t// out\n    tag_643:\n      tag_644\n      swap2\n      swap1\n    tag_645:\n      dup1\n      dup3\n      gt\n      iszero\n      tag_646\n      jumpi\n      0x00\n      dup2\n      0x00\n      swap1\n      sstore\n      pop\n      0x01\n      add\n      jump(tag_645)\n    tag_646:\n      pop\n      swap1\n      jump\n    tag_644:\n      swap1\n      jump\t// out\n    stop\n    data_39460daa7a45684f9dd0ed61ccf993f0ceb0e72e199b722f68f8fd8b9a275c06 63616e6e6f74206c6f616e206d6f7265207468616e206d61784c6f616e696e67416d6f756e74\n    data_93da6dd610d9fefb6e1313dcbf2bddd65b198696b7b6534428823c79c90920b5 6163637275656450657263656e746167652073686f756c64206265206174206c65617374203530\n    data_9dc458dbb6ce1791a3f9802dbdb820884214d2513b45f4efec23e9f5109e79ae 63616e6e6f74207265636569766520656e6f75676820746f6b656e732c20706c6561736520636865636b20696620616c6c6f77616e6365206973207468657265\n    data_befd38e7335fb8237cef118812ecee5a2b8ea845f685bf397227db9c69bef0b5 746f74616c20616374697665207374616b696e67732073686f756c64206265206e6f6e207a65726f\n\n    auxdata: 0xa265627a7a72305820ab67a18a79c7d132417976f82bc5fe8faad20ae0d63788adbfcf8a78274941de64736f6c634300050a0032\n}\n","bytecode":{"linkReferences":{},"object":"6080604052622820706004553480156200001857600080fd5b506040516200614b3803806200614b833981810160405260408110156200003e57600080fd5b810190808051906020019092919080519060200190929190505050336000806101000a81548173ffffffffffffffffffffffffffffffffffffffff021916908373ffffffffffffffffffffffffffffffffffffffff16021790555081600160006101000a81548173ffffffffffffffffffffffffffffffffffffffff021916908373ffffffffffffffffffffffffffffffffffffffff16021790555080600260006101000a81548173ffffffffffffffffffffffffffffffffffffffff021916908373ffffffffffffffffffffffffffffffffffffffff160217905550600160009054906101000a900473ffffffffffffffffffffffffffffffffffffffff1673ffffffffffffffffffffffffffffffffffffffff1663b81f90f36040518163ffffffff1660e01b815260040160206040518083038186803b1580156200018457600080fd5b505afa15801562000199573d6000803e3d6000fd5b505050506040513d6020811015620001b057600080fd5b81019080805190602001909291905050506003819055506005600090806001815401808255809150509060018203906000526020600020016000909192909190915055505050615f4580620002066000396000f3fe608060405234801561001057600080fd5b50600436106101f05760003560e01c8063911e8bc61161010f578063da9d8aa0116100a2578063e78c81c411610071578063e78c81c414610c7f578063e83f784314610cad578063eb12f7f514610d65578063fc0c546a14610dc7576101f0565b8063da9d8aa014610bcd578063ddd1b67e14610bfb578063dea6cf4314610c19578063e5fd04e614610c47576101f0565b8063be4ad9c3116100de578063be4ad9c314610994578063c71d5d5814610a80578063cc44a2fd14610ab8578063d0e3268114610b01576101f0565b8063911e8bc61461081c57806397a332d81461086a578063a4c0e90a146108e4578063ad998fa01461093c576101f0565b80634ec0692c116101875780637acab857116101565780637acab857146105f657806382f978571461064e57806388c5f296146106865780638da5cb5b146107d2576101f0565b80634ec0692c146104ef5780634f916fb01461053157806353fcb2f31461057f578063762e7a34146105ad576101f0565b80632f3b59ea116101c35780632f3b59ea1461035b57806335f406ab146103bd57806346a4d6e31461040b578063497ec40f14610490576101f0565b80630df5202f146101f5578063218e731f1461023f57806323a15e6b146102975780632e9721b6146102d9575b600080fd5b6101fd610e11565b604051808273ffffffffffffffffffffffffffffffffffffffff1673ffffffffffffffffffffffffffffffffffffffff16815260200191505060405180910390f35b6102956004803603606081101561025557600080fd5b8101908080359060200190929190803573ffffffffffffffffffffffffffffffffffffffff16906020019092919080359060200190929190505050610e37565b005b6102c3600480360360208110156102ad57600080fd5b810190808035906020019092919050505061141a565b6040518082815260200191505060405180910390f35b610345600480360360608110156102ef57600080fd5b81019080803573ffffffffffffffffffffffffffffffffffffffff16906020019092919080359060200190929190803573ffffffffffffffffffffffffffffffffffffffff16906020019092919050505061143b565b6040518082815260200191505060405180910390f35b6103a76004803603604081101561037157600080fd5b81019080803573ffffffffffffffffffffffffffffffffffffffff169060200190929190803590602001909291905050506114df565b6040518082815260200191505060405180910390f35b610409600480360360808110156103d357600080fd5b81019080803590602001909291908035906020019092919080351515906020019092919080359060200190929190505050611810565b005b6104576004803603604081101561042157600080fd5b81019080803573ffffffffffffffffffffffffffffffffffffffff16906020019092919080359060200190929190505050611eb8565b60405180878152602001868152602001858152602001848152602001838152602001828152602001965050505050505060405180910390f35b6104986120ff565b6040518080602001828103825283818151815260200191508051906020019060200280838360005b838110156104db5780820151818401526020810190506104c0565b505050509050019250505060405180910390f35b61051b6004803603602081101561050557600080fd5b8101908080359060200190929190505050612157565b6040518082815260200191505060405180910390f35b61057d6004803603604081101561054757600080fd5b8101908080359060200190929190803573ffffffffffffffffffffffffffffffffffffffff16906020019092919050505061216f565b005b6105ab6004803603602081101561059557600080fd5b810190808035906020019092919050505061244d565b005b6105d9600480360360208110156105c357600080fd5b8101908080359060200190929190505050612606565b604051808381526020018281526020019250505060405180910390f35b6106386004803603602081101561060c57600080fd5b81019080803573ffffffffffffffffffffffffffffffffffffffff169060200190929190505050612637565b6040518082815260200191505060405180910390f35b6106846004803603604081101561066457600080fd5b81019080803590602001909291908035906020019092919050505061264f565b005b6107d06004803603604081101561069c57600080fd5b81019080803590602001906401000000008111156106b957600080fd5b8201836020820111156106cb57600080fd5b803590602001918460208302840111640100000000831117156106ed57600080fd5b919080806020026020016040519081016040528093929190818152602001838360200280828437600081840152601f19601f8201169050808301925050505050505091929192908035906020019064010000000081111561074d57600080fd5b82018360208201111561075f57600080fd5b8035906020019184602083028401116401000000008311171561078157600080fd5b919080806020026020016040519081016040528093929190818152602001838360200280828437600081840152601f19601f82011690508083019250505050505050919291929050505061276e565b005b6107da6129c7565b604051808273ffffffffffffffffffffffffffffffffffffffff1673ffffffffffffffffffffffffffffffffffffffff16815260200191505060405180910390f35b6108686004803603604081101561083257600080fd5b81019080803573ffffffffffffffffffffffffffffffffffffffff169060200190929190803590602001909291905050506129ec565b005b6108ca6004803603608081101561088057600080fd5b81019080803573ffffffffffffffffffffffffffffffffffffffff169060200190929190803590602001909291908035906020019092919080359060200190929190505050613503565b604051808215151515815260200191505060405180910390f35b61093a600480360360608110156108fa57600080fd5b8101908080359060200190929190803573ffffffffffffffffffffffffffffffffffffffff169060200190929190803590602001909291905050506137c8565b005b61097e6004803603602081101561095257600080fd5b81019080803573ffffffffffffffffffffffffffffffffffffffff169060200190929190505050613b71565b6040518082815260200191505060405180910390f35b610a6a600480360360408110156109aa57600080fd5b81019080803573ffffffffffffffffffffffffffffffffffffffff169060200190929190803590602001906401000000008111156109e757600080fd5b8201836020820111156109f957600080fd5b80359060200191846020830284011164010000000083111715610a1b57600080fd5b919080806020026020016040519081016040528093929190818152602001838360200280828437600081840152601f19601f820116905080830192505050505050509192919290505050613bbd565b6040518082815260200191505060405180910390f35b610ab660048036036040811015610a9657600080fd5b810190808035906020019092919080359060200190929190505050613caf565b005b610ae460048036036020811015610ace57600080fd5b8101908080359060200190929190505050613dce565b604051808381526020018281526020019250505060405180910390f35b610bcb60048036036060811015610b1757600080fd5b81019080803590602001909291908035906020019092919080359060200190640100000000811115610b4857600080fd5b820183602082011115610b5a57600080fd5b80359060200191846020830284011164010000000083111715610b7c57600080fd5b919080806020026020016040519081016040528093929190818152602001838360200280828437600081840152601f19601f820116905080830192505050505050509192919290505050613dff565b005b610bf960048036036020811015610be357600080fd5b810190808035906020019092919050505061480c565b005b610c03614b7c565b6040518082815260200191505060405180910390f35b610c4560048036036020811015610c2f57600080fd5b8101908080359060200190929190505050614b8c565b005b610c7d60048036036040811015610c5d57600080fd5b810190808035906020019092919080359060200190929190505050615226565b005b610cab60048036036020811015610c9557600080fd5b810190808035906020019092919050505061564b565b005b610d6360048036036020811015610cc357600080fd5b8101908080359060200190640100000000811115610ce057600080fd5b820183602082011115610cf257600080fd5b80359060200191846020830284011164010000000083111715610d1457600080fd5b919080806020026020016040519081016040528093929190818152602001838360200280828437600081840152601f19601f82011690508083019250505050505050919291929050505061573d565b005b610db160048036036040811015610d7b57600080fd5b81019080803573ffffffffffffffffffffffffffffffffffffffff16906020019092919080359060200190929190505050615afc565b6040518082815260200191505060405180910390f35b610dcf615d0a565b604051808273ffffffffffffffffffffffffffffffffffffffff1673ffffffffffffffffffffffffffffffffffffffff16815260200191505060405180910390f35b600260009054906101000a900473ffffffffffffffffffffffffffffffffffffffff1681565b6001600860003373ffffffffffffffffffffffffffffffffffffffff1673ffffffffffffffffffffffffffffffffffffffff1681526020019081526020016000208481548110610e8357fe5b90600052602060002090600b02016003015414610f08576040517f08c379a00000000000000000000000000000000000000000000000000000000081526004018080602001828103825260158152602001807f7374616b696e672073686f756c6420616374697665000000000000000000000081525060200191505060405180910390fd5b6000600860003373ffffffffffffffffffffffffffffffffffffffff1673ffffffffffffffffffffffffffffffffffffffff1681526020019081526020016000208481548110610f5457fe5b90600052602060002090600b0201600a0160008473ffffffffffffffffffffffffffffffffffffffff1673ffffffffffffffffffffffffffffffffffffffff168152602001908152602001600020549050808211156111de576000610fc28284615d3090919063ffffffff16565b905061103281600860003373ffffffffffffffffffffffffffffffffffffffff1673ffffffffffffffffffffffffffffffffffffffff168152602001908152602001600020878154811061101257fe5b90600052602060002090600b020160090154615d5090919063ffffffff16565b600860003373ffffffffffffffffffffffffffffffffffffffff1673ffffffffffffffffffffffffffffffffffffffff168152602001908152602001600020868154811061107c57fe5b90600052602060002090600b02016009018190555061113c81600860003373ffffffffffffffffffffffffffffffffffffffff1673ffffffffffffffffffffffffffffffffffffffff16815260200190815260200160002087815481106110df57fe5b90600052602060002090600b0201600a0160008773ffffffffffffffffffffffffffffffffffffffff1673ffffffffffffffffffffffffffffffffffffffff16815260200190815260200160002054615d5090919063ffffffff16565b600860003373ffffffffffffffffffffffffffffffffffffffff1673ffffffffffffffffffffffffffffffffffffffff168152602001908152602001600020868154811061118657fe5b90600052602060002090600b0201600a0160008673ffffffffffffffffffffffffffffffffffffffff1673ffffffffffffffffffffffffffffffffffffffff1681526020019081526020016000208190555050611414565b808210156114135760006111fb8383615d3090919063ffffffff16565b90506112a881600860003373ffffffffffffffffffffffffffffffffffffffff1673ffffffffffffffffffffffffffffffffffffffff168152602001908152602001600020878154811061124b57fe5b90600052602060002090600b0201600a0160008773ffffffffffffffffffffffffffffffffffffffff1673ffffffffffffffffffffffffffffffffffffffff16815260200190815260200160002054615d3090919063ffffffff16565b600860003373ffffffffffffffffffffffffffffffffffffffff1673ffffffffffffffffffffffffffffffffffffffff16815260200190815260200160002086815481106112f257fe5b90600052602060002090600b0201600a0160008673ffffffffffffffffffffffffffffffffffffffff1673ffffffffffffffffffffffffffffffffffffffff168152602001908152602001600020819055506113b281600860003373ffffffffffffffffffffffffffffffffffffffff1673ffffffffffffffffffffffffffffffffffffffff168152602001908152602001600020878154811061139257fe5b90600052602060002090600b020160090154615d3090919063ffffffff16565b600860003373ffffffffffffffffffffffffffffffffffffffff1673ffffffffffffffffffffffffffffffffffffffff16815260200190815260200160002086815481106113fc57fe5b90600052602060002090600b020160090181905550505b5b50505050565b6005818154811061142757fe5b906000526020600020016000915090505481565b6000600860008573ffffffffffffffffffffffffffffffffffffffff1673ffffffffffffffffffffffffffffffffffffffff168152602001908152602001600020838154811061148757fe5b90600052602060002090600b0201600a0160008373ffffffffffffffffffffffffffffffffffffffff1673ffffffffffffffffffffffffffffffffffffffff1681526020019081526020016000205490509392505050565b6000806114ea614b7c565b905080831115611562576040517f08c379a000000000000000000000000000000000000000000000000000000000815260040180806020018281038252601a8152602001807f63616e6e6f742073656520667574757265207374616b696e677300000000000081525060200191505060405180910390fd5b6000600a600085815260200190815260200160002054141561158857600091505061180a565b600080600090505b600860008773ffffffffffffffffffffffffffffffffffffffff1673ffffffffffffffffffffffffffffffffffffffff168152602001908152602001600020805490508110156117b5576115e2615dcf565b6006600860008973ffffffffffffffffffffffffffffffffffffffff1673ffffffffffffffffffffffffffffffffffffffff168152602001908152602001600020838154811061162e57fe5b90600052602060002090600b0201600201548154811061164a57fe5b906000526020600020906002020160405180604001604052908160008201548152602001600182015481525050905061168587838689613503565b80156117085750600860008873ffffffffffffffffffffffffffffffffffffffff1673ffffffffffffffffffffffffffffffffffffffff16815260200190815260200160002082815481106116d657fe5b90600052602060002090600b0201600601600087815260200190815260200160002060009054906101000a900460ff16155b156117a7576117a4611795600f6117878460200151600860008d73ffffffffffffffffffffffffffffffffffffffff1673ffffffffffffffffffffffffffffffffffffffff168152602001908152602001600020878154811061176757fe5b90600052602060002090600b020160000154615d6f90919063ffffffff16565b615da990919063ffffffff16565b84615d5090919063ffffffff16565b92505b508080600101915050611590565b50611805600a6000868152602001908152602001600020546117f7600587815481106117dd57fe5b906000526020600020015484615d6f90919063ffffffff16565b615da990919063ffffffff16565b925050505b92915050565b600061181a614b7c565b905084811015611892576040517f08c379a000000000000000000000000000000000000000000000000000000000815260040180806020018281038252601f8152602001807f63616e6e6f7420776974686472617720667574757265207374616b696e67730081525060200191505060405180910390fd5b6000600a6000838152602001908152602001600020541415611906576000611905576040517f08c379a0000000000000000000000000000000000000000000000000000000008152600401808060200182810382526028815260200180615ee96028913960400191505060405180910390fd5b5b6032841015611960576040517f08c379a0000000000000000000000000000000000000000000000000000000008152600401808060200182810382526027815260200180615e826027913960400191505060405180910390fd5b60008060008090505b600860003373ffffffffffffffffffffffffffffffffffffffff1673ffffffffffffffffffffffffffffffffffffffff16815260200190815260200160002080549050811015611d32576119bb615dcf565b6006600860003373ffffffffffffffffffffffffffffffffffffffff1673ffffffffffffffffffffffffffffffffffffffff1681526020019081526020016000208381548110611a0757fe5b90600052602060002090600b02016002015481548110611a2357fe5b9060005260206000209060020201604051806040016040529081600082015481526020016001820154815250509050611a5e3383878c613503565b8015611ae15750600860003373ffffffffffffffffffffffffffffffffffffffff1673ffffffffffffffffffffffffffffffffffffffff1681526020019081526020016000208281548110611aaf57fe5b90600052602060002090600b020160060160008a815260200190815260200160002060009054906101000a900460ff16155b15611d24576001600860003373ffffffffffffffffffffffffffffffffffffffff1673ffffffffffffffffffffffffffffffffffffffff1681526020019081526020016000208381548110611b3257fe5b90600052602060002090600b020160060160008b815260200190815260200160002060006101000a81548160ff0219169083151502179055506000611bf2600f611be48460200151600860003373ffffffffffffffffffffffffffffffffffffffff1673ffffffffffffffffffffffffffffffffffffffff1681526020019081526020016000208781548110611bc457fe5b90600052602060002090600b020160000154615d6f90919063ffffffff16565b615da990919063ffffffff16565b90506000611c1c6064611c0e8c85615d6f90919063ffffffff16565b615da990919063ffffffff16565b90508815611cf657611c9281600860003373ffffffffffffffffffffffffffffffffffffffff1673ffffffffffffffffffffffffffffffffffffffff1681526020019081526020016000208681548110611c7257fe5b90600052602060002090600b020160040154615d5090919063ffffffff16565b600860003373ffffffffffffffffffffffffffffffffffffffff1673ffffffffffffffffffffffffffffffffffffffff1681526020019081526020016000208581548110611cdc57fe5b90600052602060002090600b020160040181905550611d0c565b611d098186615d5090919063ffffffff16565b94505b611d1f8287615d5090919063ffffffff16565b955050505b508080600101915050611969565b506000611dac6064611d9e89606403611d90600a60008a815260200190815260200160002054611d8260058b81548110611d6857fe5b90600052602060002001548a615d6f90919063ffffffff16565b615da990919063ffffffff16565b615d6f90919063ffffffff16565b615da990919063ffffffff16565b90506000811115611e9d57600160009054906101000a900473ffffffffffffffffffffffffffffffffffffffff1673ffffffffffffffffffffffffffffffffffffffff1663a9059cbb33836040518363ffffffff1660e01b8152600401808373ffffffffffffffffffffffffffffffffffffffff1673ffffffffffffffffffffffffffffffffffffffff16815260200182815260200192505050602060405180830381600087803b158015611e6057600080fd5b505af1158015611e74573d6000803e3d6000fd5b505050506040513d6020811015611e8a57600080fd5b8101908080519060200190929190505050505b8515611eae57611ead8286615226565b5b5050505050505050565b600080600080600080600860008973ffffffffffffffffffffffffffffffffffffffff1673ffffffffffffffffffffffffffffffffffffffff1681526020019081526020016000208781548110611f0b57fe5b90600052602060002090600b020160000154600860008a73ffffffffffffffffffffffffffffffffffffffff1673ffffffffffffffffffffffffffffffffffffffff1681526020019081526020016000208881548110611f6757fe5b90600052602060002090600b020160010154600860008b73ffffffffffffffffffffffffffffffffffffffff1673ffffffffffffffffffffffffffffffffffffffff1681526020019081526020016000208981548110611fc357fe5b90600052602060002090600b020160020154600860008c73ffffffffffffffffffffffffffffffffffffffff1673ffffffffffffffffffffffffffffffffffffffff1681526020019081526020016000208a8154811061201f57fe5b90600052602060002090600b020160030154600860008d73ffffffffffffffffffffffffffffffffffffffff1673ffffffffffffffffffffffffffffffffffffffff1681526020019081526020016000208b8154811061207b57fe5b90600052602060002090600b020160040154600860008e73ffffffffffffffffffffffffffffffffffffffff1673ffffffffffffffffffffffffffffffffffffffff1681526020019081526020016000208c815481106120d757fe5b90600052602060002090600b0201600501549550955095509550955095509295509295509295565b6060600580548060200260200160405190810160405280929190818152602001828054801561214d57602002820191906000526020600020905b815481526020019060010190808311612139575b5050505050905090565b600a6020528060005260406000206000915090505481565b6001600860003373ffffffffffffffffffffffffffffffffffffffff1673ffffffffffffffffffffffffffffffffffffffff16815260200190815260200160002083815481106121bb57fe5b90600052602060002090600b02016003015414612240576040517f08c379a00000000000000000000000000000000000000000000000000000000081526004018080602001828103825260158152602001807f7374616b696e672073686f756c6420616374697665000000000000000000000081525060200191505060405180910390fd5b6000600860003373ffffffffffffffffffffffffffffffffffffffff1673ffffffffffffffffffffffffffffffffffffffff168152602001908152602001600020838154811061228c57fe5b90600052602060002090600b0201600a0160003373ffffffffffffffffffffffffffffffffffffffff1673ffffffffffffffffffffffffffffffffffffffff1681526020019081526020016000205490506000600860003373ffffffffffffffffffffffffffffffffffffffff1673ffffffffffffffffffffffffffffffffffffffff168152602001908152602001600020848154811061232957fe5b90600052602060002090600b0201600a0160008473ffffffffffffffffffffffffffffffffffffffff1673ffffffffffffffffffffffffffffffffffffffff168152602001908152602001600020819055506123e981600860003373ffffffffffffffffffffffffffffffffffffffff1673ffffffffffffffffffffffffffffffffffffffff16815260200190815260200160002085815481106123c957fe5b90600052602060002090600b020160090154615d3090919063ffffffff16565b600860003373ffffffffffffffffffffffffffffffffffffffff1673ffffffffffffffffffffffffffffffffffffffff168152602001908152602001600020848154811061243357fe5b90600052602060002090600b020160090181905550505050565b600160009054906101000a900473ffffffffffffffffffffffffffffffffffffffff1673ffffffffffffffffffffffffffffffffffffffff166323b872dd3330846040518463ffffffff1660e01b8152600401808473ffffffffffffffffffffffffffffffffffffffff1673ffffffffffffffffffffffffffffffffffffffff1681526020018373ffffffffffffffffffffffffffffffffffffffff1673ffffffffffffffffffffffffffffffffffffffff1681526020018281526020019350505050602060405180830381600087803b15801561252a57600080fd5b505af115801561253e573d6000803e3d6000fd5b505050506040513d602081101561255457600080fd5b810190808051906020019092919050505061256e57600080fd5b6125c081600b60003373ffffffffffffffffffffffffffffffffffffffff1673ffffffffffffffffffffffffffffffffffffffff16815260200190815260200160002054615d5090919063ffffffff16565b600b60003373ffffffffffffffffffffffffffffffffffffffff1673ffffffffffffffffffffffffffffffffffffffff1681526020019081526020016000208190555050565b6006818154811061261357fe5b90600052602060002090600202016000915090508060000154908060010154905082565b600b6020528060005260406000206000915090505481565b6000809054906101000a900473ffffffffffffffffffffffffffffffffffffffff1673ffffffffffffffffffffffffffffffffffffffff163373ffffffffffffffffffffffffffffffffffffffff1614612711576040517f08c379a00000000000000000000000000000000000000000000000000000000081526004018080602001828103825260168152602001807f6f6e6c79206465706c6f7965722063616e2063616c6c0000000000000000000081525060200191505060405180910390fd5b60076040518060400160405280848152602001838152509080600181540180825580915050906001820390600052602060002090600202016000909192909190915060008201518160000155602082015181600101555050505050565b6000809054906101000a900473ffffffffffffffffffffffffffffffffffffffff1673ffffffffffffffffffffffffffffffffffffffff163373ffffffffffffffffffffffffffffffffffffffff1614612830576040517f08c379a00000000000000000000000000000000000000000000000000000000081526004018080602001828103825260168152602001807f6f6e6c79206465706c6f7965722063616e2063616c6c0000000000000000000081525060200191505060405180910390fd5b60008090505b82518110156129c2576128a482828151811061284e57fe5b6020026020010151600b60003373ffffffffffffffffffffffffffffffffffffffff1673ffffffffffffffffffffffffffffffffffffffff16815260200190815260200160002054615d3090919063ffffffff16565b600b60003373ffffffffffffffffffffffffffffffffffffffff1673ffffffffffffffffffffffffffffffffffffffff1681526020019081526020016000208190555061295f8282815181106128f657fe5b6020026020010151600b600086858151811061290e57fe5b602002602001015173ffffffffffffffffffffffffffffffffffffffff1673ffffffffffffffffffffffffffffffffffffffff16815260200190815260200160002054615d5090919063ffffffff16565b600b600085848151811061296f57fe5b602002602001015173ffffffffffffffffffffffffffffffffffffffff1673ffffffffffffffffffffffffffffffffffffffff168152602001908152602001600020819055508080600101915050612836565b505050565b6000809054906101000a900473ffffffffffffffffffffffffffffffffffffffff1681565b6000600160009054906101000a900473ffffffffffffffffffffffffffffffffffffffff1673ffffffffffffffffffffffffffffffffffffffff1663b81f90f36040518163ffffffff1660e01b815260040160206040518083038186803b158015612a5657600080fd5b505afa158015612a6a573d6000803e3d6000fd5b505050506040513d6020811015612a8057600080fd5b81019080805190602001909291905050509050600454600c026004546006600860008773ffffffffffffffffffffffffffffffffffffffff1673ffffffffffffffffffffffffffffffffffffffff1681526020019081526020016000208581548110612ae857fe5b90600052602060002090600b02016002015481548110612b0457fe5b90600052602060002090600202016000015402600860008673ffffffffffffffffffffffffffffffffffffffff1673ffffffffffffffffffffffffffffffffffffffff1681526020019081526020016000208481548110612b6157fe5b90600052602060002090600b02016001015401018111612be9576040517f08c379a000000000000000000000000000000000000000000000000000000000815260040180806020018281038252601e8152602001807f63616e6e6f74206e6f6d696e6565207769746864726177206265666f7265000081525060200191505060405180910390fd5b6000600860008573ffffffffffffffffffffffffffffffffffffffff1673ffffffffffffffffffffffffffffffffffffffff1681526020019081526020016000208381548110612c3557fe5b90600052602060002090600b0201600a0160003373ffffffffffffffffffffffffffffffffffffffff1673ffffffffffffffffffffffffffffffffffffffff16815260200190815260200160002054905060008111612cfc576040517f08c379a000000000000000000000000000000000000000000000000000000000815260040180806020018281038252601d8152602001807f4e6f742061206e6f6d696e6565206f662074686973207374616b696e6700000081525060200191505060405180910390fd5b6005600860008673ffffffffffffffffffffffffffffffffffffffff1673ffffffffffffffffffffffffffffffffffffffff1681526020019081526020016000208481548110612d4857fe5b90600052602060002090600b02016003015414612dc1576005600860008673ffffffffffffffffffffffffffffffffffffffff1673ffffffffffffffffffffffffffffffffffffffff1681526020019081526020016000208481548110612dab57fe5b90600052602060002090600b0201600301819055505b6000600860008673ffffffffffffffffffffffffffffffffffffffff1673ffffffffffffffffffffffffffffffffffffffff1681526020019081526020016000208481548110612e0d57fe5b90600052602060002090600b0201600001549050600080612ea8600454612e9a600354600860008c73ffffffffffffffffffffffffffffffffffffffff1673ffffffffffffffffffffffffffffffffffffffff1681526020019081526020016000208a81548110612e7a57fe5b90600052602060002090600b020160010154615d3090919063ffffffff16565b615da990919063ffffffff16565b905060006006600860008a73ffffffffffffffffffffffffffffffffffffffff1673ffffffffffffffffffffffffffffffffffffffff1681526020019081526020016000208881548110612ef857fe5b90600052602060002090600b02016002015481548110612f1457fe5b9060005260206000209060020201600001548201905060008290505b8181101561316857600860008a73ffffffffffffffffffffffffffffffffffffffff1673ffffffffffffffffffffffffffffffffffffffff1681526020019081526020016000208881548110612f8257fe5b90600052602060002090600b0201600601600082815260200190815260200160002060009054906101000a900460ff161561315b5760006130b3600f6130a56006600860008f73ffffffffffffffffffffffffffffffffffffffff1673ffffffffffffffffffffffffffffffffffffffff1681526020019081526020016000208d8154811061300d57fe5b90600052602060002090600b0201600201548154811061302957fe5b906000526020600020906002020160010154600860008f73ffffffffffffffffffffffffffffffffffffffff1673ffffffffffffffffffffffffffffffffffffffff1681526020019081526020016000208d8154811061308557fe5b90600052602060002090600b020160000154615d6f90919063ffffffff16565b615da990919063ffffffff16565b90506000613106600a6000858152602001908152602001600020546130f8600586815481106130de57fe5b906000526020600020015485615d6f90919063ffffffff16565b615da990919063ffffffff16565b905061312e61311f600283615da990919063ffffffff16565b88615d5090919063ffffffff16565b9650613156613147600283615da990919063ffffffff16565b87615d5090919063ffffffff16565b955050505b8080600101915050612f30565b506000600860008a73ffffffffffffffffffffffffffffffffffffffff1673ffffffffffffffffffffffffffffffffffffffff16815260200190815260200160002088815481106131b557fe5b90600052602060002090600b0201600a0160003373ffffffffffffffffffffffffffffffffffffffff1673ffffffffffffffffffffffffffffffffffffffff168152602001908152602001600020819055506000613289600860008b73ffffffffffffffffffffffffffffffffffffffff1673ffffffffffffffffffffffffffffffffffffffff168152602001908152602001600020898154811061325657fe5b90600052602060002090600b02016009015461327b8888615d6f90919063ffffffff16565b615da990919063ffffffff16565b9050600160009054906101000a900473ffffffffffffffffffffffffffffffffffffffff1673ffffffffffffffffffffffffffffffffffffffff1663a9059cbb33836040518363ffffffff1660e01b8152600401808373ffffffffffffffffffffffffffffffffffffffff1673ffffffffffffffffffffffffffffffffffffffff16815260200182815260200192505050602060405180830381600087803b15801561333457600080fd5b505af1158015613348573d6000803e3d6000fd5b505050506040513d602081101561335e57600080fd5b81019080805190602001909291905050505060006133f2600860008c73ffffffffffffffffffffffffffffffffffffffff1673ffffffffffffffffffffffffffffffffffffffff1681526020019081526020016000208a815481106133bf57fe5b90600052602060002090600b0201600901546133e48988615d6f90919063ffffffff16565b615da990919063ffffffff16565b905061344681600b60003373ffffffffffffffffffffffffffffffffffffffff1673ffffffffffffffffffffffffffffffffffffffff16815260200190815260200160002054615d5090919063ffffffff16565b600b60003373ffffffffffffffffffffffffffffffffffffffff1673ffffffffffffffffffffffffffffffffffffffff168152602001908152602001600020819055503373ffffffffffffffffffffffffffffffffffffffff16898b73ffffffffffffffffffffffffffffffffffffffff167fa54cec59552c7f022eed79ede59f759697aa5787f43b11d61f17bfc5adaffb658585604051808381526020018281526020019250505060405180910390a450505050505050505050565b60008061358a60045461357c600354600860008b73ffffffffffffffffffffffffffffffffffffffff1673ffffffffffffffffffffffffffffffffffffffff168152602001908152602001600020898154811061355c57fe5b90600052602060002090600b020160010154615d3090919063ffffffff16565b615da990919063ffffffff16565b905082600182011115801561361a5750826006600860008973ffffffffffffffffffffffffffffffffffffffff1673ffffffffffffffffffffffffffffffffffffffff16815260200190815260200160002087815481106135e757fe5b90600052602060002090600b0201600201548154811061360357fe5b906000526020600020906002020160000154820110155b801561368157506001600860008873ffffffffffffffffffffffffffffffffffffffff1673ffffffffffffffffffffffffffffffffffffffff168152602001908152602001600020868154811061366d57fe5b90600052602060002090600b020160030154145b80156137bd575082841415806137bc57506137166136ac600454838703615d6f90919063ffffffff16565b600860008973ffffffffffffffffffffffffffffffffffffffff1673ffffffffffffffffffffffffffffffffffffffff16815260200190815260200160002087815481106136f657fe5b90600052602060002090600b020160010154615d5090919063ffffffff16565b600160009054906101000a900473ffffffffffffffffffffffffffffffffffffffff1673ffffffffffffffffffffffffffffffffffffffff1663b81f90f36040518163ffffffff1660e01b815260040160206040518083038186803b15801561377e57600080fd5b505afa158015613792573d6000803e3d6000fd5b505050506040513d60208110156137a857600080fd5b810190808051906020019092919050505010155b5b915050949350505050565b6001600860003373ffffffffffffffffffffffffffffffffffffffff1673ffffffffffffffffffffffffffffffffffffffff168152602001908152602001600020848154811061381457fe5b90600052602060002090600b02016003015414613899576040517f08c379a00000000000000000000000000000000000000000000000000000000081526004018080602001828103825260158152602001807f7374616b696e672073686f756c6420616374697665000000000000000000000081525060200191505060405180910390fd5b6000600860003373ffffffffffffffffffffffffffffffffffffffff1673ffffffffffffffffffffffffffffffffffffffff16815260200190815260200160002084815481106138e557fe5b90600052602060002090600b0201600a0160008473ffffffffffffffffffffffffffffffffffffffff1673ffffffffffffffffffffffffffffffffffffffff16815260200190815260200160002054146139a7576040517f08c379a000000000000000000000000000000000000000000000000000000000815260040180806020018281038252601d8152602001807f73686f756c64206e6f74206265206e6f6d696e656520616c726561647900000081525060200191505060405180910390fd5b613a1581600860003373ffffffffffffffffffffffffffffffffffffffff1673ffffffffffffffffffffffffffffffffffffffff16815260200190815260200160002085815481106139f557fe5b90600052602060002090600b020160090154615d5090919063ffffffff16565b600860003373ffffffffffffffffffffffffffffffffffffffff1673ffffffffffffffffffffffffffffffffffffffff1681526020019081526020016000208481548110613a5f57fe5b90600052602060002090600b02016009018190555080600860003373ffffffffffffffffffffffffffffffffffffffff1673ffffffffffffffffffffffffffffffffffffffff1681526020019081526020016000208481548110613abf57fe5b90600052602060002090600b0201600a0160008473ffffffffffffffffffffffffffffffffffffffff1673ffffffffffffffffffffffffffffffffffffffff168152602001908152602001600020819055508173ffffffffffffffffffffffffffffffffffffffff16833373ffffffffffffffffffffffffffffffffffffffff167fc4e7fb51a42ce926bb404f8024c3c91a40af0654d9a96ada67c329b9c9bee4a260405160405180910390a4505050565b6000600860008373ffffffffffffffffffffffffffffffffffffffff1673ffffffffffffffffffffffffffffffffffffffff168152602001908152602001600020805490509050919050565b600080613bc8614b7c565b9050600080600090505b8451811015613c9057613bfa86868381518110613beb57fe5b60200260200101518586613503565b15613c8357613c80600860008873ffffffffffffffffffffffffffffffffffffffff1673ffffffffffffffffffffffffffffffffffffffff168152602001908152602001600020868381518110613c4d57fe5b602002602001015181548110613c5f57fe5b90600052602060002090600b02016000015483615d5090919063ffffffff16565b91505b8080600101915050613bd2565b50613ca5600282615da990919063ffffffff16565b9250505092915050565b6000809054906101000a900473ffffffffffffffffffffffffffffffffffffffff1673ffffffffffffffffffffffffffffffffffffffff163373ffffffffffffffffffffffffffffffffffffffff1614613d71576040517f08c379a00000000000000000000000000000000000000000000000000000000081526004018080602001828103825260168152602001807f6f6e6c79206465706c6f7965722063616e2063616c6c0000000000000000000081525060200191505060405180910390fd5b60066040518060400160405280848152602001838152509080600181540180825580915050906001820390600052602060002090600202016000909192909190915060008201518160000155602082015181600101555050505050565b60078181548110613ddb57fe5b90600052602060002090600202016000915090508060000154908060010154905082565b6000613e09614b7c565b9050600080600090505b835181101561425557613e3b33858381518110613e2c57fe5b60200260200101518586613503565b1561424857613f72613f63600f613f556006600860003373ffffffffffffffffffffffffffffffffffffffff1673ffffffffffffffffffffffffffffffffffffffff168152602001908152602001600020898781518110613e9857fe5b602002602001015181548110613eaa57fe5b90600052602060002090600b02016002015481548110613ec657fe5b906000526020600020906002020160010154600860003373ffffffffffffffffffffffffffffffffffffffff1673ffffffffffffffffffffffffffffffffffffffff168152602001908152602001600020898781518110613f2357fe5b602002602001015181548110613f3557fe5b90600052602060002090600b020160000154615d6f90919063ffffffff16565b615da990919063ffffffff16565b83615d5090919063ffffffff16565b9150600061400d600454613fff600354600860003373ffffffffffffffffffffffffffffffffffffffff1673ffffffffffffffffffffffffffffffffffffffff168152602001908152602001600020898781518110613fcd57fe5b602002602001015181548110613fdf57fe5b90600052602060002090600b020160010154615d3090919063ffffffff16565b615da990919063ffffffff16565b905060006006600860003373ffffffffffffffffffffffffffffffffffffffff1673ffffffffffffffffffffffffffffffffffffffff16815260200190815260200160002087858151811061405e57fe5b60200260200101518154811061407057fe5b90600052602060002090600b0201600201548154811061408c57fe5b9060005260206000209060020201600001548201905060006001860190505b8181116140fc576140d885600a600084815260200190815260200160002054615d3090919063ffffffff16565b600a60008381526020019081526020016000208190555080806001019150506140ab565b506000600190505b6007898154811061411157fe5b9060005260206000209060020201600001548111614244576001600860003373ffffffffffffffffffffffffffffffffffffffff1673ffffffffffffffffffffffffffffffffffffffff16815260200190815260200160002088868151811061417657fe5b60200260200101518154811061418857fe5b90600052602060002090600b02016006016000838901815260200190815260200160002060006101000a81548160ff0219169083151502179055506002600860003373ffffffffffffffffffffffffffffffffffffffff1673ffffffffffffffffffffffffffffffffffffffff16815260200190815260200160002088868151811061421057fe5b60200260200101518154811061422257fe5b90600052602060002090600b0201600301819055508080600101915050614104565b5050505b8080600101915050613e13565b50600061426c600283615da990919063ffffffff16565b9050808511156142ce5760006142cd576040517f08c379a0000000000000000000000000000000000000000000000000000000008152600401808060200182810382526026815260200180615e5c6026913960400191505060405180910390fd5b5b6000614314606461430660078a815481106142e557fe5b90600052602060002090600202016001015489615d6f90919063ffffffff16565b615da990919063ffffffff16565b9050600061432b8288615d3090919063ffffffff16565b9050600160009054906101000a900473ffffffffffffffffffffffffffffffffffffffff1673ffffffffffffffffffffffffffffffffffffffff1663a9059cbb600260009054906101000a900473ffffffffffffffffffffffffffffffffffffffff16846040518363ffffffff1660e01b8152600401808373ffffffffffffffffffffffffffffffffffffffff1673ffffffffffffffffffffffffffffffffffffffff16815260200182815260200192505050602060405180830381600087803b1580156143f857600080fd5b505af115801561440c573d6000803e3d6000fd5b505050506040513d602081101561442257600080fd5b810190808051906020019092919050505061443c57600080fd5b600260009054906101000a900473ffffffffffffffffffffffffffffffffffffffff1673ffffffffffffffffffffffffffffffffffffffff1663382e2aab836040518263ffffffff1660e01b815260040180828152602001915050602060405180830381600087803b1580156144b157600080fd5b505af11580156144c5573d6000803e3d6000fd5b505050506040513d60208110156144db57600080fd5b81019080805190602001909291905050506144f557600080fd5b600960003373ffffffffffffffffffffffffffffffffffffffff1673ffffffffffffffffffffffffffffffffffffffff1681526020019081526020016000206040518060a00160405280898152602001600160009054906101000a900473ffffffffffffffffffffffffffffffffffffffff1673ffffffffffffffffffffffffffffffffffffffff1663b81f90f36040518163ffffffff1660e01b815260040160206040518083038186803b1580156145ad57600080fd5b505afa1580156145c1573d6000803e3d6000fd5b505050506040513d60208110156145d757600080fd5b810190808051906020019092919050505081526020018a815260200160018152602001888152509080600181540180825580915050906001820390600052602060002090600502016000909192909190915060008201518160000155602082015181600101556040820151816002015560608201518160030155608082015181600401908051906020019061466d929190615de9565b50505050600160009054906101000a900473ffffffffffffffffffffffffffffffffffffffff1673ffffffffffffffffffffffffffffffffffffffff1663a9059cbb33836040518363ffffffff1660e01b8152600401808373ffffffffffffffffffffffffffffffffffffffff1673ffffffffffffffffffffffffffffffffffffffff16815260200182815260200192505050602060405180830381600087803b15801561471a57600080fd5b505af115801561472e573d6000803e3d6000fd5b505050506040513d602081101561474457600080fd5b810190808051906020019092919050505061475e57600080fd5b873373ffffffffffffffffffffffffffffffffffffffff167f583f4a449110798c282200ea42774808b8147fa4bcb89a6ca406dd0650e034e789856001600960003373ffffffffffffffffffffffffffffffffffffffff1673ffffffffffffffffffffffffffffffffffffffff168152602001908152602001600020805490500360405180848152602001838152602001828152602001935050505060405180910390a35050505050505050565b6000600b60003373ffffffffffffffffffffffffffffffffffffffff1673ffffffffffffffffffffffffffffffffffffffff168152602001908152602001600020541161485857600080fd5b6000600b60003373ffffffffffffffffffffffffffffffffffffffff1673ffffffffffffffffffffffffffffffffffffffff1681526020019081526020016000205490506000600b60003373ffffffffffffffffffffffffffffffffffffffff1673ffffffffffffffffffffffffffffffffffffffff168152602001908152602001600020819055506000600683815481106148f057fe5b906000526020600020906002020160000154600161490c614b7c565b010190506000600161491c614b7c565b0190505b818110156149625782600a60008381526020019081526020016000205401600a6000838152602001908152602001600020819055508080600101915050614920565b506000600860003373ffffffffffffffffffffffffffffffffffffffff1673ffffffffffffffffffffffffffffffffffffffff168152602001908152602001600020905080604051806101200160405280858152602001600160009054906101000a900473ffffffffffffffffffffffffffffffffffffffff1673ffffffffffffffffffffffffffffffffffffffff1663b81f90f36040518163ffffffff1660e01b815260040160206040518083038186803b158015614a2157600080fd5b505afa158015614a35573d6000803e3d6000fd5b505050506040513d6020811015614a4b57600080fd5b81019080805190602001909291905050508152602001868152602001600181526020016000815260200160008152602001600081526020016000815260200160008152509080600181540180825580915050906001820390600052602060002090600b020160009091929091909150600082015181600001556020820151816001015560408201518160020155606082015181600301556080820151816004015560a0820151816005015560c0820151816007015560e082015181600801556101008201518160090155505050833373ffffffffffffffffffffffffffffffffffffffff167f680a0e2e97ad7c29da7985e37b699f19857c055166f801e50d90661eae30fcc3856001858054905003604051808381526020018281526020019250505060405180910390a350505050565b6000600160058054905003905090565b6001600960003373ffffffffffffffffffffffffffffffffffffffff1673ffffffffffffffffffffffffffffffffffffffff1681526020019081526020016000208281548110614bd857fe5b90600052602060002090600502016003015414614c5d576040517f08c379a000000000000000000000000000000000000000000000000000000000815260040180806020018281038252601c8152602001807f63616e206f6e6c792072657061792070656e64696e67206c6f616e730000000081525060200191505060405180910390fd5b600160009054906101000a900473ffffffffffffffffffffffffffffffffffffffff1673ffffffffffffffffffffffffffffffffffffffff166323b872dd3330600960003373ffffffffffffffffffffffffffffffffffffffff1673ffffffffffffffffffffffffffffffffffffffff1681526020019081526020016000208581548110614ce757fe5b9060005260206000209060050201600001546040518463ffffffff1660e01b8152600401808473ffffffffffffffffffffffffffffffffffffffff1673ffffffffffffffffffffffffffffffffffffffff1681526020018373ffffffffffffffffffffffffffffffffffffffff1673ffffffffffffffffffffffffffffffffffffffff1681526020018281526020019350505050602060405180830381600087803b158015614d9557600080fd5b505af1158015614da9573d6000803e3d6000fd5b505050506040513d6020811015614dbf57600080fd5b8101908080519060200190929190505050614e25576040517f08c379a0000000000000000000000000000000000000000000000000000000008152600401808060200182810382526040815260200180615ea96040913960400191505060405180910390fd5b6002600960003373ffffffffffffffffffffffffffffffffffffffff1673ffffffffffffffffffffffffffffffffffffffff1681526020019081526020016000208281548110614e7157fe5b90600052602060002090600502016003018190555060008090505b600960003373ffffffffffffffffffffffffffffffffffffffff1673ffffffffffffffffffffffffffffffffffffffff1681526020019081526020016000208281548110614ed657fe5b906000526020600020906005020160040180549050811015615222576000600960003373ffffffffffffffffffffffffffffffffffffffff1673ffffffffffffffffffffffffffffffffffffffff1681526020019081526020016000208381548110614f3e57fe5b90600052602060002090600502016004018281548110614f5a57fe5b906000526020600020015490506001600860003373ffffffffffffffffffffffffffffffffffffffff1673ffffffffffffffffffffffffffffffffffffffff1681526020019081526020016000208281548110614fb357fe5b90600052602060002090600b020160030181905550600061504e600454615040600354600860003373ffffffffffffffffffffffffffffffffffffffff1673ffffffffffffffffffffffffffffffffffffffff168152602001908152602001600020868154811061502057fe5b90600052602060002090600b020160010154615d3090919063ffffffff16565b615da990919063ffffffff16565b905060006006600860003373ffffffffffffffffffffffffffffffffffffffff1673ffffffffffffffffffffffffffffffffffffffff168152602001908152602001600020848154811061509e57fe5b90600052602060002090600b020160020154815481106150ba57fe5b90600052602060002090600202016000015482019050600060016150dc614b7c565b0190505b818111615211576000600860003373ffffffffffffffffffffffffffffffffffffffff1673ffffffffffffffffffffffffffffffffffffffff168152602001908152602001600020858154811061513357fe5b90600052602060002090600b0201600601600087815260200190815260200160002060006101000a81548160ff0219169083151502179055506151ed600860003373ffffffffffffffffffffffffffffffffffffffff1673ffffffffffffffffffffffffffffffffffffffff16815260200190815260200160002085815481106151b957fe5b90600052602060002090600b020160000154600a600084815260200190815260200160002054615d5090919063ffffffff16565b600a60008381526020019081526020016000208190555080806001019150506150e0565b505050508080600101915050614e8c565b5050565b600160009054906101000a900473ffffffffffffffffffffffffffffffffffffffff1673ffffffffffffffffffffffffffffffffffffffff166323b872dd3330856040518463ffffffff1660e01b8152600401808473ffffffffffffffffffffffffffffffffffffffff1673ffffffffffffffffffffffffffffffffffffffff1681526020018373ffffffffffffffffffffffffffffffffffffffff1673ffffffffffffffffffffffffffffffffffffffff1681526020018281526020019350505050602060405180830381600087803b15801561530357600080fd5b505af1158015615317573d6000803e3d6000fd5b505050506040513d602081101561532d57600080fd5b81019080805190602001909291905050506153b0576040517f08c379a00000000000000000000000000000000000000000000000000000000081526004018080602001828103825260198152602001807f636f756c64206e6f74207472616e7366657220746f6b656e730000000000000081525060200191505060405180910390fd5b6000600682815481106153bf57fe5b90600052602060002090600202016000015460016153db614b7c565b01019050600060016153eb614b7c565b0190505b818110156154315783600a60008381526020019081526020016000205401600a60008381526020019081526020016000208190555080806001019150506153ef565b506000600860003373ffffffffffffffffffffffffffffffffffffffff1673ffffffffffffffffffffffffffffffffffffffff168152602001908152602001600020905080604051806101200160405280868152602001600160009054906101000a900473ffffffffffffffffffffffffffffffffffffffff1673ffffffffffffffffffffffffffffffffffffffff1663b81f90f36040518163ffffffff1660e01b815260040160206040518083038186803b1580156154f057600080fd5b505afa158015615504573d6000803e3d6000fd5b505050506040513d602081101561551a57600080fd5b81019080805190602001909291905050508152602001858152602001600181526020016000815260200160008152602001600081526020016000815260200160008152509080600181540180825580915050906001820390600052602060002090600b020160009091929091909150600082015181600001556020820151816001015560408201518160020155606082015181600301556080820151816004015560a0820151816005015560c0820151816007015560e082015181600801556101008201518160090155505050823373ffffffffffffffffffffffffffffffffffffffff167f680a0e2e97ad7c29da7985e37b699f19857c055166f801e50d90661eae30fcc3866001858054905003604051808381526020018281526020019250505060405180910390a350505050565b600260009054906101000a900473ffffffffffffffffffffffffffffffffffffffff1673ffffffffffffffffffffffffffffffffffffffff163373ffffffffffffffffffffffffffffffffffffffff161461570e576040517f08c379a00000000000000000000000000000000000000000000000000000000081526004018080602001828103825260198152602001807f6f6e6c79204e5254206d616e616765722063616e2063616c6c0000000000000081525060200191505060405180910390fd5b600581908060018154018082558091505090600182039060005260206000200160009091929091909150555050565b60008090505b8151811015615af8576003600860003373ffffffffffffffffffffffffffffffffffffffff1673ffffffffffffffffffffffffffffffffffffffff16815260200190815260200160002083838151811061579957fe5b6020026020010151815481106157ab57fe5b90600052602060002090600b0201600301819055506000600860003373ffffffffffffffffffffffffffffffffffffffff1673ffffffffffffffffffffffffffffffffffffffff16815260200190815260200160002083838151811061580d57fe5b60200260200101518154811061581f57fe5b90600052602060002090600b0201600401541115615998576000600860003373ffffffffffffffffffffffffffffffffffffffff1673ffffffffffffffffffffffffffffffffffffffff16815260200190815260200160002083838151811061588457fe5b60200260200101518154811061589657fe5b90600052602060002090600b02016004015490506000600860003373ffffffffffffffffffffffffffffffffffffffff1673ffffffffffffffffffffffffffffffffffffffff1681526020019081526020016000208484815181106158f757fe5b60200260200101518154811061590957fe5b90600052602060002090600b02016004018190555061599681600860003373ffffffffffffffffffffffffffffffffffffffff1673ffffffffffffffffffffffffffffffffffffffff16815260200190815260200160002085858151811061596d57fe5b60200260200101518154811061597f57fe5b90600052602060002090600b020160020154615226565b505b600160009054906101000a900473ffffffffffffffffffffffffffffffffffffffff1673ffffffffffffffffffffffffffffffffffffffff1663a9059cbb33600860003373ffffffffffffffffffffffffffffffffffffffff1673ffffffffffffffffffffffffffffffffffffffff168152602001908152602001600020858581518110615a2257fe5b602002602001015181548110615a3457fe5b90600052602060002090600b0201600001546040518363ffffffff1660e01b8152600401808373ffffffffffffffffffffffffffffffffffffffff1673ffffffffffffffffffffffffffffffffffffffff16815260200182815260200192505050602060405180830381600087803b158015615aaf57600080fd5b505af1158015615ac3573d6000803e3d6000fd5b505050506040513d6020811015615ad957600080fd5b8101908080519060200190929190505050508080600101915050615743565b5050565b600080615b07614b7c565b905082811015615b7f576040517f08c379a000000000000000000000000000000000000000000000000000000000815260040180806020018281038252601a8152602001807f63616e6e6f742073656520667574757265207374616b696e677300000000000081525060200191505060405180910390fd5b600080600090505b600860008773ffffffffffffffffffffffffffffffffffffffff1673ffffffffffffffffffffffffffffffffffffffff16815260200190815260200160002080549050811015615cfe57615bdd86828588613503565b15615cf157615cee615cdf600f615cd16006600860008c73ffffffffffffffffffffffffffffffffffffffff1673ffffffffffffffffffffffffffffffffffffffff1681526020019081526020016000208681548110615c3957fe5b90600052602060002090600b02016002015481548110615c5557fe5b906000526020600020906002020160010154600860008c73ffffffffffffffffffffffffffffffffffffffff1673ffffffffffffffffffffffffffffffffffffffff1681526020019081526020016000208681548110615cb157fe5b90600052602060002090600b020160000154615d6f90919063ffffffff16565b615da990919063ffffffff16565b83615d5090919063ffffffff16565b91505b8080600101915050615b87565b50809250505092915050565b600160009054906101000a900473ffffffffffffffffffffffffffffffffffffffff1681565b600082821115615d3f57600080fd5b600082840390508091505092915050565b600080828401905083811015615d6557600080fd5b8091505092915050565b600080831415615d825760009050615da3565b6000828402905082848281615d9357fe5b0414615d9e57600080fd5b809150505b92915050565b6000808211615db757600080fd5b6000828481615dc257fe5b0490508091505092915050565b604051806040016040528060008152602001600081525090565b828054828255906000526020600020908101928215615e25579160200282015b82811115615e24578251825591602001919060010190615e09565b5b509050615e329190615e36565b5090565b615e5891905b80821115615e54576000816000905550600101615e3c565b5090565b9056fe63616e6e6f74206c6f616e206d6f7265207468616e206d61784c6f616e696e67416d6f756e746163637275656450657263656e746167652073686f756c64206265206174206c6561737420353063616e6e6f74207265636569766520656e6f75676820746f6b656e732c20706c6561736520636865636b20696620616c6c6f77616e6365206973207468657265746f74616c20616374697665207374616b696e67732073686f756c64206265206e6f6e207a65726fa265627a7a72305820ab67a18a79c7d132417976f82bc5fe8faad20ae0d63788adbfcf8a78274941de64736f6c634300050a0032","opcodes":"PUSH1 0x80 PUSH1 0x40 MSTORE PUSH3 0x282070 PUSH1 0x4 SSTORE CALLVALUE DUP1 ISZERO PUSH3 0x18 JUMPI PUSH1 0x0 DUP1 REVERT JUMPDEST POP PUSH1 0x40 MLOAD PUSH3 0x614B CODESIZE SUB DUP1 PUSH3 0x614B DUP4 CODECOPY DUP2 DUP2 ADD PUSH1 0x40 MSTORE PUSH1 0x40 DUP2 LT ISZERO PUSH3 0x3E JUMPI PUSH1 0x0 DUP1 REVERT JUMPDEST DUP2 ADD SWAP1 DUP1 DUP1 MLOAD SWAP1 PUSH1 0x20 ADD SWAP1 SWAP3 SWAP2 SWAP1 DUP1 MLOAD SWAP1 PUSH1 0x20 ADD SWAP1 SWAP3 SWAP2 SWAP1 POP POP POP CALLER PUSH1 0x0 DUP1 PUSH2 0x100 EXP DUP2 SLOAD DUP2 PUSH20 0xFFFFFFFFFFFFFFFFFFFFFFFFFFFFFFFFFFFFFFFF MUL NOT AND SWAP1 DUP4 PUSH20 0xFFFFFFFFFFFFFFFFFFFFFFFFFFFFFFFFFFFFFFFF AND MUL OR SWAP1 SSTORE POP DUP2 PUSH1 0x1 PUSH1 0x0 PUSH2 0x100 EXP DUP2 SLOAD DUP2 PUSH20 0xFFFFFFFFFFFFFFFFFFFFFFFFFFFFFFFFFFFFFFFF MUL NOT AND SWAP1 DUP4 PUSH20 0xFFFFFFFFFFFFFFFFFFFFFFFFFFFFFFFFFFFFFFFF AND MUL OR SWAP1 SSTORE POP DUP1 PUSH1 0x2 PUSH1 0x0 PUSH2 0x100 EXP DUP2 SLOAD DUP2 PUSH20 0xFFFFFFFFFFFFFFFFFFFFFFFFFFFFFFFFFFFFFFFF MUL NOT AND SWAP1 DUP4 PUSH20 0xFFFFFFFFFFFFFFFFFFFFFFFFFFFFFFFFFFFFFFFF AND MUL OR SWAP1 SSTORE POP PUSH1 0x1 PUSH1 0x0 SWAP1 SLOAD SWAP1 PUSH2 0x100 EXP SWAP1 DIV PUSH20 0xFFFFFFFFFFFFFFFFFFFFFFFFFFFFFFFFFFFFFFFF AND PUSH20 0xFFFFFFFFFFFFFFFFFFFFFFFFFFFFFFFFFFFFFFFF AND PUSH4 0xB81F90F3 PUSH1 0x40 MLOAD DUP2 PUSH4 0xFFFFFFFF AND PUSH1 0xE0 SHL DUP2 MSTORE PUSH1 0x4 ADD PUSH1 0x20 PUSH1 0x40 MLOAD DUP1 DUP4 SUB DUP2 DUP7 DUP1 EXTCODESIZE ISZERO DUP1 ISZERO PUSH3 0x184 JUMPI PUSH1 0x0 DUP1 REVERT JUMPDEST POP GAS STATICCALL ISZERO DUP1 ISZERO PUSH3 0x199 JUMPI RETURNDATASIZE PUSH1 0x0 DUP1 RETURNDATACOPY RETURNDATASIZE PUSH1 0x0 REVERT JUMPDEST POP POP POP POP PUSH1 0x40 MLOAD RETURNDATASIZE PUSH1 0x20 DUP2 LT ISZERO PUSH3 0x1B0 JUMPI PUSH1 0x0 DUP1 REVERT JUMPDEST DUP2 ADD SWAP1 DUP1 DUP1 MLOAD SWAP1 PUSH1 0x20 ADD SWAP1 SWAP3 SWAP2 SWAP1 POP POP POP PUSH1 0x3 DUP2 SWAP1 SSTORE POP PUSH1 0x5 PUSH1 0x0 SWAP1 DUP1 PUSH1 0x1 DUP2 SLOAD ADD DUP1 DUP3 SSTORE DUP1 SWAP2 POP POP SWAP1 PUSH1 0x1 DUP3 SUB SWAP1 PUSH1 0x0 MSTORE PUSH1 0x20 PUSH1 0x0 KECCAK256 ADD PUSH1 0x0 SWAP1 SWAP2 SWAP3 SWAP1 SWAP2 SWAP1 SWAP2 POP SSTORE POP POP POP PUSH2 0x5F45 DUP1 PUSH3 0x206 PUSH1 0x0 CODECOPY PUSH1 0x0 RETURN INVALID PUSH1 0x80 PUSH1 0x40 MSTORE CALLVALUE DUP1 ISZERO PUSH2 0x10 JUMPI PUSH1 0x0 DUP1 REVERT JUMPDEST POP PUSH1 0x4 CALLDATASIZE LT PUSH2 0x1F0 JUMPI PUSH1 0x0 CALLDATALOAD PUSH1 0xE0 SHR DUP1 PUSH4 0x911E8BC6 GT PUSH2 0x10F JUMPI DUP1 PUSH4 0xDA9D8AA0 GT PUSH2 0xA2 JUMPI DUP1 PUSH4 0xE78C81C4 GT PUSH2 0x71 JUMPI DUP1 PUSH4 0xE78C81C4 EQ PUSH2 0xC7F JUMPI DUP1 PUSH4 0xE83F7843 EQ PUSH2 0xCAD JUMPI DUP1 PUSH4 0xEB12F7F5 EQ PUSH2 0xD65 JUMPI DUP1 PUSH4 0xFC0C546A EQ PUSH2 0xDC7 JUMPI PUSH2 0x1F0 JUMP JUMPDEST DUP1 PUSH4 0xDA9D8AA0 EQ PUSH2 0xBCD JUMPI DUP1 PUSH4 0xDDD1B67E EQ PUSH2 0xBFB JUMPI DUP1 PUSH4 0xDEA6CF43 EQ PUSH2 0xC19 JUMPI DUP1 PUSH4 0xE5FD04E6 EQ PUSH2 0xC47 JUMPI PUSH2 0x1F0 JUMP JUMPDEST DUP1 PUSH4 0xBE4AD9C3 GT PUSH2 0xDE JUMPI DUP1 PUSH4 0xBE4AD9C3 EQ PUSH2 0x994 JUMPI DUP1 PUSH4 0xC71D5D58 EQ PUSH2 0xA80 JUMPI DUP1 PUSH4 0xCC44A2FD EQ PUSH2 0xAB8 JUMPI DUP1 PUSH4 0xD0E32681 EQ PUSH2 0xB01 JUMPI PUSH2 0x1F0 JUMP JUMPDEST DUP1 PUSH4 0x911E8BC6 EQ PUSH2 0x81C JUMPI DUP1 PUSH4 0x97A332D8 EQ PUSH2 0x86A JUMPI DUP1 PUSH4 0xA4C0E90A EQ PUSH2 0x8E4 JUMPI DUP1 PUSH4 0xAD998FA0 EQ PUSH2 0x93C JUMPI PUSH2 0x1F0 JUMP JUMPDEST DUP1 PUSH4 0x4EC0692C GT PUSH2 0x187 JUMPI DUP1 PUSH4 0x7ACAB857 GT PUSH2 0x156 JUMPI DUP1 PUSH4 0x7ACAB857 EQ PUSH2 0x5F6 JUMPI DUP1 PUSH4 0x82F97857 EQ PUSH2 0x64E JUMPI DUP1 PUSH4 0x88C5F296 EQ PUSH2 0x686 JUMPI DUP1 PUSH4 0x8DA5CB5B EQ PUSH2 0x7D2 JUMPI PUSH2 0x1F0 JUMP JUMPDEST DUP1 PUSH4 0x4EC0692C EQ PUSH2 0x4EF JUMPI DUP1 PUSH4 0x4F916FB0 EQ PUSH2 0x531 JUMPI DUP1 PUSH4 0x53FCB2F3 EQ PUSH2 0x57F JUMPI DUP1 PUSH4 0x762E7A34 EQ PUSH2 0x5AD JUMPI PUSH2 0x1F0 JUMP JUMPDEST DUP1 PUSH4 0x2F3B59EA GT PUSH2 0x1C3 JUMPI DUP1 PUSH4 0x2F3B59EA EQ PUSH2 0x35B JUMPI DUP1 PUSH4 0x35F406AB EQ PUSH2 0x3BD JUMPI DUP1 PUSH4 0x46A4D6E3 EQ PUSH2 0x40B JUMPI DUP1 PUSH4 0x497EC40F EQ PUSH2 0x490 JUMPI PUSH2 0x1F0 JUMP JUMPDEST DUP1 PUSH4 0xDF5202F EQ PUSH2 0x1F5 JUMPI DUP1 PUSH4 0x218E731F EQ PUSH2 0x23F JUMPI DUP1 PUSH4 0x23A15E6B EQ PUSH2 0x297 JUMPI DUP1 PUSH4 0x2E9721B6 EQ PUSH2 0x2D9 JUMPI JUMPDEST PUSH1 0x0 DUP1 REVERT JUMPDEST PUSH2 0x1FD PUSH2 0xE11 JUMP JUMPDEST PUSH1 0x40 MLOAD DUP1 DUP3 PUSH20 0xFFFFFFFFFFFFFFFFFFFFFFFFFFFFFFFFFFFFFFFF AND PUSH20 0xFFFFFFFFFFFFFFFFFFFFFFFFFFFFFFFFFFFFFFFF AND DUP2 MSTORE PUSH1 0x20 ADD SWAP2 POP POP PUSH1 0x40 MLOAD DUP1 SWAP2 SUB SWAP1 RETURN JUMPDEST PUSH2 0x295 PUSH1 0x4 DUP1 CALLDATASIZE SUB PUSH1 0x60 DUP2 LT ISZERO PUSH2 0x255 JUMPI PUSH1 0x0 DUP1 REVERT JUMPDEST DUP2 ADD SWAP1 DUP1 DUP1 CALLDATALOAD SWAP1 PUSH1 0x20 ADD SWAP1 SWAP3 SWAP2 SWAP1 DUP1 CALLDATALOAD PUSH20 0xFFFFFFFFFFFFFFFFFFFFFFFFFFFFFFFFFFFFFFFF AND SWAP1 PUSH1 0x20 ADD SWAP1 SWAP3 SWAP2 SWAP1 DUP1 CALLDATALOAD SWAP1 PUSH1 0x20 ADD SWAP1 SWAP3 SWAP2 SWAP1 POP POP POP PUSH2 0xE37 JUMP JUMPDEST STOP JUMPDEST PUSH2 0x2C3 PUSH1 0x4 DUP1 CALLDATASIZE SUB PUSH1 0x20 DUP2 LT ISZERO PUSH2 0x2AD JUMPI PUSH1 0x0 DUP1 REVERT JUMPDEST DUP2 ADD SWAP1 DUP1 DUP1 CALLDATALOAD SWAP1 PUSH1 0x20 ADD SWAP1 SWAP3 SWAP2 SWAP1 POP POP POP PUSH2 0x141A JUMP JUMPDEST PUSH1 0x40 MLOAD DUP1 DUP3 DUP2 MSTORE PUSH1 0x20 ADD SWAP2 POP POP PUSH1 0x40 MLOAD DUP1 SWAP2 SUB SWAP1 RETURN JUMPDEST PUSH2 0x345 PUSH1 0x4 DUP1 CALLDATASIZE SUB PUSH1 0x60 DUP2 LT ISZERO PUSH2 0x2EF JUMPI PUSH1 0x0 DUP1 REVERT JUMPDEST DUP2 ADD SWAP1 DUP1 DUP1 CALLDATALOAD PUSH20 0xFFFFFFFFFFFFFFFFFFFFFFFFFFFFFFFFFFFFFFFF AND SWAP1 PUSH1 0x20 ADD SWAP1 SWAP3 SWAP2 SWAP1 DUP1 CALLDATALOAD SWAP1 PUSH1 0x20 ADD SWAP1 SWAP3 SWAP2 SWAP1 DUP1 CALLDATALOAD PUSH20 0xFFFFFFFFFFFFFFFFFFFFFFFFFFFFFFFFFFFFFFFF AND SWAP1 PUSH1 0x20 ADD SWAP1 SWAP3 SWAP2 SWAP1 POP POP POP PUSH2 0x143B JUMP JUMPDEST PUSH1 0x40 MLOAD DUP1 DUP3 DUP2 MSTORE PUSH1 0x20 ADD SWAP2 POP POP PUSH1 0x40 MLOAD DUP1 SWAP2 SUB SWAP1 RETURN JUMPDEST PUSH2 0x3A7 PUSH1 0x4 DUP1 CALLDATASIZE SUB PUSH1 0x40 DUP2 LT ISZERO PUSH2 0x371 JUMPI PUSH1 0x0 DUP1 REVERT JUMPDEST DUP2 ADD SWAP1 DUP1 DUP1 CALLDATALOAD PUSH20 0xFFFFFFFFFFFFFFFFFFFFFFFFFFFFFFFFFFFFFFFF AND SWAP1 PUSH1 0x20 ADD SWAP1 SWAP3 SWAP2 SWAP1 DUP1 CALLDATALOAD SWAP1 PUSH1 0x20 ADD SWAP1 SWAP3 SWAP2 SWAP1 POP POP POP PUSH2 0x14DF JUMP JUMPDEST PUSH1 0x40 MLOAD DUP1 DUP3 DUP2 MSTORE PUSH1 0x20 ADD SWAP2 POP POP PUSH1 0x40 MLOAD DUP1 SWAP2 SUB SWAP1 RETURN JUMPDEST PUSH2 0x409 PUSH1 0x4 DUP1 CALLDATASIZE SUB PUSH1 0x80 DUP2 LT ISZERO PUSH2 0x3D3 JUMPI PUSH1 0x0 DUP1 REVERT JUMPDEST DUP2 ADD SWAP1 DUP1 DUP1 CALLDATALOAD SWAP1 PUSH1 0x20 ADD SWAP1 SWAP3 SWAP2 SWAP1 DUP1 CALLDATALOAD SWAP1 PUSH1 0x20 ADD SWAP1 SWAP3 SWAP2 SWAP1 DUP1 CALLDATALOAD ISZERO ISZERO SWAP1 PUSH1 0x20 ADD SWAP1 SWAP3 SWAP2 SWAP1 DUP1 CALLDATALOAD SWAP1 PUSH1 0x20 ADD SWAP1 SWAP3 SWAP2 SWAP1 POP POP POP PUSH2 0x1810 JUMP JUMPDEST STOP JUMPDEST PUSH2 0x457 PUSH1 0x4 DUP1 CALLDATASIZE SUB PUSH1 0x40 DUP2 LT ISZERO PUSH2 0x421 JUMPI PUSH1 0x0 DUP1 REVERT JUMPDEST DUP2 ADD SWAP1 DUP1 DUP1 CALLDATALOAD PUSH20 0xFFFFFFFFFFFFFFFFFFFFFFFFFFFFFFFFFFFFFFFF AND SWAP1 PUSH1 0x20 ADD SWAP1 SWAP3 SWAP2 SWAP1 DUP1 CALLDATALOAD SWAP1 PUSH1 0x20 ADD SWAP1 SWAP3 SWAP2 SWAP1 POP POP POP PUSH2 0x1EB8 JUMP JUMPDEST PUSH1 0x40 MLOAD DUP1 DUP8 DUP2 MSTORE PUSH1 0x20 ADD DUP7 DUP2 MSTORE PUSH1 0x20 ADD DUP6 DUP2 MSTORE PUSH1 0x20 ADD DUP5 DUP2 MSTORE PUSH1 0x20 ADD DUP4 DUP2 MSTORE PUSH1 0x20 ADD DUP3 DUP2 MSTORE PUSH1 0x20 ADD SWAP7 POP POP POP POP POP POP POP PUSH1 0x40 MLOAD DUP1 SWAP2 SUB SWAP1 RETURN JUMPDEST PUSH2 0x498 PUSH2 0x20FF JUMP JUMPDEST PUSH1 0x40 MLOAD DUP1 DUP1 PUSH1 0x20 ADD DUP3 DUP2 SUB DUP3 MSTORE DUP4 DUP2 DUP2 MLOAD DUP2 MSTORE PUSH1 0x20 ADD SWAP2 POP DUP1 MLOAD SWAP1 PUSH1 0x20 ADD SWAP1 PUSH1 0x20 MUL DUP1 DUP4 DUP4 PUSH1 0x0 JUMPDEST DUP4 DUP2 LT ISZERO PUSH2 0x4DB JUMPI DUP1 DUP3 ADD MLOAD DUP2 DUP5 ADD MSTORE PUSH1 0x20 DUP2 ADD SWAP1 POP PUSH2 0x4C0 JUMP JUMPDEST POP POP POP POP SWAP1 POP ADD SWAP3 POP POP POP PUSH1 0x40 MLOAD DUP1 SWAP2 SUB SWAP1 RETURN JUMPDEST PUSH2 0x51B PUSH1 0x4 DUP1 CALLDATASIZE SUB PUSH1 0x20 DUP2 LT ISZERO PUSH2 0x505 JUMPI PUSH1 0x0 DUP1 REVERT JUMPDEST DUP2 ADD SWAP1 DUP1 DUP1 CALLDATALOAD SWAP1 PUSH1 0x20 ADD SWAP1 SWAP3 SWAP2 SWAP1 POP POP POP PUSH2 0x2157 JUMP JUMPDEST PUSH1 0x40 MLOAD DUP1 DUP3 DUP2 MSTORE PUSH1 0x20 ADD SWAP2 POP POP PUSH1 0x40 MLOAD DUP1 SWAP2 SUB SWAP1 RETURN JUMPDEST PUSH2 0x57D PUSH1 0x4 DUP1 CALLDATASIZE SUB PUSH1 0x40 DUP2 LT ISZERO PUSH2 0x547 JUMPI PUSH1 0x0 DUP1 REVERT JUMPDEST DUP2 ADD SWAP1 DUP1 DUP1 CALLDATALOAD SWAP1 PUSH1 0x20 ADD SWAP1 SWAP3 SWAP2 SWAP1 DUP1 CALLDATALOAD PUSH20 0xFFFFFFFFFFFFFFFFFFFFFFFFFFFFFFFFFFFFFFFF AND SWAP1 PUSH1 0x20 ADD SWAP1 SWAP3 SWAP2 SWAP1 POP POP POP PUSH2 0x216F JUMP JUMPDEST STOP JUMPDEST PUSH2 0x5AB PUSH1 0x4 DUP1 CALLDATASIZE SUB PUSH1 0x20 DUP2 LT ISZERO PUSH2 0x595 JUMPI PUSH1 0x0 DUP1 REVERT JUMPDEST DUP2 ADD SWAP1 DUP1 DUP1 CALLDATALOAD SWAP1 PUSH1 0x20 ADD SWAP1 SWAP3 SWAP2 SWAP1 POP POP POP PUSH2 0x244D JUMP JUMPDEST STOP JUMPDEST PUSH2 0x5D9 PUSH1 0x4 DUP1 CALLDATASIZE SUB PUSH1 0x20 DUP2 LT ISZERO PUSH2 0x5C3 JUMPI PUSH1 0x0 DUP1 REVERT JUMPDEST DUP2 ADD SWAP1 DUP1 DUP1 CALLDATALOAD SWAP1 PUSH1 0x20 ADD SWAP1 SWAP3 SWAP2 SWAP1 POP POP POP PUSH2 0x2606 JUMP JUMPDEST PUSH1 0x40 MLOAD DUP1 DUP4 DUP2 MSTORE PUSH1 0x20 ADD DUP3 DUP2 MSTORE PUSH1 0x20 ADD SWAP3 POP POP POP PUSH1 0x40 MLOAD DUP1 SWAP2 SUB SWAP1 RETURN JUMPDEST PUSH2 0x638 PUSH1 0x4 DUP1 CALLDATASIZE SUB PUSH1 0x20 DUP2 LT ISZERO PUSH2 0x60C JUMPI PUSH1 0x0 DUP1 REVERT JUMPDEST DUP2 ADD SWAP1 DUP1 DUP1 CALLDATALOAD PUSH20 0xFFFFFFFFFFFFFFFFFFFFFFFFFFFFFFFFFFFFFFFF AND SWAP1 PUSH1 0x20 ADD SWAP1 SWAP3 SWAP2 SWAP1 POP POP POP PUSH2 0x2637 JUMP JUMPDEST PUSH1 0x40 MLOAD DUP1 DUP3 DUP2 MSTORE PUSH1 0x20 ADD SWAP2 POP POP PUSH1 0x40 MLOAD DUP1 SWAP2 SUB SWAP1 RETURN JUMPDEST PUSH2 0x684 PUSH1 0x4 DUP1 CALLDATASIZE SUB PUSH1 0x40 DUP2 LT ISZERO PUSH2 0x664 JUMPI PUSH1 0x0 DUP1 REVERT JUMPDEST DUP2 ADD SWAP1 DUP1 DUP1 CALLDATALOAD SWAP1 PUSH1 0x20 ADD SWAP1 SWAP3 SWAP2 SWAP1 DUP1 CALLDATALOAD SWAP1 PUSH1 0x20 ADD SWAP1 SWAP3 SWAP2 SWAP1 POP POP POP PUSH2 0x264F JUMP JUMPDEST STOP JUMPDEST PUSH2 0x7D0 PUSH1 0x4 DUP1 CALLDATASIZE SUB PUSH1 0x40 DUP2 LT ISZERO PUSH2 0x69C JUMPI PUSH1 0x0 DUP1 REVERT JUMPDEST DUP2 ADD SWAP1 DUP1 DUP1 CALLDATALOAD SWAP1 PUSH1 0x20 ADD SWAP1 PUSH5 0x100000000 DUP2 GT ISZERO PUSH2 0x6B9 JUMPI PUSH1 0x0 DUP1 REVERT JUMPDEST DUP3 ADD DUP4 PUSH1 0x20 DUP3 ADD GT ISZERO PUSH2 0x6CB JUMPI PUSH1 0x0 DUP1 REVERT JUMPDEST DUP1 CALLDATALOAD SWAP1 PUSH1 0x20 ADD SWAP2 DUP5 PUSH1 0x20 DUP4 MUL DUP5 ADD GT PUSH5 0x100000000 DUP4 GT OR ISZERO PUSH2 0x6ED JUMPI PUSH1 0x0 DUP1 REVERT JUMPDEST SWAP2 SWAP1 DUP1 DUP1 PUSH1 0x20 MUL PUSH1 0x20 ADD PUSH1 0x40 MLOAD SWAP1 DUP2 ADD PUSH1 0x40 MSTORE DUP1 SWAP4 SWAP3 SWAP2 SWAP1 DUP2 DUP2 MSTORE PUSH1 0x20 ADD DUP4 DUP4 PUSH1 0x20 MUL DUP1 DUP3 DUP5 CALLDATACOPY PUSH1 0x0 DUP2 DUP5 ADD MSTORE PUSH1 0x1F NOT PUSH1 0x1F DUP3 ADD AND SWAP1 POP DUP1 DUP4 ADD SWAP3 POP POP POP POP POP POP POP SWAP2 SWAP3 SWAP2 SWAP3 SWAP1 DUP1 CALLDATALOAD SWAP1 PUSH1 0x20 ADD SWAP1 PUSH5 0x100000000 DUP2 GT ISZERO PUSH2 0x74D JUMPI PUSH1 0x0 DUP1 REVERT JUMPDEST DUP3 ADD DUP4 PUSH1 0x20 DUP3 ADD GT ISZERO PUSH2 0x75F JUMPI PUSH1 0x0 DUP1 REVERT JUMPDEST DUP1 CALLDATALOAD SWAP1 PUSH1 0x20 ADD SWAP2 DUP5 PUSH1 0x20 DUP4 MUL DUP5 ADD GT PUSH5 0x100000000 DUP4 GT OR ISZERO PUSH2 0x781 JUMPI PUSH1 0x0 DUP1 REVERT JUMPDEST SWAP2 SWAP1 DUP1 DUP1 PUSH1 0x20 MUL PUSH1 0x20 ADD PUSH1 0x40 MLOAD SWAP1 DUP2 ADD PUSH1 0x40 MSTORE DUP1 SWAP4 SWAP3 SWAP2 SWAP1 DUP2 DUP2 MSTORE PUSH1 0x20 ADD DUP4 DUP4 PUSH1 0x20 MUL DUP1 DUP3 DUP5 CALLDATACOPY PUSH1 0x0 DUP2 DUP5 ADD MSTORE PUSH1 0x1F NOT PUSH1 0x1F DUP3 ADD AND SWAP1 POP DUP1 DUP4 ADD SWAP3 POP POP POP POP POP POP POP SWAP2 SWAP3 SWAP2 SWAP3 SWAP1 POP POP POP PUSH2 0x276E JUMP JUMPDEST STOP JUMPDEST PUSH2 0x7DA PUSH2 0x29C7 JUMP JUMPDEST PUSH1 0x40 MLOAD DUP1 DUP3 PUSH20 0xFFFFFFFFFFFFFFFFFFFFFFFFFFFFFFFFFFFFFFFF AND PUSH20 0xFFFFFFFFFFFFFFFFFFFFFFFFFFFFFFFFFFFFFFFF AND DUP2 MSTORE PUSH1 0x20 ADD SWAP2 POP POP PUSH1 0x40 MLOAD DUP1 SWAP2 SUB SWAP1 RETURN JUMPDEST PUSH2 0x868 PUSH1 0x4 DUP1 CALLDATASIZE SUB PUSH1 0x40 DUP2 LT ISZERO PUSH2 0x832 JUMPI PUSH1 0x0 DUP1 REVERT JUMPDEST DUP2 ADD SWAP1 DUP1 DUP1 CALLDATALOAD PUSH20 0xFFFFFFFFFFFFFFFFFFFFFFFFFFFFFFFFFFFFFFFF AND SWAP1 PUSH1 0x20 ADD SWAP1 SWAP3 SWAP2 SWAP1 DUP1 CALLDATALOAD SWAP1 PUSH1 0x20 ADD SWAP1 SWAP3 SWAP2 SWAP1 POP POP POP PUSH2 0x29EC JUMP JUMPDEST STOP JUMPDEST PUSH2 0x8CA PUSH1 0x4 DUP1 CALLDATASIZE SUB PUSH1 0x80 DUP2 LT ISZERO PUSH2 0x880 JUMPI PUSH1 0x0 DUP1 REVERT JUMPDEST DUP2 ADD SWAP1 DUP1 DUP1 CALLDATALOAD PUSH20 0xFFFFFFFFFFFFFFFFFFFFFFFFFFFFFFFFFFFFFFFF AND SWAP1 PUSH1 0x20 ADD SWAP1 SWAP3 SWAP2 SWAP1 DUP1 CALLDATALOAD SWAP1 PUSH1 0x20 ADD SWAP1 SWAP3 SWAP2 SWAP1 DUP1 CALLDATALOAD SWAP1 PUSH1 0x20 ADD SWAP1 SWAP3 SWAP2 SWAP1 DUP1 CALLDATALOAD SWAP1 PUSH1 0x20 ADD SWAP1 SWAP3 SWAP2 SWAP1 POP POP POP PUSH2 0x3503 JUMP JUMPDEST PUSH1 0x40 MLOAD DUP1 DUP3 ISZERO ISZERO ISZERO ISZERO DUP2 MSTORE PUSH1 0x20 ADD SWAP2 POP POP PUSH1 0x40 MLOAD DUP1 SWAP2 SUB SWAP1 RETURN JUMPDEST PUSH2 0x93A PUSH1 0x4 DUP1 CALLDATASIZE SUB PUSH1 0x60 DUP2 LT ISZERO PUSH2 0x8FA JUMPI PUSH1 0x0 DUP1 REVERT JUMPDEST DUP2 ADD SWAP1 DUP1 DUP1 CALLDATALOAD SWAP1 PUSH1 0x20 ADD SWAP1 SWAP3 SWAP2 SWAP1 DUP1 CALLDATALOAD PUSH20 0xFFFFFFFFFFFFFFFFFFFFFFFFFFFFFFFFFFFFFFFF AND SWAP1 PUSH1 0x20 ADD SWAP1 SWAP3 SWAP2 SWAP1 DUP1 CALLDATALOAD SWAP1 PUSH1 0x20 ADD SWAP1 SWAP3 SWAP2 SWAP1 POP POP POP PUSH2 0x37C8 JUMP JUMPDEST STOP JUMPDEST PUSH2 0x97E PUSH1 0x4 DUP1 CALLDATASIZE SUB PUSH1 0x20 DUP2 LT ISZERO PUSH2 0x952 JUMPI PUSH1 0x0 DUP1 REVERT JUMPDEST DUP2 ADD SWAP1 DUP1 DUP1 CALLDATALOAD PUSH20 0xFFFFFFFFFFFFFFFFFFFFFFFFFFFFFFFFFFFFFFFF AND SWAP1 PUSH1 0x20 ADD SWAP1 SWAP3 SWAP2 SWAP1 POP POP POP PUSH2 0x3B71 JUMP JUMPDEST PUSH1 0x40 MLOAD DUP1 DUP3 DUP2 MSTORE PUSH1 0x20 ADD SWAP2 POP POP PUSH1 0x40 MLOAD DUP1 SWAP2 SUB SWAP1 RETURN JUMPDEST PUSH2 0xA6A PUSH1 0x4 DUP1 CALLDATASIZE SUB PUSH1 0x40 DUP2 LT ISZERO PUSH2 0x9AA JUMPI PUSH1 0x0 DUP1 REVERT JUMPDEST DUP2 ADD SWAP1 DUP1 DUP1 CALLDATALOAD PUSH20 0xFFFFFFFFFFFFFFFFFFFFFFFFFFFFFFFFFFFFFFFF AND SWAP1 PUSH1 0x20 ADD SWAP1 SWAP3 SWAP2 SWAP1 DUP1 CALLDATALOAD SWAP1 PUSH1 0x20 ADD SWAP1 PUSH5 0x100000000 DUP2 GT ISZERO PUSH2 0x9E7 JUMPI PUSH1 0x0 DUP1 REVERT JUMPDEST DUP3 ADD DUP4 PUSH1 0x20 DUP3 ADD GT ISZERO PUSH2 0x9F9 JUMPI PUSH1 0x0 DUP1 REVERT JUMPDEST DUP1 CALLDATALOAD SWAP1 PUSH1 0x20 ADD SWAP2 DUP5 PUSH1 0x20 DUP4 MUL DUP5 ADD GT PUSH5 0x100000000 DUP4 GT OR ISZERO PUSH2 0xA1B JUMPI PUSH1 0x0 DUP1 REVERT JUMPDEST SWAP2 SWAP1 DUP1 DUP1 PUSH1 0x20 MUL PUSH1 0x20 ADD PUSH1 0x40 MLOAD SWAP1 DUP2 ADD PUSH1 0x40 MSTORE DUP1 SWAP4 SWAP3 SWAP2 SWAP1 DUP2 DUP2 MSTORE PUSH1 0x20 ADD DUP4 DUP4 PUSH1 0x20 MUL DUP1 DUP3 DUP5 CALLDATACOPY PUSH1 0x0 DUP2 DUP5 ADD MSTORE PUSH1 0x1F NOT PUSH1 0x1F DUP3 ADD AND SWAP1 POP DUP1 DUP4 ADD SWAP3 POP POP POP POP POP POP POP SWAP2 SWAP3 SWAP2 SWAP3 SWAP1 POP POP POP PUSH2 0x3BBD JUMP JUMPDEST PUSH1 0x40 MLOAD DUP1 DUP3 DUP2 MSTORE PUSH1 0x20 ADD SWAP2 POP POP PUSH1 0x40 MLOAD DUP1 SWAP2 SUB SWAP1 RETURN JUMPDEST PUSH2 0xAB6 PUSH1 0x4 DUP1 CALLDATASIZE SUB PUSH1 0x40 DUP2 LT ISZERO PUSH2 0xA96 JUMPI PUSH1 0x0 DUP1 REVERT JUMPDEST DUP2 ADD SWAP1 DUP1 DUP1 CALLDATALOAD SWAP1 PUSH1 0x20 ADD SWAP1 SWAP3 SWAP2 SWAP1 DUP1 CALLDATALOAD SWAP1 PUSH1 0x20 ADD SWAP1 SWAP3 SWAP2 SWAP1 POP POP POP PUSH2 0x3CAF JUMP JUMPDEST STOP JUMPDEST PUSH2 0xAE4 PUSH1 0x4 DUP1 CALLDATASIZE SUB PUSH1 0x20 DUP2 LT ISZERO PUSH2 0xACE JUMPI PUSH1 0x0 DUP1 REVERT JUMPDEST DUP2 ADD SWAP1 DUP1 DUP1 CALLDATALOAD SWAP1 PUSH1 0x20 ADD SWAP1 SWAP3 SWAP2 SWAP1 POP POP POP PUSH2 0x3DCE JUMP JUMPDEST PUSH1 0x40 MLOAD DUP1 DUP4 DUP2 MSTORE PUSH1 0x20 ADD DUP3 DUP2 MSTORE PUSH1 0x20 ADD SWAP3 POP POP POP PUSH1 0x40 MLOAD DUP1 SWAP2 SUB SWAP1 RETURN JUMPDEST PUSH2 0xBCB PUSH1 0x4 DUP1 CALLDATASIZE SUB PUSH1 0x60 DUP2 LT ISZERO PUSH2 0xB17 JUMPI PUSH1 0x0 DUP1 REVERT JUMPDEST DUP2 ADD SWAP1 DUP1 DUP1 CALLDATALOAD SWAP1 PUSH1 0x20 ADD SWAP1 SWAP3 SWAP2 SWAP1 DUP1 CALLDATALOAD SWAP1 PUSH1 0x20 ADD SWAP1 SWAP3 SWAP2 SWAP1 DUP1 CALLDATALOAD SWAP1 PUSH1 0x20 ADD SWAP1 PUSH5 0x100000000 DUP2 GT ISZERO PUSH2 0xB48 JUMPI PUSH1 0x0 DUP1 REVERT JUMPDEST DUP3 ADD DUP4 PUSH1 0x20 DUP3 ADD GT ISZERO PUSH2 0xB5A JUMPI PUSH1 0x0 DUP1 REVERT JUMPDEST DUP1 CALLDATALOAD SWAP1 PUSH1 0x20 ADD SWAP2 DUP5 PUSH1 0x20 DUP4 MUL DUP5 ADD GT PUSH5 0x100000000 DUP4 GT OR ISZERO PUSH2 0xB7C JUMPI PUSH1 0x0 DUP1 REVERT JUMPDEST SWAP2 SWAP1 DUP1 DUP1 PUSH1 0x20 MUL PUSH1 0x20 ADD PUSH1 0x40 MLOAD SWAP1 DUP2 ADD PUSH1 0x40 MSTORE DUP1 SWAP4 SWAP3 SWAP2 SWAP1 DUP2 DUP2 MSTORE PUSH1 0x20 ADD DUP4 DUP4 PUSH1 0x20 MUL DUP1 DUP3 DUP5 CALLDATACOPY PUSH1 0x0 DUP2 DUP5 ADD MSTORE PUSH1 0x1F NOT PUSH1 0x1F DUP3 ADD AND SWAP1 POP DUP1 DUP4 ADD SWAP3 POP POP POP POP POP POP POP SWAP2 SWAP3 SWAP2 SWAP3 SWAP1 POP POP POP PUSH2 0x3DFF JUMP JUMPDEST STOP JUMPDEST PUSH2 0xBF9 PUSH1 0x4 DUP1 CALLDATASIZE SUB PUSH1 0x20 DUP2 LT ISZERO PUSH2 0xBE3 JUMPI PUSH1 0x0 DUP1 REVERT JUMPDEST DUP2 ADD SWAP1 DUP1 DUP1 CALLDATALOAD SWAP1 PUSH1 0x20 ADD SWAP1 SWAP3 SWAP2 SWAP1 POP POP POP PUSH2 0x480C JUMP JUMPDEST STOP JUMPDEST PUSH2 0xC03 PUSH2 0x4B7C JUMP JUMPDEST PUSH1 0x40 MLOAD DUP1 DUP3 DUP2 MSTORE PUSH1 0x20 ADD SWAP2 POP POP PUSH1 0x40 MLOAD DUP1 SWAP2 SUB SWAP1 RETURN JUMPDEST PUSH2 0xC45 PUSH1 0x4 DUP1 CALLDATASIZE SUB PUSH1 0x20 DUP2 LT ISZERO PUSH2 0xC2F JUMPI PUSH1 0x0 DUP1 REVERT JUMPDEST DUP2 ADD SWAP1 DUP1 DUP1 CALLDATALOAD SWAP1 PUSH1 0x20 ADD SWAP1 SWAP3 SWAP2 SWAP1 POP POP POP PUSH2 0x4B8C JUMP JUMPDEST STOP JUMPDEST PUSH2 0xC7D PUSH1 0x4 DUP1 CALLDATASIZE SUB PUSH1 0x40 DUP2 LT ISZERO PUSH2 0xC5D JUMPI PUSH1 0x0 DUP1 REVERT JUMPDEST DUP2 ADD SWAP1 DUP1 DUP1 CALLDATALOAD SWAP1 PUSH1 0x20 ADD SWAP1 SWAP3 SWAP2 SWAP1 DUP1 CALLDATALOAD SWAP1 PUSH1 0x20 ADD SWAP1 SWAP3 SWAP2 SWAP1 POP POP POP PUSH2 0x5226 JUMP JUMPDEST STOP JUMPDEST PUSH2 0xCAB PUSH1 0x4 DUP1 CALLDATASIZE SUB PUSH1 0x20 DUP2 LT ISZERO PUSH2 0xC95 JUMPI PUSH1 0x0 DUP1 REVERT JUMPDEST DUP2 ADD SWAP1 DUP1 DUP1 CALLDATALOAD SWAP1 PUSH1 0x20 ADD SWAP1 SWAP3 SWAP2 SWAP1 POP POP POP PUSH2 0x564B JUMP JUMPDEST STOP JUMPDEST PUSH2 0xD63 PUSH1 0x4 DUP1 CALLDATASIZE SUB PUSH1 0x20 DUP2 LT ISZERO PUSH2 0xCC3 JUMPI PUSH1 0x0 DUP1 REVERT JUMPDEST DUP2 ADD SWAP1 DUP1 DUP1 CALLDATALOAD SWAP1 PUSH1 0x20 ADD SWAP1 PUSH5 0x100000000 DUP2 GT ISZERO PUSH2 0xCE0 JUMPI PUSH1 0x0 DUP1 REVERT JUMPDEST DUP3 ADD DUP4 PUSH1 0x20 DUP3 ADD GT ISZERO PUSH2 0xCF2 JUMPI PUSH1 0x0 DUP1 REVERT JUMPDEST DUP1 CALLDATALOAD SWAP1 PUSH1 0x20 ADD SWAP2 DUP5 PUSH1 0x20 DUP4 MUL DUP5 ADD GT PUSH5 0x100000000 DUP4 GT OR ISZERO PUSH2 0xD14 JUMPI PUSH1 0x0 DUP1 REVERT JUMPDEST SWAP2 SWAP1 DUP1 DUP1 PUSH1 0x20 MUL PUSH1 0x20 ADD PUSH1 0x40 MLOAD SWAP1 DUP2 ADD PUSH1 0x40 MSTORE DUP1 SWAP4 SWAP3 SWAP2 SWAP1 DUP2 DUP2 MSTORE PUSH1 0x20 ADD DUP4 DUP4 PUSH1 0x20 MUL DUP1 DUP3 DUP5 CALLDATACOPY PUSH1 0x0 DUP2 DUP5 ADD MSTORE PUSH1 0x1F NOT PUSH1 0x1F DUP3 ADD AND SWAP1 POP DUP1 DUP4 ADD SWAP3 POP POP POP POP POP POP POP SWAP2 SWAP3 SWAP2 SWAP3 SWAP1 POP POP POP PUSH2 0x573D JUMP JUMPDEST STOP JUMPDEST PUSH2 0xDB1 PUSH1 0x4 DUP1 CALLDATASIZE SUB PUSH1 0x40 DUP2 LT ISZERO PUSH2 0xD7B JUMPI PUSH1 0x0 DUP1 REVERT JUMPDEST DUP2 ADD SWAP1 DUP1 DUP1 CALLDATALOAD PUSH20 0xFFFFFFFFFFFFFFFFFFFFFFFFFFFFFFFFFFFFFFFF AND SWAP1 PUSH1 0x20 ADD SWAP1 SWAP3 SWAP2 SWAP1 DUP1 CALLDATALOAD SWAP1 PUSH1 0x20 ADD SWAP1 SWAP3 SWAP2 SWAP1 POP POP POP PUSH2 0x5AFC JUMP JUMPDEST PUSH1 0x40 MLOAD DUP1 DUP3 DUP2 MSTORE PUSH1 0x20 ADD SWAP2 POP POP PUSH1 0x40 MLOAD DUP1 SWAP2 SUB SWAP1 RETURN JUMPDEST PUSH2 0xDCF PUSH2 0x5D0A JUMP JUMPDEST PUSH1 0x40 MLOAD DUP1 DUP3 PUSH20 0xFFFFFFFFFFFFFFFFFFFFFFFFFFFFFFFFFFFFFFFF AND PUSH20 0xFFFFFFFFFFFFFFFFFFFFFFFFFFFFFFFFFFFFFFFF AND DUP2 MSTORE PUSH1 0x20 ADD SWAP2 POP POP PUSH1 0x40 MLOAD DUP1 SWAP2 SUB SWAP1 RETURN JUMPDEST PUSH1 0x2 PUSH1 0x0 SWAP1 SLOAD SWAP1 PUSH2 0x100 EXP SWAP1 DIV PUSH20 0xFFFFFFFFFFFFFFFFFFFFFFFFFFFFFFFFFFFFFFFF AND DUP2 JUMP JUMPDEST PUSH1 0x1 PUSH1 0x8 PUSH1 0x0 CALLER PUSH20 0xFFFFFFFFFFFFFFFFFFFFFFFFFFFFFFFFFFFFFFFF AND PUSH20 0xFFFFFFFFFFFFFFFFFFFFFFFFFFFFFFFFFFFFFFFF AND DUP2 MSTORE PUSH1 0x20 ADD SWAP1 DUP2 MSTORE PUSH1 0x20 ADD PUSH1 0x0 KECCAK256 DUP5 DUP2 SLOAD DUP2 LT PUSH2 0xE83 JUMPI INVALID JUMPDEST SWAP1 PUSH1 0x0 MSTORE PUSH1 0x20 PUSH1 0x0 KECCAK256 SWAP1 PUSH1 0xB MUL ADD PUSH1 0x3 ADD SLOAD EQ PUSH2 0xF08 JUMPI PUSH1 0x40 MLOAD PUSH32 0x8C379A000000000000000000000000000000000000000000000000000000000 DUP2 MSTORE PUSH1 0x4 ADD DUP1 DUP1 PUSH1 0x20 ADD DUP3 DUP2 SUB DUP3 MSTORE PUSH1 0x15 DUP2 MSTORE PUSH1 0x20 ADD DUP1 PUSH32 0x7374616B696E672073686F756C64206163746976650000000000000000000000 DUP2 MSTORE POP PUSH1 0x20 ADD SWAP2 POP POP PUSH1 0x40 MLOAD DUP1 SWAP2 SUB SWAP1 REVERT JUMPDEST PUSH1 0x0 PUSH1 0x8 PUSH1 0x0 CALLER PUSH20 0xFFFFFFFFFFFFFFFFFFFFFFFFFFFFFFFFFFFFFFFF AND PUSH20 0xFFFFFFFFFFFFFFFFFFFFFFFFFFFFFFFFFFFFFFFF AND DUP2 MSTORE PUSH1 0x20 ADD SWAP1 DUP2 MSTORE PUSH1 0x20 ADD PUSH1 0x0 KECCAK256 DUP5 DUP2 SLOAD DUP2 LT PUSH2 0xF54 JUMPI INVALID JUMPDEST SWAP1 PUSH1 0x0 MSTORE PUSH1 0x20 PUSH1 0x0 KECCAK256 SWAP1 PUSH1 0xB MUL ADD PUSH1 0xA ADD PUSH1 0x0 DUP5 PUSH20 0xFFFFFFFFFFFFFFFFFFFFFFFFFFFFFFFFFFFFFFFF AND PUSH20 0xFFFFFFFFFFFFFFFFFFFFFFFFFFFFFFFFFFFFFFFF AND DUP2 MSTORE PUSH1 0x20 ADD SWAP1 DUP2 MSTORE PUSH1 0x20 ADD PUSH1 0x0 KECCAK256 SLOAD SWAP1 POP DUP1 DUP3 GT ISZERO PUSH2 0x11DE JUMPI PUSH1 0x0 PUSH2 0xFC2 DUP3 DUP5 PUSH2 0x5D30 SWAP1 SWAP2 SWAP1 PUSH4 0xFFFFFFFF AND JUMP JUMPDEST SWAP1 POP PUSH2 0x1032 DUP2 PUSH1 0x8 PUSH1 0x0 CALLER PUSH20 0xFFFFFFFFFFFFFFFFFFFFFFFFFFFFFFFFFFFFFFFF AND PUSH20 0xFFFFFFFFFFFFFFFFFFFFFFFFFFFFFFFFFFFFFFFF AND DUP2 MSTORE PUSH1 0x20 ADD SWAP1 DUP2 MSTORE PUSH1 0x20 ADD PUSH1 0x0 KECCAK256 DUP8 DUP2 SLOAD DUP2 LT PUSH2 0x1012 JUMPI INVALID JUMPDEST SWAP1 PUSH1 0x0 MSTORE PUSH1 0x20 PUSH1 0x0 KECCAK256 SWAP1 PUSH1 0xB MUL ADD PUSH1 0x9 ADD SLOAD PUSH2 0x5D50 SWAP1 SWAP2 SWAP1 PUSH4 0xFFFFFFFF AND JUMP JUMPDEST PUSH1 0x8 PUSH1 0x0 CALLER PUSH20 0xFFFFFFFFFFFFFFFFFFFFFFFFFFFFFFFFFFFFFFFF AND PUSH20 0xFFFFFFFFFFFFFFFFFFFFFFFFFFFFFFFFFFFFFFFF AND DUP2 MSTORE PUSH1 0x20 ADD SWAP1 DUP2 MSTORE PUSH1 0x20 ADD PUSH1 0x0 KECCAK256 DUP7 DUP2 SLOAD DUP2 LT PUSH2 0x107C JUMPI INVALID JUMPDEST SWAP1 PUSH1 0x0 MSTORE PUSH1 0x20 PUSH1 0x0 KECCAK256 SWAP1 PUSH1 0xB MUL ADD PUSH1 0x9 ADD DUP2 SWAP1 SSTORE POP PUSH2 0x113C DUP2 PUSH1 0x8 PUSH1 0x0 CALLER PUSH20 0xFFFFFFFFFFFFFFFFFFFFFFFFFFFFFFFFFFFFFFFF AND PUSH20 0xFFFFFFFFFFFFFFFFFFFFFFFFFFFFFFFFFFFFFFFF AND DUP2 MSTORE PUSH1 0x20 ADD SWAP1 DUP2 MSTORE PUSH1 0x20 ADD PUSH1 0x0 KECCAK256 DUP8 DUP2 SLOAD DUP2 LT PUSH2 0x10DF JUMPI INVALID JUMPDEST SWAP1 PUSH1 0x0 MSTORE PUSH1 0x20 PUSH1 0x0 KECCAK256 SWAP1 PUSH1 0xB MUL ADD PUSH1 0xA ADD PUSH1 0x0 DUP8 PUSH20 0xFFFFFFFFFFFFFFFFFFFFFFFFFFFFFFFFFFFFFFFF AND PUSH20 0xFFFFFFFFFFFFFFFFFFFFFFFFFFFFFFFFFFFFFFFF AND DUP2 MSTORE PUSH1 0x20 ADD SWAP1 DUP2 MSTORE PUSH1 0x20 ADD PUSH1 0x0 KECCAK256 SLOAD PUSH2 0x5D50 SWAP1 SWAP2 SWAP1 PUSH4 0xFFFFFFFF AND JUMP JUMPDEST PUSH1 0x8 PUSH1 0x0 CALLER PUSH20 0xFFFFFFFFFFFFFFFFFFFFFFFFFFFFFFFFFFFFFFFF AND PUSH20 0xFFFFFFFFFFFFFFFFFFFFFFFFFFFFFFFFFFFFFFFF AND DUP2 MSTORE PUSH1 0x20 ADD SWAP1 DUP2 MSTORE PUSH1 0x20 ADD PUSH1 0x0 KECCAK256 DUP7 DUP2 SLOAD DUP2 LT PUSH2 0x1186 JUMPI INVALID JUMPDEST SWAP1 PUSH1 0x0 MSTORE PUSH1 0x20 PUSH1 0x0 KECCAK256 SWAP1 PUSH1 0xB MUL ADD PUSH1 0xA ADD PUSH1 0x0 DUP7 PUSH20 0xFFFFFFFFFFFFFFFFFFFFFFFFFFFFFFFFFFFFFFFF AND PUSH20 0xFFFFFFFFFFFFFFFFFFFFFFFFFFFFFFFFFFFFFFFF AND DUP2 MSTORE PUSH1 0x20 ADD SWAP1 DUP2 MSTORE PUSH1 0x20 ADD PUSH1 0x0 KECCAK256 DUP2 SWAP1 SSTORE POP POP PUSH2 0x1414 JUMP JUMPDEST DUP1 DUP3 LT ISZERO PUSH2 0x1413 JUMPI PUSH1 0x0 PUSH2 0x11FB DUP4 DUP4 PUSH2 0x5D30 SWAP1 SWAP2 SWAP1 PUSH4 0xFFFFFFFF AND JUMP JUMPDEST SWAP1 POP PUSH2 0x12A8 DUP2 PUSH1 0x8 PUSH1 0x0 CALLER PUSH20 0xFFFFFFFFFFFFFFFFFFFFFFFFFFFFFFFFFFFFFFFF AND PUSH20 0xFFFFFFFFFFFFFFFFFFFFFFFFFFFFFFFFFFFFFFFF AND DUP2 MSTORE PUSH1 0x20 ADD SWAP1 DUP2 MSTORE PUSH1 0x20 ADD PUSH1 0x0 KECCAK256 DUP8 DUP2 SLOAD DUP2 LT PUSH2 0x124B JUMPI INVALID JUMPDEST SWAP1 PUSH1 0x0 MSTORE PUSH1 0x20 PUSH1 0x0 KECCAK256 SWAP1 PUSH1 0xB MUL ADD PUSH1 0xA ADD PUSH1 0x0 DUP8 PUSH20 0xFFFFFFFFFFFFFFFFFFFFFFFFFFFFFFFFFFFFFFFF AND PUSH20 0xFFFFFFFFFFFFFFFFFFFFFFFFFFFFFFFFFFFFFFFF AND DUP2 MSTORE PUSH1 0x20 ADD SWAP1 DUP2 MSTORE PUSH1 0x20 ADD PUSH1 0x0 KECCAK256 SLOAD PUSH2 0x5D30 SWAP1 SWAP2 SWAP1 PUSH4 0xFFFFFFFF AND JUMP JUMPDEST PUSH1 0x8 PUSH1 0x0 CALLER PUSH20 0xFFFFFFFFFFFFFFFFFFFFFFFFFFFFFFFFFFFFFFFF AND PUSH20 0xFFFFFFFFFFFFFFFFFFFFFFFFFFFFFFFFFFFFFFFF AND DUP2 MSTORE PUSH1 0x20 ADD SWAP1 DUP2 MSTORE PUSH1 0x20 ADD PUSH1 0x0 KECCAK256 DUP7 DUP2 SLOAD DUP2 LT PUSH2 0x12F2 JUMPI INVALID JUMPDEST SWAP1 PUSH1 0x0 MSTORE PUSH1 0x20 PUSH1 0x0 KECCAK256 SWAP1 PUSH1 0xB MUL ADD PUSH1 0xA ADD PUSH1 0x0 DUP7 PUSH20 0xFFFFFFFFFFFFFFFFFFFFFFFFFFFFFFFFFFFFFFFF AND PUSH20 0xFFFFFFFFFFFFFFFFFFFFFFFFFFFFFFFFFFFFFFFF AND DUP2 MSTORE PUSH1 0x20 ADD SWAP1 DUP2 MSTORE PUSH1 0x20 ADD PUSH1 0x0 KECCAK256 DUP2 SWAP1 SSTORE POP PUSH2 0x13B2 DUP2 PUSH1 0x8 PUSH1 0x0 CALLER PUSH20 0xFFFFFFFFFFFFFFFFFFFFFFFFFFFFFFFFFFFFFFFF AND PUSH20 0xFFFFFFFFFFFFFFFFFFFFFFFFFFFFFFFFFFFFFFFF AND DUP2 MSTORE PUSH1 0x20 ADD SWAP1 DUP2 MSTORE PUSH1 0x20 ADD PUSH1 0x0 KECCAK256 DUP8 DUP2 SLOAD DUP2 LT PUSH2 0x1392 JUMPI INVALID JUMPDEST SWAP1 PUSH1 0x0 MSTORE PUSH1 0x20 PUSH1 0x0 KECCAK256 SWAP1 PUSH1 0xB MUL ADD PUSH1 0x9 ADD SLOAD PUSH2 0x5D30 SWAP1 SWAP2 SWAP1 PUSH4 0xFFFFFFFF AND JUMP JUMPDEST PUSH1 0x8 PUSH1 0x0 CALLER PUSH20 0xFFFFFFFFFFFFFFFFFFFFFFFFFFFFFFFFFFFFFFFF AND PUSH20 0xFFFFFFFFFFFFFFFFFFFFFFFFFFFFFFFFFFFFFFFF AND DUP2 MSTORE PUSH1 0x20 ADD SWAP1 DUP2 MSTORE PUSH1 0x20 ADD PUSH1 0x0 KECCAK256 DUP7 DUP2 SLOAD DUP2 LT PUSH2 0x13FC JUMPI INVALID JUMPDEST SWAP1 PUSH1 0x0 MSTORE PUSH1 0x20 PUSH1 0x0 KECCAK256 SWAP1 PUSH1 0xB MUL ADD PUSH1 0x9 ADD DUP2 SWAP1 SSTORE POP POP JUMPDEST JUMPDEST POP POP POP POP JUMP JUMPDEST PUSH1 0x5 DUP2 DUP2 SLOAD DUP2 LT PUSH2 0x1427 JUMPI INVALID JUMPDEST SWAP1 PUSH1 0x0 MSTORE PUSH1 0x20 PUSH1 0x0 KECCAK256 ADD PUSH1 0x0 SWAP2 POP SWAP1 POP SLOAD DUP2 JUMP JUMPDEST PUSH1 0x0 PUSH1 0x8 PUSH1 0x0 DUP6 PUSH20 0xFFFFFFFFFFFFFFFFFFFFFFFFFFFFFFFFFFFFFFFF AND PUSH20 0xFFFFFFFFFFFFFFFFFFFFFFFFFFFFFFFFFFFFFFFF AND DUP2 MSTORE PUSH1 0x20 ADD SWAP1 DUP2 MSTORE PUSH1 0x20 ADD PUSH1 0x0 KECCAK256 DUP4 DUP2 SLOAD DUP2 LT PUSH2 0x1487 JUMPI INVALID JUMPDEST SWAP1 PUSH1 0x0 MSTORE PUSH1 0x20 PUSH1 0x0 KECCAK256 SWAP1 PUSH1 0xB MUL ADD PUSH1 0xA ADD PUSH1 0x0 DUP4 PUSH20 0xFFFFFFFFFFFFFFFFFFFFFFFFFFFFFFFFFFFFFFFF AND PUSH20 0xFFFFFFFFFFFFFFFFFFFFFFFFFFFFFFFFFFFFFFFF AND DUP2 MSTORE PUSH1 0x20 ADD SWAP1 DUP2 MSTORE PUSH1 0x20 ADD PUSH1 0x0 KECCAK256 SLOAD SWAP1 POP SWAP4 SWAP3 POP POP POP JUMP JUMPDEST PUSH1 0x0 DUP1 PUSH2 0x14EA PUSH2 0x4B7C JUMP JUMPDEST SWAP1 POP DUP1 DUP4 GT ISZERO PUSH2 0x1562 JUMPI PUSH1 0x40 MLOAD PUSH32 0x8C379A000000000000000000000000000000000000000000000000000000000 DUP2 MSTORE PUSH1 0x4 ADD DUP1 DUP1 PUSH1 0x20 ADD DUP3 DUP2 SUB DUP3 MSTORE PUSH1 0x1A DUP2 MSTORE PUSH1 0x20 ADD DUP1 PUSH32 0x63616E6E6F742073656520667574757265207374616B696E6773000000000000 DUP2 MSTORE POP PUSH1 0x20 ADD SWAP2 POP POP PUSH1 0x40 MLOAD DUP1 SWAP2 SUB SWAP1 REVERT JUMPDEST PUSH1 0x0 PUSH1 0xA PUSH1 0x0 DUP6 DUP2 MSTORE PUSH1 0x20 ADD SWAP1 DUP2 MSTORE PUSH1 0x20 ADD PUSH1 0x0 KECCAK256 SLOAD EQ ISZERO PUSH2 0x1588 JUMPI PUSH1 0x0 SWAP2 POP POP PUSH2 0x180A JUMP JUMPDEST PUSH1 0x0 DUP1 PUSH1 0x0 SWAP1 POP JUMPDEST PUSH1 0x8 PUSH1 0x0 DUP8 PUSH20 0xFFFFFFFFFFFFFFFFFFFFFFFFFFFFFFFFFFFFFFFF AND PUSH20 0xFFFFFFFFFFFFFFFFFFFFFFFFFFFFFFFFFFFFFFFF AND DUP2 MSTORE PUSH1 0x20 ADD SWAP1 DUP2 MSTORE PUSH1 0x20 ADD PUSH1 0x0 KECCAK256 DUP1 SLOAD SWAP1 POP DUP2 LT ISZERO PUSH2 0x17B5 JUMPI PUSH2 0x15E2 PUSH2 0x5DCF JUMP JUMPDEST PUSH1 0x6 PUSH1 0x8 PUSH1 0x0 DUP10 PUSH20 0xFFFFFFFFFFFFFFFFFFFFFFFFFFFFFFFFFFFFFFFF AND PUSH20 0xFFFFFFFFFFFFFFFFFFFFFFFFFFFFFFFFFFFFFFFF AND DUP2 MSTORE PUSH1 0x20 ADD SWAP1 DUP2 MSTORE PUSH1 0x20 ADD PUSH1 0x0 KECCAK256 DUP4 DUP2 SLOAD DUP2 LT PUSH2 0x162E JUMPI INVALID JUMPDEST SWAP1 PUSH1 0x0 MSTORE PUSH1 0x20 PUSH1 0x0 KECCAK256 SWAP1 PUSH1 0xB MUL ADD PUSH1 0x2 ADD SLOAD DUP2 SLOAD DUP2 LT PUSH2 0x164A JUMPI INVALID JUMPDEST SWAP1 PUSH1 0x0 MSTORE PUSH1 0x20 PUSH1 0x0 KECCAK256 SWAP1 PUSH1 0x2 MUL ADD PUSH1 0x40 MLOAD DUP1 PUSH1 0x40 ADD PUSH1 0x40 MSTORE SWAP1 DUP2 PUSH1 0x0 DUP3 ADD SLOAD DUP2 MSTORE PUSH1 0x20 ADD PUSH1 0x1 DUP3 ADD SLOAD DUP2 MSTORE POP POP SWAP1 POP PUSH2 0x1685 DUP8 DUP4 DUP7 DUP10 PUSH2 0x3503 JUMP JUMPDEST DUP1 ISZERO PUSH2 0x1708 JUMPI POP PUSH1 0x8 PUSH1 0x0 DUP9 PUSH20 0xFFFFFFFFFFFFFFFFFFFFFFFFFFFFFFFFFFFFFFFF AND PUSH20 0xFFFFFFFFFFFFFFFFFFFFFFFFFFFFFFFFFFFFFFFF AND DUP2 MSTORE PUSH1 0x20 ADD SWAP1 DUP2 MSTORE PUSH1 0x20 ADD PUSH1 0x0 KECCAK256 DUP3 DUP2 SLOAD DUP2 LT PUSH2 0x16D6 JUMPI INVALID JUMPDEST SWAP1 PUSH1 0x0 MSTORE PUSH1 0x20 PUSH1 0x0 KECCAK256 SWAP1 PUSH1 0xB MUL ADD PUSH1 0x6 ADD PUSH1 0x0 DUP8 DUP2 MSTORE PUSH1 0x20 ADD SWAP1 DUP2 MSTORE PUSH1 0x20 ADD PUSH1 0x0 KECCAK256 PUSH1 0x0 SWAP1 SLOAD SWAP1 PUSH2 0x100 EXP SWAP1 DIV PUSH1 0xFF AND ISZERO JUMPDEST ISZERO PUSH2 0x17A7 JUMPI PUSH2 0x17A4 PUSH2 0x1795 PUSH1 0xF PUSH2 0x1787 DUP5 PUSH1 0x20 ADD MLOAD PUSH1 0x8 PUSH1 0x0 DUP14 PUSH20 0xFFFFFFFFFFFFFFFFFFFFFFFFFFFFFFFFFFFFFFFF AND PUSH20 0xFFFFFFFFFFFFFFFFFFFFFFFFFFFFFFFFFFFFFFFF AND DUP2 MSTORE PUSH1 0x20 ADD SWAP1 DUP2 MSTORE PUSH1 0x20 ADD PUSH1 0x0 KECCAK256 DUP8 DUP2 SLOAD DUP2 LT PUSH2 0x1767 JUMPI INVALID JUMPDEST SWAP1 PUSH1 0x0 MSTORE PUSH1 0x20 PUSH1 0x0 KECCAK256 SWAP1 PUSH1 0xB MUL ADD PUSH1 0x0 ADD SLOAD PUSH2 0x5D6F SWAP1 SWAP2 SWAP1 PUSH4 0xFFFFFFFF AND JUMP JUMPDEST PUSH2 0x5DA9 SWAP1 SWAP2 SWAP1 PUSH4 0xFFFFFFFF AND JUMP JUMPDEST DUP5 PUSH2 0x5D50 SWAP1 SWAP2 SWAP1 PUSH4 0xFFFFFFFF AND JUMP JUMPDEST SWAP3 POP JUMPDEST POP DUP1 DUP1 PUSH1 0x1 ADD SWAP2 POP POP PUSH2 0x1590 JUMP JUMPDEST POP PUSH2 0x1805 PUSH1 0xA PUSH1 0x0 DUP7 DUP2 MSTORE PUSH1 0x20 ADD SWAP1 DUP2 MSTORE PUSH1 0x20 ADD PUSH1 0x0 KECCAK256 SLOAD PUSH2 0x17F7 PUSH1 0x5 DUP8 DUP2 SLOAD DUP2 LT PUSH2 0x17DD JUMPI INVALID JUMPDEST SWAP1 PUSH1 0x0 MSTORE PUSH1 0x20 PUSH1 0x0 KECCAK256 ADD SLOAD DUP5 PUSH2 0x5D6F SWAP1 SWAP2 SWAP1 PUSH4 0xFFFFFFFF AND JUMP JUMPDEST PUSH2 0x5DA9 SWAP1 SWAP2 SWAP1 PUSH4 0xFFFFFFFF AND JUMP JUMPDEST SWAP3 POP POP POP JUMPDEST SWAP3 SWAP2 POP POP JUMP JUMPDEST PUSH1 0x0 PUSH2 0x181A PUSH2 0x4B7C JUMP JUMPDEST SWAP1 POP DUP5 DUP2 LT ISZERO PUSH2 0x1892 JUMPI PUSH1 0x40 MLOAD PUSH32 0x8C379A000000000000000000000000000000000000000000000000000000000 DUP2 MSTORE PUSH1 0x4 ADD DUP1 DUP1 PUSH1 0x20 ADD DUP3 DUP2 SUB DUP3 MSTORE PUSH1 0x1F DUP2 MSTORE PUSH1 0x20 ADD DUP1 PUSH32 0x63616E6E6F7420776974686472617720667574757265207374616B696E677300 DUP2 MSTORE POP PUSH1 0x20 ADD SWAP2 POP POP PUSH1 0x40 MLOAD DUP1 SWAP2 SUB SWAP1 REVERT JUMPDEST PUSH1 0x0 PUSH1 0xA PUSH1 0x0 DUP4 DUP2 MSTORE PUSH1 0x20 ADD SWAP1 DUP2 MSTORE PUSH1 0x20 ADD PUSH1 0x0 KECCAK256 SLOAD EQ ISZERO PUSH2 0x1906 JUMPI PUSH1 0x0 PUSH2 0x1905 JUMPI PUSH1 0x40 MLOAD PUSH32 0x8C379A000000000000000000000000000000000000000000000000000000000 DUP2 MSTORE PUSH1 0x4 ADD DUP1 DUP1 PUSH1 0x20 ADD DUP3 DUP2 SUB DUP3 MSTORE PUSH1 0x28 DUP2 MSTORE PUSH1 0x20 ADD DUP1 PUSH2 0x5EE9 PUSH1 0x28 SWAP2 CODECOPY PUSH1 0x40 ADD SWAP2 POP POP PUSH1 0x40 MLOAD DUP1 SWAP2 SUB SWAP1 REVERT JUMPDEST JUMPDEST PUSH1 0x32 DUP5 LT ISZERO PUSH2 0x1960 JUMPI PUSH1 0x40 MLOAD PUSH32 0x8C379A000000000000000000000000000000000000000000000000000000000 DUP2 MSTORE PUSH1 0x4 ADD DUP1 DUP1 PUSH1 0x20 ADD DUP3 DUP2 SUB DUP3 MSTORE PUSH1 0x27 DUP2 MSTORE PUSH1 0x20 ADD DUP1 PUSH2 0x5E82 PUSH1 0x27 SWAP2 CODECOPY PUSH1 0x40 ADD SWAP2 POP POP PUSH1 0x40 MLOAD DUP1 SWAP2 SUB SWAP1 REVERT JUMPDEST PUSH1 0x0 DUP1 PUSH1 0x0 DUP1 SWAP1 POP JUMPDEST PUSH1 0x8 PUSH1 0x0 CALLER PUSH20 0xFFFFFFFFFFFFFFFFFFFFFFFFFFFFFFFFFFFFFFFF AND PUSH20 0xFFFFFFFFFFFFFFFFFFFFFFFFFFFFFFFFFFFFFFFF AND DUP2 MSTORE PUSH1 0x20 ADD SWAP1 DUP2 MSTORE PUSH1 0x20 ADD PUSH1 0x0 KECCAK256 DUP1 SLOAD SWAP1 POP DUP2 LT ISZERO PUSH2 0x1D32 JUMPI PUSH2 0x19BB PUSH2 0x5DCF JUMP JUMPDEST PUSH1 0x6 PUSH1 0x8 PUSH1 0x0 CALLER PUSH20 0xFFFFFFFFFFFFFFFFFFFFFFFFFFFFFFFFFFFFFFFF AND PUSH20 0xFFFFFFFFFFFFFFFFFFFFFFFFFFFFFFFFFFFFFFFF AND DUP2 MSTORE PUSH1 0x20 ADD SWAP1 DUP2 MSTORE PUSH1 0x20 ADD PUSH1 0x0 KECCAK256 DUP4 DUP2 SLOAD DUP2 LT PUSH2 0x1A07 JUMPI INVALID JUMPDEST SWAP1 PUSH1 0x0 MSTORE PUSH1 0x20 PUSH1 0x0 KECCAK256 SWAP1 PUSH1 0xB MUL ADD PUSH1 0x2 ADD SLOAD DUP2 SLOAD DUP2 LT PUSH2 0x1A23 JUMPI INVALID JUMPDEST SWAP1 PUSH1 0x0 MSTORE PUSH1 0x20 PUSH1 0x0 KECCAK256 SWAP1 PUSH1 0x2 MUL ADD PUSH1 0x40 MLOAD DUP1 PUSH1 0x40 ADD PUSH1 0x40 MSTORE SWAP1 DUP2 PUSH1 0x0 DUP3 ADD SLOAD DUP2 MSTORE PUSH1 0x20 ADD PUSH1 0x1 DUP3 ADD SLOAD DUP2 MSTORE POP POP SWAP1 POP PUSH2 0x1A5E CALLER DUP4 DUP8 DUP13 PUSH2 0x3503 JUMP JUMPDEST DUP1 ISZERO PUSH2 0x1AE1 JUMPI POP PUSH1 0x8 PUSH1 0x0 CALLER PUSH20 0xFFFFFFFFFFFFFFFFFFFFFFFFFFFFFFFFFFFFFFFF AND PUSH20 0xFFFFFFFFFFFFFFFFFFFFFFFFFFFFFFFFFFFFFFFF AND DUP2 MSTORE PUSH1 0x20 ADD SWAP1 DUP2 MSTORE PUSH1 0x20 ADD PUSH1 0x0 KECCAK256 DUP3 DUP2 SLOAD DUP2 LT PUSH2 0x1AAF JUMPI INVALID JUMPDEST SWAP1 PUSH1 0x0 MSTORE PUSH1 0x20 PUSH1 0x0 KECCAK256 SWAP1 PUSH1 0xB MUL ADD PUSH1 0x6 ADD PUSH1 0x0 DUP11 DUP2 MSTORE PUSH1 0x20 ADD SWAP1 DUP2 MSTORE PUSH1 0x20 ADD PUSH1 0x0 KECCAK256 PUSH1 0x0 SWAP1 SLOAD SWAP1 PUSH2 0x100 EXP SWAP1 DIV PUSH1 0xFF AND ISZERO JUMPDEST ISZERO PUSH2 0x1D24 JUMPI PUSH1 0x1 PUSH1 0x8 PUSH1 0x0 CALLER PUSH20 0xFFFFFFFFFFFFFFFFFFFFFFFFFFFFFFFFFFFFFFFF AND PUSH20 0xFFFFFFFFFFFFFFFFFFFFFFFFFFFFFFFFFFFFFFFF AND DUP2 MSTORE PUSH1 0x20 ADD SWAP1 DUP2 MSTORE PUSH1 0x20 ADD PUSH1 0x0 KECCAK256 DUP4 DUP2 SLOAD DUP2 LT PUSH2 0x1B32 JUMPI INVALID JUMPDEST SWAP1 PUSH1 0x0 MSTORE PUSH1 0x20 PUSH1 0x0 KECCAK256 SWAP1 PUSH1 0xB MUL ADD PUSH1 0x6 ADD PUSH1 0x0 DUP12 DUP2 MSTORE PUSH1 0x20 ADD SWAP1 DUP2 MSTORE PUSH1 0x20 ADD PUSH1 0x0 KECCAK256 PUSH1 0x0 PUSH2 0x100 EXP DUP2 SLOAD DUP2 PUSH1 0xFF MUL NOT AND SWAP1 DUP4 ISZERO ISZERO MUL OR SWAP1 SSTORE POP PUSH1 0x0 PUSH2 0x1BF2 PUSH1 0xF PUSH2 0x1BE4 DUP5 PUSH1 0x20 ADD MLOAD PUSH1 0x8 PUSH1 0x0 CALLER PUSH20 0xFFFFFFFFFFFFFFFFFFFFFFFFFFFFFFFFFFFFFFFF AND PUSH20 0xFFFFFFFFFFFFFFFFFFFFFFFFFFFFFFFFFFFFFFFF AND DUP2 MSTORE PUSH1 0x20 ADD SWAP1 DUP2 MSTORE PUSH1 0x20 ADD PUSH1 0x0 KECCAK256 DUP8 DUP2 SLOAD DUP2 LT PUSH2 0x1BC4 JUMPI INVALID JUMPDEST SWAP1 PUSH1 0x0 MSTORE PUSH1 0x20 PUSH1 0x0 KECCAK256 SWAP1 PUSH1 0xB MUL ADD PUSH1 0x0 ADD SLOAD PUSH2 0x5D6F SWAP1 SWAP2 SWAP1 PUSH4 0xFFFFFFFF AND JUMP JUMPDEST PUSH2 0x5DA9 SWAP1 SWAP2 SWAP1 PUSH4 0xFFFFFFFF AND JUMP JUMPDEST SWAP1 POP PUSH1 0x0 PUSH2 0x1C1C PUSH1 0x64 PUSH2 0x1C0E DUP13 DUP6 PUSH2 0x5D6F SWAP1 SWAP2 SWAP1 PUSH4 0xFFFFFFFF AND JUMP JUMPDEST PUSH2 0x5DA9 SWAP1 SWAP2 SWAP1 PUSH4 0xFFFFFFFF AND JUMP JUMPDEST SWAP1 POP DUP9 ISZERO PUSH2 0x1CF6 JUMPI PUSH2 0x1C92 DUP2 PUSH1 0x8 PUSH1 0x0 CALLER PUSH20 0xFFFFFFFFFFFFFFFFFFFFFFFFFFFFFFFFFFFFFFFF AND PUSH20 0xFFFFFFFFFFFFFFFFFFFFFFFFFFFFFFFFFFFFFFFF AND DUP2 MSTORE PUSH1 0x20 ADD SWAP1 DUP2 MSTORE PUSH1 0x20 ADD PUSH1 0x0 KECCAK256 DUP7 DUP2 SLOAD DUP2 LT PUSH2 0x1C72 JUMPI INVALID JUMPDEST SWAP1 PUSH1 0x0 MSTORE PUSH1 0x20 PUSH1 0x0 KECCAK256 SWAP1 PUSH1 0xB MUL ADD PUSH1 0x4 ADD SLOAD PUSH2 0x5D50 SWAP1 SWAP2 SWAP1 PUSH4 0xFFFFFFFF AND JUMP JUMPDEST PUSH1 0x8 PUSH1 0x0 CALLER PUSH20 0xFFFFFFFFFFFFFFFFFFFFFFFFFFFFFFFFFFFFFFFF AND PUSH20 0xFFFFFFFFFFFFFFFFFFFFFFFFFFFFFFFFFFFFFFFF AND DUP2 MSTORE PUSH1 0x20 ADD SWAP1 DUP2 MSTORE PUSH1 0x20 ADD PUSH1 0x0 KECCAK256 DUP6 DUP2 SLOAD DUP2 LT PUSH2 0x1CDC JUMPI INVALID JUMPDEST SWAP1 PUSH1 0x0 MSTORE PUSH1 0x20 PUSH1 0x0 KECCAK256 SWAP1 PUSH1 0xB MUL ADD PUSH1 0x4 ADD DUP2 SWAP1 SSTORE POP PUSH2 0x1D0C JUMP JUMPDEST PUSH2 0x1D09 DUP2 DUP7 PUSH2 0x5D50 SWAP1 SWAP2 SWAP1 PUSH4 0xFFFFFFFF AND JUMP JUMPDEST SWAP5 POP JUMPDEST PUSH2 0x1D1F DUP3 DUP8 PUSH2 0x5D50 SWAP1 SWAP2 SWAP1 PUSH4 0xFFFFFFFF AND JUMP JUMPDEST SWAP6 POP POP POP JUMPDEST POP DUP1 DUP1 PUSH1 0x1 ADD SWAP2 POP POP PUSH2 0x1969 JUMP JUMPDEST POP PUSH1 0x0 PUSH2 0x1DAC PUSH1 0x64 PUSH2 0x1D9E DUP10 PUSH1 0x64 SUB PUSH2 0x1D90 PUSH1 0xA PUSH1 0x0 DUP11 DUP2 MSTORE PUSH1 0x20 ADD SWAP1 DUP2 MSTORE PUSH1 0x20 ADD PUSH1 0x0 KECCAK256 SLOAD PUSH2 0x1D82 PUSH1 0x5 DUP12 DUP2 SLOAD DUP2 LT PUSH2 0x1D68 JUMPI INVALID JUMPDEST SWAP1 PUSH1 0x0 MSTORE PUSH1 0x20 PUSH1 0x0 KECCAK256 ADD SLOAD DUP11 PUSH2 0x5D6F SWAP1 SWAP2 SWAP1 PUSH4 0xFFFFFFFF AND JUMP JUMPDEST PUSH2 0x5DA9 SWAP1 SWAP2 SWAP1 PUSH4 0xFFFFFFFF AND JUMP JUMPDEST PUSH2 0x5D6F SWAP1 SWAP2 SWAP1 PUSH4 0xFFFFFFFF AND JUMP JUMPDEST PUSH2 0x5DA9 SWAP1 SWAP2 SWAP1 PUSH4 0xFFFFFFFF AND JUMP JUMPDEST SWAP1 POP PUSH1 0x0 DUP2 GT ISZERO PUSH2 0x1E9D JUMPI PUSH1 0x1 PUSH1 0x0 SWAP1 SLOAD SWAP1 PUSH2 0x100 EXP SWAP1 DIV PUSH20 0xFFFFFFFFFFFFFFFFFFFFFFFFFFFFFFFFFFFFFFFF AND PUSH20 0xFFFFFFFFFFFFFFFFFFFFFFFFFFFFFFFFFFFFFFFF AND PUSH4 0xA9059CBB CALLER DUP4 PUSH1 0x40 MLOAD DUP4 PUSH4 0xFFFFFFFF AND PUSH1 0xE0 SHL DUP2 MSTORE PUSH1 0x4 ADD DUP1 DUP4 PUSH20 0xFFFFFFFFFFFFFFFFFFFFFFFFFFFFFFFFFFFFFFFF AND PUSH20 0xFFFFFFFFFFFFFFFFFFFFFFFFFFFFFFFFFFFFFFFF AND DUP2 MSTORE PUSH1 0x20 ADD DUP3 DUP2 MSTORE PUSH1 0x20 ADD SWAP3 POP POP POP PUSH1 0x20 PUSH1 0x40 MLOAD DUP1 DUP4 SUB DUP2 PUSH1 0x0 DUP8 DUP1 EXTCODESIZE ISZERO DUP1 ISZERO PUSH2 0x1E60 JUMPI PUSH1 0x0 DUP1 REVERT JUMPDEST POP GAS CALL ISZERO DUP1 ISZERO PUSH2 0x1E74 JUMPI RETURNDATASIZE PUSH1 0x0 DUP1 RETURNDATACOPY RETURNDATASIZE PUSH1 0x0 REVERT JUMPDEST POP POP POP POP PUSH1 0x40 MLOAD RETURNDATASIZE PUSH1 0x20 DUP2 LT ISZERO PUSH2 0x1E8A JUMPI PUSH1 0x0 DUP1 REVERT JUMPDEST DUP2 ADD SWAP1 DUP1 DUP1 MLOAD SWAP1 PUSH1 0x20 ADD SWAP1 SWAP3 SWAP2 SWAP1 POP POP POP POP JUMPDEST DUP6 ISZERO PUSH2 0x1EAE JUMPI PUSH2 0x1EAD DUP3 DUP7 PUSH2 0x5226 JUMP JUMPDEST JUMPDEST POP POP POP POP POP POP POP POP JUMP JUMPDEST PUSH1 0x0 DUP1 PUSH1 0x0 DUP1 PUSH1 0x0 DUP1 PUSH1 0x8 PUSH1 0x0 DUP10 PUSH20 0xFFFFFFFFFFFFFFFFFFFFFFFFFFFFFFFFFFFFFFFF AND PUSH20 0xFFFFFFFFFFFFFFFFFFFFFFFFFFFFFFFFFFFFFFFF AND DUP2 MSTORE PUSH1 0x20 ADD SWAP1 DUP2 MSTORE PUSH1 0x20 ADD PUSH1 0x0 KECCAK256 DUP8 DUP2 SLOAD DUP2 LT PUSH2 0x1F0B JUMPI INVALID JUMPDEST SWAP1 PUSH1 0x0 MSTORE PUSH1 0x20 PUSH1 0x0 KECCAK256 SWAP1 PUSH1 0xB MUL ADD PUSH1 0x0 ADD SLOAD PUSH1 0x8 PUSH1 0x0 DUP11 PUSH20 0xFFFFFFFFFFFFFFFFFFFFFFFFFFFFFFFFFFFFFFFF AND PUSH20 0xFFFFFFFFFFFFFFFFFFFFFFFFFFFFFFFFFFFFFFFF AND DUP2 MSTORE PUSH1 0x20 ADD SWAP1 DUP2 MSTORE PUSH1 0x20 ADD PUSH1 0x0 KECCAK256 DUP9 DUP2 SLOAD DUP2 LT PUSH2 0x1F67 JUMPI INVALID JUMPDEST SWAP1 PUSH1 0x0 MSTORE PUSH1 0x20 PUSH1 0x0 KECCAK256 SWAP1 PUSH1 0xB MUL ADD PUSH1 0x1 ADD SLOAD PUSH1 0x8 PUSH1 0x0 DUP12 PUSH20 0xFFFFFFFFFFFFFFFFFFFFFFFFFFFFFFFFFFFFFFFF AND PUSH20 0xFFFFFFFFFFFFFFFFFFFFFFFFFFFFFFFFFFFFFFFF AND DUP2 MSTORE PUSH1 0x20 ADD SWAP1 DUP2 MSTORE PUSH1 0x20 ADD PUSH1 0x0 KECCAK256 DUP10 DUP2 SLOAD DUP2 LT PUSH2 0x1FC3 JUMPI INVALID JUMPDEST SWAP1 PUSH1 0x0 MSTORE PUSH1 0x20 PUSH1 0x0 KECCAK256 SWAP1 PUSH1 0xB MUL ADD PUSH1 0x2 ADD SLOAD PUSH1 0x8 PUSH1 0x0 DUP13 PUSH20 0xFFFFFFFFFFFFFFFFFFFFFFFFFFFFFFFFFFFFFFFF AND PUSH20 0xFFFFFFFFFFFFFFFFFFFFFFFFFFFFFFFFFFFFFFFF AND DUP2 MSTORE PUSH1 0x20 ADD SWAP1 DUP2 MSTORE PUSH1 0x20 ADD PUSH1 0x0 KECCAK256 DUP11 DUP2 SLOAD DUP2 LT PUSH2 0x201F JUMPI INVALID JUMPDEST SWAP1 PUSH1 0x0 MSTORE PUSH1 0x20 PUSH1 0x0 KECCAK256 SWAP1 PUSH1 0xB MUL ADD PUSH1 0x3 ADD SLOAD PUSH1 0x8 PUSH1 0x0 DUP14 PUSH20 0xFFFFFFFFFFFFFFFFFFFFFFFFFFFFFFFFFFFFFFFF AND PUSH20 0xFFFFFFFFFFFFFFFFFFFFFFFFFFFFFFFFFFFFFFFF AND DUP2 MSTORE PUSH1 0x20 ADD SWAP1 DUP2 MSTORE PUSH1 0x20 ADD PUSH1 0x0 KECCAK256 DUP12 DUP2 SLOAD DUP2 LT PUSH2 0x207B JUMPI INVALID JUMPDEST SWAP1 PUSH1 0x0 MSTORE PUSH1 0x20 PUSH1 0x0 KECCAK256 SWAP1 PUSH1 0xB MUL ADD PUSH1 0x4 ADD SLOAD PUSH1 0x8 PUSH1 0x0 DUP15 PUSH20 0xFFFFFFFFFFFFFFFFFFFFFFFFFFFFFFFFFFFFFFFF AND PUSH20 0xFFFFFFFFFFFFFFFFFFFFFFFFFFFFFFFFFFFFFFFF AND DUP2 MSTORE PUSH1 0x20 ADD SWAP1 DUP2 MSTORE PUSH1 0x20 ADD PUSH1 0x0 KECCAK256 DUP13 DUP2 SLOAD DUP2 LT PUSH2 0x20D7 JUMPI INVALID JUMPDEST SWAP1 PUSH1 0x0 MSTORE PUSH1 0x20 PUSH1 0x0 KECCAK256 SWAP1 PUSH1 0xB MUL ADD PUSH1 0x5 ADD SLOAD SWAP6 POP SWAP6 POP SWAP6 POP SWAP6 POP SWAP6 POP SWAP6 POP SWAP3 SWAP6 POP SWAP3 SWAP6 POP SWAP3 SWAP6 JUMP JUMPDEST PUSH1 0x60 PUSH1 0x5 DUP1 SLOAD DUP1 PUSH1 0x20 MUL PUSH1 0x20 ADD PUSH1 0x40 MLOAD SWAP1 DUP2 ADD PUSH1 0x40 MSTORE DUP1 SWAP3 SWAP2 SWAP1 DUP2 DUP2 MSTORE PUSH1 0x20 ADD DUP3 DUP1 SLOAD DUP1 ISZERO PUSH2 0x214D JUMPI PUSH1 0x20 MUL DUP3 ADD SWAP2 SWAP1 PUSH1 0x0 MSTORE PUSH1 0x20 PUSH1 0x0 KECCAK256 SWAP1 JUMPDEST DUP2 SLOAD DUP2 MSTORE PUSH1 0x20 ADD SWAP1 PUSH1 0x1 ADD SWAP1 DUP1 DUP4 GT PUSH2 0x2139 JUMPI JUMPDEST POP POP POP POP POP SWAP1 POP SWAP1 JUMP JUMPDEST PUSH1 0xA PUSH1 0x20 MSTORE DUP1 PUSH1 0x0 MSTORE PUSH1 0x40 PUSH1 0x0 KECCAK256 PUSH1 0x0 SWAP2 POP SWAP1 POP SLOAD DUP2 JUMP JUMPDEST PUSH1 0x1 PUSH1 0x8 PUSH1 0x0 CALLER PUSH20 0xFFFFFFFFFFFFFFFFFFFFFFFFFFFFFFFFFFFFFFFF AND PUSH20 0xFFFFFFFFFFFFFFFFFFFFFFFFFFFFFFFFFFFFFFFF AND DUP2 MSTORE PUSH1 0x20 ADD SWAP1 DUP2 MSTORE PUSH1 0x20 ADD PUSH1 0x0 KECCAK256 DUP4 DUP2 SLOAD DUP2 LT PUSH2 0x21BB JUMPI INVALID JUMPDEST SWAP1 PUSH1 0x0 MSTORE PUSH1 0x20 PUSH1 0x0 KECCAK256 SWAP1 PUSH1 0xB MUL ADD PUSH1 0x3 ADD SLOAD EQ PUSH2 0x2240 JUMPI PUSH1 0x40 MLOAD PUSH32 0x8C379A000000000000000000000000000000000000000000000000000000000 DUP2 MSTORE PUSH1 0x4 ADD DUP1 DUP1 PUSH1 0x20 ADD DUP3 DUP2 SUB DUP3 MSTORE PUSH1 0x15 DUP2 MSTORE PUSH1 0x20 ADD DUP1 PUSH32 0x7374616B696E672073686F756C64206163746976650000000000000000000000 DUP2 MSTORE POP PUSH1 0x20 ADD SWAP2 POP POP PUSH1 0x40 MLOAD DUP1 SWAP2 SUB SWAP1 REVERT JUMPDEST PUSH1 0x0 PUSH1 0x8 PUSH1 0x0 CALLER PUSH20 0xFFFFFFFFFFFFFFFFFFFFFFFFFFFFFFFFFFFFFFFF AND PUSH20 0xFFFFFFFFFFFFFFFFFFFFFFFFFFFFFFFFFFFFFFFF AND DUP2 MSTORE PUSH1 0x20 ADD SWAP1 DUP2 MSTORE PUSH1 0x20 ADD PUSH1 0x0 KECCAK256 DUP4 DUP2 SLOAD DUP2 LT PUSH2 0x228C JUMPI INVALID JUMPDEST SWAP1 PUSH1 0x0 MSTORE PUSH1 0x20 PUSH1 0x0 KECCAK256 SWAP1 PUSH1 0xB MUL ADD PUSH1 0xA ADD PUSH1 0x0 CALLER PUSH20 0xFFFFFFFFFFFFFFFFFFFFFFFFFFFFFFFFFFFFFFFF AND PUSH20 0xFFFFFFFFFFFFFFFFFFFFFFFFFFFFFFFFFFFFFFFF AND DUP2 MSTORE PUSH1 0x20 ADD SWAP1 DUP2 MSTORE PUSH1 0x20 ADD PUSH1 0x0 KECCAK256 SLOAD SWAP1 POP PUSH1 0x0 PUSH1 0x8 PUSH1 0x0 CALLER PUSH20 0xFFFFFFFFFFFFFFFFFFFFFFFFFFFFFFFFFFFFFFFF AND PUSH20 0xFFFFFFFFFFFFFFFFFFFFFFFFFFFFFFFFFFFFFFFF AND DUP2 MSTORE PUSH1 0x20 ADD SWAP1 DUP2 MSTORE PUSH1 0x20 ADD PUSH1 0x0 KECCAK256 DUP5 DUP2 SLOAD DUP2 LT PUSH2 0x2329 JUMPI INVALID JUMPDEST SWAP1 PUSH1 0x0 MSTORE PUSH1 0x20 PUSH1 0x0 KECCAK256 SWAP1 PUSH1 0xB MUL ADD PUSH1 0xA ADD PUSH1 0x0 DUP5 PUSH20 0xFFFFFFFFFFFFFFFFFFFFFFFFFFFFFFFFFFFFFFFF AND PUSH20 0xFFFFFFFFFFFFFFFFFFFFFFFFFFFFFFFFFFFFFFFF AND DUP2 MSTORE PUSH1 0x20 ADD SWAP1 DUP2 MSTORE PUSH1 0x20 ADD PUSH1 0x0 KECCAK256 DUP2 SWAP1 SSTORE POP PUSH2 0x23E9 DUP2 PUSH1 0x8 PUSH1 0x0 CALLER PUSH20 0xFFFFFFFFFFFFFFFFFFFFFFFFFFFFFFFFFFFFFFFF AND PUSH20 0xFFFFFFFFFFFFFFFFFFFFFFFFFFFFFFFFFFFFFFFF AND DUP2 MSTORE PUSH1 0x20 ADD SWAP1 DUP2 MSTORE PUSH1 0x20 ADD PUSH1 0x0 KECCAK256 DUP6 DUP2 SLOAD DUP2 LT PUSH2 0x23C9 JUMPI INVALID JUMPDEST SWAP1 PUSH1 0x0 MSTORE PUSH1 0x20 PUSH1 0x0 KECCAK256 SWAP1 PUSH1 0xB MUL ADD PUSH1 0x9 ADD SLOAD PUSH2 0x5D30 SWAP1 SWAP2 SWAP1 PUSH4 0xFFFFFFFF AND JUMP JUMPDEST PUSH1 0x8 PUSH1 0x0 CALLER PUSH20 0xFFFFFFFFFFFFFFFFFFFFFFFFFFFFFFFFFFFFFFFF AND PUSH20 0xFFFFFFFFFFFFFFFFFFFFFFFFFFFFFFFFFFFFFFFF AND DUP2 MSTORE PUSH1 0x20 ADD SWAP1 DUP2 MSTORE PUSH1 0x20 ADD PUSH1 0x0 KECCAK256 DUP5 DUP2 SLOAD DUP2 LT PUSH2 0x2433 JUMPI INVALID JUMPDEST SWAP1 PUSH1 0x0 MSTORE PUSH1 0x20 PUSH1 0x0 KECCAK256 SWAP1 PUSH1 0xB MUL ADD PUSH1 0x9 ADD DUP2 SWAP1 SSTORE POP POP POP POP JUMP JUMPDEST PUSH1 0x1 PUSH1 0x0 SWAP1 SLOAD SWAP1 PUSH2 0x100 EXP SWAP1 DIV PUSH20 0xFFFFFFFFFFFFFFFFFFFFFFFFFFFFFFFFFFFFFFFF AND PUSH20 0xFFFFFFFFFFFFFFFFFFFFFFFFFFFFFFFFFFFFFFFF AND PUSH4 0x23B872DD CALLER ADDRESS DUP5 PUSH1 0x40 MLOAD DUP5 PUSH4 0xFFFFFFFF AND PUSH1 0xE0 SHL DUP2 MSTORE PUSH1 0x4 ADD DUP1 DUP5 PUSH20 0xFFFFFFFFFFFFFFFFFFFFFFFFFFFFFFFFFFFFFFFF AND PUSH20 0xFFFFFFFFFFFFFFFFFFFFFFFFFFFFFFFFFFFFFFFF AND DUP2 MSTORE PUSH1 0x20 ADD DUP4 PUSH20 0xFFFFFFFFFFFFFFFFFFFFFFFFFFFFFFFFFFFFFFFF AND PUSH20 0xFFFFFFFFFFFFFFFFFFFFFFFFFFFFFFFFFFFFFFFF AND DUP2 MSTORE PUSH1 0x20 ADD DUP3 DUP2 MSTORE PUSH1 0x20 ADD SWAP4 POP POP POP POP PUSH1 0x20 PUSH1 0x40 MLOAD DUP1 DUP4 SUB DUP2 PUSH1 0x0 DUP8 DUP1 EXTCODESIZE ISZERO DUP1 ISZERO PUSH2 0x252A JUMPI PUSH1 0x0 DUP1 REVERT JUMPDEST POP GAS CALL ISZERO DUP1 ISZERO PUSH2 0x253E JUMPI RETURNDATASIZE PUSH1 0x0 DUP1 RETURNDATACOPY RETURNDATASIZE PUSH1 0x0 REVERT JUMPDEST POP POP POP POP PUSH1 0x40 MLOAD RETURNDATASIZE PUSH1 0x20 DUP2 LT ISZERO PUSH2 0x2554 JUMPI PUSH1 0x0 DUP1 REVERT JUMPDEST DUP2 ADD SWAP1 DUP1 DUP1 MLOAD SWAP1 PUSH1 0x20 ADD SWAP1 SWAP3 SWAP2 SWAP1 POP POP POP PUSH2 0x256E JUMPI PUSH1 0x0 DUP1 REVERT JUMPDEST PUSH2 0x25C0 DUP2 PUSH1 0xB PUSH1 0x0 CALLER PUSH20 0xFFFFFFFFFFFFFFFFFFFFFFFFFFFFFFFFFFFFFFFF AND PUSH20 0xFFFFFFFFFFFFFFFFFFFFFFFFFFFFFFFFFFFFFFFF AND DUP2 MSTORE PUSH1 0x20 ADD SWAP1 DUP2 MSTORE PUSH1 0x20 ADD PUSH1 0x0 KECCAK256 SLOAD PUSH2 0x5D50 SWAP1 SWAP2 SWAP1 PUSH4 0xFFFFFFFF AND JUMP JUMPDEST PUSH1 0xB PUSH1 0x0 CALLER PUSH20 0xFFFFFFFFFFFFFFFFFFFFFFFFFFFFFFFFFFFFFFFF AND PUSH20 0xFFFFFFFFFFFFFFFFFFFFFFFFFFFFFFFFFFFFFFFF AND DUP2 MSTORE PUSH1 0x20 ADD SWAP1 DUP2 MSTORE PUSH1 0x20 ADD PUSH1 0x0 KECCAK256 DUP2 SWAP1 SSTORE POP POP JUMP JUMPDEST PUSH1 0x6 DUP2 DUP2 SLOAD DUP2 LT PUSH2 0x2613 JUMPI INVALID JUMPDEST SWAP1 PUSH1 0x0 MSTORE PUSH1 0x20 PUSH1 0x0 KECCAK256 SWAP1 PUSH1 0x2 MUL ADD PUSH1 0x0 SWAP2 POP SWAP1 POP DUP1 PUSH1 0x0 ADD SLOAD SWAP1 DUP1 PUSH1 0x1 ADD SLOAD SWAP1 POP DUP3 JUMP JUMPDEST PUSH1 0xB PUSH1 0x20 MSTORE DUP1 PUSH1 0x0 MSTORE PUSH1 0x40 PUSH1 0x0 KECCAK256 PUSH1 0x0 SWAP2 POP SWAP1 POP SLOAD DUP2 JUMP JUMPDEST PUSH1 0x0 DUP1 SWAP1 SLOAD SWAP1 PUSH2 0x100 EXP SWAP1 DIV PUSH20 0xFFFFFFFFFFFFFFFFFFFFFFFFFFFFFFFFFFFFFFFF AND PUSH20 0xFFFFFFFFFFFFFFFFFFFFFFFFFFFFFFFFFFFFFFFF AND CALLER PUSH20 0xFFFFFFFFFFFFFFFFFFFFFFFFFFFFFFFFFFFFFFFF AND EQ PUSH2 0x2711 JUMPI PUSH1 0x40 MLOAD PUSH32 0x8C379A000000000000000000000000000000000000000000000000000000000 DUP2 MSTORE PUSH1 0x4 ADD DUP1 DUP1 PUSH1 0x20 ADD DUP3 DUP2 SUB DUP3 MSTORE PUSH1 0x16 DUP2 MSTORE PUSH1 0x20 ADD DUP1 PUSH32 0x6F6E6C79206465706C6F7965722063616E2063616C6C00000000000000000000 DUP2 MSTORE POP PUSH1 0x20 ADD SWAP2 POP POP PUSH1 0x40 MLOAD DUP1 SWAP2 SUB SWAP1 REVERT JUMPDEST PUSH1 0x7 PUSH1 0x40 MLOAD DUP1 PUSH1 0x40 ADD PUSH1 0x40 MSTORE DUP1 DUP5 DUP2 MSTORE PUSH1 0x20 ADD DUP4 DUP2 MSTORE POP SWAP1 DUP1 PUSH1 0x1 DUP2 SLOAD ADD DUP1 DUP3 SSTORE DUP1 SWAP2 POP POP SWAP1 PUSH1 0x1 DUP3 SUB SWAP1 PUSH1 0x0 MSTORE PUSH1 0x20 PUSH1 0x0 KECCAK256 SWAP1 PUSH1 0x2 MUL ADD PUSH1 0x0 SWAP1 SWAP2 SWAP3 SWAP1 SWAP2 SWAP1 SWAP2 POP PUSH1 0x0 DUP3 ADD MLOAD DUP2 PUSH1 0x0 ADD SSTORE PUSH1 0x20 DUP3 ADD MLOAD DUP2 PUSH1 0x1 ADD SSTORE POP POP POP POP POP JUMP JUMPDEST PUSH1 0x0 DUP1 SWAP1 SLOAD SWAP1 PUSH2 0x100 EXP SWAP1 DIV PUSH20 0xFFFFFFFFFFFFFFFFFFFFFFFFFFFFFFFFFFFFFFFF AND PUSH20 0xFFFFFFFFFFFFFFFFFFFFFFFFFFFFFFFFFFFFFFFF AND CALLER PUSH20 0xFFFFFFFFFFFFFFFFFFFFFFFFFFFFFFFFFFFFFFFF AND EQ PUSH2 0x2830 JUMPI PUSH1 0x40 MLOAD PUSH32 0x8C379A000000000000000000000000000000000000000000000000000000000 DUP2 MSTORE PUSH1 0x4 ADD DUP1 DUP1 PUSH1 0x20 ADD DUP3 DUP2 SUB DUP3 MSTORE PUSH1 0x16 DUP2 MSTORE PUSH1 0x20 ADD DUP1 PUSH32 0x6F6E6C79206465706C6F7965722063616E2063616C6C00000000000000000000 DUP2 MSTORE POP PUSH1 0x20 ADD SWAP2 POP POP PUSH1 0x40 MLOAD DUP1 SWAP2 SUB SWAP1 REVERT JUMPDEST PUSH1 0x0 DUP1 SWAP1 POP JUMPDEST DUP3 MLOAD DUP2 LT ISZERO PUSH2 0x29C2 JUMPI PUSH2 0x28A4 DUP3 DUP3 DUP2 MLOAD DUP2 LT PUSH2 0x284E JUMPI INVALID JUMPDEST PUSH1 0x20 MUL PUSH1 0x20 ADD ADD MLOAD PUSH1 0xB PUSH1 0x0 CALLER PUSH20 0xFFFFFFFFFFFFFFFFFFFFFFFFFFFFFFFFFFFFFFFF AND PUSH20 0xFFFFFFFFFFFFFFFFFFFFFFFFFFFFFFFFFFFFFFFF AND DUP2 MSTORE PUSH1 0x20 ADD SWAP1 DUP2 MSTORE PUSH1 0x20 ADD PUSH1 0x0 KECCAK256 SLOAD PUSH2 0x5D30 SWAP1 SWAP2 SWAP1 PUSH4 0xFFFFFFFF AND JUMP JUMPDEST PUSH1 0xB PUSH1 0x0 CALLER PUSH20 0xFFFFFFFFFFFFFFFFFFFFFFFFFFFFFFFFFFFFFFFF AND PUSH20 0xFFFFFFFFFFFFFFFFFFFFFFFFFFFFFFFFFFFFFFFF AND DUP2 MSTORE PUSH1 0x20 ADD SWAP1 DUP2 MSTORE PUSH1 0x20 ADD PUSH1 0x0 KECCAK256 DUP2 SWAP1 SSTORE POP PUSH2 0x295F DUP3 DUP3 DUP2 MLOAD DUP2 LT PUSH2 0x28F6 JUMPI INVALID JUMPDEST PUSH1 0x20 MUL PUSH1 0x20 ADD ADD MLOAD PUSH1 0xB PUSH1 0x0 DUP7 DUP6 DUP2 MLOAD DUP2 LT PUSH2 0x290E JUMPI INVALID JUMPDEST PUSH1 0x20 MUL PUSH1 0x20 ADD ADD MLOAD PUSH20 0xFFFFFFFFFFFFFFFFFFFFFFFFFFFFFFFFFFFFFFFF AND PUSH20 0xFFFFFFFFFFFFFFFFFFFFFFFFFFFFFFFFFFFFFFFF AND DUP2 MSTORE PUSH1 0x20 ADD SWAP1 DUP2 MSTORE PUSH1 0x20 ADD PUSH1 0x0 KECCAK256 SLOAD PUSH2 0x5D50 SWAP1 SWAP2 SWAP1 PUSH4 0xFFFFFFFF AND JUMP JUMPDEST PUSH1 0xB PUSH1 0x0 DUP6 DUP5 DUP2 MLOAD DUP2 LT PUSH2 0x296F JUMPI INVALID JUMPDEST PUSH1 0x20 MUL PUSH1 0x20 ADD ADD MLOAD PUSH20 0xFFFFFFFFFFFFFFFFFFFFFFFFFFFFFFFFFFFFFFFF AND PUSH20 0xFFFFFFFFFFFFFFFFFFFFFFFFFFFFFFFFFFFFFFFF AND DUP2 MSTORE PUSH1 0x20 ADD SWAP1 DUP2 MSTORE PUSH1 0x20 ADD PUSH1 0x0 KECCAK256 DUP2 SWAP1 SSTORE POP DUP1 DUP1 PUSH1 0x1 ADD SWAP2 POP POP PUSH2 0x2836 JUMP JUMPDEST POP POP POP JUMP JUMPDEST PUSH1 0x0 DUP1 SWAP1 SLOAD SWAP1 PUSH2 0x100 EXP SWAP1 DIV PUSH20 0xFFFFFFFFFFFFFFFFFFFFFFFFFFFFFFFFFFFFFFFF AND DUP2 JUMP JUMPDEST PUSH1 0x0 PUSH1 0x1 PUSH1 0x0 SWAP1 SLOAD SWAP1 PUSH2 0x100 EXP SWAP1 DIV PUSH20 0xFFFFFFFFFFFFFFFFFFFFFFFFFFFFFFFFFFFFFFFF AND PUSH20 0xFFFFFFFFFFFFFFFFFFFFFFFFFFFFFFFFFFFFFFFF AND PUSH4 0xB81F90F3 PUSH1 0x40 MLOAD DUP2 PUSH4 0xFFFFFFFF AND PUSH1 0xE0 SHL DUP2 MSTORE PUSH1 0x4 ADD PUSH1 0x20 PUSH1 0x40 MLOAD DUP1 DUP4 SUB DUP2 DUP7 DUP1 EXTCODESIZE ISZERO DUP1 ISZERO PUSH2 0x2A56 JUMPI PUSH1 0x0 DUP1 REVERT JUMPDEST POP GAS STATICCALL ISZERO DUP1 ISZERO PUSH2 0x2A6A JUMPI RETURNDATASIZE PUSH1 0x0 DUP1 RETURNDATACOPY RETURNDATASIZE PUSH1 0x0 REVERT JUMPDEST POP POP POP POP PUSH1 0x40 MLOAD RETURNDATASIZE PUSH1 0x20 DUP2 LT ISZERO PUSH2 0x2A80 JUMPI PUSH1 0x0 DUP1 REVERT JUMPDEST DUP2 ADD SWAP1 DUP1 DUP1 MLOAD SWAP1 PUSH1 0x20 ADD SWAP1 SWAP3 SWAP2 SWAP1 POP POP POP SWAP1 POP PUSH1 0x4 SLOAD PUSH1 0xC MUL PUSH1 0x4 SLOAD PUSH1 0x6 PUSH1 0x8 PUSH1 0x0 DUP8 PUSH20 0xFFFFFFFFFFFFFFFFFFFFFFFFFFFFFFFFFFFFFFFF AND PUSH20 0xFFFFFFFFFFFFFFFFFFFFFFFFFFFFFFFFFFFFFFFF AND DUP2 MSTORE PUSH1 0x20 ADD SWAP1 DUP2 MSTORE PUSH1 0x20 ADD PUSH1 0x0 KECCAK256 DUP6 DUP2 SLOAD DUP2 LT PUSH2 0x2AE8 JUMPI INVALID JUMPDEST SWAP1 PUSH1 0x0 MSTORE PUSH1 0x20 PUSH1 0x0 KECCAK256 SWAP1 PUSH1 0xB MUL ADD PUSH1 0x2 ADD SLOAD DUP2 SLOAD DUP2 LT PUSH2 0x2B04 JUMPI INVALID JUMPDEST SWAP1 PUSH1 0x0 MSTORE PUSH1 0x20 PUSH1 0x0 KECCAK256 SWAP1 PUSH1 0x2 MUL ADD PUSH1 0x0 ADD SLOAD MUL PUSH1 0x8 PUSH1 0x0 DUP7 PUSH20 0xFFFFFFFFFFFFFFFFFFFFFFFFFFFFFFFFFFFFFFFF AND PUSH20 0xFFFFFFFFFFFFFFFFFFFFFFFFFFFFFFFFFFFFFFFF AND DUP2 MSTORE PUSH1 0x20 ADD SWAP1 DUP2 MSTORE PUSH1 0x20 ADD PUSH1 0x0 KECCAK256 DUP5 DUP2 SLOAD DUP2 LT PUSH2 0x2B61 JUMPI INVALID JUMPDEST SWAP1 PUSH1 0x0 MSTORE PUSH1 0x20 PUSH1 0x0 KECCAK256 SWAP1 PUSH1 0xB MUL ADD PUSH1 0x1 ADD SLOAD ADD ADD DUP2 GT PUSH2 0x2BE9 JUMPI PUSH1 0x40 MLOAD PUSH32 0x8C379A000000000000000000000000000000000000000000000000000000000 DUP2 MSTORE PUSH1 0x4 ADD DUP1 DUP1 PUSH1 0x20 ADD DUP3 DUP2 SUB DUP3 MSTORE PUSH1 0x1E DUP2 MSTORE PUSH1 0x20 ADD DUP1 PUSH32 0x63616E6E6F74206E6F6D696E6565207769746864726177206265666F72650000 DUP2 MSTORE POP PUSH1 0x20 ADD SWAP2 POP POP PUSH1 0x40 MLOAD DUP1 SWAP2 SUB SWAP1 REVERT JUMPDEST PUSH1 0x0 PUSH1 0x8 PUSH1 0x0 DUP6 PUSH20 0xFFFFFFFFFFFFFFFFFFFFFFFFFFFFFFFFFFFFFFFF AND PUSH20 0xFFFFFFFFFFFFFFFFFFFFFFFFFFFFFFFFFFFFFFFF AND DUP2 MSTORE PUSH1 0x20 ADD SWAP1 DUP2 MSTORE PUSH1 0x20 ADD PUSH1 0x0 KECCAK256 DUP4 DUP2 SLOAD DUP2 LT PUSH2 0x2C35 JUMPI INVALID JUMPDEST SWAP1 PUSH1 0x0 MSTORE PUSH1 0x20 PUSH1 0x0 KECCAK256 SWAP1 PUSH1 0xB MUL ADD PUSH1 0xA ADD PUSH1 0x0 CALLER PUSH20 0xFFFFFFFFFFFFFFFFFFFFFFFFFFFFFFFFFFFFFFFF AND PUSH20 0xFFFFFFFFFFFFFFFFFFFFFFFFFFFFFFFFFFFFFFFF AND DUP2 MSTORE PUSH1 0x20 ADD SWAP1 DUP2 MSTORE PUSH1 0x20 ADD PUSH1 0x0 KECCAK256 SLOAD SWAP1 POP PUSH1 0x0 DUP2 GT PUSH2 0x2CFC JUMPI PUSH1 0x40 MLOAD PUSH32 0x8C379A000000000000000000000000000000000000000000000000000000000 DUP2 MSTORE PUSH1 0x4 ADD DUP1 DUP1 PUSH1 0x20 ADD DUP3 DUP2 SUB DUP3 MSTORE PUSH1 0x1D DUP2 MSTORE PUSH1 0x20 ADD DUP1 PUSH32 0x4E6F742061206E6F6D696E6565206F662074686973207374616B696E67000000 DUP2 MSTORE POP PUSH1 0x20 ADD SWAP2 POP POP PUSH1 0x40 MLOAD DUP1 SWAP2 SUB SWAP1 REVERT JUMPDEST PUSH1 0x5 PUSH1 0x8 PUSH1 0x0 DUP7 PUSH20 0xFFFFFFFFFFFFFFFFFFFFFFFFFFFFFFFFFFFFFFFF AND PUSH20 0xFFFFFFFFFFFFFFFFFFFFFFFFFFFFFFFFFFFFFFFF AND DUP2 MSTORE PUSH1 0x20 ADD SWAP1 DUP2 MSTORE PUSH1 0x20 ADD PUSH1 0x0 KECCAK256 DUP5 DUP2 SLOAD DUP2 LT PUSH2 0x2D48 JUMPI INVALID JUMPDEST SWAP1 PUSH1 0x0 MSTORE PUSH1 0x20 PUSH1 0x0 KECCAK256 SWAP1 PUSH1 0xB MUL ADD PUSH1 0x3 ADD SLOAD EQ PUSH2 0x2DC1 JUMPI PUSH1 0x5 PUSH1 0x8 PUSH1 0x0 DUP7 PUSH20 0xFFFFFFFFFFFFFFFFFFFFFFFFFFFFFFFFFFFFFFFF AND PUSH20 0xFFFFFFFFFFFFFFFFFFFFFFFFFFFFFFFFFFFFFFFF AND DUP2 MSTORE PUSH1 0x20 ADD SWAP1 DUP2 MSTORE PUSH1 0x20 ADD PUSH1 0x0 KECCAK256 DUP5 DUP2 SLOAD DUP2 LT PUSH2 0x2DAB JUMPI INVALID JUMPDEST SWAP1 PUSH1 0x0 MSTORE PUSH1 0x20 PUSH1 0x0 KECCAK256 SWAP1 PUSH1 0xB MUL ADD PUSH1 0x3 ADD DUP2 SWAP1 SSTORE POP JUMPDEST PUSH1 0x0 PUSH1 0x8 PUSH1 0x0 DUP7 PUSH20 0xFFFFFFFFFFFFFFFFFFFFFFFFFFFFFFFFFFFFFFFF AND PUSH20 0xFFFFFFFFFFFFFFFFFFFFFFFFFFFFFFFFFFFFFFFF AND DUP2 MSTORE PUSH1 0x20 ADD SWAP1 DUP2 MSTORE PUSH1 0x20 ADD PUSH1 0x0 KECCAK256 DUP5 DUP2 SLOAD DUP2 LT PUSH2 0x2E0D JUMPI INVALID JUMPDEST SWAP1 PUSH1 0x0 MSTORE PUSH1 0x20 PUSH1 0x0 KECCAK256 SWAP1 PUSH1 0xB MUL ADD PUSH1 0x0 ADD SLOAD SWAP1 POP PUSH1 0x0 DUP1 PUSH2 0x2EA8 PUSH1 0x4 SLOAD PUSH2 0x2E9A PUSH1 0x3 SLOAD PUSH1 0x8 PUSH1 0x0 DUP13 PUSH20 0xFFFFFFFFFFFFFFFFFFFFFFFFFFFFFFFFFFFFFFFF AND PUSH20 0xFFFFFFFFFFFFFFFFFFFFFFFFFFFFFFFFFFFFFFFF AND DUP2 MSTORE PUSH1 0x20 ADD SWAP1 DUP2 MSTORE PUSH1 0x20 ADD PUSH1 0x0 KECCAK256 DUP11 DUP2 SLOAD DUP2 LT PUSH2 0x2E7A JUMPI INVALID JUMPDEST SWAP1 PUSH1 0x0 MSTORE PUSH1 0x20 PUSH1 0x0 KECCAK256 SWAP1 PUSH1 0xB MUL ADD PUSH1 0x1 ADD SLOAD PUSH2 0x5D30 SWAP1 SWAP2 SWAP1 PUSH4 0xFFFFFFFF AND JUMP JUMPDEST PUSH2 0x5DA9 SWAP1 SWAP2 SWAP1 PUSH4 0xFFFFFFFF AND JUMP JUMPDEST SWAP1 POP PUSH1 0x0 PUSH1 0x6 PUSH1 0x8 PUSH1 0x0 DUP11 PUSH20 0xFFFFFFFFFFFFFFFFFFFFFFFFFFFFFFFFFFFFFFFF AND PUSH20 0xFFFFFFFFFFFFFFFFFFFFFFFFFFFFFFFFFFFFFFFF AND DUP2 MSTORE PUSH1 0x20 ADD SWAP1 DUP2 MSTORE PUSH1 0x20 ADD PUSH1 0x0 KECCAK256 DUP9 DUP2 SLOAD DUP2 LT PUSH2 0x2EF8 JUMPI INVALID JUMPDEST SWAP1 PUSH1 0x0 MSTORE PUSH1 0x20 PUSH1 0x0 KECCAK256 SWAP1 PUSH1 0xB MUL ADD PUSH1 0x2 ADD SLOAD DUP2 SLOAD DUP2 LT PUSH2 0x2F14 JUMPI INVALID JUMPDEST SWAP1 PUSH1 0x0 MSTORE PUSH1 0x20 PUSH1 0x0 KECCAK256 SWAP1 PUSH1 0x2 MUL ADD PUSH1 0x0 ADD SLOAD DUP3 ADD SWAP1 POP PUSH1 0x0 DUP3 SWAP1 POP JUMPDEST DUP2 DUP2 LT ISZERO PUSH2 0x3168 JUMPI PUSH1 0x8 PUSH1 0x0 DUP11 PUSH20 0xFFFFFFFFFFFFFFFFFFFFFFFFFFFFFFFFFFFFFFFF AND PUSH20 0xFFFFFFFFFFFFFFFFFFFFFFFFFFFFFFFFFFFFFFFF AND DUP2 MSTORE PUSH1 0x20 ADD SWAP1 DUP2 MSTORE PUSH1 0x20 ADD PUSH1 0x0 KECCAK256 DUP9 DUP2 SLOAD DUP2 LT PUSH2 0x2F82 JUMPI INVALID JUMPDEST SWAP1 PUSH1 0x0 MSTORE PUSH1 0x20 PUSH1 0x0 KECCAK256 SWAP1 PUSH1 0xB MUL ADD PUSH1 0x6 ADD PUSH1 0x0 DUP3 DUP2 MSTORE PUSH1 0x20 ADD SWAP1 DUP2 MSTORE PUSH1 0x20 ADD PUSH1 0x0 KECCAK256 PUSH1 0x0 SWAP1 SLOAD SWAP1 PUSH2 0x100 EXP SWAP1 DIV PUSH1 0xFF AND ISZERO PUSH2 0x315B JUMPI PUSH1 0x0 PUSH2 0x30B3 PUSH1 0xF PUSH2 0x30A5 PUSH1 0x6 PUSH1 0x8 PUSH1 0x0 DUP16 PUSH20 0xFFFFFFFFFFFFFFFFFFFFFFFFFFFFFFFFFFFFFFFF AND PUSH20 0xFFFFFFFFFFFFFFFFFFFFFFFFFFFFFFFFFFFFFFFF AND DUP2 MSTORE PUSH1 0x20 ADD SWAP1 DUP2 MSTORE PUSH1 0x20 ADD PUSH1 0x0 KECCAK256 DUP14 DUP2 SLOAD DUP2 LT PUSH2 0x300D JUMPI INVALID JUMPDEST SWAP1 PUSH1 0x0 MSTORE PUSH1 0x20 PUSH1 0x0 KECCAK256 SWAP1 PUSH1 0xB MUL ADD PUSH1 0x2 ADD SLOAD DUP2 SLOAD DUP2 LT PUSH2 0x3029 JUMPI INVALID JUMPDEST SWAP1 PUSH1 0x0 MSTORE PUSH1 0x20 PUSH1 0x0 KECCAK256 SWAP1 PUSH1 0x2 MUL ADD PUSH1 0x1 ADD SLOAD PUSH1 0x8 PUSH1 0x0 DUP16 PUSH20 0xFFFFFFFFFFFFFFFFFFFFFFFFFFFFFFFFFFFFFFFF AND PUSH20 0xFFFFFFFFFFFFFFFFFFFFFFFFFFFFFFFFFFFFFFFF AND DUP2 MSTORE PUSH1 0x20 ADD SWAP1 DUP2 MSTORE PUSH1 0x20 ADD PUSH1 0x0 KECCAK256 DUP14 DUP2 SLOAD DUP2 LT PUSH2 0x3085 JUMPI INVALID JUMPDEST SWAP1 PUSH1 0x0 MSTORE PUSH1 0x20 PUSH1 0x0 KECCAK256 SWAP1 PUSH1 0xB MUL ADD PUSH1 0x0 ADD SLOAD PUSH2 0x5D6F SWAP1 SWAP2 SWAP1 PUSH4 0xFFFFFFFF AND JUMP JUMPDEST PUSH2 0x5DA9 SWAP1 SWAP2 SWAP1 PUSH4 0xFFFFFFFF AND JUMP JUMPDEST SWAP1 POP PUSH1 0x0 PUSH2 0x3106 PUSH1 0xA PUSH1 0x0 DUP6 DUP2 MSTORE PUSH1 0x20 ADD SWAP1 DUP2 MSTORE PUSH1 0x20 ADD PUSH1 0x0 KECCAK256 SLOAD PUSH2 0x30F8 PUSH1 0x5 DUP7 DUP2 SLOAD DUP2 LT PUSH2 0x30DE JUMPI INVALID JUMPDEST SWAP1 PUSH1 0x0 MSTORE PUSH1 0x20 PUSH1 0x0 KECCAK256 ADD SLOAD DUP6 PUSH2 0x5D6F SWAP1 SWAP2 SWAP1 PUSH4 0xFFFFFFFF AND JUMP JUMPDEST PUSH2 0x5DA9 SWAP1 SWAP2 SWAP1 PUSH4 0xFFFFFFFF AND JUMP JUMPDEST SWAP1 POP PUSH2 0x312E PUSH2 0x311F PUSH1 0x2 DUP4 PUSH2 0x5DA9 SWAP1 SWAP2 SWAP1 PUSH4 0xFFFFFFFF AND JUMP JUMPDEST DUP9 PUSH2 0x5D50 SWAP1 SWAP2 SWAP1 PUSH4 0xFFFFFFFF AND JUMP JUMPDEST SWAP7 POP PUSH2 0x3156 PUSH2 0x3147 PUSH1 0x2 DUP4 PUSH2 0x5DA9 SWAP1 SWAP2 SWAP1 PUSH4 0xFFFFFFFF AND JUMP JUMPDEST DUP8 PUSH2 0x5D50 SWAP1 SWAP2 SWAP1 PUSH4 0xFFFFFFFF AND JUMP JUMPDEST SWAP6 POP POP POP JUMPDEST DUP1 DUP1 PUSH1 0x1 ADD SWAP2 POP POP PUSH2 0x2F30 JUMP JUMPDEST POP PUSH1 0x0 PUSH1 0x8 PUSH1 0x0 DUP11 PUSH20 0xFFFFFFFFFFFFFFFFFFFFFFFFFFFFFFFFFFFFFFFF AND PUSH20 0xFFFFFFFFFFFFFFFFFFFFFFFFFFFFFFFFFFFFFFFF AND DUP2 MSTORE PUSH1 0x20 ADD SWAP1 DUP2 MSTORE PUSH1 0x20 ADD PUSH1 0x0 KECCAK256 DUP9 DUP2 SLOAD DUP2 LT PUSH2 0x31B5 JUMPI INVALID JUMPDEST SWAP1 PUSH1 0x0 MSTORE PUSH1 0x20 PUSH1 0x0 KECCAK256 SWAP1 PUSH1 0xB MUL ADD PUSH1 0xA ADD PUSH1 0x0 CALLER PUSH20 0xFFFFFFFFFFFFFFFFFFFFFFFFFFFFFFFFFFFFFFFF AND PUSH20 0xFFFFFFFFFFFFFFFFFFFFFFFFFFFFFFFFFFFFFFFF AND DUP2 MSTORE PUSH1 0x20 ADD SWAP1 DUP2 MSTORE PUSH1 0x20 ADD PUSH1 0x0 KECCAK256 DUP2 SWAP1 SSTORE POP PUSH1 0x0 PUSH2 0x3289 PUSH1 0x8 PUSH1 0x0 DUP12 PUSH20 0xFFFFFFFFFFFFFFFFFFFFFFFFFFFFFFFFFFFFFFFF AND PUSH20 0xFFFFFFFFFFFFFFFFFFFFFFFFFFFFFFFFFFFFFFFF AND DUP2 MSTORE PUSH1 0x20 ADD SWAP1 DUP2 MSTORE PUSH1 0x20 ADD PUSH1 0x0 KECCAK256 DUP10 DUP2 SLOAD DUP2 LT PUSH2 0x3256 JUMPI INVALID JUMPDEST SWAP1 PUSH1 0x0 MSTORE PUSH1 0x20 PUSH1 0x0 KECCAK256 SWAP1 PUSH1 0xB MUL ADD PUSH1 0x9 ADD SLOAD PUSH2 0x327B DUP9 DUP9 PUSH2 0x5D6F SWAP1 SWAP2 SWAP1 PUSH4 0xFFFFFFFF AND JUMP JUMPDEST PUSH2 0x5DA9 SWAP1 SWAP2 SWAP1 PUSH4 0xFFFFFFFF AND JUMP JUMPDEST SWAP1 POP PUSH1 0x1 PUSH1 0x0 SWAP1 SLOAD SWAP1 PUSH2 0x100 EXP SWAP1 DIV PUSH20 0xFFFFFFFFFFFFFFFFFFFFFFFFFFFFFFFFFFFFFFFF AND PUSH20 0xFFFFFFFFFFFFFFFFFFFFFFFFFFFFFFFFFFFFFFFF AND PUSH4 0xA9059CBB CALLER DUP4 PUSH1 0x40 MLOAD DUP4 PUSH4 0xFFFFFFFF AND PUSH1 0xE0 SHL DUP2 MSTORE PUSH1 0x4 ADD DUP1 DUP4 PUSH20 0xFFFFFFFFFFFFFFFFFFFFFFFFFFFFFFFFFFFFFFFF AND PUSH20 0xFFFFFFFFFFFFFFFFFFFFFFFFFFFFFFFFFFFFFFFF AND DUP2 MSTORE PUSH1 0x20 ADD DUP3 DUP2 MSTORE PUSH1 0x20 ADD SWAP3 POP POP POP PUSH1 0x20 PUSH1 0x40 MLOAD DUP1 DUP4 SUB DUP2 PUSH1 0x0 DUP8 DUP1 EXTCODESIZE ISZERO DUP1 ISZERO PUSH2 0x3334 JUMPI PUSH1 0x0 DUP1 REVERT JUMPDEST POP GAS CALL ISZERO DUP1 ISZERO PUSH2 0x3348 JUMPI RETURNDATASIZE PUSH1 0x0 DUP1 RETURNDATACOPY RETURNDATASIZE PUSH1 0x0 REVERT JUMPDEST POP POP POP POP PUSH1 0x40 MLOAD RETURNDATASIZE PUSH1 0x20 DUP2 LT ISZERO PUSH2 0x335E JUMPI PUSH1 0x0 DUP1 REVERT JUMPDEST DUP2 ADD SWAP1 DUP1 DUP1 MLOAD SWAP1 PUSH1 0x20 ADD SWAP1 SWAP3 SWAP2 SWAP1 POP POP POP POP PUSH1 0x0 PUSH2 0x33F2 PUSH1 0x8 PUSH1 0x0 DUP13 PUSH20 0xFFFFFFFFFFFFFFFFFFFFFFFFFFFFFFFFFFFFFFFF AND PUSH20 0xFFFFFFFFFFFFFFFFFFFFFFFFFFFFFFFFFFFFFFFF AND DUP2 MSTORE PUSH1 0x20 ADD SWAP1 DUP2 MSTORE PUSH1 0x20 ADD PUSH1 0x0 KECCAK256 DUP11 DUP2 SLOAD DUP2 LT PUSH2 0x33BF JUMPI INVALID JUMPDEST SWAP1 PUSH1 0x0 MSTORE PUSH1 0x20 PUSH1 0x0 KECCAK256 SWAP1 PUSH1 0xB MUL ADD PUSH1 0x9 ADD SLOAD PUSH2 0x33E4 DUP10 DUP9 PUSH2 0x5D6F SWAP1 SWAP2 SWAP1 PUSH4 0xFFFFFFFF AND JUMP JUMPDEST PUSH2 0x5DA9 SWAP1 SWAP2 SWAP1 PUSH4 0xFFFFFFFF AND JUMP JUMPDEST SWAP1 POP PUSH2 0x3446 DUP2 PUSH1 0xB PUSH1 0x0 CALLER PUSH20 0xFFFFFFFFFFFFFFFFFFFFFFFFFFFFFFFFFFFFFFFF AND PUSH20 0xFFFFFFFFFFFFFFFFFFFFFFFFFFFFFFFFFFFFFFFF AND DUP2 MSTORE PUSH1 0x20 ADD SWAP1 DUP2 MSTORE PUSH1 0x20 ADD PUSH1 0x0 KECCAK256 SLOAD PUSH2 0x5D50 SWAP1 SWAP2 SWAP1 PUSH4 0xFFFFFFFF AND JUMP JUMPDEST PUSH1 0xB PUSH1 0x0 CALLER PUSH20 0xFFFFFFFFFFFFFFFFFFFFFFFFFFFFFFFFFFFFFFFF AND PUSH20 0xFFFFFFFFFFFFFFFFFFFFFFFFFFFFFFFFFFFFFFFF AND DUP2 MSTORE PUSH1 0x20 ADD SWAP1 DUP2 MSTORE PUSH1 0x20 ADD PUSH1 0x0 KECCAK256 DUP2 SWAP1 SSTORE POP CALLER PUSH20 0xFFFFFFFFFFFFFFFFFFFFFFFFFFFFFFFFFFFFFFFF AND DUP10 DUP12 PUSH20 0xFFFFFFFFFFFFFFFFFFFFFFFFFFFFFFFFFFFFFFFF AND PUSH32 0xA54CEC59552C7F022EED79EDE59F759697AA5787F43B11D61F17BFC5ADAFFB65 DUP6 DUP6 PUSH1 0x40 MLOAD DUP1 DUP4 DUP2 MSTORE PUSH1 0x20 ADD DUP3 DUP2 MSTORE PUSH1 0x20 ADD SWAP3 POP POP POP PUSH1 0x40 MLOAD DUP1 SWAP2 SUB SWAP1 LOG4 POP POP POP POP POP POP POP POP POP POP JUMP JUMPDEST PUSH1 0x0 DUP1 PUSH2 0x358A PUSH1 0x4 SLOAD PUSH2 0x357C PUSH1 0x3 SLOAD PUSH1 0x8 PUSH1 0x0 DUP12 PUSH20 0xFFFFFFFFFFFFFFFFFFFFFFFFFFFFFFFFFFFFFFFF AND PUSH20 0xFFFFFFFFFFFFFFFFFFFFFFFFFFFFFFFFFFFFFFFF AND DUP2 MSTORE PUSH1 0x20 ADD SWAP1 DUP2 MSTORE PUSH1 0x20 ADD PUSH1 0x0 KECCAK256 DUP10 DUP2 SLOAD DUP2 LT PUSH2 0x355C JUMPI INVALID JUMPDEST SWAP1 PUSH1 0x0 MSTORE PUSH1 0x20 PUSH1 0x0 KECCAK256 SWAP1 PUSH1 0xB MUL ADD PUSH1 0x1 ADD SLOAD PUSH2 0x5D30 SWAP1 SWAP2 SWAP1 PUSH4 0xFFFFFFFF AND JUMP JUMPDEST PUSH2 0x5DA9 SWAP1 SWAP2 SWAP1 PUSH4 0xFFFFFFFF AND JUMP JUMPDEST SWAP1 POP DUP3 PUSH1 0x1 DUP3 ADD GT ISZERO DUP1 ISZERO PUSH2 0x361A JUMPI POP DUP3 PUSH1 0x6 PUSH1 0x8 PUSH1 0x0 DUP10 PUSH20 0xFFFFFFFFFFFFFFFFFFFFFFFFFFFFFFFFFFFFFFFF AND PUSH20 0xFFFFFFFFFFFFFFFFFFFFFFFFFFFFFFFFFFFFFFFF AND DUP2 MSTORE PUSH1 0x20 ADD SWAP1 DUP2 MSTORE PUSH1 0x20 ADD PUSH1 0x0 KECCAK256 DUP8 DUP2 SLOAD DUP2 LT PUSH2 0x35E7 JUMPI INVALID JUMPDEST SWAP1 PUSH1 0x0 MSTORE PUSH1 0x20 PUSH1 0x0 KECCAK256 SWAP1 PUSH1 0xB MUL ADD PUSH1 0x2 ADD SLOAD DUP2 SLOAD DUP2 LT PUSH2 0x3603 JUMPI INVALID JUMPDEST SWAP1 PUSH1 0x0 MSTORE PUSH1 0x20 PUSH1 0x0 KECCAK256 SWAP1 PUSH1 0x2 MUL ADD PUSH1 0x0 ADD SLOAD DUP3 ADD LT ISZERO JUMPDEST DUP1 ISZERO PUSH2 0x3681 JUMPI POP PUSH1 0x1 PUSH1 0x8 PUSH1 0x0 DUP9 PUSH20 0xFFFFFFFFFFFFFFFFFFFFFFFFFFFFFFFFFFFFFFFF AND PUSH20 0xFFFFFFFFFFFFFFFFFFFFFFFFFFFFFFFFFFFFFFFF AND DUP2 MSTORE PUSH1 0x20 ADD SWAP1 DUP2 MSTORE PUSH1 0x20 ADD PUSH1 0x0 KECCAK256 DUP7 DUP2 SLOAD DUP2 LT PUSH2 0x366D JUMPI INVALID JUMPDEST SWAP1 PUSH1 0x0 MSTORE PUSH1 0x20 PUSH1 0x0 KECCAK256 SWAP1 PUSH1 0xB MUL ADD PUSH1 0x3 ADD SLOAD EQ JUMPDEST DUP1 ISZERO PUSH2 0x37BD JUMPI POP DUP3 DUP5 EQ ISZERO DUP1 PUSH2 0x37BC JUMPI POP PUSH2 0x3716 PUSH2 0x36AC PUSH1 0x4 SLOAD DUP4 DUP8 SUB PUSH2 0x5D6F SWAP1 SWAP2 SWAP1 PUSH4 0xFFFFFFFF AND JUMP JUMPDEST PUSH1 0x8 PUSH1 0x0 DUP10 PUSH20 0xFFFFFFFFFFFFFFFFFFFFFFFFFFFFFFFFFFFFFFFF AND PUSH20 0xFFFFFFFFFFFFFFFFFFFFFFFFFFFFFFFFFFFFFFFF AND DUP2 MSTORE PUSH1 0x20 ADD SWAP1 DUP2 MSTORE PUSH1 0x20 ADD PUSH1 0x0 KECCAK256 DUP8 DUP2 SLOAD DUP2 LT PUSH2 0x36F6 JUMPI INVALID JUMPDEST SWAP1 PUSH1 0x0 MSTORE PUSH1 0x20 PUSH1 0x0 KECCAK256 SWAP1 PUSH1 0xB MUL ADD PUSH1 0x1 ADD SLOAD PUSH2 0x5D50 SWAP1 SWAP2 SWAP1 PUSH4 0xFFFFFFFF AND JUMP JUMPDEST PUSH1 0x1 PUSH1 0x0 SWAP1 SLOAD SWAP1 PUSH2 0x100 EXP SWAP1 DIV PUSH20 0xFFFFFFFFFFFFFFFFFFFFFFFFFFFFFFFFFFFFFFFF AND PUSH20 0xFFFFFFFFFFFFFFFFFFFFFFFFFFFFFFFFFFFFFFFF AND PUSH4 0xB81F90F3 PUSH1 0x40 MLOAD DUP2 PUSH4 0xFFFFFFFF AND PUSH1 0xE0 SHL DUP2 MSTORE PUSH1 0x4 ADD PUSH1 0x20 PUSH1 0x40 MLOAD DUP1 DUP4 SUB DUP2 DUP7 DUP1 EXTCODESIZE ISZERO DUP1 ISZERO PUSH2 0x377E JUMPI PUSH1 0x0 DUP1 REVERT JUMPDEST POP GAS STATICCALL ISZERO DUP1 ISZERO PUSH2 0x3792 JUMPI RETURNDATASIZE PUSH1 0x0 DUP1 RETURNDATACOPY RETURNDATASIZE PUSH1 0x0 REVERT JUMPDEST POP POP POP POP PUSH1 0x40 MLOAD RETURNDATASIZE PUSH1 0x20 DUP2 LT ISZERO PUSH2 0x37A8 JUMPI PUSH1 0x0 DUP1 REVERT JUMPDEST DUP2 ADD SWAP1 DUP1 DUP1 MLOAD SWAP1 PUSH1 0x20 ADD SWAP1 SWAP3 SWAP2 SWAP1 POP POP POP LT ISZERO JUMPDEST JUMPDEST SWAP2 POP POP SWAP5 SWAP4 POP POP POP POP JUMP JUMPDEST PUSH1 0x1 PUSH1 0x8 PUSH1 0x0 CALLER PUSH20 0xFFFFFFFFFFFFFFFFFFFFFFFFFFFFFFFFFFFFFFFF AND PUSH20 0xFFFFFFFFFFFFFFFFFFFFFFFFFFFFFFFFFFFFFFFF AND DUP2 MSTORE PUSH1 0x20 ADD SWAP1 DUP2 MSTORE PUSH1 0x20 ADD PUSH1 0x0 KECCAK256 DUP5 DUP2 SLOAD DUP2 LT PUSH2 0x3814 JUMPI INVALID JUMPDEST SWAP1 PUSH1 0x0 MSTORE PUSH1 0x20 PUSH1 0x0 KECCAK256 SWAP1 PUSH1 0xB MUL ADD PUSH1 0x3 ADD SLOAD EQ PUSH2 0x3899 JUMPI PUSH1 0x40 MLOAD PUSH32 0x8C379A000000000000000000000000000000000000000000000000000000000 DUP2 MSTORE PUSH1 0x4 ADD DUP1 DUP1 PUSH1 0x20 ADD DUP3 DUP2 SUB DUP3 MSTORE PUSH1 0x15 DUP2 MSTORE PUSH1 0x20 ADD DUP1 PUSH32 0x7374616B696E672073686F756C64206163746976650000000000000000000000 DUP2 MSTORE POP PUSH1 0x20 ADD SWAP2 POP POP PUSH1 0x40 MLOAD DUP1 SWAP2 SUB SWAP1 REVERT JUMPDEST PUSH1 0x0 PUSH1 0x8 PUSH1 0x0 CALLER PUSH20 0xFFFFFFFFFFFFFFFFFFFFFFFFFFFFFFFFFFFFFFFF AND PUSH20 0xFFFFFFFFFFFFFFFFFFFFFFFFFFFFFFFFFFFFFFFF AND DUP2 MSTORE PUSH1 0x20 ADD SWAP1 DUP2 MSTORE PUSH1 0x20 ADD PUSH1 0x0 KECCAK256 DUP5 DUP2 SLOAD DUP2 LT PUSH2 0x38E5 JUMPI INVALID JUMPDEST SWAP1 PUSH1 0x0 MSTORE PUSH1 0x20 PUSH1 0x0 KECCAK256 SWAP1 PUSH1 0xB MUL ADD PUSH1 0xA ADD PUSH1 0x0 DUP5 PUSH20 0xFFFFFFFFFFFFFFFFFFFFFFFFFFFFFFFFFFFFFFFF AND PUSH20 0xFFFFFFFFFFFFFFFFFFFFFFFFFFFFFFFFFFFFFFFF AND DUP2 MSTORE PUSH1 0x20 ADD SWAP1 DUP2 MSTORE PUSH1 0x20 ADD PUSH1 0x0 KECCAK256 SLOAD EQ PUSH2 0x39A7 JUMPI PUSH1 0x40 MLOAD PUSH32 0x8C379A000000000000000000000000000000000000000000000000000000000 DUP2 MSTORE PUSH1 0x4 ADD DUP1 DUP1 PUSH1 0x20 ADD DUP3 DUP2 SUB DUP3 MSTORE PUSH1 0x1D DUP2 MSTORE PUSH1 0x20 ADD DUP1 PUSH32 0x73686F756C64206E6F74206265206E6F6D696E656520616C7265616479000000 DUP2 MSTORE POP PUSH1 0x20 ADD SWAP2 POP POP PUSH1 0x40 MLOAD DUP1 SWAP2 SUB SWAP1 REVERT JUMPDEST PUSH2 0x3A15 DUP2 PUSH1 0x8 PUSH1 0x0 CALLER PUSH20 0xFFFFFFFFFFFFFFFFFFFFFFFFFFFFFFFFFFFFFFFF AND PUSH20 0xFFFFFFFFFFFFFFFFFFFFFFFFFFFFFFFFFFFFFFFF AND DUP2 MSTORE PUSH1 0x20 ADD SWAP1 DUP2 MSTORE PUSH1 0x20 ADD PUSH1 0x0 KECCAK256 DUP6 DUP2 SLOAD DUP2 LT PUSH2 0x39F5 JUMPI INVALID JUMPDEST SWAP1 PUSH1 0x0 MSTORE PUSH1 0x20 PUSH1 0x0 KECCAK256 SWAP1 PUSH1 0xB MUL ADD PUSH1 0x9 ADD SLOAD PUSH2 0x5D50 SWAP1 SWAP2 SWAP1 PUSH4 0xFFFFFFFF AND JUMP JUMPDEST PUSH1 0x8 PUSH1 0x0 CALLER PUSH20 0xFFFFFFFFFFFFFFFFFFFFFFFFFFFFFFFFFFFFFFFF AND PUSH20 0xFFFFFFFFFFFFFFFFFFFFFFFFFFFFFFFFFFFFFFFF AND DUP2 MSTORE PUSH1 0x20 ADD SWAP1 DUP2 MSTORE PUSH1 0x20 ADD PUSH1 0x0 KECCAK256 DUP5 DUP2 SLOAD DUP2 LT PUSH2 0x3A5F JUMPI INVALID JUMPDEST SWAP1 PUSH1 0x0 MSTORE PUSH1 0x20 PUSH1 0x0 KECCAK256 SWAP1 PUSH1 0xB MUL ADD PUSH1 0x9 ADD DUP2 SWAP1 SSTORE POP DUP1 PUSH1 0x8 PUSH1 0x0 CALLER PUSH20 0xFFFFFFFFFFFFFFFFFFFFFFFFFFFFFFFFFFFFFFFF AND PUSH20 0xFFFFFFFFFFFFFFFFFFFFFFFFFFFFFFFFFFFFFFFF AND DUP2 MSTORE PUSH1 0x20 ADD SWAP1 DUP2 MSTORE PUSH1 0x20 ADD PUSH1 0x0 KECCAK256 DUP5 DUP2 SLOAD DUP2 LT PUSH2 0x3ABF JUMPI INVALID JUMPDEST SWAP1 PUSH1 0x0 MSTORE PUSH1 0x20 PUSH1 0x0 KECCAK256 SWAP1 PUSH1 0xB MUL ADD PUSH1 0xA ADD PUSH1 0x0 DUP5 PUSH20 0xFFFFFFFFFFFFFFFFFFFFFFFFFFFFFFFFFFFFFFFF AND PUSH20 0xFFFFFFFFFFFFFFFFFFFFFFFFFFFFFFFFFFFFFFFF AND DUP2 MSTORE PUSH1 0x20 ADD SWAP1 DUP2 MSTORE PUSH1 0x20 ADD PUSH1 0x0 KECCAK256 DUP2 SWAP1 SSTORE POP DUP2 PUSH20 0xFFFFFFFFFFFFFFFFFFFFFFFFFFFFFFFFFFFFFFFF AND DUP4 CALLER PUSH20 0xFFFFFFFFFFFFFFFFFFFFFFFFFFFFFFFFFFFFFFFF AND PUSH32 0xC4E7FB51A42CE926BB404F8024C3C91A40AF0654D9A96ADA67C329B9C9BEE4A2 PUSH1 0x40 MLOAD PUSH1 0x40 MLOAD DUP1 SWAP2 SUB SWAP1 LOG4 POP POP POP JUMP JUMPDEST PUSH1 0x0 PUSH1 0x8 PUSH1 0x0 DUP4 PUSH20 0xFFFFFFFFFFFFFFFFFFFFFFFFFFFFFFFFFFFFFFFF AND PUSH20 0xFFFFFFFFFFFFFFFFFFFFFFFFFFFFFFFFFFFFFFFF AND DUP2 MSTORE PUSH1 0x20 ADD SWAP1 DUP2 MSTORE PUSH1 0x20 ADD PUSH1 0x0 KECCAK256 DUP1 SLOAD SWAP1 POP SWAP1 POP SWAP2 SWAP1 POP JUMP JUMPDEST PUSH1 0x0 DUP1 PUSH2 0x3BC8 PUSH2 0x4B7C JUMP JUMPDEST SWAP1 POP PUSH1 0x0 DUP1 PUSH1 0x0 SWAP1 POP JUMPDEST DUP5 MLOAD DUP2 LT ISZERO PUSH2 0x3C90 JUMPI PUSH2 0x3BFA DUP7 DUP7 DUP4 DUP2 MLOAD DUP2 LT PUSH2 0x3BEB JUMPI INVALID JUMPDEST PUSH1 0x20 MUL PUSH1 0x20 ADD ADD MLOAD DUP6 DUP7 PUSH2 0x3503 JUMP JUMPDEST ISZERO PUSH2 0x3C83 JUMPI PUSH2 0x3C80 PUSH1 0x8 PUSH1 0x0 DUP9 PUSH20 0xFFFFFFFFFFFFFFFFFFFFFFFFFFFFFFFFFFFFFFFF AND PUSH20 0xFFFFFFFFFFFFFFFFFFFFFFFFFFFFFFFFFFFFFFFF AND DUP2 MSTORE PUSH1 0x20 ADD SWAP1 DUP2 MSTORE PUSH1 0x20 ADD PUSH1 0x0 KECCAK256 DUP7 DUP4 DUP2 MLOAD DUP2 LT PUSH2 0x3C4D JUMPI INVALID JUMPDEST PUSH1 0x20 MUL PUSH1 0x20 ADD ADD MLOAD DUP2 SLOAD DUP2 LT PUSH2 0x3C5F JUMPI INVALID JUMPDEST SWAP1 PUSH1 0x0 MSTORE PUSH1 0x20 PUSH1 0x0 KECCAK256 SWAP1 PUSH1 0xB MUL ADD PUSH1 0x0 ADD SLOAD DUP4 PUSH2 0x5D50 SWAP1 SWAP2 SWAP1 PUSH4 0xFFFFFFFF AND JUMP JUMPDEST SWAP2 POP JUMPDEST DUP1 DUP1 PUSH1 0x1 ADD SWAP2 POP POP PUSH2 0x3BD2 JUMP JUMPDEST POP PUSH2 0x3CA5 PUSH1 0x2 DUP3 PUSH2 0x5DA9 SWAP1 SWAP2 SWAP1 PUSH4 0xFFFFFFFF AND JUMP JUMPDEST SWAP3 POP POP POP SWAP3 SWAP2 POP POP JUMP JUMPDEST PUSH1 0x0 DUP1 SWAP1 SLOAD SWAP1 PUSH2 0x100 EXP SWAP1 DIV PUSH20 0xFFFFFFFFFFFFFFFFFFFFFFFFFFFFFFFFFFFFFFFF AND PUSH20 0xFFFFFFFFFFFFFFFFFFFFFFFFFFFFFFFFFFFFFFFF AND CALLER PUSH20 0xFFFFFFFFFFFFFFFFFFFFFFFFFFFFFFFFFFFFFFFF AND EQ PUSH2 0x3D71 JUMPI PUSH1 0x40 MLOAD PUSH32 0x8C379A000000000000000000000000000000000000000000000000000000000 DUP2 MSTORE PUSH1 0x4 ADD DUP1 DUP1 PUSH1 0x20 ADD DUP3 DUP2 SUB DUP3 MSTORE PUSH1 0x16 DUP2 MSTORE PUSH1 0x20 ADD DUP1 PUSH32 0x6F6E6C79206465706C6F7965722063616E2063616C6C00000000000000000000 DUP2 MSTORE POP PUSH1 0x20 ADD SWAP2 POP POP PUSH1 0x40 MLOAD DUP1 SWAP2 SUB SWAP1 REVERT JUMPDEST PUSH1 0x6 PUSH1 0x40 MLOAD DUP1 PUSH1 0x40 ADD PUSH1 0x40 MSTORE DUP1 DUP5 DUP2 MSTORE PUSH1 0x20 ADD DUP4 DUP2 MSTORE POP SWAP1 DUP1 PUSH1 0x1 DUP2 SLOAD ADD DUP1 DUP3 SSTORE DUP1 SWAP2 POP POP SWAP1 PUSH1 0x1 DUP3 SUB SWAP1 PUSH1 0x0 MSTORE PUSH1 0x20 PUSH1 0x0 KECCAK256 SWAP1 PUSH1 0x2 MUL ADD PUSH1 0x0 SWAP1 SWAP2 SWAP3 SWAP1 SWAP2 SWAP1 SWAP2 POP PUSH1 0x0 DUP3 ADD MLOAD DUP2 PUSH1 0x0 ADD SSTORE PUSH1 0x20 DUP3 ADD MLOAD DUP2 PUSH1 0x1 ADD SSTORE POP POP POP POP POP JUMP JUMPDEST PUSH1 0x7 DUP2 DUP2 SLOAD DUP2 LT PUSH2 0x3DDB JUMPI INVALID JUMPDEST SWAP1 PUSH1 0x0 MSTORE PUSH1 0x20 PUSH1 0x0 KECCAK256 SWAP1 PUSH1 0x2 MUL ADD PUSH1 0x0 SWAP2 POP SWAP1 POP DUP1 PUSH1 0x0 ADD SLOAD SWAP1 DUP1 PUSH1 0x1 ADD SLOAD SWAP1 POP DUP3 JUMP JUMPDEST PUSH1 0x0 PUSH2 0x3E09 PUSH2 0x4B7C JUMP JUMPDEST SWAP1 POP PUSH1 0x0 DUP1 PUSH1 0x0 SWAP1 POP JUMPDEST DUP4 MLOAD DUP2 LT ISZERO PUSH2 0x4255 JUMPI PUSH2 0x3E3B CALLER DUP6 DUP4 DUP2 MLOAD DUP2 LT PUSH2 0x3E2C JUMPI INVALID JUMPDEST PUSH1 0x20 MUL PUSH1 0x20 ADD ADD MLOAD DUP6 DUP7 PUSH2 0x3503 JUMP JUMPDEST ISZERO PUSH2 0x4248 JUMPI PUSH2 0x3F72 PUSH2 0x3F63 PUSH1 0xF PUSH2 0x3F55 PUSH1 0x6 PUSH1 0x8 PUSH1 0x0 CALLER PUSH20 0xFFFFFFFFFFFFFFFFFFFFFFFFFFFFFFFFFFFFFFFF AND PUSH20 0xFFFFFFFFFFFFFFFFFFFFFFFFFFFFFFFFFFFFFFFF AND DUP2 MSTORE PUSH1 0x20 ADD SWAP1 DUP2 MSTORE PUSH1 0x20 ADD PUSH1 0x0 KECCAK256 DUP10 DUP8 DUP2 MLOAD DUP2 LT PUSH2 0x3E98 JUMPI INVALID JUMPDEST PUSH1 0x20 MUL PUSH1 0x20 ADD ADD MLOAD DUP2 SLOAD DUP2 LT PUSH2 0x3EAA JUMPI INVALID JUMPDEST SWAP1 PUSH1 0x0 MSTORE PUSH1 0x20 PUSH1 0x0 KECCAK256 SWAP1 PUSH1 0xB MUL ADD PUSH1 0x2 ADD SLOAD DUP2 SLOAD DUP2 LT PUSH2 0x3EC6 JUMPI INVALID JUMPDEST SWAP1 PUSH1 0x0 MSTORE PUSH1 0x20 PUSH1 0x0 KECCAK256 SWAP1 PUSH1 0x2 MUL ADD PUSH1 0x1 ADD SLOAD PUSH1 0x8 PUSH1 0x0 CALLER PUSH20 0xFFFFFFFFFFFFFFFFFFFFFFFFFFFFFFFFFFFFFFFF AND PUSH20 0xFFFFFFFFFFFFFFFFFFFFFFFFFFFFFFFFFFFFFFFF AND DUP2 MSTORE PUSH1 0x20 ADD SWAP1 DUP2 MSTORE PUSH1 0x20 ADD PUSH1 0x0 KECCAK256 DUP10 DUP8 DUP2 MLOAD DUP2 LT PUSH2 0x3F23 JUMPI INVALID JUMPDEST PUSH1 0x20 MUL PUSH1 0x20 ADD ADD MLOAD DUP2 SLOAD DUP2 LT PUSH2 0x3F35 JUMPI INVALID JUMPDEST SWAP1 PUSH1 0x0 MSTORE PUSH1 0x20 PUSH1 0x0 KECCAK256 SWAP1 PUSH1 0xB MUL ADD PUSH1 0x0 ADD SLOAD PUSH2 0x5D6F SWAP1 SWAP2 SWAP1 PUSH4 0xFFFFFFFF AND JUMP JUMPDEST PUSH2 0x5DA9 SWAP1 SWAP2 SWAP1 PUSH4 0xFFFFFFFF AND JUMP JUMPDEST DUP4 PUSH2 0x5D50 SWAP1 SWAP2 SWAP1 PUSH4 0xFFFFFFFF AND JUMP JUMPDEST SWAP2 POP PUSH1 0x0 PUSH2 0x400D PUSH1 0x4 SLOAD PUSH2 0x3FFF PUSH1 0x3 SLOAD PUSH1 0x8 PUSH1 0x0 CALLER PUSH20 0xFFFFFFFFFFFFFFFFFFFFFFFFFFFFFFFFFFFFFFFF AND PUSH20 0xFFFFFFFFFFFFFFFFFFFFFFFFFFFFFFFFFFFFFFFF AND DUP2 MSTORE PUSH1 0x20 ADD SWAP1 DUP2 MSTORE PUSH1 0x20 ADD PUSH1 0x0 KECCAK256 DUP10 DUP8 DUP2 MLOAD DUP2 LT PUSH2 0x3FCD JUMPI INVALID JUMPDEST PUSH1 0x20 MUL PUSH1 0x20 ADD ADD MLOAD DUP2 SLOAD DUP2 LT PUSH2 0x3FDF JUMPI INVALID JUMPDEST SWAP1 PUSH1 0x0 MSTORE PUSH1 0x20 PUSH1 0x0 KECCAK256 SWAP1 PUSH1 0xB MUL ADD PUSH1 0x1 ADD SLOAD PUSH2 0x5D30 SWAP1 SWAP2 SWAP1 PUSH4 0xFFFFFFFF AND JUMP JUMPDEST PUSH2 0x5DA9 SWAP1 SWAP2 SWAP1 PUSH4 0xFFFFFFFF AND JUMP JUMPDEST SWAP1 POP PUSH1 0x0 PUSH1 0x6 PUSH1 0x8 PUSH1 0x0 CALLER PUSH20 0xFFFFFFFFFFFFFFFFFFFFFFFFFFFFFFFFFFFFFFFF AND PUSH20 0xFFFFFFFFFFFFFFFFFFFFFFFFFFFFFFFFFFFFFFFF AND DUP2 MSTORE PUSH1 0x20 ADD SWAP1 DUP2 MSTORE PUSH1 0x20 ADD PUSH1 0x0 KECCAK256 DUP8 DUP6 DUP2 MLOAD DUP2 LT PUSH2 0x405E JUMPI INVALID JUMPDEST PUSH1 0x20 MUL PUSH1 0x20 ADD ADD MLOAD DUP2 SLOAD DUP2 LT PUSH2 0x4070 JUMPI INVALID JUMPDEST SWAP1 PUSH1 0x0 MSTORE PUSH1 0x20 PUSH1 0x0 KECCAK256 SWAP1 PUSH1 0xB MUL ADD PUSH1 0x2 ADD SLOAD DUP2 SLOAD DUP2 LT PUSH2 0x408C JUMPI INVALID JUMPDEST SWAP1 PUSH1 0x0 MSTORE PUSH1 0x20 PUSH1 0x0 KECCAK256 SWAP1 PUSH1 0x2 MUL ADD PUSH1 0x0 ADD SLOAD DUP3 ADD SWAP1 POP PUSH1 0x0 PUSH1 0x1 DUP7 ADD SWAP1 POP JUMPDEST DUP2 DUP2 GT PUSH2 0x40FC JUMPI PUSH2 0x40D8 DUP6 PUSH1 0xA PUSH1 0x0 DUP5 DUP2 MSTORE PUSH1 0x20 ADD SWAP1 DUP2 MSTORE PUSH1 0x20 ADD PUSH1 0x0 KECCAK256 SLOAD PUSH2 0x5D30 SWAP1 SWAP2 SWAP1 PUSH4 0xFFFFFFFF AND JUMP JUMPDEST PUSH1 0xA PUSH1 0x0 DUP4 DUP2 MSTORE PUSH1 0x20 ADD SWAP1 DUP2 MSTORE PUSH1 0x20 ADD PUSH1 0x0 KECCAK256 DUP2 SWAP1 SSTORE POP DUP1 DUP1 PUSH1 0x1 ADD SWAP2 POP POP PUSH2 0x40AB JUMP JUMPDEST POP PUSH1 0x0 PUSH1 0x1 SWAP1 POP JUMPDEST PUSH1 0x7 DUP10 DUP2 SLOAD DUP2 LT PUSH2 0x4111 JUMPI INVALID JUMPDEST SWAP1 PUSH1 0x0 MSTORE PUSH1 0x20 PUSH1 0x0 KECCAK256 SWAP1 PUSH1 0x2 MUL ADD PUSH1 0x0 ADD SLOAD DUP2 GT PUSH2 0x4244 JUMPI PUSH1 0x1 PUSH1 0x8 PUSH1 0x0 CALLER PUSH20 0xFFFFFFFFFFFFFFFFFFFFFFFFFFFFFFFFFFFFFFFF AND PUSH20 0xFFFFFFFFFFFFFFFFFFFFFFFFFFFFFFFFFFFFFFFF AND DUP2 MSTORE PUSH1 0x20 ADD SWAP1 DUP2 MSTORE PUSH1 0x20 ADD PUSH1 0x0 KECCAK256 DUP9 DUP7 DUP2 MLOAD DUP2 LT PUSH2 0x4176 JUMPI INVALID JUMPDEST PUSH1 0x20 MUL PUSH1 0x20 ADD ADD MLOAD DUP2 SLOAD DUP2 LT PUSH2 0x4188 JUMPI INVALID JUMPDEST SWAP1 PUSH1 0x0 MSTORE PUSH1 0x20 PUSH1 0x0 KECCAK256 SWAP1 PUSH1 0xB MUL ADD PUSH1 0x6 ADD PUSH1 0x0 DUP4 DUP10 ADD DUP2 MSTORE PUSH1 0x20 ADD SWAP1 DUP2 MSTORE PUSH1 0x20 ADD PUSH1 0x0 KECCAK256 PUSH1 0x0 PUSH2 0x100 EXP DUP2 SLOAD DUP2 PUSH1 0xFF MUL NOT AND SWAP1 DUP4 ISZERO ISZERO MUL OR SWAP1 SSTORE POP PUSH1 0x2 PUSH1 0x8 PUSH1 0x0 CALLER PUSH20 0xFFFFFFFFFFFFFFFFFFFFFFFFFFFFFFFFFFFFFFFF AND PUSH20 0xFFFFFFFFFFFFFFFFFFFFFFFFFFFFFFFFFFFFFFFF AND DUP2 MSTORE PUSH1 0x20 ADD SWAP1 DUP2 MSTORE PUSH1 0x20 ADD PUSH1 0x0 KECCAK256 DUP9 DUP7 DUP2 MLOAD DUP2 LT PUSH2 0x4210 JUMPI INVALID JUMPDEST PUSH1 0x20 MUL PUSH1 0x20 ADD ADD MLOAD DUP2 SLOAD DUP2 LT PUSH2 0x4222 JUMPI INVALID JUMPDEST SWAP1 PUSH1 0x0 MSTORE PUSH1 0x20 PUSH1 0x0 KECCAK256 SWAP1 PUSH1 0xB MUL ADD PUSH1 0x3 ADD DUP2 SWAP1 SSTORE POP DUP1 DUP1 PUSH1 0x1 ADD SWAP2 POP POP PUSH2 0x4104 JUMP JUMPDEST POP POP POP JUMPDEST DUP1 DUP1 PUSH1 0x1 ADD SWAP2 POP POP PUSH2 0x3E13 JUMP JUMPDEST POP PUSH1 0x0 PUSH2 0x426C PUSH1 0x2 DUP4 PUSH2 0x5DA9 SWAP1 SWAP2 SWAP1 PUSH4 0xFFFFFFFF AND JUMP JUMPDEST SWAP1 POP DUP1 DUP6 GT ISZERO PUSH2 0x42CE JUMPI PUSH1 0x0 PUSH2 0x42CD JUMPI PUSH1 0x40 MLOAD PUSH32 0x8C379A000000000000000000000000000000000000000000000000000000000 DUP2 MSTORE PUSH1 0x4 ADD DUP1 DUP1 PUSH1 0x20 ADD DUP3 DUP2 SUB DUP3 MSTORE PUSH1 0x26 DUP2 MSTORE PUSH1 0x20 ADD DUP1 PUSH2 0x5E5C PUSH1 0x26 SWAP2 CODECOPY PUSH1 0x40 ADD SWAP2 POP POP PUSH1 0x40 MLOAD DUP1 SWAP2 SUB SWAP1 REVERT JUMPDEST JUMPDEST PUSH1 0x0 PUSH2 0x4314 PUSH1 0x64 PUSH2 0x4306 PUSH1 0x7 DUP11 DUP2 SLOAD DUP2 LT PUSH2 0x42E5 JUMPI INVALID JUMPDEST SWAP1 PUSH1 0x0 MSTORE PUSH1 0x20 PUSH1 0x0 KECCAK256 SWAP1 PUSH1 0x2 MUL ADD PUSH1 0x1 ADD SLOAD DUP10 PUSH2 0x5D6F SWAP1 SWAP2 SWAP1 PUSH4 0xFFFFFFFF AND JUMP JUMPDEST PUSH2 0x5DA9 SWAP1 SWAP2 SWAP1 PUSH4 0xFFFFFFFF AND JUMP JUMPDEST SWAP1 POP PUSH1 0x0 PUSH2 0x432B DUP3 DUP9 PUSH2 0x5D30 SWAP1 SWAP2 SWAP1 PUSH4 0xFFFFFFFF AND JUMP JUMPDEST SWAP1 POP PUSH1 0x1 PUSH1 0x0 SWAP1 SLOAD SWAP1 PUSH2 0x100 EXP SWAP1 DIV PUSH20 0xFFFFFFFFFFFFFFFFFFFFFFFFFFFFFFFFFFFFFFFF AND PUSH20 0xFFFFFFFFFFFFFFFFFFFFFFFFFFFFFFFFFFFFFFFF AND PUSH4 0xA9059CBB PUSH1 0x2 PUSH1 0x0 SWAP1 SLOAD SWAP1 PUSH2 0x100 EXP SWAP1 DIV PUSH20 0xFFFFFFFFFFFFFFFFFFFFFFFFFFFFFFFFFFFFFFFF AND DUP5 PUSH1 0x40 MLOAD DUP4 PUSH4 0xFFFFFFFF AND PUSH1 0xE0 SHL DUP2 MSTORE PUSH1 0x4 ADD DUP1 DUP4 PUSH20 0xFFFFFFFFFFFFFFFFFFFFFFFFFFFFFFFFFFFFFFFF AND PUSH20 0xFFFFFFFFFFFFFFFFFFFFFFFFFFFFFFFFFFFFFFFF AND DUP2 MSTORE PUSH1 0x20 ADD DUP3 DUP2 MSTORE PUSH1 0x20 ADD SWAP3 POP POP POP PUSH1 0x20 PUSH1 0x40 MLOAD DUP1 DUP4 SUB DUP2 PUSH1 0x0 DUP8 DUP1 EXTCODESIZE ISZERO DUP1 ISZERO PUSH2 0x43F8 JUMPI PUSH1 0x0 DUP1 REVERT JUMPDEST POP GAS CALL ISZERO DUP1 ISZERO PUSH2 0x440C JUMPI RETURNDATASIZE PUSH1 0x0 DUP1 RETURNDATACOPY RETURNDATASIZE PUSH1 0x0 REVERT JUMPDEST POP POP POP POP PUSH1 0x40 MLOAD RETURNDATASIZE PUSH1 0x20 DUP2 LT ISZERO PUSH2 0x4422 JUMPI PUSH1 0x0 DUP1 REVERT JUMPDEST DUP2 ADD SWAP1 DUP1 DUP1 MLOAD SWAP1 PUSH1 0x20 ADD SWAP1 SWAP3 SWAP2 SWAP1 POP POP POP PUSH2 0x443C JUMPI PUSH1 0x0 DUP1 REVERT JUMPDEST PUSH1 0x2 PUSH1 0x0 SWAP1 SLOAD SWAP1 PUSH2 0x100 EXP SWAP1 DIV PUSH20 0xFFFFFFFFFFFFFFFFFFFFFFFFFFFFFFFFFFFFFFFF AND PUSH20 0xFFFFFFFFFFFFFFFFFFFFFFFFFFFFFFFFFFFFFFFF AND PUSH4 0x382E2AAB DUP4 PUSH1 0x40 MLOAD DUP3 PUSH4 0xFFFFFFFF AND PUSH1 0xE0 SHL DUP2 MSTORE PUSH1 0x4 ADD DUP1 DUP3 DUP2 MSTORE PUSH1 0x20 ADD SWAP2 POP POP PUSH1 0x20 PUSH1 0x40 MLOAD DUP1 DUP4 SUB DUP2 PUSH1 0x0 DUP8 DUP1 EXTCODESIZE ISZERO DUP1 ISZERO PUSH2 0x44B1 JUMPI PUSH1 0x0 DUP1 REVERT JUMPDEST POP GAS CALL ISZERO DUP1 ISZERO PUSH2 0x44C5 JUMPI RETURNDATASIZE PUSH1 0x0 DUP1 RETURNDATACOPY RETURNDATASIZE PUSH1 0x0 REVERT JUMPDEST POP POP POP POP PUSH1 0x40 MLOAD RETURNDATASIZE PUSH1 0x20 DUP2 LT ISZERO PUSH2 0x44DB JUMPI PUSH1 0x0 DUP1 REVERT JUMPDEST DUP2 ADD SWAP1 DUP1 DUP1 MLOAD SWAP1 PUSH1 0x20 ADD SWAP1 SWAP3 SWAP2 SWAP1 POP POP POP PUSH2 0x44F5 JUMPI PUSH1 0x0 DUP1 REVERT JUMPDEST PUSH1 0x9 PUSH1 0x0 CALLER PUSH20 0xFFFFFFFFFFFFFFFFFFFFFFFFFFFFFFFFFFFFFFFF AND PUSH20 0xFFFFFFFFFFFFFFFFFFFFFFFFFFFFFFFFFFFFFFFF AND DUP2 MSTORE PUSH1 0x20 ADD SWAP1 DUP2 MSTORE PUSH1 0x20 ADD PUSH1 0x0 KECCAK256 PUSH1 0x40 MLOAD DUP1 PUSH1 0xA0 ADD PUSH1 0x40 MSTORE DUP1 DUP10 DUP2 MSTORE PUSH1 0x20 ADD PUSH1 0x1 PUSH1 0x0 SWAP1 SLOAD SWAP1 PUSH2 0x100 EXP SWAP1 DIV PUSH20 0xFFFFFFFFFFFFFFFFFFFFFFFFFFFFFFFFFFFFFFFF AND PUSH20 0xFFFFFFFFFFFFFFFFFFFFFFFFFFFFFFFFFFFFFFFF AND PUSH4 0xB81F90F3 PUSH1 0x40 MLOAD DUP2 PUSH4 0xFFFFFFFF AND PUSH1 0xE0 SHL DUP2 MSTORE PUSH1 0x4 ADD PUSH1 0x20 PUSH1 0x40 MLOAD DUP1 DUP4 SUB DUP2 DUP7 DUP1 EXTCODESIZE ISZERO DUP1 ISZERO PUSH2 0x45AD JUMPI PUSH1 0x0 DUP1 REVERT JUMPDEST POP GAS STATICCALL ISZERO DUP1 ISZERO PUSH2 0x45C1 JUMPI RETURNDATASIZE PUSH1 0x0 DUP1 RETURNDATACOPY RETURNDATASIZE PUSH1 0x0 REVERT JUMPDEST POP POP POP POP PUSH1 0x40 MLOAD RETURNDATASIZE PUSH1 0x20 DUP2 LT ISZERO PUSH2 0x45D7 JUMPI PUSH1 0x0 DUP1 REVERT JUMPDEST DUP2 ADD SWAP1 DUP1 DUP1 MLOAD SWAP1 PUSH1 0x20 ADD SWAP1 SWAP3 SWAP2 SWAP1 POP POP POP DUP2 MSTORE PUSH1 0x20 ADD DUP11 DUP2 MSTORE PUSH1 0x20 ADD PUSH1 0x1 DUP2 MSTORE PUSH1 0x20 ADD DUP9 DUP2 MSTORE POP SWAP1 DUP1 PUSH1 0x1 DUP2 SLOAD ADD DUP1 DUP3 SSTORE DUP1 SWAP2 POP POP SWAP1 PUSH1 0x1 DUP3 SUB SWAP1 PUSH1 0x0 MSTORE PUSH1 0x20 PUSH1 0x0 KECCAK256 SWAP1 PUSH1 0x5 MUL ADD PUSH1 0x0 SWAP1 SWAP2 SWAP3 SWAP1 SWAP2 SWAP1 SWAP2 POP PUSH1 0x0 DUP3 ADD MLOAD DUP2 PUSH1 0x0 ADD SSTORE PUSH1 0x20 DUP3 ADD MLOAD DUP2 PUSH1 0x1 ADD SSTORE PUSH1 0x40 DUP3 ADD MLOAD DUP2 PUSH1 0x2 ADD SSTORE PUSH1 0x60 DUP3 ADD MLOAD DUP2 PUSH1 0x3 ADD SSTORE PUSH1 0x80 DUP3 ADD MLOAD DUP2 PUSH1 0x4 ADD SWAP1 DUP1 MLOAD SWAP1 PUSH1 0x20 ADD SWAP1 PUSH2 0x466D SWAP3 SWAP2 SWAP1 PUSH2 0x5DE9 JUMP JUMPDEST POP POP POP POP PUSH1 0x1 PUSH1 0x0 SWAP1 SLOAD SWAP1 PUSH2 0x100 EXP SWAP1 DIV PUSH20 0xFFFFFFFFFFFFFFFFFFFFFFFFFFFFFFFFFFFFFFFF AND PUSH20 0xFFFFFFFFFFFFFFFFFFFFFFFFFFFFFFFFFFFFFFFF AND PUSH4 0xA9059CBB CALLER DUP4 PUSH1 0x40 MLOAD DUP4 PUSH4 0xFFFFFFFF AND PUSH1 0xE0 SHL DUP2 MSTORE PUSH1 0x4 ADD DUP1 DUP4 PUSH20 0xFFFFFFFFFFFFFFFFFFFFFFFFFFFFFFFFFFFFFFFF AND PUSH20 0xFFFFFFFFFFFFFFFFFFFFFFFFFFFFFFFFFFFFFFFF AND DUP2 MSTORE PUSH1 0x20 ADD DUP3 DUP2 MSTORE PUSH1 0x20 ADD SWAP3 POP POP POP PUSH1 0x20 PUSH1 0x40 MLOAD DUP1 DUP4 SUB DUP2 PUSH1 0x0 DUP8 DUP1 EXTCODESIZE ISZERO DUP1 ISZERO PUSH2 0x471A JUMPI PUSH1 0x0 DUP1 REVERT JUMPDEST POP GAS CALL ISZERO DUP1 ISZERO PUSH2 0x472E JUMPI RETURNDATASIZE PUSH1 0x0 DUP1 RETURNDATACOPY RETURNDATASIZE PUSH1 0x0 REVERT JUMPDEST POP POP POP POP PUSH1 0x40 MLOAD RETURNDATASIZE PUSH1 0x20 DUP2 LT ISZERO PUSH2 0x4744 JUMPI PUSH1 0x0 DUP1 REVERT JUMPDEST DUP2 ADD SWAP1 DUP1 DUP1 MLOAD SWAP1 PUSH1 0x20 ADD SWAP1 SWAP3 SWAP2 SWAP1 POP POP POP PUSH2 0x475E JUMPI PUSH1 0x0 DUP1 REVERT JUMPDEST DUP8 CALLER PUSH20 0xFFFFFFFFFFFFFFFFFFFFFFFFFFFFFFFFFFFFFFFF AND PUSH32 0x583F4A449110798C282200EA42774808B8147FA4BCB89A6CA406DD0650E034E7 DUP10 DUP6 PUSH1 0x1 PUSH1 0x9 PUSH1 0x0 CALLER PUSH20 0xFFFFFFFFFFFFFFFFFFFFFFFFFFFFFFFFFFFFFFFF AND PUSH20 0xFFFFFFFFFFFFFFFFFFFFFFFFFFFFFFFFFFFFFFFF AND DUP2 MSTORE PUSH1 0x20 ADD SWAP1 DUP2 MSTORE PUSH1 0x20 ADD PUSH1 0x0 KECCAK256 DUP1 SLOAD SWAP1 POP SUB PUSH1 0x40 MLOAD DUP1 DUP5 DUP2 MSTORE PUSH1 0x20 ADD DUP4 DUP2 MSTORE PUSH1 0x20 ADD DUP3 DUP2 MSTORE PUSH1 0x20 ADD SWAP4 POP POP POP POP PUSH1 0x40 MLOAD DUP1 SWAP2 SUB SWAP1 LOG3 POP POP POP POP POP POP POP POP JUMP JUMPDEST PUSH1 0x0 PUSH1 0xB PUSH1 0x0 CALLER PUSH20 0xFFFFFFFFFFFFFFFFFFFFFFFFFFFFFFFFFFFFFFFF AND PUSH20 0xFFFFFFFFFFFFFFFFFFFFFFFFFFFFFFFFFFFFFFFF AND DUP2 MSTORE PUSH1 0x20 ADD SWAP1 DUP2 MSTORE PUSH1 0x20 ADD PUSH1 0x0 KECCAK256 SLOAD GT PUSH2 0x4858 JUMPI PUSH1 0x0 DUP1 REVERT JUMPDEST PUSH1 0x0 PUSH1 0xB PUSH1 0x0 CALLER PUSH20 0xFFFFFFFFFFFFFFFFFFFFFFFFFFFFFFFFFFFFFFFF AND PUSH20 0xFFFFFFFFFFFFFFFFFFFFFFFFFFFFFFFFFFFFFFFF AND DUP2 MSTORE PUSH1 0x20 ADD SWAP1 DUP2 MSTORE PUSH1 0x20 ADD PUSH1 0x0 KECCAK256 SLOAD SWAP1 POP PUSH1 0x0 PUSH1 0xB PUSH1 0x0 CALLER PUSH20 0xFFFFFFFFFFFFFFFFFFFFFFFFFFFFFFFFFFFFFFFF AND PUSH20 0xFFFFFFFFFFFFFFFFFFFFFFFFFFFFFFFFFFFFFFFF AND DUP2 MSTORE PUSH1 0x20 ADD SWAP1 DUP2 MSTORE PUSH1 0x20 ADD PUSH1 0x0 KECCAK256 DUP2 SWAP1 SSTORE POP PUSH1 0x0 PUSH1 0x6 DUP4 DUP2 SLOAD DUP2 LT PUSH2 0x48F0 JUMPI INVALID JUMPDEST SWAP1 PUSH1 0x0 MSTORE PUSH1 0x20 PUSH1 0x0 KECCAK256 SWAP1 PUSH1 0x2 MUL ADD PUSH1 0x0 ADD SLOAD PUSH1 0x1 PUSH2 0x490C PUSH2 0x4B7C JUMP JUMPDEST ADD ADD SWAP1 POP PUSH1 0x0 PUSH1 0x1 PUSH2 0x491C PUSH2 0x4B7C JUMP JUMPDEST ADD SWAP1 POP JUMPDEST DUP2 DUP2 LT ISZERO PUSH2 0x4962 JUMPI DUP3 PUSH1 0xA PUSH1 0x0 DUP4 DUP2 MSTORE PUSH1 0x20 ADD SWAP1 DUP2 MSTORE PUSH1 0x20 ADD PUSH1 0x0 KECCAK256 SLOAD ADD PUSH1 0xA PUSH1 0x0 DUP4 DUP2 MSTORE PUSH1 0x20 ADD SWAP1 DUP2 MSTORE PUSH1 0x20 ADD PUSH1 0x0 KECCAK256 DUP2 SWAP1 SSTORE POP DUP1 DUP1 PUSH1 0x1 ADD SWAP2 POP POP PUSH2 0x4920 JUMP JUMPDEST POP PUSH1 0x0 PUSH1 0x8 PUSH1 0x0 CALLER PUSH20 0xFFFFFFFFFFFFFFFFFFFFFFFFFFFFFFFFFFFFFFFF AND PUSH20 0xFFFFFFFFFFFFFFFFFFFFFFFFFFFFFFFFFFFFFFFF AND DUP2 MSTORE PUSH1 0x20 ADD SWAP1 DUP2 MSTORE PUSH1 0x20 ADD PUSH1 0x0 KECCAK256 SWAP1 POP DUP1 PUSH1 0x40 MLOAD DUP1 PUSH2 0x120 ADD PUSH1 0x40 MSTORE DUP1 DUP6 DUP2 MSTORE PUSH1 0x20 ADD PUSH1 0x1 PUSH1 0x0 SWAP1 SLOAD SWAP1 PUSH2 0x100 EXP SWAP1 DIV PUSH20 0xFFFFFFFFFFFFFFFFFFFFFFFFFFFFFFFFFFFFFFFF AND PUSH20 0xFFFFFFFFFFFFFFFFFFFFFFFFFFFFFFFFFFFFFFFF AND PUSH4 0xB81F90F3 PUSH1 0x40 MLOAD DUP2 PUSH4 0xFFFFFFFF AND PUSH1 0xE0 SHL DUP2 MSTORE PUSH1 0x4 ADD PUSH1 0x20 PUSH1 0x40 MLOAD DUP1 DUP4 SUB DUP2 DUP7 DUP1 EXTCODESIZE ISZERO DUP1 ISZERO PUSH2 0x4A21 JUMPI PUSH1 0x0 DUP1 REVERT JUMPDEST POP GAS STATICCALL ISZERO DUP1 ISZERO PUSH2 0x4A35 JUMPI RETURNDATASIZE PUSH1 0x0 DUP1 RETURNDATACOPY RETURNDATASIZE PUSH1 0x0 REVERT JUMPDEST POP POP POP POP PUSH1 0x40 MLOAD RETURNDATASIZE PUSH1 0x20 DUP2 LT ISZERO PUSH2 0x4A4B JUMPI PUSH1 0x0 DUP1 REVERT JUMPDEST DUP2 ADD SWAP1 DUP1 DUP1 MLOAD SWAP1 PUSH1 0x20 ADD SWAP1 SWAP3 SWAP2 SWAP1 POP POP POP DUP2 MSTORE PUSH1 0x20 ADD DUP7 DUP2 MSTORE PUSH1 0x20 ADD PUSH1 0x1 DUP2 MSTORE PUSH1 0x20 ADD PUSH1 0x0 DUP2 MSTORE PUSH1 0x20 ADD PUSH1 0x0 DUP2 MSTORE PUSH1 0x20 ADD PUSH1 0x0 DUP2 MSTORE PUSH1 0x20 ADD PUSH1 0x0 DUP2 MSTORE PUSH1 0x20 ADD PUSH1 0x0 DUP2 MSTORE POP SWAP1 DUP1 PUSH1 0x1 DUP2 SLOAD ADD DUP1 DUP3 SSTORE DUP1 SWAP2 POP POP SWAP1 PUSH1 0x1 DUP3 SUB SWAP1 PUSH1 0x0 MSTORE PUSH1 0x20 PUSH1 0x0 KECCAK256 SWAP1 PUSH1 0xB MUL ADD PUSH1 0x0 SWAP1 SWAP2 SWAP3 SWAP1 SWAP2 SWAP1 SWAP2 POP PUSH1 0x0 DUP3 ADD MLOAD DUP2 PUSH1 0x0 ADD SSTORE PUSH1 0x20 DUP3 ADD MLOAD DUP2 PUSH1 0x1 ADD SSTORE PUSH1 0x40 DUP3 ADD MLOAD DUP2 PUSH1 0x2 ADD SSTORE PUSH1 0x60 DUP3 ADD MLOAD DUP2 PUSH1 0x3 ADD SSTORE PUSH1 0x80 DUP3 ADD MLOAD DUP2 PUSH1 0x4 ADD SSTORE PUSH1 0xA0 DUP3 ADD MLOAD DUP2 PUSH1 0x5 ADD SSTORE PUSH1 0xC0 DUP3 ADD MLOAD DUP2 PUSH1 0x7 ADD SSTORE PUSH1 0xE0 DUP3 ADD MLOAD DUP2 PUSH1 0x8 ADD SSTORE PUSH2 0x100 DUP3 ADD MLOAD DUP2 PUSH1 0x9 ADD SSTORE POP POP POP DUP4 CALLER PUSH20 0xFFFFFFFFFFFFFFFFFFFFFFFFFFFFFFFFFFFFFFFF AND PUSH32 0x680A0E2E97AD7C29DA7985E37B699F19857C055166F801E50D90661EAE30FCC3 DUP6 PUSH1 0x1 DUP6 DUP1 SLOAD SWAP1 POP SUB PUSH1 0x40 MLOAD DUP1 DUP4 DUP2 MSTORE PUSH1 0x20 ADD DUP3 DUP2 MSTORE PUSH1 0x20 ADD SWAP3 POP POP POP PUSH1 0x40 MLOAD DUP1 SWAP2 SUB SWAP1 LOG3 POP POP POP POP JUMP JUMPDEST PUSH1 0x0 PUSH1 0x1 PUSH1 0x5 DUP1 SLOAD SWAP1 POP SUB SWAP1 POP SWAP1 JUMP JUMPDEST PUSH1 0x1 PUSH1 0x9 PUSH1 0x0 CALLER PUSH20 0xFFFFFFFFFFFFFFFFFFFFFFFFFFFFFFFFFFFFFFFF AND PUSH20 0xFFFFFFFFFFFFFFFFFFFFFFFFFFFFFFFFFFFFFFFF AND DUP2 MSTORE PUSH1 0x20 ADD SWAP1 DUP2 MSTORE PUSH1 0x20 ADD PUSH1 0x0 KECCAK256 DUP3 DUP2 SLOAD DUP2 LT PUSH2 0x4BD8 JUMPI INVALID JUMPDEST SWAP1 PUSH1 0x0 MSTORE PUSH1 0x20 PUSH1 0x0 KECCAK256 SWAP1 PUSH1 0x5 MUL ADD PUSH1 0x3 ADD SLOAD EQ PUSH2 0x4C5D JUMPI PUSH1 0x40 MLOAD PUSH32 0x8C379A000000000000000000000000000000000000000000000000000000000 DUP2 MSTORE PUSH1 0x4 ADD DUP1 DUP1 PUSH1 0x20 ADD DUP3 DUP2 SUB DUP3 MSTORE PUSH1 0x1C DUP2 MSTORE PUSH1 0x20 ADD DUP1 PUSH32 0x63616E206F6E6C792072657061792070656E64696E67206C6F616E7300000000 DUP2 MSTORE POP PUSH1 0x20 ADD SWAP2 POP POP PUSH1 0x40 MLOAD DUP1 SWAP2 SUB SWAP1 REVERT JUMPDEST PUSH1 0x1 PUSH1 0x0 SWAP1 SLOAD SWAP1 PUSH2 0x100 EXP SWAP1 DIV PUSH20 0xFFFFFFFFFFFFFFFFFFFFFFFFFFFFFFFFFFFFFFFF AND PUSH20 0xFFFFFFFFFFFFFFFFFFFFFFFFFFFFFFFFFFFFFFFF AND PUSH4 0x23B872DD CALLER ADDRESS PUSH1 0x9 PUSH1 0x0 CALLER PUSH20 0xFFFFFFFFFFFFFFFFFFFFFFFFFFFFFFFFFFFFFFFF AND PUSH20 0xFFFFFFFFFFFFFFFFFFFFFFFFFFFFFFFFFFFFFFFF AND DUP2 MSTORE PUSH1 0x20 ADD SWAP1 DUP2 MSTORE PUSH1 0x20 ADD PUSH1 0x0 KECCAK256 DUP6 DUP2 SLOAD DUP2 LT PUSH2 0x4CE7 JUMPI INVALID JUMPDEST SWAP1 PUSH1 0x0 MSTORE PUSH1 0x20 PUSH1 0x0 KECCAK256 SWAP1 PUSH1 0x5 MUL ADD PUSH1 0x0 ADD SLOAD PUSH1 0x40 MLOAD DUP5 PUSH4 0xFFFFFFFF AND PUSH1 0xE0 SHL DUP2 MSTORE PUSH1 0x4 ADD DUP1 DUP5 PUSH20 0xFFFFFFFFFFFFFFFFFFFFFFFFFFFFFFFFFFFFFFFF AND PUSH20 0xFFFFFFFFFFFFFFFFFFFFFFFFFFFFFFFFFFFFFFFF AND DUP2 MSTORE PUSH1 0x20 ADD DUP4 PUSH20 0xFFFFFFFFFFFFFFFFFFFFFFFFFFFFFFFFFFFFFFFF AND PUSH20 0xFFFFFFFFFFFFFFFFFFFFFFFFFFFFFFFFFFFFFFFF AND DUP2 MSTORE PUSH1 0x20 ADD DUP3 DUP2 MSTORE PUSH1 0x20 ADD SWAP4 POP POP POP POP PUSH1 0x20 PUSH1 0x40 MLOAD DUP1 DUP4 SUB DUP2 PUSH1 0x0 DUP8 DUP1 EXTCODESIZE ISZERO DUP1 ISZERO PUSH2 0x4D95 JUMPI PUSH1 0x0 DUP1 REVERT JUMPDEST POP GAS CALL ISZERO DUP1 ISZERO PUSH2 0x4DA9 JUMPI RETURNDATASIZE PUSH1 0x0 DUP1 RETURNDATACOPY RETURNDATASIZE PUSH1 0x0 REVERT JUMPDEST POP POP POP POP PUSH1 0x40 MLOAD RETURNDATASIZE PUSH1 0x20 DUP2 LT ISZERO PUSH2 0x4DBF JUMPI PUSH1 0x0 DUP1 REVERT JUMPDEST DUP2 ADD SWAP1 DUP1 DUP1 MLOAD SWAP1 PUSH1 0x20 ADD SWAP1 SWAP3 SWAP2 SWAP1 POP POP POP PUSH2 0x4E25 JUMPI PUSH1 0x40 MLOAD PUSH32 0x8C379A000000000000000000000000000000000000000000000000000000000 DUP2 MSTORE PUSH1 0x4 ADD DUP1 DUP1 PUSH1 0x20 ADD DUP3 DUP2 SUB DUP3 MSTORE PUSH1 0x40 DUP2 MSTORE PUSH1 0x20 ADD DUP1 PUSH2 0x5EA9 PUSH1 0x40 SWAP2 CODECOPY PUSH1 0x40 ADD SWAP2 POP POP PUSH1 0x40 MLOAD DUP1 SWAP2 SUB SWAP1 REVERT JUMPDEST PUSH1 0x2 PUSH1 0x9 PUSH1 0x0 CALLER PUSH20 0xFFFFFFFFFFFFFFFFFFFFFFFFFFFFFFFFFFFFFFFF AND PUSH20 0xFFFFFFFFFFFFFFFFFFFFFFFFFFFFFFFFFFFFFFFF AND DUP2 MSTORE PUSH1 0x20 ADD SWAP1 DUP2 MSTORE PUSH1 0x20 ADD PUSH1 0x0 KECCAK256 DUP3 DUP2 SLOAD DUP2 LT PUSH2 0x4E71 JUMPI INVALID JUMPDEST SWAP1 PUSH1 0x0 MSTORE PUSH1 0x20 PUSH1 0x0 KECCAK256 SWAP1 PUSH1 0x5 MUL ADD PUSH1 0x3 ADD DUP2 SWAP1 SSTORE POP PUSH1 0x0 DUP1 SWAP1 POP JUMPDEST PUSH1 0x9 PUSH1 0x0 CALLER PUSH20 0xFFFFFFFFFFFFFFFFFFFFFFFFFFFFFFFFFFFFFFFF AND PUSH20 0xFFFFFFFFFFFFFFFFFFFFFFFFFFFFFFFFFFFFFFFF AND DUP2 MSTORE PUSH1 0x20 ADD SWAP1 DUP2 MSTORE PUSH1 0x20 ADD PUSH1 0x0 KECCAK256 DUP3 DUP2 SLOAD DUP2 LT PUSH2 0x4ED6 JUMPI INVALID JUMPDEST SWAP1 PUSH1 0x0 MSTORE PUSH1 0x20 PUSH1 0x0 KECCAK256 SWAP1 PUSH1 0x5 MUL ADD PUSH1 0x4 ADD DUP1 SLOAD SWAP1 POP DUP2 LT ISZERO PUSH2 0x5222 JUMPI PUSH1 0x0 PUSH1 0x9 PUSH1 0x0 CALLER PUSH20 0xFFFFFFFFFFFFFFFFFFFFFFFFFFFFFFFFFFFFFFFF AND PUSH20 0xFFFFFFFFFFFFFFFFFFFFFFFFFFFFFFFFFFFFFFFF AND DUP2 MSTORE PUSH1 0x20 ADD SWAP1 DUP2 MSTORE PUSH1 0x20 ADD PUSH1 0x0 KECCAK256 DUP4 DUP2 SLOAD DUP2 LT PUSH2 0x4F3E JUMPI INVALID JUMPDEST SWAP1 PUSH1 0x0 MSTORE PUSH1 0x20 PUSH1 0x0 KECCAK256 SWAP1 PUSH1 0x5 MUL ADD PUSH1 0x4 ADD DUP3 DUP2 SLOAD DUP2 LT PUSH2 0x4F5A JUMPI INVALID JUMPDEST SWAP1 PUSH1 0x0 MSTORE PUSH1 0x20 PUSH1 0x0 KECCAK256 ADD SLOAD SWAP1 POP PUSH1 0x1 PUSH1 0x8 PUSH1 0x0 CALLER PUSH20 0xFFFFFFFFFFFFFFFFFFFFFFFFFFFFFFFFFFFFFFFF AND PUSH20 0xFFFFFFFFFFFFFFFFFFFFFFFFFFFFFFFFFFFFFFFF AND DUP2 MSTORE PUSH1 0x20 ADD SWAP1 DUP2 MSTORE PUSH1 0x20 ADD PUSH1 0x0 KECCAK256 DUP3 DUP2 SLOAD DUP2 LT PUSH2 0x4FB3 JUMPI INVALID JUMPDEST SWAP1 PUSH1 0x0 MSTORE PUSH1 0x20 PUSH1 0x0 KECCAK256 SWAP1 PUSH1 0xB MUL ADD PUSH1 0x3 ADD DUP2 SWAP1 SSTORE POP PUSH1 0x0 PUSH2 0x504E PUSH1 0x4 SLOAD PUSH2 0x5040 PUSH1 0x3 SLOAD PUSH1 0x8 PUSH1 0x0 CALLER PUSH20 0xFFFFFFFFFFFFFFFFFFFFFFFFFFFFFFFFFFFFFFFF AND PUSH20 0xFFFFFFFFFFFFFFFFFFFFFFFFFFFFFFFFFFFFFFFF AND DUP2 MSTORE PUSH1 0x20 ADD SWAP1 DUP2 MSTORE PUSH1 0x20 ADD PUSH1 0x0 KECCAK256 DUP7 DUP2 SLOAD DUP2 LT PUSH2 0x5020 JUMPI INVALID JUMPDEST SWAP1 PUSH1 0x0 MSTORE PUSH1 0x20 PUSH1 0x0 KECCAK256 SWAP1 PUSH1 0xB MUL ADD PUSH1 0x1 ADD SLOAD PUSH2 0x5D30 SWAP1 SWAP2 SWAP1 PUSH4 0xFFFFFFFF AND JUMP JUMPDEST PUSH2 0x5DA9 SWAP1 SWAP2 SWAP1 PUSH4 0xFFFFFFFF AND JUMP JUMPDEST SWAP1 POP PUSH1 0x0 PUSH1 0x6 PUSH1 0x8 PUSH1 0x0 CALLER PUSH20 0xFFFFFFFFFFFFFFFFFFFFFFFFFFFFFFFFFFFFFFFF AND PUSH20 0xFFFFFFFFFFFFFFFFFFFFFFFFFFFFFFFFFFFFFFFF AND DUP2 MSTORE PUSH1 0x20 ADD SWAP1 DUP2 MSTORE PUSH1 0x20 ADD PUSH1 0x0 KECCAK256 DUP5 DUP2 SLOAD DUP2 LT PUSH2 0x509E JUMPI INVALID JUMPDEST SWAP1 PUSH1 0x0 MSTORE PUSH1 0x20 PUSH1 0x0 KECCAK256 SWAP1 PUSH1 0xB MUL ADD PUSH1 0x2 ADD SLOAD DUP2 SLOAD DUP2 LT PUSH2 0x50BA JUMPI INVALID JUMPDEST SWAP1 PUSH1 0x0 MSTORE PUSH1 0x20 PUSH1 0x0 KECCAK256 SWAP1 PUSH1 0x2 MUL ADD PUSH1 0x0 ADD SLOAD DUP3 ADD SWAP1 POP PUSH1 0x0 PUSH1 0x1 PUSH2 0x50DC PUSH2 0x4B7C JUMP JUMPDEST ADD SWAP1 POP JUMPDEST DUP2 DUP2 GT PUSH2 0x5211 JUMPI PUSH1 0x0 PUSH1 0x8 PUSH1 0x0 CALLER PUSH20 0xFFFFFFFFFFFFFFFFFFFFFFFFFFFFFFFFFFFFFFFF AND PUSH20 0xFFFFFFFFFFFFFFFFFFFFFFFFFFFFFFFFFFFFFFFF AND DUP2 MSTORE PUSH1 0x20 ADD SWAP1 DUP2 MSTORE PUSH1 0x20 ADD PUSH1 0x0 KECCAK256 DUP6 DUP2 SLOAD DUP2 LT PUSH2 0x5133 JUMPI INVALID JUMPDEST SWAP1 PUSH1 0x0 MSTORE PUSH1 0x20 PUSH1 0x0 KECCAK256 SWAP1 PUSH1 0xB MUL ADD PUSH1 0x6 ADD PUSH1 0x0 DUP8 DUP2 MSTORE PUSH1 0x20 ADD SWAP1 DUP2 MSTORE PUSH1 0x20 ADD PUSH1 0x0 KECCAK256 PUSH1 0x0 PUSH2 0x100 EXP DUP2 SLOAD DUP2 PUSH1 0xFF MUL NOT AND SWAP1 DUP4 ISZERO ISZERO MUL OR SWAP1 SSTORE POP PUSH2 0x51ED PUSH1 0x8 PUSH1 0x0 CALLER PUSH20 0xFFFFFFFFFFFFFFFFFFFFFFFFFFFFFFFFFFFFFFFF AND PUSH20 0xFFFFFFFFFFFFFFFFFFFFFFFFFFFFFFFFFFFFFFFF AND DUP2 MSTORE PUSH1 0x20 ADD SWAP1 DUP2 MSTORE PUSH1 0x20 ADD PUSH1 0x0 KECCAK256 DUP6 DUP2 SLOAD DUP2 LT PUSH2 0x51B9 JUMPI INVALID JUMPDEST SWAP1 PUSH1 0x0 MSTORE PUSH1 0x20 PUSH1 0x0 KECCAK256 SWAP1 PUSH1 0xB MUL ADD PUSH1 0x0 ADD SLOAD PUSH1 0xA PUSH1 0x0 DUP5 DUP2 MSTORE PUSH1 0x20 ADD SWAP1 DUP2 MSTORE PUSH1 0x20 ADD PUSH1 0x0 KECCAK256 SLOAD PUSH2 0x5D50 SWAP1 SWAP2 SWAP1 PUSH4 0xFFFFFFFF AND JUMP JUMPDEST PUSH1 0xA PUSH1 0x0 DUP4 DUP2 MSTORE PUSH1 0x20 ADD SWAP1 DUP2 MSTORE PUSH1 0x20 ADD PUSH1 0x0 KECCAK256 DUP2 SWAP1 SSTORE POP DUP1 DUP1 PUSH1 0x1 ADD SWAP2 POP POP PUSH2 0x50E0 JUMP JUMPDEST POP POP POP POP DUP1 DUP1 PUSH1 0x1 ADD SWAP2 POP POP PUSH2 0x4E8C JUMP JUMPDEST POP POP JUMP JUMPDEST PUSH1 0x1 PUSH1 0x0 SWAP1 SLOAD SWAP1 PUSH2 0x100 EXP SWAP1 DIV PUSH20 0xFFFFFFFFFFFFFFFFFFFFFFFFFFFFFFFFFFFFFFFF AND PUSH20 0xFFFFFFFFFFFFFFFFFFFFFFFFFFFFFFFFFFFFFFFF AND PUSH4 0x23B872DD CALLER ADDRESS DUP6 PUSH1 0x40 MLOAD DUP5 PUSH4 0xFFFFFFFF AND PUSH1 0xE0 SHL DUP2 MSTORE PUSH1 0x4 ADD DUP1 DUP5 PUSH20 0xFFFFFFFFFFFFFFFFFFFFFFFFFFFFFFFFFFFFFFFF AND PUSH20 0xFFFFFFFFFFFFFFFFFFFFFFFFFFFFFFFFFFFFFFFF AND DUP2 MSTORE PUSH1 0x20 ADD DUP4 PUSH20 0xFFFFFFFFFFFFFFFFFFFFFFFFFFFFFFFFFFFFFFFF AND PUSH20 0xFFFFFFFFFFFFFFFFFFFFFFFFFFFFFFFFFFFFFFFF AND DUP2 MSTORE PUSH1 0x20 ADD DUP3 DUP2 MSTORE PUSH1 0x20 ADD SWAP4 POP POP POP POP PUSH1 0x20 PUSH1 0x40 MLOAD DUP1 DUP4 SUB DUP2 PUSH1 0x0 DUP8 DUP1 EXTCODESIZE ISZERO DUP1 ISZERO PUSH2 0x5303 JUMPI PUSH1 0x0 DUP1 REVERT JUMPDEST POP GAS CALL ISZERO DUP1 ISZERO PUSH2 0x5317 JUMPI RETURNDATASIZE PUSH1 0x0 DUP1 RETURNDATACOPY RETURNDATASIZE PUSH1 0x0 REVERT JUMPDEST POP POP POP POP PUSH1 0x40 MLOAD RETURNDATASIZE PUSH1 0x20 DUP2 LT ISZERO PUSH2 0x532D JUMPI PUSH1 0x0 DUP1 REVERT JUMPDEST DUP2 ADD SWAP1 DUP1 DUP1 MLOAD SWAP1 PUSH1 0x20 ADD SWAP1 SWAP3 SWAP2 SWAP1 POP POP POP PUSH2 0x53B0 JUMPI PUSH1 0x40 MLOAD PUSH32 0x8C379A000000000000000000000000000000000000000000000000000000000 DUP2 MSTORE PUSH1 0x4 ADD DUP1 DUP1 PUSH1 0x20 ADD DUP3 DUP2 SUB DUP3 MSTORE PUSH1 0x19 DUP2 MSTORE PUSH1 0x20 ADD DUP1 PUSH32 0x636F756C64206E6F74207472616E7366657220746F6B656E7300000000000000 DUP2 MSTORE POP PUSH1 0x20 ADD SWAP2 POP POP PUSH1 0x40 MLOAD DUP1 SWAP2 SUB SWAP1 REVERT JUMPDEST PUSH1 0x0 PUSH1 0x6 DUP3 DUP2 SLOAD DUP2 LT PUSH2 0x53BF JUMPI INVALID JUMPDEST SWAP1 PUSH1 0x0 MSTORE PUSH1 0x20 PUSH1 0x0 KECCAK256 SWAP1 PUSH1 0x2 MUL ADD PUSH1 0x0 ADD SLOAD PUSH1 0x1 PUSH2 0x53DB PUSH2 0x4B7C JUMP JUMPDEST ADD ADD SWAP1 POP PUSH1 0x0 PUSH1 0x1 PUSH2 0x53EB PUSH2 0x4B7C JUMP JUMPDEST ADD SWAP1 POP JUMPDEST DUP2 DUP2 LT ISZERO PUSH2 0x5431 JUMPI DUP4 PUSH1 0xA PUSH1 0x0 DUP4 DUP2 MSTORE PUSH1 0x20 ADD SWAP1 DUP2 MSTORE PUSH1 0x20 ADD PUSH1 0x0 KECCAK256 SLOAD ADD PUSH1 0xA PUSH1 0x0 DUP4 DUP2 MSTORE PUSH1 0x20 ADD SWAP1 DUP2 MSTORE PUSH1 0x20 ADD PUSH1 0x0 KECCAK256 DUP2 SWAP1 SSTORE POP DUP1 DUP1 PUSH1 0x1 ADD SWAP2 POP POP PUSH2 0x53EF JUMP JUMPDEST POP PUSH1 0x0 PUSH1 0x8 PUSH1 0x0 CALLER PUSH20 0xFFFFFFFFFFFFFFFFFFFFFFFFFFFFFFFFFFFFFFFF AND PUSH20 0xFFFFFFFFFFFFFFFFFFFFFFFFFFFFFFFFFFFFFFFF AND DUP2 MSTORE PUSH1 0x20 ADD SWAP1 DUP2 MSTORE PUSH1 0x20 ADD PUSH1 0x0 KECCAK256 SWAP1 POP DUP1 PUSH1 0x40 MLOAD DUP1 PUSH2 0x120 ADD PUSH1 0x40 MSTORE DUP1 DUP7 DUP2 MSTORE PUSH1 0x20 ADD PUSH1 0x1 PUSH1 0x0 SWAP1 SLOAD SWAP1 PUSH2 0x100 EXP SWAP1 DIV PUSH20 0xFFFFFFFFFFFFFFFFFFFFFFFFFFFFFFFFFFFFFFFF AND PUSH20 0xFFFFFFFFFFFFFFFFFFFFFFFFFFFFFFFFFFFFFFFF AND PUSH4 0xB81F90F3 PUSH1 0x40 MLOAD DUP2 PUSH4 0xFFFFFFFF AND PUSH1 0xE0 SHL DUP2 MSTORE PUSH1 0x4 ADD PUSH1 0x20 PUSH1 0x40 MLOAD DUP1 DUP4 SUB DUP2 DUP7 DUP1 EXTCODESIZE ISZERO DUP1 ISZERO PUSH2 0x54F0 JUMPI PUSH1 0x0 DUP1 REVERT JUMPDEST POP GAS STATICCALL ISZERO DUP1 ISZERO PUSH2 0x5504 JUMPI RETURNDATASIZE PUSH1 0x0 DUP1 RETURNDATACOPY RETURNDATASIZE PUSH1 0x0 REVERT JUMPDEST POP POP POP POP PUSH1 0x40 MLOAD RETURNDATASIZE PUSH1 0x20 DUP2 LT ISZERO PUSH2 0x551A JUMPI PUSH1 0x0 DUP1 REVERT JUMPDEST DUP2 ADD SWAP1 DUP1 DUP1 MLOAD SWAP1 PUSH1 0x20 ADD SWAP1 SWAP3 SWAP2 SWAP1 POP POP POP DUP2 MSTORE PUSH1 0x20 ADD DUP6 DUP2 MSTORE PUSH1 0x20 ADD PUSH1 0x1 DUP2 MSTORE PUSH1 0x20 ADD PUSH1 0x0 DUP2 MSTORE PUSH1 0x20 ADD PUSH1 0x0 DUP2 MSTORE PUSH1 0x20 ADD PUSH1 0x0 DUP2 MSTORE PUSH1 0x20 ADD PUSH1 0x0 DUP2 MSTORE PUSH1 0x20 ADD PUSH1 0x0 DUP2 MSTORE POP SWAP1 DUP1 PUSH1 0x1 DUP2 SLOAD ADD DUP1 DUP3 SSTORE DUP1 SWAP2 POP POP SWAP1 PUSH1 0x1 DUP3 SUB SWAP1 PUSH1 0x0 MSTORE PUSH1 0x20 PUSH1 0x0 KECCAK256 SWAP1 PUSH1 0xB MUL ADD PUSH1 0x0 SWAP1 SWAP2 SWAP3 SWAP1 SWAP2 SWAP1 SWAP2 POP PUSH1 0x0 DUP3 ADD MLOAD DUP2 PUSH1 0x0 ADD SSTORE PUSH1 0x20 DUP3 ADD MLOAD DUP2 PUSH1 0x1 ADD SSTORE PUSH1 0x40 DUP3 ADD MLOAD DUP2 PUSH1 0x2 ADD SSTORE PUSH1 0x60 DUP3 ADD MLOAD DUP2 PUSH1 0x3 ADD SSTORE PUSH1 0x80 DUP3 ADD MLOAD DUP2 PUSH1 0x4 ADD SSTORE PUSH1 0xA0 DUP3 ADD MLOAD DUP2 PUSH1 0x5 ADD SSTORE PUSH1 0xC0 DUP3 ADD MLOAD DUP2 PUSH1 0x7 ADD SSTORE PUSH1 0xE0 DUP3 ADD MLOAD DUP2 PUSH1 0x8 ADD SSTORE PUSH2 0x100 DUP3 ADD MLOAD DUP2 PUSH1 0x9 ADD SSTORE POP POP POP DUP3 CALLER PUSH20 0xFFFFFFFFFFFFFFFFFFFFFFFFFFFFFFFFFFFFFFFF AND PUSH32 0x680A0E2E97AD7C29DA7985E37B699F19857C055166F801E50D90661EAE30FCC3 DUP7 PUSH1 0x1 DUP6 DUP1 SLOAD SWAP1 POP SUB PUSH1 0x40 MLOAD DUP1 DUP4 DUP2 MSTORE PUSH1 0x20 ADD DUP3 DUP2 MSTORE PUSH1 0x20 ADD SWAP3 POP POP POP PUSH1 0x40 MLOAD DUP1 SWAP2 SUB SWAP1 LOG3 POP POP POP POP JUMP JUMPDEST PUSH1 0x2 PUSH1 0x0 SWAP1 SLOAD SWAP1 PUSH2 0x100 EXP SWAP1 DIV PUSH20 0xFFFFFFFFFFFFFFFFFFFFFFFFFFFFFFFFFFFFFFFF AND PUSH20 0xFFFFFFFFFFFFFFFFFFFFFFFFFFFFFFFFFFFFFFFF AND CALLER PUSH20 0xFFFFFFFFFFFFFFFFFFFFFFFFFFFFFFFFFFFFFFFF AND EQ PUSH2 0x570E JUMPI PUSH1 0x40 MLOAD PUSH32 0x8C379A000000000000000000000000000000000000000000000000000000000 DUP2 MSTORE PUSH1 0x4 ADD DUP1 DUP1 PUSH1 0x20 ADD DUP3 DUP2 SUB DUP3 MSTORE PUSH1 0x19 DUP2 MSTORE PUSH1 0x20 ADD DUP1 PUSH32 0x6F6E6C79204E5254206D616E616765722063616E2063616C6C00000000000000 DUP2 MSTORE POP PUSH1 0x20 ADD SWAP2 POP POP PUSH1 0x40 MLOAD DUP1 SWAP2 SUB SWAP1 REVERT JUMPDEST PUSH1 0x5 DUP2 SWAP1 DUP1 PUSH1 0x1 DUP2 SLOAD ADD DUP1 DUP3 SSTORE DUP1 SWAP2 POP POP SWAP1 PUSH1 0x1 DUP3 SUB SWAP1 PUSH1 0x0 MSTORE PUSH1 0x20 PUSH1 0x0 KECCAK256 ADD PUSH1 0x0 SWAP1 SWAP2 SWAP3 SWAP1 SWAP2 SWAP1 SWAP2 POP SSTORE POP POP JUMP JUMPDEST PUSH1 0x0 DUP1 SWAP1 POP JUMPDEST DUP2 MLOAD DUP2 LT ISZERO PUSH2 0x5AF8 JUMPI PUSH1 0x3 PUSH1 0x8 PUSH1 0x0 CALLER PUSH20 0xFFFFFFFFFFFFFFFFFFFFFFFFFFFFFFFFFFFFFFFF AND PUSH20 0xFFFFFFFFFFFFFFFFFFFFFFFFFFFFFFFFFFFFFFFF AND DUP2 MSTORE PUSH1 0x20 ADD SWAP1 DUP2 MSTORE PUSH1 0x20 ADD PUSH1 0x0 KECCAK256 DUP4 DUP4 DUP2 MLOAD DUP2 LT PUSH2 0x5799 JUMPI INVALID JUMPDEST PUSH1 0x20 MUL PUSH1 0x20 ADD ADD MLOAD DUP2 SLOAD DUP2 LT PUSH2 0x57AB JUMPI INVALID JUMPDEST SWAP1 PUSH1 0x0 MSTORE PUSH1 0x20 PUSH1 0x0 KECCAK256 SWAP1 PUSH1 0xB MUL ADD PUSH1 0x3 ADD DUP2 SWAP1 SSTORE POP PUSH1 0x0 PUSH1 0x8 PUSH1 0x0 CALLER PUSH20 0xFFFFFFFFFFFFFFFFFFFFFFFFFFFFFFFFFFFFFFFF AND PUSH20 0xFFFFFFFFFFFFFFFFFFFFFFFFFFFFFFFFFFFFFFFF AND DUP2 MSTORE PUSH1 0x20 ADD SWAP1 DUP2 MSTORE PUSH1 0x20 ADD PUSH1 0x0 KECCAK256 DUP4 DUP4 DUP2 MLOAD DUP2 LT PUSH2 0x580D JUMPI INVALID JUMPDEST PUSH1 0x20 MUL PUSH1 0x20 ADD ADD MLOAD DUP2 SLOAD DUP2 LT PUSH2 0x581F JUMPI INVALID JUMPDEST SWAP1 PUSH1 0x0 MSTORE PUSH1 0x20 PUSH1 0x0 KECCAK256 SWAP1 PUSH1 0xB MUL ADD PUSH1 0x4 ADD SLOAD GT ISZERO PUSH2 0x5998 JUMPI PUSH1 0x0 PUSH1 0x8 PUSH1 0x0 CALLER PUSH20 0xFFFFFFFFFFFFFFFFFFFFFFFFFFFFFFFFFFFFFFFF AND PUSH20 0xFFFFFFFFFFFFFFFFFFFFFFFFFFFFFFFFFFFFFFFF AND DUP2 MSTORE PUSH1 0x20 ADD SWAP1 DUP2 MSTORE PUSH1 0x20 ADD PUSH1 0x0 KECCAK256 DUP4 DUP4 DUP2 MLOAD DUP2 LT PUSH2 0x5884 JUMPI INVALID JUMPDEST PUSH1 0x20 MUL PUSH1 0x20 ADD ADD MLOAD DUP2 SLOAD DUP2 LT PUSH2 0x5896 JUMPI INVALID JUMPDEST SWAP1 PUSH1 0x0 MSTORE PUSH1 0x20 PUSH1 0x0 KECCAK256 SWAP1 PUSH1 0xB MUL ADD PUSH1 0x4 ADD SLOAD SWAP1 POP PUSH1 0x0 PUSH1 0x8 PUSH1 0x0 CALLER PUSH20 0xFFFFFFFFFFFFFFFFFFFFFFFFFFFFFFFFFFFFFFFF AND PUSH20 0xFFFFFFFFFFFFFFFFFFFFFFFFFFFFFFFFFFFFFFFF AND DUP2 MSTORE PUSH1 0x20 ADD SWAP1 DUP2 MSTORE PUSH1 0x20 ADD PUSH1 0x0 KECCAK256 DUP5 DUP5 DUP2 MLOAD DUP2 LT PUSH2 0x58F7 JUMPI INVALID JUMPDEST PUSH1 0x20 MUL PUSH1 0x20 ADD ADD MLOAD DUP2 SLOAD DUP2 LT PUSH2 0x5909 JUMPI INVALID JUMPDEST SWAP1 PUSH1 0x0 MSTORE PUSH1 0x20 PUSH1 0x0 KECCAK256 SWAP1 PUSH1 0xB MUL ADD PUSH1 0x4 ADD DUP2 SWAP1 SSTORE POP PUSH2 0x5996 DUP2 PUSH1 0x8 PUSH1 0x0 CALLER PUSH20 0xFFFFFFFFFFFFFFFFFFFFFFFFFFFFFFFFFFFFFFFF AND PUSH20 0xFFFFFFFFFFFFFFFFFFFFFFFFFFFFFFFFFFFFFFFF AND DUP2 MSTORE PUSH1 0x20 ADD SWAP1 DUP2 MSTORE PUSH1 0x20 ADD PUSH1 0x0 KECCAK256 DUP6 DUP6 DUP2 MLOAD DUP2 LT PUSH2 0x596D JUMPI INVALID JUMPDEST PUSH1 0x20 MUL PUSH1 0x20 ADD ADD MLOAD DUP2 SLOAD DUP2 LT PUSH2 0x597F JUMPI INVALID JUMPDEST SWAP1 PUSH1 0x0 MSTORE PUSH1 0x20 PUSH1 0x0 KECCAK256 SWAP1 PUSH1 0xB MUL ADD PUSH1 0x2 ADD SLOAD PUSH2 0x5226 JUMP JUMPDEST POP JUMPDEST PUSH1 0x1 PUSH1 0x0 SWAP1 SLOAD SWAP1 PUSH2 0x100 EXP SWAP1 DIV PUSH20 0xFFFFFFFFFFFFFFFFFFFFFFFFFFFFFFFFFFFFFFFF AND PUSH20 0xFFFFFFFFFFFFFFFFFFFFFFFFFFFFFFFFFFFFFFFF AND PUSH4 0xA9059CBB CALLER PUSH1 0x8 PUSH1 0x0 CALLER PUSH20 0xFFFFFFFFFFFFFFFFFFFFFFFFFFFFFFFFFFFFFFFF AND PUSH20 0xFFFFFFFFFFFFFFFFFFFFFFFFFFFFFFFFFFFFFFFF AND DUP2 MSTORE PUSH1 0x20 ADD SWAP1 DUP2 MSTORE PUSH1 0x20 ADD PUSH1 0x0 KECCAK256 DUP6 DUP6 DUP2 MLOAD DUP2 LT PUSH2 0x5A22 JUMPI INVALID JUMPDEST PUSH1 0x20 MUL PUSH1 0x20 ADD ADD MLOAD DUP2 SLOAD DUP2 LT PUSH2 0x5A34 JUMPI INVALID JUMPDEST SWAP1 PUSH1 0x0 MSTORE PUSH1 0x20 PUSH1 0x0 KECCAK256 SWAP1 PUSH1 0xB MUL ADD PUSH1 0x0 ADD SLOAD PUSH1 0x40 MLOAD DUP4 PUSH4 0xFFFFFFFF AND PUSH1 0xE0 SHL DUP2 MSTORE PUSH1 0x4 ADD DUP1 DUP4 PUSH20 0xFFFFFFFFFFFFFFFFFFFFFFFFFFFFFFFFFFFFFFFF AND PUSH20 0xFFFFFFFFFFFFFFFFFFFFFFFFFFFFFFFFFFFFFFFF AND DUP2 MSTORE PUSH1 0x20 ADD DUP3 DUP2 MSTORE PUSH1 0x20 ADD SWAP3 POP POP POP PUSH1 0x20 PUSH1 0x40 MLOAD DUP1 DUP4 SUB DUP2 PUSH1 0x0 DUP8 DUP1 EXTCODESIZE ISZERO DUP1 ISZERO PUSH2 0x5AAF JUMPI PUSH1 0x0 DUP1 REVERT JUMPDEST POP GAS CALL ISZERO DUP1 ISZERO PUSH2 0x5AC3 JUMPI RETURNDATASIZE PUSH1 0x0 DUP1 RETURNDATACOPY RETURNDATASIZE PUSH1 0x0 REVERT JUMPDEST POP POP POP POP PUSH1 0x40 MLOAD RETURNDATASIZE PUSH1 0x20 DUP2 LT ISZERO PUSH2 0x5AD9 JUMPI PUSH1 0x0 DUP1 REVERT JUMPDEST DUP2 ADD SWAP1 DUP1 DUP1 MLOAD SWAP1 PUSH1 0x20 ADD SWAP1 SWAP3 SWAP2 SWAP1 POP POP POP POP DUP1 DUP1 PUSH1 0x1 ADD SWAP2 POP POP PUSH2 0x5743 JUMP JUMPDEST POP POP JUMP JUMPDEST PUSH1 0x0 DUP1 PUSH2 0x5B07 PUSH2 0x4B7C JUMP JUMPDEST SWAP1 POP DUP3 DUP2 LT ISZERO PUSH2 0x5B7F JUMPI PUSH1 0x40 MLOAD PUSH32 0x8C379A000000000000000000000000000000000000000000000000000000000 DUP2 MSTORE PUSH1 0x4 ADD DUP1 DUP1 PUSH1 0x20 ADD DUP3 DUP2 SUB DUP3 MSTORE PUSH1 0x1A DUP2 MSTORE PUSH1 0x20 ADD DUP1 PUSH32 0x63616E6E6F742073656520667574757265207374616B696E6773000000000000 DUP2 MSTORE POP PUSH1 0x20 ADD SWAP2 POP POP PUSH1 0x40 MLOAD DUP1 SWAP2 SUB SWAP1 REVERT JUMPDEST PUSH1 0x0 DUP1 PUSH1 0x0 SWAP1 POP JUMPDEST PUSH1 0x8 PUSH1 0x0 DUP8 PUSH20 0xFFFFFFFFFFFFFFFFFFFFFFFFFFFFFFFFFFFFFFFF AND PUSH20 0xFFFFFFFFFFFFFFFFFFFFFFFFFFFFFFFFFFFFFFFF AND DUP2 MSTORE PUSH1 0x20 ADD SWAP1 DUP2 MSTORE PUSH1 0x20 ADD PUSH1 0x0 KECCAK256 DUP1 SLOAD SWAP1 POP DUP2 LT ISZERO PUSH2 0x5CFE JUMPI PUSH2 0x5BDD DUP7 DUP3 DUP6 DUP9 PUSH2 0x3503 JUMP JUMPDEST ISZERO PUSH2 0x5CF1 JUMPI PUSH2 0x5CEE PUSH2 0x5CDF PUSH1 0xF PUSH2 0x5CD1 PUSH1 0x6 PUSH1 0x8 PUSH1 0x0 DUP13 PUSH20 0xFFFFFFFFFFFFFFFFFFFFFFFFFFFFFFFFFFFFFFFF AND PUSH20 0xFFFFFFFFFFFFFFFFFFFFFFFFFFFFFFFFFFFFFFFF AND DUP2 MSTORE PUSH1 0x20 ADD SWAP1 DUP2 MSTORE PUSH1 0x20 ADD PUSH1 0x0 KECCAK256 DUP7 DUP2 SLOAD DUP2 LT PUSH2 0x5C39 JUMPI INVALID JUMPDEST SWAP1 PUSH1 0x0 MSTORE PUSH1 0x20 PUSH1 0x0 KECCAK256 SWAP1 PUSH1 0xB MUL ADD PUSH1 0x2 ADD SLOAD DUP2 SLOAD DUP2 LT PUSH2 0x5C55 JUMPI INVALID JUMPDEST SWAP1 PUSH1 0x0 MSTORE PUSH1 0x20 PUSH1 0x0 KECCAK256 SWAP1 PUSH1 0x2 MUL ADD PUSH1 0x1 ADD SLOAD PUSH1 0x8 PUSH1 0x0 DUP13 PUSH20 0xFFFFFFFFFFFFFFFFFFFFFFFFFFFFFFFFFFFFFFFF AND PUSH20 0xFFFFFFFFFFFFFFFFFFFFFFFFFFFFFFFFFFFFFFFF AND DUP2 MSTORE PUSH1 0x20 ADD SWAP1 DUP2 MSTORE PUSH1 0x20 ADD PUSH1 0x0 KECCAK256 DUP7 DUP2 SLOAD DUP2 LT PUSH2 0x5CB1 JUMPI INVALID JUMPDEST SWAP1 PUSH1 0x0 MSTORE PUSH1 0x20 PUSH1 0x0 KECCAK256 SWAP1 PUSH1 0xB MUL ADD PUSH1 0x0 ADD SLOAD PUSH2 0x5D6F SWAP1 SWAP2 SWAP1 PUSH4 0xFFFFFFFF AND JUMP JUMPDEST PUSH2 0x5DA9 SWAP1 SWAP2 SWAP1 PUSH4 0xFFFFFFFF AND JUMP JUMPDEST DUP4 PUSH2 0x5D50 SWAP1 SWAP2 SWAP1 PUSH4 0xFFFFFFFF AND JUMP JUMPDEST SWAP2 POP JUMPDEST DUP1 DUP1 PUSH1 0x1 ADD SWAP2 POP POP PUSH2 0x5B87 JUMP JUMPDEST POP DUP1 SWAP3 POP POP POP SWAP3 SWAP2 POP POP JUMP JUMPDEST PUSH1 0x1 PUSH1 0x0 SWAP1 SLOAD SWAP1 PUSH2 0x100 EXP SWAP1 DIV PUSH20 0xFFFFFFFFFFFFFFFFFFFFFFFFFFFFFFFFFFFFFFFF AND DUP2 JUMP JUMPDEST PUSH1 0x0 DUP3 DUP3 GT ISZERO PUSH2 0x5D3F JUMPI PUSH1 0x0 DUP1 REVERT JUMPDEST PUSH1 0x0 DUP3 DUP5 SUB SWAP1 POP DUP1 SWAP2 POP POP SWAP3 SWAP2 POP POP JUMP JUMPDEST PUSH1 0x0 DUP1 DUP3 DUP5 ADD SWAP1 POP DUP4 DUP2 LT ISZERO PUSH2 0x5D65 JUMPI PUSH1 0x0 DUP1 REVERT JUMPDEST DUP1 SWAP2 POP POP SWAP3 SWAP2 POP POP JUMP JUMPDEST PUSH1 0x0 DUP1 DUP4 EQ ISZERO PUSH2 0x5D82 JUMPI PUSH1 0x0 SWAP1 POP PUSH2 0x5DA3 JUMP JUMPDEST PUSH1 0x0 DUP3 DUP5 MUL SWAP1 POP DUP3 DUP5 DUP3 DUP2 PUSH2 0x5D93 JUMPI INVALID JUMPDEST DIV EQ PUSH2 0x5D9E JUMPI PUSH1 0x0 DUP1 REVERT JUMPDEST DUP1 SWAP2 POP POP JUMPDEST SWAP3 SWAP2 POP POP JUMP JUMPDEST PUSH1 0x0 DUP1 DUP3 GT PUSH2 0x5DB7 JUMPI PUSH1 0x0 DUP1 REVERT JUMPDEST PUSH1 0x0 DUP3 DUP5 DUP2 PUSH2 0x5DC2 JUMPI INVALID JUMPDEST DIV SWAP1 POP DUP1 SWAP2 POP POP SWAP3 SWAP2 POP POP JUMP JUMPDEST PUSH1 0x40 MLOAD DUP1 PUSH1 0x40 ADD PUSH1 0x40 MSTORE DUP1 PUSH1 0x0 DUP2 MSTORE PUSH1 0x20 ADD PUSH1 0x0 DUP2 MSTORE POP SWAP1 JUMP JUMPDEST DUP3 DUP1 SLOAD DUP3 DUP3 SSTORE SWAP1 PUSH1 0x0 MSTORE PUSH1 0x20 PUSH1 0x0 KECCAK256 SWAP1 DUP2 ADD SWAP3 DUP3 ISZERO PUSH2 0x5E25 JUMPI SWAP2 PUSH1 0x20 MUL DUP3 ADD JUMPDEST DUP3 DUP2 GT ISZERO PUSH2 0x5E24 JUMPI DUP3 MLOAD DUP3 SSTORE SWAP2 PUSH1 0x20 ADD SWAP2 SWAP1 PUSH1 0x1 ADD SWAP1 PUSH2 0x5E09 JUMP JUMPDEST JUMPDEST POP SWAP1 POP PUSH2 0x5E32 SWAP2 SWAP1 PUSH2 0x5E36 JUMP JUMPDEST POP SWAP1 JUMP JUMPDEST PUSH2 0x5E58 SWAP2 SWAP1 JUMPDEST DUP1 DUP3 GT ISZERO PUSH2 0x5E54 JUMPI PUSH1 0x0 DUP2 PUSH1 0x0 SWAP1 SSTORE POP PUSH1 0x1 ADD PUSH2 0x5E3C JUMP JUMPDEST POP SWAP1 JUMP JUMPDEST SWAP1 JUMP INVALID PUSH4 0x616E6E6F PUSH21 0x206C6F616E206D6F7265207468616E206D61784C6F PUSH2 0x6E69 PUSH15 0x67416D6F756E746163637275656450 PUSH6 0x7263656E7461 PUSH8 0x652073686F756C64 KECCAK256 PUSH3 0x652061 PUSH21 0x206C6561737420353063616E6E6F74207265636569 PUSH23 0x6520656E6F75676820746F6B656E732C20706C65617365 KECCAK256 PUSH4 0x6865636B KECCAK256 PUSH10 0x6620616C6C6F77616E63 PUSH6 0x206973207468 PUSH6 0x7265746F7461 PUSH13 0x20616374697665207374616B69 PUSH15 0x67732073686F756C64206265206E6F PUSH15 0x207A65726FA265627A7A72305820AB PUSH8 0xA18A79C7D1324179 PUSH23 0xF82BC5FE8FAAD20AE0D63788ADBFCF8A78274941DE6473 PUSH16 0x6C634300050A00320000000000000000 "},"gasEstimates":{"creation":{"codeDepositCost":"4877800","executionCost":"infinite","totalCost":"infinite"},"external":{"addNominee(uint256,address,uint256)":"infinite","claimLaunchReward(uint256)":"infinite","createLoanPlan(uint256,uint256)":"61038","createStakingPlan(uint256,uint256)":"61038","getCurrentMonth()":"494","getNumberOfStakingsByUser(address)":"716","giveLaunchReward(address[],uint256[])":"infinite","increaseMonth(uint256)":"40873","isStakingActive(address,uint256,uint256,uint256)":"infinite","launchReward(address)":"614","loanPlans(uint256)":"1126","newStaking(uint256,uint256)":"infinite","nomineeWithdraw(address,uint256)":"infinite","nrtManager()":"500","owner()":"564","removeNominee(uint256,address)":"infinite","repayLoanSelf(uint256)":"infinite","seeMaxLoaningAmountOnUserStakings(address,uint256[])":"infinite","seeShareForUserByMonth(address,uint256)":"infinite","stakingPlans(uint256)":"1149","takeLoanOnSelfStaking(uint256,uint256,uint256[])":"infinite","timeAllyMonthlyNRT(uint256)":"871","timeAllyMonthlyNRTArray()":"infinite","token()":"563","topupRewardBucket(uint256)":"infinite","totalActiveStakings(uint256)":"609","updateNominee(uint256,address,uint256)":"infinite","userActiveStakingByMonth(address,uint256)":"infinite","viewNomination(address,uint256,address)":"1160","viewStaking(address,uint256)":"4114","withdrawExpiredStakings(uint256[])":"infinite","withdrawShareForUserByMonth(uint256,uint256,bool,uint256)":"infinite"}},"methodIdentifiers":{"addNominee(uint256,address,uint256)":"a4c0e90a","claimLaunchReward(uint256)":"da9d8aa0","createLoanPlan(uint256,uint256)":"82f97857","createStakingPlan(uint256,uint256)":"c71d5d58","getCurrentMonth()":"ddd1b67e","getNumberOfStakingsByUser(address)":"ad998fa0","giveLaunchReward(address[],uint256[])":"88c5f296","increaseMonth(uint256)":"e78c81c4","isStakingActive(address,uint256,uint256,uint256)":"97a332d8","launchReward(address)":"7acab857","loanPlans(uint256)":"cc44a2fd","newStaking(uint256,uint256)":"e5fd04e6","nomineeWithdraw(address,uint256)":"911e8bc6","nrtManager()":"0df5202f","owner()":"8da5cb5b","removeNominee(uint256,address)":"4f916fb0","repayLoanSelf(uint256)":"dea6cf43","seeMaxLoaningAmountOnUserStakings(address,uint256[])":"be4ad9c3","seeShareForUserByMonth(address,uint256)":"2f3b59ea","stakingPlans(uint256)":"762e7a34","takeLoanOnSelfStaking(uint256,uint256,uint256[])":"d0e32681","timeAllyMonthlyNRT(uint256)":"23a15e6b","timeAllyMonthlyNRTArray()":"497ec40f","token()":"fc0c546a","topupRewardBucket(uint256)":"53fcb2f3","totalActiveStakings(uint256)":"4ec0692c","updateNominee(uint256,address,uint256)":"218e731f","userActiveStakingByMonth(address,uint256)":"eb12f7f5","viewNomination(address,uint256,address)":"2e9721b6","viewStaking(address,uint256)":"46a4d6e3","withdrawExpiredStakings(uint256[])":"e83f7843","withdrawShareForUserByMonth(uint256,uint256,bool,uint256)":"35f406ab"}},"userdoc":{"methods":{}}}