{"abi":[{"inputs":[{"internalType":"contract ERC20","name":"_token","type":"address"}],"stateMutability":"nonpayable","type":"constructor"},{"anonymous":false,"inputs":[{"indexed":true,"internalType":"address","name":"_staker","type":"address"},{"indexed":true,"internalType":"uint256","name":"_petId","type":"uint256"},{"indexed":false,"internalType":"uint256","name":"_fromMonthId","type":"uint256"},{"indexed":false,"internalType":"uint256","name":"_toMonthId","type":"uint256"},{"indexed":false,"internalType":"uint256","name":"_withdrawlAmount","type":"uint256"},{"indexed":false,"internalType":"address","name":"_withdrawnBy","type":"address"}],"name":"AnnuityWithdrawl","type":"event"},{"anonymous":false,"inputs":[{"indexed":true,"internalType":"address","name":"_staker","type":"address"},{"indexed":true,"internalType":"uint256","name":"_petId","type":"uint256"},{"indexed":true,"internalType":"address","name":"_appointeeAddress","type":"address"},{"indexed":false,"internalType":"bool","name":"_appointeeStatus","type":"bool"}],"name":"AppointeeUpdated","type":"event"},{"anonymous":false,"inputs":[{"indexed":true,"internalType":"address","name":"_staker","type":"address"},{"indexed":true,"internalType":"uint256","name":"_petId","type":"uint256"},{"indexed":true,"internalType":"address","name":"_appointeeAddress","type":"address"}],"name":"AppointeeVoted","type":"event"},{"anonymous":false,"inputs":[{"indexed":false,"internalType":"address","name":"_staker","type":"address"},{"indexed":false,"internalType":"uint256","name":"_petId","type":"uint256"},{"indexed":false,"internalType":"uint256","name":"_burningAmount","type":"uint256"}],"name":"BoosterBurn","type":"event"},{"anonymous":false,"inputs":[{"indexed":true,"internalType":"address","name":"_staker","type":"address"},{"indexed":true,"internalType":"uint256","name":"_petId","type":"uint256"},{"indexed":false,"internalType":"uint256","name":"_monthId","type":"uint256"},{"indexed":false,"internalType":"uint256","name":"_depositAmount","type":"uint256"},{"indexed":false,"internalType":"address","name":"_depositedBy","type":"address"},{"indexed":false,"internalType":"bool","name":"_usingPrepaidES","type":"bool"}],"name":"NewDeposit","type":"event"},{"anonymous":false,"inputs":[{"indexed":true,"internalType":"address","name":"_staker","type":"address"},{"indexed":false,"internalType":"uint256","name":"_petId","type":"uint256"},{"indexed":false,"internalType":"uint256","name":"_monthlyCommitmentAmount","type":"uint256"}],"name":"NewPET","type":"event"},{"anonymous":false,"inputs":[{"indexed":false,"internalType":"uint256","name":"_minimumMonthlyCommitmentAmount","type":"uint256"},{"indexed":false,"internalType":"uint256","name":"_monthlyBenefitFactorPerThousand","type":"uint256"},{"indexed":false,"internalType":"uint256","name":"_petPlanId","type":"uint256"}],"name":"NewPETPlan","type":"event"},{"anonymous":false,"inputs":[{"indexed":true,"internalType":"address","name":"_staker","type":"address"},{"indexed":true,"internalType":"uint256","name":"_petId","type":"uint256"},{"indexed":true,"internalType":"address","name":"_nomineeAddress","type":"address"},{"indexed":false,"internalType":"bool","name":"_nomineeStatus","type":"bool"}],"name":"NomineeUpdated","type":"event"},{"anonymous":false,"inputs":[{"indexed":true,"internalType":"address","name":"_staker","type":"address"},{"indexed":true,"internalType":"uint256","name":"_petId","type":"uint256"},{"indexed":false,"internalType":"uint256","name":"_powerBoosterId","type":"uint256"},{"indexed":false,"internalType":"uint256","name":"_withdrawlAmount","type":"uint256"},{"indexed":false,"internalType":"address","name":"_withdrawnBy","type":"address"}],"name":"PowerBoosterWithdrawl","type":"event"},{"inputs":[{"internalType":"uint256","name":"_amount","type":"uint256"}],"name":"addToPrepaid","outputs":[],"stateMutability":"nonpayable","type":"function"},{"inputs":[{"internalType":"address","name":"_stakerAddress","type":"address"},{"internalType":"uint256","name":"_petId","type":"uint256"}],"name":"appointeeVote","outputs":[],"stateMutability":"nonpayable","type":"function"},{"inputs":[{"internalType":"address","name":"_stakerAddress","type":"address"},{"internalType":"uint256","name":"_petId","type":"uint256"}],"name":"calculatePowerBoosterAmount","outputs":[{"internalType":"uint256","name":"","type":"uint256"}],"stateMutability":"view","type":"function"},{"inputs":[{"internalType":"uint256","name":"_minimumMonthlyCommitmentAmount","type":"uint256"},{"internalType":"uint256","name":"_monthlyBenefitFactorPerThousand","type":"uint256"}],"name":"createPETPlan","outputs":[],"stateMutability":"nonpayable","type":"function"},{"inputs":[],"name":"deployer","outputs":[{"internalType":"address","name":"","type":"address"}],"stateMutability":"view","type":"function"},{"inputs":[],"name":"fundsBucket","outputs":[{"internalType":"address","name":"","type":"address"}],"stateMutability":"view","type":"function"},{"inputs":[{"internalType":"address","name":"_stakerAddress","type":"address"},{"internalType":"uint256","name":"_petId","type":"uint256"}],"name":"getDepositMonth","outputs":[{"internalType":"uint256","name":"","type":"uint256"}],"stateMutability":"view","type":"function"},{"inputs":[{"internalType":"address","name":"_stakerAddress","type":"address"},{"internalType":"uint256","name":"_petId","type":"uint256"},{"internalType":"uint256","name":"_monthId","type":"uint256"}],"name":"getMonthlyDepositedAmount","outputs":[{"internalType":"uint256","name":"","type":"uint256"}],"stateMutability":"view","type":"function"},{"inputs":[{"internalType":"address","name":"_stakerAddress","type":"address"},{"internalType":"uint256","name":"_petId","type":"uint256"},{"internalType":"uint256","name":"_annuityMonthId","type":"uint256"}],"name":"getNomineeAllowedTimestamp","outputs":[{"internalType":"uint256","name":"","type":"uint256"}],"stateMutability":"view","type":"function"},{"inputs":[{"internalType":"address","name":"_stakerAddress","type":"address"},{"internalType":"uint256","name":"_petId","type":"uint256"},{"internalType":"uint256","name":"_startAnnuityMonthId","type":"uint256"},{"internalType":"uint256","name":"_endAnnuityMonthId","type":"uint256"}],"name":"getSumOfMonthlyAnnuity","outputs":[{"internalType":"uint256","name":"","type":"uint256"}],"stateMutability":"view","type":"function"},{"inputs":[{"internalType":"address","name":"_stakerAddress","type":"address"},{"internalType":"uint256","name":"_petId","type":"uint256"},{"internalType":"uint256","name":"_depositAmount","type":"uint256"},{"internalType":"bool","name":"_usePrepaidES","type":"bool"}],"name":"makeDeposit","outputs":[],"stateMutability":"nonpayable","type":"function"},{"inputs":[{"internalType":"address","name":"_stakerAddress","type":"address"},{"internalType":"uint256","name":"_petId","type":"uint256"},{"internalType":"uint256","name":"_totalDepositAmount","type":"uint256"},{"internalType":"uint256","name":"_frequencyMode","type":"uint256"},{"internalType":"bool","name":"_usePrepaidES","type":"bool"}],"name":"makeLumSumDeposit","outputs":[],"stateMutability":"nonpayable","type":"function"},{"inputs":[{"internalType":"uint256","name":"_planId","type":"uint256"},{"internalType":"uint256","name":"_monthlyCommitmentAmount","type":"uint256"}],"name":"newPET","outputs":[],"stateMutability":"nonpayable","type":"function"},{"inputs":[{"internalType":"uint256","name":"","type":"uint256"}],"name":"petPlans","outputs":[{"internalType":"bool","name":"isPlanActive","type":"bool"},{"internalType":"uint256","name":"minimumMonthlyCommitmentAmount","type":"uint256"},{"internalType":"uint256","name":"monthlyBenefitFactorPerThousand","type":"uint256"}],"stateMutability":"view","type":"function"},{"inputs":[{"internalType":"address","name":"","type":"address"},{"internalType":"uint256","name":"","type":"uint256"}],"name":"pets","outputs":[{"internalType":"uint256","name":"planId","type":"uint256"},{"internalType":"uint256","name":"monthlyCommitmentAmount","type":"uint256"},{"internalType":"uint256","name":"initTimestamp","type":"uint256"},{"internalType":"uint256","name":"lastAnnuityWithdrawlMonthId","type":"uint256"},{"internalType":"uint256","name":"appointeeVotes","type":"uint256"},{"internalType":"uint256","name":"numberOfAppointees","type":"uint256"}],"stateMutability":"view","type":"function"},{"inputs":[{"internalType":"address","name":"","type":"address"}],"name":"prepaidES","outputs":[{"internalType":"uint256","name":"","type":"uint256"}],"stateMutability":"view","type":"function"},{"inputs":[{"internalType":"address[]","name":"_addresses","type":"address[]"},{"internalType":"uint256[]","name":"_amounts","type":"uint256[]"}],"name":"sendPrepaidESDifferent","outputs":[],"stateMutability":"nonpayable","type":"function"},{"inputs":[],"name":"token","outputs":[{"internalType":"contract ERC20","name":"","type":"address"}],"stateMutability":"view","type":"function"},{"inputs":[{"internalType":"uint256","name":"_petId","type":"uint256"},{"internalType":"address","name":"_appointeeAddress","type":"address"},{"internalType":"bool","name":"_newAppointeeStatus","type":"bool"}],"name":"toogleAppointee","outputs":[],"stateMutability":"nonpayable","type":"function"},{"inputs":[{"internalType":"uint256","name":"_petId","type":"uint256"},{"internalType":"address","name":"_nomineeAddress","type":"address"},{"internalType":"bool","name":"_newNomineeStatus","type":"bool"}],"name":"toogleNominee","outputs":[],"stateMutability":"nonpayable","type":"function"},{"inputs":[{"internalType":"uint256","name":"_planId","type":"uint256"},{"internalType":"bool","name":"_newStatus","type":"bool"}],"name":"updatePlanStatus","outputs":[],"stateMutability":"nonpayable","type":"function"},{"inputs":[{"internalType":"address","name":"_stakerAddress","type":"address"},{"internalType":"uint256","name":"_petId","type":"uint256"},{"internalType":"address","name":"_appointeeAddress","type":"address"}],"name":"viewAppointation","outputs":[{"internalType":"bool","name":"","type":"bool"}],"stateMutability":"view","type":"function"},{"inputs":[{"internalType":"address","name":"_stakerAddress","type":"address"},{"internalType":"uint256","name":"_petId","type":"uint256"},{"internalType":"address","name":"_nomineeAddress","type":"address"}],"name":"viewNomination","outputs":[{"internalType":"bool","name":"","type":"bool"}],"stateMutability":"view","type":"function"},{"inputs":[{"internalType":"address","name":"_stakerAddress","type":"address"},{"internalType":"uint256","name":"_petId","type":"uint256"},{"internalType":"uint256","name":"_endAnnuityMonthId","type":"uint256"}],"name":"withdrawAnnuity","outputs":[],"stateMutability":"nonpayable","type":"function"},{"inputs":[{"internalType":"address","name":"_stakerAddress","type":"address"},{"internalType":"uint256","name":"_petId","type":"uint256"},{"internalType":"uint256","name":"_powerBoosterId","type":"uint256"}],"name":"withdrawPowerBooster","outputs":[],"stateMutability":"nonpayable","type":"function"}],"devdoc":{"author":"The EraSwap Team","methods":{"addToPrepaid(uint256)":{"details":"ERC20 approve needs to be done","params":{"_amount":": ES to deposit"}},"appointeeVote(address,uint256)":{"details":"need to be appointee, set by staker themselves","params":{"_petId":": id of PET in staker portfolio.","_stakerAddress":": address of initiater of this PET."}},"calculatePowerBoosterAmount(address,uint256)":{"params":{"_petId":": id of PET in staket address portfolio","_stakerAddress":": address of staker who has PET"},"returns":{"_0":"single power booster amount"}},"constructor":{"params":{"_token":": is EraSwap ERC20 Smart Contract Address"}},"createPETPlan(uint256,uint256)":{"params":{"_minimumMonthlyCommitmentAmount":": minimum PET monthly amount in exaES","_monthlyBenefitFactorPerThousand":": this is per 1000; i.e 200 for 20%"}},"getDepositMonth(address,uint256)":{"params":{"_petId":": id of PET in staket address portfolio","_stakerAddress":": address of staker who has PET"},"returns":{"_0":"current month of a particular PET"}},"getMonthlyDepositedAmount(address,uint256,uint256)":{"params":{"_monthId":": specify the month to deposit","_petId":": id of PET in staket address portfolio","_stakerAddress":": address of staker who has PET"},"returns":{"_0":"deposit in a particular month"}},"getNomineeAllowedTimestamp(address,uint256,uint256)":{"params":{"_annuityMonthId":": this is the month for which timestamp to find","_petId":": id of PET in staker address portfolio","_stakerAddress":": address of staker who has a PET"},"returns":{"_0":"nominee allowed timestamp"}},"getSumOfMonthlyAnnuity(address,uint256,uint256,uint256)":{"params":{"_endAnnuityMonthId":": this is the month (inclusive) to stop at","_petId":": id of PET in staker address portfolio","_stakerAddress":": address of staker who has a PET","_startAnnuityMonthId":": this is the month (inclusive) to start from"}},"makeDeposit(address,uint256,uint256,bool)":{"details":"ERC20 approve is required to be done for this contract earlier if prepaidES   is not selected, enough funds must be there in the funds bucket contract   and also deposit can be done by nominee","params":{"_depositAmount":": amount to deposit","_petId":": id of PET in staker address portfolio","_stakerAddress":": address of staker who has a PET","_usePrepaidES":": should prepaidES be used"}},"makeLumSumDeposit(address,uint256,uint256,uint256,bool)":{"details":"lum sum deposit is possible in the first month in a fresh PET","params":{"_frequencyMode":": can be 3, 6 or 12","_petId":": id of PET in staker address portfolio","_stakerAddress":": address of staker who has a PET","_totalDepositAmount":": total amount to deposit for 12 months","_usePrepaidES":": should prepaidES be used"}},"newPET(uint256,uint256)":{"params":{"_monthlyCommitmentAmount":": PET monthly commitment amount in exaES","_planId":": id of PET in staker portfolio"}},"sendPrepaidESDifferent(address[],uint256[])":{"details":"some ES already in prepaid required","params":{"_addresses":": address array to send prepaid ES for PET","_amounts":": prepaid ES for PET amounts to send to corresponding addresses"}},"toogleAppointee(uint256,address,bool)":{"params":{"_appointeeAddress":": eth wallet address of appointee.","_newAppointeeStatus":": true or false, should this have appointee rights or not.","_petId":": id of PET in staker portfolio."}},"toogleNominee(uint256,address,bool)":{"params":{"_newNomineeStatus":": true or false, whether this should be a nominee or not.","_nomineeAddress":": eth wallet address of nominee.","_petId":": id of PET in staker portfolio."}},"updatePlanStatus(uint256,bool)":{"details":"pets already initiated by a plan will continue only new will be restricted","params":{"_newStatus":": true or false.","_planId":": select a plan to make it inactive"}},"viewAppointation(address,uint256,address)":{"params":{"_appointeeAddress":": eth wallet address of apointee.","_petId":": id of PET in staker portfolio.","_stakerAddress":": address of initiater of this PET."},"returns":{"_0":"tells whether this address is a appointee or not"}},"viewNomination(address,uint256,address)":{"params":{"_nomineeAddress":": eth wallet address of nominee.","_petId":": id of PET in staker portfolio.","_stakerAddress":": address of initiater of this PET."},"returns":{"_0":"tells whether this address is a nominee or not"}},"withdrawAnnuity(address,uint256,uint256)":{"params":{"_endAnnuityMonthId":": this is the month upto which benefits to be withdrawn","_petId":": id of PET in staker address portfolio","_stakerAddress":": address of staker who has a PET"}},"withdrawPowerBooster(address,uint256,uint256)":{"params":{"_petId":": id of PET in staker address portfolio","_powerBoosterId":": this is serial of power booster","_stakerAddress":": address of staker who has a PET"}}},"title":"TimeAlly Personal EraSwap Teller Smart Contract"},"evm":{"assembly":"    /* \"TimeAllyPET.sol\":3521:33490  contract TimeAllyPET {... */\n  mstore(0x40, 0x80)\n    /* \"TimeAllyPET.sol\":7674:7826  constructor(ERC20 _token) public {... */\n  callvalue\n    /* \"--CODEGEN--\":8:17   */\n  dup1\n    /* \"--CODEGEN--\":5:7   */\n  iszero\n  tag_1\n  jumpi\n    /* \"--CODEGEN--\":30:31   */\n  0x00\n    /* \"--CODEGEN--\":27:28   */\n  dup1\n    /* \"--CODEGEN--\":20:32   */\n  revert\n    /* \"--CODEGEN--\":5:7   */\ntag_1:\n    /* \"TimeAllyPET.sol\":7674:7826  constructor(ERC20 _token) public {... */\n  pop\n  mload(0x40)\n  sub(codesize, bytecodeSize)\n  dup1\n  bytecodeSize\n  dup4\n  codecopy\n  dup2\n  dup2\n  add\n  0x40\n  mstore\n    /* \"--CODEGEN--\":13:15   */\n  0x20\n    /* \"--CODEGEN--\":8:11   */\n  dup2\n    /* \"--CODEGEN--\":5:16   */\n  lt\n    /* \"--CODEGEN--\":2:4   */\n  iszero\n  tag_2\n  jumpi\n    /* \"--CODEGEN--\":29:30   */\n  0x00\n    /* \"--CODEGEN--\":26:27   */\n  dup1\n    /* \"--CODEGEN--\":19:31   */\n  revert\n    /* \"--CODEGEN--\":2:4   */\ntag_2:\n    /* \"TimeAllyPET.sol\":7674:7826  constructor(ERC20 _token) public {... */\n  dup2\n  add\n  swap1\n  dup1\n  dup1\n  mload\n  swap1\n  0x20\n  add\n  swap1\n  swap3\n  swap2\n  swap1\n  pop\n  pop\n  pop\n    /* \"TimeAllyPET.sol\":7724:7734  msg.sender */\n  caller\n    /* \"TimeAllyPET.sol\":7713:7721  deployer */\n  0x00\n  dup1\n    /* \"TimeAllyPET.sol\":7713:7734  deployer = msg.sender */\n  0x0100\n  exp\n  dup2\n  sload\n  dup2\n  0xffffffffffffffffffffffffffffffffffffffff\n  mul\n  not\n  and\n  swap1\n  dup4\n  0xffffffffffffffffffffffffffffffffffffffff\n  and\n  mul\n  or\n  swap1\n  sstore\n  pop\n    /* \"TimeAllyPET.sol\":7748:7754  _token */\n  dup1\n    /* \"TimeAllyPET.sol\":7740:7745  token */\n  0x02\n  0x00\n    /* \"TimeAllyPET.sol\":7740:7754  token = _token */\n  0x0100\n  exp\n  dup2\n  sload\n  dup2\n  0xffffffffffffffffffffffffffffffffffffffff\n  mul\n  not\n  and\n  swap1\n  dup4\n  0xffffffffffffffffffffffffffffffffffffffff\n  and\n  mul\n  or\n  swap1\n  sstore\n  pop\n    /* \"TimeAllyPET.sol\":7801:7807  _token */\n  dup1\n    /* \"TimeAllyPET.sol\":7809:7819  msg.sender */\n  caller\n    /* \"TimeAllyPET.sol\":7782:7820  new FundsBucketPET(_token, msg.sender) */\n  mload(0x40)\n  tag_5\n  swap1\n  tag_6\n  jump\t// in\ntag_5:\n  dup1\n  dup4\n  0xffffffffffffffffffffffffffffffffffffffff\n  and\n  0xffffffffffffffffffffffffffffffffffffffff\n  and\n  dup2\n  mstore\n  0x20\n  add\n  dup3\n  0xffffffffffffffffffffffffffffffffffffffff\n  and\n  0xffffffffffffffffffffffffffffffffffffffff\n  and\n  dup2\n  mstore\n  0x20\n  add\n  swap3\n  pop\n  pop\n  pop\n  mload(0x40)\n  dup1\n  swap2\n  sub\n  swap1\n  0x00\n  create\n  dup1\n  iszero\n    /* \"--CODEGEN--\":8:17   */\n  dup1\n    /* \"--CODEGEN--\":5:7   */\n  iszero\n  tag_7\n  jumpi\n    /* \"--CODEGEN--\":45:61   */\n  returndatasize\n    /* \"--CODEGEN--\":42:43   */\n  0x00\n    /* \"--CODEGEN--\":39:40   */\n  dup1\n    /* \"--CODEGEN--\":24:62   */\n  returndatacopy\n    /* \"--CODEGEN--\":77:93   */\n  returndatasize\n    /* \"--CODEGEN--\":74:75   */\n  0x00\n    /* \"--CODEGEN--\":67:94   */\n  revert\n    /* \"--CODEGEN--\":5:7   */\ntag_7:\n    /* \"TimeAllyPET.sol\":7782:7820  new FundsBucketPET(_token, msg.sender) */\n  pop\n    /* \"TimeAllyPET.sol\":7760:7771  fundsBucket */\n  0x01\n  0x00\n    /* \"TimeAllyPET.sol\":7760:7821  fundsBucket = address(new FundsBucketPET(_token, msg.sender)) */\n  0x0100\n  exp\n  dup2\n  sload\n  dup2\n  0xffffffffffffffffffffffffffffffffffffffff\n  mul\n  not\n  and\n  swap1\n  dup4\n  0xffffffffffffffffffffffffffffffffffffffff\n  and\n  mul\n  or\n  swap1\n  sstore\n  pop\n    /* \"TimeAllyPET.sol\":7674:7826  constructor(ERC20 _token) public {... */\n  pop\n    /* \"TimeAllyPET.sol\":3521:33490  contract TimeAllyPET {... */\n  jump(tag_8)\ntag_6:\n  dataSize(sub_1)\n  dup1\n  dataOffset(sub_1)\n  dup4\n  codecopy\n  add\n  swap1\n  jump\t// out\ntag_8:\n  dataSize(sub_0)\n  dup1\n  dataOffset(sub_0)\n  0x00\n  codecopy\n  0x00\n  return\nstop\n\nsub_0: assembly {\n        /* \"TimeAllyPET.sol\":3521:33490  contract TimeAllyPET {... */\n      mstore(0x40, 0x80)\n      callvalue\n        /* \"--CODEGEN--\":8:17   */\n      dup1\n        /* \"--CODEGEN--\":5:7   */\n      iszero\n      tag_1\n      jumpi\n        /* \"--CODEGEN--\":30:31   */\n      0x00\n        /* \"--CODEGEN--\":27:28   */\n      dup1\n        /* \"--CODEGEN--\":20:32   */\n      revert\n        /* \"--CODEGEN--\":5:7   */\n    tag_1:\n        /* \"TimeAllyPET.sol\":3521:33490  contract TimeAllyPET {... */\n      pop\n      jumpi(tag_2, lt(calldatasize, 0x04))\n      shr(0xe0, calldataload(0x00))\n      dup1\n      0x47626531\n      gt\n      tag_28\n      jumpi\n      dup1\n      0x9baf14d4\n      gt\n      tag_29\n      jumpi\n      dup1\n      0xd5f39488\n      gt\n      tag_30\n      jumpi\n      dup1\n      0xd5f39488\n      eq\n      tag_24\n      jumpi\n      dup1\n      0xf713c79e\n      eq\n      tag_25\n      jumpi\n      dup1\n      0xfb0685df\n      eq\n      tag_26\n      jumpi\n      dup1\n      0xfc0c546a\n      eq\n      tag_27\n      jumpi\n      jump(tag_2)\n    tag_30:\n      dup1\n      0x9baf14d4\n      eq\n      tag_21\n      jumpi\n      dup1\n      0xa4003ad4\n      eq\n      tag_22\n      jumpi\n      dup1\n      0xba50531a\n      eq\n      tag_23\n      jumpi\n      jump(tag_2)\n    tag_29:\n      dup1\n      0x47626531\n      eq\n      tag_15\n      jumpi\n      dup1\n      0x4cd963cf\n      eq\n      tag_16\n      jumpi\n      dup1\n      0x51a6349d\n      eq\n      tag_17\n      jumpi\n      dup1\n      0x7838e408\n      eq\n      tag_18\n      jumpi\n      dup1\n      0x81423a26\n      eq\n      tag_19\n      jumpi\n      dup1\n      0x95a0373c\n      eq\n      tag_20\n      jumpi\n      jump(tag_2)\n    tag_28:\n      dup1\n      0x37482ef1\n      gt\n      tag_31\n      jumpi\n      dup1\n      0x37482ef1\n      eq\n      tag_9\n      jumpi\n      dup1\n      0x37dc8f06\n      eq\n      tag_10\n      jumpi\n      dup1\n      0x3ee20a89\n      eq\n      tag_11\n      jumpi\n      dup1\n      0x3fd46068\n      eq\n      tag_12\n      jumpi\n      dup1\n      0x452f1423\n      eq\n      tag_13\n      jumpi\n      dup1\n      0x45b37ec4\n      eq\n      tag_14\n      jumpi\n      jump(tag_2)\n    tag_31:\n      dup1\n      0x0c254d63\n      eq\n      tag_3\n      jumpi\n      dup1\n      0x0ce57b46\n      eq\n      tag_4\n      jumpi\n      dup1\n      0x1fdae4b8\n      eq\n      tag_5\n      jumpi\n      dup1\n      0x26f8bea7\n      eq\n      tag_6\n      jumpi\n      dup1\n      0x29929713\n      eq\n      tag_7\n      jumpi\n      dup1\n      0x2e9721b6\n      eq\n      tag_8\n      jumpi\n    tag_2:\n      0x00\n      dup1\n      revert\n        /* \"TimeAllyPET.sol\":14521:16979  function makeDeposit(... */\n    tag_3:\n      tag_32\n      0x04\n      dup1\n      calldatasize\n      sub\n        /* \"--CODEGEN--\":13:16   */\n      0x80\n        /* \"--CODEGEN--\":8:11   */\n      dup2\n        /* \"--CODEGEN--\":5:17   */\n      lt\n        /* \"--CODEGEN--\":2:4   */\n      iszero\n      tag_33\n      jumpi\n        /* \"--CODEGEN--\":30:31   */\n      0x00\n        /* \"--CODEGEN--\":27:28   */\n      dup1\n        /* \"--CODEGEN--\":20:32   */\n      revert\n        /* \"--CODEGEN--\":2:4   */\n    tag_33:\n        /* \"TimeAllyPET.sol\":14521:16979  function makeDeposit(... */\n      dup2\n      add\n      swap1\n      dup1\n      dup1\n      calldataload\n      0xffffffffffffffffffffffffffffffffffffffff\n      and\n      swap1\n      0x20\n      add\n      swap1\n      swap3\n      swap2\n      swap1\n      dup1\n      calldataload\n      swap1\n      0x20\n      add\n      swap1\n      swap3\n      swap2\n      swap1\n      dup1\n      calldataload\n      swap1\n      0x20\n      add\n      swap1\n      swap3\n      swap2\n      swap1\n      dup1\n      calldataload\n      iszero\n      iszero\n      swap1\n      0x20\n      add\n      swap1\n      swap3\n      swap2\n      swap1\n      pop\n      pop\n      pop\n      tag_34\n      jump\t// in\n    tag_32:\n      stop\n        /* \"TimeAllyPET.sol\":11635:12009  function toogleNominee(... */\n    tag_4:\n      tag_35\n      0x04\n      dup1\n      calldatasize\n      sub\n        /* \"--CODEGEN--\":13:15   */\n      0x60\n        /* \"--CODEGEN--\":8:11   */\n      dup2\n        /* \"--CODEGEN--\":5:16   */\n      lt\n        /* \"--CODEGEN--\":2:4   */\n      iszero\n      tag_36\n      jumpi\n        /* \"--CODEGEN--\":29:30   */\n      0x00\n        /* \"--CODEGEN--\":26:27   */\n      dup1\n        /* \"--CODEGEN--\":19:31   */\n      revert\n        /* \"--CODEGEN--\":2:4   */\n    tag_36:\n        /* \"TimeAllyPET.sol\":11635:12009  function toogleNominee(... */\n      dup2\n      add\n      swap1\n      dup1\n      dup1\n      calldataload\n      swap1\n      0x20\n      add\n      swap1\n      swap3\n      swap2\n      swap1\n      dup1\n      calldataload\n      0xffffffffffffffffffffffffffffffffffffffff\n      and\n      swap1\n      0x20\n      add\n      swap1\n      swap3\n      swap2\n      swap1\n      dup1\n      calldataload\n      iszero\n      iszero\n      swap1\n      0x20\n      add\n      swap1\n      swap3\n      swap2\n      swap1\n      pop\n      pop\n      pop\n      tag_37\n      jump\t// in\n    tag_35:\n      stop\n        /* \"TimeAllyPET.sol\":26946:27156  function getDepositMonth(... */\n    tag_5:\n      tag_38\n      0x04\n      dup1\n      calldatasize\n      sub\n        /* \"--CODEGEN--\":13:15   */\n      0x40\n        /* \"--CODEGEN--\":8:11   */\n      dup2\n        /* \"--CODEGEN--\":5:16   */\n      lt\n        /* \"--CODEGEN--\":2:4   */\n      iszero\n      tag_39\n      jumpi\n        /* \"--CODEGEN--\":29:30   */\n      0x00\n        /* \"--CODEGEN--\":26:27   */\n      dup1\n        /* \"--CODEGEN--\":19:31   */\n      revert\n        /* \"--CODEGEN--\":2:4   */\n    tag_39:\n        /* \"TimeAllyPET.sol\":26946:27156  function getDepositMonth(... */\n      dup2\n      add\n      swap1\n      dup1\n      dup1\n      calldataload\n      0xffffffffffffffffffffffffffffffffffffffff\n      and\n      swap1\n      0x20\n      add\n      swap1\n      swap3\n      swap2\n      swap1\n      dup1\n      calldataload\n      swap1\n      0x20\n      add\n      swap1\n      swap3\n      swap2\n      swap1\n      pop\n      pop\n      pop\n      tag_40\n      jump\t// in\n    tag_38:\n      mload(0x40)\n      dup1\n      dup3\n      dup2\n      mstore\n      0x20\n      add\n      swap2\n      pop\n      pop\n      mload(0x40)\n      dup1\n      swap2\n      sub\n      swap1\n      return\n        /* \"TimeAllyPET.sol\":7973:8246  function addToPrepaid(uint256 _amount) public {... */\n    tag_6:\n      tag_41\n      0x04\n      dup1\n      calldatasize\n      sub\n        /* \"--CODEGEN--\":13:15   */\n      0x20\n        /* \"--CODEGEN--\":8:11   */\n      dup2\n        /* \"--CODEGEN--\":5:16   */\n      lt\n        /* \"--CODEGEN--\":2:4   */\n      iszero\n      tag_42\n      jumpi\n        /* \"--CODEGEN--\":29:30   */\n      0x00\n        /* \"--CODEGEN--\":26:27   */\n      dup1\n        /* \"--CODEGEN--\":19:31   */\n      revert\n        /* \"--CODEGEN--\":2:4   */\n    tag_42:\n        /* \"TimeAllyPET.sol\":7973:8246  function addToPrepaid(uint256 _amount) public {... */\n      dup2\n      add\n      swap1\n      dup1\n      dup1\n      calldataload\n      swap1\n      0x20\n      add\n      swap1\n      swap3\n      swap2\n      swap1\n      pop\n      pop\n      pop\n      tag_43\n      jump\t// in\n    tag_41:\n      stop\n        /* \"TimeAllyPET.sol\":9164:10131  function newPET(... */\n    tag_7:\n      tag_44\n      0x04\n      dup1\n      calldatasize\n      sub\n        /* \"--CODEGEN--\":13:15   */\n      0x40\n        /* \"--CODEGEN--\":8:11   */\n      dup2\n        /* \"--CODEGEN--\":5:16   */\n      lt\n        /* \"--CODEGEN--\":2:4   */\n      iszero\n      tag_45\n      jumpi\n        /* \"--CODEGEN--\":29:30   */\n      0x00\n        /* \"--CODEGEN--\":26:27   */\n      dup1\n        /* \"--CODEGEN--\":19:31   */\n      revert\n        /* \"--CODEGEN--\":2:4   */\n    tag_45:\n        /* \"TimeAllyPET.sol\":9164:10131  function newPET(... */\n      dup2\n      add\n      swap1\n      dup1\n      dup1\n      calldataload\n      swap1\n      0x20\n      add\n      swap1\n      swap3\n      swap2\n      swap1\n      dup1\n      calldataload\n      swap1\n      0x20\n      add\n      swap1\n      swap3\n      swap2\n      swap1\n      pop\n      pop\n      pop\n      tag_46\n      jump\t// in\n    tag_44:\n      stop\n        /* \"TimeAllyPET.sol\":24467:24671  function viewNomination(... */\n    tag_8:\n      tag_47\n      0x04\n      dup1\n      calldatasize\n      sub\n        /* \"--CODEGEN--\":13:15   */\n      0x60\n        /* \"--CODEGEN--\":8:11   */\n      dup2\n        /* \"--CODEGEN--\":5:16   */\n      lt\n        /* \"--CODEGEN--\":2:4   */\n      iszero\n      tag_48\n      jumpi\n        /* \"--CODEGEN--\":29:30   */\n      0x00\n        /* \"--CODEGEN--\":26:27   */\n      dup1\n        /* \"--CODEGEN--\":19:31   */\n      revert\n        /* \"--CODEGEN--\":2:4   */\n    tag_48:\n        /* \"TimeAllyPET.sol\":24467:24671  function viewNomination(... */\n      dup2\n      add\n      swap1\n      dup1\n      dup1\n      calldataload\n      0xffffffffffffffffffffffffffffffffffffffff\n      and\n      swap1\n      0x20\n      add\n      swap1\n      swap3\n      swap2\n      swap1\n      dup1\n      calldataload\n      swap1\n      0x20\n      add\n      swap1\n      swap3\n      swap2\n      swap1\n      dup1\n      calldataload\n      0xffffffffffffffffffffffffffffffffffffffff\n      and\n      swap1\n      0x20\n      add\n      swap1\n      swap3\n      swap2\n      swap1\n      pop\n      pop\n      pop\n      tag_49\n      jump\t// in\n    tag_47:\n      mload(0x40)\n      dup1\n      dup3\n      iszero\n      iszero\n      iszero\n      iszero\n      dup2\n      mstore\n      0x20\n      add\n      swap2\n      pop\n      pop\n      mload(0x40)\n      dup1\n      swap2\n      sub\n      swap1\n      return\n        /* \"TimeAllyPET.sol\":20422:22233  function withdrawAnnuity(... */\n    tag_9:\n      tag_50\n      0x04\n      dup1\n      calldatasize\n      sub\n        /* \"--CODEGEN--\":13:15   */\n      0x60\n        /* \"--CODEGEN--\":8:11   */\n      dup2\n        /* \"--CODEGEN--\":5:16   */\n      lt\n        /* \"--CODEGEN--\":2:4   */\n      iszero\n      tag_51\n      jumpi\n        /* \"--CODEGEN--\":29:30   */\n      0x00\n        /* \"--CODEGEN--\":26:27   */\n      dup1\n        /* \"--CODEGEN--\":19:31   */\n      revert\n        /* \"--CODEGEN--\":2:4   */\n    tag_51:\n        /* \"TimeAllyPET.sol\":20422:22233  function withdrawAnnuity(... */\n      dup2\n      add\n      swap1\n      dup1\n      dup1\n      calldataload\n      0xffffffffffffffffffffffffffffffffffffffff\n      and\n      swap1\n      0x20\n      add\n      swap1\n      swap3\n      swap2\n      swap1\n      dup1\n      calldataload\n      swap1\n      0x20\n      add\n      swap1\n      swap3\n      swap2\n      swap1\n      dup1\n      calldataload\n      swap1\n      0x20\n      add\n      swap1\n      swap3\n      swap2\n      swap1\n      pop\n      pop\n      pop\n      tag_52\n      jump\t// in\n    tag_50:\n      stop\n        /* \"TimeAllyPET.sol\":17419:20146  function makeLumSumDeposit(... */\n    tag_10:\n      tag_53\n      0x04\n      dup1\n      calldatasize\n      sub\n        /* \"--CODEGEN--\":13:16   */\n      0xa0\n        /* \"--CODEGEN--\":8:11   */\n      dup2\n        /* \"--CODEGEN--\":5:17   */\n      lt\n        /* \"--CODEGEN--\":2:4   */\n      iszero\n      tag_54\n      jumpi\n        /* \"--CODEGEN--\":30:31   */\n      0x00\n        /* \"--CODEGEN--\":27:28   */\n      dup1\n        /* \"--CODEGEN--\":20:32   */\n      revert\n        /* \"--CODEGEN--\":2:4   */\n    tag_54:\n        /* \"TimeAllyPET.sol\":17419:20146  function makeLumSumDeposit(... */\n      dup2\n      add\n      swap1\n      dup1\n      dup1\n      calldataload\n      0xffffffffffffffffffffffffffffffffffffffff\n      and\n      swap1\n      0x20\n      add\n      swap1\n      swap3\n      swap2\n      swap1\n      dup1\n      calldataload\n      swap1\n      0x20\n      add\n      swap1\n      swap3\n      swap2\n      swap1\n      dup1\n      calldataload\n      swap1\n      0x20\n      add\n      swap1\n      swap3\n      swap2\n      swap1\n      dup1\n      calldataload\n      swap1\n      0x20\n      add\n      swap1\n      swap3\n      swap2\n      swap1\n      dup1\n      calldataload\n      iszero\n      iszero\n      swap1\n      0x20\n      add\n      swap1\n      swap3\n      swap2\n      swap1\n      pop\n      pop\n      pop\n      tag_55\n      jump\t// in\n    tag_53:\n      stop\n        /* \"TimeAllyPET.sol\":4753:4790  mapping(address => PET[]) public pets */\n    tag_11:\n      tag_56\n      0x04\n      dup1\n      calldatasize\n      sub\n        /* \"--CODEGEN--\":13:15   */\n      0x40\n        /* \"--CODEGEN--\":8:11   */\n      dup2\n        /* \"--CODEGEN--\":5:16   */\n      lt\n        /* \"--CODEGEN--\":2:4   */\n      iszero\n      tag_57\n      jumpi\n        /* \"--CODEGEN--\":29:30   */\n      0x00\n        /* \"--CODEGEN--\":26:27   */\n      dup1\n        /* \"--CODEGEN--\":19:31   */\n      revert\n        /* \"--CODEGEN--\":2:4   */\n    tag_57:\n        /* \"TimeAllyPET.sol\":4753:4790  mapping(address => PET[]) public pets */\n      dup2\n      add\n      swap1\n      dup1\n      dup1\n      calldataload\n      0xffffffffffffffffffffffffffffffffffffffff\n      and\n      swap1\n      0x20\n      add\n      swap1\n      swap3\n      swap2\n      swap1\n      dup1\n      calldataload\n      swap1\n      0x20\n      add\n      swap1\n      swap3\n      swap2\n      swap1\n      pop\n      pop\n      pop\n      tag_58\n      jump\t// in\n    tag_56:\n      mload(0x40)\n      dup1\n      dup8\n      dup2\n      mstore\n      0x20\n      add\n      dup7\n      dup2\n      mstore\n      0x20\n      add\n      dup6\n      dup2\n      mstore\n      0x20\n      add\n      dup5\n      dup2\n      mstore\n      0x20\n      add\n      dup4\n      dup2\n      mstore\n      0x20\n      add\n      dup3\n      dup2\n      mstore\n      0x20\n      add\n      swap7\n      pop\n      pop\n      pop\n      pop\n      pop\n      pop\n      pop\n      mload(0x40)\n      dup1\n      swap2\n      sub\n      swap1\n      return\n        /* \"TimeAllyPET.sol\":4362:4388  address public fundsBucket */\n    tag_12:\n      tag_59\n      tag_60\n      jump\t// in\n    tag_59:\n      mload(0x40)\n      dup1\n      dup3\n      0xffffffffffffffffffffffffffffffffffffffff\n      and\n      0xffffffffffffffffffffffffffffffffffffffff\n      and\n      dup2\n      mstore\n      0x20\n      add\n      swap2\n      pop\n      pop\n      mload(0x40)\n      dup1\n      swap2\n      sub\n      swap1\n      return\n        /* \"TimeAllyPET.sol\":28682:29394  function calculatePowerBoosterAmount(... */\n    tag_13:\n      tag_61\n      0x04\n      dup1\n      calldatasize\n      sub\n        /* \"--CODEGEN--\":13:15   */\n      0x40\n        /* \"--CODEGEN--\":8:11   */\n      dup2\n        /* \"--CODEGEN--\":5:16   */\n      lt\n        /* \"--CODEGEN--\":2:4   */\n      iszero\n      tag_62\n      jumpi\n        /* \"--CODEGEN--\":29:30   */\n      0x00\n        /* \"--CODEGEN--\":26:27   */\n      dup1\n        /* \"--CODEGEN--\":19:31   */\n      revert\n        /* \"--CODEGEN--\":2:4   */\n    tag_62:\n        /* \"TimeAllyPET.sol\":28682:29394  function calculatePowerBoosterAmount(... */\n      dup2\n      add\n      swap1\n      dup1\n      dup1\n      calldataload\n      0xffffffffffffffffffffffffffffffffffffffff\n      and\n      swap1\n      0x20\n      add\n      swap1\n      swap3\n      swap2\n      swap1\n      dup1\n      calldataload\n      swap1\n      0x20\n      add\n      swap1\n      swap3\n      swap2\n      swap1\n      pop\n      pop\n      pop\n      tag_63\n      jump\t// in\n    tag_61:\n      mload(0x40)\n      dup1\n      dup3\n      dup2\n      mstore\n      0x20\n      add\n      swap2\n      pop\n      pop\n      mload(0x40)\n      dup1\n      swap2\n      sub\n      swap1\n      return\n        /* \"TimeAllyPET.sol\":10375:10939  function createPETPlan(... */\n    tag_14:\n      tag_64\n      0x04\n      dup1\n      calldatasize\n      sub\n        /* \"--CODEGEN--\":13:15   */\n      0x40\n        /* \"--CODEGEN--\":8:11   */\n      dup2\n        /* \"--CODEGEN--\":5:16   */\n      lt\n        /* \"--CODEGEN--\":2:4   */\n      iszero\n      tag_65\n      jumpi\n        /* \"--CODEGEN--\":29:30   */\n      0x00\n        /* \"--CODEGEN--\":26:27   */\n      dup1\n        /* \"--CODEGEN--\":19:31   */\n      revert\n        /* \"--CODEGEN--\":2:4   */\n    tag_65:\n        /* \"TimeAllyPET.sol\":10375:10939  function createPETPlan(... */\n      dup2\n      add\n      swap1\n      dup1\n      dup1\n      calldataload\n      swap1\n      0x20\n      add\n      swap1\n      swap3\n      swap2\n      swap1\n      dup1\n      calldataload\n      swap1\n      0x20\n      add\n      swap1\n      swap3\n      swap2\n      swap1\n      pop\n      pop\n      pop\n      tag_66\n      jump\t// in\n    tag_64:\n      stop\n        /* \"TimeAllyPET.sol\":27518:28471  function getSumOfMonthlyAnnuity(... */\n    tag_15:\n      tag_67\n      0x04\n      dup1\n      calldatasize\n      sub\n        /* \"--CODEGEN--\":13:16   */\n      0x80\n        /* \"--CODEGEN--\":8:11   */\n      dup2\n        /* \"--CODEGEN--\":5:17   */\n      lt\n        /* \"--CODEGEN--\":2:4   */\n      iszero\n      tag_68\n      jumpi\n        /* \"--CODEGEN--\":30:31   */\n      0x00\n        /* \"--CODEGEN--\":27:28   */\n      dup1\n        /* \"--CODEGEN--\":20:32   */\n      revert\n        /* \"--CODEGEN--\":2:4   */\n    tag_68:\n        /* \"TimeAllyPET.sol\":27518:28471  function getSumOfMonthlyAnnuity(... */\n      dup2\n      add\n      swap1\n      dup1\n      dup1\n      calldataload\n      0xffffffffffffffffffffffffffffffffffffffff\n      and\n      swap1\n      0x20\n      add\n      swap1\n      swap3\n      swap2\n      swap1\n      dup1\n      calldataload\n      swap1\n      0x20\n      add\n      swap1\n      swap3\n      swap2\n      swap1\n      dup1\n      calldataload\n      swap1\n      0x20\n      add\n      swap1\n      swap3\n      swap2\n      swap1\n      dup1\n      calldataload\n      swap1\n      0x20\n      add\n      swap1\n      swap3\n      swap2\n      swap1\n      pop\n      pop\n      pop\n      tag_69\n      jump\t// in\n    tag_67:\n      mload(0x40)\n      dup1\n      dup3\n      dup2\n      mstore\n      0x20\n      add\n      swap2\n      pop\n      pop\n      mload(0x40)\n      dup1\n      swap2\n      sub\n      swap1\n      return\n        /* \"TimeAllyPET.sol\":25509:26200  function getNomineeAllowedTimestamp(... */\n    tag_16:\n      tag_70\n      0x04\n      dup1\n      calldatasize\n      sub\n        /* \"--CODEGEN--\":13:15   */\n      0x60\n        /* \"--CODEGEN--\":8:11   */\n      dup2\n        /* \"--CODEGEN--\":5:16   */\n      lt\n        /* \"--CODEGEN--\":2:4   */\n      iszero\n      tag_71\n      jumpi\n        /* \"--CODEGEN--\":29:30   */\n      0x00\n        /* \"--CODEGEN--\":26:27   */\n      dup1\n        /* \"--CODEGEN--\":19:31   */\n      revert\n        /* \"--CODEGEN--\":2:4   */\n    tag_71:\n        /* \"TimeAllyPET.sol\":25509:26200  function getNomineeAllowedTimestamp(... */\n      dup2\n      add\n      swap1\n      dup1\n      dup1\n      calldataload\n      0xffffffffffffffffffffffffffffffffffffffff\n      and\n      swap1\n      0x20\n      add\n      swap1\n      swap3\n      swap2\n      swap1\n      dup1\n      calldataload\n      swap1\n      0x20\n      add\n      swap1\n      swap3\n      swap2\n      swap1\n      dup1\n      calldataload\n      swap1\n      0x20\n      add\n      swap1\n      swap3\n      swap2\n      swap1\n      pop\n      pop\n      pop\n      tag_72\n      jump\t// in\n    tag_70:\n      mload(0x40)\n      dup1\n      dup3\n      dup2\n      mstore\n      0x20\n      add\n      swap2\n      pop\n      pop\n      mload(0x40)\n      dup1\n      swap2\n      sub\n      swap1\n      return\n        /* \"TimeAllyPET.sol\":8514:8964  function sendPrepaidESDifferent(... */\n    tag_17:\n      tag_73\n      0x04\n      dup1\n      calldatasize\n      sub\n        /* \"--CODEGEN--\":13:15   */\n      0x40\n        /* \"--CODEGEN--\":8:11   */\n      dup2\n        /* \"--CODEGEN--\":5:16   */\n      lt\n        /* \"--CODEGEN--\":2:4   */\n      iszero\n      tag_74\n      jumpi\n        /* \"--CODEGEN--\":29:30   */\n      0x00\n        /* \"--CODEGEN--\":26:27   */\n      dup1\n        /* \"--CODEGEN--\":19:31   */\n      revert\n        /* \"--CODEGEN--\":2:4   */\n    tag_74:\n        /* \"TimeAllyPET.sol\":8514:8964  function sendPrepaidESDifferent(... */\n      dup2\n      add\n      swap1\n      dup1\n      dup1\n      calldataload\n      swap1\n      0x20\n      add\n      swap1\n        /* \"--CODEGEN--\":21:32   */\n      0x0100000000\n        /* \"--CODEGEN--\":8:19   */\n      dup2\n        /* \"--CODEGEN--\":5:33   */\n      gt\n        /* \"--CODEGEN--\":2:4   */\n      iszero\n      tag_75\n      jumpi\n        /* \"--CODEGEN--\":46:47   */\n      0x00\n        /* \"--CODEGEN--\":43:44   */\n      dup1\n        /* \"--CODEGEN--\":36:48   */\n      revert\n        /* \"--CODEGEN--\":2:4   */\n    tag_75:\n        /* \"TimeAllyPET.sol\":8514:8964  function sendPrepaidESDifferent(... */\n      dup3\n      add\n        /* \"--CODEGEN--\":35:44   */\n      dup4\n        /* \"--CODEGEN--\":28:32   */\n      0x20\n        /* \"--CODEGEN--\":12:26   */\n      dup3\n        /* \"--CODEGEN--\":8:33   */\n      add\n        /* \"--CODEGEN--\":5:45   */\n      gt\n        /* \"--CODEGEN--\":2:4   */\n      iszero\n      tag_76\n      jumpi\n        /* \"--CODEGEN--\":58:59   */\n      0x00\n        /* \"--CODEGEN--\":55:56   */\n      dup1\n        /* \"--CODEGEN--\":48:60   */\n      revert\n        /* \"--CODEGEN--\":2:4   */\n    tag_76:\n        /* \"TimeAllyPET.sol\":8514:8964  function sendPrepaidESDifferent(... */\n      dup1\n      calldataload\n      swap1\n      0x20\n      add\n      swap2\n        /* \"--CODEGEN--\":101:110   */\n      dup5\n        /* \"--CODEGEN--\":95:97   */\n      0x20\n        /* \"--CODEGEN--\":81:93   */\n      dup4\n        /* \"--CODEGEN--\":77:98   */\n      mul\n        /* \"--CODEGEN--\":67:75   */\n      dup5\n        /* \"--CODEGEN--\":63:99   */\n      add\n        /* \"--CODEGEN--\":60:111   */\n      gt\n        /* \"--CODEGEN--\":39:50   */\n      0x0100000000\n        /* \"--CODEGEN--\":25:37   */\n      dup4\n        /* \"--CODEGEN--\":22:51   */\n      gt\n        /* \"--CODEGEN--\":11:119   */\n      or\n        /* \"--CODEGEN--\":8:10   */\n      iszero\n      tag_77\n      jumpi\n        /* \"--CODEGEN--\":132:133   */\n      0x00\n        /* \"--CODEGEN--\":129:130   */\n      dup1\n        /* \"--CODEGEN--\":122:134   */\n      revert\n        /* \"--CODEGEN--\":8:10   */\n    tag_77:\n        /* \"TimeAllyPET.sol\":8514:8964  function sendPrepaidESDifferent(... */\n      swap2\n      swap1\n      dup1\n      dup1\n      0x20\n      mul\n      0x20\n      add\n      mload(0x40)\n      swap1\n      dup2\n      add\n      0x40\n      mstore\n      dup1\n      swap4\n      swap3\n      swap2\n      swap1\n      dup2\n      dup2\n      mstore\n      0x20\n      add\n      dup4\n      dup4\n      0x20\n      mul\n        /* \"--CODEGEN--\":30:33   */\n      dup1\n        /* \"--CODEGEN--\":22:28   */\n      dup3\n        /* \"--CODEGEN--\":14:20   */\n      dup5\n        /* \"--CODEGEN--\":1:34   */\n      calldatacopy\n        /* \"--CODEGEN--\":99:100   */\n      0x00\n        /* \"--CODEGEN--\":93:96   */\n      dup2\n        /* \"--CODEGEN--\":85:91   */\n      dup5\n        /* \"--CODEGEN--\":81:97   */\n      add\n        /* \"--CODEGEN--\":74:101   */\n      mstore\n        /* \"--CODEGEN--\":137:141   */\n      0x1f\n        /* \"--CODEGEN--\":133:142   */\n      not\n        /* \"--CODEGEN--\":126:130   */\n      0x1f\n        /* \"--CODEGEN--\":121:124   */\n      dup3\n        /* \"--CODEGEN--\":117:131   */\n      add\n        /* \"--CODEGEN--\":113:143   */\n      and\n        /* \"--CODEGEN--\":106:143   */\n      swap1\n      pop\n        /* \"--CODEGEN--\":169:172   */\n      dup1\n        /* \"--CODEGEN--\":161:167   */\n      dup4\n        /* \"--CODEGEN--\":157:173   */\n      add\n        /* \"--CODEGEN--\":147:173   */\n      swap3\n      pop\n        /* \"TimeAllyPET.sol\":8514:8964  function sendPrepaidESDifferent(... */\n      pop\n      pop\n      pop\n      pop\n      pop\n      pop\n      swap2\n      swap3\n      swap2\n      swap3\n      swap1\n      dup1\n      calldataload\n      swap1\n      0x20\n      add\n      swap1\n        /* \"--CODEGEN--\":21:32   */\n      0x0100000000\n        /* \"--CODEGEN--\":8:19   */\n      dup2\n        /* \"--CODEGEN--\":5:33   */\n      gt\n        /* \"--CODEGEN--\":2:4   */\n      iszero\n      tag_78\n      jumpi\n        /* \"--CODEGEN--\":46:47   */\n      0x00\n        /* \"--CODEGEN--\":43:44   */\n      dup1\n        /* \"--CODEGEN--\":36:48   */\n      revert\n        /* \"--CODEGEN--\":2:4   */\n    tag_78:\n        /* \"TimeAllyPET.sol\":8514:8964  function sendPrepaidESDifferent(... */\n      dup3\n      add\n        /* \"--CODEGEN--\":35:44   */\n      dup4\n        /* \"--CODEGEN--\":28:32   */\n      0x20\n        /* \"--CODEGEN--\":12:26   */\n      dup3\n        /* \"--CODEGEN--\":8:33   */\n      add\n        /* \"--CODEGEN--\":5:45   */\n      gt\n        /* \"--CODEGEN--\":2:4   */\n      iszero\n      tag_79\n      jumpi\n        /* \"--CODEGEN--\":58:59   */\n      0x00\n        /* \"--CODEGEN--\":55:56   */\n      dup1\n        /* \"--CODEGEN--\":48:60   */\n      revert\n        /* \"--CODEGEN--\":2:4   */\n    tag_79:\n        /* \"TimeAllyPET.sol\":8514:8964  function sendPrepaidESDifferent(... */\n      dup1\n      calldataload\n      swap1\n      0x20\n      add\n      swap2\n        /* \"--CODEGEN--\":101:110   */\n      dup5\n        /* \"--CODEGEN--\":95:97   */\n      0x20\n        /* \"--CODEGEN--\":81:93   */\n      dup4\n        /* \"--CODEGEN--\":77:98   */\n      mul\n        /* \"--CODEGEN--\":67:75   */\n      dup5\n        /* \"--CODEGEN--\":63:99   */\n      add\n        /* \"--CODEGEN--\":60:111   */\n      gt\n        /* \"--CODEGEN--\":39:50   */\n      0x0100000000\n        /* \"--CODEGEN--\":25:37   */\n      dup4\n        /* \"--CODEGEN--\":22:51   */\n      gt\n        /* \"--CODEGEN--\":11:119   */\n      or\n        /* \"--CODEGEN--\":8:10   */\n      iszero\n      tag_80\n      jumpi\n        /* \"--CODEGEN--\":132:133   */\n      0x00\n        /* \"--CODEGEN--\":129:130   */\n      dup1\n        /* \"--CODEGEN--\":122:134   */\n      revert\n        /* \"--CODEGEN--\":8:10   */\n    tag_80:\n        /* \"TimeAllyPET.sol\":8514:8964  function sendPrepaidESDifferent(... */\n      swap2\n      swap1\n      dup1\n      dup1\n      0x20\n      mul\n      0x20\n      add\n      mload(0x40)\n      swap1\n      dup2\n      add\n      0x40\n      mstore\n      dup1\n      swap4\n      swap3\n      swap2\n      swap1\n      dup2\n      dup2\n      mstore\n      0x20\n      add\n      dup4\n      dup4\n      0x20\n      mul\n        /* \"--CODEGEN--\":30:33   */\n      dup1\n        /* \"--CODEGEN--\":22:28   */\n      dup3\n        /* \"--CODEGEN--\":14:20   */\n      dup5\n        /* \"--CODEGEN--\":1:34   */\n      calldatacopy\n        /* \"--CODEGEN--\":99:100   */\n      0x00\n        /* \"--CODEGEN--\":93:96   */\n      dup2\n        /* \"--CODEGEN--\":85:91   */\n      dup5\n        /* \"--CODEGEN--\":81:97   */\n      add\n        /* \"--CODEGEN--\":74:101   */\n      mstore\n        /* \"--CODEGEN--\":137:141   */\n      0x1f\n        /* \"--CODEGEN--\":133:142   */\n      not\n        /* \"--CODEGEN--\":126:130   */\n      0x1f\n        /* \"--CODEGEN--\":121:124   */\n      dup3\n        /* \"--CODEGEN--\":117:131   */\n      add\n        /* \"--CODEGEN--\":113:143   */\n      and\n        /* \"--CODEGEN--\":106:143   */\n      swap1\n      pop\n        /* \"--CODEGEN--\":169:172   */\n      dup1\n        /* \"--CODEGEN--\":161:167   */\n      dup4\n        /* \"--CODEGEN--\":157:173   */\n      add\n        /* \"--CODEGEN--\":147:173   */\n      swap3\n      pop\n        /* \"TimeAllyPET.sol\":8514:8964  function sendPrepaidESDifferent(... */\n      pop\n      pop\n      pop\n      pop\n      pop\n      pop\n      swap2\n      swap3\n      swap2\n      swap3\n      swap1\n      pop\n      pop\n      pop\n      tag_81\n      jump\t// in\n    tag_73:\n      stop\n        /* \"TimeAllyPET.sol\":11208:11342  function updatePlanStatus(uint256 _planId, bool _newStatus) public onlyDeployer {... */\n    tag_18:\n      tag_82\n      0x04\n      dup1\n      calldatasize\n      sub\n        /* \"--CODEGEN--\":13:15   */\n      0x40\n        /* \"--CODEGEN--\":8:11   */\n      dup2\n        /* \"--CODEGEN--\":5:16   */\n      lt\n        /* \"--CODEGEN--\":2:4   */\n      iszero\n      tag_83\n      jumpi\n        /* \"--CODEGEN--\":29:30   */\n      0x00\n        /* \"--CODEGEN--\":26:27   */\n      dup1\n        /* \"--CODEGEN--\":19:31   */\n      revert\n        /* \"--CODEGEN--\":2:4   */\n    tag_83:\n        /* \"TimeAllyPET.sol\":11208:11342  function updatePlanStatus(uint256 _planId, bool _newStatus) public onlyDeployer {... */\n      dup2\n      add\n      swap1\n      dup1\n      dup1\n      calldataload\n      swap1\n      0x20\n      add\n      swap1\n      swap3\n      swap2\n      swap1\n      dup1\n      calldataload\n      iszero\n      iszero\n      swap1\n      0x20\n      add\n      swap1\n      swap3\n      swap2\n      swap1\n      pop\n      pop\n      pop\n      tag_84\n      jump\t// in\n    tag_82:\n      stop\n        /* \"TimeAllyPET.sol\":24974:25186  function viewAppointation(... */\n    tag_19:\n      tag_85\n      0x04\n      dup1\n      calldatasize\n      sub\n        /* \"--CODEGEN--\":13:15   */\n      0x60\n        /* \"--CODEGEN--\":8:11   */\n      dup2\n        /* \"--CODEGEN--\":5:16   */\n      lt\n        /* \"--CODEGEN--\":2:4   */\n      iszero\n      tag_86\n      jumpi\n        /* \"--CODEGEN--\":29:30   */\n      0x00\n        /* \"--CODEGEN--\":26:27   */\n      dup1\n        /* \"--CODEGEN--\":19:31   */\n      revert\n        /* \"--CODEGEN--\":2:4   */\n    tag_86:\n        /* \"TimeAllyPET.sol\":24974:25186  function viewAppointation(... */\n      dup2\n      add\n      swap1\n      dup1\n      dup1\n      calldataload\n      0xffffffffffffffffffffffffffffffffffffffff\n      and\n      swap1\n      0x20\n      add\n      swap1\n      swap3\n      swap2\n      swap1\n      dup1\n      calldataload\n      swap1\n      0x20\n      add\n      swap1\n      swap3\n      swap2\n      swap1\n      dup1\n      calldataload\n      0xffffffffffffffffffffffffffffffffffffffff\n      and\n      swap1\n      0x20\n      add\n      swap1\n      swap3\n      swap2\n      swap1\n      pop\n      pop\n      pop\n      tag_87\n      jump\t// in\n    tag_85:\n      mload(0x40)\n      dup1\n      dup3\n      iszero\n      iszero\n      iszero\n      iszero\n      dup2\n      mstore\n      0x20\n      add\n      swap2\n      pop\n      pop\n      mload(0x40)\n      dup1\n      swap2\n      sub\n      swap1\n      return\n        /* \"TimeAllyPET.sol\":4672:4697  PETPlan[] public petPlans */\n    tag_20:\n      tag_88\n      0x04\n      dup1\n      calldatasize\n      sub\n        /* \"--CODEGEN--\":13:15   */\n      0x20\n        /* \"--CODEGEN--\":8:11   */\n      dup2\n        /* \"--CODEGEN--\":5:16   */\n      lt\n        /* \"--CODEGEN--\":2:4   */\n      iszero\n      tag_89\n      jumpi\n        /* \"--CODEGEN--\":29:30   */\n      0x00\n        /* \"--CODEGEN--\":26:27   */\n      dup1\n        /* \"--CODEGEN--\":19:31   */\n      revert\n        /* \"--CODEGEN--\":2:4   */\n    tag_89:\n        /* \"TimeAllyPET.sol\":4672:4697  PETPlan[] public petPlans */\n      dup2\n      add\n      swap1\n      dup1\n      dup1\n      calldataload\n      swap1\n      0x20\n      add\n      swap1\n      swap3\n      swap2\n      swap1\n      pop\n      pop\n      pop\n      tag_90\n      jump\t// in\n    tag_88:\n      mload(0x40)\n      dup1\n      dup5\n      iszero\n      iszero\n      iszero\n      iszero\n      dup2\n      mstore\n      0x20\n      add\n      dup4\n      dup2\n      mstore\n      0x20\n      add\n      dup3\n      dup2\n      mstore\n      0x20\n      add\n      swap4\n      pop\n      pop\n      pop\n      pop\n      mload(0x40)\n      dup1\n      swap2\n      sub\n      swap1\n      return\n        /* \"TimeAllyPET.sol\":22491:24171  function withdrawPowerBooster(... */\n    tag_21:\n      tag_91\n      0x04\n      dup1\n      calldatasize\n      sub\n        /* \"--CODEGEN--\":13:15   */\n      0x60\n        /* \"--CODEGEN--\":8:11   */\n      dup2\n        /* \"--CODEGEN--\":5:16   */\n      lt\n        /* \"--CODEGEN--\":2:4   */\n      iszero\n      tag_92\n      jumpi\n        /* \"--CODEGEN--\":29:30   */\n      0x00\n        /* \"--CODEGEN--\":26:27   */\n      dup1\n        /* \"--CODEGEN--\":19:31   */\n      revert\n        /* \"--CODEGEN--\":2:4   */\n    tag_92:\n        /* \"TimeAllyPET.sol\":22491:24171  function withdrawPowerBooster(... */\n      dup2\n      add\n      swap1\n      dup1\n      dup1\n      calldataload\n      0xffffffffffffffffffffffffffffffffffffffff\n      and\n      swap1\n      0x20\n      add\n      swap1\n      swap3\n      swap2\n      swap1\n      dup1\n      calldataload\n      swap1\n      0x20\n      add\n      swap1\n      swap3\n      swap2\n      swap1\n      dup1\n      calldataload\n      swap1\n      0x20\n      add\n      swap1\n      swap3\n      swap2\n      swap1\n      pop\n      pop\n      pop\n      tag_93\n      jump\t// in\n    tag_91:\n      stop\n        /* \"TimeAllyPET.sol\":13408:14003  function appointeeVote(... */\n    tag_22:\n      tag_94\n      0x04\n      dup1\n      calldatasize\n      sub\n        /* \"--CODEGEN--\":13:15   */\n      0x40\n        /* \"--CODEGEN--\":8:11   */\n      dup2\n        /* \"--CODEGEN--\":5:16   */\n      lt\n        /* \"--CODEGEN--\":2:4   */\n      iszero\n      tag_95\n      jumpi\n        /* \"--CODEGEN--\":29:30   */\n      0x00\n        /* \"--CODEGEN--\":26:27   */\n      dup1\n        /* \"--CODEGEN--\":19:31   */\n      revert\n        /* \"--CODEGEN--\":2:4   */\n    tag_95:\n        /* \"TimeAllyPET.sol\":13408:14003  function appointeeVote(... */\n      dup2\n      add\n      swap1\n      dup1\n      dup1\n      calldataload\n      0xffffffffffffffffffffffffffffffffffffffff\n      and\n      swap1\n      0x20\n      add\n      swap1\n      swap3\n      swap2\n      swap1\n      dup1\n      calldataload\n      swap1\n      0x20\n      add\n      swap1\n      swap3\n      swap2\n      swap1\n      pop\n      pop\n      pop\n      tag_96\n      jump\t// in\n    tag_94:\n      stop\n        /* \"TimeAllyPET.sol\":12311:13141  function toogleAppointee(... */\n    tag_23:\n      tag_97\n      0x04\n      dup1\n      calldatasize\n      sub\n        /* \"--CODEGEN--\":13:15   */\n      0x60\n        /* \"--CODEGEN--\":8:11   */\n      dup2\n        /* \"--CODEGEN--\":5:16   */\n      lt\n        /* \"--CODEGEN--\":2:4   */\n      iszero\n      tag_98\n      jumpi\n        /* \"--CODEGEN--\":29:30   */\n      0x00\n        /* \"--CODEGEN--\":26:27   */\n      dup1\n        /* \"--CODEGEN--\":19:31   */\n      revert\n        /* \"--CODEGEN--\":2:4   */\n    tag_98:\n        /* \"TimeAllyPET.sol\":12311:13141  function toogleAppointee(... */\n      dup2\n      add\n      swap1\n      dup1\n      dup1\n      calldataload\n      swap1\n      0x20\n      add\n      swap1\n      swap3\n      swap2\n      swap1\n      dup1\n      calldataload\n      0xffffffffffffffffffffffffffffffffffffffff\n      and\n      swap1\n      0x20\n      add\n      swap1\n      swap3\n      swap2\n      swap1\n      dup1\n      calldataload\n      iszero\n      iszero\n      swap1\n      0x20\n      add\n      swap1\n      swap3\n      swap2\n      swap1\n      pop\n      pop\n      pop\n      tag_99\n      jump\t// in\n    tag_97:\n      stop\n        /* \"TimeAllyPET.sol\":4238:4261  address public deployer */\n    tag_24:\n      tag_100\n      tag_101\n      jump\t// in\n    tag_100:\n      mload(0x40)\n      dup1\n      dup3\n      0xffffffffffffffffffffffffffffffffffffffff\n      and\n      0xffffffffffffffffffffffffffffffffffffffff\n      and\n      dup2\n      mstore\n      0x20\n      add\n      swap2\n      pop\n      pop\n      mload(0x40)\n      dup1\n      swap2\n      sub\n      swap1\n      return\n        /* \"TimeAllyPET.sol\":26490:26706  function getMonthlyDepositedAmount(... */\n    tag_25:\n      tag_102\n      0x04\n      dup1\n      calldatasize\n      sub\n        /* \"--CODEGEN--\":13:15   */\n      0x60\n        /* \"--CODEGEN--\":8:11   */\n      dup2\n        /* \"--CODEGEN--\":5:16   */\n      lt\n        /* \"--CODEGEN--\":2:4   */\n      iszero\n      tag_103\n      jumpi\n        /* \"--CODEGEN--\":29:30   */\n      0x00\n        /* \"--CODEGEN--\":26:27   */\n      dup1\n        /* \"--CODEGEN--\":19:31   */\n      revert\n        /* \"--CODEGEN--\":2:4   */\n    tag_103:\n        /* \"TimeAllyPET.sol\":26490:26706  function getMonthlyDepositedAmount(... */\n      dup2\n      add\n      swap1\n      dup1\n      dup1\n      calldataload\n      0xffffffffffffffffffffffffffffffffffffffff\n      and\n      swap1\n      0x20\n      add\n      swap1\n      swap3\n      swap2\n      swap1\n      dup1\n      calldataload\n      swap1\n      0x20\n      add\n      swap1\n      swap3\n      swap2\n      swap1\n      dup1\n      calldataload\n      swap1\n      0x20\n      add\n      swap1\n      swap3\n      swap2\n      swap1\n      pop\n      pop\n      pop\n      tag_104\n      jump\t// in\n    tag_102:\n      mload(0x40)\n      dup1\n      dup3\n      dup2\n      mstore\n      0x20\n      add\n      swap2\n      pop\n      pop\n      mload(0x40)\n      dup1\n      swap2\n      sub\n      swap1\n      return\n        /* \"TimeAllyPET.sol\":4872:4916  mapping(address => uint256) public prepaidES */\n    tag_26:\n      tag_105\n      0x04\n      dup1\n      calldatasize\n      sub\n        /* \"--CODEGEN--\":13:15   */\n      0x20\n        /* \"--CODEGEN--\":8:11   */\n      dup2\n        /* \"--CODEGEN--\":5:16   */\n      lt\n        /* \"--CODEGEN--\":2:4   */\n      iszero\n      tag_106\n      jumpi\n        /* \"--CODEGEN--\":29:30   */\n      0x00\n        /* \"--CODEGEN--\":26:27   */\n      dup1\n        /* \"--CODEGEN--\":19:31   */\n      revert\n        /* \"--CODEGEN--\":2:4   */\n    tag_106:\n        /* \"TimeAllyPET.sol\":4872:4916  mapping(address => uint256) public prepaidES */\n      dup2\n      add\n      swap1\n      dup1\n      dup1\n      calldataload\n      0xffffffffffffffffffffffffffffffffffffffff\n      and\n      swap1\n      0x20\n      add\n      swap1\n      swap3\n      swap2\n      swap1\n      pop\n      pop\n      pop\n      tag_107\n      jump\t// in\n    tag_105:\n      mload(0x40)\n      dup1\n      dup3\n      dup2\n      mstore\n      0x20\n      add\n      swap2\n      pop\n      pop\n      mload(0x40)\n      dup1\n      swap2\n      sub\n      swap1\n      return\n        /* \"TimeAllyPET.sol\":4462:4480  ERC20 public token */\n    tag_27:\n      tag_108\n      tag_109\n      jump\t// in\n    tag_108:\n      mload(0x40)\n      dup1\n      dup3\n      0xffffffffffffffffffffffffffffffffffffffff\n      and\n      0xffffffffffffffffffffffffffffffffffffffff\n      and\n      dup2\n      mstore\n      0x20\n      add\n      swap2\n      pop\n      pop\n      mload(0x40)\n      dup1\n      swap2\n      sub\n      swap1\n      return\n        /* \"TimeAllyPET.sol\":14521:16979  function makeDeposit(... */\n    tag_34:\n        /* \"TimeAllyPET.sol\":14665:14679  _stakerAddress */\n      dup4\n        /* \"TimeAllyPET.sol\":14681:14687  _petId */\n      dup4\n        /* \"TimeAllyPET.sol\":7267:7283  PET storage _pet */\n      0x00\n        /* \"TimeAllyPET.sol\":7286:7290  pets */\n      0x04\n        /* \"TimeAllyPET.sol\":7286:7306  pets[_stakerAddress] */\n      0x00\n        /* \"TimeAllyPET.sol\":7291:7305  _stakerAddress */\n      dup5\n        /* \"TimeAllyPET.sol\":7286:7306  pets[_stakerAddress] */\n      0xffffffffffffffffffffffffffffffffffffffff\n      and\n      0xffffffffffffffffffffffffffffffffffffffff\n      and\n      dup2\n      mstore\n      0x20\n      add\n      swap1\n      dup2\n      mstore\n      0x20\n      add\n      0x00\n      keccak256\n        /* \"TimeAllyPET.sol\":7307:7313  _petId */\n      dup3\n        /* \"TimeAllyPET.sol\":7286:7314  pets[_stakerAddress][_petId] */\n      dup2\n      sload\n      dup2\n      lt\n      tag_111\n      jumpi\n      invalid\n    tag_111:\n      swap1\n      0x00\n      mstore\n      keccak256(0x00, 0x20)\n      swap1\n      0x0a\n      mul\n      add\n        /* \"TimeAllyPET.sol\":7267:7314  PET storage _pet = pets[_stakerAddress][_petId] */\n      swap1\n      pop\n        /* \"TimeAllyPET.sol\":7417:7431  _stakerAddress */\n      dup3\n        /* \"TimeAllyPET.sol\":7403:7431  msg.sender != _stakerAddress */\n      0xffffffffffffffffffffffffffffffffffffffff\n      and\n        /* \"TimeAllyPET.sol\":7403:7413  msg.sender */\n      caller\n        /* \"TimeAllyPET.sol\":7403:7431  msg.sender != _stakerAddress */\n      0xffffffffffffffffffffffffffffffffffffffff\n      and\n      eq\n        /* \"TimeAllyPET.sol\":7400:7512  if(msg.sender != _stakerAddress) {... */\n      tag_113\n      jumpi\n        /* \"TimeAllyPET.sol\":7449:7453  _pet */\n      dup1\n        /* \"TimeAllyPET.sol\":7449:7462  _pet.nominees */\n      0x08\n      add\n        /* \"TimeAllyPET.sol\":7449:7474  _pet.nominees[msg.sender] */\n      0x00\n        /* \"TimeAllyPET.sol\":7463:7473  msg.sender */\n      caller\n        /* \"TimeAllyPET.sol\":7449:7474  _pet.nominees[msg.sender] */\n      0xffffffffffffffffffffffffffffffffffffffff\n      and\n      0xffffffffffffffffffffffffffffffffffffffff\n      and\n      dup2\n      mstore\n      0x20\n      add\n      swap1\n      dup2\n      mstore\n      0x20\n      add\n      0x00\n      keccak256\n      0x00\n      swap1\n      sload\n      swap1\n      0x0100\n      exp\n      swap1\n      div\n      0xff\n      and\n        /* \"TimeAllyPET.sol\":7441:7505  require(_pet.nominees[msg.sender], 'nomination should be there') */\n      tag_114\n      jumpi\n      mload(0x40)\n      0x08c379a000000000000000000000000000000000000000000000000000000000\n      dup2\n      mstore\n      0x04\n      add\n      dup1\n      dup1\n      0x20\n      add\n      dup3\n      dup2\n      sub\n      dup3\n      mstore\n      0x1a\n      dup2\n      mstore\n      0x20\n      add\n      dup1\n      0x6e6f6d696e6174696f6e2073686f756c64206265207468657265000000000000\n      dup2\n      mstore\n      pop\n      0x20\n      add\n      swap2\n      pop\n      pop\n      mload(0x40)\n      dup1\n      swap2\n      sub\n      swap1\n      revert\n    tag_114:\n        /* \"TimeAllyPET.sol\":7400:7512  if(msg.sender != _stakerAddress) {... */\n    tag_113:\n        /* \"TimeAllyPET.sol\":14762:14763  0 */\n      0x00\n        /* \"TimeAllyPET.sol\":14745:14759  _depositAmount */\n      dup6\n        /* \"TimeAllyPET.sol\":14745:14763  _depositAmount > 0 */\n      gt\n        /* \"TimeAllyPET.sol\":14737:14801  require(_depositAmount > 0, 'deposit amount should be non zero') */\n      tag_116\n      jumpi\n      mload(0x40)\n      0x08c379a000000000000000000000000000000000000000000000000000000000\n      dup2\n      mstore\n      0x04\n      add\n      dup1\n      dup1\n      0x20\n      add\n      dup3\n      dup2\n      sub\n      dup3\n      mstore\n      0x21\n      dup2\n      mstore\n      0x20\n      add\n      dup1\n      data_a66804336ef880d43d3664593cfd2886bc0d5e09a9e6d1574f39fab0c9f3fb85\n      0x21\n      swap2\n      codecopy\n      0x40\n      add\n      swap2\n      pop\n      pop\n      mload(0x40)\n      dup1\n      swap2\n      sub\n      swap1\n      revert\n    tag_116:\n        /* \"TimeAllyPET.sol\":14866:14882  PET storage _pet */\n      0x00\n        /* \"TimeAllyPET.sol\":14885:14889  pets */\n      0x04\n        /* \"TimeAllyPET.sol\":14885:14905  pets[_stakerAddress] */\n      0x00\n        /* \"TimeAllyPET.sol\":14890:14904  _stakerAddress */\n      dup10\n        /* \"TimeAllyPET.sol\":14885:14905  pets[_stakerAddress] */\n      0xffffffffffffffffffffffffffffffffffffffff\n      and\n      0xffffffffffffffffffffffffffffffffffffffff\n      and\n      dup2\n      mstore\n      0x20\n      add\n      swap1\n      dup2\n      mstore\n      0x20\n      add\n      0x00\n      keccak256\n        /* \"TimeAllyPET.sol\":14906:14912  _petId */\n      dup8\n        /* \"TimeAllyPET.sol\":14885:14913  pets[_stakerAddress][_petId] */\n      dup2\n      sload\n      dup2\n      lt\n      tag_117\n      jumpi\n      invalid\n    tag_117:\n      swap1\n      0x00\n      mstore\n      keccak256(0x00, 0x20)\n      swap1\n      0x0a\n      mul\n      add\n        /* \"TimeAllyPET.sol\":14866:14913  PET storage _pet = pets[_stakerAddress][_petId] */\n      swap1\n      pop\n        /* \"TimeAllyPET.sol\":14978:14999  uint256 _depositMonth */\n      0x00\n        /* \"TimeAllyPET.sol\":15002:15041  getDepositMonth(_stakerAddress, _petId) */\n      tag_119\n        /* \"TimeAllyPET.sol\":15018:15032  _stakerAddress */\n      dup10\n        /* \"TimeAllyPET.sol\":15034:15040  _petId */\n      dup10\n        /* \"TimeAllyPET.sol\":15002:15017  getDepositMonth */\n      tag_40\n        /* \"TimeAllyPET.sol\":15002:15041  getDepositMonth(_stakerAddress, _petId) */\n      jump\t// in\n    tag_119:\n        /* \"TimeAllyPET.sol\":14978:15041  uint256 _depositMonth = getDepositMonth(_stakerAddress, _petId) */\n      swap1\n      pop\n        /* \"TimeAllyPET.sol\":15125:15127  12 */\n      0x0c\n        /* \"TimeAllyPET.sol\":15108:15121  _depositMonth */\n      dup2\n        /* \"TimeAllyPET.sol\":15108:15127  _depositMonth <= 12 */\n      gt\n      iszero\n        /* \"TimeAllyPET.sol\":15100:15172  require(_depositMonth <= 12, 'cannot deposit after accumulation period') */\n      tag_120\n      jumpi\n      mload(0x40)\n      0x08c379a000000000000000000000000000000000000000000000000000000000\n      dup2\n      mstore\n      0x04\n      add\n      dup1\n      dup1\n      0x20\n      add\n      dup3\n      dup2\n      sub\n      dup3\n      mstore\n      0x28\n      dup2\n      mstore\n      0x20\n      add\n      dup1\n      data_a4c16ca7a8e973f42facadda9d5acf990ce1247b83cdb47d69fe2dcd504c7f2f\n      0x28\n      swap2\n      codecopy\n      0x40\n      add\n      swap2\n      pop\n      pop\n      mload(0x40)\n      dup1\n      swap2\n      sub\n      swap1\n      revert\n    tag_120:\n        /* \"TimeAllyPET.sol\":15182:15195  _usePrepaidES */\n      dup6\n        /* \"TimeAllyPET.sol\":15179:15471  if(_usePrepaidES) {... */\n      iszero\n      tag_121\n      jumpi\n        /* \"TimeAllyPET.sol\":15281:15322  prepaidES[msg.sender].sub(_depositAmount) */\n      tag_122\n        /* \"TimeAllyPET.sol\":15307:15321  _depositAmount */\n      dup8\n        /* \"TimeAllyPET.sol\":15281:15290  prepaidES */\n      0x05\n        /* \"TimeAllyPET.sol\":15281:15302  prepaidES[msg.sender] */\n      0x00\n        /* \"TimeAllyPET.sol\":15291:15301  msg.sender */\n      caller\n        /* \"TimeAllyPET.sol\":15281:15302  prepaidES[msg.sender] */\n      0xffffffffffffffffffffffffffffffffffffffff\n      and\n      0xffffffffffffffffffffffffffffffffffffffff\n      and\n      dup2\n      mstore\n      0x20\n      add\n      swap1\n      dup2\n      mstore\n      0x20\n      add\n      0x00\n      keccak256\n      sload\n        /* \"TimeAllyPET.sol\":15281:15306  prepaidES[msg.sender].sub */\n      tag_123\n      swap1\n        /* \"TimeAllyPET.sol\":15281:15322  prepaidES[msg.sender].sub(_depositAmount) */\n      swap2\n      swap1\n      0xffffffff\n      and\n      jump\t// in\n    tag_122:\n        /* \"TimeAllyPET.sol\":15257:15266  prepaidES */\n      0x05\n        /* \"TimeAllyPET.sol\":15257:15278  prepaidES[msg.sender] */\n      0x00\n        /* \"TimeAllyPET.sol\":15267:15277  msg.sender */\n      caller\n        /* \"TimeAllyPET.sol\":15257:15278  prepaidES[msg.sender] */\n      0xffffffffffffffffffffffffffffffffffffffff\n      and\n      0xffffffffffffffffffffffffffffffffffffffff\n      and\n      dup2\n      mstore\n      0x20\n      add\n      swap1\n      dup2\n      mstore\n      0x20\n      add\n      0x00\n      keccak256\n        /* \"TimeAllyPET.sol\":15257:15322  prepaidES[msg.sender] = prepaidES[msg.sender].sub(_depositAmount) */\n      dup2\n      swap1\n      sstore\n      pop\n        /* \"TimeAllyPET.sol\":15179:15471  if(_usePrepaidES) {... */\n      jump(tag_124)\n    tag_121:\n        /* \"TimeAllyPET.sol\":15403:15408  token */\n      0x02\n      0x00\n      swap1\n      sload\n      swap1\n      0x0100\n      exp\n      swap1\n      div\n      0xffffffffffffffffffffffffffffffffffffffff\n      and\n        /* \"TimeAllyPET.sol\":15403:15421  token.transferFrom */\n      0xffffffffffffffffffffffffffffffffffffffff\n      and\n      0x23b872dd\n        /* \"TimeAllyPET.sol\":15422:15432  msg.sender */\n      caller\n        /* \"TimeAllyPET.sol\":15442:15446  this */\n      address\n        /* \"TimeAllyPET.sol\":15449:15463  _depositAmount */\n      dup11\n        /* \"TimeAllyPET.sol\":15403:15464  token.transferFrom(msg.sender, address(this), _depositAmount) */\n      mload(0x40)\n      dup5\n      0xffffffff\n      and\n      0xe0\n      shl\n      dup2\n      mstore\n      0x04\n      add\n      dup1\n      dup5\n      0xffffffffffffffffffffffffffffffffffffffff\n      and\n      0xffffffffffffffffffffffffffffffffffffffff\n      and\n      dup2\n      mstore\n      0x20\n      add\n      dup4\n      0xffffffffffffffffffffffffffffffffffffffff\n      and\n      0xffffffffffffffffffffffffffffffffffffffff\n      and\n      dup2\n      mstore\n      0x20\n      add\n      dup3\n      dup2\n      mstore\n      0x20\n      add\n      swap4\n      pop\n      pop\n      pop\n      pop\n      0x20\n      mload(0x40)\n      dup1\n      dup4\n      sub\n      dup2\n      0x00\n      dup8\n      dup1\n      extcodesize\n      iszero\n        /* \"--CODEGEN--\":8:17   */\n      dup1\n        /* \"--CODEGEN--\":5:7   */\n      iszero\n      tag_125\n      jumpi\n        /* \"--CODEGEN--\":30:31   */\n      0x00\n        /* \"--CODEGEN--\":27:28   */\n      dup1\n        /* \"--CODEGEN--\":20:32   */\n      revert\n        /* \"--CODEGEN--\":5:7   */\n    tag_125:\n        /* \"TimeAllyPET.sol\":15403:15464  token.transferFrom(msg.sender, address(this), _depositAmount) */\n      pop\n      gas\n      call\n      iszero\n        /* \"--CODEGEN--\":8:17   */\n      dup1\n        /* \"--CODEGEN--\":5:7   */\n      iszero\n      tag_127\n      jumpi\n        /* \"--CODEGEN--\":45:61   */\n      returndatasize\n        /* \"--CODEGEN--\":42:43   */\n      0x00\n        /* \"--CODEGEN--\":39:40   */\n      dup1\n        /* \"--CODEGEN--\":24:62   */\n      returndatacopy\n        /* \"--CODEGEN--\":77:93   */\n      returndatasize\n        /* \"--CODEGEN--\":74:75   */\n      0x00\n        /* \"--CODEGEN--\":67:94   */\n      revert\n        /* \"--CODEGEN--\":5:7   */\n    tag_127:\n        /* \"TimeAllyPET.sol\":15403:15464  token.transferFrom(msg.sender, address(this), _depositAmount) */\n      pop\n      pop\n      pop\n      pop\n      mload(0x40)\n      returndatasize\n        /* \"--CODEGEN--\":13:15   */\n      0x20\n        /* \"--CODEGEN--\":8:11   */\n      dup2\n        /* \"--CODEGEN--\":5:16   */\n      lt\n        /* \"--CODEGEN--\":2:4   */\n      iszero\n      tag_128\n      jumpi\n        /* \"--CODEGEN--\":29:30   */\n      0x00\n        /* \"--CODEGEN--\":26:27   */\n      dup1\n        /* \"--CODEGEN--\":19:31   */\n      revert\n        /* \"--CODEGEN--\":2:4   */\n    tag_128:\n        /* \"TimeAllyPET.sol\":15403:15464  token.transferFrom(msg.sender, address(this), _depositAmount) */\n      dup2\n      add\n      swap1\n      dup1\n      dup1\n      mload\n      swap1\n      0x20\n      add\n      swap1\n      swap3\n      swap2\n      swap1\n      pop\n      pop\n      pop\n      pop\n        /* \"TimeAllyPET.sol\":15179:15471  if(_usePrepaidES) {... */\n    tag_124:\n        /* \"TimeAllyPET.sol\":15538:15567  uint256 _updatedDepositAmount */\n      0x00\n        /* \"TimeAllyPET.sol\":15570:15630  _pet.monthlyDepositAmount[_depositMonth].add(_depositAmount) */\n      tag_129\n        /* \"TimeAllyPET.sol\":15615:15629  _depositAmount */\n      dup9\n        /* \"TimeAllyPET.sol\":15570:15574  _pet */\n      dup5\n        /* \"TimeAllyPET.sol\":15570:15595  _pet.monthlyDepositAmount */\n      0x06\n      add\n        /* \"TimeAllyPET.sol\":15570:15610  _pet.monthlyDepositAmount[_depositMonth] */\n      0x00\n        /* \"TimeAllyPET.sol\":15596:15609  _depositMonth */\n      dup6\n        /* \"TimeAllyPET.sol\":15570:15610  _pet.monthlyDepositAmount[_depositMonth] */\n      dup2\n      mstore\n      0x20\n      add\n      swap1\n      dup2\n      mstore\n      0x20\n      add\n      0x00\n      keccak256\n      sload\n        /* \"TimeAllyPET.sol\":15570:15614  _pet.monthlyDepositAmount[_depositMonth].add */\n      tag_130\n      swap1\n        /* \"TimeAllyPET.sol\":15570:15630  _pet.monthlyDepositAmount[_depositMonth].add(_depositAmount) */\n      swap2\n      swap1\n      0xffffffff\n      and\n      jump\t// in\n    tag_129:\n        /* \"TimeAllyPET.sol\":15538:15630  uint256 _updatedDepositAmount = _pet.monthlyDepositAmount[_depositMonth].add(_depositAmount) */\n      swap1\n      pop\n        /* \"TimeAllyPET.sol\":15700:15722  uint256 _previousMonth */\n      0x00\n        /* \"TimeAllyPET.sol\":15741:15742  1 */\n      0x01\n        /* \"TimeAllyPET.sol\":15725:15738  _depositMonth */\n      dup4\n        /* \"TimeAllyPET.sol\":15725:15742  _depositMonth - 1 */\n      sub\n        /* \"TimeAllyPET.sol\":15700:15742  uint256 _previousMonth = _depositMonth - 1 */\n      swap1\n      pop\n        /* \"TimeAllyPET.sol\":15748:16140  while(_previousMonth > 0) {... */\n    tag_131:\n        /* \"TimeAllyPET.sol\":15771:15772  0 */\n      0x00\n        /* \"TimeAllyPET.sol\":15754:15768  _previousMonth */\n      dup2\n        /* \"TimeAllyPET.sol\":15754:15772  _previousMonth > 0 */\n      gt\n        /* \"TimeAllyPET.sol\":15748:16140  while(_previousMonth > 0) {... */\n      iszero\n      tag_132\n      jumpi\n        /* \"TimeAllyPET.sol\":15789:15793  _pet */\n      dup4\n        /* \"TimeAllyPET.sol\":15789:15814  _pet.monthlyDepositAmount */\n      0x06\n      add\n        /* \"TimeAllyPET.sol\":15789:15830  _pet.monthlyDepositAmount[_previousMonth] */\n      0x00\n        /* \"TimeAllyPET.sol\":15815:15829  _previousMonth */\n      dup3\n        /* \"TimeAllyPET.sol\":15789:15830  _pet.monthlyDepositAmount[_previousMonth] */\n      dup2\n      mstore\n      0x20\n      add\n      swap1\n      dup2\n      mstore\n      0x20\n      add\n      0x00\n      keccak256\n      sload\n        /* \"TimeAllyPET.sol\":15785:15786  0 */\n      0x00\n        /* \"TimeAllyPET.sol\":15785:15830  0 < _pet.monthlyDepositAmount[_previousMonth] */\n      lt\n        /* \"TimeAllyPET.sol\":15785:15919  0 < _pet.monthlyDepositAmount[_previousMonth]... */\n      dup1\n      iszero\n      tag_133\n      jumpi\n      pop\n        /* \"TimeAllyPET.sol\":15884:15919  _pet.monthlyCommitmentAmount.div(2) */\n      tag_134\n        /* \"TimeAllyPET.sol\":15917:15918  2 */\n      0x02\n        /* \"TimeAllyPET.sol\":15884:15888  _pet */\n      dup6\n        /* \"TimeAllyPET.sol\":15884:15912  _pet.monthlyCommitmentAmount */\n      0x01\n      add\n      sload\n        /* \"TimeAllyPET.sol\":15884:15916  _pet.monthlyCommitmentAmount.div */\n      tag_135\n      swap1\n        /* \"TimeAllyPET.sol\":15884:15919  _pet.monthlyCommitmentAmount.div(2) */\n      swap2\n      swap1\n      0xffffffff\n      and\n      jump\t// in\n    tag_134:\n        /* \"TimeAllyPET.sol\":15840:15844  _pet */\n      dup5\n        /* \"TimeAllyPET.sol\":15840:15865  _pet.monthlyDepositAmount */\n      0x06\n      add\n        /* \"TimeAllyPET.sol\":15840:15881  _pet.monthlyDepositAmount[_previousMonth] */\n      0x00\n        /* \"TimeAllyPET.sol\":15866:15880  _previousMonth */\n      dup4\n        /* \"TimeAllyPET.sol\":15840:15881  _pet.monthlyDepositAmount[_previousMonth] */\n      dup2\n      mstore\n      0x20\n      add\n      swap1\n      dup2\n      mstore\n      0x20\n      add\n      0x00\n      keccak256\n      sload\n        /* \"TimeAllyPET.sol\":15840:15919  _pet.monthlyDepositAmount[_previousMonth] < _pet.monthlyCommitmentAmount.div(2) */\n      lt\n        /* \"TimeAllyPET.sol\":15785:15919  0 < _pet.monthlyDepositAmount[_previousMonth]... */\n    tag_133:\n        /* \"TimeAllyPET.sol\":15782:16107  if(0 < _pet.monthlyDepositAmount[_previousMonth]... */\n      iszero\n      tag_136\n      jumpi\n        /* \"TimeAllyPET.sol\":15955:16043  _updatedDepositAmount.add(... */\n      tag_137\n        /* \"TimeAllyPET.sol\":15992:15996  _pet */\n      dup5\n        /* \"TimeAllyPET.sol\":15992:16017  _pet.monthlyDepositAmount */\n      0x06\n      add\n        /* \"TimeAllyPET.sol\":15992:16033  _pet.monthlyDepositAmount[_previousMonth] */\n      0x00\n        /* \"TimeAllyPET.sol\":16018:16032  _previousMonth */\n      dup4\n        /* \"TimeAllyPET.sol\":15992:16033  _pet.monthlyDepositAmount[_previousMonth] */\n      dup2\n      mstore\n      0x20\n      add\n      swap1\n      dup2\n      mstore\n      0x20\n      add\n      0x00\n      keccak256\n      sload\n        /* \"TimeAllyPET.sol\":15955:15976  _updatedDepositAmount */\n      dup4\n        /* \"TimeAllyPET.sol\":15955:15980  _updatedDepositAmount.add */\n      tag_130\n      swap1\n        /* \"TimeAllyPET.sol\":15955:16043  _updatedDepositAmount.add(... */\n      swap2\n      swap1\n      0xffffffff\n      and\n      jump\t// in\n    tag_137:\n        /* \"TimeAllyPET.sol\":15931:16043  _updatedDepositAmount = _updatedDepositAmount.add(... */\n      swap2\n      pop\n        /* \"TimeAllyPET.sol\":16097:16098  0 */\n      0x00\n        /* \"TimeAllyPET.sol\":16053:16057  _pet */\n      dup5\n        /* \"TimeAllyPET.sol\":16053:16078  _pet.monthlyDepositAmount */\n      0x06\n      add\n        /* \"TimeAllyPET.sol\":16053:16094  _pet.monthlyDepositAmount[_previousMonth] */\n      0x00\n        /* \"TimeAllyPET.sol\":16079:16093  _previousMonth */\n      dup4\n        /* \"TimeAllyPET.sol\":16053:16094  _pet.monthlyDepositAmount[_previousMonth] */\n      dup2\n      mstore\n      0x20\n      add\n      swap1\n      dup2\n      mstore\n      0x20\n      add\n      0x00\n      keccak256\n        /* \"TimeAllyPET.sol\":16053:16098  _pet.monthlyDepositAmount[_previousMonth] = 0 */\n      dup2\n      swap1\n      sstore\n      pop\n        /* \"TimeAllyPET.sol\":15782:16107  if(0 < _pet.monthlyDepositAmount[_previousMonth]... */\n    tag_136:\n        /* \"TimeAllyPET.sol\":16132:16133  1 */\n      0x01\n        /* \"TimeAllyPET.sol\":16114:16133  _previousMonth -= 1 */\n      dup2\n      sub\n      swap1\n      pop\n        /* \"TimeAllyPET.sol\":15748:16140  while(_previousMonth > 0) {... */\n      jump(tag_131)\n    tag_132:\n        /* \"TimeAllyPET.sol\":16219:16248  uint256 _oldBenefitAllocation */\n      0x00\n        /* \"TimeAllyPET.sol\":16251:16335  _getBenefitAllocationByDepositAmount(... */\n      tag_138\n        /* \"TimeAllyPET.sol\":16295:16299  _pet */\n      dup6\n        /* \"TimeAllyPET.sol\":16307:16308  0 */\n      0x00\n        /* \"TimeAllyPET.sol\":16316:16329  _depositMonth */\n      dup7\n        /* \"TimeAllyPET.sol\":16251:16287  _getBenefitAllocationByDepositAmount */\n      tag_139\n        /* \"TimeAllyPET.sol\":16251:16335  _getBenefitAllocationByDepositAmount(... */\n      jump\t// in\n    tag_138:\n        /* \"TimeAllyPET.sol\":16219:16335  uint256 _oldBenefitAllocation = _getBenefitAllocationByDepositAmount(... */\n      swap1\n      pop\n        /* \"TimeAllyPET.sol\":16341:16372  uint256 _extraBenefitAllocation */\n      0x00\n        /* \"TimeAllyPET.sol\":16375:16506  _getBenefitAllocationByDepositAmount(... */\n      tag_140\n        /* \"TimeAllyPET.sol\":16484:16505  _oldBenefitAllocation */\n      dup3\n        /* \"TimeAllyPET.sol\":16375:16479  _getBenefitAllocationByDepositAmount(... */\n      tag_141\n        /* \"TimeAllyPET.sol\":16419:16423  _pet */\n      dup9\n        /* \"TimeAllyPET.sol\":16431:16452  _updatedDepositAmount */\n      dup8\n        /* \"TimeAllyPET.sol\":16460:16473  _depositMonth */\n      dup10\n        /* \"TimeAllyPET.sol\":16375:16411  _getBenefitAllocationByDepositAmount */\n      tag_139\n        /* \"TimeAllyPET.sol\":16375:16479  _getBenefitAllocationByDepositAmount(... */\n      jump\t// in\n    tag_141:\n        /* \"TimeAllyPET.sol\":16375:16483  _getBenefitAllocationByDepositAmount(... */\n      tag_123\n      swap1\n        /* \"TimeAllyPET.sol\":16375:16506  _getBenefitAllocationByDepositAmount(... */\n      swap2\n      swap1\n      0xffffffff\n      and\n      jump\t// in\n    tag_140:\n        /* \"TimeAllyPET.sol\":16341:16506  uint256 _extraBenefitAllocation = _getBenefitAllocationByDepositAmount(... */\n      swap1\n      pop\n        /* \"TimeAllyPET.sol\":16558:16563  token */\n      0x02\n      0x00\n      swap1\n      sload\n      swap1\n      0x0100\n      exp\n      swap1\n      div\n      0xffffffffffffffffffffffffffffffffffffffff\n      and\n        /* \"TimeAllyPET.sol\":16558:16576  token.transferFrom */\n      0xffffffffffffffffffffffffffffffffffffffff\n      and\n      0x23b872dd\n        /* \"TimeAllyPET.sol\":16577:16588  fundsBucket */\n      0x01\n      0x00\n      swap1\n      sload\n      swap1\n      0x0100\n      exp\n      swap1\n      div\n      0xffffffffffffffffffffffffffffffffffffffff\n      and\n        /* \"TimeAllyPET.sol\":16598:16602  this */\n      address\n        /* \"TimeAllyPET.sol\":16605:16628  _extraBenefitAllocation */\n      dup5\n        /* \"TimeAllyPET.sol\":16558:16629  token.transferFrom(fundsBucket, address(this), _extraBenefitAllocation) */\n      mload(0x40)\n      dup5\n      0xffffffff\n      and\n      0xe0\n      shl\n      dup2\n      mstore\n      0x04\n      add\n      dup1\n      dup5\n      0xffffffffffffffffffffffffffffffffffffffff\n      and\n      0xffffffffffffffffffffffffffffffffffffffff\n      and\n      dup2\n      mstore\n      0x20\n      add\n      dup4\n      0xffffffffffffffffffffffffffffffffffffffff\n      and\n      0xffffffffffffffffffffffffffffffffffffffff\n      and\n      dup2\n      mstore\n      0x20\n      add\n      dup3\n      dup2\n      mstore\n      0x20\n      add\n      swap4\n      pop\n      pop\n      pop\n      pop\n      0x20\n      mload(0x40)\n      dup1\n      dup4\n      sub\n      dup2\n      0x00\n      dup8\n      dup1\n      extcodesize\n      iszero\n        /* \"--CODEGEN--\":8:17   */\n      dup1\n        /* \"--CODEGEN--\":5:7   */\n      iszero\n      tag_142\n      jumpi\n        /* \"--CODEGEN--\":30:31   */\n      0x00\n        /* \"--CODEGEN--\":27:28   */\n      dup1\n        /* \"--CODEGEN--\":20:32   */\n      revert\n        /* \"--CODEGEN--\":5:7   */\n    tag_142:\n        /* \"TimeAllyPET.sol\":16558:16629  token.transferFrom(fundsBucket, address(this), _extraBenefitAllocation) */\n      pop\n      gas\n      call\n      iszero\n        /* \"--CODEGEN--\":8:17   */\n      dup1\n        /* \"--CODEGEN--\":5:7   */\n      iszero\n      tag_144\n      jumpi\n        /* \"--CODEGEN--\":45:61   */\n      returndatasize\n        /* \"--CODEGEN--\":42:43   */\n      0x00\n        /* \"--CODEGEN--\":39:40   */\n      dup1\n        /* \"--CODEGEN--\":24:62   */\n      returndatacopy\n        /* \"--CODEGEN--\":77:93   */\n      returndatasize\n        /* \"--CODEGEN--\":74:75   */\n      0x00\n        /* \"--CODEGEN--\":67:94   */\n      revert\n        /* \"--CODEGEN--\":5:7   */\n    tag_144:\n        /* \"TimeAllyPET.sol\":16558:16629  token.transferFrom(fundsBucket, address(this), _extraBenefitAllocation) */\n      pop\n      pop\n      pop\n      pop\n      mload(0x40)\n      returndatasize\n        /* \"--CODEGEN--\":13:15   */\n      0x20\n        /* \"--CODEGEN--\":8:11   */\n      dup2\n        /* \"--CODEGEN--\":5:16   */\n      lt\n        /* \"--CODEGEN--\":2:4   */\n      iszero\n      tag_145\n      jumpi\n        /* \"--CODEGEN--\":29:30   */\n      0x00\n        /* \"--CODEGEN--\":26:27   */\n      dup1\n        /* \"--CODEGEN--\":19:31   */\n      revert\n        /* \"--CODEGEN--\":2:4   */\n    tag_145:\n        /* \"TimeAllyPET.sol\":16558:16629  token.transferFrom(fundsBucket, address(this), _extraBenefitAllocation) */\n      dup2\n      add\n      swap1\n      dup1\n      dup1\n      mload\n      swap1\n      0x20\n      add\n      swap1\n      swap3\n      swap2\n      swap1\n      pop\n      pop\n      pop\n      pop\n        /* \"TimeAllyPET.sol\":16739:16760  _updatedDepositAmount */\n      dup4\n        /* \"TimeAllyPET.sol\":16696:16700  _pet */\n      dup7\n        /* \"TimeAllyPET.sol\":16696:16721  _pet.monthlyDepositAmount */\n      0x06\n      add\n        /* \"TimeAllyPET.sol\":16696:16736  _pet.monthlyDepositAmount[_depositMonth] */\n      0x00\n        /* \"TimeAllyPET.sol\":16722:16735  _depositMonth */\n      dup8\n        /* \"TimeAllyPET.sol\":16696:16736  _pet.monthlyDepositAmount[_depositMonth] */\n      dup2\n      mstore\n      0x20\n      add\n      swap1\n      dup2\n      mstore\n      0x20\n      add\n      0x00\n      keccak256\n        /* \"TimeAllyPET.sol\":16696:16760  _pet.monthlyDepositAmount[_depositMonth] = _updatedDepositAmount */\n      dup2\n      swap1\n      sstore\n      pop\n        /* \"TimeAllyPET.sol\":16846:16852  _petId */\n      dup12\n        /* \"TimeAllyPET.sol\":16824:16838  _stakerAddress */\n      dup14\n        /* \"TimeAllyPET.sol\":16806:16974  NewDeposit(... */\n      0xffffffffffffffffffffffffffffffffffffffff\n      and\n      0xa0f7ad829c9cb80662be76da1eefcf008f173427db87f98a6d935f043f1a12e5\n        /* \"TimeAllyPET.sol\":16860:16873  _depositMonth */\n      dup8\n        /* \"TimeAllyPET.sol\":16881:16895  _depositAmount */\n      dup15\n        /* \"TimeAllyPET.sol\":16937:16947  msg.sender */\n      caller\n        /* \"TimeAllyPET.sol\":16955:16968  _usePrepaidES */\n      dup16\n        /* \"TimeAllyPET.sol\":16806:16974  NewDeposit(... */\n      mload(0x40)\n      dup1\n      dup6\n      dup2\n      mstore\n      0x20\n      add\n      dup5\n      dup2\n      mstore\n      0x20\n      add\n      dup4\n      0xffffffffffffffffffffffffffffffffffffffff\n      and\n      0xffffffffffffffffffffffffffffffffffffffff\n      and\n      dup2\n      mstore\n      0x20\n      add\n      dup3\n      iszero\n      iszero\n      iszero\n      iszero\n      dup2\n      mstore\n      0x20\n      add\n      swap5\n      pop\n      pop\n      pop\n      pop\n      pop\n      mload(0x40)\n      dup1\n      swap2\n      sub\n      swap1\n      log3\n        /* \"TimeAllyPET.sol\":7517:7518  _ */\n      pop\n      pop\n      pop\n      pop\n      pop\n      pop\n        /* \"TimeAllyPET.sol\":14521:16979  function makeDeposit(... */\n      pop\n      pop\n      pop\n      pop\n      pop\n      pop\n      pop\n      jump\t// out\n        /* \"TimeAllyPET.sol\":11635:12009  function toogleNominee(... */\n    tag_37:\n        /* \"TimeAllyPET.sol\":11845:11862  _newNomineeStatus */\n      dup1\n        /* \"TimeAllyPET.sol\":11792:11796  pets */\n      0x04\n        /* \"TimeAllyPET.sol\":11792:11808  pets[msg.sender] */\n      0x00\n        /* \"TimeAllyPET.sol\":11797:11807  msg.sender */\n      caller\n        /* \"TimeAllyPET.sol\":11792:11808  pets[msg.sender] */\n      0xffffffffffffffffffffffffffffffffffffffff\n      and\n      0xffffffffffffffffffffffffffffffffffffffff\n      and\n      dup2\n      mstore\n      0x20\n      add\n      swap1\n      dup2\n      mstore\n      0x20\n      add\n      0x00\n      keccak256\n        /* \"TimeAllyPET.sol\":11809:11815  _petId */\n      dup5\n        /* \"TimeAllyPET.sol\":11792:11816  pets[msg.sender][_petId] */\n      dup2\n      sload\n      dup2\n      lt\n      tag_147\n      jumpi\n      invalid\n    tag_147:\n      swap1\n      0x00\n      mstore\n      keccak256(0x00, 0x20)\n      swap1\n      0x0a\n      mul\n      add\n        /* \"TimeAllyPET.sol\":11792:11825  pets[msg.sender][_petId].nominees */\n      0x08\n      add\n        /* \"TimeAllyPET.sol\":11792:11842  pets[msg.sender][_petId].nominees[_nomineeAddress] */\n      0x00\n        /* \"TimeAllyPET.sol\":11826:11841  _nomineeAddress */\n      dup5\n        /* \"TimeAllyPET.sol\":11792:11842  pets[msg.sender][_petId].nominees[_nomineeAddress] */\n      0xffffffffffffffffffffffffffffffffffffffff\n      and\n      0xffffffffffffffffffffffffffffffffffffffff\n      and\n      dup2\n      mstore\n      0x20\n      add\n      swap1\n      dup2\n      mstore\n      0x20\n      add\n      0x00\n      keccak256\n      0x00\n        /* \"TimeAllyPET.sol\":11792:11862  pets[msg.sender][_petId].nominees[_nomineeAddress] = _newNomineeStatus */\n      0x0100\n      exp\n      dup2\n      sload\n      dup2\n      0xff\n      mul\n      not\n      and\n      swap1\n      dup4\n      iszero\n      iszero\n      mul\n      or\n      swap1\n      sstore\n      pop\n        /* \"TimeAllyPET.sol\":11969:11984  _nomineeAddress */\n      dup2\n        /* \"TimeAllyPET.sol\":11934:12004  NomineeUpdated(msg.sender, _petId, _nomineeAddress, _newNomineeStatus) */\n      0xffffffffffffffffffffffffffffffffffffffff\n      and\n        /* \"TimeAllyPET.sol\":11961:11967  _petId */\n      dup4\n        /* \"TimeAllyPET.sol\":11949:11959  msg.sender */\n      caller\n        /* \"TimeAllyPET.sol\":11934:12004  NomineeUpdated(msg.sender, _petId, _nomineeAddress, _newNomineeStatus) */\n      0xffffffffffffffffffffffffffffffffffffffff\n      and\n      0x90e4568f920d8bb093366a04150aa0d04957a471196f5e1cdfb0db3cb83cc5b0\n        /* \"TimeAllyPET.sol\":11986:12003  _newNomineeStatus */\n      dup5\n        /* \"TimeAllyPET.sol\":11934:12004  NomineeUpdated(msg.sender, _petId, _nomineeAddress, _newNomineeStatus) */\n      mload(0x40)\n      dup1\n      dup3\n      iszero\n      iszero\n      iszero\n      iszero\n      dup2\n      mstore\n      0x20\n      add\n      swap2\n      pop\n      pop\n      mload(0x40)\n      dup1\n      swap2\n      sub\n      swap1\n      log4\n        /* \"TimeAllyPET.sol\":11635:12009  function toogleNominee(... */\n      pop\n      pop\n      pop\n      jump\t// out\n        /* \"TimeAllyPET.sol\":26946:27156  function getDepositMonth(... */\n    tag_40:\n        /* \"TimeAllyPET.sol\":27044:27051  uint256 */\n      0x00\n        /* \"TimeAllyPET.sol\":27150:27151  1 */\n      0x01\n        /* \"TimeAllyPET.sol\":4615:4622  2629744 */\n      0x282070\n        /* \"TimeAllyPET.sol\":27081:27085  pets */\n      0x04\n        /* \"TimeAllyPET.sol\":27081:27101  pets[_stakerAddress] */\n      0x00\n        /* \"TimeAllyPET.sol\":27086:27100  _stakerAddress */\n      dup7\n        /* \"TimeAllyPET.sol\":27081:27101  pets[_stakerAddress] */\n      0xffffffffffffffffffffffffffffffffffffffff\n      and\n      0xffffffffffffffffffffffffffffffffffffffff\n      and\n      dup2\n      mstore\n      0x20\n      add\n      swap1\n      dup2\n      mstore\n      0x20\n      add\n      0x00\n      keccak256\n        /* \"TimeAllyPET.sol\":27102:27108  _petId */\n      dup5\n        /* \"TimeAllyPET.sol\":27081:27109  pets[_stakerAddress][_petId] */\n      dup2\n      sload\n      dup2\n      lt\n      tag_150\n      jumpi\n      invalid\n    tag_150:\n      swap1\n      0x00\n      mstore\n      keccak256(0x00, 0x20)\n      swap1\n      0x0a\n      mul\n      add\n        /* \"TimeAllyPET.sol\":27081:27123  pets[_stakerAddress][_petId].initTimestamp */\n      0x02\n      add\n      sload\n        /* \"TimeAllyPET.sol\":27067:27072  token */\n      0x02\n      0x00\n      swap1\n      sload\n      swap1\n      0x0100\n      exp\n      swap1\n      div\n      0xffffffffffffffffffffffffffffffffffffffff\n      and\n        /* \"TimeAllyPET.sol\":27067:27076  token.mou */\n      0xffffffffffffffffffffffffffffffffffffffff\n      and\n      0xb81f90f3\n        /* \"TimeAllyPET.sol\":27067:27078  token.mou() */\n      mload(0x40)\n      dup2\n      0xffffffff\n      and\n      0xe0\n      shl\n      dup2\n      mstore\n      0x04\n      add\n      0x20\n      mload(0x40)\n      dup1\n      dup4\n      sub\n      dup2\n      dup7\n      dup1\n      extcodesize\n      iszero\n        /* \"--CODEGEN--\":8:17   */\n      dup1\n        /* \"--CODEGEN--\":5:7   */\n      iszero\n      tag_152\n      jumpi\n        /* \"--CODEGEN--\":30:31   */\n      0x00\n        /* \"--CODEGEN--\":27:28   */\n      dup1\n        /* \"--CODEGEN--\":20:32   */\n      revert\n        /* \"--CODEGEN--\":5:7   */\n    tag_152:\n        /* \"TimeAllyPET.sol\":27067:27078  token.mou() */\n      pop\n      gas\n      staticcall\n      iszero\n        /* \"--CODEGEN--\":8:17   */\n      dup1\n        /* \"--CODEGEN--\":5:7   */\n      iszero\n      tag_154\n      jumpi\n        /* \"--CODEGEN--\":45:61   */\n      returndatasize\n        /* \"--CODEGEN--\":42:43   */\n      0x00\n        /* \"--CODEGEN--\":39:40   */\n      dup1\n        /* \"--CODEGEN--\":24:62   */\n      returndatacopy\n        /* \"--CODEGEN--\":77:93   */\n      returndatasize\n        /* \"--CODEGEN--\":74:75   */\n      0x00\n        /* \"--CODEGEN--\":67:94   */\n      revert\n        /* \"--CODEGEN--\":5:7   */\n    tag_154:\n        /* \"TimeAllyPET.sol\":27067:27078  token.mou() */\n      pop\n      pop\n      pop\n      pop\n      mload(0x40)\n      returndatasize\n        /* \"--CODEGEN--\":13:15   */\n      0x20\n        /* \"--CODEGEN--\":8:11   */\n      dup2\n        /* \"--CODEGEN--\":5:16   */\n      lt\n        /* \"--CODEGEN--\":2:4   */\n      iszero\n      tag_155\n      jumpi\n        /* \"--CODEGEN--\":29:30   */\n      0x00\n        /* \"--CODEGEN--\":26:27   */\n      dup1\n        /* \"--CODEGEN--\":19:31   */\n      revert\n        /* \"--CODEGEN--\":2:4   */\n    tag_155:\n        /* \"TimeAllyPET.sol\":27067:27078  token.mou() */\n      dup2\n      add\n      swap1\n      dup1\n      dup1\n      mload\n      swap1\n      0x20\n      add\n      swap1\n      swap3\n      swap2\n      swap1\n      pop\n      pop\n      pop\n        /* \"TimeAllyPET.sol\":27067:27123  token.mou() - pets[_stakerAddress][_petId].initTimestamp */\n      sub\n        /* \"TimeAllyPET.sol\":27066:27147  (token.mou() - pets[_stakerAddress][_petId].initTimestamp)/EARTH_SECONDS_IN_MONTH */\n      dup2\n      tag_156\n      jumpi\n      invalid\n    tag_156:\n      div\n        /* \"TimeAllyPET.sol\":27066:27151  (token.mou() - pets[_stakerAddress][_petId].initTimestamp)/EARTH_SECONDS_IN_MONTH + 1 */\n      add\n        /* \"TimeAllyPET.sol\":27059:27151  return (token.mou() - pets[_stakerAddress][_petId].initTimestamp)/EARTH_SECONDS_IN_MONTH + 1 */\n      swap1\n      pop\n        /* \"TimeAllyPET.sol\":26946:27156  function getDepositMonth(... */\n      swap3\n      swap2\n      pop\n      pop\n      jump\t// out\n        /* \"TimeAllyPET.sol\":7973:8246  function addToPrepaid(uint256 _amount) public {... */\n    tag_43:\n        /* \"TimeAllyPET.sol\":8074:8079  token */\n      0x02\n      0x00\n      swap1\n      sload\n      swap1\n      0x0100\n      exp\n      swap1\n      div\n      0xffffffffffffffffffffffffffffffffffffffff\n      and\n        /* \"TimeAllyPET.sol\":8074:8092  token.transferFrom */\n      0xffffffffffffffffffffffffffffffffffffffff\n      and\n      0x23b872dd\n        /* \"TimeAllyPET.sol\":8093:8103  msg.sender */\n      caller\n        /* \"TimeAllyPET.sol\":8113:8117  this */\n      address\n        /* \"TimeAllyPET.sol\":8120:8127  _amount */\n      dup5\n        /* \"TimeAllyPET.sol\":8074:8128  token.transferFrom(msg.sender, address(this), _amount) */\n      mload(0x40)\n      dup5\n      0xffffffff\n      and\n      0xe0\n      shl\n      dup2\n      mstore\n      0x04\n      add\n      dup1\n      dup5\n      0xffffffffffffffffffffffffffffffffffffffff\n      and\n      0xffffffffffffffffffffffffffffffffffffffff\n      and\n      dup2\n      mstore\n      0x20\n      add\n      dup4\n      0xffffffffffffffffffffffffffffffffffffffff\n      and\n      0xffffffffffffffffffffffffffffffffffffffff\n      and\n      dup2\n      mstore\n      0x20\n      add\n      dup3\n      dup2\n      mstore\n      0x20\n      add\n      swap4\n      pop\n      pop\n      pop\n      pop\n      0x20\n      mload(0x40)\n      dup1\n      dup4\n      sub\n      dup2\n      0x00\n      dup8\n      dup1\n      extcodesize\n      iszero\n        /* \"--CODEGEN--\":8:17   */\n      dup1\n        /* \"--CODEGEN--\":5:7   */\n      iszero\n      tag_158\n      jumpi\n        /* \"--CODEGEN--\":30:31   */\n      0x00\n        /* \"--CODEGEN--\":27:28   */\n      dup1\n        /* \"--CODEGEN--\":20:32   */\n      revert\n        /* \"--CODEGEN--\":5:7   */\n    tag_158:\n        /* \"TimeAllyPET.sol\":8074:8128  token.transferFrom(msg.sender, address(this), _amount) */\n      pop\n      gas\n      call\n      iszero\n        /* \"--CODEGEN--\":8:17   */\n      dup1\n        /* \"--CODEGEN--\":5:7   */\n      iszero\n      tag_160\n      jumpi\n        /* \"--CODEGEN--\":45:61   */\n      returndatasize\n        /* \"--CODEGEN--\":42:43   */\n      0x00\n        /* \"--CODEGEN--\":39:40   */\n      dup1\n        /* \"--CODEGEN--\":24:62   */\n      returndatacopy\n        /* \"--CODEGEN--\":77:93   */\n      returndatasize\n        /* \"--CODEGEN--\":74:75   */\n      0x00\n        /* \"--CODEGEN--\":67:94   */\n      revert\n        /* \"--CODEGEN--\":5:7   */\n    tag_160:\n        /* \"TimeAllyPET.sol\":8074:8128  token.transferFrom(msg.sender, address(this), _amount) */\n      pop\n      pop\n      pop\n      pop\n      mload(0x40)\n      returndatasize\n        /* \"--CODEGEN--\":13:15   */\n      0x20\n        /* \"--CODEGEN--\":8:11   */\n      dup2\n        /* \"--CODEGEN--\":5:16   */\n      lt\n        /* \"--CODEGEN--\":2:4   */\n      iszero\n      tag_161\n      jumpi\n        /* \"--CODEGEN--\":29:30   */\n      0x00\n        /* \"--CODEGEN--\":26:27   */\n      dup1\n        /* \"--CODEGEN--\":19:31   */\n      revert\n        /* \"--CODEGEN--\":2:4   */\n    tag_161:\n        /* \"TimeAllyPET.sol\":8074:8128  token.transferFrom(msg.sender, address(this), _amount) */\n      dup2\n      add\n      swap1\n      dup1\n      dup1\n      mload\n      swap1\n      0x20\n      add\n      swap1\n      swap3\n      swap2\n      swap1\n      pop\n      pop\n      pop\n      pop\n        /* \"TimeAllyPET.sol\":8207:8241  prepaidES[msg.sender].add(_amount) */\n      tag_162\n        /* \"TimeAllyPET.sol\":8233:8240  _amount */\n      dup2\n        /* \"TimeAllyPET.sol\":8207:8216  prepaidES */\n      0x05\n        /* \"TimeAllyPET.sol\":8207:8228  prepaidES[msg.sender] */\n      0x00\n        /* \"TimeAllyPET.sol\":8217:8227  msg.sender */\n      caller\n        /* \"TimeAllyPET.sol\":8207:8228  prepaidES[msg.sender] */\n      0xffffffffffffffffffffffffffffffffffffffff\n      and\n      0xffffffffffffffffffffffffffffffffffffffff\n      and\n      dup2\n      mstore\n      0x20\n      add\n      swap1\n      dup2\n      mstore\n      0x20\n      add\n      0x00\n      keccak256\n      sload\n        /* \"TimeAllyPET.sol\":8207:8232  prepaidES[msg.sender].add */\n      tag_130\n      swap1\n        /* \"TimeAllyPET.sol\":8207:8241  prepaidES[msg.sender].add(_amount) */\n      swap2\n      swap1\n      0xffffffff\n      and\n      jump\t// in\n    tag_162:\n        /* \"TimeAllyPET.sol\":8183:8192  prepaidES */\n      0x05\n        /* \"TimeAllyPET.sol\":8183:8204  prepaidES[msg.sender] */\n      0x00\n        /* \"TimeAllyPET.sol\":8193:8203  msg.sender */\n      caller\n        /* \"TimeAllyPET.sol\":8183:8204  prepaidES[msg.sender] */\n      0xffffffffffffffffffffffffffffffffffffffff\n      and\n      0xffffffffffffffffffffffffffffffffffffffff\n      and\n      dup2\n      mstore\n      0x20\n      add\n      swap1\n      dup2\n      mstore\n      0x20\n      add\n      0x00\n      keccak256\n        /* \"TimeAllyPET.sol\":8183:8241  prepaidES[msg.sender] = prepaidES[msg.sender].add(_amount) */\n      dup2\n      swap1\n      sstore\n      pop\n        /* \"TimeAllyPET.sol\":7973:8246  function addToPrepaid(uint256 _amount) public {... */\n      pop\n      jump\t// out\n        /* \"TimeAllyPET.sol\":9164:10131  function newPET(... */\n    tag_46:\n        /* \"TimeAllyPET.sol\":9328:9336  petPlans */\n      0x03\n        /* \"TimeAllyPET.sol\":9337:9344  _planId */\n      dup3\n        /* \"TimeAllyPET.sol\":9328:9345  petPlans[_planId] */\n      dup2\n      sload\n      dup2\n      lt\n      tag_164\n      jumpi\n      invalid\n    tag_164:\n      swap1\n      0x00\n      mstore\n      keccak256(0x00, 0x20)\n      swap1\n      0x03\n      mul\n      add\n        /* \"TimeAllyPET.sol\":9328:9358  petPlans[_planId].isPlanActive */\n      0x00\n      add\n      0x00\n      swap1\n      sload\n      swap1\n      0x0100\n      exp\n      swap1\n      div\n      0xff\n      and\n        /* \"TimeAllyPET.sol\":9313:9397  require(... */\n      tag_166\n      jumpi\n      mload(0x40)\n      0x08c379a000000000000000000000000000000000000000000000000000000000\n      dup2\n      mstore\n      0x04\n      add\n      dup1\n      dup1\n      0x20\n      add\n      dup3\n      dup2\n      sub\n      dup3\n      mstore\n      0x16\n      dup2\n      mstore\n      0x20\n      add\n      dup1\n      0x50455420706c616e206973206e6f742061637469766500000000000000000000\n      dup2\n      mstore\n      pop\n      0x20\n      add\n      swap2\n      pop\n      pop\n      mload(0x40)\n      dup1\n      swap2\n      sub\n      swap1\n      revert\n    tag_166:\n        /* \"TimeAllyPET.sol\":9589:9597  petPlans */\n      0x03\n        /* \"TimeAllyPET.sol\":9598:9605  _planId */\n      dup3\n        /* \"TimeAllyPET.sol\":9589:9606  petPlans[_planId] */\n      dup2\n      sload\n      dup2\n      lt\n      tag_167\n      jumpi\n      invalid\n    tag_167:\n      swap1\n      0x00\n      mstore\n      keccak256(0x00, 0x20)\n      swap1\n      0x03\n      mul\n      add\n        /* \"TimeAllyPET.sol\":9589:9637  petPlans[_planId].minimumMonthlyCommitmentAmount */\n      0x01\n      add\n      sload\n        /* \"TimeAllyPET.sol\":9561:9585  _monthlyCommitmentAmount */\n      dup2\n        /* \"TimeAllyPET.sol\":9561:9637  _monthlyCommitmentAmount >= petPlans[_planId].minimumMonthlyCommitmentAmount */\n      lt\n      iszero\n        /* \"TimeAllyPET.sol\":9546:9681  require(... */\n      tag_169\n      jumpi\n      mload(0x40)\n      0x08c379a000000000000000000000000000000000000000000000000000000000\n      dup2\n      mstore\n      0x04\n      add\n      dup1\n      dup1\n      0x20\n      add\n      dup3\n      dup2\n      sub\n      dup3\n      mstore\n      0x1b\n      dup2\n      mstore\n      0x20\n      add\n      dup1\n      0x6c6f77206d6f6e74686c79436f6d6d69746d656e74416d6f756e740000000000\n      dup2\n      mstore\n      pop\n      0x20\n      add\n      swap2\n      pop\n      pop\n      mload(0x40)\n      dup1\n      swap2\n      sub\n      swap1\n      revert\n    tag_169:\n        /* \"TimeAllyPET.sol\":9744:9748  pets */\n      0x04\n        /* \"TimeAllyPET.sol\":9744:9760  pets[msg.sender] */\n      0x00\n        /* \"TimeAllyPET.sol\":9749:9759  msg.sender */\n      caller\n        /* \"TimeAllyPET.sol\":9744:9760  pets[msg.sender] */\n      0xffffffffffffffffffffffffffffffffffffffff\n      and\n      0xffffffffffffffffffffffffffffffffffffffff\n      and\n      dup2\n      mstore\n      0x20\n      add\n      swap1\n      dup2\n      mstore\n      0x20\n      add\n      0x00\n      keccak256\n        /* \"TimeAllyPET.sol\":9766:9983  PET({... */\n      mload(0x40)\n      dup1\n      0xc0\n      add\n      0x40\n      mstore\n      dup1\n        /* \"TimeAllyPET.sol\":9786:9793  _planId */\n      dup5\n        /* \"TimeAllyPET.sol\":9766:9983  PET({... */\n      dup2\n      mstore\n      0x20\n      add\n        /* \"TimeAllyPET.sol\":9826:9850  _monthlyCommitmentAmount */\n      dup4\n        /* \"TimeAllyPET.sol\":9766:9983  PET({... */\n      dup2\n      mstore\n      0x20\n      add\n        /* \"TimeAllyPET.sol\":9873:9878  token */\n      0x02\n      0x00\n      swap1\n      sload\n      swap1\n      0x0100\n      exp\n      swap1\n      div\n      0xffffffffffffffffffffffffffffffffffffffff\n      and\n        /* \"TimeAllyPET.sol\":9873:9882  token.mou */\n      0xffffffffffffffffffffffffffffffffffffffff\n      and\n      0xb81f90f3\n        /* \"TimeAllyPET.sol\":9873:9884  token.mou() */\n      mload(0x40)\n      dup2\n      0xffffffff\n      and\n      0xe0\n      shl\n      dup2\n      mstore\n      0x04\n      add\n      0x20\n      mload(0x40)\n      dup1\n      dup4\n      sub\n      dup2\n      dup7\n      dup1\n      extcodesize\n      iszero\n        /* \"--CODEGEN--\":8:17   */\n      dup1\n        /* \"--CODEGEN--\":5:7   */\n      iszero\n      tag_170\n      jumpi\n        /* \"--CODEGEN--\":30:31   */\n      0x00\n        /* \"--CODEGEN--\":27:28   */\n      dup1\n        /* \"--CODEGEN--\":20:32   */\n      revert\n        /* \"--CODEGEN--\":5:7   */\n    tag_170:\n        /* \"TimeAllyPET.sol\":9873:9884  token.mou() */\n      pop\n      gas\n      staticcall\n      iszero\n        /* \"--CODEGEN--\":8:17   */\n      dup1\n        /* \"--CODEGEN--\":5:7   */\n      iszero\n      tag_172\n      jumpi\n        /* \"--CODEGEN--\":45:61   */\n      returndatasize\n        /* \"--CODEGEN--\":42:43   */\n      0x00\n        /* \"--CODEGEN--\":39:40   */\n      dup1\n        /* \"--CODEGEN--\":24:62   */\n      returndatacopy\n        /* \"--CODEGEN--\":77:93   */\n      returndatasize\n        /* \"--CODEGEN--\":74:75   */\n      0x00\n        /* \"--CODEGEN--\":67:94   */\n      revert\n        /* \"--CODEGEN--\":5:7   */\n    tag_172:\n        /* \"TimeAllyPET.sol\":9873:9884  token.mou() */\n      pop\n      pop\n      pop\n      pop\n      mload(0x40)\n      returndatasize\n        /* \"--CODEGEN--\":13:15   */\n      0x20\n        /* \"--CODEGEN--\":8:11   */\n      dup2\n        /* \"--CODEGEN--\":5:16   */\n      lt\n        /* \"--CODEGEN--\":2:4   */\n      iszero\n      tag_173\n      jumpi\n        /* \"--CODEGEN--\":29:30   */\n      0x00\n        /* \"--CODEGEN--\":26:27   */\n      dup1\n        /* \"--CODEGEN--\":19:31   */\n      revert\n        /* \"--CODEGEN--\":2:4   */\n    tag_173:\n        /* \"TimeAllyPET.sol\":9873:9884  token.mou() */\n      dup2\n      add\n      swap1\n      dup1\n      dup1\n      mload\n      swap1\n      0x20\n      add\n      swap1\n      swap3\n      swap2\n      swap1\n      pop\n      pop\n      pop\n        /* \"TimeAllyPET.sol\":9766:9983  PET({... */\n      dup2\n      mstore\n      0x20\n      add\n        /* \"TimeAllyPET.sol\":9921:9922  0 */\n      0x00\n        /* \"TimeAllyPET.sol\":9766:9983  PET({... */\n      dup2\n      mstore\n      0x20\n      add\n        /* \"TimeAllyPET.sol\":9946:9947  0 */\n      0x00\n        /* \"TimeAllyPET.sol\":9766:9983  PET({... */\n      dup2\n      mstore\n      0x20\n      add\n        /* \"TimeAllyPET.sol\":9975:9976  0 */\n      0x00\n        /* \"TimeAllyPET.sol\":9766:9983  PET({... */\n      dup2\n      mstore\n      pop\n        /* \"TimeAllyPET.sol\":9744:9984  pets[msg.sender].push(PET({... */\n      swap1\n      dup1\n        /* \"--CODEGEN--\":39:40   */\n      0x01\n        /* \"--CODEGEN--\":33:36   */\n      dup2\n        /* \"--CODEGEN--\":27:37   */\n      sload\n        /* \"--CODEGEN--\":23:41   */\n      add\n        /* \"--CODEGEN--\":57:67   */\n      dup1\n        /* \"--CODEGEN--\":52:55   */\n      dup3\n        /* \"--CODEGEN--\":45:68   */\n      sstore\n        /* \"--CODEGEN--\":79:89   */\n      dup1\n        /* \"--CODEGEN--\":72:89   */\n      swap2\n      pop\n        /* \"--CODEGEN--\":0:93   */\n      pop\n        /* \"TimeAllyPET.sol\":9744:9984  pets[msg.sender].push(PET({... */\n      0x01\n      swap1\n      sub\n      swap1\n      0x00\n      mstore\n      keccak256(0x00, 0x20)\n      swap1\n      0x0a\n      mul\n      add\n      0x00\n      swap1\n      swap2\n      swap1\n      swap2\n      swap1\n      swap2\n      pop\n      0x00\n      dup3\n      add\n      mload\n      dup2\n      0x00\n      add\n      sstore\n      0x20\n      dup3\n      add\n      mload\n      dup2\n      0x01\n      add\n      sstore\n      0x40\n      dup3\n      add\n      mload\n      dup2\n      0x02\n      add\n      sstore\n      0x60\n      dup3\n      add\n      mload\n      dup2\n      0x03\n      add\n      sstore\n      0x80\n      dup3\n      add\n      mload\n      dup2\n      0x04\n      add\n      sstore\n      0xa0\n      dup3\n      add\n      mload\n      dup2\n      0x05\n      add\n      sstore\n      pop\n      pop\n        /* \"TimeAllyPET.sol\":10043:10053  msg.sender */\n      caller\n        /* \"TimeAllyPET.sol\":10029:10126  NewPET(... */\n      0xffffffffffffffffffffffffffffffffffffffff\n      and\n      0x4459f0ae7ff9f1dfcb9443ff1a9268613580cdb8b1c0f59a4bd4384b94c99f04\n        /* \"TimeAllyPET.sol\":10087:10088  1 */\n      0x01\n        /* \"TimeAllyPET.sol\":10061:10065  pets */\n      0x04\n        /* \"TimeAllyPET.sol\":10061:10077  pets[msg.sender] */\n      0x00\n        /* \"TimeAllyPET.sol\":10066:10076  msg.sender */\n      caller\n        /* \"TimeAllyPET.sol\":10061:10077  pets[msg.sender] */\n      0xffffffffffffffffffffffffffffffffffffffff\n      and\n      0xffffffffffffffffffffffffffffffffffffffff\n      and\n      dup2\n      mstore\n      0x20\n      add\n      swap1\n      dup2\n      mstore\n      0x20\n      add\n      0x00\n      keccak256\n        /* \"TimeAllyPET.sol\":10061:10084  pets[msg.sender].length */\n      dup1\n      sload\n      swap1\n      pop\n        /* \"TimeAllyPET.sol\":10061:10088  pets[msg.sender].length - 1 */\n      sub\n        /* \"TimeAllyPET.sol\":10096:10120  _monthlyCommitmentAmount */\n      dup4\n        /* \"TimeAllyPET.sol\":10029:10126  NewPET(... */\n      mload(0x40)\n      dup1\n      dup4\n      dup2\n      mstore\n      0x20\n      add\n      dup3\n      dup2\n      mstore\n      0x20\n      add\n      swap3\n      pop\n      pop\n      pop\n      mload(0x40)\n      dup1\n      swap2\n      sub\n      swap1\n      log2\n        /* \"TimeAllyPET.sol\":9164:10131  function newPET(... */\n      pop\n      pop\n      jump\t// out\n        /* \"TimeAllyPET.sol\":24467:24671  function viewNomination(... */\n    tag_49:\n        /* \"TimeAllyPET.sol\":24593:24597  bool */\n      0x00\n        /* \"TimeAllyPET.sol\":24612:24616  pets */\n      0x04\n        /* \"TimeAllyPET.sol\":24612:24632  pets[_stakerAddress] */\n      0x00\n        /* \"TimeAllyPET.sol\":24617:24631  _stakerAddress */\n      dup6\n        /* \"TimeAllyPET.sol\":24612:24632  pets[_stakerAddress] */\n      0xffffffffffffffffffffffffffffffffffffffff\n      and\n      0xffffffffffffffffffffffffffffffffffffffff\n      and\n      dup2\n      mstore\n      0x20\n      add\n      swap1\n      dup2\n      mstore\n      0x20\n      add\n      0x00\n      keccak256\n        /* \"TimeAllyPET.sol\":24633:24639  _petId */\n      dup4\n        /* \"TimeAllyPET.sol\":24612:24640  pets[_stakerAddress][_petId] */\n      dup2\n      sload\n      dup2\n      lt\n      tag_176\n      jumpi\n      invalid\n    tag_176:\n      swap1\n      0x00\n      mstore\n      keccak256(0x00, 0x20)\n      swap1\n      0x0a\n      mul\n      add\n        /* \"TimeAllyPET.sol\":24612:24649  pets[_stakerAddress][_petId].nominees */\n      0x08\n      add\n        /* \"TimeAllyPET.sol\":24612:24666  pets[_stakerAddress][_petId].nominees[_nomineeAddress] */\n      0x00\n        /* \"TimeAllyPET.sol\":24650:24665  _nomineeAddress */\n      dup4\n        /* \"TimeAllyPET.sol\":24612:24666  pets[_stakerAddress][_petId].nominees[_nomineeAddress] */\n      0xffffffffffffffffffffffffffffffffffffffff\n      and\n      0xffffffffffffffffffffffffffffffffffffffff\n      and\n      dup2\n      mstore\n      0x20\n      add\n      swap1\n      dup2\n      mstore\n      0x20\n      add\n      0x00\n      keccak256\n      0x00\n      swap1\n      sload\n      swap1\n      0x0100\n      exp\n      swap1\n      div\n      0xff\n      and\n        /* \"TimeAllyPET.sol\":24605:24666  return pets[_stakerAddress][_petId].nominees[_nomineeAddress] */\n      swap1\n      pop\n        /* \"TimeAllyPET.sol\":24467:24671  function viewNomination(... */\n      swap4\n      swap3\n      pop\n      pop\n      pop\n      jump\t// out\n        /* \"TimeAllyPET.sol\":20422:22233  function withdrawAnnuity(... */\n    tag_52:\n        /* \"TimeAllyPET.sol\":20550:20564  _stakerAddress */\n      dup3\n        /* \"TimeAllyPET.sol\":20566:20572  _petId */\n      dup3\n        /* \"TimeAllyPET.sol\":7267:7283  PET storage _pet */\n      0x00\n        /* \"TimeAllyPET.sol\":7286:7290  pets */\n      0x04\n        /* \"TimeAllyPET.sol\":7286:7306  pets[_stakerAddress] */\n      0x00\n        /* \"TimeAllyPET.sol\":7291:7305  _stakerAddress */\n      dup5\n        /* \"TimeAllyPET.sol\":7286:7306  pets[_stakerAddress] */\n      0xffffffffffffffffffffffffffffffffffffffff\n      and\n      0xffffffffffffffffffffffffffffffffffffffff\n      and\n      dup2\n      mstore\n      0x20\n      add\n      swap1\n      dup2\n      mstore\n      0x20\n      add\n      0x00\n      keccak256\n        /* \"TimeAllyPET.sol\":7307:7313  _petId */\n      dup3\n        /* \"TimeAllyPET.sol\":7286:7314  pets[_stakerAddress][_petId] */\n      dup2\n      sload\n      dup2\n      lt\n      tag_179\n      jumpi\n      invalid\n    tag_179:\n      swap1\n      0x00\n      mstore\n      keccak256(0x00, 0x20)\n      swap1\n      0x0a\n      mul\n      add\n        /* \"TimeAllyPET.sol\":7267:7314  PET storage _pet = pets[_stakerAddress][_petId] */\n      swap1\n      pop\n        /* \"TimeAllyPET.sol\":7417:7431  _stakerAddress */\n      dup3\n        /* \"TimeAllyPET.sol\":7403:7431  msg.sender != _stakerAddress */\n      0xffffffffffffffffffffffffffffffffffffffff\n      and\n        /* \"TimeAllyPET.sol\":7403:7413  msg.sender */\n      caller\n        /* \"TimeAllyPET.sol\":7403:7431  msg.sender != _stakerAddress */\n      0xffffffffffffffffffffffffffffffffffffffff\n      and\n      eq\n        /* \"TimeAllyPET.sol\":7400:7512  if(msg.sender != _stakerAddress) {... */\n      tag_181\n      jumpi\n        /* \"TimeAllyPET.sol\":7449:7453  _pet */\n      dup1\n        /* \"TimeAllyPET.sol\":7449:7462  _pet.nominees */\n      0x08\n      add\n        /* \"TimeAllyPET.sol\":7449:7474  _pet.nominees[msg.sender] */\n      0x00\n        /* \"TimeAllyPET.sol\":7463:7473  msg.sender */\n      caller\n        /* \"TimeAllyPET.sol\":7449:7474  _pet.nominees[msg.sender] */\n      0xffffffffffffffffffffffffffffffffffffffff\n      and\n      0xffffffffffffffffffffffffffffffffffffffff\n      and\n      dup2\n      mstore\n      0x20\n      add\n      swap1\n      dup2\n      mstore\n      0x20\n      add\n      0x00\n      keccak256\n      0x00\n      swap1\n      sload\n      swap1\n      0x0100\n      exp\n      swap1\n      div\n      0xff\n      and\n        /* \"TimeAllyPET.sol\":7441:7505  require(_pet.nominees[msg.sender], 'nomination should be there') */\n      tag_182\n      jumpi\n      mload(0x40)\n      0x08c379a000000000000000000000000000000000000000000000000000000000\n      dup2\n      mstore\n      0x04\n      add\n      dup1\n      dup1\n      0x20\n      add\n      dup3\n      dup2\n      sub\n      dup3\n      mstore\n      0x1a\n      dup2\n      mstore\n      0x20\n      add\n      dup1\n      0x6e6f6d696e6174696f6e2073686f756c64206265207468657265000000000000\n      dup2\n      mstore\n      pop\n      0x20\n      add\n      swap2\n      pop\n      pop\n      mload(0x40)\n      dup1\n      swap2\n      sub\n      swap1\n      revert\n    tag_182:\n        /* \"TimeAllyPET.sol\":7400:7512  if(msg.sender != _stakerAddress) {... */\n    tag_181:\n        /* \"TimeAllyPET.sol\":20580:20596  PET storage _pet */\n      0x00\n        /* \"TimeAllyPET.sol\":20599:20603  pets */\n      0x04\n        /* \"TimeAllyPET.sol\":20599:20619  pets[_stakerAddress] */\n      0x00\n        /* \"TimeAllyPET.sol\":20604:20618  _stakerAddress */\n      dup9\n        /* \"TimeAllyPET.sol\":20599:20619  pets[_stakerAddress] */\n      0xffffffffffffffffffffffffffffffffffffffff\n      and\n      0xffffffffffffffffffffffffffffffffffffffff\n      and\n      dup2\n      mstore\n      0x20\n      add\n      swap1\n      dup2\n      mstore\n      0x20\n      add\n      0x00\n      keccak256\n        /* \"TimeAllyPET.sol\":20620:20626  _petId */\n      dup7\n        /* \"TimeAllyPET.sol\":20599:20627  pets[_stakerAddress][_petId] */\n      dup2\n      sload\n      dup2\n      lt\n      tag_184\n      jumpi\n      invalid\n    tag_184:\n      swap1\n      0x00\n      mstore\n      keccak256(0x00, 0x20)\n      swap1\n      0x0a\n      mul\n      add\n        /* \"TimeAllyPET.sol\":20580:20627  PET storage _pet = pets[_stakerAddress][_petId] */\n      swap1\n      pop\n        /* \"TimeAllyPET.sol\":20633:20669  uint256 _lastAnnuityWithdrawlMonthId */\n      0x00\n        /* \"TimeAllyPET.sol\":20672:20676  _pet */\n      dup2\n        /* \"TimeAllyPET.sol\":20672:20704  _pet.lastAnnuityWithdrawlMonthId */\n      0x03\n      add\n      sload\n        /* \"TimeAllyPET.sol\":20633:20704  uint256 _lastAnnuityWithdrawlMonthId = _pet.lastAnnuityWithdrawlMonthId */\n      swap1\n      pop\n        /* \"TimeAllyPET.sol\":20804:20822  _endAnnuityMonthId */\n      dup6\n        /* \"TimeAllyPET.sol\":20773:20801  _lastAnnuityWithdrawlMonthId */\n      dup2\n        /* \"TimeAllyPET.sol\":20773:20822  _lastAnnuityWithdrawlMonthId < _endAnnuityMonthId */\n      lt\n        /* \"TimeAllyPET.sol\":20758:20865  require(... */\n      tag_186\n      jumpi\n      mload(0x40)\n      0x08c379a000000000000000000000000000000000000000000000000000000000\n      dup2\n      mstore\n      0x04\n      add\n      dup1\n      dup1\n      0x20\n      add\n      dup3\n      dup2\n      sub\n      dup3\n      mstore\n      0x1a\n      dup2\n      mstore\n      0x20\n      add\n      dup1\n      0x73746172742073686f756c64206265206265666f726520656e64000000000000\n      dup2\n      mstore\n      pop\n      0x20\n      add\n      swap2\n      pop\n      pop\n      mload(0x40)\n      dup1\n      swap2\n      sub\n      swap1\n      revert\n    tag_186:\n        /* \"TimeAllyPET.sol\":20954:20956  60 */\n      0x3c\n        /* \"TimeAllyPET.sol\":20932:20950  _endAnnuityMonthId */\n      dup7\n        /* \"TimeAllyPET.sol\":20932:20956  _endAnnuityMonthId <= 60 */\n      gt\n      iszero\n        /* \"TimeAllyPET.sol\":20917:20999  require(... */\n      tag_187\n      jumpi\n      mload(0x40)\n      0x08c379a000000000000000000000000000000000000000000000000000000000\n      dup2\n      mstore\n      0x04\n      add\n      dup1\n      dup1\n      0x20\n      add\n      dup3\n      dup2\n      sub\n      dup3\n      mstore\n      0x1a\n      dup2\n      mstore\n      0x20\n      add\n      dup1\n      0x6f6e6c7920363020416e6e756974792077697468647261776c73000000000000\n      dup2\n      mstore\n      pop\n      0x20\n      add\n      swap2\n      pop\n      pop\n      mload(0x40)\n      dup1\n      swap2\n      sub\n      swap1\n      revert\n    tag_187:\n        /* \"TimeAllyPET.sol\":21052:21077  uint256 _allowedTimestamp */\n      0x00\n        /* \"TimeAllyPET.sol\":21080:21174  getNomineeAllowedTimestamp(... */\n      tag_188\n        /* \"TimeAllyPET.sol\":21114:21128  _stakerAddress */\n      dup10\n        /* \"TimeAllyPET.sol\":21136:21142  _petId */\n      dup10\n        /* \"TimeAllyPET.sol\":21150:21168  _endAnnuityMonthId */\n      dup10\n        /* \"TimeAllyPET.sol\":21080:21106  getNomineeAllowedTimestamp */\n      tag_72\n        /* \"TimeAllyPET.sol\":21080:21174  getNomineeAllowedTimestamp(... */\n      jump\t// in\n    tag_188:\n        /* \"TimeAllyPET.sol\":21052:21174  uint256 _allowedTimestamp = getNomineeAllowedTimestamp(... */\n      swap1\n      pop\n        /* \"TimeAllyPET.sol\":21277:21294  _allowedTimestamp */\n      dup1\n        /* \"TimeAllyPET.sol\":21262:21267  token */\n      0x02\n      0x00\n      swap1\n      sload\n      swap1\n      0x0100\n      exp\n      swap1\n      div\n      0xffffffffffffffffffffffffffffffffffffffff\n      and\n        /* \"TimeAllyPET.sol\":21262:21271  token.mou */\n      0xffffffffffffffffffffffffffffffffffffffff\n      and\n      0xb81f90f3\n        /* \"TimeAllyPET.sol\":21262:21273  token.mou() */\n      mload(0x40)\n      dup2\n      0xffffffff\n      and\n      0xe0\n      shl\n      dup2\n      mstore\n      0x04\n      add\n      0x20\n      mload(0x40)\n      dup1\n      dup4\n      sub\n      dup2\n      dup7\n      dup1\n      extcodesize\n      iszero\n        /* \"--CODEGEN--\":8:17   */\n      dup1\n        /* \"--CODEGEN--\":5:7   */\n      iszero\n      tag_189\n      jumpi\n        /* \"--CODEGEN--\":30:31   */\n      0x00\n        /* \"--CODEGEN--\":27:28   */\n      dup1\n        /* \"--CODEGEN--\":20:32   */\n      revert\n        /* \"--CODEGEN--\":5:7   */\n    tag_189:\n        /* \"TimeAllyPET.sol\":21262:21273  token.mou() */\n      pop\n      gas\n      staticcall\n      iszero\n        /* \"--CODEGEN--\":8:17   */\n      dup1\n        /* \"--CODEGEN--\":5:7   */\n      iszero\n      tag_191\n      jumpi\n        /* \"--CODEGEN--\":45:61   */\n      returndatasize\n        /* \"--CODEGEN--\":42:43   */\n      0x00\n        /* \"--CODEGEN--\":39:40   */\n      dup1\n        /* \"--CODEGEN--\":24:62   */\n      returndatacopy\n        /* \"--CODEGEN--\":77:93   */\n      returndatasize\n        /* \"--CODEGEN--\":74:75   */\n      0x00\n        /* \"--CODEGEN--\":67:94   */\n      revert\n        /* \"--CODEGEN--\":5:7   */\n    tag_191:\n        /* \"TimeAllyPET.sol\":21262:21273  token.mou() */\n      pop\n      pop\n      pop\n      pop\n      mload(0x40)\n      returndatasize\n        /* \"--CODEGEN--\":13:15   */\n      0x20\n        /* \"--CODEGEN--\":8:11   */\n      dup2\n        /* \"--CODEGEN--\":5:16   */\n      lt\n        /* \"--CODEGEN--\":2:4   */\n      iszero\n      tag_192\n      jumpi\n        /* \"--CODEGEN--\":29:30   */\n      0x00\n        /* \"--CODEGEN--\":26:27   */\n      dup1\n        /* \"--CODEGEN--\":19:31   */\n      revert\n        /* \"--CODEGEN--\":2:4   */\n    tag_192:\n        /* \"TimeAllyPET.sol\":21262:21273  token.mou() */\n      dup2\n      add\n      swap1\n      dup1\n      dup1\n      mload\n      swap1\n      0x20\n      add\n      swap1\n      swap3\n      swap2\n      swap1\n      pop\n      pop\n      pop\n        /* \"TimeAllyPET.sol\":21262:21294  token.mou() >= _allowedTimestamp */\n      lt\n      iszero\n        /* \"TimeAllyPET.sol\":21247:21332  require(... */\n      tag_193\n      jumpi\n      mload(0x40)\n      0x08c379a000000000000000000000000000000000000000000000000000000000\n      dup2\n      mstore\n      0x04\n      add\n      dup1\n      dup1\n      0x20\n      add\n      dup3\n      dup2\n      sub\n      dup3\n      mstore\n      0x15\n      dup2\n      mstore\n      0x20\n      add\n      dup1\n      0x63616e6e6f74207769746864726177206561726c790000000000000000000000\n      dup2\n      mstore\n      pop\n      0x20\n      add\n      swap2\n      pop\n      pop\n      mload(0x40)\n      dup1\n      swap2\n      sub\n      swap1\n      revert\n    tag_193:\n        /* \"TimeAllyPET.sol\":21396:21419  uint256 _annuityBenefit */\n      0x00\n        /* \"TimeAllyPET.sol\":21422:21550  getSumOfMonthlyAnnuity(... */\n      tag_194\n        /* \"TimeAllyPET.sol\":21452:21466  _stakerAddress */\n      dup11\n        /* \"TimeAllyPET.sol\":21474:21480  _petId */\n      dup11\n        /* \"TimeAllyPET.sol\":21517:21518  1 */\n      0x01\n        /* \"TimeAllyPET.sol\":21488:21516  _lastAnnuityWithdrawlMonthId */\n      dup7\n        /* \"TimeAllyPET.sol\":21488:21518  _lastAnnuityWithdrawlMonthId+1 */\n      add\n        /* \"TimeAllyPET.sol\":21526:21544  _endAnnuityMonthId */\n      dup12\n        /* \"TimeAllyPET.sol\":21422:21444  getSumOfMonthlyAnnuity */\n      tag_69\n        /* \"TimeAllyPET.sol\":21422:21550  getSumOfMonthlyAnnuity(... */\n      jump\t// in\n    tag_194:\n        /* \"TimeAllyPET.sol\":21396:21550  uint256 _annuityBenefit = getSumOfMonthlyAnnuity(... */\n      swap1\n      pop\n        /* \"TimeAllyPET.sol\":21638:21656  _endAnnuityMonthId */\n      dup8\n        /* \"TimeAllyPET.sol\":21603:21607  _pet */\n      dup5\n        /* \"TimeAllyPET.sol\":21603:21635  _pet.lastAnnuityWithdrawlMonthId */\n      0x03\n      add\n        /* \"TimeAllyPET.sol\":21603:21656  _pet.lastAnnuityWithdrawlMonthId = _endAnnuityMonthId */\n      dup2\n      swap1\n      sstore\n      pop\n        /* \"TimeAllyPET.sol\":21784:21785  0 */\n      0x00\n        /* \"TimeAllyPET.sol\":21752:21780  _lastAnnuityWithdrawlMonthId */\n      dup4\n        /* \"TimeAllyPET.sol\":21752:21785  _lastAnnuityWithdrawlMonthId == 0 */\n      eq\n        /* \"TimeAllyPET.sol\":21749:21858  if(_lastAnnuityWithdrawlMonthId == 0) {... */\n      iszero\n      tag_195\n      jumpi\n        /* \"TimeAllyPET.sol\":21795:21851  _burnPenalisedPowerBoosterTokens(_stakerAddress, _petId) */\n      tag_196\n        /* \"TimeAllyPET.sol\":21828:21842  _stakerAddress */\n      dup11\n        /* \"TimeAllyPET.sol\":21844:21850  _petId */\n      dup11\n        /* \"TimeAllyPET.sol\":21795:21827  _burnPenalisedPowerBoosterTokens */\n      tag_197\n        /* \"TimeAllyPET.sol\":21795:21851  _burnPenalisedPowerBoosterTokens(_stakerAddress, _petId) */\n      jump\t// in\n    tag_196:\n        /* \"TimeAllyPET.sol\":21749:21858  if(_lastAnnuityWithdrawlMonthId == 0) {... */\n    tag_195:\n        /* \"TimeAllyPET.sol\":21960:21961  0 */\n      0x00\n        /* \"TimeAllyPET.sol\":21941:21956  _annuityBenefit */\n      dup2\n        /* \"TimeAllyPET.sol\":21941:21961  _annuityBenefit != 0 */\n      eq\n        /* \"TimeAllyPET.sol\":21938:22021  if(_annuityBenefit != 0) {... */\n      tag_198\n      jumpi\n        /* \"TimeAllyPET.sol\":21971:21976  token */\n      0x02\n      0x00\n      swap1\n      sload\n      swap1\n      0x0100\n      exp\n      swap1\n      div\n      0xffffffffffffffffffffffffffffffffffffffff\n      and\n        /* \"TimeAllyPET.sol\":21971:21985  token.transfer */\n      0xffffffffffffffffffffffffffffffffffffffff\n      and\n      0xa9059cbb\n        /* \"TimeAllyPET.sol\":21986:21996  msg.sender */\n      caller\n        /* \"TimeAllyPET.sol\":21998:22013  _annuityBenefit */\n      dup4\n        /* \"TimeAllyPET.sol\":21971:22014  token.transfer(msg.sender, _annuityBenefit) */\n      mload(0x40)\n      dup4\n      0xffffffff\n      and\n      0xe0\n      shl\n      dup2\n      mstore\n      0x04\n      add\n      dup1\n      dup4\n      0xffffffffffffffffffffffffffffffffffffffff\n      and\n      0xffffffffffffffffffffffffffffffffffffffff\n      and\n      dup2\n      mstore\n      0x20\n      add\n      dup3\n      dup2\n      mstore\n      0x20\n      add\n      swap3\n      pop\n      pop\n      pop\n      0x20\n      mload(0x40)\n      dup1\n      dup4\n      sub\n      dup2\n      0x00\n      dup8\n      dup1\n      extcodesize\n      iszero\n        /* \"--CODEGEN--\":8:17   */\n      dup1\n        /* \"--CODEGEN--\":5:7   */\n      iszero\n      tag_199\n      jumpi\n        /* \"--CODEGEN--\":30:31   */\n      0x00\n        /* \"--CODEGEN--\":27:28   */\n      dup1\n        /* \"--CODEGEN--\":20:32   */\n      revert\n        /* \"--CODEGEN--\":5:7   */\n    tag_199:\n        /* \"TimeAllyPET.sol\":21971:22014  token.transfer(msg.sender, _annuityBenefit) */\n      pop\n      gas\n      call\n      iszero\n        /* \"--CODEGEN--\":8:17   */\n      dup1\n        /* \"--CODEGEN--\":5:7   */\n      iszero\n      tag_201\n      jumpi\n        /* \"--CODEGEN--\":45:61   */\n      returndatasize\n        /* \"--CODEGEN--\":42:43   */\n      0x00\n        /* \"--CODEGEN--\":39:40   */\n      dup1\n        /* \"--CODEGEN--\":24:62   */\n      returndatacopy\n        /* \"--CODEGEN--\":77:93   */\n      returndatasize\n        /* \"--CODEGEN--\":74:75   */\n      0x00\n        /* \"--CODEGEN--\":67:94   */\n      revert\n        /* \"--CODEGEN--\":5:7   */\n    tag_201:\n        /* \"TimeAllyPET.sol\":21971:22014  token.transfer(msg.sender, _annuityBenefit) */\n      pop\n      pop\n      pop\n      pop\n      mload(0x40)\n      returndatasize\n        /* \"--CODEGEN--\":13:15   */\n      0x20\n        /* \"--CODEGEN--\":8:11   */\n      dup2\n        /* \"--CODEGEN--\":5:16   */\n      lt\n        /* \"--CODEGEN--\":2:4   */\n      iszero\n      tag_202\n      jumpi\n        /* \"--CODEGEN--\":29:30   */\n      0x00\n        /* \"--CODEGEN--\":26:27   */\n      dup1\n        /* \"--CODEGEN--\":19:31   */\n      revert\n        /* \"--CODEGEN--\":2:4   */\n    tag_202:\n        /* \"TimeAllyPET.sol\":21971:22014  token.transfer(msg.sender, _annuityBenefit) */\n      dup2\n      add\n      swap1\n      dup1\n      dup1\n      mload\n      swap1\n      0x20\n      add\n      swap1\n      swap3\n      swap2\n      swap1\n      pop\n      pop\n      pop\n      pop\n        /* \"TimeAllyPET.sol\":21938:22021  if(_annuityBenefit != 0) {... */\n    tag_198:\n        /* \"TimeAllyPET.sol\":22111:22117  _petId */\n      dup9\n        /* \"TimeAllyPET.sol\":22089:22103  _stakerAddress */\n      dup11\n        /* \"TimeAllyPET.sol\":22065:22228  AnnuityWithdrawl(... */\n      0xffffffffffffffffffffffffffffffffffffffff\n      and\n      0xd662ea67c34eb456a3277bea947873f932447f3f58faa13b41f4ca3defd32c3a\n        /* \"TimeAllyPET.sol\":22154:22155  1 */\n      0x01\n        /* \"TimeAllyPET.sol\":22125:22153  _lastAnnuityWithdrawlMonthId */\n      dup7\n        /* \"TimeAllyPET.sol\":22125:22155  _lastAnnuityWithdrawlMonthId+1 */\n      add\n        /* \"TimeAllyPET.sol\":22163:22181  _endAnnuityMonthId */\n      dup12\n        /* \"TimeAllyPET.sol\":22189:22204  _annuityBenefit */\n      dup6\n        /* \"TimeAllyPET.sol\":22212:22222  msg.sender */\n      caller\n        /* \"TimeAllyPET.sol\":22065:22228  AnnuityWithdrawl(... */\n      mload(0x40)\n      dup1\n      dup6\n      dup2\n      mstore\n      0x20\n      add\n      dup5\n      dup2\n      mstore\n      0x20\n      add\n      dup4\n      dup2\n      mstore\n      0x20\n      add\n      dup3\n      0xffffffffffffffffffffffffffffffffffffffff\n      and\n      0xffffffffffffffffffffffffffffffffffffffff\n      and\n      dup2\n      mstore\n      0x20\n      add\n      swap5\n      pop\n      pop\n      pop\n      pop\n      pop\n      mload(0x40)\n      dup1\n      swap2\n      sub\n      swap1\n      log3\n        /* \"TimeAllyPET.sol\":7517:7518  _ */\n      pop\n      pop\n      pop\n      pop\n        /* \"TimeAllyPET.sol\":20422:22233  function withdrawAnnuity(... */\n      pop\n      pop\n      pop\n      pop\n      pop\n      pop\n      jump\t// out\n        /* \"TimeAllyPET.sol\":17419:20146  function makeLumSumDeposit(... */\n    tag_55:\n        /* \"TimeAllyPET.sol\":17668:17669  0 */\n      0x00\n        /* \"TimeAllyPET.sol\":17646:17665  _totalDepositAmount */\n      dup4\n        /* \"TimeAllyPET.sol\":17646:17669  _totalDepositAmount > 0 */\n      gt\n        /* \"TimeAllyPET.sol\":17638:17707  require(_totalDepositAmount > 0, 'deposit amount should be non zero') */\n      tag_204\n      jumpi\n      mload(0x40)\n      0x08c379a000000000000000000000000000000000000000000000000000000000\n      dup2\n      mstore\n      0x04\n      add\n      dup1\n      dup1\n      0x20\n      add\n      dup3\n      dup2\n      sub\n      dup3\n      mstore\n      0x21\n      dup2\n      mstore\n      0x20\n      add\n      dup1\n      data_a66804336ef880d43d3664593cfd2886bc0d5e09a9e6d1574f39fab0c9f3fb85\n      0x21\n      swap2\n      codecopy\n      0x40\n      add\n      swap2\n      pop\n      pop\n      mload(0x40)\n      dup1\n      swap2\n      sub\n      swap1\n      revert\n    tag_204:\n        /* \"TimeAllyPET.sol\":17764:17780  PET storage _pet */\n      0x00\n        /* \"TimeAllyPET.sol\":17783:17787  pets */\n      0x04\n        /* \"TimeAllyPET.sol\":17783:17803  pets[_stakerAddress] */\n      0x00\n        /* \"TimeAllyPET.sol\":17788:17802  _stakerAddress */\n      dup8\n        /* \"TimeAllyPET.sol\":17783:17803  pets[_stakerAddress] */\n      0xffffffffffffffffffffffffffffffffffffffff\n      and\n      0xffffffffffffffffffffffffffffffffffffffff\n      and\n      dup2\n      mstore\n      0x20\n      add\n      swap1\n      dup2\n      mstore\n      0x20\n      add\n      0x00\n      keccak256\n        /* \"TimeAllyPET.sol\":17804:17810  _petId */\n      dup6\n        /* \"TimeAllyPET.sol\":17783:17811  pets[_stakerAddress][_petId] */\n      dup2\n      sload\n      dup2\n      lt\n      tag_205\n      jumpi\n      invalid\n    tag_205:\n      swap1\n      0x00\n      mstore\n      keccak256(0x00, 0x20)\n      swap1\n      0x0a\n      mul\n      add\n        /* \"TimeAllyPET.sol\":17764:17811  PET storage _pet = pets[_stakerAddress][_petId] */\n      swap1\n      pop\n        /* \"TimeAllyPET.sol\":17896:17917  uint256 _depositMonth */\n      0x00\n        /* \"TimeAllyPET.sol\":17920:17959  getDepositMonth(_stakerAddress, _petId) */\n      tag_207\n        /* \"TimeAllyPET.sol\":17936:17950  _stakerAddress */\n      dup8\n        /* \"TimeAllyPET.sol\":17952:17958  _petId */\n      dup8\n        /* \"TimeAllyPET.sol\":17920:17935  getDepositMonth */\n      tag_40\n        /* \"TimeAllyPET.sol\":17920:17959  getDepositMonth(_stakerAddress, _petId) */\n      jump\t// in\n    tag_207:\n        /* \"TimeAllyPET.sol\":17896:17959  uint256 _depositMonth = getDepositMonth(_stakerAddress, _petId) */\n      swap1\n      pop\n        /* \"TimeAllyPET.sol\":18033:18051  uint256 _uptoMonth */\n      0x00\n        /* \"TimeAllyPET.sol\":18054:18094  _depositMonth.add(_frequencyMode).sub(1) */\n      tag_208\n        /* \"TimeAllyPET.sol\":18092:18093  1 */\n      0x01\n        /* \"TimeAllyPET.sol\":18054:18087  _depositMonth.add(_frequencyMode) */\n      tag_209\n        /* \"TimeAllyPET.sol\":18072:18086  _frequencyMode */\n      dup8\n        /* \"TimeAllyPET.sol\":18054:18067  _depositMonth */\n      dup6\n        /* \"TimeAllyPET.sol\":18054:18071  _depositMonth.add */\n      tag_130\n      swap1\n        /* \"TimeAllyPET.sol\":18054:18087  _depositMonth.add(_frequencyMode) */\n      swap2\n      swap1\n      0xffffffff\n      and\n      jump\t// in\n    tag_209:\n        /* \"TimeAllyPET.sol\":18054:18091  _depositMonth.add(_frequencyMode).sub */\n      tag_123\n      swap1\n        /* \"TimeAllyPET.sol\":18054:18094  _depositMonth.add(_frequencyMode).sub(1) */\n      swap2\n      swap1\n      0xffffffff\n      and\n      jump\t// in\n    tag_208:\n        /* \"TimeAllyPET.sol\":18033:18094  uint256 _uptoMonth = _depositMonth.add(_frequencyMode).sub(1) */\n      swap1\n      pop\n        /* \"TimeAllyPET.sol\":18122:18124  12 */\n      0x0c\n        /* \"TimeAllyPET.sol\":18108:18118  _uptoMonth */\n      dup2\n        /* \"TimeAllyPET.sol\":18108:18124  _uptoMonth <= 12 */\n      gt\n      iszero\n        /* \"TimeAllyPET.sol\":18100:18169  require(_uptoMonth <= 12, 'cannot deposit after accumulation period') */\n      tag_210\n      jumpi\n      mload(0x40)\n      0x08c379a000000000000000000000000000000000000000000000000000000000\n      dup2\n      mstore\n      0x04\n      add\n      dup1\n      dup1\n      0x20\n      add\n      dup3\n      dup2\n      sub\n      dup3\n      mstore\n      0x28\n      dup2\n      mstore\n      0x20\n      add\n      dup1\n      data_a4c16ca7a8e973f42facadda9d5acf990ce1247b83cdb47d69fe2dcd504c7f2f\n      0x28\n      swap2\n      codecopy\n      0x40\n      add\n      swap2\n      pop\n      pop\n      mload(0x40)\n      dup1\n      swap2\n      sub\n      swap1\n      revert\n    tag_210:\n        /* \"TimeAllyPET.sol\":18268:18269  0 */\n      0x00\n        /* \"TimeAllyPET.sol\":18224:18228  _pet */\n      dup4\n        /* \"TimeAllyPET.sol\":18224:18249  _pet.monthlyDepositAmount */\n      0x06\n      add\n        /* \"TimeAllyPET.sol\":18224:18264  _pet.monthlyDepositAmount[_depositMonth] */\n      0x00\n        /* \"TimeAllyPET.sol\":18250:18263  _depositMonth */\n      dup5\n        /* \"TimeAllyPET.sol\":18224:18264  _pet.monthlyDepositAmount[_depositMonth] */\n      dup2\n      mstore\n      0x20\n      add\n      swap1\n      dup2\n      mstore\n      0x20\n      add\n      0x00\n      keccak256\n      sload\n        /* \"TimeAllyPET.sol\":18224:18269  _pet.monthlyDepositAmount[_depositMonth] == 0 */\n      eq\n        /* \"TimeAllyPET.sol\":18216:18309  require(_pet.monthlyDepositAmount[_depositMonth] == 0, 'allowed only in fresh month deposit') */\n      tag_211\n      jumpi\n      mload(0x40)\n      0x08c379a000000000000000000000000000000000000000000000000000000000\n      dup2\n      mstore\n      0x04\n      add\n      dup1\n      dup1\n      0x20\n      add\n      dup3\n      dup2\n      sub\n      dup3\n      mstore\n      0x23\n      dup2\n      mstore\n      0x20\n      add\n      dup1\n      data_18b306be375032d2ffcbec7f4558490d51c050668b948e1ca8484a1aef46ff9e\n      0x23\n      swap2\n      codecopy\n      0x40\n      add\n      swap2\n      pop\n      pop\n      mload(0x40)\n      dup1\n      swap2\n      sub\n      swap1\n      revert\n    tag_211:\n        /* \"TimeAllyPET.sol\":18316:18329  uint256 _fees */\n      0x00\n        /* \"TimeAllyPET.sol\":18422:18423  3 */\n      0x03\n        /* \"TimeAllyPET.sol\":18404:18418  _frequencyMode */\n      dup7\n        /* \"TimeAllyPET.sol\":18404:18423  _frequencyMode == 3 */\n      eq\n        /* \"TimeAllyPET.sol\":18401:18594  if(_frequencyMode == 3) _fees = 30 ether;... */\n      iszero\n      tag_212\n      jumpi\n        /* \"TimeAllyPET.sol\":18433:18441  30 ether */\n      0x01a055690d9db80000\n        /* \"TimeAllyPET.sol\":18425:18441  _fees = 30 ether */\n      swap1\n      pop\n        /* \"TimeAllyPET.sol\":18401:18594  if(_frequencyMode == 3) _fees = 30 ether;... */\n      jump(tag_213)\n    tag_212:\n        /* \"TimeAllyPET.sol\":18473:18474  6 */\n      0x06\n        /* \"TimeAllyPET.sol\":18455:18469  _frequencyMode */\n      dup7\n        /* \"TimeAllyPET.sol\":18455:18474  _frequencyMode == 6 */\n      eq\n        /* \"TimeAllyPET.sol\":18452:18594  if(_frequencyMode == 6) _fees = 40 ether;... */\n      iszero\n      tag_214\n      jumpi\n        /* \"TimeAllyPET.sol\":18484:18492  40 ether */\n      0x022b1c8c1227a00000\n        /* \"TimeAllyPET.sol\":18476:18492  _fees = 40 ether */\n      swap1\n      pop\n        /* \"TimeAllyPET.sol\":18452:18594  if(_frequencyMode == 6) _fees = 40 ether;... */\n      jump(tag_215)\n    tag_214:\n        /* \"TimeAllyPET.sol\":18524:18526  12 */\n      0x0c\n        /* \"TimeAllyPET.sol\":18506:18520  _frequencyMode */\n      dup7\n        /* \"TimeAllyPET.sol\":18506:18526  _frequencyMode == 12 */\n      eq\n        /* \"TimeAllyPET.sol\":18503:18594  if(_frequencyMode == 12) _fees = 50 ether;... */\n      iszero\n      tag_216\n      jumpi\n        /* \"TimeAllyPET.sol\":18536:18544  50 ether */\n      0x02b5e3af16b1880000\n        /* \"TimeAllyPET.sol\":18528:18544  _fees = 50 ether */\n      swap1\n      pop\n        /* \"TimeAllyPET.sol\":18503:18594  if(_frequencyMode == 12) _fees = 50 ether;... */\n      jump(tag_217)\n    tag_216:\n        /* \"TimeAllyPET.sol\":18563:18568  false */\n      0x00\n        /* \"TimeAllyPET.sol\":18555:18594  require(false, 'unsupported frequency') */\n      tag_218\n      jumpi\n      mload(0x40)\n      0x08c379a000000000000000000000000000000000000000000000000000000000\n      dup2\n      mstore\n      0x04\n      add\n      dup1\n      dup1\n      0x20\n      add\n      dup3\n      dup2\n      sub\n      dup3\n      mstore\n      0x15\n      dup2\n      mstore\n      0x20\n      add\n      dup1\n      0x756e737570706f72746564206672657175656e63790000000000000000000000\n      dup2\n      mstore\n      pop\n      0x20\n      add\n      swap2\n      pop\n      pop\n      mload(0x40)\n      dup1\n      swap2\n      sub\n      swap1\n      revert\n    tag_218:\n        /* \"TimeAllyPET.sol\":18503:18594  if(_frequencyMode == 12) _fees = 50 ether;... */\n    tag_217:\n        /* \"TimeAllyPET.sol\":18452:18594  if(_frequencyMode == 6) _fees = 40 ether;... */\n    tag_215:\n        /* \"TimeAllyPET.sol\":18401:18594  if(_frequencyMode == 3) _fees = 30 ether;... */\n    tag_213:\n        /* \"TimeAllyPET.sol\":18650:18679  uint256 _monthlyDepositAmount */\n      0x00\n        /* \"TimeAllyPET.sol\":18682:18721  _totalDepositAmount.div(_frequencyMode) */\n      tag_219\n        /* \"TimeAllyPET.sol\":18706:18720  _frequencyMode */\n      dup8\n        /* \"TimeAllyPET.sol\":18682:18701  _totalDepositAmount */\n      dup10\n        /* \"TimeAllyPET.sol\":18682:18705  _totalDepositAmount.div */\n      tag_135\n      swap1\n        /* \"TimeAllyPET.sol\":18682:18721  _totalDepositAmount.div(_frequencyMode) */\n      swap2\n      swap1\n      0xffffffff\n      and\n      jump\t// in\n    tag_219:\n        /* \"TimeAllyPET.sol\":18650:18721  uint256 _monthlyDepositAmount = _totalDepositAmount.div(_frequencyMode) */\n      swap1\n      pop\n        /* \"TimeAllyPET.sol\":18846:18850  _pet */\n      dup5\n        /* \"TimeAllyPET.sol\":18846:18874  _pet.monthlyCommitmentAmount */\n      0x01\n      add\n      sload\n        /* \"TimeAllyPET.sol\":18821:18842  _monthlyDepositAmount */\n      dup2\n        /* \"TimeAllyPET.sol\":18821:18874  _monthlyDepositAmount >= _pet.monthlyCommitmentAmount */\n      lt\n      iszero\n        /* \"TimeAllyPET.sol\":18806:18922  require(... */\n      tag_220\n      jumpi\n      mload(0x40)\n      0x08c379a000000000000000000000000000000000000000000000000000000000\n      dup2\n      mstore\n      0x04\n      add\n      dup1\n      dup1\n      0x20\n      add\n      dup3\n      dup2\n      sub\n      dup3\n      mstore\n      0x1f\n      dup2\n      mstore\n      0x20\n      add\n      dup1\n      0x6465706f736974206e6f742063726f7373696e6720636f6d6d69746d656e7400\n      dup2\n      mstore\n      pop\n      0x20\n      add\n      swap2\n      pop\n      pop\n      mload(0x40)\n      dup1\n      swap2\n      sub\n      swap1\n      revert\n    tag_220:\n        /* \"TimeAllyPET.sol\":18982:19022  uint256 _benefitAllocationForSingleMonth */\n      0x00\n        /* \"TimeAllyPET.sol\":19025:19117  _getBenefitAllocationByDepositAmount(... */\n      tag_221\n        /* \"TimeAllyPET.sol\":19069:19073  _pet */\n      dup7\n        /* \"TimeAllyPET.sol\":19081:19102  _monthlyDepositAmount */\n      dup4\n        /* \"TimeAllyPET.sol\":19110:19111  1 */\n      0x01\n        /* \"TimeAllyPET.sol\":19025:19061  _getBenefitAllocationByDepositAmount */\n      tag_139\n        /* \"TimeAllyPET.sol\":19025:19117  _getBenefitAllocationByDepositAmount(... */\n      jump\t// in\n    tag_221:\n        /* \"TimeAllyPET.sol\":18982:19117  uint256 _benefitAllocationForSingleMonth = _getBenefitAllocationByDepositAmount(... */\n      swap1\n      pop\n        /* \"TimeAllyPET.sol\":19127:19140  _usePrepaidES */\n      dup7\n        /* \"TimeAllyPET.sol\":19124:19448  if(_usePrepaidES) {... */\n      iszero\n      tag_222\n      jumpi\n        /* \"TimeAllyPET.sol\":19226:19283  prepaidES[msg.sender].sub(_totalDepositAmount.add(_fees)) */\n      tag_223\n        /* \"TimeAllyPET.sol\":19252:19282  _totalDepositAmount.add(_fees) */\n      tag_224\n        /* \"TimeAllyPET.sol\":19276:19281  _fees */\n      dup5\n        /* \"TimeAllyPET.sol\":19252:19271  _totalDepositAmount */\n      dup12\n        /* \"TimeAllyPET.sol\":19252:19275  _totalDepositAmount.add */\n      tag_130\n      swap1\n        /* \"TimeAllyPET.sol\":19252:19282  _totalDepositAmount.add(_fees) */\n      swap2\n      swap1\n      0xffffffff\n      and\n      jump\t// in\n    tag_224:\n        /* \"TimeAllyPET.sol\":19226:19235  prepaidES */\n      0x05\n        /* \"TimeAllyPET.sol\":19226:19247  prepaidES[msg.sender] */\n      0x00\n        /* \"TimeAllyPET.sol\":19236:19246  msg.sender */\n      caller\n        /* \"TimeAllyPET.sol\":19226:19247  prepaidES[msg.sender] */\n      0xffffffffffffffffffffffffffffffffffffffff\n      and\n      0xffffffffffffffffffffffffffffffffffffffff\n      and\n      dup2\n      mstore\n      0x20\n      add\n      swap1\n      dup2\n      mstore\n      0x20\n      add\n      0x00\n      keccak256\n      sload\n        /* \"TimeAllyPET.sol\":19226:19251  prepaidES[msg.sender].sub */\n      tag_123\n      swap1\n        /* \"TimeAllyPET.sol\":19226:19283  prepaidES[msg.sender].sub(_totalDepositAmount.add(_fees)) */\n      swap2\n      swap1\n      0xffffffff\n      and\n      jump\t// in\n    tag_223:\n        /* \"TimeAllyPET.sol\":19202:19211  prepaidES */\n      0x05\n        /* \"TimeAllyPET.sol\":19202:19223  prepaidES[msg.sender] */\n      0x00\n        /* \"TimeAllyPET.sol\":19212:19222  msg.sender */\n      caller\n        /* \"TimeAllyPET.sol\":19202:19223  prepaidES[msg.sender] */\n      0xffffffffffffffffffffffffffffffffffffffff\n      and\n      0xffffffffffffffffffffffffffffffffffffffff\n      and\n      dup2\n      mstore\n      0x20\n      add\n      swap1\n      dup2\n      mstore\n      0x20\n      add\n      0x00\n      keccak256\n        /* \"TimeAllyPET.sol\":19202:19283  prepaidES[msg.sender] = prepaidES[msg.sender].sub(_totalDepositAmount.add(_fees)) */\n      dup2\n      swap1\n      sstore\n      pop\n        /* \"TimeAllyPET.sol\":19124:19448  if(_usePrepaidES) {... */\n      jump(tag_225)\n    tag_222:\n        /* \"TimeAllyPET.sol\":19364:19369  token */\n      0x02\n      0x00\n      swap1\n      sload\n      swap1\n      0x0100\n      exp\n      swap1\n      div\n      0xffffffffffffffffffffffffffffffffffffffff\n      and\n        /* \"TimeAllyPET.sol\":19364:19382  token.transferFrom */\n      0xffffffffffffffffffffffffffffffffffffffff\n      and\n      0x23b872dd\n        /* \"TimeAllyPET.sol\":19383:19393  msg.sender */\n      caller\n        /* \"TimeAllyPET.sol\":19403:19407  this */\n      address\n        /* \"TimeAllyPET.sol\":19410:19440  _totalDepositAmount.add(_fees) */\n      tag_226\n        /* \"TimeAllyPET.sol\":19434:19439  _fees */\n      dup8\n        /* \"TimeAllyPET.sol\":19410:19429  _totalDepositAmount */\n      dup15\n        /* \"TimeAllyPET.sol\":19410:19433  _totalDepositAmount.add */\n      tag_130\n      swap1\n        /* \"TimeAllyPET.sol\":19410:19440  _totalDepositAmount.add(_fees) */\n      swap2\n      swap1\n      0xffffffff\n      and\n      jump\t// in\n    tag_226:\n        /* \"TimeAllyPET.sol\":19364:19441  token.transferFrom(msg.sender, address(this), _totalDepositAmount.add(_fees)) */\n      mload(0x40)\n      dup5\n      0xffffffff\n      and\n      0xe0\n      shl\n      dup2\n      mstore\n      0x04\n      add\n      dup1\n      dup5\n      0xffffffffffffffffffffffffffffffffffffffff\n      and\n      0xffffffffffffffffffffffffffffffffffffffff\n      and\n      dup2\n      mstore\n      0x20\n      add\n      dup4\n      0xffffffffffffffffffffffffffffffffffffffff\n      and\n      0xffffffffffffffffffffffffffffffffffffffff\n      and\n      dup2\n      mstore\n      0x20\n      add\n      dup3\n      dup2\n      mstore\n      0x20\n      add\n      swap4\n      pop\n      pop\n      pop\n      pop\n      0x20\n      mload(0x40)\n      dup1\n      dup4\n      sub\n      dup2\n      0x00\n      dup8\n      dup1\n      extcodesize\n      iszero\n        /* \"--CODEGEN--\":8:17   */\n      dup1\n        /* \"--CODEGEN--\":5:7   */\n      iszero\n      tag_227\n      jumpi\n        /* \"--CODEGEN--\":30:31   */\n      0x00\n        /* \"--CODEGEN--\":27:28   */\n      dup1\n        /* \"--CODEGEN--\":20:32   */\n      revert\n        /* \"--CODEGEN--\":5:7   */\n    tag_227:\n        /* \"TimeAllyPET.sol\":19364:19441  token.transferFrom(msg.sender, address(this), _totalDepositAmount.add(_fees)) */\n      pop\n      gas\n      call\n      iszero\n        /* \"--CODEGEN--\":8:17   */\n      dup1\n        /* \"--CODEGEN--\":5:7   */\n      iszero\n      tag_229\n      jumpi\n        /* \"--CODEGEN--\":45:61   */\n      returndatasize\n        /* \"--CODEGEN--\":42:43   */\n      0x00\n        /* \"--CODEGEN--\":39:40   */\n      dup1\n        /* \"--CODEGEN--\":24:62   */\n      returndatacopy\n        /* \"--CODEGEN--\":77:93   */\n      returndatasize\n        /* \"--CODEGEN--\":74:75   */\n      0x00\n        /* \"--CODEGEN--\":67:94   */\n      revert\n        /* \"--CODEGEN--\":5:7   */\n    tag_229:\n        /* \"TimeAllyPET.sol\":19364:19441  token.transferFrom(msg.sender, address(this), _totalDepositAmount.add(_fees)) */\n      pop\n      pop\n      pop\n      pop\n      mload(0x40)\n      returndatasize\n        /* \"--CODEGEN--\":13:15   */\n      0x20\n        /* \"--CODEGEN--\":8:11   */\n      dup2\n        /* \"--CODEGEN--\":5:16   */\n      lt\n        /* \"--CODEGEN--\":2:4   */\n      iszero\n      tag_230\n      jumpi\n        /* \"--CODEGEN--\":29:30   */\n      0x00\n        /* \"--CODEGEN--\":26:27   */\n      dup1\n        /* \"--CODEGEN--\":19:31   */\n      revert\n        /* \"--CODEGEN--\":2:4   */\n    tag_230:\n        /* \"TimeAllyPET.sol\":19364:19441  token.transferFrom(msg.sender, address(this), _totalDepositAmount.add(_fees)) */\n      dup2\n      add\n      swap1\n      dup1\n      dup1\n      mload\n      swap1\n      0x20\n      add\n      swap1\n      swap3\n      swap2\n      swap1\n      pop\n      pop\n      pop\n      pop\n        /* \"TimeAllyPET.sol\":19124:19448  if(_usePrepaidES) {... */\n    tag_225:\n        /* \"TimeAllyPET.sol\":19476:19506  prepaidES[deployer].add(_fees) */\n      tag_231\n        /* \"TimeAllyPET.sol\":19500:19505  _fees */\n      dup4\n        /* \"TimeAllyPET.sol\":19476:19485  prepaidES */\n      0x05\n        /* \"TimeAllyPET.sol\":19476:19495  prepaidES[deployer] */\n      0x00\n        /* \"TimeAllyPET.sol\":19486:19494  deployer */\n      dup1\n      0x00\n      swap1\n      sload\n      swap1\n      0x0100\n      exp\n      swap1\n      div\n      0xffffffffffffffffffffffffffffffffffffffff\n      and\n        /* \"TimeAllyPET.sol\":19476:19495  prepaidES[deployer] */\n      0xffffffffffffffffffffffffffffffffffffffff\n      and\n      0xffffffffffffffffffffffffffffffffffffffff\n      and\n      dup2\n      mstore\n      0x20\n      add\n      swap1\n      dup2\n      mstore\n      0x20\n      add\n      0x00\n      keccak256\n      sload\n        /* \"TimeAllyPET.sol\":19476:19499  prepaidES[deployer].add */\n      tag_130\n      swap1\n        /* \"TimeAllyPET.sol\":19476:19506  prepaidES[deployer].add(_fees) */\n      swap2\n      swap1\n      0xffffffff\n      and\n      jump\t// in\n    tag_231:\n        /* \"TimeAllyPET.sol\":19454:19463  prepaidES */\n      0x05\n        /* \"TimeAllyPET.sol\":19454:19473  prepaidES[deployer] */\n      0x00\n        /* \"TimeAllyPET.sol\":19464:19472  deployer */\n      dup1\n      0x00\n      swap1\n      sload\n      swap1\n      0x0100\n      exp\n      swap1\n      div\n      0xffffffffffffffffffffffffffffffffffffffff\n      and\n        /* \"TimeAllyPET.sol\":19454:19473  prepaidES[deployer] */\n      0xffffffffffffffffffffffffffffffffffffffff\n      and\n      0xffffffffffffffffffffffffffffffffffffffff\n      and\n      dup2\n      mstore\n      0x20\n      add\n      swap1\n      dup2\n      mstore\n      0x20\n      add\n      0x00\n      keccak256\n        /* \"TimeAllyPET.sol\":19454:19506  prepaidES[deployer] = prepaidES[deployer].add(_fees) */\n      dup2\n      swap1\n      sstore\n      pop\n        /* \"TimeAllyPET.sol\":19598:19603  token */\n      0x02\n      0x00\n      swap1\n      sload\n      swap1\n      0x0100\n      exp\n      swap1\n      div\n      0xffffffffffffffffffffffffffffffffffffffff\n      and\n        /* \"TimeAllyPET.sol\":19598:19616  token.transferFrom */\n      0xffffffffffffffffffffffffffffffffffffffff\n      and\n      0x23b872dd\n        /* \"TimeAllyPET.sol\":19617:19628  fundsBucket */\n      0x01\n      0x00\n      swap1\n      sload\n      swap1\n      0x0100\n      exp\n      swap1\n      div\n      0xffffffffffffffffffffffffffffffffffffffff\n      and\n        /* \"TimeAllyPET.sol\":19638:19642  this */\n      address\n        /* \"TimeAllyPET.sol\":19645:19697  _benefitAllocationForSingleMonth.mul(_frequencyMode) */\n      tag_232\n        /* \"TimeAllyPET.sol\":19682:19696  _frequencyMode */\n      dup13\n        /* \"TimeAllyPET.sol\":19645:19677  _benefitAllocationForSingleMonth */\n      dup7\n        /* \"TimeAllyPET.sol\":19645:19681  _benefitAllocationForSingleMonth.mul */\n      tag_233\n      swap1\n        /* \"TimeAllyPET.sol\":19645:19697  _benefitAllocationForSingleMonth.mul(_frequencyMode) */\n      swap2\n      swap1\n      0xffffffff\n      and\n      jump\t// in\n    tag_232:\n        /* \"TimeAllyPET.sol\":19598:19698  token.transferFrom(fundsBucket, address(this), _benefitAllocationForSingleMonth.mul(_frequencyMode)) */\n      mload(0x40)\n      dup5\n      0xffffffff\n      and\n      0xe0\n      shl\n      dup2\n      mstore\n      0x04\n      add\n      dup1\n      dup5\n      0xffffffffffffffffffffffffffffffffffffffff\n      and\n      0xffffffffffffffffffffffffffffffffffffffff\n      and\n      dup2\n      mstore\n      0x20\n      add\n      dup4\n      0xffffffffffffffffffffffffffffffffffffffff\n      and\n      0xffffffffffffffffffffffffffffffffffffffff\n      and\n      dup2\n      mstore\n      0x20\n      add\n      dup3\n      dup2\n      mstore\n      0x20\n      add\n      swap4\n      pop\n      pop\n      pop\n      pop\n      0x20\n      mload(0x40)\n      dup1\n      dup4\n      sub\n      dup2\n      0x00\n      dup8\n      dup1\n      extcodesize\n      iszero\n        /* \"--CODEGEN--\":8:17   */\n      dup1\n        /* \"--CODEGEN--\":5:7   */\n      iszero\n      tag_234\n      jumpi\n        /* \"--CODEGEN--\":30:31   */\n      0x00\n        /* \"--CODEGEN--\":27:28   */\n      dup1\n        /* \"--CODEGEN--\":20:32   */\n      revert\n        /* \"--CODEGEN--\":5:7   */\n    tag_234:\n        /* \"TimeAllyPET.sol\":19598:19698  token.transferFrom(fundsBucket, address(this), _benefitAllocationForSingleMonth.mul(_frequencyMode)) */\n      pop\n      gas\n      call\n      iszero\n        /* \"--CODEGEN--\":8:17   */\n      dup1\n        /* \"--CODEGEN--\":5:7   */\n      iszero\n      tag_236\n      jumpi\n        /* \"--CODEGEN--\":45:61   */\n      returndatasize\n        /* \"--CODEGEN--\":42:43   */\n      0x00\n        /* \"--CODEGEN--\":39:40   */\n      dup1\n        /* \"--CODEGEN--\":24:62   */\n      returndatacopy\n        /* \"--CODEGEN--\":77:93   */\n      returndatasize\n        /* \"--CODEGEN--\":74:75   */\n      0x00\n        /* \"--CODEGEN--\":67:94   */\n      revert\n        /* \"--CODEGEN--\":5:7   */\n    tag_236:\n        /* \"TimeAllyPET.sol\":19598:19698  token.transferFrom(fundsBucket, address(this), _benefitAllocationForSingleMonth.mul(_frequencyMode)) */\n      pop\n      pop\n      pop\n      pop\n      mload(0x40)\n      returndatasize\n        /* \"--CODEGEN--\":13:15   */\n      0x20\n        /* \"--CODEGEN--\":8:11   */\n      dup2\n        /* \"--CODEGEN--\":5:16   */\n      lt\n        /* \"--CODEGEN--\":2:4   */\n      iszero\n      tag_237\n      jumpi\n        /* \"--CODEGEN--\":29:30   */\n      0x00\n        /* \"--CODEGEN--\":26:27   */\n      dup1\n        /* \"--CODEGEN--\":19:31   */\n      revert\n        /* \"--CODEGEN--\":2:4   */\n    tag_237:\n        /* \"TimeAllyPET.sol\":19598:19698  token.transferFrom(fundsBucket, address(this), _benefitAllocationForSingleMonth.mul(_frequencyMode)) */\n      dup2\n      add\n      swap1\n      dup1\n      dup1\n      mload\n      swap1\n      0x20\n      add\n      swap1\n      swap3\n      swap2\n      swap1\n      pop\n      pop\n      pop\n      pop\n        /* \"TimeAllyPET.sol\":19709:19725  uint256 _monthId */\n      0x00\n        /* \"TimeAllyPET.sol\":19728:19741  _depositMonth */\n      dup6\n        /* \"TimeAllyPET.sol\":19709:19741  uint256 _monthId = _depositMonth */\n      swap1\n      pop\n        /* \"TimeAllyPET.sol\":19705:20142  for(uint256 _monthId = _depositMonth; _monthId <= _uptoMonth; _monthId++) {... */\n    tag_238:\n        /* \"TimeAllyPET.sol\":19755:19765  _uptoMonth */\n      dup5\n        /* \"TimeAllyPET.sol\":19743:19751  _monthId */\n      dup2\n        /* \"TimeAllyPET.sol\":19743:19765  _monthId <= _uptoMonth */\n      gt\n        /* \"TimeAllyPET.sol\":19705:20142  for(uint256 _monthId = _depositMonth; _monthId <= _uptoMonth; _monthId++) {... */\n      tag_239\n      jumpi\n        /* \"TimeAllyPET.sol\":19875:19896  _monthlyDepositAmount */\n      dup3\n        /* \"TimeAllyPET.sol\":19837:19841  _pet */\n      dup8\n        /* \"TimeAllyPET.sol\":19837:19862  _pet.monthlyDepositAmount */\n      0x06\n      add\n        /* \"TimeAllyPET.sol\":19837:19872  _pet.monthlyDepositAmount[_monthId] */\n      0x00\n        /* \"TimeAllyPET.sol\":19863:19871  _monthId */\n      dup4\n        /* \"TimeAllyPET.sol\":19837:19872  _pet.monthlyDepositAmount[_monthId] */\n      dup2\n      mstore\n      0x20\n      add\n      swap1\n      dup2\n      mstore\n      0x20\n      add\n      0x00\n      keccak256\n        /* \"TimeAllyPET.sol\":19837:19896  _pet.monthlyDepositAmount[_monthId] = _monthlyDepositAmount */\n      dup2\n      swap1\n      sstore\n      pop\n        /* \"TimeAllyPET.sol\":19984:19990  _petId */\n      dup11\n        /* \"TimeAllyPET.sol\":19960:19974  _stakerAddress */\n      dup13\n        /* \"TimeAllyPET.sol\":19940:20135  NewDeposit(... */\n      0xffffffffffffffffffffffffffffffffffffffff\n      and\n      0xa0f7ad829c9cb80662be76da1eefcf008f173427db87f98a6d935f043f1a12e5\n        /* \"TimeAllyPET.sol\":20000:20008  _monthId */\n      dup4\n        /* \"TimeAllyPET.sol\":20018:20039  _monthlyDepositAmount */\n      dup7\n        /* \"TimeAllyPET.sol\":20094:20104  msg.sender */\n      caller\n        /* \"TimeAllyPET.sol\":20114:20127  _usePrepaidES */\n      dup14\n        /* \"TimeAllyPET.sol\":19940:20135  NewDeposit(... */\n      mload(0x40)\n      dup1\n      dup6\n      dup2\n      mstore\n      0x20\n      add\n      dup5\n      dup2\n      mstore\n      0x20\n      add\n      dup4\n      0xffffffffffffffffffffffffffffffffffffffff\n      and\n      0xffffffffffffffffffffffffffffffffffffffff\n      and\n      dup2\n      mstore\n      0x20\n      add\n      dup3\n      iszero\n      iszero\n      iszero\n      iszero\n      dup2\n      mstore\n      0x20\n      add\n      swap5\n      pop\n      pop\n      pop\n      pop\n      pop\n      mload(0x40)\n      dup1\n      swap2\n      sub\n      swap1\n      log3\n        /* \"TimeAllyPET.sol\":19767:19777  _monthId++ */\n      dup1\n      dup1\n      0x01\n      add\n      swap2\n      pop\n      pop\n        /* \"TimeAllyPET.sol\":19705:20142  for(uint256 _monthId = _depositMonth; _monthId <= _uptoMonth; _monthId++) {... */\n      jump(tag_238)\n    tag_239:\n      pop\n        /* \"TimeAllyPET.sol\":17419:20146  function makeLumSumDeposit(... */\n      pop\n      pop\n      pop\n      pop\n      pop\n      pop\n      pop\n      pop\n      pop\n      pop\n      pop\n      jump\t// out\n        /* \"TimeAllyPET.sol\":4753:4790  mapping(address => PET[]) public pets */\n    tag_58:\n      mstore(0x20, 0x04)\n      dup2\n      0x00\n      mstore\n      keccak256(0x00, 0x40)\n      dup2\n      dup2\n      sload\n      dup2\n      lt\n      tag_241\n      jumpi\n      invalid\n    tag_241:\n      swap1\n      0x00\n      mstore\n      keccak256(0x00, 0x20)\n      swap1\n      0x0a\n      mul\n      add\n      0x00\n      swap2\n      pop\n      swap2\n      pop\n      pop\n      dup1\n      0x00\n      add\n      sload\n      swap1\n      dup1\n      0x01\n      add\n      sload\n      swap1\n      dup1\n      0x02\n      add\n      sload\n      swap1\n      dup1\n      0x03\n      add\n      sload\n      swap1\n      dup1\n      0x04\n      add\n      sload\n      swap1\n      dup1\n      0x05\n      add\n      sload\n      swap1\n      pop\n      dup7\n      jump\t// out\n        /* \"TimeAllyPET.sol\":4362:4388  address public fundsBucket */\n    tag_60:\n      0x01\n      0x00\n      swap1\n      sload\n      swap1\n      0x0100\n      exp\n      swap1\n      div\n      0xffffffffffffffffffffffffffffffffffffffff\n      and\n      dup2\n      jump\t// out\n        /* \"TimeAllyPET.sol\":28682:29394  function calculatePowerBoosterAmount(... */\n    tag_63:\n        /* \"TimeAllyPET.sol\":28792:28799  uint256 */\n      0x00\n        /* \"TimeAllyPET.sol\":28865:28881  PET storage _pet */\n      dup1\n        /* \"TimeAllyPET.sol\":28884:28888  pets */\n      0x04\n        /* \"TimeAllyPET.sol\":28884:28904  pets[_stakerAddress] */\n      0x00\n        /* \"TimeAllyPET.sol\":28889:28903  _stakerAddress */\n      dup6\n        /* \"TimeAllyPET.sol\":28884:28904  pets[_stakerAddress] */\n      0xffffffffffffffffffffffffffffffffffffffff\n      and\n      0xffffffffffffffffffffffffffffffffffffffff\n      and\n      dup2\n      mstore\n      0x20\n      add\n      swap1\n      dup2\n      mstore\n      0x20\n      add\n      0x00\n      keccak256\n        /* \"TimeAllyPET.sol\":28905:28911  _petId */\n      dup4\n        /* \"TimeAllyPET.sol\":28884:28912  pets[_stakerAddress][_petId] */\n      dup2\n      sload\n      dup2\n      lt\n      tag_244\n      jumpi\n      invalid\n    tag_244:\n      swap1\n      0x00\n      mstore\n      keccak256(0x00, 0x20)\n      swap1\n      0x0a\n      mul\n      add\n        /* \"TimeAllyPET.sol\":28865:28912  PET storage _pet = pets[_stakerAddress][_petId] */\n      swap1\n      pop\n        /* \"TimeAllyPET.sol\":28919:28954  uint256 _totalDepositedIncludingPET */\n      0x00\n        /* \"TimeAllyPET.sol\":29044:29054  uint256 _i */\n      dup1\n        /* \"TimeAllyPET.sol\":29057:29058  1 */\n      0x01\n        /* \"TimeAllyPET.sol\":29044:29058  uint256 _i = 1 */\n      swap1\n      pop\n        /* \"TimeAllyPET.sol\":29040:29341  for(uint256 _i = 1; _i <= 12; _i++) {... */\n    tag_246:\n        /* \"TimeAllyPET.sol\":29066:29068  12 */\n      0x0c\n        /* \"TimeAllyPET.sol\":29060:29062  _i */\n      dup2\n        /* \"TimeAllyPET.sol\":29060:29068  _i <= 12 */\n      gt\n        /* \"TimeAllyPET.sol\":29040:29341  for(uint256 _i = 1; _i <= 12; _i++) {... */\n      tag_247\n      jumpi\n        /* \"TimeAllyPET.sol\":29084:29118  uint256 _depositAmountIncludingPET */\n      0x00\n        /* \"TimeAllyPET.sol\":29121:29236  _getTotalDepositedIncludingPET(... */\n      tag_249\n        /* \"TimeAllyPET.sol\":29161:29165  _pet */\n      dup5\n        /* \"TimeAllyPET.sol\":29161:29186  _pet.monthlyDepositAmount */\n      0x06\n      add\n        /* \"TimeAllyPET.sol\":29161:29190  _pet.monthlyDepositAmount[_i] */\n      0x00\n        /* \"TimeAllyPET.sol\":29187:29189  _i */\n      dup5\n        /* \"TimeAllyPET.sol\":29161:29190  _pet.monthlyDepositAmount[_i] */\n      dup2\n      mstore\n      0x20\n      add\n      swap1\n      dup2\n      mstore\n      0x20\n      add\n      0x00\n      keccak256\n      sload\n        /* \"TimeAllyPET.sol\":29200:29204  _pet */\n      dup6\n        /* \"TimeAllyPET.sol\":29200:29228  _pet.monthlyCommitmentAmount */\n      0x01\n      add\n      sload\n        /* \"TimeAllyPET.sol\":29121:29151  _getTotalDepositedIncludingPET */\n      tag_250\n        /* \"TimeAllyPET.sol\":29121:29236  _getTotalDepositedIncludingPET(... */\n      jump\t// in\n    tag_249:\n        /* \"TimeAllyPET.sol\":29084:29236  uint256 _depositAmountIncludingPET = _getTotalDepositedIncludingPET(... */\n      swap1\n      pop\n        /* \"TimeAllyPET.sol\":29275:29334  _totalDepositedIncludingPET.add(_depositAmountIncludingPET) */\n      tag_251\n        /* \"TimeAllyPET.sol\":29307:29333  _depositAmountIncludingPET */\n      dup2\n        /* \"TimeAllyPET.sol\":29275:29302  _totalDepositedIncludingPET */\n      dup5\n        /* \"TimeAllyPET.sol\":29275:29306  _totalDepositedIncludingPET.add */\n      tag_130\n      swap1\n        /* \"TimeAllyPET.sol\":29275:29334  _totalDepositedIncludingPET.add(_depositAmountIncludingPET) */\n      swap2\n      swap1\n      0xffffffff\n      and\n      jump\t// in\n    tag_251:\n        /* \"TimeAllyPET.sol\":29245:29334  _totalDepositedIncludingPET = _totalDepositedIncludingPET.add(_depositAmountIncludingPET) */\n      swap3\n      pop\n        /* \"TimeAllyPET.sol\":29040:29341  for(uint256 _i = 1; _i <= 12; _i++) {... */\n      pop\n        /* \"TimeAllyPET.sol\":29070:29074  _i++ */\n      dup1\n      dup1\n      0x01\n      add\n      swap2\n      pop\n      pop\n        /* \"TimeAllyPET.sol\":29040:29341  for(uint256 _i = 1; _i <= 12; _i++) {... */\n      jump(tag_246)\n    tag_247:\n      pop\n        /* \"TimeAllyPET.sol\":29354:29389  _totalDepositedIncludingPET.div(12) */\n      tag_252\n        /* \"TimeAllyPET.sol\":29386:29388  12 */\n      0x0c\n        /* \"TimeAllyPET.sol\":29354:29381  _totalDepositedIncludingPET */\n      dup3\n        /* \"TimeAllyPET.sol\":29354:29385  _totalDepositedIncludingPET.div */\n      tag_135\n      swap1\n        /* \"TimeAllyPET.sol\":29354:29389  _totalDepositedIncludingPET.div(12) */\n      swap2\n      swap1\n      0xffffffff\n      and\n      jump\t// in\n    tag_252:\n        /* \"TimeAllyPET.sol\":29347:29389  return _totalDepositedIncludingPET.div(12) */\n      swap3\n      pop\n      pop\n      pop\n        /* \"TimeAllyPET.sol\":28682:29394  function calculatePowerBoosterAmount(... */\n      swap3\n      swap2\n      pop\n      pop\n      jump\t// out\n        /* \"TimeAllyPET.sol\":10375:10939  function createPETPlan(... */\n    tag_66:\n        /* \"TimeAllyPET.sol\":7069:7077  deployer */\n      0x00\n      dup1\n      swap1\n      sload\n      swap1\n      0x0100\n      exp\n      swap1\n      div\n      0xffffffffffffffffffffffffffffffffffffffff\n      and\n        /* \"TimeAllyPET.sol\":7055:7077  msg.sender == deployer */\n      0xffffffffffffffffffffffffffffffffffffffff\n      and\n        /* \"TimeAllyPET.sol\":7055:7065  msg.sender */\n      caller\n        /* \"TimeAllyPET.sol\":7055:7077  msg.sender == deployer */\n      0xffffffffffffffffffffffffffffffffffffffff\n      and\n      eq\n        /* \"TimeAllyPET.sol\":7047:7104  require(msg.sender == deployer, 'only deployer can call') */\n      tag_254\n      jumpi\n      mload(0x40)\n      0x08c379a000000000000000000000000000000000000000000000000000000000\n      dup2\n      mstore\n      0x04\n      add\n      dup1\n      dup1\n      0x20\n      add\n      dup3\n      dup2\n      sub\n      dup3\n      mstore\n      0x16\n      dup2\n      mstore\n      0x20\n      add\n      dup1\n      0x6f6e6c79206465706c6f7965722063616e2063616c6c00000000000000000000\n      dup2\n      mstore\n      pop\n      0x20\n      add\n      swap2\n      pop\n      pop\n      mload(0x40)\n      dup1\n      swap2\n      sub\n      swap1\n      revert\n    tag_254:\n        /* \"TimeAllyPET.sol\":10566:10574  petPlans */\n      0x03\n        /* \"TimeAllyPET.sol\":10580:10765  PETPlan({... */\n      mload(0x40)\n      dup1\n      0x60\n      add\n      0x40\n      mstore\n      dup1\n        /* \"TimeAllyPET.sol\":10610:10614  true */\n      0x01\n        /* \"TimeAllyPET.sol\":10580:10765  PETPlan({... */\n      iszero\n      iszero\n      dup2\n      mstore\n      0x20\n      add\n        /* \"TimeAllyPET.sol\":10654:10685  _minimumMonthlyCommitmentAmount */\n      dup5\n        /* \"TimeAllyPET.sol\":10580:10765  PETPlan({... */\n      dup2\n      mstore\n      0x20\n      add\n        /* \"TimeAllyPET.sol\":10726:10758  _monthlyBenefitFactorPerThousand */\n      dup4\n        /* \"TimeAllyPET.sol\":10580:10765  PETPlan({... */\n      dup2\n      mstore\n      pop\n        /* \"TimeAllyPET.sol\":10566:10766  petPlans.push(PETPlan({... */\n      swap1\n      dup1\n        /* \"--CODEGEN--\":39:40   */\n      0x01\n        /* \"--CODEGEN--\":33:36   */\n      dup2\n        /* \"--CODEGEN--\":27:37   */\n      sload\n        /* \"--CODEGEN--\":23:41   */\n      add\n        /* \"--CODEGEN--\":57:67   */\n      dup1\n        /* \"--CODEGEN--\":52:55   */\n      dup3\n        /* \"--CODEGEN--\":45:68   */\n      sstore\n        /* \"--CODEGEN--\":79:89   */\n      dup1\n        /* \"--CODEGEN--\":72:89   */\n      swap2\n      pop\n        /* \"--CODEGEN--\":0:93   */\n      pop\n        /* \"TimeAllyPET.sol\":10566:10766  petPlans.push(PETPlan({... */\n      0x01\n      swap1\n      sub\n      swap1\n      0x00\n      mstore\n      keccak256(0x00, 0x20)\n      swap1\n      0x03\n      mul\n      add\n      0x00\n      swap1\n      swap2\n      swap1\n      swap2\n      swap1\n      swap2\n      pop\n      0x00\n      dup3\n      add\n      mload\n      dup2\n      0x00\n      add\n      exp(0x0100, 0x00)\n      dup2\n      sload\n      dup2\n      0xff\n      mul\n      not\n      and\n      swap1\n      dup4\n      iszero\n      iszero\n      mul\n      or\n      swap1\n      sstore\n      pop\n      0x20\n      dup3\n      add\n      mload\n      dup2\n      0x01\n      add\n      sstore\n      0x40\n      dup3\n      add\n      mload\n      dup2\n      0x02\n      add\n      sstore\n      pop\n      pop\n        /* \"TimeAllyPET.sol\":10812:10934  NewPETPlan(... */\n      0xf47d2a74cdeac9661be2d3138ed3f81d11abcff723e84a800a60b86eeaf90afe\n        /* \"TimeAllyPET.sol\":10830:10861  _minimumMonthlyCommitmentAmount */\n      dup3\n        /* \"TimeAllyPET.sol\":10869:10901  _monthlyBenefitFactorPerThousand */\n      dup3\n        /* \"TimeAllyPET.sol\":10927:10928  1 */\n      0x01\n        /* \"TimeAllyPET.sol\":10909:10917  petPlans */\n      0x03\n        /* \"TimeAllyPET.sol\":10909:10924  petPlans.length */\n      dup1\n      sload\n      swap1\n      pop\n        /* \"TimeAllyPET.sol\":10909:10928  petPlans.length - 1 */\n      sub\n        /* \"TimeAllyPET.sol\":10812:10934  NewPETPlan(... */\n      mload(0x40)\n      dup1\n      dup5\n      dup2\n      mstore\n      0x20\n      add\n      dup4\n      dup2\n      mstore\n      0x20\n      add\n      dup3\n      dup2\n      mstore\n      0x20\n      add\n      swap4\n      pop\n      pop\n      pop\n      pop\n      mload(0x40)\n      dup1\n      swap2\n      sub\n      swap1\n      log1\n        /* \"TimeAllyPET.sol\":10375:10939  function createPETPlan(... */\n      pop\n      pop\n      jump\t// out\n        /* \"TimeAllyPET.sol\":27518:28471  function getSumOfMonthlyAnnuity(... */\n    tag_69:\n        /* \"TimeAllyPET.sol\":27689:27696  uint256 */\n      0x00\n        /* \"TimeAllyPET.sol\":27772:27788  PET storage _pet */\n      dup1\n        /* \"TimeAllyPET.sol\":27791:27795  pets */\n      0x04\n        /* \"TimeAllyPET.sol\":27791:27811  pets[_stakerAddress] */\n      0x00\n        /* \"TimeAllyPET.sol\":27796:27810  _stakerAddress */\n      dup8\n        /* \"TimeAllyPET.sol\":27791:27811  pets[_stakerAddress] */\n      0xffffffffffffffffffffffffffffffffffffffff\n      and\n      0xffffffffffffffffffffffffffffffffffffffff\n      and\n      dup2\n      mstore\n      0x20\n      add\n      swap1\n      dup2\n      mstore\n      0x20\n      add\n      0x00\n      keccak256\n        /* \"TimeAllyPET.sol\":27812:27818  _petId */\n      dup6\n        /* \"TimeAllyPET.sol\":27791:27819  pets[_stakerAddress][_petId] */\n      dup2\n      sload\n      dup2\n      lt\n      tag_258\n      jumpi\n      invalid\n    tag_258:\n      swap1\n      0x00\n      mstore\n      keccak256(0x00, 0x20)\n      swap1\n      0x0a\n      mul\n      add\n        /* \"TimeAllyPET.sol\":27772:27819  PET storage _pet = pets[_stakerAddress][_petId] */\n      swap1\n      pop\n        /* \"TimeAllyPET.sol\":27825:27849  PETPlan storage _petPlan */\n      0x00\n        /* \"TimeAllyPET.sol\":27852:27860  petPlans */\n      0x03\n        /* \"TimeAllyPET.sol\":27861:27865  _pet */\n      dup3\n        /* \"TimeAllyPET.sol\":27861:27872  _pet.planId */\n      0x00\n      add\n      sload\n        /* \"TimeAllyPET.sol\":27852:27873  petPlans[_pet.planId] */\n      dup2\n      sload\n      dup2\n      lt\n      tag_260\n      jumpi\n      invalid\n    tag_260:\n      swap1\n      0x00\n      mstore\n      keccak256(0x00, 0x20)\n      swap1\n      0x03\n      mul\n      add\n        /* \"TimeAllyPET.sol\":27825:27873  PETPlan storage _petPlan = petPlans[_pet.planId] */\n      swap1\n      pop\n        /* \"TimeAllyPET.sol\":27880:27902  uint256 _totalDeposits */\n      0x00\n        /* \"TimeAllyPET.sol\":27985:27995  uint256 _i */\n      dup1\n        /* \"TimeAllyPET.sol\":27998:28018  _startAnnuityMonthId */\n      dup7\n        /* \"TimeAllyPET.sol\":27985:28018  uint256 _i = _startAnnuityMonthId */\n      swap1\n      pop\n        /* \"TimeAllyPET.sol\":27981:28317  for(uint256 _i = _startAnnuityMonthId; _i <= _endAnnuityMonthId; _i++) {... */\n    tag_262:\n        /* \"TimeAllyPET.sol\":28026:28044  _endAnnuityMonthId */\n      dup6\n        /* \"TimeAllyPET.sol\":28020:28022  _i */\n      dup2\n        /* \"TimeAllyPET.sol\":28020:28044  _i <= _endAnnuityMonthId */\n      gt\n        /* \"TimeAllyPET.sol\":27981:28317  for(uint256 _i = _startAnnuityMonthId; _i <= _endAnnuityMonthId; _i++) {... */\n      tag_263\n      jumpi\n        /* \"TimeAllyPET.sol\":28060:28075  uint256 _modulo */\n      0x00\n        /* \"TimeAllyPET.sol\":28081:28083  12 */\n      0x0c\n        /* \"TimeAllyPET.sol\":28078:28080  _i */\n      dup3\n        /* \"TimeAllyPET.sol\":28078:28083  _i%12 */\n      dup2\n      tag_265\n      jumpi\n      invalid\n    tag_265:\n      mod\n        /* \"TimeAllyPET.sol\":28060:28083  uint256 _modulo = _i%12 */\n      swap1\n      pop\n        /* \"TimeAllyPET.sol\":28091:28125  uint256 _depositAmountIncludingPET */\n      0x00\n        /* \"TimeAllyPET.sol\":28128:28238  _getTotalDepositedIncludingPET(_pet.monthlyDepositAmount[_modulo==0?12:_modulo], _pet.monthlyCommitmentAmount) */\n      tag_266\n        /* \"TimeAllyPET.sol\":28159:28163  _pet */\n      dup7\n        /* \"TimeAllyPET.sol\":28159:28184  _pet.monthlyDepositAmount */\n      0x06\n      add\n        /* \"TimeAllyPET.sol\":28159:28207  _pet.monthlyDepositAmount[_modulo==0?12:_modulo] */\n      0x00\n        /* \"TimeAllyPET.sol\":28194:28195  0 */\n      dup1\n        /* \"TimeAllyPET.sol\":28185:28192  _modulo */\n      dup6\n        /* \"TimeAllyPET.sol\":28185:28195  _modulo==0 */\n      eq\n        /* \"TimeAllyPET.sol\":28185:28206  _modulo==0?12:_modulo */\n      tag_267\n      jumpi\n        /* \"TimeAllyPET.sol\":28199:28206  _modulo */\n      dup5\n        /* \"TimeAllyPET.sol\":28185:28206  _modulo==0?12:_modulo */\n      jump(tag_268)\n    tag_267:\n        /* \"TimeAllyPET.sol\":28196:28198  12 */\n      0x0c\n        /* \"TimeAllyPET.sol\":28185:28206  _modulo==0?12:_modulo */\n    tag_268:\n        /* \"TimeAllyPET.sol\":28159:28207  _pet.monthlyDepositAmount[_modulo==0?12:_modulo] */\n      dup2\n      mstore\n      0x20\n      add\n      swap1\n      dup2\n      mstore\n      0x20\n      add\n      0x00\n      keccak256\n      sload\n        /* \"TimeAllyPET.sol\":28209:28213  _pet */\n      dup8\n        /* \"TimeAllyPET.sol\":28209:28237  _pet.monthlyCommitmentAmount */\n      0x01\n      add\n      sload\n        /* \"TimeAllyPET.sol\":28128:28158  _getTotalDepositedIncludingPET */\n      tag_250\n        /* \"TimeAllyPET.sol\":28128:28238  _getTotalDepositedIncludingPET(_pet.monthlyDepositAmount[_modulo==0?12:_modulo], _pet.monthlyCommitmentAmount) */\n      jump\t// in\n    tag_266:\n        /* \"TimeAllyPET.sol\":28091:28238  uint256 _depositAmountIncludingPET = _getTotalDepositedIncludingPET(_pet.monthlyDepositAmount[_modulo==0?12:_modulo], _pet.monthlyCommitmentAmount) */\n      swap1\n      pop\n        /* \"TimeAllyPET.sol\":28264:28310  _totalDeposits.add(_depositAmountIncludingPET) */\n      tag_269\n        /* \"TimeAllyPET.sol\":28283:28309  _depositAmountIncludingPET */\n      dup2\n        /* \"TimeAllyPET.sol\":28264:28278  _totalDeposits */\n      dup6\n        /* \"TimeAllyPET.sol\":28264:28282  _totalDeposits.add */\n      tag_130\n      swap1\n        /* \"TimeAllyPET.sol\":28264:28310  _totalDeposits.add(_depositAmountIncludingPET) */\n      swap2\n      swap1\n      0xffffffff\n      and\n      jump\t// in\n    tag_269:\n        /* \"TimeAllyPET.sol\":28247:28310  _totalDeposits = _totalDeposits.add(_depositAmountIncludingPET) */\n      swap4\n      pop\n        /* \"TimeAllyPET.sol\":27981:28317  for(uint256 _i = _startAnnuityMonthId; _i <= _endAnnuityMonthId; _i++) {... */\n      pop\n      pop\n        /* \"TimeAllyPET.sol\":28046:28050  _i++ */\n      dup1\n      dup1\n      0x01\n      add\n      swap2\n      pop\n      pop\n        /* \"TimeAllyPET.sol\":27981:28317  for(uint256 _i = _startAnnuityMonthId; _i <= _endAnnuityMonthId; _i++) {... */\n      jump(tag_262)\n    tag_263:\n      pop\n        /* \"TimeAllyPET.sol\":28396:28466  _totalDeposits.mul(_petPlan.monthlyBenefitFactorPerThousand).div(1000) */\n      tag_270\n        /* \"TimeAllyPET.sol\":28461:28465  1000 */\n      0x03e8\n        /* \"TimeAllyPET.sol\":28396:28456  _totalDeposits.mul(_petPlan.monthlyBenefitFactorPerThousand) */\n      tag_271\n        /* \"TimeAllyPET.sol\":28415:28423  _petPlan */\n      dup5\n        /* \"TimeAllyPET.sol\":28415:28455  _petPlan.monthlyBenefitFactorPerThousand */\n      0x02\n      add\n      sload\n        /* \"TimeAllyPET.sol\":28396:28410  _totalDeposits */\n      dup5\n        /* \"TimeAllyPET.sol\":28396:28414  _totalDeposits.mul */\n      tag_233\n      swap1\n        /* \"TimeAllyPET.sol\":28396:28456  _totalDeposits.mul(_petPlan.monthlyBenefitFactorPerThousand) */\n      swap2\n      swap1\n      0xffffffff\n      and\n      jump\t// in\n    tag_271:\n        /* \"TimeAllyPET.sol\":28396:28460  _totalDeposits.mul(_petPlan.monthlyBenefitFactorPerThousand).div */\n      tag_135\n      swap1\n        /* \"TimeAllyPET.sol\":28396:28466  _totalDeposits.mul(_petPlan.monthlyBenefitFactorPerThousand).div(1000) */\n      swap2\n      swap1\n      0xffffffff\n      and\n      jump\t// in\n    tag_270:\n        /* \"TimeAllyPET.sol\":28389:28466  return _totalDeposits.mul(_petPlan.monthlyBenefitFactorPerThousand).div(1000) */\n      swap4\n      pop\n      pop\n      pop\n      pop\n        /* \"TimeAllyPET.sol\":27518:28471  function getSumOfMonthlyAnnuity(... */\n      swap5\n      swap4\n      pop\n      pop\n      pop\n      pop\n      jump\t// out\n        /* \"TimeAllyPET.sol\":25509:26200  function getNomineeAllowedTimestamp(... */\n    tag_72:\n        /* \"TimeAllyPET.sol\":25647:25654  uint256 */\n      0x00\n        /* \"TimeAllyPET.sol\":25662:25678  PET storage _pet */\n      dup1\n        /* \"TimeAllyPET.sol\":25681:25685  pets */\n      0x04\n        /* \"TimeAllyPET.sol\":25681:25701  pets[_stakerAddress] */\n      0x00\n        /* \"TimeAllyPET.sol\":25686:25700  _stakerAddress */\n      dup7\n        /* \"TimeAllyPET.sol\":25681:25701  pets[_stakerAddress] */\n      0xffffffffffffffffffffffffffffffffffffffff\n      and\n      0xffffffffffffffffffffffffffffffffffffffff\n      and\n      dup2\n      mstore\n      0x20\n      add\n      swap1\n      dup2\n      mstore\n      0x20\n      add\n      0x00\n      keccak256\n        /* \"TimeAllyPET.sol\":25702:25708  _petId */\n      dup5\n        /* \"TimeAllyPET.sol\":25681:25709  pets[_stakerAddress][_petId] */\n      dup2\n      sload\n      dup2\n      lt\n      tag_273\n      jumpi\n      invalid\n    tag_273:\n      swap1\n      0x00\n      mstore\n      keccak256(0x00, 0x20)\n      swap1\n      0x0a\n      mul\n      add\n        /* \"TimeAllyPET.sol\":25662:25709  PET storage _pet = pets[_stakerAddress][_petId] */\n      swap1\n      pop\n        /* \"TimeAllyPET.sol\":25715:25740  uint256 _allowedTimestamp */\n      0x00\n        /* \"TimeAllyPET.sol\":4615:4622  2629744 */\n      0x282070\n        /* \"TimeAllyPET.sol\":25794:25795  1 */\n      0x01\n        /* \"TimeAllyPET.sol\":25776:25791  _annuityMonthId */\n      dup6\n        /* \"TimeAllyPET.sol\":25771:25773  12 */\n      0x0c\n        /* \"TimeAllyPET.sol\":25771:25791  12 + _annuityMonthId */\n      add\n        /* \"TimeAllyPET.sol\":25771:25795  12 + _annuityMonthId - 1 */\n      sub\n        /* \"TimeAllyPET.sol\":25770:25821  (12 + _annuityMonthId - 1) * EARTH_SECONDS_IN_MONTH */\n      mul\n        /* \"TimeAllyPET.sol\":25743:25747  _pet */\n      dup3\n        /* \"TimeAllyPET.sol\":25743:25761  _pet.initTimestamp */\n      0x02\n      add\n      sload\n        /* \"TimeAllyPET.sol\":25743:25821  _pet.initTimestamp... */\n      add\n        /* \"TimeAllyPET.sol\":25715:25821  uint256 _allowedTimestamp = _pet.initTimestamp... */\n      swap1\n      pop\n        /* \"TimeAllyPET.sol\":25939:25953  _stakerAddress */\n      dup6\n        /* \"TimeAllyPET.sol\":25925:25953  msg.sender != _stakerAddress */\n      0xffffffffffffffffffffffffffffffffffffffff\n      and\n        /* \"TimeAllyPET.sol\":25925:25935  msg.sender */\n      caller\n        /* \"TimeAllyPET.sol\":25925:25953  msg.sender != _stakerAddress */\n      0xffffffffffffffffffffffffffffffffffffffff\n      and\n      eq\n        /* \"TimeAllyPET.sol\":25922:26165  if(msg.sender != _stakerAddress) {... */\n      tag_275\n      jumpi\n        /* \"TimeAllyPET.sol\":25988:26018  _pet.numberOfAppointees.div(2) */\n      tag_276\n        /* \"TimeAllyPET.sol\":26016:26017  2 */\n      0x02\n        /* \"TimeAllyPET.sol\":25988:25992  _pet */\n      dup4\n        /* \"TimeAllyPET.sol\":25988:26011  _pet.numberOfAppointees */\n      0x05\n      add\n      sload\n        /* \"TimeAllyPET.sol\":25988:26015  _pet.numberOfAppointees.div */\n      tag_135\n      swap1\n        /* \"TimeAllyPET.sol\":25988:26018  _pet.numberOfAppointees.div(2) */\n      swap2\n      swap1\n      0xffffffff\n      and\n      jump\t// in\n    tag_276:\n        /* \"TimeAllyPET.sol\":25966:25970  _pet */\n      dup3\n        /* \"TimeAllyPET.sol\":25966:25985  _pet.appointeeVotes */\n      0x04\n      add\n      sload\n        /* \"TimeAllyPET.sol\":25966:26018  _pet.appointeeVotes > _pet.numberOfAppointees.div(2) */\n      gt\n        /* \"TimeAllyPET.sol\":25963:26159  if(_pet.appointeeVotes > _pet.numberOfAppointees.div(2)) {... */\n      iszero\n      tag_277\n      jumpi\n        /* \"TimeAllyPET.sol\":26076:26077  6 */\n      0x06\n        /* \"TimeAllyPET.sol\":4615:4622  2629744 */\n      0x282070\n        /* \"TimeAllyPET.sol\":26051:26077  EARTH_SECONDS_IN_MONTH * 6 */\n      mul\n        /* \"TimeAllyPET.sol\":26030:26077  _allowedTimestamp += EARTH_SECONDS_IN_MONTH * 6 */\n      dup2\n      add\n      swap1\n      pop\n        /* \"TimeAllyPET.sol\":25963:26159  if(_pet.appointeeVotes > _pet.numberOfAppointees.div(2)) {... */\n      jump(tag_278)\n    tag_277:\n        /* \"TimeAllyPET.sol\":26148:26150  12 */\n      0x0c\n        /* \"TimeAllyPET.sol\":4615:4622  2629744 */\n      0x282070\n        /* \"TimeAllyPET.sol\":26123:26150  EARTH_SECONDS_IN_MONTH * 12 */\n      mul\n        /* \"TimeAllyPET.sol\":26102:26150  _allowedTimestamp += EARTH_SECONDS_IN_MONTH * 12 */\n      dup2\n      add\n      swap1\n      pop\n        /* \"TimeAllyPET.sol\":25963:26159  if(_pet.appointeeVotes > _pet.numberOfAppointees.div(2)) {... */\n    tag_278:\n        /* \"TimeAllyPET.sol\":25922:26165  if(msg.sender != _stakerAddress) {... */\n    tag_275:\n        /* \"TimeAllyPET.sol\":26178:26195  _allowedTimestamp */\n      dup1\n        /* \"TimeAllyPET.sol\":26171:26195  return _allowedTimestamp */\n      swap3\n      pop\n      pop\n      pop\n        /* \"TimeAllyPET.sol\":25509:26200  function getNomineeAllowedTimestamp(... */\n      swap4\n      swap3\n      pop\n      pop\n      pop\n      jump\t// out\n        /* \"TimeAllyPET.sol\":8514:8964  function sendPrepaidESDifferent(... */\n    tag_81:\n        /* \"TimeAllyPET.sol\":8631:8640  uint256 i */\n      0x00\n        /* \"TimeAllyPET.sol\":8643:8644  0 */\n      dup1\n        /* \"TimeAllyPET.sol\":8631:8644  uint256 i = 0 */\n      swap1\n      pop\n        /* \"TimeAllyPET.sol\":8627:8960  for(uint256 i = 0; i < _addresses.length; i++) {... */\n    tag_280:\n        /* \"TimeAllyPET.sol\":8650:8660  _addresses */\n      dup3\n        /* \"TimeAllyPET.sol\":8650:8667  _addresses.length */\n      mload\n        /* \"TimeAllyPET.sol\":8646:8647  i */\n      dup2\n        /* \"TimeAllyPET.sol\":8646:8667  i < _addresses.length */\n      lt\n        /* \"TimeAllyPET.sol\":8627:8960  for(uint256 i = 0; i < _addresses.length; i++) {... */\n      iszero\n      tag_281\n      jumpi\n        /* \"TimeAllyPET.sol\":8765:8803  prepaidES[msg.sender].sub(_amounts[i]) */\n      tag_283\n        /* \"TimeAllyPET.sol\":8791:8799  _amounts */\n      dup3\n        /* \"TimeAllyPET.sol\":8800:8801  i */\n      dup3\n        /* \"TimeAllyPET.sol\":8791:8802  _amounts[i] */\n      dup2\n      mload\n      dup2\n      lt\n      tag_284\n      jumpi\n      invalid\n    tag_284:\n      0x20\n      mul\n      0x20\n      add\n      add\n      mload\n        /* \"TimeAllyPET.sol\":8765:8774  prepaidES */\n      0x05\n        /* \"TimeAllyPET.sol\":8765:8786  prepaidES[msg.sender] */\n      0x00\n        /* \"TimeAllyPET.sol\":8775:8785  msg.sender */\n      caller\n        /* \"TimeAllyPET.sol\":8765:8786  prepaidES[msg.sender] */\n      0xffffffffffffffffffffffffffffffffffffffff\n      and\n      0xffffffffffffffffffffffffffffffffffffffff\n      and\n      dup2\n      mstore\n      0x20\n      add\n      swap1\n      dup2\n      mstore\n      0x20\n      add\n      0x00\n      keccak256\n      sload\n        /* \"TimeAllyPET.sol\":8765:8790  prepaidES[msg.sender].sub */\n      tag_123\n      swap1\n        /* \"TimeAllyPET.sol\":8765:8803  prepaidES[msg.sender].sub(_amounts[i]) */\n      swap2\n      swap1\n      0xffffffff\n      and\n      jump\t// in\n    tag_283:\n        /* \"TimeAllyPET.sol\":8741:8750  prepaidES */\n      0x05\n        /* \"TimeAllyPET.sol\":8741:8762  prepaidES[msg.sender] */\n      0x00\n        /* \"TimeAllyPET.sol\":8751:8761  msg.sender */\n      caller\n        /* \"TimeAllyPET.sol\":8741:8762  prepaidES[msg.sender] */\n      0xffffffffffffffffffffffffffffffffffffffff\n      and\n      0xffffffffffffffffffffffffffffffffffffffff\n      and\n      dup2\n      mstore\n      0x20\n      add\n      swap1\n      dup2\n      mstore\n      0x20\n      add\n      0x00\n      keccak256\n        /* \"TimeAllyPET.sol\":8741:8803  prepaidES[msg.sender] = prepaidES[msg.sender].sub(_amounts[i]) */\n      dup2\n      swap1\n      sstore\n      pop\n        /* \"TimeAllyPET.sol\":8912:8953  prepaidES[_addresses[i]].add(_amounts[i]) */\n      tag_285\n        /* \"TimeAllyPET.sol\":8941:8949  _amounts */\n      dup3\n        /* \"TimeAllyPET.sol\":8950:8951  i */\n      dup3\n        /* \"TimeAllyPET.sol\":8941:8952  _amounts[i] */\n      dup2\n      mload\n      dup2\n      lt\n      tag_286\n      jumpi\n      invalid\n    tag_286:\n      0x20\n      mul\n      0x20\n      add\n      add\n      mload\n        /* \"TimeAllyPET.sol\":8912:8921  prepaidES */\n      0x05\n        /* \"TimeAllyPET.sol\":8912:8936  prepaidES[_addresses[i]] */\n      0x00\n        /* \"TimeAllyPET.sol\":8922:8932  _addresses */\n      dup7\n        /* \"TimeAllyPET.sol\":8933:8934  i */\n      dup6\n        /* \"TimeAllyPET.sol\":8922:8935  _addresses[i] */\n      dup2\n      mload\n      dup2\n      lt\n      tag_287\n      jumpi\n      invalid\n    tag_287:\n      0x20\n      mul\n      0x20\n      add\n      add\n      mload\n        /* \"TimeAllyPET.sol\":8912:8936  prepaidES[_addresses[i]] */\n      0xffffffffffffffffffffffffffffffffffffffff\n      and\n      0xffffffffffffffffffffffffffffffffffffffff\n      and\n      dup2\n      mstore\n      0x20\n      add\n      swap1\n      dup2\n      mstore\n      0x20\n      add\n      0x00\n      keccak256\n      sload\n        /* \"TimeAllyPET.sol\":8912:8940  prepaidES[_addresses[i]].add */\n      tag_130\n      swap1\n        /* \"TimeAllyPET.sol\":8912:8953  prepaidES[_addresses[i]].add(_amounts[i]) */\n      swap2\n      swap1\n      0xffffffff\n      and\n      jump\t// in\n    tag_285:\n        /* \"TimeAllyPET.sol\":8885:8894  prepaidES */\n      0x05\n        /* \"TimeAllyPET.sol\":8885:8909  prepaidES[_addresses[i]] */\n      0x00\n        /* \"TimeAllyPET.sol\":8895:8905  _addresses */\n      dup6\n        /* \"TimeAllyPET.sol\":8906:8907  i */\n      dup5\n        /* \"TimeAllyPET.sol\":8895:8908  _addresses[i] */\n      dup2\n      mload\n      dup2\n      lt\n      tag_288\n      jumpi\n      invalid\n    tag_288:\n      0x20\n      mul\n      0x20\n      add\n      add\n      mload\n        /* \"TimeAllyPET.sol\":8885:8909  prepaidES[_addresses[i]] */\n      0xffffffffffffffffffffffffffffffffffffffff\n      and\n      0xffffffffffffffffffffffffffffffffffffffff\n      and\n      dup2\n      mstore\n      0x20\n      add\n      swap1\n      dup2\n      mstore\n      0x20\n      add\n      0x00\n      keccak256\n        /* \"TimeAllyPET.sol\":8885:8953  prepaidES[_addresses[i]] = prepaidES[_addresses[i]].add(_amounts[i]) */\n      dup2\n      swap1\n      sstore\n      pop\n        /* \"TimeAllyPET.sol\":8669:8672  i++ */\n      dup1\n      dup1\n      0x01\n      add\n      swap2\n      pop\n      pop\n        /* \"TimeAllyPET.sol\":8627:8960  for(uint256 i = 0; i < _addresses.length; i++) {... */\n      jump(tag_280)\n    tag_281:\n      pop\n        /* \"TimeAllyPET.sol\":8514:8964  function sendPrepaidESDifferent(... */\n      pop\n      pop\n      jump\t// out\n        /* \"TimeAllyPET.sol\":11208:11342  function updatePlanStatus(uint256 _planId, bool _newStatus) public onlyDeployer {... */\n    tag_84:\n        /* \"TimeAllyPET.sol\":7069:7077  deployer */\n      0x00\n      dup1\n      swap1\n      sload\n      swap1\n      0x0100\n      exp\n      swap1\n      div\n      0xffffffffffffffffffffffffffffffffffffffff\n      and\n        /* \"TimeAllyPET.sol\":7055:7077  msg.sender == deployer */\n      0xffffffffffffffffffffffffffffffffffffffff\n      and\n        /* \"TimeAllyPET.sol\":7055:7065  msg.sender */\n      caller\n        /* \"TimeAllyPET.sol\":7055:7077  msg.sender == deployer */\n      0xffffffffffffffffffffffffffffffffffffffff\n      and\n      eq\n        /* \"TimeAllyPET.sol\":7047:7104  require(msg.sender == deployer, 'only deployer can call') */\n      tag_290\n      jumpi\n      mload(0x40)\n      0x08c379a000000000000000000000000000000000000000000000000000000000\n      dup2\n      mstore\n      0x04\n      add\n      dup1\n      dup1\n      0x20\n      add\n      dup3\n      dup2\n      sub\n      dup3\n      mstore\n      0x16\n      dup2\n      mstore\n      0x20\n      add\n      dup1\n      0x6f6e6c79206465706c6f7965722063616e2063616c6c00000000000000000000\n      dup2\n      mstore\n      pop\n      0x20\n      add\n      swap2\n      pop\n      pop\n      mload(0x40)\n      dup1\n      swap2\n      sub\n      swap1\n      revert\n    tag_290:\n        /* \"TimeAllyPET.sol\":11327:11337  _newStatus */\n      dup1\n        /* \"TimeAllyPET.sol\":11294:11302  petPlans */\n      0x03\n        /* \"TimeAllyPET.sol\":11303:11310  _planId */\n      dup4\n        /* \"TimeAllyPET.sol\":11294:11311  petPlans[_planId] */\n      dup2\n      sload\n      dup2\n      lt\n      tag_292\n      jumpi\n      invalid\n    tag_292:\n      swap1\n      0x00\n      mstore\n      keccak256(0x00, 0x20)\n      swap1\n      0x03\n      mul\n      add\n        /* \"TimeAllyPET.sol\":11294:11324  petPlans[_planId].isPlanActive */\n      0x00\n      add\n      0x00\n        /* \"TimeAllyPET.sol\":11294:11337  petPlans[_planId].isPlanActive = _newStatus */\n      0x0100\n      exp\n      dup2\n      sload\n      dup2\n      0xff\n      mul\n      not\n      and\n      swap1\n      dup4\n      iszero\n      iszero\n      mul\n      or\n      swap1\n      sstore\n      pop\n        /* \"TimeAllyPET.sol\":11208:11342  function updatePlanStatus(uint256 _planId, bool _newStatus) public onlyDeployer {... */\n      pop\n      pop\n      jump\t// out\n        /* \"TimeAllyPET.sol\":24974:25186  function viewAppointation(... */\n    tag_87:\n        /* \"TimeAllyPET.sol\":25104:25108  bool */\n      0x00\n        /* \"TimeAllyPET.sol\":25123:25127  pets */\n      0x04\n        /* \"TimeAllyPET.sol\":25123:25143  pets[_stakerAddress] */\n      0x00\n        /* \"TimeAllyPET.sol\":25128:25142  _stakerAddress */\n      dup6\n        /* \"TimeAllyPET.sol\":25123:25143  pets[_stakerAddress] */\n      0xffffffffffffffffffffffffffffffffffffffff\n      and\n      0xffffffffffffffffffffffffffffffffffffffff\n      and\n      dup2\n      mstore\n      0x20\n      add\n      swap1\n      dup2\n      mstore\n      0x20\n      add\n      0x00\n      keccak256\n        /* \"TimeAllyPET.sol\":25144:25150  _petId */\n      dup4\n        /* \"TimeAllyPET.sol\":25123:25151  pets[_stakerAddress][_petId] */\n      dup2\n      sload\n      dup2\n      lt\n      tag_295\n      jumpi\n      invalid\n    tag_295:\n      swap1\n      0x00\n      mstore\n      keccak256(0x00, 0x20)\n      swap1\n      0x0a\n      mul\n      add\n        /* \"TimeAllyPET.sol\":25123:25162  pets[_stakerAddress][_petId].appointees */\n      0x09\n      add\n        /* \"TimeAllyPET.sol\":25123:25181  pets[_stakerAddress][_petId].appointees[_appointeeAddress] */\n      0x00\n        /* \"TimeAllyPET.sol\":25163:25180  _appointeeAddress */\n      dup4\n        /* \"TimeAllyPET.sol\":25123:25181  pets[_stakerAddress][_petId].appointees[_appointeeAddress] */\n      0xffffffffffffffffffffffffffffffffffffffff\n      and\n      0xffffffffffffffffffffffffffffffffffffffff\n      and\n      dup2\n      mstore\n      0x20\n      add\n      swap1\n      dup2\n      mstore\n      0x20\n      add\n      0x00\n      keccak256\n      0x00\n      swap1\n      sload\n      swap1\n      0x0100\n      exp\n      swap1\n      div\n      0xff\n      and\n        /* \"TimeAllyPET.sol\":25116:25181  return pets[_stakerAddress][_petId].appointees[_appointeeAddress] */\n      swap1\n      pop\n        /* \"TimeAllyPET.sol\":24974:25186  function viewAppointation(... */\n      swap4\n      swap3\n      pop\n      pop\n      pop\n      jump\t// out\n        /* \"TimeAllyPET.sol\":4672:4697  PETPlan[] public petPlans */\n    tag_90:\n      0x03\n      dup2\n      dup2\n      sload\n      dup2\n      lt\n      tag_297\n      jumpi\n      invalid\n    tag_297:\n      swap1\n      0x00\n      mstore\n      keccak256(0x00, 0x20)\n      swap1\n      0x03\n      mul\n      add\n      0x00\n      swap2\n      pop\n      swap1\n      pop\n      dup1\n      0x00\n      add\n      0x00\n      swap1\n      sload\n      swap1\n      0x0100\n      exp\n      swap1\n      div\n      0xff\n      and\n      swap1\n      dup1\n      0x01\n      add\n      sload\n      swap1\n      dup1\n      0x02\n      add\n      sload\n      swap1\n      pop\n      dup4\n      jump\t// out\n        /* \"TimeAllyPET.sol\":22491:24171  function withdrawPowerBooster(... */\n    tag_93:\n        /* \"TimeAllyPET.sol\":22621:22635  _stakerAddress */\n      dup3\n        /* \"TimeAllyPET.sol\":22637:22643  _petId */\n      dup3\n        /* \"TimeAllyPET.sol\":7267:7283  PET storage _pet */\n      0x00\n        /* \"TimeAllyPET.sol\":7286:7290  pets */\n      0x04\n        /* \"TimeAllyPET.sol\":7286:7306  pets[_stakerAddress] */\n      0x00\n        /* \"TimeAllyPET.sol\":7291:7305  _stakerAddress */\n      dup5\n        /* \"TimeAllyPET.sol\":7286:7306  pets[_stakerAddress] */\n      0xffffffffffffffffffffffffffffffffffffffff\n      and\n      0xffffffffffffffffffffffffffffffffffffffff\n      and\n      dup2\n      mstore\n      0x20\n      add\n      swap1\n      dup2\n      mstore\n      0x20\n      add\n      0x00\n      keccak256\n        /* \"TimeAllyPET.sol\":7307:7313  _petId */\n      dup3\n        /* \"TimeAllyPET.sol\":7286:7314  pets[_stakerAddress][_petId] */\n      dup2\n      sload\n      dup2\n      lt\n      tag_300\n      jumpi\n      invalid\n    tag_300:\n      swap1\n      0x00\n      mstore\n      keccak256(0x00, 0x20)\n      swap1\n      0x0a\n      mul\n      add\n        /* \"TimeAllyPET.sol\":7267:7314  PET storage _pet = pets[_stakerAddress][_petId] */\n      swap1\n      pop\n        /* \"TimeAllyPET.sol\":7417:7431  _stakerAddress */\n      dup3\n        /* \"TimeAllyPET.sol\":7403:7431  msg.sender != _stakerAddress */\n      0xffffffffffffffffffffffffffffffffffffffff\n      and\n        /* \"TimeAllyPET.sol\":7403:7413  msg.sender */\n      caller\n        /* \"TimeAllyPET.sol\":7403:7431  msg.sender != _stakerAddress */\n      0xffffffffffffffffffffffffffffffffffffffff\n      and\n      eq\n        /* \"TimeAllyPET.sol\":7400:7512  if(msg.sender != _stakerAddress) {... */\n      tag_302\n      jumpi\n        /* \"TimeAllyPET.sol\":7449:7453  _pet */\n      dup1\n        /* \"TimeAllyPET.sol\":7449:7462  _pet.nominees */\n      0x08\n      add\n        /* \"TimeAllyPET.sol\":7449:7474  _pet.nominees[msg.sender] */\n      0x00\n        /* \"TimeAllyPET.sol\":7463:7473  msg.sender */\n      caller\n        /* \"TimeAllyPET.sol\":7449:7474  _pet.nominees[msg.sender] */\n      0xffffffffffffffffffffffffffffffffffffffff\n      and\n      0xffffffffffffffffffffffffffffffffffffffff\n      and\n      dup2\n      mstore\n      0x20\n      add\n      swap1\n      dup2\n      mstore\n      0x20\n      add\n      0x00\n      keccak256\n      0x00\n      swap1\n      sload\n      swap1\n      0x0100\n      exp\n      swap1\n      div\n      0xff\n      and\n        /* \"TimeAllyPET.sol\":7441:7505  require(_pet.nominees[msg.sender], 'nomination should be there') */\n      tag_303\n      jumpi\n      mload(0x40)\n      0x08c379a000000000000000000000000000000000000000000000000000000000\n      dup2\n      mstore\n      0x04\n      add\n      dup1\n      dup1\n      0x20\n      add\n      dup3\n      dup2\n      sub\n      dup3\n      mstore\n      0x1a\n      dup2\n      mstore\n      0x20\n      add\n      dup1\n      0x6e6f6d696e6174696f6e2073686f756c64206265207468657265000000000000\n      dup2\n      mstore\n      pop\n      0x20\n      add\n      swap2\n      pop\n      pop\n      mload(0x40)\n      dup1\n      swap2\n      sub\n      swap1\n      revert\n    tag_303:\n        /* \"TimeAllyPET.sol\":7400:7512  if(msg.sender != _stakerAddress) {... */\n    tag_302:\n        /* \"TimeAllyPET.sol\":22651:22667  PET storage _pet */\n      0x00\n        /* \"TimeAllyPET.sol\":22670:22674  pets */\n      0x04\n        /* \"TimeAllyPET.sol\":22670:22690  pets[_stakerAddress] */\n      0x00\n        /* \"TimeAllyPET.sol\":22675:22689  _stakerAddress */\n      dup9\n        /* \"TimeAllyPET.sol\":22670:22690  pets[_stakerAddress] */\n      0xffffffffffffffffffffffffffffffffffffffff\n      and\n      0xffffffffffffffffffffffffffffffffffffffff\n      and\n      dup2\n      mstore\n      0x20\n      add\n      swap1\n      dup2\n      mstore\n      0x20\n      add\n      0x00\n      keccak256\n        /* \"TimeAllyPET.sol\":22691:22697  _petId */\n      dup7\n        /* \"TimeAllyPET.sol\":22670:22698  pets[_stakerAddress][_petId] */\n      dup2\n      sload\n      dup2\n      lt\n      tag_305\n      jumpi\n      invalid\n    tag_305:\n      swap1\n      0x00\n      mstore\n      keccak256(0x00, 0x20)\n      swap1\n      0x0a\n      mul\n      add\n        /* \"TimeAllyPET.sol\":22651:22698  PET storage _pet = pets[_stakerAddress][_petId] */\n      swap1\n      pop\n        /* \"TimeAllyPET.sol\":22779:22794  _powerBoosterId */\n      dup5\n        /* \"TimeAllyPET.sol\":22774:22775  1 */\n      0x01\n        /* \"TimeAllyPET.sol\":22774:22794  1 <= _powerBoosterId */\n      gt\n      iszero\n        /* \"TimeAllyPET.sol\":22774:22819  1 <= _powerBoosterId && _powerBoosterId <= 12 */\n      dup1\n      iszero\n      tag_307\n      jumpi\n      pop\n        /* \"TimeAllyPET.sol\":22817:22819  12 */\n      0x0c\n        /* \"TimeAllyPET.sol\":22798:22813  _powerBoosterId */\n      dup6\n        /* \"TimeAllyPET.sol\":22798:22819  _powerBoosterId <= 12 */\n      gt\n      iszero\n        /* \"TimeAllyPET.sol\":22774:22819  1 <= _powerBoosterId && _powerBoosterId <= 12 */\n    tag_307:\n        /* \"TimeAllyPET.sol\":22759:22857  require(... */\n      tag_308\n      jumpi\n      mload(0x40)\n      0x08c379a000000000000000000000000000000000000000000000000000000000\n      dup2\n      mstore\n      0x04\n      add\n      dup1\n      dup1\n      0x20\n      add\n      dup3\n      dup2\n      sub\n      dup3\n      mstore\n      0x15\n      dup2\n      mstore\n      0x20\n      add\n      dup1\n      0x69642073686f756c6420626520696e2072616e67650000000000000000000000\n      dup2\n      mstore\n      pop\n      0x20\n      add\n      swap2\n      pop\n      pop\n      mload(0x40)\n      dup1\n      swap2\n      sub\n      swap1\n      revert\n    tag_308:\n        /* \"TimeAllyPET.sol\":22935:22939  _pet */\n      dup1\n        /* \"TimeAllyPET.sol\":22935:22963  _pet.isPowerBoosterWithdrawn */\n      0x07\n      add\n        /* \"TimeAllyPET.sol\":22935:22980  _pet.isPowerBoosterWithdrawn[_powerBoosterId] */\n      0x00\n        /* \"TimeAllyPET.sol\":22964:22979  _powerBoosterId */\n      dup7\n        /* \"TimeAllyPET.sol\":22935:22980  _pet.isPowerBoosterWithdrawn[_powerBoosterId] */\n      dup2\n      mstore\n      0x20\n      add\n      swap1\n      dup2\n      mstore\n      0x20\n      add\n      0x00\n      keccak256\n      0x00\n      swap1\n      sload\n      swap1\n      0x0100\n      exp\n      swap1\n      div\n      0xff\n      and\n        /* \"TimeAllyPET.sol\":22934:22980  !_pet.isPowerBoosterWithdrawn[_powerBoosterId] */\n      iszero\n        /* \"TimeAllyPET.sol\":22919:23022  require(... */\n      tag_309\n      jumpi\n      mload(0x40)\n      0x08c379a000000000000000000000000000000000000000000000000000000000\n      dup2\n      mstore\n      0x04\n      add\n      dup1\n      dup1\n      0x20\n      add\n      dup3\n      dup2\n      sub\n      dup3\n      mstore\n      0x19\n      dup2\n      mstore\n      0x20\n      add\n      dup1\n      0x626f6f7374657220616c72656164792077697468647261776e00000000000000\n      dup2\n      mstore\n      pop\n      0x20\n      add\n      swap2\n      pop\n      pop\n      mload(0x40)\n      dup1\n      swap2\n      sub\n      swap1\n      revert\n    tag_309:\n        /* \"TimeAllyPET.sol\":23143:23147  _pet */\n      dup1\n        /* \"TimeAllyPET.sol\":23143:23171  _pet.monthlyCommitmentAmount */\n      0x01\n      add\n      sload\n        /* \"TimeAllyPET.sol\":23092:23096  _pet */\n      dup2\n        /* \"TimeAllyPET.sol\":23092:23117  _pet.monthlyDepositAmount */\n      0x06\n      add\n        /* \"TimeAllyPET.sol\":23092:23139  _pet.monthlyDepositAmount[13 - _powerBoosterId] */\n      0x00\n        /* \"TimeAllyPET.sol\":23123:23138  _powerBoosterId */\n      dup8\n        /* \"TimeAllyPET.sol\":23118:23120  13 */\n      0x0d\n        /* \"TimeAllyPET.sol\":23118:23138  13 - _powerBoosterId */\n      sub\n        /* \"TimeAllyPET.sol\":23092:23139  _pet.monthlyDepositAmount[13 - _powerBoosterId] */\n      dup2\n      mstore\n      0x20\n      add\n      swap1\n      dup2\n      mstore\n      0x20\n      add\n      0x00\n      keccak256\n      sload\n        /* \"TimeAllyPET.sol\":23092:23171  _pet.monthlyDepositAmount[13 - _powerBoosterId] >= _pet.monthlyCommitmentAmount */\n      lt\n      iszero\n        /* \"TimeAllyPET.sol\":23077:23207  require(... */\n      tag_310\n      jumpi\n      mload(0x40)\n      0x08c379a000000000000000000000000000000000000000000000000000000000\n      dup2\n      mstore\n      0x04\n      add\n      dup1\n      dup1\n      0x20\n      add\n      dup3\n      dup2\n      sub\n      dup3\n      mstore\n      0x13\n      dup2\n      mstore\n      0x20\n      add\n      dup1\n      0x746172676574206e6f7420616368696576656400000000000000000000000000\n      dup2\n      mstore\n      pop\n      0x20\n      add\n      swap2\n      pop\n      pop\n      mload(0x40)\n      dup1\n      swap2\n      sub\n      swap1\n      revert\n    tag_310:\n        /* \"TimeAllyPET.sol\":23286:23311  uint256 _allowedTimestamp */\n      0x00\n        /* \"TimeAllyPET.sol\":23314:23409  getNomineeAllowedTimestamp(... */\n      tag_311\n        /* \"TimeAllyPET.sol\":23348:23362  _stakerAddress */\n      dup9\n        /* \"TimeAllyPET.sol\":23370:23376  _petId */\n      dup9\n        /* \"TimeAllyPET.sol\":23402:23403  1 */\n      0x01\n        /* \"TimeAllyPET.sol\":23400:23401  5 */\n      0x05\n        /* \"TimeAllyPET.sol\":23384:23399  _powerBoosterId */\n      dup11\n        /* \"TimeAllyPET.sol\":23384:23401  _powerBoosterId*5 */\n      mul\n        /* \"TimeAllyPET.sol\":23384:23403  _powerBoosterId*5+1 */\n      add\n        /* \"TimeAllyPET.sol\":23314:23340  getNomineeAllowedTimestamp */\n      tag_72\n        /* \"TimeAllyPET.sol\":23314:23409  getNomineeAllowedTimestamp(... */\n      jump\t// in\n    tag_311:\n        /* \"TimeAllyPET.sol\":23286:23409  uint256 _allowedTimestamp = getNomineeAllowedTimestamp(... */\n      swap1\n      pop\n        /* \"TimeAllyPET.sol\":23506:23523  _allowedTimestamp */\n      dup1\n        /* \"TimeAllyPET.sol\":23491:23496  token */\n      0x02\n      0x00\n      swap1\n      sload\n      swap1\n      0x0100\n      exp\n      swap1\n      div\n      0xffffffffffffffffffffffffffffffffffffffff\n      and\n        /* \"TimeAllyPET.sol\":23491:23500  token.mou */\n      0xffffffffffffffffffffffffffffffffffffffff\n      and\n      0xb81f90f3\n        /* \"TimeAllyPET.sol\":23491:23502  token.mou() */\n      mload(0x40)\n      dup2\n      0xffffffff\n      and\n      0xe0\n      shl\n      dup2\n      mstore\n      0x04\n      add\n      0x20\n      mload(0x40)\n      dup1\n      dup4\n      sub\n      dup2\n      dup7\n      dup1\n      extcodesize\n      iszero\n        /* \"--CODEGEN--\":8:17   */\n      dup1\n        /* \"--CODEGEN--\":5:7   */\n      iszero\n      tag_312\n      jumpi\n        /* \"--CODEGEN--\":30:31   */\n      0x00\n        /* \"--CODEGEN--\":27:28   */\n      dup1\n        /* \"--CODEGEN--\":20:32   */\n      revert\n        /* \"--CODEGEN--\":5:7   */\n    tag_312:\n        /* \"TimeAllyPET.sol\":23491:23502  token.mou() */\n      pop\n      gas\n      staticcall\n      iszero\n        /* \"--CODEGEN--\":8:17   */\n      dup1\n        /* \"--CODEGEN--\":5:7   */\n      iszero\n      tag_314\n      jumpi\n        /* \"--CODEGEN--\":45:61   */\n      returndatasize\n        /* \"--CODEGEN--\":42:43   */\n      0x00\n        /* \"--CODEGEN--\":39:40   */\n      dup1\n        /* \"--CODEGEN--\":24:62   */\n      returndatacopy\n        /* \"--CODEGEN--\":77:93   */\n      returndatasize\n        /* \"--CODEGEN--\":74:75   */\n      0x00\n        /* \"--CODEGEN--\":67:94   */\n      revert\n        /* \"--CODEGEN--\":5:7   */\n    tag_314:\n        /* \"TimeAllyPET.sol\":23491:23502  token.mou() */\n      pop\n      pop\n      pop\n      pop\n      mload(0x40)\n      returndatasize\n        /* \"--CODEGEN--\":13:15   */\n      0x20\n        /* \"--CODEGEN--\":8:11   */\n      dup2\n        /* \"--CODEGEN--\":5:16   */\n      lt\n        /* \"--CODEGEN--\":2:4   */\n      iszero\n      tag_315\n      jumpi\n        /* \"--CODEGEN--\":29:30   */\n      0x00\n        /* \"--CODEGEN--\":26:27   */\n      dup1\n        /* \"--CODEGEN--\":19:31   */\n      revert\n        /* \"--CODEGEN--\":2:4   */\n    tag_315:\n        /* \"TimeAllyPET.sol\":23491:23502  token.mou() */\n      dup2\n      add\n      swap1\n      dup1\n      dup1\n      mload\n      swap1\n      0x20\n      add\n      swap1\n      swap3\n      swap2\n      swap1\n      pop\n      pop\n      pop\n        /* \"TimeAllyPET.sol\":23491:23523  token.mou() >= _allowedTimestamp */\n      lt\n      iszero\n        /* \"TimeAllyPET.sol\":23476:23561  require(... */\n      tag_316\n      jumpi\n      mload(0x40)\n      0x08c379a000000000000000000000000000000000000000000000000000000000\n      dup2\n      mstore\n      0x04\n      add\n      dup1\n      dup1\n      0x20\n      add\n      dup3\n      dup2\n      sub\n      dup3\n      mstore\n      0x15\n      dup2\n      mstore\n      0x20\n      add\n      dup1\n      0x63616e6e6f74207769746864726177206561726c790000000000000000000000\n      dup2\n      mstore\n      pop\n      0x20\n      add\n      swap2\n      pop\n      pop\n      mload(0x40)\n      dup1\n      swap2\n      sub\n      swap1\n      revert\n    tag_316:\n        /* \"TimeAllyPET.sol\":23617:23644  uint256 _powerBoosterAmount */\n      0x00\n        /* \"TimeAllyPET.sol\":23647:23698  calculatePowerBoosterAmount(_stakerAddress, _petId) */\n      tag_317\n        /* \"TimeAllyPET.sol\":23675:23689  _stakerAddress */\n      dup10\n        /* \"TimeAllyPET.sol\":23691:23697  _petId */\n      dup10\n        /* \"TimeAllyPET.sol\":23647:23674  calculatePowerBoosterAmount */\n      tag_63\n        /* \"TimeAllyPET.sol\":23647:23698  calculatePowerBoosterAmount(_stakerAddress, _petId) */\n      jump\t// in\n    tag_317:\n        /* \"TimeAllyPET.sol\":23617:23698  uint256 _powerBoosterAmount = calculatePowerBoosterAmount(_stakerAddress, _petId) */\n      swap1\n      pop\n        /* \"TimeAllyPET.sol\":23804:23808  true */\n      0x01\n        /* \"TimeAllyPET.sol\":23756:23760  _pet */\n      dup4\n        /* \"TimeAllyPET.sol\":23756:23784  _pet.isPowerBoosterWithdrawn */\n      0x07\n      add\n        /* \"TimeAllyPET.sol\":23756:23801  _pet.isPowerBoosterWithdrawn[_powerBoosterId] */\n      0x00\n        /* \"TimeAllyPET.sol\":23785:23800  _powerBoosterId */\n      dup10\n        /* \"TimeAllyPET.sol\":23756:23801  _pet.isPowerBoosterWithdrawn[_powerBoosterId] */\n      dup2\n      mstore\n      0x20\n      add\n      swap1\n      dup2\n      mstore\n      0x20\n      add\n      0x00\n      keccak256\n      0x00\n        /* \"TimeAllyPET.sol\":23756:23808  _pet.isPowerBoosterWithdrawn[_powerBoosterId] = true */\n      0x0100\n      exp\n      dup2\n      sload\n      dup2\n      0xff\n      mul\n      not\n      and\n      swap1\n      dup4\n      iszero\n      iszero\n      mul\n      or\n      swap1\n      sstore\n      pop\n        /* \"TimeAllyPET.sol\":23840:23841  0 */\n      0x00\n        /* \"TimeAllyPET.sol\":23818:23837  _powerBoosterAmount */\n      dup2\n        /* \"TimeAllyPET.sol\":23818:23841  _powerBoosterAmount > 0 */\n      gt\n        /* \"TimeAllyPET.sol\":23815:23990  if(_powerBoosterAmount > 0) {... */\n      iszero\n      tag_318\n      jumpi\n        /* \"TimeAllyPET.sol\":23936:23941  token */\n      0x02\n      0x00\n      swap1\n      sload\n      swap1\n      0x0100\n      exp\n      swap1\n      div\n      0xffffffffffffffffffffffffffffffffffffffff\n      and\n        /* \"TimeAllyPET.sol\":23936:23950  token.transfer */\n      0xffffffffffffffffffffffffffffffffffffffff\n      and\n      0xa9059cbb\n        /* \"TimeAllyPET.sol\":23951:23961  msg.sender */\n      caller\n        /* \"TimeAllyPET.sol\":23963:23982  _powerBoosterAmount */\n      dup4\n        /* \"TimeAllyPET.sol\":23936:23983  token.transfer(msg.sender, _powerBoosterAmount) */\n      mload(0x40)\n      dup4\n      0xffffffff\n      and\n      0xe0\n      shl\n      dup2\n      mstore\n      0x04\n      add\n      dup1\n      dup4\n      0xffffffffffffffffffffffffffffffffffffffff\n      and\n      0xffffffffffffffffffffffffffffffffffffffff\n      and\n      dup2\n      mstore\n      0x20\n      add\n      dup3\n      dup2\n      mstore\n      0x20\n      add\n      swap3\n      pop\n      pop\n      pop\n      0x20\n      mload(0x40)\n      dup1\n      dup4\n      sub\n      dup2\n      0x00\n      dup8\n      dup1\n      extcodesize\n      iszero\n        /* \"--CODEGEN--\":8:17   */\n      dup1\n        /* \"--CODEGEN--\":5:7   */\n      iszero\n      tag_319\n      jumpi\n        /* \"--CODEGEN--\":30:31   */\n      0x00\n        /* \"--CODEGEN--\":27:28   */\n      dup1\n        /* \"--CODEGEN--\":20:32   */\n      revert\n        /* \"--CODEGEN--\":5:7   */\n    tag_319:\n        /* \"TimeAllyPET.sol\":23936:23983  token.transfer(msg.sender, _powerBoosterAmount) */\n      pop\n      gas\n      call\n      iszero\n        /* \"--CODEGEN--\":8:17   */\n      dup1\n        /* \"--CODEGEN--\":5:7   */\n      iszero\n      tag_321\n      jumpi\n        /* \"--CODEGEN--\":45:61   */\n      returndatasize\n        /* \"--CODEGEN--\":42:43   */\n      0x00\n        /* \"--CODEGEN--\":39:40   */\n      dup1\n        /* \"--CODEGEN--\":24:62   */\n      returndatacopy\n        /* \"--CODEGEN--\":77:93   */\n      returndatasize\n        /* \"--CODEGEN--\":74:75   */\n      0x00\n        /* \"--CODEGEN--\":67:94   */\n      revert\n        /* \"--CODEGEN--\":5:7   */\n    tag_321:\n        /* \"TimeAllyPET.sol\":23936:23983  token.transfer(msg.sender, _powerBoosterAmount) */\n      pop\n      pop\n      pop\n      pop\n      mload(0x40)\n      returndatasize\n        /* \"--CODEGEN--\":13:15   */\n      0x20\n        /* \"--CODEGEN--\":8:11   */\n      dup2\n        /* \"--CODEGEN--\":5:16   */\n      lt\n        /* \"--CODEGEN--\":2:4   */\n      iszero\n      tag_322\n      jumpi\n        /* \"--CODEGEN--\":29:30   */\n      0x00\n        /* \"--CODEGEN--\":26:27   */\n      dup1\n        /* \"--CODEGEN--\":19:31   */\n      revert\n        /* \"--CODEGEN--\":2:4   */\n    tag_322:\n        /* \"TimeAllyPET.sol\":23936:23983  token.transfer(msg.sender, _powerBoosterAmount) */\n      dup2\n      add\n      swap1\n      dup1\n      dup1\n      mload\n      swap1\n      0x20\n      add\n      swap1\n      swap3\n      swap2\n      swap1\n      pop\n      pop\n      pop\n      pop\n        /* \"TimeAllyPET.sol\":23815:23990  if(_powerBoosterAmount > 0) {... */\n    tag_318:\n        /* \"TimeAllyPET.sol\":24086:24092  _petId */\n      dup8\n        /* \"TimeAllyPET.sol\":24064:24078  _stakerAddress */\n      dup10\n        /* \"TimeAllyPET.sol\":24035:24166  PowerBoosterWithdrawl(... */\n      0xffffffffffffffffffffffffffffffffffffffff\n      and\n      0xa1c568ef1602bc58c1e32ea2f1251b87874dce947f5d4f4df53677d06d5bf56d\n        /* \"TimeAllyPET.sol\":24100:24115  _powerBoosterId */\n      dup10\n        /* \"TimeAllyPET.sol\":24123:24142  _powerBoosterAmount */\n      dup5\n        /* \"TimeAllyPET.sol\":24150:24160  msg.sender */\n      caller\n        /* \"TimeAllyPET.sol\":24035:24166  PowerBoosterWithdrawl(... */\n      mload(0x40)\n      dup1\n      dup5\n      dup2\n      mstore\n      0x20\n      add\n      dup4\n      dup2\n      mstore\n      0x20\n      add\n      dup3\n      0xffffffffffffffffffffffffffffffffffffffff\n      and\n      0xffffffffffffffffffffffffffffffffffffffff\n      and\n      dup2\n      mstore\n      0x20\n      add\n      swap4\n      pop\n      pop\n      pop\n      pop\n      mload(0x40)\n      dup1\n      swap2\n      sub\n      swap1\n      log3\n        /* \"TimeAllyPET.sol\":7517:7518  _ */\n      pop\n      pop\n      pop\n        /* \"TimeAllyPET.sol\":22491:24171  function withdrawPowerBooster(... */\n      pop\n      pop\n      pop\n      pop\n      pop\n      pop\n      jump\t// out\n        /* \"TimeAllyPET.sol\":13408:14003  function appointeeVote(... */\n    tag_96:\n        /* \"TimeAllyPET.sol\":13496:13512  PET storage _pet */\n      0x00\n        /* \"TimeAllyPET.sol\":13515:13519  pets */\n      0x04\n        /* \"TimeAllyPET.sol\":13515:13535  pets[_stakerAddress] */\n      0x00\n        /* \"TimeAllyPET.sol\":13520:13534  _stakerAddress */\n      dup5\n        /* \"TimeAllyPET.sol\":13515:13535  pets[_stakerAddress] */\n      0xffffffffffffffffffffffffffffffffffffffff\n      and\n      0xffffffffffffffffffffffffffffffffffffffff\n      and\n      dup2\n      mstore\n      0x20\n      add\n      swap1\n      dup2\n      mstore\n      0x20\n      add\n      0x00\n      keccak256\n        /* \"TimeAllyPET.sol\":13536:13542  _petId */\n      dup3\n        /* \"TimeAllyPET.sol\":13515:13543  pets[_stakerAddress][_petId] */\n      dup2\n      sload\n      dup2\n      lt\n      tag_324\n      jumpi\n      invalid\n    tag_324:\n      swap1\n      0x00\n      mstore\n      keccak256(0x00, 0x20)\n      swap1\n      0x0a\n      mul\n      add\n        /* \"TimeAllyPET.sol\":13496:13543  PET storage _pet = pets[_stakerAddress][_petId] */\n      swap1\n      pop\n        /* \"TimeAllyPET.sol\":13622:13626  _pet */\n      dup1\n        /* \"TimeAllyPET.sol\":13622:13637  _pet.appointees */\n      0x09\n      add\n        /* \"TimeAllyPET.sol\":13622:13649  _pet.appointees[msg.sender] */\n      0x00\n        /* \"TimeAllyPET.sol\":13638:13648  msg.sender */\n      caller\n        /* \"TimeAllyPET.sol\":13622:13649  _pet.appointees[msg.sender] */\n      0xffffffffffffffffffffffffffffffffffffffff\n      and\n      0xffffffffffffffffffffffffffffffffffffffff\n      and\n      dup2\n      mstore\n      0x20\n      add\n      swap1\n      dup2\n      mstore\n      0x20\n      add\n      0x00\n      keccak256\n      0x00\n      swap1\n      sload\n      swap1\n      0x0100\n      exp\n      swap1\n      div\n      0xff\n      and\n        /* \"TimeAllyPET.sol\":13614:13698  require(_pet.appointees[msg.sender]... */\n      tag_326\n      jumpi\n      mload(0x40)\n      0x08c379a000000000000000000000000000000000000000000000000000000000\n      dup2\n      mstore\n      0x04\n      add\n      dup1\n      dup1\n      0x20\n      add\n      dup3\n      dup2\n      sub\n      dup3\n      mstore\n      0x20\n      dup2\n      mstore\n      0x20\n      add\n      dup1\n      0x73686f756c64206265206170706f696e74656520746f206361737420766f7465\n      dup2\n      mstore\n      pop\n      0x20\n      add\n      swap2\n      pop\n      pop\n      mload(0x40)\n      dup1\n      swap2\n      sub\n      swap1\n      revert\n    tag_326:\n        /* \"TimeAllyPET.sol\":13793:13798  false */\n      0x00\n        /* \"TimeAllyPET.sol\":13763:13767  _pet */\n      dup2\n        /* \"TimeAllyPET.sol\":13763:13778  _pet.appointees */\n      0x09\n      add\n        /* \"TimeAllyPET.sol\":13763:13790  _pet.appointees[msg.sender] */\n      0x00\n        /* \"TimeAllyPET.sol\":13779:13789  msg.sender */\n      caller\n        /* \"TimeAllyPET.sol\":13763:13790  _pet.appointees[msg.sender] */\n      0xffffffffffffffffffffffffffffffffffffffff\n      and\n      0xffffffffffffffffffffffffffffffffffffffff\n      and\n      dup2\n      mstore\n      0x20\n      add\n      swap1\n      dup2\n      mstore\n      0x20\n      add\n      0x00\n      keccak256\n      0x00\n        /* \"TimeAllyPET.sol\":13763:13798  _pet.appointees[msg.sender] = false */\n      0x0100\n      exp\n      dup2\n      sload\n      dup2\n      0xff\n      mul\n      not\n      and\n      swap1\n      dup4\n      iszero\n      iszero\n      mul\n      or\n      swap1\n      sstore\n      pop\n        /* \"TimeAllyPET.sol\":13864:13890  _pet.appointeeVotes.add(1) */\n      tag_327\n        /* \"TimeAllyPET.sol\":13888:13889  1 */\n      0x01\n        /* \"TimeAllyPET.sol\":13864:13868  _pet */\n      dup3\n        /* \"TimeAllyPET.sol\":13864:13883  _pet.appointeeVotes */\n      0x04\n      add\n      sload\n        /* \"TimeAllyPET.sol\":13864:13887  _pet.appointeeVotes.add */\n      tag_130\n      swap1\n        /* \"TimeAllyPET.sol\":13864:13890  _pet.appointeeVotes.add(1) */\n      swap2\n      swap1\n      0xffffffff\n      and\n      jump\t// in\n    tag_327:\n        /* \"TimeAllyPET.sol\":13842:13846  _pet */\n      dup2\n        /* \"TimeAllyPET.sol\":13842:13861  _pet.appointeeVotes */\n      0x04\n      add\n        /* \"TimeAllyPET.sol\":13842:13890  _pet.appointeeVotes = _pet.appointeeVotes.add(1) */\n      dup2\n      swap1\n      sstore\n      pop\n        /* \"TimeAllyPET.sol\":13987:13997  msg.sender */\n      caller\n        /* \"TimeAllyPET.sol\":13948:13998  AppointeeVoted(_stakerAddress, _petId, msg.sender) */\n      0xffffffffffffffffffffffffffffffffffffffff\n      and\n        /* \"TimeAllyPET.sol\":13979:13985  _petId */\n      dup3\n        /* \"TimeAllyPET.sol\":13963:13977  _stakerAddress */\n      dup5\n        /* \"TimeAllyPET.sol\":13948:13998  AppointeeVoted(_stakerAddress, _petId, msg.sender) */\n      0xffffffffffffffffffffffffffffffffffffffff\n      and\n      0x57e90b4a498a7310fab91955c915f3f15a0d1a94b296f824da9443d524ea2e1b\n      mload(0x40)\n      mload(0x40)\n      dup1\n      swap2\n      sub\n      swap1\n      log4\n        /* \"TimeAllyPET.sol\":13408:14003  function appointeeVote(... */\n      pop\n      pop\n      pop\n      jump\t// out\n        /* \"TimeAllyPET.sol\":12311:13141  function toogleAppointee(... */\n    tag_99:\n        /* \"TimeAllyPET.sol\":12434:12450  PET storage _pet */\n      0x00\n        /* \"TimeAllyPET.sol\":12453:12457  pets */\n      0x04\n        /* \"TimeAllyPET.sol\":12453:12469  pets[msg.sender] */\n      0x00\n        /* \"TimeAllyPET.sol\":12458:12468  msg.sender */\n      caller\n        /* \"TimeAllyPET.sol\":12453:12469  pets[msg.sender] */\n      0xffffffffffffffffffffffffffffffffffffffff\n      and\n      0xffffffffffffffffffffffffffffffffffffffff\n      and\n      dup2\n      mstore\n      0x20\n      add\n      swap1\n      dup2\n      mstore\n      0x20\n      add\n      0x00\n      keccak256\n        /* \"TimeAllyPET.sol\":12470:12476  _petId */\n      dup5\n        /* \"TimeAllyPET.sol\":12453:12477  pets[msg.sender][_petId] */\n      dup2\n      sload\n      dup2\n      lt\n      tag_329\n      jumpi\n      invalid\n    tag_329:\n      swap1\n      0x00\n      mstore\n      keccak256(0x00, 0x20)\n      swap1\n      0x0a\n      mul\n      add\n        /* \"TimeAllyPET.sol\":12434:12477  PET storage _pet = pets[msg.sender][_petId] */\n      swap1\n      pop\n        /* \"TimeAllyPET.sol\":12582:12586  _pet */\n      dup1\n        /* \"TimeAllyPET.sol\":12582:12597  _pet.appointees */\n      0x09\n      add\n        /* \"TimeAllyPET.sol\":12582:12616  _pet.appointees[_appointeeAddress] */\n      0x00\n        /* \"TimeAllyPET.sol\":12598:12615  _appointeeAddress */\n      dup5\n        /* \"TimeAllyPET.sol\":12582:12616  _pet.appointees[_appointeeAddress] */\n      0xffffffffffffffffffffffffffffffffffffffff\n      and\n      0xffffffffffffffffffffffffffffffffffffffff\n      and\n      dup2\n      mstore\n      0x20\n      add\n      swap1\n      dup2\n      mstore\n      0x20\n      add\n      0x00\n      keccak256\n      0x00\n      swap1\n      sload\n      swap1\n      0x0100\n      exp\n      swap1\n      div\n      0xff\n      and\n        /* \"TimeAllyPET.sol\":12581:12616  !_pet.appointees[_appointeeAddress] */\n      iszero\n        /* \"TimeAllyPET.sol\":12581:12639  !_pet.appointees[_appointeeAddress] && _newAppointeeStatus */\n      dup1\n      iszero\n      tag_331\n      jumpi\n      pop\n        /* \"TimeAllyPET.sol\":12620:12639  _newAppointeeStatus */\n      dup2\n        /* \"TimeAllyPET.sol\":12581:12639  !_pet.appointees[_appointeeAddress] && _newAppointeeStatus */\n    tag_331:\n        /* \"TimeAllyPET.sol\":12578:13049  if(!_pet.appointees[_appointeeAddress] && _newAppointeeStatus) {... */\n      iszero\n      tag_332\n      jumpi\n        /* \"TimeAllyPET.sol\":12675:12705  _pet.numberOfAppointees.add(1) */\n      tag_333\n        /* \"TimeAllyPET.sol\":12703:12704  1 */\n      0x01\n        /* \"TimeAllyPET.sol\":12675:12679  _pet */\n      dup3\n        /* \"TimeAllyPET.sol\":12675:12698  _pet.numberOfAppointees */\n      0x05\n      add\n      sload\n        /* \"TimeAllyPET.sol\":12675:12702  _pet.numberOfAppointees.add */\n      tag_130\n      swap1\n        /* \"TimeAllyPET.sol\":12675:12705  _pet.numberOfAppointees.add(1) */\n      swap2\n      swap1\n      0xffffffff\n      and\n      jump\t// in\n    tag_333:\n        /* \"TimeAllyPET.sol\":12649:12653  _pet */\n      dup2\n        /* \"TimeAllyPET.sol\":12649:12672  _pet.numberOfAppointees */\n      0x05\n      add\n        /* \"TimeAllyPET.sol\":12649:12705  _pet.numberOfAppointees = _pet.numberOfAppointees.add(1) */\n      dup2\n      swap1\n      sstore\n      pop\n        /* \"TimeAllyPET.sol\":12750:12754  true */\n      0x01\n        /* \"TimeAllyPET.sol\":12713:12717  _pet */\n      dup2\n        /* \"TimeAllyPET.sol\":12713:12728  _pet.appointees */\n      0x09\n      add\n        /* \"TimeAllyPET.sol\":12713:12747  _pet.appointees[_appointeeAddress] */\n      0x00\n        /* \"TimeAllyPET.sol\":12729:12746  _appointeeAddress */\n      dup6\n        /* \"TimeAllyPET.sol\":12713:12747  _pet.appointees[_appointeeAddress] */\n      0xffffffffffffffffffffffffffffffffffffffff\n      and\n      0xffffffffffffffffffffffffffffffffffffffff\n      and\n      dup2\n      mstore\n      0x20\n      add\n      swap1\n      dup2\n      mstore\n      0x20\n      add\n      0x00\n      keccak256\n      0x00\n        /* \"TimeAllyPET.sol\":12713:12754  _pet.appointees[_appointeeAddress] = true */\n      0x0100\n      exp\n      dup2\n      sload\n      dup2\n      0xff\n      mul\n      not\n      and\n      swap1\n      dup4\n      iszero\n      iszero\n      mul\n      or\n      swap1\n      sstore\n      pop\n        /* \"TimeAllyPET.sol\":12578:13049  if(!_pet.appointees[_appointeeAddress] && _newAppointeeStatus) {... */\n      jump(tag_334)\n    tag_332:\n        /* \"TimeAllyPET.sol\":12868:12872  _pet */\n      dup1\n        /* \"TimeAllyPET.sol\":12868:12883  _pet.appointees */\n      0x09\n      add\n        /* \"TimeAllyPET.sol\":12868:12902  _pet.appointees[_appointeeAddress] */\n      0x00\n        /* \"TimeAllyPET.sol\":12884:12901  _appointeeAddress */\n      dup5\n        /* \"TimeAllyPET.sol\":12868:12902  _pet.appointees[_appointeeAddress] */\n      0xffffffffffffffffffffffffffffffffffffffff\n      and\n      0xffffffffffffffffffffffffffffffffffffffff\n      and\n      dup2\n      mstore\n      0x20\n      add\n      swap1\n      dup2\n      mstore\n      0x20\n      add\n      0x00\n      keccak256\n      0x00\n      swap1\n      sload\n      swap1\n      0x0100\n      exp\n      swap1\n      div\n      0xff\n      and\n        /* \"TimeAllyPET.sol\":12868:12926  _pet.appointees[_appointeeAddress] && !_newAppointeeStatus */\n      dup1\n      iszero\n      tag_335\n      jumpi\n      pop\n        /* \"TimeAllyPET.sol\":12907:12926  _newAppointeeStatus */\n      dup2\n        /* \"TimeAllyPET.sol\":12906:12926  !_newAppointeeStatus */\n      iszero\n        /* \"TimeAllyPET.sol\":12868:12926  _pet.appointees[_appointeeAddress] && !_newAppointeeStatus */\n    tag_335:\n        /* \"TimeAllyPET.sol\":12865:13049  if(_pet.appointees[_appointeeAddress] && !_newAppointeeStatus) {... */\n      iszero\n      tag_336\n      jumpi\n        /* \"TimeAllyPET.sol\":12973:12978  false */\n      0x00\n        /* \"TimeAllyPET.sol\":12936:12940  _pet */\n      dup2\n        /* \"TimeAllyPET.sol\":12936:12951  _pet.appointees */\n      0x09\n      add\n        /* \"TimeAllyPET.sol\":12936:12970  _pet.appointees[_appointeeAddress] */\n      0x00\n        /* \"TimeAllyPET.sol\":12952:12969  _appointeeAddress */\n      dup6\n        /* \"TimeAllyPET.sol\":12936:12970  _pet.appointees[_appointeeAddress] */\n      0xffffffffffffffffffffffffffffffffffffffff\n      and\n      0xffffffffffffffffffffffffffffffffffffffff\n      and\n      dup2\n      mstore\n      0x20\n      add\n      swap1\n      dup2\n      mstore\n      0x20\n      add\n      0x00\n      keccak256\n      0x00\n        /* \"TimeAllyPET.sol\":12936:12978  _pet.appointees[_appointeeAddress] = false */\n      0x0100\n      exp\n      dup2\n      sload\n      dup2\n      0xff\n      mul\n      not\n      and\n      swap1\n      dup4\n      iszero\n      iszero\n      mul\n      or\n      swap1\n      sstore\n      pop\n        /* \"TimeAllyPET.sol\":13012:13042  _pet.numberOfAppointees.sub(1) */\n      tag_337\n        /* \"TimeAllyPET.sol\":13040:13041  1 */\n      0x01\n        /* \"TimeAllyPET.sol\":13012:13016  _pet */\n      dup3\n        /* \"TimeAllyPET.sol\":13012:13035  _pet.numberOfAppointees */\n      0x05\n      add\n      sload\n        /* \"TimeAllyPET.sol\":13012:13039  _pet.numberOfAppointees.sub */\n      tag_123\n      swap1\n        /* \"TimeAllyPET.sol\":13012:13042  _pet.numberOfAppointees.sub(1) */\n      swap2\n      swap1\n      0xffffffff\n      and\n      jump\t// in\n    tag_337:\n        /* \"TimeAllyPET.sol\":12986:12990  _pet */\n      dup2\n        /* \"TimeAllyPET.sol\":12986:13009  _pet.numberOfAppointees */\n      0x05\n      add\n        /* \"TimeAllyPET.sol\":12986:13042  _pet.numberOfAppointees = _pet.numberOfAppointees.sub(1) */\n      dup2\n      swap1\n      sstore\n      pop\n        /* \"TimeAllyPET.sol\":12865:13049  if(_pet.appointees[_appointeeAddress] && !_newAppointeeStatus) {... */\n    tag_336:\n        /* \"TimeAllyPET.sol\":12578:13049  if(!_pet.appointees[_appointeeAddress] && _newAppointeeStatus) {... */\n    tag_334:\n        /* \"TimeAllyPET.sol\":13097:13114  _appointeeAddress */\n      dup3\n        /* \"TimeAllyPET.sol\":13060:13136  AppointeeUpdated(msg.sender, _petId, _appointeeAddress, _newAppointeeStatus) */\n      0xffffffffffffffffffffffffffffffffffffffff\n      and\n        /* \"TimeAllyPET.sol\":13089:13095  _petId */\n      dup5\n        /* \"TimeAllyPET.sol\":13077:13087  msg.sender */\n      caller\n        /* \"TimeAllyPET.sol\":13060:13136  AppointeeUpdated(msg.sender, _petId, _appointeeAddress, _newAppointeeStatus) */\n      0xffffffffffffffffffffffffffffffffffffffff\n      and\n      0xf7a6207b27953eff117f9b7c03e363d41370a45e2b626d2aa32c6a0ac6365782\n        /* \"TimeAllyPET.sol\":13116:13135  _newAppointeeStatus */\n      dup6\n        /* \"TimeAllyPET.sol\":13060:13136  AppointeeUpdated(msg.sender, _petId, _appointeeAddress, _newAppointeeStatus) */\n      mload(0x40)\n      dup1\n      dup3\n      iszero\n      iszero\n      iszero\n      iszero\n      dup2\n      mstore\n      0x20\n      add\n      swap2\n      pop\n      pop\n      mload(0x40)\n      dup1\n      swap2\n      sub\n      swap1\n      log4\n        /* \"TimeAllyPET.sol\":12311:13141  function toogleAppointee(... */\n      pop\n      pop\n      pop\n      pop\n      jump\t// out\n        /* \"TimeAllyPET.sol\":4238:4261  address public deployer */\n    tag_101:\n      0x00\n      dup1\n      swap1\n      sload\n      swap1\n      0x0100\n      exp\n      swap1\n      div\n      0xffffffffffffffffffffffffffffffffffffffff\n      and\n      dup2\n      jump\t// out\n        /* \"TimeAllyPET.sol\":26490:26706  function getMonthlyDepositedAmount(... */\n    tag_104:\n        /* \"TimeAllyPET.sol\":26620:26627  uint256 */\n      0x00\n        /* \"TimeAllyPET.sol\":26642:26646  pets */\n      0x04\n        /* \"TimeAllyPET.sol\":26642:26662  pets[_stakerAddress] */\n      0x00\n        /* \"TimeAllyPET.sol\":26647:26661  _stakerAddress */\n      dup6\n        /* \"TimeAllyPET.sol\":26642:26662  pets[_stakerAddress] */\n      0xffffffffffffffffffffffffffffffffffffffff\n      and\n      0xffffffffffffffffffffffffffffffffffffffff\n      and\n      dup2\n      mstore\n      0x20\n      add\n      swap1\n      dup2\n      mstore\n      0x20\n      add\n      0x00\n      keccak256\n        /* \"TimeAllyPET.sol\":26663:26669  _petId */\n      dup4\n        /* \"TimeAllyPET.sol\":26642:26670  pets[_stakerAddress][_petId] */\n      dup2\n      sload\n      dup2\n      lt\n      tag_339\n      jumpi\n      invalid\n    tag_339:\n      swap1\n      0x00\n      mstore\n      keccak256(0x00, 0x20)\n      swap1\n      0x0a\n      mul\n      add\n        /* \"TimeAllyPET.sol\":26642:26691  pets[_stakerAddress][_petId].monthlyDepositAmount */\n      0x06\n      add\n        /* \"TimeAllyPET.sol\":26642:26701  pets[_stakerAddress][_petId].monthlyDepositAmount[_monthId] */\n      0x00\n        /* \"TimeAllyPET.sol\":26692:26700  _monthId */\n      dup4\n        /* \"TimeAllyPET.sol\":26642:26701  pets[_stakerAddress][_petId].monthlyDepositAmount[_monthId] */\n      dup2\n      mstore\n      0x20\n      add\n      swap1\n      dup2\n      mstore\n      0x20\n      add\n      0x00\n      keccak256\n      sload\n        /* \"TimeAllyPET.sol\":26635:26701  return pets[_stakerAddress][_petId].monthlyDepositAmount[_monthId] */\n      swap1\n      pop\n        /* \"TimeAllyPET.sol\":26490:26706  function getMonthlyDepositedAmount(... */\n      swap4\n      swap3\n      pop\n      pop\n      pop\n      jump\t// out\n        /* \"TimeAllyPET.sol\":4872:4916  mapping(address => uint256) public prepaidES */\n    tag_107:\n      mstore(0x20, 0x05)\n      dup1\n      0x00\n      mstore\n      keccak256(0x00, 0x40)\n      0x00\n      swap2\n      pop\n      swap1\n      pop\n      sload\n      dup2\n      jump\t// out\n        /* \"TimeAllyPET.sol\":4462:4480  ERC20 public token */\n    tag_109:\n      0x02\n      0x00\n      swap1\n      sload\n      swap1\n      0x0100\n      exp\n      swap1\n      div\n      0xffffffffffffffffffffffffffffffffffffffff\n      and\n      dup2\n      jump\t// out\n        /* \"SafeMath.sol\":1274:1408  function sub(uint256 a, uint256 b) internal pure returns (uint256) {... */\n    tag_123:\n        /* \"SafeMath.sol\":1332:1339  uint256 */\n      0x00\n        /* \"SafeMath.sol\":1358:1401  sub(a, b, \"SafeMath: subtraction overflow\") */\n      tag_342\n        /* \"SafeMath.sol\":1362:1363  a */\n      dup4\n        /* \"SafeMath.sol\":1365:1366  b */\n      dup4\n        /* \"SafeMath.sol\":1358:1401  sub(a, b, \"SafeMath: subtraction overflow\") */\n      mload(0x40)\n      dup1\n      0x40\n      add\n      0x40\n      mstore\n      dup1\n      0x1e\n      dup2\n      mstore\n      0x20\n      add\n      0x536166654d6174683a207375627472616374696f6e206f766572666c6f770000\n      dup2\n      mstore\n      pop\n        /* \"SafeMath.sol\":1358:1361  sub */\n      tag_343\n        /* \"SafeMath.sol\":1358:1401  sub(a, b, \"SafeMath: subtraction overflow\") */\n      jump\t// in\n    tag_342:\n        /* \"SafeMath.sol\":1351:1401  return sub(a, b, \"SafeMath: subtraction overflow\") */\n      swap1\n      pop\n        /* \"SafeMath.sol\":1274:1408  function sub(uint256 a, uint256 b) internal pure returns (uint256) {... */\n      swap3\n      swap2\n      pop\n      pop\n      jump\t// out\n        /* \"SafeMath.sol\":834:1010  function add(uint256 a, uint256 b) internal pure returns (uint256) {... */\n    tag_130:\n        /* \"SafeMath.sol\":892:899  uint256 */\n      0x00\n        /* \"SafeMath.sol\":911:920  uint256 c */\n      dup1\n        /* \"SafeMath.sol\":927:928  b */\n      dup3\n        /* \"SafeMath.sol\":923:924  a */\n      dup5\n        /* \"SafeMath.sol\":923:928  a + b */\n      add\n        /* \"SafeMath.sol\":911:928  uint256 c = a + b */\n      swap1\n      pop\n        /* \"SafeMath.sol\":951:952  a */\n      dup4\n        /* \"SafeMath.sol\":946:947  c */\n      dup2\n        /* \"SafeMath.sol\":946:952  c >= a */\n      lt\n      iszero\n        /* \"SafeMath.sol\":938:984  require(c >= a, \"SafeMath: addition overflow\") */\n      tag_345\n      jumpi\n      mload(0x40)\n      0x08c379a000000000000000000000000000000000000000000000000000000000\n      dup2\n      mstore\n      0x04\n      add\n      dup1\n      dup1\n      0x20\n      add\n      dup3\n      dup2\n      sub\n      dup3\n      mstore\n      0x1b\n      dup2\n      mstore\n      0x20\n      add\n      dup1\n      0x536166654d6174683a206164646974696f6e206f766572666c6f770000000000\n      dup2\n      mstore\n      pop\n      0x20\n      add\n      swap2\n      pop\n      pop\n      mload(0x40)\n      dup1\n      swap2\n      sub\n      swap1\n      revert\n    tag_345:\n        /* \"SafeMath.sol\":1002:1003  c */\n      dup1\n        /* \"SafeMath.sol\":995:1003  return c */\n      swap2\n      pop\n      pop\n        /* \"SafeMath.sol\":834:1010  function add(uint256 a, uint256 b) internal pure returns (uint256) {... */\n      swap3\n      swap2\n      pop\n      pop\n      jump\t// out\n        /* \"SafeMath.sol\":3185:3315  function div(uint256 a, uint256 b) internal pure returns (uint256) {... */\n    tag_135:\n        /* \"SafeMath.sol\":3243:3250  uint256 */\n      0x00\n        /* \"SafeMath.sol\":3269:3308  div(a, b, \"SafeMath: division by zero\") */\n      tag_347\n        /* \"SafeMath.sol\":3273:3274  a */\n      dup4\n        /* \"SafeMath.sol\":3276:3277  b */\n      dup4\n        /* \"SafeMath.sol\":3269:3308  div(a, b, \"SafeMath: division by zero\") */\n      mload(0x40)\n      dup1\n      0x40\n      add\n      0x40\n      mstore\n      dup1\n      0x1a\n      dup2\n      mstore\n      0x20\n      add\n      0x536166654d6174683a206469766973696f6e206279207a65726f000000000000\n      dup2\n      mstore\n      pop\n        /* \"SafeMath.sol\":3269:3272  div */\n      tag_348\n        /* \"SafeMath.sol\":3269:3308  div(a, b, \"SafeMath: division by zero\") */\n      jump\t// in\n    tag_347:\n        /* \"SafeMath.sol\":3262:3308  return div(a, b, \"SafeMath: division by zero\") */\n      swap1\n      pop\n        /* \"SafeMath.sol\":3185:3315  function div(uint256 a, uint256 b) internal pure returns (uint256) {... */\n      swap3\n      swap2\n      pop\n      pop\n      jump\t// out\n        /* \"TimeAllyPET.sol\":30805:32433  function _getBenefitAllocationByDepositAmount(... */\n    tag_139:\n        /* \"TimeAllyPET.sol\":30954:30961  uint256 */\n      0x00\n        /* \"TimeAllyPET.sol\":30969:30984  uint256 _planId */\n      dup1\n        /* \"TimeAllyPET.sol\":30987:30991  _pet */\n      dup5\n        /* \"TimeAllyPET.sol\":30987:30998  _pet.planId */\n      0x00\n      add\n      sload\n        /* \"TimeAllyPET.sol\":30969:30998  uint256 _planId = _pet.planId */\n      swap1\n      pop\n        /* \"TimeAllyPET.sol\":31004:31019  uint256 _amount */\n      0x00\n        /* \"TimeAllyPET.sol\":31040:31041  0 */\n      dup1\n        /* \"TimeAllyPET.sol\":31022:31036  _depositAmount */\n      dup6\n        /* \"TimeAllyPET.sol\":31022:31041  _depositAmount != 0 */\n      eq\n      iszero\n        /* \"TimeAllyPET.sol\":31022:31107  _depositAmount != 0... */\n      tag_350\n      jumpi\n        /* \"TimeAllyPET.sol\":31067:31071  _pet */\n      dup6\n        /* \"TimeAllyPET.sol\":31067:31092  _pet.monthlyDepositAmount */\n      0x06\n      add\n        /* \"TimeAllyPET.sol\":31067:31107  _pet.monthlyDepositAmount[_depositMonth] */\n      0x00\n        /* \"TimeAllyPET.sol\":31093:31106  _depositMonth */\n      dup6\n        /* \"TimeAllyPET.sol\":31067:31107  _pet.monthlyDepositAmount[_depositMonth] */\n      dup2\n      mstore\n      0x20\n      add\n      swap1\n      dup2\n      mstore\n      0x20\n      add\n      0x00\n      keccak256\n      sload\n        /* \"TimeAllyPET.sol\":31022:31107  _depositAmount != 0... */\n      jump(tag_351)\n    tag_350:\n        /* \"TimeAllyPET.sol\":31050:31064  _depositAmount */\n      dup5\n        /* \"TimeAllyPET.sol\":31022:31107  _depositAmount != 0... */\n    tag_351:\n        /* \"TimeAllyPET.sol\":31004:31107  uint256 _amount = _depositAmount != 0... */\n      swap1\n      pop\n        /* \"TimeAllyPET.sol\":31113:31145  uint256 _monthlyCommitmentAmount */\n      0x00\n        /* \"TimeAllyPET.sol\":31148:31152  _pet */\n      dup7\n        /* \"TimeAllyPET.sol\":31148:31176  _pet.monthlyCommitmentAmount */\n      0x01\n      add\n      sload\n        /* \"TimeAllyPET.sol\":31113:31176  uint256 _monthlyCommitmentAmount = _pet.monthlyCommitmentAmount */\n      swap1\n      pop\n        /* \"TimeAllyPET.sol\":31182:31206  PETPlan storage _petPlan */\n      0x00\n        /* \"TimeAllyPET.sol\":31209:31217  petPlans */\n      0x03\n        /* \"TimeAllyPET.sol\":31218:31225  _planId */\n      dup5\n        /* \"TimeAllyPET.sol\":31209:31226  petPlans[_planId] */\n      dup2\n      sload\n      dup2\n      lt\n      tag_352\n      jumpi\n      invalid\n    tag_352:\n      swap1\n      0x00\n      mstore\n      keccak256(0x00, 0x20)\n      swap1\n      0x03\n      mul\n      add\n        /* \"TimeAllyPET.sol\":31182:31226  PETPlan storage _petPlan = petPlans[_planId] */\n      swap1\n      pop\n        /* \"TimeAllyPET.sol\":31233:31251  uint256 _petAmount */\n      0x00\n        /* \"TimeAllyPET.sol\":31355:31379  _monthlyCommitmentAmount */\n      dup3\n        /* \"TimeAllyPET.sol\":31345:31352  _amount */\n      dup5\n        /* \"TimeAllyPET.sol\":31345:31379  _amount > _monthlyCommitmentAmount */\n      gt\n        /* \"TimeAllyPET.sol\":31342:31759  if(_amount > _monthlyCommitmentAmount) {... */\n      iszero\n      tag_354\n      jumpi\n        /* \"TimeAllyPET.sol\":31389:31409  uint256 _topupAmount */\n      0x00\n        /* \"TimeAllyPET.sol\":31412:31449  _amount.sub(_monthlyCommitmentAmount) */\n      tag_355\n        /* \"TimeAllyPET.sol\":31424:31448  _monthlyCommitmentAmount */\n      dup5\n        /* \"TimeAllyPET.sol\":31412:31419  _amount */\n      dup7\n        /* \"TimeAllyPET.sol\":31412:31423  _amount.sub */\n      tag_123\n      swap1\n        /* \"TimeAllyPET.sol\":31412:31449  _amount.sub(_monthlyCommitmentAmount) */\n      swap2\n      swap1\n      0xffffffff\n      and\n      jump\t// in\n    tag_355:\n        /* \"TimeAllyPET.sol\":31389:31449  uint256 _topupAmount = _amount.sub(_monthlyCommitmentAmount) */\n      swap1\n      pop\n        /* \"TimeAllyPET.sol\":31470:31519  _monthlyCommitmentAmount.add(_topupAmount.div(2)) */\n      tag_356\n        /* \"TimeAllyPET.sol\":31499:31518  _topupAmount.div(2) */\n      tag_357\n        /* \"TimeAllyPET.sol\":31516:31517  2 */\n      0x02\n        /* \"TimeAllyPET.sol\":31499:31511  _topupAmount */\n      dup4\n        /* \"TimeAllyPET.sol\":31499:31515  _topupAmount.div */\n      tag_135\n      swap1\n        /* \"TimeAllyPET.sol\":31499:31518  _topupAmount.div(2) */\n      swap2\n      swap1\n      0xffffffff\n      and\n      jump\t// in\n    tag_357:\n        /* \"TimeAllyPET.sol\":31470:31494  _monthlyCommitmentAmount */\n      dup6\n        /* \"TimeAllyPET.sol\":31470:31498  _monthlyCommitmentAmount.add */\n      tag_130\n      swap1\n        /* \"TimeAllyPET.sol\":31470:31519  _monthlyCommitmentAmount.add(_topupAmount.div(2)) */\n      swap2\n      swap1\n      0xffffffff\n      and\n      jump\t// in\n    tag_356:\n        /* \"TimeAllyPET.sol\":31457:31519  _petAmount = _monthlyCommitmentAmount.add(_topupAmount.div(2)) */\n      swap2\n      pop\n        /* \"TimeAllyPET.sol\":31342:31759  if(_amount > _monthlyCommitmentAmount) {... */\n      pop\n      jump(tag_358)\n    tag_354:\n        /* \"TimeAllyPET.sol\":31691:31722  _monthlyCommitmentAmount.div(2) */\n      tag_359\n        /* \"TimeAllyPET.sol\":31720:31721  2 */\n      0x02\n        /* \"TimeAllyPET.sol\":31691:31715  _monthlyCommitmentAmount */\n      dup5\n        /* \"TimeAllyPET.sol\":31691:31719  _monthlyCommitmentAmount.div */\n      tag_135\n      swap1\n        /* \"TimeAllyPET.sol\":31691:31722  _monthlyCommitmentAmount.div(2) */\n      swap2\n      swap1\n      0xffffffff\n      and\n      jump\t// in\n    tag_359:\n        /* \"TimeAllyPET.sol\":31680:31687  _amount */\n      dup5\n        /* \"TimeAllyPET.sol\":31680:31722  _amount >= _monthlyCommitmentAmount.div(2) */\n      lt\n        /* \"TimeAllyPET.sol\":31677:31759  if(_amount >= _monthlyCommitmentAmount.div(2)) {... */\n      tag_360\n      jumpi\n        /* \"TimeAllyPET.sol\":31745:31752  _amount */\n      dup4\n        /* \"TimeAllyPET.sol\":31732:31752  _petAmount = _amount */\n      swap1\n      pop\n        /* \"TimeAllyPET.sol\":31677:31759  if(_amount >= _monthlyCommitmentAmount.div(2)) {... */\n    tag_360:\n        /* \"TimeAllyPET.sol\":31342:31759  if(_amount > _monthlyCommitmentAmount) {... */\n    tag_358:\n        /* \"TimeAllyPET.sol\":31831:31865  uint256 _depositAmountIncludingPET */\n      0x00\n        /* \"TimeAllyPET.sol\":31868:31951  _getTotalDepositedIncludingPET(... */\n      tag_361\n        /* \"TimeAllyPET.sol\":31906:31913  _amount */\n      dup6\n        /* \"TimeAllyPET.sol\":31921:31945  _monthlyCommitmentAmount */\n      dup6\n        /* \"TimeAllyPET.sol\":31868:31898  _getTotalDepositedIncludingPET */\n      tag_250\n        /* \"TimeAllyPET.sol\":31868:31951  _getTotalDepositedIncludingPET(... */\n      jump\t// in\n    tag_361:\n        /* \"TimeAllyPET.sol\":31831:31951  uint256 _depositAmountIncludingPET = _getTotalDepositedIncludingPET(... */\n      swap1\n      pop\n        /* \"TimeAllyPET.sol\":32044:32070  uint256 _benefitAllocation */\n      0x00\n        /* \"TimeAllyPET.sol\":32073:32083  _petAmount */\n      dup3\n        /* \"TimeAllyPET.sol\":32044:32083  uint256 _benefitAllocation = _petAmount */\n      swap1\n      pop\n        /* \"TimeAllyPET.sol\":32176:32207  _monthlyCommitmentAmount.div(2) */\n      tag_362\n        /* \"TimeAllyPET.sol\":32205:32206  2 */\n      0x02\n        /* \"TimeAllyPET.sol\":32176:32200  _monthlyCommitmentAmount */\n      dup7\n        /* \"TimeAllyPET.sol\":32176:32204  _monthlyCommitmentAmount.div */\n      tag_135\n      swap1\n        /* \"TimeAllyPET.sol\":32176:32207  _monthlyCommitmentAmount.div(2) */\n      swap2\n      swap1\n      0xffffffff\n      and\n      jump\t// in\n    tag_362:\n        /* \"TimeAllyPET.sol\":32165:32172  _amount */\n      dup7\n        /* \"TimeAllyPET.sol\":32165:32207  _amount >= _monthlyCommitmentAmount.div(2) */\n      lt\n      iszero\n        /* \"TimeAllyPET.sol\":32165:32230  _amount >= _monthlyCommitmentAmount.div(2) || _depositMonth == 12 */\n      dup1\n      tag_363\n      jumpi\n      pop\n        /* \"TimeAllyPET.sol\":32228:32230  12 */\n      0x0c\n        /* \"TimeAllyPET.sol\":32211:32224  _depositMonth */\n      dup10\n        /* \"TimeAllyPET.sol\":32211:32230  _depositMonth == 12 */\n      eq\n        /* \"TimeAllyPET.sol\":32165:32230  _amount >= _monthlyCommitmentAmount.div(2) || _depositMonth == 12 */\n    tag_363:\n        /* \"TimeAllyPET.sol\":32162:32397  if(_amount >= _monthlyCommitmentAmount.div(2) || _depositMonth == 12) {... */\n      iszero\n      tag_364\n      jumpi\n        /* \"TimeAllyPET.sol\":32261:32390  _benefitAllocation.add(... */\n      tag_365\n        /* \"TimeAllyPET.sol\":32293:32382  _depositAmountIncludingPET.mul(_petPlan.monthlyBenefitFactorPerThousand).mul(5).div(1000) */\n      tag_366\n        /* \"TimeAllyPET.sol\":32377:32381  1000 */\n      0x03e8\n        /* \"TimeAllyPET.sol\":32293:32372  _depositAmountIncludingPET.mul(_petPlan.monthlyBenefitFactorPerThousand).mul(5) */\n      tag_367\n        /* \"TimeAllyPET.sol\":32370:32371  5 */\n      0x05\n        /* \"TimeAllyPET.sol\":32293:32365  _depositAmountIncludingPET.mul(_petPlan.monthlyBenefitFactorPerThousand) */\n      tag_368\n        /* \"TimeAllyPET.sol\":32324:32332  _petPlan */\n      dup10\n        /* \"TimeAllyPET.sol\":32324:32364  _petPlan.monthlyBenefitFactorPerThousand */\n      0x02\n      add\n      sload\n        /* \"TimeAllyPET.sol\":32293:32319  _depositAmountIncludingPET */\n      dup9\n        /* \"TimeAllyPET.sol\":32293:32323  _depositAmountIncludingPET.mul */\n      tag_233\n      swap1\n        /* \"TimeAllyPET.sol\":32293:32365  _depositAmountIncludingPET.mul(_petPlan.monthlyBenefitFactorPerThousand) */\n      swap2\n      swap1\n      0xffffffff\n      and\n      jump\t// in\n    tag_368:\n        /* \"TimeAllyPET.sol\":32293:32369  _depositAmountIncludingPET.mul(_petPlan.monthlyBenefitFactorPerThousand).mul */\n      tag_233\n      swap1\n        /* \"TimeAllyPET.sol\":32293:32372  _depositAmountIncludingPET.mul(_petPlan.monthlyBenefitFactorPerThousand).mul(5) */\n      swap2\n      swap1\n      0xffffffff\n      and\n      jump\t// in\n    tag_367:\n        /* \"TimeAllyPET.sol\":32293:32376  _depositAmountIncludingPET.mul(_petPlan.monthlyBenefitFactorPerThousand).mul(5).div */\n      tag_135\n      swap1\n        /* \"TimeAllyPET.sol\":32293:32382  _depositAmountIncludingPET.mul(_petPlan.monthlyBenefitFactorPerThousand).mul(5).div(1000) */\n      swap2\n      swap1\n      0xffffffff\n      and\n      jump\t// in\n    tag_366:\n        /* \"TimeAllyPET.sol\":32261:32279  _benefitAllocation */\n      dup3\n        /* \"TimeAllyPET.sol\":32261:32283  _benefitAllocation.add */\n      tag_130\n      swap1\n        /* \"TimeAllyPET.sol\":32261:32390  _benefitAllocation.add(... */\n      swap2\n      swap1\n      0xffffffff\n      and\n      jump\t// in\n    tag_365:\n        /* \"TimeAllyPET.sol\":32240:32390  _benefitAllocation = _benefitAllocation.add(... */\n      swap1\n      pop\n        /* \"TimeAllyPET.sol\":32162:32397  if(_amount >= _monthlyCommitmentAmount.div(2) || _depositMonth == 12) {... */\n    tag_364:\n        /* \"TimeAllyPET.sol\":32410:32428  _benefitAllocation */\n      dup1\n        /* \"TimeAllyPET.sol\":32403:32428  return _benefitAllocation */\n      swap8\n      pop\n      pop\n      pop\n      pop\n      pop\n      pop\n      pop\n      pop\n        /* \"TimeAllyPET.sol\":30805:32433  function _getBenefitAllocationByDepositAmount(... */\n      swap4\n      swap3\n      pop\n      pop\n      pop\n      jump\t// out\n        /* \"TimeAllyPET.sol\":29598:30421  function _burnPenalisedPowerBoosterTokens(... */\n    tag_197:\n        /* \"TimeAllyPET.sol\":29765:29781  PET storage _pet */\n      0x00\n        /* \"TimeAllyPET.sol\":29784:29788  pets */\n      0x04\n        /* \"TimeAllyPET.sol\":29784:29804  pets[_stakerAddress] */\n      0x00\n        /* \"TimeAllyPET.sol\":29789:29803  _stakerAddress */\n      dup5\n        /* \"TimeAllyPET.sol\":29784:29804  pets[_stakerAddress] */\n      0xffffffffffffffffffffffffffffffffffffffff\n      and\n      0xffffffffffffffffffffffffffffffffffffffff\n      and\n      dup2\n      mstore\n      0x20\n      add\n      swap1\n      dup2\n      mstore\n      0x20\n      add\n      0x00\n      keccak256\n        /* \"TimeAllyPET.sol\":29805:29811  _petId */\n      dup3\n        /* \"TimeAllyPET.sol\":29784:29812  pets[_stakerAddress][_petId] */\n      dup2\n      sload\n      dup2\n      lt\n      tag_370\n      jumpi\n      invalid\n    tag_370:\n      swap1\n      0x00\n      mstore\n      keccak256(0x00, 0x20)\n      swap1\n      0x0a\n      mul\n      add\n        /* \"TimeAllyPET.sol\":29765:29812  PET storage _pet = pets[_stakerAddress][_petId] */\n      swap1\n      pop\n        /* \"TimeAllyPET.sol\":29819:29848  uint256 _unachieveTargetCount */\n      0x00\n        /* \"TimeAllyPET.sol\":29916:29926  uint256 _i */\n      dup1\n        /* \"TimeAllyPET.sol\":29929:29930  1 */\n      0x01\n        /* \"TimeAllyPET.sol\":29916:29930  uint256 _i = 1 */\n      swap1\n      pop\n        /* \"TimeAllyPET.sol\":29912:30069  for(uint256 _i = 1; _i <= 12; _i++) {... */\n    tag_372:\n        /* \"TimeAllyPET.sol\":29938:29940  12 */\n      0x0c\n        /* \"TimeAllyPET.sol\":29932:29934  _i */\n      dup2\n        /* \"TimeAllyPET.sol\":29932:29940  _i <= 12 */\n      gt\n        /* \"TimeAllyPET.sol\":29912:30069  for(uint256 _i = 1; _i <= 12; _i++) {... */\n      tag_373\n      jumpi\n        /* \"TimeAllyPET.sol\":29991:29995  _pet */\n      dup3\n        /* \"TimeAllyPET.sol\":29991:30019  _pet.monthlyCommitmentAmount */\n      0x01\n      add\n      sload\n        /* \"TimeAllyPET.sol\":29959:29963  _pet */\n      dup4\n        /* \"TimeAllyPET.sol\":29959:29984  _pet.monthlyDepositAmount */\n      0x06\n      add\n        /* \"TimeAllyPET.sol\":29959:29988  _pet.monthlyDepositAmount[_i] */\n      0x00\n        /* \"TimeAllyPET.sol\":29985:29987  _i */\n      dup4\n        /* \"TimeAllyPET.sol\":29959:29988  _pet.monthlyDepositAmount[_i] */\n      dup2\n      mstore\n      0x20\n      add\n      swap1\n      dup2\n      mstore\n      0x20\n      add\n      0x00\n      keccak256\n      sload\n        /* \"TimeAllyPET.sol\":29959:30019  _pet.monthlyDepositAmount[_i] < _pet.monthlyCommitmentAmount */\n      lt\n        /* \"TimeAllyPET.sol\":29956:30063  if(_pet.monthlyDepositAmount[_i] < _pet.monthlyCommitmentAmount) {... */\n      iszero\n      tag_375\n      jumpi\n        /* \"TimeAllyPET.sol\":30031:30054  _unachieveTargetCount++ */\n      dup2\n      dup1\n      0x01\n      add\n      swap3\n      pop\n      pop\n        /* \"TimeAllyPET.sol\":29956:30063  if(_pet.monthlyDepositAmount[_i] < _pet.monthlyCommitmentAmount) {... */\n    tag_375:\n        /* \"TimeAllyPET.sol\":29942:29946  _i++ */\n      dup1\n      dup1\n      0x01\n      add\n      swap2\n      pop\n      pop\n        /* \"TimeAllyPET.sol\":29912:30069  for(uint256 _i = 1; _i <= 12; _i++) {... */\n      jump(tag_372)\n    tag_373:\n      pop\n        /* \"TimeAllyPET.sol\":30075:30102  uint256 _powerBoosterAmount */\n      0x00\n        /* \"TimeAllyPET.sol\":30105:30156  calculatePowerBoosterAmount(_stakerAddress, _petId) */\n      tag_376\n        /* \"TimeAllyPET.sol\":30133:30147  _stakerAddress */\n      dup6\n        /* \"TimeAllyPET.sol\":30149:30155  _petId */\n      dup6\n        /* \"TimeAllyPET.sol\":30105:30132  calculatePowerBoosterAmount */\n      tag_63\n        /* \"TimeAllyPET.sol\":30105:30156  calculatePowerBoosterAmount(_stakerAddress, _petId) */\n      jump\t// in\n    tag_376:\n        /* \"TimeAllyPET.sol\":30075:30156  uint256 _powerBoosterAmount = calculatePowerBoosterAmount(_stakerAddress, _petId) */\n      swap1\n      pop\n        /* \"TimeAllyPET.sol\":30217:30239  uint256 _burningAmount */\n      0x00\n        /* \"TimeAllyPET.sol\":30242:30288  _powerBoosterAmount.mul(_unachieveTargetCount) */\n      tag_377\n        /* \"TimeAllyPET.sol\":30266:30287  _unachieveTargetCount */\n      dup4\n        /* \"TimeAllyPET.sol\":30242:30261  _powerBoosterAmount */\n      dup4\n        /* \"TimeAllyPET.sol\":30242:30265  _powerBoosterAmount.mul */\n      tag_233\n      swap1\n        /* \"TimeAllyPET.sol\":30242:30288  _powerBoosterAmount.mul(_unachieveTargetCount) */\n      swap2\n      swap1\n      0xffffffff\n      and\n      jump\t// in\n    tag_377:\n        /* \"TimeAllyPET.sol\":30217:30288  uint256 _burningAmount = _powerBoosterAmount.mul(_unachieveTargetCount) */\n      swap1\n      pop\n        /* \"TimeAllyPET.sol\":30294:30299  token */\n      0x02\n      0x00\n      swap1\n      sload\n      swap1\n      0x0100\n      exp\n      swap1\n      div\n      0xffffffffffffffffffffffffffffffffffffffff\n      and\n        /* \"TimeAllyPET.sol\":30294:30304  token.burn */\n      0xffffffffffffffffffffffffffffffffffffffff\n      and\n      0x42966c68\n        /* \"TimeAllyPET.sol\":30305:30319  _burningAmount */\n      dup3\n        /* \"TimeAllyPET.sol\":30294:30320  token.burn(_burningAmount) */\n      mload(0x40)\n      dup3\n      0xffffffff\n      and\n      0xe0\n      shl\n      dup2\n      mstore\n      0x04\n      add\n      dup1\n      dup3\n      dup2\n      mstore\n      0x20\n      add\n      swap2\n      pop\n      pop\n      0x00\n      mload(0x40)\n      dup1\n      dup4\n      sub\n      dup2\n      0x00\n      dup8\n      dup1\n      extcodesize\n      iszero\n        /* \"--CODEGEN--\":8:17   */\n      dup1\n        /* \"--CODEGEN--\":5:7   */\n      iszero\n      tag_378\n      jumpi\n        /* \"--CODEGEN--\":30:31   */\n      0x00\n        /* \"--CODEGEN--\":27:28   */\n      dup1\n        /* \"--CODEGEN--\":20:32   */\n      revert\n        /* \"--CODEGEN--\":5:7   */\n    tag_378:\n        /* \"TimeAllyPET.sol\":30294:30320  token.burn(_burningAmount) */\n      pop\n      gas\n      call\n      iszero\n        /* \"--CODEGEN--\":8:17   */\n      dup1\n        /* \"--CODEGEN--\":5:7   */\n      iszero\n      tag_380\n      jumpi\n        /* \"--CODEGEN--\":45:61   */\n      returndatasize\n        /* \"--CODEGEN--\":42:43   */\n      0x00\n        /* \"--CODEGEN--\":39:40   */\n      dup1\n        /* \"--CODEGEN--\":24:62   */\n      returndatacopy\n        /* \"--CODEGEN--\":77:93   */\n      returndatasize\n        /* \"--CODEGEN--\":74:75   */\n      0x00\n        /* \"--CODEGEN--\":67:94   */\n      revert\n        /* \"--CODEGEN--\":5:7   */\n    tag_380:\n        /* \"TimeAllyPET.sol\":30294:30320  token.burn(_burningAmount) */\n      pop\n      pop\n      pop\n      pop\n        /* \"TimeAllyPET.sol\":30365:30416  BoosterBurn(_stakerAddress, _petId, _burningAmount) */\n      0xd5d3899d9ec9513f6566105e58d4a87a89e47bce6bb44c2ade5df7cb3413ccf7\n        /* \"TimeAllyPET.sol\":30377:30391  _stakerAddress */\n      dup7\n        /* \"TimeAllyPET.sol\":30393:30399  _petId */\n      dup7\n        /* \"TimeAllyPET.sol\":30401:30415  _burningAmount */\n      dup4\n        /* \"TimeAllyPET.sol\":30365:30416  BoosterBurn(_stakerAddress, _petId, _burningAmount) */\n      mload(0x40)\n      dup1\n      dup5\n      0xffffffffffffffffffffffffffffffffffffffff\n      and\n      0xffffffffffffffffffffffffffffffffffffffff\n      and\n      dup2\n      mstore\n      0x20\n      add\n      dup4\n      dup2\n      mstore\n      0x20\n      add\n      dup3\n      dup2\n      mstore\n      0x20\n      add\n      swap4\n      pop\n      pop\n      pop\n      pop\n      mload(0x40)\n      dup1\n      swap2\n      sub\n      swap1\n      log1\n        /* \"TimeAllyPET.sol\":29598:30421  function _burnPenalisedPowerBoosterTokens(... */\n      pop\n      pop\n      pop\n      pop\n      pop\n      pop\n      jump\t// out\n        /* \"SafeMath.sol\":2271:2730  function mul(uint256 a, uint256 b) internal pure returns (uint256) {... */\n    tag_233:\n        /* \"SafeMath.sol\":2329:2336  uint256 */\n      0x00\n        /* \"SafeMath.sol\":2575:2576  0 */\n      dup1\n        /* \"SafeMath.sol\":2570:2571  a */\n      dup4\n        /* \"SafeMath.sol\":2570:2576  a == 0 */\n      eq\n        /* \"SafeMath.sol\":2566:2611  if (a == 0) {... */\n      iszero\n      tag_382\n      jumpi\n        /* \"SafeMath.sol\":2599:2600  0 */\n      0x00\n        /* \"SafeMath.sol\":2592:2600  return 0 */\n      swap1\n      pop\n      jump(tag_381)\n        /* \"SafeMath.sol\":2566:2611  if (a == 0) {... */\n    tag_382:\n        /* \"SafeMath.sol\":2621:2630  uint256 c */\n      0x00\n        /* \"SafeMath.sol\":2637:2638  b */\n      dup3\n        /* \"SafeMath.sol\":2633:2634  a */\n      dup5\n        /* \"SafeMath.sol\":2633:2638  a * b */\n      mul\n        /* \"SafeMath.sol\":2621:2638  uint256 c = a * b */\n      swap1\n      pop\n        /* \"SafeMath.sol\":2665:2666  b */\n      dup3\n        /* \"SafeMath.sol\":2660:2661  a */\n      dup5\n        /* \"SafeMath.sol\":2656:2657  c */\n      dup3\n        /* \"SafeMath.sol\":2656:2661  c / a */\n      dup2\n      tag_383\n      jumpi\n      invalid\n    tag_383:\n      div\n        /* \"SafeMath.sol\":2656:2666  c / a == b */\n      eq\n        /* \"SafeMath.sol\":2648:2704  require(c / a == b, \"SafeMath: multiplication overflow\") */\n      tag_384\n      jumpi\n      mload(0x40)\n      0x08c379a000000000000000000000000000000000000000000000000000000000\n      dup2\n      mstore\n      0x04\n      add\n      dup1\n      dup1\n      0x20\n      add\n      dup3\n      dup2\n      sub\n      dup3\n      mstore\n      0x21\n      dup2\n      mstore\n      0x20\n      add\n      dup1\n      data_9113bb53c2876a3805b2c9242029423fc540a728243ce887ab24c82cf119fba3\n      0x21\n      swap2\n      codecopy\n      0x40\n      add\n      swap2\n      pop\n      pop\n      mload(0x40)\n      dup1\n      swap2\n      sub\n      swap1\n      revert\n    tag_384:\n        /* \"SafeMath.sol\":2722:2723  c */\n      dup1\n        /* \"SafeMath.sol\":2715:2723  return c */\n      swap2\n      pop\n      pop\n        /* \"SafeMath.sol\":2271:2730  function mul(uint256 a, uint256 b) internal pure returns (uint256) {... */\n    tag_381:\n      swap3\n      swap2\n      pop\n      pop\n      jump\t// out\n        /* \"TimeAllyPET.sol\":32730:33488  function _getTotalDepositedIncludingPET(... */\n    tag_250:\n        /* \"TimeAllyPET.sol\":32855:32862  uint256 */\n      0x00\n        /* \"TimeAllyPET.sol\":32870:32888  uint256 _petAmount */\n      dup1\n        /* \"TimeAllyPET.sol\":32972:32996  _monthlyCommitmentAmount */\n      dup3\n        /* \"TimeAllyPET.sol\":32962:32969  _amount */\n      dup5\n        /* \"TimeAllyPET.sol\":32962:32996  _amount > _monthlyCommitmentAmount */\n      gt\n        /* \"TimeAllyPET.sol\":32959:33376  if(_amount > _monthlyCommitmentAmount) {... */\n      iszero\n      tag_386\n      jumpi\n        /* \"TimeAllyPET.sol\":33006:33026  uint256 _topupAmount */\n      0x00\n        /* \"TimeAllyPET.sol\":33029:33066  _amount.sub(_monthlyCommitmentAmount) */\n      tag_387\n        /* \"TimeAllyPET.sol\":33041:33065  _monthlyCommitmentAmount */\n      dup5\n        /* \"TimeAllyPET.sol\":33029:33036  _amount */\n      dup7\n        /* \"TimeAllyPET.sol\":33029:33040  _amount.sub */\n      tag_123\n      swap1\n        /* \"TimeAllyPET.sol\":33029:33066  _amount.sub(_monthlyCommitmentAmount) */\n      swap2\n      swap1\n      0xffffffff\n      and\n      jump\t// in\n    tag_387:\n        /* \"TimeAllyPET.sol\":33006:33066  uint256 _topupAmount = _amount.sub(_monthlyCommitmentAmount) */\n      swap1\n      pop\n        /* \"TimeAllyPET.sol\":33087:33136  _monthlyCommitmentAmount.add(_topupAmount.div(2)) */\n      tag_388\n        /* \"TimeAllyPET.sol\":33116:33135  _topupAmount.div(2) */\n      tag_389\n        /* \"TimeAllyPET.sol\":33133:33134  2 */\n      0x02\n        /* \"TimeAllyPET.sol\":33116:33128  _topupAmount */\n      dup4\n        /* \"TimeAllyPET.sol\":33116:33132  _topupAmount.div */\n      tag_135\n      swap1\n        /* \"TimeAllyPET.sol\":33116:33135  _topupAmount.div(2) */\n      swap2\n      swap1\n      0xffffffff\n      and\n      jump\t// in\n    tag_389:\n        /* \"TimeAllyPET.sol\":33087:33111  _monthlyCommitmentAmount */\n      dup6\n        /* \"TimeAllyPET.sol\":33087:33115  _monthlyCommitmentAmount.add */\n      tag_130\n      swap1\n        /* \"TimeAllyPET.sol\":33087:33136  _monthlyCommitmentAmount.add(_topupAmount.div(2)) */\n      swap2\n      swap1\n      0xffffffff\n      and\n      jump\t// in\n    tag_388:\n        /* \"TimeAllyPET.sol\":33074:33136  _petAmount = _monthlyCommitmentAmount.add(_topupAmount.div(2)) */\n      swap2\n      pop\n        /* \"TimeAllyPET.sol\":32959:33376  if(_amount > _monthlyCommitmentAmount) {... */\n      pop\n      jump(tag_390)\n    tag_386:\n        /* \"TimeAllyPET.sol\":33308:33339  _monthlyCommitmentAmount.div(2) */\n      tag_391\n        /* \"TimeAllyPET.sol\":33337:33338  2 */\n      0x02\n        /* \"TimeAllyPET.sol\":33308:33332  _monthlyCommitmentAmount */\n      dup5\n        /* \"TimeAllyPET.sol\":33308:33336  _monthlyCommitmentAmount.div */\n      tag_135\n      swap1\n        /* \"TimeAllyPET.sol\":33308:33339  _monthlyCommitmentAmount.div(2) */\n      swap2\n      swap1\n      0xffffffff\n      and\n      jump\t// in\n    tag_391:\n        /* \"TimeAllyPET.sol\":33297:33304  _amount */\n      dup5\n        /* \"TimeAllyPET.sol\":33297:33339  _amount >= _monthlyCommitmentAmount.div(2) */\n      lt\n        /* \"TimeAllyPET.sol\":33294:33376  if(_amount >= _monthlyCommitmentAmount.div(2)) {... */\n      tag_392\n      jumpi\n        /* \"TimeAllyPET.sol\":33362:33369  _amount */\n      dup4\n        /* \"TimeAllyPET.sol\":33349:33369  _petAmount = _amount */\n      swap1\n      pop\n        /* \"TimeAllyPET.sol\":33294:33376  if(_amount >= _monthlyCommitmentAmount.div(2)) {... */\n    tag_392:\n        /* \"TimeAllyPET.sol\":32959:33376  if(_amount > _monthlyCommitmentAmount) {... */\n    tag_390:\n        /* \"TimeAllyPET.sol\":33460:33483  _amount.add(_petAmount) */\n      tag_393\n        /* \"TimeAllyPET.sol\":33472:33482  _petAmount */\n      dup2\n        /* \"TimeAllyPET.sol\":33460:33467  _amount */\n      dup6\n        /* \"TimeAllyPET.sol\":33460:33471  _amount.add */\n      tag_130\n      swap1\n        /* \"TimeAllyPET.sol\":33460:33483  _amount.add(_petAmount) */\n      swap2\n      swap1\n      0xffffffff\n      and\n      jump\t// in\n    tag_393:\n        /* \"TimeAllyPET.sol\":33453:33483  return _amount.add(_petAmount) */\n      swap2\n      pop\n      pop\n        /* \"TimeAllyPET.sol\":32730:33488  function _getTotalDepositedIncludingPET(... */\n      swap3\n      swap2\n      pop\n      pop\n      jump\t// out\n        /* \"SafeMath.sol\":1844:2031  function sub(uint256 a, uint256 b, string memory errorMessage) internal pure returns (uint256) {... */\n    tag_343:\n        /* \"SafeMath.sol\":1930:1937  uint256 */\n      0x00\n        /* \"SafeMath.sol\":1962:1963  a */\n      dup4\n        /* \"SafeMath.sol\":1957:1958  b */\n      dup4\n        /* \"SafeMath.sol\":1957:1963  b <= a */\n      gt\n      iszero\n        /* \"SafeMath.sol\":1965:1977  errorMessage */\n      dup3\n        /* \"SafeMath.sol\":1949:1978  require(b <= a, errorMessage) */\n      swap1\n      tag_395\n      jumpi\n      mload(0x40)\n      0x08c379a000000000000000000000000000000000000000000000000000000000\n      dup2\n      mstore\n      0x04\n      add\n      dup1\n      dup1\n      0x20\n      add\n      dup3\n      dup2\n      sub\n      dup3\n      mstore\n      dup4\n      dup2\n      dup2\n      mload\n      dup2\n      mstore\n      0x20\n      add\n      swap2\n      pop\n      dup1\n      mload\n      swap1\n      0x20\n      add\n      swap1\n      dup1\n      dup4\n      dup4\n        /* \"--CODEGEN--\":23:24   */\n      0x00\n        /* \"--CODEGEN--\":8:108   */\n    tag_396:\n        /* \"--CODEGEN--\":33:36   */\n      dup4\n        /* \"--CODEGEN--\":30:31   */\n      dup2\n        /* \"--CODEGEN--\":27:37   */\n      lt\n        /* \"--CODEGEN--\":8:108   */\n      iszero\n      tag_398\n      jumpi\n        /* \"--CODEGEN--\":99:100   */\n      dup1\n        /* \"--CODEGEN--\":94:97   */\n      dup3\n        /* \"--CODEGEN--\":90:101   */\n      add\n        /* \"--CODEGEN--\":84:102   */\n      mload\n        /* \"--CODEGEN--\":80:81   */\n      dup2\n        /* \"--CODEGEN--\":75:78   */\n      dup5\n        /* \"--CODEGEN--\":71:82   */\n      add\n        /* \"--CODEGEN--\":64:103   */\n      mstore\n        /* \"--CODEGEN--\":52:54   */\n      0x20\n        /* \"--CODEGEN--\":49:50   */\n      dup2\n        /* \"--CODEGEN--\":45:55   */\n      add\n        /* \"--CODEGEN--\":40:55   */\n      swap1\n      pop\n        /* \"--CODEGEN--\":8:108   */\n      jump(tag_396)\n    tag_398:\n        /* \"--CODEGEN--\":12:26   */\n      pop\n        /* \"SafeMath.sol\":1949:1978  require(b <= a, errorMessage) */\n      pop\n      pop\n      pop\n      swap1\n      pop\n      swap1\n      dup2\n      add\n      swap1\n      0x1f\n      and\n      dup1\n      iszero\n      tag_399\n      jumpi\n      dup1\n      dup3\n      sub\n      dup1\n      mload\n      0x01\n      dup4\n      0x20\n      sub\n      0x0100\n      exp\n      sub\n      not\n      and\n      dup2\n      mstore\n      0x20\n      add\n      swap2\n      pop\n    tag_399:\n      pop\n      swap3\n      pop\n      pop\n      pop\n      mload(0x40)\n      dup1\n      swap2\n      sub\n      swap1\n      revert\n    tag_395:\n      pop\n        /* \"SafeMath.sol\":1988:1997  uint256 c */\n      0x00\n        /* \"SafeMath.sol\":2004:2005  b */\n      dup4\n        /* \"SafeMath.sol\":2000:2001  a */\n      dup6\n        /* \"SafeMath.sol\":2000:2005  a - b */\n      sub\n        /* \"SafeMath.sol\":1988:2005  uint256 c = a - b */\n      swap1\n      pop\n        /* \"SafeMath.sol\":2023:2024  c */\n      dup1\n        /* \"SafeMath.sol\":2016:2024  return c */\n      swap2\n      pop\n      pop\n        /* \"SafeMath.sol\":1844:2031  function sub(uint256 a, uint256 b, string memory errorMessage) internal pure returns (uint256) {... */\n      swap4\n      swap3\n      pop\n      pop\n      pop\n      jump\t// out\n        /* \"SafeMath.sol\":3936:4274  function div(uint256 a, uint256 b, string memory errorMessage) internal pure returns (uint256) {... */\n    tag_348:\n        /* \"SafeMath.sol\":4022:4029  uint256 */\n      0x00\n        /* \"SafeMath.sol\":4119:4120  0 */\n      dup1\n        /* \"SafeMath.sol\":4115:4116  b */\n      dup4\n        /* \"SafeMath.sol\":4115:4120  b > 0 */\n      gt\n        /* \"SafeMath.sol\":4122:4134  errorMessage */\n      dup3\n        /* \"SafeMath.sol\":4107:4135  require(b > 0, errorMessage) */\n      swap1\n      tag_401\n      jumpi\n      mload(0x40)\n      0x08c379a000000000000000000000000000000000000000000000000000000000\n      dup2\n      mstore\n      0x04\n      add\n      dup1\n      dup1\n      0x20\n      add\n      dup3\n      dup2\n      sub\n      dup3\n      mstore\n      dup4\n      dup2\n      dup2\n      mload\n      dup2\n      mstore\n      0x20\n      add\n      swap2\n      pop\n      dup1\n      mload\n      swap1\n      0x20\n      add\n      swap1\n      dup1\n      dup4\n      dup4\n        /* \"--CODEGEN--\":23:24   */\n      0x00\n        /* \"--CODEGEN--\":8:108   */\n    tag_402:\n        /* \"--CODEGEN--\":33:36   */\n      dup4\n        /* \"--CODEGEN--\":30:31   */\n      dup2\n        /* \"--CODEGEN--\":27:37   */\n      lt\n        /* \"--CODEGEN--\":8:108   */\n      iszero\n      tag_404\n      jumpi\n        /* \"--CODEGEN--\":99:100   */\n      dup1\n        /* \"--CODEGEN--\":94:97   */\n      dup3\n        /* \"--CODEGEN--\":90:101   */\n      add\n        /* \"--CODEGEN--\":84:102   */\n      mload\n        /* \"--CODEGEN--\":80:81   */\n      dup2\n        /* \"--CODEGEN--\":75:78   */\n      dup5\n        /* \"--CODEGEN--\":71:82   */\n      add\n        /* \"--CODEGEN--\":64:103   */\n      mstore\n        /* \"--CODEGEN--\":52:54   */\n      0x20\n        /* \"--CODEGEN--\":49:50   */\n      dup2\n        /* \"--CODEGEN--\":45:55   */\n      add\n        /* \"--CODEGEN--\":40:55   */\n      swap1\n      pop\n        /* \"--CODEGEN--\":8:108   */\n      jump(tag_402)\n    tag_404:\n        /* \"--CODEGEN--\":12:26   */\n      pop\n        /* \"SafeMath.sol\":4107:4135  require(b > 0, errorMessage) */\n      pop\n      pop\n      pop\n      swap1\n      pop\n      swap1\n      dup2\n      add\n      swap1\n      0x1f\n      and\n      dup1\n      iszero\n      tag_405\n      jumpi\n      dup1\n      dup3\n      sub\n      dup1\n      mload\n      0x01\n      dup4\n      0x20\n      sub\n      0x0100\n      exp\n      sub\n      not\n      and\n      dup2\n      mstore\n      0x20\n      add\n      swap2\n      pop\n    tag_405:\n      pop\n      swap3\n      pop\n      pop\n      pop\n      mload(0x40)\n      dup1\n      swap2\n      sub\n      swap1\n      revert\n    tag_401:\n      pop\n        /* \"SafeMath.sol\":4145:4154  uint256 c */\n      0x00\n        /* \"SafeMath.sol\":4161:4162  b */\n      dup4\n        /* \"SafeMath.sol\":4157:4158  a */\n      dup6\n        /* \"SafeMath.sol\":4157:4162  a / b */\n      dup2\n      tag_406\n      jumpi\n      invalid\n    tag_406:\n      div\n        /* \"SafeMath.sol\":4145:4162  uint256 c = a / b */\n      swap1\n      pop\n        /* \"SafeMath.sol\":4266:4267  c */\n      dup1\n        /* \"SafeMath.sol\":4259:4267  return c */\n      swap2\n      pop\n      pop\n        /* \"SafeMath.sol\":3936:4274  function div(uint256 a, uint256 b, string memory errorMessage) internal pure returns (uint256) {... */\n      swap4\n      swap3\n      pop\n      pop\n      pop\n      jump\t// out\n    stop\n    data_18b306be375032d2ffcbec7f4558490d51c050668b948e1ca8484a1aef46ff9e 616c6c6f776564206f6e6c7920696e206672657368206d6f6e7468206465706f736974\n    data_9113bb53c2876a3805b2c9242029423fc540a728243ce887ab24c82cf119fba3 536166654d6174683a206d756c7469706c69636174696f6e206f766572666c6f77\n    data_a4c16ca7a8e973f42facadda9d5acf990ce1247b83cdb47d69fe2dcd504c7f2f 63616e6e6f74206465706f73697420616674657220616363756d756c6174696f6e20706572696f64\n    data_a66804336ef880d43d3664593cfd2886bc0d5e09a9e6d1574f39fab0c9f3fb85 6465706f73697420616d6f756e742073686f756c64206265206e6f6e207a65726f\n\n    auxdata: 0xa2646970667358221220e82231b320575276170de25c1beb3b7d1fbde1014d4f3a5e27a1b2a20ffc983a64736f6c63430006010033\n}\n\nsub_1: assembly {\n        /* \"TimeAllyPET.sol\":1274:3384  contract FundsBucketPET {... */\n      mstore(0x40, 0x80)\n        /* \"TimeAllyPET.sol\":2353:2486  constructor(ERC20 _token, address _deployer) public {... */\n      callvalue\n        /* \"--CODEGEN--\":8:17   */\n      dup1\n        /* \"--CODEGEN--\":5:7   */\n      iszero\n      tag_1\n      jumpi\n        /* \"--CODEGEN--\":30:31   */\n      0x00\n        /* \"--CODEGEN--\":27:28   */\n      dup1\n        /* \"--CODEGEN--\":20:32   */\n      revert\n        /* \"--CODEGEN--\":5:7   */\n    tag_1:\n        /* \"TimeAllyPET.sol\":2353:2486  constructor(ERC20 _token, address _deployer) public {... */\n      pop\n      mload(0x40)\n      sub(codesize, bytecodeSize)\n      dup1\n      bytecodeSize\n      dup4\n      codecopy\n      dup2\n      dup2\n      add\n      0x40\n      mstore\n        /* \"--CODEGEN--\":13:15   */\n      0x40\n        /* \"--CODEGEN--\":8:11   */\n      dup2\n        /* \"--CODEGEN--\":5:16   */\n      lt\n        /* \"--CODEGEN--\":2:4   */\n      iszero\n      tag_2\n      jumpi\n        /* \"--CODEGEN--\":29:30   */\n      0x00\n        /* \"--CODEGEN--\":26:27   */\n      dup1\n        /* \"--CODEGEN--\":19:31   */\n      revert\n        /* \"--CODEGEN--\":2:4   */\n    tag_2:\n        /* \"TimeAllyPET.sol\":2353:2486  constructor(ERC20 _token, address _deployer) public {... */\n      dup2\n      add\n      swap1\n      dup1\n      dup1\n      mload\n      swap1\n      0x20\n      add\n      swap1\n      swap3\n      swap2\n      swap1\n      dup1\n      mload\n      swap1\n      0x20\n      add\n      swap1\n      swap3\n      swap2\n      swap1\n      pop\n      pop\n      pop\n        /* \"TimeAllyPET.sol\":2419:2425  _token */\n      dup2\n        /* \"TimeAllyPET.sol\":2411:2416  token */\n      0x01\n      0x00\n        /* \"TimeAllyPET.sol\":2411:2425  token = _token */\n      0x0100\n      exp\n      dup2\n      sload\n      dup2\n      0xffffffffffffffffffffffffffffffffffffffff\n      mul\n      not\n      and\n      swap1\n      dup4\n      0xffffffffffffffffffffffffffffffffffffffff\n      and\n      mul\n      or\n      swap1\n      sstore\n      pop\n        /* \"TimeAllyPET.sol\":2442:2451  _deployer */\n      dup1\n        /* \"TimeAllyPET.sol\":2431:2439  deployer */\n      0x00\n      dup1\n        /* \"TimeAllyPET.sol\":2431:2451  deployer = _deployer */\n      0x0100\n      exp\n      dup2\n      sload\n      dup2\n      0xffffffffffffffffffffffffffffffffffffffff\n      mul\n      not\n      and\n      swap1\n      dup4\n      0xffffffffffffffffffffffffffffffffffffffff\n      and\n      mul\n      or\n      swap1\n      sstore\n      pop\n        /* \"TimeAllyPET.sol\":2471:2481  msg.sender */\n      caller\n        /* \"TimeAllyPET.sol\":2457:2468  petContract */\n      0x02\n      0x00\n        /* \"TimeAllyPET.sol\":2457:2481  petContract = msg.sender */\n      0x0100\n      exp\n      dup2\n      sload\n      dup2\n      0xffffffffffffffffffffffffffffffffffffffff\n      mul\n      not\n      and\n      swap1\n      dup4\n      0xffffffffffffffffffffffffffffffffffffffff\n      and\n      mul\n      or\n      swap1\n      sstore\n      pop\n        /* \"TimeAllyPET.sol\":2353:2486  constructor(ERC20 _token, address _deployer) public {... */\n      pop\n      pop\n        /* \"TimeAllyPET.sol\":1274:3384  contract FundsBucketPET {... */\n      dataSize(sub_0)\n      dup1\n      dataOffset(sub_0)\n      0x00\n      codecopy\n      0x00\n      return\n    stop\n\n    sub_0: assembly {\n            /* \"TimeAllyPET.sol\":1274:3384  contract FundsBucketPET {... */\n          mstore(0x40, 0x80)\n          callvalue\n            /* \"--CODEGEN--\":8:17   */\n          dup1\n            /* \"--CODEGEN--\":5:7   */\n          iszero\n          tag_1\n          jumpi\n            /* \"--CODEGEN--\":30:31   */\n          0x00\n            /* \"--CODEGEN--\":27:28   */\n          dup1\n            /* \"--CODEGEN--\":20:32   */\n          revert\n            /* \"--CODEGEN--\":5:7   */\n        tag_1:\n            /* \"TimeAllyPET.sol\":1274:3384  contract FundsBucketPET {... */\n          pop\n          jumpi(tag_2, lt(calldatasize, 0x04))\n          shr(0xe0, calldataload(0x00))\n          dup1\n          0x3b4d8a7d\n          eq\n          tag_3\n          jumpi\n          dup1\n          0x9997e137\n          eq\n          tag_4\n          jumpi\n          dup1\n          0xbe999705\n          eq\n          tag_5\n          jumpi\n          dup1\n          0xd5f39488\n          eq\n          tag_6\n          jumpi\n          dup1\n          0xfc0c546a\n          eq\n          tag_7\n          jumpi\n        tag_2:\n          0x00\n          dup1\n          revert\n            /* \"TimeAllyPET.sol\":3082:3382  function withdrawFunds(bool _withdrawEverything, uint256 _withdrawlAmount) public onlyDeployer {... */\n        tag_3:\n          tag_8\n          0x04\n          dup1\n          calldatasize\n          sub\n            /* \"--CODEGEN--\":13:15   */\n          0x40\n            /* \"--CODEGEN--\":8:11   */\n          dup2\n            /* \"--CODEGEN--\":5:16   */\n          lt\n            /* \"--CODEGEN--\":2:4   */\n          iszero\n          tag_9\n          jumpi\n            /* \"--CODEGEN--\":29:30   */\n          0x00\n            /* \"--CODEGEN--\":26:27   */\n          dup1\n            /* \"--CODEGEN--\":19:31   */\n          revert\n            /* \"--CODEGEN--\":2:4   */\n        tag_9:\n            /* \"TimeAllyPET.sol\":3082:3382  function withdrawFunds(bool _withdrawEverything, uint256 _withdrawlAmount) public onlyDeployer {... */\n          dup2\n          add\n          swap1\n          dup1\n          dup1\n          calldataload\n          iszero\n          iszero\n          swap1\n          0x20\n          add\n          swap1\n          swap3\n          swap2\n          swap1\n          dup1\n          calldataload\n          swap1\n          0x20\n          add\n          swap1\n          swap3\n          swap2\n          swap1\n          pop\n          pop\n          pop\n          tag_10\n          jump\t// in\n        tag_8:\n          stop\n            /* \"TimeAllyPET.sol\":1493:1519  address public petContract */\n        tag_4:\n          tag_11\n          tag_12\n          jump\t// in\n        tag_11:\n          mload(0x40)\n          dup1\n          dup3\n          0xffffffffffffffffffffffffffffffffffffffff\n          and\n          0xffffffffffffffffffffffffffffffffffffffff\n          and\n          dup2\n          mstore\n          0x20\n          add\n          swap2\n          pop\n          pop\n          mload(0x40)\n          dup1\n          swap2\n          sub\n          swap1\n          return\n            /* \"TimeAllyPET.sol\":2711:2992  function addFunds(uint256 _depositAmount) public {... */\n        tag_5:\n          tag_13\n          0x04\n          dup1\n          calldatasize\n          sub\n            /* \"--CODEGEN--\":13:15   */\n          0x20\n            /* \"--CODEGEN--\":8:11   */\n          dup2\n            /* \"--CODEGEN--\":5:16   */\n          lt\n            /* \"--CODEGEN--\":2:4   */\n          iszero\n          tag_14\n          jumpi\n            /* \"--CODEGEN--\":29:30   */\n          0x00\n            /* \"--CODEGEN--\":26:27   */\n          dup1\n            /* \"--CODEGEN--\":19:31   */\n          revert\n            /* \"--CODEGEN--\":2:4   */\n        tag_14:\n            /* \"TimeAllyPET.sol\":2711:2992  function addFunds(uint256 _depositAmount) public {... */\n          dup2\n          add\n          swap1\n          dup1\n          dup1\n          calldataload\n          swap1\n          0x20\n          add\n          swap1\n          swap3\n          swap2\n          swap1\n          pop\n          pop\n          pop\n          tag_15\n          jump\t// in\n        tag_13:\n          stop\n            /* \"TimeAllyPET.sol\":1343:1366  address public deployer */\n        tag_6:\n          tag_16\n          tag_17\n          jump\t// in\n        tag_16:\n          mload(0x40)\n          dup1\n          dup3\n          0xffffffffffffffffffffffffffffffffffffffff\n          and\n          0xffffffffffffffffffffffffffffffffffffffff\n          and\n          dup2\n          mstore\n          0x20\n          add\n          swap2\n          pop\n          pop\n          mload(0x40)\n          dup1\n          swap2\n          sub\n          swap1\n          return\n            /* \"TimeAllyPET.sol\":1426:1444  ERC20 public token */\n        tag_7:\n          tag_18\n          tag_19\n          jump\t// in\n        tag_18:\n          mload(0x40)\n          dup1\n          dup3\n          0xffffffffffffffffffffffffffffffffffffffff\n          and\n          0xffffffffffffffffffffffffffffffffffffffff\n          and\n          dup2\n          mstore\n          0x20\n          add\n          swap2\n          pop\n          pop\n          mload(0x40)\n          dup1\n          swap2\n          sub\n          swap1\n          return\n            /* \"TimeAllyPET.sol\":3082:3382  function withdrawFunds(bool _withdrawEverything, uint256 _withdrawlAmount) public onlyDeployer {... */\n        tag_10:\n            /* \"TimeAllyPET.sol\":1954:1962  deployer */\n          0x00\n          dup1\n          swap1\n          sload\n          swap1\n          0x0100\n          exp\n          swap1\n          div\n          0xffffffffffffffffffffffffffffffffffffffff\n          and\n            /* \"TimeAllyPET.sol\":1940:1962  msg.sender == deployer */\n          0xffffffffffffffffffffffffffffffffffffffff\n          and\n            /* \"TimeAllyPET.sol\":1940:1950  msg.sender */\n          caller\n            /* \"TimeAllyPET.sol\":1940:1962  msg.sender == deployer */\n          0xffffffffffffffffffffffffffffffffffffffff\n          and\n          eq\n            /* \"TimeAllyPET.sol\":1932:1989  require(msg.sender == deployer, 'only deployer can call') */\n          tag_21\n          jumpi\n          mload(0x40)\n          0x08c379a000000000000000000000000000000000000000000000000000000000\n          dup2\n          mstore\n          0x04\n          add\n          dup1\n          dup1\n          0x20\n          add\n          dup3\n          dup2\n          sub\n          dup3\n          mstore\n          0x16\n          dup2\n          mstore\n          0x20\n          add\n          dup1\n          0x6f6e6c79206465706c6f7965722063616e2063616c6c00000000000000000000\n          dup2\n          mstore\n          pop\n          0x20\n          add\n          swap2\n          pop\n          pop\n          mload(0x40)\n          dup1\n          swap2\n          sub\n          swap1\n          revert\n        tag_21:\n            /* \"TimeAllyPET.sol\":3186:3205  _withdrawEverything */\n          dup2\n            /* \"TimeAllyPET.sol\":3183:3271  if(_withdrawEverything) {... */\n          iszero\n          tag_23\n          jumpi\n            /* \"TimeAllyPET.sol\":3234:3239  token */\n          0x01\n          0x00\n          swap1\n          sload\n          swap1\n          0x0100\n          exp\n          swap1\n          div\n          0xffffffffffffffffffffffffffffffffffffffff\n          and\n            /* \"TimeAllyPET.sol\":3234:3249  token.balanceOf */\n          0xffffffffffffffffffffffffffffffffffffffff\n          and\n          0x70a08231\n            /* \"TimeAllyPET.sol\":3258:3262  this */\n          address\n            /* \"TimeAllyPET.sol\":3234:3264  token.balanceOf(address(this)) */\n          mload(0x40)\n          dup3\n          0xffffffff\n          and\n          0xe0\n          shl\n          dup2\n          mstore\n          0x04\n          add\n          dup1\n          dup3\n          0xffffffffffffffffffffffffffffffffffffffff\n          and\n          0xffffffffffffffffffffffffffffffffffffffff\n          and\n          dup2\n          mstore\n          0x20\n          add\n          swap2\n          pop\n          pop\n          0x20\n          mload(0x40)\n          dup1\n          dup4\n          sub\n          dup2\n          dup7\n          dup1\n          extcodesize\n          iszero\n            /* \"--CODEGEN--\":8:17   */\n          dup1\n            /* \"--CODEGEN--\":5:7   */\n          iszero\n          tag_24\n          jumpi\n            /* \"--CODEGEN--\":30:31   */\n          0x00\n            /* \"--CODEGEN--\":27:28   */\n          dup1\n            /* \"--CODEGEN--\":20:32   */\n          revert\n            /* \"--CODEGEN--\":5:7   */\n        tag_24:\n            /* \"TimeAllyPET.sol\":3234:3264  token.balanceOf(address(this)) */\n          pop\n          gas\n          staticcall\n          iszero\n            /* \"--CODEGEN--\":8:17   */\n          dup1\n            /* \"--CODEGEN--\":5:7   */\n          iszero\n          tag_26\n          jumpi\n            /* \"--CODEGEN--\":45:61   */\n          returndatasize\n            /* \"--CODEGEN--\":42:43   */\n          0x00\n            /* \"--CODEGEN--\":39:40   */\n          dup1\n            /* \"--CODEGEN--\":24:62   */\n          returndatacopy\n            /* \"--CODEGEN--\":77:93   */\n          returndatasize\n            /* \"--CODEGEN--\":74:75   */\n          0x00\n            /* \"--CODEGEN--\":67:94   */\n          revert\n            /* \"--CODEGEN--\":5:7   */\n        tag_26:\n            /* \"TimeAllyPET.sol\":3234:3264  token.balanceOf(address(this)) */\n          pop\n          pop\n          pop\n          pop\n          mload(0x40)\n          returndatasize\n            /* \"--CODEGEN--\":13:15   */\n          0x20\n            /* \"--CODEGEN--\":8:11   */\n          dup2\n            /* \"--CODEGEN--\":5:16   */\n          lt\n            /* \"--CODEGEN--\":2:4   */\n          iszero\n          tag_27\n          jumpi\n            /* \"--CODEGEN--\":29:30   */\n          0x00\n            /* \"--CODEGEN--\":26:27   */\n          dup1\n            /* \"--CODEGEN--\":19:31   */\n          revert\n            /* \"--CODEGEN--\":2:4   */\n        tag_27:\n            /* \"TimeAllyPET.sol\":3234:3264  token.balanceOf(address(this)) */\n          dup2\n          add\n          swap1\n          dup1\n          dup1\n          mload\n          swap1\n          0x20\n          add\n          swap1\n          swap3\n          swap2\n          swap1\n          pop\n          pop\n          pop\n            /* \"TimeAllyPET.sol\":3215:3264  _withdrawlAmount = token.balanceOf(address(this)) */\n          swap1\n          pop\n            /* \"TimeAllyPET.sol\":3183:3271  if(_withdrawEverything) {... */\n        tag_23:\n            /* \"TimeAllyPET.sol\":3277:3282  token */\n          0x01\n          0x00\n          swap1\n          sload\n          swap1\n          0x0100\n          exp\n          swap1\n          div\n          0xffffffffffffffffffffffffffffffffffffffff\n          and\n            /* \"TimeAllyPET.sol\":3277:3291  token.transfer */\n          0xffffffffffffffffffffffffffffffffffffffff\n          and\n          0xa9059cbb\n            /* \"TimeAllyPET.sol\":3292:3302  msg.sender */\n          caller\n            /* \"TimeAllyPET.sol\":3304:3320  _withdrawlAmount */\n          dup4\n            /* \"TimeAllyPET.sol\":3277:3321  token.transfer(msg.sender, _withdrawlAmount) */\n          mload(0x40)\n          dup4\n          0xffffffff\n          and\n          0xe0\n          shl\n          dup2\n          mstore\n          0x04\n          add\n          dup1\n          dup4\n          0xffffffffffffffffffffffffffffffffffffffff\n          and\n          0xffffffffffffffffffffffffffffffffffffffff\n          and\n          dup2\n          mstore\n          0x20\n          add\n          dup3\n          dup2\n          mstore\n          0x20\n          add\n          swap3\n          pop\n          pop\n          pop\n          0x20\n          mload(0x40)\n          dup1\n          dup4\n          sub\n          dup2\n          0x00\n          dup8\n          dup1\n          extcodesize\n          iszero\n            /* \"--CODEGEN--\":8:17   */\n          dup1\n            /* \"--CODEGEN--\":5:7   */\n          iszero\n          tag_28\n          jumpi\n            /* \"--CODEGEN--\":30:31   */\n          0x00\n            /* \"--CODEGEN--\":27:28   */\n          dup1\n            /* \"--CODEGEN--\":20:32   */\n          revert\n            /* \"--CODEGEN--\":5:7   */\n        tag_28:\n            /* \"TimeAllyPET.sol\":3277:3321  token.transfer(msg.sender, _withdrawlAmount) */\n          pop\n          gas\n          call\n          iszero\n            /* \"--CODEGEN--\":8:17   */\n          dup1\n            /* \"--CODEGEN--\":5:7   */\n          iszero\n          tag_30\n          jumpi\n            /* \"--CODEGEN--\":45:61   */\n          returndatasize\n            /* \"--CODEGEN--\":42:43   */\n          0x00\n            /* \"--CODEGEN--\":39:40   */\n          dup1\n            /* \"--CODEGEN--\":24:62   */\n          returndatacopy\n            /* \"--CODEGEN--\":77:93   */\n          returndatasize\n            /* \"--CODEGEN--\":74:75   */\n          0x00\n            /* \"--CODEGEN--\":67:94   */\n          revert\n            /* \"--CODEGEN--\":5:7   */\n        tag_30:\n            /* \"TimeAllyPET.sol\":3277:3321  token.transfer(msg.sender, _withdrawlAmount) */\n          pop\n          pop\n          pop\n          pop\n          mload(0x40)\n          returndatasize\n            /* \"--CODEGEN--\":13:15   */\n          0x20\n            /* \"--CODEGEN--\":8:11   */\n          dup2\n            /* \"--CODEGEN--\":5:16   */\n          lt\n            /* \"--CODEGEN--\":2:4   */\n          iszero\n          tag_31\n          jumpi\n            /* \"--CODEGEN--\":29:30   */\n          0x00\n            /* \"--CODEGEN--\":26:27   */\n          dup1\n            /* \"--CODEGEN--\":19:31   */\n          revert\n            /* \"--CODEGEN--\":2:4   */\n        tag_31:\n            /* \"TimeAllyPET.sol\":3277:3321  token.transfer(msg.sender, _withdrawlAmount) */\n          dup2\n          add\n          swap1\n          dup1\n          dup1\n          mload\n          swap1\n          0x20\n          add\n          swap1\n          swap3\n          swap2\n          swap1\n          pop\n          pop\n          pop\n          pop\n            /* \"TimeAllyPET.sol\":3333:3377  FundsWithdrawn(msg.sender, _withdrawlAmount) */\n          0xeaff4b37086828766ad3268786972c0cd24259d4c87a80f9d3963a3c3d999b0d\n            /* \"TimeAllyPET.sol\":3348:3358  msg.sender */\n          caller\n            /* \"TimeAllyPET.sol\":3360:3376  _withdrawlAmount */\n          dup3\n            /* \"TimeAllyPET.sol\":3333:3377  FundsWithdrawn(msg.sender, _withdrawlAmount) */\n          mload(0x40)\n          dup1\n          dup4\n          0xffffffffffffffffffffffffffffffffffffffff\n          and\n          0xffffffffffffffffffffffffffffffffffffffff\n          and\n          dup2\n          mstore\n          0x20\n          add\n          dup3\n          dup2\n          mstore\n          0x20\n          add\n          swap3\n          pop\n          pop\n          pop\n          mload(0x40)\n          dup1\n          swap2\n          sub\n          swap1\n          log1\n            /* \"TimeAllyPET.sol\":3082:3382  function withdrawFunds(bool _withdrawEverything, uint256 _withdrawlAmount) public onlyDeployer {... */\n          pop\n          pop\n          jump\t// out\n            /* \"TimeAllyPET.sol\":1493:1519  address public petContract */\n        tag_12:\n          0x02\n          0x00\n          swap1\n          sload\n          swap1\n          0x0100\n          exp\n          swap1\n          div\n          0xffffffffffffffffffffffffffffffffffffffff\n          and\n          dup2\n          jump\t// out\n            /* \"TimeAllyPET.sol\":2711:2992  function addFunds(uint256 _depositAmount) public {... */\n        tag_15:\n            /* \"TimeAllyPET.sol\":2766:2771  token */\n          0x01\n          0x00\n          swap1\n          sload\n          swap1\n          0x0100\n          exp\n          swap1\n          div\n          0xffffffffffffffffffffffffffffffffffffffff\n          and\n            /* \"TimeAllyPET.sol\":2766:2784  token.transferFrom */\n          0xffffffffffffffffffffffffffffffffffffffff\n          and\n          0x23b872dd\n            /* \"TimeAllyPET.sol\":2785:2795  msg.sender */\n          caller\n            /* \"TimeAllyPET.sol\":2805:2809  this */\n          address\n            /* \"TimeAllyPET.sol\":2812:2826  _depositAmount */\n          dup5\n            /* \"TimeAllyPET.sol\":2766:2827  token.transferFrom(msg.sender, address(this), _depositAmount) */\n          mload(0x40)\n          dup5\n          0xffffffff\n          and\n          0xe0\n          shl\n          dup2\n          mstore\n          0x04\n          add\n          dup1\n          dup5\n          0xffffffffffffffffffffffffffffffffffffffff\n          and\n          0xffffffffffffffffffffffffffffffffffffffff\n          and\n          dup2\n          mstore\n          0x20\n          add\n          dup4\n          0xffffffffffffffffffffffffffffffffffffffff\n          and\n          0xffffffffffffffffffffffffffffffffffffffff\n          and\n          dup2\n          mstore\n          0x20\n          add\n          dup3\n          dup2\n          mstore\n          0x20\n          add\n          swap4\n          pop\n          pop\n          pop\n          pop\n          0x20\n          mload(0x40)\n          dup1\n          dup4\n          sub\n          dup2\n          0x00\n          dup8\n          dup1\n          extcodesize\n          iszero\n            /* \"--CODEGEN--\":8:17   */\n          dup1\n            /* \"--CODEGEN--\":5:7   */\n          iszero\n          tag_33\n          jumpi\n            /* \"--CODEGEN--\":30:31   */\n          0x00\n            /* \"--CODEGEN--\":27:28   */\n          dup1\n            /* \"--CODEGEN--\":20:32   */\n          revert\n            /* \"--CODEGEN--\":5:7   */\n        tag_33:\n            /* \"TimeAllyPET.sol\":2766:2827  token.transferFrom(msg.sender, address(this), _depositAmount) */\n          pop\n          gas\n          call\n          iszero\n            /* \"--CODEGEN--\":8:17   */\n          dup1\n            /* \"--CODEGEN--\":5:7   */\n          iszero\n          tag_35\n          jumpi\n            /* \"--CODEGEN--\":45:61   */\n          returndatasize\n            /* \"--CODEGEN--\":42:43   */\n          0x00\n            /* \"--CODEGEN--\":39:40   */\n          dup1\n            /* \"--CODEGEN--\":24:62   */\n          returndatacopy\n            /* \"--CODEGEN--\":77:93   */\n          returndatasize\n            /* \"--CODEGEN--\":74:75   */\n          0x00\n            /* \"--CODEGEN--\":67:94   */\n          revert\n            /* \"--CODEGEN--\":5:7   */\n        tag_35:\n            /* \"TimeAllyPET.sol\":2766:2827  token.transferFrom(msg.sender, address(this), _depositAmount) */\n          pop\n          pop\n          pop\n          pop\n          mload(0x40)\n          returndatasize\n            /* \"--CODEGEN--\":13:15   */\n          0x20\n            /* \"--CODEGEN--\":8:11   */\n          dup2\n            /* \"--CODEGEN--\":5:16   */\n          lt\n            /* \"--CODEGEN--\":2:4   */\n          iszero\n          tag_36\n          jumpi\n            /* \"--CODEGEN--\":29:30   */\n          0x00\n            /* \"--CODEGEN--\":26:27   */\n          dup1\n            /* \"--CODEGEN--\":19:31   */\n          revert\n            /* \"--CODEGEN--\":2:4   */\n        tag_36:\n            /* \"TimeAllyPET.sol\":2766:2827  token.transferFrom(msg.sender, address(this), _depositAmount) */\n          dup2\n          add\n          swap1\n          dup1\n          dup1\n          mload\n          swap1\n          0x20\n          add\n          swap1\n          swap3\n          swap2\n          swap1\n          pop\n          pop\n          pop\n          pop\n            /* \"TimeAllyPET.sol\":2891:2896  token */\n          0x01\n          0x00\n          swap1\n          sload\n          swap1\n          0x0100\n          exp\n          swap1\n          div\n          0xffffffffffffffffffffffffffffffffffffffff\n          and\n            /* \"TimeAllyPET.sol\":2891:2904  token.approve */\n          0xffffffffffffffffffffffffffffffffffffffff\n          and\n          0x095ea7b3\n            /* \"TimeAllyPET.sol\":2905:2916  petContract */\n          0x02\n          0x00\n          swap1\n          sload\n          swap1\n          0x0100\n          exp\n          swap1\n          div\n          0xffffffffffffffffffffffffffffffffffffffff\n          and\n            /* \"TimeAllyPET.sol\":2918:2932  _depositAmount */\n          dup4\n            /* \"TimeAllyPET.sol\":2891:2933  token.approve(petContract, _depositAmount) */\n          mload(0x40)\n          dup4\n          0xffffffff\n          and\n          0xe0\n          shl\n          dup2\n          mstore\n          0x04\n          add\n          dup1\n          dup4\n          0xffffffffffffffffffffffffffffffffffffffff\n          and\n          0xffffffffffffffffffffffffffffffffffffffff\n          and\n          dup2\n          mstore\n          0x20\n          add\n          dup3\n          dup2\n          mstore\n          0x20\n          add\n          swap3\n          pop\n          pop\n          pop\n          0x20\n          mload(0x40)\n          dup1\n          dup4\n          sub\n          dup2\n          0x00\n          dup8\n          dup1\n          extcodesize\n          iszero\n            /* \"--CODEGEN--\":8:17   */\n          dup1\n            /* \"--CODEGEN--\":5:7   */\n          iszero\n          tag_37\n          jumpi\n            /* \"--CODEGEN--\":30:31   */\n          0x00\n            /* \"--CODEGEN--\":27:28   */\n          dup1\n            /* \"--CODEGEN--\":20:32   */\n          revert\n            /* \"--CODEGEN--\":5:7   */\n        tag_37:\n            /* \"TimeAllyPET.sol\":2891:2933  token.approve(petContract, _depositAmount) */\n          pop\n          gas\n          call\n          iszero\n            /* \"--CODEGEN--\":8:17   */\n          dup1\n            /* \"--CODEGEN--\":5:7   */\n          iszero\n          tag_39\n          jumpi\n            /* \"--CODEGEN--\":45:61   */\n          returndatasize\n            /* \"--CODEGEN--\":42:43   */\n          0x00\n            /* \"--CODEGEN--\":39:40   */\n          dup1\n            /* \"--CODEGEN--\":24:62   */\n          returndatacopy\n            /* \"--CODEGEN--\":77:93   */\n          returndatasize\n            /* \"--CODEGEN--\":74:75   */\n          0x00\n            /* \"--CODEGEN--\":67:94   */\n          revert\n            /* \"--CODEGEN--\":5:7   */\n        tag_39:\n            /* \"TimeAllyPET.sol\":2891:2933  token.approve(petContract, _depositAmount) */\n          pop\n          pop\n          pop\n          pop\n          mload(0x40)\n          returndatasize\n            /* \"--CODEGEN--\":13:15   */\n          0x20\n            /* \"--CODEGEN--\":8:11   */\n          dup2\n            /* \"--CODEGEN--\":5:16   */\n          lt\n            /* \"--CODEGEN--\":2:4   */\n          iszero\n          tag_40\n          jumpi\n            /* \"--CODEGEN--\":29:30   */\n          0x00\n            /* \"--CODEGEN--\":26:27   */\n          dup1\n            /* \"--CODEGEN--\":19:31   */\n          revert\n            /* \"--CODEGEN--\":2:4   */\n        tag_40:\n            /* \"TimeAllyPET.sol\":2891:2933  token.approve(petContract, _depositAmount) */\n          dup2\n          add\n          swap1\n          dup1\n          dup1\n          mload\n          swap1\n          0x20\n          add\n          swap1\n          swap3\n          swap2\n          swap1\n          pop\n          pop\n          pop\n          pop\n            /* \"TimeAllyPET.sol\":2945:2987  FundsDeposited(msg.sender, _depositAmount) */\n          0x543ba50a5eec5e6178218e364b1d0f396157b3c8fa278522c2cb7fd99407d474\n            /* \"TimeAllyPET.sol\":2960:2970  msg.sender */\n          caller\n            /* \"TimeAllyPET.sol\":2972:2986  _depositAmount */\n          dup3\n            /* \"TimeAllyPET.sol\":2945:2987  FundsDeposited(msg.sender, _depositAmount) */\n          mload(0x40)\n          dup1\n          dup4\n          0xffffffffffffffffffffffffffffffffffffffff\n          and\n          0xffffffffffffffffffffffffffffffffffffffff\n          and\n          dup2\n          mstore\n          0x20\n          add\n          dup3\n          dup2\n          mstore\n          0x20\n          add\n          swap3\n          pop\n          pop\n          pop\n          mload(0x40)\n          dup1\n          swap2\n          sub\n          swap1\n          log1\n            /* \"TimeAllyPET.sol\":2711:2992  function addFunds(uint256 _depositAmount) public {... */\n          pop\n          jump\t// out\n            /* \"TimeAllyPET.sol\":1343:1366  address public deployer */\n        tag_17:\n          0x00\n          dup1\n          swap1\n          sload\n          swap1\n          0x0100\n          exp\n          swap1\n          div\n          0xffffffffffffffffffffffffffffffffffffffff\n          and\n          dup2\n          jump\t// out\n            /* \"TimeAllyPET.sol\":1426:1444  ERC20 public token */\n        tag_19:\n          0x01\n          0x00\n          swap1\n          sload\n          swap1\n          0x0100\n          exp\n          swap1\n          div\n          0xffffffffffffffffffffffffffffffffffffffff\n          and\n          dup2\n          jump\t// out\n\n        auxdata: 0xa2646970667358221220bd85e6a0955ca577722ba3541570a27177c72308c74e054ddd903ba60861bde264736f6c63430006010033\n    }\n}\n","bytecode":{"linkReferences":{},"object":"60806040523480156200001157600080fd5b5060405162004e7f38038062004e7f833981810160405260208110156200003757600080fd5b8101908080519060200190929190505050336000806101000a81548173ffffffffffffffffffffffffffffffffffffffff021916908373ffffffffffffffffffffffffffffffffffffffff16021790555080600260006101000a81548173ffffffffffffffffffffffffffffffffffffffff021916908373ffffffffffffffffffffffffffffffffffffffff1602179055508033604051620000d990620001a7565b808373ffffffffffffffffffffffffffffffffffffffff1673ffffffffffffffffffffffffffffffffffffffff1681526020018273ffffffffffffffffffffffffffffffffffffffff1673ffffffffffffffffffffffffffffffffffffffff16815260200192505050604051809103906000f0801580156200015f573d6000803e3d6000fd5b50600160006101000a81548173ffffffffffffffffffffffffffffffffffffffff021916908373ffffffffffffffffffffffffffffffffffffffff16021790555050620001b5565b6108f1806200458e83390190565b6143c980620001c56000396000f3fe608060405234801561001057600080fd5b50600436106101735760003560e01c806347626531116100de5780639baf14d411610097578063d5f3948811610071578063d5f39488146109f5578063f713c79e14610a3f578063fb0685df14610aab578063fc0c546a14610b0357610173565b80639baf14d4146108f5578063a4003ad41461094d578063ba50531a1461099b57610173565b806347626531146105b35780634cd963cf1461062957806351a6349d146106955780637838e408146107e157806381423a261461081b57806395a0373c146108a157610173565b806337482ef11161013057806337482ef11461038457806337dc8f06146103dc5780633ee20a891461044a5780633fd46068146104cf578063452f14231461051957806345b37ec41461057b57610173565b80630c254d63146101785780630ce57b46146101dc5780631fdae4b81461023657806326f8bea71461029857806329929713146102c65780632e9721b6146102fe575b600080fd5b6101da6004803603608081101561018e57600080fd5b81019080803573ffffffffffffffffffffffffffffffffffffffff1690602001909291908035906020019092919080359060200190929190803515159060200190929190505050610b4d565b005b610234600480360360608110156101f257600080fd5b8101908080359060200190929190803573ffffffffffffffffffffffffffffffffffffffff169060200190929190803515159060200190929190505050611287565b005b6102826004803603604081101561024c57600080fd5b81019080803573ffffffffffffffffffffffffffffffffffffffff169060200190929190803590602001909291905050506113a6565b6040518082815260200191505060405180910390f35b6102c4600480360360208110156102ae57600080fd5b81019080803590602001909291905050506114bf565b005b6102fc600480360360408110156102dc57600080fd5b810190808035906020019092919080359060200190929190505050611670565b005b61036a6004803603606081101561031457600080fd5b81019080803573ffffffffffffffffffffffffffffffffffffffff16906020019092919080359060200190929190803573ffffffffffffffffffffffffffffffffffffffff1690602001909291905050506119b9565b604051808215151515815260200191505060405180910390f35b6103da6004803603606081101561039a57600080fd5b81019080803573ffffffffffffffffffffffffffffffffffffffff1690602001909291908035906020019092919080359060200190929190505050611a6a565b005b610448600480360360a08110156103f257600080fd5b81019080803573ffffffffffffffffffffffffffffffffffffffff169060200190929190803590602001909291908035906020019092919080359060200190929190803515159060200190929190505050611ff5565b005b6104966004803603604081101561046057600080fd5b81019080803573ffffffffffffffffffffffffffffffffffffffff169060200190929190803590602001909291905050506127ed565b60405180878152602001868152602001858152602001848152602001838152602001828152602001965050505050505060405180910390f35b6104d7612843565b604051808273ffffffffffffffffffffffffffffffffffffffff1673ffffffffffffffffffffffffffffffffffffffff16815260200191505060405180910390f35b6105656004803603604081101561052f57600080fd5b81019080803573ffffffffffffffffffffffffffffffffffffffff16906020019092919080359060200190929190505050612869565b6040518082815260200191505060405180910390f35b6105b16004803603604081101561059157600080fd5b81019080803590602001909291908035906020019092919050505061293f565b005b610613600480360360808110156105c957600080fd5b81019080803573ffffffffffffffffffffffffffffffffffffffff169060200190929190803590602001909291908035906020019092919080359060200190929190505050612ad3565b6040518082815260200191505060405180910390f35b61067f6004803603606081101561063f57600080fd5b81019080803573ffffffffffffffffffffffffffffffffffffffff1690602001909291908035906020019092919080359060200190929190505050612c03565b6040518082815260200191505060405180910390f35b6107df600480360360408110156106ab57600080fd5b81019080803590602001906401000000008111156106c857600080fd5b8201836020820111156106da57600080fd5b803590602001918460208302840111640100000000831117156106fc57600080fd5b919080806020026020016040519081016040528093929190818152602001838360200280828437600081840152601f19601f8201169050808301925050505050505091929192908035906020019064010000000081111561075c57600080fd5b82018360208201111561076e57600080fd5b8035906020019184602083028401116401000000008311171561079057600080fd5b919080806020026020016040519081016040528093929190818152602001838360200280828437600081840152601f19601f820116905080830192505050505050509192919290505050612cf5565b005b610819600480360360408110156107f757600080fd5b8101908080359060200190929190803515159060200190929190505050612e8c565b005b6108876004803603606081101561083157600080fd5b81019080803573ffffffffffffffffffffffffffffffffffffffff16906020019092919080359060200190929190803573ffffffffffffffffffffffffffffffffffffffff169060200190929190505050612f88565b604051808215151515815260200191505060405180910390f35b6108cd600480360360208110156108b757600080fd5b8101908080359060200190929190505050613039565b6040518084151515158152602001838152602001828152602001935050505060405180910390f35b61094b6004803603606081101561090b57600080fd5b81019080803573ffffffffffffffffffffffffffffffffffffffff169060200190929190803590602001909291908035906020019092919050505061307d565b005b6109996004803603604081101561096357600080fd5b81019080803573ffffffffffffffffffffffffffffffffffffffff169060200190929190803590602001909291905050506136c6565b005b6109f3600480360360608110156109b157600080fd5b8101908080359060200190929190803573ffffffffffffffffffffffffffffffffffffffff1690602001909291908035151590602001909291905050506138bd565b005b6109fd613b40565b604051808273ffffffffffffffffffffffffffffffffffffffff1673ffffffffffffffffffffffffffffffffffffffff16815260200191505060405180910390f35b610a9560048036036060811015610a5557600080fd5b81019080803573ffffffffffffffffffffffffffffffffffffffff1690602001909291908035906020019092919080359060200190929190505050613b65565b6040518082815260200191505060405180910390f35b610aed60048036036020811015610ac157600080fd5b81019080803573ffffffffffffffffffffffffffffffffffffffff169060200190929190505050613bdd565b6040518082815260200191505060405180910390f35b610b0b613bf5565b604051808273ffffffffffffffffffffffffffffffffffffffff1673ffffffffffffffffffffffffffffffffffffffff16815260200191505060405180910390f35b83836000600460008473ffffffffffffffffffffffffffffffffffffffff1673ffffffffffffffffffffffffffffffffffffffff1681526020019081526020016000208281548110610b9b57fe5b90600052602060002090600a020190508273ffffffffffffffffffffffffffffffffffffffff163373ffffffffffffffffffffffffffffffffffffffff1614610ca0578060080160003373ffffffffffffffffffffffffffffffffffffffff1673ffffffffffffffffffffffffffffffffffffffff16815260200190815260200160002060009054906101000a900460ff16610c9f576040517f08c379a000000000000000000000000000000000000000000000000000000000815260040180806020018281038252601a8152602001807f6e6f6d696e6174696f6e2073686f756c6420626520746865726500000000000081525060200191505060405180910390fd5b5b60008511610cf9576040517f08c379a00000000000000000000000000000000000000000000000000000000081526004018080602001828103825260218152602001806143736021913960400191505060405180910390fd5b6000600460008973ffffffffffffffffffffffffffffffffffffffff1673ffffffffffffffffffffffffffffffffffffffff1681526020019081526020016000208781548110610d4557fe5b90600052602060002090600a020190506000610d6189896113a6565b9050600c811115610dbd576040517f08c379a000000000000000000000000000000000000000000000000000000000815260040180806020018281038252602881526020018061434b6028913960400191505060405180910390fd5b8515610e5d57610e1587600560003373ffffffffffffffffffffffffffffffffffffffff1673ffffffffffffffffffffffffffffffffffffffff16815260200190815260200160002054613c1b90919063ffffffff16565b600560003373ffffffffffffffffffffffffffffffffffffffff1673ffffffffffffffffffffffffffffffffffffffff16815260200190815260200160002081905550610f77565b600260009054906101000a900473ffffffffffffffffffffffffffffffffffffffff1673ffffffffffffffffffffffffffffffffffffffff166323b872dd33308a6040518463ffffffff1660e01b8152600401808473ffffffffffffffffffffffffffffffffffffffff1673ffffffffffffffffffffffffffffffffffffffff1681526020018373ffffffffffffffffffffffffffffffffffffffff1673ffffffffffffffffffffffffffffffffffffffff1681526020018281526020019350505050602060405180830381600087803b158015610f3a57600080fd5b505af1158015610f4e573d6000803e3d6000fd5b505050506040513d6020811015610f6457600080fd5b8101908080519060200190929190505050505b6000610fa18884600601600085815260200190815260200160002054613c6590919063ffffffff16565b905060006001830390505b600081111561105b578360060160008281526020019081526020016000205460001080156110055750610fed60028560010154613ced90919063ffffffff16565b84600601600083815260200190815260200160002054105b15611050576110328460060160008381526020019081526020016000205483613c6590919063ffffffff16565b91506000846006016000838152602001908152602001600020819055505b600181039050610fac565b600061106985600086613d37565b9050600061108a8261107c888789613d37565b613c1b90919063ffffffff16565b9050600260009054906101000a900473ffffffffffffffffffffffffffffffffffffffff1673ffffffffffffffffffffffffffffffffffffffff166323b872dd600160009054906101000a900473ffffffffffffffffffffffffffffffffffffffff1630846040518463ffffffff1660e01b8152600401808473ffffffffffffffffffffffffffffffffffffffff1673ffffffffffffffffffffffffffffffffffffffff1681526020018373ffffffffffffffffffffffffffffffffffffffff1673ffffffffffffffffffffffffffffffffffffffff1681526020018281526020019350505050602060405180830381600087803b15801561118b57600080fd5b505af115801561119f573d6000803e3d6000fd5b505050506040513d60208110156111b557600080fd5b81019080805190602001909291905050505083866006016000878152602001908152602001600020819055508b8d73ffffffffffffffffffffffffffffffffffffffff167fa0f7ad829c9cb80662be76da1eefcf008f173427db87f98a6d935f043f1a12e5878e338f604051808581526020018481526020018373ffffffffffffffffffffffffffffffffffffffff1673ffffffffffffffffffffffffffffffffffffffff1681526020018215151515815260200194505050505060405180910390a350505050505050505050505050565b80600460003373ffffffffffffffffffffffffffffffffffffffff1673ffffffffffffffffffffffffffffffffffffffff16815260200190815260200160002084815481106112d257fe5b90600052602060002090600a020160080160008473ffffffffffffffffffffffffffffffffffffffff1673ffffffffffffffffffffffffffffffffffffffff16815260200190815260200160002060006101000a81548160ff0219169083151502179055508173ffffffffffffffffffffffffffffffffffffffff16833373ffffffffffffffffffffffffffffffffffffffff167f90e4568f920d8bb093366a04150aa0d04957a471196f5e1cdfb0db3cb83cc5b084604051808215151515815260200191505060405180910390a4505050565b6000600162282070600460008673ffffffffffffffffffffffffffffffffffffffff1673ffffffffffffffffffffffffffffffffffffffff16815260200190815260200160002084815481106113f857fe5b90600052602060002090600a020160020154600260009054906101000a900473ffffffffffffffffffffffffffffffffffffffff1673ffffffffffffffffffffffffffffffffffffffff1663b81f90f36040518163ffffffff1660e01b815260040160206040518083038186803b15801561147257600080fd5b505afa158015611486573d6000803e3d6000fd5b505050506040513d602081101561149c57600080fd5b810190808051906020019092919050505003816114b557fe5b0401905092915050565b600260009054906101000a900473ffffffffffffffffffffffffffffffffffffffff1673ffffffffffffffffffffffffffffffffffffffff166323b872dd3330846040518463ffffffff1660e01b8152600401808473ffffffffffffffffffffffffffffffffffffffff1673ffffffffffffffffffffffffffffffffffffffff1681526020018373ffffffffffffffffffffffffffffffffffffffff1673ffffffffffffffffffffffffffffffffffffffff1681526020018281526020019350505050602060405180830381600087803b15801561159c57600080fd5b505af11580156115b0573d6000803e3d6000fd5b505050506040513d60208110156115c657600080fd5b81019080805190602001909291905050505061162a81600560003373ffffffffffffffffffffffffffffffffffffffff1673ffffffffffffffffffffffffffffffffffffffff16815260200190815260200160002054613c6590919063ffffffff16565b600560003373ffffffffffffffffffffffffffffffffffffffff1673ffffffffffffffffffffffffffffffffffffffff1681526020019081526020016000208190555050565b6003828154811061167d57fe5b906000526020600020906003020160000160009054906101000a900460ff1661170e576040517f08c379a00000000000000000000000000000000000000000000000000000000081526004018080602001828103825260168152602001807f50455420706c616e206973206e6f74206163746976650000000000000000000081525060200191505060405180910390fd5b6003828154811061171b57fe5b9060005260206000209060030201600101548110156117a2576040517f08c379a000000000000000000000000000000000000000000000000000000000815260040180806020018281038252601b8152602001807f6c6f77206d6f6e74686c79436f6d6d69746d656e74416d6f756e74000000000081525060200191505060405180910390fd5b600460003373ffffffffffffffffffffffffffffffffffffffff1673ffffffffffffffffffffffffffffffffffffffff1681526020019081526020016000206040518060c00160405280848152602001838152602001600260009054906101000a900473ffffffffffffffffffffffffffffffffffffffff1673ffffffffffffffffffffffffffffffffffffffff1663b81f90f36040518163ffffffff1660e01b815260040160206040518083038186803b15801561186057600080fd5b505afa158015611874573d6000803e3d6000fd5b505050506040513d602081101561188a57600080fd5b810190808051906020019092919050505081526020016000815260200160008152602001600081525090806001815401808255809150506001900390600052602060002090600a0201600090919091909150600082015181600001556020820151816001015560408201518160020155606082015181600301556080820151816004015560a0820151816005015550503373ffffffffffffffffffffffffffffffffffffffff167f4459f0ae7ff9f1dfcb9443ff1a9268613580cdb8b1c0f59a4bd4384b94c99f046001600460003373ffffffffffffffffffffffffffffffffffffffff1673ffffffffffffffffffffffffffffffffffffffff168152602001908152602001600020805490500383604051808381526020018281526020019250505060405180910390a25050565b6000600460008573ffffffffffffffffffffffffffffffffffffffff1673ffffffffffffffffffffffffffffffffffffffff1681526020019081526020016000208381548110611a0557fe5b90600052602060002090600a020160080160008373ffffffffffffffffffffffffffffffffffffffff1673ffffffffffffffffffffffffffffffffffffffff16815260200190815260200160002060009054906101000a900460ff1690509392505050565b82826000600460008473ffffffffffffffffffffffffffffffffffffffff1673ffffffffffffffffffffffffffffffffffffffff1681526020019081526020016000208281548110611ab857fe5b90600052602060002090600a020190508273ffffffffffffffffffffffffffffffffffffffff163373ffffffffffffffffffffffffffffffffffffffff1614611bbd578060080160003373ffffffffffffffffffffffffffffffffffffffff1673ffffffffffffffffffffffffffffffffffffffff16815260200190815260200160002060009054906101000a900460ff16611bbc576040517f08c379a000000000000000000000000000000000000000000000000000000000815260040180806020018281038252601a8152602001807f6e6f6d696e6174696f6e2073686f756c6420626520746865726500000000000081525060200191505060405180910390fd5b5b6000600460008873ffffffffffffffffffffffffffffffffffffffff1673ffffffffffffffffffffffffffffffffffffffff1681526020019081526020016000208681548110611c0957fe5b90600052602060002090600a02019050600081600301549050858110611c97576040517f08c379a000000000000000000000000000000000000000000000000000000000815260040180806020018281038252601a8152602001807f73746172742073686f756c64206265206265666f726520656e6400000000000081525060200191505060405180910390fd5b603c861115611d0e576040517f08c379a000000000000000000000000000000000000000000000000000000000815260040180806020018281038252601a8152602001807f6f6e6c7920363020416e6e756974792077697468647261776c7300000000000081525060200191505060405180910390fd5b6000611d1b898989612c03565b905080600260009054906101000a900473ffffffffffffffffffffffffffffffffffffffff1673ffffffffffffffffffffffffffffffffffffffff1663b81f90f36040518163ffffffff1660e01b815260040160206040518083038186803b158015611d8657600080fd5b505afa158015611d9a573d6000803e3d6000fd5b505050506040513d6020811015611db057600080fd5b81019080805190602001909291905050501015611e35576040517f08c379a00000000000000000000000000000000000000000000000000000000081526004018080602001828103825260158152602001807f63616e6e6f74207769746864726177206561726c79000000000000000000000081525060200191505060405180910390fd5b6000611e468a8a600186018b612ad3565b90508784600301819055506000831415611e6557611e648a8a613e9e565b5b60008114611f5357600260009054906101000a900473ffffffffffffffffffffffffffffffffffffffff1673ffffffffffffffffffffffffffffffffffffffff1663a9059cbb33836040518363ffffffff1660e01b8152600401808373ffffffffffffffffffffffffffffffffffffffff1673ffffffffffffffffffffffffffffffffffffffff16815260200182815260200192505050602060405180830381600087803b158015611f1657600080fd5b505af1158015611f2a573d6000803e3d6000fd5b505050506040513d6020811015611f4057600080fd5b8101908080519060200190929190505050505b888a73ffffffffffffffffffffffffffffffffffffffff167fd662ea67c34eb456a3277bea947873f932447f3f58faa13b41f4ca3defd32c3a600186018b8533604051808581526020018481526020018381526020018273ffffffffffffffffffffffffffffffffffffffff1673ffffffffffffffffffffffffffffffffffffffff16815260200194505050505060405180910390a350505050505050505050565b6000831161204e576040517f08c379a00000000000000000000000000000000000000000000000000000000081526004018080602001828103825260218152602001806143736021913960400191505060405180910390fd5b6000600460008773ffffffffffffffffffffffffffffffffffffffff1673ffffffffffffffffffffffffffffffffffffffff168152602001908152602001600020858154811061209a57fe5b90600052602060002090600a0201905060006120b687876113a6565b905060006120e060016120d28785613c6590919063ffffffff16565b613c1b90919063ffffffff16565b9050600c81111561213c576040517f08c379a000000000000000000000000000000000000000000000000000000000815260040180806020018281038252602881526020018061434b6028913960400191505060405180910390fd5b600083600601600084815260200190815260200160002054146121aa576040517f08c379a00000000000000000000000000000000000000000000000000000000081526004018080602001828103825260238152602001806143076023913960400191505060405180910390fd5b600060038614156121c6576801a055690d9db800009050612271565b60068614156121e05768022b1c8c1227a000009050612270565b600c8614156121fa576802b5e3af16b1880000905061226f565b600061226e576040517f08c379a00000000000000000000000000000000000000000000000000000000081526004018080602001828103825260158152602001807f756e737570706f72746564206672657175656e6379000000000000000000000081525060200191505060405180910390fd5b5b5b5b60006122868789613ced90919063ffffffff16565b90508460010154811015612302576040517f08c379a000000000000000000000000000000000000000000000000000000000815260040180806020018281038252601f8152602001807f6465706f736974206e6f742063726f7373696e6720636f6d6d69746d656e740081525060200191505060405180910390fd5b600061231086836001613d37565b905086156123c45761237c61232e848b613c6590919063ffffffff16565b600560003373ffffffffffffffffffffffffffffffffffffffff1673ffffffffffffffffffffffffffffffffffffffff16815260200190815260200160002054613c1b90919063ffffffff16565b600560003373ffffffffffffffffffffffffffffffffffffffff1673ffffffffffffffffffffffffffffffffffffffff168152602001908152602001600020819055506124f0565b600260009054906101000a900473ffffffffffffffffffffffffffffffffffffffff1673ffffffffffffffffffffffffffffffffffffffff166323b872dd3330612417878e613c6590919063ffffffff16565b6040518463ffffffff1660e01b8152600401808473ffffffffffffffffffffffffffffffffffffffff1673ffffffffffffffffffffffffffffffffffffffff1681526020018373ffffffffffffffffffffffffffffffffffffffff1673ffffffffffffffffffffffffffffffffffffffff1681526020018281526020019350505050602060405180830381600087803b1580156124b357600080fd5b505af11580156124c7573d6000803e3d6000fd5b505050506040513d60208110156124dd57600080fd5b8101908080519060200190929190505050505b61256383600560008060009054906101000a900473ffffffffffffffffffffffffffffffffffffffff1673ffffffffffffffffffffffffffffffffffffffff1673ffffffffffffffffffffffffffffffffffffffff16815260200190815260200160002054613c6590919063ffffffff16565b600560008060009054906101000a900473ffffffffffffffffffffffffffffffffffffffff1673ffffffffffffffffffffffffffffffffffffffff1673ffffffffffffffffffffffffffffffffffffffff16815260200190815260200160002081905550600260009054906101000a900473ffffffffffffffffffffffffffffffffffffffff1673ffffffffffffffffffffffffffffffffffffffff166323b872dd600160009054906101000a900473ffffffffffffffffffffffffffffffffffffffff163061263c8c8661406f90919063ffffffff16565b6040518463ffffffff1660e01b8152600401808473ffffffffffffffffffffffffffffffffffffffff1673ffffffffffffffffffffffffffffffffffffffff1681526020018373ffffffffffffffffffffffffffffffffffffffff1673ffffffffffffffffffffffffffffffffffffffff1681526020018281526020019350505050602060405180830381600087803b1580156126d857600080fd5b505af11580156126ec573d6000803e3d6000fd5b505050506040513d602081101561270257600080fd5b81019080805190602001909291905050505060008590505b8481116127df5782876006016000838152602001908152602001600020819055508a8c73ffffffffffffffffffffffffffffffffffffffff167fa0f7ad829c9cb80662be76da1eefcf008f173427db87f98a6d935f043f1a12e58386338d604051808581526020018481526020018373ffffffffffffffffffffffffffffffffffffffff1673ffffffffffffffffffffffffffffffffffffffff1681526020018215151515815260200194505050505060405180910390a3808060010191505061271a565b505050505050505050505050565b6004602052816000526040600020818154811061280657fe5b90600052602060002090600a0201600091509150508060000154908060010154908060020154908060030154908060040154908060050154905086565b600160009054906101000a900473ffffffffffffffffffffffffffffffffffffffff1681565b600080600460008573ffffffffffffffffffffffffffffffffffffffff1673ffffffffffffffffffffffffffffffffffffffff16815260200190815260200160002083815481106128b657fe5b90600052602060002090600a02019050600080600190505b600c81116129205760006128fb8460060160008481526020019081526020016000205485600101546140f5565b90506129108184613c6590919063ffffffff16565b92505080806001019150506128ce565b50612935600c82613ced90919063ffffffff16565b9250505092915050565b6000809054906101000a900473ffffffffffffffffffffffffffffffffffffffff1673ffffffffffffffffffffffffffffffffffffffff163373ffffffffffffffffffffffffffffffffffffffff1614612a01576040517f08c379a00000000000000000000000000000000000000000000000000000000081526004018080602001828103825260168152602001807f6f6e6c79206465706c6f7965722063616e2063616c6c0000000000000000000081525060200191505060405180910390fd5b6003604051806060016040528060011515815260200184815260200183815250908060018154018082558091505060019003906000526020600020906003020160009091909190915060008201518160000160006101000a81548160ff021916908315150217905550602082015181600101556040820151816002015550507ff47d2a74cdeac9661be2d3138ed3f81d11abcff723e84a800a60b86eeaf90afe828260016003805490500360405180848152602001838152602001828152602001935050505060405180910390a15050565b600080600460008773ffffffffffffffffffffffffffffffffffffffff1673ffffffffffffffffffffffffffffffffffffffff1681526020019081526020016000208581548110612b2057fe5b90600052602060002090600a0201905060006003826000015481548110612b4357fe5b906000526020600020906003020190506000808690505b858111612bca576000600c8281612b6d57fe5b0690506000612ba4866006016000808514612b885784612b8b565b600c5b81526020019081526020016000205487600101546140f5565b9050612bb98185613c6590919063ffffffff16565b935050508080600101915050612b5a565b50612bf66103e8612be884600201548461406f90919063ffffffff16565b613ced90919063ffffffff16565b9350505050949350505050565b600080600460008673ffffffffffffffffffffffffffffffffffffffff1673ffffffffffffffffffffffffffffffffffffffff1681526020019081526020016000208481548110612c5057fe5b90600052602060002090600a02019050600062282070600185600c01030282600201540190508573ffffffffffffffffffffffffffffffffffffffff163373ffffffffffffffffffffffffffffffffffffffff1614612ce957612cc160028360050154613ced90919063ffffffff16565b82600401541115612cdc576006622820700281019050612ce8565b600c6228207002810190505b5b80925050509392505050565b60008090505b8251811015612e8757612d69828281518110612d1357fe5b6020026020010151600560003373ffffffffffffffffffffffffffffffffffffffff1673ffffffffffffffffffffffffffffffffffffffff16815260200190815260200160002054613c1b90919063ffffffff16565b600560003373ffffffffffffffffffffffffffffffffffffffff1673ffffffffffffffffffffffffffffffffffffffff16815260200190815260200160002081905550612e24828281518110612dbb57fe5b602002602001015160056000868581518110612dd357fe5b602002602001015173ffffffffffffffffffffffffffffffffffffffff1673ffffffffffffffffffffffffffffffffffffffff16815260200190815260200160002054613c6590919063ffffffff16565b60056000858481518110612e3457fe5b602002602001015173ffffffffffffffffffffffffffffffffffffffff1673ffffffffffffffffffffffffffffffffffffffff168152602001908152602001600020819055508080600101915050612cfb565b505050565b6000809054906101000a900473ffffffffffffffffffffffffffffffffffffffff1673ffffffffffffffffffffffffffffffffffffffff163373ffffffffffffffffffffffffffffffffffffffff1614612f4e576040517f08c379a00000000000000000000000000000000000000000000000000000000081526004018080602001828103825260168152602001807f6f6e6c79206465706c6f7965722063616e2063616c6c0000000000000000000081525060200191505060405180910390fd5b8060038381548110612f5c57fe5b906000526020600020906003020160000160006101000a81548160ff0219169083151502179055505050565b6000600460008573ffffffffffffffffffffffffffffffffffffffff1673ffffffffffffffffffffffffffffffffffffffff1681526020019081526020016000208381548110612fd457fe5b90600052602060002090600a020160090160008373ffffffffffffffffffffffffffffffffffffffff1673ffffffffffffffffffffffffffffffffffffffff16815260200190815260200160002060009054906101000a900460ff1690509392505050565b6003818154811061304657fe5b90600052602060002090600302016000915090508060000160009054906101000a900460ff16908060010154908060020154905083565b82826000600460008473ffffffffffffffffffffffffffffffffffffffff1673ffffffffffffffffffffffffffffffffffffffff16815260200190815260200160002082815481106130cb57fe5b90600052602060002090600a020190508273ffffffffffffffffffffffffffffffffffffffff163373ffffffffffffffffffffffffffffffffffffffff16146131d0578060080160003373ffffffffffffffffffffffffffffffffffffffff1673ffffffffffffffffffffffffffffffffffffffff16815260200190815260200160002060009054906101000a900460ff166131cf576040517f08c379a000000000000000000000000000000000000000000000000000000000815260040180806020018281038252601a8152602001807f6e6f6d696e6174696f6e2073686f756c6420626520746865726500000000000081525060200191505060405180910390fd5b5b6000600460008873ffffffffffffffffffffffffffffffffffffffff1673ffffffffffffffffffffffffffffffffffffffff168152602001908152602001600020868154811061321c57fe5b90600052602060002090600a020190508460011115801561323e5750600c8511155b6132b0576040517f08c379a00000000000000000000000000000000000000000000000000000000081526004018080602001828103825260158152602001807f69642073686f756c6420626520696e2072616e6765000000000000000000000081525060200191505060405180910390fd5b80600701600086815260200190815260200160002060009054906101000a900460ff1615613346576040517f08c379a00000000000000000000000000000000000000000000000000000000081526004018080602001828103825260198152602001807f626f6f7374657220616c72656164792077697468647261776e0000000000000081525060200191505060405180910390fd5b806001015481600601600087600d0381526020019081526020016000205410156133d8576040517f08c379a00000000000000000000000000000000000000000000000000000000081526004018080602001828103825260138152602001807f746172676574206e6f742061636869657665640000000000000000000000000081525060200191505060405180910390fd5b60006133eb8888600160058a0201612c03565b905080600260009054906101000a900473ffffffffffffffffffffffffffffffffffffffff1673ffffffffffffffffffffffffffffffffffffffff1663b81f90f36040518163ffffffff1660e01b815260040160206040518083038186803b15801561345657600080fd5b505afa15801561346a573d6000803e3d6000fd5b505050506040513d602081101561348057600080fd5b81019080805190602001909291905050501015613505576040517f08c379a00000000000000000000000000000000000000000000000000000000081526004018080602001828103825260158152602001807f63616e6e6f74207769746864726177206561726c79000000000000000000000081525060200191505060405180910390fd5b60006135118989612869565b9050600183600701600089815260200190815260200160002060006101000a81548160ff021916908315150217905550600081111561363057600260009054906101000a900473ffffffffffffffffffffffffffffffffffffffff1673ffffffffffffffffffffffffffffffffffffffff1663a9059cbb33836040518363ffffffff1660e01b8152600401808373ffffffffffffffffffffffffffffffffffffffff1673ffffffffffffffffffffffffffffffffffffffff16815260200182815260200192505050602060405180830381600087803b1580156135f357600080fd5b505af1158015613607573d6000803e3d6000fd5b505050506040513d602081101561361d57600080fd5b8101908080519060200190929190505050505b878973ffffffffffffffffffffffffffffffffffffffff167fa1c568ef1602bc58c1e32ea2f1251b87874dce947f5d4f4df53677d06d5bf56d898433604051808481526020018381526020018273ffffffffffffffffffffffffffffffffffffffff1673ffffffffffffffffffffffffffffffffffffffff168152602001935050505060405180910390a3505050505050505050565b6000600460008473ffffffffffffffffffffffffffffffffffffffff1673ffffffffffffffffffffffffffffffffffffffff168152602001908152602001600020828154811061371257fe5b90600052602060002090600a020190508060090160003373ffffffffffffffffffffffffffffffffffffffff1673ffffffffffffffffffffffffffffffffffffffff16815260200190815260200160002060009054906101000a900460ff166137e3576040517f08c379a00000000000000000000000000000000000000000000000000000000081526004018080602001828103825260208152602001807f73686f756c64206265206170706f696e74656520746f206361737420766f746581525060200191505060405180910390fd5b60008160090160003373ffffffffffffffffffffffffffffffffffffffff1673ffffffffffffffffffffffffffffffffffffffff16815260200190815260200160002060006101000a81548160ff02191690831515021790555061385560018260040154613c6590919063ffffffff16565b81600401819055503373ffffffffffffffffffffffffffffffffffffffff16828473ffffffffffffffffffffffffffffffffffffffff167f57e90b4a498a7310fab91955c915f3f15a0d1a94b296f824da9443d524ea2e1b60405160405180910390a4505050565b6000600460003373ffffffffffffffffffffffffffffffffffffffff1673ffffffffffffffffffffffffffffffffffffffff168152602001908152602001600020848154811061390957fe5b90600052602060002090600a020190508060090160008473ffffffffffffffffffffffffffffffffffffffff1673ffffffffffffffffffffffffffffffffffffffff16815260200190815260200160002060009054906101000a900460ff161580156139725750815b156139f65761398f60018260050154613c6590919063ffffffff16565b816005018190555060018160090160008573ffffffffffffffffffffffffffffffffffffffff1673ffffffffffffffffffffffffffffffffffffffff16815260200190815260200160002060006101000a81548160ff021916908315150217905550613ad0565b8060090160008473ffffffffffffffffffffffffffffffffffffffff1673ffffffffffffffffffffffffffffffffffffffff16815260200190815260200160002060009054906101000a900460ff168015613a4f575081155b15613acf5760008160090160008573ffffffffffffffffffffffffffffffffffffffff1673ffffffffffffffffffffffffffffffffffffffff16815260200190815260200160002060006101000a81548160ff021916908315150217905550613ac660018260050154613c1b90919063ffffffff16565b81600501819055505b5b8273ffffffffffffffffffffffffffffffffffffffff16843373ffffffffffffffffffffffffffffffffffffffff167ff7a6207b27953eff117f9b7c03e363d41370a45e2b626d2aa32c6a0ac636578285604051808215151515815260200191505060405180910390a450505050565b6000809054906101000a900473ffffffffffffffffffffffffffffffffffffffff1681565b6000600460008573ffffffffffffffffffffffffffffffffffffffff1673ffffffffffffffffffffffffffffffffffffffff1681526020019081526020016000208381548110613bb157fe5b90600052602060002090600a020160060160008381526020019081526020016000205490509392505050565b60056020528060005260406000206000915090505481565b600260009054906101000a900473ffffffffffffffffffffffffffffffffffffffff1681565b6000613c5d83836040518060400160405280601e81526020017f536166654d6174683a207375627472616374696f6e206f766572666c6f770000815250614180565b905092915050565b600080828401905083811015613ce3576040517f08c379a000000000000000000000000000000000000000000000000000000000815260040180806020018281038252601b8152602001807f536166654d6174683a206164646974696f6e206f766572666c6f77000000000081525060200191505060405180910390fd5b8091505092915050565b6000613d2f83836040518060400160405280601a81526020017f536166654d6174683a206469766973696f6e206279207a65726f000000000000815250614240565b905092915050565b60008084600001549050600080851415613d665785600601600085815260200190815260200160002054613d68565b845b9050600086600101549050600060038481548110613d8257fe5b90600052602060002090600302019050600082841115613de1576000613db18486613c1b90919063ffffffff16565b9050613dd9613dca600283613ced90919063ffffffff16565b85613c6590919063ffffffff16565b915050613e00565b613df5600284613ced90919063ffffffff16565b8410613dff578390505b5b6000613e0c85856140f5565b90506000829050613e27600286613ced90919063ffffffff16565b86101580613e355750600c89145b15613e8d57613e8a613e7b6103e8613e6d6005613e5f89600201548861406f90919063ffffffff16565b61406f90919063ffffffff16565b613ced90919063ffffffff16565b82613c6590919063ffffffff16565b90505b809750505050505050509392505050565b6000600460008473ffffffffffffffffffffffffffffffffffffffff1673ffffffffffffffffffffffffffffffffffffffff1681526020019081526020016000208281548110613eea57fe5b90600052602060002090600a02019050600080600190505b600c8111613f41578260010154836006016000838152602001908152602001600020541015613f345781806001019250505b8080600101915050613f02565b506000613f4e8585612869565b90506000613f65838361406f90919063ffffffff16565b9050600260009054906101000a900473ffffffffffffffffffffffffffffffffffffffff1673ffffffffffffffffffffffffffffffffffffffff166342966c68826040518263ffffffff1660e01b815260040180828152602001915050600060405180830381600087803b158015613fdc57600080fd5b505af1158015613ff0573d6000803e3d6000fd5b505050507fd5d3899d9ec9513f6566105e58d4a87a89e47bce6bb44c2ade5df7cb3413ccf7868683604051808473ffffffffffffffffffffffffffffffffffffffff1673ffffffffffffffffffffffffffffffffffffffff168152602001838152602001828152602001935050505060405180910390a1505050505050565b60008083141561408257600090506140ef565b600082840290508284828161409357fe5b04146140ea576040517f08c379a000000000000000000000000000000000000000000000000000000000815260040180806020018281038252602181526020018061432a6021913960400191505060405180910390fd5b809150505b92915050565b600080828411156141455760006141158486613c1b90919063ffffffff16565b905061413d61412e600283613ced90919063ffffffff16565b85613c6590919063ffffffff16565b915050614164565b614159600284613ced90919063ffffffff16565b8410614163578390505b5b6141778185613c6590919063ffffffff16565b91505092915050565b600083831115829061422d576040517f08c379a00000000000000000000000000000000000000000000000000000000081526004018080602001828103825283818151815260200191508051906020019080838360005b838110156141f25780820151818401526020810190506141d7565b50505050905090810190601f16801561421f5780820380516001836020036101000a031916815260200191505b509250505060405180910390fd5b5060008385039050809150509392505050565b600080831182906142ec576040517f08c379a00000000000000000000000000000000000000000000000000000000081526004018080602001828103825283818151815260200191508051906020019080838360005b838110156142b1578082015181840152602081019050614296565b50505050905090810190601f1680156142de5780820380516001836020036101000a031916815260200191505b509250505060405180910390fd5b5060008385816142f857fe5b04905080915050939250505056fe616c6c6f776564206f6e6c7920696e206672657368206d6f6e7468206465706f736974536166654d6174683a206d756c7469706c69636174696f6e206f766572666c6f7763616e6e6f74206465706f73697420616674657220616363756d756c6174696f6e20706572696f646465706f73697420616d6f756e742073686f756c64206265206e6f6e207a65726fa2646970667358221220e82231b320575276170de25c1beb3b7d1fbde1014d4f3a5e27a1b2a20ffc983a64736f6c63430006010033608060405234801561001057600080fd5b506040516108f13803806108f18339818101604052604081101561003357600080fd5b81019080805190602001909291908051906020019092919050505081600160006101000a81548173ffffffffffffffffffffffffffffffffffffffff021916908373ffffffffffffffffffffffffffffffffffffffff160217905550806000806101000a81548173ffffffffffffffffffffffffffffffffffffffff021916908373ffffffffffffffffffffffffffffffffffffffff16021790555033600260006101000a81548173ffffffffffffffffffffffffffffffffffffffff021916908373ffffffffffffffffffffffffffffffffffffffff16021790555050506107d0806101216000396000f3fe608060405234801561001057600080fd5b50600436106100575760003560e01c80633b4d8a7d1461005c5780639997e13714610096578063be999705146100e0578063d5f394881461010e578063fc0c546a14610158575b600080fd5b6100946004803603604081101561007257600080fd5b81019080803515159060200190929190803590602001909291905050506101a2565b005b61009e61049b565b604051808273ffffffffffffffffffffffffffffffffffffffff1673ffffffffffffffffffffffffffffffffffffffff16815260200191505060405180910390f35b61010c600480360360208110156100f657600080fd5b81019080803590602001909291905050506104c1565b005b61011661074f565b604051808273ffffffffffffffffffffffffffffffffffffffff1673ffffffffffffffffffffffffffffffffffffffff16815260200191505060405180910390f35b610160610774565b604051808273ffffffffffffffffffffffffffffffffffffffff1673ffffffffffffffffffffffffffffffffffffffff16815260200191505060405180910390f35b6000809054906101000a900473ffffffffffffffffffffffffffffffffffffffff1673ffffffffffffffffffffffffffffffffffffffff163373ffffffffffffffffffffffffffffffffffffffff1614610264576040517f08c379a00000000000000000000000000000000000000000000000000000000081526004018080602001828103825260168152602001807f6f6e6c79206465706c6f7965722063616e2063616c6c0000000000000000000081525060200191505060405180910390fd5b811561034757600160009054906101000a900473ffffffffffffffffffffffffffffffffffffffff1673ffffffffffffffffffffffffffffffffffffffff166370a08231306040518263ffffffff1660e01b8152600401808273ffffffffffffffffffffffffffffffffffffffff1673ffffffffffffffffffffffffffffffffffffffff16815260200191505060206040518083038186803b15801561030957600080fd5b505afa15801561031d573d6000803e3d6000fd5b505050506040513d602081101561033357600080fd5b810190808051906020019092919050505090505b600160009054906101000a900473ffffffffffffffffffffffffffffffffffffffff1673ffffffffffffffffffffffffffffffffffffffff1663a9059cbb33836040518363ffffffff1660e01b8152600401808373ffffffffffffffffffffffffffffffffffffffff1673ffffffffffffffffffffffffffffffffffffffff16815260200182815260200192505050602060405180830381600087803b1580156103f057600080fd5b505af1158015610404573d6000803e3d6000fd5b505050506040513d602081101561041a57600080fd5b8101908080519060200190929190505050507feaff4b37086828766ad3268786972c0cd24259d4c87a80f9d3963a3c3d999b0d3382604051808373ffffffffffffffffffffffffffffffffffffffff1673ffffffffffffffffffffffffffffffffffffffff1681526020018281526020019250505060405180910390a15050565b600260009054906101000a900473ffffffffffffffffffffffffffffffffffffffff1681565b600160009054906101000a900473ffffffffffffffffffffffffffffffffffffffff1673ffffffffffffffffffffffffffffffffffffffff166323b872dd3330846040518463ffffffff1660e01b8152600401808473ffffffffffffffffffffffffffffffffffffffff1673ffffffffffffffffffffffffffffffffffffffff1681526020018373ffffffffffffffffffffffffffffffffffffffff1673ffffffffffffffffffffffffffffffffffffffff1681526020018281526020019350505050602060405180830381600087803b15801561059e57600080fd5b505af11580156105b2573d6000803e3d6000fd5b505050506040513d60208110156105c857600080fd5b810190808051906020019092919050505050600160009054906101000a900473ffffffffffffffffffffffffffffffffffffffff1673ffffffffffffffffffffffffffffffffffffffff1663095ea7b3600260009054906101000a900473ffffffffffffffffffffffffffffffffffffffff16836040518363ffffffff1660e01b8152600401808373ffffffffffffffffffffffffffffffffffffffff1673ffffffffffffffffffffffffffffffffffffffff16815260200182815260200192505050602060405180830381600087803b1580156106a557600080fd5b505af11580156106b9573d6000803e3d6000fd5b505050506040513d60208110156106cf57600080fd5b8101908080519060200190929190505050507f543ba50a5eec5e6178218e364b1d0f396157b3c8fa278522c2cb7fd99407d4743382604051808373ffffffffffffffffffffffffffffffffffffffff1673ffffffffffffffffffffffffffffffffffffffff1681526020018281526020019250505060405180910390a150565b6000809054906101000a900473ffffffffffffffffffffffffffffffffffffffff1681565b600160009054906101000a900473ffffffffffffffffffffffffffffffffffffffff168156fea2646970667358221220bd85e6a0955ca577722ba3541570a27177c72308c74e054ddd903ba60861bde264736f6c63430006010033","opcodes":"PUSH1 0x80 PUSH1 0x40 MSTORE CALLVALUE DUP1 ISZERO PUSH3 0x11 JUMPI PUSH1 0x0 DUP1 REVERT JUMPDEST POP PUSH1 0x40 MLOAD PUSH3 0x4E7F CODESIZE SUB DUP1 PUSH3 0x4E7F DUP4 CODECOPY DUP2 DUP2 ADD PUSH1 0x40 MSTORE PUSH1 0x20 DUP2 LT ISZERO PUSH3 0x37 JUMPI PUSH1 0x0 DUP1 REVERT JUMPDEST DUP2 ADD SWAP1 DUP1 DUP1 MLOAD SWAP1 PUSH1 0x20 ADD SWAP1 SWAP3 SWAP2 SWAP1 POP POP POP CALLER PUSH1 0x0 DUP1 PUSH2 0x100 EXP DUP2 SLOAD DUP2 PUSH20 0xFFFFFFFFFFFFFFFFFFFFFFFFFFFFFFFFFFFFFFFF MUL NOT AND SWAP1 DUP4 PUSH20 0xFFFFFFFFFFFFFFFFFFFFFFFFFFFFFFFFFFFFFFFF AND MUL OR SWAP1 SSTORE POP DUP1 PUSH1 0x2 PUSH1 0x0 PUSH2 0x100 EXP DUP2 SLOAD DUP2 PUSH20 0xFFFFFFFFFFFFFFFFFFFFFFFFFFFFFFFFFFFFFFFF MUL NOT AND SWAP1 DUP4 PUSH20 0xFFFFFFFFFFFFFFFFFFFFFFFFFFFFFFFFFFFFFFFF AND MUL OR SWAP1 SSTORE POP DUP1 CALLER PUSH1 0x40 MLOAD PUSH3 0xD9 SWAP1 PUSH3 0x1A7 JUMP JUMPDEST DUP1 DUP4 PUSH20 0xFFFFFFFFFFFFFFFFFFFFFFFFFFFFFFFFFFFFFFFF AND PUSH20 0xFFFFFFFFFFFFFFFFFFFFFFFFFFFFFFFFFFFFFFFF AND DUP2 MSTORE PUSH1 0x20 ADD DUP3 PUSH20 0xFFFFFFFFFFFFFFFFFFFFFFFFFFFFFFFFFFFFFFFF AND PUSH20 0xFFFFFFFFFFFFFFFFFFFFFFFFFFFFFFFFFFFFFFFF AND DUP2 MSTORE PUSH1 0x20 ADD SWAP3 POP POP POP PUSH1 0x40 MLOAD DUP1 SWAP2 SUB SWAP1 PUSH1 0x0 CREATE DUP1 ISZERO DUP1 ISZERO PUSH3 0x15F JUMPI RETURNDATASIZE PUSH1 0x0 DUP1 RETURNDATACOPY RETURNDATASIZE PUSH1 0x0 REVERT JUMPDEST POP PUSH1 0x1 PUSH1 0x0 PUSH2 0x100 EXP DUP2 SLOAD DUP2 PUSH20 0xFFFFFFFFFFFFFFFFFFFFFFFFFFFFFFFFFFFFFFFF MUL NOT AND SWAP1 DUP4 PUSH20 0xFFFFFFFFFFFFFFFFFFFFFFFFFFFFFFFFFFFFFFFF AND MUL OR SWAP1 SSTORE POP POP PUSH3 0x1B5 JUMP JUMPDEST PUSH2 0x8F1 DUP1 PUSH3 0x458E DUP4 CODECOPY ADD SWAP1 JUMP JUMPDEST PUSH2 0x43C9 DUP1 PUSH3 0x1C5 PUSH1 0x0 CODECOPY PUSH1 0x0 RETURN INVALID PUSH1 0x80 PUSH1 0x40 MSTORE CALLVALUE DUP1 ISZERO PUSH2 0x10 JUMPI PUSH1 0x0 DUP1 REVERT JUMPDEST POP PUSH1 0x4 CALLDATASIZE LT PUSH2 0x173 JUMPI PUSH1 0x0 CALLDATALOAD PUSH1 0xE0 SHR DUP1 PUSH4 0x47626531 GT PUSH2 0xDE JUMPI DUP1 PUSH4 0x9BAF14D4 GT PUSH2 0x97 JUMPI DUP1 PUSH4 0xD5F39488 GT PUSH2 0x71 JUMPI DUP1 PUSH4 0xD5F39488 EQ PUSH2 0x9F5 JUMPI DUP1 PUSH4 0xF713C79E EQ PUSH2 0xA3F JUMPI DUP1 PUSH4 0xFB0685DF EQ PUSH2 0xAAB JUMPI DUP1 PUSH4 0xFC0C546A EQ PUSH2 0xB03 JUMPI PUSH2 0x173 JUMP JUMPDEST DUP1 PUSH4 0x9BAF14D4 EQ PUSH2 0x8F5 JUMPI DUP1 PUSH4 0xA4003AD4 EQ PUSH2 0x94D JUMPI DUP1 PUSH4 0xBA50531A EQ PUSH2 0x99B JUMPI PUSH2 0x173 JUMP JUMPDEST DUP1 PUSH4 0x47626531 EQ PUSH2 0x5B3 JUMPI DUP1 PUSH4 0x4CD963CF EQ PUSH2 0x629 JUMPI DUP1 PUSH4 0x51A6349D EQ PUSH2 0x695 JUMPI DUP1 PUSH4 0x7838E408 EQ PUSH2 0x7E1 JUMPI DUP1 PUSH4 0x81423A26 EQ PUSH2 0x81B JUMPI DUP1 PUSH4 0x95A0373C EQ PUSH2 0x8A1 JUMPI PUSH2 0x173 JUMP JUMPDEST DUP1 PUSH4 0x37482EF1 GT PUSH2 0x130 JUMPI DUP1 PUSH4 0x37482EF1 EQ PUSH2 0x384 JUMPI DUP1 PUSH4 0x37DC8F06 EQ PUSH2 0x3DC JUMPI DUP1 PUSH4 0x3EE20A89 EQ PUSH2 0x44A JUMPI DUP1 PUSH4 0x3FD46068 EQ PUSH2 0x4CF JUMPI DUP1 PUSH4 0x452F1423 EQ PUSH2 0x519 JUMPI DUP1 PUSH4 0x45B37EC4 EQ PUSH2 0x57B JUMPI PUSH2 0x173 JUMP JUMPDEST DUP1 PUSH4 0xC254D63 EQ PUSH2 0x178 JUMPI DUP1 PUSH4 0xCE57B46 EQ PUSH2 0x1DC JUMPI DUP1 PUSH4 0x1FDAE4B8 EQ PUSH2 0x236 JUMPI DUP1 PUSH4 0x26F8BEA7 EQ PUSH2 0x298 JUMPI DUP1 PUSH4 0x29929713 EQ PUSH2 0x2C6 JUMPI DUP1 PUSH4 0x2E9721B6 EQ PUSH2 0x2FE JUMPI JUMPDEST PUSH1 0x0 DUP1 REVERT JUMPDEST PUSH2 0x1DA PUSH1 0x4 DUP1 CALLDATASIZE SUB PUSH1 0x80 DUP2 LT ISZERO PUSH2 0x18E JUMPI PUSH1 0x0 DUP1 REVERT JUMPDEST DUP2 ADD SWAP1 DUP1 DUP1 CALLDATALOAD PUSH20 0xFFFFFFFFFFFFFFFFFFFFFFFFFFFFFFFFFFFFFFFF AND SWAP1 PUSH1 0x20 ADD SWAP1 SWAP3 SWAP2 SWAP1 DUP1 CALLDATALOAD SWAP1 PUSH1 0x20 ADD SWAP1 SWAP3 SWAP2 SWAP1 DUP1 CALLDATALOAD SWAP1 PUSH1 0x20 ADD SWAP1 SWAP3 SWAP2 SWAP1 DUP1 CALLDATALOAD ISZERO ISZERO SWAP1 PUSH1 0x20 ADD SWAP1 SWAP3 SWAP2 SWAP1 POP POP POP PUSH2 0xB4D JUMP JUMPDEST STOP JUMPDEST PUSH2 0x234 PUSH1 0x4 DUP1 CALLDATASIZE SUB PUSH1 0x60 DUP2 LT ISZERO PUSH2 0x1F2 JUMPI PUSH1 0x0 DUP1 REVERT JUMPDEST DUP2 ADD SWAP1 DUP1 DUP1 CALLDATALOAD SWAP1 PUSH1 0x20 ADD SWAP1 SWAP3 SWAP2 SWAP1 DUP1 CALLDATALOAD PUSH20 0xFFFFFFFFFFFFFFFFFFFFFFFFFFFFFFFFFFFFFFFF AND SWAP1 PUSH1 0x20 ADD SWAP1 SWAP3 SWAP2 SWAP1 DUP1 CALLDATALOAD ISZERO ISZERO SWAP1 PUSH1 0x20 ADD SWAP1 SWAP3 SWAP2 SWAP1 POP POP POP PUSH2 0x1287 JUMP JUMPDEST STOP JUMPDEST PUSH2 0x282 PUSH1 0x4 DUP1 CALLDATASIZE SUB PUSH1 0x40 DUP2 LT ISZERO PUSH2 0x24C JUMPI PUSH1 0x0 DUP1 REVERT JUMPDEST DUP2 ADD SWAP1 DUP1 DUP1 CALLDATALOAD PUSH20 0xFFFFFFFFFFFFFFFFFFFFFFFFFFFFFFFFFFFFFFFF AND SWAP1 PUSH1 0x20 ADD SWAP1 SWAP3 SWAP2 SWAP1 DUP1 CALLDATALOAD SWAP1 PUSH1 0x20 ADD SWAP1 SWAP3 SWAP2 SWAP1 POP POP POP PUSH2 0x13A6 JUMP JUMPDEST PUSH1 0x40 MLOAD DUP1 DUP3 DUP2 MSTORE PUSH1 0x20 ADD SWAP2 POP POP PUSH1 0x40 MLOAD DUP1 SWAP2 SUB SWAP1 RETURN JUMPDEST PUSH2 0x2C4 PUSH1 0x4 DUP1 CALLDATASIZE SUB PUSH1 0x20 DUP2 LT ISZERO PUSH2 0x2AE JUMPI PUSH1 0x0 DUP1 REVERT JUMPDEST DUP2 ADD SWAP1 DUP1 DUP1 CALLDATALOAD SWAP1 PUSH1 0x20 ADD SWAP1 SWAP3 SWAP2 SWAP1 POP POP POP PUSH2 0x14BF JUMP JUMPDEST STOP JUMPDEST PUSH2 0x2FC PUSH1 0x4 DUP1 CALLDATASIZE SUB PUSH1 0x40 DUP2 LT ISZERO PUSH2 0x2DC JUMPI PUSH1 0x0 DUP1 REVERT JUMPDEST DUP2 ADD SWAP1 DUP1 DUP1 CALLDATALOAD SWAP1 PUSH1 0x20 ADD SWAP1 SWAP3 SWAP2 SWAP1 DUP1 CALLDATALOAD SWAP1 PUSH1 0x20 ADD SWAP1 SWAP3 SWAP2 SWAP1 POP POP POP PUSH2 0x1670 JUMP JUMPDEST STOP JUMPDEST PUSH2 0x36A PUSH1 0x4 DUP1 CALLDATASIZE SUB PUSH1 0x60 DUP2 LT ISZERO PUSH2 0x314 JUMPI PUSH1 0x0 DUP1 REVERT JUMPDEST DUP2 ADD SWAP1 DUP1 DUP1 CALLDATALOAD PUSH20 0xFFFFFFFFFFFFFFFFFFFFFFFFFFFFFFFFFFFFFFFF AND SWAP1 PUSH1 0x20 ADD SWAP1 SWAP3 SWAP2 SWAP1 DUP1 CALLDATALOAD SWAP1 PUSH1 0x20 ADD SWAP1 SWAP3 SWAP2 SWAP1 DUP1 CALLDATALOAD PUSH20 0xFFFFFFFFFFFFFFFFFFFFFFFFFFFFFFFFFFFFFFFF AND SWAP1 PUSH1 0x20 ADD SWAP1 SWAP3 SWAP2 SWAP1 POP POP POP PUSH2 0x19B9 JUMP JUMPDEST PUSH1 0x40 MLOAD DUP1 DUP3 ISZERO ISZERO ISZERO ISZERO DUP2 MSTORE PUSH1 0x20 ADD SWAP2 POP POP PUSH1 0x40 MLOAD DUP1 SWAP2 SUB SWAP1 RETURN JUMPDEST PUSH2 0x3DA PUSH1 0x4 DUP1 CALLDATASIZE SUB PUSH1 0x60 DUP2 LT ISZERO PUSH2 0x39A JUMPI PUSH1 0x0 DUP1 REVERT JUMPDEST DUP2 ADD SWAP1 DUP1 DUP1 CALLDATALOAD PUSH20 0xFFFFFFFFFFFFFFFFFFFFFFFFFFFFFFFFFFFFFFFF AND SWAP1 PUSH1 0x20 ADD SWAP1 SWAP3 SWAP2 SWAP1 DUP1 CALLDATALOAD SWAP1 PUSH1 0x20 ADD SWAP1 SWAP3 SWAP2 SWAP1 DUP1 CALLDATALOAD SWAP1 PUSH1 0x20 ADD SWAP1 SWAP3 SWAP2 SWAP1 POP POP POP PUSH2 0x1A6A JUMP JUMPDEST STOP JUMPDEST PUSH2 0x448 PUSH1 0x4 DUP1 CALLDATASIZE SUB PUSH1 0xA0 DUP2 LT ISZERO PUSH2 0x3F2 JUMPI PUSH1 0x0 DUP1 REVERT JUMPDEST DUP2 ADD SWAP1 DUP1 DUP1 CALLDATALOAD PUSH20 0xFFFFFFFFFFFFFFFFFFFFFFFFFFFFFFFFFFFFFFFF AND SWAP1 PUSH1 0x20 ADD SWAP1 SWAP3 SWAP2 SWAP1 DUP1 CALLDATALOAD SWAP1 PUSH1 0x20 ADD SWAP1 SWAP3 SWAP2 SWAP1 DUP1 CALLDATALOAD SWAP1 PUSH1 0x20 ADD SWAP1 SWAP3 SWAP2 SWAP1 DUP1 CALLDATALOAD SWAP1 PUSH1 0x20 ADD SWAP1 SWAP3 SWAP2 SWAP1 DUP1 CALLDATALOAD ISZERO ISZERO SWAP1 PUSH1 0x20 ADD SWAP1 SWAP3 SWAP2 SWAP1 POP POP POP PUSH2 0x1FF5 JUMP JUMPDEST STOP JUMPDEST PUSH2 0x496 PUSH1 0x4 DUP1 CALLDATASIZE SUB PUSH1 0x40 DUP2 LT ISZERO PUSH2 0x460 JUMPI PUSH1 0x0 DUP1 REVERT JUMPDEST DUP2 ADD SWAP1 DUP1 DUP1 CALLDATALOAD PUSH20 0xFFFFFFFFFFFFFFFFFFFFFFFFFFFFFFFFFFFFFFFF AND SWAP1 PUSH1 0x20 ADD SWAP1 SWAP3 SWAP2 SWAP1 DUP1 CALLDATALOAD SWAP1 PUSH1 0x20 ADD SWAP1 SWAP3 SWAP2 SWAP1 POP POP POP PUSH2 0x27ED JUMP JUMPDEST PUSH1 0x40 MLOAD DUP1 DUP8 DUP2 MSTORE PUSH1 0x20 ADD DUP7 DUP2 MSTORE PUSH1 0x20 ADD DUP6 DUP2 MSTORE PUSH1 0x20 ADD DUP5 DUP2 MSTORE PUSH1 0x20 ADD DUP4 DUP2 MSTORE PUSH1 0x20 ADD DUP3 DUP2 MSTORE PUSH1 0x20 ADD SWAP7 POP POP POP POP POP POP POP PUSH1 0x40 MLOAD DUP1 SWAP2 SUB SWAP1 RETURN JUMPDEST PUSH2 0x4D7 PUSH2 0x2843 JUMP JUMPDEST PUSH1 0x40 MLOAD DUP1 DUP3 PUSH20 0xFFFFFFFFFFFFFFFFFFFFFFFFFFFFFFFFFFFFFFFF AND PUSH20 0xFFFFFFFFFFFFFFFFFFFFFFFFFFFFFFFFFFFFFFFF AND DUP2 MSTORE PUSH1 0x20 ADD SWAP2 POP POP PUSH1 0x40 MLOAD DUP1 SWAP2 SUB SWAP1 RETURN JUMPDEST PUSH2 0x565 PUSH1 0x4 DUP1 CALLDATASIZE SUB PUSH1 0x40 DUP2 LT ISZERO PUSH2 0x52F JUMPI PUSH1 0x0 DUP1 REVERT JUMPDEST DUP2 ADD SWAP1 DUP1 DUP1 CALLDATALOAD PUSH20 0xFFFFFFFFFFFFFFFFFFFFFFFFFFFFFFFFFFFFFFFF AND SWAP1 PUSH1 0x20 ADD SWAP1 SWAP3 SWAP2 SWAP1 DUP1 CALLDATALOAD SWAP1 PUSH1 0x20 ADD SWAP1 SWAP3 SWAP2 SWAP1 POP POP POP PUSH2 0x2869 JUMP JUMPDEST PUSH1 0x40 MLOAD DUP1 DUP3 DUP2 MSTORE PUSH1 0x20 ADD SWAP2 POP POP PUSH1 0x40 MLOAD DUP1 SWAP2 SUB SWAP1 RETURN JUMPDEST PUSH2 0x5B1 PUSH1 0x4 DUP1 CALLDATASIZE SUB PUSH1 0x40 DUP2 LT ISZERO PUSH2 0x591 JUMPI PUSH1 0x0 DUP1 REVERT JUMPDEST DUP2 ADD SWAP1 DUP1 DUP1 CALLDATALOAD SWAP1 PUSH1 0x20 ADD SWAP1 SWAP3 SWAP2 SWAP1 DUP1 CALLDATALOAD SWAP1 PUSH1 0x20 ADD SWAP1 SWAP3 SWAP2 SWAP1 POP POP POP PUSH2 0x293F JUMP JUMPDEST STOP JUMPDEST PUSH2 0x613 PUSH1 0x4 DUP1 CALLDATASIZE SUB PUSH1 0x80 DUP2 LT ISZERO PUSH2 0x5C9 JUMPI PUSH1 0x0 DUP1 REVERT JUMPDEST DUP2 ADD SWAP1 DUP1 DUP1 CALLDATALOAD PUSH20 0xFFFFFFFFFFFFFFFFFFFFFFFFFFFFFFFFFFFFFFFF AND SWAP1 PUSH1 0x20 ADD SWAP1 SWAP3 SWAP2 SWAP1 DUP1 CALLDATALOAD SWAP1 PUSH1 0x20 ADD SWAP1 SWAP3 SWAP2 SWAP1 DUP1 CALLDATALOAD SWAP1 PUSH1 0x20 ADD SWAP1 SWAP3 SWAP2 SWAP1 DUP1 CALLDATALOAD SWAP1 PUSH1 0x20 ADD SWAP1 SWAP3 SWAP2 SWAP1 POP POP POP PUSH2 0x2AD3 JUMP JUMPDEST PUSH1 0x40 MLOAD DUP1 DUP3 DUP2 MSTORE PUSH1 0x20 ADD SWAP2 POP POP PUSH1 0x40 MLOAD DUP1 SWAP2 SUB SWAP1 RETURN JUMPDEST PUSH2 0x67F PUSH1 0x4 DUP1 CALLDATASIZE SUB PUSH1 0x60 DUP2 LT ISZERO PUSH2 0x63F JUMPI PUSH1 0x0 DUP1 REVERT JUMPDEST DUP2 ADD SWAP1 DUP1 DUP1 CALLDATALOAD PUSH20 0xFFFFFFFFFFFFFFFFFFFFFFFFFFFFFFFFFFFFFFFF AND SWAP1 PUSH1 0x20 ADD SWAP1 SWAP3 SWAP2 SWAP1 DUP1 CALLDATALOAD SWAP1 PUSH1 0x20 ADD SWAP1 SWAP3 SWAP2 SWAP1 DUP1 CALLDATALOAD SWAP1 PUSH1 0x20 ADD SWAP1 SWAP3 SWAP2 SWAP1 POP POP POP PUSH2 0x2C03 JUMP JUMPDEST PUSH1 0x40 MLOAD DUP1 DUP3 DUP2 MSTORE PUSH1 0x20 ADD SWAP2 POP POP PUSH1 0x40 MLOAD DUP1 SWAP2 SUB SWAP1 RETURN JUMPDEST PUSH2 0x7DF PUSH1 0x4 DUP1 CALLDATASIZE SUB PUSH1 0x40 DUP2 LT ISZERO PUSH2 0x6AB JUMPI PUSH1 0x0 DUP1 REVERT JUMPDEST DUP2 ADD SWAP1 DUP1 DUP1 CALLDATALOAD SWAP1 PUSH1 0x20 ADD SWAP1 PUSH5 0x100000000 DUP2 GT ISZERO PUSH2 0x6C8 JUMPI PUSH1 0x0 DUP1 REVERT JUMPDEST DUP3 ADD DUP4 PUSH1 0x20 DUP3 ADD GT ISZERO PUSH2 0x6DA JUMPI PUSH1 0x0 DUP1 REVERT JUMPDEST DUP1 CALLDATALOAD SWAP1 PUSH1 0x20 ADD SWAP2 DUP5 PUSH1 0x20 DUP4 MUL DUP5 ADD GT PUSH5 0x100000000 DUP4 GT OR ISZERO PUSH2 0x6FC JUMPI PUSH1 0x0 DUP1 REVERT JUMPDEST SWAP2 SWAP1 DUP1 DUP1 PUSH1 0x20 MUL PUSH1 0x20 ADD PUSH1 0x40 MLOAD SWAP1 DUP2 ADD PUSH1 0x40 MSTORE DUP1 SWAP4 SWAP3 SWAP2 SWAP1 DUP2 DUP2 MSTORE PUSH1 0x20 ADD DUP4 DUP4 PUSH1 0x20 MUL DUP1 DUP3 DUP5 CALLDATACOPY PUSH1 0x0 DUP2 DUP5 ADD MSTORE PUSH1 0x1F NOT PUSH1 0x1F DUP3 ADD AND SWAP1 POP DUP1 DUP4 ADD SWAP3 POP POP POP POP POP POP POP SWAP2 SWAP3 SWAP2 SWAP3 SWAP1 DUP1 CALLDATALOAD SWAP1 PUSH1 0x20 ADD SWAP1 PUSH5 0x100000000 DUP2 GT ISZERO PUSH2 0x75C JUMPI PUSH1 0x0 DUP1 REVERT JUMPDEST DUP3 ADD DUP4 PUSH1 0x20 DUP3 ADD GT ISZERO PUSH2 0x76E JUMPI PUSH1 0x0 DUP1 REVERT JUMPDEST DUP1 CALLDATALOAD SWAP1 PUSH1 0x20 ADD SWAP2 DUP5 PUSH1 0x20 DUP4 MUL DUP5 ADD GT PUSH5 0x100000000 DUP4 GT OR ISZERO PUSH2 0x790 JUMPI PUSH1 0x0 DUP1 REVERT JUMPDEST SWAP2 SWAP1 DUP1 DUP1 PUSH1 0x20 MUL PUSH1 0x20 ADD PUSH1 0x40 MLOAD SWAP1 DUP2 ADD PUSH1 0x40 MSTORE DUP1 SWAP4 SWAP3 SWAP2 SWAP1 DUP2 DUP2 MSTORE PUSH1 0x20 ADD DUP4 DUP4 PUSH1 0x20 MUL DUP1 DUP3 DUP5 CALLDATACOPY PUSH1 0x0 DUP2 DUP5 ADD MSTORE PUSH1 0x1F NOT PUSH1 0x1F DUP3 ADD AND SWAP1 POP DUP1 DUP4 ADD SWAP3 POP POP POP POP POP POP POP SWAP2 SWAP3 SWAP2 SWAP3 SWAP1 POP POP POP PUSH2 0x2CF5 JUMP JUMPDEST STOP JUMPDEST PUSH2 0x819 PUSH1 0x4 DUP1 CALLDATASIZE SUB PUSH1 0x40 DUP2 LT ISZERO PUSH2 0x7F7 JUMPI PUSH1 0x0 DUP1 REVERT JUMPDEST DUP2 ADD SWAP1 DUP1 DUP1 CALLDATALOAD SWAP1 PUSH1 0x20 ADD SWAP1 SWAP3 SWAP2 SWAP1 DUP1 CALLDATALOAD ISZERO ISZERO SWAP1 PUSH1 0x20 ADD SWAP1 SWAP3 SWAP2 SWAP1 POP POP POP PUSH2 0x2E8C JUMP JUMPDEST STOP JUMPDEST PUSH2 0x887 PUSH1 0x4 DUP1 CALLDATASIZE SUB PUSH1 0x60 DUP2 LT ISZERO PUSH2 0x831 JUMPI PUSH1 0x0 DUP1 REVERT JUMPDEST DUP2 ADD SWAP1 DUP1 DUP1 CALLDATALOAD PUSH20 0xFFFFFFFFFFFFFFFFFFFFFFFFFFFFFFFFFFFFFFFF AND SWAP1 PUSH1 0x20 ADD SWAP1 SWAP3 SWAP2 SWAP1 DUP1 CALLDATALOAD SWAP1 PUSH1 0x20 ADD SWAP1 SWAP3 SWAP2 SWAP1 DUP1 CALLDATALOAD PUSH20 0xFFFFFFFFFFFFFFFFFFFFFFFFFFFFFFFFFFFFFFFF AND SWAP1 PUSH1 0x20 ADD SWAP1 SWAP3 SWAP2 SWAP1 POP POP POP PUSH2 0x2F88 JUMP JUMPDEST PUSH1 0x40 MLOAD DUP1 DUP3 ISZERO ISZERO ISZERO ISZERO DUP2 MSTORE PUSH1 0x20 ADD SWAP2 POP POP PUSH1 0x40 MLOAD DUP1 SWAP2 SUB SWAP1 RETURN JUMPDEST PUSH2 0x8CD PUSH1 0x4 DUP1 CALLDATASIZE SUB PUSH1 0x20 DUP2 LT ISZERO PUSH2 0x8B7 JUMPI PUSH1 0x0 DUP1 REVERT JUMPDEST DUP2 ADD SWAP1 DUP1 DUP1 CALLDATALOAD SWAP1 PUSH1 0x20 ADD SWAP1 SWAP3 SWAP2 SWAP1 POP POP POP PUSH2 0x3039 JUMP JUMPDEST PUSH1 0x40 MLOAD DUP1 DUP5 ISZERO ISZERO ISZERO ISZERO DUP2 MSTORE PUSH1 0x20 ADD DUP4 DUP2 MSTORE PUSH1 0x20 ADD DUP3 DUP2 MSTORE PUSH1 0x20 ADD SWAP4 POP POP POP POP PUSH1 0x40 MLOAD DUP1 SWAP2 SUB SWAP1 RETURN JUMPDEST PUSH2 0x94B PUSH1 0x4 DUP1 CALLDATASIZE SUB PUSH1 0x60 DUP2 LT ISZERO PUSH2 0x90B JUMPI PUSH1 0x0 DUP1 REVERT JUMPDEST DUP2 ADD SWAP1 DUP1 DUP1 CALLDATALOAD PUSH20 0xFFFFFFFFFFFFFFFFFFFFFFFFFFFFFFFFFFFFFFFF AND SWAP1 PUSH1 0x20 ADD SWAP1 SWAP3 SWAP2 SWAP1 DUP1 CALLDATALOAD SWAP1 PUSH1 0x20 ADD SWAP1 SWAP3 SWAP2 SWAP1 DUP1 CALLDATALOAD SWAP1 PUSH1 0x20 ADD SWAP1 SWAP3 SWAP2 SWAP1 POP POP POP PUSH2 0x307D JUMP JUMPDEST STOP JUMPDEST PUSH2 0x999 PUSH1 0x4 DUP1 CALLDATASIZE SUB PUSH1 0x40 DUP2 LT ISZERO PUSH2 0x963 JUMPI PUSH1 0x0 DUP1 REVERT JUMPDEST DUP2 ADD SWAP1 DUP1 DUP1 CALLDATALOAD PUSH20 0xFFFFFFFFFFFFFFFFFFFFFFFFFFFFFFFFFFFFFFFF AND SWAP1 PUSH1 0x20 ADD SWAP1 SWAP3 SWAP2 SWAP1 DUP1 CALLDATALOAD SWAP1 PUSH1 0x20 ADD SWAP1 SWAP3 SWAP2 SWAP1 POP POP POP PUSH2 0x36C6 JUMP JUMPDEST STOP JUMPDEST PUSH2 0x9F3 PUSH1 0x4 DUP1 CALLDATASIZE SUB PUSH1 0x60 DUP2 LT ISZERO PUSH2 0x9B1 JUMPI PUSH1 0x0 DUP1 REVERT JUMPDEST DUP2 ADD SWAP1 DUP1 DUP1 CALLDATALOAD SWAP1 PUSH1 0x20 ADD SWAP1 SWAP3 SWAP2 SWAP1 DUP1 CALLDATALOAD PUSH20 0xFFFFFFFFFFFFFFFFFFFFFFFFFFFFFFFFFFFFFFFF AND SWAP1 PUSH1 0x20 ADD SWAP1 SWAP3 SWAP2 SWAP1 DUP1 CALLDATALOAD ISZERO ISZERO SWAP1 PUSH1 0x20 ADD SWAP1 SWAP3 SWAP2 SWAP1 POP POP POP PUSH2 0x38BD JUMP JUMPDEST STOP JUMPDEST PUSH2 0x9FD PUSH2 0x3B40 JUMP JUMPDEST PUSH1 0x40 MLOAD DUP1 DUP3 PUSH20 0xFFFFFFFFFFFFFFFFFFFFFFFFFFFFFFFFFFFFFFFF AND PUSH20 0xFFFFFFFFFFFFFFFFFFFFFFFFFFFFFFFFFFFFFFFF AND DUP2 MSTORE PUSH1 0x20 ADD SWAP2 POP POP PUSH1 0x40 MLOAD DUP1 SWAP2 SUB SWAP1 RETURN JUMPDEST PUSH2 0xA95 PUSH1 0x4 DUP1 CALLDATASIZE SUB PUSH1 0x60 DUP2 LT ISZERO PUSH2 0xA55 JUMPI PUSH1 0x0 DUP1 REVERT JUMPDEST DUP2 ADD SWAP1 DUP1 DUP1 CALLDATALOAD PUSH20 0xFFFFFFFFFFFFFFFFFFFFFFFFFFFFFFFFFFFFFFFF AND SWAP1 PUSH1 0x20 ADD SWAP1 SWAP3 SWAP2 SWAP1 DUP1 CALLDATALOAD SWAP1 PUSH1 0x20 ADD SWAP1 SWAP3 SWAP2 SWAP1 DUP1 CALLDATALOAD SWAP1 PUSH1 0x20 ADD SWAP1 SWAP3 SWAP2 SWAP1 POP POP POP PUSH2 0x3B65 JUMP JUMPDEST PUSH1 0x40 MLOAD DUP1 DUP3 DUP2 MSTORE PUSH1 0x20 ADD SWAP2 POP POP PUSH1 0x40 MLOAD DUP1 SWAP2 SUB SWAP1 RETURN JUMPDEST PUSH2 0xAED PUSH1 0x4 DUP1 CALLDATASIZE SUB PUSH1 0x20 DUP2 LT ISZERO PUSH2 0xAC1 JUMPI PUSH1 0x0 DUP1 REVERT JUMPDEST DUP2 ADD SWAP1 DUP1 DUP1 CALLDATALOAD PUSH20 0xFFFFFFFFFFFFFFFFFFFFFFFFFFFFFFFFFFFFFFFF AND SWAP1 PUSH1 0x20 ADD SWAP1 SWAP3 SWAP2 SWAP1 POP POP POP PUSH2 0x3BDD JUMP JUMPDEST PUSH1 0x40 MLOAD DUP1 DUP3 DUP2 MSTORE PUSH1 0x20 ADD SWAP2 POP POP PUSH1 0x40 MLOAD DUP1 SWAP2 SUB SWAP1 RETURN JUMPDEST PUSH2 0xB0B PUSH2 0x3BF5 JUMP JUMPDEST PUSH1 0x40 MLOAD DUP1 DUP3 PUSH20 0xFFFFFFFFFFFFFFFFFFFFFFFFFFFFFFFFFFFFFFFF AND PUSH20 0xFFFFFFFFFFFFFFFFFFFFFFFFFFFFFFFFFFFFFFFF AND DUP2 MSTORE PUSH1 0x20 ADD SWAP2 POP POP PUSH1 0x40 MLOAD DUP1 SWAP2 SUB SWAP1 RETURN JUMPDEST DUP4 DUP4 PUSH1 0x0 PUSH1 0x4 PUSH1 0x0 DUP5 PUSH20 0xFFFFFFFFFFFFFFFFFFFFFFFFFFFFFFFFFFFFFFFF AND PUSH20 0xFFFFFFFFFFFFFFFFFFFFFFFFFFFFFFFFFFFFFFFF AND DUP2 MSTORE PUSH1 0x20 ADD SWAP1 DUP2 MSTORE PUSH1 0x20 ADD PUSH1 0x0 KECCAK256 DUP3 DUP2 SLOAD DUP2 LT PUSH2 0xB9B JUMPI INVALID JUMPDEST SWAP1 PUSH1 0x0 MSTORE PUSH1 0x20 PUSH1 0x0 KECCAK256 SWAP1 PUSH1 0xA MUL ADD SWAP1 POP DUP3 PUSH20 0xFFFFFFFFFFFFFFFFFFFFFFFFFFFFFFFFFFFFFFFF AND CALLER PUSH20 0xFFFFFFFFFFFFFFFFFFFFFFFFFFFFFFFFFFFFFFFF AND EQ PUSH2 0xCA0 JUMPI DUP1 PUSH1 0x8 ADD PUSH1 0x0 CALLER PUSH20 0xFFFFFFFFFFFFFFFFFFFFFFFFFFFFFFFFFFFFFFFF AND PUSH20 0xFFFFFFFFFFFFFFFFFFFFFFFFFFFFFFFFFFFFFFFF AND DUP2 MSTORE PUSH1 0x20 ADD SWAP1 DUP2 MSTORE PUSH1 0x20 ADD PUSH1 0x0 KECCAK256 PUSH1 0x0 SWAP1 SLOAD SWAP1 PUSH2 0x100 EXP SWAP1 DIV PUSH1 0xFF AND PUSH2 0xC9F JUMPI PUSH1 0x40 MLOAD PUSH32 0x8C379A000000000000000000000000000000000000000000000000000000000 DUP2 MSTORE PUSH1 0x4 ADD DUP1 DUP1 PUSH1 0x20 ADD DUP3 DUP2 SUB DUP3 MSTORE PUSH1 0x1A DUP2 MSTORE PUSH1 0x20 ADD DUP1 PUSH32 0x6E6F6D696E6174696F6E2073686F756C64206265207468657265000000000000 DUP2 MSTORE POP PUSH1 0x20 ADD SWAP2 POP POP PUSH1 0x40 MLOAD DUP1 SWAP2 SUB SWAP1 REVERT JUMPDEST JUMPDEST PUSH1 0x0 DUP6 GT PUSH2 0xCF9 JUMPI PUSH1 0x40 MLOAD PUSH32 0x8C379A000000000000000000000000000000000000000000000000000000000 DUP2 MSTORE PUSH1 0x4 ADD DUP1 DUP1 PUSH1 0x20 ADD DUP3 DUP2 SUB DUP3 MSTORE PUSH1 0x21 DUP2 MSTORE PUSH1 0x20 ADD DUP1 PUSH2 0x4373 PUSH1 0x21 SWAP2 CODECOPY PUSH1 0x40 ADD SWAP2 POP POP PUSH1 0x40 MLOAD DUP1 SWAP2 SUB SWAP1 REVERT JUMPDEST PUSH1 0x0 PUSH1 0x4 PUSH1 0x0 DUP10 PUSH20 0xFFFFFFFFFFFFFFFFFFFFFFFFFFFFFFFFFFFFFFFF AND PUSH20 0xFFFFFFFFFFFFFFFFFFFFFFFFFFFFFFFFFFFFFFFF AND DUP2 MSTORE PUSH1 0x20 ADD SWAP1 DUP2 MSTORE PUSH1 0x20 ADD PUSH1 0x0 KECCAK256 DUP8 DUP2 SLOAD DUP2 LT PUSH2 0xD45 JUMPI INVALID JUMPDEST SWAP1 PUSH1 0x0 MSTORE PUSH1 0x20 PUSH1 0x0 KECCAK256 SWAP1 PUSH1 0xA MUL ADD SWAP1 POP PUSH1 0x0 PUSH2 0xD61 DUP10 DUP10 PUSH2 0x13A6 JUMP JUMPDEST SWAP1 POP PUSH1 0xC DUP2 GT ISZERO PUSH2 0xDBD JUMPI PUSH1 0x40 MLOAD PUSH32 0x8C379A000000000000000000000000000000000000000000000000000000000 DUP2 MSTORE PUSH1 0x4 ADD DUP1 DUP1 PUSH1 0x20 ADD DUP3 DUP2 SUB DUP3 MSTORE PUSH1 0x28 DUP2 MSTORE PUSH1 0x20 ADD DUP1 PUSH2 0x434B PUSH1 0x28 SWAP2 CODECOPY PUSH1 0x40 ADD SWAP2 POP POP PUSH1 0x40 MLOAD DUP1 SWAP2 SUB SWAP1 REVERT JUMPDEST DUP6 ISZERO PUSH2 0xE5D JUMPI PUSH2 0xE15 DUP8 PUSH1 0x5 PUSH1 0x0 CALLER PUSH20 0xFFFFFFFFFFFFFFFFFFFFFFFFFFFFFFFFFFFFFFFF AND PUSH20 0xFFFFFFFFFFFFFFFFFFFFFFFFFFFFFFFFFFFFFFFF AND DUP2 MSTORE PUSH1 0x20 ADD SWAP1 DUP2 MSTORE PUSH1 0x20 ADD PUSH1 0x0 KECCAK256 SLOAD PUSH2 0x3C1B SWAP1 SWAP2 SWAP1 PUSH4 0xFFFFFFFF AND JUMP JUMPDEST PUSH1 0x5 PUSH1 0x0 CALLER PUSH20 0xFFFFFFFFFFFFFFFFFFFFFFFFFFFFFFFFFFFFFFFF AND PUSH20 0xFFFFFFFFFFFFFFFFFFFFFFFFFFFFFFFFFFFFFFFF AND DUP2 MSTORE PUSH1 0x20 ADD SWAP1 DUP2 MSTORE PUSH1 0x20 ADD PUSH1 0x0 KECCAK256 DUP2 SWAP1 SSTORE POP PUSH2 0xF77 JUMP JUMPDEST PUSH1 0x2 PUSH1 0x0 SWAP1 SLOAD SWAP1 PUSH2 0x100 EXP SWAP1 DIV PUSH20 0xFFFFFFFFFFFFFFFFFFFFFFFFFFFFFFFFFFFFFFFF AND PUSH20 0xFFFFFFFFFFFFFFFFFFFFFFFFFFFFFFFFFFFFFFFF AND PUSH4 0x23B872DD CALLER ADDRESS DUP11 PUSH1 0x40 MLOAD DUP5 PUSH4 0xFFFFFFFF AND PUSH1 0xE0 SHL DUP2 MSTORE PUSH1 0x4 ADD DUP1 DUP5 PUSH20 0xFFFFFFFFFFFFFFFFFFFFFFFFFFFFFFFFFFFFFFFF AND PUSH20 0xFFFFFFFFFFFFFFFFFFFFFFFFFFFFFFFFFFFFFFFF AND DUP2 MSTORE PUSH1 0x20 ADD DUP4 PUSH20 0xFFFFFFFFFFFFFFFFFFFFFFFFFFFFFFFFFFFFFFFF AND PUSH20 0xFFFFFFFFFFFFFFFFFFFFFFFFFFFFFFFFFFFFFFFF AND DUP2 MSTORE PUSH1 0x20 ADD DUP3 DUP2 MSTORE PUSH1 0x20 ADD SWAP4 POP POP POP POP PUSH1 0x20 PUSH1 0x40 MLOAD DUP1 DUP4 SUB DUP2 PUSH1 0x0 DUP8 DUP1 EXTCODESIZE ISZERO DUP1 ISZERO PUSH2 0xF3A JUMPI PUSH1 0x0 DUP1 REVERT JUMPDEST POP GAS CALL ISZERO DUP1 ISZERO PUSH2 0xF4E JUMPI RETURNDATASIZE PUSH1 0x0 DUP1 RETURNDATACOPY RETURNDATASIZE PUSH1 0x0 REVERT JUMPDEST POP POP POP POP PUSH1 0x40 MLOAD RETURNDATASIZE PUSH1 0x20 DUP2 LT ISZERO PUSH2 0xF64 JUMPI PUSH1 0x0 DUP1 REVERT JUMPDEST DUP2 ADD SWAP1 DUP1 DUP1 MLOAD SWAP1 PUSH1 0x20 ADD SWAP1 SWAP3 SWAP2 SWAP1 POP POP POP POP JUMPDEST PUSH1 0x0 PUSH2 0xFA1 DUP9 DUP5 PUSH1 0x6 ADD PUSH1 0x0 DUP6 DUP2 MSTORE PUSH1 0x20 ADD SWAP1 DUP2 MSTORE PUSH1 0x20 ADD PUSH1 0x0 KECCAK256 SLOAD PUSH2 0x3C65 SWAP1 SWAP2 SWAP1 PUSH4 0xFFFFFFFF AND JUMP JUMPDEST SWAP1 POP PUSH1 0x0 PUSH1 0x1 DUP4 SUB SWAP1 POP JUMPDEST PUSH1 0x0 DUP2 GT ISZERO PUSH2 0x105B JUMPI DUP4 PUSH1 0x6 ADD PUSH1 0x0 DUP3 DUP2 MSTORE PUSH1 0x20 ADD SWAP1 DUP2 MSTORE PUSH1 0x20 ADD PUSH1 0x0 KECCAK256 SLOAD PUSH1 0x0 LT DUP1 ISZERO PUSH2 0x1005 JUMPI POP PUSH2 0xFED PUSH1 0x2 DUP6 PUSH1 0x1 ADD SLOAD PUSH2 0x3CED SWAP1 SWAP2 SWAP1 PUSH4 0xFFFFFFFF AND JUMP JUMPDEST DUP5 PUSH1 0x6 ADD PUSH1 0x0 DUP4 DUP2 MSTORE PUSH1 0x20 ADD SWAP1 DUP2 MSTORE PUSH1 0x20 ADD PUSH1 0x0 KECCAK256 SLOAD LT JUMPDEST ISZERO PUSH2 0x1050 JUMPI PUSH2 0x1032 DUP5 PUSH1 0x6 ADD PUSH1 0x0 DUP4 DUP2 MSTORE PUSH1 0x20 ADD SWAP1 DUP2 MSTORE PUSH1 0x20 ADD PUSH1 0x0 KECCAK256 SLOAD DUP4 PUSH2 0x3C65 SWAP1 SWAP2 SWAP1 PUSH4 0xFFFFFFFF AND JUMP JUMPDEST SWAP2 POP PUSH1 0x0 DUP5 PUSH1 0x6 ADD PUSH1 0x0 DUP4 DUP2 MSTORE PUSH1 0x20 ADD SWAP1 DUP2 MSTORE PUSH1 0x20 ADD PUSH1 0x0 KECCAK256 DUP2 SWAP1 SSTORE POP JUMPDEST PUSH1 0x1 DUP2 SUB SWAP1 POP PUSH2 0xFAC JUMP JUMPDEST PUSH1 0x0 PUSH2 0x1069 DUP6 PUSH1 0x0 DUP7 PUSH2 0x3D37 JUMP JUMPDEST SWAP1 POP PUSH1 0x0 PUSH2 0x108A DUP3 PUSH2 0x107C DUP9 DUP8 DUP10 PUSH2 0x3D37 JUMP JUMPDEST PUSH2 0x3C1B SWAP1 SWAP2 SWAP1 PUSH4 0xFFFFFFFF AND JUMP JUMPDEST SWAP1 POP PUSH1 0x2 PUSH1 0x0 SWAP1 SLOAD SWAP1 PUSH2 0x100 EXP SWAP1 DIV PUSH20 0xFFFFFFFFFFFFFFFFFFFFFFFFFFFFFFFFFFFFFFFF AND PUSH20 0xFFFFFFFFFFFFFFFFFFFFFFFFFFFFFFFFFFFFFFFF AND PUSH4 0x23B872DD PUSH1 0x1 PUSH1 0x0 SWAP1 SLOAD SWAP1 PUSH2 0x100 EXP SWAP1 DIV PUSH20 0xFFFFFFFFFFFFFFFFFFFFFFFFFFFFFFFFFFFFFFFF AND ADDRESS DUP5 PUSH1 0x40 MLOAD DUP5 PUSH4 0xFFFFFFFF AND PUSH1 0xE0 SHL DUP2 MSTORE PUSH1 0x4 ADD DUP1 DUP5 PUSH20 0xFFFFFFFFFFFFFFFFFFFFFFFFFFFFFFFFFFFFFFFF AND PUSH20 0xFFFFFFFFFFFFFFFFFFFFFFFFFFFFFFFFFFFFFFFF AND DUP2 MSTORE PUSH1 0x20 ADD DUP4 PUSH20 0xFFFFFFFFFFFFFFFFFFFFFFFFFFFFFFFFFFFFFFFF AND PUSH20 0xFFFFFFFFFFFFFFFFFFFFFFFFFFFFFFFFFFFFFFFF AND DUP2 MSTORE PUSH1 0x20 ADD DUP3 DUP2 MSTORE PUSH1 0x20 ADD SWAP4 POP POP POP POP PUSH1 0x20 PUSH1 0x40 MLOAD DUP1 DUP4 SUB DUP2 PUSH1 0x0 DUP8 DUP1 EXTCODESIZE ISZERO DUP1 ISZERO PUSH2 0x118B JUMPI PUSH1 0x0 DUP1 REVERT JUMPDEST POP GAS CALL ISZERO DUP1 ISZERO PUSH2 0x119F JUMPI RETURNDATASIZE PUSH1 0x0 DUP1 RETURNDATACOPY RETURNDATASIZE PUSH1 0x0 REVERT JUMPDEST POP POP POP POP PUSH1 0x40 MLOAD RETURNDATASIZE PUSH1 0x20 DUP2 LT ISZERO PUSH2 0x11B5 JUMPI PUSH1 0x0 DUP1 REVERT JUMPDEST DUP2 ADD SWAP1 DUP1 DUP1 MLOAD SWAP1 PUSH1 0x20 ADD SWAP1 SWAP3 SWAP2 SWAP1 POP POP POP POP DUP4 DUP7 PUSH1 0x6 ADD PUSH1 0x0 DUP8 DUP2 MSTORE PUSH1 0x20 ADD SWAP1 DUP2 MSTORE PUSH1 0x20 ADD PUSH1 0x0 KECCAK256 DUP2 SWAP1 SSTORE POP DUP12 DUP14 PUSH20 0xFFFFFFFFFFFFFFFFFFFFFFFFFFFFFFFFFFFFFFFF AND PUSH32 0xA0F7AD829C9CB80662BE76DA1EEFCF008F173427DB87F98A6D935F043F1A12E5 DUP8 DUP15 CALLER DUP16 PUSH1 0x40 MLOAD DUP1 DUP6 DUP2 MSTORE PUSH1 0x20 ADD DUP5 DUP2 MSTORE PUSH1 0x20 ADD DUP4 PUSH20 0xFFFFFFFFFFFFFFFFFFFFFFFFFFFFFFFFFFFFFFFF AND PUSH20 0xFFFFFFFFFFFFFFFFFFFFFFFFFFFFFFFFFFFFFFFF AND DUP2 MSTORE PUSH1 0x20 ADD DUP3 ISZERO ISZERO ISZERO ISZERO DUP2 MSTORE PUSH1 0x20 ADD SWAP5 POP POP POP POP POP PUSH1 0x40 MLOAD DUP1 SWAP2 SUB SWAP1 LOG3 POP POP POP POP POP POP POP POP POP POP POP POP POP JUMP JUMPDEST DUP1 PUSH1 0x4 PUSH1 0x0 CALLER PUSH20 0xFFFFFFFFFFFFFFFFFFFFFFFFFFFFFFFFFFFFFFFF AND PUSH20 0xFFFFFFFFFFFFFFFFFFFFFFFFFFFFFFFFFFFFFFFF AND DUP2 MSTORE PUSH1 0x20 ADD SWAP1 DUP2 MSTORE PUSH1 0x20 ADD PUSH1 0x0 KECCAK256 DUP5 DUP2 SLOAD DUP2 LT PUSH2 0x12D2 JUMPI INVALID JUMPDEST SWAP1 PUSH1 0x0 MSTORE PUSH1 0x20 PUSH1 0x0 KECCAK256 SWAP1 PUSH1 0xA MUL ADD PUSH1 0x8 ADD PUSH1 0x0 DUP5 PUSH20 0xFFFFFFFFFFFFFFFFFFFFFFFFFFFFFFFFFFFFFFFF AND PUSH20 0xFFFFFFFFFFFFFFFFFFFFFFFFFFFFFFFFFFFFFFFF AND DUP2 MSTORE PUSH1 0x20 ADD SWAP1 DUP2 MSTORE PUSH1 0x20 ADD PUSH1 0x0 KECCAK256 PUSH1 0x0 PUSH2 0x100 EXP DUP2 SLOAD DUP2 PUSH1 0xFF MUL NOT AND SWAP1 DUP4 ISZERO ISZERO MUL OR SWAP1 SSTORE POP DUP2 PUSH20 0xFFFFFFFFFFFFFFFFFFFFFFFFFFFFFFFFFFFFFFFF AND DUP4 CALLER PUSH20 0xFFFFFFFFFFFFFFFFFFFFFFFFFFFFFFFFFFFFFFFF AND PUSH32 0x90E4568F920D8BB093366A04150AA0D04957A471196F5E1CDFB0DB3CB83CC5B0 DUP5 PUSH1 0x40 MLOAD DUP1 DUP3 ISZERO ISZERO ISZERO ISZERO DUP2 MSTORE PUSH1 0x20 ADD SWAP2 POP POP PUSH1 0x40 MLOAD DUP1 SWAP2 SUB SWAP1 LOG4 POP POP POP JUMP JUMPDEST PUSH1 0x0 PUSH1 0x1 PUSH3 0x282070 PUSH1 0x4 PUSH1 0x0 DUP7 PUSH20 0xFFFFFFFFFFFFFFFFFFFFFFFFFFFFFFFFFFFFFFFF AND PUSH20 0xFFFFFFFFFFFFFFFFFFFFFFFFFFFFFFFFFFFFFFFF AND DUP2 MSTORE PUSH1 0x20 ADD SWAP1 DUP2 MSTORE PUSH1 0x20 ADD PUSH1 0x0 KECCAK256 DUP5 DUP2 SLOAD DUP2 LT PUSH2 0x13F8 JUMPI INVALID JUMPDEST SWAP1 PUSH1 0x0 MSTORE PUSH1 0x20 PUSH1 0x0 KECCAK256 SWAP1 PUSH1 0xA MUL ADD PUSH1 0x2 ADD SLOAD PUSH1 0x2 PUSH1 0x0 SWAP1 SLOAD SWAP1 PUSH2 0x100 EXP SWAP1 DIV PUSH20 0xFFFFFFFFFFFFFFFFFFFFFFFFFFFFFFFFFFFFFFFF AND PUSH20 0xFFFFFFFFFFFFFFFFFFFFFFFFFFFFFFFFFFFFFFFF AND PUSH4 0xB81F90F3 PUSH1 0x40 MLOAD DUP2 PUSH4 0xFFFFFFFF AND PUSH1 0xE0 SHL DUP2 MSTORE PUSH1 0x4 ADD PUSH1 0x20 PUSH1 0x40 MLOAD DUP1 DUP4 SUB DUP2 DUP7 DUP1 EXTCODESIZE ISZERO DUP1 ISZERO PUSH2 0x1472 JUMPI PUSH1 0x0 DUP1 REVERT JUMPDEST POP GAS STATICCALL ISZERO DUP1 ISZERO PUSH2 0x1486 JUMPI RETURNDATASIZE PUSH1 0x0 DUP1 RETURNDATACOPY RETURNDATASIZE PUSH1 0x0 REVERT JUMPDEST POP POP POP POP PUSH1 0x40 MLOAD RETURNDATASIZE PUSH1 0x20 DUP2 LT ISZERO PUSH2 0x149C JUMPI PUSH1 0x0 DUP1 REVERT JUMPDEST DUP2 ADD SWAP1 DUP1 DUP1 MLOAD SWAP1 PUSH1 0x20 ADD SWAP1 SWAP3 SWAP2 SWAP1 POP POP POP SUB DUP2 PUSH2 0x14B5 JUMPI INVALID JUMPDEST DIV ADD SWAP1 POP SWAP3 SWAP2 POP POP JUMP JUMPDEST PUSH1 0x2 PUSH1 0x0 SWAP1 SLOAD SWAP1 PUSH2 0x100 EXP SWAP1 DIV PUSH20 0xFFFFFFFFFFFFFFFFFFFFFFFFFFFFFFFFFFFFFFFF AND PUSH20 0xFFFFFFFFFFFFFFFFFFFFFFFFFFFFFFFFFFFFFFFF AND PUSH4 0x23B872DD CALLER ADDRESS DUP5 PUSH1 0x40 MLOAD DUP5 PUSH4 0xFFFFFFFF AND PUSH1 0xE0 SHL DUP2 MSTORE PUSH1 0x4 ADD DUP1 DUP5 PUSH20 0xFFFFFFFFFFFFFFFFFFFFFFFFFFFFFFFFFFFFFFFF AND PUSH20 0xFFFFFFFFFFFFFFFFFFFFFFFFFFFFFFFFFFFFFFFF AND DUP2 MSTORE PUSH1 0x20 ADD DUP4 PUSH20 0xFFFFFFFFFFFFFFFFFFFFFFFFFFFFFFFFFFFFFFFF AND PUSH20 0xFFFFFFFFFFFFFFFFFFFFFFFFFFFFFFFFFFFFFFFF AND DUP2 MSTORE PUSH1 0x20 ADD DUP3 DUP2 MSTORE PUSH1 0x20 ADD SWAP4 POP POP POP POP PUSH1 0x20 PUSH1 0x40 MLOAD DUP1 DUP4 SUB DUP2 PUSH1 0x0 DUP8 DUP1 EXTCODESIZE ISZERO DUP1 ISZERO PUSH2 0x159C JUMPI PUSH1 0x0 DUP1 REVERT JUMPDEST POP GAS CALL ISZERO DUP1 ISZERO PUSH2 0x15B0 JUMPI RETURNDATASIZE PUSH1 0x0 DUP1 RETURNDATACOPY RETURNDATASIZE PUSH1 0x0 REVERT JUMPDEST POP POP POP POP PUSH1 0x40 MLOAD RETURNDATASIZE PUSH1 0x20 DUP2 LT ISZERO PUSH2 0x15C6 JUMPI PUSH1 0x0 DUP1 REVERT JUMPDEST DUP2 ADD SWAP1 DUP1 DUP1 MLOAD SWAP1 PUSH1 0x20 ADD SWAP1 SWAP3 SWAP2 SWAP1 POP POP POP POP PUSH2 0x162A DUP2 PUSH1 0x5 PUSH1 0x0 CALLER PUSH20 0xFFFFFFFFFFFFFFFFFFFFFFFFFFFFFFFFFFFFFFFF AND PUSH20 0xFFFFFFFFFFFFFFFFFFFFFFFFFFFFFFFFFFFFFFFF AND DUP2 MSTORE PUSH1 0x20 ADD SWAP1 DUP2 MSTORE PUSH1 0x20 ADD PUSH1 0x0 KECCAK256 SLOAD PUSH2 0x3C65 SWAP1 SWAP2 SWAP1 PUSH4 0xFFFFFFFF AND JUMP JUMPDEST PUSH1 0x5 PUSH1 0x0 CALLER PUSH20 0xFFFFFFFFFFFFFFFFFFFFFFFFFFFFFFFFFFFFFFFF AND PUSH20 0xFFFFFFFFFFFFFFFFFFFFFFFFFFFFFFFFFFFFFFFF AND DUP2 MSTORE PUSH1 0x20 ADD SWAP1 DUP2 MSTORE PUSH1 0x20 ADD PUSH1 0x0 KECCAK256 DUP2 SWAP1 SSTORE POP POP JUMP JUMPDEST PUSH1 0x3 DUP3 DUP2 SLOAD DUP2 LT PUSH2 0x167D JUMPI INVALID JUMPDEST SWAP1 PUSH1 0x0 MSTORE PUSH1 0x20 PUSH1 0x0 KECCAK256 SWAP1 PUSH1 0x3 MUL ADD PUSH1 0x0 ADD PUSH1 0x0 SWAP1 SLOAD SWAP1 PUSH2 0x100 EXP SWAP1 DIV PUSH1 0xFF AND PUSH2 0x170E JUMPI PUSH1 0x40 MLOAD PUSH32 0x8C379A000000000000000000000000000000000000000000000000000000000 DUP2 MSTORE PUSH1 0x4 ADD DUP1 DUP1 PUSH1 0x20 ADD DUP3 DUP2 SUB DUP3 MSTORE PUSH1 0x16 DUP2 MSTORE PUSH1 0x20 ADD DUP1 PUSH32 0x50455420706C616E206973206E6F742061637469766500000000000000000000 DUP2 MSTORE POP PUSH1 0x20 ADD SWAP2 POP POP PUSH1 0x40 MLOAD DUP1 SWAP2 SUB SWAP1 REVERT JUMPDEST PUSH1 0x3 DUP3 DUP2 SLOAD DUP2 LT PUSH2 0x171B JUMPI INVALID JUMPDEST SWAP1 PUSH1 0x0 MSTORE PUSH1 0x20 PUSH1 0x0 KECCAK256 SWAP1 PUSH1 0x3 MUL ADD PUSH1 0x1 ADD SLOAD DUP2 LT ISZERO PUSH2 0x17A2 JUMPI PUSH1 0x40 MLOAD PUSH32 0x8C379A000000000000000000000000000000000000000000000000000000000 DUP2 MSTORE PUSH1 0x4 ADD DUP1 DUP1 PUSH1 0x20 ADD DUP3 DUP2 SUB DUP3 MSTORE PUSH1 0x1B DUP2 MSTORE PUSH1 0x20 ADD DUP1 PUSH32 0x6C6F77206D6F6E74686C79436F6D6D69746D656E74416D6F756E740000000000 DUP2 MSTORE POP PUSH1 0x20 ADD SWAP2 POP POP PUSH1 0x40 MLOAD DUP1 SWAP2 SUB SWAP1 REVERT JUMPDEST PUSH1 0x4 PUSH1 0x0 CALLER PUSH20 0xFFFFFFFFFFFFFFFFFFFFFFFFFFFFFFFFFFFFFFFF AND PUSH20 0xFFFFFFFFFFFFFFFFFFFFFFFFFFFFFFFFFFFFFFFF AND DUP2 MSTORE PUSH1 0x20 ADD SWAP1 DUP2 MSTORE PUSH1 0x20 ADD PUSH1 0x0 KECCAK256 PUSH1 0x40 MLOAD DUP1 PUSH1 0xC0 ADD PUSH1 0x40 MSTORE DUP1 DUP5 DUP2 MSTORE PUSH1 0x20 ADD DUP4 DUP2 MSTORE PUSH1 0x20 ADD PUSH1 0x2 PUSH1 0x0 SWAP1 SLOAD SWAP1 PUSH2 0x100 EXP SWAP1 DIV PUSH20 0xFFFFFFFFFFFFFFFFFFFFFFFFFFFFFFFFFFFFFFFF AND PUSH20 0xFFFFFFFFFFFFFFFFFFFFFFFFFFFFFFFFFFFFFFFF AND PUSH4 0xB81F90F3 PUSH1 0x40 MLOAD DUP2 PUSH4 0xFFFFFFFF AND PUSH1 0xE0 SHL DUP2 MSTORE PUSH1 0x4 ADD PUSH1 0x20 PUSH1 0x40 MLOAD DUP1 DUP4 SUB DUP2 DUP7 DUP1 EXTCODESIZE ISZERO DUP1 ISZERO PUSH2 0x1860 JUMPI PUSH1 0x0 DUP1 REVERT JUMPDEST POP GAS STATICCALL ISZERO DUP1 ISZERO PUSH2 0x1874 JUMPI RETURNDATASIZE PUSH1 0x0 DUP1 RETURNDATACOPY RETURNDATASIZE PUSH1 0x0 REVERT JUMPDEST POP POP POP POP PUSH1 0x40 MLOAD RETURNDATASIZE PUSH1 0x20 DUP2 LT ISZERO PUSH2 0x188A JUMPI PUSH1 0x0 DUP1 REVERT JUMPDEST DUP2 ADD SWAP1 DUP1 DUP1 MLOAD SWAP1 PUSH1 0x20 ADD SWAP1 SWAP3 SWAP2 SWAP1 POP POP POP DUP2 MSTORE PUSH1 0x20 ADD PUSH1 0x0 DUP2 MSTORE PUSH1 0x20 ADD PUSH1 0x0 DUP2 MSTORE PUSH1 0x20 ADD PUSH1 0x0 DUP2 MSTORE POP SWAP1 DUP1 PUSH1 0x1 DUP2 SLOAD ADD DUP1 DUP3 SSTORE DUP1 SWAP2 POP POP PUSH1 0x1 SWAP1 SUB SWAP1 PUSH1 0x0 MSTORE PUSH1 0x20 PUSH1 0x0 KECCAK256 SWAP1 PUSH1 0xA MUL ADD PUSH1 0x0 SWAP1 SWAP2 SWAP1 SWAP2 SWAP1 SWAP2 POP PUSH1 0x0 DUP3 ADD MLOAD DUP2 PUSH1 0x0 ADD SSTORE PUSH1 0x20 DUP3 ADD MLOAD DUP2 PUSH1 0x1 ADD SSTORE PUSH1 0x40 DUP3 ADD MLOAD DUP2 PUSH1 0x2 ADD SSTORE PUSH1 0x60 DUP3 ADD MLOAD DUP2 PUSH1 0x3 ADD SSTORE PUSH1 0x80 DUP3 ADD MLOAD DUP2 PUSH1 0x4 ADD SSTORE PUSH1 0xA0 DUP3 ADD MLOAD DUP2 PUSH1 0x5 ADD SSTORE POP POP CALLER PUSH20 0xFFFFFFFFFFFFFFFFFFFFFFFFFFFFFFFFFFFFFFFF AND PUSH32 0x4459F0AE7FF9F1DFCB9443FF1A9268613580CDB8B1C0F59A4BD4384B94C99F04 PUSH1 0x1 PUSH1 0x4 PUSH1 0x0 CALLER PUSH20 0xFFFFFFFFFFFFFFFFFFFFFFFFFFFFFFFFFFFFFFFF AND PUSH20 0xFFFFFFFFFFFFFFFFFFFFFFFFFFFFFFFFFFFFFFFF AND DUP2 MSTORE PUSH1 0x20 ADD SWAP1 DUP2 MSTORE PUSH1 0x20 ADD PUSH1 0x0 KECCAK256 DUP1 SLOAD SWAP1 POP SUB DUP4 PUSH1 0x40 MLOAD DUP1 DUP4 DUP2 MSTORE PUSH1 0x20 ADD DUP3 DUP2 MSTORE PUSH1 0x20 ADD SWAP3 POP POP POP PUSH1 0x40 MLOAD DUP1 SWAP2 SUB SWAP1 LOG2 POP POP JUMP JUMPDEST PUSH1 0x0 PUSH1 0x4 PUSH1 0x0 DUP6 PUSH20 0xFFFFFFFFFFFFFFFFFFFFFFFFFFFFFFFFFFFFFFFF AND PUSH20 0xFFFFFFFFFFFFFFFFFFFFFFFFFFFFFFFFFFFFFFFF AND DUP2 MSTORE PUSH1 0x20 ADD SWAP1 DUP2 MSTORE PUSH1 0x20 ADD PUSH1 0x0 KECCAK256 DUP4 DUP2 SLOAD DUP2 LT PUSH2 0x1A05 JUMPI INVALID JUMPDEST SWAP1 PUSH1 0x0 MSTORE PUSH1 0x20 PUSH1 0x0 KECCAK256 SWAP1 PUSH1 0xA MUL ADD PUSH1 0x8 ADD PUSH1 0x0 DUP4 PUSH20 0xFFFFFFFFFFFFFFFFFFFFFFFFFFFFFFFFFFFFFFFF AND PUSH20 0xFFFFFFFFFFFFFFFFFFFFFFFFFFFFFFFFFFFFFFFF AND DUP2 MSTORE PUSH1 0x20 ADD SWAP1 DUP2 MSTORE PUSH1 0x20 ADD PUSH1 0x0 KECCAK256 PUSH1 0x0 SWAP1 SLOAD SWAP1 PUSH2 0x100 EXP SWAP1 DIV PUSH1 0xFF AND SWAP1 POP SWAP4 SWAP3 POP POP POP JUMP JUMPDEST DUP3 DUP3 PUSH1 0x0 PUSH1 0x4 PUSH1 0x0 DUP5 PUSH20 0xFFFFFFFFFFFFFFFFFFFFFFFFFFFFFFFFFFFFFFFF AND PUSH20 0xFFFFFFFFFFFFFFFFFFFFFFFFFFFFFFFFFFFFFFFF AND DUP2 MSTORE PUSH1 0x20 ADD SWAP1 DUP2 MSTORE PUSH1 0x20 ADD PUSH1 0x0 KECCAK256 DUP3 DUP2 SLOAD DUP2 LT PUSH2 0x1AB8 JUMPI INVALID JUMPDEST SWAP1 PUSH1 0x0 MSTORE PUSH1 0x20 PUSH1 0x0 KECCAK256 SWAP1 PUSH1 0xA MUL ADD SWAP1 POP DUP3 PUSH20 0xFFFFFFFFFFFFFFFFFFFFFFFFFFFFFFFFFFFFFFFF AND CALLER PUSH20 0xFFFFFFFFFFFFFFFFFFFFFFFFFFFFFFFFFFFFFFFF AND EQ PUSH2 0x1BBD JUMPI DUP1 PUSH1 0x8 ADD PUSH1 0x0 CALLER PUSH20 0xFFFFFFFFFFFFFFFFFFFFFFFFFFFFFFFFFFFFFFFF AND PUSH20 0xFFFFFFFFFFFFFFFFFFFFFFFFFFFFFFFFFFFFFFFF AND DUP2 MSTORE PUSH1 0x20 ADD SWAP1 DUP2 MSTORE PUSH1 0x20 ADD PUSH1 0x0 KECCAK256 PUSH1 0x0 SWAP1 SLOAD SWAP1 PUSH2 0x100 EXP SWAP1 DIV PUSH1 0xFF AND PUSH2 0x1BBC JUMPI PUSH1 0x40 MLOAD PUSH32 0x8C379A000000000000000000000000000000000000000000000000000000000 DUP2 MSTORE PUSH1 0x4 ADD DUP1 DUP1 PUSH1 0x20 ADD DUP3 DUP2 SUB DUP3 MSTORE PUSH1 0x1A DUP2 MSTORE PUSH1 0x20 ADD DUP1 PUSH32 0x6E6F6D696E6174696F6E2073686F756C64206265207468657265000000000000 DUP2 MSTORE POP PUSH1 0x20 ADD SWAP2 POP POP PUSH1 0x40 MLOAD DUP1 SWAP2 SUB SWAP1 REVERT JUMPDEST JUMPDEST PUSH1 0x0 PUSH1 0x4 PUSH1 0x0 DUP9 PUSH20 0xFFFFFFFFFFFFFFFFFFFFFFFFFFFFFFFFFFFFFFFF AND PUSH20 0xFFFFFFFFFFFFFFFFFFFFFFFFFFFFFFFFFFFFFFFF AND DUP2 MSTORE PUSH1 0x20 ADD SWAP1 DUP2 MSTORE PUSH1 0x20 ADD PUSH1 0x0 KECCAK256 DUP7 DUP2 SLOAD DUP2 LT PUSH2 0x1C09 JUMPI INVALID JUMPDEST SWAP1 PUSH1 0x0 MSTORE PUSH1 0x20 PUSH1 0x0 KECCAK256 SWAP1 PUSH1 0xA MUL ADD SWAP1 POP PUSH1 0x0 DUP2 PUSH1 0x3 ADD SLOAD SWAP1 POP DUP6 DUP2 LT PUSH2 0x1C97 JUMPI PUSH1 0x40 MLOAD PUSH32 0x8C379A000000000000000000000000000000000000000000000000000000000 DUP2 MSTORE PUSH1 0x4 ADD DUP1 DUP1 PUSH1 0x20 ADD DUP3 DUP2 SUB DUP3 MSTORE PUSH1 0x1A DUP2 MSTORE PUSH1 0x20 ADD DUP1 PUSH32 0x73746172742073686F756C64206265206265666F726520656E64000000000000 DUP2 MSTORE POP PUSH1 0x20 ADD SWAP2 POP POP PUSH1 0x40 MLOAD DUP1 SWAP2 SUB SWAP1 REVERT JUMPDEST PUSH1 0x3C DUP7 GT ISZERO PUSH2 0x1D0E JUMPI PUSH1 0x40 MLOAD PUSH32 0x8C379A000000000000000000000000000000000000000000000000000000000 DUP2 MSTORE PUSH1 0x4 ADD DUP1 DUP1 PUSH1 0x20 ADD DUP3 DUP2 SUB DUP3 MSTORE PUSH1 0x1A DUP2 MSTORE PUSH1 0x20 ADD DUP1 PUSH32 0x6F6E6C7920363020416E6E756974792077697468647261776C73000000000000 DUP2 MSTORE POP PUSH1 0x20 ADD SWAP2 POP POP PUSH1 0x40 MLOAD DUP1 SWAP2 SUB SWAP1 REVERT JUMPDEST PUSH1 0x0 PUSH2 0x1D1B DUP10 DUP10 DUP10 PUSH2 0x2C03 JUMP JUMPDEST SWAP1 POP DUP1 PUSH1 0x2 PUSH1 0x0 SWAP1 SLOAD SWAP1 PUSH2 0x100 EXP SWAP1 DIV PUSH20 0xFFFFFFFFFFFFFFFFFFFFFFFFFFFFFFFFFFFFFFFF AND PUSH20 0xFFFFFFFFFFFFFFFFFFFFFFFFFFFFFFFFFFFFFFFF AND PUSH4 0xB81F90F3 PUSH1 0x40 MLOAD DUP2 PUSH4 0xFFFFFFFF AND PUSH1 0xE0 SHL DUP2 MSTORE PUSH1 0x4 ADD PUSH1 0x20 PUSH1 0x40 MLOAD DUP1 DUP4 SUB DUP2 DUP7 DUP1 EXTCODESIZE ISZERO DUP1 ISZERO PUSH2 0x1D86 JUMPI PUSH1 0x0 DUP1 REVERT JUMPDEST POP GAS STATICCALL ISZERO DUP1 ISZERO PUSH2 0x1D9A JUMPI RETURNDATASIZE PUSH1 0x0 DUP1 RETURNDATACOPY RETURNDATASIZE PUSH1 0x0 REVERT JUMPDEST POP POP POP POP PUSH1 0x40 MLOAD RETURNDATASIZE PUSH1 0x20 DUP2 LT ISZERO PUSH2 0x1DB0 JUMPI PUSH1 0x0 DUP1 REVERT JUMPDEST DUP2 ADD SWAP1 DUP1 DUP1 MLOAD SWAP1 PUSH1 0x20 ADD SWAP1 SWAP3 SWAP2 SWAP1 POP POP POP LT ISZERO PUSH2 0x1E35 JUMPI PUSH1 0x40 MLOAD PUSH32 0x8C379A000000000000000000000000000000000000000000000000000000000 DUP2 MSTORE PUSH1 0x4 ADD DUP1 DUP1 PUSH1 0x20 ADD DUP3 DUP2 SUB DUP3 MSTORE PUSH1 0x15 DUP2 MSTORE PUSH1 0x20 ADD DUP1 PUSH32 0x63616E6E6F74207769746864726177206561726C790000000000000000000000 DUP2 MSTORE POP PUSH1 0x20 ADD SWAP2 POP POP PUSH1 0x40 MLOAD DUP1 SWAP2 SUB SWAP1 REVERT JUMPDEST PUSH1 0x0 PUSH2 0x1E46 DUP11 DUP11 PUSH1 0x1 DUP7 ADD DUP12 PUSH2 0x2AD3 JUMP JUMPDEST SWAP1 POP DUP8 DUP5 PUSH1 0x3 ADD DUP2 SWAP1 SSTORE POP PUSH1 0x0 DUP4 EQ ISZERO PUSH2 0x1E65 JUMPI PUSH2 0x1E64 DUP11 DUP11 PUSH2 0x3E9E JUMP JUMPDEST JUMPDEST PUSH1 0x0 DUP2 EQ PUSH2 0x1F53 JUMPI PUSH1 0x2 PUSH1 0x0 SWAP1 SLOAD SWAP1 PUSH2 0x100 EXP SWAP1 DIV PUSH20 0xFFFFFFFFFFFFFFFFFFFFFFFFFFFFFFFFFFFFFFFF AND PUSH20 0xFFFFFFFFFFFFFFFFFFFFFFFFFFFFFFFFFFFFFFFF AND PUSH4 0xA9059CBB CALLER DUP4 PUSH1 0x40 MLOAD DUP4 PUSH4 0xFFFFFFFF AND PUSH1 0xE0 SHL DUP2 MSTORE PUSH1 0x4 ADD DUP1 DUP4 PUSH20 0xFFFFFFFFFFFFFFFFFFFFFFFFFFFFFFFFFFFFFFFF AND PUSH20 0xFFFFFFFFFFFFFFFFFFFFFFFFFFFFFFFFFFFFFFFF AND DUP2 MSTORE PUSH1 0x20 ADD DUP3 DUP2 MSTORE PUSH1 0x20 ADD SWAP3 POP POP POP PUSH1 0x20 PUSH1 0x40 MLOAD DUP1 DUP4 SUB DUP2 PUSH1 0x0 DUP8 DUP1 EXTCODESIZE ISZERO DUP1 ISZERO PUSH2 0x1F16 JUMPI PUSH1 0x0 DUP1 REVERT JUMPDEST POP GAS CALL ISZERO DUP1 ISZERO PUSH2 0x1F2A JUMPI RETURNDATASIZE PUSH1 0x0 DUP1 RETURNDATACOPY RETURNDATASIZE PUSH1 0x0 REVERT JUMPDEST POP POP POP POP PUSH1 0x40 MLOAD RETURNDATASIZE PUSH1 0x20 DUP2 LT ISZERO PUSH2 0x1F40 JUMPI PUSH1 0x0 DUP1 REVERT JUMPDEST DUP2 ADD SWAP1 DUP1 DUP1 MLOAD SWAP1 PUSH1 0x20 ADD SWAP1 SWAP3 SWAP2 SWAP1 POP POP POP POP JUMPDEST DUP9 DUP11 PUSH20 0xFFFFFFFFFFFFFFFFFFFFFFFFFFFFFFFFFFFFFFFF AND PUSH32 0xD662EA67C34EB456A3277BEA947873F932447F3F58FAA13B41F4CA3DEFD32C3A PUSH1 0x1 DUP7 ADD DUP12 DUP6 CALLER PUSH1 0x40 MLOAD DUP1 DUP6 DUP2 MSTORE PUSH1 0x20 ADD DUP5 DUP2 MSTORE PUSH1 0x20 ADD DUP4 DUP2 MSTORE PUSH1 0x20 ADD DUP3 PUSH20 0xFFFFFFFFFFFFFFFFFFFFFFFFFFFFFFFFFFFFFFFF AND PUSH20 0xFFFFFFFFFFFFFFFFFFFFFFFFFFFFFFFFFFFFFFFF AND DUP2 MSTORE PUSH1 0x20 ADD SWAP5 POP POP POP POP POP PUSH1 0x40 MLOAD DUP1 SWAP2 SUB SWAP1 LOG3 POP POP POP POP POP POP POP POP POP POP JUMP JUMPDEST PUSH1 0x0 DUP4 GT PUSH2 0x204E JUMPI PUSH1 0x40 MLOAD PUSH32 0x8C379A000000000000000000000000000000000000000000000000000000000 DUP2 MSTORE PUSH1 0x4 ADD DUP1 DUP1 PUSH1 0x20 ADD DUP3 DUP2 SUB DUP3 MSTORE PUSH1 0x21 DUP2 MSTORE PUSH1 0x20 ADD DUP1 PUSH2 0x4373 PUSH1 0x21 SWAP2 CODECOPY PUSH1 0x40 ADD SWAP2 POP POP PUSH1 0x40 MLOAD DUP1 SWAP2 SUB SWAP1 REVERT JUMPDEST PUSH1 0x0 PUSH1 0x4 PUSH1 0x0 DUP8 PUSH20 0xFFFFFFFFFFFFFFFFFFFFFFFFFFFFFFFFFFFFFFFF AND PUSH20 0xFFFFFFFFFFFFFFFFFFFFFFFFFFFFFFFFFFFFFFFF AND DUP2 MSTORE PUSH1 0x20 ADD SWAP1 DUP2 MSTORE PUSH1 0x20 ADD PUSH1 0x0 KECCAK256 DUP6 DUP2 SLOAD DUP2 LT PUSH2 0x209A JUMPI INVALID JUMPDEST SWAP1 PUSH1 0x0 MSTORE PUSH1 0x20 PUSH1 0x0 KECCAK256 SWAP1 PUSH1 0xA MUL ADD SWAP1 POP PUSH1 0x0 PUSH2 0x20B6 DUP8 DUP8 PUSH2 0x13A6 JUMP JUMPDEST SWAP1 POP PUSH1 0x0 PUSH2 0x20E0 PUSH1 0x1 PUSH2 0x20D2 DUP8 DUP6 PUSH2 0x3C65 SWAP1 SWAP2 SWAP1 PUSH4 0xFFFFFFFF AND JUMP JUMPDEST PUSH2 0x3C1B SWAP1 SWAP2 SWAP1 PUSH4 0xFFFFFFFF AND JUMP JUMPDEST SWAP1 POP PUSH1 0xC DUP2 GT ISZERO PUSH2 0x213C JUMPI PUSH1 0x40 MLOAD PUSH32 0x8C379A000000000000000000000000000000000000000000000000000000000 DUP2 MSTORE PUSH1 0x4 ADD DUP1 DUP1 PUSH1 0x20 ADD DUP3 DUP2 SUB DUP3 MSTORE PUSH1 0x28 DUP2 MSTORE PUSH1 0x20 ADD DUP1 PUSH2 0x434B PUSH1 0x28 SWAP2 CODECOPY PUSH1 0x40 ADD SWAP2 POP POP PUSH1 0x40 MLOAD DUP1 SWAP2 SUB SWAP1 REVERT JUMPDEST PUSH1 0x0 DUP4 PUSH1 0x6 ADD PUSH1 0x0 DUP5 DUP2 MSTORE PUSH1 0x20 ADD SWAP1 DUP2 MSTORE PUSH1 0x20 ADD PUSH1 0x0 KECCAK256 SLOAD EQ PUSH2 0x21AA JUMPI PUSH1 0x40 MLOAD PUSH32 0x8C379A000000000000000000000000000000000000000000000000000000000 DUP2 MSTORE PUSH1 0x4 ADD DUP1 DUP1 PUSH1 0x20 ADD DUP3 DUP2 SUB DUP3 MSTORE PUSH1 0x23 DUP2 MSTORE PUSH1 0x20 ADD DUP1 PUSH2 0x4307 PUSH1 0x23 SWAP2 CODECOPY PUSH1 0x40 ADD SWAP2 POP POP PUSH1 0x40 MLOAD DUP1 SWAP2 SUB SWAP1 REVERT JUMPDEST PUSH1 0x0 PUSH1 0x3 DUP7 EQ ISZERO PUSH2 0x21C6 JUMPI PUSH9 0x1A055690D9DB80000 SWAP1 POP PUSH2 0x2271 JUMP JUMPDEST PUSH1 0x6 DUP7 EQ ISZERO PUSH2 0x21E0 JUMPI PUSH9 0x22B1C8C1227A00000 SWAP1 POP PUSH2 0x2270 JUMP JUMPDEST PUSH1 0xC DUP7 EQ ISZERO PUSH2 0x21FA JUMPI PUSH9 0x2B5E3AF16B1880000 SWAP1 POP PUSH2 0x226F JUMP JUMPDEST PUSH1 0x0 PUSH2 0x226E JUMPI PUSH1 0x40 MLOAD PUSH32 0x8C379A000000000000000000000000000000000000000000000000000000000 DUP2 MSTORE PUSH1 0x4 ADD DUP1 DUP1 PUSH1 0x20 ADD DUP3 DUP2 SUB DUP3 MSTORE PUSH1 0x15 DUP2 MSTORE PUSH1 0x20 ADD DUP1 PUSH32 0x756E737570706F72746564206672657175656E63790000000000000000000000 DUP2 MSTORE POP PUSH1 0x20 ADD SWAP2 POP POP PUSH1 0x40 MLOAD DUP1 SWAP2 SUB SWAP1 REVERT JUMPDEST JUMPDEST JUMPDEST JUMPDEST PUSH1 0x0 PUSH2 0x2286 DUP8 DUP10 PUSH2 0x3CED SWAP1 SWAP2 SWAP1 PUSH4 0xFFFFFFFF AND JUMP JUMPDEST SWAP1 POP DUP5 PUSH1 0x1 ADD SLOAD DUP2 LT ISZERO PUSH2 0x2302 JUMPI PUSH1 0x40 MLOAD PUSH32 0x8C379A000000000000000000000000000000000000000000000000000000000 DUP2 MSTORE PUSH1 0x4 ADD DUP1 DUP1 PUSH1 0x20 ADD DUP3 DUP2 SUB DUP3 MSTORE PUSH1 0x1F DUP2 MSTORE PUSH1 0x20 ADD DUP1 PUSH32 0x6465706F736974206E6F742063726F7373696E6720636F6D6D69746D656E7400 DUP2 MSTORE POP PUSH1 0x20 ADD SWAP2 POP POP PUSH1 0x40 MLOAD DUP1 SWAP2 SUB SWAP1 REVERT JUMPDEST PUSH1 0x0 PUSH2 0x2310 DUP7 DUP4 PUSH1 0x1 PUSH2 0x3D37 JUMP JUMPDEST SWAP1 POP DUP7 ISZERO PUSH2 0x23C4 JUMPI PUSH2 0x237C PUSH2 0x232E DUP5 DUP12 PUSH2 0x3C65 SWAP1 SWAP2 SWAP1 PUSH4 0xFFFFFFFF AND JUMP JUMPDEST PUSH1 0x5 PUSH1 0x0 CALLER PUSH20 0xFFFFFFFFFFFFFFFFFFFFFFFFFFFFFFFFFFFFFFFF AND PUSH20 0xFFFFFFFFFFFFFFFFFFFFFFFFFFFFFFFFFFFFFFFF AND DUP2 MSTORE PUSH1 0x20 ADD SWAP1 DUP2 MSTORE PUSH1 0x20 ADD PUSH1 0x0 KECCAK256 SLOAD PUSH2 0x3C1B SWAP1 SWAP2 SWAP1 PUSH4 0xFFFFFFFF AND JUMP JUMPDEST PUSH1 0x5 PUSH1 0x0 CALLER PUSH20 0xFFFFFFFFFFFFFFFFFFFFFFFFFFFFFFFFFFFFFFFF AND PUSH20 0xFFFFFFFFFFFFFFFFFFFFFFFFFFFFFFFFFFFFFFFF AND DUP2 MSTORE PUSH1 0x20 ADD SWAP1 DUP2 MSTORE PUSH1 0x20 ADD PUSH1 0x0 KECCAK256 DUP2 SWAP1 SSTORE POP PUSH2 0x24F0 JUMP JUMPDEST PUSH1 0x2 PUSH1 0x0 SWAP1 SLOAD SWAP1 PUSH2 0x100 EXP SWAP1 DIV PUSH20 0xFFFFFFFFFFFFFFFFFFFFFFFFFFFFFFFFFFFFFFFF AND PUSH20 0xFFFFFFFFFFFFFFFFFFFFFFFFFFFFFFFFFFFFFFFF AND PUSH4 0x23B872DD CALLER ADDRESS PUSH2 0x2417 DUP8 DUP15 PUSH2 0x3C65 SWAP1 SWAP2 SWAP1 PUSH4 0xFFFFFFFF AND JUMP JUMPDEST PUSH1 0x40 MLOAD DUP5 PUSH4 0xFFFFFFFF AND PUSH1 0xE0 SHL DUP2 MSTORE PUSH1 0x4 ADD DUP1 DUP5 PUSH20 0xFFFFFFFFFFFFFFFFFFFFFFFFFFFFFFFFFFFFFFFF AND PUSH20 0xFFFFFFFFFFFFFFFFFFFFFFFFFFFFFFFFFFFFFFFF AND DUP2 MSTORE PUSH1 0x20 ADD DUP4 PUSH20 0xFFFFFFFFFFFFFFFFFFFFFFFFFFFFFFFFFFFFFFFF AND PUSH20 0xFFFFFFFFFFFFFFFFFFFFFFFFFFFFFFFFFFFFFFFF AND DUP2 MSTORE PUSH1 0x20 ADD DUP3 DUP2 MSTORE PUSH1 0x20 ADD SWAP4 POP POP POP POP PUSH1 0x20 PUSH1 0x40 MLOAD DUP1 DUP4 SUB DUP2 PUSH1 0x0 DUP8 DUP1 EXTCODESIZE ISZERO DUP1 ISZERO PUSH2 0x24B3 JUMPI PUSH1 0x0 DUP1 REVERT JUMPDEST POP GAS CALL ISZERO DUP1 ISZERO PUSH2 0x24C7 JUMPI RETURNDATASIZE PUSH1 0x0 DUP1 RETURNDATACOPY RETURNDATASIZE PUSH1 0x0 REVERT JUMPDEST POP POP POP POP PUSH1 0x40 MLOAD RETURNDATASIZE PUSH1 0x20 DUP2 LT ISZERO PUSH2 0x24DD JUMPI PUSH1 0x0 DUP1 REVERT JUMPDEST DUP2 ADD SWAP1 DUP1 DUP1 MLOAD SWAP1 PUSH1 0x20 ADD SWAP1 SWAP3 SWAP2 SWAP1 POP POP POP POP JUMPDEST PUSH2 0x2563 DUP4 PUSH1 0x5 PUSH1 0x0 DUP1 PUSH1 0x0 SWAP1 SLOAD SWAP1 PUSH2 0x100 EXP SWAP1 DIV PUSH20 0xFFFFFFFFFFFFFFFFFFFFFFFFFFFFFFFFFFFFFFFF AND PUSH20 0xFFFFFFFFFFFFFFFFFFFFFFFFFFFFFFFFFFFFFFFF AND PUSH20 0xFFFFFFFFFFFFFFFFFFFFFFFFFFFFFFFFFFFFFFFF AND DUP2 MSTORE PUSH1 0x20 ADD SWAP1 DUP2 MSTORE PUSH1 0x20 ADD PUSH1 0x0 KECCAK256 SLOAD PUSH2 0x3C65 SWAP1 SWAP2 SWAP1 PUSH4 0xFFFFFFFF AND JUMP JUMPDEST PUSH1 0x5 PUSH1 0x0 DUP1 PUSH1 0x0 SWAP1 SLOAD SWAP1 PUSH2 0x100 EXP SWAP1 DIV PUSH20 0xFFFFFFFFFFFFFFFFFFFFFFFFFFFFFFFFFFFFFFFF AND PUSH20 0xFFFFFFFFFFFFFFFFFFFFFFFFFFFFFFFFFFFFFFFF AND PUSH20 0xFFFFFFFFFFFFFFFFFFFFFFFFFFFFFFFFFFFFFFFF AND DUP2 MSTORE PUSH1 0x20 ADD SWAP1 DUP2 MSTORE PUSH1 0x20 ADD PUSH1 0x0 KECCAK256 DUP2 SWAP1 SSTORE POP PUSH1 0x2 PUSH1 0x0 SWAP1 SLOAD SWAP1 PUSH2 0x100 EXP SWAP1 DIV PUSH20 0xFFFFFFFFFFFFFFFFFFFFFFFFFFFFFFFFFFFFFFFF AND PUSH20 0xFFFFFFFFFFFFFFFFFFFFFFFFFFFFFFFFFFFFFFFF AND PUSH4 0x23B872DD PUSH1 0x1 PUSH1 0x0 SWAP1 SLOAD SWAP1 PUSH2 0x100 EXP SWAP1 DIV PUSH20 0xFFFFFFFFFFFFFFFFFFFFFFFFFFFFFFFFFFFFFFFF AND ADDRESS PUSH2 0x263C DUP13 DUP7 PUSH2 0x406F SWAP1 SWAP2 SWAP1 PUSH4 0xFFFFFFFF AND JUMP JUMPDEST PUSH1 0x40 MLOAD DUP5 PUSH4 0xFFFFFFFF AND PUSH1 0xE0 SHL DUP2 MSTORE PUSH1 0x4 ADD DUP1 DUP5 PUSH20 0xFFFFFFFFFFFFFFFFFFFFFFFFFFFFFFFFFFFFFFFF AND PUSH20 0xFFFFFFFFFFFFFFFFFFFFFFFFFFFFFFFFFFFFFFFF AND DUP2 MSTORE PUSH1 0x20 ADD DUP4 PUSH20 0xFFFFFFFFFFFFFFFFFFFFFFFFFFFFFFFFFFFFFFFF AND PUSH20 0xFFFFFFFFFFFFFFFFFFFFFFFFFFFFFFFFFFFFFFFF AND DUP2 MSTORE PUSH1 0x20 ADD DUP3 DUP2 MSTORE PUSH1 0x20 ADD SWAP4 POP POP POP POP PUSH1 0x20 PUSH1 0x40 MLOAD DUP1 DUP4 SUB DUP2 PUSH1 0x0 DUP8 DUP1 EXTCODESIZE ISZERO DUP1 ISZERO PUSH2 0x26D8 JUMPI PUSH1 0x0 DUP1 REVERT JUMPDEST POP GAS CALL ISZERO DUP1 ISZERO PUSH2 0x26EC JUMPI RETURNDATASIZE PUSH1 0x0 DUP1 RETURNDATACOPY RETURNDATASIZE PUSH1 0x0 REVERT JUMPDEST POP POP POP POP PUSH1 0x40 MLOAD RETURNDATASIZE PUSH1 0x20 DUP2 LT ISZERO PUSH2 0x2702 JUMPI PUSH1 0x0 DUP1 REVERT JUMPDEST DUP2 ADD SWAP1 DUP1 DUP1 MLOAD SWAP1 PUSH1 0x20 ADD SWAP1 SWAP3 SWAP2 SWAP1 POP POP POP POP PUSH1 0x0 DUP6 SWAP1 POP JUMPDEST DUP5 DUP2 GT PUSH2 0x27DF JUMPI DUP3 DUP8 PUSH1 0x6 ADD PUSH1 0x0 DUP4 DUP2 MSTORE PUSH1 0x20 ADD SWAP1 DUP2 MSTORE PUSH1 0x20 ADD PUSH1 0x0 KECCAK256 DUP2 SWAP1 SSTORE POP DUP11 DUP13 PUSH20 0xFFFFFFFFFFFFFFFFFFFFFFFFFFFFFFFFFFFFFFFF AND PUSH32 0xA0F7AD829C9CB80662BE76DA1EEFCF008F173427DB87F98A6D935F043F1A12E5 DUP4 DUP7 CALLER DUP14 PUSH1 0x40 MLOAD DUP1 DUP6 DUP2 MSTORE PUSH1 0x20 ADD DUP5 DUP2 MSTORE PUSH1 0x20 ADD DUP4 PUSH20 0xFFFFFFFFFFFFFFFFFFFFFFFFFFFFFFFFFFFFFFFF AND PUSH20 0xFFFFFFFFFFFFFFFFFFFFFFFFFFFFFFFFFFFFFFFF AND DUP2 MSTORE PUSH1 0x20 ADD DUP3 ISZERO ISZERO ISZERO ISZERO DUP2 MSTORE PUSH1 0x20 ADD SWAP5 POP POP POP POP POP PUSH1 0x40 MLOAD DUP1 SWAP2 SUB SWAP1 LOG3 DUP1 DUP1 PUSH1 0x1 ADD SWAP2 POP POP PUSH2 0x271A JUMP JUMPDEST POP POP POP POP POP POP POP POP POP POP POP POP JUMP JUMPDEST PUSH1 0x4 PUSH1 0x20 MSTORE DUP2 PUSH1 0x0 MSTORE PUSH1 0x40 PUSH1 0x0 KECCAK256 DUP2 DUP2 SLOAD DUP2 LT PUSH2 0x2806 JUMPI INVALID JUMPDEST SWAP1 PUSH1 0x0 MSTORE PUSH1 0x20 PUSH1 0x0 KECCAK256 SWAP1 PUSH1 0xA MUL ADD PUSH1 0x0 SWAP2 POP SWAP2 POP POP DUP1 PUSH1 0x0 ADD SLOAD SWAP1 DUP1 PUSH1 0x1 ADD SLOAD SWAP1 DUP1 PUSH1 0x2 ADD SLOAD SWAP1 DUP1 PUSH1 0x3 ADD SLOAD SWAP1 DUP1 PUSH1 0x4 ADD SLOAD SWAP1 DUP1 PUSH1 0x5 ADD SLOAD SWAP1 POP DUP7 JUMP JUMPDEST PUSH1 0x1 PUSH1 0x0 SWAP1 SLOAD SWAP1 PUSH2 0x100 EXP SWAP1 DIV PUSH20 0xFFFFFFFFFFFFFFFFFFFFFFFFFFFFFFFFFFFFFFFF AND DUP2 JUMP JUMPDEST PUSH1 0x0 DUP1 PUSH1 0x4 PUSH1 0x0 DUP6 PUSH20 0xFFFFFFFFFFFFFFFFFFFFFFFFFFFFFFFFFFFFFFFF AND PUSH20 0xFFFFFFFFFFFFFFFFFFFFFFFFFFFFFFFFFFFFFFFF AND DUP2 MSTORE PUSH1 0x20 ADD SWAP1 DUP2 MSTORE PUSH1 0x20 ADD PUSH1 0x0 KECCAK256 DUP4 DUP2 SLOAD DUP2 LT PUSH2 0x28B6 JUMPI INVALID JUMPDEST SWAP1 PUSH1 0x0 MSTORE PUSH1 0x20 PUSH1 0x0 KECCAK256 SWAP1 PUSH1 0xA MUL ADD SWAP1 POP PUSH1 0x0 DUP1 PUSH1 0x1 SWAP1 POP JUMPDEST PUSH1 0xC DUP2 GT PUSH2 0x2920 JUMPI PUSH1 0x0 PUSH2 0x28FB DUP5 PUSH1 0x6 ADD PUSH1 0x0 DUP5 DUP2 MSTORE PUSH1 0x20 ADD SWAP1 DUP2 MSTORE PUSH1 0x20 ADD PUSH1 0x0 KECCAK256 SLOAD DUP6 PUSH1 0x1 ADD SLOAD PUSH2 0x40F5 JUMP JUMPDEST SWAP1 POP PUSH2 0x2910 DUP2 DUP5 PUSH2 0x3C65 SWAP1 SWAP2 SWAP1 PUSH4 0xFFFFFFFF AND JUMP JUMPDEST SWAP3 POP POP DUP1 DUP1 PUSH1 0x1 ADD SWAP2 POP POP PUSH2 0x28CE JUMP JUMPDEST POP PUSH2 0x2935 PUSH1 0xC DUP3 PUSH2 0x3CED SWAP1 SWAP2 SWAP1 PUSH4 0xFFFFFFFF AND JUMP JUMPDEST SWAP3 POP POP POP SWAP3 SWAP2 POP POP JUMP JUMPDEST PUSH1 0x0 DUP1 SWAP1 SLOAD SWAP1 PUSH2 0x100 EXP SWAP1 DIV PUSH20 0xFFFFFFFFFFFFFFFFFFFFFFFFFFFFFFFFFFFFFFFF AND PUSH20 0xFFFFFFFFFFFFFFFFFFFFFFFFFFFFFFFFFFFFFFFF AND CALLER PUSH20 0xFFFFFFFFFFFFFFFFFFFFFFFFFFFFFFFFFFFFFFFF AND EQ PUSH2 0x2A01 JUMPI PUSH1 0x40 MLOAD PUSH32 0x8C379A000000000000000000000000000000000000000000000000000000000 DUP2 MSTORE PUSH1 0x4 ADD DUP1 DUP1 PUSH1 0x20 ADD DUP3 DUP2 SUB DUP3 MSTORE PUSH1 0x16 DUP2 MSTORE PUSH1 0x20 ADD DUP1 PUSH32 0x6F6E6C79206465706C6F7965722063616E2063616C6C00000000000000000000 DUP2 MSTORE POP PUSH1 0x20 ADD SWAP2 POP POP PUSH1 0x40 MLOAD DUP1 SWAP2 SUB SWAP1 REVERT JUMPDEST PUSH1 0x3 PUSH1 0x40 MLOAD DUP1 PUSH1 0x60 ADD PUSH1 0x40 MSTORE DUP1 PUSH1 0x1 ISZERO ISZERO DUP2 MSTORE PUSH1 0x20 ADD DUP5 DUP2 MSTORE PUSH1 0x20 ADD DUP4 DUP2 MSTORE POP SWAP1 DUP1 PUSH1 0x1 DUP2 SLOAD ADD DUP1 DUP3 SSTORE DUP1 SWAP2 POP POP PUSH1 0x1 SWAP1 SUB SWAP1 PUSH1 0x0 MSTORE PUSH1 0x20 PUSH1 0x0 KECCAK256 SWAP1 PUSH1 0x3 MUL ADD PUSH1 0x0 SWAP1 SWAP2 SWAP1 SWAP2 SWAP1 SWAP2 POP PUSH1 0x0 DUP3 ADD MLOAD DUP2 PUSH1 0x0 ADD PUSH1 0x0 PUSH2 0x100 EXP DUP2 SLOAD DUP2 PUSH1 0xFF MUL NOT AND SWAP1 DUP4 ISZERO ISZERO MUL OR SWAP1 SSTORE POP PUSH1 0x20 DUP3 ADD MLOAD DUP2 PUSH1 0x1 ADD SSTORE PUSH1 0x40 DUP3 ADD MLOAD DUP2 PUSH1 0x2 ADD SSTORE POP POP PUSH32 0xF47D2A74CDEAC9661BE2D3138ED3F81D11ABCFF723E84A800A60B86EEAF90AFE DUP3 DUP3 PUSH1 0x1 PUSH1 0x3 DUP1 SLOAD SWAP1 POP SUB PUSH1 0x40 MLOAD DUP1 DUP5 DUP2 MSTORE PUSH1 0x20 ADD DUP4 DUP2 MSTORE PUSH1 0x20 ADD DUP3 DUP2 MSTORE PUSH1 0x20 ADD SWAP4 POP POP POP POP PUSH1 0x40 MLOAD DUP1 SWAP2 SUB SWAP1 LOG1 POP POP JUMP JUMPDEST PUSH1 0x0 DUP1 PUSH1 0x4 PUSH1 0x0 DUP8 PUSH20 0xFFFFFFFFFFFFFFFFFFFFFFFFFFFFFFFFFFFFFFFF AND PUSH20 0xFFFFFFFFFFFFFFFFFFFFFFFFFFFFFFFFFFFFFFFF AND DUP2 MSTORE PUSH1 0x20 ADD SWAP1 DUP2 MSTORE PUSH1 0x20 ADD PUSH1 0x0 KECCAK256 DUP6 DUP2 SLOAD DUP2 LT PUSH2 0x2B20 JUMPI INVALID JUMPDEST SWAP1 PUSH1 0x0 MSTORE PUSH1 0x20 PUSH1 0x0 KECCAK256 SWAP1 PUSH1 0xA MUL ADD SWAP1 POP PUSH1 0x0 PUSH1 0x3 DUP3 PUSH1 0x0 ADD SLOAD DUP2 SLOAD DUP2 LT PUSH2 0x2B43 JUMPI INVALID JUMPDEST SWAP1 PUSH1 0x0 MSTORE PUSH1 0x20 PUSH1 0x0 KECCAK256 SWAP1 PUSH1 0x3 MUL ADD SWAP1 POP PUSH1 0x0 DUP1 DUP7 SWAP1 POP JUMPDEST DUP6 DUP2 GT PUSH2 0x2BCA JUMPI PUSH1 0x0 PUSH1 0xC DUP3 DUP2 PUSH2 0x2B6D JUMPI INVALID JUMPDEST MOD SWAP1 POP PUSH1 0x0 PUSH2 0x2BA4 DUP7 PUSH1 0x6 ADD PUSH1 0x0 DUP1 DUP6 EQ PUSH2 0x2B88 JUMPI DUP5 PUSH2 0x2B8B JUMP JUMPDEST PUSH1 0xC JUMPDEST DUP2 MSTORE PUSH1 0x20 ADD SWAP1 DUP2 MSTORE PUSH1 0x20 ADD PUSH1 0x0 KECCAK256 SLOAD DUP8 PUSH1 0x1 ADD SLOAD PUSH2 0x40F5 JUMP JUMPDEST SWAP1 POP PUSH2 0x2BB9 DUP2 DUP6 PUSH2 0x3C65 SWAP1 SWAP2 SWAP1 PUSH4 0xFFFFFFFF AND JUMP JUMPDEST SWAP4 POP POP POP DUP1 DUP1 PUSH1 0x1 ADD SWAP2 POP POP PUSH2 0x2B5A JUMP JUMPDEST POP PUSH2 0x2BF6 PUSH2 0x3E8 PUSH2 0x2BE8 DUP5 PUSH1 0x2 ADD SLOAD DUP5 PUSH2 0x406F SWAP1 SWAP2 SWAP1 PUSH4 0xFFFFFFFF AND JUMP JUMPDEST PUSH2 0x3CED SWAP1 SWAP2 SWAP1 PUSH4 0xFFFFFFFF AND JUMP JUMPDEST SWAP4 POP POP POP POP SWAP5 SWAP4 POP POP POP POP JUMP JUMPDEST PUSH1 0x0 DUP1 PUSH1 0x4 PUSH1 0x0 DUP7 PUSH20 0xFFFFFFFFFFFFFFFFFFFFFFFFFFFFFFFFFFFFFFFF AND PUSH20 0xFFFFFFFFFFFFFFFFFFFFFFFFFFFFFFFFFFFFFFFF AND DUP2 MSTORE PUSH1 0x20 ADD SWAP1 DUP2 MSTORE PUSH1 0x20 ADD PUSH1 0x0 KECCAK256 DUP5 DUP2 SLOAD DUP2 LT PUSH2 0x2C50 JUMPI INVALID JUMPDEST SWAP1 PUSH1 0x0 MSTORE PUSH1 0x20 PUSH1 0x0 KECCAK256 SWAP1 PUSH1 0xA MUL ADD SWAP1 POP PUSH1 0x0 PUSH3 0x282070 PUSH1 0x1 DUP6 PUSH1 0xC ADD SUB MUL DUP3 PUSH1 0x2 ADD SLOAD ADD SWAP1 POP DUP6 PUSH20 0xFFFFFFFFFFFFFFFFFFFFFFFFFFFFFFFFFFFFFFFF AND CALLER PUSH20 0xFFFFFFFFFFFFFFFFFFFFFFFFFFFFFFFFFFFFFFFF AND EQ PUSH2 0x2CE9 JUMPI PUSH2 0x2CC1 PUSH1 0x2 DUP4 PUSH1 0x5 ADD SLOAD PUSH2 0x3CED SWAP1 SWAP2 SWAP1 PUSH4 0xFFFFFFFF AND JUMP JUMPDEST DUP3 PUSH1 0x4 ADD SLOAD GT ISZERO PUSH2 0x2CDC JUMPI PUSH1 0x6 PUSH3 0x282070 MUL DUP2 ADD SWAP1 POP PUSH2 0x2CE8 JUMP JUMPDEST PUSH1 0xC PUSH3 0x282070 MUL DUP2 ADD SWAP1 POP JUMPDEST JUMPDEST DUP1 SWAP3 POP POP POP SWAP4 SWAP3 POP POP POP JUMP JUMPDEST PUSH1 0x0 DUP1 SWAP1 POP JUMPDEST DUP3 MLOAD DUP2 LT ISZERO PUSH2 0x2E87 JUMPI PUSH2 0x2D69 DUP3 DUP3 DUP2 MLOAD DUP2 LT PUSH2 0x2D13 JUMPI INVALID JUMPDEST PUSH1 0x20 MUL PUSH1 0x20 ADD ADD MLOAD PUSH1 0x5 PUSH1 0x0 CALLER PUSH20 0xFFFFFFFFFFFFFFFFFFFFFFFFFFFFFFFFFFFFFFFF AND PUSH20 0xFFFFFFFFFFFFFFFFFFFFFFFFFFFFFFFFFFFFFFFF AND DUP2 MSTORE PUSH1 0x20 ADD SWAP1 DUP2 MSTORE PUSH1 0x20 ADD PUSH1 0x0 KECCAK256 SLOAD PUSH2 0x3C1B SWAP1 SWAP2 SWAP1 PUSH4 0xFFFFFFFF AND JUMP JUMPDEST PUSH1 0x5 PUSH1 0x0 CALLER PUSH20 0xFFFFFFFFFFFFFFFFFFFFFFFFFFFFFFFFFFFFFFFF AND PUSH20 0xFFFFFFFFFFFFFFFFFFFFFFFFFFFFFFFFFFFFFFFF AND DUP2 MSTORE PUSH1 0x20 ADD SWAP1 DUP2 MSTORE PUSH1 0x20 ADD PUSH1 0x0 KECCAK256 DUP2 SWAP1 SSTORE POP PUSH2 0x2E24 DUP3 DUP3 DUP2 MLOAD DUP2 LT PUSH2 0x2DBB JUMPI INVALID JUMPDEST PUSH1 0x20 MUL PUSH1 0x20 ADD ADD MLOAD PUSH1 0x5 PUSH1 0x0 DUP7 DUP6 DUP2 MLOAD DUP2 LT PUSH2 0x2DD3 JUMPI INVALID JUMPDEST PUSH1 0x20 MUL PUSH1 0x20 ADD ADD MLOAD PUSH20 0xFFFFFFFFFFFFFFFFFFFFFFFFFFFFFFFFFFFFFFFF AND PUSH20 0xFFFFFFFFFFFFFFFFFFFFFFFFFFFFFFFFFFFFFFFF AND DUP2 MSTORE PUSH1 0x20 ADD SWAP1 DUP2 MSTORE PUSH1 0x20 ADD PUSH1 0x0 KECCAK256 SLOAD PUSH2 0x3C65 SWAP1 SWAP2 SWAP1 PUSH4 0xFFFFFFFF AND JUMP JUMPDEST PUSH1 0x5 PUSH1 0x0 DUP6 DUP5 DUP2 MLOAD DUP2 LT PUSH2 0x2E34 JUMPI INVALID JUMPDEST PUSH1 0x20 MUL PUSH1 0x20 ADD ADD MLOAD PUSH20 0xFFFFFFFFFFFFFFFFFFFFFFFFFFFFFFFFFFFFFFFF AND PUSH20 0xFFFFFFFFFFFFFFFFFFFFFFFFFFFFFFFFFFFFFFFF AND DUP2 MSTORE PUSH1 0x20 ADD SWAP1 DUP2 MSTORE PUSH1 0x20 ADD PUSH1 0x0 KECCAK256 DUP2 SWAP1 SSTORE POP DUP1 DUP1 PUSH1 0x1 ADD SWAP2 POP POP PUSH2 0x2CFB JUMP JUMPDEST POP POP POP JUMP JUMPDEST PUSH1 0x0 DUP1 SWAP1 SLOAD SWAP1 PUSH2 0x100 EXP SWAP1 DIV PUSH20 0xFFFFFFFFFFFFFFFFFFFFFFFFFFFFFFFFFFFFFFFF AND PUSH20 0xFFFFFFFFFFFFFFFFFFFFFFFFFFFFFFFFFFFFFFFF AND CALLER PUSH20 0xFFFFFFFFFFFFFFFFFFFFFFFFFFFFFFFFFFFFFFFF AND EQ PUSH2 0x2F4E JUMPI PUSH1 0x40 MLOAD PUSH32 0x8C379A000000000000000000000000000000000000000000000000000000000 DUP2 MSTORE PUSH1 0x4 ADD DUP1 DUP1 PUSH1 0x20 ADD DUP3 DUP2 SUB DUP3 MSTORE PUSH1 0x16 DUP2 MSTORE PUSH1 0x20 ADD DUP1 PUSH32 0x6F6E6C79206465706C6F7965722063616E2063616C6C00000000000000000000 DUP2 MSTORE POP PUSH1 0x20 ADD SWAP2 POP POP PUSH1 0x40 MLOAD DUP1 SWAP2 SUB SWAP1 REVERT JUMPDEST DUP1 PUSH1 0x3 DUP4 DUP2 SLOAD DUP2 LT PUSH2 0x2F5C JUMPI INVALID JUMPDEST SWAP1 PUSH1 0x0 MSTORE PUSH1 0x20 PUSH1 0x0 KECCAK256 SWAP1 PUSH1 0x3 MUL ADD PUSH1 0x0 ADD PUSH1 0x0 PUSH2 0x100 EXP DUP2 SLOAD DUP2 PUSH1 0xFF MUL NOT AND SWAP1 DUP4 ISZERO ISZERO MUL OR SWAP1 SSTORE POP POP POP JUMP JUMPDEST PUSH1 0x0 PUSH1 0x4 PUSH1 0x0 DUP6 PUSH20 0xFFFFFFFFFFFFFFFFFFFFFFFFFFFFFFFFFFFFFFFF AND PUSH20 0xFFFFFFFFFFFFFFFFFFFFFFFFFFFFFFFFFFFFFFFF AND DUP2 MSTORE PUSH1 0x20 ADD SWAP1 DUP2 MSTORE PUSH1 0x20 ADD PUSH1 0x0 KECCAK256 DUP4 DUP2 SLOAD DUP2 LT PUSH2 0x2FD4 JUMPI INVALID JUMPDEST SWAP1 PUSH1 0x0 MSTORE PUSH1 0x20 PUSH1 0x0 KECCAK256 SWAP1 PUSH1 0xA MUL ADD PUSH1 0x9 ADD PUSH1 0x0 DUP4 PUSH20 0xFFFFFFFFFFFFFFFFFFFFFFFFFFFFFFFFFFFFFFFF AND PUSH20 0xFFFFFFFFFFFFFFFFFFFFFFFFFFFFFFFFFFFFFFFF AND DUP2 MSTORE PUSH1 0x20 ADD SWAP1 DUP2 MSTORE PUSH1 0x20 ADD PUSH1 0x0 KECCAK256 PUSH1 0x0 SWAP1 SLOAD SWAP1 PUSH2 0x100 EXP SWAP1 DIV PUSH1 0xFF AND SWAP1 POP SWAP4 SWAP3 POP POP POP JUMP JUMPDEST PUSH1 0x3 DUP2 DUP2 SLOAD DUP2 LT PUSH2 0x3046 JUMPI INVALID JUMPDEST SWAP1 PUSH1 0x0 MSTORE PUSH1 0x20 PUSH1 0x0 KECCAK256 SWAP1 PUSH1 0x3 MUL ADD PUSH1 0x0 SWAP2 POP SWAP1 POP DUP1 PUSH1 0x0 ADD PUSH1 0x0 SWAP1 SLOAD SWAP1 PUSH2 0x100 EXP SWAP1 DIV PUSH1 0xFF AND SWAP1 DUP1 PUSH1 0x1 ADD SLOAD SWAP1 DUP1 PUSH1 0x2 ADD SLOAD SWAP1 POP DUP4 JUMP JUMPDEST DUP3 DUP3 PUSH1 0x0 PUSH1 0x4 PUSH1 0x0 DUP5 PUSH20 0xFFFFFFFFFFFFFFFFFFFFFFFFFFFFFFFFFFFFFFFF AND PUSH20 0xFFFFFFFFFFFFFFFFFFFFFFFFFFFFFFFFFFFFFFFF AND DUP2 MSTORE PUSH1 0x20 ADD SWAP1 DUP2 MSTORE PUSH1 0x20 ADD PUSH1 0x0 KECCAK256 DUP3 DUP2 SLOAD DUP2 LT PUSH2 0x30CB JUMPI INVALID JUMPDEST SWAP1 PUSH1 0x0 MSTORE PUSH1 0x20 PUSH1 0x0 KECCAK256 SWAP1 PUSH1 0xA MUL ADD SWAP1 POP DUP3 PUSH20 0xFFFFFFFFFFFFFFFFFFFFFFFFFFFFFFFFFFFFFFFF AND CALLER PUSH20 0xFFFFFFFFFFFFFFFFFFFFFFFFFFFFFFFFFFFFFFFF AND EQ PUSH2 0x31D0 JUMPI DUP1 PUSH1 0x8 ADD PUSH1 0x0 CALLER PUSH20 0xFFFFFFFFFFFFFFFFFFFFFFFFFFFFFFFFFFFFFFFF AND PUSH20 0xFFFFFFFFFFFFFFFFFFFFFFFFFFFFFFFFFFFFFFFF AND DUP2 MSTORE PUSH1 0x20 ADD SWAP1 DUP2 MSTORE PUSH1 0x20 ADD PUSH1 0x0 KECCAK256 PUSH1 0x0 SWAP1 SLOAD SWAP1 PUSH2 0x100 EXP SWAP1 DIV PUSH1 0xFF AND PUSH2 0x31CF JUMPI PUSH1 0x40 MLOAD PUSH32 0x8C379A000000000000000000000000000000000000000000000000000000000 DUP2 MSTORE PUSH1 0x4 ADD DUP1 DUP1 PUSH1 0x20 ADD DUP3 DUP2 SUB DUP3 MSTORE PUSH1 0x1A DUP2 MSTORE PUSH1 0x20 ADD DUP1 PUSH32 0x6E6F6D696E6174696F6E2073686F756C64206265207468657265000000000000 DUP2 MSTORE POP PUSH1 0x20 ADD SWAP2 POP POP PUSH1 0x40 MLOAD DUP1 SWAP2 SUB SWAP1 REVERT JUMPDEST JUMPDEST PUSH1 0x0 PUSH1 0x4 PUSH1 0x0 DUP9 PUSH20 0xFFFFFFFFFFFFFFFFFFFFFFFFFFFFFFFFFFFFFFFF AND PUSH20 0xFFFFFFFFFFFFFFFFFFFFFFFFFFFFFFFFFFFFFFFF AND DUP2 MSTORE PUSH1 0x20 ADD SWAP1 DUP2 MSTORE PUSH1 0x20 ADD PUSH1 0x0 KECCAK256 DUP7 DUP2 SLOAD DUP2 LT PUSH2 0x321C JUMPI INVALID JUMPDEST SWAP1 PUSH1 0x0 MSTORE PUSH1 0x20 PUSH1 0x0 KECCAK256 SWAP1 PUSH1 0xA MUL ADD SWAP1 POP DUP5 PUSH1 0x1 GT ISZERO DUP1 ISZERO PUSH2 0x323E JUMPI POP PUSH1 0xC DUP6 GT ISZERO JUMPDEST PUSH2 0x32B0 JUMPI PUSH1 0x40 MLOAD PUSH32 0x8C379A000000000000000000000000000000000000000000000000000000000 DUP2 MSTORE PUSH1 0x4 ADD DUP1 DUP1 PUSH1 0x20 ADD DUP3 DUP2 SUB DUP3 MSTORE PUSH1 0x15 DUP2 MSTORE PUSH1 0x20 ADD DUP1 PUSH32 0x69642073686F756C6420626520696E2072616E67650000000000000000000000 DUP2 MSTORE POP PUSH1 0x20 ADD SWAP2 POP POP PUSH1 0x40 MLOAD DUP1 SWAP2 SUB SWAP1 REVERT JUMPDEST DUP1 PUSH1 0x7 ADD PUSH1 0x0 DUP7 DUP2 MSTORE PUSH1 0x20 ADD SWAP1 DUP2 MSTORE PUSH1 0x20 ADD PUSH1 0x0 KECCAK256 PUSH1 0x0 SWAP1 SLOAD SWAP1 PUSH2 0x100 EXP SWAP1 DIV PUSH1 0xFF AND ISZERO PUSH2 0x3346 JUMPI PUSH1 0x40 MLOAD PUSH32 0x8C379A000000000000000000000000000000000000000000000000000000000 DUP2 MSTORE PUSH1 0x4 ADD DUP1 DUP1 PUSH1 0x20 ADD DUP3 DUP2 SUB DUP3 MSTORE PUSH1 0x19 DUP2 MSTORE PUSH1 0x20 ADD DUP1 PUSH32 0x626F6F7374657220616C72656164792077697468647261776E00000000000000 DUP2 MSTORE POP PUSH1 0x20 ADD SWAP2 POP POP PUSH1 0x40 MLOAD DUP1 SWAP2 SUB SWAP1 REVERT JUMPDEST DUP1 PUSH1 0x1 ADD SLOAD DUP2 PUSH1 0x6 ADD PUSH1 0x0 DUP8 PUSH1 0xD SUB DUP2 MSTORE PUSH1 0x20 ADD SWAP1 DUP2 MSTORE PUSH1 0x20 ADD PUSH1 0x0 KECCAK256 SLOAD LT ISZERO PUSH2 0x33D8 JUMPI PUSH1 0x40 MLOAD PUSH32 0x8C379A000000000000000000000000000000000000000000000000000000000 DUP2 MSTORE PUSH1 0x4 ADD DUP1 DUP1 PUSH1 0x20 ADD DUP3 DUP2 SUB DUP3 MSTORE PUSH1 0x13 DUP2 MSTORE PUSH1 0x20 ADD DUP1 PUSH32 0x746172676574206E6F7420616368696576656400000000000000000000000000 DUP2 MSTORE POP PUSH1 0x20 ADD SWAP2 POP POP PUSH1 0x40 MLOAD DUP1 SWAP2 SUB SWAP1 REVERT JUMPDEST PUSH1 0x0 PUSH2 0x33EB DUP9 DUP9 PUSH1 0x1 PUSH1 0x5 DUP11 MUL ADD PUSH2 0x2C03 JUMP JUMPDEST SWAP1 POP DUP1 PUSH1 0x2 PUSH1 0x0 SWAP1 SLOAD SWAP1 PUSH2 0x100 EXP SWAP1 DIV PUSH20 0xFFFFFFFFFFFFFFFFFFFFFFFFFFFFFFFFFFFFFFFF AND PUSH20 0xFFFFFFFFFFFFFFFFFFFFFFFFFFFFFFFFFFFFFFFF AND PUSH4 0xB81F90F3 PUSH1 0x40 MLOAD DUP2 PUSH4 0xFFFFFFFF AND PUSH1 0xE0 SHL DUP2 MSTORE PUSH1 0x4 ADD PUSH1 0x20 PUSH1 0x40 MLOAD DUP1 DUP4 SUB DUP2 DUP7 DUP1 EXTCODESIZE ISZERO DUP1 ISZERO PUSH2 0x3456 JUMPI PUSH1 0x0 DUP1 REVERT JUMPDEST POP GAS STATICCALL ISZERO DUP1 ISZERO PUSH2 0x346A JUMPI RETURNDATASIZE PUSH1 0x0 DUP1 RETURNDATACOPY RETURNDATASIZE PUSH1 0x0 REVERT JUMPDEST POP POP POP POP PUSH1 0x40 MLOAD RETURNDATASIZE PUSH1 0x20 DUP2 LT ISZERO PUSH2 0x3480 JUMPI PUSH1 0x0 DUP1 REVERT JUMPDEST DUP2 ADD SWAP1 DUP1 DUP1 MLOAD SWAP1 PUSH1 0x20 ADD SWAP1 SWAP3 SWAP2 SWAP1 POP POP POP LT ISZERO PUSH2 0x3505 JUMPI PUSH1 0x40 MLOAD PUSH32 0x8C379A000000000000000000000000000000000000000000000000000000000 DUP2 MSTORE PUSH1 0x4 ADD DUP1 DUP1 PUSH1 0x20 ADD DUP3 DUP2 SUB DUP3 MSTORE PUSH1 0x15 DUP2 MSTORE PUSH1 0x20 ADD DUP1 PUSH32 0x63616E6E6F74207769746864726177206561726C790000000000000000000000 DUP2 MSTORE POP PUSH1 0x20 ADD SWAP2 POP POP PUSH1 0x40 MLOAD DUP1 SWAP2 SUB SWAP1 REVERT JUMPDEST PUSH1 0x0 PUSH2 0x3511 DUP10 DUP10 PUSH2 0x2869 JUMP JUMPDEST SWAP1 POP PUSH1 0x1 DUP4 PUSH1 0x7 ADD PUSH1 0x0 DUP10 DUP2 MSTORE PUSH1 0x20 ADD SWAP1 DUP2 MSTORE PUSH1 0x20 ADD PUSH1 0x0 KECCAK256 PUSH1 0x0 PUSH2 0x100 EXP DUP2 SLOAD DUP2 PUSH1 0xFF MUL NOT AND SWAP1 DUP4 ISZERO ISZERO MUL OR SWAP1 SSTORE POP PUSH1 0x0 DUP2 GT ISZERO PUSH2 0x3630 JUMPI PUSH1 0x2 PUSH1 0x0 SWAP1 SLOAD SWAP1 PUSH2 0x100 EXP SWAP1 DIV PUSH20 0xFFFFFFFFFFFFFFFFFFFFFFFFFFFFFFFFFFFFFFFF AND PUSH20 0xFFFFFFFFFFFFFFFFFFFFFFFFFFFFFFFFFFFFFFFF AND PUSH4 0xA9059CBB CALLER DUP4 PUSH1 0x40 MLOAD DUP4 PUSH4 0xFFFFFFFF AND PUSH1 0xE0 SHL DUP2 MSTORE PUSH1 0x4 ADD DUP1 DUP4 PUSH20 0xFFFFFFFFFFFFFFFFFFFFFFFFFFFFFFFFFFFFFFFF AND PUSH20 0xFFFFFFFFFFFFFFFFFFFFFFFFFFFFFFFFFFFFFFFF AND DUP2 MSTORE PUSH1 0x20 ADD DUP3 DUP2 MSTORE PUSH1 0x20 ADD SWAP3 POP POP POP PUSH1 0x20 PUSH1 0x40 MLOAD DUP1 DUP4 SUB DUP2 PUSH1 0x0 DUP8 DUP1 EXTCODESIZE ISZERO DUP1 ISZERO PUSH2 0x35F3 JUMPI PUSH1 0x0 DUP1 REVERT JUMPDEST POP GAS CALL ISZERO DUP1 ISZERO PUSH2 0x3607 JUMPI RETURNDATASIZE PUSH1 0x0 DUP1 RETURNDATACOPY RETURNDATASIZE PUSH1 0x0 REVERT JUMPDEST POP POP POP POP PUSH1 0x40 MLOAD RETURNDATASIZE PUSH1 0x20 DUP2 LT ISZERO PUSH2 0x361D JUMPI PUSH1 0x0 DUP1 REVERT JUMPDEST DUP2 ADD SWAP1 DUP1 DUP1 MLOAD SWAP1 PUSH1 0x20 ADD SWAP1 SWAP3 SWAP2 SWAP1 POP POP POP POP JUMPDEST DUP8 DUP10 PUSH20 0xFFFFFFFFFFFFFFFFFFFFFFFFFFFFFFFFFFFFFFFF AND PUSH32 0xA1C568EF1602BC58C1E32EA2F1251B87874DCE947F5D4F4DF53677D06D5BF56D DUP10 DUP5 CALLER PUSH1 0x40 MLOAD DUP1 DUP5 DUP2 MSTORE PUSH1 0x20 ADD DUP4 DUP2 MSTORE PUSH1 0x20 ADD DUP3 PUSH20 0xFFFFFFFFFFFFFFFFFFFFFFFFFFFFFFFFFFFFFFFF AND PUSH20 0xFFFFFFFFFFFFFFFFFFFFFFFFFFFFFFFFFFFFFFFF AND DUP2 MSTORE PUSH1 0x20 ADD SWAP4 POP POP POP POP PUSH1 0x40 MLOAD DUP1 SWAP2 SUB SWAP1 LOG3 POP POP POP POP POP POP POP POP POP JUMP JUMPDEST PUSH1 0x0 PUSH1 0x4 PUSH1 0x0 DUP5 PUSH20 0xFFFFFFFFFFFFFFFFFFFFFFFFFFFFFFFFFFFFFFFF AND PUSH20 0xFFFFFFFFFFFFFFFFFFFFFFFFFFFFFFFFFFFFFFFF AND DUP2 MSTORE PUSH1 0x20 ADD SWAP1 DUP2 MSTORE PUSH1 0x20 ADD PUSH1 0x0 KECCAK256 DUP3 DUP2 SLOAD DUP2 LT PUSH2 0x3712 JUMPI INVALID JUMPDEST SWAP1 PUSH1 0x0 MSTORE PUSH1 0x20 PUSH1 0x0 KECCAK256 SWAP1 PUSH1 0xA MUL ADD SWAP1 POP DUP1 PUSH1 0x9 ADD PUSH1 0x0 CALLER PUSH20 0xFFFFFFFFFFFFFFFFFFFFFFFFFFFFFFFFFFFFFFFF AND PUSH20 0xFFFFFFFFFFFFFFFFFFFFFFFFFFFFFFFFFFFFFFFF AND DUP2 MSTORE PUSH1 0x20 ADD SWAP1 DUP2 MSTORE PUSH1 0x20 ADD PUSH1 0x0 KECCAK256 PUSH1 0x0 SWAP1 SLOAD SWAP1 PUSH2 0x100 EXP SWAP1 DIV PUSH1 0xFF AND PUSH2 0x37E3 JUMPI PUSH1 0x40 MLOAD PUSH32 0x8C379A000000000000000000000000000000000000000000000000000000000 DUP2 MSTORE PUSH1 0x4 ADD DUP1 DUP1 PUSH1 0x20 ADD DUP3 DUP2 SUB DUP3 MSTORE PUSH1 0x20 DUP2 MSTORE PUSH1 0x20 ADD DUP1 PUSH32 0x73686F756C64206265206170706F696E74656520746F206361737420766F7465 DUP2 MSTORE POP PUSH1 0x20 ADD SWAP2 POP POP PUSH1 0x40 MLOAD DUP1 SWAP2 SUB SWAP1 REVERT JUMPDEST PUSH1 0x0 DUP2 PUSH1 0x9 ADD PUSH1 0x0 CALLER PUSH20 0xFFFFFFFFFFFFFFFFFFFFFFFFFFFFFFFFFFFFFFFF AND PUSH20 0xFFFFFFFFFFFFFFFFFFFFFFFFFFFFFFFFFFFFFFFF AND DUP2 MSTORE PUSH1 0x20 ADD SWAP1 DUP2 MSTORE PUSH1 0x20 ADD PUSH1 0x0 KECCAK256 PUSH1 0x0 PUSH2 0x100 EXP DUP2 SLOAD DUP2 PUSH1 0xFF MUL NOT AND SWAP1 DUP4 ISZERO ISZERO MUL OR SWAP1 SSTORE POP PUSH2 0x3855 PUSH1 0x1 DUP3 PUSH1 0x4 ADD SLOAD PUSH2 0x3C65 SWAP1 SWAP2 SWAP1 PUSH4 0xFFFFFFFF AND JUMP JUMPDEST DUP2 PUSH1 0x4 ADD DUP2 SWAP1 SSTORE POP CALLER PUSH20 0xFFFFFFFFFFFFFFFFFFFFFFFFFFFFFFFFFFFFFFFF AND DUP3 DUP5 PUSH20 0xFFFFFFFFFFFFFFFFFFFFFFFFFFFFFFFFFFFFFFFF AND PUSH32 0x57E90B4A498A7310FAB91955C915F3F15A0D1A94B296F824DA9443D524EA2E1B PUSH1 0x40 MLOAD PUSH1 0x40 MLOAD DUP1 SWAP2 SUB SWAP1 LOG4 POP POP POP JUMP JUMPDEST PUSH1 0x0 PUSH1 0x4 PUSH1 0x0 CALLER PUSH20 0xFFFFFFFFFFFFFFFFFFFFFFFFFFFFFFFFFFFFFFFF AND PUSH20 0xFFFFFFFFFFFFFFFFFFFFFFFFFFFFFFFFFFFFFFFF AND DUP2 MSTORE PUSH1 0x20 ADD SWAP1 DUP2 MSTORE PUSH1 0x20 ADD PUSH1 0x0 KECCAK256 DUP5 DUP2 SLOAD DUP2 LT PUSH2 0x3909 JUMPI INVALID JUMPDEST SWAP1 PUSH1 0x0 MSTORE PUSH1 0x20 PUSH1 0x0 KECCAK256 SWAP1 PUSH1 0xA MUL ADD SWAP1 POP DUP1 PUSH1 0x9 ADD PUSH1 0x0 DUP5 PUSH20 0xFFFFFFFFFFFFFFFFFFFFFFFFFFFFFFFFFFFFFFFF AND PUSH20 0xFFFFFFFFFFFFFFFFFFFFFFFFFFFFFFFFFFFFFFFF AND DUP2 MSTORE PUSH1 0x20 ADD SWAP1 DUP2 MSTORE PUSH1 0x20 ADD PUSH1 0x0 KECCAK256 PUSH1 0x0 SWAP1 SLOAD SWAP1 PUSH2 0x100 EXP SWAP1 DIV PUSH1 0xFF AND ISZERO DUP1 ISZERO PUSH2 0x3972 JUMPI POP DUP2 JUMPDEST ISZERO PUSH2 0x39F6 JUMPI PUSH2 0x398F PUSH1 0x1 DUP3 PUSH1 0x5 ADD SLOAD PUSH2 0x3C65 SWAP1 SWAP2 SWAP1 PUSH4 0xFFFFFFFF AND JUMP JUMPDEST DUP2 PUSH1 0x5 ADD DUP2 SWAP1 SSTORE POP PUSH1 0x1 DUP2 PUSH1 0x9 ADD PUSH1 0x0 DUP6 PUSH20 0xFFFFFFFFFFFFFFFFFFFFFFFFFFFFFFFFFFFFFFFF AND PUSH20 0xFFFFFFFFFFFFFFFFFFFFFFFFFFFFFFFFFFFFFFFF AND DUP2 MSTORE PUSH1 0x20 ADD SWAP1 DUP2 MSTORE PUSH1 0x20 ADD PUSH1 0x0 KECCAK256 PUSH1 0x0 PUSH2 0x100 EXP DUP2 SLOAD DUP2 PUSH1 0xFF MUL NOT AND SWAP1 DUP4 ISZERO ISZERO MUL OR SWAP1 SSTORE POP PUSH2 0x3AD0 JUMP JUMPDEST DUP1 PUSH1 0x9 ADD PUSH1 0x0 DUP5 PUSH20 0xFFFFFFFFFFFFFFFFFFFFFFFFFFFFFFFFFFFFFFFF AND PUSH20 0xFFFFFFFFFFFFFFFFFFFFFFFFFFFFFFFFFFFFFFFF AND DUP2 MSTORE PUSH1 0x20 ADD SWAP1 DUP2 MSTORE PUSH1 0x20 ADD PUSH1 0x0 KECCAK256 PUSH1 0x0 SWAP1 SLOAD SWAP1 PUSH2 0x100 EXP SWAP1 DIV PUSH1 0xFF AND DUP1 ISZERO PUSH2 0x3A4F JUMPI POP DUP2 ISZERO JUMPDEST ISZERO PUSH2 0x3ACF JUMPI PUSH1 0x0 DUP2 PUSH1 0x9 ADD PUSH1 0x0 DUP6 PUSH20 0xFFFFFFFFFFFFFFFFFFFFFFFFFFFFFFFFFFFFFFFF AND PUSH20 0xFFFFFFFFFFFFFFFFFFFFFFFFFFFFFFFFFFFFFFFF AND DUP2 MSTORE PUSH1 0x20 ADD SWAP1 DUP2 MSTORE PUSH1 0x20 ADD PUSH1 0x0 KECCAK256 PUSH1 0x0 PUSH2 0x100 EXP DUP2 SLOAD DUP2 PUSH1 0xFF MUL NOT AND SWAP1 DUP4 ISZERO ISZERO MUL OR SWAP1 SSTORE POP PUSH2 0x3AC6 PUSH1 0x1 DUP3 PUSH1 0x5 ADD SLOAD PUSH2 0x3C1B SWAP1 SWAP2 SWAP1 PUSH4 0xFFFFFFFF AND JUMP JUMPDEST DUP2 PUSH1 0x5 ADD DUP2 SWAP1 SSTORE POP JUMPDEST JUMPDEST DUP3 PUSH20 0xFFFFFFFFFFFFFFFFFFFFFFFFFFFFFFFFFFFFFFFF AND DUP5 CALLER PUSH20 0xFFFFFFFFFFFFFFFFFFFFFFFFFFFFFFFFFFFFFFFF AND PUSH32 0xF7A6207B27953EFF117F9B7C03E363D41370A45E2B626D2AA32C6A0AC6365782 DUP6 PUSH1 0x40 MLOAD DUP1 DUP3 ISZERO ISZERO ISZERO ISZERO DUP2 MSTORE PUSH1 0x20 ADD SWAP2 POP POP PUSH1 0x40 MLOAD DUP1 SWAP2 SUB SWAP1 LOG4 POP POP POP POP JUMP JUMPDEST PUSH1 0x0 DUP1 SWAP1 SLOAD SWAP1 PUSH2 0x100 EXP SWAP1 DIV PUSH20 0xFFFFFFFFFFFFFFFFFFFFFFFFFFFFFFFFFFFFFFFF AND DUP2 JUMP JUMPDEST PUSH1 0x0 PUSH1 0x4 PUSH1 0x0 DUP6 PUSH20 0xFFFFFFFFFFFFFFFFFFFFFFFFFFFFFFFFFFFFFFFF AND PUSH20 0xFFFFFFFFFFFFFFFFFFFFFFFFFFFFFFFFFFFFFFFF AND DUP2 MSTORE PUSH1 0x20 ADD SWAP1 DUP2 MSTORE PUSH1 0x20 ADD PUSH1 0x0 KECCAK256 DUP4 DUP2 SLOAD DUP2 LT PUSH2 0x3BB1 JUMPI INVALID JUMPDEST SWAP1 PUSH1 0x0 MSTORE PUSH1 0x20 PUSH1 0x0 KECCAK256 SWAP1 PUSH1 0xA MUL ADD PUSH1 0x6 ADD PUSH1 0x0 DUP4 DUP2 MSTORE PUSH1 0x20 ADD SWAP1 DUP2 MSTORE PUSH1 0x20 ADD PUSH1 0x0 KECCAK256 SLOAD SWAP1 POP SWAP4 SWAP3 POP POP POP JUMP JUMPDEST PUSH1 0x5 PUSH1 0x20 MSTORE DUP1 PUSH1 0x0 MSTORE PUSH1 0x40 PUSH1 0x0 KECCAK256 PUSH1 0x0 SWAP2 POP SWAP1 POP SLOAD DUP2 JUMP JUMPDEST PUSH1 0x2 PUSH1 0x0 SWAP1 SLOAD SWAP1 PUSH2 0x100 EXP SWAP1 DIV PUSH20 0xFFFFFFFFFFFFFFFFFFFFFFFFFFFFFFFFFFFFFFFF AND DUP2 JUMP JUMPDEST PUSH1 0x0 PUSH2 0x3C5D DUP4 DUP4 PUSH1 0x40 MLOAD DUP1 PUSH1 0x40 ADD PUSH1 0x40 MSTORE DUP1 PUSH1 0x1E DUP2 MSTORE PUSH1 0x20 ADD PUSH32 0x536166654D6174683A207375627472616374696F6E206F766572666C6F770000 DUP2 MSTORE POP PUSH2 0x4180 JUMP JUMPDEST SWAP1 POP SWAP3 SWAP2 POP POP JUMP JUMPDEST PUSH1 0x0 DUP1 DUP3 DUP5 ADD SWAP1 POP DUP4 DUP2 LT ISZERO PUSH2 0x3CE3 JUMPI PUSH1 0x40 MLOAD PUSH32 0x8C379A000000000000000000000000000000000000000000000000000000000 DUP2 MSTORE PUSH1 0x4 ADD DUP1 DUP1 PUSH1 0x20 ADD DUP3 DUP2 SUB DUP3 MSTORE PUSH1 0x1B DUP2 MSTORE PUSH1 0x20 ADD DUP1 PUSH32 0x536166654D6174683A206164646974696F6E206F766572666C6F770000000000 DUP2 MSTORE POP PUSH1 0x20 ADD SWAP2 POP POP PUSH1 0x40 MLOAD DUP1 SWAP2 SUB SWAP1 REVERT JUMPDEST DUP1 SWAP2 POP POP SWAP3 SWAP2 POP POP JUMP JUMPDEST PUSH1 0x0 PUSH2 0x3D2F DUP4 DUP4 PUSH1 0x40 MLOAD DUP1 PUSH1 0x40 ADD PUSH1 0x40 MSTORE DUP1 PUSH1 0x1A DUP2 MSTORE PUSH1 0x20 ADD PUSH32 0x536166654D6174683A206469766973696F6E206279207A65726F000000000000 DUP2 MSTORE POP PUSH2 0x4240 JUMP JUMPDEST SWAP1 POP SWAP3 SWAP2 POP POP JUMP JUMPDEST PUSH1 0x0 DUP1 DUP5 PUSH1 0x0 ADD SLOAD SWAP1 POP PUSH1 0x0 DUP1 DUP6 EQ ISZERO PUSH2 0x3D66 JUMPI DUP6 PUSH1 0x6 ADD PUSH1 0x0 DUP6 DUP2 MSTORE PUSH1 0x20 ADD SWAP1 DUP2 MSTORE PUSH1 0x20 ADD PUSH1 0x0 KECCAK256 SLOAD PUSH2 0x3D68 JUMP JUMPDEST DUP5 JUMPDEST SWAP1 POP PUSH1 0x0 DUP7 PUSH1 0x1 ADD SLOAD SWAP1 POP PUSH1 0x0 PUSH1 0x3 DUP5 DUP2 SLOAD DUP2 LT PUSH2 0x3D82 JUMPI INVALID JUMPDEST SWAP1 PUSH1 0x0 MSTORE PUSH1 0x20 PUSH1 0x0 KECCAK256 SWAP1 PUSH1 0x3 MUL ADD SWAP1 POP PUSH1 0x0 DUP3 DUP5 GT ISZERO PUSH2 0x3DE1 JUMPI PUSH1 0x0 PUSH2 0x3DB1 DUP5 DUP7 PUSH2 0x3C1B SWAP1 SWAP2 SWAP1 PUSH4 0xFFFFFFFF AND JUMP JUMPDEST SWAP1 POP PUSH2 0x3DD9 PUSH2 0x3DCA PUSH1 0x2 DUP4 PUSH2 0x3CED SWAP1 SWAP2 SWAP1 PUSH4 0xFFFFFFFF AND JUMP JUMPDEST DUP6 PUSH2 0x3C65 SWAP1 SWAP2 SWAP1 PUSH4 0xFFFFFFFF AND JUMP JUMPDEST SWAP2 POP POP PUSH2 0x3E00 JUMP JUMPDEST PUSH2 0x3DF5 PUSH1 0x2 DUP5 PUSH2 0x3CED SWAP1 SWAP2 SWAP1 PUSH4 0xFFFFFFFF AND JUMP JUMPDEST DUP5 LT PUSH2 0x3DFF JUMPI DUP4 SWAP1 POP JUMPDEST JUMPDEST PUSH1 0x0 PUSH2 0x3E0C DUP6 DUP6 PUSH2 0x40F5 JUMP JUMPDEST SWAP1 POP PUSH1 0x0 DUP3 SWAP1 POP PUSH2 0x3E27 PUSH1 0x2 DUP7 PUSH2 0x3CED SWAP1 SWAP2 SWAP1 PUSH4 0xFFFFFFFF AND JUMP JUMPDEST DUP7 LT ISZERO DUP1 PUSH2 0x3E35 JUMPI POP PUSH1 0xC DUP10 EQ JUMPDEST ISZERO PUSH2 0x3E8D JUMPI PUSH2 0x3E8A PUSH2 0x3E7B PUSH2 0x3E8 PUSH2 0x3E6D PUSH1 0x5 PUSH2 0x3E5F DUP10 PUSH1 0x2 ADD SLOAD DUP9 PUSH2 0x406F SWAP1 SWAP2 SWAP1 PUSH4 0xFFFFFFFF AND JUMP JUMPDEST PUSH2 0x406F SWAP1 SWAP2 SWAP1 PUSH4 0xFFFFFFFF AND JUMP JUMPDEST PUSH2 0x3CED SWAP1 SWAP2 SWAP1 PUSH4 0xFFFFFFFF AND JUMP JUMPDEST DUP3 PUSH2 0x3C65 SWAP1 SWAP2 SWAP1 PUSH4 0xFFFFFFFF AND JUMP JUMPDEST SWAP1 POP JUMPDEST DUP1 SWAP8 POP POP POP POP POP POP POP POP SWAP4 SWAP3 POP POP POP JUMP JUMPDEST PUSH1 0x0 PUSH1 0x4 PUSH1 0x0 DUP5 PUSH20 0xFFFFFFFFFFFFFFFFFFFFFFFFFFFFFFFFFFFFFFFF AND PUSH20 0xFFFFFFFFFFFFFFFFFFFFFFFFFFFFFFFFFFFFFFFF AND DUP2 MSTORE PUSH1 0x20 ADD SWAP1 DUP2 MSTORE PUSH1 0x20 ADD PUSH1 0x0 KECCAK256 DUP3 DUP2 SLOAD DUP2 LT PUSH2 0x3EEA JUMPI INVALID JUMPDEST SWAP1 PUSH1 0x0 MSTORE PUSH1 0x20 PUSH1 0x0 KECCAK256 SWAP1 PUSH1 0xA MUL ADD SWAP1 POP PUSH1 0x0 DUP1 PUSH1 0x1 SWAP1 POP JUMPDEST PUSH1 0xC DUP2 GT PUSH2 0x3F41 JUMPI DUP3 PUSH1 0x1 ADD SLOAD DUP4 PUSH1 0x6 ADD PUSH1 0x0 DUP4 DUP2 MSTORE PUSH1 0x20 ADD SWAP1 DUP2 MSTORE PUSH1 0x20 ADD PUSH1 0x0 KECCAK256 SLOAD LT ISZERO PUSH2 0x3F34 JUMPI DUP2 DUP1 PUSH1 0x1 ADD SWAP3 POP POP JUMPDEST DUP1 DUP1 PUSH1 0x1 ADD SWAP2 POP POP PUSH2 0x3F02 JUMP JUMPDEST POP PUSH1 0x0 PUSH2 0x3F4E DUP6 DUP6 PUSH2 0x2869 JUMP JUMPDEST SWAP1 POP PUSH1 0x0 PUSH2 0x3F65 DUP4 DUP4 PUSH2 0x406F SWAP1 SWAP2 SWAP1 PUSH4 0xFFFFFFFF AND JUMP JUMPDEST SWAP1 POP PUSH1 0x2 PUSH1 0x0 SWAP1 SLOAD SWAP1 PUSH2 0x100 EXP SWAP1 DIV PUSH20 0xFFFFFFFFFFFFFFFFFFFFFFFFFFFFFFFFFFFFFFFF AND PUSH20 0xFFFFFFFFFFFFFFFFFFFFFFFFFFFFFFFFFFFFFFFF AND PUSH4 0x42966C68 DUP3 PUSH1 0x40 MLOAD DUP3 PUSH4 0xFFFFFFFF AND PUSH1 0xE0 SHL DUP2 MSTORE PUSH1 0x4 ADD DUP1 DUP3 DUP2 MSTORE PUSH1 0x20 ADD SWAP2 POP POP PUSH1 0x0 PUSH1 0x40 MLOAD DUP1 DUP4 SUB DUP2 PUSH1 0x0 DUP8 DUP1 EXTCODESIZE ISZERO DUP1 ISZERO PUSH2 0x3FDC JUMPI PUSH1 0x0 DUP1 REVERT JUMPDEST POP GAS CALL ISZERO DUP1 ISZERO PUSH2 0x3FF0 JUMPI RETURNDATASIZE PUSH1 0x0 DUP1 RETURNDATACOPY RETURNDATASIZE PUSH1 0x0 REVERT JUMPDEST POP POP POP POP PUSH32 0xD5D3899D9EC9513F6566105E58D4A87A89E47BCE6BB44C2ADE5DF7CB3413CCF7 DUP7 DUP7 DUP4 PUSH1 0x40 MLOAD DUP1 DUP5 PUSH20 0xFFFFFFFFFFFFFFFFFFFFFFFFFFFFFFFFFFFFFFFF AND PUSH20 0xFFFFFFFFFFFFFFFFFFFFFFFFFFFFFFFFFFFFFFFF AND DUP2 MSTORE PUSH1 0x20 ADD DUP4 DUP2 MSTORE PUSH1 0x20 ADD DUP3 DUP2 MSTORE PUSH1 0x20 ADD SWAP4 POP POP POP POP PUSH1 0x40 MLOAD DUP1 SWAP2 SUB SWAP1 LOG1 POP POP POP POP POP POP JUMP JUMPDEST PUSH1 0x0 DUP1 DUP4 EQ ISZERO PUSH2 0x4082 JUMPI PUSH1 0x0 SWAP1 POP PUSH2 0x40EF JUMP JUMPDEST PUSH1 0x0 DUP3 DUP5 MUL SWAP1 POP DUP3 DUP5 DUP3 DUP2 PUSH2 0x4093 JUMPI INVALID JUMPDEST DIV EQ PUSH2 0x40EA JUMPI PUSH1 0x40 MLOAD PUSH32 0x8C379A000000000000000000000000000000000000000000000000000000000 DUP2 MSTORE PUSH1 0x4 ADD DUP1 DUP1 PUSH1 0x20 ADD DUP3 DUP2 SUB DUP3 MSTORE PUSH1 0x21 DUP2 MSTORE PUSH1 0x20 ADD DUP1 PUSH2 0x432A PUSH1 0x21 SWAP2 CODECOPY PUSH1 0x40 ADD SWAP2 POP POP PUSH1 0x40 MLOAD DUP1 SWAP2 SUB SWAP1 REVERT JUMPDEST DUP1 SWAP2 POP POP JUMPDEST SWAP3 SWAP2 POP POP JUMP JUMPDEST PUSH1 0x0 DUP1 DUP3 DUP5 GT ISZERO PUSH2 0x4145 JUMPI PUSH1 0x0 PUSH2 0x4115 DUP5 DUP7 PUSH2 0x3C1B SWAP1 SWAP2 SWAP1 PUSH4 0xFFFFFFFF AND JUMP JUMPDEST SWAP1 POP PUSH2 0x413D PUSH2 0x412E PUSH1 0x2 DUP4 PUSH2 0x3CED SWAP1 SWAP2 SWAP1 PUSH4 0xFFFFFFFF AND JUMP JUMPDEST DUP6 PUSH2 0x3C65 SWAP1 SWAP2 SWAP1 PUSH4 0xFFFFFFFF AND JUMP JUMPDEST SWAP2 POP POP PUSH2 0x4164 JUMP JUMPDEST PUSH2 0x4159 PUSH1 0x2 DUP5 PUSH2 0x3CED SWAP1 SWAP2 SWAP1 PUSH4 0xFFFFFFFF AND JUMP JUMPDEST DUP5 LT PUSH2 0x4163 JUMPI DUP4 SWAP1 POP JUMPDEST JUMPDEST PUSH2 0x4177 DUP2 DUP6 PUSH2 0x3C65 SWAP1 SWAP2 SWAP1 PUSH4 0xFFFFFFFF AND JUMP JUMPDEST SWAP2 POP POP SWAP3 SWAP2 POP POP JUMP JUMPDEST PUSH1 0x0 DUP4 DUP4 GT ISZERO DUP3 SWAP1 PUSH2 0x422D JUMPI PUSH1 0x40 MLOAD PUSH32 0x8C379A000000000000000000000000000000000000000000000000000000000 DUP2 MSTORE PUSH1 0x4 ADD DUP1 DUP1 PUSH1 0x20 ADD DUP3 DUP2 SUB DUP3 MSTORE DUP4 DUP2 DUP2 MLOAD DUP2 MSTORE PUSH1 0x20 ADD SWAP2 POP DUP1 MLOAD SWAP1 PUSH1 0x20 ADD SWAP1 DUP1 DUP4 DUP4 PUSH1 0x0 JUMPDEST DUP4 DUP2 LT ISZERO PUSH2 0x41F2 JUMPI DUP1 DUP3 ADD MLOAD DUP2 DUP5 ADD MSTORE PUSH1 0x20 DUP2 ADD SWAP1 POP PUSH2 0x41D7 JUMP JUMPDEST POP POP POP POP SWAP1 POP SWAP1 DUP2 ADD SWAP1 PUSH1 0x1F AND DUP1 ISZERO PUSH2 0x421F JUMPI DUP1 DUP3 SUB DUP1 MLOAD PUSH1 0x1 DUP4 PUSH1 0x20 SUB PUSH2 0x100 EXP SUB NOT AND DUP2 MSTORE PUSH1 0x20 ADD SWAP2 POP JUMPDEST POP SWAP3 POP POP POP PUSH1 0x40 MLOAD DUP1 SWAP2 SUB SWAP1 REVERT JUMPDEST POP PUSH1 0x0 DUP4 DUP6 SUB SWAP1 POP DUP1 SWAP2 POP POP SWAP4 SWAP3 POP POP POP JUMP JUMPDEST PUSH1 0x0 DUP1 DUP4 GT DUP3 SWAP1 PUSH2 0x42EC JUMPI PUSH1 0x40 MLOAD PUSH32 0x8C379A000000000000000000000000000000000000000000000000000000000 DUP2 MSTORE PUSH1 0x4 ADD DUP1 DUP1 PUSH1 0x20 ADD DUP3 DUP2 SUB DUP3 MSTORE DUP4 DUP2 DUP2 MLOAD DUP2 MSTORE PUSH1 0x20 ADD SWAP2 POP DUP1 MLOAD SWAP1 PUSH1 0x20 ADD SWAP1 DUP1 DUP4 DUP4 PUSH1 0x0 JUMPDEST DUP4 DUP2 LT ISZERO PUSH2 0x42B1 JUMPI DUP1 DUP3 ADD MLOAD DUP2 DUP5 ADD MSTORE PUSH1 0x20 DUP2 ADD SWAP1 POP PUSH2 0x4296 JUMP JUMPDEST POP POP POP POP SWAP1 POP SWAP1 DUP2 ADD SWAP1 PUSH1 0x1F AND DUP1 ISZERO PUSH2 0x42DE JUMPI DUP1 DUP3 SUB DUP1 MLOAD PUSH1 0x1 DUP4 PUSH1 0x20 SUB PUSH2 0x100 EXP SUB NOT AND DUP2 MSTORE PUSH1 0x20 ADD SWAP2 POP JUMPDEST POP SWAP3 POP POP POP PUSH1 0x40 MLOAD DUP1 SWAP2 SUB SWAP1 REVERT JUMPDEST POP PUSH1 0x0 DUP4 DUP6 DUP2 PUSH2 0x42F8 JUMPI INVALID JUMPDEST DIV SWAP1 POP DUP1 SWAP2 POP POP SWAP4 SWAP3 POP POP POP JUMP INVALID PUSH2 0x6C6C PUSH16 0x776564206F6E6C7920696E2066726573 PUSH9 0x206D6F6E7468206465 PUSH17 0x6F736974536166654D6174683A206D756C PUSH21 0x69706C69636174696F6E206F766572666C6F776361 PUSH15 0x6E6F74206465706F73697420616674 PUSH6 0x722061636375 PUSH14 0x756C6174696F6E20706572696F64 PUSH5 0x65706F7369 PUSH21 0x20616D6F756E742073686F756C64206265206E6F6E KECCAK256 PUSH27 0x65726FA2646970667358221220E82231B320575276170DE25C1BEB EXTCODESIZE PUSH30 0x1FBDE1014D4F3A5E27A1B2A20FFC983A64736F6C63430006010033608060 BLOCKHASH MSTORE CALLVALUE DUP1 ISZERO PUSH2 0x10 JUMPI PUSH1 0x0 DUP1 REVERT JUMPDEST POP PUSH1 0x40 MLOAD PUSH2 0x8F1 CODESIZE SUB DUP1 PUSH2 0x8F1 DUP4 CODECOPY DUP2 DUP2 ADD PUSH1 0x40 MSTORE PUSH1 0x40 DUP2 LT ISZERO PUSH2 0x33 JUMPI PUSH1 0x0 DUP1 REVERT JUMPDEST DUP2 ADD SWAP1 DUP1 DUP1 MLOAD SWAP1 PUSH1 0x20 ADD SWAP1 SWAP3 SWAP2 SWAP1 DUP1 MLOAD SWAP1 PUSH1 0x20 ADD SWAP1 SWAP3 SWAP2 SWAP1 POP POP POP DUP2 PUSH1 0x1 PUSH1 0x0 PUSH2 0x100 EXP DUP2 SLOAD DUP2 PUSH20 0xFFFFFFFFFFFFFFFFFFFFFFFFFFFFFFFFFFFFFFFF MUL NOT AND SWAP1 DUP4 PUSH20 0xFFFFFFFFFFFFFFFFFFFFFFFFFFFFFFFFFFFFFFFF AND MUL OR SWAP1 SSTORE POP DUP1 PUSH1 0x0 DUP1 PUSH2 0x100 EXP DUP2 SLOAD DUP2 PUSH20 0xFFFFFFFFFFFFFFFFFFFFFFFFFFFFFFFFFFFFFFFF MUL NOT AND SWAP1 DUP4 PUSH20 0xFFFFFFFFFFFFFFFFFFFFFFFFFFFFFFFFFFFFFFFF AND MUL OR SWAP1 SSTORE POP CALLER PUSH1 0x2 PUSH1 0x0 PUSH2 0x100 EXP DUP2 SLOAD DUP2 PUSH20 0xFFFFFFFFFFFFFFFFFFFFFFFFFFFFFFFFFFFFFFFF MUL NOT AND SWAP1 DUP4 PUSH20 0xFFFFFFFFFFFFFFFFFFFFFFFFFFFFFFFFFFFFFFFF AND MUL OR SWAP1 SSTORE POP POP POP PUSH2 0x7D0 DUP1 PUSH2 0x121 PUSH1 0x0 CODECOPY PUSH1 0x0 RETURN INVALID PUSH1 0x80 PUSH1 0x40 MSTORE CALLVALUE DUP1 ISZERO PUSH2 0x10 JUMPI PUSH1 0x0 DUP1 REVERT JUMPDEST POP PUSH1 0x4 CALLDATASIZE LT PUSH2 0x57 JUMPI PUSH1 0x0 CALLDATALOAD PUSH1 0xE0 SHR DUP1 PUSH4 0x3B4D8A7D EQ PUSH2 0x5C JUMPI DUP1 PUSH4 0x9997E137 EQ PUSH2 0x96 JUMPI DUP1 PUSH4 0xBE999705 EQ PUSH2 0xE0 JUMPI DUP1 PUSH4 0xD5F39488 EQ PUSH2 0x10E JUMPI DUP1 PUSH4 0xFC0C546A EQ PUSH2 0x158 JUMPI JUMPDEST PUSH1 0x0 DUP1 REVERT JUMPDEST PUSH2 0x94 PUSH1 0x4 DUP1 CALLDATASIZE SUB PUSH1 0x40 DUP2 LT ISZERO PUSH2 0x72 JUMPI PUSH1 0x0 DUP1 REVERT JUMPDEST DUP2 ADD SWAP1 DUP1 DUP1 CALLDATALOAD ISZERO ISZERO SWAP1 PUSH1 0x20 ADD SWAP1 SWAP3 SWAP2 SWAP1 DUP1 CALLDATALOAD SWAP1 PUSH1 0x20 ADD SWAP1 SWAP3 SWAP2 SWAP1 POP POP POP PUSH2 0x1A2 JUMP JUMPDEST STOP JUMPDEST PUSH2 0x9E PUSH2 0x49B JUMP JUMPDEST PUSH1 0x40 MLOAD DUP1 DUP3 PUSH20 0xFFFFFFFFFFFFFFFFFFFFFFFFFFFFFFFFFFFFFFFF AND PUSH20 0xFFFFFFFFFFFFFFFFFFFFFFFFFFFFFFFFFFFFFFFF AND DUP2 MSTORE PUSH1 0x20 ADD SWAP2 POP POP PUSH1 0x40 MLOAD DUP1 SWAP2 SUB SWAP1 RETURN JUMPDEST PUSH2 0x10C PUSH1 0x4 DUP1 CALLDATASIZE SUB PUSH1 0x20 DUP2 LT ISZERO PUSH2 0xF6 JUMPI PUSH1 0x0 DUP1 REVERT JUMPDEST DUP2 ADD SWAP1 DUP1 DUP1 CALLDATALOAD SWAP1 PUSH1 0x20 ADD SWAP1 SWAP3 SWAP2 SWAP1 POP POP POP PUSH2 0x4C1 JUMP JUMPDEST STOP JUMPDEST PUSH2 0x116 PUSH2 0x74F JUMP JUMPDEST PUSH1 0x40 MLOAD DUP1 DUP3 PUSH20 0xFFFFFFFFFFFFFFFFFFFFFFFFFFFFFFFFFFFFFFFF AND PUSH20 0xFFFFFFFFFFFFFFFFFFFFFFFFFFFFFFFFFFFFFFFF AND DUP2 MSTORE PUSH1 0x20 ADD SWAP2 POP POP PUSH1 0x40 MLOAD DUP1 SWAP2 SUB SWAP1 RETURN JUMPDEST PUSH2 0x160 PUSH2 0x774 JUMP JUMPDEST PUSH1 0x40 MLOAD DUP1 DUP3 PUSH20 0xFFFFFFFFFFFFFFFFFFFFFFFFFFFFFFFFFFFFFFFF AND PUSH20 0xFFFFFFFFFFFFFFFFFFFFFFFFFFFFFFFFFFFFFFFF AND DUP2 MSTORE PUSH1 0x20 ADD SWAP2 POP POP PUSH1 0x40 MLOAD DUP1 SWAP2 SUB SWAP1 RETURN JUMPDEST PUSH1 0x0 DUP1 SWAP1 SLOAD SWAP1 PUSH2 0x100 EXP SWAP1 DIV PUSH20 0xFFFFFFFFFFFFFFFFFFFFFFFFFFFFFFFFFFFFFFFF AND PUSH20 0xFFFFFFFFFFFFFFFFFFFFFFFFFFFFFFFFFFFFFFFF AND CALLER PUSH20 0xFFFFFFFFFFFFFFFFFFFFFFFFFFFFFFFFFFFFFFFF AND EQ PUSH2 0x264 JUMPI PUSH1 0x40 MLOAD PUSH32 0x8C379A000000000000000000000000000000000000000000000000000000000 DUP2 MSTORE PUSH1 0x4 ADD DUP1 DUP1 PUSH1 0x20 ADD DUP3 DUP2 SUB DUP3 MSTORE PUSH1 0x16 DUP2 MSTORE PUSH1 0x20 ADD DUP1 PUSH32 0x6F6E6C79206465706C6F7965722063616E2063616C6C00000000000000000000 DUP2 MSTORE POP PUSH1 0x20 ADD SWAP2 POP POP PUSH1 0x40 MLOAD DUP1 SWAP2 SUB SWAP1 REVERT JUMPDEST DUP2 ISZERO PUSH2 0x347 JUMPI PUSH1 0x1 PUSH1 0x0 SWAP1 SLOAD SWAP1 PUSH2 0x100 EXP SWAP1 DIV PUSH20 0xFFFFFFFFFFFFFFFFFFFFFFFFFFFFFFFFFFFFFFFF AND PUSH20 0xFFFFFFFFFFFFFFFFFFFFFFFFFFFFFFFFFFFFFFFF AND PUSH4 0x70A08231 ADDRESS PUSH1 0x40 MLOAD DUP3 PUSH4 0xFFFFFFFF AND PUSH1 0xE0 SHL DUP2 MSTORE PUSH1 0x4 ADD DUP1 DUP3 PUSH20 0xFFFFFFFFFFFFFFFFFFFFFFFFFFFFFFFFFFFFFFFF AND PUSH20 0xFFFFFFFFFFFFFFFFFFFFFFFFFFFFFFFFFFFFFFFF AND DUP2 MSTORE PUSH1 0x20 ADD SWAP2 POP POP PUSH1 0x20 PUSH1 0x40 MLOAD DUP1 DUP4 SUB DUP2 DUP7 DUP1 EXTCODESIZE ISZERO DUP1 ISZERO PUSH2 0x309 JUMPI PUSH1 0x0 DUP1 REVERT JUMPDEST POP GAS STATICCALL ISZERO DUP1 ISZERO PUSH2 0x31D JUMPI RETURNDATASIZE PUSH1 0x0 DUP1 RETURNDATACOPY RETURNDATASIZE PUSH1 0x0 REVERT JUMPDEST POP POP POP POP PUSH1 0x40 MLOAD RETURNDATASIZE PUSH1 0x20 DUP2 LT ISZERO PUSH2 0x333 JUMPI PUSH1 0x0 DUP1 REVERT JUMPDEST DUP2 ADD SWAP1 DUP1 DUP1 MLOAD SWAP1 PUSH1 0x20 ADD SWAP1 SWAP3 SWAP2 SWAP1 POP POP POP SWAP1 POP JUMPDEST PUSH1 0x1 PUSH1 0x0 SWAP1 SLOAD SWAP1 PUSH2 0x100 EXP SWAP1 DIV PUSH20 0xFFFFFFFFFFFFFFFFFFFFFFFFFFFFFFFFFFFFFFFF AND PUSH20 0xFFFFFFFFFFFFFFFFFFFFFFFFFFFFFFFFFFFFFFFF AND PUSH4 0xA9059CBB CALLER DUP4 PUSH1 0x40 MLOAD DUP4 PUSH4 0xFFFFFFFF AND PUSH1 0xE0 SHL DUP2 MSTORE PUSH1 0x4 ADD DUP1 DUP4 PUSH20 0xFFFFFFFFFFFFFFFFFFFFFFFFFFFFFFFFFFFFFFFF AND PUSH20 0xFFFFFFFFFFFFFFFFFFFFFFFFFFFFFFFFFFFFFFFF AND DUP2 MSTORE PUSH1 0x20 ADD DUP3 DUP2 MSTORE PUSH1 0x20 ADD SWAP3 POP POP POP PUSH1 0x20 PUSH1 0x40 MLOAD DUP1 DUP4 SUB DUP2 PUSH1 0x0 DUP8 DUP1 EXTCODESIZE ISZERO DUP1 ISZERO PUSH2 0x3F0 JUMPI PUSH1 0x0 DUP1 REVERT JUMPDEST POP GAS CALL ISZERO DUP1 ISZERO PUSH2 0x404 JUMPI RETURNDATASIZE PUSH1 0x0 DUP1 RETURNDATACOPY RETURNDATASIZE PUSH1 0x0 REVERT JUMPDEST POP POP POP POP PUSH1 0x40 MLOAD RETURNDATASIZE PUSH1 0x20 DUP2 LT ISZERO PUSH2 0x41A JUMPI PUSH1 0x0 DUP1 REVERT JUMPDEST DUP2 ADD SWAP1 DUP1 DUP1 MLOAD SWAP1 PUSH1 0x20 ADD SWAP1 SWAP3 SWAP2 SWAP1 POP POP POP POP PUSH32 0xEAFF4B37086828766AD3268786972C0CD24259D4C87A80F9D3963A3C3D999B0D CALLER DUP3 PUSH1 0x40 MLOAD DUP1 DUP4 PUSH20 0xFFFFFFFFFFFFFFFFFFFFFFFFFFFFFFFFFFFFFFFF AND PUSH20 0xFFFFFFFFFFFFFFFFFFFFFFFFFFFFFFFFFFFFFFFF AND DUP2 MSTORE PUSH1 0x20 ADD DUP3 DUP2 MSTORE PUSH1 0x20 ADD SWAP3 POP POP POP PUSH1 0x40 MLOAD DUP1 SWAP2 SUB SWAP1 LOG1 POP POP JUMP JUMPDEST PUSH1 0x2 PUSH1 0x0 SWAP1 SLOAD SWAP1 PUSH2 0x100 EXP SWAP1 DIV PUSH20 0xFFFFFFFFFFFFFFFFFFFFFFFFFFFFFFFFFFFFFFFF AND DUP2 JUMP JUMPDEST PUSH1 0x1 PUSH1 0x0 SWAP1 SLOAD SWAP1 PUSH2 0x100 EXP SWAP1 DIV PUSH20 0xFFFFFFFFFFFFFFFFFFFFFFFFFFFFFFFFFFFFFFFF AND PUSH20 0xFFFFFFFFFFFFFFFFFFFFFFFFFFFFFFFFFFFFFFFF AND PUSH4 0x23B872DD CALLER ADDRESS DUP5 PUSH1 0x40 MLOAD DUP5 PUSH4 0xFFFFFFFF AND PUSH1 0xE0 SHL DUP2 MSTORE PUSH1 0x4 ADD DUP1 DUP5 PUSH20 0xFFFFFFFFFFFFFFFFFFFFFFFFFFFFFFFFFFFFFFFF AND PUSH20 0xFFFFFFFFFFFFFFFFFFFFFFFFFFFFFFFFFFFFFFFF AND DUP2 MSTORE PUSH1 0x20 ADD DUP4 PUSH20 0xFFFFFFFFFFFFFFFFFFFFFFFFFFFFFFFFFFFFFFFF AND PUSH20 0xFFFFFFFFFFFFFFFFFFFFFFFFFFFFFFFFFFFFFFFF AND DUP2 MSTORE PUSH1 0x20 ADD DUP3 DUP2 MSTORE PUSH1 0x20 ADD SWAP4 POP POP POP POP PUSH1 0x20 PUSH1 0x40 MLOAD DUP1 DUP4 SUB DUP2 PUSH1 0x0 DUP8 DUP1 EXTCODESIZE ISZERO DUP1 ISZERO PUSH2 0x59E JUMPI PUSH1 0x0 DUP1 REVERT JUMPDEST POP GAS CALL ISZERO DUP1 ISZERO PUSH2 0x5B2 JUMPI RETURNDATASIZE PUSH1 0x0 DUP1 RETURNDATACOPY RETURNDATASIZE PUSH1 0x0 REVERT JUMPDEST POP POP POP POP PUSH1 0x40 MLOAD RETURNDATASIZE PUSH1 0x20 DUP2 LT ISZERO PUSH2 0x5C8 JUMPI PUSH1 0x0 DUP1 REVERT JUMPDEST DUP2 ADD SWAP1 DUP1 DUP1 MLOAD SWAP1 PUSH1 0x20 ADD SWAP1 SWAP3 SWAP2 SWAP1 POP POP POP POP PUSH1 0x1 PUSH1 0x0 SWAP1 SLOAD SWAP1 PUSH2 0x100 EXP SWAP1 DIV PUSH20 0xFFFFFFFFFFFFFFFFFFFFFFFFFFFFFFFFFFFFFFFF AND PUSH20 0xFFFFFFFFFFFFFFFFFFFFFFFFFFFFFFFFFFFFFFFF AND PUSH4 0x95EA7B3 PUSH1 0x2 PUSH1 0x0 SWAP1 SLOAD SWAP1 PUSH2 0x100 EXP SWAP1 DIV PUSH20 0xFFFFFFFFFFFFFFFFFFFFFFFFFFFFFFFFFFFFFFFF AND DUP4 PUSH1 0x40 MLOAD DUP4 PUSH4 0xFFFFFFFF AND PUSH1 0xE0 SHL DUP2 MSTORE PUSH1 0x4 ADD DUP1 DUP4 PUSH20 0xFFFFFFFFFFFFFFFFFFFFFFFFFFFFFFFFFFFFFFFF AND PUSH20 0xFFFFFFFFFFFFFFFFFFFFFFFFFFFFFFFFFFFFFFFF AND DUP2 MSTORE PUSH1 0x20 ADD DUP3 DUP2 MSTORE PUSH1 0x20 ADD SWAP3 POP POP POP PUSH1 0x20 PUSH1 0x40 MLOAD DUP1 DUP4 SUB DUP2 PUSH1 0x0 DUP8 DUP1 EXTCODESIZE ISZERO DUP1 ISZERO PUSH2 0x6A5 JUMPI PUSH1 0x0 DUP1 REVERT JUMPDEST POP GAS CALL ISZERO DUP1 ISZERO PUSH2 0x6B9 JUMPI RETURNDATASIZE PUSH1 0x0 DUP1 RETURNDATACOPY RETURNDATASIZE PUSH1 0x0 REVERT JUMPDEST POP POP POP POP PUSH1 0x40 MLOAD RETURNDATASIZE PUSH1 0x20 DUP2 LT ISZERO PUSH2 0x6CF JUMPI PUSH1 0x0 DUP1 REVERT JUMPDEST DUP2 ADD SWAP1 DUP1 DUP1 MLOAD SWAP1 PUSH1 0x20 ADD SWAP1 SWAP3 SWAP2 SWAP1 POP POP POP POP PUSH32 0x543BA50A5EEC5E6178218E364B1D0F396157B3C8FA278522C2CB7FD99407D474 CALLER DUP3 PUSH1 0x40 MLOAD DUP1 DUP4 PUSH20 0xFFFFFFFFFFFFFFFFFFFFFFFFFFFFFFFFFFFFFFFF AND PUSH20 0xFFFFFFFFFFFFFFFFFFFFFFFFFFFFFFFFFFFFFFFF AND DUP2 MSTORE PUSH1 0x20 ADD DUP3 DUP2 MSTORE PUSH1 0x20 ADD SWAP3 POP POP POP PUSH1 0x40 MLOAD DUP1 SWAP2 SUB SWAP1 LOG1 POP JUMP JUMPDEST PUSH1 0x0 DUP1 SWAP1 SLOAD SWAP1 PUSH2 0x100 EXP SWAP1 DIV PUSH20 0xFFFFFFFFFFFFFFFFFFFFFFFFFFFFFFFFFFFFFFFF AND DUP2 JUMP JUMPDEST PUSH1 0x1 PUSH1 0x0 SWAP1 SLOAD SWAP1 PUSH2 0x100 EXP SWAP1 DIV PUSH20 0xFFFFFFFFFFFFFFFFFFFFFFFFFFFFFFFFFFFFFFFF AND DUP2 JUMP INVALID LOG2 PUSH5 0x6970667358 0x22 SLT KECCAK256 0xBD DUP6 0xE6 LOG0 SWAP6 0x5C 0xA5 PUSH24 0x722BA3541570A27177C72308C74E054DDD903BA60861BDE2 PUSH5 0x736F6C6343 STOP MOD ADD STOP CALLER "},"gasEstimates":{"creation":{"codeDepositCost":"3470600","executionCost":"infinite","totalCost":"infinite"},"external":{"addToPrepaid(uint256)":"infinite","appointeeVote(address,uint256)":"infinite","calculatePowerBoosterAmount(address,uint256)":"infinite","createPETPlan(uint256,uint256)":"85638","deployer()":"1097","fundsBucket()":"1142","getDepositMonth(address,uint256)":"infinite","getMonthlyDepositedAmount(address,uint256,uint256)":"2295","getNomineeAllowedTimestamp(address,uint256,uint256)":"infinite","getSumOfMonthlyAnnuity(address,uint256,uint256,uint256)":"infinite","makeDeposit(address,uint256,uint256,bool)":"infinite","makeLumSumDeposit(address,uint256,uint256,uint256,bool)":"infinite","newPET(uint256,uint256)":"infinite","petPlans(uint256)":"3850","pets(address,uint256)":"6330","prepaidES(address)":"1257","sendPrepaidESDifferent(address[],uint256[])":"infinite","token()":"1163","toogleAppointee(uint256,address,bool)":"infinite","toogleNominee(uint256,address,bool)":"24511","updatePlanStatus(uint256,bool)":"22986","viewAppointation(address,uint256,address)":"2406","viewNomination(address,uint256,address)":"2429","withdrawAnnuity(address,uint256,uint256)":"infinite","withdrawPowerBooster(address,uint256,uint256)":"infinite"},"internal":{"_burnPenalisedPowerBoosterTokens(address,uint256)":"infinite","_getBenefitAllocationByDepositAmount(struct TimeAllyPET.PET storage pointer,uint256,uint256)":"infinite","_getTotalDepositedIncludingPET(uint256,uint256)":"infinite"}},"methodIdentifiers":{"addToPrepaid(uint256)":"26f8bea7","appointeeVote(address,uint256)":"a4003ad4","calculatePowerBoosterAmount(address,uint256)":"452f1423","createPETPlan(uint256,uint256)":"45b37ec4","deployer()":"d5f39488","fundsBucket()":"3fd46068","getDepositMonth(address,uint256)":"1fdae4b8","getMonthlyDepositedAmount(address,uint256,uint256)":"f713c79e","getNomineeAllowedTimestamp(address,uint256,uint256)":"4cd963cf","getSumOfMonthlyAnnuity(address,uint256,uint256,uint256)":"47626531","makeDeposit(address,uint256,uint256,bool)":"0c254d63","makeLumSumDeposit(address,uint256,uint256,uint256,bool)":"37dc8f06","newPET(uint256,uint256)":"29929713","petPlans(uint256)":"95a0373c","pets(address,uint256)":"3ee20a89","prepaidES(address)":"fb0685df","sendPrepaidESDifferent(address[],uint256[])":"51a6349d","token()":"fc0c546a","toogleAppointee(uint256,address,bool)":"ba50531a","toogleNominee(uint256,address,bool)":"0ce57b46","updatePlanStatus(uint256,bool)":"7838e408","viewAppointation(address,uint256,address)":"81423a26","viewNomination(address,uint256,address)":"2e9721b6","withdrawAnnuity(address,uint256,uint256)":"37482ef1","withdrawPowerBooster(address,uint256,uint256)":"9baf14d4"}},"storageLayout":{"storage":[{"astId":747,"contract":"TimeAllyPET.sol:TimeAllyPET","label":"deployer","offset":0,"slot":"0","type":"t_address"},{"astId":749,"contract":"TimeAllyPET.sol:TimeAllyPET","label":"fundsBucket","offset":0,"slot":"1","type":"t_address"},{"astId":751,"contract":"TimeAllyPET.sol:TimeAllyPET","label":"token","offset":0,"slot":"2","type":"t_contract(ERC20)2473"},{"astId":757,"contract":"TimeAllyPET.sol:TimeAllyPET","label":"petPlans","offset":0,"slot":"3","type":"t_array(t_struct(PETPlan)716_storage)dyn_storage"},{"astId":762,"contract":"TimeAllyPET.sol:TimeAllyPET","label":"pets","offset":0,"slot":"4","type":"t_mapping(t_address,t_array(t_struct(PET)745_storage)dyn_storage)"},{"astId":766,"contract":"TimeAllyPET.sol:TimeAllyPET","label":"prepaidES","offset":0,"slot":"5","type":"t_mapping(t_address,t_uint256)"}],"types":{"t_address":{"encoding":"inplace","label":"address","numberOfBytes":"20"},"t_array(t_struct(PET)745_storage)dyn_storage":{"base":"t_struct(PET)745_storage","encoding":"dynamic_array","label":"struct TimeAllyPET.PET[]","numberOfBytes":"32"},"t_array(t_struct(PETPlan)716_storage)dyn_storage":{"base":"t_struct(PETPlan)716_storage","encoding":"dynamic_array","label":"struct TimeAllyPET.PETPlan[]","numberOfBytes":"32"},"t_bool":{"encoding":"inplace","label":"bool","numberOfBytes":"1"},"t_contract(ERC20)2473":{"encoding":"inplace","label":"contract ERC20","numberOfBytes":"20"},"t_mapping(t_address,t_array(t_struct(PET)745_storage)dyn_storage)":{"encoding":"mapping","key":"t_address","label":"mapping(address => struct TimeAllyPET.PET[])","numberOfBytes":"32","value":"t_array(t_struct(PET)745_storage)dyn_storage"},"t_mapping(t_address,t_bool)":{"encoding":"mapping","key":"t_address","label":"mapping(address => bool)","numberOfBytes":"32","value":"t_bool"},"t_mapping(t_address,t_uint256)":{"encoding":"mapping","key":"t_address","label":"mapping(address => uint256)","numberOfBytes":"32","value":"t_uint256"},"t_mapping(t_uint256,t_bool)":{"encoding":"mapping","key":"t_uint256","label":"mapping(uint256 => bool)","numberOfBytes":"32","value":"t_bool"},"t_mapping(t_uint256,t_uint256)":{"encoding":"mapping","key":"t_uint256","label":"mapping(uint256 => uint256)","numberOfBytes":"32","value":"t_uint256"},"t_struct(PET)745_storage":{"encoding":"inplace","label":"struct TimeAllyPET.PET","members":[{"astId":718,"contract":"TimeAllyPET.sol:TimeAllyPET","label":"planId","offset":0,"slot":"0","type":"t_uint256"},{"astId":720,"contract":"TimeAllyPET.sol:TimeAllyPET","label":"monthlyCommitmentAmount","offset":0,"slot":"1","type":"t_uint256"},{"astId":722,"contract":"TimeAllyPET.sol:TimeAllyPET","label":"initTimestamp","offset":0,"slot":"2","type":"t_uint256"},{"astId":724,"contract":"TimeAllyPET.sol:TimeAllyPET","label":"lastAnnuityWithdrawlMonthId","offset":0,"slot":"3","type":"t_uint256"},{"astId":726,"contract":"TimeAllyPET.sol:TimeAllyPET","label":"appointeeVotes","offset":0,"slot":"4","type":"t_uint256"},{"astId":728,"contract":"TimeAllyPET.sol:TimeAllyPET","label":"numberOfAppointees","offset":0,"slot":"5","type":"t_uint256"},{"astId":732,"contract":"TimeAllyPET.sol:TimeAllyPET","label":"monthlyDepositAmount","offset":0,"slot":"6","type":"t_mapping(t_uint256,t_uint256)"},{"astId":736,"contract":"TimeAllyPET.sol:TimeAllyPET","label":"isPowerBoosterWithdrawn","offset":0,"slot":"7","type":"t_mapping(t_uint256,t_bool)"},{"astId":740,"contract":"TimeAllyPET.sol:TimeAllyPET","label":"nominees","offset":0,"slot":"8","type":"t_mapping(t_address,t_bool)"},{"astId":744,"contract":"TimeAllyPET.sol:TimeAllyPET","label":"appointees","offset":0,"slot":"9","type":"t_mapping(t_address,t_bool)"}],"numberOfBytes":"320"},"t_struct(PETPlan)716_storage":{"encoding":"inplace","label":"struct TimeAllyPET.PETPlan","members":[{"astId":711,"contract":"TimeAllyPET.sol:TimeAllyPET","label":"isPlanActive","offset":0,"slot":"0","type":"t_bool"},{"astId":713,"contract":"TimeAllyPET.sol:TimeAllyPET","label":"minimumMonthlyCommitmentAmount","offset":0,"slot":"1","type":"t_uint256"},{"astId":715,"contract":"TimeAllyPET.sol:TimeAllyPET","label":"monthlyBenefitFactorPerThousand","offset":0,"slot":"2","type":"t_uint256"}],"numberOfBytes":"96"},"t_uint256":{"encoding":"inplace","label":"uint256","numberOfBytes":"32"}}},"userdoc":{"methods":{"addToPrepaid(uint256)":{"notice":"this function is used to add ES as prepaid for PET"},"appointeeVote(address,uint256)":{"notice":"this function is used by appointee to vote that nominees can withdraw early"},"calculatePowerBoosterAmount(address,uint256)":{"notice":"calculating power booster amount"},"constructor":"sets up TimeAllyPET contract when deployed and also deploys FundsBucket","createPETPlan(uint256,uint256)":{"notice":"this function is used by deployer to create plans for new PETs"},"getDepositMonth(address,uint256)":{"notice":"this function is used to get the current month of a PET"},"getMonthlyDepositedAmount(address,uint256,uint256)":{"notice":"this function is used to retrive monthly deposit in a PET"},"getNomineeAllowedTimestamp(address,uint256,uint256)":{"notice":"this function is used by contract to get nominee's allowed timestamp"},"getSumOfMonthlyAnnuity(address,uint256,uint256,uint256)":{"notice":"this function is used to get total annuity benefits between two months"},"makeDeposit(address,uint256,uint256,bool)":{"notice":"this function is used by stakers to make deposits to their PETs"},"makeLumSumDeposit(address,uint256,uint256,uint256,bool)":{"notice":"this function is used by stakers to make lum sum deposit"},"newPET(uint256,uint256)":{"notice":"this function is used by anyone to create a new PET"},"sendPrepaidESDifferent(address[],uint256[])":{"notice":"this function is used to send ES as prepaid for PET"},"toogleAppointee(uint256,address,bool)":{"notice":"this function is used to update appointee status of a wallet address in PET"},"toogleNominee(uint256,address,bool)":{"notice":"this function is used to update nominee status of a wallet address in PET"},"updatePlanStatus(uint256,bool)":{"notice":"this function is used by deployer to disable or re-enable a pet plan"},"viewAppointation(address,uint256,address)":{"notice":"this function is used to view appointation"},"viewNomination(address,uint256,address)":{"notice":"this function is used to view nomination"},"withdrawAnnuity(address,uint256,uint256)":{"notice":"this function is used to withdraw annuity benefits"},"withdrawPowerBooster(address,uint256,uint256)":{"notice":"this function is used by staker to withdraw power booster"}},"notice":"Stakes EraSwap tokens with staker"}}