{"abi":[{"constant":true,"inputs":[],"name":"launchRewardBucket","outputs":[{"name":"","type":"uint256"}],"payable":false,"stateMutability":"view","type":"function"},{"constant":true,"inputs":[],"name":"nrtManager","outputs":[{"name":"","type":"address"}],"payable":false,"stateMutability":"view","type":"function"},{"constant":true,"inputs":[{"name":"","type":"address"},{"name":"","type":"uint256"}],"name":"stakings","outputs":[{"name":"exaEsAmount","type":"uint256"},{"name":"timestamp","type":"uint256"},{"name":"stakingPlanId","type":"uint256"},{"name":"status","type":"uint256"},{"name":"accruedExaEsAmount","type":"uint256"},{"name":"loanId","type":"uint256"},{"name":"refundMonthClaimedLast","type":"uint256"},{"name":"refundMonthsRemaining","type":"uint256"}],"payable":false,"stateMutability":"view","type":"function"},{"constant":false,"inputs":[{"name":"_stakingId","type":"uint256"}],"name":"withdrawCancelStaking","outputs":[],"payable":false,"stateMutability":"nonpayable","type":"function"},{"constant":true,"inputs":[{"name":"","type":"uint256"}],"name":"timeAllyMonthlyNRT","outputs":[{"name":"","type":"uint256"}],"payable":false,"stateMutability":"view","type":"function"},{"constant":true,"inputs":[{"name":"_userAddress","type":"address"},{"name":"_atMonth","type":"uint256"}],"name":"seeShareForUserByMonth","outputs":[{"name":"","type":"uint256"}],"payable":false,"stateMutability":"view","type":"function"},{"constant":false,"inputs":[{"name":"_atMonth","type":"uint256"},{"name":"_accruedPercentage","type":"uint256"},{"name":"_stakeAccruedNow","type":"bool"},{"name":"_accruedsStakingPlan","type":"uint256"}],"name":"withdrawShareForUserByMonth","outputs":[],"payable":false,"stateMutability":"nonpayable","type":"function"},{"constant":false,"inputs":[{"name":"_stakingId","type":"uint256"},{"name":"_stakingPlanId","type":"uint256"}],"name":"restakeAccrued","outputs":[],"payable":false,"stateMutability":"nonpayable","type":"function"},{"constant":true,"inputs":[{"name":"_userAddress","type":"address"},{"name":"_atMonth","type":"uint256"}],"name":"userEffectiveStakingByMonth","outputs":[{"name":"","type":"uint256"}],"payable":false,"stateMutability":"view","type":"function"},{"constant":true,"inputs":[{"name":"_userAddress","type":"address"},{"name":"_stakingId","type":"uint256"}],"name":"viewStaking","outputs":[{"name":"","type":"uint256"},{"name":"","type":"uint256"},{"name":"","type":"uint256"},{"name":"","type":"uint256"},{"name":"","type":"uint256"},{"name":"","type":"uint256"}],"payable":false,"stateMutability":"view","type":"function"},{"constant":true,"inputs":[],"name":"timeAllyMonthlyNRTArray","outputs":[{"name":"","type":"uint256[]"}],"payable":false,"stateMutability":"view","type":"function"},{"constant":true,"inputs":[{"name":"","type":"uint256"}],"name":"totalActiveStakings","outputs":[{"name":"","type":"uint256"}],"payable":false,"stateMutability":"view","type":"function"},{"constant":false,"inputs":[{"name":"_exaEsAmount","type":"uint256"}],"name":"topupRewardBucket","outputs":[],"payable":false,"stateMutability":"nonpayable","type":"function"},{"constant":true,"inputs":[],"name":"earthSecondsInMonth","outputs":[{"name":"","type":"uint256"}],"payable":false,"stateMutability":"view","type":"function"},{"constant":false,"inputs":[{"name":"_addresses","type":"address[]"},{"name":"_exaEsAmount","type":"uint256"}],"name":"giveLaunchReward","outputs":[],"payable":false,"stateMutability":"nonpayable","type":"function"},{"constant":true,"inputs":[{"name":"","type":"uint256"}],"name":"stakingPlans","outputs":[{"name":"months","type":"uint256"},{"name":"fractionFrom15","type":"uint256"}],"payable":false,"stateMutability":"view","type":"function"},{"constant":true,"inputs":[{"name":"","type":"address"}],"name":"launchReward","outputs":[{"name":"","type":"uint256"}],"payable":false,"stateMutability":"view","type":"function"},{"constant":false,"inputs":[{"name":"_loanMonths","type":"uint256"},{"name":"_loanRate","type":"uint256"}],"name":"createLoanPlan","outputs":[],"payable":false,"stateMutability":"nonpayable","type":"function"},{"constant":true,"inputs":[],"name":"owner","outputs":[{"name":"","type":"address"}],"payable":false,"stateMutability":"view","type":"function"},{"constant":true,"inputs":[{"name":"_userAddress","type":"address"},{"name":"_stakingId","type":"uint256"},{"name":"_currentMonth","type":"uint256"},{"name":"_atMonth","type":"uint256"}],"name":"isStakingActive","outputs":[{"name":"","type":"bool"}],"payable":false,"stateMutability":"view","type":"function"},{"constant":true,"inputs":[{"name":"","type":"address"},{"name":"","type":"uint256"}],"name":"loans","outputs":[{"name":"exaEsAmount","type":"uint256"},{"name":"timestamp","type":"uint256"},{"name":"loanPlanId","type":"uint256"},{"name":"status","type":"uint256"}],"payable":false,"stateMutability":"view","type":"function"},{"constant":false,"inputs":[{"name":"_stakingId","type":"uint256"}],"name":"cancelStaking","outputs":[],"payable":false,"stateMutability":"nonpayable","type":"function"},{"constant":true,"inputs":[{"name":"_userAddress","type":"address"}],"name":"getNumberOfStakingsByUser","outputs":[{"name":"","type":"uint256"}],"payable":false,"stateMutability":"view","type":"function"},{"constant":true,"inputs":[{"name":"_userAddress","type":"address"},{"name":"_stakingIds","type":"uint256[]"}],"name":"seeMaxLoaningAmountOnUserStakings","outputs":[{"name":"","type":"uint256"}],"payable":false,"stateMutability":"view","type":"function"},{"constant":false,"inputs":[{"name":"_months","type":"uint256"},{"name":"_fractionFrom15","type":"uint256"}],"name":"createStakingPlan","outputs":[],"payable":false,"stateMutability":"nonpayable","type":"function"},{"constant":true,"inputs":[{"name":"","type":"uint256"}],"name":"loanPlans","outputs":[{"name":"loanMonths","type":"uint256"},{"name":"loanRate","type":"uint256"}],"payable":false,"stateMutability":"view","type":"function"},{"constant":false,"inputs":[{"name":"_loanPlanId","type":"uint256"},{"name":"_exaEsAmount","type":"uint256"},{"name":"_stakingIds","type":"uint256[]"}],"name":"takeLoanOnSelfStaking","outputs":[],"payable":false,"stateMutability":"nonpayable","type":"function"},{"constant":false,"inputs":[{"name":"_stakingPlanId","type":"uint256"}],"name":"claimLaunchReward","outputs":[],"payable":false,"stateMutability":"nonpayable","type":"function"},{"constant":true,"inputs":[],"name":"getCurrentMonth","outputs":[{"name":"","type":"uint256"}],"payable":false,"stateMutability":"view","type":"function"},{"constant":false,"inputs":[{"name":"_loanId","type":"uint256"}],"name":"repayLoanSelf","outputs":[],"payable":false,"stateMutability":"nonpayable","type":"function"},{"constant":false,"inputs":[{"name":"_exaEsAmount","type":"uint256"},{"name":"_stakingPlanId","type":"uint256"}],"name":"newStaking","outputs":[],"payable":false,"stateMutability":"nonpayable","type":"function"},{"constant":true,"inputs":[],"name":"deployedTimestamp","outputs":[{"name":"","type":"uint256"}],"payable":false,"stateMutability":"view","type":"function"},{"constant":false,"inputs":[{"name":"_timeAllyNRT","type":"uint256"}],"name":"increaseMonth","outputs":[],"payable":false,"stateMutability":"nonpayable","type":"function"},{"constant":false,"inputs":[{"name":"_stakings","type":"uint256[]"}],"name":"withdrawExpiredStakings","outputs":[],"payable":false,"stateMutability":"nonpayable","type":"function"},{"constant":true,"inputs":[{"name":"_userAddress","type":"address"},{"name":"_atMonth","type":"uint256"}],"name":"userActiveStakingByMonth","outputs":[{"name":"","type":"uint256"}],"payable":false,"stateMutability":"view","type":"function"},{"constant":true,"inputs":[],"name":"token","outputs":[{"name":"","type":"address"}],"payable":false,"stateMutability":"view","type":"function"},{"inputs":[{"name":"_tokenAddress","type":"address"},{"name":"_nrtAddress","type":"address"}],"payable":false,"stateMutability":"nonpayable","type":"constructor"},{"anonymous":false,"inputs":[{"indexed":true,"name":"_staker","type":"address"},{"indexed":true,"name":"_stakePlanId","type":"uint256"},{"indexed":false,"name":"_exaEsAmount","type":"uint256"},{"indexed":false,"name":"_stakingId","type":"uint256"}],"name":"NewStaking","type":"event"},{"anonymous":false,"inputs":[{"indexed":true,"name":"_loaner","type":"address"},{"indexed":true,"name":"_loanPlanId","type":"uint256"},{"indexed":false,"name":"_exaEsAmount","type":"uint256"},{"indexed":false,"name":"_loanInterest","type":"uint256"},{"indexed":false,"name":"_loanId","type":"uint256"}],"name":"NewLoan","type":"event"}],"devdoc":{"methods":{}},"evm":{"assembly":"    /* \"TimeAlly.sol\":245:22512  contract TimeAlly {... */\n  mstore(0x40, 0x80)\n    /* \"TimeAlly.sol\":1190:1197  2629744 */\n  0x282070\n    /* \"TimeAlly.sol\":1153:1197  uint256 public earthSecondsInMonth = 2629744 */\n  0x04\n  sstore\n    /* \"TimeAlly.sol\":2419:2680  constructor(address _tokenAddress, address _nrtAddress) public {... */\n  callvalue\n    /* \"--CODEGEN--\":8:17   */\n  dup1\n    /* \"--CODEGEN--\":5:7   */\n  iszero\n  tag_1\n  jumpi\n    /* \"--CODEGEN--\":30:31   */\n  0x00\n    /* \"--CODEGEN--\":27:28   */\n  dup1\n    /* \"--CODEGEN--\":20:32   */\n  revert\n    /* \"--CODEGEN--\":5:7   */\ntag_1:\n    /* \"TimeAlly.sol\":2419:2680  constructor(address _tokenAddress, address _nrtAddress) public {... */\n  pop\n  mload(0x40)\n  sub(codesize, bytecodeSize)\n  dup1\n  bytecodeSize\n  dup4\n  codecopy\n  dup2\n  dup2\n  add\n  0x40\n  mstore\n    /* \"--CODEGEN--\":13:15   */\n  0x40\n    /* \"--CODEGEN--\":8:11   */\n  dup2\n    /* \"--CODEGEN--\":5:16   */\n  lt\n    /* \"--CODEGEN--\":2:4   */\n  iszero\n  tag_2\n  jumpi\n    /* \"--CODEGEN--\":29:30   */\n  0x00\n    /* \"--CODEGEN--\":26:27   */\n  dup1\n    /* \"--CODEGEN--\":19:31   */\n  revert\n    /* \"--CODEGEN--\":2:4   */\ntag_2:\n    /* \"TimeAlly.sol\":2419:2680  constructor(address _tokenAddress, address _nrtAddress) public {... */\n  dup2\n  add\n  swap1\n  dup1\n  dup1\n  mload\n  swap1\n  0x20\n  add\n  swap1\n  swap3\n  swap2\n  swap1\n  dup1\n  mload\n  swap1\n  0x20\n  add\n  swap1\n  swap3\n  swap2\n  swap1\n  pop\n  pop\n  pop\n    /* \"TimeAlly.sol\":2500:2510  msg.sender */\n  caller\n    /* \"TimeAlly.sol\":2492:2497  owner */\n  0x00\n  dup1\n    /* \"TimeAlly.sol\":2492:2510  owner = msg.sender */\n  0x0100\n  exp\n  dup2\n  sload\n  dup2\n  0xffffffffffffffffffffffffffffffffffffffff\n  mul\n  not\n  and\n  swap1\n  dup4\n  0xffffffffffffffffffffffffffffffffffffffff\n  and\n  mul\n  or\n  swap1\n  sstore\n  pop\n    /* \"TimeAlly.sol\":2536:2549  _tokenAddress */\n  dup2\n    /* \"TimeAlly.sol\":2520:2525  token */\n  0x01\n  0x00\n    /* \"TimeAlly.sol\":2520:2550  token = Eraswap(_tokenAddress) */\n  0x0100\n  exp\n  dup2\n  sload\n  dup2\n  0xffffffffffffffffffffffffffffffffffffffff\n  mul\n  not\n  and\n  swap1\n  dup4\n  0xffffffffffffffffffffffffffffffffffffffff\n  and\n  mul\n  or\n  swap1\n  sstore\n  pop\n    /* \"TimeAlly.sol\":2584:2595  _nrtAddress */\n  dup1\n    /* \"TimeAlly.sol\":2560:2570  nrtManager */\n  0x02\n  0x00\n    /* \"TimeAlly.sol\":2560:2596  nrtManager = NRTManager(_nrtAddress) */\n  0x0100\n  exp\n  dup2\n  sload\n  dup2\n  0xffffffffffffffffffffffffffffffffffffffff\n  mul\n  not\n  and\n  swap1\n  dup4\n  0xffffffffffffffffffffffffffffffffffffffff\n  and\n  mul\n  or\n  swap1\n  sstore\n  pop\n    /* \"TimeAlly.sol\":2626:2631  token */\n  0x01\n  0x00\n  swap1\n  sload\n  swap1\n  0x0100\n  exp\n  swap1\n  div\n  0xffffffffffffffffffffffffffffffffffffffff\n  and\n    /* \"TimeAlly.sol\":2626:2635  token.mou */\n  0xffffffffffffffffffffffffffffffffffffffff\n  and\n  0xb81f90f3\n    /* \"TimeAlly.sol\":2626:2637  token.mou() */\n  mload(0x40)\n  dup2\n  0xffffffff\n  and\n  0xe0\n  shl\n  dup2\n  mstore\n  0x04\n  add\n  0x20\n  mload(0x40)\n  dup1\n  dup4\n  sub\n  dup2\n  dup7\n  dup1\n  extcodesize\n  iszero\n    /* \"--CODEGEN--\":8:17   */\n  dup1\n    /* \"--CODEGEN--\":5:7   */\n  iszero\n  tag_5\n  jumpi\n    /* \"--CODEGEN--\":30:31   */\n  0x00\n    /* \"--CODEGEN--\":27:28   */\n  dup1\n    /* \"--CODEGEN--\":20:32   */\n  revert\n    /* \"--CODEGEN--\":5:7   */\ntag_5:\n    /* \"TimeAlly.sol\":2626:2637  token.mou() */\n  pop\n  gas\n  staticcall\n  iszero\n    /* \"--CODEGEN--\":8:17   */\n  dup1\n    /* \"--CODEGEN--\":5:7   */\n  iszero\n  tag_6\n  jumpi\n    /* \"--CODEGEN--\":45:61   */\n  returndatasize\n    /* \"--CODEGEN--\":42:43   */\n  0x00\n    /* \"--CODEGEN--\":39:40   */\n  dup1\n    /* \"--CODEGEN--\":24:62   */\n  returndatacopy\n    /* \"--CODEGEN--\":77:93   */\n  returndatasize\n    /* \"--CODEGEN--\":74:75   */\n  0x00\n    /* \"--CODEGEN--\":67:94   */\n  revert\n    /* \"--CODEGEN--\":5:7   */\ntag_6:\n    /* \"TimeAlly.sol\":2626:2637  token.mou() */\n  pop\n  pop\n  pop\n  pop\n  mload(0x40)\n  returndatasize\n    /* \"--CODEGEN--\":13:15   */\n  0x20\n    /* \"--CODEGEN--\":8:11   */\n  dup2\n    /* \"--CODEGEN--\":5:16   */\n  lt\n    /* \"--CODEGEN--\":2:4   */\n  iszero\n  tag_7\n  jumpi\n    /* \"--CODEGEN--\":29:30   */\n  0x00\n    /* \"--CODEGEN--\":26:27   */\n  dup1\n    /* \"--CODEGEN--\":19:31   */\n  revert\n    /* \"--CODEGEN--\":2:4   */\ntag_7:\n    /* \"TimeAlly.sol\":2626:2637  token.mou() */\n  dup2\n  add\n  swap1\n  dup1\n  dup1\n  mload\n  swap1\n  0x20\n  add\n  swap1\n  swap3\n  swap2\n  swap1\n  pop\n  pop\n  pop\n    /* \"TimeAlly.sol\":2606:2623  deployedTimestamp */\n  0x03\n    /* \"TimeAlly.sol\":2606:2637  deployedTimestamp = token.mou() */\n  dup2\n  swap1\n  sstore\n  pop\n    /* \"TimeAlly.sol\":2647:2665  timeAllyMonthlyNRT */\n  0x05\n    /* \"TimeAlly.sol\":2671:2672  0 */\n  0x00\n    /* \"TimeAlly.sol\":2647:2673  timeAllyMonthlyNRT.push(0) */\n  swap1\n  dup1\n    /* \"--CODEGEN--\":39:40   */\n  0x01\n    /* \"--CODEGEN--\":33:36   */\n  dup2\n    /* \"--CODEGEN--\":27:37   */\n  sload\n    /* \"--CODEGEN--\":23:41   */\n  add\n    /* \"--CODEGEN--\":57:67   */\n  dup1\n    /* \"--CODEGEN--\":52:55   */\n  dup3\n    /* \"--CODEGEN--\":45:68   */\n  sstore\n    /* \"--CODEGEN--\":79:89   */\n  dup1\n    /* \"--CODEGEN--\":72:89   */\n  swap2\n  pop\n    /* \"--CODEGEN--\":0:93   */\n  pop\n    /* \"TimeAlly.sol\":2647:2673  timeAllyMonthlyNRT.push(0) */\n  swap1\n  0x01\n  dup3\n  sub\n  swap1\n  0x00\n  mstore\n  keccak256(0x00, 0x20)\n  add\n  0x00\n  swap1\n  swap2\n  swap3\n  swap1\n  swap2\n  swap1\n  swap2\n  pop\n  sstore\n  pop\n    /* \"TimeAlly.sol\":2419:2680  constructor(address _tokenAddress, address _nrtAddress) public {... */\n  pop\n  pop\n    /* \"TimeAlly.sol\":245:22512  contract TimeAlly {... */\n  dataSize(sub_0)\n  dup1\n  dataOffset(sub_0)\n  0x00\n  codecopy\n  0x00\n  return\nstop\n\nsub_0: assembly {\n        /* \"TimeAlly.sol\":245:22512  contract TimeAlly {... */\n      mstore(0x40, 0x80)\n      callvalue\n        /* \"--CODEGEN--\":8:17   */\n      dup1\n        /* \"--CODEGEN--\":5:7   */\n      iszero\n      tag_1\n      jumpi\n        /* \"--CODEGEN--\":30:31   */\n      0x00\n        /* \"--CODEGEN--\":27:28   */\n      dup1\n        /* \"--CODEGEN--\":20:32   */\n      revert\n        /* \"--CODEGEN--\":5:7   */\n    tag_1:\n        /* \"TimeAlly.sol\":245:22512  contract TimeAlly {... */\n      pop\n      jumpi(tag_2, lt(calldatasize, 0x04))\n      shr(0xe0, calldataload(0x00))\n      dup1\n      0x8da5cb5b\n      gt\n      tag_39\n      jumpi\n      dup1\n      0xda9d8aa0\n      gt\n      tag_40\n      jumpi\n      dup1\n      0xe6bbe424\n      gt\n      tag_41\n      jumpi\n      dup1\n      0xe6bbe424\n      eq\n      tag_34\n      jumpi\n      dup1\n      0xe78c81c4\n      eq\n      tag_35\n      jumpi\n      dup1\n      0xe83f7843\n      eq\n      tag_36\n      jumpi\n      dup1\n      0xeb12f7f5\n      eq\n      tag_37\n      jumpi\n      dup1\n      0xfc0c546a\n      eq\n      tag_38\n      jumpi\n      jump(tag_2)\n    tag_41:\n      dup1\n      0xda9d8aa0\n      eq\n      tag_30\n      jumpi\n      dup1\n      0xddd1b67e\n      eq\n      tag_31\n      jumpi\n      dup1\n      0xdea6cf43\n      eq\n      tag_32\n      jumpi\n      dup1\n      0xe5fd04e6\n      eq\n      tag_33\n      jumpi\n      jump(tag_2)\n    tag_40:\n      dup1\n      0xad998fa0\n      gt\n      tag_42\n      jumpi\n      dup1\n      0xad998fa0\n      eq\n      tag_25\n      jumpi\n      dup1\n      0xbe4ad9c3\n      eq\n      tag_26\n      jumpi\n      dup1\n      0xc71d5d58\n      eq\n      tag_27\n      jumpi\n      dup1\n      0xcc44a2fd\n      eq\n      tag_28\n      jumpi\n      dup1\n      0xd0e32681\n      eq\n      tag_29\n      jumpi\n      jump(tag_2)\n    tag_42:\n      dup1\n      0x8da5cb5b\n      eq\n      tag_21\n      jumpi\n      dup1\n      0x97a332d8\n      eq\n      tag_22\n      jumpi\n      dup1\n      0x98c61c37\n      eq\n      tag_23\n      jumpi\n      dup1\n      0x9ab0388b\n      eq\n      tag_24\n      jumpi\n      jump(tag_2)\n    tag_39:\n      dup1\n      0x46a4d6e3\n      gt\n      tag_43\n      jumpi\n      dup1\n      0x582e7e9e\n      gt\n      tag_44\n      jumpi\n      dup1\n      0x582e7e9e\n      eq\n      tag_16\n      jumpi\n      dup1\n      0x59dcc8c5\n      eq\n      tag_17\n      jumpi\n      dup1\n      0x762e7a34\n      eq\n      tag_18\n      jumpi\n      dup1\n      0x7acab857\n      eq\n      tag_19\n      jumpi\n      dup1\n      0x82f97857\n      eq\n      tag_20\n      jumpi\n      jump(tag_2)\n    tag_44:\n      dup1\n      0x46a4d6e3\n      eq\n      tag_12\n      jumpi\n      dup1\n      0x497ec40f\n      eq\n      tag_13\n      jumpi\n      dup1\n      0x4ec0692c\n      eq\n      tag_14\n      jumpi\n      dup1\n      0x53fcb2f3\n      eq\n      tag_15\n      jumpi\n      jump(tag_2)\n    tag_43:\n      dup1\n      0x23a15e6b\n      gt\n      tag_45\n      jumpi\n      dup1\n      0x23a15e6b\n      eq\n      tag_7\n      jumpi\n      dup1\n      0x2f3b59ea\n      eq\n      tag_8\n      jumpi\n      dup1\n      0x35f406ab\n      eq\n      tag_9\n      jumpi\n      dup1\n      0x3d5d6b5a\n      eq\n      tag_10\n      jumpi\n      dup1\n      0x41927861\n      eq\n      tag_11\n      jumpi\n      jump(tag_2)\n    tag_45:\n      dup1\n      0x070b8195\n      eq\n      tag_3\n      jumpi\n      dup1\n      0x0df5202f\n      eq\n      tag_4\n      jumpi\n      dup1\n      0x1849d8ea\n      eq\n      tag_5\n      jumpi\n      dup1\n      0x217d65fb\n      eq\n      tag_6\n      jumpi\n    tag_2:\n      0x00\n      dup1\n      revert\n        /* \"TimeAlly.sol\":1714:1747  uint256 public launchRewardBucket */\n    tag_3:\n      tag_46\n      tag_47\n      jump\t// in\n    tag_46:\n      mload(0x40)\n      dup1\n      dup3\n      dup2\n      mstore\n      0x20\n      add\n      swap2\n      pop\n      pop\n      mload(0x40)\n      dup1\n      swap2\n      sub\n      swap1\n      return\n        /* \"TimeAlly.sol\":1080:1108  NRTManager public nrtManager */\n    tag_4:\n      tag_48\n      tag_49\n      jump\t// in\n    tag_48:\n      mload(0x40)\n      dup1\n      dup3\n      0xffffffffffffffffffffffffffffffffffffffff\n      and\n      0xffffffffffffffffffffffffffffffffffffffff\n      and\n      dup2\n      mstore\n      0x20\n      add\n      swap2\n      pop\n      pop\n      mload(0x40)\n      dup1\n      swap2\n      sub\n      swap1\n      return\n        /* \"TimeAlly.sol\":1491:1536  mapping(address => Staking[]) public stakings */\n    tag_5:\n      tag_50\n      0x04\n      dup1\n      calldatasize\n      sub\n        /* \"--CODEGEN--\":13:15   */\n      0x40\n        /* \"--CODEGEN--\":8:11   */\n      dup2\n        /* \"--CODEGEN--\":5:16   */\n      lt\n        /* \"--CODEGEN--\":2:4   */\n      iszero\n      tag_51\n      jumpi\n        /* \"--CODEGEN--\":29:30   */\n      0x00\n        /* \"--CODEGEN--\":26:27   */\n      dup1\n        /* \"--CODEGEN--\":19:31   */\n      revert\n        /* \"--CODEGEN--\":2:4   */\n    tag_51:\n        /* \"TimeAlly.sol\":1491:1536  mapping(address => Staking[]) public stakings */\n      dup2\n      add\n      swap1\n      dup1\n      dup1\n      calldataload\n      0xffffffffffffffffffffffffffffffffffffffff\n      and\n      swap1\n      0x20\n      add\n      swap1\n      swap3\n      swap2\n      swap1\n      dup1\n      calldataload\n      swap1\n      0x20\n      add\n      swap1\n      swap3\n      swap2\n      swap1\n      pop\n      pop\n      pop\n      tag_52\n      jump\t// in\n    tag_50:\n      mload(0x40)\n      dup1\n      dup10\n      dup2\n      mstore\n      0x20\n      add\n      dup9\n      dup2\n      mstore\n      0x20\n      add\n      dup8\n      dup2\n      mstore\n      0x20\n      add\n      dup7\n      dup2\n      mstore\n      0x20\n      add\n      dup6\n      dup2\n      mstore\n      0x20\n      add\n      dup5\n      dup2\n      mstore\n      0x20\n      add\n      dup4\n      dup2\n      mstore\n      0x20\n      add\n      dup3\n      dup2\n      mstore\n      0x20\n      add\n      swap9\n      pop\n      pop\n      pop\n      pop\n      pop\n      pop\n      pop\n      pop\n      pop\n      mload(0x40)\n      dup1\n      swap2\n      sub\n      swap1\n      return\n        /* \"TimeAlly.sol\":15453:16712  function withdrawCancelStaking(uint256 _stakingId) public {... */\n    tag_6:\n      tag_53\n      0x04\n      dup1\n      calldatasize\n      sub\n        /* \"--CODEGEN--\":13:15   */\n      0x20\n        /* \"--CODEGEN--\":8:11   */\n      dup2\n        /* \"--CODEGEN--\":5:16   */\n      lt\n        /* \"--CODEGEN--\":2:4   */\n      iszero\n      tag_54\n      jumpi\n        /* \"--CODEGEN--\":29:30   */\n      0x00\n        /* \"--CODEGEN--\":26:27   */\n      dup1\n        /* \"--CODEGEN--\":19:31   */\n      revert\n        /* \"--CODEGEN--\":2:4   */\n    tag_54:\n        /* \"TimeAlly.sol\":15453:16712  function withdrawCancelStaking(uint256 _stakingId) public {... */\n      dup2\n      add\n      swap1\n      dup1\n      dup1\n      calldataload\n      swap1\n      0x20\n      add\n      swap1\n      swap3\n      swap2\n      swap1\n      pop\n      pop\n      pop\n      tag_55\n      jump\t// in\n    tag_53:\n      stop\n        /* \"TimeAlly.sol\":1239:1274  uint256[] public timeAllyMonthlyNRT */\n    tag_7:\n      tag_56\n      0x04\n      dup1\n      calldatasize\n      sub\n        /* \"--CODEGEN--\":13:15   */\n      0x20\n        /* \"--CODEGEN--\":8:11   */\n      dup2\n        /* \"--CODEGEN--\":5:16   */\n      lt\n        /* \"--CODEGEN--\":2:4   */\n      iszero\n      tag_57\n      jumpi\n        /* \"--CODEGEN--\":29:30   */\n      0x00\n        /* \"--CODEGEN--\":26:27   */\n      dup1\n        /* \"--CODEGEN--\":19:31   */\n      revert\n        /* \"--CODEGEN--\":2:4   */\n    tag_57:\n        /* \"TimeAlly.sol\":1239:1274  uint256[] public timeAllyMonthlyNRT */\n      dup2\n      add\n      swap1\n      dup1\n      dup1\n      calldataload\n      swap1\n      0x20\n      add\n      swap1\n      swap3\n      swap2\n      swap1\n      pop\n      pop\n      pop\n      tag_58\n      jump\t// in\n    tag_56:\n      mload(0x40)\n      dup1\n      dup3\n      dup2\n      mstore\n      0x20\n      add\n      swap2\n      pop\n      pop\n      mload(0x40)\n      dup1\n      swap2\n      sub\n      swap1\n      return\n        /* \"TimeAlly.sol\":9879:11132  function seeShareForUserByMonth(address _userAddress, uint256 _atMonth) public view returns (uint256) {... */\n    tag_8:\n      tag_59\n      0x04\n      dup1\n      calldatasize\n      sub\n        /* \"--CODEGEN--\":13:15   */\n      0x40\n        /* \"--CODEGEN--\":8:11   */\n      dup2\n        /* \"--CODEGEN--\":5:16   */\n      lt\n        /* \"--CODEGEN--\":2:4   */\n      iszero\n      tag_60\n      jumpi\n        /* \"--CODEGEN--\":29:30   */\n      0x00\n        /* \"--CODEGEN--\":26:27   */\n      dup1\n        /* \"--CODEGEN--\":19:31   */\n      revert\n        /* \"--CODEGEN--\":2:4   */\n    tag_60:\n        /* \"TimeAlly.sol\":9879:11132  function seeShareForUserByMonth(address _userAddress, uint256 _atMonth) public view returns (uint256) {... */\n      dup2\n      add\n      swap1\n      dup1\n      dup1\n      calldataload\n      0xffffffffffffffffffffffffffffffffffffffff\n      and\n      swap1\n      0x20\n      add\n      swap1\n      swap3\n      swap2\n      swap1\n      dup1\n      calldataload\n      swap1\n      0x20\n      add\n      swap1\n      swap3\n      swap2\n      swap1\n      pop\n      pop\n      pop\n      tag_61\n      jump\t// in\n    tag_59:\n      mload(0x40)\n      dup1\n      dup3\n      dup2\n      mstore\n      0x20\n      add\n      swap2\n      pop\n      pop\n      mload(0x40)\n      dup1\n      swap2\n      sub\n      swap1\n      return\n        /* \"TimeAlly.sol\":11138:13380  function withdrawShareForUserByMonth(uint256 _atMonth, uint256 _accruedPercentage, bool _stakeAccruedNow, uint256 _accruedsStakingPlan) public {... */\n    tag_9:\n      tag_62\n      0x04\n      dup1\n      calldatasize\n      sub\n        /* \"--CODEGEN--\":13:16   */\n      0x80\n        /* \"--CODEGEN--\":8:11   */\n      dup2\n        /* \"--CODEGEN--\":5:17   */\n      lt\n        /* \"--CODEGEN--\":2:4   */\n      iszero\n      tag_63\n      jumpi\n        /* \"--CODEGEN--\":30:31   */\n      0x00\n        /* \"--CODEGEN--\":27:28   */\n      dup1\n        /* \"--CODEGEN--\":20:32   */\n      revert\n        /* \"--CODEGEN--\":2:4   */\n    tag_63:\n        /* \"TimeAlly.sol\":11138:13380  function withdrawShareForUserByMonth(uint256 _atMonth, uint256 _accruedPercentage, bool _stakeAccruedNow, uint256 _accruedsStakingPlan) public {... */\n      dup2\n      add\n      swap1\n      dup1\n      dup1\n      calldataload\n      swap1\n      0x20\n      add\n      swap1\n      swap3\n      swap2\n      swap1\n      dup1\n      calldataload\n      swap1\n      0x20\n      add\n      swap1\n      swap3\n      swap2\n      swap1\n      dup1\n      calldataload\n      iszero\n      iszero\n      swap1\n      0x20\n      add\n      swap1\n      swap3\n      swap2\n      swap1\n      dup1\n      calldataload\n      swap1\n      0x20\n      add\n      swap1\n      swap3\n      swap2\n      swap1\n      pop\n      pop\n      pop\n      tag_64\n      jump\t// in\n    tag_62:\n      stop\n        /* \"TimeAlly.sol\":13386:13786  function restakeAccrued(uint256 _stakingId, uint256 _stakingPlanId) public {... */\n    tag_10:\n      tag_65\n      0x04\n      dup1\n      calldatasize\n      sub\n        /* \"--CODEGEN--\":13:15   */\n      0x40\n        /* \"--CODEGEN--\":8:11   */\n      dup2\n        /* \"--CODEGEN--\":5:16   */\n      lt\n        /* \"--CODEGEN--\":2:4   */\n      iszero\n      tag_66\n      jumpi\n        /* \"--CODEGEN--\":29:30   */\n      0x00\n        /* \"--CODEGEN--\":26:27   */\n      dup1\n        /* \"--CODEGEN--\":19:31   */\n      revert\n        /* \"--CODEGEN--\":2:4   */\n    tag_66:\n        /* \"TimeAlly.sol\":13386:13786  function restakeAccrued(uint256 _stakingId, uint256 _stakingPlanId) public {... */\n      dup2\n      add\n      swap1\n      dup1\n      dup1\n      calldataload\n      swap1\n      0x20\n      add\n      swap1\n      swap3\n      swap2\n      swap1\n      dup1\n      calldataload\n      swap1\n      0x20\n      add\n      swap1\n      swap3\n      swap2\n      swap1\n      pop\n      pop\n      pop\n      tag_67\n      jump\t// in\n    tag_65:\n      stop\n        /* \"TimeAlly.sol\":8809:9872  function userEffectiveStakingByMonth(address _userAddress, uint256 _atMonth) public view returns (uint256) {... */\n    tag_11:\n      tag_68\n      0x04\n      dup1\n      calldatasize\n      sub\n        /* \"--CODEGEN--\":13:15   */\n      0x40\n        /* \"--CODEGEN--\":8:11   */\n      dup2\n        /* \"--CODEGEN--\":5:16   */\n      lt\n        /* \"--CODEGEN--\":2:4   */\n      iszero\n      tag_69\n      jumpi\n        /* \"--CODEGEN--\":29:30   */\n      0x00\n        /* \"--CODEGEN--\":26:27   */\n      dup1\n        /* \"--CODEGEN--\":19:31   */\n      revert\n        /* \"--CODEGEN--\":2:4   */\n    tag_69:\n        /* \"TimeAlly.sol\":8809:9872  function userEffectiveStakingByMonth(address _userAddress, uint256 _atMonth) public view returns (uint256) {... */\n      dup2\n      add\n      swap1\n      dup1\n      dup1\n      calldataload\n      0xffffffffffffffffffffffffffffffffffffffff\n      and\n      swap1\n      0x20\n      add\n      swap1\n      swap3\n      swap2\n      swap1\n      dup1\n      calldataload\n      swap1\n      0x20\n      add\n      swap1\n      swap3\n      swap2\n      swap1\n      pop\n      pop\n      pop\n      tag_70\n      jump\t// in\n    tag_68:\n      mload(0x40)\n      dup1\n      dup3\n      dup2\n      mstore\n      0x20\n      add\n      swap2\n      pop\n      pop\n      mload(0x40)\n      dup1\n      swap2\n      sub\n      swap1\n      return\n        /* \"TimeAlly.sol\":4696:5247  function viewStaking(... */\n    tag_12:\n      tag_71\n      0x04\n      dup1\n      calldatasize\n      sub\n        /* \"--CODEGEN--\":13:15   */\n      0x40\n        /* \"--CODEGEN--\":8:11   */\n      dup2\n        /* \"--CODEGEN--\":5:16   */\n      lt\n        /* \"--CODEGEN--\":2:4   */\n      iszero\n      tag_72\n      jumpi\n        /* \"--CODEGEN--\":29:30   */\n      0x00\n        /* \"--CODEGEN--\":26:27   */\n      dup1\n        /* \"--CODEGEN--\":19:31   */\n      revert\n        /* \"--CODEGEN--\":2:4   */\n    tag_72:\n        /* \"TimeAlly.sol\":4696:5247  function viewStaking(... */\n      dup2\n      add\n      swap1\n      dup1\n      dup1\n      calldataload\n      0xffffffffffffffffffffffffffffffffffffffff\n      and\n      swap1\n      0x20\n      add\n      swap1\n      swap3\n      swap2\n      swap1\n      dup1\n      calldataload\n      swap1\n      0x20\n      add\n      swap1\n      swap3\n      swap2\n      swap1\n      pop\n      pop\n      pop\n      tag_73\n      jump\t// in\n    tag_71:\n      mload(0x40)\n      dup1\n      dup8\n      dup2\n      mstore\n      0x20\n      add\n      dup7\n      dup2\n      mstore\n      0x20\n      add\n      dup6\n      dup2\n      mstore\n      0x20\n      add\n      dup5\n      dup2\n      mstore\n      0x20\n      add\n      dup4\n      dup2\n      mstore\n      0x20\n      add\n      dup3\n      dup2\n      mstore\n      0x20\n      add\n      swap7\n      pop\n      pop\n      pop\n      pop\n      pop\n      pop\n      pop\n      mload(0x40)\n      dup1\n      swap2\n      sub\n      swap1\n      return\n        /* \"TimeAlly.sol\":16718:16834  function timeAllyMonthlyNRTArray() public view returns (uint256[] memory) {... */\n    tag_13:\n      tag_74\n      tag_75\n      jump\t// in\n    tag_74:\n      mload(0x40)\n      dup1\n      dup1\n      0x20\n      add\n      dup3\n      dup2\n      sub\n      dup3\n      mstore\n      dup4\n      dup2\n      dup2\n      mload\n      dup2\n      mstore\n      0x20\n      add\n      swap2\n      pop\n      dup1\n      mload\n      swap1\n      0x20\n      add\n      swap1\n      0x20\n      mul\n      dup1\n      dup4\n      dup4\n        /* \"--CODEGEN--\":23:24   */\n      0x00\n        /* \"--CODEGEN--\":8:108   */\n    tag_76:\n        /* \"--CODEGEN--\":33:36   */\n      dup4\n        /* \"--CODEGEN--\":30:31   */\n      dup2\n        /* \"--CODEGEN--\":27:37   */\n      lt\n        /* \"--CODEGEN--\":8:108   */\n      iszero\n      tag_78\n      jumpi\n        /* \"--CODEGEN--\":99:100   */\n      dup1\n        /* \"--CODEGEN--\":94:97   */\n      dup3\n        /* \"--CODEGEN--\":90:101   */\n      add\n        /* \"--CODEGEN--\":84:102   */\n      mload\n        /* \"--CODEGEN--\":80:81   */\n      dup2\n        /* \"--CODEGEN--\":75:78   */\n      dup5\n        /* \"--CODEGEN--\":71:82   */\n      add\n        /* \"--CODEGEN--\":64:103   */\n      mstore\n        /* \"--CODEGEN--\":52:54   */\n      0x20\n        /* \"--CODEGEN--\":49:50   */\n      dup2\n        /* \"--CODEGEN--\":45:55   */\n      add\n        /* \"--CODEGEN--\":40:55   */\n      swap1\n      pop\n        /* \"--CODEGEN--\":8:108   */\n      jump(tag_76)\n    tag_78:\n        /* \"--CODEGEN--\":12:26   */\n      pop\n        /* \"TimeAlly.sol\":16718:16834  function timeAllyMonthlyNRTArray() public view returns (uint256[] memory) {... */\n      pop\n      pop\n      pop\n      swap1\n      pop\n      add\n      swap3\n      pop\n      pop\n      pop\n      mload(0x40)\n      dup1\n      swap2\n      sub\n      swap1\n      return\n        /* \"TimeAlly.sol\":1652:1707  mapping (uint256 => uint256) public totalActiveStakings */\n    tag_14:\n      tag_79\n      0x04\n      dup1\n      calldatasize\n      sub\n        /* \"--CODEGEN--\":13:15   */\n      0x20\n        /* \"--CODEGEN--\":8:11   */\n      dup2\n        /* \"--CODEGEN--\":5:16   */\n      lt\n        /* \"--CODEGEN--\":2:4   */\n      iszero\n      tag_80\n      jumpi\n        /* \"--CODEGEN--\":29:30   */\n      0x00\n        /* \"--CODEGEN--\":26:27   */\n      dup1\n        /* \"--CODEGEN--\":19:31   */\n      revert\n        /* \"--CODEGEN--\":2:4   */\n    tag_80:\n        /* \"TimeAlly.sol\":1652:1707  mapping (uint256 => uint256) public totalActiveStakings */\n      dup2\n      add\n      swap1\n      dup1\n      dup1\n      calldataload\n      swap1\n      0x20\n      add\n      swap1\n      swap3\n      swap2\n      swap1\n      pop\n      pop\n      pop\n      tag_81\n      jump\t// in\n    tag_79:\n      mload(0x40)\n      dup1\n      dup3\n      dup2\n      mstore\n      0x20\n      add\n      swap2\n      pop\n      pop\n      mload(0x40)\n      dup1\n      swap2\n      sub\n      swap1\n      return\n        /* \"TimeAlly.sol\":5253:5471  function topupRewardBucket(uint256 _exaEsAmount) public onlyOwner {... */\n    tag_15:\n      tag_82\n      0x04\n      dup1\n      calldatasize\n      sub\n        /* \"--CODEGEN--\":13:15   */\n      0x20\n        /* \"--CODEGEN--\":8:11   */\n      dup2\n        /* \"--CODEGEN--\":5:16   */\n      lt\n        /* \"--CODEGEN--\":2:4   */\n      iszero\n      tag_83\n      jumpi\n        /* \"--CODEGEN--\":29:30   */\n      0x00\n        /* \"--CODEGEN--\":26:27   */\n      dup1\n        /* \"--CODEGEN--\":19:31   */\n      revert\n        /* \"--CODEGEN--\":2:4   */\n    tag_83:\n        /* \"TimeAlly.sol\":5253:5471  function topupRewardBucket(uint256 _exaEsAmount) public onlyOwner {... */\n      dup2\n      add\n      swap1\n      dup1\n      dup1\n      calldataload\n      swap1\n      0x20\n      add\n      swap1\n      swap3\n      swap2\n      swap1\n      pop\n      pop\n      pop\n      tag_84\n      jump\t// in\n    tag_82:\n      stop\n        /* \"TimeAlly.sol\":1153:1197  uint256 public earthSecondsInMonth = 2629744 */\n    tag_16:\n      tag_85\n      tag_86\n      jump\t// in\n    tag_85:\n      mload(0x40)\n      dup1\n      dup3\n      dup2\n      mstore\n      0x20\n      add\n      swap2\n      pop\n      pop\n      mload(0x40)\n      dup1\n      swap2\n      sub\n      swap1\n      return\n        /* \"TimeAlly.sol\":5477:5805  function giveLaunchReward(address[] memory _addresses, uint256 _exaEsAmount) public onlyOwner {... */\n    tag_17:\n      tag_87\n      0x04\n      dup1\n      calldatasize\n      sub\n        /* \"--CODEGEN--\":13:15   */\n      0x40\n        /* \"--CODEGEN--\":8:11   */\n      dup2\n        /* \"--CODEGEN--\":5:16   */\n      lt\n        /* \"--CODEGEN--\":2:4   */\n      iszero\n      tag_88\n      jumpi\n        /* \"--CODEGEN--\":29:30   */\n      0x00\n        /* \"--CODEGEN--\":26:27   */\n      dup1\n        /* \"--CODEGEN--\":19:31   */\n      revert\n        /* \"--CODEGEN--\":2:4   */\n    tag_88:\n        /* \"TimeAlly.sol\":5477:5805  function giveLaunchReward(address[] memory _addresses, uint256 _exaEsAmount) public onlyOwner {... */\n      dup2\n      add\n      swap1\n      dup1\n      dup1\n      calldataload\n      swap1\n      0x20\n      add\n      swap1\n        /* \"--CODEGEN--\":21:32   */\n      0x0100000000\n        /* \"--CODEGEN--\":8:19   */\n      dup2\n        /* \"--CODEGEN--\":5:33   */\n      gt\n        /* \"--CODEGEN--\":2:4   */\n      iszero\n      tag_89\n      jumpi\n        /* \"--CODEGEN--\":46:47   */\n      0x00\n        /* \"--CODEGEN--\":43:44   */\n      dup1\n        /* \"--CODEGEN--\":36:48   */\n      revert\n        /* \"--CODEGEN--\":2:4   */\n    tag_89:\n        /* \"TimeAlly.sol\":5477:5805  function giveLaunchReward(address[] memory _addresses, uint256 _exaEsAmount) public onlyOwner {... */\n      dup3\n      add\n        /* \"--CODEGEN--\":35:44   */\n      dup4\n        /* \"--CODEGEN--\":28:32   */\n      0x20\n        /* \"--CODEGEN--\":12:26   */\n      dup3\n        /* \"--CODEGEN--\":8:33   */\n      add\n        /* \"--CODEGEN--\":5:45   */\n      gt\n        /* \"--CODEGEN--\":2:4   */\n      iszero\n      tag_90\n      jumpi\n        /* \"--CODEGEN--\":58:59   */\n      0x00\n        /* \"--CODEGEN--\":55:56   */\n      dup1\n        /* \"--CODEGEN--\":48:60   */\n      revert\n        /* \"--CODEGEN--\":2:4   */\n    tag_90:\n        /* \"TimeAlly.sol\":5477:5805  function giveLaunchReward(address[] memory _addresses, uint256 _exaEsAmount) public onlyOwner {... */\n      dup1\n      calldataload\n      swap1\n      0x20\n      add\n      swap2\n        /* \"--CODEGEN--\":101:110   */\n      dup5\n        /* \"--CODEGEN--\":95:97   */\n      0x20\n        /* \"--CODEGEN--\":81:93   */\n      dup4\n        /* \"--CODEGEN--\":77:98   */\n      mul\n        /* \"--CODEGEN--\":67:75   */\n      dup5\n        /* \"--CODEGEN--\":63:99   */\n      add\n        /* \"--CODEGEN--\":60:111   */\n      gt\n        /* \"--CODEGEN--\":39:50   */\n      0x0100000000\n        /* \"--CODEGEN--\":25:37   */\n      dup4\n        /* \"--CODEGEN--\":22:51   */\n      gt\n        /* \"--CODEGEN--\":11:119   */\n      or\n        /* \"--CODEGEN--\":8:10   */\n      iszero\n      tag_91\n      jumpi\n        /* \"--CODEGEN--\":132:133   */\n      0x00\n        /* \"--CODEGEN--\":129:130   */\n      dup1\n        /* \"--CODEGEN--\":122:134   */\n      revert\n        /* \"--CODEGEN--\":8:10   */\n    tag_91:\n        /* \"TimeAlly.sol\":5477:5805  function giveLaunchReward(address[] memory _addresses, uint256 _exaEsAmount) public onlyOwner {... */\n      swap2\n      swap1\n      dup1\n      dup1\n      0x20\n      mul\n      0x20\n      add\n      mload(0x40)\n      swap1\n      dup2\n      add\n      0x40\n      mstore\n      dup1\n      swap4\n      swap3\n      swap2\n      swap1\n      dup2\n      dup2\n      mstore\n      0x20\n      add\n      dup4\n      dup4\n      0x20\n      mul\n        /* \"--CODEGEN--\":30:33   */\n      dup1\n        /* \"--CODEGEN--\":22:28   */\n      dup3\n        /* \"--CODEGEN--\":14:20   */\n      dup5\n        /* \"--CODEGEN--\":1:34   */\n      calldatacopy\n        /* \"--CODEGEN--\":99:100   */\n      0x00\n        /* \"--CODEGEN--\":93:96   */\n      dup2\n        /* \"--CODEGEN--\":85:91   */\n      dup5\n        /* \"--CODEGEN--\":81:97   */\n      add\n        /* \"--CODEGEN--\":74:101   */\n      mstore\n        /* \"--CODEGEN--\":137:141   */\n      0x1f\n        /* \"--CODEGEN--\":133:142   */\n      not\n        /* \"--CODEGEN--\":126:130   */\n      0x1f\n        /* \"--CODEGEN--\":121:124   */\n      dup3\n        /* \"--CODEGEN--\":117:131   */\n      add\n        /* \"--CODEGEN--\":113:143   */\n      and\n        /* \"--CODEGEN--\":106:143   */\n      swap1\n      pop\n        /* \"--CODEGEN--\":169:172   */\n      dup1\n        /* \"--CODEGEN--\":161:167   */\n      dup4\n        /* \"--CODEGEN--\":157:173   */\n      add\n        /* \"--CODEGEN--\":147:173   */\n      swap3\n      pop\n        /* \"TimeAlly.sol\":5477:5805  function giveLaunchReward(address[] memory _addresses, uint256 _exaEsAmount) public onlyOwner {... */\n      pop\n      pop\n      pop\n      pop\n      pop\n      pop\n      swap2\n      swap3\n      swap2\n      swap3\n      swap1\n      dup1\n      calldataload\n      swap1\n      0x20\n      add\n      swap1\n      swap3\n      swap2\n      swap1\n      pop\n      pop\n      pop\n      tag_92\n      jump\t// in\n    tag_87:\n      stop\n        /* \"TimeAlly.sol\":1388:1421  StakingPlan[] public stakingPlans */\n    tag_18:\n      tag_93\n      0x04\n      dup1\n      calldatasize\n      sub\n        /* \"--CODEGEN--\":13:15   */\n      0x20\n        /* \"--CODEGEN--\":8:11   */\n      dup2\n        /* \"--CODEGEN--\":5:16   */\n      lt\n        /* \"--CODEGEN--\":2:4   */\n      iszero\n      tag_94\n      jumpi\n        /* \"--CODEGEN--\":29:30   */\n      0x00\n        /* \"--CODEGEN--\":26:27   */\n      dup1\n        /* \"--CODEGEN--\":19:31   */\n      revert\n        /* \"--CODEGEN--\":2:4   */\n    tag_94:\n        /* \"TimeAlly.sol\":1388:1421  StakingPlan[] public stakingPlans */\n      dup2\n      add\n      swap1\n      dup1\n      dup1\n      calldataload\n      swap1\n      0x20\n      add\n      swap1\n      swap3\n      swap2\n      swap1\n      pop\n      pop\n      pop\n      tag_95\n      jump\t// in\n    tag_93:\n      mload(0x40)\n      dup1\n      dup4\n      dup2\n      mstore\n      0x20\n      add\n      dup3\n      dup2\n      mstore\n      0x20\n      add\n      swap3\n      pop\n      pop\n      pop\n      mload(0x40)\n      dup1\n      swap2\n      sub\n      swap1\n      return\n        /* \"TimeAlly.sol\":1753:1800  mapping(address => uint256) public launchReward */\n    tag_19:\n      tag_96\n      0x04\n      dup1\n      calldatasize\n      sub\n        /* \"--CODEGEN--\":13:15   */\n      0x20\n        /* \"--CODEGEN--\":8:11   */\n      dup2\n        /* \"--CODEGEN--\":5:16   */\n      lt\n        /* \"--CODEGEN--\":2:4   */\n      iszero\n      tag_97\n      jumpi\n        /* \"--CODEGEN--\":29:30   */\n      0x00\n        /* \"--CODEGEN--\":26:27   */\n      dup1\n        /* \"--CODEGEN--\":19:31   */\n      revert\n        /* \"--CODEGEN--\":2:4   */\n    tag_97:\n        /* \"TimeAlly.sol\":1753:1800  mapping(address => uint256) public launchReward */\n      dup2\n      add\n      swap1\n      dup1\n      dup1\n      calldataload\n      0xffffffffffffffffffffffffffffffffffffffff\n      and\n      swap1\n      0x20\n      add\n      swap1\n      swap3\n      swap2\n      swap1\n      pop\n      pop\n      pop\n      tag_98\n      jump\t// in\n    tag_96:\n      mload(0x40)\n      dup1\n      dup3\n      dup2\n      mstore\n      0x20\n      add\n      swap2\n      pop\n      pop\n      mload(0x40)\n      dup1\n      swap2\n      sub\n      swap1\n      return\n        /* \"TimeAlly.sol\":3154:3358  function createLoanPlan(uint256 _loanMonths, uint256 _loanRate) public onlyOwner {... */\n    tag_20:\n      tag_99\n      0x04\n      dup1\n      calldatasize\n      sub\n        /* \"--CODEGEN--\":13:15   */\n      0x40\n        /* \"--CODEGEN--\":8:11   */\n      dup2\n        /* \"--CODEGEN--\":5:16   */\n      lt\n        /* \"--CODEGEN--\":2:4   */\n      iszero\n      tag_100\n      jumpi\n        /* \"--CODEGEN--\":29:30   */\n      0x00\n        /* \"--CODEGEN--\":26:27   */\n      dup1\n        /* \"--CODEGEN--\":19:31   */\n      revert\n        /* \"--CODEGEN--\":2:4   */\n    tag_100:\n        /* \"TimeAlly.sol\":3154:3358  function createLoanPlan(uint256 _loanMonths, uint256 _loanRate) public onlyOwner {... */\n      dup2\n      add\n      swap1\n      dup1\n      dup1\n      calldataload\n      swap1\n      0x20\n      add\n      swap1\n      swap3\n      swap2\n      swap1\n      dup1\n      calldataload\n      swap1\n      0x20\n      add\n      swap1\n      swap3\n      swap2\n      swap1\n      pop\n      pop\n      pop\n      tag_101\n      jump\t// in\n    tag_99:\n      stop\n        /* \"TimeAlly.sol\":1028:1048  address public owner */\n    tag_21:\n      tag_102\n      tag_103\n      jump\t// in\n    tag_102:\n      mload(0x40)\n      dup1\n      dup3\n      0xffffffffffffffffffffffffffffffffffffffff\n      and\n      0xffffffffffffffffffffffffffffffffffffffff\n      and\n      dup2\n      mstore\n      0x20\n      add\n      swap2\n      pop\n      pop\n      mload(0x40)\n      dup1\n      swap2\n      sub\n      swap1\n      return\n        /* \"TimeAlly.sol\":7024:7733  function isStakingActive(address _userAddress, uint256 _stakingId, uint256 _currentMonth, uint256 _atMonth) public view returns (bool) {... */\n    tag_22:\n      tag_104\n      0x04\n      dup1\n      calldatasize\n      sub\n        /* \"--CODEGEN--\":13:16   */\n      0x80\n        /* \"--CODEGEN--\":8:11   */\n      dup2\n        /* \"--CODEGEN--\":5:17   */\n      lt\n        /* \"--CODEGEN--\":2:4   */\n      iszero\n      tag_105\n      jumpi\n        /* \"--CODEGEN--\":30:31   */\n      0x00\n        /* \"--CODEGEN--\":27:28   */\n      dup1\n        /* \"--CODEGEN--\":20:32   */\n      revert\n        /* \"--CODEGEN--\":2:4   */\n    tag_105:\n        /* \"TimeAlly.sol\":7024:7733  function isStakingActive(address _userAddress, uint256 _stakingId, uint256 _currentMonth, uint256 _atMonth) public view returns (bool) {... */\n      dup2\n      add\n      swap1\n      dup1\n      dup1\n      calldataload\n      0xffffffffffffffffffffffffffffffffffffffff\n      and\n      swap1\n      0x20\n      add\n      swap1\n      swap3\n      swap2\n      swap1\n      dup1\n      calldataload\n      swap1\n      0x20\n      add\n      swap1\n      swap3\n      swap2\n      swap1\n      dup1\n      calldataload\n      swap1\n      0x20\n      add\n      swap1\n      swap3\n      swap2\n      swap1\n      dup1\n      calldataload\n      swap1\n      0x20\n      add\n      swap1\n      swap3\n      swap2\n      swap1\n      pop\n      pop\n      pop\n      tag_106\n      jump\t// in\n    tag_104:\n      mload(0x40)\n      dup1\n      dup3\n      iszero\n      iszero\n      iszero\n      iszero\n      dup2\n      mstore\n      0x20\n      add\n      swap2\n      pop\n      pop\n      mload(0x40)\n      dup1\n      swap2\n      sub\n      swap1\n      return\n        /* \"TimeAlly.sol\":1542:1581  mapping(address => Loan[]) public loans */\n    tag_23:\n      tag_107\n      0x04\n      dup1\n      calldatasize\n      sub\n        /* \"--CODEGEN--\":13:15   */\n      0x40\n        /* \"--CODEGEN--\":8:11   */\n      dup2\n        /* \"--CODEGEN--\":5:16   */\n      lt\n        /* \"--CODEGEN--\":2:4   */\n      iszero\n      tag_108\n      jumpi\n        /* \"--CODEGEN--\":29:30   */\n      0x00\n        /* \"--CODEGEN--\":26:27   */\n      dup1\n        /* \"--CODEGEN--\":19:31   */\n      revert\n        /* \"--CODEGEN--\":2:4   */\n    tag_108:\n        /* \"TimeAlly.sol\":1542:1581  mapping(address => Loan[]) public loans */\n      dup2\n      add\n      swap1\n      dup1\n      dup1\n      calldataload\n      0xffffffffffffffffffffffffffffffffffffffff\n      and\n      swap1\n      0x20\n      add\n      swap1\n      swap3\n      swap2\n      swap1\n      dup1\n      calldataload\n      swap1\n      0x20\n      add\n      swap1\n      swap3\n      swap2\n      swap1\n      pop\n      pop\n      pop\n      tag_109\n      jump\t// in\n    tag_107:\n      mload(0x40)\n      dup1\n      dup6\n      dup2\n      mstore\n      0x20\n      add\n      dup5\n      dup2\n      mstore\n      0x20\n      add\n      dup4\n      dup2\n      mstore\n      0x20\n      add\n      dup3\n      dup2\n      mstore\n      0x20\n      add\n      swap5\n      pop\n      pop\n      pop\n      pop\n      pop\n      mload(0x40)\n      dup1\n      swap2\n      sub\n      swap1\n      return\n        /* \"TimeAlly.sol\":14547:15447  function cancelStaking(uint256 _stakingId) public {... */\n    tag_24:\n      tag_110\n      0x04\n      dup1\n      calldatasize\n      sub\n        /* \"--CODEGEN--\":13:15   */\n      0x20\n        /* \"--CODEGEN--\":8:11   */\n      dup2\n        /* \"--CODEGEN--\":5:16   */\n      lt\n        /* \"--CODEGEN--\":2:4   */\n      iszero\n      tag_111\n      jumpi\n        /* \"--CODEGEN--\":29:30   */\n      0x00\n        /* \"--CODEGEN--\":26:27   */\n      dup1\n        /* \"--CODEGEN--\":19:31   */\n      revert\n        /* \"--CODEGEN--\":2:4   */\n    tag_111:\n        /* \"TimeAlly.sol\":14547:15447  function cancelStaking(uint256 _stakingId) public {... */\n      dup2\n      add\n      swap1\n      dup1\n      dup1\n      calldataload\n      swap1\n      0x20\n      add\n      swap1\n      swap3\n      swap2\n      swap1\n      pop\n      pop\n      pop\n      tag_112\n      jump\t// in\n    tag_110:\n      stop\n        /* \"TimeAlly.sol\":4521:4661  function getNumberOfStakingsByUser(address _userAddress) public view returns (uint256) {... */\n    tag_25:\n      tag_113\n      0x04\n      dup1\n      calldatasize\n      sub\n        /* \"--CODEGEN--\":13:15   */\n      0x20\n        /* \"--CODEGEN--\":8:11   */\n      dup2\n        /* \"--CODEGEN--\":5:16   */\n      lt\n        /* \"--CODEGEN--\":2:4   */\n      iszero\n      tag_114\n      jumpi\n        /* \"--CODEGEN--\":29:30   */\n      0x00\n        /* \"--CODEGEN--\":26:27   */\n      dup1\n        /* \"--CODEGEN--\":19:31   */\n      revert\n        /* \"--CODEGEN--\":2:4   */\n    tag_114:\n        /* \"TimeAlly.sol\":4521:4661  function getNumberOfStakingsByUser(address _userAddress) public view returns (uint256) {... */\n      dup2\n      add\n      swap1\n      dup1\n      dup1\n      calldataload\n      0xffffffffffffffffffffffffffffffffffffffff\n      and\n      swap1\n      0x20\n      add\n      swap1\n      swap3\n      swap2\n      swap1\n      pop\n      pop\n      pop\n      tag_115\n      jump\t// in\n    tag_113:\n      mload(0x40)\n      dup1\n      dup3\n      dup2\n      mstore\n      0x20\n      add\n      swap2\n      pop\n      pop\n      mload(0x40)\n      dup1\n      swap2\n      sub\n      swap1\n      return\n        /* \"TimeAlly.sol\":16840:17835  function seeMaxLoaningAmountOnUserStakings(address _userAddress, uint256[] memory _stakingIds) public view returns (uint256) {... */\n    tag_26:\n      tag_116\n      0x04\n      dup1\n      calldatasize\n      sub\n        /* \"--CODEGEN--\":13:15   */\n      0x40\n        /* \"--CODEGEN--\":8:11   */\n      dup2\n        /* \"--CODEGEN--\":5:16   */\n      lt\n        /* \"--CODEGEN--\":2:4   */\n      iszero\n      tag_117\n      jumpi\n        /* \"--CODEGEN--\":29:30   */\n      0x00\n        /* \"--CODEGEN--\":26:27   */\n      dup1\n        /* \"--CODEGEN--\":19:31   */\n      revert\n        /* \"--CODEGEN--\":2:4   */\n    tag_117:\n        /* \"TimeAlly.sol\":16840:17835  function seeMaxLoaningAmountOnUserStakings(address _userAddress, uint256[] memory _stakingIds) public view returns (uint256) {... */\n      dup2\n      add\n      swap1\n      dup1\n      dup1\n      calldataload\n      0xffffffffffffffffffffffffffffffffffffffff\n      and\n      swap1\n      0x20\n      add\n      swap1\n      swap3\n      swap2\n      swap1\n      dup1\n      calldataload\n      swap1\n      0x20\n      add\n      swap1\n        /* \"--CODEGEN--\":21:32   */\n      0x0100000000\n        /* \"--CODEGEN--\":8:19   */\n      dup2\n        /* \"--CODEGEN--\":5:33   */\n      gt\n        /* \"--CODEGEN--\":2:4   */\n      iszero\n      tag_118\n      jumpi\n        /* \"--CODEGEN--\":46:47   */\n      0x00\n        /* \"--CODEGEN--\":43:44   */\n      dup1\n        /* \"--CODEGEN--\":36:48   */\n      revert\n        /* \"--CODEGEN--\":2:4   */\n    tag_118:\n        /* \"TimeAlly.sol\":16840:17835  function seeMaxLoaningAmountOnUserStakings(address _userAddress, uint256[] memory _stakingIds) public view returns (uint256) {... */\n      dup3\n      add\n        /* \"--CODEGEN--\":35:44   */\n      dup4\n        /* \"--CODEGEN--\":28:32   */\n      0x20\n        /* \"--CODEGEN--\":12:26   */\n      dup3\n        /* \"--CODEGEN--\":8:33   */\n      add\n        /* \"--CODEGEN--\":5:45   */\n      gt\n        /* \"--CODEGEN--\":2:4   */\n      iszero\n      tag_119\n      jumpi\n        /* \"--CODEGEN--\":58:59   */\n      0x00\n        /* \"--CODEGEN--\":55:56   */\n      dup1\n        /* \"--CODEGEN--\":48:60   */\n      revert\n        /* \"--CODEGEN--\":2:4   */\n    tag_119:\n        /* \"TimeAlly.sol\":16840:17835  function seeMaxLoaningAmountOnUserStakings(address _userAddress, uint256[] memory _stakingIds) public view returns (uint256) {... */\n      dup1\n      calldataload\n      swap1\n      0x20\n      add\n      swap2\n        /* \"--CODEGEN--\":101:110   */\n      dup5\n        /* \"--CODEGEN--\":95:97   */\n      0x20\n        /* \"--CODEGEN--\":81:93   */\n      dup4\n        /* \"--CODEGEN--\":77:98   */\n      mul\n        /* \"--CODEGEN--\":67:75   */\n      dup5\n        /* \"--CODEGEN--\":63:99   */\n      add\n        /* \"--CODEGEN--\":60:111   */\n      gt\n        /* \"--CODEGEN--\":39:50   */\n      0x0100000000\n        /* \"--CODEGEN--\":25:37   */\n      dup4\n        /* \"--CODEGEN--\":22:51   */\n      gt\n        /* \"--CODEGEN--\":11:119   */\n      or\n        /* \"--CODEGEN--\":8:10   */\n      iszero\n      tag_120\n      jumpi\n        /* \"--CODEGEN--\":132:133   */\n      0x00\n        /* \"--CODEGEN--\":129:130   */\n      dup1\n        /* \"--CODEGEN--\":122:134   */\n      revert\n        /* \"--CODEGEN--\":8:10   */\n    tag_120:\n        /* \"TimeAlly.sol\":16840:17835  function seeMaxLoaningAmountOnUserStakings(address _userAddress, uint256[] memory _stakingIds) public view returns (uint256) {... */\n      swap2\n      swap1\n      dup1\n      dup1\n      0x20\n      mul\n      0x20\n      add\n      mload(0x40)\n      swap1\n      dup2\n      add\n      0x40\n      mstore\n      dup1\n      swap4\n      swap3\n      swap2\n      swap1\n      dup2\n      dup2\n      mstore\n      0x20\n      add\n      dup4\n      dup4\n      0x20\n      mul\n        /* \"--CODEGEN--\":30:33   */\n      dup1\n        /* \"--CODEGEN--\":22:28   */\n      dup3\n        /* \"--CODEGEN--\":14:20   */\n      dup5\n        /* \"--CODEGEN--\":1:34   */\n      calldatacopy\n        /* \"--CODEGEN--\":99:100   */\n      0x00\n        /* \"--CODEGEN--\":93:96   */\n      dup2\n        /* \"--CODEGEN--\":85:91   */\n      dup5\n        /* \"--CODEGEN--\":81:97   */\n      add\n        /* \"--CODEGEN--\":74:101   */\n      mstore\n        /* \"--CODEGEN--\":137:141   */\n      0x1f\n        /* \"--CODEGEN--\":133:142   */\n      not\n        /* \"--CODEGEN--\":126:130   */\n      0x1f\n        /* \"--CODEGEN--\":121:124   */\n      dup3\n        /* \"--CODEGEN--\":117:131   */\n      add\n        /* \"--CODEGEN--\":113:143   */\n      and\n        /* \"--CODEGEN--\":106:143   */\n      swap1\n      pop\n        /* \"--CODEGEN--\":169:172   */\n      dup1\n        /* \"--CODEGEN--\":161:167   */\n      dup4\n        /* \"--CODEGEN--\":157:173   */\n      add\n        /* \"--CODEGEN--\":147:173   */\n      swap3\n      pop\n        /* \"TimeAlly.sol\":16840:17835  function seeMaxLoaningAmountOnUserStakings(address _userAddress, uint256[] memory _stakingIds) public view returns (uint256) {... */\n      pop\n      pop\n      pop\n      pop\n      pop\n      pop\n      swap2\n      swap3\n      swap2\n      swap3\n      swap1\n      pop\n      pop\n      pop\n      tag_121\n      jump\t// in\n    tag_116:\n      mload(0x40)\n      dup1\n      dup3\n      dup2\n      mstore\n      0x20\n      add\n      swap2\n      pop\n      pop\n      mload(0x40)\n      dup1\n      swap2\n      sub\n      swap1\n      return\n        /* \"TimeAlly.sol\":2929:3148  function createStakingPlan(uint256 _months, uint256 _fractionFrom15) public onlyOwner {... */\n    tag_27:\n      tag_122\n      0x04\n      dup1\n      calldatasize\n      sub\n        /* \"--CODEGEN--\":13:15   */\n      0x40\n        /* \"--CODEGEN--\":8:11   */\n      dup2\n        /* \"--CODEGEN--\":5:16   */\n      lt\n        /* \"--CODEGEN--\":2:4   */\n      iszero\n      tag_123\n      jumpi\n        /* \"--CODEGEN--\":29:30   */\n      0x00\n        /* \"--CODEGEN--\":26:27   */\n      dup1\n        /* \"--CODEGEN--\":19:31   */\n      revert\n        /* \"--CODEGEN--\":2:4   */\n    tag_123:\n        /* \"TimeAlly.sol\":2929:3148  function createStakingPlan(uint256 _months, uint256 _fractionFrom15) public onlyOwner {... */\n      dup2\n      add\n      swap1\n      dup1\n      dup1\n      calldataload\n      swap1\n      0x20\n      add\n      swap1\n      swap3\n      swap2\n      swap1\n      dup1\n      calldataload\n      swap1\n      0x20\n      add\n      swap1\n      swap3\n      swap2\n      swap1\n      pop\n      pop\n      pop\n      tag_124\n      jump\t// in\n    tag_122:\n      stop\n        /* \"TimeAlly.sol\":1427:1454  LoanPlan[] public loanPlans */\n    tag_28:\n      tag_125\n      0x04\n      dup1\n      calldatasize\n      sub\n        /* \"--CODEGEN--\":13:15   */\n      0x20\n        /* \"--CODEGEN--\":8:11   */\n      dup2\n        /* \"--CODEGEN--\":5:16   */\n      lt\n        /* \"--CODEGEN--\":2:4   */\n      iszero\n      tag_126\n      jumpi\n        /* \"--CODEGEN--\":29:30   */\n      0x00\n        /* \"--CODEGEN--\":26:27   */\n      dup1\n        /* \"--CODEGEN--\":19:31   */\n      revert\n        /* \"--CODEGEN--\":2:4   */\n    tag_126:\n        /* \"TimeAlly.sol\":1427:1454  LoanPlan[] public loanPlans */\n      dup2\n      add\n      swap1\n      dup1\n      dup1\n      calldataload\n      swap1\n      0x20\n      add\n      swap1\n      swap3\n      swap2\n      swap1\n      pop\n      pop\n      pop\n      tag_127\n      jump\t// in\n    tag_125:\n      mload(0x40)\n      dup1\n      dup4\n      dup2\n      mstore\n      0x20\n      add\n      dup3\n      dup2\n      mstore\n      0x20\n      add\n      swap3\n      pop\n      pop\n      pop\n      mload(0x40)\n      dup1\n      swap2\n      sub\n      swap1\n      return\n        /* \"TimeAlly.sol\":17841:21168  function takeLoanOnSelfStaking(uint256 _loanPlanId, uint256 _exaEsAmount, uint256[] memory _stakingIds) public {... */\n    tag_29:\n      tag_128\n      0x04\n      dup1\n      calldatasize\n      sub\n        /* \"--CODEGEN--\":13:15   */\n      0x60\n        /* \"--CODEGEN--\":8:11   */\n      dup2\n        /* \"--CODEGEN--\":5:16   */\n      lt\n        /* \"--CODEGEN--\":2:4   */\n      iszero\n      tag_129\n      jumpi\n        /* \"--CODEGEN--\":29:30   */\n      0x00\n        /* \"--CODEGEN--\":26:27   */\n      dup1\n        /* \"--CODEGEN--\":19:31   */\n      revert\n        /* \"--CODEGEN--\":2:4   */\n    tag_129:\n        /* \"TimeAlly.sol\":17841:21168  function takeLoanOnSelfStaking(uint256 _loanPlanId, uint256 _exaEsAmount, uint256[] memory _stakingIds) public {... */\n      dup2\n      add\n      swap1\n      dup1\n      dup1\n      calldataload\n      swap1\n      0x20\n      add\n      swap1\n      swap3\n      swap2\n      swap1\n      dup1\n      calldataload\n      swap1\n      0x20\n      add\n      swap1\n      swap3\n      swap2\n      swap1\n      dup1\n      calldataload\n      swap1\n      0x20\n      add\n      swap1\n        /* \"--CODEGEN--\":21:32   */\n      0x0100000000\n        /* \"--CODEGEN--\":8:19   */\n      dup2\n        /* \"--CODEGEN--\":5:33   */\n      gt\n        /* \"--CODEGEN--\":2:4   */\n      iszero\n      tag_130\n      jumpi\n        /* \"--CODEGEN--\":46:47   */\n      0x00\n        /* \"--CODEGEN--\":43:44   */\n      dup1\n        /* \"--CODEGEN--\":36:48   */\n      revert\n        /* \"--CODEGEN--\":2:4   */\n    tag_130:\n        /* \"TimeAlly.sol\":17841:21168  function takeLoanOnSelfStaking(uint256 _loanPlanId, uint256 _exaEsAmount, uint256[] memory _stakingIds) public {... */\n      dup3\n      add\n        /* \"--CODEGEN--\":35:44   */\n      dup4\n        /* \"--CODEGEN--\":28:32   */\n      0x20\n        /* \"--CODEGEN--\":12:26   */\n      dup3\n        /* \"--CODEGEN--\":8:33   */\n      add\n        /* \"--CODEGEN--\":5:45   */\n      gt\n        /* \"--CODEGEN--\":2:4   */\n      iszero\n      tag_131\n      jumpi\n        /* \"--CODEGEN--\":58:59   */\n      0x00\n        /* \"--CODEGEN--\":55:56   */\n      dup1\n        /* \"--CODEGEN--\":48:60   */\n      revert\n        /* \"--CODEGEN--\":2:4   */\n    tag_131:\n        /* \"TimeAlly.sol\":17841:21168  function takeLoanOnSelfStaking(uint256 _loanPlanId, uint256 _exaEsAmount, uint256[] memory _stakingIds) public {... */\n      dup1\n      calldataload\n      swap1\n      0x20\n      add\n      swap2\n        /* \"--CODEGEN--\":101:110   */\n      dup5\n        /* \"--CODEGEN--\":95:97   */\n      0x20\n        /* \"--CODEGEN--\":81:93   */\n      dup4\n        /* \"--CODEGEN--\":77:98   */\n      mul\n        /* \"--CODEGEN--\":67:75   */\n      dup5\n        /* \"--CODEGEN--\":63:99   */\n      add\n        /* \"--CODEGEN--\":60:111   */\n      gt\n        /* \"--CODEGEN--\":39:50   */\n      0x0100000000\n        /* \"--CODEGEN--\":25:37   */\n      dup4\n        /* \"--CODEGEN--\":22:51   */\n      gt\n        /* \"--CODEGEN--\":11:119   */\n      or\n        /* \"--CODEGEN--\":8:10   */\n      iszero\n      tag_132\n      jumpi\n        /* \"--CODEGEN--\":132:133   */\n      0x00\n        /* \"--CODEGEN--\":129:130   */\n      dup1\n        /* \"--CODEGEN--\":122:134   */\n      revert\n        /* \"--CODEGEN--\":8:10   */\n    tag_132:\n        /* \"TimeAlly.sol\":17841:21168  function takeLoanOnSelfStaking(uint256 _loanPlanId, uint256 _exaEsAmount, uint256[] memory _stakingIds) public {... */\n      swap2\n      swap1\n      dup1\n      dup1\n      0x20\n      mul\n      0x20\n      add\n      mload(0x40)\n      swap1\n      dup2\n      add\n      0x40\n      mstore\n      dup1\n      swap4\n      swap3\n      swap2\n      swap1\n      dup2\n      dup2\n      mstore\n      0x20\n      add\n      dup4\n      dup4\n      0x20\n      mul\n        /* \"--CODEGEN--\":30:33   */\n      dup1\n        /* \"--CODEGEN--\":22:28   */\n      dup3\n        /* \"--CODEGEN--\":14:20   */\n      dup5\n        /* \"--CODEGEN--\":1:34   */\n      calldatacopy\n        /* \"--CODEGEN--\":99:100   */\n      0x00\n        /* \"--CODEGEN--\":93:96   */\n      dup2\n        /* \"--CODEGEN--\":85:91   */\n      dup5\n        /* \"--CODEGEN--\":81:97   */\n      add\n        /* \"--CODEGEN--\":74:101   */\n      mstore\n        /* \"--CODEGEN--\":137:141   */\n      0x1f\n        /* \"--CODEGEN--\":133:142   */\n      not\n        /* \"--CODEGEN--\":126:130   */\n      0x1f\n        /* \"--CODEGEN--\":121:124   */\n      dup3\n        /* \"--CODEGEN--\":117:131   */\n      add\n        /* \"--CODEGEN--\":113:143   */\n      and\n        /* \"--CODEGEN--\":106:143   */\n      swap1\n      pop\n        /* \"--CODEGEN--\":169:172   */\n      dup1\n        /* \"--CODEGEN--\":161:167   */\n      dup4\n        /* \"--CODEGEN--\":157:173   */\n      add\n        /* \"--CODEGEN--\":147:173   */\n      swap3\n      pop\n        /* \"TimeAlly.sol\":17841:21168  function takeLoanOnSelfStaking(uint256 _loanPlanId, uint256 _exaEsAmount, uint256[] memory _stakingIds) public {... */\n      pop\n      pop\n      pop\n      pop\n      pop\n      pop\n      swap2\n      swap3\n      swap2\n      swap3\n      swap1\n      pop\n      pop\n      pop\n      tag_133\n      jump\t// in\n    tag_128:\n      stop\n        /* \"TimeAlly.sol\":5811:6939  function claimLaunchReward(uint256 _stakingPlanId) public {... */\n    tag_30:\n      tag_134\n      0x04\n      dup1\n      calldatasize\n      sub\n        /* \"--CODEGEN--\":13:15   */\n      0x20\n        /* \"--CODEGEN--\":8:11   */\n      dup2\n        /* \"--CODEGEN--\":5:16   */\n      lt\n        /* \"--CODEGEN--\":2:4   */\n      iszero\n      tag_135\n      jumpi\n        /* \"--CODEGEN--\":29:30   */\n      0x00\n        /* \"--CODEGEN--\":26:27   */\n      dup1\n        /* \"--CODEGEN--\":19:31   */\n      revert\n        /* \"--CODEGEN--\":2:4   */\n    tag_135:\n        /* \"TimeAlly.sol\":5811:6939  function claimLaunchReward(uint256 _stakingPlanId) public {... */\n      dup2\n      add\n      swap1\n      dup1\n      dup1\n      calldataload\n      swap1\n      0x20\n      add\n      swap1\n      swap3\n      swap2\n      swap1\n      pop\n      pop\n      pop\n      tag_136\n      jump\t// in\n    tag_134:\n      stop\n        /* \"TimeAlly.sol\":2813:2923  function getCurrentMonth() public view returns (uint256) {... */\n    tag_31:\n      tag_137\n      tag_138\n      jump\t// in\n    tag_137:\n      mload(0x40)\n      dup1\n      dup3\n      dup2\n      mstore\n      0x20\n      add\n      swap2\n      pop\n      pop\n      mload(0x40)\n      dup1\n      swap2\n      sub\n      swap1\n      return\n        /* \"TimeAlly.sol\":21206:22510  function repayLoanSelf(uint256 _loanId) public {... */\n    tag_32:\n      tag_139\n      0x04\n      dup1\n      calldatasize\n      sub\n        /* \"--CODEGEN--\":13:15   */\n      0x20\n        /* \"--CODEGEN--\":8:11   */\n      dup2\n        /* \"--CODEGEN--\":5:16   */\n      lt\n        /* \"--CODEGEN--\":2:4   */\n      iszero\n      tag_140\n      jumpi\n        /* \"--CODEGEN--\":29:30   */\n      0x00\n        /* \"--CODEGEN--\":26:27   */\n      dup1\n        /* \"--CODEGEN--\":19:31   */\n      revert\n        /* \"--CODEGEN--\":2:4   */\n    tag_140:\n        /* \"TimeAlly.sol\":21206:22510  function repayLoanSelf(uint256 _loanId) public {... */\n      dup2\n      add\n      swap1\n      dup1\n      dup1\n      calldataload\n      swap1\n      0x20\n      add\n      swap1\n      swap3\n      swap2\n      swap1\n      pop\n      pop\n      pop\n      tag_141\n      jump\t// in\n    tag_139:\n      stop\n        /* \"TimeAlly.sol\":3414:4515  function newStaking(uint256 _exaEsAmount, uint256 _stakingPlanId) public {... */\n    tag_33:\n      tag_142\n      0x04\n      dup1\n      calldatasize\n      sub\n        /* \"--CODEGEN--\":13:15   */\n      0x40\n        /* \"--CODEGEN--\":8:11   */\n      dup2\n        /* \"--CODEGEN--\":5:16   */\n      lt\n        /* \"--CODEGEN--\":2:4   */\n      iszero\n      tag_143\n      jumpi\n        /* \"--CODEGEN--\":29:30   */\n      0x00\n        /* \"--CODEGEN--\":26:27   */\n      dup1\n        /* \"--CODEGEN--\":19:31   */\n      revert\n        /* \"--CODEGEN--\":2:4   */\n    tag_143:\n        /* \"TimeAlly.sol\":3414:4515  function newStaking(uint256 _exaEsAmount, uint256 _stakingPlanId) public {... */\n      dup2\n      add\n      swap1\n      dup1\n      dup1\n      calldataload\n      swap1\n      0x20\n      add\n      swap1\n      swap3\n      swap2\n      swap1\n      dup1\n      calldataload\n      swap1\n      0x20\n      add\n      swap1\n      swap3\n      swap2\n      swap1\n      pop\n      pop\n      pop\n      tag_144\n      jump\t// in\n    tag_142:\n      stop\n        /* \"TimeAlly.sol\":1115:1147  uint256 public deployedTimestamp */\n    tag_34:\n      tag_145\n      tag_146\n      jump\t// in\n    tag_145:\n      mload(0x40)\n      dup1\n      dup3\n      dup2\n      mstore\n      0x20\n      add\n      swap2\n      pop\n      pop\n      mload(0x40)\n      dup1\n      swap2\n      sub\n      swap1\n      return\n        /* \"TimeAlly.sol\":2686:2807  function increaseMonth(uint256 _timeAllyNRT) public onlyNRTManager {... */\n    tag_35:\n      tag_147\n      0x04\n      dup1\n      calldatasize\n      sub\n        /* \"--CODEGEN--\":13:15   */\n      0x20\n        /* \"--CODEGEN--\":8:11   */\n      dup2\n        /* \"--CODEGEN--\":5:16   */\n      lt\n        /* \"--CODEGEN--\":2:4   */\n      iszero\n      tag_148\n      jumpi\n        /* \"--CODEGEN--\":29:30   */\n      0x00\n        /* \"--CODEGEN--\":26:27   */\n      dup1\n        /* \"--CODEGEN--\":19:31   */\n      revert\n        /* \"--CODEGEN--\":2:4   */\n    tag_148:\n        /* \"TimeAlly.sol\":2686:2807  function increaseMonth(uint256 _timeAllyNRT) public onlyNRTManager {... */\n      dup2\n      add\n      swap1\n      dup1\n      dup1\n      calldataload\n      swap1\n      0x20\n      add\n      swap1\n      swap3\n      swap2\n      swap1\n      pop\n      pop\n      pop\n      tag_149\n      jump\t// in\n    tag_147:\n      stop\n        /* \"TimeAlly.sol\":13846:14541  function withdrawExpiredStakings(uint256[] memory _stakings) public {... */\n    tag_36:\n      tag_150\n      0x04\n      dup1\n      calldatasize\n      sub\n        /* \"--CODEGEN--\":13:15   */\n      0x20\n        /* \"--CODEGEN--\":8:11   */\n      dup2\n        /* \"--CODEGEN--\":5:16   */\n      lt\n        /* \"--CODEGEN--\":2:4   */\n      iszero\n      tag_151\n      jumpi\n        /* \"--CODEGEN--\":29:30   */\n      0x00\n        /* \"--CODEGEN--\":26:27   */\n      dup1\n        /* \"--CODEGEN--\":19:31   */\n      revert\n        /* \"--CODEGEN--\":2:4   */\n    tag_151:\n        /* \"TimeAlly.sol\":13846:14541  function withdrawExpiredStakings(uint256[] memory _stakings) public {... */\n      dup2\n      add\n      swap1\n      dup1\n      dup1\n      calldataload\n      swap1\n      0x20\n      add\n      swap1\n        /* \"--CODEGEN--\":21:32   */\n      0x0100000000\n        /* \"--CODEGEN--\":8:19   */\n      dup2\n        /* \"--CODEGEN--\":5:33   */\n      gt\n        /* \"--CODEGEN--\":2:4   */\n      iszero\n      tag_152\n      jumpi\n        /* \"--CODEGEN--\":46:47   */\n      0x00\n        /* \"--CODEGEN--\":43:44   */\n      dup1\n        /* \"--CODEGEN--\":36:48   */\n      revert\n        /* \"--CODEGEN--\":2:4   */\n    tag_152:\n        /* \"TimeAlly.sol\":13846:14541  function withdrawExpiredStakings(uint256[] memory _stakings) public {... */\n      dup3\n      add\n        /* \"--CODEGEN--\":35:44   */\n      dup4\n        /* \"--CODEGEN--\":28:32   */\n      0x20\n        /* \"--CODEGEN--\":12:26   */\n      dup3\n        /* \"--CODEGEN--\":8:33   */\n      add\n        /* \"--CODEGEN--\":5:45   */\n      gt\n        /* \"--CODEGEN--\":2:4   */\n      iszero\n      tag_153\n      jumpi\n        /* \"--CODEGEN--\":58:59   */\n      0x00\n        /* \"--CODEGEN--\":55:56   */\n      dup1\n        /* \"--CODEGEN--\":48:60   */\n      revert\n        /* \"--CODEGEN--\":2:4   */\n    tag_153:\n        /* \"TimeAlly.sol\":13846:14541  function withdrawExpiredStakings(uint256[] memory _stakings) public {... */\n      dup1\n      calldataload\n      swap1\n      0x20\n      add\n      swap2\n        /* \"--CODEGEN--\":101:110   */\n      dup5\n        /* \"--CODEGEN--\":95:97   */\n      0x20\n        /* \"--CODEGEN--\":81:93   */\n      dup4\n        /* \"--CODEGEN--\":77:98   */\n      mul\n        /* \"--CODEGEN--\":67:75   */\n      dup5\n        /* \"--CODEGEN--\":63:99   */\n      add\n        /* \"--CODEGEN--\":60:111   */\n      gt\n        /* \"--CODEGEN--\":39:50   */\n      0x0100000000\n        /* \"--CODEGEN--\":25:37   */\n      dup4\n        /* \"--CODEGEN--\":22:51   */\n      gt\n        /* \"--CODEGEN--\":11:119   */\n      or\n        /* \"--CODEGEN--\":8:10   */\n      iszero\n      tag_154\n      jumpi\n        /* \"--CODEGEN--\":132:133   */\n      0x00\n        /* \"--CODEGEN--\":129:130   */\n      dup1\n        /* \"--CODEGEN--\":122:134   */\n      revert\n        /* \"--CODEGEN--\":8:10   */\n    tag_154:\n        /* \"TimeAlly.sol\":13846:14541  function withdrawExpiredStakings(uint256[] memory _stakings) public {... */\n      swap2\n      swap1\n      dup1\n      dup1\n      0x20\n      mul\n      0x20\n      add\n      mload(0x40)\n      swap1\n      dup2\n      add\n      0x40\n      mstore\n      dup1\n      swap4\n      swap3\n      swap2\n      swap1\n      dup2\n      dup2\n      mstore\n      0x20\n      add\n      dup4\n      dup4\n      0x20\n      mul\n        /* \"--CODEGEN--\":30:33   */\n      dup1\n        /* \"--CODEGEN--\":22:28   */\n      dup3\n        /* \"--CODEGEN--\":14:20   */\n      dup5\n        /* \"--CODEGEN--\":1:34   */\n      calldatacopy\n        /* \"--CODEGEN--\":99:100   */\n      0x00\n        /* \"--CODEGEN--\":93:96   */\n      dup2\n        /* \"--CODEGEN--\":85:91   */\n      dup5\n        /* \"--CODEGEN--\":81:97   */\n      add\n        /* \"--CODEGEN--\":74:101   */\n      mstore\n        /* \"--CODEGEN--\":137:141   */\n      0x1f\n        /* \"--CODEGEN--\":133:142   */\n      not\n        /* \"--CODEGEN--\":126:130   */\n      0x1f\n        /* \"--CODEGEN--\":121:124   */\n      dup3\n        /* \"--CODEGEN--\":117:131   */\n      add\n        /* \"--CODEGEN--\":113:143   */\n      and\n        /* \"--CODEGEN--\":106:143   */\n      swap1\n      pop\n        /* \"--CODEGEN--\":169:172   */\n      dup1\n        /* \"--CODEGEN--\":161:167   */\n      dup4\n        /* \"--CODEGEN--\":157:173   */\n      add\n        /* \"--CODEGEN--\":147:173   */\n      swap3\n      pop\n        /* \"TimeAlly.sol\":13846:14541  function withdrawExpiredStakings(uint256[] memory _stakings) public {... */\n      pop\n      pop\n      pop\n      pop\n      pop\n      pop\n      swap2\n      swap3\n      swap2\n      swap3\n      swap1\n      pop\n      pop\n      pop\n      tag_155\n      jump\t// in\n    tag_150:\n      stop\n        /* \"TimeAlly.sol\":7739:8803  function userActiveStakingByMonth(address _userAddress, uint256 _atMonth) public view returns (uint256) {... */\n    tag_37:\n      tag_156\n      0x04\n      dup1\n      calldatasize\n      sub\n        /* \"--CODEGEN--\":13:15   */\n      0x40\n        /* \"--CODEGEN--\":8:11   */\n      dup2\n        /* \"--CODEGEN--\":5:16   */\n      lt\n        /* \"--CODEGEN--\":2:4   */\n      iszero\n      tag_157\n      jumpi\n        /* \"--CODEGEN--\":29:30   */\n      0x00\n        /* \"--CODEGEN--\":26:27   */\n      dup1\n        /* \"--CODEGEN--\":19:31   */\n      revert\n        /* \"--CODEGEN--\":2:4   */\n    tag_157:\n        /* \"TimeAlly.sol\":7739:8803  function userActiveStakingByMonth(address _userAddress, uint256 _atMonth) public view returns (uint256) {... */\n      dup2\n      add\n      swap1\n      dup1\n      dup1\n      calldataload\n      0xffffffffffffffffffffffffffffffffffffffff\n      and\n      swap1\n      0x20\n      add\n      swap1\n      swap3\n      swap2\n      swap1\n      dup1\n      calldataload\n      swap1\n      0x20\n      add\n      swap1\n      swap3\n      swap2\n      swap1\n      pop\n      pop\n      pop\n      tag_158\n      jump\t// in\n    tag_156:\n      mload(0x40)\n      dup1\n      dup3\n      dup2\n      mstore\n      0x20\n      add\n      swap2\n      pop\n      pop\n      mload(0x40)\n      dup1\n      swap2\n      sub\n      swap1\n      return\n        /* \"TimeAlly.sol\":1054:1074  Eraswap public token */\n    tag_38:\n      tag_159\n      tag_160\n      jump\t// in\n    tag_159:\n      mload(0x40)\n      dup1\n      dup3\n      0xffffffffffffffffffffffffffffffffffffffff\n      and\n      0xffffffffffffffffffffffffffffffffffffffff\n      and\n      dup2\n      mstore\n      0x20\n      add\n      swap2\n      pop\n      pop\n      mload(0x40)\n      dup1\n      swap2\n      sub\n      swap1\n      return\n        /* \"TimeAlly.sol\":1714:1747  uint256 public launchRewardBucket */\n    tag_47:\n      sload(0x0b)\n      dup2\n      jump\t// out\n        /* \"TimeAlly.sol\":1080:1108  NRTManager public nrtManager */\n    tag_49:\n      0x02\n      0x00\n      swap1\n      sload\n      swap1\n      0x0100\n      exp\n      swap1\n      div\n      0xffffffffffffffffffffffffffffffffffffffff\n      and\n      dup2\n      jump\t// out\n        /* \"TimeAlly.sol\":1491:1536  mapping(address => Staking[]) public stakings */\n    tag_52:\n      mstore(0x20, 0x08)\n      dup2\n      0x00\n      mstore\n      keccak256(0x00, 0x40)\n      dup2\n      dup2\n      sload\n      dup2\n      lt\n      tag_161\n      jumpi\n      invalid\n    tag_161:\n      swap1\n      0x00\n      mstore\n      keccak256(0x00, 0x20)\n      swap1\n      0x09\n      mul\n      add\n      0x00\n      swap2\n      pop\n      swap2\n      pop\n      pop\n      dup1\n      0x00\n      add\n      sload\n      swap1\n      dup1\n      0x01\n      add\n      sload\n      swap1\n      dup1\n      0x02\n      add\n      sload\n      swap1\n      dup1\n      0x03\n      add\n      sload\n      swap1\n      dup1\n      0x04\n      add\n      sload\n      swap1\n      dup1\n      0x05\n      add\n      sload\n      swap1\n      dup1\n      0x07\n      add\n      sload\n      swap1\n      dup1\n      0x08\n      add\n      sload\n      swap1\n      pop\n      dup9\n      jump\t// out\n        /* \"TimeAlly.sol\":15453:16712  function withdrawCancelStaking(uint256 _stakingId) public {... */\n    tag_55:\n        /* \"TimeAlly.sol\":15664:15665  4 */\n      0x04\n        /* \"TimeAlly.sol\":15621:15629  stakings */\n      0x08\n        /* \"TimeAlly.sol\":15621:15641  stakings[msg.sender] */\n      0x00\n        /* \"TimeAlly.sol\":15630:15640  msg.sender */\n      caller\n        /* \"TimeAlly.sol\":15621:15641  stakings[msg.sender] */\n      0xffffffffffffffffffffffffffffffffffffffff\n      and\n      0xffffffffffffffffffffffffffffffffffffffff\n      and\n      dup2\n      mstore\n      0x20\n      add\n      swap1\n      dup2\n      mstore\n      0x20\n      add\n      0x00\n      keccak256\n        /* \"TimeAlly.sol\":15642:15652  _stakingId */\n      dup3\n        /* \"TimeAlly.sol\":15621:15653  stakings[msg.sender][_stakingId] */\n      dup2\n      sload\n      dup2\n      lt\n      tag_164\n      jumpi\n      invalid\n    tag_164:\n      swap1\n      0x00\n      mstore\n      keccak256(0x00, 0x20)\n      swap1\n      0x09\n      mul\n      add\n        /* \"TimeAlly.sol\":15621:15660  stakings[msg.sender][_stakingId].status */\n      0x03\n      add\n      sload\n        /* \"TimeAlly.sol\":15621:15665  stakings[msg.sender][_stakingId].status == 4 */\n      eq\n        /* \"TimeAlly.sol\":15613:15695  require(stakings[msg.sender][_stakingId].status == 4, 'staking must be cancelled') */\n      tag_166\n      jumpi\n      mload(0x40)\n      0x08c379a000000000000000000000000000000000000000000000000000000000\n      dup2\n      mstore\n      0x04\n      add\n      dup1\n      dup1\n      0x20\n      add\n      dup3\n      dup2\n      sub\n      dup3\n      mstore\n      0x19\n      dup2\n      mstore\n      0x20\n      add\n      dup1\n      0x7374616b696e67206d7573742062652063616e63656c6c656400000000000000\n      dup2\n      mstore\n      pop\n      0x20\n      add\n      swap2\n      pop\n      pop\n      mload(0x40)\n      dup1\n      swap2\n      sub\n      swap1\n      revert\n    tag_166:\n        /* \"TimeAlly.sol\":15770:15771  0 */\n      0x00\n        /* \"TimeAlly.sol\":15713:15721  stakings */\n      0x08\n        /* \"TimeAlly.sol\":15713:15733  stakings[msg.sender] */\n      0x00\n        /* \"TimeAlly.sol\":15722:15732  msg.sender */\n      caller\n        /* \"TimeAlly.sol\":15713:15733  stakings[msg.sender] */\n      0xffffffffffffffffffffffffffffffffffffffff\n      and\n      0xffffffffffffffffffffffffffffffffffffffff\n      and\n      dup2\n      mstore\n      0x20\n      add\n      swap1\n      dup2\n      mstore\n      0x20\n      add\n      0x00\n      keccak256\n        /* \"TimeAlly.sol\":15734:15744  _stakingId */\n      dup3\n        /* \"TimeAlly.sol\":15713:15745  stakings[msg.sender][_stakingId] */\n      dup2\n      sload\n      dup2\n      lt\n      tag_167\n      jumpi\n      invalid\n    tag_167:\n      swap1\n      0x00\n      mstore\n      keccak256(0x00, 0x20)\n      swap1\n      0x09\n      mul\n      add\n        /* \"TimeAlly.sol\":15713:15767  stakings[msg.sender][_stakingId].refundMonthsRemaining */\n      0x08\n      add\n      sload\n        /* \"TimeAlly.sol\":15713:15771  stakings[msg.sender][_stakingId].refundMonthsRemaining > 0 */\n      gt\n        /* \"TimeAlly.sol\":15705:15799  require(stakings[msg.sender][_stakingId].refundMonthsRemaining > 0, 'all refunds are claimed') */\n      tag_169\n      jumpi\n      mload(0x40)\n      0x08c379a000000000000000000000000000000000000000000000000000000000\n      dup2\n      mstore\n      0x04\n      add\n      dup1\n      dup1\n      0x20\n      add\n      dup3\n      dup2\n      sub\n      dup3\n      mstore\n      0x17\n      dup2\n      mstore\n      0x20\n      add\n      dup1\n      0x616c6c20726566756e64732061726520636c61696d6564000000000000000000\n      dup2\n      mstore\n      pop\n      0x20\n      add\n      swap2\n      pop\n      pop\n      mload(0x40)\n      dup1\n      swap2\n      sub\n      swap1\n      revert\n    tag_169:\n        /* \"TimeAlly.sol\":15810:15831  uint256 _currentMonth */\n      0x00\n        /* \"TimeAlly.sol\":15834:15851  getCurrentMonth() */\n      tag_170\n        /* \"TimeAlly.sol\":15834:15849  getCurrentMonth */\n      tag_138\n        /* \"TimeAlly.sol\":15834:15851  getCurrentMonth() */\n      jump\t// in\n    tag_170:\n        /* \"TimeAlly.sol\":15810:15851  uint256 _currentMonth = getCurrentMonth() */\n      swap1\n      pop\n        /* \"TimeAlly.sol\":15985:16008  uint256 _withdrawMonths */\n      0x00\n        /* \"TimeAlly.sol\":16011:16085  _currentMonth.sub(stakings[msg.sender][_stakingId].refundMonthClaimedLast) */\n      tag_171\n        /* \"TimeAlly.sol\":16029:16037  stakings */\n      0x08\n        /* \"TimeAlly.sol\":16029:16049  stakings[msg.sender] */\n      0x00\n        /* \"TimeAlly.sol\":16038:16048  msg.sender */\n      caller\n        /* \"TimeAlly.sol\":16029:16049  stakings[msg.sender] */\n      0xffffffffffffffffffffffffffffffffffffffff\n      and\n      0xffffffffffffffffffffffffffffffffffffffff\n      and\n      dup2\n      mstore\n      0x20\n      add\n      swap1\n      dup2\n      mstore\n      0x20\n      add\n      0x00\n      keccak256\n        /* \"TimeAlly.sol\":16050:16060  _stakingId */\n      dup5\n        /* \"TimeAlly.sol\":16029:16061  stakings[msg.sender][_stakingId] */\n      dup2\n      sload\n      dup2\n      lt\n      tag_172\n      jumpi\n      invalid\n    tag_172:\n      swap1\n      0x00\n      mstore\n      keccak256(0x00, 0x20)\n      swap1\n      0x09\n      mul\n      add\n        /* \"TimeAlly.sol\":16029:16084  stakings[msg.sender][_stakingId].refundMonthClaimedLast */\n      0x07\n      add\n      sload\n        /* \"TimeAlly.sol\":16011:16024  _currentMonth */\n      dup4\n        /* \"TimeAlly.sol\":16011:16028  _currentMonth.sub */\n      tag_174\n      swap1\n        /* \"TimeAlly.sol\":16011:16085  _currentMonth.sub(stakings[msg.sender][_stakingId].refundMonthClaimedLast) */\n      swap2\n      swap1\n      0xffffffff\n      and\n      jump\t// in\n    tag_171:\n        /* \"TimeAlly.sol\":15985:16085  uint256 _withdrawMonths = _currentMonth.sub(stakings[msg.sender][_stakingId].refundMonthClaimedLast) */\n      swap1\n      pop\n        /* \"TimeAlly.sol\":16117:16125  stakings */\n      0x08\n        /* \"TimeAlly.sol\":16117:16137  stakings[msg.sender] */\n      0x00\n        /* \"TimeAlly.sol\":16126:16136  msg.sender */\n      caller\n        /* \"TimeAlly.sol\":16117:16137  stakings[msg.sender] */\n      0xffffffffffffffffffffffffffffffffffffffff\n      and\n      0xffffffffffffffffffffffffffffffffffffffff\n      and\n      dup2\n      mstore\n      0x20\n      add\n      swap1\n      dup2\n      mstore\n      0x20\n      add\n      0x00\n      keccak256\n        /* \"TimeAlly.sol\":16138:16148  _stakingId */\n      dup4\n        /* \"TimeAlly.sol\":16117:16149  stakings[msg.sender][_stakingId] */\n      dup2\n      sload\n      dup2\n      lt\n      tag_175\n      jumpi\n      invalid\n    tag_175:\n      swap1\n      0x00\n      mstore\n      keccak256(0x00, 0x20)\n      swap1\n      0x09\n      mul\n      add\n        /* \"TimeAlly.sol\":16117:16171  stakings[msg.sender][_stakingId].refundMonthsRemaining */\n      0x08\n      add\n      sload\n        /* \"TimeAlly.sol\":16099:16114  _withdrawMonths */\n      dup2\n        /* \"TimeAlly.sol\":16099:16171  _withdrawMonths > stakings[msg.sender][_stakingId].refundMonthsRemaining */\n      gt\n        /* \"TimeAlly.sol\":16096:16270  if(_withdrawMonths > stakings[msg.sender][_stakingId].refundMonthsRemaining) {... */\n      iszero\n      tag_177\n      jumpi\n        /* \"TimeAlly.sol\":16205:16213  stakings */\n      0x08\n        /* \"TimeAlly.sol\":16205:16225  stakings[msg.sender] */\n      0x00\n        /* \"TimeAlly.sol\":16214:16224  msg.sender */\n      caller\n        /* \"TimeAlly.sol\":16205:16225  stakings[msg.sender] */\n      0xffffffffffffffffffffffffffffffffffffffff\n      and\n      0xffffffffffffffffffffffffffffffffffffffff\n      and\n      dup2\n      mstore\n      0x20\n      add\n      swap1\n      dup2\n      mstore\n      0x20\n      add\n      0x00\n      keccak256\n        /* \"TimeAlly.sol\":16226:16236  _stakingId */\n      dup4\n        /* \"TimeAlly.sol\":16205:16237  stakings[msg.sender][_stakingId] */\n      dup2\n      sload\n      dup2\n      lt\n      tag_178\n      jumpi\n      invalid\n    tag_178:\n      swap1\n      0x00\n      mstore\n      keccak256(0x00, 0x20)\n      swap1\n      0x09\n      mul\n      add\n        /* \"TimeAlly.sol\":16205:16259  stakings[msg.sender][_stakingId].refundMonthsRemaining */\n      0x08\n      add\n      sload\n        /* \"TimeAlly.sol\":16187:16259  _withdrawMonths = stakings[msg.sender][_stakingId].refundMonthsRemaining */\n      swap1\n      pop\n        /* \"TimeAlly.sol\":16096:16270  if(_withdrawMonths > stakings[msg.sender][_stakingId].refundMonthsRemaining) {... */\n    tag_177:\n        /* \"TimeAlly.sol\":16280:16305  uint256 _amountToTransfer */\n      0x00\n        /* \"TimeAlly.sol\":16308:16420  stakings[msg.sender][_stakingId].exaEsAmount... */\n      tag_180\n        /* \"TimeAlly.sol\":16417:16419  24 */\n      0x18\n        /* \"TimeAlly.sol\":16308:16412  stakings[msg.sender][_stakingId].exaEsAmount... */\n      tag_181\n        /* \"TimeAlly.sol\":16396:16411  _withdrawMonths */\n      dup5\n        /* \"TimeAlly.sol\":16308:16316  stakings */\n      0x08\n        /* \"TimeAlly.sol\":16308:16328  stakings[msg.sender] */\n      0x00\n        /* \"TimeAlly.sol\":16317:16327  msg.sender */\n      caller\n        /* \"TimeAlly.sol\":16308:16328  stakings[msg.sender] */\n      0xffffffffffffffffffffffffffffffffffffffff\n      and\n      0xffffffffffffffffffffffffffffffffffffffff\n      and\n      dup2\n      mstore\n      0x20\n      add\n      swap1\n      dup2\n      mstore\n      0x20\n      add\n      0x00\n      keccak256\n        /* \"TimeAlly.sol\":16329:16339  _stakingId */\n      dup9\n        /* \"TimeAlly.sol\":16308:16340  stakings[msg.sender][_stakingId] */\n      dup2\n      sload\n      dup2\n      lt\n      tag_182\n      jumpi\n      invalid\n    tag_182:\n      swap1\n      0x00\n      mstore\n      keccak256(0x00, 0x20)\n      swap1\n      0x09\n      mul\n      add\n        /* \"TimeAlly.sol\":16308:16352  stakings[msg.sender][_stakingId].exaEsAmount */\n      0x00\n      add\n      sload\n        /* \"TimeAlly.sol\":16308:16395  stakings[msg.sender][_stakingId].exaEsAmount... */\n      tag_184\n      swap1\n        /* \"TimeAlly.sol\":16308:16412  stakings[msg.sender][_stakingId].exaEsAmount... */\n      swap2\n      swap1\n      0xffffffff\n      and\n      jump\t// in\n    tag_181:\n        /* \"TimeAlly.sol\":16308:16416  stakings[msg.sender][_stakingId].exaEsAmount... */\n      tag_185\n      swap1\n        /* \"TimeAlly.sol\":16308:16420  stakings[msg.sender][_stakingId].exaEsAmount... */\n      swap2\n      swap1\n      0xffffffff\n      and\n      jump\t// in\n    tag_180:\n        /* \"TimeAlly.sol\":16280:16420  uint256 _amountToTransfer = stakings[msg.sender][_stakingId].exaEsAmount... */\n      swap1\n      pop\n        /* \"TimeAlly.sol\":16489:16506  getCurrentMonth() */\n      tag_186\n        /* \"TimeAlly.sol\":16489:16504  getCurrentMonth */\n      tag_138\n        /* \"TimeAlly.sol\":16489:16506  getCurrentMonth() */\n      jump\t// in\n    tag_186:\n        /* \"TimeAlly.sol\":16431:16439  stakings */\n      0x08\n        /* \"TimeAlly.sol\":16431:16451  stakings[msg.sender] */\n      0x00\n        /* \"TimeAlly.sol\":16440:16450  msg.sender */\n      caller\n        /* \"TimeAlly.sol\":16431:16451  stakings[msg.sender] */\n      0xffffffffffffffffffffffffffffffffffffffff\n      and\n      0xffffffffffffffffffffffffffffffffffffffff\n      and\n      dup2\n      mstore\n      0x20\n      add\n      swap1\n      dup2\n      mstore\n      0x20\n      add\n      0x00\n      keccak256\n        /* \"TimeAlly.sol\":16452:16462  _stakingId */\n      dup6\n        /* \"TimeAlly.sol\":16431:16463  stakings[msg.sender][_stakingId] */\n      dup2\n      sload\n      dup2\n      lt\n      tag_187\n      jumpi\n      invalid\n    tag_187:\n      swap1\n      0x00\n      mstore\n      keccak256(0x00, 0x20)\n      swap1\n      0x09\n      mul\n      add\n        /* \"TimeAlly.sol\":16431:16486  stakings[msg.sender][_stakingId].refundMonthClaimedLast */\n      0x07\n      add\n        /* \"TimeAlly.sol\":16431:16506  stakings[msg.sender][_stakingId].refundMonthClaimedLast = getCurrentMonth() */\n      dup2\n      swap1\n      sstore\n      pop\n        /* \"TimeAlly.sol\":16573:16648  stakings[msg.sender][_stakingId].refundMonthsRemaining.sub(_withdrawMonths) */\n      tag_189\n        /* \"TimeAlly.sol\":16632:16647  _withdrawMonths */\n      dup3\n        /* \"TimeAlly.sol\":16573:16581  stakings */\n      0x08\n        /* \"TimeAlly.sol\":16573:16593  stakings[msg.sender] */\n      0x00\n        /* \"TimeAlly.sol\":16582:16592  msg.sender */\n      caller\n        /* \"TimeAlly.sol\":16573:16593  stakings[msg.sender] */\n      0xffffffffffffffffffffffffffffffffffffffff\n      and\n      0xffffffffffffffffffffffffffffffffffffffff\n      and\n      dup2\n      mstore\n      0x20\n      add\n      swap1\n      dup2\n      mstore\n      0x20\n      add\n      0x00\n      keccak256\n        /* \"TimeAlly.sol\":16594:16604  _stakingId */\n      dup7\n        /* \"TimeAlly.sol\":16573:16605  stakings[msg.sender][_stakingId] */\n      dup2\n      sload\n      dup2\n      lt\n      tag_190\n      jumpi\n      invalid\n    tag_190:\n      swap1\n      0x00\n      mstore\n      keccak256(0x00, 0x20)\n      swap1\n      0x09\n      mul\n      add\n        /* \"TimeAlly.sol\":16573:16627  stakings[msg.sender][_stakingId].refundMonthsRemaining */\n      0x08\n      add\n      sload\n        /* \"TimeAlly.sol\":16573:16631  stakings[msg.sender][_stakingId].refundMonthsRemaining.sub */\n      tag_174\n      swap1\n        /* \"TimeAlly.sol\":16573:16648  stakings[msg.sender][_stakingId].refundMonthsRemaining.sub(_withdrawMonths) */\n      swap2\n      swap1\n      0xffffffff\n      and\n      jump\t// in\n    tag_189:\n        /* \"TimeAlly.sol\":16516:16524  stakings */\n      0x08\n        /* \"TimeAlly.sol\":16516:16536  stakings[msg.sender] */\n      0x00\n        /* \"TimeAlly.sol\":16525:16535  msg.sender */\n      caller\n        /* \"TimeAlly.sol\":16516:16536  stakings[msg.sender] */\n      0xffffffffffffffffffffffffffffffffffffffff\n      and\n      0xffffffffffffffffffffffffffffffffffffffff\n      and\n      dup2\n      mstore\n      0x20\n      add\n      swap1\n      dup2\n      mstore\n      0x20\n      add\n      0x00\n      keccak256\n        /* \"TimeAlly.sol\":16537:16547  _stakingId */\n      dup6\n        /* \"TimeAlly.sol\":16516:16548  stakings[msg.sender][_stakingId] */\n      dup2\n      sload\n      dup2\n      lt\n      tag_192\n      jumpi\n      invalid\n    tag_192:\n      swap1\n      0x00\n      mstore\n      keccak256(0x00, 0x20)\n      swap1\n      0x09\n      mul\n      add\n        /* \"TimeAlly.sol\":16516:16570  stakings[msg.sender][_stakingId].refundMonthsRemaining */\n      0x08\n      add\n        /* \"TimeAlly.sol\":16516:16648  stakings[msg.sender][_stakingId].refundMonthsRemaining = stakings[msg.sender][_stakingId].refundMonthsRemaining.sub(_withdrawMonths) */\n      dup2\n      swap1\n      sstore\n      pop\n        /* \"TimeAlly.sol\":16659:16664  token */\n      0x01\n      0x00\n      swap1\n      sload\n      swap1\n      0x0100\n      exp\n      swap1\n      div\n      0xffffffffffffffffffffffffffffffffffffffff\n      and\n        /* \"TimeAlly.sol\":16659:16673  token.transfer */\n      0xffffffffffffffffffffffffffffffffffffffff\n      and\n      0xa9059cbb\n        /* \"TimeAlly.sol\":16674:16684  msg.sender */\n      caller\n        /* \"TimeAlly.sol\":16686:16703  _amountToTransfer */\n      dup4\n        /* \"TimeAlly.sol\":16659:16704  token.transfer(msg.sender, _amountToTransfer) */\n      mload(0x40)\n      dup4\n      0xffffffff\n      and\n      0xe0\n      shl\n      dup2\n      mstore\n      0x04\n      add\n      dup1\n      dup4\n      0xffffffffffffffffffffffffffffffffffffffff\n      and\n      0xffffffffffffffffffffffffffffffffffffffff\n      and\n      dup2\n      mstore\n      0x20\n      add\n      dup3\n      dup2\n      mstore\n      0x20\n      add\n      swap3\n      pop\n      pop\n      pop\n      0x20\n      mload(0x40)\n      dup1\n      dup4\n      sub\n      dup2\n      0x00\n      dup8\n      dup1\n      extcodesize\n      iszero\n        /* \"--CODEGEN--\":8:17   */\n      dup1\n        /* \"--CODEGEN--\":5:7   */\n      iszero\n      tag_194\n      jumpi\n        /* \"--CODEGEN--\":30:31   */\n      0x00\n        /* \"--CODEGEN--\":27:28   */\n      dup1\n        /* \"--CODEGEN--\":20:32   */\n      revert\n        /* \"--CODEGEN--\":5:7   */\n    tag_194:\n        /* \"TimeAlly.sol\":16659:16704  token.transfer(msg.sender, _amountToTransfer) */\n      pop\n      gas\n      call\n      iszero\n        /* \"--CODEGEN--\":8:17   */\n      dup1\n        /* \"--CODEGEN--\":5:7   */\n      iszero\n      tag_195\n      jumpi\n        /* \"--CODEGEN--\":45:61   */\n      returndatasize\n        /* \"--CODEGEN--\":42:43   */\n      0x00\n        /* \"--CODEGEN--\":39:40   */\n      dup1\n        /* \"--CODEGEN--\":24:62   */\n      returndatacopy\n        /* \"--CODEGEN--\":77:93   */\n      returndatasize\n        /* \"--CODEGEN--\":74:75   */\n      0x00\n        /* \"--CODEGEN--\":67:94   */\n      revert\n        /* \"--CODEGEN--\":5:7   */\n    tag_195:\n        /* \"TimeAlly.sol\":16659:16704  token.transfer(msg.sender, _amountToTransfer) */\n      pop\n      pop\n      pop\n      pop\n      mload(0x40)\n      returndatasize\n        /* \"--CODEGEN--\":13:15   */\n      0x20\n        /* \"--CODEGEN--\":8:11   */\n      dup2\n        /* \"--CODEGEN--\":5:16   */\n      lt\n        /* \"--CODEGEN--\":2:4   */\n      iszero\n      tag_196\n      jumpi\n        /* \"--CODEGEN--\":29:30   */\n      0x00\n        /* \"--CODEGEN--\":26:27   */\n      dup1\n        /* \"--CODEGEN--\":19:31   */\n      revert\n        /* \"--CODEGEN--\":2:4   */\n    tag_196:\n        /* \"TimeAlly.sol\":16659:16704  token.transfer(msg.sender, _amountToTransfer) */\n      dup2\n      add\n      swap1\n      dup1\n      dup1\n      mload\n      swap1\n      0x20\n      add\n      swap1\n      swap3\n      swap2\n      swap1\n      pop\n      pop\n      pop\n      pop\n        /* \"TimeAlly.sol\":15453:16712  function withdrawCancelStaking(uint256 _stakingId) public {... */\n      pop\n      pop\n      pop\n      pop\n      jump\t// out\n        /* \"TimeAlly.sol\":1239:1274  uint256[] public timeAllyMonthlyNRT */\n    tag_58:\n      0x05\n      dup2\n      dup2\n      sload\n      dup2\n      lt\n      tag_197\n      jumpi\n      invalid\n    tag_197:\n      swap1\n      0x00\n      mstore\n      keccak256(0x00, 0x20)\n      add\n      0x00\n      swap2\n      pop\n      swap1\n      pop\n      sload\n      dup2\n      jump\t// out\n        /* \"TimeAlly.sol\":9879:11132  function seeShareForUserByMonth(address _userAddress, uint256 _atMonth) public view returns (uint256) {... */\n    tag_61:\n        /* \"TimeAlly.sol\":9972:9979  uint256 */\n      0x00\n        /* \"TimeAlly.sol\":10205:10226  uint256 _currentMonth */\n      dup1\n        /* \"TimeAlly.sol\":10229:10246  getCurrentMonth() */\n      tag_200\n        /* \"TimeAlly.sol\":10229:10244  getCurrentMonth */\n      tag_138\n        /* \"TimeAlly.sol\":10229:10246  getCurrentMonth() */\n      jump\t// in\n    tag_200:\n        /* \"TimeAlly.sol\":10205:10246  uint256 _currentMonth = getCurrentMonth() */\n      swap1\n      pop\n        /* \"TimeAlly.sol\":10276:10289  _currentMonth */\n      dup1\n        /* \"TimeAlly.sol\":10264:10272  _atMonth */\n      dup4\n        /* \"TimeAlly.sol\":10264:10289  _atMonth <= _currentMonth */\n      gt\n      iszero\n        /* \"TimeAlly.sol\":10256:10320  require(_atMonth <= _currentMonth, 'cannot see future stakings') */\n      tag_201\n      jumpi\n      mload(0x40)\n      0x08c379a000000000000000000000000000000000000000000000000000000000\n      dup2\n      mstore\n      0x04\n      add\n      dup1\n      dup1\n      0x20\n      add\n      dup3\n      dup2\n      sub\n      dup3\n      mstore\n      0x1a\n      dup2\n      mstore\n      0x20\n      add\n      dup1\n      0x63616e6e6f742073656520667574757265207374616b696e6773000000000000\n      dup2\n      mstore\n      pop\n      0x20\n      add\n      swap2\n      pop\n      pop\n      mload(0x40)\n      dup1\n      swap2\n      sub\n      swap1\n      revert\n    tag_201:\n        /* \"TimeAlly.sol\":10367:10368  0 */\n      0x00\n        /* \"TimeAlly.sol\":10334:10353  totalActiveStakings */\n      0x0a\n        /* \"TimeAlly.sol\":10334:10363  totalActiveStakings[_atMonth] */\n      0x00\n        /* \"TimeAlly.sol\":10354:10362  _atMonth */\n      dup6\n        /* \"TimeAlly.sol\":10334:10363  totalActiveStakings[_atMonth] */\n      dup2\n      mstore\n      0x20\n      add\n      swap1\n      dup2\n      mstore\n      0x20\n      add\n      0x00\n      keccak256\n      sload\n        /* \"TimeAlly.sol\":10334:10368  totalActiveStakings[_atMonth] == 0 */\n      eq\n        /* \"TimeAlly.sol\":10331:10403  if(totalActiveStakings[_atMonth] == 0) {... */\n      iszero\n      tag_202\n      jumpi\n        /* \"TimeAlly.sol\":10391:10392  0 */\n      0x00\n        /* \"TimeAlly.sol\":10384:10392  return 0 */\n      swap2\n      pop\n      pop\n      jump(tag_199)\n        /* \"TimeAlly.sol\":10331:10403  if(totalActiveStakings[_atMonth] == 0) {... */\n    tag_202:\n        /* \"TimeAlly.sol\":10413:10450  uint256 userActiveStakingsExaEsAmount */\n      0x00\n        /* \"TimeAlly.sol\":10465:10474  uint256 i */\n      dup1\n        /* \"TimeAlly.sol\":10477:10478  0 */\n      0x00\n        /* \"TimeAlly.sol\":10465:10478  uint256 i = 0 */\n      swap1\n      pop\n        /* \"TimeAlly.sol\":10461:11010  for(uint256 i = 0; i < stakings[_userAddress].length; i++) {... */\n    tag_203:\n        /* \"TimeAlly.sol\":10484:10492  stakings */\n      0x08\n        /* \"TimeAlly.sol\":10484:10506  stakings[_userAddress] */\n      0x00\n        /* \"TimeAlly.sol\":10493:10505  _userAddress */\n      dup8\n        /* \"TimeAlly.sol\":10484:10506  stakings[_userAddress] */\n      0xffffffffffffffffffffffffffffffffffffffff\n      and\n      0xffffffffffffffffffffffffffffffffffffffff\n      and\n      dup2\n      mstore\n      0x20\n      add\n      swap1\n      dup2\n      mstore\n      0x20\n      add\n      0x00\n      keccak256\n        /* \"TimeAlly.sol\":10484:10513  stakings[_userAddress].length */\n      dup1\n      sload\n      swap1\n      pop\n        /* \"TimeAlly.sol\":10480:10481  i */\n      dup2\n        /* \"TimeAlly.sol\":10480:10513  i < stakings[_userAddress].length */\n      lt\n        /* \"TimeAlly.sol\":10461:11010  for(uint256 i = 0; i < stakings[_userAddress].length; i++) {... */\n      iszero\n      tag_204\n      jumpi\n        /* \"TimeAlly.sol\":10534:10557  StakingPlan memory plan */\n      tag_206\n      tag_207\n      jump\t// in\n    tag_206:\n        /* \"TimeAlly.sol\":10560:10572  stakingPlans */\n      0x06\n        /* \"TimeAlly.sol\":10574:10582  stakings */\n      0x08\n        /* \"TimeAlly.sol\":10574:10596  stakings[_userAddress] */\n      0x00\n        /* \"TimeAlly.sol\":10583:10595  _userAddress */\n      dup10\n        /* \"TimeAlly.sol\":10574:10596  stakings[_userAddress] */\n      0xffffffffffffffffffffffffffffffffffffffff\n      and\n      0xffffffffffffffffffffffffffffffffffffffff\n      and\n      dup2\n      mstore\n      0x20\n      add\n      swap1\n      dup2\n      mstore\n      0x20\n      add\n      0x00\n      keccak256\n        /* \"TimeAlly.sol\":10597:10598  i */\n      dup4\n        /* \"TimeAlly.sol\":10574:10599  stakings[_userAddress][i] */\n      dup2\n      sload\n      dup2\n      lt\n      tag_208\n      jumpi\n      invalid\n    tag_208:\n      swap1\n      0x00\n      mstore\n      keccak256(0x00, 0x20)\n      swap1\n      0x09\n      mul\n      add\n        /* \"TimeAlly.sol\":10574:10613  stakings[_userAddress][i].stakingPlanId */\n      0x02\n      add\n      sload\n        /* \"TimeAlly.sol\":10560:10615  stakingPlans[ stakings[_userAddress][i].stakingPlanId ] */\n      dup2\n      sload\n      dup2\n      lt\n      tag_210\n      jumpi\n      invalid\n    tag_210:\n      swap1\n      0x00\n      mstore\n      keccak256(0x00, 0x20)\n      swap1\n      0x02\n      mul\n      add\n        /* \"TimeAlly.sol\":10534:10615  StakingPlan memory plan = stakingPlans[ stakings[_userAddress][i].stakingPlanId ] */\n      mload(0x40)\n      dup1\n      0x40\n      add\n      0x40\n      mstore\n      swap1\n      dup2\n      0x00\n      dup3\n      add\n      sload\n      dup2\n      mstore\n      0x20\n      add\n      0x01\n      dup3\n      add\n      sload\n      dup2\n      mstore\n      pop\n      pop\n      swap1\n      pop\n        /* \"TimeAlly.sol\":10702:10759  isStakingActive(_userAddress, i, _currentMonth, _atMonth) */\n      tag_212\n        /* \"TimeAlly.sol\":10718:10730  _userAddress */\n      dup8\n        /* \"TimeAlly.sol\":10732:10733  i */\n      dup4\n        /* \"TimeAlly.sol\":10735:10748  _currentMonth */\n      dup7\n        /* \"TimeAlly.sol\":10750:10758  _atMonth */\n      dup10\n        /* \"TimeAlly.sol\":10702:10717  isStakingActive */\n      tag_106\n        /* \"TimeAlly.sol\":10702:10759  isStakingActive(_userAddress, i, _currentMonth, _atMonth) */\n      jump\t// in\n    tag_212:\n        /* \"TimeAlly.sol\":10702:10828  isStakingActive(_userAddress, i, _currentMonth, _atMonth)... */\n      dup1\n      iszero\n      tag_213\n      jumpi\n      pop\n        /* \"TimeAlly.sol\":10778:10786  stakings */\n      0x08\n        /* \"TimeAlly.sol\":10778:10800  stakings[_userAddress] */\n      0x00\n        /* \"TimeAlly.sol\":10787:10799  _userAddress */\n      dup9\n        /* \"TimeAlly.sol\":10778:10800  stakings[_userAddress] */\n      0xffffffffffffffffffffffffffffffffffffffff\n      and\n      0xffffffffffffffffffffffffffffffffffffffff\n      and\n      dup2\n      mstore\n      0x20\n      add\n      swap1\n      dup2\n      mstore\n      0x20\n      add\n      0x00\n      keccak256\n        /* \"TimeAlly.sol\":10801:10802  i */\n      dup3\n        /* \"TimeAlly.sol\":10778:10803  stakings[_userAddress][i] */\n      dup2\n      sload\n      dup2\n      lt\n      tag_214\n      jumpi\n      invalid\n    tag_214:\n      swap1\n      0x00\n      mstore\n      keccak256(0x00, 0x20)\n      swap1\n      0x09\n      mul\n      add\n        /* \"TimeAlly.sol\":10778:10818  stakings[_userAddress][i].isMonthClaimed */\n      0x06\n      add\n        /* \"TimeAlly.sol\":10778:10828  stakings[_userAddress][i].isMonthClaimed[_atMonth] */\n      0x00\n        /* \"TimeAlly.sol\":10819:10827  _atMonth */\n      dup8\n        /* \"TimeAlly.sol\":10778:10828  stakings[_userAddress][i].isMonthClaimed[_atMonth] */\n      dup2\n      mstore\n      0x20\n      add\n      swap1\n      dup2\n      mstore\n      0x20\n      add\n      0x00\n      keccak256\n      0x00\n      swap1\n      sload\n      swap1\n      0x0100\n      exp\n      swap1\n      div\n      0xff\n      and\n        /* \"TimeAlly.sol\":10777:10828  !stakings[_userAddress][i].isMonthClaimed[_atMonth] */\n      iszero\n        /* \"TimeAlly.sol\":10702:10828  isStakingActive(_userAddress, i, _currentMonth, _atMonth)... */\n    tag_213:\n        /* \"TimeAlly.sol\":10699:11000  if(isStakingActive(_userAddress, i, _currentMonth, _atMonth)... */\n      iszero\n      tag_216\n      jumpi\n        /* \"TimeAlly.sol\":10880:10985  userActiveStakingsExaEsAmount.add(stakings[_userAddress][i].exaEsAmount.mul(plan.fractionFrom15).div(15)) */\n      tag_217\n        /* \"TimeAlly.sol\":10914:10984  stakings[_userAddress][i].exaEsAmount.mul(plan.fractionFrom15).div(15) */\n      tag_218\n        /* \"TimeAlly.sol\":10981:10983  15 */\n      0x0f\n        /* \"TimeAlly.sol\":10914:10976  stakings[_userAddress][i].exaEsAmount.mul(plan.fractionFrom15) */\n      tag_219\n        /* \"TimeAlly.sol\":10956:10960  plan */\n      dup5\n        /* \"TimeAlly.sol\":10956:10975  plan.fractionFrom15 */\n      0x20\n      add\n      mload\n        /* \"TimeAlly.sol\":10914:10922  stakings */\n      0x08\n        /* \"TimeAlly.sol\":10914:10936  stakings[_userAddress] */\n      0x00\n        /* \"TimeAlly.sol\":10923:10935  _userAddress */\n      dup14\n        /* \"TimeAlly.sol\":10914:10936  stakings[_userAddress] */\n      0xffffffffffffffffffffffffffffffffffffffff\n      and\n      0xffffffffffffffffffffffffffffffffffffffff\n      and\n      dup2\n      mstore\n      0x20\n      add\n      swap1\n      dup2\n      mstore\n      0x20\n      add\n      0x00\n      keccak256\n        /* \"TimeAlly.sol\":10937:10938  i */\n      dup8\n        /* \"TimeAlly.sol\":10914:10939  stakings[_userAddress][i] */\n      dup2\n      sload\n      dup2\n      lt\n      tag_220\n      jumpi\n      invalid\n    tag_220:\n      swap1\n      0x00\n      mstore\n      keccak256(0x00, 0x20)\n      swap1\n      0x09\n      mul\n      add\n        /* \"TimeAlly.sol\":10914:10951  stakings[_userAddress][i].exaEsAmount */\n      0x00\n      add\n      sload\n        /* \"TimeAlly.sol\":10914:10955  stakings[_userAddress][i].exaEsAmount.mul */\n      tag_184\n      swap1\n        /* \"TimeAlly.sol\":10914:10976  stakings[_userAddress][i].exaEsAmount.mul(plan.fractionFrom15) */\n      swap2\n      swap1\n      0xffffffff\n      and\n      jump\t// in\n    tag_219:\n        /* \"TimeAlly.sol\":10914:10980  stakings[_userAddress][i].exaEsAmount.mul(plan.fractionFrom15).div */\n      tag_185\n      swap1\n        /* \"TimeAlly.sol\":10914:10984  stakings[_userAddress][i].exaEsAmount.mul(plan.fractionFrom15).div(15) */\n      swap2\n      swap1\n      0xffffffff\n      and\n      jump\t// in\n    tag_218:\n        /* \"TimeAlly.sol\":10880:10909  userActiveStakingsExaEsAmount */\n      dup5\n        /* \"TimeAlly.sol\":10880:10913  userActiveStakingsExaEsAmount.add */\n      tag_222\n      swap1\n        /* \"TimeAlly.sol\":10880:10985  userActiveStakingsExaEsAmount.add(stakings[_userAddress][i].exaEsAmount.mul(plan.fractionFrom15).div(15)) */\n      swap2\n      swap1\n      0xffffffff\n      and\n      jump\t// in\n    tag_217:\n        /* \"TimeAlly.sol\":10848:10985  userActiveStakingsExaEsAmount = userActiveStakingsExaEsAmount.add(stakings[_userAddress][i].exaEsAmount.mul(plan.fractionFrom15).div(15)) */\n      swap3\n      pop\n        /* \"TimeAlly.sol\":10699:11000  if(isStakingActive(_userAddress, i, _currentMonth, _atMonth)... */\n    tag_216:\n        /* \"TimeAlly.sol\":10461:11010  for(uint256 i = 0; i < stakings[_userAddress].length; i++) {... */\n      pop\n        /* \"TimeAlly.sol\":10515:10518  i++ */\n      dup1\n      dup1\n      0x01\n      add\n      swap2\n      pop\n      pop\n        /* \"TimeAlly.sol\":10461:11010  for(uint256 i = 0; i < stakings[_userAddress].length; i++) {... */\n      jump(tag_203)\n    tag_204:\n      pop\n        /* \"TimeAlly.sol\":11027:11125  userActiveStakingsExaEsAmount.mul(timeAllyMonthlyNRT[_atMonth]).div(totalActiveStakings[_atMonth]) */\n      tag_223\n        /* \"TimeAlly.sol\":11095:11114  totalActiveStakings */\n      0x0a\n        /* \"TimeAlly.sol\":11095:11124  totalActiveStakings[_atMonth] */\n      0x00\n        /* \"TimeAlly.sol\":11115:11123  _atMonth */\n      dup7\n        /* \"TimeAlly.sol\":11095:11124  totalActiveStakings[_atMonth] */\n      dup2\n      mstore\n      0x20\n      add\n      swap1\n      dup2\n      mstore\n      0x20\n      add\n      0x00\n      keccak256\n      sload\n        /* \"TimeAlly.sol\":11027:11090  userActiveStakingsExaEsAmount.mul(timeAllyMonthlyNRT[_atMonth]) */\n      tag_224\n        /* \"TimeAlly.sol\":11061:11079  timeAllyMonthlyNRT */\n      0x05\n        /* \"TimeAlly.sol\":11080:11088  _atMonth */\n      dup8\n        /* \"TimeAlly.sol\":11061:11089  timeAllyMonthlyNRT[_atMonth] */\n      dup2\n      sload\n      dup2\n      lt\n      tag_225\n      jumpi\n      invalid\n    tag_225:\n      swap1\n      0x00\n      mstore\n      keccak256(0x00, 0x20)\n      add\n      sload\n        /* \"TimeAlly.sol\":11027:11056  userActiveStakingsExaEsAmount */\n      dup5\n        /* \"TimeAlly.sol\":11027:11060  userActiveStakingsExaEsAmount.mul */\n      tag_184\n      swap1\n        /* \"TimeAlly.sol\":11027:11090  userActiveStakingsExaEsAmount.mul(timeAllyMonthlyNRT[_atMonth]) */\n      swap2\n      swap1\n      0xffffffff\n      and\n      jump\t// in\n    tag_224:\n        /* \"TimeAlly.sol\":11027:11094  userActiveStakingsExaEsAmount.mul(timeAllyMonthlyNRT[_atMonth]).div */\n      tag_185\n      swap1\n        /* \"TimeAlly.sol\":11027:11125  userActiveStakingsExaEsAmount.mul(timeAllyMonthlyNRT[_atMonth]).div(totalActiveStakings[_atMonth]) */\n      swap2\n      swap1\n      0xffffffff\n      and\n      jump\t// in\n    tag_223:\n        /* \"TimeAlly.sol\":11020:11125  return userActiveStakingsExaEsAmount.mul(timeAllyMonthlyNRT[_atMonth]).div(totalActiveStakings[_atMonth]) */\n      swap3\n      pop\n      pop\n      pop\n        /* \"TimeAlly.sol\":9879:11132  function seeShareForUserByMonth(address _userAddress, uint256 _atMonth) public view returns (uint256) {... */\n    tag_199:\n      swap3\n      swap2\n      pop\n      pop\n      jump\t// out\n        /* \"TimeAlly.sol\":11138:13380  function withdrawShareForUserByMonth(uint256 _atMonth, uint256 _accruedPercentage, bool _stakeAccruedNow, uint256 _accruedsStakingPlan) public {... */\n    tag_64:\n        /* \"TimeAlly.sol\":11291:11312  uint256 _currentMonth */\n      0x00\n        /* \"TimeAlly.sol\":11315:11332  getCurrentMonth() */\n      tag_228\n        /* \"TimeAlly.sol\":11315:11330  getCurrentMonth */\n      tag_138\n        /* \"TimeAlly.sol\":11315:11332  getCurrentMonth() */\n      jump\t// in\n    tag_228:\n        /* \"TimeAlly.sol\":11291:11332  uint256 _currentMonth = getCurrentMonth() */\n      swap1\n      pop\n        /* \"TimeAlly.sol\":11368:11376  _atMonth */\n      dup5\n        /* \"TimeAlly.sol\":11351:11364  _currentMonth */\n      dup2\n        /* \"TimeAlly.sol\":11351:11376  _currentMonth >= _atMonth */\n      lt\n      iszero\n        /* \"TimeAlly.sol\":11343:11412  require(_currentMonth >= _atMonth, 'cannot withdraw future stakings') */\n      tag_229\n      jumpi\n      mload(0x40)\n      0x08c379a000000000000000000000000000000000000000000000000000000000\n      dup2\n      mstore\n      0x04\n      add\n      dup1\n      dup1\n      0x20\n      add\n      dup3\n      dup2\n      sub\n      dup3\n      mstore\n      0x1f\n      dup2\n      mstore\n      0x20\n      add\n      dup1\n      0x63616e6e6f7420776974686472617720667574757265207374616b696e677300\n      dup2\n      mstore\n      pop\n      0x20\n      add\n      swap2\n      pop\n      pop\n      mload(0x40)\n      dup1\n      swap2\n      sub\n      swap1\n      revert\n    tag_229:\n        /* \"TimeAlly.sol\":11464:11465  0 */\n      0x00\n        /* \"TimeAlly.sol\":11426:11445  totalActiveStakings */\n      0x0a\n        /* \"TimeAlly.sol\":11426:11460  totalActiveStakings[_currentMonth] */\n      0x00\n        /* \"TimeAlly.sol\":11446:11459  _currentMonth */\n      dup4\n        /* \"TimeAlly.sol\":11426:11460  totalActiveStakings[_currentMonth] */\n      dup2\n      mstore\n      0x20\n      add\n      swap1\n      dup2\n      mstore\n      0x20\n      add\n      0x00\n      keccak256\n      sload\n        /* \"TimeAlly.sol\":11426:11465  totalActiveStakings[_currentMonth] == 0 */\n      eq\n        /* \"TimeAlly.sol\":11423:11550  if(totalActiveStakings[_currentMonth] == 0) {... */\n      iszero\n      tag_230\n      jumpi\n        /* \"TimeAlly.sol\":11489:11494  false */\n      0x00\n        /* \"TimeAlly.sol\":11481:11539  require(false, 'total active stakings should be non zero') */\n      tag_231\n      jumpi\n      mload(0x40)\n      0x08c379a000000000000000000000000000000000000000000000000000000000\n      dup2\n      mstore\n      0x04\n      add\n      dup1\n      dup1\n      0x20\n      add\n      dup3\n      dup2\n      sub\n      dup3\n      mstore\n      0x28\n      dup2\n      mstore\n      0x20\n      add\n      dup1\n      data_befd38e7335fb8237cef118812ecee5a2b8ea845f685bf397227db9c69bef0b5\n      0x28\n      swap2\n      codecopy\n      0x40\n      add\n      swap2\n      pop\n      pop\n      mload(0x40)\n      dup1\n      swap2\n      sub\n      swap1\n      revert\n    tag_231:\n        /* \"TimeAlly.sol\":11423:11550  if(totalActiveStakings[_currentMonth] == 0) {... */\n    tag_230:\n        /* \"TimeAlly.sol\":11590:11592  50 */\n      0x32\n        /* \"TimeAlly.sol\":11568:11586  _accruedPercentage */\n      dup5\n        /* \"TimeAlly.sol\":11568:11592  _accruedPercentage >= 50 */\n      lt\n      iszero\n        /* \"TimeAlly.sol\":11560:11636  require(_accruedPercentage >= 50, 'accruedPercentage should be at least 50') */\n      tag_232\n      jumpi\n      mload(0x40)\n      0x08c379a000000000000000000000000000000000000000000000000000000000\n      dup2\n      mstore\n      0x04\n      add\n      dup1\n      dup1\n      0x20\n      add\n      dup3\n      dup2\n      sub\n      dup3\n      mstore\n      0x27\n      dup2\n      mstore\n      0x20\n      add\n      dup1\n      data_93da6dd610d9fefb6e1313dcbf2bddd65b198696b7b6534428823c79c90920b5\n      0x27\n      swap2\n      codecopy\n      0x40\n      add\n      swap2\n      pop\n      pop\n      mload(0x40)\n      dup1\n      swap2\n      sub\n      swap1\n      revert\n    tag_232:\n        /* \"TimeAlly.sol\":11647:11685  uint256 _userActiveStakingsExaEsAmount */\n      0x00\n        /* \"TimeAlly.sol\":11695:11728  uint256 _shareTotalCurrentAccrued */\n      dup1\n        /* \"TimeAlly.sol\":11743:11752  uint256 i */\n      0x00\n        /* \"TimeAlly.sol\":11755:11756  0 */\n      dup1\n        /* \"TimeAlly.sol\":11743:11756  uint256 i = 0 */\n      swap1\n      pop\n        /* \"TimeAlly.sol\":11739:12882  for(uint256 i = 0; i < stakings[msg.sender].length; i++) {... */\n    tag_233:\n        /* \"TimeAlly.sol\":11762:11770  stakings */\n      0x08\n        /* \"TimeAlly.sol\":11762:11782  stakings[msg.sender] */\n      0x00\n        /* \"TimeAlly.sol\":11771:11781  msg.sender */\n      caller\n        /* \"TimeAlly.sol\":11762:11782  stakings[msg.sender] */\n      0xffffffffffffffffffffffffffffffffffffffff\n      and\n      0xffffffffffffffffffffffffffffffffffffffff\n      and\n      dup2\n      mstore\n      0x20\n      add\n      swap1\n      dup2\n      mstore\n      0x20\n      add\n      0x00\n      keccak256\n        /* \"TimeAlly.sol\":11762:11789  stakings[msg.sender].length */\n      dup1\n      sload\n      swap1\n      pop\n        /* \"TimeAlly.sol\":11758:11759  i */\n      dup2\n        /* \"TimeAlly.sol\":11758:11789  i < stakings[msg.sender].length */\n      lt\n        /* \"TimeAlly.sol\":11739:12882  for(uint256 i = 0; i < stakings[msg.sender].length; i++) {... */\n      iszero\n      tag_234\n      jumpi\n        /* \"TimeAlly.sol\":11810:11834  StakingPlan memory _plan */\n      tag_236\n      tag_207\n      jump\t// in\n    tag_236:\n        /* \"TimeAlly.sol\":11837:11849  stakingPlans */\n      0x06\n        /* \"TimeAlly.sol\":11851:11859  stakings */\n      0x08\n        /* \"TimeAlly.sol\":11851:11871  stakings[msg.sender] */\n      0x00\n        /* \"TimeAlly.sol\":11860:11870  msg.sender */\n      caller\n        /* \"TimeAlly.sol\":11851:11871  stakings[msg.sender] */\n      0xffffffffffffffffffffffffffffffffffffffff\n      and\n      0xffffffffffffffffffffffffffffffffffffffff\n      and\n      dup2\n      mstore\n      0x20\n      add\n      swap1\n      dup2\n      mstore\n      0x20\n      add\n      0x00\n      keccak256\n        /* \"TimeAlly.sol\":11872:11873  i */\n      dup4\n        /* \"TimeAlly.sol\":11851:11874  stakings[msg.sender][i] */\n      dup2\n      sload\n      dup2\n      lt\n      tag_237\n      jumpi\n      invalid\n    tag_237:\n      swap1\n      0x00\n      mstore\n      keccak256(0x00, 0x20)\n      swap1\n      0x09\n      mul\n      add\n        /* \"TimeAlly.sol\":11851:11888  stakings[msg.sender][i].stakingPlanId */\n      0x02\n      add\n      sload\n        /* \"TimeAlly.sol\":11837:11890  stakingPlans[ stakings[msg.sender][i].stakingPlanId ] */\n      dup2\n      sload\n      dup2\n      lt\n      tag_239\n      jumpi\n      invalid\n    tag_239:\n      swap1\n      0x00\n      mstore\n      keccak256(0x00, 0x20)\n      swap1\n      0x02\n      mul\n      add\n        /* \"TimeAlly.sol\":11810:11890  StakingPlan memory _plan = stakingPlans[ stakings[msg.sender][i].stakingPlanId ] */\n      mload(0x40)\n      dup1\n      0x40\n      add\n      0x40\n      mstore\n      swap1\n      dup2\n      0x00\n      dup3\n      add\n      sload\n      dup2\n      mstore\n      0x20\n      add\n      0x01\n      dup3\n      add\n      sload\n      dup2\n      mstore\n      pop\n      pop\n      swap1\n      pop\n        /* \"TimeAlly.sol\":11977:12032  isStakingActive(msg.sender, i, _currentMonth, _atMonth) */\n      tag_241\n        /* \"TimeAlly.sol\":11993:12003  msg.sender */\n      caller\n        /* \"TimeAlly.sol\":12005:12006  i */\n      dup4\n        /* \"TimeAlly.sol\":12008:12021  _currentMonth */\n      dup8\n        /* \"TimeAlly.sol\":12023:12031  _atMonth */\n      dup13\n        /* \"TimeAlly.sol\":11977:11992  isStakingActive */\n      tag_106\n        /* \"TimeAlly.sol\":11977:12032  isStakingActive(msg.sender, i, _currentMonth, _atMonth) */\n      jump\t// in\n    tag_241:\n        /* \"TimeAlly.sol\":11977:12099  isStakingActive(msg.sender, i, _currentMonth, _atMonth)... */\n      dup1\n      iszero\n      tag_242\n      jumpi\n      pop\n        /* \"TimeAlly.sol\":12051:12059  stakings */\n      0x08\n        /* \"TimeAlly.sol\":12051:12071  stakings[msg.sender] */\n      0x00\n        /* \"TimeAlly.sol\":12060:12070  msg.sender */\n      caller\n        /* \"TimeAlly.sol\":12051:12071  stakings[msg.sender] */\n      0xffffffffffffffffffffffffffffffffffffffff\n      and\n      0xffffffffffffffffffffffffffffffffffffffff\n      and\n      dup2\n      mstore\n      0x20\n      add\n      swap1\n      dup2\n      mstore\n      0x20\n      add\n      0x00\n      keccak256\n        /* \"TimeAlly.sol\":12072:12073  i */\n      dup3\n        /* \"TimeAlly.sol\":12051:12074  stakings[msg.sender][i] */\n      dup2\n      sload\n      dup2\n      lt\n      tag_243\n      jumpi\n      invalid\n    tag_243:\n      swap1\n      0x00\n      mstore\n      keccak256(0x00, 0x20)\n      swap1\n      0x09\n      mul\n      add\n        /* \"TimeAlly.sol\":12051:12089  stakings[msg.sender][i].isMonthClaimed */\n      0x06\n      add\n        /* \"TimeAlly.sol\":12051:12099  stakings[msg.sender][i].isMonthClaimed[_atMonth] */\n      0x00\n        /* \"TimeAlly.sol\":12090:12098  _atMonth */\n      dup11\n        /* \"TimeAlly.sol\":12051:12099  stakings[msg.sender][i].isMonthClaimed[_atMonth] */\n      dup2\n      mstore\n      0x20\n      add\n      swap1\n      dup2\n      mstore\n      0x20\n      add\n      0x00\n      keccak256\n      0x00\n      swap1\n      sload\n      swap1\n      0x0100\n      exp\n      swap1\n      div\n      0xff\n      and\n        /* \"TimeAlly.sol\":12050:12099  !stakings[msg.sender][i].isMonthClaimed[_atMonth] */\n      iszero\n        /* \"TimeAlly.sol\":11977:12099  isStakingActive(msg.sender, i, _currentMonth, _atMonth)... */\n    tag_242:\n        /* \"TimeAlly.sol\":11974:12872  if(isStakingActive(msg.sender, i, _currentMonth, _atMonth)... */\n      iszero\n      tag_245\n      jumpi\n        /* \"TimeAlly.sol\":12170:12174  true */\n      0x01\n        /* \"TimeAlly.sol\":12119:12127  stakings */\n      0x08\n        /* \"TimeAlly.sol\":12119:12139  stakings[msg.sender] */\n      0x00\n        /* \"TimeAlly.sol\":12128:12138  msg.sender */\n      caller\n        /* \"TimeAlly.sol\":12119:12139  stakings[msg.sender] */\n      0xffffffffffffffffffffffffffffffffffffffff\n      and\n      0xffffffffffffffffffffffffffffffffffffffff\n      and\n      dup2\n      mstore\n      0x20\n      add\n      swap1\n      dup2\n      mstore\n      0x20\n      add\n      0x00\n      keccak256\n        /* \"TimeAlly.sol\":12140:12141  i */\n      dup4\n        /* \"TimeAlly.sol\":12119:12142  stakings[msg.sender][i] */\n      dup2\n      sload\n      dup2\n      lt\n      tag_246\n      jumpi\n      invalid\n    tag_246:\n      swap1\n      0x00\n      mstore\n      keccak256(0x00, 0x20)\n      swap1\n      0x09\n      mul\n      add\n        /* \"TimeAlly.sol\":12119:12157  stakings[msg.sender][i].isMonthClaimed */\n      0x06\n      add\n        /* \"TimeAlly.sol\":12119:12167  stakings[msg.sender][i].isMonthClaimed[_atMonth] */\n      0x00\n        /* \"TimeAlly.sol\":12158:12166  _atMonth */\n      dup12\n        /* \"TimeAlly.sol\":12119:12167  stakings[msg.sender][i].isMonthClaimed[_atMonth] */\n      dup2\n      mstore\n      0x20\n      add\n      swap1\n      dup2\n      mstore\n      0x20\n      add\n      0x00\n      keccak256\n      0x00\n        /* \"TimeAlly.sol\":12119:12174  stakings[msg.sender][i].isMonthClaimed[_atMonth] = true */\n      0x0100\n      exp\n      dup2\n      sload\n      dup2\n      0xff\n      mul\n      not\n      and\n      swap1\n      dup4\n      iszero\n      iszero\n      mul\n      or\n      swap1\n      sstore\n      pop\n        /* \"TimeAlly.sol\":12263:12287  uint256 _effectiveAmount */\n      0x00\n        /* \"TimeAlly.sol\":12290:12359  stakings[msg.sender][i].exaEsAmount.mul(_plan.fractionFrom15).div(15) */\n      tag_248\n        /* \"TimeAlly.sol\":12356:12358  15 */\n      0x0f\n        /* \"TimeAlly.sol\":12290:12351  stakings[msg.sender][i].exaEsAmount.mul(_plan.fractionFrom15) */\n      tag_249\n        /* \"TimeAlly.sol\":12330:12335  _plan */\n      dup5\n        /* \"TimeAlly.sol\":12330:12350  _plan.fractionFrom15 */\n      0x20\n      add\n      mload\n        /* \"TimeAlly.sol\":12290:12298  stakings */\n      0x08\n        /* \"TimeAlly.sol\":12290:12310  stakings[msg.sender] */\n      0x00\n        /* \"TimeAlly.sol\":12299:12309  msg.sender */\n      caller\n        /* \"TimeAlly.sol\":12290:12310  stakings[msg.sender] */\n      0xffffffffffffffffffffffffffffffffffffffff\n      and\n      0xffffffffffffffffffffffffffffffffffffffff\n      and\n      dup2\n      mstore\n      0x20\n      add\n      swap1\n      dup2\n      mstore\n      0x20\n      add\n      0x00\n      keccak256\n        /* \"TimeAlly.sol\":12311:12312  i */\n      dup8\n        /* \"TimeAlly.sol\":12290:12313  stakings[msg.sender][i] */\n      dup2\n      sload\n      dup2\n      lt\n      tag_250\n      jumpi\n      invalid\n    tag_250:\n      swap1\n      0x00\n      mstore\n      keccak256(0x00, 0x20)\n      swap1\n      0x09\n      mul\n      add\n        /* \"TimeAlly.sol\":12290:12325  stakings[msg.sender][i].exaEsAmount */\n      0x00\n      add\n      sload\n        /* \"TimeAlly.sol\":12290:12329  stakings[msg.sender][i].exaEsAmount.mul */\n      tag_184\n      swap1\n        /* \"TimeAlly.sol\":12290:12351  stakings[msg.sender][i].exaEsAmount.mul(_plan.fractionFrom15) */\n      swap2\n      swap1\n      0xffffffff\n      and\n      jump\t// in\n    tag_249:\n        /* \"TimeAlly.sol\":12290:12355  stakings[msg.sender][i].exaEsAmount.mul(_plan.fractionFrom15).div */\n      tag_185\n      swap1\n        /* \"TimeAlly.sol\":12290:12359  stakings[msg.sender][i].exaEsAmount.mul(_plan.fractionFrom15).div(15) */\n      swap2\n      swap1\n      0xffffffff\n      and\n      jump\t// in\n    tag_248:\n        /* \"TimeAlly.sol\":12263:12359  uint256 _effectiveAmount = stakings[msg.sender][i].exaEsAmount.mul(_plan.fractionFrom15).div(15) */\n      swap1\n      pop\n        /* \"TimeAlly.sol\":12377:12398  uint256 _accruedShare */\n      0x00\n        /* \"TimeAlly.sol\":12401:12450  _effectiveAmount.mul(_accruedPercentage).div(100) */\n      tag_252\n        /* \"TimeAlly.sol\":12446:12449  100 */\n      0x64\n        /* \"TimeAlly.sol\":12401:12441  _effectiveAmount.mul(_accruedPercentage) */\n      tag_253\n        /* \"TimeAlly.sol\":12422:12440  _accruedPercentage */\n      dup13\n        /* \"TimeAlly.sol\":12401:12417  _effectiveAmount */\n      dup6\n        /* \"TimeAlly.sol\":12401:12421  _effectiveAmount.mul */\n      tag_184\n      swap1\n        /* \"TimeAlly.sol\":12401:12441  _effectiveAmount.mul(_accruedPercentage) */\n      swap2\n      swap1\n      0xffffffff\n      and\n      jump\t// in\n    tag_253:\n        /* \"TimeAlly.sol\":12401:12445  _effectiveAmount.mul(_accruedPercentage).div */\n      tag_185\n      swap1\n        /* \"TimeAlly.sol\":12401:12450  _effectiveAmount.mul(_accruedPercentage).div(100) */\n      swap2\n      swap1\n      0xffffffff\n      and\n      jump\t// in\n    tag_252:\n        /* \"TimeAlly.sol\":12377:12450  uint256 _accruedShare = _effectiveAmount.mul(_accruedPercentage).div(100) */\n      swap1\n      pop\n        /* \"TimeAlly.sol\":12471:12487  _stakeAccruedNow */\n      dup9\n        /* \"TimeAlly.sol\":12468:12755  if(_stakeAccruedNow) {... */\n      iszero\n      tag_254\n      jumpi\n        /* \"TimeAlly.sol\":12556:12617  stakings[msg.sender][i].accruedExaEsAmount.add(_accruedShare) */\n      tag_255\n        /* \"TimeAlly.sol\":12603:12616  _accruedShare */\n      dup2\n        /* \"TimeAlly.sol\":12556:12564  stakings */\n      0x08\n        /* \"TimeAlly.sol\":12556:12576  stakings[msg.sender] */\n      0x00\n        /* \"TimeAlly.sol\":12565:12575  msg.sender */\n      caller\n        /* \"TimeAlly.sol\":12556:12576  stakings[msg.sender] */\n      0xffffffffffffffffffffffffffffffffffffffff\n      and\n      0xffffffffffffffffffffffffffffffffffffffff\n      and\n      dup2\n      mstore\n      0x20\n      add\n      swap1\n      dup2\n      mstore\n      0x20\n      add\n      0x00\n      keccak256\n        /* \"TimeAlly.sol\":12577:12578  i */\n      dup7\n        /* \"TimeAlly.sol\":12556:12579  stakings[msg.sender][i] */\n      dup2\n      sload\n      dup2\n      lt\n      tag_256\n      jumpi\n      invalid\n    tag_256:\n      swap1\n      0x00\n      mstore\n      keccak256(0x00, 0x20)\n      swap1\n      0x09\n      mul\n      add\n        /* \"TimeAlly.sol\":12556:12598  stakings[msg.sender][i].accruedExaEsAmount */\n      0x04\n      add\n      sload\n        /* \"TimeAlly.sol\":12556:12602  stakings[msg.sender][i].accruedExaEsAmount.add */\n      tag_222\n      swap1\n        /* \"TimeAlly.sol\":12556:12617  stakings[msg.sender][i].accruedExaEsAmount.add(_accruedShare) */\n      swap2\n      swap1\n      0xffffffff\n      and\n      jump\t// in\n    tag_255:\n        /* \"TimeAlly.sol\":12511:12519  stakings */\n      0x08\n        /* \"TimeAlly.sol\":12511:12531  stakings[msg.sender] */\n      0x00\n        /* \"TimeAlly.sol\":12520:12530  msg.sender */\n      caller\n        /* \"TimeAlly.sol\":12511:12531  stakings[msg.sender] */\n      0xffffffffffffffffffffffffffffffffffffffff\n      and\n      0xffffffffffffffffffffffffffffffffffffffff\n      and\n      dup2\n      mstore\n      0x20\n      add\n      swap1\n      dup2\n      mstore\n      0x20\n      add\n      0x00\n      keccak256\n        /* \"TimeAlly.sol\":12532:12533  i */\n      dup6\n        /* \"TimeAlly.sol\":12511:12534  stakings[msg.sender][i] */\n      dup2\n      sload\n      dup2\n      lt\n      tag_258\n      jumpi\n      invalid\n    tag_258:\n      swap1\n      0x00\n      mstore\n      keccak256(0x00, 0x20)\n      swap1\n      0x09\n      mul\n      add\n        /* \"TimeAlly.sol\":12511:12553  stakings[msg.sender][i].accruedExaEsAmount */\n      0x04\n      add\n        /* \"TimeAlly.sol\":12511:12617  stakings[msg.sender][i].accruedExaEsAmount = stakings[msg.sender][i].accruedExaEsAmount.add(_accruedShare) */\n      dup2\n      swap1\n      sstore\n      pop\n        /* \"TimeAlly.sol\":12468:12755  if(_stakeAccruedNow) {... */\n      jump(tag_260)\n    tag_254:\n        /* \"TimeAlly.sol\":12692:12736  _shareTotalCurrentAccrued.add(_accruedShare) */\n      tag_261\n        /* \"TimeAlly.sol\":12722:12735  _accruedShare */\n      dup2\n        /* \"TimeAlly.sol\":12692:12717  _shareTotalCurrentAccrued */\n      dup7\n        /* \"TimeAlly.sol\":12692:12721  _shareTotalCurrentAccrued.add */\n      tag_222\n      swap1\n        /* \"TimeAlly.sol\":12692:12736  _shareTotalCurrentAccrued.add(_accruedShare) */\n      swap2\n      swap1\n      0xffffffff\n      and\n      jump\t// in\n    tag_261:\n        /* \"TimeAlly.sol\":12664:12736  _shareTotalCurrentAccrued = _shareTotalCurrentAccrued.add(_accruedShare) */\n      swap5\n      pop\n        /* \"TimeAlly.sol\":12468:12755  if(_stakeAccruedNow) {... */\n    tag_260:\n        /* \"TimeAlly.sol\":12805:12857  _userActiveStakingsExaEsAmount.add(_effectiveAmount) */\n      tag_262\n        /* \"TimeAlly.sol\":12840:12856  _effectiveAmount */\n      dup3\n        /* \"TimeAlly.sol\":12805:12835  _userActiveStakingsExaEsAmount */\n      dup8\n        /* \"TimeAlly.sol\":12805:12839  _userActiveStakingsExaEsAmount.add */\n      tag_222\n      swap1\n        /* \"TimeAlly.sol\":12805:12857  _userActiveStakingsExaEsAmount.add(_effectiveAmount) */\n      swap2\n      swap1\n      0xffffffff\n      and\n      jump\t// in\n    tag_262:\n        /* \"TimeAlly.sol\":12772:12857  _userActiveStakingsExaEsAmount = _userActiveStakingsExaEsAmount.add(_effectiveAmount) */\n      swap6\n      pop\n        /* \"TimeAlly.sol\":11974:12872  if(isStakingActive(msg.sender, i, _currentMonth, _atMonth)... */\n      pop\n      pop\n    tag_245:\n        /* \"TimeAlly.sol\":11739:12882  for(uint256 i = 0; i < stakings[msg.sender].length; i++) {... */\n      pop\n        /* \"TimeAlly.sol\":11791:11794  i++ */\n      dup1\n      dup1\n      0x01\n      add\n      swap2\n      pop\n      pop\n        /* \"TimeAlly.sol\":11739:12882  for(uint256 i = 0; i < stakings[msg.sender].length; i++) {... */\n      jump(tag_233)\n    tag_234:\n      pop\n        /* \"TimeAlly.sol\":12892:12912  uint256 _liquidShare */\n      0x00\n        /* \"TimeAlly.sol\":12915:13162  _userActiveStakingsExaEsAmount... */\n      tag_263\n        /* \"TimeAlly.sol\":13158:13161  100 */\n      0x64\n        /* \"TimeAlly.sol\":12915:13153  _userActiveStakingsExaEsAmount... */\n      tag_264\n        /* \"TimeAlly.sol\":13134:13152  _accruedPercentage */\n      dup10\n        /* \"TimeAlly.sol\":13128:13131  100 */\n      0x64\n        /* \"TimeAlly.sol\":13128:13152  100 - _accruedPercentage */\n      sub\n        /* \"TimeAlly.sol\":12915:13090  _userActiveStakingsExaEsAmount... */\n      tag_265\n        /* \"TimeAlly.sol\":13055:13074  totalActiveStakings */\n      0x0a\n        /* \"TimeAlly.sol\":13055:13089  totalActiveStakings[_currentMonth] */\n      0x00\n        /* \"TimeAlly.sol\":13075:13088  _currentMonth */\n      dup11\n        /* \"TimeAlly.sol\":13055:13089  totalActiveStakings[_currentMonth] */\n      dup2\n      mstore\n      0x20\n      add\n      swap1\n      dup2\n      mstore\n      0x20\n      add\n      0x00\n      keccak256\n      sload\n        /* \"TimeAlly.sol\":12915:13017  _userActiveStakingsExaEsAmount... */\n      tag_266\n        /* \"TimeAlly.sol\":12983:13001  timeAllyMonthlyNRT */\n      0x05\n        /* \"TimeAlly.sol\":13002:13015  _currentMonth */\n      dup12\n        /* \"TimeAlly.sol\":12983:13016  timeAllyMonthlyNRT[_currentMonth] */\n      dup2\n      sload\n      dup2\n      lt\n      tag_267\n      jumpi\n      invalid\n    tag_267:\n      swap1\n      0x00\n      mstore\n      keccak256(0x00, 0x20)\n      add\n      sload\n        /* \"TimeAlly.sol\":12915:12945  _userActiveStakingsExaEsAmount */\n      dup11\n        /* \"TimeAlly.sol\":12915:12982  _userActiveStakingsExaEsAmount... */\n      tag_184\n      swap1\n        /* \"TimeAlly.sol\":12915:13017  _userActiveStakingsExaEsAmount... */\n      swap2\n      swap1\n      0xffffffff\n      and\n      jump\t// in\n    tag_266:\n        /* \"TimeAlly.sol\":12915:13054  _userActiveStakingsExaEsAmount... */\n      tag_185\n      swap1\n        /* \"TimeAlly.sol\":12915:13090  _userActiveStakingsExaEsAmount... */\n      swap2\n      swap1\n      0xffffffff\n      and\n      jump\t// in\n    tag_265:\n        /* \"TimeAlly.sol\":12915:13127  _userActiveStakingsExaEsAmount... */\n      tag_184\n      swap1\n        /* \"TimeAlly.sol\":12915:13153  _userActiveStakingsExaEsAmount... */\n      swap2\n      swap1\n      0xffffffff\n      and\n      jump\t// in\n    tag_264:\n        /* \"TimeAlly.sol\":12915:13157  _userActiveStakingsExaEsAmount... */\n      tag_185\n      swap1\n        /* \"TimeAlly.sol\":12915:13162  _userActiveStakingsExaEsAmount... */\n      swap2\n      swap1\n      0xffffffff\n      and\n      jump\t// in\n    tag_263:\n        /* \"TimeAlly.sol\":12892:13162  uint256 _liquidShare = _userActiveStakingsExaEsAmount... */\n      swap1\n      pop\n        /* \"TimeAlly.sol\":13191:13192  0 */\n      0x00\n        /* \"TimeAlly.sol\":13176:13188  _liquidShare */\n      dup2\n        /* \"TimeAlly.sol\":13176:13192  _liquidShare > 0 */\n      gt\n        /* \"TimeAlly.sol\":13173:13259  if(_liquidShare > 0) {... */\n      iszero\n      tag_269\n      jumpi\n        /* \"TimeAlly.sol\":13208:13213  token */\n      0x01\n      0x00\n      swap1\n      sload\n      swap1\n      0x0100\n      exp\n      swap1\n      div\n      0xffffffffffffffffffffffffffffffffffffffff\n      and\n        /* \"TimeAlly.sol\":13208:13222  token.transfer */\n      0xffffffffffffffffffffffffffffffffffffffff\n      and\n      0xa9059cbb\n        /* \"TimeAlly.sol\":13223:13233  msg.sender */\n      caller\n        /* \"TimeAlly.sol\":13235:13247  _liquidShare */\n      dup4\n        /* \"TimeAlly.sol\":13208:13248  token.transfer(msg.sender, _liquidShare) */\n      mload(0x40)\n      dup4\n      0xffffffff\n      and\n      0xe0\n      shl\n      dup2\n      mstore\n      0x04\n      add\n      dup1\n      dup4\n      0xffffffffffffffffffffffffffffffffffffffff\n      and\n      0xffffffffffffffffffffffffffffffffffffffff\n      and\n      dup2\n      mstore\n      0x20\n      add\n      dup3\n      dup2\n      mstore\n      0x20\n      add\n      swap3\n      pop\n      pop\n      pop\n      0x20\n      mload(0x40)\n      dup1\n      dup4\n      sub\n      dup2\n      0x00\n      dup8\n      dup1\n      extcodesize\n      iszero\n        /* \"--CODEGEN--\":8:17   */\n      dup1\n        /* \"--CODEGEN--\":5:7   */\n      iszero\n      tag_270\n      jumpi\n        /* \"--CODEGEN--\":30:31   */\n      0x00\n        /* \"--CODEGEN--\":27:28   */\n      dup1\n        /* \"--CODEGEN--\":20:32   */\n      revert\n        /* \"--CODEGEN--\":5:7   */\n    tag_270:\n        /* \"TimeAlly.sol\":13208:13248  token.transfer(msg.sender, _liquidShare) */\n      pop\n      gas\n      call\n      iszero\n        /* \"--CODEGEN--\":8:17   */\n      dup1\n        /* \"--CODEGEN--\":5:7   */\n      iszero\n      tag_271\n      jumpi\n        /* \"--CODEGEN--\":45:61   */\n      returndatasize\n        /* \"--CODEGEN--\":42:43   */\n      0x00\n        /* \"--CODEGEN--\":39:40   */\n      dup1\n        /* \"--CODEGEN--\":24:62   */\n      returndatacopy\n        /* \"--CODEGEN--\":77:93   */\n      returndatasize\n        /* \"--CODEGEN--\":74:75   */\n      0x00\n        /* \"--CODEGEN--\":67:94   */\n      revert\n        /* \"--CODEGEN--\":5:7   */\n    tag_271:\n        /* \"TimeAlly.sol\":13208:13248  token.transfer(msg.sender, _liquidShare) */\n      pop\n      pop\n      pop\n      pop\n      mload(0x40)\n      returndatasize\n        /* \"--CODEGEN--\":13:15   */\n      0x20\n        /* \"--CODEGEN--\":8:11   */\n      dup2\n        /* \"--CODEGEN--\":5:16   */\n      lt\n        /* \"--CODEGEN--\":2:4   */\n      iszero\n      tag_272\n      jumpi\n        /* \"--CODEGEN--\":29:30   */\n      0x00\n        /* \"--CODEGEN--\":26:27   */\n      dup1\n        /* \"--CODEGEN--\":19:31   */\n      revert\n        /* \"--CODEGEN--\":2:4   */\n    tag_272:\n        /* \"TimeAlly.sol\":13208:13248  token.transfer(msg.sender, _liquidShare) */\n      dup2\n      add\n      swap1\n      dup1\n      dup1\n      mload\n      swap1\n      0x20\n      add\n      swap1\n      swap3\n      swap2\n      swap1\n      pop\n      pop\n      pop\n      pop\n        /* \"TimeAlly.sol\":13173:13259  if(_liquidShare > 0) {... */\n    tag_269:\n        /* \"TimeAlly.sol\":13272:13288  _stakeAccruedNow */\n      dup6\n        /* \"TimeAlly.sol\":13269:13374  if(_stakeAccruedNow) {... */\n      iszero\n      tag_273\n      jumpi\n        /* \"TimeAlly.sol\":13304:13363  newStaking(_shareTotalCurrentAccrued, _accruedsStakingPlan) */\n      tag_274\n        /* \"TimeAlly.sol\":13315:13340  _shareTotalCurrentAccrued */\n      dup3\n        /* \"TimeAlly.sol\":13342:13362  _accruedsStakingPlan */\n      dup7\n        /* \"TimeAlly.sol\":13304:13314  newStaking */\n      tag_144\n        /* \"TimeAlly.sol\":13304:13363  newStaking(_shareTotalCurrentAccrued, _accruedsStakingPlan) */\n      jump\t// in\n    tag_274:\n        /* \"TimeAlly.sol\":13269:13374  if(_stakeAccruedNow) {... */\n    tag_273:\n        /* \"TimeAlly.sol\":11138:13380  function withdrawShareForUserByMonth(uint256 _atMonth, uint256 _accruedPercentage, bool _stakeAccruedNow, uint256 _accruedsStakingPlan) public {... */\n      pop\n      pop\n      pop\n      pop\n      pop\n      pop\n      pop\n      pop\n      jump\t// out\n        /* \"TimeAlly.sol\":13386:13786  function restakeAccrued(uint256 _stakingId, uint256 _stakingPlanId) public {... */\n    tag_67:\n        /* \"TimeAlly.sol\":13533:13534  0 */\n      0x00\n        /* \"TimeAlly.sol\":13479:13487  stakings */\n      0x08\n        /* \"TimeAlly.sol\":13479:13499  stakings[msg.sender] */\n      0x00\n        /* \"TimeAlly.sol\":13488:13498  msg.sender */\n      caller\n        /* \"TimeAlly.sol\":13479:13499  stakings[msg.sender] */\n      0xffffffffffffffffffffffffffffffffffffffff\n      and\n      0xffffffffffffffffffffffffffffffffffffffff\n      and\n      dup2\n      mstore\n      0x20\n      add\n      swap1\n      dup2\n      mstore\n      0x20\n      add\n      0x00\n      keccak256\n        /* \"TimeAlly.sol\":13500:13510  _stakingId */\n      dup4\n        /* \"TimeAlly.sol\":13479:13511  stakings[msg.sender][_stakingId] */\n      dup2\n      sload\n      dup2\n      lt\n      tag_276\n      jumpi\n      invalid\n    tag_276:\n      swap1\n      0x00\n      mstore\n      keccak256(0x00, 0x20)\n      swap1\n      0x09\n      mul\n      add\n        /* \"TimeAlly.sol\":13479:13530  stakings[msg.sender][_stakingId].accruedExaEsAmount */\n      0x04\n      add\n      sload\n        /* \"TimeAlly.sol\":13479:13534  stakings[msg.sender][_stakingId].accruedExaEsAmount > 0 */\n      gt\n        /* \"TimeAlly.sol\":13471:13535  require(stakings[msg.sender][_stakingId].accruedExaEsAmount > 0) */\n      tag_278\n      jumpi\n      0x00\n      dup1\n      revert\n    tag_278:\n        /* \"TimeAlly.sol\":13546:13573  uint256 _accruedExaEsAmount */\n      0x00\n        /* \"TimeAlly.sol\":13576:13584  stakings */\n      0x08\n        /* \"TimeAlly.sol\":13576:13596  stakings[msg.sender] */\n      0x00\n        /* \"TimeAlly.sol\":13585:13595  msg.sender */\n      caller\n        /* \"TimeAlly.sol\":13576:13596  stakings[msg.sender] */\n      0xffffffffffffffffffffffffffffffffffffffff\n      and\n      0xffffffffffffffffffffffffffffffffffffffff\n      and\n      dup2\n      mstore\n      0x20\n      add\n      swap1\n      dup2\n      mstore\n      0x20\n      add\n      0x00\n      keccak256\n        /* \"TimeAlly.sol\":13597:13607  _stakingId */\n      dup4\n        /* \"TimeAlly.sol\":13576:13608  stakings[msg.sender][_stakingId] */\n      dup2\n      sload\n      dup2\n      lt\n      tag_279\n      jumpi\n      invalid\n    tag_279:\n      swap1\n      0x00\n      mstore\n      keccak256(0x00, 0x20)\n      swap1\n      0x09\n      mul\n      add\n        /* \"TimeAlly.sol\":13576:13627  stakings[msg.sender][_stakingId].accruedExaEsAmount */\n      0x04\n      add\n      sload\n        /* \"TimeAlly.sol\":13546:13627  uint256 _accruedExaEsAmount = stakings[msg.sender][_stakingId].accruedExaEsAmount */\n      swap1\n      pop\n        /* \"TimeAlly.sol\":13691:13692  0 */\n      0x00\n        /* \"TimeAlly.sol\":13637:13645  stakings */\n      0x08\n        /* \"TimeAlly.sol\":13637:13657  stakings[msg.sender] */\n      0x00\n        /* \"TimeAlly.sol\":13646:13656  msg.sender */\n      caller\n        /* \"TimeAlly.sol\":13637:13657  stakings[msg.sender] */\n      0xffffffffffffffffffffffffffffffffffffffff\n      and\n      0xffffffffffffffffffffffffffffffffffffffff\n      and\n      dup2\n      mstore\n      0x20\n      add\n      swap1\n      dup2\n      mstore\n      0x20\n      add\n      0x00\n      keccak256\n        /* \"TimeAlly.sol\":13658:13668  _stakingId */\n      dup5\n        /* \"TimeAlly.sol\":13637:13669  stakings[msg.sender][_stakingId] */\n      dup2\n      sload\n      dup2\n      lt\n      tag_281\n      jumpi\n      invalid\n    tag_281:\n      swap1\n      0x00\n      mstore\n      keccak256(0x00, 0x20)\n      swap1\n      0x09\n      mul\n      add\n        /* \"TimeAlly.sol\":13637:13688  stakings[msg.sender][_stakingId].accruedExaEsAmount */\n      0x04\n      add\n        /* \"TimeAlly.sol\":13637:13692  stakings[msg.sender][_stakingId].accruedExaEsAmount = 0 */\n      dup2\n      swap1\n      sstore\n      pop\n        /* \"TimeAlly.sol\":13702:13779  newStaking(... */\n      tag_283\n        /* \"TimeAlly.sol\":13724:13743  _accruedExaEsAmount */\n      dup2\n        /* \"TimeAlly.sol\":13755:13769  _stakingPlanId */\n      dup4\n        /* \"TimeAlly.sol\":13702:13712  newStaking */\n      tag_144\n        /* \"TimeAlly.sol\":13702:13779  newStaking(... */\n      jump\t// in\n    tag_283:\n        /* \"TimeAlly.sol\":13386:13786  function restakeAccrued(uint256 _stakingId, uint256 _stakingPlanId) public {... */\n      pop\n      pop\n      pop\n      jump\t// out\n        /* \"TimeAlly.sol\":8809:9872  function userEffectiveStakingByMonth(address _userAddress, uint256 _atMonth) public view returns (uint256) {... */\n    tag_70:\n        /* \"TimeAlly.sol\":8907:8914  uint256 */\n      0x00\n        /* \"TimeAlly.sol\":9140:9161  uint256 _currentMonth */\n      dup1\n        /* \"TimeAlly.sol\":9164:9181  getCurrentMonth() */\n      tag_285\n        /* \"TimeAlly.sol\":9164:9179  getCurrentMonth */\n      tag_138\n        /* \"TimeAlly.sol\":9164:9181  getCurrentMonth() */\n      jump\t// in\n    tag_285:\n        /* \"TimeAlly.sol\":9140:9181  uint256 _currentMonth = getCurrentMonth() */\n      swap1\n      pop\n        /* \"TimeAlly.sol\":9268:9305  uint256 userActiveStakingsExaEsAmount */\n      0x00\n        /* \"TimeAlly.sol\":9320:9329  uint256 i */\n      dup1\n        /* \"TimeAlly.sol\":9332:9333  0 */\n      0x00\n        /* \"TimeAlly.sol\":9320:9333  uint256 i = 0 */\n      swap1\n      pop\n        /* \"TimeAlly.sol\":9316:9819  for(uint256 i = 0; i < stakings[_userAddress].length; i++) {... */\n    tag_286:\n        /* \"TimeAlly.sol\":9339:9347  stakings */\n      0x08\n        /* \"TimeAlly.sol\":9339:9361  stakings[_userAddress] */\n      0x00\n        /* \"TimeAlly.sol\":9348:9360  _userAddress */\n      dup8\n        /* \"TimeAlly.sol\":9339:9361  stakings[_userAddress] */\n      0xffffffffffffffffffffffffffffffffffffffff\n      and\n      0xffffffffffffffffffffffffffffffffffffffff\n      and\n      dup2\n      mstore\n      0x20\n      add\n      swap1\n      dup2\n      mstore\n      0x20\n      add\n      0x00\n      keccak256\n        /* \"TimeAlly.sol\":9339:9368  stakings[_userAddress].length */\n      dup1\n      sload\n      swap1\n      pop\n        /* \"TimeAlly.sol\":9335:9336  i */\n      dup2\n        /* \"TimeAlly.sol\":9335:9368  i < stakings[_userAddress].length */\n      lt\n        /* \"TimeAlly.sol\":9316:9819  for(uint256 i = 0; i < stakings[_userAddress].length; i++) {... */\n      iszero\n      tag_287\n      jumpi\n        /* \"TimeAlly.sol\":9462:9519  isStakingActive(_userAddress, i, _currentMonth, _atMonth) */\n      tag_289\n        /* \"TimeAlly.sol\":9478:9490  _userAddress */\n      dup7\n        /* \"TimeAlly.sol\":9492:9493  i */\n      dup3\n        /* \"TimeAlly.sol\":9495:9508  _currentMonth */\n      dup6\n        /* \"TimeAlly.sol\":9510:9518  _atMonth */\n      dup9\n        /* \"TimeAlly.sol\":9462:9477  isStakingActive */\n      tag_106\n        /* \"TimeAlly.sol\":9462:9519  isStakingActive(_userAddress, i, _currentMonth, _atMonth) */\n      jump\t// in\n    tag_289:\n        /* \"TimeAlly.sol\":9459:9809  if(isStakingActive(_userAddress, i, _currentMonth, _atMonth)) {... */\n      iszero\n      tag_290\n      jumpi\n        /* \"TimeAlly.sol\":9571:9794  userActiveStakingsExaEsAmount... */\n      tag_291\n        /* \"TimeAlly.sol\":9626:9793  stakings[_userAddress][i].exaEsAmount... */\n      tag_292\n        /* \"TimeAlly.sol\":9790:9792  15 */\n      0x0f\n        /* \"TimeAlly.sol\":9626:9762  stakings[_userAddress][i].exaEsAmount... */\n      tag_293\n        /* \"TimeAlly.sol\":9691:9703  stakingPlans */\n      0x06\n        /* \"TimeAlly.sol\":9705:9713  stakings */\n      0x08\n        /* \"TimeAlly.sol\":9705:9727  stakings[_userAddress] */\n      0x00\n        /* \"TimeAlly.sol\":9714:9726  _userAddress */\n      dup13\n        /* \"TimeAlly.sol\":9705:9727  stakings[_userAddress] */\n      0xffffffffffffffffffffffffffffffffffffffff\n      and\n      0xffffffffffffffffffffffffffffffffffffffff\n      and\n      dup2\n      mstore\n      0x20\n      add\n      swap1\n      dup2\n      mstore\n      0x20\n      add\n      0x00\n      keccak256\n        /* \"TimeAlly.sol\":9728:9729  i */\n      dup7\n        /* \"TimeAlly.sol\":9705:9730  stakings[_userAddress][i] */\n      dup2\n      sload\n      dup2\n      lt\n      tag_294\n      jumpi\n      invalid\n    tag_294:\n      swap1\n      0x00\n      mstore\n      keccak256(0x00, 0x20)\n      swap1\n      0x09\n      mul\n      add\n        /* \"TimeAlly.sol\":9705:9744  stakings[_userAddress][i].stakingPlanId */\n      0x02\n      add\n      sload\n        /* \"TimeAlly.sol\":9691:9746  stakingPlans[ stakings[_userAddress][i].stakingPlanId ] */\n      dup2\n      sload\n      dup2\n      lt\n      tag_296\n      jumpi\n      invalid\n    tag_296:\n      swap1\n      0x00\n      mstore\n      keccak256(0x00, 0x20)\n      swap1\n      0x02\n      mul\n      add\n        /* \"TimeAlly.sol\":9691:9761  stakingPlans[ stakings[_userAddress][i].stakingPlanId ].fractionFrom15 */\n      0x01\n      add\n      sload\n        /* \"TimeAlly.sol\":9626:9634  stakings */\n      0x08\n        /* \"TimeAlly.sol\":9626:9648  stakings[_userAddress] */\n      0x00\n        /* \"TimeAlly.sol\":9635:9647  _userAddress */\n      dup13\n        /* \"TimeAlly.sol\":9626:9648  stakings[_userAddress] */\n      0xffffffffffffffffffffffffffffffffffffffff\n      and\n      0xffffffffffffffffffffffffffffffffffffffff\n      and\n      dup2\n      mstore\n      0x20\n      add\n      swap1\n      dup2\n      mstore\n      0x20\n      add\n      0x00\n      keccak256\n        /* \"TimeAlly.sol\":9649:9650  i */\n      dup7\n        /* \"TimeAlly.sol\":9626:9651  stakings[_userAddress][i] */\n      dup2\n      sload\n      dup2\n      lt\n      tag_298\n      jumpi\n      invalid\n    tag_298:\n      swap1\n      0x00\n      mstore\n      keccak256(0x00, 0x20)\n      swap1\n      0x09\n      mul\n      add\n        /* \"TimeAlly.sol\":9626:9663  stakings[_userAddress][i].exaEsAmount */\n      0x00\n      add\n      sload\n        /* \"TimeAlly.sol\":9626:9690  stakings[_userAddress][i].exaEsAmount... */\n      tag_184\n      swap1\n        /* \"TimeAlly.sol\":9626:9762  stakings[_userAddress][i].exaEsAmount... */\n      swap2\n      swap1\n      0xffffffff\n      and\n      jump\t// in\n    tag_293:\n        /* \"TimeAlly.sol\":9626:9789  stakings[_userAddress][i].exaEsAmount... */\n      tag_185\n      swap1\n        /* \"TimeAlly.sol\":9626:9793  stakings[_userAddress][i].exaEsAmount... */\n      swap2\n      swap1\n      0xffffffff\n      and\n      jump\t// in\n    tag_292:\n        /* \"TimeAlly.sol\":9571:9600  userActiveStakingsExaEsAmount */\n      dup4\n        /* \"TimeAlly.sol\":9571:9625  userActiveStakingsExaEsAmount... */\n      tag_222\n      swap1\n        /* \"TimeAlly.sol\":9571:9794  userActiveStakingsExaEsAmount... */\n      swap2\n      swap1\n      0xffffffff\n      and\n      jump\t// in\n    tag_291:\n        /* \"TimeAlly.sol\":9539:9794  userActiveStakingsExaEsAmount = userActiveStakingsExaEsAmount... */\n      swap2\n      pop\n        /* \"TimeAlly.sol\":9459:9809  if(isStakingActive(_userAddress, i, _currentMonth, _atMonth)) {... */\n    tag_290:\n        /* \"TimeAlly.sol\":9370:9373  i++ */\n      dup1\n      dup1\n      0x01\n      add\n      swap2\n      pop\n      pop\n        /* \"TimeAlly.sol\":9316:9819  for(uint256 i = 0; i < stakings[_userAddress].length; i++) {... */\n      jump(tag_286)\n    tag_287:\n      pop\n        /* \"TimeAlly.sol\":9836:9865  userActiveStakingsExaEsAmount */\n      dup1\n        /* \"TimeAlly.sol\":9829:9865  return userActiveStakingsExaEsAmount */\n      swap3\n      pop\n      pop\n      pop\n        /* \"TimeAlly.sol\":8809:9872  function userEffectiveStakingByMonth(address _userAddress, uint256 _atMonth) public view returns (uint256) {... */\n      swap3\n      swap2\n      pop\n      pop\n      jump\t// out\n        /* \"TimeAlly.sol\":4696:5247  function viewStaking(... */\n    tag_73:\n        /* \"TimeAlly.sol\":4802:4809  uint256 */\n      0x00\n        /* \"TimeAlly.sol\":4811:4818  uint256 */\n      dup1\n        /* \"TimeAlly.sol\":4820:4827  uint256 */\n      0x00\n        /* \"TimeAlly.sol\":4829:4836  uint256 */\n      dup1\n        /* \"TimeAlly.sol\":4838:4845  uint256 */\n      0x00\n        /* \"TimeAlly.sol\":4847:4854  uint256 */\n      dup1\n        /* \"TimeAlly.sol\":4887:4895  stakings */\n      0x08\n        /* \"TimeAlly.sol\":4887:4909  stakings[_userAddress] */\n      0x00\n        /* \"TimeAlly.sol\":4896:4908  _userAddress */\n      dup10\n        /* \"TimeAlly.sol\":4887:4909  stakings[_userAddress] */\n      0xffffffffffffffffffffffffffffffffffffffff\n      and\n      0xffffffffffffffffffffffffffffffffffffffff\n      and\n      dup2\n      mstore\n      0x20\n      add\n      swap1\n      dup2\n      mstore\n      0x20\n      add\n      0x00\n      keccak256\n        /* \"TimeAlly.sol\":4910:4920  _stakingId */\n      dup8\n        /* \"TimeAlly.sol\":4887:4921  stakings[_userAddress][_stakingId] */\n      dup2\n      sload\n      dup2\n      lt\n      tag_301\n      jumpi\n      invalid\n    tag_301:\n      swap1\n      0x00\n      mstore\n      keccak256(0x00, 0x20)\n      swap1\n      0x09\n      mul\n      add\n        /* \"TimeAlly.sol\":4887:4933  stakings[_userAddress][_stakingId].exaEsAmount */\n      0x00\n      add\n      sload\n        /* \"TimeAlly.sol\":4947:4955  stakings */\n      0x08\n        /* \"TimeAlly.sol\":4947:4969  stakings[_userAddress] */\n      0x00\n        /* \"TimeAlly.sol\":4956:4968  _userAddress */\n      dup11\n        /* \"TimeAlly.sol\":4947:4969  stakings[_userAddress] */\n      0xffffffffffffffffffffffffffffffffffffffff\n      and\n      0xffffffffffffffffffffffffffffffffffffffff\n      and\n      dup2\n      mstore\n      0x20\n      add\n      swap1\n      dup2\n      mstore\n      0x20\n      add\n      0x00\n      keccak256\n        /* \"TimeAlly.sol\":4970:4980  _stakingId */\n      dup9\n        /* \"TimeAlly.sol\":4947:4981  stakings[_userAddress][_stakingId] */\n      dup2\n      sload\n      dup2\n      lt\n      tag_303\n      jumpi\n      invalid\n    tag_303:\n      swap1\n      0x00\n      mstore\n      keccak256(0x00, 0x20)\n      swap1\n      0x09\n      mul\n      add\n        /* \"TimeAlly.sol\":4947:4991  stakings[_userAddress][_stakingId].timestamp */\n      0x01\n      add\n      sload\n        /* \"TimeAlly.sol\":5005:5013  stakings */\n      0x08\n        /* \"TimeAlly.sol\":5005:5027  stakings[_userAddress] */\n      0x00\n        /* \"TimeAlly.sol\":5014:5026  _userAddress */\n      dup12\n        /* \"TimeAlly.sol\":5005:5027  stakings[_userAddress] */\n      0xffffffffffffffffffffffffffffffffffffffff\n      and\n      0xffffffffffffffffffffffffffffffffffffffff\n      and\n      dup2\n      mstore\n      0x20\n      add\n      swap1\n      dup2\n      mstore\n      0x20\n      add\n      0x00\n      keccak256\n        /* \"TimeAlly.sol\":5028:5038  _stakingId */\n      dup10\n        /* \"TimeAlly.sol\":5005:5039  stakings[_userAddress][_stakingId] */\n      dup2\n      sload\n      dup2\n      lt\n      tag_305\n      jumpi\n      invalid\n    tag_305:\n      swap1\n      0x00\n      mstore\n      keccak256(0x00, 0x20)\n      swap1\n      0x09\n      mul\n      add\n        /* \"TimeAlly.sol\":5005:5053  stakings[_userAddress][_stakingId].stakingPlanId */\n      0x02\n      add\n      sload\n        /* \"TimeAlly.sol\":5067:5075  stakings */\n      0x08\n        /* \"TimeAlly.sol\":5067:5089  stakings[_userAddress] */\n      0x00\n        /* \"TimeAlly.sol\":5076:5088  _userAddress */\n      dup13\n        /* \"TimeAlly.sol\":5067:5089  stakings[_userAddress] */\n      0xffffffffffffffffffffffffffffffffffffffff\n      and\n      0xffffffffffffffffffffffffffffffffffffffff\n      and\n      dup2\n      mstore\n      0x20\n      add\n      swap1\n      dup2\n      mstore\n      0x20\n      add\n      0x00\n      keccak256\n        /* \"TimeAlly.sol\":5090:5100  _stakingId */\n      dup11\n        /* \"TimeAlly.sol\":5067:5101  stakings[_userAddress][_stakingId] */\n      dup2\n      sload\n      dup2\n      lt\n      tag_307\n      jumpi\n      invalid\n    tag_307:\n      swap1\n      0x00\n      mstore\n      keccak256(0x00, 0x20)\n      swap1\n      0x09\n      mul\n      add\n        /* \"TimeAlly.sol\":5067:5108  stakings[_userAddress][_stakingId].status */\n      0x03\n      add\n      sload\n        /* \"TimeAlly.sol\":5122:5130  stakings */\n      0x08\n        /* \"TimeAlly.sol\":5122:5144  stakings[_userAddress] */\n      0x00\n        /* \"TimeAlly.sol\":5131:5143  _userAddress */\n      dup14\n        /* \"TimeAlly.sol\":5122:5144  stakings[_userAddress] */\n      0xffffffffffffffffffffffffffffffffffffffff\n      and\n      0xffffffffffffffffffffffffffffffffffffffff\n      and\n      dup2\n      mstore\n      0x20\n      add\n      swap1\n      dup2\n      mstore\n      0x20\n      add\n      0x00\n      keccak256\n        /* \"TimeAlly.sol\":5145:5155  _stakingId */\n      dup12\n        /* \"TimeAlly.sol\":5122:5156  stakings[_userAddress][_stakingId] */\n      dup2\n      sload\n      dup2\n      lt\n      tag_309\n      jumpi\n      invalid\n    tag_309:\n      swap1\n      0x00\n      mstore\n      keccak256(0x00, 0x20)\n      swap1\n      0x09\n      mul\n      add\n        /* \"TimeAlly.sol\":5122:5175  stakings[_userAddress][_stakingId].accruedExaEsAmount */\n      0x04\n      add\n      sload\n        /* \"TimeAlly.sol\":5189:5197  stakings */\n      0x08\n        /* \"TimeAlly.sol\":5189:5211  stakings[_userAddress] */\n      0x00\n        /* \"TimeAlly.sol\":5198:5210  _userAddress */\n      dup15\n        /* \"TimeAlly.sol\":5189:5211  stakings[_userAddress] */\n      0xffffffffffffffffffffffffffffffffffffffff\n      and\n      0xffffffffffffffffffffffffffffffffffffffff\n      and\n      dup2\n      mstore\n      0x20\n      add\n      swap1\n      dup2\n      mstore\n      0x20\n      add\n      0x00\n      keccak256\n        /* \"TimeAlly.sol\":5212:5222  _stakingId */\n      dup13\n        /* \"TimeAlly.sol\":5189:5223  stakings[_userAddress][_stakingId] */\n      dup2\n      sload\n      dup2\n      lt\n      tag_311\n      jumpi\n      invalid\n    tag_311:\n      swap1\n      0x00\n      mstore\n      keccak256(0x00, 0x20)\n      swap1\n      0x09\n      mul\n      add\n        /* \"TimeAlly.sol\":5189:5230  stakings[_userAddress][_stakingId].loanId */\n      0x05\n      add\n      sload\n        /* \"TimeAlly.sol\":4866:5240  return (... */\n      swap6\n      pop\n      swap6\n      pop\n      swap6\n      pop\n      swap6\n      pop\n      swap6\n      pop\n      swap6\n      pop\n        /* \"TimeAlly.sol\":4696:5247  function viewStaking(... */\n      swap3\n      swap6\n      pop\n      swap3\n      swap6\n      pop\n      swap3\n      swap6\n      jump\t// out\n        /* \"TimeAlly.sol\":16718:16834  function timeAllyMonthlyNRTArray() public view returns (uint256[] memory) {... */\n    tag_75:\n        /* \"TimeAlly.sol\":16774:16790  uint256[] memory */\n      0x60\n        /* \"TimeAlly.sol\":16809:16827  timeAllyMonthlyNRT */\n      0x05\n        /* \"TimeAlly.sol\":16802:16827  return timeAllyMonthlyNRT */\n      dup1\n      sload\n      dup1\n      0x20\n      mul\n      0x20\n      add\n      mload(0x40)\n      swap1\n      dup2\n      add\n      0x40\n      mstore\n      dup1\n      swap3\n      swap2\n      swap1\n      dup2\n      dup2\n      mstore\n      0x20\n      add\n      dup3\n      dup1\n      sload\n      dup1\n      iszero\n      tag_314\n      jumpi\n      0x20\n      mul\n      dup3\n      add\n      swap2\n      swap1\n      0x00\n      mstore\n      keccak256(0x00, 0x20)\n      swap1\n    tag_315:\n      dup2\n      sload\n      dup2\n      mstore\n      0x20\n      add\n      swap1\n      0x01\n      add\n      swap1\n      dup1\n      dup4\n      gt\n      tag_315\n      jumpi\n    tag_314:\n      pop\n      pop\n      pop\n      pop\n      pop\n      swap1\n      pop\n        /* \"TimeAlly.sol\":16718:16834  function timeAllyMonthlyNRTArray() public view returns (uint256[] memory) {... */\n      swap1\n      jump\t// out\n        /* \"TimeAlly.sol\":1652:1707  mapping (uint256 => uint256) public totalActiveStakings */\n    tag_81:\n      mstore(0x20, 0x0a)\n      dup1\n      0x00\n      mstore\n      keccak256(0x00, 0x40)\n      0x00\n      swap2\n      pop\n      swap1\n      pop\n      sload\n      dup2\n      jump\t// out\n        /* \"TimeAlly.sol\":5253:5471  function topupRewardBucket(uint256 _exaEsAmount) public onlyOwner {... */\n    tag_84:\n        /* \"TimeAlly.sol\":2363:2368  owner */\n      0x00\n      dup1\n      swap1\n      sload\n      swap1\n      0x0100\n      exp\n      swap1\n      div\n      0xffffffffffffffffffffffffffffffffffffffff\n      and\n        /* \"TimeAlly.sol\":2349:2368  msg.sender == owner */\n      0xffffffffffffffffffffffffffffffffffffffff\n      and\n        /* \"TimeAlly.sol\":2349:2359  msg.sender */\n      caller\n        /* \"TimeAlly.sol\":2349:2368  msg.sender == owner */\n      0xffffffffffffffffffffffffffffffffffffffff\n      and\n      eq\n        /* \"TimeAlly.sol\":2341:2395  require(msg.sender == owner, 'only deployer can call') */\n      tag_317\n      jumpi\n      mload(0x40)\n      0x08c379a000000000000000000000000000000000000000000000000000000000\n      dup2\n      mstore\n      0x04\n      add\n      dup1\n      dup1\n      0x20\n      add\n      dup3\n      dup2\n      sub\n      dup3\n      mstore\n      0x16\n      dup2\n      mstore\n      0x20\n      add\n      dup1\n      0x6f6e6c79206465706c6f7965722063616e2063616c6c00000000000000000000\n      dup2\n      mstore\n      pop\n      0x20\n      add\n      swap2\n      pop\n      pop\n      mload(0x40)\n      dup1\n      swap2\n      sub\n      swap1\n      revert\n    tag_317:\n        /* \"TimeAlly.sol\":5337:5342  token */\n      0x01\n      0x00\n      swap1\n      sload\n      swap1\n      0x0100\n      exp\n      swap1\n      div\n      0xffffffffffffffffffffffffffffffffffffffff\n      and\n        /* \"TimeAlly.sol\":5337:5355  token.transferFrom */\n      0xffffffffffffffffffffffffffffffffffffffff\n      and\n      0x23b872dd\n        /* \"TimeAlly.sol\":5356:5366  msg.sender */\n      caller\n        /* \"TimeAlly.sol\":5376:5380  this */\n      address\n        /* \"TimeAlly.sol\":5383:5395  _exaEsAmount */\n      dup5\n        /* \"TimeAlly.sol\":5337:5396  token.transferFrom(msg.sender, address(this), _exaEsAmount) */\n      mload(0x40)\n      dup5\n      0xffffffff\n      and\n      0xe0\n      shl\n      dup2\n      mstore\n      0x04\n      add\n      dup1\n      dup5\n      0xffffffffffffffffffffffffffffffffffffffff\n      and\n      0xffffffffffffffffffffffffffffffffffffffff\n      and\n      dup2\n      mstore\n      0x20\n      add\n      dup4\n      0xffffffffffffffffffffffffffffffffffffffff\n      and\n      0xffffffffffffffffffffffffffffffffffffffff\n      and\n      dup2\n      mstore\n      0x20\n      add\n      dup3\n      dup2\n      mstore\n      0x20\n      add\n      swap4\n      pop\n      pop\n      pop\n      pop\n      0x20\n      mload(0x40)\n      dup1\n      dup4\n      sub\n      dup2\n      0x00\n      dup8\n      dup1\n      extcodesize\n      iszero\n        /* \"--CODEGEN--\":8:17   */\n      dup1\n        /* \"--CODEGEN--\":5:7   */\n      iszero\n      tag_319\n      jumpi\n        /* \"--CODEGEN--\":30:31   */\n      0x00\n        /* \"--CODEGEN--\":27:28   */\n      dup1\n        /* \"--CODEGEN--\":20:32   */\n      revert\n        /* \"--CODEGEN--\":5:7   */\n    tag_319:\n        /* \"TimeAlly.sol\":5337:5396  token.transferFrom(msg.sender, address(this), _exaEsAmount) */\n      pop\n      gas\n      call\n      iszero\n        /* \"--CODEGEN--\":8:17   */\n      dup1\n        /* \"--CODEGEN--\":5:7   */\n      iszero\n      tag_320\n      jumpi\n        /* \"--CODEGEN--\":45:61   */\n      returndatasize\n        /* \"--CODEGEN--\":42:43   */\n      0x00\n        /* \"--CODEGEN--\":39:40   */\n      dup1\n        /* \"--CODEGEN--\":24:62   */\n      returndatacopy\n        /* \"--CODEGEN--\":77:93   */\n      returndatasize\n        /* \"--CODEGEN--\":74:75   */\n      0x00\n        /* \"--CODEGEN--\":67:94   */\n      revert\n        /* \"--CODEGEN--\":5:7   */\n    tag_320:\n        /* \"TimeAlly.sol\":5337:5396  token.transferFrom(msg.sender, address(this), _exaEsAmount) */\n      pop\n      pop\n      pop\n      pop\n      mload(0x40)\n      returndatasize\n        /* \"--CODEGEN--\":13:15   */\n      0x20\n        /* \"--CODEGEN--\":8:11   */\n      dup2\n        /* \"--CODEGEN--\":5:16   */\n      lt\n        /* \"--CODEGEN--\":2:4   */\n      iszero\n      tag_321\n      jumpi\n        /* \"--CODEGEN--\":29:30   */\n      0x00\n        /* \"--CODEGEN--\":26:27   */\n      dup1\n        /* \"--CODEGEN--\":19:31   */\n      revert\n        /* \"--CODEGEN--\":2:4   */\n    tag_321:\n        /* \"TimeAlly.sol\":5337:5396  token.transferFrom(msg.sender, address(this), _exaEsAmount) */\n      dup2\n      add\n      swap1\n      dup1\n      dup1\n      mload\n      swap1\n      0x20\n      add\n      swap1\n      swap3\n      swap2\n      swap1\n      pop\n      pop\n      pop\n        /* \"TimeAlly.sol\":5329:5397  require(token.transferFrom(msg.sender, address(this), _exaEsAmount)) */\n      tag_322\n      jumpi\n      0x00\n      dup1\n      revert\n    tag_322:\n        /* \"TimeAlly.sol\":5428:5464  launchRewardBucket.add(_exaEsAmount) */\n      tag_323\n        /* \"TimeAlly.sol\":5451:5463  _exaEsAmount */\n      dup2\n        /* \"TimeAlly.sol\":5428:5446  launchRewardBucket */\n      sload(0x0b)\n        /* \"TimeAlly.sol\":5428:5450  launchRewardBucket.add */\n      tag_222\n      swap1\n        /* \"TimeAlly.sol\":5428:5464  launchRewardBucket.add(_exaEsAmount) */\n      swap2\n      swap1\n      0xffffffff\n      and\n      jump\t// in\n    tag_323:\n        /* \"TimeAlly.sol\":5407:5425  launchRewardBucket */\n      0x0b\n        /* \"TimeAlly.sol\":5407:5464  launchRewardBucket = launchRewardBucket.add(_exaEsAmount) */\n      dup2\n      swap1\n      sstore\n      pop\n        /* \"TimeAlly.sol\":5253:5471  function topupRewardBucket(uint256 _exaEsAmount) public onlyOwner {... */\n      pop\n      jump\t// out\n        /* \"TimeAlly.sol\":1153:1197  uint256 public earthSecondsInMonth = 2629744 */\n    tag_86:\n      sload(0x04)\n      dup2\n      jump\t// out\n        /* \"TimeAlly.sol\":5477:5805  function giveLaunchReward(address[] memory _addresses, uint256 _exaEsAmount) public onlyOwner {... */\n    tag_92:\n        /* \"TimeAlly.sol\":2363:2368  owner */\n      0x00\n      dup1\n      swap1\n      sload\n      swap1\n      0x0100\n      exp\n      swap1\n      div\n      0xffffffffffffffffffffffffffffffffffffffff\n      and\n        /* \"TimeAlly.sol\":2349:2368  msg.sender == owner */\n      0xffffffffffffffffffffffffffffffffffffffff\n      and\n        /* \"TimeAlly.sol\":2349:2359  msg.sender */\n      caller\n        /* \"TimeAlly.sol\":2349:2368  msg.sender == owner */\n      0xffffffffffffffffffffffffffffffffffffffff\n      and\n      eq\n        /* \"TimeAlly.sol\":2341:2395  require(msg.sender == owner, 'only deployer can call') */\n      tag_325\n      jumpi\n      mload(0x40)\n      0x08c379a000000000000000000000000000000000000000000000000000000000\n      dup2\n      mstore\n      0x04\n      add\n      dup1\n      dup1\n      0x20\n      add\n      dup3\n      dup2\n      sub\n      dup3\n      mstore\n      0x16\n      dup2\n      mstore\n      0x20\n      add\n      dup1\n      0x6f6e6c79206465706c6f7965722063616e2063616c6c00000000000000000000\n      dup2\n      mstore\n      pop\n      0x20\n      add\n      swap2\n      pop\n      pop\n      mload(0x40)\n      dup1\n      swap2\n      sub\n      swap1\n      revert\n    tag_325:\n        /* \"TimeAlly.sol\":5585:5594  uint256 i */\n      0x00\n        /* \"TimeAlly.sol\":5597:5598  0 */\n      dup1\n        /* \"TimeAlly.sol\":5585:5598  uint256 i = 0 */\n      swap1\n      pop\n        /* \"TimeAlly.sol\":5581:5799  for(uint256 i = 0; i < _addresses.length; i++) {... */\n    tag_327:\n        /* \"TimeAlly.sol\":5604:5614  _addresses */\n      dup3\n        /* \"TimeAlly.sol\":5604:5621  _addresses.length */\n      mload\n        /* \"TimeAlly.sol\":5600:5601  i */\n      dup2\n        /* \"TimeAlly.sol\":5600:5621  i < _addresses.length */\n      lt\n        /* \"TimeAlly.sol\":5581:5799  for(uint256 i = 0; i < _addresses.length; i++) {... */\n      iszero\n      tag_328\n      jumpi\n        /* \"TimeAlly.sol\":5663:5699  launchRewardBucket.sub(_exaEsAmount) */\n      tag_330\n        /* \"TimeAlly.sol\":5686:5698  _exaEsAmount */\n      dup3\n        /* \"TimeAlly.sol\":5663:5681  launchRewardBucket */\n      sload(0x0b)\n        /* \"TimeAlly.sol\":5663:5685  launchRewardBucket.sub */\n      tag_174\n      swap1\n        /* \"TimeAlly.sol\":5663:5699  launchRewardBucket.sub(_exaEsAmount) */\n      swap2\n      swap1\n      0xffffffff\n      and\n      jump\t// in\n    tag_330:\n        /* \"TimeAlly.sol\":5642:5660  launchRewardBucket */\n      0x0b\n        /* \"TimeAlly.sol\":5642:5699  launchRewardBucket = launchRewardBucket.sub(_exaEsAmount) */\n      dup2\n      swap1\n      sstore\n      pop\n        /* \"TimeAlly.sol\":5743:5788  launchReward[_addresses[i]].add(_exaEsAmount) */\n      tag_331\n        /* \"TimeAlly.sol\":5775:5787  _exaEsAmount */\n      dup3\n        /* \"TimeAlly.sol\":5743:5755  launchReward */\n      0x0c\n        /* \"TimeAlly.sol\":5743:5770  launchReward[_addresses[i]] */\n      0x00\n        /* \"TimeAlly.sol\":5756:5766  _addresses */\n      dup7\n        /* \"TimeAlly.sol\":5767:5768  i */\n      dup6\n        /* \"TimeAlly.sol\":5756:5769  _addresses[i] */\n      dup2\n      mload\n      dup2\n      lt\n      tag_332\n      jumpi\n      invalid\n    tag_332:\n      0x20\n      mul\n      0x20\n      add\n      add\n      mload\n        /* \"TimeAlly.sol\":5743:5770  launchReward[_addresses[i]] */\n      0xffffffffffffffffffffffffffffffffffffffff\n      and\n      0xffffffffffffffffffffffffffffffffffffffff\n      and\n      dup2\n      mstore\n      0x20\n      add\n      swap1\n      dup2\n      mstore\n      0x20\n      add\n      0x00\n      keccak256\n      sload\n        /* \"TimeAlly.sol\":5743:5774  launchReward[_addresses[i]].add */\n      tag_222\n      swap1\n        /* \"TimeAlly.sol\":5743:5788  launchReward[_addresses[i]].add(_exaEsAmount) */\n      swap2\n      swap1\n      0xffffffff\n      and\n      jump\t// in\n    tag_331:\n        /* \"TimeAlly.sol\":5713:5725  launchReward */\n      0x0c\n        /* \"TimeAlly.sol\":5713:5740  launchReward[_addresses[i]] */\n      0x00\n        /* \"TimeAlly.sol\":5726:5736  _addresses */\n      dup6\n        /* \"TimeAlly.sol\":5737:5738  i */\n      dup5\n        /* \"TimeAlly.sol\":5726:5739  _addresses[i] */\n      dup2\n      mload\n      dup2\n      lt\n      tag_333\n      jumpi\n      invalid\n    tag_333:\n      0x20\n      mul\n      0x20\n      add\n      add\n      mload\n        /* \"TimeAlly.sol\":5713:5740  launchReward[_addresses[i]] */\n      0xffffffffffffffffffffffffffffffffffffffff\n      and\n      0xffffffffffffffffffffffffffffffffffffffff\n      and\n      dup2\n      mstore\n      0x20\n      add\n      swap1\n      dup2\n      mstore\n      0x20\n      add\n      0x00\n      keccak256\n        /* \"TimeAlly.sol\":5713:5788  launchReward[_addresses[i]] = launchReward[_addresses[i]].add(_exaEsAmount) */\n      dup2\n      swap1\n      sstore\n      pop\n        /* \"TimeAlly.sol\":5623:5626  i++ */\n      dup1\n      dup1\n      0x01\n      add\n      swap2\n      pop\n      pop\n        /* \"TimeAlly.sol\":5581:5799  for(uint256 i = 0; i < _addresses.length; i++) {... */\n      jump(tag_327)\n    tag_328:\n      pop\n        /* \"TimeAlly.sol\":5477:5805  function giveLaunchReward(address[] memory _addresses, uint256 _exaEsAmount) public onlyOwner {... */\n      pop\n      pop\n      jump\t// out\n        /* \"TimeAlly.sol\":1388:1421  StakingPlan[] public stakingPlans */\n    tag_95:\n      0x06\n      dup2\n      dup2\n      sload\n      dup2\n      lt\n      tag_334\n      jumpi\n      invalid\n    tag_334:\n      swap1\n      0x00\n      mstore\n      keccak256(0x00, 0x20)\n      swap1\n      0x02\n      mul\n      add\n      0x00\n      swap2\n      pop\n      swap1\n      pop\n      dup1\n      0x00\n      add\n      sload\n      swap1\n      dup1\n      0x01\n      add\n      sload\n      swap1\n      pop\n      dup3\n      jump\t// out\n        /* \"TimeAlly.sol\":1753:1800  mapping(address => uint256) public launchReward */\n    tag_98:\n      mstore(0x20, 0x0c)\n      dup1\n      0x00\n      mstore\n      keccak256(0x00, 0x40)\n      0x00\n      swap2\n      pop\n      swap1\n      pop\n      sload\n      dup2\n      jump\t// out\n        /* \"TimeAlly.sol\":3154:3358  function createLoanPlan(uint256 _loanMonths, uint256 _loanRate) public onlyOwner {... */\n    tag_101:\n        /* \"TimeAlly.sol\":2363:2368  owner */\n      0x00\n      dup1\n      swap1\n      sload\n      swap1\n      0x0100\n      exp\n      swap1\n      div\n      0xffffffffffffffffffffffffffffffffffffffff\n      and\n        /* \"TimeAlly.sol\":2349:2368  msg.sender == owner */\n      0xffffffffffffffffffffffffffffffffffffffff\n      and\n        /* \"TimeAlly.sol\":2349:2359  msg.sender */\n      caller\n        /* \"TimeAlly.sol\":2349:2368  msg.sender == owner */\n      0xffffffffffffffffffffffffffffffffffffffff\n      and\n      eq\n        /* \"TimeAlly.sol\":2341:2395  require(msg.sender == owner, 'only deployer can call') */\n      tag_337\n      jumpi\n      mload(0x40)\n      0x08c379a000000000000000000000000000000000000000000000000000000000\n      dup2\n      mstore\n      0x04\n      add\n      dup1\n      dup1\n      0x20\n      add\n      dup3\n      dup2\n      sub\n      dup3\n      mstore\n      0x16\n      dup2\n      mstore\n      0x20\n      add\n      dup1\n      0x6f6e6c79206465706c6f7965722063616e2063616c6c00000000000000000000\n      dup2\n      mstore\n      pop\n      0x20\n      add\n      swap2\n      pop\n      pop\n      mload(0x40)\n      dup1\n      swap2\n      sub\n      swap1\n      revert\n    tag_337:\n        /* \"TimeAlly.sol\":3245:3254  loanPlans */\n      0x07\n        /* \"TimeAlly.sol\":3260:3350  LoanPlan({... */\n      mload(0x40)\n      dup1\n      0x40\n      add\n      0x40\n      mstore\n      dup1\n        /* \"TimeAlly.sol\":3295:3306  _loanMonths */\n      dup5\n        /* \"TimeAlly.sol\":3260:3350  LoanPlan({... */\n      dup2\n      mstore\n      0x20\n      add\n        /* \"TimeAlly.sol\":3330:3339  _loanRate */\n      dup4\n        /* \"TimeAlly.sol\":3260:3350  LoanPlan({... */\n      dup2\n      mstore\n      pop\n        /* \"TimeAlly.sol\":3245:3351  loanPlans.push(LoanPlan({... */\n      swap1\n      dup1\n        /* \"--CODEGEN--\":39:40   */\n      0x01\n        /* \"--CODEGEN--\":33:36   */\n      dup2\n        /* \"--CODEGEN--\":27:37   */\n      sload\n        /* \"--CODEGEN--\":23:41   */\n      add\n        /* \"--CODEGEN--\":57:67   */\n      dup1\n        /* \"--CODEGEN--\":52:55   */\n      dup3\n        /* \"--CODEGEN--\":45:68   */\n      sstore\n        /* \"--CODEGEN--\":79:89   */\n      dup1\n        /* \"--CODEGEN--\":72:89   */\n      swap2\n      pop\n        /* \"--CODEGEN--\":0:93   */\n      pop\n        /* \"TimeAlly.sol\":3245:3351  loanPlans.push(LoanPlan({... */\n      swap1\n      0x01\n      dup3\n      sub\n      swap1\n      0x00\n      mstore\n      keccak256(0x00, 0x20)\n      swap1\n      0x02\n      mul\n      add\n      0x00\n      swap1\n      swap2\n      swap3\n      swap1\n      swap2\n      swap1\n      swap2\n      pop\n      0x00\n      dup3\n      add\n      mload\n      dup2\n      0x00\n      add\n      sstore\n      0x20\n      dup3\n      add\n      mload\n      dup2\n      0x01\n      add\n      sstore\n      pop\n      pop\n      pop\n        /* \"TimeAlly.sol\":3154:3358  function createLoanPlan(uint256 _loanMonths, uint256 _loanRate) public onlyOwner {... */\n      pop\n      pop\n      jump\t// out\n        /* \"TimeAlly.sol\":1028:1048  address public owner */\n    tag_103:\n      0x00\n      dup1\n      swap1\n      sload\n      swap1\n      0x0100\n      exp\n      swap1\n      div\n      0xffffffffffffffffffffffffffffffffffffffff\n      and\n      dup2\n      jump\t// out\n        /* \"TimeAlly.sol\":7024:7733  function isStakingActive(address _userAddress, uint256 _stakingId, uint256 _currentMonth, uint256 _atMonth) public view returns (bool) {... */\n    tag_106:\n        /* \"TimeAlly.sol\":7153:7157  bool */\n      0x00\n        /* \"TimeAlly.sol\":7167:7187  uint256 stakingMonth */\n      dup1\n        /* \"TimeAlly.sol\":7190:7282  stakings[_userAddress][_stakingId].timestamp.sub(deployedTimestamp).div(earthSecondsInMonth) */\n      tag_341\n        /* \"TimeAlly.sol\":7262:7281  earthSecondsInMonth */\n      sload(0x04)\n        /* \"TimeAlly.sol\":7190:7257  stakings[_userAddress][_stakingId].timestamp.sub(deployedTimestamp) */\n      tag_342\n        /* \"TimeAlly.sol\":7239:7256  deployedTimestamp */\n      sload(0x03)\n        /* \"TimeAlly.sol\":7190:7198  stakings */\n      0x08\n        /* \"TimeAlly.sol\":7190:7212  stakings[_userAddress] */\n      0x00\n        /* \"TimeAlly.sol\":7199:7211  _userAddress */\n      dup12\n        /* \"TimeAlly.sol\":7190:7212  stakings[_userAddress] */\n      0xffffffffffffffffffffffffffffffffffffffff\n      and\n      0xffffffffffffffffffffffffffffffffffffffff\n      and\n      dup2\n      mstore\n      0x20\n      add\n      swap1\n      dup2\n      mstore\n      0x20\n      add\n      0x00\n      keccak256\n        /* \"TimeAlly.sol\":7213:7223  _stakingId */\n      dup10\n        /* \"TimeAlly.sol\":7190:7224  stakings[_userAddress][_stakingId] */\n      dup2\n      sload\n      dup2\n      lt\n      tag_343\n      jumpi\n      invalid\n    tag_343:\n      swap1\n      0x00\n      mstore\n      keccak256(0x00, 0x20)\n      swap1\n      0x09\n      mul\n      add\n        /* \"TimeAlly.sol\":7190:7234  stakings[_userAddress][_stakingId].timestamp */\n      0x01\n      add\n      sload\n        /* \"TimeAlly.sol\":7190:7238  stakings[_userAddress][_stakingId].timestamp.sub */\n      tag_174\n      swap1\n        /* \"TimeAlly.sol\":7190:7257  stakings[_userAddress][_stakingId].timestamp.sub(deployedTimestamp) */\n      swap2\n      swap1\n      0xffffffff\n      and\n      jump\t// in\n    tag_342:\n        /* \"TimeAlly.sol\":7190:7261  stakings[_userAddress][_stakingId].timestamp.sub(deployedTimestamp).div */\n      tag_185\n      swap1\n        /* \"TimeAlly.sol\":7190:7282  stakings[_userAddress][_stakingId].timestamp.sub(deployedTimestamp).div(earthSecondsInMonth) */\n      swap2\n      swap1\n      0xffffffff\n      and\n      jump\t// in\n    tag_341:\n        /* \"TimeAlly.sol\":7167:7282  uint256 stakingMonth = stakings[_userAddress][_stakingId].timestamp.sub(deployedTimestamp).div(earthSecondsInMonth) */\n      swap1\n      pop\n        /* \"TimeAlly.sol\":7328:7336  _atMonth */\n      dup3\n        /* \"TimeAlly.sol\":7323:7324  1 */\n      0x01\n        /* \"TimeAlly.sol\":7308:7320  stakingMonth */\n      dup3\n        /* \"TimeAlly.sol\":7308:7324  stakingMonth + 1 */\n      add\n        /* \"TimeAlly.sol\":7308:7336  stakingMonth + 1 <= _atMonth */\n      gt\n      iszero\n        /* \"TimeAlly.sol\":7308:7438  stakingMonth + 1 <= _atMonth && stakingMonth + stakingPlans[ stakings[_userAddress][_stakingId].stakingPlanId ].months >= _atMonth */\n      dup1\n      iszero\n      tag_345\n      jumpi\n      pop\n        /* \"TimeAlly.sol\":7430:7438  _atMonth */\n      dup3\n        /* \"TimeAlly.sol\":7355:7367  stakingPlans */\n      0x06\n        /* \"TimeAlly.sol\":7369:7377  stakings */\n      0x08\n        /* \"TimeAlly.sol\":7369:7391  stakings[_userAddress] */\n      0x00\n        /* \"TimeAlly.sol\":7378:7390  _userAddress */\n      dup10\n        /* \"TimeAlly.sol\":7369:7391  stakings[_userAddress] */\n      0xffffffffffffffffffffffffffffffffffffffff\n      and\n      0xffffffffffffffffffffffffffffffffffffffff\n      and\n      dup2\n      mstore\n      0x20\n      add\n      swap1\n      dup2\n      mstore\n      0x20\n      add\n      0x00\n      keccak256\n        /* \"TimeAlly.sol\":7392:7402  _stakingId */\n      dup8\n        /* \"TimeAlly.sol\":7369:7403  stakings[_userAddress][_stakingId] */\n      dup2\n      sload\n      dup2\n      lt\n      tag_346\n      jumpi\n      invalid\n    tag_346:\n      swap1\n      0x00\n      mstore\n      keccak256(0x00, 0x20)\n      swap1\n      0x09\n      mul\n      add\n        /* \"TimeAlly.sol\":7369:7417  stakings[_userAddress][_stakingId].stakingPlanId */\n      0x02\n      add\n      sload\n        /* \"TimeAlly.sol\":7355:7419  stakingPlans[ stakings[_userAddress][_stakingId].stakingPlanId ] */\n      dup2\n      sload\n      dup2\n      lt\n      tag_348\n      jumpi\n      invalid\n    tag_348:\n      swap1\n      0x00\n      mstore\n      keccak256(0x00, 0x20)\n      swap1\n      0x02\n      mul\n      add\n        /* \"TimeAlly.sol\":7355:7426  stakingPlans[ stakings[_userAddress][_stakingId].stakingPlanId ].months */\n      0x00\n      add\n      sload\n        /* \"TimeAlly.sol\":7340:7352  stakingMonth */\n      dup3\n        /* \"TimeAlly.sol\":7340:7426  stakingMonth + stakingPlans[ stakings[_userAddress][_stakingId].stakingPlanId ].months */\n      add\n        /* \"TimeAlly.sol\":7340:7438  stakingMonth + stakingPlans[ stakings[_userAddress][_stakingId].stakingPlanId ].months >= _atMonth */\n      lt\n      iszero\n        /* \"TimeAlly.sol\":7308:7438  stakingMonth + 1 <= _atMonth && stakingMonth + stakingPlans[ stakings[_userAddress][_stakingId].stakingPlanId ].months >= _atMonth */\n    tag_345:\n        /* \"TimeAlly.sol\":7308:7496  stakingMonth + 1 <= _atMonth && stakingMonth + stakingPlans[ stakings[_userAddress][_stakingId].stakingPlanId ].months >= _atMonth... */\n      dup1\n      iszero\n      tag_350\n      jumpi\n      pop\n        /* \"TimeAlly.sol\":7495:7496  1 */\n      0x01\n        /* \"TimeAlly.sol\":7450:7458  stakings */\n      0x08\n        /* \"TimeAlly.sol\":7450:7472  stakings[_userAddress] */\n      0x00\n        /* \"TimeAlly.sol\":7459:7471  _userAddress */\n      dup9\n        /* \"TimeAlly.sol\":7450:7472  stakings[_userAddress] */\n      0xffffffffffffffffffffffffffffffffffffffff\n      and\n      0xffffffffffffffffffffffffffffffffffffffff\n      and\n      dup2\n      mstore\n      0x20\n      add\n      swap1\n      dup2\n      mstore\n      0x20\n      add\n      0x00\n      keccak256\n        /* \"TimeAlly.sol\":7473:7483  _stakingId */\n      dup7\n        /* \"TimeAlly.sol\":7450:7484  stakings[_userAddress][_stakingId] */\n      dup2\n      sload\n      dup2\n      lt\n      tag_351\n      jumpi\n      invalid\n    tag_351:\n      swap1\n      0x00\n      mstore\n      keccak256(0x00, 0x20)\n      swap1\n      0x09\n      mul\n      add\n        /* \"TimeAlly.sol\":7450:7491  stakings[_userAddress][_stakingId].status */\n      0x03\n      add\n      sload\n        /* \"TimeAlly.sol\":7450:7496  stakings[_userAddress][_stakingId].status == 1 */\n      eq\n        /* \"TimeAlly.sol\":7308:7496  stakingMonth + 1 <= _atMonth && stakingMonth + stakingPlans[ stakings[_userAddress][_stakingId].stakingPlanId ].months >= _atMonth... */\n    tag_350:\n        /* \"TimeAlly.sol\":7308:7716  stakingMonth + 1 <= _atMonth && stakingMonth + stakingPlans[ stakings[_userAddress][_stakingId].stakingPlanId ].months >= _atMonth... */\n      dup1\n      iszero\n      tag_353\n      jumpi\n      pop\n        /* \"TimeAlly.sol\":7537:7545  _atMonth */\n      dup3\n        /* \"TimeAlly.sol\":7520:7533  _currentMonth */\n      dup5\n        /* \"TimeAlly.sol\":7520:7545  _currentMonth != _atMonth */\n      eq\n      iszero\n        /* \"TimeAlly.sol\":7520:7704  _currentMonth != _atMonth... */\n      dup1\n      tag_354\n      jumpi\n      pop\n        /* \"TimeAlly.sol\":7574:7704  stakings[_userAddress][_stakingId].timestamp... */\n      tag_355\n        /* \"TimeAlly.sol\":7647:7702  (_currentMonth - stakingMonth).mul(earthSecondsInMonth) */\n      tag_356\n        /* \"TimeAlly.sol\":7682:7701  earthSecondsInMonth */\n      sload(0x04)\n        /* \"TimeAlly.sol\":7664:7676  stakingMonth */\n      dup4\n        /* \"TimeAlly.sol\":7648:7661  _currentMonth */\n      dup8\n        /* \"TimeAlly.sol\":7648:7676  _currentMonth - stakingMonth */\n      sub\n        /* \"TimeAlly.sol\":7647:7681  (_currentMonth - stakingMonth).mul */\n      tag_184\n      swap1\n        /* \"TimeAlly.sol\":7647:7702  (_currentMonth - stakingMonth).mul(earthSecondsInMonth) */\n      swap2\n      swap1\n      0xffffffff\n      and\n      jump\t// in\n    tag_356:\n        /* \"TimeAlly.sol\":7574:7582  stakings */\n      0x08\n        /* \"TimeAlly.sol\":7574:7596  stakings[_userAddress] */\n      0x00\n        /* \"TimeAlly.sol\":7583:7595  _userAddress */\n      dup10\n        /* \"TimeAlly.sol\":7574:7596  stakings[_userAddress] */\n      0xffffffffffffffffffffffffffffffffffffffff\n      and\n      0xffffffffffffffffffffffffffffffffffffffff\n      and\n      dup2\n      mstore\n      0x20\n      add\n      swap1\n      dup2\n      mstore\n      0x20\n      add\n      0x00\n      keccak256\n        /* \"TimeAlly.sol\":7597:7607  _stakingId */\n      dup8\n        /* \"TimeAlly.sol\":7574:7608  stakings[_userAddress][_stakingId] */\n      dup2\n      sload\n      dup2\n      lt\n      tag_357\n      jumpi\n      invalid\n    tag_357:\n      swap1\n      0x00\n      mstore\n      keccak256(0x00, 0x20)\n      swap1\n      0x09\n      mul\n      add\n        /* \"TimeAlly.sol\":7574:7618  stakings[_userAddress][_stakingId].timestamp */\n      0x01\n      add\n      sload\n        /* \"TimeAlly.sol\":7574:7645  stakings[_userAddress][_stakingId].timestamp... */\n      tag_222\n      swap1\n        /* \"TimeAlly.sol\":7574:7704  stakings[_userAddress][_stakingId].timestamp... */\n      swap2\n      swap1\n      0xffffffff\n      and\n      jump\t// in\n    tag_355:\n        /* \"TimeAlly.sol\":7559:7564  token */\n      0x01\n      0x00\n      swap1\n      sload\n      swap1\n      0x0100\n      exp\n      swap1\n      div\n      0xffffffffffffffffffffffffffffffffffffffff\n      and\n        /* \"TimeAlly.sol\":7559:7568  token.mou */\n      0xffffffffffffffffffffffffffffffffffffffff\n      and\n      0xb81f90f3\n        /* \"TimeAlly.sol\":7559:7570  token.mou() */\n      mload(0x40)\n      dup2\n      0xffffffff\n      and\n      0xe0\n      shl\n      dup2\n      mstore\n      0x04\n      add\n      0x20\n      mload(0x40)\n      dup1\n      dup4\n      sub\n      dup2\n      dup7\n      dup1\n      extcodesize\n      iszero\n        /* \"--CODEGEN--\":8:17   */\n      dup1\n        /* \"--CODEGEN--\":5:7   */\n      iszero\n      tag_359\n      jumpi\n        /* \"--CODEGEN--\":30:31   */\n      0x00\n        /* \"--CODEGEN--\":27:28   */\n      dup1\n        /* \"--CODEGEN--\":20:32   */\n      revert\n        /* \"--CODEGEN--\":5:7   */\n    tag_359:\n        /* \"TimeAlly.sol\":7559:7570  token.mou() */\n      pop\n      gas\n      staticcall\n      iszero\n        /* \"--CODEGEN--\":8:17   */\n      dup1\n        /* \"--CODEGEN--\":5:7   */\n      iszero\n      tag_360\n      jumpi\n        /* \"--CODEGEN--\":45:61   */\n      returndatasize\n        /* \"--CODEGEN--\":42:43   */\n      0x00\n        /* \"--CODEGEN--\":39:40   */\n      dup1\n        /* \"--CODEGEN--\":24:62   */\n      returndatacopy\n        /* \"--CODEGEN--\":77:93   */\n      returndatasize\n        /* \"--CODEGEN--\":74:75   */\n      0x00\n        /* \"--CODEGEN--\":67:94   */\n      revert\n        /* \"--CODEGEN--\":5:7   */\n    tag_360:\n        /* \"TimeAlly.sol\":7559:7570  token.mou() */\n      pop\n      pop\n      pop\n      pop\n      mload(0x40)\n      returndatasize\n        /* \"--CODEGEN--\":13:15   */\n      0x20\n        /* \"--CODEGEN--\":8:11   */\n      dup2\n        /* \"--CODEGEN--\":5:16   */\n      lt\n        /* \"--CODEGEN--\":2:4   */\n      iszero\n      tag_361\n      jumpi\n        /* \"--CODEGEN--\":29:30   */\n      0x00\n        /* \"--CODEGEN--\":26:27   */\n      dup1\n        /* \"--CODEGEN--\":19:31   */\n      revert\n        /* \"--CODEGEN--\":2:4   */\n    tag_361:\n        /* \"TimeAlly.sol\":7559:7570  token.mou() */\n      dup2\n      add\n      swap1\n      dup1\n      dup1\n      mload\n      swap1\n      0x20\n      add\n      swap1\n      swap3\n      swap2\n      swap1\n      pop\n      pop\n      pop\n        /* \"TimeAlly.sol\":7559:7704  token.mou() >= stakings[_userAddress][_stakingId].timestamp... */\n      lt\n      iszero\n        /* \"TimeAlly.sol\":7520:7704  _currentMonth != _atMonth... */\n    tag_354:\n        /* \"TimeAlly.sol\":7308:7716  stakingMonth + 1 <= _atMonth && stakingMonth + stakingPlans[ stakings[_userAddress][_stakingId].stakingPlanId ].months >= _atMonth... */\n    tag_353:\n        /* \"TimeAlly.sol\":7291:7726  return (... */\n      swap2\n      pop\n      pop\n        /* \"TimeAlly.sol\":7024:7733  function isStakingActive(address _userAddress, uint256 _stakingId, uint256 _currentMonth, uint256 _atMonth) public view returns (bool) {... */\n      swap5\n      swap4\n      pop\n      pop\n      pop\n      pop\n      jump\t// out\n        /* \"TimeAlly.sol\":1542:1581  mapping(address => Loan[]) public loans */\n    tag_109:\n      mstore(0x20, 0x09)\n      dup2\n      0x00\n      mstore\n      keccak256(0x00, 0x40)\n      dup2\n      dup2\n      sload\n      dup2\n      lt\n      tag_362\n      jumpi\n      invalid\n    tag_362:\n      swap1\n      0x00\n      mstore\n      keccak256(0x00, 0x20)\n      swap1\n      0x05\n      mul\n      add\n      0x00\n      swap2\n      pop\n      swap2\n      pop\n      pop\n      dup1\n      0x00\n      add\n      sload\n      swap1\n      dup1\n      0x01\n      add\n      sload\n      swap1\n      dup1\n      0x02\n      add\n      sload\n      swap1\n      dup1\n      0x03\n      add\n      sload\n      swap1\n      pop\n      dup5\n      jump\t// out\n        /* \"TimeAlly.sol\":14547:15447  function cancelStaking(uint256 _stakingId) public {... */\n    tag_112:\n        /* \"TimeAlly.sol\":14658:14659  1 */\n      0x01\n        /* \"TimeAlly.sol\":14615:14623  stakings */\n      0x08\n        /* \"TimeAlly.sol\":14615:14635  stakings[msg.sender] */\n      0x00\n        /* \"TimeAlly.sol\":14624:14634  msg.sender */\n      caller\n        /* \"TimeAlly.sol\":14615:14635  stakings[msg.sender] */\n      0xffffffffffffffffffffffffffffffffffffffff\n      and\n      0xffffffffffffffffffffffffffffffffffffffff\n      and\n      dup2\n      mstore\n      0x20\n      add\n      swap1\n      dup2\n      mstore\n      0x20\n      add\n      0x00\n      keccak256\n        /* \"TimeAlly.sol\":14636:14646  _stakingId */\n      dup3\n        /* \"TimeAlly.sol\":14615:14647  stakings[msg.sender][_stakingId] */\n      dup2\n      sload\n      dup2\n      lt\n      tag_365\n      jumpi\n      invalid\n    tag_365:\n      swap1\n      0x00\n      mstore\n      keccak256(0x00, 0x20)\n      swap1\n      0x09\n      mul\n      add\n        /* \"TimeAlly.sol\":14615:14654  stakings[msg.sender][_stakingId].status */\n      0x03\n      add\n      sload\n        /* \"TimeAlly.sol\":14615:14659  stakings[msg.sender][_stakingId].status == 1 */\n      eq\n        /* \"TimeAlly.sol\":14607:14697  require(stakings[msg.sender][_stakingId].status == 1, 'to cansal, staking must be active') */\n      tag_367\n      jumpi\n      mload(0x40)\n      0x08c379a000000000000000000000000000000000000000000000000000000000\n      dup2\n      mstore\n      0x04\n      add\n      dup1\n      dup1\n      0x20\n      add\n      dup3\n      dup2\n      sub\n      dup3\n      mstore\n      0x21\n      dup2\n      mstore\n      0x20\n      add\n      dup1\n      data_a91bf1cb1c3c9b9cd56833c7f2036bb341aa4960f7651241271a69032b7ec915\n      0x21\n      swap2\n      codecopy\n      0x40\n      add\n      swap2\n      pop\n      pop\n      mload(0x40)\n      dup1\n      swap2\n      sub\n      swap1\n      revert\n    tag_367:\n        /* \"TimeAlly.sol\":14750:14751  4 */\n      0x04\n        /* \"TimeAlly.sol\":14708:14716  stakings */\n      0x08\n        /* \"TimeAlly.sol\":14708:14728  stakings[msg.sender] */\n      0x00\n        /* \"TimeAlly.sol\":14717:14727  msg.sender */\n      caller\n        /* \"TimeAlly.sol\":14708:14728  stakings[msg.sender] */\n      0xffffffffffffffffffffffffffffffffffffffff\n      and\n      0xffffffffffffffffffffffffffffffffffffffff\n      and\n      dup2\n      mstore\n      0x20\n      add\n      swap1\n      dup2\n      mstore\n      0x20\n      add\n      0x00\n      keccak256\n        /* \"TimeAlly.sol\":14729:14739  _stakingId */\n      dup3\n        /* \"TimeAlly.sol\":14708:14740  stakings[msg.sender][_stakingId] */\n      dup2\n      sload\n      dup2\n      lt\n      tag_368\n      jumpi\n      invalid\n    tag_368:\n      swap1\n      0x00\n      mstore\n      keccak256(0x00, 0x20)\n      swap1\n      0x09\n      mul\n      add\n        /* \"TimeAlly.sol\":14708:14747  stakings[msg.sender][_stakingId].status */\n      0x03\n      add\n        /* \"TimeAlly.sol\":14708:14751  stakings[msg.sender][_stakingId].status = 4 */\n      dup2\n      swap1\n      sstore\n      pop\n        /* \"TimeAlly.sol\":14762:14783  uint256 _currentMonth */\n      0x00\n        /* \"TimeAlly.sol\":14786:14803  getCurrentMonth() */\n      tag_370\n        /* \"TimeAlly.sol\":14786:14801  getCurrentMonth */\n      tag_138\n        /* \"TimeAlly.sol\":14786:14803  getCurrentMonth() */\n      jump\t// in\n    tag_370:\n        /* \"TimeAlly.sol\":14762:14803  uint256 _currentMonth = getCurrentMonth() */\n      swap1\n      pop\n        /* \"TimeAlly.sol\":14814:14839  uint256 stakingStartMonth */\n      0x00\n        /* \"TimeAlly.sol\":14842:14932  stakings[msg.sender][_stakingId].timestamp.sub(deployedTimestamp).div(earthSecondsInMonth) */\n      tag_371\n        /* \"TimeAlly.sol\":14912:14931  earthSecondsInMonth */\n      sload(0x04)\n        /* \"TimeAlly.sol\":14842:14907  stakings[msg.sender][_stakingId].timestamp.sub(deployedTimestamp) */\n      tag_372\n        /* \"TimeAlly.sol\":14889:14906  deployedTimestamp */\n      sload(0x03)\n        /* \"TimeAlly.sol\":14842:14850  stakings */\n      0x08\n        /* \"TimeAlly.sol\":14842:14862  stakings[msg.sender] */\n      0x00\n        /* \"TimeAlly.sol\":14851:14861  msg.sender */\n      caller\n        /* \"TimeAlly.sol\":14842:14862  stakings[msg.sender] */\n      0xffffffffffffffffffffffffffffffffffffffff\n      and\n      0xffffffffffffffffffffffffffffffffffffffff\n      and\n      dup2\n      mstore\n      0x20\n      add\n      swap1\n      dup2\n      mstore\n      0x20\n      add\n      0x00\n      keccak256\n        /* \"TimeAlly.sol\":14863:14873  _stakingId */\n      dup8\n        /* \"TimeAlly.sol\":14842:14874  stakings[msg.sender][_stakingId] */\n      dup2\n      sload\n      dup2\n      lt\n      tag_373\n      jumpi\n      invalid\n    tag_373:\n      swap1\n      0x00\n      mstore\n      keccak256(0x00, 0x20)\n      swap1\n      0x09\n      mul\n      add\n        /* \"TimeAlly.sol\":14842:14884  stakings[msg.sender][_stakingId].timestamp */\n      0x01\n      add\n      sload\n        /* \"TimeAlly.sol\":14842:14888  stakings[msg.sender][_stakingId].timestamp.sub */\n      tag_174\n      swap1\n        /* \"TimeAlly.sol\":14842:14907  stakings[msg.sender][_stakingId].timestamp.sub(deployedTimestamp) */\n      swap2\n      swap1\n      0xffffffff\n      and\n      jump\t// in\n    tag_372:\n        /* \"TimeAlly.sol\":14842:14911  stakings[msg.sender][_stakingId].timestamp.sub(deployedTimestamp).div */\n      tag_185\n      swap1\n        /* \"TimeAlly.sol\":14842:14932  stakings[msg.sender][_stakingId].timestamp.sub(deployedTimestamp).div(earthSecondsInMonth) */\n      swap2\n      swap1\n      0xffffffff\n      and\n      jump\t// in\n    tag_371:\n        /* \"TimeAlly.sol\":14814:14932  uint256 stakingStartMonth = stakings[msg.sender][_stakingId].timestamp.sub(deployedTimestamp).div(earthSecondsInMonth) */\n      swap1\n      pop\n        /* \"TimeAlly.sol\":14943:14964  uint256 stakeEndMonth */\n      0x00\n        /* \"TimeAlly.sol\":14987:14999  stakingPlans */\n      0x06\n        /* \"TimeAlly.sol\":15000:15008  stakings */\n      0x08\n        /* \"TimeAlly.sol\":15000:15020  stakings[msg.sender] */\n      0x00\n        /* \"TimeAlly.sol\":15009:15019  msg.sender */\n      caller\n        /* \"TimeAlly.sol\":15000:15020  stakings[msg.sender] */\n      0xffffffffffffffffffffffffffffffffffffffff\n      and\n      0xffffffffffffffffffffffffffffffffffffffff\n      and\n      dup2\n      mstore\n      0x20\n      add\n      swap1\n      dup2\n      mstore\n      0x20\n      add\n      0x00\n      keccak256\n        /* \"TimeAlly.sol\":15021:15031  _stakingId */\n      dup6\n        /* \"TimeAlly.sol\":15000:15032  stakings[msg.sender][_stakingId] */\n      dup2\n      sload\n      dup2\n      lt\n      tag_375\n      jumpi\n      invalid\n    tag_375:\n      swap1\n      0x00\n      mstore\n      keccak256(0x00, 0x20)\n      swap1\n      0x09\n      mul\n      add\n        /* \"TimeAlly.sol\":15000:15046  stakings[msg.sender][_stakingId].stakingPlanId */\n      0x02\n      add\n      sload\n        /* \"TimeAlly.sol\":14987:15047  stakingPlans[stakings[msg.sender][_stakingId].stakingPlanId] */\n      dup2\n      sload\n      dup2\n      lt\n      tag_377\n      jumpi\n      invalid\n    tag_377:\n      swap1\n      0x00\n      mstore\n      keccak256(0x00, 0x20)\n      swap1\n      0x02\n      mul\n      add\n        /* \"TimeAlly.sol\":14987:15054  stakingPlans[stakings[msg.sender][_stakingId].stakingPlanId].months */\n      0x00\n      add\n      sload\n        /* \"TimeAlly.sol\":14967:14984  stakingStartMonth */\n      dup3\n        /* \"TimeAlly.sol\":14967:15054  stakingStartMonth + stakingPlans[stakings[msg.sender][_stakingId].stakingPlanId].months */\n      add\n        /* \"TimeAlly.sol\":14943:15054  uint256 stakeEndMonth = stakingStartMonth + stakingPlans[stakings[msg.sender][_stakingId].stakingPlanId].months */\n      swap1\n      pop\n        /* \"TimeAlly.sol\":15069:15078  uint256 j */\n      0x00\n        /* \"TimeAlly.sol\":15097:15098  1 */\n      0x01\n        /* \"TimeAlly.sol\":15081:15094  _currentMonth */\n      dup5\n        /* \"TimeAlly.sol\":15081:15098  _currentMonth + 1 */\n      add\n        /* \"TimeAlly.sol\":15069:15098  uint256 j = _currentMonth + 1 */\n      swap1\n      pop\n        /* \"TimeAlly.sol\":15065:15247  for(uint256 j = _currentMonth + 1; j <= stakeEndMonth; j++) {... */\n    tag_379:\n        /* \"TimeAlly.sol\":15105:15118  stakeEndMonth */\n      dup2\n        /* \"TimeAlly.sol\":15100:15101  j */\n      dup2\n        /* \"TimeAlly.sol\":15100:15118  j <= stakeEndMonth */\n      gt\n        /* \"TimeAlly.sol\":15065:15247  for(uint256 j = _currentMonth + 1; j <= stakeEndMonth; j++) {... */\n      tag_380\n      jumpi\n        /* \"TimeAlly.sol\":15164:15236  totalActiveStakings[j].sub(stakings[msg.sender][_stakingId].exaEsAmount) */\n      tag_382\n        /* \"TimeAlly.sol\":15191:15199  stakings */\n      0x08\n        /* \"TimeAlly.sol\":15191:15211  stakings[msg.sender] */\n      0x00\n        /* \"TimeAlly.sol\":15200:15210  msg.sender */\n      caller\n        /* \"TimeAlly.sol\":15191:15211  stakings[msg.sender] */\n      0xffffffffffffffffffffffffffffffffffffffff\n      and\n      0xffffffffffffffffffffffffffffffffffffffff\n      and\n      dup2\n      mstore\n      0x20\n      add\n      swap1\n      dup2\n      mstore\n      0x20\n      add\n      0x00\n      keccak256\n        /* \"TimeAlly.sol\":15212:15222  _stakingId */\n      dup7\n        /* \"TimeAlly.sol\":15191:15223  stakings[msg.sender][_stakingId] */\n      dup2\n      sload\n      dup2\n      lt\n      tag_383\n      jumpi\n      invalid\n    tag_383:\n      swap1\n      0x00\n      mstore\n      keccak256(0x00, 0x20)\n      swap1\n      0x09\n      mul\n      add\n        /* \"TimeAlly.sol\":15191:15235  stakings[msg.sender][_stakingId].exaEsAmount */\n      0x00\n      add\n      sload\n        /* \"TimeAlly.sol\":15164:15183  totalActiveStakings */\n      0x0a\n        /* \"TimeAlly.sol\":15164:15186  totalActiveStakings[j] */\n      0x00\n        /* \"TimeAlly.sol\":15184:15185  j */\n      dup5\n        /* \"TimeAlly.sol\":15164:15186  totalActiveStakings[j] */\n      dup2\n      mstore\n      0x20\n      add\n      swap1\n      dup2\n      mstore\n      0x20\n      add\n      0x00\n      keccak256\n      sload\n        /* \"TimeAlly.sol\":15164:15190  totalActiveStakings[j].sub */\n      tag_174\n      swap1\n        /* \"TimeAlly.sol\":15164:15236  totalActiveStakings[j].sub(stakings[msg.sender][_stakingId].exaEsAmount) */\n      swap2\n      swap1\n      0xffffffff\n      and\n      jump\t// in\n    tag_382:\n        /* \"TimeAlly.sol\":15139:15158  totalActiveStakings */\n      0x0a\n        /* \"TimeAlly.sol\":15139:15161  totalActiveStakings[j] */\n      0x00\n        /* \"TimeAlly.sol\":15159:15160  j */\n      dup4\n        /* \"TimeAlly.sol\":15139:15161  totalActiveStakings[j] */\n      dup2\n      mstore\n      0x20\n      add\n      swap1\n      dup2\n      mstore\n      0x20\n      add\n      0x00\n      keccak256\n        /* \"TimeAlly.sol\":15139:15236  totalActiveStakings[j] = totalActiveStakings[j].sub(stakings[msg.sender][_stakingId].exaEsAmount) */\n      dup2\n      swap1\n      sstore\n      pop\n        /* \"TimeAlly.sol\":15120:15123  j++ */\n      dup1\n      dup1\n      0x01\n      add\n      swap2\n      pop\n      pop\n        /* \"TimeAlly.sol\":15065:15247  for(uint256 j = _currentMonth + 1; j <= stakeEndMonth; j++) {... */\n      jump(tag_379)\n    tag_380:\n      pop\n        /* \"TimeAlly.sol\":15354:15371  getCurrentMonth() */\n      tag_385\n        /* \"TimeAlly.sol\":15354:15369  getCurrentMonth */\n      tag_138\n        /* \"TimeAlly.sol\":15354:15371  getCurrentMonth() */\n      jump\t// in\n    tag_385:\n        /* \"TimeAlly.sol\":15296:15304  stakings */\n      0x08\n        /* \"TimeAlly.sol\":15296:15316  stakings[msg.sender] */\n      0x00\n        /* \"TimeAlly.sol\":15305:15315  msg.sender */\n      caller\n        /* \"TimeAlly.sol\":15296:15316  stakings[msg.sender] */\n      0xffffffffffffffffffffffffffffffffffffffff\n      and\n      0xffffffffffffffffffffffffffffffffffffffff\n      and\n      dup2\n      mstore\n      0x20\n      add\n      swap1\n      dup2\n      mstore\n      0x20\n      add\n      0x00\n      keccak256\n        /* \"TimeAlly.sol\":15317:15327  _stakingId */\n      dup6\n        /* \"TimeAlly.sol\":15296:15328  stakings[msg.sender][_stakingId] */\n      dup2\n      sload\n      dup2\n      lt\n      tag_386\n      jumpi\n      invalid\n    tag_386:\n      swap1\n      0x00\n      mstore\n      keccak256(0x00, 0x20)\n      swap1\n      0x09\n      mul\n      add\n        /* \"TimeAlly.sol\":15296:15351  stakings[msg.sender][_stakingId].refundMonthClaimedLast */\n      0x07\n      add\n        /* \"TimeAlly.sol\":15296:15371  stakings[msg.sender][_stakingId].refundMonthClaimedLast = getCurrentMonth() */\n      dup2\n      swap1\n      sstore\n      pop\n        /* \"TimeAlly.sol\":15438:15440  24 */\n      0x18\n        /* \"TimeAlly.sol\":15381:15389  stakings */\n      0x08\n        /* \"TimeAlly.sol\":15381:15401  stakings[msg.sender] */\n      0x00\n        /* \"TimeAlly.sol\":15390:15400  msg.sender */\n      caller\n        /* \"TimeAlly.sol\":15381:15401  stakings[msg.sender] */\n      0xffffffffffffffffffffffffffffffffffffffff\n      and\n      0xffffffffffffffffffffffffffffffffffffffff\n      and\n      dup2\n      mstore\n      0x20\n      add\n      swap1\n      dup2\n      mstore\n      0x20\n      add\n      0x00\n      keccak256\n        /* \"TimeAlly.sol\":15402:15412  _stakingId */\n      dup6\n        /* \"TimeAlly.sol\":15381:15413  stakings[msg.sender][_stakingId] */\n      dup2\n      sload\n      dup2\n      lt\n      tag_388\n      jumpi\n      invalid\n    tag_388:\n      swap1\n      0x00\n      mstore\n      keccak256(0x00, 0x20)\n      swap1\n      0x09\n      mul\n      add\n        /* \"TimeAlly.sol\":15381:15435  stakings[msg.sender][_stakingId].refundMonthsRemaining */\n      0x08\n      add\n        /* \"TimeAlly.sol\":15381:15440  stakings[msg.sender][_stakingId].refundMonthsRemaining = 24 */\n      dup2\n      swap1\n      sstore\n      pop\n        /* \"TimeAlly.sol\":14547:15447  function cancelStaking(uint256 _stakingId) public {... */\n      pop\n      pop\n      pop\n      pop\n      jump\t// out\n        /* \"TimeAlly.sol\":4521:4661  function getNumberOfStakingsByUser(address _userAddress) public view returns (uint256) {... */\n    tag_115:\n        /* \"TimeAlly.sol\":4599:4606  uint256 */\n      0x00\n        /* \"TimeAlly.sol\":4625:4633  stakings */\n      0x08\n        /* \"TimeAlly.sol\":4625:4647  stakings[_userAddress] */\n      0x00\n        /* \"TimeAlly.sol\":4634:4646  _userAddress */\n      dup4\n        /* \"TimeAlly.sol\":4625:4647  stakings[_userAddress] */\n      0xffffffffffffffffffffffffffffffffffffffff\n      and\n      0xffffffffffffffffffffffffffffffffffffffff\n      and\n      dup2\n      mstore\n      0x20\n      add\n      swap1\n      dup2\n      mstore\n      0x20\n      add\n      0x00\n      keccak256\n        /* \"TimeAlly.sol\":4625:4654  stakings[_userAddress].length */\n      dup1\n      sload\n      swap1\n      pop\n        /* \"TimeAlly.sol\":4618:4654  return stakings[_userAddress].length */\n      swap1\n      pop\n        /* \"TimeAlly.sol\":4521:4661  function getNumberOfStakingsByUser(address _userAddress) public view returns (uint256) {... */\n      swap2\n      swap1\n      pop\n      jump\t// out\n        /* \"TimeAlly.sol\":16840:17835  function seeMaxLoaningAmountOnUserStakings(address _userAddress, uint256[] memory _stakingIds) public view returns (uint256) {... */\n    tag_121:\n        /* \"TimeAlly.sol\":16956:16963  uint256 */\n      0x00\n        /* \"TimeAlly.sol\":16975:16996  uint256 _currentMonth */\n      dup1\n        /* \"TimeAlly.sol\":16999:17016  getCurrentMonth() */\n      tag_392\n        /* \"TimeAlly.sol\":16999:17014  getCurrentMonth */\n      tag_138\n        /* \"TimeAlly.sol\":16999:17016  getCurrentMonth() */\n      jump\t// in\n    tag_392:\n        /* \"TimeAlly.sol\":16975:17016  uint256 _currentMonth = getCurrentMonth() */\n      swap1\n      pop\n        /* \"TimeAlly.sol\":17103:17134  uint256 userStakingsExaEsAmount */\n      0x00\n        /* \"TimeAlly.sol\":17149:17158  uint256 i */\n      dup1\n        /* \"TimeAlly.sol\":17161:17162  0 */\n      0x00\n        /* \"TimeAlly.sol\":17149:17162  uint256 i = 0 */\n      swap1\n      pop\n        /* \"TimeAlly.sol\":17145:17699  for(uint256 i = 0; i < _stakingIds.length; i++) {... */\n    tag_393:\n        /* \"TimeAlly.sol\":17168:17179  _stakingIds */\n      dup5\n        /* \"TimeAlly.sol\":17168:17186  _stakingIds.length */\n      mload\n        /* \"TimeAlly.sol\":17164:17165  i */\n      dup2\n        /* \"TimeAlly.sol\":17164:17186  i < _stakingIds.length */\n      lt\n        /* \"TimeAlly.sol\":17145:17699  for(uint256 i = 0; i < _stakingIds.length; i++) {... */\n      iszero\n      tag_394\n      jumpi\n        /* \"TimeAlly.sol\":17211:17286  isStakingActive(_userAddress, _stakingIds[i], _currentMonth, _currentMonth) */\n      tag_396\n        /* \"TimeAlly.sol\":17227:17239  _userAddress */\n      dup7\n        /* \"TimeAlly.sol\":17241:17252  _stakingIds */\n      dup7\n        /* \"TimeAlly.sol\":17253:17254  i */\n      dup4\n        /* \"TimeAlly.sol\":17241:17255  _stakingIds[i] */\n      dup2\n      mload\n      dup2\n      lt\n      tag_397\n      jumpi\n      invalid\n    tag_397:\n      0x20\n      mul\n      0x20\n      add\n      add\n      mload\n        /* \"TimeAlly.sol\":17257:17270  _currentMonth */\n      dup6\n        /* \"TimeAlly.sol\":17272:17285  _currentMonth */\n      dup7\n        /* \"TimeAlly.sol\":17211:17226  isStakingActive */\n      tag_106\n        /* \"TimeAlly.sol\":17211:17286  isStakingActive(_userAddress, _stakingIds[i], _currentMonth, _currentMonth) */\n      jump\t// in\n    tag_396:\n        /* \"TimeAlly.sol\":17208:17689  if(isStakingActive(_userAddress, _stakingIds[i], _currentMonth, _currentMonth)... */\n      iszero\n      tag_398\n      jumpi\n        /* \"TimeAlly.sol\":17435:17674  userStakingsExaEsAmount... */\n      tag_399\n        /* \"TimeAlly.sol\":17484:17673  stakings[_userAddress][_stakingIds[i]].exaEsAmount... */\n      tag_400\n        /* \"TimeAlly.sol\":17670:17672  15 */\n      0x0f\n        /* \"TimeAlly.sol\":17484:17644  stakings[_userAddress][_stakingIds[i]].exaEsAmount... */\n      tag_401\n        /* \"TimeAlly.sol\":17560:17572  stakingPlans */\n      0x06\n        /* \"TimeAlly.sol\":17574:17582  stakings */\n      0x08\n        /* \"TimeAlly.sol\":17574:17596  stakings[_userAddress] */\n      0x00\n        /* \"TimeAlly.sol\":17583:17595  _userAddress */\n      dup13\n        /* \"TimeAlly.sol\":17574:17596  stakings[_userAddress] */\n      0xffffffffffffffffffffffffffffffffffffffff\n      and\n      0xffffffffffffffffffffffffffffffffffffffff\n      and\n      dup2\n      mstore\n      0x20\n      add\n      swap1\n      dup2\n      mstore\n      0x20\n      add\n      0x00\n      keccak256\n        /* \"TimeAlly.sol\":17597:17608  _stakingIds */\n      dup11\n        /* \"TimeAlly.sol\":17609:17610  i */\n      dup8\n        /* \"TimeAlly.sol\":17597:17611  _stakingIds[i] */\n      dup2\n      mload\n      dup2\n      lt\n      tag_402\n      jumpi\n      invalid\n    tag_402:\n      0x20\n      mul\n      0x20\n      add\n      add\n      mload\n        /* \"TimeAlly.sol\":17574:17612  stakings[_userAddress][_stakingIds[i]] */\n      dup2\n      sload\n      dup2\n      lt\n      tag_403\n      jumpi\n      invalid\n    tag_403:\n      swap1\n      0x00\n      mstore\n      keccak256(0x00, 0x20)\n      swap1\n      0x09\n      mul\n      add\n        /* \"TimeAlly.sol\":17574:17626  stakings[_userAddress][_stakingIds[i]].stakingPlanId */\n      0x02\n      add\n      sload\n        /* \"TimeAlly.sol\":17560:17628  stakingPlans[ stakings[_userAddress][_stakingIds[i]].stakingPlanId ] */\n      dup2\n      sload\n      dup2\n      lt\n      tag_405\n      jumpi\n      invalid\n    tag_405:\n      swap1\n      0x00\n      mstore\n      keccak256(0x00, 0x20)\n      swap1\n      0x02\n      mul\n      add\n        /* \"TimeAlly.sol\":17560:17643  stakingPlans[ stakings[_userAddress][_stakingIds[i]].stakingPlanId ].fractionFrom15 */\n      0x01\n      add\n      sload\n        /* \"TimeAlly.sol\":17484:17492  stakings */\n      0x08\n        /* \"TimeAlly.sol\":17484:17506  stakings[_userAddress] */\n      0x00\n        /* \"TimeAlly.sol\":17493:17505  _userAddress */\n      dup13\n        /* \"TimeAlly.sol\":17484:17506  stakings[_userAddress] */\n      0xffffffffffffffffffffffffffffffffffffffff\n      and\n      0xffffffffffffffffffffffffffffffffffffffff\n      and\n      dup2\n      mstore\n      0x20\n      add\n      swap1\n      dup2\n      mstore\n      0x20\n      add\n      0x00\n      keccak256\n        /* \"TimeAlly.sol\":17507:17518  _stakingIds */\n      dup11\n        /* \"TimeAlly.sol\":17519:17520  i */\n      dup8\n        /* \"TimeAlly.sol\":17507:17521  _stakingIds[i] */\n      dup2\n      mload\n      dup2\n      lt\n      tag_407\n      jumpi\n      invalid\n    tag_407:\n      0x20\n      mul\n      0x20\n      add\n      add\n      mload\n        /* \"TimeAlly.sol\":17484:17522  stakings[_userAddress][_stakingIds[i]] */\n      dup2\n      sload\n      dup2\n      lt\n      tag_408\n      jumpi\n      invalid\n    tag_408:\n      swap1\n      0x00\n      mstore\n      keccak256(0x00, 0x20)\n      swap1\n      0x09\n      mul\n      add\n        /* \"TimeAlly.sol\":17484:17534  stakings[_userAddress][_stakingIds[i]].exaEsAmount */\n      0x00\n      add\n      sload\n        /* \"TimeAlly.sol\":17484:17559  stakings[_userAddress][_stakingIds[i]].exaEsAmount... */\n      tag_184\n      swap1\n        /* \"TimeAlly.sol\":17484:17644  stakings[_userAddress][_stakingIds[i]].exaEsAmount... */\n      swap2\n      swap1\n      0xffffffff\n      and\n      jump\t// in\n    tag_401:\n        /* \"TimeAlly.sol\":17484:17669  stakings[_userAddress][_stakingIds[i]].exaEsAmount... */\n      tag_185\n      swap1\n        /* \"TimeAlly.sol\":17484:17673  stakings[_userAddress][_stakingIds[i]].exaEsAmount... */\n      swap2\n      swap1\n      0xffffffff\n      and\n      jump\t// in\n    tag_400:\n        /* \"TimeAlly.sol\":17435:17458  userStakingsExaEsAmount */\n      dup4\n        /* \"TimeAlly.sol\":17435:17483  userStakingsExaEsAmount... */\n      tag_222\n      swap1\n        /* \"TimeAlly.sol\":17435:17674  userStakingsExaEsAmount... */\n      swap2\n      swap1\n      0xffffffff\n      and\n      jump\t// in\n    tag_399:\n        /* \"TimeAlly.sol\":17409:17674  userStakingsExaEsAmount = userStakingsExaEsAmount... */\n      swap2\n      pop\n        /* \"TimeAlly.sol\":17208:17689  if(isStakingActive(_userAddress, _stakingIds[i], _currentMonth, _currentMonth)... */\n    tag_398:\n        /* \"TimeAlly.sol\":17188:17191  i++ */\n      dup1\n      dup1\n      0x01\n      add\n      swap2\n      pop\n      pop\n        /* \"TimeAlly.sol\":17145:17699  for(uint256 i = 0; i < _stakingIds.length; i++) {... */\n      jump(tag_393)\n    tag_394:\n      pop\n        /* \"TimeAlly.sol\":17716:17746  userStakingsExaEsAmount.div(2) */\n      tag_410\n        /* \"TimeAlly.sol\":17744:17745  2 */\n      0x02\n        /* \"TimeAlly.sol\":17716:17739  userStakingsExaEsAmount */\n      dup3\n        /* \"TimeAlly.sol\":17716:17743  userStakingsExaEsAmount.div */\n      tag_185\n      swap1\n        /* \"TimeAlly.sol\":17716:17746  userStakingsExaEsAmount.div(2) */\n      swap2\n      swap1\n      0xffffffff\n      and\n      jump\t// in\n    tag_410:\n        /* \"TimeAlly.sol\":17709:17746  return userStakingsExaEsAmount.div(2) */\n      swap3\n      pop\n      pop\n      pop\n        /* \"TimeAlly.sol\":16840:17835  function seeMaxLoaningAmountOnUserStakings(address _userAddress, uint256[] memory _stakingIds) public view returns (uint256) {... */\n      swap3\n      swap2\n      pop\n      pop\n      jump\t// out\n        /* \"TimeAlly.sol\":2929:3148  function createStakingPlan(uint256 _months, uint256 _fractionFrom15) public onlyOwner {... */\n    tag_124:\n        /* \"TimeAlly.sol\":2363:2368  owner */\n      0x00\n      dup1\n      swap1\n      sload\n      swap1\n      0x0100\n      exp\n      swap1\n      div\n      0xffffffffffffffffffffffffffffffffffffffff\n      and\n        /* \"TimeAlly.sol\":2349:2368  msg.sender == owner */\n      0xffffffffffffffffffffffffffffffffffffffff\n      and\n        /* \"TimeAlly.sol\":2349:2359  msg.sender */\n      caller\n        /* \"TimeAlly.sol\":2349:2368  msg.sender == owner */\n      0xffffffffffffffffffffffffffffffffffffffff\n      and\n      eq\n        /* \"TimeAlly.sol\":2341:2395  require(msg.sender == owner, 'only deployer can call') */\n      tag_412\n      jumpi\n      mload(0x40)\n      0x08c379a000000000000000000000000000000000000000000000000000000000\n      dup2\n      mstore\n      0x04\n      add\n      dup1\n      dup1\n      0x20\n      add\n      dup3\n      dup2\n      sub\n      dup3\n      mstore\n      0x16\n      dup2\n      mstore\n      0x20\n      add\n      dup1\n      0x6f6e6c79206465706c6f7965722063616e2063616c6c00000000000000000000\n      dup2\n      mstore\n      pop\n      0x20\n      add\n      swap2\n      pop\n      pop\n      mload(0x40)\n      dup1\n      swap2\n      sub\n      swap1\n      revert\n    tag_412:\n        /* \"TimeAlly.sol\":3025:3037  stakingPlans */\n      0x06\n        /* \"TimeAlly.sol\":3043:3140  StakingPlan({... */\n      mload(0x40)\n      dup1\n      0x40\n      add\n      0x40\n      mstore\n      dup1\n        /* \"TimeAlly.sol\":3077:3084  _months */\n      dup5\n        /* \"TimeAlly.sol\":3043:3140  StakingPlan({... */\n      dup2\n      mstore\n      0x20\n      add\n        /* \"TimeAlly.sol\":3114:3129  _fractionFrom15 */\n      dup4\n        /* \"TimeAlly.sol\":3043:3140  StakingPlan({... */\n      dup2\n      mstore\n      pop\n        /* \"TimeAlly.sol\":3025:3141  stakingPlans.push(StakingPlan({... */\n      swap1\n      dup1\n        /* \"--CODEGEN--\":39:40   */\n      0x01\n        /* \"--CODEGEN--\":33:36   */\n      dup2\n        /* \"--CODEGEN--\":27:37   */\n      sload\n        /* \"--CODEGEN--\":23:41   */\n      add\n        /* \"--CODEGEN--\":57:67   */\n      dup1\n        /* \"--CODEGEN--\":52:55   */\n      dup3\n        /* \"--CODEGEN--\":45:68   */\n      sstore\n        /* \"--CODEGEN--\":79:89   */\n      dup1\n        /* \"--CODEGEN--\":72:89   */\n      swap2\n      pop\n        /* \"--CODEGEN--\":0:93   */\n      pop\n        /* \"TimeAlly.sol\":3025:3141  stakingPlans.push(StakingPlan({... */\n      swap1\n      0x01\n      dup3\n      sub\n      swap1\n      0x00\n      mstore\n      keccak256(0x00, 0x20)\n      swap1\n      0x02\n      mul\n      add\n      0x00\n      swap1\n      swap2\n      swap3\n      swap1\n      swap2\n      swap1\n      swap2\n      pop\n      0x00\n      dup3\n      add\n      mload\n      dup2\n      0x00\n      add\n      sstore\n      0x20\n      dup3\n      add\n      mload\n      dup2\n      0x01\n      add\n      sstore\n      pop\n      pop\n      pop\n        /* \"TimeAlly.sol\":2929:3148  function createStakingPlan(uint256 _months, uint256 _fractionFrom15) public onlyOwner {... */\n      pop\n      pop\n      jump\t// out\n        /* \"TimeAlly.sol\":1427:1454  LoanPlan[] public loanPlans */\n    tag_127:\n      0x07\n      dup2\n      dup2\n      sload\n      dup2\n      lt\n      tag_415\n      jumpi\n      invalid\n    tag_415:\n      swap1\n      0x00\n      mstore\n      keccak256(0x00, 0x20)\n      swap1\n      0x02\n      mul\n      add\n      0x00\n      swap2\n      pop\n      swap1\n      pop\n      dup1\n      0x00\n      add\n      sload\n      swap1\n      dup1\n      0x01\n      add\n      sload\n      swap1\n      pop\n      dup3\n      jump\t// out\n        /* \"TimeAlly.sol\":17841:21168  function takeLoanOnSelfStaking(uint256 _loanPlanId, uint256 _exaEsAmount, uint256[] memory _stakingIds) public {... */\n    tag_133:\n        /* \"TimeAlly.sol\":18185:18206  uint256 _currentMonth */\n      0x00\n        /* \"TimeAlly.sol\":18209:18226  getCurrentMonth() */\n      tag_418\n        /* \"TimeAlly.sol\":18209:18224  getCurrentMonth */\n      tag_138\n        /* \"TimeAlly.sol\":18209:18226  getCurrentMonth() */\n      jump\t// in\n    tag_418:\n        /* \"TimeAlly.sol\":18185:18226  uint256 _currentMonth = getCurrentMonth() */\n      swap1\n      pop\n        /* \"TimeAlly.sol\":18236:18268  uint256 _userStakingsExaEsAmount */\n      0x00\n        /* \"TimeAlly.sol\":18283:18292  uint256 i */\n      dup1\n        /* \"TimeAlly.sol\":18295:18296  0 */\n      0x00\n        /* \"TimeAlly.sol\":18283:18296  uint256 i = 0 */\n      swap1\n      pop\n        /* \"TimeAlly.sol\":18279:19678  for(uint256 i = 0; i < _stakingIds.length; i++) {... */\n    tag_419:\n        /* \"TimeAlly.sol\":18302:18313  _stakingIds */\n      dup4\n        /* \"TimeAlly.sol\":18302:18320  _stakingIds.length */\n      mload\n        /* \"TimeAlly.sol\":18298:18299  i */\n      dup2\n        /* \"TimeAlly.sol\":18298:18320  i < _stakingIds.length */\n      lt\n        /* \"TimeAlly.sol\":18279:19678  for(uint256 i = 0; i < _stakingIds.length; i++) {... */\n      iszero\n      tag_420\n      jumpi\n        /* \"TimeAlly.sol\":18346:18419  isStakingActive(msg.sender, _stakingIds[i], _currentMonth, _currentMonth) */\n      tag_422\n        /* \"TimeAlly.sol\":18362:18372  msg.sender */\n      caller\n        /* \"TimeAlly.sol\":18374:18385  _stakingIds */\n      dup6\n        /* \"TimeAlly.sol\":18386:18387  i */\n      dup4\n        /* \"TimeAlly.sol\":18374:18388  _stakingIds[i] */\n      dup2\n      mload\n      dup2\n      lt\n      tag_423\n      jumpi\n      invalid\n    tag_423:\n      0x20\n      mul\n      0x20\n      add\n      add\n      mload\n        /* \"TimeAlly.sol\":18390:18403  _currentMonth */\n      dup6\n        /* \"TimeAlly.sol\":18405:18418  _currentMonth */\n      dup7\n        /* \"TimeAlly.sol\":18346:18361  isStakingActive */\n      tag_106\n        /* \"TimeAlly.sol\":18346:18419  isStakingActive(msg.sender, _stakingIds[i], _currentMonth, _currentMonth) */\n      jump\t// in\n    tag_422:\n        /* \"TimeAlly.sol\":18342:19668  if( isStakingActive(msg.sender, _stakingIds[i], _currentMonth, _currentMonth) ) {... */\n      iszero\n      tag_424\n      jumpi\n        /* \"TimeAlly.sol\":18509:18799  _userStakingsExaEsAmount... */\n      tag_425\n        /* \"TimeAlly.sol\":18584:18781  stakings[msg.sender][ _stakingIds[i] ].exaEsAmount... */\n      tag_426\n        /* \"TimeAlly.sol\":18778:18780  15 */\n      0x0f\n        /* \"TimeAlly.sol\":18584:18748  stakings[msg.sender][ _stakingIds[i] ].exaEsAmount... */\n      tag_427\n        /* \"TimeAlly.sol\":18665:18677  stakingPlans */\n      0x06\n        /* \"TimeAlly.sol\":18679:18687  stakings */\n      0x08\n        /* \"TimeAlly.sol\":18679:18699  stakings[msg.sender] */\n      0x00\n        /* \"TimeAlly.sol\":18688:18698  msg.sender */\n      caller\n        /* \"TimeAlly.sol\":18679:18699  stakings[msg.sender] */\n      0xffffffffffffffffffffffffffffffffffffffff\n      and\n      0xffffffffffffffffffffffffffffffffffffffff\n      and\n      dup2\n      mstore\n      0x20\n      add\n      swap1\n      dup2\n      mstore\n      0x20\n      add\n      0x00\n      keccak256\n        /* \"TimeAlly.sol\":18700:18711  _stakingIds */\n      dup10\n        /* \"TimeAlly.sol\":18712:18713  i */\n      dup8\n        /* \"TimeAlly.sol\":18700:18714  _stakingIds[i] */\n      dup2\n      mload\n      dup2\n      lt\n      tag_428\n      jumpi\n      invalid\n    tag_428:\n      0x20\n      mul\n      0x20\n      add\n      add\n      mload\n        /* \"TimeAlly.sol\":18679:18715  stakings[msg.sender][_stakingIds[i]] */\n      dup2\n      sload\n      dup2\n      lt\n      tag_429\n      jumpi\n      invalid\n    tag_429:\n      swap1\n      0x00\n      mstore\n      keccak256(0x00, 0x20)\n      swap1\n      0x09\n      mul\n      add\n        /* \"TimeAlly.sol\":18679:18729  stakings[msg.sender][_stakingIds[i]].stakingPlanId */\n      0x02\n      add\n      sload\n        /* \"TimeAlly.sol\":18665:18731  stakingPlans[ stakings[msg.sender][_stakingIds[i]].stakingPlanId ] */\n      dup2\n      sload\n      dup2\n      lt\n      tag_431\n      jumpi\n      invalid\n    tag_431:\n      swap1\n      0x00\n      mstore\n      keccak256(0x00, 0x20)\n      swap1\n      0x02\n      mul\n      add\n        /* \"TimeAlly.sol\":18665:18746  stakingPlans[ stakings[msg.sender][_stakingIds[i]].stakingPlanId ].fractionFrom15 */\n      0x01\n      add\n      sload\n        /* \"TimeAlly.sol\":18584:18592  stakings */\n      0x08\n        /* \"TimeAlly.sol\":18584:18604  stakings[msg.sender] */\n      0x00\n        /* \"TimeAlly.sol\":18593:18603  msg.sender */\n      caller\n        /* \"TimeAlly.sol\":18584:18604  stakings[msg.sender] */\n      0xffffffffffffffffffffffffffffffffffffffff\n      and\n      0xffffffffffffffffffffffffffffffffffffffff\n      and\n      dup2\n      mstore\n      0x20\n      add\n      swap1\n      dup2\n      mstore\n      0x20\n      add\n      0x00\n      keccak256\n        /* \"TimeAlly.sol\":18606:18617  _stakingIds */\n      dup10\n        /* \"TimeAlly.sol\":18618:18619  i */\n      dup8\n        /* \"TimeAlly.sol\":18606:18620  _stakingIds[i] */\n      dup2\n      mload\n      dup2\n      lt\n      tag_433\n      jumpi\n      invalid\n    tag_433:\n      0x20\n      mul\n      0x20\n      add\n      add\n      mload\n        /* \"TimeAlly.sol\":18584:18622  stakings[msg.sender][ _stakingIds[i] ] */\n      dup2\n      sload\n      dup2\n      lt\n      tag_434\n      jumpi\n      invalid\n    tag_434:\n      swap1\n      0x00\n      mstore\n      keccak256(0x00, 0x20)\n      swap1\n      0x09\n      mul\n      add\n        /* \"TimeAlly.sol\":18584:18634  stakings[msg.sender][ _stakingIds[i] ].exaEsAmount */\n      0x00\n      add\n      sload\n        /* \"TimeAlly.sol\":18584:18663  stakings[msg.sender][ _stakingIds[i] ].exaEsAmount... */\n      tag_184\n      swap1\n        /* \"TimeAlly.sol\":18584:18748  stakings[msg.sender][ _stakingIds[i] ].exaEsAmount... */\n      swap2\n      swap1\n      0xffffffff\n      and\n      jump\t// in\n    tag_427:\n        /* \"TimeAlly.sol\":18584:18777  stakings[msg.sender][ _stakingIds[i] ].exaEsAmount... */\n      tag_185\n      swap1\n        /* \"TimeAlly.sol\":18584:18781  stakings[msg.sender][ _stakingIds[i] ].exaEsAmount... */\n      swap2\n      swap1\n      0xffffffff\n      and\n      jump\t// in\n    tag_426:\n        /* \"TimeAlly.sol\":18509:18533  _userStakingsExaEsAmount */\n      dup4\n        /* \"TimeAlly.sol\":18509:18558  _userStakingsExaEsAmount... */\n      tag_222\n      swap1\n        /* \"TimeAlly.sol\":18509:18799  _userStakingsExaEsAmount... */\n      swap2\n      swap1\n      0xffffffff\n      and\n      jump\t// in\n    tag_425:\n        /* \"TimeAlly.sol\":18482:18799  _userStakingsExaEsAmount = _userStakingsExaEsAmount... */\n      swap2\n      pop\n        /* \"TimeAlly.sol\":18868:18893  uint256 stakingStartMonth */\n      0x00\n        /* \"TimeAlly.sol\":18896:18990  stakings[msg.sender][_stakingIds[i]].timestamp.sub(deployedTimestamp).div(earthSecondsInMonth) */\n      tag_436\n        /* \"TimeAlly.sol\":18970:18989  earthSecondsInMonth */\n      sload(0x04)\n        /* \"TimeAlly.sol\":18896:18965  stakings[msg.sender][_stakingIds[i]].timestamp.sub(deployedTimestamp) */\n      tag_437\n        /* \"TimeAlly.sol\":18947:18964  deployedTimestamp */\n      sload(0x03)\n        /* \"TimeAlly.sol\":18896:18904  stakings */\n      0x08\n        /* \"TimeAlly.sol\":18896:18916  stakings[msg.sender] */\n      0x00\n        /* \"TimeAlly.sol\":18905:18915  msg.sender */\n      caller\n        /* \"TimeAlly.sol\":18896:18916  stakings[msg.sender] */\n      0xffffffffffffffffffffffffffffffffffffffff\n      and\n      0xffffffffffffffffffffffffffffffffffffffff\n      and\n      dup2\n      mstore\n      0x20\n      add\n      swap1\n      dup2\n      mstore\n      0x20\n      add\n      0x00\n      keccak256\n        /* \"TimeAlly.sol\":18917:18928  _stakingIds */\n      dup10\n        /* \"TimeAlly.sol\":18929:18930  i */\n      dup8\n        /* \"TimeAlly.sol\":18917:18931  _stakingIds[i] */\n      dup2\n      mload\n      dup2\n      lt\n      tag_438\n      jumpi\n      invalid\n    tag_438:\n      0x20\n      mul\n      0x20\n      add\n      add\n      mload\n        /* \"TimeAlly.sol\":18896:18932  stakings[msg.sender][_stakingIds[i]] */\n      dup2\n      sload\n      dup2\n      lt\n      tag_439\n      jumpi\n      invalid\n    tag_439:\n      swap1\n      0x00\n      mstore\n      keccak256(0x00, 0x20)\n      swap1\n      0x09\n      mul\n      add\n        /* \"TimeAlly.sol\":18896:18942  stakings[msg.sender][_stakingIds[i]].timestamp */\n      0x01\n      add\n      sload\n        /* \"TimeAlly.sol\":18896:18946  stakings[msg.sender][_stakingIds[i]].timestamp.sub */\n      tag_174\n      swap1\n        /* \"TimeAlly.sol\":18896:18965  stakings[msg.sender][_stakingIds[i]].timestamp.sub(deployedTimestamp) */\n      swap2\n      swap1\n      0xffffffff\n      and\n      jump\t// in\n    tag_437:\n        /* \"TimeAlly.sol\":18896:18969  stakings[msg.sender][_stakingIds[i]].timestamp.sub(deployedTimestamp).div */\n      tag_185\n      swap1\n        /* \"TimeAlly.sol\":18896:18990  stakings[msg.sender][_stakingIds[i]].timestamp.sub(deployedTimestamp).div(earthSecondsInMonth) */\n      swap2\n      swap1\n      0xffffffff\n      and\n      jump\t// in\n    tag_436:\n        /* \"TimeAlly.sol\":18868:18990  uint256 stakingStartMonth = stakings[msg.sender][_stakingIds[i]].timestamp.sub(deployedTimestamp).div(earthSecondsInMonth) */\n      swap1\n      pop\n        /* \"TimeAlly.sol\":19009:19030  uint256 stakeEndMonth */\n      0x00\n        /* \"TimeAlly.sol\":19053:19065  stakingPlans */\n      0x06\n        /* \"TimeAlly.sol\":19066:19074  stakings */\n      0x08\n        /* \"TimeAlly.sol\":19066:19086  stakings[msg.sender] */\n      0x00\n        /* \"TimeAlly.sol\":19075:19085  msg.sender */\n      caller\n        /* \"TimeAlly.sol\":19066:19086  stakings[msg.sender] */\n      0xffffffffffffffffffffffffffffffffffffffff\n      and\n      0xffffffffffffffffffffffffffffffffffffffff\n      and\n      dup2\n      mstore\n      0x20\n      add\n      swap1\n      dup2\n      mstore\n      0x20\n      add\n      0x00\n      keccak256\n        /* \"TimeAlly.sol\":19087:19098  _stakingIds */\n      dup8\n        /* \"TimeAlly.sol\":19099:19100  i */\n      dup6\n        /* \"TimeAlly.sol\":19087:19101  _stakingIds[i] */\n      dup2\n      mload\n      dup2\n      lt\n      tag_441\n      jumpi\n      invalid\n    tag_441:\n      0x20\n      mul\n      0x20\n      add\n      add\n      mload\n        /* \"TimeAlly.sol\":19066:19102  stakings[msg.sender][_stakingIds[i]] */\n      dup2\n      sload\n      dup2\n      lt\n      tag_442\n      jumpi\n      invalid\n    tag_442:\n      swap1\n      0x00\n      mstore\n      keccak256(0x00, 0x20)\n      swap1\n      0x09\n      mul\n      add\n        /* \"TimeAlly.sol\":19066:19116  stakings[msg.sender][_stakingIds[i]].stakingPlanId */\n      0x02\n      add\n      sload\n        /* \"TimeAlly.sol\":19053:19117  stakingPlans[stakings[msg.sender][_stakingIds[i]].stakingPlanId] */\n      dup2\n      sload\n      dup2\n      lt\n      tag_444\n      jumpi\n      invalid\n    tag_444:\n      swap1\n      0x00\n      mstore\n      keccak256(0x00, 0x20)\n      swap1\n      0x02\n      mul\n      add\n        /* \"TimeAlly.sol\":19053:19124  stakingPlans[stakings[msg.sender][_stakingIds[i]].stakingPlanId].months */\n      0x00\n      add\n      sload\n        /* \"TimeAlly.sol\":19033:19050  stakingStartMonth */\n      dup3\n        /* \"TimeAlly.sol\":19033:19124  stakingStartMonth + stakingPlans[stakings[msg.sender][_stakingIds[i]].stakingPlanId].months */\n      add\n        /* \"TimeAlly.sol\":19009:19124  uint256 stakeEndMonth = stakingStartMonth + stakingPlans[stakings[msg.sender][_stakingIds[i]].stakingPlanId].months */\n      swap1\n      pop\n        /* \"TimeAlly.sol\":19147:19156  uint256 j */\n      0x00\n        /* \"TimeAlly.sol\":19175:19176  1 */\n      0x01\n        /* \"TimeAlly.sol\":19159:19172  _currentMonth */\n      dup7\n        /* \"TimeAlly.sol\":19159:19176  _currentMonth + 1 */\n      add\n        /* \"TimeAlly.sol\":19147:19176  uint256 j = _currentMonth + 1 */\n      swap1\n      pop\n        /* \"TimeAlly.sol\":19143:19321  for(uint256 j = _currentMonth + 1; j <= stakeEndMonth; j++) {... */\n    tag_446:\n        /* \"TimeAlly.sol\":19183:19196  stakeEndMonth */\n      dup2\n        /* \"TimeAlly.sol\":19178:19179  j */\n      dup2\n        /* \"TimeAlly.sol\":19178:19196  j <= stakeEndMonth */\n      gt\n        /* \"TimeAlly.sol\":19143:19321  for(uint256 j = _currentMonth + 1; j <= stakeEndMonth; j++) {... */\n      tag_447\n      jumpi\n        /* \"TimeAlly.sol\":19250:19302  totalActiveStakings[j].sub(_userStakingsExaEsAmount) */\n      tag_449\n        /* \"TimeAlly.sol\":19277:19301  _userStakingsExaEsAmount */\n      dup6\n        /* \"TimeAlly.sol\":19250:19269  totalActiveStakings */\n      0x0a\n        /* \"TimeAlly.sol\":19250:19272  totalActiveStakings[j] */\n      0x00\n        /* \"TimeAlly.sol\":19270:19271  j */\n      dup5\n        /* \"TimeAlly.sol\":19250:19272  totalActiveStakings[j] */\n      dup2\n      mstore\n      0x20\n      add\n      swap1\n      dup2\n      mstore\n      0x20\n      add\n      0x00\n      keccak256\n      sload\n        /* \"TimeAlly.sol\":19250:19276  totalActiveStakings[j].sub */\n      tag_174\n      swap1\n        /* \"TimeAlly.sol\":19250:19302  totalActiveStakings[j].sub(_userStakingsExaEsAmount) */\n      swap2\n      swap1\n      0xffffffff\n      and\n      jump\t// in\n    tag_449:\n        /* \"TimeAlly.sol\":19225:19244  totalActiveStakings */\n      0x0a\n        /* \"TimeAlly.sol\":19225:19247  totalActiveStakings[j] */\n      0x00\n        /* \"TimeAlly.sol\":19245:19246  j */\n      dup4\n        /* \"TimeAlly.sol\":19225:19247  totalActiveStakings[j] */\n      dup2\n      mstore\n      0x20\n      add\n      swap1\n      dup2\n      mstore\n      0x20\n      add\n      0x00\n      keccak256\n        /* \"TimeAlly.sol\":19225:19302  totalActiveStakings[j] = totalActiveStakings[j].sub(_userStakingsExaEsAmount) */\n      dup2\n      swap1\n      sstore\n      pop\n        /* \"TimeAlly.sol\":19198:19201  j++ */\n      dup1\n      dup1\n      0x01\n      add\n      swap2\n      pop\n      pop\n        /* \"TimeAlly.sol\":19143:19321  for(uint256 j = _currentMonth + 1; j <= stakeEndMonth; j++) {... */\n      jump(tag_446)\n    tag_447:\n      pop\n        /* \"TimeAlly.sol\":19384:19393  uint256 j */\n      0x00\n        /* \"TimeAlly.sol\":19396:19397  1 */\n      0x01\n        /* \"TimeAlly.sol\":19384:19397  uint256 j = 1 */\n      swap1\n      pop\n        /* \"TimeAlly.sol\":19380:19654  for(uint256 j = 1; j <= loanPlans[_loanPlanId].loanMonths; j++) {... */\n    tag_450:\n        /* \"TimeAlly.sol\":19404:19413  loanPlans */\n      0x07\n        /* \"TimeAlly.sol\":19414:19425  _loanPlanId */\n      dup10\n        /* \"TimeAlly.sol\":19404:19426  loanPlans[_loanPlanId] */\n      dup2\n      sload\n      dup2\n      lt\n      tag_453\n      jumpi\n      invalid\n    tag_453:\n      swap1\n      0x00\n      mstore\n      keccak256(0x00, 0x20)\n      swap1\n      0x02\n      mul\n      add\n        /* \"TimeAlly.sol\":19404:19437  loanPlans[_loanPlanId].loanMonths */\n      0x00\n      add\n      sload\n        /* \"TimeAlly.sol\":19399:19400  j */\n      dup2\n        /* \"TimeAlly.sol\":19399:19437  j <= loanPlans[_loanPlanId].loanMonths */\n      gt\n        /* \"TimeAlly.sol\":19380:19654  for(uint256 j = 1; j <= loanPlans[_loanPlanId].loanMonths; j++) {... */\n      tag_451\n      jumpi\n        /* \"TimeAlly.sol\":19543:19547  true */\n      0x01\n        /* \"TimeAlly.sol\":19466:19474  stakings */\n      0x08\n        /* \"TimeAlly.sol\":19466:19486  stakings[msg.sender] */\n      0x00\n        /* \"TimeAlly.sol\":19475:19485  msg.sender */\n      caller\n        /* \"TimeAlly.sol\":19466:19486  stakings[msg.sender] */\n      0xffffffffffffffffffffffffffffffffffffffff\n      and\n      0xffffffffffffffffffffffffffffffffffffffff\n      and\n      dup2\n      mstore\n      0x20\n      add\n      swap1\n      dup2\n      mstore\n      0x20\n      add\n      0x00\n      keccak256\n        /* \"TimeAlly.sol\":19488:19499  _stakingIds */\n      dup9\n        /* \"TimeAlly.sol\":19500:19501  i */\n      dup7\n        /* \"TimeAlly.sol\":19488:19502  _stakingIds[i] */\n      dup2\n      mload\n      dup2\n      lt\n      tag_455\n      jumpi\n      invalid\n    tag_455:\n      0x20\n      mul\n      0x20\n      add\n      add\n      mload\n        /* \"TimeAlly.sol\":19466:19504  stakings[msg.sender][ _stakingIds[i] ] */\n      dup2\n      sload\n      dup2\n      lt\n      tag_456\n      jumpi\n      invalid\n    tag_456:\n      swap1\n      0x00\n      mstore\n      keccak256(0x00, 0x20)\n      swap1\n      0x09\n      mul\n      add\n        /* \"TimeAlly.sol\":19466:19519  stakings[msg.sender][ _stakingIds[i] ].isMonthClaimed */\n      0x06\n      add\n        /* \"TimeAlly.sol\":19466:19540  stakings[msg.sender][ _stakingIds[i] ].isMonthClaimed[ _currentMonth + j ] */\n      0x00\n        /* \"TimeAlly.sol\":19537:19538  j */\n      dup4\n        /* \"TimeAlly.sol\":19521:19534  _currentMonth */\n      dup10\n        /* \"TimeAlly.sol\":19521:19538  _currentMonth + j */\n      add\n        /* \"TimeAlly.sol\":19466:19540  stakings[msg.sender][ _stakingIds[i] ].isMonthClaimed[ _currentMonth + j ] */\n      dup2\n      mstore\n      0x20\n      add\n      swap1\n      dup2\n      mstore\n      0x20\n      add\n      0x00\n      keccak256\n      0x00\n        /* \"TimeAlly.sol\":19466:19547  stakings[msg.sender][ _stakingIds[i] ].isMonthClaimed[ _currentMonth + j ] = true */\n      0x0100\n      exp\n      dup2\n      sload\n      dup2\n      0xff\n      mul\n      not\n      and\n      swap1\n      dup4\n      iszero\n      iszero\n      mul\n      or\n      swap1\n      sstore\n      pop\n        /* \"TimeAlly.sol\":19617:19618  2 */\n      0x02\n        /* \"TimeAlly.sol\":19569:19577  stakings */\n      0x08\n        /* \"TimeAlly.sol\":19569:19589  stakings[msg.sender] */\n      0x00\n        /* \"TimeAlly.sol\":19578:19588  msg.sender */\n      caller\n        /* \"TimeAlly.sol\":19569:19589  stakings[msg.sender] */\n      0xffffffffffffffffffffffffffffffffffffffff\n      and\n      0xffffffffffffffffffffffffffffffffffffffff\n      and\n      dup2\n      mstore\n      0x20\n      add\n      swap1\n      dup2\n      mstore\n      0x20\n      add\n      0x00\n      keccak256\n        /* \"TimeAlly.sol\":19591:19602  _stakingIds */\n      dup9\n        /* \"TimeAlly.sol\":19603:19604  i */\n      dup7\n        /* \"TimeAlly.sol\":19591:19605  _stakingIds[i] */\n      dup2\n      mload\n      dup2\n      lt\n      tag_458\n      jumpi\n      invalid\n    tag_458:\n      0x20\n      mul\n      0x20\n      add\n      add\n      mload\n        /* \"TimeAlly.sol\":19569:19607  stakings[msg.sender][ _stakingIds[i] ] */\n      dup2\n      sload\n      dup2\n      lt\n      tag_459\n      jumpi\n      invalid\n    tag_459:\n      swap1\n      0x00\n      mstore\n      keccak256(0x00, 0x20)\n      swap1\n      0x09\n      mul\n      add\n        /* \"TimeAlly.sol\":19569:19614  stakings[msg.sender][ _stakingIds[i] ].status */\n      0x03\n      add\n        /* \"TimeAlly.sol\":19569:19618  stakings[msg.sender][ _stakingIds[i] ].status = 2 */\n      dup2\n      swap1\n      sstore\n      pop\n        /* \"TimeAlly.sol\":19439:19442  j++ */\n      dup1\n      dup1\n      0x01\n      add\n      swap2\n      pop\n      pop\n        /* \"TimeAlly.sol\":19380:19654  for(uint256 j = 1; j <= loanPlans[_loanPlanId].loanMonths; j++) {... */\n      jump(tag_450)\n    tag_451:\n      pop\n        /* \"TimeAlly.sol\":18342:19668  if( isStakingActive(msg.sender, _stakingIds[i], _currentMonth, _currentMonth) ) {... */\n      pop\n      pop\n    tag_424:\n        /* \"TimeAlly.sol\":18322:18325  i++ */\n      dup1\n      dup1\n      0x01\n      add\n      swap2\n      pop\n      pop\n        /* \"TimeAlly.sol\":18279:19678  for(uint256 i = 0; i < _stakingIds.length; i++) {... */\n      jump(tag_419)\n    tag_420:\n      pop\n        /* \"TimeAlly.sol\":19688:19713  uint256 _maxLoaningAmount */\n      0x00\n        /* \"TimeAlly.sol\":19716:19747  _userStakingsExaEsAmount.div(2) */\n      tag_461\n        /* \"TimeAlly.sol\":19745:19746  2 */\n      0x02\n        /* \"TimeAlly.sol\":19716:19740  _userStakingsExaEsAmount */\n      dup4\n        /* \"TimeAlly.sol\":19716:19744  _userStakingsExaEsAmount.div */\n      tag_185\n      swap1\n        /* \"TimeAlly.sol\":19716:19747  _userStakingsExaEsAmount.div(2) */\n      swap2\n      swap1\n      0xffffffff\n      and\n      jump\t// in\n    tag_461:\n        /* \"TimeAlly.sol\":19688:19747  uint256 _maxLoaningAmount = _userStakingsExaEsAmount.div(2) */\n      swap1\n      pop\n        /* \"TimeAlly.sol\":19776:19793  _maxLoaningAmount */\n      dup1\n        /* \"TimeAlly.sol\":19761:19773  _exaEsAmount */\n      dup6\n        /* \"TimeAlly.sol\":19761:19793  _exaEsAmount > _maxLoaningAmount */\n      gt\n        /* \"TimeAlly.sol\":19758:19876  if(_exaEsAmount > _maxLoaningAmount) {... */\n      iszero\n      tag_462\n      jumpi\n        /* \"TimeAlly.sol\":19817:19822  false */\n      0x00\n        /* \"TimeAlly.sol\":19809:19865  require(false, 'cannot loan more than maxLoaningAmount') */\n      tag_463\n      jumpi\n      mload(0x40)\n      0x08c379a000000000000000000000000000000000000000000000000000000000\n      dup2\n      mstore\n      0x04\n      add\n      dup1\n      dup1\n      0x20\n      add\n      dup3\n      dup2\n      sub\n      dup3\n      mstore\n      0x26\n      dup2\n      mstore\n      0x20\n      add\n      dup1\n      data_39460daa7a45684f9dd0ed61ccf993f0ceb0e72e199b722f68f8fd8b9a275c06\n      0x26\n      swap2\n      codecopy\n      0x40\n      add\n      swap2\n      pop\n      pop\n      mload(0x40)\n      dup1\n      swap2\n      sub\n      swap1\n      revert\n    tag_463:\n        /* \"TimeAlly.sol\":19758:19876  if(_exaEsAmount > _maxLoaningAmount) {... */\n    tag_462:\n        /* \"TimeAlly.sol\":19887:19908  uint256 _loanInterest */\n      0x00\n        /* \"TimeAlly.sol\":19911:19969  _exaEsAmount.mul(loanPlans[_loanPlanId].loanRate).div(100) */\n      tag_464\n        /* \"TimeAlly.sol\":19965:19968  100 */\n      0x64\n        /* \"TimeAlly.sol\":19911:19960  _exaEsAmount.mul(loanPlans[_loanPlanId].loanRate) */\n      tag_465\n        /* \"TimeAlly.sol\":19928:19937  loanPlans */\n      0x07\n        /* \"TimeAlly.sol\":19938:19949  _loanPlanId */\n      dup11\n        /* \"TimeAlly.sol\":19928:19950  loanPlans[_loanPlanId] */\n      dup2\n      sload\n      dup2\n      lt\n      tag_466\n      jumpi\n      invalid\n    tag_466:\n      swap1\n      0x00\n      mstore\n      keccak256(0x00, 0x20)\n      swap1\n      0x02\n      mul\n      add\n        /* \"TimeAlly.sol\":19928:19959  loanPlans[_loanPlanId].loanRate */\n      0x01\n      add\n      sload\n        /* \"TimeAlly.sol\":19911:19923  _exaEsAmount */\n      dup10\n        /* \"TimeAlly.sol\":19911:19927  _exaEsAmount.mul */\n      tag_184\n      swap1\n        /* \"TimeAlly.sol\":19911:19960  _exaEsAmount.mul(loanPlans[_loanPlanId].loanRate) */\n      swap2\n      swap1\n      0xffffffff\n      and\n      jump\t// in\n    tag_465:\n        /* \"TimeAlly.sol\":19911:19964  _exaEsAmount.mul(loanPlans[_loanPlanId].loanRate).div */\n      tag_185\n      swap1\n        /* \"TimeAlly.sol\":19911:19969  _exaEsAmount.mul(loanPlans[_loanPlanId].loanRate).div(100) */\n      swap2\n      swap1\n      0xffffffff\n      and\n      jump\t// in\n    tag_464:\n        /* \"TimeAlly.sol\":19887:19969  uint256 _loanInterest = _exaEsAmount.mul(loanPlans[_loanPlanId].loanRate).div(100) */\n      swap1\n      pop\n        /* \"TimeAlly.sol\":19979:20008  uint256 _loanAmountToTransfer */\n      0x00\n        /* \"TimeAlly.sol\":20011:20042  _exaEsAmount.sub(_loanInterest) */\n      tag_468\n        /* \"TimeAlly.sol\":20028:20041  _loanInterest */\n      dup3\n        /* \"TimeAlly.sol\":20011:20023  _exaEsAmount */\n      dup9\n        /* \"TimeAlly.sol\":20011:20027  _exaEsAmount.sub */\n      tag_174\n      swap1\n        /* \"TimeAlly.sol\":20011:20042  _exaEsAmount.sub(_loanInterest) */\n      swap2\n      swap1\n      0xffffffff\n      and\n      jump\t// in\n    tag_468:\n        /* \"TimeAlly.sol\":19979:20042  uint256 _loanAmountToTransfer = _exaEsAmount.sub(_loanInterest) */\n      swap1\n      pop\n        /* \"TimeAlly.sol\":20062:20067  token */\n      0x01\n      0x00\n      swap1\n      sload\n      swap1\n      0x0100\n      exp\n      swap1\n      div\n      0xffffffffffffffffffffffffffffffffffffffff\n      and\n        /* \"TimeAlly.sol\":20062:20076  token.transfer */\n      0xffffffffffffffffffffffffffffffffffffffff\n      and\n      0xa9059cbb\n        /* \"TimeAlly.sol\":20085:20095  nrtManager */\n      0x02\n      0x00\n      swap1\n      sload\n      swap1\n      0x0100\n      exp\n      swap1\n      div\n      0xffffffffffffffffffffffffffffffffffffffff\n      and\n        /* \"TimeAlly.sol\":20098:20111  _loanInterest */\n      dup5\n        /* \"TimeAlly.sol\":20062:20112  token.transfer(address(nrtManager), _loanInterest) */\n      mload(0x40)\n      dup4\n      0xffffffff\n      and\n      0xe0\n      shl\n      dup2\n      mstore\n      0x04\n      add\n      dup1\n      dup4\n      0xffffffffffffffffffffffffffffffffffffffff\n      and\n      0xffffffffffffffffffffffffffffffffffffffff\n      and\n      dup2\n      mstore\n      0x20\n      add\n      dup3\n      dup2\n      mstore\n      0x20\n      add\n      swap3\n      pop\n      pop\n      pop\n      0x20\n      mload(0x40)\n      dup1\n      dup4\n      sub\n      dup2\n      0x00\n      dup8\n      dup1\n      extcodesize\n      iszero\n        /* \"--CODEGEN--\":8:17   */\n      dup1\n        /* \"--CODEGEN--\":5:7   */\n      iszero\n      tag_469\n      jumpi\n        /* \"--CODEGEN--\":30:31   */\n      0x00\n        /* \"--CODEGEN--\":27:28   */\n      dup1\n        /* \"--CODEGEN--\":20:32   */\n      revert\n        /* \"--CODEGEN--\":5:7   */\n    tag_469:\n        /* \"TimeAlly.sol\":20062:20112  token.transfer(address(nrtManager), _loanInterest) */\n      pop\n      gas\n      call\n      iszero\n        /* \"--CODEGEN--\":8:17   */\n      dup1\n        /* \"--CODEGEN--\":5:7   */\n      iszero\n      tag_470\n      jumpi\n        /* \"--CODEGEN--\":45:61   */\n      returndatasize\n        /* \"--CODEGEN--\":42:43   */\n      0x00\n        /* \"--CODEGEN--\":39:40   */\n      dup1\n        /* \"--CODEGEN--\":24:62   */\n      returndatacopy\n        /* \"--CODEGEN--\":77:93   */\n      returndatasize\n        /* \"--CODEGEN--\":74:75   */\n      0x00\n        /* \"--CODEGEN--\":67:94   */\n      revert\n        /* \"--CODEGEN--\":5:7   */\n    tag_470:\n        /* \"TimeAlly.sol\":20062:20112  token.transfer(address(nrtManager), _loanInterest) */\n      pop\n      pop\n      pop\n      pop\n      mload(0x40)\n      returndatasize\n        /* \"--CODEGEN--\":13:15   */\n      0x20\n        /* \"--CODEGEN--\":8:11   */\n      dup2\n        /* \"--CODEGEN--\":5:16   */\n      lt\n        /* \"--CODEGEN--\":2:4   */\n      iszero\n      tag_471\n      jumpi\n        /* \"--CODEGEN--\":29:30   */\n      0x00\n        /* \"--CODEGEN--\":26:27   */\n      dup1\n        /* \"--CODEGEN--\":19:31   */\n      revert\n        /* \"--CODEGEN--\":2:4   */\n    tag_471:\n        /* \"TimeAlly.sol\":20062:20112  token.transfer(address(nrtManager), _loanInterest) */\n      dup2\n      add\n      swap1\n      dup1\n      dup1\n      mload\n      swap1\n      0x20\n      add\n      swap1\n      swap3\n      swap2\n      swap1\n      pop\n      pop\n      pop\n        /* \"TimeAlly.sol\":20053:20114  require( token.transfer(address(nrtManager), _loanInterest) ) */\n      tag_472\n      jumpi\n      0x00\n      dup1\n      revert\n    tag_472:\n        /* \"TimeAlly.sol\":20133:20143  nrtManager */\n      0x02\n      0x00\n      swap1\n      sload\n      swap1\n      0x0100\n      exp\n      swap1\n      div\n      0xffffffffffffffffffffffffffffffffffffffff\n      and\n        /* \"TimeAlly.sol\":20133:20158  nrtManager.UpdateLuckpool */\n      0xffffffffffffffffffffffffffffffffffffffff\n      and\n      0x382e2aab\n        /* \"TimeAlly.sol\":20159:20172  _loanInterest */\n      dup4\n        /* \"TimeAlly.sol\":20133:20173  nrtManager.UpdateLuckpool(_loanInterest) */\n      mload(0x40)\n      dup3\n      0xffffffff\n      and\n      0xe0\n      shl\n      dup2\n      mstore\n      0x04\n      add\n      dup1\n      dup3\n      dup2\n      mstore\n      0x20\n      add\n      swap2\n      pop\n      pop\n      0x20\n      mload(0x40)\n      dup1\n      dup4\n      sub\n      dup2\n      0x00\n      dup8\n      dup1\n      extcodesize\n      iszero\n        /* \"--CODEGEN--\":8:17   */\n      dup1\n        /* \"--CODEGEN--\":5:7   */\n      iszero\n      tag_473\n      jumpi\n        /* \"--CODEGEN--\":30:31   */\n      0x00\n        /* \"--CODEGEN--\":27:28   */\n      dup1\n        /* \"--CODEGEN--\":20:32   */\n      revert\n        /* \"--CODEGEN--\":5:7   */\n    tag_473:\n        /* \"TimeAlly.sol\":20133:20173  nrtManager.UpdateLuckpool(_loanInterest) */\n      pop\n      gas\n      call\n      iszero\n        /* \"--CODEGEN--\":8:17   */\n      dup1\n        /* \"--CODEGEN--\":5:7   */\n      iszero\n      tag_474\n      jumpi\n        /* \"--CODEGEN--\":45:61   */\n      returndatasize\n        /* \"--CODEGEN--\":42:43   */\n      0x00\n        /* \"--CODEGEN--\":39:40   */\n      dup1\n        /* \"--CODEGEN--\":24:62   */\n      returndatacopy\n        /* \"--CODEGEN--\":77:93   */\n      returndatasize\n        /* \"--CODEGEN--\":74:75   */\n      0x00\n        /* \"--CODEGEN--\":67:94   */\n      revert\n        /* \"--CODEGEN--\":5:7   */\n    tag_474:\n        /* \"TimeAlly.sol\":20133:20173  nrtManager.UpdateLuckpool(_loanInterest) */\n      pop\n      pop\n      pop\n      pop\n      mload(0x40)\n      returndatasize\n        /* \"--CODEGEN--\":13:15   */\n      0x20\n        /* \"--CODEGEN--\":8:11   */\n      dup2\n        /* \"--CODEGEN--\":5:16   */\n      lt\n        /* \"--CODEGEN--\":2:4   */\n      iszero\n      tag_475\n      jumpi\n        /* \"--CODEGEN--\":29:30   */\n      0x00\n        /* \"--CODEGEN--\":26:27   */\n      dup1\n        /* \"--CODEGEN--\":19:31   */\n      revert\n        /* \"--CODEGEN--\":2:4   */\n    tag_475:\n        /* \"TimeAlly.sol\":20133:20173  nrtManager.UpdateLuckpool(_loanInterest) */\n      dup2\n      add\n      swap1\n      dup1\n      dup1\n      mload\n      swap1\n      0x20\n      add\n      swap1\n      swap3\n      swap2\n      swap1\n      pop\n      pop\n      pop\n        /* \"TimeAlly.sol\":20124:20175  require( nrtManager.UpdateLuckpool(_loanInterest) ) */\n      tag_476\n      jumpi\n      0x00\n      dup1\n      revert\n    tag_476:\n        /* \"TimeAlly.sol\":20743:20748  loans */\n      0x09\n        /* \"TimeAlly.sol\":20743:20760  loans[msg.sender] */\n      0x00\n        /* \"TimeAlly.sol\":20749:20759  msg.sender */\n      caller\n        /* \"TimeAlly.sol\":20743:20760  loans[msg.sender] */\n      0xffffffffffffffffffffffffffffffffffffffff\n      and\n      0xffffffffffffffffffffffffffffffffffffffff\n      and\n      dup2\n      mstore\n      0x20\n      add\n      swap1\n      dup2\n      mstore\n      0x20\n      add\n      0x00\n      keccak256\n        /* \"TimeAlly.sol\":20766:20954  Loan({... */\n      mload(0x40)\n      dup1\n      0xa0\n      add\n      0x40\n      mstore\n      dup1\n        /* \"TimeAlly.sol\":20798:20810  _exaEsAmount */\n      dup10\n        /* \"TimeAlly.sol\":20766:20954  Loan({... */\n      dup2\n      mstore\n      0x20\n      add\n        /* \"TimeAlly.sol\":20835:20840  token */\n      0x01\n      0x00\n      swap1\n      sload\n      swap1\n      0x0100\n      exp\n      swap1\n      div\n      0xffffffffffffffffffffffffffffffffffffffff\n      and\n        /* \"TimeAlly.sol\":20835:20844  token.mou */\n      0xffffffffffffffffffffffffffffffffffffffff\n      and\n      0xb81f90f3\n        /* \"TimeAlly.sol\":20835:20846  token.mou() */\n      mload(0x40)\n      dup2\n      0xffffffff\n      and\n      0xe0\n      shl\n      dup2\n      mstore\n      0x04\n      add\n      0x20\n      mload(0x40)\n      dup1\n      dup4\n      sub\n      dup2\n      dup7\n      dup1\n      extcodesize\n      iszero\n        /* \"--CODEGEN--\":8:17   */\n      dup1\n        /* \"--CODEGEN--\":5:7   */\n      iszero\n      tag_477\n      jumpi\n        /* \"--CODEGEN--\":30:31   */\n      0x00\n        /* \"--CODEGEN--\":27:28   */\n      dup1\n        /* \"--CODEGEN--\":20:32   */\n      revert\n        /* \"--CODEGEN--\":5:7   */\n    tag_477:\n        /* \"TimeAlly.sol\":20835:20846  token.mou() */\n      pop\n      gas\n      staticcall\n      iszero\n        /* \"--CODEGEN--\":8:17   */\n      dup1\n        /* \"--CODEGEN--\":5:7   */\n      iszero\n      tag_478\n      jumpi\n        /* \"--CODEGEN--\":45:61   */\n      returndatasize\n        /* \"--CODEGEN--\":42:43   */\n      0x00\n        /* \"--CODEGEN--\":39:40   */\n      dup1\n        /* \"--CODEGEN--\":24:62   */\n      returndatacopy\n        /* \"--CODEGEN--\":77:93   */\n      returndatasize\n        /* \"--CODEGEN--\":74:75   */\n      0x00\n        /* \"--CODEGEN--\":67:94   */\n      revert\n        /* \"--CODEGEN--\":5:7   */\n    tag_478:\n        /* \"TimeAlly.sol\":20835:20846  token.mou() */\n      pop\n      pop\n      pop\n      pop\n      mload(0x40)\n      returndatasize\n        /* \"--CODEGEN--\":13:15   */\n      0x20\n        /* \"--CODEGEN--\":8:11   */\n      dup2\n        /* \"--CODEGEN--\":5:16   */\n      lt\n        /* \"--CODEGEN--\":2:4   */\n      iszero\n      tag_479\n      jumpi\n        /* \"--CODEGEN--\":29:30   */\n      0x00\n        /* \"--CODEGEN--\":26:27   */\n      dup1\n        /* \"--CODEGEN--\":19:31   */\n      revert\n        /* \"--CODEGEN--\":2:4   */\n    tag_479:\n        /* \"TimeAlly.sol\":20835:20846  token.mou() */\n      dup2\n      add\n      swap1\n      dup1\n      dup1\n      mload\n      swap1\n      0x20\n      add\n      swap1\n      swap3\n      swap2\n      swap1\n      pop\n      pop\n      pop\n        /* \"TimeAlly.sol\":20766:20954  Loan({... */\n      dup2\n      mstore\n      0x20\n      add\n        /* \"TimeAlly.sol\":20872:20883  _loanPlanId */\n      dup11\n        /* \"TimeAlly.sol\":20766:20954  Loan({... */\n      dup2\n      mstore\n      0x20\n      add\n        /* \"TimeAlly.sol\":20905:20906  1 */\n      0x01\n        /* \"TimeAlly.sol\":20766:20954  Loan({... */\n      dup2\n      mstore\n      0x20\n      add\n        /* \"TimeAlly.sol\":20932:20943  _stakingIds */\n      dup9\n        /* \"TimeAlly.sol\":20766:20954  Loan({... */\n      dup2\n      mstore\n      pop\n        /* \"TimeAlly.sol\":20743:20955  loans[msg.sender].push(Loan({... */\n      swap1\n      dup1\n        /* \"--CODEGEN--\":39:40   */\n      0x01\n        /* \"--CODEGEN--\":33:36   */\n      dup2\n        /* \"--CODEGEN--\":27:37   */\n      sload\n        /* \"--CODEGEN--\":23:41   */\n      add\n        /* \"--CODEGEN--\":57:67   */\n      dup1\n        /* \"--CODEGEN--\":52:55   */\n      dup3\n        /* \"--CODEGEN--\":45:68   */\n      sstore\n        /* \"--CODEGEN--\":79:89   */\n      dup1\n        /* \"--CODEGEN--\":72:89   */\n      swap2\n      pop\n        /* \"--CODEGEN--\":0:93   */\n      pop\n        /* \"TimeAlly.sol\":20743:20955  loans[msg.sender].push(Loan({... */\n      swap1\n      0x01\n      dup3\n      sub\n      swap1\n      0x00\n      mstore\n      keccak256(0x00, 0x20)\n      swap1\n      0x05\n      mul\n      add\n      0x00\n      swap1\n      swap2\n      swap3\n      swap1\n      swap2\n      swap1\n      swap2\n      pop\n      0x00\n      dup3\n      add\n      mload\n      dup2\n      0x00\n      add\n      sstore\n      0x20\n      dup3\n      add\n      mload\n      dup2\n      0x01\n      add\n      sstore\n      0x40\n      dup3\n      add\n      mload\n      dup2\n      0x02\n      add\n      sstore\n      0x60\n      dup3\n      add\n      mload\n      dup2\n      0x03\n      add\n      sstore\n      0x80\n      dup3\n      add\n      mload\n      dup2\n      0x04\n      add\n      swap1\n      dup1\n      mload\n      swap1\n      0x20\n      add\n      swap1\n      tag_481\n      swap3\n      swap2\n      swap1\n      tag_482\n      jump\t// in\n    tag_481:\n      pop\n      pop\n      pop\n      pop\n        /* \"TimeAlly.sol\":21003:21008  token */\n      0x01\n      0x00\n      swap1\n      sload\n      swap1\n      0x0100\n      exp\n      swap1\n      div\n      0xffffffffffffffffffffffffffffffffffffffff\n      and\n        /* \"TimeAlly.sol\":21003:21017  token.transfer */\n      0xffffffffffffffffffffffffffffffffffffffff\n      and\n      0xa9059cbb\n        /* \"TimeAlly.sol\":21018:21028  msg.sender */\n      caller\n        /* \"TimeAlly.sol\":21030:21051  _loanAmountToTransfer */\n      dup4\n        /* \"TimeAlly.sol\":21003:21052  token.transfer(msg.sender, _loanAmountToTransfer) */\n      mload(0x40)\n      dup4\n      0xffffffff\n      and\n      0xe0\n      shl\n      dup2\n      mstore\n      0x04\n      add\n      dup1\n      dup4\n      0xffffffffffffffffffffffffffffffffffffffff\n      and\n      0xffffffffffffffffffffffffffffffffffffffff\n      and\n      dup2\n      mstore\n      0x20\n      add\n      dup3\n      dup2\n      mstore\n      0x20\n      add\n      swap3\n      pop\n      pop\n      pop\n      0x20\n      mload(0x40)\n      dup1\n      dup4\n      sub\n      dup2\n      0x00\n      dup8\n      dup1\n      extcodesize\n      iszero\n        /* \"--CODEGEN--\":8:17   */\n      dup1\n        /* \"--CODEGEN--\":5:7   */\n      iszero\n      tag_483\n      jumpi\n        /* \"--CODEGEN--\":30:31   */\n      0x00\n        /* \"--CODEGEN--\":27:28   */\n      dup1\n        /* \"--CODEGEN--\":20:32   */\n      revert\n        /* \"--CODEGEN--\":5:7   */\n    tag_483:\n        /* \"TimeAlly.sol\":21003:21052  token.transfer(msg.sender, _loanAmountToTransfer) */\n      pop\n      gas\n      call\n      iszero\n        /* \"--CODEGEN--\":8:17   */\n      dup1\n        /* \"--CODEGEN--\":5:7   */\n      iszero\n      tag_484\n      jumpi\n        /* \"--CODEGEN--\":45:61   */\n      returndatasize\n        /* \"--CODEGEN--\":42:43   */\n      0x00\n        /* \"--CODEGEN--\":39:40   */\n      dup1\n        /* \"--CODEGEN--\":24:62   */\n      returndatacopy\n        /* \"--CODEGEN--\":77:93   */\n      returndatasize\n        /* \"--CODEGEN--\":74:75   */\n      0x00\n        /* \"--CODEGEN--\":67:94   */\n      revert\n        /* \"--CODEGEN--\":5:7   */\n    tag_484:\n        /* \"TimeAlly.sol\":21003:21052  token.transfer(msg.sender, _loanAmountToTransfer) */\n      pop\n      pop\n      pop\n      pop\n      mload(0x40)\n      returndatasize\n        /* \"--CODEGEN--\":13:15   */\n      0x20\n        /* \"--CODEGEN--\":8:11   */\n      dup2\n        /* \"--CODEGEN--\":5:16   */\n      lt\n        /* \"--CODEGEN--\":2:4   */\n      iszero\n      tag_485\n      jumpi\n        /* \"--CODEGEN--\":29:30   */\n      0x00\n        /* \"--CODEGEN--\":26:27   */\n      dup1\n        /* \"--CODEGEN--\":19:31   */\n      revert\n        /* \"--CODEGEN--\":2:4   */\n    tag_485:\n        /* \"TimeAlly.sol\":21003:21052  token.transfer(msg.sender, _loanAmountToTransfer) */\n      dup2\n      add\n      swap1\n      dup1\n      dup1\n      mload\n      swap1\n      0x20\n      add\n      swap1\n      swap3\n      swap2\n      swap1\n      pop\n      pop\n      pop\n        /* \"TimeAlly.sol\":20994:21054  require( token.transfer(msg.sender, _loanAmountToTransfer) ) */\n      tag_486\n      jumpi\n      0x00\n      dup1\n      revert\n    tag_486:\n        /* \"TimeAlly.sol\":21090:21101  _loanPlanId */\n      dup8\n        /* \"TimeAlly.sol\":21078:21088  msg.sender */\n      caller\n        /* \"TimeAlly.sol\":21070:21161  NewLoan(msg.sender, _loanPlanId, _exaEsAmount, _loanInterest, loans[msg.sender].length - 1) */\n      0xffffffffffffffffffffffffffffffffffffffff\n      and\n      0x583f4a449110798c282200ea42774808b8147fa4bcb89a6ca406dd0650e034e7\n        /* \"TimeAlly.sol\":21103:21115  _exaEsAmount */\n      dup10\n        /* \"TimeAlly.sol\":21117:21130  _loanInterest */\n      dup6\n        /* \"TimeAlly.sol\":21159:21160  1 */\n      0x01\n        /* \"TimeAlly.sol\":21132:21137  loans */\n      0x09\n        /* \"TimeAlly.sol\":21132:21149  loans[msg.sender] */\n      0x00\n        /* \"TimeAlly.sol\":21138:21148  msg.sender */\n      caller\n        /* \"TimeAlly.sol\":21132:21149  loans[msg.sender] */\n      0xffffffffffffffffffffffffffffffffffffffff\n      and\n      0xffffffffffffffffffffffffffffffffffffffff\n      and\n      dup2\n      mstore\n      0x20\n      add\n      swap1\n      dup2\n      mstore\n      0x20\n      add\n      0x00\n      keccak256\n        /* \"TimeAlly.sol\":21132:21156  loans[msg.sender].length */\n      dup1\n      sload\n      swap1\n      pop\n        /* \"TimeAlly.sol\":21132:21160  loans[msg.sender].length - 1 */\n      sub\n        /* \"TimeAlly.sol\":21070:21161  NewLoan(msg.sender, _loanPlanId, _exaEsAmount, _loanInterest, loans[msg.sender].length - 1) */\n      mload(0x40)\n      dup1\n      dup5\n      dup2\n      mstore\n      0x20\n      add\n      dup4\n      dup2\n      mstore\n      0x20\n      add\n      dup3\n      dup2\n      mstore\n      0x20\n      add\n      swap4\n      pop\n      pop\n      pop\n      pop\n      mload(0x40)\n      dup1\n      swap2\n      sub\n      swap1\n      log3\n        /* \"TimeAlly.sol\":17841:21168  function takeLoanOnSelfStaking(uint256 _loanPlanId, uint256 _exaEsAmount, uint256[] memory _stakingIds) public {... */\n      pop\n      pop\n      pop\n      pop\n      pop\n      pop\n      pop\n      pop\n      jump\t// out\n        /* \"TimeAlly.sol\":5811:6939  function claimLaunchReward(uint256 _stakingPlanId) public {... */\n    tag_136:\n        /* \"TimeAlly.sol\":5914:5915  0 */\n      0x00\n        /* \"TimeAlly.sol\":5887:5899  launchReward */\n      0x0c\n        /* \"TimeAlly.sol\":5887:5911  launchReward[msg.sender] */\n      0x00\n        /* \"TimeAlly.sol\":5900:5910  msg.sender */\n      caller\n        /* \"TimeAlly.sol\":5887:5911  launchReward[msg.sender] */\n      0xffffffffffffffffffffffffffffffffffffffff\n      and\n      0xffffffffffffffffffffffffffffffffffffffff\n      and\n      dup2\n      mstore\n      0x20\n      add\n      swap1\n      dup2\n      mstore\n      0x20\n      add\n      0x00\n      keccak256\n      sload\n        /* \"TimeAlly.sol\":5887:5915  launchReward[msg.sender] > 0 */\n      gt\n        /* \"TimeAlly.sol\":5879:5916  require(launchReward[msg.sender] > 0) */\n      tag_488\n      jumpi\n      0x00\n      dup1\n      revert\n    tag_488:\n        /* \"TimeAlly.sol\":5926:5940  uint256 reward */\n      0x00\n        /* \"TimeAlly.sol\":5943:5955  launchReward */\n      0x0c\n        /* \"TimeAlly.sol\":5943:5967  launchReward[msg.sender] */\n      0x00\n        /* \"TimeAlly.sol\":5956:5966  msg.sender */\n      caller\n        /* \"TimeAlly.sol\":5943:5967  launchReward[msg.sender] */\n      0xffffffffffffffffffffffffffffffffffffffff\n      and\n      0xffffffffffffffffffffffffffffffffffffffff\n      and\n      dup2\n      mstore\n      0x20\n      add\n      swap1\n      dup2\n      mstore\n      0x20\n      add\n      0x00\n      keccak256\n      sload\n        /* \"TimeAlly.sol\":5926:5967  uint256 reward = launchReward[msg.sender] */\n      swap1\n      pop\n        /* \"TimeAlly.sol\":6004:6005  0 */\n      0x00\n        /* \"TimeAlly.sol\":5977:5989  launchReward */\n      0x0c\n        /* \"TimeAlly.sol\":5977:6001  launchReward[msg.sender] */\n      0x00\n        /* \"TimeAlly.sol\":5990:6000  msg.sender */\n      caller\n        /* \"TimeAlly.sol\":5977:6001  launchReward[msg.sender] */\n      0xffffffffffffffffffffffffffffffffffffffff\n      and\n      0xffffffffffffffffffffffffffffffffffffffff\n      and\n      dup2\n      mstore\n      0x20\n      add\n      swap1\n      dup2\n      mstore\n      0x20\n      add\n      0x00\n      keccak256\n        /* \"TimeAlly.sol\":5977:6005  launchReward[msg.sender] = 0 */\n      dup2\n      swap1\n      sstore\n      pop\n        /* \"TimeAlly.sol\":6046:6067  uint256 stakeEndMonth */\n      0x00\n        /* \"TimeAlly.sol\":6094:6106  stakingPlans */\n      0x06\n        /* \"TimeAlly.sol\":6107:6121  _stakingPlanId */\n      dup4\n        /* \"TimeAlly.sol\":6094:6122  stakingPlans[_stakingPlanId] */\n      dup2\n      sload\n      dup2\n      lt\n      tag_489\n      jumpi\n      invalid\n    tag_489:\n      swap1\n      0x00\n      mstore\n      keccak256(0x00, 0x20)\n      swap1\n      0x02\n      mul\n      add\n        /* \"TimeAlly.sol\":6094:6129  stakingPlans[_stakingPlanId].months */\n      0x00\n      add\n      sload\n        /* \"TimeAlly.sol\":6090:6091  1 */\n      0x01\n        /* \"TimeAlly.sol\":6070:6087  getCurrentMonth() */\n      tag_491\n        /* \"TimeAlly.sol\":6070:6085  getCurrentMonth */\n      tag_138\n        /* \"TimeAlly.sol\":6070:6087  getCurrentMonth() */\n      jump\t// in\n    tag_491:\n        /* \"TimeAlly.sol\":6070:6091  getCurrentMonth() + 1 */\n      add\n        /* \"TimeAlly.sol\":6070:6129  getCurrentMonth() + 1 + stakingPlans[_stakingPlanId].months */\n      add\n        /* \"TimeAlly.sol\":6046:6129  uint256 stakeEndMonth = getCurrentMonth() + 1 + stakingPlans[_stakingPlanId].months */\n      swap1\n      pop\n        /* \"TimeAlly.sol\":6260:6273  uint256 month */\n      0x00\n        /* \"TimeAlly.sol\":6296:6297  1 */\n      0x01\n        /* \"TimeAlly.sol\":6276:6293  getCurrentMonth() */\n      tag_495\n        /* \"TimeAlly.sol\":6276:6291  getCurrentMonth */\n      tag_138\n        /* \"TimeAlly.sol\":6276:6293  getCurrentMonth() */\n      jump\t// in\n    tag_495:\n        /* \"TimeAlly.sol\":6276:6297  getCurrentMonth() + 1 */\n      add\n        /* \"TimeAlly.sol\":6260:6297  uint256 month = getCurrentMonth() + 1 */\n      swap1\n      pop\n        /* \"TimeAlly.sol\":6245:6449  for(... */\n    tag_492:\n        /* \"TimeAlly.sol\":6317:6330  stakeEndMonth */\n      dup2\n        /* \"TimeAlly.sol\":6309:6314  month */\n      dup2\n        /* \"TimeAlly.sol\":6309:6330  month < stakeEndMonth */\n      lt\n        /* \"TimeAlly.sol\":6245:6449  for(... */\n      iszero\n      tag_493\n      jumpi\n        /* \"TimeAlly.sol\":6432:6438  reward */\n      dup3\n        /* \"TimeAlly.sol\":6403:6422  totalActiveStakings */\n      0x0a\n        /* \"TimeAlly.sol\":6403:6429  totalActiveStakings[month] */\n      0x00\n        /* \"TimeAlly.sol\":6423:6428  month */\n      dup4\n        /* \"TimeAlly.sol\":6403:6429  totalActiveStakings[month] */\n      dup2\n      mstore\n      0x20\n      add\n      swap1\n      dup2\n      mstore\n      0x20\n      add\n      0x00\n      keccak256\n      sload\n        /* \"TimeAlly.sol\":6403:6438  totalActiveStakings[month] + reward */\n      add\n        /* \"TimeAlly.sol\":6374:6393  totalActiveStakings */\n      0x0a\n        /* \"TimeAlly.sol\":6374:6400  totalActiveStakings[month] */\n      0x00\n        /* \"TimeAlly.sol\":6394:6399  month */\n      dup4\n        /* \"TimeAlly.sol\":6374:6400  totalActiveStakings[month] */\n      dup2\n      mstore\n      0x20\n      add\n      swap1\n      dup2\n      mstore\n      0x20\n      add\n      0x00\n      keccak256\n        /* \"TimeAlly.sol\":6374:6438  totalActiveStakings[month] = totalActiveStakings[month] + reward */\n      dup2\n      swap1\n      sstore\n      pop\n        /* \"TimeAlly.sol\":6342:6349  month++ */\n      dup1\n      dup1\n      0x01\n      add\n      swap2\n      pop\n      pop\n        /* \"TimeAlly.sol\":6245:6449  for(... */\n      jump(tag_492)\n    tag_493:\n      pop\n        /* \"TimeAlly.sol\":6459:6494  Staking[] storage userStakingsArray */\n      0x00\n        /* \"TimeAlly.sol\":6497:6505  stakings */\n      0x08\n        /* \"TimeAlly.sol\":6497:6517  stakings[msg.sender] */\n      0x00\n        /* \"TimeAlly.sol\":6506:6516  msg.sender */\n      caller\n        /* \"TimeAlly.sol\":6497:6517  stakings[msg.sender] */\n      0xffffffffffffffffffffffffffffffffffffffff\n      and\n      0xffffffffffffffffffffffffffffffffffffffff\n      and\n      dup2\n      mstore\n      0x20\n      add\n      swap1\n      dup2\n      mstore\n      0x20\n      add\n      0x00\n      keccak256\n        /* \"TimeAlly.sol\":6459:6517  Staking[] storage userStakingsArray = stakings[msg.sender] */\n      swap1\n      pop\n        /* \"TimeAlly.sol\":6527:6544  userStakingsArray */\n      dup1\n        /* \"TimeAlly.sol\":6550:6839  Staking({... */\n      mload(0x40)\n      dup1\n      0x0100\n      add\n      0x40\n      mstore\n      dup1\n        /* \"TimeAlly.sol\":6585:6591  reward */\n      dup6\n        /* \"TimeAlly.sol\":6550:6839  Staking({... */\n      dup2\n      mstore\n      0x20\n      add\n        /* \"TimeAlly.sol\":6616:6621  token */\n      0x01\n      0x00\n      swap1\n      sload\n      swap1\n      0x0100\n      exp\n      swap1\n      div\n      0xffffffffffffffffffffffffffffffffffffffff\n      and\n        /* \"TimeAlly.sol\":6616:6625  token.mou */\n      0xffffffffffffffffffffffffffffffffffffffff\n      and\n      0xb81f90f3\n        /* \"TimeAlly.sol\":6616:6627  token.mou() */\n      mload(0x40)\n      dup2\n      0xffffffff\n      and\n      0xe0\n      shl\n      dup2\n      mstore\n      0x04\n      add\n      0x20\n      mload(0x40)\n      dup1\n      dup4\n      sub\n      dup2\n      dup7\n      dup1\n      extcodesize\n      iszero\n        /* \"--CODEGEN--\":8:17   */\n      dup1\n        /* \"--CODEGEN--\":5:7   */\n      iszero\n      tag_496\n      jumpi\n        /* \"--CODEGEN--\":30:31   */\n      0x00\n        /* \"--CODEGEN--\":27:28   */\n      dup1\n        /* \"--CODEGEN--\":20:32   */\n      revert\n        /* \"--CODEGEN--\":5:7   */\n    tag_496:\n        /* \"TimeAlly.sol\":6616:6627  token.mou() */\n      pop\n      gas\n      staticcall\n      iszero\n        /* \"--CODEGEN--\":8:17   */\n      dup1\n        /* \"--CODEGEN--\":5:7   */\n      iszero\n      tag_497\n      jumpi\n        /* \"--CODEGEN--\":45:61   */\n      returndatasize\n        /* \"--CODEGEN--\":42:43   */\n      0x00\n        /* \"--CODEGEN--\":39:40   */\n      dup1\n        /* \"--CODEGEN--\":24:62   */\n      returndatacopy\n        /* \"--CODEGEN--\":77:93   */\n      returndatasize\n        /* \"--CODEGEN--\":74:75   */\n      0x00\n        /* \"--CODEGEN--\":67:94   */\n      revert\n        /* \"--CODEGEN--\":5:7   */\n    tag_497:\n        /* \"TimeAlly.sol\":6616:6627  token.mou() */\n      pop\n      pop\n      pop\n      pop\n      mload(0x40)\n      returndatasize\n        /* \"--CODEGEN--\":13:15   */\n      0x20\n        /* \"--CODEGEN--\":8:11   */\n      dup2\n        /* \"--CODEGEN--\":5:16   */\n      lt\n        /* \"--CODEGEN--\":2:4   */\n      iszero\n      tag_498\n      jumpi\n        /* \"--CODEGEN--\":29:30   */\n      0x00\n        /* \"--CODEGEN--\":26:27   */\n      dup1\n        /* \"--CODEGEN--\":19:31   */\n      revert\n        /* \"--CODEGEN--\":2:4   */\n    tag_498:\n        /* \"TimeAlly.sol\":6616:6627  token.mou() */\n      dup2\n      add\n      swap1\n      dup1\n      dup1\n      mload\n      swap1\n      0x20\n      add\n      swap1\n      swap3\n      swap2\n      swap1\n      pop\n      pop\n      pop\n        /* \"TimeAlly.sol\":6550:6839  Staking({... */\n      dup2\n      mstore\n      0x20\n      add\n        /* \"TimeAlly.sol\":6656:6670  _stakingPlanId */\n      dup7\n        /* \"TimeAlly.sol\":6550:6839  Staking({... */\n      dup2\n      mstore\n      0x20\n      add\n        /* \"TimeAlly.sol\":6692:6693  1 */\n      0x01\n        /* \"TimeAlly.sol\":6550:6839  Staking({... */\n      dup2\n      mstore\n      0x20\n      add\n        /* \"TimeAlly.sol\":6727:6728  0 */\n      0x00\n        /* \"TimeAlly.sol\":6550:6839  Staking({... */\n      dup2\n      mstore\n      0x20\n      add\n        /* \"TimeAlly.sol\":6750:6751  0 */\n      0x00\n        /* \"TimeAlly.sol\":6550:6839  Staking({... */\n      dup2\n      mstore\n      0x20\n      add\n        /* \"TimeAlly.sol\":6789:6790  0 */\n      0x00\n        /* \"TimeAlly.sol\":6550:6839  Staking({... */\n      dup2\n      mstore\n      0x20\n      add\n        /* \"TimeAlly.sol\":6827:6828  0 */\n      0x00\n        /* \"TimeAlly.sol\":6550:6839  Staking({... */\n      dup2\n      mstore\n      pop\n        /* \"TimeAlly.sol\":6527:6840  userStakingsArray.push(Staking({... */\n      swap1\n      dup1\n        /* \"--CODEGEN--\":39:40   */\n      0x01\n        /* \"--CODEGEN--\":33:36   */\n      dup2\n        /* \"--CODEGEN--\":27:37   */\n      sload\n        /* \"--CODEGEN--\":23:41   */\n      add\n        /* \"--CODEGEN--\":57:67   */\n      dup1\n        /* \"--CODEGEN--\":52:55   */\n      dup3\n        /* \"--CODEGEN--\":45:68   */\n      sstore\n        /* \"--CODEGEN--\":79:89   */\n      dup1\n        /* \"--CODEGEN--\":72:89   */\n      swap2\n      pop\n        /* \"--CODEGEN--\":0:93   */\n      pop\n        /* \"TimeAlly.sol\":6527:6840  userStakingsArray.push(Staking({... */\n      swap1\n      0x01\n      dup3\n      sub\n      swap1\n      0x00\n      mstore\n      keccak256(0x00, 0x20)\n      swap1\n      0x09\n      mul\n      add\n      0x00\n      swap1\n      swap2\n      swap3\n      swap1\n      swap2\n      swap1\n      swap2\n      pop\n      0x00\n      dup3\n      add\n      mload\n      dup2\n      0x00\n      add\n      sstore\n      0x20\n      dup3\n      add\n      mload\n      dup2\n      0x01\n      add\n      sstore\n      0x40\n      dup3\n      add\n      mload\n      dup2\n      0x02\n      add\n      sstore\n      0x60\n      dup3\n      add\n      mload\n      dup2\n      0x03\n      add\n      sstore\n      0x80\n      dup3\n      add\n      mload\n      dup2\n      0x04\n      add\n      sstore\n      0xa0\n      dup3\n      add\n      mload\n      dup2\n      0x05\n      add\n      sstore\n      0xc0\n      dup3\n      add\n      mload\n      dup2\n      0x07\n      add\n      sstore\n      0xe0\n      dup3\n      add\n      mload\n      dup2\n      0x08\n      add\n      sstore\n      pop\n      pop\n      pop\n        /* \"TimeAlly.sol\":6879:6893  _stakingPlanId */\n      dup4\n        /* \"TimeAlly.sol\":6867:6877  msg.sender */\n      caller\n        /* \"TimeAlly.sol\":6856:6932  NewStaking(msg.sender, _stakingPlanId, reward, userStakingsArray.length - 1) */\n      0xffffffffffffffffffffffffffffffffffffffff\n      and\n      0x680a0e2e97ad7c29da7985e37b699f19857c055166f801e50d90661eae30fcc3\n        /* \"TimeAlly.sol\":6895:6901  reward */\n      dup6\n        /* \"TimeAlly.sol\":6930:6931  1 */\n      0x01\n        /* \"TimeAlly.sol\":6903:6920  userStakingsArray */\n      dup6\n        /* \"TimeAlly.sol\":6903:6927  userStakingsArray.length */\n      dup1\n      sload\n      swap1\n      pop\n        /* \"TimeAlly.sol\":6903:6931  userStakingsArray.length - 1 */\n      sub\n        /* \"TimeAlly.sol\":6856:6932  NewStaking(msg.sender, _stakingPlanId, reward, userStakingsArray.length - 1) */\n      mload(0x40)\n      dup1\n      dup4\n      dup2\n      mstore\n      0x20\n      add\n      dup3\n      dup2\n      mstore\n      0x20\n      add\n      swap3\n      pop\n      pop\n      pop\n      mload(0x40)\n      dup1\n      swap2\n      sub\n      swap1\n      log3\n        /* \"TimeAlly.sol\":5811:6939  function claimLaunchReward(uint256 _stakingPlanId) public {... */\n      pop\n      pop\n      pop\n      pop\n      jump\t// out\n        /* \"TimeAlly.sol\":2813:2923  function getCurrentMonth() public view returns (uint256) {... */\n    tag_138:\n        /* \"TimeAlly.sol\":2861:2868  uint256 */\n      0x00\n        /* \"TimeAlly.sol\":2915:2916  1 */\n      0x01\n        /* \"TimeAlly.sol\":2887:2905  timeAllyMonthlyNRT */\n      0x05\n        /* \"TimeAlly.sol\":2887:2912  timeAllyMonthlyNRT.length */\n      dup1\n      sload\n      swap1\n      pop\n        /* \"TimeAlly.sol\":2887:2916  timeAllyMonthlyNRT.length - 1 */\n      sub\n        /* \"TimeAlly.sol\":2880:2916  return timeAllyMonthlyNRT.length - 1 */\n      swap1\n      pop\n        /* \"TimeAlly.sol\":2813:2923  function getCurrentMonth() public view returns (uint256) {... */\n      swap1\n      jump\t// out\n        /* \"TimeAlly.sol\":21206:22510  function repayLoanSelf(uint256 _loanId) public {... */\n    tag_141:\n        /* \"TimeAlly.sol\":21308:21309  1 */\n      0x01\n        /* \"TimeAlly.sol\":21271:21276  loans */\n      0x09\n        /* \"TimeAlly.sol\":21271:21288  loans[msg.sender] */\n      0x00\n        /* \"TimeAlly.sol\":21277:21287  msg.sender */\n      caller\n        /* \"TimeAlly.sol\":21271:21288  loans[msg.sender] */\n      0xffffffffffffffffffffffffffffffffffffffff\n      and\n      0xffffffffffffffffffffffffffffffffffffffff\n      and\n      dup2\n      mstore\n      0x20\n      add\n      swap1\n      dup2\n      mstore\n      0x20\n      add\n      0x00\n      keccak256\n        /* \"TimeAlly.sol\":21289:21296  _loanId */\n      dup3\n        /* \"TimeAlly.sol\":21271:21297  loans[msg.sender][_loanId] */\n      dup2\n      sload\n      dup2\n      lt\n      tag_502\n      jumpi\n      invalid\n    tag_502:\n      swap1\n      0x00\n      mstore\n      keccak256(0x00, 0x20)\n      swap1\n      0x05\n      mul\n      add\n        /* \"TimeAlly.sol\":21271:21304  loans[msg.sender][_loanId].status */\n      0x03\n      add\n      sload\n        /* \"TimeAlly.sol\":21271:21309  loans[msg.sender][_loanId].status == 1 */\n      eq\n        /* \"TimeAlly.sol\":21263:21342  require(loans[msg.sender][_loanId].status == 1, 'can only repay pending loans') */\n      tag_504\n      jumpi\n      mload(0x40)\n      0x08c379a000000000000000000000000000000000000000000000000000000000\n      dup2\n      mstore\n      0x04\n      add\n      dup1\n      dup1\n      0x20\n      add\n      dup3\n      dup2\n      sub\n      dup3\n      mstore\n      0x1c\n      dup2\n      mstore\n      0x20\n      add\n      dup1\n      0x63616e206f6e6c792072657061792070656e64696e67206c6f616e7300000000\n      dup2\n      mstore\n      pop\n      0x20\n      add\n      swap2\n      pop\n      pop\n      mload(0x40)\n      dup1\n      swap2\n      sub\n      swap1\n      revert\n    tag_504:\n        /* \"TimeAlly.sol\":21361:21366  token */\n      0x01\n      0x00\n      swap1\n      sload\n      swap1\n      0x0100\n      exp\n      swap1\n      div\n      0xffffffffffffffffffffffffffffffffffffffff\n      and\n        /* \"TimeAlly.sol\":21361:21379  token.transferFrom */\n      0xffffffffffffffffffffffffffffffffffffffff\n      and\n      0x23b872dd\n        /* \"TimeAlly.sol\":21380:21390  msg.sender */\n      caller\n        /* \"TimeAlly.sol\":21400:21404  this */\n      address\n        /* \"TimeAlly.sol\":21407:21412  loans */\n      0x09\n        /* \"TimeAlly.sol\":21407:21424  loans[msg.sender] */\n      0x00\n        /* \"TimeAlly.sol\":21413:21423  msg.sender */\n      caller\n        /* \"TimeAlly.sol\":21407:21424  loans[msg.sender] */\n      0xffffffffffffffffffffffffffffffffffffffff\n      and\n      0xffffffffffffffffffffffffffffffffffffffff\n      and\n      dup2\n      mstore\n      0x20\n      add\n      swap1\n      dup2\n      mstore\n      0x20\n      add\n      0x00\n      keccak256\n        /* \"TimeAlly.sol\":21425:21432  _loanId */\n      dup6\n        /* \"TimeAlly.sol\":21407:21433  loans[msg.sender][_loanId] */\n      dup2\n      sload\n      dup2\n      lt\n      tag_505\n      jumpi\n      invalid\n    tag_505:\n      swap1\n      0x00\n      mstore\n      keccak256(0x00, 0x20)\n      swap1\n      0x05\n      mul\n      add\n        /* \"TimeAlly.sol\":21407:21445  loans[msg.sender][_loanId].exaEsAmount */\n      0x00\n      add\n      sload\n        /* \"TimeAlly.sol\":21361:21446  token.transferFrom(msg.sender, address(this), loans[msg.sender][_loanId].exaEsAmount) */\n      mload(0x40)\n      dup5\n      0xffffffff\n      and\n      0xe0\n      shl\n      dup2\n      mstore\n      0x04\n      add\n      dup1\n      dup5\n      0xffffffffffffffffffffffffffffffffffffffff\n      and\n      0xffffffffffffffffffffffffffffffffffffffff\n      and\n      dup2\n      mstore\n      0x20\n      add\n      dup4\n      0xffffffffffffffffffffffffffffffffffffffff\n      and\n      0xffffffffffffffffffffffffffffffffffffffff\n      and\n      dup2\n      mstore\n      0x20\n      add\n      dup3\n      dup2\n      mstore\n      0x20\n      add\n      swap4\n      pop\n      pop\n      pop\n      pop\n      0x20\n      mload(0x40)\n      dup1\n      dup4\n      sub\n      dup2\n      0x00\n      dup8\n      dup1\n      extcodesize\n      iszero\n        /* \"--CODEGEN--\":8:17   */\n      dup1\n        /* \"--CODEGEN--\":5:7   */\n      iszero\n      tag_507\n      jumpi\n        /* \"--CODEGEN--\":30:31   */\n      0x00\n        /* \"--CODEGEN--\":27:28   */\n      dup1\n        /* \"--CODEGEN--\":20:32   */\n      revert\n        /* \"--CODEGEN--\":5:7   */\n    tag_507:\n        /* \"TimeAlly.sol\":21361:21446  token.transferFrom(msg.sender, address(this), loans[msg.sender][_loanId].exaEsAmount) */\n      pop\n      gas\n      call\n      iszero\n        /* \"--CODEGEN--\":8:17   */\n      dup1\n        /* \"--CODEGEN--\":5:7   */\n      iszero\n      tag_508\n      jumpi\n        /* \"--CODEGEN--\":45:61   */\n      returndatasize\n        /* \"--CODEGEN--\":42:43   */\n      0x00\n        /* \"--CODEGEN--\":39:40   */\n      dup1\n        /* \"--CODEGEN--\":24:62   */\n      returndatacopy\n        /* \"--CODEGEN--\":77:93   */\n      returndatasize\n        /* \"--CODEGEN--\":74:75   */\n      0x00\n        /* \"--CODEGEN--\":67:94   */\n      revert\n        /* \"--CODEGEN--\":5:7   */\n    tag_508:\n        /* \"TimeAlly.sol\":21361:21446  token.transferFrom(msg.sender, address(this), loans[msg.sender][_loanId].exaEsAmount) */\n      pop\n      pop\n      pop\n      pop\n      mload(0x40)\n      returndatasize\n        /* \"--CODEGEN--\":13:15   */\n      0x20\n        /* \"--CODEGEN--\":8:11   */\n      dup2\n        /* \"--CODEGEN--\":5:16   */\n      lt\n        /* \"--CODEGEN--\":2:4   */\n      iszero\n      tag_509\n      jumpi\n        /* \"--CODEGEN--\":29:30   */\n      0x00\n        /* \"--CODEGEN--\":26:27   */\n      dup1\n        /* \"--CODEGEN--\":19:31   */\n      revert\n        /* \"--CODEGEN--\":2:4   */\n    tag_509:\n        /* \"TimeAlly.sol\":21361:21446  token.transferFrom(msg.sender, address(this), loans[msg.sender][_loanId].exaEsAmount) */\n      dup2\n      add\n      swap1\n      dup1\n      dup1\n      mload\n      swap1\n      0x20\n      add\n      swap1\n      swap3\n      swap2\n      swap1\n      pop\n      pop\n      pop\n        /* \"TimeAlly.sol\":21353:21515  require(token.transferFrom(msg.sender, address(this), loans[msg.sender][_loanId].exaEsAmount), 'cannot receive enough tokens, please check if allowance is there') */\n      tag_510\n      jumpi\n      mload(0x40)\n      0x08c379a000000000000000000000000000000000000000000000000000000000\n      dup2\n      mstore\n      0x04\n      add\n      dup1\n      dup1\n      0x20\n      add\n      dup3\n      dup2\n      sub\n      dup3\n      mstore\n      0x40\n      dup2\n      mstore\n      0x20\n      add\n      dup1\n      data_9dc458dbb6ce1791a3f9802dbdb820884214d2513b45f4efec23e9f5109e79ae\n      0x40\n      swap2\n      codecopy\n      0x40\n      add\n      swap2\n      pop\n      pop\n      mload(0x40)\n      dup1\n      swap2\n      sub\n      swap1\n      revert\n    tag_510:\n        /* \"TimeAlly.sol\":21562:21563  2 */\n      0x02\n        /* \"TimeAlly.sol\":21526:21531  loans */\n      0x09\n        /* \"TimeAlly.sol\":21526:21543  loans[msg.sender] */\n      0x00\n        /* \"TimeAlly.sol\":21532:21542  msg.sender */\n      caller\n        /* \"TimeAlly.sol\":21526:21543  loans[msg.sender] */\n      0xffffffffffffffffffffffffffffffffffffffff\n      and\n      0xffffffffffffffffffffffffffffffffffffffff\n      and\n      dup2\n      mstore\n      0x20\n      add\n      swap1\n      dup2\n      mstore\n      0x20\n      add\n      0x00\n      keccak256\n        /* \"TimeAlly.sol\":21544:21551  _loanId */\n      dup3\n        /* \"TimeAlly.sol\":21526:21552  loans[msg.sender][_loanId] */\n      dup2\n      sload\n      dup2\n      lt\n      tag_511\n      jumpi\n      invalid\n    tag_511:\n      swap1\n      0x00\n      mstore\n      keccak256(0x00, 0x20)\n      swap1\n      0x05\n      mul\n      add\n        /* \"TimeAlly.sol\":21526:21559  loans[msg.sender][_loanId].status */\n      0x03\n      add\n        /* \"TimeAlly.sol\":21526:21563  loans[msg.sender][_loanId].status = 2 */\n      dup2\n      swap1\n      sstore\n      pop\n        /* \"TimeAlly.sol\":21745:21754  uint256 i */\n      0x00\n        /* \"TimeAlly.sol\":21757:21758  0 */\n      dup1\n        /* \"TimeAlly.sol\":21745:21758  uint256 i = 0 */\n      swap1\n      pop\n        /* \"TimeAlly.sol\":21741:22503  for(uint256 i = 0; i < loans[msg.sender][_loanId].stakingIds.length; i++) {... */\n    tag_513:\n        /* \"TimeAlly.sol\":21764:21769  loans */\n      0x09\n        /* \"TimeAlly.sol\":21764:21781  loans[msg.sender] */\n      0x00\n        /* \"TimeAlly.sol\":21770:21780  msg.sender */\n      caller\n        /* \"TimeAlly.sol\":21764:21781  loans[msg.sender] */\n      0xffffffffffffffffffffffffffffffffffffffff\n      and\n      0xffffffffffffffffffffffffffffffffffffffff\n      and\n      dup2\n      mstore\n      0x20\n      add\n      swap1\n      dup2\n      mstore\n      0x20\n      add\n      0x00\n      keccak256\n        /* \"TimeAlly.sol\":21782:21789  _loanId */\n      dup3\n        /* \"TimeAlly.sol\":21764:21790  loans[msg.sender][_loanId] */\n      dup2\n      sload\n      dup2\n      lt\n      tag_516\n      jumpi\n      invalid\n    tag_516:\n      swap1\n      0x00\n      mstore\n      keccak256(0x00, 0x20)\n      swap1\n      0x05\n      mul\n      add\n        /* \"TimeAlly.sol\":21764:21801  loans[msg.sender][_loanId].stakingIds */\n      0x04\n      add\n        /* \"TimeAlly.sol\":21764:21808  loans[msg.sender][_loanId].stakingIds.length */\n      dup1\n      sload\n      swap1\n      pop\n        /* \"TimeAlly.sol\":21760:21761  i */\n      dup2\n        /* \"TimeAlly.sol\":21760:21808  i < loans[msg.sender][_loanId].stakingIds.length */\n      lt\n        /* \"TimeAlly.sol\":21741:22503  for(uint256 i = 0; i < loans[msg.sender][_loanId].stakingIds.length; i++) {... */\n      iszero\n      tag_514\n      jumpi\n        /* \"TimeAlly.sol\":21829:21847  uint256 _stakingId */\n      0x00\n        /* \"TimeAlly.sol\":21850:21855  loans */\n      0x09\n        /* \"TimeAlly.sol\":21850:21867  loans[msg.sender] */\n      0x00\n        /* \"TimeAlly.sol\":21856:21866  msg.sender */\n      caller\n        /* \"TimeAlly.sol\":21850:21867  loans[msg.sender] */\n      0xffffffffffffffffffffffffffffffffffffffff\n      and\n      0xffffffffffffffffffffffffffffffffffffffff\n      and\n      dup2\n      mstore\n      0x20\n      add\n      swap1\n      dup2\n      mstore\n      0x20\n      add\n      0x00\n      keccak256\n        /* \"TimeAlly.sol\":21868:21875  _loanId */\n      dup4\n        /* \"TimeAlly.sol\":21850:21876  loans[msg.sender][_loanId] */\n      dup2\n      sload\n      dup2\n      lt\n      tag_518\n      jumpi\n      invalid\n    tag_518:\n      swap1\n      0x00\n      mstore\n      keccak256(0x00, 0x20)\n      swap1\n      0x05\n      mul\n      add\n        /* \"TimeAlly.sol\":21850:21887  loans[msg.sender][_loanId].stakingIds */\n      0x04\n      add\n        /* \"TimeAlly.sol\":21888:21889  i */\n      dup3\n        /* \"TimeAlly.sol\":21850:21890  loans[msg.sender][_loanId].stakingIds[i] */\n      dup2\n      sload\n      dup2\n      lt\n      tag_520\n      jumpi\n      invalid\n    tag_520:\n      swap1\n      0x00\n      mstore\n      keccak256(0x00, 0x20)\n      add\n      sload\n        /* \"TimeAlly.sol\":21829:21890  uint256 _stakingId = loans[msg.sender][_loanId].stakingIds[i] */\n      swap1\n      pop\n        /* \"TimeAlly.sol\":21947:21948  1 */\n      0x01\n        /* \"TimeAlly.sol\":21905:21913  stakings */\n      0x08\n        /* \"TimeAlly.sol\":21905:21925  stakings[msg.sender] */\n      0x00\n        /* \"TimeAlly.sol\":21914:21924  msg.sender */\n      caller\n        /* \"TimeAlly.sol\":21905:21925  stakings[msg.sender] */\n      0xffffffffffffffffffffffffffffffffffffffff\n      and\n      0xffffffffffffffffffffffffffffffffffffffff\n      and\n      dup2\n      mstore\n      0x20\n      add\n      swap1\n      dup2\n      mstore\n      0x20\n      add\n      0x00\n      keccak256\n        /* \"TimeAlly.sol\":21926:21936  _stakingId */\n      dup3\n        /* \"TimeAlly.sol\":21905:21937  stakings[msg.sender][_stakingId] */\n      dup2\n      sload\n      dup2\n      lt\n      tag_522\n      jumpi\n      invalid\n    tag_522:\n      swap1\n      0x00\n      mstore\n      keccak256(0x00, 0x20)\n      swap1\n      0x09\n      mul\n      add\n        /* \"TimeAlly.sol\":21905:21944  stakings[msg.sender][_stakingId].status */\n      0x03\n      add\n        /* \"TimeAlly.sol\":21905:21948  stakings[msg.sender][_stakingId].status = 1 */\n      dup2\n      swap1\n      sstore\n      pop\n        /* \"TimeAlly.sol\":21963:21988  uint256 stakingStartMonth */\n      0x00\n        /* \"TimeAlly.sol\":21991:22081  stakings[msg.sender][_stakingId].timestamp.sub(deployedTimestamp).div(earthSecondsInMonth) */\n      tag_524\n        /* \"TimeAlly.sol\":22061:22080  earthSecondsInMonth */\n      sload(0x04)\n        /* \"TimeAlly.sol\":21991:22056  stakings[msg.sender][_stakingId].timestamp.sub(deployedTimestamp) */\n      tag_525\n        /* \"TimeAlly.sol\":22038:22055  deployedTimestamp */\n      sload(0x03)\n        /* \"TimeAlly.sol\":21991:21999  stakings */\n      0x08\n        /* \"TimeAlly.sol\":21991:22011  stakings[msg.sender] */\n      0x00\n        /* \"TimeAlly.sol\":22000:22010  msg.sender */\n      caller\n        /* \"TimeAlly.sol\":21991:22011  stakings[msg.sender] */\n      0xffffffffffffffffffffffffffffffffffffffff\n      and\n      0xffffffffffffffffffffffffffffffffffffffff\n      and\n      dup2\n      mstore\n      0x20\n      add\n      swap1\n      dup2\n      mstore\n      0x20\n      add\n      0x00\n      keccak256\n        /* \"TimeAlly.sol\":22012:22022  _stakingId */\n      dup7\n        /* \"TimeAlly.sol\":21991:22023  stakings[msg.sender][_stakingId] */\n      dup2\n      sload\n      dup2\n      lt\n      tag_526\n      jumpi\n      invalid\n    tag_526:\n      swap1\n      0x00\n      mstore\n      keccak256(0x00, 0x20)\n      swap1\n      0x09\n      mul\n      add\n        /* \"TimeAlly.sol\":21991:22033  stakings[msg.sender][_stakingId].timestamp */\n      0x01\n      add\n      sload\n        /* \"TimeAlly.sol\":21991:22037  stakings[msg.sender][_stakingId].timestamp.sub */\n      tag_174\n      swap1\n        /* \"TimeAlly.sol\":21991:22056  stakings[msg.sender][_stakingId].timestamp.sub(deployedTimestamp) */\n      swap2\n      swap1\n      0xffffffff\n      and\n      jump\t// in\n    tag_525:\n        /* \"TimeAlly.sol\":21991:22060  stakings[msg.sender][_stakingId].timestamp.sub(deployedTimestamp).div */\n      tag_185\n      swap1\n        /* \"TimeAlly.sol\":21991:22081  stakings[msg.sender][_stakingId].timestamp.sub(deployedTimestamp).div(earthSecondsInMonth) */\n      swap2\n      swap1\n      0xffffffff\n      and\n      jump\t// in\n    tag_524:\n        /* \"TimeAlly.sol\":21963:22081  uint256 stakingStartMonth = stakings[msg.sender][_stakingId].timestamp.sub(deployedTimestamp).div(earthSecondsInMonth) */\n      swap1\n      pop\n        /* \"TimeAlly.sol\":22096:22117  uint256 stakeEndMonth */\n      0x00\n        /* \"TimeAlly.sol\":22140:22152  stakingPlans */\n      0x06\n        /* \"TimeAlly.sol\":22153:22161  stakings */\n      0x08\n        /* \"TimeAlly.sol\":22153:22173  stakings[msg.sender] */\n      0x00\n        /* \"TimeAlly.sol\":22162:22172  msg.sender */\n      caller\n        /* \"TimeAlly.sol\":22153:22173  stakings[msg.sender] */\n      0xffffffffffffffffffffffffffffffffffffffff\n      and\n      0xffffffffffffffffffffffffffffffffffffffff\n      and\n      dup2\n      mstore\n      0x20\n      add\n      swap1\n      dup2\n      mstore\n      0x20\n      add\n      0x00\n      keccak256\n        /* \"TimeAlly.sol\":22174:22184  _stakingId */\n      dup5\n        /* \"TimeAlly.sol\":22153:22185  stakings[msg.sender][_stakingId] */\n      dup2\n      sload\n      dup2\n      lt\n      tag_528\n      jumpi\n      invalid\n    tag_528:\n      swap1\n      0x00\n      mstore\n      keccak256(0x00, 0x20)\n      swap1\n      0x09\n      mul\n      add\n        /* \"TimeAlly.sol\":22153:22199  stakings[msg.sender][_stakingId].stakingPlanId */\n      0x02\n      add\n      sload\n        /* \"TimeAlly.sol\":22140:22200  stakingPlans[stakings[msg.sender][_stakingId].stakingPlanId] */\n      dup2\n      sload\n      dup2\n      lt\n      tag_530\n      jumpi\n      invalid\n    tag_530:\n      swap1\n      0x00\n      mstore\n      keccak256(0x00, 0x20)\n      swap1\n      0x02\n      mul\n      add\n        /* \"TimeAlly.sol\":22140:22207  stakingPlans[stakings[msg.sender][_stakingId].stakingPlanId].months */\n      0x00\n      add\n      sload\n        /* \"TimeAlly.sol\":22120:22137  stakingStartMonth */\n      dup3\n        /* \"TimeAlly.sol\":22120:22207  stakingStartMonth + stakingPlans[stakings[msg.sender][_stakingId].stakingPlanId].months */\n      add\n        /* \"TimeAlly.sol\":22096:22207  uint256 stakeEndMonth = stakingStartMonth + stakingPlans[stakings[msg.sender][_stakingId].stakingPlanId].months */\n      swap1\n      pop\n        /* \"TimeAlly.sol\":22226:22235  uint256 j */\n      0x00\n        /* \"TimeAlly.sol\":22258:22259  1 */\n      0x01\n        /* \"TimeAlly.sol\":22238:22255  getCurrentMonth() */\n      tag_535\n        /* \"TimeAlly.sol\":22238:22253  getCurrentMonth */\n      tag_138\n        /* \"TimeAlly.sol\":22238:22255  getCurrentMonth() */\n      jump\t// in\n    tag_535:\n        /* \"TimeAlly.sol\":22238:22259  getCurrentMonth() + 1 */\n      add\n        /* \"TimeAlly.sol\":22226:22259  uint256 j = getCurrentMonth() + 1 */\n      swap1\n      pop\n        /* \"TimeAlly.sol\":22222:22493  for(uint256 j = getCurrentMonth() + 1; j <= stakeEndMonth; j++) {... */\n    tag_532:\n        /* \"TimeAlly.sol\":22266:22279  stakeEndMonth */\n      dup2\n        /* \"TimeAlly.sol\":22261:22262  j */\n      dup2\n        /* \"TimeAlly.sol\":22261:22279  j <= stakeEndMonth */\n      gt\n        /* \"TimeAlly.sol\":22222:22493  for(uint256 j = getCurrentMonth() + 1; j <= stakeEndMonth; j++) {... */\n      tag_533\n      jumpi\n        /* \"TimeAlly.sol\":22357:22362  false */\n      0x00\n        /* \"TimeAlly.sol\":22304:22312  stakings */\n      0x08\n        /* \"TimeAlly.sol\":22304:22324  stakings[msg.sender] */\n      0x00\n        /* \"TimeAlly.sol\":22313:22323  msg.sender */\n      caller\n        /* \"TimeAlly.sol\":22304:22324  stakings[msg.sender] */\n      0xffffffffffffffffffffffffffffffffffffffff\n      and\n      0xffffffffffffffffffffffffffffffffffffffff\n      and\n      dup2\n      mstore\n      0x20\n      add\n      swap1\n      dup2\n      mstore\n      0x20\n      add\n      0x00\n      keccak256\n        /* \"TimeAlly.sol\":22325:22335  _stakingId */\n      dup6\n        /* \"TimeAlly.sol\":22304:22336  stakings[msg.sender][_stakingId] */\n      dup2\n      sload\n      dup2\n      lt\n      tag_536\n      jumpi\n      invalid\n    tag_536:\n      swap1\n      0x00\n      mstore\n      keccak256(0x00, 0x20)\n      swap1\n      0x09\n      mul\n      add\n        /* \"TimeAlly.sol\":22304:22351  stakings[msg.sender][_stakingId].isMonthClaimed */\n      0x06\n      add\n        /* \"TimeAlly.sol\":22304:22354  stakings[msg.sender][_stakingId].isMonthClaimed[i] */\n      0x00\n        /* \"TimeAlly.sol\":22352:22353  i */\n      dup8\n        /* \"TimeAlly.sol\":22304:22354  stakings[msg.sender][_stakingId].isMonthClaimed[i] */\n      dup2\n      mstore\n      0x20\n      add\n      swap1\n      dup2\n      mstore\n      0x20\n      add\n      0x00\n      keccak256\n      0x00\n        /* \"TimeAlly.sol\":22304:22362  stakings[msg.sender][_stakingId].isMonthClaimed[i] = false */\n      0x0100\n      exp\n      dup2\n      sload\n      dup2\n      0xff\n      mul\n      not\n      and\n      swap1\n      dup4\n      iszero\n      iszero\n      mul\n      or\n      swap1\n      sstore\n      pop\n        /* \"TimeAlly.sol\":22406:22478  totalActiveStakings[j].add(stakings[msg.sender][_stakingId].exaEsAmount) */\n      tag_538\n        /* \"TimeAlly.sol\":22433:22441  stakings */\n      0x08\n        /* \"TimeAlly.sol\":22433:22453  stakings[msg.sender] */\n      0x00\n        /* \"TimeAlly.sol\":22442:22452  msg.sender */\n      caller\n        /* \"TimeAlly.sol\":22433:22453  stakings[msg.sender] */\n      0xffffffffffffffffffffffffffffffffffffffff\n      and\n      0xffffffffffffffffffffffffffffffffffffffff\n      and\n      dup2\n      mstore\n      0x20\n      add\n      swap1\n      dup2\n      mstore\n      0x20\n      add\n      0x00\n      keccak256\n        /* \"TimeAlly.sol\":22454:22464  _stakingId */\n      dup6\n        /* \"TimeAlly.sol\":22433:22465  stakings[msg.sender][_stakingId] */\n      dup2\n      sload\n      dup2\n      lt\n      tag_539\n      jumpi\n      invalid\n    tag_539:\n      swap1\n      0x00\n      mstore\n      keccak256(0x00, 0x20)\n      swap1\n      0x09\n      mul\n      add\n        /* \"TimeAlly.sol\":22433:22477  stakings[msg.sender][_stakingId].exaEsAmount */\n      0x00\n      add\n      sload\n        /* \"TimeAlly.sol\":22406:22425  totalActiveStakings */\n      0x0a\n        /* \"TimeAlly.sol\":22406:22428  totalActiveStakings[j] */\n      0x00\n        /* \"TimeAlly.sol\":22426:22427  j */\n      dup5\n        /* \"TimeAlly.sol\":22406:22428  totalActiveStakings[j] */\n      dup2\n      mstore\n      0x20\n      add\n      swap1\n      dup2\n      mstore\n      0x20\n      add\n      0x00\n      keccak256\n      sload\n        /* \"TimeAlly.sol\":22406:22432  totalActiveStakings[j].add */\n      tag_222\n      swap1\n        /* \"TimeAlly.sol\":22406:22478  totalActiveStakings[j].add(stakings[msg.sender][_stakingId].exaEsAmount) */\n      swap2\n      swap1\n      0xffffffff\n      and\n      jump\t// in\n    tag_538:\n        /* \"TimeAlly.sol\":22381:22400  totalActiveStakings */\n      0x0a\n        /* \"TimeAlly.sol\":22381:22403  totalActiveStakings[j] */\n      0x00\n        /* \"TimeAlly.sol\":22401:22402  j */\n      dup4\n        /* \"TimeAlly.sol\":22381:22403  totalActiveStakings[j] */\n      dup2\n      mstore\n      0x20\n      add\n      swap1\n      dup2\n      mstore\n      0x20\n      add\n      0x00\n      keccak256\n        /* \"TimeAlly.sol\":22381:22478  totalActiveStakings[j] = totalActiveStakings[j].add(stakings[msg.sender][_stakingId].exaEsAmount) */\n      dup2\n      swap1\n      sstore\n      pop\n        /* \"TimeAlly.sol\":22281:22284  j++ */\n      dup1\n      dup1\n      0x01\n      add\n      swap2\n      pop\n      pop\n        /* \"TimeAlly.sol\":22222:22493  for(uint256 j = getCurrentMonth() + 1; j <= stakeEndMonth; j++) {... */\n      jump(tag_532)\n    tag_533:\n      pop\n        /* \"TimeAlly.sol\":21741:22503  for(uint256 i = 0; i < loans[msg.sender][_loanId].stakingIds.length; i++) {... */\n      pop\n      pop\n      pop\n        /* \"TimeAlly.sol\":21810:21813  i++ */\n      dup1\n      dup1\n      0x01\n      add\n      swap2\n      pop\n      pop\n        /* \"TimeAlly.sol\":21741:22503  for(uint256 i = 0; i < loans[msg.sender][_loanId].stakingIds.length; i++) {... */\n      jump(tag_513)\n    tag_514:\n      pop\n        /* \"TimeAlly.sol\":21206:22510  function repayLoanSelf(uint256 _loanId) public {... */\n      pop\n      jump\t// out\n        /* \"TimeAlly.sol\":3414:4515  function newStaking(uint256 _exaEsAmount, uint256 _stakingPlanId) public {... */\n    tag_144:\n        /* \"TimeAlly.sol\":3505:3510  token */\n      0x01\n      0x00\n      swap1\n      sload\n      swap1\n      0x0100\n      exp\n      swap1\n      div\n      0xffffffffffffffffffffffffffffffffffffffff\n      and\n        /* \"TimeAlly.sol\":3505:3523  token.transferFrom */\n      0xffffffffffffffffffffffffffffffffffffffff\n      and\n      0x23b872dd\n        /* \"TimeAlly.sol\":3524:3534  msg.sender */\n      caller\n        /* \"TimeAlly.sol\":3544:3548  this */\n      address\n        /* \"TimeAlly.sol\":3551:3563  _exaEsAmount */\n      dup6\n        /* \"TimeAlly.sol\":3505:3564  token.transferFrom(msg.sender, address(this), _exaEsAmount) */\n      mload(0x40)\n      dup5\n      0xffffffff\n      and\n      0xe0\n      shl\n      dup2\n      mstore\n      0x04\n      add\n      dup1\n      dup5\n      0xffffffffffffffffffffffffffffffffffffffff\n      and\n      0xffffffffffffffffffffffffffffffffffffffff\n      and\n      dup2\n      mstore\n      0x20\n      add\n      dup4\n      0xffffffffffffffffffffffffffffffffffffffff\n      and\n      0xffffffffffffffffffffffffffffffffffffffff\n      and\n      dup2\n      mstore\n      0x20\n      add\n      dup3\n      dup2\n      mstore\n      0x20\n      add\n      swap4\n      pop\n      pop\n      pop\n      pop\n      0x20\n      mload(0x40)\n      dup1\n      dup4\n      sub\n      dup2\n      0x00\n      dup8\n      dup1\n      extcodesize\n      iszero\n        /* \"--CODEGEN--\":8:17   */\n      dup1\n        /* \"--CODEGEN--\":5:7   */\n      iszero\n      tag_542\n      jumpi\n        /* \"--CODEGEN--\":30:31   */\n      0x00\n        /* \"--CODEGEN--\":27:28   */\n      dup1\n        /* \"--CODEGEN--\":20:32   */\n      revert\n        /* \"--CODEGEN--\":5:7   */\n    tag_542:\n        /* \"TimeAlly.sol\":3505:3564  token.transferFrom(msg.sender, address(this), _exaEsAmount) */\n      pop\n      gas\n      call\n      iszero\n        /* \"--CODEGEN--\":8:17   */\n      dup1\n        /* \"--CODEGEN--\":5:7   */\n      iszero\n      tag_543\n      jumpi\n        /* \"--CODEGEN--\":45:61   */\n      returndatasize\n        /* \"--CODEGEN--\":42:43   */\n      0x00\n        /* \"--CODEGEN--\":39:40   */\n      dup1\n        /* \"--CODEGEN--\":24:62   */\n      returndatacopy\n        /* \"--CODEGEN--\":77:93   */\n      returndatasize\n        /* \"--CODEGEN--\":74:75   */\n      0x00\n        /* \"--CODEGEN--\":67:94   */\n      revert\n        /* \"--CODEGEN--\":5:7   */\n    tag_543:\n        /* \"TimeAlly.sol\":3505:3564  token.transferFrom(msg.sender, address(this), _exaEsAmount) */\n      pop\n      pop\n      pop\n      pop\n      mload(0x40)\n      returndatasize\n        /* \"--CODEGEN--\":13:15   */\n      0x20\n        /* \"--CODEGEN--\":8:11   */\n      dup2\n        /* \"--CODEGEN--\":5:16   */\n      lt\n        /* \"--CODEGEN--\":2:4   */\n      iszero\n      tag_544\n      jumpi\n        /* \"--CODEGEN--\":29:30   */\n      0x00\n        /* \"--CODEGEN--\":26:27   */\n      dup1\n        /* \"--CODEGEN--\":19:31   */\n      revert\n        /* \"--CODEGEN--\":2:4   */\n    tag_544:\n        /* \"TimeAlly.sol\":3505:3564  token.transferFrom(msg.sender, address(this), _exaEsAmount) */\n      dup2\n      add\n      swap1\n      dup1\n      dup1\n      mload\n      swap1\n      0x20\n      add\n      swap1\n      swap3\n      swap2\n      swap1\n      pop\n      pop\n      pop\n        /* \"TimeAlly.sol\":3497:3594  require(token.transferFrom(msg.sender, address(this), _exaEsAmount), 'could not transfer tokens') */\n      tag_545\n      jumpi\n      mload(0x40)\n      0x08c379a000000000000000000000000000000000000000000000000000000000\n      dup2\n      mstore\n      0x04\n      add\n      dup1\n      dup1\n      0x20\n      add\n      dup3\n      dup2\n      sub\n      dup3\n      mstore\n      0x19\n      dup2\n      mstore\n      0x20\n      add\n      dup1\n      0x636f756c64206e6f74207472616e7366657220746f6b656e7300000000000000\n      dup2\n      mstore\n      pop\n      0x20\n      add\n      swap2\n      pop\n      pop\n      mload(0x40)\n      dup1\n      swap2\n      sub\n      swap1\n      revert\n    tag_545:\n        /* \"TimeAlly.sol\":3604:3625  uint256 stakeEndMonth */\n      0x00\n        /* \"TimeAlly.sol\":3652:3664  stakingPlans */\n      0x06\n        /* \"TimeAlly.sol\":3665:3679  _stakingPlanId */\n      dup3\n        /* \"TimeAlly.sol\":3652:3680  stakingPlans[_stakingPlanId] */\n      dup2\n      sload\n      dup2\n      lt\n      tag_546\n      jumpi\n      invalid\n    tag_546:\n      swap1\n      0x00\n      mstore\n      keccak256(0x00, 0x20)\n      swap1\n      0x02\n      mul\n      add\n        /* \"TimeAlly.sol\":3652:3687  stakingPlans[_stakingPlanId].months */\n      0x00\n      add\n      sload\n        /* \"TimeAlly.sol\":3648:3649  1 */\n      0x01\n        /* \"TimeAlly.sol\":3628:3645  getCurrentMonth() */\n      tag_548\n        /* \"TimeAlly.sol\":3628:3643  getCurrentMonth */\n      tag_138\n        /* \"TimeAlly.sol\":3628:3645  getCurrentMonth() */\n      jump\t// in\n    tag_548:\n        /* \"TimeAlly.sol\":3628:3649  getCurrentMonth() + 1 */\n      add\n        /* \"TimeAlly.sol\":3628:3687  getCurrentMonth() + 1 + stakingPlans[_stakingPlanId].months */\n      add\n        /* \"TimeAlly.sol\":3604:3687  uint256 stakeEndMonth = getCurrentMonth() + 1 + stakingPlans[_stakingPlanId].months */\n      swap1\n      pop\n        /* \"TimeAlly.sol\":3818:3831  uint256 month */\n      0x00\n        /* \"TimeAlly.sol\":3854:3855  1 */\n      0x01\n        /* \"TimeAlly.sol\":3834:3851  getCurrentMonth() */\n      tag_552\n        /* \"TimeAlly.sol\":3834:3849  getCurrentMonth */\n      tag_138\n        /* \"TimeAlly.sol\":3834:3851  getCurrentMonth() */\n      jump\t// in\n    tag_552:\n        /* \"TimeAlly.sol\":3834:3855  getCurrentMonth() + 1 */\n      add\n        /* \"TimeAlly.sol\":3818:3855  uint256 month = getCurrentMonth() + 1 */\n      swap1\n      pop\n        /* \"TimeAlly.sol\":3803:4013  for(... */\n    tag_549:\n        /* \"TimeAlly.sol\":3875:3888  stakeEndMonth */\n      dup2\n        /* \"TimeAlly.sol\":3867:3872  month */\n      dup2\n        /* \"TimeAlly.sol\":3867:3888  month < stakeEndMonth */\n      lt\n        /* \"TimeAlly.sol\":3803:4013  for(... */\n      iszero\n      tag_550\n      jumpi\n        /* \"TimeAlly.sol\":3990:4002  _exaEsAmount */\n      dup4\n        /* \"TimeAlly.sol\":3961:3980  totalActiveStakings */\n      0x0a\n        /* \"TimeAlly.sol\":3961:3987  totalActiveStakings[month] */\n      0x00\n        /* \"TimeAlly.sol\":3981:3986  month */\n      dup4\n        /* \"TimeAlly.sol\":3961:3987  totalActiveStakings[month] */\n      dup2\n      mstore\n      0x20\n      add\n      swap1\n      dup2\n      mstore\n      0x20\n      add\n      0x00\n      keccak256\n      sload\n        /* \"TimeAlly.sol\":3961:4002  totalActiveStakings[month] + _exaEsAmount */\n      add\n        /* \"TimeAlly.sol\":3932:3951  totalActiveStakings */\n      0x0a\n        /* \"TimeAlly.sol\":3932:3958  totalActiveStakings[month] */\n      0x00\n        /* \"TimeAlly.sol\":3952:3957  month */\n      dup4\n        /* \"TimeAlly.sol\":3932:3958  totalActiveStakings[month] */\n      dup2\n      mstore\n      0x20\n      add\n      swap1\n      dup2\n      mstore\n      0x20\n      add\n      0x00\n      keccak256\n        /* \"TimeAlly.sol\":3932:4002  totalActiveStakings[month] = totalActiveStakings[month] + _exaEsAmount */\n      dup2\n      swap1\n      sstore\n      pop\n        /* \"TimeAlly.sol\":3900:3907  month++ */\n      dup1\n      dup1\n      0x01\n      add\n      swap2\n      pop\n      pop\n        /* \"TimeAlly.sol\":3803:4013  for(... */\n      jump(tag_549)\n    tag_550:\n      pop\n        /* \"TimeAlly.sol\":4023:4058  Staking[] storage userStakingsArray */\n      0x00\n        /* \"TimeAlly.sol\":4061:4069  stakings */\n      0x08\n        /* \"TimeAlly.sol\":4061:4081  stakings[msg.sender] */\n      0x00\n        /* \"TimeAlly.sol\":4070:4080  msg.sender */\n      caller\n        /* \"TimeAlly.sol\":4061:4081  stakings[msg.sender] */\n      0xffffffffffffffffffffffffffffffffffffffff\n      and\n      0xffffffffffffffffffffffffffffffffffffffff\n      and\n      dup2\n      mstore\n      0x20\n      add\n      swap1\n      dup2\n      mstore\n      0x20\n      add\n      0x00\n      keccak256\n        /* \"TimeAlly.sol\":4023:4081  Staking[] storage userStakingsArray = stakings[msg.sender] */\n      swap1\n      pop\n        /* \"TimeAlly.sol\":4091:4108  userStakingsArray */\n      dup1\n        /* \"TimeAlly.sol\":4114:4409  Staking({... */\n      mload(0x40)\n      dup1\n      0x0100\n      add\n      0x40\n      mstore\n      dup1\n        /* \"TimeAlly.sol\":4149:4161  _exaEsAmount */\n      dup7\n        /* \"TimeAlly.sol\":4114:4409  Staking({... */\n      dup2\n      mstore\n      0x20\n      add\n        /* \"TimeAlly.sol\":4186:4191  token */\n      0x01\n      0x00\n      swap1\n      sload\n      swap1\n      0x0100\n      exp\n      swap1\n      div\n      0xffffffffffffffffffffffffffffffffffffffff\n      and\n        /* \"TimeAlly.sol\":4186:4195  token.mou */\n      0xffffffffffffffffffffffffffffffffffffffff\n      and\n      0xb81f90f3\n        /* \"TimeAlly.sol\":4186:4197  token.mou() */\n      mload(0x40)\n      dup2\n      0xffffffff\n      and\n      0xe0\n      shl\n      dup2\n      mstore\n      0x04\n      add\n      0x20\n      mload(0x40)\n      dup1\n      dup4\n      sub\n      dup2\n      dup7\n      dup1\n      extcodesize\n      iszero\n        /* \"--CODEGEN--\":8:17   */\n      dup1\n        /* \"--CODEGEN--\":5:7   */\n      iszero\n      tag_553\n      jumpi\n        /* \"--CODEGEN--\":30:31   */\n      0x00\n        /* \"--CODEGEN--\":27:28   */\n      dup1\n        /* \"--CODEGEN--\":20:32   */\n      revert\n        /* \"--CODEGEN--\":5:7   */\n    tag_553:\n        /* \"TimeAlly.sol\":4186:4197  token.mou() */\n      pop\n      gas\n      staticcall\n      iszero\n        /* \"--CODEGEN--\":8:17   */\n      dup1\n        /* \"--CODEGEN--\":5:7   */\n      iszero\n      tag_554\n      jumpi\n        /* \"--CODEGEN--\":45:61   */\n      returndatasize\n        /* \"--CODEGEN--\":42:43   */\n      0x00\n        /* \"--CODEGEN--\":39:40   */\n      dup1\n        /* \"--CODEGEN--\":24:62   */\n      returndatacopy\n        /* \"--CODEGEN--\":77:93   */\n      returndatasize\n        /* \"--CODEGEN--\":74:75   */\n      0x00\n        /* \"--CODEGEN--\":67:94   */\n      revert\n        /* \"--CODEGEN--\":5:7   */\n    tag_554:\n        /* \"TimeAlly.sol\":4186:4197  token.mou() */\n      pop\n      pop\n      pop\n      pop\n      mload(0x40)\n      returndatasize\n        /* \"--CODEGEN--\":13:15   */\n      0x20\n        /* \"--CODEGEN--\":8:11   */\n      dup2\n        /* \"--CODEGEN--\":5:16   */\n      lt\n        /* \"--CODEGEN--\":2:4   */\n      iszero\n      tag_555\n      jumpi\n        /* \"--CODEGEN--\":29:30   */\n      0x00\n        /* \"--CODEGEN--\":26:27   */\n      dup1\n        /* \"--CODEGEN--\":19:31   */\n      revert\n        /* \"--CODEGEN--\":2:4   */\n    tag_555:\n        /* \"TimeAlly.sol\":4186:4197  token.mou() */\n      dup2\n      add\n      swap1\n      dup1\n      dup1\n      mload\n      swap1\n      0x20\n      add\n      swap1\n      swap3\n      swap2\n      swap1\n      pop\n      pop\n      pop\n        /* \"TimeAlly.sol\":4114:4409  Staking({... */\n      dup2\n      mstore\n      0x20\n      add\n        /* \"TimeAlly.sol\":4226:4240  _stakingPlanId */\n      dup6\n        /* \"TimeAlly.sol\":4114:4409  Staking({... */\n      dup2\n      mstore\n      0x20\n      add\n        /* \"TimeAlly.sol\":4262:4263  1 */\n      0x01\n        /* \"TimeAlly.sol\":4114:4409  Staking({... */\n      dup2\n      mstore\n      0x20\n      add\n        /* \"TimeAlly.sol\":4297:4298  0 */\n      0x00\n        /* \"TimeAlly.sol\":4114:4409  Staking({... */\n      dup2\n      mstore\n      0x20\n      add\n        /* \"TimeAlly.sol\":4320:4321  0 */\n      0x00\n        /* \"TimeAlly.sol\":4114:4409  Staking({... */\n      dup2\n      mstore\n      0x20\n      add\n        /* \"TimeAlly.sol\":4359:4360  0 */\n      0x00\n        /* \"TimeAlly.sol\":4114:4409  Staking({... */\n      dup2\n      mstore\n      0x20\n      add\n        /* \"TimeAlly.sol\":4397:4398  0 */\n      0x00\n        /* \"TimeAlly.sol\":4114:4409  Staking({... */\n      dup2\n      mstore\n      pop\n        /* \"TimeAlly.sol\":4091:4410  userStakingsArray.push(Staking({... */\n      swap1\n      dup1\n        /* \"--CODEGEN--\":39:40   */\n      0x01\n        /* \"--CODEGEN--\":33:36   */\n      dup2\n        /* \"--CODEGEN--\":27:37   */\n      sload\n        /* \"--CODEGEN--\":23:41   */\n      add\n        /* \"--CODEGEN--\":57:67   */\n      dup1\n        /* \"--CODEGEN--\":52:55   */\n      dup3\n        /* \"--CODEGEN--\":45:68   */\n      sstore\n        /* \"--CODEGEN--\":79:89   */\n      dup1\n        /* \"--CODEGEN--\":72:89   */\n      swap2\n      pop\n        /* \"--CODEGEN--\":0:93   */\n      pop\n        /* \"TimeAlly.sol\":4091:4410  userStakingsArray.push(Staking({... */\n      swap1\n      0x01\n      dup3\n      sub\n      swap1\n      0x00\n      mstore\n      keccak256(0x00, 0x20)\n      swap1\n      0x09\n      mul\n      add\n      0x00\n      swap1\n      swap2\n      swap3\n      swap1\n      swap2\n      swap1\n      swap2\n      pop\n      0x00\n      dup3\n      add\n      mload\n      dup2\n      0x00\n      add\n      sstore\n      0x20\n      dup3\n      add\n      mload\n      dup2\n      0x01\n      add\n      sstore\n      0x40\n      dup3\n      add\n      mload\n      dup2\n      0x02\n      add\n      sstore\n      0x60\n      dup3\n      add\n      mload\n      dup2\n      0x03\n      add\n      sstore\n      0x80\n      dup3\n      add\n      mload\n      dup2\n      0x04\n      add\n      sstore\n      0xa0\n      dup3\n      add\n      mload\n      dup2\n      0x05\n      add\n      sstore\n      0xc0\n      dup3\n      add\n      mload\n      dup2\n      0x07\n      add\n      sstore\n      0xe0\n      dup3\n      add\n      mload\n      dup2\n      0x08\n      add\n      sstore\n      pop\n      pop\n      pop\n        /* \"TimeAlly.sol\":4449:4463  _stakingPlanId */\n      dup3\n        /* \"TimeAlly.sol\":4437:4447  msg.sender */\n      caller\n        /* \"TimeAlly.sol\":4426:4508  NewStaking(msg.sender, _stakingPlanId, _exaEsAmount, userStakingsArray.length - 1) */\n      0xffffffffffffffffffffffffffffffffffffffff\n      and\n      0x680a0e2e97ad7c29da7985e37b699f19857c055166f801e50d90661eae30fcc3\n        /* \"TimeAlly.sol\":4465:4477  _exaEsAmount */\n      dup7\n        /* \"TimeAlly.sol\":4506:4507  1 */\n      0x01\n        /* \"TimeAlly.sol\":4479:4496  userStakingsArray */\n      dup6\n        /* \"TimeAlly.sol\":4479:4503  userStakingsArray.length */\n      dup1\n      sload\n      swap1\n      pop\n        /* \"TimeAlly.sol\":4479:4507  userStakingsArray.length - 1 */\n      sub\n        /* \"TimeAlly.sol\":4426:4508  NewStaking(msg.sender, _stakingPlanId, _exaEsAmount, userStakingsArray.length - 1) */\n      mload(0x40)\n      dup1\n      dup4\n      dup2\n      mstore\n      0x20\n      add\n      dup3\n      dup2\n      mstore\n      0x20\n      add\n      swap3\n      pop\n      pop\n      pop\n      mload(0x40)\n      dup1\n      swap2\n      sub\n      swap1\n      log3\n        /* \"TimeAlly.sol\":3414:4515  function newStaking(uint256 _exaEsAmount, uint256 _stakingPlanId) public {... */\n      pop\n      pop\n      pop\n      pop\n      jump\t// out\n        /* \"TimeAlly.sol\":1115:1147  uint256 public deployedTimestamp */\n    tag_146:\n      sload(0x03)\n      dup2\n      jump\t// out\n        /* \"TimeAlly.sol\":2686:2807  function increaseMonth(uint256 _timeAllyNRT) public onlyNRTManager {... */\n    tag_149:\n        /* \"TimeAlly.sol\":2245:2255  nrtManager */\n      0x02\n      0x00\n      swap1\n      sload\n      swap1\n      0x0100\n      exp\n      swap1\n      div\n      0xffffffffffffffffffffffffffffffffffffffff\n      and\n        /* \"TimeAlly.sol\":2223:2256  msg.sender == address(nrtManager) */\n      0xffffffffffffffffffffffffffffffffffffffff\n      and\n        /* \"TimeAlly.sol\":2223:2233  msg.sender */\n      caller\n        /* \"TimeAlly.sol\":2223:2256  msg.sender == address(nrtManager) */\n      0xffffffffffffffffffffffffffffffffffffffff\n      and\n      eq\n        /* \"TimeAlly.sol\":2215:2286  require(msg.sender == address(nrtManager), 'only NRT manager can call') */\n      tag_558\n      jumpi\n      mload(0x40)\n      0x08c379a000000000000000000000000000000000000000000000000000000000\n      dup2\n      mstore\n      0x04\n      add\n      dup1\n      dup1\n      0x20\n      add\n      dup3\n      dup2\n      sub\n      dup3\n      mstore\n      0x19\n      dup2\n      mstore\n      0x20\n      add\n      dup1\n      0x6f6e6c79204e5254206d616e616765722063616e2063616c6c00000000000000\n      dup2\n      mstore\n      pop\n      0x20\n      add\n      swap2\n      pop\n      pop\n      mload(0x40)\n      dup1\n      swap2\n      sub\n      swap1\n      revert\n    tag_558:\n        /* \"TimeAlly.sol\":2763:2781  timeAllyMonthlyNRT */\n      0x05\n        /* \"TimeAlly.sol\":2787:2799  _timeAllyNRT */\n      dup2\n        /* \"TimeAlly.sol\":2763:2800  timeAllyMonthlyNRT.push(_timeAllyNRT) */\n      swap1\n      dup1\n        /* \"--CODEGEN--\":39:40   */\n      0x01\n        /* \"--CODEGEN--\":33:36   */\n      dup2\n        /* \"--CODEGEN--\":27:37   */\n      sload\n        /* \"--CODEGEN--\":23:41   */\n      add\n        /* \"--CODEGEN--\":57:67   */\n      dup1\n        /* \"--CODEGEN--\":52:55   */\n      dup3\n        /* \"--CODEGEN--\":45:68   */\n      sstore\n        /* \"--CODEGEN--\":79:89   */\n      dup1\n        /* \"--CODEGEN--\":72:89   */\n      swap2\n      pop\n        /* \"--CODEGEN--\":0:93   */\n      pop\n        /* \"TimeAlly.sol\":2763:2800  timeAllyMonthlyNRT.push(_timeAllyNRT) */\n      swap1\n      0x01\n      dup3\n      sub\n      swap1\n      0x00\n      mstore\n      keccak256(0x00, 0x20)\n      add\n      0x00\n      swap1\n      swap2\n      swap3\n      swap1\n      swap2\n      swap1\n      swap2\n      pop\n      sstore\n      pop\n        /* \"TimeAlly.sol\":2686:2807  function increaseMonth(uint256 _timeAllyNRT) public onlyNRTManager {... */\n      pop\n      jump\t// out\n        /* \"TimeAlly.sol\":13846:14541  function withdrawExpiredStakings(uint256[] memory _stakings) public {... */\n    tag_155:\n        /* \"TimeAlly.sol\":13928:13937  uint256 i */\n      0x00\n        /* \"TimeAlly.sol\":13940:13941  0 */\n      dup1\n        /* \"TimeAlly.sol\":13928:13941  uint256 i = 0 */\n      swap1\n      pop\n        /* \"TimeAlly.sol\":13924:14535  for(uint256 i = 0; i < _stakings.length; i++) {... */\n    tag_562:\n        /* \"TimeAlly.sol\":13947:13956  _stakings */\n      dup2\n        /* \"TimeAlly.sol\":13947:13963  _stakings.length */\n      mload\n        /* \"TimeAlly.sol\":13943:13944  i */\n      dup2\n        /* \"TimeAlly.sol\":13943:13963  i < _stakings.length */\n      lt\n        /* \"TimeAlly.sol\":13924:14535  for(uint256 i = 0; i < _stakings.length; i++) {... */\n      iszero\n      tag_563\n      jumpi\n        /* \"TimeAlly.sol\":14028:14029  3 */\n      0x03\n        /* \"TimeAlly.sol\":13984:13992  stakings */\n      0x08\n        /* \"TimeAlly.sol\":13984:14004  stakings[msg.sender] */\n      0x00\n        /* \"TimeAlly.sol\":13993:14003  msg.sender */\n      caller\n        /* \"TimeAlly.sol\":13984:14004  stakings[msg.sender] */\n      0xffffffffffffffffffffffffffffffffffffffff\n      and\n      0xffffffffffffffffffffffffffffffffffffffff\n      and\n      dup2\n      mstore\n      0x20\n      add\n      swap1\n      dup2\n      mstore\n      0x20\n      add\n      0x00\n      keccak256\n        /* \"TimeAlly.sol\":14005:14014  _stakings */\n      dup4\n        /* \"TimeAlly.sol\":14015:14016  i */\n      dup4\n        /* \"TimeAlly.sol\":14005:14017  _stakings[i] */\n      dup2\n      mload\n      dup2\n      lt\n      tag_565\n      jumpi\n      invalid\n    tag_565:\n      0x20\n      mul\n      0x20\n      add\n      add\n      mload\n        /* \"TimeAlly.sol\":13984:14018  stakings[msg.sender][_stakings[i]] */\n      dup2\n      sload\n      dup2\n      lt\n      tag_566\n      jumpi\n      invalid\n    tag_566:\n      swap1\n      0x00\n      mstore\n      keccak256(0x00, 0x20)\n      swap1\n      0x09\n      mul\n      add\n        /* \"TimeAlly.sol\":13984:14025  stakings[msg.sender][_stakings[i]].status */\n      0x03\n      add\n        /* \"TimeAlly.sol\":13984:14029  stakings[msg.sender][_stakings[i]].status = 3 */\n      dup2\n      swap1\n      sstore\n      pop\n        /* \"TimeAlly.sol\":14103:14104  0 */\n      0x00\n        /* \"TimeAlly.sol\":14047:14055  stakings */\n      0x08\n        /* \"TimeAlly.sol\":14047:14067  stakings[msg.sender] */\n      0x00\n        /* \"TimeAlly.sol\":14056:14066  msg.sender */\n      caller\n        /* \"TimeAlly.sol\":14047:14067  stakings[msg.sender] */\n      0xffffffffffffffffffffffffffffffffffffffff\n      and\n      0xffffffffffffffffffffffffffffffffffffffff\n      and\n      dup2\n      mstore\n      0x20\n      add\n      swap1\n      dup2\n      mstore\n      0x20\n      add\n      0x00\n      keccak256\n        /* \"TimeAlly.sol\":14068:14077  _stakings */\n      dup4\n        /* \"TimeAlly.sol\":14078:14079  i */\n      dup4\n        /* \"TimeAlly.sol\":14068:14080  _stakings[i] */\n      dup2\n      mload\n      dup2\n      lt\n      tag_568\n      jumpi\n      invalid\n    tag_568:\n      0x20\n      mul\n      0x20\n      add\n      add\n      mload\n        /* \"TimeAlly.sol\":14047:14081  stakings[msg.sender][_stakings[i]] */\n      dup2\n      sload\n      dup2\n      lt\n      tag_569\n      jumpi\n      invalid\n    tag_569:\n      swap1\n      0x00\n      mstore\n      keccak256(0x00, 0x20)\n      swap1\n      0x09\n      mul\n      add\n        /* \"TimeAlly.sol\":14047:14100  stakings[msg.sender][_stakings[i]].accruedExaEsAmount */\n      0x04\n      add\n      sload\n        /* \"TimeAlly.sol\":14047:14104  stakings[msg.sender][_stakings[i]].accruedExaEsAmount > 0 */\n      gt\n        /* \"TimeAlly.sol\":14044:14436  if(stakings[msg.sender][_stakings[i]].accruedExaEsAmount > 0) {... */\n      iszero\n      tag_571\n      jumpi\n        /* \"TimeAlly.sol\":14122:14148  uint256 accruedExaEsAmount */\n      0x00\n        /* \"TimeAlly.sol\":14151:14159  stakings */\n      0x08\n        /* \"TimeAlly.sol\":14151:14171  stakings[msg.sender] */\n      0x00\n        /* \"TimeAlly.sol\":14160:14170  msg.sender */\n      caller\n        /* \"TimeAlly.sol\":14151:14171  stakings[msg.sender] */\n      0xffffffffffffffffffffffffffffffffffffffff\n      and\n      0xffffffffffffffffffffffffffffffffffffffff\n      and\n      dup2\n      mstore\n      0x20\n      add\n      swap1\n      dup2\n      mstore\n      0x20\n      add\n      0x00\n      keccak256\n        /* \"TimeAlly.sol\":14172:14181  _stakings */\n      dup4\n        /* \"TimeAlly.sol\":14182:14183  i */\n      dup4\n        /* \"TimeAlly.sol\":14172:14184  _stakings[i] */\n      dup2\n      mload\n      dup2\n      lt\n      tag_572\n      jumpi\n      invalid\n    tag_572:\n      0x20\n      mul\n      0x20\n      add\n      add\n      mload\n        /* \"TimeAlly.sol\":14151:14185  stakings[msg.sender][_stakings[i]] */\n      dup2\n      sload\n      dup2\n      lt\n      tag_573\n      jumpi\n      invalid\n    tag_573:\n      swap1\n      0x00\n      mstore\n      keccak256(0x00, 0x20)\n      swap1\n      0x09\n      mul\n      add\n        /* \"TimeAlly.sol\":14151:14204  stakings[msg.sender][_stakings[i]].accruedExaEsAmount */\n      0x04\n      add\n      sload\n        /* \"TimeAlly.sol\":14122:14204  uint256 accruedExaEsAmount = stakings[msg.sender][_stakings[i]].accruedExaEsAmount */\n      swap1\n      pop\n        /* \"TimeAlly.sol\":14276:14277  0 */\n      0x00\n        /* \"TimeAlly.sol\":14220:14228  stakings */\n      0x08\n        /* \"TimeAlly.sol\":14220:14240  stakings[msg.sender] */\n      0x00\n        /* \"TimeAlly.sol\":14229:14239  msg.sender */\n      caller\n        /* \"TimeAlly.sol\":14220:14240  stakings[msg.sender] */\n      0xffffffffffffffffffffffffffffffffffffffff\n      and\n      0xffffffffffffffffffffffffffffffffffffffff\n      and\n      dup2\n      mstore\n      0x20\n      add\n      swap1\n      dup2\n      mstore\n      0x20\n      add\n      0x00\n      keccak256\n        /* \"TimeAlly.sol\":14241:14250  _stakings */\n      dup5\n        /* \"TimeAlly.sol\":14251:14252  i */\n      dup5\n        /* \"TimeAlly.sol\":14241:14253  _stakings[i] */\n      dup2\n      mload\n      dup2\n      lt\n      tag_575\n      jumpi\n      invalid\n    tag_575:\n      0x20\n      mul\n      0x20\n      add\n      add\n      mload\n        /* \"TimeAlly.sol\":14220:14254  stakings[msg.sender][_stakings[i]] */\n      dup2\n      sload\n      dup2\n      lt\n      tag_576\n      jumpi\n      invalid\n    tag_576:\n      swap1\n      0x00\n      mstore\n      keccak256(0x00, 0x20)\n      swap1\n      0x09\n      mul\n      add\n        /* \"TimeAlly.sol\":14220:14273  stakings[msg.sender][_stakings[i]].accruedExaEsAmount */\n      0x04\n      add\n        /* \"TimeAlly.sol\":14220:14277  stakings[msg.sender][_stakings[i]].accruedExaEsAmount = 0 */\n      dup2\n      swap1\n      sstore\n      pop\n        /* \"TimeAlly.sol\":14293:14421  newStaking(... */\n      tag_578\n        /* \"TimeAlly.sol\":14321:14339  accruedExaEsAmount */\n      dup2\n        /* \"TimeAlly.sol\":14357:14365  stakings */\n      0x08\n        /* \"TimeAlly.sol\":14357:14377  stakings[msg.sender] */\n      0x00\n        /* \"TimeAlly.sol\":14366:14376  msg.sender */\n      caller\n        /* \"TimeAlly.sol\":14357:14377  stakings[msg.sender] */\n      0xffffffffffffffffffffffffffffffffffffffff\n      and\n      0xffffffffffffffffffffffffffffffffffffffff\n      and\n      dup2\n      mstore\n      0x20\n      add\n      swap1\n      dup2\n      mstore\n      0x20\n      add\n      0x00\n      keccak256\n        /* \"TimeAlly.sol\":14378:14387  _stakings */\n      dup6\n        /* \"TimeAlly.sol\":14388:14389  i */\n      dup6\n        /* \"TimeAlly.sol\":14378:14390  _stakings[i] */\n      dup2\n      mload\n      dup2\n      lt\n      tag_579\n      jumpi\n      invalid\n    tag_579:\n      0x20\n      mul\n      0x20\n      add\n      add\n      mload\n        /* \"TimeAlly.sol\":14357:14391  stakings[msg.sender][_stakings[i]] */\n      dup2\n      sload\n      dup2\n      lt\n      tag_580\n      jumpi\n      invalid\n    tag_580:\n      swap1\n      0x00\n      mstore\n      keccak256(0x00, 0x20)\n      swap1\n      0x09\n      mul\n      add\n        /* \"TimeAlly.sol\":14357:14405  stakings[msg.sender][_stakings[i]].stakingPlanId */\n      0x02\n      add\n      sload\n        /* \"TimeAlly.sol\":14293:14303  newStaking */\n      tag_144\n        /* \"TimeAlly.sol\":14293:14421  newStaking(... */\n      jump\t// in\n    tag_578:\n        /* \"TimeAlly.sol\":14044:14436  if(stakings[msg.sender][_stakings[i]].accruedExaEsAmount > 0) {... */\n      pop\n    tag_571:\n        /* \"TimeAlly.sol\":14450:14455  token */\n      0x01\n      0x00\n      swap1\n      sload\n      swap1\n      0x0100\n      exp\n      swap1\n      div\n      0xffffffffffffffffffffffffffffffffffffffff\n      and\n        /* \"TimeAlly.sol\":14450:14464  token.transfer */\n      0xffffffffffffffffffffffffffffffffffffffff\n      and\n      0xa9059cbb\n        /* \"TimeAlly.sol\":14465:14475  msg.sender */\n      caller\n        /* \"TimeAlly.sol\":14477:14485  stakings */\n      0x08\n        /* \"TimeAlly.sol\":14477:14497  stakings[msg.sender] */\n      0x00\n        /* \"TimeAlly.sol\":14486:14496  msg.sender */\n      caller\n        /* \"TimeAlly.sol\":14477:14497  stakings[msg.sender] */\n      0xffffffffffffffffffffffffffffffffffffffff\n      and\n      0xffffffffffffffffffffffffffffffffffffffff\n      and\n      dup2\n      mstore\n      0x20\n      add\n      swap1\n      dup2\n      mstore\n      0x20\n      add\n      0x00\n      keccak256\n        /* \"TimeAlly.sol\":14498:14507  _stakings */\n      dup6\n        /* \"TimeAlly.sol\":14508:14509  i */\n      dup6\n        /* \"TimeAlly.sol\":14498:14510  _stakings[i] */\n      dup2\n      mload\n      dup2\n      lt\n      tag_582\n      jumpi\n      invalid\n    tag_582:\n      0x20\n      mul\n      0x20\n      add\n      add\n      mload\n        /* \"TimeAlly.sol\":14477:14511  stakings[msg.sender][_stakings[i]] */\n      dup2\n      sload\n      dup2\n      lt\n      tag_583\n      jumpi\n      invalid\n    tag_583:\n      swap1\n      0x00\n      mstore\n      keccak256(0x00, 0x20)\n      swap1\n      0x09\n      mul\n      add\n        /* \"TimeAlly.sol\":14477:14523  stakings[msg.sender][_stakings[i]].exaEsAmount */\n      0x00\n      add\n      sload\n        /* \"TimeAlly.sol\":14450:14524  token.transfer(msg.sender, stakings[msg.sender][_stakings[i]].exaEsAmount) */\n      mload(0x40)\n      dup4\n      0xffffffff\n      and\n      0xe0\n      shl\n      dup2\n      mstore\n      0x04\n      add\n      dup1\n      dup4\n      0xffffffffffffffffffffffffffffffffffffffff\n      and\n      0xffffffffffffffffffffffffffffffffffffffff\n      and\n      dup2\n      mstore\n      0x20\n      add\n      dup3\n      dup2\n      mstore\n      0x20\n      add\n      swap3\n      pop\n      pop\n      pop\n      0x20\n      mload(0x40)\n      dup1\n      dup4\n      sub\n      dup2\n      0x00\n      dup8\n      dup1\n      extcodesize\n      iszero\n        /* \"--CODEGEN--\":8:17   */\n      dup1\n        /* \"--CODEGEN--\":5:7   */\n      iszero\n      tag_585\n      jumpi\n        /* \"--CODEGEN--\":30:31   */\n      0x00\n        /* \"--CODEGEN--\":27:28   */\n      dup1\n        /* \"--CODEGEN--\":20:32   */\n      revert\n        /* \"--CODEGEN--\":5:7   */\n    tag_585:\n        /* \"TimeAlly.sol\":14450:14524  token.transfer(msg.sender, stakings[msg.sender][_stakings[i]].exaEsAmount) */\n      pop\n      gas\n      call\n      iszero\n        /* \"--CODEGEN--\":8:17   */\n      dup1\n        /* \"--CODEGEN--\":5:7   */\n      iszero\n      tag_586\n      jumpi\n        /* \"--CODEGEN--\":45:61   */\n      returndatasize\n        /* \"--CODEGEN--\":42:43   */\n      0x00\n        /* \"--CODEGEN--\":39:40   */\n      dup1\n        /* \"--CODEGEN--\":24:62   */\n      returndatacopy\n        /* \"--CODEGEN--\":77:93   */\n      returndatasize\n        /* \"--CODEGEN--\":74:75   */\n      0x00\n        /* \"--CODEGEN--\":67:94   */\n      revert\n        /* \"--CODEGEN--\":5:7   */\n    tag_586:\n        /* \"TimeAlly.sol\":14450:14524  token.transfer(msg.sender, stakings[msg.sender][_stakings[i]].exaEsAmount) */\n      pop\n      pop\n      pop\n      pop\n      mload(0x40)\n      returndatasize\n        /* \"--CODEGEN--\":13:15   */\n      0x20\n        /* \"--CODEGEN--\":8:11   */\n      dup2\n        /* \"--CODEGEN--\":5:16   */\n      lt\n        /* \"--CODEGEN--\":2:4   */\n      iszero\n      tag_587\n      jumpi\n        /* \"--CODEGEN--\":29:30   */\n      0x00\n        /* \"--CODEGEN--\":26:27   */\n      dup1\n        /* \"--CODEGEN--\":19:31   */\n      revert\n        /* \"--CODEGEN--\":2:4   */\n    tag_587:\n        /* \"TimeAlly.sol\":14450:14524  token.transfer(msg.sender, stakings[msg.sender][_stakings[i]].exaEsAmount) */\n      dup2\n      add\n      swap1\n      dup1\n      dup1\n      mload\n      swap1\n      0x20\n      add\n      swap1\n      swap3\n      swap2\n      swap1\n      pop\n      pop\n      pop\n      pop\n        /* \"TimeAlly.sol\":13965:13968  i++ */\n      dup1\n      dup1\n      0x01\n      add\n      swap2\n      pop\n      pop\n        /* \"TimeAlly.sol\":13924:14535  for(uint256 i = 0; i < _stakings.length; i++) {... */\n      jump(tag_562)\n    tag_563:\n      pop\n        /* \"TimeAlly.sol\":13846:14541  function withdrawExpiredStakings(uint256[] memory _stakings) public {... */\n      pop\n      jump\t// out\n        /* \"TimeAlly.sol\":7739:8803  function userActiveStakingByMonth(address _userAddress, uint256 _atMonth) public view returns (uint256) {... */\n    tag_158:\n        /* \"TimeAlly.sol\":7834:7841  uint256 */\n      0x00\n        /* \"TimeAlly.sol\":8067:8088  uint256 _currentMonth */\n      dup1\n        /* \"TimeAlly.sol\":8091:8108  getCurrentMonth() */\n      tag_589\n        /* \"TimeAlly.sol\":8091:8106  getCurrentMonth */\n      tag_138\n        /* \"TimeAlly.sol\":8091:8108  getCurrentMonth() */\n      jump\t// in\n    tag_589:\n        /* \"TimeAlly.sol\":8067:8108  uint256 _currentMonth = getCurrentMonth() */\n      swap1\n      pop\n        /* \"TimeAlly.sol\":8195:8232  uint256 userActiveStakingsExaEsAmount */\n      0x00\n        /* \"TimeAlly.sol\":8247:8256  uint256 i */\n      dup1\n        /* \"TimeAlly.sol\":8259:8260  0 */\n      0x00\n        /* \"TimeAlly.sol\":8247:8260  uint256 i = 0 */\n      swap1\n      pop\n        /* \"TimeAlly.sol\":8243:8750  for(uint256 i = 0; i < stakings[_userAddress].length; i++) {... */\n    tag_590:\n        /* \"TimeAlly.sol\":8266:8274  stakings */\n      0x08\n        /* \"TimeAlly.sol\":8266:8288  stakings[_userAddress] */\n      0x00\n        /* \"TimeAlly.sol\":8275:8287  _userAddress */\n      dup8\n        /* \"TimeAlly.sol\":8266:8288  stakings[_userAddress] */\n      0xffffffffffffffffffffffffffffffffffffffff\n      and\n      0xffffffffffffffffffffffffffffffffffffffff\n      and\n      dup2\n      mstore\n      0x20\n      add\n      swap1\n      dup2\n      mstore\n      0x20\n      add\n      0x00\n      keccak256\n        /* \"TimeAlly.sol\":8266:8295  stakings[_userAddress].length */\n      dup1\n      sload\n      swap1\n      pop\n        /* \"TimeAlly.sol\":8262:8263  i */\n      dup2\n        /* \"TimeAlly.sol\":8262:8295  i < stakings[_userAddress].length */\n      lt\n        /* \"TimeAlly.sol\":8243:8750  for(uint256 i = 0; i < stakings[_userAddress].length; i++) {... */\n      iszero\n      tag_591\n      jumpi\n        /* \"TimeAlly.sol\":8389:8446  isStakingActive(_userAddress, i, _currentMonth, _atMonth) */\n      tag_593\n        /* \"TimeAlly.sol\":8405:8417  _userAddress */\n      dup7\n        /* \"TimeAlly.sol\":8419:8420  i */\n      dup3\n        /* \"TimeAlly.sol\":8422:8435  _currentMonth */\n      dup6\n        /* \"TimeAlly.sol\":8437:8445  _atMonth */\n      dup9\n        /* \"TimeAlly.sol\":8389:8404  isStakingActive */\n      tag_106\n        /* \"TimeAlly.sol\":8389:8446  isStakingActive(_userAddress, i, _currentMonth, _atMonth) */\n      jump\t// in\n    tag_593:\n        /* \"TimeAlly.sol\":8386:8740  if(isStakingActive(_userAddress, i, _currentMonth, _atMonth)) {... */\n      iszero\n      tag_594\n      jumpi\n        /* \"TimeAlly.sol\":8498:8591  userActiveStakingsExaEsAmount... */\n      tag_595\n        /* \"TimeAlly.sol\":8553:8561  stakings */\n      0x08\n        /* \"TimeAlly.sol\":8553:8575  stakings[_userAddress] */\n      0x00\n        /* \"TimeAlly.sol\":8562:8574  _userAddress */\n      dup9\n        /* \"TimeAlly.sol\":8553:8575  stakings[_userAddress] */\n      0xffffffffffffffffffffffffffffffffffffffff\n      and\n      0xffffffffffffffffffffffffffffffffffffffff\n      and\n      dup2\n      mstore\n      0x20\n      add\n      swap1\n      dup2\n      mstore\n      0x20\n      add\n      0x00\n      keccak256\n        /* \"TimeAlly.sol\":8576:8577  i */\n      dup3\n        /* \"TimeAlly.sol\":8553:8578  stakings[_userAddress][i] */\n      dup2\n      sload\n      dup2\n      lt\n      tag_596\n      jumpi\n      invalid\n    tag_596:\n      swap1\n      0x00\n      mstore\n      keccak256(0x00, 0x20)\n      swap1\n      0x09\n      mul\n      add\n        /* \"TimeAlly.sol\":8553:8590  stakings[_userAddress][i].exaEsAmount */\n      0x00\n      add\n      sload\n        /* \"TimeAlly.sol\":8498:8527  userActiveStakingsExaEsAmount */\n      dup4\n        /* \"TimeAlly.sol\":8498:8552  userActiveStakingsExaEsAmount... */\n      tag_222\n      swap1\n        /* \"TimeAlly.sol\":8498:8591  userActiveStakingsExaEsAmount... */\n      swap2\n      swap1\n      0xffffffff\n      and\n      jump\t// in\n    tag_595:\n        /* \"TimeAlly.sol\":8466:8591  userActiveStakingsExaEsAmount = userActiveStakingsExaEsAmount... */\n      swap2\n      pop\n        /* \"TimeAlly.sol\":8386:8740  if(isStakingActive(_userAddress, i, _currentMonth, _atMonth)) {... */\n    tag_594:\n        /* \"TimeAlly.sol\":8297:8300  i++ */\n      dup1\n      dup1\n      0x01\n      add\n      swap2\n      pop\n      pop\n        /* \"TimeAlly.sol\":8243:8750  for(uint256 i = 0; i < stakings[_userAddress].length; i++) {... */\n      jump(tag_590)\n    tag_591:\n      pop\n        /* \"TimeAlly.sol\":8767:8796  userActiveStakingsExaEsAmount */\n      dup1\n        /* \"TimeAlly.sol\":8760:8796  return userActiveStakingsExaEsAmount */\n      swap3\n      pop\n      pop\n      pop\n        /* \"TimeAlly.sol\":7739:8803  function userActiveStakingByMonth(address _userAddress, uint256 _atMonth) public view returns (uint256) {... */\n      swap3\n      swap2\n      pop\n      pop\n      jump\t// out\n        /* \"TimeAlly.sol\":1054:1074  Eraswap public token */\n    tag_160:\n      0x01\n      0x00\n      swap1\n      sload\n      swap1\n      0x0100\n      exp\n      swap1\n      div\n      0xffffffffffffffffffffffffffffffffffffffff\n      and\n      dup2\n      jump\t// out\n        /* \"SafeMath.sol\":1211:1356  function sub(uint256 a, uint256 b) internal pure returns (uint256) {... */\n    tag_174:\n        /* \"SafeMath.sol\":1269:1276  uint256 */\n      0x00\n        /* \"SafeMath.sol\":1301:1302  a */\n      dup3\n        /* \"SafeMath.sol\":1296:1297  b */\n      dup3\n        /* \"SafeMath.sol\":1296:1302  b <= a */\n      gt\n      iszero\n        /* \"SafeMath.sol\":1288:1303  require(b <= a) */\n      tag_599\n      jumpi\n      0x00\n      dup1\n      revert\n    tag_599:\n        /* \"SafeMath.sol\":1313:1322  uint256 c */\n      0x00\n        /* \"SafeMath.sol\":1329:1330  b */\n      dup3\n        /* \"SafeMath.sol\":1325:1326  a */\n      dup5\n        /* \"SafeMath.sol\":1325:1330  a - b */\n      sub\n        /* \"SafeMath.sol\":1313:1330  uint256 c = a - b */\n      swap1\n      pop\n        /* \"SafeMath.sol\":1348:1349  c */\n      dup1\n        /* \"SafeMath.sol\":1341:1349  return c */\n      swap2\n      pop\n      pop\n        /* \"SafeMath.sol\":1211:1356  function sub(uint256 a, uint256 b) internal pure returns (uint256) {... */\n      swap3\n      swap2\n      pop\n      pop\n      jump\t// out\n        /* \"SafeMath.sol\":231:652  function mul(uint256 a, uint256 b) internal pure returns (uint256) {... */\n    tag_184:\n        /* \"SafeMath.sol\":289:296  uint256 */\n      0x00\n        /* \"SafeMath.sol\":534:535  0 */\n      dup1\n        /* \"SafeMath.sol\":529:530  a */\n      dup4\n        /* \"SafeMath.sol\":529:535  a == 0 */\n      eq\n        /* \"SafeMath.sol\":525:570  if (a == 0) {... */\n      iszero\n      tag_601\n      jumpi\n        /* \"SafeMath.sol\":558:559  0 */\n      0x00\n        /* \"SafeMath.sol\":551:559  return 0 */\n      swap1\n      pop\n      jump(tag_600)\n        /* \"SafeMath.sol\":525:570  if (a == 0) {... */\n    tag_601:\n        /* \"SafeMath.sol\":580:589  uint256 c */\n      0x00\n        /* \"SafeMath.sol\":596:597  b */\n      dup3\n        /* \"SafeMath.sol\":592:593  a */\n      dup5\n        /* \"SafeMath.sol\":592:597  a * b */\n      mul\n        /* \"SafeMath.sol\":580:597  uint256 c = a * b */\n      swap1\n      pop\n        /* \"SafeMath.sol\":624:625  b */\n      dup3\n        /* \"SafeMath.sol\":619:620  a */\n      dup5\n        /* \"SafeMath.sol\":615:616  c */\n      dup3\n        /* \"SafeMath.sol\":615:620  c / a */\n      dup2\n      tag_602\n      jumpi\n      invalid\n    tag_602:\n      div\n        /* \"SafeMath.sol\":615:625  c / a == b */\n      eq\n        /* \"SafeMath.sol\":607:626  require(c / a == b) */\n      tag_603\n      jumpi\n      0x00\n      dup1\n      revert\n    tag_603:\n        /* \"SafeMath.sol\":644:645  c */\n      dup1\n        /* \"SafeMath.sol\":637:645  return c */\n      swap2\n      pop\n      pop\n        /* \"SafeMath.sol\":231:652  function mul(uint256 a, uint256 b) internal pure returns (uint256) {... */\n    tag_600:\n      swap3\n      swap2\n      pop\n      pop\n      jump\t// out\n        /* \"SafeMath.sol\":782:1078  function div(uint256 a, uint256 b) internal pure returns (uint256) {... */\n    tag_185:\n        /* \"SafeMath.sol\":840:847  uint256 */\n      0x00\n        /* \"SafeMath.sol\":937:938  0 */\n      dup1\n        /* \"SafeMath.sol\":933:934  b */\n      dup3\n        /* \"SafeMath.sol\":933:938  b > 0 */\n      gt\n        /* \"SafeMath.sol\":925:939  require(b > 0) */\n      tag_605\n      jumpi\n      0x00\n      dup1\n      revert\n    tag_605:\n        /* \"SafeMath.sol\":949:958  uint256 c */\n      0x00\n        /* \"SafeMath.sol\":965:966  b */\n      dup3\n        /* \"SafeMath.sol\":961:962  a */\n      dup5\n        /* \"SafeMath.sol\":961:966  a / b */\n      dup2\n      tag_606\n      jumpi\n      invalid\n    tag_606:\n      div\n        /* \"SafeMath.sol\":949:966  uint256 c = a / b */\n      swap1\n      pop\n        /* \"SafeMath.sol\":1070:1071  c */\n      dup1\n        /* \"SafeMath.sol\":1063:1071  return c */\n      swap2\n      pop\n      pop\n        /* \"SafeMath.sol\":782:1078  function div(uint256 a, uint256 b) internal pure returns (uint256) {... */\n      swap3\n      swap2\n      pop\n      pop\n      jump\t// out\n        /* \"SafeMath.sol\":1439:1584  function add(uint256 a, uint256 b) internal pure returns (uint256) {... */\n    tag_222:\n        /* \"SafeMath.sol\":1497:1504  uint256 */\n      0x00\n        /* \"SafeMath.sol\":1516:1525  uint256 c */\n      dup1\n        /* \"SafeMath.sol\":1532:1533  b */\n      dup3\n        /* \"SafeMath.sol\":1528:1529  a */\n      dup5\n        /* \"SafeMath.sol\":1528:1533  a + b */\n      add\n        /* \"SafeMath.sol\":1516:1533  uint256 c = a + b */\n      swap1\n      pop\n        /* \"SafeMath.sol\":1556:1557  a */\n      dup4\n        /* \"SafeMath.sol\":1551:1552  c */\n      dup2\n        /* \"SafeMath.sol\":1551:1557  c >= a */\n      lt\n      iszero\n        /* \"SafeMath.sol\":1543:1558  require(c >= a) */\n      tag_608\n      jumpi\n      0x00\n      dup1\n      revert\n    tag_608:\n        /* \"SafeMath.sol\":1576:1577  c */\n      dup1\n        /* \"SafeMath.sol\":1569:1577  return c */\n      swap2\n      pop\n      pop\n        /* \"SafeMath.sol\":1439:1584  function add(uint256 a, uint256 b) internal pure returns (uint256) {... */\n      swap3\n      swap2\n      pop\n      pop\n      jump\t// out\n        /* \"TimeAlly.sol\":245:22512  contract TimeAlly {... */\n    tag_207:\n      mload(0x40)\n      dup1\n      0x40\n      add\n      0x40\n      mstore\n      dup1\n      0x00\n      dup2\n      mstore\n      0x20\n      add\n      0x00\n      dup2\n      mstore\n      pop\n      swap1\n      jump\t// out\n    tag_482:\n      dup3\n      dup1\n      sload\n      dup3\n      dup3\n      sstore\n      swap1\n      0x00\n      mstore\n      keccak256(0x00, 0x20)\n      swap1\n      dup2\n      add\n      swap3\n      dup3\n      iszero\n      tag_609\n      jumpi\n      swap2\n      0x20\n      mul\n      dup3\n      add\n    tag_610:\n      dup3\n      dup2\n      gt\n      iszero\n      tag_611\n      jumpi\n      dup3\n      mload\n      dup3\n      sstore\n      swap2\n      0x20\n      add\n      swap2\n      swap1\n      0x01\n      add\n      swap1\n      jump(tag_610)\n    tag_611:\n    tag_609:\n      pop\n      swap1\n      pop\n      tag_612\n      swap2\n      swap1\n      tag_613\n      jump\t// in\n    tag_612:\n      pop\n      swap1\n      jump\t// out\n    tag_613:\n      tag_614\n      swap2\n      swap1\n    tag_615:\n      dup1\n      dup3\n      gt\n      iszero\n      tag_616\n      jumpi\n      0x00\n      dup2\n      0x00\n      swap1\n      sstore\n      pop\n      0x01\n      add\n      jump(tag_615)\n    tag_616:\n      pop\n      swap1\n      jump\n    tag_614:\n      swap1\n      jump\t// out\n    stop\n    data_39460daa7a45684f9dd0ed61ccf993f0ceb0e72e199b722f68f8fd8b9a275c06 63616e6e6f74206c6f616e206d6f7265207468616e206d61784c6f616e696e67416d6f756e74\n    data_93da6dd610d9fefb6e1313dcbf2bddd65b198696b7b6534428823c79c90920b5 6163637275656450657263656e746167652073686f756c64206265206174206c65617374203530\n    data_9dc458dbb6ce1791a3f9802dbdb820884214d2513b45f4efec23e9f5109e79ae 63616e6e6f74207265636569766520656e6f75676820746f6b656e732c20706c6561736520636865636b20696620616c6c6f77616e6365206973207468657265\n    data_a91bf1cb1c3c9b9cd56833c7f2036bb341aa4960f7651241271a69032b7ec915 746f2063616e73616c2c207374616b696e67206d75737420626520616374697665\n    data_befd38e7335fb8237cef118812ecee5a2b8ea845f685bf397227db9c69bef0b5 746f74616c20616374697665207374616b696e67732073686f756c64206265206e6f6e207a65726f\n\n    auxdata: 0xa265627a7a72305820b9053bc3d1a5d38f9c113c62c882d65f020bea765220c96b3cf6bcfbb30e212064736f6c634300050a0032\n}\n","bytecode":{"linkReferences":{},"object":"6080604052622820706004553480156200001857600080fd5b506040516200555738038062005557833981810160405260408110156200003e57600080fd5b810190808051906020019092919080519060200190929190505050336000806101000a81548173ffffffffffffffffffffffffffffffffffffffff021916908373ffffffffffffffffffffffffffffffffffffffff16021790555081600160006101000a81548173ffffffffffffffffffffffffffffffffffffffff021916908373ffffffffffffffffffffffffffffffffffffffff16021790555080600260006101000a81548173ffffffffffffffffffffffffffffffffffffffff021916908373ffffffffffffffffffffffffffffffffffffffff160217905550600160009054906101000a900473ffffffffffffffffffffffffffffffffffffffff1673ffffffffffffffffffffffffffffffffffffffff1663b81f90f36040518163ffffffff1660e01b815260040160206040518083038186803b1580156200018457600080fd5b505afa15801562000199573d6000803e3d6000fd5b505050506040513d6020811015620001b057600080fd5b8101908080519060200190929190505050600381905550600560009080600181540180825580915050906001820390600052602060002001600090919290919091505550505061535180620002066000396000f3fe608060405234801561001057600080fd5b506004361061021c5760003560e01c80638da5cb5b11610125578063da9d8aa0116100ad578063e6bbe4241161007c578063e6bbe42414610c8f578063e78c81c414610cad578063e83f784314610cdb578063eb12f7f514610d93578063fc0c546a14610df55761021c565b8063da9d8aa014610bdd578063ddd1b67e14610c0b578063dea6cf4314610c29578063e5fd04e614610c575761021c565b8063ad998fa0116100f4578063ad998fa01461094c578063be4ad9c3146109a4578063c71d5d5814610a90578063cc44a2fd14610ac8578063d0e3268114610b115761021c565b80638da5cb5b146107e357806397a332d81461082d57806398c61c37146108a75780639ab0388b1461091e5761021c565b806346a4d6e3116101a8578063582e7e9e11610177578063582e7e9e1461062a57806359dcc8c514610648578063762e7a341461070a5780637acab8571461075357806382f97857146107ab5761021c565b806346a4d6e3146104d6578063497ec40f1461055b5780634ec0692c146105ba57806353fcb2f3146105fc5761021c565b806323a15e6b116101ef57806323a15e6b1461034a5780632f3b59ea1461038c57806335f406ab146103ee5780633d5d6b5a1461043c57806341927861146104745761021c565b8063070b8195146102215780630df5202f1461023f5780631849d8ea14610289578063217d65fb1461031c575b600080fd5b610229610e3f565b6040518082815260200191505060405180910390f35b610247610e45565b604051808273ffffffffffffffffffffffffffffffffffffffff1673ffffffffffffffffffffffffffffffffffffffff16815260200191505060405180910390f35b6102d56004803603604081101561029f57600080fd5b81019080803573ffffffffffffffffffffffffffffffffffffffff16906020019092919080359060200190929190505050610e6b565b604051808981526020018881526020018781526020018681526020018581526020018481526020018381526020018281526020019850505050505050505060405180910390f35b6103486004803603602081101561033257600080fd5b8101908080359060200190929190505050610ecd565b005b6103766004803603602081101561036057600080fd5b8101908080359060200190929190505050611453565b6040518082815260200191505060405180910390f35b6103d8600480360360408110156103a257600080fd5b81019080803573ffffffffffffffffffffffffffffffffffffffff16906020019092919080359060200190929190505050611474565b6040518082815260200191505060405180910390f35b61043a6004803603608081101561040457600080fd5b810190808035906020019092919080359060200190929190803515159060200190929190803590602001909291905050506117a5565b005b6104726004803603604081101561045257600080fd5b810190808035906020019092919080359060200190929190505050611e4d565b005b6104c06004803603604081101561048a57600080fd5b81019080803573ffffffffffffffffffffffffffffffffffffffff16906020019092919080359060200190929190505050611f85565b6040518082815260200191505060405180910390f35b610522600480360360408110156104ec57600080fd5b81019080803573ffffffffffffffffffffffffffffffffffffffff1690602001909291908035906020019092919050505061211d565b60405180878152602001868152602001858152602001848152602001838152602001828152602001965050505050505060405180910390f35b610563612364565b6040518080602001828103825283818151815260200191508051906020019060200280838360005b838110156105a657808201518184015260208101905061058b565b505050509050019250505060405180910390f35b6105e6600480360360208110156105d057600080fd5b81019080803590602001909291905050506123bc565b6040518082815260200191505060405180910390f35b6106286004803603602081101561061257600080fd5b81019080803590602001909291905050506123d4565b005b6106326125d5565b6040518082815260200191505060405180910390f35b6107086004803603604081101561065e57600080fd5b810190808035906020019064010000000081111561067b57600080fd5b82018360208201111561068d57600080fd5b803590602001918460208302840111640100000000831117156106af57600080fd5b919080806020026020016040519081016040528093929190818152602001838360200280828437600081840152601f19601f820116905080830192505050505050509192919290803590602001909291905050506125db565b005b6107366004803603602081101561072057600080fd5b8101908080359060200190929190505050612794565b604051808381526020018281526020019250505060405180910390f35b6107956004803603602081101561076957600080fd5b81019080803573ffffffffffffffffffffffffffffffffffffffff1690602001909291905050506127c5565b6040518082815260200191505060405180910390f35b6107e1600480360360408110156107c157600080fd5b8101908080359060200190929190803590602001909291905050506127dd565b005b6107eb6128fc565b604051808273ffffffffffffffffffffffffffffffffffffffff1673ffffffffffffffffffffffffffffffffffffffff16815260200191505060405180910390f35b61088d6004803603608081101561084357600080fd5b81019080803573ffffffffffffffffffffffffffffffffffffffff169060200190929190803590602001909291908035906020019092919080359060200190929190505050612921565b604051808215151515815260200191505060405180910390f35b6108f3600480360360408110156108bd57600080fd5b81019080803573ffffffffffffffffffffffffffffffffffffffff16906020019092919080359060200190929190505050612be6565b6040518085815260200184815260200183815260200182815260200194505050505060405180910390f35b61094a6004803603602081101561093457600080fd5b8101908080359060200190929190505050612c30565b005b61098e6004803603602081101561096257600080fd5b81019080803573ffffffffffffffffffffffffffffffffffffffff169060200190929190505050612fdd565b6040518082815260200191505060405180910390f35b610a7a600480360360408110156109ba57600080fd5b81019080803573ffffffffffffffffffffffffffffffffffffffff169060200190929190803590602001906401000000008111156109f757600080fd5b820183602082011115610a0957600080fd5b80359060200191846020830284011164010000000083111715610a2b57600080fd5b919080806020026020016040519081016040528093929190818152602001838360200280828437600081840152601f19601f820116905080830192505050505050509192919290505050613029565b6040518082815260200191505060405180910390f35b610ac660048036036040811015610aa657600080fd5b8101908080359060200190929190803590602001909291905050506131cc565b005b610af460048036036020811015610ade57600080fd5b81019080803590602001909291905050506132eb565b604051808381526020018281526020019250505060405180910390f35b610bdb60048036036060811015610b2757600080fd5b81019080803590602001909291908035906020019092919080359060200190640100000000811115610b5857600080fd5b820183602082011115610b6a57600080fd5b80359060200191846020830284011164010000000083111715610b8c57600080fd5b919080806020026020016040519081016040528093929190818152602001838360200280828437600081840152601f19601f82011690508083019250505050505050919291929050505061331c565b005b610c0960048036036020811015610bf357600080fd5b8101908080359060200190929190505050613d29565b005b610c13614087565b6040518082815260200191505060405180910390f35b610c5560048036036020811015610c3f57600080fd5b8101908080359060200190929190505050614097565b005b610c8d60048036036040811015610c6d57600080fd5b810190808035906020019092919080359060200190929190505050614731565b005b610c97614b44565b6040518082815260200191505060405180910390f35b610cd960048036036020811015610cc357600080fd5b8101908080359060200190929190505050614b4a565b005b610d9160048036036020811015610cf157600080fd5b8101908080359060200190640100000000811115610d0e57600080fd5b820183602082011115610d2057600080fd5b80359060200191846020830284011164010000000083111715610d4257600080fd5b919080806020026020016040519081016040528093929190818152602001838360200280828437600081840152601f19601f820116905080830192505050505050509192919290505050614c3c565b005b610ddf60048036036040811015610da957600080fd5b81019080803573ffffffffffffffffffffffffffffffffffffffff16906020019092919080359060200190929190505050614ffb565b6040518082815260200191505060405180910390f35b610dfd6150f5565b604051808273ffffffffffffffffffffffffffffffffffffffff1673ffffffffffffffffffffffffffffffffffffffff16815260200191505060405180910390f35b600b5481565b600260009054906101000a900473ffffffffffffffffffffffffffffffffffffffff1681565b60086020528160005260406000208181548110610e8457fe5b9060005260206000209060090201600091509150508060000154908060010154908060020154908060030154908060040154908060050154908060070154908060080154905088565b6004600860003373ffffffffffffffffffffffffffffffffffffffff1673ffffffffffffffffffffffffffffffffffffffff1681526020019081526020016000208281548110610f1957fe5b90600052602060002090600902016003015414610f9e576040517f08c379a00000000000000000000000000000000000000000000000000000000081526004018080602001828103825260198152602001807f7374616b696e67206d7573742062652063616e63656c6c65640000000000000081525060200191505060405180910390fd5b6000600860003373ffffffffffffffffffffffffffffffffffffffff1673ffffffffffffffffffffffffffffffffffffffff1681526020019081526020016000208281548110610fea57fe5b9060005260206000209060090201600801541161106f576040517f08c379a00000000000000000000000000000000000000000000000000000000081526004018080602001828103825260178152602001807f616c6c20726566756e64732061726520636c61696d656400000000000000000081525060200191505060405180910390fd5b6000611079614087565b905060006110eb600860003373ffffffffffffffffffffffffffffffffffffffff1673ffffffffffffffffffffffffffffffffffffffff16815260200190815260200160002084815481106110ca57fe5b9060005260206000209060090201600701548361511b90919063ffffffff16565b9050600860003373ffffffffffffffffffffffffffffffffffffffff1673ffffffffffffffffffffffffffffffffffffffff168152602001908152602001600020838154811061113757fe5b9060005260206000209060090201600801548111156111af57600860003373ffffffffffffffffffffffffffffffffffffffff1673ffffffffffffffffffffffffffffffffffffffff168152602001908152602001600020838154811061119a57fe5b90600052602060002090600902016008015490505b6000611232601861122484600860003373ffffffffffffffffffffffffffffffffffffffff1673ffffffffffffffffffffffffffffffffffffffff168152602001908152602001600020888154811061120457fe5b90600052602060002090600902016000015461513b90919063ffffffff16565b61517590919063ffffffff16565b905061123c614087565b600860003373ffffffffffffffffffffffffffffffffffffffff1673ffffffffffffffffffffffffffffffffffffffff168152602001908152602001600020858154811061128657fe5b90600052602060002090600902016007018190555061130982600860003373ffffffffffffffffffffffffffffffffffffffff1673ffffffffffffffffffffffffffffffffffffffff16815260200190815260200160002086815481106112e957fe5b90600052602060002090600902016008015461511b90919063ffffffff16565b600860003373ffffffffffffffffffffffffffffffffffffffff1673ffffffffffffffffffffffffffffffffffffffff168152602001908152602001600020858154811061135357fe5b906000526020600020906009020160080181905550600160009054906101000a900473ffffffffffffffffffffffffffffffffffffffff1673ffffffffffffffffffffffffffffffffffffffff1663a9059cbb33836040518363ffffffff1660e01b8152600401808373ffffffffffffffffffffffffffffffffffffffff1673ffffffffffffffffffffffffffffffffffffffff16815260200182815260200192505050602060405180830381600087803b15801561141157600080fd5b505af1158015611425573d6000803e3d6000fd5b505050506040513d602081101561143b57600080fd5b81019080805190602001909291905050505050505050565b6005818154811061146057fe5b906000526020600020016000915090505481565b60008061147f614087565b9050808311156114f7576040517f08c379a000000000000000000000000000000000000000000000000000000000815260040180806020018281038252601a8152602001807f63616e6e6f742073656520667574757265207374616b696e677300000000000081525060200191505060405180910390fd5b6000600a600085815260200190815260200160002054141561151d57600091505061179f565b600080600090505b600860008773ffffffffffffffffffffffffffffffffffffffff1673ffffffffffffffffffffffffffffffffffffffff1681526020019081526020016000208054905081101561174a576115776151ba565b6006600860008973ffffffffffffffffffffffffffffffffffffffff1673ffffffffffffffffffffffffffffffffffffffff16815260200190815260200160002083815481106115c357fe5b906000526020600020906009020160020154815481106115df57fe5b906000526020600020906002020160405180604001604052908160008201548152602001600182015481525050905061161a87838689612921565b801561169d5750600860008873ffffffffffffffffffffffffffffffffffffffff1673ffffffffffffffffffffffffffffffffffffffff168152602001908152602001600020828154811061166b57fe5b9060005260206000209060090201600601600087815260200190815260200160002060009054906101000a900460ff16155b1561173c5761173961172a600f61171c8460200151600860008d73ffffffffffffffffffffffffffffffffffffffff1673ffffffffffffffffffffffffffffffffffffffff16815260200190815260200160002087815481106116fc57fe5b90600052602060002090600902016000015461513b90919063ffffffff16565b61517590919063ffffffff16565b8461519b90919063ffffffff16565b92505b508080600101915050611525565b5061179a600a60008681526020019081526020016000205461178c6005878154811061177257fe5b90600052602060002001548461513b90919063ffffffff16565b61517590919063ffffffff16565b925050505b92915050565b60006117af614087565b905084811015611827576040517f08c379a000000000000000000000000000000000000000000000000000000000815260040180806020018281038252601f8152602001807f63616e6e6f7420776974686472617720667574757265207374616b696e67730081525060200191505060405180910390fd5b6000600a600083815260200190815260200160002054141561189b57600061189a576040517f08c379a00000000000000000000000000000000000000000000000000000000081526004018080602001828103825260288152602001806152f56028913960400191505060405180910390fd5b5b60328410156118f5576040517f08c379a000000000000000000000000000000000000000000000000000000000815260040180806020018281038252602781526020018061526d6027913960400191505060405180910390fd5b60008060008090505b600860003373ffffffffffffffffffffffffffffffffffffffff1673ffffffffffffffffffffffffffffffffffffffff16815260200190815260200160002080549050811015611cc7576119506151ba565b6006600860003373ffffffffffffffffffffffffffffffffffffffff1673ffffffffffffffffffffffffffffffffffffffff168152602001908152602001600020838154811061199c57fe5b906000526020600020906009020160020154815481106119b857fe5b90600052602060002090600202016040518060400160405290816000820154815260200160018201548152505090506119f33383878c612921565b8015611a765750600860003373ffffffffffffffffffffffffffffffffffffffff1673ffffffffffffffffffffffffffffffffffffffff1681526020019081526020016000208281548110611a4457fe5b906000526020600020906009020160060160008a815260200190815260200160002060009054906101000a900460ff16155b15611cb9576001600860003373ffffffffffffffffffffffffffffffffffffffff1673ffffffffffffffffffffffffffffffffffffffff1681526020019081526020016000208381548110611ac757fe5b906000526020600020906009020160060160008b815260200190815260200160002060006101000a81548160ff0219169083151502179055506000611b87600f611b798460200151600860003373ffffffffffffffffffffffffffffffffffffffff1673ffffffffffffffffffffffffffffffffffffffff1681526020019081526020016000208781548110611b5957fe5b90600052602060002090600902016000015461513b90919063ffffffff16565b61517590919063ffffffff16565b90506000611bb16064611ba38c8561513b90919063ffffffff16565b61517590919063ffffffff16565b90508815611c8b57611c2781600860003373ffffffffffffffffffffffffffffffffffffffff1673ffffffffffffffffffffffffffffffffffffffff1681526020019081526020016000208681548110611c0757fe5b90600052602060002090600902016004015461519b90919063ffffffff16565b600860003373ffffffffffffffffffffffffffffffffffffffff1673ffffffffffffffffffffffffffffffffffffffff1681526020019081526020016000208581548110611c7157fe5b906000526020600020906009020160040181905550611ca1565b611c9e818661519b90919063ffffffff16565b94505b611cb4828761519b90919063ffffffff16565b955050505b5080806001019150506118fe565b506000611d416064611d3389606403611d25600a60008a815260200190815260200160002054611d1760058b81548110611cfd57fe5b90600052602060002001548a61513b90919063ffffffff16565b61517590919063ffffffff16565b61513b90919063ffffffff16565b61517590919063ffffffff16565b90506000811115611e3257600160009054906101000a900473ffffffffffffffffffffffffffffffffffffffff1673ffffffffffffffffffffffffffffffffffffffff1663a9059cbb33836040518363ffffffff1660e01b8152600401808373ffffffffffffffffffffffffffffffffffffffff1673ffffffffffffffffffffffffffffffffffffffff16815260200182815260200192505050602060405180830381600087803b158015611df557600080fd5b505af1158015611e09573d6000803e3d6000fd5b505050506040513d6020811015611e1f57600080fd5b8101908080519060200190929190505050505b8515611e4357611e428286614731565b5b5050505050505050565b6000600860003373ffffffffffffffffffffffffffffffffffffffff1673ffffffffffffffffffffffffffffffffffffffff1681526020019081526020016000208381548110611e9957fe5b90600052602060002090600902016004015411611eb557600080fd5b6000600860003373ffffffffffffffffffffffffffffffffffffffff1673ffffffffffffffffffffffffffffffffffffffff1681526020019081526020016000208381548110611f0157fe5b90600052602060002090600902016004015490506000600860003373ffffffffffffffffffffffffffffffffffffffff1673ffffffffffffffffffffffffffffffffffffffff1681526020019081526020016000208481548110611f6157fe5b906000526020600020906009020160040181905550611f808183614731565b505050565b600080611f90614087565b9050600080600090505b600860008773ffffffffffffffffffffffffffffffffffffffff1673ffffffffffffffffffffffffffffffffffffffff1681526020019081526020016000208054905081101561211157611ff086828588612921565b15612104576121016120f2600f6120e46006600860008c73ffffffffffffffffffffffffffffffffffffffff1673ffffffffffffffffffffffffffffffffffffffff168152602001908152602001600020868154811061204c57fe5b9060005260206000209060090201600201548154811061206857fe5b906000526020600020906002020160010154600860008c73ffffffffffffffffffffffffffffffffffffffff1673ffffffffffffffffffffffffffffffffffffffff16815260200190815260200160002086815481106120c457fe5b90600052602060002090600902016000015461513b90919063ffffffff16565b61517590919063ffffffff16565b8361519b90919063ffffffff16565b91505b8080600101915050611f9a565b50809250505092915050565b600080600080600080600860008973ffffffffffffffffffffffffffffffffffffffff1673ffffffffffffffffffffffffffffffffffffffff168152602001908152602001600020878154811061217057fe5b906000526020600020906009020160000154600860008a73ffffffffffffffffffffffffffffffffffffffff1673ffffffffffffffffffffffffffffffffffffffff16815260200190815260200160002088815481106121cc57fe5b906000526020600020906009020160010154600860008b73ffffffffffffffffffffffffffffffffffffffff1673ffffffffffffffffffffffffffffffffffffffff168152602001908152602001600020898154811061222857fe5b906000526020600020906009020160020154600860008c73ffffffffffffffffffffffffffffffffffffffff1673ffffffffffffffffffffffffffffffffffffffff1681526020019081526020016000208a8154811061228457fe5b906000526020600020906009020160030154600860008d73ffffffffffffffffffffffffffffffffffffffff1673ffffffffffffffffffffffffffffffffffffffff1681526020019081526020016000208b815481106122e057fe5b906000526020600020906009020160040154600860008e73ffffffffffffffffffffffffffffffffffffffff1673ffffffffffffffffffffffffffffffffffffffff1681526020019081526020016000208c8154811061233c57fe5b9060005260206000209060090201600501549550955095509550955095509295509295509295565b606060058054806020026020016040519081016040528092919081815260200182805480156123b257602002820191906000526020600020905b81548152602001906001019080831161239e575b5050505050905090565b600a6020528060005260406000206000915090505481565b6000809054906101000a900473ffffffffffffffffffffffffffffffffffffffff1673ffffffffffffffffffffffffffffffffffffffff163373ffffffffffffffffffffffffffffffffffffffff1614612496576040517f08c379a00000000000000000000000000000000000000000000000000000000081526004018080602001828103825260168152602001807f6f6e6c79206465706c6f7965722063616e2063616c6c0000000000000000000081525060200191505060405180910390fd5b600160009054906101000a900473ffffffffffffffffffffffffffffffffffffffff1673ffffffffffffffffffffffffffffffffffffffff166323b872dd3330846040518463ffffffff1660e01b8152600401808473ffffffffffffffffffffffffffffffffffffffff1673ffffffffffffffffffffffffffffffffffffffff1681526020018373ffffffffffffffffffffffffffffffffffffffff1673ffffffffffffffffffffffffffffffffffffffff1681526020018281526020019350505050602060405180830381600087803b15801561257357600080fd5b505af1158015612587573d6000803e3d6000fd5b505050506040513d602081101561259d57600080fd5b81019080805190602001909291905050506125b757600080fd5b6125cc81600b5461519b90919063ffffffff16565b600b8190555050565b60045481565b6000809054906101000a900473ffffffffffffffffffffffffffffffffffffffff1673ffffffffffffffffffffffffffffffffffffffff163373ffffffffffffffffffffffffffffffffffffffff161461269d576040517f08c379a00000000000000000000000000000000000000000000000000000000081526004018080602001828103825260168152602001807f6f6e6c79206465706c6f7965722063616e2063616c6c0000000000000000000081525060200191505060405180910390fd5b60008090505b825181101561278f576126c182600b5461511b90919063ffffffff16565b600b8190555061272c82600c60008685815181106126db57fe5b602002602001015173ffffffffffffffffffffffffffffffffffffffff1673ffffffffffffffffffffffffffffffffffffffff1681526020019081526020016000205461519b90919063ffffffff16565b600c600085848151811061273c57fe5b602002602001015173ffffffffffffffffffffffffffffffffffffffff1673ffffffffffffffffffffffffffffffffffffffff1681526020019081526020016000208190555080806001019150506126a3565b505050565b600681815481106127a157fe5b90600052602060002090600202016000915090508060000154908060010154905082565b600c6020528060005260406000206000915090505481565b6000809054906101000a900473ffffffffffffffffffffffffffffffffffffffff1673ffffffffffffffffffffffffffffffffffffffff163373ffffffffffffffffffffffffffffffffffffffff161461289f576040517f08c379a00000000000000000000000000000000000000000000000000000000081526004018080602001828103825260168152602001807f6f6e6c79206465706c6f7965722063616e2063616c6c0000000000000000000081525060200191505060405180910390fd5b60076040518060400160405280848152602001838152509080600181540180825580915050906001820390600052602060002090600202016000909192909190915060008201518160000155602082015181600101555050505050565b6000809054906101000a900473ffffffffffffffffffffffffffffffffffffffff1681565b6000806129a860045461299a600354600860008b73ffffffffffffffffffffffffffffffffffffffff1673ffffffffffffffffffffffffffffffffffffffff168152602001908152602001600020898154811061297a57fe5b90600052602060002090600902016001015461511b90919063ffffffff16565b61517590919063ffffffff16565b9050826001820111158015612a385750826006600860008973ffffffffffffffffffffffffffffffffffffffff1673ffffffffffffffffffffffffffffffffffffffff1681526020019081526020016000208781548110612a0557fe5b90600052602060002090600902016002015481548110612a2157fe5b906000526020600020906002020160000154820110155b8015612a9f57506001600860008873ffffffffffffffffffffffffffffffffffffffff1673ffffffffffffffffffffffffffffffffffffffff1681526020019081526020016000208681548110612a8b57fe5b906000526020600020906009020160030154145b8015612bdb57508284141580612bda5750612b34612aca60045483870361513b90919063ffffffff16565b600860008973ffffffffffffffffffffffffffffffffffffffff1673ffffffffffffffffffffffffffffffffffffffff1681526020019081526020016000208781548110612b1457fe5b90600052602060002090600902016001015461519b90919063ffffffff16565b600160009054906101000a900473ffffffffffffffffffffffffffffffffffffffff1673ffffffffffffffffffffffffffffffffffffffff1663b81f90f36040518163ffffffff1660e01b815260040160206040518083038186803b158015612b9c57600080fd5b505afa158015612bb0573d6000803e3d6000fd5b505050506040513d6020811015612bc657600080fd5b810190808051906020019092919050505010155b5b915050949350505050565b60096020528160005260406000208181548110612bff57fe5b9060005260206000209060050201600091509150508060000154908060010154908060020154908060030154905084565b6001600860003373ffffffffffffffffffffffffffffffffffffffff1673ffffffffffffffffffffffffffffffffffffffff1681526020019081526020016000208281548110612c7c57fe5b90600052602060002090600902016003015414612ce4576040517f08c379a00000000000000000000000000000000000000000000000000000000081526004018080602001828103825260218152602001806152d46021913960400191505060405180910390fd5b6004600860003373ffffffffffffffffffffffffffffffffffffffff1673ffffffffffffffffffffffffffffffffffffffff1681526020019081526020016000208281548110612d3057fe5b9060005260206000209060090201600301819055506000612d4f614087565b90506000612dd7600454612dc9600354600860003373ffffffffffffffffffffffffffffffffffffffff1673ffffffffffffffffffffffffffffffffffffffff1681526020019081526020016000208781548110612da957fe5b90600052602060002090600902016001015461511b90919063ffffffff16565b61517590919063ffffffff16565b905060006006600860003373ffffffffffffffffffffffffffffffffffffffff1673ffffffffffffffffffffffffffffffffffffffff1681526020019081526020016000208581548110612e2757fe5b90600052602060002090600902016002015481548110612e4357fe5b9060005260206000209060020201600001548201905060006001840190505b818111612f0e57612eea600860003373ffffffffffffffffffffffffffffffffffffffff1673ffffffffffffffffffffffffffffffffffffffff1681526020019081526020016000208681548110612eb657fe5b906000526020600020906009020160000154600a60008481526020019081526020016000205461511b90919063ffffffff16565b600a6000838152602001908152602001600020819055508080600101915050612e62565b50612f17614087565b600860003373ffffffffffffffffffffffffffffffffffffffff1673ffffffffffffffffffffffffffffffffffffffff1681526020019081526020016000208581548110612f6157fe5b9060005260206000209060090201600701819055506018600860003373ffffffffffffffffffffffffffffffffffffffff1673ffffffffffffffffffffffffffffffffffffffff1681526020019081526020016000208581548110612fc257fe5b90600052602060002090600902016008018190555050505050565b6000600860008373ffffffffffffffffffffffffffffffffffffffff1673ffffffffffffffffffffffffffffffffffffffff168152602001908152602001600020805490509050919050565b600080613034614087565b9050600080600090505b84518110156131ad576130668686838151811061305757fe5b60200260200101518586612921565b156131a05761319d61318e600f6131806006600860008c73ffffffffffffffffffffffffffffffffffffffff1673ffffffffffffffffffffffffffffffffffffffff1681526020019081526020016000208a87815181106130c357fe5b6020026020010151815481106130d557fe5b906000526020600020906009020160020154815481106130f157fe5b906000526020600020906002020160010154600860008c73ffffffffffffffffffffffffffffffffffffffff1673ffffffffffffffffffffffffffffffffffffffff1681526020019081526020016000208a878151811061314e57fe5b60200260200101518154811061316057fe5b90600052602060002090600902016000015461513b90919063ffffffff16565b61517590919063ffffffff16565b8361519b90919063ffffffff16565b91505b808060010191505061303e565b506131c260028261517590919063ffffffff16565b9250505092915050565b6000809054906101000a900473ffffffffffffffffffffffffffffffffffffffff1673ffffffffffffffffffffffffffffffffffffffff163373ffffffffffffffffffffffffffffffffffffffff161461328e576040517f08c379a00000000000000000000000000000000000000000000000000000000081526004018080602001828103825260168152602001807f6f6e6c79206465706c6f7965722063616e2063616c6c0000000000000000000081525060200191505060405180910390fd5b60066040518060400160405280848152602001838152509080600181540180825580915050906001820390600052602060002090600202016000909192909190915060008201518160000155602082015181600101555050505050565b600781815481106132f857fe5b90600052602060002090600202016000915090508060000154908060010154905082565b6000613326614087565b9050600080600090505b8351811015613772576133583385838151811061334957fe5b60200260200101518586612921565b156137655761348f613480600f6134726006600860003373ffffffffffffffffffffffffffffffffffffffff1673ffffffffffffffffffffffffffffffffffffffff1681526020019081526020016000208987815181106133b557fe5b6020026020010151815481106133c757fe5b906000526020600020906009020160020154815481106133e357fe5b906000526020600020906002020160010154600860003373ffffffffffffffffffffffffffffffffffffffff1673ffffffffffffffffffffffffffffffffffffffff16815260200190815260200160002089878151811061344057fe5b60200260200101518154811061345257fe5b90600052602060002090600902016000015461513b90919063ffffffff16565b61517590919063ffffffff16565b8361519b90919063ffffffff16565b9150600061352a60045461351c600354600860003373ffffffffffffffffffffffffffffffffffffffff1673ffffffffffffffffffffffffffffffffffffffff1681526020019081526020016000208987815181106134ea57fe5b6020026020010151815481106134fc57fe5b90600052602060002090600902016001015461511b90919063ffffffff16565b61517590919063ffffffff16565b905060006006600860003373ffffffffffffffffffffffffffffffffffffffff1673ffffffffffffffffffffffffffffffffffffffff16815260200190815260200160002087858151811061357b57fe5b60200260200101518154811061358d57fe5b906000526020600020906009020160020154815481106135a957fe5b9060005260206000209060020201600001548201905060006001860190505b818111613619576135f585600a60008481526020019081526020016000205461511b90919063ffffffff16565b600a60008381526020019081526020016000208190555080806001019150506135c8565b506000600190505b6007898154811061362e57fe5b9060005260206000209060020201600001548111613761576001600860003373ffffffffffffffffffffffffffffffffffffffff1673ffffffffffffffffffffffffffffffffffffffff16815260200190815260200160002088868151811061369357fe5b6020026020010151815481106136a557fe5b90600052602060002090600902016006016000838901815260200190815260200160002060006101000a81548160ff0219169083151502179055506002600860003373ffffffffffffffffffffffffffffffffffffffff1673ffffffffffffffffffffffffffffffffffffffff16815260200190815260200160002088868151811061372d57fe5b60200260200101518154811061373f57fe5b9060005260206000209060090201600301819055508080600101915050613621565b5050505b8080600101915050613330565b50600061378960028361517590919063ffffffff16565b9050808511156137eb5760006137ea576040517f08c379a00000000000000000000000000000000000000000000000000000000081526004018080602001828103825260268152602001806152476026913960400191505060405180910390fd5b5b6000613831606461382360078a8154811061380257fe5b9060005260206000209060020201600101548961513b90919063ffffffff16565b61517590919063ffffffff16565b90506000613848828861511b90919063ffffffff16565b9050600160009054906101000a900473ffffffffffffffffffffffffffffffffffffffff1673ffffffffffffffffffffffffffffffffffffffff1663a9059cbb600260009054906101000a900473ffffffffffffffffffffffffffffffffffffffff16846040518363ffffffff1660e01b8152600401808373ffffffffffffffffffffffffffffffffffffffff1673ffffffffffffffffffffffffffffffffffffffff16815260200182815260200192505050602060405180830381600087803b15801561391557600080fd5b505af1158015613929573d6000803e3d6000fd5b505050506040513d602081101561393f57600080fd5b810190808051906020019092919050505061395957600080fd5b600260009054906101000a900473ffffffffffffffffffffffffffffffffffffffff1673ffffffffffffffffffffffffffffffffffffffff1663382e2aab836040518263ffffffff1660e01b815260040180828152602001915050602060405180830381600087803b1580156139ce57600080fd5b505af11580156139e2573d6000803e3d6000fd5b505050506040513d60208110156139f857600080fd5b8101908080519060200190929190505050613a1257600080fd5b600960003373ffffffffffffffffffffffffffffffffffffffff1673ffffffffffffffffffffffffffffffffffffffff1681526020019081526020016000206040518060a00160405280898152602001600160009054906101000a900473ffffffffffffffffffffffffffffffffffffffff1673ffffffffffffffffffffffffffffffffffffffff1663b81f90f36040518163ffffffff1660e01b815260040160206040518083038186803b158015613aca57600080fd5b505afa158015613ade573d6000803e3d6000fd5b505050506040513d6020811015613af457600080fd5b810190808051906020019092919050505081526020018a8152602001600181526020018881525090806001815401808255809150509060018203906000526020600020906005020160009091929091909150600082015181600001556020820151816001015560408201518160020155606082015181600301556080820151816004019080519060200190613b8a9291906151d4565b50505050600160009054906101000a900473ffffffffffffffffffffffffffffffffffffffff1673ffffffffffffffffffffffffffffffffffffffff1663a9059cbb33836040518363ffffffff1660e01b8152600401808373ffffffffffffffffffffffffffffffffffffffff1673ffffffffffffffffffffffffffffffffffffffff16815260200182815260200192505050602060405180830381600087803b158015613c3757600080fd5b505af1158015613c4b573d6000803e3d6000fd5b505050506040513d6020811015613c6157600080fd5b8101908080519060200190929190505050613c7b57600080fd5b873373ffffffffffffffffffffffffffffffffffffffff167f583f4a449110798c282200ea42774808b8147fa4bcb89a6ca406dd0650e034e789856001600960003373ffffffffffffffffffffffffffffffffffffffff1673ffffffffffffffffffffffffffffffffffffffff168152602001908152602001600020805490500360405180848152602001838152602001828152602001935050505060405180910390a35050505050505050565b6000600c60003373ffffffffffffffffffffffffffffffffffffffff1673ffffffffffffffffffffffffffffffffffffffff1681526020019081526020016000205411613d7557600080fd5b6000600c60003373ffffffffffffffffffffffffffffffffffffffff1673ffffffffffffffffffffffffffffffffffffffff1681526020019081526020016000205490506000600c60003373ffffffffffffffffffffffffffffffffffffffff1673ffffffffffffffffffffffffffffffffffffffff16815260200190815260200160002081905550600060068381548110613e0d57fe5b9060005260206000209060020201600001546001613e29614087565b0101905060006001613e39614087565b0190505b81811015613e7f5782600a60008381526020019081526020016000205401600a6000838152602001908152602001600020819055508080600101915050613e3d565b506000600860003373ffffffffffffffffffffffffffffffffffffffff1673ffffffffffffffffffffffffffffffffffffffff168152602001908152602001600020905080604051806101000160405280858152602001600160009054906101000a900473ffffffffffffffffffffffffffffffffffffffff1673ffffffffffffffffffffffffffffffffffffffff1663b81f90f36040518163ffffffff1660e01b815260040160206040518083038186803b158015613f3e57600080fd5b505afa158015613f52573d6000803e3d6000fd5b505050506040513d6020811015613f6857600080fd5b8101908080519060200190929190505050815260200186815260200160018152602001600081526020016000815260200160008152602001600081525090806001815401808255809150509060018203906000526020600020906009020160009091929091909150600082015181600001556020820151816001015560408201518160020155606082015181600301556080820151816004015560a0820151816005015560c0820151816007015560e08201518160080155505050833373ffffffffffffffffffffffffffffffffffffffff167f680a0e2e97ad7c29da7985e37b699f19857c055166f801e50d90661eae30fcc3856001858054905003604051808381526020018281526020019250505060405180910390a350505050565b6000600160058054905003905090565b6001600960003373ffffffffffffffffffffffffffffffffffffffff1673ffffffffffffffffffffffffffffffffffffffff16815260200190815260200160002082815481106140e357fe5b90600052602060002090600502016003015414614168576040517f08c379a000000000000000000000000000000000000000000000000000000000815260040180806020018281038252601c8152602001807f63616e206f6e6c792072657061792070656e64696e67206c6f616e730000000081525060200191505060405180910390fd5b600160009054906101000a900473ffffffffffffffffffffffffffffffffffffffff1673ffffffffffffffffffffffffffffffffffffffff166323b872dd3330600960003373ffffffffffffffffffffffffffffffffffffffff1673ffffffffffffffffffffffffffffffffffffffff16815260200190815260200160002085815481106141f257fe5b9060005260206000209060050201600001546040518463ffffffff1660e01b8152600401808473ffffffffffffffffffffffffffffffffffffffff1673ffffffffffffffffffffffffffffffffffffffff1681526020018373ffffffffffffffffffffffffffffffffffffffff1673ffffffffffffffffffffffffffffffffffffffff1681526020018281526020019350505050602060405180830381600087803b1580156142a057600080fd5b505af11580156142b4573d6000803e3d6000fd5b505050506040513d60208110156142ca57600080fd5b8101908080519060200190929190505050614330576040517f08c379a00000000000000000000000000000000000000000000000000000000081526004018080602001828103825260408152602001806152946040913960400191505060405180910390fd5b6002600960003373ffffffffffffffffffffffffffffffffffffffff1673ffffffffffffffffffffffffffffffffffffffff168152602001908152602001600020828154811061437c57fe5b90600052602060002090600502016003018190555060008090505b600960003373ffffffffffffffffffffffffffffffffffffffff1673ffffffffffffffffffffffffffffffffffffffff16815260200190815260200160002082815481106143e157fe5b90600052602060002090600502016004018054905081101561472d576000600960003373ffffffffffffffffffffffffffffffffffffffff1673ffffffffffffffffffffffffffffffffffffffff168152602001908152602001600020838154811061444957fe5b9060005260206000209060050201600401828154811061446557fe5b906000526020600020015490506001600860003373ffffffffffffffffffffffffffffffffffffffff1673ffffffffffffffffffffffffffffffffffffffff16815260200190815260200160002082815481106144be57fe5b906000526020600020906009020160030181905550600061455960045461454b600354600860003373ffffffffffffffffffffffffffffffffffffffff1673ffffffffffffffffffffffffffffffffffffffff168152602001908152602001600020868154811061452b57fe5b90600052602060002090600902016001015461511b90919063ffffffff16565b61517590919063ffffffff16565b905060006006600860003373ffffffffffffffffffffffffffffffffffffffff1673ffffffffffffffffffffffffffffffffffffffff16815260200190815260200160002084815481106145a957fe5b906000526020600020906009020160020154815481106145c557fe5b90600052602060002090600202016000015482019050600060016145e7614087565b0190505b81811161471c576000600860003373ffffffffffffffffffffffffffffffffffffffff1673ffffffffffffffffffffffffffffffffffffffff168152602001908152602001600020858154811061463e57fe5b9060005260206000209060090201600601600087815260200190815260200160002060006101000a81548160ff0219169083151502179055506146f8600860003373ffffffffffffffffffffffffffffffffffffffff1673ffffffffffffffffffffffffffffffffffffffff16815260200190815260200160002085815481106146c457fe5b906000526020600020906009020160000154600a60008481526020019081526020016000205461519b90919063ffffffff16565b600a60008381526020019081526020016000208190555080806001019150506145eb565b505050508080600101915050614397565b5050565b600160009054906101000a900473ffffffffffffffffffffffffffffffffffffffff1673ffffffffffffffffffffffffffffffffffffffff166323b872dd3330856040518463ffffffff1660e01b8152600401808473ffffffffffffffffffffffffffffffffffffffff1673ffffffffffffffffffffffffffffffffffffffff1681526020018373ffffffffffffffffffffffffffffffffffffffff1673ffffffffffffffffffffffffffffffffffffffff1681526020018281526020019350505050602060405180830381600087803b15801561480e57600080fd5b505af1158015614822573d6000803e3d6000fd5b505050506040513d602081101561483857600080fd5b81019080805190602001909291905050506148bb576040517f08c379a00000000000000000000000000000000000000000000000000000000081526004018080602001828103825260198152602001807f636f756c64206e6f74207472616e7366657220746f6b656e730000000000000081525060200191505060405180910390fd5b6000600682815481106148ca57fe5b90600052602060002090600202016000015460016148e6614087565b01019050600060016148f6614087565b0190505b8181101561493c5783600a60008381526020019081526020016000205401600a60008381526020019081526020016000208190555080806001019150506148fa565b506000600860003373ffffffffffffffffffffffffffffffffffffffff1673ffffffffffffffffffffffffffffffffffffffff168152602001908152602001600020905080604051806101000160405280868152602001600160009054906101000a900473ffffffffffffffffffffffffffffffffffffffff1673ffffffffffffffffffffffffffffffffffffffff1663b81f90f36040518163ffffffff1660e01b815260040160206040518083038186803b1580156149fb57600080fd5b505afa158015614a0f573d6000803e3d6000fd5b505050506040513d6020811015614a2557600080fd5b8101908080519060200190929190505050815260200185815260200160018152602001600081526020016000815260200160008152602001600081525090806001815401808255809150509060018203906000526020600020906009020160009091929091909150600082015181600001556020820151816001015560408201518160020155606082015181600301556080820151816004015560a0820151816005015560c0820151816007015560e08201518160080155505050823373ffffffffffffffffffffffffffffffffffffffff167f680a0e2e97ad7c29da7985e37b699f19857c055166f801e50d90661eae30fcc3866001858054905003604051808381526020018281526020019250505060405180910390a350505050565b60035481565b600260009054906101000a900473ffffffffffffffffffffffffffffffffffffffff1673ffffffffffffffffffffffffffffffffffffffff163373ffffffffffffffffffffffffffffffffffffffff1614614c0d576040517f08c379a00000000000000000000000000000000000000000000000000000000081526004018080602001828103825260198152602001807f6f6e6c79204e5254206d616e616765722063616e2063616c6c0000000000000081525060200191505060405180910390fd5b600581908060018154018082558091505090600182039060005260206000200160009091929091909150555050565b60008090505b8151811015614ff7576003600860003373ffffffffffffffffffffffffffffffffffffffff1673ffffffffffffffffffffffffffffffffffffffff168152602001908152602001600020838381518110614c9857fe5b602002602001015181548110614caa57fe5b9060005260206000209060090201600301819055506000600860003373ffffffffffffffffffffffffffffffffffffffff1673ffffffffffffffffffffffffffffffffffffffff168152602001908152602001600020838381518110614d0c57fe5b602002602001015181548110614d1e57fe5b9060005260206000209060090201600401541115614e97576000600860003373ffffffffffffffffffffffffffffffffffffffff1673ffffffffffffffffffffffffffffffffffffffff168152602001908152602001600020838381518110614d8357fe5b602002602001015181548110614d9557fe5b90600052602060002090600902016004015490506000600860003373ffffffffffffffffffffffffffffffffffffffff1673ffffffffffffffffffffffffffffffffffffffff168152602001908152602001600020848481518110614df657fe5b602002602001015181548110614e0857fe5b906000526020600020906009020160040181905550614e9581600860003373ffffffffffffffffffffffffffffffffffffffff1673ffffffffffffffffffffffffffffffffffffffff168152602001908152602001600020858581518110614e6c57fe5b602002602001015181548110614e7e57fe5b906000526020600020906009020160020154614731565b505b600160009054906101000a900473ffffffffffffffffffffffffffffffffffffffff1673ffffffffffffffffffffffffffffffffffffffff1663a9059cbb33600860003373ffffffffffffffffffffffffffffffffffffffff1673ffffffffffffffffffffffffffffffffffffffff168152602001908152602001600020858581518110614f2157fe5b602002602001015181548110614f3357fe5b9060005260206000209060090201600001546040518363ffffffff1660e01b8152600401808373ffffffffffffffffffffffffffffffffffffffff1673ffffffffffffffffffffffffffffffffffffffff16815260200182815260200192505050602060405180830381600087803b158015614fae57600080fd5b505af1158015614fc2573d6000803e3d6000fd5b505050506040513d6020811015614fd857600080fd5b8101908080519060200190929190505050508080600101915050614c42565b5050565b600080615006614087565b9050600080600090505b600860008773ffffffffffffffffffffffffffffffffffffffff1673ffffffffffffffffffffffffffffffffffffffff168152602001908152602001600020805490508110156150e95761506686828588612921565b156150dc576150d9600860008873ffffffffffffffffffffffffffffffffffffffff1673ffffffffffffffffffffffffffffffffffffffff16815260200190815260200160002082815481106150b857fe5b9060005260206000209060090201600001548361519b90919063ffffffff16565b91505b8080600101915050615010565b50809250505092915050565b600160009054906101000a900473ffffffffffffffffffffffffffffffffffffffff1681565b60008282111561512a57600080fd5b600082840390508091505092915050565b60008083141561514e576000905061516f565b600082840290508284828161515f57fe5b041461516a57600080fd5b809150505b92915050565b600080821161518357600080fd5b600082848161518e57fe5b0490508091505092915050565b6000808284019050838110156151b057600080fd5b8091505092915050565b604051806040016040528060008152602001600081525090565b828054828255906000526020600020908101928215615210579160200282015b8281111561520f5782518255916020019190600101906151f4565b5b50905061521d9190615221565b5090565b61524391905b8082111561523f576000816000905550600101615227565b5090565b9056fe63616e6e6f74206c6f616e206d6f7265207468616e206d61784c6f616e696e67416d6f756e746163637275656450657263656e746167652073686f756c64206265206174206c6561737420353063616e6e6f74207265636569766520656e6f75676820746f6b656e732c20706c6561736520636865636b20696620616c6c6f77616e6365206973207468657265746f2063616e73616c2c207374616b696e67206d75737420626520616374697665746f74616c20616374697665207374616b696e67732073686f756c64206265206e6f6e207a65726fa265627a7a72305820b9053bc3d1a5d38f9c113c62c882d65f020bea765220c96b3cf6bcfbb30e212064736f6c634300050a0032","opcodes":"PUSH1 0x80 PUSH1 0x40 MSTORE PUSH3 0x282070 PUSH1 0x4 SSTORE CALLVALUE DUP1 ISZERO PUSH3 0x18 JUMPI PUSH1 0x0 DUP1 REVERT JUMPDEST POP PUSH1 0x40 MLOAD PUSH3 0x5557 CODESIZE SUB DUP1 PUSH3 0x5557 DUP4 CODECOPY DUP2 DUP2 ADD PUSH1 0x40 MSTORE PUSH1 0x40 DUP2 LT ISZERO PUSH3 0x3E JUMPI PUSH1 0x0 DUP1 REVERT JUMPDEST DUP2 ADD SWAP1 DUP1 DUP1 MLOAD SWAP1 PUSH1 0x20 ADD SWAP1 SWAP3 SWAP2 SWAP1 DUP1 MLOAD SWAP1 PUSH1 0x20 ADD SWAP1 SWAP3 SWAP2 SWAP1 POP POP POP CALLER PUSH1 0x0 DUP1 PUSH2 0x100 EXP DUP2 SLOAD DUP2 PUSH20 0xFFFFFFFFFFFFFFFFFFFFFFFFFFFFFFFFFFFFFFFF MUL NOT AND SWAP1 DUP4 PUSH20 0xFFFFFFFFFFFFFFFFFFFFFFFFFFFFFFFFFFFFFFFF AND MUL OR SWAP1 SSTORE POP DUP2 PUSH1 0x1 PUSH1 0x0 PUSH2 0x100 EXP DUP2 SLOAD DUP2 PUSH20 0xFFFFFFFFFFFFFFFFFFFFFFFFFFFFFFFFFFFFFFFF MUL NOT AND SWAP1 DUP4 PUSH20 0xFFFFFFFFFFFFFFFFFFFFFFFFFFFFFFFFFFFFFFFF AND MUL OR SWAP1 SSTORE POP DUP1 PUSH1 0x2 PUSH1 0x0 PUSH2 0x100 EXP DUP2 SLOAD DUP2 PUSH20 0xFFFFFFFFFFFFFFFFFFFFFFFFFFFFFFFFFFFFFFFF MUL NOT AND SWAP1 DUP4 PUSH20 0xFFFFFFFFFFFFFFFFFFFFFFFFFFFFFFFFFFFFFFFF AND MUL OR SWAP1 SSTORE POP PUSH1 0x1 PUSH1 0x0 SWAP1 SLOAD SWAP1 PUSH2 0x100 EXP SWAP1 DIV PUSH20 0xFFFFFFFFFFFFFFFFFFFFFFFFFFFFFFFFFFFFFFFF AND PUSH20 0xFFFFFFFFFFFFFFFFFFFFFFFFFFFFFFFFFFFFFFFF AND PUSH4 0xB81F90F3 PUSH1 0x40 MLOAD DUP2 PUSH4 0xFFFFFFFF AND PUSH1 0xE0 SHL DUP2 MSTORE PUSH1 0x4 ADD PUSH1 0x20 PUSH1 0x40 MLOAD DUP1 DUP4 SUB DUP2 DUP7 DUP1 EXTCODESIZE ISZERO DUP1 ISZERO PUSH3 0x184 JUMPI PUSH1 0x0 DUP1 REVERT JUMPDEST POP GAS STATICCALL ISZERO DUP1 ISZERO PUSH3 0x199 JUMPI RETURNDATASIZE PUSH1 0x0 DUP1 RETURNDATACOPY RETURNDATASIZE PUSH1 0x0 REVERT JUMPDEST POP POP POP POP PUSH1 0x40 MLOAD RETURNDATASIZE PUSH1 0x20 DUP2 LT ISZERO PUSH3 0x1B0 JUMPI PUSH1 0x0 DUP1 REVERT JUMPDEST DUP2 ADD SWAP1 DUP1 DUP1 MLOAD SWAP1 PUSH1 0x20 ADD SWAP1 SWAP3 SWAP2 SWAP1 POP POP POP PUSH1 0x3 DUP2 SWAP1 SSTORE POP PUSH1 0x5 PUSH1 0x0 SWAP1 DUP1 PUSH1 0x1 DUP2 SLOAD ADD DUP1 DUP3 SSTORE DUP1 SWAP2 POP POP SWAP1 PUSH1 0x1 DUP3 SUB SWAP1 PUSH1 0x0 MSTORE PUSH1 0x20 PUSH1 0x0 KECCAK256 ADD PUSH1 0x0 SWAP1 SWAP2 SWAP3 SWAP1 SWAP2 SWAP1 SWAP2 POP SSTORE POP POP POP PUSH2 0x5351 DUP1 PUSH3 0x206 PUSH1 0x0 CODECOPY PUSH1 0x0 RETURN INVALID PUSH1 0x80 PUSH1 0x40 MSTORE CALLVALUE DUP1 ISZERO PUSH2 0x10 JUMPI PUSH1 0x0 DUP1 REVERT JUMPDEST POP PUSH1 0x4 CALLDATASIZE LT PUSH2 0x21C JUMPI PUSH1 0x0 CALLDATALOAD PUSH1 0xE0 SHR DUP1 PUSH4 0x8DA5CB5B GT PUSH2 0x125 JUMPI DUP1 PUSH4 0xDA9D8AA0 GT PUSH2 0xAD JUMPI DUP1 PUSH4 0xE6BBE424 GT PUSH2 0x7C JUMPI DUP1 PUSH4 0xE6BBE424 EQ PUSH2 0xC8F JUMPI DUP1 PUSH4 0xE78C81C4 EQ PUSH2 0xCAD JUMPI DUP1 PUSH4 0xE83F7843 EQ PUSH2 0xCDB JUMPI DUP1 PUSH4 0xEB12F7F5 EQ PUSH2 0xD93 JUMPI DUP1 PUSH4 0xFC0C546A EQ PUSH2 0xDF5 JUMPI PUSH2 0x21C JUMP JUMPDEST DUP1 PUSH4 0xDA9D8AA0 EQ PUSH2 0xBDD JUMPI DUP1 PUSH4 0xDDD1B67E EQ PUSH2 0xC0B JUMPI DUP1 PUSH4 0xDEA6CF43 EQ PUSH2 0xC29 JUMPI DUP1 PUSH4 0xE5FD04E6 EQ PUSH2 0xC57 JUMPI PUSH2 0x21C JUMP JUMPDEST DUP1 PUSH4 0xAD998FA0 GT PUSH2 0xF4 JUMPI DUP1 PUSH4 0xAD998FA0 EQ PUSH2 0x94C JUMPI DUP1 PUSH4 0xBE4AD9C3 EQ PUSH2 0x9A4 JUMPI DUP1 PUSH4 0xC71D5D58 EQ PUSH2 0xA90 JUMPI DUP1 PUSH4 0xCC44A2FD EQ PUSH2 0xAC8 JUMPI DUP1 PUSH4 0xD0E32681 EQ PUSH2 0xB11 JUMPI PUSH2 0x21C JUMP JUMPDEST DUP1 PUSH4 0x8DA5CB5B EQ PUSH2 0x7E3 JUMPI DUP1 PUSH4 0x97A332D8 EQ PUSH2 0x82D JUMPI DUP1 PUSH4 0x98C61C37 EQ PUSH2 0x8A7 JUMPI DUP1 PUSH4 0x9AB0388B EQ PUSH2 0x91E JUMPI PUSH2 0x21C JUMP JUMPDEST DUP1 PUSH4 0x46A4D6E3 GT PUSH2 0x1A8 JUMPI DUP1 PUSH4 0x582E7E9E GT PUSH2 0x177 JUMPI DUP1 PUSH4 0x582E7E9E EQ PUSH2 0x62A JUMPI DUP1 PUSH4 0x59DCC8C5 EQ PUSH2 0x648 JUMPI DUP1 PUSH4 0x762E7A34 EQ PUSH2 0x70A JUMPI DUP1 PUSH4 0x7ACAB857 EQ PUSH2 0x753 JUMPI DUP1 PUSH4 0x82F97857 EQ PUSH2 0x7AB JUMPI PUSH2 0x21C JUMP JUMPDEST DUP1 PUSH4 0x46A4D6E3 EQ PUSH2 0x4D6 JUMPI DUP1 PUSH4 0x497EC40F EQ PUSH2 0x55B JUMPI DUP1 PUSH4 0x4EC0692C EQ PUSH2 0x5BA JUMPI DUP1 PUSH4 0x53FCB2F3 EQ PUSH2 0x5FC JUMPI PUSH2 0x21C JUMP JUMPDEST DUP1 PUSH4 0x23A15E6B GT PUSH2 0x1EF JUMPI DUP1 PUSH4 0x23A15E6B EQ PUSH2 0x34A JUMPI DUP1 PUSH4 0x2F3B59EA EQ PUSH2 0x38C JUMPI DUP1 PUSH4 0x35F406AB EQ PUSH2 0x3EE JUMPI DUP1 PUSH4 0x3D5D6B5A EQ PUSH2 0x43C JUMPI DUP1 PUSH4 0x41927861 EQ PUSH2 0x474 JUMPI PUSH2 0x21C JUMP JUMPDEST DUP1 PUSH4 0x70B8195 EQ PUSH2 0x221 JUMPI DUP1 PUSH4 0xDF5202F EQ PUSH2 0x23F JUMPI DUP1 PUSH4 0x1849D8EA EQ PUSH2 0x289 JUMPI DUP1 PUSH4 0x217D65FB EQ PUSH2 0x31C JUMPI JUMPDEST PUSH1 0x0 DUP1 REVERT JUMPDEST PUSH2 0x229 PUSH2 0xE3F JUMP JUMPDEST PUSH1 0x40 MLOAD DUP1 DUP3 DUP2 MSTORE PUSH1 0x20 ADD SWAP2 POP POP PUSH1 0x40 MLOAD DUP1 SWAP2 SUB SWAP1 RETURN JUMPDEST PUSH2 0x247 PUSH2 0xE45 JUMP JUMPDEST PUSH1 0x40 MLOAD DUP1 DUP3 PUSH20 0xFFFFFFFFFFFFFFFFFFFFFFFFFFFFFFFFFFFFFFFF AND PUSH20 0xFFFFFFFFFFFFFFFFFFFFFFFFFFFFFFFFFFFFFFFF AND DUP2 MSTORE PUSH1 0x20 ADD SWAP2 POP POP PUSH1 0x40 MLOAD DUP1 SWAP2 SUB SWAP1 RETURN JUMPDEST PUSH2 0x2D5 PUSH1 0x4 DUP1 CALLDATASIZE SUB PUSH1 0x40 DUP2 LT ISZERO PUSH2 0x29F JUMPI PUSH1 0x0 DUP1 REVERT JUMPDEST DUP2 ADD SWAP1 DUP1 DUP1 CALLDATALOAD PUSH20 0xFFFFFFFFFFFFFFFFFFFFFFFFFFFFFFFFFFFFFFFF AND SWAP1 PUSH1 0x20 ADD SWAP1 SWAP3 SWAP2 SWAP1 DUP1 CALLDATALOAD SWAP1 PUSH1 0x20 ADD SWAP1 SWAP3 SWAP2 SWAP1 POP POP POP PUSH2 0xE6B JUMP JUMPDEST PUSH1 0x40 MLOAD DUP1 DUP10 DUP2 MSTORE PUSH1 0x20 ADD DUP9 DUP2 MSTORE PUSH1 0x20 ADD DUP8 DUP2 MSTORE PUSH1 0x20 ADD DUP7 DUP2 MSTORE PUSH1 0x20 ADD DUP6 DUP2 MSTORE PUSH1 0x20 ADD DUP5 DUP2 MSTORE PUSH1 0x20 ADD DUP4 DUP2 MSTORE PUSH1 0x20 ADD DUP3 DUP2 MSTORE PUSH1 0x20 ADD SWAP9 POP POP POP POP POP POP POP POP POP PUSH1 0x40 MLOAD DUP1 SWAP2 SUB SWAP1 RETURN JUMPDEST PUSH2 0x348 PUSH1 0x4 DUP1 CALLDATASIZE SUB PUSH1 0x20 DUP2 LT ISZERO PUSH2 0x332 JUMPI PUSH1 0x0 DUP1 REVERT JUMPDEST DUP2 ADD SWAP1 DUP1 DUP1 CALLDATALOAD SWAP1 PUSH1 0x20 ADD SWAP1 SWAP3 SWAP2 SWAP1 POP POP POP PUSH2 0xECD JUMP JUMPDEST STOP JUMPDEST PUSH2 0x376 PUSH1 0x4 DUP1 CALLDATASIZE SUB PUSH1 0x20 DUP2 LT ISZERO PUSH2 0x360 JUMPI PUSH1 0x0 DUP1 REVERT JUMPDEST DUP2 ADD SWAP1 DUP1 DUP1 CALLDATALOAD SWAP1 PUSH1 0x20 ADD SWAP1 SWAP3 SWAP2 SWAP1 POP POP POP PUSH2 0x1453 JUMP JUMPDEST PUSH1 0x40 MLOAD DUP1 DUP3 DUP2 MSTORE PUSH1 0x20 ADD SWAP2 POP POP PUSH1 0x40 MLOAD DUP1 SWAP2 SUB SWAP1 RETURN JUMPDEST PUSH2 0x3D8 PUSH1 0x4 DUP1 CALLDATASIZE SUB PUSH1 0x40 DUP2 LT ISZERO PUSH2 0x3A2 JUMPI PUSH1 0x0 DUP1 REVERT JUMPDEST DUP2 ADD SWAP1 DUP1 DUP1 CALLDATALOAD PUSH20 0xFFFFFFFFFFFFFFFFFFFFFFFFFFFFFFFFFFFFFFFF AND SWAP1 PUSH1 0x20 ADD SWAP1 SWAP3 SWAP2 SWAP1 DUP1 CALLDATALOAD SWAP1 PUSH1 0x20 ADD SWAP1 SWAP3 SWAP2 SWAP1 POP POP POP PUSH2 0x1474 JUMP JUMPDEST PUSH1 0x40 MLOAD DUP1 DUP3 DUP2 MSTORE PUSH1 0x20 ADD SWAP2 POP POP PUSH1 0x40 MLOAD DUP1 SWAP2 SUB SWAP1 RETURN JUMPDEST PUSH2 0x43A PUSH1 0x4 DUP1 CALLDATASIZE SUB PUSH1 0x80 DUP2 LT ISZERO PUSH2 0x404 JUMPI PUSH1 0x0 DUP1 REVERT JUMPDEST DUP2 ADD SWAP1 DUP1 DUP1 CALLDATALOAD SWAP1 PUSH1 0x20 ADD SWAP1 SWAP3 SWAP2 SWAP1 DUP1 CALLDATALOAD SWAP1 PUSH1 0x20 ADD SWAP1 SWAP3 SWAP2 SWAP1 DUP1 CALLDATALOAD ISZERO ISZERO SWAP1 PUSH1 0x20 ADD SWAP1 SWAP3 SWAP2 SWAP1 DUP1 CALLDATALOAD SWAP1 PUSH1 0x20 ADD SWAP1 SWAP3 SWAP2 SWAP1 POP POP POP PUSH2 0x17A5 JUMP JUMPDEST STOP JUMPDEST PUSH2 0x472 PUSH1 0x4 DUP1 CALLDATASIZE SUB PUSH1 0x40 DUP2 LT ISZERO PUSH2 0x452 JUMPI PUSH1 0x0 DUP1 REVERT JUMPDEST DUP2 ADD SWAP1 DUP1 DUP1 CALLDATALOAD SWAP1 PUSH1 0x20 ADD SWAP1 SWAP3 SWAP2 SWAP1 DUP1 CALLDATALOAD SWAP1 PUSH1 0x20 ADD SWAP1 SWAP3 SWAP2 SWAP1 POP POP POP PUSH2 0x1E4D JUMP JUMPDEST STOP JUMPDEST PUSH2 0x4C0 PUSH1 0x4 DUP1 CALLDATASIZE SUB PUSH1 0x40 DUP2 LT ISZERO PUSH2 0x48A JUMPI PUSH1 0x0 DUP1 REVERT JUMPDEST DUP2 ADD SWAP1 DUP1 DUP1 CALLDATALOAD PUSH20 0xFFFFFFFFFFFFFFFFFFFFFFFFFFFFFFFFFFFFFFFF AND SWAP1 PUSH1 0x20 ADD SWAP1 SWAP3 SWAP2 SWAP1 DUP1 CALLDATALOAD SWAP1 PUSH1 0x20 ADD SWAP1 SWAP3 SWAP2 SWAP1 POP POP POP PUSH2 0x1F85 JUMP JUMPDEST PUSH1 0x40 MLOAD DUP1 DUP3 DUP2 MSTORE PUSH1 0x20 ADD SWAP2 POP POP PUSH1 0x40 MLOAD DUP1 SWAP2 SUB SWAP1 RETURN JUMPDEST PUSH2 0x522 PUSH1 0x4 DUP1 CALLDATASIZE SUB PUSH1 0x40 DUP2 LT ISZERO PUSH2 0x4EC JUMPI PUSH1 0x0 DUP1 REVERT JUMPDEST DUP2 ADD SWAP1 DUP1 DUP1 CALLDATALOAD PUSH20 0xFFFFFFFFFFFFFFFFFFFFFFFFFFFFFFFFFFFFFFFF AND SWAP1 PUSH1 0x20 ADD SWAP1 SWAP3 SWAP2 SWAP1 DUP1 CALLDATALOAD SWAP1 PUSH1 0x20 ADD SWAP1 SWAP3 SWAP2 SWAP1 POP POP POP PUSH2 0x211D JUMP JUMPDEST PUSH1 0x40 MLOAD DUP1 DUP8 DUP2 MSTORE PUSH1 0x20 ADD DUP7 DUP2 MSTORE PUSH1 0x20 ADD DUP6 DUP2 MSTORE PUSH1 0x20 ADD DUP5 DUP2 MSTORE PUSH1 0x20 ADD DUP4 DUP2 MSTORE PUSH1 0x20 ADD DUP3 DUP2 MSTORE PUSH1 0x20 ADD SWAP7 POP POP POP POP POP POP POP PUSH1 0x40 MLOAD DUP1 SWAP2 SUB SWAP1 RETURN JUMPDEST PUSH2 0x563 PUSH2 0x2364 JUMP JUMPDEST PUSH1 0x40 MLOAD DUP1 DUP1 PUSH1 0x20 ADD DUP3 DUP2 SUB DUP3 MSTORE DUP4 DUP2 DUP2 MLOAD DUP2 MSTORE PUSH1 0x20 ADD SWAP2 POP DUP1 MLOAD SWAP1 PUSH1 0x20 ADD SWAP1 PUSH1 0x20 MUL DUP1 DUP4 DUP4 PUSH1 0x0 JUMPDEST DUP4 DUP2 LT ISZERO PUSH2 0x5A6 JUMPI DUP1 DUP3 ADD MLOAD DUP2 DUP5 ADD MSTORE PUSH1 0x20 DUP2 ADD SWAP1 POP PUSH2 0x58B JUMP JUMPDEST POP POP POP POP SWAP1 POP ADD SWAP3 POP POP POP PUSH1 0x40 MLOAD DUP1 SWAP2 SUB SWAP1 RETURN JUMPDEST PUSH2 0x5E6 PUSH1 0x4 DUP1 CALLDATASIZE SUB PUSH1 0x20 DUP2 LT ISZERO PUSH2 0x5D0 JUMPI PUSH1 0x0 DUP1 REVERT JUMPDEST DUP2 ADD SWAP1 DUP1 DUP1 CALLDATALOAD SWAP1 PUSH1 0x20 ADD SWAP1 SWAP3 SWAP2 SWAP1 POP POP POP PUSH2 0x23BC JUMP JUMPDEST PUSH1 0x40 MLOAD DUP1 DUP3 DUP2 MSTORE PUSH1 0x20 ADD SWAP2 POP POP PUSH1 0x40 MLOAD DUP1 SWAP2 SUB SWAP1 RETURN JUMPDEST PUSH2 0x628 PUSH1 0x4 DUP1 CALLDATASIZE SUB PUSH1 0x20 DUP2 LT ISZERO PUSH2 0x612 JUMPI PUSH1 0x0 DUP1 REVERT JUMPDEST DUP2 ADD SWAP1 DUP1 DUP1 CALLDATALOAD SWAP1 PUSH1 0x20 ADD SWAP1 SWAP3 SWAP2 SWAP1 POP POP POP PUSH2 0x23D4 JUMP JUMPDEST STOP JUMPDEST PUSH2 0x632 PUSH2 0x25D5 JUMP JUMPDEST PUSH1 0x40 MLOAD DUP1 DUP3 DUP2 MSTORE PUSH1 0x20 ADD SWAP2 POP POP PUSH1 0x40 MLOAD DUP1 SWAP2 SUB SWAP1 RETURN JUMPDEST PUSH2 0x708 PUSH1 0x4 DUP1 CALLDATASIZE SUB PUSH1 0x40 DUP2 LT ISZERO PUSH2 0x65E JUMPI PUSH1 0x0 DUP1 REVERT JUMPDEST DUP2 ADD SWAP1 DUP1 DUP1 CALLDATALOAD SWAP1 PUSH1 0x20 ADD SWAP1 PUSH5 0x100000000 DUP2 GT ISZERO PUSH2 0x67B JUMPI PUSH1 0x0 DUP1 REVERT JUMPDEST DUP3 ADD DUP4 PUSH1 0x20 DUP3 ADD GT ISZERO PUSH2 0x68D JUMPI PUSH1 0x0 DUP1 REVERT JUMPDEST DUP1 CALLDATALOAD SWAP1 PUSH1 0x20 ADD SWAP2 DUP5 PUSH1 0x20 DUP4 MUL DUP5 ADD GT PUSH5 0x100000000 DUP4 GT OR ISZERO PUSH2 0x6AF JUMPI PUSH1 0x0 DUP1 REVERT JUMPDEST SWAP2 SWAP1 DUP1 DUP1 PUSH1 0x20 MUL PUSH1 0x20 ADD PUSH1 0x40 MLOAD SWAP1 DUP2 ADD PUSH1 0x40 MSTORE DUP1 SWAP4 SWAP3 SWAP2 SWAP1 DUP2 DUP2 MSTORE PUSH1 0x20 ADD DUP4 DUP4 PUSH1 0x20 MUL DUP1 DUP3 DUP5 CALLDATACOPY PUSH1 0x0 DUP2 DUP5 ADD MSTORE PUSH1 0x1F NOT PUSH1 0x1F DUP3 ADD AND SWAP1 POP DUP1 DUP4 ADD SWAP3 POP POP POP POP POP POP POP SWAP2 SWAP3 SWAP2 SWAP3 SWAP1 DUP1 CALLDATALOAD SWAP1 PUSH1 0x20 ADD SWAP1 SWAP3 SWAP2 SWAP1 POP POP POP PUSH2 0x25DB JUMP JUMPDEST STOP JUMPDEST PUSH2 0x736 PUSH1 0x4 DUP1 CALLDATASIZE SUB PUSH1 0x20 DUP2 LT ISZERO PUSH2 0x720 JUMPI PUSH1 0x0 DUP1 REVERT JUMPDEST DUP2 ADD SWAP1 DUP1 DUP1 CALLDATALOAD SWAP1 PUSH1 0x20 ADD SWAP1 SWAP3 SWAP2 SWAP1 POP POP POP PUSH2 0x2794 JUMP JUMPDEST PUSH1 0x40 MLOAD DUP1 DUP4 DUP2 MSTORE PUSH1 0x20 ADD DUP3 DUP2 MSTORE PUSH1 0x20 ADD SWAP3 POP POP POP PUSH1 0x40 MLOAD DUP1 SWAP2 SUB SWAP1 RETURN JUMPDEST PUSH2 0x795 PUSH1 0x4 DUP1 CALLDATASIZE SUB PUSH1 0x20 DUP2 LT ISZERO PUSH2 0x769 JUMPI PUSH1 0x0 DUP1 REVERT JUMPDEST DUP2 ADD SWAP1 DUP1 DUP1 CALLDATALOAD PUSH20 0xFFFFFFFFFFFFFFFFFFFFFFFFFFFFFFFFFFFFFFFF AND SWAP1 PUSH1 0x20 ADD SWAP1 SWAP3 SWAP2 SWAP1 POP POP POP PUSH2 0x27C5 JUMP JUMPDEST PUSH1 0x40 MLOAD DUP1 DUP3 DUP2 MSTORE PUSH1 0x20 ADD SWAP2 POP POP PUSH1 0x40 MLOAD DUP1 SWAP2 SUB SWAP1 RETURN JUMPDEST PUSH2 0x7E1 PUSH1 0x4 DUP1 CALLDATASIZE SUB PUSH1 0x40 DUP2 LT ISZERO PUSH2 0x7C1 JUMPI PUSH1 0x0 DUP1 REVERT JUMPDEST DUP2 ADD SWAP1 DUP1 DUP1 CALLDATALOAD SWAP1 PUSH1 0x20 ADD SWAP1 SWAP3 SWAP2 SWAP1 DUP1 CALLDATALOAD SWAP1 PUSH1 0x20 ADD SWAP1 SWAP3 SWAP2 SWAP1 POP POP POP PUSH2 0x27DD JUMP JUMPDEST STOP JUMPDEST PUSH2 0x7EB PUSH2 0x28FC JUMP JUMPDEST PUSH1 0x40 MLOAD DUP1 DUP3 PUSH20 0xFFFFFFFFFFFFFFFFFFFFFFFFFFFFFFFFFFFFFFFF AND PUSH20 0xFFFFFFFFFFFFFFFFFFFFFFFFFFFFFFFFFFFFFFFF AND DUP2 MSTORE PUSH1 0x20 ADD SWAP2 POP POP PUSH1 0x40 MLOAD DUP1 SWAP2 SUB SWAP1 RETURN JUMPDEST PUSH2 0x88D PUSH1 0x4 DUP1 CALLDATASIZE SUB PUSH1 0x80 DUP2 LT ISZERO PUSH2 0x843 JUMPI PUSH1 0x0 DUP1 REVERT JUMPDEST DUP2 ADD SWAP1 DUP1 DUP1 CALLDATALOAD PUSH20 0xFFFFFFFFFFFFFFFFFFFFFFFFFFFFFFFFFFFFFFFF AND SWAP1 PUSH1 0x20 ADD SWAP1 SWAP3 SWAP2 SWAP1 DUP1 CALLDATALOAD SWAP1 PUSH1 0x20 ADD SWAP1 SWAP3 SWAP2 SWAP1 DUP1 CALLDATALOAD SWAP1 PUSH1 0x20 ADD SWAP1 SWAP3 SWAP2 SWAP1 DUP1 CALLDATALOAD SWAP1 PUSH1 0x20 ADD SWAP1 SWAP3 SWAP2 SWAP1 POP POP POP PUSH2 0x2921 JUMP JUMPDEST PUSH1 0x40 MLOAD DUP1 DUP3 ISZERO ISZERO ISZERO ISZERO DUP2 MSTORE PUSH1 0x20 ADD SWAP2 POP POP PUSH1 0x40 MLOAD DUP1 SWAP2 SUB SWAP1 RETURN JUMPDEST PUSH2 0x8F3 PUSH1 0x4 DUP1 CALLDATASIZE SUB PUSH1 0x40 DUP2 LT ISZERO PUSH2 0x8BD JUMPI PUSH1 0x0 DUP1 REVERT JUMPDEST DUP2 ADD SWAP1 DUP1 DUP1 CALLDATALOAD PUSH20 0xFFFFFFFFFFFFFFFFFFFFFFFFFFFFFFFFFFFFFFFF AND SWAP1 PUSH1 0x20 ADD SWAP1 SWAP3 SWAP2 SWAP1 DUP1 CALLDATALOAD SWAP1 PUSH1 0x20 ADD SWAP1 SWAP3 SWAP2 SWAP1 POP POP POP PUSH2 0x2BE6 JUMP JUMPDEST PUSH1 0x40 MLOAD DUP1 DUP6 DUP2 MSTORE PUSH1 0x20 ADD DUP5 DUP2 MSTORE PUSH1 0x20 ADD DUP4 DUP2 MSTORE PUSH1 0x20 ADD DUP3 DUP2 MSTORE PUSH1 0x20 ADD SWAP5 POP POP POP POP POP PUSH1 0x40 MLOAD DUP1 SWAP2 SUB SWAP1 RETURN JUMPDEST PUSH2 0x94A PUSH1 0x4 DUP1 CALLDATASIZE SUB PUSH1 0x20 DUP2 LT ISZERO PUSH2 0x934 JUMPI PUSH1 0x0 DUP1 REVERT JUMPDEST DUP2 ADD SWAP1 DUP1 DUP1 CALLDATALOAD SWAP1 PUSH1 0x20 ADD SWAP1 SWAP3 SWAP2 SWAP1 POP POP POP PUSH2 0x2C30 JUMP JUMPDEST STOP JUMPDEST PUSH2 0x98E PUSH1 0x4 DUP1 CALLDATASIZE SUB PUSH1 0x20 DUP2 LT ISZERO PUSH2 0x962 JUMPI PUSH1 0x0 DUP1 REVERT JUMPDEST DUP2 ADD SWAP1 DUP1 DUP1 CALLDATALOAD PUSH20 0xFFFFFFFFFFFFFFFFFFFFFFFFFFFFFFFFFFFFFFFF AND SWAP1 PUSH1 0x20 ADD SWAP1 SWAP3 SWAP2 SWAP1 POP POP POP PUSH2 0x2FDD JUMP JUMPDEST PUSH1 0x40 MLOAD DUP1 DUP3 DUP2 MSTORE PUSH1 0x20 ADD SWAP2 POP POP PUSH1 0x40 MLOAD DUP1 SWAP2 SUB SWAP1 RETURN JUMPDEST PUSH2 0xA7A PUSH1 0x4 DUP1 CALLDATASIZE SUB PUSH1 0x40 DUP2 LT ISZERO PUSH2 0x9BA JUMPI PUSH1 0x0 DUP1 REVERT JUMPDEST DUP2 ADD SWAP1 DUP1 DUP1 CALLDATALOAD PUSH20 0xFFFFFFFFFFFFFFFFFFFFFFFFFFFFFFFFFFFFFFFF AND SWAP1 PUSH1 0x20 ADD SWAP1 SWAP3 SWAP2 SWAP1 DUP1 CALLDATALOAD SWAP1 PUSH1 0x20 ADD SWAP1 PUSH5 0x100000000 DUP2 GT ISZERO PUSH2 0x9F7 JUMPI PUSH1 0x0 DUP1 REVERT JUMPDEST DUP3 ADD DUP4 PUSH1 0x20 DUP3 ADD GT ISZERO PUSH2 0xA09 JUMPI PUSH1 0x0 DUP1 REVERT JUMPDEST DUP1 CALLDATALOAD SWAP1 PUSH1 0x20 ADD SWAP2 DUP5 PUSH1 0x20 DUP4 MUL DUP5 ADD GT PUSH5 0x100000000 DUP4 GT OR ISZERO PUSH2 0xA2B JUMPI PUSH1 0x0 DUP1 REVERT JUMPDEST SWAP2 SWAP1 DUP1 DUP1 PUSH1 0x20 MUL PUSH1 0x20 ADD PUSH1 0x40 MLOAD SWAP1 DUP2 ADD PUSH1 0x40 MSTORE DUP1 SWAP4 SWAP3 SWAP2 SWAP1 DUP2 DUP2 MSTORE PUSH1 0x20 ADD DUP4 DUP4 PUSH1 0x20 MUL DUP1 DUP3 DUP5 CALLDATACOPY PUSH1 0x0 DUP2 DUP5 ADD MSTORE PUSH1 0x1F NOT PUSH1 0x1F DUP3 ADD AND SWAP1 POP DUP1 DUP4 ADD SWAP3 POP POP POP POP POP POP POP SWAP2 SWAP3 SWAP2 SWAP3 SWAP1 POP POP POP PUSH2 0x3029 JUMP JUMPDEST PUSH1 0x40 MLOAD DUP1 DUP3 DUP2 MSTORE PUSH1 0x20 ADD SWAP2 POP POP PUSH1 0x40 MLOAD DUP1 SWAP2 SUB SWAP1 RETURN JUMPDEST PUSH2 0xAC6 PUSH1 0x4 DUP1 CALLDATASIZE SUB PUSH1 0x40 DUP2 LT ISZERO PUSH2 0xAA6 JUMPI PUSH1 0x0 DUP1 REVERT JUMPDEST DUP2 ADD SWAP1 DUP1 DUP1 CALLDATALOAD SWAP1 PUSH1 0x20 ADD SWAP1 SWAP3 SWAP2 SWAP1 DUP1 CALLDATALOAD SWAP1 PUSH1 0x20 ADD SWAP1 SWAP3 SWAP2 SWAP1 POP POP POP PUSH2 0x31CC JUMP JUMPDEST STOP JUMPDEST PUSH2 0xAF4 PUSH1 0x4 DUP1 CALLDATASIZE SUB PUSH1 0x20 DUP2 LT ISZERO PUSH2 0xADE JUMPI PUSH1 0x0 DUP1 REVERT JUMPDEST DUP2 ADD SWAP1 DUP1 DUP1 CALLDATALOAD SWAP1 PUSH1 0x20 ADD SWAP1 SWAP3 SWAP2 SWAP1 POP POP POP PUSH2 0x32EB JUMP JUMPDEST PUSH1 0x40 MLOAD DUP1 DUP4 DUP2 MSTORE PUSH1 0x20 ADD DUP3 DUP2 MSTORE PUSH1 0x20 ADD SWAP3 POP POP POP PUSH1 0x40 MLOAD DUP1 SWAP2 SUB SWAP1 RETURN JUMPDEST PUSH2 0xBDB PUSH1 0x4 DUP1 CALLDATASIZE SUB PUSH1 0x60 DUP2 LT ISZERO PUSH2 0xB27 JUMPI PUSH1 0x0 DUP1 REVERT JUMPDEST DUP2 ADD SWAP1 DUP1 DUP1 CALLDATALOAD SWAP1 PUSH1 0x20 ADD SWAP1 SWAP3 SWAP2 SWAP1 DUP1 CALLDATALOAD SWAP1 PUSH1 0x20 ADD SWAP1 SWAP3 SWAP2 SWAP1 DUP1 CALLDATALOAD SWAP1 PUSH1 0x20 ADD SWAP1 PUSH5 0x100000000 DUP2 GT ISZERO PUSH2 0xB58 JUMPI PUSH1 0x0 DUP1 REVERT JUMPDEST DUP3 ADD DUP4 PUSH1 0x20 DUP3 ADD GT ISZERO PUSH2 0xB6A JUMPI PUSH1 0x0 DUP1 REVERT JUMPDEST DUP1 CALLDATALOAD SWAP1 PUSH1 0x20 ADD SWAP2 DUP5 PUSH1 0x20 DUP4 MUL DUP5 ADD GT PUSH5 0x100000000 DUP4 GT OR ISZERO PUSH2 0xB8C JUMPI PUSH1 0x0 DUP1 REVERT JUMPDEST SWAP2 SWAP1 DUP1 DUP1 PUSH1 0x20 MUL PUSH1 0x20 ADD PUSH1 0x40 MLOAD SWAP1 DUP2 ADD PUSH1 0x40 MSTORE DUP1 SWAP4 SWAP3 SWAP2 SWAP1 DUP2 DUP2 MSTORE PUSH1 0x20 ADD DUP4 DUP4 PUSH1 0x20 MUL DUP1 DUP3 DUP5 CALLDATACOPY PUSH1 0x0 DUP2 DUP5 ADD MSTORE PUSH1 0x1F NOT PUSH1 0x1F DUP3 ADD AND SWAP1 POP DUP1 DUP4 ADD SWAP3 POP POP POP POP POP POP POP SWAP2 SWAP3 SWAP2 SWAP3 SWAP1 POP POP POP PUSH2 0x331C JUMP JUMPDEST STOP JUMPDEST PUSH2 0xC09 PUSH1 0x4 DUP1 CALLDATASIZE SUB PUSH1 0x20 DUP2 LT ISZERO PUSH2 0xBF3 JUMPI PUSH1 0x0 DUP1 REVERT JUMPDEST DUP2 ADD SWAP1 DUP1 DUP1 CALLDATALOAD SWAP1 PUSH1 0x20 ADD SWAP1 SWAP3 SWAP2 SWAP1 POP POP POP PUSH2 0x3D29 JUMP JUMPDEST STOP JUMPDEST PUSH2 0xC13 PUSH2 0x4087 JUMP JUMPDEST PUSH1 0x40 MLOAD DUP1 DUP3 DUP2 MSTORE PUSH1 0x20 ADD SWAP2 POP POP PUSH1 0x40 MLOAD DUP1 SWAP2 SUB SWAP1 RETURN JUMPDEST PUSH2 0xC55 PUSH1 0x4 DUP1 CALLDATASIZE SUB PUSH1 0x20 DUP2 LT ISZERO PUSH2 0xC3F JUMPI PUSH1 0x0 DUP1 REVERT JUMPDEST DUP2 ADD SWAP1 DUP1 DUP1 CALLDATALOAD SWAP1 PUSH1 0x20 ADD SWAP1 SWAP3 SWAP2 SWAP1 POP POP POP PUSH2 0x4097 JUMP JUMPDEST STOP JUMPDEST PUSH2 0xC8D PUSH1 0x4 DUP1 CALLDATASIZE SUB PUSH1 0x40 DUP2 LT ISZERO PUSH2 0xC6D JUMPI PUSH1 0x0 DUP1 REVERT JUMPDEST DUP2 ADD SWAP1 DUP1 DUP1 CALLDATALOAD SWAP1 PUSH1 0x20 ADD SWAP1 SWAP3 SWAP2 SWAP1 DUP1 CALLDATALOAD SWAP1 PUSH1 0x20 ADD SWAP1 SWAP3 SWAP2 SWAP1 POP POP POP PUSH2 0x4731 JUMP JUMPDEST STOP JUMPDEST PUSH2 0xC97 PUSH2 0x4B44 JUMP JUMPDEST PUSH1 0x40 MLOAD DUP1 DUP3 DUP2 MSTORE PUSH1 0x20 ADD SWAP2 POP POP PUSH1 0x40 MLOAD DUP1 SWAP2 SUB SWAP1 RETURN JUMPDEST PUSH2 0xCD9 PUSH1 0x4 DUP1 CALLDATASIZE SUB PUSH1 0x20 DUP2 LT ISZERO PUSH2 0xCC3 JUMPI PUSH1 0x0 DUP1 REVERT JUMPDEST DUP2 ADD SWAP1 DUP1 DUP1 CALLDATALOAD SWAP1 PUSH1 0x20 ADD SWAP1 SWAP3 SWAP2 SWAP1 POP POP POP PUSH2 0x4B4A JUMP JUMPDEST STOP JUMPDEST PUSH2 0xD91 PUSH1 0x4 DUP1 CALLDATASIZE SUB PUSH1 0x20 DUP2 LT ISZERO PUSH2 0xCF1 JUMPI PUSH1 0x0 DUP1 REVERT JUMPDEST DUP2 ADD SWAP1 DUP1 DUP1 CALLDATALOAD SWAP1 PUSH1 0x20 ADD SWAP1 PUSH5 0x100000000 DUP2 GT ISZERO PUSH2 0xD0E JUMPI PUSH1 0x0 DUP1 REVERT JUMPDEST DUP3 ADD DUP4 PUSH1 0x20 DUP3 ADD GT ISZERO PUSH2 0xD20 JUMPI PUSH1 0x0 DUP1 REVERT JUMPDEST DUP1 CALLDATALOAD SWAP1 PUSH1 0x20 ADD SWAP2 DUP5 PUSH1 0x20 DUP4 MUL DUP5 ADD GT PUSH5 0x100000000 DUP4 GT OR ISZERO PUSH2 0xD42 JUMPI PUSH1 0x0 DUP1 REVERT JUMPDEST SWAP2 SWAP1 DUP1 DUP1 PUSH1 0x20 MUL PUSH1 0x20 ADD PUSH1 0x40 MLOAD SWAP1 DUP2 ADD PUSH1 0x40 MSTORE DUP1 SWAP4 SWAP3 SWAP2 SWAP1 DUP2 DUP2 MSTORE PUSH1 0x20 ADD DUP4 DUP4 PUSH1 0x20 MUL DUP1 DUP3 DUP5 CALLDATACOPY PUSH1 0x0 DUP2 DUP5 ADD MSTORE PUSH1 0x1F NOT PUSH1 0x1F DUP3 ADD AND SWAP1 POP DUP1 DUP4 ADD SWAP3 POP POP POP POP POP POP POP SWAP2 SWAP3 SWAP2 SWAP3 SWAP1 POP POP POP PUSH2 0x4C3C JUMP JUMPDEST STOP JUMPDEST PUSH2 0xDDF PUSH1 0x4 DUP1 CALLDATASIZE SUB PUSH1 0x40 DUP2 LT ISZERO PUSH2 0xDA9 JUMPI PUSH1 0x0 DUP1 REVERT JUMPDEST DUP2 ADD SWAP1 DUP1 DUP1 CALLDATALOAD PUSH20 0xFFFFFFFFFFFFFFFFFFFFFFFFFFFFFFFFFFFFFFFF AND SWAP1 PUSH1 0x20 ADD SWAP1 SWAP3 SWAP2 SWAP1 DUP1 CALLDATALOAD SWAP1 PUSH1 0x20 ADD SWAP1 SWAP3 SWAP2 SWAP1 POP POP POP PUSH2 0x4FFB JUMP JUMPDEST PUSH1 0x40 MLOAD DUP1 DUP3 DUP2 MSTORE PUSH1 0x20 ADD SWAP2 POP POP PUSH1 0x40 MLOAD DUP1 SWAP2 SUB SWAP1 RETURN JUMPDEST PUSH2 0xDFD PUSH2 0x50F5 JUMP JUMPDEST PUSH1 0x40 MLOAD DUP1 DUP3 PUSH20 0xFFFFFFFFFFFFFFFFFFFFFFFFFFFFFFFFFFFFFFFF AND PUSH20 0xFFFFFFFFFFFFFFFFFFFFFFFFFFFFFFFFFFFFFFFF AND DUP2 MSTORE PUSH1 0x20 ADD SWAP2 POP POP PUSH1 0x40 MLOAD DUP1 SWAP2 SUB SWAP1 RETURN JUMPDEST PUSH1 0xB SLOAD DUP2 JUMP JUMPDEST PUSH1 0x2 PUSH1 0x0 SWAP1 SLOAD SWAP1 PUSH2 0x100 EXP SWAP1 DIV PUSH20 0xFFFFFFFFFFFFFFFFFFFFFFFFFFFFFFFFFFFFFFFF AND DUP2 JUMP JUMPDEST PUSH1 0x8 PUSH1 0x20 MSTORE DUP2 PUSH1 0x0 MSTORE PUSH1 0x40 PUSH1 0x0 KECCAK256 DUP2 DUP2 SLOAD DUP2 LT PUSH2 0xE84 JUMPI INVALID JUMPDEST SWAP1 PUSH1 0x0 MSTORE PUSH1 0x20 PUSH1 0x0 KECCAK256 SWAP1 PUSH1 0x9 MUL ADD PUSH1 0x0 SWAP2 POP SWAP2 POP POP DUP1 PUSH1 0x0 ADD SLOAD SWAP1 DUP1 PUSH1 0x1 ADD SLOAD SWAP1 DUP1 PUSH1 0x2 ADD SLOAD SWAP1 DUP1 PUSH1 0x3 ADD SLOAD SWAP1 DUP1 PUSH1 0x4 ADD SLOAD SWAP1 DUP1 PUSH1 0x5 ADD SLOAD SWAP1 DUP1 PUSH1 0x7 ADD SLOAD SWAP1 DUP1 PUSH1 0x8 ADD SLOAD SWAP1 POP DUP9 JUMP JUMPDEST PUSH1 0x4 PUSH1 0x8 PUSH1 0x0 CALLER PUSH20 0xFFFFFFFFFFFFFFFFFFFFFFFFFFFFFFFFFFFFFFFF AND PUSH20 0xFFFFFFFFFFFFFFFFFFFFFFFFFFFFFFFFFFFFFFFF AND DUP2 MSTORE PUSH1 0x20 ADD SWAP1 DUP2 MSTORE PUSH1 0x20 ADD PUSH1 0x0 KECCAK256 DUP3 DUP2 SLOAD DUP2 LT PUSH2 0xF19 JUMPI INVALID JUMPDEST SWAP1 PUSH1 0x0 MSTORE PUSH1 0x20 PUSH1 0x0 KECCAK256 SWAP1 PUSH1 0x9 MUL ADD PUSH1 0x3 ADD SLOAD EQ PUSH2 0xF9E JUMPI PUSH1 0x40 MLOAD PUSH32 0x8C379A000000000000000000000000000000000000000000000000000000000 DUP2 MSTORE PUSH1 0x4 ADD DUP1 DUP1 PUSH1 0x20 ADD DUP3 DUP2 SUB DUP3 MSTORE PUSH1 0x19 DUP2 MSTORE PUSH1 0x20 ADD DUP1 PUSH32 0x7374616B696E67206D7573742062652063616E63656C6C656400000000000000 DUP2 MSTORE POP PUSH1 0x20 ADD SWAP2 POP POP PUSH1 0x40 MLOAD DUP1 SWAP2 SUB SWAP1 REVERT JUMPDEST PUSH1 0x0 PUSH1 0x8 PUSH1 0x0 CALLER PUSH20 0xFFFFFFFFFFFFFFFFFFFFFFFFFFFFFFFFFFFFFFFF AND PUSH20 0xFFFFFFFFFFFFFFFFFFFFFFFFFFFFFFFFFFFFFFFF AND DUP2 MSTORE PUSH1 0x20 ADD SWAP1 DUP2 MSTORE PUSH1 0x20 ADD PUSH1 0x0 KECCAK256 DUP3 DUP2 SLOAD DUP2 LT PUSH2 0xFEA JUMPI INVALID JUMPDEST SWAP1 PUSH1 0x0 MSTORE PUSH1 0x20 PUSH1 0x0 KECCAK256 SWAP1 PUSH1 0x9 MUL ADD PUSH1 0x8 ADD SLOAD GT PUSH2 0x106F JUMPI PUSH1 0x40 MLOAD PUSH32 0x8C379A000000000000000000000000000000000000000000000000000000000 DUP2 MSTORE PUSH1 0x4 ADD DUP1 DUP1 PUSH1 0x20 ADD DUP3 DUP2 SUB DUP3 MSTORE PUSH1 0x17 DUP2 MSTORE PUSH1 0x20 ADD DUP1 PUSH32 0x616C6C20726566756E64732061726520636C61696D6564000000000000000000 DUP2 MSTORE POP PUSH1 0x20 ADD SWAP2 POP POP PUSH1 0x40 MLOAD DUP1 SWAP2 SUB SWAP1 REVERT JUMPDEST PUSH1 0x0 PUSH2 0x1079 PUSH2 0x4087 JUMP JUMPDEST SWAP1 POP PUSH1 0x0 PUSH2 0x10EB PUSH1 0x8 PUSH1 0x0 CALLER PUSH20 0xFFFFFFFFFFFFFFFFFFFFFFFFFFFFFFFFFFFFFFFF AND PUSH20 0xFFFFFFFFFFFFFFFFFFFFFFFFFFFFFFFFFFFFFFFF AND DUP2 MSTORE PUSH1 0x20 ADD SWAP1 DUP2 MSTORE PUSH1 0x20 ADD PUSH1 0x0 KECCAK256 DUP5 DUP2 SLOAD DUP2 LT PUSH2 0x10CA JUMPI INVALID JUMPDEST SWAP1 PUSH1 0x0 MSTORE PUSH1 0x20 PUSH1 0x0 KECCAK256 SWAP1 PUSH1 0x9 MUL ADD PUSH1 0x7 ADD SLOAD DUP4 PUSH2 0x511B SWAP1 SWAP2 SWAP1 PUSH4 0xFFFFFFFF AND JUMP JUMPDEST SWAP1 POP PUSH1 0x8 PUSH1 0x0 CALLER PUSH20 0xFFFFFFFFFFFFFFFFFFFFFFFFFFFFFFFFFFFFFFFF AND PUSH20 0xFFFFFFFFFFFFFFFFFFFFFFFFFFFFFFFFFFFFFFFF AND DUP2 MSTORE PUSH1 0x20 ADD SWAP1 DUP2 MSTORE PUSH1 0x20 ADD PUSH1 0x0 KECCAK256 DUP4 DUP2 SLOAD DUP2 LT PUSH2 0x1137 JUMPI INVALID JUMPDEST SWAP1 PUSH1 0x0 MSTORE PUSH1 0x20 PUSH1 0x0 KECCAK256 SWAP1 PUSH1 0x9 MUL ADD PUSH1 0x8 ADD SLOAD DUP2 GT ISZERO PUSH2 0x11AF JUMPI PUSH1 0x8 PUSH1 0x0 CALLER PUSH20 0xFFFFFFFFFFFFFFFFFFFFFFFFFFFFFFFFFFFFFFFF AND PUSH20 0xFFFFFFFFFFFFFFFFFFFFFFFFFFFFFFFFFFFFFFFF AND DUP2 MSTORE PUSH1 0x20 ADD SWAP1 DUP2 MSTORE PUSH1 0x20 ADD PUSH1 0x0 KECCAK256 DUP4 DUP2 SLOAD DUP2 LT PUSH2 0x119A JUMPI INVALID JUMPDEST SWAP1 PUSH1 0x0 MSTORE PUSH1 0x20 PUSH1 0x0 KECCAK256 SWAP1 PUSH1 0x9 MUL ADD PUSH1 0x8 ADD SLOAD SWAP1 POP JUMPDEST PUSH1 0x0 PUSH2 0x1232 PUSH1 0x18 PUSH2 0x1224 DUP5 PUSH1 0x8 PUSH1 0x0 CALLER PUSH20 0xFFFFFFFFFFFFFFFFFFFFFFFFFFFFFFFFFFFFFFFF AND PUSH20 0xFFFFFFFFFFFFFFFFFFFFFFFFFFFFFFFFFFFFFFFF AND DUP2 MSTORE PUSH1 0x20 ADD SWAP1 DUP2 MSTORE PUSH1 0x20 ADD PUSH1 0x0 KECCAK256 DUP9 DUP2 SLOAD DUP2 LT PUSH2 0x1204 JUMPI INVALID JUMPDEST SWAP1 PUSH1 0x0 MSTORE PUSH1 0x20 PUSH1 0x0 KECCAK256 SWAP1 PUSH1 0x9 MUL ADD PUSH1 0x0 ADD SLOAD PUSH2 0x513B SWAP1 SWAP2 SWAP1 PUSH4 0xFFFFFFFF AND JUMP JUMPDEST PUSH2 0x5175 SWAP1 SWAP2 SWAP1 PUSH4 0xFFFFFFFF AND JUMP JUMPDEST SWAP1 POP PUSH2 0x123C PUSH2 0x4087 JUMP JUMPDEST PUSH1 0x8 PUSH1 0x0 CALLER PUSH20 0xFFFFFFFFFFFFFFFFFFFFFFFFFFFFFFFFFFFFFFFF AND PUSH20 0xFFFFFFFFFFFFFFFFFFFFFFFFFFFFFFFFFFFFFFFF AND DUP2 MSTORE PUSH1 0x20 ADD SWAP1 DUP2 MSTORE PUSH1 0x20 ADD PUSH1 0x0 KECCAK256 DUP6 DUP2 SLOAD DUP2 LT PUSH2 0x1286 JUMPI INVALID JUMPDEST SWAP1 PUSH1 0x0 MSTORE PUSH1 0x20 PUSH1 0x0 KECCAK256 SWAP1 PUSH1 0x9 MUL ADD PUSH1 0x7 ADD DUP2 SWAP1 SSTORE POP PUSH2 0x1309 DUP3 PUSH1 0x8 PUSH1 0x0 CALLER PUSH20 0xFFFFFFFFFFFFFFFFFFFFFFFFFFFFFFFFFFFFFFFF AND PUSH20 0xFFFFFFFFFFFFFFFFFFFFFFFFFFFFFFFFFFFFFFFF AND DUP2 MSTORE PUSH1 0x20 ADD SWAP1 DUP2 MSTORE PUSH1 0x20 ADD PUSH1 0x0 KECCAK256 DUP7 DUP2 SLOAD DUP2 LT PUSH2 0x12E9 JUMPI INVALID JUMPDEST SWAP1 PUSH1 0x0 MSTORE PUSH1 0x20 PUSH1 0x0 KECCAK256 SWAP1 PUSH1 0x9 MUL ADD PUSH1 0x8 ADD SLOAD PUSH2 0x511B SWAP1 SWAP2 SWAP1 PUSH4 0xFFFFFFFF AND JUMP JUMPDEST PUSH1 0x8 PUSH1 0x0 CALLER PUSH20 0xFFFFFFFFFFFFFFFFFFFFFFFFFFFFFFFFFFFFFFFF AND PUSH20 0xFFFFFFFFFFFFFFFFFFFFFFFFFFFFFFFFFFFFFFFF AND DUP2 MSTORE PUSH1 0x20 ADD SWAP1 DUP2 MSTORE PUSH1 0x20 ADD PUSH1 0x0 KECCAK256 DUP6 DUP2 SLOAD DUP2 LT PUSH2 0x1353 JUMPI INVALID JUMPDEST SWAP1 PUSH1 0x0 MSTORE PUSH1 0x20 PUSH1 0x0 KECCAK256 SWAP1 PUSH1 0x9 MUL ADD PUSH1 0x8 ADD DUP2 SWAP1 SSTORE POP PUSH1 0x1 PUSH1 0x0 SWAP1 SLOAD SWAP1 PUSH2 0x100 EXP SWAP1 DIV PUSH20 0xFFFFFFFFFFFFFFFFFFFFFFFFFFFFFFFFFFFFFFFF AND PUSH20 0xFFFFFFFFFFFFFFFFFFFFFFFFFFFFFFFFFFFFFFFF AND PUSH4 0xA9059CBB CALLER DUP4 PUSH1 0x40 MLOAD DUP4 PUSH4 0xFFFFFFFF AND PUSH1 0xE0 SHL DUP2 MSTORE PUSH1 0x4 ADD DUP1 DUP4 PUSH20 0xFFFFFFFFFFFFFFFFFFFFFFFFFFFFFFFFFFFFFFFF AND PUSH20 0xFFFFFFFFFFFFFFFFFFFFFFFFFFFFFFFFFFFFFFFF AND DUP2 MSTORE PUSH1 0x20 ADD DUP3 DUP2 MSTORE PUSH1 0x20 ADD SWAP3 POP POP POP PUSH1 0x20 PUSH1 0x40 MLOAD DUP1 DUP4 SUB DUP2 PUSH1 0x0 DUP8 DUP1 EXTCODESIZE ISZERO DUP1 ISZERO PUSH2 0x1411 JUMPI PUSH1 0x0 DUP1 REVERT JUMPDEST POP GAS CALL ISZERO DUP1 ISZERO PUSH2 0x1425 JUMPI RETURNDATASIZE PUSH1 0x0 DUP1 RETURNDATACOPY RETURNDATASIZE PUSH1 0x0 REVERT JUMPDEST POP POP POP POP PUSH1 0x40 MLOAD RETURNDATASIZE PUSH1 0x20 DUP2 LT ISZERO PUSH2 0x143B JUMPI PUSH1 0x0 DUP1 REVERT JUMPDEST DUP2 ADD SWAP1 DUP1 DUP1 MLOAD SWAP1 PUSH1 0x20 ADD SWAP1 SWAP3 SWAP2 SWAP1 POP POP POP POP POP POP POP POP JUMP JUMPDEST PUSH1 0x5 DUP2 DUP2 SLOAD DUP2 LT PUSH2 0x1460 JUMPI INVALID JUMPDEST SWAP1 PUSH1 0x0 MSTORE PUSH1 0x20 PUSH1 0x0 KECCAK256 ADD PUSH1 0x0 SWAP2 POP SWAP1 POP SLOAD DUP2 JUMP JUMPDEST PUSH1 0x0 DUP1 PUSH2 0x147F PUSH2 0x4087 JUMP JUMPDEST SWAP1 POP DUP1 DUP4 GT ISZERO PUSH2 0x14F7 JUMPI PUSH1 0x40 MLOAD PUSH32 0x8C379A000000000000000000000000000000000000000000000000000000000 DUP2 MSTORE PUSH1 0x4 ADD DUP1 DUP1 PUSH1 0x20 ADD DUP3 DUP2 SUB DUP3 MSTORE PUSH1 0x1A DUP2 MSTORE PUSH1 0x20 ADD DUP1 PUSH32 0x63616E6E6F742073656520667574757265207374616B696E6773000000000000 DUP2 MSTORE POP PUSH1 0x20 ADD SWAP2 POP POP PUSH1 0x40 MLOAD DUP1 SWAP2 SUB SWAP1 REVERT JUMPDEST PUSH1 0x0 PUSH1 0xA PUSH1 0x0 DUP6 DUP2 MSTORE PUSH1 0x20 ADD SWAP1 DUP2 MSTORE PUSH1 0x20 ADD PUSH1 0x0 KECCAK256 SLOAD EQ ISZERO PUSH2 0x151D JUMPI PUSH1 0x0 SWAP2 POP POP PUSH2 0x179F JUMP JUMPDEST PUSH1 0x0 DUP1 PUSH1 0x0 SWAP1 POP JUMPDEST PUSH1 0x8 PUSH1 0x0 DUP8 PUSH20 0xFFFFFFFFFFFFFFFFFFFFFFFFFFFFFFFFFFFFFFFF AND PUSH20 0xFFFFFFFFFFFFFFFFFFFFFFFFFFFFFFFFFFFFFFFF AND DUP2 MSTORE PUSH1 0x20 ADD SWAP1 DUP2 MSTORE PUSH1 0x20 ADD PUSH1 0x0 KECCAK256 DUP1 SLOAD SWAP1 POP DUP2 LT ISZERO PUSH2 0x174A JUMPI PUSH2 0x1577 PUSH2 0x51BA JUMP JUMPDEST PUSH1 0x6 PUSH1 0x8 PUSH1 0x0 DUP10 PUSH20 0xFFFFFFFFFFFFFFFFFFFFFFFFFFFFFFFFFFFFFFFF AND PUSH20 0xFFFFFFFFFFFFFFFFFFFFFFFFFFFFFFFFFFFFFFFF AND DUP2 MSTORE PUSH1 0x20 ADD SWAP1 DUP2 MSTORE PUSH1 0x20 ADD PUSH1 0x0 KECCAK256 DUP4 DUP2 SLOAD DUP2 LT PUSH2 0x15C3 JUMPI INVALID JUMPDEST SWAP1 PUSH1 0x0 MSTORE PUSH1 0x20 PUSH1 0x0 KECCAK256 SWAP1 PUSH1 0x9 MUL ADD PUSH1 0x2 ADD SLOAD DUP2 SLOAD DUP2 LT PUSH2 0x15DF JUMPI INVALID JUMPDEST SWAP1 PUSH1 0x0 MSTORE PUSH1 0x20 PUSH1 0x0 KECCAK256 SWAP1 PUSH1 0x2 MUL ADD PUSH1 0x40 MLOAD DUP1 PUSH1 0x40 ADD PUSH1 0x40 MSTORE SWAP1 DUP2 PUSH1 0x0 DUP3 ADD SLOAD DUP2 MSTORE PUSH1 0x20 ADD PUSH1 0x1 DUP3 ADD SLOAD DUP2 MSTORE POP POP SWAP1 POP PUSH2 0x161A DUP8 DUP4 DUP7 DUP10 PUSH2 0x2921 JUMP JUMPDEST DUP1 ISZERO PUSH2 0x169D JUMPI POP PUSH1 0x8 PUSH1 0x0 DUP9 PUSH20 0xFFFFFFFFFFFFFFFFFFFFFFFFFFFFFFFFFFFFFFFF AND PUSH20 0xFFFFFFFFFFFFFFFFFFFFFFFFFFFFFFFFFFFFFFFF AND DUP2 MSTORE PUSH1 0x20 ADD SWAP1 DUP2 MSTORE PUSH1 0x20 ADD PUSH1 0x0 KECCAK256 DUP3 DUP2 SLOAD DUP2 LT PUSH2 0x166B JUMPI INVALID JUMPDEST SWAP1 PUSH1 0x0 MSTORE PUSH1 0x20 PUSH1 0x0 KECCAK256 SWAP1 PUSH1 0x9 MUL ADD PUSH1 0x6 ADD PUSH1 0x0 DUP8 DUP2 MSTORE PUSH1 0x20 ADD SWAP1 DUP2 MSTORE PUSH1 0x20 ADD PUSH1 0x0 KECCAK256 PUSH1 0x0 SWAP1 SLOAD SWAP1 PUSH2 0x100 EXP SWAP1 DIV PUSH1 0xFF AND ISZERO JUMPDEST ISZERO PUSH2 0x173C JUMPI PUSH2 0x1739 PUSH2 0x172A PUSH1 0xF PUSH2 0x171C DUP5 PUSH1 0x20 ADD MLOAD PUSH1 0x8 PUSH1 0x0 DUP14 PUSH20 0xFFFFFFFFFFFFFFFFFFFFFFFFFFFFFFFFFFFFFFFF AND PUSH20 0xFFFFFFFFFFFFFFFFFFFFFFFFFFFFFFFFFFFFFFFF AND DUP2 MSTORE PUSH1 0x20 ADD SWAP1 DUP2 MSTORE PUSH1 0x20 ADD PUSH1 0x0 KECCAK256 DUP8 DUP2 SLOAD DUP2 LT PUSH2 0x16FC JUMPI INVALID JUMPDEST SWAP1 PUSH1 0x0 MSTORE PUSH1 0x20 PUSH1 0x0 KECCAK256 SWAP1 PUSH1 0x9 MUL ADD PUSH1 0x0 ADD SLOAD PUSH2 0x513B SWAP1 SWAP2 SWAP1 PUSH4 0xFFFFFFFF AND JUMP JUMPDEST PUSH2 0x5175 SWAP1 SWAP2 SWAP1 PUSH4 0xFFFFFFFF AND JUMP JUMPDEST DUP5 PUSH2 0x519B SWAP1 SWAP2 SWAP1 PUSH4 0xFFFFFFFF AND JUMP JUMPDEST SWAP3 POP JUMPDEST POP DUP1 DUP1 PUSH1 0x1 ADD SWAP2 POP POP PUSH2 0x1525 JUMP JUMPDEST POP PUSH2 0x179A PUSH1 0xA PUSH1 0x0 DUP7 DUP2 MSTORE PUSH1 0x20 ADD SWAP1 DUP2 MSTORE PUSH1 0x20 ADD PUSH1 0x0 KECCAK256 SLOAD PUSH2 0x178C PUSH1 0x5 DUP8 DUP2 SLOAD DUP2 LT PUSH2 0x1772 JUMPI INVALID JUMPDEST SWAP1 PUSH1 0x0 MSTORE PUSH1 0x20 PUSH1 0x0 KECCAK256 ADD SLOAD DUP5 PUSH2 0x513B SWAP1 SWAP2 SWAP1 PUSH4 0xFFFFFFFF AND JUMP JUMPDEST PUSH2 0x5175 SWAP1 SWAP2 SWAP1 PUSH4 0xFFFFFFFF AND JUMP JUMPDEST SWAP3 POP POP POP JUMPDEST SWAP3 SWAP2 POP POP JUMP JUMPDEST PUSH1 0x0 PUSH2 0x17AF PUSH2 0x4087 JUMP JUMPDEST SWAP1 POP DUP5 DUP2 LT ISZERO PUSH2 0x1827 JUMPI PUSH1 0x40 MLOAD PUSH32 0x8C379A000000000000000000000000000000000000000000000000000000000 DUP2 MSTORE PUSH1 0x4 ADD DUP1 DUP1 PUSH1 0x20 ADD DUP3 DUP2 SUB DUP3 MSTORE PUSH1 0x1F DUP2 MSTORE PUSH1 0x20 ADD DUP1 PUSH32 0x63616E6E6F7420776974686472617720667574757265207374616B696E677300 DUP2 MSTORE POP PUSH1 0x20 ADD SWAP2 POP POP PUSH1 0x40 MLOAD DUP1 SWAP2 SUB SWAP1 REVERT JUMPDEST PUSH1 0x0 PUSH1 0xA PUSH1 0x0 DUP4 DUP2 MSTORE PUSH1 0x20 ADD SWAP1 DUP2 MSTORE PUSH1 0x20 ADD PUSH1 0x0 KECCAK256 SLOAD EQ ISZERO PUSH2 0x189B JUMPI PUSH1 0x0 PUSH2 0x189A JUMPI PUSH1 0x40 MLOAD PUSH32 0x8C379A000000000000000000000000000000000000000000000000000000000 DUP2 MSTORE PUSH1 0x4 ADD DUP1 DUP1 PUSH1 0x20 ADD DUP3 DUP2 SUB DUP3 MSTORE PUSH1 0x28 DUP2 MSTORE PUSH1 0x20 ADD DUP1 PUSH2 0x52F5 PUSH1 0x28 SWAP2 CODECOPY PUSH1 0x40 ADD SWAP2 POP POP PUSH1 0x40 MLOAD DUP1 SWAP2 SUB SWAP1 REVERT JUMPDEST JUMPDEST PUSH1 0x32 DUP5 LT ISZERO PUSH2 0x18F5 JUMPI PUSH1 0x40 MLOAD PUSH32 0x8C379A000000000000000000000000000000000000000000000000000000000 DUP2 MSTORE PUSH1 0x4 ADD DUP1 DUP1 PUSH1 0x20 ADD DUP3 DUP2 SUB DUP3 MSTORE PUSH1 0x27 DUP2 MSTORE PUSH1 0x20 ADD DUP1 PUSH2 0x526D PUSH1 0x27 SWAP2 CODECOPY PUSH1 0x40 ADD SWAP2 POP POP PUSH1 0x40 MLOAD DUP1 SWAP2 SUB SWAP1 REVERT JUMPDEST PUSH1 0x0 DUP1 PUSH1 0x0 DUP1 SWAP1 POP JUMPDEST PUSH1 0x8 PUSH1 0x0 CALLER PUSH20 0xFFFFFFFFFFFFFFFFFFFFFFFFFFFFFFFFFFFFFFFF AND PUSH20 0xFFFFFFFFFFFFFFFFFFFFFFFFFFFFFFFFFFFFFFFF AND DUP2 MSTORE PUSH1 0x20 ADD SWAP1 DUP2 MSTORE PUSH1 0x20 ADD PUSH1 0x0 KECCAK256 DUP1 SLOAD SWAP1 POP DUP2 LT ISZERO PUSH2 0x1CC7 JUMPI PUSH2 0x1950 PUSH2 0x51BA JUMP JUMPDEST PUSH1 0x6 PUSH1 0x8 PUSH1 0x0 CALLER PUSH20 0xFFFFFFFFFFFFFFFFFFFFFFFFFFFFFFFFFFFFFFFF AND PUSH20 0xFFFFFFFFFFFFFFFFFFFFFFFFFFFFFFFFFFFFFFFF AND DUP2 MSTORE PUSH1 0x20 ADD SWAP1 DUP2 MSTORE PUSH1 0x20 ADD PUSH1 0x0 KECCAK256 DUP4 DUP2 SLOAD DUP2 LT PUSH2 0x199C JUMPI INVALID JUMPDEST SWAP1 PUSH1 0x0 MSTORE PUSH1 0x20 PUSH1 0x0 KECCAK256 SWAP1 PUSH1 0x9 MUL ADD PUSH1 0x2 ADD SLOAD DUP2 SLOAD DUP2 LT PUSH2 0x19B8 JUMPI INVALID JUMPDEST SWAP1 PUSH1 0x0 MSTORE PUSH1 0x20 PUSH1 0x0 KECCAK256 SWAP1 PUSH1 0x2 MUL ADD PUSH1 0x40 MLOAD DUP1 PUSH1 0x40 ADD PUSH1 0x40 MSTORE SWAP1 DUP2 PUSH1 0x0 DUP3 ADD SLOAD DUP2 MSTORE PUSH1 0x20 ADD PUSH1 0x1 DUP3 ADD SLOAD DUP2 MSTORE POP POP SWAP1 POP PUSH2 0x19F3 CALLER DUP4 DUP8 DUP13 PUSH2 0x2921 JUMP JUMPDEST DUP1 ISZERO PUSH2 0x1A76 JUMPI POP PUSH1 0x8 PUSH1 0x0 CALLER PUSH20 0xFFFFFFFFFFFFFFFFFFFFFFFFFFFFFFFFFFFFFFFF AND PUSH20 0xFFFFFFFFFFFFFFFFFFFFFFFFFFFFFFFFFFFFFFFF AND DUP2 MSTORE PUSH1 0x20 ADD SWAP1 DUP2 MSTORE PUSH1 0x20 ADD PUSH1 0x0 KECCAK256 DUP3 DUP2 SLOAD DUP2 LT PUSH2 0x1A44 JUMPI INVALID JUMPDEST SWAP1 PUSH1 0x0 MSTORE PUSH1 0x20 PUSH1 0x0 KECCAK256 SWAP1 PUSH1 0x9 MUL ADD PUSH1 0x6 ADD PUSH1 0x0 DUP11 DUP2 MSTORE PUSH1 0x20 ADD SWAP1 DUP2 MSTORE PUSH1 0x20 ADD PUSH1 0x0 KECCAK256 PUSH1 0x0 SWAP1 SLOAD SWAP1 PUSH2 0x100 EXP SWAP1 DIV PUSH1 0xFF AND ISZERO JUMPDEST ISZERO PUSH2 0x1CB9 JUMPI PUSH1 0x1 PUSH1 0x8 PUSH1 0x0 CALLER PUSH20 0xFFFFFFFFFFFFFFFFFFFFFFFFFFFFFFFFFFFFFFFF AND PUSH20 0xFFFFFFFFFFFFFFFFFFFFFFFFFFFFFFFFFFFFFFFF AND DUP2 MSTORE PUSH1 0x20 ADD SWAP1 DUP2 MSTORE PUSH1 0x20 ADD PUSH1 0x0 KECCAK256 DUP4 DUP2 SLOAD DUP2 LT PUSH2 0x1AC7 JUMPI INVALID JUMPDEST SWAP1 PUSH1 0x0 MSTORE PUSH1 0x20 PUSH1 0x0 KECCAK256 SWAP1 PUSH1 0x9 MUL ADD PUSH1 0x6 ADD PUSH1 0x0 DUP12 DUP2 MSTORE PUSH1 0x20 ADD SWAP1 DUP2 MSTORE PUSH1 0x20 ADD PUSH1 0x0 KECCAK256 PUSH1 0x0 PUSH2 0x100 EXP DUP2 SLOAD DUP2 PUSH1 0xFF MUL NOT AND SWAP1 DUP4 ISZERO ISZERO MUL OR SWAP1 SSTORE POP PUSH1 0x0 PUSH2 0x1B87 PUSH1 0xF PUSH2 0x1B79 DUP5 PUSH1 0x20 ADD MLOAD PUSH1 0x8 PUSH1 0x0 CALLER PUSH20 0xFFFFFFFFFFFFFFFFFFFFFFFFFFFFFFFFFFFFFFFF AND PUSH20 0xFFFFFFFFFFFFFFFFFFFFFFFFFFFFFFFFFFFFFFFF AND DUP2 MSTORE PUSH1 0x20 ADD SWAP1 DUP2 MSTORE PUSH1 0x20 ADD PUSH1 0x0 KECCAK256 DUP8 DUP2 SLOAD DUP2 LT PUSH2 0x1B59 JUMPI INVALID JUMPDEST SWAP1 PUSH1 0x0 MSTORE PUSH1 0x20 PUSH1 0x0 KECCAK256 SWAP1 PUSH1 0x9 MUL ADD PUSH1 0x0 ADD SLOAD PUSH2 0x513B SWAP1 SWAP2 SWAP1 PUSH4 0xFFFFFFFF AND JUMP JUMPDEST PUSH2 0x5175 SWAP1 SWAP2 SWAP1 PUSH4 0xFFFFFFFF AND JUMP JUMPDEST SWAP1 POP PUSH1 0x0 PUSH2 0x1BB1 PUSH1 0x64 PUSH2 0x1BA3 DUP13 DUP6 PUSH2 0x513B SWAP1 SWAP2 SWAP1 PUSH4 0xFFFFFFFF AND JUMP JUMPDEST PUSH2 0x5175 SWAP1 SWAP2 SWAP1 PUSH4 0xFFFFFFFF AND JUMP JUMPDEST SWAP1 POP DUP9 ISZERO PUSH2 0x1C8B JUMPI PUSH2 0x1C27 DUP2 PUSH1 0x8 PUSH1 0x0 CALLER PUSH20 0xFFFFFFFFFFFFFFFFFFFFFFFFFFFFFFFFFFFFFFFF AND PUSH20 0xFFFFFFFFFFFFFFFFFFFFFFFFFFFFFFFFFFFFFFFF AND DUP2 MSTORE PUSH1 0x20 ADD SWAP1 DUP2 MSTORE PUSH1 0x20 ADD PUSH1 0x0 KECCAK256 DUP7 DUP2 SLOAD DUP2 LT PUSH2 0x1C07 JUMPI INVALID JUMPDEST SWAP1 PUSH1 0x0 MSTORE PUSH1 0x20 PUSH1 0x0 KECCAK256 SWAP1 PUSH1 0x9 MUL ADD PUSH1 0x4 ADD SLOAD PUSH2 0x519B SWAP1 SWAP2 SWAP1 PUSH4 0xFFFFFFFF AND JUMP JUMPDEST PUSH1 0x8 PUSH1 0x0 CALLER PUSH20 0xFFFFFFFFFFFFFFFFFFFFFFFFFFFFFFFFFFFFFFFF AND PUSH20 0xFFFFFFFFFFFFFFFFFFFFFFFFFFFFFFFFFFFFFFFF AND DUP2 MSTORE PUSH1 0x20 ADD SWAP1 DUP2 MSTORE PUSH1 0x20 ADD PUSH1 0x0 KECCAK256 DUP6 DUP2 SLOAD DUP2 LT PUSH2 0x1C71 JUMPI INVALID JUMPDEST SWAP1 PUSH1 0x0 MSTORE PUSH1 0x20 PUSH1 0x0 KECCAK256 SWAP1 PUSH1 0x9 MUL ADD PUSH1 0x4 ADD DUP2 SWAP1 SSTORE POP PUSH2 0x1CA1 JUMP JUMPDEST PUSH2 0x1C9E DUP2 DUP7 PUSH2 0x519B SWAP1 SWAP2 SWAP1 PUSH4 0xFFFFFFFF AND JUMP JUMPDEST SWAP5 POP JUMPDEST PUSH2 0x1CB4 DUP3 DUP8 PUSH2 0x519B SWAP1 SWAP2 SWAP1 PUSH4 0xFFFFFFFF AND JUMP JUMPDEST SWAP6 POP POP POP JUMPDEST POP DUP1 DUP1 PUSH1 0x1 ADD SWAP2 POP POP PUSH2 0x18FE JUMP JUMPDEST POP PUSH1 0x0 PUSH2 0x1D41 PUSH1 0x64 PUSH2 0x1D33 DUP10 PUSH1 0x64 SUB PUSH2 0x1D25 PUSH1 0xA PUSH1 0x0 DUP11 DUP2 MSTORE PUSH1 0x20 ADD SWAP1 DUP2 MSTORE PUSH1 0x20 ADD PUSH1 0x0 KECCAK256 SLOAD PUSH2 0x1D17 PUSH1 0x5 DUP12 DUP2 SLOAD DUP2 LT PUSH2 0x1CFD JUMPI INVALID JUMPDEST SWAP1 PUSH1 0x0 MSTORE PUSH1 0x20 PUSH1 0x0 KECCAK256 ADD SLOAD DUP11 PUSH2 0x513B SWAP1 SWAP2 SWAP1 PUSH4 0xFFFFFFFF AND JUMP JUMPDEST PUSH2 0x5175 SWAP1 SWAP2 SWAP1 PUSH4 0xFFFFFFFF AND JUMP JUMPDEST PUSH2 0x513B SWAP1 SWAP2 SWAP1 PUSH4 0xFFFFFFFF AND JUMP JUMPDEST PUSH2 0x5175 SWAP1 SWAP2 SWAP1 PUSH4 0xFFFFFFFF AND JUMP JUMPDEST SWAP1 POP PUSH1 0x0 DUP2 GT ISZERO PUSH2 0x1E32 JUMPI PUSH1 0x1 PUSH1 0x0 SWAP1 SLOAD SWAP1 PUSH2 0x100 EXP SWAP1 DIV PUSH20 0xFFFFFFFFFFFFFFFFFFFFFFFFFFFFFFFFFFFFFFFF AND PUSH20 0xFFFFFFFFFFFFFFFFFFFFFFFFFFFFFFFFFFFFFFFF AND PUSH4 0xA9059CBB CALLER DUP4 PUSH1 0x40 MLOAD DUP4 PUSH4 0xFFFFFFFF AND PUSH1 0xE0 SHL DUP2 MSTORE PUSH1 0x4 ADD DUP1 DUP4 PUSH20 0xFFFFFFFFFFFFFFFFFFFFFFFFFFFFFFFFFFFFFFFF AND PUSH20 0xFFFFFFFFFFFFFFFFFFFFFFFFFFFFFFFFFFFFFFFF AND DUP2 MSTORE PUSH1 0x20 ADD DUP3 DUP2 MSTORE PUSH1 0x20 ADD SWAP3 POP POP POP PUSH1 0x20 PUSH1 0x40 MLOAD DUP1 DUP4 SUB DUP2 PUSH1 0x0 DUP8 DUP1 EXTCODESIZE ISZERO DUP1 ISZERO PUSH2 0x1DF5 JUMPI PUSH1 0x0 DUP1 REVERT JUMPDEST POP GAS CALL ISZERO DUP1 ISZERO PUSH2 0x1E09 JUMPI RETURNDATASIZE PUSH1 0x0 DUP1 RETURNDATACOPY RETURNDATASIZE PUSH1 0x0 REVERT JUMPDEST POP POP POP POP PUSH1 0x40 MLOAD RETURNDATASIZE PUSH1 0x20 DUP2 LT ISZERO PUSH2 0x1E1F JUMPI PUSH1 0x0 DUP1 REVERT JUMPDEST DUP2 ADD SWAP1 DUP1 DUP1 MLOAD SWAP1 PUSH1 0x20 ADD SWAP1 SWAP3 SWAP2 SWAP1 POP POP POP POP JUMPDEST DUP6 ISZERO PUSH2 0x1E43 JUMPI PUSH2 0x1E42 DUP3 DUP7 PUSH2 0x4731 JUMP JUMPDEST JUMPDEST POP POP POP POP POP POP POP POP JUMP JUMPDEST PUSH1 0x0 PUSH1 0x8 PUSH1 0x0 CALLER PUSH20 0xFFFFFFFFFFFFFFFFFFFFFFFFFFFFFFFFFFFFFFFF AND PUSH20 0xFFFFFFFFFFFFFFFFFFFFFFFFFFFFFFFFFFFFFFFF AND DUP2 MSTORE PUSH1 0x20 ADD SWAP1 DUP2 MSTORE PUSH1 0x20 ADD PUSH1 0x0 KECCAK256 DUP4 DUP2 SLOAD DUP2 LT PUSH2 0x1E99 JUMPI INVALID JUMPDEST SWAP1 PUSH1 0x0 MSTORE PUSH1 0x20 PUSH1 0x0 KECCAK256 SWAP1 PUSH1 0x9 MUL ADD PUSH1 0x4 ADD SLOAD GT PUSH2 0x1EB5 JUMPI PUSH1 0x0 DUP1 REVERT JUMPDEST PUSH1 0x0 PUSH1 0x8 PUSH1 0x0 CALLER PUSH20 0xFFFFFFFFFFFFFFFFFFFFFFFFFFFFFFFFFFFFFFFF AND PUSH20 0xFFFFFFFFFFFFFFFFFFFFFFFFFFFFFFFFFFFFFFFF AND DUP2 MSTORE PUSH1 0x20 ADD SWAP1 DUP2 MSTORE PUSH1 0x20 ADD PUSH1 0x0 KECCAK256 DUP4 DUP2 SLOAD DUP2 LT PUSH2 0x1F01 JUMPI INVALID JUMPDEST SWAP1 PUSH1 0x0 MSTORE PUSH1 0x20 PUSH1 0x0 KECCAK256 SWAP1 PUSH1 0x9 MUL ADD PUSH1 0x4 ADD SLOAD SWAP1 POP PUSH1 0x0 PUSH1 0x8 PUSH1 0x0 CALLER PUSH20 0xFFFFFFFFFFFFFFFFFFFFFFFFFFFFFFFFFFFFFFFF AND PUSH20 0xFFFFFFFFFFFFFFFFFFFFFFFFFFFFFFFFFFFFFFFF AND DUP2 MSTORE PUSH1 0x20 ADD SWAP1 DUP2 MSTORE PUSH1 0x20 ADD PUSH1 0x0 KECCAK256 DUP5 DUP2 SLOAD DUP2 LT PUSH2 0x1F61 JUMPI INVALID JUMPDEST SWAP1 PUSH1 0x0 MSTORE PUSH1 0x20 PUSH1 0x0 KECCAK256 SWAP1 PUSH1 0x9 MUL ADD PUSH1 0x4 ADD DUP2 SWAP1 SSTORE POP PUSH2 0x1F80 DUP2 DUP4 PUSH2 0x4731 JUMP JUMPDEST POP POP POP JUMP JUMPDEST PUSH1 0x0 DUP1 PUSH2 0x1F90 PUSH2 0x4087 JUMP JUMPDEST SWAP1 POP PUSH1 0x0 DUP1 PUSH1 0x0 SWAP1 POP JUMPDEST PUSH1 0x8 PUSH1 0x0 DUP8 PUSH20 0xFFFFFFFFFFFFFFFFFFFFFFFFFFFFFFFFFFFFFFFF AND PUSH20 0xFFFFFFFFFFFFFFFFFFFFFFFFFFFFFFFFFFFFFFFF AND DUP2 MSTORE PUSH1 0x20 ADD SWAP1 DUP2 MSTORE PUSH1 0x20 ADD PUSH1 0x0 KECCAK256 DUP1 SLOAD SWAP1 POP DUP2 LT ISZERO PUSH2 0x2111 JUMPI PUSH2 0x1FF0 DUP7 DUP3 DUP6 DUP9 PUSH2 0x2921 JUMP JUMPDEST ISZERO PUSH2 0x2104 JUMPI PUSH2 0x2101 PUSH2 0x20F2 PUSH1 0xF PUSH2 0x20E4 PUSH1 0x6 PUSH1 0x8 PUSH1 0x0 DUP13 PUSH20 0xFFFFFFFFFFFFFFFFFFFFFFFFFFFFFFFFFFFFFFFF AND PUSH20 0xFFFFFFFFFFFFFFFFFFFFFFFFFFFFFFFFFFFFFFFF AND DUP2 MSTORE PUSH1 0x20 ADD SWAP1 DUP2 MSTORE PUSH1 0x20 ADD PUSH1 0x0 KECCAK256 DUP7 DUP2 SLOAD DUP2 LT PUSH2 0x204C JUMPI INVALID JUMPDEST SWAP1 PUSH1 0x0 MSTORE PUSH1 0x20 PUSH1 0x0 KECCAK256 SWAP1 PUSH1 0x9 MUL ADD PUSH1 0x2 ADD SLOAD DUP2 SLOAD DUP2 LT PUSH2 0x2068 JUMPI INVALID JUMPDEST SWAP1 PUSH1 0x0 MSTORE PUSH1 0x20 PUSH1 0x0 KECCAK256 SWAP1 PUSH1 0x2 MUL ADD PUSH1 0x1 ADD SLOAD PUSH1 0x8 PUSH1 0x0 DUP13 PUSH20 0xFFFFFFFFFFFFFFFFFFFFFFFFFFFFFFFFFFFFFFFF AND PUSH20 0xFFFFFFFFFFFFFFFFFFFFFFFFFFFFFFFFFFFFFFFF AND DUP2 MSTORE PUSH1 0x20 ADD SWAP1 DUP2 MSTORE PUSH1 0x20 ADD PUSH1 0x0 KECCAK256 DUP7 DUP2 SLOAD DUP2 LT PUSH2 0x20C4 JUMPI INVALID JUMPDEST SWAP1 PUSH1 0x0 MSTORE PUSH1 0x20 PUSH1 0x0 KECCAK256 SWAP1 PUSH1 0x9 MUL ADD PUSH1 0x0 ADD SLOAD PUSH2 0x513B SWAP1 SWAP2 SWAP1 PUSH4 0xFFFFFFFF AND JUMP JUMPDEST PUSH2 0x5175 SWAP1 SWAP2 SWAP1 PUSH4 0xFFFFFFFF AND JUMP JUMPDEST DUP4 PUSH2 0x519B SWAP1 SWAP2 SWAP1 PUSH4 0xFFFFFFFF AND JUMP JUMPDEST SWAP2 POP JUMPDEST DUP1 DUP1 PUSH1 0x1 ADD SWAP2 POP POP PUSH2 0x1F9A JUMP JUMPDEST POP DUP1 SWAP3 POP POP POP SWAP3 SWAP2 POP POP JUMP JUMPDEST PUSH1 0x0 DUP1 PUSH1 0x0 DUP1 PUSH1 0x0 DUP1 PUSH1 0x8 PUSH1 0x0 DUP10 PUSH20 0xFFFFFFFFFFFFFFFFFFFFFFFFFFFFFFFFFFFFFFFF AND PUSH20 0xFFFFFFFFFFFFFFFFFFFFFFFFFFFFFFFFFFFFFFFF AND DUP2 MSTORE PUSH1 0x20 ADD SWAP1 DUP2 MSTORE PUSH1 0x20 ADD PUSH1 0x0 KECCAK256 DUP8 DUP2 SLOAD DUP2 LT PUSH2 0x2170 JUMPI INVALID JUMPDEST SWAP1 PUSH1 0x0 MSTORE PUSH1 0x20 PUSH1 0x0 KECCAK256 SWAP1 PUSH1 0x9 MUL ADD PUSH1 0x0 ADD SLOAD PUSH1 0x8 PUSH1 0x0 DUP11 PUSH20 0xFFFFFFFFFFFFFFFFFFFFFFFFFFFFFFFFFFFFFFFF AND PUSH20 0xFFFFFFFFFFFFFFFFFFFFFFFFFFFFFFFFFFFFFFFF AND DUP2 MSTORE PUSH1 0x20 ADD SWAP1 DUP2 MSTORE PUSH1 0x20 ADD PUSH1 0x0 KECCAK256 DUP9 DUP2 SLOAD DUP2 LT PUSH2 0x21CC JUMPI INVALID JUMPDEST SWAP1 PUSH1 0x0 MSTORE PUSH1 0x20 PUSH1 0x0 KECCAK256 SWAP1 PUSH1 0x9 MUL ADD PUSH1 0x1 ADD SLOAD PUSH1 0x8 PUSH1 0x0 DUP12 PUSH20 0xFFFFFFFFFFFFFFFFFFFFFFFFFFFFFFFFFFFFFFFF AND PUSH20 0xFFFFFFFFFFFFFFFFFFFFFFFFFFFFFFFFFFFFFFFF AND DUP2 MSTORE PUSH1 0x20 ADD SWAP1 DUP2 MSTORE PUSH1 0x20 ADD PUSH1 0x0 KECCAK256 DUP10 DUP2 SLOAD DUP2 LT PUSH2 0x2228 JUMPI INVALID JUMPDEST SWAP1 PUSH1 0x0 MSTORE PUSH1 0x20 PUSH1 0x0 KECCAK256 SWAP1 PUSH1 0x9 MUL ADD PUSH1 0x2 ADD SLOAD PUSH1 0x8 PUSH1 0x0 DUP13 PUSH20 0xFFFFFFFFFFFFFFFFFFFFFFFFFFFFFFFFFFFFFFFF AND PUSH20 0xFFFFFFFFFFFFFFFFFFFFFFFFFFFFFFFFFFFFFFFF AND DUP2 MSTORE PUSH1 0x20 ADD SWAP1 DUP2 MSTORE PUSH1 0x20 ADD PUSH1 0x0 KECCAK256 DUP11 DUP2 SLOAD DUP2 LT PUSH2 0x2284 JUMPI INVALID JUMPDEST SWAP1 PUSH1 0x0 MSTORE PUSH1 0x20 PUSH1 0x0 KECCAK256 SWAP1 PUSH1 0x9 MUL ADD PUSH1 0x3 ADD SLOAD PUSH1 0x8 PUSH1 0x0 DUP14 PUSH20 0xFFFFFFFFFFFFFFFFFFFFFFFFFFFFFFFFFFFFFFFF AND PUSH20 0xFFFFFFFFFFFFFFFFFFFFFFFFFFFFFFFFFFFFFFFF AND DUP2 MSTORE PUSH1 0x20 ADD SWAP1 DUP2 MSTORE PUSH1 0x20 ADD PUSH1 0x0 KECCAK256 DUP12 DUP2 SLOAD DUP2 LT PUSH2 0x22E0 JUMPI INVALID JUMPDEST SWAP1 PUSH1 0x0 MSTORE PUSH1 0x20 PUSH1 0x0 KECCAK256 SWAP1 PUSH1 0x9 MUL ADD PUSH1 0x4 ADD SLOAD PUSH1 0x8 PUSH1 0x0 DUP15 PUSH20 0xFFFFFFFFFFFFFFFFFFFFFFFFFFFFFFFFFFFFFFFF AND PUSH20 0xFFFFFFFFFFFFFFFFFFFFFFFFFFFFFFFFFFFFFFFF AND DUP2 MSTORE PUSH1 0x20 ADD SWAP1 DUP2 MSTORE PUSH1 0x20 ADD PUSH1 0x0 KECCAK256 DUP13 DUP2 SLOAD DUP2 LT PUSH2 0x233C JUMPI INVALID JUMPDEST SWAP1 PUSH1 0x0 MSTORE PUSH1 0x20 PUSH1 0x0 KECCAK256 SWAP1 PUSH1 0x9 MUL ADD PUSH1 0x5 ADD SLOAD SWAP6 POP SWAP6 POP SWAP6 POP SWAP6 POP SWAP6 POP SWAP6 POP SWAP3 SWAP6 POP SWAP3 SWAP6 POP SWAP3 SWAP6 JUMP JUMPDEST PUSH1 0x60 PUSH1 0x5 DUP1 SLOAD DUP1 PUSH1 0x20 MUL PUSH1 0x20 ADD PUSH1 0x40 MLOAD SWAP1 DUP2 ADD PUSH1 0x40 MSTORE DUP1 SWAP3 SWAP2 SWAP1 DUP2 DUP2 MSTORE PUSH1 0x20 ADD DUP3 DUP1 SLOAD DUP1 ISZERO PUSH2 0x23B2 JUMPI PUSH1 0x20 MUL DUP3 ADD SWAP2 SWAP1 PUSH1 0x0 MSTORE PUSH1 0x20 PUSH1 0x0 KECCAK256 SWAP1 JUMPDEST DUP2 SLOAD DUP2 MSTORE PUSH1 0x20 ADD SWAP1 PUSH1 0x1 ADD SWAP1 DUP1 DUP4 GT PUSH2 0x239E JUMPI JUMPDEST POP POP POP POP POP SWAP1 POP SWAP1 JUMP JUMPDEST PUSH1 0xA PUSH1 0x20 MSTORE DUP1 PUSH1 0x0 MSTORE PUSH1 0x40 PUSH1 0x0 KECCAK256 PUSH1 0x0 SWAP2 POP SWAP1 POP SLOAD DUP2 JUMP JUMPDEST PUSH1 0x0 DUP1 SWAP1 SLOAD SWAP1 PUSH2 0x100 EXP SWAP1 DIV PUSH20 0xFFFFFFFFFFFFFFFFFFFFFFFFFFFFFFFFFFFFFFFF AND PUSH20 0xFFFFFFFFFFFFFFFFFFFFFFFFFFFFFFFFFFFFFFFF AND CALLER PUSH20 0xFFFFFFFFFFFFFFFFFFFFFFFFFFFFFFFFFFFFFFFF AND EQ PUSH2 0x2496 JUMPI PUSH1 0x40 MLOAD PUSH32 0x8C379A000000000000000000000000000000000000000000000000000000000 DUP2 MSTORE PUSH1 0x4 ADD DUP1 DUP1 PUSH1 0x20 ADD DUP3 DUP2 SUB DUP3 MSTORE PUSH1 0x16 DUP2 MSTORE PUSH1 0x20 ADD DUP1 PUSH32 0x6F6E6C79206465706C6F7965722063616E2063616C6C00000000000000000000 DUP2 MSTORE POP PUSH1 0x20 ADD SWAP2 POP POP PUSH1 0x40 MLOAD DUP1 SWAP2 SUB SWAP1 REVERT JUMPDEST PUSH1 0x1 PUSH1 0x0 SWAP1 SLOAD SWAP1 PUSH2 0x100 EXP SWAP1 DIV PUSH20 0xFFFFFFFFFFFFFFFFFFFFFFFFFFFFFFFFFFFFFFFF AND PUSH20 0xFFFFFFFFFFFFFFFFFFFFFFFFFFFFFFFFFFFFFFFF AND PUSH4 0x23B872DD CALLER ADDRESS DUP5 PUSH1 0x40 MLOAD DUP5 PUSH4 0xFFFFFFFF AND PUSH1 0xE0 SHL DUP2 MSTORE PUSH1 0x4 ADD DUP1 DUP5 PUSH20 0xFFFFFFFFFFFFFFFFFFFFFFFFFFFFFFFFFFFFFFFF AND PUSH20 0xFFFFFFFFFFFFFFFFFFFFFFFFFFFFFFFFFFFFFFFF AND DUP2 MSTORE PUSH1 0x20 ADD DUP4 PUSH20 0xFFFFFFFFFFFFFFFFFFFFFFFFFFFFFFFFFFFFFFFF AND PUSH20 0xFFFFFFFFFFFFFFFFFFFFFFFFFFFFFFFFFFFFFFFF AND DUP2 MSTORE PUSH1 0x20 ADD DUP3 DUP2 MSTORE PUSH1 0x20 ADD SWAP4 POP POP POP POP PUSH1 0x20 PUSH1 0x40 MLOAD DUP1 DUP4 SUB DUP2 PUSH1 0x0 DUP8 DUP1 EXTCODESIZE ISZERO DUP1 ISZERO PUSH2 0x2573 JUMPI PUSH1 0x0 DUP1 REVERT JUMPDEST POP GAS CALL ISZERO DUP1 ISZERO PUSH2 0x2587 JUMPI RETURNDATASIZE PUSH1 0x0 DUP1 RETURNDATACOPY RETURNDATASIZE PUSH1 0x0 REVERT JUMPDEST POP POP POP POP PUSH1 0x40 MLOAD RETURNDATASIZE PUSH1 0x20 DUP2 LT ISZERO PUSH2 0x259D JUMPI PUSH1 0x0 DUP1 REVERT JUMPDEST DUP2 ADD SWAP1 DUP1 DUP1 MLOAD SWAP1 PUSH1 0x20 ADD SWAP1 SWAP3 SWAP2 SWAP1 POP POP POP PUSH2 0x25B7 JUMPI PUSH1 0x0 DUP1 REVERT JUMPDEST PUSH2 0x25CC DUP2 PUSH1 0xB SLOAD PUSH2 0x519B SWAP1 SWAP2 SWAP1 PUSH4 0xFFFFFFFF AND JUMP JUMPDEST PUSH1 0xB DUP2 SWAP1 SSTORE POP POP JUMP JUMPDEST PUSH1 0x4 SLOAD DUP2 JUMP JUMPDEST PUSH1 0x0 DUP1 SWAP1 SLOAD SWAP1 PUSH2 0x100 EXP SWAP1 DIV PUSH20 0xFFFFFFFFFFFFFFFFFFFFFFFFFFFFFFFFFFFFFFFF AND PUSH20 0xFFFFFFFFFFFFFFFFFFFFFFFFFFFFFFFFFFFFFFFF AND CALLER PUSH20 0xFFFFFFFFFFFFFFFFFFFFFFFFFFFFFFFFFFFFFFFF AND EQ PUSH2 0x269D JUMPI PUSH1 0x40 MLOAD PUSH32 0x8C379A000000000000000000000000000000000000000000000000000000000 DUP2 MSTORE PUSH1 0x4 ADD DUP1 DUP1 PUSH1 0x20 ADD DUP3 DUP2 SUB DUP3 MSTORE PUSH1 0x16 DUP2 MSTORE PUSH1 0x20 ADD DUP1 PUSH32 0x6F6E6C79206465706C6F7965722063616E2063616C6C00000000000000000000 DUP2 MSTORE POP PUSH1 0x20 ADD SWAP2 POP POP PUSH1 0x40 MLOAD DUP1 SWAP2 SUB SWAP1 REVERT JUMPDEST PUSH1 0x0 DUP1 SWAP1 POP JUMPDEST DUP3 MLOAD DUP2 LT ISZERO PUSH2 0x278F JUMPI PUSH2 0x26C1 DUP3 PUSH1 0xB SLOAD PUSH2 0x511B SWAP1 SWAP2 SWAP1 PUSH4 0xFFFFFFFF AND JUMP JUMPDEST PUSH1 0xB DUP2 SWAP1 SSTORE POP PUSH2 0x272C DUP3 PUSH1 0xC PUSH1 0x0 DUP7 DUP6 DUP2 MLOAD DUP2 LT PUSH2 0x26DB JUMPI INVALID JUMPDEST PUSH1 0x20 MUL PUSH1 0x20 ADD ADD MLOAD PUSH20 0xFFFFFFFFFFFFFFFFFFFFFFFFFFFFFFFFFFFFFFFF AND PUSH20 0xFFFFFFFFFFFFFFFFFFFFFFFFFFFFFFFFFFFFFFFF AND DUP2 MSTORE PUSH1 0x20 ADD SWAP1 DUP2 MSTORE PUSH1 0x20 ADD PUSH1 0x0 KECCAK256 SLOAD PUSH2 0x519B SWAP1 SWAP2 SWAP1 PUSH4 0xFFFFFFFF AND JUMP JUMPDEST PUSH1 0xC PUSH1 0x0 DUP6 DUP5 DUP2 MLOAD DUP2 LT PUSH2 0x273C JUMPI INVALID JUMPDEST PUSH1 0x20 MUL PUSH1 0x20 ADD ADD MLOAD PUSH20 0xFFFFFFFFFFFFFFFFFFFFFFFFFFFFFFFFFFFFFFFF AND PUSH20 0xFFFFFFFFFFFFFFFFFFFFFFFFFFFFFFFFFFFFFFFF AND DUP2 MSTORE PUSH1 0x20 ADD SWAP1 DUP2 MSTORE PUSH1 0x20 ADD PUSH1 0x0 KECCAK256 DUP2 SWAP1 SSTORE POP DUP1 DUP1 PUSH1 0x1 ADD SWAP2 POP POP PUSH2 0x26A3 JUMP JUMPDEST POP POP POP JUMP JUMPDEST PUSH1 0x6 DUP2 DUP2 SLOAD DUP2 LT PUSH2 0x27A1 JUMPI INVALID JUMPDEST SWAP1 PUSH1 0x0 MSTORE PUSH1 0x20 PUSH1 0x0 KECCAK256 SWAP1 PUSH1 0x2 MUL ADD PUSH1 0x0 SWAP2 POP SWAP1 POP DUP1 PUSH1 0x0 ADD SLOAD SWAP1 DUP1 PUSH1 0x1 ADD SLOAD SWAP1 POP DUP3 JUMP JUMPDEST PUSH1 0xC PUSH1 0x20 MSTORE DUP1 PUSH1 0x0 MSTORE PUSH1 0x40 PUSH1 0x0 KECCAK256 PUSH1 0x0 SWAP2 POP SWAP1 POP SLOAD DUP2 JUMP JUMPDEST PUSH1 0x0 DUP1 SWAP1 SLOAD SWAP1 PUSH2 0x100 EXP SWAP1 DIV PUSH20 0xFFFFFFFFFFFFFFFFFFFFFFFFFFFFFFFFFFFFFFFF AND PUSH20 0xFFFFFFFFFFFFFFFFFFFFFFFFFFFFFFFFFFFFFFFF AND CALLER PUSH20 0xFFFFFFFFFFFFFFFFFFFFFFFFFFFFFFFFFFFFFFFF AND EQ PUSH2 0x289F JUMPI PUSH1 0x40 MLOAD PUSH32 0x8C379A000000000000000000000000000000000000000000000000000000000 DUP2 MSTORE PUSH1 0x4 ADD DUP1 DUP1 PUSH1 0x20 ADD DUP3 DUP2 SUB DUP3 MSTORE PUSH1 0x16 DUP2 MSTORE PUSH1 0x20 ADD DUP1 PUSH32 0x6F6E6C79206465706C6F7965722063616E2063616C6C00000000000000000000 DUP2 MSTORE POP PUSH1 0x20 ADD SWAP2 POP POP PUSH1 0x40 MLOAD DUP1 SWAP2 SUB SWAP1 REVERT JUMPDEST PUSH1 0x7 PUSH1 0x40 MLOAD DUP1 PUSH1 0x40 ADD PUSH1 0x40 MSTORE DUP1 DUP5 DUP2 MSTORE PUSH1 0x20 ADD DUP4 DUP2 MSTORE POP SWAP1 DUP1 PUSH1 0x1 DUP2 SLOAD ADD DUP1 DUP3 SSTORE DUP1 SWAP2 POP POP SWAP1 PUSH1 0x1 DUP3 SUB SWAP1 PUSH1 0x0 MSTORE PUSH1 0x20 PUSH1 0x0 KECCAK256 SWAP1 PUSH1 0x2 MUL ADD PUSH1 0x0 SWAP1 SWAP2 SWAP3 SWAP1 SWAP2 SWAP1 SWAP2 POP PUSH1 0x0 DUP3 ADD MLOAD DUP2 PUSH1 0x0 ADD SSTORE PUSH1 0x20 DUP3 ADD MLOAD DUP2 PUSH1 0x1 ADD SSTORE POP POP POP POP POP JUMP JUMPDEST PUSH1 0x0 DUP1 SWAP1 SLOAD SWAP1 PUSH2 0x100 EXP SWAP1 DIV PUSH20 0xFFFFFFFFFFFFFFFFFFFFFFFFFFFFFFFFFFFFFFFF AND DUP2 JUMP JUMPDEST PUSH1 0x0 DUP1 PUSH2 0x29A8 PUSH1 0x4 SLOAD PUSH2 0x299A PUSH1 0x3 SLOAD PUSH1 0x8 PUSH1 0x0 DUP12 PUSH20 0xFFFFFFFFFFFFFFFFFFFFFFFFFFFFFFFFFFFFFFFF AND PUSH20 0xFFFFFFFFFFFFFFFFFFFFFFFFFFFFFFFFFFFFFFFF AND DUP2 MSTORE PUSH1 0x20 ADD SWAP1 DUP2 MSTORE PUSH1 0x20 ADD PUSH1 0x0 KECCAK256 DUP10 DUP2 SLOAD DUP2 LT PUSH2 0x297A JUMPI INVALID JUMPDEST SWAP1 PUSH1 0x0 MSTORE PUSH1 0x20 PUSH1 0x0 KECCAK256 SWAP1 PUSH1 0x9 MUL ADD PUSH1 0x1 ADD SLOAD PUSH2 0x511B SWAP1 SWAP2 SWAP1 PUSH4 0xFFFFFFFF AND JUMP JUMPDEST PUSH2 0x5175 SWAP1 SWAP2 SWAP1 PUSH4 0xFFFFFFFF AND JUMP JUMPDEST SWAP1 POP DUP3 PUSH1 0x1 DUP3 ADD GT ISZERO DUP1 ISZERO PUSH2 0x2A38 JUMPI POP DUP3 PUSH1 0x6 PUSH1 0x8 PUSH1 0x0 DUP10 PUSH20 0xFFFFFFFFFFFFFFFFFFFFFFFFFFFFFFFFFFFFFFFF AND PUSH20 0xFFFFFFFFFFFFFFFFFFFFFFFFFFFFFFFFFFFFFFFF AND DUP2 MSTORE PUSH1 0x20 ADD SWAP1 DUP2 MSTORE PUSH1 0x20 ADD PUSH1 0x0 KECCAK256 DUP8 DUP2 SLOAD DUP2 LT PUSH2 0x2A05 JUMPI INVALID JUMPDEST SWAP1 PUSH1 0x0 MSTORE PUSH1 0x20 PUSH1 0x0 KECCAK256 SWAP1 PUSH1 0x9 MUL ADD PUSH1 0x2 ADD SLOAD DUP2 SLOAD DUP2 LT PUSH2 0x2A21 JUMPI INVALID JUMPDEST SWAP1 PUSH1 0x0 MSTORE PUSH1 0x20 PUSH1 0x0 KECCAK256 SWAP1 PUSH1 0x2 MUL ADD PUSH1 0x0 ADD SLOAD DUP3 ADD LT ISZERO JUMPDEST DUP1 ISZERO PUSH2 0x2A9F JUMPI POP PUSH1 0x1 PUSH1 0x8 PUSH1 0x0 DUP9 PUSH20 0xFFFFFFFFFFFFFFFFFFFFFFFFFFFFFFFFFFFFFFFF AND PUSH20 0xFFFFFFFFFFFFFFFFFFFFFFFFFFFFFFFFFFFFFFFF AND DUP2 MSTORE PUSH1 0x20 ADD SWAP1 DUP2 MSTORE PUSH1 0x20 ADD PUSH1 0x0 KECCAK256 DUP7 DUP2 SLOAD DUP2 LT PUSH2 0x2A8B JUMPI INVALID JUMPDEST SWAP1 PUSH1 0x0 MSTORE PUSH1 0x20 PUSH1 0x0 KECCAK256 SWAP1 PUSH1 0x9 MUL ADD PUSH1 0x3 ADD SLOAD EQ JUMPDEST DUP1 ISZERO PUSH2 0x2BDB JUMPI POP DUP3 DUP5 EQ ISZERO DUP1 PUSH2 0x2BDA JUMPI POP PUSH2 0x2B34 PUSH2 0x2ACA PUSH1 0x4 SLOAD DUP4 DUP8 SUB PUSH2 0x513B SWAP1 SWAP2 SWAP1 PUSH4 0xFFFFFFFF AND JUMP JUMPDEST PUSH1 0x8 PUSH1 0x0 DUP10 PUSH20 0xFFFFFFFFFFFFFFFFFFFFFFFFFFFFFFFFFFFFFFFF AND PUSH20 0xFFFFFFFFFFFFFFFFFFFFFFFFFFFFFFFFFFFFFFFF AND DUP2 MSTORE PUSH1 0x20 ADD SWAP1 DUP2 MSTORE PUSH1 0x20 ADD PUSH1 0x0 KECCAK256 DUP8 DUP2 SLOAD DUP2 LT PUSH2 0x2B14 JUMPI INVALID JUMPDEST SWAP1 PUSH1 0x0 MSTORE PUSH1 0x20 PUSH1 0x0 KECCAK256 SWAP1 PUSH1 0x9 MUL ADD PUSH1 0x1 ADD SLOAD PUSH2 0x519B SWAP1 SWAP2 SWAP1 PUSH4 0xFFFFFFFF AND JUMP JUMPDEST PUSH1 0x1 PUSH1 0x0 SWAP1 SLOAD SWAP1 PUSH2 0x100 EXP SWAP1 DIV PUSH20 0xFFFFFFFFFFFFFFFFFFFFFFFFFFFFFFFFFFFFFFFF AND PUSH20 0xFFFFFFFFFFFFFFFFFFFFFFFFFFFFFFFFFFFFFFFF AND PUSH4 0xB81F90F3 PUSH1 0x40 MLOAD DUP2 PUSH4 0xFFFFFFFF AND PUSH1 0xE0 SHL DUP2 MSTORE PUSH1 0x4 ADD PUSH1 0x20 PUSH1 0x40 MLOAD DUP1 DUP4 SUB DUP2 DUP7 DUP1 EXTCODESIZE ISZERO DUP1 ISZERO PUSH2 0x2B9C JUMPI PUSH1 0x0 DUP1 REVERT JUMPDEST POP GAS STATICCALL ISZERO DUP1 ISZERO PUSH2 0x2BB0 JUMPI RETURNDATASIZE PUSH1 0x0 DUP1 RETURNDATACOPY RETURNDATASIZE PUSH1 0x0 REVERT JUMPDEST POP POP POP POP PUSH1 0x40 MLOAD RETURNDATASIZE PUSH1 0x20 DUP2 LT ISZERO PUSH2 0x2BC6 JUMPI PUSH1 0x0 DUP1 REVERT JUMPDEST DUP2 ADD SWAP1 DUP1 DUP1 MLOAD SWAP1 PUSH1 0x20 ADD SWAP1 SWAP3 SWAP2 SWAP1 POP POP POP LT ISZERO JUMPDEST JUMPDEST SWAP2 POP POP SWAP5 SWAP4 POP POP POP POP JUMP JUMPDEST PUSH1 0x9 PUSH1 0x20 MSTORE DUP2 PUSH1 0x0 MSTORE PUSH1 0x40 PUSH1 0x0 KECCAK256 DUP2 DUP2 SLOAD DUP2 LT PUSH2 0x2BFF JUMPI INVALID JUMPDEST SWAP1 PUSH1 0x0 MSTORE PUSH1 0x20 PUSH1 0x0 KECCAK256 SWAP1 PUSH1 0x5 MUL ADD PUSH1 0x0 SWAP2 POP SWAP2 POP POP DUP1 PUSH1 0x0 ADD SLOAD SWAP1 DUP1 PUSH1 0x1 ADD SLOAD SWAP1 DUP1 PUSH1 0x2 ADD SLOAD SWAP1 DUP1 PUSH1 0x3 ADD SLOAD SWAP1 POP DUP5 JUMP JUMPDEST PUSH1 0x1 PUSH1 0x8 PUSH1 0x0 CALLER PUSH20 0xFFFFFFFFFFFFFFFFFFFFFFFFFFFFFFFFFFFFFFFF AND PUSH20 0xFFFFFFFFFFFFFFFFFFFFFFFFFFFFFFFFFFFFFFFF AND DUP2 MSTORE PUSH1 0x20 ADD SWAP1 DUP2 MSTORE PUSH1 0x20 ADD PUSH1 0x0 KECCAK256 DUP3 DUP2 SLOAD DUP2 LT PUSH2 0x2C7C JUMPI INVALID JUMPDEST SWAP1 PUSH1 0x0 MSTORE PUSH1 0x20 PUSH1 0x0 KECCAK256 SWAP1 PUSH1 0x9 MUL ADD PUSH1 0x3 ADD SLOAD EQ PUSH2 0x2CE4 JUMPI PUSH1 0x40 MLOAD PUSH32 0x8C379A000000000000000000000000000000000000000000000000000000000 DUP2 MSTORE PUSH1 0x4 ADD DUP1 DUP1 PUSH1 0x20 ADD DUP3 DUP2 SUB DUP3 MSTORE PUSH1 0x21 DUP2 MSTORE PUSH1 0x20 ADD DUP1 PUSH2 0x52D4 PUSH1 0x21 SWAP2 CODECOPY PUSH1 0x40 ADD SWAP2 POP POP PUSH1 0x40 MLOAD DUP1 SWAP2 SUB SWAP1 REVERT JUMPDEST PUSH1 0x4 PUSH1 0x8 PUSH1 0x0 CALLER PUSH20 0xFFFFFFFFFFFFFFFFFFFFFFFFFFFFFFFFFFFFFFFF AND PUSH20 0xFFFFFFFFFFFFFFFFFFFFFFFFFFFFFFFFFFFFFFFF AND DUP2 MSTORE PUSH1 0x20 ADD SWAP1 DUP2 MSTORE PUSH1 0x20 ADD PUSH1 0x0 KECCAK256 DUP3 DUP2 SLOAD DUP2 LT PUSH2 0x2D30 JUMPI INVALID JUMPDEST SWAP1 PUSH1 0x0 MSTORE PUSH1 0x20 PUSH1 0x0 KECCAK256 SWAP1 PUSH1 0x9 MUL ADD PUSH1 0x3 ADD DUP2 SWAP1 SSTORE POP PUSH1 0x0 PUSH2 0x2D4F PUSH2 0x4087 JUMP JUMPDEST SWAP1 POP PUSH1 0x0 PUSH2 0x2DD7 PUSH1 0x4 SLOAD PUSH2 0x2DC9 PUSH1 0x3 SLOAD PUSH1 0x8 PUSH1 0x0 CALLER PUSH20 0xFFFFFFFFFFFFFFFFFFFFFFFFFFFFFFFFFFFFFFFF AND PUSH20 0xFFFFFFFFFFFFFFFFFFFFFFFFFFFFFFFFFFFFFFFF AND DUP2 MSTORE PUSH1 0x20 ADD SWAP1 DUP2 MSTORE PUSH1 0x20 ADD PUSH1 0x0 KECCAK256 DUP8 DUP2 SLOAD DUP2 LT PUSH2 0x2DA9 JUMPI INVALID JUMPDEST SWAP1 PUSH1 0x0 MSTORE PUSH1 0x20 PUSH1 0x0 KECCAK256 SWAP1 PUSH1 0x9 MUL ADD PUSH1 0x1 ADD SLOAD PUSH2 0x511B SWAP1 SWAP2 SWAP1 PUSH4 0xFFFFFFFF AND JUMP JUMPDEST PUSH2 0x5175 SWAP1 SWAP2 SWAP1 PUSH4 0xFFFFFFFF AND JUMP JUMPDEST SWAP1 POP PUSH1 0x0 PUSH1 0x6 PUSH1 0x8 PUSH1 0x0 CALLER PUSH20 0xFFFFFFFFFFFFFFFFFFFFFFFFFFFFFFFFFFFFFFFF AND PUSH20 0xFFFFFFFFFFFFFFFFFFFFFFFFFFFFFFFFFFFFFFFF AND DUP2 MSTORE PUSH1 0x20 ADD SWAP1 DUP2 MSTORE PUSH1 0x20 ADD PUSH1 0x0 KECCAK256 DUP6 DUP2 SLOAD DUP2 LT PUSH2 0x2E27 JUMPI INVALID JUMPDEST SWAP1 PUSH1 0x0 MSTORE PUSH1 0x20 PUSH1 0x0 KECCAK256 SWAP1 PUSH1 0x9 MUL ADD PUSH1 0x2 ADD SLOAD DUP2 SLOAD DUP2 LT PUSH2 0x2E43 JUMPI INVALID JUMPDEST SWAP1 PUSH1 0x0 MSTORE PUSH1 0x20 PUSH1 0x0 KECCAK256 SWAP1 PUSH1 0x2 MUL ADD PUSH1 0x0 ADD SLOAD DUP3 ADD SWAP1 POP PUSH1 0x0 PUSH1 0x1 DUP5 ADD SWAP1 POP JUMPDEST DUP2 DUP2 GT PUSH2 0x2F0E JUMPI PUSH2 0x2EEA PUSH1 0x8 PUSH1 0x0 CALLER PUSH20 0xFFFFFFFFFFFFFFFFFFFFFFFFFFFFFFFFFFFFFFFF AND PUSH20 0xFFFFFFFFFFFFFFFFFFFFFFFFFFFFFFFFFFFFFFFF AND DUP2 MSTORE PUSH1 0x20 ADD SWAP1 DUP2 MSTORE PUSH1 0x20 ADD PUSH1 0x0 KECCAK256 DUP7 DUP2 SLOAD DUP2 LT PUSH2 0x2EB6 JUMPI INVALID JUMPDEST SWAP1 PUSH1 0x0 MSTORE PUSH1 0x20 PUSH1 0x0 KECCAK256 SWAP1 PUSH1 0x9 MUL ADD PUSH1 0x0 ADD SLOAD PUSH1 0xA PUSH1 0x0 DUP5 DUP2 MSTORE PUSH1 0x20 ADD SWAP1 DUP2 MSTORE PUSH1 0x20 ADD PUSH1 0x0 KECCAK256 SLOAD PUSH2 0x511B SWAP1 SWAP2 SWAP1 PUSH4 0xFFFFFFFF AND JUMP JUMPDEST PUSH1 0xA PUSH1 0x0 DUP4 DUP2 MSTORE PUSH1 0x20 ADD SWAP1 DUP2 MSTORE PUSH1 0x20 ADD PUSH1 0x0 KECCAK256 DUP2 SWAP1 SSTORE POP DUP1 DUP1 PUSH1 0x1 ADD SWAP2 POP POP PUSH2 0x2E62 JUMP JUMPDEST POP PUSH2 0x2F17 PUSH2 0x4087 JUMP JUMPDEST PUSH1 0x8 PUSH1 0x0 CALLER PUSH20 0xFFFFFFFFFFFFFFFFFFFFFFFFFFFFFFFFFFFFFFFF AND PUSH20 0xFFFFFFFFFFFFFFFFFFFFFFFFFFFFFFFFFFFFFFFF AND DUP2 MSTORE PUSH1 0x20 ADD SWAP1 DUP2 MSTORE PUSH1 0x20 ADD PUSH1 0x0 KECCAK256 DUP6 DUP2 SLOAD DUP2 LT PUSH2 0x2F61 JUMPI INVALID JUMPDEST SWAP1 PUSH1 0x0 MSTORE PUSH1 0x20 PUSH1 0x0 KECCAK256 SWAP1 PUSH1 0x9 MUL ADD PUSH1 0x7 ADD DUP2 SWAP1 SSTORE POP PUSH1 0x18 PUSH1 0x8 PUSH1 0x0 CALLER PUSH20 0xFFFFFFFFFFFFFFFFFFFFFFFFFFFFFFFFFFFFFFFF AND PUSH20 0xFFFFFFFFFFFFFFFFFFFFFFFFFFFFFFFFFFFFFFFF AND DUP2 MSTORE PUSH1 0x20 ADD SWAP1 DUP2 MSTORE PUSH1 0x20 ADD PUSH1 0x0 KECCAK256 DUP6 DUP2 SLOAD DUP2 LT PUSH2 0x2FC2 JUMPI INVALID JUMPDEST SWAP1 PUSH1 0x0 MSTORE PUSH1 0x20 PUSH1 0x0 KECCAK256 SWAP1 PUSH1 0x9 MUL ADD PUSH1 0x8 ADD DUP2 SWAP1 SSTORE POP POP POP POP POP JUMP JUMPDEST PUSH1 0x0 PUSH1 0x8 PUSH1 0x0 DUP4 PUSH20 0xFFFFFFFFFFFFFFFFFFFFFFFFFFFFFFFFFFFFFFFF AND PUSH20 0xFFFFFFFFFFFFFFFFFFFFFFFFFFFFFFFFFFFFFFFF AND DUP2 MSTORE PUSH1 0x20 ADD SWAP1 DUP2 MSTORE PUSH1 0x20 ADD PUSH1 0x0 KECCAK256 DUP1 SLOAD SWAP1 POP SWAP1 POP SWAP2 SWAP1 POP JUMP JUMPDEST PUSH1 0x0 DUP1 PUSH2 0x3034 PUSH2 0x4087 JUMP JUMPDEST SWAP1 POP PUSH1 0x0 DUP1 PUSH1 0x0 SWAP1 POP JUMPDEST DUP5 MLOAD DUP2 LT ISZERO PUSH2 0x31AD JUMPI PUSH2 0x3066 DUP7 DUP7 DUP4 DUP2 MLOAD DUP2 LT PUSH2 0x3057 JUMPI INVALID JUMPDEST PUSH1 0x20 MUL PUSH1 0x20 ADD ADD MLOAD DUP6 DUP7 PUSH2 0x2921 JUMP JUMPDEST ISZERO PUSH2 0x31A0 JUMPI PUSH2 0x319D PUSH2 0x318E PUSH1 0xF PUSH2 0x3180 PUSH1 0x6 PUSH1 0x8 PUSH1 0x0 DUP13 PUSH20 0xFFFFFFFFFFFFFFFFFFFFFFFFFFFFFFFFFFFFFFFF AND PUSH20 0xFFFFFFFFFFFFFFFFFFFFFFFFFFFFFFFFFFFFFFFF AND DUP2 MSTORE PUSH1 0x20 ADD SWAP1 DUP2 MSTORE PUSH1 0x20 ADD PUSH1 0x0 KECCAK256 DUP11 DUP8 DUP2 MLOAD DUP2 LT PUSH2 0x30C3 JUMPI INVALID JUMPDEST PUSH1 0x20 MUL PUSH1 0x20 ADD ADD MLOAD DUP2 SLOAD DUP2 LT PUSH2 0x30D5 JUMPI INVALID JUMPDEST SWAP1 PUSH1 0x0 MSTORE PUSH1 0x20 PUSH1 0x0 KECCAK256 SWAP1 PUSH1 0x9 MUL ADD PUSH1 0x2 ADD SLOAD DUP2 SLOAD DUP2 LT PUSH2 0x30F1 JUMPI INVALID JUMPDEST SWAP1 PUSH1 0x0 MSTORE PUSH1 0x20 PUSH1 0x0 KECCAK256 SWAP1 PUSH1 0x2 MUL ADD PUSH1 0x1 ADD SLOAD PUSH1 0x8 PUSH1 0x0 DUP13 PUSH20 0xFFFFFFFFFFFFFFFFFFFFFFFFFFFFFFFFFFFFFFFF AND PUSH20 0xFFFFFFFFFFFFFFFFFFFFFFFFFFFFFFFFFFFFFFFF AND DUP2 MSTORE PUSH1 0x20 ADD SWAP1 DUP2 MSTORE PUSH1 0x20 ADD PUSH1 0x0 KECCAK256 DUP11 DUP8 DUP2 MLOAD DUP2 LT PUSH2 0x314E JUMPI INVALID JUMPDEST PUSH1 0x20 MUL PUSH1 0x20 ADD ADD MLOAD DUP2 SLOAD DUP2 LT PUSH2 0x3160 JUMPI INVALID JUMPDEST SWAP1 PUSH1 0x0 MSTORE PUSH1 0x20 PUSH1 0x0 KECCAK256 SWAP1 PUSH1 0x9 MUL ADD PUSH1 0x0 ADD SLOAD PUSH2 0x513B SWAP1 SWAP2 SWAP1 PUSH4 0xFFFFFFFF AND JUMP JUMPDEST PUSH2 0x5175 SWAP1 SWAP2 SWAP1 PUSH4 0xFFFFFFFF AND JUMP JUMPDEST DUP4 PUSH2 0x519B SWAP1 SWAP2 SWAP1 PUSH4 0xFFFFFFFF AND JUMP JUMPDEST SWAP2 POP JUMPDEST DUP1 DUP1 PUSH1 0x1 ADD SWAP2 POP POP PUSH2 0x303E JUMP JUMPDEST POP PUSH2 0x31C2 PUSH1 0x2 DUP3 PUSH2 0x5175 SWAP1 SWAP2 SWAP1 PUSH4 0xFFFFFFFF AND JUMP JUMPDEST SWAP3 POP POP POP SWAP3 SWAP2 POP POP JUMP JUMPDEST PUSH1 0x0 DUP1 SWAP1 SLOAD SWAP1 PUSH2 0x100 EXP SWAP1 DIV PUSH20 0xFFFFFFFFFFFFFFFFFFFFFFFFFFFFFFFFFFFFFFFF AND PUSH20 0xFFFFFFFFFFFFFFFFFFFFFFFFFFFFFFFFFFFFFFFF AND CALLER PUSH20 0xFFFFFFFFFFFFFFFFFFFFFFFFFFFFFFFFFFFFFFFF AND EQ PUSH2 0x328E JUMPI PUSH1 0x40 MLOAD PUSH32 0x8C379A000000000000000000000000000000000000000000000000000000000 DUP2 MSTORE PUSH1 0x4 ADD DUP1 DUP1 PUSH1 0x20 ADD DUP3 DUP2 SUB DUP3 MSTORE PUSH1 0x16 DUP2 MSTORE PUSH1 0x20 ADD DUP1 PUSH32 0x6F6E6C79206465706C6F7965722063616E2063616C6C00000000000000000000 DUP2 MSTORE POP PUSH1 0x20 ADD SWAP2 POP POP PUSH1 0x40 MLOAD DUP1 SWAP2 SUB SWAP1 REVERT JUMPDEST PUSH1 0x6 PUSH1 0x40 MLOAD DUP1 PUSH1 0x40 ADD PUSH1 0x40 MSTORE DUP1 DUP5 DUP2 MSTORE PUSH1 0x20 ADD DUP4 DUP2 MSTORE POP SWAP1 DUP1 PUSH1 0x1 DUP2 SLOAD ADD DUP1 DUP3 SSTORE DUP1 SWAP2 POP POP SWAP1 PUSH1 0x1 DUP3 SUB SWAP1 PUSH1 0x0 MSTORE PUSH1 0x20 PUSH1 0x0 KECCAK256 SWAP1 PUSH1 0x2 MUL ADD PUSH1 0x0 SWAP1 SWAP2 SWAP3 SWAP1 SWAP2 SWAP1 SWAP2 POP PUSH1 0x0 DUP3 ADD MLOAD DUP2 PUSH1 0x0 ADD SSTORE PUSH1 0x20 DUP3 ADD MLOAD DUP2 PUSH1 0x1 ADD SSTORE POP POP POP POP POP JUMP JUMPDEST PUSH1 0x7 DUP2 DUP2 SLOAD DUP2 LT PUSH2 0x32F8 JUMPI INVALID JUMPDEST SWAP1 PUSH1 0x0 MSTORE PUSH1 0x20 PUSH1 0x0 KECCAK256 SWAP1 PUSH1 0x2 MUL ADD PUSH1 0x0 SWAP2 POP SWAP1 POP DUP1 PUSH1 0x0 ADD SLOAD SWAP1 DUP1 PUSH1 0x1 ADD SLOAD SWAP1 POP DUP3 JUMP JUMPDEST PUSH1 0x0 PUSH2 0x3326 PUSH2 0x4087 JUMP JUMPDEST SWAP1 POP PUSH1 0x0 DUP1 PUSH1 0x0 SWAP1 POP JUMPDEST DUP4 MLOAD DUP2 LT ISZERO PUSH2 0x3772 JUMPI PUSH2 0x3358 CALLER DUP6 DUP4 DUP2 MLOAD DUP2 LT PUSH2 0x3349 JUMPI INVALID JUMPDEST PUSH1 0x20 MUL PUSH1 0x20 ADD ADD MLOAD DUP6 DUP7 PUSH2 0x2921 JUMP JUMPDEST ISZERO PUSH2 0x3765 JUMPI PUSH2 0x348F PUSH2 0x3480 PUSH1 0xF PUSH2 0x3472 PUSH1 0x6 PUSH1 0x8 PUSH1 0x0 CALLER PUSH20 0xFFFFFFFFFFFFFFFFFFFFFFFFFFFFFFFFFFFFFFFF AND PUSH20 0xFFFFFFFFFFFFFFFFFFFFFFFFFFFFFFFFFFFFFFFF AND DUP2 MSTORE PUSH1 0x20 ADD SWAP1 DUP2 MSTORE PUSH1 0x20 ADD PUSH1 0x0 KECCAK256 DUP10 DUP8 DUP2 MLOAD DUP2 LT PUSH2 0x33B5 JUMPI INVALID JUMPDEST PUSH1 0x20 MUL PUSH1 0x20 ADD ADD MLOAD DUP2 SLOAD DUP2 LT PUSH2 0x33C7 JUMPI INVALID JUMPDEST SWAP1 PUSH1 0x0 MSTORE PUSH1 0x20 PUSH1 0x0 KECCAK256 SWAP1 PUSH1 0x9 MUL ADD PUSH1 0x2 ADD SLOAD DUP2 SLOAD DUP2 LT PUSH2 0x33E3 JUMPI INVALID JUMPDEST SWAP1 PUSH1 0x0 MSTORE PUSH1 0x20 PUSH1 0x0 KECCAK256 SWAP1 PUSH1 0x2 MUL ADD PUSH1 0x1 ADD SLOAD PUSH1 0x8 PUSH1 0x0 CALLER PUSH20 0xFFFFFFFFFFFFFFFFFFFFFFFFFFFFFFFFFFFFFFFF AND PUSH20 0xFFFFFFFFFFFFFFFFFFFFFFFFFFFFFFFFFFFFFFFF AND DUP2 MSTORE PUSH1 0x20 ADD SWAP1 DUP2 MSTORE PUSH1 0x20 ADD PUSH1 0x0 KECCAK256 DUP10 DUP8 DUP2 MLOAD DUP2 LT PUSH2 0x3440 JUMPI INVALID JUMPDEST PUSH1 0x20 MUL PUSH1 0x20 ADD ADD MLOAD DUP2 SLOAD DUP2 LT PUSH2 0x3452 JUMPI INVALID JUMPDEST SWAP1 PUSH1 0x0 MSTORE PUSH1 0x20 PUSH1 0x0 KECCAK256 SWAP1 PUSH1 0x9 MUL ADD PUSH1 0x0 ADD SLOAD PUSH2 0x513B SWAP1 SWAP2 SWAP1 PUSH4 0xFFFFFFFF AND JUMP JUMPDEST PUSH2 0x5175 SWAP1 SWAP2 SWAP1 PUSH4 0xFFFFFFFF AND JUMP JUMPDEST DUP4 PUSH2 0x519B SWAP1 SWAP2 SWAP1 PUSH4 0xFFFFFFFF AND JUMP JUMPDEST SWAP2 POP PUSH1 0x0 PUSH2 0x352A PUSH1 0x4 SLOAD PUSH2 0x351C PUSH1 0x3 SLOAD PUSH1 0x8 PUSH1 0x0 CALLER PUSH20 0xFFFFFFFFFFFFFFFFFFFFFFFFFFFFFFFFFFFFFFFF AND PUSH20 0xFFFFFFFFFFFFFFFFFFFFFFFFFFFFFFFFFFFFFFFF AND DUP2 MSTORE PUSH1 0x20 ADD SWAP1 DUP2 MSTORE PUSH1 0x20 ADD PUSH1 0x0 KECCAK256 DUP10 DUP8 DUP2 MLOAD DUP2 LT PUSH2 0x34EA JUMPI INVALID JUMPDEST PUSH1 0x20 MUL PUSH1 0x20 ADD ADD MLOAD DUP2 SLOAD DUP2 LT PUSH2 0x34FC JUMPI INVALID JUMPDEST SWAP1 PUSH1 0x0 MSTORE PUSH1 0x20 PUSH1 0x0 KECCAK256 SWAP1 PUSH1 0x9 MUL ADD PUSH1 0x1 ADD SLOAD PUSH2 0x511B SWAP1 SWAP2 SWAP1 PUSH4 0xFFFFFFFF AND JUMP JUMPDEST PUSH2 0x5175 SWAP1 SWAP2 SWAP1 PUSH4 0xFFFFFFFF AND JUMP JUMPDEST SWAP1 POP PUSH1 0x0 PUSH1 0x6 PUSH1 0x8 PUSH1 0x0 CALLER PUSH20 0xFFFFFFFFFFFFFFFFFFFFFFFFFFFFFFFFFFFFFFFF AND PUSH20 0xFFFFFFFFFFFFFFFFFFFFFFFFFFFFFFFFFFFFFFFF AND DUP2 MSTORE PUSH1 0x20 ADD SWAP1 DUP2 MSTORE PUSH1 0x20 ADD PUSH1 0x0 KECCAK256 DUP8 DUP6 DUP2 MLOAD DUP2 LT PUSH2 0x357B JUMPI INVALID JUMPDEST PUSH1 0x20 MUL PUSH1 0x20 ADD ADD MLOAD DUP2 SLOAD DUP2 LT PUSH2 0x358D JUMPI INVALID JUMPDEST SWAP1 PUSH1 0x0 MSTORE PUSH1 0x20 PUSH1 0x0 KECCAK256 SWAP1 PUSH1 0x9 MUL ADD PUSH1 0x2 ADD SLOAD DUP2 SLOAD DUP2 LT PUSH2 0x35A9 JUMPI INVALID JUMPDEST SWAP1 PUSH1 0x0 MSTORE PUSH1 0x20 PUSH1 0x0 KECCAK256 SWAP1 PUSH1 0x2 MUL ADD PUSH1 0x0 ADD SLOAD DUP3 ADD SWAP1 POP PUSH1 0x0 PUSH1 0x1 DUP7 ADD SWAP1 POP JUMPDEST DUP2 DUP2 GT PUSH2 0x3619 JUMPI PUSH2 0x35F5 DUP6 PUSH1 0xA PUSH1 0x0 DUP5 DUP2 MSTORE PUSH1 0x20 ADD SWAP1 DUP2 MSTORE PUSH1 0x20 ADD PUSH1 0x0 KECCAK256 SLOAD PUSH2 0x511B SWAP1 SWAP2 SWAP1 PUSH4 0xFFFFFFFF AND JUMP JUMPDEST PUSH1 0xA PUSH1 0x0 DUP4 DUP2 MSTORE PUSH1 0x20 ADD SWAP1 DUP2 MSTORE PUSH1 0x20 ADD PUSH1 0x0 KECCAK256 DUP2 SWAP1 SSTORE POP DUP1 DUP1 PUSH1 0x1 ADD SWAP2 POP POP PUSH2 0x35C8 JUMP JUMPDEST POP PUSH1 0x0 PUSH1 0x1 SWAP1 POP JUMPDEST PUSH1 0x7 DUP10 DUP2 SLOAD DUP2 LT PUSH2 0x362E JUMPI INVALID JUMPDEST SWAP1 PUSH1 0x0 MSTORE PUSH1 0x20 PUSH1 0x0 KECCAK256 SWAP1 PUSH1 0x2 MUL ADD PUSH1 0x0 ADD SLOAD DUP2 GT PUSH2 0x3761 JUMPI PUSH1 0x1 PUSH1 0x8 PUSH1 0x0 CALLER PUSH20 0xFFFFFFFFFFFFFFFFFFFFFFFFFFFFFFFFFFFFFFFF AND PUSH20 0xFFFFFFFFFFFFFFFFFFFFFFFFFFFFFFFFFFFFFFFF AND DUP2 MSTORE PUSH1 0x20 ADD SWAP1 DUP2 MSTORE PUSH1 0x20 ADD PUSH1 0x0 KECCAK256 DUP9 DUP7 DUP2 MLOAD DUP2 LT PUSH2 0x3693 JUMPI INVALID JUMPDEST PUSH1 0x20 MUL PUSH1 0x20 ADD ADD MLOAD DUP2 SLOAD DUP2 LT PUSH2 0x36A5 JUMPI INVALID JUMPDEST SWAP1 PUSH1 0x0 MSTORE PUSH1 0x20 PUSH1 0x0 KECCAK256 SWAP1 PUSH1 0x9 MUL ADD PUSH1 0x6 ADD PUSH1 0x0 DUP4 DUP10 ADD DUP2 MSTORE PUSH1 0x20 ADD SWAP1 DUP2 MSTORE PUSH1 0x20 ADD PUSH1 0x0 KECCAK256 PUSH1 0x0 PUSH2 0x100 EXP DUP2 SLOAD DUP2 PUSH1 0xFF MUL NOT AND SWAP1 DUP4 ISZERO ISZERO MUL OR SWAP1 SSTORE POP PUSH1 0x2 PUSH1 0x8 PUSH1 0x0 CALLER PUSH20 0xFFFFFFFFFFFFFFFFFFFFFFFFFFFFFFFFFFFFFFFF AND PUSH20 0xFFFFFFFFFFFFFFFFFFFFFFFFFFFFFFFFFFFFFFFF AND DUP2 MSTORE PUSH1 0x20 ADD SWAP1 DUP2 MSTORE PUSH1 0x20 ADD PUSH1 0x0 KECCAK256 DUP9 DUP7 DUP2 MLOAD DUP2 LT PUSH2 0x372D JUMPI INVALID JUMPDEST PUSH1 0x20 MUL PUSH1 0x20 ADD ADD MLOAD DUP2 SLOAD DUP2 LT PUSH2 0x373F JUMPI INVALID JUMPDEST SWAP1 PUSH1 0x0 MSTORE PUSH1 0x20 PUSH1 0x0 KECCAK256 SWAP1 PUSH1 0x9 MUL ADD PUSH1 0x3 ADD DUP2 SWAP1 SSTORE POP DUP1 DUP1 PUSH1 0x1 ADD SWAP2 POP POP PUSH2 0x3621 JUMP JUMPDEST POP POP POP JUMPDEST DUP1 DUP1 PUSH1 0x1 ADD SWAP2 POP POP PUSH2 0x3330 JUMP JUMPDEST POP PUSH1 0x0 PUSH2 0x3789 PUSH1 0x2 DUP4 PUSH2 0x5175 SWAP1 SWAP2 SWAP1 PUSH4 0xFFFFFFFF AND JUMP JUMPDEST SWAP1 POP DUP1 DUP6 GT ISZERO PUSH2 0x37EB JUMPI PUSH1 0x0 PUSH2 0x37EA JUMPI PUSH1 0x40 MLOAD PUSH32 0x8C379A000000000000000000000000000000000000000000000000000000000 DUP2 MSTORE PUSH1 0x4 ADD DUP1 DUP1 PUSH1 0x20 ADD DUP3 DUP2 SUB DUP3 MSTORE PUSH1 0x26 DUP2 MSTORE PUSH1 0x20 ADD DUP1 PUSH2 0x5247 PUSH1 0x26 SWAP2 CODECOPY PUSH1 0x40 ADD SWAP2 POP POP PUSH1 0x40 MLOAD DUP1 SWAP2 SUB SWAP1 REVERT JUMPDEST JUMPDEST PUSH1 0x0 PUSH2 0x3831 PUSH1 0x64 PUSH2 0x3823 PUSH1 0x7 DUP11 DUP2 SLOAD DUP2 LT PUSH2 0x3802 JUMPI INVALID JUMPDEST SWAP1 PUSH1 0x0 MSTORE PUSH1 0x20 PUSH1 0x0 KECCAK256 SWAP1 PUSH1 0x2 MUL ADD PUSH1 0x1 ADD SLOAD DUP10 PUSH2 0x513B SWAP1 SWAP2 SWAP1 PUSH4 0xFFFFFFFF AND JUMP JUMPDEST PUSH2 0x5175 SWAP1 SWAP2 SWAP1 PUSH4 0xFFFFFFFF AND JUMP JUMPDEST SWAP1 POP PUSH1 0x0 PUSH2 0x3848 DUP3 DUP9 PUSH2 0x511B SWAP1 SWAP2 SWAP1 PUSH4 0xFFFFFFFF AND JUMP JUMPDEST SWAP1 POP PUSH1 0x1 PUSH1 0x0 SWAP1 SLOAD SWAP1 PUSH2 0x100 EXP SWAP1 DIV PUSH20 0xFFFFFFFFFFFFFFFFFFFFFFFFFFFFFFFFFFFFFFFF AND PUSH20 0xFFFFFFFFFFFFFFFFFFFFFFFFFFFFFFFFFFFFFFFF AND PUSH4 0xA9059CBB PUSH1 0x2 PUSH1 0x0 SWAP1 SLOAD SWAP1 PUSH2 0x100 EXP SWAP1 DIV PUSH20 0xFFFFFFFFFFFFFFFFFFFFFFFFFFFFFFFFFFFFFFFF AND DUP5 PUSH1 0x40 MLOAD DUP4 PUSH4 0xFFFFFFFF AND PUSH1 0xE0 SHL DUP2 MSTORE PUSH1 0x4 ADD DUP1 DUP4 PUSH20 0xFFFFFFFFFFFFFFFFFFFFFFFFFFFFFFFFFFFFFFFF AND PUSH20 0xFFFFFFFFFFFFFFFFFFFFFFFFFFFFFFFFFFFFFFFF AND DUP2 MSTORE PUSH1 0x20 ADD DUP3 DUP2 MSTORE PUSH1 0x20 ADD SWAP3 POP POP POP PUSH1 0x20 PUSH1 0x40 MLOAD DUP1 DUP4 SUB DUP2 PUSH1 0x0 DUP8 DUP1 EXTCODESIZE ISZERO DUP1 ISZERO PUSH2 0x3915 JUMPI PUSH1 0x0 DUP1 REVERT JUMPDEST POP GAS CALL ISZERO DUP1 ISZERO PUSH2 0x3929 JUMPI RETURNDATASIZE PUSH1 0x0 DUP1 RETURNDATACOPY RETURNDATASIZE PUSH1 0x0 REVERT JUMPDEST POP POP POP POP PUSH1 0x40 MLOAD RETURNDATASIZE PUSH1 0x20 DUP2 LT ISZERO PUSH2 0x393F JUMPI PUSH1 0x0 DUP1 REVERT JUMPDEST DUP2 ADD SWAP1 DUP1 DUP1 MLOAD SWAP1 PUSH1 0x20 ADD SWAP1 SWAP3 SWAP2 SWAP1 POP POP POP PUSH2 0x3959 JUMPI PUSH1 0x0 DUP1 REVERT JUMPDEST PUSH1 0x2 PUSH1 0x0 SWAP1 SLOAD SWAP1 PUSH2 0x100 EXP SWAP1 DIV PUSH20 0xFFFFFFFFFFFFFFFFFFFFFFFFFFFFFFFFFFFFFFFF AND PUSH20 0xFFFFFFFFFFFFFFFFFFFFFFFFFFFFFFFFFFFFFFFF AND PUSH4 0x382E2AAB DUP4 PUSH1 0x40 MLOAD DUP3 PUSH4 0xFFFFFFFF AND PUSH1 0xE0 SHL DUP2 MSTORE PUSH1 0x4 ADD DUP1 DUP3 DUP2 MSTORE PUSH1 0x20 ADD SWAP2 POP POP PUSH1 0x20 PUSH1 0x40 MLOAD DUP1 DUP4 SUB DUP2 PUSH1 0x0 DUP8 DUP1 EXTCODESIZE ISZERO DUP1 ISZERO PUSH2 0x39CE JUMPI PUSH1 0x0 DUP1 REVERT JUMPDEST POP GAS CALL ISZERO DUP1 ISZERO PUSH2 0x39E2 JUMPI RETURNDATASIZE PUSH1 0x0 DUP1 RETURNDATACOPY RETURNDATASIZE PUSH1 0x0 REVERT JUMPDEST POP POP POP POP PUSH1 0x40 MLOAD RETURNDATASIZE PUSH1 0x20 DUP2 LT ISZERO PUSH2 0x39F8 JUMPI PUSH1 0x0 DUP1 REVERT JUMPDEST DUP2 ADD SWAP1 DUP1 DUP1 MLOAD SWAP1 PUSH1 0x20 ADD SWAP1 SWAP3 SWAP2 SWAP1 POP POP POP PUSH2 0x3A12 JUMPI PUSH1 0x0 DUP1 REVERT JUMPDEST PUSH1 0x9 PUSH1 0x0 CALLER PUSH20 0xFFFFFFFFFFFFFFFFFFFFFFFFFFFFFFFFFFFFFFFF AND PUSH20 0xFFFFFFFFFFFFFFFFFFFFFFFFFFFFFFFFFFFFFFFF AND DUP2 MSTORE PUSH1 0x20 ADD SWAP1 DUP2 MSTORE PUSH1 0x20 ADD PUSH1 0x0 KECCAK256 PUSH1 0x40 MLOAD DUP1 PUSH1 0xA0 ADD PUSH1 0x40 MSTORE DUP1 DUP10 DUP2 MSTORE PUSH1 0x20 ADD PUSH1 0x1 PUSH1 0x0 SWAP1 SLOAD SWAP1 PUSH2 0x100 EXP SWAP1 DIV PUSH20 0xFFFFFFFFFFFFFFFFFFFFFFFFFFFFFFFFFFFFFFFF AND PUSH20 0xFFFFFFFFFFFFFFFFFFFFFFFFFFFFFFFFFFFFFFFF AND PUSH4 0xB81F90F3 PUSH1 0x40 MLOAD DUP2 PUSH4 0xFFFFFFFF AND PUSH1 0xE0 SHL DUP2 MSTORE PUSH1 0x4 ADD PUSH1 0x20 PUSH1 0x40 MLOAD DUP1 DUP4 SUB DUP2 DUP7 DUP1 EXTCODESIZE ISZERO DUP1 ISZERO PUSH2 0x3ACA JUMPI PUSH1 0x0 DUP1 REVERT JUMPDEST POP GAS STATICCALL ISZERO DUP1 ISZERO PUSH2 0x3ADE JUMPI RETURNDATASIZE PUSH1 0x0 DUP1 RETURNDATACOPY RETURNDATASIZE PUSH1 0x0 REVERT JUMPDEST POP POP POP POP PUSH1 0x40 MLOAD RETURNDATASIZE PUSH1 0x20 DUP2 LT ISZERO PUSH2 0x3AF4 JUMPI PUSH1 0x0 DUP1 REVERT JUMPDEST DUP2 ADD SWAP1 DUP1 DUP1 MLOAD SWAP1 PUSH1 0x20 ADD SWAP1 SWAP3 SWAP2 SWAP1 POP POP POP DUP2 MSTORE PUSH1 0x20 ADD DUP11 DUP2 MSTORE PUSH1 0x20 ADD PUSH1 0x1 DUP2 MSTORE PUSH1 0x20 ADD DUP9 DUP2 MSTORE POP SWAP1 DUP1 PUSH1 0x1 DUP2 SLOAD ADD DUP1 DUP3 SSTORE DUP1 SWAP2 POP POP SWAP1 PUSH1 0x1 DUP3 SUB SWAP1 PUSH1 0x0 MSTORE PUSH1 0x20 PUSH1 0x0 KECCAK256 SWAP1 PUSH1 0x5 MUL ADD PUSH1 0x0 SWAP1 SWAP2 SWAP3 SWAP1 SWAP2 SWAP1 SWAP2 POP PUSH1 0x0 DUP3 ADD MLOAD DUP2 PUSH1 0x0 ADD SSTORE PUSH1 0x20 DUP3 ADD MLOAD DUP2 PUSH1 0x1 ADD SSTORE PUSH1 0x40 DUP3 ADD MLOAD DUP2 PUSH1 0x2 ADD SSTORE PUSH1 0x60 DUP3 ADD MLOAD DUP2 PUSH1 0x3 ADD SSTORE PUSH1 0x80 DUP3 ADD MLOAD DUP2 PUSH1 0x4 ADD SWAP1 DUP1 MLOAD SWAP1 PUSH1 0x20 ADD SWAP1 PUSH2 0x3B8A SWAP3 SWAP2 SWAP1 PUSH2 0x51D4 JUMP JUMPDEST POP POP POP POP PUSH1 0x1 PUSH1 0x0 SWAP1 SLOAD SWAP1 PUSH2 0x100 EXP SWAP1 DIV PUSH20 0xFFFFFFFFFFFFFFFFFFFFFFFFFFFFFFFFFFFFFFFF AND PUSH20 0xFFFFFFFFFFFFFFFFFFFFFFFFFFFFFFFFFFFFFFFF AND PUSH4 0xA9059CBB CALLER DUP4 PUSH1 0x40 MLOAD DUP4 PUSH4 0xFFFFFFFF AND PUSH1 0xE0 SHL DUP2 MSTORE PUSH1 0x4 ADD DUP1 DUP4 PUSH20 0xFFFFFFFFFFFFFFFFFFFFFFFFFFFFFFFFFFFFFFFF AND PUSH20 0xFFFFFFFFFFFFFFFFFFFFFFFFFFFFFFFFFFFFFFFF AND DUP2 MSTORE PUSH1 0x20 ADD DUP3 DUP2 MSTORE PUSH1 0x20 ADD SWAP3 POP POP POP PUSH1 0x20 PUSH1 0x40 MLOAD DUP1 DUP4 SUB DUP2 PUSH1 0x0 DUP8 DUP1 EXTCODESIZE ISZERO DUP1 ISZERO PUSH2 0x3C37 JUMPI PUSH1 0x0 DUP1 REVERT JUMPDEST POP GAS CALL ISZERO DUP1 ISZERO PUSH2 0x3C4B JUMPI RETURNDATASIZE PUSH1 0x0 DUP1 RETURNDATACOPY RETURNDATASIZE PUSH1 0x0 REVERT JUMPDEST POP POP POP POP PUSH1 0x40 MLOAD RETURNDATASIZE PUSH1 0x20 DUP2 LT ISZERO PUSH2 0x3C61 JUMPI PUSH1 0x0 DUP1 REVERT JUMPDEST DUP2 ADD SWAP1 DUP1 DUP1 MLOAD SWAP1 PUSH1 0x20 ADD SWAP1 SWAP3 SWAP2 SWAP1 POP POP POP PUSH2 0x3C7B JUMPI PUSH1 0x0 DUP1 REVERT JUMPDEST DUP8 CALLER PUSH20 0xFFFFFFFFFFFFFFFFFFFFFFFFFFFFFFFFFFFFFFFF AND PUSH32 0x583F4A449110798C282200EA42774808B8147FA4BCB89A6CA406DD0650E034E7 DUP10 DUP6 PUSH1 0x1 PUSH1 0x9 PUSH1 0x0 CALLER PUSH20 0xFFFFFFFFFFFFFFFFFFFFFFFFFFFFFFFFFFFFFFFF AND PUSH20 0xFFFFFFFFFFFFFFFFFFFFFFFFFFFFFFFFFFFFFFFF AND DUP2 MSTORE PUSH1 0x20 ADD SWAP1 DUP2 MSTORE PUSH1 0x20 ADD PUSH1 0x0 KECCAK256 DUP1 SLOAD SWAP1 POP SUB PUSH1 0x40 MLOAD DUP1 DUP5 DUP2 MSTORE PUSH1 0x20 ADD DUP4 DUP2 MSTORE PUSH1 0x20 ADD DUP3 DUP2 MSTORE PUSH1 0x20 ADD SWAP4 POP POP POP POP PUSH1 0x40 MLOAD DUP1 SWAP2 SUB SWAP1 LOG3 POP POP POP POP POP POP POP POP JUMP JUMPDEST PUSH1 0x0 PUSH1 0xC PUSH1 0x0 CALLER PUSH20 0xFFFFFFFFFFFFFFFFFFFFFFFFFFFFFFFFFFFFFFFF AND PUSH20 0xFFFFFFFFFFFFFFFFFFFFFFFFFFFFFFFFFFFFFFFF AND DUP2 MSTORE PUSH1 0x20 ADD SWAP1 DUP2 MSTORE PUSH1 0x20 ADD PUSH1 0x0 KECCAK256 SLOAD GT PUSH2 0x3D75 JUMPI PUSH1 0x0 DUP1 REVERT JUMPDEST PUSH1 0x0 PUSH1 0xC PUSH1 0x0 CALLER PUSH20 0xFFFFFFFFFFFFFFFFFFFFFFFFFFFFFFFFFFFFFFFF AND PUSH20 0xFFFFFFFFFFFFFFFFFFFFFFFFFFFFFFFFFFFFFFFF AND DUP2 MSTORE PUSH1 0x20 ADD SWAP1 DUP2 MSTORE PUSH1 0x20 ADD PUSH1 0x0 KECCAK256 SLOAD SWAP1 POP PUSH1 0x0 PUSH1 0xC PUSH1 0x0 CALLER PUSH20 0xFFFFFFFFFFFFFFFFFFFFFFFFFFFFFFFFFFFFFFFF AND PUSH20 0xFFFFFFFFFFFFFFFFFFFFFFFFFFFFFFFFFFFFFFFF AND DUP2 MSTORE PUSH1 0x20 ADD SWAP1 DUP2 MSTORE PUSH1 0x20 ADD PUSH1 0x0 KECCAK256 DUP2 SWAP1 SSTORE POP PUSH1 0x0 PUSH1 0x6 DUP4 DUP2 SLOAD DUP2 LT PUSH2 0x3E0D JUMPI INVALID JUMPDEST SWAP1 PUSH1 0x0 MSTORE PUSH1 0x20 PUSH1 0x0 KECCAK256 SWAP1 PUSH1 0x2 MUL ADD PUSH1 0x0 ADD SLOAD PUSH1 0x1 PUSH2 0x3E29 PUSH2 0x4087 JUMP JUMPDEST ADD ADD SWAP1 POP PUSH1 0x0 PUSH1 0x1 PUSH2 0x3E39 PUSH2 0x4087 JUMP JUMPDEST ADD SWAP1 POP JUMPDEST DUP2 DUP2 LT ISZERO PUSH2 0x3E7F JUMPI DUP3 PUSH1 0xA PUSH1 0x0 DUP4 DUP2 MSTORE PUSH1 0x20 ADD SWAP1 DUP2 MSTORE PUSH1 0x20 ADD PUSH1 0x0 KECCAK256 SLOAD ADD PUSH1 0xA PUSH1 0x0 DUP4 DUP2 MSTORE PUSH1 0x20 ADD SWAP1 DUP2 MSTORE PUSH1 0x20 ADD PUSH1 0x0 KECCAK256 DUP2 SWAP1 SSTORE POP DUP1 DUP1 PUSH1 0x1 ADD SWAP2 POP POP PUSH2 0x3E3D JUMP JUMPDEST POP PUSH1 0x0 PUSH1 0x8 PUSH1 0x0 CALLER PUSH20 0xFFFFFFFFFFFFFFFFFFFFFFFFFFFFFFFFFFFFFFFF AND PUSH20 0xFFFFFFFFFFFFFFFFFFFFFFFFFFFFFFFFFFFFFFFF AND DUP2 MSTORE PUSH1 0x20 ADD SWAP1 DUP2 MSTORE PUSH1 0x20 ADD PUSH1 0x0 KECCAK256 SWAP1 POP DUP1 PUSH1 0x40 MLOAD DUP1 PUSH2 0x100 ADD PUSH1 0x40 MSTORE DUP1 DUP6 DUP2 MSTORE PUSH1 0x20 ADD PUSH1 0x1 PUSH1 0x0 SWAP1 SLOAD SWAP1 PUSH2 0x100 EXP SWAP1 DIV PUSH20 0xFFFFFFFFFFFFFFFFFFFFFFFFFFFFFFFFFFFFFFFF AND PUSH20 0xFFFFFFFFFFFFFFFFFFFFFFFFFFFFFFFFFFFFFFFF AND PUSH4 0xB81F90F3 PUSH1 0x40 MLOAD DUP2 PUSH4 0xFFFFFFFF AND PUSH1 0xE0 SHL DUP2 MSTORE PUSH1 0x4 ADD PUSH1 0x20 PUSH1 0x40 MLOAD DUP1 DUP4 SUB DUP2 DUP7 DUP1 EXTCODESIZE ISZERO DUP1 ISZERO PUSH2 0x3F3E JUMPI PUSH1 0x0 DUP1 REVERT JUMPDEST POP GAS STATICCALL ISZERO DUP1 ISZERO PUSH2 0x3F52 JUMPI RETURNDATASIZE PUSH1 0x0 DUP1 RETURNDATACOPY RETURNDATASIZE PUSH1 0x0 REVERT JUMPDEST POP POP POP POP PUSH1 0x40 MLOAD RETURNDATASIZE PUSH1 0x20 DUP2 LT ISZERO PUSH2 0x3F68 JUMPI PUSH1 0x0 DUP1 REVERT JUMPDEST DUP2 ADD SWAP1 DUP1 DUP1 MLOAD SWAP1 PUSH1 0x20 ADD SWAP1 SWAP3 SWAP2 SWAP1 POP POP POP DUP2 MSTORE PUSH1 0x20 ADD DUP7 DUP2 MSTORE PUSH1 0x20 ADD PUSH1 0x1 DUP2 MSTORE PUSH1 0x20 ADD PUSH1 0x0 DUP2 MSTORE PUSH1 0x20 ADD PUSH1 0x0 DUP2 MSTORE PUSH1 0x20 ADD PUSH1 0x0 DUP2 MSTORE PUSH1 0x20 ADD PUSH1 0x0 DUP2 MSTORE POP SWAP1 DUP1 PUSH1 0x1 DUP2 SLOAD ADD DUP1 DUP3 SSTORE DUP1 SWAP2 POP POP SWAP1 PUSH1 0x1 DUP3 SUB SWAP1 PUSH1 0x0 MSTORE PUSH1 0x20 PUSH1 0x0 KECCAK256 SWAP1 PUSH1 0x9 MUL ADD PUSH1 0x0 SWAP1 SWAP2 SWAP3 SWAP1 SWAP2 SWAP1 SWAP2 POP PUSH1 0x0 DUP3 ADD MLOAD DUP2 PUSH1 0x0 ADD SSTORE PUSH1 0x20 DUP3 ADD MLOAD DUP2 PUSH1 0x1 ADD SSTORE PUSH1 0x40 DUP3 ADD MLOAD DUP2 PUSH1 0x2 ADD SSTORE PUSH1 0x60 DUP3 ADD MLOAD DUP2 PUSH1 0x3 ADD SSTORE PUSH1 0x80 DUP3 ADD MLOAD DUP2 PUSH1 0x4 ADD SSTORE PUSH1 0xA0 DUP3 ADD MLOAD DUP2 PUSH1 0x5 ADD SSTORE PUSH1 0xC0 DUP3 ADD MLOAD DUP2 PUSH1 0x7 ADD SSTORE PUSH1 0xE0 DUP3 ADD MLOAD DUP2 PUSH1 0x8 ADD SSTORE POP POP POP DUP4 CALLER PUSH20 0xFFFFFFFFFFFFFFFFFFFFFFFFFFFFFFFFFFFFFFFF AND PUSH32 0x680A0E2E97AD7C29DA7985E37B699F19857C055166F801E50D90661EAE30FCC3 DUP6 PUSH1 0x1 DUP6 DUP1 SLOAD SWAP1 POP SUB PUSH1 0x40 MLOAD DUP1 DUP4 DUP2 MSTORE PUSH1 0x20 ADD DUP3 DUP2 MSTORE PUSH1 0x20 ADD SWAP3 POP POP POP PUSH1 0x40 MLOAD DUP1 SWAP2 SUB SWAP1 LOG3 POP POP POP POP JUMP JUMPDEST PUSH1 0x0 PUSH1 0x1 PUSH1 0x5 DUP1 SLOAD SWAP1 POP SUB SWAP1 POP SWAP1 JUMP JUMPDEST PUSH1 0x1 PUSH1 0x9 PUSH1 0x0 CALLER PUSH20 0xFFFFFFFFFFFFFFFFFFFFFFFFFFFFFFFFFFFFFFFF AND PUSH20 0xFFFFFFFFFFFFFFFFFFFFFFFFFFFFFFFFFFFFFFFF AND DUP2 MSTORE PUSH1 0x20 ADD SWAP1 DUP2 MSTORE PUSH1 0x20 ADD PUSH1 0x0 KECCAK256 DUP3 DUP2 SLOAD DUP2 LT PUSH2 0x40E3 JUMPI INVALID JUMPDEST SWAP1 PUSH1 0x0 MSTORE PUSH1 0x20 PUSH1 0x0 KECCAK256 SWAP1 PUSH1 0x5 MUL ADD PUSH1 0x3 ADD SLOAD EQ PUSH2 0x4168 JUMPI PUSH1 0x40 MLOAD PUSH32 0x8C379A000000000000000000000000000000000000000000000000000000000 DUP2 MSTORE PUSH1 0x4 ADD DUP1 DUP1 PUSH1 0x20 ADD DUP3 DUP2 SUB DUP3 MSTORE PUSH1 0x1C DUP2 MSTORE PUSH1 0x20 ADD DUP1 PUSH32 0x63616E206F6E6C792072657061792070656E64696E67206C6F616E7300000000 DUP2 MSTORE POP PUSH1 0x20 ADD SWAP2 POP POP PUSH1 0x40 MLOAD DUP1 SWAP2 SUB SWAP1 REVERT JUMPDEST PUSH1 0x1 PUSH1 0x0 SWAP1 SLOAD SWAP1 PUSH2 0x100 EXP SWAP1 DIV PUSH20 0xFFFFFFFFFFFFFFFFFFFFFFFFFFFFFFFFFFFFFFFF AND PUSH20 0xFFFFFFFFFFFFFFFFFFFFFFFFFFFFFFFFFFFFFFFF AND PUSH4 0x23B872DD CALLER ADDRESS PUSH1 0x9 PUSH1 0x0 CALLER PUSH20 0xFFFFFFFFFFFFFFFFFFFFFFFFFFFFFFFFFFFFFFFF AND PUSH20 0xFFFFFFFFFFFFFFFFFFFFFFFFFFFFFFFFFFFFFFFF AND DUP2 MSTORE PUSH1 0x20 ADD SWAP1 DUP2 MSTORE PUSH1 0x20 ADD PUSH1 0x0 KECCAK256 DUP6 DUP2 SLOAD DUP2 LT PUSH2 0x41F2 JUMPI INVALID JUMPDEST SWAP1 PUSH1 0x0 MSTORE PUSH1 0x20 PUSH1 0x0 KECCAK256 SWAP1 PUSH1 0x5 MUL ADD PUSH1 0x0 ADD SLOAD PUSH1 0x40 MLOAD DUP5 PUSH4 0xFFFFFFFF AND PUSH1 0xE0 SHL DUP2 MSTORE PUSH1 0x4 ADD DUP1 DUP5 PUSH20 0xFFFFFFFFFFFFFFFFFFFFFFFFFFFFFFFFFFFFFFFF AND PUSH20 0xFFFFFFFFFFFFFFFFFFFFFFFFFFFFFFFFFFFFFFFF AND DUP2 MSTORE PUSH1 0x20 ADD DUP4 PUSH20 0xFFFFFFFFFFFFFFFFFFFFFFFFFFFFFFFFFFFFFFFF AND PUSH20 0xFFFFFFFFFFFFFFFFFFFFFFFFFFFFFFFFFFFFFFFF AND DUP2 MSTORE PUSH1 0x20 ADD DUP3 DUP2 MSTORE PUSH1 0x20 ADD SWAP4 POP POP POP POP PUSH1 0x20 PUSH1 0x40 MLOAD DUP1 DUP4 SUB DUP2 PUSH1 0x0 DUP8 DUP1 EXTCODESIZE ISZERO DUP1 ISZERO PUSH2 0x42A0 JUMPI PUSH1 0x0 DUP1 REVERT JUMPDEST POP GAS CALL ISZERO DUP1 ISZERO PUSH2 0x42B4 JUMPI RETURNDATASIZE PUSH1 0x0 DUP1 RETURNDATACOPY RETURNDATASIZE PUSH1 0x0 REVERT JUMPDEST POP POP POP POP PUSH1 0x40 MLOAD RETURNDATASIZE PUSH1 0x20 DUP2 LT ISZERO PUSH2 0x42CA JUMPI PUSH1 0x0 DUP1 REVERT JUMPDEST DUP2 ADD SWAP1 DUP1 DUP1 MLOAD SWAP1 PUSH1 0x20 ADD SWAP1 SWAP3 SWAP2 SWAP1 POP POP POP PUSH2 0x4330 JUMPI PUSH1 0x40 MLOAD PUSH32 0x8C379A000000000000000000000000000000000000000000000000000000000 DUP2 MSTORE PUSH1 0x4 ADD DUP1 DUP1 PUSH1 0x20 ADD DUP3 DUP2 SUB DUP3 MSTORE PUSH1 0x40 DUP2 MSTORE PUSH1 0x20 ADD DUP1 PUSH2 0x5294 PUSH1 0x40 SWAP2 CODECOPY PUSH1 0x40 ADD SWAP2 POP POP PUSH1 0x40 MLOAD DUP1 SWAP2 SUB SWAP1 REVERT JUMPDEST PUSH1 0x2 PUSH1 0x9 PUSH1 0x0 CALLER PUSH20 0xFFFFFFFFFFFFFFFFFFFFFFFFFFFFFFFFFFFFFFFF AND PUSH20 0xFFFFFFFFFFFFFFFFFFFFFFFFFFFFFFFFFFFFFFFF AND DUP2 MSTORE PUSH1 0x20 ADD SWAP1 DUP2 MSTORE PUSH1 0x20 ADD PUSH1 0x0 KECCAK256 DUP3 DUP2 SLOAD DUP2 LT PUSH2 0x437C JUMPI INVALID JUMPDEST SWAP1 PUSH1 0x0 MSTORE PUSH1 0x20 PUSH1 0x0 KECCAK256 SWAP1 PUSH1 0x5 MUL ADD PUSH1 0x3 ADD DUP2 SWAP1 SSTORE POP PUSH1 0x0 DUP1 SWAP1 POP JUMPDEST PUSH1 0x9 PUSH1 0x0 CALLER PUSH20 0xFFFFFFFFFFFFFFFFFFFFFFFFFFFFFFFFFFFFFFFF AND PUSH20 0xFFFFFFFFFFFFFFFFFFFFFFFFFFFFFFFFFFFFFFFF AND DUP2 MSTORE PUSH1 0x20 ADD SWAP1 DUP2 MSTORE PUSH1 0x20 ADD PUSH1 0x0 KECCAK256 DUP3 DUP2 SLOAD DUP2 LT PUSH2 0x43E1 JUMPI INVALID JUMPDEST SWAP1 PUSH1 0x0 MSTORE PUSH1 0x20 PUSH1 0x0 KECCAK256 SWAP1 PUSH1 0x5 MUL ADD PUSH1 0x4 ADD DUP1 SLOAD SWAP1 POP DUP2 LT ISZERO PUSH2 0x472D JUMPI PUSH1 0x0 PUSH1 0x9 PUSH1 0x0 CALLER PUSH20 0xFFFFFFFFFFFFFFFFFFFFFFFFFFFFFFFFFFFFFFFF AND PUSH20 0xFFFFFFFFFFFFFFFFFFFFFFFFFFFFFFFFFFFFFFFF AND DUP2 MSTORE PUSH1 0x20 ADD SWAP1 DUP2 MSTORE PUSH1 0x20 ADD PUSH1 0x0 KECCAK256 DUP4 DUP2 SLOAD DUP2 LT PUSH2 0x4449 JUMPI INVALID JUMPDEST SWAP1 PUSH1 0x0 MSTORE PUSH1 0x20 PUSH1 0x0 KECCAK256 SWAP1 PUSH1 0x5 MUL ADD PUSH1 0x4 ADD DUP3 DUP2 SLOAD DUP2 LT PUSH2 0x4465 JUMPI INVALID JUMPDEST SWAP1 PUSH1 0x0 MSTORE PUSH1 0x20 PUSH1 0x0 KECCAK256 ADD SLOAD SWAP1 POP PUSH1 0x1 PUSH1 0x8 PUSH1 0x0 CALLER PUSH20 0xFFFFFFFFFFFFFFFFFFFFFFFFFFFFFFFFFFFFFFFF AND PUSH20 0xFFFFFFFFFFFFFFFFFFFFFFFFFFFFFFFFFFFFFFFF AND DUP2 MSTORE PUSH1 0x20 ADD SWAP1 DUP2 MSTORE PUSH1 0x20 ADD PUSH1 0x0 KECCAK256 DUP3 DUP2 SLOAD DUP2 LT PUSH2 0x44BE JUMPI INVALID JUMPDEST SWAP1 PUSH1 0x0 MSTORE PUSH1 0x20 PUSH1 0x0 KECCAK256 SWAP1 PUSH1 0x9 MUL ADD PUSH1 0x3 ADD DUP2 SWAP1 SSTORE POP PUSH1 0x0 PUSH2 0x4559 PUSH1 0x4 SLOAD PUSH2 0x454B PUSH1 0x3 SLOAD PUSH1 0x8 PUSH1 0x0 CALLER PUSH20 0xFFFFFFFFFFFFFFFFFFFFFFFFFFFFFFFFFFFFFFFF AND PUSH20 0xFFFFFFFFFFFFFFFFFFFFFFFFFFFFFFFFFFFFFFFF AND DUP2 MSTORE PUSH1 0x20 ADD SWAP1 DUP2 MSTORE PUSH1 0x20 ADD PUSH1 0x0 KECCAK256 DUP7 DUP2 SLOAD DUP2 LT PUSH2 0x452B JUMPI INVALID JUMPDEST SWAP1 PUSH1 0x0 MSTORE PUSH1 0x20 PUSH1 0x0 KECCAK256 SWAP1 PUSH1 0x9 MUL ADD PUSH1 0x1 ADD SLOAD PUSH2 0x511B SWAP1 SWAP2 SWAP1 PUSH4 0xFFFFFFFF AND JUMP JUMPDEST PUSH2 0x5175 SWAP1 SWAP2 SWAP1 PUSH4 0xFFFFFFFF AND JUMP JUMPDEST SWAP1 POP PUSH1 0x0 PUSH1 0x6 PUSH1 0x8 PUSH1 0x0 CALLER PUSH20 0xFFFFFFFFFFFFFFFFFFFFFFFFFFFFFFFFFFFFFFFF AND PUSH20 0xFFFFFFFFFFFFFFFFFFFFFFFFFFFFFFFFFFFFFFFF AND DUP2 MSTORE PUSH1 0x20 ADD SWAP1 DUP2 MSTORE PUSH1 0x20 ADD PUSH1 0x0 KECCAK256 DUP5 DUP2 SLOAD DUP2 LT PUSH2 0x45A9 JUMPI INVALID JUMPDEST SWAP1 PUSH1 0x0 MSTORE PUSH1 0x20 PUSH1 0x0 KECCAK256 SWAP1 PUSH1 0x9 MUL ADD PUSH1 0x2 ADD SLOAD DUP2 SLOAD DUP2 LT PUSH2 0x45C5 JUMPI INVALID JUMPDEST SWAP1 PUSH1 0x0 MSTORE PUSH1 0x20 PUSH1 0x0 KECCAK256 SWAP1 PUSH1 0x2 MUL ADD PUSH1 0x0 ADD SLOAD DUP3 ADD SWAP1 POP PUSH1 0x0 PUSH1 0x1 PUSH2 0x45E7 PUSH2 0x4087 JUMP JUMPDEST ADD SWAP1 POP JUMPDEST DUP2 DUP2 GT PUSH2 0x471C JUMPI PUSH1 0x0 PUSH1 0x8 PUSH1 0x0 CALLER PUSH20 0xFFFFFFFFFFFFFFFFFFFFFFFFFFFFFFFFFFFFFFFF AND PUSH20 0xFFFFFFFFFFFFFFFFFFFFFFFFFFFFFFFFFFFFFFFF AND DUP2 MSTORE PUSH1 0x20 ADD SWAP1 DUP2 MSTORE PUSH1 0x20 ADD PUSH1 0x0 KECCAK256 DUP6 DUP2 SLOAD DUP2 LT PUSH2 0x463E JUMPI INVALID JUMPDEST SWAP1 PUSH1 0x0 MSTORE PUSH1 0x20 PUSH1 0x0 KECCAK256 SWAP1 PUSH1 0x9 MUL ADD PUSH1 0x6 ADD PUSH1 0x0 DUP8 DUP2 MSTORE PUSH1 0x20 ADD SWAP1 DUP2 MSTORE PUSH1 0x20 ADD PUSH1 0x0 KECCAK256 PUSH1 0x0 PUSH2 0x100 EXP DUP2 SLOAD DUP2 PUSH1 0xFF MUL NOT AND SWAP1 DUP4 ISZERO ISZERO MUL OR SWAP1 SSTORE POP PUSH2 0x46F8 PUSH1 0x8 PUSH1 0x0 CALLER PUSH20 0xFFFFFFFFFFFFFFFFFFFFFFFFFFFFFFFFFFFFFFFF AND PUSH20 0xFFFFFFFFFFFFFFFFFFFFFFFFFFFFFFFFFFFFFFFF AND DUP2 MSTORE PUSH1 0x20 ADD SWAP1 DUP2 MSTORE PUSH1 0x20 ADD PUSH1 0x0 KECCAK256 DUP6 DUP2 SLOAD DUP2 LT PUSH2 0x46C4 JUMPI INVALID JUMPDEST SWAP1 PUSH1 0x0 MSTORE PUSH1 0x20 PUSH1 0x0 KECCAK256 SWAP1 PUSH1 0x9 MUL ADD PUSH1 0x0 ADD SLOAD PUSH1 0xA PUSH1 0x0 DUP5 DUP2 MSTORE PUSH1 0x20 ADD SWAP1 DUP2 MSTORE PUSH1 0x20 ADD PUSH1 0x0 KECCAK256 SLOAD PUSH2 0x519B SWAP1 SWAP2 SWAP1 PUSH4 0xFFFFFFFF AND JUMP JUMPDEST PUSH1 0xA PUSH1 0x0 DUP4 DUP2 MSTORE PUSH1 0x20 ADD SWAP1 DUP2 MSTORE PUSH1 0x20 ADD PUSH1 0x0 KECCAK256 DUP2 SWAP1 SSTORE POP DUP1 DUP1 PUSH1 0x1 ADD SWAP2 POP POP PUSH2 0x45EB JUMP JUMPDEST POP POP POP POP DUP1 DUP1 PUSH1 0x1 ADD SWAP2 POP POP PUSH2 0x4397 JUMP JUMPDEST POP POP JUMP JUMPDEST PUSH1 0x1 PUSH1 0x0 SWAP1 SLOAD SWAP1 PUSH2 0x100 EXP SWAP1 DIV PUSH20 0xFFFFFFFFFFFFFFFFFFFFFFFFFFFFFFFFFFFFFFFF AND PUSH20 0xFFFFFFFFFFFFFFFFFFFFFFFFFFFFFFFFFFFFFFFF AND PUSH4 0x23B872DD CALLER ADDRESS DUP6 PUSH1 0x40 MLOAD DUP5 PUSH4 0xFFFFFFFF AND PUSH1 0xE0 SHL DUP2 MSTORE PUSH1 0x4 ADD DUP1 DUP5 PUSH20 0xFFFFFFFFFFFFFFFFFFFFFFFFFFFFFFFFFFFFFFFF AND PUSH20 0xFFFFFFFFFFFFFFFFFFFFFFFFFFFFFFFFFFFFFFFF AND DUP2 MSTORE PUSH1 0x20 ADD DUP4 PUSH20 0xFFFFFFFFFFFFFFFFFFFFFFFFFFFFFFFFFFFFFFFF AND PUSH20 0xFFFFFFFFFFFFFFFFFFFFFFFFFFFFFFFFFFFFFFFF AND DUP2 MSTORE PUSH1 0x20 ADD DUP3 DUP2 MSTORE PUSH1 0x20 ADD SWAP4 POP POP POP POP PUSH1 0x20 PUSH1 0x40 MLOAD DUP1 DUP4 SUB DUP2 PUSH1 0x0 DUP8 DUP1 EXTCODESIZE ISZERO DUP1 ISZERO PUSH2 0x480E JUMPI PUSH1 0x0 DUP1 REVERT JUMPDEST POP GAS CALL ISZERO DUP1 ISZERO PUSH2 0x4822 JUMPI RETURNDATASIZE PUSH1 0x0 DUP1 RETURNDATACOPY RETURNDATASIZE PUSH1 0x0 REVERT JUMPDEST POP POP POP POP PUSH1 0x40 MLOAD RETURNDATASIZE PUSH1 0x20 DUP2 LT ISZERO PUSH2 0x4838 JUMPI PUSH1 0x0 DUP1 REVERT JUMPDEST DUP2 ADD SWAP1 DUP1 DUP1 MLOAD SWAP1 PUSH1 0x20 ADD SWAP1 SWAP3 SWAP2 SWAP1 POP POP POP PUSH2 0x48BB JUMPI PUSH1 0x40 MLOAD PUSH32 0x8C379A000000000000000000000000000000000000000000000000000000000 DUP2 MSTORE PUSH1 0x4 ADD DUP1 DUP1 PUSH1 0x20 ADD DUP3 DUP2 SUB DUP3 MSTORE PUSH1 0x19 DUP2 MSTORE PUSH1 0x20 ADD DUP1 PUSH32 0x636F756C64206E6F74207472616E7366657220746F6B656E7300000000000000 DUP2 MSTORE POP PUSH1 0x20 ADD SWAP2 POP POP PUSH1 0x40 MLOAD DUP1 SWAP2 SUB SWAP1 REVERT JUMPDEST PUSH1 0x0 PUSH1 0x6 DUP3 DUP2 SLOAD DUP2 LT PUSH2 0x48CA JUMPI INVALID JUMPDEST SWAP1 PUSH1 0x0 MSTORE PUSH1 0x20 PUSH1 0x0 KECCAK256 SWAP1 PUSH1 0x2 MUL ADD PUSH1 0x0 ADD SLOAD PUSH1 0x1 PUSH2 0x48E6 PUSH2 0x4087 JUMP JUMPDEST ADD ADD SWAP1 POP PUSH1 0x0 PUSH1 0x1 PUSH2 0x48F6 PUSH2 0x4087 JUMP JUMPDEST ADD SWAP1 POP JUMPDEST DUP2 DUP2 LT ISZERO PUSH2 0x493C JUMPI DUP4 PUSH1 0xA PUSH1 0x0 DUP4 DUP2 MSTORE PUSH1 0x20 ADD SWAP1 DUP2 MSTORE PUSH1 0x20 ADD PUSH1 0x0 KECCAK256 SLOAD ADD PUSH1 0xA PUSH1 0x0 DUP4 DUP2 MSTORE PUSH1 0x20 ADD SWAP1 DUP2 MSTORE PUSH1 0x20 ADD PUSH1 0x0 KECCAK256 DUP2 SWAP1 SSTORE POP DUP1 DUP1 PUSH1 0x1 ADD SWAP2 POP POP PUSH2 0x48FA JUMP JUMPDEST POP PUSH1 0x0 PUSH1 0x8 PUSH1 0x0 CALLER PUSH20 0xFFFFFFFFFFFFFFFFFFFFFFFFFFFFFFFFFFFFFFFF AND PUSH20 0xFFFFFFFFFFFFFFFFFFFFFFFFFFFFFFFFFFFFFFFF AND DUP2 MSTORE PUSH1 0x20 ADD SWAP1 DUP2 MSTORE PUSH1 0x20 ADD PUSH1 0x0 KECCAK256 SWAP1 POP DUP1 PUSH1 0x40 MLOAD DUP1 PUSH2 0x100 ADD PUSH1 0x40 MSTORE DUP1 DUP7 DUP2 MSTORE PUSH1 0x20 ADD PUSH1 0x1 PUSH1 0x0 SWAP1 SLOAD SWAP1 PUSH2 0x100 EXP SWAP1 DIV PUSH20 0xFFFFFFFFFFFFFFFFFFFFFFFFFFFFFFFFFFFFFFFF AND PUSH20 0xFFFFFFFFFFFFFFFFFFFFFFFFFFFFFFFFFFFFFFFF AND PUSH4 0xB81F90F3 PUSH1 0x40 MLOAD DUP2 PUSH4 0xFFFFFFFF AND PUSH1 0xE0 SHL DUP2 MSTORE PUSH1 0x4 ADD PUSH1 0x20 PUSH1 0x40 MLOAD DUP1 DUP4 SUB DUP2 DUP7 DUP1 EXTCODESIZE ISZERO DUP1 ISZERO PUSH2 0x49FB JUMPI PUSH1 0x0 DUP1 REVERT JUMPDEST POP GAS STATICCALL ISZERO DUP1 ISZERO PUSH2 0x4A0F JUMPI RETURNDATASIZE PUSH1 0x0 DUP1 RETURNDATACOPY RETURNDATASIZE PUSH1 0x0 REVERT JUMPDEST POP POP POP POP PUSH1 0x40 MLOAD RETURNDATASIZE PUSH1 0x20 DUP2 LT ISZERO PUSH2 0x4A25 JUMPI PUSH1 0x0 DUP1 REVERT JUMPDEST DUP2 ADD SWAP1 DUP1 DUP1 MLOAD SWAP1 PUSH1 0x20 ADD SWAP1 SWAP3 SWAP2 SWAP1 POP POP POP DUP2 MSTORE PUSH1 0x20 ADD DUP6 DUP2 MSTORE PUSH1 0x20 ADD PUSH1 0x1 DUP2 MSTORE PUSH1 0x20 ADD PUSH1 0x0 DUP2 MSTORE PUSH1 0x20 ADD PUSH1 0x0 DUP2 MSTORE PUSH1 0x20 ADD PUSH1 0x0 DUP2 MSTORE PUSH1 0x20 ADD PUSH1 0x0 DUP2 MSTORE POP SWAP1 DUP1 PUSH1 0x1 DUP2 SLOAD ADD DUP1 DUP3 SSTORE DUP1 SWAP2 POP POP SWAP1 PUSH1 0x1 DUP3 SUB SWAP1 PUSH1 0x0 MSTORE PUSH1 0x20 PUSH1 0x0 KECCAK256 SWAP1 PUSH1 0x9 MUL ADD PUSH1 0x0 SWAP1 SWAP2 SWAP3 SWAP1 SWAP2 SWAP1 SWAP2 POP PUSH1 0x0 DUP3 ADD MLOAD DUP2 PUSH1 0x0 ADD SSTORE PUSH1 0x20 DUP3 ADD MLOAD DUP2 PUSH1 0x1 ADD SSTORE PUSH1 0x40 DUP3 ADD MLOAD DUP2 PUSH1 0x2 ADD SSTORE PUSH1 0x60 DUP3 ADD MLOAD DUP2 PUSH1 0x3 ADD SSTORE PUSH1 0x80 DUP3 ADD MLOAD DUP2 PUSH1 0x4 ADD SSTORE PUSH1 0xA0 DUP3 ADD MLOAD DUP2 PUSH1 0x5 ADD SSTORE PUSH1 0xC0 DUP3 ADD MLOAD DUP2 PUSH1 0x7 ADD SSTORE PUSH1 0xE0 DUP3 ADD MLOAD DUP2 PUSH1 0x8 ADD SSTORE POP POP POP DUP3 CALLER PUSH20 0xFFFFFFFFFFFFFFFFFFFFFFFFFFFFFFFFFFFFFFFF AND PUSH32 0x680A0E2E97AD7C29DA7985E37B699F19857C055166F801E50D90661EAE30FCC3 DUP7 PUSH1 0x1 DUP6 DUP1 SLOAD SWAP1 POP SUB PUSH1 0x40 MLOAD DUP1 DUP4 DUP2 MSTORE PUSH1 0x20 ADD DUP3 DUP2 MSTORE PUSH1 0x20 ADD SWAP3 POP POP POP PUSH1 0x40 MLOAD DUP1 SWAP2 SUB SWAP1 LOG3 POP POP POP POP JUMP JUMPDEST PUSH1 0x3 SLOAD DUP2 JUMP JUMPDEST PUSH1 0x2 PUSH1 0x0 SWAP1 SLOAD SWAP1 PUSH2 0x100 EXP SWAP1 DIV PUSH20 0xFFFFFFFFFFFFFFFFFFFFFFFFFFFFFFFFFFFFFFFF AND PUSH20 0xFFFFFFFFFFFFFFFFFFFFFFFFFFFFFFFFFFFFFFFF AND CALLER PUSH20 0xFFFFFFFFFFFFFFFFFFFFFFFFFFFFFFFFFFFFFFFF AND EQ PUSH2 0x4C0D JUMPI PUSH1 0x40 MLOAD PUSH32 0x8C379A000000000000000000000000000000000000000000000000000000000 DUP2 MSTORE PUSH1 0x4 ADD DUP1 DUP1 PUSH1 0x20 ADD DUP3 DUP2 SUB DUP3 MSTORE PUSH1 0x19 DUP2 MSTORE PUSH1 0x20 ADD DUP1 PUSH32 0x6F6E6C79204E5254206D616E616765722063616E2063616C6C00000000000000 DUP2 MSTORE POP PUSH1 0x20 ADD SWAP2 POP POP PUSH1 0x40 MLOAD DUP1 SWAP2 SUB SWAP1 REVERT JUMPDEST PUSH1 0x5 DUP2 SWAP1 DUP1 PUSH1 0x1 DUP2 SLOAD ADD DUP1 DUP3 SSTORE DUP1 SWAP2 POP POP SWAP1 PUSH1 0x1 DUP3 SUB SWAP1 PUSH1 0x0 MSTORE PUSH1 0x20 PUSH1 0x0 KECCAK256 ADD PUSH1 0x0 SWAP1 SWAP2 SWAP3 SWAP1 SWAP2 SWAP1 SWAP2 POP SSTORE POP POP JUMP JUMPDEST PUSH1 0x0 DUP1 SWAP1 POP JUMPDEST DUP2 MLOAD DUP2 LT ISZERO PUSH2 0x4FF7 JUMPI PUSH1 0x3 PUSH1 0x8 PUSH1 0x0 CALLER PUSH20 0xFFFFFFFFFFFFFFFFFFFFFFFFFFFFFFFFFFFFFFFF AND PUSH20 0xFFFFFFFFFFFFFFFFFFFFFFFFFFFFFFFFFFFFFFFF AND DUP2 MSTORE PUSH1 0x20 ADD SWAP1 DUP2 MSTORE PUSH1 0x20 ADD PUSH1 0x0 KECCAK256 DUP4 DUP4 DUP2 MLOAD DUP2 LT PUSH2 0x4C98 JUMPI INVALID JUMPDEST PUSH1 0x20 MUL PUSH1 0x20 ADD ADD MLOAD DUP2 SLOAD DUP2 LT PUSH2 0x4CAA JUMPI INVALID JUMPDEST SWAP1 PUSH1 0x0 MSTORE PUSH1 0x20 PUSH1 0x0 KECCAK256 SWAP1 PUSH1 0x9 MUL ADD PUSH1 0x3 ADD DUP2 SWAP1 SSTORE POP PUSH1 0x0 PUSH1 0x8 PUSH1 0x0 CALLER PUSH20 0xFFFFFFFFFFFFFFFFFFFFFFFFFFFFFFFFFFFFFFFF AND PUSH20 0xFFFFFFFFFFFFFFFFFFFFFFFFFFFFFFFFFFFFFFFF AND DUP2 MSTORE PUSH1 0x20 ADD SWAP1 DUP2 MSTORE PUSH1 0x20 ADD PUSH1 0x0 KECCAK256 DUP4 DUP4 DUP2 MLOAD DUP2 LT PUSH2 0x4D0C JUMPI INVALID JUMPDEST PUSH1 0x20 MUL PUSH1 0x20 ADD ADD MLOAD DUP2 SLOAD DUP2 LT PUSH2 0x4D1E JUMPI INVALID JUMPDEST SWAP1 PUSH1 0x0 MSTORE PUSH1 0x20 PUSH1 0x0 KECCAK256 SWAP1 PUSH1 0x9 MUL ADD PUSH1 0x4 ADD SLOAD GT ISZERO PUSH2 0x4E97 JUMPI PUSH1 0x0 PUSH1 0x8 PUSH1 0x0 CALLER PUSH20 0xFFFFFFFFFFFFFFFFFFFFFFFFFFFFFFFFFFFFFFFF AND PUSH20 0xFFFFFFFFFFFFFFFFFFFFFFFFFFFFFFFFFFFFFFFF AND DUP2 MSTORE PUSH1 0x20 ADD SWAP1 DUP2 MSTORE PUSH1 0x20 ADD PUSH1 0x0 KECCAK256 DUP4 DUP4 DUP2 MLOAD DUP2 LT PUSH2 0x4D83 JUMPI INVALID JUMPDEST PUSH1 0x20 MUL PUSH1 0x20 ADD ADD MLOAD DUP2 SLOAD DUP2 LT PUSH2 0x4D95 JUMPI INVALID JUMPDEST SWAP1 PUSH1 0x0 MSTORE PUSH1 0x20 PUSH1 0x0 KECCAK256 SWAP1 PUSH1 0x9 MUL ADD PUSH1 0x4 ADD SLOAD SWAP1 POP PUSH1 0x0 PUSH1 0x8 PUSH1 0x0 CALLER PUSH20 0xFFFFFFFFFFFFFFFFFFFFFFFFFFFFFFFFFFFFFFFF AND PUSH20 0xFFFFFFFFFFFFFFFFFFFFFFFFFFFFFFFFFFFFFFFF AND DUP2 MSTORE PUSH1 0x20 ADD SWAP1 DUP2 MSTORE PUSH1 0x20 ADD PUSH1 0x0 KECCAK256 DUP5 DUP5 DUP2 MLOAD DUP2 LT PUSH2 0x4DF6 JUMPI INVALID JUMPDEST PUSH1 0x20 MUL PUSH1 0x20 ADD ADD MLOAD DUP2 SLOAD DUP2 LT PUSH2 0x4E08 JUMPI INVALID JUMPDEST SWAP1 PUSH1 0x0 MSTORE PUSH1 0x20 PUSH1 0x0 KECCAK256 SWAP1 PUSH1 0x9 MUL ADD PUSH1 0x4 ADD DUP2 SWAP1 SSTORE POP PUSH2 0x4E95 DUP2 PUSH1 0x8 PUSH1 0x0 CALLER PUSH20 0xFFFFFFFFFFFFFFFFFFFFFFFFFFFFFFFFFFFFFFFF AND PUSH20 0xFFFFFFFFFFFFFFFFFFFFFFFFFFFFFFFFFFFFFFFF AND DUP2 MSTORE PUSH1 0x20 ADD SWAP1 DUP2 MSTORE PUSH1 0x20 ADD PUSH1 0x0 KECCAK256 DUP6 DUP6 DUP2 MLOAD DUP2 LT PUSH2 0x4E6C JUMPI INVALID JUMPDEST PUSH1 0x20 MUL PUSH1 0x20 ADD ADD MLOAD DUP2 SLOAD DUP2 LT PUSH2 0x4E7E JUMPI INVALID JUMPDEST SWAP1 PUSH1 0x0 MSTORE PUSH1 0x20 PUSH1 0x0 KECCAK256 SWAP1 PUSH1 0x9 MUL ADD PUSH1 0x2 ADD SLOAD PUSH2 0x4731 JUMP JUMPDEST POP JUMPDEST PUSH1 0x1 PUSH1 0x0 SWAP1 SLOAD SWAP1 PUSH2 0x100 EXP SWAP1 DIV PUSH20 0xFFFFFFFFFFFFFFFFFFFFFFFFFFFFFFFFFFFFFFFF AND PUSH20 0xFFFFFFFFFFFFFFFFFFFFFFFFFFFFFFFFFFFFFFFF AND PUSH4 0xA9059CBB CALLER PUSH1 0x8 PUSH1 0x0 CALLER PUSH20 0xFFFFFFFFFFFFFFFFFFFFFFFFFFFFFFFFFFFFFFFF AND PUSH20 0xFFFFFFFFFFFFFFFFFFFFFFFFFFFFFFFFFFFFFFFF AND DUP2 MSTORE PUSH1 0x20 ADD SWAP1 DUP2 MSTORE PUSH1 0x20 ADD PUSH1 0x0 KECCAK256 DUP6 DUP6 DUP2 MLOAD DUP2 LT PUSH2 0x4F21 JUMPI INVALID JUMPDEST PUSH1 0x20 MUL PUSH1 0x20 ADD ADD MLOAD DUP2 SLOAD DUP2 LT PUSH2 0x4F33 JUMPI INVALID JUMPDEST SWAP1 PUSH1 0x0 MSTORE PUSH1 0x20 PUSH1 0x0 KECCAK256 SWAP1 PUSH1 0x9 MUL ADD PUSH1 0x0 ADD SLOAD PUSH1 0x40 MLOAD DUP4 PUSH4 0xFFFFFFFF AND PUSH1 0xE0 SHL DUP2 MSTORE PUSH1 0x4 ADD DUP1 DUP4 PUSH20 0xFFFFFFFFFFFFFFFFFFFFFFFFFFFFFFFFFFFFFFFF AND PUSH20 0xFFFFFFFFFFFFFFFFFFFFFFFFFFFFFFFFFFFFFFFF AND DUP2 MSTORE PUSH1 0x20 ADD DUP3 DUP2 MSTORE PUSH1 0x20 ADD SWAP3 POP POP POP PUSH1 0x20 PUSH1 0x40 MLOAD DUP1 DUP4 SUB DUP2 PUSH1 0x0 DUP8 DUP1 EXTCODESIZE ISZERO DUP1 ISZERO PUSH2 0x4FAE JUMPI PUSH1 0x0 DUP1 REVERT JUMPDEST POP GAS CALL ISZERO DUP1 ISZERO PUSH2 0x4FC2 JUMPI RETURNDATASIZE PUSH1 0x0 DUP1 RETURNDATACOPY RETURNDATASIZE PUSH1 0x0 REVERT JUMPDEST POP POP POP POP PUSH1 0x40 MLOAD RETURNDATASIZE PUSH1 0x20 DUP2 LT ISZERO PUSH2 0x4FD8 JUMPI PUSH1 0x0 DUP1 REVERT JUMPDEST DUP2 ADD SWAP1 DUP1 DUP1 MLOAD SWAP1 PUSH1 0x20 ADD SWAP1 SWAP3 SWAP2 SWAP1 POP POP POP POP DUP1 DUP1 PUSH1 0x1 ADD SWAP2 POP POP PUSH2 0x4C42 JUMP JUMPDEST POP POP JUMP JUMPDEST PUSH1 0x0 DUP1 PUSH2 0x5006 PUSH2 0x4087 JUMP JUMPDEST SWAP1 POP PUSH1 0x0 DUP1 PUSH1 0x0 SWAP1 POP JUMPDEST PUSH1 0x8 PUSH1 0x0 DUP8 PUSH20 0xFFFFFFFFFFFFFFFFFFFFFFFFFFFFFFFFFFFFFFFF AND PUSH20 0xFFFFFFFFFFFFFFFFFFFFFFFFFFFFFFFFFFFFFFFF AND DUP2 MSTORE PUSH1 0x20 ADD SWAP1 DUP2 MSTORE PUSH1 0x20 ADD PUSH1 0x0 KECCAK256 DUP1 SLOAD SWAP1 POP DUP2 LT ISZERO PUSH2 0x50E9 JUMPI PUSH2 0x5066 DUP7 DUP3 DUP6 DUP9 PUSH2 0x2921 JUMP JUMPDEST ISZERO PUSH2 0x50DC JUMPI PUSH2 0x50D9 PUSH1 0x8 PUSH1 0x0 DUP9 PUSH20 0xFFFFFFFFFFFFFFFFFFFFFFFFFFFFFFFFFFFFFFFF AND PUSH20 0xFFFFFFFFFFFFFFFFFFFFFFFFFFFFFFFFFFFFFFFF AND DUP2 MSTORE PUSH1 0x20 ADD SWAP1 DUP2 MSTORE PUSH1 0x20 ADD PUSH1 0x0 KECCAK256 DUP3 DUP2 SLOAD DUP2 LT PUSH2 0x50B8 JUMPI INVALID JUMPDEST SWAP1 PUSH1 0x0 MSTORE PUSH1 0x20 PUSH1 0x0 KECCAK256 SWAP1 PUSH1 0x9 MUL ADD PUSH1 0x0 ADD SLOAD DUP4 PUSH2 0x519B SWAP1 SWAP2 SWAP1 PUSH4 0xFFFFFFFF AND JUMP JUMPDEST SWAP2 POP JUMPDEST DUP1 DUP1 PUSH1 0x1 ADD SWAP2 POP POP PUSH2 0x5010 JUMP JUMPDEST POP DUP1 SWAP3 POP POP POP SWAP3 SWAP2 POP POP JUMP JUMPDEST PUSH1 0x1 PUSH1 0x0 SWAP1 SLOAD SWAP1 PUSH2 0x100 EXP SWAP1 DIV PUSH20 0xFFFFFFFFFFFFFFFFFFFFFFFFFFFFFFFFFFFFFFFF AND DUP2 JUMP JUMPDEST PUSH1 0x0 DUP3 DUP3 GT ISZERO PUSH2 0x512A JUMPI PUSH1 0x0 DUP1 REVERT JUMPDEST PUSH1 0x0 DUP3 DUP5 SUB SWAP1 POP DUP1 SWAP2 POP POP SWAP3 SWAP2 POP POP JUMP JUMPDEST PUSH1 0x0 DUP1 DUP4 EQ ISZERO PUSH2 0x514E JUMPI PUSH1 0x0 SWAP1 POP PUSH2 0x516F JUMP JUMPDEST PUSH1 0x0 DUP3 DUP5 MUL SWAP1 POP DUP3 DUP5 DUP3 DUP2 PUSH2 0x515F JUMPI INVALID JUMPDEST DIV EQ PUSH2 0x516A JUMPI PUSH1 0x0 DUP1 REVERT JUMPDEST DUP1 SWAP2 POP POP JUMPDEST SWAP3 SWAP2 POP POP JUMP JUMPDEST PUSH1 0x0 DUP1 DUP3 GT PUSH2 0x5183 JUMPI PUSH1 0x0 DUP1 REVERT JUMPDEST PUSH1 0x0 DUP3 DUP5 DUP2 PUSH2 0x518E JUMPI INVALID JUMPDEST DIV SWAP1 POP DUP1 SWAP2 POP POP SWAP3 SWAP2 POP POP JUMP JUMPDEST PUSH1 0x0 DUP1 DUP3 DUP5 ADD SWAP1 POP DUP4 DUP2 LT ISZERO PUSH2 0x51B0 JUMPI PUSH1 0x0 DUP1 REVERT JUMPDEST DUP1 SWAP2 POP POP SWAP3 SWAP2 POP POP JUMP JUMPDEST PUSH1 0x40 MLOAD DUP1 PUSH1 0x40 ADD PUSH1 0x40 MSTORE DUP1 PUSH1 0x0 DUP2 MSTORE PUSH1 0x20 ADD PUSH1 0x0 DUP2 MSTORE POP SWAP1 JUMP JUMPDEST DUP3 DUP1 SLOAD DUP3 DUP3 SSTORE SWAP1 PUSH1 0x0 MSTORE PUSH1 0x20 PUSH1 0x0 KECCAK256 SWAP1 DUP2 ADD SWAP3 DUP3 ISZERO PUSH2 0x5210 JUMPI SWAP2 PUSH1 0x20 MUL DUP3 ADD JUMPDEST DUP3 DUP2 GT ISZERO PUSH2 0x520F JUMPI DUP3 MLOAD DUP3 SSTORE SWAP2 PUSH1 0x20 ADD SWAP2 SWAP1 PUSH1 0x1 ADD SWAP1 PUSH2 0x51F4 JUMP JUMPDEST JUMPDEST POP SWAP1 POP PUSH2 0x521D SWAP2 SWAP1 PUSH2 0x5221 JUMP JUMPDEST POP SWAP1 JUMP JUMPDEST PUSH2 0x5243 SWAP2 SWAP1 JUMPDEST DUP1 DUP3 GT ISZERO PUSH2 0x523F JUMPI PUSH1 0x0 DUP2 PUSH1 0x0 SWAP1 SSTORE POP PUSH1 0x1 ADD PUSH2 0x5227 JUMP JUMPDEST POP SWAP1 JUMP JUMPDEST SWAP1 JUMP INVALID PUSH4 0x616E6E6F PUSH21 0x206C6F616E206D6F7265207468616E206D61784C6F PUSH2 0x6E69 PUSH15 0x67416D6F756E746163637275656450 PUSH6 0x7263656E7461 PUSH8 0x652073686F756C64 KECCAK256 PUSH3 0x652061 PUSH21 0x206C6561737420353063616E6E6F74207265636569 PUSH23 0x6520656E6F75676820746F6B656E732C20706C65617365 KECCAK256 PUSH4 0x6865636B KECCAK256 PUSH10 0x6620616C6C6F77616E63 PUSH6 0x206973207468 PUSH6 0x7265746F2063 PUSH2 0x6E73 PUSH2 0x6C2C KECCAK256 PUSH20 0x74616B696E67206D757374206265206163746976 PUSH6 0x746F74616C20 PUSH2 0x6374 PUSH10 0x7665207374616B696E67 PUSH20 0x2073686F756C64206265206E6F6E207A65726FA2 PUSH6 0x627A7A723058 KECCAK256 0xb9 SDIV EXTCODESIZE 0xc3 0xd1 0xa5 0xd3 DUP16 SWAP13 GT EXTCODECOPY PUSH3 0xC882D6 0x5f MUL SIGNEXTEND 0xea PUSH23 0x5220C96B3CF6BCFBB30E212064736F6C634300050A0032 "},"gasEstimates":{"creation":{"codeDepositCost":"4265800","executionCost":"infinite","totalCost":"infinite"},"external":{"cancelStaking(uint256)":"infinite","claimLaunchReward(uint256)":"infinite","createLoanPlan(uint256,uint256)":"61104","createStakingPlan(uint256,uint256)":"61060","deployedTimestamp()":"449","earthSecondsInMonth()":"450","getCurrentMonth()":"494","getNumberOfStakingsByUser(address)":"649","giveLaunchReward(address[],uint256)":"infinite","increaseMonth(uint256)":"40895","isStakingActive(address,uint256,uint256,uint256)":"infinite","launchReward(address)":"680","launchRewardBucket()":"452","loanPlans(uint256)":"1148","loans(address,uint256)":"1689","newStaking(uint256,uint256)":"infinite","nrtManager()":"522","owner()":"499","repayLoanSelf(uint256)":"infinite","restakeAccrued(uint256,uint256)":"infinite","seeMaxLoaningAmountOnUserStakings(address,uint256[])":"infinite","seeShareForUserByMonth(address,uint256)":"infinite","stakingPlans(uint256)":"1126","stakings(address,uint256)":"2618","takeLoanOnSelfStaking(uint256,uint256,uint256[])":"infinite","timeAllyMonthlyNRT(uint256)":"826","timeAllyMonthlyNRTArray()":"infinite","token()":"585","topupRewardBucket(uint256)":"infinite","totalActiveStakings(uint256)":"653","userActiveStakingByMonth(address,uint256)":"infinite","userEffectiveStakingByMonth(address,uint256)":"infinite","viewStaking(address,uint256)":"4070","withdrawCancelStaking(uint256)":"infinite","withdrawExpiredStakings(uint256[])":"infinite","withdrawShareForUserByMonth(uint256,uint256,bool,uint256)":"infinite"}},"methodIdentifiers":{"cancelStaking(uint256)":"9ab0388b","claimLaunchReward(uint256)":"da9d8aa0","createLoanPlan(uint256,uint256)":"82f97857","createStakingPlan(uint256,uint256)":"c71d5d58","deployedTimestamp()":"e6bbe424","earthSecondsInMonth()":"582e7e9e","getCurrentMonth()":"ddd1b67e","getNumberOfStakingsByUser(address)":"ad998fa0","giveLaunchReward(address[],uint256)":"59dcc8c5","increaseMonth(uint256)":"e78c81c4","isStakingActive(address,uint256,uint256,uint256)":"97a332d8","launchReward(address)":"7acab857","launchRewardBucket()":"070b8195","loanPlans(uint256)":"cc44a2fd","loans(address,uint256)":"98c61c37","newStaking(uint256,uint256)":"e5fd04e6","nrtManager()":"0df5202f","owner()":"8da5cb5b","repayLoanSelf(uint256)":"dea6cf43","restakeAccrued(uint256,uint256)":"3d5d6b5a","seeMaxLoaningAmountOnUserStakings(address,uint256[])":"be4ad9c3","seeShareForUserByMonth(address,uint256)":"2f3b59ea","stakingPlans(uint256)":"762e7a34","stakings(address,uint256)":"1849d8ea","takeLoanOnSelfStaking(uint256,uint256,uint256[])":"d0e32681","timeAllyMonthlyNRT(uint256)":"23a15e6b","timeAllyMonthlyNRTArray()":"497ec40f","token()":"fc0c546a","topupRewardBucket(uint256)":"53fcb2f3","totalActiveStakings(uint256)":"4ec0692c","userActiveStakingByMonth(address,uint256)":"eb12f7f5","userEffectiveStakingByMonth(address,uint256)":"41927861","viewStaking(address,uint256)":"46a4d6e3","withdrawCancelStaking(uint256)":"217d65fb","withdrawExpiredStakings(uint256[])":"e83f7843","withdrawShareForUserByMonth(uint256,uint256,bool,uint256)":"35f406ab"}},"userdoc":{"methods":{}}}